1                        J E S 2  J O B  L O G  --  S Y S T E M  S Y S B  --  N O D E  R L G
0
 09.46.48 JOB05978 ---- MONDAY,    22 MAR 2004 ----
 09.46.48 JOB05978  ICH70001I GG$PJG   LAST ACCESS AT 09:46:43 ON MONDAY, MARCH 22, 2004
 09.46.48 JOB05978  $HASP373 PJG#VFD  STARTED - INIT 3    - CLASS E - SYS SYSB
 09.46.48 JOB05978  ***  HCMD      STEP $$QUIET
 09.46.48 JOB05978  PURGE * Q=OUTPUT MULTIPLE
 09.46.48 JOB05978  JOB PJG#VFD NOT IN OUTPUT QUEUE
 09.46.49 JOB05978  PJG#VFD .$$QUIET .         RC=0008 TapeIO=0000 DiskIO=0000 CPU=  .01s Elapsed=08.56s
 09.46.49 JOB05978  PJG#VFD .$CND    .         RC=Zero TapeIO=0000 DiskIO=0002 CPU=  .01s Elapsed=09.62s
 09.46.49 JOB05978  PJG#VFD .$UNP    .         RC=Zero TapeIO=0000 DiskIO=0017 CPU=  .05s Elapsed=09.77s
 09.46.58 JOB05978  PJG#VFD .ASM     .         RC=Zero TapeIO=0000 DiskIO=0463 CPU= 1.91s Elapsed=10.00s
 09.47.00 JOB05978  PJG#VFD .$EDIT   .         RC=Zero TapeIO=0000 DiskIO=0073 CPU=  .30s Elapsed=18.71s
 09.47.00 JOB05978  PJG#VFD  Ended.  Name=Module: VFD                    Total CPU= 2.28s Elapsed=08.56s
 09.47.00 JOB05978
 09.47.00 JOB05978  Execution charges   Priority=Standard   Block=Day
 09.47.00 JOB05978
 09.47.00 JOB05978  CPU Usage          41.43          $25.68   Standard Processing Unit Equivalent
 09.47.00 JOB05978                                   =======
 09.47.00 JOB05978                                    $25.68   Total Job execution charge
 09.47.00 JOB05978
 09.47.00 JOB05978  See back separator page for print charges
 09.47.00 JOB05978
 09.47.00 JOB05978  $HASP395 PJG#VFD  ENDED  ASM=0
1        1 //PJG#VFD  JOB PJG$GG,'Module: VFD',TIME=1,MSGCLASS=C                   JOB05978
           /*JOBPARM HOLD=OUTPUT,LINES=50,CHARS=TN15,NOTIFY=YES
         2 //       EXEC PURGEOLD
         3 XXPURGEOLD PROC
           XX*
           XX* This proc is maintained by Jim Stosick
           XX*
         4 XX$$QUIET  EXEC PGM=HCMDX,PARM='PURGE * Q=OUTPUT MULTIPLE',
           XX         ACCT=(PURGEOLD,SYS3)
         5 //$CND   EXEC PGM=BILBO,REGION=512K,PARM='RECS=100'
         6 //STEPLIB  DD DSN=WYL.GG.ORV.LINKLIB,DISP=SHR
         7 //SYSPRINT DD SYSOUT=$
         8 //SYSUT1   DD DSN=WYL.GG.PJG.OBJ,DISP=OLD
         9 //SYSUT2   DD DSN=WYL.GG.PJG.OBJ,DISP=OLD
        10 //SYSIN    DD DUMMY
        11 //$UNP   EXEC PGM=WUNPRESS,PARM='NUM'
        12 //SYSPRINT DD SYSOUT=$
        13 //SYSUT1   DD DSN=WYL.GG.ORV.SOURCE.FILEUTIL(VFD),DISP=SHR
        14 //SYSUT2   DD DSN=&&INPUT,DISP=(,PASS),UNIT=SYSDA,
           //            SPACE=(TRK,(25,25),RLSE),DCB=CARD
        15 //ASM    EXEC PGM=ASMA90,REGION=8M,COND=(0,NE,$UNP),
           //            PARM=('SYSPARM(VFD),TERM,LANG(EN),OBJ',
           //          'LC(32500),XREF(SHORT),NODECK,NORLD,NODX,NOUS')
           //*STEPLIB  DD DSN=SYS1.SASMMOD1,DISP=SHR
        16 //SYSLIB   DD DSN=SYS3.DUMMYMAC,DISP=SHR,DCB=BLKSIZE=27920
        17 //         DD DSN=WYL.GG.SYS.MACLIB,DISP=SHR
        18 //         DD DSN=WYL.GG.ORV.BC.MACLIB,DISP=SHR
        19 //         DD DSN=SYS1.MACLIB,DISP=SHR
        20 //SYSUT1   DD DSN=&&SYSUT1,UNIT=VIO,DISP=(,DELETE),
           //            SPACE=(4088,(500,250),,CONTIG,ROUND)
        21 //SYSTERM  DD SYSOUT=$
        22 //SYSPRINT DD DSN=&&PRINT,UNIT=SYSDA,DISP=(,PASS),
           //            SPACE=(6650,(250,250),RLSE),
           //            DCB=(BLKSIZE=6650,LRECL=133,RECFM=FB)
        23 //SYSLIN   DD DSN=WYL.GG.PJG.OBJ(VFD),DISP=OLD
        24 //SYSUDUMP DD SYSOUT=A
        25 //SYSIN    DD DSN=&&INPUT,DISP=(OLD,DELETE)
        26 //$EDIT  EXEC PGM=ASMEDIT,REGION=1M,
           //            COND=EVEN,PARM='STMT,DATA'
        27 //STEPLIB  DD DSN=WYL.GG.SYS.LINKLIB,DISP=SHR
        28 //ASMOUT   DD DSN=&&PRINT,DISP=(OLD,DELETE)
        29 //SYSPRINT DD SYSOUT=A
        30 //SYSUDUMP DD SYSOUT=A
1 STMT NO. MESSAGE
         2 IEFC001I PROCEDURE PURGEOLD WAS EXPANDED USING SYSTEM LIBRARY SYS3.BETAPROC
        14 IGD01010I STORCLAS= TEMP STORGROUP =
        14 IGD01010I STORGRP=VIO ASSIGNED.
        20 IGD01010I STORCLAS= TEMP STORGROUP =
        20 IGD01010I STORGRP=VIO ASSIGNED.
        22 IGD01010I STORCLAS= TEMP STORGROUP =
        22 IGD01010I STORGRP=VIO ASSIGNED.
 ICH70001I GG$PJG   LAST ACCESS AT 09:46:43 ON MONDAY, MARCH 22, 2004
 IEF142I PJG#VFD $$QUIET - STEP WAS EXECUTED - COND CODE 0008
 *********************************************************************************
 *   PJG#VFD /$$QUIET /                    Return Code      0008                 *
 *   Region used      260K (16K user + 244K system)                              *
 *   Extended region  9352K (4K user + 9348K system)                             *
 *                                                                               *
 *   Paging              In      Out                                             *
 *   Private <-> Aux      0        0       CPU time (TCB)   00:00:00.01          *
 *   Private <-> Exp      0        0       CPU time (SRB)   00:00:00.00          *
 *   VIO                  0        0       Elapsed time    920:41:04.40          *
 *   Common               0      ---                                             *
 *                                                                               *
 *                                                                               *
 *   CPU Usage          0.18         $0.11  Standard Processing Unit Equivalent  *
 *                                   $0.11  Total Step execution charge          *
 *                                                                               *
 *    I/O count  DDname   Type Addr           I/O count  DDname   Type Addr      *
 *                         *** No I/O for this step ***                          *
 *********************************************************************************
 IEF373I STEP/$$QUIET /START 2004082.0946
 IEF374I STEP/$$QUIET /STOP  2004082.0946 CPU    0MIN 00.01SEC SRB    0MIN 00.00SEC VIRT    16K SYS   244K EXT       4K SYS    9348K
 IEF236I ALLOC. FOR PJG#VFD $CND
 IEF237I 0401 ALLOCATED TO STEPLIB
 IEF237I JES2 ALLOCATED TO SYSPRINT
 IEF237I 04DC ALLOCATED TO SYSUT1
 IEF237I 04DC ALLOCATED TO SYSUT2
 IEF237I DMY  ALLOCATED TO SYSIN
 IEF142I PJG#VFD $CND - STEP WAS EXECUTED - COND CODE 0000
 IEF285I   WYL.GG.ORV.LINKLIB                           KEPT
 IEF285I   VOL SER NOS= SYSB01.
 IEF285I   GG$PJG.PJG#VFD.JOB05978.D0000101.?           SYSOUT
 IEF285I   WYL.GG.PJG.OBJ                               KEPT
 IEF285I   VOL SER NOS= SYSB05.
 IEF285I   WYL.GG.PJG.OBJ                               KEPT
 IEF285I   VOL SER NOS= SYSB05.
 *********************************************************************************
 *   PJG#VFD /$CND    /                    Return Code      Zero                 *
 *   Region used      280K (16K user + 264K system)                              *
 *   Extended region  9392K (4K user + 9388K system)                             *
 *                                                                               *
 *   Paging              In      Out                                             *
 *   Private <-> Aux      0        0       CPU time (TCB)   00:00:00.01          *
 *   Private <-> Exp      0        0       CPU time (SRB)   00:00:00.00          *
 *   VIO                  0        0       Elapsed time    920:41:03.34          *
 *   Common               0      ---                                             *
 *                                                                               *
 *                                                                               *
 *   CPU Usage          0.18         $0.11  Standard Processing Unit Equivalent  *
 *                                   $0.11  Total Step execution charge          *
 *                                                                               *
 *    I/O count  DDname   Type Addr           I/O count  DDname   Type Addr      *
 *            2  STEPLIB  Disk 0401                   0  SYSPRINT      ----      *
 *            0  SYSUT1   Disk 04DC                   0  SYSUT2   Disk 04DC      *
 *            0  SYSIN         ----                                              *
 *********************************************************************************
 IEF373I STEP/$CND    /START 2004082.0946
 IEF374I STEP/$CND    /STOP  2004082.0946 CPU    0MIN 00.01SEC SRB    0MIN 00.00SEC VIRT    16K SYS   264K EXT       4K SYS    9388K
 IEF236I ALLOC. FOR PJG#VFD $UNP
 IEF237I JES2 ALLOCATED TO SYSPRINT
 IEF237I 0402 ALLOCATED TO SYSUT1
 IGD101I SMS ALLOCATED TO DDNAME (SYSUT2  )
         DSN (SYS04082.T094648.RA000.PJG#VFD.INPUT.H01    )
         STORCLAS (TEMP) MGMTCLAS (        ) DATACLAS (        )
         VOL SER NOS= SCR101
 IEF142I PJG#VFD $UNP - STEP WAS EXECUTED - COND CODE 0000
 IEF285I   GG$PJG.PJG#VFD.JOB05978.D0000102.?           SYSOUT
 IEF285I   WYL.GG.ORV.SOURCE.FILEUTIL                   KEPT
 IEF285I   VOL SER NOS= SYSB02.
 IGD106I SYS04082.T094648.RA000.PJG#VFD.INPUT.H01     PASSED,    DDNAME=SYSUT2
 *********************************************************************************
 *   PJG#VFD /$UNP    /                    Return Code      Zero                 *
 *   Region used      380K (108K user + 272K system)                             *
 *   Extended region  9468K (4K user + 9464K system)                             *
 *                                                                               *
 *   Paging              In      Out                                             *
 *   Private <-> Aux      0        0       CPU time (TCB)   00:00:00.05          *
 *   Private <-> Exp      0        0       CPU time (SRB)   00:00:00.00          *
 *   VIO                  0        0       Elapsed time    920:41:03.19          *
 *   Common               0      ---                                             *
 *                                                                               *
 *                                                                               *
 *   CPU Usage          0.93         $0.57  Standard Processing Unit Equivalent  *
 *                                   $0.57  Total Step execution charge          *
 *                                                                               *
 *    I/O count  DDname   Type Addr           I/O count  DDname   Type Addr      *
 *            0  SYSPRINT      ----                   3  SYSUT1   Disk 0402      *
 *           14  SYSUT2   Disk 04E3                                              *
 *********************************************************************************
 IEF373I STEP/$UNP    /START 2004082.0946
 IEF374I STEP/$UNP    /STOP  2004082.0946 CPU    0MIN 00.05SEC SRB    0MIN 00.00SEC VIRT   108K SYS   272K EXT       4K SYS    9464K
 IEF236I ALLOC. FOR PJG#VFD ASM
 IEF237I 0402 ALLOCATED TO SYSLIB
 IEF237I 04DC ALLOCATED TO
 IEF237I 0402 ALLOCATED TO
 IEF237I 04A0 ALLOCATED TO
 IGD101I SMS ALLOCATED TO DDNAME (SYSUT1  )
         DSN (SYS04082.T094648.RA000.PJG#VFD.SYSUT1.H01   )
         STORCLAS (TEMP) MGMTCLAS (        ) DATACLAS (        )
         VOL SER NOS= VIO
 IEF237I JES2 ALLOCATED TO SYSTERM
 IGD101I SMS ALLOCATED TO DDNAME (SYSPRINT)
         DSN (SYS04082.T094648.RA000.PJG#VFD.PRINT.H01    )
         STORCLAS (TEMP) MGMTCLAS (        ) DATACLAS (        )
         VOL SER NOS= SCR101
 IEF237I 04DC ALLOCATED TO SYSLIN
 IEF237I JES2 ALLOCATED TO SYSUDUMP
 IGD103I SMS ALLOCATED TO DDNAME SYSIN
 IEF142I PJG#VFD ASM - STEP WAS EXECUTED - COND CODE 0000
 IEF285I   SYS3.DUMMYMAC                                KEPT
 IEF285I   VOL SER NOS= SYSB02.
 IEF285I   WYL.GG.SYS.MACLIB                            KEPT
 IEF285I   VOL SER NOS= SYSB05.
 IEF285I   WYL.GG.ORV.BC.MACLIB                         KEPT
 IEF285I   VOL SER NOS= SYSB02.
 IEF285I   SYS1.MACLIB                                  KEPT
 IEF285I   VOL SER NOS= MVSBR9.
 IGD105I SYS04082.T094648.RA000.PJG#VFD.SYSUT1.H01    DELETED,   DDNAME=SYSUT1
 IEF285I   GG$PJG.PJG#VFD.JOB05978.D0000103.?           SYSOUT
 IGD106I SYS04082.T094648.RA000.PJG#VFD.PRINT.H01     PASSED,    DDNAME=SYSPRINT
 IEF285I   WYL.GG.PJG.OBJ                               KEPT
 IEF285I   VOL SER NOS= SYSB05.
 IEF285I   GG$PJG.PJG#VFD.JOB05978.D0000104.?           SYSOUT
 IGD105I SYS04082.T094648.RA000.PJG#VFD.INPUT.H01     DELETED,   DDNAME=SYSIN
 *********************************************************************************
 *   PJG#VFD /ASM     /                    Return Code      Zero                 *
 *   Region used      8484K (8192K user + 292K system)                           *
 *   Extended region  9952K (412K user + 9540K system)                           *
 *                                                                               *
 *   Paging              In      Out                                             *
 *   Private <-> Aux      0        0       CPU time (TCB)   00:00:01.85          *
 *   Private <-> Exp      0        0       CPU time (SRB)   00:00:00.06          *
 *   VIO                  0        0       Elapsed time    920:41:02.96          *
 *   Common               0      ---                                             *
 *                                                                               *
 *                                                                               *
 *   CPU Usage         34.68        $21.50  Standard Processing Unit Equivalent  *
 *                                  $21.50  Total Step execution charge          *
 *                                                                               *
 *    I/O count  DDname   Type Addr           I/O count  DDname   Type Addr      *
 *           27  SYSLIB   Disk 0402                 142  SYSLIB   Disk 04DC      *
 *            0  SYSLIB   Disk 0402                 205  SYSLIB   Disk 04A0      *
 *            0  SYSUT1   VIO  ----                   0  SYSTERM       ----      *
 *           70  SYSPRINT Disk 04E3                   4  SYSLIN   Disk 04DC      *
 *            0  SYSUDUMP      ----                  15  SYSIN    Disk 04E3      *
 *********************************************************************************
 IEF373I STEP/ASM     /START 2004082.0946
 IEF374I STEP/ASM     /STOP  2004082.0946 CPU    0MIN 01.85SEC SRB    0MIN 00.06SEC VIRT  8192K SYS   292K EXT     412K SYS    9540K
 IEF236I ALLOC. FOR PJG#VFD $EDIT
 IEF237I 0402 ALLOCATED TO STEPLIB
 IGD103I SMS ALLOCATED TO DDNAME ASMOUT
 IEF237I JES2 ALLOCATED TO SYSPRINT
 IEF237I JES2 ALLOCATED TO SYSUDUMP
 IEF142I PJG#VFD $EDIT - STEP WAS EXECUTED - COND CODE 0000
 IEF285I   WYL.GG.SYS.LINKLIB                           KEPT
 IEF285I   VOL SER NOS= SYSB02.
 IGD105I SYS04082.T094648.RA000.PJG#VFD.PRINT.H01     DELETED,   DDNAME=ASMOUT
 IEF285I   GG$PJG.PJG#VFD.JOB05978.D0000105.?           SYSOUT
 IEF285I   GG$PJG.PJG#VFD.JOB05978.D0000106.?           SYSOUT
 *********************************************************************************
 *   PJG#VFD /$EDIT   /                    Return Code      Zero                 *
 *   Region used      388K (116K user + 272K system)                             *
 *   Extended region  9468K (4K user + 9464K system)                             *
 *                                                                               *
 *   Paging              In      Out                                             *
 *   Private <-> Aux      0        0       CPU time (TCB)   00:00:00.29          *
 *   Private <-> Exp      0        0       CPU time (SRB)   00:00:00.01          *
 *   VIO                  0        0       Elapsed time    920:40:54.25          *
 *   Common               0      ---                                             *
 *                                                                               *
 *                                                                               *
 *   CPU Usage          5.43         $3.36  Standard Processing Unit Equivalent  *
 *                                   $3.36  Total Step execution charge          *
 *                                                                               *
 *    I/O count  DDname   Type Addr           I/O count  DDname   Type Addr      *
 *            2  STEPLIB  Disk 0402                  71  ASMOUT   Disk 04E3      *
 *            0  SYSPRINT      ----                   0  SYSUDUMP      ----      *
 *********************************************************************************
 IEF373I STEP/$EDIT   /START 2004082.0946
 IEF374I STEP/$EDIT   /STOP  2004082.0947 CPU    0MIN 00.29SEC SRB    0MIN 00.01SEC VIRT   116K SYS   272K EXT       4K SYS    9464K
 *********************************************************************************
 *                                                                               *
 *                      S t a n f o r d   U n i v e r s i t y                    *
 *                                                                               *
 *                              *** Job Summary ***                              *
 *                                                                               *
 *   System Id      SYSB                   Input time     09:38:34  Mar 22, 2004 *
 *                                                                               *
 *   System Release SP6.1.0                Start time     09:46:48  Mar 22, 2004 *
 *                                                                               *
 *   Job name       PJG#VFD                Stop  time     00:00:00  Mar 22, 2004 *
 *                                                                               *
 *   Account        PJG$GG                 Elapsed time  920:41:04.40            *
 *                                                                               *
 *   User Name      Module: VFD            CPU time       00:00:02.21            *
 *                                                                               *
 *   Job class      E                      SRB Time       00:00:00.07            *
 *                                                                               *
 *********************************************************************************
 IEF375I  JOB/PJG#VFD /START 2004082.0946
 IEF376I  JOB/PJG#VFD /STOP  2004082.0947 CPU    0MIN 02.21SEC SRB    0MIN 00.07SEC
1Data set successfully converted from EDIT to FB format
1Assembler Done VFD No Statements Flagged
1         High Level Assembler Option Summary                   (PTF UQ57391)                                               Page    1
-                                                                                            HLASM R4.0  2004/03/22 09.46
0  No Overriding ASMAOPT Parameters
   Overriding Parameters-  SYSPARM(VFD),TERM,LANG(EN),OBJ,LC(32500),XREF(SHORT),NODECK,NORLD,NODX,NOUS
   No Process Statements


   Options for this Assembly
0  NOADATA
     ALIGN
   NOASA
     BATCH
     CODEPAGE(047C)
   NOCOMPAT
   NODBCS
 3 NODECK
 3 NODXREF
     ESD
   NOEXIT
     FLAG(0,ALIGN,CONT,NOIMPLEN,NOPAGE0,PUSH,RECORD,NOSUBSTR,USING0)
   NOFOLD
   NOGOFF
   NOINFO
 3   LANGUAGE(EN)
   NOLIBMAC
 3   LINECOUNT(32500)
     LIST(121)
     MXREF(SOURCE)
 3   OBJECT
     OPTABLE(UNI,NOLIST)
   NOPCONTROL
   NOPESTOP
   NOPROFILE
   NORA2
   NORENT
 3 NORLD
     RXREF
     SIZE(MAX)
 3   SYSPARM(VFD)
 3   TERM(WIDE)
   NOTEST
     THREAD
   NOTRANSLATE
 3 NOUSING
 3   XREF(SHORT)

   No Overriding DD Names

1VFD      External Symbol Dictionary                                                                                        Page    2
-Symbol   Type   Id     Address  Length     LD ID  Flags Alias-of                            HLASM R4.0  2004/03/22 09.46
0VFD       SD 00000001 00000000 00001B00             00
 VFD03     LD          00000000           00000001
 START     LD          00000014           00000001
 DAY       ER 00000002
 SCINIT    ER 00000003
 SCAN      ER 00000004
 VSEG      LD          0000194A           00000001
 VSEG      ER 00000005

1VFD      ORVYL File System Dump Driver                                                                                     Page    3
0Loc    Object Code    Addr1 Addr2  Stmt Lv Lineno    Source Statement                    (Asmedit 3.3)  HLASM R4.0  2004/03/22 09.46
+___    ______ ____    _____ _____  ____ __ ______    ______ _________
0                                      2       2.     ********************************************************************
                                       3       3.     *                                                                  *
                                       4       4.     *      ORVYL/370  Release III - Class I - Stanford Proprietary     *
                                       5       5.     *                                                                  *
                                       6       6.     ********************************************************************
-
                                       8       8.              HIBAL ,
                                     989       9.              REGS  ,,SR,TR,QR,RR,BRR,BR,WAR,RAR
-000000                00000 01B00  1101      11.     VFD      CSECT ,
1VFD      ORVYL File System Dump Driver                                                                                     Page    4
0Loc    Object Code    Addr1 Addr2  Stmt Lv Lineno    Source Statement           (Hibal 5, Asmedit 3.3)  HLASM R4.0  2004/03/22 09.46
+___    ______ ____    _____ _____  ____ __ ______    ______ _________
0000000                00000 0000C  1106      13.     COM      RECORD BEGIN
                                    1114  1   14.                IEZCOM ,
                                    1115  1          +*   %COMCMT:;                 /*                             @G380P2N*/
                                    1116  1          +*/********************************************************************/
                                    1117  1          +*/*                                                                  */
                                    1118  1          +*/*  MACRO NAME = IEZCOM                                             */
                                    1119  1          +*/*                                                                  */
                                    1120  1          +*/*  DESCRIPTIVE NAME = COMMUNICATIONS PARAMETER LIST                */
                                    1121  1          +*/*                     MAPPING MACRO                                */
                                    1122  1          +*/*                                                                  */
                                    1123  1          +*/*  COPYRIGHT=                                              @G380P2N*/
                                    1124  1          +*/*              5740-XYN COPYRIGHT IBM CORP. 1980,                  */
                                    1125  1          +*/*              LICENSED MATERIAL-PROGRAM, PROPERTY OF IBM,         */
                                    1126  1          +*/*              REFER TO COPYRIGHT INSTRUCTIONS FORM                */
                                    1127  1          +*/*              G120-2083.                                          */
                                    1128  1          +*/*                                                                  */
                                    1129  1          +*/*  STATUS = OS/VS2 JBB1226                                 @G380P2N*/
                                    1130  1          +*/*                                                                  */
                                    1131  1          +*/********************************************************************/
                                    1132  1          +*  %GOTO COMPLS;              /*                             @G380P2N
 000000                             1133  1 01-IEZCO +           DS    0D
                                    1134  1 01-IEZCO +COMLIST    EQU   * COMPTR ->    COMMUNICATIONS PARAMETER LIST
                                    1135  1          +
 000000                             1136  1 01-IEZCO +COMECBPT   DS    A -            PTR TO ECB FOR STOP OR MODIFY COMMAND
 000004                             1137  1 01-IEZCO +COMCIBPT   DS    A -            PTR TO COMMAND INPUT BUFFER (CIB)
                                    1138  1          +*                               MAPPED BY THE MACRO IEZCIB
 000008                             1139  1 01-IEZCO +COMTOKEN   DS    CL4 -          31 BIT RIGHT JUSTIFIED TOKEN
                                    1140  1          +*                                                   (MDC001)   @G380P2N
                                    1141  1 01-IEZCO +COMTOKHR   EQU   X'80' -        BIT = 1 INDICATES A TOKEN PRESENT
                                    1142  1          +*                                                   (MDC001)   @G380P2N
                                    1143  1          +*                     END OF IEZCOM
 00000C                0000C 0000C  1144      15.              END   ,
1VFD      ORVYL File System Dump Driver                                                                                     Page    5
0D-Loc  Object Code    Addr1 Addr2  Stmt Lv Lineno    Source Statement           (Hibal 5, Asmedit 3.3)  HLASM R4.0  2004/03/22 09.46
+_____  ______ ____    _____ _____  ____ __ ______    ______ _________
0000000                00000 00018  1154      17.     CIB      DSECT ,
 000000 03             00000 00030  1155      18.              IEZCIB ,
 000000                00000 01B00  1286      19.     VFD      CSECT ,
                                    1288      20.              PRINT OFF
1VFD      ORVYL File System Dump Driver                                                                                     Page    6
0Loc    Object Code    Addr1 Addr2  Stmt Lv Lineno    Source Statement           (Hibal 5, Asmedit 3.3)  HLASM R4.0  2004/03/22 09.46
+___    ______ ____    _____ _____  ____ __ ______    ______ _________
0                                   2041      32.     *
                                    2042      33.     *  DEFINE JOB SPECIFIC FLAG SETTING
                                    2043      34.     *
0000000                00000 00001  2045      36.     JOBFLGS  RECORD BEGIN
 000000 00                          2053  1   37.     JOBFLG     FLAG  ,
 JOBFLG.JOBHOLD    80 ONES          2057  1   38.                FLAG  JOBHOLD             Submit for manual release
 JOBFLG.NEWPROC    40 ONES          2062  1   39.                FLAG  NEWPROC             Utilize new general procedure
 JOBFLG.GUESS      20 ONES          2067  1   40.                FLAG  GUESS               You'll never figure this one out
 000001                00001 00001  2072      45.              END   ,
-                                   2082      47.     *
                                    2083      48.     *  DEFINE JOB FLAG SET MACRO
                                    2084      49.     *
0                                   2086      51.              MACRO
                                    2087      52.     &LBL     SETJOBF &F
                                    2088      53.              LCLA  &NUM
                                    2089      54.              LCLA  &VAL                Work for flag settings
                                    2090      55.     &VAL     SETA  0
                                    2091      56.              AIF   (T'&F(6) EQ 'O').NOJHOLD
                                    2092      57.              AIF   ('&F(6)' NE 'Y').NOJHOLD
                                    2093      58.              MNOTE *,'&F'
                                    2094      59.     &NUM     SETA  L'JOBHOLD
                                    2095      60.     &VAL     SETA  &VAL+&NUM
                                    2096      61.     .NOJHOLD ANOP  ,
                                    2097      62.              AIF   (T'&F(7) EQ 'O').NONPROC
                                    2098      63.              AIF   ('&F(7)' NE 'Y').NONPROC
                                    2099      64.              MNOTE *,'&F'
                                    2100      65.     &NUM     SETA  L'NEWPROC
                                    2101      66.     &VAL     SETA  &VAL+&NUM
                                    2102      67.     .NONPROC ANOP  ,
                                    2103      68.              AIF   (T'&F(8) EQ 'O').NOGUESS
                                    2104      69.              AIF   ('&F(8)' NE 'Y').NOGUESS
                                    2105      70.     &NUM     SETA  L'GUESS
                                    2106      71.     &VAL     SETA  &VAL+&NUM
                                    2107      72.     .NOGUESS ANOP  ,
                                    2108      73.     &LBL     DC    AL1(&VAL)             -  Set job specific flags
                                    2109      74.              DC    AL1(0)                -  Reserved flags
                                    2110      75.              MEND  ,
1VFD      ORVYL File System Dump Driver                                                                                     Page    7
0Loc    Object Code    Addr1 Addr2  Stmt Lv Lineno    Source Statement           (Hibal 5, Asmedit 3.3)  HLASM R4.0  2004/03/22 09.46
+___    ______ ____    _____ _____  ____ __ ______    ______ _________
0                                   2112      77.     *
                                    2113      78.     *  DEFINE MACRO FOR OPTION RECORD DEFINITIONS
                                    2114      79.     *
0                                   2116      81.              MACRO ,
                                    2117      82.   C &LBL     DMP   &TYPE=RECORD,&FSN=,&CLASS=P,&TIME=0,&NAME=GENERAL,
                                              83.   C                &BIN=767,&ACC='GS.ORV',&AFF=NULL,&ORVNAME=,&T90=1,
                                              84.   C                &DUMP=(FILEDUMP,FILEDUMP,20,1,2),
                                              85.   C                &INCR=(INCDUMP,INCDUMP,20,0,1),
                                              86.   C                &VRFY=(RUNVRFY,VERIFY,20,0,0),
                                              87.                    &READ=(RDBCK,RDBCK,20,0,2)
                                    2118      88.     .*
                                    2119      89.     .*
                                    2120      90.              GBLA  &FSNCNT             Number of file records
                                    2121      91.              GBLC  &FSNME(10)          Define name array
                                    2122      92.              LCLB  &RSW                Record define switch
                                    2123      93.              LCLA  &I                  Record counter
                                    2124      94.              LCLC  &X                  Preset label prefix
                                    2125      95.              LCLC  &S                  General string variable
                                    2126      96.     .*
                                    2127      97.     .*
                                    2128      98.              AIF   ('&TYPE' EQ 'GENERATE').GENTAB
                                    2129      99.              AIF   ('&TYPE' NE 'RECORD').NOTREC
                                    2130     100.     .*
                                    2131     101.     .* DEFINE RECORD FORMAT
                                    2132     102.     .*
                                    2133     103.     &X       SETC  ''                  NULL PREFIX FOR RECORD FORMAT
                                    2134     104.     &RSW     SETB  1                   SET DEFINING MAPPING RECORD
                                    2135     105.     .*
                                    2136     106.     .*
                                    2137     107.     OPTS     RECORD BEGIN              Define dump-record format
                                    2138     108.     FB       FLAG  ,                   Define action flags
                                    2139     109.              FLAG  DMP                   - Full filedump requested
                                    2140     110.              FLAG  VRFY                  - Verify only requested
                                    2141     111.              FLAG  INC                   - Incremental dump requested
                                    2142     112.              FLAG  DOIT                  - Action required for this rec
                                    2143     113.              FLAG  DELAY                 - Timed delay capsule
                                    2144     114.              FLAG  RDBCK                 - Readback segment required
                                    2145     115.              SPACE ,
                                    2146     116.              AGO   .NOTREC2
                                    2147     117.     .NOTREC  ANOP  ,
                                    2148     118.     &X       SETC  '&FSN'(1,3)         Set prefix
                                    2149     119.     &FSNCNT  SETA  &FSNCNT+1           Count number of records
                                    2150     120.     &FSNME(&FSNCNT) SETC '&FSN.DATA'   Set file system prefix value
                                    2151     121.     &X.DATA  DC    0A(0)               Alignment for record
                                    2152     122.     &X.FLGS  DC    XL1'00'             Define flag byte
                                    2153     123.     .NOTREC2 ANOP  ,
                                    2154     124.     &X.CLASS DC    C'&CLASS'           Job class required for submit
                                    2155     125.     &X.TIME  DC    A(&TIME)            Time to release job (seconds)
                                    2156     126.     &X.AFF   DC    CL4'&AFF'           Jobparm SYSAFF requirement
                                    2157     127.     &X.BIN   DC    CL3'&BIN'           Bin number to assign to output
                                    2158     127.1    &X.T90   DC    XL1'&T90'           USE 3490E DRIVES
                                    2159     128.     &S       SETC  ' '                 DEFAULT OF BLANKS
                                    2160     129.              AIF   (T'&ORVNAME EQ 'O').NOORVN
                                    2161     130.     &S       SETC  '&ORVNAME'          SET SPECIFIED ORVYL NAME
                                    2162     131.     .NOORVN  ANOP  ,
1VFD      ORVYL File System Dump Driver                                                                                     Page    8
0Loc    Object Code    Addr1 Addr2  Stmt Lv Lineno    Source Statement           (Hibal 5, Asmedit 3.3)  HLASM R4.0  2004/03/22 09.46
+___    ______ ____    _____ _____  ____ __ ______    ______ _________
0                                   2163     132.     &X.NAME  DC    CL8'&NAME'          Set ORVYL file system name
                                    2164     133.     &X.ORVN  DC    CL8'&S'             Set ORVYL name for jobparm
                                    2165     134.     &X.RACC  DC    CL6&ACC             Account to submit job under
                                    2166     135.     *
                                    2167     136.     *                                  Incremental dump job parameters
                                    2168     137.     &X.IPRC  DC    CL8'&INCR(1)'         -  Cataloged procedure name
                                    2169     138.     &X.IJ    DC    CL8'&INCR(2)'         -  Jobname
                                    2170     139.     &X.IJT   DC    CL2'&INCR(3)'         -  Job time limit value
                                    2171     140.     &X.IJ2   DC    CL1'&INCR(4)'         -  Number of 3420's to reserve
                                    2172     141.     &X.IJ8   DC    CL1'&INCR(5)'         -  Number of 3480's to reserve
                                    2173     142.     &X.IFLG  SETJOBF &INCR             SET JOB SPECIFIC FLAGS
                                    2174     143.     *
                                    2175     144.     *                                  Verify parameters
                                    2176     145.     &X.VPRC  DC    CL8'&VRFY(1)'         -  Cataloged procedure name
                                    2177     146.     &X.VJ    DC    CL8'&VRFY(2)'         -  Jobname
                                    2178     147.     &X.VJT   DC    CL2'&VRFY(3)'         -  Job time limit value
                                    2179     148.     &X.VJ2   DC    CL1'&VRFY(4)'         -  Number of 3420's to reserve
                                    2180     149.     &X.VJ8   DC    CL1'&VRFY(5)'         -  Number of 3480's to reserve
                                    2181     150.     &X.VFLG  SETJOBF &VRFY             JOB SPECIFIC FLAGS
                                    2182     151.     *
                                    2183     152.     *                                  Filedump job parameters
                                    2184     153.     &X.DPRC  DC    CL8'&DUMP(1)'         -  Cataloged procedure name
                                    2185     154.     &X.DJ    DC    CL8'&DUMP(2)'         -  Jobname
                                    2186     155.     &X.DJT   DC    CL2'&DUMP(3)'         -  Job time limit value
                                    2187     156.     &X.DJ2   DC    CL1'&DUMP(4)'         -  Number of 3420's to reserve
                                    2188     157.     &X.DJ8   DC    CL1'&DUMP(5)'         -  Number of 3480's to reserve
                                    2189     158.     &X.DFLG  SETJOBF &DUMP             JOB SPECIFIC FLAGS
                                    2190     159.     *
                                    2191     160.     *                                  Readback job parameters
                                    2192     161.     &X.RP    DC    CL8'&READ(1)'         -  Cataloged procedure name
                                    2193     162.     &X.RJ    DC    CL8'&READ(2)'         -  Jobname
                                    2194     163.     &X.RJT   DC    CL2'&READ(3)'         -  Job time limit value
                                    2195     164.     &X.RJ2   DC    CL1'&READ(4)'         -  Number of 3420's to reserve
                                    2196     165.     &X.RJ8   DC    CL1'&READ(5)'         -  Number of 3480's to reserve
                                    2197     166.     &X.RFLG  SETJOBF &READ             JOB SPECIFIC FLAGS
                                    2198     167.              AIF   (&RSW EQ 0).NOTREC3
                                    2199     168.              END   ,
                                    2200     169.     .NOTREC3 ANOP  ,
                                    2201     170.              AGO   .END
                                    2202     171.     .GENTAB  ANOP  ,
                                    2203     172.     &I       SETA  1                   GENERATE RECORD TABLE
                                    2204     173.     FUNCVECT DC    0A(0)               FULLWORD ALIGNMENT OF TABLE
                                    2205     174.     .GEN1    ANOP  ,
                                    2206     175.     &S       SETC  '&FSNME(&I)'        SET NAME OF RECORD
                                    2207     176.              AIF   (&I LT &FSNCNT).SKP1
                                    2208     177.     &S       SETC  '&S.+X''80000000''' MARK AS LAST
                                    2209     178.     .SKP1    DC    A(&S)
                                    2210     179.     &I       SETA  &I+1
                                    2211     180.              AIF   (&I LE &FSNCNT).GEN1
                                    2212     181.     .END     ANOP  ,
                                    2213     182.              MEND  ,
1VFD      ORVYL File System Dump Driver                                                                                     Page    9
0Loc    Object Code    Addr1 Addr2  Stmt Lv Lineno    Source Statement           (Hibal 5, Asmedit 3.3)  HLASM R4.0  2004/03/22 09.46
+___    ______ ____    _____ _____  ____ __ ______    ______ _________
0                                   2215     184.     *
 000000 00             00000 0007E  2217     186.              DMP   TYPE=RECORD         DEFINE DUMP RECORD FORMAT
 FB.DMP            80 ONES
 FB.VRFY           40 ONES
 FB.INC            20 ONES
 FB.DOIT           10 ONES
 FB.DELAY          08 ONES
 FB.RDBCK          04 ONES
0000001 D7                          2261  1 01-02154 +CLASS      DC    C'P'                Job class required for submit
 000002 0000                              1          +
 000004 00000000                    2262  1 01-02155 +TIME       DC    A(0)                Time to release job (seconds)
 000008 D5E4D3D3                    2263  1 01-02156 +AFF        DC    CL4'NULL'           Jobparm SYSAFF requirement
 00000C F7F6F7                      2264  1 01-02157 +BIN        DC    CL3'767'            Bin number to assign to output
 00000F 01                          2265  1 01-02158 +T90        DC    XL1'1'              USE 3490E DRIVES
 000010 C7C5D5C5D9C1D340            2266  1 01-02163 +NAME       DC    CL8'GENERAL'        Set ORVYL file system name
 000018 4040404040404040            2267  1 01-02164 +ORVN       DC    CL8' '              Set ORVYL name for jobparm
 000020 C7E24BD6D9E5                2268  1 01-02165 +RACC       DC    CL6'GS.ORV'         Account to submit job under
                                    2269  1          +*
                                    2270  1          +*                                  Incremental dump job parameters
 000026 C9D5C3C4E4D4D740            2271  1 01-02168 +IPRC       DC    CL8'INCDUMP'          -  Cataloged procedure name
 00002E C9D5C3C4E4D4D740            2272  1 01-02169 +IJ         DC    CL8'INCDUMP'          -  Jobname
 000036 F2F0                        2273  1 01-02170 +IJT        DC    CL2'20'               -  Job time limit value
 000038 F0                          2274  1 01-02171 +IJ2        DC    CL1'0'                -  Number of 3420's to reserve
 000039 F1                          2275  1 01-02172 +IJ8        DC    CL1'1'                -  Number of 3480's to reserve
 00003A 00                          2277  1 02-02108 +IFLG       DC    AL1(0)                -  Set job specific flags
 00003B 00                          2278  1 02-02109 +           DC    AL1(0)                -  Reserved flags
                                    2279  1          +*
                                    2280  1          +*                                  Verify parameters
 00003C D9E4D5E5D9C6E840            2281  1 01-02176 +VPRC       DC    CL8'RUNVRFY'          -  Cataloged procedure name
 000044 E5C5D9C9C6E84040            2282  1 01-02177 +VJ         DC    CL8'VERIFY'           -  Jobname
 00004C F2F0                        2283  1 01-02178 +VJT        DC    CL2'20'               -  Job time limit value
 00004E F0                          2284  1 01-02179 +VJ2        DC    CL1'0'                -  Number of 3420's to reserve
 00004F F0                          2285  1 01-02180 +VJ8        DC    CL1'0'                -  Number of 3480's to reserve
 000050 00                          2287  1 02-02108 +VFLG       DC    AL1(0)                -  Set job specific flags
 000051 00                          2288  1 02-02109 +           DC    AL1(0)                -  Reserved flags
                                    2289  1          +*
                                    2290  1          +*                                  Filedump job parameters
 000052 C6C9D3C5C4E4D4D7            2291  1 01-02184 +DPRC       DC    CL8'FILEDUMP'         -  Cataloged procedure name
 00005A C6C9D3C5C4E4D4D7            2292  1 01-02185 +DJ         DC    CL8'FILEDUMP'         -  Jobname
 000062 F2F0                        2293  1 01-02186 +DJT        DC    CL2'20'               -  Job time limit value
 000064 F1                          2294  1 01-02187 +DJ2        DC    CL1'1'                -  Number of 3420's to reserve
 000065 F2                          2295  1 01-02188 +DJ8        DC    CL1'2'                -  Number of 3480's to reserve
 000066 00                          2297  1 02-02108 +DFLG       DC    AL1(0)                -  Set job specific flags
 000067 00                          2298  1 02-02109 +           DC    AL1(0)                -  Reserved flags
                                    2299  1          +*
                                    2300  1          +*                                  Readback job parameters
 000068 D9C4C2C3D2404040            2301  1 01-02192 +RP         DC    CL8'RDBCK'            -  Cataloged procedure name
 000070 D9C4C2C3D2404040            2302  1 01-02193 +RJ         DC    CL8'RDBCK'            -  Jobname
 000078 F2F0                        2303  1 01-02194 +RJT        DC    CL2'20'               -  Job time limit value
 00007A F0                          2304  1 01-02195 +RJ2        DC    CL1'0'                -  Number of 3420's to reserve
 00007B F2                          2305  1 01-02196 +RJ8        DC    CL1'2'                -  Number of 3480's to reserve
 00007C 00                          2307  1 02-02108 +RFLG       DC    AL1(0)                -  Set job specific flags
 00007D 00             0007E 0007E  2308    02-02109 +         DC    AL1(0)                -  Reserved flags
1VFD      ORVYL File System Dump Driver                                                                                     Page   10
0Loc    Object Code    Addr1 Addr2  Stmt Lv Lineno    Source Statement           (Hibal 5, Asmedit 3.3)  HLASM R4.0  2004/03/22 09.46
+___    ______ ____    _____ _____  ____ __ ______    ______ _________
00006D4                006D4 01B00  2320     189.              DATA  BEGIN
 0006D8                             2325  1  190.     CLWTEMP    DS    5D                      WORK SPACE
 000700 00000000                    2326  1  191.     WAITTIME   DC    A(0)                TASK WAIT TIME
 000704 00000000                    2327  1  192.     VSAREA     DC    A(0)                    VS SAVE AREA ADDRESS
 000708 00000000                    2328  1  193.     PARMPNTR   DC    A(0)                    PARM PNTR
 00070C 00000000                    2329  1  194.     COMMADDR   DC    A(0)                    ADDR OF COMMUNICATIONS CHAIN
 000710 00000000                    2330  1  195.     TIMEVECT   DC    A(0)                POINTER TO TIMED DELAY RECORDS
 000714 0000                        2331  1  196.     SEGLEN     DC    H'0'
 000716 4040404040404040            2332  1  197.     SEGBUF     DC    CL133' '
 00079B 4040404040404040            2333  1  198.     BUFFER     DC    CL80' '
 0007EB 00                                1
 0007EC 00000000                    2334  1  199.     MSGID      DC    A(0)                ML(WTO) MESSAGE IDENTIFIER
 0007F0 00                          2335  1  200.     MCSID      DC    X'00'                   MCS CONSOLE ID
-                                         1
                                    2338  1  203.                SCANCB PFX=VFD
 0007F4                             2339  1 01-SCANC +VFDCB      DS    0F
 0007F4                             2340  1 01-SCANC +VFDVAL     DS    A                       VALUE RETURNED
 0007F8                             2341  1 01-SCANC +VFDKW      DS    CL8                     CURRENT KEY WORD
 000800                             2342  1 01-SCANC +VFDLEN     DS    A                       LENGTH LEFT TO SCAN
 000804                             2343  1 01-SCANC +VFDLOC     DS    A                       NEXT THING TO SCAN
 000808                             2344  1 01-SCANC +VFDRA      DS    A                       RETURN ADDRESS
 00080C                             2345  1 01-SCANC +VFDPRT     DS    A                       ROUTING TABLE ADDRESS
 000810                             2346  1 01-SCANC +VFDCLT     DS    A                       SCAN TYPE
                                    2347  1          +*                                      0 = NORMAL SCAN
                                    2348  1          +*                                      4 = EXPRESSION ISOLATION
                                    2349  1          +*                                      8 = EXPRESSION SCAN
                                    2350  1 01-SCANC +VFDCBL     EQU *-VFDCB
0000814 00                          2353  1  206.     GOOFBALL   FLAG  ,                   BOY AM I TIRED!
 GOOFBALL.CONT     80 ONES          2357  1  207.                FLAG  CONT                      CONTINUATION FLAG
 GOOFBALL.EOREC    40 ONES          2362  1  208.                FLAG  EOREC                     END OF RECORD FLAG
 GOOFBALL.INTALC   20 ONES          2367  1  209.                FLAG  INTALC                    INTRDR HAD BEEN ALLOCATED
1VFD      ORVYL File System Dump Driver                                                                                     Page   11
0Loc    Object Code    Addr1 Addr2  Stmt Lv Lineno    Source Statement           (Hibal 5, Asmedit 3.3)  HLASM R4.0  2004/03/22 09.46
+___    ______ ____    _____ _____  ____ __ ______    ______ _________
0                                   2373  1  223.
                                    2374  1  223.1
                                    2375  1  224.       SYSA NSI File System Dump Definition
                                    2376  1  226.
                                          1
0                                   2377  1  227.                PRINT NOGEN
                                    2379  1  228.   C            DMP   AFF=SYSA,ACC='GS.ORV',CLASS=P,TIME=0,BIN=767,
                                          1  229.   C                  NAME=NSI,FSN=NSI,TYPE=,
                                          1  230.   C                  DUMP=(ORVUTIL,NSIDUMP,20,0,2,,Y),
                                          1  231.   C                  INCR=(ORVUTIL,NSIINC,20,0,1,,Y),
                                          1  232.   C                  VRFY=(ORVUTIL,NSIVRFY,20,0,0,,Y),
 000818 00                                1  233.                      READ=(ADIRDBCK,NSIRDBCK,20,0,2)
-                                   2434  1  235.     *
                                    2435  1  236.     *  SYSA FIS File System Dump Definition
                                    2436  1  237.     *
                                    2437  1  238.   C            DMP   AFF=SYSA,ACC='GS.ORV',CLASS=P,TIME=0,BIN=767,
                                          1  239.   C                  NAME=FIS,FSN=FIS,TYPE=,
                                          1  240.   C                  DUMP=(ORVUTIL,FISDUMP,20,0,2,,Y),
                                          1  241.   C                  INCR=(ORVUTIL,FISINC,20,0,1,,Y),
                                          1  242.   C                  VRFY=(ORVUTIL,FISVRFY,20,0,0,,Y),
 000898 00                                1  243.                      READ=(FISRDBCK,FISRDBCK,20,0,2)
-                                   2492  1  245.     *
                                    2493  1  246.     *  SYSA FOLIO File System Dump Definition
                                    2494  1  247.     *
                                    2495  1  248.   C            DMP   AFF=SYSA,ACC='GS.ORV',CLASS=P,TIME=0,BIN=767,
                                          1  249.   C                  NAME=SOCRATES,FSN=FOL,TYPE=,
                                          1  250.   C                  DUMP=(ORVUTIL,FOLDUMP,20,0,2,,Y),
                                          1  251.   C                  INCR=(ORVUTIL,FOLINC,20,0,1,,Y),
                                          1  252.   C                  VRFY=(ORVUTIL,FOLVRFY,20,0,0,,Y),
 000918 00                                1  253.                      READ=(FOLRDBCK,FOLRDBCK,20,0,2)
-                                   2550  1  254.01   *
                                    2551  1  254.02   *  SYSA ROUTE66 File System Dump Definition
                                    2552  1  254.03   *
                                    2553  1  254.04 C            DMP   AFF=SYSA,ACC='GS.ORV',CLASS=P,TIME=0,BIN=767,
                                          1  254.05 C                  NAME=ROUTE66,FSN=RTE,TYPE=,
                                          1  254.06 C                  DUMP=(ORVUTIL,RTEDUMP,20,0,1,,Y),
                                          1  254.07 C                  INCR=(ORVUTIL,RTEINC,20,0,1,,Y),
                                          1  254.08 C                  VRFY=(ORVUTIL,RTEVRFY,20,0,0,,Y),
 000998 00                                1  254.09                    READ=(RTERDBCK,RTERDBCK,20,0,2)
-                                   2608  1  255.     *
                                    2609  1  256.     *  SYSA SOCRATES File System Dump Definition
                                    2610  1  257.     *
                                    2611  1  258.   C            DMP   AFF=SYSA,ACC='GS.ORV',CLASS=P,TIME=0,BIN=767,
                                          1  259.   C                  NAME=SOCRATES,FSN=SOC,TYPE=,
                                          1  260.   C                  DUMP=(ORVUTIL,SOCDUMP,20,0,2,,Y),
                                          1  261.   C                  INCR=(ORVUTIL,SOCINC,20,0,1,,Y),
                                          1  262.   C                  VRFY=(ORVUTIL,SOCVRFY,20,0,0,,Y),
1VFD      ORVYL File System Dump Driver                                                                                     Page   12
0Loc    Object Code    Addr1 Addr2  Stmt Lv Lineno    Source Statement           (Hibal 5, Asmedit 3.3)  HLASM R4.0  2004/03/22 09.46
+___    ______ ____    _____ _____  ____ __ ______    ______ _________
0000A18 00                                1  263.                      READ=(FOLRDBCK,SOCRDBCK,20,0,2)
-                                   2666  1  265.     *
                                    2667  1  266.     *  SYSA GENERAL File System Dump Definition
                                    2668  1  267.     *
                                    2669  1  268.   C            DMP   AFF=SYSA,ACC='GS.ORV',CLASS=P,TIME=0,BIN=767,
                                          1  269.   C                  FSN=GEN,TYPE=,
                                          1  270.   C                  DUMP=(ORVUTIL,GENDUMP,20,0,2,,Y),
                                          1  271.   C                  INCR=(ORVUTIL,GENINC,20,0,1,,Y),
                                          1  272.   C                  VRFY=(ORVUTIL,GENVRFY,20,0,0,,Y),
 000A98 00                                1  273.                      READ=(GENRDBCK,GENRDBCK,20,0,2)
-                                   2724  1  275.     *
                                    2725  1  276.     *  SYSA INTERNAL File System Dump Definition
                                    2726  1  277.     *
                                    2727  1  278.   C            DMP   AFF=SYSA,ACC='GS.ORV',CLASS=P,TIME=0,BIN=767,
                                          1  279.   C                  NAME=ITS,FSN=INT,TYPE=,
                                          1  280.   C                  DUMP=(ORVUTIL,INTDUMP,20,0,2,,Y),
                                          1  281.   C                  INCR=(ORVUTIL,INTINC,20,0,1,,Y),
                                          1  282.   C                  VRFY=(ORVUTIL,INTVRFY,20,0,0,,Y),
 000B18 00                                1  283.                      READ=(INTRDBCK,INTRDBCK,20,0,2)
-                                   2782  1  285.     *
                                    2783  1  286.     *  SYSA OOD File System Dump Definition
                                    2784  1  287.     *
                                    2785  1  288.   C            DMP   AFF=SYSA,ACC='GS.ORV',CLASS=P,TIME=0,BIN=767,
                                          1  289.   C                  FSN=OOD,TYPE=,NAME=OOD,
                                          1  290.   C                  DUMP=(ORVUTIL,OODDUMP,20,0,1,,Y),
                                          1  291.   C                  INCR=(ORVUTIL,OODINC,20,0,1,,Y),
                                          1  292.   C                  VRFY=(ORVUTIL,OODVRFY,20,0,0,,Y),
 000B98 00                                1  293.                      READ=(OODRDBCK,OODRDBCK,20,0,1)
-                                   2840  1  295.     *
                                    2841  1  296.     *  SYSA SDCACCT File System Dump Definition
                                    2842  1  297.     *
                                    2843  1  298.   C            DMP   AFF=SYSA,ACC='GS.ORV',CLASS=P,TIME=0,BIN=767,
                                          1  299.   C                  NAME=SDCACCT,FSN=SDC,TYPE=,
                                          1  300.   C                  DUMP=(ORVUTIL,SDCDUMP,20,0,1,,Y),
                                          1  301.   C                  INCR=(ORVUTIL,SDCINC,20,0,1,,Y),
                                          1  302.   C                  VRFY=(ORVUTIL,SDCVRFY,20,0,0,,Y),
 000C18 00                                1  303.                      READ=(SDCRDBCK,SDCRDBCK,20,0,1)
1VFD      ORVYL File System Dump Driver                                                                                     Page   13
0Loc    Object Code    Addr1 Addr2  Stmt Lv Lineno    Source Statement           (Hibal 5, Asmedit 3.3)  HLASM R4.0  2004/03/22 09.46
+___    ______ ____    _____ _____  ____ __ ______    ______ _________
0                                   2898  1  332.     ******
                                    2899  1  333.     *
                                    2900  1  334.     *  BEGIN DEFINITIANS FOR SYSB RLG FILE SYSTEMS
                                    2901  1  335.     *
                                    2902  1  336.     **********
                                    2903  1  337.     *
                                    2904  1  338.     *  RLG BKSINDEX File System Dump Definition
                                    2905  1  339.     *
                                    2906  1  340.     **********
-                                   2908  1  342.   C            DMP   AFF=RLG,ACC='HB.ORV',CLASS=P,TIME=0,BIN=L45,
                                          1  343.   C                  ORVNAME=ORVYLRLG,NAME=BKSINDEX,FSN=BIX,TYPE=,
                                          1  344.   C                  DUMP=(ORVUTIL,BIXDUMP,20,0,1,Y),
                                          1  345.   C                  INCR=(ORVUTIL,BIXINC,20,0,1),
                                          1  346.   C                  VRFY=(ORVUTIL,BIXVRFY,20,0,0),
 000C98 00                                1  347.                      READ=(BIXRDBCK,BIXRDBCK,20,0,2)
-                                   2961  1  349.     *
                                    2962  1  350.     *  RLG BKSRES1 File System Dump Definition
                                    2963  1  351.     *
                                    2964  1  352.   C            DMP   AFF=RLG,ACC='H1.ORV',CLASS=P,TIME=0,BIN=L45,
                                          1  353.   C                  ORVNAME=ORVYLRLG,NAME=BKSRES1,FSN=BR1,TYPE=,
                                          1  354.   C                  DUMP=(ORVUTIL,BR1DUMP,20,0,1,Y),
                                          1  355.   C                  INCR=(ORVUTIL,BR1INC,20,0,1),
                                          1  356.   C                  VRFY=(ORVUTIL,BR1VRFY,20,0,0),
 000D18 00                                1  357.                      READ=(BR1RDBCK,BR1RDBCK,20,0,2)
-                                   3017  1  359.     *
                                    3018  1  360.     *  RLG BKSRES2 File System Dump Definition
                                    3019  1  361.     *
                                    3020  1  362.   C            DMP   AFF=RLG,ACC='H2.ORV',CLASS=P,TIME=0,BIN=L45,
                                          1  363.   C                  ORVNAME=ORVYLRLG,NAME=BKSRES2,FSN=BR2,TYPE=,
                                          1  364.   C                  DUMP=(ORVUTIL,BR2DUMP,20,0,1,Y),
                                          1  365.   C                  INCR=(ORVUTIL,BR2INC,20,0,1),
                                          1  366.   C                  VRFY=(ORVUTIL,BR2VRFY,20,0,0),
 000D98 00                                1  367.                      READ=(BR2RDBCK,BR2RDBCK,20,0,2)
-                                   3073  1  368.01   *
                                    3074  1  368.02   *  RLG BKSRES3 File System Dump Definition
                                    3075  1  368.03   *
                                    3076  1  368.04 C            DMP   AFF=RLG,ACC='H3.ORV',CLASS=P,TIME=0,BIN=L45,
                                          1  368.05 C                  ORVNAME=ORVYLRLG,NAME=BKSRES3,FSN=BR3,TYPE=,
                                          1  368.06 C                  DUMP=(ORVUTIL,BR3DUMP,20,0,1,Y),
                                          1  368.07 C                  INCR=(ORVUTIL,BR3INC,20,0,1),
                                          1  368.08 C                  VRFY=(ORVUTIL,BR3VRFY,20,0,0),
 000E18 00                                1  368.09                    READ=(BR3RDBCK,BR3RDBCK,20,0,2)
-                                   3129  1  369.     *
                                    3130  1  370.     *  RLG BOOKRES1/BOOKRES2/BOOKRES3/BOOKINDEX Combined File System
                                    3131  1  371.     *  Dump Definition
                                    3132  1  372.     *
1VFD      ORVYL File System Dump Driver                                                                                     Page   14
0Loc    Object Code    Addr1 Addr2  Stmt Lv Lineno    Source Statement           (Hibal 5, Asmedit 3.3)  HLASM R4.0  2004/03/22 09.46
+___    ______ ____    _____ _____  ____ __ ______    ______ _________
0                                   3133  1  373.   C            DMP   AFF=RLG,ACC='BP.ORV',CLASS=P,TIME=0,BIN=L45,
                                          1  374.   C                  ORVNAME=ORVYLRLG,NAME=BOOKS,FSN=BKS,TYPE=,
                                          1  375.   C                  DUMP=(BOOKDUMP,BOOKDUMP,20,0,6,Y,,Y),
                                          1  376.   C                  INCR=(BOOKINC,BOOKINC,20,0,2),
                                          1  377.   C                  VRFY=(BOOKVFRY,BOOKVFRY,20,0,0),
 000E98 00                                1  378.                      READ=(BOOKRDBK,BOOKRDBK,20,0,0)
-                                   3186  1  380.     *
                                    3187  1  381.     *  RLG DEV File System Dump Definition
                                    3188  1  382.     *
                                    3189  1  383.   C            DMP   AFF=RLG,ACC='BP.ORV',CLASS=P,TIME=0,BIN=L45,
                                          1  384.   C                  ORVNAME=ORVYLRLG,NAME=RLIN,FSN=DEV,TYPE=,
                                          1  385.   C                  DUMP=(DEVDUMP,DEVDUMP,20,0,1,Y),
                                          1  386.   C                  INCR=(DEVINC,DEVINC,20,0,1),
                                          1  387.   C                  VRFY=(DEVVRFY,DEVVRFY,20,0,0),
 000F18 00                                1  388.                      READ=(DEVRDBCK,DEVRDBCK,20,0,2)
-                                   3242  1  390.     *
                                    3243  1  391.     *  RLG NONBKS File System Dump Definition
                                    3244  1  392.     *
                                    3245  1  393.   C            DMP   AFF=RLG,ACC='BP.ORV',CLASS=P,TIME=0,BIN=L45,
                                          1  394.   C                  ORVNAME=ORVYLRLG,NAME=NONBKS,FSN=NBK,TYPE=,
                                          1  395.   C                  DUMP=(NBKDUMP,NBKDUMP,20,0,6,Y),
                                          1  396.   C                  INCR=(NBKINC,NBKINC,20,0,1),
                                          1  397.   C                  VRFY=(NBKVRFY,NBKVRFY,20,0,0),
 000F98 00                                1  398.                      READ=(NBKRDBCK,NBKRDBCK,20,0,2)
-                                   3298  1  400.     *
                                    3299  1  401.     *  RLG USERS File System Dump Definition
                                    3300  1  402.     *
                                    3301  1  403.   C            DMP   AFF=RLG,ACC='HB.ORV',CLASS=P,TIME=0,BIN=L45,
                                          1  404.   C                  ORVNAME=ORVYLRLG,NAME=USERS,FSN=USR,TYPE=,
                                          1  405.   C                  DUMP=(USRDUMP,USRDUMP,20,0,1,Y),
                                          1  406.   C                  INCR=(USRINC,USRINC,20,0,1),
                                          1  407.   C                  VRFY=(USRVRFY,USRVRFY,20,0,0),
 001018 00                                1  408.                      READ=(USRRDBCK,USRRDBCK,20,0,2)
-                                   3354  1  408.02   *
                                    3355  1  408.03   *  RLG INDEX File System Dump Definition
                                    3356  1  408.04   *
                                    3357  1  408.05 C            DMP   AFF=RLG,ACC='BP.ORV',CLASS=P,TIME=0,BIN=L45,
                                          1  408.06 C                  ORVNAME=ORVYLRLG,NAME=INDEX,FSN=IDX,TYPE=,
                                          1  408.07 C                  DUMP=(IDXDUMP,IDXDUMP,20,0,1,Y),
                                          1  408.08 C                  INCR=(IDXINC,IDXINC,20,0,1),
                                          1  408.09 C                  VRFY=(IDXVRFY,IDXVRFY,20,0,0),
 001098 00                                1  408.1                     READ=(IDXRDBCK,IDXRDBCK,20,0,2)
-                                   3410  1  408.12   *
                                    3411  1  408.13   *  RLG INDEX File System Dump Definition
                                    3412  1  408.14   *
                                    3413  1  408.15 C            DMP   AFF=RLG,ACC='BP.ORV',CLASS=P,TIME=0,BIN=L45,
1VFD      ORVYL File System Dump Driver                                                                                     Page   15
0Loc    Object Code    Addr1 Addr2  Stmt Lv Lineno    Source Statement           (Hibal 5, Asmedit 3.3)  HLASM R4.0  2004/03/22 09.46
+___    ______ ____    _____ _____  ____ __ ______    ______ _________
0                                         1  408.16 C                  ORVNAME=ORVYLRLG,NAME=CITADEL,FSN=CIT,TYPE=,
                                          1  408.17 C                  DUMP=(CITDUMP,CITDUMP,20,0,1,Y),
                                          1  408.18 C                  INCR=(CITINC,CITINC,20,0,1),
                                          1  408.19 C                  VRFY=(CITVRFY,CITVRFY,20,0,0),
 001118 00                                1  408.2                     READ=(CITRDBCK,CITRDBCK,20,0,2)
1VFD      ORVYL File System Dump Driver                                                                                     Page   16
0Loc    Object Code    Addr1 Addr2  Stmt Lv Lineno    Source Statement           (Hibal 5, Asmedit 3.3)  HLASM R4.0  2004/03/22 09.46
+___    ______ ____    _____ _____  ____ __ ______    ______ _________
0                                   3466  1  410.     *
                                    3467  1  411.     *  GENERATE OPTION RECORD FORMAT
                                    3468  1  412.     *
0                                   3470  1  414.                PRINT GEN
                                    3473  1  416.                DMP   TYPE=GENERATE       GENERATE FUNCTION VECTOR TABLE
 001196 0000                              1          +
 001198                             3474  1 01-02204 +FUNCVECT   DC    0A(0)               FULLWORD ALIGNMENT OF TABLE
 001198 00000818                    3475  1 01-02209 +           DC    A(NSIDATA)
 00119C 00000898                    3476  1 01-02209 +           DC    A(FISDATA)
 0011A0 00000918                    3477  1 01-02209 +           DC    A(FOLDATA)
 0011A4 00000998                    3478  1 01-02209 +           DC    A(RTEDATA)
 0011A8 00000A18                    3479  1 01-02209 +           DC    A(SOCDATA)
 0011AC 00000A98                    3480  1 01-02209 +           DC    A(GENDATA)
 0011B0 00000B18                    3481  1 01-02209 +           DC    A(INTDATA)
 0011B4 00000B98                    3482  1 01-02209 +           DC    A(OODDATA)
 0011B8 00000C18                    3483  1 01-02209 +           DC    A(SDCDATA)
 0011BC 00000C98                    3484  1 01-02209 +           DC    A(BIXDATA)
 0011C0 00000D18                    3485  1 01-02209 +           DC    A(BR1DATA)
 0011C4 00000D98                    3486  1 01-02209 +           DC    A(BR2DATA)
 0011C8 00000E18                    3487  1 01-02209 +           DC    A(BR3DATA)
 0011CC 00000E98                    3488  1 01-02209 +           DC    A(BKSDATA)
 0011D0 00000F18                    3489  1 01-02209 +           DC    A(DEVDATA)
 0011D4 00000F98                    3490  1 01-02209 +           DC    A(NBKDATA)
 0011D8 00001018                    3491  1 01-02209 +           DC    A(USRDATA)
 0011DC 00001098                    3492  1 01-02209 +           DC    A(IDXDATA)
 0011E0 80001118                    3493  1 01-02209 +           DC    A(CITDATA+X'80000000')
1VFD      ORVYL File System Dump Driver                                                                                     Page   17
0Loc    Object Code    Addr1 Addr2  Stmt Lv Lineno    Source Statement           (Hibal 5, Asmedit 3.3)  HLASM R4.0  2004/03/22 09.46
+___    ______ ____    _____ _____  ____ __ ______    ______ _________
0                                   3496  1  419.     ********************************************************************
                                    3497  1  420.     *                                                                  *
                                    3498  1  421.     *  DEFINE KEYWORD ROUTING TABLE                                    *
                                    3499  1  422.     *                                                                  *
                                    3500  1  423.     ********************************************************************
-0011E4                             3502  1  425.     PARMKWRT   LABEL ,
 0011E4                             3504  1  427.                SCKW  NSI,NSISET              SYSA NSI (OLD ADISIS)
 0011E4 020003F0D5E2C9              3505  1          +
 0011EB                             3506  1  428.                SCKW  SDCACCT,SDCSET,A        SYSA SDCACCT File System
 0011EB 0E000436E2C4C3C1            3507  1          +
 0011F6                             3508  1  429.                SCKW  OOD,OODSET,A            SYSA OOD File System
 0011F6 0A00042CD6D6C4              3509  1          +
 0011FD                             3510  1  430.                SCKW  FIS,FISSET,A            SYSA FIS File System
 0011FD 0A0003FAC6C9E2              3511  1          +
 001204                             3512  1  431.                SCKW  FOLIO,FOLSET,A          SYSA FOLIO File System
 001204 0C000404C6D6D3C9            3513  1          +
 00120D                             3514  1  432.                SCKW  SOCRATES,FOLSET,A       SYSA SOCRATES (AKA FOLIO)
 00120D 0F000404E2D6C3D9            3515  1          +
 001219                             3516  1  432.1               SCKW  ROUTE66,RTESET,A        SYSA ROUTE66 Routing file
 001219 0E00040ED9D6E4E3            3517  1          +
 001224                             3518  1  433.                SCKW  GENERAL,GENSET,A        SYSA GENERAL File System
 001224 0E000418C7C5D5C5            3519  1          +
 00122F                             3520  1  434.                SCKW  INTERNAL,INTSET,A       SYSA ITS (AKA INTERNAL)
 00122F 0F000422C9D5E3C5            3521  1          +
000123B                             3523  1  439.                SCKW  BOOKS,BKSSET,A          RLG BR1,BR2 & BIX
 00123B 0C000440C2D6D6D2            3524  1          +
 001244                             3525  1  440.                SCKW  BKS,BKSSET,A
 001244 0A000440C2D2E2              3526  1          +
000124B                             3528  1  442.                SCKW  BKSINDEX,BIXSET,A       RLG BKSINDEX File System
 00124B 0F00044AC2D2E2C9            3529  1          +
 001257                             3530  1  443.                SCKW  BIX,BIXSET,A
 001257 0A00044AC2C9E7              3531  1          +
000125E                             3533  1  445.                SCKW  BKSRES1,BR1SET,A        RLG BKSRES1 File System
 00125E 0E000454C2D2E2D9            3534  1          +
 001269                             3535  1  446.                SCKW  BR1,BR1SET,A
 001269 0A000454C2D9F1              3536  1          +
0001270                             3538  1  448.                SCKW  BKSRES2,BR2SET,A        RLG BKSRES2 File System
 001270 0E00045EC2D2E2D9            3539  1          +
 00127B                             3540  1  449.                SCKW  BR2,BR2SET,A
 00127B 0A00045EC2D9F2              3541  1          +
0001282                             3543  1  450.1               SCKW  BKSRES3,BR3SET,A        RLG BKSRES3 File System
 001282 0E000468C2D2E2D9            3544  1          +
 00128D                             3545  1  450.2               SCKW  BR3,BR3SET,A
 00128D 0A000468C2D9F3              3546  1          +
0001294                             3548  1  451.                SCKW  DEV,DEVSET              RLG DEVELOPMENT File System
 001294 02000472C4C5E5              3549  1          +
000129B                             3551  1  453.                SCKW  NONBKS,NBKSET,A         RLG NON-BOOKS File System
1VFD      ORVYL File System Dump Driver                                                                                     Page   18
0Loc    Object Code    Addr1 Addr2  Stmt Lv Lineno    Source Statement           (Hibal 5, Asmedit 3.3)  HLASM R4.0  2004/03/22 09.46
+___    ______ ____    _____ _____  ____ __ ______    ______ _________
000129B 0D00047CD5D6D5C2            3552  1          +
 0012A5                             3553  1  454.                SCKW  NBOOKS,NBKSET,A
 0012A5 0D00047CD5C2D6D6            3554  1          +
 0012AF                             3555  1  455.                SCKW  NBKS,NBKSET,A
 0012AF 0B00047CD5C2D2E2            3556  1          +
00012B7                             3558  1  457.                SCKW  USERS,USRSET,A          RLG USERS File System
 0012B7 0C000486E4E2C5D9            3559  1          +
 0012C0                             3560  1  457.1               SCKW  INDEX,IDXSET,A
 0012C0 0C000490C9D5C4C5            3561  1          +
 0012C9                             3562  1  457.2               SCKW  IDX,IDXSET,A
 0012C9 0A000490C9C4E7              3563  1          +
 0012D0                             3564  1  457.3               SCKW  CITADEL,CITSET,A
 0012D0 0E00049AC3C9E3C1            3565  1          +
1VFD      ORVYL File System Dump Driver                                                                                     Page   19
0Loc    Object Code    Addr1 Addr2  Stmt Lv Lineno    Source Statement           (Hibal 5, Asmedit 3.3)  HLASM R4.0  2004/03/22 09.46
+___    ______ ____    _____ _____  ____ __ ______    ______ _________
0                                   3567  1  459.     ********************************************************************
                                    3568  1  460.     *                                                                  *
                                    3569  1  461.     *  DEFINE FUNCTION KEYWORD PARAMETERS                              *
                                    3570  1  462.     *                                                                  *
                                    3571  1  463.     ********************************************************************
-0012DB                             3573  1  465.                SCKW  CLASS,SETCLS,(A,P)
 0012DB 8C0004EAC3D3C1E2            3574  1          +
 0012E4                             3575  1  466.                SCKW  DUMP,SETDMP,A
 0012E4 0B0004AEC4E4D4D7            3576  1          +
 0012EC                             3577  1  467.                SCKW  INC,SETINC,A
 0012EC 0A0004DAC9D5C3              3578  1          +
 0012F3                             3579  1  468.                SCKW  NONE,SETNONE,A
 0012F3 0B000538D5D6D5C5            3580  1          +
 0012FB                             3581  1  469.                SCKW  ORVYL,SETORV,(A,P)
 0012FB 8C000504D6D9E5E8            3582  1          +
 001304                             3583  1  470.                SCKW  RDBACK,SETRDBCK,A
 001304 0D000544D9C4C2C1            3584  1          +
 00130E                             3585  1  471.                SCKW  RDBCK,SETRDBCK,A
 00130E 0C000544D9C4C2C3            3586  1          +
 001317                             3587  1  472.                SCKW  NORDBACK,SETNRD,A
 001317 0F000550D5D6D9C4            3588  1          +
 001323                             3589  1  473.                SCKW  NORDBCK,SETNRD,A
 001323 0E000550D5D6D9C4            3590  1          +
 00132E                             3591  1  474.                SCKW  SYSAFF,SETAFF,(A,P)
 00132E 8D00051EE2E8E2C1            3592  1          +
 001338                             3593  1  475.                SCKW  TAPES,0,(A,P,PI),255
 001338 BC000000E3C1D7C5            3594  1          +
 001341 000000FF                    3595  1          +
 001345                             3596  1  476.                SCKW  TIME,SETTIME,(A,P)
 001345 8B00055CE3C9D4C5            3597  1          +
 00134D                             3598  1  477.                SCKW  VERIFY,SETVRFY,A
 00134D 0D0004BEE5C5D9C9            3599  1          +
 001357                             3600  1  478.                SCKW  VRFY,SETVRFY,A
 001357 0B0004BEE5D9C6E8            3601  1          +
 00135F                             3602  1  478.1               SCKW  T90,SETT90,A
 00135F 0A0004CEE3F9F0              3603  1          +
 001366 000004A460                  3604  1  479.                SCKW  -,SETCONT
 00136B FF0005EC                    3606  1  480.                SCKW  ,SETINVP
1VFD      ORVYL File System Dump Driver                                                                                     Page   20
0Loc    Object Code    Addr1 Addr2  Stmt Lv Lineno    Source Statement           (Hibal 5, Asmedit 3.3)  HLASM R4.0  2004/03/22 09.46
+___    ______ ____    _____ _____  ____ __ ______    ______ _________
0                                   3610  1  483.   C INTRDR     DCB   DDNAME=INTRDR,MACRF=PM,RECFM=F,
                                          1  484.                      BLKSIZE=80,LRECL=80,DSORG=PS,BUFNO=1
0                                   3613  1          +*                       DATA CONTROL BLOCK
                                    3614  1          +*
 00136F 00                                1          +
 001370                             3615  1 01-DCB   +INTRDR     DC    0F'0'          ORIGIN ON WORD BOUNDARY
                                    3616  1          +*                       DIRECT ACCESS DEVICE INTERFACE
 001370 0000000000000000            3617  1 01-DCB   +           DC    BL16'0'        FDAD, DVTBL
 001380 00000000                    3618  1 01-DCB   +           DC    A(0)           KEYLEN, DEVT, TRBAL
                                    3619  1          +*                       COMMON ACCESS METHOD INTERFACE
 001384 01                          3620  1 01-DCB   +           DC    AL1(1)         BUFNO, NUMBER OF BUFFERS
 001385 000001                      3621  1 01-DCB   +           DC    AL3(1)         BUFCB, BUFFER POOL CONTROL BLOCK
 001388 0000                        3622  1 01-DCB   +           DC    AL2(0)         BUFL, BUFFER LENGTH
 00138A 4000                        3623  1 01-DCB   +           DC    BL2'0100000000000000' DSORG, DATA SET ORGANIZATION
 00138C 00000001                    3624  1 01-DCB   +           DC    A(1)           IOBAD FOR EXCP OR RESERVED
                                    3625  1          +*                       FOUNDATION EXTENSION
 001390 00                          3626  1 01-DCB   +           DC    BL1'00000000'  BFTEK, BFALN, DCBE INDICATORS
 001391 000001                      3627  1 01-DCB   +           DC    AL3(1)         EODAD (END OF DATA ROUTINE ADDRESS)
 001394 80                          3628  1 01-DCB   +           DC    BL1'10000000'  RECFM (RECORD FORMAT)
 001395 000000                      3629  1 01-DCB   +           DC    AL3(0)         EXLST (EXIT LIST ADDRESS)
                                    3630  1          +*                       FOUNDATION BLOCK
 001398 C9D5E3D9C4D94040            3631  1 01-DCB   +           DC    CL8'INTRDR'    DDNAME
 0013A0 02                          3632  1 01-DCB   +           DC    BL1'00000010'  OFLGS (OPEN FLAGS)
 0013A1 00                          3633  1 01-DCB   +           DC    BL1'00000000'  IFLGS (IOS FLAGS)
 0013A2 0050                        3634  1 01-DCB   +           DC    BL2'0000000001010000' MACR (MACRO FORMAT)
                                    3635  1          +*                       BSAM-BPAM-QSAM INTERFACE
 0013A4 00                          3636  1 01-DCB   +           DC    BL1'00000000'  OPTCD, OPTION CODES
 0013A5 000001                      3637  1 01-DCB   +           DC    AL3(1)         CHECK OR INTERNAL QSAM SYNCHRONIZING RTN.
 0013A8 00000001                    3638  1 01-DCB   +           DC    A(1)           SYNAD, SYNCHRONOUS ERROR RTN. (3 BYTES)
 0013AC 0000                        3639  1 01-DCB   +           DC    H'0'           INTERNAL ACCESS METHOD FLAGS
 0013AE 0050                        3640  1 01-DCB   +           DC    AL2(80)        BLKSIZE, BLOCK SIZE
 0013B0 00000000                    3641  1 01-DCB   +           DC    F'0'           INTERNAL ACCESS METHOD FLAGS
 0013B4 00000001                    3642  1 01-DCB   +           DC    A(1)           INTERNAL ACCESS METHOD USE
                                    3643  1          +*                            QSAM INTERFACE
 0013B8 00000001                    3644  1 01-DCB   +           DC    A(1)           EOBAD
 0013BC 00000001                    3645  1 01-DCB   +           DC    A(1)           RECAD
 0013C0 0000                        3646  1 01-DCB   +           DC    H'0'           QSWS (FLAGS) AND EITHER DIRCT OR BUFOFF
 0013C2 0050                        3647  1 01-DCB   +           DC    AL2(80)        LRECL
 0013C4 00                          3648  1 01-DCB   +           DC    BL1'00000000'  EROPT, ERROR OPTION
 0013C5 000001                      3649  1 01-DCB   +           DC    AL3(1)         CNTRL
 0013C8 00000000                    3650  1 01-DCB   +           DC    H'0,0'         RESERVED AND PRECL
 0013CC 00000001                    3651  1 01-DCB   +           DC    A(1)           EOB, INTERNAL ACCESS METHOD FIELD
1VFD      ORVYL File System Dump Driver                                                                                     Page   21
0Loc    Object Code    Addr1 Addr2  Stmt Lv Lineno    Source Statement           (Hibal 5, Asmedit 3.3)  HLASM R4.0  2004/03/22 09.46
+___    ______ ____    _____ _____  ____ __ ______    ______ _________
0                                   3653  1  486.   C CMDFILE    DCB   DDNAME=CMDFILE,DSORG=PS,MACRF=GM,
                                          1  487.                      RECFM=FB,LRECL=80,EODAD=CMDEOF,BUFNO=1
0                                   3656  1          +*                       DATA CONTROL BLOCK
                                    3657  1          +*
 0013D0                             3658  1 01-DCB   +CMDFILE    DC    0F'0'          ORIGIN ON WORD BOUNDARY
                                    3659  1          +*                       DIRECT ACCESS DEVICE INTERFACE
 0013D0 0000000000000000            3660  1 01-DCB   +           DC    BL16'0'        FDAD, DVTBL
 0013E0 00000000                    3661  1 01-DCB   +           DC    A(0)           KEYLEN, DEVT, TRBAL
                                    3662  1          +*                       COMMON ACCESS METHOD INTERFACE
 0013E4 01                          3663  1 01-DCB   +           DC    AL1(1)         BUFNO, NUMBER OF BUFFERS
 0013E5 000001                      3664  1 01-DCB   +           DC    AL3(1)         BUFCB, BUFFER POOL CONTROL BLOCK
 0013E8 0000                        3665  1 01-DCB   +           DC    AL2(0)         BUFL, BUFFER LENGTH
 0013EA 4000                        3666  1 01-DCB   +           DC    BL2'0100000000000000' DSORG, DATA SET ORGANIZATION
 0013EC 00000001                    3667  1 01-DCB   +           DC    A(1)           IOBAD FOR EXCP OR RESERVED
                                    3668  1          +*                       FOUNDATION EXTENSION
 0013F0 00                          3669  1 01-DCB   +           DC    BL1'00000000'  BFTEK, BFALN, DCBE INDICATORS
 0013F1 000338                      3670  1 01-DCB   +           DC    AL3(CMDEOF)    EODAD (END OF DATA ROUTINE ADDRESS)
 0013F4 90                          3671  1 01-DCB   +           DC    BL1'10010000'  RECFM (RECORD FORMAT)
 0013F5 000000                      3672  1 01-DCB   +           DC    AL3(0)         EXLST (EXIT LIST ADDRESS)
                                    3673  1          +*                       FOUNDATION BLOCK
 0013F8 C3D4C4C6C9D3C540            3674  1 01-DCB   +           DC    CL8'CMDFILE'   DDNAME
 001400 02                          3675  1 01-DCB   +           DC    BL1'00000010'  OFLGS (OPEN FLAGS)
 001401 00                          3676  1 01-DCB   +           DC    BL1'00000000'  IFLGS (IOS FLAGS)
 001402 5000                        3677  1 01-DCB   +           DC    BL2'0101000000000000' MACR (MACRO FORMAT)
                                    3678  1          +*                       BSAM-BPAM-QSAM INTERFACE
 001404 00                          3679  1 01-DCB   +           DC    BL1'00000000'  OPTCD, OPTION CODES
 001405 000001                      3680  1 01-DCB   +           DC    AL3(1)         CHECK OR INTERNAL QSAM SYNCHRONIZING RTN.
 001408 00000001                    3681  1 01-DCB   +           DC    A(1)           SYNAD, SYNCHRONOUS ERROR RTN. (3 BYTES)
 00140C 0000                        3682  1 01-DCB   +           DC    H'0'           INTERNAL ACCESS METHOD FLAGS
 00140E 0000                        3683  1 01-DCB   +           DC    AL2(0)         BLKSIZE, BLOCK SIZE
 001410 00000000                    3684  1 01-DCB   +           DC    F'0'           INTERNAL ACCESS METHOD FLAGS
 001414 00000001                    3685  1 01-DCB   +           DC    A(1)           INTERNAL ACCESS METHOD USE
                                    3686  1          +*                            QSAM INTERFACE
 001418 00000001                    3687  1 01-DCB   +           DC    A(1)           EOBAD
 00141C 00000001                    3688  1 01-DCB   +           DC    A(1)           RECAD
 001420 0000                        3689  1 01-DCB   +           DC    H'0'           QSWS (FLAGS) AND EITHER DIRCT OR BUFOFF
 001422 0050                        3690  1 01-DCB   +           DC    AL2(80)        LRECL
 001424 00                          3691  1 01-DCB   +           DC    BL1'00000000'  EROPT, ERROR OPTION
 001425 000001                      3692  1 01-DCB   +           DC    AL3(1)         CNTRL
 001428 00000000                    3693  1 01-DCB   +           DC    H'0,0'         RESERVED AND PRECL
 00142C 00000001                    3694  1 01-DCB   +           DC    A(1)           EOB, INTERNAL ACCESS METHOD FIELD
 000000                00000 01B00  3696     489.              END   ,
1VFD      ORVYL File System Dump Driver                                                                                     Page   22
0Loc    Object Code    Addr1 Addr2  Stmt Lv Lineno    Source Statement           (Hibal 5, Asmedit 3.3)  HLASM R4.0  2004/03/22 09.46
+___    ______ ____    _____ _____  ____ __ ______    ______ _________
0000000                00000 01B00  3703     491.     VFD      CSECT ,
0                                   3706     493.              IDENT 03                  SET MODULE IDENTIFIER
                                    3709             +
                                    3710    01-IDENT +         ENTRY VFD03
                                    3711             +
 000000 13E5C6C4F0F36BF2            3712    01-IDENT +VFD03    DC    AL1(19),C'VFD03,22MAR04,09:46'
                                    3713             +*
0                                   3716     495.              ENTRY START               DECLARE ENTRY POINT
 000014 90EC D00C            0000C  3717     496.     START    STM   R14,R12,@R13+12     SAVE CALLING REGISTERS
 000018 186F                        3718     497.              LR    BRR,R15             SET BASE ADDRESS
 USING  START,R6                    3719     498.              USING START,BRR,R11       SET PROGRAM ADDRESSABILITY
 USING  START+4096,R11
 00001A 41B0 6800            00800  3736     499.              LA    R11,2048(,BRR)
 00001E 41B0 B800            00800  3737     500.              LA    R11,2048(,R11)
 000022 5010 66F4            00708  3738     501.              ST    R1,PARMPNTR         SAVE EXEC PARAMETER POINTER
 000026 50D0 66F0            00704  3739     502.              ST    R13,VSAREA          SAVE VS SAVE AREA ADDRESS
 00002A 0700/4510 6020       00034  3740     503.              GETMAIN R,LV=512*4        GET SAVE STACK AREA
 000030 00000800                    3744             +
 000034 5800 1000/0A0A       00000  3745             +
 00003A 18D1                        3747     504.              LR    R13,R1              SET SAVE STACK POINTER
-
                                    3749     506.     *
                                    3750     507.     *  FIND CONSOLE WHICH STARTED TASK
                                    3751     508.     *
000003C 4510 6038            0004C  3753     510.              EXTRACT COMMADDR,'S',FIELDS=COMM
 000040 0000070C                    3756             +
 000044 00000000/01/00              3757             +
 00004A 0000/0A28                   3760             +
 00004E 5820 66F8            0070C  3762     511.              L     SR,COMMADDR             COMMUNICATIONS AREA
 USING  COM,R2                      3763     512.              USING COM,SR                  ##
 000052 5830 2004            00004  3772     513.              L     TR,COMCIBPT             ADDRESS OF CIB CHAIN
 000056 4130 3000            00000  3773     514.              LA    TR,@TR                  CLEAR HIGH BYTE
 USING  CIB,R3                      3774     515.              USING CIB,TR                  ## CIB ADDR
 00005A 1233/4780 605A       0006E  3783     516.              IF    (TR,NZ),BEGIN
 000060 9504 3004      00004        3797  1  517.                IF    (CIBVERB,NE,CIBSTART),EXIT
 000064 4770 605A            0006E  3812  1          +
 000068 D200 67DC 300C 007F0 0000C  3818  1  518.                MVC   MCSID,CIBCONID          SAVE MCS-ID FROM CONSOLE
 00006E                             3819     519.              END   ,
 DROP   COM,R2                      3823     520.              DROP  SR                  RELEASE COMMUNICATION BLOCK
 DROP   CIB,R3                      3830     521.              DROP  TR                  RELEASE COMMAND INPUT BUFFER
1VFD      (VFD03) (09:46) (22MAR04) ORVYL File System Dump Driver                                                           Page   23
0Current Usings:  (START,R6) (START+4096,R11)
0Loc    Object Code    Addr1 Addr2  Stmt Lv Lineno    Source Statement           (Hibal 5, Asmedit 3.3)  HLASM R4.0  2004/03/22 09.46
+___    ______ ____    _____ _____  ____ __ ______    ______ _________
0                                   3838     523.     ********************************************************************
                                    3839     524.     *                                                                  *
                                    3840     525.     *  OPEN COMMAND FILE                                               *
                                    3841     526.     *                                                                  *
                                    3842     527.     ********************************************************************
000006E 0700/4510 6064       00078  3844     529.              OPEN  (CMDFILE,(INPUT))
 000074 80/0013D0/0A13              3847             +
 00007A 4120 B3BC            013D0  3850     530.              LA    SR,CMDFILE              ADDRESS OF COMMAND FILE
 USING  IHADCB,R2                   3851     531.              WITH  (IHADCB,SR),BEGIN   ADDRESSABILITY TO DCB
 00007E 9110 2030      00030        3865  1  532.                IF    ~DCBOFLGS.DCBOFOPN,BEGIN
 000082 4710 60B4            000C8  3876  1          +
 000086 1F00/4300 67DC       007F0  3881  2  533.                  LC    R0,MCSID                GET CONSOLE ID
                                    3886  2  534.   C              WTO   '**ORVDUMP** OPEN failed for command file.',
 00008C 4510 60AA/002D       000BE        2  535.                        MCSFLAG=REG0
 000092 4000                        3890  2          +
 000094 5C5CD6D9E5C4E4D4            3891  2          +
 00009C D75C5C40D6D7C5D5                  2          +
 0000BE 0A23                        3893  2          +
 0000C0 41F0 000C            0000C  3894  2  536.                  LA    R15,12                  SET COMMAND FILE ERROR
 0000C4 47F0 62BC            002D0  3895  2  537.                  B     SYSRET                  AND RETURN
 0000C8                             3896  1  538.                END   ,
 DROP   IHADCB,R2                   3900     539.              END   ,
1VFD      (VFD03) (09:46) (22MAR04) ORVYL File System Dump Driver                                                           Page   24
0Current Usings:  (START,R6) (START+4096,R11)
0Loc    Object Code    Addr1 Addr2  Stmt Lv Lineno    Source Statement           (Hibal 5, Asmedit 3.3)  HLASM R4.0  2004/03/22 09.46
+___    ______ ____    _____ _____  ____ __ ______    ______ _________
0                                   3909     541.     ********************************************************************
                                    3910     542.     *                                                                  *
                                    3911     543.     *  FIND DAY                                                        *
                                    3912     544.     *                                                                  *
                                    3913     545.     ********************************************************************
00000C8 4110 0001/0A0B       00001  3915     547.              TIME  BIN                     REQUEST DATE FROM VS
 0000CE 1801                        3919     548.              LR    R0,R1                   MOVE DATE
 0000D0 4110 66C4            006D8  3920     549.              LA    R1,CLWTEMP              ADDRESS TO STORE DATE
 0000D4 58E0 6694/0DEE       006A8  3921     550.              XCALL DAY                     FORMAT DAY
 0000DA                             3925     551.              LOOP  BEGIN
 0000DA 4110 B3BC            013D0  3931  1  552.                GET   CMDFILE,BUFFER          READ RECORD
 0000DE 4100 6787/1FFF       0079B  3934  1          +
 0000E4 BFF7 1031/05EF       00031  3936  1          +
 0000EA 4110 6787            0079B  3938  1  553.                SCINIT BUFFER,L'BUFFER,VFDCB  INITIALIZE SCANNER
 0000EE 4100 0050            00050  3952  1          +
 0000F2 41F0 67E0            007F4  3959  1          +
 0000F6 58E0 6698/0DEE       006AC  3962  1          +
 0000FC 1B11/58E0 669C       006B0  3964  1  554.                SCAN  ,(15)                   GET FIRST TOKEN
 000102 0DEE                        3977  1          +
 000104 4740 62E4            002F8  3978  1  555.                IF    M,CMDFERR           BR ON BAD SCAN
 000108 47D0 6104            00118  3992  1  556.                IF    P,BEGIN
 00010C 1820                        4003  2  557.                  LR    SR,R0                   MOVE TOKEN LENGTH
 00010E 0620/4420 B41C       01430  4004  2  558.                  DEX   SR,'CLC @R1(0),CLWTEMP' COMPARE FOR GOOD DAY
 001430 D500 1000 66C4 00000 006D8  4015  2          +
 000114 4780 6108            0011C  4023  2  559.                  IF    EQ,CONTSCN              EXIT LOOP IF DAY FOUND
 000118                             4037  1  560.                END   ,
 000118 47F0 60C6            000DA  4041     561.              END   ,
1VFD      (VFD03) (09:46) (22MAR04) ORVYL File System Dump Driver                                                           Page   25
0Current Usings:  (START,R6) (START+4096,R11)
0Loc    Object Code    Addr1 Addr2  Stmt Lv Lineno    Source Statement           (Hibal 5, Asmedit 3.3)  HLASM R4.0  2004/03/22 09.46
+___    ______ ____    _____ _____  ____ __ ______    ______ _________
000011C                             4047     563.     CONTSCN  LABEL ,
 00011C 1B55                        4049     564.              CLEAR RR                  INDICATE FILE SYSTEM NOT SET
 00011E 947F 6800      00814        4053     565.              CLEAR CONT                CLEAR CONTINUATION FLAG
 000122                             4060     566.              LOOP  BEGIN               COMPLETE SCAN FOR CURRENT DAY
 000122 9640 6800      00814        4066  1  567.                SET   EOREC               ASSUME END OF RECORD
 000126 4110 B1D0            011E4  4072  1  568.                SCAN  PARMKWRT,VFDCB      FINISH SCAN TO SET OPTS
 00012A 41F0 67E0            007F4  4086  1          +
 00012E 58E0 669C/0DEE       006B0  4089  1          +
 000134 4770 62E4            002F8  4091  1  569.                IF    NZ,CMDFERR          ERROR IN SCAN, ABANDON SHIP
 000138 9180 6800      00814        4105  1  570.                IF    CONT,BEGIN          CONTINUATION CARD REQUIRED
 00013C 47E0 6152            00166  4115  1          +
 000140 4110 B3BC            013D0  4120  2  571.                  GET   CMDFILE,BUFFER      READ CONTINUATION RECORD
 000144 4100 6787/1FFF       0079B  4123  2          +
 00014A BFF7 1031/05EF       00031  4125  2          +
 000150 4110 6787            0079B  4127  2  572.                  SCINIT BUFFER,L'BUFFER,VFDCB  REINIT SCANNER CONTROL BLOCK
 000154 4100 0050            00050  4141  2          +
 000158 41F0 67E0            007F4  4148  2          +
 00015C 58E0 6698/0DEE       006AC  4151  2          +
 000162 947F 6800      00814        4153  2  573.                  CLEAR CONT                CLEAR CONTINUATION FLAG
 000166                             4160  1  574.                END   ,
 000166 9140 6800      00814        4164     575.              UNTIL EOREC,END           READ UNTIL NO CONTINUATION
 00016A 47E0 610E            00122  4181             +
000016E 0700/4510 6164       00178  4188     577.              CLOSE CMDFILE             CLOSE COMMAND FILE
 000174 80/0013D0/0A14              4191             +
 00017A 4110 B3BC            013D0  4194     578.              FREEPOOL CMDFILE          RELEASE BUFFER POOL FOR CMDFILE
 00017E 9101 1017      00017        4197             +
 000182 4710 61B4/1FFF       001C8  4198             +
 000188 BFF7 1015            00015  4200             +
 00018C 58E0 F000/12EE       00000  4201             +
 000192 4770 618A            0019E  4203             +
 000196 9130 F004      00004        4204             +
 00019A 4770 61B4            001C8  4205             +
 00019E 9601 1017/1BEE 00017        4206             +
 0001A4 1B11/BF13 F006       00006  4208             +
 0001AA 43E0 F005/1C0E       00005  4210             +
 0001B0 4110 1008            00008  4212             +
 0001B4 9140 F004      00004        4213             +
 0001B8 47E0 61AC            001C0  4214             +
 0001BC 4110 1008/1801       00008  4215             +
 0001C2 4110 F000/0A0A       00000  4217             +
 0001C8 5820 66F4            00708  4220     579.              L     SR,PARMPNTR         GET PARM PNTR
 0001CC 5820 2000            00000  4221     580.              L     SR,@SR              GET PARM LIST ADDRESS
 0001D0 4800 2000            00000  4222     581.              LH    R0,@SR              GET PARM STR LENGTH
 0001D4 4110 2002            00002  4223     582.              LA    R1,@SR+2            BUMP ADDRESS TO START OF STR
 0001D8 1200/4780 61E4       001F8  4224     583.              IF    (R0,NZ),BEGIN
 0001DE 1B55                        4238  1  584.                CLEAR RR
 0001E0 41F0 67E0            007F4  4242  1  585.                SCINIT (1),(0),VFDCB      INITIALIZE SCANNER
 0001E4 58E0 6698/0DEE       006AC  4262  1          +
 0001EA 4110 B1D0            011E4  4264  1  586.                SCAN  PARMKWRT,(15)       SCAN OPTIONS
 0001EE 58E0 669C/0DEE       006B0  4279  1          +
 0001F4 4770 62DC            002F0  4281  1  587.                IF    NZ,SYSRET4          EXIT ON BAD PARAMETERS
 0001F8                             4295     588.              END   ,
1VFD      (VFD03) (09:46) (22MAR04) ORVYL File System Dump Driver                                                           Page   26
0Current Usings:  (START,R6) (START+4096,R11)
0Loc    Object Code    Addr1 Addr2  Stmt Lv Lineno    Source Statement           (Hibal 5, Asmedit 3.3)  HLASM R4.0  2004/03/22 09.46
+___    ______ ____    _____ _____  ____ __ ______    ______ _________
0                                   4300     590.     *
                                    4301     591.     *  SUBMIT SELECTED JOBS
                                    4302     592.     *
00001F8 4510 61EC/8F         00200  4304     594.              OPEN  (INTRDR,(OUTPUT))
 0001FD 001370/0A13                 4308             +
 000202 4120 B35C            01370  4310     595.              LA    SR,INTRDR               ADDRESS OF DCB
 USING  IHADCB,R2                   4311     596.              USING IHADCB,SR               ## ADDR FOR DCB
 000206 9110 2030      00030        4320     597.              IF    ~DCBOFLGS.DCBOFOPN,BEGIN
 00020A 4710 623A            0024E  4331             +
 00020E 1F00/4300 67DC       007F0  4336  1  598.                LC    R0,MCSID                CONSOLE MCS ID
                                    4341  1  599.   C            WTO   '**ORVDUMP** OPEN failed for JES INTRDR.',
 000214 4510 6230/002B       00244        1  600.                      MCSFLAG=REG0
 00021A 4000                        4345  1          +
 00021C 5C5CD6D9E5C4E4D4            4346  1          +
 000224 D75C5C40D6D7C5D5                  1          +
 000244 0A23                        4348  1          +
 000246 41F0 0008            00008  4349  1  601.                LA    R15,8                   LOAD RETURN CODE 8
 00024A 47F0 62BC            002D0  4350  1  602.                B     SYSRET                  AND RETURN
 DROP   IHADCB,R2                   4351  1  603.                DROP  SR
 00024E                             4358     604.              END   ,
1VFD      (VFD03) (09:46) (22MAR04) ORVYL File System Dump Driver                                                           Page   27
0Current Usings:  (START,R6) (START+4096,R11)
0Loc    Object Code    Addr1 Addr2  Stmt Lv Lineno    Source Statement           (Hibal 5, Asmedit 3.3)  HLASM R4.0  2004/03/22 09.46
+___    ______ ____    _____ _____  ____ __ ______    ______ _________
0                                   4363     606.     *
                                    4364     607.     *  PROCESS ALL FILE SYSTEM REQUESTS
                                    4365     608.     *
0USING  OPTS,R5                     4367     610.              USING OPTS,RR             Addressability to option record
 00024E 4120 B184            01198  4376     611.              LA    SR,FUNCVECT         Address of first dump record
 000252                             4377     612.              LOOP  BEGIN               Process all records in list
 000252 5850 2000            00000  4383  1  613.                L     RR,@SR              Set address of dump record
 000256 9110 5000      00000        4384  1  614.                IF    DOIT,BEGIN
 00025A 47E0 6250            00264  4394  1          +
 00025E 5890 66A0/0D99       006B4  4399  2  615.                  ACALL SUBMIT              Submit dump job
 000264                             4403  1  616.                END   ,
 000264 9180 2000      00000        4407  1  617.                TM    @SR,X'80'           End of list test
 000268 4120 2004            00004  4408  1  618.                LA    SR,@SR+4            Index to next entry
 00026C 47E0 623E            00252  4409     619.              UNTIL O,END               Continue to the end of the list
0000270 4510 6264/80         00278  4429     621.              CLOSE INTRDR              Close JES internal reader file
 000275 001370/0A14                 4433             +
 00027A 4110 B35C            01370  4435     622.              FREEPOOL INTRDR           Release buffer pool
 00027E 9101 1017      00017        4438             +
 000282 4710 62B4/1FFF       002C8  4439             +
 000288 BFF7 1015            00015  4441             +
 00028C 58E0 F000/12EE       00000  4442             +
 000292 4770 628A            0029E  4444             +
 000296 9130 F004      00004        4445             +
 00029A 4770 62B4            002C8  4446             +
 00029E 9601 1017/1BEE 00017        4447             +
 0002A4 1B11/BF13 F006       00006  4449             +
 0002AA 43E0 F005/1C0E       00005  4451             +
 0002B0 4110 1008            00008  4453             +
 0002B4 9140 F004      00004        4454             +
 0002B8 47E0 62AC            002C0  4455             +
 0002BC 4110 1008/1801       00008  4456             +
 0002C2 4110 F000/0A0A       00000  4458             +
 0002C8 1BFF                        4461     623.              CLEAR R15                 Zero return code from vfd
 0002CA 47F0 62BC            002D0  4465     624.              B     SYSRET              Return to system
1VFD      (VFD03) (09:46) (22MAR04) ORVYL File System Dump Driver                                                           Page   28
0Current Usings:  (OPTS,R5) (START,R6) (START+4096,R11)
0Loc    Object Code    Addr1 Addr2  Stmt Lv Lineno    Source Statement           (Hibal 5, Asmedit 3.3)  HLASM R4.0  2004/03/22 09.46
+___    ______ ____    _____ _____  ____ __ ______    ______ _________
0                                   4467     626.     *
                                    4468     627.     *  NORMAL SYSTEM RETURN AND ERROR EXITS
                                    4469     628.     *
00002CE 0700/47F0 62C4       002D8  4471     630.     SYSRET   FREEMAIN R,LV=4*512,A=(13)    RELEASE SAVE STACK
 0002D4 00000800                    4475             +
 0002D8 5800 62C0            002D4  4476             +
 0002DC 4110 D000/0A0A       00000  4477             +
 0002E2 58D0 66F0            00704  4479     631.              L     R13,VSAREA          RESET VS SAVE AREA ADDRESS
 0002E6 58E0 D00C            0000C  4480     632.              RETURN (14,12),RC=(15)    RETURN TO VS VIA RETURN MACRO
 0002EA 980C D014/07FE       00014  4482             +
00002F0                             4485     634.     SYSRET4  LABEL ,                   RETURN WITH CODE 4
 0002F0 41F0 0004            00004  4487     635.              LA    R15,4               SET RETURN CODE 4
 0002F4 47F0 62BC            002D0  4488     636.              B     SYSRET              AND RETURN TO SYSTEM
00002F8                             4490     638.     CMDFERR  LABEL ,
 0002F8 1F00/4300 67DC       007F0  4492     639.              LC    R0,MCSID                GET CONSOLE IDENTIFIER
                                    4497     640.   C          WTO   '**ORVDUMP** Command file syntax error.',
 0002FE 0700/4510 631A       0032E           641.                    MCSFLAG=REG0
 000304 002A/4000                   4500             +
 000308 5C5CD6D9E5C4E4D4            4502             +
 000310 D75C5C40C3969494                             +
 00032E 0A23                        4504             +
 000330 41F0 000C            0000C  4505     642.              LA    R15,12                  SET COMMAND FILE RETURN ERROR
 000334 47F0 62BC            002D0  4506     643.              B     SYSRET                  AND RETURN
0000338                             4508     645.     CMDEOF   LABEL ,
 000338 1F00/4300 67DC       007F0  4510     646.              LC    R0,MCSID                GET CONSOLE IDENTIFIER
                                    4515     647.   C          WTO   '**ORVDUMP** Day not found in command file.',
 00033E 0700/4510 635E       00372           648.                    MCSFLAG=REG0
 000344 002E/4000                   4518             +
 000348 5C5CD6D9E5C4E4D4            4520             +
 000350 D75C5C40C481A840                             +
 000372 0A23                        4522             +
 000374 41F0 000C            0000C  4523     649.              LA    R15,12
 000378 47F0 62BC            002D0  4524     650.              B     SYSRET
1VFD      (VFD03) (09:46) (22MAR04) ORVYL File System Dump Driver                                                           Page   29
0Current Usings:  (OPTS,R5) (START,R6) (START+4096,R11)
0Loc    Object Code    Addr1 Addr2  Stmt Lv Lineno    Source Statement           (Hibal 5, Asmedit 3.3)  HLASM R4.0  2004/03/22 09.46
+___    ______ ____    _____ _____  ____ __ ______    ______ _________
0                                   4526     652.     *
                                    4527     653.     *  WRITE BUFFER TO JES INTERNAL READER
                                    4528     654.     *
000037C                             4530     656.     WRITE    LABEL ,
 00037C 900F D000            00000  4532     657.              VPUSH R0,R15,*
 000380 41D0 D040            00040  4534             +
 000384 9240 6787      0079B        4535     658.              MVI   BUFFER,C' '
 000388 D24E 6788 6787 0079C 0079B  4536     659.              MVC   BUFFER+1(L'BUFFER-1),BUFFER
 00038E 4820 6700            00714  4537     660.              LH    SR,SEGLEN
 000392 1222/47D0 63A0       003B4  4538     661.              IF    (SR,P),BEGIN
 000398 0620/4420 B422       01436  4552  1  662.                DEX   SR,'MVC BUFFER(0),SEGBUF'
 001436 D200 6787 6702 0079B 00716  4563  1          +
 00039E                             4571  1  663.                CLEAR SEGLEN
 00039E D701 6700 6700 00714 00714  4577  1          +
 0003A4 4110 B35C            01370  4578  1  664.                PUT   INTRDR,BUFFER
 0003A8 4100 6787/1FFF       0079B  4581  1          +
 0003AE BFF7 1031/05EF       00031  4583  1          +
 0003B4                             4585     665.              END   ,
 0003B4 4BD0 66BC            006D0  4589     666.              VPOP  R0,R15,*
 0003B8 980F D000            00000  4591             +
 0003BC 07F9                        4592     667.              BR    RAR
-
1VFD      (VFD03) (09:46) (22MAR04) ORVYL File System Dump Driver                                                           Page   30
0Current Usings:  (OPTS,R5) (START,R6) (START+4096,R11)
0Loc    Object Code    Addr1 Addr2  Stmt Lv Lineno    Source Statement           (Hibal 5, Asmedit 3.3)  HLASM R4.0  2004/03/22 09.46
+___    ______ ____    _____ _____  ____ __ ______    ______ _________
0                                   4595     670.     ********************************************************************
                                    4596     671.     *                                                                  *
                                    4597     672.     *  Trim trailing blanks from a character string                    *
                                    4598     673.     *                                                                  *
                                    4599     674.     ********************************************************************
00003BE                             4601     676.     RTRIM    LABEL ,                   Right trim character string
 0003BE 1200/0789                   4603     677.              IF    (R0,Z),RAR          Just return if length is zero
 0003C2 5020 D000            00000  4620     678.              VPUSH SR,,*               Save work register
 0003C6 41D0 D004            00004  4622             +
 0003CA 1821                        4623     679.              LR    SR,R1               Copy address of string start
 0003CC 1E20                        4624     680.              ALR   SR,R0               Set address of end of string +1
 0003CE 5B20 66A4            006B8  4625     681.              S     SR,=A(1)            Point to last character
 0003D2                             4626     682.              LOOP  BEGIN               Find first non-blank character
 0003D2 9540 2000      00000        4632  1  683.                CLI   @SR,C' '            Any blank there?
 0003D6 4770 63D2            003E6  4633  1  684.                IF    NE,EXIT             Exit loop if non-balnk
 0003DA 5F20 66A4            006B8  4647  1  685.                SL    SR,=A(1)            Decrement compare address
 0003DE 5B00 66A4            006B8  4648  1  686.                S     R0,=A(1)            Decrement string length
 0003E2 4770 63BE            003D2  4649     687.              UNTIL Z,END               Loop back to check next character
 0003E6 4BD0 66BE            006D2  4668     688.              VPOP  SR,,*               Restore registers
 0003EA 5820 D000            00000  4670             +
 0003EE 07F9                        4671     689.              BR    RAR                 And return
1VFD      (VFD03) (09:46) (22MAR04) ORVYL File System Dump Driver                                                           Page   31
0Current Usings:  (OPTS,R5) (START,R6) (START+4096,R11)
0Loc    Object Code    Addr1 Addr2  Stmt Lv Lineno    Source Statement           (Hibal 5, Asmedit 3.3)  HLASM R4.0  2004/03/22 09.46
+___    ______ ____    _____ _____  ____ __ ______    ______ _________
0                                   4673     691.     *
                                    4674     692.     *  SCAN EXIT ROUTINES
                                    4675     693.     *
00003F0                             4677     700.     NSISET   LABEL ,                       SYSA NSI FILE SYSTEM
 0003F0 4150 6804            00818  4679     701.              LA    RR,NSIDATA              SET FILE DATA
 0003F4 9610 5000      00000        4680     702.              SET   DOIT
 0003F8 07FE                        4686     703.              SCRTN ,                       RETURN TO SCANNER
00003FA                             4692     705.     FISSET   LABEL ,                       SYSA FIS File System
 0003FA 4150 6884            00898  4694     706.              LA    RR,FISDATA              SET FILE DATA
 0003FE 9610 5000      00000        4695     707.              SET   DOIT
 000402 07FE                        4701     708.              SCRTN (R15)                   RETURN TO SCANNER
0000404                             4708     710.     FOLSET   LABEL ,                       SYSA FOLIO File System
 000404 4150 6904            00918  4710     711.              LA    RR,FOLDATA              SET DATA ADDRESS
 000408 9610 5000      00000        4711     712.              SET   DOIT                    SET ACTION REQUIRED
 00040C 07FE                        4717     713.              SCRTN ,                       RETURN TO SCANNER
000040E                             4723     714.1    RTESET   LABEL ,                       SYSA FOLIO File System
 00040E 4150 6984            00998  4725     714.2             LA    RR,RTEDATA              SET DATA ADDRESS
 000412 9610 5000      00000        4726     714.3             SET   DOIT                    SET ACTION REQUIRED
 000416 07FE                        4732     714.4             SCRTN ,                       RETURN TO SCANNER
0000418                             4738     715.     GENSET   LABEL ,                       SYSA GENERAL File System
 000418 4150 6A84            00A98  4740     716.              LA    RR,GENDATA              SET CAMPUS DATA
 00041C 9610 5000      00000        4741     717.              SET   DOIT
 000420 07FE                        4747     718.              SCRTN ,                       RETURN TO SCANNER
0000422                             4753     720.     INTSET   LABEL ,                       SYSA INTERNAL File System
 000422 4150 6B04            00B18  4755     721.              LA    RR,INTDATA              SET FILE DATA
 000426 9610 5000      00000        4756     722.              SET   DOIT
 00042A 07FE                        4762     723.              SCRTN ,                       RETURN TO SCANNER
000042C                             4768     725.     OODSET   LABEL ,                       SYSA OOD File System
 00042C 4150 6B84            00B98  4770     726.              LA    RR,OODDATA              SET FILE DATA
 000430 9610 5000      00000        4771     727.              SET   DOIT
 000434 07FE                        4777     728.              SCRTN (R15)                   RETURN TO SCANNER
0000436                             4784     730.     SDCSET   LABEL ,                       SYSA SDCACCT File System
 000436 4150 6C04            00C18  4786     731.              LA    RR,SDCDATA              SET FILE DATA
 00043A 9610 5000      00000        4787     732.              SET   DOIT
 00043E 07FE                        4793     733.              SCRTN (R15)                   RETURN TO SCANNER
0000440                             4800     745.     BKSSET   LABEL ,                       RLG BR1, BR2 & BIX File Systems
 000440 4150 6E84            00E98  4802     746.              LA    RR,BKSDATA
 000444 9610 5000      00000        4803     747.              SET   DOIT
 000448 07FE                        4809     748.              SCRTN ,
000044A                             4815     750.     BIXSET   LABEL ,                       RLG BKSINDEX File System
 00044A 4150 6C84            00C98  4817     751.              LA    RR,BIXDATA
 00044E 9610 5000      00000        4818     752.              SET   DOIT
 000452 07FE                        4824     753.              SCRTN ,
1VFD      (VFD03) (09:46) (22MAR04) ORVYL File System Dump Driver                                                           Page   32
0Current Usings:  (OPTS,R5) (START,R6) (START+4096,R11)
0Loc    Object Code    Addr1 Addr2  Stmt Lv Lineno    Source Statement           (Hibal 5, Asmedit 3.3)  HLASM R4.0  2004/03/22 09.46
+___    ______ ____    _____ _____  ____ __ ______    ______ _________
0000454                             4830     755.     BR1SET   LABEL ,                       RLG BKSRES1 File System
 000454 4150 6D04            00D18  4832     756.              LA    RR,BR1DATA
 000458 9610 5000      00000        4833     757.              SET   DOIT
 00045C 07FE                        4839     758.              SCRTN ,
000045E                             4845     760.     BR2SET   LABEL ,                       RLG BKSRES2 File System
 00045E 4150 6D84            00D98  4847     761.              LA    RR,BR2DATA
 000462 9610 5000      00000        4848     762.              SET   DOIT
 000466 07FE                        4854     763.              SCRTN ,
0000468                             4860     764.1    BR3SET   LABEL ,                       RLG BKSRES3 File System
 000468 4150 6E04            00E18  4862     764.2             LA    RR,BR3DATA
 00046C 9610 5000      00000        4863     764.3             SET   DOIT
 000470 07FE                        4869     764.4             SCRTN ,
0000472                             4875     765.     DEVSET   LABEL ,                       RLG Development File System
 000472 4150 6F04            00F18  4877     766.              LA    RR,DEVDATA              ADDRESS OF DUMP BLOCK
 000476 9610 5000      00000        4878     767.              SET   DOIT                    SET ACTIVE FLAG
 00047A 07FE                        4884     768.              SCRTN ,                       RETURN TO SCANNER
000047C                             4890     770.     NBKSET   LABEL ,                       RLG NONBKS File System
 00047C 4150 6F84            00F98  4892     771.              LA    RR,NBKDATA              SET NONBKS DATA
 000480 9610 5000      00000        4893     772.              SET   DOIT
 000484 07FE                        4899     773.              SCRTN ,                       RETURN TO SCANNER
0000486                             4905     775.     USRSET   LABEL ,                       RLG USERS File System
 000486 4150 B004            01018  4907     776.              LA    RR,USRDATA
 00048A 9610 5000      00000        4908     777.              SET   DOIT
 00048E 07FE                        4914     778.              SCRTN ,
1VFD      (VFD03) (09:46) (22MAR04) ORVYL File System Dump Driver                                                           Page   33
0Current Usings:  (OPTS,R5) (START,R6) (START+4096,R11)
0Loc    Object Code    Addr1 Addr2  Stmt Lv Lineno    Source Statement           (Hibal 5, Asmedit 3.3)  HLASM R4.0  2004/03/22 09.46
+___    ______ ____    _____ _____  ____ __ ______    ______ _________
0000490                             4920     779.01   IDXSET   LABEL ,                       RLG USERS File System
 000490 4150 B084            01098  4922     779.02            LA    RR,IDXDATA
 000494 9610 5000      00000        4923     779.03            SET   DOIT
 000498 07FE                        4929     779.04            SCRTN ,
000049A                             4935     779.15   CITSET   LABEL ,                       RLG USERS File System
 00049A 4150 B104            01118  4937     779.25            LA    RR,CITDATA
 00049E 9610 5000      00000        4938     779.35            SET   DOIT
 0004A2 07FE                        4944     779.45            SCRTN ,
00004A4                             4950     780.     SETCONT  LABEL ,                   CONTINUATION REQUIRED
 0004A4 9680 6800      00814        4952     781.              SET   CONT                SET CONTINUATION CARD
 0004A8 94BF 6800      00814        4958     782.              CLEAR EOREC               CLEAR END OF RECORD FLAG
 0004AC 07FE                        4965     783.              SCRTN (R15)               RETURN TO SCANNER
1VFD      (VFD03) (09:46) (22MAR04) ORVYL File System Dump Driver                                                           Page   34
0Current Usings:  (OPTS,R5) (START,R6) (START+4096,R11)
0Loc    Object Code    Addr1 Addr2  Stmt Lv Lineno    Source Statement           (Hibal 5, Asmedit 3.3)  HLASM R4.0  2004/03/22 09.46
+___    ______ ____    _____ _____  ____ __ ______    ______ _________
00004AE                             4972     785.     SETDMP   LABEL ,                   SET DUMP OPTION
 0004AE 1255/4780 659A       005AE  4974     786.              IF    (RR,Z),SYSNSET      SYSTEM NOT SET
 0004B4 9680 5000      00000        4991     787.              SET   DMP                 SET DUMP AND READBACK
 0004B8 9610 5000      00000        4997     788.              SET   DOIT                SET SUBMIT REQUIRED
 0004BC 07FE                        5003     789.              SCRTN ,                   RETURN TO SCANNER
00004BE                             5009     791.     SETVRFY  LABEL ,                   SET VERIFY OPTION
 0004BE 1255/4780 659A       005AE  5011     792.              IF    (RR,Z),SYSNSET      SYSTEM NOT SET
 0004C4 9240 5000      00000        5028     793.              SET   (VRFY,EQ)           SET VERIFY
 0004C8 9610 5000      00000        5035     794.              SET   DOIT                SET SUBMIT REQUIRED
 0004CC 07FE                        5041     795.              SCRTN ,                   RETURN TO SCANNER
00004CE                             5047     796.1    SETT90   LABEL ,                   SET VERIFY OPTION
 0004CE 1255/4780 659A       005AE  5049     796.2             IF    (RR,Z),SYSNSET      SYSTEM NOT SET
 0004D4 9201 500F      0000F        5066     796.3             MVI   T90,1               SET TO USE 3490E'S
 0004D8 07FE                        5067     796.5             SCRTN ,                   RETURN TO SCANNER
00004DA                             5073     797.     SETINC   LABEL ,
 0004DA 1255/4780 659A       005AE  5075     798.              IF    (RR,Z),SYSNSET      SYSTEM PARAMETER NOT SET
 0004E0 9220 5000      00000        5092     799.              SET   (INC,EQ)            SET INCREMENTAL DUMP
 0004E4 9610 5000      00000        5099     800.              SET   DOIT                SET SUBMIT REQUIRED
 0004E8 07FE                        5105     801.              SCRTN (R15)               RETURN TO THE SCANNER
00004EA                             5112     803.     SETCLS   LABEL ,                   SET JOB CLASS
 0004EA 47D0 6614            00628  5114     804.              IF    NP,SETPMISS         PARAMETER MISSING
 0004EE 5900 66A4            006B8  5128     805.              IF    (R0,NE,1),SETLENE   PARAMETER LENGTH ERROR
 0004F2 4770 6650            00664  5142             +
 0004F6 1255/4780 659A       005AE  5148     806.              IF    (RR,Z),SYSNSET      SYSTEM NOT SET
 0004FC D200 5001 1000 00001 00000  5165     807.              MVC   CLASS,@R1           MOVE IN JOBCLASS
 000502 07FE                        5166     808.              SCRTN (R15)               RETURN TO SCANNER
0000504                             5173     810.     SETORV   LABEL ,
 000504 47D0 6614            00628  5175     811.              IF    NP,SETPMISS         PARAMETER MISSING
 000508 1255/4780 659A       005AE  5189     812.              IF    (RR,Z),SYSNSET      SYSTEM NOT SET
 00050E D207 5018 668C 00018 006A0  5206     813.              MVC   ORVN,=CL8' '        BLANK ORVYL NAME
 000514 1820                        5207     814.              LR    SR,R0               COPY LENGTH
 000516 0620/4420 B428       0143C  5208     815.              DEX   SR,'MVC ORVN(0),@R1'    SET ORVYL NAME
 00143C D200 5018 1000 00018 00000  5219             +
 00051C 07FE                        5227     816.              SCRTN (R15)               RETURN TO THE SCANNER
000051E                             5234     818.     SETAFF   LABEL ,                   SYSTEM AFFININTY
 00051E 47D0 6614            00628  5236     819.              IF    NP,SETPMISS         PARAMETER MISSING
 000522 5900 66A8            006BC  5250     820.              IF    (R0,NE,4),SETLENE   PARAMETER LENGTH ERROR
 000526 4770 6650            00664  5264             +
 00052A 1255/4780 659A       005AE  5270     821.              IF    (RR,Z),SYSNSET      SYSTEM NOT SET
 000530 D203 5008 1000 00008 00000  5287     822.              MVC   AFF,@R1             SET SYSTEM AFFINITY
 000536 07FE                        5288     823.              SCRTN (R15)               RETURN TO THE SCANNER
0000538                             5295     825.     SETNONE  LABEL ,                   IGNORE
 000538 1255/4780 659A       005AE  5297     826.              IF    (RR,Z),SYSNSET      SYSTEM NOT SET
 00053E 94EF 5000      00000        5314     827.              CLEAR DOIT                TURN DUMP/VERIFY OFF
 000542 07FE                        5321     828.              SCRTN (R15)               RETURN TO THE SCANNER
0000544                             5328     830.     SETRDBCK LABEL ,
1VFD      (VFD03) (09:46) (22MAR04) ORVYL File System Dump Driver                                                           Page   35
0Current Usings:  (OPTS,R5) (START,R6) (START+4096,R11)
0Loc    Object Code    Addr1 Addr2  Stmt Lv Lineno    Source Statement           (Hibal 5, Asmedit 3.3)  HLASM R4.0  2004/03/22 09.46
+___    ______ ____    _____ _____  ____ __ ______    ______ _________
0000544 1255/4780 659A       005AE  5330     831.              IF    (RR,Z),SYSNSET      SYSTEM NOT SET
 00054A 9604 5000      00000        5347     832.              SET   RDBCK               SET "READBACK" ACTIVE
 00054E 07FE                        5353     833.              SCRTN (R15)               RETURN TO SCANNER
0000550                             5360     835.     SETNRD   LABEL ,
 000550 1255/4780 659A       005AE  5362     836.              IF    (RR,Z),SYSNSET      SYSTEM NOT SET
 000556 94FB 5000      00000        5379     837.              CLEAR RDBCK               CLEAR "READBACK"
 00055A 07FE                        5386     838.              SCRTN ,                   RETURN TO THE SCANNER
000055C                             5392     840.     SETTIME  LABEL ,                   SET "TIMED" DELAY
 00055C 47D0 65D8            005EC  5394     841.              IF    NP,SETINVP          INVALID PARAMETER SCANNED
 000560 1255/4780 659A       005AE  5408     842.              IF    (RR,Z),SYSNSET      FILE SYSTEM NOT SET
 000566 5900 66AC            006C0  5425     843.              IF    (R0,NE,5),SETINVP   INVALID PARAMETER LENGTH
 00056A 4770 65D8            005EC  5439             +
 00056E 957A 1002      00002        5445     844.              CLI   @R1+2,C':'          VALID HH:MM FORMAT
 000572 4770 65D8            005EC  5446     845.              IF    NE,SETINVP          INVALID TIME PASSED
 000576 F271 66C4 1000 006D8 00000  5460     846.              PACK  CLWTEMP,@R1(2)      CONVERT HOURS
 00057C 4F30 66C4            006D8  5461     847.              CVB   TR,CLWTEMP          CONVERT TO BINARY
 000580 5930 66B0            006C4  5462     848.              IF    (TR,GT,23),SETINVP  TEST FOR VALID HOUR
 000584 4720 65D8            005EC  5476             +
 000588 5C20 66B4            006C8  5482     849.              M     SR,=A(60)           CONVERT TO MINUTES
 00058C F271 66C4 1003 006D8 00003  5483     850.              PACK  CLWTEMP,@R1+3(2)    CONVERT MINUTES
 000592 4F20 66C4            006D8  5484     851.              CVB   SR,CLWTEMP          CONVERT TO BINARY
 000596 5920 66B8            006CC  5485     852.              IF    (SR,GT,59),SETINVP  TEST FOR VALID MINUTE VALUE
 00059A 4720 65D8            005EC  5499             +
 00059E 1A32                        5505     853.              AR    TR,SR               ADD TO CONVERTED HOURS
 0005A0 5C20 66B4            006C8  5506     854.              M     SR,=A(60)           CONVERT WHOLE MESS TO SECONDS
 0005A4 5030 5004            00004  5507     855.              ST    TR,TIME             SAVE TIME
 0005A8 9608 5000      00000        5508     856.              SET   DELAY
 0005AC 07FE                        5514     857.              SCRTN (R15)               AND RETURN TO THE SCANNER
1VFD      (VFD03) (09:46) (22MAR04) ORVYL File System Dump Driver                                                           Page   36
0Current Usings:  (OPTS,R5) (START,R6) (START+4096,R11)
0Loc    Object Code    Addr1 Addr2  Stmt Lv Lineno    Source Statement           (Hibal 5, Asmedit 3.3)  HLASM R4.0  2004/03/22 09.46
+___    ______ ____    _____ _____  ____ __ ______    ______ _________
0                                   5521     859.     *
                                    5522     860.     *  ERROR EXIT ROUTINES
                                    5523     861.     *
00005AE                             5525     863.     SYSMUST  LABEL ,
 0005AE                             5527     864.     SYSNSET  LABEL ,
 0005AE 1F00/4300 67DC       007F0  5529     865.              LC    R0,MCSID                CONSOLE IDENTIFIER
                                    5534     866.   C          WTO   '**ORVDUMP** File system must be set first.',
 0005B4 4510 65D2/002E       005E6           867.                    MCSFLAG=REG0
 0005BA 4000                        5538             +
 0005BC 5C5CD6D9E5C4E4D4            5539             +
 0005C4 D75C5C40C6899385                             +
 0005E6 0A23                        5541             +
 0005E8 47F0 62DC            002F0  5542     868.              B     SYSRET4
00005EC                             5544     870.     SETINVP  LABEL ,                       INVALID KEYWORD FOUND
 0005EC 1F00/4300 67DC       007F0  5546     871.              LC    R0,MCSID                CONSOLE IDENTIFIER
                                    5551     872.   C          WTO   '**ORVDUMP** Invalid keyword parameter.',
 0005F2 0700/4510 660E       00622           873.                    MCSFLAG=(REG0)
 0005F8 002A/4000                   5554             +
 0005FC 5C5CD6D9E5C4E4D4            5556             +
 000604 D75C5C40C995A581                             +
 000622 0A23                        5558             +
 000624 47F0 62DC            002F0  5559     874.              B     SYSRET4                  RETURN TO VS
0000628                             5561     876.     SETPMISS LABEL ,                       PARAMETER MISSING
 000628 1F00/4300 67DC       007F0  5563     877.              LC    R0,MCSID                CONSOLE IDENTIFIER
                                    5568     878.   C          WTO   '**ORVDUMP** Keyword parameter missing.',
 00062E 0700/4510 664A       0065E           879.                    MCSFLAG=(REG0)
 000634 002A/4000                   5571             +
 000638 5C5CD6D9E5C4E4D4            5573             +
 000640 D75C5C40D285A8A6                             +
 00065E 0A23                        5575             +
 000660 47F0 62DC            002F0  5576     880.              B     SYSRET4                  RETURN TO VS
0000664                             5578     882.     SETLENE  LABEL ,                       PARAMETER LENGTH ERROR
 000664 1F00/4300 67DC       007F0  5580     883.              LC    R0,MCSID                CONSOLE IDENTIFIER
                                    5585     884.   C          WTO   '**ORVDUMP** Parameter length error.',
 00066A 0700/4510 6684       00698           885.                    MCSFLAG=(REG0)
 000670 0027/4000                   5588             +
 000674 5C5CD6D9E5C4E4D4            5590             +
 00067C D75C5C40D7819981                             +
 000698 0A23                        5592             +
 00069A 47F0 62DC            002F0  5593     886.              B     SYSRET4                  RETURN TO VS
1VFD      (VFD03) (09:46) (22MAR04) ORVYL File System Dump Driver                                                           Page   37
0Current Usings:  (OPTS,R5) (START,R6) (START+4096,R11)
0Loc    Object Code    Addr1 Addr2  Stmt Lv Lineno    Source Statement           (Hibal 5, Asmedit 3.3)  HLASM R4.0  2004/03/22 09.46
+___    ______ ____    _____ _____  ____ __ ______    ______ _________
0                                   5595     888.     *
                                    5596     889.     *  DEFINE LITERAL POOL
                                    5597     890.     *
00006A0                             5599     892.              LTORG ,
 0006A0 4040404040404040            5601                             =CL8' '
 0006A8 00000000                    5602                             =V(DAY)
 0006AC 00000000                    5603                             =V(SCINIT)
 0006B0 00000000                    5604                             =V(SCAN)
 0006B4 00001442                    5605                             =A(SUBMIT)
 0006B8 00000001                    5606                             =A(1)
 0006BC 00000004                    5607                             =A(4)
 0006C0 00000005                    5608                             =A(5)
 0006C4 00000017                    5609                             =A(23)
 0006C8 0000003C                    5610                             =A(60)
 0006CC 0000003B                    5611                             =A(59)
 0006D0 0040                        5612                             =Y((R15+1-(R0)+16*((R0)/(R15+1))/((R0)/(R15+1)))*4)
 0006D2 0004           01442 01B00  5613                             =Y(4)
1VFD      (VFD03) (09:46) (22MAR04) ORVYL File System Dump Driver                                                           Page   38
0Current Usings:  (OPTS,R5) (START,R6) (START+4096,R11)
0Loc    Object Code    Addr1 Addr2  Stmt Lv Lineno    Source Statement           (Hibal 5, Asmedit 3.3)  HLASM R4.0  2004/03/22 09.46
+___    ______ ____    _____ _____  ____ __ ______    ______ _________
0                                   5618     894.     *
                                    5619     895.     *  SUBMIT JOB TO JES VIA THE INTERNAL READER
                                    5620     896.     *
0001442 900F D000/188D       00000  5622     898.     SUBMIT   VENTER R0,R15,*,LOCAL     ENTER AND SAVE REGISTERS
 001448 41D0 D040/0D70       00040  5626             +
 00144E 91E0 5000      00000        5641     899.              IF    DMP+VRFY+INC,BEGIN  GENERATE DUMP, VERIFY, INCREMENTAL
 USING  *,R7
 001452 4780 7376            017C4  5658             +
 001456 4110 7582            019D0  5663  1  900.                VSEG  '//'
 00145A 4100 0002            00002  5667  1          +
 00145E 5890 756A/0D99       019B8  5670  1          +
 001464 9180 5000      00000        5672  1  901.                IF    DMP,'LA QR,DFLG'    SET JOB SPECIFIC FLAG ADDRESS
 001468 47E0 7022            01470  5682  1          +
 00146C 4140 5066            00066  5688  1          +
 001470 7026           01470 0146A  5693  1  902.                ELSEIF VRFY,'LA QR,VFLG'
 001470 47F0 7032            01480  5699  1          +
 001474 9140 5000      00000        5711  1          +
 001478 47E0 7032            01480  5712  1          +
 00147C 4140 5050            00050  5718  1          +
 001480 7036           01480 0147A  5723  1  903.                ELSEIF INC,'LA QR,IFLG'
 001480 47F0 7042            01490  5729  1          +
 001484 9120 5000      00000        5741  1          +
 001488 47E0 7042            01490  5742  1          +
 00148C 4140 503A            0003A  5748  1          +
 USING  JOBFLGS,R4                  5753  1  904.                USING JOBFLGS,QR          ADDRESSABILITY TO JOB FLAGS
 001490 9180 5000      00000        5762  1  905.                IF    DMP,'LA R1,DJ'      SET ADDRESS OF DUMP JOBNAME
 001494 47E0 704E            0149C  5772  1          +
 001498 4110 505A            0005A  5778  1          +
 00149C 7052           0149C 01496  5783  1  906.                ELSEIF VRFY,'LA R1,VJ'      SET ADDRESS OF VERIFY JOB
 00149C 47F0 705E            014AC  5789  1          +
 0014A0 9140 5000      00000        5801  1          +
 0014A4 47E0 705E            014AC  5802  1          +
 0014A8 4110 5044            00044  5808  1          +
 0014AC 7062           014AC 014A6  5813  1  907.                ELSEIF INC,'LA R1,IJ'         SET ADDRESS OF INCREMENTAL JOB
 0014AC 47F0 706E            014BC  5819  1          +
 0014B0 9120 5000      00000        5831  1          +
 0014B4 47E0 706E            014BC  5832  1          +
 0014B8 4110 502E            0002E  5838  1          +
 0014BC 4100 0008            00008  5843  1  908.                LA    R0,8                SET MAXIMUM LENGTH
 0014C0 4D90 63AA            003BE  5844  1  909.                LCALL RTRIM               TRIM TRAILING BLANKS
 0014C4 5890 756A/0D99       019B8  5846  1  910.                VSEG  (R1),(R0)           ADD TO BUFFER
 0014CA 4110 75EA            01A38  5861  1  911.                VSEG  ' JOB '
 0014CE 4100 0005            00005  5865  1          +
 0014D2 5890 756A/0D99       019B8  5868  1          +
 0014D8 4110 5020            00020  5870  1  912.                VSEG  RACC,6
 0014DC 4100 0006            00006  5886  1          +
 0014E0 5890 756A/0D99       019B8  5889  1          +
 0014E6 4110 75EF            01A3D  5891  1  913.                VSEG  ',TIME=40,CLASS='
 0014EA 4100 000F            0000F  5895  1          +
 0014EE 5890 756A/0D99       019B8  5898  1          +
 0014F4 4110 5001            00001  5900  1  914.                VSEG  CLASS,1             ADD JOB CLASS TO JOBCARD
 0014F8 4100 0001            00001  5916  1          +
 0014FC 5890 756A/0D99       019B8  5919  1          +
1VFD      (VFD03) (09:46) (22MAR04) ORVYL File System Dump Driver                                                           Page   39
0Current Usings:  (JOBFLGS,R4) (OPTS,R5) (START,R6) (*,R7) (START+4096,R11)
0Loc    Object Code    Addr1 Addr2  Stmt Lv Lineno    Source Statement           (Hibal 5, Asmedit 3.3)  HLASM R4.0  2004/03/22 09.46
+___    ______ ____    _____ _____  ____ __ ______    ______ _________
0001502 4D90 6368            0037C  5921  1  915.                LCALL WRITE               WRITE JOBCARD
 001506 4110 7584            019D2  5923  1  916.                VSEG  '/*JOBPARM BIN='
 00150A 4100 000E            0000E  5927  1          +
 00150E 5890 756A/0D99       019B8  5930  1          +
 001514 4110 500C            0000C  5932  1  917.                VSEG  BIN,3
 001518 4100 0003            00003  5948  1          +
 00151C 5890 756A/0D99       019B8  5951  1          +
 001522 4D90 6368            0037C  5953  1  918.                LCALL WRITE
 001526 4110 7592            019E0  5955  1  918.1               VSEG  '/*JOBPARM LINES=50'
 00152A 4100 0012            00012  5959  1          +
 00152E 5890 756A/0D99       019B8  5962  1          +
 001534 4D90 6368            0037C  5964  1  918.2               LCALL WRITE
 001538 9180 5000      00000        5966  1  919.                IF    DMP,'LA SR,DJ2'
 00153C 47E0 70F6            01544  5976  1          +
 001540 4120 5064            00064  5982  1          +
 001544 9140 5000      00000        5987  1  920.                IF    VRFY,'LA SR,VJ2'
 001548 47E0 7102            01550  5997  1          +
 00154C 4120 504E            0004E  6003  1          +
 001550 9120 5000      00000        6008  1  921.                IF    INC,'LA SR,IJ2'
 001554 47E0 710E            0155C  6018  1          +
 001558 4120 5038            00038  6024  1          +
 00155C 95F0 2000      00000        6029  1  922.                CLI   @SR,C'0'            RESERVE ANY 3420 TAPES?
 001560 47D0 7144            01592  6030  1  923.                IF    GT,BEGIN            YEP -- BUILD SETUP STATEMENT
 001564 4110 75A4            019F2  6041  2  924.                  VSEG  '/*SETUP T='        SETUP STATEMENT
 001568 4100 000A            0000A  6045  2          +
 00156C 5890 756A/0D99       019B8  6048  2          +
 001572 4110 2000            00000  6050  2  925.                  VSEG  @SR,1                 ADD TAPES TO RESERVE
 001576 4100 0001            00001  6066  2          +
 00157A 5890 756A/0D99       019B8  6069  2          +
 001580 4110 75AE            019FC  6071  2  926.                  VSEG  ',OUTPUT=SCRTCH'        COMPLETE STATEMENT
 001584 4100 000E            0000E  6075  2          +
 001588 5890 756A/0D99       019B8  6078  2          +
 00158E 4D90 6368            0037C  6080  2  927.                  LCALL WRITE                     WRITE TO INTERNAL READER
 001592                             6082  1  928.                END   ,
 001592 95F0 2001      00001        6086  1  929.                CLI   @SR+1,C'0'          RESERVE ANY 3840 TAPES?
 001596 47D0 7194            015E2  6087  1  930.                IF    GT,BEGIN            YEP -- BUILD SETUP STATMENT
 00159A 9500 500F      0000F        6098  2  930.1                 IF    (T90,Z),BEGIN
 00159E 4770 7162            015B0  6109  2          +
 0015A2 4110 75BC            01A0A  6114  3  931.                    VSEG  '/*SETUP T3480='    SETUP STATEMENT
 0015A6 4100 000E            0000E  6118  3          +
 0015AA 5890 756A/0D99       019B8  6121  3          +
 0015B0 7166           015B0 015A0  6123  2  931.1                 END   ELSE,BEGIN
 0015B0 47F0 7174            015C2  6132  2          +
 0015B4 4110 75FE            01A4C  6138  3  931.11                  VSEG  '/*SETUP T3490E='
 0015B8 4100 000F            0000F  6142  3          +
 0015BC 5890 756A/0D99       019B8  6145  3          +
 0015C2                             6147  2  931.2                 END   ,
 0015C2 4110 2001            00001  6151  2  932.                  VSEG  @SR+1,1               ADD TAPES TO RESERVE
 0015C6 4100 0001            00001  6167  2          +
 0015CA 5890 756A/0D99       019B8  6170  2          +
 0015D0 4110 75AE            019FC  6172  2  933.                  VSEG  ',OUTPUT=SCRTCH'        COMPLETE STATEMENT
 0015D4 4100 000E            0000E  6176  2          +
 0015D8 5890 756A/0D99       019B8  6179  2          +
 0015DE 4D90 6368            0037C  6181  2  934.                  LCALL WRITE                     WRITE TO INTERNAL READER
1VFD      (VFD03) (09:46) (22MAR04) ORVYL File System Dump Driver                                                           Page   40
0Current Usings:  (JOBFLGS,R4) (OPTS,R5) (START,R6) (*,R7) (START+4096,R11)
0Loc    Object Code    Addr1 Addr2  Stmt Lv Lineno    Source Statement           (Hibal 5, Asmedit 3.3)  HLASM R4.0  2004/03/22 09.46
+___    ______ ____    _____ _____  ____ __ ______    ______ _________
00015E2                             6183  1  935.                END   ,
 0015E2 9180 4000      00000        6187  1  936.                IF    JOBHOLD,BEGIN
 0015E6 47E0 71AE            015FC  6197  1          +
 0015EA 4110 760D            01A5B  6202  2  937.                  VSEG  '/*SETUP "Waiting for operator manual release"'
 0015EE 4100 002D            0002D  6206  2          +
 0015F2 5890 756A/0D99       019B8  6209  2          +
 0015F8 4D90 6368            0037C  6211  2  938.                  LCALL WRITE
 0015FC                             6213  1  939.                END   ,
 0015FC 4110 763A            01A88  6217  1  940.                VSEG  '/*JOBPARM HOLD=OUTPUT'
 001600 4100 0015            00015  6221  1          +
 001604 5890 756A/0D99       019B8  6224  1          +
 00160A                             6226  1  941.                IF    (AFF,NE,'NULL'),BEGIN   SET SYSAFF JOBPARM PARAMETER
 00160A D503 756E 5008 019BC 00008  6237  1          +
 001610 4780 71E2            01630  6238  1          +
 001614 4110 7542            01990  6243  2  942.                  VSEG  ',SYSAFF='              ADD SYSAFF PARAMETER
 001618 4100 0008            00008  6247  2          +
 00161C 5890 756A/0D99       019B8  6250  2          +
 001622 4110 5008            00008  6252  2  943.                  VSEG  AFF,4                   SET SYSTEM AFFINITY
 001626 4100 0004            00004  6268  2          +
 00162A 5890 756A/0D99       019B8  6271  2          +
 001630                             6273  1  944.                END   ,
 001630 4D90 6368            0037C  6277  1  945.                LCALL WRITE                   WRITE JOBPARM CARD
 001634 D507 5018 754A 00018 01998  6279  1  946.                CLC   ORVN,=CL8' '        /*JOBPARM ORVYL=<NAME> REQUIRED
 00163A 4780 7222            01670  6280  1  947.                IF    NE,BEGIN            YES -- GENERATE ORVYL=<NAME>
 00163E 4110 75CA            01A18  6291  2  948.                  VSEG  '/*JOBPARM '        SET JOBAPRM RECORD
 001642 4100 000A            0000A  6295  2          +
 001646 5890 756A/0D99       019B8  6298  2          +
 00164C 4110 764F            01A9D  6300  2  949.                  VSEG  ' ORVYL='           AND PREFIX OF ORVYL NAME
 001650 4100 0007            00007  6304  2          +
 001654 5890 756A/0D99       019B8  6307  2          +
 00165A 4110 5018            00018  6309  2  950.                  LA    R1,ORVN             ADDRESS OF ORVYL NAME
 00165E 4100 0008            00008  6310  2  951.                  LA    R0,8                SET MAXIMUM LENGTH OF NAME
 001662 4D90 63AA            003BE  6311  2  952.                  LCALL RTRIM               TRIM TRAILING BLANKS
 001666 5890 756A/0D99       019B8  6313  2  953.                  VSEG  (R1),(R0)           ADD ORVYL NAME TO JOBPARM CARD
 00166C 4D90 6368            0037C  6328  2  954.                  LCALL WRITE               WRITE RECORD TO INTERNAL READER
 001670                             6330  1  955.                END   ,
 001670 4110 7552            019A0  6334  1  956.                VSEG  '// EXEC '
 001674 4100 0008            00008  6338  1          +
 001678 5890 756A/0D99       019B8  6341  1          +
 00167E 9180 5000      00000        6343  1  957.                IF    DMP,'LA R1,DPRC'    SET ADDRESS OF PROCEDURE NAME
 001682 47E0 723C            0168A  6353  1          +
 001686 4110 5052            00052  6359  1          +
 00168A 9140 5000      00000        6364  1  958.                IF    VRFY,'LA R1,VPRC'   SET ADDRESS OF PROCEDURE NAME
 00168E 47E0 7248            01696  6374  1          +
 001692 4110 503C            0003C  6380  1          +
 001696 9120 5000      00000        6385  1  959.                IF    INC,'LA R1,IPRC'    SET ADDRESS OF PROCEDURE NAME
 00169A 47E0 7254            016A2  6395  1          +
 00169E 4110 5026            00026  6401  1          +
 0016A2 4100 0008            00008  6406  1  960.                LA    R0,8                SET MAXIMUM LENGTH
 0016A6 4D90 63AA            003BE  6407  1  961.                LCALL RTRIM               TRIM TRAILING BLANKS
 0016AA 5890 756A/0D99       019B8  6409  1  962.                VSEG  (R1),(R0)           ADD TO BUFFER
 0016B0 9140 4000      00000        6424  1  963.                IF    NEWPROC,BEGIN       PARAMETERS FOR GENERALIZED PROC
 0016B4 47E0 7316            01764  6434  1          +
 0016B8 4110 75D4            01A22  6439  2  964.                  VSEG  ',FUNC='            SET FUNCTION PARAMETER
1VFD      (VFD03) (09:46) (22MAR04) ORVYL File System Dump Driver                                                           Page   41
0Current Usings:  (JOBFLGS,R4) (OPTS,R5) (START,R6) (*,R7) (START+4096,R11)
0Loc    Object Code    Addr1 Addr2  Stmt Lv Lineno    Source Statement           (Hibal 5, Asmedit 3.3)  HLASM R4.0  2004/03/22 09.46
+___    ______ ____    _____ _____  ____ __ ______    ______ _________
00016BC 4100 0006            00006  6443  2          +
 0016C0 5890 756A/0D99       019B8  6446  2          +
 0016C6 9180 5000      00000        6448  2  965.                  IF    DMP,'VSEG "DUMP"'   SET DUMPING
 0016CA 47E0 728E            016DC  6458  2          +
 0016CE 4110 7572            019C0  6467  3          +
 0016D2 4100 0004            00004  6468  3          +
 0016D6 5890 756A/0D99       019B8  6471  2          +
 0016DC 9140 5000      00000        6477  2  966.                  IF    VRFY,'VSEG "VERIFY"'  OR SET VERIFY
 0016E0 47E0 72A4            016F2  6487  2          +
 0016E4 4110 75DA            01A28  6496  3          +
 0016E8 4100 0006            00006  6497  3          +
 0016EC 5890 756A/0D99       019B8  6500  2          +
 0016F2 9120 5000      00000        6506  2  967.                  IF    INC,'VSEG "INC"'        OR SET INCREMENTAL
 0016F6 47E0 72BA            01708  6516  2          +
 0016FA 4110 7656            01AA4  6525  3          +
 0016FE 4100 0003            00003  6526  3          +
 001702 5890 756A/0D99       019B8  6529  2          +
 001708 4110 7659            01AA7  6535  2  968.                  VSEG  ',ORVYL='           SET ORVYL NAME
 00170C 4100 0007            00007  6539  2          +
 001710 5890 756A/0D99       019B8  6542  2          +
 001716 D507 5018 754A 00018 01998  6544  2  969.                  CLC   ORVN,=CL8' '        ORVYL NAME BEEN SET
 00171C 4770 72E0            0172E  6545  2  970.                  IF    EQ,'VSEG "ORVYL"'   SET DEFAULT ORVYL NAME
 001720 4110 7660            01AAE  6560  3          +
 001724 4100 0005            00005  6561  3          +
 001728 5890 756A/0D99       019B8  6564  2          +
 00172E 72E4           0172E 0171E  6570  2  971.                  ELSE  BEGIN
 00172E 47F0 72F6            01744  6575  2          +
 001732 4110 5018            00018  6581  3  972.                    LA    R1,ORVN             ADDRESS OF SPECIFIED ORVYL NAME
 001736 4100 0008            00008  6582  3  973.                    LA    R0,8                SET MAXIMUM LENGTH OF NAME
 00173A 4D90 63AA            003BE  6583  3  974.                    LCALL RTRIM               TRIM TRAILING BLANKS FROM NAME
 00173E 5890 756A/0D99       019B8  6585  3  975.                    VSEG  (R1),(R0)           ADD TO EXEC CARD
 001744                             6600  2  976.                  END   ,
 001744 4110 7665            01AB3  6604  2  977.                  VSEG  ',FSN='             ADD FILE SYSTEM NAME
 001748 4100 0005            00005  6608  2          +
 00174C 5890 756A/0D99       019B8  6611  2          +
 001752 4110 5010            00010  6613  2  978.                  LA    R1,NAME             ADDRESS OF FILE SYSTEM NAME
 001756 4100 0008            00008  6614  2  979.                  LA    R0,8                SET MAXIMUM LENGTH OF NAME
 00175A 4D90 63AA            003BE  6615  2  980.                  LCALL RTRIM               TRIM TRAILING BLANKS FROM NAME
 00175E 5890 756A/0D99       019B8  6617  2  981.                  VSEG  (R1),(R0)           SET FILE SYSTEM NAME ON EXEC
 001764                             6632  1  982.                END   ,
 001764 4D90 6368            0037C  6636  1  983.                LCALL WRITE               WRITE EXEC CARD
 001768 9180 5000      00000        6638  1  984.                IF    (DMP,AND,NEWPROC),BEGIN
 00176C 47E0 7364            017B2  6650  1          +
 001770 9140 4000      00000        6661  1          +
 001774 47E0 7364            017B2  6662  1          +
 001778 9104 5000      00000        6667  2  985.                  IF    RDBCK,BEGIN
 00177C 47E0 7364            017B2  6677  2          +
 001780 4110 766A            01AB8  6682  3  986.                    VSEG  '// EXEC PGM=HCMD,COND=(4,LT),PARM=''ALTER '
 001784 4100 0029            00029  6686  3          +
 001788 5890 756A/0D99       019B8  6689  3          +
 00178E 4110 5070            00070  6691  3  987.                    LA    R1,RJ               ADDRESS OF READBACK JOBNAME
 001792 4100 0008            00008  6692  3  988.                    LA    R0,8                  SET MAXIMUM LENGTH OF NAME
 001796 4D90 63AA            003BE  6693  3  989.                    LCALL RTRIM                   TRIM OFF TRAILING BLANKS
 00179A 5890 756A/0D99       019B8  6695  3  990.                    VSEG  (R1),(R0)           ADD JOBNAME FOR ALTER COMMAND
1VFD      (VFD03) (09:46) (22MAR04) ORVYL File System Dump Driver                                                           Page   42
0Current Usings:  (JOBFLGS,R4) (OPTS,R5) (START,R6) (*,R7) (START+4096,R11)
0Loc    Object Code    Addr1 Addr2  Stmt Lv Lineno    Source Statement           (Hibal 5, Asmedit 3.3)  HLASM R4.0  2004/03/22 09.46
+___    ______ ____    _____ _____  ____ __ ______    ______ _________
00017A0 4110 75E0            01A2E  6710  3  991.                    VSEG  ' NHOLD -1'''       COMPLETE COMMAND
 0017A4 4100 000A            0000A  6714  3          +
 0017A8 5890 756A/0D99       019B8  6717  3          +
 0017AE 4D90 6368            0037C  6719  3  992.                    LCALL WRITE               WRITE TO JES INTERNAL READER
 0017B2                             6721  2  993.                  END   ,
 0017B2                             6725  1  994.                END   ,
 0017B2 4110 7693            01AE1  6729  1  995.                VSEG  '/*EOF'             INDICATE TO JES THAT'S IT FELLAH
 0017B6 4100 0005            00005  6733  1          +
 0017BA 5890 756A/0D99       019B8  6736  1          +
 0017C0 4D90 6368            0037C  6738  1  996.                LCALL WRITE               WRITE TO INTERNAL READER
 DROP   JOBFLGS,R4                  6740  1  997.                DROP  QR                  RELEASE JOB SPECIFIC FLAGS
 0017C4                             6747     998.              END   ,
 0017C4 9104 5000      00000        6751     999.              IF    RDBCK,BEGIN
 0017C8 47E0 74F2            01940  6761             +
 0017CC 4110 7582            019D0  6766  1 1000.                VSEG  '//'
 0017D0 4100 0002            00002  6770  1          +
 0017D4 5890 756A/0D99       019B8  6773  1          +
 0017DA 4110 5070            00070  6775  1 1001.                LA    R1,RJ               ADDRESS OF READBACK JOBNAME
 0017DE 4100 0008            00008  6776  1 1002.                LA    R0,8                  SET MAXIMUM LENGTH
 0017E2 4D90 63AA            003BE  6777  1 1003.                LCALL RTRIM                   TRIM TRAILING BLANKS
 0017E6 5890 756A/0D99       019B8  6779  1 1004.                VSEG  (R1),(R0)                 ADD TO BUFFER
 0017EC 4110 75EA            01A38  6794  1 1005.                VSEG  ' JOB '
 0017F0 4100 0005            00005  6798  1          +
 0017F4 5890 756A/0D99       019B8  6801  1          +
 0017FA 4110 5020            00020  6803  1 1006.                VSEG  RACC,6
 0017FE 4100 0006            00006  6819  1          +
 001802 5890 756A/0D99       019B8  6822  1          +
 001808 4110 755A            019A8  6824  1 1007.                VSEG  ',TIME=40,CLASS=B'
 00180C 4100 0010            00010  6828  1          +
 001810 5890 756A/0D99       019B8  6831  1          +
 001816 4D90 6368            0037C  6833  1 1008.                LCALL WRITE                   WRITE JOBCARD
 00181A 4110 7584            019D2  6835  1 1009.                VSEG  '/*JOBPARM BIN='
 00181E 4100 000E            0000E  6839  1          +
 001822 5890 756A/0D99       019B8  6842  1          +
 001828 4110 500C            0000C  6844  1 1010.                VSEG  BIN,3
 00182C 4100 0003            00003  6860  1          +
 001830 5890 756A/0D99       019B8  6863  1          +
 001836 4D90 6368            0037C  6865  1 1011.                LCALL WRITE
 00183A 95F0 507A      0007A        6867  1 1012.                IF    (RJ2,GT,C'0'),BEGIN RESERVE 3420 TAPES
 00183E 47D0 7422            01870  6879  1          +
 001842 4110 75A4            019F2  6884  2 1013.                  VSEG  '/*SETUP T='        ADD SETUP MESSAGE
 001846 4100 000A            0000A  6888  2          +
 00184A 5890 756A/0D99       019B8  6891  2          +
 001850 4110 507A            0007A  6893  2 1014.                  VSEG  RJ2,1               ADD NUMBER OF TAPES
 001854 4100 0001            00001  6909  2          +
 001858 5890 756A/0D99       019B8  6912  2          +
 00185E 4110 7576            019C4  6914  2 1015.                  VSEG  ',INPUT=CATLG'      COMPLETE SETUP STATEMENT
 001862 4100 000C            0000C  6918  2          +
 001866 5890 756A/0D99       019B8  6921  2          +
 00186C 4D90 6368            0037C  6923  2 1016.                  LCALL WRITE
 001870                             6925  1 1017.                END   ,
 001870 95F0 507B      0007B        6929  1 1018.                IF    (RJ8,GT,C'0'),BEGIN RESERVE 3480 TAPES
 001874 47D0 7472            018C0  6941  1          +
 001878 9500 500F      0000F        6946  2 1018.1                 IF    (T90,Z),BEGIN
1VFD      (VFD03) (09:46) (22MAR04) ORVYL File System Dump Driver                                                           Page   43
0Current Usings:  (OPTS,R5) (START,R6) (*,R7) (START+4096,R11)
0Loc    Object Code    Addr1 Addr2  Stmt Lv Lineno    Source Statement           (Hibal 5, Asmedit 3.3)  HLASM R4.0  2004/03/22 09.46
+___    ______ ____    _____ _____  ____ __ ______    ______ _________
000187C 4770 7440            0188E  6957  2          +
 001880 4110 75BC            01A0A  6962  3 1018.2                   VSEG  '/*SETUP T3480='    SETUP STATEMENT
 001884 4100 000E            0000E  6966  3          +
 001888 5890 756A/0D99       019B8  6969  3          +
 00188E 7444           0188E 0187E  6971  2 1018.3                 END   ELSE,BEGIN
 00188E 47F0 7452            018A0  6980  2          +
 001892 4110 75FE            01A4C  6986  3 1018.4                   VSEG  '/*SETUP T3490E='
 001896 4100 000F            0000F  6990  3          +
 00189A 5890 756A/0D99       019B8  6993  3          +
 0018A0                             6995  2 1018.5                 END   ,
 0018A0 4110 507B            0007B  6999  2 1020.                  VSEG  RJ8,1               ADD NUMBER OF TAPES
 0018A4 4100 0001            00001  7015  2          +
 0018A8 5890 756A/0D99       019B8  7018  2          +
 0018AE 4110 7576            019C4  7020  2 1021.                  VSEG  ',INPUT=CATLG'      COMPLETE SETUP STATEMENT
 0018B2 4100 000C            0000C  7024  2          +
 0018B6 5890 756A/0D99       019B8  7027  2          +
 0018BC 4D90 6368            0037C  7029  2 1022.                  LCALL WRITE
 0018C0                             7031  1 1023.                END   ,
 0018C0 4110 763A            01A88  7035  1 1024.                VSEG  '/*JOBPARM HOLD=OUTPUT'
 0018C4 4100 0015            00015  7039  1          +
 0018C8 5890 756A/0D99       019B8  7042  1          +
 0018CE                             7044  1 1025.                IF    (AFF,NE,'NULL'),BEGIN   SET SYSAFF JOBPARM PARAMETER
 0018CE D503 756E 5008 019BC 00008  7055  1          +
 0018D4 4780 74A6            018F4  7056  1          +
 0018D8 4110 7542            01990  7061  2 1026.                  VSEG  ',SYSAFF='              ADD SYSAFF PARAMETER
 0018DC 4100 0008            00008  7065  2          +
 0018E0 5890 756A/0D99       019B8  7068  2          +
 0018E6 4110 5008            00008  7070  2 1027.                  VSEG  AFF,4                   SET SYSTEM AFFINITY
 0018EA 4100 0004            00004  7086  2          +
 0018EE 5890 756A/0D99       019B8  7089  2          +
 0018F4                             7091  1 1028.                END   ,
 0018F4 4D90 6368            0037C  7095  1 1029.                LCALL WRITE
 0018F8 4110 7698            01AE6  7097  1 1030.                VSEG  '/*JOBPARM NHOLD=1'
 0018FC 4100 0011            00011  7101  1          +
 001900 5890 756A/0D99       019B8  7104  1          +
 001906 4D90 6368            0037C  7106  1 1031.                LCALL WRITE
 00190A 4110 7552            019A0  7108  1 1032.                VSEG  '// EXEC '
 00190E 4100 0008            00008  7112  1          +
 001912 5890 756A/0D99       019B8  7115  1          +
 001918 4110 5068            00068  7117  1 1033.                LA    R1,RP               ADDRESS OF PROCEDURE NAME
 00191C 4100 0008            00008  7118  1 1034.                LA    R0,8                SET MAXIMUM LENGTH OF NAME
 001920 4D90 63AA            003BE  7119  1 1035.                LCALL RTRIM               TRIM TRAILING BLANKS
 001924 5890 756A/0D99       019B8  7121  1 1036.                VSEG  (R1),(R0)           ADD TO BUFFER
 00192A 4D90 6368            0037C  7136  1 1037.                LCALL WRITE
 00192E 4110 7693            01AE1  7138  1 1038.                VSEG  '/*EOF'
 001932 4100 0005            00005  7142  1          +
 001936 5890 756A/0D99       019B8  7145  1          +
 00193C 4D90 6368            0037C  7147  1 1039.                LCALL WRITE
 001940                             7149    1040.              END   ,
 001940 18D8/980F D000       00000  7153    1041.              VEXIT R0,R15,LTR          RESTORE AND RETURN
 001946 12FF/07F9                   7157             +
1VFD      (VFD03) (09:46) (22MAR04) ORVYL File System Dump Driver                                                           Page   44
0Current Usings:  (OPTS,R5) (START,R6) (*,R7) (START+4096,R11)
0Loc    Object Code    Addr1 Addr2  Stmt Lv Lineno    Source Statement           (Hibal 5, Asmedit 3.3)  HLASM R4.0  2004/03/22 09.46
+___    ______ ____    _____ _____  ____ __ ______    ______ _________
0                                   7161    1044.     *
                                    7162    1045.     *    ADD A SEGMENT TO OUTPUT BUFFER
                                    7163    1046.     *
000194A 900F D000/188D       00000  7165    1048.     VSEG     VENTER R0,R15,*           ENTER AND SAVE REGISTERS
 001950 41D0 D040/0D70       00040  7170             +
 001956 1230                        7188    1049.              LTR   TR,R0                   CHECK LENGTH
 DROP   *,R7
 USING  *,R7
 001958 47D0 7032            01988  7189    1050.              IF    P,BEGIN                 GOT SOME TEXT
 00195C 4120 0085            00085  7200  1 1051.                LA    SR,L'SEGBUF             CALCULATE
 001960 4B20 6700            00714  7201  1 1052.                SH    SR,SEGLEN               LENGTH REMAINING
 001964 47D0 7032            01988  7202  1 1053.                IF    NP,EXIT                 NO MORE, TOO BAD
 001968 1B23                        7216  1 1054.                SR    SR,TR                   MORE DATA THAN SPACE?
 00196A 47B0 701A/1A32       01970  7217  1 1055.                IF    M,'AR  TR,SR'           REDUCE TO MAX AVAILABLE
 001970 4140 6702            00716  7234  1 1056.                LA    QR,SEGBUF               CALCULATE DATA ADDRESS
 001974 4A40 6700            00714  7235  1 1057.                AH    QR,SEGLEN
 001978 1823                        7236  1 1058.                LR    SR,TR                   CALCULATE NEW
 00197A 4A20 6700            00714  7237  1 1059.                AH    SR,SEGLEN               RECORD LENGTH
 00197E 4020 6700            00714  7238  1 1060.                STH   SR,SEGLEN               AND SAVE IT
 001982 0630/4430 71A2       01AF8  7239  1 1061.                DEX   TR,'MVC  @QR(*-*),@R1'  MOVE IN THE GOODIES
 001AF7 00                                2          +
 001AF8 D200 4000 1000 00000 00000  7250  1          +
 001988                             7258    1062.              END   ,
 001988 18D8/980F D000       00000  7262    1063.              VEXIT R0,R15                  RESTORE AND RETURN
 00198E 07F9                        7266             +
1VFD      (VFD03) (09:46) (22MAR04) ORVYL File System Dump Driver                                                           Page   45
0Current Usings:  (OPTS,R5) (START,R6) (*,R7) (START+4096,R11)
0Loc    Object Code    Addr1 Addr2  Stmt Lv Lineno    Source Statement           (Hibal 5, Asmedit 3.3)  HLASM R4.0  2004/03/22 09.46
+___    ______ ____    _____ _____  ____ __ ______    ______ _________
0                                   7268    1065.     *
                                    7269    1066.     *  FINAL LITERAL POOL
                                    7270    1067.     *
0DROP   START+4096,R11              7272    1069.              DROP  ,                   RELEASE ADDRESSABILITY
 DROP   *,R7
 DROP   START,R6
 DROP   OPTS,R5
0001990                             7318    1071.              LTORG ,
 001990 6BE2E8E2C1C6C67E            7320                             =C',SYSAFF='
 001998 4040404040404040            7321                             =CL8' '
 0019A0 616140C5E7C5C340            7322                             =C'// EXEC '
 0019A8 6BE3C9D4C57EF4F0            7323                             =C',TIME=40,CLASS=B'
 0019B8 00000000                    7324                             =V(VSEG)
 0019BC D5E4D3D3                    7325                             =C'NULL'
 0019C0 C4E4D4D7                    7326                             =C'DUMP'
 0019C4 6BC9D5D7E4E37EC3            7327                             =C',INPUT=CATLG'
 0019D0 6161                        7328                             =C'//'
 0019D2 615CD1D6C2D7C1D9            7329                             =C'/*JOBPARM BIN='
 0019E0 615CD1D6C2D7C1D9            7330                             =C'/*JOBPARM LINES=50'
 0019F2 615CE2C5E3E4D740            7331                             =C'/*SETUP T='
 0019FC 6BD6E4E3D7E4E37E            7332                             =C',OUTPUT=SCRTCH'
 001A0A 615CE2C5E3E4D740            7333                             =C'/*SETUP T3480='
 001A18 615CD1D6C2D7C1D9            7334                             =C'/*JOBPARM '
 001A22 6BC6E4D5C37E                7335                             =C',FUNC='
 001A28 E5C5D9C9C6E8                7336                             =C'VERIFY'
 001A2E 40D5C8D6D3C44060            7337                             =C' NHOLD -1'''
 001A38 40D1D6C240                  7338                             =C' JOB '
 001A3D 6BE3C9D4C57EF4F0            7339                             =C',TIME=40,CLASS='
 001A4C 615CE2C5E3E4D740            7340                             =C'/*SETUP T3490E='
 001A5B 615CE2C5E3E4D740            7341                             =C'/*SETUP "Waiting for operator manual release"'
 001A88 615CD1D6C2D7C1D9            7342                             =C'/*JOBPARM HOLD=OUTPUT'
 001A9D 40D6D9E5E8D37E              7343                             =C' ORVYL='
 001AA4 C9D5C3                      7344                             =C'INC'
 001AA7 6BD6D9E5E8D37E              7345                             =C',ORVYL='
 001AAE D6D9E5E8D3                  7346                             =C'ORVYL'
 001AB3 6BC6E2D57E                  7347                             =C',FSN='
 001AB8 616140C5E7C5C340            7348                             =C'// EXEC PGM=HCMD,COND=(4,LT),PARM=''ALTER '
 001AE1 615CC5D6C6                  7349                             =C'/*EOF'
 001AE6 615CD1D6C2D7C1D9            7350                             =C'/*JOBPARM NHOLD=1'
-001B00                01B00 01B00  7355    1073.              END   .

1VFD      (VFD03) (09:46) (22MAR04) Ordinary Symbol and Literal Cross Reference                                             Page   46
-Symbol   Length   Value     Id    R Type   Defn References                                  HLASM R4.0  2004/03/22 09.46
0$$$@R2        1 00000000 FFFFFFFC     J     732 1002
 $$$@R3        1 00000000 FFFFFFFB     J     745 1015
 $$$@R4        1 00000000 FFFFFFFA     J     758 1028
 $$$@R5        1 00000000 FFFFFFF9     J     771 1041
 $$$@R6        1 00000000 FFFFFFF8     J     784 1054
 $$$@R7        1 00000000 FFFFFFF7     J     797 1067
 $$$@R8        1 00000000 FFFFFFF6     J     810 1080
 $$$@R9        1 00000000 FFFFFFF5     J     823 1093
 $$$C1VFD      1 00001442 00000001     J    5614 5616  7256
 $$$C2VFD      1 00001AFE 00000001     J    7351 7353
 $$$C3VFD      1 00001B00 00000001     J    7358 7360
 $$$D0VFD      1 000006D4 00000001     J    1103 2321  4010  4558  5214
 $$$D1VFD      1 00001AF7 00000001     J    5615 7245
 $$$RCOM       1 00000000 FFFFFFEE     J    1108 1150  1150
 $$$RJOBFLGS
               1 00000000 FFFFFFE9     J    2047 2078  2078
 $$$ROPTS      1 00000000 FFFFFFE8     J    2220 2315  2315
 $$$RTIOT      1 00000000 FFFFFFEB     J    1293 1538  1538
 $$$0F         2 0000006E 00000001     H    3822 3792B 3812B
 $$$10S        2 00000122 00000001     H    4064 4181B
 $$$12F        2 00000166 00000001     H    4163 4115B
 $$$15F        2 000001F8 00000001     H    4298 4233B
 $$$17F        2 0000024E 00000001     H    4361 4331B
 $$$19S        2 00000252 00000001     H    4381 4422B
 $$$2F         2 000000C8 00000001     H    3899 3876B
 $$$20F        2 00000264 00000001     H    4406 4394B
 $$$23F        2 000003B4 00000001     H    4588 4547B
 $$$24         6 00001436 00000001     I    4564 4556X
 $$$25         6 00001436 00000001     I    4563 4564  4564
 $$$27F        2 000003E6 00000001     H    4665 4641B
 $$$27S        2 000003D2 00000001     H    4630 4662B
 $$$4S         2 000000DA 00000001     H    3929 4044B
 $$$40         6 0000143C 00000001     I    5220 5212X
 $$$41         6 0000143C 00000001     I    5219 5220  5220
 $$$54B        1 0000144E 00000001     X    5632 5639U
 $$$55F        2 000017C4 00000001     H    6750 5658B
 $$$56B        4 00001468 00000001     I    5682 5696
 $$$56F        2 00001470 00000001     H    5692 5682B 5695
 $$$57B        4 00001478 00000001     I    5712 5726
 $$$57E        2 00001474 00000001     H    5703 5697
 $$$57F        2 00001480 00000001     H    5722 5699B 5712B 5725
 $$$59E        2 00001484 00000001     H    5733 5727
 $$$59F        2 00001490 00000001     H    5752 5729B 5742B
 $$$6F         2 00000118 00000001     H    4040 3998B
 $$$61B        4 00001494 00000001     I    5772 5786
 $$$61F        2 0000149C 00000001     H    5782 5772B 5785
 $$$62B        4 000014A4 00000001     I    5802 5816
 $$$62E        2 000014A0 00000001     H    5793 5787
 $$$62F        2 000014AC 00000001     H    5812 5789B 5802B 5815
 $$$64E        2 000014B0 00000001     H    5823 5817
 $$$64F        2 000014BC 00000001     H    5842 5819B 5832B
 $$$66F        2 00001544 00000001     H    5986 5976B
 $$$67F        2 00001550 00000001     H    6007 5997B
 $$$68F        2 0000155C 00000001     H    6028 6018B
 $$$69F        2 00001592 00000001     H    6085 6036B
1VFD      (VFD03) (09:46) (22MAR04) Ordinary Symbol and Literal Cross Reference                                             Page   47
 $$$7          6 00001430 00000001     I    4016 4008X
 $$$70F        2 000015E2 00000001     H    6186 6093B
 $$$71B        4 0000159E 00000001     I    6109 6129
 $$$71F        2 000015B0 00000001     H    6126 6109B 6128
 $$$72E        2 000015B4 00000001     H    6136 6130
 $$$72F        2 000015C2 00000001     H    6150 6132B
 $$$73F        2 000015FC 00000001     H    6216 6197B
 $$$74F        2 00001630 00000001     H    6276 6238B
 $$$75F        2 00001670 00000001     H    6333 6286B
 $$$76F        2 0000168A 00000001     H    6363 6353B
 $$$77F        2 00001696 00000001     H    6384 6374B
 $$$78F        2 000016A2 00000001     H    6405 6395B
 $$$79F        2 00001764 00000001     H    6635 6434B
 $$$8          6 00001430 00000001     I    4015 4016  4016
 $$$80F        2 000016DC 00000001     H    6476 6458B
 $$$81F        2 000016F2 00000001     H    6505 6487B
 $$$82F        2 00001708 00000001     H    6534 6516B
 $$$83B        4 0000171C 00000001     I    6551 6572
 $$$83F        2 0000172E 00000001     H    6569 6551B 6571
 $$$84E        2 00001732 00000001     H    6579 6573
 $$$84F        2 00001744 00000001     H    6603 6575B
 $$$85F        2 000017B2 00000001     H    6728 6650B 6662B
 $$$87F        2 000017B2 00000001     H    6724 6677B
 $$$88F        2 00001940 00000001     H    7152 6761B
 $$$89F        2 00001870 00000001     H    6928 6879B
 $$$90F        2 000018C0 00000001     H    7034 6941B
 $$$91B        4 0000187C 00000001     I    6957 6977
 $$$91F        2 0000188E 00000001     H    6974 6957B 6976
 $$$92E        2 00001892 00000001     H    6984 6978
 $$$92F        2 000018A0 00000001     H    6998 6980B
 $$$93F        2 000018F4 00000001     H    7094 7056B
 $$$94B        1 00001956 00000001     X    7176 7186U
 $$$95F        2 00001988 00000001     H    7261 7195B 7210B
 $$$97F        2 00001970 00000001     H    7233 7223B
 $$$98         6 00001AF8 00000001     I    7251 7243X
 $$$99         6 00001AF8 00000001     I    7250 7251  7251
 @QR           0 00000000 FFFFFFFA     @    1029 7250M
 @R0           0 00000000 FFFFFFFE     @     707  983U
 @R1           0 00000000 FFFFFFFD     @     720  979U 4015  5165  5219  5287  5445  5460  5483  7250
 @R10          0 00000000 FFFFFFF4     @     837  943U
 @R11          0 00000000 FFFFFFF3     @     850  939U 7284U
 @R12          0 00000000 FFFFFFF2     @     863  935U
 @R13          0 00000000 FFFFFFF1     @     876  931U 3717M
 @R14          0 00000000 FFFFFFF0     @     889  927U
 @R15          0 00000000 FFFFFFEF     @     902  923U
 @R2           0 00000000 FFFFFFFC     @     733  975U 3828U 3906U 4356U
 @R3           0 00000000 FFFFFFFB     @     746  971U 3835U
 @R4           0 00000000 FFFFFFFA     @     759  967U 6745U
 @R5           0 00000000 FFFFFFF9     @     772  963U 7305U
 @R6           0 00000000 FFFFFFF8     @     785  959U 7300U
 @R7           0 00000000 FFFFFFF7     @     798  955U 7183U 7295U
 @R8           0 00000000 FFFFFFF6     @     811  951U
 @R9           0 00000000 FFFFFFF5     @     824  947U
 @SR           0 00000000 FFFFFFFC     @    1003 4221  4222  4223  4383  4407  4408  4632  6029  6059  6086  6160
 @TR           0 00000000 FFFFFFFB     @    1016 3773
 AFF           4 00000008 FFFFFFE8     C    2263 5287M 6237  6261  7055  7079
 BIN           3 0000000C FFFFFFE8     C    2264 5941  6853
 BIXDATA       4 00000C98 00000001     A    2909 3484  4817
 BIXSET        2 0000044A 00000001     H    4816 3529  3531
1VFD      (VFD03) (09:46) (22MAR04) Ordinary Symbol and Literal Cross Reference                                             Page   48
 BKSDATA       4 00000E98 00000001     A    3134 3488  4802
 BKSSET        2 00000440 00000001     H    4801 3524  3526
 BRR           6 00000006 FFFFFFFF A   #    1048 3718M 3726U 3736
 BR1DATA       4 00000D18 00000001     A    2965 3485  4832
 BR1SET        2 00000454 00000001     H    4831 3534  3536
 BR2DATA       4 00000D98 00000001     A    3021 3486  4847
 BR2SET        2 0000045E 00000001     H    4846 3539  3541
 BR3DATA       4 00000E18 00000001     A    3077 3487  4862
 BR3SET        2 00000468 00000001     H    4861 3544  3546
 BUFFER       80 0000079B 00000001     C    2333 3934  3945  3952  4123  4134  4141  4535M 4536  4536M 4536  4563M 4581
 CIB           1 00000000 FFFFFFED     J    1154 3781U
 CIBCONID      1 0000000C FFFFFFED     C    1240 3818
 CIBSTART      1 00000004 FFFFFFED A   U    1230 3809
 CIBVERB       1 00000004 FFFFFFED     C    1229 3809
 CIBVRSN       1 00000003 FFFFFFED A   U    1245 1241
 CIBX          1 00000000 FFFFFFEC     J    1258 1283
 CIBXEND       1 00000030 FFFFFFEC     U    1282 1283
 CIB15497      1 00000003 FFFFFFED A   U    1244 1245
 CITDATA       4 00001118 00000001     A    3414 3493  4937
 CITSET        2 0000049A 00000001     H    4936 3565
 CLASS         1 00000001 FFFFFFE8     C    2261 5165M 5909
 CLWTEMP       8 000006D8 00000001     D    2325 3920  4015  5460M 5461  5483M 5484
 CMDEOF        2 00000338 00000001     H    4509 3670
 CMDFERR       2 000002F8 00000001     H    4491 3986B 4099B
 CMDFILE       4 000013D0 00000001     F    3658 3848  3850  3933  4122  4192  4196
 COM          12 00000000 FFFFFFEE     J    1150 3770U
 COMCIBPT      4 00000004 FFFFFFEE     A    1137 3772
 COMMADDR      4 0000070C 00000001     A    2329 3756  3762
 CONT        128 00000814 00000001         2359 4059M 4114  4159M 4957M
 CONTSCN       2 0000011C 00000001     H    4048 4031B
 DAY           1 00000000 00000002     T    5602 5602
 DCBBIT0       1 00000080 FFFFFFEA A   U    1556 1575  1591  1619  1627  1641  1663  1705  1707  1708  1710  1730  1733
                                                 1755  1759  1774  1811  1867  1887  1925  1929  1948
 DCBBIT1       1 00000040 FFFFFFEA A   U    1557 1576  1592  1620  1628  1643  1672  1673  1682  1688  1705  1707  1709
                                                 1710  1735  1755  1757  1759  1777  1778  1779  1814  1815  1867  1889
                                                 1931  1933  1951  1996
 DCBBIT2       1 00000020 FFFFFFEA A   U    1558 1577  1593  1621  1629  1644  1645  1646  1672  1673  1677  1683  1688
                                                 1705  1706  1711  1737  1760  1761  1782  1783  1784  1818  1819  1868
                                                 1894  1934  1956  1999  2002
 DCBBIT3       1 00000010 FFFFFFEA A   U    1559 1578  1594  1622  1644  1646  1647  1672  1685  1712  1740  1760  1763
                                                 1786  1787  1788  1822  1823  1868  1896  1898  1900  1936  1957  1999
                                                 2003
 DCBBIT4       1 00000008 FFFFFFEA A   U    1560 1595  1630  1686  1687  1688  1713  1741  1765  1770  1771  1791  1792
                                                 1826  1827  1829  1830  1869  1903  1938  1958  1999  2004
 DCBBIT5       1 00000004 FFFFFFEA A   U    1561 1596  1631  1693  1716  1717  1743  1765  1767  1768  1771  1795  1797
                                                 1798  1799  1833  1834  1835  1836  1869  1905  1908  1941  1960  1994
 DCBBIT6       1 00000002 FFFFFFEA A   U    1562 1579  1597  1623  1695  1696  1699  1716  1718  1744  1802  1803  1804
                                                 1805  1839  1840  1841  1842  1870  1911  1943  1962  2005
 DCBBIT7       1 00000001 FFFFFFEA A   U    1563 1580  1624  1695  1697  1699  1720  1749  1807  1808  1845  1846  1848
                                                 1849  1914  1944  1945  1963  2007
 DCBOFIOF      1 00000001 FFFFFFEA A   U    1749 1751
 DCBOFLGS      1 00000030 FFFFFFEA     B    1729 3875  4330
 DCBOFOPN      1 00000010 FFFFFFEA A   U    1740 3873  4328
 DCBOFUEX      1 00000002 FFFFFFEA A   U    1744 1748
 DELAY         8 00000000 FFFFFFE8         2252 5513M
 DEVDATA       4 00000F18 00000001     A    3190 3489  4877
 DEVSET        2 00000472 00000001     H    4876 3549
 DFLG          1 00000066 FFFFFFE8     R    2297 5688
 DJ            8 0000005A FFFFFFE8     C    2292 5778
1VFD      (VFD03) (09:46) (22MAR04) Ordinary Symbol and Literal Cross Reference                                             Page   49
 DJ2           1 00000064 FFFFFFE8     C    2294 5982
 DMP         128 00000000 FFFFFFE8         2232 4996M 5654  5654  5655  5655  5657  5681  5771  5975  6352  6457  6649
 DOIT         16 00000000 FFFFFFE8         2247 4393  4685M 4700M 4716M 4731M 4746M 4761M 4776M 4792M 4808M 4823M 4838M
                                                 4853M 4868M 4883M 4898M 4913M 4928M 4943M 5002M 5040M 5104M 5320M
 DPRC          8 00000052 FFFFFFE8     C    2291 6359
 EOREC        64 00000814 00000001         2364 4071M 4178  4964M
 FB            1 00000000 FFFFFFE8     R    2228 2232  2237  2242  2247  2252  2257
 FISDATA       4 00000898 00000001     A    2438 3476  4694
 FISSET        2 000003FA 00000001     H    4693 3511
 FOLDATA       4 00000918 00000001     A    2496 3477  4710
 FOLSET        2 00000404 00000001     H    4709 3513  3515
 FUNCVECT      4 00001198 00000001     A    3474 4376
 GENDATA       4 00000A98 00000001     A    2670 3480  4740
 GENSET        2 00000418 00000001     H    4739 3519
 GOOFBALL      1 00000814 00000001     R    2355 2359  2364  2369
 HIBAL         1 00000000 FFFFFFFF     J     692  708   721   734   747   760   773   786   799   812   825   838   851
                                                  864   877   890   903  1004  1017  1030  1043  1056  1069  1082  1095
 IDXDATA       4 00001098 00000001     A    3358 3492  4922
 IDXSET        2 00000490 00000001     H    4921 3561  3563
 IFLG          1 0000003A FFFFFFE8     R    2277 5748
 IHADCB        1 00000000 FFFFFFEA     J    1546 1571  1601  1651  1726  1853  1858  1873  1882  1982  1985  1990  2015
                                                 2033  2034  3860U 4318U
 IHB0514A      2 000000BE 00000001     H    3892 3888B
 IHB0710       2 000001C8 00000001     H    4219 4198B 4205B
 IHB0790A      2 00000244 00000001     H    4347 4343B
 IHB0840       2 000002C8 00000001     H    4460 4439B 4446B
 IHB0852A      2 0000032E 00000001     H    4503 4499B
 IHB0856A      2 00000372 00000001     H    4521 4517B
 IHB1551A      2 000005E6 00000001     H    5540 5536B
 IHB1555A      2 00000622 00000001     H    5557 5553B
 IHB1559A      2 0000065E 00000001     H    5574 5570B
 IHB1563A      2 00000698 00000001     H    5591 5587B
 IJ            8 0000002E FFFFFFE8     C    2272 5838
 IJ2           1 00000038 FFFFFFE8     C    2274 6024
 INC          32 00000000 FFFFFFE8         2242 5098M 5655  5655  5656  5656  5741  5831  6017  6394  6515
 INTDATA       4 00000B18 00000001     A    2728 3481  4755
 INTRDR        4 00001370 00000001     F    3615 4308  4310  4433  4437  4580
 INTSET        2 00000422 00000001     H    4754 3521
 IPRC          8 00000026 FFFFFFE8     C    2271 6401
 JOBFLG        1 00000000 FFFFFFE9     R    2055 2059  2064  2069
 JOBFLGS       1 00000000 FFFFFFE9     J    2078 5760U
 JOBHOLD     128 00000000 FFFFFFE9         2059 6196
 MCSID         1 000007F0 00000001     X    2335 3818M 3885  4340  4496  4514  5533  5550  5567  5584
 NAME          8 00000010 FFFFFFE8     C    2266 6613
 NBKDATA       4 00000F98 00000001     A    3246 3490  4892
 NBKSET        2 0000047C 00000001     H    4891 3552  3554  3556
 NEWPROC      64 00000000 FFFFFFE9         2064 6433  6661
 NSIDATA       4 00000818 00000001     A    2380 3475  4679
 NSISET        2 000003F0 00000001     H    4678 3505
 OODDATA       4 00000B98 00000001     A    2786 3482  4770
 OODSET        2 0000042C 00000001     H    4769 3509
 OPTS        126 00000000 FFFFFFE8     J    2315 4374U
 ORVN          8 00000018 FFFFFFE8     C    2267 5206M 5219M 6279  6309  6544  6581
 PARMKWRT      2 000011E4 00000001     H    3503 4079  4271
 PARMPNTR      4 00000708 00000001     A    2328 3738M 4220
 QR            4 00000004 FFFFFFFF A   #    1022 5688M 5718M 5748M 5760U 7234M 7235M
 RACC          6 00000020 FFFFFFE8     C    2268 5879  6812
 RAR           9 00000009 FFFFFFFF A   #    1087 4401M 4402M 4402B 4592B 4614B 4671B 5670M 5671M 5671B 5845M 5859M 5860M
                                                 5860B 5868M 5869M 5869B 5889M 5890M 5890B 5898M 5899M 5899B 5919M 5920M
1VFD      (VFD03) (09:46) (22MAR04) Ordinary Symbol and Literal Cross Reference                                             Page   50
                                                 5920B 5922M 5930M 5931M 5931B 5951M 5952M 5952B 5954M 5962M 5963M 5963B
                                                 5965M 6048M 6049M 6049B 6069M 6070M 6070B 6078M 6079M 6079B 6081M 6121M
                                                 6122M 6122B 6145M 6146M 6146B 6170M 6171M 6171B 6179M 6180M 6180B 6182M
                                                 6209M 6210M 6210B 6212M 6224M 6225M 6225B 6250M 6251M 6251B 6271M 6272M
                                                 6272B 6278M 6298M 6299M 6299B 6307M 6308M 6308B 6312M 6326M 6327M 6327B
                                                 6329M 6341M 6342M 6342B 6408M 6422M 6423M 6423B 6446M 6447M 6447B 6471M
                                                 6472M 6472B 6500M 6501M 6501B 6529M 6530M 6530B 6542M 6543M 6543B 6564M
                                                 6565M 6565B 6584M 6598M 6599M 6599B 6611M 6612M 6612B 6616M 6630M 6631M
                                                 6631B 6637M 6689M 6690M 6690B 6694M 6708M 6709M 6709B 6717M 6718M 6718B
                                                 6720M 6736M 6737M 6737B 6739M 6773M 6774M 6774B 6778M 6792M 6793M 6793B
                                                 6801M 6802M 6802B 6822M 6823M 6823B 6831M 6832M 6832B 6834M 6842M 6843M
                                                 6843B 6863M 6864M 6864B 6866M 6891M 6892M 6892B 6912M 6913M 6913B 6921M
                                                 6922M 6922B 6924M 6969M 6970M 6970B 6993M 6994M 6994B 7018M 7019M 7019B
                                                 7027M 7028M 7028B 7030M 7042M 7043M 7043B 7068M 7069M 7069B 7089M 7090M
                                                 7090B 7096M 7104M 7105M 7105B 7107M 7115M 7116M 7116B 7120M 7134M 7135M
                                                 7135B 7137M 7145M 7146M 7146B 7148M
 RDBCK         4 00000000 FFFFFFE8         2257 5352M 5385M 6676  6760
 RJ            8 00000070 FFFFFFE8     C    2302 6691  6775
 RJ2           1 0000007A FFFFFFE8     C    2304 6878  6902
 RJ8           1 0000007B FFFFFFE8     C    2305 6940  7008
 RP            8 00000068 FFFFFFE8     C    2301 7117
 RR            5 00000005 FFFFFFFF A   #    1035 4052M 4052  4241M 4241  4374U 4383M 4679M 4694M 4710M 4725M 4740M 4755M
                                                 4770M 4786M 4802M 4817M 4832M 4847M 4862M 4877M 4892M 4907M 4922M 4937M
                                                 4982M 4982  5019M 5019  5057M 5057  5083M 5083  5156M 5156  5197M 5197
                                                 5278M 5278  5305M 5305  5338M 5338  5370M 5370  5416M 5416
 RTEDATA       4 00000998 00000001     A    2554 3478  4725
 RTESET        2 0000040E 00000001     H    4724 3517
 RTRIM         2 000003BE 00000001     H    4602 5845B 6312B 6408B 6584B 6616B 6694B 6778B 7120B
 R0            0 00000000 FFFFFFFF A   #     700 3885M 3919M 4003  4222M 4232M 4232  4340M 4496M 4514M 4533  4534  4534
                                                 4534  4591M 4611M 4611  4624  4648M 5139  5207  5261  5436  5533M 5550M
                                                 5567M 5584M 5612  5612  5612  5624  5626  5626  5626  5843M 6310M 6406M
                                                 6582M 6614M 6692M 6776M 7118M 7156M 7168  7170  7170  7170  7188  7265M
 R1            1 00000001 FFFFFFFF A   #     713 3738  3747  3919  3920M 4223M 4623  5778M 5808M 5838M 6309M 6359M 6380M
                                                 6401M 6581M 6613M 6691M 6775M 7117M
 R11          11 0000000B FFFFFFFF A   #     843 3734U 3736M 3737M 3737
 R12          12 0000000C FFFFFFFF A   #     856 3717
 R13          13 0000000D FFFFFFFF A   #     869 3739  3747M 4479M
 R14          14 0000000E FFFFFFFF A   #     882 3717
 R15          15 0000000F FFFFFFFF A   #     895 3718  3894M 4349M 4464M 4464  4487M 4505M 4523M 4533  4534  4534  4534
                                                 4591M 5612  5612  5612  5624  5626  5626  5626  7156M 7168  7170  7170
                                                 7170  7265M
 SCAN          1 00000000 00000004     T    5604 5604
 SCINIT        1 00000000 00000003     T    5603 5603
 SDCDATA       4 00000C18 00000001     A    2844 3483  4786
 SDCSET        2 00000436 00000001     H    4785 3507
 SEGBUF      133 00000716 00000001     C    2332 4563  7200  7234
 SEGLEN        2 00000714 00000001     H    2331 4537  4577M 4577  7201  7235  7237  7238M
 SETAFF        2 0000051E 00000001     H    5235 3592
 SETCLS        2 000004EA 00000001     H    5113 3574
 SETCONT       2 000004A4 00000001     H    4951 3605
 SETDMP        2 000004AE 00000001     H    4973 3576
 SETINC        2 000004DA 00000001     H    5074 3578
 SETINVP       2 000005EC 00000001     H    5545 3607  5402B 5439B 5454B 5476B 5499B
 SETLENE       2 00000664 00000001     H    5579 5142B 5264B
 SETNONE       2 00000538 00000001     H    5296 3580
 SETNRD        2 00000550 00000001     H    5361 3588  3590
 SETORV        2 00000504 00000001     H    5174 3582
 SETPMISS      2 00000628 00000001     H    5562 5122B 5183B 5244B
 SETRDBCK      2 00000544 00000001     H    5329 3584  3586
1VFD      (VFD03) (09:46) (22MAR04) Ordinary Symbol and Literal Cross Reference                                             Page   51
 SETTIME       2 0000055C 00000001     H    5393 3597
 SETT90        2 000004CE 00000001     H    5048 3603
 SETVRFY       2 000004BE 00000001     H    5010 3599  3601
 SOCDATA       4 00000A18 00000001     A    2612 3479
 SR            2 00000002 FFFFFFFF A   #     996 3762M 3770U 3850M 3860U 4003M 4006M 4008  4220M 4221M 4310M 4318U 4376M
                                                 4408M 4537M 4546M 4546  4554M 4556  4621  4623M 4624M 4625M 4647M 4670M
                                                 5207M 5210M 5212  5482M 5484M 5496  5505  5506M 5982M 6003M 6024M 7200M
                                                 7201M 7216M 7229  7236M 7237M 7238
 START         4 00000014 00000001     I    3717 3716  3726U 3734U
 SUBMIT        4 00001442 00000001     I    5624 5605
 SYSNSET       2 000005AE 00000001     H    5528 4985B 5022B 5060B 5086B 5159B 5200B 5281B 5308B 5341B 5373B 5419B
 SYSRET        4 000002D0 00000001     I    4474 3895B 4350B 4465B 4488B 4506B 4524B
 SYSRET4       2 000002F0 00000001     H    4486 4289B 5542B 5559B 5576B 5593B
 TIME          4 00000004 FFFFFFE8     A    2262 5507M
 TR            3 00000003 FFFFFFFF A   #    1009 3772M 3773M 3781U 3791M 3791  5461M 5473  5505M 5507  7188M 7216  7229M
                                                 7236  7241M 7243
 T90           1 0000000F FFFFFFE8     X    2265 5066M 6108  6956
 USRDATA       4 00001018 00000001     A    3302 3491  4907
 USRSET        2 00000486 00000001     H    4906 3559
 VFD           1 00000000 00000001     J    1102 1104  1151  1287  1539  2037  2079  2316  3700  3704  4021  4569  5225
 VFDCB         4 000007F4 00000001     F    2339 2350  3959  4086  4148  4259
 VFD03         1 00000000 00000001     R    3712 3710
 VFLG          1 00000050 FFFFFFE8     R    2287 5718
 VJ            8 00000044 FFFFFFE8     C    2282 5808
 VJ2           1 0000004E FFFFFFE8     C    2284 6003
 VPRC          8 0000003C FFFFFFE8     C    2281 6380
 VRFY         64 00000000 FFFFFFE8         2237 5034M 5654  5654  5656  5656  5711  5801  5996  6373  6486
 VSAREA        4 00000704 00000001     A    2327 3739M 4479
 VSEG          4 0000194A 00000001     I    7168 7166
 VSEG          1 00000000 00000005     T    7324 7324
 WRITE         2 0000037C 00000001     H    4531 5922B 5954B 5965B 6081B 6182B 6212B 6278B 6329B 6637B 6720B 6739B 6834B
                                                 6866B 6924B 7030B 7096B 7107B 7137B 7148B
 =A(SUBMIT)
               4 000006B4 00000001     A    5605 4401
 =A(1)         4 000006B8 00000001     A    5606 4625  4647  4648  5139
 =A(23)        4 000006C4 00000001     A    5609 5473
 =A(4)         4 000006BC 00000001     A    5607 5261
 =A(5)         4 000006C0 00000001     A    5608 5436
 =A(59)        4 000006CC 00000001     A    5611 5496
 =A(60)        4 000006C8 00000001     A    5610 5482  5506
 =C' JOB '
               5 00001A38 00000001     C    7338 5864  6797
 =C' NHOLD -1'''
              10 00001A2E 00000001     C    7337 6713
 =C' ORVYL='
               7 00001A9D 00000001     C    7343 6303
 =C'/*EOF'
               5 00001AE1 00000001     C    7349 6732  7141
 =C'/*JOBPARM '
              10 00001A18 00000001     C    7334 6294
 =C'/*JOBPARM BIN='
              14 000019D2 00000001     C    7329 5926  6838
 =C'/*JOBPARM HOLD=OUTPUT'
              21 00001A88 00000001     C    7342 6220  7038
 =C'/*JOBPARM LINES=50'
              18 000019E0 00000001     C    7330 5958
 =C'/*JOBPARM NHOLD=1'
              17 00001AE6 00000001     C    7350 7100
 =C'/*SETUP "Waiting for operator manual release"'
1VFD      (VFD03) (09:46) (22MAR04) Ordinary Symbol and Literal Cross Reference                                             Page   52
              45 00001A5B 00000001     C    7341 6205
 =C'/*SETUP T='
              10 000019F2 00000001     C    7331 6044  6887
 =C'/*SETUP T3480='
              14 00001A0A 00000001     C    7333 6117  6965
 =C'/*SETUP T3490E='
              15 00001A4C 00000001     C    7340 6141  6989
 =C'// EXEC '
               8 000019A0 00000001     C    7322 6337  7111
 =C'// EXEC PGM=HCMD,COND=(4,LT),PARM=''ALTER '
              41 00001AB8 00000001     C    7348 6685
 =C'//'        2 000019D0 00000001     C    7328 5666  6769
 =C',FSN='
               5 00001AB3 00000001     C    7347 6607
 =C',FUNC='
               6 00001A22 00000001     C    7335 6442
 =C',INPUT=CATLG'
              12 000019C4 00000001     C    7327 6917  7023
 =C',ORVYL='
               7 00001AA7 00000001     C    7345 6538
 =C',OUTPUT=SCRTCH'
              14 000019FC 00000001     C    7332 6074  6175
 =C',SYSAFF='
               8 00001990 00000001     C    7320 6246  7064
 =C',TIME=40,CLASS='
              15 00001A3D 00000001     C    7339 5894
 =C',TIME=40,CLASS=B'
              16 000019A8 00000001     C    7323 6827
 =C'DUMP'      4 000019C0 00000001     C    7326 6467
 =C'INC'       3 00001AA4 00000001     C    7344 6525
 =C'NULL'      4 000019BC 00000001     C    7325 6237  7055
 =C'ORVYL'
               5 00001AAE 00000001     C    7346 6560
 =C'VERIFY'
               6 00001A28 00000001     C    7336 6496
 =CL8' '       8 000006A0 00000001     C    5601 5206
 =CL8' '       8 00001998 00000001     C    7321 6279  6544
 =V(DAY)       4 000006A8 00000001     V    5602 3923
 =V(SCAN)      4 000006B0 00000001     V    5604 3976  4089  4279
 =V(SCINIT)
               4 000006AC 00000001     V    5603 3962  4151  4262
 =V(VSEG)      4 000019B8 00000001     V    7324 5670  5859  5868  5889  5898  5919  5930  5951  5962  6048  6069  6078
                                                 6121  6145  6170  6179  6209  6224  6250  6271  6298  6307  6326  6341
                                                 6422  6446  6471  6500  6529  6542  6564  6598  6611  6630  6689  6708
                                                 6717  6736  6773  6792  6801  6822  6831  6842  6863  6891  6912  6921
                                                 6969  6993  7018  7027  7042  7068  7089  7104  7115  7134  7145
 =Y((R15+1-(R0)+16*((R0)/(R15+1))/((R0)/(R15+1)))*4)
               2 000006D0 00000001     Y    5612 4590
 =Y(4)         2 000006D2 00000001     Y    5613 4669

1VFD      (VFD03) (09:46) (22MAR04) Macro and Copy Code Source Summary                                                      Page   53
- Con Source                                        Volume    Members                        HLASM R4.0  2004/03/22 09.46
0     PRIMARY INPUT                                           CSECT    DMP      DROP     END      EX       LTORG    POP
                                                              PRINT    PUSH     SETJOBF  START    USING
   L2 WYL.GG.SYS.MACLIB                             SYSB05    $BC      $BFLKUP  $BV      $CCLKUP  $CRS     $CSS     $L
                                                              $LA      $LBLAD   $LEXP    $LOR     $REL     $RGLKUP
                                                              $USLKUP  ACALL    BASE     BEGIN    CLEAR    CSECT    DATA
                                                              DEFCC    DEX      DROP     ELSE     ELSEIF   END      EX
                                                              FLAG     GEN      HIBAL    IDENT    IF       LABEL    LC
                                                              LCALL    LOOP     LS       LTORG    POP      PRINT    PUSH
                                                              RECORD   REG      REGS     SET      START    SYSLR
                                                              SYSQS    UNTIL    USING    VCALL    WHILE    WITH
   L3 WYL.GG.ORV.BC.MACLIB                          SYSB02    SCAN     SCANCB   SCINIT   SCKW     SCRTN    VENTER
                                                              VEXIT    VPOP     VPUSH    VREST    VSAVE    VSEG
                                                              XCALL
   L4 SYS1.MACLIB                                   MVSBR9    CLOSE    DCB      DCBD     EXTRACT  FREEMAIN FREEPOOL GET
                                                              GETMAIN  IEFTIOT1 IEZCIB   IEZCOM   IHBINNRA IHB01    OPEN
                                                              PUT      RETURN   SYSSTATE TIME     WTO

1         (VFD03) (09:46) (22MAR04) General Purpose Register Cross Reference                                                Page   54
- Register  References (M=modified, B=branch, U=USING, D=DROP, N=index)                      HLASM R4.0  2004/03/22 09.46
0    0(0)     983U  984D 3717  3745M 3884M 3884  3885M 3919M 3934M 3952M 4003  4123M 4141M 4211M 4216M 4222M 4232M 4232
             4339M 4339  4340M 4452M 4457M 4476M 4482M 4495M 4495  4496M 4513M 4513  4514M 4533  4581M 4591M 4611M 4611
             4624  4648M 5139  5207  5261  5436  5532M 5532  5533M 5549M 5549  5550M 5566M 5566  5567M 5583M 5583  5584M
             5624  5667M 5843M 5865M 5886M 5895M 5916M 5927M 5948M 5959M 6045M 6066M 6075M 6118M 6142M 6167M 6176M 6206M
             6221M 6247M 6268M 6295M 6304M 6310M 6338M 6406M 6443M 6468M 6497M 6526M 6539M 6561M 6582M 6608M 6614M 6686M
             6692M 6714M 6733M 6770M 6776M 6798M 6819M 6828M 6839M 6860M 6888M 6909M 6918M 6966M 6990M 7015M 7024M 7039M
             7065M 7086M 7101M 7112M 7118M 7142M 7156M 7168  7188  7265M
     1(1)     979U 3717  3738  3743M 3745  3747  3755M 3846M 3888M 3917M 3919  3920M 3933M 3936  3945M 3968M 3968  4079M
             4122M 4125  4134M 4190M 4196M 4197  4200  4206  4208M 4208  4209M 4211M 4212M 4212  4215M 4215  4216  4217M
             4223M 4271M 4306M 4343M 4431M 4437M 4438  4441  4447  4449M 4449  4450M 4452M 4453M 4453  4456M 4456  4457
             4458M 4477M 4482M 4499M 4517M 4533  4580M 4583  4591M 4623  5536M 5553M 5570M 5587M 5624  5666M 5778M 5808M
             5838M 5864M 5879M 5894M 5909M 5926M 5941M 5958M 6044M 6059M 6074M 6117M 6141M 6160M 6175M 6205M 6220M 6246M
             6261M 6294M 6303M 6309M 6337M 6359M 6380M 6401M 6442M 6467M 6496M 6525M 6538M 6560M 6581M 6607M 6613M 6685M
             6691M 6713M 6732M 6769M 6775M 6797M 6812M 6827M 6838M 6853M 6887M 6902M 6917M 6965M 6989M 7008M 7023M 7038M
             7064M 7079M 7100M 7111M 7117M 7141M 7156M 7168  7265M
     2(2)     975U 3717  3762M 3770U 3828U 3850M 3860U 3906U 4003M 4006M 4008  4220M 4221M 4310M 4318U 4356U 4376M 4408M
             4482M 4533  4537M 4546M 4546  4554M 4556  4591M 4621  4623M 4624M 4625M 4647M 4670M 5207M 5210M 5212  5482M
             5484M 5496  5505  5506M 5624  5982M 6003M 6024M 7156M 7168  7200M 7201M 7216M 7229  7236M 7237M 7238  7265M
     3(3)     971U 3717  3772M 3773M 3781U 3791M 3791  3835U 4482M 4533  4591M 5461M 5473  5482M 5505M 5506M 5507  5624
             7156M 7168  7188M 7216  7229M 7236  7241M 7243  7265M
     4(4)     967U 3717  4482M 4533  4591M 5624  5688M 5718M 5748M 5760U 6745U 7156M 7168  7234M 7235M 7265M
     5(5)     963U 3717  4052M 4052  4241M 4241  4374U 4383M 4482M 4533  4591M 4679M 4694M 4710M 4725M 4740M 4755M 4770M
             4786M 4802M 4817M 4832M 4847M 4862M 4877M 4892M 4907M 4922M 4937M 4982M 4982  5019M 5019  5057M 5057  5083M
             5083  5156M 5156  5197M 5197  5278M 5278  5305M 5305  5338M 5338  5370M 5370  5416M 5416  5624  7156M 7168
             7265M 7305U
     6(6)     959U 3717  3718M 3726U 3736  4482M 4533  4591M 5624  7156M 7168  7265M 7300U
     7(7)     955U 3717  4482M 4533  4591M 5624  5629M 5639U 7156M 7168  7173M 7183U 7186U 7265M 7295U
     8(8)     951U 3717  4482M 4533  4591M 5624  5625M 7155  7156M 7168  7169M 7264  7265M
     9(9)     947U 3717  4401M 4402M 4402B 4482M 4533  4591M 4592B 4614B 4671B 5624  5670M 5671M 5671B 5845M 5859M 5860M
             5860B 5868M 5869M 5869B 5889M 5890M 5890B 5898M 5899M 5899B 5919M 5920M 5920B 5922M 5930M 5931M 5931B 5951M
             5952M 5952B 5954M 5962M 5963M 5963B 5965M 6048M 6049M 6049B 6069M 6070M 6070B 6078M 6079M 6079B 6081M 6121M
             6122M 6122B 6145M 6146M 6146B 6170M 6171M 6171B 6179M 6180M 6180B 6182M 6209M 6210M 6210B 6212M 6224M 6225M
             6225B 6250M 6251M 6251B 6271M 6272M 6272B 6278M 6298M 6299M 6299B 6307M 6308M 6308B 6312M 6326M 6327M 6327B
             6329M 6341M 6342M 6342B 6408M 6422M 6423M 6423B 6446M 6447M 6447B 6471M 6472M 6472B 6500M 6501M 6501B 6529M
             6530M 6530B 6542M 6543M 6543B 6564M 6565M 6565B 6584M 6598M 6599M 6599B 6611M 6612M 6612B 6616M 6630M 6631M
             6631B 6637M 6689M 6690M 6690B 6694M 6708M 6709M 6709B 6717M 6718M 6718B 6720M 6736M 6737M 6737B 6739M 6773M
             6774M 6774B 6778M 6792M 6793M 6793B 6801M 6802M 6802B 6822M 6823M 6823B 6831M 6832M 6832B 6834M 6842M 6843M
             6843B 6863M 6864M 6864B 6866M 6891M 6892M 6892B 6912M 6913M 6913B 6921M 6922M 6922B 6924M 6969M 6970M 6970B
             6993M 6994M 6994B 7018M 7019M 7019B 7027M 7028M 7028B 7030M 7042M 7043M 7043B 7068M 7069M 7069B 7089M 7090M
             7090B 7096M 7104M 7105M 7105B 7107M 7115M 7116M 7116B 7120M 7134M 7135M 7135B 7137M 7145M 7146M 7146B 7148M
             7156M 7158B 7168  7265M 7266B
    10(A)     943U 3717  4482M 4533  4591M 5624  7156M 7168  7265M
    11(B)     939U 3717  3734U 3736M 3737M 3737  4482M 4533  4591M 5624  7156M 7168  7265M 7284U
    12(C)     935U 3717  4482M 4533  4591M 5624  7156M 7168  7265M
    13(D)     931U 3739  3747M 4477  4479M 4481  4482  4533  4533  4534M 4534  4590M 4591M 4591  4621  4622M 4622  4669M
             4670  5624  5624  5625  5626M 5626  7155M 7156M 7156  7168  7168  7169  7170M 7170  7264M 7265M 7265
    14(E)     927U 3717  3923M 3924M 3924B 3937M 3962M 3963M 3963B 3976M 3977M 3977B 4089M 4090M 4090B 4126M 4151M 4152M
             4152B 4201M 4202M 4202  4207M 4207  4210M 4211  4262M 4263M 4263B 4279M 4280M 4280B 4442M 4443M 4443  4448M
             4448  4451M 4452  4481M 4483B 4533  4584M 4591M 4690B 4706B 4721B 4736B 4751B 4766B 4782B 4798B 4813B 4828B
             4843B 4858B 4873B 4888B 4903B 4918B 4933B 4948B 4970B 5007B 5045B 5071B 5110B 5171B 5232B 5293B 5326B 5358B
             5390B 5519B 5624  7156M 7168  7265M
    15(F)     923U 3717  3718  3894M 3935M 3935  3936M 3937B 3959M 4086M 4124M 4124  4125M 4126B 4148M 4199M 4199  4200M
             4201  4204  4209  4210  4213  4217  4259M 4349M 4440M 4440  4441M 4442  4445  4450  4451  4454  4458  4464M
             4464  4487M 4505M 4523M 4533  4582M 4582  4583M 4584B 4591M 5624  7156M 7157M 7157  7168  7265M

1VFD      (VFD03) (09:46) (22MAR04) Diagnostic Cross Reference and Assembler Summary                                        Page   55
-                                                                                            HLASM R4.0  2004/03/22 09.46
0     No Statements Flagged in this Assembly
 HIGH LEVEL ASSEMBLER, 5696-234, RELEASE 4.0, PTF UQ57391
0SYSTEM: OS/390 02.10.00            JOBNAME: PJG#VFD     STEPNAME: ASM        PROCSTEP: (NOPROC)
0Datasets Allocated for this Assembly
  Con DDname   Dataset Name                                 Volume  Member
   P1 SYSIN    SYS04082.T094648.RA000.PJG#VFD.INPUT.H01     SCR101
   L1 SYSLIB   SYS3.DUMMYMAC                                SYSB02
   L2          WYL.GG.SYS.MACLIB                            SYSB05
   L3          WYL.GG.ORV.BC.MACLIB                         SYSB02
   L4          SYS1.MACLIB                                  MVSBR9
      SYSLIN   WYL.GG.PJG.OBJ                               SYSB05  VFD
      SYSPRINT SYS04082.T094648.RA000.PJG#VFD.PRINT.H01     SCR101
      SYSTERM  GG$PJG.PJG#VFD.JOB05978.D0000103.?

    7812K allocated to Buffer Pool,         2381K would be required for this to be an In-Storage Assembly
    1095 Primary Input Records Read        16778 Library Records Read                  0 Work File Reads
       0 ASMAOPT Records Read               3483 Primary Print Records Written         0 Work File Writes
     152 Punch Records Written                 0 ADATA Records Written
0Assembly Start Time: 09.46.50 Stop Time: 09.46.58 Processor Time: 00.00.01.7668
 Return Code 000
