1                        J E S 2  J O B  L O G  --  S Y S T E M  S Y S B  --  N O D E  R L G
0
 09.40.05 JOB05939 ---- MONDAY,    22 MAR 2004 ----
 09.40.05 JOB05939  ICH70001I GG$PJG   LAST ACCESS AT 09:40:00 ON MONDAY, MARCH 22, 2004
 09.40.05 JOB05939  $HASP373 PJG#GINT STARTED - INIT 2    - CLASS E - SYS SYSB
 09.40.05 JOB05939  ***  HCMD      STEP $$QUIET
 09.40.05 JOB05939  PURGE * Q=OUTPUT MULTIPLE
 09.40.05 JOB05939  JOB PJG#GINT NOT IN OUTPUT QUEUE
 09.40.06 JOB05939  PJG#GINT.$$QUIET .         RC=0008 TapeIO=0000 DiskIO=0000 CPU=  .01s Elapsed=05.89s
 09.40.07 JOB05939  PJG#GINT.$CND    .         RC=Zero TapeIO=0000 DiskIO=0003 CPU=  .01s Elapsed=06.93s
 09.40.07 JOB05939  PJG#GINT.$UNP    .         RC=Zero TapeIO=0000 DiskIO=0094 CPU=  .08s Elapsed=07.08s
 09.40.28 JOB05939  PJG#GINT.ASM     .         RC=Zero TapeIO=0000 DiskIO=1262 CPU=11.02s Elapsed=07.51s
 09.40.31 JOB05939  PJG#GINT.$EDIT   .         RC=Zero TapeIO=0000 DiskIO=0540 CPU= 2.10s Elapsed=28.25s
 09.40.31 JOB05939  PJG#GINT Ended.  Name=Module: GSTINTF                Total CPU=13.22s Elapsed=05.89s
 09.40.31 JOB05939
 09.40.31 JOB05939  Execution charges   Priority=Standard   Block=Day
 09.40.31 JOB05939
 09.40.31 JOB05939  CPU Usage         244.50         $151.59   Standard Processing Unit Equivalent
 09.40.31 JOB05939                                   =======
 09.40.31 JOB05939                                   $151.59   Total Job execution charge
 09.40.31 JOB05939
 09.40.31 JOB05939  See back separator page for print charges
 09.40.31 JOB05939
 09.40.31 JOB05939  $HASP395 PJG#GINT ENDED  ASM=0
1        1 //PJG#GINT JOB PJG$GG,'Module: GSTINTF',TIME=1,MSGCLASS=C               JOB05939
           /*JOBPARM HOLD=OUTPUT,LINES=50,CHARS=TN15,NOTIFY=YES
         2 //       EXEC PURGEOLD
         3 XXPURGEOLD PROC
           XX*
           XX* This proc is maintained by Jim Stosick
           XX*
         4 XX$$QUIET  EXEC PGM=HCMDX,PARM='PURGE * Q=OUTPUT MULTIPLE',
           XX         ACCT=(PURGEOLD,SYS3)
         5 //$CND   EXEC PGM=BILBO,REGION=512K,PARM='RECS=100'
         6 //STEPLIB  DD DSN=WYL.GG.ORV.LINKLIB,DISP=SHR
         7 //SYSPRINT DD SYSOUT=$
         8 //SYSUT1   DD DSN=WYL.GG.PJG.OBJ,DISP=OLD
         9 //SYSUT2   DD DSN=WYL.GG.PJG.OBJ,DISP=OLD
        10 //SYSIN    DD DUMMY
        11 //$UNP   EXEC PGM=WUNPRESS,PARM='NUM'
        12 //SYSPRINT DD SYSOUT=$
        13 //SYSUT1   DD DSN=WYL.GG.ORV.SOURCE(GSTINTF),DISP=SHR
        14 //SYSUT2   DD DSN=&&INPUT,DISP=(,PASS),UNIT=SYSDA,
           //            SPACE=(TRK,(25,25),RLSE),DCB=CARD
        15 //ASM    EXEC PGM=ASMA90,REGION=8M,COND=(0,NE,$UNP),
           //            PARM=('SYSPARM(GSTINTF),TERM,LANG(EN),OBJ',
           //          'LC(32500),XREF(SHORT),NODECK,NORLD,NODX,NOUS')
           //*STEPLIB  DD DSN=SYS1.SASMMOD1,DISP=SHR
        16 //SYSLIB   DD DSN=SYS3.DUMMYMAC,DISP=SHR,DCB=BLKSIZE=27920
        17 //         DD DSN=WYL.GG.ORV.MACLIB,DISP=SHR
        18 //         DD DSN=WYL.GG.SYS.MACLIB,DISP=SHR
        19 //         DD DSN=SYS3.MACLIB,DISP=SHR
        20 //         DD DSN=SYS1.MACLIB,DISP=SHR
        21 //         DD DSN=SYS1.MODGEN,DISP=SHR
        22 //SYSUT1   DD DSN=&&SYSUT1,UNIT=VIO,DISP=(,DELETE),
           //            SPACE=(4088,(500,250),,CONTIG,ROUND)
        23 //SYSTERM  DD SYSOUT=$
        24 //SYSPRINT DD DSN=&&PRINT,UNIT=SYSDA,DISP=(,PASS),
           //            SPACE=(6650,(250,250),RLSE),
           //            DCB=(BLKSIZE=6650,LRECL=133,RECFM=FB)
        25 //SYSLIN   DD DSN=WYL.GG.PJG.OBJ(GSTINTF),DISP=OLD
        26 //SYSUDUMP DD SYSOUT=A
        27 //SYSIN    DD DSN=&&INPUT,DISP=(OLD,DELETE)
        28 //$EDIT  EXEC PGM=ASMEDIT,REGION=1M,
           //            COND=EVEN,PARM='STMT,DATA'
        29 //STEPLIB  DD DSN=WYL.GG.SYS.LINKLIB,DISP=SHR
        30 //ASMOUT   DD DSN=&&PRINT,DISP=(OLD,DELETE)
        31 //SYSPRINT DD SYSOUT=A
        32 //SYSUDUMP DD SYSOUT=A
1 STMT NO. MESSAGE
         2 IEFC001I PROCEDURE PURGEOLD WAS EXPANDED USING SYSTEM LIBRARY SYS3.BETAPROC
        14 IGD01010I STORCLAS= TEMP STORGROUP =
        14 IGD01010I STORGRP=VIO ASSIGNED.
        22 IGD01010I STORCLAS= TEMP STORGROUP =
        22 IGD01010I STORGRP=VIO ASSIGNED.
        24 IGD01010I STORCLAS= TEMP STORGROUP =
        24 IGD01010I STORGRP=VIO ASSIGNED.
 ICH70001I GG$PJG   LAST ACCESS AT 09:40:00 ON MONDAY, MARCH 22, 2004
 IEF142I PJG#GINT $$QUIET - STEP WAS EXECUTED - COND CODE 0008
 *********************************************************************************
 *   PJG#GINT/$$QUIET /                    Return Code      0008                 *
 *   Region used      260K (16K user + 244K system)                              *
 *   Extended region  9352K (4K user + 9348K system)                             *
 *                                                                               *
 *   Paging              In      Out                                             *
 *   Private <-> Aux      0        0       CPU time (TCB)   00:00:00.01          *
 *   Private <-> Exp      0        0       CPU time (SRB)   00:00:00.00          *
 *   VIO                  0        0       Elapsed time    920:47:47.07          *
 *   Common               0      ---                                             *
 *                                                                               *
 *                                                                               *
 *   CPU Usage          0.18         $0.11  Standard Processing Unit Equivalent  *
 *                                   $0.11  Total Step execution charge          *
 *                                                                               *
 *    I/O count  DDname   Type Addr           I/O count  DDname   Type Addr      *
 *                         *** No I/O for this step ***                          *
 *********************************************************************************
 IEF373I STEP/$$QUIET /START 2004082.0940
 IEF374I STEP/$$QUIET /STOP  2004082.0940 CPU    0MIN 00.01SEC SRB    0MIN 00.00SEC VIRT    16K SYS   244K EXT       4K SYS    9348K
 IEF236I ALLOC. FOR PJG#GINT $CND
 IEF237I 0401 ALLOCATED TO STEPLIB
 IEF237I JES2 ALLOCATED TO SYSPRINT
 IEF237I 04DC ALLOCATED TO SYSUT1
 IEF237I 04DC ALLOCATED TO SYSUT2
 IEF237I DMY  ALLOCATED TO SYSIN
 IEF142I PJG#GINT $CND - STEP WAS EXECUTED - COND CODE 0000
 IEF285I   WYL.GG.ORV.LINKLIB                           KEPT
 IEF285I   VOL SER NOS= SYSB01.
 IEF285I   GG$PJG.PJG#GINT.JOB05939.D0000101.?          SYSOUT
 IEF285I   WYL.GG.PJG.OBJ                               KEPT
 IEF285I   VOL SER NOS= SYSB05.
 IEF285I   WYL.GG.PJG.OBJ                               KEPT
 IEF285I   VOL SER NOS= SYSB05.
 *********************************************************************************
 *   PJG#GINT/$CND    /                    Return Code      Zero                 *
 *   Region used      280K (16K user + 264K system)                              *
 *   Extended region  9392K (4K user + 9388K system)                             *
 *                                                                               *
 *   Paging              In      Out                                             *
 *   Private <-> Aux      0        0       CPU time (TCB)   00:00:00.01          *
 *   Private <-> Exp      0        0       CPU time (SRB)   00:00:00.00          *
 *   VIO                  0        0       Elapsed time    920:47:46.03          *
 *   Common               0      ---                                             *
 *                                                                               *
 *                                                                               *
 *   CPU Usage          0.18         $0.11  Standard Processing Unit Equivalent  *
 *                                   $0.11  Total Step execution charge          *
 *                                                                               *
 *    I/O count  DDname   Type Addr           I/O count  DDname   Type Addr      *
 *            3  STEPLIB  Disk 0401                   0  SYSPRINT      ----      *
 *            0  SYSUT1   Disk 04DC                   0  SYSUT2   Disk 04DC      *
 *            0  SYSIN         ----                                              *
 *********************************************************************************
 IEF373I STEP/$CND    /START 2004082.0940
 IEF374I STEP/$CND    /STOP  2004082.0940 CPU    0MIN 00.01SEC SRB    0MIN 00.00SEC VIRT    16K SYS   264K EXT       4K SYS    9388K
 IEF236I ALLOC. FOR PJG#GINT $UNP
 IEF237I JES2 ALLOCATED TO SYSPRINT
 IEF237I 0402 ALLOCATED TO SYSUT1
 IGD101I SMS ALLOCATED TO DDNAME (SYSUT2  )
         DSN (SYS04082.T094005.RA000.PJG#GINT.INPUT.H01   )
         STORCLAS (TEMP) MGMTCLAS (        ) DATACLAS (        )
         VOL SER NOS= SCR100
 IEF142I PJG#GINT $UNP - STEP WAS EXECUTED - COND CODE 0000
 IEF285I   GG$PJG.PJG#GINT.JOB05939.D0000102.?          SYSOUT
 IEF285I   WYL.GG.ORV.SOURCE                            KEPT
 IEF285I   VOL SER NOS= SYSB02.
 IGD106I SYS04082.T094005.RA000.PJG#GINT.INPUT.H01    PASSED,    DDNAME=SYSUT2
 *********************************************************************************
 *   PJG#GINT/$UNP    /                    Return Code      Zero                 *
 *   Region used      388K (108K user + 280K system)                             *
 *   Extended region  9468K (4K user + 9464K system)                             *
 *                                                                               *
 *   Paging              In      Out                                             *
 *   Private <-> Aux      0        0       CPU time (TCB)   00:00:00.08          *
 *   Private <-> Exp      0        0       CPU time (SRB)   00:00:00.00          *
 *   VIO                  0        0       Elapsed time    920:47:45.88          *
 *   Common               0      ---                                             *
 *                                                                               *
 *                                                                               *
 *   CPU Usage          1.50         $0.93  Standard Processing Unit Equivalent  *
 *                                   $0.93  Total Step execution charge          *
 *                                                                               *
 *    I/O count  DDname   Type Addr           I/O count  DDname   Type Addr      *
 *            0  SYSPRINT      ----                   8  SYSUT1   Disk 0402      *
 *           86  SYSUT2   Disk 038B                                              *
 *********************************************************************************
 IEF373I STEP/$UNP    /START 2004082.0940
 IEF374I STEP/$UNP    /STOP  2004082.0940 CPU    0MIN 00.08SEC SRB    0MIN 00.00SEC VIRT   108K SYS   280K EXT       4K SYS    9464K
 IEF236I ALLOC. FOR PJG#GINT ASM
 IEF237I 0402 ALLOCATED TO SYSLIB
 IEF237I 0402 ALLOCATED TO
 IEF237I 04DC ALLOCATED TO
 IEF237I 0402 ALLOCATED TO
 IEF237I 04A0 ALLOCATED TO
 IEF237I 04A0 ALLOCATED TO
 IGD101I SMS ALLOCATED TO DDNAME (SYSUT1  )
         DSN (SYS04082.T094005.RA000.PJG#GINT.SYSUT1.H01  )
         STORCLAS (TEMP) MGMTCLAS (        ) DATACLAS (        )
         VOL SER NOS= VIO
 IEF237I JES2 ALLOCATED TO SYSTERM
 IGD101I SMS ALLOCATED TO DDNAME (SYSPRINT)
         DSN (SYS04082.T094005.RA000.PJG#GINT.PRINT.H01   )
         STORCLAS (TEMP) MGMTCLAS (        ) DATACLAS (        )
         VOL SER NOS= SCR100
 IEF237I 04DC ALLOCATED TO SYSLIN
 IEF237I JES2 ALLOCATED TO SYSUDUMP
 IGD103I SMS ALLOCATED TO DDNAME SYSIN
 IEF142I PJG#GINT ASM - STEP WAS EXECUTED - COND CODE 0000
 IEF285I   SYS3.DUMMYMAC                                KEPT
 IEF285I   VOL SER NOS= SYSB02.
 IEF285I   WYL.GG.ORV.MACLIB                            KEPT
 IEF285I   VOL SER NOS= SYSB02.
 IEF285I   WYL.GG.SYS.MACLIB                            KEPT
 IEF285I   VOL SER NOS= SYSB05.
 IEF285I   SYS3.MACLIB                                  KEPT
 IEF285I   VOL SER NOS= SYSB02.
 IEF285I   SYS1.MACLIB                                  KEPT
 IEF285I   VOL SER NOS= MVSBR9.
 IEF285I   SYS1.MODGEN                                  KEPT
 IEF285I   VOL SER NOS= MVSBR9.
 IGD105I SYS04082.T094005.RA000.PJG#GINT.SYSUT1.H01   DELETED,   DDNAME=SYSUT1
 IEF285I   GG$PJG.PJG#GINT.JOB05939.D0000103.?          SYSOUT
 IGD106I SYS04082.T094005.RA000.PJG#GINT.PRINT.H01    PASSED,    DDNAME=SYSPRINT
 IEF285I   WYL.GG.PJG.OBJ                               KEPT
 IEF285I   VOL SER NOS= SYSB05.
 IEF285I   GG$PJG.PJG#GINT.JOB05939.D0000104.?          SYSOUT
 IGD105I SYS04082.T094005.RA000.PJG#GINT.INPUT.H01    DELETED,   DDNAME=SYSIN
 *********************************************************************************
 *   PJG#GINT/ASM     /                    Return Code      Zero                 *
 *   Region used      8488K (8192K user + 296K system)                           *
 *   Extended region  9972K (412K user + 9560K system)                           *
 *                                                                               *
 *   Paging              In      Out                                             *
 *   Private <-> Aux      0        0       CPU time (TCB)   00:00:10.90          *
 *   Private <-> Exp      0        0       CPU time (SRB)   00:00:00.12          *
 *   VIO                  0        0       Elapsed time    920:47:45.45          *
 *   Common               0      ---                                             *
 *                                                                               *
 *                                                                               *
 *   CPU Usage        204.37       $126.70  Standard Processing Unit Equivalent  *
 *                                 $126.70  Total Step execution charge          *
 *                                                                               *
 *    I/O count  DDname   Type Addr           I/O count  DDname   Type Addr      *
 *          146  SYSLIB   Disk 0402                   0  SYSLIB   Disk 0402      *
 *          156  SYSLIB   Disk 04DC                   0  SYSLIB   Disk 0402      *
 *          316  SYSLIB   Disk 04A0                   0  SYSLIB   Disk 04A0      *
 *          386  SYSUT1   VIO  ----                   0  SYSTERM       ----      *
 *          537  SYSPRINT Disk 038B                  20  SYSLIN   Disk 04DC      *
 *            0  SYSUDUMP      ----                  87  SYSIN    Disk 038B      *
 *********************************************************************************
 IEF373I STEP/ASM     /START 2004082.0940
 IEF374I STEP/ASM     /STOP  2004082.0940 CPU    0MIN 10.90SEC SRB    0MIN 00.12SEC VIRT  8192K SYS   296K EXT     412K SYS    9560K
 IEF236I ALLOC. FOR PJG#GINT $EDIT
 IEF237I 0402 ALLOCATED TO STEPLIB
 IGD103I SMS ALLOCATED TO DDNAME ASMOUT
 IEF237I JES2 ALLOCATED TO SYSPRINT
 IEF237I JES2 ALLOCATED TO SYSUDUMP
 IEF142I PJG#GINT $EDIT - STEP WAS EXECUTED - COND CODE 0000
 IEF285I   WYL.GG.SYS.LINKLIB                           KEPT
 IEF285I   VOL SER NOS= SYSB02.
 IGD105I SYS04082.T094005.RA000.PJG#GINT.PRINT.H01    DELETED,   DDNAME=ASMOUT
 IEF285I   GG$PJG.PJG#GINT.JOB05939.D0000105.?          SYSOUT
 IEF285I   GG$PJG.PJG#GINT.JOB05939.D0000106.?          SYSOUT
 *********************************************************************************
 *   PJG#GINT/$EDIT   /                    Return Code      Zero                 *
 *   Region used      388K (116K user + 272K system)                             *
 *   Extended region  9472K (4K user + 9468K system)                             *
 *                                                                               *
 *   Paging              In      Out                                             *
 *   Private <-> Aux      0        0       CPU time (TCB)   00:00:02.04          *
 *   Private <-> Exp      0        0       CPU time (SRB)   00:00:00.06          *
 *   VIO                  0        0       Elapsed time    920:47:24.71          *
 *   Common               0      ---                                             *
 *                                                                               *
 *                                                                               *
 *   CPU Usage         38.25        $23.71  Standard Processing Unit Equivalent  *
 *                                  $23.71  Total Step execution charge          *
 *                                                                               *
 *    I/O count  DDname   Type Addr           I/O count  DDname   Type Addr      *
 *            2  STEPLIB  Disk 0402                 538  ASMOUT   Disk 038B      *
 *            0  SYSPRINT      ----                   0  SYSUDUMP      ----      *
 *********************************************************************************
 IEF373I STEP/$EDIT   /START 2004082.0940
 IEF374I STEP/$EDIT   /STOP  2004082.0940 CPU    0MIN 02.04SEC SRB    0MIN 00.06SEC VIRT   116K SYS   272K EXT       4K SYS    9468K
 *********************************************************************************
 *                                                                               *
 *                      S t a n f o r d   U n i v e r s i t y                    *
 *                                                                               *
 *                              *** Job Summary ***                              *
 *                                                                               *
 *   System Id      SYSB                   Input time     09:38:20  Mar 22, 2004 *
 *                                                                               *
 *   System Release SP6.1.0                Start time     09:40:05  Mar 22, 2004 *
 *                                                                               *
 *   Job name       PJG#GINT               Stop  time     00:00:00  Mar 22, 2004 *
 *                                                                               *
 *   Account        PJG$GG                 Elapsed time  920:47:47.07            *
 *                                                                               *
 *   User Name      Module: GSTINTF        CPU time       00:00:13.04            *
 *                                                                               *
 *   Job class      E                      SRB Time       00:00:00.18            *
 *                                                                               *
 *********************************************************************************
 IEF375I  JOB/PJG#GINT/START 2004082.0940
 IEF376I  JOB/PJG#GINT/STOP  2004082.0940 CPU    0MIN 13.04SEC SRB    0MIN 00.18SEC
1Data set successfully converted from EDIT to FB format
1Assembler Done GSTINTF No Statements Flagged
1         High Level Assembler Option Summary                   (PTF UQ57391)                                               Page    1
-                                                                                            HLASM R4.0  2004/03/22 09.40
0  No Overriding ASMAOPT Parameters
   Overriding Parameters-  SYSPARM(GSTINTF),TERM,LANG(EN),OBJ,LC(32500),XREF(SHORT),NODECK,NORLD,NODX,NOUS
   No Process Statements


   Options for this Assembly
0  NOADATA
     ALIGN
   NOASA
     BATCH
     CODEPAGE(047C)
   NOCOMPAT
   NODBCS
 3 NODECK
 3 NODXREF
     ESD
   NOEXIT
     FLAG(0,ALIGN,CONT,NOIMPLEN,NOPAGE0,PUSH,RECORD,NOSUBSTR,USING0)
   NOFOLD
   NOGOFF
   NOINFO
 3   LANGUAGE(EN)
   NOLIBMAC
 3   LINECOUNT(32500)
     LIST(121)
     MXREF(SOURCE)
 3   OBJECT
     OPTABLE(UNI,NOLIST)
   NOPCONTROL
   NOPESTOP
   NOPROFILE
   NORA2
   NORENT
 3 NORLD
     RXREF
     SIZE(MAX)
 3   SYSPARM(GSTINTF)
 3   TERM(WIDE)
   NOTEST
     THREAD
   NOTRANSLATE
 3 NOUSING
 3   XREF(SHORT)

   No Overriding DD Names

1GSTINTF  External Symbol Dictionary                                                                                        Page    2
-Symbol   Type   Id     Address  Length     LD ID  Flags Alias-of                            HLASM R4.0  2004/03/22 09.40
0GSTINTF   SD 00000001 00000000 00008402             06
 GSTI00    LD          00000000           00000001
 GSTINIT   LD          00000022           00000001
 POOLGET   ER 00000002
 MEMGET    ER 00000003
 PARMDO    ER 00000004
 SPAWN     ER 00000005
 MEMFREE   ER 00000006
 POOLFREE  ER 00000007
 DSALLO    ER 00000008
 LOCKCRE   ER 00000009
 GSTDISP1  LD          000009C6           00000001
 GSTTERMP  LD          00000C0A           00000001
 GSTTERM   LD          00000C82           00000001
 GSTSTAT   LD          00000D80           00000001
 GSTDUMP   LD          00000DAA           00000001
 FPOST     ER 0000000A
 FWAIT     ER 0000000B
 CANTASK   ER 0000000C
 SEG       ER 0000000D
 SEGHEX    ER 0000000E
 SEGCORE   ER 0000000F
 BTDBTD    ER 00000010
 BTXBTX    ER 00000011
 SEGCOL    ER 00000012
 GSTIIOT   LD          000032CC           00000001
 IOSTINIT  ER 00000013
 CPTSTART  ER 00000014
 PAGEFIX   ER 00000015
 CPTREAD   ER 00000016
 LOCKOB    ER 00000017
 LOCKREL   ER 00000018
 PAGEFREE  ER 00000019
 DOIO      ER 0000001A
 IPLTEXT   ER 0000001B
 INITDEV   ER 0000001C
 GSTINTF   ER 0000001D
 IOSERV    ER 0000001E
 MEMSERV   ER 0000001F
 MPMAST    ER 00000020
 MSGSERV   ER 00000021
 PARMS     ER 00000022
 TASKSERV  ER 00000023
 TEXTCONV  ER 00000024
 MVSENQ    ER 00000025
 SEGINIT   ER 00000026
 SNDPALLO  ER 00000027
 SNDPWRT   ER 00000028
 SNDPCLS   ER 00000029
 SETCLOCK  LD          00008330           00000001

1GSTINTF  ORVYL'S MVS - Virtual Machine Interface                                                                           Page    3
0Loc    Object Code    Addr1 Addr2  Stmt Lv Lineno    Source Statement                    (Asmedit 3.3)  HLASM R4.0  2004/03/22 09.40
+___    ______ ____    _____ _____  ____ __ ______    ______ _________
0                                      2       2.              COPY  HEADER
                                       3             =*********************************************************************
                                       4             =*                                                                   *
                                       5             =*                                                                   *
                                       6             =*                          M P - O R V Y L                          *
                                       7             =*                                                                   *
                                       8             =*       ORVYL - Release 5.0 - Class I - Stanford Proprietary        *
                                       9             =*                                                                   *
                                      10             =*                                                                   *
                                      11             =*********************************************************************
-
-                                     13             =         SPLEVEL SET=2
                                      16             =         HIBAL ASSOC=YES
-
                                     998             =*
                                     999             =* REGISTER CONVENTIONS (USE ONLY THE SYMBOLS)
                                    1000             =*
                                    1001             =*                     CLASS  USAGE
                                    1002             =*                     -----  -----------------------------
                                    1003             =RVR      REG   0        1    RETURN VALUE REGISTER
                                    1015             =RS       REG   1        *    SCRATCH
                                    1027             =RA       REG   2        *    SCRATCH
                                    1039             =RB       REG   3        *    SCRATCH
                                    1051             =RJ       REG   4        *    SCRATCH
                                    1063             =RK       REG   5        *    SCRATCH
                                    1075             =RX       REG   6        *    SCRATCH
                                    1087             =RY       REG   7        *    SCRATCH
                                    1099             =RM       REG   8        *    SCRATCH
                                    1111             =RN       REG   9        *    SCRATCH (In Guest)
                                    1123             =RTCBR    REG   9        -    POINTER TO THE RTCB (In Host)
                                    1135             =BR       REG   10       -    FIRST BASE REGISTER
                                    1147             =BRR      REG   11       -    SECOND BASE REGISTER
                                    1159             =WAR      REG   12       -    WORK AREA POINTER
                                    1171             =SPR      REG   13       -    STACK TOP POINTER
                                    1183             =RAR      REG   14       1    RETURN ADDRESS REGISTER
                                    1195             =EPAR     REG   15       1    ENTRY POINT ADDRESS
                                    1207             =*
                                    1208             =*      CLASS   MEANING
                                    1209             =*      -----   --------------------------------------------------
                                    1210             =*        *     Register may be freely used for scratch
                                    1211             =*        -     Register may not be used
                                    1212             =*        1     Available but may change on subroutine calls
                                    1213             =*
1GSTINTF  ORVYL'S MVS - Virtual Machine Interface                                                                           Page    4
0D-Loc  Object Code    Addr1 Addr2  Stmt Lv Lineno    Source Statement           (Hibal 5, Asmedit 3.3)  HLASM R4.0  2004/03/22 09.40
+_____  ______ ____    _____ _____  ____ __ ______    ______ _________
0000000                00000 08402  1216       4.     GSTINTF  MODULE
                                    1226             +*
                                    1227    02-IDENT +         ENTRY GSTI00
                                    1228             +
 000000 14C7E2E3C9F0F06B            1229    02-IDENT +GSTI00   DC    AL1(20),C'GSTI00,22MAR04,09:40'
                                    1230             +*
-
                                    1233       6.     *
                                    1234       7.     *  TPROT AND LRA CONDITION CODES
                                    1235       8.     *
                                    1236       9.              DEFCC NOSTR,6                 TPROT - NO STORE
                                    1237      10.              DEFCC NOACC,2                 TPROT - NO ACCESS
                                    1238      11.              DEFCC NOTRN,1                 TPROT - NOT TRANSLATABLE
                                    1239      12.              DEFCC INVLD,4                 LRA   - INVALID SEGMENT
                                    1240      13.     *                                      PSA, CVT, CSD, RCE, SMCA,
                                    1241      14.              PRINT OFF                     LPDE, DCBD, WPL, TCB, RB
                                    7877      39.              COPY  CANPARM
                                    7878             =*******************************************************************
                                    7879             =*                                                                 *
                                    7880             =*       CANPARM -- Function entry parameter list                  *
                                    7881             =*                                                                 *
                                    7882             =*******************************************************************
0000000                00000 00004  7884             =@CANTASK RECORD BEGIN
 000000                             7892  1          =@CANTID    DS    A                       Parameter
 000004                00004 00004  7893             =         END   ,
                                    7902      40.              COPY  CONVPARM
 000000                00000 00009  7903             =@DTB     RECORD BEGIN                  Decimal to binary conversion
 000000                             7911  1          =@DTBLOC    DS    A                       String location
 000004                             7912  1          =@DTBLEN    DS    A                       String length
                                    7913  1          =@DTBMXLN   EQU   10,10,C'N'              10 digits (not including sign)
 000008 00                          7914  1          =@DTBFLG    FLAG  ,
 @DTBFLG.@DTBVALID 80 ONES          7918  1          =           FLAG  @DTBVALID               Is string valid?
 000009                             7923  1          =           DS    0SL2(@DTBLOC+4-@DTBLEN,@DTBLEN-@DTBLOC+4)
 000009                00009 00009  7924             =         END   ,
0000000                00000 00009  7934             =@XTB     RECORD BEGIN                  Hex to binary conversion
 000000                             7942  1          =@XTBLOC    DS    A                       Location of string
 000004                             7943  1          =@XTBLEN    DS    A                       Length of string
                                    7944  1          =@XTBMXLN   EQU   8,8,C'N'
 000008 00                          7945  1          =@XTBFLG    FLAG  ,
 @XTBFLG.@XTBVALID 80 ONES          7949  1          =           FLAG  @XTBVALID               Valid string specified
 000009                             7954  1          =           DS    0SL2(@XTBLOC+4-@XTBLEN,@XTBLEN-@XTBLOC+4)
 000009                00009 00009  7955             =         END   ,
0000000                00000 0000D  7965             =@STB     RECORD BEGIN                  Scaled to binary conversion
 000000                             7973  1          =@STBLOC    DS    A                       String location
 000004                             7974  1          =@STBLEN    DS    A                       | and length
                                    7975  1          =@STBMXLN   EQU   10+1,10+1,C'N'          10 digits, 1 point
                                    7976  1          =*                                      (not including sign)
 000008                             7977  1          =@STBSCAL   DS    A                       Scale factor
 00000C 00                          7978  1          =@STBFLG    FLAG  ,
 @STBFLG.@STBVALID 80 ONES          7982  1          =           FLAG  @STBVALID               Is string valid?
 00000D                             7987  1          =           DS    0SL2(@STBLOC+4-@STBLEN,@STBLEN-@STBLOC+4)
1GSTINTF  (GSTI00) (09:40) (22MAR04) ORVYL'S MVS - Virtual Machine Interface                                                Page    5
0D-Loc  Object Code    Addr1 Addr2  Stmt Lv Lineno    Source Statement           (Hibal 5, Asmedit 3.3)  HLASM R4.0  2004/03/22 09.40
+_____  ______ ____    _____ _____  ____ __ ______    ______ _________
000000D                0000D 0000D  7988             =         END   ,
0000000                00000 0000D  7998             =@BTD     RECORD BEGIN                  Binary to decimal conversion
 000000                             8006  1          =@BTDVAL    DS    F                       32 bit integer value
 000004                             8007  1          =@BTDLOC    DS    A                       Result location
 000008                             8008  1          =@BTDLEN    DS    A                       Result length
 00000C 00                          8009  1          =@BTDFLG    FLAG  ,
 @BTDFLG.@BTDCOMM  80 ONES          8013  1          =           FLAG  @BTDCOMM                Commas?
 @BTDFLG.@BTDUNSI  40 ONES          8018  1          =           FLAG  @BTDUNSI                Unsigned conversion?
 00000D                             8023  1          =           DS    0SL2(@BTDLOC+4-@BTDLEN,@BTDLEN-@BTDLOC+4)
 00000D                0000D 0000D  8024             =         END   ,
0000000                00000 0000C  8034             =@BTX     RECORD BEGIN                  Binary to hex converson
 000000                             8042  1          =@BTXVAL    DS    A                       Value to be converted
 000004                             8043  1          =@BTXLOC    DS    A                       Return area
 000008                             8044  1          =@BTXLEN    DS    A      Maximum length of result    (Positive)
                                    8045  1          =*                     Number of leading blanks    (Negative)
                                    8046  1          =*                     Return actual string length (Zero)
 00000C                             8047  1          =           DS    0SL2(@BTXLOC+4-@BTXLEN,@BTXLEN-@BTXLOC+4)
 00000C                0000C 0000C  8048             =         END   ,
0000000                00000 00010  8058             =@BTS     RECORD BEGIN                  Binary to scaled conversion
 000000                             8066  1          =@BTSLOC    DS    A                       Output loc
 000004                             8067  1          =@BTSLEN    DS    A                       Output length
 000008                             8068  1          =@BTSVAL    DS    A                       Scaled integer to convert
 00000C                             8069  1          =@BTSSCAL   DS    A                       Scale factor (# of dec digits)
 000010                             8070  1          =           DS    0SL2(@BTSLOC+4-@BTSLEN,@BTSLEN-@BTSLOC+4)
 000010                00010 00010  8071             =         END   ,
                                    8080      41.              COPY  CPTPARM
                                    8081             =*******************************************************************
                                    8082             =*                                                                 *
                                    8083             =*           CPTPARM -- CPU Timer calling parms                    *
                                    8084             =*                                                                 *
                                    8085             =*******************************************************************
0000000                00000 00010  8087             =@CPTIME  RECORD BEGIN
                                    8095  1          =
 000000                             8096  1          =@CPTTOT    DS    D                       Total CPU time used by task
 000008                             8097  1          =@CPTINT    DS    D                       CPU time used since last call
 000010                00010 00010  8098             =         END   ,
                                    8107      42.              COPY  FIXPARM
                                    8108             =*******************************************************************
                                    8109             =*                                                                 *
                                    8110             =*     FIXPARM -- Pagefix/pagefree parameters                      *
                                    8111             =*                                                                 *
                                    8112             =*******************************************************************
0000000                00000 00009  8114             =@FIXPARM RECORD BEGIN
                                    8122  1          =
 000000                             8123  1          =@FIXLOC    DS    A                       Area to page fix/free
 000004                             8124  1          =@FIXLEN    DS    A                       Length
 000008 00                          8125  1          =@FIXFLG    FLAG  ,
 @FIXFLG.@FIXFREL  80 ONES          8129  1          =           FLAG  @FIXFREL                Release backing store too
 000009                00009 00009  8134             =         END   ,
                                    8143      43.              COPY  FUNCPARM
                                    8144             =*******************************************************************
1GSTINTF  (GSTI00) (09:40) (22MAR04) ORVYL'S MVS - Virtual Machine Interface                                                Page    6
0D-Loc  Object Code    Addr1 Addr2  Stmt Lv Lineno    Source Statement           (Hibal 5, Asmedit 3.3)  HLASM R4.0  2004/03/22 09.40
+_____  ______ ____    _____ _____  ____ __ ______    ______ _________
0                                   8145             =*                                                                 *
                                    8146             =*    FUNCPARM  -- Parameter areas dealing with functions          *
                                    8147             =*                                                                 *
                                    8148             =*******************************************************************
-                                   8150             =*
                                    8151             =* This is the parm passed on function initialization.
                                    8152             =*
0000000                00000 00004  8154             =@FUNCPRM RECORD BEGIN
 000000                             8162  1          =@FUNCDTA   DS    A                       Parameter
 000004                00004 00004  8163             =         END   ,
-                                   8173             =*
                                    8174             =* This is the parm passed to the DUMP entry of services and functions
                                    8175             =*
0000000                00000 00008  8177             =@DUMPPRM RECORD BEGIN
 000000                             8185  1          =@DUMPDTA   DS    A             Function data
 000004                             8186  1          =@DUMPSCB   DS    A             Address of the Seg control block
 000008                00008 00008  8187             =         END   ,
-                                   8197             =*
                                    8198             =* This is the parm passed to the TERM entry of functions
                                    8199             =*
0000000                00000 00004  8201             =@TERMPRM RECORD BEGIN
 000000                             8209  1          =@TERMDTA   DS    A             Function data
 000004                00004 00004  8210             =         END   ,
                                    8219      44.              COPY  MEMPARM
                                    8220             =*******************************************************************
                                    8221             =*                                                                 *
                                    8222             =*            Memory service initialization parameters             *
                                    8223             =*                                                                 *
                                    8224             =*******************************************************************
0000000                00000 00002  8226             =@MEMINIT RECORD BEGIN                           MEMORY INIT RECORD
 000000 00                          8234  1          =@MIFLAG    FLAG  ,                                Specification flags
 @MIFLAG.MIGLOBAL  80 ONES          8238  1          =           FLAG  MIGLOBAL                         | INIT GLOBAL POOL
                                    8243  1          =*-----------------------------------------------
                                    8244  1          =*  From here on need not be specified on call
                                    8245  1          =*-----------------------------------------------
 000001 00                          8246  1          =@MIWFLAG   FLAG  ,                                Work flags
                                    8250  1          =*   Pool type is determined by the bit values in the pool index
                                    8251  1          =*  offset
 @MIWFLAG.MIWPAGE  04 ONES          8252  1          =           FLAG  (MIWPAGE,X'04')                  | page boundary
 @MIWFLAG.MIWFIX   08 ONES          8261  1          =           FLAG  (MIWFIX,X'08')                   | fixed memory
 @MIWFLAG.MIWA16M  10 ONES          8270  1          =           FLAG  (MIWA16M,X'10')                  | above 16M
 000002                00002 00002  8279             =         END   ,                                OF MEMORY INIT RECORD
-
                                    8289             =*******************************************************************
1GSTINTF  (GSTI00) (09:40) (22MAR04) ORVYL'S MVS - Virtual Machine Interface                                                Page    7
0D-Loc  Object Code    Addr1 Addr2  Stmt Lv Lineno    Source Statement           (Hibal 5, Asmedit 3.3)  HLASM R4.0  2004/03/22 09.40
+_____  ______ ____    _____ _____  ____ __ ______    ______ _________
0                                   8290             =*                                                                 *
                                    8291             =*              Memory service allocation parameters               *
                                    8292             =*                                                                 *
                                    8293             =*******************************************************************
0000000                00000 0000A  8295             =@MEMGET  RECORD BEGIN
 000000                             8303  1          =@MGLL      DS    D                                Location/Length
 000008                00008 00000  8304  1          =           ORG   @MGLL
 000000                             8305  1          =@MGLOC     DS    A                                Location (return)
 000004                             8306  1          =@MGLEN     DS    A                                Length of request
 000008                00008 00008  8307  1          =           ORG   ,
 000008 0000                        8308  1          =@MGTYPE    DC    H'0'                             Request type - offset
                                    8309  1          =*   TYPES A16M, FIX, & PAG form an index into a control table for
                                    8310  1          =* a specified pool.  ie. a pool above the 16M line, unfixed and
                                    8311  1          =* double word boundary has an @MGTYPE value of X'10' = 16.
 00000A                0000A 00009  8312  1          =           ORG   @MGTYPE+1
 000009 00                          8313  1          =@MGFTYPE   FLAG  ,
 @MGFTYPE.MGA16M   10 ONES          8317  1          =           FLAG  (MGA16M,X'10')                   Above 16M line
 @MGFTYPE.MGFIX    08 ONES          8326  1          =           FLAG  (MGFIX,X'08')                    Fixed pool
 @MGFTYPE.MGPAG    04 ONES          8335  1          =           FLAG  (MGPAG,X'04')                    Page boundary
 @MGFTYPE.MGGLOB   02 ONES          8344  1          =           FLAG  (MGGLOB,X'02')                   Global pool
 @MGFTYPE.MGBEST   01 ONES          8353  1          =           FLAG  (MGBEST,X'01')                   Best fit
 00000A                0000A 0000A  8362  1          =           ORG   ,
 00000A                0000A 0000A  8363             =         END   ,
1GSTINTF  (GSTI00) (09:40) (22MAR04) IHAPSAE  - PSA Extension (ESAME)                                                       Page    8
0Loc    Object Code    Addr1 Addr2  Stmt Lv Lineno    Source Statement           (Hibal 5, Asmedit 3.3)  HLASM R4.0  2004/03/22 09.40
+___    ______ ____    _____ _____  ____ __ ______    ______ _________
0                                   8373             =*******************************************************************
                                    8374             =*                                                                 *
                                    8375             =*               Memory service release parameters                 *
                                    8376             =*                                                                 *
                                    8377             =*******************************************************************
0000000                00000 0000A  8379             =@MEMFREE RECORD BEGIN                           PARAMETERS
 000000                             8387  1          =@MFLL      DS    D                                Location/Length
 000008                00008 00000  8388  1          =           ORG   @MFLL
 000000                             8389  1          =@MFLOC     DS    A                                Location
 000004                             8390  1          =@MFLEN     DS    A                                Length
 000008                00008 00008  8391  1          =           ORG   ,
 000008 0000                        8392  1          =@MFTYPE    DC    H'0'                             Request type - offset
 00000A                0000A 00009  8393  1          =           ORG   @MFTYPE+1
 000009 00                          8394  1          =@MFFTYPE   FLAG  ,
                                    8398  1          =*   TYPES A16M, FIX, & PAG form an index into a control table for
                                    8399  1          =* a specified pool.  ie. a pool above the 16M line, unfixed and
                                    8400  1          =* double word boundary has an @MGTYPE value of X'10' = 16.
 @MFFTYPE.MFA16M   10 ONES          8401  1          =           FLAG  (MFA16M,X'10')                   Above 16M line
 @MFFTYPE.MFFIX    08 ONES          8410  1          =           FLAG  (MFFIX,X'08')                    Fixed pool
 @MFFTYPE.MFPAG    04 ONES          8419  1          =           FLAG  (MFPAG,X'04')                    Page boundary
 @MFFTYPE.MFGLOB   02 ONES          8428  1          =           FLAG  (MFGLOB,X'02')                   Global pool
 00000A                0000A 0000A  8437  1          =           ORG   ,
 00000A                0000A 0000A  8438             =         END   ,
                                    8447      45.              COPY  MSGPARM
 000000                00000 0000C  8448             =@MSGATT  RECORD BEGIN
 000000                             8456  1          =@MSGCNAM   DS    CL8           Name of the message channel
 000008                             8457  1          =@MSGCECB   DS    A             Address of an ECB for channel activity
 00000C                0000C 0000C  8458             =         END   ,
0000000                00000 00008  8468             =@MSGGBUF RECORD BEGIN
 000000                             8476  1          =@MSGGCHN   DS    A             Channel id where the buffer belongs
 000004                             8477  1          =@MSGGLEN   DS    A             Length of the buffer
 000008                00008 00008  8478             =         END   ,
0000000                00000 00014  8488             =@MSGSEND RECORD BEGIN
 000000                             8496  1          =@MSGSCHN   DS    A             Channel id on which to send this buffer
 000004                             8497  1          =@MSGSBUF   DS    A             Location of the buffer to send
 000008                             8498  1          =@MSGSSEQ   DS    A             Unique message sequence number
 00000C                             8499  1          =@MSGSVAL   DS    A             Value associated with the buffer
 000010                             8500  1          =@MSGSPRI   DS    A             Priority of the message
 000014                00014 00014  8501             =         END   ,
0000000                00000 00014  8511             =@MSGRECV RECORD BEGIN
 000000                             8519  1          =@MSGRCHN   DS    A             Channel id from which to get the buffer
 000004                             8520  1          =@MSGRLEN   DS    A             Length of the buffer
 000008                             8521  1          =@MSGRSEQ   DS    A             Unique message sequence number
 00000C                             8522  1          =@MSGRVAL   DS    A             Value associated with buffer (Reply)
 000010                             8523  1          =@MSGRPRI   DS    A             Priority of the message
 000014                00014 00014  8524             =         END   ,
0000000                00000 00008  8534             =@MSGFREE RECORD BEGIN
 000000                             8542  1          =@MSGFCHN   DS    A             Channel id
 000004                             8543  1          =@MSGFBUF   DS    A             Buffer pointer
 000008                00008 00008  8544             =         END   ,
1GSTINTF  (GSTI00) (09:40) (22MAR04) IHAPSAE  - PSA Extension (ESAME)                                                       Page    9
0Loc    Object Code    Addr1 Addr2  Stmt Lv Lineno    Source Statement           (Hibal 5, Asmedit 3.3)  HLASM R4.0  2004/03/22 09.40
+___    ______ ____    _____ _____  ____ __ ______    ______ _________
0000000                00000 00008  8554             =@MSGCAN  RECORD BEGIN
 000000                             8562  1          =@MSGCCHN   DS    A             Channel id
 000004                             8563  1          =@MSGCSEQ   DS    A             Sequence number of message to cancel
 000008                00008 00008  8564             =         END   ,
                                    8573      46.              COPY  LOCKPARM
                                    8574             =*******************************************************************
                                    8575             =*                                                                 *
                                    8576             =*    LOCKPARM - Lock routine calling parms                        *
                                    8577             =*                                                                 *
                                    8578             =*******************************************************************
0000000                00000 00011  8580             =@LOCKCRE RECORD BEGIN
 000000                             8588  1          =@LOCKNAM   DS    CL16          Name of the lock
 000010 00                          8589  1          =@LOCKFL    FLAG  ,
 @LOCKFL.@LFSPIN   80 ONES          8593  1          =           FLAG  @LFSPIN       Spin type lock
 000011                00011 00011  8598             =         END   ,
                                    8607             =*
 000000                00000 00004  8608             =@LOCKS   RECORD BEGIN
 000000                             8616  1          =@LOCKID    DS    A             Lock id
 000004                00004 00004  8617             =         END   ,
                                    8626      47.              COPY  POOLPARM
                                    8627             =*******************************************************************
                                    8628             =*                                                                 *
                                    8629             =*       POOLPARM -- OS Memory routine calling parms               *
                                    8630             =*                                                                 *
                                    8631             =*******************************************************************
0000000                00000 0000C  8633             =@MEMORY  RECORD BEGIN
 000000                             8641  1          =@MEMDATA   DS    X                       Reserved
 000001                             8642  1          =@MEMKEY    DS    X                       Storage key
                                    8643  1          =
 000002 00                          8644  1          =@MEMPOOL   FLAG   ,                      Type of memory request
 @MEMPOOL.MEMTSYS  80 ONES          8648  1          =           FLAG  (MEMTSYS,X'80')         System pool
 @MEMPOOL.MEMTA16M 10 ONES          8657  1          =           FLAG  (MEMTA16M,X'10')        Above 16 Meg line
 @MEMPOOL.MEMTGLOB 08 ONES          8666  1          =           FLAG  (MEMTGLOB,X'08')        Global subpool
 @MEMPOOL.MEMTFIX  04 ONES          8675  1          =           FLAG  (MEMTFIX,X'04')         Fixed
 @MEMPOOL.MEMTPAGE 02 ONES          8684  1          =           FLAG  (MEMTPAGE,X'02')        Page boundary
 @MEMPOOL.MEMTDEF  01 ONES          8693  1          =           FLAG  (MEMTDEF,X'01')         Default subpool
                                    8702  1          =
 000003 00                          8703  1          =@MEMCODE   FLAG  ,                       MVS codes
 @MEMCODE.MEMCANYR 40 ONES          8707  1          =           FLAG  (MEMCANYR,X'40')        Frame may be above 16m real
 @MEMCODE.MEMCANYV 30 ONES          8716  1          =           FLAG  (MEMCANYV,X'30')        Virtual may be above 16m
 @MEMCODE.MEMCBLOV 10 ONES          8725  1          =           FLAG  (MEMCBLOV,X'10')        Virtual must be below 16m
 @MEMCODE.MEMCRESV 30 OFF           8734  1          =           FLAG  (MEMCRESV,X'30',OFF)    Location determined by rmode
 @MEMCODE.MEMCVAR  08 ONES          8744  1          =           FLAG  (MEMCVAR,X'08')         Variable type request
 @MEMCODE.MEMCPGB  04 ONES          8753  1          =           FLAG  (MEMCPGB,X'04')         Page boundary alignment
 @MEMCODE.MEMCUNC  02 ONES          8762  1          =           FLAG  (MEMCUNC,X'02')         Unconditional type request
 @MEMCODE.MEMCFREE 01 ONES          8771  1          =           FLAG  (MEMCFREE,X'01')        Freemain request
                                    8780  1          =
 000004                             8781  1          =@MEMLEN    DS    A                       Length of area
 000008                             8782  1          =@MEMLOC    DS    A                       Location of area
 00000C                0000C 0000C  8783             =         END   ,
                                    8792      48.              COPY  POSTPARM
                                    8793             =*******************************************************************
                                    8794             =*                                                                 *
                                    8795             =*      POSTPARM -- Post ecb parameter list                        *
1GSTINTF  (GSTI00) (09:40) (22MAR04) IHAPSAE  - PSA Extension (ESAME)                                                       Page   10
0Loc    Object Code    Addr1 Addr2  Stmt Lv Lineno    Source Statement           (Hibal 5, Asmedit 3.3)  HLASM R4.0  2004/03/22 09.40
+___    ______ ____    _____ _____  ____ __ ______    ______ _________
0                                   8796             =*                                                                 *
                                    8797             =*******************************************************************
0000000                00000 00004  8799             =@FPOST   RECORD BEGIN
 000000                             8807  1          =@FPSTECB   DS    A                       ECB address
 000004                00004 00004  8808             =         END   ,
                                    8817      49.              COPY  SBTPARM
                                    8818             =*******************************************************************
                                    8819             =*                                                                 *
                                    8820             =*       SBTPARM -- Sub-task entry parameter list                  *
                                    8821             =*                                                                 *
                                    8822             =*******************************************************************
0000000                00000 00004  8824             =SBTPARM  RECORD BEGIN
 000000                             8832  1          =SBTDATA    DS    A                       Parameter
 000004                00004 00004  8833             =         END   ,
                                    8842      50.              COPY  SPNPARM
                                    8843             =*******************************************************************
                                    8844             =*                                                                 *
                                    8845             =*       SPNPARM -- Sub-task creation calling parms                *
                                    8846             =*                                                                 *
                                    8847             =*******************************************************************
0000000                00000 0001C  8849             =@SPAWN   RECORD BEGIN
 000000                             8857  1          =@SPNNAME   DS    CL8                     Task name
 000008                             8858  1          =@SPNEP     DS    A                       Entry point
 00000C                             8859  1          =@SPNPARM   DS    A                       Parameter to be passed
 000010                             8860  1          =@SPNTRC    DS    A                       Number of trace table entries
 000014                             8861  1          =@SPNSTK    DS    A                       Stack size
 000018                             8862  1          =@SPNDPRI   DS    A                       Relative MVS task priority
 00001C                0001C 0001C  8863             =         END
                                    8872      51.              COPY  TRCEPARM
                                    8873             =*******************************************************************
                                    8874             =*                                                                 *
                                    8875             =*       TRCEPARM -- Trace routine calling parms                   *
                                    8876             =*                                                                 *
                                    8877             =*******************************************************************
0000000                00000 00058  8879             =@TRACE   RECORD BEGIN
                                    8887  1          =
 000000 00                          8888  1          =@TRTYPE    FLAG   ,                      Type of the trace entry
 @TRTYPE.TRCFTRA   00 EQ            8892  1          =           FLAG  (TRCFTRA,0,EQ)          Trace
 @TRTYPE.TRCFMCHK  01 EQ            8902  1          =           FLAG  (TRCFMCHK,1,EQ)         Machine check
 @TRTYPE.TRCFSVC   02 EQ            8912  1          =           FLAG  (TRCFSVC,2,EQ)          Svc
 @TRTYPE.TRCFPI    03 EQ            8922  1          =           FLAG  (TRCFPI,3,EQ)           Program
 @TRTYPE.TRCFEXT   04 EQ            8932  1          =           FLAG  (TRCFEXT,4,EQ)          External
 @TRTYPE.TRCFIO    05 EQ            8942  1          =           FLAG  (TRCFIO,5,EQ)           I/O
 @TRTYPE.TRCFRSRT  06 EQ            8952  1          =           FLAG  (TRCFRSRT,6,EQ)         Restart key
 @TRTYPE.TRCFABND  07 EQ            8962  1          =           FLAG  (TRCFABND,7,EQ)         Abend
                                    8972  1          =
 000001                             8973  1          =@TRDLEN    DS    X                       Length of misc data
 000002                             8974  1          =@TRIC      DS    H                       Interrupt code
 000004                             8975  1          =@TRCPID    DS    H                       CPU ID
 000006                             8976  1          =           DS    H
 000008                             8977  1          =@TRNAME    DS    CL8                     Trace name
 000010                             8978  1          =@TRPSW     DS    XL8                     PSW
1GSTINTF  (GSTI00) (09:40) (22MAR04) IHAPSAE  - PSA Extension (ESAME)                                                       Page   11
0Loc    Object Code    Addr1 Addr2  Stmt Lv Lineno    Source Statement           (Hibal 5, Asmedit 3.3)  HLASM R4.0  2004/03/22 09.40
+___    ______ ____    _____ _____  ____ __ ______    ______ _________
0000018                             8979  1          =@TRREGS    DS    16A                     Register area
 000058                00058 00058  8980             =         END   ,
                                    8989      52.              COPY  WAITPARM
                                    8990             =*******************************************************************
                                    8991             =*                                                                 *
                                    8992             =*      WAITPARM -- Wait ecb parameter list                        *
                                    8993             =*                                                                 *
                                    8994             =*******************************************************************
0000000                00000 00004  8996             =@FWAIT   RECORD BEGIN
 000000                             9004  1          =@FWTECB    DS    A                       ECB address
 000004                00004 00004  9005             =         END   ,
1GSTINTF  (GSTI00) (09:40) (22MAR04) IHAPSAE  - PSA Extension (ESAME)                                                       Page   12
0Loc    Object Code    Addr1 Addr2  Stmt Lv Lineno    Source Statement           (Hibal 5, Asmedit 3.3)  HLASM R4.0  2004/03/22 09.40
+___    ______ ____    _____ _____  ____ __ ______    ______ _________
0                                   9015      54.              COPY  SEGCBD
 000000                00000 00028  9016             =SEGCBD   RECORD BEGIN
                                    9024  1          =*
                                    9025  1          =* LAYOUT OF THE SEG CONTROL BLOCK
                                    9026  1          =*
 000000                             9027  1          =SEGADD     DS     A                 LOCATION OF BUFFER
 000004                             9028  1          =SEGWRT     DS     A                 LOCATION OF PROC ROUTINE
 000008                             9029  1          =SEGBLEN    DS     Y                 LENGTH OF BUFFER
 00000A                             9030  1          =SEGCNT     DS     H                 COUNT OF CHARS IN BUFFER
 00000C                             9031  1          =SEGMCNT    DS     H                 COUNT AT LAST MARK
 00000E                             9032  1          =SEGRCNT    DS     H                 COUNT AT LAST RECORD
 000010 00                          9033  1          =SEGFLG1    FLAG   ,                 State flags for processing rtn
 SEGFLG1.SEGFINIT  00 EQ            9037  1          =           FLAG   (SEGFINIT,0,EQ)   INITIALIZATION CALL
 SEGFLG1.SEGFEOR   01 EQ            9047  1          =           FLAG   (SEGFEOR,1,EQ)    SEGEndOfRecord CALL
 SEGFLG1.SEGFEOB   02 EQ            9057  1          =           FLAG   (SEGFEOB,2,EQ)    SEGEndOfBuffer CALL
 SEGFLG1.SEGFOVER  03 EQ            9067  1          =           FLAG   (SEGFOVER,3,EQ)   BUFFER OVERFLOW
 000011                             9077  1          =SEGFLG2    DS     X                 USER FLAGS
 000014                             9078  1          =SEGUSER    DS     5A                USER WORK
 000028                00028 00028  9079             =         END
1GSTINTF  (GSTI00) (09:40) (22MAR04) IHAPSAE  - PSA Extension (ESAME)                                                       Page   13
0Loc    Object Code    Addr1 Addr2  Stmt Lv Lineno    Source Statement           (Hibal 5, Asmedit 3.3)  HLASM R4.0  2004/03/22 09.40
+___    ______ ____    _____ _____  ____ __ ______    ______ _________
0                                   9089      56.              COPY  DSALPARM
                                    9090             =*******************************************************************
                                    9091             =*                                                                 *
                                    9092             =*    @DSDALLO - Parameters for dynamic allocation routine         *
                                    9093             =*                                                                 *
                                    9094             =*******************************************************************
0000000                00000 00004  9096             =@DSDALLO RECORD BEGIN
 000000                             9104  1          =@DSDPARM   DS    A                       Pointer to @DSALLO parm area
 000004                00004 00004  9105             =         END   ,
-
                                    9115             =*******************************************************************
                                    9116             =*                                                                 *
                                    9117             =*    @DSALLO  - Data set allocation parameters                    *
                                    9118             =*                                                                 *
                                    9119             =*******************************************************************
0000000                00000 00060  9121             =@DSALLO  RECORD BEGIN
 000000                             9129  1          =@DSDSID    DS    A                       Device id
 000004                             9130  1          =@DSDSN     DS    CL44                    Data set name
 000030                             9131  1          =@DSMEM     DS    CL8                     Memeber name or GDG
 000038                             9132  1          =@DSDDN     DS    CL8                     DD name
 000040                             9133  1          =@DSVOL     DS    CL6                     Volume id
 000046                             9134  1          =@DSRTN     DS    H                       Return code from SVC 99
 000048                             9135  1          =@DSERR     DS    H                       Error code from SVC 99
 00004A                             9136  1          =@DSRSN     DS    H                       Reason code from SVC 99
                                    9137  1          =
 00004C 00                          9138  1          =@DSFLAG    FLAG  ,
 @DSFLAG.@DSSHR    80 ONES          9142  1          =           FLAG  @DSSHR                  Data set enqueued share
 @DSFLAG.@DSNEW    40 ONES          9147  1          =           FLAG  @DSNEW                  Data set is new
 @DSFLAG.@DSNOCAT  20 ONES          9152  1          =           FLAG  @DSNOCAT                Do not catalog new data set
 @DSFLAG.@DSGDG    10 ONES          9157  1          =           FLAG  @DSGDG                  Data set needs PROTO.DSCB
                                    9162  1          =*
                                    9163  1          =*  Disk Allocation Information - used only if new data set
                                    9164  1          =*
 00004D 00                          9165  1          =@DSALCF    FLAG  ,                       Allocation flags
 @DSALCF.@DSACYL   80 ONES          9169  1          =           FLAG  @DSACYL                 Cylinder allocation
 @DSALCF.@DSABLK   40 ONES          9174  1          =           FLAG  @DSABLK                 Average block allocation
 @DSALCF.@DSACNTG  20 ONES          9179  1          =           FLAG  @DSACNTG                Contiguous allocation
 @DSALCF.@DSARLSE  10 ONES          9184  1          =           FLAG  @DSARLSE                Release unused space at close
 @DSALCF.@DSARND   08 ONES          9189  1          =           FLAG  @DSARND                 Round up to cylinders
                                    9194  1          =
 000050                             9195  1          =@DSABL     DS    A                       Average block length
 000054                             9196  1          =@DSPTQ     DS    A                       Primary allocation quantity
 000058                             9197  1          =@DSSTQ     DS    A                       Secondary allocation quantity
 00005C                             9198  1          =@DSDBQ     DS    A                       Directory blocks
 000060                00060 00060  9199             =         END   ,
1GSTINTF  (GSTI00) (09:40) (22MAR04) IHAPSAE  - PSA Extension (ESAME)                                                       Page   14
0Loc    Object Code    Addr1 Addr2  Stmt Lv Lineno    Source Statement           (Hibal 5, Asmedit 3.3)  HLASM R4.0  2004/03/22 09.40
+___    ______ ____    _____ _____  ____ __ ______    ______ _________
0                                   9209      58.              COPY  SEGPARM
 000000                00000 0000D  9210             =@SEG     RECORD BEGIN        Used for SEG,T,B,TB,EOR,EOB
 000000                             9218  1          =@SEGCB     DS    A             Address of the seg control block
 000004                             9219  1          =@SEGLOC    DS    A             Location of the text segment to be added
 000008                             9220  1          =@SEGLEN    DS    A             Length of the text segment to be added
 00000C 00                          9221  1          =@SEGTYPE   FLAG  ,
 @SEGTYPE.@SEGB    80 ONES          9225  1          =           FLAG  @SEGB         Add a blank after the segment
 @SEGTYPE.@SEGT    40 ONES          9230  1          =           FLAG  @SEGT         Trim trailing blanks from the segment
 @SEGTYPE.@SEGTB   C0 NZ            9235  1          =           FLAG  (@SEGTB,@SEGB+@SEGT)    Trim trailing, and add 1 blank
 @SEGTYPE.@SEGMK   20 ONES          9246  1          =           FLAG  @SEGMK        Mark the buffer after this segment
 @SEGTYPE.@SEGEOR  10 ONES          9251  1          =           FLAG  @SEGEOR       This is the end of a logical record
 @SEGTYPE.@SEGEOB  08 ONES          9256  1          =           FLAG  @SEGEOB       This is the last segment for the buffer
 00000D                0000D 0000D  9261             =         END   ,
-000000                00000 0000E  9271             =@SEGINIT RECORD BEGIN
 000000                             9279  1          =@SEGICB    DS    A
 000004                             9280  1          =@SEGIRTN   DS    A             Address of the processing routine
 000008                             9281  1          =@SEGILOC   DS    A             Location of the buffer
 00000C                             9282  1          =@SEGILEN   DS    Y             Length of the buffer
 00000E                0000E 0000E  9283             =         END   ,
-000000                00000 00008  9293             =@SEGCOL  RECORD BEGIN
 000000                             9301  1          =@SEGCCB    DS    A             Address of the control block
 000004                             9302  1          =@SEGCNUM   DS    A             Column number to go to
 000008                00008 00008  9303             =         END   ,
-000000                00000 00018  9313             =@SEGCORE RECORD BEGIN
 000000                             9321  1          =@SEGXCB    DS    A             Control block address
 000004                             9322  1          =@SEGXLOC   DS    A             Location of the core (MVS VA)
 000008                             9323  1          =@SEGXLEN   DS    A             Length of the core to dump
 00000C                             9324  1          =@SEGXSPA   DS    X             # blank lines between each dump line
 00000D 00                          9325  1          =@SEGXFLG   FLAG  ,
 @SEGXFLG.@SEGXF16 80 ONES          9329  1          =           FLAG  @SEGXF16      16 Bytes per line  (32 bytes per line)
 @SEGXFLG.@SEGXFAL 40 ONES          9334  1          =           FLAG  @SEGXFAL      Alpha (EBCDIC)     (no EBCDIC)
 @SEGXFLG.@SEGXFOF 20 ONES          9339  1          =           FLAG  @SEGXFOF      Print offsets      (Print Addresses)
 @SEGXFLG.@SEGXFID 10 ONES          9344  1          =           FLAG  @SEGXFID      Print the id       (Dont print it)
 @SEGXFLG.@SEGXFRL 08 ONES          9349  1          =           FLAG  @SEGXFRL      Print repeat lines (Print summary)
 000010                             9354  1          =@SEGXOFF   DS    A             Address to be 0 offset
 000014                             9355  1          =@SEGXID    DS    CL4           Control block id
 000018                00018 00018  9356             =         END   ,
-000000                00000 00004  9366             =@SEGRTN  RECORD BEGIN                  Parameters to pass to proc rtn
 000000                             9374  1          =@SEGRCB    DS    A                       Address of control block
 000004                00004 00004  9375             =         END   ,
-000000                00000 00008  9385             =@SEGSTK  RECORD BEGIN
 000000                             9393  1          =@SEGSCB    DS    A                       Address of seg control block
 000004                             9394  1          =@SEGSST    DS    A                       Start of stack (from RTCB)
 000008                00008 00008  9395             =         END   ,
1GSTINTF  (GSTI00) (09:40) (22MAR04) IHAPSAE  - PSA Extension (ESAME)                                                       Page   15
0Loc    Object Code    Addr1 Addr2  Stmt Lv Lineno    Source Statement           (Hibal 5, Asmedit 3.3)  HLASM R4.0  2004/03/22 09.40
+___    ______ ____    _____ _____  ____ __ ______    ______ _________
0                                   9405      60.              COPY  IORPARM
                                    9406             =*******************************************************************
                                    9407             =*                                                                 *
                                    9408             =*     @IORPARM - ORVYL I/O request parameters                     *
                                    9409             =*                                                                 *
                                    9410             =*******************************************************************
0000000                00000 00014  9412             =@IORB    RECORD BEGIN
 000000                             9420  1          =@IORRQID   DS    A                       Request ID
 000004                             9421  1          =@IOROFF    DS    A                       Offset (guest real to MVS)
 000008                             9422  1          =@IORPARM   DS    A                       Pointer to user parm list
 00000C                             9423  1          =@IORSCH    DS    A                       Subchannel (device ID)
 000010                             9424  1          =@IORKEY    DS    X                       Channel program protect key
 000011                             9425  1          =@IORCC     DS    X                       Condition code (returned)
 000012                             9426  1          =           DS    2X                      Reserved
 000014                00014 00014  9427             =         END   ,
-
                                    9437             =*******************************************************************
                                    9438             =*                                                                 *
                                    9439             =*     @IOUPARM - I/O Device id allocate request parameters        *
                                    9440             =*                                                                 *
                                    9441             =*******************************************************************
0000000                00000 00004  9443             =@IOUPARM RECORD BEGIN
 000000                             9451  1          =@IOUDEVT   DS    A
                                    9452  1          =*
                                    9453  1          =*  Device types
                                    9454  1          =*
                                    9455  1          =#IOUPAGE   EQU   4                       | paging
                                    9456  1          =#IOUSWAP   EQU   8                       | swap
                                    9457  1          =#IOUFILE   EQU   12                      | file
                                    9458  1          =#IOUSCOM   EQU   16                      | path
                                    9459  1          =#IOUJES    EQU   20                      | JES
                                    9460  1          =#IOUHSP    EQU   24                      | Standard hiperspace
                                    9461  1          =#IOUESO    EQU   28                      | Cached hiperspace
 000004                00004 00004  9462             =         END   ,
-
                                    9472      62.              COPY  GSTIPARM
                                    9473             =*******************************************************************
                                    9474             =*                                                                 *
                                    9475             =*      @GSTIIOT -- Guest I/O complete parameter list              *
                                    9476             =*                                                                 *
                                    9477             =*******************************************************************
0000000                00000 00008  9479             =@GSTIIOT RECORD BEGIN
 000000                             9487  1          =@GSTIRQI   DS    A                       Request id
 000004                             9488  1          =@GSTICS    DS    A                       Completion status
 000008                00008 00008  9489             =         END   ,
1GSTINTF  (GSTI00) (09:40) (22MAR04) IHAPSAE  - PSA Extension (ESAME)                                                       Page   16
0Loc    Object Code    Addr1 Addr2  Stmt Lv Lineno    Source Statement           (Hibal 5, Asmedit 3.3)  HLASM R4.0  2004/03/22 09.40
+___    ______ ____    _____ _____  ____ __ ______    ______ _________
0                                   9499      64.              COPY  PARMPARM
                                    9500             =*********************************************************************
                                    9501             =*                                                                   *
                                    9502             =*          Parameters to obtain initialization parameters           *
                                    9503             =*                                                                   *
                                    9504             =*********************************************************************
0000000                00000 00010  9506             =@PARMDO  RECORD BEGIN
 000000                             9514  1          =@PARILOC   DS    A                       Input location
 000004                             9515  1          =@PARILEN   DS    A                       | length
 000008                             9516  1          =@PAROLOC   DS    A                       Output location
 00000C                             9517  1          =@PAROLEN   DS    A                       | length
 000010                00010 00010  9518             =         END   ,
0000000                00000 00004  9528             =PARMIN   RECORD BEGIN
 000000 00                          9536  1          =PARMTYPE   FLAG  ,
 PARMTYPE.PARMFSTR 00 EQ            9540  1          =           FLAG  (PARMFSTR,0,EQ)         Return a string
 PARMTYPE.PARMFINT 04 EQ            9550  1          =           FLAG  (PARMFINT,4,EQ)         Return an integer
 PARMTYPE.PARMFYN  08 EQ            9560  1          =           FLAG  (PARMFYN,8,EQ)          Return Yea or Nay
 PARMTYPE.PARMFFLT 0C EQ            9570  1          =           FLAG  (PARMFFLT,12,EQ)        Return a floating point
 000001                             9580  1          =           DS    3X                      - Available -
 000004                             9581  1          =PARMKEYS   DS    0A                      Start of 8 byte keys
 000004                00004 00004  9582             =         END   ,
-
                                    9592      66.     *
                                    9593      67.     *  Guest interface parameter work area
                                    9594      68.     *
 000000                00000 0004C  9595      69.     GSTIPARM RECORD BEGIN
 000000                             9603  1   70.     GSTIPRMI   DS    XL(L'PARMIN)            PARMIN area
 000004                             9604  1   71.     GSTIKEY1   DS    CL8                     Key 1
 00000C                             9605  1   72.     GSTIKEY2   DS    CL8                     Key 2
 000014                             9606  1   73.     GSTIKEY3   DS    CL8                     Key 3
 00001C                             9607  1   74.     GSTIVAL    DS    A                       Integer value
                                    9608  1   75.     GSTIRDW    EQU   GSTIVAL                 RDW for string parameters
 000020                             9609  1   76.     GSTISTR    DS    CL44                    String parameter area
 00004C                0004C 0004C  9610      77.              END   ,
1GSTINTF  (GSTI00) (09:40) (22MAR04) IHAPSAE  - PSA Extension (ESAME)                                                       Page   17
0Loc    Object Code    Addr1 Addr2  Stmt Lv Lineno    Source Statement           (Hibal 5, Asmedit 3.3)  HLASM R4.0  2004/03/22 09.40
+___    ______ ____    _____ _____  ____ __ ______    ______ _________
0                                   9620      79.              COPY  PZERO
 000000                00000 00280  9621             =PZERO    RECORD BEGIN
                                    9629  1          =*
                                    9630  1          =* Real Page 0.  Each CPU has its own copy of this area.
                                    9631  1          =*
-                                   9633  1          =****************************************************************
                                    9634  1          =*               Fields Fixed by the Architecture               *
                                    9635  1          =*               ********************************               *
                                    9636  1          =*                                                              *
 000000                             9637  1          =PZRSNPSW   DS    D             Restart new PSW                 *
 000008                             9638  1          =PZRSOPSW   DS    D             Restart old PSW                 *
 000010                             9639  1          =           DS    D                                             *
 000018                             9640  1          =PZEXOPSW   DS    D             External old PSW                *
 000020                             9641  1          =PZSVOPSW   DS    D             Supervisor old PSW              *
 000028                             9642  1          =PZPIOPSW   DS    D             Program old PSW                 *
 000030                             9643  1          =PZMCOPSW   DS    D             Machine check old PSW           *
 000038                             9644  1          =PZIOOPSW   DS    D             I/O old PSW                     *
 000040                             9645  1          =           DS    3D                                            *
 000058                             9646  1          =PZEXNPSW   DS    D             External new PSW                *
 000060                             9647  1          =PZSVNPSW   DS    D             Supervisor new PSW              *
 000068                             9648  1          =PZPINPSW   DS    D             Program new PSW                 *
 000070                             9649  1          =PZMCNPSW   DS    D             Machine check new PSW           *
 000078                             9650  1          =PZIONPSW   DS    D             I/O new PSW                     *
 000080                             9651  1          =           DS    F                                             *
 000084                             9652  1          =PZEXCPU    DS    H             CPU address for EXT int         *
 000086                             9653  1          =PZEXIC     DS    H             External interrupt code         *
 000088                             9654  1          =PZSVILC    DS    H             Supervisor call ILC             *
 00008A                             9655  1          =PZSVIC     DS    H             Supervisor interrupt code       *
 00008C                             9656  1          =PZPIILC    DS    H             Program ILC                     *
 00008E                             9657  1          =PZPIIC     DS    H             Program interrupt code          *
 000090                             9658  1          =PZTREXA    DS    A             Translation exception address   *
 000094                             9659  1          =PZMONCL    DS    H             Monitor Class number            *
 000096                             9660  1          =PZPERCD    DS    H             PER code                        *
 000098                             9661  1          =PZPERA     DS    A             PER Address                     *
 00009C                             9662  1          =PZMONCD    DS    A             Monitor Code                    *
 0000A0                             9663  1          =           DS    3D                                            *
 0000B8                             9664  1          =PZIOSID    DS    A             I/O subsystem ID word           *
 0000BC                             9665  1          =PZIOPRM    DS    A             I/O Parameter                   *
 0000C0                             9666  1          =PZIOSCS    DS    A             I/O subchannel ending status    *
 0000C4                             9667  1          =           DS    A                                             *
 0000C8                             9668  1          =           DS    39D                                           *
                                    9669  1          =*                                                              *
                                    9670  1          =*            ***************************************           *
                                    9671  1          =*            End of Fields fixed by the architecture           *
                                    9672  1          =****************************************************************
1GSTINTF  (GSTI00) (09:40) (22MAR04) IHAPSAE  - PSA Extension (ESAME)                                                       Page   18
0D-Loc  Object Code    Addr1 Addr2  Stmt Lv Lineno    Source Statement           (Hibal 5, Asmedit 3.3)  HLASM R4.0  2004/03/22 09.40
+_____  ______ ____    _____ _____  ____ __ ______    ______ _________
0                                   9674  1          =*
                                    9675  1          =* Fields of general interest
                                    9676  1          =*
 000200                             9677  1          =PZMATP     DS    A             Address of the MAT
 000204                             9678  1          =           DS    A             ** Reserved **
 000208                             9679  1          =PZCURPID   DS    0D            Unique ID of the current process
 000208                             9680  1          =PZCURASB   DS    A             Addr of ASB for current Address space
 00020C                             9681  1          =PZCURTSK   DS    A             ID of current task in the Address space
 000210                             9682  1          =PZLCPUA    DS    A             Logical CPU address
 000214                             9683  1          =PZCPUMSK   DS    A             CPU address mask bit
 000218                             9684  1          =PZPSWM     DS    X             PSW mask for disabling
 000219                             9685  1          =           DS    X             ** Reserved **
                                    9686  1          =*
                                    9687  1          =* Termination/Trace information
                                    9688  1          =*
 00021A 00                          9689  1          =PZTERMFL   FLAG  ,             Termination flags
 PZTERMFL.PZABORT  80 ONES          9693  1          =           FLAG  PZABORT         ABORT macro issued
 PZTERMFL.PZATERM  40 ONES          9698  1          =           FLAG  PZATERM         Start termination processing
 00021B                             9703  1          =PZABSM     DS    X             Save area for system mask in ABORT
 00021C                             9704  1          =PZABR15    DS    A             Save area for R15 in an ABORT
 000220                             9705  1          =PZTZOFF    DS    D             Time zone offset
 000228                             9706  1          =           DS    22A           ** Reserved **
                                    9707  1          =*         DS    24A           ** Reserved **
 000280                00280 00280  9708             =         END   ,
1GSTINTF  (GSTI00) (09:40) (22MAR04) IHAPSAE  - PSA Extension (ESAME)                                                       Page   19
0Loc    Object Code    Addr1 Addr2  Stmt Lv Lineno    Source Statement           (Hibal 5, Asmedit 3.3)  HLASM R4.0  2004/03/22 09.40
+___    ______ ____    _____ _____  ____ __ ______    ______ _________
0                                   9718      81.     *
                                    9719      82.     * GETICAD -- Causes register r1 to be loaded with the effective
                                    9720      83.     *            address of an intercepeted instruction, (S, RS type
                                    9721      84.     *            instructions) or with 2 register numbers (for a
                                    9722      85.     *            RRE type instruction).
                                    9723      86.     *              These values are computed differently depending
                                    9724      87.     *            on whether the interception format 2 of the SIE
                                    9725      88.     *            instruction is installed.
                                    9726      89.     *              The values are obtained from IPB (POPs) which ORVYL
                                    9727      90.     *            calls ICAD1.
0                                   9729      92.              MACRO
                                    9730      93.     &L       GETICAD &R,&TYPE=
                                    9731      94.              AIF   ('&TYPE' EQ 'S').OK,('&TYPE' EQ 'RS').OK
                                    9732      95.              AIF   ('&TYPE' EQ 'RRE').OK
                                    9733      96.              MNOTE 8,'&TYPE is an invalid type for this macro.'
                                    9734      97.              MEXIT ,
                                    9735      98.     .OK      ANOP  ,
                                    9736      99.              IF    SIEICIF2,BEGIN          Interruption fmt 2 installed
                                    9737     100.              AIF   ('&TYPE' NE 'RRE').NOTRRE2
                                    9738     101.              LH    &R,SIEICAD1             RRE fmt 2
                                    9739     102.              AGO   .DON2
                                    9740     103.     .NOTRRE2 ANOP  ,                       S type for fmt 2
                                    9741     104.              LH    &R,SIEICAD1
                                    9742     105.              SLL   &R,16                   Clear high bits
                                    9743     106.              LR    EPAR,&R                 | load offset into reg
                                    9744     107.              SRL   &R,32-4                 | reg
                                    9745     108.              IF    (&R,NZ),BEGIN           Zero base
                                    9746     109.              LREGA &R,(&R)
                                    9747     110.              L     &R,0(,&R)
                                    9748     111.              END   ,                       OF Zero base
                                    9749     112.              SLL   EPAR,4                  | offset
                                    9750     113.              SRL   EPAR,32-12              |
                                    9751     114.              ALR   &R,EPAR
                                    9752     115.              AGO   .DON2
                                    9753     116.     .DON2    ANOP  ,
                                    9754     117.              END   ,                       OF Int fmt 2 installed
                                    9755     118.              ELSE  BEGIN                   Int fmt 2 NOT installed
                                    9756     119.              AIF   ('&TYPE' NE 'RRE').NOTRRE1
                                    9757     120.              L     &R,SIEICAD1             RRE fmt 1
                                    9758     121.              AGO   .DON1
                                    9759     122.     .NOTRRE1 ANOP  ,                       S type for fmt 1
                                    9760     123.              L     &R,SIEICAD1
                                    9761     124.              AGO   .DON1
                                    9762     125.     .DON1    ANOP  ,
                                    9763     126.              END   ,                       OF Int fmt 2 NOT installed
                                    9764     127.              MEND
                                    9765     128.     *
                                    9766     129.     * LREGA -- Causes register R1 to be loaded with the address of the
                                    9767     130.     *          guest register R2.  R2 may be contained in a Register
                                    9768     131.     *          as well. Register R1 may not be 0.
0                                   9770     133.              MACRO
                                    9771     134.     &L       LREGA &R1,&R2
                                    9772     135.     &L      $LA    &R1,&R2
                                    9773     136.              C     &R1,=F'14'              Which register set
1GSTINTF  (GSTI00) (09:40) (22MAR04) IHAPSAE  - PSA Extension (ESAME)                                                       Page   20
0Loc    Object Code    Addr1 Addr2  Stmt Lv Lineno    Source Statement           (Hibal 5, Asmedit 3.3)  HLASM R4.0  2004/03/22 09.40
+___    ______ ____    _____ _____  ____ __ ______    ______ _________
0                                   9774     137.              BH    H&SYSNDX
                                    9775     138.              BL    L&SYSNDX
                                    9776     139.              LA    &R1,SIEREG14            Load r14
                                    9777     140.              B     D&SYSNDX
                                    9778     141.     H&SYSNDX LA    &R1,SIEREG15            Load r15
                                    9779     142.              B     D&SYSNDX
                                    9780     143.     L&SYSNDX SLL   &R1,2
                                    9781     144.              LA    &R1,CPCREGS(&R1)        One of the set 0-13
                                    9782     145.     D&SYSNDX LABEL ,
                                    9783     146.              MEND
-                                   9785     148.     *
                                    9786     149.     * GRA -- This macro tranlates a guest real address into an MVS
                                    9787     150.     *        virtual address.
                                    9788     151.     *
                                    9789     152.              MACRO
                                    9790     153.     &L       GRA   &R1,&LOC
                                    9791     154.     &L      $LA    &R1,&LOC                Get the real address
                                    9792     155.              L     RVR,=X'7FFFF000'        Get a page mask
                                    9793     156.              NR    RVR,&R1                 Mask it out
                                    9794     157.              IF    Z,'O &R1,SIEPREFX'      0 -> PREFIX
                                    9795     158.              ELSEIF (RVR,EQ,SIEPREFX),'N &R1,=A(4095)'
                                    9796     159.              A     &R1,CPCORE              Add MVS offset
                                    9797     160.              MEND
1GSTINTF  (GSTI00) (09:40) (22MAR04) IHAPSAE  - PSA Extension (ESAME)                                                       Page   21
0Loc    Object Code    Addr1 Addr2  Stmt Lv Lineno    Source Statement           (Hibal 5, Asmedit 3.3)  HLASM R4.0  2004/03/22 09.40
+___    ______ ____    _____ _____  ____ __ ______    ______ _________
0                                   9799     162.     *
                                    9800     163.     * EXINT -- This macro causes an external interrupt on the CPU
                                    9801     164.     *          whose CPUB is now addressable.
                                    9802     165.     *
0                                   9804     167.              MACRO
                                    9805     168.     &L       EXINT &CODE=,&CPUREG=
                                    9806     169.     .*
                                    9807     170.     .*  CODE   -- The interrupt code to signal.  If this is left blank
                                    9808     171.     .*            then the interrupt code from the SIE data area is
                                    9809     172.     .*            used.  This should go well into a Y type constant.
                                    9810     173.     .*
                                    9811     174.     .*  CPUREG -- Indicates which register contains the CPU address to
                                    9812     175.     .*            store as the signaller.  If this is not specified
                                    9813     176.     .*            then no value is stored.
                                    9814     177.     .*
                                    9815     178.     &L       LABEL ,
                                    9816     179.              L     RS,CPPSALOC             Get the location of page 0
                                    9817     180.              WITH  (PZERO,RS),BEGIN
                                    9818     181.     .*
                                    9819     182.     .* Get us into KEY 0 with the minimum of disturbance
                                    9820     183.     .*
                                    9821     184.              LR    RVR,R2                  R2 must be saved/restored
                                    9822     185.              MODESET EXTKEY=ZERO,SAVEKEY=(2)
                                    9823     186.              LR    EPAR,R2
                                    9824     187.              LR    R2,RVR                  Restore the Register
                                    9825     188.     .*
                                    9826     189.     .* Swap the PSWs
                                    9827     190.     .*
                                    9828     191.              MVC   PZEXOPSW,SIEPSW         Save the OLD PSW
                                    9829     192.              MVC   SIEPSW,PZEXNPSW         Fetch the NEW PSW
                                    9830     193.     .*
                                    9831     194.     .* Put in the interrupt code
                                    9832     195.     .*
                                    9833     196.              AIF   ('&CODE' EQ '').NOCODE
                                    9834     197.              MVC   PZEXIC,=Y(&CODE)        Move in the ICODE
                                    9835     198.              AGO   .CPU
                                    9836     199.     .NOCODE  MVC   PZEXIC,SIEIEXCD         Move in the ICODE
                                    9837     200.     .*
                                    9838     201.     .* Put in the CPU address (if requested)
                                    9839     202.     .*
                                    9840     203.     .CPU     AIF   ('&CPUREG' EQ '').NOCPU
                                    9841     204.              STH   &CPUREG,PZEXCPU         Save the CPU address
                                    9842     205.     .NOCPU   ANOP
                                    9843     206.              MODESET KEYREG=EPAR           Restore the PSW key
                                    9844     207.              END   ,
                                    9845     208.              MEND
1GSTINTF  (GSTI00) (09:40) (22MAR04) IHAPSAE  - PSA Extension (ESAME)                                                       Page   22
0Loc    Object Code    Addr1 Addr2  Stmt Lv Lineno    Source Statement           (Hibal 5, Asmedit 3.3)  HLASM R4.0  2004/03/22 09.40
+___    ______ ____    _____ _____  ____ __ ______    ______ _________
0                                   9847     210.     *
                                    9848     211.     * RSINT -- This sets up for a RESTART interruption for the CPU
                                    9849     212.     *          whose CPUB is now addressable.
                                    9850     213.     *
0                                   9852     215.              MACRO
                                    9853     216.     &L       RSINT
                                    9854     217.     &L       LABEL ,
                                    9855     218.              L     RS,CPPSALOC             Get the location of page 0
                                    9856     219.              WITH  (PZERO,RS),BEGIN
                                    9857     220.     .*
                                    9858     221.     .* Get us into KEY 0 with the minimum of disturbance
                                    9859     222.     .*
                                    9860     223.              LR    RVR,R2                  R2 must be saved/restored
                                    9861     224.              MODESET EXTKEY=ZERO,SAVEKEY=(2)
                                    9862     225.              LR    EPAR,R2
                                    9863     226.              LR    R2,RVR                  Restore the Register
                                    9864     227.     .*
                                    9865     228.     .* Swap the PSWs
                                    9866     229.     .*
                                    9867     230.              MVC   PZRSOPSW,SIEPSW         Save the OLD PSW
                                    9868     231.              MVC   SIEPSW,PZRSNPSW         Fetch the NEW PSW
                                    9869     232.              MODESET KEYREG=EPAR           Restore the PSW key
                                    9870     233.              END   ,
                                    9871     234.              MEND
1GSTINTF  (GSTI00) (09:40) (22MAR04) IHAPSAE  - PSA Extension (ESAME)                                                       Page   23
0Loc    Object Code    Addr1 Addr2  Stmt Lv Lineno    Source Statement           (Hibal 5, Asmedit 3.3)  HLASM R4.0  2004/03/22 09.40
+___    ______ ____    _____ _____  ____ __ ______    ______ _________
0                                   9873     236.     *
                                    9874     237.     * PIINT -- Set up for a PROGRAM interrupt on the CPU whose CPUB is
                                    9875     238.     *          now addressable.
                                    9876     239.     *
0                                   9878     241.              MACRO
                                    9879     242.     &L       PIINT &CODE=,&EXA=,&ILEN=,&BACK=NO
                                    9880     243.     .*
                                    9881     244.     .*  CODE -- Interrupt code.  (REG) should fit in a Y type constant.
                                    9882     245.     .*
                                    9883     246.     .*  EXA  -- Exception Address.  Saved as the translation exception
                                    9884     247.     .*          address.  If it is not specified, no address is saved.
                                    9885     248.     .*
                                    9886     249.     .*  ILEN -- Instruction length code.  2, 4, or 6.  If the EX flag
                                    9887     250.     .*          in the SIE block is on it will be set to 4.
                                    9888     251.     .*
                                    9889     252.     .*  BACK -- Whether to back the PSW up to point at the instruction
                                    9890     253.     .*          Valid values are -- YES: Back it up, and
                                    9891     254.     .*                               NO: Don't back it up.
                                    9892     255.     .*
                                    9893     256.              LCLC  &R
                                    9894     257.     &L       LABEL ,
                                    9895     258.              L     RS,CPPSALOC             Get the location of page 0
                                    9896     259.              WITH  (PZERO,RS),BEGIN
                                    9897     260.     .*
                                    9898     261.     .* Get us into KEY 0 with the minimum of disturbance
                                    9899     262.     .*
                                    9900     263.              LR    RAR,R2                  R2 must be saved/restored
                                    9901     264.              MODESET EXTKEY=ZERO,SAVEKEY=(2)
                                    9902     265.              LR    EPAR,R2
                                    9903     266.              LR    R2,RAR                  Restore the Register
                                    9904     267.     .*
                                    9905     268.     .* Swap the PSWs
                                    9906     269.     .*
                                    9907     270.              MVC   PZPIOPSW,SIEPSW         Save the OLD PSW
                                    9908     271.              MVC   SIEPSW,PZPINPSW         Fetch the NEW PSW
                                    9909     272.     .*
                                    9910     273.     .* Save the interrupt code
                                    9911     274.     .*
                                    9912     275.              AIF   ('&CODE' EQ '').NOCODE  Default ICODE
                                    9913     276.              AIF   ('&CODE'(1,1) EQ '(').REGCODE
                                    9914     277.              MVC   PZPIIC,=Y(&CODE)        Move in the code
                                    9915     278.              AGO   .CODEEND
                                    9916     279.     .REGCODE ANOP
                                    9917     280.     &R       SETC  '&CODE'(2,K'&CODE-2)
                                    9918     281.              STH   &R,PZPIIC               Store the code
                                    9919     282.              AGO   .CODEEND
                                    9920     283.     .NOCODE  ANOP
                                    9921     284.              MVC   PZPIIC,SIEIPRCC         Save code given us
                                    9922     285.     .CODEEND ANOP
                                    9923     286.     .*
                                    9924     287.     .* Move in the exception address
                                    9925     288.     .*
                                    9926     289.              AIF   ('&EXA' EQ '').NOEXA
                                    9927     290.              AIF   ('&EXA'(1,1) EQ '(').REGEXA
                                    9928     291.              MVC   PZTREXA,&EXA            Save the exception address
1GSTINTF  (GSTI00) (09:40) (22MAR04) IHAPSAE  - PSA Extension (ESAME)                                                       Page   24
0Loc    Object Code    Addr1 Addr2  Stmt Lv Lineno    Source Statement           (Hibal 5, Asmedit 3.3)  HLASM R4.0  2004/03/22 09.40
+___    ______ ____    _____ _____  ____ __ ______    ______ _________
0                                   9929     292.              AGO   .NOEXA
                                    9930     293.     .REGEXA  ANOP
                                    9931     294.     &R       SETC  '&EXA'(2,K'&EXA-2)
                                    9932     295.              ST    &R,PZTREXA              Save the exception address
                                    9933     296.     .NOEXA   ANOP
                                    9934     297.     .*
                                    9935     298.     .* Move in the instruction length
                                    9936     299.     .*
                                    9937     300.              AIF   ('&ILEN' EQ '').NOILEN
                                    9938     301.              AIF   ('&ILEN' EQ '4').ILEN4
                                    9939     302.              IF    SIEICEX,'MVC PZPIILC,=Y(4)'
                                    9940     303.              ELSE  'MVC PZPIILC,=Y(&ILEN)'
                                    9941     304.              AGO   .ILCEND
                                    9942     305.     .ILEN4   ANOP
                                    9943     306.              MVC   PZPIILC,=Y(4)
                                    9944     307.              AGO   .ILCEND
                                    9945     308.     .NOILEN  ANOP
                                    9946     309.              MVC   PZPIILC,SIEIPRCL
                                    9947     310.     .ILCEND  ANOP
                                    9948     311.     .*
                                    9949     312.     .* Handle instruction Backup
                                    9950     313.     .*
                                    9951     314.              AIF   ('&BACK' NE 'YES').NOBACK
                                    9952     315.              L     RAR,PZPIOPSW+4
                                    9953     316.              SH    RAR,PZPIILC             Back it up
                                    9954     317.              ST    RAR,PZPIOPSW+4
                                    9955     318.     .NOBACK  ANOP
                                    9956     319.              MODESET KEYREG=EPAR           Restore the PSW key
                                    9957     320.              END   ,
                                    9958     321.              MEND
1GSTINTF  (GSTI00) (09:40) (22MAR04) IHAPSAE  - PSA Extension (ESAME)                                                       Page   25
0Loc    Object Code    Addr1 Addr2  Stmt Lv Lineno    Source Statement           (Hibal 5, Asmedit 3.3)  HLASM R4.0  2004/03/22 09.40
+___    ______ ____    _____ _____  ____ __ ______    ______ _________
0                                   9960     323.              COPY  GSTCT               Guest interface control block
                                    9961             =*******************************************************************
                                    9962             =*                                                                 *
                                    9963             =*      GSTCT  --  This control block contains information needed  *
                                    9964             =*                 by the ORVYL virtual machine (OVM/XA)           *
                                    9965             =*                                                                 *
                                    9966             =*******************************************************************
0000000                00000 00118  9968             =GSTCT    RECORD BEGIN
 000000 C7E2E3C3                    9976  1          =           DC    CL4'GSTC'
                                    9977  1          =*
                                    9978  1          =* Data that is global to all the virtual CPU's
                                    9979  1          =*
 000004                             9980  1          =GSTCNCPU   DS    A             Maximum CPUs in the configuration
                                    9981  1          =MINMEG     EQU   5             Minimum megabytes for us
 000008                             9982  1          =GSTCRMPC   DS    A             Maximum percentage of real memory
 00000C                             9983  1          =GSTCRMOV   DS    A             Approximate OS memory overhead
 000010                             9984  1          =GSTCCORE   DS    A             MVS Virtual address of guest main memory
 000014                             9985  1          =GSTCCLEN   DS    A             Size of the OVM main memory
 000018                             9986  1          =GSTCMINL   DS    A             Minimum size of the OVM
 00001C                             9987  1          =GSTCRCPA   DS    A             MVS Virtual address of the RCP area
 000020                             9988  1          =GSTCRCPL   DS    A             Length of the RCP area
 000024                             9989  1          =GSTCSCA    DS    A             MVS Virtual address of the SCA
 000028                             9990  1          =           DS    0D
 000028                             9991  1          =GSTCIOFQ   DS    A             Pointer to a queue of free IOCBs
 00002C                             9992  1          =           DS    A             Control word for the queue
 000030                             9993  1          =GSTCIOIQ   DS    A             Pointer to a queue of completed IOCBs
 000034                             9994  1          =           DS    A             Control word for the queue
 000038                             9995  1          =GSTCCPUS   DS    16A           Address of CPUB's for each CPU
                                    9996  1          =*
                                    9997  1          =* Orvyl guest termination
                                    9998  1          =*
 000078                             9999  1          =GSTCTECB   DS    D             Guest termination ECB
                                   10000  1          =*
                                   10001  1          =* Profiling information
                                   10002  1          =*
 000080                            10003  1          =GSTCPLOC   DS    A             Address of the profiling Control block
 000084                            10004  1          =GSTCPLCK   DS    A             ID of the profiling lock
 000088                            10005  1          =GSTCPINT   DS    D             Profiling interval
 000090 00                         10006  1          =GSTCPFLG   FLAG  ,
 GSTCPFLG.GSTCPON  80 ONES         10010  1          =           FLAG  GSTCPON       Profiling is active
                                   10015  1          =*
                                   10016  1          =* Table of guest memory to NOT dump
                                   10017  1          =*
 000094                            10018  1          =GSTCNOTC   DS    F             Count of items
                                   10019  1          =GSTCNOTM   EQU   16            Max count of items
 000098                            10020  1          =GSTCNOTI   DS    0D            Not dump item
 000098                            10021  1          =GSTCNOTF   DS    A             Guest addr of first page to not dump
 00009C                            10022  1          =GSTCNOTL   DS    A             Guest addr of last page to not dump
 0000A0                            10023  1          =           DS    XL(L'GSTCNOTI*(GSTCNOTM-1)) Rest of items
 000118                00118 00118 10024             =         END   ,
1GSTINTF  (GSTI00) (09:40) (22MAR04) IHAPSAE  - PSA Extension (ESAME)                                                       Page   26
0Loc    Object Code    Addr1 Addr2  Stmt Lv Lineno    Source Statement           (Hibal 5, Asmedit 3.3)  HLASM R4.0  2004/03/22 09.40
+___    ______ ____    _____ _____  ____ __ ______    ______ _________
0                                  10034     325.     *******************************************************************
                                   10035     326.     *                                                                 *
                                   10036     327.     *       CPUB - CPU control block.  There is one of these for each *
                                   10037     328.     *              virtual CPU.  It contains information about the    *
                                   10038     329.     *              state of the virtual CPU.                          *
                                   10039     330.     *                                                                 *
                                   10040     331.     *******************************************************************
0000000                00000 00200 10042     333.     CPUB     RECORD BEGIN
 000000 C3D7E4C2                   10050  1  334.                DC    CL4'CPUB'     Control block ID
                                   10051  1  335.     *
                                   10052  1  336.     * Bookkeeping information
                                   10053  1  337.     *
 000004                            10054  1  338.     CPGSTCT    DS    A             Address of the GSTCT
 000008                            10055  1  339.     CPTASKID   DS    A             Task Id of the subtask for this CPU
 00000C                            10056  1  340.     CPSIERA    DS    A             Real address of the SIE control block
 000010                            10057  1  341.     CPCORE     DS    A             MVS virtual address of start of memory
 000014                            10058  1  342.     CPCLEN     DS    A             Length of the CORE
 000018                            10059  1  343.     CPCLAST    DS    A             Addr of Last byte of core+1
 00001C                            10060  1  344.     CPGRSAVE   DS    16A           Register Save area
                                   10061  1  345.     *
                                   10062  1  346.     *
                                   10063  1  347.     *
 00005C                            10064  1  348.     CPECB      DS    A             Wakeup the CPU ECB
 000060 00                         10065  1  349.     CPCS       FLAG  ,             CPU state flags
 CPCS.CPCSRUN      80 ONES         10069  1  350.                FLAG  CPCSRUN         CPU in running state
 CPCS.CPCSTERM     40 ONES         10074  1  351.                FLAG  CPCSTERM        Guest termination time
 CPCS.CPCSDIS1     20 ONES         10079  1  352.                FLAG  CPCSDIS1        Display guest PSW and REGs
 000064                            10084  1  353.     CPCPUA     DS    A             CPU Address (with high bit on)
 000068                            10085  1  354.     CPCPUID    DS    D             CPU ID
 000070                            10086  1  355.     CPPSALOC   DS    A             MVS virtual address of PSA
 000078                            10087  1  356.     CPCPUTM    DS    D             CPU Time for host services
                                   10088  1  357.     *
                                   10089  1  358.     * Signal processor information
                                   10090  1  359.     *
 000080                            10091  1  360.     CPEXCALL   DS    A             EXT CALL - Addr of calling CPU
 000084                            10092  1  361.     CPEMERG    DS    A             EMER SIG - bit map of calling CPU's
 000088                            10093  1  362.     CPRSTRT    DS    A             RESTART - CPU addr of requestor
 00008C                            10094  1  363.     CPSPFX     DS    A             SET PREFIX - CPU address of requestor
                                   10095  1  364.     *
                                   10096  1  365.     * Diagnose routine information
                                   10097  1  366.     *
 000090                            10098  1  367.     CPLOADP    DS    A             Address of the LOAD parms
                                   10099  1  368.     *
                                   10100  1  369.     * Profiler information
                                   10101  1  370.     *
                                   10102  1  371.     CPSTIMER   STIMERM SET,MF=L    Room for the STIMERM parms
                                   10103  1          +*        MACDATE = 08/19/88                                           *
 000094 0000000000000000           10104  1 01-STIME +CPSTIMER   DC    XL24'00'           REMOTE STIMERM SET PARM LIST
 0000AC                            10105  1  372.     CPSTIMID   DS    A             ID of the STIMERM for profiling
 0000B0                            10106  1  373.     CPSTPARM   DS    A             Parm value for the STIMER routine
 0000B4                            10107  1  374.     CPSTSTK    DS    A             Stack for the STIMER routine
 0000B8                            10108  1  375.     CPSTRTCB   DS    A             Address of the RTCB
                                   10109  1  376.
 0000BC                            10110  1  377.     CPCREGS    DS    14A           CPU regs 0-13
                                   10111  1  378.
1GSTINTF  (GSTI00) (09:40) (22MAR04) IHAPSAE  - PSA Extension (ESAME)                                                       Page   27
0Loc    Object Code    Addr1 Addr2  Stmt Lv Lineno    Source Statement           (Hibal 5, Asmedit 3.3)  HLASM R4.0  2004/03/22 09.40
+___    ______ ____    _____ _____  ____ __ ______    ______ _________
00000F4                            10112  1  379.                DS    XL(256-(*-$$$RCPUB))    Align on 256 byte boundary
1GSTINTF  (GSTI00) (09:40) (22MAR04) IHAPSAE  - PSA Extension (ESAME)                                                       Page   28
0D-Loc  Object Code    Addr1 Addr2  Stmt Lv Lineno    Source Statement           (Hibal 5, Asmedit 3.3)  HLASM R4.0  2004/03/22 09.40
+_____  ______ ____    _____ _____  ____ __ ______    ______ _________
0                                  10114  1  381.                COPY  SIEDATA
                                   10115  1          =*
                                   10116  1          =* SIEDATA -- This defines the layout of the information used by the
                                   10117  1          =*            interpretive execution hardware.  Offsets are fixed by
                                   10118  1          =*            the architecture.  This area is 256 bytes long and must
                                   10119  1          =*            be on a 256 byte boundary.
                                   10120  1          =*
 000100                            10121  1          =SIEDATA    DS    0XL256                  Entire area
                                   10122  1          =
 000100 00                         10123  1          =SIENTVCT   FLAG  ,                       SIE Intervention control
 SIENTVCT.SIEIPSTP 04 ONES         10127  1          =           FLAG  (SIEIPSTP,4)              SIE Stopping control
 SIENTVCT.SIEIPVIO 02 ONES         10136  1          =           FLAG  (SIEIPVIO,2)              I/O interrupt pending
 SIENTVCT.SIEIPEXT 01 ONES         10145  1          =           FLAG  (SIEIPEXT,1)              EXT interrupt pending
                                   10154  1          =
 000101 00                         10155  1          =SIEITMR    FLAG  ,                       Interval timer interrupt stat
 SIEITMR.SIEITMRI  80 ONES         10159  1          =           FLAG  SIEITMRI                  Interrupt pending
                                   10164  1          =
 000102                            10165  1          =           DS    X                       RESERVED
                                   10166  1          =
 000103 00                         10167  1          =SIEMODE    FLAG  ,                       Mode of the guest machine
 SIEMODE.SIESA390  20 ONES         10171  1          =           FLAG  (SIESA390,X'20')          ESA/390
 SIEMODE.SIEVR     08 ONES         10180  1          =           FLAG  (SIEVR,X'08')             V=R guest
                                   10189  1          =
 000104                            10190  1          =SIEPREFX   DS    F                       Guest prefix register
 000108                            10191  1          =SIEMSORG   DS    H                       Guest main storage origen
 00010A                            10192  1          =SIEGMSIZ   DS    H                       Guest main storage extent
                                   10193  1          =
 00010C                            10194  1          =           DS    F                       RESERVED
                                   10195  1          =
 000110                            10196  1          =SIEREG14   DS    F                       Guest R14 (SIE use only)
 000114                            10197  1          =SIEREG15   DS    F                       Guest R15 (SIE use only)
 000118                            10198  1          =SIEPSW     DS    D                       Guest PSW
 000120                            10199  1          =           DS    D                       Reserved
 000128                            10200  1          =SIECPUTM   DS    D                       Guest CPU timer
 000130                            10201  1          =SIECKC     DS    D                       Guest Clock comparator
 000138                            10202  1          =SIEEPOCH   DS    D                       Epoch for the TOD clock
                                   10203  1          =*
                                   10204  1          =* Interception controls and status
                                   10205  1          =*
 000140 00                         10206  1          =SIESVCTL   FLAG  ,                       SVC interception control
 SIESVCTL.SIESVCCN 80 ONES         10210  1          =           FLAG  SIESVCCN                  intercept all SVC's
 SIESVCTL.SIESVC1C 40 ONES         10215  1          =           FLAG  SIESVC1C                  intercept SVC in SVC1C
 SIESVCTL.SIESVC2C 20 ONES         10220  1          =           FLAG  SIESVC2C                  intercept SVC in SVC2C
 SIESVCTL.SIESVC3C 10 ONES         10225  1          =           FLAG  SIESVC3C                  intercept SVC in SVC3N
 000141                            10230  1          =SIESVC1N   DS    X                       intercept SVC number 1
 000142                            10231  1          =SIESVC2N   DS    X                       intercept SVC number 2
 000143                            10232  1          =SIESVC3N   DS    X                       intercept SVC number 3
                                   10233  1          =
 000144                            10234  1          =SIELCTL    DS    H                       LCTL intercept control bits
                                   10235  1          =
 000146                            10236  1          =           DS    H                       RESERVED
                                   10237  1          =
 000148 00                         10238  1          =SIEICTL0   FLAG  ,                       Interception control
 SIEICTL0.SIEICPOP 80 ONES         10242  1          =           FLAG  (SIEICPOP,X'80')          OP exception PI's
 SIEICTL0.SIEICPRO 40 ONES         10251  1          =           FLAG  (SIEICPRO,X'40')          PRIV OP PI's
 SIEICTL0.SIEICPRG 20 ONES         10260  1          =           FLAG  (SIEICPRG,X'20')          PI's
1GSTINTF  (GSTI00) (09:40) (22MAR04) IHAPSAE  - PSA Extension (ESAME)                                                       Page   29
0D-Loc  Object Code    Addr1 Addr2  Stmt Lv Lineno    Source Statement           (Hibal 5, Asmedit 3.3)  HLASM R4.0  2004/03/22 09.40
+_____  ______ ____    _____ _____  ____ __ ______    ______ _________
0SIEICTL0.SIEICTS  08 ONES         10269  1          =           FLAG  (SIEICTS,X'08')           TS when CC=1
 SIEICTL0.SIEICCS  04 ONES         10278  1          =           FLAG  (SIEICCS,X'04')           CS when CC=1
 SIEICTL0.SIEICCDS 02 ONES         10287  1          =           FLAG  (SIEICCDS,X'02')          CDS when CC=1
 SIEICTL0.SIEICIPT 01 ONES         10296  1          =           FLAG  (SIEICIPT,X'01')          IPTE
 000149 00                         10305  1          =SIEICTL1   FLAG  ,
 SIEICTL1.SIEICLPS 40 ONES         10309  1          =           FLAG  (SIEICLPS,X'40')          LPSW
 SIEICTL1.SIEICPTL 20 ONES         10318  1          =           FLAG  (SIEICPTL,X'20')          PTLB
 SIEICTL1.SIEICSSM 10 ONES         10327  1          =           FLAG  (SIEICSSM,X'10')          SSM
 SIEICTL1.SIEICSTC 04 ONES         10336  1          =           FLAG  (SIEICSTC,X'04')          STCL
 SIEICTL1.SIEICSTN 02 ONES         10345  1          =           FLAG  (SIEICSTN,X'02')          STNSM
 SIEICTL1.SIEICSTO 01 ONES         10354  1          =           FLAG  (SIEICSTO,X'01')          STOSM
 00014A 00                         10363  1          =SIEICTL2   FLAG  ,
 SIEICTL2.SIEICSTK 80 ONES         10367  1          =           FLAG  (SIEICSTK,X'80')          STCK
 SIEICTL2.SIEICISK 40 ONES         10376  1          =           FLAG  (SIEICISK,X'40')          ISK,ISKE
 SIEICTL2.SIEICSSK 20 ONES         10385  1          =           FLAG  (SIEICSSK,X'20')          SSK,SSKE
 SIEICTL2.SIEICRRB 10 ONES         10394  1          =           FLAG  (SIEICRRB,X'10')          RRB,RRBE
 SIEICTL2.SIEICPC  08 ONES         10403  1          =           FLAG  (SIEICPC,X'08')           PC
 SIEICTL2.SIEICPT  04 ONES         10412  1          =           FLAG  (SIEICPT,X'04')           PT
 SIEICTL2.SIEICTPT 02 ONES         10421  1          =           FLAG  (SIEICTPT,X'02')          TPROT
 SIEICTL2.SIEICLSP 01 ONES         10430  1          =           FLAG  (SIEICLSP,X'01')          LASP
                                   10439  1          =
 00014B                            10440  1          =           DS    5X                      RESERVED
                                   10441  1          =*
                                   10442  1          =* SIE Completion
                                   10443  1          =*
 000150                            10444  1          =SIEICODE   DS    X                       Completion code
                                   10445  1          =*
                                   10446  1          =*              X'00' reserved for software use
                                   10447  1          =*              X'04' Instruction interception
                                   10448  1          =*              X'08' PI interception
                                   10449  1          =*              X'0C' Both instruction and PI interception (PER)
                                   10450  1          =*              X'10' Pending external interrupt
                                   10451  1          =*              X'14' External interrupt interception
                                   10452  1          =*              X'18' Pending I/O interrupt interception
                                   10453  1          =*              X'1C' Wait state interception
                                   10454  1          =*              X'20' Validity interception
                                   10455  1          =*              X'24' Software use only
                                   10456  1          =*              X'28' Stop interception
                                   10457  1          =*              X'2C' Operation exception interception
                                   10458  1          =*
 000151 00                         10459  1          =SIEICFLG   FLAG  ,                       Intercept modifier
 SIEICFLG.SIEICIF2 80 ONES         10463  1          =           FLAG  (SIEICIF2,X'80')          Interception fmt 2 installed
 SIEICFLG.SIEICEX  01 ONES         10472  1          =           FLAG  (SIEICEX,X'01')           Inst subject of an EX
 SIEICFLG.SIEICIF  02 ONES         10481  1          =           FLAG  (SIEICIF,X'02')           PER Event on fetch
 000152                            10490  1          =SIEIHCPU   DS    H                       Last Host CPU address
                                   10491  1          =
 000154                            10492  1          =           DS    2X                      RESERVED
                                   10493  1          =
 000156                            10494  1          =SIEINST    DS    H                       Intercepted inst bits 0-15
 000158                            10495  1          =SIEICAD1   DS    A                       1st operand eff addr
 00015C                            10496  1          =SIEICAD2   DS    A                       2nd operand eff addr
                                   10497  1          =*
                                   10498  1          =* Satellite table pointers
                                   10499  1          =*
 000160                            10500  1          =SIERCP     DS    A                       RCP-area (Host virt addr)
 000164                            10501  1          =SIEISCAA   DS    A                       System control area addr
1GSTINTF  (GSTI00) (09:40) (22MAR04) IHAPSAE  - PSA Extension (ESAME)                                                       Page   30
0D-Loc  Object Code    Addr1 Addr2  Stmt Lv Lineno    Source Statement           (Hibal 5, Asmedit 3.3)  HLASM R4.0  2004/03/22 09.40
+_____  ______ ____    _____ _____  ____ __ ______    ______ _________
0                                  10502  1          =
 000168                            10503  1          =           DS    D                       RESERVED
                                   10504  1          =
 000170                            10505  1          =SIETCHCL   DS    H                       TCH interception controls
                                   10506  1          =
 000172                            10507  1          =           DS    H                       RESERVED
 000174                            10508  1          =           DS    F                       RESERVED
 000178                            10509  1          =           DS    D                       RESERVED
                                   10510  1          =
 000180                            10511  1          =SIECRS     DS    XL64                    Control registers
                                   10512  1          =*
                                   10513  1          =* Interrupt interception status area
                                   10514  1          =*
 0001C0                            10515  1          =           DS    F                       RESERVED
                                   10516  1          =
 0001C4                            10517  1          =SIEIEXCA   DS    H                       EXT interrupt CPU addr
 0001C6                            10518  1          =SIEIEXCD   DS    0H                      EXT interrupt code
 0001C6                            10519  1          =SIEIEXCL   DS    X                       EXT interrupt class code
 0001C7                            10520  1          =SIEIEXCT   DS    X                       EXT interrupt type code
                                   10521  1          =
 0001C8                            10522  1          =           DS    F                       RESERVED
                                   10523  1          =
 0001CC                            10524  1          =SIEIPRCL   DS    H                       PI ILC
 0001CE                            10525  1          =SIEIPRCC   DS    H                       PI interrupt code
 0001D0                            10526  1          =SIEITRAD   DS    F                       Translation exception addr
 0001D4                            10527  1          =SIEIMNCL   DS    H                       Monitor class
 0001D6                            10528  1          =SIEPERCD   DS    X                       PER event code
 0001D7                            10529  1          =SIEPERZF   DS    X                       PER interrupt code (reserved)
 0001D8                            10530  1          =SIEPERAD   DS    F                       PER event address
 0001DC                            10531  1          =SIEIMNCD   DS    F                       Monitor code
                                   10532  1          =
 0001E0                            10533  1          =           DS    D                       RESERVED
 0001E8                            10534  1          =           DS    D                       RESERVED
 0001F0                            10535  1          =           DS    D                       RESERVED
 0001F8                            10536  1          =           DS    D                       RESERVED
                                   10537  1          =****************************************************************
                                   10538  1          =* End of the SIEDATA area (hardware defined)                   *
                                   10539  1          =****************************************************************
 000200                00200 00200 10540     382.              END   ,
1GSTINTF  (GSTI00) (09:40) (22MAR04) IHAPSAE  - PSA Extension (ESAME)                                                       Page   31
0Loc    Object Code    Addr1 Addr2  Stmt Lv Lineno    Source Statement           (Hibal 5, Asmedit 3.3)  HLASM R4.0  2004/03/22 09.40
+___    ______ ____    _____ _____  ____ __ ______    ______ _________
0                                  10550     384.     *
                                   10551     385.     *
                                   10552     386.     * IOCB -- This control block represents an I/O request from the
                                   10553     387.     *         guest machine.  It is passed as a parm to IOSERV.
                                   10554     388.     *
                                   10555     389.     *
 000000                00000 00024 10556     390.     IOCB     RECORD BEGIN
 000000 C9D6C3C2                   10564  1  391.                DC    C'IOCB'
 000004                            10565  1  392.     IOCBNEXT   DS    A             Address of the next IOCB
 000008                            10566  1  393.     IOCBGSTC   DS    A             Address of the GSTCT
                                   10567  1  394.     *
                                   10568  1  395.     * Information from the Request
                                   10569  1  396.     *
 00000C                            10570  1  397.     IOCBSCH    DS    A             Subchannel ID word
 000010                            10571  1  398.     IOCBIPRM   DS    A             Interruption parameter
 000014                            10572  1  399.     IOCBIFLG   DS    A             I/O flags
 000018                            10573  1  400.     IOCBCPA    DS    A             Address of the channel program
                                   10574  1  401.     IOCBORB    EQU   IOCBIPRM,*-IOCBIPRM,C'X'          The ORB
 00001C                            10575  1  402.     IOCBSTAT   DS    A             Subchannel status word (from IOSERV)
                                   10576  1  403.     *** SIMULATION CODE ***
 000020                            10577  1  404.     IOCBHSP    DS    CL1           Hiperspace in use flag
 000024                            10578  1  405.                DS    0F
                                   10579  1  406.     *** END OF SIMULATION CODE ***
 000024                00024 00024 10580     407.              END   ,
-
                                   10590     409.     *******************************************************************
                                   10591     410.     *                                                                 *
                                   10592     411.     *    @DOWTO - DOWTO Parameter area                                *
                                   10593     412.     *                                                                 *
                                   10594     413.     *******************************************************************
0000000                00000 0000A 10596     415.     @DOWTO   RECORD BEGIN
 000000                            10604  1  416.     @DWTLOC    DS    A                       Location of message
 000004                            10605  1  417.     @DWTLEN    DS    A                       Length of message
                                   10606  1  418.
 000008 00                         10607  1  419.     @DWTFL     FLAG  ,
 @DWTFL.@DWTFSYS   80 ONES         10611  1  420.                FLAG  @DWTFSYS                Send to system log
 @DWTFL.@DWTFCON   40 ONES         10616  1  421.                FLAG  @DWTFCON                Send to operator console
 @DWTFL.@DWTFND    20 ONES         10621  1  422.                FLAG  @DWTFND                 Make message non-deletable
                                   10626  1  423.
 000009                            10627  1  424.                DS    X                       Reserved
                                   10628  1  425.
                                   10629  1  426.     @DWTLMAX   EQU   L'WPLTXT                Maximum message length
 00000A                0000A 0000A 10630     427.              END   ,
-
 000000                00000 00010 10640     429.     DGVMPARM RECORD BEGIN
 000000 00                         10648  1  430.     DGVFLAG    FLAG  ,
 DGVFLAG.DGVFLOCAL 80 ONES         10652  1  431.                FLAG  DGVFLOCAL   - Display local memory contents
 DGVFLAG.DGVFCOMMO 40 ONES         10657  1  432.                FLAG  DGVFCOMMON  - Only look at common memory
 000004                            10662  1  433.     DGVMCPUB   DS    A             CPUB of the CPU to dump
 000008                            10663  1  434.     DGVMSCB    DS    A             SEGCB where to write it out
 00000C                            10664  1  435.     DGVMLOW    DS    A             Lowest address to dump
1GSTINTF  (GSTI00) (09:40) (22MAR04) IHAPSAE  - PSA Extension (ESAME)                                                       Page   32
0Loc    Object Code    Addr1 Addr2  Stmt Lv Lineno    Source Statement           (Hibal 5, Asmedit 3.3)  HLASM R4.0  2004/03/22 09.40
+___    ______ ____    _____ _____  ____ __ ______    ______ _________
0000010                00010 00010 10665     436.              END   ,
1GSTINTF  (GSTI00) (09:40) (22MAR04) IHAPSAE  - PSA Extension (ESAME)                                                       Page   33
0Loc    Object Code    Addr1 Addr2  Stmt Lv Lineno    Source Statement           (Hibal 5, Asmedit 3.3)  HLASM R4.0  2004/03/22 09.40
+___    ______ ____    _____ _____  ____ __ ______    ______ _________
0                                  10675     438.     *******************************************************************
                                   10676     439.     *                                                                 *
                                   10677     440.     *    GSTINIT - Initialize the ORVYL virtual machine.              *
                                   10678     441.     *                                                                 *
                                   10679     442.     *                                                                 *
                                   10680     443.     *      Input - Init parm pointer                                  *
                                   10681     444.     *                                                                 *
                                   10682     445.     *     Output - Address of the GSTCT                               *
                                   10683     446.     *                                                                 *
                                   10684     447.     *                                                                 *
                                   10685     448.     *******************************************************************
-
 000016                            10687     450.     GSTINIT  PROC  SCOPE=GLOBAL
 000016 C7E2E3C9D5C9E340           10693             +
 00001E 0000/0000                  10694             +
 000022 900F D004/18AF       00004 10696             +
 USING  GSTINIT,R10
 000028 50D0 C000/18CD       00000 10711             +
 00002E 9680 C000      00000       10713             +
 000032 41D0 C048            00048 10714             +
                                   10715     451.     *
                                   10716     452.     * First thing to do is allocate our GSTCT
                                   10717     453.     *
 USING  @MEMORY-72,R13             10718     454.              POOLGET L'GSTCT,TYPE=(LOCAL)   Get the memory
 000036 D70B D048 D048 00000 00000 10736             +
 00003C 4100 0118            00118 10744             +
 000040 5000 D04C            00004 10745             +
 000044 9210 D04A      00002       10752             +
 000048 58F0 A8B6/0DEF       008D8 10755             +
 00004E 1870                       10757     455.              LR    RY,RVR
 USING  GSTCT,R7                   10758     456.              WITH  (GSTCT,RY)              Set up the Addressability
 000050 D203 7000 A8BA 00000 008DC 10771     457.              MVC   GSTCT(4),=CL4'GSTC'     Move in a Block Identifier
                                   10772     458.     *
                                   10773     459.     * Get parameter work area
                                   10774     460.     *
 DROP   @MEMORY-72,R13             10775     461.              MEMGET L'GSTIPARM             Get work area
 USING  @MEMGET-72,R13
 000056 D709 D048 D048 00000 00000 10797             +
 00005C 4100 004C            0004C 10804             +
 000060 5000 D04C            00004 10805             +
 000064 9211 D051      00009       10815             +
 000068 58F0 A8BE/0DEF       008E0 10818             +
 00006E 1860                       10820     462.              LR    RX,RVR
 USING  GSTIPARM,R6                10821     463.              WITH  (GSTIPARM,RX)
 AUSING (PARMIN,GSTIPRMI)          10834     464.              WITH  (PARMIN,GSTIPRMI)
                                   10841     465.     *
                                   10842     466.     * Determine number of CPU's
                                   10843     467.     *
 000070 D207 6004 A816 00004 00838 10844     468.              MVC   GSTIKEY1,=CL8'CPUS'     Keyword
 000076 9204 6000      00000       10845     469.              SET   PARMFINT                Integer to be returned
 DROP   @MEMGET-72,R13             10851     470.              PSET  @PARMDO
 USING  @PARMDO-72,R13
 00007A D70F D048 D048 00000 00000 10871             +
 000080 4110 6000            00000 10872     471.              LA    RS,GSTIPRMI             PARMIN location
1GSTINTF  (GSTI00) (09:40) (22MAR04) IHAPSAE  - PSA Extension (ESAME)                                                       Page   34
0Current Usings:  (GSTIPARM,R6) (GSTCT,R7) (GSTINIT,R10) (@PARMDO-72,R13)
0Loc    Object Code    Addr1 Addr2  Stmt Lv Lineno    Source Statement           (Hibal 5, Asmedit 3.3)  HLASM R4.0  2004/03/22 09.40
+___    ______ ____    _____ _____  ____ __ ______    ______ _________
0000084 5010 D048            00000 10873     472.              ST    RS,@PARILOC
 000088 4110 000C            0000C 10874     473.              LA    RS,L'PARMIN+8           Length of input
 00008C 5010 D04C            00004 10875     474.              ST    RS,@PARILEN
 000090 4110 601C            0001C 10876     475.              LA    RS,GSTIVAL              Location of return area
 000094 5010 D050            00008 10877     476.              ST    RS,@PAROLOC
 000098 4110 0004            00004 10878     477.              LA    RS,L'GSTIVAL            Length of return area
 00009C 5010 D054            0000C 10879     478.              ST    RS,@PAROLEN
 0000A0 58F0 A8C2/0DEF       008E4 10880     479.              VCALL PARMDO
 0000A6 4120 0001            00001 10884     480.              LA    RA,1                    Default is 1
 0000AA 1200/4770 A092       000B4 10885     481.              IF    (RVR,Z),'L  RA,GSTIVAL' Number of CPU's
 0000B0 5820 601C            0001C 10900             +
 0000B4 58F0 A8C6/0DEF       008E8 10905     482.              ACALL MAXCPUS
 0000BA 1920/47D0 A0A0       000C2 10912     483.              CEIL  RA,RVR
 0000C0 1820                       10917             +
 0000C2 5020 7004            00004 10918     484.              ST    RA,GSTCNCPU
                                   10919     485.     *
                                   10920     486.     * Determine amount of memory to be used
                                   10921     487.     *
 0000C6 D207 6004 A81E 00004 00840 10922     488.              MVC   GSTIKEY1,=CL8'MEMORY'   Keyword
 0000CC D207 600C A826 0000C 00848 10923     489.              MVC   GSTIKEY2,=CL8'MINSIZE'  Sub-keyword
 0000D2 9204 6000      00000       10924     490.              SET   PARMFINT                Integer to be returned
 0000D6                            10930     491.              PSET  @PARMDO
 0000D6 D70F D048 D048 00000 00000 10940             +
 0000DC 4100 6000            00000 10941     492.              PMOV  @PARILOC,LA:GSTIPRMI    PARMIN location
 0000E0 5000 D048            00000 10957             +
 0000E4 4100 0014            00014 10958     493.              PMOV  @PARILEN,LA:L'PARMIN+16 Length of input
 0000E8 5000 D04C            00004 10974             +
 0000EC 4100 601C            0001C 10975     494.              PMOV  @PAROLOC,LA:GSTIVAL     Location of return area
 0000F0 5000 D050            00008 10991             +
 0000F4 4100 0004            00004 10992     495.              PMOV  @PAROLEN,LA:L'GSTIVAL   Length of return area
 0000F8 5000 D054            0000C 11008             +
 0000FC 58F0 A8C2/0DEF       008E4 11009     496.              VCALL PARMDO
 000102 5810 A8CA            008EC 11013     497.              L     RS,=A(MINMEG*1024)      Default is 2 Megabytes (in K)
 000106 1200/4770 A0FA       0011C 11014     498.              IF    (RVR,Z),BEGIN           Parm supplied
 00010C 5810 601C            0001C 11028  1  499.                L     RS,GSTIVAL              Supplied memory value
 000110 5910 A8CA            008EC 11029  1  500.                FLOOR RS,=A(MINMEG*1024)       with a minimum
 000114 47B0 A0FA            0011C 11032  1          +
 000118 5810 A8CA            008EC 11033  1          +
 00011C                            11034     501.              END   ,                       OF Parm supplied
 00011C 8910 000A            0000A 11038     502.              SLL   RS,10               Convert from "K" to bytes
 000120 5010 7018            00018 11039     503.              ST    RS,GSTCMINL         Save MINSIZE
                                   11040     504.
 000124 D207 6004 A81E 00004 00840 11041     505.              MVC   GSTIKEY1,=CL8'MEMORY'   Keyword
 00012A D207 600C A82E 0000C 00850 11042     506.              MVC   GSTIKEY2,=CL8'SIZE'     Sub-keyword
 000130 9204 6000      00000       11043     507.              SET   PARMFINT                Integer to be returned
 000134                            11049     508.              PSET  @PARMDO
 000134 D70F D048 D048 00000 00000 11059             +
 00013A 4100 6000            00000 11060     509.              PMOV  @PARILOC,LA:GSTIPRMI    PARMIN location
 00013E 5000 D048            00000 11076             +
 000142 4100 0014            00014 11077     510.              PMOV  @PARILEN,LA:L'PARMIN+16 Length of input
 000146 5000 D04C            00004 11093             +
 00014A 4100 601C            0001C 11094     511.              PMOV  @PAROLOC,LA:GSTIVAL     Location of return area
 00014E 5000 D050            00008 11110             +
 000152 4100 0004            00004 11111     512.              PMOV  @PAROLEN,LA:L'GSTIVAL   Length of return area
1GSTINTF  (GSTI00) (09:40) (22MAR04) IHAPSAE  - PSA Extension (ESAME)                                                       Page   35
0Current Usings:  (GSTIPARM,R6) (GSTCT,R7) (GSTINIT,R10) (@PARMDO-72,R13)
0Loc    Object Code    Addr1 Addr2  Stmt Lv Lineno    Source Statement           (Hibal 5, Asmedit 3.3)  HLASM R4.0  2004/03/22 09.40
+___    ______ ____    _____ _____  ____ __ ______    ______ _________
0000156 5000 D054            0000C 11127             +
 00015A 58F0 A8C2/0DEF       008E4 11128     513.              VCALL PARMDO
 000160 5810 A8CA            008EC 11132     514.              L     RS,=A(MINMEG*1024)      Default is 2 Megabytes (in K)
 000164 1200/4770 A158       0017A 11133     515.              IF    (RVR,Z),BEGIN           Parm supplied
 00016A 5810 601C            0001C 11147  1  516.                L     RS,GSTIVAL              Supplied memory value
 00016E 5910 A8CA            008EC 11148  1  517.                FLOOR RS,=A(MINMEG*1024)       with a minimum
 000172 47B0 A158            0017A 11151  1          +
 000176 5810 A8CA            008EC 11152  1          +
 00017A                            11153     518.              END   ,                       OF Parm supplied
                                   11157     519.     *
                                   11158     520.     * Get the memory for the Orvyl Virtual Machine
                                   11159     521.     *
 DROP   @PARMDO-72,R13             11160     522.              PSET  OMEMP
 USING  OMEMP-72,R13
 00017A D707 D048 D048 00000 00000 11180             +
 000180 8910 000A            0000A 11181     523.              SLL   RS,10                   Convert from "K" to bytes
 000184 5010 D048            00000 11182     524.              ST    RS,OMEMSIZE             Size to get
 000188 41F0 A31E/0DEF       00340 11183     525.              LCALL OMEMGET
 00018E D203 7010 D04C 00010 00004 11192     526.              MVC   GSTCCORE,OMEMLOC        Save the location
 000194 D203 7014 D048 00014 00000 11193     527.              MVC   GSTCCLEN,OMEMSIZE       And the length
                                   11194     528.     *
                                   11195     529.     * Find out what percent of the machine we should take
                                   11196     530.     *
 00019A D207 600C A836 0000C 00858 11197     531.              MVC   GSTIKEY2,=CL8'PERCENT'  Sub-keyword
 0001A0 9204 6000      00000       11198     532.              SET   PARMFINT                Integer to be returned
 DROP   OMEMP-72,R13               11204     533.              PSET  @PARMDO
 USING  @PARMDO-72,R13
 0001A4 D70F D048 D048 00000 00000 11224             +
 0001AA 4100 6000            00000 11225     534.              PMOV  @PARILOC,LA:GSTIPRMI    PARMIN location
 0001AE 5000 D048            00000 11241             +
 0001B2 4100 0014            00014 11242     535.              PMOV  @PARILEN,LA:L'PARMIN+16 Length of input
 0001B6 5000 D04C            00004 11258             +
 0001BA 4100 601C            0001C 11259     536.              PMOV  @PAROLOC,LA:GSTIVAL     Location of return area
 0001BE 5000 D050            00008 11275             +
 0001C2 4100 0004            00004 11276     537.              PMOV  @PAROLEN,LA:L'GSTIVAL   Length of return area
 0001C6 5000 D054            0000C 11292             +
 0001CA 58F0 A8C2/0DEF       008E4 11293     538.              VCALL PARMDO
 0001D0 5810 A8CE            008F0 11297     539.              L     RS,=A(33)               Default is 33%
 0001D4 1200/4770 A1BC       001DE 11298     540.              IF    (RVR,Z),'L  RS,GSTIVAL' Supplied memory value
 0001DA 5810 601C            0001C 11313             +
 0001DE 5010 7008            00008 11318     541.              ST    RS,GSTCRMPC
                                   11319     542.     *
                                   11320     543.     * Approximation of OS memory overhead
                                   11321     544.     *
 0001E2 D207 600C A83E 0000C 00860 11322     545.              MVC   GSTIKEY2,=CL8'OS_OVER'  Sub-keyword
 0001E8 9204 6000      00000       11323     546.              SET   PARMFINT                Integer to be returned
 0001EC                            11329     547.              PSET  @PARMDO
 0001EC D70F D048 D048 00000 00000 11339             +
 0001F2 4100 6000            00000 11340     548.              PMOV  @PARILOC,LA:GSTIPRMI    PARMIN location
 0001F6 5000 D048            00000 11356             +
 0001FA 4100 0014            00014 11357     549.              PMOV  @PARILEN,LA:L'PARMIN+16 Length of input
 0001FE 5000 D04C            00004 11373             +
 000202 4100 601C            0001C 11374     550.              PMOV  @PAROLOC,LA:GSTIVAL     Location of return area
 000206 5000 D050            00008 11390             +
1GSTINTF  (GSTI00) (09:40) (22MAR04) IHAPSAE  - PSA Extension (ESAME)                                                       Page   36
0Current Usings:  (GSTIPARM,R6) (GSTCT,R7) (GSTINIT,R10) (@PARMDO-72,R13)
0Loc    Object Code    Addr1 Addr2  Stmt Lv Lineno    Source Statement           (Hibal 5, Asmedit 3.3)  HLASM R4.0  2004/03/22 09.40
+___    ______ ____    _____ _____  ____ __ ______    ______ _________
000020A 4100 0004            00004 11391     551.              PMOV  @PAROLEN,LA:L'GSTIVAL   Length of return area
 00020E 5000 D054            0000C 11407             +
 000212 58F0 A8C2/0DEF       008E4 11408     552.              VCALL PARMDO
 000218 5810 A8D2            008F4 11412     553.              L     RS,=A(8*1024)           Default is 8 megabytes
 00021C 1200/4770 A204       00226 11413     554.              IF    (RVR,Z),'L  RS,GSTIVAL' Supplied memory value
 000222 5810 601C            0001C 11428             +
 000226 8910 000A            0000A 11433     555.              SLL   RS,10                   Convert K to bytes
 00022A 5010 700C            0000C 11434     556.              ST    RS,GSTCRMOV
                                   11435     557.     *
                                   11436     558.     * Allocate the RCP area
                                   11437     559.     *
 00022E 5820 7014            00014 11438     560.              L     RA,GSTCCLEN             Get total length of region
 000232 8820 000C            0000C 11439     561.              SRL   RA,12                   Length in pages
 000236 5020 7020            00020 11440     562.              ST    RA,GSTCRCPL             Length of the RCP area
 DROP   @PARMDO-72,R13             11441     563.              POOLGET (RA),TYPE=(LOCAL,PAGE)
 USING  @MEMORY-72,R13
 00023A D70B D048 D048 00000 00000 11462             +
 000240 5020 D04C            00004 11464             +
 000244 9212 D04A      00002       11474             +
 000248 58F0 A8B6/0DEF       008D8 11477             +
 00024E 5000 701C            0001C 11479     564.              ST    RVR,GSTCRCPA            Save it's location
                                   11480     565.     *
                                   11481     566.     * Allocate the SCA
                                   11482     567.     *
 000252                            11483     568.              POOLGET 16,TYPE=(LOCAL,PAGE,FIX)
 000252 D70B D048 D048 00000 00000 11494             +
 000258 4100 0010            00010 11502             +
 00025C 5000 D04C            00004 11503             +
 000260 9216 D04A      00002       11517             +
 000264 58F0 A8B6/0DEF       008D8 11520             +
 00026A 5000 7024            00024 11522     569.              ST    RVR,GSTCSCA             Save the Address
                                   11523     570.     *
                                   11524     571.     * Initialize profiling
                                   11525     572.     *
 DROP   @MEMORY-72,R13             11526     573.              PSET  PRFINTP
 USING  PRFINTP-72,R13
 00026E D703 D048 D048 00000 00000 11546             +
 000274 5070 D048            00000 11547     574.              ST    RY,PRFIGSTC             Save pointer to the GSTCT
 000278 41F0 A498/0DEF       004BA 11548     575.              LCALL PROFINIT                Initialize the guest profiler
                                   11557     576.     *
                                   11558     577.     * Load the IPL text into guest memory
                                   11559     578.     *
 DROP   PRFINTP-72,R13             11560     579.              PSET  LOADIP
 USING  LOADIP-72,R13
 00027E D703 D048 D048 00000 00000 11580             +
 000284 5070 D048            00000 11581     580.              ST    RY,LIPGSTCT             Address of the GSTCT
 000288 58F0 A8D6/0DEF       008F8 11582     581.              ACALL LOADIPL
                                   11589     582.     *
                                   11590     583.     * allocate and initialize the CPUB's
                                   11591     584.     *
 DROP   LOADIP-72,R13              11592     585.              PSET  GETCPUP
 USING  GETCPUP-72,R13
 00028E D703 D048 D048 00000 00000 11612             +
 000294 5070 D048            00000 11613     586.              ST    RY,GETCGSTC             Save pointer to the GSTCT
1GSTINTF  (GSTI00) (09:40) (22MAR04) IHAPSAE  - PSA Extension (ESAME)                                                       Page   37
0Current Usings:  (GSTIPARM,R6) (GSTCT,R7) (GSTINIT,R10) (GETCPUP-72,R13)
0Loc    Object Code    Addr1 Addr2  Stmt Lv Lineno    Source Statement           (Hibal 5, Asmedit 3.3)  HLASM R4.0  2004/03/22 09.40
+___    ______ ____    _____ _____  ____ __ ______    ______ _________
0000298 41F0 A3C0/0DEF       003E2 11614     587.              LCALL GETCPU                  Get the cpu control blocks
                                   11623     588.     *
                                   11624     589.     * Cause a Restart of CPU0
                                   11625     590.     *
 00029E 5810 7038            00038 11626     591.              L     RS,GSTCCPUS             Get address of the CPUB
 USING  CPUB,R1                    11627     592.              WITH  (CPUB,RS),BEGIN
 0002A2 9680 1060      00060       11641  1  593.                SET   CPCSRUN                 Put it in the run state
 0002A6 D203 1088 A8DA 00088 008FC 11647  1  594.                MVC   CPRSTRT,=X'FFFFFFFF'    Mark it as an IPL restart
 DROP   CPUB,R1                    11648     595.              END   ,
                                   11656     596.     *
                                   11657     597.     * Spawn all our subtasks
                                   11658     598.     *
 0002AC 1B22                       11659     599.              CLEAR RA
 0002AE 5920 7004            00004 11663     600.              WHILE (RA,LT,GSTCNCPU),BEGIN  Each 'CPU' gets a subtask
 0002B2 47B0 A2D8            002FA 11677             +
 0002B6 1832                       11682  1  601.                LR    RB,RA                   get CPU number
 0002B8 8930 0002            00002 11683  1  602.                SLL   RB,2                    Get CPUB pointer offset
 0002BC 5833 7038            00038 11684  1  603.                L     RB,GSTCCPUS(RB)         Get CPUB address
 USING  CPUB,R3                    11685  1  604.                WITH  (CPUB,RB)
 DROP   GETCPUP-72,R13             11698  1  605.                PSET  @SPAWN
 USING  @SPAWN-72,R13
 0002C0 D71B D048 D048 00000 00000 11718  1          +
                                   11719  1  606.     *
                                   11720  1  607.     * Setup the task name
                                   11721  1  608.     *
 0002C6 D207 D048 A846 00000 00868 11722  1  609.                MVC   @SPNNAME,=CL8'GSTCPUX'
 0002CC 4110 A84E            00870 11723  1  610.                LA    RS,=C'0123456789ABCDEF'
 0002D0 1A12                       11724  1  611.                AR    RS,RA                   Get task number offset
 0002D2 D200 D04E 1000 00006 00000 11725  1  612.                MVC   @SPNNAME+6(1),@RS       Move the character into name
                                   11726  1  613.     *
                                   11727  1  614.     * Setup other values
                                   11728  1  615.     *
 0002D8 D203 D060 A8DE 00018 00900 11729  1  616.                MVC   @SPNDPRI,=A(50)         Fairly low priority
 0002DE D203 D050 A8E2 00008 00904 11730  1  617.                MVC   @SPNEP,=A(CPUTASK)      Entry point address
 0002E4 5030 D054            0000C 11731  1  618.                ST    RB,@SPNPARM             Parm is the CPUB address
 0002E8 58F0 A8E6/0DEF       00908 11732  1  619.                VCALL SPAWN                   Activate the task
 0002EE 5000 3008            00008 11736  1  620.                ST    RVR,CPTASKID            Save the Task id of the task
 0002F2 4120 2001            00001 11737  1  621.                LA    RA,@RA+1                Go to the next CPU number
 0002F6 47F0 A28C            002AE 11738     622.              END   ,                       Go do the rest
 DROP   CPUB,R3
                                   11748     623.     *
                                   11749     624.     * Dump GSTCT
                                   11750     625.     *
 0002FA 0700/0ADE                  11751     626.              QSNAP GSTCT,248-1
 0002FE 08F700007000               11754             +
 000304 0ADE                       11755     627.              QSNAP GSTCT+248,L'GSTCT-248-1
 000306 081F000070F8               11758             +
                                   11759     628.     *
                                   11760     629.     * Release parameter work area
                                   11761     630.     *
 DROP   @SPAWN-72,R13              11762     631.              MEMFREE L'GSTIPARM,A=(RX)     Release work area
 USING  @MEMFREE-72,R13
 00030C D709 D048 D048 00000 00000 11784             +
 000312 4100 004C            0004C 11791             +
1GSTINTF  (GSTI00) (09:40) (22MAR04) IHAPSAE  - PSA Extension (ESAME)                                                       Page   38
0Current Usings:  (GSTIPARM,R6) (GSTCT,R7) (GSTINIT,R10) (@MEMFREE-72,R13)
0Loc    Object Code    Addr1 Addr2  Stmt Lv Lineno    Source Statement           (Hibal 5, Asmedit 3.3)  HLASM R4.0  2004/03/22 09.40
+___    ______ ____    _____ _____  ____ __ ______    ______ _________
0000316 5000 D04C            00004 11792             +
 00031A 5060 D048            00000 11793             +
 00031E 9210 D051      00009       11800             +
 000322 58F0 A8EA/0DEF       0090C 11803             +
                                   11805     632.     *
                                   11806     633.     * Ok.  Now the show is on the road.  Return to our caller.
                                   11807     634.     *
 000328 1807                       11808     635.              LR    RVR,RY                  Get the value to return
 00032A 981F C008            00008 11809     636.              PEND
 DROP   GSTIPARM,R6
 DROP   GSTCT,R7
 DROP   GSTINIT,R10
 00032E 9680 C000/0B0E 00000       11829             +
 DROP   @MEMFREE-72,R13
1GSTINTF  (GSTI00) (09:40) (22MAR04) IHAPSAE  - PSA Extension (ESAME)                                                       Page   39
0Loc    Object Code    Addr1 Addr2  Stmt Lv Lineno    Source Statement           (Hibal 5, Asmedit 3.3)  HLASM R4.0  2004/03/22 09.40
+___    ______ ____    _____ _____  ____ __ ______    ______ _________
0                                  11839     638.     *******************************************************************
                                   11840     639.     *                                                                 *
                                   11841     640.     *    OMEMGET - This local procedure is called to allocate the     *
                                   11842     641.     *              memory needed for the Orvyl Virtual Machine.  It   *
                                   11843     642.     *              is passed the amount of memory needed and it       *
                                   11844     643.     *              obtains this in multiples of 64K bytes on a 64K    *
                                   11845     644.     *              byte boundary.                                     *
                                   11846     645.     *                                                                 *
                                   11847     646.     *                                                                 *
                                   11848     647.     *      Input - OMEMP dsect                                        *
                                   11849     648.     *                                                                 *
                                   11850     649.     *     Output - none                                               *
                                   11851     650.     *                                                                 *
                                   11852     651.     *                                                                 *
                                   11853     652.     *******************************************************************
-000000                00000 00008 11855     654.     OMEMP    RECORD BEGIN
 000000                            11863  1  655.     OMEMSIZE   DS    F             Size (bytes) of the area needed
 000004                            11864  1  656.     OMEMLOC    DS    A             Location (MVS virtual) of the area
 000008                00008 00008 11865     657.              END   ,
-000334                            11875     659.     OMEMGET  PROC  OMEMP,SCOPE=LOCAL
 000334 D6D4C5D4C7C5E340           11880             +
 00033C 0008/0000                  11881             +
 000340 900F D004/18AF       00004 11883             +
 USING  OMEMGET,R10
 000346 50D0 C000/18CD       00000 11898             +
 00034C 9680 C000      00000       11900             +
 USING  OMEMP-72,R12
 000350 41D0 C050            00050 11914             +
                                   11915     660.     *
                                   11916     661.     * Get a first try at the memory
                                   11917     662.     *
 000354 5820 C048            00000 11918     663.              L     RA,OMEMSIZE             Get the size wanted
 000358 5420 A5D0            00910 11919     664.              N     RA,=X'FFFF0000'         Round down to 64K mult
 00035C 5020 C048            00000 11920     665.              ST    RA,OMEMSIZE             This is what we're getting
 000360 5A20 A5D4            00914 11921     666.              A     RA,=A(64*1024)          Add the amount for alignment
 USING  @MEMORY-72,R13             11922     667.              POOLGET (RA),TYPE=(LOCAL,PAGE)
 000364 D70B D048 D048 00000 00000 11940             +
 00036A 5020 D04C            00004 11942             +
 00036E 9212 D04A      00002       11952             +
 000372 58F0 A598/0DEF       008D8 11955             +
 000378 1840                       11957     668.              LR    RJ,RVR                  Save the location
                                   11958     669.     *
                                   11959     670.     * Trim the low area to align on 64K boundary
                                   11960     671.     *
 00037A 5A00 A5D8            00918 11961     672.              A     RVR,=A(64*1024-1)
 00037E 5400 A5D0            00910 11962     673.              N     RVR,=X'FFFF0000'        Round off
 000382 5000 C04C            00004 11963     674.              ST    RVR,OMEMLOC             This is where it starts
 000386 1B04                       11964     675.              SR    RVR,RJ                  Amount to trim at the low end
 000388 1830                       11965     676.              LR    RB,RVR                  Save it for later
 00038A 47D0 A066            003A6 11966     677.              IF    POS,BEGIN               If we have
 00038E                            11977  1  678.                POOLFREE (RB),A=(RJ),TYPE=(LOCAL,PAGE)
 00038E D70B D048 D048 00000 00000 11988  1          +
1GSTINTF  (GSTI00) (09:40) (22MAR04) IHAPSAE  - PSA Extension (ESAME)                                                       Page   40
0Current Usings:  (OMEMGET,R10) (OMEMP-72,R12) (@MEMORY-72,R13)
0Loc    Object Code    Addr1 Addr2  Stmt Lv Lineno    Source Statement           (Hibal 5, Asmedit 3.3)  HLASM R4.0  2004/03/22 09.40
+___    ______ ____    _____ _____  ____ __ ______    ______ _________
0000394 5030 D04C            00004 11990  1          +
 000398 5040 D050            00008 11991  1          +
 00039C 9212 D04A      00002       12001  1          +
 0003A0 58F0 A5DC/0DEF       0091C 12004  1          +
 0003A6                            12006     679.              END   ,
                                   12010     680.     *
                                   12011     681.     * Trim the high area
                                   12012     682.     *
 0003A6 5820 A5D4            00914 12013     683.              L     RA,=A(64*1024)          Overage amount
 0003AA 1B23                       12014     684.              SR    RA,RB                   Overage left to free
 0003AC 5830 C04C            00004 12015     685.              L     RB,OMEMLOC              Get the start of our area
 0003B0 5A30 C048            00000 12016     686.              A     RB,OMEMSIZE             Get the end of our area
 0003B4                            12017     687.              POOLFREE (RA),A=(RB),TYPE=(LOCAL,PAGE)
 0003B4 D70B D048 D048 00000 00000 12028             +
 0003BA 5020 D04C            00004 12030             +
 0003BE 5030 D050            00008 12031             +
 0003C2 9212 D04A      00002       12041             +
 0003C6 58F0 A5DC/0DEF       0091C 12044             +
                                   12046     688.     *
                                   12047     689.     * All done
                                   12048     690.     *
 0003CC 981F C008            00008 12049     691.              PEND  ,
 DROP   OMEMP-72,R12
 DROP   OMEMGET,R10
 0003D0 9680 C000/0B0E 00000       12064             +
 DROP   @MEMORY-72,R13
1GSTINTF  (GSTI00) (09:40) (22MAR04) IHAPSAE  - PSA Extension (ESAME)                                                       Page   41
0Loc    Object Code    Addr1 Addr2  Stmt Lv Lineno    Source Statement           (Hibal 5, Asmedit 3.3)  HLASM R4.0  2004/03/22 09.40
+___    ______ ____    _____ _____  ____ __ ______    ______ _________
0                                  12074     693.     *******************************************************************
                                   12075     694.     *                                                                 *
                                   12076     695.     *     GETCPU - This routine allocates and initializes the CPUB's. *
                                   12077     696.     *                                                                 *
                                   12078     697.     *                                                                 *
                                   12079     698.     *      Input - GETCPUP                                            *
                                   12080     699.     *                                                                 *
                                   12081     700.     *     Output - none                                               *
                                   12082     701.     *                                                                 *
                                   12083     702.     *                                                                 *
                                   12084     703.     *******************************************************************
-000000                00000 00004 12086     705.     GETCPUP  RECORD BEGIN
 000000                            12094  1  706.     GETCGSTC   DS    A             Address of the GSTCT
 000004                00004 00004 12095     707.              END   ,
-0003D6                            12105     709.     GETCPU   PROC  GETCPUP,SCOPE=LOCAL
 0003D6 C7C5E3C3D7E44040           12110             +
 0003DE 0008/0000                  12111             +
 0003E2 900F D004/18AF       00004 12113             +
 USING  GETCPU,R10
 0003E8 50D0 C000/18CD       00000 12128             +
 0003EE 9680 C000      00000       12130             +
 USING  GETCPUP-72,R12
 0003F2 41D0 C050            00050 12144             +
 0003F6 5860 C048            00000 12145     710.              L     RX,GETCGSTC
 USING  GSTCT,R6                   12146     711.              WITH  (GSTCT,RX)
                                   12159     712.     *
                                   12160     713.     * Get the memory
                                   12161     714.     *
 0003FA 5820 6004            00004 12162     715.              L     RA,GSTCNCPU             Count of CPUs
 0003FE 4C20 A582            00964 12163     716.              MH    RA,=Y(L'CPUB)           Size of a CPUB
 USING  @MEMORY-72,R13             12164     717.              POOLGET (RA),TYPE=(LOCAL,FIX,PAGE)
 000402 D70B D048 D048 00000 00000 12182             +
 000408 5020 D04C            00004 12184             +
 00040C 9216 D04A      00002       12198             +
 000410 58F0 A4F6/0DEF       008D8 12201             +
 000416 1870                       12203     718.              LR    RY,RVR
 USING  CPUB,R7                    12204     719.              WITH  (CPUB,RY)
 000418 1B55                       12217     720.              CLEAR RK                      Starting CPU Number
                                   12221     721.     *
                                   12222     722.     * Loop through all the CPUB's, initializing them
                                   12223     723.     *
 00041A 5950 6004            00004 12224     724.              WHILE (RK,LT,GSTCNCPU),BEGIN
 00041E 47B0 A0C2            004A4 12238             +
 000422 1825                       12243  1  725.                LR    RA,RK                   Get the CPU Number
 000424 8920 0002            00002 12244  1  726.                SLL   RA,2                    Get offset into table
 000428 5072 6038            00038 12245  1  727.                ST    RY,GSTCCPUS(RA)         Save the CPUB address
                                   12246  1  728.     *
                                   12247  1  729.     * Fill in the CPUB
                                   12248  1  730.     *
 00042C D203 7000 A53E 00000 00920 12249  1  731.                MVC   CPUB(4),=C'CPUB'        Control block id
 000432 5060 7004            00004 12250  1  732.                ST    RX,CPGSTCT              Address of the GSTCT
 000436 B110 7100            00100 12251  1  733.                LRA   RS,SIEDATA
1GSTINTF  (GSTI00) (09:40) (22MAR04) IHAPSAE  - PSA Extension (ESAME)                                                       Page   42
0Current Usings:  (GSTCT,R6) (CPUB,R7) (GETCPU,R10) (GETCPUP-72,R12) (@MEMORY-72,R13)
0Loc    Object Code    Addr1 Addr2  Stmt Lv Lineno    Source Statement           (Hibal 5, Asmedit 3.3)  HLASM R4.0  2004/03/22 09.40
+___    ______ ____    _____ _____  ____ __ ______    ______ _________
000043A 5010 700C            0000C 12252  1  734.                ST    RS,CPSIERA              Real address of the SIE area
 00043E D203 7010 6010 00010 00010 12253  1  735.                MVC   CPCORE,GSTCCORE         Address of machine memory
 000444 D203 7014 6014 00014 00014 12254  1  736.                MVC   CPCLEN,GSTCCLEN         Length of the core
 00044A 5810 7010            00010 12255  1  737.                L     RS,CPCORE
 00044E 5A10 7014            00014 12256  1  738.                A     RS,CPCLEN
 000452 5010 7018            00018 12257  1  739.                ST    RS,CPCLAST              Address of last byte +1
                                   12258  1  740.
 000456 1815                       12259  1  741.                LR    RS,RK                   Get CPU number
 000458 5610 A542            00924 12260  1  742.                O     RS,=X'80000000'         Want this bit on too
 00045C 5010 7064            00064 12261  1  743.                ST    RS,CPCPUA               Save the CPU address
 000460 B202 7068      00068       12262  1  744.                STIDP CPCPUID                 Save the CPU id
                                   12263  1  745.     *
                                   12264  1  746.     * set up the PSA
                                   12265  1  747.     *
 000464 D203 7070 7010 00070 00010 12266  1  748.                MVC   CPPSALOC,CPCORE         Real = Absolute
                                   12267  1  749.
 00046A 9620 7103      00103       12268  1  750.                SET   SIESA390                ESA/390 guest
 00046E 4810 7010            00010 12274  1  751.                LH    RS,CPCORE               Address (in 64K segments)
 000472 4010 7108            00108 12275  1  752.                STH   RS,SIEMSORG             Save main storage origin
 000476 4810 7014            00014 12276  1  753.                LH    RS,CPCLEN               Length (in 64K segments)
 00047A 0610                       12277  1  754.                DECR  RS
 00047C 4010 710A            0010A 12279  1  755.                STH   RS,SIEGMSIZ             Save the main storage size
                                   12280  1  756.
 000480 D203 7160 601C 00160 0001C 12281  1  757.                MVC   SIERCP,GSTCRCPA         RCP Area
 000486 5810 6024/1211       00024 12282  1  758.                LT    RS,GSTCSCA              Get the SCA virtual address
 00048C 4780 A0B2            00494 12286  1  759.                IF    NZ,'LRA RS,@RS'         Get the real address
 000490 B110 1000            00000 12298  1          +
 000494 5010 7164            00164 12303  1  760.                ST    RS,SIEISCAA             Save the SCA real address
                                   12304  1  761.
 000498 4A70 A582            00964 12305  1  762.                AH    RY,=Y(L'CPUB)           Point at the next one
 00049C 5E50 A546            00928 12306  1  763.                INCR  RK                      Up the CPU number
 0004A0 47F0 A038            0041A 12309     764.              END   ,
 0004A4 981F C008            00008 12314     765.              PEND
 DROP   CPUB,R7
 DROP   GSTCT,R6
 DROP   GETCPUP-72,R12
 DROP   GETCPU,R10
 0004A8 9680 C000/0B0E 00000       12339             +
 DROP   @MEMORY-72,R13
1GSTINTF  (GSTI00) (09:40) (22MAR04) IHAPSAE  - PSA Extension (ESAME)                                                       Page   43
0Loc    Object Code    Addr1 Addr2  Stmt Lv Lineno    Source Statement           (Hibal 5, Asmedit 3.3)  HLASM R4.0  2004/03/22 09.40
+___    ______ ____    _____ _____  ____ __ ______    ______ _________
0                                  12349     767.     *******************************************************************
                                   12350     768.     *                                                                 *
                                   12351     769.     *  PRFINTP - Parameters passed to Profile initialization routine  *
                                   12352     770.     *                                                                 *
                                   12353     771.     *******************************************************************
0000000                00000 00004 12355     773.     PRFINTP  RECORD BEGIN
 000000                            12363  1  774.     PRFIGSTC   DS    A             Address of the GSTCT
 000004                00004 00004 12364     775.              END   ,
-
                                   12374     777.     *******************************************************************
                                   12375     778.     *                                                                 *
                                   12376     779.     *  PROFWORK - Profile routine work area                           *
                                   12377     780.     *                                                                 *
                                   12378     781.     *******************************************************************
0000000                00000 00070 12380     783.     PROFWORK RECORD BEGIN
 000000                            12388  1  784.     PRFWPARM   DS    XL(L'PARMIN)            Parmin area
 000004                            12389  1  785.     PRFWKEY1   DS    CL8                     Key 1
 00000C                            12390  1  786.     PRFWKEY2   DS    CL8                     Key 2
 000014                            12391  1  787.     PRFWKEY3   DS    CL8                     Key 3
 00001C                            12392  1  788.     PRFWVAL    DS    A                       Integer value
 000020                            12393  1  789.     PRFWSTR    DS    CL80                    String parameter area
 000070                00070 00070 12394     790.              END   ,
-
                                   12404     792.     *******************************************************************
                                   12405     793.     *                                                                 *
                                   12406     794.     *  Default parameters for dynamic initialization of Profile file  *
                                   12407     795.     *                                                                 *
                                   12408     796.     *******************************************************************
000096C                0096C 08402 12410     798.              DATA  BEGIN
 00096C E6E8D34BC7E24BD6           12415  1  799.     PRFDSN     DC    CL44'WYL.GS.ORV.MP.ALPHA.PROFILE'
 000998 00000096                   12416  1  800.     PRFPTRKS   DC    A(150)                  Primary space (tracks)
 00099C 00000096                   12417  1  801.     PRFSTRKS   DC    A(150)                  Secondary space (tracks)
 0009A0 4EF1404040404040           12418  1  802.     PRFGEN     DC    CL8'+1'                 Generation number
 0004AE                00000 08402 12419     803.              END
1GSTINTF  (GSTI00) (09:40) (22MAR04) IHAPSAE  - PSA Extension (ESAME)                                                       Page   44
0Loc    Object Code    Addr1 Addr2  Stmt Lv Lineno    Source Statement           (Hibal 5, Asmedit 3.3)  HLASM R4.0  2004/03/22 09.40
+___    ______ ____    _____ _____  ____ __ ______    ______ _________
0                                  12426     805.     *******************************************************************
                                   12427     806.     *                                                                 *
                                   12428     807.     *     PROFINIT - Routine to initialize the guest profiler.  It    *
                                   12429     808.     *                obtains the parameters and if profiling is       *
                                   12430     809.     *                desired it allocates and opens the file.         *
                                   12431     810.     *                                                                 *
                                   12432     811.     *                                                                 *
                                   12433     812.     *      Input - none                                               *
                                   12434     813.     *                                                                 *
                                   12435     814.     *     Output - none                                               *
                                   12436     815.     *                                                                 *
                                   12437     816.     *                                                                 *
                                   12438     817.     *******************************************************************
-0004AE                            12440     819.     PROFINIT PROC  PRFINTP,PROFWORK,SCOPE=LOCAL
 0004AE D7D9D6C6C9D5C9E3           12445             +
 0004B6 0008/0070                  12446             +
 0004BA 900F D004/18AF       00004 12448             +
 USING  PROFINIT,R10
 0004C0 50D0 C000/18CD       00000 12463             +
 0004C6 9680 C000      00000       12465             +
 USING  PRFINTP-72,R12
 AUSING (PROFWORK,PRFINTP+8)
 0004CA 41D0 C0C0            000C0 12484             +
 AUSING (PARMIN,PRFWPARM)          12485     820.              WITH  (PARMIN,PRFWPARM)
 0004CE 5870 C048            00000 12492     821.              L     RY,PRFIGSTC
 USING  GSTCT,R7                   12493     822.              WITH  (GSTCT,RY)
                                   12506     823.     *
                                   12507     824.     * Set up the profiling information
                                   12508     825.     *
 0004D2 D207 7088 A3C6 00088 00880 12509     826.              MVC   GSTCPINT,=FL8S12E3'1000'   Default is 1000 ms
 USING  @PARMDO-72,R13             12510     827.              PSET  @PARMDO
 0004D8 D70F D048 D048 00000 00000 12527             +
 0004DE 4100 C050            00000 12528     828.              PMOV  @PARILOC,LA:PARMIN      PARMIN location
 0004E2 5000 D048            00000 12544             +
 0004E6 4100 0014            00014 12545     829.              PMOV  @PARILEN,LA:L'PARMIN+16 Length of input
 0004EA 5000 D04C            00004 12561             +
 0004EE 4100 C070            00020 12562     830.              PMOV  @PAROLOC,LA:PRFWSTR     Location of return area
 0004F2 5000 D050            00008 12578             +
 0004F6 4100 0050            00050 12579     831.              PMOV  @PAROLEN,LA:L'PRFWSTR   Length of return area
 0004FA 5000 D054            0000C 12595             +
                                   12596     832.     *
                                   12597     833.     * Find out if profiling is wanted
                                   12598     834.     *
 0004FE D207 C054 A3CE 00004 00888 12599     835.              MVC   PRFWKEY1,=CL8'PROFILE'  Main Keyword
 000504 D207 C05C A3D6 0000C 00890 12600     836.              MVC   PRFWKEY2,=CL8'ACTIVE'   Secondary keyword
 00050A 9208 C050      00000       12601     837.              SET   PARMFYN
 00050E 58F0 A42A/0DEF       008E4 12607     838.              VCALL PARMDO
                                   12611     839.     *
                                   12612     840.     *  Profiling is requested - first set the profile interval
                                   12613     841.     *
 000514 1200/4770 A2F4       007AE 12614     842.              IF    ((RVR,Z),AND,('CLI PRFWSTR,C"Y"',EQ)),BEGIN
 00051A 95E8 C070      00020       12634             +
 00051E 4770 A2F4            007AE 12635             +
 000522 D207 C05C A3DE 0000C 00898 12640  1  843.                MVC   PRFWKEY2,=CL8'INTERVAL'  Keyword
1GSTINTF  (GSTI00) (09:40) (22MAR04) IHAPSAE  - PSA Extension (ESAME)                                                       Page   45
0Current Usings:  (GSTCT,R7) (PROFINIT,R10) (PRFINTP-72,R12) (@PARMDO-72,R13)
0Loc    Object Code    Addr1 Addr2  Stmt Lv Lineno    Source Statement           (Hibal 5, Asmedit 3.3)  HLASM R4.0  2004/03/22 09.40
+___    ______ ____    _____ _____  ____ __ ______    ______ _________
0000528                            12641  1  844.                PSET  @PARMDO
 000528 D70F D048 D048 00000 00000 12651  1          +
 00052E 4100 C050            00000 12652  1  845.                PMOV  @PARILOC,LA:PARMIN      PARMIN location
 000532 5000 D048            00000 12668  1          +
 000536 4100 0014            00014 12669  1  846.                PMOV  @PARILEN,LA:L'PARMIN+16 Length of input
 00053A 5000 D04C            00004 12685  1          +
 00053E 4100 C06C            0001C 12686  1  847.                PMOV  @PAROLOC,LA:PRFWVAL     Location of return area
 000542 5000 D050            00008 12702  1          +
 000546 4100 0004            00004 12703  1  848.                PMOV  @PAROLEN,LA:L'PRFWVAL   Length of return area
 00054A 5000 D054            0000C 12719  1          +
 00054E 9204 C050      00000       12720  1  849.                SET   PARMFINT
 000552 58F0 A42A/0DEF       008E4 12726  1  850.                VCALL PARMDO
 000558 1200/4770 A0C4       0057E 12730  1  851.                IF    (RVR,Z),BEGIN
 00055E D207 7088 A3E6 00088 008A0 12744  2  852.                  MVC   GSTCPINT,=XL8'4E00000000000000'   Floating point zero
 000564 D203 708C C06C 0008C 0001C 12745  2  853.                  MVC   GSTCPINT+4(4),PRFWVAL   Parameter value (in mS)
 00056A 6800 7088            00088 12746  2  854.                  LD    R0,GSTCPINT
 00056E 6C00 A3EE            008A8 12747  2  855.                  MD    R0,=D'4096E3'           Convert mS to TOD fmt
 000572 6E00 A3E6            008A0 12748  2  856.                  AW    R0,=XL8'4E00000000000000'   Scale the result
 000576 6000 7088            00088 12749  2  857.                  STD   R0,GSTCPINT
 00057A 9200 7088      00088       12750  2  858.                  MVI   GSTCPINT,0              Remove the exponent
 00057E                            12751  1  859.                END   ,
                                   12755  1  860.     *
                                   12756  1  861.     *  Now build the dynamic allocation parameter area
                                   12757  1  862.     *
 DROP   @PARMDO-72,R13             12758  1  863.                MEMGET L'@DSALLO
 USING  @MEMGET-72,R13
 00057E D709 D048 D048 00000 00000 12780  1          +
 000584 4100 0060            00060 12787  1          +
 000588 5000 D04C            00004 12788  1          +
 00058C 9211 D051      00009       12798  1          +
 000590 58F0 A426/0DEF       008E0 12801  1          +
 000596 1850                       12803  1  864.                LR    RK,RVR
 USING  @DSALLO,R5                 12804  1  865.                WITH  (@DSALLO,RK)
 000598 D22B 5004 A4B2 00004 0096C 12817  1  866.                MVC   @DSDSN,PRFDSN           Set the data set name
 00059E D207 5030 A4E6 00030 009A0 12818  1  867.                MVC   @DSMEM,PRFGEN            generation
 0005A4 D207 5038 A3CE 00038 00888 12819  1  868.                MVC   @DSDDN,=CL8'PROFILE'     dd name
 0005AA 9650 504C      0004C       12820  1  869.                SET   @DSNEW+@DSGDG            new data set and gdg
 0005AE 9610 504D      0004D       12829  1  870.                SET   @DSARLSE                 release unused space
 0005B2 D203 5054 A4DE 00054 00998 12835  1  871.                MVC   @DSPTQ,PRFPTRKS          primary space
 0005B8 D203 5058 A4E2 00058 0099C 12836  1  872.                MVC   @DSSTQ,PRFSTRKS          secondary space
                                   12837  1  873.     *
                                   12838  1  874.     *  Now obtain the parameter overrides - start with dsname
                                   12839  1  875.     *
 0005BE D207 C05C A3F6 0000C 008B0 12840  1  876.                MVC   PRFWKEY2,=CL8'DSNAME'    Keyword
 DROP   @MEMGET-72,R13             12841  1  877.                PSET  @PARMDO
 USING  @PARMDO-72,R13
 0005C4 D70F D048 D048 00000 00000 12861  1          +
 0005CA 4100 C050            00000 12862  1  878.                PMOV  @PARILOC,LA:PARMIN      PARMIN location
 0005CE 5000 D048            00000 12878  1          +
 0005D2 4100 0014            00014 12879  1  879.                PMOV  @PARILEN,LA:L'PARMIN+16 Length of input
 0005D6 5000 D04C            00004 12895  1          +
 0005DA 4100 C070            00020 12896  1  880.                PMOV  @PAROLOC,LA:PRFWSTR     Location of return area
 0005DE 5000 D050            00008 12912  1          +
 0005E2 4100 002C            0002C 12913  1  881.                PMOV  @PAROLEN,LA:L'@DSDSN    Length of return area
1GSTINTF  (GSTI00) (09:40) (22MAR04) IHAPSAE  - PSA Extension (ESAME)                                                       Page   46
0Current Usings:  (@DSALLO,R5) (GSTCT,R7) (PROFINIT,R10) (PRFINTP-72,R12) (@PARMDO-72,R13)
0Loc    Object Code    Addr1 Addr2  Stmt Lv Lineno    Source Statement           (Hibal 5, Asmedit 3.3)  HLASM R4.0  2004/03/22 09.40
+___    ______ ____    _____ _____  ____ __ ______    ______ _________
00005E6 5000 D054            0000C 12929  1          +
 0005EA 9200 C050      00000       12930  1  882.                SET   PARMFSTR
 0005EE 58F0 A42A/0DEF       008E4 12936  1  883.                VCALL PARMDO
 0005F4 1200/4770 A15A       00614 12940  1  884.                IF    (RVR,Z),BEGIN
 0005FA D22B 5004 A472 00004 0092C 12954  2  885.                  MVC   @DSDSN,=CL44' '         Blank the name field
 000600 5810 D054            0000C 12955  2  886.                  L     RS,@PAROLEN             String length
 000604 0610/4410 A4EE       009A8 12956  2  887.                  DEX   RS,'MVC  @DSDSN(0),PRFWSTR'   Move it in
 0009A8 D200 5004 C070 00004 00020 12967  2          +
 00060A                            12975  2  888.                  CLEAR @DSMEM                  Assume it isn't a gdg
 00060A D707 5030 5030 00030 00030 12981  2          +
 000610 94EF 504C      0004C       12982  2  889.                  CLEAR @DSGDG
 000614                            12989  1  890.                END   ,
                                   12993  1  891.     *
                                   12994  1  892.     *  Get gdg
                                   12995  1  893.     *
 000614 D207 C05C A3FE 0000C 008B8 12996  1  894.                MVC   PRFWKEY2,=CL8'GDG'      Keyword
 00061A                            12997  1  895.                PSET  @PARMDO
 00061A D70F D048 D048 00000 00000 13007  1          +
 000620 4100 C050            00000 13008  1  896.                PMOV  @PARILOC,LA:PARMIN      PARMIN location
 000624 5000 D048            00000 13024  1          +
 000628 4100 0014            00014 13025  1  897.                PMOV  @PARILEN,LA:L'PARMIN+16 Length of input
 00062C 5000 D04C            00004 13041  1          +
 000630 4100 C070            00020 13042  1  898.                PMOV  @PAROLOC,LA:PRFWSTR     Location of return area
 000634 5000 D050            00008 13058  1          +
 000638 4100 0008            00008 13059  1  899.                PMOV  @PAROLEN,LA:L'@DSMEM    Length of return area
 00063C 5000 D054            0000C 13075  1          +
 000640 9200 C050      00000       13076  1  900.                SET   PARMFSTR
 000644 58F0 A42A/0DEF       008E4 13082  1  901.                VCALL PARMDO
 00064A 1200/4770 A1AA       00664 13086  1  902.                IF    (RVR,Z),BEGIN
 000650 D207 5030 A406 00030 008C0 13100  2  903.                  MVC   @DSMEM,=CL8' '          Blank the name field
 000656 5810 D054            0000C 13101  2  904.                  L     RS,@PAROLEN             String length
 00065A 0610/4410 A4F4       009AE 13102  2  905.                  DEX   RS,'MVC  @DSMEM(0),PRFWSTR'   Move it in
 0009AE D200 5030 C070 00030 00020 13113  2          +
 000660 9610 504C      0004C       13121  2  906.                  SET   @DSGDG                  Create a new gdg
 000664                            13127  1  907.                END   ,
                                   13131  1  908.     *
                                   13132  1  909.     *  Get volume
                                   13133  1  910.     *
 000664 D207 C05C A40E 0000C 008C8 13134  1  911.                MVC   PRFWKEY2,=CL8'VOLUME'    Keyword
 00066A                            13135  1  912.                PSET  @PARMDO
 00066A D70F D048 D048 00000 00000 13145  1          +
 000670 4100 C050            00000 13146  1  913.                PMOV  @PARILOC,LA:PARMIN      PARMIN location
 000674 5000 D048            00000 13162  1          +
 000678 4100 0014            00014 13163  1  914.                PMOV  @PARILEN,LA:L'PARMIN+16 Length of input
 00067C 5000 D04C            00004 13179  1          +
 000680 4100 C070            00020 13180  1  915.                PMOV  @PAROLOC,LA:PRFWSTR     Location of return area
 000684 5000 D050            00008 13196  1          +
 000688 4100 0006            00006 13197  1  916.                PMOV  @PAROLEN,LA:L'@DSVOL    Length of return area
 00068C 5000 D054            0000C 13213  1          +
 000690 9200 C050      00000       13214  1  917.                SET   PARMFSTR
 000694 58F0 A42A/0DEF       008E4 13220  1  918.                VCALL PARMDO
 00069A 1200/4770 A1F6       006B0 13224  1  919.                IF    (RVR,Z),BEGIN
 0006A0 D205 5040 A4AC 00040 00966 13238  2  920.                  MVC   @DSVOL,=CL6' '          Blank the name field
 0006A6 5810 D054            0000C 13239  2  921.                  L     RS,@PAROLEN             String length
1GSTINTF  (GSTI00) (09:40) (22MAR04) IHAPSAE  - PSA Extension (ESAME)                                                       Page   47
0Current Usings:  (@DSALLO,R5) (GSTCT,R7) (PROFINIT,R10) (PRFINTP-72,R12) (@PARMDO-72,R13)
0Loc    Object Code    Addr1 Addr2  Stmt Lv Lineno    Source Statement           (Hibal 5, Asmedit 3.3)  HLASM R4.0  2004/03/22 09.40
+___    ______ ____    _____ _____  ____ __ ______    ______ _________
00006AA 0610/4410 A4FA       009B4 13240  2  922.                  DEX   RS,'MVC  @DSVOL(0),PRFWSTR'   Move it in
 0009B4 D200 5040 C070 00040 00020 13251  2          +
 0006B0                            13259  1  923.                END   ,
                                   13263  1  924.     *
                                   13264  1  925.     *  Get track override
                                   13265  1  926.     *
 0006B0 D207 C05C A416 0000C 008D0 13266  1  927.                MVC   PRFWKEY2,=CL8'TRACKS'   Keyword
 0006B6                            13267  1  928.                PSET  @PARMDO
 0006B6 D70F D048 D048 00000 00000 13277  1          +
 0006BC 4100 C050            00000 13278  1  929.                PMOV  @PARILOC,LA:PARMIN      PARMIN location
 0006C0 5000 D048            00000 13294  1          +
 0006C4 4100 0014            00014 13295  1  930.                PMOV  @PARILEN,LA:L'PARMIN+16 Length of input
 0006C8 5000 D04C            00004 13311  1          +
 0006CC 4100 C06C            0001C 13312  1  931.                PMOV  @PAROLOC,LA:PRFWVAL     Location of return area
 0006D0 5000 D050            00008 13328  1          +
 0006D4 4100 0004            00004 13329  1  932.                PMOV  @PAROLEN,LA:L'PRFWVAL   Length of return area
 0006D8 5000 D054            0000C 13345  1          +
 0006DC 9204 C050      00000       13346  1  933.                SET   (PARMFINT,EQ)
 0006E0 58F0 A42A/0DEF       008E4 13353  1  934.                VCALL PARMDO
 0006E6 1200/4770 A23E       006F8 13357  1  935.                IF    (RVR,Z),BEGIN
 0006EC D203 5054 C06C 00054 0001C 13371  2  936.                  MVC   @DSPTQ,PRFWVAL          Primary value
 0006F2 D203 5058 C06C 00058 0001C 13372  2  937.                  MVC   @DSSTQ,PRFWVAL          Secondary value
 0006F8                            13373  1  938.                END   ,
                                   13377  1  939.     *
                                   13378  1  940.     *  Do the dynamic allocation
                                   13379  1  941.     *
 DROP   @PARMDO-72,R13             13380  1  942.                PSET  @DSDALLO
 USING  @DSDALLO-72,R13
 0006F8 D703 D048 D048 00000 00000 13400  1          +
 0006FE 5050 D048            00000 13401  1  943.                ST    RK,@DSDPARM
 000702 58F0 A49E/0DEF       00958 13402  1  944.                VCALL DSALLO
                                   13406  1  945.     *
                                   13407  1  946.     *  If allocation failed log the error
                                   13408  1  947.     *
 000708 1230/4780 A286       00740 13409  1  948.                IF    ('LTR  RB,RVR',NZ),BEGIN
 00070E 0700/4510 A27C       00736 13422  2  949.                  WTO   'Profile allocation failure',ROUTCDE=11
 000714 001E/8000                  13425  2          +
 000718 D799968689938540           13427  2          +
 000720 819393968381A389                  2          +
 000732 0000/0020/0A23             13428  2          +
 000738 0ADE                       13432  2  950.                  QSNAP @DSRTN,6
 00073A 080600005046               13435  2          +
 000740                            13436  1  951.                END
                                   13440  1  952.     *
                                   13441  1  953.     * If allocation was successful open the data set
                                   13442  1  954.     *
 000740 A28A           00740 0070C 13443  1  955.                ELSE  BEGIN
 000740 47F0 A2F4            007AE 13448  1          +
 DROP   @DSDALLO-72,R13            13454  2  956.                  POOLGET L'PROFPARM,TYPE=(LOCAL,BELOW16M)
 USING  @MEMORY-72,R13
 000744 D70B D048 D048 00000 00000 13475  2          +
 00074A 4100 0128            00128 13483  2          +
 00074E 5000 D04C            00004 13484  2          +
 000752 9200 D04A      00002       13491  2          +
1GSTINTF  (GSTI00) (09:40) (22MAR04) IHAPSAE  - PSA Extension (ESAME)                                                       Page   48
0Current Usings:  (@DSALLO,R5) (GSTCT,R7) (PROFINIT,R10) (PRFINTP-72,R12) (@MEMORY-72,R13)
0Loc    Object Code    Addr1 Addr2  Stmt Lv Lineno    Source Statement           (Hibal 5, Asmedit 3.3)  HLASM R4.0  2004/03/22 09.40
+___    ______ ____    _____ _____  ____ __ ______    ______ _________
0000756 58F0 A41E/0DEF       008D8 13494  2          +
 00075C 5000 7080            00080 13496  2  957.                  ST    RVR,GSTCPLOC            Save the location
 000760 1820                       13497  2  958.                  LR    RA,RVR
 USING  PROFPARM,R2                13498  2  959.                  WITH  (PROFPARM,RA)
 000762 5810 A4A2            0095C 13511  2  960.                  L     RS,=A(AM24CAP)          Get the cap address
 000766 D211 2000 1000 00000 00000 13512  2  961.                  MVC   PAM24,@RS               Copy the cap into the area
 00076C D25F 20AC A31A 000AC 007D4 13513  2  962.                  MVC   PDCB,PROFDCB            Copy the DCB in
 000772 928F 20A8      000A8       13514  2  963.                  MVI   POPENP,X'8F'            Update the options byte
 000776 4110 20A8            000A8 13515  2  964.                  OPEN  (PDCB),MF=(E,POPENP)    Open it up
 00077A 43E1 0000            00000 13518  2          +
 00077E 4100 20AC            000AC 13519  2          +
 000782 5001 0000            00000 13520  2          +
 000786 42E1 0000/0A13       00000 13521  2          +
 00078C 9110 20DC      000DC       13523  2  965.                  IF    ~PDCB+48.X'10',EXIT     Open was not successful
 000790 47E0 A2F4            007AE 13536  2          +
 000794 9680 7090      00090       13542  2  966.                  SET   GSTCPON                 Note profiling active
                                   13548  2  967.     *
                                   13549  2  968.     *  Create the profile lock
                                   13550  2  969.     *
 DROP   @MEMORY-72,R13             13551  2  970.                  LOCKCRE PROFILE
 USING  @LOCKCRE-72,R13
 000798 D710 D048 D048 00000 00000 13572  2          +
 00079E D20F D048 A3CE 00000 00888 13573  2          +
 0007A4 58F0 A4A6/0DEF       00960 13576  2          +
 0007AA 5000 7084            00084 13578  2  971.                  ST    RVR,GSTCPLCK            Save the lock ID
 DROP   PROFPARM,R2                13579  1  972.                END
 DROP   @DSALLO,R5                 13588     973.              END
                                   13597     974.     *
                                   13598     975.     *  Free the Dynamic allocation parameter area
                                   13599     976.     *
                                   13600     977.              DROP  RK
 DROP   @LOCKCRE-72,R13            13604     978.              MEMFREE L'@DSALLO,A=(RK)
 USING  @MEMFREE-72,R13
 0007AE D709 D048 D048 00000 00000 13626             +
 0007B4 4100 0060            00060 13633             +
 0007B8 5000 D04C            00004 13634             +
 0007BC 5050 D048            00000 13635             +
 0007C0 9210 D051      00009       13642             +
 0007C4 58F0 A452/0DEF       0090C 13645             +
 0007CA 981F C008            00008 13647     979.              PEND
 DROP   GSTCT,R7
 DROP   PRFINTP-72,R12
 DROP   PROFINIT,R10
 0007CE 9680 C000/0B0E 00000       13667             +
 DROP   @MEMFREE-72,R13
1GSTINTF  (GSTI00) (09:40) (22MAR04) IHAPSAE  - PSA Extension (ESAME)                                                       Page   49
0Loc    Object Code    Addr1 Addr2  Stmt Lv Lineno    Source Statement           (Hibal 5, Asmedit 3.3)  HLASM R4.0  2004/03/22 09.40
+___    ______ ____    _____ _____  ____ __ ______    ______ _________
0                                  13677     981.   C XPDCB    DCB   DSORG=PS,DDNAME=PROFILE,MACRF=(PM),RECFM=FB,
 0007D4                                      982.                    LRECL=L'PROFDATA,BLKSIZE=200*L'PROFDATA
 0007D4 0000000000000000           13684             +
 0007E4 00000000/00                13685             +
 0007E9 000001/0000                13688             +
 0007EE 4000/00000001              13690             +
 0007F4 00/000001/90               13693             +
 0007F9 000000                     13696             +
 0007FC D7D9D6C6C9D3C540           13698             +
 000804 02/00/0050/00              13699             +
 000809 000001                     13704             +
 00080C 00000001/0000              13705             +
 000812 12C0/00000000              13707             +
 000818 00000001                   13709             +
 00081C 00000001                   13711             +
 000820 00000001/0000              13712             +
 000826 0018/00/000001             13714             +
 00082C 00000000                   13717             +
 000830 00000001                   13718             +
                                   13719     983.     PROFDCB  EQU   XPDCB,*-XPDCB,C'X'
1GSTINTF  (GSTI00) (09:40) (22MAR04) IHAPSAE  - PSA Extension (ESAME)                                                       Page   50
0Loc    Object Code    Addr1 Addr2  Stmt Lv Lineno    Source Statement           (Hibal 5, Asmedit 3.3)  HLASM R4.0  2004/03/22 09.40
+___    ______ ____    _____ _____  ____ __ ______    ______ _________
0000838                            13721     985.              LTORG ,
 000838 C3D7E4E240404040           13723                             =CL8'CPUS'
 000840 D4C5D4D6D9E84040           13724                             =CL8'MEMORY'
 000848 D4C9D5E2C9E9C540           13725                             =CL8'MINSIZE'
 000850 E2C9E9C540404040           13726                             =CL8'SIZE'
 000858 D7C5D9C3C5D5E340           13727                             =CL8'PERCENT'
 000860 D6E26DD6E5C5D940           13728                             =CL8'OS_OVER'
 000868 C7E2E3C3D7E4E740           13729                             =CL8'GSTCPUX'
 000870 F0F1F2F3F4F5F6F7           13730                             =C'0123456789ABCDEF'
 000880 00000000F4240000           13731                             =FL8S12E3'1000'
 000888 D7D9D6C6C9D3C540           13732                             =CL8'PROFILE'
 000890 C1C3E3C9E5C54040           13733                             =CL8'ACTIVE'
 000898 C9D5E3C5D9E5C1D3           13734                             =CL8'INTERVAL'
 0008A0 4E00000000000000           13735                             =XL8'4E00000000000000'
 0008A8 463E800000000000           13736                             =D'4096E3'
 0008B0 C4E2D5C1D4C54040           13737                             =CL8'DSNAME'
 0008B8 C7C4C74040404040           13738                             =CL8'GDG'
 0008C0 4040404040404040           13739                             =CL8' '
 0008C8 E5D6D3E4D4C54040           13740                             =CL8'VOLUME'
 0008D0 E3D9C1C3D2E24040           13741                             =CL8'TRACKS'
 0008D8 00000000                   13742                             =V(POOLGET)
 0008DC C7E2E3C3                   13743                             =CL4'GSTC'
 0008E0 00000000                   13744                             =V(MEMGET)
 0008E4 00000000                   13745                             =V(PARMDO)
 0008E8 0000727A                   13746                             =A(MAXCPUS)
 0008EC 00001400                   13747                             =A(MINMEG*1024)
 0008F0 00000021                   13748                             =A(33)
 0008F4 00002000                   13749                             =A(8*1024)
 0008F8 00005348                   13750                             =A(LOADIPL)
 0008FC FFFFFFFF                   13751                             =X'FFFFFFFF'
 000900 00000032                   13752                             =A(50)
 000904 00003360                   13753                             =A(CPUTASK)
 000908 00000000                   13754                             =V(SPAWN)
 00090C 00000000                   13755                             =V(MEMFREE)
 000910 FFFF0000                   13756                             =X'FFFF0000'
 000914 00010000                   13757                             =A(64*1024)
 000918 0000FFFF                   13758                             =A(64*1024-1)
 00091C 00000000                   13759                             =V(POOLFREE)
 000920 C3D7E4C2                   13760                             =C'CPUB'
 000924 80000000                   13761                             =X'80000000'
 000928 00000001                   13762                             =A(1)
 00092C 4040404040404040           13763                             =CL44' '
 000958 00000000                   13764                             =V(DSALLO)
 00095C 000083C8                   13765                             =A(AM24CAP)
 000960 00000000                   13766                             =V(LOCKCRE)
 000964 0200                       13767                             =Y(L'CPUB)
 000966 404040404040   009BA 08402 13768                             =CL6' '
1GSTINTF  (GSTI00) (09:40) (22MAR04) IHAPSAE  - PSA Extension (ESAME)                                                       Page   51
0Loc    Object Code    Addr1 Addr2  Stmt Lv Lineno    Source Statement           (Hibal 5, Asmedit 3.3)  HLASM R4.0  2004/03/22 09.40
+___    ______ ____    _____ _____  ____ __ ______    ______ _________
0                                  13773     987.     *******************************************************************
                                   13774     988.     *                                                                 *
                                   13775     989.     *    GSTDISP1 -                                                   *
                                   13776     990.     *                                                                 *
                                   13777     991.     *      Input - @FUNCPRM                                           *
                                   13778     992.     *                                                                 *
                                   13779     993.     *     Output - none                                               *
                                   13780     994.     *                                                                 *
                                   13781     995.     *                                                                 *
                                   13782     996.     *******************************************************************
-
 000000                00000 0001C 13784     998.     #DISP1   RECORD BEGIN
 000000                            13792  1  999.     #DISP1M    DS    CL27
 00001B                            13793  1 1000.     #DISP1CP   DS    CL1
                                   13794  1 1001.     #DISP1ML   EQU   *-#DISP1M
 00001C                0001C 0001C 13795    1002.              END   ,
 0009BA                            13804    1003.     GSTDISP1 PROC  @FUNCPRM,#DISP1,SCOPE=GLOBAL
 0009BA C7E2E3C4C9E2D7F1           13810             +
 0009C2 0008/0020                  13811             +
 0009C6 900F D004/18AF       00004 13813             +
 USING  GSTDISP1,R10
 0009CC 50D0 C000/18CD       00000 13828             +
 0009D2 9680 C000      00000       13830             +
 USING  @FUNCPRM-72,R12
 AUSING (#DISP1,@FUNCPRM+8)
 0009D6 41D0 C070            00070 13849             +
 0009DA 5870 C048            00000 13850    1004.              L     RY,@FUNCDTA             Get the RUCT Address
 USING  GSTCT,R7                   13851    1005.              WITH  (GSTCT,RY)
 USING  CPUB,R8                    13864    1006.              WITH  (CPUB,RM)
 USING  @DOWTO-72,R13              13877    1007.              PSET  @DOWTO
 0009DE D709 D048 D048 00000 00000 13894             +
 0009E4 9680 D050      00008       13895    1008.              SET   @DWTFSYS
 0009E8 4130 0005            00005 13901    1009.              LA    RB,DISP1MC
 0009EC 4120 A152            00B18 13902    1010.              LA    RA,DISP1ML
 0009F0                            13903    1011.              LOOP  BEGIN
 0009F0 1FEE/43E0 2000       00000 13909  1 1012.                LC    R14,@RA                 Length
 0009F6 50E0 D04C            00004 13916  1 1013.                PMOV  @DWTLEN,(R14)           Msg len
 0009FA 4100 2001            00001 13926  1 1014.                PMOV  @DWTLOC,LA:@RA+1        Msg addr
 0009FE 5000 D048            00000 13942  1          +
 000A02 4122 E001            00001 13943  1 1015.                LA    RA,1(RA,R14)            Next msg
 000A06 58F0 AE2A/0DEF       017F0 13944  1 1016.                ACALL DOWTO
 000A0C 4630 A02A            009F0 13951    1017.              UNTIL (BCT,RB),END
 000A10 1B66                       13961    1018.              CLEAR RX
 000A12 4120 00F0            000F0 13965    1019.              LA    RA,C'0'
 000A16 D21A C050 A137 00000 00AFD 13966    1020.              MVC   #DISP1M,DISP1CP
 000A1C 5886 7038/1288       00038 13967    1021.              WHILE ('LT RM,GSTCCPUS(RX)',NZ),BEGIN
 000A22 4780 A110            00AD6 13980             +
 000A26 4220 C06B            0001B 13985  1 1022.                STC   RA,#DISP1CP
 000A2A                            13986  1 1023.                PSET  @DOWTO
 000A2A D709 D048 D048 00000 00000 13996  1          +
 000A30 9680 D050      00008       13997  1 1024.                SET   @DWTFSYS
 000A34 4100 001D            0001D 14003  1 1025.                PMOV  @DWTLEN,LA:L'DISP1AS    Msg len
 000A38 5000 D04C            00004 14019  1          +
 000A3C 4100 A11A            00AE0 14020  1 1026.                PMOV  @DWTLOC,LA:DISP1AS      Msg addr
1GSTINTF  (GSTI00) (09:40) (22MAR04) IHAPSAE  - PSA Extension (ESAME)                                                       Page   52
0Current Usings:  (GSTCT,R7) (CPUB,R8) (GSTDISP1,R10) (@FUNCPRM-72,R12) (@DOWTO-72,R13)
0Loc    Object Code    Addr1 Addr2  Stmt Lv Lineno    Source Statement           (Hibal 5, Asmedit 3.3)  HLASM R4.0  2004/03/22 09.40
+___    ______ ____    _____ _____  ____ __ ______    ______ _________
0000A40 5000 D048            00000 14036  1          +
 000A44 58F0 AE2A/0DEF       017F0 14037  1 1027.                ACALL DOWTO
 000A4A 4100 001C            0001C 14044  1 1028.                PMOV  @DWTLEN,LA:#DISP1ML     Msg len
 000A4E 5000 D04C            00004 14060  1          +
 000A52 4100 C050            00000 14061  1 1029.                PMOV  @DWTLOC,LA:#DISP1M      Msg addr
 000A56 5000 D048            00000 14077  1          +
 000A5A 58F0 AE2A/0DEF       017F0 14078  1 1030.                ACALL DOWTO
 000A60 4100 001D            0001D 14085  1 1031.                PMOV  @DWTLEN,LA:L'DISP1AS    Msg len
 000A64 5000 D04C            00004 14101  1          +
 000A68 4100 A11A            00AE0 14102  1 1032.                PMOV  @DWTLOC,LA:DISP1AS      Msg addr
 000A6C 5000 D048            00000 14118  1          +
 000A70 58F0 AE2A/0DEF       017F0 14119  1 1033.                ACALL DOWTO
 000A76 5E20 AE2E            017F4 14126  1 1034.                INCR  RA                      Next CPU tag
 000A7A 4160 6004            00004 14129  1 1035.                LA    RX,@RX+4                Index to the next CPUB
 000A7E 4150 0010            00010 14130  1 1036.                LA    RK,16
 000A82                            14131  1 1037.                LOOP  BEGIN
 000A82 58F0 8100            00100 14137  2 1038.                  SET   SIEIPSTP,MODE=LOCKED,REF=SIEDATA
 000A86 4110 0004            00004 14144  2          +
 000A8A 8910 0018/180F       00018 14145  2          +
 000A90 1601/BAF0 8100       00100 14147  2          +
 000A96 4770 A0C8            00A8E 14150  2          +
 000A9A 9640 8060      00060       14151  2 1039.                  SET   CPCSTERM                In case of wait state
 000A9E 9620 8060      00060       14157  2 1040.                  SET   CPCSDIS1
 DROP   @DOWTO-72,R13              14163  2 1041.                  FPOST LA:CPECB                Wake if asleep
 USING  @FPOST-72,R13
 000AA2 D703 D048 D048 00000 00000 14184  2          +
 000AA8 41E0 805C            0005C 14189  2          +
 000AAC 50E0 D048            00000 14190  2          +
 000AB0 58F0 AE32/0DEF       017F8 14193  2          +
 DROP   @FPOST-72,R13              14195  2 1042.                  FWAIT LA:GSTCTECB             Wait until
 USING  @FWAIT-72,R13
 000AB6 D703 D048 D048 00000 00000 14216  2          +
 000ABC 41E0 7078            00078 14220  2          +
 000AC0 50E0 D048            00000 14221  2          +
 000AC4 58F0 AE36/0DEF       017FC 14224  2          +
 000ACA 4650 A0BC            00A82 14226  1 1043.                UNTIL (BCT,RK),END
 000ACE 94DF 8060      00060       14236  1 1044.                CLEAR CPCSDIS1
 000AD2 47F0 A056            00A1C 14243    1045.              END   ,
 000AD6 981F C008            00008 14248    1046.              PEND  ,
 DROP   CPUB,R8
 DROP   GSTCT,R7
 DROP   @FUNCPRM-72,R12
 DROP   GSTDISP1,R10
 000ADA 9680 C000/0B0E 00000       14273             +
 DROP   @FWAIT-72,R13
 000AE0 5C5C5C5C5C5C5C5C           14282    1047.     DISP1AS  DC    C'*****************************'
 000AFD 5C5C5C40C489A297           14283    1048.     DISP1CP  DC    C'*** Displays for guest CPU '
                                   14284    1049.
 000B18 34                         14285    1050.     DISP1ML  DC    AL1(L'DISP1M1)
 000B19 C4C9E2D7F1408396           14286    1051.     DISP1M1  DC    C'DISP1 command: Display information about Orvyl guest'
 000B4D 2F                         14287    1052.              DC    AL1(L'DISP1M2)
 000B4E 40F1F6408489A297           14288    1053.     DISP1M2  DC    C' 16 displays for each guest CPU in a tight loop'
 000B7D 19                         14289    1054.              DC    AL1(L'DISP1M3)
 000B7E 406040868999A2A3           14290    1055.     DISP1M3  DC    C' - first qsnap is the PSW'
1GSTINTF  (GSTI00) (09:40) (22MAR04) IHAPSAE  - PSA Extension (ESAME)                                                       Page   53
0Loc    Object Code    Addr1 Addr2  Stmt Lv Lineno    Source Statement           (Hibal 5, Asmedit 3.3)  HLASM R4.0  2004/03/22 09.40
+___    ______ ____    _____ _____  ____ __ ______    ______ _________
0000B97 2B                         14291    1056.              DC    AL1(L'DISP1M4)
 000B98 406040A285839695           14292    1057.     DISP1M4  DC    C' - second qsnap is registers R0 through R15'
 000BC3 39                         14293    1058.              DC    AL1(L'DISP1M5)
 000BC4 406040A388899984           14294    1059.     DISP1M5 DC C' - third qsnap is the ASB address followed by the task id'
                                   14295    1060.     DISP1MC  EQU   5
1GSTINTF  (GSTI00) (09:40) (22MAR04) IHAPSAE  - PSA Extension (ESAME)                                                       Page   54
0Loc    Object Code    Addr1 Addr2  Stmt Lv Lineno    Source Statement           (Hibal 5, Asmedit 3.3)  HLASM R4.0  2004/03/22 09.40
+___    ______ ____    _____ _____  ____ __ ______    ______ _________
0                                  14297    1062.     *******************************************************************
                                   14298    1063.     *                                                                 *
                                   14299    1064.     *    GSTTERMP - Signal guest to start preliminary termination     *
                                   14300    1065.     *               routines                                          *
                                   14301    1066.     *                                                                 *
                                   14302    1067.     *      Input - @FUNCPRM                                           *
                                   14303    1068.     *                                                                 *
                                   14304    1069.     *     Output - none                                               *
                                   14305    1070.     *                                                                 *
                                   14306    1071.     *                                                                 *
                                   14307    1072.     *******************************************************************
-
 000BFE                            14309    1074.     GSTTERMP PROC  @FUNCPRM,SCOPE=GLOBAL
 000BFE C7E2E3E3C5D9D4D7           14315             +
 000C06 0008/0000                  14316             +
 000C0A 900F D004/18AF       00004 14318             +
 USING  GSTTERMP,R10
 000C10 50D0 C000/18CD       00000 14333             +
 000C16 9680 C000      00000       14335             +
 USING  @FUNCPRM-72,R12
 000C1A 41D0 C050            00050 14349             +
 000C1E 5870 C048            00000 14350    1075.              L     RY,@FUNCDTA             Get the RUCT Address
 USING  GSTCT,R7                   14351    1076.              WITH  (GSTCT,RY)
 000C22 5880 7038            00038 14364    1077.              L     RM,GSTCCPUS             First CPUB
 USING  CPUB,R8                    14365    1078.              WITH  (CPUB,RM)
 000C26 5860 8070            00070 14378    1079.              L     RX,CPPSALOC             Location of page 0
 USING  PZERO,R6                   14379    1080.              WITH  (PZERO,RX)
                                   14392    1081.     *
                                   14393    1082.     * Get us into KEY 0 with the minimum of disturbance
                                   14394    1083.     *
 000C2A 1802                       14395    1084.              LR    RVR,R2                  R2 must be saved/restored
 000C2C B20B 0000                  14396    1085.              MODESET EXTKEY=ZERO,SAVEKEY=(2)
 000C30 B20A 0000      00000       14399             +
 000C34 18F2                       14400    1086.              LR    EPAR,R2
 000C36 1820                       14401    1087.              LR    R2,RVR                  Restore the Register
                                   14402    1088.     *
                                   14403    1089.     * Set termination flag
                                   14404    1090.     *
 000C38 9640 621A      0021A       14405    1091.              SET PZATERM                   Tell guest termination time
 000C3C B20A F000      00000       14411    1092.              MODESET KEYREG=EPAR           Restore the PSW key
 000C40 9640 8060      00060       14414    1093.              SET   CPCSTERM                In case of wait state
 USING  @FPOST-72,R13              14420    1094.              FPOST LA:CPECB                Wake if asleep
 000C44 D703 D048 D048 00000 00000 14438             +
 000C4A 41E0 805C            0005C 14443             +
 000C4E 50E0 D048            00000 14444             +
 000C52 58F0 ABEE/0DEF       017F8 14447             +
0DROP   @FPOST-72,R13              14450    1096.              FWAIT LA:GSTCTECB             Wait until guest terminates
 USING  @FWAIT-72,R13
 000C58 D703 D048 D048 00000 00000 14471             +
 000C5E 41E0 7078            00078 14475             +
 000C62 50E0 D048            00000 14476             +
 000C66 58F0 ABF2/0DEF       017FC 14479             +
1GSTINTF  (GSTI00) (09:40) (22MAR04) IHAPSAE  - PSA Extension (ESAME)                                                       Page   55
0Current Usings:  (@FWAIT-72,R13)
0Loc    Object Code    Addr1 Addr2  Stmt Lv Lineno    Source Statement           (Hibal 5, Asmedit 3.3)  HLASM R4.0  2004/03/22 09.40
+___    ______ ____    _____ _____  ____ __ ______    ______ _________
0000C6C 981F C008            00008 14482    1098.              PEND  ,
 DROP   PZERO,R6
 DROP   CPUB,R8
 DROP   GSTCT,R7
 DROP   @FUNCPRM-72,R12
 DROP   GSTTERMP,R10
 000C70 9680 C000/0B0E 00000       14512             +
 DROP   @FWAIT-72,R13
1GSTINTF  (GSTI00) (09:40) (22MAR04) IHAPSAE  - PSA Extension (ESAME)                                                       Page   56
0Loc    Object Code    Addr1 Addr2  Stmt Lv Lineno    Source Statement           (Hibal 5, Asmedit 3.3)  HLASM R4.0  2004/03/22 09.40
+___    ______ ____    _____ _____  ____ __ ______    ______ _________
0                                  14522    1100.     *******************************************************************
                                   14523    1101.     *                                                                 *
                                   14524    1102.     *    GSTTERM - Terminate the CPU tasks                            *
                                   14525    1103.     *                                                                 *
                                   14526    1104.     *                                                                 *
                                   14527    1105.     *      Input - @FUNCPRM                                           *
                                   14528    1106.     *                                                                 *
                                   14529    1107.     *     Output - none                                               *
                                   14530    1108.     *                                                                 *
                                   14531    1109.     *                                                                 *
                                   14532    1110.     *******************************************************************
-
 000C76                            14534    1112.     GSTTERM  PROC  @FUNCPRM,SCOPE=GLOBAL
 000C76 C7E2E3E3C5D9D440           14540             +
 000C7E 0008/0000                  14541             +
 000C82 900F D004/18AF       00004 14543             +
 USING  GSTTERM,R10
 000C88 50D0 C000/18CD       00000 14558             +
 000C8E 9680 C000      00000       14560             +
 USING  @FUNCPRM-72,R12
 000C92 41D0 C050            00050 14574             +
 000C96 5870 C048            00000 14575    1113.              L     RY,@FUNCDTA             Get the RUCT Address
 USING  GSTCT,R7                   14576    1114.              WITH  (GSTCT,RY)
 000C9A 1B22                       14589    1115.              CLEAR RA                      start at zero
 000C9C 5920 7004            00004 14593    1116.              WHILE (RA,LT,GSTCNCPU),BEGIN  and count up the CPU's
 000CA0 47B0 A046            00CC8 14607             +
 000CA4 1832                       14612  1 1117.                LR    RB,RA
 000CA6 8930 0002            00002 14613  1 1118.                SLL   RB,2                    Offset of the CPUB pointer
 000CAA 5833 7038            00038 14614  1 1119.                L     RB,GSTCCPUS(RB)         Pointer to the CPUB
 USING  CPUB,R3                    14615  1 1120.                WITH  (CPUB,RB)
                                   14628  1 1121.     *
                                   14629  1 1122.     * Remove the subtask
                                   14630  1 1123.     *
 USING  @CANTASK-72,R13            14631  1 1124.                PSET  @CANTASK
 000CAE D703 D048 D048 00000 00000 14648  1          +
 000CB4 D203 D048 3008 00000 00008 14649  1 1125.                MVC   @CANTID,CPTASKID        Move in the task id
 000CBA 58F0 AB7E/0DEF       01800 14650  1 1126.                VCALL CANTASK
 000CC0 4120 2001            00001 14654  1 1127.                LA    RA,@RA+1                Go on to the next CPU
 000CC4 47F0 A01A            00C9C 14655    1128.              END   ,
 DROP   CPUB,R3
                                   14665    1129.     *
                                   14666    1130.     * Subtasks are gone, time to remove the CPUB's
                                   14667    1131.     *
 000CC8 5820 7004            00004 14668    1132.              L     RA,GSTCNCPU             Number of CPUB's
 000CCC 4C20 AC1E            018A0 14669    1133.              MH    RA,=Y(L'CPUB)           Total length
 DROP   @CANTASK-72,R13            14670    1134.              POOLFREE (RA),A=L:GSTCCPUS,TYPE=(LOCAL,FIX,PAGE)
 USING  @MEMORY-72,R13
 000CD0 D70B D048 D048 00000 00000 14691             +
 000CD6 5020 D04C            00004 14693             +
 000CDA 5800 7038            00038 14697             +
 000CDE 5000 D050            00008 14698             +
 000CE2 9216 D04A      00002       14712             +
 000CE6 58F0 AB82/0DEF       01804 14715             +
                                   14717    1135.     *
1GSTINTF  (GSTI00) (09:40) (22MAR04) IHAPSAE  - PSA Extension (ESAME)                                                       Page   57
0Current Usings:  (GSTCT,R7) (GSTTERM,R10) (@FUNCPRM-72,R12) (@MEMORY-72,R13)
0Loc    Object Code    Addr1 Addr2  Stmt Lv Lineno    Source Statement           (Hibal 5, Asmedit 3.3)  HLASM R4.0  2004/03/22 09.40
+___    ______ ____    _____ _____  ____ __ ______    ______ _________
0                                  14718    1136.     * All the subtasks and CPUBs are gone... Close the profile
                                   14719    1137.     *
 000CEC 9180 7090      00090       14720    1138.              IF    GSTCPON,BEGIN
 000CF0 47E0 A0AC            00D2E 14730             +
 000CF4 5820 7080            00080 14735  1 1139.                L     RA,GSTCPLOC             Get the location
 USING  PROFPARM,R2                14736  1 1140.                WITH  (PROFPARM,RA),BEGIN
 000CF8 9280 20A8      000A8       14750  2 1141.                  MVI   POPENP,X'80'            Mark the end of the list
 000CFC 4110 20A8            000A8 14751  2 1142.                  CLOSE (PDCB),MF=(E,POPENP)    Close it up
 000D00 43E1 0000            00000 14754  2          +
 000D04 4100 20AC            000AC 14755  2          +
 000D08 5001 0000            00000 14756  2          +
 000D0C 42E1 0000/0A14       00000 14757  2          +
 DROP   PROFPARM,R2                14759  1 1143.                END   ,
 000D12                            14767  1 1144.                POOLFREE L'PROFPARM,A=(RA),TYPE=(LOCAL,BELOW16M)
 000D12 D70B D048 D048 00000 00000 14778  1          +
 000D18 4100 0128            00128 14786  1          +
 000D1C 5000 D04C            00004 14787  1          +
 000D20 5020 D050            00008 14788  1          +
 000D24 9200 D04A      00002       14795  1          +
 000D28 58F0 AB82/0DEF       01804 14798  1          +
 000D2E                            14800    1145.              END   ,
                                   14804    1146.     *
                                   14805    1147.     * Then free the GSTC
                                   14806    1148.     *
 000D2E                            14807    1149.              POOLFREE L:GSTCRCPL,A=L:GSTCRCPA,TYPE=(LOCAL,PAGE)
 000D2E D70B D048 D048 00000 00000 14818             +
 000D34 5800 7020            00020 14824             +
 000D38 5000 D04C            00004 14825             +
 000D3C 5800 701C            0001C 14829             +
 000D40 5000 D050            00008 14830             +
 000D44 9212 D04A      00002       14840             +
 000D48 58F0 AB82/0DEF       01804 14843             +
 000D4E                            14845    1150.              POOLFREE L'GSTCT,A=(RY),TYPE=(LOCAL)
 000D4E D70B D048 D048 00000 00000 14856             +
 000D54 4100 0118            00118 14864             +
 000D58 5000 D04C            00004 14865             +
 000D5C 5070 D050            00008 14866             +
 000D60 9210 D04A      00002       14873             +
 000D64 58F0 AB82/0DEF       01804 14876             +
 000D6A 981F C008            00008 14878    1151.              PEND
 DROP   GSTCT,R7
 DROP   @FUNCPRM-72,R12
 DROP   GSTTERM,R10
 000D6E 9680 C000/0B0E 00000       14898             +
 DROP   @MEMORY-72,R13
1GSTINTF  (GSTI00) (09:40) (22MAR04) IHAPSAE  - PSA Extension (ESAME)                                                       Page   58
0Loc    Object Code    Addr1 Addr2  Stmt Lv Lineno    Source Statement           (Hibal 5, Asmedit 3.3)  HLASM R4.0  2004/03/22 09.40
+___    ______ ____    _____ _____  ____ __ ______    ______ _________
0                                  14908    1153.     *******************************************************************
                                   14909    1154.     *                                                                 *
                                   14910    1155.     *    GSTSTAT - Obtain statistics                                  *
                                   14911    1156.     *                                                                 *
                                   14912    1157.     *                                                                 *
                                   14913    1158.     *      Input - None                                               *
                                   14914    1159.     *                                                                 *
                                   14915    1160.     *     Output -                                                    *
                                   14916    1161.     *                                                                 *
                                   14917    1162.     *                                                                 *
                                   14918    1163.     *******************************************************************
-
 000D74                            14920    1165.     GSTSTAT  PROC  SCOPE=GLOBAL
 000D74 C7E2E3E2E3C1E340           14926             +
 000D7C 0000/0000                  14927             +
 000D80 900F D004/18AF       00004 14929             +
 USING  GSTSTAT,R10
 000D86 50D0 C000/18CD       00000 14944             +
 000D8C 9680 C000      00000       14946             +
 000D90 41D0 C048            00048 14947             +
 000D94 981F C008            00008 14948    1166.              PEND
 DROP   GSTSTAT,R10
 000D98 9680 C000/0B0E 00000       14958             +
1GSTINTF  (GSTI00) (09:40) (22MAR04) IHAPSAE  - PSA Extension (ESAME)                                                       Page   59
0Loc    Object Code    Addr1 Addr2  Stmt Lv Lineno    Source Statement           (Hibal 5, Asmedit 3.3)  HLASM R4.0  2004/03/22 09.40
+___    ______ ____    _____ _____  ____ __ ______    ______ _________
0                                  14965    1168.     *******************************************************************
                                   14966    1169.     *                                                                 *
                                   14967    1170.     *    GSTDUMP - Provide diagnostic information.                    *
                                   14968    1171.     *                                                                 *
                                   14969    1172.     *                                                                 *
                                   14970    1173.     *      Input - @DUMPPRM                                           *
                                   14971    1174.     *                                                                 *
                                   14972    1175.     *     Output - none                                               *
                                   14973    1176.     *                                                                 *
                                   14974    1177.     *                                                                 *
                                   14975    1178.     *******************************************************************
                                   14976    1179.
 000000                00000 00010 14977    1180.     #GDWA    RECORD BEGIN
 000000                            14985  1 1181.     #GDWORK    DS    CL16                Formatting work area
 000010                00010 00010 14986    1182.              END
                                   14995    1183.
 000D9E                            14996    1184.     GSTDUMP  PROC  @DUMPPRM,#GDWA,SCOPE=GLOBAL
 000D9E C7E2E3C4E4D4D740           15002             +
 000DA6 0008/0010                  15003             +
 000DAA 900F D004/18AF       00004 15005             +
 USING  GSTDUMP,R10
 000DB0 50D0 C000/18CD       00000 15020             +
 000DB6 9680 C000      00000       15022             +
 USING  @DUMPPRM-72,R12
 AUSING (#GDWA,@DUMPPRM+8)
 000DBA 41D0 C060            00060 15041             +
 000DBE 5870 C048            00000 15042    1185.              L     RY,@DUMPDTA             Get the GSTCT address
 USING  GSTCT,R7                   15043    1186.              WITH  (GSTCT,RY)
 USING  @SEG-72,R13                15056    1187.              SEGEOR '*** GUEST MACHINE INTERFACE DATA ***',,@DUMPSCB
 000DC2 D70C D048 D048 00000 00000 15075             +
 000DC8 4100 AA5E            01808 15084             +
 000DCC 5000 D04C            00004 15089             +
 000DD0 4100 0024            00024 15101             +
 000DD4 5000 D050            00008 15106             +
 000DD8 D203 D048 C04C 00000 00004 15113             +
 000DDE 9610 D054      0000C       15119             +
 000DE2 58F0 AA82/0DEF       0182C 15122             +
 000DE8                            15124    1188.              SEGEOR ,
 000DE8 D70C D048 D048 00000 00000 15136             +
 000DEE D703 D050 D050 00008 00008 15144             +
 000DF4 D203 D048 C04C 00000 00004 15151             +
 000DFA 9610 D054      0000C       15157             +
 000DFE 58F0 AA82/0DEF       0182C 15160             +
 000E04 1277/4770 A08A       00E34 15162    1189.              IF    (RY,Z),BEGIN
 000E0A                            15176  1 1190.                SEGEOB '*** NOT INITIALIZED ***'
 000E0A D70C D048 D048 00000 00000 15188  1          +
 000E10 4100 AB38            018E2 15197  1          +
 000E14 5000 D04C            00004 15202  1          +
 000E18 4100 0017            00017 15214  1          +
 000E1C 5000 D050            00008 15219  1          +
 000E20 D203 D048 C04C 00000 00004 15226  1          +
 000E26 9608 D054      0000C       15232  1          +
 000E2A 58F0 AA82/0DEF       0182C 15235  1          +
 000E30 47F0 A9AC            01756 15237  1 1191.                EXIT  GSTDUMP
 000E34                            15240    1192.              END   ,
                                   15244    1193.     *
1GSTINTF  (GSTI00) (09:40) (22MAR04) IHAPSAE  - PSA Extension (ESAME)                                                       Page   60
0Current Usings:  (GSTCT,R7) (GSTDUMP,R10) (@DUMPPRM-72,R12) (@SEG-72,R13)
0Loc    Object Code    Addr1 Addr2  Stmt Lv Lineno    Source Statement           (Hibal 5, Asmedit 3.3)  HLASM R4.0  2004/03/22 09.40
+___    ______ ____    _____ _____  ____ __ ______    ______ _________
0                                  15245    1194.     * Format out the CT
                                   15246    1195.     *
 000E34                            15247    1196.              SEG    'GSTCT at '
 000E34 D70C D048 D048 00000 00000 15258             +
 000E3A 4100 AB4F            018F9 15267             +
 000E3E 5000 D04C            00004 15272             +
 000E42 4100 0009            00009 15284             +
 000E46 5000 D050            00008 15289             +
 000E4A D203 D048 C04C 00000 00004 15296             +
 000E50 58F0 AA82/0DEF       0182C 15299             +
 000E56                            15301    1197.              SEGHEX @DUMPDTA
 000E56 D70C D048 D048 00000 00000 15312             +
 000E5C 4100 C048            00000 15325             +
 000E60 5000 D04C            00004 15330             +
 000E64 4100 0004            00004 15342             +
 000E68 5000 D050            00008 15347             +
 000E6C D203 D048 C04C 00000 00004 15354             +
 000E72 58F0 AA86/0DEF       01830 15357             +
 000E78                            15359    1198.              IF     (GSTCT,NE,'GSTC'),BEGIN
 000E78 D503 AA8A 7000 01834 00000 15370             +
 000E7E 4780 A0FA            00EA4 15371             +
 000E82                            15376  1 1199.                SEG    ' *** ID Check Failed.  This may be Garbage. *** '
 000E82 D70C D048 D048 00000 00000 15387  1          +
 000E88 4100 A9B6            01760 15396  1          +
 000E8C 5000 D04C            00004 15401  1          +
 000E90 4100 0030            00030 15413  1          +
 000E94 5000 D050            00008 15418  1          +
 000E98 D203 D048 C04C 00000 00004 15425  1          +
 000E9E 58F0 AA82/0DEF       0182C 15428  1          +
 000EA4                            15430    1200.              END   ,
 000EA4                            15434    1201.              SEGEOR
 000EA4 D70C D048 D048 00000 00000 15446             +
 000EAA D703 D050 D050 00008 00008 15454             +
 000EB0 D203 D048 C04C 00000 00004 15461             +
 000EB6 9610 D054      0000C       15467             +
 000EBA 58F0 AA82/0DEF       0182C 15470             +
 000EC0                            15472    1202.              SEG    'GSTCCORE '
 000EC0 D70C D048 D048 00000 00000 15483             +
 000EC6 4100 AB58            01902 15492             +
 000ECA 5000 D04C            00004 15497             +
 000ECE 4100 0009            00009 15509             +
 000ED2 5000 D050            00008 15514             +
 000ED6 D203 D048 C04C 00000 00004 15521             +
 000EDC 58F0 AA82/0DEF       0182C 15524             +
 000EE2                            15526    1203.              SEGHEX GSTCCORE
 000EE2 D70C D048 D048 00000 00000 15537             +
 000EE8 4100 7010            00010 15550             +
 000EEC 5000 D04C            00004 15555             +
 000EF0 4100 0004            00004 15567             +
 000EF4 5000 D050            00008 15572             +
 000EF8 D203 D048 C04C 00000 00004 15579             +
 000EFE 58F0 AA86/0DEF       01830 15582             +
 000F04                            15584    1204.              SEGEOR ' (MVS Virtual address of GUEST main memory)'
 000F04 D70C D048 D048 00000 00000 15596             +
1GSTINTF  (GSTI00) (09:40) (22MAR04) IHAPSAE  - PSA Extension (ESAME)                                                       Page   61
0Current Usings:  (GSTCT,R7) (GSTDUMP,R10) (@DUMPPRM-72,R12) (@SEG-72,R13)
0Loc    Object Code    Addr1 Addr2  Stmt Lv Lineno    Source Statement           (Hibal 5, Asmedit 3.3)  HLASM R4.0  2004/03/22 09.40
+___    ______ ____    _____ _____  ____ __ ______    ______ _________
0000F0A 4100 AB61            0190B 15605             +
 000F0E 5000 D04C            00004 15610             +
 000F12 4100 002B            0002B 15622             +
 000F16 5000 D050            00008 15627             +
 000F1A D203 D048 C04C 00000 00004 15634             +
 000F20 9610 D054      0000C       15640             +
 000F24 58F0 AA82/0DEF       0182C 15643             +
 000F2A                            15645    1205.              SEG    'GSTCCLEN '
 000F2A D70C D048 D048 00000 00000 15656             +
 000F30 4100 AB8C            01936 15665             +
 000F34 5000 D04C            00004 15670             +
 000F38 4100 0009            00009 15682             +
 000F3C 5000 D050            00008 15687             +
 000F40 D203 D048 C04C 00000 00004 15694             +
 000F46 58F0 AA82/0DEF       0182C 15697             +
 000F4C                            15699    1206.              SEGHEX GSTCCLEN
 000F4C D70C D048 D048 00000 00000 15710             +
 000F52 4100 7014            00014 15723             +
 000F56 5000 D04C            00004 15728             +
 000F5A 4100 0004            00004 15740             +
 000F5E 5000 D050            00008 15745             +
 000F62 D203 D048 C04C 00000 00004 15752             +
 000F68 58F0 AA86/0DEF       01830 15755             +
 000F6E                            15757    1207.              SEGEOR ' (Size of the guest machine main memory)'
 000F6E D70C D048 D048 00000 00000 15769             +
 000F74 4100 A9E6            01790 15778             +
 000F78 5000 D04C            00004 15783             +
 000F7C 4100 0028            00028 15795             +
 000F80 5000 D050            00008 15800             +
 000F84 D203 D048 C04C 00000 00004 15807             +
 000F8A 9610 D054      0000C       15813             +
 000F8E 58F0 AA82/0DEF       0182C 15816             +
 000F94                            15818    1208.              SEG    'GSTCRCPA '
 000F94 D70C D048 D048 00000 00000 15829             +
 000F9A 4100 AB95            0193F 15838             +
 000F9E 5000 D04C            00004 15843             +
 000FA2 4100 0009            00009 15855             +
 000FA6 5000 D050            00008 15860             +
 000FAA D203 D048 C04C 00000 00004 15867             +
 000FB0 58F0 AA82/0DEF       0182C 15870             +
 000FB6                            15872    1209.              SEGHEX GSTCRCPA
 000FB6 D70C D048 D048 00000 00000 15883             +
 000FBC 4100 701C            0001C 15896             +
 000FC0 5000 D04C            00004 15901             +
 000FC4 4100 0004            00004 15913             +
 000FC8 5000 D050            00008 15918             +
 000FCC D203 D048 C04C 00000 00004 15925             +
 000FD2 58F0 AA86/0DEF       01830 15928             +
 000FD8                            15930    1210.              SEGEOR ' (Location of the Reference/Change table)'
 000FD8 D70C D048 D048 00000 00000 15942             +
 000FDE 4100 AB9E            01948 15951             +
 000FE2 5000 D04C            00004 15956             +
 000FE6 4100 0029            00029 15968             +
 000FEA 5000 D050            00008 15973             +
1GSTINTF  (GSTI00) (09:40) (22MAR04) IHAPSAE  - PSA Extension (ESAME)                                                       Page   62
0Current Usings:  (GSTCT,R7) (GSTDUMP,R10) (@DUMPPRM-72,R12) (@SEG-72,R13)
0Loc    Object Code    Addr1 Addr2  Stmt Lv Lineno    Source Statement           (Hibal 5, Asmedit 3.3)  HLASM R4.0  2004/03/22 09.40
+___    ______ ____    _____ _____  ____ __ ______    ______ _________
0000FEE D203 D048 C04C 00000 00004 15980             +
 000FF4 9610 D054      0000C       15986             +
 000FF8 58F0 AA82/0DEF       0182C 15989             +
 000FFE                            15991    1211.              SEG    'GSTCNCPU '
 000FFE D70C D048 D048 00000 00000 16002             +
 001004 4100 ABC7            01971 16011             +
 001008 5000 D04C            00004 16016             +
 00100C 4100 0009            00009 16028             +
 001010 5000 D050            00008 16033             +
 001014 D203 D048 C04C 00000 00004 16040             +
 00101A 58F0 AA82/0DEF       0182C 16043             +
 001020                            16045    1212.              SEGHEX GSTCNCPU
 001020 D70C D048 D048 00000 00000 16056             +
 001026 4100 7004            00004 16069             +
 00102A 5000 D04C            00004 16074             +
 00102E 4100 0004            00004 16086             +
 001032 5000 D050            00008 16091             +
 001036 D203 D048 C04C 00000 00004 16098             +
 00103C 58F0 AA86/0DEF       01830 16101             +
 001042                            16103    1213.              SEGEOR ' (Number of CPUs in the configuration)'
 001042 D70C D048 D048 00000 00000 16115             +
 001048 4100 AAF8            018A2 16124             +
 00104C 5000 D04C            00004 16129             +
 001050 4100 0026            00026 16141             +
 001054 5000 D050            00008 16146             +
 001058 D203 D048 C04C 00000 00004 16153             +
 00105E 9610 D054      0000C       16159             +
 001062 58F0 AA82/0DEF       0182C 16162             +
 001068                            16164    1214.              SEGEOR
 001068 D70C D048 D048 00000 00000 16176             +
 00106E D703 D050 D050 00008 00008 16184             +
 001074 D203 D048 C04C 00000 00004 16191             +
 00107A 9610 D054      0000C       16197             +
 00107E 58F0 AA82/0DEF       0182C 16200             +
 001084                            16202    1215.              SEGEOR 'Dump of the GSTCT'
 001084 D70C D048 D048 00000 00000 16214             +
 00108A 4100 ABD0            0197A 16223             +
 00108E 5000 D04C            00004 16228             +
 001092 4100 0011            00011 16240             +
 001096 5000 D050            00008 16245             +
 00109A D203 D048 C04C 00000 00004 16252             +
 0010A0 9610 D054      0000C       16258             +
 0010A4 58F0 AA82/0DEF       0182C 16261             +
 DROP   @SEG-72,R13                16263    1216.              SEGCORE GSTCT,ID=GSTC,REPEAT=YES
 USING  @SEGCORE-72,R13
 0010AA D717 D048 D048 00000 00000 16284             +
 0010B0 5070 D04C            00004 16296             +
 0010B4 4100 0118            00118 16308             +
 0010B8 5000 D050            00008 16313             +
 0010BC D203 D05C AA8E 00014 01838 16319             +
 0010C2 D203 D058 D04C 00010 00004 16324             +
 0010C8 96F8 D055      0000D       16348             +
 0010CC D203 D048 C04C 00000 00004 16355             +
 0010D2 58F0 AA92/0DEF       0183C 16358             +
1GSTINTF  (GSTI00) (09:40) (22MAR04) IHAPSAE  - PSA Extension (ESAME)                                                       Page   63
0Current Usings:  (GSTCT,R7) (GSTDUMP,R10) (@DUMPPRM-72,R12) (@SEG-72,R13)
0Loc    Object Code    Addr1 Addr2  Stmt Lv Lineno    Source Statement           (Hibal 5, Asmedit 3.3)  HLASM R4.0  2004/03/22 09.40
+___    ______ ____    _____ _____  ____ __ ______    ______ _________
0DROP   @SEGCORE-72,R13            16360    1217.              SEGEOR
 USING  @SEG-72,R13
 0010D8 D70C D048 D048 00000 00000 16382             +
 0010DE D703 D050 D050 00008 00008 16390             +
 0010E4 D203 D048 C04C 00000 00004 16397             +
 0010EA 9610 D054      0000C       16403             +
 0010EE 58F0 AA82/0DEF       0182C 16406             +
 0010F4                            16408    1218.              SEGEOR
 0010F4 D70C D048 D048 00000 00000 16420             +
 0010FA D703 D050 D050 00008 00008 16428             +
 001100 D203 D048 C04C 00000 00004 16435             +
 001106 9610 D054      0000C       16441             +
 00110A 58F0 AA82/0DEF       0182C 16444             +
 001110                            16446    1219.              SEGEOR
 001110 D70C D048 D048 00000 00000 16458             +
 001116 D703 D050 D050 00008 00008 16466             +
 00111C D203 D048 C04C 00000 00004 16473             +
 001122 9610 D054      0000C       16479             +
 001126 58F0 AA82/0DEF       0182C 16482             +
 00112C                            16484    1220.              SEGEOB
 00112C D70C D048 D048 00000 00000 16496             +
 001132 D703 D050 D050 00008 00008 16504             +
 001138 D203 D048 C04C 00000 00004 16511             +
 00113E 9608 D054      0000C       16517             +
 001142 58F0 AA82/0DEF       0182C 16520             +
                                   16522    1221.
                                   16523    1222.                Loop through the CPUs.
                                   16524    1223.
 001148 1B22                       16525    1224.              CLEAR RA
 00114A 5920 7004            00004 16529    1225.              WHILE (RA,LT,GSTCNCPU),BEGIN
 00114E 47B0 A802            015AC 16543             +
 001152 1832                       16548  1 1226.                LR    RB,RA
 001154 8930 0002            00002 16549  1 1227.                SLL   RB,2
 001158 4133 7038            00038 16550  1 1228.                LA    RB,GSTCCPUS(RB)         address of CPUB address
                                   16551  1 1229.
                                   16552  1 1230.                  Dump CPUB and PSA.
                                   16553  1 1231.
 00115C                            16554  1 1232.                SEG   '==> CPU '
 00115C D70C D048 D048 00000 00000 16565  1          +
 001162 4100 AA0E            017B8 16574  1          +
 001166 5000 D04C            00004 16579  1          +
 00116A 4100 0008            00008 16591  1          +
 00116E 5000 D050            00008 16596  1          +
 001172 D203 D048 C04C 00000 00004 16603  1          +
 001178 58F0 AA82/0DEF       0182C 16606  1          +
 DROP   @SEG-72,R13                16608  1 1233.                BTD   (RA),#GDWORK,1
 USING  @BTD-72,R13
 00117E D70C D048 D048 00000 00000 16629  1          +
 001184 5020 D048            00000 16639  1          +
 001188 4100 C050            00000 16652  1          +
 00118C 5000 D04C            00004 16657  1          +
 001190 4100 0001            00001 16669  1          +
 001194 5000 D050            00008 16674  1          +
 001198 58F0 AA96/0DEF       01840 16677  1          +
1GSTINTF  (GSTI00) (09:40) (22MAR04) IHAPSAE  - PSA Extension (ESAME)                                                       Page   64
0Current Usings:  (GSTCT,R7) (GSTDUMP,R10) (@DUMPPRM-72,R12) (@SEG-72,R13)
0Loc    Object Code    Addr1 Addr2  Stmt Lv Lineno    Source Statement           (Hibal 5, Asmedit 3.3)  HLASM R4.0  2004/03/22 09.40
+___    ______ ____    _____ _____  ____ __ ______    ______ _________
0DROP   @BTD-72,R13                16679  1 1234.                SEG   #GDWORK,1           CPU number
 USING  @SEG-72,R13
 00119E D70C D048 D048 00000 00000 16700  1          +
 0011A4 4100 C050            00000 16713  1          +
 0011A8 5000 D04C            00004 16718  1          +
 0011AC 4100 0001            00001 16730  1          +
 0011B0 5000 D050            00008 16735  1          +
 0011B4 D203 D048 C04C 00000 00004 16742  1          +
 0011BA 58F0 AA82/0DEF       0182C 16745  1          +
 0011C0                            16747  1 1235.                SEGEOR
 0011C0 D70C D048 D048 00000 00000 16759  1          +
 0011C6 D703 D050 D050 00008 00008 16767  1          +
 0011CC D203 D048 C04C 00000 00004 16774  1          +
 0011D2 9610 D054      0000C       16780  1          +
 0011D6 58F0 AA82/0DEF       0182C 16783  1          +
 0011DC                            16785  1 1236.                SEGEOR
 0011DC D70C D048 D048 00000 00000 16797  1          +
 0011E2 D703 D050 D050 00008 00008 16805  1          +
 0011E8 D203 D048 C04C 00000 00004 16812  1          +
 0011EE 9610 D054      0000C       16818  1          +
 0011F2 58F0 AA82/0DEF       0182C 16821  1          +
                                   16823  1 1237.
 0011F8                            16824  1 1238.                SEG   'CPUB at '
 0011F8 D70C D048 D048 00000 00000 16835  1          +
 0011FE 4100 AA16            017C0 16844  1          +
 001202 5000 D04C            00004 16849  1          +
 001206 4100 0008            00008 16861  1          +
 00120A 5000 D050            00008 16866  1          +
 00120E D203 D048 C04C 00000 00004 16873  1          +
 001214 58F0 AA82/0DEF       0182C 16876  1          +
 00121A                            16878  1 1239.                SEGHEX @RB,4
 00121A D70C D048 D048 00000 00000 16889  1          +
 001220 4100 3000            00000 16902  1          +
 001224 5000 D04C            00004 16907  1          +
 001228 4100 0004            00004 16919  1          +
 00122C 5000 D050            00008 16924  1          +
 001230 D203 D048 C04C 00000 00004 16931  1          +
 001236 58F0 AA86/0DEF       01830 16934  1          +
 00123C                            16936  1 1240.                SEGEOR
 00123C D70C D048 D048 00000 00000 16948  1          +
 001242 D703 D050 D050 00008 00008 16956  1          +
 001248 D203 D048 C04C 00000 00004 16963  1          +
 00124E 9610 D054      0000C       16969  1          +
 001252 58F0 AA82/0DEF       0182C 16972  1          +
 001258                            16974  1 1241.                SEGEOR
 001258 D70C D048 D048 00000 00000 16986  1          +
 00125E D703 D050 D050 00008 00008 16994  1          +
 001264 D203 D048 C04C 00000 00004 17001  1          +
 00126A 9610 D054      0000C       17007  1          +
 00126E 58F0 AA82/0DEF       0182C 17010  1          +
                                   17012  1 1242.
 001274 5830 3000            00000 17013  1 1243.                L     RB,@RB              Get CPUB address
 USING  CPUB,R3                    17014  1 1244.                WITH  (CPUB,RB)
1GSTINTF  (GSTI00) (09:40) (22MAR04) IHAPSAE  - PSA Extension (ESAME)                                                       Page   65
0Current Usings:  (CPUB,R3) (GSTCT,R7) (GSTDUMP,R10) (@DUMPPRM-72,R12) (@SEG-72,R13)
0Loc    Object Code    Addr1 Addr2  Stmt Lv Lineno    Source Statement           (Hibal 5, Asmedit 3.3)  HLASM R4.0  2004/03/22 09.40
+___    ______ ____    _____ _____  ____ __ ______    ______ _________
0                                  17027  1 1245.
                                   17028  1 1246.                  Display CPUB.
                                   17029  1 1247.
 001278                            17030  1 1248.                SEG    'CPU Address '
 001278 D70C D048 D048 00000 00000 17041  1          +
 00127E 4100 AA9A            01844 17050  1          +
 001282 5000 D04C            00004 17055  1          +
 001286 4100 000C            0000C 17067  1          +
 00128A 5000 D050            00008 17072  1          +
 00128E D203 D048 C04C 00000 00004 17079  1          +
 001294 58F0 AA82/0DEF       0182C 17082  1          +
 00129A                            17084  1 1249.                SEGHEX CPCPUA+2,2
 00129A D70C D048 D048 00000 00000 17095  1          +
 0012A0 4100 3066            00066 17108  1          +
 0012A4 5000 D04C            00004 17113  1          +
 0012A8 4100 0002            00002 17125  1          +
 0012AC 5000 D050            00008 17130  1          +
 0012B0 D203 D048 C04C 00000 00004 17137  1          +
 0012B6 58F0 AA86/0DEF       01830 17140  1          +
 0012BC 9180 3060      00060       17142  1 1250.                IF    CPCSRUN,BEGIN
 0012C0 47E0 A540            012EA 17152  1          +
 0012C4                            17157  2 1251.                  SEGEOR '  **The CPU is running (in RUN state)**'
 0012C4 D70C D048 D048 00000 00000 17169  2          +
 0012CA 4100 ABE1            0198B 17178  2          +
 0012CE 5000 D04C            00004 17183  2          +
 0012D2 4100 0027            00027 17195  2          +
 0012D6 5000 D050            00008 17200  2          +
 0012DA D203 D048 C04C 00000 00004 17207  2          +
 0012E0 9610 D054      0000C       17213  2          +
 0012E4 58F0 AA82/0DEF       0182C 17216  2          +
 0012EA A544           012EA 012C2 17218  1 1252.                END   ELSE,BEGIN
 0012EA 47F0 A56A            01314 17227  1          +
 0012EE                            17233  2 1253.                  SEGEOR '  **The CPU is stopped (in STOP state)**'
 0012EE D70C D048 D048 00000 00000 17245  2          +
 0012F4 4100 AA1E            017C8 17254  2          +
 0012F8 5000 D04C            00004 17259  2          +
 0012FC 4100 0028            00028 17271  2          +
 001300 5000 D050            00008 17276  2          +
 001304 D203 D048 C04C 00000 00004 17283  2          +
 00130A 9610 D054      0000C       17289  2          +
 00130E 58F0 AA82/0DEF       0182C 17292  2          +
 001314                            17294  1 1254.                END   ,
 001314                            17298  1 1255.                SEG    'CPTASKID '
 001314 D70C D048 D048 00000 00000 17309  1          +
 00131A 4100 AC08            019B2 17318  1          +
 00131E 5000 D04C            00004 17323  1          +
 001322 4100 0009            00009 17335  1          +
 001326 5000 D050            00008 17340  1          +
 00132A D203 D048 C04C 00000 00004 17347  1          +
 001330 58F0 AA82/0DEF       0182C 17350  1          +
 001336                            17352  1 1256.                SEGHEX CPTASKID
 001336 D70C D048 D048 00000 00000 17363  1          +
 00133C 4100 3008            00008 17376  1          +
 001340 5000 D04C            00004 17381  1          +
1GSTINTF  (GSTI00) (09:40) (22MAR04) IHAPSAE  - PSA Extension (ESAME)                                                       Page   66
0Current Usings:  (CPUB,R3) (GSTCT,R7) (GSTDUMP,R10) (@DUMPPRM-72,R12) (@SEG-72,R13)
0Loc    Object Code    Addr1 Addr2  Stmt Lv Lineno    Source Statement           (Hibal 5, Asmedit 3.3)  HLASM R4.0  2004/03/22 09.40
+___    ______ ____    _____ _____  ____ __ ______    ______ _________
0001344 4100 0004            00004 17393  1          +
 001348 5000 D050            00008 17398  1          +
 00134C D203 D048 C04C 00000 00004 17405  1          +
 001352 58F0 AA86/0DEF       01830 17408  1          +
 001358                            17410  1 1257.                SEGEOR ' (Task ID of this subtask)'
 001358 D70C D048 D048 00000 00000 17422  1          +
 00135E 4100 AB1E            018C8 17431  1          +
 001362 5000 D04C            00004 17436  1          +
 001366 4100 001A            0001A 17448  1          +
 00136A 5000 D050            00008 17453  1          +
 00136E D203 D048 C04C 00000 00004 17460  1          +
 001374 9610 D054      0000C       17466  1          +
 001378 58F0 AA82/0DEF       0182C 17469  1          +
 00137E                            17471  1 1258.                SEGEOR ,
 00137E D70C D048 D048 00000 00000 17483  1          +
 001384 D703 D050 D050 00008 00008 17491  1          +
 00138A D203 D048 C04C 00000 00004 17498  1          +
 001390 9610 D054      0000C       17504  1          +
 001394 58F0 AA82/0DEF       0182C 17507  1          +
                                   17509  1 1259.
 DROP   @SEG-72,R13                17510  1 1260.                SEGCORE CPUB,ID=CPUB
 USING  @SEGCORE-72,R13
 00139A D717 D048 D048 00000 00000 17531  1          +
 0013A0 5030 D04C            00004 17543  1          +
 0013A4 4100 0200            00200 17555  1          +
 0013A8 5000 D050            00008 17560  1          +
 0013AC D203 D05C AAA6 00014 01850 17566  1          +
 0013B2 D203 D058 D04C 00010 00004 17571  1          +
 0013B8 96F0 D055      0000D       17589  1          +
 0013BC D203 D048 C04C 00000 00004 17596  1          +
 0013C2 58F0 AA92/0DEF       0183C 17599  1          +
 DROP   @SEGCORE-72,R13            17601  1 1261.                SEGEOR
 USING  @SEG-72,R13
 0013C8 D70C D048 D048 00000 00000 17623  1          +
 0013CE D703 D050 D050 00008 00008 17631  1          +
 0013D4 D203 D048 C04C 00000 00004 17638  1          +
 0013DA 9610 D054      0000C       17644  1          +
 0013DE 58F0 AA82/0DEF       0182C 17647  1          +
 0013E4                            17649  1 1262.                SEGEOR
 0013E4 D70C D048 D048 00000 00000 17661  1          +
 0013EA D703 D050 D050 00008 00008 17669  1          +
 0013F0 D203 D048 C04C 00000 00004 17676  1          +
 0013F6 9610 D054      0000C       17682  1          +
 0013FA 58F0 AA82/0DEF       0182C 17685  1          +
                                   17687  1 1263.
                                   17688  1 1264.                  Display PSA.
                                   17689  1 1265.
 001400                            17690  1 1266.                SEG    'Page Zero of this CPU at '
 001400 D70C D048 D048 00000 00000 17701  1          +
 001406 4100 AC11            019BB 17710  1          +
 00140A 5000 D04C            00004 17715  1          +
 00140E 4100 0019            00019 17727  1          +
 001412 5000 D050            00008 17732  1          +
 001416 D203 D048 C04C 00000 00004 17739  1          +
1GSTINTF  (GSTI00) (09:40) (22MAR04) IHAPSAE  - PSA Extension (ESAME)                                                       Page   67
0Current Usings:  (CPUB,R3) (GSTCT,R7) (GSTDUMP,R10) (@DUMPPRM-72,R12) (@SEG-72,R13)
0Loc    Object Code    Addr1 Addr2  Stmt Lv Lineno    Source Statement           (Hibal 5, Asmedit 3.3)  HLASM R4.0  2004/03/22 09.40
+___    ______ ____    _____ _____  ____ __ ______    ______ _________
000141C 58F0 AA82/0DEF       0182C 17742  1          +
 001422                            17744  1 1267.                SEGHEX CPPSALOC
 001422 D70C D048 D048 00000 00000 17755  1          +
 001428 4100 3070            00070 17768  1          +
 00142C 5000 D04C            00004 17773  1          +
 001430 4100 0004            00004 17785  1          +
 001434 5000 D050            00008 17790  1          +
 001438 D203 D048 C04C 00000 00004 17797  1          +
 00143E 58F0 AA86/0DEF       01830 17800  1          +
 001444                            17802  1 1268.                SEGEOR
 001444 D70C D048 D048 00000 00000 17814  1          +
 00144A D703 D050 D050 00008 00008 17822  1          +
 001450 D203 D048 C04C 00000 00004 17829  1          +
 001456 9610 D054      0000C       17835  1          +
 00145A 58F0 AA82/0DEF       0182C 17838  1          +
                                   17840  1 1269.     *         SEGCORE L:CPPSALOC,L:=A(4096),ID=PSA
 001460 5890 3070            00070 17841  1 1270.                L     RN,CPPSALOC
 DROP   @SEG-72,R13                17842  1 1271.                SEGCORE (RN),L:=A(4096),ID=PZER
 USING  @SEGCORE-72,R13
 001464 D717 D048 D048 00000 00000 17863  1          +
 00146A 5090 D04C            00004 17874  1          +
 00146E 5800 AAAA            01854 17882  1          +
 001472 5000 D050            00008 17887  1          +
 001476 D203 D05C AAAE 00014 01858 17893  1          +
 00147C D203 D058 D04C 00010 00004 17898  1          +
 001482 96F0 D055      0000D       17916  1          +
 001486 D203 D048 C04C 00000 00004 17923  1          +
 00148C 58F0 AA92/0DEF       0183C 17926  1          +
 DROP   @SEGCORE-72,R13            17928  1 1272.                SEGEOR
 USING  @SEG-72,R13
 001492 D70C D048 D048 00000 00000 17950  1          +
 001498 D703 D050 D050 00008 00008 17958  1          +
 00149E D203 D048 C04C 00000 00004 17965  1          +
 0014A4 9610 D054      0000C       17971  1          +
 0014A8 58F0 AA82/0DEF       0182C 17974  1          +
 0014AE                            17976  1 1273.                SEG    'PSA following Page Zero of this CPU'
 0014AE D70C D048 D048 00000 00000 17987  1          +
 0014B4 4100 AC2A            019D4 17996  1          +
 0014B8 5000 D04C            00004 18001  1          +
 0014BC 4100 0023            00023 18013  1          +
 0014C0 5000 D050            00008 18018  1          +
 0014C4 D203 D048 C04C 00000 00004 18025  1          +
 0014CA 58F0 AA82/0DEF       0182C 18028  1          +
 0014D0                            18030  1 1274.                SEGEOR
 0014D0 D70C D048 D048 00000 00000 18042  1          +
 0014D6 D703 D050 D050 00008 00008 18050  1          +
 0014DC D203 D048 C04C 00000 00004 18057  1          +
 0014E2 9610 D054      0000C       18063  1          +
 0014E6 58F0 AA82/0DEF       0182C 18066  1          +
 0014EC 4190 9280            00280 18068  1 1275.                LA    RN,@RN+L'PZERO
 DROP   @SEG-72,R13                18069  1 1276.                SEGCORE (RN),L:=A(4096-L'PZERO),ID=PSA
 USING  @SEGCORE-72,R13
 0014F0 D717 D048 D048 00000 00000 18090  1          +
 0014F6 5090 D04C            00004 18101  1          +
1GSTINTF  (GSTI00) (09:40) (22MAR04) IHAPSAE  - PSA Extension (ESAME)                                                       Page   68
0Current Usings:  (CPUB,R3) (GSTCT,R7) (GSTDUMP,R10) (@DUMPPRM-72,R12) (@SEGCORE-72,R13)
0Loc    Object Code    Addr1 Addr2  Stmt Lv Lineno    Source Statement           (Hibal 5, Asmedit 3.3)  HLASM R4.0  2004/03/22 09.40
+___    ______ ____    _____ _____  ____ __ ______    ______ _________
00014FA 5800 AAB2            0185C 18109  1          +
 0014FE 5000 D050            00008 18114  1          +
 001502 D203 D05C AAB6 00014 01860 18120  1          +
 001508 D203 D058 D04C 00010 00004 18125  1          +
 00150E 96F0 D055      0000D       18143  1          +
 001512 D203 D048 C04C 00000 00004 18150  1          +
 001518 58F0 AA92/0DEF       0183C 18153  1          +
 DROP   @SEGCORE-72,R13            18155  1 1277.                SEGEOR
 USING  @SEG-72,R13
 00151E D70C D048 D048 00000 00000 18177  1          +
 001524 D703 D050 D050 00008 00008 18185  1          +
 00152A D203 D048 C04C 00000 00004 18192  1          +
 001530 9610 D054      0000C       18198  1          +
 001534 58F0 AA82/0DEF       0182C 18201  1          +
 00153A                            18203  1 1278.                SEGEOB
 00153A D70C D048 D048 00000 00000 18215  1          +
 001540 D703 D050 D050 00008 00008 18223  1          +
 001546 D203 D048 C04C 00000 00004 18230  1          +
 00154C 9608 D054      0000C       18236  1          +
 001550 58F0 AA82/0DEF       0182C 18239  1          +
                                   18241  1 1279.
                                   18242  1 1280.                  Dump the Trace table of this CPU.
                                   18243  1 1281.
 DROP   @SEG-72,R13                18244  1 1282.                PSET  DGVMPARM
 USING  DGVMPARM-72,R13
 001556 D70F D048 D048 00000 00000 18264  1          +
 00155C D203 D050 C04C 00008 00004 18265  1 1283.                MVC   DGVMSCB,@DUMPSCB        Move in the SEG control block
 001562 5030 D04C            00004 18266  1 1284.                ST    RB,DGVMCPUB             And save the CPUB location
 001566 58F0 AABA/0DEF       01864 18267  1 1285.                ACALL DUMPTRC                 Then dump the trace
                                   18274  1 1286.
 DROP   DGVMPARM-72,R13            18275  1 1287.                SEGEOR
 USING  @SEG-72,R13
 00156C D70C D048 D048 00000 00000 18297  1          +
 001572 D703 D050 D050 00008 00008 18305  1          +
 001578 D203 D048 C04C 00000 00004 18312  1          +
 00157E 9610 D054      0000C       18318  1          +
 001582 58F0 AA82/0DEF       0182C 18321  1          +
 001588                            18323  1 1288.                SEGEOR
 001588 D70C D048 D048 00000 00000 18335  1          +
 00158E D703 D050 D050 00008 00008 18343  1          +
 001594 D203 D048 C04C 00000 00004 18350  1          +
 00159A 9610 D054      0000C       18356  1          +
 00159E 58F0 AA82/0DEF       0182C 18359  1          +
 0015A4 5E20 AA4A            017F4 18361  1 1289.                INCR  RA                  Next CPU
 0015A8 47F0 A3A0            0114A 18364    1290.              END
 DROP   CPUB,R3
                                   18374    1291.
                                   18375    1292.                Dump the virtual address space memory for each CPU.
                                   18376    1293.
 0015AC 1B22                       18377    1294.              CLEAR RA
 0015AE 5920 7004            00004 18381    1295.              WHILE (RA,LT,GSTCNCPU),BEGIN  Go through each CPU...
 0015B2 47B0 A8BA            01664 18395             +
 0015B6 1832                       18400  1 1296.                LR    RB,RA
 0015B8 8930 0002            00002 18401  1 1297.                SLL   RB,2
1GSTINTF  (GSTI00) (09:40) (22MAR04) IHAPSAE  - PSA Extension (ESAME)                                                       Page   69
0Current Usings:  (GSTCT,R7) (GSTDUMP,R10) (@DUMPPRM-72,R12) (@SEG-72,R13)
0Loc    Object Code    Addr1 Addr2  Stmt Lv Lineno    Source Statement           (Hibal 5, Asmedit 3.3)  HLASM R4.0  2004/03/22 09.40
+___    ______ ____    _____ _____  ____ __ ______    ______ _________
00015BC 5833 7038            00038 18402  1 1298.                L     RB,GSTCCPUS(RB)     CPUB address
                                   18403  1 1299.
 0015C0                            18404  1 1300.                SEG   '==> Local memory for CPU '
 0015C0 D70C D048 D048 00000 00000 18415  1          +
 0015C6 4100 AC4D            019F7 18424  1          +
 0015CA 5000 D04C            00004 18429  1          +
 0015CE 4100 0019            00019 18441  1          +
 0015D2 5000 D050            00008 18446  1          +
 0015D6 D203 D048 C04C 00000 00004 18453  1          +
 0015DC 58F0 AA82/0DEF       0182C 18456  1          +
 USING  CPUB,R3                    18458  1 1301.                WITH  (CPUB,RB),'SEGHEX CPCPUA+2,2'
 0015E2 D70C D048 D048 00000 00000 18484  2          +
 0015E8 4100 3066            00066 18497  2          +
 0015EC 5000 D04C            00004 18502  2          +
 0015F0 4100 0002            00002 18514  2          +
 0015F4 5000 D050            00008 18519  2          +
 0015F8 D203 D048 C04C 00000 00004 18526  2          +
 0015FE 58F0 AA86/0DEF       01830 18529  1          +
 DROP   CPUB,R3
 001604                            18539  1 1302.                SEGEOR
 001604 D70C D048 D048 00000 00000 18551  1          +
 00160A D703 D050 D050 00008 00008 18559  1          +
 001610 D203 D048 C04C 00000 00004 18566  1          +
 001616 9610 D054      0000C       18572  1          +
 00161A 58F0 AA82/0DEF       0182C 18575  1          +
 001620                            18577  1 1303.                SEGEOR
 001620 D70C D048 D048 00000 00000 18589  1          +
 001626 D703 D050 D050 00008 00008 18597  1          +
 00162C D203 D048 C04C 00000 00004 18604  1          +
 001632 9610 D054      0000C       18610  1          +
 001636 58F0 AA82/0DEF       0182C 18613  1          +
                                   18615  1 1304.
 DROP   @SEG-72,R13                18616  1 1305.                PSET  DGVMPARM
 USING  DGVMPARM-72,R13
 00163C D70F D048 D048 00000 00000 18636  1          +
 001642 9680 D048      00000       18637  1 1306.                SET   DGVFLOCAL           Display local only
 001646 D203 D050 C04C 00008 00004 18643  1 1307.                MVC   DGVMSCB,@DUMPSCB    Set SEG control block ptr
 00164C 5030 D04C            00004 18644  1 1308.                ST    RB,DGVMCPUB         Set CPUB ptr
 001650 D203 D054 AABE 0000C 01868 18645  1 1309.                MVC   DGVMLOW,=A(1024)
                                   18646  1 1310.     *        MVC   DGVMLOW,=A(15*1024*1024)  Only do local system
 001656 58F0 AAC2/0DEF       0186C 18647  1 1311.                ACALL DUMPGVM             Dump the memory
                                   18654  1 1312.
 00165C 4120 2001            00001 18655  1 1313.                LA    RA,@RA+1            Next CPU
 001660 47F0 A804            015AE 18656    1314.              END
                                   18661    1315.
                                   18662    1316.                Display common memory contents.
                                   18663    1317.
 DROP   DGVMPARM-72,R13            18664    1318.              SEG   '==> Common memory for Guest'
 USING  @SEG-72,R13
 001664 D70C D048 D048 00000 00000 18685             +
 00166A 4100 AC66            01A10 18694             +
 00166E 5000 D04C            00004 18699             +
 001672 4100 001B            0001B 18711             +
 001676 5000 D050            00008 18716             +
1GSTINTF  (GSTI00) (09:40) (22MAR04) IHAPSAE  - PSA Extension (ESAME)                                                       Page   70
0Current Usings:  (GSTCT,R7) (GSTDUMP,R10) (@DUMPPRM-72,R12) (@SEG-72,R13)
0Loc    Object Code    Addr1 Addr2  Stmt Lv Lineno    Source Statement           (Hibal 5, Asmedit 3.3)  HLASM R4.0  2004/03/22 09.40
+___    ______ ____    _____ _____  ____ __ ______    ______ _________
000167A D203 D048 C04C 00000 00004 18723             +
 001680 58F0 AA82/0DEF       0182C 18726             +
 001686                            18728    1319.              SEGEOR
 001686 D70C D048 D048 00000 00000 18740             +
 00168C D703 D050 D050 00008 00008 18748             +
 001692 D203 D048 C04C 00000 00004 18755             +
 001698 9610 D054      0000C       18761             +
 00169C 58F0 AA82/0DEF       0182C 18764             +
 0016A2                            18766    1320.              SEGEOR
 0016A2 D70C D048 D048 00000 00000 18778             +
 0016A8 D703 D050 D050 00008 00008 18786             +
 0016AE D203 D048 C04C 00000 00004 18793             +
 0016B4 9610 D054      0000C       18799             +
 0016B8 58F0 AA82/0DEF       0182C 18802             +
                                   18804    1321.
 DROP   @SEG-72,R13                18805    1322.              PSET  DGVMPARM
 USING  DGVMPARM-72,R13
 0016BE D70F D048 D048 00000 00000 18825             +
 0016C4 9640 D048      00000       18826    1323.              SET   DGVFCOMMON          Display common
 0016C8 D203 D050 C04C 00008 00004 18832    1324.              MVC   DGVMSCB,@DUMPSCB    Set SEG control block ptr
 0016CE 5830 7038            00038 18833    1325.              L     RB,GSTCCPUS         CPU 0
 0016D2 5030 D04C            00004 18834    1326.              ST    RB,DGVMCPUB         Set CPUB ptr
 0016D6 D203 D054 AABE 0000C 01868 18835    1327.              MVC   DGVMLOW,=A(1024)
                                   18836    1328.     *        MVC   DGVMLOW,=A(16*1024*1024)  Only do Global system High
 0016DC 58F0 AAC2/0DEF       0186C 18837    1329.              ACALL DUMPGVM             Dump the memory
                                   18844    1330.
                                   18845    1331.                The MVS to Orvyl memory correspondence table is
                                   18846    1332.                no longer dumped.  If you need it, patch out the EXIT
                                   18847    1333.                instruction.
                                   18848    1334.
 0016E2                            18849    1335.              BEGIN
 0016E2 47F0 A9AC            01756 18853  1 1336.                EXIT  ,                       Patch this to print table
 DROP   DGVMPARM-72,R13            18856  1 1337.                SEG   '==> Orvyl to MVS memory correspondence table'
 USING  @SEG-72,R13
 0016E6 D70C D048 D048 00000 00000 18877  1          +
 0016EC 4100 AAC6            01870 18886  1          +
 0016F0 5000 D04C            00004 18891  1          +
 0016F4 4100 002C            0002C 18903  1          +
 0016F8 5000 D050            00008 18908  1          +
 0016FC D203 D048 C04C 00000 00004 18915  1          +
 001702 58F0 AA82/0DEF       0182C 18918  1          +
 001708                            18920  1 1338.                SEGEOR
 001708 D70C D048 D048 00000 00000 18932  1          +
 00170E D703 D050 D050 00008 00008 18940  1          +
 001714 D203 D048 C04C 00000 00004 18947  1          +
 00171A 9610 D054      0000C       18953  1          +
 00171E 58F0 AA82/0DEF       0182C 18956  1          +
 001724                            18958  1 1339.                SEGEOR
 001724 D70C D048 D048 00000 00000 18970  1          +
 00172A D703 D050 D050 00008 00008 18978  1          +
 001730 D203 D048 C04C 00000 00004 18985  1          +
 001736 9610 D054      0000C       18991  1          +
 00173A 58F0 AA82/0DEF       0182C 18994  1          +
                                   18996  1 1340.
1GSTINTF  (GSTI00) (09:40) (22MAR04) IHAPSAE  - PSA Extension (ESAME)                                                       Page   71
0Current Usings:  (GSTCT,R7) (GSTDUMP,R10) (@DUMPPRM-72,R12) (DGVMPARM-72,R13)
0Loc    Object Code    Addr1 Addr2  Stmt Lv Lineno    Source Statement           (Hibal 5, Asmedit 3.3)  HLASM R4.0  2004/03/22 09.40
+___    ______ ____    _____ _____  ____ __ ______    ______ _________
0DROP   @SEG-72,R13                18997  1 1341.                PSET  DGVMPARM
 USING  DGVMPARM-72,R13
 001740 D70F D048 D048 00000 00000 19017  1          +
 001746 D203 D050 C04C 00008 00004 19018  1 1342.                MVC   DGVMSCB,@DUMPSCB        Move in the SEG control block
 00174C 5070 D04C            00004 19019  1 1343.                ST    RY,DGVMCPUB             And save the GSTCT location
 001750 58F0 AAF2/0DEF       0189C 19020  1 1344.                ACALL DUMPFRL                 Then dump the Frame list
 001756                            19027    1345.              END   ,
 001756 981F C008            00008 19031    1346.              PEND
 DROP   GSTCT,R7
 DROP   @DUMPPRM-72,R12
 DROP   GSTDUMP,R10
 00175A 9680 C000/0B0E 00000       19051             +
 DROP   DGVMPARM-72,R13
                                   19060    1347.
 001760                            19061    1348.              LTORG
 001760 405C5C5C40C9C440           19063                             =C' *** ID Check Failed.  This may be Garbage. *** '
 001790 404DE289A9854096           19064                             =C' (Size of the guest machine main memory)'
 0017B8 7E7E6E40C3D7E440           19065                             =C'==> CPU '
 0017C0 C3D7E4C24081A340           19066                             =C'CPUB at '
 0017C8 40405C5CE3888540           19067                             =C'  **The CPU is stopped (in STOP state)**'
 0017F0 00007B0C                   19068                             =A(DOWTO)
 0017F4 00000001                   19069                             =A(1)
 0017F8 00000000                   19070                             =V(FPOST)
 0017FC 00000000                   19071                             =V(FWAIT)
 001800 00000000                   19072                             =V(CANTASK)
 001804 00000000                   19073                             =V(POOLFREE)
 001808 5C5C5C40C7E4C5E2           19074                             =C'*** GUEST MACHINE INTERFACE DATA ***'
 00182C 00000000                   19075                             =V(SEG)
 001830 00000000                   19076                             =V(SEGHEX)
 001834 C7E2E3C3                   19077                             =C'GSTC'
 001838 C7E2E3C3                   19078                             =CL4'GSTC'
 00183C 00000000                   19079                             =V(SEGCORE)
 001840 00000000                   19080                             =V(BTDBTD)
 001844 C3D7E440C1848499           19081                             =C'CPU Address '
 001850 C3D7E4C2                   19082                             =CL4'CPUB'
 001854 00001000                   19083                             =A(4096)
 001858 D7E9C5D9                   19084                             =CL4'PZER'
 00185C 00000D80                   19085                             =A(4096-L'PZERO)
 001860 D7E2C140                   19086                             =CL4'PSA'
 001864 000028F0                   19087                             =A(DUMPTRC)
 001868 00000400                   19088                             =A(1024)
 00186C 00001A38                   19089                             =A(DUMPGVM)
 001870 7E7E6E40D699A5A8           19090                             =C'==> Orvyl to MVS memory correspondence table'
 00189C 000024FC                   19091                             =A(DUMPFRL)
 0018A0 0200                       19092                             =Y(L'CPUB)
 0018A2 404DD5A494828599           19093                             =C' (Number of CPUs in the configuration)'
 0018C8 404DE381A29240C9           19094                             =C' (Task ID of this subtask)'
 0018E2 5C5C5C40D5D6E340           19095                             =C'*** NOT INITIALIZED ***'
 0018F9 C7E2E3C3E34081A3           19096                             =C'GSTCT at '
 001902 C7E2E3C3C3D6D9C5           19097                             =C'GSTCCORE '
 00190B 404DD4E5E240E589           19098                             =C' (MVS Virtual address of GUEST main memory)'
 001936 C7E2E3C3C3D3C5D5           19099                             =C'GSTCCLEN '
 00193F C7E2E3C3D9C3D7C1           19100                             =C'GSTCRCPA '
 001948 404DD3968381A389           19101                             =C' (Location of the Reference/Change table)'
1GSTINTF  (GSTI00) (09:40) (22MAR04) IHAPSAE  - PSA Extension (ESAME)                                                       Page   72
0Loc    Object Code    Addr1 Addr2  Stmt Lv Lineno    Source Statement           (Hibal 5, Asmedit 3.3)  HLASM R4.0  2004/03/22 09.40
+___    ______ ____    _____ _____  ____ __ ______    ______ _________
0001971 C7E2E3C3D5C3D7E4           19102                             =C'GSTCNCPU '
 00197A C4A4949740968640           19103                             =C'Dump of the GSTCT'
 00198B 40405C5CE3888540           19104                             =C'  **The CPU is running (in RUN state)**'
 0019B2 C3D7E3C1E2D2C9C4           19105                             =C'CPTASKID '
 0019BB D781878540E98599           19106                             =C'Page Zero of this CPU at '
 0019D4 D7E2C14086969393           19107                             =C'PSA following Page Zero of this CPU'
 0019F7 7E7E6E40D3968381           19108                             =C'==> Local memory for CPU '
 001A10 7E7E6E40C3969494           19109                             =C'==> Common memory for Guest'
1GSTINTF  (GSTI00) (09:40) (22MAR04) IHAPSAE  - PSA Extension (ESAME)                                                       Page   73
0Loc    Object Code    Addr1 Addr2  Stmt Lv Lineno    Source Statement           (Hibal 5, Asmedit 3.3)  HLASM R4.0  2004/03/22 09.40
+___    ______ ____    _____ _____  ____ __ ______    ______ _________
0                                  19114    1350.     *******************************************************************
                                   19115    1351.     *                                                                 *
                                   19116    1352.     *    DUMPGVM - Dump the current virtual address space.            *
                                   19117    1353.     *                                                                 *
                                   19118    1354.     *                                                                 *
                                   19119    1355.     *      Input - DGVMPARM                                           *
                                   19120    1356.     *                                                                 *
                                   19121    1357.     *     Output - none                                               *
                                   19122    1358.     *                                                                 *
                                   19123    1359.     *******************************************************************
 000000                00000 00025 19124    1360.     DGVWA    RECORD BEGIN
 000000                            19132  1 1361.     DGVCSTE    DS    A             Current Segment table entry address
 000004                            19133  1 1362.     DGVCPTE    DS    A             Current Page table entry address
 000008                            19134  1 1363.     DGVSVA     DS    A             Current segment virtual address
 00000C                            19135  1 1364.     DGVPVA     DS    A             Current page virtual address
 000010                            19136  1 1365.     DGSWK      DS    A             SEG work area
 000014 00                         19137  1 1366.     DGVFLG     FLAG  ,
 DGVFLG.DGVFCSEG   80 ONES         19141  1 1367.                FLAG  DGVFCSEG      This is a common segment
 000015                            19146  1 1368.     DGVWORK    DS    XL16          BTD formatting area
 000025                00025 00025 19147    1369.              END   ,
                                   19156    1370.
 001A2C                            19157    1371.     DUMPGVM  PROC  DGVMPARM,DGVWA,SCOPE=LOCAL
 001A2C C4E4D4D7C7E5D440           19162             +
 001A34 0010/0028                  19163             +
 001A38 900F D004/18AF       00004 19165             +
 USING  DUMPGVM,R10
 001A3E 50D0 C000/18CD       00000 19180             +
 001A44 9680 C000      00000       19182             +
 USING  DGVMPARM-72,R12
 AUSING (DGVWA,DGVMPARM+16)
 001A48 41D0 C080            00080 19201             +
 001A4C                            19202    1372.              CLEAR DGVWA         Clear the work area
 001A4C D724 C058 C058 00000 00000 19208             +
                                   19209    1373.              SEGDEF DGVMSCB
                                   19210    1374.
                                   19211    1375.                Get our CPUB control block.
                                   19212    1376.
 001A52 5860 C04C            00004 19213    1377.              L     RX,DGVMCPUB             CPUB address
 USING  CPUB,R6                    19214    1378.              WITH  (CPUB,RX)
                                   19227    1379.
                                   19228    1380.                Find the segment table for this CPU.
                                   19229    1381.
 001A56 5820 6184            00184 19230    1382.              L     RA,SIECRS+1*4           Control register 1
 001A5A 1832                       19231    1383.              LR    RB,RA                   Copy it
 001A5C 5430 A9A8            023E0 19232    1384.              N     RB,=X'7FFFF000'         Isolate the address
 001A60 5420 A9AC            023E4 19233    1385.              N     RA,=X'0000007F'
 001A64 4120 2001            00001 19234    1386.              LA    RA,@RA+1                Add one
 001A68 8920 0004            00004 19235    1387.              SLL   RA,4                    Number of words
 001A6C 1872                       19236    1388.              LR    RY,RA                   Save number of words
 001A6E 5800 A9A8/1403       023E0 19237    1389.              GRA   RB,(RB)                 Convert to what we understand
 001A74 4770 A044            01A7C 19250             +
 001A78 5630 6104            00104 19256             +
 001A76 A048           01A78 01A7C 19265             +
 001A7C 47F0 A054            01A8C 19267             +
 001A80 5900 6104            00104 19281             +
 001A84 4770 A054            01A8C 19282             +
1GSTINTF  (GSTI00) (09:40) (22MAR04) IHAPSAE  - PSA Extension (ESAME)                                                       Page   74
0Current Usings:  (CPUB,R6) (DUMPGVM,R10) (DGVMPARM-72,R12)
0Loc    Object Code    Addr1 Addr2  Stmt Lv Lineno    Source Statement           (Hibal 5, Asmedit 3.3)  HLASM R4.0  2004/03/22 09.40
+___    ______ ____    _____ _____  ____ __ ______    ______ _________
0001A88 5430 A9B0            023E8 19288             +
 001A8C 5A30 6010            00010 19293             +
 001A90 5030 C058            00000 19294    1390.              ST    RB,DGVCSTE              Save the address of the current
 001A94 8970 0002            00002 19295    1391.              SLL   RY,2                    Number of bytes
0USING  @SEG-72,R13                19297    1393.              SEG   'Segment Table: '
 001A98 D70C D048 D048 00000 00000 19315             +
 001A9E 4100 AA3C            02474 19324             +
 001AA2 5000 D04C            00004 19329             +
 001AA6 4100 000F            0000F 19341             +
 001AAA 5000 D050            00008 19346             +
 001AAE D203 D048 C050 00000 00008 19353             +
 001AB4 58F0 A9B4/0DEF       023EC 19356             +
 DROP   @SEG-72,R13                19358    1394.              BTX   (RB),DGVWORK,8
 USING  @BTX-72,R13
 001ABA D70B D048 D048 00000 00000 19379             +
 001AC0 5030 D048            00000 19389             +
 001AC4 4100 C06D            00015 19402             +
 001AC8 5000 D04C            00004 19407             +
 001ACC 4100 0008            00008 19419             +
 001AD0 5000 D050            00008 19424             +
 001AD4 58F0 A9B8/0DEF       023F0 19427             +
 DROP   @BTX-72,R13                19429    1395.              SEG   DGVWORK,8
 USING  @SEG-72,R13
 001ADA D70C D048 D048 00000 00000 19450             +
 001AE0 4100 C06D            00015 19463             +
 001AE4 5000 D04C            00004 19468             +
 001AE8 4100 0008            00008 19480             +
 001AEC 5000 D050            00008 19485             +
 001AF0 D203 D048 C050 00000 00008 19492             +
 001AF6 58F0 A9B4/0DEF       023EC 19495             +
 001AFC                            19497    1396.              SEG   ', '
 001AFC D70C D048 D048 00000 00000 19508             +
 001B02 4100 AA04            0243C 19517             +
 001B06 5000 D04C            00004 19522             +
 001B0A 4100 0002            00002 19534             +
 001B0E 5000 D050            00008 19539             +
 001B12 D203 D048 C050 00000 00008 19546             +
 001B18 58F0 A9B4/0DEF       023EC 19549             +
 DROP   @SEG-72,R13                19551    1397.              BTX   (RA),DGVWORK,8
 USING  @BTX-72,R13
 001B1E D70B D048 D048 00000 00000 19572             +
 001B24 5020 D048            00000 19582             +
 001B28 4100 C06D            00015 19595             +
 001B2C 5000 D04C            00004 19600             +
 001B30 4100 0008            00008 19612             +
 001B34 5000 D050            00008 19617             +
 001B38 58F0 A9B8/0DEF       023F0 19620             +
 DROP   @BTX-72,R13                19622    1398.              SEG   DGVWORK,8
 USING  @SEG-72,R13
 001B3E D70C D048 D048 00000 00000 19643             +
 001B44 4100 C06D            00015 19656             +
 001B48 5000 D04C            00004 19661             +
 001B4C 4100 0008            00008 19673             +
1GSTINTF  (GSTI00) (09:40) (22MAR04) IHAPSAE  - PSA Extension (ESAME)                                                       Page   75
0Current Usings:  (CPUB,R6) (DUMPGVM,R10) (DGVMPARM-72,R12) (@SEG-72,R13)
0Loc    Object Code    Addr1 Addr2  Stmt Lv Lineno    Source Statement           (Hibal 5, Asmedit 3.3)  HLASM R4.0  2004/03/22 09.40
+___    ______ ____    _____ _____  ____ __ ______    ______ _________
0001B50 5000 D050            00008 19678             +
 001B54 D203 D048 C050 00000 00008 19685             +
 001B5A 58F0 A9B4/0DEF       023EC 19688             +
 001B60                            19690    1399.              SEG   ' entries, '
 001B60 D70C D048 D048 00000 00000 19701             +
 001B66 4100 AA06            0243E 19710             +
 001B6A 5000 D04C            00004 19715             +
 001B6E 4100 000A            0000A 19727             +
 001B72 5000 D050            00008 19732             +
 001B76 D203 D048 C050 00000 00008 19739             +
 001B7C 58F0 A9B4/0DEF       023EC 19742             +
 DROP   @SEG-72,R13                19744    1400.              BTX   (RY),DGVWORK,8
 USING  @BTX-72,R13
 001B82 D70B D048 D048 00000 00000 19765             +
 001B88 5070 D048            00000 19775             +
 001B8C 4100 C06D            00015 19788             +
 001B90 5000 D04C            00004 19793             +
 001B94 4100 0008            00008 19805             +
 001B98 5000 D050            00008 19810             +
 001B9C 58F0 A9B8/0DEF       023F0 19813             +
 DROP   @BTX-72,R13                19815    1401.              SEG   DGVWORK,8
 USING  @SEG-72,R13
 001BA2 D70C D048 D048 00000 00000 19836             +
 001BA8 4100 C06D            00015 19849             +
 001BAC 5000 D04C            00004 19854             +
 001BB0 4100 0008            00008 19866             +
 001BB4 5000 D050            00008 19871             +
 001BB8 D203 D048 C050 00000 00008 19878             +
 001BBE 58F0 A9B4/0DEF       023EC 19881             +
 001BC4                            19883    1402.              SEG   ' bytes'
 001BC4 D70C D048 D048 00000 00000 19894             +
 001BCA 4100 AA10            02448 19903             +
 001BCE 5000 D04C            00004 19908             +
 001BD2 4100 0006            00006 19920             +
 001BD6 5000 D050            00008 19925             +
 001BDA D203 D048 C050 00000 00008 19932             +
 001BE0 58F0 A9B4/0DEF       023EC 19935             +
 001BE6                            19937    1403.              SEGEOR ,
 001BE6 D70C D048 D048 00000 00000 19949             +
 001BEC D703 D050 D050 00008 00008 19957             +
 001BF2 D203 D048 C050 00000 00008 19964             +
 001BF8 9610 D054      0000C       19970             +
 001BFC 58F0 A9B4/0DEF       023EC 19973             +
 DROP   @SEG-72,R13                19975    1404.              SEGCORE (RB),(RY)
 USING  @SEGCORE-72,R13
 001C02 D717 D048 D048 00000 00000 19996             +
 001C08 5030 D04C            00004 20007             +
 001C0C 5070 D050            00008 20017             +
 001C10 96C0 D055      0000D       20026             +
 001C14 D203 D048 C050 00000 00008 20033             +
 001C1A 58F0 A9BC/0DEF       023F4 20036             +
 DROP   @SEGCORE-72,R13            20038    1405.              SEGEOR ,
 USING  @SEG-72,R13
 001C20 D70C D048 D048 00000 00000 20060             +
1GSTINTF  (GSTI00) (09:40) (22MAR04) IHAPSAE  - PSA Extension (ESAME)                                                       Page   76
0Current Usings:  (CPUB,R6) (DUMPGVM,R10) (DGVMPARM-72,R12) (@SEG-72,R13)
0Loc    Object Code    Addr1 Addr2  Stmt Lv Lineno    Source Statement           (Hibal 5, Asmedit 3.3)  HLASM R4.0  2004/03/22 09.40
+___    ______ ____    _____ _____  ____ __ ______    ______ _________
0001C26 D703 D050 D050 00008 00008 20068             +
 001C2C D203 D048 C050 00000 00008 20075             +
 001C32 9610 D054      0000C       20081             +
 001C36 58F0 A9B4/0DEF       023EC 20084             +
                                   20086    1406.
                                   20087    1407.                Loop through the segment table entries.
                                   20088    1408.
 001C3C                            20089    1409.              LOOP  BEGIN                   Segment loop
                                   20095  1 1410.
                                   20096  1 1411.                  Find the current page table.
                                   20097  1 1412.
 001C3C 5830 C058            00000 20098  1 1413.                L     RB,DGVCSTE              Current STE address
 001C40 9120 3003      00003       20099  1 1414.                TM    @RB+3,X'20'             Is this one invalid
 001C44 4770 A8EA            02322 20100  1 1415.                IF    Z,BEGIN                 If ok, do this segment
 001C48 9110 3003      00003       20111  2 1416.                  TM    @RB+3,X'10'             Is it common?
 001C4C 47E0 A21C            01C54 20112  2 1417.                  IF    ON,'SET DGVFCSEG'       Yes
 001C50 9680 C06C      00014       20129  2          +
 001C54 A220           01C54 01C4E 20134  2 1418.                  ELSE  'CLEAR DGVFCSEG'        No
 001C54 47F0 A224            01C5C 20139  2          +
 001C58 947F C06C      00014       20152  2          +
                                   20157  2 1419.
                                   20158  2 1420.                    Extract length and address.
                                   20159  2 1421.
 001C5C 1813                       20160  2 1422.                  LR    RS,RB                   Save entry address
 001C5E 5830 3000            00000 20161  2 1423.                  L     RB,@RB                  Get the actual entry
 001C62 1843                       20162  2 1424.                  LR    RJ,RB                   Copy the value
 001C64 5430 A9C0            023F8 20163  2 1425.                  N     RB,=X'0000000F'         Extract the length
 001C68 4130 3001            00001 20164  2 1426.                  LA    RB,@RB+1                Add one
 001C6C 8930 0004            00004 20165  2 1427.                  SLL   RB,4                    Get the length in words
 001C70 1873                       20166  2 1428.                  LR    RY,RB                   Save number of words
 001C72 5440 A9A8            023E0 20167  2 1429.                  N     RJ,=X'7FFFF000'         Extract the address
 001C76 5800 A9A8/1404       023E0 20168  2 1430.                  GRA   RJ,(RJ)                 Get an MVS address
 001C7C 4770 A24C            01C84 20181  2          +
 001C80 5640 6104            00104 20187  2          +
 001C7E A250           01C80 01C84 20196  2          +
 001C84 47F0 A25C            01C94 20198  2          +
 001C88 5900 6104            00104 20212  2          +
 001C8C 4770 A25C            01C94 20213  2          +
 001C90 5440 A9B0            023E8 20219  2          +
 001C94 5A40 6010            00010 20224  2          +
 001C98 B1F0 4000            00000 20225  2 1431.                  LRA   R15,@RJ                 Validate MVS address
 001C9C 4780 A326            01D5E 20226  2 1432.                  IF    NZ,BEGIN                If it is not valid
 001CA0                            20237  3 1433.                    SEG   '*** Invalid segment table entry at: '
 001CA0 D70C D048 D048 00000 00000 20248  3          +
 001CA6 4100 A9C4            023FC 20257  3          +
 001CAA 5000 D04C            00004 20262  3          +
 001CAE 4100 0024            00024 20274  3          +
 001CB2 5000 D050            00008 20279  3          +
 001CB6 D203 D048 C050 00000 00008 20286  3          +
 001CBC 58F0 A9B4/0DEF       023EC 20289  3          +
 DROP   @SEG-72,R13                20291  3 1434.                    BTX   (RS),DGVWORK,8
 USING  @BTX-72,R13
 001CC2 D70B D048 D048 00000 00000 20312  3          +
 001CC8 5010 D048            00000 20322  3          +
1GSTINTF  (GSTI00) (09:40) (22MAR04) IHAPSAE  - PSA Extension (ESAME)                                                       Page   77
0Current Usings:  (CPUB,R6) (DUMPGVM,R10) (DGVMPARM-72,R12) (@BTX-72,R13)
0Loc    Object Code    Addr1 Addr2  Stmt Lv Lineno    Source Statement           (Hibal 5, Asmedit 3.3)  HLASM R4.0  2004/03/22 09.40
+___    ______ ____    _____ _____  ____ __ ______    ______ _________
0001CCC 4100 C06D            00015 20335  3          +
 001CD0 5000 D04C            00004 20340  3          +
 001CD4 4100 0008            00008 20352  3          +
 001CD8 5000 D050            00008 20357  3          +
 001CDC 58F0 A9B8/0DEF       023F0 20360  3          +
 DROP   @BTX-72,R13                20362  3 1435.                    SEG   DGVWORK,8
 USING  @SEG-72,R13
 001CE2 D70C D048 D048 00000 00000 20383  3          +
 001CE8 4100 C06D            00015 20396  3          +
 001CEC 5000 D04C            00004 20401  3          +
 001CF0 4100 0008            00008 20413  3          +
 001CF4 5000 D050            00008 20418  3          +
 001CF8 D203 D048 C050 00000 00008 20425  3          +
 001CFE 58F0 A9B4/0DEF       023EC 20428  3          +
 001D04                            20430  3 1436.                    SEG   ' ***'
 001D04 D70C D048 D048 00000 00000 20441  3          +
 001D0A 4100 A9E8            02420 20450  3          +
 001D0E 5000 D04C            00004 20455  3          +
 001D12 4100 0004            00004 20467  3          +
 001D16 5000 D050            00008 20472  3          +
 001D1A D203 D048 C050 00000 00008 20479  3          +
 001D20 58F0 A9B4/0DEF       023EC 20482  3          +
 001D26                            20484  3 1437.                    SEGEOR ,
 001D26 D70C D048 D048 00000 00000 20496  3          +
 001D2C D703 D050 D050 00008 00008 20504  3          +
 001D32 D203 D048 C050 00000 00008 20511  3          +
 001D38 9610 D054      0000C       20517  3          +
 001D3C 58F0 A9B4/0DEF       023EC 20520  3          +
 001D42                            20522  3 1438.                    SEGEOR ,
 001D42 D70C D048 D048 00000 00000 20534  3          +
 001D48 D703 D050 D050 00008 00008 20542  3          +
 001D4E D203 D048 C050 00000 00008 20549  3          +
 001D54 9610 D054      0000C       20555  3          +
 001D58 58F0 A9B4/0DEF       023EC 20558  3          +
 001D5E                            20560  2 1439.                  END   ,
 001D5E A32A           01D5E 01C9E 20564  2 1440.                  ELSE  BEGIN
 001D5E 47F0 A8EA            02322 20569  2          +
 001D62 5040 C05C            00004 20575  3 1441.                    ST    RJ,DGVCPTE              Save the PTE address
 001D66                            20576  3 1442.                    CLEAR DGVPVA                  Clear the page virtual address
 001D66 D703 C064 C064 0000C 0000C 20582  3          +
 001D6C 8970 0002            00002 20583  3 1443.                    SLL   RY,2                    Number of bytes
0001D70                            20585  3 1445.                    BEGIN ,
 001D70 9180 C06C      00014       20589  4 1446.                      IF    (DGVFCSEG,AND,~DGVFCOMMON),EXIT  Not doing Common
 001D74 47E0 A348            01D80 20601  4          +
 001D78 9140 C048      00000       20612  4          +
 001D7C 47E0 A50E            01F46 20615  4          +
 001D80 9180 C06C      00014       20621  4 1447.                      IF    (~DGVFCSEG,AND,~DGVFLOCAL),EXIT  Not doing local
 001D84 4710 A358            01D90 20633  4          +
 001D88 9180 C048      00000       20644  4          +
 001D8C 47E0 A50E            01F46 20647  4          +
 001D90                            20653  4 1448.                      SEG   'Page Table: '
 001D90 D70C D048 D048 00000 00000 20664  4          +
 001D96 4100 A9EC            02424 20673  4          +
1GSTINTF  (GSTI00) (09:40) (22MAR04) IHAPSAE  - PSA Extension (ESAME)                                                       Page   78
0Current Usings:  (CPUB,R6) (DUMPGVM,R10) (DGVMPARM-72,R12) (@SEG-72,R13)
0Loc    Object Code    Addr1 Addr2  Stmt Lv Lineno    Source Statement           (Hibal 5, Asmedit 3.3)  HLASM R4.0  2004/03/22 09.40
+___    ______ ____    _____ _____  ____ __ ______    ______ _________
0001D9A 5000 D04C            00004 20678  4          +
 001D9E 4100 000C            0000C 20690  4          +
 001DA2 5000 D050            00008 20695  4          +
 001DA6 D203 D048 C050 00000 00008 20702  4          +
 001DAC 58F0 A9B4/0DEF       023EC 20705  4          +
 DROP   @SEG-72,R13                20707  4 1449.                      BTX   (RJ),DGVWORK,8
 USING  @BTX-72,R13
 001DB2 D70B D048 D048 00000 00000 20728  4          +
 001DB8 5040 D048            00000 20738  4          +
 001DBC 4100 C06D            00015 20751  4          +
 001DC0 5000 D04C            00004 20756  4          +
 001DC4 4100 0008            00008 20768  4          +
 001DC8 5000 D050            00008 20773  4          +
 001DCC 58F0 A9B8/0DEF       023F0 20776  4          +
 DROP   @BTX-72,R13                20778  4 1450.                      SEG   DGVWORK,8
 USING  @SEG-72,R13
 001DD2 D70C D048 D048 00000 00000 20799  4          +
 001DD8 4100 C06D            00015 20812  4          +
 001DDC 5000 D04C            00004 20817  4          +
 001DE0 4100 0008            00008 20829  4          +
 001DE4 5000 D050            00008 20834  4          +
 001DE8 D203 D048 C050 00000 00008 20841  4          +
 001DEE 58F0 A9B4/0DEF       023EC 20844  4          +
 001DF4                            20846  4 1451.                      SEG   ', '
 001DF4 D70C D048 D048 00000 00000 20857  4          +
 001DFA 4100 AA04            0243C 20866  4          +
 001DFE 5000 D04C            00004 20871  4          +
 001E02 4100 0002            00002 20883  4          +
 001E06 5000 D050            00008 20888  4          +
 001E0A D203 D048 C050 00000 00008 20895  4          +
 001E10 58F0 A9B4/0DEF       023EC 20898  4          +
 001E16                            20900  4 1452.                      SEG   'first address '
 001E16 D70C D048 D048 00000 00000 20911  4          +
 001E1C 4100 AA16            0244E 20920  4          +
 001E20 5000 D04C            00004 20925  4          +
 001E24 4100 000E            0000E 20937  4          +
 001E28 5000 D050            00008 20942  4          +
 001E2C D203 D048 C050 00000 00008 20949  4          +
 001E32 58F0 A9B4/0DEF       023EC 20952  4          +
 001E38 5810 C060            00008 20954  4 1453.                      L     RS,DGVSVA               Get the virtual address
 DROP   @SEG-72,R13                20955  4 1454.                      BTX   (RS),DGVWORK,8          Virtual address
 USING  @BTX-72,R13
 001E3C D70B D048 D048 00000 00000 20976  4          +
 001E42 5010 D048            00000 20986  4          +
 001E46 4100 C06D            00015 20999  4          +
 001E4A 5000 D04C            00004 21004  4          +
 001E4E 4100 0008            00008 21016  4          +
 001E52 5000 D050            00008 21021  4          +
 001E56 58F0 A9B8/0DEF       023F0 21024  4          +
 DROP   @BTX-72,R13                21026  4 1455.                      SEG   DGVWORK,8               Seg it
 USING  @SEG-72,R13
 001E5C D70C D048 D048 00000 00000 21047  4          +
 001E62 4100 C06D            00015 21060  4          +
 001E66 5000 D04C            00004 21065  4          +
1GSTINTF  (GSTI00) (09:40) (22MAR04) IHAPSAE  - PSA Extension (ESAME)                                                       Page   79
0Current Usings:  (CPUB,R6) (DUMPGVM,R10) (DGVMPARM-72,R12) (@SEG-72,R13)
0Loc    Object Code    Addr1 Addr2  Stmt Lv Lineno    Source Statement           (Hibal 5, Asmedit 3.3)  HLASM R4.0  2004/03/22 09.40
+___    ______ ____    _____ _____  ____ __ ______    ______ _________
0001E6A 4100 0008            00008 21077  4          +
 001E6E 5000 D050            00008 21082  4          +
 001E72 D203 D048 C050 00000 00008 21089  4          +
 001E78 58F0 A9B4/0DEF       023EC 21092  4          +
 001E7E 9140 C048      00000       21094  4 1456.                      IF    DGVFCOMMON,BEGIN
 001E82 47E0 A470            01EA8 21104  4          +
 001E86                            21109  5 1457.                        SEG   ' COMMON'
 001E86 D70C D048 D048 00000 00000 21120  5          +
 001E8C 4100 AA4B            02483 21129  5          +
 001E90 5000 D04C            00004 21134  5          +
 001E94 4100 0007            00007 21146  5          +
 001E98 5000 D050            00008 21151  5          +
 001E9C D203 D048 C050 00000 00008 21158  5          +
 001EA2 58F0 A9B4/0DEF       023EC 21161  5          +
 001EA8                            21163  4 1458.                      END   ,
 001EA8 A474           01EA8 01E84 21167  4 1459.                      ELSE  BEGIN
 001EA8 47F0 A4B8            01EF0 21172  4          +
 001EAC                            21178  5 1460.                        SEG   ' LOCAL CPU '
 001EAC D70C D048 D048 00000 00000 21189  5          +
 001EB2 4100 AA52            0248A 21198  5          +
 001EB6 5000 D04C            00004 21203  5          +
 001EBA 4100 000B            0000B 21215  5          +
 001EBE 5000 D050            00008 21220  5          +
 001EC2 D203 D048 C050 00000 00008 21227  5          +
 001EC8 58F0 A9B4/0DEF       023EC 21230  5          +
 001ECE                            21232  5 1461.                        SEGHEX CPCPUA+3,1         Get cpu number
 001ECE D70C D048 D048 00000 00000 21243  5          +
 001ED4 4100 6067            00067 21256  5          +
 001ED8 5000 D04C            00004 21261  5          +
 001EDC 4100 0001            00001 21273  5          +
 001EE0 5000 D050            00008 21278  5          +
 001EE4 D203 D048 C050 00000 00008 21285  5          +
 001EEA 58F0 A9F8/0DEF       02430 21288  5          +
 001EF0                            21290  4 1462.                      END   ,
 001EF0                            21294  4 1463.                      SEGEOR ,
 001EF0 D70C D048 D048 00000 00000 21306  4          +
 001EF6 D703 D050 D050 00008 00008 21314  4          +
 001EFC D203 D048 C050 00000 00008 21321  4          +
 001F02 9610 D054      0000C       21327  4          +
 001F06 58F0 A9B4/0DEF       023EC 21330  4          +
 DROP   @SEG-72,R13                21332  4 1464.                      SEGCORE (RJ),(RY)
 USING  @SEGCORE-72,R13
 001F0C D717 D048 D048 00000 00000 21353  4          +
 001F12 5040 D04C            00004 21364  4          +
 001F16 5070 D050            00008 21374  4          +
 001F1A 96C0 D055      0000D       21383  4          +
 001F1E D203 D048 C050 00000 00008 21390  4          +
 001F24 58F0 A9BC/0DEF       023F4 21393  4          +
 DROP   @SEGCORE-72,R13            21395  4 1465.                      SEGEOR ,
 USING  @SEG-72,R13
 001F2A D70C D048 D048 00000 00000 21417  4          +
 001F30 D703 D050 D050 00008 00008 21425  4          +
 001F36 D203 D048 C050 00000 00008 21432  4          +
 001F3C 9610 D054      0000C       21438  4          +
1GSTINTF  (GSTI00) (09:40) (22MAR04) IHAPSAE  - PSA Extension (ESAME)                                                       Page   80
0Current Usings:  (CPUB,R6) (DUMPGVM,R10) (DGVMPARM-72,R12) (@SEG-72,R13)
0Loc    Object Code    Addr1 Addr2  Stmt Lv Lineno    Source Statement           (Hibal 5, Asmedit 3.3)  HLASM R4.0  2004/03/22 09.40
+___    ______ ____    _____ _____  ____ __ ______    ______ _________
0001F40 58F0 A9B4/0DEF       023EC 21441  4          +
 001F46                            21443  3 1466.                    END   ,
                                   21447  3 1467.
                                   21448  3 1468.                      Loop through the page table.
                                   21449  3 1469.
 001F46                            21450  3 1470.                    LOOP  BEGIN
 001F46 5870 C05C            00004 21456  4 1471.                      L     RY,DGVCPTE              Get the current PTE address
 001F4A 9104 7002      00002       21457  4 1472.                      TM    @RY+2,X'04'             Is it invalid
 001F4E 4770 A8CE            02306 21458  4 1473.                      IF    Z,BEGIN                 If ok, do it
 001F52 9180 C06C      00014       21469  5 1474.                        IF    (DGVFCSEG,AND,~DGVFCOMMON),EXIT  Not doing Common
 001F56 47E0 A52A            01F62 21481  5          +
 001F5A 9140 C048      00000       21492  5          +
 001F5E 47E0 A8CE            02306 21495  5          +
 001F62 9180 C06C      00014       21501  5 1475.                        IF    (~DGVFCSEG,AND,~DGVFLOCAL),EXIT  Not doing local
 001F66 4710 A53A            01F72 21513  5          +
 001F6A 9180 C048      00000       21524  5          +
 001F6E 47E0 A8CE            02306 21527  5          +
                                   21533  5 1476.
                                   21534  5 1477.                          Dump the page contents if requested.
                                   21535  5 1478.
 001F72 5850 7000            00000 21536  5 1479.                        L     RK,@RY                  Get the entry
 001F76 5450 A9A8            023E0 21537  5 1480.                        N     RK,=X'7FFFF000'         Extract real address
 001F7A 5050 C068            00010 21538  5 1481.                        ST    RK,DGSWK                Save the address
 001F7E 5800 A9A8/1405       023E0 21539  5 1482.                        GRA   RK,(RK)                 Convert it to MVS
 001F84 4770 A554            01F8C 21552  5          +
 001F88 5650 6104            00104 21558  5          +
 001F86 A558           01F88 01F8C 21567  5          +
 001F8C 47F0 A564            01F9C 21569  5          +
 001F90 5900 6104            00104 21583  5          +
 001F94 4770 A564            01F9C 21584  5          +
 001F98 5450 A9B0            023E8 21590  5          +
 001F9C 5A50 6010            00010 21595  5          +
                                   21596  5 1483.
 001FA0 B1F0 5000            00000 21597  5 1484.                        LRA   R15,@RK                 Validate MVS address
 001FA4 4780 A62E            02066 21598  5 1485.                        IF    NZ,BEGIN                If it is not valid
 001FA8                            21609  6 1486.                          SEG   '*** Invalid page table entry at: '
 001FA8 D70C D048 D048 00000 00000 21620  6          +
 001FAE 4100 AA5D            02495 21629  6          +
 001FB2 5000 D04C            00004 21634  6          +
 001FB6 4100 0021            00021 21646  6          +
 001FBA 5000 D050            00008 21651  6          +
 001FBE D203 D048 C050 00000 00008 21658  6          +
 001FC4 58F0 A9B4/0DEF       023EC 21661  6          +
 DROP   @SEG-72,R13                21663  6 1487.                          BTX   (RY),DGVWORK,8
 USING  @BTX-72,R13
 001FCA D70B D048 D048 00000 00000 21684  6          +
 001FD0 5070 D048            00000 21694  6          +
 001FD4 4100 C06D            00015 21707  6          +
 001FD8 5000 D04C            00004 21712  6          +
 001FDC 4100 0008            00008 21724  6          +
 001FE0 5000 D050            00008 21729  6          +
 001FE4 58F0 A9B8/0DEF       023F0 21732  6          +
 DROP   @BTX-72,R13                21734  6 1488.                          SEG   DGVWORK,8
 USING  @SEG-72,R13
1GSTINTF  (GSTI00) (09:40) (22MAR04) IHAPSAE  - PSA Extension (ESAME)                                                       Page   81
0Current Usings:  (CPUB,R6) (DUMPGVM,R10) (DGVMPARM-72,R12) (@SEG-72,R13)
0Loc    Object Code    Addr1 Addr2  Stmt Lv Lineno    Source Statement           (Hibal 5, Asmedit 3.3)  HLASM R4.0  2004/03/22 09.40
+___    ______ ____    _____ _____  ____ __ ______    ______ _________
0001FEA D70C D048 D048 00000 00000 21755  6          +
 001FF0 4100 C06D            00015 21768  6          +
 001FF4 5000 D04C            00004 21773  6          +
 001FF8 4100 0008            00008 21785  6          +
 001FFC 5000 D050            00008 21790  6          +
 002000 D203 D048 C050 00000 00008 21797  6          +
 002006 58F0 A9B4/0DEF       023EC 21800  6          +
 00200C                            21802  6 1489.                          SEG   ' ***'
 00200C D70C D048 D048 00000 00000 21813  6          +
 002012 4100 A9E8            02420 21822  6          +
 002016 5000 D04C            00004 21827  6          +
 00201A 4100 0004            00004 21839  6          +
 00201E 5000 D050            00008 21844  6          +
 002022 D203 D048 C050 00000 00008 21851  6          +
 002028 58F0 A9B4/0DEF       023EC 21854  6          +
 00202E                            21856  6 1490.                          SEGEOR ,
 00202E D70C D048 D048 00000 00000 21868  6          +
 002034 D703 D050 D050 00008 00008 21876  6          +
 00203A D203 D048 C050 00000 00008 21883  6          +
 002040 9610 D054      0000C       21889  6          +
 002044 58F0 A9B4/0DEF       023EC 21892  6          +
 00204A                            21894  6 1491.                          SEGEOR ,
 00204A D70C D048 D048 00000 00000 21906  6          +
 002050 D703 D050 D050 00008 00008 21914  6          +
 002056 D203 D048 C050 00000 00008 21921  6          +
 00205C 9610 D054      0000C       21927  6          +
 002060 58F0 A9B4/0DEF       023EC 21930  6          +
 002066                            21932  5 1492.                        END   ,
 002066 A632           02066 01FA6 21936  5 1493.                        ELSE  BEGIN
 002066 47F0 A8CE            02306 21941  5          +
                                   21947  6 1494.
 00206A 5810 C060            00008 21948  6 1495.                          L     RS,DGVSVA               Segment address
 00206E 5A10 C064            0000C 21949  6 1496.                          A     RS,DGVPVA               Add in page address
                                   21950  6 1497.
                                   21951  6 1498.                            Check for not dump request
                                   21952  6 1499.
 002072                            21953  6 1500.                          BEGIN ,
 002072 58E0 6004            00004 21957  7 1501.                            L     R14,CPGSTCT             GSTCT
 USING  GSTCT,R14                  21958  7 1502.                            WITH  (GSTCT,R14)
 002076 5800 E094/1200       00094 21971  7 1503.                            IF    ('LT R0,GSTCNOTC',Z),EXIT No items
 00207C 4780 A660            02098 21984  7          +
 002080                            21990  7 1504.                            LOOP  BEGIN                   Check not items
 002080 5910 E098            00098 21996  8 1505.                              IF    ((RS,GE,GSTCNOTF),AND,(RS,LE,GSTCNOTL)),EXIT
 002084 4750 A658            02090 22010  8          +
 002088 5910 E09C            0009C 22023  8          +
 00208C 47C0 A660            02098 22026  8          +
 002090 41E0 E008            00008 22032  8 1506.                              LA    R14,GSTCT+L'GSTCNOTI    Next not item
 002094 4600 A648            02080 22033  7 1507.                            UNTIL (BCT,R0),END            Check not items
 DROP   GSTCT,R14                  22043  6 1508.                          END   ,
 002098 1200/4770 A8CE       02306 22052  6 1509.                          IF    (R0,NZ),EXIT            Only show desired locations
                                   22069  6 1510.     *
 00209E 5910 C054            0000C 22070  6 1511.                          IF    (RS,LT,DGVMLOW),EXIT    Only show desired locations
 0020A2 4740 A8CE            02306 22084  6          +
                                   22090  6 1512.
1GSTINTF  (GSTI00) (09:40) (22MAR04) IHAPSAE  - PSA Extension (ESAME)                                                       Page   82
0Current Usings:  (CPUB,R6) (DUMPGVM,R10) (DGVMPARM-72,R12) (@SEG-72,R13)
0Loc    Object Code    Addr1 Addr2  Stmt Lv Lineno    Source Statement           (Hibal 5, Asmedit 3.3)  HLASM R4.0  2004/03/22 09.40
+___    ______ ____    _____ _____  ____ __ ______    ______ _________
00020A6 9180 C06C      00014       22091  6 1513.                          IF    DGVFCSEG,'SEG "-COMMON"'
 0020AA 47E0 A698            020D0 22101  6          +
 0020AE D70C D048 D048 00000 00000 22118  7          +
 0020B4 4100 AA7E            024B6 22127  7          +
 0020B8 5000 D04C            00004 22132  7          +
 0020BC 4100 0007            00007 22144  7          +
 0020C0 5000 D050            00008 22149  7          +
 0020C4 D203 D048 C050 00000 00008 22156  7          +
 0020CA 58F0 A9B4/0DEF       023EC 22159  6          +
 0020D0 A69C           020D0 020AC 22165  6 1514.                          ELSE  BEGIN          -CPU xx...
 0020D0 47F0 A6E0            02118 22170  6          +
 0020D4                            22176  7 1515.                            SEG   '-CPU '
 0020D4 D70C D048 D048 00000 00000 22187  7          +
 0020DA 4100 AA85            024BD 22196  7          +
 0020DE 5000 D04C            00004 22201  7          +
 0020E2 4100 0005            00005 22213  7          +
 0020E6 5000 D050            00008 22218  7          +
 0020EA D203 D048 C050 00000 00008 22225  7          +
 0020F0 58F0 A9B4/0DEF       023EC 22228  7          +
 0020F6                            22230  7 1516.                            SEGHEX CPCPUA+3,1         Get cpu number
 0020F6 D70C D048 D048 00000 00000 22241  7          +
 0020FC 4100 6067            00067 22254  7          +
 002100 5000 D04C            00004 22259  7          +
 002104 4100 0001            00001 22271  7          +
 002108 5000 D050            00008 22276  7          +
 00210C D203 D048 C050 00000 00008 22283  7          +
 002112 58F0 A9F8/0DEF       02430 22286  7          +
 002118                            22288  6 1517.                          END
 002118                            22292  6 1518.                          SEG   ': '
 002118 D70C D048 D048 00000 00000 22303  6          +
 00211E 4100 AA24            0245C 22312  6          +
 002122 5000 D04C            00004 22317  6          +
 002126 4100 0002            00002 22329  6          +
 00212A 5000 D050            00008 22334  6          +
 00212E D203 D048 C050 00000 00008 22341  6          +
 002134 58F0 A9B4/0DEF       023EC 22344  6          +
                                   22346  6 1519.
 DROP   @SEG-72,R13                22347  6 1520.                          BTX   (RS),DGVWORK,8      Virtual address
 USING  @BTX-72,R13
 00213A D70B D048 D048 00000 00000 22368  6          +
 002140 5010 D048            00000 22378  6          +
 002144 4100 C06D            00015 22391  6          +
 002148 5000 D04C            00004 22396  6          +
 00214C 4100 0008            00008 22408  6          +
 002150 5000 D050            00008 22413  6          +
 002154 58F0 A9B8/0DEF       023F0 22416  6          +
 DROP   @BTX-72,R13                22418  6 1521.                          SEG   DGVWORK,8           Seg it
 USING  @SEG-72,R13
 00215A D70C D048 D048 00000 00000 22439  6          +
 002160 4100 C06D            00015 22452  6          +
 002164 5000 D04C            00004 22457  6          +
 002168 4100 0008            00008 22469  6          +
 00216C 5000 D050            00008 22474  6          +
 002170 D203 D048 C050 00000 00008 22481  6          +
1GSTINTF  (GSTI00) (09:40) (22MAR04) IHAPSAE  - PSA Extension (ESAME)                                                       Page   83
0Current Usings:  (CPUB,R6) (DUMPGVM,R10) (DGVMPARM-72,R12) (@SEG-72,R13)
0Loc    Object Code    Addr1 Addr2  Stmt Lv Lineno    Source Statement           (Hibal 5, Asmedit 3.3)  HLASM R4.0  2004/03/22 09.40
+___    ______ ____    _____ _____  ____ __ ______    ______ _________
0002176 58F0 A9B4/0DEF       023EC 22484  6          +
                                   22486  6 1522.
 00217C 9102 7002      00002       22487  6 1523.                          TM    @RY+2,X'02'         Write protected page?
 002180 47E0 A76E            021A6 22488  6 1524.                          IF    O,'SEG "  R/O"'     Yes
 002184 D70C D048 D048 00000 00000 22511  7          +
 00218A 4100 AA8A            024C2 22520  7          +
 00218E 5000 D04C            00004 22525  7          +
 002192 4100 0005            00005 22537  7          +
 002196 5000 D050            00008 22542  7          +
 00219A D203 D048 C050 00000 00008 22549  7          +
 0021A0 58F0 A9B4/0DEF       023EC 22552  6          +
 0021A6 A772           021A6 02182 22558  6 1525.                          ELSE  '  SEG "     "'     No
 0021A6 47F0 A794            021CC 22563  6          +
 0021AA D70C D048 D048 00000 00000 22581  7          +
 0021B0 4100 AA8F            024C7 22590  7          +
 0021B4 5000 D04C            00004 22595  7          +
 0021B8 4100 0005            00005 22607  7          +
 0021BC 5000 D050            00008 22612  7          +
 0021C0 D203 D048 C050 00000 00008 22619  7          +
 0021C6 58F0 A9B4/0DEF       023EC 22622  6          +
 0021CC                            22628  6 1526.                          SEG   '   Guest Real '
 0021CC D70C D048 D048 00000 00000 22639  6          +
 0021D2 4100 AA26            0245E 22648  6          +
 0021D6 5000 D04C            00004 22653  6          +
 0021DA 4100 000E            0000E 22665  6          +
 0021DE 5000 D050            00008 22670  6          +
 0021E2 D203 D048 C050 00000 00008 22677  6          +
 0021E8 58F0 A9B4/0DEF       023EC 22680  6          +
 0021EE                            22682  6 1527.                          SEGHEX DGSWK                  Write it out
 0021EE D70C D048 D048 00000 00000 22693  6          +
 0021F4 4100 C068            00010 22706  6          +
 0021F8 5000 D04C            00004 22711  6          +
 0021FC 4100 0004            00004 22723  6          +
 002200 5000 D050            00008 22728  6          +
 002204 D203 D048 C050 00000 00008 22735  6          +
 00220A 58F0 A9F8/0DEF       02430 22738  6          +
 002210 5050 C068            00010 22740  6 1528.                          ST    RK,DGSWK
 002214                            22741  6 1529.                          SEG   '   MVS Virtual '
 002214 D70C D048 D048 00000 00000 22752  6          +
 00221A 4100 AA94            024CC 22761  6          +
 00221E 5000 D04C            00004 22766  6          +
 002222 4100 000F            0000F 22778  6          +
 002226 5000 D050            00008 22783  6          +
 00222A D203 D048 C050 00000 00008 22790  6          +
 002230 58F0 A9B4/0DEF       023EC 22793  6          +
 002236                            22795  6 1530.                          SEGHEX DGSWK
 002236 D70C D048 D048 00000 00000 22806  6          +
 00223C 4100 C068            00010 22819  6          +
 002240 5000 D04C            00004 22824  6          +
 002244 4100 0004            00004 22836  6          +
 002248 5000 D050            00008 22841  6          +
 00224C D203 D048 C050 00000 00008 22848  6          +
 002252 58F0 A9F8/0DEF       02430 22851  6          +
 002258                            22853  6 1531.                          SEG   '   PT:'
1GSTINTF  (GSTI00) (09:40) (22MAR04) IHAPSAE  - PSA Extension (ESAME)                                                       Page   84
0Current Usings:  (CPUB,R6) (DUMPGVM,R10) (DGVMPARM-72,R12) (@SEG-72,R13)
0Loc    Object Code    Addr1 Addr2  Stmt Lv Lineno    Source Statement           (Hibal 5, Asmedit 3.3)  HLASM R4.0  2004/03/22 09.40
+___    ______ ____    _____ _____  ____ __ ______    ______ _________
0002258 D70C D048 D048 00000 00000 22864  6          +
 00225E 4100 AA34            0246C 22873  6          +
 002262 5000 D04C            00004 22878  6          +
 002266 4100 0006            00006 22890  6          +
 00226A 5000 D050            00008 22895  6          +
 00226E D203 D048 C050 00000 00008 22902  6          +
 002274 58F0 A9B4/0DEF       023EC 22905  6          +
 00227A                            22907  6 1532.                          SEGHEX @RY+3,1                Format the PT bits
 00227A D70C D048 D048 00000 00000 22918  6          +
 002280 4100 7003            00003 22931  6          +
 002284 5000 D04C            00004 22936  6          +
 002288 4100 0001            00001 22948  6          +
 00228C 5000 D050            00008 22953  6          +
 002290 D203 D048 C050 00000 00008 22960  6          +
 002296 58F0 A9F8/0DEF       02430 22963  6          +
                                   22965  6 1533.
 00229C                            22966  6 1534.                          SEGEOR
 00229C D70C D048 D048 00000 00000 22978  6          +
 0022A2 D703 D050 D050 00008 00008 22986  6          +
 0022A8 D203 D048 C050 00000 00008 22993  6          +
 0022AE 9610 D054      0000C       22999  6          +
 0022B2 58F0 A9B4/0DEF       023EC 23002  6          +
 0022B8 5870 C060            00008 23004  6 1535.                          L     RY,DGVSVA               Segment address
 0022BC 5A70 C064            0000C 23005  6 1536.                          A     RY,DGVPVA               Page address
 0022C0 1377                       23006  6 1537.                          LCR   RY,RY
 0022C2 1A75                       23007  6 1538.                          AR    RY,RK                   Compute the print offset
 DROP   @SEG-72,R13                23008  6 1539.                          SEGCORE (RK),LH:=Y(4096),OFFSET=(RY) BNDRY16=NO
 USING  @SEGCORE-72,R13
 0022C4 D717 D048 D048 00000 00000 23029  6          +
 0022CA 5050 D04C            00004 23040  6          +
 0022CE 4800 AA3A            02472 23047  6          +
 0022D2 5000 D050            00008 23052  6          +
 0022D6 5070 D058            00010 23062  6          +
 0022DA 96E0 D055      0000D       23075  6          +
 0022DE D203 D048 C050 00000 00008 23082  6          +
 0022E4 58F0 A9BC/0DEF       023F4 23085  6          +
 DROP   @SEGCORE-72,R13            23087  6 1540.                          SEGEOR
 USING  @SEG-72,R13
 0022EA D70C D048 D048 00000 00000 23109  6          +
 0022F0 D703 D050 D050 00008 00008 23117  6          +
 0022F6 D203 D048 C050 00000 00008 23124  6          +
 0022FC 9610 D054      0000C       23130  6          +
 002300 58F0 A9B4/0DEF       023EC 23133  6          +
 002306                            23135  5 1541.                        END   ,
 002306                            23139  4 1542.                      END
                                   23143  4 1543.
                                   23144  4 1544.                        Set up for the next page.
                                   23145  4 1545.
 002306 5810 C05C            00004 23146  4 1546.                      L     RS,DGVCPTE              Get the current address
 00230A 4110 1004            00004 23147  4 1547.                      LA    RS,@RS+4                Point at the next
 00230E 5010 C05C            00004 23148  4 1548.                      ST    RS,DGVCPTE              Update the address
 002312 5810 C064            0000C 23149  4 1549.                      L     RS,DGVPVA               Get the virtual address
 002316 5A10 A9FC            02434 23150  4 1550.                      A     RS,=X'00001000'         address of the new page
 00231A 5010 C064            0000C 23151  4 1551.                      ST    RS,DGVPVA               Save that too
1GSTINTF  (GSTI00) (09:40) (22MAR04) IHAPSAE  - PSA Extension (ESAME)                                                       Page   85
0Current Usings:  (CPUB,R6) (DUMPGVM,R10) (DGVMPARM-72,R12) (@SEG-72,R13)
0Loc    Object Code    Addr1 Addr2  Stmt Lv Lineno    Source Statement           (Hibal 5, Asmedit 3.3)  HLASM R4.0  2004/03/22 09.40
+___    ______ ____    _____ _____  ____ __ ______    ______ _________
000231E 4630 A50E            01F46 23152  3 1552.                    UNTIL (BCT,RB),END            Go to the next segment
 002322                            23162  2 1553.                  END   ,
 002322                            23166  1 1554.                END
                                   23170  1 1555.     *
                                   23171  1 1556.     * Set up for the next segment
                                   23172  1 1557.     *
 002322 5810 C058            00000 23173  1 1558.                L     RS,DGVCSTE              Get the current address
 002326 4110 1004            00004 23174  1 1559.                LA    RS,@RS+4                Point at the next
 00232A 5010 C058            00000 23175  1 1560.                ST    RS,DGVCSTE              Update the address
 00232E 5810 C060            00008 23176  1 1561.                L     RS,DGVSVA               Get the virtual address
 002332 5A10 AA00            02438 23177  1 1562.                A     RS,=X'00100000'         address of the new segment
 002336 5010 C060            00008 23178  1 1563.                ST    RS,DGVSVA               Save that too
 00233A 4620 A204            01C3C 23179    1564.              UNTIL (BCT,RA),END            Go to the next segment
 00233E                            23189    1565.              SEGEOR '*** END OF MEMORY ***'
 00233E D70C D048 D048 00000 00000 23201             +
 002344 4100 AAA3            024DB 23210             +
 002348 5000 D04C            00004 23215             +
 00234C 4100 0015            00015 23227             +
 002350 5000 D050            00008 23232             +
 002354 D203 D048 C050 00000 00008 23239             +
 00235A 9610 D054      0000C       23245             +
 00235E 58F0 A9B4/0DEF       023EC 23248             +
 002364                            23250    1566.              SEGEOR ,
 002364 D70C D048 D048 00000 00000 23262             +
 00236A D703 D050 D050 00008 00008 23270             +
 002370 D203 D048 C050 00000 00008 23277             +
 002376 9610 D054      0000C       23283             +
 00237A 58F0 A9B4/0DEF       023EC 23286             +
 002380                            23288    1567.              SEGEOR ,
 002380 D70C D048 D048 00000 00000 23300             +
 002386 D703 D050 D050 00008 00008 23308             +
 00238C D203 D048 C050 00000 00008 23315             +
 002392 9610 D054      0000C       23321             +
 002396 58F0 A9B4/0DEF       023EC 23324             +
 00239C                            23326    1568.              SEGEOR ,
 00239C D70C D048 D048 00000 00000 23338             +
 0023A2 D703 D050 D050 00008 00008 23346             +
 0023A8 D203 D048 C050 00000 00008 23353             +
 0023AE 9610 D054      0000C       23359             +
 0023B2 58F0 A9B4/0DEF       023EC 23362             +
 0023B8                            23364    1569.              SEGEOB ,
 0023B8 D70C D048 D048 00000 00000 23376             +
 0023BE D703 D050 D050 00008 00008 23384             +
 0023C4 D203 D048 C050 00000 00008 23391             +
 0023CA 9608 D054      0000C       23397             +
 0023CE 58F0 A9B4/0DEF       023EC 23400             +
 0023D4 981F C008            00008 23402    1570.              PEND  ,
 DROP   CPUB,R6
 DROP   DGVMPARM-72,R12
 DROP   DUMPGVM,R10
 0023D8 9680 C000/0B0E 00000       23422             +
 DROP   @SEG-72,R13
 0023E0                            23431    1571.              LTORG
 0023E0 7FFFF000                   23433                             =X'7FFFF000'
1GSTINTF  (GSTI00) (09:40) (22MAR04) IHAPSAE  - PSA Extension (ESAME)                                                       Page   86
0Loc    Object Code    Addr1 Addr2  Stmt Lv Lineno    Source Statement           (Hibal 5, Asmedit 3.3)  HLASM R4.0  2004/03/22 09.40
+___    ______ ____    _____ _____  ____ __ ______    ______ _________
00023E4 0000007F                   23434                             =X'0000007F'
 0023E8 00000FFF                   23435                             =A(4095)
 0023EC 00000000                   23436                             =V(SEG)
 0023F0 00000000                   23437                             =V(BTXBTX)
 0023F4 00000000                   23438                             =V(SEGCORE)
 0023F8 0000000F                   23439                             =X'0000000F'
 0023FC 5C5C5C40C995A581           23440                             =C'*** Invalid segment table entry at: '
 002420 405C5C5C                   23441                             =C' ***'
 002424 D781878540E38182           23442                             =C'Page Table: '
 002430 00000000                   23443                             =V(SEGHEX)
 002434 00001000                   23444                             =X'00001000'
 002438 00100000                   23445                             =X'00100000'
 00243C 6B40                       23446                             =C', '
 00243E 408595A3998985A2           23447                             =C' entries, '
 002448 4082A8A385A2               23448                             =C' bytes'
 00244E 868999A2A3408184           23449                             =C'first address '
 00245C 7A40                       23450                             =C': '
 00245E 404040C7A485A2A3           23451                             =C'   Guest Real '
 00246C 404040D7E37A               23452                             =C'   PT:'
 002472 1000                       23453                             =Y(4096)
 002474 E28587948595A340           23454                             =C'Segment Table: '
 002483 40C3D6D4D4D6D5             23455                             =C' COMMON'
 00248A 40D3D6C3C1D340C3           23456                             =C' LOCAL CPU '
 002495 5C5C5C40C995A581           23457                             =C'*** Invalid page table entry at: '
 0024B6 60C3D6D4D4D6D5             23458                             =C'-COMMON'
 0024BD 60C3D7E440                 23459                             =C'-CPU '
 0024C2 4040D961D6                 23460                             =C'  R/O'
 0024C7 4040404040                 23461                             =C'     '
 0024CC 404040D4E5E240E5           23462                             =C'   MVS Virtual '
 0024DB 5C5C5C40C5D5C440           23463                             =C'*** END OF MEMORY ***'
1GSTINTF  (GSTI00) (09:40) (22MAR04) IHAPSAE  - PSA Extension (ESAME)                                                       Page   87
0Loc    Object Code    Addr1 Addr2  Stmt Lv Lineno    Source Statement           (Hibal 5, Asmedit 3.3)  HLASM R4.0  2004/03/22 09.40
+___    ______ ____    _____ _____  ____ __ ______    ______ _________
0                                  23468    1573.     *******************************************************************
                                   23469    1574.     *                                                                 *
                                   23470    1575.     *    DUMPFRL - Dump a list of the guest absolute frames.          *
                                   23471    1576.     *                                                                 *
                                   23472    1577.     *                                                                 *
                                   23473    1578.     *      Input - DGVMPARM                                           *
                                   23474    1579.     *                                                                 *
                                   23475    1580.     *     Output - none                                               *
                                   23476    1581.     *                                                                 *
                                   23477    1582.     *******************************************************************
-000000                00000 00004 23479    1584.     DGATWA   RECORD BEGIN
 000000                            23487  1 1585.     DVATWD     DS    A             Word work area
 000004                00004 00004 23488    1586.              END   ,
-0024F0                            23498    1588.     DUMPFRL  PROC  DGVMPARM,DGATWA,SCOPE=LOCAL
 0024F0 C4E4D4D7C6D9D340           23503             +
 0024F8 0010/0008                  23504             +
 0024FC 900F D004/18AF       00004 23506             +
 USING  DUMPFRL,R10
 002502 50D0 C000/18CD       00000 23521             +
 002508 9680 C000      00000       23523             +
 USING  DGVMPARM-72,R12
 AUSING (DGATWA,DGVMPARM+16)
 00250C 41D0 C060            00060 23542             +
                                   23543    1589.     *
                                   23544    1590.     * Get our control block
                                   23545    1591.     *
 002510 5860 C04C            00004 23546    1592.              L     RX,DGVMCPUB             GSTCT address
 USING  GSTCT,R6                   23547    1593.              WITH  (GSTCT,RX)
                                   23560    1594.     *
                                   23561    1595.     * Put out the title and header
                                   23562    1596.     *
 USING  @SEG-72,R13                23563    1597.              SEGEOR '*** GUEST ABSOLUTE FRAME TABLE ***',,DGVMSCB
 002514 D70C D048 D048 00000 00000 23582             +
 00251A 4100 A370            0286C 23591             +
 00251E 5000 D04C            00004 23596             +
 002522 4100 0022            00022 23608             +
 002526 5000 D050            00008 23613             +
 00252A D203 D048 C050 00000 00008 23620             +
 002530 9610 D054      0000C       23626             +
 002534 58F0 A364/0DEF       02860 23629             +
 00253A                            23631    1598.              SEGEOR ,
 00253A D70C D048 D048 00000 00000 23643             +
 002540 D703 D050 D050 00008 00008 23651             +
 002546 D203 D048 C050 00000 00008 23658             +
 00254C 9610 D054      0000C       23664             +
 002550 58F0 A364/0DEF       02860 23667             +
 002556                            23669    1599.              SEG   ' GUEST ABSOLUTE'
 002556 D70C D048 D048 00000 00000 23680             +
 00255C 4100 A394            02890 23689             +
 002560 5000 D04C            00004 23694             +
 002564 4100 000F            0000F 23706             +
 002568 5000 D050            00008 23711             +
1GSTINTF  (GSTI00) (09:40) (22MAR04) IHAPSAE  - PSA Extension (ESAME)                                                       Page   88
0Current Usings:  (GSTCT,R6) (DUMPFRL,R10) (DGVMPARM-72,R12) (@SEG-72,R13)
0Loc    Object Code    Addr1 Addr2  Stmt Lv Lineno    Source Statement           (Hibal 5, Asmedit 3.3)  HLASM R4.0  2004/03/22 09.40
+___    ______ ____    _____ _____  ____ __ ______    ______ _________
000256C D203 D048 C050 00000 00008 23718             +
 002572 58F0 A364/0DEF       02860 23721             +
 DROP   @SEG-72,R13                23723    1600.              SEGCOL 20
 USING  @SEGCOL-72,R13
 002578 D707 D048 D048 00000 00000 23744             +
 00257E 4100 0014            00014 23756             +
 002582 5000 D04C            00004 23761             +
 002586 D203 D048 C050 00000 00008 23768             +
 00258C 58F0 A368/0DEF       02864 23771             +
 DROP   @SEGCOL-72,R13             23773    1601.              SEG   'MVS VIRTUAL'
 USING  @SEG-72,R13
 002592 D70C D048 D048 00000 00000 23794             +
 002598 4100 A3A3            0289F 23803             +
 00259C 5000 D04C            00004 23808             +
 0025A0 4100 000B            0000B 23820             +
 0025A4 5000 D050            00008 23825             +
 0025A8 D203 D048 C050 00000 00008 23832             +
 0025AE 58F0 A364/0DEF       02860 23835             +
 DROP   @SEG-72,R13                23837    1602.              SEGCOL 35
 USING  @SEGCOL-72,R13
 0025B4 D707 D048 D048 00000 00000 23858             +
 0025BA 4100 0023            00023 23870             +
 0025BE 5000 D04C            00004 23875             +
 0025C2 D203 D048 C050 00000 00008 23882             +
 0025C8 58F0 A368/0DEF       02864 23885             +
 DROP   @SEGCOL-72,R13             23887    1603.              SEG   'MVS REAL'
 USING  @SEG-72,R13
 0025CE D70C D048 D048 00000 00000 23908             +
 0025D4 4100 A35C            02858 23917             +
 0025D8 5000 D04C            00004 23922             +
 0025DC 4100 0008            00008 23934             +
 0025E0 5000 D050            00008 23939             +
 0025E4 D203 D048 C050 00000 00008 23946             +
 0025EA 58F0 A364/0DEF       02860 23949             +
 DROP   @SEG-72,R13                23951    1604.              SEGCOL 45
 USING  @SEGCOL-72,R13
 0025F0 D707 D048 D048 00000 00000 23972             +
 0025F6 4100 002D            0002D 23984             +
 0025FA 5000 D04C            00004 23989             +
 0025FE D203 D048 C050 00000 00008 23996             +
 002604 58F0 A368/0DEF       02864 23999             +
 DROP   @SEGCOL-72,R13             24001    1605.              SEG   'STORAGE KEY'
 USING  @SEG-72,R13
 00260A D70C D048 D048 00000 00000 24022             +
 002610 4100 A3AE            028AA 24031             +
 002614 5000 D04C            00004 24036             +
 002618 4100 000B            0000B 24048             +
 00261C 5000 D050            00008 24053             +
 002620 D203 D048 C050 00000 00008 24060             +
 002626 58F0 A364/0DEF       02860 24063             +
 00262C                            24065    1606.              SEGEOR ,
 00262C D70C D048 D048 00000 00000 24077             +
 002632 D703 D050 D050 00008 00008 24085             +
 002638 D203 D048 C050 00000 00008 24092             +
1GSTINTF  (GSTI00) (09:40) (22MAR04) IHAPSAE  - PSA Extension (ESAME)                                                       Page   89
0Current Usings:  (GSTCT,R6) (DUMPFRL,R10) (DGVMPARM-72,R12) (@SEG-72,R13)
0Loc    Object Code    Addr1 Addr2  Stmt Lv Lineno    Source Statement           (Hibal 5, Asmedit 3.3)  HLASM R4.0  2004/03/22 09.40
+___    ______ ____    _____ _____  ____ __ ______    ______ _________
000263E 9610 D054      0000C       24098             +
 002642 58F0 A364/0DEF       02860 24101             +
 002648                            24103    1607.              SEGEOR ,
 002648 D70C D048 D048 00000 00000 24115             +
 00264E D703 D050 D050 00008 00008 24123             +
 002654 D203 D048 C050 00000 00008 24130             +
 00265A 9610 D054      0000C       24136             +
 00265E 58F0 A364/0DEF       02860 24139             +
                                   24141    1608.     *
                                   24142    1609.     * Print out the Table
                                   24143    1610.     *
 002664 1B22                       24144    1611.              CLEAR RA                      Get the starting address
 002666 5920 6014            00014 24148    1612.              WHILE (RA,LT,GSTCCLEN),BEGIN  Until we're done
 00266A 47B0 A2D6            027D2 24162             +
                                   24167  1 1613.     *
                                   24168  1 1614.     * Guest absolute
                                   24169  1 1615.     *
 00266E 5020 C058            00000 24170  1 1616.                ST    RA,DVATWD               Save the guest absolute
 002672                            24171  1 1617.                SEG   ' '
 002672 D70C D048 D048 00000 00000 24182  1          +
 002678 4100 A3B9            028B5 24191  1          +
 00267C 5000 D04C            00004 24196  1          +
 002680 4100 0001            00001 24208  1          +
 002684 5000 D050            00008 24213  1          +
 002688 D203 D048 C050 00000 00008 24220  1          +
 00268E 58F0 A364/0DEF       02860 24223  1          +
 002694                            24225  1 1618.                SEGHEX DVATWD                 Guest absolute
 002694 D70C D048 D048 00000 00000 24236  1          +
 00269A 4100 C058            00000 24249  1          +
 00269E 5000 D04C            00004 24254  1          +
 0026A2 4100 0004            00004 24266  1          +
 0026A6 5000 D050            00008 24271  1          +
 0026AA D203 D048 C050 00000 00008 24278  1          +
 0026B0 58F0 A36C/0DEF       02868 24281  1          +
                                   24283  1 1619.     *
                                   24284  1 1620.     * MVS virtual
                                   24285  1 1621.     *
 DROP   @SEG-72,R13                24286  1 1622.                SEGCOL 20
 USING  @SEGCOL-72,R13
 0026B6 D707 D048 D048 00000 00000 24307  1          +
 0026BC 4100 0014            00014 24319  1          +
 0026C0 5000 D04C            00004 24324  1          +
 0026C4 D203 D048 C050 00000 00008 24331  1          +
 0026CA 58F0 A368/0DEF       02864 24334  1          +
 0026D0 1832                       24336  1 1623.                LR    RB,RA                   Get the Guest absolute
 0026D2 5A30 6010            00010 24337  1 1624.                A     RB,GSTCCORE             Add the MVS virtual offset
 0026D6 5030 C058            00000 24338  1 1625.                ST    RB,DVATWD               MVS Virtual address
 DROP   @SEGCOL-72,R13             24339  1 1626.                SEGHEX DVATWD
 USING  @SEG-72,R13
 0026DA D70C D048 D048 00000 00000 24360  1          +
 0026E0 4100 C058            00000 24373  1          +
 0026E4 5000 D04C            00004 24378  1          +
 0026E8 4100 0004            00004 24390  1          +
 0026EC 5000 D050            00008 24395  1          +
1GSTINTF  (GSTI00) (09:40) (22MAR04) IHAPSAE  - PSA Extension (ESAME)                                                       Page   90
0Current Usings:  (GSTCT,R6) (DUMPFRL,R10) (DGVMPARM-72,R12) (@SEG-72,R13)
0Loc    Object Code    Addr1 Addr2  Stmt Lv Lineno    Source Statement           (Hibal 5, Asmedit 3.3)  HLASM R4.0  2004/03/22 09.40
+___    ______ ____    _____ _____  ____ __ ______    ______ _________
00026F0 D203 D048 C050 00000 00008 24402  1          +
 0026F6 58F0 A36C/0DEF       02868 24405  1          +
                                   24407  1 1627.     *
                                   24408  1 1628.     * MVS real
                                   24409  1 1629.     *
 DROP   @SEG-72,R13                24410  1 1630.                SEGCOL 35
 USING  @SEGCOL-72,R13
 0026FC D707 D048 D048 00000 00000 24431  1          +
 002702 4100 0023            00023 24443  1          +
 002706 5000 D04C            00004 24448  1          +
 00270A D203 D048 C050 00000 00008 24455  1          +
 002710 58F0 A368/0DEF       02864 24458  1          +
 002716 B130 3000            00000 24460  1 1631.                LRA   RB,@RB                  Get the real address
 00271A 4780 A248            02744 24461  1 1632.                IF    NZ,BEGIN                If it is not valid
 DROP   @SEGCOL-72,R13             24472  2 1633.                  SEG   'INVALID'
 USING  @SEG-72,R13
 00271E D70C D048 D048 00000 00000 24493  2          +
 002724 4100 A3BA            028B6 24502  2          +
 002728 5000 D04C            00004 24507  2          +
 00272C 4100 0007            00007 24519  2          +
 002730 5000 D050            00008 24524  2          +
 002734 D203 D048 C050 00000 00008 24531  2          +
 00273A 58F0 A364/0DEF       02860 24534  2          +
 002740 47F0 A2B2            027AE 24536  2 1634.                  B     DVATEND
 002744                            24537  1 1635.                END   ,
 002744 5030 C058            00000 24541  1 1636.                ST    RB,DVATWD               Save the location
 002748                            24542  1 1637.                SEGHEX DVATWD                 Do the virtual address
 002748 D70C D048 D048 00000 00000 24553  1          +
 00274E 4100 C058            00000 24566  1          +
 002752 5000 D04C            00004 24571  1          +
 002756 4100 0004            00004 24583  1          +
 00275A 5000 D050            00008 24588  1          +
 00275E D203 D048 C050 00000 00008 24595  1          +
 002764 58F0 A36C/0DEF       02868 24598  1          +
                                   24600  1 1638.     *
                                   24601  1 1639.     * Storage key
                                   24602  1 1640.     *
 DROP   @SEG-72,R13                24603  1 1641.                SEGCOL 45
 USING  @SEGCOL-72,R13
 00276A D707 D048 D048 00000 00000 24624  1          +
 002770 4100 002D            0002D 24636  1          +
 002774 5000 D04C            00004 24641  1          +
 002778 D203 D048 C050 00000 00008 24648  1          +
 00277E 58F0 A368/0DEF       02864 24651  1          +
 002784 B229 0013                  24653  1 1642.                ISKE  RS,RB                   Get the storage key
 002788 4210 C058            00000 24654  1 1643.                STC   RS,DVATWD
 DROP   @SEGCOL-72,R13             24655  1 1644.                SEGHEX DVATWD,1               Length to seg
 USING  @SEG-72,R13
 00278C D70C D048 D048 00000 00000 24676  1          +
 002792 4100 C058            00000 24689  1          +
 002796 5000 D04C            00004 24694  1          +
 00279A 4100 0001            00001 24706  1          +
 00279E 5000 D050            00008 24711  1          +
 0027A2 D203 D048 C050 00000 00008 24718  1          +
1GSTINTF  (GSTI00) (09:40) (22MAR04) IHAPSAE  - PSA Extension (ESAME)                                                       Page   91
0Current Usings:  (GSTCT,R6) (DUMPFRL,R10) (DGVMPARM-72,R12) (@SEG-72,R13)
0Loc    Object Code    Addr1 Addr2  Stmt Lv Lineno    Source Statement           (Hibal 5, Asmedit 3.3)  HLASM R4.0  2004/03/22 09.40
+___    ______ ____    _____ _____  ____ __ ______    ______ _________
00027A8 58F0 A36C/0DEF       02868 24721  1          +
                                   24723  1 1645.     *
                                   24724  1 1646.     * Finish up this page
                                   24725  1 1647.     *
 0027AE                            24726  1 1648.     DVATEND    SEGEOR ,
 0027AE D70C D048 D048 00000 00000 24739  1          +
 0027B4 D703 D050 D050 00008 00008 24747  1          +
 0027BA D203 D048 C050 00000 00008 24754  1          +
 0027C0 9610 D054      0000C       24760  1          +
 0027C4 58F0 A364/0DEF       02860 24763  1          +
 0027CA 4A20 A392            0288E 24765  1 1649.                AH    RA,=Y(4096)             Get to the next page
 0027CE 47F0 A16A            02666 24766    1650.              END   ,
                                   24771    1651.     *
                                   24772    1652.     * All done
                                   24773    1653.     *
 0027D2                            24774    1654.              SEGEOR '*** End of the Absolute Frame Table ***'
 0027D2 D70C D048 D048 00000 00000 24786             +
 0027D8 4100 A3C1            028BD 24795             +
 0027DC 5000 D04C            00004 24800             +
 0027E0 4100 0027            00027 24812             +
 0027E4 5000 D050            00008 24817             +
 0027E8 D203 D048 C050 00000 00008 24824             +
 0027EE 9610 D054      0000C       24830             +
 0027F2 58F0 A364/0DEF       02860 24833             +
 0027F8                            24835    1655.              SEGEOR ,
 0027F8 D70C D048 D048 00000 00000 24847             +
 0027FE D703 D050 D050 00008 00008 24855             +
 002804 D203 D048 C050 00000 00008 24862             +
 00280A 9610 D054      0000C       24868             +
 00280E 58F0 A364/0DEF       02860 24871             +
 002814                            24873    1656.              SEGEOR ,
 002814 D70C D048 D048 00000 00000 24885             +
 00281A D703 D050 D050 00008 00008 24893             +
 002820 D203 D048 C050 00000 00008 24900             +
 002826 9610 D054      0000C       24906             +
 00282A 58F0 A364/0DEF       02860 24909             +
 002830                            24911    1657.              SEGEOB ,
 002830 D70C D048 D048 00000 00000 24923             +
 002836 D703 D050 D050 00008 00008 24931             +
 00283C D203 D048 C050 00000 00008 24938             +
 002842 9608 D054      0000C       24944             +
 002846 58F0 A364/0DEF       02860 24947             +
 00284C 981F C008            00008 24949    1658.              PEND  ,
 DROP   GSTCT,R6
 DROP   DGVMPARM-72,R12
 DROP   DUMPFRL,R10
 002850 9680 C000/0B0E 00000       24969             +
 DROP   @SEG-72,R13
1GSTINTF  (GSTI00) (09:40) (22MAR04) IHAPSAE  - PSA Extension (ESAME)                                                       Page   92
0Loc    Object Code    Addr1 Addr2  Stmt Lv Lineno    Source Statement           (Hibal 5, Asmedit 3.3)  HLASM R4.0  2004/03/22 09.40
+___    ______ ____    _____ _____  ____ __ ______    ______ _________
0002858                            24979    1660.              LTORG ,
 002858 D4E5E240D9C5C1D3           24981                             =C'MVS REAL'
 002860 00000000                   24982                             =V(SEG)
 002864 00000000                   24983                             =V(SEGCOL)
 002868 00000000                   24984                             =V(SEGHEX)
 00286C 5C5C5C40C7E4C5E2           24985                             =C'*** GUEST ABSOLUTE FRAME TABLE ***'
 00288E 1000                       24986                             =Y(4096)
 002890 40C7E4C5E2E340C1           24987                             =C' GUEST ABSOLUTE'
 00289F D4E5E240E5C9D9E3           24988                             =C'MVS VIRTUAL'
 0028AA E2E3D6D9C1C7C540           24989                             =C'STORAGE KEY'
 0028B5 40                         24990                             =C' '
 0028B6 C9D5E5C1D3C9C4             24991                             =C'INVALID'
 0028BD 5C5C5C40C5958440           24992                             =C'*** End of the Absolute Frame Table ***'
1GSTINTF  (GSTI00) (09:40) (22MAR04) IHAPSAE  - PSA Extension (ESAME)                                                       Page   93
0Loc    Object Code    Addr1 Addr2  Stmt Lv Lineno    Source Statement           (Hibal 5, Asmedit 3.3)  HLASM R4.0  2004/03/22 09.40
+___    ______ ____    _____ _____  ____ __ ______    ______ _________
0                                  24997    1662.     *******************************************************************
                                   24998    1663.     *                                                                 *
                                   24999    1664.     *    DUMPTRC - Dump the current Trace table.                      *
                                   25000    1665.     *                                                                 *
                                   25001    1666.     *                                                                 *
                                   25002    1667.     *      Input - DGVMPARM                                           *
                                   25003    1668.     *                                                                 *
                                   25004    1669.     *     Output - none                                               *
                                   25005    1670.     *                                                                 *
                                   25006    1671.     *******************************************************************
-000000                00000 00014 25008    1673.     DGTRWA   RECORD BEGIN
 000000                            25016  1 1674.     DGTRNAM    DS    CL8           Name of the routine
 000008                            25017  1 1675.     DGTRCLK    DS    D             TOD clock for trace
 000010                            25018  1 1676.     DGTRLOC    DS    A             Location of trace parms
 000014                00014 00014 25019    1677.              END   ,
-0028E4                            25029    1679.     DUMPTRC  PROC  DGVMPARM,DGTRWA,SCOPE=LOCAL
 0028E4 C4E4D4D7E3D9C340           25034             +
 0028EC 0010/0018                  25035             +
 0028F0 900F D004/18AF       00004 25037             +
 USING  DUMPTRC,R10
 0028F6 50D0 C000/18CD       00000 25052             +
 0028FC 9680 C000      00000       25054             +
 USING  DGVMPARM-72,R12
 AUSING (DGTRWA,DGVMPARM+16)
 002900 41D0 C070            00070 25073             +
 002904                            25074    1680.              CLEAR DGTRWA        Clear the work area
 002904 D713 C058 C058 00000 00000 25080             +
                                   25081    1681.     *
                                   25082    1682.     * Get our control block
                                   25083    1683.     *
 00290A 5860 C04C            00004 25084    1684.              L     RX,DGVMCPUB             CPUB address
 USING  CPUB,R6                    25085    1685.              WITH  (CPUB,RX)
 USING  @SEG-72,R13                25098    1686.              SEG   '*** Current Trace table for CPU ',,DGVMSCB
 00290E D70C D048 D048 00000 00000 25116             +
 002914 4100 A8E8            031D8 25125             +
 002918 5000 D04C            00004 25130             +
 00291C 4100 0020            00020 25142             +
 002920 5000 D050            00008 25147             +
 002924 D203 D048 C050 00000 00008 25154             +
 00292A 58F0 A930/0DEF       03220 25157             +
 002930                            25159    1687.              SEGHEX CPCPUA+2,2
 002930 D70C D048 D048 00000 00000 25170             +
 002936 4100 6066            00066 25183             +
 00293A 5000 D04C            00004 25188             +
 00293E 4100 0002            00002 25200             +
 002942 5000 D050            00008 25205             +
 002946 D203 D048 C050 00000 00008 25212             +
 00294C 58F0 A934/0DEF       03224 25215             +
 002952                            25217    1688.              SEGEOR ' ***'
 002952 D70C D048 D048 00000 00000 25229             +
 002958 4100 A938            03228 25238             +
 00295C 5000 D04C            00004 25243             +
1GSTINTF  (GSTI00) (09:40) (22MAR04) IHAPSAE  - PSA Extension (ESAME)                                                       Page   94
0Current Usings:  (CPUB,R6) (DUMPTRC,R10) (DGVMPARM-72,R12) (@SEG-72,R13)
0Loc    Object Code    Addr1 Addr2  Stmt Lv Lineno    Source Statement           (Hibal 5, Asmedit 3.3)  HLASM R4.0  2004/03/22 09.40
+___    ______ ____    _____ _____  ____ __ ______    ______ _________
0002960 4100 0004            00004 25255             +
 002964 5000 D050            00008 25260             +
 002968 D203 D048 C050 00000 00008 25267             +
 00296E 9610 D054      0000C       25273             +
 002972 58F0 A930/0DEF       03220 25276             +
 002978                            25278    1689.              SEGEOR ,
 002978 D70C D048 D048 00000 00000 25290             +
 00297E D703 D050 D050 00008 00008 25298             +
 002984 D203 D048 C050 00000 00008 25305             +
 00298A 9610 D054      0000C       25311             +
 00298E 58F0 A930/0DEF       03220 25314             +
                                   25316    1690.     *
                                   25317    1691.     * Find the trace table
                                   25318    1692.     *
 002994 5850 61B0            001B0 25319    1693.              L     RK,SIECRS+4*12          Get control register 12
 002998 5450 A93C            0322C 25320    1694.              N     RK,=X'7FFFFFFC'         Mask out bits
 00299C 5800 A940/1405       03230 25321    1695.              GRA   RK,(RK)                 Convert to MVS address
 0029A2 4770 A0BA            029AA 25334             +
 0029A6 5650 6104            00104 25340             +
 0029A4 A0BE           029A6 029AA 25349             +
 0029AA 47F0 A0CA            029BA 25351             +
 0029AE 5900 6104            00104 25365             +
 0029B2 4770 A0CA            029BA 25366             +
 0029B6 5450 A944            03234 25372             +
 0029BA 5A50 6010            00010 25377             +
 0029BE 1845                       25378    1696.              LR    RJ,RK                   Copy the ending address
 0029C0 5440 A940            03230 25379    1697.              N     RJ,=X'7FFFF000'         Get the start of the page
 0029C4 D207 C060 4000 00008 00000 25380    1698.              MVC   DGTRCLK,@RJ             Copy start time
 0029CA 4140 4008            00008 25381    1699.              LA    RJ,@RJ+8                Get past the clock
 0029CE 1B77                       25382    1700.              CLEAR RY                      Count of branch entries
                                   25386    1701.     *
                                   25387    1702.     * Loop through the trace entries
                                   25388    1703.     *
 0029D0 1945/47B0 A762       03052 25389    1704.     TRCLOOP  WHILE (RJ,LT,RK),BEGIN        Only through this page
1GSTINTF  (GSTI00) (09:40) (22MAR04) IHAPSAE  - PSA Extension (ESAME)                                                       Page   95
0Current Usings:  (CPUB,R6) (DUMPTRC,R10) (DGVMPARM-72,R12) (@SEG-72,R13)
0Loc    Object Code    Addr1 Addr2  Stmt Lv Lineno    Source Statement           (Hibal 5, Asmedit 3.3)  HLASM R4.0  2004/03/22 09.40
+___    ______ ____    _____ _____  ____ __ ______    ______ _________
0                                  25408  1 1706.     *
                                   25409  1 1707.     * Branch tracing
                                   25410  1 1708.     *
 0029D6 9500 4000      00000       25411  1 1709.                CLI   @RJ,0                   24 bit trace
 0029DA 9500 4000      00000       25412  1 1710.                IF    ((@RJ,EQ,X'00'),OR,@RJ.X'80'),BEGIN
 0029DE 4780 A0FA            029EA 25427  1          +
 0029E2 9180 4000      00000       25437  1          +
 0029E6 47E0 A21A            02B0A 25438  1          +
                                   25443  2 1711.     *
                                   25444  2 1712.     * Put seven on a line
                                   25445  2 1713.     *
 0029EA 1277/4770 A122       02A12 25446  2 1714.                  IF    (RY,Z),BEGIN
 0029F0                            25460  3 1715.                    SEG   'BR -- '
 0029F0 D70C D048 D048 00000 00000 25471  3          +
 0029F6 4100 A964            03254 25480  3          +
 0029FA 5000 D04C            00004 25485  3          +
 0029FE 4100 0006            00006 25497  3          +
 002A02 5000 D050            00008 25502  3          +
 002A06 D203 D048 C050 00000 00008 25509  3          +
 002A0C 58F0 A930/0DEF       03220 25512  3          +
 002A12                            25514  2 1716.                  END   ,
 002A12 4170 7001            00001 25518  2 1717.                  LA    RY,@RY+1                Count this one
 002A16 5970 A948            03238 25519  2 1718.                  IF    (RY,EQ,8),BEGIN
 002A1A 4770 A170            02A60 25531  2          +
 002A1E                            25536  3 1719.                    SEGEOR
 002A1E D70C D048 D048 00000 00000 25548  3          +
 002A24 D703 D050 D050 00008 00008 25556  3          +
 002A2A D203 D048 C050 00000 00008 25563  3          +
 002A30 9610 D054      0000C       25569  3          +
 002A34 58F0 A930/0DEF       03220 25572  3          +
 002A3A                            25574  3 1720.                    SEG   '      '
 002A3A D70C D048 D048 00000 00000 25585  3          +
 002A40 4100 A96A            0325A 25594  3          +
 002A44 5000 D04C            00004 25599  3          +
 002A48 4100 0006            00006 25611  3          +
 002A4C 5000 D050            00008 25616  3          +
 002A50 D203 D048 C050 00000 00008 25623  3          +
 002A56 58F0 A930/0DEF       03220 25626  3          +
 002A5C 4170 0001            00001 25628  3 1721.                    LA    RY,1                    Back to # 1
 002A60                            25629  2 1722.                  END   ,
                                   25633  2 1723.     *
                                   25634  2 1724.     * Find the routine name
                                   25635  2 1725.     *
 002A60 5820 4000            00000 25636  2 1726.                  L     RA,@RJ                  Get the address
 002A64 4B20 A970            03260 25637  2 1727.                  SH    RA,=H'12'               Get to a routine name
 DROP   @SEG-72,R13                25638  2 1728.                  PSET  GVAPARM
 USING  GVAPARM-72,R13
 002A68 D70B D048 D048 00000 00000 25658  2          +
 002A6E 5060 D048            00000 25659  2 1729.                  ST    RX,GVACPUB              CPU address
 002A72 5020 D04C            00004 25660  2 1730.                  ST    RA,GVAVLOC              Location
 002A76 58F0 A94C/0DEF       0323C 25661  2 1731.                  ACALL GVA
 002A7C 5900 A950            03240 25668  2 1732.                  IF    (RVR,GT,4),BRADDR       Only do the address
 002A80 4720 A1D2            02AC2 25682  2          +
 002A84 5820 D050            00008 25688  2 1733.                  L     RA,GVAMLOC              Got the MVS address
1GSTINTF  (GSTI00) (09:40) (22MAR04) IHAPSAE  - PSA Extension (ESAME)                                                       Page   96
0Current Usings:  (CPUB,R6) (DUMPTRC,R10) (DGVMPARM-72,R12) (GVAPARM-72,R13)
0Loc    Object Code    Addr1 Addr2  Stmt Lv Lineno    Source Statement           (Hibal 5, Asmedit 3.3)  HLASM R4.0  2004/03/22 09.40
+___    ______ ____    _____ _____  ____ __ ______    ______ _________
0002A88 D207 C058 2000 00000 00000 25689  2 1734.                  MVC   DGTRNAM,@RA             Move in the name
 002A8E DD07 C058 A7E2 00000 030D2 25690  2 1735.                  TRT   DGTRNAM,TRATAB          Is it ok?
 002A94 4770 A1D2            02AC2 25691  2 1736.                  IF    NZ,BRADDR               Nope
 DROP   GVAPARM-72,R13             25705  2 1737.                  SEGB  DGTRNAM                 Seg it in
 USING  @SEG-72,R13
 002A98 D70C D048 D048 00000 00000 25727  2          +
 002A9E 4100 C058            00000 25740  2          +
 002AA2 5000 D04C            00004 25745  2          +
 002AA6 4100 0008            00008 25757  2          +
 002AAA 5000 D050            00008 25762  2          +
 002AAE D203 D048 C050 00000 00008 25769  2          +
 002AB4 9680 D054      0000C       25775  2          +
 002AB8 58F0 A930/0DEF       03220 25778  2          +
 002ABE 47F0 A212            02B02 25780  2 1738.                  B     BRTDONE
                                   25781  2 1739.     *
                                   25782  2 1740.     * If something was wrong, just trace the address
                                   25783  2 1741.     *
 002AC2                            25784  2 1742.     BRADDR       SEGHEX (RJ),4                 Convert it
 002AC2 D70C D048 D048 00000 00000 25796  2          +
 002AC8 5040 D04C            00004 25807  2          +
 002ACC 4100 0004            00004 25819  2          +
 002AD0 5000 D050            00008 25824  2          +
 002AD4 D203 D048 C050 00000 00008 25831  2          +
 002ADA 58F0 A934/0DEF       03224 25834  2          +
 002AE0                            25836  2 1743.                  SEG   ' '                     Add a blank
 002AE0 D70C D048 D048 00000 00000 25847  2          +
 002AE6 4100 A990            03280 25856  2          +
 002AEA 5000 D04C            00004 25861  2          +
 002AEE 4100 0001            00001 25873  2          +
 002AF2 5000 D050            00008 25878  2          +
 002AF6 D203 D048 C050 00000 00008 25885  2          +
 002AFC 58F0 A930/0DEF       03220 25888  2          +
                                   25890  2 1744.     *
                                   25891  2 1745.     * Update the trace address
                                   25892  2 1746.     *
 002B02 4140 4004            00004 25893  2 1747.     BRTDONE      LA    RJ,@RJ+4                4 byte entry
 002B06 47F0 A0E0            029D0 25894  2 1748.                  NEXT  TRCLOOP
 002B0A                            25897  1 1749.                END   ,
1GSTINTF  (GSTI00) (09:40) (22MAR04) IHAPSAE  - PSA Extension (ESAME)                                                       Page   97
0Current Usings:  (CPUB,R6) (DUMPTRC,R10) (DGVMPARM-72,R12) (@SEG-72,R13)
0Loc    Object Code    Addr1 Addr2  Stmt Lv Lineno    Source Statement           (Hibal 5, Asmedit 3.3)  HLASM R4.0  2004/03/22 09.40
+___    ______ ____    _____ _____  ____ __ ______    ______ _________
0                                  25902  1 1751.     *
                                   25903  1 1752.     * Set secondary ASN
                                   25904  1 1753.     *
 002B0A 9510 4000      00000       25905  1 1754.                IF    (@RJ,EQ,B'00010000'),BEGIN
 002B0E 4770 A2AE            02B9E 25916  1          +
 002B12 1277/4780 A246       02B36 25921  2 1755.                  IF    (RY,NZ),BEGIN           Manage any left over brs
 002B18                            25935  3 1756.                    SEGEOR
 002B18 D70C D048 D048 00000 00000 25947  3          +
 002B1E D703 D050 D050 00008 00008 25955  3          +
 002B24 D203 D048 C050 00000 00008 25962  3          +
 002B2A 9610 D054      0000C       25968  3          +
 002B2E 58F0 A930/0DEF       03220 25971  3          +
 002B34 1B77                       25973  3 1757.                    CLEAR RY
 002B36                            25977  2 1758.                  END   ,
 002B36                            25981  2 1759.                  SEG   'SSAN '
 002B36 D70C D048 D048 00000 00000 25992  2          +
 002B3C 4100 A991            03281 26001  2          +
 002B40 5000 D04C            00004 26006  2          +
 002B44 4100 0005            00005 26018  2          +
 002B48 5000 D050            00008 26023  2          +
 002B4C D203 D048 C050 00000 00008 26030  2          +
 002B52 58F0 A930/0DEF       03220 26033  2          +
 002B58                            26035  2 1760.                  SEGHEX @RJ+2,2                Move in the new SSAN
 002B58 D70C D048 D048 00000 00000 26046  2          +
 002B5E 4100 4002            00002 26059  2          +
 002B62 5000 D04C            00004 26064  2          +
 002B66 4100 0002            00002 26076  2          +
 002B6A 5000 D050            00008 26081  2          +
 002B6E D203 D048 C050 00000 00008 26088  2          +
 002B74 58F0 A934/0DEF       03224 26091  2          +
 002B7A                            26093  2 1761.                  SEGEOR ,
 002B7A D70C D048 D048 00000 00000 26105  2          +
 002B80 D703 D050 D050 00008 00008 26113  2          +
 002B86 D203 D048 C050 00000 00008 26120  2          +
 002B8C 9610 D054      0000C       26126  2          +
 002B90 58F0 A930/0DEF       03220 26129  2          +
 002B96 4140 4004            00004 26131  2 1762.                  LA    RJ,@RJ+4                4 byte entry
 002B9A 47F0 A0E0            029D0 26132  2 1763.                  NEXT  TRCLOOP
 002B9E                            26135  1 1764.                END   ,
1GSTINTF  (GSTI00) (09:40) (22MAR04) IHAPSAE  - PSA Extension (ESAME)                                                       Page   98
0Current Usings:  (CPUB,R6) (DUMPTRC,R10) (DGVMPARM-72,R12) (@SEG-72,R13)
0Loc    Object Code    Addr1 Addr2  Stmt Lv Lineno    Source Statement           (Hibal 5, Asmedit 3.3)  HLASM R4.0  2004/03/22 09.40
+___    ______ ____    _____ _____  ____ __ ______    ______ _________
0                                  26140  1 1766.     *
                                   26141  1 1767.     * Program Call
                                   26142  1 1768.     *
 002B9E 9521 4000      00000       26143  1 1769.                IF    (@RJ,EQ,B'00100001'),BEGIN
 002BA2 4770 A342            02C32 26154  1          +
 002BA6 1277/4780 A2DA       02BCA 26159  2 1770.                  IF    (RY,NZ),BEGIN           Manage any left over brs
 002BAC                            26173  3 1771.                    SEGEOR
 002BAC D70C D048 D048 00000 00000 26185  3          +
 002BB2 D703 D050 D050 00008 00008 26193  3          +
 002BB8 D203 D048 C050 00000 00008 26200  3          +
 002BBE 9610 D054      0000C       26206  3          +
 002BC2 58F0 A930/0DEF       03220 26209  3          +
 002BC8 1B77                       26211  3 1772.                    CLEAR RY
 002BCA                            26215  2 1773.                  END   ,
 002BCA                            26219  2 1774.                  SEG   'Program Call -- '
 002BCA D70C D048 D048 00000 00000 26230  2          +
 002BD0 4100 A908            031F8 26239  2          +
 002BD4 5000 D04C            00004 26244  2          +
 002BD8 4100 0010            00010 26256  2          +
 002BDC 5000 D050            00008 26261  2          +
 002BE0 D203 D048 C050 00000 00008 26268  2          +
 002BE6 58F0 A930/0DEF       03220 26271  2          +
 002BEC                            26273  2 1775.                  SEGHEX @RJ+1,7                Do the entry
 002BEC D70C D048 D048 00000 00000 26284  2          +
 002BF2 4100 4001            00001 26297  2          +
 002BF6 5000 D04C            00004 26302  2          +
 002BFA 4100 0007            00007 26314  2          +
 002BFE 5000 D050            00008 26319  2          +
 002C02 D203 D048 C050 00000 00008 26326  2          +
 002C08 58F0 A934/0DEF       03224 26329  2          +
 002C0E                            26331  2 1776.                  SEGEOR ,
 002C0E D70C D048 D048 00000 00000 26343  2          +
 002C14 D703 D050 D050 00008 00008 26351  2          +
 002C1A D203 D048 C050 00000 00008 26358  2          +
 002C20 9610 D054      0000C       26364  2          +
 002C24 58F0 A930/0DEF       03220 26367  2          +
 002C2A 4140 4008            00008 26369  2 1777.                  LA    RJ,@RJ+8                8 byte entry
 002C2E 47F0 A0E0            029D0 26370  2 1778.                  NEXT  TRCLOOP
 002C32                            26373  1 1779.                END   ,
1GSTINTF  (GSTI00) (09:40) (22MAR04) IHAPSAE  - PSA Extension (ESAME)                                                       Page   99
0Current Usings:  (CPUB,R6) (DUMPTRC,R10) (DGVMPARM-72,R12) (@SEG-72,R13)
0Loc    Object Code    Addr1 Addr2  Stmt Lv Lineno    Source Statement           (Hibal 5, Asmedit 3.3)  HLASM R4.0  2004/03/22 09.40
+___    ______ ____    _____ _____  ____ __ ______    ______ _________
0                                  26378  1 1781.     *
                                   26379  1 1782.     * Program Transfer
                                   26380  1 1783.     *
 002C32 9531 4000      00000       26381  1 1784.                IF    (@RJ,EQ,B'00110001'),BEGIN
 002C36 4770 A3D6            02CC6 26392  1          +
 002C3A 1277/4780 A36E       02C5E 26397  2 1785.                  IF    (RY,NZ),BEGIN           Manage any left over brs
 002C40                            26411  3 1786.                    SEGEOR
 002C40 D70C D048 D048 00000 00000 26423  3          +
 002C46 D703 D050 D050 00008 00008 26431  3          +
 002C4C D203 D048 C050 00000 00008 26438  3          +
 002C52 9610 D054      0000C       26444  3          +
 002C56 58F0 A930/0DEF       03220 26447  3          +
 002C5C 1B77                       26449  3 1787.                    CLEAR RY
 002C5E                            26453  2 1788.                  END   ,
 002C5E                            26457  2 1789.                  SEG   'Program Tran -- '
 002C5E D70C D048 D048 00000 00000 26468  2          +
 002C64 4100 A918            03208 26477  2          +
 002C68 5000 D04C            00004 26482  2          +
 002C6C 4100 0010            00010 26494  2          +
 002C70 5000 D050            00008 26499  2          +
 002C74 D203 D048 C050 00000 00008 26506  2          +
 002C7A 58F0 A930/0DEF       03220 26509  2          +
 002C80                            26511  2 1790.                  SEGHEX @RJ+1,7                Do the entry
 002C80 D70C D048 D048 00000 00000 26522  2          +
 002C86 4100 4001            00001 26535  2          +
 002C8A 5000 D04C            00004 26540  2          +
 002C8E 4100 0007            00007 26552  2          +
 002C92 5000 D050            00008 26557  2          +
 002C96 D203 D048 C050 00000 00008 26564  2          +
 002C9C 58F0 A934/0DEF       03224 26567  2          +
 002CA2                            26569  2 1791.                  SEGEOR ,
 002CA2 D70C D048 D048 00000 00000 26581  2          +
 002CA8 D703 D050 D050 00008 00008 26589  2          +
 002CAE D203 D048 C050 00000 00008 26596  2          +
 002CB4 9610 D054      0000C       26602  2          +
 002CB8 58F0 A930/0DEF       03220 26605  2          +
 002CBE 4140 4008            00008 26607  2 1792.                  LA    RJ,@RJ+8                8 byte entry
 002CC2 47F0 A0E0            029D0 26608  2 1793.                  NEXT  TRCLOOP
 002CC6                            26611  1 1794.                END   ,
1GSTINTF  (GSTI00) (09:40) (22MAR04) IHAPSAE  - PSA Extension (ESAME)                                                       Page  100
0Current Usings:  (CPUB,R6) (DUMPTRC,R10) (DGVMPARM-72,R12) (@SEG-72,R13)
0Loc    Object Code    Addr1 Addr2  Stmt Lv Lineno    Source Statement           (Hibal 5, Asmedit 3.3)  HLASM R4.0  2004/03/22 09.40
+___    ______ ____    _____ _____  ____ __ ______    ______ _________
0                                  26616  1 1796.     *
                                   26617  1 1797.     * Explicit trace
                                   26618  1 1798.     *
 002CC6 1F11/4310 4000       00000 26619  1 1799.                LC    RS,@RJ                  Get the first byte
 002CCC 8810 0004            00004 26626  1 1800.                SRL   RS,4                    Get just the type
 002CD0 5910 A954            03244 26627  1 1801.                IF    (RS,EQ,7),BEGIN
 002CD4 4770 A6DE            02FCE 26639  1          +
 002CD8 1277/4780 A40C       02CFC 26644  2 1802.                  IF    (RY,NZ),BEGIN           Manage any left over brs
 002CDE                            26658  3 1803.                    SEGEOR
 002CDE D70C D048 D048 00000 00000 26670  3          +
 002CE4 D703 D050 D050 00008 00008 26678  3          +
 002CEA D203 D048 C050 00000 00008 26685  3          +
 002CF0 9610 D054      0000C       26691  3          +
 002CF4 58F0 A930/0DEF       03220 26694  3          +
 002CFA 1B77                       26696  3 1804.                    CLEAR RY
 002CFC                            26700  2 1805.                  END   ,
 002CFC 1F77/4370 4000       00000 26704  2 1806.                  LC    RY,@RJ                  Get the type/count
 002D02 5470 A958            03248 26711  2 1807.                  N     RY,=X'0000000F'         Isolate the count
 002D06 4170 7001            00001 26712  2 1808.                  LA    RY,@RY+1                Actual count
 002D0A                            26713  2 1809.                  SEG   'TRACE -- '             Trace type
 002D0A D70C D048 D048 00000 00000 26724  2          +
 002D10 4100 A996            03286 26733  2          +
 002D14 5000 D04C            00004 26738  2          +
 002D18 4100 0009            00009 26750  2          +
 002D1C 5000 D050            00008 26755  2          +
 002D20 D203 D048 C050 00000 00008 26762  2          +
 002D26 58F0 A930/0DEF       03220 26765  2          +
 002D2C 5820 4008            00008 26767  2 1810.                  L     RA,@RJ+8                Get trace parameter
 002D30 5920 A95C            0324C 26768  2 1811.                  IF    (RA,GE,=A(4096)),BEGIN  New style trace parm
 002D34 4750 A522            02E12 26779  2          +
 DROP   @SEG-72,R13                26784  3 1812.                    PSET  GVAPARM
 USING  GVAPARM-72,R13
 002D38 D70B D048 D048 00000 00000 26804  3          +
 002D3E 5060 D048            00000 26805  3 1813.                    PMOV  GVACPUB,LA:CPUB
 002D42 5020 D04C            00004 26816  3 1814.                    PMOV  GVAVLOC,(RA)
 002D46 58F0 A94C/0DEF       0323C 26826  3 1815.                    ACALL GVA
 002D4C D203 C068 D050 00010 00008 26833  3 1816.                    MVC   DGTRLOC,GVAMLOC
 002D52 5900 A950            03240 26834  3 1817.                    IF    (RVR,LE,4),BEGIN        Memory is OK
 002D56 4730 A4FC            02DEC 26846  3          +
                                   26851  4 1818.                      REGCH (RA,R2)
 002D5A B20B 0000                  26852  4 1819.                      MODESET EXTKEY=ZERO,SAVEKEY=(2)  get into key zero
 002D5E B20A 0000      00000       26855  4          +
 002D62 5830 C068            00010 26856  4 1820.                      L     RB,DGTRLOC              Source address - GUEST
 002D66 4130 300A            0000A 26857  4 1821.                      LA    RB,@RB+10                 alpha ID is 10 past start
 002D6A D207 C058 3000 00000 00000 26858  4 1822.                      MVC   DGTRNAM,@RB
 002D70 5830 C068            00010 26859  4 1823.                      L     RB,DGTRLOC
 002D74 4130 3004            00004 26860  4 1824.                      LA    RB,@RB+4                  trace number
 002D78 5830 3000            00000 26861  4 1825.                      L     RB,@RB
 002D7C B20A 2000      00000       26862  4 1826.                      MODESET KEYADDR=(2)
 DROP   GVAPARM-72,R13             26865  4 1827.                      SEGB  DGTRNAM                 Trace id
 USING  @SEG-72,R13
 002D80 D70C D048 D048 00000 00000 26887  4          +
 002D86 4100 C058            00000 26900  4          +
 002D8A 5000 D04C            00004 26905  4          +
1GSTINTF  (GSTI00) (09:40) (22MAR04) IHAPSAE  - PSA Extension (ESAME)                                                       Page  101
0Current Usings:  (CPUB,R6) (DUMPTRC,R10) (DGVMPARM-72,R12) (@SEG-72,R13)
0Loc    Object Code    Addr1 Addr2  Stmt Lv Lineno    Source Statement           (Hibal 5, Asmedit 3.3)  HLASM R4.0  2004/03/22 09.40
+___    ______ ____    _____ _____  ____ __ ______    ______ _________
0002D8E 4100 0008            00008 26917  4          +
 002D92 5000 D050            00008 26922  4          +
 002D96 D203 D048 C050 00000 00008 26929  4          +
 002D9C 9680 D054      0000C       26935  4          +
 002DA0 58F0 A930/0DEF       03220 26938  4          +
 DROP   @SEG-72,R13                26940  4 1828.                      BTD   (RB),DGTRNAM,5
 USING  @BTD-72,R13
 002DA6 D70C D048 D048 00000 00000 26961  4          +
 002DAC 5030 D048            00000 26971  4          +
 002DB0 4100 C058            00000 26984  4          +
 002DB4 5000 D04C            00004 26989  4          +
 002DB8 4100 0005            00005 27001  4          +
 002DBC 5000 D050            00008 27006  4          +
 002DC0 58F0 A960/0DEF       03250 27009  4          +
 DROP   @BTD-72,R13                27011  4 1829.                      SEGB  DGTRNAM,5               Trace number
 USING  @SEG-72,R13
 002DC6 D70C D048 D048 00000 00000 27033  4          +
 002DCC 4100 C058            00000 27046  4          +
 002DD0 5000 D04C            00004 27051  4          +
 002DD4 4100 0005            00005 27063  4          +
 002DD8 5000 D050            00008 27068  4          +
 002DDC D203 D048 C050 00000 00008 27075  4          +
 002DE2 9680 D054      0000C       27081  4          +
 002DE6 58F0 A930/0DEF       03220 27084  4          +
                                   27086  4 1830.
 002DEC                            27087  3 1831.                    END   ,                       OF Memory is OK
 002DEC A500           02DEC 02D58 27091  3 1832.                    ELSE  BEGIN                   Memory isn't OK
 002DEC 47F0 A522            02E12 27096  3          +
 002DF0                            27102  4 1833.                      SEG   'Trace parameter not accessible'
 002DF0 D70C D048 D048 00000 00000 27113  4          +
 002DF6 4100 A972            03262 27122  4          +
 002DFA 5000 D04C            00004 27127  4          +
 002DFE 4100 001E            0001E 27139  4          +
 002E02 5000 D050            00008 27144  4          +
 002E06 D203 D048 C050 00000 00008 27151  4          +
 002E0C 58F0 A930/0DEF       03220 27154  4          +
 002E12                            27156  3 1834.                    END   ,                       Memory isn't OK
 002E12                            27160  2 1835.                  END   ,                       OF New style trace parm
 002E12 A526           02E12 02D36 27164  2 1836.                  ELSE  BEGIN                   Old style trace parm
 002E12 47F0 A5D4            02EC4 27169  2          +
 DROP   @SEG-72,R13                27175  3 1837.                    BTD   @RJ+8,DGTRNAM,5         Convert the value
 USING  @BTD-72,R13
 002E16 D70C D048 D048 00000 00000 27196  3          +
 002E1C D203 D048 4008 00000 00008 27201  3          +
 002E22 4100 C058            00000 27214  3          +
 002E26 5000 D04C            00004 27219  3          +
 002E2A 4100 0005            00005 27231  3          +
 002E2E 5000 D050            00008 27236  3          +
 002E32 58F0 A960/0DEF       03250 27239  3          +
 DROP   @BTD-72,R13                27241  3 1838.                    SEGB  DGTRNAM,5               Seg that out
 USING  @SEG-72,R13
 002E38 D70C D048 D048 00000 00000 27263  3          +
 002E3E 4100 C058            00000 27276  3          +
 002E42 5000 D04C            00004 27281  3          +
1GSTINTF  (GSTI00) (09:40) (22MAR04) IHAPSAE  - PSA Extension (ESAME)                                                       Page  102
0Current Usings:  (CPUB,R6) (DUMPTRC,R10) (DGVMPARM-72,R12) (@SEG-72,R13)
0Loc    Object Code    Addr1 Addr2  Stmt Lv Lineno    Source Statement           (Hibal 5, Asmedit 3.3)  HLASM R4.0  2004/03/22 09.40
+___    ______ ____    _____ _____  ____ __ ______    ______ _________
0002E46 4100 0005            00005 27293  3          +
 002E4A 5000 D050            00008 27298  3          +
 002E4E D203 D048 C050 00000 00008 27305  3          +
 002E54 9680 D054      0000C       27311  3          +
 002E58 58F0 A930/0DEF       03220 27314  3          +
 002E5E                            27316  3 1839.                    SEG   '('
 002E5E D70C D048 D048 00000 00000 27327  3          +
 002E64 4100 A99F            0328F 27336  3          +
 002E68 5000 D04C            00004 27341  3          +
 002E6C 4100 0001            00001 27353  3          +
 002E70 5000 D050            00008 27358  3          +
 002E74 D203 D048 C050 00000 00008 27365  3          +
 002E7A 58F0 A930/0DEF       03220 27368  3          +
 002E80                            27370  3 1840.                    SEGHEX @RJ+8,4                Put it out in hex too
 002E80 D70C D048 D048 00000 00000 27381  3          +
 002E86 4100 4008            00008 27394  3          +
 002E8A 5000 D04C            00004 27399  3          +
 002E8E 4100 0004            00004 27411  3          +
 002E92 5000 D050            00008 27416  3          +
 002E96 D203 D048 C050 00000 00008 27423  3          +
 002E9C 58F0 A934/0DEF       03224 27426  3          +
 002EA2                            27428  3 1841.                    SEG   ')'
 002EA2 D70C D048 D048 00000 00000 27439  3          +
 002EA8 4100 A9A0            03290 27448  3          +
 002EAC 5000 D04C            00004 27453  3          +
 002EB0 4100 0001            00001 27465  3          +
 002EB4 5000 D050            00008 27470  3          +
 002EB8 D203 D048 C050 00000 00008 27477  3          +
 002EBE 58F0 A930/0DEF       03220 27480  3          +
 002EC4                            27482  2 1842.                  END   ,                       OF Old style trace parm
 002EC4                            27486  2 1843.                  SEG   '    TOD='
 002EC4 D70C D048 D048 00000 00000 27497  2          +
 002ECA 4100 A928            03218 27506  2          +
 002ECE 5000 D04C            00004 27511  2          +
 002ED2 4100 0008            00008 27523  2          +
 002ED6 5000 D050            00008 27528  2          +
 002EDA D203 D048 C050 00000 00008 27535  2          +
 002EE0 58F0 A930/0DEF       03220 27538  2          +
 002EE6 D205 C062 4002 0000A 00002 27540  2 1844.                  MVC   DGTRCLK+2(6),@RJ+2      Update the clock
 002EEC                            27541  2 1845.                  SEGHEX DGTRCLK                Put it out
 002EEC D70C D048 D048 00000 00000 27552  2          +
 002EF2 4100 C060            00008 27565  2          +
 002EF6 5000 D04C            00004 27570  2          +
 002EFA 4100 0008            00008 27582  2          +
 002EFE 5000 D050            00008 27587  2          +
 002F02 D203 D048 C050 00000 00008 27594  2          +
 002F08 58F0 A934/0DEF       03224 27597  2          +
 002F0E 4140 400C            0000C 27599  2 1846.                  LA    RJ,@RJ+12               Get past the preliminaries
                                   27600  2 1847.     *
                                   27601  2 1848.     * Do the REGs
                                   27602  2 1849.     *
 002F12 4130 0004            00004 27603  2 1850.                  LA    RB,4                    Pre load it
 002F16                            27604  2 1851.                  LOOP  BEGIN
 002F16 5930 A950            03240 27610  3 1852.                    IF    (RB,EQ,4),BEGIN
1GSTINTF  (GSTI00) (09:40) (22MAR04) IHAPSAE  - PSA Extension (ESAME)                                                       Page  103
0Current Usings:  (CPUB,R6) (DUMPTRC,R10) (DGVMPARM-72,R12) (@SEG-72,R13)
0Loc    Object Code    Addr1 Addr2  Stmt Lv Lineno    Source Statement           (Hibal 5, Asmedit 3.3)  HLASM R4.0  2004/03/22 09.40
+___    ______ ____    _____ _____  ____ __ ______    ______ _________
0002F1A 4770 A66E            02F5E 27622  3          +
 002F1E                            27627  4 1853.                      SEGEOR
 002F1E D70C D048 D048 00000 00000 27639  4          +
 002F24 D703 D050 D050 00008 00008 27647  4          +
 002F2A D203 D048 C050 00000 00008 27654  4          +
 002F30 9610 D054      0000C       27660  4          +
 002F34 58F0 A930/0DEF       03220 27663  4          +
 002F3A                            27665  4 1854.                      SEG   '         '
 002F3A D70C D048 D048 00000 00000 27676  4          +
 002F40 4100 A9A1            03291 27685  4          +
 002F44 5000 D04C            00004 27690  4          +
 002F48 4100 0009            00009 27702  4          +
 002F4C 5000 D050            00008 27707  4          +
 002F50 D203 D048 C050 00000 00008 27714  4          +
 002F56 58F0 A930/0DEF       03220 27717  4          +
 002F5C 1B33                       27719  4 1855.                      CLEAR RB
 002F5E                            27723  3 1856.                    END   ,
 002F5E                            27727  3 1857.                    SEGHEX @RJ,4                  Do the register
 002F5E D70C D048 D048 00000 00000 27738  3          +
 002F64 4100 4000            00000 27751  3          +
 002F68 5000 D04C            00004 27756  3          +
 002F6C 4100 0004            00004 27768  3          +
 002F70 5000 D050            00008 27773  3          +
 002F74 D203 D048 C050 00000 00008 27780  3          +
 002F7A 58F0 A934/0DEF       03224 27783  3          +
 002F80                            27785  3 1858.                    SEG   ' '                     One blank
 002F80 D70C D048 D048 00000 00000 27796  3          +
 002F86 4100 A990            03280 27805  3          +
 002F8A 5000 D04C            00004 27810  3          +
 002F8E 4100 0001            00001 27822  3          +
 002F92 5000 D050            00008 27827  3          +
 002F96 D203 D048 C050 00000 00008 27834  3          +
 002F9C 58F0 A930/0DEF       03220 27837  3          +
 002FA2 4140 4004            00004 27839  3 1859.                    LA    RJ,@RJ+4                Account for the register
 002FA6 4130 3001            00001 27840  3 1860.                    LA    RB,@RB+1                Count the entry
 002FAA 4670 A626            02F16 27841  2 1861.                  UNTIL (BCT,RY),END            Do all the entries
 002FAE                            27851  2 1862.                  SEGEOR ,
 002FAE D70C D048 D048 00000 00000 27863  2          +
 002FB4 D703 D050 D050 00008 00008 27871  2          +
 002FBA D203 D048 C050 00000 00008 27878  2          +
 002FC0 9610 D054      0000C       27884  2          +
 002FC4 58F0 A930/0DEF       03220 27887  2          +
 002FCA 47F0 A0E0            029D0 27889  2 1863.                  NEXT  TRCLOOP
 002FCE                            27892  1 1864.                END   ,
1GSTINTF  (GSTI00) (09:40) (22MAR04) IHAPSAE  - PSA Extension (ESAME)                                                       Page  104
0Current Usings:  (CPUB,R6) (DUMPTRC,R10) (DGVMPARM-72,R12) (@SEG-72,R13)
0Loc    Object Code    Addr1 Addr2  Stmt Lv Lineno    Source Statement           (Hibal 5, Asmedit 3.3)  HLASM R4.0  2004/03/22 09.40
+___    ______ ____    _____ _____  ____ __ ______    ______ _________
0                                  27897  1 1866.     *
                                   27898  1 1867.     * Any other types
                                   27899  1 1868.     *
 002FCE                            27900  1 1869.                SEGEOR ,
 002FCE D70C D048 D048 00000 00000 27912  1          +
 002FD4 D703 D050 D050 00008 00008 27920  1          +
 002FDA D203 D048 C050 00000 00008 27927  1          +
 002FE0 9610 D054      0000C       27933  1          +
 002FE4 58F0 A930/0DEF       03220 27936  1          +
 002FEA                            27938  1 1870.                SEG   'UNKNOWN -- '
 002FEA D70C D048 D048 00000 00000 27949  1          +
 002FF0 4100 A9AA            0329A 27958  1          +
 002FF4 5000 D04C            00004 27963  1          +
 002FF8 4100 000B            0000B 27975  1          +
 002FFC 5000 D050            00008 27980  1          +
 003000 D203 D048 C050 00000 00008 27987  1          +
 003006 58F0 A930/0DEF       03220 27990  1          +
 00300C                            27992  1 1871.                SEGHEX @RJ,4
 00300C D70C D048 D048 00000 00000 28003  1          +
 003012 4100 4000            00000 28016  1          +
 003016 5000 D04C            00004 28021  1          +
 00301A 4100 0004            00004 28033  1          +
 00301E 5000 D050            00008 28038  1          +
 003022 D203 D048 C050 00000 00008 28045  1          +
 003028 58F0 A934/0DEF       03224 28048  1          +
 00302E 4140 4004            00004 28050  1 1872.                LA    RJ,@RJ+4
 003032                            28051  1 1873.                SEGEOR ,
 003032 D70C D048 D048 00000 00000 28063  1          +
 003038 D703 D050 D050 00008 00008 28071  1          +
 00303E D203 D048 C050 00000 00008 28078  1          +
 003044 9610 D054      0000C       28084  1          +
 003048 58F0 A930/0DEF       03220 28087  1          +
 00304E 47F0 A0E0            029D0 28089    1874.              END   ,
                                   28094    1875.     *
                                   28095    1876.     * Finish up
                                   28096    1877.     *
 003052                            28097    1878.              SEGEOR
 003052 D70C D048 D048 00000 00000 28109             +
 003058 D703 D050 D050 00008 00008 28117             +
 00305E D203 D048 C050 00000 00008 28124             +
 003064 9610 D054      0000C       28130             +
 003068 58F0 A930/0DEF       03220 28133             +
 00306E                            28135    1879.              SEGEOR
 00306E D70C D048 D048 00000 00000 28147             +
 003074 D703 D050 D050 00008 00008 28155             +
 00307A D203 D048 C050 00000 00008 28162             +
 003080 9610 D054      0000C       28168             +
 003084 58F0 A930/0DEF       03220 28171             +
 00308A                            28173    1880.              SEG   '*** END OF TRACE TABLE *** '
 00308A D70C D048 D048 00000 00000 28184             +
 003090 4100 A9B5            032A5 28193             +
 003094 5000 D04C            00004 28198             +
 003098 4100 001B            0001B 28210             +
 00309C 5000 D050            00008 28215             +
1GSTINTF  (GSTI00) (09:40) (22MAR04) IHAPSAE  - PSA Extension (ESAME)                                                       Page  105
0Current Usings:  (CPUB,R6) (DUMPTRC,R10) (DGVMPARM-72,R12) (@SEG-72,R13)
0Loc    Object Code    Addr1 Addr2  Stmt Lv Lineno    Source Statement           (Hibal 5, Asmedit 3.3)  HLASM R4.0  2004/03/22 09.40
+___    ______ ____    _____ _____  ____ __ ______    ______ _________
00030A0 D203 D048 C050 00000 00008 28222             +
 0030A6 58F0 A930/0DEF       03220 28225             +
 0030AC                            28227    1881.              SEGEOB
 0030AC D70C D048 D048 00000 00000 28239             +
 0030B2 D703 D050 D050 00008 00008 28247             +
 0030B8 D203 D048 C050 00000 00008 28254             +
 0030BE 9608 D054      0000C       28260             +
 0030C2 58F0 A930/0DEF       03220 28263             +
 0030C8 981F C008            00008 28265    1882.              PEND  ,
 DROP   CPUB,R6
 DROP   DGVMPARM-72,R12
 DROP   DUMPTRC,R10
 0030CC 9680 C000/0B0E 00000       28285             +
 DROP   @SEG-72,R13
1GSTINTF  (GSTI00) (09:40) (22MAR04) IHAPSAE  - PSA Extension (ESAME)                                                       Page  106
0Loc    Object Code    Addr1 Addr2  Stmt Lv Lineno    Source Statement           (Hibal 5, Asmedit 3.3)  HLASM R4.0  2004/03/22 09.40
+___    ______ ____    _____ _____  ____ __ ______    ______ _________
00030D2                            28295    1884.     TRATAB   DS    0CL256        Scan table
                                   28296    1885.     *                 0 1 2 3 4 5 6 7 8 9 A B C D E F
 0030D2 0101010101010101           28297    1886.              DC    X'01010101010101010101010101010101'  00
 0030E2 0101010101010101           28298    1887.              DC    X'01010101010101010101010101010101'  10
 0030F2 0101010101010101           28299    1888.              DC    X'01010101010101010101010101010101'  20
 003102 0101010101010101           28300    1889.              DC    X'01010101010101010101010101010101'  30
 003112 0001010101010101           28301    1890.              DC    X'00010101010101010101010101010101'  40
 003122 0101010101010101           28302    1891.              DC    X'01010101010101010101010101010101'  50
 003132 0101010101010101           28303    1892.              DC    X'01010101010101010101010101010101'  60
 003142 0101010101010101           28304    1893.              DC    X'01010101010101010101010101010101'  70
 003152 0101010101010101           28305    1894.              DC    X'01010101010101010101010101010101'  80
 003162 0101010101010101           28306    1895.              DC    X'01010101010101010101010101010101'  90
 003172 0101010101010101           28307    1896.              DC    X'01010101010101010101010101010101'  A0
 003182 0101010101010101           28308    1897.              DC    X'01010101010101010101010101010101'  B0
 003192 0100000000000000           28309    1898.              DC    X'01000000000000000000010101010101'  C0
 0031A2 0100000000000000           28310    1899.              DC    X'01000000000000000000010101010101'  D0
 0031B2 0101000000000000           28311    1900.              DC    X'01010000000000000000010101010101'  E0
 0031C2 0000000000000000           28312    1901.              DC    X'00000000000000000000010101010101'  F0
-
 0031D8                            28314    1903.              LTORG
 0031D8 5C5C5C40C3A49999           28316                             =C'*** Current Trace table for CPU '
 0031F8 D799968799819440           28317                             =C'Program Call -- '
 003208 D799968799819440           28318                             =C'Program Tran -- '
 003218 40404040E3D6C47E           28319                             =C'    TOD='
 003220 00000000                   28320                             =V(SEG)
 003224 00000000                   28321                             =V(SEGHEX)
 003228 405C5C5C                   28322                             =C' ***'
 00322C 7FFFFFFC                   28323                             =X'7FFFFFFC'
 003230 7FFFF000                   28324                             =X'7FFFF000'
 003234 00000FFF                   28325                             =A(4095)
 003238 00000008                   28326                             =A(8)
 00323C 00005180                   28327                             =A(GVA)
 003240 00000004                   28328                             =A(4)
 003244 00000007                   28329                             =A(7)
 003248 0000000F                   28330                             =X'0000000F'
 00324C 00001000                   28331                             =A(4096)
 003250 00000000                   28332                             =V(BTDBTD)
 003254 C2D940606040               28333                             =C'BR -- '
 00325A 404040404040               28334                             =C'      '
 003260 000C                       28335                             =H'12'
 003262 E399818385409781           28336                             =C'Trace parameter not accessible'
 003280 40                         28337                             =C' '
 003281 E2E2C1D540                 28338                             =C'SSAN '
 003286 E3D9C1C3C5406060           28339                             =C'TRACE -- '
 00328F 4D                         28340                             =C'('
 003290 5D                         28341                             =C')'
 003291 4040404040404040           28342                             =C'         '
 00329A E4D5D2D5D6E6D540           28343                             =C'UNKNOWN -- '
 0032A5 5C5C5C40C5D5C440           28344                             =C'*** END OF TRACE TABLE *** '
1GSTINTF  (GSTI00) (09:40) (22MAR04) IHAPSAE  - PSA Extension (ESAME)                                                       Page  107
0Loc    Object Code    Addr1 Addr2  Stmt Lv Lineno    Source Statement           (Hibal 5, Asmedit 3.3)  HLASM R4.0  2004/03/22 09.40
+___    ______ ____    _____ _____  ____ __ ______    ______ _________
0                                  28349    1905.     *******************************************************************
                                   28350    1906.     *                                                                 *
                                   28351    1907.     *   GSTIIOT - This routine is called asyncronously when an I/O    *
                                   28352    1908.     *             request has finished.                               *
                                   28353    1909.     *                                                                 *
                                   28354    1910.     *     Input - @GSTIIOT                                            *
                                   28355    1911.     *                                                                 *
                                   28356    1912.     *    Output - None                                                *
                                   28357    1913.     *                                                                 *
                                   28358    1914.     *******************************************************************
-0032C0                            28360    1916.     GSTIIOT  PROC  @GSTIIOT,SCOPE=GLOBAL
 0032C0 C7E2E3C9C9D6E340           28366             +
 0032C8 0008/0000                  28367             +
 0032CC 900F D004/18AF       00004 28369             +
 USING  GSTIIOT,R10
 0032D2 50D0 C000/18CD       00000 28384             +
 0032D8 9680 C000      00000       28386             +
 USING  @GSTIIOT-72,R12
 0032DC 41D0 C050            00050 28400             +
 0032E0 5860 C048            00000 28401    1917.              L     RX,@GSTIRQI
 USING  IOCB,R6                    28402    1918.              WITH  (IOCB,RX)
 0032E4 D203 601C C04C 0001C 00004 28415    1919.              MVC   IOCBSTAT,@GSTICS        Save the status code
 0032EA 9200 6020      00020       28416    1920.              MVI   IOCBHSP,0       Clear flag HSPCETSK is waiting for
                                   28417    1921.     *
                                   28418    1922.     * Put this request on the I/O complete queue
                                   28419    1923.     *
 0032EE 5870 6008            00008 28420    1924.              L     RY,IOCBGSTC             Get the GSTCT address
 USING  GSTCT,R7                   28421    1925.              WITH  (GSTCT,RY)
 0032F2 9823 7030            00030 28434    1926.              LM    RA,RB,GSTCIOIQ          Get the current queue ptrs
 0032F6 1846                       28435    1927.              LR    RJ,RX                   Get the new IOCB address
 0032F8                            28436    1928.              LOOP  BEGIN
 0032F8 4150 0001            00001 28442  1 1929.                LA    RK,1
 0032FC 1A53                       28443  1 1930.                AR    RK,RB
 0032FE 5020 6004            00004 28444  1 1931.                ST    RA,IOCBNEXT
 003302 BB24 7030            00030 28445  1 1932.                CDS   RA,RJ,GSTCIOIQ          Put this one on
 003306 4770 A02C            032F8 28446    1933.              UNTIL Z,END
                                   28465    1934.     *
                                   28466    1935.     * Now signal all the CPU's in the configuration that an I/O is
                                   28467    1936.     * ready
                                   28468    1937.     *
 00330A 5840 7004            00004 28469    1938.              L     RJ,GSTCNCPU             Get the count of CPU's
 00330E 4150 7038            00038 28470    1939.              LA    RK,GSTCCPUS             And the location of addrs
 003312 5820 5000            00000 28471    1940.     IOILP    L     RA,@RK                  Get a CPUB address
 USING  CPUB,R2                    28472    1941.              WITH  (CPUB,RA),BEGIN
 003316 58F0 2100            00100 28486  1 1942.                SET   SIEIPVIO,MODE=LOCKED,REF=SIEDATA  Turn on the bit
 00331A 4110 0002            00002 28493  1          +
 00331E 8910 0018/180F       00018 28494  1          +
 003324 1601/BAF0 2100       00100 28496  1          +
 00332A 4770 A056            03322 28499  1          +
 USING  @FPOST-72,R13              28500  1 1943.                FPOST CPECB                   Wake it up if it's asleep
 00332E D703 D048 D048 00000 00000 28518  1          +
 003334 41E0 205C            0005C 28525  1          +
 003338 50E0 D048            00000 28526  1          +
 00333C 58F0 ACFC/0DEF       03FC8 28529  1          +
1GSTINTF  (GSTI00) (09:40) (22MAR04) IHAPSAE  - PSA Extension (ESAME)                                                       Page  108
0Current Usings:  (IOCB,R6) (GSTCT,R7) (GSTIIOT,R10) (@GSTIIOT-72,R12) (@FPOST-72,R13)
0Loc    Object Code    Addr1 Addr2  Stmt Lv Lineno    Source Statement           (Hibal 5, Asmedit 3.3)  HLASM R4.0  2004/03/22 09.40
+___    ______ ____    _____ _____  ____ __ ______    ______ _________
0DROP   CPUB,R2                    28531    1944.              END   ,
 003342 4150 5004            00004 28539    1945.              LA    RK,@RK+4                Point at next CPUB address
 003346 4640 A046            03312 28540    1946.              BCT   RJ,IOILP                Then continue
 00334A 981F C008            00008 28541    1947.              PEND                          Return
 DROP   GSTCT,R7
 DROP   IOCB,R6
 DROP   @GSTIIOT-72,R12
 DROP   GSTIIOT,R10
 00334E 9680 C000/0B0E 00000       28566             +
 DROP   @FPOST-72,R13
1GSTINTF  (GSTI00) (09:40) (22MAR04) IHAPSAE  - PSA Extension (ESAME)                                                       Page  109
0Loc    Object Code    Addr1 Addr2  Stmt Lv Lineno    Source Statement           (Hibal 5, Asmedit 3.3)  HLASM R4.0  2004/03/22 09.40
+___    ______ ____    _____ _____  ____ __ ______    ______ _________
0                                  28576    1949.     *******************************************************************
                                   28577    1950.     *                                                                 *
                                   28578    1951.     *    CPUTASK - Subtask that actually runs the user.               *
                                   28579    1952.     *                                                                 *
                                   28580    1953.     *                                                                 *
                                   28581    1954.     *      Input - @SBTPARM  -- contains the address of his CPUB      *
                                   28582    1955.     *                                                                 *
                                   28583    1956.     *     Output - none                                               *
                                   28584    1957.     *                                                                 *
                                   28585    1958.     *******************************************************************
-003354                            28587    1960.     CPUTASK  PROC  SBTPARM,SCOPE=LOCAL
 003354 C3D7E4E3C1E2D240           28592             +
 00335C 0008/0000                  28593             +
 003360 900F D004/18AF       00004 28595             +
 USING  CPUTASK,R10
 003366 50D0 C000/18CD       00000 28610             +
 00336C 9680 C000      00000       28612             +
 USING  SBTPARM-72,R12
 003370 41D0 C050            00050 28626             +
 003374 5870 C048            00000 28627    1961.              L     RY,SBTDATA              Parm is the CPUB pointer
 USING  CPUB,R7                    28628    1962.              WITH  (CPUB,RY)
                                   28641    1963.     *
                                   28642    1964.     * Initialize the Host I/O services
                                   28643    1965.     *
 003378 58F0 AC6C/0DEF       03FCC 28644    1966.              VCALL IOSTINIT                Initialize this task (CPU)
                                   28648    1967.     *
                                   28649    1968.     * Initialize the CPU timer
                                   28650    1969.     *
 00337E 58F0 AC70/0DEF       03FD0 28651    1970.              VCALL CPTSTART
                                   28655    1971.     *
                                   28656    1972.     * Make sure the prefix page of this CPU is fixed.
                                   28657    1973.     *
 USING  @FIXPARM-72,R13            28658    1974.              PSET  @FIXPARM
 003384 D708 D048 D048 00000 00000 28675             +
 00338A D203 D048 7070 00000 00070 28676    1975.              MVC   @FIXLOC,CPPSALOC
 003390 D203 D04C AC74 00004 03FD4 28677    1976.              MVC   @FIXLEN,=A(4096)
 003396 58F0 AC78/0DEF       03FD8 28678    1977.              VCALL PAGEFIX                 Fix the PSA page
 00339C 4100 7000            00000 28682    1978.              LA    R0,CPUB
 0033A0 58F0 AC7C/0DEF       03FDC 28683    1979.              ACALL SETCLOC2                Set local time
                                   28690    1980.     *
                                   28691    1981.     * Initialize real-time timing function
                                   28692    1982.     *
 0033A6 5070 70B0            000B0 28693    1983.              ST    RY,CPSTPARM             Our parm is the CPUB address
 DROP   @FIXPARM-72,R13            28694    1984.              POOLGET 1024,TYPE=(LOCAL)     Get memory for timer stack
 USING  @MEMORY-72,R13
 0033AA D70B D048 D048 00000 00000 28715             +
 0033B0 4100 0400            00400 28723             +
 0033B4 5000 D04C            00004 28724             +
 0033B8 9210 D04A      00002       28731             +
 0033BC 58F0 AC80/0DEF       03FE0 28734             +
 0033C2 5000 70B4            000B4 28736    1985.              ST    RVR,CPSTSTK             Save the address
 0033C6 5090 70B8            000B8 28737    1986.              ST    RTCBR,CPSTRTCB          Save the RTCB address too
 0033CA 5850 7004            00004 28738    1987.              L     RK,CPGSTCT              Get the GSTC address
 USING  GSTCT,R5                   28739    1988.              WITH  (GSTCT,RK)
1GSTINTF  (GSTI00) (09:40) (22MAR04) IHAPSAE  - PSA Extension (ESAME)                                                       Page  110
0Current Usings:  (GSTCT,R5) (CPUB,R7) (CPUTASK,R10) (SBTPARM-72,R12) (@MEMORY-72,R13)
0Loc    Object Code    Addr1 Addr2  Stmt Lv Lineno    Source Statement           (Hibal 5, Asmedit 3.3)  HLASM R4.0  2004/03/22 09.40
+___    ______ ____    _____ _____  ____ __ ______    ______ _________
0                                  28752    1989.     *
                                   28753    1990.     *  If profiling is active or this is CPU 0 then start the clock
                                   28754    1991.     *
 0033CE 9180 5090      00090       28755    1992.              IF    (GSTCPON,OR,('OC  CPCPUA+2(2),CPCPUA+2',Z)),BEGIN
 0033D2 4710 A080            033E0 28769             +
 0033D6 D601 7066 7066 00066 00066 28776             +
 0033DC 4770 A0BE            0341E 28777             +
                                   28782  1 1993.   C            STIMERM SET,ID=CPSTIMID,PARM=CPSTPARM,EXIT=TXIT,
 0033E0 4110 7094            00094        1 1994.                      MICVL=GSTCPINT,MF=(E,CPSTIMER)
 0033E4 D717 1000 1000 00000 00000 28786  1          +
 0033EA 9223 1000      00000       28787  1          +
 0033EE 9201 1003      00003       28788  1          +
 0033F2 41F0 70AC            000AC 28789  1          +
 0033F6 50F0 1004            00004 28790  1          +
 0033FA 41F0 5088            00088 28791  1          +
 0033FE 50F0 1008            00008 28792  1          +
 003402 41F0 AD48            040A8 28793  1          +
 003406 50F0 100C            0000C 28794  1          +
 00340A 41F0 70B0            000B0 28795  1          +
 00340E D203 1010 F000 00010 00000 28796  1          +
 003414 4100 0004            00004 28797  1          +
 003418 8900 0018/0A2F       00018 28798  1          +
 00341E                            28800    1995.              END
1GSTINTF  (GSTI00) (09:40) (22MAR04) IHAPSAE  - PSA Extension (ESAME)                                                       Page  111
0Current Usings:  (GSTCT,R5) (CPUB,R7) (CPUTASK,R10) (SBTPARM-72,R12) (@MEMORY-72,R13)
0Loc    Object Code    Addr1 Addr2  Stmt Lv Lineno    Source Statement           (Hibal 5, Asmedit 3.3)  HLASM R4.0  2004/03/22 09.40
+___    ______ ____    _____ _____  ____ __ ______    ______ _________
000341E 9180 7060      00060       28805    1997.     STOPPED  WHILE ~CPCSRUN,BEGIN
 003422 4710 A0DE            0343E 28818             +
 DROP   @MEMORY-72,R13             28823  1 1998.                FWAIT LA:CPECB                Wait until we are started
 USING  @FWAIT-72,R13
 003426 D703 D048 D048 00000 00000 28844  1          +
 00342C 41E0 705C            0005C 28848  1          +
 003430 50E0 D048            00000 28849  1          +
 003434 58F0 AC84/0DEF       03FE4 28852  1          +
 00343A 47F0 A0BE            0341E 28854    1999.              END   ,
                                   28859    2000.     *
                                   28860    2001.     * Check for restart SIGP order
                                   28861    2002.     *
 00343E 5820 7088/1222       00088 28862    2003.              LT    RA,CPRSTRT              CPU addr of guy restarting us
 003444 4780 A110            03470 28866    2004.              IF    NZ,BEGIN
 003448 5810 7070/1802       00070 28877  1 2005.                RSINT                         Set up the restart interrupt
 USING  PZERO,R1
 00344E B20B 0000                  28897  2          +
 003452 B20A 0000/18F2 00000       28898  2          +
 003458 1820                       28900  2          +
 00345A D207 1008 7118 00008 00118 28901  2          +
 003460 D207 7118 1000 00118 00000 28902  2          +
 003466 B20A F000      00000       28905  1          +
 DROP   PZERO,R1
 00346A 1B11                       28914  1 2006.                CLEAR RS
 00346C 5010 7088            00088 28918  1 2007.                ST    RS,CPRSTRT              Clear out the order
 003470                            28919    2008.              END   ,
                                   28923    2009.     *
                                   28924    2010.     *  Update the CPU time accumulator and start the guest
                                   28925    2011.     *
 003470                            28926    2012.     RUNNING  LABEL ,
                                   28928    2013.              AGO   .NOCPT1
                                   28929    2021.     .NOCPT1  ANOP  ,
 003470                            28930    2022.              BEGIN
 003470 900F 701C            0001C 28934  1 2023.                STM   R0,R15,CPGRSAVE         Save our registers
 003474 18F7                       28935  1 2024.                LR    R15,RY                  Save pointer to CPUB
 USING  CPUB,R15                   28936  1 2025.                WITH  (CPUB,R15)
 003476 58E0 F00C            0000C 28949  1 2026.                L     R14,CPSIERA             Real address of the SIE BLOCK
 00347A 980D F0BC            000BC 28950  1 2027.                LM    R0,R13,CPCREGS          Get Guest Registers
 00347E 9200 F150      00150       28951  1 2028.                MVI   SIEICODE,0              Clear the ICODE
 003482 B214 E000      00000       28952  1 2029.                SIE   @R14                    Run the Guest machine
 003486 900D F0BC            000BC 28953  1 2030.                STM   R0,R13,CPCREGS          Save Guest Registers
                                   28954  1 2031.
                                   28955  1 2032.                  Very temporary failure checking!!!   (1/22/92)
                                   28956  1 2033.
 00348A 0D80                       28957  1 2034.                BASR  R8,0
 USING  *,R8                       28958  1 2035.                WITH  (*,R8),BEGIN
 00348C 5810 0010            00010 28973  2 2036.                  L     R1,CVTPTR
 003490                            28974  2 2037.                  IF    (NIZCVTP,EQ,=F'-1'),BEGIN  First time initialization...
 003490 D503 8B5C 8054 03FE8 034E0 28985  2          +
 003496 4770 8016            034A2 28986  2          +
 00349A 5010 8054            034E0 28991  3 2038.                    ST    R1,NIZCVTP          Remember CVT ptr
 00349E 47F0 8430            038BC 28992  3 2039.                    B     NIZCONT             (No checking the first time)
 0034A2                            28993  2 2040.                  END
                                   28997  2 2041.
1GSTINTF  (GSTI00) (09:40) (22MAR04) IHAPSAE  - PSA Extension (ESAME)                                                       Page  112
0Current Usings:  (GSTCT,R5) (CPUB,R7) (*,R8) (CPUTASK,R10) (SBTPARM-72,R12) (@FWAIT-72,R13) (CPUB,R15)
0Loc    Object Code    Addr1 Addr2  Stmt Lv Lineno    Source Statement           (Hibal 5, Asmedit 3.3)  HLASM R4.0  2004/03/22 09.40
+___    ______ ____    _____ _____  ____ __ ______    ______ _________
00034A2 4150 0001            00001 28998  2 2042.                  LA    R5,1                Failure case 1
 0034A6 5910 8054            034E0 28999  2 2043.                  IF    (R1,NE,NIZCVTP),NIZFAIL  Failed
 0034AA 4770 836C            037F8 29013  2          +
                                   29019  2 2044.
 0034AE 4150 0002            00002 29020  2 2045.                  LA    R5,2                Failure case 2
 0034B2 1821                       29021  2 2046.                  LR    R2,R1
 0034B4 4B20 8BA4            04030 29022  2 2047.                  SH    R2,=AL2(X'40')      CVT prefix
 0034B8                            29023  2 2048.                  IF    (@R2,NE,NIZCVTID),NIZFAIL  Failed also
 0034B8 D506 8058 2000 034E4 00000 29034  2          +
 0034BE 4770 836C            037F8 29037  2          +
                                   29043  2 2049.
 0034C2 4150 0003            00003 29044  2 2050.                  LA    R5,3                Failure case 3
 0034C6 5820 10CC            000CC 29045  2 2051.                  L     R2,CVTUSER-CVT(,R1)  User CVT
 0034CA                            29046  2 2052.                  IF    (@R2,NE,'SCIP'),NIZFAIL
 0034CA D503 8B60 2000 03FEC 00000 29056  2          +
 0034D0 4770 836C            037F8 29059  2          +
                                   29065  2 2053.
 0034D4 47F0 8430            038BC 29066  2 2054.                  B     NIZCONT
                                   29067  2 2055.
 0034D8                            29068  2 2056.                  DC    0D'0'
 0034D8 D5C9E9E3D9C1C3C5           29069  2 2057.                  DC    C'NIZTRACE'         Our eyecatcher
 0034E0 FFFFFFFF                   29070  2 2058.     NIZCVTP      DC    F'-1'               Saved CVT ptr
 0034E4 C9C5C1E5C3E5E3             29071  2 2059.     NIZCVTID     DC    C'IEAVCVT'          Eyecatcher in CVT prefix
 0034EB 0000000000                        2
 0034F0 0000000000000000           29072  2 2060.     NIZSTCK      DC    D'0'                Store clock
 0034F8                            29073  2 2061.     NIZLOWC      DS    XL768               Low memory
                                   29074  2 2062.
                                   29075  2 2063.                    A failure occurred, try PTLB and then cautiously
                                   29076  2 2064.                      try to increment counter in SCIPCVT.
                                   29077  2 2065.
 0037F8 D2FF 806C 0000 034F8 00000 29078  2 2066.     NIZFAIL      MVC   NIZLOWC(256),0
 0037FE D2FF 816C 0100 035F8 00100 29079  2 2067.                  MVC   NIZLOWC+256(256),256
 003804 D2FF 826C 0200 036F8 00200 29080  2 2068.                  MVC   NIZLOWC+512(256),512
 00380A B205 8064      034F0       29081  2 2069.                  STCK  NIZSTCK             Do a STCK for physical cpu id
                                   29082  2 2070.
 00380E B20D 0000                  29083  2 2071.                  PTLB  ,
                                   29084  2 2072.
 003812 5810 0010            00010 29085  2 2073.                  L     R1,CVTPTR
 003816 5820 8054            034E0 29086  2 2074.                  L     R2,NIZCVTP
 00381A 1912/4780 839A       03826 29087  2 2075.                  IF    (R1,NE,R2),'LA R6,1; DC H"0"'  Forget it
 003820 4160 0001/0000       00001 29103  2          +
 003826 1821                       29109  2 2076.                  LR    R2,R1
 003828 4B20 8BA4            04030 29110  2 2077.                  SH    R2,=AL2(X'40')
 00382C                            29111  2 2078.                  IF    (@R2,NE,NIZCVTID),'LA R6,2; DC H"0"'  Sorry
 00382C D506 8058 2000 034E4 00000 29122  2          +
 003832 4780 83B0            0383C 29123  2          +
 003836 4160 0002/0000       00002 29129  2          +
 00383C 58B0 10CC            000CC 29135  2 2079.                  L     R11,CVTUSER-CVT(,R1)   User CVT
 003840                            29136  2 2080.                  IF    (@R11,NE,'SCIP'),'LA R6,3; DC H"0"'
 003840 D503 8B60 B000 03FEC 00000 29146  2          +
 003846 4780 83C4            03850 29147  2          +
 00384A 4160 0003/0000       00003 29153  2          +
 USING  USERCVT,R11                29159  2 2081.                  WITH  (USERCVT,R11),BEGIN
 003850 B20B 0000                  29173  3 2082.                    MODESET EXTKEY=ZERO,SAVEKEY=(2)  Key zero
1GSTINTF  (GSTI00) (09:40) (22MAR04) IHAPSAE  - PSA Extension (ESAME)                                                       Page  113
0Current Usings:  (GSTCT,R5) (CPUB,R7) (*,R8) (CPUTASK,R10) (USERCVT,R11) (SBTPARM-72,R12) (@FWAIT-72,R13) (CPUB,R15)
0Loc    Object Code    Addr1 Addr2  Stmt Lv Lineno    Source Statement           (Hibal 5, Asmedit 3.3)  HLASM R4.0  2004/03/22 09.40
+___    ______ ____    _____ _____  ____ __ ______    ______ _________
0003854 B20A 0000      00000       29176  3          +
 003858 4130 0001            00001 29177  3 2083.                    INCR  R3,USENIZH1         Count the failure
 00385C 4A30 B03C            0003C 29181  3          +
 003860 4030 B03C            0003C 29182  3          +
 003864 4050 B03E            0003E 29183  3 2084.                    STH   R5,USENIZH2         Save failure case number too
 003868 B20A 2000      00000       29184  3 2085.                    MODESET KEYREG=2
                                   29187  3 2086.
 00386C 0ADE/111F                  29188  3 2087.                    QSNAP 'ORVYL soft failure diagnostics:',MODE=WTO
 003870 4100 8BEC            04078 29192  3          +
 003874 0ADE/120200                29193  3 2088.                    QSNAP (R3,R5)
 003879 350000                     29197  3          +
 00387C 0ADE                       29198  3 2089.                    QSNAP NIZSTCK,8
 00387E 180800008064               29201  3          +
 003884 0ADE                       29202  3 2090.                    QSNAP NIZLOWC,128
 003886 18800000806C               29205  3          +
 00388C 0ADE                       29206  3 2091.                    QSNAP NIZLOWC+128,128
 00388E 1880000080EC               29209  3          +
 003894 0ADE                       29210  3 2092.                    QSNAP NIZLOWC+256,128
 003896 18800000816C               29213  3          +
 00389C 0ADE                       29214  3 2093.                    QSNAP NIZLOWC+384,128
 00389E 1880000081EC               29217  3          +
 0038A4 0ADE                       29218  3 2094.                    QSNAP NIZLOWC+512,128
 0038A6 18800000826C               29221  3          +
 0038AC 0ADE                       29222  3 2095.                    QSNAP NIZLOWC+640,128
 0038AE 1880000082EC               29225  3          +
 0038B4 0ADE/1112                  29226  3 2096.                    QSNAP 'End of diagnostics'
 0038B8 4100 8BA6            04032 29230  3          +
 DROP   USERCVT,R11                29231  2 2097.                  END
 DROP   *,R8                       29239  1 2098.                END
                                   29247  1 2099.
 0038BC                            29248  1 2100.     NIZCONT    LABEL
                                   29250  1 2101.
                                   29251  1 2102.                  End of very temporary failure checking!!!
                                   29252  1 2103.
 0038BC 980F F01C            0001C 29253  1 2104.                LM    R0,R15,CPGRSAVE         Restore our registers
 DROP   CPUB,R15                   29254    2105.              END   ,
                                   29263    2106.              AGO   .NOCPT2
                                   29264    2113.     .NOCPT2  ANOP  ,
                                   29265    2114.     *
                                   29266    2115.     * At this point we have some kind of interception.  We must decide
                                   29267    2116.     * what kind it is and take action on it.
                                   29268    2117.     *
 0038C0 1F11/4310 7150       00150 29269    2118.              LC    RS,SIEICODE             Get the interception code
 0038C6 5910 AC90            03FF0 29276    2119.              IF    (RS,GE,ITABL),BADICODE  Code is too big
 0038CA 47A0 A5A2            03902 29290             +
 0038CE 47F1 A572            038D2 29296    2120.              B     ITAB(RS)                Branch based on it
                                   29297    2121.
 0038D2 47F0 A5A2            03902 29298    2122.     ITAB     B     BADICODE                 0 -- RESERVED
 0038D6 47F0 A5B2            03912 29299    2123.              B     INSTRUCT                 4 -- instruction
 0038DA 47F0 A934            03C94 29300    2124.              B     PROGRAM                  8 -- PI interrupt
 0038DE 47F0 A966            03CC6 29301    2125.              B     INSTPER                 12 -- PER and instruction
 0038E2 47F0 A976            03CD6 29302    2126.              B     EXTPEND                 16 -- Pending external
 0038E6 47F0 AA64            03DC4 29303    2127.              B     EXTINT                  20 -- External interrupt
 0038EA 47F0 AA90            03DF0 29304    2128.              B     IOPEND                  24 -- Pending I/O interrupt
1GSTINTF  (GSTI00) (09:40) (22MAR04) IHAPSAE  - PSA Extension (ESAME)                                                       Page  114
0Current Usings:  (GSTCT,R5) (CPUB,R7) (CPUTASK,R10) (SBTPARM-72,R12) (@FWAIT-72,R13)
0Loc    Object Code    Addr1 Addr2  Stmt Lv Lineno    Source Statement           (Hibal 5, Asmedit 3.3)  HLASM R4.0  2004/03/22 09.40
+___    ______ ____    _____ _____  ____ __ ______    ______ _________
00038EE 47F0 AB20            03E80 29305    2129.              B     WAITST                  28 -- Wait state
 0038F2 47F0 AB94            03EF4 29306    2130.              B     VALIDITY                32 -- Validity interception
 0038F6 47F0 A5A2            03902 29307    2131.              B     BADICODE                36 -- RESERVED
 0038FA 47F0 ABA4            03F04 29308    2132.              B     STOPCODE                40 -- Stop interception
 0038FE 47F0 AC4E            03FAE 29309    2133.              B     OPEXCEPT                44 -- Operation exception
                                   29310    2134.     ITABL    EQU   *-ITAB                  ***************************
-003902 4110 0001            00001 29312    2136.     BADICODE KAPUT BADICODE                gasp!
 003906 4100 0080            00080 29321             +
 00390A 8900 0018/1610       00018 29322             +
 003910 0A0D                       29324             +
1GSTINTF  (GSTI00) (09:40) (22MAR04) IHAPSAE  - PSA Extension (ESAME)                                                       Page  115
0Current Usings:  (GSTCT,R5) (CPUB,R7) (CPUTASK,R10) (SBTPARM-72,R12) (@FWAIT-72,R13)
0Loc    Object Code    Addr1 Addr2  Stmt Lv Lineno    Source Statement           (Hibal 5, Asmedit 3.3)  HLASM R4.0  2004/03/22 09.40
+___    ______ ____    _____ _____  ____ __ ______    ______ _________
0                                  29326    2138.     *
                                   29327    2139.     * INSTRUCT -- This section of code handles the instruction
                                   29328    2140.     *             interception.  First thing... it finds which
                                   29329    2141.     *             instruction to handle.
                                   29330    2142.     *
 003912                            29331    2143.     INSTRUCT LABEL  ,
                                   29333    2144.
 003912 9101 7119      00119       29334    2145.              IF    (SIEPSW+1.X'01'),BEGIN  Caller is in problem state
 003916 47E0 A5EC            0394C 29345             +
 00391A 5810 7070/18E2       00070 29350  1 2146.                PIINT CODE=2,ILEN=4           Cause a Priv Op exception
 USING  PZERO,R1
 003920 B20B 0000                  29370  2          +
 003924 B20A 0000/18F2 00000       29371  2          +
 00392A 182E                       29373  2          +
 00392C D207 1028 7118 00028 00118 29374  2          +
 003932 D207 7118 1068 00118 00068 29375  2          +
 003938 D201 108E ACE4 0008E 04044 29376  2          +
 00393E D201 108C ACE6 0008C 04046 29377  2          +
 003944 B20A F000      00000       29380  1          +
 DROP   PZERO,R1
 003948 47F0 A110            03470 29389  1 2147.                B     RUNNING                 Then re-start caller
 00394C                            29390    2148.              END   ,
                                   29394    2149.
 00394C 9583 7156      00156       29395    2150.              IF    (SIEINST,EQ,X'83'),BEGIN          DIAGNOSE
 003950 4770 A664            039C4 29407             +
 003954 9180 7151      00151       29412  1 2151.                GETICAD RS,TYPE=S                       Get the code
 003958 47E0 A642            039A2 29423  1          +
 00395C 4810 7158            00158 29428  2          +
 003960 8910 0010/18F1       00010 29429  2          +
 003966 8810 001C/1211       0001C 29431  2          +
 00396C 4780 A638            03998 29441  2          +
 003970 5910 AC94            03FF4 29451  3          +
 003974 4720 A624            03984 29452  3          +
 003978 4740 A62C            0398C 29453  3          +
 00397C 4110 7110            00110 29454  3          +
 003980 47F0 A634            03994 29455  3          +
 003984 4110 7114            00114 29456  3          +
 003988 47F0 A634            03994 29457  3          +
 00398C 8910 0002            00002 29458  3          +
 003990 4111 70BC            000BC 29459  3          +
 003994 5810 1000            00000 29462  2          +
 003998 89F0 0004            00004 29467  2          +
 00399C 88F0 0014/1E1F       00014 29468  1          +
 00395A A646           0395C 039A2 29477  1          +
 0039A2 47F0 A64A            039AA 29479  1          +
 0039A6 5810 7158            00158 29485  1          +
 0039AA 8910 0002            00002 29490  1 2152.                SLL   RS,2                              multiply by 4
 0039AE 5910 AC98            03FF8 29491  1 2153.                IF    (RS,GE,DIAGMAX),INVOP             too big
 0039B2 47A0 A888            03BE8 29505  1          +
 DROP   @FWAIT-72,R13              29511  1 2154.                PSET  INTERP,CLEAR=NO
 USING  INTERP-72,R13
 0039B6 5070 D048            00000 29525  1 2155.                ST    RY,INTCPUB                        Save the CPUB addr
 0039BA 58F1 A8BC/0DEF       03C1C 29526  1 2156.                ACALL DIAGTAB(RS)                       call the routine
 0039C0 47F0 A110            03470 29533  1 2157.                B     RUNNING
1GSTINTF  (GSTI00) (09:40) (22MAR04) IHAPSAE  - PSA Extension (ESAME)                                                       Page  116
0Current Usings:  (GSTCT,R5) (CPUB,R7) (CPUTASK,R10) (SBTPARM-72,R12) (INTERP-72,R13)
0Loc    Object Code    Addr1 Addr2  Stmt Lv Lineno    Source Statement           (Hibal 5, Asmedit 3.3)  HLASM R4.0  2004/03/22 09.40
+___    ______ ____    _____ _____  ____ __ ______    ______ _________
00039C4                            29534    2158.              END   ,
                                   29538    2159.
 0039C4 A668           039C4 03952 29539    2160.             ELSEIF (SIEINST,EQ,X'B233'),BEGIN        START SUBCHANNEL
 0039C4 47F0 A6A8            03A08 29545             +
 0039C8 D501 ACE8 7156 04048 00156 29559             +
 0039CE 4770 A6A8            03A08 29560             +
 0039D2 58F0 AC9C/0DEF       03FFC 29565  1 2161.                VCALL CPTREAD                 Start the meter running
                                   29569  1 2162.                PSET  INTERP,CLEAR=NO
 0039D8 5070 D048            00000 29573  1 2163.                ST    RY,INTCPUB
 0039DC 58F0 ACA0/0DEF       04000 29574  1 2164.                ACALL IXSSCH
 DROP   INTERP-72,R13              29581  1 2165.                PSET  @CPTIME
 USING  @CPTIME-72,R13
 0039E2 D70F D048 D048 00000 00000 29601  1          +
 0039E8 58F0 AC9C/0DEF       03FFC 29602  1 2166.                VCALL CPTREAD                 Turn off the meter
 0039EE 9823 7128            00128 29606  1 2167.                LM    RA,RB,SIECPUTM          Get the Guest CPU timer
 0039F2 5F30 D054            0000C 29607  1 2168.                SDL   RA,@CPTINT              Less this amount
 0039F6 47B0 A69C/0620       039FC 29609  1          +
 0039FC 5F20 D050            00008 29611  1          +
 003A00 9023 7128            00128 29612  1 2169.                STM   RA,RB,SIECPUTM          Update the Guest timer
 003A04 47F0 A110            03470 29613  1 2170.                B     RUNNING
 003A08                            29614    2171.              END   ,
                                   29618    2172.
 003A08 A6AC           03A08 039D0 29619    2173.             ELSEIF (SIEINST,EQ,X'B236'),BEGIN        TEST PENDING INT
 003A08 47F0 A6C4            03A24 29625             +
 003A0C D501 ACEA 7156 0404A 00156 29639             +
 003A12 4770 A6C4            03A24 29640             +
 DROP   @CPTIME-72,R13             29645  1 2174.                PSET  INTERP,CLEAR=NO
 USING  INTERP-72,R13
 003A16 5070 D048            00000 29659  1 2175.                ST    RY,INTCPUB
 003A1A 58F0 ACA4/0DEF       04004 29660  1 2176.                ACALL IXTPI
 003A20 47F0 A110            03470 29667  1 2177.                B     RUNNING
 003A24                            29668    2178.              END   ,
                                   29672    2179.
 003A24 A6C8           03A24 03A14 29673    2180.             ELSEIF (SIEINST,EQ,X'AE'),BEGIN          SIGP
 003A24 47F0 A6DE            03A3E 29679             +
 003A28 95AE 7156      00156       29693             +
 003A2C 4770 A6DE            03A3E 29694             +
                                   29699  1 2181.                PSET  INTERP,CLEAR=NO
 003A30 5070 D048            00000 29703  1 2182.                ST    RY,INTCPUB
 003A34 58F0 ACA8/0DEF       04008 29704  1 2183.                ACALL IXSIGP
 003A3A 47F0 A110            03470 29711  1 2184.                B     RUNNING
 003A3E                            29712    2185.              END   ,
                                   29716    2186.
 003A3E A6E2           03A3E 03A2E 29717    2187.             ELSEIF (SIEINST,EQ,X'B229'),BEGIN        ISKE
 003A3E 47F0 A6FC            03A5C 29723             +
 003A42 D501 ACEC 7156 0404C 00156 29737             +
 003A48 4770 A6FC            03A5C 29738             +
 003A4C 5810 711C            0011C 29743  1 2188.                L     RS,SIEPSW+4             Get the current PSW
 003A50 4B10 ACE6            04046 29744  1 2189.                SH    RS,=Y(4)                Back it up to the ISKE inst
 003A54 5010 711C            0011C 29745  1 2190.                ST    RS,SIEPSW+4
 003A58 47F0 A110            03470 29746  1 2191.                B     RUNNING                 Then re-try it
 003A5C                            29747    2192.              END   ,
                                   29751    2193.
 003A5C A700           03A5C 03A4A 29752    2194.             ELSEIF (SIEINST,EQ,X'B22A'),BEGIN        RRBE
1GSTINTF  (GSTI00) (09:40) (22MAR04) IHAPSAE  - PSA Extension (ESAME)                                                       Page  117
0Current Usings:  (GSTCT,R5) (CPUB,R7) (CPUTASK,R10) (SBTPARM-72,R12) (INTERP-72,R13)
0Loc    Object Code    Addr1 Addr2  Stmt Lv Lineno    Source Statement           (Hibal 5, Asmedit 3.3)  HLASM R4.0  2004/03/22 09.40
+___    ______ ____    _____ _____  ____ __ ______    ______ _________
0003A5C 47F0 A71A            03A7A 29758             +
 003A60 D501 ACEE 7156 0404E 00156 29772             +
 003A66 4770 A71A            03A7A 29773             +
 003A6A 5810 711C            0011C 29778  1 2195.                L     RS,SIEPSW+4             Get the current PSW
 003A6E 4B10 ACE6            04046 29779  1 2196.                SH    RS,=Y(4)                Back it up to the RRBE inst
 003A72 5010 711C            0011C 29780  1 2197.                ST    RS,SIEPSW+4
 003A76 47F0 A110            03470 29781  1 2198.                B     RUNNING                 Then re-try it
 003A7A                            29782    2199.              END   ,
                                   29786    2200.
 003A7A A71E           03A7A 03A68 29787    2201.             ELSEIF (SIEINST,EQ,X'B22B'),BEGIN        SSKE
 003A7A 47F0 A738            03A98 29793             +
 003A7E D501 ACF0 7156 04050 00156 29807             +
 003A84 4770 A738            03A98 29808             +
 003A88 5810 711C            0011C 29813  1 2202.                L     RS,SIEPSW+4             Get the current PSW
 003A8C 4B10 ACE6            04046 29814  1 2203.                SH    RS,=Y(4)                Back it up to the SSKE inst
 003A90 5010 711C            0011C 29815  1 2204.                ST    RS,SIEPSW+4
 003A94 47F0 A110            03470 29816  1 2205.                B     RUNNING                 Then re-try it
 003A98                            29817    2206.              END   ,
                                   29821    2207.
 003A98 A73C           03A98 03A86 29822    2208.             ELSEIF (SIEINST,EQ,X'B221'),BEGIN        IPTE
 003A98 47F0 A756            03AB6 29828             +
 003A9C D501 ACF2 7156 04052 00156 29842             +
 003AA2 4770 A756            03AB6 29843             +
 003AA6 5810 711C            0011C 29848  1 2209.                L     RS,SIEPSW+4             Get the current PSW
 003AAA 4B10 ACE6            04046 29849  1 2210.                SH    RS,=Y(4)                Back it up to the IPTE inst
 003AAE 5010 711C            0011C 29850  1 2211.                ST    RS,SIEPSW+4
 003AB2 47F0 A110            03470 29851  1 2212.                B     RUNNING                 Then re-try it
 003AB6                            29852    2213.              END   ,
                                   29856    2214.
 003AB6 A75A           03AB6 03AA4 29857    2215.             ELSEIF (SIEINST,EQ,X'B212'),BEGIN        STORE CPU ADDRESS
 003AB6 47F0 A772            03AD2 29863             +
 003ABA D501 ACF4 7156 04054 00156 29877             +
 003AC0 4770 A772            03AD2 29878             +
                                   29883  1 2216.                PSET  INTERP,CLEAR=NO
 003AC4 5070 D048            00000 29887  1 2217.                ST    RY,INTCPUB
 003AC8 58F0 ACAC/0DEF       0400C 29888  1 2218.                ACALL IXSTAP
 003ACE 47F0 A110            03470 29895  1 2219.                B     RUNNING
 003AD2                            29896    2220.              END   ,
                                   29900    2221.
 003AD2 A776           03AD2 03AC2 29901    2222.             ELSEIF (SIEINST,EQ,X'B210'),BEGIN        SET PREFIX
 003AD2 47F0 A78E            03AEE 29907             +
 003AD6 D501 ACF6 7156 04056 00156 29921             +
 003ADC 4770 A78E            03AEE 29922             +
                                   29927  1 2223.                PSET  INTERP,CLEAR=NO
 003AE0 5070 D048            00000 29931  1 2224.                ST    RY,INTCPUB
 003AE4 58F0 ACB0/0DEF       04010 29932  1 2225.                ACALL IXSPX
 003AEA 47F0 A110            03470 29939  1 2226.                B     RUNNING
 003AEE                            29940    2227.              END   ,
                                   29944    2228.
 003AEE A792           03AEE 03ADE 29945    2229.             ELSEIF (SIEINST,EQ,X'B202'),BEGIN        STORE CPU ID
 003AEE 47F0 A7AA            03B0A 29951             +
 003AF2 D501 ACF8 7156 04058 00156 29965             +
 003AF8 4770 A7AA            03B0A 29966             +
                                   29971  1 2230.                PSET  INTERP,CLEAR=NO
1GSTINTF  (GSTI00) (09:40) (22MAR04) IHAPSAE  - PSA Extension (ESAME)                                                       Page  118
0Current Usings:  (GSTCT,R5) (CPUB,R7) (CPUTASK,R10) (SBTPARM-72,R12) (INTERP-72,R13)
0Loc    Object Code    Addr1 Addr2  Stmt Lv Lineno    Source Statement           (Hibal 5, Asmedit 3.3)  HLASM R4.0  2004/03/22 09.40
+___    ______ ____    _____ _____  ____ __ ______    ______ _________
0003AFC 5070 D048            00000 29975  1 2231.                ST    RY,INTCPUB
 003B00 58F0 ACB4/0DEF       04014 29976  1 2232.                ACALL IXSTIDP
 003B06 47F0 A110            03470 29983  1 2233.                B     RUNNING
 003B0A                            29984    2234.              END   ,
                                   29988    2235.
 003B0A A7AE           03B0A 03AFA 29989    2236.             ELSEIF (SIEINST,EQ,X'B211'),BEGIN        STORE PREFIX
 003B0A 47F0 A7C6            03B26 29995             +
 003B0E D501 ACFA 7156 0405A 00156 30009             +
 003B14 4770 A7C6            03B26 30010             +
                                   30015  1 2237.                PSET  INTERP,CLEAR=NO
 003B18 5070 D048            00000 30019  1 2238.                ST    RY,INTCPUB
 003B1C 58F0 ACB8/0DEF       04018 30020  1 2239.                ACALL IXSTPX
 003B22 47F0 A110            03470 30027  1 2240.                B     RUNNING
 003B26                            30028    2241.              END   ,
                                   30032    2242.
 003B26 A7CA           03B26 03B16 30033    2243.             ELSEIF (SIEINST,EQ,X'B22C'),BEGIN        TEST BLOCK
 003B26 47F0 A7E2            03B42 30039             +
 003B2A D501 ACFC 7156 0405C 00156 30053             +
 003B30 4770 A7E2            03B42 30054             +
                                   30059  1 2244.                PSET  INTERP,CLEAR=NO
 003B34 5070 D048            00000 30063  1 2245.                ST    RY,INTCPUB
 003B38 58F0 ACBC/0DEF       0401C 30064  1 2246.                ACALL IXTB
 003B3E 47F0 A110            03470 30071  1 2247.                B     RUNNING
 003B42                            30072    2248.              END   ,
                                   30076    2249.
 003B42 A7E6           03B42 03B32 30077    2250.             ELSEIF (SIEINST,EQ,X'B234'),'B INVOP'    STORE SUBCHANNEL
 003B42 47F0 A7F4            03B54 30083             +
 003B46 D501 ACFE 7156 0405E 00156 30097             +
 003B4C 4770 A7F4            03B54 30098             +
 003B50 47F0 A888            03BE8 30104             +
                                   30109    2251.
 003B54 A7F8           03B54 03B4E 30110    2252.             ELSEIF (SIEINST,EQ,X'B235'),'B INVOP'    TEST SUBCHANNEL
 003B54 47F0 A806            03B66 30116             +
 003B58 D501 AD00 7156 04060 00156 30130             +
 003B5E 4770 A806            03B66 30131             +
 003B62 47F0 A888            03BE8 30137             +
                                   30142    2253.
 003B66 A80A           03B66 03B60 30143    2254.             ELSEIF (SIEINST,EQ,X'B230'),'B INVOP'    CLEAR SUBCHANNEL
 003B66 47F0 A818            03B78 30149             +
 003B6A D501 AD02 7156 04062 00156 30163             +
 003B70 4770 A818            03B78 30164             +
 003B74 47F0 A888            03BE8 30170             +
                                   30175    2255.
 003B78 A81C           03B78 03B72 30176    2256.             ELSEIF (SIEINST,EQ,X'B231'),'B INVOP'    HALT SUBCHANNEL
 003B78 47F0 A82A            03B8A 30182             +
 003B7C D501 AD04 7156 04064 00156 30196             +
 003B82 4770 A82A            03B8A 30197             +
 003B86 47F0 A888            03BE8 30203             +
                                   30208    2257.
 003B8A A82E           03B8A 03B84 30209    2258.             ELSEIF (SIEINST,EQ,X'B232'),'B INVOP'    MODIFY SUBCHANNEL
 003B8A 47F0 A83C            03B9C 30215             +
 003B8E D501 AD06 7156 04066 00156 30229             +
 003B94 4770 A83C            03B9C 30230             +
 003B98 47F0 A888            03BE8 30236             +
1GSTINTF  (GSTI00) (09:40) (22MAR04) IHAPSAE  - PSA Extension (ESAME)                                                       Page  119
0Current Usings:  (GSTCT,R5) (CPUB,R7) (CPUTASK,R10) (SBTPARM-72,R12) (INTERP-72,R13)
0Loc    Object Code    Addr1 Addr2  Stmt Lv Lineno    Source Statement           (Hibal 5, Asmedit 3.3)  HLASM R4.0  2004/03/22 09.40
+___    ______ ____    _____ _____  ____ __ ______    ______ _________
0                                  30241    2259.
 003B9C A840           03B9C 03B96 30242    2260.             ELSEIF (SIEINST,EQ,X'B238'),'B INVOP'    RESUME SUBCHANNEL
 003B9C 47F0 A84E            03BAE 30248             +
 003BA0 D501 AD08 7156 04068 00156 30262             +
 003BA6 4770 A84E            03BAE 30263             +
 003BAA 47F0 A888            03BE8 30269             +
                                   30274    2261.
 003BAE A852           03BAE 03BA8 30275    2262.             ELSEIF (SIEINST,EQ,X'B237'),'B INVOP'    SET ADDRESS LIMIT
 003BAE 47F0 A860            03BC0 30281             +
 003BB2 D501 AD0A 7156 0406A 00156 30295             +
 003BB8 4770 A860            03BC0 30296             +
 003BBC 47F0 A888            03BE8 30302             +
                                   30307    2263.
 003BC0 A864           03BC0 03BBA 30308    2264.             ELSEIF (SIEINST,EQ,X'B204'),'B INVOP'    SET CLOCK
 003BC0 47F0 A872            03BD2 30314             +
 003BC4 D501 AD0C 7156 0406C 00156 30328             +
 003BCA 4770 A872            03BD2 30329             +
 003BCE 47F0 A888            03BE8 30335             +
                                   30340    2265.
 003BD2 A876           03BD2 03BCC 30341    2266.             ELSEIF (SIEINST,EQ,X'B214'),'B INVOP'    SIE
 003BD2 47F0 A884            03BE4 30347             +
 003BD6 D501 AD0E 7156 0406E 00156 30361             +
 003BDC 4770 A884            03BE4 30362             +
 003BE0 47F0 A888            03BE8 30368             +
                                   30373    2267.
 003BE4 A888           03BE4 03BDE 30374    2268.             ELSE   INVOP                             ANY AND ALL OTHERS
                                   30379    2269.     *
 003BE4 47F0 A110            03470 30380    2270.              B     RUNNING                 Go back for more.
                                   30381    2271.     *
                                   30382    2272.     * INVOP -- This section of code causes an operation
                                   30383    2273.     *          exception in the guest machine.
                                   30384    2274.     *
-003BE8 5810 7070/18E2       00070 30386    2276.     INVOP    PIINT CODE=1,ILEN=4           Cause on Operation Exception
 USING  PZERO,R1
 003BEE B20B 0000                  30407  1          +
 003BF2 B20A 0000/18F2 00000       30408  1          +
 003BF8 182E                       30410  1          +
 003BFA D207 1028 7118 00028 00118 30411  1          +
 003C00 D207 7118 1068 00118 00068 30412  1          +
 003C06 D201 108E AD10 0008E 04070 30413  1          +
 003C0C D201 108C ACE6 0008C 04046 30414  1          +
 003C12 B20A F000      00000       30417             +
 DROP   PZERO,R1
 003C16 47F0 A110            03470 30426    2277.              B     RUNNING                 Start the machine up
1GSTINTF  (GSTI00) (09:40) (22MAR04) IHAPSAE  - PSA Extension (ESAME)                                                       Page  120
0Current Usings:  (GSTCT,R5) (CPUB,R7) (CPUTASK,R10) (SBTPARM-72,R12) (INTERP-72,R13)
0Loc    Object Code    Addr1 Addr2  Stmt Lv Lineno    Source Statement           (Hibal 5, Asmedit 3.3)  HLASM R4.0  2004/03/22 09.40
+___    ______ ____    _____ _____  ____ __ ______    ______ _________
0                                  30428    2279.     *
                                   30429    2280.     * Table of routines that handle diagnose instructions
                                   30430    2281.     *
-003C1C                            30432    2283.     DIAGTAB  DS    0A
 003C1C 00005386                   30433    2284.              DC    A(DTABEND)         000  ABEND ORVYL
 003C20 00005450                   30434    2285.              DC    A(DTMEMSZ)         001  Get info on available memory
 003C24 000056A8                   30435    2286.              DC    A(DTLDBLK)         002  Read a Kernel block
 003C28 000054BA                   30436    2287.              DC    A(DTLDSTA)         003  Start the Kernel reading
 003C2C 000057E8                   30437    2288.              DC    A(DTLDEND)         004  Finish Kernel loading
 003C30 00005856                   30438    2289.              DC    A(DTPAGE)          005  Fix a page to MVS
 003C34 000058F0                   30439    2290.              DC    A(DTNOPAGE)        006  Un-fix a page to MVS
 003C38 0000598E                   30440    2291.              DC    A(DTALLOC)         007  Allocate a device id
 003C3C 00005A02                   30441    2292.              DC    A(DTSPIN)          008  Do 'spin' for locks
 003C40 00005A44                   30442    2293.              DC    A(DTNOSPIN)        009  Take out of 'spin' for locks
 003C44 00005B12                   30443    2294.              DC    A(DTMVSRD)         010  Read MVS memory
 003C48 00005E12                   30444    2295.              DC    A(DTMVSWRT)        011  Write MVS memory
 003C4C 00006112                   30445    2296.              DC    A(DTMVSNM)         012  Find MVS module name
 003C50 000062FE                   30446    2297.              DC    A(DTSMF)           013  Write an SMF record
 003C54 0000654C                   30447    2298.              DC    A(DTENQ)           014  Do an MVS ENQ
 003C58 0000694C                   30448    2299.              DC    A(DTPARM)          015  Get an init parameter
 003C5C 0000710E                   30449    2300.              DC    A(DTMXREAL)        016  Maximum Guest real memory
 003C60 00007202                   30450    2301.              DC    A(DTMXCPU)         017  Maximum active CPU's
 003C64 000072FC                   30451    2302.              DC    A(DTSNAP)          018  Our qsnap facility
 003C68 000078D2                   30452    2303.              DC    A(DTWTO)           019  Write a message to operator
 003C6C 00007BF8                   30453    2304.              DC    A(DTDOM)           020  Delete operator message
 003C70 00007C60                   30454    2305.              DC    A(DTCPUTM)         021  Obtain host CPU time
 003C74 00006CF8                   30455    2306.              DC    A(DTPARM2)         022  Get init parm (second try)
 003C78 00007DAA                   30456    2307.              DC    A(DTCPUINF)        023  Get general CPU info
 003C7C 00007E16                   30457    2308.              DC    A(DTQSERV)         024  Issue a QSERV svc
 003C80 00007E50                   30458    2309.              DC    A(DTDPALLO)        025  Allocate a SNAP DUMP data set
 003C84 00007ED2                   30459    2310.              DC    A(DTDPWRIT)        026  Write a line to SNAP DUMP
 003C88 00008112                   30460    2311.              DC    A(DTDPCLOS)        027  Close and free a SNAP DUMP
 003C8C 00008212                   30461    2312.              DC    A(DTERMCOM)        028  Signal guest termination done
 003C90 00008258                   30462    2313.              DC    A(DTNOTDMP)        029  Set range of addr to not dump
                                   30463    2314.     DIAGMAX  EQU   *-DIAGTAB               Maximum diagnose code
1GSTINTF  (GSTI00) (09:40) (22MAR04) IHAPSAE  - PSA Extension (ESAME)                                                       Page  121
0Current Usings:  (GSTCT,R5) (CPUB,R7) (CPUTASK,R10) (SBTPARM-72,R12) (INTERP-72,R13)
0Loc    Object Code    Addr1 Addr2  Stmt Lv Lineno    Source Statement           (Hibal 5, Asmedit 3.3)  HLASM R4.0  2004/03/22 09.40
+___    ______ ____    _____ _____  ____ __ ______    ______ _________
0                                  30465    2316.     *
                                   30466    2317.     * PROGRAM -- This section is entered because a guest program
                                   30467    2318.     *            interrupt occurred that was intercepted.  We are not
                                   30468    2319.     *            at all interested in this so we just swap PSW's and
                                   30469    2320.     *            put it on its way.
                                   30470    2321.     *
0003C94                            30472    2323.     PROGRAM  LABEL ,
 003C94 5810 7070/18E2       00070 30474    2324.              PIINT                         Take the interrupt
 USING  PZERO,R1
 003C9A B20B 0000                  30494  1          +
 003C9E B20A 0000/18F2 00000       30495  1          +
 003CA4 182E                       30497  1          +
 003CA6 D207 1028 7118 00028 00118 30498  1          +
 003CAC D207 7118 1068 00118 00068 30499  1          +
 003CB2 D201 108E 71CE 0008E 001CE 30500  1          +
 003CB8 D201 108C 71CC 0008C 001CC 30501  1          +
 003CBE B20A F000      00000       30504             +
 DROP   PZERO,R1
 003CC2 47F0 A110            03470 30513    2325.              B     RUNNING                 And return to run again
-
                                   30515    2327.     *
                                   30516    2328.     * INSTPER -- This is entered if a per occurs on an instruction
                                   30517    2329.     *            that has already completed but causes interception.
                                   30518    2330.     *            This only happens on CS, CDS, and TS instructions
                                   30519    2331.     *            when they can cause interception by setting cc=1.
                                   30520    2332.     *            Since we don't intercept on these instructions, entry
                                   30521    2333.     *            into this section indicates an error.
                                   30522    2334.     *
0003CC6                            30524    2336.     INSTPER  LABEL ,
 003CC6 4110 0001            00001 30526    2337.              KAPUT INSTPER
 003CCA 4100 0080            00080 30534             +
 003CCE 8900 0018/1610       00018 30535             +
 003CD4 0A0D                       30537             +
1GSTINTF  (GSTI00) (09:40) (22MAR04) IHAPSAE  - PSA Extension (ESAME)                                                       Page  122
0Current Usings:  (GSTCT,R5) (CPUB,R7) (CPUTASK,R10) (SBTPARM-72,R12) (INTERP-72,R13)
0Loc    Object Code    Addr1 Addr2  Stmt Lv Lineno    Source Statement           (Hibal 5, Asmedit 3.3)  HLASM R4.0  2004/03/22 09.40
+___    ______ ____    _____ _____  ____ __ ______    ______ _________
0                                  30539    2339.     *
                                   30540    2340.     * EXTPEND -- This routine is entered when the external interrupt
                                   30541    2341.     *            intervention bit is set in the SIE control block and
                                   30542    2342.     *            the virtual CPU is enabled for external interrupts.
                                   30543    2343.     *            It is the signal that we can now schedule the external
                                   30544    2344.     *            interrupts from other CPU's SIGPs to this CPU.
                                   30545    2345.     *
0003CD6                            30547    2347.     EXTPEND  LABEL ,
                                   30549    2348.     *
                                   30550    2349.     * Clear the pending bit
                                   30551    2350.     *
 004097 FE             04097 08402 30552    2351.              CLEAR SIEIPEXT,MODE=LOCKED,REF=SIEDATA
 003CD6 41F0 0001/111F       00001 30572             +
 003CDC 89F0 0003            00003 30574             +
 003CE0 44F0 AD38            04098 30576             +
 004098 BF10 AD37            04097 30583             +
 003CE4 58F0 7100/180F       00100 30591             +
 003CEA 1401/BAF0 7100       00100 30593             +
 003CF0 4770 A988            03CE8 30596             +
                                   30597    2352.
 003CF4 5810 7084/1211       00084 30598    2353.              LT    RS,CPEMERG              Emergency signal pending?
 003CFA 4780 AA24            03D84 30602    2354.              IF    NZ,BEGIN                Yep.
                                   30613  1 2355.     *
                                   30614  1 2356.     * Find out which CPU wants us
                                   30615  1 2357.     *
 003CFE 1B22                       30616  1 2358.                CLEAR RA                      CPU Address counter 0
 003D00 4130 0001            00001 30620  1 2359.                LA    RB,1                    CPU bit map for CPU 0
 003D04 1803                       30621  1 2360.     EMSLOOP    LR    RVR,RB                  Get the bit
 003D06 1401                       30622  1 2361.                NR    RVR,RS                  Check it out
 003D08 4770 A9B8            03D18 30623  1 2362.                IF    Z,BEGIN                 Not found yet
 003D0C 5E20 ACC0            04020 30634  2 2363.                  INCR  RA                      Next CPU address
 003D10 8930 0001            00001 30637  2 2364.                  SLL   RB,1                    Next bit position
 003D14 47F0 A9A4            03D04 30638  2 2365.                  B     EMSLOOP
 003D18                            30639  1 2366.                END   ,
                                   30643  1 2367.     *
                                   30644  1 2368.     * Set up the interruption
                                   30645  1 2369.     *
 003D18 5810 7070/1802       00070 30646  1 2370.                EXINT CODE=X'1201',CPUREG=RA
 USING  PZERO,R1
 003D1E B20B 0000                  30666  2          +
 003D22 B20A 0000/18F2 00000       30667  2          +
 003D28 1820                       30669  2          +
 003D2A D207 1018 7118 00018 00118 30670  2          +
 003D30 D207 7118 1058 00118 00058 30671  2          +
 003D36 D201 1086 AD12 00086 04072 30672  2          +
 003D3C 4020 1084            00084 30673  2          +
 003D40 B20A F000      00000       30676  1          +
 DROP   PZERO,R1
                                   30685  1 2371.     *
                                   30686  1 2372.     * Remove the Bit for the CPU we are taking care of.
                                   30687  1 2373.     *
 003D44 5730 AC88            03FE8 30688  1 2374.                X     RB,=F'-1'               Mask to turn off the bit
 003D48 5810 7084            00084 30689  1 2375.                L     RS,CPEMERG              Get the current mask
1GSTINTF  (GSTI00) (09:40) (22MAR04) IHAPSAE  - PSA Extension (ESAME)                                                       Page  123
0Current Usings:  (GSTCT,R5) (CPUB,R7) (CPUTASK,R10) (SBTPARM-72,R12) (INTERP-72,R13)
0Loc    Object Code    Addr1 Addr2  Stmt Lv Lineno    Source Statement           (Hibal 5, Asmedit 3.3)  HLASM R4.0  2004/03/22 09.40
+___    ______ ____    _____ _____  ____ __ ______    ______ _________
0003D4C                            30690  1 2376.                LOOP  BEGIN
 003D4C 1821                       30696  2 2377.                  LR    RA,RS
 003D4E 1423                       30697  2 2378.                  NR    RA,RB                   Get the updated value
 003D50 BA12 7084            00084 30698  2 2379.                  CS    RS,RA,CPEMERG           Update the core value
 003D54 4770 A9EC            03D4C 30699  1 2380.                UNTIL Z,END
                                   30718  1 2381.     *
                                   30719  1 2382.     * If any bits still on, or if an external call is waiting, we must
                                   30720  1 2383.     * turn the external intervention bit back on.
                                   30721  1 2384.     *
 003D58 1222/4770 AA08       03D68 30722  1 2385.                IF    ((RA,NZ),OR,(CPEXCALL,NZ)),BEGIN
 003D5E D603 7080 7080 00080 00080 30745  1          +
 003D64 4780 AA24            03D84 30746  1          +
 003D68 58F0 7100            00100 30751  2 2386.                  SET   SIEIPEXT,MODE=LOCKED,REF=SIEDATA
 003D6C 4110 0001            00001 30758  2          +
 003D70 8910 0018/180F       00018 30759  2          +
 003D76 1601/BAF0 7100       00100 30761  2          +
 003D7C 4770 AA14            03D74 30764  2          +
 003D80 47F0 A110            03470 30765  2 2387.                  B     RUNNING                 keep on trucking
 003D84                            30766  1 2388.                END   ,
 003D84                            30770    2389.              END   ,
                                   30774    2390.     *
                                   30775    2391.     * See if there is an external call waiting
                                   30776    2392.     *
 003D84 5820 7080/1222       00080 30777    2393.              LT    RA,CPEXCALL             Get the external call CPU
 003D8A 4780 AA60            03DC0 30781    2394.              IF    NZ,BEGIN                Someone wants us.
                                   30792  1 2395.     *
                                   30793  1 2396.     * Set up the interruption
                                   30794  1 2397.     *
 003D8E 5810 7070/1802       00070 30795  1 2398.                EXINT CODE=X'1202',CPUREG=RA
 USING  PZERO,R1
 003D94 B20B 0000                  30815  2          +
 003D98 B20A 0000/18F2 00000       30816  2          +
 003D9E 1820                       30818  2          +
 003DA0 D207 1018 7118 00018 00118 30819  2          +
 003DA6 D207 7118 1058 00118 00058 30820  2          +
 003DAC D201 1086 AD14 00086 04074 30821  2          +
 003DB2 4020 1084            00084 30822  2          +
 003DB6 B20A F000      00000       30825  1          +
 DROP   PZERO,R1
                                   30834  1 2399.     *
                                   30835  1 2400.     * Remove the interrupt condition
                                   30836  1 2401.     *
 003DBA 1B11                       30837  1 2402.                CLEAR RS
 003DBC 5010 7080            00080 30841  1 2403.                ST    RS,CPEXCALL             Zero out calling CPU
 003DC0                            30842    2404.              END   ,
 003DC0 47F0 A110            03470 30846    2405.              B     RUNNING                 Get back in the game
1GSTINTF  (GSTI00) (09:40) (22MAR04) IHAPSAE  - PSA Extension (ESAME)                                                       Page  124
0Current Usings:  (GSTCT,R5) (CPUB,R7) (CPUTASK,R10) (SBTPARM-72,R12) (INTERP-72,R13)
0Loc    Object Code    Addr1 Addr2  Stmt Lv Lineno    Source Statement           (Hibal 5, Asmedit 3.3)  HLASM R4.0  2004/03/22 09.40
+___    ______ ____    _____ _____  ____ __ ______    ______ _________
0                                  30848    2407.     *
                                   30849    2408.     * EXTINT -- This routine is entered when a guest external
                                   30850    2409.     *           interrupt has occured.  We just swap PSW's and
                                   30851    2410.     *           we're off.
                                   30852    2411.     *
0003DC4                            30854    2413.     EXTINT   LABEL ,
 003DC4 5810 7070/1802       00070 30856    2414.              EXINT                         Set up the interrupt
 USING  PZERO,R1
 003DCA B20B 0000                  30876  1          +
 003DCE B20A 0000/18F2 00000       30877  1          +
 003DD4 1820                       30879  1          +
 003DD6 D207 1018 7118 00018 00118 30880  1          +
 003DDC D207 7118 1058 00118 00058 30881  1          +
 003DE2 D201 1086 71C6 00086 001C6 30882  1          +
 003DE8 B20A F000      00000       30885             +
 DROP   PZERO,R1
 003DEC 47F0 A110            03470 30894    2415.              B     RUNNING                 Back into the game
1GSTINTF  (GSTI00) (09:40) (22MAR04) IHAPSAE  - PSA Extension (ESAME)                                                       Page  125
0Current Usings:  (GSTCT,R5) (CPUB,R7) (CPUTASK,R10) (SBTPARM-72,R12) (INTERP-72,R13)
0Loc    Object Code    Addr1 Addr2  Stmt Lv Lineno    Source Statement           (Hibal 5, Asmedit 3.3)  HLASM R4.0  2004/03/22 09.40
+___    ______ ____    _____ _____  ____ __ ______    ______ _________
0                                  30896    2417.     *
                                   30897    2418.     * IOPEND -- This routine is entered when there is a IO interrupt
                                   30898    2419.     *           pending for the guest machine.
                                   30899    2420.     *
0003DF0                            30901    2422.     IOPEND   LABEL ,
                                   30903    2423.     *
                                   30904    2424.     * Turn off the pending flag
                                   30905    2425.     *
 00409C FD             04097 08402 30906    2426.              CLEAR SIEIPVIO,MODE=LOCKED,REF=SIEDATA
 003DF0 41F0 0001/111F       00001 30926             +
 003DF6 89F0 0003            00003 30928             +
 003DFA 44F0 AD3E            0409E 30930             +
 00409D 00/BF10 AD3C         0409C                   +
 003DFE 58F0 7100/180F       00100 30945             +
 003E04 1401/BAF0 7100       00100 30947             +
 003E0A 4770 AAA2            03E02 30950             +
                                   30951    2427.     *
                                   30952    2428.     * See if there are indeed any I/O responses pending
                                   30953    2429.     *
 DROP   INTERP-72,R13              30954    2430.              PSET  GTIOCBP,CLEAR=NO
 USING  GTIOCBP-72,R13
 003E0E D203 D048 7004 00000 00004 30968    2431.              MVC   GTIGSTC,CPGSTCT
 003E14 58F0 ACC4/0DEF       04024 30969    2432.              ACALL GETIOI                  Get an I/O interrupt
 003E1A 1260                       30976    2433.              LTR   RX,RVR                  Address of an IOCB
 003E1C 4780 A110            03470 30977    2434.              IF    Z,RUNNING               No interrupt... continue
                                   30991    2435.     *
                                   30992    2436.     * There is an I/O interrupt pending...Signal it
                                   30993    2437.     *
 USING  IOCB,R6                    30994    2438.              WITH  (IOCB,RX),BEGIN
 003E20 5810 7070            00070 31008  1 2439.                L     RS,CPPSALOC             Get location of PAGE ZERO
 USING  PZERO,R1                   31009  1 2440.                WITH  (PZERO,RS),BEGIN
                                   31023  2 2441.     *
                                   31024  2 2442.     * Move in the I/O parms
                                   31025  2 2443.     *
 003E24 B20B 0000                  31026  2 2444.                  MODESET EXTKEY=ZERO,SAVEKEY=(2)
 003E28 B20A 0000      00000       31029  2          +
 003E2C D203 10B8 600C 000B8 0000C 31030  2 2445.                  MVC   PZIOSID,IOCBSCH         Move in the Subchannel ID
 003E32 D203 10BC 6010 000BC 00010 31031  2 2446.                  MVC   PZIOPRM,IOCBIPRM        The Parameter
 003E38 D203 10C0 601C 000C0 0001C 31032  2 2447.                  MVC   PZIOSCS,IOCBSTAT        And the ending status
                                   31033  2 2448.     *
                                   31034  2 2449.     * Swap the PSW's
                                   31035  2 2450.     *
 003E3E D207 1038 7118 00038 00118 31036  2 2451.                  MVC   PZIOOPSW,SIEPSW
 003E44 D207 7118 1078 00118 00078 31037  2 2452.                  MVC   SIEPSW,PZIONPSW
 003E4A B20A 2000      00000       31038  2 2453.                  MODESET KEYREG=2
 DROP   PZERO,R1                   31041  1 2454.                END   ,
 DROP   IOCB,R6                    31049    2455.              END   ,
                                   31057    2456.     *
                                   31058    2457.     * Free the IOCT
                                   31059    2458.     *
 DROP   GTIOCBP-72,R13             31060    2459.              PSET  FRIOCBP,CLEAR=NO
 USING  FRIOCBP-72,R13
 003E4E D203 D048 7004 00000 00004 31074    2460.              MVC   FRIGSTC,CPGSTCT         Address of the GSTCT
1GSTINTF  (GSTI00) (09:40) (22MAR04) IHAPSAE  - PSA Extension (ESAME)                                                       Page  126
0Current Usings:  (GSTCT,R5) (CPUB,R7) (CPUTASK,R10) (SBTPARM-72,R12) (FRIOCBP-72,R13)
0Loc    Object Code    Addr1 Addr2  Stmt Lv Lineno    Source Statement           (Hibal 5, Asmedit 3.3)  HLASM R4.0  2004/03/22 09.40
+___    ______ ____    _____ _____  ____ __ ______    ______ _________
0003E54 5060 D04C            00004 31075    2461.              ST    RX,FRIIOCB              Address of the IOCB
 003E58 58F0 ACC8/0DEF       04028 31076    2462.              ACALL FREEIOCB                Returns 0 if no more waiting
                                   31083    2463.     *
                                   31084    2464.     * See if there are anymore pending
                                   31085    2465.     *
 003E5E 1200/4780 AB1C       03E7C 31086    2466.              IF    (RVR,NZ),BEGIN
 003E64 58F0 7100            00100 31100  1 2467.                SET   SIEIPVIO,MODE=LOCKED,REF=SIEDATA
 003E68 4110 0002            00002 31107  1          +
 003E6C 8910 0018/180F       00018 31108  1          +
 003E72 1601/BAF0 7100       00100 31110  1          +
 003E78 4770 AB10            03E70 31113  1          +
 003E7C                            31114    2468.              END   ,
 003E7C 47F0 A110            03470 31118    2469.              B     RUNNING                 Return to work
1GSTINTF  (GSTI00) (09:40) (22MAR04) IHAPSAE  - PSA Extension (ESAME)                                                       Page  127
0Current Usings:  (GSTCT,R5) (CPUB,R7) (CPUTASK,R10) (SBTPARM-72,R12) (FRIOCBP-72,R13)
0Loc    Object Code    Addr1 Addr2  Stmt Lv Lineno    Source Statement           (Hibal 5, Asmedit 3.3)  HLASM R4.0  2004/03/22 09.40
+___    ______ ____    _____ _____  ____ __ ______    ______ _________
0                                  31120    2471.     *
                                   31121    2472.     * WAITST -- This routine is entered when the guest machine loads
                                   31122    2473.     *           a wait PSW. It just does a wait.  When posted, it
                                   31123    2474.     *           checks to see whether an external interrupt should
                                   31124    2475.     *           be taken and if so, branches to EXTPEND.
                                   31125    2476.     *
0003E80                            31127    2478.     WAITST   LABEL ,
                                   31129    2479.     *
                                   31130    2480.     * Check to see if it is disabled.
                                   31131    2481.     *
 003E80 9103 7118      00118       31132    2482.              TM    SIEPSW,B'0000011'
 003E84 4770 AB38            03E98 31133    2483.              IF    Z,BEGIN                 Disabled wait
 003E88 4110 0320            00320 31144  1 2484.                ABEND 800,DUMP
 003E8C 4100 0080            00080 31149  1          +
 003E90 8900 0018/1610       00018 31150  1          +
 003E96 0A0D                       31152  1          +
 003E98                            31153    2485.              END   ,
 DROP   FRIOCBP-72,R13             31157    2486.              FWAIT LA:CPECB
 USING  @FWAIT-72,R13
 003E98 D703 D048 D048 00000 00000 31178             +
 003E9E 41E0 705C            0005C 31182             +
 003EA2 50E0 D048            00000 31183             +
 003EA6 58F0 AC84/0DEF       03FE4 31186             +
 003EAC 9101 7100      00100       31188    2487.              IF    (SIEIPEXT,AND,SIEPSW.1),EXTPEND
 003EB0 47E0 AB5C            03EBC 31200             +
 003EB4 9101 7118      00118       31212             +
 003EB8 4710 A976            03CD6 31215             +
 003EBC 9140 7060      00060       31221    2488.              IF    CPCSTERM,BEGIN
 003EC0 47E0 AB90            03EF0 31231             +
 003EC4 94BF 7060      00060       31236  1 2489.                CLEAR CPCSTERM
 003EC8 5810 7070/1802       00070 31243  1 2490.                EXINT CODE=0              Clear any residual code
 USING  PZERO,R1
 003ECE B20B 0000                  31263  2          +
 003ED2 B20A 0000/18F2 00000       31264  2          +
 003ED8 1820                       31266  2          +
 003EDA D207 1018 7118 00018 00118 31267  2          +
 003EE0 D207 7118 1058 00118 00058 31268  2          +
 003EE6 D201 1086 AD16 00086 04076 31269  2          +
 003EEC B20A F000      00000       31272  1          +
 DROP   PZERO,R1
 003EF0                            31281    2491.              END   ,
 003EF0 47F0 A110            03470 31285    2492.              B     RUNNING
-
                                   31287    2494.     *
                                   31288    2495.     * VALIDITY -- This routine is entered when a validity interception
                                   31289    2496.     *             occurs.  It signals an error.
                                   31290    2497.     *
0003EF4                            31292    2499.     VALIDITY LABEL ,
 003EF4 4110 0001            00001 31294    2500.              KAPUT VALIDITY
 003EF8 4100 0080            00080 31302             +
1GSTINTF  (GSTI00) (09:40) (22MAR04) IHAPSAE  - PSA Extension (ESAME)                                                       Page  128
0Current Usings:  (GSTCT,R5) (CPUB,R7) (CPUTASK,R10) (SBTPARM-72,R12) (@FWAIT-72,R13)
0Loc    Object Code    Addr1 Addr2  Stmt Lv Lineno    Source Statement           (Hibal 5, Asmedit 3.3)  HLASM R4.0  2004/03/22 09.40
+___    ______ ____    _____ _____  ____ __ ______    ______ _________
0003EFC 8900 0018/1610       00018 31303             +
 003F02 0A0D                       31305             +
1GSTINTF  (GSTI00) (09:40) (22MAR04) IHAPSAE  - PSA Extension (ESAME)                                                       Page  129
0Current Usings:  (GSTCT,R5) (CPUB,R7) (CPUTASK,R10) (SBTPARM-72,R12) (@FWAIT-72,R13)
0Loc    Object Code    Addr1 Addr2  Stmt Lv Lineno    Source Statement           (Hibal 5, Asmedit 3.3)  HLASM R4.0  2004/03/22 09.40
+___    ______ ____    _____ _____  ____ __ ______    ______ _________
0                                  31307    2502.     *
                                   31308    2503.     * STOPCODE -- This routine is entered when an interception is
                                   31309    2504.     *             caused by a stop intervention bit.  This bit is
                                   31310    2505.     *             used to implement some of the signal processor
                                   31311    2506.     *             orders.  Here we just turn off the bit, and go
                                   31312    2507.     *             to the STOPPED section of the loop where a check
                                   31313    2508.     *             is made for the results of those orders.
                                   31314    2509.     *
0003F04                            31316    2511.     STOPCODE LABEL ,
 003F04 9120 7060      00060       31318    2512.              IF    CPCSDIS1,BEGIN
 003F08 47E0 AC00            03F60 31328             +
 DROP   @FWAIT-72,R13              31333  1 2513.                PSET  @DOWTO
 USING  @DOWTO-72,R13
 003F0C D709 D048 D048 00000 00000 31353  1          +
 003F12 4100 AC22            03F82 31354  1 2514.                PMOV  @DWTLOC,LA:PSWMSG
 003F16 5000 D048            00000 31370  1          +
 003F1A 4100 002B            0002B 31371  1 2515.                PMOV  @DWTLEN,LA:L'PSWMSG
 003F1E 5000 D04C            00004 31387  1          +
 003F22 9680 D050      00008       31388  1 2516.                SET   @DWTFSYS
 003F26 58F0 ACCC/0DEF       0402C 31394  1 2517.                ACALL DOWTO
 003F2C 0ADE                       31401  1 2518.                QSNAP SIEPSW,4                Guest PSW
 003F2E 180400007118               31404  1          +
 003F34 0ADE                       31405  1 2519.                QSNAP CPCREGS,60              Guest registers
 003F36 183C000070BC               31408  1          +
 003F3C 5860 7070            00070 31409  1 2520.                L     RX,CPPSALOC             Location of page 0
 USING  PZERO,R6                   31410  1 2521.                WITH  (PZERO,RX),BEGIN
 003F40 0ADE                       31424  2 2522.                  QSNAP PZCURPID,4              ASB addr/task id
 003F42 180400006208               31427  2          +
 DROP   PZERO,R6                   31428  1 2523.                END   ,
 003F48 5860 7004            00004 31436  1 2524.                L     RX,CPGSTCT              Point to the GSTCT
 USING  GSTCT,R6                   31437  1 2525.                WITH  (GSTCT,RX),BEGIN
 DROP   @DOWTO-72,R13              31451  2 2526.                  FPOST LA:GSTCTECB             Post termination done
 USING  @FPOST-72,R13
 003F4C D703 D048 D048 00000 00000 31472  2          +
 003F52 41E0 6078            00078 31477  2          +
 003F56 50E0 D048            00000 31478  2          +
 003F5A 58F0 AC68/0DEF       03FC8 31481  2          +
 DROP   GSTCT,R6                   31483  1 2527.                END   ,
 003F60                            31491    2528.              END   ,
 0040A2 FB             04097 08402 31495    2529.              CLEAR SIEIPSTP,MODE=LOCKED,REF=SIEDATA
 003F60 41F0 0001/111F       00001 31515             +
 003F66 89F0 0003            00003 31517             +
 003F6A 44F0 AD44            040A4 31519             +
 0040A3 00/BF10 AD42         040A2                   +
 003F6E 58F0 7100/180F       00100 31534             +
 003F74 1401/BAF0 7100       00100 31536             +
 003F7A 4770 AC12            03F72 31539             +
 003F7E 47F0 A0BE            0341E 31540    2530.              B     STOPPED
 003F82 5C5C5C5C5C40D7E2           31541    2531.     PSWMSG   DC    C'***** PSW, registers R0-R15, ASB addr *****'
-
                                   31543    2533.     *
1GSTINTF  (GSTI00) (09:40) (22MAR04) IHAPSAE  - PSA Extension (ESAME)                                                       Page  130
0Current Usings:  (GSTCT,R5) (CPUB,R7) (CPUTASK,R10) (SBTPARM-72,R12) (@FPOST-72,R13)
0Loc    Object Code    Addr1 Addr2  Stmt Lv Lineno    Source Statement           (Hibal 5, Asmedit 3.3)  HLASM R4.0  2004/03/22 09.40
+___    ______ ____    _____ _____  ____ __ ______    ______ _________
0                                  31544    2534.     * OPEXCEPT -- This is called in an operation exception interception
                                   31545    2535.     *             occurs.  All Op Ex's should be handled by the guest so
                                   31546    2536.     *             this is an error to us.
                                   31547    2537.     *
0003FAE                            31549    2539.     OPEXCEPT LABEL ,
 003FAE 4110 0001            00001 31551    2540.              KAPUT OPEXCEPT
 003FB2 4100 0080            00080 31559             +
 003FB6 8900 0018/1610       00018 31560             +
 003FBC 0A0D                       31562             +
 003FBE 981F C008            00008 31563    2541.              PEND
 DROP   GSTCT,R5
 DROP   CPUB,R7
 DROP   SBTPARM-72,R12
 DROP   CPUTASK,R10
 003FC2 9680 C000/0B0E 00000       31588             +
 DROP   @FPOST-72,R13
1GSTINTF  (GSTI00) (09:40) (22MAR04) IHAPSAE  - PSA Extension (ESAME)                                                       Page  131
0Loc    Object Code    Addr1 Addr2  Stmt Lv Lineno    Source Statement           (Hibal 5, Asmedit 3.3)  HLASM R4.0  2004/03/22 09.40
+___    ______ ____    _____ _____  ____ __ ______    ______ _________
0003FC8                            31598    2543.              LTORG ,
 003FC8 00000000                   31600                             =V(FPOST)
 003FCC 00000000                   31601                             =V(IOSTINIT)
 003FD0 00000000                   31602                             =V(CPTSTART)
 003FD4 00001000                   31603                             =A(4096)
 003FD8 00000000                   31604                             =V(PAGEFIX)
 003FDC 0000837A                   31605                             =A(SETCLOC2)
 003FE0 00000000                   31606                             =V(POOLGET)
 003FE4 00000000                   31607                             =V(FWAIT)
 003FE8 FFFFFFFF                   31608                             =F'-1'
 003FEC E2C3C9D7                   31609                             =C'SCIP'
 003FF0 00000030                   31610                             =A(ITABL)
 003FF4 0000000E                   31611                             =F'14'
 003FF8 00000078                   31612                             =A(DIAGMAX)
 003FFC 00000000                   31613                             =V(CPTREAD)
 004000 00004CBA                   31614                             =A(IXSSCH)
 004004 00004ECE                   31615                             =A(IXTPI)
 004008 000041E0                   31616                             =A(IXSIGP)
 00400C 000045A6                   31617                             =A(IXSTAP)
 004010 000048F6                   31618                             =A(IXSPX)
 004014 0000474E                   31619                             =A(IXSTIDP)
 004018 00004A62                   31620                             =A(IXSTPX)
 00401C 00004C0A                   31621                             =A(IXTB)
 004020 00000001                   31622                             =A(1)
 004024 000050E4                   31623                             =A(GETIOI)
 004028 00005130                   31624                             =A(FREEIOCB)
 00402C 00007B0C                   31625                             =A(DOWTO)
 004030 0040                       31626                             =AL2(X'40')
 004032 C595844096864084           31627                             =C'End of diagnostics'
 004044 0002                       31628                             =Y(2)
 004046 0004                       31629                             =Y(4)
 004048 B233                       31630                             =X'B233'
 00404A B236                       31631                             =X'B236'
 00404C B229                       31632                             =X'B229'
 00404E B22A                       31633                             =X'B22A'
 004050 B22B                       31634                             =X'B22B'
 004052 B221                       31635                             =X'B221'
 004054 B212                       31636                             =X'B212'
 004056 B210                       31637                             =X'B210'
 004058 B202                       31638                             =X'B202'
 00405A B211                       31639                             =X'B211'
 00405C B22C                       31640                             =X'B22C'
 00405E B234                       31641                             =X'B234'
 004060 B235                       31642                             =X'B235'
 004062 B230                       31643                             =X'B230'
 004064 B231                       31644                             =X'B231'
 004066 B232                       31645                             =X'B232'
 004068 B238                       31646                             =X'B238'
 00406A B237                       31647                             =X'B237'
 00406C B204                       31648                             =X'B204'
 00406E B214                       31649                             =X'B214'
 004070 0001                       31650                             =Y(1)
 004072 1201                       31651                             =Y(X'1201')
 004074 1202                       31652                             =Y(X'1202')
 004076 0000                       31653                             =Y(0)
 004078 D6D9E5E8D340A296           31654                             =C'ORVYL soft failure diagnostics:'
1GSTINTF  (GSTI00) (09:40) (22MAR04) IHAPSAE  - PSA Extension (ESAME)                                                       Page  132
0Loc    Object Code    Addr1 Addr2  Stmt Lv Lineno    Source Statement           (Hibal 5, Asmedit 3.3)  HLASM R4.0  2004/03/22 09.40
+___    ______ ____    _____ _____  ____ __ ______    ______ _________
0                                  31659    2545.     *******************************************************************
                                   31660    2546.     *                                                                 *
                                   31661    2547.     *       TXIT - Timer exit routine entered from MVS.  It posts the *
                                   31662    2548.     *              corresponding CPUB in case it is waiting,          *
                                   31663    2549.     *              and takes a snapshot of the PSW for profiling.     *
                                   31664    2550.     *                                                                 *
                                   31665    2551.     *      Input - MVS ENTRY                                          *
                                   31666    2552.     *                                                                 *
                                   31667    2553.     *     Output - none                                               *
                                   31668    2554.     *                                                                 *
                                   31669    2555.     *******************************************************************
-0040A8                            31671    2557.     TXIT     BEGIN                         Not a procedure
                                   31676  1 2558.     *
                                   31677  1 2559.     * Set up the entry
                                   31678  1 2560.     *
 0040A8 90EC D00C            0000C 31679  1 2561.                STM   R14,R12,12(R13)         Save the input regs
 0040AC 186D                       31680  1 2562.                LR    RX,R13                  Copy input save area location
 0040AE 18AF                       31681  1 2563.                LR    BR,R15                  Copy entry point address
 USING  TXIT,R10                   31682  1 2564.                WITH  (TXIT,BR)               Use it as the Base
 0040B0 5870 1004            00004 31695  1 2565.                L     RY,@R1+4                Get the CPUB address
 0040B4                            31696  1 2566.                IF    (@RY,NE,'CPUB'),'KAPUT BADTIMP'
 0040B4 D503 A118 7000 041C0 00000 31706  1          +
 0040BA 4780 A026            040CE 31707  1          +
 0040BE 4110 0001            00001 31720  2          +
 0040C2 4100 0080            00080 31721  2          +
 0040C6 8900 0018/1610       00018 31722  2          +
 0040CC 0A0D                       31724  1          +
 USING  CPUB,R7                    31729  1 2567.                WITH  (CPUB,RY)
 0040CE 5890 70B8            000B8 31742  1 2568.                L     RTCBR,CPSTRTCB          Get the RTCB pointer
 0040D2 58C0 70B4            000B4 31743  1 2569.                L     WAR,CPSTSTK             Get the stack addr
 0040D6 41D0 C008            00008 31744  1 2570.                LA    SPR,@WAR+8              Point beyond it for top
                                   31745  1 2571.     *
                                   31746  1 2572.     * If profiling is active get the lock for the profile area
                                   31747  1 2573.     *
 0040DA 5850 7004            00004 31748  1 2574.                L     RK,CPGSTCT              Get the GSTC address
 USING  GSTCT,R5                   31749  1 2575.                WITH  (GSTCT,RK)
 0040DE 9180 5090      00090       31762  1 2576.                IF    GSTCPON,BEGIN           Profiling is active
 0040E2 47E0 A0BA            04162 31772  1          +
 0040E6 5800 5084            00084 31777  2 2577.                  LOCKOB GSTCPLCK               Get the lock
 USING  @LOCKS-72,R13
 0040EA 5000 D048            00000 31793  2          +
 0040EE 58F0 A11C/0DEF       041C4 31796  2          +
                                   31798  2 2578.     *
                                   31799  2 2579.     * Write out the desired info
                                   31800  2 2580.     *
 0040F4 5840 5080            00080 31801  2 2581.                  L     RJ,GSTCPLOC             Get the parm location
 USING  PROFPARM,R4                31802  2 2582.                  WITH  (PROFPARM,RJ),BEGIN
 0040F8 D200 4110 7067 00110 00067 31816  3 2583.                    MVC   PROFCPUA,CPCPUA+3       Move in the CPU address
 0040FE D200 4111 7150 00111 00150 31817  3 2584.                    MVC   PROFICOD,SIEICODE       Move in the ICODE
 004104 D201 4112 7156 00112 00156 31818  3 2585.                    MVC   PROFINST,SIEINST        And the instruction
 00410A D207 4118 7118 00118 00118 31819  3 2586.                    MVC   PROFPSW,SIEPSW          Move in the current PSW
 004110 B205 4120      00120       31820  3 2587.                    STCK  PROFTOD                 Then save the time
 USING  PSA,R0                     31821  3 2588.                    USING PSA,R0
 004114 58F0 021C            0021C 31830  3 2589.                    L     R15,PSATOLD             TCB for this task
1GSTINTF  (GSTI00) (09:40) (22MAR04) IHAPSAE  - PSA Extension (ESAME)                                                       Page  133
0Current Usings:  (PROFPARM,R4) (GSTCT,R5) (CPUB,R7) (TXIT,R10) (@LOCKS-72,R13)
0Loc    Object Code    Addr1 Addr2  Stmt Lv Lineno    Source Statement           (Hibal 5, Asmedit 3.3)  HLASM R4.0  2004/03/22 09.40
+___    ______ ____    _____ _____  ____ __ ______    ______ _________
0DROP   PSA,R0                     31831  3 2590.                    DROP  R0
 004118 58F0 F000            00020 31839  3 2591.                    WITH  (TCB,R15),'L  R15,TCBRBP'  Current RB (IRB)
 USING  TCB,R15
 DROP   TCB,R15
 USING  RBSECT,R15                 31863  3 2592.                    WITH  (RBSECT,R15),BEGIN
 00411C                            31877  4 2593.                      LOOP  BEGIN
 00411C 58F0 F01C            0005C 31883  5 2594.                        L     R15,RBLINK              Previous RB
 004120 54F0 A120            041C8 31884  5 2595.                        N     R15,=X'00FFFFFF'
 004124 9500 F00A      0004A       31885  4 2596.                      UNTIL (RBSTAB1.RBFTPRB,EQ),END
 004128 4770 A074            0411C 31905  4          +
 00412C D203 4114 F014 00114 00054 31911  4 2597.                      MVC   PROFHIA,RBOPSW+4        Copy instruction address
 DROP   RBSECT,R15                 31912  3 2598.                    END
 004132 4110 4014            00014 31920  3 2599.                    LA    RS,PAMPARM              Get the parm address
 USING  @AM24,R1                   31921  3 2600.                    WITH  (@AM24,RS),BEGIN
 004136 4100 40AC            000AC 31935  4 2601.                      LA    RVR,PDCB                Get the DCB address
 00413A 5000 1050            00050 31936  4 2602.                      ST    RVR,@AM24R1             It needs to be in R1
 00413E 4100 4110            00110 31937  4 2603.                      LA    RVR,PROFDATA            Get the data address
 004142 5000 104C            0004C 31938  4 2604.                      ST    RVR,@AM24R0             Put in R0
 004146 5800 40DC            000DC 31939  4 2605.                      L     RVR,PDCB+48             Load PUT routine address
 00414A 5000 1048            00048 31940  4 2606.                      ST    RVR,@AM24R15            Save it's entry point
 DROP   @AM24,R1                   31941  3 2607.                    END   ,
 00414E 41F0 4000            00000 31949  3 2608.                    LA    EPAR,PAM24              Get the starting addr
 004152 0CEF                       31950  3 2609.                    BASSM RAR,EPAR                Go do it
 DROP   PROFPARM,R4                31951  2 2610.                  END   ,
                                   31959  2 2611.     *
                                   31960  2 2612.     * Free the lock
                                   31961  2 2613.     *
 004154 5800 5084            00084 31962  2 2614.                  LOCKRL GSTCPLCK               Let someone else go
 004158 5000 D048            00000 31971  2          +
 00415C 58F0 A124/0DEF       041CC 31974  2          +
 004162                            31976  1 2615.                END   ,
                                   31980  1 2616.     *
                                   31981  1 2617.     * Wake up the CPU if it needs it
                                   31982  1 2618.     *
 DROP   @LOCKS-72,R13              31983  1 2619.                FPOST LA:CPECB                Post it
 USING  @FPOST-72,R13
 004162 D703 D048 D048 00000 00000 32004  1          +
 004168 41E0 705C            0005C 32009  1          +
 00416C 50E0 D048            00000 32010  1          +
 004170 58F0 A128/0DEF       041D0 32013  1          +
                                   32015  1 2620.     *
                                   32016  1 2621.     * Re-set the timer
                                   32017  1 2622.     *
                                   32018  1 2623.   C            STIMERM SET,ID=CPSTIMID,PARM=CPSTPARM,EXIT=TXIT,
 004176 4110 7094            00094        1 2624.                      MICVL=GSTCPINT,MF=(E,CPSTIMER)
 00417A D717 1000 1000 00000 00000 32022  1          +
 004180 9223 1000      00000       32023  1          +
 004184 9201 1003      00003       32024  1          +
 004188 41F0 70AC            000AC 32025  1          +
 00418C 50F0 1004            00004 32026  1          +
 004190 41F0 5088            00088 32027  1          +
 004194 50F0 1008            00008 32028  1          +
 004198 41F0 A000            040A8 32029  1          +
 00419C 50F0 100C            0000C 32030  1          +
1GSTINTF  (GSTI00) (09:40) (22MAR04) IHAPSAE  - PSA Extension (ESAME)                                                       Page  134
0Current Usings:  (GSTCT,R5) (CPUB,R7) (TXIT,R10) (@FPOST-72,R13)
0Loc    Object Code    Addr1 Addr2  Stmt Lv Lineno    Source Statement           (Hibal 5, Asmedit 3.3)  HLASM R4.0  2004/03/22 09.40
+___    ______ ____    _____ _____  ____ __ ______    ______ _________
00041A0 41F0 70B0            000B0 32031  1          +
 0041A4 D203 1010 F000 00010 00000 32032  1          +
 0041AA 4100 0004            00004 32033  1          +
 0041AE 8900 0018/0A2F       00018 32034  1          +
                                   32036  1 2625.     *
                                   32037  1 2626.     * Return to MVS
                                   32038  1 2627.     *
 0041B4 18D6                       32039  1 2628.                LR    R13,RX
 0041B6 98EC D00C            0000C 32040  1 2629.                LM    R14,R12,12(R13)
 0041BA 0B0E                       32041  1 2630.                BSM   0,R14                   Return to the caller
 DROP   GSTCT,R5                   32042    2631.              END   ,
 DROP   CPUB,R7
 DROP   TXIT,R10
-
 0041C0                            32062    2633.              LTORG ,
 0041C0 C3D7E4C2                   32064                             =C'CPUB'
 0041C4 00000000                   32065                             =V(LOCKOB)
 0041C8 00FFFFFF                   32066                             =X'00FFFFFF'
 0041CC 00000000                   32067                             =V(LOCKREL)
 0041D0 00000000       041D4 08402 32068                             =V(FPOST)
1GSTINTF  (GSTI00) (09:40) (22MAR04) IHAPSAE  - PSA Extension (ESAME)                                                       Page  135
0Current Usings:  (@FPOST-72,R13)
0Loc    Object Code    Addr1 Addr2  Stmt Lv Lineno    Source Statement           (Hibal 5, Asmedit 3.3)  HLASM R4.0  2004/03/22 09.40
+___    ______ ____    _____ _____  ____ __ ______    ______ _________
0                                  32073    2635.     *******************************************************************
                                   32074    2636.     *                                                                 *
                                   32075    2637.     *     IXSIGP - Routine to interpret Signal processor.             *
                                   32076    2638.     *                                                                 *
                                   32077    2639.     *                                                                 *
                                   32078    2640.     *      Input - INTERP -- contains the address of the CPUB         *
                                   32079    2641.     *                                                                 *
                                   32080    2642.     *     Output - none                                               *
                                   32081    2643.     *                                                                 *
                                   32082    2644.     *******************************************************************
-000000                00000 00004 32084    2646.     INTERP   RECORD BEGIN
 000000                            32092  1 2647.     INTCPUB    DS    A             Address of the CPUB
 000004                00004 00004 32093    2648.              END   ,
-0041D4                            32103    2650.     IXSIGP   PROC  INTERP,SCOPE=LOCAL
 0041D4 C9E7E2C9C7D74040           32108             +
 0041DC 0008/0000                  32109             +
 0041E0 900F D004/18AF       00004 32111             +
 USING  IXSIGP,R10
 0041E6 50D0 C000/18CD       00000 32126             +
 0041EC 9680 C000      00000       32128             +
 USING  INTERP-72,R12
 0041F0 41D0 C050            00050 32142             +
 0041F4 5870 C048            00000 32143    2651.              L     RY,INTCPUB              Parm is the CPUB pointer
 USING  CPUB,R7                    32144    2652.              WITH  (CPUB,RY)
 0041F8 5860 7004            00004 32157    2653.              L     RX,CPGSTCT              Address of the GSTCT
 USING  GSTCT,R6                   32158    2654.              WITH  (GSTCT,RX)
                                   32171    2655.     *
                                   32172    2656.     * Get the CPU address it is indended for
                                   32173    2657.     *
 0041FC 4820 7156            00156 32174    2658.              LH    RA,SIEINST              Bits 0-15 of the instruction
 004200 5420 AE18            04FF8 32175    2659.              N     RA,=X'0000000F'         Leave only the R3 field
 004204 5920 AE1C            04FFC 32176    2660.              LREGA RA,(RA)                 Address of the register
 004208 4720 A038            04218 32182             +
 00420C 4740 A040            04220 32183             +
 004210 4120 7110            00110 32184             +
 004214 47F0 A048            04228 32185             +
 004218 4120 7114            00114 32186             +
 00421C 47F0 A048            04228 32187             +
 004220 8920 0002            00002 32188             +
 004224 4122 70BC            000BC 32189             +
 004228 5820 2000            00000 32192    2661.              L     RA,@RA                  Get the CPU address
 00422C 5420 AE20            05000 32193    2662.              N     RA,=X'0000FFFF'         Mask out other bits
                                   32194    2663.     *
                                   32195    2664.     * Get the CPUB corresponding to that CPU address
                                   32196    2665.     *
 004230 5920 6004            00004 32197    2666.              IF    (RA,GE,GSTCNCPU),SIGPCC3  Not operational
 004234 47A0 A398            04578 32211             +
                                   32217    2667.
 004238 8920 0002            00002 32218    2668.              SLL   RA,2                    Size of an entry in cpu table
 00423C 5822 6038            00038 32219    2669.              L     RA,GSTCCPUS(RA)         Get the address of the CPUB
1GSTINTF  (GSTI00) (09:40) (22MAR04) IHAPSAE  - PSA Extension (ESAME)                                                       Page  136
0Current Usings:  (GSTCT,R6) (CPUB,R7) (IXSIGP,R10) (INTERP-72,R12) (@FPOST-72,R13)
0Loc    Object Code    Addr1 Addr2  Stmt Lv Lineno    Source Statement           (Hibal 5, Asmedit 3.3)  HLASM R4.0  2004/03/22 09.40
+___    ______ ____    _____ _____  ____ __ ______    ______ _________
0                                  32220    2670.     *
                                   32221    2671.     * Get the order code
                                   32222    2672.     *
 004240 9180 7151      00151       32223    2673.              GETICAD RS,TYPE=RS                      Get the code
 004244 47E0 A0AE            0428E 32234             +
 004248 4810 7158            00158 32239  1          +
 00424C 8910 0010/18F1       00010 32240  1          +
 004252 8810 001C/1211       0001C 32242  1          +
 004258 4780 A0A4            04284 32252  1          +
 00425C 5910 AE1C            04FFC 32262  2          +
 004260 4720 A090            04270 32263  2          +
 004264 4740 A098            04278 32264  2          +
 004268 4110 7110            00110 32265  2          +
 00426C 47F0 A0A0            04280 32266  2          +
 004270 4110 7114            00114 32267  2          +
 004274 47F0 A0A0            04280 32268  2          +
 004278 8910 0002            00002 32269  2          +
 00427C 4111 70BC            000BC 32270  2          +
 004280 5810 1000            00000 32273  1          +
 004284 89F0 0004            00004 32278  1          +
 004288 88F0 0014/1E1F       00014 32279             +
 004246 A0B2           04248 0428E 32288             +
 00428E 47F0 A0B6            04296 32290             +
 004292 5810 7158            00158 32296             +
                                   32301    2674.     *        LC    RS,SIEICAD1+3           Bits 24-31 of eff address
 004296 8910 0002            00002 32302    2675.              SLL   RS,2                    Size for branch table
 00429A 5910 AE24            05004 32303    2676.              IF    (RS,GE,SIGPMAX),BADSIGP If it is too big...
 00429E 47A0 A0FE            042DE 32317             +
 0042A2 47F1 A0C6            042A6 32323    2677.              B     SIGPTAB(RS)             Go to the proper routine
                                   32324    2678.
 0042A6 47F0 A0FE            042DE 32325    2679.     SIGPTAB  B     BADSIGP                 00 Unassigned
 0042AA 47F0 A276            04456 32326    2680.              B     SGSENSE                 01 Sense
 0042AE 47F0 A1DA            043BA 32327    2681.              B     SGEXTC                  02 External Call
 0042B2 47F0 A220            04400 32328    2682.              B     SGEMERS                 03 Emergency Signal
 0042B6 47F0 A106            042E6 32329    2683.              B     SGSTART                 04 Start
 0042BA 47F0 A136            04316 32330    2684.              B     SGSTOP                  05 Stop
 0042BE 47F0 A184            04364 32331    2685.              B     SGRSTRT                 06 Restart
 0042C2 47F0 A0FE            042DE 32332    2686.              B     BADSIGP                 07 Unassigned
 0042C6 47F0 A0FE            042DE 32333    2687.              B     BADSIGP                 08 Unassigned
 0042CA 47F0 A0FE            042DE 32334    2688.              B     BADSIGP                 09 Stop and store status
 0042CE 47F0 A0FE            042DE 32335    2689.              B     BADSIGP                 0A Unassigned
 0042D2 47F0 A0FE            042DE 32336    2690.              B     BADSIGP                 0B Initial CPU reset
 0042D6 47F0 A0FE            042DE 32337    2691.              B     BADSIGP                 0C CPU reset
 0042DA 47F0 A296            04476 32338    2692.              B     SGSTPX                  0D Set prefix
                                   32339    2693.     SIGPMAX  EQU   *-SIGPTAB
1GSTINTF  (GSTI00) (09:40) (22MAR04) IHAPSAE  - PSA Extension (ESAME)                                                       Page  137
0Current Usings:  (GSTCT,R6) (CPUB,R7) (IXSIGP,R10) (INTERP-72,R12) (@FPOST-72,R13)
0Loc    Object Code    Addr1 Addr2  Stmt Lv Lineno    Source Statement           (Hibal 5, Asmedit 3.3)  HLASM R4.0  2004/03/22 09.40
+___    ______ ____    _____ _____  ____ __ ______    ______ _________
0                                  32341    2695.     *
                                   32342    2696.     * BADSIGP -- Handles all the SIGP orders we don't handle.
                                   32343    2697.     *
00042DE                            32345    2699.     BADSIGP  LABEL ,
 0042DE 5800 AE28            05008 32347    2700.              L     RVR,=A(SIGPINVO)        Invalid order
 0042E2 47F0 A352            04532 32348    2701.              B     SIGPCC1                 Store the status
-
                                   32350    2703.     *
                                   32351    2704.     * SGSTART -- Handles the START order.
                                   32352    2705.     *
00042E6                            32354    2707.     SGSTART  LABEL ,
 DROP   CPUB,R7                    32356    2708.              WITH  (CPUB,RA),BEGIN         Look at his CPUB
 USING  CPUB,R2
                                   32378  1 2709.     *
                                   32379  1 2710.     * Put it in the operational state
                                   32380  1 2711.     *
 0042E6 58F0 2060            00060 32381  1 2712.                SET   CPCSRUN,MODE=LOCKED,REF=CPUB
 0042EA 4110 0080            00080 32388  1          +
 0042EE 8910 0018/180F       00018 32389  1          +
 0042F4 1601/BAF0 2060       00060 32391  1          +
 0042FA 4770 A112            042F2 32394  1          +
 0042FE                            32395  1 2713.                FPOST LA:CPECB                Wake it up
 0042FE D703 D048 D048 00000 00000 32406  1          +
 004304 41E0 205C            0005C 32411  1          +
 004308 50E0 D048            00000 32412  1          +
 00430C 58F0 AE2C/0DEF       0500C 32415  1          +
 USING  CPUB,R7                    32417    2714.              END   ,
 DROP   CPUB,R2
 004312 47F0 A3AC            0458C 32434    2715.              B     SIGPCC0
1GSTINTF  (GSTI00) (09:40) (22MAR04) IHAPSAE  - PSA Extension (ESAME)                                                       Page  138
0Current Usings:  (GSTCT,R6) (CPUB,R7) (IXSIGP,R10) (INTERP-72,R12) (@FPOST-72,R13)
0Loc    Object Code    Addr1 Addr2  Stmt Lv Lineno    Source Statement           (Hibal 5, Asmedit 3.3)  HLASM R4.0  2004/03/22 09.40
+___    ______ ____    _____ _____  ____ __ ______    ______ _________
0                                  32436    2717.     *
                                   32437    2718.     * SGSTOP -- Handles the STOP order.
                                   32438    2719.     *
0004316                            32440    2721.     SGSTOP   LABEL ,
 DROP   CPUB,R7                    32442    2722.              WITH  (CPUB,RA),BEGIN
 USING  CPUB,R2
                                   32464  1 2723.     *
                                   32465  1 2724.     * Take it out of the operational state
                                   32466  1 2725.     *
 00504E 7F             0504E 08402 32467  1 2726.                CLEAR CPCSRUN,MODE=LOCKED,REF=CPUB
 004316 41F0 0001/111F       00001 32487  1          +
 00431C 89F0 0003            00003 32489  1          +
 004320 44F0 AE70            05050 32491  1          +
 00504F 00/BF10 AE6E         0504E        1          +
 004324 58F0 2060/180F       00060 32506  1          +
 00432A 1401/BAF0 2060       00060 32508  1          +
 004330 4770 A148            04328 32511  1          +
                                   32512  1 2727.     *
                                   32513  1 2728.     * Set the stop intervention bit
                                   32514  1 2729.     *
 004334 58F0 2100            00100 32515  1 2730.                SET   SIEIPSTP,MODE=LOCKED,REF=SIEDATA
 004338 4110 0004            00004 32522  1          +
 00433C 8910 0018/180F       00018 32523  1          +
 004342 1601/BAF0 2100       00100 32525  1          +
 004348 4770 A160            04340 32528  1          +
 00434C                            32529  1 2731.                FPOST LA:CPECB                Then wake it up
 00434C D703 D048 D048 00000 00000 32540  1          +
 004352 41E0 205C            0005C 32545  1          +
 004356 50E0 D048            00000 32546  1          +
 00435A 58F0 AE2C/0DEF       0500C 32549  1          +
 USING  CPUB,R7                    32551    2732.              END   ,
 DROP   CPUB,R2
 004360 47F0 A3AC            0458C 32568    2733.              B     SIGPCC0
1GSTINTF  (GSTI00) (09:40) (22MAR04) IHAPSAE  - PSA Extension (ESAME)                                                       Page  139
0Current Usings:  (GSTCT,R6) (CPUB,R7) (IXSIGP,R10) (INTERP-72,R12) (@FPOST-72,R13)
0Loc    Object Code    Addr1 Addr2  Stmt Lv Lineno    Source Statement           (Hibal 5, Asmedit 3.3)  HLASM R4.0  2004/03/22 09.40
+___    ______ ____    _____ _____  ____ __ ______    ______ _________
0                                  32570    2735.     *
                                   32571    2736.     * SGRSTRT -- Handles the restart order.
                                   32572    2737.     *
0004364                            32574    2739.     SGRSTRT  LABEL ,
 004364 5810 7064            00064 32576    2740.              L     RS,CPCPUA               Get our cpu address
 DROP   CPUB,R7                    32577    2741.              WITH  (CPUB,RA),BEGIN
 USING  CPUB,R2
                                   32599  1 2742.     *
                                   32600  1 2743.     * Signal that the restart is to take place.
                                   32601  1 2744.     *
 004368 1B33                       32602  1 2745.                CLEAR RB
 00436A BA31 2088            00088 32606  1 2746.                CS    RB,RS,CPRSTRT           Signal a restart from us
 00436E 4770 A3A0            04580 32607  1 2747.                IF    NZ,SIGPCC2              Someone already has -- busy
                                   32621  1 2748.     *
                                   32622  1 2749.     * Make sure it is in the operational state
                                   32623  1 2750.     *
 004372 58F0 2060            00060 32624  1 2751.                SET   CPCSRUN,MODE=LOCKED,REF=CPUB
 004376 4110 0080            00080 32631  1          +
 00437A 8910 0018/180F       00018 32632  1          +
 004380 1601/BAF0 2060       00060 32634  1          +
 004386 4770 A19E            0437E 32637  1          +
                                   32638  1 2752.     *
                                   32639  1 2753.     * Then make sure if it is running that it will see our efforts
                                   32640  1 2754.     *
 00438A 58F0 2100            00100 32641  1 2755.                SET   SIEIPSTP,MODE=LOCKED,REF=SIEDATA
 00438E 4110 0004            00004 32648  1          +
 004392 8910 0018/180F       00018 32649  1          +
 004398 1601/BAF0 2100       00100 32651  1          +
 00439E 4770 A1B6            04396 32654  1          +
                                   32655  1 2756.     *
                                   32656  1 2757.     * And that if it is not running that it will wake up to them
                                   32657  1 2758.     *
 0043A2                            32658  1 2759.                FPOST LA:CPECB                Then wake it up
 0043A2 D703 D048 D048 00000 00000 32669  1          +
 0043A8 41E0 205C            0005C 32674  1          +
 0043AC 50E0 D048            00000 32675  1          +
 0043B0 58F0 AE2C/0DEF       0500C 32678  1          +
 0043B6 47F0 A3AC            0458C 32680  1 2760.                B     SIGPCC0                 All done -- CC 0
 USING  CPUB,R7                    32681    2761.              END   ,
 DROP   CPUB,R2
1GSTINTF  (GSTI00) (09:40) (22MAR04) IHAPSAE  - PSA Extension (ESAME)                                                       Page  140
0Current Usings:  (GSTCT,R6) (CPUB,R7) (IXSIGP,R10) (INTERP-72,R12) (@FPOST-72,R13)
0Loc    Object Code    Addr1 Addr2  Stmt Lv Lineno    Source Statement           (Hibal 5, Asmedit 3.3)  HLASM R4.0  2004/03/22 09.40
+___    ______ ____    _____ _____  ____ __ ______    ______ _________
0                                  32699    2763.     *
                                   32700    2764.     * SGEXTC -- Handles the External Call order
                                   32701    2765.     *
00043BA                            32703    2767.     SGEXTC   LABEL ,
 0043BA 5810 7064            00064 32705    2768.              L     RS,CPCPUA               Get our CPU address
 DROP   CPUB,R7                    32706    2769.              WITH  (CPUB,RA),BEGIN
 USING  CPUB,R2
                                   32728  1 2770.     *
                                   32729  1 2771.     * Signal the receiver
                                   32730  1 2772.     *
 0043BE 1B33                       32731  1 2773.                CLEAR RB
 0043C0 BA31 2080            00080 32735  1 2774.                CS    RB,RS,CPEXCALL          Swap in our id
 0043C4 4780 A1F0            043D0 32736  1 2775.                IF    NZ,BEGIN                He is busy with another req
 0043C8 5800 AE30            05010 32747  2 2776.                  L     RVR,=A(SIGPEXCP)        External call pending code
 0043CC 47F0 A352            04532 32748  2 2777.                  B     SIGPCC1                 Store the status
 0043D0                            32749  1 2778.                END   ,
                                   32753  1 2779.     *
                                   32754  1 2780.     * Now we make sure that he will be interrupted when he enables
                                   32755  1 2781.     *
 0043D0 58F0 2100            00100 32756  1 2782.                SET   SIEIPEXT,MODE=LOCKED,REF=SIEDATA
 0043D4 4110 0001            00001 32763  1          +
 0043D8 8910 0018/180F       00018 32764  1          +
 0043DE 1601/BAF0 2100       00100 32766  1          +
 0043E4 4770 A1FC            043DC 32769  1          +
                                   32770  1 2783.     *
                                   32771  1 2784.     * Then we make sure he wakes up if he is asleep
                                   32772  1 2785.     *
 0043E8                            32773  1 2786.                FPOST LA:CPECB
 0043E8 D703 D048 D048 00000 00000 32784  1          +
 0043EE 41E0 205C            0005C 32789  1          +
 0043F2 50E0 D048            00000 32790  1          +
 0043F6 58F0 AE2C/0DEF       0500C 32793  1          +
 0043FC 47F0 A3AC            0458C 32795  1 2787.                B     SIGPCC0                 All done.  CC 0
 USING  CPUB,R7                    32796    2788.              END   ,
 DROP   CPUB,R2
1GSTINTF  (GSTI00) (09:40) (22MAR04) IHAPSAE  - PSA Extension (ESAME)                                                       Page  141
0Current Usings:  (GSTCT,R6) (CPUB,R7) (IXSIGP,R10) (INTERP-72,R12) (@FPOST-72,R13)
0Loc    Object Code    Addr1 Addr2  Stmt Lv Lineno    Source Statement           (Hibal 5, Asmedit 3.3)  HLASM R4.0  2004/03/22 09.40
+___    ______ ____    _____ _____  ____ __ ______    ______ _________
0                                  32814    2790.     *
                                   32815    2791.     * SGEMERS -- Handles the Emergency Signal order.
                                   32816    2792.     *
 004400                            32817    2793.     SGEMERS  LABEL ,
 004400 4110 0001            00001 32819    2794.              LA    RS,1                    Get a low order one bit
 004404 5830 7064            00064 32820    2795.              L     RB,CPCPUA               Get the cpu address
 004408 8910 3000            00000 32821    2796.              SLL   RS,@RB                  Shift it into position
 DROP   CPUB,R7                    32822    2797.              WITH  (CPUB,RA),BEGIN
 USING  CPUB,R2
                                   32844  1 2798.     *
                                   32845  1 2799.     * Turn on our bit
                                   32846  1 2800.     *
 00440C 5830 2084            00084 32847  1 2801.                L     RB,CPEMERG              Get current bit map
 004410 1431                       32848  1 2802.                NR    RB,RS                   Is it on now?
 004412 4770 A3AC            0458C 32849  1 2803.                IF    NZ,SIGPCC0              If so then we are done
 004416 5830 2084            00084 32863  1 2804.                L     RB,CPEMERG              Get current stuff back
 00441A                            32864  1 2805.                LOOP  BEGIN
 00441A 1843                       32870  2 2806.                  LR    RJ,RB
 00441C 1641                       32871  2 2807.                  OR    RJ,RS
 00441E BA34 2084            00084 32872  2 2808.                  CS    RB,RJ,CPEMERG           Turn the bit on
 004422 4770 A23A            0441A 32873  1 2809.                UNTIL Z,END                   No matter the interference
                                   32892  1 2810.     *
                                   32893  1 2811.     * Signal the external interruption...
                                   32894  1 2812.     *
 004426 58F0 2100            00100 32895  1 2813.                SET   SIEIPEXT,MODE=LOCKED,REF=SIEDATA
 00442A 4110 0001            00001 32902  1          +
 00442E 8910 0018/180F       00018 32903  1          +
 004434 1601/BAF0 2100       00100 32905  1          +
 00443A 4770 A252            04432 32908  1          +
                                   32909  1 2814.     *
                                   32910  1 2815.     * Then make sure he's awake.
                                   32911  1 2816.     *
 00443E                            32912  1 2817.                FPOST LA:CPECB
 00443E D703 D048 D048 00000 00000 32923  1          +
 004444 41E0 205C            0005C 32928  1          +
 004448 50E0 D048            00000 32929  1          +
 00444C 58F0 AE2C/0DEF       0500C 32932  1          +
 004452 47F0 A3AC            0458C 32934  1 2818.                B     SIGPCC0                 All done.  CC 0
 USING  CPUB,R7                    32935    2819.              END   ,
 DROP   CPUB,R2
1GSTINTF  (GSTI00) (09:40) (22MAR04) IHAPSAE  - PSA Extension (ESAME)                                                       Page  142
0Current Usings:  (GSTCT,R6) (CPUB,R7) (IXSIGP,R10) (INTERP-72,R12) (@FPOST-72,R13)
0Loc    Object Code    Addr1 Addr2  Stmt Lv Lineno    Source Statement           (Hibal 5, Asmedit 3.3)  HLASM R4.0  2004/03/22 09.40
+___    ______ ____    _____ _____  ____ __ ______    ______ _________
0                                  32953    2821.     *
                                   32954    2822.     * SGSENSE -- This handles the Sense order.
                                   32955    2823.     *
0004456                            32957    2825.     SGSENSE  LABEL ,
 DROP   CPUB,R7                    32959    2826.              WITH  (CPUB,RA),BEGIN
 USING  CPUB,R2
 004456 1B00                       32981  1 2827.                CLEAR RVR                     Initial status is 0
 004458 9180 2060      00060       32985  1 2828.                IF    ~CPCSRUN,'O RVR,=A(SIGPSTOP)'     stopped
 00445C 4710 A284            04464 32995  1          +
 004460 5600 AE34            05014 33001  1          +
 004464 5810 2080            00080 33006  1 2829.                L     RS,CPEXCALL
 004468 1211/4780 A292       04472 33007  1 2830.                IF    (RS,NZ),'O RVR,=A(SIGPEXCP)'      ext call pending
 00446E 5600 AE30            05010 33022  1          +
 004472 47F0 A352            04532 33027  1 2831.                B     SIGPCC1                 Store status
 USING  CPUB,R7                    33028    2832.              END   ,
 DROP   CPUB,R2
1GSTINTF  (GSTI00) (09:40) (22MAR04) IHAPSAE  - PSA Extension (ESAME)                                                       Page  143
0Current Usings:  (GSTCT,R6) (CPUB,R7) (IXSIGP,R10) (INTERP-72,R12) (@FPOST-72,R13)
0Loc    Object Code    Addr1 Addr2  Stmt Lv Lineno    Source Statement           (Hibal 5, Asmedit 3.3)  HLASM R4.0  2004/03/22 09.40
+___    ______ ____    _____ _____  ____ __ ______    ______ _________
0                                  33046    2834.     *
                                   33047    2835.     * SGSTPX -- This handles the Set prefix order.
                                   33048    2836.     *
0004476                            33050    2838.     SGSTPX   LABEL ,
                                   33052    2839.     *
                                   33053    2840.     * Get the desired prefix
                                   33054    2841.     *
 004476 4810 7156            00156 33055    2842.              LH    RS,SIEINST              Bits 0-16 of the instruction
 00447A 8810 0004            00004 33056    2843.              SRL   RS,4                    Get R1 field in low spot
 00447E 5410 AE38            05018 33057    2844.              N     RS,=X'0000000E'         Get even reg
 004482 4110 1001            00001 33058    2845.              LA    RS,@RS+1                Get the odd register (parm)
 004486 5910 AE1C            04FFC 33059    2846.              LREGA RS,(RS)                 Get address of the register
 00448A 4720 A2BA            0449A 33065             +
 00448E 4740 A2C2            044A2 33066             +
 004492 4110 7110            00110 33067             +
 004496 47F0 A2CA            044AA 33068             +
 00449A 4110 7114            00114 33069             +
 00449E 47F0 A2CA            044AA 33070             +
 0044A2 8910 0002            00002 33071             +
 0044A6 4111 70BC            000BC 33072             +
 0044AA 5810 1000            00000 33075    2847.              L     RS,@RS                  Get the prefix value
 0044AE 5410 AE3C            0501C 33076    2848.              N     RS,=X'7FFFF000'         Don't care about other junk
 0044B2 5830 7064            00064 33077    2849.              L     RB,CPCPUA               Get our CPU address
                                   33078    2850.     *
                                   33079    2851.     * Check on the Addressed CPU
                                   33080    2852.     *
 DROP   CPUB,R7                    33081    2853.              WITH  (CPUB,RA),BEGIN
 USING  CPUB,R2
                                   33103  1 2854.     *
                                   33104  1 2855.     * First lock out other Set prefix orders
                                   33105  1 2856.     *
 0044B6 1B00                       33106  1 2857.                CLEAR RVR
 0044B8 BA03 208C            0008C 33110  1 2858.                CS    RVR,RB,CPSPFX           Glom onto it
 0044BC 4770 A3A0            04580 33111  1 2859.                IF    NZ,SIGPCC2              It is busy
                                   33125  1 2860.     *
                                   33126  1 2861.     * Check the state of the addressed CPU
                                   33127  1 2862.     *
 0044C0 9180 2060      00060       33128  1 2863.                IF    CPCSRUN,BEGIN           CPU is running
 0044C4 47E0 A2F0            044D0 33138  1          +
 0044C8 5800 AE40            05020 33143  2 2864.                  L     RVR,=A(SIGPICST)        Incorrect state status
 0044CC 47F0 A352            04532 33144  2 2865.                  B     SIGPCC1
 0044D0                            33145  1 2866.                END   ,
                                   33149  1 2867.     *
                                   33150  1 2868.     * Check on the status of the page
                                   33151  1 2869.     *
 0044D0 5910 2014            00014 33152  1 2870.                IF    (RS,GE,CPCLEN),BEGIN    Higher than high core
 0044D4 4750 A300            044E0 33164  1          +
 0044D8 5800 AE44            05024 33169  2 2871.                  L     RVR,=A(SIGPINVP)        Invalid parm
 0044DC 47F0 A352            04532 33170  2 2872.                  B     SIGPCC1                 Go store the status
 0044E0                            33171  1 2873.                END   ,
                                   33175  1 2874.     *
                                   33176  1 2875.     * Store the prefix
                                   33177  1 2876.     *
1GSTINTF  (GSTI00) (09:40) (22MAR04) IHAPSAE  - PSA Extension (ESAME)                                                       Page  144
0Current Usings:  (CPUB,R2) (GSTCT,R6) (IXSIGP,R10) (INTERP-72,R12) (@FPOST-72,R13)
0Loc    Object Code    Addr1 Addr2  Stmt Lv Lineno    Source Statement           (Hibal 5, Asmedit 3.3)  HLASM R4.0  2004/03/22 09.40
+___    ______ ____    _____ _____  ____ __ ______    ______ _________
00044E0 5010 2104            00104 33178  1 2877.                ST    RS,SIEPREFX             Save prefix register
 0044E4 5A10 2010            00010 33179  1 2878.                A     RS,CPCORE               Get MVS address of PSA
 0044E8 5830 2070            00070 33180  1 2879.                L     RB,CPPSALOC             Get old PSA address
 0044EC 5010 2070            00070 33181  1 2880.                ST    RS,CPPSALOC             Update that value as well
                                   33182  1 2881.     *
                                   33183  1 2882.     * First unfix the old PSA page
                                   33184  1 2883.     *
 DROP   @FPOST-72,R13              33185  1 2884.                PSET  @FIXPARM
 USING  @FIXPARM-72,R13
 0044F0 D708 D048 D048 00000 00000 33205  1          +
 0044F6 5030 D048            00000 33206  1 2885.                ST    RB,@FIXLOC
 0044FA D203 D04C AE48 00004 05028 33207  1 2886.                MVC   @FIXLEN,=A(4096)
 004500 58F0 AE4C/0DEF       0502C 33208  1 2887.                VCALL PAGEFREE                Free the old one
                                   33212  1 2888.     *
                                   33213  1 2889.     * Then fix the new one
                                   33214  1 2890.     *
 004506 D203 D048 2070 00000 00070 33215  1 2891.                MVC   @FIXLOC,CPPSALOC
 00450C D203 D04C AE48 00004 05028 33216  1 2892.                MVC   @FIXLEN,=A(4096)
 004512 58F0 AE50/0DEF       05030 33217  1 2893.                VCALL PAGEFIX                 Fix the new one
 004518 4100 2000            00000 33221  1 2894.                LA    R0,CPUB
 00451C 58F0 AE54/0DEF       05034 33222  1 2895.                ACALL SETCLOC2                Set local time
                                   33229  1 2896.     *
                                   33230  1 2897.     * Finally cause the TLB to be purged
                                   33231  1 2898.     *
 004522 D201 2152 AE68 00152 05048 33232  1 2899.                MVC   SIEIHCPU,=X'FFFF'       Cause a PTLB function
                                   33233  1 2900.     *
                                   33234  1 2901.     * Release the interlock
                                   33235  1 2902.     *
 004528 1B11                       33236  1 2903.                CLEAR RS
 00452A 5010 208C            0008C 33240  1 2904.                ST    RS,CPSPFX               Allow others in
 00452E 47F0 A3AC            0458C 33241  1 2905.                B     SIGPCC0
 USING  CPUB,R7                    33242    2906.              END   ,
 DROP   CPUB,R2
1GSTINTF  (GSTI00) (09:40) (22MAR04) IHAPSAE  - PSA Extension (ESAME)                                                       Page  145
0Current Usings:  (GSTCT,R6) (CPUB,R7) (IXSIGP,R10) (INTERP-72,R12) (@FIXPARM-72,R13)
0Loc    Object Code    Addr1 Addr2  Stmt Lv Lineno    Source Statement           (Hibal 5, Asmedit 3.3)  HLASM R4.0  2004/03/22 09.40
+___    ______ ____    _____ _____  ____ __ ______    ______ _________
0                                  33260    2908.     *
                                   33261    2909.     * SIGPCC1 -- This stores the status passed in RVR in the guest
                                   33262    2910.     *            register specified by R1 in the SIGP instruction unless
                                   33263    2911.     *            RVR contains 0.  If RVR contains zero then no status is
                                   33264    2912.     *            stored and we go to SIGPCC0 to set a zero condition
                                   33265    2913.     *            code.  If status is stored, we set the condition code
                                   33266    2914.     *            to 1.
0004532 1200/4780 A3AC       0458C 33268    2916.     SIGPCC1  IF    (RVR,Z),SIGPCC0         All zero status
                                   33286    2917.     *
                                   33287    2918.     * Extract the R1 field of the Instruction
                                   33288    2919.     *
 004538 4810 7156            00156 33289    2920.              LH    RS,SIEINST              bits 0-15 of the instruction
 00453C 8810 0004            00004 33290    2921.              SRL   RS,4                    Put R1 field into low end
 004540 5410 AE18            04FF8 33291    2922.              N     RS,=X'0000000F'         Mask it out
 004544 5910 AE1C            04FFC 33292    2923.              LREGA RS,(RS)                 Get the Register address
 004548 4720 A378            04558 33298             +
 00454C 4740 A380            04560 33299             +
 004550 4110 7110            00110 33300             +
 004554 47F0 A388            04568 33301             +
 004558 4110 7114            00114 33302             +
 00455C 47F0 A388            04568 33303             +
 004560 8910 0002            00002 33304             +
 004564 4111 70BC            000BC 33305             +
 004568 5000 1000            00000 33308    2924.              ST    RVR,@RS                 Save the status
 00456C 94CF 711A      0011A       33309    2925.              NI    SIEPSW+2,X'CF'          Clear the CC
 004570 9610 711A      0011A       33310    2926.              OI    SIEPSW+2,X'10'          Then make it 1
 004574 47F0 A3B0            04590 33311    2927.              EXIT  IXSIGP
1GSTINTF  (GSTI00) (09:40) (22MAR04) IHAPSAE  - PSA Extension (ESAME)                                                       Page  146
0Current Usings:  (GSTCT,R6) (CPUB,R7) (IXSIGP,R10) (INTERP-72,R12) (@FIXPARM-72,R13)
0Loc    Object Code    Addr1 Addr2  Stmt Lv Lineno    Source Statement           (Hibal 5, Asmedit 3.3)  HLASM R4.0  2004/03/22 09.40
+___    ______ ____    _____ _____  ____ __ ______    ______ _________
0                                  33315    2929.     *
                                   33316    2930.     * SIGPCC3 -- This sets the condition code to 3 to indicate that a
                                   33317    2931.     *            not operational CPU was addressed by the SIGP inst.
                                   33318    2932.     *
0004578 9630 711A      0011A       33320    2934.     SIGPCC3  OI    SIEPSW+2,X'30'          Make the CC 3
 00457C 47F0 A3B0            04590 33321    2935.              EXIT  IXSIGP                  All done here
-
                                   33325    2937.     *
                                   33326    2938.     * SIGPCC2 -- This sets the condition code to 2 to indicate that a
                                   33327    2939.     *            busy condition was encountered and that the order could
                                   33328    2940.     *            not be carried out.
                                   33329    2941.     *
0004580 94CF 711A      0011A       33331    2943.     SIGPCC2  NI    SIEPSW+2,X'CF'          Clear the CC
 004584 9620 711A      0011A       33332    2944.              OI    SIEPSW+2,X'20'          Then make it 2
 004588 47F0 A3B0            04590 33333    2945.              EXIT  IXSIGP
-
                                   33337    2947.     *
                                   33338    2948.     * SIGPCC0 -- This sets the condition code to 0 to indicate that the
                                   33339    2949.     *            instruction completed without error and that no status
                                   33340    2950.     *            information was put in the register.
                                   33341    2951.     *
000458C 94CF 711A      0011A       33343    2953.     SIGPCC0  NI    SIEPSW+2,X'CF'          CC zero
0004590 981F C008            00008 33345    2955.              PEND
 DROP   GSTCT,R6
 DROP   CPUB,R7
 DROP   INTERP-72,R12
 DROP   IXSIGP,R10
 004594 9680 C000/0B0E 00000       33370             +
 DROP   @FIXPARM-72,R13
                                   33379    2956.     *
                                   33380    2957.     * SIGP status bit definitions
                                   33381    2958.     *
                                   33382    2959.     SIGPINVO EQU   X'00000002'
                                   33383    2960.     SIGPEXCP EQU   X'00000080'
                                   33384    2961.     SIGPSTOP EQU   X'00000040'
                                   33385    2962.     SIGPICST EQU   X'00000200'
                                   33386    2963.     SIGPINVP EQU   X'00000100'
1GSTINTF  (GSTI00) (09:40) (22MAR04) IHAPSAE  - PSA Extension (ESAME)                                                       Page  147
0Loc    Object Code    Addr1 Addr2  Stmt Lv Lineno    Source Statement           (Hibal 5, Asmedit 3.3)  HLASM R4.0  2004/03/22 09.40
+___    ______ ____    _____ _____  ____ __ ______    ______ _________
0                                  33388    2965.     *******************************************************************
                                   33389    2966.     *                                                                 *
                                   33390    2967.     *     IXSTAP - Routine to interpret Store CPU address.            *
                                   33391    2968.     *                                                                 *
                                   33392    2969.     *                                                                 *
                                   33393    2970.     *      Input - INTERP -- contains the address of the CPUB         *
                                   33394    2971.     *                                                                 *
                                   33395    2972.     *     Output - none                                               *
                                   33396    2973.     *                                                                 *
                                   33397    2974.     *******************************************************************
-00459A                            33399    2976.     IXSTAP   PROC  INTERP,SCOPE=LOCAL
 00459A C9E7E2E3C1D74040           33404             +
 0045A2 0008/0000                  33405             +
 0045A6 900F D004/18AF       00004 33407             +
 USING  IXSTAP,R10
 0045AC 50D0 C000/18CD       00000 33422             +
 0045B2 9680 C000      00000       33424             +
 USING  INTERP-72,R12
 0045B6 41D0 C050            00050 33438             +
 0045BA 5870 C048            00000 33439    2977.              L     RY,INTCPUB              Parm is the CPUB pointer
 USING  CPUB,R7                    33440    2978.              WITH  (CPUB,RY)
                                   33453    2979.     *
                                   33454    2980.     * Find out where the address is to go
                                   33455    2981.     *
 0045BE 9180 7151      00151       33456    2982.              GETICAD RS,TYPE=S             Get the code
 0045C2 47E0 A066            0460C 33467             +
 0045C6 4810 7158            00158 33472  1          +
 0045CA 8910 0010/18F1       00010 33473  1          +
 0045D0 8810 001C/1211       0001C 33475  1          +
 0045D6 4780 A05C            04602 33485  1          +
 0045DA 5910 AA56            04FFC 33495  2          +
 0045DE 4720 A048            045EE 33496  2          +
 0045E2 4740 A050            045F6 33497  2          +
 0045E6 4110 7110            00110 33498  2          +
 0045EA 47F0 A058            045FE 33499  2          +
 0045EE 4110 7114            00114 33500  2          +
 0045F2 47F0 A058            045FE 33501  2          +
 0045F6 8910 0002            00002 33502  2          +
 0045FA 4111 70BC            000BC 33503  2          +
 0045FE 5810 1000            00000 33506  1          +
 004602 89F0 0004            00004 33511  1          +
 004606 88F0 0014/1E1F       00014 33512             +
 0045C4 A06A           045C6 0460C 33521             +
 00460C 47F0 A06E            04614 33523             +
 004610 5810 7158            00158 33529             +
 USING  GVAPARM-72,R13             33534    2983.              PSET  GVAPARM
 004614 D70B D048 D048 00000 00000 33551             +
 00461A 5070 D048            00000 33552    2984.              ST    RY,GVACPUB              CPUB address
 00461E 5010 D04C            00004 33553    2985.              ST    RS,GVAVLOC              Address where it is wanted
                                   33554    2986.     *        MVC   GVAVLOC,SIEICAD1        Address where it is wanted
 004622 58F0 AA92/0DEF       05038 33555    2987.              ACALL GVA
                                   33562    2988.     *
                                   33563    2989.     * Is it available?
                                   33564    2990.     *
1GSTINTF  (GSTI00) (09:40) (22MAR04) IHAPSAE  - PSA Extension (ESAME)                                                       Page  148
0Current Usings:  (CPUB,R7) (IXSTAP,R10) (INTERP-72,R12) (GVAPARM-72,R13)
0Loc    Object Code    Addr1 Addr2  Stmt Lv Lineno    Source Statement           (Hibal 5, Asmedit 3.3)  HLASM R4.0  2004/03/22 09.40
+___    ______ ____    _____ _____  ____ __ ______    ______ _________
0004628 5900 AA96            0503C 33565    2991.              IF    (RVR,GT,4),BEGIN
 00462C 47D0 A0CC            04672 33577             +
 004630 5810 7070/18E2       00070 33582  1 2992.                PIINT CODE=(RVR),EXA=GVAVLOC,ILEN=4,BACK=YES
 USING  PZERO,R1
 004636 B20B 0000                  33602  2          +
 00463A B20A 0000/18F2 00000       33603  2          +
 004640 182E                       33605  2          +
 004642 D207 1028 7118 00028 00118 33606  2          +
 004648 D207 7118 1068 00118 00068 33607  2          +
 00464E 4000 108E            0008E 33608  2          +
 004652 D203 1090 D04C 00090 00004 33609  2          +
 004658 D201 108C AAA4 0008C 0504A 33610  2          +
 00465E 58E0 102C            0002C 33611  2          +
 004662 4BE0 108C            0008C 33612  2          +
 004666 50E0 102C            0002C 33613  2          +
 00466A B20A F000      00000       33616  1          +
 DROP   PZERO,R1
 00466E 47F0 A192            04738 33625  1 2993.                EXIT  IXSTAP
 004672                            33628    2994.              END   ,
                                   33632    2995.     *
                                   33633    2996.     * Can it be written?
                                   33634    2997.     *
 004672 1200/4780 A102       046A8 33635    2998.              IF    (RVR,NZ),BEGIN
 004678 5810 7070/18E2       00070 33649  1 2999.                PIINT CODE=(RVR),ILEN=4
 USING  PZERO,R1
 00467E B20B 0000                  33669  2          +
 004682 B20A 0000/18F2 00000       33670  2          +
 004688 182E                       33672  2          +
 00468A D207 1028 7118 00028 00118 33673  2          +
 004690 D207 7118 1068 00118 00068 33674  2          +
 004696 4000 108E            0008E 33675  2          +
 00469A D201 108C AAA4 0008C 0504A 33676  2          +
 0046A0 B20A F000      00000       33679  1          +
 DROP   PZERO,R1
 0046A4 47F0 A192            04738 33688  1 3000.                EXIT  IXSTAP
 0046A8                            33691    3001.              END   ,
                                   33695    3002.     *
                                   33696    3003.     * Check the range
                                   33697    3004.     *
 0046A8 5830 D050            00008 33698    3005.              L     RB,GVAMLOC              Get our location
 0046AC 5930 7018            00018 33699    3006.              IF    (RB,GE,CPCLAST),BEGIN
 0046B0 4750 A140            046E6 33711             +
 0046B4 5810 7070/18E2       00070 33716  1 3007.                PIINT CODE=5,ILEN=4           Addressing exception
 USING  PZERO,R1
 0046BA B20B 0000                  33736  2          +
 0046BE B20A 0000/18F2 00000       33737  2          +
 0046C4 182E                       33739  2          +
 0046C6 D207 1028 7118 00028 00118 33740  2          +
 0046CC D207 7118 1068 00118 00068 33741  2          +
 0046D2 D201 108E AAA6 0008E 0504C 33742  2          +
 0046D8 D201 108C AAA4 0008C 0504A 33743  2          +
 0046DE B20A F000      00000       33746  1          +
 DROP   PZERO,R1
 0046E2 47F0 A192            04738 33755  1 3008.                EXIT  IXSTAP
1GSTINTF  (GSTI00) (09:40) (22MAR04) IHAPSAE  - PSA Extension (ESAME)                                                       Page  149
0Current Usings:  (CPUB,R7) (IXSTAP,R10) (INTERP-72,R12) (GVAPARM-72,R13)
0Loc    Object Code    Addr1 Addr2  Stmt Lv Lineno    Source Statement           (Hibal 5, Asmedit 3.3)  HLASM R4.0  2004/03/22 09.40
+___    ______ ____    _____ _____  ____ __ ______    ______ _________
00046E6                            33758    3009.              END   ,
                                   33762    3010.     *
                                   33763    3011.     * How about the protection key...is it safe?
                                   33764    3012.     *
 0046E6 4810 7118            00118 33765    3013.              LH    RS,SIEPSW               Get user key int b24-b27
 0046EA E501 3000 1000 00000 00000 33766    3014.              TPROT @RB,@RS                 Check access
 0046F0 4780 A180            04726 33767    3015.              IF    NZ,BEGIN
 0046F4 5810 7070/18E2       00070 33778  1 3016.                PIINT CODE=4,ILEN=4           Protection exception
 USING  PZERO,R1
 0046FA B20B 0000                  33798  2          +
 0046FE B20A 0000/18F2 00000       33799  2          +
 004704 182E                       33801  2          +
 004706 D207 1028 7118 00028 00118 33802  2          +
 00470C D207 7118 1068 00118 00068 33803  2          +
 004712 D201 108E AAA4 0008E 0504A 33804  2          +
 004718 D201 108C AAA4 0008C 0504A 33805  2          +
 00471E B20A F000      00000       33808  1          +
 DROP   PZERO,R1
 004722 47F0 A192            04738 33817  1 3017.                EXIT  IXSTAP
 004726                            33820    3018.              END   ,
                                   33824    3019.     *
                                   33825    3020.     * Save the value then.
                                   33826    3021.     *
 004726 B20B 0000                  33827    3022.              MODESET EXTKEY=ZERO,SAVEKEY=(2)
 00472A B20A 0000      00000       33830             +
 00472E D201 3000 7066 00000 00066 33831    3023.              MVC   @RB(2),CPCPUA+2         Execute the instruction
 004734 B20A 2000      00000       33832    3024.              MODESET KEYREG=2
 004738 981F C008            00008 33835    3025.              PEND
 DROP   CPUB,R7
 DROP   INTERP-72,R12
 DROP   IXSTAP,R10
 00473C 9680 C000/0B0E 00000       33855             +
 DROP   GVAPARM-72,R13
1GSTINTF  (GSTI00) (09:40) (22MAR04) IHAPSAE  - PSA Extension (ESAME)                                                       Page  150
0Loc    Object Code    Addr1 Addr2  Stmt Lv Lineno    Source Statement           (Hibal 5, Asmedit 3.3)  HLASM R4.0  2004/03/22 09.40
+___    ______ ____    _____ _____  ____ __ ______    ______ _________
0                                  33865    3027.     *******************************************************************
                                   33866    3028.     *                                                                 *
                                   33867    3029.     *    IXSTIDP - Routine to interpret Store CPU ID.                 *
                                   33868    3030.     *                                                                 *
                                   33869    3031.     *                                                                 *
                                   33870    3032.     *      Input - INTERP -- contains the address of the CPUB         *
                                   33871    3033.     *                                                                 *
                                   33872    3034.     *     Output - none                                               *
                                   33873    3035.     *                                                                 *
                                   33874    3036.     *******************************************************************
-004742                            33876    3038.     IXSTIDP  PROC  INTERP,SCOPE=LOCAL
 004742 C9E7E2E3C9C4D740           33881             +
 00474A 0008/0000                  33882             +
 00474E 900F D004/18AF       00004 33884             +
 USING  IXSTIDP,R10
 004754 50D0 C000/18CD       00000 33899             +
 00475A 9680 C000      00000       33901             +
 USING  INTERP-72,R12
 00475E 41D0 C050            00050 33915             +
 004762 5870 C048            00000 33916    3039.              L     RY,INTCPUB              Parm is the CPUB pointer
 USING  CPUB,R7                    33917    3040.              WITH  (CPUB,RY)
                                   33930    3041.     *
                                   33931    3042.     * Find out where the ID is to go
                                   33932    3043.     *
 004766 9180 7151      00151       33933    3044.              GETICAD RS,TYPE=S             Get the code
 00476A 47E0 A066            047B4 33944             +
 00476E 4810 7158            00158 33949  1          +
 004772 8910 0010/18F1       00010 33950  1          +
 004778 8810 001C/1211       0001C 33952  1          +
 00477E 4780 A05C            047AA 33962  1          +
 004782 5910 A8AE            04FFC 33972  2          +
 004786 4720 A048            04796 33973  2          +
 00478A 4740 A050            0479E 33974  2          +
 00478E 4110 7110            00110 33975  2          +
 004792 47F0 A058            047A6 33976  2          +
 004796 4110 7114            00114 33977  2          +
 00479A 47F0 A058            047A6 33978  2          +
 00479E 8910 0002            00002 33979  2          +
 0047A2 4111 70BC            000BC 33980  2          +
 0047A6 5810 1000            00000 33983  1          +
 0047AA 89F0 0004            00004 33988  1          +
 0047AE 88F0 0014/1E1F       00014 33989             +
 00476C A06A           0476E 047B4 33998             +
 0047B4 47F0 A06E            047BC 34000             +
 0047B8 5810 7158            00158 34006             +
 USING  GVAPARM-72,R13             34011    3045.              PSET  GVAPARM
 0047BC D70B D048 D048 00000 00000 34028             +
 0047C2 5070 D048            00000 34029    3046.              ST    RY,GVACPUB              CPUB address
 0047C6 5010 D04C            00004 34030    3047.              ST    RS,GVAVLOC              Address where it is wanted
                                   34031    3048.     *        MVC   GVAVLOC,SIEICAD1        Address where it is wanted
 0047CA 58F0 A8EA/0DEF       05038 34032    3049.              ACALL GVA
                                   34039    3050.     *
                                   34040    3051.     * Is it available?
                                   34041    3052.     *
1GSTINTF  (GSTI00) (09:40) (22MAR04) IHAPSAE  - PSA Extension (ESAME)                                                       Page  151
0Current Usings:  (CPUB,R7) (IXSTIDP,R10) (INTERP-72,R12) (GVAPARM-72,R13)
0Loc    Object Code    Addr1 Addr2  Stmt Lv Lineno    Source Statement           (Hibal 5, Asmedit 3.3)  HLASM R4.0  2004/03/22 09.40
+___    ______ ____    _____ _____  ____ __ ______    ______ _________
00047D0 5900 A8EE            0503C 34042    3053.              IF    (RVR,GT,4),BEGIN
 0047D4 47D0 A0CC            0481A 34054             +
 0047D8 5810 7070/18E2       00070 34059  1 3054.                PIINT CODE=(RVR),EXA=GVAVLOC,ILEN=4,BACK=YES
 USING  PZERO,R1
 0047DE B20B 0000                  34079  2          +
 0047E2 B20A 0000/18F2 00000       34080  2          +
 0047E8 182E                       34082  2          +
 0047EA D207 1028 7118 00028 00118 34083  2          +
 0047F0 D207 7118 1068 00118 00068 34084  2          +
 0047F6 4000 108E            0008E 34085  2          +
 0047FA D203 1090 D04C 00090 00004 34086  2          +
 004800 D201 108C A8FC 0008C 0504A 34087  2          +
 004806 58E0 102C            0002C 34088  2          +
 00480A 4BE0 108C            0008C 34089  2          +
 00480E 50E0 102C            0002C 34090  2          +
 004812 B20A F000      00000       34093  1          +
 DROP   PZERO,R1
 004816 47F0 A192            048E0 34102  1 3055.                EXIT  IXSTIDP
 00481A                            34105    3056.              END   ,
                                   34109    3057.     *
                                   34110    3058.     * Can it be written?
                                   34111    3059.     *
 00481A 1200/4780 A102       04850 34112    3060.              IF    (RVR,NZ),BEGIN
 004820 5810 7070/18E2       00070 34126  1 3061.                PIINT CODE=(RVR),ILEN=4
 USING  PZERO,R1
 004826 B20B 0000                  34146  2          +
 00482A B20A 0000/18F2 00000       34147  2          +
 004830 182E                       34149  2          +
 004832 D207 1028 7118 00028 00118 34150  2          +
 004838 D207 7118 1068 00118 00068 34151  2          +
 00483E 4000 108E            0008E 34152  2          +
 004842 D201 108C A8FC 0008C 0504A 34153  2          +
 004848 B20A F000      00000       34156  1          +
 DROP   PZERO,R1
 00484C 47F0 A192            048E0 34165  1 3062.                EXIT  IXSTIDP
 004850                            34168    3063.              END   ,
                                   34172    3064.     *
                                   34173    3065.     * Check the range
                                   34174    3066.     *
 004850 5830 D050            00008 34175    3067.              L     RB,GVAMLOC              Get our location
 004854 5930 7018            00018 34176    3068.              IF    (RB,GE,CPCLAST),BEGIN
 004858 4750 A140            0488E 34188             +
 00485C 5810 7070/18E2       00070 34193  1 3069.                PIINT CODE=5,ILEN=4           Addressing exception
 USING  PZERO,R1
 004862 B20B 0000                  34213  2          +
 004866 B20A 0000/18F2 00000       34214  2          +
 00486C 182E                       34216  2          +
 00486E D207 1028 7118 00028 00118 34217  2          +
 004874 D207 7118 1068 00118 00068 34218  2          +
 00487A D201 108E A8FE 0008E 0504C 34219  2          +
 004880 D201 108C A8FC 0008C 0504A 34220  2          +
 004886 B20A F000      00000       34223  1          +
 DROP   PZERO,R1
 00488A 47F0 A192            048E0 34232  1 3070.                EXIT  IXSTIDP
1GSTINTF  (GSTI00) (09:40) (22MAR04) IHAPSAE  - PSA Extension (ESAME)                                                       Page  152
0Current Usings:  (CPUB,R7) (IXSTIDP,R10) (INTERP-72,R12) (GVAPARM-72,R13)
0Loc    Object Code    Addr1 Addr2  Stmt Lv Lineno    Source Statement           (Hibal 5, Asmedit 3.3)  HLASM R4.0  2004/03/22 09.40
+___    ______ ____    _____ _____  ____ __ ______    ______ _________
000488E                            34235    3071.              END   ,
                                   34239    3072.     *
                                   34240    3073.     * How about the protection key...is it safe?
                                   34241    3074.     *
 00488E 4810 7118            00118 34242    3075.              LH    RS,SIEPSW               Get user key int b24-b27
 004892 E501 3000 1000 00000 00000 34243    3076.              TPROT @RB,@RS                 Check access
 004898 4780 A180            048CE 34244    3077.              IF    NZ,BEGIN
 00489C 5810 7070/18E2       00070 34255  1 3078.                PIINT CODE=4,ILEN=4           Protection exception
 USING  PZERO,R1
 0048A2 B20B 0000                  34275  2          +
 0048A6 B20A 0000/18F2 00000       34276  2          +
 0048AC 182E                       34278  2          +
 0048AE D207 1028 7118 00028 00118 34279  2          +
 0048B4 D207 7118 1068 00118 00068 34280  2          +
 0048BA D201 108E A8FC 0008E 0504A 34281  2          +
 0048C0 D201 108C A8FC 0008C 0504A 34282  2          +
 0048C6 B20A F000      00000       34285  1          +
 DROP   PZERO,R1
 0048CA 47F0 A192            048E0 34294  1 3079.                EXIT  IXSTIDP
 0048CE                            34297    3080.              END   ,
                                   34301    3081.     *
                                   34302    3082.     * Save the value then.
                                   34303    3083.     *
 0048CE B20B 0000                  34304    3084.              MODESET EXTKEY=ZERO,SAVEKEY=(2)
 0048D2 B20A 0000      00000       34307             +
 0048D6 D207 3000 7068 00000 00068 34308    3085.              MVC   @RB(8),CPCPUID          Execute the instruction
 0048DC B20A 2000      00000       34309    3086.              MODESET KEYREG=2
 0048E0 981F C008            00008 34312    3087.              PEND
 DROP   CPUB,R7
 DROP   INTERP-72,R12
 DROP   IXSTIDP,R10
 0048E4 9680 C000/0B0E 00000       34332             +
 DROP   GVAPARM-72,R13
1GSTINTF  (GSTI00) (09:40) (22MAR04) IHAPSAE  - PSA Extension (ESAME)                                                       Page  153
0Loc    Object Code    Addr1 Addr2  Stmt Lv Lineno    Source Statement           (Hibal 5, Asmedit 3.3)  HLASM R4.0  2004/03/22 09.40
+___    ______ ____    _____ _____  ____ __ ______    ______ _________
0                                  34342    3089.     *******************************************************************
                                   34343    3090.     *                                                                 *
                                   34344    3091.     *      IXSPX - Routine to interpret Set Prefix.                   *
                                   34345    3092.     *                                                                 *
                                   34346    3093.     *                                                                 *
                                   34347    3094.     *      Input - INTERP -- contains the address of the CPUB         *
                                   34348    3095.     *                                                                 *
                                   34349    3096.     *     Output - none                                               *
                                   34350    3097.     *                                                                 *
                                   34351    3098.     *******************************************************************
-0048EA                            34353    3100.     IXSPX    PROC  INTERP,SCOPE=LOCAL
 0048EA C9E7E2D7E7404040           34358             +
 0048F2 0008/0000                  34359             +
 0048F6 900F D004/18AF       00004 34361             +
 USING  IXSPX,R10
 0048FC 50D0 C000/18CD       00000 34376             +
 004902 9680 C000      00000       34378             +
 USING  INTERP-72,R12
 004906 41D0 C050            00050 34392             +
 00490A 5870 C048            00000 34393    3101.              L     RY,INTCPUB              Parm is the CPUB pointer
 USING  CPUB,R7                    34394    3102.              WITH  (CPUB,RY)
                                   34407    3103.     *
                                   34408    3104.     * Get the location of the prefix value
                                   34409    3105.     *
 00490E 9180 7151      00151       34410    3106.              GETICAD RS,TYPE=S             Get the code
 004912 47E0 A066            0495C 34421             +
 004916 4810 7158            00158 34426  1          +
 00491A 8910 0010/18F1       00010 34427  1          +
 004920 8810 001C/1211       0001C 34429  1          +
 004926 4780 A05C            04952 34439  1          +
 00492A 5910 A706            04FFC 34449  2          +
 00492E 4720 A048            0493E 34450  2          +
 004932 4740 A050            04946 34451  2          +
 004936 4110 7110            00110 34452  2          +
 00493A 47F0 A058            0494E 34453  2          +
 00493E 4110 7114            00114 34454  2          +
 004942 47F0 A058            0494E 34455  2          +
 004946 8910 0002            00002 34456  2          +
 00494A 4111 70BC            000BC 34457  2          +
 00494E 5810 1000            00000 34460  1          +
 004952 89F0 0004            00004 34465  1          +
 004956 88F0 0014/1E1F       00014 34466             +
 004914 A06A           04916 0495C 34475             +
 00495C 47F0 A06E            04964 34477             +
 004960 5810 7158            00158 34483             +
 USING  GVAPARM-72,R13             34488    3107.              PSET  GVAPARM                 Conversion Routine
 004964 D70B D048 D048 00000 00000 34505             +
 00496A 5070 D048            00000 34506    3108.              ST    RY,GVACPUB              Save the CPU address
 00496E 5010 D04C            00004 34507    3109.              ST    RS,GVAVLOC              Address where it is wanted
                                   34508    3110.     *        MVC   GVAVLOC,SIEICAD1        Address of the data
 004972 58F0 A742/0DEF       05038 34509    3111.              ACALL GVA                     Do the translation
                                   34516    3112.     *
                                   34517    3113.     * Check whether it is available
                                   34518    3114.     *
1GSTINTF  (GSTI00) (09:40) (22MAR04) IHAPSAE  - PSA Extension (ESAME)                                                       Page  154
0Current Usings:  (CPUB,R7) (IXSPX,R10) (INTERP-72,R12) (GVAPARM-72,R13)
0Loc    Object Code    Addr1 Addr2  Stmt Lv Lineno    Source Statement           (Hibal 5, Asmedit 3.3)  HLASM R4.0  2004/03/22 09.40
+___    ______ ____    _____ _____  ____ __ ______    ______ _________
0004978 5900 A746            0503C 34519    3115.              IF    (RVR,GT,4),BEGIN        Some translation problem
 00497C 47D0 A0CC            049C2 34531             +
                                   34536  1 3116.     *
                                   34537  1 3117.     * Set up the program interrupt
                                   34538  1 3118.     *
 004980 5810 7070/18E2       00070 34539  1 3119.                PIINT CODE=(RVR),EXA=GVAVLOC,ILEN=4,BACK=YES
 USING  PZERO,R1
 004986 B20B 0000                  34559  2          +
 00498A B20A 0000/18F2 00000       34560  2          +
 004990 182E                       34562  2          +
 004992 D207 1028 7118 00028 00118 34563  2          +
 004998 D207 7118 1068 00118 00068 34564  2          +
 00499E 4000 108E            0008E 34565  2          +
 0049A2 D203 1090 D04C 00090 00004 34566  2          +
 0049A8 D201 108C A754 0008C 0504A 34567  2          +
 0049AE 58E0 102C            0002C 34568  2          +
 0049B2 4BE0 108C            0008C 34569  2          +
 0049B6 50E0 102C            0002C 34570  2          +
 0049BA B20A F000      00000       34573  1          +
 DROP   PZERO,R1
 0049BE 47F0 A156            04A4C 34582  1 3120.                EXIT  IXSPX
 0049C2                            34585    3121.              END   ,
                                   34589    3122.     *
                                   34590    3123.     * Get the prefix value desired
                                   34591    3124.     *
 0049C2 5810 D050            00008 34592    3125.              L     RS,GVAMLOC
 0049C6 5810 1000            00000 34593    3126.              L     RS,@RS                  Load the prefix value
                                   34594    3127.     *
                                   34595    3128.     * Check it out
                                   34596    3129.     *
 0049CA 5910 7014            00014 34597    3130.              IF    (RS,GE,CPCLEN),BEGIN    Bad address
 0049CE 4750 A10E            04A04 34609             +
 0049D2 5810 7070/18E2       00070 34614  1 3131.                PIINT CODE=5,ILEN=4           Signal the error
 USING  PZERO,R1
 0049D8 B20B 0000                  34634  2          +
 0049DC B20A 0000/18F2 00000       34635  2          +
 0049E2 182E                       34637  2          +
 0049E4 D207 1028 7118 00028 00118 34638  2          +
 0049EA D207 7118 1068 00118 00068 34639  2          +
 0049F0 D201 108E A756 0008E 0504C 34640  2          +
 0049F6 D201 108C A754 0008C 0504A 34641  2          +
 0049FC B20A F000      00000       34644  1          +
 DROP   PZERO,R1
 004A00 47F0 A156            04A4C 34653  1 3132.                EXIT  IXSPX                   All done here
 004A04                            34656    3133.              END   ,
                                   34660    3134.     *
                                   34661    3135.     * Implement it
                                   34662    3136.     *
 004A04 5830 7070            00070 34663    3137.              L     RB,CPPSALOC             Get old address of the PSA
 004A08 5010 7104            00104 34664    3138.              ST    RS,SIEPREFX             Update the prefix register
 004A0C 5A10 7010            00010 34665    3139.              A     RS,CPCORE               Get MVS virtual address
 004A10 5010 7070            00070 34666    3140.              ST    RS,CPPSALOC             Save it's address
                                   34667    3141.     *
                                   34668    3142.     * Unfix the previous PSA
1GSTINTF  (GSTI00) (09:40) (22MAR04) IHAPSAE  - PSA Extension (ESAME)                                                       Page  155
0Current Usings:  (CPUB,R7) (IXSPX,R10) (INTERP-72,R12) (GVAPARM-72,R13)
0Loc    Object Code    Addr1 Addr2  Stmt Lv Lineno    Source Statement           (Hibal 5, Asmedit 3.3)  HLASM R4.0  2004/03/22 09.40
+___    ______ ____    _____ _____  ____ __ ______    ______ _________
0                                  34669    3143.     *
 DROP   GVAPARM-72,R13             34670    3144.              PSET  @FIXPARM
 USING  @FIXPARM-72,R13
 004A14 D708 D048 D048 00000 00000 34690             +
 004A1A 5030 D048            00000 34691    3145.              ST    RB,@FIXLOC
 004A1E D203 D04C A732 00004 05028 34692    3146.              MVC   @FIXLEN,=A(4096)        One page
 004A24 58F0 A736/0DEF       0502C 34693    3147.              VCALL PAGEFREE                Unfix it
                                   34697    3148.     *
                                   34698    3149.     * Fix the new PSA
                                   34699    3150.     *
 004A2A D203 D048 7070 00000 00070 34700    3151.              MVC   @FIXLOC,CPPSALOC
 004A30 D203 D04C A732 00004 05028 34701    3152.              MVC   @FIXLEN,=A(4096)
 004A36 58F0 A73A/0DEF       05030 34702    3153.              VCALL PAGEFIX                 Do the Fix
 004A3C 4100 7000            00000 34706    3154.              LA    R0,CPUB
 004A40 58F0 A73E/0DEF       05034 34707    3155.              ACALL SETCLOC2                Set local time
                                   34714    3156.     *
                                   34715    3157.     * Then cause the TLB to be purged
                                   34716    3158.     *
 004A46 D201 7152 A752 00152 05048 34717    3159.              MVC   SIEIHCPU,=X'FFFF'       Cause the PTLB
 004A4C 981F C008            00008 34718    3160.              PEND
 DROP   CPUB,R7
 DROP   INTERP-72,R12
 DROP   IXSPX,R10
 004A50 9680 C000/0B0E 00000       34738             +
 DROP   @FIXPARM-72,R13
1GSTINTF  (GSTI00) (09:40) (22MAR04) IHAPSAE  - PSA Extension (ESAME)                                                       Page  156
0Loc    Object Code    Addr1 Addr2  Stmt Lv Lineno    Source Statement           (Hibal 5, Asmedit 3.3)  HLASM R4.0  2004/03/22 09.40
+___    ______ ____    _____ _____  ____ __ ______    ______ _________
0                                  34748    3162.     *******************************************************************
                                   34749    3163.     *                                                                 *
                                   34750    3164.     *     IXSTPX - Routine to interpret Store Prefix.                 *
                                   34751    3165.     *                                                                 *
                                   34752    3166.     *                                                                 *
                                   34753    3167.     *      Input - INTERP -- contains the address of the CPUB         *
                                   34754    3168.     *                                                                 *
                                   34755    3169.     *     Output - none                                               *
                                   34756    3170.     *                                                                 *
                                   34757    3171.     *******************************************************************
-004A56                            34759    3173.     IXSTPX   PROC  INTERP,SCOPE=LOCAL
 004A56 C9E7E2E3D7E74040           34764             +
 004A5E 0008/0000                  34765             +
 004A62 900F D004/18AF       00004 34767             +
 USING  IXSTPX,R10
 004A68 50D0 C000/18CD       00000 34782             +
 004A6E 9680 C000      00000       34784             +
 USING  INTERP-72,R12
 004A72 41D0 C050            00050 34798             +
 004A76 5870 C048            00000 34799    3174.              L     RY,INTCPUB              Parm is the CPUB pointer
 USING  CPUB,R7                    34800    3175.              WITH  (CPUB,RY)
                                   34813    3176.     *
                                   34814    3177.     * Find out where the prefix value is to go
                                   34815    3178.     *
 004A7A 9180 7151      00151       34816    3179.              GETICAD RS,TYPE=S             Get the code
 004A7E 47E0 A066            04AC8 34827             +
 004A82 4810 7158            00158 34832  1          +
 004A86 8910 0010/18F1       00010 34833  1          +
 004A8C 8810 001C/1211       0001C 34835  1          +
 004A92 4780 A05C            04ABE 34845  1          +
 004A96 5910 A59A            04FFC 34855  2          +
 004A9A 4720 A048            04AAA 34856  2          +
 004A9E 4740 A050            04AB2 34857  2          +
 004AA2 4110 7110            00110 34858  2          +
 004AA6 47F0 A058            04ABA 34859  2          +
 004AAA 4110 7114            00114 34860  2          +
 004AAE 47F0 A058            04ABA 34861  2          +
 004AB2 8910 0002            00002 34862  2          +
 004AB6 4111 70BC            000BC 34863  2          +
 004ABA 5810 1000            00000 34866  1          +
 004ABE 89F0 0004            00004 34871  1          +
 004AC2 88F0 0014/1E1F       00014 34872             +
 004A80 A06A           04A82 04AC8 34881             +
 004AC8 47F0 A06E            04AD0 34883             +
 004ACC 5810 7158            00158 34889             +
 USING  GVAPARM-72,R13             34894    3180.              PSET  GVAPARM
 004AD0 D70B D048 D048 00000 00000 34911             +
 004AD6 5070 D048            00000 34912    3181.              ST    RY,GVACPUB              CPUB address
 004ADA 5010 D04C            00004 34913    3182.              ST    RS,GVAVLOC              Address where it is wanted
                                   34914    3183.     *        MVC   GVAVLOC,SIEICAD1        Address where it is wanted
 004ADE 58F0 A5D6/0DEF       05038 34915    3184.              ACALL GVA
                                   34922    3185.     *
                                   34923    3186.     * Is it available?
                                   34924    3187.     *
1GSTINTF  (GSTI00) (09:40) (22MAR04) IHAPSAE  - PSA Extension (ESAME)                                                       Page  157
0Current Usings:  (CPUB,R7) (IXSTPX,R10) (INTERP-72,R12) (GVAPARM-72,R13)
0Loc    Object Code    Addr1 Addr2  Stmt Lv Lineno    Source Statement           (Hibal 5, Asmedit 3.3)  HLASM R4.0  2004/03/22 09.40
+___    ______ ____    _____ _____  ____ __ ______    ______ _________
0004AE4 5900 A5DA            0503C 34925    3188.              IF    (RVR,GT,4),BEGIN
 004AE8 47D0 A0CC            04B2E 34937             +
 004AEC 5810 7070/18E2       00070 34942  1 3189.                PIINT CODE=(RVR),EXA=GVAVLOC,ILEN=4,BACK=YES
 USING  PZERO,R1
 004AF2 B20B 0000                  34962  2          +
 004AF6 B20A 0000/18F2 00000       34963  2          +
 004AFC 182E                       34965  2          +
 004AFE D207 1028 7118 00028 00118 34966  2          +
 004B04 D207 7118 1068 00118 00068 34967  2          +
 004B0A 4000 108E            0008E 34968  2          +
 004B0E D203 1090 D04C 00090 00004 34969  2          +
 004B14 D201 108C A5E8 0008C 0504A 34970  2          +
 004B1A 58E0 102C            0002C 34971  2          +
 004B1E 4BE0 108C            0008C 34972  2          +
 004B22 50E0 102C            0002C 34973  2          +
 004B26 B20A F000      00000       34976  1          +
 DROP   PZERO,R1
 004B2A 47F0 A192            04BF4 34985  1 3190.                EXIT  IXSTPX
 004B2E                            34988    3191.              END   ,
                                   34992    3192.     *
                                   34993    3193.     * Can it be written?
                                   34994    3194.     *
 004B2E 1200/4780 A102       04B64 34995    3195.              IF    (RVR,NZ),BEGIN
 004B34 5810 7070/18E2       00070 35009  1 3196.                PIINT CODE=(RVR),ILEN=4
 USING  PZERO,R1
 004B3A B20B 0000                  35029  2          +
 004B3E B20A 0000/18F2 00000       35030  2          +
 004B44 182E                       35032  2          +
 004B46 D207 1028 7118 00028 00118 35033  2          +
 004B4C D207 7118 1068 00118 00068 35034  2          +
 004B52 4000 108E            0008E 35035  2          +
 004B56 D201 108C A5E8 0008C 0504A 35036  2          +
 004B5C B20A F000      00000       35039  1          +
 DROP   PZERO,R1
 004B60 47F0 A192            04BF4 35048  1 3197.                EXIT  IXSTPX
 004B64                            35051    3198.              END   ,
                                   35055    3199.     *
                                   35056    3200.     * Check the range
                                   35057    3201.     *
 004B64 5830 D050            00008 35058    3202.              L     RB,GVAMLOC              Get our location
 004B68 5930 7018            00018 35059    3203.              IF    (RB,GE,CPCLAST),BEGIN
 004B6C 4750 A140            04BA2 35071             +
 004B70 5810 7070/18E2       00070 35076  1 3204.                PIINT CODE=5,ILEN=4           Addressing exception
 USING  PZERO,R1
 004B76 B20B 0000                  35096  2          +
 004B7A B20A 0000/18F2 00000       35097  2          +
 004B80 182E                       35099  2          +
 004B82 D207 1028 7118 00028 00118 35100  2          +
 004B88 D207 7118 1068 00118 00068 35101  2          +
 004B8E D201 108E A5EA 0008E 0504C 35102  2          +
 004B94 D201 108C A5E8 0008C 0504A 35103  2          +
 004B9A B20A F000      00000       35106  1          +
 DROP   PZERO,R1
 004B9E 47F0 A192            04BF4 35115  1 3205.                EXIT  IXSTPX
1GSTINTF  (GSTI00) (09:40) (22MAR04) IHAPSAE  - PSA Extension (ESAME)                                                       Page  158
0Current Usings:  (CPUB,R7) (IXSTPX,R10) (INTERP-72,R12) (GVAPARM-72,R13)
0Loc    Object Code    Addr1 Addr2  Stmt Lv Lineno    Source Statement           (Hibal 5, Asmedit 3.3)  HLASM R4.0  2004/03/22 09.40
+___    ______ ____    _____ _____  ____ __ ______    ______ _________
0004BA2                            35118    3206.              END   ,
                                   35122    3207.     *
                                   35123    3208.     * How about the protection key...is it safe?
                                   35124    3209.     *
 004BA2 4810 7118            00118 35125    3210.              LH    RS,SIEPSW               Get user key int b24-b27
 004BA6 E501 3000 1000 00000 00000 35126    3211.              TPROT @RB,@RS                 Check access
 004BAC 4780 A180            04BE2 35127    3212.              IF    NZ,BEGIN
 004BB0 5810 7070/18E2       00070 35138  1 3213.                PIINT CODE=4,ILEN=4           Protection exception
 USING  PZERO,R1
 004BB6 B20B 0000                  35158  2          +
 004BBA B20A 0000/18F2 00000       35159  2          +
 004BC0 182E                       35161  2          +
 004BC2 D207 1028 7118 00028 00118 35162  2          +
 004BC8 D207 7118 1068 00118 00068 35163  2          +
 004BCE D201 108E A5E8 0008E 0504A 35164  2          +
 004BD4 D201 108C A5E8 0008C 0504A 35165  2          +
 004BDA B20A F000      00000       35168  1          +
 DROP   PZERO,R1
 004BDE 47F0 A192            04BF4 35177  1 3214.                EXIT  IXSTPX
 004BE2                            35180    3215.              END   ,
                                   35184    3216.     *
                                   35185    3217.     * Save the value then.
                                   35186    3218.     *
 004BE2 B20B 0000                  35187    3219.              MODESET EXTKEY=ZERO,SAVEKEY=(2)
 004BE6 B20A 0000      00000       35190             +
 004BEA D203 3000 7104 00000 00104 35191    3220.              MVC   @RB(4),SIEPREFX         Execute the instruction
 004BF0 B20A 2000      00000       35192    3221.              MODESET KEYREG=2
 004BF4 981F C008            00008 35195    3222.              PEND
 DROP   CPUB,R7
 DROP   INTERP-72,R12
 DROP   IXSTPX,R10
 004BF8 9680 C000/0B0E 00000       35215             +
 DROP   GVAPARM-72,R13
1GSTINTF  (GSTI00) (09:40) (22MAR04) IHAPSAE  - PSA Extension (ESAME)                                                       Page  159
0Loc    Object Code    Addr1 Addr2  Stmt Lv Lineno    Source Statement           (Hibal 5, Asmedit 3.3)  HLASM R4.0  2004/03/22 09.40
+___    ______ ____    _____ _____  ____ __ ______    ______ _________
0                                  35225    3224.     *******************************************************************
                                   35226    3225.     *                                                                 *
                                   35227    3226.     *       IXTB - Routine to interpret Test Block.                   *
                                   35228    3227.     *                                                                 *
                                   35229    3228.     *                                                                 *
                                   35230    3229.     *      Input - INTERP -- contains the address of the CPUB         *
                                   35231    3230.     *                                                                 *
                                   35232    3231.     *     Output - none                                               *
                                   35233    3232.     *                                                                 *
                                   35234    3233.     *******************************************************************
-004BFE                            35236    3235.     IXTB     PROC  INTERP,SCOPE=LOCAL
 004BFE C9E7E3C240404040           35241             +
 004C06 0008/0000                  35242             +
 004C0A 900F D004/18AF       00004 35244             +
 USING  IXTB,R10
 004C10 50D0 C000/18CD       00000 35259             +
 004C16 9680 C000      00000       35261             +
 USING  INTERP-72,R12
 004C1A 41D0 C050            00050 35275             +
 004C1E 5870 C048            00000 35276    3236.              L     RY,INTCPUB              Parm is the CPUB pointer
 USING  CPUB,R7                    35277    3237.              WITH  (CPUB,RY)
                                   35290    3238.     *
                                   35291    3239.     * Get the block address
                                   35292    3240.     *
 004C22 9180 7151      00151       35293    3241.              GETICAD RA,TYPE=RRE           Get the code
 004C26 47E0 A024            04C2E 35304             +
 004C2A 4820 7158            00158 35309             +
 004C28 A028           04C2A 04C2E 35317             +
 004C2E 47F0 A02C            04C36 35319             +
 004C32 5820 7158            00158 35325             +
                                   35330    3242.     *        L     RA,SIEICAD1             Get the R1,R2 fields
 004C36 5420 A3EE            04FF8 35331    3243.              N     RA,=X'0000000F'         Isolate the R2 field
 004C3A 5920 A3F2            04FFC 35332    3244.              LREGA RA,(RA)                 Get address of the data
 004C3E 4720 A044            04C4E 35338             +
 004C42 4740 A04C            04C56 35339             +
 004C46 4120 7110            00110 35340             +
 004C4A 47F0 A054            04C5E 35341             +
 004C4E 4120 7114            00114 35342             +
 004C52 47F0 A054            04C5E 35343             +
 004C56 8920 0002            00002 35344             +
 004C5A 4122 70BC            000BC 35345             +
 004C5E 5820 2000            00000 35348    3245.              L     RA,@RA                  Get the data address
 004C62 4120 2000            00000 35349    3246.              LA    RA,@RA                  Clear the high bit
 004C66 5920 7014            00014 35350    3247.              IF    (RA,GE,CPCLEN),BEGIN
 004C6A 4750 A096            04CA0 35362             +
 004C6E 5810 7070/18E2       00070 35367  1 3248.                PIINT CODE=5,ILEN=4           Addressing exception
 USING  PZERO,R1
 004C74 B20B 0000                  35387  2          +
 004C78 B20A 0000/18F2 00000       35388  2          +
 004C7E 182E                       35390  2          +
 004C80 D207 1028 7118 00028 00118 35391  2          +
 004C86 D207 7118 1068 00118 00068 35392  2          +
 004C8C D201 108E A442 0008E 0504C 35393  2          +
 004C92 D201 108C A440 0008C 0504A 35394  2          +
1GSTINTF  (GSTI00) (09:40) (22MAR04) IHAPSAE  - PSA Extension (ESAME)                                                       Page  160
0Current Usings:  (CPUB,R7) (IXTB,R10) (INTERP-72,R12)
0Loc    Object Code    Addr1 Addr2  Stmt Lv Lineno    Source Statement           (Hibal 5, Asmedit 3.3)  HLASM R4.0  2004/03/22 09.40
+___    ______ ____    _____ _____  ____ __ ______    ______ _________
0004C98 B20A F000      00000       35397  1          +
 DROP   PZERO,R1
 004C9C 47F0 A09A            04CA4 35406  1 3249.                EXIT  IXTB
 004CA0                            35409    3250.              END   ,
 004CA0 94CF 711A      0011A       35413    3251.              NI    SIEPSW+2,X'CF'          Zero condition code
 004CA4 981F C008            00008 35414    3252.              PEND
 DROP   CPUB,R7
 DROP   INTERP-72,R12
 DROP   IXTB,R10
 004CA8 9680 C000/0B0E 00000       35434             +
1GSTINTF  (GSTI00) (09:40) (22MAR04) IHAPSAE  - PSA Extension (ESAME)                                                       Page  161
0Loc    Object Code    Addr1 Addr2  Stmt Lv Lineno    Source Statement           (Hibal 5, Asmedit 3.3)  HLASM R4.0  2004/03/22 09.40
+___    ______ ____    _____ _____  ____ __ ______    ______ _________
0                                  35441    3254.     *******************************************************************
                                   35442    3255.     *                                                                 *
                                   35443    3256.     *     IXSSCH - Routine to interpret Start Subchannel.             *
                                   35444    3257.     *                                                                 *
                                   35445    3258.     *                                                                 *
                                   35446    3259.     *      Input - INTERP -- contains the address of the CPUB         *
                                   35447    3260.     *                                                                 *
                                   35448    3261.     *     Output - none                                               *
                                   35449    3262.     *                                                                 *
                                   35450    3263.     *******************************************************************
-004CAE                            35452    3265.     IXSSCH   PROC  INTERP,SCOPE=LOCAL
 004CAE C9E7E2E2C3C84040           35457             +
 004CB6 0008/0000                  35458             +
 004CBA 900F D004/18AF       00004 35460             +
 USING  IXSSCH,R10
 004CC0 50D0 C000/18CD       00000 35475             +
 004CC6 9680 C000      00000       35477             +
 USING  INTERP-72,R12
 004CCA 41D0 C050            00050 35491             +
 004CCE 5870 C048            00000 35492    3266.              L     RY,INTCPUB              Parm is the CPUB pointer
 USING  CPUB,R7                    35493    3267.              WITH  (CPUB,RY)
                                   35506    3268.     *
                                   35507    3269.     * Get the ORB address  **** MUST BE REAL ****
                                   35508    3270.     *
 004CD2 9180 7151      00151       35509    3271.              GETICAD RB,TYPE=S             Get the effective address
 004CD6 47E0 A066            04D20 35520             +
 004CDA 4830 7158            00158 35525  1          +
 004CDE 8930 0010/18F3       00010 35526  1          +
 004CE4 8830 001C/1233       0001C 35528  1          +
 004CEA 4780 A05C            04D16 35538  1          +
 004CEE 5930 A342            04FFC 35548  2          +
 004CF2 4720 A048            04D02 35549  2          +
 004CF6 4740 A050            04D0A 35550  2          +
 004CFA 4130 7110            00110 35551  2          +
 004CFE 47F0 A058            04D12 35552  2          +
 004D02 4130 7114            00114 35553  2          +
 004D06 47F0 A058            04D12 35554  2          +
 004D0A 8930 0002            00002 35555  2          +
 004D0E 4133 70BC            000BC 35556  2          +
 004D12 5830 3000            00000 35559  1          +
 004D16 89F0 0004            00004 35564  1          +
 004D1A 88F0 0014/1E3F       00014 35565             +
 004CD8 A06A           04CDA 04D20 35574             +
 004D20 47F0 A06E            04D28 35576             +
 004D24 5830 7158            00158 35582             +
                                   35587    3272.     *        L     RB,SIEICAD1             Get effective address
 004D28 5800 A362/1403       0501C 35588    3273.              GRA   RB,(RB)                 Get the MVS address
 004D2E 4770 A07C            04D36 35601             +
 004D32 5630 7104            00104 35607             +
 004D30 A080           04D32 04D36 35616             +
 004D36 47F0 A08C            04D46 35618             +
 004D3A 5900 7104            00104 35632             +
 004D3E 4770 A08C            04D46 35633             +
 004D42 5430 A386            05040 35639             +
1GSTINTF  (GSTI00) (09:40) (22MAR04) IHAPSAE  - PSA Extension (ESAME)                                                       Page  162
0Current Usings:  (CPUB,R7) (IXSSCH,R10) (INTERP-72,R12)
0Loc    Object Code    Addr1 Addr2  Stmt Lv Lineno    Source Statement           (Hibal 5, Asmedit 3.3)  HLASM R4.0  2004/03/22 09.40
+___    ______ ____    _____ _____  ____ __ ______    ______ _________
0004D46 5A30 7010            00010 35644             +
                                   35645    3274.     *
                                   35646    3275.     * Check the address range
                                   35647    3276.     *
 004D4A 5930 7018            00018 35648    3277.              IF    (RB,GE,CPCLAST),BEGIN
 004D4E 4750 A0CA            04D84 35660             +
 004D52 5810 7070/18E2       00070 35665  1 3278.                PIINT CODE=5,ILEN=4           Addressing exception
 USING  PZERO,R1
 004D58 B20B 0000                  35685  2          +
 004D5C B20A 0000/18F2 00000       35686  2          +
 004D62 182E                       35688  2          +
 004D64 D207 1028 7118 00028 00118 35689  2          +
 004D6A D207 7118 1068 00118 00068 35690  2          +
 004D70 D201 108E A392 0008E 0504C 35691  2          +
 004D76 D201 108C A390 0008C 0504A 35692  2          +
 004D7C B20A F000      00000       35695  1          +
 DROP   PZERO,R1
 004D80 47F0 A1FE            04EB8 35704  1 3279.                EXIT  IXSSCH
 004D84                            35707    3280.              END   ,
                                   35711    3281.     *
                                   35712    3282.     * Check to make sure the channel program is within the range
                                   35713    3283.     *
 004D84 B20B 0000                  35714    3284.              MODESET EXTKEY=ZERO,SAVEKEY=(2)
 004D88 B20A 0000      00000       35717             +
 004D8C 5840 3008            00008 35718    3285.              L     RJ,@RB+8                Get the Channel program addr
 004D90 B20A 2000      00000       35719    3286.              MODESET KEYREG=2
 004D94 5800 A362/1404       0501C 35722    3287.              GRA   RJ,(RJ)                 Convert to MVS address
 004D9A 4770 A0E8            04DA2 35735             +
 004D9E 5640 7104            00104 35741             +
 004D9C A0EC           04D9E 04DA2 35750             +
 004DA2 47F0 A0F8            04DB2 35752             +
 004DA6 5900 7104            00104 35766             +
 004DAA 4770 A0F8            04DB2 35767             +
 004DAE 5440 A386            05040 35773             +
 004DB2 5A40 7010            00010 35778             +
 004DB6 5940 7018            00018 35779    3288.              IF    (RJ,GE,CPCLAST),BEGIN
 004DBA 4750 A136            04DF0 35791             +
 004DBE 5810 7070/18E2       00070 35796  1 3289.                PIINT CODE=5,ILEN=4           Addressing exception
 USING  PZERO,R1
 004DC4 B20B 0000                  35816  2          +
 004DC8 B20A 0000/18F2 00000       35817  2          +
 004DCE 182E                       35819  2          +
 004DD0 D207 1028 7118 00028 00118 35820  2          +
 004DD6 D207 7118 1068 00118 00068 35821  2          +
 004DDC D201 108E A392 0008E 0504C 35822  2          +
 004DE2 D201 108C A390 0008C 0504A 35823  2          +
 004DE8 B20A F000      00000       35826  1          +
 DROP   PZERO,R1
 004DEC 47F0 A1FE            04EB8 35835  1 3290.                EXIT  IXSSCH
 004DF0                            35838    3291.              END   ,
                                   35842    3292.     *
                                   35843    3293.     * Get an I/O control block
                                   35844    3294.     *
 USING  GTIOCBP-72,R13             35845    3295.              PSET  GTIOCBP,CLEAR=NO
1GSTINTF  (GSTI00) (09:40) (22MAR04) IHAPSAE  - PSA Extension (ESAME)                                                       Page  163
0Current Usings:  (CPUB,R7) (IXSSCH,R10) (INTERP-72,R12) (GTIOCBP-72,R13)
0Loc    Object Code    Addr1 Addr2  Stmt Lv Lineno    Source Statement           (Hibal 5, Asmedit 3.3)  HLASM R4.0  2004/03/22 09.40
+___    ______ ____    _____ _____  ____ __ ______    ______ _________
0004DF0 D203 D048 7004 00000 00004 35856    3296.              MVC   GTIGSTC,CPGSTCT         Move in the parm
 004DF6 41F0 A3A6/0DEF       05060 35857    3297.              LCALL GETIOCB
 004DFC 1860                       35866    3298.              LR    RX,RVR
 USING  IOCB,R6                    35867    3299.              WITH  (IOCB,RX)
                                   35880    3300.     *
                                   35881    3301.     * Get the subchannel number
                                   35882    3302.     *
 004DFE 4110 0001            00001 35883    3303.              LREGA RS,1                    It lives in R1
 004E02 5910 A342            04FFC 35891             +
 004E06 4720 A15C            04E16 35892             +
 004E0A 4740 A164            04E1E 35893             +
 004E0E 4110 7110            00110 35894             +
 004E12 47F0 A16C            04E26 35895             +
 004E16 4110 7114            00114 35896             +
 004E1A 47F0 A16C            04E26 35897             +
 004E1E 8910 0002            00002 35898             +
 004E22 4111 70BC            000BC 35899             +
 004E26 D203 600C 1000 0000C 00000 35902    3304.              MVC   IOCBSCH,@RS             Move it to the Control block
                                   35903    3305.     *
                                   35904    3306.     * Copy in the ORB
                                   35905    3307.     *
 004E2C B20B 0000                  35906    3308.              MODESET EXTKEY=ZERO,SAVEKEY=(2)
 004E30 B20A 0000      00000       35909             +
 004E34 D20B 6010 3000 00010 00000 35910    3309.              MVC   IOCBORB,@RB             Move it in
 004E3A B20A 2000      00000       35911    3310.              MODESET KEYREG=2
                                   35914    3311.     *
                                   35915    3312.     * Call IOSERV
                                   35916    3313.     *
 DROP   GTIOCBP-72,R13             35917    3314.              PSET  @IORB
 USING  @IORB-72,R13
 004E3E D713 D048 D048 00000 00000 35937             +
 004E44 5060 D048            00000 35938    3315.              ST    RX,@IORRQID             The IOCB is the REQ id
 004E48 D203 D04C 7010 00004 00010 35939    3316.              MVC   @IOROFF,CPCORE          Offset to get MVS virtual
 004E4E D203 D050 6018 00008 00018 35940    3317.              MVC   @IORPARM,IOCBCPA        Chan prog addr (guest real)
 004E54 D203 D054 600C 0000C 0000C 35941    3318.              MVC   @IORSCH,IOCBSCH         Subchannel number
 004E5A D200 D058 6014 00010 00014 35942    3319.              MVC   @IORKEY,IOCBIFLG        Move in the key
 004E60 94F0 D058      00010       35943    3320.              NI    @IORKEY,X'F0'           And only the key
 004E64 58F0 A38A/0DEF       05044 35944    3321.              VCALL DOIO                    Then go do it
                                   35948    3322.     *
                                   35949    3323.     * Reset the condition code
                                   35950    3324.     *
 004E6A 9430 D059      00011       35951    3325.              NI    @IORCC,X'30'            Mask all but the CC bits
 004E6E 94CF 711A      0011A       35952    3326.              NI    SIEPSW+2,X'CF'          Clear out the CC bits
 004E72 D600 711A D059 0011A 00011 35953    3327.              OC    SIEPSW+2(1),@IORCC      Move in the CC
                                   35954    3328.     *
                                   35955    3329.     * If it is an immediate return (CC = 1), we update PZERO and free
                                   35956    3330.     * the IOCB
                                   35957    3331.     *
 004E78 9510 D059      00011       35958    3332.              IF    (@IORCC,EQ,X'10'),BEGIN I/O already done
 004E7C 4770 A1F6            04EB0 35969             +
                                   35974  1 3333.     *
                                   35975  1 3334.     * Access PZERO
                                   35976  1 3335.     *
 004E80 5810 7070            00070 35977  1 3336.                L     RS,CPPSALOC             Get the PZERO address
1GSTINTF  (GSTI00) (09:40) (22MAR04) IHAPSAE  - PSA Extension (ESAME)                                                       Page  164
0Current Usings:  (PZERO,R1) (IOCB,R6) (CPUB,R7) (IXSSCH,R10) (INTERP-72,R12) (@IORB-72,R13)
0Loc    Object Code    Addr1 Addr2  Stmt Lv Lineno    Source Statement           (Hibal 5, Asmedit 3.3)  HLASM R4.0  2004/03/22 09.40
+___    ______ ____    _____ _____  ____ __ ______    ______ _________
0USING  PZERO,R1                   35978  1 3337.                WITH  (PZERO,RS)
                                   35991  1 3338.     *
                                   35992  1 3339.     * Move the info into PZERO
                                   35993  1 3340.     *
 004E84 B20B 0000                  35994  1 3341.                MODESET EXTKEY=ZERO,SAVEKEY=(2)
 004E88 B20A 0000      00000       35997  1          +
 004E8C D203 10B8 600C 000B8 0000C 35998  1 3342.                MVC   PZIOSID,IOCBSCH         Move in the subchannel addr
 004E92 D203 10BC 6010 000BC 00010 35999  1 3343.                MVC   PZIOPRM,IOCBIPRM        And the interrupt parm
 004E98 5000 10C0            000C0 36000  1 3344.                ST    RVR,PZIOSCS             And also the status
 004E9C B20A 2000      00000       36001  1 3345.                MODESET KEYREG=2              Restore our PSW key
                                   36004  1 3346.     *
                                   36005  1 3347.     * Free the IOCB
                                   36006  1 3348.     *
 DROP   @IORB-72,R13               36007  1 3349.                PSET  FRIOCBP,CLEAR=NO
 USING  FRIOCBP-72,R13
 004EA0 D203 D048 7004 00000 00004 36021  1 3350.                MVC   FRIGSTC,CPGSTCT
 004EA6 5060 D04C            00004 36022  1 3351.                ST    RX,FRIIOCB
 004EAA 41F0 A476/0DEF       05130 36023  1 3352.                LCALL FREEIOCB
 DROP   PZERO,R1                   36032    3353.              END   ,
 004EB0 A1FA           04EB0 04E7E 36041    3354.              ELSE  'MVI IOCBHSP,0' Clear flag HSPCETSK is waiting for
 004EB0 47F0 A1FE            04EB8 36046             +
 004EB4 9200 6020      00020       36053             +
 004EB8 981F C008            00008 36058    3355.              PEND  ,
 DROP   IOCB,R6
 DROP   CPUB,R7
 DROP   INTERP-72,R12
 DROP   IXSSCH,R10
 004EBC 9680 C000/0B0E 00000       36083             +
 DROP   FRIOCBP-72,R13
1GSTINTF  (GSTI00) (09:40) (22MAR04) IHAPSAE  - PSA Extension (ESAME)                                                       Page  165
0Loc    Object Code    Addr1 Addr2  Stmt Lv Lineno    Source Statement           (Hibal 5, Asmedit 3.3)  HLASM R4.0  2004/03/22 09.40
+___    ______ ____    _____ _____  ____ __ ______    ______ _________
0                                  36093    3357.     *******************************************************************
                                   36094    3358.     *                                                                 *
                                   36095    3359.     *      IXTPI - Routine to interpret Test Pending Interrupt        *
                                   36096    3360.     *                                                                 *
                                   36097    3361.     *                                                                 *
                                   36098    3362.     *      Input - INTERP -- contains the address of the CPUB         *
                                   36099    3363.     *                                                                 *
                                   36100    3364.     *     Output - none                                               *
                                   36101    3365.     *                                                                 *
                                   36102    3366.     *******************************************************************
-004EC2                            36104    3368.     IXTPI    PROC  INTERP,SCOPE=LOCAL
 004EC2 C9E7E3D7C9404040           36109             +
 004ECA 0008/0000                  36110             +
 004ECE 900F D004/18AF       00004 36112             +
 USING  IXTPI,R10
 004ED4 50D0 C000/18CD       00000 36127             +
 004EDA 9680 C000      00000       36129             +
 USING  INTERP-72,R12
 004EDE 41D0 C050            00050 36143             +
 004EE2 5870 C048            00000 36144    3369.              L     RY,INTCPUB              Parm is the CPUB pointer
 USING  CPUB,R7                    36145    3370.              WITH  (CPUB,RY)
                                   36158    3371.     *
                                   36159    3372.     * Reset the condition code
                                   36160    3373.     *
 004EE6 94CF 711A      0011A       36161    3374.              NI    SIEPSW+2,X'CF'          CC = Zero
                                   36162    3375.     *
                                   36163    3376.     * Get the address of where to store the interruption parms
                                   36164    3377.     *
                                   36165    3378.     *    **** THIS MUST BE A REAL ADDRESS ****
                                   36166    3379.     *
 004EEA 9180 7151      00151       36167    3380.              GETICAD RB,TYPE=S             Get the effective address
 004EEE 47E0 A06A            04F38 36178             +
 004EF2 4830 7158            00158 36183  1          +
 004EF6 8930 0010/18F3       00010 36184  1          +
 004EFC 8830 001C/1233       0001C 36186  1          +
 004F02 4780 A060            04F2E 36196  1          +
 004F06 5930 A12E            04FFC 36206  2          +
 004F0A 4720 A04C            04F1A 36207  2          +
 004F0E 4740 A054            04F22 36208  2          +
 004F12 4130 7110            00110 36209  2          +
 004F16 47F0 A05C            04F2A 36210  2          +
 004F1A 4130 7114            00114 36211  2          +
 004F1E 47F0 A05C            04F2A 36212  2          +
 004F22 8930 0002            00002 36213  2          +
 004F26 4133 70BC            000BC 36214  2          +
 004F2A 5830 3000            00000 36217  1          +
 004F2E 89F0 0004            00004 36222  1          +
 004F32 88F0 0014/1E3F       00014 36223             +
 004EF0 A06E           04EF2 04F38 36232             +
 004F38 47F0 A072            04F40 36234             +
 004F3C 5830 7158            00158 36240             +
                                   36245    3381.     *        LT    RB,SIEICAD1             Get effective address
 004F40 1233                       36246    3382.              LTR   RB,RB
 004F42 4770 A07C            04F4A 36247    3383.              IF    Z,'LA RB,184'           Use the default address
1GSTINTF  (GSTI00) (09:40) (22MAR04) IHAPSAE  - PSA Extension (ESAME)                                                       Page  166
0Current Usings:  (CPUB,R7) (IXTPI,R10) (INTERP-72,R12)
0Loc    Object Code    Addr1 Addr2  Stmt Lv Lineno    Source Statement           (Hibal 5, Asmedit 3.3)  HLASM R4.0  2004/03/22 09.40
+___    ______ ____    _____ _____  ____ __ ______    ______ _________
0004F46 4130 00B8            000B8 36259             +
 004F4A 5800 A14E/1403       0501C 36264    3384.              GRA   RB,(RB)                 Get the MVS address
 004F50 4770 A08A            04F58 36277             +
 004F54 5630 7104            00104 36283             +
 004F52 A08E           04F54 04F58 36292             +
 004F58 47F0 A09A            04F68 36294             +
 004F5C 5900 7104            00104 36308             +
 004F60 4770 A09A            04F68 36309             +
 004F64 5430 A172            05040 36315             +
 004F68 5A30 7010            00010 36320             +
                                   36321    3385.     *
                                   36322    3386.     * Check the address range
                                   36323    3387.     *
 004F6C 5930 7018            00018 36324    3388.              IF    (RB,GE,CPCLAST),BEGIN
 004F70 4750 A0D8            04FA6 36336             +
 004F74 5810 7070/18E2       00070 36341  1 3389.                PIINT CODE=5,ILEN=4           Addressing exception
 USING  PZERO,R1
 004F7A B20B 0000                  36361  2          +
 004F7E B20A 0000/18F2 00000       36362  2          +
 004F84 182E                       36364  2          +
 004F86 D207 1028 7118 00028 00118 36365  2          +
 004F8C D207 7118 1068 00118 00068 36366  2          +
 004F92 D201 108E A17E 0008E 0504C 36367  2          +
 004F98 D201 108C A17C 0008C 0504A 36368  2          +
 004F9E B20A F000      00000       36371  1          +
 DROP   PZERO,R1
 004FA2 47F0 A120            04FEE 36380  1 3390.                EXIT  IXTPI
 004FA6                            36383    3391.              END   ,
                                   36387    3392.     *
                                   36388    3393.     * See if there are any interrupts pending
                                   36389    3394.     *
 USING  GTIOCBP-72,R13             36390    3395.              PSET  GTIOCBP,CLEAR=NO
 004FA6 D203 D048 7004 00000 00004 36401    3396.              MVC   GTIGSTC,CPGSTCT
 004FAC 41F0 A216/0DEF       050E4 36402    3397.              LCALL GETIOI                  Get an interrupt IOCB
 004FB2 1260                       36411    3398.              LTR   RX,RVR
 004FB4 4770 A0EE            04FBC 36412    3399.              IF    Z,'EXIT IXTPI'          There are none
 004FB8 47F0 A120            04FEE 36426             +
 USING  IOCB,R6                    36431    3400.              WITH  (IOCB,RX)
                                   36444    3401.     *
                                   36445    3402.     * Not subject to protection exception
                                   36446    3403.     *
 004FBC B20B 0000                  36447    3404.              MODESET EXTKEY=ZERO,SAVEKEY=(2)
 004FC0 B20A 0000      00000       36450             +
 004FC4 D203 3000 600C 00000 0000C 36451    3405.              MVC   @RB(4),IOCBSCH          Move in the subchannel addr
 004FCA D203 3004 6010 00004 00010 36452    3406.              MVC   @RB+4(4),IOCBIPRM       And the interrupt parm
 004FD0 D203 3008 601C 00008 0001C 36453    3407.              MVC   @RB+8(4),IOCBSTAT       And also the status
 004FD6 B20A 2000      00000       36454    3408.              MODESET KEYREG=2              Restore our PSW key
                                   36457    3409.     *
                                   36458    3410.     * Set the condition code
                                   36459    3411.     *
 004FDA 9610 711A      0011A       36460    3412.              OI    SIEPSW+2,X'10'          CC = 1 (Info stored)
                                   36461    3413.     *
                                   36462    3414.     * Free the IOCB
                                   36463    3415.     *
1GSTINTF  (GSTI00) (09:40) (22MAR04) IHAPSAE  - PSA Extension (ESAME)                                                       Page  167
0Current Usings:  (IOCB,R6) (CPUB,R7) (IXTPI,R10) (INTERP-72,R12) (FRIOCBP-72,R13)
0Loc    Object Code    Addr1 Addr2  Stmt Lv Lineno    Source Statement           (Hibal 5, Asmedit 3.3)  HLASM R4.0  2004/03/22 09.40
+___    ______ ____    _____ _____  ____ __ ______    ______ _________
0DROP   GTIOCBP-72,R13             36464    3416.              PSET  FRIOCBP,CLEAR=NO
 USING  FRIOCBP-72,R13
 004FDE D203 D048 7004 00000 00004 36478    3417.              MVC   FRIGSTC,CPGSTCT
 004FE4 5060 D04C            00004 36479    3418.              ST    RX,FRIIOCB
 004FE8 41F0 A262/0DEF       05130 36480    3419.              LCALL FREEIOCB
 004FEE 981F C008            00008 36489    3420.              PEND  ,
 DROP   IOCB,R6
 DROP   CPUB,R7
 DROP   INTERP-72,R12
 DROP   IXTPI,R10
 004FF2 9680 C000/0B0E 00000       36514             +
 DROP   FRIOCBP-72,R13
1GSTINTF  (GSTI00) (09:40) (22MAR04) IHAPSAE  - PSA Extension (ESAME)                                                       Page  168
0Loc    Object Code    Addr1 Addr2  Stmt Lv Lineno    Source Statement           (Hibal 5, Asmedit 3.3)  HLASM R4.0  2004/03/22 09.40
+___    ______ ____    _____ _____  ____ __ ______    ______ _________
0004FF8                            36524    3422.              LTORG
 004FF8 0000000F                   36526                             =X'0000000F'
 004FFC 0000000E                   36527                             =F'14'
 005000 0000FFFF                   36528                             =X'0000FFFF'
 005004 00000038                   36529                             =A(SIGPMAX)
 005008 00000002                   36530                             =A(SIGPINVO)
 00500C 00000000                   36531                             =V(FPOST)
 005010 00000080                   36532                             =A(SIGPEXCP)
 005014 00000040                   36533                             =A(SIGPSTOP)
 005018 0000000E                   36534                             =X'0000000E'
 00501C 7FFFF000                   36535                             =X'7FFFF000'
 005020 00000200                   36536                             =A(SIGPICST)
 005024 00000100                   36537                             =A(SIGPINVP)
 005028 00001000                   36538                             =A(4096)
 00502C 00000000                   36539                             =V(PAGEFREE)
 005030 00000000                   36540                             =V(PAGEFIX)
 005034 0000837A                   36541                             =A(SETCLOC2)
 005038 00005180                   36542                             =A(GVA)
 00503C 00000004                   36543                             =A(4)
 005040 00000FFF                   36544                             =A(4095)
 005044 00000000                   36545                             =V(DOIO)
 005048 FFFF                       36546                             =X'FFFF'
 00504A 0004                       36547                             =Y(4)
 00504C 0005           05054 08402 36548                             =Y(5)
1GSTINTF  (GSTI00) (09:40) (22MAR04) IHAPSAE  - PSA Extension (ESAME)                                                       Page  169
0Loc    Object Code    Addr1 Addr2  Stmt Lv Lineno    Source Statement           (Hibal 5, Asmedit 3.3)  HLASM R4.0  2004/03/22 09.40
+___    ______ ____    _____ _____  ____ __ ______    ______ _________
0                                  36553    3424.     *******************************************************************
                                   36554    3425.     *                                                                 *
                                   36555    3426.     *    GETIOCB - This routine returns the address of an available   *
                                   36556    3427.     *              IOCB.                                              *
                                   36557    3428.     *                                                                 *
                                   36558    3429.     *      Input - GTIOCBP -- contains the address of the GSTCT       *
                                   36559    3430.     *                                                                 *
                                   36560    3431.     *     Output - RVR contains the address of an IOCB                *
                                   36561    3432.     *                                                                 *
                                   36562    3433.     *******************************************************************
-000000                00000 00004 36564    3435.     GTIOCBP  RECORD BEGIN
 000000                            36572  1 3436.     GTIGSTC    DS    A             Address of the GSTCT
 000004                00004 00004 36573    3437.              END   ,
-005054                            36583    3439.     GETIOCB  PROC  GTIOCBP,SCOPE=LOCAL
 005054 C7C5E3C9D6C3C240           36588             +
 00505C 0008/0000                  36589             +
 005060 900F D004/18AF       00004 36591             +
 USING  GETIOCB,R10
 005066 50D0 C000/18CD       00000 36606             +
 00506C 9680 C000      00000       36608             +
 USING  GTIOCBP-72,R12
 005070 41D0 C050            00050 36622             +
 005074 5870 C048            00000 36623    3440.              L     RY,GTIGSTC              Address of the GSTCT
 USING  GSTCT,R7                   36624    3441.              WITH  (GSTCT,RY)
                                   36637    3442.     *
                                   36638    3443.     * Attempt first to get an IOCB that is already allocated
                                   36639    3444.     *
 005078 9823 7028            00028 36640    3445.              LM    RA,RB,GSTCIOFQ          Header of the free queue
 00507C                            36641    3446.              LOOP  BEGIN
 00507C 1222/4780 A036       05096 36647  1 3447.                IF    (RA,Z),NEWIOCB          No pre-allocated ones
 005082 5840 2004            00004 36664  1 3448.                WITH  (IOCB,RA),'L RJ,IOCBNEXT'
 USING  IOCB,R2
 DROP   IOCB,R2
 005086 1853                       36688  1 3449.                LR    RK,RB                   Copy the control value
 005088 BB24 7028            00028 36689  1 3450.                CDS   RA,RJ,GSTCIOFQ          Update the queue pointers
 00508C 4770 A01C            0507C 36690    3451.              UNTIL Z,END                   Keep trying till we get it
 005090 1802                       36709    3452.              LR    RVR,RA                  Get the IOCB pointer
 005092 47F0 A06E            050CE 36710    3453.              EXIT  GETIOCB
                                   36713    3454.     *
                                   36714    3455.     * If there are no pre-allocated ones we allocate a new one.
                                   36715    3456.     *
                                   36716    3457.     *NEWIOCB MEMGET L'IOCB,TYPE=(GLOBAL)
 005096 4100 0024            00024 36717    3458.     NEWIOCB  LA    RVR,L'IOCB
 00509A 0700/47F0 A044       050A4 36718    3459.     OBTIOCB  STORAGE OBTAIN,LENGTH=(RVR),SP=12,RELATED=RELIOCB
 0050A0 00/00/0C/02                36723             +
 0050A4 1800/58F0 A040       050A0 36728             +
 0050AA 58E0 0010            00010 36730             +
 0050AE 58EE 0304            00304 36731             +
 0050B2 58EE 00A0            000A0 36732             +
 0050B6 B218 E000      00000       36733             +
 0050BA 1801                       36734    3460.              LR    RVR,RS                  Insert addr in R0
 0050BC 1861                       36735    3461.              LR    RX,RS
1GSTINTF  (GSTI00) (09:40) (22MAR04) IHAPSAE  - PSA Extension (ESAME)                                                       Page  170
0Current Usings:  (IOCB,R6) (GSTCT,R7) (GETIOCB,R10) (GTIOCBP-72,R12)
0Loc    Object Code    Addr1 Addr2  Stmt Lv Lineno    Source Statement           (Hibal 5, Asmedit 3.3)  HLASM R4.0  2004/03/22 09.40
+___    ______ ____    _____ _____  ____ __ ______    ______ _________
0USING  IOCB,R6                    36736    3462.              WITH  (IOCB,RX)
 0050BE                            36749    3463.              CLEAR IOCB
 0050BE D723 6000 6000 00000 00000 36755             +
 0050C4 D203 6000 A2B8 00000 05318 36756    3464.              MVC   IOCB(4),=C'IOCB'        Init the control block id
 0050CA 5070 6008            00008 36757    3465.              ST    RY,IOCBGSTC             Save GSTC pointer for later
 0050CE 981F C008            00008 36758    3466.              PEND
 DROP   IOCB,R6
 DROP   GSTCT,R7
 DROP   GTIOCBP-72,R12
 DROP   GETIOCB,R10
 0050D2 9680 C000/0B0E 00000       36783             +
1GSTINTF  (GSTI00) (09:40) (22MAR04) IHAPSAE  - PSA Extension (ESAME)                                                       Page  171
0Loc    Object Code    Addr1 Addr2  Stmt Lv Lineno    Source Statement           (Hibal 5, Asmedit 3.3)  HLASM R4.0  2004/03/22 09.40
+___    ______ ____    _____ _____  ____ __ ______    ______ _________
0                                  36790    3468.     *******************************************************************
                                   36791    3469.     *                                                                 *
                                   36792    3470.     *     GETIOI - This routine returns the address of an IOCB that   *
                                   36793    3471.     *              has been signalled complete.                       *
                                   36794    3472.     *                                                                 *
                                   36795    3473.     *      Input - GTIOCBP -- contains the address of the GSTCT       *
                                   36796    3474.     *                                                                 *
                                   36797    3475.     *     Output - RVR contains the address of an IOCB                *
                                   36798    3476.     *                                                                 *
                                   36799    3477.     *******************************************************************
-0050D8                            36801    3479.     GETIOI   PROC  GTIOCBP,SCOPE=LOCAL
 0050D8 C7C5E3C9D6C94040           36806             +
 0050E0 0008/0000                  36807             +
 0050E4 900F D004/18AF       00004 36809             +
 USING  GETIOI,R10
 0050EA 50D0 C000/18CD       00000 36824             +
 0050F0 9680 C000      00000       36826             +
 USING  GTIOCBP-72,R12
 0050F4 41D0 C050            00050 36840             +
 0050F8 5870 C048            00000 36841    3480.              L     RY,GTIGSTC              Address of the GSTCT
 USING  GSTCT,R7                   36842    3481.              WITH  (GSTCT,RY)
                                   36855    3482.     *
                                   36856    3483.     * Get the first IOCB off the interrupt pending queue
                                   36857    3484.     *
 0050FC 9823 7030            00030 36858    3485.              LM    RA,RB,GSTCIOIQ          Header of interrupt queue
 005100                            36859    3486.              LOOP  BEGIN
 005100 1222/4780 A034       05118 36865  1 3487.                IF    (RA,Z),EXIT             No interrupts pending
 005106 5840 2004            00004 36882  1 3488.                WITH  (IOCB,RA),'L RJ,IOCBNEXT; MVI IOCBHSP,0'
 USING  IOCB,R2
 00510A 9200 2020      00020       36898  1          +
 DROP   IOCB,R2
 00510E 1853                       36907  1 3489.                LR    RK,RB                   Copy the control value
 005110 BB24 7030            00030 36908  1 3490.                CDS   RA,RJ,GSTCIOIQ          Update the queue pointers
 005114 4770 A01C            05100 36909    3491.              UNTIL Z,END                   Keep trying till we get it
 005118 1802                       36928    3492.              LR    RVR,RA                  Get the IOCB pointer
 00511A 981F C008            00008 36929    3493.              PEND
 DROP   GSTCT,R7
 DROP   GTIOCBP-72,R12
 DROP   GETIOI,R10
 00511E 9680 C000/0B0E 00000       36949             +
1GSTINTF  (GSTI00) (09:40) (22MAR04) IHAPSAE  - PSA Extension (ESAME)                                                       Page  172
0Loc    Object Code    Addr1 Addr2  Stmt Lv Lineno    Source Statement           (Hibal 5, Asmedit 3.3)  HLASM R4.0  2004/03/22 09.40
+___    ______ ____    _____ _____  ____ __ ______    ______ _________
0                                  36956    3495.     *******************************************************************
                                   36957    3496.     *                                                                 *
                                   36958    3497.     *   FREEIOCB - This routine takes an IOCB and puts it on the free *
                                   36959    3498.     *              queue for the guest machine.                       *
                                   36960    3499.     *                                                                 *
                                   36961    3500.     *      Input - FRIOCBP                                            *
                                   36962    3501.     *                                                                 *
                                   36963    3502.     *     Output - RVR = 0 if no more I/Os are queued.                *
                                   36964    3503.     *                                                                 *
                                   36965    3504.     *******************************************************************
-000000                00000 00008 36967    3506.     FRIOCBP  RECORD BEGIN
 000000                            36975  1 3507.     FRIGSTC    DS    A             Address of the GSTCT
 000004                            36976  1 3508.     FRIIOCB    DS    A             Address of the IOCV to free
 000008                00008 00008 36977    3509.              END   ,
-005124                            36987    3511.     FREEIOCB PROC  FRIOCBP,SCOPE=LOCAL
 005124 C6D9C5C5C9D6C3C2           36992             +
 00512C 0008/0000                  36993             +
 005130 900F D004/18AF       00004 36995             +
 USING  FREEIOCB,R10
 005136 50D0 C000/18CD       00000 37010             +
 00513C 9680 C000      00000       37012             +
 USING  FRIOCBP-72,R12
 005140 41D0 C050            00050 37026             +
 005144 5870 C048            00000 37027    3512.              L     RY,FRIGSTC              Get the GSTCT address
 USING  GSTCT,R7                   37028    3513.              WITH  (GSTCT,RY)
 005148 5840 C04C            00004 37041    3514.              L     RJ,FRIIOCB              Get the IOCB address
 USING  IOCB,R4                    37042    3515.              WITH  (IOCB,RJ)
 00514C 9200 4020      00020       37055    3516.              MVI   IOCBHSP,0       Clear flag HSPCETSK is waiting for
                                   37056    3517.     *
                                   37057    3518.     * Get the current head off the list and swap ours on
                                   37058    3519.     *
 005150 9823 7028            00028 37059    3520.              LM    RA,RB,GSTCIOFQ          Get the free queue data
 005154                            37060    3521.              LOOP  BEGIN
 005154 5020 4004            00004 37066  1 3522.                ST    RA,IOCBNEXT             Update the chain
 005158 4150 0001            00001 37067  1 3523.                LA    RK,1
 00515C 1A53                       37068  1 3524.                AR    RK,RB                   Update the counter
 00515E BB24 7028            00028 37069  1 3525.                CDS   RA,RJ,GSTCIOFQ          Update the free queue
 005162 4770 A024            05154 37070    3526.              UNTIL Z,END                   All done.
 005166 5800 7030            00030 37089    3527.              L     RVR,GSTCIOIQ            Non zero if any I/Os queued
 00516A 981F C008            00008 37090    3528.              PEND
 DROP   IOCB,R4
 DROP   GSTCT,R7
 DROP   FRIOCBP-72,R12
 DROP   FREEIOCB,R10
 00516E 9680 C000/0B0E 00000       37115             +
1GSTINTF  (GSTI00) (09:40) (22MAR04) IHAPSAE  - PSA Extension (ESAME)                                                       Page  173
0Loc    Object Code    Addr1 Addr2  Stmt Lv Lineno    Source Statement           (Hibal 5, Asmedit 3.3)  HLASM R4.0  2004/03/22 09.40
+___    ______ ____    _____ _____  ____ __ ______    ______ _________
0                                  37122    3530.     *******************************************************************
                                   37123    3531.     *                                                                 *
                                   37124    3532.     *        GVA - This routine takes a guest virtual address and     *
                                   37125    3533.     *              converts it to an MVS virtual address.             *
                                   37126    3534.     *                                                                 *
                                   37127    3535.     *      Input - GVAPARM                                            *
                                   37128    3536.     *                                                                 *
                                   37129    3537.     *     Output - RVR Contains data about the page availability      *
                                   37130    3538.     *                  0 -- Page available                            *
                                   37131    3539.     *                  4 -- Page may not be written                   *
                                   37132    3540.     *                 16 -- Segment Fault                             *
                                   37133    3541.     *                 17 -- Page Fault                                *
                                   37134    3542.     *                                                                 *
                                   37135    3543.     *******************************************************************
-000000                00000 0000C 37137    3545.     GVAPARM  RECORD BEGIN
 000000                            37145  1 3546.     GVACPUB    DS    A             Address of the CPUB
 000004                            37146  1 3547.     GVAVLOC    DS    A             Guest virtual address
 000008                            37147  1 3548.     GVAMLOC    DS    A             Return of the MVS virtual address
 00000C                0000C 0000C 37148    3549.              END   ,
-005174                            37158    3551.     GVA      PROC  GVAPARM,SCOPE=LOCAL
 005174 C7E5C14040404040           37163             +
 00517C 0010/0000                  37164             +
 005180 900F D004/18AF       00004 37166             +
 USING  GVA,R10
 005186 50D0 C000/18CD       00000 37181             +
 00518C 9680 C000      00000       37183             +
 USING  GVAPARM-72,R12
 005190 41D0 C058            00058 37197             +
 005194 5880 C048            00000 37198    3552.              L     RM,GVACPUB              Get the CPUB pointer
 USING  CPUB,R8                    37199    3553.              WITH  (CPUB,RM)
 005198 1B66                       37212    3554.              CLEAR RX                      Protection flag
                                   37216    3555.     *
                                   37217    3556.     * Check on low address protection
                                   37218    3557.     *
 00519A 9110 8180      00180       37219    3558.              IF    SIECRS.X'10',BEGIN      Low address protection on
 00519E 47E0 A030            051B0 37230             +
 0051A2                            37235  1 3559.                IF    (GVAVLOC,LT,=A(512)),'LA RX,4'    And can't write here
 0051A2 D503 A19C C04C 0531C 00004 37246  1          +
 0051A8 47D0 A030            051B0 37247  1          +
 0051AC 4160 0004            00004 37253  1          +
 0051B0                            37258    3560.              END   ,
                                   37262    3561.     *
                                   37263    3562.     * Check on whether DAT is off
                                   37264    3563.     *
 0051B0 9104 8118      00118       37265    3564.              IF    ~SIEPSW.4,BEGIN         No translation
 0051B4 4710 A062            051E2 37276             +
 0051B8 5810 C04C            00004 37281  1 3565.                L     RS,GVAVLOC              get the guest real addr
 0051BC 5800 A1A0/1401       05320 37282  1 3566.                GRA   RS,(RS)                 Convert to MVS virtual
 0051C2 4770 A04A            051CA 37295  1          +
 0051C6 5610 8104            00104 37301  1          +
 0051C4 A04E           051C6 051CA 37310  1          +
 0051CA 47F0 A05A            051DA 37312  1          +
1GSTINTF  (GSTI00) (09:40) (22MAR04) IHAPSAE  - PSA Extension (ESAME)                                                       Page  174
0Current Usings:  (CPUB,R8) (GVA,R10) (GVAPARM-72,R12)
0Loc    Object Code    Addr1 Addr2  Stmt Lv Lineno    Source Statement           (Hibal 5, Asmedit 3.3)  HLASM R4.0  2004/03/22 09.40
+___    ______ ____    _____ _____  ____ __ ______    ______ _________
00051CE 5900 8104            00104 37326  1          +
 0051D2 4770 A05A            051DA 37327  1          +
 0051D6 5410 A1A4            05324 37333  1          +
 0051DA 5A10 8010            00010 37338  1          +
 0051DE 47F0 A182            05302 37339  1 3567.                B     GVAREAL                 Skip the translation
 0051E2                            37340    3568.              END   ,
                                   37344    3569.     *
                                   37345    3570.     * Get the STO for the correct address space
                                   37346    3571.     *
 0051E2 9180 811A      0011A       37347    3572.              IF    SIEPSW+2.X'80',BEGIN    Secondary Space mode
 0051E6 47E0 A072            051F2 37358             +
 0051EA 5870 819C            0019C 37363  1 3573.                L     RY,SIECRS+7*4           CR 7
 0051EE 9680 C04C      00004       37364  1 3574.                SET   GVAVLOC.X'80'           Indicate secondary
 0051F2 A076           051F2 051E8 37371    3575.              END   ELSE,BEGIN              Primary Space mode
 0051F2 47F0 A07A            051FA 37380             +
 0051F6 5870 8184            00184 37386  1 3576.                L     RY,SIECRS+1*4           CR 1
 0051FA                            37387    3577.              END   ,
                                   37391    3578.     *
                                   37392    3579.     * Break up the virtual address
                                   37393    3580.     *
 0051FA 5820 C04C            00004 37394    3581.              L     RA,GVAVLOC
 0051FE 4120 2000            00000 37395    3582.              LA    RA,@RA                  Clear the High bit
 005202 8C20 0014            00014 37396    3583.              SRDL  RA,20                   Shift Seg # to low bits
 005206 8830 0018            00018 37397    3584.              SRL   RB,24                   Shift Page # to low bits
                                   37398    3585.     *
                                   37399    3586.     * Check segment table length
                                   37400    3587.     *
 00520A 1817                       37401    3588.              LR    RS,RY                   Copy of the STO
 00520C 5410 A1A8            05328 37402    3589.              N     RS,=X'0000007F'         Mask out the length
 005210 5E10 A1AC            0532C 37403    3590.              INCR  RS                      Get actual # table increments
 005214 8910 0004            00004 37406    3591.              SLL   RS,4                    16 STEs per increment
 005218 1921/4750 A0A6       05226 37407    3592.              IF    (RA,GE,RS),BEGIN        Too big.  Segment Fault.
 00521E 4100 0010            00010 37422  1 3593.                LA    RVR,16                  Segment fault code
 005222 47F0 A188            05308 37423  1 3594.                EXIT  GVA                     Go home
 005226                            37426    3595.              END   ,
                                   37430    3596.     *
                                   37431    3597.     * Get the MVS Virtual address of the Segment table
                                   37432    3598.     *
 005226 5470 A1A0            05320 37433    3599.              N     RY,=X'7FFFF000'         Guest real address of the ST
 00522A 5800 A1A0/1407       05320 37434    3600.              GRA   RY,(RY)                 Translate to MVS virtual
 005230 4770 A0B8            05238 37447             +
 005234 5670 8104            00104 37453             +
 005232 A0BC           05234 05238 37462             +
 005238 47F0 A0C8            05248 37464             +
 00523C 5900 8104            00104 37478             +
 005240 4770 A0C8            05248 37479             +
 005244 5470 A1A4            05324 37485             +
 005248 5A70 8010            00010 37490             +
                                   37491    3601.     *
                                   37492    3602.     * Get the ST entry
                                   37493    3603.     *
 00524C 8920 0002            00002 37494    3604.              SLL   RA,2                    Size of an ST entry
 005250 4172 7000            00000 37495    3605.              LA    RY,@RY(RA)              Get the ST entry addr
                                   37496    3606.     *
1GSTINTF  (GSTI00) (09:40) (22MAR04) IHAPSAE  - PSA Extension (ESAME)                                                       Page  175
0Current Usings:  (CPUB,R8) (GVA,R10) (GVAPARM-72,R12)
0Loc    Object Code    Addr1 Addr2  Stmt Lv Lineno    Source Statement           (Hibal 5, Asmedit 3.3)  HLASM R4.0  2004/03/22 09.40
+___    ______ ____    _____ _____  ____ __ ______    ______ _________
0                                  37497    3607.     * Check for invalidity
                                   37498    3608.     *
 005254 9120 7003      00003       37499    3609.              IF    @RY+3.X'20',BEGIN       Invalid...Segment Fault
 005258 47E0 A0E4            05264 37510             +
 00525C 4100 0010            00010 37515  1 3610.                LA    RVR,16
 005260 47F0 A188            05308 37516  1 3611.                EXIT  GVA
 005264                            37519    3612.              END   ,
                                   37523    3613.
 005264 5870 7000            00000 37524    3614.              L     RY,@RY                  Get the actual entry
                                   37525    3615.     *
                                   37526    3616.     * Check PT length
                                   37527    3617.     *
 005268 1817                       37528    3618.              LR    RS,RY
 00526A 5410 A1B0            05330 37529    3619.              N     RS,=X'0000000F'         Mask out the PT length
 00526E 5E10 A1AC            0532C 37530    3620.              INCR  RS                      Acutal number of increments
 005272 8910 0004            00004 37533    3621.              SLL   RS,4                    16 entries/increment
 005276 1931/4750 A104       05284 37534    3622.              IF    (RB,GE,RS),BEGIN        Page Fault
 00527C 4100 0011            00011 37549  1 3623.                LA    RVR,17
 005280 47F0 A188            05308 37550  1 3624.                EXIT  GVA
 005284                            37553    3625.              END   ,
                                   37557    3626.     *
                                   37558    3627.     * Get real address of the PTO
                                   37559    3628.     *
 005284 5470 A1B4            05334 37560    3629.              N     RY,=X'7FFFFFC0'         Guest Real
 005288 5800 A1A0/1407       05320 37561    3630.              GRA   RY,(RY)                 to MVS virtual
 00528E 4770 A116            05296 37574             +
 005292 5670 8104            00104 37580             +
 005290 A11A           05292 05296 37589             +
 005296 47F0 A126            052A6 37591             +
 00529A 5900 8104            00104 37605             +
 00529E 4770 A126            052A6 37606             +
 0052A2 5470 A1A4            05324 37612             +
 0052A6 5A70 8010            00010 37617             +
                                   37618    3631.     *
                                   37619    3632.     * PT Entry
                                   37620    3633.     *
 0052AA 8930 0002            00002 37621    3634.              SLL   RB,2                    Size of a PT entry
 0052AE 4173 7000            00000 37622    3635.              LA    RY,@RY(RB)              Address of the entry
                                   37623    3636.     *
                                   37624    3637.     * Check Validity
                                   37625    3638.     *
 0052B2 9104 7002      00002       37626    3639.              IF    @RY+2.X'04',BEGIN       Invalid...page fault
 0052B6 47E0 A142            052C2 37637             +
 0052BA 4100 0011            00011 37642  1 3640.                LA    RVR,17
 0052BE 47F0 A188            05308 37643  1 3641.                EXIT  GVA
 0052C2                            37646    3642.              END   ,
 0052C2 9102 7002      00002       37650    3643.              IF    @RY+2.X'02','LA RX,4'    Protected page
 0052C6 47E0 A14E            052CE 37661             +
 0052CA 4160 0004            00004 37667             +
                                   37672    3644.     *
                                   37673    3645.     * Get the actual entry
                                   37674    3646.     *
 0052CE 5870 7000            00000 37675    3647.              L     RY,@RY                  Get it
 0052D2 5470 A1A0            05320 37676    3648.              N     RY,=X'7FFFF000'         Convert to Guest real
1GSTINTF  (GSTI00) (09:40) (22MAR04) IHAPSAE  - PSA Extension (ESAME)                                                       Page  176
0Current Usings:  (CPUB,R8) (GVA,R10) (GVAPARM-72,R12)
0Loc    Object Code    Addr1 Addr2  Stmt Lv Lineno    Source Statement           (Hibal 5, Asmedit 3.3)  HLASM R4.0  2004/03/22 09.40
+___    ______ ____    _____ _____  ____ __ ______    ______ _________
00052D6 5800 A1A0/1407       05320 37677    3649.              GRA   RY,(RY)                 Convert to MVS Virtual
 0052DC 4770 A164            052E4 37690             +
 0052E0 5670 8104            00104 37696             +
 0052DE A168           052E0 052E4 37705             +
 0052E4 47F0 A174            052F4 37707             +
 0052E8 5900 8104            00104 37721             +
 0052EC 4770 A174            052F4 37722             +
 0052F0 5470 A1A4            05324 37728             +
 0052F4 5A70 8010            00010 37733             +
                                   37734    3650.     *
                                   37735    3651.     * Construct total address
                                   37736    3652.     *
 0052F8 5810 C04C            00004 37737    3653.              L     RS,GVAVLOC              Get the address
 0052FC 5410 A1B8            05338 37738    3654.              N     RS,=X'00000FFF'         But we only want displacement
 005300 1617                       37739    3655.              OR    RS,RY                   Get total
 005302 5010 C050            00008 37740    3656.     GVAREAL  ST    RS,GVAMLOC              Save it
 005306 1806                       37741    3657.              LR    RVR,RX                  Signal good return / PROTECT
 005308 981F C008            00008 37742    3658.              PEND
 DROP   CPUB,R8
 DROP   GVAPARM-72,R12
 DROP   GVA,R10
 00530C 9680 C000/0B0E 00000       37762             +
 005318                            37768    3659.              LTORG
 005318 C9D6C3C2                   37770                             =C'IOCB'
 00531C 00000200                   37771                             =A(512)
 005320 7FFFF000                   37772                             =X'7FFFF000'
 005324 00000FFF                   37773                             =A(4095)
 005328 0000007F                   37774                             =X'0000007F'
 00532C 00000001                   37775                             =A(1)
 005330 0000000F                   37776                             =X'0000000F'
 005334 7FFFFFC0                   37777                             =X'7FFFFFC0'
 005338 00000FFF       0533C 08402 37778                             =X'00000FFF'
1GSTINTF  (GSTI00) (09:40) (22MAR04) IHAPSAE  - PSA Extension (ESAME)                                                       Page  177
0Loc    Object Code    Addr1 Addr2  Stmt Lv Lineno    Source Statement           (Hibal 5, Asmedit 3.3)  HLASM R4.0  2004/03/22 09.40
+___    ______ ____    _____ _____  ____ __ ______    ______ _________
0                                  37783    3661.     *******************************************************************
                                   37784    3662.     *                                                                 *
                                   37785    3663.     *    LOADIPL - This routine loads the IPL text into the first     *
                                   37786    3664.     *              page of guest storage.  It is passed the address   *
                                   37787    3665.     *              of the GSTCT.                                      *
                                   37788    3666.     *                                                                 *
                                   37789    3667.     *      Input - LOADIP dsect                                       *
                                   37790    3668.     *                                                                 *
                                   37791    3669.     *     Output - none                                               *
                                   37792    3670.     *                                                                 *
                                   37793    3671.     *                                                                 *
                                   37794    3672.     *******************************************************************
-000000                00000 00004 37796    3674.     LOADIP   RECORD BEGIN
 000000                            37804  1 3675.     LIPGSTCT   DS    A             Address of the GSTCT
 000004                00004 00004 37805    3676.              END   ,
-00533C                            37815    3678.     LOADIPL  PROC  LOADIP,SCOPE=LOCAL
 00533C D3D6C1C4C9D7D340           37820             +
 005344 0008/0000                  37821             +
 005348 900F D004/18AF       00004 37823             +
 USING  LOADIPL,R10
 00534E 50D0 C000/18CD       00000 37838             +
 005354 9680 C000      00000       37840             +
 USING  LOADIP-72,R12
 005358 41D0 C050            00050 37854             +
 00535C 5860 C048            00000 37855    3679.              L     RX,LIPGSTCT
 USING  GSTCT,R6                   37856    3680.              WITH  (GSTCT,RX)
 005360 5820 6010            00010 37869    3681.              L     RA,GSTCCORE             Address of guest storage
 005364 5840 A778            05AC0 37870    3682.              L     RJ,=V(IPLTEXT)          Location of the IPL text
 005368 5850 A77C            05AC4 37871    3683.              L     RK,=A(4096)             length of the IPL text
 00536C 1835                       37872    3684.              LR    RB,RK                   No pad
 00536E 0E24                       37873    3685.              MVCL  RA,RJ                   Move the Kernel in
 005370 981F C008            00008 37874    3686.              PEND
 DROP   GSTCT,R6
 DROP   LOADIP-72,R12
 DROP   LOADIPL,R10
 005374 9680 C000/0B0E 00000       37894             +
1GSTINTF  (GSTI00) (09:40) (22MAR04) IHAPSAE  - PSA Extension (ESAME)                                                       Page  178
0Loc    Object Code    Addr1 Addr2  Stmt Lv Lineno    Source Statement           (Hibal 5, Asmedit 3.3)  HLASM R4.0  2004/03/22 09.40
+___    ______ ____    _____ _____  ____ __ ______    ______ _________
0                                  37901    3688.     *******************************************************************
                                   37902    3689.     *                                                                 *
                                   37903    3690.     *    DTABEND - This is a DIAGNOSE service routine.  It causes     *
                                   37904    3691.     *              ORVYL to DIE.                                      *
                                   37905    3692.     *                                                                 *
                                   37906    3693.     *      Input - INTERP dsect                                       *
                                   37907    3694.     *                                                                 *
                                   37908    3695.     *     Output - none                                               *
                                   37909    3696.     *                                                                 *
                                   37910    3697.     *                                                                 *
                                   37911    3698.     *******************************************************************
-00537A                            37913    3700.     DTABEND  PROC  INTERP,SCOPE=LOCAL
 00537A C4E3C1C2C5D5C440           37918             +
 005382 0008/0000                  37919             +
 005386 900F D004/18AF       00004 37921             +
 USING  DTABEND,R10
 00538C 50D0 C000/18CD       00000 37936             +
 005392 9680 C000      00000       37938             +
 USING  INTERP-72,R12
 005396 41D0 C050            00050 37952             +
 00539A 5870 C048            00000 37953    3701.              L     RY,INTCPUB              Get the CPUB
 USING  CPUB,R7                    37954    3702.              WITH  (CPUB,RY)
 00539E 4110 7094            00094 37967    3703.              STIMERM CANCEL,ID=ALL,MF=(E,CPSTIMER)   Cancel time
 0053A2 D70F 1000 1000 00000 00000 37971             +
 0053A8 9209 1000      00000       37972             +
 0053AC 9201 1003/1801 00003       37973             +
 0053B2 4110 0008/0A2E       00008 37975             +
                                   37977    3704.     *
                                   37978    3705.     * Stop all the other CPUs
                                   37979    3706.     *
 0053B8 5860 7004            00004 37980    3707.              L     RX,CPGSTCT              Get the GSTCT pointer
 USING  GSTCT,R6                   37981    3708.              WITH  (GSTCT,RX)
 0053BC 4120 6038            00038 37994    3709.              LA    RA,GSTCCPUS             Address of first CPUB pointer
 0053C0 1B33                       37995    3710.              CLEAR RB                      Count of CPUs
 0053C2 5930 6004            00004 37999    3711.              WHILE (RB,LT,GSTCNCPU),BEGIN  Loop through them
 0053C6 47B0 A0A4            0542A 38013             +
 0053CA 5840 2000            00000 38018  1 3712.                L     RJ,@RA                  Get the CPUB
 0053CE 1974/4780 A098       0541E 38019  1 3713.                IF    (RY,NE,RJ),BEGIN        Not ours
 DROP   CPUB,R7                    38034  2 3714.                  WITH  (CPUB,RJ),BEGIN
 USING  CPUB,R4
 005B00 7F             05B00 08402 38056  3 3715.                    CLEAR CPCSRUN,MODE=LOCKED,REF=CPUB      Not running anymore
 0053D4 41F0 0001/111F       00001 38076  3          +
 0053DA 89F0 0003            00003 38078  3          +
 0053DE 44F0 A77C            05B02 38080  3          +
 005B01 00/BF10 A77A         05B00        3          +
 0053E2 58F0 4060/180F       00060 38095  3          +
 0053E8 1401/BAF0 4060       00060 38097  3          +
 0053EE 4770 A060            053E6 38100  3          +
 0053F2 58F0 4100            00100 38101  3 3716.                    SET   SIEIPSTP,MODE=LOCKED,REF=SIEDATA  Set intervention bit
 0053F6 4110 0004            00004 38108  3          +
 0053FA 8910 0018/180F       00018 38109  3          +
 005400 1601/BAF0 4100       00100 38111  3          +
 005406 4770 A078            053FE 38114  3          +
 USING  @FPOST-72,R13              38115  3 3717.                    FPOST LA:CPECB                Then wake it up
1GSTINTF  (GSTI00) (09:40) (22MAR04) IHAPSAE  - PSA Extension (ESAME)                                                       Page  179
0Current Usings:  (CPUB,R4) (GSTCT,R6) (DTABEND,R10) (INTERP-72,R12) (@FPOST-72,R13)
0Loc    Object Code    Addr1 Addr2  Stmt Lv Lineno    Source Statement           (Hibal 5, Asmedit 3.3)  HLASM R4.0  2004/03/22 09.40
+___    ______ ____    _____ _____  ____ __ ______    ______ _________
000540A D703 D048 D048 00000 00000 38133  3          +
 005410 41E0 405C            0005C 38138  3          +
 005414 50E0 D048            00000 38139  3          +
 005418 58F0 A742/0DEF       05AC8 38142  3          +
 USING  CPUB,R7                    38144  2 3718.                  END   ,
 DROP   CPUB,R4
 00541E                            38161  1 3719.                END   ,
 00541E 4120 2004            00004 38165  1 3720.                LA    RA,@RA+4                Get to the next CPU
 005422 4130 3001            00001 38166  1 3721.                LA    RB,@RB+1                Count one more
 005426 47F0 A03C            053C2 38167    3722.              END   ,
                                   38172    3723.     *
                                   38173    3724.     * Then quietly go away
                                   38174    3725.     *
 00542A 4110 03E7            003E7 38175    3726.              ABEND 999,DUMP
 00542E 4100 0080            00080 38180             +
 005432 8900 0018/1610       00018 38181             +
 005438 0A0D                       38183             +
 00543A 981F C008            00008 38184    3727.              PEND  ,
 DROP   GSTCT,R6
 DROP   CPUB,R7
 DROP   INTERP-72,R12
 DROP   DTABEND,R10
 00543E 9680 C000/0B0E 00000       38209             +
 DROP   @FPOST-72,R13
1GSTINTF  (GSTI00) (09:40) (22MAR04) IHAPSAE  - PSA Extension (ESAME)                                                       Page  180
0Loc    Object Code    Addr1 Addr2  Stmt Lv Lineno    Source Statement           (Hibal 5, Asmedit 3.3)  HLASM R4.0  2004/03/22 09.40
+___    ______ ____    _____ _____  ____ __ ______    ______ _________
0                                  38219    3729.     *******************************************************************
                                   38220    3730.     *                                                                 *
                                   38221    3731.     *    DTMEMSZ - This is a DIAGNOSE service routine.  It returns    *
                                   38222    3732.     *              the count of available pages in r1.                *
                                   38223    3733.     *                                                                 *
                                   38224    3734.     *                                                                 *
                                   38225    3735.     *      Input - INTERP dsect                                       *
                                   38226    3736.     *                                                                 *
                                   38227    3737.     *     Output - none                                               *
                                   38228    3738.     *                                                                 *
                                   38229    3739.     *                                                                 *
                                   38230    3740.     *******************************************************************
-005444                            38232    3742.     DTMEMSZ  PROC  INTERP,SCOPE=LOCAL
 005444 C4E3D4C5D4E2E940           38237             +
 00544C 0008/0000                  38238             +
 005450 900F D004/18AF       00004 38240             +
 USING  DTMEMSZ,R10
 005456 50D0 C000/18CD       00000 38255             +
 00545C 9680 C000      00000       38257             +
 USING  INTERP-72,R12
 005460 41D0 C050            00050 38271             +
 005464 5870 C048            00000 38272    3743.              L     RY,INTCPUB              Get the CPUB address
 USING  CPUB,R7                    38273    3744.              WITH  (CPUB,RY)
                                   38286    3745.     *
                                   38287    3746.     * Get the info
                                   38288    3747.     *
 005468 5830 7014            00014 38289    3748.              L     RB,CPCLEN               Get the length in bytes
 00546C 8830 000C            0000C 38290    3749.              SRL   RB,12                   Turn it into pages
                                   38291    3750.     *
                                   38292    3751.     * Figure out where to put the info
                                   38293    3752.     *
 005470 4810 7156            00156 38294    3753.              LH    RS,SIEINST
 005474 8810 0004            00004 38295    3754.              SRL   RS,4                    Move r1 field to low order
 005478 5410 A67C            05ACC 38296    3755.              N     RS,=X'0000000F'         Isolate the r1 field
 00547C 5910 A680            05AD0 38297    3756.              LREGA RS,(RS)                 Get the Address of the Reg
 005480 4720 A040            05490 38303             +
 005484 4740 A048            05498 38304             +
 005488 4110 7110            00110 38305             +
 00548C 47F0 A050            054A0 38306             +
 005490 4110 7114            00114 38307             +
 005494 47F0 A050            054A0 38308             +
 005498 8910 0002            00002 38309             +
 00549C 4111 70BC            000BC 38310             +
 0054A0 5030 1000            00000 38313    3757.              ST    RB,@RS                  Save the information
 0054A4 981F C008            00008 38314    3758.              PEND  ,
 DROP   CPUB,R7
 DROP   INTERP-72,R12
 DROP   DTMEMSZ,R10
 0054A8 9680 C000/0B0E 00000       38334             +
1GSTINTF  (GSTI00) (09:40) (22MAR04) IHAPSAE  - PSA Extension (ESAME)                                                       Page  181
0Loc    Object Code    Addr1 Addr2  Stmt Lv Lineno    Source Statement           (Hibal 5, Asmedit 3.3)  HLASM R4.0  2004/03/22 09.40
+___    ______ ____    _____ _____  ____ __ ______    ______ _________
0                                  38341    3760.     *******************************************************************
                                   38342    3761.     *                                                                 *
                                   38343    3762.     *    DTLDSTA - This is a DIAGNOSE service routine.  It opens and  *
                                   38344    3763.     *              sets up for reading the kernel load module.  It    *
                                   38345    3764.     *              returns in r1 the size of the program and in r2    *
                                   38346    3765.     *              the entry point address.                           *
                                   38347    3766.     *                                                                 *
                                   38348    3767.     *      Input - INTERP dsect                                       *
                                   38349    3768.     *                                                                 *
                                   38350    3769.     *     Output - none                                               *
                                   38351    3770.     *                                                                 *
                                   38352    3771.     *                                                                 *
                                   38353    3772.     *******************************************************************
-0054AE                            38355    3774.     DTLDSTA  PROC  INTERP,SCOPE=LOCAL
 0054AE C4E3D3C4E2E3C140           38360             +
 0054B6 0008/0000                  38361             +
 0054BA 900F D004/18AF       00004 38363             +
 USING  DTLDSTA,R10
 0054C0 50D0 C000/18CD       00000 38378             +
 0054C6 9680 C000      00000       38380             +
 USING  INTERP-72,R12
 0054CA 41D0 C050            00050 38394             +
 0054CE 5870 C048            00000 38395    3775.              L     RY,INTCPUB              Get the CPUB address
 USING  CPUB,R7                    38396    3776.              WITH  (CPUB,RY)
                                   38409    3777.     *
                                   38410    3778.     * Get memory below the line for the load parms
                                   38411    3779.     *
 USING  @MEMORY-72,R13             38412    3780.              POOLGET L:=A(L'LOADPARM),TYPE=(LOCAL,BELOW16M)
 0054D2 D70B D048 D048 00000 00000 38430             +
 0054D8 5800 A61A            05AD4 38436             +
 0054DC 5000 D04C            00004 38437             +
 0054E0 9200 D04A      00002       38444             +
 0054E4 58F0 A61E/0DEF       05AD8 38447             +
 0054EA 5000 7090            00090 38449    3781.              ST    RVR,CPLOADP             Save the address of it
 0054EE 1860                       38450    3782.              LR    RX,RVR                  Address it
 USING  LOADPARM,R6                38451    3783.              WITH  (LOADPARM,RX)
                                   38464    3784.     *
                                   38465    3785.     * Initialize the data area
                                   38466    3786.     *
 0054F0 5810 A622            05ADC 38467    3787.              L     RS,=A(AM24CAP)          CAP code
 0054F4 D211 6000 1000 00000 00000 38468    3788.              MVC   LAM24,@RS               Move it in
 0054FA D257 60C0 A176 000C0 05630 38469    3789.              MVC   LDCB,MODDCB             Move in the DCB
 005500 D213 60AC A1CE 000AC 05688 38470    3790.              MVC   LDECB,MODDECB           Move in the Model
 005506 4110 60C0            000C0 38471    3791.              LA    RS,LDCB
 00550A 5010 60B4            000B4 38472    3792.              ST    RS,LDECB+8              Save the DCB address
 00550E 4110 6168            00168 38473    3793.              LA    RS,LBUFFER
 005512 5010 60B8            000B8 38474    3794.              ST    RS,LDECB+12             Save the buffer address
 005516 D24F 6118 A124 00118 055DE 38475    3795.              MVC   LBLDL,MODBLDL           And the BLDL list
                                   38476    3796.     *
                                   38477    3797.     * Open the kernel dataset
                                   38478    3798.     *
 00551C 9280 60A8      000A8       38479    3799.              MVI   LOPENP,X'80'            Update the options byte
 005520 4110 60A8            000A8 38480    3800.              OPEN  (LDCB),MF=(E,LOPENP)    Open the dataset up
 005524 43E1 0000            00000 38483             +
1GSTINTF  (GSTI00) (09:40) (22MAR04) IHAPSAE  - PSA Extension (ESAME)                                                       Page  182
0Current Usings:  (LOADPARM,R6) (CPUB,R7) (DTLDSTA,R10) (INTERP-72,R12) (@MEMORY-72,R13)
0Loc    Object Code    Addr1 Addr2  Stmt Lv Lineno    Source Statement           (Hibal 5, Asmedit 3.3)  HLASM R4.0  2004/03/22 09.40
+___    ______ ____    _____ _____  ____ __ ______    ______ _________
0005528 4100 60C0            000C0 38484             +
 00552C 5001 0000            00000 38485             +
 005530 42E1 0000/0A13       00000 38486             +
                                   38488    3801.     *
                                   38489    3802.     * Get the information out of the directory block
                                   38490    3803.     *
 005536 4110 60C0            000C0 38491    3804.              BLDL  LDCB,LBLDL              Get the info
 00553A 4100 6118            00118 38494             +
 00553E 4111 0000/1FFF       00000 38495             +
 005544 0A12                       38497             +
 005546 4110 60C0            000C0 38498    3805.              FIND  LDCB,LKMOD,D            Position us there
 00554A 4100 611C/1211       0011C 38501             +
 005550 4770 A0A6            05560 38503             +
 005554 41F0 0008            00008 38504             +
 005558 4100 0010            00010 38505             +
 00555C 47F0 A0AA/1311       05564 38506             +
 005562 0A12                       38508             +
                                   38509    3806.     *
                                   38510    3807.     * Figure out where to put the info... first the load module length
                                   38511    3808.     *
 005564 4810 7156            00156 38512    3809.              LH    RS,SIEINST
 005568 8810 0004            00004 38513    3810.              SRL   RS,4                    Move r1 field to low order
 00556C 5410 A612            05ACC 38514    3811.              N     RS,=X'0000000F'         Isolate the r1 field
 005570 5910 A616            05AD0 38515    3812.              LREGA RS,(RS)                 Get the Address of the Reg
 005574 4720 A0CA            05584 38521             +
 005578 4740 A0D2            0558C 38522             +
 00557C 4110 7110            00110 38523             +
 005580 47F0 A0DA            05594 38524             +
 005584 4110 7114            00114 38525             +
 005588 47F0 A0DA            05594 38526             +
 00558C 8910 0002            00002 38527             +
 005590 4111 70BC            000BC 38528             +
 005594 1F33/BF37 6134       00134 38531    3813.              L3    RB,LMLEN                Get the load module length
 00559A 5030 1000            00000 38537    3814.              ST    RB,@RS                  Save the information
                                   38538    3815.     *
                                   38539    3816.     * ... then the entry point address
                                   38540    3817.     *
 00559E 4810 7156            00156 38541    3818.              LH    RS,SIEINST
 0055A2 5410 A612            05ACC 38542    3819.              N     RS,=X'0000000F'         Isolate the r2 field
 0055A6 5910 A616            05AD0 38543    3820.              LREGA RS,(RS)                 Get the Address of the Reg
 0055AA 4720 A100            055BA 38549             +
 0055AE 4740 A108            055C2 38550             +
 0055B2 4110 7110            00110 38551             +
 0055B6 47F0 A110            055CA 38552             +
 0055BA 4110 7114            00114 38553             +
 0055BE 47F0 A110            055CA 38554             +
 0055C2 8910 0002            00002 38555             +
 0055C6 4111 70BC            000BC 38556             +
 0055CA 1F33/BF37 6139       00139 38559    3821.              L3    RB,LMEPA                Get the load module length
 0055D0 5030 1000            00000 38565    3822.              ST    RB,@RS                  Save the information
 0055D4 981F C008            00008 38566    3823.              PEND  ,
 DROP   LOADPARM,R6
 DROP   CPUB,R7
 DROP   INTERP-72,R12
1GSTINTF  (GSTI00) (09:40) (22MAR04) IHAPSAE  - PSA Extension (ESAME)                                                       Page  183
0Current Usings:  (@MEMORY-72,R13)
0Loc    Object Code    Addr1 Addr2  Stmt Lv Lineno    Source Statement           (Hibal 5, Asmedit 3.3)  HLASM R4.0  2004/03/22 09.40
+___    ______ ____    _____ _____  ____ __ ______    ______ _________
0DROP   DTLDSTA,R10
 0055D8 9680 C000/0B0E 00000       38591             +
 DROP   @MEMORY-72,R13
1GSTINTF  (GSTI00) (09:40) (22MAR04) IHAPSAE  - PSA Extension (ESAME)                                                       Page  184
0Loc    Object Code    Addr1 Addr2  Stmt Lv Lineno    Source Statement           (Hibal 5, Asmedit 3.3)  HLASM R4.0  2004/03/22 09.40
+___    ______ ____    _____ _____  ____ __ ______    ______ _________
00055DE 0001                       38601    3825.     XBLD     DC    H'1'
 0055E0 003E                       38602    3826.              DC    H'62'
 0055E2 D2C5D9D5C5D34040           38603    3827.              DC    CL8'KERNEL'
 0055EA 000000000000               38604    3828.              DC    XL6'00'
 0055F0 0000000000000000           38605    3829.              DC    XL62'00'
                                   38606    3830.     MODBLDL  EQU   XBLD,*-XBLD,C'X'
                                   38607    3831.
 00562E 0000                       38608    3832.     XDCB     DCB   DSORG=PO,DDNAME=KERNLIB,MACRF=(R),BLKSIZE=8192
 005630 0000000000000000           38615             +
 005640 00000000/00                38616             +
 005645 000001/0000                38619             +
 00564A 0200/00000001              38621             +
 005650 00/000001/00               38624             +
 005655 000000                     38627             +
 005658 D2C5D9D5D3C9C240           38629             +
 005660 02/00/2400/00              38630             +
 005665 000001                     38635             +
 005668 00000001/0000              38636             +
 00566E 2000/00000000              38638             +
 005674 00000001/00                38640             +
 005679 000001                     38643             +
 00567C 00000001/0000              38644             +
 005682 0000/00000001              38646             +
0                                  38649    3833.     MODDCB   EQU   XDCB,*-XDCB,C'X'
 005688 00000000/80/80             38650    3834.              READ  XDECB,SF,0,0,'S',MF=L
 00568E 0000/00000000              38655             +
 005694 00000000                   38657             +
 005698 00000000                   38658             +
                                   38659    3835.     MODDECB  EQU   XDECB,*-XDECB,C'X'
1GSTINTF  (GSTI00) (09:40) (22MAR04) IHAPSAE  - PSA Extension (ESAME)                                                       Page  185
0Loc    Object Code    Addr1 Addr2  Stmt Lv Lineno    Source Statement           (Hibal 5, Asmedit 3.3)  HLASM R4.0  2004/03/22 09.40
+___    ______ ____    _____ _____  ____ __ ______    ______ _________
0                                  38661    3837.     *******************************************************************
                                   38662    3838.     *                                                                 *
                                   38663    3839.     *    DTLDBLK - This is a DIAGNOSE service routine.  It reads one  *
                                   38664    3840.     *              block of the currently open kernel into guest real *
                                   38665    3841.     *              storage.  r1 has the guest real address of an      *
                                   38666    3842.     *              IDAW list describing the storage for the block.    *
                                   38667    3843.     *              The length of the block is returned in r2.         *
                                   38668    3844.     *                                                                 *
                                   38669    3845.     *                                                                 *
                                   38670    3846.     *      Input - INTERP dsect                                       *
                                   38671    3847.     *                                                                 *
                                   38672    3848.     *     Output - none                                               *
                                   38673    3849.     *                                                                 *
                                   38674    3850.     *                                                                 *
                                   38675    3851.     *******************************************************************
-00569C                            38677    3853.     DTLDBLK  PROC  INTERP,SCOPE=LOCAL
 00569C C4E3D3C4C2D3D240           38682             +
 0056A4 0008/0000                  38683             +
 0056A8 900F D004/18AF       00004 38685             +
 USING  DTLDBLK,R10
 0056AE 50D0 C000/18CD       00000 38700             +
 0056B4 9680 C000      00000       38702             +
 USING  INTERP-72,R12
 0056B8 41D0 C050            00050 38716             +
 0056BC 5870 C048            00000 38717    3854.              L     RY,INTCPUB              Get the CPUB address
 USING  CPUB,R7                    38718    3855.              WITH  (CPUB,RY)
 0056C0 5860 7090            00090 38731    3856.              L     RX,CPLOADP              Get the loadparm address
 USING  LOADPARM,R6                38732    3857.              WITH  (LOADPARM,RX)
                                   38745    3858.     *
                                   38746    3859.     * Read in a block from the load module
                                   38747    3860.     *
 0056C4 4110 6014            00014 38748    3861.              LA    RS,LAMPARM              Address of the parm area
 USING  @AM24,R1                   38749    3862.              WITH  (@AM24,RS),BEGIN
 0056C8 4100 60AC            000AC 38763  1 3863.                LA    RVR,LDECB               Get the DECB address
 0056CC 5000 1050            00050 38764  1 3864.                ST    RVR,@AM24R1             This goes in R1
 0056D0 5800 60F0            000F0 38765  1 3865.                L     RVR,LDCB+48             RDWR Routine address
 0056D4 5000 1048            00048 38766  1 3866.                ST    RVR,@AM24R15
 DROP   @AM24,R1                   38767    3867.              END   ,
 0056D8 41F0 6000            00000 38775    3868.              LA    EPAR,LAM24
 0056DC 0CEF                       38776    3869.              BASSM RAR,EPAR                Call the AMODE 24 Routine
                                   38777    3870.     *
                                   38778    3871.     * Do the check
                                   38779    3872.     *
 0056DE 4110 6014            00014 38780    3873.              LA    RS,LAMPARM
 USING  @AM24,R1                   38781    3874.              WITH  (@AM24,RS),BEGIN
 0056E2 4100 60AC            000AC 38795  1 3875.                LA    RVR,LDECB
 0056E6 5000 1050            00050 38796  1 3876.                ST    RVR,@AM24R1
 0056EA 5800 60F4            000F4 38797  1 3877.                L     RVR,LDCB+52             CHECK Routine address
 0056EE 5000 1048            00048 38798  1 3878.                ST    RVR,@AM24R15
 DROP   @AM24,R1                   38799    3879.              END   ,
 0056F2 41F0 6000            00000 38807    3880.              LA    EPAR,LAM24
 0056F6 0CEF                       38808    3881.              BASSM RAR,EPAR                Go for it
                                   38809    3882.     *
                                   38810    3883.     * Find out how long the block was
1GSTINTF  (GSTI00) (09:40) (22MAR04) IHAPSAE  - PSA Extension (ESAME)                                                       Page  186
0Current Usings:  (LOADPARM,R6) (CPUB,R7) (DTLDBLK,R10) (INTERP-72,R12)
0Loc    Object Code    Addr1 Addr2  Stmt Lv Lineno    Source Statement           (Hibal 5, Asmedit 3.3)  HLASM R4.0  2004/03/22 09.40
+___    ______ ____    _____ _____  ____ __ ______    ______ _________
0                                  38811    3884.     *
 0056F8 4120 60C0            000C0 38812    3885.              LA    RA,LDCB                 Get the DCB address
 0056FC 4850 2052            00052 38813    3886.              WITH  (IHADCB,RA),'LH RK,DCBLRECL'
 USING  IHADCB,R2
 DROP   IHADCB,R2
                                   38837    3887.     *
                                   38838    3888.     * Return the length to the user
                                   38839    3889.     *
 005700 4810 7156            00156 38840    3890.              LH    RS,SIEINST
 005704 5410 A424            05ACC 38841    3891.              N     RS,=X'0000000F'         Isolate the r2 field
 005708 5910 A428            05AD0 38842    3892.              LREGA RS,(RS)                 Get the Address of the Reg
 00570C 4720 A074            0571C 38848             +
 005710 4740 A07C            05724 38849             +
 005714 4110 7110            00110 38850             +
 005718 47F0 A084            0572C 38851             +
 00571C 4110 7114            00114 38852             +
 005720 47F0 A084            0572C 38853             +
 005724 8910 0002            00002 38854             +
 005728 4111 70BC            000BC 38855             +
 00572C 5050 1000            00000 38858    3893.              ST    RK,@RS                  Save the information
                                   38859    3894.     *
                                   38860    3895.     * Figure out where to move the data
                                   38861    3896.     *
 005730 4810 7156            00156 38862    3897.              LH    RS,SIEINST
 005734 8810 0004            00004 38863    3898.              SRL   RS,4                    Move r1 field to low order
 005738 5410 A424            05ACC 38864    3899.              N     RS,=X'0000000F'         Isolate the r1 field
 00573C 5910 A428            05AD0 38865    3900.              LREGA RS,(RS)                 Get the Address of the Reg
 005740 4720 A0A8            05750 38871             +
 005744 4740 A0B0            05758 38872             +
 005748 4110 7110            00110 38873             +
 00574C 47F0 A0B8            05760 38874             +
 005750 4110 7114            00114 38875             +
 005754 47F0 A0B8            05760 38876             +
 005758 8910 0002            00002 38877             +
 00575C 4111 70BC            000BC 38878             +
 005760 5810 1000            00000 38881    3901.              L     RS,@RS                  Get the IDAL address (real)
 005764 5800 A438/1401       05AE0 38882    3902.              GRA   RS,(RS)                 Convert to Absolute
 00576A 4770 A0CA            05772 38895             +
 00576E 5610 7104            00104 38901             +
 00576C A0CE           0576E 05772 38910             +
 005772 47F0 A0DA            05782 38912             +
 005776 5900 7104            00104 38926             +
 00577A 4770 A0DA            05782 38927             +
 00577E 5410 A43C            05AE4 38933             +
 005782 5A10 7010            00010 38938             +
                                   38939    3903.     *
                                   38940    3904.     * Now move the data in up to 2K chunks
                                   38941    3905.     *
 005786 4140 6168            00168 38942    3906.              LA    RJ,LBUFFER              Source address
 00578A 1255/4780 A12A       057D2 38943    3907.              WHILE (RK,NZ),BEGIN           While any left to move
 005790 5820 1000            00000 38959  1 3908.                GRA   RA,L:@RS                Get MVS addr of first seg
 005794 5800 A438/1402       05AE0 38965  1          +
 00579A 4770 A0FA            057A2 38973  1          +
 00579E 5620 7104            00104 38979  1          +
1GSTINTF  (GSTI00) (09:40) (22MAR04) IHAPSAE  - PSA Extension (ESAME)                                                       Page  187
0Current Usings:  (LOADPARM,R6) (CPUB,R7) (DTLDBLK,R10) (INTERP-72,R12)
0Loc    Object Code    Addr1 Addr2  Stmt Lv Lineno    Source Statement           (Hibal 5, Asmedit 3.3)  HLASM R4.0  2004/03/22 09.40
+___    ______ ____    _____ _____  ____ __ ______    ______ _________
000579C A0FE           0579E 057A2 38988  1          +
 0057A2 47F0 A10A            057B2 38990  1          +
 0057A6 5900 7104            00104 39004  1          +
 0057AA 4770 A10A            057B2 39005  1          +
 0057AE 5420 A43C            05AE4 39011  1          +
 0057B2 5A20 7010            00010 39016  1          +
 0057B6 4130 2800            00800 39017  1 3909.                LA    RB,@RA+2048
 0057BA 5430 A440            05AE8 39018  1 3910.                N     RB,=X'7FFFF800'         Addr of next 2K bdy
 0057BE 1B32                       39019  1 3911.                SR    RB,RA                   Length to move on this try
 0057C0 1935/47D0 A120       057C8 39020  1 3912.                CEIL  RB,RK                   But no more than we have
 0057C6 1835                       39025  1          +
 0057C8 0E24                       39026  1 3913.                MVCL  RA,RJ                   Move to the user storage
 0057CA 4110 1004            00004 39027  1 3914.                LA    RS,@RS+4                Point at the next IDAW
 0057CE 47F0 A0E2            0578A 39028    3915.              END   ,
 0057D2 981F C008            00008 39033    3916.              PEND  ,
 DROP   LOADPARM,R6
 DROP   CPUB,R7
 DROP   INTERP-72,R12
 DROP   DTLDBLK,R10
 0057D6 9680 C000/0B0E 00000       39058             +
1GSTINTF  (GSTI00) (09:40) (22MAR04) IHAPSAE  - PSA Extension (ESAME)                                                       Page  188
0Loc    Object Code    Addr1 Addr2  Stmt Lv Lineno    Source Statement           (Hibal 5, Asmedit 3.3)  HLASM R4.0  2004/03/22 09.40
+___    ______ ____    _____ _____  ____ __ ______    ______ _________
0                                  39065    3918.     *******************************************************************
                                   39066    3919.     *                                                                 *
                                   39067    3920.     *    DTLDEND - This is a DIAGNOSE service routine.  It terminates *
                                   39068    3921.     *              the reading of the kernel.                         *
                                   39069    3922.     *                                                                 *
                                   39070    3923.     *                                                                 *
                                   39071    3924.     *      Input - INTERP dsect                                       *
                                   39072    3925.     *                                                                 *
                                   39073    3926.     *     Output - none                                               *
                                   39074    3927.     *                                                                 *
                                   39075    3928.     *                                                                 *
                                   39076    3929.     *******************************************************************
-0057DC                            39078    3931.     DTLDEND  PROC  INTERP,SCOPE=LOCAL
 0057DC C4E3D3C4C5D5C440           39083             +
 0057E4 0008/0000                  39084             +
 0057E8 900F D004/18AF       00004 39086             +
 USING  DTLDEND,R10
 0057EE 50D0 C000/18CD       00000 39101             +
 0057F4 9680 C000      00000       39103             +
 USING  INTERP-72,R12
 0057F8 41D0 C050            00050 39117             +
 0057FC 5870 C048            00000 39118    3932.              L     RY,INTCPUB              Get the CPUB address
 USING  CPUB,R7                    39119    3933.              WITH  (CPUB,RY)
 005800 5860 7090            00090 39132    3934.              L     RX,CPLOADP              Get the loadparm address
 USING  LOADPARM,R6                39133    3935.              WITH  (LOADPARM,RX)
                                   39146    3936.     *
                                   39147    3937.     * Close the dataset
                                   39148    3938.     *
 005804 9280 60A8      000A8       39149    3939.              MVI   LOPENP,X'80'            Mark the end of the list
 005808 4110 60A8            000A8 39150    3940.              CLOSE (LDCB),MF=(E,LOPENP)    Close that baby
 00580C 43E1 0000            00000 39153             +
 005810 4100 60C0            000C0 39154             +
 005814 5001 0000            00000 39155             +
 005818 42E1 0000/0A14       00000 39156             +
                                   39158    3941.     *
                                   39159    3942.     * Free the LOADPARM area
                                   39160    3943.     *
 USING  @MEMORY-72,R13             39161    3944.              POOLFREE L:=A(L'LOADPARM),A=(RX),TYPE=(LOCAL,BELOW16M)
 00581E D70B D048 D048 00000 00000 39179             +
 005824 5800 A2EC            05AD4 39185             +
 005828 5000 D04C            00004 39186             +
 00582C 5060 D050            00008 39187             +
 005830 9200 D04A      00002       39194             +
 005834 58F0 A304/0DEF       05AEC 39197             +
 00583A                            39199    3945.              CLEAR CPLOADP                 Clear the pointer to it
 00583A D703 7090 7090 00090 00090 39205             +
 005840 981F C008            00008 39206    3946.              PEND  ,                       Back to the guest
 DROP   LOADPARM,R6
 DROP   CPUB,R7
 DROP   INTERP-72,R12
 DROP   DTLDEND,R10
 005844 9680 C000/0B0E 00000       39231             +
 DROP   @MEMORY-72,R13
1GSTINTF  (GSTI00) (09:40) (22MAR04) IHAPSAE  - PSA Extension (ESAME)                                                       Page  189
0Loc    Object Code    Addr1 Addr2  Stmt Lv Lineno    Source Statement           (Hibal 5, Asmedit 3.3)  HLASM R4.0  2004/03/22 09.40
+___    ______ ____    _____ _____  ____ __ ______    ______ _________
0                                  39241    3948.     *******************************************************************
                                   39242    3949.     *                                                                 *
                                   39243    3950.     *     DTPAGE - This is a DIAGNOSE service routine.  It notifies   *
                                   39244    3951.     *              the "machine" that the guest will be using a page  *
                                   39245    3952.     *              frame for paging purposes and that it should be    *
                                   39246    3953.     *              fixed to MVS.  This prevents both MVS and the      *
                                   39247    3954.     *              guest from playing with the storage keys at the    *
                                   39248    3955.     *              same time.  The real address of the frame is       *
                                   39249    3956.     *              passed in r1.                                      *
                                   39250    3957.     *                                                                 *
                                   39251    3958.     *                                                                 *
                                   39252    3959.     *      Input - INTERP dsect                                       *
                                   39253    3960.     *                                                                 *
                                   39254    3961.     *     Output - none                                               *
                                   39255    3962.     *                                                                 *
                                   39256    3963.     *                                                                 *
                                   39257    3964.     *******************************************************************
-00584A                            39259    3966.     DTPAGE   PROC  INTERP,SCOPE=LOCAL
 00584A C4E3D7C1C7C54040           39264             +
 005852 0008/0000                  39265             +
 005856 900F D004/18AF       00004 39267             +
 USING  DTPAGE,R10
 00585C 50D0 C000/18CD       00000 39282             +
 005862 9680 C000      00000       39284             +
 USING  INTERP-72,R12
 005866 41D0 C050            00050 39298             +
 00586A 5870 C048            00000 39299    3967.              L     RY,INTCPUB              Get the CPUB address
 USING  CPUB,R7                    39300    3968.              WITH  (CPUB,RY)
                                   39313    3969.     *
                                   39314    3970.     * Find the address of the page
                                   39315    3971.     *
 00586E 4810 7156            00156 39316    3972.              LH    RS,SIEINST
 005872 8810 0004            00004 39317    3973.              SRL   RS,4                    Move r1 field to low bits
 005876 5410 A276            05ACC 39318    3974.              N     RS,=X'0000000F'         Mask it out
 00587A 5910 A27A            05AD0 39319    3975.              LREGA RS,(RS)                 Get the address of the reg
 00587E 4720 A038            0588E 39325             +
 005882 4740 A040            05896 39326             +
 005886 4110 7110            00110 39327             +
 00588A 47F0 A048            0589E 39328             +
 00588E 4110 7114            00114 39329             +
 005892 47F0 A048            0589E 39330             +
 005896 8910 0002            00002 39331             +
 00589A 4111 70BC            000BC 39332             +
 00589E 5810 1000            00000 39335    3976.              L     RS,@RS                  Get the contents of the reg
 0058A2 5800 A28A/1401       05AE0 39336    3977.              GRA   RS,(RS)                 Get the Absolute address
 0058A8 4770 A05A            058B0 39349             +
 0058AC 5610 7104            00104 39355             +
 0058AA A05E           058AC 058B0 39364             +
 0058B0 47F0 A06A            058C0 39366             +
 0058B4 5900 7104            00104 39380             +
 0058B8 4770 A06A            058C0 39381             +
 0058BC 5410 A28E            05AE4 39387             +
 0058C0 5A10 7010            00010 39392             +
                                   39393    3978.     *
1GSTINTF  (GSTI00) (09:40) (22MAR04) IHAPSAE  - PSA Extension (ESAME)                                                       Page  190
0Current Usings:  (CPUB,R7) (DTPAGE,R10) (INTERP-72,R12)
0Loc    Object Code    Addr1 Addr2  Stmt Lv Lineno    Source Statement           (Hibal 5, Asmedit 3.3)  HLASM R4.0  2004/03/22 09.40
+___    ______ ____    _____ _____  ____ __ ______    ______ _________
0                                  39394    3979.     * Fix the memory
                                   39395    3980.     *
 USING  @FIXPARM-72,R13            39396    3981.              PSET  @FIXPARM
 0058C4 D708 D048 D048 00000 00000 39413             +
 0058CA 5010 D048            00000 39414    3982.              ST    RS,@FIXLOC              Save the page address
 0058CE D203 D04C A26E 00004 05AC4 39415    3983.              MVC   @FIXLEN,=A(4096)        one page
 0058D4 58F0 A29A/0DEF       05AF0 39416    3984.              VCALL PAGEFIX                 Do the fix
 0058DA 981F C008            00008 39420    3985.              PEND  ,                       All done...return to guest
 DROP   CPUB,R7
 DROP   INTERP-72,R12
 DROP   DTPAGE,R10
 0058DE 9680 C000/0B0E 00000       39440             +
 DROP   @FIXPARM-72,R13
1GSTINTF  (GSTI00) (09:40) (22MAR04) IHAPSAE  - PSA Extension (ESAME)                                                       Page  191
0Loc    Object Code    Addr1 Addr2  Stmt Lv Lineno    Source Statement           (Hibal 5, Asmedit 3.3)  HLASM R4.0  2004/03/22 09.40
+___    ______ ____    _____ _____  ____ __ ______    ______ _________
0                                  39450    3987.     *******************************************************************
                                   39451    3988.     *                                                                 *
                                   39452    3989.     *   DTNOPAGE - This is a DIAGNOSE service routine.  It notifies   *
                                   39453    3990.     *              the "machine" that the page frame whose real       *
                                   39454    3991.     *              address is passed in r1 will not be use by the     *
                                   39455    3992.     *              guest for paging I/O.  This means that it may be   *
                                   39456    3993.     *              unfixed to MVS.  A previous diagnose PAGE should   *
                                   39457    3994.     *              have been done.                                    *
                                   39458    3995.     *                                                                 *
                                   39459    3996.     *                                                                 *
                                   39460    3997.     *      Input - INTERP dsect                                       *
                                   39461    3998.     *                                                                 *
                                   39462    3999.     *     Output - none                                               *
                                   39463    4000.     *                                                                 *
                                   39464    4001.     *                                                                 *
                                   39465    4002.     *******************************************************************
-0058E4                            39467    4004.     DTNOPAGE PROC  INTERP,SCOPE=LOCAL
 0058E4 C4E3D5D6D7C1C7C5           39472             +
 0058EC 0008/0000                  39473             +
 0058F0 900F D004/18AF       00004 39475             +
 USING  DTNOPAGE,R10
 0058F6 50D0 C000/18CD       00000 39490             +
 0058FC 9680 C000      00000       39492             +
 USING  INTERP-72,R12
 005900 41D0 C050            00050 39506             +
 005904 5870 C048            00000 39507    4005.              L     RY,INTCPUB              Get the CPUB address
 USING  CPUB,R7                    39508    4006.              WITH  (CPUB,RY)
                                   39521    4007.     *
                                   39522    4008.     * Find the address of the page
                                   39523    4009.     *
 005908 4810 7156            00156 39524    4010.              LH    RS,SIEINST
 00590C 8810 0004            00004 39525    4011.              SRL   RS,4                    Move r1 field to low bits
 005910 5410 A1DC            05ACC 39526    4012.              N     RS,=X'0000000F'         Mask it out
 005914 5910 A1E0            05AD0 39527    4013.              LREGA RS,(RS)                 Get the address of the reg
 005918 4720 A038            05928 39533             +
 00591C 4740 A040            05930 39534             +
 005920 4110 7110            00110 39535             +
 005924 47F0 A048            05938 39536             +
 005928 4110 7114            00114 39537             +
 00592C 47F0 A048            05938 39538             +
 005930 8910 0002            00002 39539             +
 005934 4111 70BC            000BC 39540             +
 005938 5810 1000            00000 39543    4014.              L     RS,@RS                  Get the contents of the reg
 00593C 5800 A1F0/1401       05AE0 39544    4015.              GRA   RS,(RS)                 Get the Absolute address
 005942 4770 A05A            0594A 39557             +
 005946 5610 7104            00104 39563             +
 005944 A05E           05946 0594A 39572             +
 00594A 47F0 A06A            0595A 39574             +
 00594E 5900 7104            00104 39588             +
 005952 4770 A06A            0595A 39589             +
 005956 5410 A1F4            05AE4 39595             +
 00595A 5A10 7010            00010 39600             +
                                   39601    4016.     *
                                   39602    4017.     * Un-fix the memory
1GSTINTF  (GSTI00) (09:40) (22MAR04) IHAPSAE  - PSA Extension (ESAME)                                                       Page  192
0Current Usings:  (CPUB,R7) (DTNOPAGE,R10) (INTERP-72,R12)
0Loc    Object Code    Addr1 Addr2  Stmt Lv Lineno    Source Statement           (Hibal 5, Asmedit 3.3)  HLASM R4.0  2004/03/22 09.40
+___    ______ ____    _____ _____  ____ __ ______    ______ _________
0                                  39603    4018.     *
 USING  @FIXPARM-72,R13            39604    4019.              PSET  @FIXPARM
 00595E D708 D048 D048 00000 00000 39621             +
 005964 5010 D048            00000 39622    4020.              ST    RS,@FIXLOC              Save the page address
 005968 D203 D04C A1D4 00004 05AC4 39623    4021.              MVC   @FIXLEN,=A(4096)        one page
 00596E 9680 D050      00008       39624    4022.              SET   @FIXFREL                release the contents
 005972 58F0 A204/0DEF       05AF4 39630    4023.              VCALL PAGEFREE                Do the free
 005978 981F C008            00008 39634    4024.              PEND  ,                       All done...return to guest
 DROP   CPUB,R7
 DROP   INTERP-72,R12
 DROP   DTNOPAGE,R10
 00597C 9680 C000/0B0E 00000       39654             +
 DROP   @FIXPARM-72,R13
1GSTINTF  (GSTI00) (09:40) (22MAR04) IHAPSAE  - PSA Extension (ESAME)                                                       Page  193
0Loc    Object Code    Addr1 Addr2  Stmt Lv Lineno    Source Statement           (Hibal 5, Asmedit 3.3)  HLASM R4.0  2004/03/22 09.40
+___    ______ ____    _____ _____  ____ __ ______    ______ _________
0                                  39664    4026.     *******************************************************************
                                   39665    4027.     *                                                                 *
                                   39666    4028.     *    DTALLOC - This is a DIAGNOSE service routine.  It calls the  *
                                   39667    4029.     *              I/O service routine to allocated a device.  It is  *
                                   39668    4030.     *              called with a code passed in r1 and returns to the *
                                   39669    4031.     *              guest with r1 containting the 32 bit identifier    *
                                   39670    4032.     *              returned from the I/O service routine.             *
                                   39671    4033.     *                                                                 *
                                   39672    4034.     *                                                                 *
                                   39673    4035.     *      Input - INTERP dsect                                       *
                                   39674    4036.     *                                                                 *
                                   39675    4037.     *     Output - none                                               *
                                   39676    4038.     *                                                                 *
                                   39677    4039.     *                                                                 *
                                   39678    4040.     *******************************************************************
-005982                            39680    4042.     DTALLOC  PROC  INTERP,SCOPE=LOCAL
 005982 C4E3C1D3D3D6C340           39685             +
 00598A 0008/0000                  39686             +
 00598E 900F D004/18AF       00004 39688             +
 USING  DTALLOC,R10
 005994 50D0 C000/18CD       00000 39703             +
 00599A 9680 C000      00000       39705             +
 USING  INTERP-72,R12
 00599E 41D0 C050            00050 39719             +
 0059A2 5870 C048            00000 39720    4043.              L     RY,INTCPUB              Get the CPUB address
 USING  CPUB,R7                    39721    4044.              WITH  (CPUB,RY)
                                   39734    4045.     *
                                   39735    4046.     * Get the code register
                                   39736    4047.     *
 0059A6 4810 7156            00156 39737    4048.              LH    RS,SIEINST
 0059AA 8810 0004            00004 39738    4049.              SRL   RS,4                    Move r1 field to low bits
 0059AE 5410 A13E            05ACC 39739    4050.              N     RS,=X'0000000F'         Mask it out
 0059B2 5910 A142            05AD0 39740    4051.              LREGA RS,(RS)                 Get the address of the reg
 0059B6 4720 A038            059C6 39746             +
 0059BA 4740 A040            059CE 39747             +
 0059BE 4110 7110            00110 39748             +
 0059C2 47F0 A048            059D6 39749             +
 0059C6 4110 7114            00114 39750             +
 0059CA 47F0 A048            059D6 39751             +
 0059CE 8910 0002            00002 39752             +
 0059D2 4111 70BC            000BC 39753             +
                                   39756    4052.     *
                                   39757    4053.     * Call the I/O service routine
                                   39758    4054.     *
 USING  @IOUPARM-72,R13            39759    4055.              PSET  @IOUPARM                Setup for the call
 0059D6 D703 D048 D048 00000 00000 39776             +
 0059DC D203 D048 1000 00000 00000 39777    4056.              MVC   @IOUDEVT,@RS            Move in the code
 0059E2 58F0 A16A/0DEF       05AF8 39778    4057.              VCALL INITDEV                 Do the allocate
 0059E8 5000 1000            00000 39782    4058.              ST    RVR,@RS                 Put the ID in the Register
 0059EC 981F C008            00008 39783    4059.              PEND  ,
 DROP   CPUB,R7
 DROP   INTERP-72,R12
 DROP   DTALLOC,R10
 0059F0 9680 C000/0B0E 00000       39803             +
1GSTINTF  (GSTI00) (09:40) (22MAR04) IHAPSAE  - PSA Extension (ESAME)                                                       Page  194
0Loc    Object Code    Addr1 Addr2  Stmt Lv Lineno    Source Statement           (Hibal 5, Asmedit 3.3)  HLASM R4.0  2004/03/22 09.40
+___    ______ ____    _____ _____  ____ __ ______    ______ _________
0DROP   @IOUPARM-72,R13
1GSTINTF  (GSTI00) (09:40) (22MAR04) IHAPSAE  - PSA Extension (ESAME)                                                       Page  195
0Loc    Object Code    Addr1 Addr2  Stmt Lv Lineno    Source Statement           (Hibal 5, Asmedit 3.3)  HLASM R4.0  2004/03/22 09.40
+___    ______ ____    _____ _____  ____ __ ______    ______ _________
0                                  39813    4061.     *******************************************************************
                                   39814    4062.     *                                                                 *
                                   39815    4063.     *    DTSPIN  - This is a DIAGNOSE service routine.                *
                                   39816    4064.     *              This puts the CPU subtask in wait for spin locks   *
                                   39817    4065.     *                                                                 *
                                   39818    4066.     *                                                                 *
                                   39819    4067.     *      Input - INTERP dsect                                       *
                                   39820    4068.     *                                                                 *
                                   39821    4069.     *     Output - none                                               *
                                   39822    4070.     *                                                                 *
                                   39823    4071.     *                                                                 *
                                   39824    4072.     *******************************************************************
-0059F6                            39826    4074.     DTSPIN   PROC  INTERP,SCOPE=LOCAL
 0059F6 C4E3E2D7C9D54040           39831             +
 0059FE 0008/0000                  39832             +
 005A02 900F D004/18AF       00004 39834             +
 USING  DTSPIN,R10
 005A08 50D0 C000/18CD       00000 39849             +
 005A0E 9680 C000      00000       39851             +
 USING  INTERP-72,R12
 005A12 41D0 C050            00050 39865             +
 005A16 5870 C048            00000 39866    4075.              L     RY,INTCPUB              Get the CPUB address
 USING  CPUB,R7                    39867    4076.              WITH  (CPUB,RY)
                                   39880    4077.     *
                                   39881    4078.     *  Put this CPU in wait
                                   39882    4079.     *
 USING  @FWAIT-72,R13              39883    4080.              FWAIT LA:CPECB
 005A1A D703 D048 D048 00000 00000 39901             +
 005A20 41E0 705C            0005C 39905             +
 005A24 50E0 D048            00000 39906             +
 005A28 58F0 A0FA/0DEF       05AFC 39909             +
 005A2E 981F C008            00008 39911    4081.              PEND  ,
 DROP   CPUB,R7
 DROP   INTERP-72,R12
 DROP   DTSPIN,R10
 005A32 9680 C000/0B0E 00000       39931             +
 DROP   @FWAIT-72,R13
1GSTINTF  (GSTI00) (09:40) (22MAR04) IHAPSAE  - PSA Extension (ESAME)                                                       Page  196
0Loc    Object Code    Addr1 Addr2  Stmt Lv Lineno    Source Statement           (Hibal 5, Asmedit 3.3)  HLASM R4.0  2004/03/22 09.40
+___    ______ ____    _____ _____  ____ __ ______    ______ _________
0                                  39941    4083.     *******************************************************************
                                   39942    4084.     *                                                                 *
                                   39943    4085.     *    DTNOSPIN - This is a DIAGNOSE service routine.               *
                                   39944    4086.     *               This wakes up a CPU task from 'spinning' for a    *
                                   39945    4087.     *               lock.                                             *
                                   39946    4088.     *                                                                 *
                                   39947    4089.     *                                                                 *
                                   39948    4090.     *      Input - INTERP dsect                                       *
                                   39949    4091.     *                                                                 *
                                   39950    4092.     *     Output - none                                               *
                                   39951    4093.     *                                                                 *
                                   39952    4094.     *                                                                 *
                                   39953    4095.     *******************************************************************
-005A38                            39955    4097.     DTNOSPIN PROC  INTERP,SCOPE=LOCAL
 005A38 C4E3D5D6E2D7C9D5           39960             +
 005A40 0008/0000                  39961             +
 005A44 900F D004/18AF       00004 39963             +
 USING  DTNOSPIN,R10
 005A4A 50D0 C000/18CD       00000 39978             +
 005A50 9680 C000      00000       39980             +
 USING  INTERP-72,R12
 005A54 41D0 C050            00050 39994             +
 005A58 5870 C048            00000 39995    4098.              L     RY,INTCPUB              Get the CPUB address
 USING  CPUB,R7                    39996    4099.              WITH  (CPUB,RY)
                                   40009    4100.     *
                                   40010    4101.     * Get the code register
                                   40011    4102.     *
 005A5C 4810 7156            00156 40012    4103.              LH    RS,SIEINST
 005A60 8810 0004            00004 40013    4104.              SRL   RS,4                    Move r1 field to low bits
 005A64 5410 A088            05ACC 40014    4105.              N     RS,=X'0000000F'         Mask it out
 005A68 5910 A08C            05AD0 40015    4106.              LREGA RS,(RS)                 Get the address of the reg
 005A6C 4720 A038            05A7C 40021             +
 005A70 4740 A040            05A84 40022             +
 005A74 4110 7110            00110 40023             +
 005A78 47F0 A048            05A8C 40024             +
 005A7C 4110 7114            00114 40025             +
 005A80 47F0 A048            05A8C 40026             +
 005A84 8910 0002            00002 40027             +
 005A88 4111 70BC            000BC 40028             +
 005A8C 4810 1002            00002 40031    4107.              LH    RS,@RS+2                Get the CPU address to post
                                   40032    4108.     *
                                   40033    4109.     *  Post specified CPU
                                   40034    4110.     *
 005A90 5860 7004            00004 40035    4111.              L     RX,CPGSTCT              Addr to table of CPUs
 USING  GSTCT,R6                   40036    4112.              WITH  (GSTCT,RX)              |
 005A94 8910 0002            00002 40049    4113.              SLL   RS,2                    Get CPUB addr for CPU
 005A98 5821 6038            00038 40050    4114.              L     RA,GSTCCPUS(RS)         |
 USING  OTHER.CPUB,R2              40051    4115.              WITH  (CPUB,RA),LABEL=OTHER,BEGIN
 USING  @FPOST-72,R13              40060  1 4116.                FPOST OTHER.CPECB
 005A9C D703 D048 D048 00000 00000 40078  1          +
 005AA2 41E0 205C            0005C 40085  1          +
 005AA6 50E0 D048            00000 40086  1          +
 005AAA 58F0 A084/0DEF       05AC8 40089  1          +
 DROP   OTHER.CPUB,R2              40091    4117.              END   ,
1GSTINTF  (GSTI00) (09:40) (22MAR04) IHAPSAE  - PSA Extension (ESAME)                                                       Page  197
0Current Usings:  (@FPOST-72,R13)
0Loc    Object Code    Addr1 Addr2  Stmt Lv Lineno    Source Statement           (Hibal 5, Asmedit 3.3)  HLASM R4.0  2004/03/22 09.40
+___    ______ ____    _____ _____  ____ __ ______    ______ _________
0005AB0 981F C008            00008 40102    4118.              PEND  ,
 DROP   GSTCT,R6
 DROP   CPUB,R7
 DROP   INTERP-72,R12
 DROP   DTNOSPIN,R10
 005AB4 9680 C000/0B0E 00000       40127             +
 DROP   @FPOST-72,R13
1GSTINTF  (GSTI00) (09:40) (22MAR04) IHAPSAE  - PSA Extension (ESAME)                                                       Page  198
0Loc    Object Code    Addr1 Addr2  Stmt Lv Lineno    Source Statement           (Hibal 5, Asmedit 3.3)  HLASM R4.0  2004/03/22 09.40
+___    ______ ____    _____ _____  ____ __ ______    ______ _________
0005AC0                            40137    4120.              LTORG
 005AC0 00000000                   40139                             =V(IPLTEXT)
 005AC4 00001000                   40140                             =A(4096)
 005AC8 00000000                   40141                             =V(FPOST)
 005ACC 0000000F                   40142                             =X'0000000F'
 005AD0 0000000E                   40143                             =F'14'
 005AD4 00002168                   40144                             =A(L'LOADPARM)
 005AD8 00000000                   40145                             =V(POOLGET)
 005ADC 000083C8                   40146                             =A(AM24CAP)
 005AE0 7FFFF000                   40147                             =X'7FFFF000'
 005AE4 00000FFF                   40148                             =A(4095)
 005AE8 7FFFF800                   40149                             =X'7FFFF800'
 005AEC 00000000                   40150                             =V(POOLFREE)
 005AF0 00000000                   40151                             =V(PAGEFIX)
 005AF4 00000000                   40152                             =V(PAGEFREE)
 005AF8 00000000                   40153                             =V(INITDEV)
 005AFC 00000000       05B06 08402 40154                             =V(FWAIT)
1GSTINTF  (GSTI00) (09:40) (22MAR04) IHAPSAE  - PSA Extension (ESAME)                                                       Page  199
0Loc    Object Code    Addr1 Addr2  Stmt Lv Lineno    Source Statement           (Hibal 5, Asmedit 3.3)  HLASM R4.0  2004/03/22 09.40
+___    ______ ____    _____ _____  ____ __ ______    ______ _________
0                                  40159    4122.     *******************************************************************
                                   40160    4123.     *                                                                 *
                                   40161    4124.     *       MVRWORK -- MVS memory read work area                      *
                                   40162    4125.     *                                                                 *
                                   40163    4126.     *******************************************************************
0000000                00000 00014 40165    4128.     MVRWORK  RECORD BEGIN
 000000                            40173  1 4129.     MVRADDR    DS    A                       MVS ADDRESS
 000004                            40174  1 4130.     MVRKEY     DS    A
 000008                            40175  1 4131.     MVRUADR    DS    A                       CALLER ADDRESS
 00000C                            40176  1 4132.     MVRLEN     DS    A                       TOTAL LENGTH
 000010                            40177  1 4133.     MVRPLEN    DS    A                       PARTIAL LENGTH
 000014                00014 00014 40178    4134.              END   ,
1GSTINTF  (GSTI00) (09:40) (22MAR04) IHAPSAE  - PSA Extension (ESAME)                                                       Page  200
0Loc    Object Code    Addr1 Addr2  Stmt Lv Lineno    Source Statement           (Hibal 5, Asmedit 3.3)  HLASM R4.0  2004/03/22 09.40
+___    ______ ____    _____ _____  ____ __ ______    ______ _________
0                                  40188    4136.     *******************************************************************
                                   40189    4137.     *                                                                 *
                                   40190    4138.     *   DTMVSRD  - This is a DIAGNOSE service routine.  It moves      *
                                   40191    4139.     *              data from MVS memory to the ORVYL guest.  On       *
                                   40192    4140.     *              entry r1 and r2 are each an even-odd register      *
                                   40193    4141.     *              pair which contain:                                *
                                   40194    4142.     *                 r1    Orvyl guest virtual address               *
                                   40195    4143.     *                 r1+1  Length of the area                        *
                                   40196    4144.     *                 r2    MVS virtual address                       *
                                   40197    4145.     *                 r2+1  Protect Key                               *
                                   40198    4146.     *                                                                 *
                                   40199    4147.     *                                                                 *
                                   40200    4148.     *      Input - INTERP dsect                                       *
                                   40201    4149.     *                                                                 *
                                   40202    4150.     *     Output - none                                               *
                                   40203    4151.     *                                                                 *
                                   40204    4152.     *                                                                 *
                                   40205    4153.     *******************************************************************
-005B06                            40207    4155.     DTMVSRD  PROC  INTERP,MVRWORK,SCOPE=LOCAL
 005B06 C4E3D4E5E2D9C440           40212             +
 005B0E 0008/0018                  40213             +
 005B12 900F D004/18AF       00004 40215             +
 USING  DTMVSRD,R10
 005B18 50D0 C000/18CD       00000 40230             +
 005B1E 9680 C000      00000       40232             +
 USING  INTERP-72,R12
 AUSING (MVRWORK,INTERP+8)
 005B22 41D0 C068            00068 40251             +
 005B26 5870 C048            00000 40252    4156.              L     RY,INTCPUB              Get the cpub address
 USING  CPUB,R7                    40253    4157.              WITH  (CPUB,RY)
                                   40266    4158.     *
                                   40267    4159.     *  Get parameter registers r1 and r1+1
                                   40268    4160.     *
 005B2A 4810 7156            00156 40269    4161.              LH    RS,SIEINST
 005B2E 8810 0004            00004 40270    4162.              SRL   RS,4                    Move r1 field to low order
 005B32 5410 AD56            06868 40271    4163.              N     RS,=X'0000000F'         Isolate the r1 field
 005B36 4410 AD90            068A2 40272    4164.              IF    ('EX RS,"TM  =X'01',0"',NZ),BEGIN
 0068A2 9100 AD8E      068A0       40287             +
 005B3A 4780 A05E            05B70 40295             +
 005B3E 5810 7070/18E2       00070 40300  1 4165.                PIINT CODE=6,ILEN=4           Register not even
 USING  PZERO,R1
 005B44 B20B 0000                  40320  2          +
 005B48 B20A 0000/18F2 00000       40321  2          +
 005B4E 182E                       40323  2          +
 005B50 D207 1028 7118 00028 00118 40324  2          +
 005B56 D207 7118 1068 00118 00068 40325  2          +
 005B5C D201 108E AD8A 0008E 0689C 40326  2          +
 005B62 D201 108C AD8C 0008C 0689E 40327  2          +
 005B68 B20A F000      00000       40330  1          +
 DROP   PZERO,R1
 005B6C 47F0 A2EA            05DFC 40339  1 4166.                EXIT  DTMVSRD
 005B70                            40342    4167.              END
 005B70 5910 AD5A            0686C 40346    4168.              LREGA RS,(RS)                 Get the address of the reg
 005B74 4720 A072            05B84 40352             +
1GSTINTF  (GSTI00) (09:40) (22MAR04) IHAPSAE  - PSA Extension (ESAME)                                                       Page  201
0Current Usings:  (CPUB,R7) (DTMVSRD,R10) (INTERP-72,R12)
0Loc    Object Code    Addr1 Addr2  Stmt Lv Lineno    Source Statement           (Hibal 5, Asmedit 3.3)  HLASM R4.0  2004/03/22 09.40
+___    ______ ____    _____ _____  ____ __ ______    ______ _________
0005B78 4740 A07A            05B8C 40353             +
 005B7C 4110 7110            00110 40354             +
 005B80 47F0 A082            05B94 40355             +
 005B84 4110 7114            00114 40356             +
 005B88 47F0 A082            05B94 40357             +
 005B8C 8910 0002            00002 40358             +
 005B90 4111 70BC            000BC 40359             +
 005B94 98EF 1000            00000 40362    4169.              LM    R14,R15,@RS             r1 and r1+1
 005B98 90EF C058            00008 40363    4170.              STM   R14,R15,MVRUADR         Caller's address and length
                                   40364    4171.     *
                                   40365    4172.     *  Get parameter registers r2 and r2+1
                                   40366    4173.     *
 005B9C 4810 7156            00156 40367    4174.              LH    RS,SIEINST
 005BA0 5410 AD56            06868 40368    4175.              N     RS,=X'0000000F'         Isolate the r2 field
 005BA4 4410 AD94            068A6 40369    4176.              IF    ('EX RS,"TM  =X'01',0"',NZ),BEGIN
 0068A6 9100 AD8E      068A0       40384             +
 005BA8 4780 A0CC            05BDE 40392             +
 005BAC 5810 7070/18E2       00070 40397  1 4177.                PIINT CODE=6,ILEN=4           Register not even
 USING  PZERO,R1
 005BB2 B20B 0000                  40417  2          +
 005BB6 B20A 0000/18F2 00000       40418  2          +
 005BBC 182E                       40420  2          +
 005BBE D207 1028 7118 00028 00118 40421  2          +
 005BC4 D207 7118 1068 00118 00068 40422  2          +
 005BCA D201 108E AD8A 0008E 0689C 40423  2          +
 005BD0 D201 108C AD8C 0008C 0689E 40424  2          +
 005BD6 B20A F000      00000       40427  1          +
 DROP   PZERO,R1
 005BDA 47F0 A2EA            05DFC 40436  1 4178.                EXIT  DTMVSRD
 005BDE                            40439    4179.              END
 005BDE 5910 AD5A            0686C 40443    4180.              LREGA RS,(RS)                 Get the address of the reg
 005BE2 4720 A0E0            05BF2 40449             +
 005BE6 4740 A0E8            05BFA 40450             +
 005BEA 4110 7110            00110 40451             +
 005BEE 47F0 A0F0            05C02 40452             +
 005BF2 4110 7114            00114 40453             +
 005BF6 47F0 A0F0            05C02 40454             +
 005BFA 8910 0002            00002 40455             +
 005BFE 4111 70BC            000BC 40456             +
 005C02 98EF 1000            00000 40459    4181.              LM    R14,R15,@RS             r2 and r2+1
 005C06 90EF C050            00000 40460    4182.              STM   R14,R15,MVRADDR         MVS address and key
                                   40461    4183.     *
                                   40462    4184.     *  Validate the MVS address
                                   40463    4185.     *
 005C0A 184E                       40464    4186.              LR    RJ,R14                  GET MVS ADDRESS
 005C0C 5850 C05C            0000C 40465    4187.              L     RK,MVRLEN                AND LENGTH
 005C10 1A54                       40466    4188.              AR    RK,RJ                   END ADDRESS + 1
 005C12 5830 C054            00004 40467    4189.              L     RB,MVRKEY               KEY TO BE USED
 005C16 1945/47B0 A176       05C88 40468    4190.     MVRCHK   WHILE (RJ,LT,RK),BEGIN
 005C1C E501 4000 3000 00000 00000 40486  1 4191.                TPROT @RJ,@RB                 Test protection
                                   40487  1 4192.     *
                                   40488  1 4193.     *  NOT ALLOWED TO FETCH OR STORE (CC = 2)
                                   40489  1 4194.     *
 005C22 47D0 A120            05C32 40490  1 4195.                IF    NOACC,BEGIN
1GSTINTF  (GSTI00) (09:40) (22MAR04) IHAPSAE  - PSA Extension (ESAME)                                                       Page  202
0Current Usings:  (CPUB,R7) (DTMVSRD,R10) (INTERP-72,R12)
0Loc    Object Code    Addr1 Addr2  Stmt Lv Lineno    Source Statement           (Hibal 5, Asmedit 3.3)  HLASM R4.0  2004/03/22 09.40
+___    ______ ____    _____ _____  ____ __ ______    ______ _________
0005C26 94CF 711A      0011A       40501  2 4196.                  NI    SIEPSW+2,X'CF'          Clear the CC
 005C2A 9620 711A      0011A       40502  2 4197.                  OI    SIEPSW+2,X'20'          Set CC 2
 005C2E 47F0 A2EA            05DFC 40503  2 4198.                  EXIT  DTMVSRD
 005C32                            40506  1 4199.                END
                                   40510  1 4200.     *
                                   40511  1 4201.     *  NOT TRANSLATABLE (CC = 3) - CHECK FURTHER
                                   40512  1 4202.     *
 005C32 47E0 A16A            05C7C 40513  1 4203.                IF    NOTRN,BEGIN
 005C36 B110 4000            00000 40524  2 4204.                  LRA   RS,@RJ                  Test address
 005C3A 4780 A104            05C16 40525  2 4205.                  IF    Z,NEXT,MVRCHK           Valid and in real memory
                                   40539  2 4206.     *
                                   40540  2 4207.     *  ADDRESS INVALID
                                   40541  2 4208.     *
 005C3E 47B0 A138            05C4A 40542  2 4209.                  IF    INVLD,BEGIN             Invalid or not addressable
 005C42 9630 711A      0011A       40553  3 4210.                    OI    SIEPSW+2,X'30'          Set CC 3
 005C46 47F0 A2EA            05DFC 40554  3 4211.                    EXIT  DTMVSRD
 005C4A                            40557  2 4212.                  END   ,
                                   40561  2 4213.     *
                                   40562  2 4214.     *  NOT CURRENTLY IN MEMORY - TRY TO BRING IT IN
                                   40563  2 4215.     *
 005C4A B20B 0000                  40564  2 4216.                  MODESET EXTKEY=ZERO,SAVEKEY=(2)  get into key zero
 005C4E B20A 0000      00000       40567  2          +
 005C52 58F0 0010            00010 40568  2 4217.                  L     R15,CVTPTR              Not in memory check it out
 005C56 58F0 F120/0DEF       00120 40569  2 4218.                  WITH  (CVT,R15),'ACALL CVTPTRV'   translate real to virtual
 USING  CVT,R15
 DROP   CVT,R15
 005C5C 9101 1003      00003       40599  2 4219.                  TM    @R1+3,X'01'             has page been getmained?
 005C60 4770 A15E            05C70 40600  2 4220.                  IF    Z,BEGIN                 No, return error
 005C64 B20A 2000      00000       40611  3 4221.                    MODESET KEYADDR=(2)           Back to our key
 005C68 9630 711A      0011A       40614  3 4222.                    OI    SIEPSW+2,X'30'          Set CC 3
 005C6C 47F0 A2EA            05DFC 40615  3 4223.                    EXIT  DTMVSRD
 005C70                            40618  2 4224.                  END   ,
 005C70 9500 4000      00000       40622  2 4225.                  CLI   @RJ,0                   Page it in
 005C74 B20A 2000      00000       40623  2 4226.                  MODESET KEYADDR=(2)           Back to our key
 005C78 47F0 A104            05C16 40626  2 4227.                  NEXT  MVRCHK                  Retry same address now
 005C7C                            40629  1 4228.                END
 005C7C 5440 AD5E            06870 40633  1 4229.                N     RJ,=A(X'7FFFF000')      4k boundary
 005C80 5E40 AD62            06874 40634  1 4230.                AL    RJ,=A(4096)              and to next block
 005C84 47F0 A104            05C16 40635    4231.              END   ,
                                   40640    4232.     *
                                   40641    4233.     *  Now check user area and move data page by page
                                   40642    4234.     *
 005C88 5810 C05C/1211       0000C 40643    4235.              WHILE ('LT  RS,MVRLEN',P),BEGIN
 005C8E 47D0 A2E6            05DF8 40656             +
 005C92 5820 C058            00008 40661  1 4236.                L     RA,MVRUADR              Starting location
 005C96 5830 AD62            06874 40662  1 4237.                L     RB,=A(4096)             Calculate
 005C9A 1E32                       40663  1 4238.                ALR   RB,RA
 005C9C 5430 AD66            06878 40664  1 4239.                N     RB,=X'7FFFF000'          Length on
 005CA0 1B32                       40665  1 4240.                SR    RB,RA                     First page
 005CA2 5930 C05C            0000C 40666  1 4241.                CEIL  RB,MVRLEN               Not more than wanted
 005CA6 47D0 A19C            05CAE 40670  1          +
 005CAA 5830 C05C            0000C 40671  1          +
 005CAE 5030 C060            00010 40672  1 4242.                ST    RB,MVRPLEN              Save partial length
                                   40673  1 4243.     *
1GSTINTF  (GSTI00) (09:40) (22MAR04) IHAPSAE  - PSA Extension (ESAME)                                                       Page  203
0Current Usings:  (CPUB,R7) (DTMVSRD,R10) (INTERP-72,R12)
0Loc    Object Code    Addr1 Addr2  Stmt Lv Lineno    Source Statement           (Hibal 5, Asmedit 3.3)  HLASM R4.0  2004/03/22 09.40
+___    ______ ____    _____ _____  ____ __ ______    ______ _________
0                                  40674  1 4244.     *  Validate user area
                                   40675  1 4245.     *
 USING  GVAPARM-72,R13             40676  1 4246.                PSET  GVAPARM
 005CB2 D70B D048 D048 00000 00000 40693  1          +
 005CB8 5070 D048            00000 40694  1 4247.                ST    RY,GVACPUB              Set the CPUB pointer
 005CBC 5020 D04C            00004 40695  1 4248.                ST    RA,GVAVLOC               Location
 005CC0 58F0 AD6A/0DEF       0687C 40696  1 4249.                ACALL GVA
                                   40703  1 4250.     *
                                   40704  1 4251.     *  Area not in memory - cause a page fault
                                   40705  1 4252.     *
 005CC6 5900 AD6E            06880 40706  1 4253.                IF    (RVR,GT,4),BEGIN        Not currently in memory
 005CCA 47D0 A1FE            05D10 40718  1          +
 005CCE 5810 7070/18E2       00070 40723  2 4254.                  PIINT CODE=(RVR),EXA=GVAVLOC,ILEN=4,BACK=YES
 USING  PZERO,R1
 005CD4 B20B 0000                  40743  3          +
 005CD8 B20A 0000/18F2 00000       40744  3          +
 005CDE 182E                       40746  3          +
 005CE0 D207 1028 7118 00028 00118 40747  3          +
 005CE6 D207 7118 1068 00118 00068 40748  3          +
 005CEC 4000 108E            0008E 40749  3          +
 005CF0 D203 1090 D04C 00090 00004 40750  3          +
 005CF6 D201 108C AD8C 0008C 0689E 40751  3          +
 005CFC 58E0 102C            0002C 40752  3          +
 005D00 4BE0 108C            0008C 40753  3          +
 005D04 50E0 102C            0002C 40754  3          +
 005D08 B20A F000      00000       40757  2          +
 DROP   PZERO,R1
 005D0C 47F0 A2EA            05DFC 40766  2 4255.                  EXIT  DTMVSRD
 005D10                            40769  1 4256.                END   ,
                                   40773  1 4257.     *
                                   40774  1 4258.     *  Area may not be written - cause protection error
                                   40775  1 4259.     *
 005D10 1200/4780 A23A       05D4C 40776  1 4260.                IF    (RVR,NZ),BEGIN          Not valid location
 005D16 5810 7070/18E2       00070 40790  2 4261.                  PIINT CODE=(RVR),EXA=GVAVLOC,ILEN=4
 USING  PZERO,R1
 005D1C B20B 0000                  40810  3          +
 005D20 B20A 0000/18F2 00000       40811  3          +
 005D26 182E                       40813  3          +
 005D28 D207 1028 7118 00028 00118 40814  3          +
 005D2E D207 7118 1068 00118 00068 40815  3          +
 005D34 4000 108E            0008E 40816  3          +
 005D38 D203 1090 D04C 00090 00004 40817  3          +
 005D3E D201 108C AD8C 0008C 0689E 40818  3          +
 005D44 B20A F000      00000       40821  2          +
 DROP   PZERO,R1
 005D48 47F0 A2EA            05DFC 40830  2 4262.                  EXIT  DTMVSRD
 005D4C                            40833  1 4263.                END   ,
                                   40837  1 4264.     *
                                   40838  1 4265.     *  Area is in memory and ok - Move the first portion
                                   40839  1 4266.     *
 005D4C B20B 0000                  40840  1 4267.                MODESET EXTKEY=ZERO,SAVEKEY=(2)  get into key zero
 005D50 B20A 0000      00000       40843  1          +
 005D54 1812                       40844  1 4268.                LR    RS,R2                   Save key
 005D56 58E0 C050            00000 40845  1 4269.                L     R14,MVRADDR             Source address (MVS)
1GSTINTF  (GSTI00) (09:40) (22MAR04) IHAPSAE  - PSA Extension (ESAME)                                                       Page  204
0Current Usings:  (CPUB,R7) (DTMVSRD,R10) (INTERP-72,R12) (GVAPARM-72,R13)
0Loc    Object Code    Addr1 Addr2  Stmt Lv Lineno    Source Statement           (Hibal 5, Asmedit 3.3)  HLASM R4.0  2004/03/22 09.40
+___    ______ ____    _____ _____  ____ __ ______    ______ _________
0005D5A 5820 D050            00008 40846  1 4270.                L     RA,GVAMLOC              Target address (ORVYL)
 005D5E 18F3                       40847  1 4271.                LR    R15,RB                  Copy length to move
 005D60 0E2E                       40848  1 4272.                MVCL  RA,R14                  Move it
 005D62 1821                       40849  1 4273.                LR    R2,RS
 005D64 B20A 2000      00000       40850  1 4274.                MODESET KEYADDR=(2)           Back to our key
                                   40853  1 4275.     *
                                   40854  1 4276.     *  Reset registers r1 and r1+1
                                   40855  1 4277.     *
 005D68 4810 7156            00156 40856  1 4278.                LH    RS,SIEINST
 005D6C 8810 0004            00004 40857  1 4279.                SRL   RS,4                    Move r1 field to low order
 005D70 5410 AD56            06868 40858  1 4280.                N     RS,=X'0000000F'         Isolate the r1 field
 005D74 5910 AD5A            0686C 40859  1 4281.                LREGA RS,(RS)                 Get the address of the reg
 005D78 4720 A276            05D88 40865  1          +
 005D7C 4740 A27E            05D90 40866  1          +
 005D80 4110 7110            00110 40867  1          +
 005D84 47F0 A286            05D98 40868  1          +
 005D88 4110 7114            00114 40869  1          +
 005D8C 47F0 A286            05D98 40870  1          +
 005D90 8910 0002            00002 40871  1          +
 005D94 4111 70BC            000BC 40872  1          +
 005D98 5820 1000            00000 40875  1 4282.                L     RA,@RS                  Get the original location
 005D9C 5E20 C060            00010 40876  1 4283.                AL    RA,MVRPLEN              Update
 005DA0 5020 1000            00000 40877  1 4284.                ST    RA,@RS                   and replace
 005DA4 5820 1004            00004 40878  1 4285.                L     RA,@RS+4                Get the original length
 005DA8 5B20 C060            00010 40879  1 4286.                S     RA,MVRPLEN              Update
 005DAC 5020 1004            00004 40880  1 4287.                ST    RA,@RS+4                 and replace
                                   40881  1 4288.     *
                                   40882  1 4289.     *  Reset register r2
                                   40883  1 4290.     *
 005DB0 4810 7156            00156 40884  1 4291.                LH    RS,SIEINST
 005DB4 5410 AD56            06868 40885  1 4292.                N     RS,=X'0000000F'         Isolate the r2 field
 005DB8 5910 AD5A            0686C 40886  1 4293.                LREGA RS,(RS)                 Get the address of the reg
 005DBC 4720 A2BA            05DCC 40892  1          +
 005DC0 4740 A2C2            05DD4 40893  1          +
 005DC4 4110 7110            00110 40894  1          +
 005DC8 47F0 A2CA            05DDC 40895  1          +
 005DCC 4110 7114            00114 40896  1          +
 005DD0 47F0 A2CA            05DDC 40897  1          +
 005DD4 8910 0002            00002 40898  1          +
 005DD8 4111 70BC            000BC 40899  1          +
 005DDC 5820 1000            00000 40902  1 4294.                L     RA,@RS                  Original MVS location
 005DE0 5E20 C060            00010 40903  1 4295.                AL    RA,MVRPLEN              Update
 005DE4 5020 1000            00000 40904  1 4296.                ST    RA,@RS                   and replace
                                   40905  1 4297.     *
                                   40906  1 4298.     *  Update remaining count
                                   40907  1 4299.     *
 005DE8 5820 C05C            0000C 40908  1 4300.                L     RA,MVRLEN               Get the remaining length
 005DEC 5B20 C060            00010 40909  1 4301.                S     RA,MVRPLEN              Update
 005DF0 5020 C05C            0000C 40910  1 4302.                ST    RA,MVRLEN                and replace
 005DF4 47F0 A176            05C88 40911    4303.              END   ,
 005DF8 94CF 711A      0011A       40916    4304.              NI    SIEPSW+2,X'CF'          Set CC 0
 005DFC 981F C008            00008 40917    4305.              PEND  ,
 DROP   CPUB,R7
 DROP   INTERP-72,R12
1GSTINTF  (GSTI00) (09:40) (22MAR04) IHAPSAE  - PSA Extension (ESAME)                                                       Page  205
0Current Usings:  (GVAPARM-72,R13)
0Loc    Object Code    Addr1 Addr2  Stmt Lv Lineno    Source Statement           (Hibal 5, Asmedit 3.3)  HLASM R4.0  2004/03/22 09.40
+___    ______ ____    _____ _____  ____ __ ______    ______ _________
0DROP   DTMVSRD,R10
 005E00 9680 C000/0B0E 00000       40937             +
 DROP   GVAPARM-72,R13
1GSTINTF  (GSTI00) (09:40) (22MAR04) IHAPSAE  - PSA Extension (ESAME)                                                       Page  206
0Loc    Object Code    Addr1 Addr2  Stmt Lv Lineno    Source Statement           (Hibal 5, Asmedit 3.3)  HLASM R4.0  2004/03/22 09.40
+___    ______ ____    _____ _____  ____ __ ______    ______ _________
0                                  40947    4307.     *******************************************************************
                                   40948    4308.     *                                                                 *
                                   40949    4309.     *       MVWWORK -- MVS memory write work area                     *
                                   40950    4310.     *                                                                 *
                                   40951    4311.     *******************************************************************
0000000                00000 00028 40953    4313.     MVWWORK  RECORD BEGIN
 000000                            40961  1 4314.     MVWADDR    DS    A                       MVS ADDRESS
 000004                            40962  1 4315.     MVWKEY     DS    A
 000008                            40963  1 4316.     MVWUADR    DS    A                       USER VIRTUAL ADDRESS
 00000C                            40964  1 4317.     MVWLEN     DS    A                       TOTAL LENGTH
 000010                            40965  1 4318.     MVWPLEN    DS    A                       PARTIAL LENGTH
 000014                            40966  1 4319.     MVWOPT     DS    A                       OPTION
 000018                            40967  1 4320.     MVWLOCS    DS    2D                      USER REAL ADDRESSES
 000028                00028 00028 40968    4321.              END   ,
-
                                   40978    4323.     *******************************************************************
                                   40979    4324.     *                                                                 *
                                   40980    4325.     *       MVS memory write data area                                *
                                   40981    4326.     *                                                                 *
                                   40982    4327.     *******************************************************************
00068AA                068A2 08402 40984    4329.              DATA  BEGIN
 0068AA D200 E000 4000 00000 00000 40989  1 4330.     MVWTAB     MVC   @R14(0),@RJ
 0068B0 D600 E000 4000 00000 00000 40990  1 4331.                OC    @R14(0),@RJ
 0068B6 D400 E000 4000 00000 00000 40991  1 4332.                NC    @R14(0),@RJ
 005E06                05B06 08402 40992    4333.              END   ,
1GSTINTF  (GSTI00) (09:40) (22MAR04) IHAPSAE  - PSA Extension (ESAME)                                                       Page  207
0Loc    Object Code    Addr1 Addr2  Stmt Lv Lineno    Source Statement           (Hibal 5, Asmedit 3.3)  HLASM R4.0  2004/03/22 09.40
+___    ______ ____    _____ _____  ____ __ ______    ______ _________
0                                  40999    4335.     *******************************************************************
                                   41000    4336.     *                                                                 *
                                   41001    4337.     *   DTMVSWR - This is a DIAGNOSE service routine.  It moves,      *
                                   41002    4338.     *             AND's or OR's data from the ORVYL guest to MVS.     *
                                   41003    4339.     *             On entry r1 and r2 are each an even-odd register    *
                                   41004    4340.     *             pair which contain:                                 *
                                   41005    4341.     *                                                                 *
                                   41006    4342.     *                 r1    Orvyl guest virtual address               *
                                   41007    4343.     *                 r1+1  Length of the area                        *
                                   41008    4344.     *                 r2    MVS virtual address                       *
                                   41009    4345.     *                 r2+1  Bits 0-15   Reserved                      *
                                   41010    4346.     *                       Bits 16-23  Option byte                   *
                                   41011    4347.     *                                    0 = MVC data                 *
                                   41012    4348.     *                                    1 = OR data                  *
                                   41013    4349.     *                                    2 = AND data                 *
                                   41014    4350.     *                       Bits 24-31  Protect key                   *
                                   41015    4351.     *                                                                 *
                                   41016    4352.     *                                                                 *
                                   41017    4353.     *      Input - INTERP dsect                                       *
                                   41018    4354.     *                                                                 *
                                   41019    4355.     *     Output - none                                               *
                                   41020    4356.     *                                                                 *
                                   41021    4357.     *                                                                 *
                                   41022    4358.     *******************************************************************
-005E06                            41024    4360.     DTMVSWRT PROC  INTERP,MVWWORK,SCOPE=LOCAL
 005E06 C4E3D4E5E2E6D9E3           41029             +
 005E0E 0008/0028                  41030             +
 005E12 900F D004/18AF       00004 41032             +
 USING  DTMVSWRT,R10
 005E18 50D0 C000/18CD       00000 41047             +
 005E1E 9680 C000      00000       41049             +
 USING  INTERP-72,R12
 AUSING (MVWWORK,INTERP+8)
 005E22 41D0 C078            00078 41068             +
 005E26 5870 C048            00000 41069    4361.              L     RY,INTCPUB              Get the cpub address
 USING  CPUB,R7                    41070    4362.              WITH  (CPUB,RY)
                                   41083    4363.     *
                                   41084    4364.     *  Get parameter registers r1 and r1+1
                                   41085    4365.     *
 005E2A 4810 7156            00156 41086    4366.              LH    RS,SIEINST
 005E2E 8810 0004            00004 41087    4367.              SRL   RS,4                    Move r1 field to low order
 005E32 5410 AA56            06868 41088    4368.              N     RS,=X'0000000F'         Isolate the r1 field
 005E36 4410 AAAA            068BC 41089    4369.              IF    ('EX RS,"TM  =X'01',0"',NZ),BEGIN
 0068BC 9100 AA8E      068A0       41104             +
 005E3A 4780 A05E            05E70 41112             +
 005E3E 5810 7070/18E2       00070 41117  1 4370.                PIINT CODE=6,ILEN=4           Register not even
 USING  PZERO,R1
 005E44 B20B 0000                  41137  2          +
 005E48 B20A 0000/18F2 00000       41138  2          +
 005E4E 182E                       41140  2          +
 005E50 D207 1028 7118 00028 00118 41141  2          +
 005E56 D207 7118 1068 00118 00068 41142  2          +
 005E5C D201 108E AA8A 0008E 0689C 41143  2          +
 005E62 D201 108C AA8C 0008C 0689E 41144  2          +
1GSTINTF  (GSTI00) (09:40) (22MAR04) IHAPSAE  - PSA Extension (ESAME)                                                       Page  208
0Current Usings:  (CPUB,R7) (DTMVSWRT,R10) (INTERP-72,R12)
0Loc    Object Code    Addr1 Addr2  Stmt Lv Lineno    Source Statement           (Hibal 5, Asmedit 3.3)  HLASM R4.0  2004/03/22 09.40
+___    ______ ____    _____ _____  ____ __ ______    ______ _________
0005E68 B20A F000      00000       41147  1          +
 DROP   PZERO,R1
 005E6C 47F0 A2EA            060FC 41156  1 4371.                EXIT  DTMVSWRT
 005E70                            41159    4372.              END
 005E70 5910 AA5A            0686C 41163    4373.              LREGA RS,(RS)                 Get the address of the reg
 005E74 4720 A072            05E84 41169             +
 005E78 4740 A07A            05E8C 41170             +
 005E7C 4110 7110            00110 41171             +
 005E80 47F0 A082            05E94 41172             +
 005E84 4110 7114            00114 41173             +
 005E88 47F0 A082            05E94 41174             +
 005E8C 8910 0002            00002 41175             +
 005E90 4111 70BC            000BC 41176             +
 005E94 98EF 1000            00000 41179    4374.              LM    R14,R15,@RS             r1 and r1+1
 005E98 90EF C058            00008 41180    4375.              STM   R14,R15,MVWUADR         Caller's address and length
                                   41181    4376.     *
                                   41182    4377.     *  Validate user supplied length
                                   41183    4378.     *
 005E9C 12FF/47D0 A098       05EAA 41184    4379.              IF    ((R15,NP),OR,(R15,GT,256)),BEGIN
 005EA2 59F0 AA72            06884 41208             +
 005EA6 47D0 A0CA            05EDC 41209             +
 005EAA 5810 7070/18E2       00070 41214  1 4380.                PIINT CODE=6,ILEN=4           Length is not valid
 USING  PZERO,R1
 005EB0 B20B 0000                  41234  2          +
 005EB4 B20A 0000/18F2 00000       41235  2          +
 005EBA 182E                       41237  2          +
 005EBC D207 1028 7118 00028 00118 41238  2          +
 005EC2 D207 7118 1068 00118 00068 41239  2          +
 005EC8 D201 108E AA8A 0008E 0689C 41240  2          +
 005ECE D201 108C AA8C 0008C 0689E 41241  2          +
 005ED4 B20A F000      00000       41244  1          +
 DROP   PZERO,R1
 005ED8 47F0 A2EA            060FC 41253  1 4381.                EXIT  DTMVSWRT
 005EDC                            41256    4382.              END   ,
                                   41260    4383.     *
                                   41261    4384.     *  Get parameter registers r2 and r2+1
                                   41262    4385.     *
 005EDC 4810 7156            00156 41263    4386.              LH    RS,SIEINST
 005EE0 5410 AA56            06868 41264    4387.              N     RS,=X'0000000F'         Isolate the r2 field
 005EE4 4410 AAAE            068C0 41265    4388.              IF    ('EX RS,"TM  =X'01',0"',NZ),BEGIN
 0068C0 9100 AA8E      068A0       41280             +
 005EE8 4780 A10C            05F1E 41288             +
 005EEC 5810 7070/18E2       00070 41293  1 4389.                PIINT CODE=6,ILEN=4           Register not even
 USING  PZERO,R1
 005EF2 B20B 0000                  41313  2          +
 005EF6 B20A 0000/18F2 00000       41314  2          +
 005EFC 182E                       41316  2          +
 005EFE D207 1028 7118 00028 00118 41317  2          +
 005F04 D207 7118 1068 00118 00068 41318  2          +
 005F0A D201 108E AA8A 0008E 0689C 41319  2          +
 005F10 D201 108C AA8C 0008C 0689E 41320  2          +
 005F16 B20A F000      00000       41323  1          +
 DROP   PZERO,R1
 005F1A 47F0 A2EA            060FC 41332  1 4390.                EXIT  DTMVSWRT
1GSTINTF  (GSTI00) (09:40) (22MAR04) IHAPSAE  - PSA Extension (ESAME)                                                       Page  209
0Current Usings:  (CPUB,R7) (DTMVSWRT,R10) (INTERP-72,R12)
0Loc    Object Code    Addr1 Addr2  Stmt Lv Lineno    Source Statement           (Hibal 5, Asmedit 3.3)  HLASM R4.0  2004/03/22 09.40
+___    ______ ____    _____ _____  ____ __ ______    ______ _________
0005F1E                            41335    4391.              END
 005F1E 5910 AA5A            0686C 41339    4392.              LREGA RS,(RS)                 Get the address of the reg
 005F22 4720 A120            05F32 41345             +
 005F26 4740 A128            05F3A 41346             +
 005F2A 4110 7110            00110 41347             +
 005F2E 47F0 A130            05F42 41348             +
 005F32 4110 7114            00114 41349             +
 005F36 47F0 A130            05F42 41350             +
 005F3A 8910 0002            00002 41351             +
 005F3E 4111 70BC            000BC 41352             +
 005F42 98EF 1000            00000 41355    4393.              LM    R14,R15,@RS             r2 and r2+1
 005F46 50E0 C050            00000 41356    4394.              ST    R14,MVWADDR             MVS address
 005F4A 41E0 00FF            000FF 41357    4395.              LA    R14,255                 Isolate
 005F4E 14EF                       41358    4396.              NR    R14,R15                  protect key
 005F50 50E0 C054            00004 41359    4397.              ST    R14,MVWKEY
 005F54 88F0 0008            00008 41360    4398.              SRL   R15,8                   Isolate
 005F58 50F0 C064            00014 41361    4399.              ST    R15,MVWOPT               option byte
                                   41362    4400.     *
                                   41363    4401.     *  Validate the MVS address
                                   41364    4402.     *
 005F5C 5840 C050            00000 41365    4403.              L     RJ,MVWADDR              GET MVS ADDRESS
 005F60 5850 C05C            0000C 41366    4404.              L     RK,MVWLEN                AND LENGTH
 005F64 1A54                       41367    4405.              AR    RK,RJ                   END ADDRESS + 1
 005F66 5830 C054            00004 41368    4406.              L     RB,MVWKEY               KEY TO BE USED
 005F6A 1945/47B0 A1CA       05FDC 41369    4407.     MVWCHK   WHILE (RJ,LT,RK),BEGIN
 005F70 E501 4000 3000 00000 00000 41387  1 4408.                TPROT @RJ,@RB                 Test protection
                                   41388  1 4409.     *
                                   41389  1 4410.     *  NOT ALLOWED TO FETCH OR STORE (CC = 1 OR 2)
                                   41390  1 4411.     *
 005F76 4790 A174            05F86 41391  1 4412.                IF    NOSTR,BEGIN
 005F7A 94CF 711A      0011A       41402  2 4413.                  NI    SIEPSW+2,X'CF'          Clear the CC
 005F7E 9620 711A      0011A       41403  2 4414.                  OI    SIEPSW+2,X'20'          Set CC 2
 005F82 47F0 A2EA            060FC 41404  2 4415.                  EXIT  DTMVSWRT
 005F86                            41407  1 4416.                END
                                   41411  1 4417.     *
                                   41412  1 4418.     *  NOT TRANSLATABLE (CC = 3) - CHECK FURTHER
                                   41413  1 4419.     *
 005F86 47E0 A1BE            05FD0 41414  1 4420.                IF    NOTRN,BEGIN
 005F8A B110 4000            00000 41425  2 4421.                  LRA   RS,@RJ                  Test address
 005F8E 4780 A158            05F6A 41426  2 4422.                  IF    Z,NEXT,MVWCHK           Valid and in real memory
                                   41440  2 4423.     *
                                   41441  2 4424.     *  ADDRESS INVALID
                                   41442  2 4425.     *
 005F92 47B0 A18C            05F9E 41443  2 4426.                  IF    INVLD,BEGIN             Invalid or not addressable
 005F96 9630 711A      0011A       41454  3 4427.                    OI    SIEPSW+2,X'30'          Set CC 3
 005F9A 47F0 A2EA            060FC 41455  3 4428.                    EXIT  DTMVSWRT
 005F9E                            41458  2 4429.                  END   ,
                                   41462  2 4430.     *
                                   41463  2 4431.     *  NOT CURRENTLY IN MEMORY - TRY TO BRING IT IN
                                   41464  2 4432.     *
 005F9E B20B 0000                  41465  2 4433.                  MODESET EXTKEY=ZERO,SAVEKEY=(2)  get into key zero
 005FA2 B20A 0000      00000       41468  2          +
 005FA6 58F0 0010            00010 41469  2 4434.                  L     R15,CVTPTR              Not in memory check it out
 005FAA 58F0 F120/0DEF       00120 41470  2 4435.                  WITH  (CVT,R15),'ACALL CVTPTRV'   translate real to virtual
1GSTINTF  (GSTI00) (09:40) (22MAR04) IHAPSAE  - PSA Extension (ESAME)                                                       Page  210
0Current Usings:  (CPUB,R7) (DTMVSWRT,R10) (INTERP-72,R12)
0Loc    Object Code    Addr1 Addr2  Stmt Lv Lineno    Source Statement           (Hibal 5, Asmedit 3.3)  HLASM R4.0  2004/03/22 09.40
+___    ______ ____    _____ _____  ____ __ ______    ______ _________
0USING  CVT,R15
 DROP   CVT,R15
 005FB0 9101 1003      00003       41500  2 4436.                  TM    @R1+3,X'01'             has page been getmained?
 005FB4 4770 A1B2            05FC4 41501  2 4437.                  IF    Z,BEGIN                 No, return error
 005FB8 B20A 2000      00000       41512  3 4438.                    MODESET KEYADDR=(2)           Back to our key
 005FBC 9630 711A      0011A       41515  3 4439.                    OI    SIEPSW+2,X'30'          Set CC 3
 005FC0 47F0 A2EA            060FC 41516  3 4440.                    EXIT  DTMVSWRT
 005FC4                            41519  2 4441.                  END   ,
 005FC4 9500 4000      00000       41523  2 4442.                  CLI   @RJ,0                   Page it in
 005FC8 B20A 2000      00000       41524  2 4443.                  MODESET KEYADDR=(2)           Back to our key
 005FCC 47F0 A158            05F6A 41527  2 4444.                  NEXT  MVWCHK                  Retry same address now
 005FD0                            41530  1 4445.                END
 005FD0 5440 AA5E            06870 41534  1 4446.                N     RJ,=A(X'7FFFF000')      4k boundary
 005FD4 5E40 AA62            06874 41535  1 4447.                AL    RJ,=A(4096)              and to next block
 005FD8 47F0 A158            05F6A 41536    4448.              END   ,
                                   41541    4449.     *
                                   41542    4450.     *  Check user area - page by page
                                   41543    4451.     *
 005FDC 5840 C058            00008 41544    4452.              L     RJ,MVWUADR              GET USER ADDRESS
 005FE0 5830 C05C            0000C 41545    4453.              L     RB,MVWLEN                AND LENGTH
 005FE4 1B22                       41546    4454.              CLEAR RA                      CLEAR INDEX
 005FE6                            41550    4455.              LOOP  BEGIN
 005FE6 5850 AA62            06874 41556  1 4456.                L     RK,=A(4096)             Calculate
 005FEA 1E54                       41557  1 4457.                ALR   RK,RJ
 005FEC 5450 AA66            06878 41558  1 4458.                N     RK,=X'7FFFF000'          Length on
 005FF0 1B54                       41559  1 4459.                SR    RK,RJ                     this page
 005FF2 1953/47D0 A1E8       05FFA 41560  1 4460.                CEIL  RK,RB                   Not more than total
 005FF8 1853                       41565  1          +
                                   41566  1 4461.     *
                                   41567  1 4462.     *  Validate user area
                                   41568  1 4463.     *
 USING  GVAPARM-72,R13             41569  1 4464.                PSET  GVAPARM
 005FFA D70B D048 D048 00000 00000 41586  1          +
 006000 5070 D048            00000 41587  1 4465.                ST    RY,GVACPUB              Set the CPUB pointer
 006004 5040 D04C            00004 41588  1 4466.                ST    RJ,GVAVLOC               Location
 006008 58F0 AA6A/0DEF       0687C 41589  1 4467.                ACALL GVA
                                   41596  1 4468.     *
                                   41597  1 4469.     *  Area not in memory - cause a page fault
                                   41598  1 4470.     *
 00600E 5900 AA6E            06880 41599  1 4471.                IF    (RVR,GT,4),BEGIN        Not currently in memory
 006012 47D0 A246            06058 41611  1          +
 006016 5810 7070/18E2       00070 41616  2 4472.                  PIINT CODE=(RVR),EXA=GVAVLOC,ILEN=4,BACK=YES
 USING  PZERO,R1
 00601C B20B 0000                  41636  3          +
 006020 B20A 0000/18F2 00000       41637  3          +
 006026 182E                       41639  3          +
 006028 D207 1028 7118 00028 00118 41640  3          +
 00602E D207 7118 1068 00118 00068 41641  3          +
 006034 4000 108E            0008E 41642  3          +
 006038 D203 1090 D04C 00090 00004 41643  3          +
 00603E D201 108C AA8C 0008C 0689E 41644  3          +
 006044 58E0 102C            0002C 41645  3          +
 006048 4BE0 108C            0008C 41646  3          +
 00604C 50E0 102C            0002C 41647  3          +
1GSTINTF  (GSTI00) (09:40) (22MAR04) IHAPSAE  - PSA Extension (ESAME)                                                       Page  211
0Current Usings:  (CPUB,R7) (DTMVSWRT,R10) (INTERP-72,R12) (GVAPARM-72,R13)
0Loc    Object Code    Addr1 Addr2  Stmt Lv Lineno    Source Statement           (Hibal 5, Asmedit 3.3)  HLASM R4.0  2004/03/22 09.40
+___    ______ ____    _____ _____  ____ __ ______    ______ _________
0006050 B20A F000      00000       41650  2          +
 DROP   PZERO,R1
 006054 47F0 A2EA            060FC 41659  2 4473.                  EXIT  DTMVSWRT
 006058                            41662  1 4474.                END   ,
                                   41666  1 4475.     *
                                   41667  1 4476.     *  Save real locations and lengths
                                   41668  1 4477.     *
 006058 5810 D050            00008 41669  1 4478.                L     RS,GVAMLOC              Get MVS virtual address
 00605C 5012 C068            00018 41670  1 4479.                ST    RS,MVWLOCS(RA)          Save location
 006060 5052 C06C            0001C 41671  1 4480.                ST    RK,MVWLOCS+4(RA)         and length
 006064 1A45                       41672  1 4481.                AR    RJ,RK                   To next location
 006066 1B35                       41673  1 4482.                SR    RB,RK                    reduce length remaining
 006068 1233/47D0 A264       06076 41674  1 4483.                IF    (RB,NP),EXIT            All done
 00606E 4120 2008            00008 41691  1 4484.                LA    RA,@RA+8                Reset index
 006072 47F0 A1D4            05FE6 41692    4485.              END   ,
                                   41697    4486.     *
                                   41698    4487.     *  Mark end of list
                                   41699    4488.     *
 006076 4122 C068            00018 41700    4489.              LA    RA,MVWLOCS(RA)          List pointer
 00607A 9680 2000      00000       41701    4490.              SET   @RA.X'80'                Mark end
                                   41708    4491.     *
                                   41709    4492.     *  Get a buffer for the data
                                   41710    4493.     *
 00607E 5850 C05C            0000C 41711    4494.              L     RK,MVWLEN               User data length
 DROP   GVAPARM-72,R13             41712    4495.              MEMGET  @RK,TYPE=(LOCAL)
 USING  @MEMGET-72,R13
 006082 D709 D048 D048 00000 00000 41734             +
 006088 4100 5000            00000 41741             +
 00608C 5000 D04C            00004 41742             +
 006090 9211 D051      00009       41752             +
 006094 58F0 AA76/0DEF       06888 41755             +
 00609A 1840                       41757    4496.              LR    RJ,RVR
                                   41758    4497.     *
                                   41759    4498.     *  Move the user data to the buffer
                                   41760    4499.     *
 00609C 1824                       41761    4500.              LR    RA,RJ
 00609E 4110 C068            00018 41762    4501.              LA    RS,MVWLOCS
 0060A2                            41763    4502.              LOOP  BEGIN
 0060A2 98EF 1000            00000 41769  1 4503.                LM    R14,R15,@RS
 0060A6 183F                       41770  1 4504.                LR    RB,R15                  Length of this portion
 0060A8 0E2E                       41771  1 4505.                MVCL  RA,R14                  Move this portion
 0060AA 9180 1000      00000       41772  1 4506.                IF    @RS.X'80',EXIT          End of list
 0060AE 4710 A2A8            060BA 41785  1          +
 0060B2 4110 1008            00008 41791  1 4507.                LA    RS,@RS+8                Next entry
 0060B6 47F0 A290            060A2 41792    4508.              END   ,
                                   41797    4509.     *
                                   41798    4510.     *  Now move the data
                                   41799    4511.     *
 0060BA B20B 0000                  41800    4512.              MODESET EXTKEY=ZERO,SAVEKEY=(2)  get into key zero
 0060BE B20A 0000      00000       41803             +
 0060C2 58E0 C050            00000 41804    4513.              L     R14,MVWADDR             MVS address
 0060C6 5830 C064            00014 41805    4514.              L     RB,MVWOPT               Option code
 0060CA 4C30 AA8A            0689C 41806    4515.              MH    RB,=Y(6)                Convert to index
 0060CE 0650/4453 AA98       068AA 41807    4516.              DEX   RK,MVWTAB(RB)
1GSTINTF  (GSTI00) (09:40) (22MAR04) IHAPSAE  - PSA Extension (ESAME)                                                       Page  212
0Current Usings:  (CPUB,R7) (DTMVSWRT,R10) (INTERP-72,R12) (@MEMGET-72,R13)
0Loc    Object Code    Addr1 Addr2  Stmt Lv Lineno    Source Statement           (Hibal 5, Asmedit 3.3)  HLASM R4.0  2004/03/22 09.40
+___    ______ ____    _____ _____  ____ __ ______    ______ _________
00060D4 B20A 2000      00000       41812    4517.              MODESET KEYADDR=(2)           Back to our key
                                   41815    4518.     *
                                   41816    4519.     *  Release the buffer
                                   41817    4520.     *
 0060D8 5810 C05C            0000C 41818    4521.              L     RS,MVWLEN               User data length
 DROP   @MEMGET-72,R13             41819    4522.              MEMFREE @RS,A=(RJ),TYPE=(LOCAL)
 USING  @MEMFREE-72,R13
 0060DC D709 D048 D048 00000 00000 41841             +
 0060E2 4100 1000            00000 41848             +
 0060E6 5000 D04C            00004 41849             +
 0060EA 5040 D048            00000 41850             +
 0060EE 9210 D051      00009       41857             +
 0060F2 58F0 AA7A/0DEF       0688C 41860             +
 0060F8 94CF 711A      0011A       41862    4523.              NI    SIEPSW+2,X'CF'          Set CC 0
 0060FC 981F C008            00008 41863    4524.              PEND  ,
 DROP   CPUB,R7
 DROP   INTERP-72,R12
 DROP   DTMVSWRT,R10
 006100 9680 C000/0B0E 00000       41883             +
 DROP   @MEMFREE-72,R13
1GSTINTF  (GSTI00) (09:40) (22MAR04) IHAPSAE  - PSA Extension (ESAME)                                                       Page  213
0Loc    Object Code    Addr1 Addr2  Stmt Lv Lineno    Source Statement           (Hibal 5, Asmedit 3.3)  HLASM R4.0  2004/03/22 09.40
+___    ______ ____    _____ _____  ____ __ ______    ______ _________
0                                  41893    4526.     *******************************************************************
                                   41894    4527.     *                                                                 *
                                   41895    4528.     *       MVNWORK -- MVS module search work area                    *
                                   41896    4529.     *                                                                 *
                                   41897    4530.     *******************************************************************
0000000                00000 00020 41899    4532.     MVNWORK  RECORD BEGIN
 000000                            41907  1 4533.     MVNNAME    DS    CL8                     MODULE/CSECT NAME
 000008                            41908  1 4534.     MVNCDE     DS    A                       POINTER TO CDE
 00000C                            41909  1 4535.     MVNADDR    DS    A                       ADDRESS OF ROUTINE
 000010                            41910  1 4536.     MVNREGS    DS    4A                      REGISTER SAVE
 000020                00020 00020 41911    4537.              END   ,
-
                                   41921    4539.     *******************************************************************
                                   41922    4540.     *                                                                 *
                                   41923    4541.     *       MVS module search data                                    *
                                   41924    4542.     *                                                                 *
                                   41925    4543.     *******************************************************************
00068C4                068A2 08402 41927    4545.              DATA  BEGIN
 0068C4 00000000C7E2E3C9           41932  1 4546.     MVNTAB     DC    V(GSTINTF),CL8'GSTINTF'
 0068D0 00000000C9D6E2C5           41933  1 4547.                DC    V(IOSERV),CL8'IOSERV'
 0068DC 00000000C9D7D3E3           41934  1 4548.                DC    V(IPLTEXT),CL8'IPLTEXT'
 0068E8 00000000D4C5D4E2           41935  1 4549.                DC    V(MEMSERV),CL8'MEMSERV'
 0068F4 00000000D4D7D4C1           41936  1 4550.                DC    V(MPMAST),CL8'MPMAST'
 006900 00000000D4E2C7E2           41937  1 4551.                DC    V(MSGSERV),CL8'MSGSERV'
 00690C 00000000D7C1D9D4           41938  1 4552.                DC    V(PARMS),CL8'PARMS'
 006918 00000000E3C1E2D2           41939  1 4553.                DC    V(TASKSERV),CL8'TASKSERV'
 006924 00000000E3C5E7E3           41940  1 4554.                DC    V(TEXTCONV),CL8'TEXTCONV'
                                   41941  1 4555.     MVNTEND    EQU   *
 006106                05B06 08402 41942    4556.              END   ,
1GSTINTF  (GSTI00) (09:40) (22MAR04) IHAPSAE  - PSA Extension (ESAME)                                                       Page  214
0Loc    Object Code    Addr1 Addr2  Stmt Lv Lineno    Source Statement           (Hibal 5, Asmedit 3.3)  HLASM R4.0  2004/03/22 09.40
+___    ______ ____    _____ _____  ____ __ ______    ______ _________
0                                  41949    4558.     *******************************************************************
                                   41950    4559.     *                                                                 *
                                   41951    4560.     *   DTMVSNM - This is a DIAGNOSE service routine.  It searches    *
                                   41952    4561.     *              LPA and the MVS Nucleus map for a module or        *
                                   41953    4562.     *              csect name.  On entry r1 contains the guest        *
                                   41954    4563.     *              virtual address of the 8 byte name field which     *
                                   41955    4564.     *              must be on a doubleword boundary.  On return r1    *
                                   41956    4565.     *              contains the MVS virtual address if the name was   *
                                   41957    4566.     *              found, otherwise it contains zero.                 *
                                   41958    4567.     *                                                                 *
                                   41959    4568.     *                                                                 *
                                   41960    4569.     *      Input - INTERP dsect                                       *
                                   41961    4570.     *                                                                 *
                                   41962    4571.     *     Output - none                                               *
                                   41963    4572.     *                                                                 *
                                   41964    4573.     *                                                                 *
                                   41965    4574.     *******************************************************************
-006106                            41967    4576.     DTMVSNM  PROC  INTERP,MVNWORK,SCOPE=LOCAL
 006106 C4E3D4E5E2D5D440           41972             +
 00610E 0008/0020                  41973             +
 006112 900F D004/18AF       00004 41975             +
 USING  DTMVSNM,R10
 006118 50D0 C000/18CD       00000 41990             +
 00611E 9680 C000      00000       41992             +
 USING  INTERP-72,R12
 AUSING (MVNWORK,INTERP+8)
 006122 41D0 C070            00070 42011             +
 006126 5870 C048            00000 42012    4577.              L     RY,INTCPUB              Get the cpub address
 USING  CPUB,R7                    42013    4578.              WITH  (CPUB,RY)
 00612A                            42026    4579.              CLEAR MVNCDE                  CLEAR
 00612A D703 C058 C058 00008 00008 42032             +
 006130                            42033    4580.              CLEAR MVNADDR
 006130 D703 C05C C05C 0000C 0000C 42039             +
                                   42040    4581.     *
                                   42041    4582.     *  GET THE NAME SUPLIED BY THE CALLER
                                   42042    4583.     *
 006136 4810 7156            00156 42043    4584.              LH    RS,SIEINST
 00613A 8810 0004            00004 42044    4585.              SRL   RS,4                    Move r1 field to low order
 00613E 5410 A756            06868 42045    4586.              N     RS,=X'0000000F'         Isolate the r1 field
 006142 5910 A75A            0686C 42046    4587.              LREGA RS,(RS)                 Get the Address of the Reg
 006146 4720 A044            06156 42052             +
 00614A 4740 A04C            0615E 42053             +
 00614E 4110 7110            00110 42054             +
 006152 47F0 A054            06166 42055             +
 006156 4110 7114            00114 42056             +
 00615A 47F0 A054            06166 42057             +
 00615E 8910 0002            00002 42058             +
 006162 4111 70BC            000BC 42059             +
 006166 5820 1000            00000 42062    4588.              L     RA,@RS                  Module name address (virtual)
 00616A 4420 A81E            06930 42063    4589.              IF    ('EX  RA,"TM  =X'07',0"',NZ),BEGIN
 006930 9100 A78F      068A1       42078             +
 00616E 4780 A092            061A4 42086             +
 006172 5810 7070/18E2       00070 42091  1 4590.                PIINT CODE=6,ILEN=4           Address not on double word
 USING  PZERO,R1
1GSTINTF  (GSTI00) (09:40) (22MAR04) IHAPSAE  - PSA Extension (ESAME)                                                       Page  215
0Current Usings:  (PZERO,R1) (CPUB,R7) (DTMVSNM,R10) (INTERP-72,R12)
0Loc    Object Code    Addr1 Addr2  Stmt Lv Lineno    Source Statement           (Hibal 5, Asmedit 3.3)  HLASM R4.0  2004/03/22 09.40
+___    ______ ____    _____ _____  ____ __ ______    ______ _________
0006178 B20B 0000                  42111  2          +
 00617C B20A 0000/18F2 00000       42112  2          +
 006182 182E                       42114  2          +
 006184 D207 1028 7118 00028 00118 42115  2          +
 00618A D207 7118 1068 00118 00068 42116  2          +
 006190 D201 108E A78A 0008E 0689C 42117  2          +
 006196 D201 108C A78C 0008C 0689E 42118  2          +
 00619C B20A F000      00000       42121  1          +
 DROP   PZERO,R1
 0061A0 47F0 A1D6            062E8 42130  1 4591.                EXIT  DTMVSNM
 0061A4                            42133    4592.              END
                                   42137    4593.     *
                                   42138    4594.     *  Validate user area
                                   42139    4595.     *
 USING  GVAPARM-72,R13             42140    4596.              PSET  GVAPARM
 0061A4 D70B D048 D048 00000 00000 42157             +
 0061AA 5070 D048            00000 42158    4597.              ST    RY,GVACPUB              Set the CPUB pointer
 0061AE 5020 D04C            00004 42159    4598.              ST    RA,GVAVLOC               Location
 0061B2 58F0 A76A/0DEF       0687C 42160    4599.              ACALL GVA
                                   42167    4600.     *
                                   42168    4601.     *  Area not in memory - cause a page fault
                                   42169    4602.     *
 0061B8 5900 A76E            06880 42170    4603.              IF    (RVR,GT,4),BEGIN        Not currently in memory
 0061BC 47D0 A0F0            06202 42182             +
 0061C0 5810 7070/18E2       00070 42187  1 4604.                PIINT CODE=(RVR),EXA=GVAVLOC,ILEN=4,BACK=YES
 USING  PZERO,R1
 0061C6 B20B 0000                  42207  2          +
 0061CA B20A 0000/18F2 00000       42208  2          +
 0061D0 182E                       42210  2          +
 0061D2 D207 1028 7118 00028 00118 42211  2          +
 0061D8 D207 7118 1068 00118 00068 42212  2          +
 0061DE 4000 108E            0008E 42213  2          +
 0061E2 D203 1090 D04C 00090 00004 42214  2          +
 0061E8 D201 108C A78C 0008C 0689E 42215  2          +
 0061EE 58E0 102C            0002C 42216  2          +
 0061F2 4BE0 108C            0008C 42217  2          +
 0061F6 50E0 102C            0002C 42218  2          +
 0061FA B20A F000      00000       42221  1          +
 DROP   PZERO,R1
 0061FE 47F0 A1D6            062E8 42230  1 4605.                EXIT  DTMVSNM
 006202                            42233    4606.              END   ,
                                   42237    4607.     *
                                   42238    4608.     *  Address ok, copy in name
                                   42239    4609.     *
 006202 5810 D050            00008 42240    4610.              L     RS,GVAMLOC              MVS address of name
 006206 D207 C050 1000 00000 00000 42241    4611.              MVC   MVNNAME,@RS             Copy in module name
                                   42242    4612.     *
                                   42243    4613.     *  FIRST SEARCH THE ORVYL TABLE
                                   42244    4614.     *
 00620C 4120 A7B2            068C4 42245    4615.              LA    RA,MVNTAB               TABLE POINTER
 006210 4110 A81E            06930 42246    4616.              LA    RS,MVNTEND               END OF TABLE
 006214 1921/47B0 A124       06236 42247    4617.              WHILE (RA,LT,RS),BEGIN
 00621A D507 C050 2004 00000 00004 42264  1 4618.                CLC   MVNNAME,@RA+4           NAMES MATCH?
 006220 4770 A11C            0622E 42265  1 4619.                IF    EQ,'MVC  MVNADDR,@RA; EXIT'
1GSTINTF  (GSTI00) (09:40) (22MAR04) IHAPSAE  - PSA Extension (ESAME)                                                       Page  216
0Current Usings:  (CPUB,R7) (DTMVSNM,R10) (INTERP-72,R12) (GVAPARM-72,R13)
0Loc    Object Code    Addr1 Addr2  Stmt Lv Lineno    Source Statement           (Hibal 5, Asmedit 3.3)  HLASM R4.0  2004/03/22 09.40
+___    ______ ____    _____ _____  ____ __ ______    ______ _________
0006224 D203 C05C 2000 0000C 00000 42277  2          +
 00622A 47F0 A11C            0622E 42280  1          +
 00622E 4120 200C            0000C 42285  1 4620.                LA    RA,@RA+12               NEXT ENTRY
 006232 47F0 A102            06214 42286    4621.              END   ,
                                   42291    4622.     *
                                   42292    4623.     *  THEN SEARCH LPA CDE CHAIN
                                   42293    4624.     *
 006236                            42294    4625.              IF    (MVNADDR,Z),BEGIN
 006236 D603 C05C C05C 0000C 0000C 42304             +
 00623C 4770 A1A0            062B2 42305             +
 006240 5830 0010            00010 42310  1 4626.                L     RB,CVTPTR               CVT
 USING  CVT,R3                     42311  1 4627.                WITH  (CVT,RB)
 006244 908B C060            00010 42324  1 4628.                STM   R8,R11,MVNREGS          SAVE REGISTERS
 006248 5880 30BC            000BC 42325  1 4629.                L     R8,CVTQLPAQ             LPA QUEUE HEAD
 00624C 4190 C050            00000 42326  1 4630.                LA    R9,MVNNAME              NAME POINTER
 006250 58F0 30B8/0DEF       000B8 42327  1 4631.                ACALL CVTQCDSR                GO TO SEARCH ROUTINE
                                   42334  1 4632.     *
                                   42335  1 4633.     *  RETURN TO R14+0 IF FOUND - R14+4 IF NOT
                                   42336  1 4634.     *
 006256 50B0 C058            00008 42337  1 4635.                ST    R11,MVNCDE              SET CDE POINTER
 00625A 988B C060            00010 42338  1 4636.                LM    R8,R11,MVNREGS          RETRIEVE REGISTERS
                                   42339  1 4637.     *
                                   42340  1 4638.     *  IF NOT THERE TRY FULL LPA SEARCH
                                   42341  1 4639.     *
 00625E                            42342  1 4640.                IF    (MVNCDE,Z),BEGIN
 00625E D603 C058 C058 00008 00008 42352  1          +
 006264 4770 A170            06282 42353  1          +
 006268 9180 3168      00168       42358  2 4641.                  IF    ~CVTDIRST.CVTDICOM,EXIT   LPA DIRECTORY DOESN'T EXIST
 00626C 47E0 A170            06282 42371  2          +
 006270 9069 C060            00010 42377  2 4642.                  STM   R6,R9,MVNREGS           SAVE REGISTERS
 006274 58F0 3160/0DEF       00160 42378  2 4643.                  ACALL CVTLPDSR                LPA SEARCH ROUTINE
                                   42385  2 4644.     *
                                   42386  2 4645.     *  RETURN TO R14+0 IF FOUND - R14+4 IF NOT
                                   42387  2 4646.     *
 00627A 5000 C058            00008 42388  2 4647.                  ST    R0,MVNCDE               LPDE POINTER
 00627E 9869 C060            00010 42389  2 4648.                  LM    R6,R9,MVNREGS           RETRIEVE REGISTERS
 006282                            42390  1 4649.                END   ,
                                   42394  1 4650.     *
                                   42395  1 4651.     *  IF CDE OR LPDE FOUND SET ADDRESS
                                   42396  1 4652.     *
 006282 5820 C058/1222       00008 42397  1 4653.                IF    ('LT  RA,MVNCDE',NZ),BEGIN
 006288 4780 A180            06292 42408  1          +
 USING  LPDE,R2                    42413  2 4654.                  WITH  (LPDE,RA),'MVC  MVNADDR,LPDENTP'    GET ENTRY POINT
 00628C D203 C05C 2010 0000C 00010 42428  2          +
 DROP   LPDE,R2
 006292                            42437  1 4655.                END   ,
                                   42441  1 4656.     *
                                   42442  1 4657.     *  ROUTINE TO SEARCH NUCLEUS FOR CSECT NAME
                                   42443  1 4658.     *
 006292                            42444  1 4659.                IF    (MVNADDR,Z),BEGIN
 006292 D603 C05C C05C 0000C 0000C 42454  1          +
 006298 4770 A1A0            062B2 42455  1          +
                                   42460  2 4660.     *        NUCLKUP BYNAME,NAME=(1),ADDR=(0)
 00629C 4110 C050            00000 42461  2 4661.                  LA    R1,MVNNAME              NAME POINTER
1GSTINTF  (GSTI00) (09:40) (22MAR04) IHAPSAE  - PSA Extension (ESAME)                                                       Page  217
0Current Usings:  (CVT,R3) (CPUB,R7) (DTMVSNM,R10) (INTERP-72,R12) (GVAPARM-72,R13)
0Loc    Object Code    Addr1 Addr2  Stmt Lv Lineno    Source Statement           (Hibal 5, Asmedit 3.3)  HLASM R4.0  2004/03/22 09.40
+___    ______ ____    _____ _____  ____ __ ______    ______ _________
00062A0 1B00                       42462  2 4662.                  CLEAR R0
 0062A2 58F0 34EC/0DEF       004EC 42466  2 4663.                  ACALL CVTNUCLU                GO DO IT
                                   42473  2 4664.     *
                                   42474  2 4665.     *  IF R15 = 0 ADDRESS RETURNED
                                   42475  2 4666.     *
 0062A8 12FF/4770 A1A0       062B2 42476  2 4667.                  IF    (R15,Z),'ST  R0,MVNADDR'   SAVE ADDRESS
 0062AE 5000 C05C            0000C 42491  2          +
 0062B2                            42496  1 4668.                END   ,
 DROP   CVT,R3                     42500    4669.              END   ,
                                   42509    4670.     *
                                   42510    4671.     *  RETURN MODULE ADDRESS
                                   42511    4672.     *
 0062B2 4810 7156            00156 42512    4673.              LH    RS,SIEINST
 0062B6 8810 0004            00004 42513    4674.              SRL   RS,4                    Move r1 field to low order
 0062BA 5410 A756            06868 42514    4675.              N     RS,=X'0000000F'         Isolate the r1 field
 0062BE 5910 A75A            0686C 42515    4676.              LREGA RS,(RS)                 Get the Address of the Reg
 0062C2 4720 A1C0            062D2 42521             +
 0062C6 4740 A1C8            062DA 42522             +
 0062CA 4110 7110            00110 42523             +
 0062CE 47F0 A1D0            062E2 42524             +
 0062D2 4110 7114            00114 42525             +
 0062D6 47F0 A1D0            062E2 42526             +
 0062DA 8910 0002            00002 42527             +
 0062DE 4111 70BC            000BC 42528             +
 0062E2 D203 1000 C05C 00000 0000C 42531    4677.              MVC   @RS(4),MVNADDR          Set the information
 0062E8 981F C008            00008 42532    4678.              PEND
 DROP   CPUB,R7
 DROP   INTERP-72,R12
 DROP   DTMVSNM,R10
 0062EC 9680 C000/0B0E 00000       42552             +
 DROP   GVAPARM-72,R13
1GSTINTF  (GSTI00) (09:40) (22MAR04) IHAPSAE  - PSA Extension (ESAME)                                                       Page  218
0Loc    Object Code    Addr1 Addr2  Stmt Lv Lineno    Source Statement           (Hibal 5, Asmedit 3.3)  HLASM R4.0  2004/03/22 09.40
+___    ______ ____    _____ _____  ____ __ ______    ______ _________
0                                  42562    4680.     *******************************************************************
                                   42563    4681.     *                                                                 *
                                   42564    4682.     *     SMFREC -- MVS SMF record area                               *
                                   42565    4683.     *                                                                 *
                                   42566    4684.     *******************************************************************
0000000                00000 00014 42568    4686.     SMFREC   RECORD BEGIN
                                   42576  1 4687.     *
                                   42577  1 4688.     *  Standard Smf header
                                   42578  1 4689.     *
 000000 0700                       42579  1 4690.                CNOP  2,4                 Alignment
 000002                            42580  1 4691.     SMFLEN     DS    AL2                 Total record length
 000004                            42581  1 4692.     SMFSEG     DS    AL2                 Segment descriptor
 000006                            42582  1 4693.     SMFFLG     DS    X                   System indicator
 000007                            42583  1 4694.     SMFTYPE    DS    X                   Smf record no.
 000008                            42584  1 4695.     SMFTIME    DS    A                   Time stamp (in .01 sec)
 00000C                            42585  1 4696.     SMFDATE    DS    A                   Date (00yydddf)
 000010                            42586  1 4697.     SMFSID     DS    CL4                 System identification
                                   42587  1 4698.     SMFHDR     EQU   *-SMFLEN,*-SMFLEN,C'X'    Length of header portion
                                   42588  1 4699.     *
                                   42589  1 4700.     *  Data portion - supplied by caller
                                   42590  1 4701.     *
 000014                            42591  1 4702.     SMFDATA    DS    0X                  Data portion of record
 000014                00014 00014 42592    4703.              END   ,
-
                                   42602    4705.     *******************************************************************
                                   42603    4706.     *                                                                 *
                                   42604    4707.     *       SMFWORK -- SMF write routine work area                    *
                                   42605    4708.     *                                                                 *
                                   42606    4709.     *******************************************************************
0000000                00000 00051 42608    4711.     SMFWORK  RECORD BEGIN
 000000                            42616  1 4712.     SMFADDRS   DS    9D                      Address/length pairs
 000048                            42617  1 4713.     SMFUADD    DS    A                       User virtual location
 00004C                            42618  1 4714.     SMFULEN    DS    A                       Total length of user data
 000050                            42619  1 4715.     SMFUNUM    DS    X                       User supplied record number
 000051                00051 00051 42620    4716.              END   ,
1GSTINTF  (GSTI00) (09:40) (22MAR04) IHAPSAE  - PSA Extension (ESAME)                                                       Page  219
0Loc    Object Code    Addr1 Addr2  Stmt Lv Lineno    Source Statement           (Hibal 5, Asmedit 3.3)  HLASM R4.0  2004/03/22 09.40
+___    ______ ____    _____ _____  ____ __ ______    ______ _________
0                                  42630    4718.     *******************************************************************
                                   42631    4719.     *                                                                 *
                                   42632    4720.     *   DTSMF  - This is a DIAGNOSE service routine.  It writes a     *
                                   42633    4721.     *            record to SMF. On entry r1 contains the guest        *
                                   42634    4722.     *            virtual address of the caller's SMF record area;     *
                                   42635    4723.     *            r2 contains:                                         *
                                   42636    4724.     *                Bits 0-7    SMF record number                    *
                                   42637    4725.     *                Bits 8-15   Reserved                             *
                                   42638    4726.     *                Bits 16-31  Length of the user supplied data     *
                                   42639    4727.     *                                                                 *
                                   42640    4728.     *                                                                 *
                                   42641    4729.     *      Input - INTERP dsect                                       *
                                   42642    4730.     *                                                                 *
                                   42643    4731.     *     Output - CC = 0  Record written                             *
                                   42644    4732.     *                 = 3  Record not written                         *
                                   42645    4733.     *                                                                 *
                                   42646    4734.     *                                                                 *
                                   42647    4735.     *******************************************************************
-0062F2                            42649    4737.     DTSMF    PROC  INTERP,SMFWORK,SCOPE=LOCAL
 0062F2 C4E3E2D4C6404040           42654             +
 0062FA 0008/0058                  42655             +
 0062FE 900F D004/18AF       00004 42657             +
 USING  DTSMF,R10
 006304 50D0 C000/18CD       00000 42672             +
 00630A 9680 C000      00000       42674             +
 USING  INTERP-72,R12
 AUSING (SMFWORK,INTERP+8)
 00630E 41D0 C0A8            000A8 42693             +
 006312 5870 C048            00000 42694    4738.              L     RY,INTCPUB              Parm is the CPUB pointer
 USING  CPUB,R7                    42695    4739.              WITH  (CPUB,RY)
                                   42708    4740.     *
                                   42709    4741.     *  Get the record address
                                   42710    4742.     *
 006316 4810 7156            00156 42711    4743.              LH    RS,SIEINST
 00631A 8810 0004            00004 42712    4744.              SRL   RS,4                    Move r1 field to low order
 00631E 5410 A56A            06868 42713    4745.              N     RS,=X'0000000F'         Isolate the r1 field
 006322 5910 A56E            0686C 42714    4746.              LREGA RS,(RS)                 Get the Address of the Reg
 006326 4720 A038            06336 42720             +
 00632A 4740 A040            0633E 42721             +
 00632E 4110 7110            00110 42722             +
 006332 47F0 A048            06346 42723             +
 006336 4110 7114            00114 42724             +
 00633A 47F0 A048            06346 42725             +
 00633E 8910 0002            00002 42726             +
 006342 4111 70BC            000BC 42727             +
 006346 5840 1000            00000 42730    4747.              L     RJ,@RS                  Get record address
 00634A 5040 C098            00048 42731    4748.              ST    RJ,SMFUADD
1GSTINTF  (GSTI00) (09:40) (22MAR04) IHAPSAE  - PSA Extension (ESAME)                                                       Page  220
0Current Usings:  (CPUB,R7) (DTSMF,R10) (INTERP-72,R12)
0Loc    Object Code    Addr1 Addr2  Stmt Lv Lineno    Source Statement           (Hibal 5, Asmedit 3.3)  HLASM R4.0  2004/03/22 09.40
+___    ______ ____    _____ _____  ____ __ ______    ______ _________
0                                  42733    4750.     *
                                   42734    4751.     *  Get the record number and length
                                   42735    4752.     *
 00634E 4810 7156            00156 42736    4753.              LH    RS,SIEINST
 006352 5410 A56A            06868 42737    4754.              N     RS,=X'0000000F'         Isolate the r2 field
 006356 5910 A56E            0686C 42738    4755.              LREGA RS,(RS)                 Get the Address of the Reg
 00635A 4720 A06C            0636A 42744             +
 00635E 4740 A074            06372 42745             +
 006362 4110 7110            00110 42746             +
 006366 47F0 A07C            0637A 42747             +
 00636A 4110 7114            00114 42748             +
 00636E 47F0 A07C            0637A 42749             +
 006372 8910 0002            00002 42750             +
 006376 4111 70BC            000BC 42751             +
 00637A 4320 1000            00000 42754    4756.              IC    RA,@RS                  Get record number
 00637E 4220 C0A0            00050 42755    4757.              STC   RA,SMFUNUM               and save
 006382 4830 1002            00002 42756    4758.              LH    RB,@RS+2                Get length
 006386 5030 C09C            0004C 42757    4759.              ST    RB,SMFULEN               and save
                                   42758    4760.     *
                                   42759    4761.     *  Validate user supplied length
                                   42760    4762.     *
 00638A 1233/47D0 A09A       06398 42761    4763.              IF    ((RB,NP),OR,(RB,GE,32768)),BEGIN
 006390 5930 A592            06890 42785             +
 006394 4750 A0CC            063CA 42786             +
 006398 5810 7070/18E2       00070 42791  1 4764.                PIINT CODE=6,ILEN=4           Length is not valid
 USING  PZERO,R1
 00639E B20B 0000                  42811  2          +
 0063A2 B20A 0000/18F2 00000       42812  2          +
 0063A8 182E                       42814  2          +
 0063AA D207 1028 7118 00028 00118 42815  2          +
 0063B0 D207 7118 1068 00118 00068 42816  2          +
 0063B6 D201 108E A59E 0008E 0689C 42817  2          +
 0063BC D201 108C A5A0 0008C 0689E 42818  2          +
 0063C2 B20A F000      00000       42821  1          +
 DROP   PZERO,R1
 0063C6 47F0 A238            06536 42830  1 4765.                EXIT  DTSMF
 0063CA                            42833    4766.              END   ,
                                   42837    4767.     *
                                   42838    4768.     *  Check user area - page by page
                                   42839    4769.     *
 0063CA 1B22                       42840    4770.              CLEAR RA                      CLEAR INDEX
 0063CC                            42844    4771.              LOOP  BEGIN
 0063CC 5850 A576            06874 42850  1 4772.                L     RK,=A(4096)             Calculate
 0063D0 1E54                       42851  1 4773.                ALR   RK,RJ
 0063D2 5450 A57A            06878 42852  1 4774.                N     RK,=X'7FFFF000'          Length on
 0063D6 1B54                       42853  1 4775.                SR    RK,RJ                     this page
 0063D8 1953/47D0 A0E2       063E0 42854  1 4776.                CEIL  RK,RB                   Not more than total
 0063DE 1853                       42859  1          +
                                   42860  1 4777.     *
                                   42861  1 4778.     *  Validate user area
                                   42862  1 4779.     *
 USING  GVAPARM-72,R13             42863  1 4780.                PSET  GVAPARM
 0063E0 D70B D048 D048 00000 00000 42880  1          +
 0063E6 5070 D048            00000 42881  1 4781.                ST    RY,GVACPUB              Set the CPUB pointer
1GSTINTF  (GSTI00) (09:40) (22MAR04) IHAPSAE  - PSA Extension (ESAME)                                                       Page  221
0Current Usings:  (CPUB,R7) (DTSMF,R10) (INTERP-72,R12) (GVAPARM-72,R13)
0Loc    Object Code    Addr1 Addr2  Stmt Lv Lineno    Source Statement           (Hibal 5, Asmedit 3.3)  HLASM R4.0  2004/03/22 09.40
+___    ______ ____    _____ _____  ____ __ ______    ______ _________
00063EA 5040 D04C            00004 42882  1 4782.                ST    RJ,GVAVLOC               Location
 0063EE 58F0 A57E/0DEF       0687C 42883  1 4783.                ACALL GVA
                                   42890  1 4784.     *
                                   42891  1 4785.     *  Area not in memory - cause a page fault
                                   42892  1 4786.     *
 0063F4 5900 A582            06880 42893  1 4787.                IF    (RVR,GT,4),BEGIN        Not currently in memory
 0063F8 47D0 A140            0643E 42905  1          +
 0063FC 5810 7070/18E2       00070 42910  2 4788.                  PIINT CODE=(RVR),EXA=GVAVLOC,ILEN=4,BACK=YES
 USING  PZERO,R1
 006402 B20B 0000                  42930  3          +
 006406 B20A 0000/18F2 00000       42931  3          +
 00640C 182E                       42933  3          +
 00640E D207 1028 7118 00028 00118 42934  3          +
 006414 D207 7118 1068 00118 00068 42935  3          +
 00641A 4000 108E            0008E 42936  3          +
 00641E D203 1090 D04C 00090 00004 42937  3          +
 006424 D201 108C A5A0 0008C 0689E 42938  3          +
 00642A 58E0 102C            0002C 42939  3          +
 00642E 4BE0 108C            0008C 42940  3          +
 006432 50E0 102C            0002C 42941  3          +
 006436 B20A F000      00000       42944  2          +
 DROP   PZERO,R1
 00643A 47F0 A238            06536 42953  2 4789.                  EXIT  DTSMF
 00643E                            42956  1 4790.                END   ,
                                   42960  1 4791.     *
                                   42961  1 4792.     *  Update location and lengths
                                   42962  1 4793.     *
 00643E 5810 D050            00008 42963  1 4794.                L     RS,GVAMLOC              Get MVS virtual address
 006442 5012 C050            00000 42964  1 4795.                ST    RS,SMFADDRS(RA)         Save location
 006446 5052 C054            00004 42965  1 4796.                ST    RK,SMFADDRS+4(RA)        and length
 00644A 1A45                       42966  1 4797.                AR    RJ,RK                   To next location
 00644C 1B35                       42967  1 4798.                SR    RB,RK                    reduce length remaining
 00644E 1233/47D0 A15E       0645C 42968  1 4799.                IF    (RB,NP),EXIT            All done
 006454 4120 2008            00008 42985  1 4800.                LA    RA,@RA+8                Reset index
 006458 47F0 A0CE            063CC 42986    4801.              END   ,
                                   42991    4802.     *
                                   42992    4803.     *  Mark end of list
                                   42993    4804.     *
 00645C 4122 C050            00000 42994    4805.              LA    RA,SMFADDRS(RA)         List pointer
 006460 9680 2000      00000       42995    4806.              SET   @RA.X'80'                Mark end
                                   43002    4807.     *
                                   43003    4808.     *  Get a buffer for the SMF record
                                   43004    4809.     *
 006464 5810 C09C            0004C 43005    4810.              L     RS,SMFULEN              User data length
 006468 4110 1014            00014 43006    4811.              LA    RS,@RS+L'SMFREC
 DROP   GVAPARM-72,R13             43007    4812.              MEMGET  @RS,TYPE=(LOCAL,BELOW16M)
 USING  @MEMGET-72,R13
 00646C D709 D048 D048 00000 00000 43029             +
 006472 4100 1000            00000 43036             +
 006476 5000 D04C            00004 43037             +
 00647A 9201 D051      00009       43044             +
 00647E 58F0 A58A/0DEF       06888 43047             +
 006484 1840                       43049    4813.              LR    RJ,RVR
 USING  SMFREC,R4                  43050    4814.              WITH  (SMFREC,RJ)
1GSTINTF  (GSTI00) (09:40) (22MAR04) IHAPSAE  - PSA Extension (ESAME)                                                       Page  222
0Current Usings:  (SMFREC,R4) (CPUB,R7) (DTSMF,R10) (INTERP-72,R12) (@MEMGET-72,R13)
0Loc    Object Code    Addr1 Addr2  Stmt Lv Lineno    Source Statement           (Hibal 5, Asmedit 3.3)  HLASM R4.0  2004/03/22 09.40
+___    ______ ____    _____ _____  ____ __ ______    ______ _________
0                                  43063    4815.     *
                                   43064    4816.     *  Set up record header
                                   43065    4817.     *
 006486 4110 5012            00012 43066    4818.              LA    RS,@RK+L'SMFHDR         Record length
 00648A 4010 4002            00002 43067    4819.              STH   RS,SMFLEN
 00648E D200 4007 C0A0 00007 00050 43068    4820.              MVC   SMFTYPE,SMFUNUM         Record number
                                   43069    4821.     *
                                   43070    4822.     *  Set date and time
                                   43071    4823.     *
 006494 4110 0001/0A0B       00001 43072    4824.              TIME  BIN                     Get info from MVS
 00649A 5010 400C            0000C 43076    4825.              ST    R1,SMFDATE              Set date
 00649E 5000 4008            00008 43077    4826.              ST    R0,SMFTIME               and time
                                   43078    4827.     *
                                   43079    4828.     *  Get SMF system Id
                                   43080    4829.     *
 0064A2 58F0 0010            00010 43081    4830.              L     R15,CVTPTR              CVT
 0064A6 58F0 F0C4            000C4 43082    4831.              WITH  (CVT,R15),'L  R15,CVTSMCA'      SMF info area
 USING  CVT,R15
 DROP   CVT,R15
 USING  SMCABASE,R15               43106    4832.              WITH  (SMCABASE,R15),'MVC  SMFSID,SMCASID'     Machine Id
 0064AA D203 4010 F010 00010 00010 43121             +
 DROP   SMCABASE,R15
                                   43130    4833.     *
                                   43131    4834.     *  Move the user supplied portion
                                   43132    4835.     *
 0064B0 4120 4014            00014 43133    4836.              LA    RA,SMFDATA              User data portion of record
 0064B4 4110 C050            00000 43134    4837.              LA    RS,SMFADDRS
 0064B8                            43135    4838.              LOOP  BEGIN
 0064B8 98EF 1000            00000 43141  1 4839.                LM    R14,R15,@RS
 0064BC 183F                       43142  1 4840.                LR    RB,R15                  Length of this portion
 0064BE 0E2E                       43143  1 4841.                MVCL  RA,R14                  Move this portion
 0064C0 9180 1000      00000       43144  1 4842.                IF    @RS.X'80',EXIT          End of list
 0064C4 4710 A1D2            064D0 43157  1          +
 0064C8 4110 1008            00008 43163  1 4843.                LA    RS,@RS+8                Next entry
 0064CC 47F0 A1BA            064B8 43164    4844.              END
                                   43169    4845.     *
                                   43170    4846.     *  Write the record
                                   43171    4847.     *
 0064D0 B20B 0000                  43172    4848.              MODESET EXTKEY=ZERO,SAVEKEY=(2)
 0064D4 B20A 0000      00000       43175             +
 0064D8 4150 4002            00002 43176    4849.              LA    RK,SMFLEN               Record location
 0064DC 58F0 0010            00010 43177    4850.              SMFEWTM  (RK),BRANCH=YES      Send it
 0064E0 58F0 F0C4/12FF       000C4 43179             +
 0064E6 47B0 A202            06500 43181             +
 0064EA 58F0 F07C/05EF       0007C 43182             +
 0064F0 6800/14/04                 43185             +
 0064F4 00000000                   43188             +
 0064F8 00000005                   43189             +
 0064FC 00000000                   43190             +
 006500 41F0 0010            00010 43192             +
 006504 B20A 2000      00000       43194    4851.              MODESET KEYADDR=(2)
                                   43197    4852.     *
                                   43198    4853.     *  Set the condition code from the SMF return code
                                   43199    4854.     *
1GSTINTF  (GSTI00) (09:40) (22MAR04) IHAPSAE  - PSA Extension (ESAME)                                                       Page  223
0Current Usings:  (SMFREC,R4) (CPUB,R7) (DTSMF,R10) (INTERP-72,R12) (@MEMGET-72,R13)
0Loc    Object Code    Addr1 Addr2  Stmt Lv Lineno    Source Statement           (Hibal 5, Asmedit 3.3)  HLASM R4.0  2004/03/22 09.40
+___    ______ ____    _____ _____  ____ __ ______    ______ _________
0006508 94CF 711A      0011A       43200    4855.              NI    SIEPSW+2,X'CF'          Assume ok - CC = zero
 00650C 12FF/4780 A218       06516 43201    4856.              IF    (R15,NZ),'OI  SIEPSW+2,X"30"'   Error - set CC = 3
 006512 9630 711A      0011A       43216             +
                                   43221    4857.     *
                                   43222    4858.     *  Release the buffer
                                   43223    4859.     *
 006516 5810 C09C            0004C 43224    4860.              L     RS,SMFULEN              User data length
 00651A 4110 1014            00014 43225    4861.              LA    RS,@RS+L'SMFREC
 DROP   @MEMGET-72,R13             43226    4862.              MEMFREE @RS,A=(RJ),TYPE=(LOCAL,BELOW16M)
 USING  @MEMFREE-72,R13
 00651E D709 D048 D048 00000 00000 43248             +
 006524 4100 1000            00000 43255             +
 006528 5000 D04C            00004 43256             +
 00652C 5040 D048            00000 43257             +
 006530 58F0 A58E/0DEF       0688C 43260             +
 006536 981F C008            00008 43262    4863.              PEND
 DROP   SMFREC,R4
 DROP   CPUB,R7
 DROP   INTERP-72,R12
 DROP   DTSMF,R10
 00653A 9680 C000/0B0E 00000       43287             +
 DROP   @MEMFREE-72,R13
1GSTINTF  (GSTI00) (09:40) (22MAR04) IHAPSAE  - PSA Extension (ESAME)                                                       Page  224
0Loc    Object Code    Addr1 Addr2  Stmt Lv Lineno    Source Statement           (Hibal 5, Asmedit 3.3)  HLASM R4.0  2004/03/22 09.40
+___    ______ ____    _____ _____  ____ __ ______    ______ _________
0                                  43297    4865.     *******************************************************************
                                   43298    4866.     *                                                                 *
                                   43299    4867.     *       MVEWORK -- MVS enqueue work area                          *
                                   43300    4868.     *                                                                 *
                                   43301    4869.     *******************************************************************
0000000                00000 0005C 43303    4871.     MVEWORK  RECORD BEGIN
 000000                            43311  1 4872.     MVERADD    DS    A                       Resource name address
 000004                            43312  1 4873.     MVERLEN    DS    A                        and Length
 000008                            43313  1 4874.     MVEQADD    DS    A                       Queue name address
 00000C                            43314  1 4875.     MVEOPTS    DS    A                       Options
 000010                            43315  1 4876.     MVERLOC    DS    2D                      Resource name real address
 000020                            43316  1 4877.     MVEQLOC    DS    2D                      Queue name real address
 000030                            43317  1 4878.     MVENAME    DS    CL44                    Rsource name
 00005C                0005C 0005C 43318    4879.              END   ,
-
                                   43328    4881.              COPY  MVSPARM
                                   43329             =*******************************************************************
                                   43330             =*                                                                 *
                                   43331             =*    @MVSENQ - MVS ENQ/DEQ parameter list                         *
                                   43332             =*                                                                 *
                                   43333             =*******************************************************************
0000000                00000 00011 43335             =@MVSENQ  RECORD BEGIN
 000000                            43343  1          =@MVNQRNM   DS    A                       RESOURCE NAME LOCATION
 000004                            43344  1          =@MVNQRNL   DS    A                       RESOURCE NAME LENGTH
 000008                            43345  1          =@MVNQQNM   DS    CL8                     QUEUE NAME
 000010 00                         43346  1          =@MVNQF     FLAG  ,
 @MVNQF.@MVNQENQ   80 ONES         43350  1          =           FLAG  @MVNQENQ                ENQUEUE OPERATION
 @MVNQF.@MVNQEXC   40 ONES         43355  1          =           FLAG  @MVNQEXC                NON-SHARED RESOURCE
 000011                00011 00011 43360             =         END   ,
1GSTINTF  (GSTI00) (09:40) (22MAR04) IHAPSAE  - PSA Extension (ESAME)                                                       Page  225
0Loc    Object Code    Addr1 Addr2  Stmt Lv Lineno    Source Statement           (Hibal 5, Asmedit 3.3)  HLASM R4.0  2004/03/22 09.40
+___    ______ ____    _____ _____  ____ __ ______    ______ _________
0                                  43370    4883.     *******************************************************************
                                   43371    4884.     *                                                                 *
                                   43372    4885.     *   DTENQ - This is a DIAGNOSE service routine.  It issues an     *
                                   43373    4886.     *           MVS ENQ or DEQ.  On entry r1 and r2 are each an       *
                                   43374    4887.     *           even-odd register pair which contain:                 *
                                   43375    4888.     *                 r1    Guest virtual address of resource name    *
                                   43376    4889.     *                 r1+1  Length of the resource name               *
                                   43377    4890.     *                 r2    Guest virtual address of queue name       *
                                   43378    4891.     *                 r2+1  Option bits                               *
                                   43379    4892.     *                       Bits  0-29  Reserved                      *
                                   43380    4893.     *                       Bit     30  Exclusive control request     *
                                   43381    4894.     *                       Bit     31  Enqueue request               *
                                   43382    4895.     *                                                                 *
                                   43383    4896.     *                                                                 *
                                   43384    4897.     *      Input - INTERP dsect                                       *
                                   43385    4898.     *                                                                 *
                                   43386    4899.     *     Output - none                                               *
                                   43387    4900.     *                                                                 *
                                   43388    4901.     *                                                                 *
                                   43389    4902.     *******************************************************************
-006540                            43391    4904.     DTENQ    PROC  INTERP,MVEWORK,SCOPE=LOCAL
 006540 C4E3C5D5D8404040           43396             +
 006548 0008/0060                  43397             +
 00654C 900F D004/18AF       00004 43399             +
 USING  DTENQ,R10
 006552 50D0 C000/18CD       00000 43414             +
 006558 9680 C000      00000       43416             +
 USING  INTERP-72,R12
 AUSING (MVEWORK,INTERP+8)
 00655C 41D0 C0B0            000B0 43435             +
 006560 5870 C048            00000 43436    4905.              L     RY,INTCPUB              Get the cpub address
 USING  CPUB,R7                    43437    4906.              WITH  (CPUB,RY)
                                   43450    4907.     *
                                   43451    4908.     *  Get parameter registers r1 and r1+1
                                   43452    4909.     *
 006564 4810 7156            00156 43453    4910.              LH    RS,SIEINST
 006568 8810 0004            00004 43454    4911.              SRL   RS,4                    Move r1 field to low order
 00656C 5410 A31C            06868 43455    4912.              N     RS,=X'0000000F'         Isolate the r1 field
 006570 4410 A3E8            06934 43456    4913.              IF    ('EX RS,"TM  =X'01',0"',NZ),BEGIN
 006934 9100 A354      068A0       43471             +
 006574 4780 A05E            065AA 43479             +
 006578 5810 7070/18E2       00070 43484  1 4914.                PIINT CODE=6,ILEN=4           Register not even
 USING  PZERO,R1
 00657E B20B 0000                  43504  2          +
 006582 B20A 0000/18F2 00000       43505  2          +
 006588 182E                       43507  2          +
 00658A D207 1028 7118 00028 00118 43508  2          +
 006590 D207 7118 1068 00118 00068 43509  2          +
 006596 D201 108E A350 0008E 0689C 43510  2          +
 00659C D201 108C A352 0008C 0689E 43511  2          +
 0065A2 B20A F000      00000       43514  1          +
 DROP   PZERO,R1
 0065A6 47F0 A30E            0685A 43523  1 4915.                EXIT  DTENQ
 0065AA                            43526    4916.              END
1GSTINTF  (GSTI00) (09:40) (22MAR04) IHAPSAE  - PSA Extension (ESAME)                                                       Page  226
0Current Usings:  (CPUB,R7) (DTENQ,R10) (INTERP-72,R12)
0Loc    Object Code    Addr1 Addr2  Stmt Lv Lineno    Source Statement           (Hibal 5, Asmedit 3.3)  HLASM R4.0  2004/03/22 09.40
+___    ______ ____    _____ _____  ____ __ ______    ______ _________
00065AA 5910 A320            0686C 43530    4917.              LREGA RS,(RS)                 Get the address of the reg
 0065AE 4720 A072            065BE 43536             +
 0065B2 4740 A07A            065C6 43537             +
 0065B6 4110 7110            00110 43538             +
 0065BA 47F0 A082            065CE 43539             +
 0065BE 4110 7114            00114 43540             +
 0065C2 47F0 A082            065CE 43541             +
 0065C6 8910 0002            00002 43542             +
 0065CA 4111 70BC            000BC 43543             +
 0065CE 98EF 1000            00000 43546    4918.              LM    R14,R15,@RS             r1 and r1+1
 0065D2 90EF C050            00000 43547    4919.              STM   R14,R15,MVERADD         Resource address and length
                                   43548    4920.     *
                                   43549    4921.     *  Validate user supplied length
                                   43550    4922.     *
 0065D6 12FF/47D0 A098       065E4 43551    4923.              IF    ((R15,NP),OR,(R15,GT,44)),BEGIN
 0065DC 59F0 A348            06894 43575             +
 0065E0 47D0 A0CA            06616 43576             +
 0065E4 5810 7070/18E2       00070 43581  1 4924.                PIINT CODE=6,ILEN=4           Length is not valid
 USING  PZERO,R1
 0065EA B20B 0000                  43601  2          +
 0065EE B20A 0000/18F2 00000       43602  2          +
 0065F4 182E                       43604  2          +
 0065F6 D207 1028 7118 00028 00118 43605  2          +
 0065FC D207 7118 1068 00118 00068 43606  2          +
 006602 D201 108E A350 0008E 0689C 43607  2          +
 006608 D201 108C A352 0008C 0689E 43608  2          +
 00660E B20A F000      00000       43611  1          +
 DROP   PZERO,R1
 006612 47F0 A30E            0685A 43620  1 4925.                EXIT  DTENQ
 006616                            43623    4926.              END   ,
                                   43627    4927.     *
                                   43628    4928.     *  Get parameter registers r2 and r2+1
                                   43629    4929.     *
 006616 4810 7156            00156 43630    4930.              LH    RS,SIEINST
 00661A 5410 A31C            06868 43631    4931.              N     RS,=X'0000000F'         Isolate the r2 field
 00661E 4410 A3EC            06938 43632    4932.              IF    ('EX RS,"TM  =X'01',0"',NZ),BEGIN
 006938 9100 A354      068A0       43647             +
 006622 4780 A10C            06658 43655             +
 006626 5810 7070/18E2       00070 43660  1 4933.                PIINT CODE=6,ILEN=4           Register not even
 USING  PZERO,R1
 00662C B20B 0000                  43680  2          +
 006630 B20A 0000/18F2 00000       43681  2          +
 006636 182E                       43683  2          +
 006638 D207 1028 7118 00028 00118 43684  2          +
 00663E D207 7118 1068 00118 00068 43685  2          +
 006644 D201 108E A350 0008E 0689C 43686  2          +
 00664A D201 108C A352 0008C 0689E 43687  2          +
 006650 B20A F000      00000       43690  1          +
 DROP   PZERO,R1
 006654 47F0 A30E            0685A 43699  1 4934.                EXIT  DTENQ
 006658                            43702    4935.              END
 006658 5910 A320            0686C 43706    4936.              LREGA RS,(RS)                 Get the address of the reg
 00665C 4720 A120            0666C 43712             +
 006660 4740 A128            06674 43713             +
1GSTINTF  (GSTI00) (09:40) (22MAR04) IHAPSAE  - PSA Extension (ESAME)                                                       Page  227
0Current Usings:  (CPUB,R7) (DTENQ,R10) (INTERP-72,R12)
0Loc    Object Code    Addr1 Addr2  Stmt Lv Lineno    Source Statement           (Hibal 5, Asmedit 3.3)  HLASM R4.0  2004/03/22 09.40
+___    ______ ____    _____ _____  ____ __ ______    ______ _________
0006664 4110 7110            00110 43714             +
 006668 47F0 A130            0667C 43715             +
 00666C 4110 7114            00114 43716             +
 006670 47F0 A130            0667C 43717             +
 006674 8910 0002            00002 43718             +
 006678 4111 70BC            000BC 43719             +
 00667C 98EF 1000            00000 43722    4937.              LM    R14,R15,@RS             r2 and r2+1
 006680 50E0 C058            00008 43723    4938.              ST    R14,MVEQADD             Queue name address
 006684 50F0 C05C            0000C 43724    4939.              ST    R15,MVEOPTS             Options
                                   43725    4940.     *
                                   43726    4941.     *  Check Resource name area - page by page
                                   43727    4942.     *
 006688 5840 C050            00000 43728    4943.              L     RJ,MVERADD              GET USER ADDRESS
 00668C 5830 C054            00004 43729    4944.              L     RB,MVERLEN               AND LENGTH
 006690 1B22                       43730    4945.              CLEAR RA                      CLEAR INDEX
 006692                            43734    4946.              LOOP  BEGIN
 006692 5850 A328            06874 43740  1 4947.                L     RK,=A(4096)             Calculate
 006696 1E54                       43741  1 4948.                ALR   RK,RJ
 006698 5450 A32C            06878 43742  1 4949.                N     RK,=X'7FFFF000'          Length on
 00669C 1B54                       43743  1 4950.                SR    RK,RJ                     this page
 00669E 1953/47D0 A15A       066A6 43744  1 4951.                CEIL  RK,RB                   Not more than total
 0066A4 1853                       43749  1          +
                                   43750  1 4952.     *
                                   43751  1 4953.     *  Validate user area
                                   43752  1 4954.     *
 USING  GVAPARM-72,R13             43753  1 4955.                PSET  GVAPARM
 0066A6 D70B D048 D048 00000 00000 43770  1          +
 0066AC 5070 D048            00000 43771  1 4956.                ST    RY,GVACPUB              Set the CPUB pointer
 0066B0 5040 D04C            00004 43772  1 4957.                ST    RJ,GVAVLOC               Location
 0066B4 58F0 A330/0DEF       0687C 43773  1 4958.                ACALL GVA
                                   43780  1 4959.     *
                                   43781  1 4960.     *  Area not in memory - cause a page fault
                                   43782  1 4961.     *
 0066BA 5900 A334            06880 43783  1 4962.                IF    (RVR,GT,4),BEGIN        Not currently in memory
 0066BE 47D0 A1B8            06704 43795  1          +
 0066C2 5810 7070/18E2       00070 43800  2 4963.                  PIINT CODE=(RVR),EXA=GVAVLOC,ILEN=4,BACK=YES
 USING  PZERO,R1
 0066C8 B20B 0000                  43820  3          +
 0066CC B20A 0000/18F2 00000       43821  3          +
 0066D2 182E                       43823  3          +
 0066D4 D207 1028 7118 00028 00118 43824  3          +
 0066DA D207 7118 1068 00118 00068 43825  3          +
 0066E0 4000 108E            0008E 43826  3          +
 0066E4 D203 1090 D04C 00090 00004 43827  3          +
 0066EA D201 108C A352 0008C 0689E 43828  3          +
 0066F0 58E0 102C            0002C 43829  3          +
 0066F4 4BE0 108C            0008C 43830  3          +
 0066F8 50E0 102C            0002C 43831  3          +
 0066FC B20A F000      00000       43834  2          +
 DROP   PZERO,R1
 006700 47F0 A30E            0685A 43843  2 4964.                  EXIT  DTENQ
 006704                            43846  1 4965.                END   ,
                                   43850  1 4966.     *
                                   43851  1 4967.     *  Save real locations and lengths
1GSTINTF  (GSTI00) (09:40) (22MAR04) IHAPSAE  - PSA Extension (ESAME)                                                       Page  228
0Current Usings:  (CPUB,R7) (DTENQ,R10) (INTERP-72,R12) (GVAPARM-72,R13)
0Loc    Object Code    Addr1 Addr2  Stmt Lv Lineno    Source Statement           (Hibal 5, Asmedit 3.3)  HLASM R4.0  2004/03/22 09.40
+___    ______ ____    _____ _____  ____ __ ______    ______ _________
0                                  43852  1 4968.     *
 006704 5810 D050            00008 43853  1 4969.                L     RS,GVAMLOC              Get MVS virtual address
 006708 5012 C060            00010 43854  1 4970.                ST    RS,MVERLOC(RA)          Save location
 00670C 5052 C064            00014 43855  1 4971.                ST    RK,MVERLOC+4(RA)         and length
 006710 1A45                       43856  1 4972.                AR    RJ,RK                   To next location
 006712 1B35                       43857  1 4973.                SR    RB,RK                    reduce length remaining
 006714 1233/47D0 A1D6       06722 43858  1 4974.                IF    (RB,NP),EXIT            All done
 00671A 4120 2008            00008 43875  1 4975.                LA    RA,@RA+8                Reset index
 00671E 47F0 A146            06692 43876    4976.              END   ,
                                   43881    4977.     *
                                   43882    4978.     *  Mark end of list
                                   43883    4979.     *
 006722 4122 C060            00010 43884    4980.              LA    RA,MVERLOC(RA)          List pointer
 006726 9680 2000      00000       43885    4981.              SET   @RA.X'80'                Mark end
                                   43892    4982.     *
                                   43893    4983.     *  Check Queue name area - page by page
                                   43894    4984.     *
 00672A 5840 C058            00008 43895    4985.              L     RJ,MVEQADD              GET USER ADDRESS
 00672E 4130 0008            00008 43896    4986.              LA    RB,8                     AND LENGTH
 006732 1B22                       43897    4987.              CLEAR RA                      CLEAR INDEX
 006734                            43901    4988.              LOOP  BEGIN
 006734 5850 A328            06874 43907  1 4989.                L     RK,=A(4096)             Calculate
 006738 1E54                       43908  1 4990.                ALR   RK,RJ
 00673A 5450 A32C            06878 43909  1 4991.                N     RK,=X'7FFFF000'          Length on
 00673E 1B54                       43910  1 4992.                SR    RK,RJ                     this page
 006740 1953/47D0 A1FC       06748 43911  1 4993.                CEIL  RK,RB                   Not more than total
 006746 1853                       43916  1          +
                                   43917  1 4994.     *
                                   43918  1 4995.     *  Validate user area
                                   43919  1 4996.     *
 006748                            43920  1 4997.                PSET  GVAPARM
 006748 D70B D048 D048 00000 00000 43930  1          +
 00674E 5070 D048            00000 43931  1 4998.                ST    RY,GVACPUB              Set the CPUB pointer
 006752 5040 D04C            00004 43932  1 4999.                ST    RJ,GVAVLOC               Location
 006756 58F0 A330/0DEF       0687C 43933  1 5000.                ACALL GVA
                                   43940  1 5001.     *
                                   43941  1 5002.     *  Area not in memory - cause a page fault
                                   43942  1 5003.     *
 00675C 5900 A334            06880 43943  1 5004.                IF    (RVR,GT,4),BEGIN        Not currently in memory
 006760 47D0 A25A            067A6 43955  1          +
 006764 5810 7070/18E2       00070 43960  2 5005.                  PIINT CODE=(RVR),EXA=GVAVLOC,ILEN=4,BACK=YES
 USING  PZERO,R1
 00676A B20B 0000                  43980  3          +
 00676E B20A 0000/18F2 00000       43981  3          +
 006774 182E                       43983  3          +
 006776 D207 1028 7118 00028 00118 43984  3          +
 00677C D207 7118 1068 00118 00068 43985  3          +
 006782 4000 108E            0008E 43986  3          +
 006786 D203 1090 D04C 00090 00004 43987  3          +
 00678C D201 108C A352 0008C 0689E 43988  3          +
 006792 58E0 102C            0002C 43989  3          +
 006796 4BE0 108C            0008C 43990  3          +
 00679A 50E0 102C            0002C 43991  3          +
 00679E B20A F000      00000       43994  2          +
1GSTINTF  (GSTI00) (09:40) (22MAR04) IHAPSAE  - PSA Extension (ESAME)                                                       Page  229
0Current Usings:  (CPUB,R7) (DTENQ,R10) (INTERP-72,R12) (GVAPARM-72,R13)
0Loc    Object Code    Addr1 Addr2  Stmt Lv Lineno    Source Statement           (Hibal 5, Asmedit 3.3)  HLASM R4.0  2004/03/22 09.40
+___    ______ ____    _____ _____  ____ __ ______    ______ _________
0DROP   PZERO,R1
 0067A2 47F0 A30E            0685A 44003  2 5006.                  EXIT  DTENQ
 0067A6                            44006  1 5007.                END   ,
                                   44010  1 5008.     *
                                   44011  1 5009.     *  Save real locations and lengths
                                   44012  1 5010.     *
 0067A6 5810 D050            00008 44013  1 5011.                L     RS,GVAMLOC              Get MVS virtual address
 0067AA 5012 C070            00020 44014  1 5012.                ST    RS,MVEQLOC(RA)          Save location
 0067AE 5052 C074            00024 44015  1 5013.                ST    RK,MVEQLOC+4(RA)         and length
 0067B2 1A45                       44016  1 5014.                AR    RJ,RK                   To next location
 0067B4 1B35                       44017  1 5015.                SR    RB,RK                    reduce length remaining
 0067B6 1233/47D0 A278       067C4 44018  1 5016.                IF    (RB,NP),EXIT            All done
 0067BC 4120 2008            00008 44035  1 5017.                LA    RA,@RA+8                Reset index
 0067C0 47F0 A1E8            06734 44036    5018.              END   ,
                                   44041    5019.     *
                                   44042    5020.     *  Mark end of list
                                   44043    5021.     *
 0067C4 4122 C070            00020 44044    5022.              LA    RA,MVEQLOC(RA)          List pointer
 0067C8 9680 2000      00000       44045    5023.              SET   @RA.X'80'                Mark end
                                   44052    5024.     *
                                   44053    5025.     *  Move resource name to work area
                                   44054    5026.     *
 DROP   GVAPARM-72,R13             44055    5027.              PSET  @MVSENQ
 USING  @MVSENQ-72,R13
 0067CC D710 D048 D048 00000 00000 44075             +
 0067D2 4120 C080            00030 44076    5028.              LA    RA,MVENAME
 0067D6 4110 C060            00010 44077    5029.              LA    RS,MVERLOC
 0067DA                            44078    5030.              LOOP  BEGIN
 0067DA 98EF 1000            00000 44084  1 5031.                LM    R14,R15,@RS
 0067DE 183F                       44085  1 5032.                LR    RB,R15                  Length of this portion
 0067E0 0E2E                       44086  1 5033.                MVCL  RA,R14                  Move this portion
 0067E2 9180 1000      00000       44087  1 5034.                IF    @RS.X'80',EXIT          End of list
 0067E6 4710 A2A6            067F2 44100  1          +
 0067EA 4110 1008            00008 44106  1 5035.                LA    RS,@RS+8                Next entry
 0067EE 47F0 A28E            067DA 44107    5036.              END   ,
                                   44112    5037.     *
                                   44113    5038.     *  Move queue name to MVS ENQUEUE service parameter list
                                   44114    5039.     *
 0067F2                            44115    5040.              PSET  @MVSENQ
 0067F2 D710 D048 D048 00000 00000 44125             +
 0067F8 4120 D050            00008 44126    5041.              LA    RA,@MVNQQNM
 0067FC 4110 C070            00020 44127    5042.              LA    RS,MVEQLOC
 006800                            44128    5043.              LOOP  BEGIN
 006800 98EF 1000            00000 44134  1 5044.                LM    R14,R15,@RS
 006804 183F                       44135  1 5045.                LR    RB,R15                  Length of this portion
 006806 0E2E                       44136  1 5046.                MVCL  RA,R14                  Move this portion
 006808 9180 1000      00000       44137  1 5047.                IF    @RS.X'80',EXIT          End of list
 00680C 4710 A2CC            06818 44150  1          +
 006810 4110 1008            00008 44156  1 5048.                LA    RS,@RS+8                Next entry
 006814 47F0 A2B4            06800 44157    5049.              END   ,
                                   44162    5050.     *
                                   44163    5051.     *  Set options and call service routine
                                   44164    5052.     *
 006818 4110 C080            00030 44165    5053.              LA    RS,MVENAME              Name pointer
1GSTINTF  (GSTI00) (09:40) (22MAR04) IHAPSAE  - PSA Extension (ESAME)                                                       Page  230
0Current Usings:  (CPUB,R7) (DTENQ,R10) (INTERP-72,R12) (@MVSENQ-72,R13)
0Loc    Object Code    Addr1 Addr2  Stmt Lv Lineno    Source Statement           (Hibal 5, Asmedit 3.3)  HLASM R4.0  2004/03/22 09.40
+___    ______ ____    _____ _____  ____ __ ______    ______ _________
000681C 5010 D048            00000 44166    5054.              ST    RS,@MVNQRNM              to parameter list
 006820 D203 D04C C054 00004 00004 44167    5055.              MVC   @MVNQRNL,MVERLEN        Name length
 006826 9101 C05F      0000F       44168    5056.              IF    MVEOPTS+3.X'01','SET  @MVNQENQ'   MARK ENQUEUE
 00682A 47E0 A2E6            06832 44179             +
 00682E 9680 D058      00010       44190             +
 006832 9102 C05F      0000F       44195    5057.              IF    MVEOPTS+3.X'02','SET  @MVNQEXC'   MARK EXCLUSIVE
 006836 47E0 A2F2            0683E 44206             +
 00683A 9640 D058      00010       44217             +
 00683E 58F0 A34C/0DEF       06898 44222    5058.              VCALL MVSENQ                  GO DO IT
                                   44226    5059.     *
                                   44227    5060.     *  SET CONDITION CODE
                                   44228    5061.     *
 006844 94CF 711A      0011A       44229    5062.              NI    SIEPSW+2,X'CF'          Clear the CC
 006848 1200/4780 A30E       0685A 44230    5063.              IF    (RVR,NZ),BEGIN
 00684E B222 0010                  44244  1 5064.                IPM   RS                      Return code
 006852 8810 0018            00018 44245  1 5065.                SRL   RS,24                    To low byte
 006856 4410 A3F0            0693C 44246  1 5066.                EX    RS,'OI  SIEPSW+2,0'     Set new CC
 00693C 9600 711A      0011A       44254  1          +
 00685A                            44262    5067.              END   ,
 00685A 981F C008            00008 44266    5068.              PEND
 DROP   CPUB,R7
 DROP   INTERP-72,R12
 DROP   DTENQ,R10
 00685E 9680 C000/0B0E 00000       44286             +
 DROP   @MVSENQ-72,R13
1GSTINTF  (GSTI00) (09:40) (22MAR04) IHAPSAE  - PSA Extension (ESAME)                                                       Page  231
0Loc    Object Code    Addr1 Addr2  Stmt Lv Lineno    Source Statement           (Hibal 5, Asmedit 3.3)  HLASM R4.0  2004/03/22 09.40
+___    ______ ____    _____ _____  ____ __ ______    ______ _________
0006868                            44296    5070.              LTORG
 006868 0000000F                   44298                             =X'0000000F'
 00686C 0000000E                   44299                             =F'14'
 006870 7FFFF000                   44300                             =A(X'7FFFF000')
 006874 00001000                   44301                             =A(4096)
 006878 7FFFF000                   44302                             =X'7FFFF000'
 00687C 00005180                   44303                             =A(GVA)
 006880 00000004                   44304                             =A(4)
 006884 00000100                   44305                             =A(256)
 006888 00000000                   44306                             =V(MEMGET)
 00688C 00000000                   44307                             =V(MEMFREE)
 006890 00008000                   44308                             =A(32768)
 006894 0000002C                   44309                             =A(44)
 006898 00000000                   44310                             =V(MVSENQ)
 00689C 0006                       44311                             =Y(6)
 00689E 0004                       44312                             =Y(4)
 0068A0 01                         44313                             =X'01'
 0068A1 07             06940 08402 44314                             =X'07'
1GSTINTF  (GSTI00) (09:40) (22MAR04) IHAPSAE  - PSA Extension (ESAME)                                                       Page  232
0Loc    Object Code    Addr1 Addr2  Stmt Lv Lineno    Source Statement           (Hibal 5, Asmedit 3.3)  HLASM R4.0  2004/03/22 09.40
+___    ______ ____    _____ _____  ____ __ ______    ______ _________
0                                  44319    5072.     *******************************************************************
                                   44320    5073.     *                                                                 *
                                   44321    5074.     *  DTPARM - This is a DIAGNOSE service routine.  It returns the   *
                                   44322    5075.     *           value of a keyword parameter from the init file.      *
                                   44323    5076.     *           On entry r1 and r2 are each an                        *
                                   44324    5077.     *           even-odd register pair which contain:                 *
                                   44325    5078.     *                 r1    Guest virtual address of return area      *
                                   44326    5079.     *                 r1+1  Length of return area (strings must be at *
                                   44327    5080.     *                       least 5 bytes, 4 bytes for VB record RDW  *
                                   44328    5081.     *                       and 1 byte minimum of data area)          *
                                   44329    5082.     *                 r2    Guest virtual address of input parameters *
                                   44330    5083.     *                 r2+1  Length of parameters (fixed length + 8    *
                                   44331    5084.     *                       bytes each keyword, padded with blanks)   *
                                   44332    5085.     *                                                                 *
                                   44333    5086.     *      Input - INTERP dsect                                       *
                                   44334    5087.     *                                                                 *
                                   44335    5088.     *     Output - none                                               *
                                   44336    5089.     *                                                                 *
                                   44337    5090.     *                                                                 *
                                   44338    5091.     *******************************************************************
-000000                00000 00024 44340    5093.     PARWORK  RECORD BEGIN
 000000                            44348  1 5094.     PARILOC    DS    A                       Input parameters - loc
 000004                            44349  1 5095.     PARILEN    DS    A                       | len
 000008                            44350  1 5096.     PAROLOC    DS    A                       Output parameters - loc
 00000C                            44351  1 5097.     PAROLEN    DS    A                       | len
 000010                            44352  1 5098.     PARAREA    DS    A                       Pointer to input/output areas
 000014                            44353  1 5099.     PARIHLOC   DS    A                       Input parameters - Host
 000018                            44354  1 5100.     PAROHLOC   DS    A                       Output parameters - Host
 00001C                            44355  1 5101.     PARR1      DS    A                       Register r1 addr
 000020                            44356  1 5102.     PARR2      DS    A                       Register r2 addr
 000024                00024 00024 44357    5103.              END   ,
0006940                            44367    5105.     DTPARM   PROC  INTERP,PARWORK,SCOPE=LOCAL
 006940 C4E3D7C1D9D44040           44372             +
 006948 0008/0028                  44373             +
 00694C 900F D004/18AF       00004 44375             +
 USING  DTPARM,R10
 006952 50D0 C000/18CD       00000 44390             +
 006958 9680 C000      00000       44392             +
 USING  INTERP-72,R12
 AUSING (PARWORK,INTERP+8)
 00695C 41D0 C078            00078 44411             +
 006960 5870 C048            00000 44412    5106.              L     RY,INTCPUB              Get the cpub address
 USING  CPUB,R7                    44413    5107.              WITH  (CPUB,RY)
                                   44426    5108.     *
                                   44427    5109.     *  Get parameter registers r1 and r1+1
                                   44428    5110.     *
 006964 4810 7156            00156 44429    5111.              LH    RS,SIEINST
 006968 8810 0004            00004 44430    5112.              SRL   RS,4                    Move r1 field to low order
 00696C 5410 A954            072A0 44431    5113.              N     RS,=X'0000000F'         Isolate the r1 field
 006970 4410 A98C            072D8 44432    5114.              IF    ('EX RS,"TM  =X'01',0"',NZ),BEGIN
 0072D7 00/9100 A98A   072D6                         +
 006974 4780 A05E            069AA 44455             +
 006978 5810 7070/18E2       00070 44460  1 5115.                PIINT CODE=6,ILEN=4           Register not even
1GSTINTF  (GSTI00) (09:40) (22MAR04) IHAPSAE  - PSA Extension (ESAME)                                                       Page  233
0Current Usings:  (PZERO,R1) (CPUB,R7) (DTPARM,R10) (INTERP-72,R12)
0Loc    Object Code    Addr1 Addr2  Stmt Lv Lineno    Source Statement           (Hibal 5, Asmedit 3.3)  HLASM R4.0  2004/03/22 09.40
+___    ______ ____    _____ _____  ____ __ ______    ______ _________
0USING  PZERO,R1
 00697E B20B 0000                  44480  2          +
 006982 B20A 0000/18F2 00000       44481  2          +
 006988 182E                       44483  2          +
 00698A D207 1028 7118 00028 00118 44484  2          +
 006990 D207 7118 1068 00118 00068 44485  2          +
 006996 D201 108E A984 0008E 072D0 44486  2          +
 00699C D201 108C A986 0008C 072D2 44487  2          +
 0069A2 B20A F000      00000       44490  1          +
 DROP   PZERO,R1
 0069A6 47F0 A396            06CE2 44499  1 5116.                EXIT  DTPARM
 0069AA                            44502    5117.              END
 0069AA 5910 A958            072A4 44506    5118.              LREGA RS,(RS)                 Get the address of the reg
 0069AE 4720 A072            069BE 44512             +
 0069B2 4740 A07A            069C6 44513             +
 0069B6 4110 7110            00110 44514             +
 0069BA 47F0 A082            069CE 44515             +
 0069BE 4110 7114            00114 44516             +
 0069C2 47F0 A082            069CE 44517             +
 0069C6 8910 0002            00002 44518             +
 0069CA 4111 70BC            000BC 44519             +
 0069CE 98EF 1000            00000 44522    5119.              LM    R14,R15,@RS             r1 and r1+1
 0069D2 90EF C058            00008 44523    5120.              STM   R14,R15,PAROLOC         Return location/len
                                   44524    5121.     *
                                   44525    5122.     *  Get parameter registers r2 and r2+1
                                   44526    5123.     *
 0069D6 4810 7156            00156 44527    5124.              LH    RS,SIEINST
 0069DA 5410 A954            072A0 44528    5125.              N     RS,=X'0000000F'         Isolate the r2 field
 0069DE 4410 A990            072DC 44529    5126.              IF    ('EX RS,"TM  =X'01',0"',NZ),BEGIN
 0072DC 9100 A98A      072D6       44544             +
 0069E2 4780 A0CC            06A18 44552             +
 0069E6 5810 7070/18E2       00070 44557  1 5127.                PIINT CODE=6,ILEN=4           Register not even
 USING  PZERO,R1
 0069EC B20B 0000                  44577  2          +
 0069F0 B20A 0000/18F2 00000       44578  2          +
 0069F6 182E                       44580  2          +
 0069F8 D207 1028 7118 00028 00118 44581  2          +
 0069FE D207 7118 1068 00118 00068 44582  2          +
 006A04 D201 108E A984 0008E 072D0 44583  2          +
 006A0A D201 108C A986 0008C 072D2 44584  2          +
 006A10 B20A F000      00000       44587  1          +
 DROP   PZERO,R1
 006A14 47F0 A396            06CE2 44596  1 5128.                EXIT  DTPARM
 006A18                            44599    5129.              END
 006A18 5910 A958            072A4 44603    5130.              LREGA RS,(RS)                 Get the address of the reg
 006A1C 4720 A0E0            06A2C 44609             +
 006A20 4740 A0E8            06A34 44610             +
 006A24 4110 7110            00110 44611             +
 006A28 47F0 A0F0            06A3C 44612             +
 006A2C 4110 7114            00114 44613             +
 006A30 47F0 A0F0            06A3C 44614             +
 006A34 8910 0002            00002 44615             +
 006A38 4111 70BC            000BC 44616             +
 006A3C 98EF 1000            00000 44619    5131.              LM    R14,R15,@RS             r2 and r2+1
1GSTINTF  (GSTI00) (09:40) (22MAR04) IHAPSAE  - PSA Extension (ESAME)                                                       Page  234
0Current Usings:  (CPUB,R7) (DTPARM,R10) (INTERP-72,R12)
0Loc    Object Code    Addr1 Addr2  Stmt Lv Lineno    Source Statement           (Hibal 5, Asmedit 3.3)  HLASM R4.0  2004/03/22 09.40
+___    ______ ____    _____ _____  ____ __ ______    ______ _________
0006A40 90EF C050            00000 44620    5132.              STM   R14,R15,PARILOC         Input location/len
                                   44621    5133.
 006A44 4150 C050            00000 44622    5134.              LA    RK,PARILOC
 006A48 5050 C060            00010 44623    5135.              ST    RK,PARAREA
 006A4C                            44624    5136.              LOOP  BEGIN                   Bring parm areas in core
 006A4C 5850 C060            00010 44630  1 5137.                L     RK,PARAREA
                                   44631  1 5138.     *
                                   44632  1 5139.     *  Make sure input and output areas are in core
                                   44633  1 5140.     *
 006A50 9823 5000            00000 44634  1 5141.                LM    RA,RB,@RK
 006A54 1233/47D0 A1D4       06B20 44635  1 5142.                WHILE (RB,POS),BEGIN          Bring in all of area
 006A5A 5850 A95C            072A8 44651  2 5143.                  L     RK,=A(4096)             Calculate
 006A5E 1A52                       44652  2 5144.                  AR    RK,RA
 006A60 5450 A960            072AC 44653  2 5145.                  N     RK,=X'7FFFF000'          Length on
 006A64 1B52                       44654  2 5146.                  SR    RK,RA                     First page
 006A66 1953/47D0 A122       06A6E 44655  2 5147.                  CEIL  RK,RB                   Not more than wanted
 006A6C 1853                       44660  2          +
                                   44661  2 5148.     *
                                   44662  2 5149.     *  Validate user area
                                   44663  2 5150.     *
 USING  GVAPARM-72,R13             44664  2 5151.                  PSET  GVAPARM
 006A6E D70B D048 D048 00000 00000 44681  2          +
 006A74 5070 D048            00000 44682  2 5152.                  ST    RY,GVACPUB              Set the CPUB pointer
 006A78 5020 D04C            00004 44683  2 5153.                  ST    RA,GVAVLOC               Location
 006A7C 58F0 A964/0DEF       072B0 44684  2 5154.                  ACALL GVA
                                   44691  2 5155.     *
                                   44692  2 5156.     *  Area not in memory - cause a page fault
                                   44693  2 5157.     *
 006A82 5900 A968            072B4 44694  2 5158.                  IF    (RVR,GT,4),BEGIN        Not currently in memory
 006A86 47D0 A180            06ACC 44706  2          +
 006A8A 5810 7070/18E2       00070 44711  3 5159.                    PIINT CODE=(RVR),EXA=GVAVLOC,ILEN=4,BACK=YES
 USING  PZERO,R1
 006A90 B20B 0000                  44731  4          +
 006A94 B20A 0000/18F2 00000       44732  4          +
 006A9A 182E                       44734  4          +
 006A9C D207 1028 7118 00028 00118 44735  4          +
 006AA2 D207 7118 1068 00118 00068 44736  4          +
 006AA8 4000 108E            0008E 44737  4          +
 006AAC D203 1090 D04C 00090 00004 44738  4          +
 006AB2 D201 108C A986 0008C 072D2 44739  4          +
 006AB8 58E0 102C            0002C 44740  4          +
 006ABC 4BE0 108C            0008C 44741  4          +
 006AC0 50E0 102C            0002C 44742  4          +
 006AC4 B20A F000      00000       44745  3          +
 DROP   PZERO,R1
 006AC8 47F0 A396            06CE2 44754  3 5160.                    EXIT  DTPARM
 006ACC                            44757  2 5161.                  END   ,
 006ACC 5840 C060            00010 44761  2 5162.                  L     RJ,PARAREA
 006AD0 41F0 C058            00008 44762  2 5163.                  LA    EPAR,PAROLOC
 006AD4 194F/4770 A1CA       06B16 44763  2 5164.                  IF    (RJ,EQ,EPAR),BEGIN      Check output area for write
                                   44778  3 5165.     *
                                   44779  3 5166.     *  Area may not be written - cause protection error
                                   44780  3 5167.     *
 006ADA 1200/4780 A1CA       06B16 44781  3 5168.                    IF    (RVR,NZ),BEGIN          Not valid location
1GSTINTF  (GSTI00) (09:40) (22MAR04) IHAPSAE  - PSA Extension (ESAME)                                                       Page  235
0Current Usings:  (PZERO,R1) (CPUB,R7) (DTPARM,R10) (INTERP-72,R12) (GVAPARM-72,R13)
0Loc    Object Code    Addr1 Addr2  Stmt Lv Lineno    Source Statement           (Hibal 5, Asmedit 3.3)  HLASM R4.0  2004/03/22 09.40
+___    ______ ____    _____ _____  ____ __ ______    ______ _________
0006AE0 5810 7070/18E2       00070 44795  4 5169.                      PIINT CODE=(RVR),EXA=GVAVLOC,ILEN=4
 USING  PZERO,R1
 006AE6 B20B 0000                  44815  5          +
 006AEA B20A 0000/18F2 00000       44816  5          +
 006AF0 182E                       44818  5          +
 006AF2 D207 1028 7118 00028 00118 44819  5          +
 006AF8 D207 7118 1068 00118 00068 44820  5          +
 006AFE 4000 108E            0008E 44821  5          +
 006B02 D203 1090 D04C 00090 00004 44822  5          +
 006B08 D201 108C A986 0008C 072D2 44823  5          +
 006B0E B20A F000      00000       44826  4          +
 DROP   PZERO,R1
 006B12 47F0 A396            06CE2 44835  4 5170.                      EXIT  DTPARM
 006B16                            44838  3 5171.                    END   ,
 006B16                            44842  2 5172.                  END   ,                       OF Check output area for write
                                   44846  2 5173.     *
                                   44847  2 5174.     *  Update remaining count
                                   44848  2 5175.     *
 006B16 4125 2000            00000 44849  2 5176.                  LA    RA,@RA(RK)              Next location
 006B1A 1B35                       44850  2 5177.                  SR    RB,RK                   Remaining length
 006B1C 47F0 A108            06A54 44851  1 5178.                END   ,                       OF Bring in all of area
                                   44856  1 5179.
 006B20 5850 C060            00010 44857  1 5180.                L     RK,PARAREA
 006B24 4150 5008            00008 44858  1 5181.                LA    RK,@RK+8
 006B28 5050 C060            00010 44859  1 5182.                ST    RK,PARAREA
 006B2C 4140 C058            00008 44860  1 5183.                LA    RJ,PAROLOC
 006B30 1954/47D0 A100       06A4C 44861    5184.              UNTIL (RK,GT,RJ),END          OF Bring parm areas in core
                                   44884    5185.     *
                                   44885    5186.     *  Move input area to buffer
                                   44886    5187.     *
 DROP   GVAPARM-72,R13             44887    5188.              MEMGET L:PARILEN,TYPE=GLOBAL
 USING  @MEMGET-72,R13
 006B36 D709 D048 D048 00000 00000 44909             +
 006B3C 5800 C054            00004 44914             +
 006B40 5000 D04C            00004 44915             +
 006B44 9213 D051      00009       44929             +
 006B48 58F0 A96C/0DEF       072B8 44932             +
 006B4E 1840                       44934    5189.              LR    RJ,RVR
 006B50 5040 C064            00014 44935    5190.              ST    RJ,PARIHLOC             Save contig memory addr
                                   44936    5191.     *
                                   44937    5192.     *  Move input to contig buffer
 006B54 5860 C050            00000 44938    5193.              L     RX,PARILOC              Guest VA
 006B58 5810 C054            00004 44939    5194.              L     RS,PARILEN              | length
 006B5C 5840 C064            00014 44940    5195.              L     RJ,PARIHLOC             Host VA
 006B60                            44941    5196.              LOOP  BEGIN                   Copy across page bndrys
 DROP   @MEMGET-72,R13             44947  1 5197.                PSET  GVAPARM                 Get Host VA of guest area
 USING  GVAPARM-72,R13
 006B60 D70B D048 D048 00000 00000 44967  1          +
 006B66 5070 D048            00000 44968  1 5198.                ST    RY,GVACPUB              |
 006B6A 5060 D04C            00004 44969  1 5199.                ST    RX,GVAVLOC              |
 006B6E 58F0 A964/0DEF       072B0 44970  1 5200.                ACALL GVA                     |
 006B74 5820 D050            00008 44977  1 5201.                L     RA,GVAMLOC              |
 006B78 1852                       44978  1 5202.                LR    RK,RA                   Length on this page
 006B7A 5E50 A95C            072A8 44979  1 5203.                AL    RK,=A(4096)             |
1GSTINTF  (GSTI00) (09:40) (22MAR04) IHAPSAE  - PSA Extension (ESAME)                                                       Page  236
0Current Usings:  (CPUB,R7) (DTPARM,R10) (INTERP-72,R12) (GVAPARM-72,R13)
0Loc    Object Code    Addr1 Addr2  Stmt Lv Lineno    Source Statement           (Hibal 5, Asmedit 3.3)  HLASM R4.0  2004/03/22 09.40
+___    ______ ____    _____ _____  ____ __ ______    ______ _________
0006B7E 5450 A960            072AC 44980  1 5204.                N     RK,=X'7FFFF000'         |
 006B82 1B52                       44981  1 5205.                SR    RK,RA                   |
 006B84 1951/47D0 A240       06B8C 44982  1 5206.                CEIL  RK,RS                   | not more than total
 006B8A 1851                       44987  1          +
 006B8C 1E65                       44988  1 5207.                ALR   RX,RK                   Next guest VA
 006B8E 1B15                       44989  1 5208.                SR    RS,RK                   Remaining length
 006B90 1835                       44990  1 5209.                LR    RB,RK
                                   44991  1 5210.
                                   44992  1 5211.                REGCH (RA,R2)
 006B92 B20B 0000                  44993  1 5212.                MODESET EXTKEY=ZERO,SAVEKEY=(2)  get into key zero
 006B96 B20A 0000      00000       44996  1          +
 006B9A 18F2                       44997  1 5213.                LR    EPAR,RA                 Save key
 006B9C 5820 D050            00008 44998  1 5214.                L     RA,GVAMLOC              Source address - GUEST
 006BA0 0E42                       44999  1 5215.                MVCL  RJ,RA
 006BA2 182F                       45000  1 5216.                LR    RA,EPAR
 006BA4 B20A 2000      00000       45001  1 5217.                MODESET KEYADDR=(2)
                                   45004  1 5218.
 006BA8 1211/4770 A214       06B60 45005    5219.              UNTIL (RS,ZERO),END           OF Copy across page bndrys
                                   45027    5220.     *
 DROP   GVAPARM-72,R13             45028    5221.              MEMGET L:PAROLEN,TYPE=GLOBAL
 USING  @MEMGET-72,R13
 006BAE D709 D048 D048 00000 00000 45050             +
 006BB4 5800 C05C            0000C 45055             +
 006BB8 5000 D04C            00004 45056             +
 006BBC 9213 D051      00009       45070             +
 006BC0 58F0 A96C/0DEF       072B8 45073             +
 006BC6 1850                       45075    5222.              LR    RK,RVR
 006BC8 5050 C068            00018 45076    5223.              ST    RK,PAROHLOC             Save contig memory addr
                                   45077    5224.     *
                                   45078    5225.     *  Call parameter routines
                                   45079    5226.     *
 DROP   @MEMGET-72,R13             45080    5227.              PSET  @PARMDO
 USING  @PARMDO-72,R13
 006BCC D70F D048 D048 00000 00000 45100             +
 006BD2 5860 C064            00014 45101    5228.              L     RX,PARIHLOC
 USING  PARMIN,R6                  45102    5229.              WITH  (PARMIN,RX),BEGIN       Addr to PARMIN
 006BD6 5060 D048            00000 45116  1 5230.                PMOV  @PARILOC,LA:PARMIN
 006BDA                            45127  1 5231.                PMOV  @PARILEN,PARILEN
 006BDA D203 D04C C054 00004 00004 45131  1          +
 006BE0 5820 C068            00018 45132  1 5232.                L     RA,PAROHLOC
 006BE4 5830 C05C            0000C 45133  1 5233.                L     RB,PAROLEN
 006BE8 9500 6000      00000       45134  1 5234.                IF    (PARMFSTR,OR,PARMFYN),BEGIN      Adjust for RDW
 006BEC 4780 A2AC            06BF8 45148  1          +
 006BF0 9508 6000      00000       45157  1          +
 006BF4 4770 A2B4            06C00 45158  1          +
 006BF8 4100 0004            00004 45163  2 5235.                  LA    RVR,4
 006BFC 1E20                       45164  2 5236.                  ALR   RA,RVR
 006BFE 1F30                       45165  2 5237.                  SLR   RB,RVR
 006C00                            45166  1 5238.                END   ,                       OF Adjust for RDW
 006C00 9023 D050            00008 45170  1 5239.                STM   RA,RB,@PAROLOC
 DROP   PARMIN,R6                  45171    5240.              END   ,                       OF Addr to PARMIN
 006C04 58F0 A970/0DEF       072BC 45179    5241.              VCALL PARMDO
 006C0A 94CF 711A      0011A       45183    5242.              NI    SIEPSW+2,X'CF'          Set CC to match that of return
 006C0E 1200                       45184    5243.              LTR   RVR,RVR                 |
1GSTINTF  (GSTI00) (09:40) (22MAR04) IHAPSAE  - PSA Extension (ESAME)                                                       Page  237
0Current Usings:  (CPUB,R7) (DTPARM,R10) (INTERP-72,R12) (@PARMDO-72,R13)
0Loc    Object Code    Addr1 Addr2  Stmt Lv Lineno    Source Statement           (Hibal 5, Asmedit 3.3)  HLASM R4.0  2004/03/22 09.40
+___    ______ ____    _____ _____  ____ __ ______    ______ _________
0006C10 B222 0010                  45185    5244.              IPM   RS                      |
 006C14 5410 A974            072C0 45186    5245.              N     RS,=X'30000000'         | mask off all but CC
 006C18 8810 0018            00018 45187    5246.              SRL   RS,24                   | put in lower byte
 006C1C 4410 A994            072E0 45188    5247.              EX    RS,'OI SIEPSW+2,0'      | set CC
 0072E0 9600 711A      0011A       45196             +
                                   45204    5248.     *
 006C20 1200/4770 A356       06CA2 45205    5249.              IF    (RVR,ZERO),BEGIN        Data to move
                                   45219  1 5250.     *
                                   45220  1 5251.     *  Move return data to guest
                                   45221  1 5252.     *
 006C26 5860 C058            00008 45222  1 5253.                L     RX,PAROLOC              Guest VA
 006C2A 5810 D054            0000C 45223  1 5254.                L     RS,@PAROLEN             | length returned
 006C2E 5840 C068            00018 45224  1 5255.                L     RJ,PAROHLOC             Host VA
 006C32 5820 C064            00014 45225  1 5256.                L     RA,PARIHLOC
 USING  PARMIN,R2                  45226  1 5257.                WITH  (PARMIN,RA),BEGIN       Addr to Input parms
 006C36 9500 2000      00000       45240  2 5258.                  IF    (PARMFSTR,OR,PARMFYN),BEGIN      Set up RDW
 006C3A 4780 A2FA            06C46 45254  2          +
 006C3E 9508 2000      00000       45263  2          +
 006C42 4770 A308            06C54 45264  2          +
 006C46 4A10 A986            072D2 45269  3 5259.                    AH    RS,=Y(4)                |
 006C4A 4010 4000            00000 45270  3 5260.                    STH   RS,@RJ
 006C4E                            45271  3 5261.                    CLEAR (@RJ+2,2)
 006C4E D701 4002 4002 00002 00002 45277  3          +
 006C54                            45278  2 5262.                  END   ,                       OF Set up RDW
 DROP   PARMIN,R2                  45282  1 5263.                END   ,                       OF Addr to Input parms
 006C54                            45290  1 5264.                LOOP  BEGIN                   Copy across page bndrys
 DROP   @PARMDO-72,R13             45296  2 5265.                  PSET  GVAPARM                 Get Host VA of guest area
 USING  GVAPARM-72,R13
 006C54 D70B D048 D048 00000 00000 45316  2          +
 006C5A 5070 D048            00000 45317  2 5266.                  ST    RY,GVACPUB              |
 006C5E 5060 D04C            00004 45318  2 5267.                  ST    RX,GVAVLOC              |
 006C62 58F0 A964/0DEF       072B0 45319  2 5268.                  ACALL GVA                     |
 006C68 5820 D050            00008 45326  2 5269.                  L     RA,GVAMLOC              |
 006C6C 1852                       45327  2 5270.                  LR    RK,RA                   Length on this page
 006C6E 5E50 A95C            072A8 45328  2 5271.                  AL    RK,=A(4096)             |
 006C72 5450 A960            072AC 45329  2 5272.                  N     RK,=X'7FFFF000'         |
 006C76 1B52                       45330  2 5273.                  SR    RK,RA                   |
 006C78 1951/47D0 A334       06C80 45331  2 5274.                  CEIL  RK,RS                   | not more than total
 006C7E 1851                       45336  2          +
 006C80 1E65                       45337  2 5275.                  ALR   RX,RK                   Next guest VA
 006C82 1B15                       45338  2 5276.                  SR    RS,RK                   Remaining length
 006C84 1835                       45339  2 5277.                  LR    RB,RK
                                   45340  2 5278.     *
                                   45341  2 5279.     *
                                   45342  2 5280.                  REGCH (RA,R2)
 006C86 B20B 0000                  45343  2 5281.                  MODESET EXTKEY=ZERO,SAVEKEY=(2)  get into key zero
 006C8A B20A 0000      00000       45346  2          +
 006C8E 18F2                       45347  2 5282.                  LR    EPAR,RA                 Save key
 006C90 5820 D050            00008 45348  2 5283.                  L     RA,GVAMLOC              Target address - GUEST
 006C94 0E24                       45349  2 5284.                  MVCL  RA,RJ
 006C96 182F                       45350  2 5285.                  LR    RA,EPAR
 006C98 B20A 2000      00000       45351  2 5286.                  MODESET KEYADDR=(2)
                                   45354  2 5287.
 006C9C 1211/4770 A308       06C54 45355  1 5288.                UNTIL (RS,ZERO),END           OF Copy across page bndrys
1GSTINTF  (GSTI00) (09:40) (22MAR04) IHAPSAE  - PSA Extension (ESAME)                                                       Page  238
0Current Usings:  (CPUB,R7) (DTPARM,R10) (INTERP-72,R12) (GVAPARM-72,R13)
0Loc    Object Code    Addr1 Addr2  Stmt Lv Lineno    Source Statement           (Hibal 5, Asmedit 3.3)  HLASM R4.0  2004/03/22 09.40
+___    ______ ____    _____ _____  ____ __ ______    ______ _________
0006CA2                            45377    5289.              END   ,                       OF Data to move
                                   45381    5290.     *
                                   45382    5291.     *  Release buffers
                                   45383    5292.     *
 DROP   GVAPARM-72,R13             45384    5293.              MEMFREE A=L:PARIHLOC,L:PARILEN,TYPE=GLOBAL
 USING  @MEMFREE-72,R13
 006CA2 D709 D048 D048 00000 00000 45406             +
 006CA8 5800 C054            00004 45411             +
 006CAC 5000 D04C            00004 45412             +
 006CB0 5800 C064            00014 45416             +
 006CB4 5000 D048            00000 45417             +
 006CB8 9212 D051      00009       45427             +
 006CBC 58F0 A978/0DEF       072C4 45430             +
 006CC2                            45432    5294.              MEMFREE A=L:PAROHLOC,L:PAROLEN,TYPE=GLOBAL
 006CC2 D709 D048 D048 00000 00000 45444             +
 006CC8 5800 C05C            0000C 45449             +
 006CCC 5000 D04C            00004 45450             +
 006CD0 5800 C068            00018 45454             +
 006CD4 5000 D048            00000 45455             +
 006CD8 9212 D051      00009       45465             +
 006CDC 58F0 A978/0DEF       072C4 45468             +
 006CE2 981F C008            00008 45470    5295.              PEND  ,
 DROP   CPUB,R7
 DROP   INTERP-72,R12
 DROP   DTPARM,R10
 006CE6 9680 C000/0B0E 00000       45490             +
 DROP   @MEMFREE-72,R13
1GSTINTF  (GSTI00) (09:40) (22MAR04) IHAPSAE  - PSA Extension (ESAME)                                                       Page  239
0Loc    Object Code    Addr1 Addr2  Stmt Lv Lineno    Source Statement           (Hibal 5, Asmedit 3.3)  HLASM R4.0  2004/03/22 09.40
+___    ______ ____    _____ _____  ____ __ ______    ______ _________
0                                  45500    5297.     *******************************************************************
                                   45501    5298.     *                                                                 *
                                   45502    5299.     *  DTPARM2- This is a DIAGNOSE service routine.  It returns the   *
                                   45503    5300.     *           value of a keyword parameter from the init file.      *
                                   45504    5301.     *           On entry r1 and r2 are each an                        *
                                   45505    5302.     *           even-odd register pair which contain:                 *
                                   45506    5303.     *                 r1    Guest virtual address of return area      *
                                   45507    5304.     *                 r1+1  Length of return area                     *
                                   45508    5305.     *                 r2    Guest virtual address of input parameters *
                                   45509    5306.     *                 r2+1  Length of parameters (fixed length + 8    *
                                   45510    5307.     *                       bytes each keyword, padded with blanks)   *
                                   45511    5308.     *                                                                 *
                                   45512    5309.     *      Input - INTERP dsect                                       *
                                   45513    5310.     *                                                                 *
                                   45514    5311.     *     Output - none to host                                       *
                                   45515    5312.     *            - guest return area or guest registers set           *
                                   45516    5313.     *                CC = 0 Keyword found, value returned             *
                                   45517    5314.     *                CC > 0 Keyword not found                         *
                                   45518    5315.     *                CC < 0 Keyword found, type mismatch or invalid   *
                                   45519    5316.     *                       type requested                            *
                                   45520    5317.     *                When CC = 0                                      *
                                   45521    5318.     *                  For string type parameters                     *
                                   45522    5319.     *                    r1   Guest pointer to string                 *
                                   45523    5320.     *                    r1+1 Length of string                        *
                                   45524    5321.     *                  For integer type parameters                    *
                                   45525    5322.     *                    r1   Integer value                           *
                                   45526    5323.     *                  For float type parameters                      *
                                   45527    5324.     *                    r1   Short float value                       *
                                   45528    5325.     *                                                                 *
                                   45529    5326.     *                                                                 *
                                   45530    5327.     *******************************************************************
0006CEC                            45532    5329.     DTPARM2  PROC  INTERP,PARWORK,SCOPE=LOCAL
 006CEC C4E3D7C1D9D4F240           45537             +
 006CF4 0008/0028                  45538             +
 006CF8 900F D004/18AF       00004 45540             +
 USING  DTPARM2,R10
 006CFE 50D0 C000/18CD       00000 45555             +
 006D04 9680 C000      00000       45557             +
 USING  INTERP-72,R12
 AUSING (PARWORK,INTERP+8)
 006D08 41D0 C078            00078 45576             +
 006D0C 5870 C048            00000 45577    5330.              L     RY,INTCPUB              Get the cpub address
 USING  CPUB,R7                    45578    5331.              WITH  (CPUB,RY)
                                   45591    5332.     *
                                   45592    5333.     *  Get parameter registers r1 and r1+1
                                   45593    5334.     *
 006D10 4810 7156            00156 45594    5335.              LH    RS,SIEINST
 006D14 8810 0004            00004 45595    5336.              SRL   RS,4                    Move r1 field to low order
 006D18 5410 A5A8            072A0 45596    5337.              N     RS,=X'0000000F'         Isolate the r1 field
 006D1C 4410 A5EC            072E4 45597    5338.              IF    ('EX RS,"TM  =X'01',0"',NZ),BEGIN
 0072E4 9100 A5DE      072D6       45612             +
 006D20 4780 A05E            06D56 45620             +
 006D24 5810 7070/18E2       00070 45625  1 5339.                PIINT CODE=6,ILEN=4           Register not even
 USING  PZERO,R1
 006D2A B20B 0000                  45645  2          +
1GSTINTF  (GSTI00) (09:40) (22MAR04) IHAPSAE  - PSA Extension (ESAME)                                                       Page  240
0Current Usings:  (PZERO,R1) (CPUB,R7) (DTPARM2,R10) (INTERP-72,R12)
0Loc    Object Code    Addr1 Addr2  Stmt Lv Lineno    Source Statement           (Hibal 5, Asmedit 3.3)  HLASM R4.0  2004/03/22 09.40
+___    ______ ____    _____ _____  ____ __ ______    ______ _________
0006D2E B20A 0000/18F2 00000       45646  2          +
 006D34 182E                       45648  2          +
 006D36 D207 1028 7118 00028 00118 45649  2          +
 006D3C D207 7118 1068 00118 00068 45650  2          +
 006D42 D201 108E A5D8 0008E 072D0 45651  2          +
 006D48 D201 108C A5DA 0008C 072D2 45652  2          +
 006D4E B20A F000      00000       45655  1          +
 DROP   PZERO,R1
 006D52 47F0 A400            070F8 45664  1 5340.                EXIT  DTPARM2
 006D56                            45667    5341.              END
 006D56 5910 A5AC            072A4 45671    5342.              LREGA RS,(RS)                 Get the address of the reg
 006D5A 4720 A072            06D6A 45677             +
 006D5E 4740 A07A            06D72 45678             +
 006D62 4110 7110            00110 45679             +
 006D66 47F0 A082            06D7A 45680             +
 006D6A 4110 7114            00114 45681             +
 006D6E 47F0 A082            06D7A 45682             +
 006D72 8910 0002            00002 45683             +
 006D76 4111 70BC            000BC 45684             +
 006D7A 5010 C06C            0001C 45687    5343.              ST    RS,PARR1                 and save it
 006D7E 98EF 1000            00000 45688    5344.              LM    R14,R15,@RS             r1 and r1+1
 006D82 90EF C058            00008 45689    5345.              STM   R14,R15,PAROLOC         Return location/len
                                   45690    5346.     *
                                   45691    5347.     *  Get parameter registers r2 and r2+1
                                   45692    5348.     *
 006D86 4810 7156            00156 45693    5349.              LH    RS,SIEINST
 006D8A 5410 A5A8            072A0 45694    5350.              N     RS,=X'0000000F'         Isolate the r2 field
 006D8E 4410 A5F0            072E8 45695    5351.              IF    ('EX RS,"TM  =X'01',0"',NZ),BEGIN
 0072E8 9100 A5DE      072D6       45710             +
 006D92 4780 A0D0            06DC8 45718             +
 006D96 5810 7070/18E2       00070 45723  1 5352.                PIINT CODE=6,ILEN=4           Register not even
 USING  PZERO,R1
 006D9C B20B 0000                  45743  2          +
 006DA0 B20A 0000/18F2 00000       45744  2          +
 006DA6 182E                       45746  2          +
 006DA8 D207 1028 7118 00028 00118 45747  2          +
 006DAE D207 7118 1068 00118 00068 45748  2          +
 006DB4 D201 108E A5D8 0008E 072D0 45749  2          +
 006DBA D201 108C A5DA 0008C 072D2 45750  2          +
 006DC0 B20A F000      00000       45753  1          +
 DROP   PZERO,R1
 006DC4 47F0 A400            070F8 45762  1 5353.                EXIT  DTPARM2
 006DC8                            45765    5354.              END
 006DC8 5910 A5AC            072A4 45769    5355.              LREGA RS,(RS)                 Get the address of the reg
 006DCC 4720 A0E4            06DDC 45775             +
 006DD0 4740 A0EC            06DE4 45776             +
 006DD4 4110 7110            00110 45777             +
 006DD8 47F0 A0F4            06DEC 45778             +
 006DDC 4110 7114            00114 45779             +
 006DE0 47F0 A0F4            06DEC 45780             +
 006DE4 8910 0002            00002 45781             +
 006DE8 4111 70BC            000BC 45782             +
 006DEC 5010 C070            00020 45785    5356.              ST    RS,PARR2                 and save it
 006DF0 98EF 1000            00000 45786    5357.              LM    R14,R15,@RS             r2 and r2+1
1GSTINTF  (GSTI00) (09:40) (22MAR04) IHAPSAE  - PSA Extension (ESAME)                                                       Page  241
0Current Usings:  (CPUB,R7) (DTPARM2,R10) (INTERP-72,R12)
0Loc    Object Code    Addr1 Addr2  Stmt Lv Lineno    Source Statement           (Hibal 5, Asmedit 3.3)  HLASM R4.0  2004/03/22 09.40
+___    ______ ____    _____ _____  ____ __ ______    ______ _________
0006DF4 90EF C050            00000 45787    5358.              STM   R14,R15,PARILOC         Input location/len
                                   45788    5359.     *
                                   45789    5360.     *  Make sure input area is in core
                                   45790    5361.     *
 006DF8 9823 C050            00000 45791    5362.              LM    RA,RB,PARILOC
 006DFC 1233/47D0 A186       06E7E 45792    5363.              WHILE (RB,POS),BEGIN          Bring in all of area
 006E02 5850 A5B0            072A8 45808  1 5364.                L     RK,=A(4096)             Calculate
 006E06 1A52                       45809  1 5365.                AR    RK,RA
 006E08 5450 A5B4            072AC 45810  1 5366.                N     RK,=X'7FFFF000'          Length on
 006E0C 1B52                       45811  1 5367.                SR    RK,RA                     First page
 006E0E 1953/47D0 A11E       06E16 45812  1 5368.                CEIL  RK,RB                   Not more than wanted
 006E14 1853                       45817  1          +
                                   45818  1 5369.     *
                                   45819  1 5370.     *  Validate user area
                                   45820  1 5371.     *
 USING  GVAPARM-72,R13             45821  1 5372.                PSET  GVAPARM
 006E16 D70B D048 D048 00000 00000 45838  1          +
 006E1C 5070 D048            00000 45839  1 5373.                ST    RY,GVACPUB              Set the CPUB pointer
 006E20 5020 D04C            00004 45840  1 5374.                ST    RA,GVAVLOC               Location
 006E24 58F0 A5B8/0DEF       072B0 45841  1 5375.                ACALL GVA
                                   45848  1 5376.     *
                                   45849  1 5377.     *  Area not in memory - cause a page fault
                                   45850  1 5378.     *
 006E2A 5900 A5BC            072B4 45851  1 5379.                IF    (RVR,GT,4),BEGIN        Not currently in memory
 006E2E 47D0 A17C            06E74 45863  1          +
 006E32 5810 7070/18E2       00070 45868  2 5380.                  PIINT CODE=(RVR),EXA=GVAVLOC,ILEN=4,BACK=YES
 USING  PZERO,R1
 006E38 B20B 0000                  45888  3          +
 006E3C B20A 0000/18F2 00000       45889  3          +
 006E42 182E                       45891  3          +
 006E44 D207 1028 7118 00028 00118 45892  3          +
 006E4A D207 7118 1068 00118 00068 45893  3          +
 006E50 4000 108E            0008E 45894  3          +
 006E54 D203 1090 D04C 00090 00004 45895  3          +
 006E5A D201 108C A5DA 0008C 072D2 45896  3          +
 006E60 58E0 102C            0002C 45897  3          +
 006E64 4BE0 108C            0008C 45898  3          +
 006E68 50E0 102C            0002C 45899  3          +
 006E6C B20A F000      00000       45902  2          +
 DROP   PZERO,R1
 006E70 47F0 A400            070F8 45911  2 5381.                  EXIT  DTPARM2
 006E74                            45914  1 5382.                END   ,
                                   45918  1 5383.     *
                                   45919  1 5384.     *  Update remaining count
                                   45920  1 5385.     *
 006E74 4125 2000            00000 45921  1 5386.                LA    RA,@RA(RK)              Next location
 006E78 1B35                       45922  1 5387.                SR    RB,RK                   Remaining length
 006E7A 47F0 A104            06DFC 45923    5388.              END   ,                       OF Bring in all of area
                                   45928    5389.     *--------------
                                   45929    5390.     *  Move input area to host buffer
                                   45930    5391.     *--------------
 DROP   GVAPARM-72,R13             45931    5392.              MEMGET L:PARILEN,TYPE=GLOBAL
 USING  @MEMGET-72,R13
 006E7E D709 D048 D048 00000 00000 45953             +
1GSTINTF  (GSTI00) (09:40) (22MAR04) IHAPSAE  - PSA Extension (ESAME)                                                       Page  242
0Current Usings:  (CPUB,R7) (DTPARM2,R10) (INTERP-72,R12) (@MEMGET-72,R13)
0Loc    Object Code    Addr1 Addr2  Stmt Lv Lineno    Source Statement           (Hibal 5, Asmedit 3.3)  HLASM R4.0  2004/03/22 09.40
+___    ______ ____    _____ _____  ____ __ ______    ______ _________
0006E84 5800 C054            00004 45958             +
 006E88 5000 D04C            00004 45959             +
 006E8C 9213 D051      00009       45973             +
 006E90 58F0 A5C0/0DEF       072B8 45976             +
 006E96 1840                       45978    5393.              LR    RJ,RVR
 006E98 5040 C064            00014 45979    5394.              ST    RJ,PARIHLOC             Save contig memory addr
 006E9C                            45980    5395.     DTPARM2I BEGIN ,                       Input buffer alloc
                                   45985  1 5396.     *
                                   45986  1 5397.     *  Move input to contig buffer
 006E9C 5860 C050            00000 45987  1 5398.                L     RX,PARILOC              Guest VA
 006EA0 5810 C054            00004 45988  1 5399.                L     RS,PARILEN              | length
 006EA4 5840 C064            00014 45989  1 5400.                L     RJ,PARIHLOC             Host VA
 006EA8                            45990  1 5401.                LOOP  BEGIN                   Copy across page bndrys
 DROP   @MEMGET-72,R13             45996  2 5402.                  PSET  GVAPARM                 Get Host VA of guest area
 USING  GVAPARM-72,R13
 006EA8 D70B D048 D048 00000 00000 46016  2          +
 006EAE 5070 D048            00000 46017  2 5403.                  ST    RY,GVACPUB              |
 006EB2 5060 D04C            00004 46018  2 5404.                  ST    RX,GVAVLOC              |
 006EB6 58F0 A5B8/0DEF       072B0 46019  2 5405.                  ACALL GVA                     |
 006EBC 5820 D050            00008 46026  2 5406.                  L     RA,GVAMLOC              |
 006EC0 1852                       46027  2 5407.                  LR    RK,RA                   Length on this page
 006EC2 5E50 A5B0            072A8 46028  2 5408.                  AL    RK,=A(4096)             |
 006EC6 5450 A5B4            072AC 46029  2 5409.                  N     RK,=X'7FFFF000'         |
 006ECA 1B52                       46030  2 5410.                  SR    RK,RA                   |
 006ECC 1951/47D0 A1DC       06ED4 46031  2 5411.                  CEIL  RK,RS                   | not more than total
 006ED2 1851                       46036  2          +
 006ED4 1E65                       46037  2 5412.                  ALR   RX,RK                   Next guest VA
 006ED6 1B15                       46038  2 5413.                  SR    RS,RK                   Remaining length
 006ED8 1835                       46039  2 5414.                  LR    RB,RK
                                   46040  2 5415.
                                   46041  2 5416.                  REGCH (RA,R2)
 006EDA B20B 0000                  46042  2 5417.                  MODESET EXTKEY=ZERO,SAVEKEY=(2)  get into key zero
 006EDE B20A 0000      00000       46045  2          +
 006EE2 18F2                       46046  2 5418.                  LR    EPAR,RA                 Save key
 006EE4 5820 D050            00008 46047  2 5419.                  L     RA,GVAMLOC              Source address - GUEST
 006EE8 0E42                       46048  2 5420.                  MVCL  RJ,RA
 006EEA 182F                       46049  2 5421.                  LR    RA,EPAR
 006EEC B20A 2000      00000       46050  2 5422.                  MODESET KEYADDR=(2)
                                   46053  2 5423.
 006EF0 1211/4770 A1B0       06EA8 46054  1 5424.                UNTIL (RS,ZERO),END           OF Copy across page bndrys
1GSTINTF  (GSTI00) (09:40) (22MAR04) IHAPSAE  - PSA Extension (ESAME)                                                       Page  243
0Current Usings:  (CPUB,R7) (DTPARM2,R10) (INTERP-72,R12) (GVAPARM-72,R13)
0Loc    Object Code    Addr1 Addr2  Stmt Lv Lineno    Source Statement           (Hibal 5, Asmedit 3.3)  HLASM R4.0  2004/03/22 09.40
+___    ______ ____    _____ _____  ____ __ ______    ______ _________
0                                  46077  1 5426.     *--------------
                                   46078  1 5427.     *  Check input parameters to see if we need an output area
                                   46079  1 5428.     *--------------
 006EF6 5880 C064            00014 46080  1 5429.                L     RM,PARIHLOC
 USING  PARMIN,R8                  46081  1 5430.                WITH  (PARMIN,RM)
 006EFA 9500 8000      00000       46094  1 5431.                IF    (PARMFSTR,OR,PARMFYN),BEGIN      Strings need out area
 006EFE 4780 A212            06F0A 46108  1          +
 006F02 9508 8000      00000       46117  1          +
 006F06 4770 A2D4            06FCC 46118  1          +
                                   46123  2 5432.     *
                                   46124  2 5433.     *  Make sure output area is in core and writeable
                                   46125  2 5434.     *
 006F0A 9823 C050            00000 46126  2 5435.                  LM    RA,RB,PARILOC
 006F0E 1233/47D0 A2D4       06FCC 46127  2 5436.                  WHILE (RB,POS),BEGIN          Bring in all of area
 006F14 5850 A5B0            072A8 46143  3 5437.                    L     RK,=A(4096)             Calculate
 006F18 1A52                       46144  3 5438.                    AR    RK,RA
 006F1A 5450 A5B4            072AC 46145  3 5439.                    N     RK,=X'7FFFF000'          Length on
 006F1E 1B52                       46146  3 5440.                    SR    RK,RA                     First page
 006F20 1953/47D0 A230       06F28 46147  3 5441.                    CEIL  RK,RB                   Not more than wanted
 006F26 1853                       46152  3          +
                                   46153  3 5442.     *
                                   46154  3 5443.     *  Validate user area
                                   46155  3 5444.     *
 006F28                            46156  3 5445.                    PSET  GVAPARM
 006F28 D70B D048 D048 00000 00000 46166  3          +
 006F2E 5070 D048            00000 46167  3 5446.                    ST    RY,GVACPUB              Set the CPUB pointer
 006F32 5020 D04C            00004 46168  3 5447.                    ST    RA,GVAVLOC               Location
 006F36 58F0 A5B8/0DEF       072B0 46169  3 5448.                    ACALL GVA
                                   46176  3 5449.     *
                                   46177  3 5450.     *  Area not in memory - cause a page fault
                                   46178  3 5451.     *
 006F3C 5900 A5BC            072B4 46179  3 5452.                    IF    (RVR,GT,4),BEGIN        Not currently in memory
 006F40 47D0 A28E            06F86 46191  3          +
 006F44 5810 7070/18E2       00070 46196  4 5453.                      PIINT CODE=(RVR),EXA=GVAVLOC,ILEN=4,BACK=YES
 USING  PZERO,R1
 006F4A B20B 0000                  46216  5          +
 006F4E B20A 0000/18F2 00000       46217  5          +
 006F54 182E                       46219  5          +
 006F56 D207 1028 7118 00028 00118 46220  5          +
 006F5C D207 7118 1068 00118 00068 46221  5          +
 006F62 4000 108E            0008E 46222  5          +
 006F66 D203 1090 D04C 00090 00004 46223  5          +
 006F6C D201 108C A5DA 0008C 072D2 46224  5          +
 006F72 58E0 102C            0002C 46225  5          +
 006F76 4BE0 108C            0008C 46226  5          +
 006F7A 50E0 102C            0002C 46227  5          +
 006F7E B20A F000      00000       46230  4          +
 DROP   PZERO,R1
 006F82 47F0 A3E0            070D8 46239  4 5454.                      EXIT  DTPARM2I
 006F86                            46242  3 5455.                    END   ,
                                   46246  3 5456.     *
                                   46247  3 5457.     *  Area may not be written - cause protection error
                                   46248  3 5458.     *
 006F86 1200/4780 A2CA       06FC2 46249  3 5459.                    IF    (RVR,NZ),BEGIN          Not valid location
1GSTINTF  (GSTI00) (09:40) (22MAR04) IHAPSAE  - PSA Extension (ESAME)                                                       Page  244
0Current Usings:  (PZERO,R1) (CPUB,R7) (PARMIN,R8) (DTPARM2,R10) (INTERP-72,R12) (GVAPARM-72,R13)
0Loc    Object Code    Addr1 Addr2  Stmt Lv Lineno    Source Statement           (Hibal 5, Asmedit 3.3)  HLASM R4.0  2004/03/22 09.40
+___    ______ ____    _____ _____  ____ __ ______    ______ _________
0006F8C 5810 7070/18E2       00070 46263  4 5460.                      PIINT CODE=(RVR),EXA=GVAVLOC,ILEN=4
 USING  PZERO,R1
 006F92 B20B 0000                  46283  5          +
 006F96 B20A 0000/18F2 00000       46284  5          +
 006F9C 182E                       46286  5          +
 006F9E D207 1028 7118 00028 00118 46287  5          +
 006FA4 D207 7118 1068 00118 00068 46288  5          +
 006FAA 4000 108E            0008E 46289  5          +
 006FAE D203 1090 D04C 00090 00004 46290  5          +
 006FB4 D201 108C A5DA 0008C 072D2 46291  5          +
 006FBA B20A F000      00000       46294  4          +
 DROP   PZERO,R1
 006FBE 47F0 A3E0            070D8 46303  4 5461.                      EXIT  DTPARM2I
 006FC2                            46306  3 5462.                    END   ,
                                   46310  3 5463.     *
                                   46311  3 5464.     *  Update remaining count
                                   46312  3 5465.     *
 006FC2 4125 2000            00000 46313  3 5466.                    LA    RA,@RA(RK)              Next location
 006FC6 1B35                       46314  3 5467.                    SR    RB,RK                   Remaining length
 006FC8 47F0 A216            06F0E 46315  2 5468.                  END   ,                       OF Bring in all of area
 006FCC                            46320  1 5469.                END   ,                       OF Strings need out area
 006FCC A2D8           06FCC 06F08 46324  1 5470.                ELSE  'MVC PAROLEN,=A(4)'     Numbers need only 4 bytes
 006FCC 47F0 A2DE            06FD6 46329  1          +
 006FD0 D203 C05C A5BC 0000C 072B4 46336  1          +
 DROP   GVAPARM-72,R13             46341  1 5471.                MEMGET L:PAROLEN,TYPE=GLOBAL
 USING  @MEMGET-72,R13
 006FD6 D709 D048 D048 00000 00000 46363  1          +
 006FDC 5800 C05C            0000C 46368  1          +
 006FE0 5000 D04C            00004 46369  1          +
 006FE4 9213 D051      00009       46383  1          +
 006FE8 58F0 A5C0/0DEF       072B8 46386  1          +
 006FEE 1850                       46388  1 5472.                LR    RK,RVR
 006FF0 5050 C068            00018 46389  1 5473.                ST    RK,PAROHLOC             Save contig memory addr
1GSTINTF  (GSTI00) (09:40) (22MAR04) IHAPSAE  - PSA Extension (ESAME)                                                       Page  245
0Current Usings:  (CPUB,R7) (PARMIN,R8) (DTPARM2,R10) (INTERP-72,R12) (@MEMGET-72,R13)
0Loc    Object Code    Addr1 Addr2  Stmt Lv Lineno    Source Statement           (Hibal 5, Asmedit 3.3)  HLASM R4.0  2004/03/22 09.40
+___    ______ ____    _____ _____  ____ __ ______    ______ _________
0                                  46391  1 5475.     *--------------
                                   46392  1 5476.     *  Call parameter routines
                                   46393  1 5477.     *--------------
 DROP   @MEMGET-72,R13             46394  1 5478.                PSET  @PARMDO
 USING  @PARMDO-72,R13
 006FF4 D70F D048 D048 00000 00000 46414  1          +
 006FFA                            46415  1 5479.                PMOV  @PARILOC,PARIHLOC
 006FFA D203 D048 C064 00000 00014 46419  1          +
 007000                            46420  1 5480.                PMOV  @PARILEN,PARILEN
 007000 D203 D04C C054 00004 00004 46424  1          +
 007006                            46425  1 5481.                PMOV  @PAROLOC,PAROHLOC
 007006 D203 D050 C068 00008 00018 46429  1          +
 00700C                            46430  1 5482.                PMOV  @PAROLEN,PAROLEN
 00700C D203 D054 C05C 0000C 0000C 46434  1          +
 007012 58F0 A5C4/0DEF       072BC 46435  1 5483.                VCALL PARMDO
 007018 94CF 711A      0011A       46439  1 5484.                NI    SIEPSW+2,X'CF'          Set CC to match that of return
 00701C 1200                       46440  1 5485.                LTR   RVR,RVR                 |
 00701E B222 0010                  46441  1 5486.                IPM   RS                      |
 007022 5410 A5C8            072C0 46442  1 5487.                N     RS,=X'30000000'         | mask off all but CC
 007026 8810 0018            00018 46443  1 5488.                SRL   RS,24                   | put in lower byte
 00702A 4410 A5F4            072EC 46444  1 5489.                EX    RS,'OI SIEPSW+2,0'      | set CC
 0072EC 9600 711A      0011A       46452  1          +
                                   46460  1 5490.     *
 00702E 1200/4770 A3C0       070B8 46461  1 5491.                IF    (RVR,ZERO),BEGIN        Data to set
 007034 9500 8000      00000       46475  2 5492.                  IF    (PARMFSTR,OR,PARMFYN),BEGIN      Move string data
 007038 4780 A34C            07044 46489  2          +
 00703C 9508 8000      00000       46498  2          +
 007040 4770 A3AE            070A6 46499  2          +
                                   46504  3 5493.     *
                                   46505  3 5494.     *  Move string data to guest
                                   46506  3 5495.     *
 007044 5860 C058            00008 46507  3 5496.                    L     RX,PAROLOC              Guest VA
 007048 5840 C068            00018 46508  3 5497.                    L     RJ,PAROHLOC             Host VA
 00704C 5810 D054            0000C 46509  3 5498.                    L     RS,@PAROLEN             Length returned
 007050 5820 C06C            0001C 46510  3 5499.                    L     RA,PARR1                |   set new length in
 007054 5010 2004            00004 46511  3 5500.                    ST    RS,@RA+4                |    r1+1
 007058                            46512  3 5501.                    LOOP  BEGIN                   Copy across page bndrys
 DROP   @PARMDO-72,R13             46518  4 5502.                      PSET  GVAPARM                 Get Host VA of guest area
 USING  GVAPARM-72,R13
 007058 D70B D048 D048 00000 00000 46538  4          +
 00705E 5070 D048            00000 46539  4 5503.                      ST    RY,GVACPUB              |
 007062 5060 D04C            00004 46540  4 5504.                      ST    RX,GVAVLOC              |
 007066 58F0 A5B8/0DEF       072B0 46541  4 5505.                      ACALL GVA                     |
 00706C 5820 D050            00008 46548  4 5506.                      L     RA,GVAMLOC              |
 007070 1852                       46549  4 5507.                      LR    RK,RA                   Length on this page
 007072 5E50 A5B0            072A8 46550  4 5508.                      AL    RK,=A(4096)             |
 007076 5450 A5B4            072AC 46551  4 5509.                      N     RK,=X'7FFFF000'         |
 00707A 1B52                       46552  4 5510.                      SR    RK,RA                   |
 00707C 1951/47D0 A38C       07084 46553  4 5511.                      CEIL  RK,RS                   | not more than total
 007082 1851                       46558  4          +
 007084 1E65                       46559  4 5512.                      ALR   RX,RK                   Next guest VA
 007086 1B15                       46560  4 5513.                      SR    RS,RK                   Remaining length
 007088 1835                       46561  4 5514.                      LR    RB,RK
                                   46562  4 5515.     *
1GSTINTF  (GSTI00) (09:40) (22MAR04) IHAPSAE  - PSA Extension (ESAME)                                                       Page  246
0Current Usings:  (CPUB,R7) (PARMIN,R8) (DTPARM2,R10) (INTERP-72,R12) (GVAPARM-72,R13)
0Loc    Object Code    Addr1 Addr2  Stmt Lv Lineno    Source Statement           (Hibal 5, Asmedit 3.3)  HLASM R4.0  2004/03/22 09.40
+___    ______ ____    _____ _____  ____ __ ______    ______ _________
0                                  46563  4 5516.     *
                                   46564  4 5517.                      REGCH (RA,R2)
 00708A B20B 0000                  46565  4 5518.                      MODESET EXTKEY=ZERO,SAVEKEY=(2)  get into key zero
 00708E B20A 0000      00000       46568  4          +
 007092 18F2                       46569  4 5519.                      LR    EPAR,RA                 Save key
 007094 5820 D050            00008 46570  4 5520.                      L     RA,GVAMLOC              Target address - GUEST
 007098 0E24                       46571  4 5521.                      MVCL  RA,RJ
 00709A 182F                       46572  4 5522.                      LR    RA,EPAR
 00709C B20A 2000      00000       46573  4 5523.                      MODESET KEYADDR=(2)
                                   46576  4 5524.
 0070A0 1211/4770 A360       07058 46577  3 5525.                    UNTIL (RS,ZERO),END           OF Copy across page bndrys
 0070A6                            46599  2 5526.                  END   ,                       OF Move string data
 0070A6 A3B2           070A6 07042 46603  2 5527.                  ELSE  BEGIN                   Data will fit in register
 0070A6 47F0 A3C0            070B8 46608  2          +
 0070AA 5820 C06C            0001C 46614  3 5528.                    L     RA,PARR1                Put it in r1
 0070AE 5830 C068            00018 46615  3 5529.                    L     RB,PAROHLOC              source
 0070B2 D203 2000 3000 00000 00000 46616  3 5530.                    MVC   @RA(4),@RB
 0070B8                            46617  2 5531.                  END   ,                       OF Data will fit in register
 0070B8                            46621  1 5532.                END   ,                       OF Data to set
                                   46625  1 5533.     *
                                   46626  1 5534.     *  Release buffers
                                   46627  1 5535.     *
 DROP   GVAPARM-72,R13             46628  1 5536.                MEMFREE A=L:PAROHLOC,L:PAROLEN,TYPE=GLOBAL
 USING  @MEMFREE-72,R13
 0070B8 D709 D048 D048 00000 00000 46650  1          +
 0070BE 5800 C05C            0000C 46655  1          +
 0070C2 5000 D04C            00004 46656  1          +
 0070C6 5800 C068            00018 46660  1          +
 0070CA 5000 D048            00000 46661  1          +
 0070CE 9212 D051      00009       46671  1          +
 0070D2 58F0 A5CC/0DEF       072C4 46674  1          +
 DROP   PARMIN,R8                  46676    5537.              END   ,                       OF Input buffer allocated
 0070D8                            46685    5538.              MEMFREE A=L:PARIHLOC,L:PARILEN,TYPE=GLOBAL
 0070D8 D709 D048 D048 00000 00000 46697             +
 0070DE 5800 C054            00004 46702             +
 0070E2 5000 D04C            00004 46703             +
 0070E6 5800 C064            00014 46707             +
 0070EA 5000 D048            00000 46708             +
 0070EE 9212 D051      00009       46718             +
 0070F2 58F0 A5CC/0DEF       072C4 46721             +
 0070F8 981F C008            00008 46723    5539.              PEND  ,
 DROP   CPUB,R7
 DROP   INTERP-72,R12
 DROP   DTPARM2,R10
 0070FC 9680 C000/0B0E 00000       46743             +
 DROP   @MEMFREE-72,R13
1GSTINTF  (GSTI00) (09:40) (22MAR04) IHAPSAE  - PSA Extension (ESAME)                                                       Page  247
0Loc    Object Code    Addr1 Addr2  Stmt Lv Lineno    Source Statement           (Hibal 5, Asmedit 3.3)  HLASM R4.0  2004/03/22 09.40
+___    ______ ____    _____ _____  ____ __ ______    ______ _________
0                                  46753    5541.     *******************************************************************
                                   46754    5542.     *
                                   46755    5543.     *   DTMXREAL - This is the DIAGNOSE "MAXREAL" service routine.
                                   46756    5544.     *
                                   46757    5545.     *              On return:
                                   46758    5546.     *
                                   46759    5547.     *              r1   contains the maximum number of frames which
                                   46760    5548.     *                     the Guest paging routines should long term
                                   46761    5549.     *                     fix.
                                   46762    5550.     *              r1+1 contains the minimum number of frames
                                   46763    5551.     *
                                   46764    5552.     *
                                   46765    5553.     *      Input - INTERP dsect
                                   46766    5554.     *
                                   46767    5555.     *     Output - none
                                   46768    5556.     *
                                   46769    5557.     *
                                   46770    5558.     *******************************************************************
-007102                            46772    5560.     DTMXREAL PROC  INTERP,SCOPE=LOCAL
 007102 C4E3D4E7D9C5C1D3           46777             +
 00710A 0008/0000                  46778             +
 00710E 900F D004/18AF       00004 46780             +
 USING  DTMXREAL,R10
 007114 50D0 C000/18CD       00000 46795             +
 00711A 9680 C000      00000       46797             +
 USING  INTERP-72,R12
 00711E 41D0 C050            00050 46811             +
 007122 5870 C048            00000 46812    5561.              L     RY,INTCPUB              Parm is the CPUB pointer
 USING  CPUB,R7                    46813    5562.              WITH  (CPUB,RY)
 007126 5860 7004            00004 46826    5563.              L     RX,CPGSTCT              Get the GSTCT pointer
 USING  GSTCT,R6                   46827    5564.              WITH  (GSTCT,RX)
                                   46840    5565.     *
                                   46841    5566.     *  Compute maximum real memory value
                                   46842    5567.     *
 00712A 5850 0010            00010 46843    5568.              L     RK,CVTPTR               CVT
 00712E 5830 5490            00490 46844    5569.              WITH  (CVT,RK),'L  RB,CVTRCEP'   RCE pointer
 USING  CVT,R5
 DROP   CVT,R5
 007132 5830 3004            00004 46868    5570.              WITH  (RCE,RB),'L  RB,RCEPOOL'   Online and available
 USING  RCE,R3
 DROP   RCE,R3
 007136 5820 600C            0000C 46892    5571.              L     RA,GSTCRMOV             Minus OS overhead
 00713A 8820 000C            0000C 46893    5572.              SRL   RA,12                    in frames
 00713E 1F32                       46894    5573.              SLR   RB,RA                     leaves amount do divy up
 007140 5C20 6008            00008 46895    5574.              M     RA,GSTCRMPC             Our share
 007144 5D20 A1BA            072C8 46896    5575.              D     RA,=A(100)               is in RB
 007148 4930 A1C6            072D4 46897    5576.              FLOOR RB,=Y(MINMEG*256)         with a minimum
 00714C 47B0 A046            07154 46900             +
 007150 4830 A1C6            072D4 46901             +
 007154 5820 6014            00014 46902    5577.              L     RA,GSTCCLEN             Total virtual memory
 007158 8820 000C            0000C 46903    5578.              SRL   RA,12                   Convert to frames
 00715C 1932/47D0 A056       07164 46904    5579.              CEIL  RB,RA                   Most we can use
 007162 1832                       46909             +
1GSTINTF  (GSTI00) (09:40) (22MAR04) IHAPSAE  - PSA Extension (ESAME)                                                       Page  248
0Current Usings:  (GSTCT,R6) (CPUB,R7) (DTMXREAL,R10) (INTERP-72,R12)
0Loc    Object Code    Addr1 Addr2  Stmt Lv Lineno    Source Statement           (Hibal 5, Asmedit 3.3)  HLASM R4.0  2004/03/22 09.40
+___    ______ ____    _____ _____  ____ __ ______    ______ _________
0                                  46910    5580.
                                   46911    5581.                Return maximum allowable frames in "r1".
                                   46912    5582.
 007164 4810 7156            00156 46913    5583.              LH    RS,SIEINST
 007168 8810 0004            00004 46914    5584.              SRL   RS,4                Move r1 field to low order
 00716C 5410 A192            072A0 46915    5585.              N     RS,=X'0000000F'     Isolate the r1 field
 007170 18F1                       46916    5586.              LR    R15,RS              Copy
 007172 5910 A196            072A4 46917    5587.              LREGA RS,(RS)             Get the Address of the Reg
 007176 4720 A078            07186 46923             +
 00717A 4740 A080            0718E 46924             +
 00717E 4110 7110            00110 46925             +
 007182 47F0 A088            07196 46926             +
 007186 4110 7114            00114 46927             +
 00718A 47F0 A088            07196 46928             +
 00718E 8910 0002            00002 46929             +
 007192 4111 70BC            000BC 46930             +
 007196 5030 1000            00000 46933    5588.              ST    RB,@RS              Put the value in r1
                                   46934    5589.
 00719A 4110 F001            00001 46935    5590.              LA    RS,@R15+1           Calc r1+1
 00719E 5910 A1BE            072CC 46936    5591.              IF    (RS,GT,15),'CLEAR RS'  Wrap to R0
 0071A2 47D0 A09A/1B11       071A8 46948             +
 0071A8 5910 A196            072A4 46962    5592.              LREGA RS,(RS)             Get the address of the reg
 0071AC 4720 A0AE            071BC 46968             +
 0071B0 4740 A0B6            071C4 46969             +
 0071B4 4110 7110            00110 46970             +
 0071B8 47F0 A0BE            071CC 46971             +
 0071BC 4110 7114            00114 46972             +
 0071C0 47F0 A0BE            071CC 46973             +
 0071C4 8910 0002            00002 46974             +
 0071C8 4111 70BC            000BC 46975             +
 0071CC 5820 6018            00018 46978    5593.              L     RA,GSTCMINL         Minimum allowable size
 0071D0 8820 000C            0000C 46979    5594.              SRL   RA,12               Convert to frames
 0071D4 1923/47D0 A0CE       071DC 46980    5595.              CEIL  RA,RB               Min can't be more than max
 0071DA 1823                       46985             +
 0071DC 1222/4770 A0DA       071E8 46986    5596.              IF    (RA,Z),'LR RA,RB; SRL RA,2'  Default min = 1/4 max
 0071E2 1823/8820 0002       00002 47001             +
 0071E8 5020 1000            00000 47007    5597.              ST    RA,@RS              Put the value in r1+1
 0071EC 981F C008            00008 47008    5598.              PEND
 DROP   GSTCT,R6
 DROP   CPUB,R7
 DROP   INTERP-72,R12
 DROP   DTMXREAL,R10
 0071F0 9680 C000/0B0E 00000       47033             +
1GSTINTF  (GSTI00) (09:40) (22MAR04) IHAPSAE  - PSA Extension (ESAME)                                                       Page  249
0Loc    Object Code    Addr1 Addr2  Stmt Lv Lineno    Source Statement           (Hibal 5, Asmedit 3.3)  HLASM R4.0  2004/03/22 09.40
+___    ______ ____    _____ _____  ____ __ ______    ______ _________
0                                  47040    5600.     *******************************************************************
                                   47041    5601.     *                                                                 *
                                   47042    5602.     *   DTMXCPU  - This is a DIAGNOSE service routine.  On return     *
                                   47043    5603.     *              r1 contains the maximum number of virtual CPUs     *
                                   47044    5604.     *              which should curently be active.                   *
                                   47045    5605.     *                                                                 *
                                   47046    5606.     *                                                                 *
                                   47047    5607.     *      Input - INTERP dsect                                       *
                                   47048    5608.     *                                                                 *
                                   47049    5609.     *     Output - none                                               *
                                   47050    5610.     *                                                                 *
                                   47051    5611.     *                                                                 *
                                   47052    5612.     *******************************************************************
-0071F6                            47054    5614.     DTMXCPU  PROC  INTERP,SCOPE=LOCAL
 0071F6 C4E3D4E7C3D7E440           47059             +
 0071FE 0008/0000                  47060             +
 007202 900F D004/18AF       00004 47062             +
 USING  DTMXCPU,R10
 007208 50D0 C000/18CD       00000 47077             +
 00720E 9680 C000      00000       47079             +
 USING  INTERP-72,R12
 007212 41D0 C050            00050 47093             +
 007216 5870 C048            00000 47094    5615.              L     RY,INTCPUB              Parm is the CPUB pointer
 USING  CPUB,R7                    47095    5616.              WITH  (CPUB,RY)
 00721A 5860 7004            00004 47108    5617.              L     RX,CPGSTCT              Get the GSTCT pointer
 USING  GSTCT,R6                   47109    5618.              WITH  (GSTCT,RX)
                                   47122    5619.     *
                                   47123    5620.     *  Get current number of CPU's online
                                   47124    5621.     *
 00721E 41F0 A078/0DEF       0727A 47125    5622.              LCALL MAXCPUS
 007224 5900 6004            00004 47134    5623.              CEIL  RVR,GSTCNCPU            Maximum CPUs allowed
 007228 47D0 A02E            07230 47138             +
 00722C 5800 6004            00004 47139             +
                                   47140    5624.     *
                                   47141    5625.     *  Return active CPU value
                                   47142    5626.     *
 007230 4810 7156            00156 47143    5627.              LH    RS,SIEINST
 007234 8810 0004            00004 47144    5628.              SRL   RS,4                    Move r1 field to low order
 007238 5410 A09E            072A0 47145    5629.              N     RS,=X'0000000F'         Isolate the r1 field
 00723C 5910 A0A2            072A4 47146    5630.              LREGA RS,(RS)                 Get the Address of the Reg
 007240 4720 A04E            07250 47152             +
 007244 4740 A056            07258 47153             +
 007248 4110 7110            00110 47154             +
 00724C 47F0 A05E            07260 47155             +
 007250 4110 7114            00114 47156             +
 007254 47F0 A05E            07260 47157             +
 007258 8910 0002            00002 47158             +
 00725C 4111 70BC            000BC 47159             +
 007260 5000 1000            00000 47162    5631.              ST    RVR,@RS                 Put the value in r1
 007264 981F C008            00008 47163    5632.              PEND
 DROP   GSTCT,R6
 DROP   CPUB,R7
 DROP   INTERP-72,R12
 DROP   DTMXCPU,R10
1GSTINTF  (GSTI00) (09:40) (22MAR04) IHAPSAE  - PSA Extension (ESAME)                                                       Page  250
0Loc    Object Code    Addr1 Addr2  Stmt Lv Lineno    Source Statement           (Hibal 5, Asmedit 3.3)  HLASM R4.0  2004/03/22 09.40
+___    ______ ____    _____ _____  ____ __ ______    ______ _________
0007268 9680 C000/0B0E 00000       47188             +
1GSTINTF  (GSTI00) (09:40) (22MAR04) IHAPSAE  - PSA Extension (ESAME)                                                       Page  251
0Loc    Object Code    Addr1 Addr2  Stmt Lv Lineno    Source Statement           (Hibal 5, Asmedit 3.3)  HLASM R4.0  2004/03/22 09.40
+___    ______ ____    _____ _____  ____ __ ______    ______ _________
0                                  47195    5634.     *******************************************************************
                                   47196    5635.     *                                                                 *
                                   47197    5636.     *   MAXCPUS  - Routine to determine the maximum number of         *
                                   47198    5637.     *              virtual CPUs that should currently be active.      *
                                   47199    5638.     *                                                                 *
                                   47200    5639.     *                                                                 *
                                   47201    5640.     *      Input - none                                               *
                                   47202    5641.     *                                                                 *
                                   47203    5642.     *     Output - RVR contains number of CPUs                        *
                                   47204    5643.     *                                                                 *
                                   47205    5644.     *                                                                 *
                                   47206    5645.     *******************************************************************
-00726E                            47208    5647.     MAXCPUS  PROC  ,SCOPE=LOCAL
 00726E D4C1E7C3D7E4E240           47213             +
 007276 0000/0000                  47214             +
 00727A 900F D004/18AF       00004 47216             +
 USING  MAXCPUS,R10
 007280 50D0 C000/18CD       00000 47231             +
 007286 9680 C000      00000       47233             +
 00728A 41D0 C048            00048 47234             +
                                   47235    5648.     *
                                   47236    5649.     *  Get current number of CPU's online
                                   47237    5650.     *
 00728E 4130 0008            00008 47238    5651.              LA    RB,8                Assume maximum of 8 cpus
                                   47239    5652.     *
                                   47240    5653.     *NCPUs   L     RA,CVTPTR               CVT
                                   47241    5654.     *NCPUs   WITH  (CVT,RA),'L  RA,CVTCSD'   CSD Pointer
                                   47242    5655.     *NCPUs   WITH  (CSD,RA),'LH  RB,CSDCPUOL'   Number of online CPU's
                                   47243    5656.     *
 007292 1803                       47244    5657.              LR    RVR,RB                  Return value
 007294 981F C008            00008 47245    5658.              PEND
 DROP   MAXCPUS,R10
 007298 9680 C000/0B0E 00000       47255             +
1GSTINTF  (GSTI00) (09:40) (22MAR04) IHAPSAE  - PSA Extension (ESAME)                                                       Page  252
0Loc    Object Code    Addr1 Addr2  Stmt Lv Lineno    Source Statement           (Hibal 5, Asmedit 3.3)  HLASM R4.0  2004/03/22 09.40
+___    ______ ____    _____ _____  ____ __ ______    ______ _________
0                                  47262    5660.     *******************************************************************
                                   47263    5661.     *                                                                 *
                                   47264    5662.     *       SNAPPARM - ORVSNAP parameter area                         *
                                   47265    5663.     *                                                                 *
                                   47266    5664.     *******************************************************************
0000000                00000 00006 47268    5666.     SNAPPARM RECORD BEGIN
 000000 00                         47276  1 5667.     SNPFLAG    FLAG  ,
 SNPFLAG.SNPFMSG   80 ONES         47280  1 5668.                FLAG  SNPFMSG                 PRINT TEXT
 SNPFLAG.SNPFREGS  40 ONES         47285  1 5669.                FLAG  SNPFREGS                PRINT REGS
 SNPFLAG.SNPFADDR  20 ONES         47290  1 5670.                FLAG  SNPFADDR                DUMP STORAGE
 SNPFLAG.SNPFSCON  10 ONES         47295  1 5671.                FLAG  SNPFSCON                DUMP STORAGE - S TYPE
 SNPFLAG.SNPFWTO   08 ONES         47300  1 5672.                FLAG  SNPFWTO                 WRITE TO CONSOLE
 SNPFLAG.SNPFWTL   04 ONES         47305  1 5673.                FLAG  SNPFWTL                 WRITE TO SYSLOG
                                   47310  1 5674.
 000001                            47311  1 5675.     SNPCNT     DS    X                       LENGTH OR NUMBER OF REGS
 000002                            47312  1 5676.     SNPADDR    DS    AL4                     ADDRESS
                                   47313  1 5677.     SNPSCON    EQU   SNPADDR+2,2,C'H'
                                   47314  1 5678.     SNPREGS    EQU   SNPADDR+2,2,C'H'
 000006                00006 00006 47315    5679.              END
-
                                   47325    5681.     *******************************************************************
                                   47326    5682.     *                                                                 *
                                   47327    5683.     *       SNAPSEG - ORVSNAP SEG work area                           *
                                   47328    5684.     *                                                                 *
                                   47329    5685.     *******************************************************************
0000000                00000 00096 47331    5687.     SNAPSEG  RECORD BEGIN
 000000                            47339  1 5688.     SNSEGCB    DS    XL(L'SEGCBD)            Seg control block
 000028                            47340  1 5689.     SNAPBUFF   DS    CL110                   Buffer
 000096                00096 00096 47341    5690.              END
-
                                   47351    5692.     *******************************************************************
                                   47352    5693.     *                                                                 *
                                   47353    5694.     *       SNAPWORK - ORVSNAP work area                              *
                                   47354    5695.     *                                                                 *
                                   47355    5696.     *******************************************************************
0000000                00000 00030 47357    5698.     SNAPWORK RECORD BEGIN
 000000                            47365  1 5699.     SNWPARM    DS    XL(L'SNAPPARM)
 000008                            47366  1 5700.     SNWSCB     DS    A                       SEGCB location
 00000C                            47367  1 5701.     SNWBUFF    DS    A                       Local data buffer
 000010                            47368  1 5702.     SNWIA      DS    A                       Instruct addr of snap request
 000014                            47369  1 5703.     SNWGVA     DS    A                       Guest virtual address
 000018                            47370  1 5704.     SNWREG     DS    A                       Register number work area
 000020                            47371  1 5705.     SNWADDRS   DS    2D                      Address/length pairs
 000030                00030 00030 47372    5706.              END
1GSTINTF  (GSTI00) (09:40) (22MAR04) IHAPSAE  - PSA Extension (ESAME)                                                       Page  253
0Loc    Object Code    Addr1 Addr2  Stmt Lv Lineno    Source Statement           (Hibal 5, Asmedit 3.3)  HLASM R4.0  2004/03/22 09.40
+___    ______ ____    _____ _____  ____ __ ______    ______ _________
00072A0                            47382    5708.              LTORG
 0072A0 0000000F                   47384                             =X'0000000F'
 0072A4 0000000E                   47385                             =F'14'
 0072A8 00001000                   47386                             =A(4096)
 0072AC 7FFFF000                   47387                             =X'7FFFF000'
 0072B0 00005180                   47388                             =A(GVA)
 0072B4 00000004                   47389                             =A(4)
 0072B8 00000000                   47390                             =V(MEMGET)
 0072BC 00000000                   47391                             =V(PARMDO)
 0072C0 30000000                   47392                             =X'30000000'
 0072C4 00000000                   47393                             =V(MEMFREE)
 0072C8 00000064                   47394                             =A(100)
 0072CC 0000000F                   47395                             =A(15)
 0072D0 0006                       47396                             =Y(6)
 0072D2 0004                       47397                             =Y(4)
 0072D4 0500                       47398                             =Y(MINMEG*256)
 0072D6 01             072F0 08402 47399                             =X'01'
1GSTINTF  (GSTI00) (09:40) (22MAR04) IHAPSAE  - PSA Extension (ESAME)                                                       Page  254
0Loc    Object Code    Addr1 Addr2  Stmt Lv Lineno    Source Statement           (Hibal 5, Asmedit 3.3)  HLASM R4.0  2004/03/22 09.40
+___    ______ ____    _____ _____  ____ __ ______    ______ _________
0                                  47404    5710.     *******************************************************************
                                   47405    5711.     *                                                                 *
                                   47406    5712.     *   DTSNAP  - This is a DIAGNOSE service routine.  It displays    *
                                   47407    5713.     *             registers or memory in the same manner as the       *
                                   47408    5714.     *             QSNAP SVC.                                          *
                                   47409    5715.     *                                                                 *
                                   47410    5716.     *                                                                 *
                                   47411    5717.     *      Input - INTERP dsect                                       *
                                   47412    5718.     *                                                                 *
                                   47413    5719.     *     Output - none                                               *
                                   47414    5720.     *                                                                 *
                                   47415    5721.     *                                                                 *
                                   47416    5722.     *******************************************************************
-0072F0                            47418    5724.     DTSNAP   PROC  INTERP,SNAPWORK,SCOPE=LOCAL
 0072F0 C4E3E2D5C1D74040           47423             +
 0072F8 0008/0030                  47424             +
 0072FC 900F D004/18AF       00004 47426             +
 USING  DTSNAP,R10
 007302 50D0 C000/18CD       00000 47441             +
 007308 9680 C000      00000       47443             +
 USING  INTERP-72,R12
 AUSING (SNAPWORK,INTERP+8)
 00730C 41D0 C080            00080 47462             +
 007310 5870 C048            00000 47463    5725.              L     RY,INTCPUB              Parm is the CPUB pointer
 USING  CPUB,R7                    47464    5726.              WITH  (CPUB,RY)
 AUSING (SNAPPARM,SNWPARM)         47477    5727.              WITH  (SNAPPARM,SNWPARM)
 007314                            47484    5728.              CLEAR SNAPWORK
 007314 D72F C050 C050 00000 00000 47490             +
                                   47491    5729.     *
                                   47492    5730.     *  First set pointers to parameters
                                   47493    5731.     *
 00731A 5840 711C            0011C 47494    5732.              L     RJ,SIEPSW+4             PSW Instruction address
 00731E 5440 AE8C            08188 47495    5733.              N     RJ,=X'7FFFFFFF'
 007322 5040 C060            00010 47496    5734.              ST    RJ,SNWIA                Save location
 007326 4120 C050            00000 47497    5735.              LA    RA,SNAPPARM             Work area address
 00732A 4130 0006            00006 47498    5736.              LA    RB,L'SNAPPARM            and length
                                   47499    5737.     *
                                   47500    5738.     *  Check user area - page by page
                                   47501    5739.     *
 00732E                            47502    5740.              LOOP  BEGIN
 00732E 1854                       47508  1 5741.                LR    RK,RJ
 007330 5E50 AE90            0818C 47509  1 5742.                AL    RK,=A(4096)             Calculate
 007334 5450 AE94            08190 47510  1 5743.                N     RK,=X'7FFFF000'          Length on
 007338 1B54                       47511  1 5744.                SR    RK,RJ                     this page
 00733A 1953/47D0 A046       07342 47512  1 5745.                CEIL  RK,RB                   Not more than total
 007340 1853                       47517  1          +
                                   47518  1 5746.     *
                                   47519  1 5747.     *  Validate user area
                                   47520  1 5748.     *
 USING  GVAPARM-72,R13             47521  1 5749.                PSET  GVAPARM
 007342 D70B D048 D048 00000 00000 47538  1          +
 007348 5070 D048            00000 47539  1 5750.                ST    RY,GVACPUB              Set the CPUB pointer
 00734C 5040 D04C            00004 47540  1 5751.                ST    RJ,GVAVLOC              Starting location
 007350 58F0 AE98/0DEF       08194 47541  1 5752.                ACALL GVA
1GSTINTF  (GSTI00) (09:40) (22MAR04) IHAPSAE  - PSA Extension (ESAME)                                                       Page  255
0Current Usings:  (CPUB,R7) (DTSNAP,R10) (INTERP-72,R12) (GVAPARM-72,R13)
0Loc    Object Code    Addr1 Addr2  Stmt Lv Lineno    Source Statement           (Hibal 5, Asmedit 3.3)  HLASM R4.0  2004/03/22 09.40
+___    ______ ____    _____ _____  ____ __ ______    ______ _________
0                                  47548  1 5753.     *
                                   47549  1 5754.     *  Area not in memory - cause a page fault
                                   47550  1 5755.     *
 007356 5900 AE9C            08198 47551  1 5756.                IF    (RVR,GT,4),BEGIN        Not currently in memory
 00735A 47D0 A0A4            073A0 47563  1          +
 00735E 5810 7070/18E2       00070 47568  2 5757.                  PIINT CODE=(RVR),EXA=GVAVLOC,ILEN=4,BACK=YES
 USING  PZERO,R1
 007364 B20B 0000                  47588  3          +
 007368 B20A 0000/18F2 00000       47589  3          +
 00736E 182E                       47591  3          +
 007370 D207 1028 7118 00028 00118 47592  3          +
 007376 D207 7118 1068 00118 00068 47593  3          +
 00737C 4000 108E            0008E 47594  3          +
 007380 D203 1090 D04C 00090 00004 47595  3          +
 007386 D201 108C AEEC 0008C 081E8 47596  3          +
 00738C 58E0 102C            0002C 47597  3          +
 007390 4BE0 108C            0008C 47598  3          +
 007394 50E0 102C            0002C 47599  3          +
 007398 B20A F000      00000       47602  2          +
 DROP   PZERO,R1
 00739C 47F0 A524            07820 47611  2 5758.                  EXIT  DTSNAP
 0073A0                            47614  1 5759.                END   ,
                                   47618  1 5760.     *
                                   47619  1 5761.     *  Copy parameters into work area
                                   47620  1 5762.     *
 0073A0 58E0 D050            00008 47621  1 5763.                L     R14,GVAMLOC             MVS virtual address
 0073A4 18F5                       47622  1 5764.                LR    R15,RK                  Length this page
 0073A6 0E2E                       47623  1 5765.                MVCL  RA,R14                  Move this portion
 0073A8 1233/47D0 A0B8       073B4 47624  1 5766.                IF    (RB,NP),EXIT
 0073AE 1A45                       47641  1 5767.                AR    RJ,RK                   To next location
 0073B0 47F0 A032            0732E 47642    5768.              END   ,
                                   47647    5769.     *
                                   47648    5770.     *  Request is for a memory area or a message - we must now check
                                   47649    5771.     *      that area too
                                   47650    5772.     *
 0073B4 91B0 C050      00000       47651    5773.              IF    SNPFADDR+SNPFSCON+SNPFMSG,BEGIN
 0073B8 4780 A1F2            074EE 47668             +
                                   47673  1 5774.     *
                                   47674  1 5775.     *  First translate base-displacement
                                   47675  1 5776.     *
 0073BC 9190 C050      00000       47676  1 5777.                IF    SNPFSCON+SNPFMSG,BEGIN
 0073C0 4780 A106            07402 47689  1          +
 0073C4 4810 C054            00004 47694  2 5778.                  LH    RS,SNPSCON              Base register
 0073C8 8810 000C            0000C 47695  2 5779.                  SRL   RS,12                   Move reg field to low order
 0073CC 5410 AEA0            0819C 47696  2 5780.                  N     RS,=X'0000000F'         Isolate the r1 field
 0073D0 5910 AEA4            081A0 47697  2 5781.                  LREGA RS,(RS)                 Get the Address of the Reg
 0073D4 4720 A0E8            073E4 47703  2          +
 0073D8 4740 A0F0            073EC 47704  2          +
 0073DC 4110 7110            00110 47705  2          +
 0073E0 47F0 A0F8            073F4 47706  2          +
 0073E4 4110 7114            00114 47707  2          +
 0073E8 47F0 A0F8            073F4 47708  2          +
 0073EC 8910 0002            00002 47709  2          +
 0073F0 4111 70BC            000BC 47710  2          +
1GSTINTF  (GSTI00) (09:40) (22MAR04) IHAPSAE  - PSA Extension (ESAME)                                                       Page  256
0Current Usings:  (CPUB,R7) (DTSNAP,R10) (INTERP-72,R12) (GVAPARM-72,R13)
0Loc    Object Code    Addr1 Addr2  Stmt Lv Lineno    Source Statement           (Hibal 5, Asmedit 3.3)  HLASM R4.0  2004/03/22 09.40
+___    ______ ____    _____ _____  ____ __ ______    ______ _________
00073F4 5840 1000            00000 47713  2 5782.                  L     RJ,@RS                  Get the value in rj
 0073F8 4810 C054            00004 47714  2 5783.                  LH    RS,SNPSCON              Base - displacement
 0073FC 5410 AEA8            081A4 47715  2 5784.                  N     RS,=X'00000FFF'         Isolate displacement
 007400 1E41                       47716  2 5785.                  ALR   RJ,RS                   Address of area or message
 007402                            47717  1 5786.                END   ,
 007402 A10A           07402 073C2 47721  1 5787.                ELSE  'ICM  RJ,B"1111",SNPADDR'     Otherwise get address
 007402 47F0 A10E            0740A 47726  1          +
 007406 BF4F C052            00002 47733  1          +
 00740A 4140 4000            00000 47738  1 5788.                LA    RJ,@RJ
 00740E 5040 C064            00014 47739  1 5789.                ST    RJ,SNWGVA               Guest virtual
                                   47740  1 5790.     *
                                   47741  1 5791.     *  Check data area - page by page
                                   47742  1 5792.     *
 007412 1F33/4330 C051       00001 47743  1 5793.                LC    RB,SNPCNT               User supplied length
 007418 1B22                       47750  1 5794.                CLEAR RA                      CLEAR INDEX
 00741A                            47754  1 5795.                LOOP  BEGIN
 00741A 5850 AE90            0818C 47760  2 5796.                  L     RK,=A(4096)             Calculate
 00741E 1E54                       47761  2 5797.                  ALR   RK,RJ
 007420 5450 AE94            08190 47762  2 5798.                  N     RK,=X'7FFFF000'          Length on
 007424 1B54                       47763  2 5799.                  SR    RK,RJ                     this page
 007426 1953/47D0 A132       0742E 47764  2 5800.                  CEIL  RK,RB                   Not more than total
 00742C 1853                       47769  2          +
                                   47770  2 5801.     *
                                   47771  2 5802.     *  Validate data area
                                   47772  2 5803.     *
 00742E                            47773  2 5804.                  PSET  GVAPARM
 00742E D70B D048 D048 00000 00000 47783  2          +
 007434 5070 D048            00000 47784  2 5805.                  ST    RY,GVACPUB              Set the CPUB pointer
 007438 5040 D04C            00004 47785  2 5806.                  ST    RJ,GVAVLOC               Location
 00743C 58F0 AE98/0DEF       08194 47786  2 5807.                  ACALL GVA
                                   47793  2 5808.     *
                                   47794  2 5809.     *  Area not in memory - cause a page fault
                                   47795  2 5810.     *
 007442 5900 AE9C            08198 47796  2 5811.                  IF    (RVR,GT,4),BEGIN        Not currently in memory
 007446 47D0 A190            0748C 47808  2          +
 00744A 5810 7070/18E2       00070 47813  3 5812.                    PIINT CODE=(RVR),EXA=GVAVLOC,ILEN=4,BACK=YES
 USING  PZERO,R1
 007450 B20B 0000                  47833  4          +
 007454 B20A 0000/18F2 00000       47834  4          +
 00745A 182E                       47836  4          +
 00745C D207 1028 7118 00028 00118 47837  4          +
 007462 D207 7118 1068 00118 00068 47838  4          +
 007468 4000 108E            0008E 47839  4          +
 00746C D203 1090 D04C 00090 00004 47840  4          +
 007472 D201 108C AEEC 0008C 081E8 47841  4          +
 007478 58E0 102C            0002C 47842  4          +
 00747C 4BE0 108C            0008C 47843  4          +
 007480 50E0 102C            0002C 47844  4          +
 007484 B20A F000      00000       47847  3          +
 DROP   PZERO,R1
 007488 47F0 A524            07820 47856  3 5813.                    EXIT  DTSNAP
 00748C                            47859  2 5814.                  END   ,
                                   47863  2 5815.     *
                                   47864  2 5816.     *  Update location and lengths
1GSTINTF  (GSTI00) (09:40) (22MAR04) IHAPSAE  - PSA Extension (ESAME)                                                       Page  257
0Current Usings:  (CPUB,R7) (DTSNAP,R10) (INTERP-72,R12) (GVAPARM-72,R13)
0Loc    Object Code    Addr1 Addr2  Stmt Lv Lineno    Source Statement           (Hibal 5, Asmedit 3.3)  HLASM R4.0  2004/03/22 09.40
+___    ______ ____    _____ _____  ____ __ ______    ______ _________
0                                  47865  2 5817.     *
 00748C 5810 D050            00008 47866  2 5818.                  L     RS,GVAMLOC              Get MVS virtual address
 007490 5012 C070            00020 47867  2 5819.                  ST    RS,SNWADDRS(RA)         Save location
 007494 5052 C074            00024 47868  2 5820.                  ST    RK,SNWADDRS+4(RA)        and length
 007498 1A45                       47869  2 5821.                  AR    RJ,RK                   To next location
 00749A 1B35                       47870  2 5822.                  SR    RB,RK                    reduce length remaining
 00749C 1233/47D0 A1AE       074AA 47871  2 5823.                  IF    (RB,NP),EXIT            All done
 0074A2 4120 2008            00008 47888  2 5824.                  LA    RA,@RA+8                Reset index
 0074A6 47F0 A11E            0741A 47889  1 5825.                END   ,
                                   47894  1 5826.     *
                                   47895  1 5827.     *  Mark end of list
                                   47896  1 5828.     *
 0074AA 4122 C070            00020 47897  1 5829.                LA    RA,SNWADDRS(RA)         List pointer
 0074AE 9680 2000      00000       47898  1 5830.                SET   @RA.X'80'                Mark end
                                   47905  1 5831.     *
                                   47906  1 5832.     *  Get a buffer for the data
                                   47907  1 5833.     *
 DROP   GVAPARM-72,R13             47908  1 5834.                MEMGET 256,TYPE=(LOCAL,BELOW16M)
 USING  @MEMGET-72,R13
 0074B2 D709 D048 D048 00000 00000 47930  1          +
 0074B8 4100 0100            00100 47937  1          +
 0074BC 5000 D04C            00004 47938  1          +
 0074C0 9201 D051      00009       47945  1          +
 0074C4 58F0 AEAC/0DEF       081A8 47948  1          +
 0074CA 5000 C05C            0000C 47950  1 5835.                ST    RVR,SNWBUFF             Save pointer
                                   47951  1 5836.     *
                                   47952  1 5837.     *  Move the user supplied data
                                   47953  1 5838.     *
 0074CE 5820 C05C            0000C 47954  1 5839.                L     RA,SNWBUFF              Local buffer
 0074D2 4110 C070            00020 47955  1 5840.                LA    RS,SNWADDRS             Address/length words
 0074D6                            47956  1 5841.                LOOP  BEGIN
 0074D6 98EF 1000            00000 47962  2 5842.                  LM    R14,R15,@RS
 0074DA 183F                       47963  2 5843.                  LR    RB,R15                  Length of this portion
 0074DC 0E2E                       47964  2 5844.                  MVCL  RA,R14                  Move this portion
 0074DE 9180 1000      00000       47965  2 5845.                  IF    @RS.X'80',EXIT          End of list
 0074E2 4710 A1F2            074EE 47978  2          +
 0074E6 4110 1008            00008 47984  2 5846.                  LA    RS,@RS+8                Next entry
 0074EA 47F0 A1DA            074D6 47985  1 5847.                END   ,
 0074EE                            47990    5848.              END   ,
                                   47994    5849.     *
                                   47995    5850.     *  Update PSW address
                                   47996    5851.     *
 0074EE 4120 0006            00006 47997    5852.              LA    RA,L'SNAPPARM           Length of parameters
 0074F2 5E20 711C            0011C 47998    5853.              AL    RA,SIEPSW+4             Old PSW Instruction address
 0074F6 5020 711C            0011C 47999    5854.              ST    RA,SIEPSW+4             New PSW Instruction address
                                   48000    5855.     *
                                   48001    5856.     *  Create SEG work area
                                   48002    5857.     *
 0074FA                            48003    5858.              MEMGET  L'SNAPSEG             Get SEG and buffer areas
 0074FA D709 D048 D048 00000 00000 48015             +
 007500 4100 0096            00096 48022             +
 007504 5000 D04C            00004 48023             +
 007508 9211 D051      00009       48033             +
 00750C 58F0 AEAC/0DEF       081A8 48036             +
1GSTINTF  (GSTI00) (09:40) (22MAR04) IHAPSAE  - PSA Extension (ESAME)                                                       Page  258
0Current Usings:  (CPUB,R7) (DTSNAP,R10) (INTERP-72,R12) (@MEMGET-72,R13)
0Loc    Object Code    Addr1 Addr2  Stmt Lv Lineno    Source Statement           (Hibal 5, Asmedit 3.3)  HLASM R4.0  2004/03/22 09.40
+___    ______ ____    _____ _____  ____ __ ______    ______ _________
0007512 5000 C058            00008 48038    5859.              ST    RVR,SNWSCB
 007516 1860                       48039    5860.              LR    RX,RVR
 USING  SNAPSEG,R6                 48040    5861.              WITH  (SNAPSEG,RX)
 AUSING (SEGCBD,SNSEGCB)           48053    5862.              WITH  (SEGCBD,SNSEGCB)
 DROP   @MEMGET-72,R13             48060    5863.              SEGINIT SNAPBUFF,,LA:SNSEGCB,RTN=SNAPOUT
 USING  @SEGINIT-72,R13
 007518 D70D D048 D048 00000 00000 48081             +
 00751E 4100 6028            00028 48094             +
 007522 5000 D050            00008 48099             +
 007526 4100 006E            0006E 48111             +
 00752A 4000 D054            0000C 48116             +
 00752E 4100 A53A            07836 48128             +
 007532 5000 D04C            00004 48133             +
 007536 4100 6000            00000 48147             +
 00753A 5000 D048            00000 48152             +
 00753E 58F0 AEB0/0DEF       081AC 48155             +
 007544 4110 C050            00000 48157    5864.              LA    RS,SNWPARM              Snap parms
 007548 5010 6014            00014 48158    5865.              ST    RS,SEGUSER               for output routine
 DROP   @SEGINIT-72,R13            48159    5866.              SEG   'Orvsnap at '
 USING  @SEG-72,R13
 00754C D70C D048 D048 00000 00000 48180             +
 007552 4100 AEF4            081F0 48189             +
 007556 5000 D04C            00004 48194             +
 00755A 4100 000B            0000B 48206             +
 00755E 5000 D050            00008 48211             +
 007562 4100 6000            00000 48225             +
 007566 5000 D048            00000 48230             +
 00756A 58F0 AEB4/0DEF       081B0 48233             +
 007570                            48235    5867.              SEGHEX SNWIA ,4,SNAPSEG
 007570 D70C D048 D048 00000 00000 48246             +
 007576 4100 C060            00010 48259             +
 00757A 5000 D04C            00004 48264             +
 00757E 4100 0004            00004 48276             +
 007582 5000 D050            00008 48281             +
 007586 4100 6000            00000 48295             +
 00758A 5000 D048            00000 48300             +
 00758E 58F0 AEB8/0DEF       081B4 48303             +
 007594                            48305    5868.              SEG   ':'
 007594 D70C D048 D048 00000 00000 48316             +
 00759A 4100 AEFF            081FB 48325             +
 00759E 5000 D04C            00004 48330             +
 0075A2 4100 0001            00001 48342             +
 0075A6 5000 D050            00008 48347             +
 0075AA 4100 6000            00000 48361             +
 0075AE 5000 D048            00000 48366             +
 0075B2 58F0 AEB4/0DEF       081B0 48369             +
 0075B8                            48371    5869.              SEGEOR ,
 0075B8 D70C D048 D048 00000 00000 48383             +
 0075BE D703 D050 D050 00008 00008 48391             +
 0075C4 4100 6000            00000 48405             +
 0075C8 5000 D048            00000 48410             +
 0075CC 9610 D054      0000C       48416             +
 0075D0 58F0 AEB4/0DEF       081B0 48419             +
                                   48421    5870.     *
1GSTINTF  (GSTI00) (09:40) (22MAR04) IHAPSAE  - PSA Extension (ESAME)                                                       Page  259
0Current Usings:  (SNAPSEG,R6) (CPUB,R7) (DTSNAP,R10) (INTERP-72,R12) (@SEG-72,R13)
0Loc    Object Code    Addr1 Addr2  Stmt Lv Lineno    Source Statement           (Hibal 5, Asmedit 3.3)  HLASM R4.0  2004/03/22 09.40
+___    ______ ____    _____ _____  ____ __ ______    ______ _________
0                                  48422    5871.     *  Process register requests
                                   48423    5872.     *
 0075D6 9140 C050      00000       48424    5873.              IF    SNPFREGS,BEGIN
 0075DA 47E0 A458            07754 48434             +
 0075DE 5820 AEBC            081B8 48439  1 5874.                L     RA,=X'00008000'         Bit mask
 0075E2 1B33                       48440  1 5875.                CLEAR RB                      Register number
 0075E4 1B44                       48444  1 5876.                CLEAR RJ                      Counter
 0075E6 5930 AEC0            081BC 48448  1 5877.                WHILE (RB,LT,16),BEGIN
 0075EA 47B0 A434            07730 48462  1          +
 0075EE 1FFF/BFF3 C054       00004 48467  2 5878.                  LCM   R15,B'0011',SNPREGS     Register mask
                                   48472  2 5879.     *
                                   48473  2 5880.     *  Format a register
                                   48474  2 5881.     *
 0075F4 14F2/4780 A428       07724 48475  2 5882.                  IF    ('NR  R15,RA',NZ),BEGIN    Wants this one
 0075FA                            48488  3 5883.                    SEG   'R'
 0075FA D70C D048 D048 00000 00000 48499  3          +
 007600 4100 AF00            081FC 48508  3          +
 007604 5000 D04C            00004 48513  3          +
 007608 4100 0001            00001 48525  3          +
 00760C 5000 D050            00008 48530  3          +
 007610 4100 6000            00000 48544  3          +
 007614 5000 D048            00000 48549  3          +
 007618 58F0 AEB4/0DEF       081B0 48552  3          +
 DROP   @SEG-72,R13                48554  3 5884.                    BTD   (RB),SNWREG,2           Convert register number
 USING  @BTD-72,R13
 00761E D70C D048 D048 00000 00000 48575  3          +
 007624 5030 D048            00000 48585  3          +
 007628 4100 C068            00018 48598  3          +
 00762C 5000 D04C            00004 48603  3          +
 007630 4100 0002            00002 48615  3          +
 007634 5000 D050            00008 48620  3          +
 007638 58F0 AEC4/0DEF       081C0 48623  3          +
 00763E 96F0 C068      00018       48625  3 5885.                    OI    SNWREG,C'0'              Force leading zero
 DROP   @BTD-72,R13                48626  3 5886.                    SEG   SNWREG,2                  and then seg it
 USING  @SEG-72,R13
 007642 D70C D048 D048 00000 00000 48647  3          +
 007648 4100 C068            00018 48660  3          +
 00764C 5000 D04C            00004 48665  3          +
 007650 4100 0002            00002 48677  3          +
 007654 5000 D050            00008 48682  3          +
 007658 4100 6000            00000 48696  3          +
 00765C 5000 D048            00000 48701  3          +
 007660 58F0 AEB4/0DEF       081B0 48704  3          +
 007666                            48706  3 5887.                    SEG   ' = '
 007666 D70C D048 D048 00000 00000 48717  3          +
 00766C 4100 AF01            081FD 48726  3          +
 007670 5000 D04C            00004 48731  3          +
 007674 4100 0003            00003 48743  3          +
 007678 5000 D050            00008 48748  3          +
 00767C 4100 6000            00000 48762  3          +
 007680 5000 D048            00000 48767  3          +
 007684 58F0 AEB4/0DEF       081B0 48770  3          +
 00768A 1813/5910 AEA4       081A0 48772  3 5888.                    LREGA RS,(RB)                 Address of register contents
 007690 4720 A3A4            076A0 48779  3          +
1GSTINTF  (GSTI00) (09:40) (22MAR04) IHAPSAE  - PSA Extension (ESAME)                                                       Page  260
0Current Usings:  (SNAPSEG,R6) (CPUB,R7) (DTSNAP,R10) (INTERP-72,R12) (@SEG-72,R13)
0Loc    Object Code    Addr1 Addr2  Stmt Lv Lineno    Source Statement           (Hibal 5, Asmedit 3.3)  HLASM R4.0  2004/03/22 09.40
+___    ______ ____    _____ _____  ____ __ ______    ______ _________
0007694 4740 A3AC            076A8 48780  3          +
 007698 4110 7110            00110 48781  3          +
 00769C 47F0 A3B4            076B0 48782  3          +
 0076A0 4110 7114            00114 48783  3          +
 0076A4 47F0 A3B4            076B0 48784  3          +
 0076A8 8910 0002            00002 48785  3          +
 0076AC 4111 70BC            000BC 48786  3          +
 0076B0                            48789  3 5889.                    SEGHEX @RS,4                   seg that
 0076B0 D70C D048 D048 00000 00000 48800  3          +
 0076B6 4100 1000            00000 48813  3          +
 0076BA 5000 D04C            00004 48818  3          +
 0076BE 4100 0004            00004 48830  3          +
 0076C2 5000 D050            00008 48835  3          +
 0076C6 4100 6000            00000 48849  3          +
 0076CA 5000 D048            00000 48854  3          +
 0076CE 58F0 AEB8/0DEF       081B4 48857  3          +
 0076D4                            48859  3 5890.                    SEG   '  '
 0076D4 D70C D048 D048 00000 00000 48870  3          +
 0076DA 4100 AEEE            081EA 48879  3          +
 0076DE 5000 D04C            00004 48884  3          +
 0076E2 4100 0002            00002 48896  3          +
 0076E6 5000 D050            00008 48901  3          +
 0076EA 4100 6000            00000 48915  3          +
 0076EE 5000 D048            00000 48920  3          +
 0076F2 58F0 AEB4/0DEF       081B0 48923  3          +
 0076F8 5E40 AEC8            081C4 48925  3 5891.                    INCR  RJ                      Number formatted
                                   48928  3 5892.     *
                                   48929  3 5893.     *  Four registers have been displayed, signal end of line
                                   48930  3 5894.     *
 0076FC 5940 AE9C            08198 48931  3 5895.                    IF    (RJ,EQ,4),BEGIN
 007700 4770 A428            07724 48943  3          +
 007704                            48948  4 5896.                      SEGEOR ,
 007704 D70C D048 D048 00000 00000 48960  4          +
 00770A D703 D050 D050 00008 00008 48968  4          +
 007710 4100 6000            00000 48982  4          +
 007714 5000 D048            00000 48987  4          +
 007718 9610 D054      0000C       48993  4          +
 00771C 58F0 AEB4/0DEF       081B0 48996  4          +
 007722 1B44                       48998  4 5897.                      CLEAR RJ
 007724                            49002  3 5898.                    END   ,
 007724                            49006  2 5899.                  END   ,
 007724 8820 0001            00001 49010  2 5900.                  SRL   RA,1                    Update bit mask
 007728 5E30 AEC8            081C4 49011  2 5901.                  INCR  RB                      Update register number
 00772C 47F0 A2EA            075E6 49014  1 5902.                END   ,
 007730 1244/4780 A458       07754 49019  1 5903.                IF    (RJ,NZ),'SEGEOR'        Force out last buffer
 007736 D70C D048 D048 00000 00000 49046  2          +
 00773C D703 D050 D050 00008 00008 49054  2          +
 007742 4100 6000            00000 49068  2          +
 007746 5000 D048            00000 49073  2          +
 00774A 9610 D054      0000C       49079  2          +
 00774E 58F0 AEB4/0DEF       081B0 49082  1          +
 007754                            49088    5904.              END   ,
                                   49092    5905.     *
                                   49093    5906.     *  Process memory requests
1GSTINTF  (GSTI00) (09:40) (22MAR04) IHAPSAE  - PSA Extension (ESAME)                                                       Page  261
0Current Usings:  (SNAPSEG,R6) (CPUB,R7) (DTSNAP,R10) (INTERP-72,R12) (@SEG-72,R13)
0Loc    Object Code    Addr1 Addr2  Stmt Lv Lineno    Source Statement           (Hibal 5, Asmedit 3.3)  HLASM R4.0  2004/03/22 09.40
+___    ______ ____    _____ _____  ____ __ ______    ______ _________
0                                  49094    5907.     *
 007754 A45C           07754 075DC 49095    5908.              ELSEIF SNPFADDR+SNPFSCON,BEGIN
 007754 47F0 A498            07794 49101             +
 007758 9130 C050      00000       49116             +
 00775C 4780 A498            07794 49117             +
 007760 5810 C064            00014 49122  1 5909.                L     RS,SNWGVA               Compute offset
 007764 1311                       49123  1 5910.                LCR   RS,RS
 007766 58F0 C05C            0000C 49124  1 5911.                L     R15,SNWBUFF
 00776A 1A1F                       49125  1 5912.                AR    RS,R15
 DROP   @SEG-72,R13                49126  1 5913.                SEGCORE L:SNWBUFF,LC:SNPCNT,OFFSET=(RS)
 USING  @SEGCORE-72,R13
 00776C D717 D048 D048 00000 00000 49147  1          +
 007772 D203 D04C C05C 00004 0000C 49153  1          +
 007778 D200 D053 C051 0000B 00001 49158  1          +
 00777E 5010 D058            00010 49168  1          +
 007782 96E0 D055      0000D       49181  1          +
 007786 4100 6000            00000 49195  1          +
 00778A 5000 D048            00000 49200  1          +
 00778E 58F0 AECC/0DEF       081C8 49203  1          +
 007794                            49205    5914.              END   ,
                                   49209    5915.     *
                                   49210    5916.     *  Process message requests
                                   49211    5917.     *
 007794 A49C           07794 0775E 49212    5918.              ELSEIF SNPFMSG,BEGIN
 007794 47F0 A4E2            077DE 49218             +
 007798 9180 C050      00000       49230             +
 00779C 47E0 A4E2            077DE 49231             +
 DROP   @SEGCORE-72,R13            49236  1 5919.                SEG   L:SNWBUFF,LC:SNPCNT
 USING  @SEG-72,R13
 0077A0 D70C D048 D048 00000 00000 49257  1          +
 0077A6 D203 D04C C05C 00004 0000C 49263  1          +
 0077AC D200 D053 C051 0000B 00001 49268  1          +
 0077B2 4100 6000            00000 49282  1          +
 0077B6 5000 D048            00000 49287  1          +
 0077BA 58F0 AEB4/0DEF       081B0 49290  1          +
 0077C0                            49292  1 5920.                SEGEOR ,
 0077C0 D70C D048 D048 00000 00000 49304  1          +
 0077C6 D703 D050 D050 00008 00008 49312  1          +
 0077CC 4100 6000            00000 49326  1          +
 0077D0 5000 D048            00000 49331  1          +
 0077D4 9610 D054      0000C       49337  1          +
 0077D8 58F0 AEB4/0DEF       081B0 49340  1          +
 0077DE                            49342    5921.              END   ,
                                   49346    5922.     *
                                   49347    5923.     *  Free work areas
                                   49348    5924.     *
 DROP   @SEG-72,R13                49349    5925.              MEMFREE L'SNAPSEG,A=SNWSCB    Free SEG and buffer areas
 USING  @MEMFREE-72,R13
 0077DE D709 D048 D048 00000 00000 49371             +
 0077E4 4100 0096            00096 49378             +
 0077E8 5000 D04C            00004 49379             +
 0077EC 5800 C058            00008 49383             +
 0077F0 5000 D048            00000 49384             +
 0077F4 9210 D051      00009       49391             +
1GSTINTF  (GSTI00) (09:40) (22MAR04) IHAPSAE  - PSA Extension (ESAME)                                                       Page  262
0Current Usings:  (SNAPSEG,R6) (CPUB,R7) (DTSNAP,R10) (INTERP-72,R12) (@MEMFREE-72,R13)
0Loc    Object Code    Addr1 Addr2  Stmt Lv Lineno    Source Statement           (Hibal 5, Asmedit 3.3)  HLASM R4.0  2004/03/22 09.40
+___    ______ ____    _____ _____  ____ __ ______    ______ _________
00077F8 58F0 AED0/0DEF       081CC 49394             +
 0077FE 5810 C05C            0000C 49396    5926.              L     RS,SNWBUFF              User data buffer
 007802 1211/4780 A524       07820 49397    5927.              IF    (RS,NZ),BEGIN
 007808                            49411  1 5928.                MEMFREE 256,A=(RS),TYPE=(LOCAL,BELOW16M)
 007808 D709 D048 D048 00000 00000 49423  1          +
 00780E 4100 0100            00100 49430  1          +
 007812 5000 D04C            00004 49431  1          +
 007816 5010 D048            00000 49432  1          +
 00781A 58F0 AED0/0DEF       081CC 49435  1          +
 007820                            49437    5929.              END   ,
 007820 981F C008            00008 49441    5930.              PEND
 DROP   SNAPSEG,R6
 DROP   CPUB,R7
 DROP   INTERP-72,R12
 DROP   DTSNAP,R10
 007824 9680 C000/0B0E 00000       49466             +
 DROP   @MEMFREE-72,R13
1GSTINTF  (GSTI00) (09:40) (22MAR04) IHAPSAE  - PSA Extension (ESAME)                                                       Page  263
0Loc    Object Code    Addr1 Addr2  Stmt Lv Lineno    Source Statement           (Hibal 5, Asmedit 3.3)  HLASM R4.0  2004/03/22 09.40
+___    ______ ____    _____ _____  ____ __ ______    ______ _________
0                                  49476    5932.     *******************************************************************
                                   49477    5933.     *                                                                 *
                                   49478    5934.     *   SNAPOUT - This is the output routine for the SNAP service.    *
                                   49479    5935.     *                                                                 *
                                   49480    5936.     *                                                                 *
                                   49481    5937.     *      Input - @SEGRTN                                            *
                                   49482    5938.     *                                                                 *
                                   49483    5939.     *     Output - none                                               *
                                   49484    5940.     *                                                                 *
                                   49485    5941.     *                                                                 *
                                   49486    5942.     *******************************************************************
-00782A                            49488    5944.     SNAPOUT  PROC  @SEGRTN,SCOPE=LOCAL
 00782A E2D5C1D7D6E4E340           49493             +
 007832 0008/0000                  49494             +
 007836 900F D004/18AF       00004 49496             +
 USING  SNAPOUT,R10
 00783C 50D0 C000/18CD       00000 49511             +
 007842 9680 C000      00000       49513             +
 USING  @SEGRTN-72,R12
 007846 41D0 C050            00050 49527             +
 00784A 5870 C048            00000 49528    5945.              L     RY,@SEGRCB              Seg control block address
 USING  SEGCBD,R7                  49529    5946.              WITH  (SEGCBD,RY)
 00784E 9500 7010      00010       49542    5947.              IF    SEGFINIT,EXIT           No initialization needed
 007852 4780 A086            078BC 49554             +
 007856 5820 7014            00014 49560    5948.              L     RA,SEGUSER              Snap parms
 USING  SNAPPARM,R2                49561    5949.              WITH  (SNAPPARM,RA)
 USING  @DOWTO-72,R13              49574    5950.              PSET  @DOWTO
 00785A D709 D048 D048 00000 00000 49591             +
 007860 D203 D048 7000 00000 00000 49592    5951.              MVC   @DWTLOC,SEGADD          Message location
 007866 D201 D04E 700A 00006 0000A 49593    5952.              MVC   @DWTLEN+2(2),SEGCNT      and length
 00786C 9104 2000      00000       49594    5953.              IF    SNPFWTL,'SET  @DWTFSYS'   To system log
 007870 47E0 A042            07878 49604             +
 007874 9680 D050      00008       49615             +
 007878 9108 2000      00000       49620    5954.              IF    SNPFWTO,'SET  @DWTFCON'   To console
 00787C 47E0 A04E            07884 49630             +
 007880 9640 D050      00008       49641             +
 007884 41F0 A2D6/0DEF       07B0C 49646    5955.              LCALL DOWTO                   Go do it
 00788A                            49655    5956.              CLEAR SEGCNT,SEGMCNT,SEGRCNT
 00788A D701 700A 700A 0000A 0000A 49661             +
 007890 D701 700C 700C 0000C 0000C 49666             +
 007896 D701 700E 700E 0000E 0000E 49671             +
 DROP   @DOWTO-72,R13              49672    5957.              SEG   '  ',,(RY)              Force indent
 USING  @SEG-72,R13
 00789C D70C D048 D048 00000 00000 49693             +
 0078A2 4100 A9B4            081EA 49702             +
 0078A6 5000 D04C            00004 49707             +
 0078AA 4100 0002            00002 49719             +
 0078AE 5000 D050            00008 49724             +
 0078B2 5070 D048            00000 49736             +
 0078B6 58F0 A97A/0DEF       081B0 49739             +
 0078BC 981F C008            00008 49741    5958.              PEND
 DROP   SNAPPARM,R2
 DROP   SEGCBD,R7
 DROP   @SEGRTN-72,R12
1GSTINTF  (GSTI00) (09:40) (22MAR04) IHAPSAE  - PSA Extension (ESAME)                                                       Page  264
0Current Usings:  (@SEG-72,R13)
0Loc    Object Code    Addr1 Addr2  Stmt Lv Lineno    Source Statement           (Hibal 5, Asmedit 3.3)  HLASM R4.0  2004/03/22 09.40
+___    ______ ____    _____ _____  ____ __ ______    ______ _________
0DROP   SNAPOUT,R10
 0078C0 9680 C000/0B0E 00000       49766             +
 DROP   @SEG-72,R13
1GSTINTF  (GSTI00) (09:40) (22MAR04) IHAPSAE  - PSA Extension (ESAME)                                                       Page  265
0Loc    Object Code    Addr1 Addr2  Stmt Lv Lineno    Source Statement           (Hibal 5, Asmedit 3.3)  HLASM R4.0  2004/03/22 09.40
+___    ______ ____    _____ _____  ____ __ ______    ______ _________
0                                  49776    5960.     *******************************************************************
                                   49777    5961.     *                                                                 *
                                   49778    5962.     *       WTOWORK -- WTO routine work area                          *
                                   49779    5963.     *                                                                 *
                                   49780    5964.     *******************************************************************
0000000                00000 0001C 49782    5966.     WTOWORK  RECORD BEGIN
 000000                            49790  1 5967.     WTOADDRS   DS    2D                      Address/length pairs
 000010                            49791  1 5968.     WTOULBF    DS    A                       Local buffer
 000014                            49792  1 5969.     WTOULEN    DS    A                       Total length of user data
 000018                            49793  1 5970.     WTOUPRM    DS    A                       Message parameters
 00001C                0001C 0001C 49794    5971.              END   ,
1GSTINTF  (GSTI00) (09:40) (22MAR04) IHAPSAE  - PSA Extension (ESAME)                                                       Page  266
0Loc    Object Code    Addr1 Addr2  Stmt Lv Lineno    Source Statement           (Hibal 5, Asmedit 3.3)  HLASM R4.0  2004/03/22 09.40
+___    ______ ____    _____ _____  ____ __ ______    ______ _________
0                                  49804    5973.     *******************************************************************
                                   49805    5974.     *                                                                 *
                                   49806    5975.     *   DTWTO  - This is a DIAGNOSE service routine.  It writes a     *
                                   49807    5976.     *            message to the MVS console operator.  On entry r1    *
                                   49808    5977.     *            contains the guest virtual address of the message    *
                                   49809    5978.     *            area, r1+1 contains the length of the message and    *
                                   49810    5979.     *            r2 contains control information as follows:          *
                                   49811    5980.     *                                                                 *
                                   49812    5981.     *                Bits 0-28   Reserved                             *
                                   49813    5982.     *                Bit    29   Message should be non-deletable      *
                                   49814    5983.     *                Bit    30   Write message to console             *
                                   49815    5984.     *                Bit    31   Write message to system log          *
                                   49816    5985.     *                                                                 *
                                   49817    5986.     *                                                                 *
                                   49818    5987.     *      Input - INTERP dsect                                       *
                                   49819    5988.     *                                                                 *
                                   49820    5989.     *     Output - none                                               *
                                   49821    5990.     *                                                                 *
                                   49822    5991.     *                                                                 *
                                   49823    5992.     *******************************************************************
-0078C6                            49825    5994.     DTWTO    PROC  INTERP,WTOWORK,SCOPE=LOCAL
 0078C6 C4E3E6E3D6404040           49830             +
 0078CE 0008/0020                  49831             +
 0078D2 900F D004/18AF       00004 49833             +
 USING  DTWTO,R10
 0078D8 50D0 C000/18CD       00000 49848             +
 0078DE 9680 C000      00000       49850             +
 USING  INTERP-72,R12
 AUSING (WTOWORK,INTERP+8)
 0078E2 41D0 C070            00070 49869             +
 0078E6 5870 C048            00000 49870    5995.              L     RY,INTCPUB              Parm is the CPUB pointer
 USING  CPUB,R7                    49871    5996.              WITH  (CPUB,RY)
                                   49884    5997.     *
                                   49885    5998.     *  Get the message address
                                   49886    5999.     *
 0078EA 4810 7156            00156 49887    6000.              LH    RS,SIEINST
 0078EE 8810 0004            00004 49888    6001.              SRL   RS,4                    Move r1 field to low order
 0078F2 5410 A8CA            0819C 49889    6002.              N     RS,=X'0000000F'         Isolate the r1 field
 0078F6 18F1                       49890    6003.              LR    R15,RS                  Copy
 0078F8 5910 A8CE            081A0 49891    6004.              LREGA RS,(RS)                 Get the Address of the Reg
 0078FC 4720 A03A            0790C 49897             +
 007900 4740 A042            07914 49898             +
 007904 4110 7110            00110 49899             +
 007908 47F0 A04A            0791C 49900             +
 00790C 4110 7114            00114 49901             +
 007910 47F0 A04A            0791C 49902             +
 007914 8910 0002            00002 49903             +
 007918 4111 70BC            000BC 49904             +
 00791C 5840 1000            00000 49907    6005.              L     RJ,@RS                  Get message address
1GSTINTF  (GSTI00) (09:40) (22MAR04) IHAPSAE  - PSA Extension (ESAME)                                                       Page  267
0Current Usings:  (CPUB,R7) (DTWTO,R10) (INTERP-72,R12)
0Loc    Object Code    Addr1 Addr2  Stmt Lv Lineno    Source Statement           (Hibal 5, Asmedit 3.3)  HLASM R4.0  2004/03/22 09.40
+___    ______ ____    _____ _____  ____ __ ______    ______ _________
0                                  49909    6007.     *
                                   49910    6008.     *  Get the message length
                                   49911    6009.     *
 007920 181F                       49912    6010.              LR    RS,R15                  r1 field
 007922 5E10 A8F2            081C4 49913    6011.              INCR  RS                      r1+1
 007926 5910 A8FE            081D0 49916    6012.              IF    (RS,GT,15),'CLEAR RS'   Wrap to R0
 00792A 47D0 A05E/1B11       07930 49928             +
 007930 5910 A8CE            081A0 49942    6013.              LREGA RS,(RS)                 Get the Address of the Reg
 007934 4720 A072            07944 49948             +
 007938 4740 A07A            0794C 49949             +
 00793C 4110 7110            00110 49950             +
 007940 47F0 A082            07954 49951             +
 007944 4110 7114            00114 49952             +
 007948 47F0 A082            07954 49953             +
 00794C 8910 0002            00002 49954             +
 007950 4111 70BC            000BC 49955             +
 007954 5830 1000            00000 49958    6014.              L     RB,@RS                  Get length
 007958 5930 A902            081D4 49959    6015.              CEIL  RB,@DWTLMAX              snip it
 00795C 47D0 A092            07964 49968             +
 007960 5830 A902            081D4 49973             +
 007964 5030 C064            00014 49978    6016.              ST    RB,WTOULEN                and save
                                   49979    6017.     *
                                   49980    6018.     *  Get the message parameters
                                   49981    6019.     *
 007968 4810 7156            00156 49982    6020.              LH    RS,SIEINST
 00796C 5410 A8CA            0819C 49983    6021.              N     RS,=X'0000000F'         Isolate the r2 field
 007970 5910 A8CE            081A0 49984    6022.              LREGA RS,(RS)                 Get the Address of the Reg
 007974 4720 A0B2            07984 49990             +
 007978 4740 A0BA            0798C 49991             +
 00797C 4110 7110            00110 49992             +
 007980 47F0 A0C2            07994 49993             +
 007984 4110 7114            00114 49994             +
 007988 47F0 A0C2            07994 49995             +
 00798C 8910 0002            00002 49996             +
 007990 4111 70BC            000BC 49997             +
 007994 D203 C068 1000 00018 00000 50000    6023.              MVC   WTOUPRM,@RS             Get the parameters
                                   50001    6024.     *
                                   50002    6025.     *  Check user area - page by page
                                   50003    6026.     *
 00799A 1B22                       50004    6027.              CLEAR RA
 00799C                            50008    6028.              LOOP  BEGIN
 00799C 5850 A8BA            0818C 50014  1 6029.                L     RK,=A(4096)             Calculate
 0079A0 1E54                       50015  1 6030.                ALR   RK,RJ
 0079A2 5450 A8BE            08190 50016  1 6031.                N     RK,=X'7FFFF000'          Length on
 0079A6 1B54                       50017  1 6032.                SR    RK,RJ                     this page
 0079A8 1953/47D0 A0DE       079B0 50018  1 6033.                CEIL  RK,RB                   Not more than total
 0079AE 1853                       50023  1          +
                                   50024  1 6034.     *
                                   50025  1 6035.     *  Validate user area
                                   50026  1 6036.     *
 USING  GVAPARM-72,R13             50027  1 6037.                PSET  GVAPARM
 0079B0 D70B D048 D048 00000 00000 50044  1          +
 0079B6 5070 D048            00000 50045  1 6038.                ST    RY,GVACPUB              Set the CPUB pointer
 0079BA 5040 D04C            00004 50046  1 6039.                ST    RJ,GVAVLOC               Location
1GSTINTF  (GSTI00) (09:40) (22MAR04) IHAPSAE  - PSA Extension (ESAME)                                                       Page  268
0Current Usings:  (CPUB,R7) (DTWTO,R10) (INTERP-72,R12) (GVAPARM-72,R13)
0Loc    Object Code    Addr1 Addr2  Stmt Lv Lineno    Source Statement           (Hibal 5, Asmedit 3.3)  HLASM R4.0  2004/03/22 09.40
+___    ______ ____    _____ _____  ____ __ ______    ______ _________
00079BE 58F0 A8C2/0DEF       08194 50047  1 6040.                ACALL GVA
                                   50054  1 6041.     *
                                   50055  1 6042.     *  Area not in memory - cause a page fault
                                   50056  1 6043.     *
 0079C4 5900 A8C6            08198 50057  1 6044.                IF    (RVR,GT,4),BEGIN        Not currently in memory
 0079C8 47D0 A13C            07A0E 50069  1          +
 0079CC 5810 7070/18E2       00070 50074  2 6045.                  PIINT CODE=(RVR),EXA=GVAVLOC,ILEN=4,BACK=YES
 USING  PZERO,R1
 0079D2 B20B 0000                  50094  3          +
 0079D6 B20A 0000/18F2 00000       50095  3          +
 0079DC 182E                       50097  3          +
 0079DE D207 1028 7118 00028 00118 50098  3          +
 0079E4 D207 7118 1068 00118 00068 50099  3          +
 0079EA 4000 108E            0008E 50100  3          +
 0079EE D203 1090 D04C 00090 00004 50101  3          +
 0079F4 D201 108C A916 0008C 081E8 50102  3          +
 0079FA 58E0 102C            0002C 50103  3          +
 0079FE 4BE0 108C            0008C 50104  3          +
 007A02 50E0 102C            0002C 50105  3          +
 007A06 B20A F000      00000       50108  2          +
 DROP   PZERO,R1
 007A0A 47F0 A224            07AF6 50117  2 6046.                  EXIT  DTWTO
 007A0E                            50120  1 6047.                END   ,
                                   50124  1 6048.     *
                                   50125  1 6049.     *  Update location and lengths
                                   50126  1 6050.     *
 007A0E 5810 D050            00008 50127  1 6051.                L     RS,GVAMLOC              Get MVS virtual address
 007A12 5012 C050            00000 50128  1 6052.                ST    RS,WTOADDRS(RA)         Save location
 007A16 5052 C054            00004 50129  1 6053.                ST    RK,WTOADDRS+4(RA)        and length
 007A1A 1A45                       50130  1 6054.                AR    RJ,RK                   To next location
 007A1C 1B35                       50131  1 6055.                SR    RB,RK                    reduce length remaining
 007A1E 1233/47D0 A15A       07A2C 50132  1 6056.                IF    (RB,NP),EXIT            All done
 007A24 4120 2008            00008 50149  1 6057.                LA    RA,@RA+8                Reset index
 007A28 47F0 A0CA            0799C 50150    6058.              END   ,
                                   50155    6059.     *
                                   50156    6060.     *  Mark end of list
                                   50157    6061.     *
 007A2C 4122 C050            00000 50158    6062.              LA    RA,WTOADDRS(RA)         List pointer
 007A30 9680 2000      00000       50159    6063.              SET   @RA.X'80'                Mark end
                                   50166    6064.     *
                                   50167    6065.     *  Get a buffer for the message
                                   50168    6066.     *
 007A34 5810 C064            00014 50169    6067.              L     RS,WTOULEN              User data length
 DROP   GVAPARM-72,R13             50170    6068.              MEMGET  @RS,TYPE=(LOCAL,BELOW16M)
 USING  @MEMGET-72,R13
 007A38 D709 D048 D048 00000 00000 50192             +
 007A3E 4100 1000            00000 50199             +
 007A42 5000 D04C            00004 50200             +
 007A46 9201 D051      00009       50207             +
 007A4A 58F0 A8D6/0DEF       081A8 50210             +
 007A50 1840                       50212    6069.              LR    RJ,RVR
                                   50213    6070.     *
                                   50214    6071.     *  Move the user supplied portion
                                   50215    6072.     *
