1                        J E S 2  J O B  L O G  --  S Y S T E M  S Y S B  --  N O D E  R L G
0
 09.41.14 JOB05942 ---- MONDAY,    22 MAR 2004 ----
 09.41.14 JOB05942  ICH70001I GG$PJG   LAST ACCESS AT 09:41:07 ON MONDAY, MARCH 22, 2004
 09.41.14 JOB05942  $HASP373 PJG#IPL  STARTED - INIT 3    - CLASS E - SYS SYSB
 09.41.14 JOB05942  ***  HCMD      STEP $$QUIET
 09.41.14 JOB05942  PURGE * Q=OUTPUT MULTIPLE
 09.41.14 JOB05942  JOB PJG#IPL NOT IN OUTPUT QUEUE
 09.41.15 JOB05942  PJG#IPL .$$QUIET .         RC=0008 TapeIO=0000 DiskIO=0000 CPU=  .01s Elapsed=74.68s
 09.41.15 JOB05942  PJG#IPL .$CND    .         RC=Zero TapeIO=0000 DiskIO=0003 CPU=  .01s Elapsed=75.77s
 09.41.16 JOB05942  PJG#IPL .$UNP    .         RC=Zero TapeIO=0000 DiskIO=0011 CPU=  .05s Elapsed=75.96s
 09.41.19 JOB05942  PJG#IPL .ASM     .         RC=Zero TapeIO=0000 DiskIO=0215 CPU=  .75s Elapsed=76.55s
 09.41.20 JOB05942  PJG#IPL .$EDIT   .         RC=Zero TapeIO=0000 DiskIO=0043 CPU=  .17s Elapsed=79.73s
 09.41.20 JOB05942  PJG#IPL  Ended.  Name=Module: IPLTEXT                Total CPU=  .99s Elapsed=74.68s
 09.41.20 JOB05942
 09.41.20 JOB05942  Execution charges   Priority=Standard   Block=Day
 09.41.20 JOB05942
 09.41.20 JOB05942  CPU Usage          18.00          $11.16   Standard Processing Unit Equivalent
 09.41.20 JOB05942                                   =======
 09.41.20 JOB05942                                    $11.16   Total Job execution charge
 09.41.20 JOB05942
 09.41.20 JOB05942  See back separator page for print charges
 09.41.20 JOB05942
 09.41.20 JOB05942  $HASP395 PJG#IPL  ENDED  ASM=0
1        1 //PJG#IPL  JOB PJG$GG,'Module: IPLTEXT',TIME=1,MSGCLASS=C               JOB05942
           /*JOBPARM HOLD=OUTPUT,LINES=50,CHARS=TN15,NOTIFY=YES
         2 //       EXEC PURGEOLD
         3 XXPURGEOLD PROC
           XX*
           XX* This proc is maintained by Jim Stosick
           XX*
         4 XX$$QUIET  EXEC PGM=HCMDX,PARM='PURGE * Q=OUTPUT MULTIPLE',
           XX         ACCT=(PURGEOLD,SYS3)
         5 //$CND   EXEC PGM=BILBO,REGION=512K,PARM='RECS=100'
         6 //STEPLIB  DD DSN=WYL.GG.ORV.LINKLIB,DISP=SHR
         7 //SYSPRINT DD SYSOUT=$
         8 //SYSUT1   DD DSN=WYL.GG.PJG.OBJ,DISP=OLD
         9 //SYSUT2   DD DSN=WYL.GG.PJG.OBJ,DISP=OLD
        10 //SYSIN    DD DUMMY
        11 //$UNP   EXEC PGM=WUNPRESS,PARM='NUM'
        12 //SYSPRINT DD SYSOUT=$
        13 //SYSUT1   DD DSN=WYL.GG.ORV.SOURCE(IPLTEXT),DISP=SHR
        14 //SYSUT2   DD DSN=&&INPUT,DISP=(,PASS),UNIT=SYSDA,
           //            SPACE=(TRK,(25,25),RLSE),DCB=CARD
        15 //ASM    EXEC PGM=ASMA90,REGION=8M,COND=(0,NE,$UNP),
           //            PARM=('SYSPARM(IPLTEXT),TERM,LANG(EN),OBJ',
           //          'LC(32500),XREF(SHORT),NODECK,NORLD,NODX,NOUS')
           //*STEPLIB  DD DSN=SYS1.SASMMOD1,DISP=SHR
        16 //SYSLIB   DD DSN=SYS3.DUMMYMAC,DISP=SHR,DCB=BLKSIZE=27920
        17 //         DD DSN=WYL.GG.ORV.MACLIB,DISP=SHR
        18 //         DD DSN=WYL.GG.SYS.MACLIB,DISP=SHR
        19 //         DD DSN=SYS1.MACLIB,DISP=SHR
        20 //SYSUT1   DD DSN=&&SYSUT1,UNIT=VIO,DISP=(,DELETE),
           //            SPACE=(4088,(500,250),,CONTIG,ROUND)
        21 //SYSTERM  DD SYSOUT=$
        22 //SYSPRINT DD DSN=&&PRINT,UNIT=SYSDA,DISP=(,PASS),
           //            SPACE=(6650,(250,250),RLSE),
           //            DCB=(BLKSIZE=6650,LRECL=133,RECFM=FB)
        23 //SYSLIN   DD DSN=WYL.GG.PJG.OBJ(IPLTEXT),DISP=OLD
        24 //SYSUDUMP DD SYSOUT=A
        25 //SYSIN    DD DSN=&&INPUT,DISP=(OLD,DELETE)
        26 //$EDIT  EXEC PGM=ASMEDIT,REGION=1M,
           //            COND=EVEN,PARM='STMT,DATA'
        27 //STEPLIB  DD DSN=WYL.GG.SYS.LINKLIB,DISP=SHR
        28 //ASMOUT   DD DSN=&&PRINT,DISP=(OLD,DELETE)
        29 //SYSPRINT DD SYSOUT=A
        30 //SYSUDUMP DD SYSOUT=A
1 STMT NO. MESSAGE
         2 IEFC001I PROCEDURE PURGEOLD WAS EXPANDED USING SYSTEM LIBRARY SYS3.BETAPROC
        14 IGD01010I STORCLAS= TEMP STORGROUP =
        14 IGD01010I STORGRP=VIO ASSIGNED.
        20 IGD01010I STORCLAS= TEMP STORGROUP =
        20 IGD01010I STORGRP=VIO ASSIGNED.
        22 IGD01010I STORCLAS= TEMP STORGROUP =
        22 IGD01010I STORGRP=VIO ASSIGNED.
 ICH70001I GG$PJG   LAST ACCESS AT 09:41:07 ON MONDAY, MARCH 22, 2004
 IEF142I PJG#IPL $$QUIET - STEP WAS EXECUTED - COND CODE 0008
 *********************************************************************************
 *   PJG#IPL /$$QUIET /                    Return Code      0008                 *
 *   Region used      260K (16K user + 244K system)                              *
 *   Extended region  9352K (4K user + 9348K system)                             *
 *                                                                               *
 *   Paging              In      Out                                             *
 *   Private <-> Aux      0        0       CPU time (TCB)   00:00:00.01          *
 *   Private <-> Exp      0        0       CPU time (SRB)   00:00:00.00          *
 *   VIO                  0        0       Elapsed time    920:46:38.28          *
 *   Common               0      ---                                             *
 *                                                                               *
 *                                                                               *
 *   CPU Usage          0.18         $0.11  Standard Processing Unit Equivalent  *
 *                                   $0.11  Total Step execution charge          *
 *                                                                               *
 *    I/O count  DDname   Type Addr           I/O count  DDname   Type Addr      *
 *                         *** No I/O for this step ***                          *
 *********************************************************************************
 IEF373I STEP/$$QUIET /START 2004082.0941
 IEF374I STEP/$$QUIET /STOP  2004082.0941 CPU    0MIN 00.01SEC SRB    0MIN 00.00SEC VIRT    16K SYS   244K EXT       4K SYS    9348K
 IEF236I ALLOC. FOR PJG#IPL $CND
 IEF237I 0401 ALLOCATED TO STEPLIB
 IEF237I JES2 ALLOCATED TO SYSPRINT
 IEF237I 04DC ALLOCATED TO SYSUT1
 IEF237I 04DC ALLOCATED TO SYSUT2
 IEF237I DMY  ALLOCATED TO SYSIN
 IEF142I PJG#IPL $CND - STEP WAS EXECUTED - COND CODE 0000
 IEF285I   WYL.GG.ORV.LINKLIB                           KEPT
 IEF285I   VOL SER NOS= SYSB01.
 IEF285I   GG$PJG.PJG#IPL.JOB05942.D0000101.?           SYSOUT
 IEF285I   WYL.GG.PJG.OBJ                               KEPT
 IEF285I   VOL SER NOS= SYSB05.
 IEF285I   WYL.GG.PJG.OBJ                               KEPT
 IEF285I   VOL SER NOS= SYSB05.
 *********************************************************************************
 *   PJG#IPL /$CND    /                    Return Code      Zero                 *
 *   Region used      280K (16K user + 264K system)                              *
 *   Extended region  9392K (4K user + 9388K system)                             *
 *                                                                               *
 *   Paging              In      Out                                             *
 *   Private <-> Aux      0        0       CPU time (TCB)   00:00:00.01          *
 *   Private <-> Exp      0        0       CPU time (SRB)   00:00:00.00          *
 *   VIO                  0        0       Elapsed time    920:46:37.19          *
 *   Common               0      ---                                             *
 *                                                                               *
 *                                                                               *
 *   CPU Usage          0.18         $0.11  Standard Processing Unit Equivalent  *
 *                                   $0.11  Total Step execution charge          *
 *                                                                               *
 *    I/O count  DDname   Type Addr           I/O count  DDname   Type Addr      *
 *            3  STEPLIB  Disk 0401                   0  SYSPRINT      ----      *
 *            0  SYSUT1   Disk 04DC                   0  SYSUT2   Disk 04DC      *
 *            0  SYSIN         ----                                              *
 *********************************************************************************
 IEF373I STEP/$CND    /START 2004082.0941
 IEF374I STEP/$CND    /STOP  2004082.0941 CPU    0MIN 00.01SEC SRB    0MIN 00.00SEC VIRT    16K SYS   264K EXT       4K SYS    9388K
 IEF236I ALLOC. FOR PJG#IPL $UNP
 IEF237I JES2 ALLOCATED TO SYSPRINT
 IEF237I 0402 ALLOCATED TO SYSUT1
 IGD101I SMS ALLOCATED TO DDNAME (SYSUT2  )
         DSN (SYS04082.T094114.RA000.PJG#IPL.INPUT.H01    )
         STORCLAS (TEMP) MGMTCLAS (        ) DATACLAS (        )
         VOL SER NOS= SCR101
 IEF142I PJG#IPL $UNP - STEP WAS EXECUTED - COND CODE 0000
 IEF285I   GG$PJG.PJG#IPL.JOB05942.D0000102.?           SYSOUT
 IEF285I   WYL.GG.ORV.SOURCE                            KEPT
 IEF285I   VOL SER NOS= SYSB02.
 IGD106I SYS04082.T094114.RA000.PJG#IPL.INPUT.H01     PASSED,    DDNAME=SYSUT2
 *********************************************************************************
 *   PJG#IPL /$UNP    /                    Return Code      Zero                 *
 *   Region used      380K (108K user + 272K system)                             *
 *   Extended region  9468K (4K user + 9464K system)                             *
 *                                                                               *
 *   Paging              In      Out                                             *
 *   Private <-> Aux      0        0       CPU time (TCB)   00:00:00.05          *
 *   Private <-> Exp      0        0       CPU time (SRB)   00:00:00.00          *
 *   VIO                  0        0       Elapsed time    920:46:37.00          *
 *   Common               0      ---                                             *
 *                                                                               *
 *                                                                               *
 *   CPU Usage          0.93         $0.57  Standard Processing Unit Equivalent  *
 *                                   $0.57  Total Step execution charge          *
 *                                                                               *
 *    I/O count  DDname   Type Addr           I/O count  DDname   Type Addr      *
 *            0  SYSPRINT      ----                   2  SYSUT1   Disk 0402      *
 *            9  SYSUT2   Disk 04E3                                              *
 *********************************************************************************
 IEF373I STEP/$UNP    /START 2004082.0941
 IEF374I STEP/$UNP    /STOP  2004082.0941 CPU    0MIN 00.05SEC SRB    0MIN 00.00SEC VIRT   108K SYS   272K EXT       4K SYS    9464K
 IEF236I ALLOC. FOR PJG#IPL ASM
 IEF237I 0402 ALLOCATED TO SYSLIB
 IEF237I 0402 ALLOCATED TO
 IEF237I 04DC ALLOCATED TO
 IEF237I 04A0 ALLOCATED TO
 IGD101I SMS ALLOCATED TO DDNAME (SYSUT1  )
         DSN (SYS04082.T094114.RA000.PJG#IPL.SYSUT1.H01   )
         STORCLAS (TEMP) MGMTCLAS (        ) DATACLAS (        )
         VOL SER NOS= VIO
 IEF237I JES2 ALLOCATED TO SYSTERM
 IGD101I SMS ALLOCATED TO DDNAME (SYSPRINT)
         DSN (SYS04082.T094114.RA000.PJG#IPL.PRINT.H01    )
         STORCLAS (TEMP) MGMTCLAS (        ) DATACLAS (        )
         VOL SER NOS= SCR100
 IEF237I 04DC ALLOCATED TO SYSLIN
 IEF237I JES2 ALLOCATED TO SYSUDUMP
 IGD103I SMS ALLOCATED TO DDNAME SYSIN
 IEF142I PJG#IPL ASM - STEP WAS EXECUTED - COND CODE 0000
 IEF285I   SYS3.DUMMYMAC                                KEPT
 IEF285I   VOL SER NOS= SYSB02.
 IEF285I   WYL.GG.ORV.MACLIB                            KEPT
 IEF285I   VOL SER NOS= SYSB02.
 IEF285I   WYL.GG.SYS.MACLIB                            KEPT
 IEF285I   VOL SER NOS= SYSB05.
 IEF285I   SYS1.MACLIB                                  KEPT
 IEF285I   VOL SER NOS= MVSBR9.
 IGD105I SYS04082.T094114.RA000.PJG#IPL.SYSUT1.H01    DELETED,   DDNAME=SYSUT1
 IEF285I   GG$PJG.PJG#IPL.JOB05942.D0000103.?           SYSOUT
 IGD106I SYS04082.T094114.RA000.PJG#IPL.PRINT.H01     PASSED,    DDNAME=SYSPRINT
 IEF285I   WYL.GG.PJG.OBJ                               KEPT
 IEF285I   VOL SER NOS= SYSB05.
 IEF285I   GG$PJG.PJG#IPL.JOB05942.D0000104.?           SYSOUT
 IGD105I SYS04082.T094114.RA000.PJG#IPL.INPUT.H01     DELETED,   DDNAME=SYSIN
 *********************************************************************************
 *   PJG#IPL /ASM     /                    Return Code      Zero                 *
 *   Region used      8484K (8192K user + 292K system)                           *
 *   Extended region  9952K (412K user + 9540K system)                           *
 *                                                                               *
 *   Paging              In      Out                                             *
 *   Private <-> Aux      0        0       CPU time (TCB)   00:00:00.72          *
 *   Private <-> Exp      0        0       CPU time (SRB)   00:00:00.03          *
 *   VIO                  0        0       Elapsed time    920:46:36.41          *
 *   Common               0      ---                                             *
 *                                                                               *
 *                                                                               *
 *   CPU Usage         13.50         $8.37  Standard Processing Unit Equivalent  *
 *                                   $8.37  Total Step execution charge          *
 *                                                                               *
 *    I/O count  DDname   Type Addr           I/O count  DDname   Type Addr      *
 *           28  SYSLIB   Disk 0402                   0  SYSLIB   Disk 0402      *
 *          134  SYSLIB   Disk 04DC                   0  SYSLIB   Disk 04A0      *
 *            0  SYSUT1   VIO  ----                   0  SYSTERM       ----      *
 *           40  SYSPRINT Disk 038B                   3  SYSLIN   Disk 04DC      *
 *            0  SYSUDUMP      ----                  10  SYSIN    Disk 04E3      *
 *********************************************************************************
 IEF373I STEP/ASM     /START 2004082.0941
 IEF374I STEP/ASM     /STOP  2004082.0941 CPU    0MIN 00.72SEC SRB    0MIN 00.03SEC VIRT  8192K SYS   292K EXT     412K SYS    9540K
 IEF236I ALLOC. FOR PJG#IPL $EDIT
 IEF237I 0402 ALLOCATED TO STEPLIB
 IGD103I SMS ALLOCATED TO DDNAME ASMOUT
 IEF237I JES2 ALLOCATED TO SYSPRINT
 IEF237I JES2 ALLOCATED TO SYSUDUMP
 IEF142I PJG#IPL $EDIT - STEP WAS EXECUTED - COND CODE 0000
 IEF285I   WYL.GG.SYS.LINKLIB                           KEPT
 IEF285I   VOL SER NOS= SYSB02.
 IGD105I SYS04082.T094114.RA000.PJG#IPL.PRINT.H01     DELETED,   DDNAME=ASMOUT
 IEF285I   GG$PJG.PJG#IPL.JOB05942.D0000105.?           SYSOUT
 IEF285I   GG$PJG.PJG#IPL.JOB05942.D0000106.?           SYSOUT
 *********************************************************************************
 *   PJG#IPL /$EDIT   /                    Return Code      Zero                 *
 *   Region used      388K (116K user + 272K system)                             *
 *   Extended region  9468K (4K user + 9464K system)                             *
 *                                                                               *
 *   Paging              In      Out                                             *
 *   Private <-> Aux      0        0       CPU time (TCB)   00:00:00.17          *
 *   Private <-> Exp      0        0       CPU time (SRB)   00:00:00.00          *
 *   VIO                  0        0       Elapsed time    920:46:33.23          *
 *   Common               0      ---                                             *
 *                                                                               *
 *                                                                               *
 *   CPU Usage          3.18         $1.97  Standard Processing Unit Equivalent  *
 *                                   $1.97  Total Step execution charge          *
 *                                                                               *
 *    I/O count  DDname   Type Addr           I/O count  DDname   Type Addr      *
 *            2  STEPLIB  Disk 0402                  41  ASMOUT   Disk 038B      *
 *            0  SYSPRINT      ----                   0  SYSUDUMP      ----      *
 *********************************************************************************
 IEF373I STEP/$EDIT   /START 2004082.0941
 IEF374I STEP/$EDIT   /STOP  2004082.0941 CPU    0MIN 00.17SEC SRB    0MIN 00.00SEC VIRT   116K SYS   272K EXT       4K SYS    9464K
 *********************************************************************************
 *                                                                               *
 *                      S t a n f o r d   U n i v e r s i t y                    *
 *                                                                               *
 *                              *** Job Summary ***                              *
 *                                                                               *
 *   System Id      SYSB                   Input time     09:38:21  Mar 22, 2004 *
 *                                                                               *
 *   System Release SP6.1.0                Start time     09:41:14  Mar 22, 2004 *
 *                                                                               *
 *   Job name       PJG#IPL                Stop  time     00:00:00  Mar 22, 2004 *
 *                                                                               *
 *   Account        PJG$GG                 Elapsed time  920:46:38.28            *
 *                                                                               *
 *   User Name      Module: IPLTEXT        CPU time       00:00:00.96            *
 *                                                                               *
 *   Job class      E                      SRB Time       00:00:00.03            *
 *                                                                               *
 *********************************************************************************
 IEF375I  JOB/PJG#IPL /START 2004082.0941
 IEF376I  JOB/PJG#IPL /STOP  2004082.0941 CPU    0MIN 00.96SEC SRB    0MIN 00.03SEC
1Data set successfully converted from EDIT to FB format
1Assembler Done IPLTEXT No Statements Flagged
1         High Level Assembler Option Summary                   (PTF UQ57391)                                               Page    1
-                                                                                            HLASM R4.0  2004/03/22 09.41
0  No Overriding ASMAOPT Parameters
   Overriding Parameters-  SYSPARM(IPLTEXT),TERM,LANG(EN),OBJ,LC(32500),XREF(SHORT),NODECK,NORLD,NODX,NOUS
   No Process Statements


   Options for this Assembly
0  NOADATA
     ALIGN
   NOASA
     BATCH
     CODEPAGE(047C)
   NOCOMPAT
   NODBCS
 3 NODECK
 3 NODXREF
     ESD
   NOEXIT
     FLAG(0,ALIGN,CONT,NOIMPLEN,NOPAGE0,PUSH,RECORD,NOSUBSTR,USING0)
   NOFOLD
   NOGOFF
   NOINFO
 3   LANGUAGE(EN)
   NOLIBMAC
 3   LINECOUNT(32500)
     LIST(121)
     MXREF(SOURCE)
 3   OBJECT
     OPTABLE(UNI,NOLIST)
   NOPCONTROL
   NOPESTOP
   NOPROFILE
   NORA2
   NORENT
 3 NORLD
     RXREF
     SIZE(MAX)
 3   SYSPARM(IPLTEXT)
 3   TERM(WIDE)
   NOTEST
     THREAD
   NOTRANSLATE
 3 NOUSING
 3   XREF(SHORT)

   No Overriding DD Names

1IPLTEXT  External Symbol Dictionary                                                                                        Page    2
-Symbol   Type   Id     Address  Length     LD ID  Flags Alias-of                            HLASM R4.0  2004/03/22 09.41
0IPLTEXT   SD 00000001 00000000 00001000             06

1IPLTEXT  IPLTEXT -- Initial Program for the Guest machine                                                                  Page    3
0Loc    Object Code    Addr1 Addr2  Stmt Lv Lineno    Source Statement                    (Asmedit 3.3)  HLASM R4.0  2004/03/22 09.41
+___    ______ ____    _____ _____  ____ __ ______    ______ _________
0                                      2       2.              COPY  HEADER
                                       3             =*********************************************************************
                                       4             =*                                                                   *
                                       5             =*                                                                   *
                                       6             =*                          M P - O R V Y L                          *
                                       7             =*                                                                   *
                                       8             =*       ORVYL - Release 5.0 - Class I - Stanford Proprietary        *
                                       9             =*                                                                   *
                                      10             =*                                                                   *
                                      11             =*********************************************************************
-
-                                     13             =         SPLEVEL SET=2
                                      16             =         HIBAL ASSOC=YES
-
                                     998             =*
                                     999             =* REGISTER CONVENTIONS (USE ONLY THE SYMBOLS)
                                    1000             =*
                                    1001             =*                     CLASS  USAGE
                                    1002             =*                     -----  -----------------------------
                                    1003             =RVR      REG   0        1    RETURN VALUE REGISTER
                                    1015             =RS       REG   1        *    SCRATCH
                                    1027             =RA       REG   2        *    SCRATCH
                                    1039             =RB       REG   3        *    SCRATCH
                                    1051             =RJ       REG   4        *    SCRATCH
                                    1063             =RK       REG   5        *    SCRATCH
                                    1075             =RX       REG   6        *    SCRATCH
                                    1087             =RY       REG   7        *    SCRATCH
                                    1099             =RM       REG   8        *    SCRATCH
                                    1111             =RN       REG   9        *    SCRATCH (In Guest)
                                    1123             =RTCBR    REG   9        -    POINTER TO THE RTCB (In Host)
                                    1135             =BR       REG   10       -    FIRST BASE REGISTER
                                    1147             =BRR      REG   11       -    SECOND BASE REGISTER
                                    1159             =WAR      REG   12       -    WORK AREA POINTER
                                    1171             =SPR      REG   13       -    STACK TOP POINTER
                                    1183             =RAR      REG   14       1    RETURN ADDRESS REGISTER
                                    1195             =EPAR     REG   15       1    ENTRY POINT ADDRESS
                                    1207             =*
                                    1208             =*      CLASS   MEANING
                                    1209             =*      -----   --------------------------------------------------
                                    1210             =*        *     Register may be freely used for scratch
                                    1211             =*        -     Register may not be used
                                    1212             =*        1     Available but may change on subroutine calls
                                    1213             =*
1IPLTEXT  IPLTEXT -- Initial Program for the Guest machine                                                                  Page    4
0D-Loc  Object Code    Addr1 Addr2  Stmt Lv Lineno    Source Statement           (Hibal 5, Asmedit 3.3)  HLASM R4.0  2004/03/22 09.41
+_____  ______ ____    _____ _____  ____ __ ______    ______ _________
0                                   1215       3.     IPLTEXT  AMODE 31
                                    1216       4.     IPLTEXT  RMODE ANY
 000000                00000 01000  1217       5.     IPLTEXT  CSECT 0
                                    1221       6.              COPY  PZERO
 000000                00000 00280  1222             =PZERO    RECORD BEGIN
                                    1230  1          =*
                                    1231  1          =* Real Page 0.  Each CPU has its own copy of this area.
                                    1232  1          =*
-                                   1234  1          =****************************************************************
                                    1235  1          =*               Fields Fixed by the Architecture               *
                                    1236  1          =*               ********************************               *
                                    1237  1          =*                                                              *
 000000                             1238  1          =PZRSNPSW   DS    D             Restart new PSW                 *
 000008                             1239  1          =PZRSOPSW   DS    D             Restart old PSW                 *
 000010                             1240  1          =           DS    D                                             *
 000018                             1241  1          =PZEXOPSW   DS    D             External old PSW                *
 000020                             1242  1          =PZSVOPSW   DS    D             Supervisor old PSW              *
 000028                             1243  1          =PZPIOPSW   DS    D             Program old PSW                 *
 000030                             1244  1          =PZMCOPSW   DS    D             Machine check old PSW           *
 000038                             1245  1          =PZIOOPSW   DS    D             I/O old PSW                     *
 000040                             1246  1          =           DS    3D                                            *
 000058                             1247  1          =PZEXNPSW   DS    D             External new PSW                *
 000060                             1248  1          =PZSVNPSW   DS    D             Supervisor new PSW              *
 000068                             1249  1          =PZPINPSW   DS    D             Program new PSW                 *
 000070                             1250  1          =PZMCNPSW   DS    D             Machine check new PSW           *
 000078                             1251  1          =PZIONPSW   DS    D             I/O new PSW                     *
 000080                             1252  1          =           DS    F                                             *
 000084                             1253  1          =PZEXCPU    DS    H             CPU address for EXT int         *
 000086                             1254  1          =PZEXIC     DS    H             External interrupt code         *
 000088                             1255  1          =PZSVILC    DS    H             Supervisor call ILC             *
 00008A                             1256  1          =PZSVIC     DS    H             Supervisor interrupt code       *
 00008C                             1257  1          =PZPIILC    DS    H             Program ILC                     *
 00008E                             1258  1          =PZPIIC     DS    H             Program interrupt code          *
 000090                             1259  1          =PZTREXA    DS    A             Translation exception address   *
 000094                             1260  1          =PZMONCL    DS    H             Monitor Class number            *
 000096                             1261  1          =PZPERCD    DS    H             PER code                        *
 000098                             1262  1          =PZPERA     DS    A             PER Address                     *
 00009C                             1263  1          =PZMONCD    DS    A             Monitor Code                    *
 0000A0                             1264  1          =           DS    3D                                            *
 0000B8                             1265  1          =PZIOSID    DS    A             I/O subsystem ID word           *
 0000BC                             1266  1          =PZIOPRM    DS    A             I/O Parameter                   *
 0000C0                             1267  1          =PZIOSCS    DS    A             I/O subchannel ending status    *
 0000C4                             1268  1          =           DS    A                                             *
 0000C8                             1269  1          =           DS    39D                                           *
                                    1270  1          =*                                                              *
                                    1271  1          =*            ***************************************           *
                                    1272  1          =*            End of Fields fixed by the architecture           *
                                    1273  1          =****************************************************************
1IPLTEXT  IPLTEXT -- Initial Program for the Guest machine                                                                  Page    5
0D-Loc  Object Code    Addr1 Addr2  Stmt Lv Lineno    Source Statement           (Hibal 5, Asmedit 3.3)  HLASM R4.0  2004/03/22 09.41
+_____  ______ ____    _____ _____  ____ __ ______    ______ _________
0                                   1275  1          =*
                                    1276  1          =* Fields of general interest
                                    1277  1          =*
 000200                             1278  1          =PZMATP     DS    A             Address of the MAT
 000204                             1279  1          =           DS    A             ** Reserved **
 000208                             1280  1          =PZCURPID   DS    0D            Unique ID of the current process
 000208                             1281  1          =PZCURASB   DS    A             Addr of ASB for current Address space
 00020C                             1282  1          =PZCURTSK   DS    A             ID of current task in the Address space
 000210                             1283  1          =PZLCPUA    DS    A             Logical CPU address
 000214                             1284  1          =PZCPUMSK   DS    A             CPU address mask bit
 000218                             1285  1          =PZPSWM     DS    X             PSW mask for disabling
 000219                             1286  1          =           DS    X             ** Reserved **
                                    1287  1          =*
                                    1288  1          =* Termination/Trace information
                                    1289  1          =*
 00021A 00                          1290  1          =PZTERMFL   FLAG  ,             Termination flags
 PZTERMFL.PZABORT  80 ONES          1294  1          =           FLAG  PZABORT         ABORT macro issued
 PZTERMFL.PZATERM  40 ONES          1299  1          =           FLAG  PZATERM         Start termination processing
 00021B                             1304  1          =PZABSM     DS    X             Save area for system mask in ABORT
 00021C                             1305  1          =PZABR15    DS    A             Save area for R15 in an ABORT
 000220                             1306  1          =PZTZOFF    DS    D             Time zone offset
 000228                             1307  1          =           DS    22A           ** Reserved **
                                    1308  1          =*         DS    24A           ** Reserved **
 000280                00280 00280  1309             =         END   ,
1IPLTEXT  IPLTEXT -- Initial Program for the Guest machine                                                                  Page    6
0Loc    Object Code    Addr1 Addr2  Stmt Lv Lineno    Source Statement           (Hibal 5, Asmedit 3.3)  HLASM R4.0  2004/03/22 09.41
+___    ______ ____    _____ _____  ____ __ ______    ______ _________
0                                   1319       8.              COPY  IPLPARM
                                    1320             =*
                                    1321             =*  @IPLPARM -- This data area is set up by the IPL module and is
                                    1322             =*              passed on a temporary stack to the kernel.  It
                                    1323             =*              basically tells the kernel about the data that has
                                    1324             =*              been set up by the IPL routine.
                                    1325             =*
-000000                00000 00014  1327             =@IPLPARM RECORD BEGIN
 000000                             1335  1          =@IPLKLOC   DS    A             Starting address of the Kernel
 000004                             1336  1          =@IPLKLEN   DS    A             Length of the Kernel
 000008                             1337  1          =@IPLMLOC   DS    A             Location of the Kernel map
 00000C                             1338  1          =@IPLMLEN   DS    A             Length of the Kernel map
 000010                             1339  1          =@IPLSLOC   DS    A             Location of the V=R stack (16 pages)
 000014                00014 00014  1340             =         END   ,
1IPLTEXT  IPLTEXT -- Initial Program for the Guest machine                                                                  Page    7
0Loc    Object Code    Addr1 Addr2  Stmt Lv Lineno    Source Statement           (Hibal 5, Asmedit 3.3)  HLASM R4.0  2004/03/22 09.41
+___    ______ ____    _____ _____  ____ __ ______    ______ _________
0                                   1350      10.              MACRO
                                    1351      11.     &L       IPLERR &TEXT
                                    1352      12.              LCLA  &LEN
                                    1353      13.     &L       SVC   2
                                    1354      14.     &LEN     SETA  K'&TEXT-2
                                    1355      15.              DC    AL1(&LEN)
                                    1356      16.              DC    C&TEXT
                                    1357      17.              DS    0H
                                    1358      18.              MEND  ,
1IPLTEXT  IPLTEXT -- Initial Program for the Guest machine                                                                  Page    8
0Loc    Object Code    Addr1 Addr2  Stmt Lv Lineno    Source Statement           (Hibal 5, Asmedit 3.3)  HLASM R4.0  2004/03/22 09.41
+___    ______ ____    _____ _____  ____ __ ______    ______ _________
0000000                00000 00048  1360      20.     ISTKE    RECORD BEGIN        Format of the interrupt stack entry
 000000                             1368  1   21.     ISTKPSW    DS    D             PSW at the time of the interrupt
 000008                             1369  1   22.     ISTKREGS   DS    16F           General purpose registers
 000048                00048 00048  1370      23.              END   ,
-000000                00000 00010  1380      25.     MAPENT   RECORD BEGIN
 000000                             1388  1   26.     MAPNAME    DS    CL8           Name of the CSECT/ENTRY
 000008                             1389  1   27.     MAPLOC     DS    A             Value of the symbol
 00000C                             1390  1   28.     MAPLEN     DS    A             Length of a CSECT
 000010                00010 00010  1391      29.              END   ,
1IPLTEXT  IPLTEXT -- Initial Program for the Guest machine                                                                  Page    9
0Loc    Object Code    Addr1 Addr2  Stmt Lv Lineno    Source Statement           (Hibal 5, Asmedit 3.3)  HLASM R4.0  2004/03/22 09.41
+___    ______ ____    _____ _____  ____ __ ______    ______ _________
0000000                00000 00008  1401      31.     CSR      RECORD BEGIN        CESD Record format from load module
 000000 20                          1409  1   32.     CSRTYPE    DC    X'20'         Record type
 000001                             1410  1   33.     CSRFL      DS    X             Flags
 000002                             1411  1   34.                DS    H
 000004                             1412  1   35.     CSRFID     DS    H             ESDID of first item
 000006                             1413  1   36.     CSRCNT     DS    H             Count of ESD data
 000008                             1414  1   37.     CSRDATA    DS    0H            Start of the ESD data
 000008                00008 00008  1415      38.              END   ,
-000000                00000 00010  1425      40.     CSD      RECORD BEGIN        CESD data format
 000000                             1433  1   41.     CSDNAME    DS    CL8           Symbol
 000008 00                          1434  1   42.     CSDTYPE    FLAG  ,                       Symbol type
 CSDTYPE.CSDTSD    0F OFF           1438  1   43.                FLAG  (CSDTSD,B'00001111',OFF) SD
 CSDTYPE.CSDTLR    03 EQ            1448  1   44.                FLAG  (CSDTLR,B'00000011',EQ)  LR
 CSDTYPE.CSDTPC    04 EQ            1458  1   45.                FLAG  (CSDTPC,B'00000100',EQ)  PC
 CSDTYPE.CSDTCM    05 EQ            1468  1   46.                FLAG  (CSDTCM,B'00000101',EQ)  CM
 CSDTYPE.CSDTPR    06 EQ            1478  1   47.                FLAG  (CSDTPR,B'00000110',EQ)  PR
 CSDTYPE.CSDTNL    07 EQ            1488  1   48.                FLAG  (CSDTNL,B'00000111',EQ)  null
 CSDTYPE.CSDTER    02 EQ            1498  1   49.                FLAG  (CSDTER,B'00000010',EQ)  ER
 CSDTYPE.CSDTWX    0A EQ            1508  1   50.                FLAG  (CSDTWX,B'00001010',EQ)  WX
                                    1518  1   51.
 000009                             1519  1   52.     CSDADDR    DS    AL3           Address of the symbol
 00000C                             1520  1   53.                DS    X
 00000D                             1521  1   54.     CSDIDL     DS    AL3           Length or ID
 000010                00010 00010  1522      55.              END   ,
-000000                00000 00003  1532      57.     IDR      RECORD BEGIN        IDR record format
 000000 80                          1540  1   58.                DC    X'80'
 000001                             1541  1   59.     IDRLEN     DS    X             Length of the IDR data
 000002 00                          1542  1   60.     IDRTYPE    FLAG  ,
 IDRTYPE.IDRTID    08 ONES          1546  1   61.                FLAG  (IDRTID,X'08')          Identify type record
 000003                             1555  1   62.     IDRDATA    DS    0X            Start of the data
 000003                00003 00003  1556      63.              END   ,
1IPLTEXT  IPLTEXT -- Initial Program for the Guest machine                                                                  Page   10
0Loc    Object Code    Addr1 Addr2  Stmt Lv Lineno    Source Statement           (Hibal 5, Asmedit 3.3)  HLASM R4.0  2004/03/22 09.41
+___    ______ ____    _____ _____  ____ __ ______    ______ _________
0000000                00000 00010  1566      65.     CR       RECORD BEGIN        Control/RDL record format
 000000 00                          1574  1   66.     CRTYPE     FLAG  ,             Record type
 CRTYPE.CRTCR      01 ONES          1578  1   67.                FLAG  (CRTCR,X'01')   Record contains Control info
 CRTYPE.CRTRLD     02 ONES          1587  1   68.                FLAG  (CRTRLD,X'02')  Record contains RLD info
 CRTYPE.CRTEOM     0C ONES          1596  1   69.                FLAG  (CRTEOM,X'0C')  Record is last in module
 000001                             1605  1   70.                DS    AL2
 000003                             1606  1   71.     CR#CRS     DS    X             Number of CR's following next text
 000004                             1607  1   72.     CRCLEN     DS    H             Length of the control data
 000006                             1608  1   73.     CRRLEN     DS    H             Length of the relocation data
 000008                             1609  1   74.     CRCCW      DS    0D            Channel command word to read in text
 000008                             1610  1   75.                DS    X
 000009                             1611  1   76.     CRADDR     DS    AL3           Linkage editor assigned addr for text
 00000C                             1612  1   77.                DS    H
 00000E                             1613  1   78.     CRTLEN     DS    H             Length of the text record following
 000010                             1614  1   79.     CRDATA     DS    0X            Start of the relocation/control data
 000010                00010 00010  1615      80.              END   ,
-000000                00000 00004  1625      82.     CRD      RECORD BEGIN        Control data format
 000000                             1633  1   83.     CRDID      DS    H             ESDID of the owning control section
 000002                             1634  1   84.     CRDLEN     DS    H             Length of text for that control section
 000004                00004 00004  1635      85.              END   ,
-000000                00000 00008  1645      87.     RLD      RECORD BEGIN        RLD data format
 000000                             1653  1   88.     RLDR       DS    H             Relocation pointer (ESDID)
 000002                             1654  1   89.     RLDP       DS    H             Position pointer (ESDID)
 000004 00                          1655  1   90.     RLDFLG     FLAG  ,             RLD type information
 RLDFLG.RLDFV      10 ONES          1659  1   91.                FLAG  (RLDFV,X'10')      V-type (vs A-type)
 RLDFLG.RLDFNEG    02 ONES          1668  1   92.                FLAG  (RLDFNEG,X'02')    negative relocation
 RLDFLG.RLDFSP     01 ONES          1677  1   93.                FLAG  (RLDFSP,X'01')     next rld entry has same R/P values
 000005                             1686  1   94.     RLDADDR    DS    AL3           Linkage editor assigned address
 000008                00008 00008  1687      95.              END   ,
1IPLTEXT  IPLTEXT -- Initial Program for the Guest machine                                                                  Page   11
0Loc    Object Code    Addr1 Addr2  Stmt Lv Lineno    Source Statement           (Hibal 5, Asmedit 3.3)  HLASM R4.0  2004/03/22 09.41
+___    ______ ____    _____ _____  ____ __ ______    ______ _________
0                                   1698      98.     *****************************************************************
                                    1699      99.     *                                                               *
                                    1700     100.     *  IPLTEXT -- This program is loaded when the machine is IPLed  *
                                    1701     101.     *             at location 0.  It is 4096 bytes long and must    *
                                    1702     102.     *             not contain ANY relocatable constants.            *
                                    1703     103.     *                                                               *
                                    1704     104.     *****************************************************************
-000000 0000000000000000            1706     106.              DC    (L'PZERO)X'00'          Zero the hardware area
                                    1707     107.     *
                                    1708     108.     * Set up the interrupt vectors
                                    1709     109.     *
 000280                00280 00000  1710     110.              ORG   IPLTEXT+(PZRSNPSW-PZERO)
 000000 000C0000800004A0            1711     111.              DC    X'000C000080',AL3(IPLSTRT-IPLTEXT) Starting PSW
 000008                00008 00058  1712     112.              ORG   IPLTEXT+(PZEXNPSW-PZERO)
 000058 000C000080000772            1713     113.              DC    X'000C000080',AL3(IEXFLIH-IPLTEXT) External
 000060 000C0000800007F2            1714     114.              DC    X'000C000080',AL3(ISVFLIH-IPLTEXT) SVC
 000068 000C000080000948            1715     115.              DC    X'000C000080',AL3(IPIFLIH-IPLTEXT) Program
 000070 000A000000000005            1716     116.              DC    X'000A000000',AL3(5)               Machine check
 000078 000C0000800007CC            1717     117.              DC    X'000C000080',AL3(IIOFLIH-IPLTEXT) I/O
 000080                00080 00280  1718     118.              ORG
1IPLTEXT  IPLTEXT -- Initial Program for the Guest machine                                                                  Page   12
0Loc    Object Code    Addr1 Addr2  Stmt Lv Lineno    Source Statement           (Hibal 5, Asmedit 3.3)  HLASM R4.0  2004/03/22 09.41
+___    ______ ____    _____ _____  ____ __ ______    ______ _________
0                                   1720     120.     *
                                    1721     121.     * IPL Data area --
                                    1722     122.     *
                                    1723     123.     *        Information needed during the IPL phase of initialization
                                    1724     124.     *
 000280                             1725     125.     IPGOPSW  DS    D             PSW storage
 000288                             1726     126.     IPREGS   DS    16F           Register storage
 0002C8 00000000                    1727     127.     ISTO     DC    A(0)          Address of the segment table
 0002CC                             1728     128.     IWORK    DS    A(0)          Work areas
 0002D0                             1729     129.     IDWORK   DS    D'0'
                                    1730     130.     *
                                    1731     131.     * Load information
                                    1732     132.     *
 0002D8 00000000                    1733     133.     IKSTART  DC    A(0)          Address of the start of the kernel
 0002DC 00000000                    1734     134.     IKLEN    DC    A(0)          Length of the kernel
 0002E0 00000000                    1735     135.     IKEPA    DC    A(0)          Entry point address in the kernel
 0002E4 00000000                    1736     136.     IMAPST   DC    A(0)          Starting address of the kernel map
 0002E8 00000000                    1737     137.     IMAPLEN  DC    A(0)          Length of the kernel map
                                    1738     138.     *
                                    1739     139.     * Load status info
                                    1740     140.     *
 0002EC 00000000                    1741     141.     ICURLOC  DC    A(0)          Next free area of the Kernel map
 0002F0 00000000                    1742     142.     IMAXPAG  DC    A(0)          Address of the highest page
 0002F4 00                          1743     143.     STAFLAG  FLAG  ,             Status flags
 STAFLAG.ILEOM     80 ONES          1747     144.              FLAG  ILEOM         - End of module flag seen
 STAFLAG.AUTOPF    40 ONES          1752     145.              FLAG  AUTOPF        - Automatic page fault resolution
 STAFLAG.REALINITE 20 ONES          1757     145.1             FLAG  REALINITED    - Real memory has been init'd
 0002F8                             1762     146.              DS    0D
 0002F8 0000000000000000            1763     147.     IBUFFER  DC    XL256'00'     Buffer for Linkage Editor info
 0003F8 00000000                    1764     148.     ILIDAW1  DC    A(0)          IDAW for control records
 0003FC 0000000000000000            1765     149.     ILIDAW2  DC    5A(0)         IDAWs for text records
                                    1766     150.     *
                                    1767     151.     * Control register Setup Area
                                    1768     152.     *
 000410 10B00000                    1769     153.     ICR00    DC    X'10B00000'   Low address + trans format
 000414 00000000                    1770     154.     ICR01    DC    X'00000000'   STO
                                    1771     155.     *
                                    1772     156.     * The interrupt Save area
                                    1773     157.     *
 000418                             1774     158.              DS    0D
 000418                             1775     159.     ISREASON DS    0CL64
 000418 6060606060606060            1776     160.              DC    56C'-'
 000450 6060C9E2C160606E            1777     161.              DC    C'--ISA-->'
 000458                             1778     162.     ISAPSW   DS    D             Interrupt PSW
 000460                             1779     163.     ISAREGS  DS    16A           Interrupt Registers
1IPLTEXT  IPLTEXT -- Initial Program for the Guest machine                                                                  Page   13
0Loc    Object Code    Addr1 Addr2  Stmt Lv Lineno    Source Statement           (Hibal 5, Asmedit 3.3)  HLASM R4.0  2004/03/22 09.41
+___    ______ ____    _____ _____  ____ __ ______    ______ _________
0                                   1781     165.     *
                                    1782     166.     * IPLSTRT -- This is the start of the IPL code.
                                    1783     167.     *
 0004A0                             1784     168.     IPLSTRT  LABEL ,
 USING  PZERO,R0                    1786     169.              USING PZERO,R0                Address the PAGE ZERO
 AUSING (IPLTEXT,PZERO)             1795     170.              USING IPLTEXT,PZERO           IPLTEXT starts there too
 0004A0 D207 0000 0070 00000 00070  1800     171.              MVC   PZRSNPSW,PZMCNPSW       Restarts are machine checks
1IPLTEXT  IPLTEXT -- Initial Program for the Guest machine                                                                  Page   14
0Current Usings:  (PZERO,R0)
0Loc    Object Code    Addr1 Addr2  Stmt Lv Lineno    Source Statement           (Hibal 5, Asmedit 3.3)  HLASM R4.0  2004/03/22 09.41
+___    ______ ____    _____ _____  ____ __ ______    ______ _________
0                                   1802     173.     *
                                    1803     174.     * Allocate and open up the kernel load module. It also returns the
                                    1804     175.     * size of the load module and its entry point address.
                                    1805     176.     *
 0004A6 83230003                    1806     177.              SYSCTL RA,RB,TYPE=LOADSTA     Returns length, EPA of kernel
 0004AA 5810 0A58            00A58  1809     178.              L     RS,=A(4096)             Starting point of the kernel
 0004AE 5010 02D8            002D8  1810     179.              ST    RS,IKSTART              Save it for now
 0004B2 5020 02DC            002DC  1811     180.              ST    RA,IKLEN                Save the length
 0004B6 1A31                        1812     181.              AR    RB,RS                   Add our offset to the epa
 0004B8 5030 02E0            002E0  1813     182.              ST    RB,IKEPA                Save the Actual EPA
 0004BC 1A21                        1814     183.              AR    RA,RS                   Get the ending address
 0004BE 4120 2FFF            00FFF  1815     184.              LA    RA,@RA+4095
 0004C2 5420 0A5C            00A5C  1816     185.              N     RA,=X'7FFFF000'         Round up to the next page
 0004C6 5020 02E4            002E4  1817     186.              ST    RA,IMAPST               Save the map location
 0004CA 5020 02EC            002EC  1818     187.              ST    RA,ICURLOC              It is also the first free loc
                                    1819     188.     *
                                    1820     189.     * Clear the Load module area
                                    1821     190.     *
 0004CE 5820 02D8            002D8  1822     191.              L     RA,IKSTART              Get the kernel address
 0004D2 5830 02DC            002DC  1823     192.              L     RB,IKLEN                And the length
 0004D6 1B44                        1824     193.              CLEAR RJ                      Source has no length
 0004D8 1B55                        1828     194.              CLEAR RK                      or address
 0004DA 0E24                        1832     195.              MVCL  RA,RJ                   Clear whole kit & kaboodle
                                    1833     196.     *
                                    1834     197.     * Now we read in the load module
                                    1835     198.     *
 0004DC 4120 02F8            002F8  1836     199.              LA    RA,IBUFFER              Get the address of the buffer
 0004E0 5020 03F8            003F8  1837     200.              ST    RA,ILIDAW1
 0004E4 9180 02F4      002F4        1838     201.     LMRLOOP  WHILE ~ILEOM,BEGIN
 0004E8 4710 0654            00654  1851             +
 0004EC 4120 03F8            003F8  1856  1  202.                LA    RA,ILIDAW1              Get the IDAW for the I/O
 0004F0 83210002                    1857  1  203.                SYSCTL RA,RS,TYPE=LOADBLK     Get a block and it's length
 0004F4 5910 0A60            00A60  1860  1  204.                IF    (RS,GT,L'IBUFFER),BEGIN
 0004F8 47D0 0516            00516  1872  1          +
 0004FC 0A02/16                     1877  2  205.                  IPLERR 'BAD LOAD MODULE FORMAT'
 0004FF C2C1C440D3D6C1C4            1880  2          +
 000516                             1882  1  206.                END   ,
 000516 4120 02F8            002F8  1886  1  207.                LA    RA,IBUFFER              Location of the data
                                    1887  1  208.     *
                                    1888  1  209.     * We have a block in... Find out what's in it
                                    1889  1  210.     *
                                    1890  1  211.     *   Its a CESD record.  We scan through all the data and build up
                                    1891  1  212.     *   our map.
                                    1892  1  213.     *
 00051A 9520 2000      00000        1893  1  214.                IF    (@RA,EQ,X'20'),BEGIN    CESD Record
 00051E 4770 056A            0056A  1904  1          +
 USING  CSR,R2                      1909  2  215.                  WITH  (CSR,RA)
 000522 4830 2006            00006  1922  2  216.                  LH    RB,CSRCNT               Get length of the CSD data
 000526 4133 2008            00008  1923  2  217.                  LA    RB,CSRDATA(RB)          Get address of end of data
 00052A 4120 2008            00008  1924  2  218.                  LA    RA,CSRDATA
 DROP   CSR,R2                      1925  2  219.                  WITH  (CSD,RA)
 USING  CSD,R2
 00052E 1923/47B0 056A       0056A  1941  2  220.                  WHILE (RA,LT,RB),BEGIN        Loop through the CSD entries
                                    1958  3  221.     *
1IPLTEXT  IPLTEXT -- Initial Program for the Guest machine                                                                  Page   15
0Current Usings:  (PZERO,R0) (CSD,R2)
0Loc    Object Code    Addr1 Addr2  Stmt Lv Lineno    Source Statement           (Hibal 5, Asmedit 3.3)  HLASM R4.0  2004/03/22 09.41
+___    ______ ____    _____ _____  ____ __ ______    ______ _________
0                                   1959  3  222.     *    See it this is an SD entry
                                    1960  3  223.     *
 000534 910F 2008      00008        1961  3  224.                    IF    CSDTSD,BEGIN            If so, fill in a map entry
 000538 4770 0562            00562  1971  3          +
 00053C 5840 02EC            002EC  1976  4  225.                      L     RJ,ICURLOC              Get map record pointer
 USING  MAPENT,R4                   1977  4  226.                      WITH  (MAPENT,RJ),BEGIN
 000540 D207 4000 2000 00000 00000  1991  5  227.                        MVC   MAPNAME,CSDNAME         Move in the symbol name
 000546 1F11/BF17 2009       00009  1992  5  228.                        L3    RS,CSDADDR              Get the symbol address
 00054C 5A10 02D8            002D8  1998  5  229.                        A     RS,IKSTART              Relocate the symbol
 000550 5010 4008            00008  1999  5  230.                        ST    RS,MAPLOC               Save it's value
 000554 D202 400D 200D 0000D 0000D  2000  5  231.                        MVC   MAPLEN+1(3),CSDIDL      Keep the length of the csect
 DROP   MAPENT,R4                   2001  4  232.                      END   ,
                                    2009  4  233.     *
                                    2010  4  234.     *    Update the map pointer
                                    2011  4  235.     *
 00055A 4A40 0A70            00A70  2012  4  236.                      AH    RJ,=Y(L'MAPENT)
 00055E 5040 02EC            002EC  2013  4  237.                      ST    RJ,ICURLOC              Save the updated pointer
 000562                             2014  3  238.                    END   ,
                                    2018  3  239.     *
                                    2019  3  240.     *    Update the CSD pointer
                                    2020  3  241.     *
 000562 4A20 0A72            00A72  2021  3  242.                    AH    RA,=Y(L'CSD)            Point at the next
 000566 47F0 052E            0052E  2022  2  243.                  END   ,
 DROP   CSD,R2                      2027  1  244.                END   ,
 USING  CSR,R2
 DROP   CSR,R2
1IPLTEXT  IPLTEXT -- Initial Program for the Guest machine                                                                  Page   16
0Current Usings:  (PZERO,R0)
0Loc    Object Code    Addr1 Addr2  Stmt Lv Lineno    Source Statement           (Hibal 5, Asmedit 3.3)  HLASM R4.0  2004/03/22 09.41
+___    ______ ____    _____ _____  ____ __ ______    ______ _________
0                                   2049  1  246.     *
                                    2050  1  247.     *  It is a CTR/RLD record.  Both types are handled here.
                                    2051  1  248.     *
 00056A 056E           0056A 00520  2052  1  249.                ELSEIF ('TM @RA,3',NZ),BEGIN
 00056A 47F0 0650            00650  2058  1          +
 00056E 9103 2000      00000        2068  1          +
 000572 4780 0650            00650  2069  1          +
 USING  CR,R2                       2074  2  250.                  WITH  (CR,RA)
                                    2087  2  251.     *
                                    2088  2  252.     *   Take care of the RLD portion of the record first
                                    2089  2  253.     *
 000576 9102 2000      00000        2090  2  254.                  IF    CRTRLD,BEGIN
 00057A 47E0 05F0            005F0  2100  2          +
 00057E 4140 2010            00010  2105  3  255.                    LA    RJ,CRDATA               Address of the first RLD
 000582 4850 2006            00006  2106  3  256.                    LH    RK,CRRLEN               Length of the RLD data
 000586 1A54                        2107  3  257.                    AR    RK,RJ                   Addr of end of RLD data
 000588 1945/47B0 05F0       005F0  2108  3  258.                    WHILE (RJ,LT,RK),BEGIN
 USING  RLD,R4                      2125  4  259.                      WITH  (RLD,RJ)
 00058E 1F11/BF17 4005       00005  2138  4  260.                      L3    RS,RLDADDR              Get the offset of the symbol
 000594 5A10 02D8            002D8  2144  4  261.                      A     RS,IKSTART              Convert that to an address
                                    2145  4  262.     *
                                    2146  4  263.     * We know where the Adcon is.  Now we have to relocate it based
                                    2147  4  264.     * on how long it is.
                                    2148  4  265.     *
 000598 910C 4004      00004        2149  4  266.                      TM    RLDFLG,X'0C'            Length bits
 00059C 47E0 05AC            005AC  2150  4  267.                      IF    ON,BEGIN                4 byte adcon
 0005A0 5800 1000            00000  2161  5  268.                        L     RVR,@RS
 0005A4 5A00 02D8            002D8  2162  5  269.                        A     RVR,IKSTART             Add relocation value
 0005A8 5000 1000            00000  2163  5  270.                        ST    RVR,@RS                 And put it back
 0005AC 05B0           005AC 0059E  2164  4  271.                      END   ELSE,BEGIN
 0005AC 47F0 05D8            005D8  2173  4          +
 0005B0 9108 4004      00004        2179  5  272.                        TM    RLDFLG,X'08'            Length bits again
 0005B4 47E0 05C6            005C6  2180  5  273.                        IF    ON,BEGIN                3 byte adcon
 0005B8 1FFF/BFF7 1000       00000  2191  6  274.                          L3    EPAR,@RS
 0005BE 5AF0 02D8            002D8  2197  6  275.                          A     EPAR,IKSTART            Relocate it
 0005C2 BEF7 1000            00000  2198  6  276.                          ST3   EPAR,@RS
 0005C6 05CA           005C6 005B6  2200  5  277.                        END   ELSE,BEGIN              2 byte adcon
 0005C6 47F0 05D8            005D8  2209  5          +
 0005CA 1FFF/BFF3 1000       00000  2215  6  278.                          L2    EPAR,@RS
 0005D0 5AF0 02D8            002D8  2221  6  279.                          A     EPAR,IKSTART            Relocate it
 0005D4 40F01000                    2222  6  280.                          ST2   EPAR,@RS
 0005D8                             2224  5  281.                        END   ,
 0005D8                             2228  4  282.                      END   ,
                                    2232  4  283.     *
                                    2233  4  284.     * Now we move on to the next RLD entry.  How far we move is based
                                    2234  4  285.     * on whether the next entry has new R/P pointers.
                                    2235  4  286.     *
 0005D8 9101 4004      00004        2236  4  287.                      IF    RLDFSP,BEGIN            It has same relocation vals
 0005DC 47E0 05E4            005E4  2246  4          +
 0005E0 4A40 0A74            00A74  2251  5  288.                        AH    RJ,=Y(L'RLD-(RLDFLG-RLD))  Move over flag and addr
 0005E4 05E8           005E4 005DE  2252  4  289.                      END   ELSE,BEGIN
 0005E4 47F0 05EC            005EC  2261  4          +
 0005E8 4A40 0A76            00A76  2267  5  290.                        AH    RJ,=Y(L'RLD)            Move it the full length
 0005EC                             2268  4  291.                      END   ,
1IPLTEXT  IPLTEXT -- Initial Program for the Guest machine                                                                  Page   17
0Current Usings:  (PZERO,R0) (CR,R2)
0Loc    Object Code    Addr1 Addr2  Stmt Lv Lineno    Source Statement           (Hibal 5, Asmedit 3.3)  HLASM R4.0  2004/03/22 09.41
+___    ______ ____    _____ _____  ____ __ ______    ______ _________
00005EC 47F0 0588            00588  2272  3  292.                    END   ,
 DROP   RLD,R4
 0005F0                             2282  2  293.                  END   ,
                                    2286  2  294.     *
                                    2287  2  295.     *  Now we take care of the control portion of the record
                                    2288  2  296.     *
 0005F0 9101 2000      00000        2289  2  297.                  IF    CRTCR,BEGIN
 0005F4 47E0 0644            00644  2299  2          +
                                    2304  3  298.     *
                                    2305  3  299.     * Set up the IDAW list (max 8K blocksize)
                                    2306  3  300.     *
 0005F8 1F44/BF47 2009       00009  2307  3  301.                    L3    RJ,CRADDR               Address for the text
 0005FE 5A40 02D8            002D8  2313  3  302.                    A     RJ,IKSTART              Get the Read location
 000602 4150 0005            00005  2314  3  303.                    LA    RK,5                    Number of IDAWs to make
 000606 4160 03FC            003FC  2315  3  304.                    LA    RX,ILIDAW2              Address of the first one
 00060A 4110 4000            00000  2316  3  305.     RIDL           LA    RS,@RJ                  Get the real addr
                                    2317  3  306.     *RIDL     LRA   RS,@RJ                  Get the real addr
 00060E 5010 6000            00000  2318  3  307.                    ST    RS,@RX                  Save it in the list
 000612 4140 4800            00800  2319  3  308.                    LA    RJ,@RJ+2048             Get the next block
 000616 5440 0A64            00A64  2320  3  309.                    N     RJ,=X'7FFFF800'         Round down to 2K bdy
 00061A 4160 6004            00004  2321  3  310.                    LA    RX,@RX+4                Point at the next IDAW
 00061E 4650 060A            0060A  2322  3  311.                    BCT   RK,RIDL                 Loop it up
                                    2323  3  312.     *
                                    2324  3  313.     * Do the I/O
                                    2325  3  314.     *
 000622 4160 03FC            003FC  2326  3  315.                    LA    RX,ILIDAW2              Get the IDAW list addr
 000626 83610002                    2327  3  316.                    SYSCTL RX,RS,TYPE=LOADBLK     Get the block of data in
 00062A 4910 200E            0000E  2330  3  317.                    IF    (RS,NE,CRTLEN),BEGIN    Bad text block
 00062E 4780 0644            00644  2342  3          +
 000632 0A02/0E                     2347  4  318.                      IPLERR 'BAD TEXT BLOCK'       Bad load module format
 000635 C2C1C440E3C5E7E3            2350  4          +
 000644                             2352  3  319.                    END   ,
 000644                             2356  2  320.                  END   ,
                                    2360  2  321.     *
                                    2361  2  322.     * Check for end of module
                                    2362  2  323.     *
 000644 910C 2000      00000        2363  2  324.                  IF    CRTEOM,'SET ILEOM'      Set the flag
 000648 47E0 0650            00650  2373  2          +
 00064C 9680 02F4      002F4        2384  2          +
 DROP   CR,R2                       2389  1  325.                END   ,
                                    2398  1  326.     *
                                    2399  1  327.     * Processing of other load module record type should go here
                                    2400  1  328.     *
 000650 47F0 04E4            004E4  2401     329.              END   ,
1IPLTEXT  IPLTEXT -- Initial Program for the Guest machine                                                                  Page   18
0Current Usings:  (PZERO,R0)
0Loc    Object Code    Addr1 Addr2  Stmt Lv Lineno    Source Statement           (Hibal 5, Asmedit 3.3)  HLASM R4.0  2004/03/22 09.41
+___    ______ ____    _____ _____  ____ __ ______    ______ _________
0                                   2407     331.     *
                                    2408     332.     * Update the map pointers and close the input dataset
                                    2409     333.     *
 000654 5810 02EC            002EC  2410     334.              L     RS,ICURLOC
 000658 5B10 02E4            002E4  2411     335.              S     RS,IMAPST               Map length
 00065C 5010 02E8            002E8  2412     336.              ST    RS,IMAPLEN              Save that too
 000660 83000004                    2413     337.              SYSCTL TYPE=LOADEND
1IPLTEXT  IPLTEXT -- Initial Program for the Guest machine                                                                  Page   19
0Current Usings:  (PZERO,R0)
0Loc    Object Code    Addr1 Addr2  Stmt Lv Lineno    Source Statement           (Hibal 5, Asmedit 3.3)  HLASM R4.0  2004/03/22 09.41
+___    ______ ____    _____ _____  ____ __ ______    ______ _________
0                                   2417     339.     *
                                    2418     340.     * Find out how many real pages we have left
                                    2419     341.     *
 000664 83200001                    2420     342.              SYSCTL RA,TYPE=MEMSIZE        Get the number of pages
 000668 0620                        2423     343.              BCTR  RA,0                    Reduce it by one
 00066A 8920 000C            0000C  2424     344.              SLL   RA,12                   Get the addr of the last one
 00066E 5020 02F0            002F0  2425     345.              ST    RA,IMAXPAG              Save it
 000672 5820 02EC            002EC  2426     346.              L     RA,ICURLOC              Get the current location
 000676 4A20 0A78            00A78  2427     347.              AH    RA,=Y(4095)
 00067A 5420 0A5C            00A5C  2428     348.              N     RA,=X'7FFFF000'         Round up to the next page
                                    2429     349.     *
                                    2430     350.     * Reserve the V=R stack area
                                    2431     351.     *
 00067E 18C2                        2432     352.              LR    WAR,RA                  Get the next page address
 000680 5A20 0A68            00A68  2433     353.              A     RA,=A(16*4096)          Maximum number of CPU's
 000684 5020 02EC            002EC  2434     354.              ST    RA,ICURLOC              Update the current page loc
 000688 41D0 C008            00008  2435     355.              LA    SPR,@WAR+8              Set up the stack pointer
1IPLTEXT  IPLTEXT -- Initial Program for the Guest machine                                                                  Page   20
0Current Usings:  (PZERO,R0)
0Loc    Object Code    Addr1 Addr2  Stmt Lv Lineno    Source Statement           (Hibal 5, Asmedit 3.3)  HLASM R4.0  2004/03/22 09.41
+___    ______ ____    _____ _____  ____ __ ______    ______ _________
0                                   2437     357.     *
                                    2438     358.     * Now we get into virtual mode.  We create a full size segment table
                                    2439     359.     * and page tables enough to cover the kernel, etc.
                                    2440     360.     *
 00068C 5820 02EC            002EC  2441     361.              L     RA,ICURLOC              Get the first free page
 000690 1802                        2442     362.              LR    RVR,RA                  Copy that address
 000692 4A00 0A7A            00A7A  2443     363.              AH    RVR,=Y(4096)            Bump it up
 000696 5000 02EC            002EC  2444     364.              ST    RVR,ICURLOC             And replace it
 00069A 5020 02C8            002C8  2445     365.              ST    RA,ISTO                 Save the address of it
                                    2446     366.
 00069E 4130 0400            00400  2447     367.              LA    RB,1024                 Number of segments to init
 0006A2 4140 0020            00020  2448     368.              LA    RJ,X'20'                Invalid segment entry
 0006A6 5040 2000            00000  2449     369.     STILP    ST    RJ,@RA                  Invalidate each segment
 0006AA 4120 2004            00004  2450     370.              LA    RA,@RA+4
 0006AE 4630 06A6            006A6  2451     371.              BCT   RB,STILP                And go to the end of the page
                                    2452     372.     *
                                    2453     373.     * Set up the Control Registers
                                    2454     374.     *
 0006B2 4120 003F            0003F  2455     375.              LA    RA,63                   Segment table length
 0006B6 5620 02C8            002C8  2456     376.              O     RA,ISTO                 Get origen
 0006BA 5020 0414            00414  2457     377.              ST    RA,ICR01
 0006BE B701 0410            00410  2458     378.              LCTL  0,1,ICR00               Load the control regs
                                    2459     379.     *
                                    2460     380.     * Set up the page tables we need
                                    2461     381.     *
 0006C2 5870 02C8            002C8  2462     382.              L     RY,ISTO                 Get the seg table location
 0006C6 8870 000C            0000C  2463     383.              SRL   RY,12                   Shift to get count before it
                                    2464     384.     *
                                    2465     385.     * Calculate the number of page table pages needed
                                    2466     386.     *
 0006CA 4160 70FF            000FF  2467     387.              LA    RX,@RY+255
 0006CE 8860 0008            00008  2468     388.              SRL   RX,8                    Get the count
 0006D2 1816                        2469     389.              LR    RS,RX                   Copy the count
 0006D4 8910 000C            0000C  2470     390.              SLL   RS,12                   Convert to length
 0006D8 5820 02EC            002EC  2471     391.              L     RA,ICURLOC              Get the next free page
 0006DC 1A12                        2472     392.              AR    RS,RA                   Add the length we need
 0006DE 5010 02EC            002EC  2473     393.              ST    RS,ICURLOC              Update the free pointer
                                    2474     394.     *
                                    2475     395.     * We have the addr of the page table(s) in RA.  All entries
                                    2476     396.     * need to be invalidated.
                                    2477     397.     *
 0006E2 4100 0400            00400  2478     398.              LA    RVR,X'0400'             Invalid bits
 0006E6 1832                        2479     399.              LR    RB,RA                   Starting point
 0006E8 1931/47B0 06FA       006FA  2480     400.              WHILE (RB,LT,RS),BEGIN
 0006EE 5000 3000            00000  2497  1  401.                ST    RVR,@RB                 Invalidate the entry
 0006F2 4130 3004            00004  2498  1  402.                LA    RB,@RB+4                Go to the next entry
 0006F6 47F0 06E8            006E8  2499     403.              END   ,
                                    2504     404.     *
                                    2505     405.     * The pages we have defined must be validated.  They are all
                                    2506     406.     * V=R and are the kernal and map pages are protected.
                                    2507     407.     *
 0006FA 1832                        2508     408.              LR    RB,RA                   Get the page table addr
 0006FC 4100 0200            00200  2509     409.              LA    RVR,X'0200'             Protect bits
 000700 5000 3000            00000  2510     410.     PGLP     ST    RVR,@RB                 Save the entry
1IPLTEXT  IPLTEXT -- Initial Program for the Guest machine                                                                  Page   21
0Current Usings:  (PZERO,R0)
0Loc    Object Code    Addr1 Addr2  Stmt Lv Lineno    Source Statement           (Hibal 5, Asmedit 3.3)  HLASM R4.0  2004/03/22 09.41
+___    ______ ____    _____ _____  ____ __ ______    ______ _________
0000704 4130 3004            00004  2511     411.              LA    RB,@RB+4                Point at the next entry
 000708 4A00 0A7A            00A7A  2512     412.              AH    RVR,=Y(4096)            Update the real frame pointer
 00070C 4670 0700            00700  2513     413.              BCT   RY,PGLP                 For the number of defd frames
                                    2514     414.     *
                                    2515     415.     * Turn off the page protection for page zero
                                    2516     416.     *
 000710                             2517     417.              CLEAR (@RA,4)                 No protect here
 000710 D703 2000 2000 00000 00000  2523             +
                                    2524     418.     *
                                    2525     419.     * Turn off the page protection for the V=R stack
                                    2526     420.     *
 000716 183C                        2527     421.              LR    RB,WAR                  Address of the first
 000718 8830 000A            0000A  2528     422.              SRL   RB,10                   Get the offset in the PT
 00071C 1A32                        2529     423.              AR    RB,RA                   Get the address of the entry
 00071E 4170 0010            00010  2530     424.              LA    RY,16                   Number of stack frames
 000722 94FD 3002      00002        2531     425.     PGVRL    NI    @RB+2,X'FD'             Turn off the prot bit
 000726 4130 3004            00004  2532     426.              LA    RB,@RB+4                Point at the next entry
 00072A 4670 0722            00722  2533     427.              BCT   RY,PGVRL                For all 16 frames
                                    2534     428.     *
                                    2535     429.     * Update the segment table with the page table info
                                    2536     430.     *
 00072E 5830 02C8            002C8  2537     431.              L     RB,ISTO                 Get the ST address
 000732 5620 0A6C            00A6C  2538     432.              O     RA,=X'0000000F'         Set the PTL
 000736 5020 3000            00000  2539     433.     STLP     ST    RA,@RB                  Update the entry
 00073A 4130 3004            00004  2540     434.              LA    RB,@RB+4
 00073E 4A20 0A7A            00A7A  2541     435.              AH    RA,=Y(4096)             Point at the next page table
 000742 4660 0736            00736  2542     436.              BCT   RX,STLP                 Loop for the number of PTS
                                    2543     437.     *
                                    2544     438.     * Start using those translation values
                                    2545     439.     *
 000746 8000 0A8A      00A8A        2546     440.              SSM   =X'04'                  Turn on translation
                                    2547     442.     *
                                    2548     443.     * Go call the kernal that we just loaded.
                                    2549     444.     *
 USING  @IPLPARM-72,R13             2550     445.              PSET  @IPLPARM
 00074A D713 D048 D048 00000 00000  2567             +
 000750 D203 D048 02D8 00000 002D8  2568     446.              MVC   @IPLKLOC,IKSTART
 000756 D203 D04C 02DC 00004 002DC  2569     447.              MVC   @IPLKLEN,IKLEN
 00075C D203 D050 02E4 00008 002E4  2570     448.              MVC   @IPLMLOC,IMAPST
 000762 D203 D054 02E8 0000C 002E8  2571     449.              MVC   @IPLMLEN,IMAPLEN
 000768 50C0 D058            00010  2572     450.              ST    WAR,@IPLSLOC
 00076C 58F0 02E0/0DEF       002E0  2573     451.              ACALL IKEPA
1IPLTEXT  IPLTEXT -- Initial Program for the Guest machine                                                                  Page   22
0Current Usings:  (PZERO,R0) (@IPLPARM-72,R13)
0Loc    Object Code    Addr1 Addr2  Stmt Lv Lineno    Source Statement           (Hibal 5, Asmedit 3.3)  HLASM R4.0  2004/03/22 09.41
+___    ______ ____    _____ _____  ____ __ ______    ______ _________
0                                   2581     453.     *
                                    2582     454.     * Interrupt handling routines
                                    2583     455.     *
                                    2584     456.     *
 000772 900F 0288            00288  2585     457.     IEXFLIH  STM   R0,R15,IPREGS           Save the registers
 000776 D207 0280 0018 00280 00018  2586     458.              MVC   IPGOPSW,PZEXOPSW        Save the old psw
 00077C 0A02/1D                     2587     459.              IPLERR 'UNEXPECTED EXTERNAL INTERRUPT'
 00077F E4D5C5E7D7C5C3E3            2590             +
                                    2592     460.     *
 00079C 900F 0288            00288  2593     461.     IMCFLIH  STM   R0,R15,IPREGS           Save the registers
 0007A0 D207 0280 0030 00280 00030  2594     462.              MVC   IPGOPSW,PZMCOPSW        Save the old psw
 0007A6 0A02/22                     2595     463.              IPLERR 'UNEXPECTED MACHINE CHECK INTERRUPT'
 0007A9 E4D5C5E7D7C5C3E3            2598             +
                                    2600     464.     *
 0007CC 900F 0288            00288  2601     465.     IIOFLIH  STM   R0,R15,IPREGS           Save the registers
 0007D0 D207 0280 0038 00280 00038  2602     466.              MVC   IPGOPSW,PZIOOPSW        Save the old psw
 0007D6 0A02/18                     2603     467.              IPLERR 'UNEXPECTED I/O INTERRUPT'
 0007D9 E4D5C5E7D7C5C3E3            2606             +
1IPLTEXT  IPLTEXT -- Initial Program for the Guest machine                                                                  Page   23
0Current Usings:  (PZERO,R0) (@IPLPARM-72,R13)
0Loc    Object Code    Addr1 Addr2  Stmt Lv Lineno    Source Statement           (Hibal 5, Asmedit 3.3)  HLASM R4.0  2004/03/22 09.41
+___    ______ ____    _____ _____  ____ __ ______    ______ _________
0                                   2609     469.     *
                                    2610     470.     * Supervisor FLIH -- this routine handles the SVC requests that
                                    2611     471.     * are defined for the IPL environment.  These are:
                                    2612     472.     *
                                    2613     473.     *        SVC 0 -- Turn on automatic page fault resolution.
                                    2614     474.     *
                                    2615     475.     *        SVC 1 -- Turn off automatic page fault resolution.
                                    2616     476.     *
                                    2617     477.     *        SVC 2 -- Error.  The PSW points to some text that
                                    2618     478.     *                 describes the error.
                                    2619     478.1    *
                                    2620     478.2    *        SVC 3 -- Define page table for a segment.
                                    2621     478.3    *                   R1 = virtual addr to define
                                    2622     478.31   *
                                    2623     478.32   *        SVC 4 -- Real memory initialization has been done.
                                    2624     478.33   *                 (This prevents anyone from allocating more real
                                    2625     478.34   *                 memory using the initialization routines.)
                                    2626     478.4    *
 0007F2                             2627     480.     ISVFLIH  LABEL
 0007F2 D23F 0460 0288 00460 00288  2629     481.              MVC   ISAREGS-IPLTEXT(64,0),IPREGS    Copy Registers
 0007F8 900F 0288            00288  2630     482.              STM   R0,R15,IPREGS           Save the registers
                                    2631     483.
                                    2632     484.                SVC 0 -- Turn on auto page resolution.
                                    2633     485.
 0007FC                             2634     486.              IF    (PZSVIC,EQ,X'0000'),BEGIN  Auto...
 0007FC D501 0A7C 008A 00A7C 0008A  2645             +
 000802 4770 0812            00812  2646             +
 000806 9640 02F4      002F4        2651  1  487.                SET   AUTOPF                  Start the page resolution
                                    2657  1  487.1
 00080A 980F 0288            00288  2658  1  488.                LM    R0,R15,IPREGS           Load the registers
 00080E 8200 0020      00020        2659  1  489.                LPSW  PZSVOPSW                And back in the saddle
 000812                             2660     490.              END
                                    2664     491.
                                    2665     492.                SVC 1 -- Turn off auto page resolution.
                                    2666     493.
 000812                             2667     494.              IF    (PZSVIC,EQ,X'0001'),BEGIN  No auto...
 000812 D501 0A7E 008A 00A7E 0008A  2678             +
 000818 4770 0828            00828  2679             +
 00081C 94BF 02F4      002F4        2684  1  495.                CLEAR AUTOPF                  Stop the page resolution
                                    2691  1  495.1
 000820 980F 0288            00288  2692  1  496.                LM    R0,R15,IPREGS           Load the registers
 000824 8200 0020      00020        2693  1  497.                LPSW  PZSVOPSW                And back in the saddle
 000828                             2694     498.              END
                                    2698     499.
                                    2699     500.                SVC 2 -- Error SVC.
                                    2700     501.
 000828                             2701     502.              IF    (PZSVIC,EQ,X'0002'),BEGIN   Error SVC...
 000828 D501 0A80 008A 00A80 0008A  2712             +
 00082E 4770 0850            00850  2713             +
 000832 5810 0024            00024  2718  1  503.                L     RS,PZSVOPSW+4           Get the Text pointer
 000836 1F22/4320 1000       00000  2719  1  504.                LC    RA,@RS                  Get the text count
 00083C 4110 1001            00001  2726  1  505.                LA    RS,@RS+1                Point at the text
 000840 0620/4420 0A8C       00A8C  2727  1  506.                DEX   RA,'MVC ISREASON(0),@RS'  Move in the reason
 000A8B 00                                2          +
1IPLTEXT  IPLTEXT -- Initial Program for the Guest machine                                                                  Page   24
0Current Usings:  (PZERO,R0) (@IPLPARM-72,R13)
0Loc    Object Code    Addr1 Addr2  Stmt Lv Lineno    Source Statement           (Hibal 5, Asmedit 3.3)  HLASM R4.0  2004/03/22 09.41
+___    ______ ____    _____ _____  ____ __ ______    ______ _________
0000A8C D200 0418 1000 00418 00000  2738  1          +
                                    2746  1  506.1    *
 000846 D207 0458 0280 00458 00280  2747  1  507.                MVC   ISAPSW,IPGOPSW          Error PSW
 00084C 8200 0920      00920        2748  1  507.01              LPSW  WAITPSW                 Take a nap
 000850                             2749     507.02            END
                                    2753     507.03
                                    2754     507.04              SVC 3 -- Define page table for a segment.
                                    2755     507.05                R1 = virtual address to define
                                    2756     507.06
 000850                             2757     507.07            IF    (PZSVIC,EQ,X'0003'),BEGIN  Define seg/page...
 000850 D501 0A82 008A 00A82 0008A  2768             +
 000856 4770 08F4            008F4  2769             +
 00085A 9120 02F4      002F4        2774  1  507.08              IF    REALINITED,'IPLERR "CANT DEFINE SEGTBL HERE"'
 00085E 47E0 087C/0A02       0087C  2784  1          +
 000864 17                          2792  2          +
 000865 C3C1D5E340C4C5C6            2793  2          +
                                    2799  1  507.09   *
 00087C 5820 02EC            002EC  2800  1  507.1               L     RA,ICURLOC          Allocate a new real 4K page
 000880 1832                        2801  1  507.11              LR    RB,RA
 000882 4A30 0A7A            00A7A  2802  1  507.12              AH    RB,=Y(4096)
 000886 5030 02EC            002EC  2803  1  507.13              ST    RB,ICURLOC          Update next real addr ptr
 00088A 5920 02F0            002F0  2804  1  507.14              IF    (RA,GT,IMAXPAG),BEGIN  Trouble...
 00088E 47D0 08A8            008A8  2816  1          +
 000892 0A02/12                     2821  2  507.15                IPLERR 'OUT OF PAGE FRAMES'  No more pages
 000895 D6E4E340D6C640D7            2824  2          +
 0008A8                             2826  1  507.16              END
                                    2830  1  507.17
                                    2831  1  507.18                Fix up the segment table.
                                    2832  1  507.19
 0008A8 4130 1000            00000  2833  1  507.2               LA    RB,@R1              Get virtual address to define
 0008AC B130 3000            00000  2834  1  507.21              LRA   RB,@RB              Get SGTE entry ptr
 0008B0 4740 08C8            008C8  2835  1  507.22              IF    ~NEG,BEGIN          We expect segment invalid cc...
 0008B4 0A02/10                     2846  2  507.23                IPLERR 'INV VIRTUAL ADDR'  Already defined or bad virt addr
 0008B7 C9D5E540E5C9D9E3            2849  2          +
 0008C8                             2851  1  507.24              END
 0008C8 5020 3000            00000  2855  1  507.25              ST    RA,@RB              Validate the segment
 0008CC 960F 3003      00003        2856  1  507.26              OI    @RB+3,X'0F'         To full length
                                    2857  1  507.27
                                    2858  1  507.28                Now format the page table with all pages invalid.
                                    2859  1  507.29
 0008D0 4130 0100            00100  2860  1  507.3               LA    RB,256              Number of pages
 0008D4 4140 0400            00400  2861  1  507.31              LA    RJ,X'400'           Invalid value
 0008D8 1233/47D0 08EC       008EC  2862  1  507.32              WHILE (RB,POS),BEGIN      Build page table...
 0008DE 5040 2000            00000  2878  2  507.33                ST    RJ,@RA              Invalidate the entry
 0008E2 4120 2004            00004  2879  2  507.34                LA    RA,@RA+4            Move to the next one
 0008E6 0630                        2880  2  507.35                DECR  RB                  One less PGTE
 0008E8 47F0 08D8            008D8  2882  1  507.36              END
                                    2887  1  507.37
 0008EC 980F 0288            00288  2888  1  507.38              LM    R0,R15,IPREGS       Load the registers
 0008F0 8200 0020      00020        2889  1  507.39              LPSW  PZSVOPSW            Return to caller
 0008F4                             2890     507.4             END
1IPLTEXT  IPLTEXT -- Initial Program for the Guest machine                                                                  Page   25
0Current Usings:  (PZERO,R0) (@IPLPARM-72,R13)
0Loc    Object Code    Addr1 Addr2  Stmt Lv Lineno    Source Statement           (Hibal 5, Asmedit 3.3)  HLASM R4.0  2004/03/22 09.41
+___    ______ ____    _____ _____  ____ __ ______    ______ _________
0                                   2894     507.41
                                    2895     507.42              SVC 4 -- Can't allocate real memory just by referencing
                                    2896     507.43                it any more.  Issued by PFINIT after real memory
                                    2897     507.44                allocated in initialization has been accounted for.
                                    2898     507.9
 0008F4                             2899     507.91            IF    (PZSVIC,EQ,X'0004'),BEGIN  Stop allocating real...
 0008F4 D501 0A84 008A 00A84 0008A  2910             +
 0008FA 4770 090A            0090A  2911             +
 0008FE 9620 02F4      002F4        2916  1  507.92              SET   REALINITED          Real memory has been accounted
                                    2922  1  507.93
 000902 980F 0288            00288  2923  1  507.94              LM    R0,R15,IPREGS       Restore registers
 000906 8200 0020      00020        2924  1  507.95              LPSW  PZSVOPSW            And back in the saddle
 00090A                             2925     507.96            END
                                    2929     507.97
                                    2930     507.98              All other SVCs.
                                    2931     507.99
 00090A D21E 0418 0928 00418 00928  2932     509.              MVC   ISREASON(L'INVSVC),INVSVC  Invalid SVC message
 000910 D23F 0460 0288 00460 00288  2933     510.              MVC   ISAREGS(64),IPREGS      Move the SVC regs in
 000916 D207 0458 0020 00458 00020  2934     511.              MVC   ISAPSW,PZSVOPSW         And use the SVC PSW
 00091C 8200 0920      00920        2935     511.1             LPSW  WAITPSW                 Take a nap
                                    2936     512.1
 000920                             2937     518.              DS    0D
 000920 000A000000000000            2938     519.     WAITPSW  DC    X'000A000000000000'
 000928 C9D5E5C1D3C9C440            2939     520.     INVSVC   DC    C'INVALID SVC FOR IPL ENVIRONMENT'
1IPLTEXT  IPLTEXT -- Initial Program for the Guest machine                                                                  Page   26
0Current Usings:  (PZERO,R0) (@IPLPARM-72,R13)
0Loc    Object Code    Addr1 Addr2  Stmt Lv Lineno    Source Statement           (Hibal 5, Asmedit 3.3)  HLASM R4.0  2004/03/22 09.41
+___    ______ ____    _____ _____  ____ __ ______    ______ _________
0                                   2941     522.     *
                                    2942     523.     * Program interrupt FLIH -- this routine is entered disabled and
                                    2943     524.     * in dat-off mode.  If the interrupt is a segment fault it formats
                                    2944     525.     * a page table and validates the segment.  If it is a page fault, it
                                    2945     526.     * allocates a new page and validates the page table. If there is
                                    2946     527.     * anything else or if the NOAUTOPF flag is set then it complains.
                                    2947     528.     *
 000948                             2948     529.     IPIFLIH  LABEL ,
                                    2950     530.
                                    2951     531.                Save the machine state.
                                    2952     532.
 000948 900F 0288            00288  2953     533.              STM   R0,R15,IPREGS           Save the registers
 00094C D207 0280 0028 00280 00028  2954     534.              MVC   IPGOPSW,PZPIOPSW        Save the resume PSW
                                    2955     535.
                                    2956     536.                Check the interrupt code.
                                    2957     537.
 000952 9140 02F4      002F4        2958     538.              IF    AUTOPF,BEGIN        We're handling auto page faults
 000956 47E0 0A42            00A42  2968             +
 00095A 9120 02F4      002F4        2973  1  538.1               IF    REALINITED,'IPLERR "CANT PAGE FAULT HERE"'
 00095E 47E0 097A/0A02       0097A  2983  1          +
 000964 14                          2991  2          +
 000965 C3C1D5E340D7C1C7            2992  2          +
                                    2998  1  538.2    *
 00097A                             2999  1  539.                IF    (PZPIIC,EQ,X'0010'),BEGIN Segment Fault
 00097A D501 0A86 008E 00A86 0008E  3010  1          +
 000980 4770 09F8            009F8  3011  1          +
 000984 5820 02EC            002EC  3016  2  540.                  L     RA,ICURLOC
 000988 1832                        3017  2  541.                  LR    RB,RA
 00098A 4A30 0A7A            00A7A  3018  2  542.                  AH    RB,=Y(4096)
 00098E 5030 02EC            002EC  3019  2  543.                  ST    RB,ICURLOC
 000992 5920 02F0            002F0  3020  2  544.                  IF    (RA,GT,IMAXPAG),BEGIN
 000996 47D0 09B0            009B0  3032  2          +
 00099A 0A02/12                     3037  3  545.                    IPLERR 'OUT OF PAGE FRAMES'   No more pages
 00099D D6E4E340D6C640D7            3040  3          +
 0009B0                             3042  2  546.                  END
                                    3046  2  547.     *
                                    3047  2  548.     * Fix up the segment table
                                    3048  2  549.     *
 0009B0 5830 0090            00090  3049  2  550.                  L     RB,PZTREXA              Get the exception address
 0009B4 B130 3000            00000  3050  2  551.                  LRA   RB,@RB
 0009B8 47E0 09D4            009D4  3051  2  552.                  IF    O,BEGIN                 Too long (CC=3)
 0009BC 0A02/14                     3062  3  553.                    IPLERR 'INVALID VIRTUAL ADDR'
 0009BF C9D5E5C1D3C9C440            3065  3          +
 0009D4                             3067  2  554.                  END   ,
 0009D4 5020 3000            00000  3071  2  555.                  ST    RA,@RB                  Validate the segment
 0009D8 960F 3003      00003        3072  2  556.                  OI    @RB+3,X'0F'             To full length
                                    3073  2  557.     *
                                    3074  2  558.     * Now format the page table.  All pages invalid.
                                    3075  2  559.     *
 0009DC 4130 0100            00100  3076  2  560.                  LA    RB,256                  Number of pages
 0009E0 4140 0400            00400  3077  2  561.                  LA    RJ,X'400'               Invalid value
 0009E4 5040 2000            00000  3078  2  562.     PGTBL        ST    RJ,@RA                  Invalidate the entry
 0009E8 4120 2004            00004  3079  2  563.                  LA    RA,@RA+4                Move to the next one
 0009EC 4630 09E4            009E4  3080  2  564.                  BCT   RB,PGTBL                Keep looping
1IPLTEXT  IPLTEXT -- Initial Program for the Guest machine                                                                  Page   27
0Current Usings:  (PZERO,R0) (@IPLPARM-72,R13)
0Loc    Object Code    Addr1 Addr2  Stmt Lv Lineno    Source Statement           (Hibal 5, Asmedit 3.3)  HLASM R4.0  2004/03/22 09.41
+___    ______ ____    _____ _____  ____ __ ______    ______ _________
0                                   3081  2  565.     *
                                    3082  2  566.     * Return to the caller
                                    3083  2  567.     *
 0009F0 980F 0288            00288  3084  2  568.                  LM    R0,R15,IPREGS           Restore the registers
 0009F4 8200 0280      00280        3085  2  569.                  LPSW  IPGOPSW                 Then back to the caller
 0009F8                             3086  1  570.                END   ,
                                    3090  1  571.     *
                                    3091  1  572.     * If it is a page fault... we just get a new page and stick it on
                                    3092  1  573.     *
 0009F8                             3093  1  574.                IF    (PZPIIC,EQ,X'0011'),BEGIN Page Fault
 0009F8 D501 0A88 008E 00A88 0008E  3104  1          +
 0009FE 4770 0A42            00A42  3105  1          +
 000A02 5820 02EC            002EC  3110  2  575.                  L     RA,ICURLOC
 000A06 1832                        3111  2  576.                  LR    RB,RA
 000A08 4A30 0A7A            00A7A  3112  2  577.                  AH    RB,=Y(4096)
 000A0C 5030 02EC            002EC  3113  2  578.                  ST    RB,ICURLOC
 000A10 5920 02F0            002F0  3114  2  579.                  IF    (RA,GT,IMAXPAG),BEGIN
 000A14 47D0 0A2E            00A2E  3126  2          +
 000A18 0A02/12                     3131  3  580.                    IPLERR 'OUT OF PAGE FRAMES'   No more pages
 000A1B D6E4E340D6C640D7            3134  3          +
 000A2E                             3136  2  581.                  END   ,
                                    3140  2  582.     *
                                    3141  2  583.     * Fix up the Page table
                                    3142  2  584.     *
 000A2E 5810 0090            00090  3143  2  585.                  L     RS,PZTREXA              Get the exception address
 000A32 B110 1000            00000  3144  2  586.                  LRA   RS,@RS                  Get PTE address (real)
 000A36 5020 1000            00000  3145  2  587.                  ST    RA,@RS                  Validate the page
                                    3146  2  588.     *
                                    3147  2  589.     * Return to the caller
                                    3148  2  590.     *
 000A3A 980F 0288            00288  3149  2  591.                  LM    R0,R15,IPREGS           Restore the registers
 000A3E 8200 0280      00280        3150  2  592.                  LPSW  IPGOPSW                 Then back to the caller
 000A42                             3151  1  593.                END   ,
 000A42                             3155     594.              END   ,
                                    3159     595.     *
                                    3160     596.     * Any other program check and we just can it
                                    3161     597.     *
 000A42 0A02/0D                     3162     598.              IPLERR 'PROGRAM CHECK'        Program check in IPL
 000A45 D7D9D6C7D9C1D440            3165             +
1IPLTEXT  IPLTEXT -- Initial Program for the Guest machine                                                                  Page   28
0Current Usings:  (PZERO,R0) (@IPLPARM-72,R13)
0Loc    Object Code    Addr1 Addr2  Stmt Lv Lineno    Source Statement           (Hibal 5, Asmedit 3.3)  HLASM R4.0  2004/03/22 09.41
+___    ______ ____    _____ _____  ____ __ ______    ______ _________
0000A58                             3168     600.              LTORG
 000A58 00001000                    3170                             =A(4096)
 000A5C 7FFFF000                    3171                             =X'7FFFF000'
 000A60 00000100                    3172                             =A(L'IBUFFER)
 000A64 7FFFF800                    3173                             =X'7FFFF800'
 000A68 00010000                    3174                             =A(16*4096)
 000A6C 0000000F                    3175                             =X'0000000F'
 000A70 0010                        3176                             =Y(L'MAPENT)
 000A72 0010                        3177                             =Y(L'CSD)
 000A74 0004                        3178                             =Y(L'RLD-(RLDFLG-RLD))
 000A76 0008                        3179                             =Y(L'RLD)
 000A78 0FFF                        3180                             =Y(4095)
 000A7A 1000                        3181                             =Y(4096)
 000A7C 0000                        3182                             =X'0000'
 000A7E 0001                        3183                             =X'0001'
 000A80 0002                        3184                             =X'0002'
 000A82 0003                        3185                             =X'0003'
 000A84 0004                        3186                             =X'0004'
 000A86 0010                        3187                             =X'0010'
 000A88 0011                        3188                             =X'0011'
 000A8A 04             00A92 01000  3189                             =X'04'
 000A92 0000000000000000            3193     601.              DC    (4096-(*-IPLTEXT))X'00'           Fill out the page
 001000                01000 01000  3194     602.              END   .

1IPLTEXT  Ordinary Symbol and Literal Cross Reference                                                                       Page   29
-Symbol   Length   Value     Id    R Type   Defn References                                  HLASM R4.0  2004/03/22 09.41
0$$$@R0        1 00000000 FFFFFFFE     J     714 1010
 $$$@R1        1 00000000 FFFFFFFD     J     727 1022
 $$$@R10       1 00000000 FFFFFFF4     J     844 1142
 $$$@R11       1 00000000 FFFFFFF3     J     857 1154
 $$$@R12       1 00000000 FFFFFFF2     J     870 1166
 $$$@R13       1 00000000 FFFFFFF1     J     883 1178
 $$$@R14       1 00000000 FFFFFFF0     J     896 1190
 $$$@R15       1 00000000 FFFFFFEF     J     909 1202
 $$$@R2        1 00000000 FFFFFFFC     J     740 1034
 $$$@R3        1 00000000 FFFFFFFB     J     753 1046
 $$$@R4        1 00000000 FFFFFFFA     J     766 1058
 $$$@R5        1 00000000 FFFFFFF9     J     779 1070
 $$$@R6        1 00000000 FFFFFFF8     J     792 1082
 $$$@R7        1 00000000 FFFFFFF7     J     805 1094
 $$$@R8        1 00000000 FFFFFFF6     J     818 1106
 $$$@R9        1 00000000 FFFFFFF5     J     831 1118  1130
 $$$C1IPLTEXT
               1 00000A92 00000001     J    3190 3192
 $$$C2IPLTEXT
               1 00001000 00000001     J    3197 3199
 $$$D0IPLTEXT
               1 00000A8B 00000001     J    1219 2733
 $$$R@IPLPARM
               1 00000000 FFFFFFED     J    1329 1346  1346
 $$$RCR        1 00000000 FFFFFFE7     J    1568 1621  1621
 $$$RCRD       1 00000000 FFFFFFE6     J    1627 1641  1641
 $$$RCSD       1 00000000 FFFFFFE9     J    1427 1528  1528
 $$$RCSR       1 00000000 FFFFFFEA     J    1403 1421  1421
 $$$RIDR       1 00000000 FFFFFFE8     J    1534 1562  1562
 $$$RISTKE
               1 00000000 FFFFFFEC     J    1362 1376  1376
 $$$RMAPENT
               1 00000000 FFFFFFEB     J    1382 1397  1397
 $$$RPZERO
               1 00000000 FFFFFFEE     J    1224 1315  1315
 $$$RRLD       1 00000000 FFFFFFE5     J    1647 1693  1693
 $$$15F        2 00000654 00000001     H    2405 1851B
 $$$15S        2 000004E4 00000001     H    1844 2404B
 $$$17F        2 00000516 00000001     H    1885 1872B
 $$$18B        4 0000051E 00000001     I    1904 2055
 $$$18F        2 0000056A 00000001     H    2047 1904B 2054
 $$$19F        2 0000056A 00000001     H    2026 1953B
 $$$19S        2 0000052E 00000001     H    1946 2025B
 $$$21F        2 00000562 00000001     H    2017 1971B
 $$$22E        2 0000056E 00000001     H    2062 2056
 $$$22F        2 00000650 00000001     H    2397 2058B 2069B
 $$$24F        2 000005F0 00000001     H    2285 2100B
 $$$25F        2 000005F0 00000001     H    2281 2120B
 $$$25S        2 00000588 00000001     H    2113 2280B
 $$$27B        4 0000059C 00000001     I    2156 2170
 $$$27F        2 000005AC 00000001     H    2167 2156B 2169
 $$$28E        2 000005B0 00000001     H    2177 2171
 $$$28F        2 000005D8 00000001     H    2231 2173B
 $$$29B        4 000005B4 00000001     I    2186 2206
 $$$29F        2 000005C6 00000001     H    2203 2186B 2205
1IPLTEXT  Ordinary Symbol and Literal Cross Reference                                                                       Page   30
 $$$30E        2 000005CA 00000001     H    2213 2207
 $$$30F        2 000005D8 00000001     H    2227 2209B
 $$$31B        4 000005DC 00000001     I    2246 2258
 $$$31F        2 000005E4 00000001     H    2255 2246B 2257
 $$$32E        2 000005E8 00000001     H    2265 2259
 $$$32F        2 000005EC 00000001     H    2271 2261B
 $$$33F        2 00000644 00000001     H    2359 2299B
 $$$34F        2 00000644 00000001     H    2355 2342B
 $$$35F        2 00000650 00000001     H    2388 2373B
 $$$36F        2 000006FA 00000001     H    2503 2492B
 $$$36S        2 000006E8 00000001     H    2485 2502B
 $$$39F        2 00000812 00000001     H    2663 2646B
 $$$40F        2 00000828 00000001     H    2697 2679B
 $$$41F        2 00000850 00000001     H    2752 2713B
 $$$42         6 00000A8C 00000001     I    2739 2731X
 $$$43         6 00000A8C 00000001     I    2738 2739  2739
 $$$44F        2 000008F4 00000001     H    2893 2769B
 $$$45F        2 0000087C 00000001     H    2798 2784B
 $$$46F        2 000008A8 00000001     H    2829 2816B
 $$$47F        2 000008C8 00000001     H    2854 2841B
 $$$48F        2 000008EC 00000001     H    2886 2873B
 $$$48S        2 000008D8 00000001     H    2867 2885B
 $$$50F        2 0000090A 00000001     H    2928 2911B
 $$$51F        2 00000A42 00000001     H    3158 2968B
 $$$52F        2 0000097A 00000001     H    2997 2983B
 $$$53F        2 000009F8 00000001     H    3089 3011B
 $$$54F        2 000009B0 00000001     H    3045 3032B
 $$$55F        2 000009D4 00000001     H    3070 3057B
 $$$56F        2 00000A42 00000001     H    3154 3105B
 $$$57F        2 00000A2E 00000001     H    3139 3126B
 @IPLKLEN      4 00000004 FFFFFFED     A    1336 2569M
 @IPLKLOC      4 00000000 FFFFFFED     A    1335 2568M
 @IPLMLEN      4 0000000C FFFFFFED     A    1338 2571M
 @IPLMLOC      4 00000008 FFFFFFED     A    1337 2570M
 @IPLPARM     20 00000000 FFFFFFED     J    1346 2559U 2567M 2567
 @IPLSLOC      4 00000010 FFFFFFED     A    1339 2572M
 @RA           0 00000000 FFFFFFFC     @    1035 1815  1903  2068  2449M 2450  2523M 2523  2878M 2879  3078M 3079
 @RB           0 00000000 FFFFFFFB     @    1047 2497M 2498  2510M 2511  2531M 2532  2539M 2540  2834  2855M 2856M 3050
                                                 3071M 3072M
 @RJ           0 00000000 FFFFFFFA     @    1059 2316  2319
 @RS           0 00000000 FFFFFFFD     @    1023 2161  2163M 2196  2199M 2220  2223  2724  2726  2738  3144  3145M
 @RX           0 00000000 FFFFFFF8     @    1083 2318M 2321
 @RY           0 00000000 FFFFFFF7     @    1095 2467
 @R0           0 00000000 FFFFFFFE     @     715  991U
 @R1           0 00000000 FFFFFFFD     @     728  987U 2833
 @R10          0 00000000 FFFFFFF4     @     845  951U
 @R11          0 00000000 FFFFFFF3     @     858  947U
 @R12          0 00000000 FFFFFFF2     @     871  943U
 @R13          0 00000000 FFFFFFF1     @     884  939U
 @R14          0 00000000 FFFFFFF0     @     897  935U
 @R15          0 00000000 FFFFFFEF     @     910  931U
 @R2           0 00000000 FFFFFFFC     @     741  983U 1934U 2036U 2044U 2394U 2725U
 @R3           0 00000000 FFFFFFFB     @     754  979U
 @R4           0 00000000 FFFFFFFA     @     767  975U 2007U 2277U
 @R5           0 00000000 FFFFFFF9     @     780  971U
 @R6           0 00000000 FFFFFFF8     @     793  967U
 @R7           0 00000000 FFFFFFF7     @     806  963U
 @R8           0 00000000 FFFFFFF6     @     819  959U
 @R9           0 00000000 FFFFFFF5     @     832  955U
1IPLTEXT  Ordinary Symbol and Literal Cross Reference                                                                       Page   31
 @WAR          0 00000000 FFFFFFF2     @    1167 2435
 AUTOPF       64 000002F4 00000001         1754 2656M 2690M 2967
 CR           16 00000000 FFFFFFE7     J    1621 2083U
 CRADDR        3 00000009 FFFFFFE7     R    1611 2312
 CRDATA        1 00000010 FFFFFFE7     X    1614 2105
 CRRLEN        2 00000006 FFFFFFE7     H    1608 2106
 CRTCR         1 00000000 FFFFFFE7         1584 2298
 CRTEOM       12 00000000 FFFFFFE7         1602 2372
 CRTLEN        2 0000000E FFFFFFE7     H    1613 2341
 CRTRLD        2 00000000 FFFFFFE7         1593 2099
 CRTYPE        1 00000000 FFFFFFE7     R    1576 1584  1593  1602
 CSD          16 00000000 FFFFFFE9     J    1528 1937U 3177
 CSDADDR       3 00000009 FFFFFFE9     R    1519 1997
 CSDIDL        3 0000000D FFFFFFE9     R    1521 2000
 CSDNAME       8 00000000 FFFFFFE9     C    1433 1991
 CSDTSD       15 00000008 FFFFFFE9         1445 1970
 CSDTYPE       1 00000008 FFFFFFE9     R    1436 1445  1455  1465  1475  1485  1495  1505  1515
 CSR           8 00000000 FFFFFFEA     J    1421 1918U 2039U
 CSRCNT        2 00000006 FFFFFFEA     H    1413 1922
 CSRDATA       2 00000008 FFFFFFEA     H    1414 1923  1924
 EPAR         15 0000000F FFFFFFFF A   #    1196 2196M 2197M 2199  2220M 2221M 2223  2578M 2579B
 HIBAL         1 00000000 FFFFFFFF     J     700  716   729   742   755   768   781   794   807   820   833   846   859
                                                  872   885   898   911  1012  1024  1036  1048  1060  1072  1084  1096
                                                 1108  1120  1132  1144  1156  1168  1180  1192  1204
 IBUFFER     256 000002F8 00000001     X    1763 1836  1886  3172
 ICR00         4 00000410 00000001     X    1769 2458
 ICR01         4 00000414 00000001     X    1770 2457M
 ICURLOC       4 000002EC 00000001     A    1741 1818M 1976  2013M 2410  2426  2434M 2441  2444M 2471  2473M 2800  2803M
                                                 3016  3019M 3110  3113M
 IDRTYPE       1 00000002 FFFFFFE8     R    1544 1552
 IEXFLIH       4 00000772 00000001     I    2585 1713
 IIOFLIH       4 000007CC 00000001     I    2601 1717
 IKEPA         4 000002E0 00000001     A    1735 1813M 2578
 IKLEN         4 000002DC 00000001     A    1734 1811M 1823  2569
 IKSTART       4 000002D8 00000001     A    1733 1810M 1822  1998  2144  2162  2197  2221  2313  2568
 ILEOM       128 000002F4 00000001         1749 1850  2384M
 ILIDAW1       4 000003F8 00000001     A    1764 1837M 1856
 ILIDAW2       4 000003FC 00000001     A    1765 2315  2326
 IMAPLEN       4 000002E8 00000001     A    1737 2412M 2571
 IMAPST        4 000002E4 00000001     A    1736 1817M 2411  2570
 IMAXPAG       4 000002F0 00000001     A    1742 2425M 2815  3031  3125
 INVSVC       31 00000928 00000001     C    2939 2932  2932
 IPGOPSW       8 00000280 00000001     D    1725 2586M 2594M 2602M 2747  2954M 3085  3150
 IPIFLIH       2 00000948 00000001     H    2949 1715
 IPLSTRT       2 000004A0 00000001     H    1785 1711
 IPLTEXT       1 00000000 00000001     J    1218 1215  1216  1220  1316  1347  1377  1398  1422  1529  1563  1622  1642
                                                 1694  1710  1711  1712  1713  1714  1715  1717  1798U 2629M 2744  3193
 IPREGS        4 00000288 00000001     F    1726 2585M 2593M 2601M 2629  2630M 2658  2692  2888  2923  2933  2953M 3084
                                                 3149
 ISAPSW        8 00000458 00000001     D    1778 2747M 2934M
 ISAREGS       4 00000460 00000001     A    1779 2629M 2933M
 ISREASON     64 00000418 00000001     C    1775 2738M 2932M
 ISTO          4 000002C8 00000001     A    1727 2445M 2456  2462  2537
 ISVFLIH       2 000007F2 00000001     H    2628 1714
 MAPENT       16 00000000 FFFFFFEB     J    1397 1986U 3176
 MAPLEN        4 0000000C FFFFFFEB     A    1390 2000M
 MAPLOC        4 00000008 FFFFFFEB     A    1389 1999M
 MAPNAME       8 00000000 FFFFFFEB     C    1388 1991M
 PGLP          4 00000700 00000001     I    2510 2513B
1IPLTEXT  Ordinary Symbol and Literal Cross Reference                                                                       Page   32
 PGTBL         4 000009E4 00000001     I    3078 3080B
 PGVRL         4 00000722 00000001     I    2531 2533B
 PZERO       640 00000000 FFFFFFEE     J    1315 1706  1710  1712  1793U 1798U
 PZEXNPSW      8 00000058 FFFFFFEE     D    1247 1712
 PZEXOPSW      8 00000018 FFFFFFEE     D    1241 2586
 PZIOOPSW      8 00000038 FFFFFFEE     D    1245 2602
 PZMCNPSW      8 00000070 FFFFFFEE     D    1250 1800
 PZMCOPSW      8 00000030 FFFFFFEE     D    1244 2594
 PZPIIC        2 0000008E FFFFFFEE     H    1258 3010  3104
 PZPIOPSW      8 00000028 FFFFFFEE     D    1243 2954
 PZRSNPSW      8 00000000 FFFFFFEE     D    1238 1710  1800M
 PZSVIC        2 0000008A FFFFFFEE     H    1256 2645  2678  2712  2768  2910
 PZSVOPSW      8 00000020 FFFFFFEE     D    1242 2659  2693  2718  2889  2924  2934
 PZTERMFL      1 0000021A FFFFFFEE     R    1292 1296  1301
 PZTREXA       4 00000090 FFFFFFEE     A    1259 3049  3143
 RA            2 00000002 FFFFFFFF A   #    1028 1808  1811  1814M 1815M 1816M 1817  1818  1822M 1832M 1836M 1837  1856M
                                                 1859  1886M 1918U 1924M 1937U 1952  2021M 2083U 2422  2423M 2424M 2425
                                                 2426M 2427M 2428M 2432  2433M 2434  2441M 2442  2445  2450M 2455M 2456M
                                                 2457  2471M 2472  2479  2508  2529  2538M 2539  2541M 2724M 2729M 2731
                                                 2800M 2801  2815  2855  2879M 3016M 3017  3031  3071  3079M 3110M 3111
                                                 3125  3145
 RAR          14 0000000E FFFFFFFF A   #    1184 2579M
 RB            3 00000003 FFFFFFFF A   #    1040 1808  1812M 1813  1823M 1922M 1923M 1923  1952  2447M 2451M 2479M 2491
                                                 2498M 2508M 2511M 2527M 2528M 2529M 2532M 2537M 2540M 2801M 2802M 2803
                                                 2833M 2834M 2860M 2872M 2872  2881M 3017M 3018M 3019  3049M 3050M 3076M
                                                 3080M 3111M 3112M 3113
 REALINITED
              32 000002F4 00000001         1759 2783  2921M 2982
 RIDL          4 0000060A 00000001     I    2316 2322B
 RJ            4 00000004 FFFFFFFF A   #    1052 1827M 1827  1832M 1976M 1986U 2012M 2013  2105M 2107  2119  2134U 2251M
                                                 2267M 2312M 2313M 2319M 2320M 2448M 2449  2861M 2878  3077M 3078
 RK            5 00000005 FFFFFFFF A   #    1064 1831M 1831  2106M 2107M 2119  2314M 2322M
 RLD           8 00000000 FFFFFFE5     J    1693 2134U 3178  3178  3179
 RLDADDR       3 00000005 FFFFFFE5     R    1686 2143
 RLDFLG        1 00000004 FFFFFFE5     R    1657 1665  1674  1683  2149  2179  3178
 RLDFSP        1 00000004 FFFFFFE5         1683 2245
 RS            1 00000001 FFFFFFFF A   #    1016 1809M 1810  1812  1814  1859  1871  1997M 1998M 1999  2143M 2144M 2316M
                                                 2318  2329  2341  2410M 2411M 2412  2469M 2470M 2472M 2473  2491  2718M
                                                 2726M 3143M 3144M
 RVR           0 00000000 FFFFFFFF A   #    1004 2161M 2162M 2163  2442M 2443M 2444  2478M 2497  2509M 2510  2512M
 RX            6 00000006 FFFFFFFF A   #    1076 2315M 2321M 2326M 2329  2467M 2468M 2469  2542M
 RY            7 00000007 FFFFFFFF A   #    1088 2462M 2463M 2513M 2530M 2533M
 R0            0 00000000 FFFFFFFF A   #     708 1793U 2585  2593  2601  2630  2658M 2692M 2888M 2923M 2953  3084M 3149M
 R15          15 0000000F FFFFFFFF A   #     903 2585  2593  2601  2630  2658M 2692M 2888M 2923M 2953  3084M 3149M
 SPR          13 0000000D FFFFFFFF A   #    1172 2435M 2559U
 STAFLAG       1 000002F4 00000001     R    1745 1749  1754  1759
 STILP         4 000006A6 00000001     I    2449 2451B
 STLP          4 00000736 00000001     I    2539 2542B
 WAITPSW       8 00000920 00000001     X    2938 2748  2935
 WAR          12 0000000C FFFFFFFF A   #    1160 2432M 2527  2572
 =A(L'IBUFFER)
               4 00000A60 00000001     A    3172 1871
 =A(16*4096)
               4 00000A68 00000001     A    3174 2433
 =A(4096)      4 00000A58 00000001     A    3170 1809
 =X'0000'      2 00000A7C 00000001     X    3182 2645
 =X'0000000F'
               4 00000A6C 00000001     X    3175 2538
 =X'0001'      2 00000A7E 00000001     X    3183 2678
1IPLTEXT  Ordinary Symbol and Literal Cross Reference                                                                       Page   33
 =X'0002'      2 00000A80 00000001     X    3184 2712
 =X'0003'      2 00000A82 00000001     X    3185 2768
 =X'0004'      2 00000A84 00000001     X    3186 2910
 =X'0010'      2 00000A86 00000001     X    3187 3010
 =X'0011'      2 00000A88 00000001     X    3188 3104
 =X'04'        1 00000A8A 00000001     X    3189 2546
 =X'7FFFF000'
               4 00000A5C 00000001     X    3171 1816  2428
 =X'7FFFF800'
               4 00000A64 00000001     X    3173 2320
 =Y(L'CSD)
               2 00000A72 00000001     Y    3177 2021
 =Y(L'MAPENT)
               2 00000A70 00000001     Y    3176 2012
 =Y(L'RLD)
               2 00000A76 00000001     Y    3179 2267
 =Y(L'RLD-(RLDFLG-RLD))
               2 00000A74 00000001     Y    3178 2251
 =Y(4095)      2 00000A78 00000001     Y    3180 2427
 =Y(4096)      2 00000A7A 00000001     Y    3181 2443  2512  2541  2802  3018  3112

1IPLTEXT  Macro and Copy Code Source Summary                                                                                Page   34
- Con Source                                        Volume    Members                        HLASM R4.0  2004/03/22 09.41
0     PRIMARY INPUT                                           CSECT    DROP     END      EX       IPLERR   LTORG    POP
                                                              PRINT    PUSH     START    USING
   L2 WYL.GG.ORV.MACLIB                             SYSB02    ACALL    HEADER   IPLPARM  PSET     PZERO    REG
                                                              SPLEVEL  SYSCTL
   L3 WYL.GG.SYS.MACLIB                             SYSB05    $BFLKUP  $BV      $CCLKUP  $CRS     $CSS     $L
                                                              $LBLAD   $LEXP    $LOR     $REL     $RGLKUP  $USLKUP
                                                              AUSING   BEGIN    CLEAR    CSECT    DATA     DECR
                                                              DEFCC    DEX      DIAG     DROP     ELSE     ELSEIF   END
                                                              EX       FLAG     GEN      HIBAL    IDENT    IF
                                                              LABEL    LC       LCM      LTORG    L2       L3       POP
                                                              PRINT    PUSH     RECORD   REGS     SET      START    ST2
                                                              ST3      USING    WHILE    WITH

1         General Purpose Register Cross Reference                                                                          Page   35
- Register  References (M=modified, B=branch, U=USING, D=DROP, N=index)                      HLASM R4.0  2004/03/22 09.41
0    0(0)     991U  992D 1793U 2161M 2162M 2163  2442M 2443M 2444  2478M 2497  2509M 2510  2512M 2585  2593  2601  2630
             2658M 2692M 2888M 2923M 2953  3084M 3149M
     1(1)     987U 1809M 1810  1812  1814  1871  1996M 1996  1997M 1998M 1999  2142M 2142  2143M 2144M 2316M 2318  2341
             2410M 2411M 2412  2469M 2470M 2472M 2473  2491  2585  2593  2601  2630  2658M 2692M 2718M 2726M 2888M 2923M
             2953  3084M 3143M 3144M 3149M
     2(2)     983U 1811  1814M 1815M 1816M 1817  1818  1822M 1832M 1836M 1837  1856M 1886M 1918U 1924M 1934U 1937U 1952
             2021M 2036U 2039U 2044U 2083U 2394U 2423M 2424M 2425  2426M 2427M 2428M 2432  2433M 2434  2441M 2442  2445
             2450M 2455M 2456M 2457  2471M 2472  2479  2508  2529  2538M 2539  2541M 2585  2593  2601  2630  2658M 2692M
             2721D 2723M 2723  2724M 2725U 2729M 2731  2800M 2801  2815  2855  2879M 2888M 2923M 2953  3016M 3017  3031
             3071  3079M 3084M 3110M 3111  3125  3145  3149M
     3(3)     979U 1812M 1813  1823M 1832M 1922M 1923M 1923N 1952  2447M 2451M 2479M 2491  2498M 2508M 2511M 2527M 2528M
             2529M 2532M 2537M 2540M 2585  2593  2601  2630  2658M 2692M 2801M 2802M 2803  2833M 2834M 2860M 2872M 2872
             2881M 2888M 2923M 2953  3017M 3018M 3019  3049M 3050M 3076M 3080M 3084M 3111M 3112M 3113  3149M
     4(4)     975U 1827M 1827  1832M 1976M 1986U 2007U 2012M 2013  2105M 2107  2119  2134U 2251M 2267M 2277U 2311M 2311
             2312M 2313M 2319M 2320M 2448M 2449  2585  2593  2601  2630  2658M 2692M 2861M 2878  2888M 2923M 2953  3077M
             3078  3084M 3149M
     5(5)     971U 1831M 1831  1832M 2106M 2107M 2119  2314M 2322M 2585  2593  2601  2630  2658M 2692M 2888M 2923M 2953
             3084M 3149M
     6(6)     967U 2315M 2321M 2326M 2467M 2468M 2469  2542M 2585  2593  2601  2630  2658M 2692M 2888M 2923M 2953  3084M
             3149M
     7(7)     963U 2462M 2463M 2513M 2530M 2533M 2585  2593  2601  2630  2658M 2692M 2888M 2923M 2953  3084M 3149M
     8(8)     959U 2585  2593  2601  2630  2658M 2692M 2888M 2923M 2953  3084M 3149M
     9(9)     955U 2585  2593  2601  2630  2658M 2692M 2888M 2923M 2953  3084M 3149M
    10(A)     951U 2585  2593  2601  2630  2658M 2692M 2888M 2923M 2953  3084M 3149M
    11(B)     947U 2585  2593  2601  2630  2658M 2692M 2888M 2923M 2953  3084M 3149M
    12(C)     943U 2432M 2527  2572  2585  2593  2601  2630  2658M 2692M 2888M 2923M 2953  3084M 3149M
    13(D)     939U 2435M 2559U 2585  2593  2601  2630  2658M 2692M 2888M 2923M 2953  3084M 3149M
    14(E)     935U 2579M 2585  2593  2601  2630  2658M 2692M 2888M 2923M 2953  3084M 3149M
    15(F)     931U 2195M 2195  2196M 2197M 2199  2219M 2219  2220M 2221M 2578M 2579B 2585  2593  2601  2630  2658M 2692M
             2888M 2923M 2953  3084M 3149M

1IPLTEXT  Diagnostic Cross Reference and Assembler Summary                                                                  Page   36
-                                                                                            HLASM R4.0  2004/03/22 09.41
0     No Statements Flagged in this Assembly
 HIGH LEVEL ASSEMBLER, 5696-234, RELEASE 4.0, PTF UQ57391
0SYSTEM: OS/390 02.10.00            JOBNAME: PJG#IPL     STEPNAME: ASM        PROCSTEP: (NOPROC)
0Datasets Allocated for this Assembly
  Con DDname   Dataset Name                                 Volume  Member
   P1 SYSIN    SYS04082.T094114.RA000.PJG#IPL.INPUT.H01     SCR101
   L1 SYSLIB   SYS3.DUMMYMAC                                SYSB02
   L2          WYL.GG.ORV.MACLIB                            SYSB02
   L3          WYL.GG.SYS.MACLIB                            SYSB05
   L4          SYS1.MACLIB                                  MVSBR9
      SYSLIN   WYL.GG.PJG.OBJ                               SYSB05  IPLTEXT
      SYSPRINT SYS04082.T094114.RA000.PJG#IPL.PRINT.H01     SCR100
      SYSTERM  GG$PJG.PJG#IPL.JOB05942.D0000103.?

    7812K allocated to Buffer Pool,          617K would be required for this to be an In-Storage Assembly
     663 Primary Input Records Read         3323 Library Records Read                  0 Work File Reads
       0 ASMAOPT Records Read               1981 Primary Print Records Written         0 Work File Writes
      89 Punch Records Written                 0 ADATA Records Written
0Assembly Start Time: 09.41.16 Stop Time: 09.41.19 Processor Time: 00.00.00.6436
 Return Code 000
