1                        J E S 2  J O B  L O G  --  S Y S T E M  S Y S B  --  N O D E  R L G
0
 09.47.38 JOB05983 ---- MONDAY,    22 MAR 2004 ----
 09.47.38 JOB05983  ICH70001I GG$PJG   LAST ACCESS AT 09:47:26 ON MONDAY, MARCH 22, 2004
 09.47.38 JOB05983  $HASP373 PJG#VFSH STARTED - INIT 3    - CLASS E - SYS SYSB
 09.47.38 JOB05983  ***  HCMD      STEP $$QUIET
 09.47.38 JOB05983  PURGE * Q=OUTPUT MULTIPLE
 09.47.38 JOB05983  JOB PJG#VFSH NOT IN OUTPUT QUEUE
 09.47.39 JOB05983  PJG#VFSH.$$QUIET .         RC=0008 TapeIO=0000 DiskIO=0000 CPU=  .01s Elapsed=58.28s
 09.47.39 JOB05983  PJG#VFSH.$CND    .         RC=Zero TapeIO=0000 DiskIO=0002 CPU=  .01s Elapsed=59.32s
 09.47.39 JOB05983  PJG#VFSH.$UNP    .         RC=Zero TapeIO=0000 DiskIO=0018 CPU=  .05s Elapsed=59.50s
 09.47.45 JOB05983  PJG#VFSH.ASM     .         RC=Zero TapeIO=0000 DiskIO=0358 CPU= 2.03s Elapsed=59.86s
 09.47.46 JOB05983  PJG#VFSH.$EDIT   .         RC=Zero TapeIO=0000 DiskIO=0105 CPU=  .40s Elapsed=65.22s
 09.47.46 JOB05983  PJG#VFSH Ended.  Name=Module: VFSH                   Total CPU= 2.50s Elapsed=58.28s
 09.47.46 JOB05983
 09.47.46 JOB05983  Execution charges   Priority=Standard   Block=Day
 09.47.46 JOB05983
 09.47.46 JOB05983  CPU Usage          45.75          $28.36   Standard Processing Unit Equivalent
 09.47.46 JOB05983                                   =======
 09.47.46 JOB05983                                    $28.36   Total Job execution charge
 09.47.46 JOB05983
 09.47.46 JOB05983  See back separator page for print charges
 09.47.46 JOB05983
 09.47.46 JOB05983  $HASP395 PJG#VFSH ENDED  ASM=0
1        1 //PJG#VFSH JOB PJG$GG,'Module: VFSH',TIME=1,MSGCLASS=C                  JOB05983
           /*JOBPARM HOLD=OUTPUT,LINES=50,CHARS=TN15,NOTIFY=YES
         2 //       EXEC PURGEOLD
         3 XXPURGEOLD PROC
           XX*
           XX* This proc is maintained by Jim Stosick
           XX*
         4 XX$$QUIET  EXEC PGM=HCMDX,PARM='PURGE * Q=OUTPUT MULTIPLE',
           XX         ACCT=(PURGEOLD,SYS3)
         5 //$CND   EXEC PGM=BILBO,REGION=512K,PARM='RECS=100'
         6 //STEPLIB  DD DSN=WYL.GG.ORV.LINKLIB,DISP=SHR
         7 //SYSPRINT DD SYSOUT=$
         8 //SYSUT1   DD DSN=WYL.GG.PJG.OBJ,DISP=OLD
         9 //SYSUT2   DD DSN=WYL.GG.PJG.OBJ,DISP=OLD
        10 //SYSIN    DD DUMMY
        11 //$UNP   EXEC PGM=WUNPRESS,PARM='NUM'
        12 //SYSPRINT DD SYSOUT=$
        13 //SYSUT1   DD DSN=WYL.GG.ORV.SOURCE(VFSH),DISP=SHR
        14 //SYSUT2   DD DSN=&&INPUT,DISP=(,PASS),UNIT=SYSDA,
           //            SPACE=(TRK,(25,25),RLSE),DCB=CARD
        15 //ASM    EXEC PGM=ASMA90,REGION=8M,COND=(0,NE,$UNP),
           //            PARM=('SYSPARM(VFSH),TERM,LANG(EN),OBJ',
           //          'LC(32500),XREF(SHORT),NODECK,NORLD,NODX,NOUS')
           //*STEPLIB  DD DSN=SYS1.SASMMOD1,DISP=SHR
        16 //SYSLIB   DD DSN=SYS3.DUMMYMAC,DISP=SHR,DCB=BLKSIZE=27920
        17 //         DD DSN=WYL.GG.SYS.MACLIB,DISP=SHR
        18 //         DD DSN=WYL.GG.ORV.BC.MACLIB,DISP=SHR
        19 //         DD DSN=SYS3.ORVYL.UMACLIB,DISP=SHR
        20 //         DD DSN=SYS3.IS.MACLIB,DISP=SHR
        21 //SYSUT1   DD DSN=&&SYSUT1,UNIT=VIO,DISP=(,DELETE),
           //            SPACE=(4088,(500,250),,CONTIG,ROUND)
        22 //SYSTERM  DD SYSOUT=$
        23 //SYSPRINT DD DSN=&&PRINT,UNIT=SYSDA,DISP=(,PASS),
           //            SPACE=(6650,(250,250),RLSE),
           //            DCB=(BLKSIZE=6650,LRECL=133,RECFM=FB)
        24 //SYSLIN   DD DSN=WYL.GG.PJG.OBJ(VFSH),DISP=OLD
        25 //SYSUDUMP DD SYSOUT=A
        26 //SYSIN    DD DSN=&&INPUT,DISP=(OLD,DELETE)
        27 //$EDIT  EXEC PGM=ASMEDIT,REGION=1M,
           //            COND=EVEN,PARM='STMT,DATA'
        28 //STEPLIB  DD DSN=WYL.GG.SYS.LINKLIB,DISP=SHR
        29 //ASMOUT   DD DSN=&&PRINT,DISP=(OLD,DELETE)
        30 //SYSPRINT DD SYSOUT=A
        31 //SYSUDUMP DD SYSOUT=A
1 STMT NO. MESSAGE
         2 IEFC001I PROCEDURE PURGEOLD WAS EXPANDED USING SYSTEM LIBRARY SYS3.BETAPROC
        14 IGD01010I STORCLAS= TEMP STORGROUP =
        14 IGD01010I STORGRP=VIO ASSIGNED.
        21 IGD01010I STORCLAS= TEMP STORGROUP =
        21 IGD01010I STORGRP=VIO ASSIGNED.
        23 IGD01010I STORCLAS= TEMP STORGROUP =
        23 IGD01010I STORGRP=VIO ASSIGNED.
 ICH70001I GG$PJG   LAST ACCESS AT 09:47:26 ON MONDAY, MARCH 22, 2004
 IEF142I PJG#VFSH $$QUIET - STEP WAS EXECUTED - COND CODE 0008
 *********************************************************************************
 *   PJG#VFSH/$$QUIET /                    Return Code      0008                 *
 *   Region used      260K (16K user + 244K system)                              *
 *   Extended region  9352K (4K user + 9348K system)                             *
 *                                                                               *
 *   Paging              In      Out                                             *
 *   Private <-> Aux      0        0       CPU time (TCB)   00:00:00.01          *
 *   Private <-> Exp      0        0       CPU time (SRB)   00:00:00.00          *
 *   VIO                  0        0       Elapsed time    920:40:14.68          *
 *   Common               0      ---                                             *
 *                                                                               *
 *                                                                               *
 *   CPU Usage          0.18         $0.11  Standard Processing Unit Equivalent  *
 *                                   $0.11  Total Step execution charge          *
 *                                                                               *
 *    I/O count  DDname   Type Addr           I/O count  DDname   Type Addr      *
 *                         *** No I/O for this step ***                          *
 *********************************************************************************
 IEF373I STEP/$$QUIET /START 2004082.0947
 IEF374I STEP/$$QUIET /STOP  2004082.0947 CPU    0MIN 00.01SEC SRB    0MIN 00.00SEC VIRT    16K SYS   244K EXT       4K SYS    9348K
 IEF236I ALLOC. FOR PJG#VFSH $CND
 IEF237I 0401 ALLOCATED TO STEPLIB
 IEF237I JES2 ALLOCATED TO SYSPRINT
 IEF237I 04DC ALLOCATED TO SYSUT1
 IEF237I 04DC ALLOCATED TO SYSUT2
 IEF237I DMY  ALLOCATED TO SYSIN
 IEF142I PJG#VFSH $CND - STEP WAS EXECUTED - COND CODE 0000
 IEF285I   WYL.GG.ORV.LINKLIB                           KEPT
 IEF285I   VOL SER NOS= SYSB01.
 IEF285I   GG$PJG.PJG#VFSH.JOB05983.D0000101.?          SYSOUT
 IEF285I   WYL.GG.PJG.OBJ                               KEPT
 IEF285I   VOL SER NOS= SYSB05.
 IEF285I   WYL.GG.PJG.OBJ                               KEPT
 IEF285I   VOL SER NOS= SYSB05.
 *********************************************************************************
 *   PJG#VFSH/$CND    /                    Return Code      Zero                 *
 *   Region used      280K (16K user + 264K system)                              *
 *   Extended region  9392K (4K user + 9388K system)                             *
 *                                                                               *
 *   Paging              In      Out                                             *
 *   Private <-> Aux      0        0       CPU time (TCB)   00:00:00.01          *
 *   Private <-> Exp      0        0       CPU time (SRB)   00:00:00.00          *
 *   VIO                  0        0       Elapsed time    920:40:13.64          *
 *   Common               0      ---                                             *
 *                                                                               *
 *                                                                               *
 *   CPU Usage          0.18         $0.11  Standard Processing Unit Equivalent  *
 *                                   $0.11  Total Step execution charge          *
 *                                                                               *
 *    I/O count  DDname   Type Addr           I/O count  DDname   Type Addr      *
 *            2  STEPLIB  Disk 0401                   0  SYSPRINT      ----      *
 *            0  SYSUT1   Disk 04DC                   0  SYSUT2   Disk 04DC      *
 *            0  SYSIN         ----                                              *
 *********************************************************************************
 IEF373I STEP/$CND    /START 2004082.0947
 IEF374I STEP/$CND    /STOP  2004082.0947 CPU    0MIN 00.01SEC SRB    0MIN 00.00SEC VIRT    16K SYS   264K EXT       4K SYS    9388K
 IEF236I ALLOC. FOR PJG#VFSH $UNP
 IEF237I JES2 ALLOCATED TO SYSPRINT
 IEF237I 0402 ALLOCATED TO SYSUT1
 IGD101I SMS ALLOCATED TO DDNAME (SYSUT2  )
         DSN (SYS04082.T094738.RA000.PJG#VFSH.INPUT.H01   )
         STORCLAS (TEMP) MGMTCLAS (        ) DATACLAS (        )
         VOL SER NOS= SCR100
 IEF142I PJG#VFSH $UNP - STEP WAS EXECUTED - COND CODE 0000
 IEF285I   GG$PJG.PJG#VFSH.JOB05983.D0000102.?          SYSOUT
 IEF285I   WYL.GG.ORV.SOURCE                            KEPT
 IEF285I   VOL SER NOS= SYSB02.
 IGD106I SYS04082.T094738.RA000.PJG#VFSH.INPUT.H01    PASSED,    DDNAME=SYSUT2
 *********************************************************************************
 *   PJG#VFSH/$UNP    /                    Return Code      Zero                 *
 *   Region used      388K (108K user + 280K system)                             *
 *   Extended region  9468K (4K user + 9464K system)                             *
 *                                                                               *
 *   Paging              In      Out                                             *
 *   Private <-> Aux      0        0       CPU time (TCB)   00:00:00.05          *
 *   Private <-> Exp      0        0       CPU time (SRB)   00:00:00.00          *
 *   VIO                  0        0       Elapsed time    920:40:13.46          *
 *   Common               0      ---                                             *
 *                                                                               *
 *                                                                               *
 *   CPU Usage          0.93         $0.57  Standard Processing Unit Equivalent  *
 *                                   $0.57  Total Step execution charge          *
 *                                                                               *
 *    I/O count  DDname   Type Addr           I/O count  DDname   Type Addr      *
 *            0  SYSPRINT      ----                   3  SYSUT1   Disk 0402      *
 *           15  SYSUT2   Disk 038B                                              *
 *********************************************************************************
 IEF373I STEP/$UNP    /START 2004082.0947
 IEF374I STEP/$UNP    /STOP  2004082.0947 CPU    0MIN 00.05SEC SRB    0MIN 00.00SEC VIRT   108K SYS   280K EXT       4K SYS    9464K
 IEF236I ALLOC. FOR PJG#VFSH ASM
 IEF237I 0402 ALLOCATED TO SYSLIB
 IEF237I 04DC ALLOCATED TO
 IEF237I 0402 ALLOCATED TO
 IEF237I 0402 ALLOCATED TO
 IEF237I 04DC ALLOCATED TO
 IGD101I SMS ALLOCATED TO DDNAME (SYSUT1  )
         DSN (SYS04082.T094738.RA000.PJG#VFSH.SYSUT1.H01  )
         STORCLAS (TEMP) MGMTCLAS (        ) DATACLAS (        )
         VOL SER NOS= VIO
 IEF237I JES2 ALLOCATED TO SYSTERM
 IGD101I SMS ALLOCATED TO DDNAME (SYSPRINT)
         DSN (SYS04082.T094738.RA000.PJG#VFSH.PRINT.H01   )
         STORCLAS (TEMP) MGMTCLAS (        ) DATACLAS (        )
         VOL SER NOS= SCR100
 IEF237I 04DC ALLOCATED TO SYSLIN
 IEF237I JES2 ALLOCATED TO SYSUDUMP
 IGD103I SMS ALLOCATED TO DDNAME SYSIN
 IEF142I PJG#VFSH ASM - STEP WAS EXECUTED - COND CODE 0000
 IEF285I   SYS3.DUMMYMAC                                KEPT
 IEF285I   VOL SER NOS= SYSB02.
 IEF285I   WYL.GG.SYS.MACLIB                            KEPT
 IEF285I   VOL SER NOS= SYSB05.
 IEF285I   WYL.GG.ORV.BC.MACLIB                         KEPT
 IEF285I   VOL SER NOS= SYSB02.
 IEF285I   SYS3.ORVYL.UMACLIB                           KEPT
 IEF285I   VOL SER NOS= SYSB02.
 IEF285I   SYS3.IS.MACLIB                               KEPT
 IEF285I   VOL SER NOS= SYSB05.
 IGD105I SYS04082.T094738.RA000.PJG#VFSH.SYSUT1.H01   DELETED,   DDNAME=SYSUT1
 IEF285I   GG$PJG.PJG#VFSH.JOB05983.D0000103.?          SYSOUT
 IGD106I SYS04082.T094738.RA000.PJG#VFSH.PRINT.H01    PASSED,    DDNAME=SYSPRINT
 IEF285I   WYL.GG.PJG.OBJ                               KEPT
 IEF285I   VOL SER NOS= SYSB05.
 IEF285I   GG$PJG.PJG#VFSH.JOB05983.D0000104.?          SYSOUT
 IGD105I SYS04082.T094738.RA000.PJG#VFSH.INPUT.H01    DELETED,   DDNAME=SYSIN
 *********************************************************************************
 *   PJG#VFSH/ASM     /                    Return Code      Zero                 *
 *   Region used      8484K (8192K user + 292K system)                           *
 *   Extended region  9952K (412K user + 9540K system)                           *
 *                                                                               *
 *   Paging              In      Out                                             *
 *   Private <-> Aux      0        0       CPU time (TCB)   00:00:01.98          *
 *   Private <-> Exp      0        0       CPU time (SRB)   00:00:00.05          *
 *   VIO                  0        0       Elapsed time    920:40:13.10          *
 *   Common               0      ---                                             *
 *                                                                               *
 *                                                                               *
 *   CPU Usage         37.12        $23.01  Standard Processing Unit Equivalent  *
 *                                  $23.01  Total Step execution charge          *
 *                                                                               *
 *    I/O count  DDname   Type Addr           I/O count  DDname   Type Addr      *
 *           92  SYSLIB   Disk 0402                 144  SYSLIB   Disk 04DC      *
 *            0  SYSLIB   Disk 0402                   0  SYSLIB   Disk 0402      *
 *            0  SYSLIB   Disk 04DC                   0  SYSUT1   VIO  ----      *
 *            0  SYSTERM       ----                 102  SYSPRINT Disk 038B      *
 *            4  SYSLIN   Disk 04DC                   0  SYSUDUMP      ----      *
 *           16  SYSIN    Disk 038B                                              *
 *********************************************************************************
 IEF373I STEP/ASM     /START 2004082.0947
 IEF374I STEP/ASM     /STOP  2004082.0947 CPU    0MIN 01.98SEC SRB    0MIN 00.05SEC VIRT  8192K SYS   292K EXT     412K SYS    9540K
 IEF236I ALLOC. FOR PJG#VFSH $EDIT
 IEF237I 0402 ALLOCATED TO STEPLIB
 IGD103I SMS ALLOCATED TO DDNAME ASMOUT
 IEF237I JES2 ALLOCATED TO SYSPRINT
 IEF237I JES2 ALLOCATED TO SYSUDUMP
 IEF142I PJG#VFSH $EDIT - STEP WAS EXECUTED - COND CODE 0000
 IEF285I   WYL.GG.SYS.LINKLIB                           KEPT
 IEF285I   VOL SER NOS= SYSB02.
 IGD105I SYS04082.T094738.RA000.PJG#VFSH.PRINT.H01    DELETED,   DDNAME=ASMOUT
 IEF285I   GG$PJG.PJG#VFSH.JOB05983.D0000105.?          SYSOUT
 IEF285I   GG$PJG.PJG#VFSH.JOB05983.D0000106.?          SYSOUT
 *********************************************************************************
 *   PJG#VFSH/$EDIT   /                    Return Code      Zero                 *
 *   Region used      388K (116K user + 272K system)                             *
 *   Extended region  9468K (4K user + 9464K system)                             *
 *                                                                               *
 *   Paging              In      Out                                             *
 *   Private <-> Aux      0        0       CPU time (TCB)   00:00:00.39          *
 *   Private <-> Exp      0        0       CPU time (SRB)   00:00:00.01          *
 *   VIO                  0        0       Elapsed time    920:40:07.74          *
 *   Common               0      ---                                             *
 *                                                                               *
 *                                                                               *
 *   CPU Usage          7.31         $4.53  Standard Processing Unit Equivalent  *
 *                                   $4.53  Total Step execution charge          *
 *                                                                               *
 *    I/O count  DDname   Type Addr           I/O count  DDname   Type Addr      *
 *            2  STEPLIB  Disk 0402                 103  ASMOUT   Disk 038B      *
 *            0  SYSPRINT      ----                   0  SYSUDUMP      ----      *
 *********************************************************************************
 IEF373I STEP/$EDIT   /START 2004082.0947
 IEF374I STEP/$EDIT   /STOP  2004082.0947 CPU    0MIN 00.39SEC SRB    0MIN 00.01SEC VIRT   116K SYS   272K EXT       4K SYS    9464K
 *********************************************************************************
 *                                                                               *
 *                      S t a n f o r d   U n i v e r s i t y                    *
 *                                                                               *
 *                              *** Job Summary ***                              *
 *                                                                               *
 *   System Id      SYSB                   Input time     09:38:36  Mar 22, 2004 *
 *                                                                               *
 *   System Release SP6.1.0                Start time     09:47:38  Mar 22, 2004 *
 *                                                                               *
 *   Job name       PJG#VFSH               Stop  time     00:00:00  Mar 22, 2004 *
 *                                                                               *
 *   Account        PJG$GG                 Elapsed time  920:40:14.68            *
 *                                                                               *
 *   User Name      Module: VFSH           CPU time       00:00:02.44            *
 *                                                                               *
 *   Job class      E                      SRB Time       00:00:00.06            *
 *                                                                               *
 *********************************************************************************
 IEF375I  JOB/PJG#VFSH/START 2004082.0947
 IEF376I  JOB/PJG#VFSH/STOP  2004082.0947 CPU    0MIN 02.44SEC SRB    0MIN 00.06SEC
1Data set successfully converted from EDIT to FB format
1Assembler Done VFSH No Statements Flagged
1         High Level Assembler Option Summary                   (PTF UQ57391)                                               Page    1
-                                                                                            HLASM R4.0  2004/03/22 09.47
0  No Overriding ASMAOPT Parameters
   Overriding Parameters-  SYSPARM(VFSH),TERM,LANG(EN),OBJ,LC(32500),XREF(SHORT),NODECK,NORLD,NODX,NOUS
   No Process Statements


   Options for this Assembly
0  NOADATA
     ALIGN
   NOASA
     BATCH
     CODEPAGE(047C)
   NOCOMPAT
   NODBCS
 3 NODECK
 3 NODXREF
     ESD
   NOEXIT
     FLAG(0,ALIGN,CONT,NOIMPLEN,NOPAGE0,PUSH,RECORD,NOSUBSTR,USING0)
   NOFOLD
   NOGOFF
   NOINFO
 3   LANGUAGE(EN)
   NOLIBMAC
 3   LINECOUNT(32500)
     LIST(121)
     MXREF(SOURCE)
 3   OBJECT
     OPTABLE(UNI,NOLIST)
   NOPCONTROL
   NOPESTOP
   NOPROFILE
   NORA2
   NORENT
 3 NORLD
     RXREF
     SIZE(MAX)
 3   SYSPARM(VFSH)
 3   TERM(WIDE)
   NOTEST
     THREAD
   NOTRANSLATE
 3 NOUSING
 3   XREF(SHORT)

   No Overriding DD Names

1VFSH     External Symbol Dictionary                                                                                        Page    2
-Symbol   Type   Id     Address  Length     LD ID  Flags Alias-of                            HLASM R4.0  2004/03/22 09.47
0VFSH      SD 00000001 00000000 000017F0             00
 VFSH00    LD          00000000           00000001
 FILESHOW  LD          00000016           00000001
 TYPEIT    ER 00000002
 SCAN      ER 00000003
 VWRITE    ER 00000004
 BTD       ER 00000005
 VMARK     ER 00000006
 BTX       ER 00000007
 GETCLW    ER 00000008
 UNPRS     ER 00000009
 SCINIT    ER 0000000A
 SETPUB    ER 0000000B
 SCTELL    ER 0000000C
 FMTDATE   ER 0000000D
 FSUB#COM  ER 0000000E
 VSEG      ER 0000000F
 KWFNOPT   ER 00000010
 GOTNKWR   ER 00000011
 FORPUB    ER 00000012
 QUIET     ER 00000013
 FORACT    ER 00000014

1VFSH     ORVYL'S FILE SYSTEM SHOW COMMANDS                                                                                 Page    3
0Loc    Object Code    Addr1 Addr2  Stmt Lv Lineno    Source Statement                    (Asmedit 3.3)  HLASM R4.0  2004/03/22 09.47
+___    ______ ____    _____ _____  ____ __ ______    ______ _________
0                                      2       2.     ********************************************************************
                                       3       3.     *                                                                  *
                                       4       4.     *       ORVYL/370  RELEASE III - CLASS I - STANFORD PROPRIETARY    *
                                       5       5.     *                                                                  *
                                       6       6.     ********************************************************************
-                                      8       8.              HIBAL ,
-                                    990      10.     * MODIFICATIONS
                                     991      11.     *
1VFSH     ORVYL'S FILE SYSTEM SHOW COMMANDS                                                                                 Page    4
0D-Loc  Object Code    Addr1 Addr2  Stmt Lv Lineno    Source Statement           (Hibal 5, Asmedit 3.3)  HLASM R4.0  2004/03/22 09.47
+_____  ______ ____    _____ _____  ____ __ ______    ______ _________
0000000                00000 017F0   993      13.     VFSH     CSECT
                                     997      14.              IDENT 00
                                    1000             +
                                    1001    01-IDENT +         ENTRY VFSH00
                                    1002             +
 000000 14E5C6E2C8F0F06B            1003    01-IDENT +VFSH00   DC    AL1(20),C'VFSH00,22MAR04,09:47'
                                    1004             +*
-                                   1007      16.              COPY  ORVDEFN
                                    1008             =         SYSDEFN  ,
                                    1009             =         GBLB  &PROTECT
                                    1010             =         GBLC  &MODULE
-
                                    1012      18.              REGS  ,,SR,TR,QR,FSUBR,BRR,BR,WAR,RAR,CLWR,,GPWR
1VFSH     (VFSH00) (09:47) (22MAR04) ORVYL'S FILE SYSTEM SHOW COMMANDS                                                      Page    5
0Loc    Object Code    Addr1 Addr2  Stmt Lv Lineno    Source Statement           (Hibal 5, Asmedit 3.3)  HLASM R4.0  2004/03/22 09.47
+___    ______ ____    _____ _____  ____ __ ______    ______ _________
0                                   1150      20.              MACRO ,
                                    1151      21.     &LABEL   LSCAN &GETADC,&SAME       SO WE CAN PUT SCKWS AT END
                                    1152      22.     &LABEL   L     R1,=A(&GETADC)
                                    1153      23.              SCAN  (1),&SAME
                                    1154      24.              MEND
                                    1155      25.
                                    1156      26.              MACRO
                                    1157      27.     &L       BTD   &LOC,&LEN,&WORD,&SW,&COMMAS=NO
                                    1158      28.              LCLC  &CM
                                    1159      29.              AIF   ('&COMMAS' NE 'YES').NOCM
                                    1160      30.     &CM      SETC  'C'
                                    1161      31.     .NOCM    ANOP
                                    1162      32.     &L       SYSLR 15,&WORD,OP=L
                                    1163      33.              SYSLR 0,&LEN,TYPE=&SW
                                    1164      34.              SYSLR 1,&LOC
                                    1165      35.              XCALL BTD&CM
                                    1166      36.              MEND
                                    1167      37.
                                    1168      38.              MACRO
                                    1169      39.     &L       BTX   &LOC,&LEN,&WORD
                                    1170      40.     &L       SYSLR 15,&WORD,OP=L
                                    1171      41.              SYSLR 0,&LEN
                                    1172      42.              SYSLR 1,&LOC
                                    1173      43.              XCALL BTX
                                    1174      44.              MEND
1VFSH     (VFSH00) (09:47) (22MAR04) ORVYL'S FILE SYSTEM SHOW COMMANDS                                                      Page    6
0Loc    Object Code    Addr1 Addr2  Stmt Lv Lineno    Source Statement           (Hibal 5, Asmedit 3.3)  HLASM R4.0  2004/03/22 09.47
+___    ______ ____    _____ _____  ____ __ ______    ______ _________
0                                   1177      47.              COPY  CLW
                                    1178             =*
                                    1179             =*                   COMMAND LANGUAGE WORK AREA
                                    1180             =*
                                    1181             =* ORGANIZATION:
                                    1182             =*
                                    1183             =*        COMMONLY USED CLP FLAGS, COMMAND BUFFERS AND OTHER CONTROL
                                    1184             =*        INFORMATION FOLLOW THE SESSION CONTROL PAGE INFORMATION.
                                    1185             =*        THE BALANCE OF THIS PAGE IS THE CLP SAVE AREA STACK.
                                    1186             =*
 000000                00000 00618  1187             =CLW      RECORD BEGIN
 000000                             1195  1          =CLWSTART   DS    0F
 000000                             1196  1          =CLWSCP     DS    A                       POINTER TO THE SCP
 000004                             1197  1          =           DS    5A                      AVAILABLE
 000018                             1198  1          =CLWUWST    DS    A                       STARTING LOC OF USER WORK AREA
 00001C                             1199  1          =CLWUPST    DS    A                       STARTING LOC OF USER PROGRAM
 000020                             1200  1          =CLWUPML    DS    A                       MAXIMUM LEN OF USER PROGRAM
 000024                             1201  1          =CLWUPRSV   DS    H                       USER PROGRAM RESERVE COUNT
 000026                             1202  1          =CLWUPURV   DS    H                       USER PROGRAM UN-RESERVE COUNT
 000028                             1203  1          =CLWIBUFN   DS    H                       LENGTH OF INPUT LINE
 00002A 606E40                      1204  1          =           DC    C'-> '
 00002D                             1205  1          =CLWIBUF    DS    CL235                   INPUT BUFFER
                                    1206  1          =
 000118                             1207  1          =CLWOBUF    DS    2H                      WRITE/PROMPT COUNTS
 00011C                             1208  1          =           DS    CL235                   OUTPUT BUFFER
                                    1209  1          =CLWOBUFL   EQU   *-CLWOBUF-4
                                    1210  1          =*                                      SESSION BREAK FLAGS:
 000207 00                          1211  1          =CLWFL      FLAG  ,                       ZEROED AT SESSION BREAK START
 CLWFL.CLWFTYPD    80 ONES          1215  1          =           FLAG  CLWFTYPD                CURRENT COMMAND WAS TYPED
 CLWFL.CLWFCMD     40 ONES          1220  1          =           FLAG  CLWFCMD                 PROCESSING COMMAND SVC
 CLWFL.CLWFWYL     20 ONES          1225  1          =           FLAG  CLWFWYL                 COMMAND HAS BEEN TO WYLBUR
                                    1230  1          =
 000208 00                          1231  1          =CLWFLG     FLAG  ,                       FLAGS
 CLWFLG.CLWFCERR   80 ONES          1235  1          =           FLAG  CLWFCERR                COMMAND ERROR: EXE BREAK
 CLWFLG.CLWFGPW    40 ONES          1240  1          =           FLAG  CLWFGPW                 GET-PUT WORK AREA ALLOCATED
 CLWFLG.CLWFTTRP   20 ONES          1245  1          =           FLAG  CLWFTTRP                TEMPORARY TRAP SET
 CLWFLG.CLWFTRAP   10 ONES          1250  1          =           FLAG  CLWFTRAP                TRAP IN PROGRESS
 CLWFLG.CLWFOSC    08 ONES          1255  1          =           FLAG  CLWFOSC                 READ/WRITE REAL (OS) CORE
 CLWFLG.CLWFQMSG   04 ONES          1260  1          =           FLAG  CLWFQMSG                "QUEUED" MESSAGE SENT
 CLWFLG.CLWFM31    02 ONES          1265  1          =           FLAG  CLWFM31                 PROGRAM IN 31 BIT MODE
                                    1270  1          =
 000209 00                          1271  1          =CLWPFL     FLAG  ,                       PROGRAM FLAGS
 CLWPFL.CLWPFSUP   80 ONES          1275  1          =           FLAG  CLWPFSUP                LINK AREA SET UP
 CLWPFL.CLWPFPL    40 ONES          1280  1          =           FLAG  CLWPFPL                 PROGRAM LOADING
 CLWPFL.CLWPFPIC   20 ONES          1285  1          =           FLAG  CLWPFPIC                PROGRAM ENTERED
 CLWPFL.CLWPFRUN   10 ONES          1290  1          =           FLAG  CLWPFRUN                EXECUTE PROGRAM
 CLWPFL.CLWPFPAU   08 ONES          1295  1          =           FLAG  CLWPFPAU                PAUSE BEFORE EXECUTION
 CLWPFL.CLWPFPRV   04 ONES          1300  1          =           FLAG  CLWPFPRV                PRIVATE PROGRAM
 CLWPFL.CLWPFPRT   02 ONES          1305  1          =           FLAG  CLWPFPRT                PROGRAM PROTECTED
 CLWPFL.CLWPFSHR   01 ONES          1310  1          =           FLAG  CLWPFSHR                SHARED PROGRAM LOADED
                                    1315  1          =
 00020A 00                          1316  1          =CLWMFL     FLAG  ,                       MISCELLANEOUS FLAGS
 CLWMFL.CLWMEVCN   80 ONES          1320  1          =           FLAG  CLWMEVCN                CONTINUE AFTER EVENTS
 CLWMFL.CLWMMNCN   40 ONES          1325  1          =           FLAG  CLWMMNCN                CONTINUE AFTER MONITORS
 CLWMFL.CLWMBSUC   20 ONES          1330  1          =           FLAG  CLWMBSUC                SIMULATED BRANCH SUCCESSFUL
 CLWMFL.CLWMNCST   10 ONES          1335  1          =           FLAG  CLWMNCST                SUPPRESS AUTOMATIC COST PRINT
1VFSH     (VFSH00) (09:47) (22MAR04) ORVYL'S FILE SYSTEM SHOW COMMANDS                                                      Page    7
0Loc    Object Code    Addr1 Addr2  Stmt Lv Lineno    Source Statement           (Hibal 5, Asmedit 3.3)  HLASM R4.0  2004/03/22 09.47
+___    ______ ____    _____ _____  ____ __ ______    ______ _________
0CLWMFL.CLWMCLRP   08 ONES          1340  1          =           FLAG  CLWMCLRP                UNREC. CLR FOUND
 CLWMFL.CLWMNOL    04 ONES          1345  1          =           FLAG  CLWMNOL                 DON'T PRINT ON CONT. EVENTS
 CLWMFL.CLWMDSUP   02 ONES          1350  1          =           FLAG  CLWMDSUP                DUMP AREA SET UP
 CLWMFL.CLWMDUMP   01 ONES          1355  1          =           FLAG  CLWMDUMP                DUMP COMMAND BEING PROCESSED
                                    1360  1          =
 00020B 00                          1361  1          =CLWMONF    FLAG  ,                       PROGLOOK/MONITOR FLAGS
 CLWMONF.CLWFMWP   80 ONES          1365  1          =           FLAG  CLWFMWP                 MONITOR WORK PAGE EXISTS
 CLWMONF.CLWFPRGL  40 ONES          1370  1          =           FLAG  CLWFPRGL                PROGLOOK IN PROGRESS
 CLWMONF.CLWDOTIM  20 ONES          1375  1          =           FLAG  CLWDOTIM                SET TIMER AT RUN
 CLWMONF.CLWCPTIM  10 ONES          1380  1          =           FLAG  CLWCPTIM                SET CPU TIME TIMER
                                    1385  1          =
 00020C 00                          1386  1          =CLWSFL     FLAG  ,                       SESSION FLAGS
 CLWSFL.CLWSSAM    80 ONES          1390  1          =           FLAG  CLWSSAM                 STAND ALONE MODE
 CLWSFL.CLWSSP     40 ONES          1395  1          =           FLAG  CLWSSP                  SPECIAL PERSON
                                    1400  1          =
 00020D                             1401  1          =           DS    X
                                    1402  1          =
 00020E                             1403  1          =CLWEXSVC   DS    H                       EXIT SVC
 000210                             1404  1          =CLWPSVC    DS    H                       PAUSE/TRAP SVC
 000212                             1405  1          =CLWCSVC    DS    H                       COMMAND SVC
                                    1406  1          =
 000214                             1407  1          =CLWDSP     DS    X                       DISPATCHING PRIORITY
 000215                             1408  1          =CLWPFS     DS    X                       PARAMTER FLAG SAVE
 000218                             1409  1          =CLWPS      DS    3F                      PARAMETER SAVE
                                    1410  1          =
 000224                             1411  1          =CLWMLMOD   DS    F                       MILTEN MODE WORD
 000228                             1412  1          =CLWWLMOD   DS    F                       WYLBUR MODE WORD
                                    1413  1          =
 00022C                             1414  1          =CLWTIMER   DS    A                       TIMER VALUE TO BE SET AT RUN
 000230                             1415  1          =CLWTIMAX   DS    H                       MAX TIMER INTERVAL (IN .1 SEC)
 000232                             1416  1          =CLWTIVAL   DS    H                       CURRENT TIMER INTERVAL
 000234                             1417  1          =CLWTMAX    DS    H                       CPU TIME LIMIT
 000236                             1418  1          =CLWTIME    DS    H                       CURRENT CPU TIME
 000238                             1419  1          =CLWPELT    DS    A                       ELAPSED TIME
 00023C                             1420  1          =CLWPCVM    DS    A                       VM CHARGES
 000240                             1421  1          =CLWPIOS    DS    A                       I/O COUNTS
 000244                             1422  1          =CLWPCUSE   DS    A                       CPU TIME
                                    1423  1          =
 000248                             1424  1          =CLWPROGN   DS    CL8                     PROGRAM NAME
 000250                             1425  1          =CLWLNKP    DS    A                       LINK PAGE POINTER
 000254                             1426  1          =CLWGPWP    DS    A                       GET-PUT WORK PAGE POINTER
 000258                             1427  1          =CLWMONP    DS    A                       MONITOR/PROGLOOK PAGE
 00025C                             1428  1          =CLWSPB     DS    A                       SHARED PROGRAM BLOCK
 000260                             1429  1          =CLWDUMPB   DS    A                       POINTER TO DUMP BUFFER
                                    1430  1          =
 000264                             1431  1          =CLWPER     DS    A                       PER INFO
 000268                             1432  1          =CLWMON     DS    A                       MONITOR INFO
                                    1433  1          =
 00026C                             1434  1          =CLWEVCNT   DS    A                       NUMBER OF EVENTS TO EXECUTE
 000270                             1435  1          =CLWTRAPA   DS    A                       ADDR OF INST BEING TRAPPED
 000274                             1436  1          =CLWTRAPB   DS    A                       ADDR OF INST AFTER
 000278                             1437  1          =CLWTRAPI   DS    3H                      INSTRUCTION BEING TRAPPED
 00027E                             1438  1          =CLWTRAPJ   DS    H                       1ST HALFWORD OF INST AFTER
                                    1439  1          =
                                    1440  1          =CLWNTRAP   EQU   8,,C'N'                 NO. OF TRAPS
 000280                             1441  1          =CLWTRAPS   DS    (CLWNTRAP)XL5           TRAP TABLE
1VFSH     (VFSH00) (09:47) (22MAR04) ORVYL'S FILE SYSTEM SHOW COMMANDS                                                      Page    8
0Loc    Object Code    Addr1 Addr2  Stmt Lv Lineno    Source Statement           (Hibal 5, Asmedit 3.3)  HLASM R4.0  2004/03/22 09.47
+___    ______ ____    _____ _____  ____ __ ______    ______ _________
00002A8                             1442  1          =CLWTTRAP   DS    XL5                     TEMPORARY TRAP
                                    1443  1          =*
                                    1444  1          =* KEYWORD FILE RECORD AREA
                                    1445  1          =*
 0002AD                             1446  1          =CLWKFL     DS    X                       KEYWORD FILE FLAGS
                                    1447  1          =
                                    1448  1          =CLWKFAC    EQU   X'80'                   PROGRAM AUTO CALL
                                    1449  1          =CLWKFMP    EQU   X'40'                   PROGRAM MANDATORY
                                    1450  1          =
 0002AE                             1451  1          =CLWKACC    DS    CL5                     ACCOUNT FOR PROGRAM SEARCH
 0002B3                             1452  1          =CLWKPROG   DS    CL8                     DEFAULT/MANDATORY PROGRAM
 0002BB                             1453  1          =CLWKMISC   DS    CL8                     MISCELLANEOUS FIELDS
                                    1454  1          =*
                                    1455  1          =*  SCANNER UTILITY AREA
                                    1456  1          =*
                                    1457  1          =           SCANCB PFX=CLWKW
 0002C4                             1458  1 01-SCANC +CLWKWCB    DS    0F
 0002C4                             1459  1 01-SCANC +CLWKWVAL   DS    A                       VALUE RETURNED
 0002C8                             1460  1 01-SCANC +CLWKWKW    DS    CL8                     CURRENT KEY WORD
 0002D0                             1461  1 01-SCANC +CLWKWLEN   DS    A                       LENGTH LEFT TO SCAN
 0002D4                             1462  1 01-SCANC +CLWKWLOC   DS    A                       NEXT THING TO SCAN
 0002D8                             1463  1 01-SCANC +CLWKWRA    DS    A                       RETURN ADDRESS
 0002DC                             1464  1 01-SCANC +CLWKWPRT   DS    A                       ROUTING TABLE ADDRESS
 0002E0                             1465  1 01-SCANC +CLWKWCLT   DS    A                       SCAN TYPE
                                    1466  1          +*                                      0 = NORMAL SCAN
                                    1467  1          +*                                      4 = EXPRESSION ISOLATION
                                    1468  1          +*                                      8 = EXPRESSION SCAN
                                    1469  1 01-SCANC +CLWKWCBL   EQU *-CLWKWCB
                                    1470  1          =
 0002E8                             1471  1          =CLWTEMP    DS    4D                      WORK AREA
                                    1472  1          =
 000308                             1473  1          =CLWDELTA   DS    F                       Wylbr line delta
 00030C                             1474  1          =           DS    F                       Spare
 000310                             1475  1          =CLWEVHST   DS    8D                      EVENT HISTORY
 000350                             1476  1          =CLWEVENT   DS    D                       LAST EVENT INFO
 000358                             1477  1          =CLWQRET    DS    3F                      QUICK RETURN FOR VSUB
                                    1478  1          =*                                      SAVE AREA FOR BRR,BR,WAR
                                    1479  1          =*
 000368                             1480  1          =CLWSBPSW   DS    D                       SESSION BREAK PSW
 000370                             1481  1          =CLWSBGPR   DS    16F                     SESSION BREAK GPRS
 0003B0                             1482  1          =CLWACCT    DS    C'GG.UUU'               USER ACCOUNT
                                    1483  1          =CLWUSER    EQU   CLWACCT+3,3,C'C'        USER
                                    1484  1          =CLWGROUP   EQU   CLWACCT,2,C'C'          GROUP
 0003B8                             1485  1          =CLWIDT     DS    A                       ADDRESS OF THE IDTS
 0003BC                             1486  1          =CLWNIDT    DS    H                       NUMBER OF IDTS
 0003C0                             1487  1          =           DS    0F                      START OF SAVE AREA
 0003C0                             1488  1          =CLWSVA     DS    XL600                   SAVE STACK
                                    1489  1          =CLWSVAEN   EQU   *-4,4,C'X'              LAST WORD OF THE STACK
 000618                00618 00618  1490             =         END   ,
1VFSH     (VFSH00) (09:47) (22MAR04) ORVYL'S FILE SYSTEM SHOW COMMANDS                                                      Page    9
0Loc    Object Code    Addr1 Addr2  Stmt Lv Lineno    Source Statement           (Hibal 5, Asmedit 3.3)  HLASM R4.0  2004/03/22 09.47
+___    ______ ____    _____ _____  ____ __ ______    ______ _________
0                                   1500      49.              COPY  WYLMDWD
                                    1501             =*
                                    1502             =*   EQUS FOR VALUES IN WYLBUR MODE WORD - LOW ORDER BYTE
                                    1503             =*
                                    1504             =WPREST   EQU   X'01',,C'N'              RETURN DATA IN PREST FORMAT
                                    1505             =WNFORM   EQU   X'02',,C'N'              INFORM OF WDS CHANGES (RE)
                                    1506             =WPRHBT   EQU   X'04',,C'N'              PROHIBIT WDS CHANGES (RE)
                                    1507             =WNNUMB   EQU   X'08',,C'N'              NUMBER COMMAND INVALID
                                    1508             =WNALGN   EQU   X'10',,C'N'              ALIGN,JUSTIFY,CENTER INVALID
                                    1509             =WSSBRK   EQU   X'20',,C'N'              PROHIBIT SESS BREAK WDS CHGS
1VFSH     (VFSH00) (09:47) (22MAR04) ORVYL'S FILE SYSTEM SHOW COMMANDS                                                      Page   10
0Loc    Object Code    Addr1 Addr2  Stmt Lv Lineno    Source Statement           (Hibal 5, Asmedit 3.3)  HLASM R4.0  2004/03/22 09.47
+___    ______ ____    _____ _____  ____ __ ______    ______ _________
0                                   1511      51.              COPY  GPW
                                    1512             =*
                                    1513             =* GET PUT WORK PAGE. ALLOCATED ON ENTRY TO VGP. DE-ALLOCATED ON EXIT
                                    1514             =*
 000000                00000 03000  1515             =GPWDSECT DSECT
 000000                             1516             =GPWSTART DS    0D
 000000 00                          1517             =GPWGFL   FLAG  ,                       GENERAL FLAGS
 GPWGFL.GPWFFREE   80 ONES          1521             =         FLAG  GPWFFREE                FREE CORE
 GPWGFL.GPWFALTF   40 ONES          1526             =         FLAG  GPWFALTF                PROCESS ALTERNATE FILE
 GPWGFL.GPWFALTA   20 ONES          1531             =         FLAG  GPWFALTA                PROCESS ALTERNATE ACCOUNT
 GPWGFL.GPWFARET   10 ONES          1536             =         FLAG  GPWFARET                TAKE ALTERNATE RETURN
 GPWGFL.GPWFPCAT   08 ONES          1541             =         FLAG  GPWFPCAT                PROCESSING PROGRAM CATALOG
                                    1546             =
 000001 00                          1547             =GPWPRFL  FLAG  ,                       PROCESSING FLAGS
 GPWPRFL.GPWFTRN   80 ONES          1551             =         FLAG  GPWFTRN                 SOME LINES TRUNCATED
 GPWPRFL.GPWFNOE   40 ONES          1556             =         FLAG  GPWFNOE                 NO ERROR IF FILE NOT FOUND (ATT)
 GPWPRFL.GPWFANW   20 ONES          1561             =         FLAG  GPWFANW                 ATTACH NEW IF FILE NOT FOUND
 GPWPRFL.GPWFNSF   10 ONES          1566             =         FLAG  GPWFNSF                 DO NOT SENSE USER INFO ON ATTACH
 GPWPRFL.GPWFNSKP  08 ONES          1571             =         FLAG  GPWFNSKP                READ WITH NO MODE = SKIP
 GPWPRFL.GPWFQIET  04 ONES          1576             =         FLAG  GPWFQIET                QUIET OPTION SET
 GPWPRFL.GPWOSFOK  02 ONES          1581             =         FLAG  GPWOSFOK                OS/FILES IMPLEMENTED FOR CMD
                                    1586             =
 000002 00                          1587             =GPWPRFL2 FLAG  ,                       MORE PROCESSING FLAGS
 GPWPRFL2.GPWSRCHC 80 ONES          1591             =         FLAG  GPWSRCHC                CONTINUE DIRECTORY SEARCH
 GPWPRFL2.GPWFFRST 40 ONES          1596             =         FLAG  GPWFFRST                FIRST PASS (FBAL)
 GPWPRFL2.GPWFRST  20 ONES          1601             =         FLAG  GPWFRST                 RESET BLOCKS (FBAL)
 GPWPRFL2.GPWFNIXR 10 ONES          1606             =         FLAG  GPWFNIXR                NON-IXR'ED FILE ATTACHED
 GPWPRFL2.GPWFHYBR 08 ONES          1611             =         FLAG  GPWFHYBR                HYBRID NON-IXR'ED FILE ATTACHED
                                    1616             =
 000003 00                          1617             =GPWKWFL  FLAG  ,                       KEYWORD SCAN FLAGS
 GPWKWFL.GPWFERS   80 ONES          1621             =         FLAG  (GPWFERS,X'80')         ERASE
 GPWKWFL.GPWFCLR   80 ONES          1630             =         FLAG  (GPWFCLR,X'80')         CLEAR TEXT (ON GET)
 GPWKWFL.GPWFAPP   40 ONES          1639             =         FLAG  (GPWFAPP,X'40')         APPEND
 GPWKWFL.GPWFMRG   40 ONES          1648             =         FLAG  (GPWFMRG,X'40')         MERGE
 GPWKWFL.GPWFCON   20 ONES          1657             =         FLAG  (GPWFCON,X'20')         CONTENTS
 GPWKWFL.GPWFCREF  20 ONES          1666             =         FLAG  (GPWFCREF,X'20')        CREATE BEING PROCESSED
 GPWKWFL.GPWFNCOM  10 ONES          1675             =         FLAG  (GPWFNCOM,X'10')        NO COMMENT
 GPWKWFL.GPWFELIB  10 ONES          1684             =         FLAG  (GPWFELIB,X'10')        LIBRARY (ON ERASE)
 GPWKWFL.GPWFPUB   08 ONES          1693             =         FLAG  (GPWFPUB,X'08')         PUBLIC SPECIFIED
 GPWKWFL.GPWFACC   04 ONES          1702             =         FLAG  (GPWFACC,X'04')         ACCOUNT SPECIFIED
 GPWKWFL.GPWFAACC  02 ONES          1711             =         FLAG  (GPWFAACC,X'02')        ALTERNATE ACCOUNT SPECIFIED
 GPWKWFL.GPWFRNUM  01 ONES          1720             =         FLAG  (GPWFRNUM,X'01')        RENUMBER (FOR GET)
 GPWKWFL.GPWFPMBR  01 ONES          1729             =         FLAG  (GPWFPMBR,X'01')        PUT LIBRARY MEMBER
                                    1738             =
 000004 00                          1739             =GPWSFFL  FLAG  ,                       SHOW FILES FLAGS
 GPWSFFL.GPWSFER   80 ONES          1743             =         FLAG  GPWSFER                 ERASE  (SHOW FILES)
 GPWSFFL.GPWSFDT   40 ONES          1748             =         FLAG  GPWSFDT                 DATED    "    "
 GPWSFFL.GPWSFLK   20 ONES          1753             =         FLAG  GPWSFLK                 LIKE     "    "
 GPWSFFL.GPWSFUNL  10 ONES          1758             =         FLAG  GPWSFUNL                UNLIKE   "    "
 GPWSFFL.GPWSFFRO  08 ONES          1763             =         FLAG  GPWSFFRO                FROM     "    "
 GPWSFFL.GPWSFATT  04 ONES          1768             =         FLAG  GPWSFATT                ATTACH   "    "
 GPWSFFL.GPWSFBLO  02 ONES          1773             =         FLAG  GPWSFBLO                BLOCKS   "    "
 GPWSFFL.GPWSFFMT  01 ONES          1778             =         FLAG  GPWSFFMT                FORMAT
1VFSH     (VFSH00) (09:47) (22MAR04) ORVYL'S FILE SYSTEM SHOW COMMANDS                                                      Page   11
0D-Loc  Object Code    Addr1 Addr2  Stmt Lv Lineno    Source Statement           (Hibal 5, Asmedit 3.3)  HLASM R4.0  2004/03/22 09.47
+_____  ______ ____    _____ _____  ____ __ ______    ______ _________
0000005                             1784             =GPWPERM  DS    X                       PERMIT FLAGS
                                    1785             =GPWPRMRD EQU   GPWPERM,X'01',1         READ ONLY
                                    1786             =GPWPRMAP EQU   GPWPERM,X'02',1         APPEND ONLY
                                    1787             =GPWPRMRP EQU   GPWPERM,X'03',1         READ AND APPEND
                                    1788             =GPWPRMWR EQU   GPWPERM,X'07',1         WRITE
                                    1789             =GPWPRMEX EQU   GPWPERM,X'08',1         EXTEND
                                    1790             =
 000006 00                          1791             =GPWGPFL  FLAG  ,                       FLAGS FOR GET/PUT
 GPWGPFL.GPWGPFIN  80 ONES          1795             =         FLAG  GPWGPFIN                INTEGER
 GPWGPFL.GPWGPFV   40 ONES          1800             =         FLAG  GPWGPFV                 VARIABLE
 GPWGPFL.GPWGPFLR  20 ONES          1805             =         FLAG  GPWGPFLR                LRECL
 GPWGPFL.GPWGPFE   10 ONES          1810             =         FLAG  GPWGPFE                 EDIT
 GPWGPFL.GPWGPFSK  08 ONES          1815             =         FLAG  GPWGPFSK                SKIP COUNT
 GPWGPFL.GPWGPFBK  04 ONES          1820             =         FLAG  GPWGPFBK                BLOCKING FACTOR
 GPWGPFL.GPWGPFHX  02 ONES          1825             =         FLAG  GPWGPFHX                HEX
 GPWGPFL.GPWGPFN   01 ONES          1830             =         FLAG  GPWGPFN                 NUMBERED
                                    1835             =
 000007                             1836             =ACCT     DS    0C'UUU$GG'
 000007                             1837             =GPWACCT  DS    C'UUU$GG'               GROUP NAME
 00000D                             1838             =GPWAACCT DS    C'UUU$GG'               ALTERNATE GROUP NAME
 000013                             1839             =UUU      DS    0C'UUU'                 STANDARD USER PATTERN
 000013                             1840             =GG       DS    0C'GG'                  STANDARD GROUP PATTERN
                                    1841             =
 000013                             1842             =GPWSUSER DS    C'UUU'                   'SET' USER
 000016                             1843             =GPWSGRP  DS    C'GG'                    'SET' GROUP
                                    1844             =GPWSACCT EQU   GPWSUSER,*-GPWSUSER
                                    1845             =
 000018                             1846             =         DS    0F                      ALIGN WYLBUR INFO
 000018                             1847             =GPWOPT   DS    AL2(0)                  * READ TEXT OPTION
 00001A 0000                        1848             =GPWBLK   DC    AL2(0)                  W READ BLOCKING FACTOR
                                    1849             =GPWWBL   EQU   GPWBLK                  Y WRITE BUFFER LEN
 00001C                             1850             =GPWFWDS  DS    A(0)                    L FIRST LINE OF WDS
 000020                             1851             =GPWLWDS  DS    A(0)                    B LAST LINE OF WDS
 000024                             1852             =GPWFCOL  DS    AL2(0)                  U FIRST COLUMN (RANGE)
 000026                             1853             =GPWLCOL  DS    AL2(0)                  R LAST COLUMN (RANGE)
 000028                             1854             =GPWSLEN  DS    AL2(0)                  * STRING LEN (RANGE)
 00002A                             1855             =GPWSTR   DS    0CL44                   * STRING (RANGE)
                                    1856             =GPWMSGL  EQU   GPWFWDS,4,C'C'          LENGTH OF SAVED MESSAGE
                                    1857             =GPWMSGA  EQU   GPWLWDS,4               START OF SAVED MESSAGE
 00002A 0000
 00002C 00000000                    1858             =GPWSKIP  DC    A(0)                    SKIPING COUNT
 000030 00000000                    1859             =GPWLINCT DC    A(0)                    LINE COUNT
                                    1860             =
 000034 0000                        1861             =GPWLREC  DC    AL2(0)                  LRECL
 000036 0000                        1862             =GPWRBL   DC    AL2(0)                  READ BUFFER LEN
                                    1863             =GPWWBLK  EQU   GPWRBL                  WRITE BLOCKING FACTOR
1VFSH     (VFSH00) (09:47) (22MAR04) ORVYL'S FILE SYSTEM SHOW COMMANDS                                                      Page   12
0D-Loc  Object Code    Addr1 Addr2  Stmt Lv Lineno    Source Statement           (Hibal 5, Asmedit 3.3)  HLASM R4.0  2004/03/22 09.47
+_____  ______ ____    _____ _____  ____ __ ______    ______ _________
0000038                             1865             =GPWBUFA  DS    A                       ADDRESS OF GENERAL BUFFER
 00003C                             1866             =GPWDATAD DS    A                       START OF DATA IN BLOCK
                                    1867             =MONBUFA  EQU   GPWBUFA,4,C'A'          ALTERNATE NAME FOR VPS
 000040                             1868             =GPWDIRAP DS    A                       POINTER TO FIRST DIRECTORY BLOCK
 000044                             1869             =GPWDIRAL DS    A                       LENGTH OF DIRECTORY AREA
 000048                             1870             =GPWDIRAE DS    A                       ADDR OF END OF LAST VALID DIRB
 00004C                             1871             =GPWARETA DS    A                       ALTERNATE RETURN ADDRESS
 000050                             1872             =GPWDIRLS DS    A                       LAST DIRECTORY ENTRY LOC
-000054                             1874             =PFX      DS    0C'ORV.GG.UUU.'        STANDARD FILENAME PREFIX
 000054                             1875             =GPWFFN   DS    C'ORV.'                 FULL FILE NAME
 000058                             1876             =GPWGRP   DS    C'GG'                    GROUP ON LAST FILE
 00005A                             1877             =GPWGDOT  DS    C'.'
 00005B                             1878             =GPWUSER  DS    C'UUU'                   USER FOR LAST FILE
 00005E                             1879             =GPWUDOT  DS    C'.'
 00005F                             1880             =GPWFN    DS    CL44                    FILE NAME (AS TYPED)
 00008B                             1881             =         DS    C                       SPACE FOR BLANK FOLLOWING NAME
1VFSH     (VFSH00) (09:47) (22MAR04) ORVYL'S FILE SYSTEM SHOW COMMANDS                                                      Page   13
0D-Loc  Object Code    Addr1 Addr2  Stmt Lv Lineno    Source Statement           (Hibal 5, Asmedit 3.3)  HLASM R4.0  2004/03/22 09.47
+_____  ______ ____    _____ _____  ____ __ ______    ______ _________
0
                                    1884             =* GPW FILE CONTROL BLOCK
                                    1885             =*
 00008C                             1886             =GPWFILE  DS    0F                      FILE CONTROL BLOCK
                                    1887             =*
                                    1888             =*                            NOTE:  GPWPFFL AND GPWFID MUST
                                    1889             =*                                   REMAIN PAIRED FOR VPM
                                    1890             =*
 00008C 00                          1891             =GPWPFFL  FLAG  ,                       PRIMARY FILE FLAGS
 GPWPFFL.GPWFATT   80 ONES          1895             =         FLAG  GPWFATT                 FILE IS ATTACHED
 GPWPFFL.GPWFSHR   40 ONES          1900             =         FLAG  GPWFSHR                 ATTACH FILE SHARE
 GPWPFFL.GPWFNEW   20 ONES          1905             =         FLAG  GPWFNEW                 FILE IS NEW
 GPWPFFL.GPWFFMT   10 ONES          1910             =         FLAG  GPWFFMT                 USER INFO IS FORMAT
 GPWPFFL.GPWFVOSF  08 ONES          1915             =         FLAG  GPWFVOSF                FILE IS AN OS/FILE
 GPWPFFL.GPWOSFED  04 ONES          1920             =         FLAG  GPWOSFED                OS/FILE IS EDIT FORMAT
 GPWPFFL.GPWFFFN   02 ONES          1925             =         FLAG  GPWFFFN                 FULL FILENAME SPECIFIED
                                    1930             =
 00008D                             1931             =GPWFID   DS    X                       FILE ID NUMBER
 00008E                             1932             =GPWFNL   DS    X                       FILE NAME LENGTH
                                    1933             =*
                                    1934             =*        LIBRARY DATA AND FLAGS
                                    1935             =*
 00008F                             1936             =GPWLMNL  DS    AL1                     LIBRARY MEMBER NAME LENGTH
 000090                             1937             =GPWLMN   DS    CL8                     LIBRARY MEMBER NAME
 000098                             1938             =GPWLMN2  DS    CL8                     LIBRARY MEMBER NAME2 (ALIAS)
 0000A0                             1939             =GPWLMF1  DS    X                       LIB MEMBER
 0000A1                             1940             =GPWLMF2  DS    X                       DIRECTORY FLAGS
                                    1941             =GPWLMFLS EQU   GPWLMF1,*-GPWLMF1
 0000A4                             1942             =GPWLMFBN DS    A                       FIRST BLOCK # OF LIB MEMBER
 0000A8                             1943             =GPWLMBCT DS    A                       NUM OF BLOCKS IN LIB MEMBER
                                    1944             =GPWLMSPC EQU   GPWLMN,*-GPWLMN,C'X'    SPECIFIES LIB MBR.
                                    1945             =GPWLMFLD EQU   GPWLMF1,*-GPWLMF1       DESCRIPTORS OF LIB MBR.
 0000AC                             1946             =GPWLMLBN DS    A                       LAST BLOCK NUMBER OF LIB MEMBER
 0000B0                             1947             =GPWNXTAD DS    A                       ADDRESS OF NEXT ENTRY IN LIB DIR
                                    1948             =
 0000B4 00                          1949             =GPWLFLAG FLAG  ,                       LIBRARY FLAGS
 GPWLFLAG.GPWLREP  80 ONES          1953             =     FLAG  GPWLREP                     REPLACE PDS MEMBER
 GPWLFLAG.GPWLGOTD 40 ONES          1958             =     FLAG  GPWLGOTD                    GOT DIRECTORY BLK, SKIP READ
 GPWLFLAG.GPWLNEWD 20 ONES          1963             =     FLAG  GPWLNEWD                    NEW DIRECTORY, CREATE DIRE
 GPWLFLAG.GPWALIAS 10 ONES          1968             =     FLAG  GPWALIAS                    ALIAS USED FOR FSCALL, GPWLMN
 GPWLFLAG.GPWLNXTM 08 ONES          1973             =     FLAG  GPWLNXTM                    SCAN NEXT MEMBER IN DIR
 GPWLFLAG.GPWLLDMD 04 ONES          1978             =     FLAG  GPWLLDMD                    OS/LOAD MODULE PDS
 GPWLFLAG.GPWLLIST 02 ONES          1983             =     FLAG  GPWLLIST                    LIST OF MEMBERS IN INCLUDE, ETC
 GPWLFLAG.GPWLMORE 01 ONES          1988             =     FLAG  GPWLMORE                    UNUSED, MORE LIB FLAGS TO COME?
                                    1993             =*
                                    1994             =*  FILE INFO WORD
                                    1995             =*
 0000B8                             1996             =GPWUINFO DS    0F                      USER INFO FIELD
 0000B8                             1997             =GPWUIFMT DS    AL1                     FILE FORMAT
                                    1998             =GPWUILIB EQU   GPWUIFMT,X'80',1        LIBRARY
                                    1999             =GPWUILDF EQU   GPWUIFMT,X'40',1        LOADFILE
                                    2000             =GPWUIDA  EQU   GPWUIFMT,X'20',1        KEYED DIRECT ACCESS (URAM)
                                    2001             =GPWUIUND EQU   GPWUIFMT,X'10',1        UNDEFINED (URAM)
                                    2002             =GPWUIVBS EQU   GPWUIFMT,X'08',1        VAR. BLOCKED SPANNED  (URAM)
                                    2003             =GPWUIFLR EQU   GPWUIFMT,X'04',1        LRECL=
                                    2004             =GPWUIFN  EQU   GPWUIFMT,X'01',1        NUMBERED (LRECL ASSUMED)
1VFSH     (VFSH00) (09:47) (22MAR04) ORVYL'S FILE SYSTEM SHOW COMMANDS                                                      Page   14
0D-Loc  Object Code    Addr1 Addr2  Stmt Lv Lineno    Source Statement           (Hibal 5, Asmedit 3.3)  HLASM R4.0  2004/03/22 09.47
+_____  ______ ____    _____ _____  ____ __ ______    ______ _________
0                                   2005             =GPWUIFI  EQU   GPWUIFMT,X'02',1        INTEGER (LRECL ASSUMED)
                                    2006             =GPWUIFE  EQU   GPWUIFMT,X'01',1        EDIT
                                    2007             =GPWUIFV  EQU   GPWUIFMT,X'02',1        VARIABLE
                                    2008             =GPWUIMSK EQU   GPWUIFMT,X'7F',1        FORMAT MASK
 0000B9                             2009             =         DS    AL1                     RESERVED
 0000BA                             2010             =GPWUILRC DS    AL2                     FILE LRECL
                                    2011             =
                                    2012             =GPWMAXBS EQU   X'02000'                MAXIMUM BLOCKSIZE, 8K
                                    2013             =
 0000BC                             2014             =GPWBLKSZ DS    AL2                     File Block Size
 0000C0                             2015             =GPWBN    DS    A                       NUMBER OF NEXT BLOCK
00000C4                             2017             =GPWFILN  DS    CL44
                                    2018             =GPWFGRP  EQU   GPWFILN+4,2,C'C'        GROUP
                                    2019             =GPWFUSR  EQU   GPWFILN+7,3,C'C'        USER
                                    2020             =GPWFNAM  EQU   GPWFILN+11,33,C'C'
 0000F0                000F0 000C4  2021             =         ORG   GPWFILN                 OVERLAP OSFPB
1VFSH     (VFSH00) (09:47) (22MAR04) ORVYL'S FILE SYSTEM SHOW COMMANDS                                                      Page   15
0D-Loc  Object Code    Addr1 Addr2  Stmt Lv Lineno    Source Statement           (Hibal 5, Asmedit 3.3)  HLASM R4.0  2004/03/22 09.47
+_____  ______ ____    _____ _____  ____ __ ______    ______ _________
0                                   2023             =         COPY  OSFPB                   COPY IN FILE PARAMETER BLOCK
                                    2024             =*
                                    2025             =*  OS FILE PARAMETER BLOCK
                                    2026             =*
 0000C4                             2027             =OSFPBDS  DS    0F
 0000C4                             2028             =OSFDSN   DS    CL44                    DSNAME
 0000F0                             2029             =OSFMEM   DS    CL8                     MEMBER NAME
 0000F8                             2030             =OSFVOL   DS    CL6                     VOLUME ID
                                    2031             =
 0000FE 00                          2032             =OSFFDISP FLAG  ,                       DATA SET DISPOSITION FLAGS
 OSFFDISP.OSFNEW   C0 ONES          2036             =         FLAG  (OSFNEW,X'C0')          NEW DS
 OSFFDISP.OSFMOD   80 ONES          2045             =         FLAG  (OSFMOD,X'80')          MOD DS
 OSFFDISP.OSFOLD   40 ONES          2054             =         FLAG  (OSFOLD,X'40')          OLD DS
 OSFFDISP.OSFSHR   08 ONES          2063             =         FLAG  (OSFSHR,X'08')          SHARE (IMPLIES OLD)
 OSFFDISP.OSFIDSP  37 NZ            2072             =         FLAG  (OSFIDSP,X'37',NZ)      DISPOSITION RESERVED BITS
                                    2082             =
 0000FF 00                          2083             =OSFDSORG FLAG  ,                       DATA SET ORGANIZATION FLAGS
 OSFDSORG.OSFPS    40 ONES          2087             =         FLAG  (OSFPS,X'40')           SEQUENTIAL DATA SET
 OSFDSORG.OSFDA    20 ONES          2096             =         FLAG  (OSFDA,X'20')           DIRECT ACCESS DATA SET
 OSFDSORG.OSFPO    02 ONES          2105             =         FLAG  (OSFPO,X'02')           PARTITIONED DATA SET
 OSFDSORG.OSFIDSG  AD NZ            2114             =         FLAG  (OSFIDSG,X'AD',NZ)      DSORG RESERVED BITS
                                    2124             =
 000100 00                          2125             =OSFRECFM FLAG  ,                       DATA SET FORMAT FLAGS
 OSFRECFM.OSFRCFMU C0 ONES          2129             =         FLAG  (OSFRCFMU,X'C0')        RECFM=U
 OSFRECFM.OSFRCFMF 80 ONES          2138             =         FLAG  (OSFRCFMF,X'80')        RECFM=F
 OSFRECFM.OSFRCFMV 40 ONES          2147             =         FLAG  (OSFRCFMV,X'40')        RECFM=V
 OSFRECFM.OSFRCFMB 10 ONES          2156             =         FLAG  (OSFRCFMB,X'10')        RECFM=?B
 OSFRECFM.OSFRCFMS 08 ONES          2165             =         FLAG  (OSFRCFMS,X'08')        RECFM=?S
 OSFRECFM.OSFRCFMA 04 ONES          2174             =         FLAG  (OSFRCFMA,X'04')        RECFM=?A
 OSFRECFM.OSFRCFMM 02 ONES          2183             =         FLAG  (OSFRCFMM,X'02')        RECFM=?M
 OSFRECFM.OSFIRCFM 21 NZ            2192             =         FLAG  (OSFIRCFM,X'21',NZ)     RESERVED RECFM BITS
                                    2202             =
 000101                             2203             =OSFKEY   DS    X                       KEY LENGTH
 000102                             2204             =OSFLRECL DS    H                       LRECL
 000104                             2205             =OSFBLKSZ DS    H                       BLOCKSIZE
                                    2206             =
 000106 00                          2207             =OSFSPTYP FLAG  ,                       SPACE FLAGS
 OSFSPTYP.OSFSPCYL C0 ONES          2211             =         FLAG  (OSFSPCYL,X'C0')        CYLINDER ALLOCATION
 OSFSPTYP.OSFSPTRK 80 ONES          2220             =         FLAG  (OSFSPTRK,X'80')        TRACK ALLOCATION
 OSFSPTYP.OSFSPBLK 40 ONES          2229             =         FLAG  (OSFSPBLK,X'40')        BLOCK ALLOCATION
 OSFSPTYP.OSFSPCON 08 ONES          2238             =         FLAG  (OSFSPCON,X'08')        CONTIG
 OSFSPTYP.OSFSPMXG 04 ONES          2247             =         FLAG  (OSFSPMXG,X'04')        MAXIMUM CONTIG
 OSFSPTYP.OSFSPRND 01 ONES          2256             =         FLAG  (OSFSPRND,X'01')        ROUND
 OSFSPTYP.OSFISP   32 NZ            2265             =         FLAG  (OSFISP,X'32',NZ)       RESERVED SPACE BITS
                                    2275             =
 000107 00                          2276             =OSFFLAG  FLAG  ,                       MISCELLANY
 OSFFLAG.OSFSPRLS  20 ONES          2280             =         FLAG  (OSFSPRLS,X'20')        RLSE
 OSFFLAG.OSFIN     08 ONES          2289             =         FLAG  (OSFIN,X'08')           WILL READ DATA SET
 OSFFLAG.OSFOUT    04 ONES          2298             =         FLAG  (OSFOUT,X'04')          WILL WRITE DATA SET
 OSFFLAG.OSFUPD    02 ONES          2307             =         FLAG  (OSFUPD,X'02')          WILL UPDATE DATA SET
 OSFFLAG.OSFIFLG   D1 NZ            2316             =         FLAG  (OSFIFLG,X'D1',NZ)      RESERVED MISC BITS
                                    2326             =
 000108                             2327             =OSFSPQTY DS    F                       PRIMARY ALLOCATION QUANTITY
 00010C                             2328             =OSFSSQTY DS    F                       SECONDARY ALLOCATION QUANTITY
 000110                             2329             =OSFSDBLK DS    H                       NUMBER OF DIRECTORY BLOCKS
 000112                             2330             =OSFLIMCT DS    H                       LIMIT COUNT ON DA SEARCH
1VFSH     (VFSH00) (09:47) (22MAR04) ORVYL'S FILE SYSTEM SHOW COMMANDS                                                      Page   16
0D-Loc  Object Code    Addr1 Addr2  Stmt Lv Lineno    Source Statement           (Hibal 5, Asmedit 3.3)  HLASM R4.0  2004/03/22 09.47
+_____  ______ ____    _____ _____  ____ __ ______    ______ _________
0                                   2331             =
 000114                             2332             =         DS    22X                     RESERVED
                                    2333             =
                                    2334             =OSFPB    EQU   OSFPBDS,*-OSFPBDS
 00012A                0012A 0012A  2335             =         ORG   ,
                                    2336             =GPWFCB   EQU   GPWFILE,*-GPWFILE,C'X'  LENGTH OF FILE BLOCK
1VFSH     (VFSH00) (09:47) (22MAR04) ORVYL'S FILE SYSTEM SHOW COMMANDS                                                      Page   17
0D-Loc  Object Code    Addr1 Addr2  Stmt Lv Lineno    Source Statement           (Hibal 5, Asmedit 3.3)  HLASM R4.0  2004/03/22 09.47
+_____  ______ ____    _____ _____  ____ __ ______    ______ _________
0                                   2338             =* ALTERNATE FILE CONTROL BLOCK
                                    2339             =*
 00012C                             2340             =         DS    0F                      ALIGNMENT CHECK
 00012C                             2341             =GPWAFILE DS    0XL(L'GPWFCB)           ALTERNATE FILE CONTROL
 00012C                             2342             =GPWAFFL  DS    X                       ALTERNATE FILE FLAGS
 00012D                             2343             =GPWAFID  DS    X                       ALTERNATE FILE ID
 00012E                             2344             =GPWAFNL  DS    X                       ALTERNATE FILE NAME LEN
 00012F                             2345             =GPWALMNL DS    X                       ALTERNATE MEMBER LENGTH
 000130                             2346             =GPWALMN  DS    CL8                     ALTERNATE MEMBER NAME
 000138                             2347             =GPWALMN2 DS    CL8                     ALTERNAME MEMBER NAME2 (ALIAS)
 000140                             2348             =GPWALMF1 DS    X                       ALTERNATE MEMBER F1
 000141                             2349             =GPWALMF2 DS    X                       ALTERNATE MEMBER F2 FLGS
 000144                             2350             =GPWAMFBN DS    A                       ALTERNATE MEMBER FRST BLK
 000148                             2351             =GPWAMBCT DS    A                       ALTERNATE MEMBER # BLK'S
 00014C                             2352             =GPWAMLBN DS    A                       ALTERNATE MEMBER LST BLK
 000150                             2353             =GPWANXTA DS    A                       ALTERNATE NEXT ADDRESS
 000154                             2354             =GPWAFLG  DS    X                       ALTERNATE LIBRARY FLAGS
 000158                             2355             =GPWAUINF DS    A                       ALTERNATE FILE USER INFO
 00015C                             2356             =GPWABKSZ DS    AL2                     ALTERNATE File Block Size
 000160                             2357             =GPWABN   DS    A                       ALTERNATE FILE BLK #
 000164                             2358             =GPWAFN   DS    CL44                    ALTERNATE FILE NAME
 000190                00190 001CA  2359             =         ORG   GPWAFILE+L'GPWFCB
 0001CC                             2360             =GPWHCNT  DS    F                       COUNT OF HYBRID FILE BLOCKS
 0001D0                             2361             =GPWDELTA DS    F                       WYLBUR LINE NUMBER DELTA
                                    2362             =GPWWRK   EQU   GPWSTART,*-GPWSTART     CLEARED WORK AREA
-
                                    2364             =GPWTST   EQU   *                       1024 BYTE MAXIMUM LENGTH
 0001D4                001D4 00800  2365             =         ORG   GPWSTART+2*1024         PUT HEX BUFFER AT END
 000800                             2366             =         DC    0Y(*-GPWTST)            ASSEMBLY ERROR IF OVERFLOW
 000800                             2367             =GPWHXBUF DS    XL2048                  I/O BUFFER FOR HEX OPERATIONS
 001000                             2368             =GPWBUF   DS    XL8192                  GENERAL I/O BUFFER
                                    2369             =GPW      EQU   GPWSTART,*-GPWSTART,C'X'
1VFSH     (VFSH00) (09:47) (22MAR04) ORVYL'S FILE SYSTEM SHOW COMMANDS                                                      Page   18
0D-Loc  Object Code    Addr1 Addr2  Stmt Lv Lineno    Source Statement           (Hibal 5, Asmedit 3.3)  HLASM R4.0  2004/03/22 09.47
+_____  ______ ____    _____ _____  ____ __ ______    ______ _________
0                                   2371      53.              COPY  PRGCAT
 000000                00000 0000C  2372             =PRGCAT   DSECT
 000000                             2373             =PCATPTR  DS    A                       POINTER TO START OF CATALOG
 000004                             2374             =PCATEND  DS    A                       POINTER TO END OF CATALOG
 000008                             2375             =PCATSTRT DS    F                       PROGRAM CATALOG STARTS HERE
-
                                    2377      55.              COPY  DENTRY
                                    2378             =* LIBRARY DIRECTORY ENTRY
                                    2379             =*
 000000                00000 00010  2380             =DENTRY   DSECT
 000000                             2381             =DNAME    DS    CL8
 000008                             2382             =DALINAM  DS    CL8                     MEMBER NAME IF ALIAS
                                    2383             =DALICD   EQU   C' '                    ALIAS IF HIGHER THAN THIS
                                    2384             =
 000010                00010 00008  2385             =         ORG   DALINAM
 000008                             2386             =DFLG1    DS    X
                                    2387             =*        EQU   X'80'                    DON'T USE
                                    2388             =*        EQU   X'40'                   DON'T USE
                                    2389             =DFL1SHR  EQU   X'20'                   PROGRAM IS SHARABLE
                                    2390             =DFL1REF  EQU   X'10'                   MODULE IS PROTECTED(REFRESHABLE)
                                    2391             =DFL1PRV  EQU   X'08'                   MODULE IS PRIVATE
                                    2392             =DFL1M31  EQU   X'04'                   START IN 31 BIT MODE
                                    2393             =DFL1PAG  EQU   X'01'                   MODULE REQUIRES PAGE ALIGNMENT
                                    2394             =
 000009                             2395             =DFLG2    DS    X
                                    2396             =DFLGS    EQU   DFLG1,*-DFLG1
 00000A                             2397             =DFBN     DS    AL3                     FIRST BLOCK NUMBER
 00000D                             2398             =DBCT     DS    AL3                     BLOCK COUNT
 000010                             2399             =DNEXT    DS    0F
                                    2400             =DFLD     EQU   DFLG1,*-DFLG1
                                    2401             =DENTSIZ  EQU   *-DENTRY
-
                                    2403      57.              COPY  DIRB
                                    2404             =*  LIBRARY DIRECTORY BLOCK
                                    2405             =*
 000000                00000 00800  2406             =DIRB     DSECT
 000000                             2407             =DIRBLINK DS    A                       BLOCK NUMBER OF NEXT DIRB
 000004                             2408             =DIRBBNUM DS    A                       NUMBER OF THIS DIRB
 000008                             2409             =         DS    2A                      ***RESERVED***
 000010                             2410             =DIRBDENT DS    127CL(DENTSIZ)          DIRECTORY ENTRIES
                                    2411             =DIRBLEN  EQU   *-DIRB                  LENGTH OF DIRB
1VFSH     (VFSH00) (09:47) (22MAR04) ORVYL'S FILE SYSTEM SHOW COMMANDS                                                      Page   19
0D-Loc  Object Code    Addr1 Addr2  Stmt Lv Lineno    Source Statement           (Hibal 5, Asmedit 3.3)  HLASM R4.0  2004/03/22 09.47
+_____  ______ ____    _____ _____  ____ __ ______    ______ _________
0
 000000                00000 00057  2414      60.     WA       DSECT
                                    2415      61.              VSA   2,11
 000000                             2416    01-VSA   +         DS    (11+1-(2)+16*((2)/(11+1))/((2)/(11+1)))F
 000028                             2417      62.     WAFL     DS    X                       SPECIAL FLAGS
                                    2418      63.     WAFSHFER EQU   WAFL,X'80',1            SHOW FILES ERASE IN PROGRESS
                                    2419      64.     WAFSHFBL EQU   WAFL,X'40',1            SHOW FILES BLOCKS IN PROGRESS
                                    2420      65.     WAFSPA   EQU   WAFL,X'20',1            SHO PER ACC IN PROGRESS
                                    2421      66.
 000029                             2422      67.     WADEVFL  DS    X
 00002A                             2423      68.     WADEVPR  DS    X
 00002B                             2424      69.     WADEVNM  DS    44X
                                    2425      70.     WADEVINF EQU   WADEVFL,*-WADEVFL,C'X'
                                    2426      71.
 000057                00057 00029  2427      72.              ORG   WADEVFL
 00002C                             2428      73.     WASAVESR DS    F                       SAVE FOR SR
 000030                             2429      74.     WASAVETR DS    F                       SAVE FOR TR
 000034                00034 00057  2430      75.              ORG   ,
                                    2431      76.     WASIZE   EQU   *-WA
1VFSH     (VFSH00) (09:47) (22MAR04) ORVYL'S FILE SYSTEM SHOW COMMANDS                                                      Page   20
0D-Loc  Object Code    Addr1 Addr2  Stmt Lv Lineno    Source Statement           (Hibal 5, Asmedit 3.3)  HLASM R4.0  2004/03/22 09.47
+_____  ______ ____    _____ _____  ____ __ ______    ______ _________
0000015                00000 017F0  2434      79.     VFSH     CSECT ,
 USING  CLW,R10                     2436      80.              USING CLW,CLWR                ##
 USING  WA,R8                       2445      81.              USING WA,WAR                  ##
 000015 00/902B D000         00000  2454      82.     FILESHOW VENTER  2,11,WASIZE
 00001A 188D/41D0 D058       00058  2458             +
 000020 0D70                        2462             +
 USING  *,R7
 000022 9867 7046            00068  2474      83.              LM    BRR,BR,=A(BASE+4096,BASE)
 DROP   *,R7                        2475      84.              USING BASE,BR             ##  ##
 USING  BASE,R7
 USING  BASE+4096,R6                2487      85.              USING BASE+4096,BRR       ##  ##
 000026 1820                        2496      86.              LR    SR,R0                   SAVE KEYWORD LENGTH
 000028 183F                        2497      87.              LR    TR,15                   SAVE ENTRY CODE
 00002A 9200 8028      00028        2498      88.              CLEAR WAFL                    SET SPECIAL FLAGS TO 0
 00002E 9068 A358            00358  2505      89.              STM   BRR,WAR,CLWQRET         QUICK EXIT SAVE
 000032 4D90 61E8/0000       01224  2506      90.              FSCALL FILSETUP
 000038 47F0 7046            00082  2510      91.              B     SETUPRTN
                                    2511      92.     BASE     EQU   *
                                    2512      93.     *
                                    2513      94.     * EXIT BRANCH TABLE
 00003C 47F0 7008            00044  2514      95.              B     EXIT                    NORMAL EXIT
 000040 47F0 7034            00070  2515      96.              B     TYPERR                  ERROR MESSAGE EXIT
                                    2516      97.
 000044                             2517      98.     EXIT     LABEL ,
 000044 9180 8028      00028        2519      99.              IF    WAFSHFER,SHFERRET       PROCESSING SHOW FILES ERASE?
 000048 4710 73BE            003FA  2531             +
 00004C 9140 8028      00028        2537     100.              IF    WAFSHFBL,SHFBLRET       PROCESSING SHOW FILES BLOCKS ?
 000050 4710 7288            002C4  2549             +
 000054 18F2                        2555     101.              LR    R15,SR                  RETURN CODE
 000056 1803                        2556     102.              LR    0,TR
 000058 18D8/982B D000       00000  2557     103.              VEXIT 2,11,LTR
 00005E 12FF/07F9                   2561             +
 000068                             2563     104.              LTORG
 000068 0000103C0000003C            2565                             =A(BASE+4096,BASE)
                                    2569     105.     *
 000070 5890 623C/0D99       01278  2570     106.     TYPERR   VCALL TYPEIT
 000076 947F 8028      00028        2574     107.              CLEAR WAFSHFER
 00007A 94BF 8028      00028        2581     108.              CLEAR WAFSHFBL
 00007E 47F0 6176            011B2  2588     109.              B     FILEXIT                 DROP FILES
1VFSH     (VFSH00) (09:47) (22MAR04) ORVYL'S FILE SYSTEM SHOW COMMANDS                                                      Page   21
0Current Usings:  (BASE+4096,R6) (BASE,R7) (WA,R8) (CLW,R10)
0Loc    Object Code    Addr1 Addr2  Stmt Lv Lineno    Source Statement           (Hibal 5, Asmedit 3.3)  HLASM R4.0  2004/03/22 09.47
+___    ______ ____    _____ _____  ____ __ ______    ______ _________
0USING  GPW,R12                     2590     111.              USING GPW,GPWR                ##
 000082                             2599     112.     SETUPRTN LABEL ,
                                    2602     114.              VFSHTAB FSHTAB,TR               BRANCH ON CODE
 000082 47F3 704A            00086  2603    01-VFSHT +         B     *+4(TR)
 000086 47F0 716A            001A6  2604    01-VFSHT +         B     SHFILES
 00008A 47F0 76A6            006E2  2605    01-VFSHT +         B     SHACCESS
 00008E 47F0 7836            00872  2606    01-VFSHT +         B     SHBLOCKS
 000092 47F0 7076            000B2  2607    01-VFSHT +         B     SHCLP
 000096 47F0 7B4C            00B88  2608    01-VFSHT +         B     SHCONTEN
 00009A 47F0 70CA            00106  2609    01-VFSHT +         B     SHFILEMA
 00009E 47F0 79C6            00A02  2610    01-VFSHT +         B     SHFORMAT
 0000A2 47F0 74F0            0052C  2611    01-VFSHT +         B     SHPERMIT
 0000A6 47F0 7B4C            00B88  2612    01-VFSHT +         B     SHPROGRA
 0000AA 47F0 77E2            0081E  2613    01-VFSHT +         B     SHSHARE
 0000AE 47F0 7112            0014E  2614    01-VFSHT +         B     SHSPIFIL
1VFSH     (VFSH00) (09:47) (22MAR04) ORVYL'S FILE SYSTEM SHOW COMMANDS                                                      Page   22
0Current Usings:  (BASE+4096,R6) (BASE,R7) (WA,R8) (CLW,R10) (GPW,R12)
0Loc    Object Code    Addr1 Addr2  Stmt Lv Lineno    Source Statement           (Hibal 5, Asmedit 3.3)  HLASM R4.0  2004/03/22 09.47
+___    ______ ____    _____ _____  ____ __ ______    ______ _________
0                                   2617     117.     * SHOW CLP STATUS FOR FILE
                                    2618     118.     *
 0000B2                             2619     119.     SHCLP    LABEL ,
 0000B2 4D90 61E8/0404       01224  2621     120.              FSCALL GETNAME                GET FILENAME ROOT
 0000B8 5810 6240            0127C  2625     121.              LSCAN USRGPTBL,CLWKWCB        LOOK FOR USER OR GROUP
 0000BC 41F0 A2C4            002C4  2639             +
 0000C0 58E0 6244/0DEE       01280  2642             +
 0000C6 4770 6144            01180  2644     122.              BNZ   SCRET                   ERROR IN SCAN
 0000CA 4D90 61E8/1408       01224  2645     123.              FSCALL ASMBLNAM               GET FILENAME
 0000D0 9610 C001      00001        2649     124.              SET   GPWFNSF                 DO NOT SENSE USER INFO
 0000D4 4D90 61E8/0014       01224  2655     125.              FSCALL ATTOLDX                ATTACH FILE
 0000DA 4D90 61E8/0414       01224  2659     126.              FSCALL SEGNAME                WRITE FILENAME
 0000E0 4110 0000            00000  2663     127.              SEG   'may '                  BUILD PROPER MESSAGE
 0000E4 4590 6210            0124C  2665             +
 0000E8 4D90 61E8/083C       01224  2666     128.              FSCALL DOSENCLP               CHECK FOR CLP/NOCLP
 0000EE 4780 70BE            000FA  2670     129.              IF    NZ,'SEG  "not "'        NO CLP SET
 0000F2 4110 0005            00005  2683  1          +
 0000F6 4590 6210            0124C  2684             +
 0000FA 4110 000A            0000A  2689     130.              SEG   'be changed by CLP'     FINISH OUT RESPONSE
 0000FE 4590 6210            0124C  2691             +
 000102 47F0 6180            011BC  2692     131.              B     WRITEXIT
1VFSH     (VFSH00) (09:47) (22MAR04) ORVYL'S FILE SYSTEM SHOW COMMANDS                                                      Page   23
0Current Usings:  (BASE+4096,R6) (BASE,R7) (WA,R8) (CLW,R10) (GPW,R12)
0Loc    Object Code    Addr1 Addr2  Stmt Lv Lineno    Source Statement           (Hibal 5, Asmedit 3.3)  HLASM R4.0  2004/03/22 09.47
+___    ______ ____    _____ _____  ____ __ ______    ______ _________
0000106 4D90 61E8/0404       01224  2694     133.     SHFILEMA FSCALL GETNAME
 00010C 5810 6240            0127C  2698     134.              LSCAN USRGPTBL,CLWKWCB
 000110 41F0 A2C4            002C4  2712             +
 000114 58E0 6244/0DEE       01280  2715             +
 00011A 4D90 61E8/1408       01224  2717     135.              FSCALL ASMBLNAM               PUT NAME TOGETHER
 000120 9610 C001      00001        2721     136.              SET   GPWFNSF                 DO NOT SENSE USER INFO
 000124 4D90 61E8/0014       01224  2727     137.              FSCALL ATTOLDX                ATTACH THE FILE
 00012A 4D90 61E8/0414       01224  2731     138.              FSCALL SEGNAME
 000130 4110 001C            0001C  2735     139.              SEG   'Filemask: '
 000134 4590 6210            0124C  2737             +
 000138 4D90 61E8/0824       01224  2738     140.              FSCALL SENUPRV                GET FILEMASK,PUB PRIVS
 00013E 4210 C005            00005  2742     141.              STC   R1,GPWPERM              SET FILE MASK
 000142 94F7 C005      00005        2743     142.              CLEAR GPWPRMEX                NO EXTEND
 000146 4D90 6044            01080  2750     143.              LCALL SEGPRIV
 00014A 47F0 6176            011B2  2752     144.              B     FILEXIT
1VFSH     (VFSH00) (09:47) (22MAR04) ORVYL'S FILE SYSTEM SHOW COMMANDS                                                      Page   24
0Current Usings:  (BASE+4096,R6) (BASE,R7) (WA,R8) (CLW,R10) (GPW,R12)
0Loc    Object Code    Addr1 Addr2  Stmt Lv Lineno    Source Statement           (Hibal 5, Asmedit 3.3)  HLASM R4.0  2004/03/22 09.47
+___    ______ ____    _____ _____  ____ __ ______    ______ _________
0                                   2754     146.     * SHOW SPIRES ONLY STATUS FOR FILE
                                    2755     147.     *
 00014E                             2756     148.     SHSPIFIL LABEL ,
 00014E 4D90 61E8/0404       01224  2758     149.              FSCALL GETNAME                GET FILENAME ROOT
 000154 5810 6240            0127C  2762     150.              LSCAN USRGPTBL,CLWKWCB        LOOK FOR USER OR GROUP
 000158 41F0 A2C4            002C4  2776             +
 00015C 58E0 6244/0DEE       01280  2779             +
 000162 4770 6144            01180  2781     151.              BNZ   SCRET                   ERROR IN SCAN
 000166 4D90 61E8/1408       01224  2782     152.              FSCALL ASMBLNAM               GET FILENAME
 00016C 9610 C001      00001        2786     153.              SET   GPWFNSF                 DO NOT SENSE USER INFO
 000170 4D90 61E8/0014       01224  2792     154.              FSCALL ATTOLDX                ATTACH FILE
 000176 4D90 61E8/0414       01224  2796     155.              FSCALL SEGNAME                WRITE FILENAME
 00017C 4110 0027            00027  2800     156.              SEG   'accessible by '        BUILD PROPER MESSAGE
 000180 4590 6210            0124C  2802             +
 000184 4D90 61E8/0844       01224  2803     157.              FSCALL DOSENSPI               CHECK FOR SPIRES ONLY
 00018A 4770 715A            00196  2807     158.              IF    Z,'SEG  "any program"'  ITS ALL
 00018E 4110 0036            00036  2820  1          +
 000192 4590 6210            0124C  2821             +
 000196 715E           00196 0018C  2826     159.              ELSE  'SEG  "Spires-only"'    OR NOTHING
 000196 47F0 7166            001A2  2831             +
 00019A 4110 0042            00042  2839  1          +
 00019E 4590 6210            0124C  2840             +
 0001A2 47F0 6180            011BC  2845     160.              B     WRITEXIT
1VFSH     (VFSH00) (09:47) (22MAR04) ORVYL'S FILE SYSTEM SHOW COMMANDS                                                      Page   25
0Current Usings:  (BASE+4096,R6) (BASE,R7) (WA,R8) (CLW,R10) (GPW,R12)
0Loc    Object Code    Addr1 Addr2  Stmt Lv Lineno    Source Statement           (Hibal 5, Asmedit 3.3)  HLASM R4.0  2004/03/22 09.47
+___    ______ ____    _____ _____  ____ __ ______    ______ _________
0                                   2847     162.     *  SHOW FILES
                                    2848     163.     *
 0001A6                             2849     164.     SHFILES  LABEL ,
 0001A6 5810 6248            01284  2851     165.              LSCAN SHFILTBL,CLWKWCB
 0001AA 41F0 A2C4            002C4  2865             +
 0001AE 58E0 6244/0DEE       01280  2868             +
 0001B4 4770 6144            01180  2870     166.              BNZ   SCRET                   ERROR IN SCAN
 0001B8 9104 C004      00004        2871     167.              IF    GPWSFATT,SHFILATT       ATTACHED OPTION?
 0001BC 4710 73DC            00418  2883             +
 0001C0 4110 004E            0004E  2889     168.              SEG   'Orvyl File System'
 0001C4 4590 6210            0124C  2891             +
 0001C8 5890 624C/0D99       01288  2892     169.              VWRITE ,
 0001CE 4770 6176            011B2  2897     170.              BNZ   FILEXIT                 QUIT IF ATTN
 0001D2 9500 C08E      0008E        2898     171.              IF    (GPWFNL,EQ,0),BEGIN    ANY FILE NAME SPECIFIED?
 0001D6 4770 71AC            001E8  2911             +
 0001DA 4110 62C2            012FE  2916  1  172.                SETMSG ' '                    SET DUMMY FILE NAME
 0001DE 4100 0001            00001  2919  1          +
 0001E2 4D90 61E8/040C       01224  2920  1  173.                FSCALL GOTNAME                INIT FILE CONTROL BLOCK
 0001E8                             2924     174.              END   ,
00001E8 4D90 61E8/1408       01224  2929     176.              FSCALL ASMBLNAM               PUT FILENAME TOGETHER
 0001EE 9138 C004      00004        2933     177.              IF    (GPWSFLK+GPWSFUNL+GPWSFFRO,NZ),BEGIN   NAME COMPARE?
 0001F2 4780 71E0            0021C  2952             +
 0001F6 D22B C164 C0C8 00164 000C8  2957  1  178.                MVC   GPWAFN,GPWFGRP          SAVE FILE NAME
 0001FC 1FFF/43F0 C08E       0008E  2958  1  179.                LC    R15,GPWFNL              LENGTH
 000202 4BF0 62A4            012E0  2965  1  180.                SH    R15,=Y(4)               DELETE ORV.
 000206 42F0 C12E            0012E  2966  1  181.                STC   R15,GPWAFNL
 00020A 9110 C004      00004        2967  1  182.                IF    GPWSFUNL,BEGIN          UNLIKE OPTION?
 00020E 47E0 71E0            0021C  2977  1          +
 000212 9240 C0CF      000CF        2982  2  183.                  MVI   GPWFNAM,C' '            SHO ALL FILES (ALMOST)
 000216 D220 C0D0 C0CF 000D0 000CF  2983  2  184.                  MVC   GPWFNAM+1(L'GPWFNAM),GPWFNAM
 00021C                             2984  1  185.                END   ,
 00021C                             2988     186.              END   ,
 00021C 4D90 61E8/0888       01224  2992     187.     SHFSEN   FSCALL SENFILE                GET FILES
 000222 1231                        2996     188.              LTR   TR,R1                   ANY?
 000224 4780 73D4            00410  2997     189.              BZ    SHFEXIT                 NO, TAKE NO ERROR EXIT
 000228 5820 C038            00038  2998     190.              L     SR,GPWBUFA              POINT TO BUFFER
 00022C 5F20 6250            0128C  2999     191.              SL    SR,=F'56'               BACK OFF ONE FILE NAME
 000230 4120 2038            00038  3000     192.     FILELOOP LA    SR,@SR+56               TO NEXT FILE
 000234 D22B C0C4 2000 000C4 00000  3001     193.              MVC   GPWFILN(L'GPWFILN),@SR
 00023A 4140 002C            0002C  3002     194.              LA    QR,L'GPWFILN
 00023E 4110 C0EF            000EF  3003     195.              LA    R1,GPWFILN+L'GPWFILN-1  END OF NAME
 000242 9540 1000      00000        3004     196.     SHFFNSCN CLI   @R1,C' '
 000246 0610                        3005     197.              DECR  R1
 000248 4770 7214            00250  3007     198.              BNE   SHFFNSC1
 00024C 4640 7206            00242  3008     199.              BCT   QR,SHFFNSCN
 000250 4240 C08E            0008E  3009     200.     SHFFNSC1 STC   QR,GPWFNL
1VFSH     (VFSH00) (09:47) (22MAR04) ORVYL'S FILE SYSTEM SHOW COMMANDS                                                      Page   26
0Current Usings:  (BASE+4096,R6) (BASE,R7) (WA,R8) (CLW,R10) (GPW,R12)
0Loc    Object Code    Addr1 Addr2  Stmt Lv Lineno    Source Statement           (Hibal 5, Asmedit 3.3)  HLASM R4.0  2004/03/22 09.47
+___    ______ ____    _____ _____  ____ __ ______    ______ _________
0                                   3011     202.     * SHOW FILES - LIKE AND UNLIKE OPTIONS
                                    3012     203.     *
 000254 9130 C004      00004        3013     204.              IF    (GPWSFLK+GPWSFUNL,Z),SHFCONT  LIKE OR UNLIKE?
 000258 4780 7248            00284  3030             +
 00025C 1F44/4340 C12E       0012E  3036     205.              LC    QR,GPWAFNL              LEN
 000262 0640                        3043     206.              DECR  QR
 000264 9120 C004      00004        3045     207.              IF    ~GPWSFLK,NOTLIKE        LIKE?
 000268 47E0 7240            0027C  3057             +
 00026C 4440 73CE            0040A  3063     208.              EX    QR,SHFCLC               COMPARE
 000270 4720 6176            011B2  3065     209.              BH    FILEXIT                 ALL DONE IF BEYOND RANGE
 000274 4770 7320            0035C  3066     210.              BNE   SHFNEXT                 NOT THIS ONE
 000278 47F0 7248            00284  3067     211.              B     SHFCONT                 CONTINUE IF ON TARGET
                                    3068     212.
 00027C 4440 73CE            0040A  3069     213.     NOTLIKE  EX    QR,SHFCLC               COMPARE
 000280 4780 7320            0035C  3071     214.              BE    SHFNEXT                 NOT THIS ONE
 000284                             3072     215.     SHFCONT  LABEL ,
1VFSH     (VFSH00) (09:47) (22MAR04) ORVYL'S FILE SYSTEM SHOW COMMANDS                                                      Page   27
0Current Usings:  (BASE+4096,R6) (BASE,R7) (WA,R8) (CLW,R10) (GPW,R12)
0Loc    Object Code    Addr1 Addr2  Stmt Lv Lineno    Source Statement           (Hibal 5, Asmedit 3.3)  HLASM R4.0  2004/03/22 09.47
+___    ______ ____    _____ _____  ____ __ ______    ______ _________
0                                   3075     217.     * SHOW FILES - BLOCKS AND FORMAT OPTIONS
                                    3076     218.     *
                                    3077     219.     *
 000284 4D90 61E8/0414       01224  3078     220.              FSCALL SEGNAME                FORMAT FILE NAME
 00028A 9103 C004      00004        3082     221.              IF    GPWSFBLO+GPWSFFMT,BEGIN      BLOCKS OR FORMAT?
 00028E 4780 72AA            002E6  3095             +
 000292 947F C000      00000        3100  1  222.                CLEAR GPWFFREE                DON'T FREE WORK PAGE
 000296 9640 8028      00028        3107  1  223.                SET   WAFSHFBL                RETURN TO SHOW FILES
 00029A 9680 C003      00003        3113  1  224.                SET   GPWFERS                 SET FLAG FOR ERASE
 00029E 9023 802C            0002C  3119  1  225.                STM   SR,TR,WASAVESR          SAVE SR AND TR
 0002A2 4D90 61E8/0014       01224  3120  1  226.                FSCALL ATTOLDX                ATTACH FILE
 0002A8 9102 C004      00004        3124  1  227.                IF    GPWSFBLO,'LCALL SEGBLKS'      FORMAT BLOCKS
 0002AC 47E0 7278            002B4  3134  1          +
 0002B0 4D90 7916            00952  3141  1          +
 0002B4 9101 C004      00004        3146  1  228.                IF    GPWSFFMT,'LCALL SEGFMT'       SET FORMAT INFO
 0002B8 47E0 7284            002C0  3156  1          +
 0002BC 4D90 79F0            00A2C  3163  1          +
 0002C0 947F C003      00003        3168  1  229.                CLEAR GPWFERS                 OK TO TRY ERASE
 0002C4 94BF 8028      00028        3175  1  230.     SHFBLRET   CLEAR WAFSHFBL                UNDO  FLAGS
 0002C8 9680 C000      00000        3183  1  231.                SET   GPWFFREE
 0002CC 9180 C08C      0008C        3189  1  232.                IF    GPWFATT,'FSCALL DETACH' DETACH FILE IN CASE OF ERASE
 0002D0 47E0 729E            002DA  3199  1          +
 0002D4 4D90 61E8/0020       01224  3207  1          +
 0002DA 9823 802C            0002C  3213  1  233.                LM    SR,TR,WASAVESR          RESTORE SR AND TR
 0002DE 9180 C003      00003        3214  1  234.                IF    GPWFERS,SHFNEXT         SKIP IF DETACH BLEW
 0002E2 4710 7320            0035C  3226  1          +
 0002E6                             3232     235.              END   ,
0                                   3237     237.     * SHOW FILES - DATE OPTION
                                    3238     238.     *
 0002E6 9140 C004      00004        3239     239.              IF    GPWSFDT,BEGIN          DATE OPTION SPECIFIED?
 0002EA 47E0 72DA            00316  3249             +
 0002EE 4110 0060            00060  3254  1  240.                SEG   '-- Cr'
 0002F2 4590 6210            0124C  3256  1          +
 0002F6 4110 202C            0002C  3257  1  241.                LA    R1,@SR+L'GPWFN          POINT TO CREATE DATE
 0002FA 4D90 60BC            010F8  3258  1  242.                LCALL SEGDATE                 FORMAT
 0002FE 4110 0066            00066  3260  1  243.                SEG   '  La'
 000302 4590 6210            0124C  3262  1          +
 000306 4110 2030            00030  3263  1  244.                LA    R1,@SR+L'GPWFN+4        POINT TO LAST REFERENCE DATE
 00030A 4D90 60BC            010F8  3264  1  245.                LCALL SEGDATE                 FORMAT
 00030E 4110 006B            0006B  3266  1  246.                SEG   ' '                    PRETTY
 000312 4590 6210            0124C  3268  1          +
 000316                             3269     247.              END   ,
 000316 9102 C004      00004        3273     248.              IF    (GPWSFBLO,AND,GPWFHYBR),BEGIN HYBRID FILE TYPE
 00031A 47E0 730E            0034A  3285             +
 00031E 9108 C002      00002        3296             +
 000322 47E0 730E            0034A  3297             +
 000326 58F0 C1CC            001CC  3302  1  249.                L     R15,GPWHCNT             GET COUNT OF IXRS
 00032A 4110 006D            0006D  3303  1  250.                SEG   '(Hybrid '
 00032E 4590 6210            0124C  3305  1          +
 000332 1B00/4110 A2E8       002E8  3306  1  251.                BTD   CLWTEMP,0,(R15)         CONVERT TOTAL
 000338 58E0 6254/0DEE       01290  3324  1          +
 00033E 4590 61F8            01234  3326  1  252.                SEG   (1),(0)
 000342 4110 0076            00076  3340  1  253.                SEG   ') '
1VFSH     (VFSH00) (09:47) (22MAR04) ORVYL'S FILE SYSTEM SHOW COMMANDS                                                      Page   28
0Current Usings:  (BASE+4096,R6) (BASE,R7) (WA,R8) (CLW,R10) (GPW,R12)
0Loc    Object Code    Addr1 Addr2  Stmt Lv Lineno    Source Statement           (Hibal 5, Asmedit 3.3)  HLASM R4.0  2004/03/22 09.47
+___    ______ ____    _____ _____  ____ __ ______    ______ _________
0000346 4590 6210            0124C  3342  1          +
 00034A                             3343     254.              END   ,
 00034A 9180 C004      00004        3347     255.              IF    GPWSFER,SHFASKER        ASK USER IF ERASE OPTION
 00034E 4710 7356            00392  3359             +
 000352 5890 624C/0D99       01288  3365     256.              VWRITE ,                      SEND FILE
 000358 4770 6176            011B2  3370     257.              BNZ   FILEXIT                 DONE IF ATTENTION HIT
 00035C                             3371     258.     SHFNEXT  LABEL ,
 00035C 4630 71F4            00230  3373     259.              BCT   TR,FILELOOP             CONTINUE
 000360 1F44/4340 C08E       0008E  3374     260.              LC    QR,GPWFNL               LEN
 000366 4940 62A6            012E2  3381     261.              CH    QR,=Y(L'GPWFN)          MAX?
 00036A 4144 C0C4            000C4  3382     262.              LA    QR,GPWFILN(QR)          POINT TO END
 00036E 47B0 733E            0037A  3383     263.              BNL   SHFSENX                 DUPLICATE IF SO
 000372 924B 4000      00000        3384     264.              MVI   @QR,C'.'                PREVENT DUPLICATION
 000376 47F0 71E0            0021C  3385     265.              B     SHFSEN                  GET NEXT BUFFER
 00037A                             3386     266.     SHFSENX  LABEL ,
 00037A 9240 4000      00000        3388     267.              MVI   @QR,C' '                PREVENT ERRORS
 00037E 4D90 61E8/0888       01224  3389     268.              FSCALL SENFILE                GET FILES
 000384 5820 C038            00038  3393     269.              L     SR,GPWBUFA              POINT TO BUFFER
 000388 1831                        3394     270.              LR    TR,R1
 00038A 4630 71F4            00230  3395     271.              BCT   TR,FILELOOP             JUMP IF ANY
 00038E 47F0 73D4            00410  3396     272.              B     SHFEXIT                 EXIT
1VFSH     (VFSH00) (09:47) (22MAR04) ORVYL'S FILE SYSTEM SHOW COMMANDS                                                      Page   29
0Current Usings:  (BASE+4096,R6) (BASE,R7) (WA,R8) (CLW,R10) (GPW,R12)
0Loc    Object Code    Addr1 Addr2  Stmt Lv Lineno    Source Statement           (Hibal 5, Asmedit 3.3)  HLASM R4.0  2004/03/22 09.47
+___    ______ ____    _____ _____  ____ __ ______    ______ _________
0                                   3398     274.     * SHOW FILES - ERASE OPTION
                                    3399     275.     *
 000392                             3400     276.     SHFASKER LABEL ,
 000392 947F C003      00003        3402     277.              CLEAR GPWFERS                 CLEAR FLAG BEFORE QUERY
 000396 5890 6258/0D99       01294  3409     278.              VMARK ,                       MARK START OF PROMPT
 00039C 4110 0079            00079  3414     279.              SEG   'Erase'
 0003A0 4590 6210            0124C  3416             +
 0003A4 4D90 61E8/1414       01224  3417     280.              FSCALL RDERASE                DOES HE REALLY WANT TO ERASE?
 0003AA 9180 C003      00003        3421     281.              IF    ~GPWFERS,SHFNEXT        PERMISSION?
 0003AE 47E0 7320            0035C  3433             +
 0003B2 9680 8028      00028        3439     282.              SET   WAFSHFER                RETURN TO SHOW FILES WHEN DONE
 0003B6 947F C000      00000        3445     283.              CLEAR GPWFFREE                DON'T FREE WORK PAGE
 0003BA 9023 802C            0002C  3452     284.              STM   SR,TR,WASAVESR          SAVE SR AND TR
 0003BE 4D90 61E8/0010       01224  3453     285.              FSCALL ATTOLDE                GET FILE
 0003C4 9180 C0B8      000B8        3457     286.              IF    GPWUILIB,BEGIN
 0003C8 47E0 73A2            003DE  3467             +
 0003CC 4D90 61E8/0414       01224  3472  1  287.                FSCALL SEGNAME
 0003D2 4110 007F            0007F  3476  1  288.                SEG   'is a library'
 0003D6 4590 6210            0124C  3478  1          +
 0003DA 47F0 6180            011BC  3479  1  289.                B     WRITEXIT
 0003DE                             3480     290.              END   ,
 0003DE 4D90 61E8/0850       01224  3484     291.              FSCALL DOERASE                ZOT THE FILE
 0003E4 947F C08C      0008C        3488     292.              CLEAR GPWFATT                 ERASE DETACHES FILE
 0003E8 4D90 61E8/0414       01224  3495     293.              FSCALL SEGNAME                FORMAT
 0003EE 4110 008C            0008C  3499     294.              SEG   'Erased '               ANSWER
 0003F2 4590 6210            0124C  3501             +
 0003F6 47F0 61A8            011E4  3502     295.              B     VFMSG                   WILL RETURN EVENTUALLY
                                    3503     296.
 0003FA 947F 8028      00028        3504     297.     SHFERRET CLEAR WAFSHFER
 0003FE 9680 C000      00000        3512     298.              SET   GPWFFREE                DROP WORK PAGE ON EXIT
 000402 9823 802C            0002C  3518     299.              LM    SR,TR,WASAVESR          RESTORE SR AND TR
 000406 47F0 7320            0035C  3519     300.              B     SHFNEXT
                                    3520     301.
 00040A D500 C0C8 C164 000C8 00164  3521     302.     SHFCLC   CLC   GPWFGRP(*-*),GPWAFN
                                    3522     303.
 000410 947F A208      00208        3523     304.     SHFEXIT  CLEAR CLWFCERR                TURN OFF ERRORS
 000414 47F0 6176            011B2  3531     305.              B     FILEXIT                  AND TAKE LEAVE
1VFSH     (VFSH00) (09:47) (22MAR04) ORVYL'S FILE SYSTEM SHOW COMMANDS                                                      Page   30
0Current Usings:  (BASE+4096,R6) (BASE,R7) (WA,R8) (CLW,R10) (GPW,R12)
0Loc    Object Code    Addr1 Addr2  Stmt Lv Lineno    Source Statement           (Hibal 5, Asmedit 3.3)  HLASM R4.0  2004/03/22 09.47
+___    ______ ____    _____ _____  ____ __ ______    ______ _________
0                                   3533     307.     * SHOW FILES - ATTACHED OPTION
                                    3534     308.     *
 000418                             3535     309.     SHFILATT LABEL ,
 000418 91F8 C004      00004        3537     310.              IF    GPWSFER+GPWSFDT+GPWSFLK+GPWSFUNL+GPWSFFRO,UNREC
 00041C 4770 6166            011A2  3567             +
 000420 4110 0094            00094  3573     311.              SEG   'Attached Orvyl Files:'
 000424 4590 6210            0124C  3575             +
 000428 5890 624C/0D99       01288  3576     312.              VWRITE ,
 00042E 4770 6176            011B2  3581     313.              BNZ   FILEXIT                 QUIT IF ATTENTION
 000432 4120 0001            00001  3582     314.              LA    SR,1
 000436                             3583     315.              LOOP  BEGIN
 000436 41F0 0008/1812       00008  3589  1  316.                CLPSERV DEVSCAN,(SR),8        SCAN for file devices
 00043C 4100 0060/0AED       00060  3608  1          +
 000442 4770 7472            004AE  3610  1  317.                IF    NZ,EXIT                 All done
 000446 1821                        3624  1  318.                LR    SR,R1                   copy device id
 000448 18F2/4100 0002       00002  3625  1  319.                BTD   CLWTEMP,2,(SR)
 00044E 4110 A2E8            002E8  3644  1          +
 000452 58E0 6254/0DEE       01290  3647  1          +
 000458 4590 61F8            01234  3649  1  320.                SEG   (1),(0)
 00045C 4110 00AA            000AA  3663  1  321.                SEG   '  '
 000460 4590 6210            0124C  3665  1          +
 000464 18E2/41F0 002E       0002E  3666  1  322.                CLPSERV DEVINFO,WADEVFL,L'WADEVINF,(SR)
 00046A 4110 8029            00029  3685  1          +
 00046E 4100 0064/0AED       00064  3692  1          +
 000474 4110 802B            0002B  3694  1  323.                SEG   WADEVNM,L'GPWFN
 000478 4100 002C            0002C  3710  1          +
 00047C 4590 61F8            01234  3711  1          +
 000480 9180 8029      00029        3712  1  324.                IF    WADEVFL.X'80','SEG  "  Shared"'
 000484 47E0 7454            00490  3723  1          +
 000488 4110 00AD            000AD  3730  2          +
 00048C 4590 6210            0124C  3731  1          +
 000490 9140 8029      00029        3736  1  325.                IF    WADEVFL.X'40','SEG  "  Reserved"'
 000494 47E0 7464            004A0  3747  1          +
 000498 4110 00B6            000B6  3754  2          +
 00049C 4590 6210            0124C  3755  1          +
 0004A0 5890 624C/0D99       01288  3760  1  326.                VWRITE ,
 0004A6 4770 7472            004AE  3765  1  327.                IF    NZ,EXIT
 0004AA 47F0 73FA            00436  3779     328.              END   ,
 0004AE 47F0 6176            011B2  3784     329.              B     FILEXIT
1VFSH     (VFSH00) (09:47) (22MAR04) ORVYL'S FILE SYSTEM SHOW COMMANDS                                                      Page   31
0Current Usings:  (BASE+4096,R6) (BASE,R7) (WA,R8) (CLW,R10) (GPW,R12)
0Loc    Object Code    Addr1 Addr2  Stmt Lv Lineno    Source Statement           (Hibal 5, Asmedit 3.3)  HLASM R4.0  2004/03/22 09.47
+___    ______ ____    _____ _____  ____ __ ______    ______ _________
0                                   3786     331.     *  SHOW FILE SCAN EXITS
                                    3787     332.     *
 0004B2 9103 C004      00004        3788     333.     SHFERASE IF    GPWSFBLO+GPWSFFMT,NOCANDO
 0004B6 4770 61CC            01208  3804             +
 0004BA 9680 C004      00004        3810     334.              SET   GPWSFER                 SET ERASE
 0004BE 07FE                        3816     335.              SCRTN (15)
                                    3823     336.
 0004C0 9640 C004      00004        3824     337.     DATED    SET   GPWSFDT                 SET DATED
 0004C4 07FE                        3831     338.              SCRTN (15)
                                    3838     339.
 0004C6 9138 C004      00004        3839     340.     LIKE     IF    GPWSFLK+GPWSFUNL+GPWSFFRO,UNREC   ALREADY SET?
 0004CA 4770 6166            011A2  3859             +
 0004CE 9620 C004      00004        3865     341.              SET   GPWSFLK                 SET LIKE
 0004D2 47F0 74A6            004E2  3871     342.              B     LIKENAME                FIX UP AND CONTINUE SCAN
                                    3872     343.
 0004D6 9138 C004      00004        3873     344.     UNLIKE   IF    GPWSFLK+GPWSFUNL+GPWSFFRO,UNREC   ALREADY SET?
 0004DA 4770 6166            011A2  3893             +
 0004DE 9610 C004      00004        3899     345.              SET   GPWSFUNL                SET UNLIKE
 0004E2 4D90 61E8/0404       01224  3905     346.     LIKENAME FSCALL GETNAME                FIND MASK
 0004E8 47F0 716A            001A6  3909     347.              B     SHFILES                 CONTINUE SCAN
                                    3910     348.
 0004EC 9138 C004      00004        3911     349.     SHFILFRO IF    GPWSFLK+GPWSFUNL+GPWSFFRO,UNREC
 0004F0 4770 6166            011A2  3931             +
 0004F4 9608 C004      00004        3937     350.              SET   GPWSFFRO                SET FROM
 0004F8 47F0 74A6            004E2  3943     351.              B     LIKENAME
                                    3944     352.
 0004FC 9604 C004      00004        3945     353.     SHFATT   SET   GPWSFATT                'ATTACHED'
 000500 07FE                        3952     354.              SCRTN (15)
                                    3959     355.
 000502 9180 C004      00004        3960     356.     BLOCKS   IF    GPWSFER,NOCANDO
 000506 4710 61CC            01208  3973             +
 00050A 9602 C004      00004        3979     357.              SET   GPWSFBLO                BLOCKS
 00050E 07FE                        3985     358.              SCRTN (15)
                                    3992     359.
 000510 9180 C004      00004        3993     360.     FORMAT   IF    GPWSFER,NOCANDO
 000514 4710 61CC            01208  4006             +
 000518 9601 C004      00004        4012     361.              SET   GPWSFFMT                FORMAT
 00051C 07FE                        4018     362.              SCRTN (15)
                                    4025     363.
 00051E 9180 C004      00004        4026     364.     DTBLOFMT IF    GPWSFER,NOCANDO
 000522 4710 61CC            01208  4039             +
 000526 9643 C004      00004        4045     365.              SET   GPWSFDT+GPWSFBLO+GPWSFFMT     ALL
 00052A 07FE                        4058     366.              SCRTN (15)
                                    4065     367.
1VFSH     (VFSH00) (09:47) (22MAR04) ORVYL'S FILE SYSTEM SHOW COMMANDS                                                      Page   32
0Current Usings:  (BASE+4096,R6) (BASE,R7) (WA,R8) (CLW,R10) (GPW,R12)
0Loc    Object Code    Addr1 Addr2  Stmt Lv Lineno    Source Statement           (Hibal 5, Asmedit 3.3)  HLASM R4.0  2004/03/22 09.47
+___    ______ ____    _____ _____  ____ __ ______    ______ _________
0                                   4067     369.     *  SHOW FILE PRIVILEGES
                                    4068     370.     *
 00052C                             4069     371.     SHPERMIT LABEL ,
 00052C 4D90 7EB2            00EEE  4071     372.              LCALL CHECKFOR                CHECK ACCT OR FILENAME
 000530 47FF 74F8            00534  4073     373.              B     *+4(R15)                RETURN CODE IS IN 15
 000534 47F0 765C            00698  4074     374.              B     SHPERACO                0  ACCT OMITTED
 000538 47F0 7508            00544  4075     375.              B     SHPERFIL                4  FILE NAME SPECIFIED
 00053C 47F0 762E            0066A  4076     376.              B     SHPERACC                8  ACCT SPECIFIED
 000540 47F0 7642            0067E  4077     377.              B     SHPERACF                12 FOR SPECIFIED
                                    4078     378.
 000544 4D90 61E8/0404       01224  4079     379.     SHPERFIL FSCALL GETNAME                GET FILENAME
 00054A 5810 625C            01298  4083     380.              LSCAN FORTBL2,CLWKWCB         LOOK FOR OPTIONS
 00054E 41F0 A2C4            002C4  4097             +
 000552 58E0 6244/0DEE       01280  4100             +
 000558 4770 6144            01180  4102     381.              BNZ   SCRET                   NG
 00055C 47F0 7528            00564  4103     382.              B     SHPERFL2
 000560 4D90 7F30            00F6C  4104     383.     SHPERFFR LCALL FOR                     PROCESS FOR
 000564 4D90 61E8/1408       01224  4106     384.     SHPERFL2 FSCALL ASMBLNAM               PUT NAME TOGETHER
                                    4110     385.     * SHO PERMITS FOR A FILE
 00056A 9610 C001      00001        4111     386.              SET   GPWFNSF                 DO NOT SENSE USER INFO
 00056E 4D90 61E8/0014       01224  4117     387.              FSCALL ATTOLDX                GET FILE
 000574 4D90 61E8/0414       01224  4121     388.              FSCALL SEGNAME                FORMAT NAME
 00057A 4110 00C1            000C1  4125     389.              SEG   'File Permits:'
 00057E 4590 6210            0124C  4127             +
                                    4128     390.     *         LA    R1,=X'15'               INSERT CARRIAGE RETN
                                    4129     391.     *         SEG   (1),1
 000582 5890 624C/0D99       01288  4130     392.              VWRITE ,
 000588 4D90 61E8/0824       01224  4135     393.              FSCALL SENUPRV                GET PRIVILEGES
 00058E 183E                        4139     394.     DOSHP    LR    TR,14                   SAVE COUNT
 000590 1841                        4140     395.              LR    QR,1                    AND SOME PRIVS
 000592 9108 C003      00003        4141     396.              IF    GPWFPUB,DOSHPUB         JUST PUBLIC?
 000596 4710 75CE            0060A  4153             +
 00059A 1233                        4159     397.              LTR   TR,TR                   ANY MEMBERS?
 00059C 4780 761C            00658  4160     398.              BZ    SHPNOMEM                NO MEMBERS
 0005A0 5820 C038            00038  4161     399.              L     SR,GPWBUFA            POINT TO MEMBERS
 0005A4 9200 C005      00005        4162     400.              MVI   GPWPERM,0               INITIALIZE
 0005A8 9104 C003      00003        4163     401.     SHPLOOP  IF    ~GPWFACC,SHPGRP         GROUP SPECIFIED?
 0005AC 47E0 7596            005D2  4176             +
 0005B0 D501 C007 2000 00007 00000  4182     402.              CLC   GPWACCT(L'GG),@SR       IS IT SAME GROUP ACCOUNT
 0005B6 4720 75A8            005E4  4183     403.              BH    SHPNEXT                 NOT AT IT YET
 0005BA 4740 75B8            005F4  4184     404.              BL    SHPNONE                 DONE WITH GROUP
 0005BE D502 C00A 2003 0000A 00003  4185     405.              CLC   GPWACCT+L'GG+1(L'UUU),L'GG+1(SR)  TEST USER
 0005C4 4780 7596            005D2  4186     406.              BE    SHPGRP                  YES
 0005C8 D502 2003 62C3 00003 012FF  4187     407.              CLC   @SR+L'GG+1(L'UUU),=C'PUB'    GROUP LEVEL PERMIT
 0005CE 4770 75A8            005E4  4188     408.              BNE   SHPNEXT                 NO
 0005D2 D200 C005 2006 00005 00006  4189     409.     SHPGRP   MVC   GPWPERM(1),L'ACCT(SR)   SET PRIVS
 0005D8 1812                        4190     410.              LR    R1,SR                   POINT TO ACCOUNT
 0005DA 4D90 61E8/1400       01224  4191     411.              FSCALL TSEGACC                WRITE ACCT
 0005E0 4D90 6030            0106C  4195     412.              LCALL SEGAPRIV                DISPLAY
 0005E4 4120 2007            00007  4197     413.     SHPNEXT  LA    SR,@SR+7                TO NEXT
 0005E8 4630 756C            005A8  4198     414.              BCT   TR,SHPLOOP              CONTINUE
 0005EC 9104 C003      00003        4199     415.              IF    ~GPWFACC,DOSHPUB        ACCT SPECIFIED?
 0005F0 47E0 75CE            0060A  4211             +
 0005F4 9500 C005      00005        4217     416.     SHPNONE  CLI   GPWPERM,0               HAS AN ACCOUNT BEEN FOUND?
1VFSH     (VFSH00) (09:47) (22MAR04) ORVYL'S FILE SYSTEM SHOW COMMANDS                                                      Page   33
0Current Usings:  (BASE+4096,R6) (BASE,R7) (WA,R8) (CLW,R10) (GPW,R12)
0Loc    Object Code    Addr1 Addr2  Stmt Lv Lineno    Source Statement           (Hibal 5, Asmedit 3.3)  HLASM R4.0  2004/03/22 09.47
+___    ______ ____    _____ _____  ____ __ ______    ______ _________
00005F8 4770 75CE            0060A  4218     417.              BNE   DOSHPUB                 YES
 0005FC 4110 C007            00007  4219     418.              LA    R1,GPWACCT               WRITE ACCT WITH NONE
 000600 4D90 61E8/1400       01224  4220     419.              FSCALL TSEGACC
 000606 4D90 6030            0106C  4224     420.              LCALL SEGAPRIV
                                    4226     421.
 00060A 1824                        4227     422.     DOSHPUB  LR    SR,QR                   SAVE FILEMASK
 00060C 8840 0008            00008  4228     423.              SRL   QR,8                    SHIFT PAST FILEMASK
 000610 4240 C005            00005  4229     424.              STC   QR,GPWPERM              STORE MASK IN GPWPERM
 000614 9108 C003      00003        4230     425.              IF    GPWFPUB,SHPPUBLC        PUB SPECIFIED?
 000618 4710 75E8            00624  4242             +
 00061C 9500 C005      00005        4248     426.              CLI   GPWPERM,0               NO PUBLIC PERMIT?
 000620 4780 75F4            00630  4249     427.              BE    SHPFLMSK                YES - TRY FILEMASK
 000624 4110 00CF            000CF  4250     428.     SHPPUBLC SEG   'Public- '
 000628 4590 6210            0124C  4252             +
 00062C 4D90 6044            01080  4253     429.              LCALL SEGPRIV                 PRINT PUBLIC PERMITS
 000630 9120 8028      00028        4255     430.     SHPFLMSK IF    WAFSPA,FILEXIT          IS THIS SHO PER ACCT?
 000634 4710 6176            011B2  4268             +
 000638 4220 C005            00005  4274     431.              STC   SR,GPWPERM              PUT FILEMASK IN
 00063C 94F7 C005      00005        4275     432.              CLEAR GPWPRMEX                NO EXTEND BIT
 000640 9107 C005      00005        4282     433.              IF    GPWPRMWR,FILEXIT        RELEVANT?
 000644 4710 6176            011B2  4294             +
 000648 4110 00D8            000D8  4300     434.              SEG   'Filemask allows '
 00064C 4590 6210            0124C  4302             +
 000650 4D90 6044            01080  4303     435.              LCALL SEGPRIV                 DO FILEMASK
 000654 47F0 6176            011B2  4305     436.              B     FILEXIT
                                    4306     437.
 000658 4820 62A8            012E4  4307     438.     SHPNOMEM LH    SR,=XL2'FFF7'           MASK OFF EXTEND BIT
 00065C 1424                        4308     439.              NR    SR,QR                     FROM FILEMASK
 00065E 4920 62AA            012E6  4309     440.              CH    SR,=XL2'0007'           ANYTHING INTERESTING?
 000662 4770 75CE            0060A  4310     441.              BNE   DOSHPUB                 YES
 000666 47F0 6122            0115E  4311     442.              B     NOMEM                   NO
1VFSH     (VFSH00) (09:47) (22MAR04) ORVYL'S FILE SYSTEM SHOW COMMANDS                                                      Page   34
0Current Usings:  (BASE+4096,R6) (BASE,R7) (WA,R8) (CLW,R10) (GPW,R12)
0Loc    Object Code    Addr1 Addr2  Stmt Lv Lineno    Source Statement           (Hibal 5, Asmedit 3.3)  HLASM R4.0  2004/03/22 09.47
+___    ______ ____    _____ _____  ____ __ ______    ______ _________
0                                   4313     444.     * SHO PERMITS FOR ACCOUNT
                                    4314     445.     *
 00066A 4D90 61E8/1418       01224  4315     446.     SHPERACC FSCALL FORGROUP                GET ACCT
 000670 D205 C00D C007 0000D 00007  4319     447.              MVC   GPWAACCT,GPWACCT        MOVE ACCT INTO ALT
 000676 94FB C003      00003        4320     448.              CLEAR GPWFACC                 AND UNSET BIT
 00067A 9602 C003      00003        4327     449.              SET   GPWFAACC                SETTING RIGHT ONE
                                    4333     450.
 00067E 5810 6260            0129C  4334     451.     SHPERACF LSCAN FORTBL3,CLWKWCB         LOOK FOR 'FOR'
 000682 41F0 A2C4            002C4  4348             +
 000686 58E0 6244/0DEE       01280  4351             +
 00068C 4770 6144            01180  4353     452.              BNZ   SCRET                   ERROR IN SCAN
 000690 47F0 765C            00698  4354     453.              B     SHPERACO
 000694 4D90 7F30            00F6C  4355     454.     SHPERACN LCALL FOR                     PROCESS FOR
                                    4357     455.
 000698 9102 C003      00003        4358     456.     SHPERACO IF    GPWFAACC,BEGIN          ACCT GIVEN
 00069C 47E0 766E            006AA  4369             +
 0006A0 4110 C00D            0000D  4374  1  457.                LA    R1,GPWAACCT             PRINT SPECIFIED ACCT
 0006A4 4D90 61E8/1404       01224  4375  1  458.                FSCALL SEGACCT
 0006AA 7672           006AA 0069E  4379     459.              END   ELSE,'SEG  CLWACCT,L"CLWACCT'    PRINT CALLER ACCT
 0006AA 47F0 767E            006BA  4388             +
 0006AE 4110 A3B0            003B0  4404  1          +
 0006B2 4100 0006            00006  4411  1          +
 0006B6 4590 61F8            01234  4412             +
 0006BA 4110 00E9            000E9  4417     460.              SEG   ' Account permits:'
 0006BE 4590 6210            0124C  4419             +
                                    4420     461.     *         LA    R1,=X'15'
                                    4421     462.     *         SEG   (1),1
 0006C2 5890 624C/0D99       01288  4422     463.              VWRITE ,
 0006C8 4D90 61E8/088C       01224  4427     464.              FSCALL SENMEM                 GET MEMBERS
 0006CE 9620 8028      00028        4431     465.              SET   WAFSPA                  SET SHO PER ACCT BIT
 0006D2 12EE/4770 7552       0058E  4437     466.              IF    (R14,NZ),DOSHP          MEMBER - GO AHEAD
 0006D8 1211/4770 7552       0058E  4454     467.              IF    (R1,NZ),DOSHP           PUBLIC - GO AHEAD
 0006DE 47F0 6122            0115E  4471     468.              B     NOMEM                   NO PRIVS TO SHOW
                                    4472     469.
1VFSH     (VFSH00) (09:47) (22MAR04) ORVYL'S FILE SYSTEM SHOW COMMANDS                                                      Page   35
0Current Usings:  (BASE+4096,R6) (BASE,R7) (WA,R8) (CLW,R10) (GPW,R12)
0Loc    Object Code    Addr1 Addr2  Stmt Lv Lineno    Source Statement           (Hibal 5, Asmedit 3.3)  HLASM R4.0  2004/03/22 09.47
+___    ______ ____    _____ _____  ____ __ ______    ______ _________
0                                   4474     471.     *
                                    4475     472.     *  SHOW ACCESS FILE <FILENAME>
 0006E2                             4476     473.     SHACCESS LABEL ,
                                    4478     474.     * SHOW ACC COULD BE SHOW ACCOUNT OR SHOW ACCESS
 0006E2 D503 A2C8 6264 002C8 012A0  4479     475.              CLC   CLWKWKW(4),=C'ACC '     JUST ACC?
 0006E8 4770 76B4            006F0  4480     476.              BNE   SHACCGO
 0006EC 9604 C003      00003        4481     477.              SET   GPWFACC                 INDICATE POSSIBLY ACCOUNT
                                    4487     478.
 0006F0 4D90 7EB2            00EEE  4488     479.     SHACCGO  LCALL CHECKFOR                CHECK ACCT OR FILENAME
 0006F4 47FF 76BC            006F8  4490     480.              B     *+4(15)                 RETURN CODE IN 15
 0006F8 47F0 77D0            0080C  4491     481.              B     CKSHACCT                0  NEITHER
 0006FC 47F0 76CC            00708  4492     482.              B     SHACCFIL                4  FILENAME
 000700 47F0 7748            00784  4493     483.              B     SHACCACC                8  ACCOUNT
 000704 47F0 76CC            00708  4494     484.              B     SHACCFIL                12 FOR MUST BE FILE
                                    4495     485.
 000708 4D90 61E8/0404       01224  4496     486.     SHACCFIL FSCALL GETNAME                GET FILENAME
 00070E 5810 6240            0127C  4500     487.              LSCAN USRGPTBL,CLWKWCB        GET USER AND GROUP
 000712 41F0 A2C4            002C4  4514             +
 000716 58E0 6244/0DEE       01280  4517             +
 00071C 4D90 61E8/1408       01224  4519     488.              FSCALL ASMBLNAM               PUT IT TOGETHER
 000722 9500 C08E      0008E        4523     489.              CLI   GPWFNL,0                FILE NAME SPECIFIED?
 000726 4780 615A            01196  4524     490.              BE    MISSING                 NO
 00072A 9610 C001      00001        4525     491.              SET   GPWFNSF                 DO NOT SENSE USER INFO
 00072E 4D90 61E8/0014       01224  4531     492.              FSCALL ATTOLDX                GET FILE
 000734 4D90 61E8/0414       01224  4535     493.              FSCALL SEGNAME
 00073A 4110 00FB            000FB  4539     494.              SEG   'Access: '
 00073E 4590 6210            0124C  4541             +
 000742 1FEE/43E0 C08D       0008D  4542     495.              CLPSERV DEVINFO,WADEVINF,L'WADEVINF,LC:GPWFID
 000748 41F0 002E            0002E  4559             +
 00074C 4110 8029            00029  4566             +
 000750 4100 0064/0AED       00064  4573             +
 000756 D502 8032 A3B3 00032 003B3  4575     496.              CLC   WADEVNM+4+L'GG+1(L'UUU),CLWUSER      OWN UUU?
 00075C 4770 7736            00772  4576     497.              BNE   SHACNOWN                NO
 000760 D501 802F A3B0 0002F 003B0  4577     498.              CLC   WADEVNM+4(L'GG),CLWGROUP             OWN GG?
 000766 4770 7736            00772  4578     499.              BNE   SHACNOWN                NO
 00076A 4110 0104            00104  4579     500.              SEG   'Owner- '
 00076E 4590 6210            0124C  4581             +
 000772 D200 C005 802A 00005 0002A  4582     501.     SHACNOWN MVC   GPWPERM(1),WADEVPR      FETCH PRIVELEGES
 000778 94F7 C005      00005        4583     502.              CLEAR GPWPRMEX                DON'T LIST EXTEND
 00077C 4D90 6044            01080  4590     503.              LCALL SEGPRIV                 WRITE PERMITS
 000780 47F0 6176            011B2  4592     504.              B     FILEXIT
                                    4593     505.
 000784 4D90 61E8/1418       01224  4594     506.     SHACCACC FSCALL FORGROUP                GET ACCT
 00078A D502 A3B3 C00A 003B3 0000A  4598     507.              CLC   CLWUSER(L'UUU),GPWACCT+L'GG+1   CHECK FOR
 000790 4770 7762            0079E  4599     508.              BNE   SHACCDIF                NO - OK
 000794 D501 A3B0 C007 003B0 00007  4600     509.              CLC   CLWGROUP(L'GG),GPWACCT          OWN ACCT
 00079A 4780 612E            0116A  4601     510.              BE    ACCTINC                 YES - ACCT INCONSISTENT
 00079E D205 C00D C007 0000D 00007  4602     511.     SHACCDIF MVC   GPWAACCT,GPWACCT        MOVE ACCT FOR SENSE
 0007A4 9602 C003      00003        4603     512.              SET   GPWFAACC                SET BIT APPROPRIATELY
 0007A8 4D90 61E8/088C       01224  4609     513.              FSCALL SENMEM                 GET MEMBERS
 0007AE 12EE                        4613     514.              LTR   R14,14                  ANY MEMBERS?
 0007B0 4780 77A8            007E4  4614     515.              BZ    SHACNFND                NOPE
 0007B4 5820 C038            00038  4615     516.              L     SR,GPWBUFA              SET UP FOR LOOP
 0007B8 D201 C007 A3B0 00007 003B0  4616     517.              MVC   GPWACCT(L'GG),CLWGROUP   ASSEMBLE ACCT
1VFSH     (VFSH00) (09:47) (22MAR04) ORVYL'S FILE SYSTEM SHOW COMMANDS                                                      Page   36
0Current Usings:  (BASE+4096,R6) (BASE,R7) (WA,R8) (CLW,R10) (GPW,R12)
0Loc    Object Code    Addr1 Addr2  Stmt Lv Lineno    Source Statement           (Hibal 5, Asmedit 3.3)  HLASM R4.0  2004/03/22 09.47
+___    ______ ____    _____ _____  ____ __ ______    ______ _________
00007BE 924B C009      00009        4617     518.              MVI   GPWACCT+L'GG,C'.'
 0007C2 D202 C00A A3B3 0000A 003B3  4618     519.              MVC   GPWACCT+L'GG+1(L'UUU),CLWUSER
 0007C8 D505 C007 2000 00007 00000  4619     520.     SHACACLP CLC   GPWACCT,@SR             ACCT MATCH?
 0007CE 4780 77A2            007DE  4620     521.              BE    SHACCFND                YES
 0007D2 4120 2007            00007  4621     522.              LA    SR,L'ACCT+@SR+1         BUMP POINTER
 0007D6 46E0 778C            007C8  4622     523.              BCT   R14,SHACACLP            AND DO REST
 0007DA 47F0 77A8            007E4  4623     524.              B     SHACNFND                DIDN'T FIND ACCT
 0007DE D200 C005 2006 00005 00006  4624     525.     SHACCFND MVC   GPWPERM(1),@SR+L'ACCT   GET PRIVS
 0007E4 4300 C005            00005  4625     526.     SHACNFND IC    0,GPWPERM               GET PERMITS FOR OR
 0007E8 1610                        4626     527.              OR    R1,R0                   OR WITH PUBLIC PERMITS
 0007EA 4210 C005            00005  4627     528.              STC   R1,GPWPERM              STORE
 0007EE 94F7 C005      00005        4628     529.              CLEAR GPWPRMEX                NO EXTEND
 0007F2 4110 C00D            0000D  4635     530.              LA    R1,GPWAACCT
 0007F6 4D90 61E8/1404       01224  4636     531.              FSCALL SEGACCT                PRINT ACCT
 0007FC 4110 010C            0010C  4640     532.              SEG   ' access:'
 000800 4590 6210            0124C  4642             +
 000804 4D90 6044            01080  4643     533.              LCALL SEGPRIV
 000808 47F0 6176            011B2  4645     534.              B     FILEXIT
                                    4646     535.
 00080C 9104 C003      00003        4647     536.     CKSHACCT IF    GPWFACC,'FSCALL MILWYL'       YES, SEND TO MILTEN
 000810 47E0 77DE            0081A  4658             +
 000814 4D90 61E8/0894       01224  4666             +
 00081A 47F0 615A            01196  4672     537.              B     MISSING                 NO, MISSING ACCOUNT OR FILE NAME
1VFSH     (VFSH00) (09:47) (22MAR04) ORVYL'S FILE SYSTEM SHOW COMMANDS                                                      Page   37
0Current Usings:  (BASE+4096,R6) (BASE,R7) (WA,R8) (CLW,R10) (GPW,R12)
0Loc    Object Code    Addr1 Addr2  Stmt Lv Lineno    Source Statement           (Hibal 5, Asmedit 3.3)  HLASM R4.0  2004/03/22 09.47
+___    ______ ____    _____ _____  ____ __ ______    ______ _________
0                                   4674     539.     *  SHOW ATTACHABILITY STATUS
                                    4675     540.     *
 00081E                             4676     541.     SHSHARE  LABEL ,
 00081E 4D90 61E8/0404       01224  4678     542.              FSCALL GETNAME                GET FILE NAME
 000824 5810 6240            0127C  4682     543.              LSCAN USRGPTBL,CLWKWCB
 000828 41F0 A2C4            002C4  4696             +
 00082C 58E0 6244/0DEE       01280  4699             +
 000832 4D90 61E8/1408       01224  4701     544.              FSCALL ASMBLNAM               PUT NAME TOGETHER
 000838 9610 C001      00001        4705     545.              SET   GPWFNSF                 DO NOT SENSE USER INFO
 00083C 4D90 61E8/0014       01224  4711     546.              FSCALL ATTOLDX                GET FILE
 000842 4D90 61E8/0414       01224  4715     547.              FSCALL SEGNAME                PUT FILE NAME
 000848 4110 0115            00115  4719     548.              SEG   'attachable '
 00084C 4590 6210            0124C  4721             +
 000850 4D90 61E8/082C       01224  4722     549.              FSCALL SENSHR                 GET STATUS
 000856 4770 7826            00862  4726     550.              IF    Z,'SEG  "normally"'
 00085A 4110 0121            00121  4739  1          +
 00085E 4590 6210            0124C  4740             +
 000862 782A           00862 00858  4745     551.              ELSE  'SEG  "share only"'
 000862 47F0 7832            0086E  4750             +
 000866 4110 012A            0012A  4758  1          +
 00086A 4590 6210            0124C  4759             +
 00086E 47F0 6180            011BC  4764     552.              B     WRITEXIT
1VFSH     (VFSH00) (09:47) (22MAR04) ORVYL'S FILE SYSTEM SHOW COMMANDS                                                      Page   38
0Current Usings:  (BASE+4096,R6) (BASE,R7) (WA,R8) (CLW,R10) (GPW,R12)
0Loc    Object Code    Addr1 Addr2  Stmt Lv Lineno    Source Statement           (Hibal 5, Asmedit 3.3)  HLASM R4.0  2004/03/22 09.47
+___    ______ ____    _____ _____  ____ __ ______    ______ _________
0                                   4766     554.     *  SHOW SPACE ALLOCATION
                                    4767     555.     *
 000872                             4768     556.     SHBLOCKS LABEL ,
 000872 4D90 7EB2            00EEE  4770     557.              LCALL CHECKFOR                CHECK ACCT OR FILENAME
 000876 47FF 783E            0087A  4772     558.              B     *+4(R15)                RETURN CODE IN 15
 00087A 47F0 787A            008B6  4773     559.              B     SHBLKNAC                0  NO ACCT
 00087E 47F0 78E4            00920  4774     560.              B     SHBLOCKF                4  FILENAME
 000882 47F0 7874            008B0  4775     561.              B     SHBLKACC                8  ACCT
                                    4776     562.     *        PROCESS FOR                   12 'FOR' FOUND
                                    4777     563.     *
 000886 5810 6268            012A4  4778     564.              LSCAN FORTBL5,CLWKWCB         LOOK FOR "FOR"
 00088A 41F0 A2C4            002C4  4792             +
 00088E 58E0 6244/0DEE       01280  4795             +
 000894 47F0 6144            01180  4797     565.              B     SCRET                   ERROR IN SCAN
 000898 4D90 7F30            00F6C  4798     566.     SHBLKACN LCALL FOR                     PROCESS FOR
 00089C 9108 C003      00003        4800     567.              IF    ~GPWFPUB,SHBLKNAC       PUBLIC?
 0008A0 47E0 787A            008B6  4812             +
 0008A4 4110 62AC            012E8  4818     568.              SETMSG 'PUBLIC'               ERROR
 0008A8 4100 0006            00006  4821             +
 0008AC 47F0 6166            011A2  4822     569.              B     UNREC
                                    4823     570.
 0008B0 4D90 61E8/1418       01224  4824     571.     SHBLKACC FSCALL FORGROUP                GET ACCT
 0008B6 4D90 61E8/0890       01224  4828     572.     SHBLKNAC FSCALL SENSP                  SENSE SPACE
 0008BC 182E                        4832     573.              LR    SR,14                   SAVE SPACE USED
 0008BE 1831                        4833     574.              LR    TR,1                    SAVE BLOCKS ALLOCATED
 0008C0 9104 C003      00003        4834     575.              IF    GPWFACC,BEGIN           GROUP SPECIFIED?
 0008C4 47E0 789E            008DA  4844             +
 0008C8 4110 C007            00007  4849  1  576.                LA    R1,GPWACCT              POINT TO ACCOUNT
 0008CC 4D90 61E8/1404       01224  4850  1  577.                FSCALL SEGACCT                WRITE USER'S ACCOUNT
 0008D2 4110 0135            00135  4854  1  578.                SEG   ' - '
 0008D6 4590 6210            0124C  4856  1          +
 0008DA                             4857     579.              END   ,
 0008DA 18F2/1B00                   4861     580.              BTD   CLWTEMP,0,(SR)          CONVERT USED BLOCKS
 0008DE 4110 A2E8            002E8  4877             +
 0008E2 58E0 6254/0DEE       01290  4880             +
 0008E8 4590 61F8            01234  4882     581.              SEG   (1),(0)
 0008EC 4110 0139            00139  4896     582.              SEG   ' Blocks accounted'
 0008F0 4590 6210            0124C  4898             +
 0008F4 1233                        4899     583.              LTR   TR,TR                   ANY MAXIMUM?
 0008F6 4740 6180            011BC  4900     584.              BM    WRITEXIT                DONE IF NOT
 0008FA 4110 014B            0014B  4901     585.              SEG   ', '
 0008FE 4590 6210            0124C  4903             +
 000902 18F3/1B00                   4904     586.              BTD   CLWTEMP,0,(TR)          CONVERT ALLOCATION
 000906 4110 A2E8            002E8  4920             +
 00090A 58E0 6254/0DEE       01290  4923             +
 000910 4590 61F8            01234  4925     587.              SEG   (1),(0)
 000914 4110 014E            0014E  4939     588.              SEG   ' blocks allowed'
 000918 4590 6210            0124C  4941             +
 00091C 47F0 6180            011BC  4942     589.              B     WRITEXIT
1VFSH     (VFSH00) (09:47) (22MAR04) ORVYL'S FILE SYSTEM SHOW COMMANDS                                                      Page   39
0Current Usings:  (BASE+4096,R6) (BASE,R7) (WA,R8) (CLW,R10) (GPW,R12)
0Loc    Object Code    Addr1 Addr2  Stmt Lv Lineno    Source Statement           (Hibal 5, Asmedit 3.3)  HLASM R4.0  2004/03/22 09.47
+___    ______ ____    _____ _____  ____ __ ______    ______ _________
0                                   4944     591.     *  SHOW SPACE ALLOCATION FOR FILE
                                    4945     592.     *
 000920                             4946     593.     SHBLOCKF LABEL ,
 000920 4D90 61E8/0404       01224  4948     594.              FSCALL GETNAME                GET FILENAME
 000926 5810 6240            0127C  4952     595.              LSCAN USRGPTBL,CLWKWCB        CHECK FOR USER OR GROUP
 00092A 41F0 A2C4            002C4  4966             +
 00092E 58E0 6244/0DEE       01280  4969             +
 000934 4770 6144            01180  4971     596.              BNZ   SCRET                   SCAN ERROR
 000938 4D90 61E8/1408       01224  4972     597.              FSCALL ASMBLNAM               PUT NAME TOGETHER
 00093E 9610 C001      00001        4976     598.              SET   GPWFNSF                 DO NOT SENSE USER INFO
 000942 4D90 61E8/0014       01224  4982     599.              FSCALL ATTOLDX                GET FILE
 000948 4D90 61E8/0414       01224  4986     600.              FSCALL SEGNAME
 00094E 4190 6180            011BC  4990     601.              LA    RAR,WRITEXIT            AFTER MESSAGE GENERATED
                                    4991     602.
 000952 5090 D000            00000  4992     603.     SEGBLKS  VPUSH RAR,,*                  SAVE RETURN
 000956 41D0 D004            00004  4994             +
 00095A 4D90 61E8/0818       01224  4995     604.              FSCALL SENNREC                FIND NUMBER OF BLOCKS
 000960 1221                        4999     605.              LTR   SR,1                    ANY BLOCKS?
 000962 4780 79BA            009F6  5000     606.              BZ    EMPTY                   NO
 000966 4110 015E            0015E  5001     607.              SEG   '-- '                   PRETTY
 00096A 4590 6210            0124C  5003             +
 00096E 18F2/1B00                   5004     608.              BTD   CLWTEMP,0,(SR)          CONVERT TOTAL
 000972 4110 A2E8            002E8  5020             +
 000976 58E0 6254/0DEE       01290  5023             +
 00097C 4590 61F8            01234  5025     609.              SEG   (1),(0)
 000980 4110 0162            00162  5039     610.              SEG   ' Blks ('               MESSAGE
 000984 4590 6210            0124C  5041             +
 000988 9110 C002      00002        5042     611.              IF    (GPWFNIXR,AND,~GPWFHYBR),'SEG  "Non-IXR"'
 00098C 47E0 7964            009A0  5054             +
 000990 9108 C002      00002        5065             +
 000994 4710 7964            009A0  5066             +
 000998 4110 016A            0016A  5073  1          +
 00099C 4590 6210            0124C  5074             +
 0009A0 7968           009A0 0098E  5079     612.              ELSE  BEGIN
 000996 7968           00998 009A0  5084             +
 0009A0 47F0 79A8            009E4  5086             +
 0009A4 4110 0172            00172  5092  1  613.                SEG   'F: '                   DO FIRST AND LAST
 0009A8 4590 6210            0124C  5094  1          +
 0009AC 4D90 61E8/0810       01224  5095  1  614.                FSCALL SENFREC                GET FIRST
 0009B2 18F1/1B00                   5099  1  615.                BTD   CLWTEMP,0,(1)           FORMAT IT
 0009B6 4110 A2E8            002E8  5116  1          +
 0009BA 58E0 6254/0DEE       01290  5119  1          +
 0009C0 4590 61F8            01234  5121  1  616.                SEG   (1),(0)
 0009C4 4110 0176            00176  5135  1  617.                SEG   ', L: '
 0009C8 4590 6210            0124C  5137  1          +
 0009CC 4D90 61E8/0814       01224  5138  1  618.                FSCALL SENLREC                GET LAST
 0009D2 18F1/1B00                   5142  1  619.                BTD   CLWTEMP,0,(1)           FORMAT IT
 0009D6 4110 A2E8            002E8  5159  1          +
 0009DA 58E0 6254/0DEE       01290  5162  1          +
 0009E0 4590 61F8            01234  5164  1  620.                SEG   (1),(0)
 0009E4                             5178     621.              END   ,
 0009E4 4110 0076            00076  5182     622.              SEG   ') '
 0009E8 4590 6210            0124C  5184             +
 0009EC                             5185     623.     SEGBLKSE LABEL ,                       AND SEG IT
1VFSH     (VFSH00) (09:47) (22MAR04) ORVYL'S FILE SYSTEM SHOW COMMANDS                                                      Page   40
0Current Usings:  (BASE+4096,R6) (BASE,R7) (WA,R8) (CLW,R10) (GPW,R12)
0Loc    Object Code    Addr1 Addr2  Stmt Lv Lineno    Source Statement           (Hibal 5, Asmedit 3.3)  HLASM R4.0  2004/03/22 09.47
+___    ______ ____    _____ _____  ____ __ ______    ______ _________
00009EC 4BD0 62A4            012E0  5187     624.              VPOP  RAR,,*                  RESTORE RETURN
 0009F0 5890 D000            00000  5189             +
 0009F4 07F9                        5190     625.              BR    RAR
                                    5191     626.
 0009F6 4110 017C            0017C  5192     627.     EMPTY    SEG   '-- No contents '
 0009FA 4590 6210            0124C  5194             +
 0009FE 47F0 79B0            009EC  5195     628.              B     SEGBLKSE
1VFSH     (VFSH00) (09:47) (22MAR04) ORVYL'S FILE SYSTEM SHOW COMMANDS                                                      Page   41
0Current Usings:  (BASE+4096,R6) (BASE,R7) (WA,R8) (CLW,R10) (GPW,R12)
0Loc    Object Code    Addr1 Addr2  Stmt Lv Lineno    Source Statement           (Hibal 5, Asmedit 3.3)  HLASM R4.0  2004/03/22 09.47
+___    ______ ____    _____ _____  ____ __ ______    ______ _________
0                                   5197     630.     * SHOW FILE FORMAT
                                    5198     631.     *
 000A02                             5199     632.     SHFORMAT LABEL ,
 000A02 4D90 61E8/0404       01224  5201     633.              FSCALL GETNAME
 000A08 5810 6240            0127C  5205     634.              LSCAN USRGPTBL,CLWKWCB
 000A0C 41F0 A2C4            002C4  5219             +
 000A10 58E0 6244/0DEE       01280  5222             +
 000A16 4D90 61E8/1408       01224  5224     635.              FSCALL ASMBLNAM
 000A1C 4D90 61E8/0014       01224  5228     636.              FSCALL ATTOLDX
 000A22 4D90 61E8/0414       01224  5232     637.              FSCALL SEGNAME
 000A28 4190 6180            011BC  5236     638.              LA    RAR,WRITEXIT            AFTER MESSAGE SET
                                    5237     639.
 000A2C 5090 D000            00000  5238     640.     SEGFMT   VPUSH RAR,,*
 000A30 41D0 D004            00004  5240             +
 000A34 4110 015E            0015E  5241     641.              SEG   '-- '
 000A38 4590 6210            0124C  5243             +
 000A3C 4D90 61E8/0834       01224  5244     642.              FSCALL SENUINFO
 000A42 4770 7B0E            00B4A  5248     643.              BNZ   FMTUINF                 IF NOT FMT, GIVE IT IN HEX
 000A46 917F C0B8      000B8        5249     644.              IF    (GPWUIMSK,Z),FMTUSER    ANY FORMATS SET?
 000A4A 4780 7B1C            00B58  5263             +
 000A4E 91C0 C0B8      000B8        5269     645.              IF    GPWUILIB*GPWUILDF,FMTLDFIL    LOADFILE?
 000A52 4710 7B02            00B3E  5284             +
 000A56 4780 7A26            00A62  5290     646.              IF    NZ,'SEG  "Library, "'
 000A5A 4110 018C            0018C  5303  1          +
 000A5E 4590 6210            0124C  5304             +
 000A62 9104 C0B8      000B8        5309     647.              IF    GPWUIFLR,FMTLRECL       LRECL?
 000A66 4710 7A5E            00A9A  5321             +
 000A6A 9101 C0B8      000B8        5327     648.              IF    GPWUIFE,FMTEDIT         EDIT?
 000A6E 4710 7ADE            00B1A  5339             +
 000A72 9102 C0B8      000B8        5345     649.              IF    GPWUIFV,FMTSEGV         VARIABLE?
 000A76 4710 7AEA            00B26  5357             +
 000A7A 9110 C0B8      000B8        5363     650.              IF    GPWUIUND,FMTUND         UNDEFINED?
 000A7E 4710 7A52            00A8E  5375             +
 000A82 4110 0196            00196  5381     651.              SEG   'VBS'                   ASSUME VBS
 000A86 4590 6210            0124C  5383             +
 000A8A 47F0 7A7A            00AB6  5384     652.              B     FMTSEGL                 ADD LRECL
                                    5385     653.
 000A8E 4110 019A            0019A  5386     654.     FMTUND   SEG   'Undefined'
 000A92 4590 6210            0124C  5388             +
 000A96 47F0 7A7A            00AB6  5389     655.              B     FMTSEGL
                                    5390     656.
 000A9A                             5391     657.     FMTLRECL LABEL ,
 000A9A 48F0 C0BA            000BA  5393     658.              LH    R15,GPWUILRC            GET LRECL
 000A9E 49F0 62B2            012EE  5394     659.              CH    R15,=Y(80)              RIGHT LRECL FOR CARD?
 000AA2 4780 7AAA            00AE6  5395     660.              BE    FMTCARD                 BRANCH IF SO
 000AA6 49F0 62B4            012F0  5396     661.              CH    R15,=Y(133)             HOW ABOUT PRINT?
 000AAA 4780 7AF6            00B32  5397     662.              BE    FMTPRINT                LOOKS LIKE IT
 000AAE 4110 01A4            001A4  5398     663.              SEG   'Fixed'
 000AB2 4590 6210            0124C  5400             +
 000AB6 9120 C0B8      000B8        5401     664.     FMTSEGL  IF    ~GPWUIDA,FMTLNDA        DIRECT ACCESS?
 000ABA 47E0 7A8A            00AC6  5414             +
 000ABE 4110 01AA            001AA  5420     665.              SEG   '(DA)'
 000AC2 4590 6210            0124C  5422             +
 000AC6 4110 01AF            001AF  5423     666.     FMTLNDA  SEG   '/'
1VFSH     (VFSH00) (09:47) (22MAR04) ORVYL'S FILE SYSTEM SHOW COMMANDS                                                      Page   42
0Current Usings:  (BASE+4096,R6) (BASE,R7) (WA,R8) (CLW,R10) (GPW,R12)
0Loc    Object Code    Addr1 Addr2  Stmt Lv Lineno    Source Statement           (Hibal 5, Asmedit 3.3)  HLASM R4.0  2004/03/22 09.47
+___    ______ ____    _____ _____  ____ __ ______    ______ _________
0000ACA 4590 6210            0124C  5425             +
 000ACE 48F0 C0BA/1B00       000BA  5426     667.              BTD   CLWTEMP,0,LH:GPWUILRC   CONVERT LRECL
 000AD4 4110 A2E8            002E8  5441             +
 000AD8 58E0 6254/0DEE       01290  5444             +
 000ADE 4590 61F8            01234  5446     668.              SEG   (1),(0)
 000AE2 47F0 7B3A            00B76  5460     669.              B     FMTSEGE
                                    5461     670.
 000AE6 4110 01B1            001B1  5462     671.     FMTCARD  SEG   'Card'
 000AEA 4590 6210            0124C  5464             +
 000AEE 9103 C0B8      000B8        5465     672.              IF    (GPWUIFN+GPWUIFI,NZ),FMTLRENI   INTEGER OR NUMBERED?
 000AF2 4770 7ABE            00AFA  5482             +
 000AF6 47F0 7B3A            00B76  5488     673.              B     FMTSEGE
                                    5489     674.
 000AFA                             5490     675.     FMTLRENI LABEL ,
 000AFA 9101 C0B8      000B8        5492     676.              IF    GPWUIFN,'SEG  ", Numbered"'      NUMBERED
 000AFE 47E0 7ACE            00B0A  5502             +
 000B02 4110 01B6            001B6  5509  1          +
 000B06 4590 6210            0124C  5510             +
 000B0A 7AD2           00B0A 00B00  5515     677.              ELSE  'SEG  ", Integer"'     INTEGER
 000B0A 47F0 7ADA            00B16  5520             +
 000B0E 4110 01C1            001C1  5528  1          +
 000B12 4590 6210            0124C  5529             +
 000B16 47F0 7B3A            00B76  5534     678.              B     FMTSEGE
                                    5535     679.
 000B1A 4110 01CB            001CB  5536     680.     FMTEDIT  SEG   'Edit'
 000B1E 4590 6210            0124C  5538             +
 000B22 47F0 7B3A            00B76  5539     681.              B     FMTSEGE                 DONE
                                    5540     682.
 000B26 4110 01D0            001D0  5541     683.     FMTSEGV  SEG   'Variable'
 000B2A 4590 6210            0124C  5543             +
 000B2E 47F0 7B3A            00B76  5544     684.              B     FMTSEGE
                                    5545     685.
 000B32 4110 01D9            001D9  5546     686.     FMTPRINT SEG   'Print'
 000B36 4590 6210            0124C  5548             +
 000B3A 47F0 7B3A            00B76  5549     687.              B     FMTSEGE
                                    5550     688.
 000B3E 4110 01DF            001DF  5551     689.     FMTLDFIL SEG   'Loadfile'
 000B42 4590 6210            0124C  5553             +
 000B46 47F0 7B3A            00B76  5554     690.              B     FMTSEGE
                                    5555     691.
 000B4A 1821                        5556     692.     FMTUINF  LR   SR,R1                    SAVE FORMAT
 000B4C 4110 01E8            001E8  5557     693.              SEG   'User info: '
 000B50 4590 6210            0124C  5559             +
 000B54 47F0 7B26            00B62  5560     694.              B     FMTSHEX
                                    5561     695.
 000B58 1821                        5562     696.     FMTUSER  LR   SR,R1
 000B5A 4110 01F4            001F4  5563     697.              SEG   'User format: '
 000B5E 4590 6210            0124C  5565             +
                                    5566     698.
 000B62 18F2                        5567     699.     FMTSHEX  LR    R15,SR
 000B64 4100 0008            00008  5568     700.              BTX   CLWTEMP,8,(15)
 000B68 4110 A2E8            002E8  5587             +
 000B6C 58E0 626C/0DEE       012A8  5590             +
 000B72 4590 61F8            01234  5592     701.              SEG   (1),(0)
1VFSH     (VFSH00) (09:47) (22MAR04) ORVYL'S FILE SYSTEM SHOW COMMANDS                                                      Page   43
0Current Usings:  (BASE+4096,R6) (BASE,R7) (WA,R8) (CLW,R10) (GPW,R12)
0Loc    Object Code    Addr1 Addr2  Stmt Lv Lineno    Source Statement           (Hibal 5, Asmedit 3.3)  HLASM R4.0  2004/03/22 09.47
+___    ______ ____    _____ _____  ____ __ ______    ______ _________
0                                   5606     702.
 000B76                             5607     703.     FMTSEGE  LABEL ,
 000B76 4110 006B            0006B  5609     704.              SEG   ' '
 000B7A 4590 6210            0124C  5611             +
 000B7E 4BD0 62A4            012E0  5612     705.              VPOP  RAR,,*
 000B82 5890 D000            00000  5614             +
 000B86 07F9                        5615     706.              BR    RAR
1VFSH     (VFSH00) (09:47) (22MAR04) ORVYL'S FILE SYSTEM SHOW COMMANDS                                                      Page   44
0Current Usings:  (BASE+4096,R6) (BASE,R7) (WA,R8) (CLW,R10) (GPW,R12)
0Loc    Object Code    Addr1 Addr2  Stmt Lv Lineno    Source Statement           (Hibal 5, Asmedit 3.3)  HLASM R4.0  2004/03/22 09.47
+___    ______ ____    _____ _____  ____ __ ______    ______ _________
0                                   5617     708.     *  SHOW PROGRAMS IN A LIBRARY
                                    5618     709.     *
 000B88                             5619     710.     SHPROGRA LABEL ,
 000B88                             5621     711.     SHCONTEN LABEL ,
 000B88 5810 6270            012AC  5623     712.              LSCAN LIBROPT,CLWKWCB         GET LIBRARY NAME
 000B8C 41F0 A2C4            002C4  5637             +
 000B90 58E0 6244/0DEE       01280  5640             +
 000B96 4770 6144            01180  5642     713.              BNZ   SCRET                   BAD SCAN
 000B9A 9500 C08E      0008E        5643     714.              CLI   GPWFNL,0                ANY LIBRARY NAME?
 000B9E 4770 7B7C            00BB8  5644     715.              BNE   SHPRONAM                YES
 000BA2 9108 C003      00003        5645     716.              IF    GPWFPUB,SHPROPUB        PUBLIC PROGRAMS?
 000BA6 4710 7D54            00D90  5657             +
 000BAA 4110 62C6            01302  5663     717.              SETMSG 'PROGLIB'              IF NONE, USE DEFAULT
 000BAE 4100 0007            00007  5666             +
 000BB2 4D90 61E8/040C       01224  5667     718.              FSCALL GOTNAME
 000BB8 4D90 61E8/1408       01224  5671     719.     SHPRONAM FSCALL ASMBLNAM               PUT NAME TOGETHER
 000BBE 4D90 61E8/0014       01224  5675     720.              FSCALL ATTOLDX                GET FILE
 000BC4 4D90 61E8/1000       01224  5679     721.              FSCALL GETDIR                 READ IN DIRECTORY
 000BCA 4110 0202            00202  5683     722.              SEG   'Members in '
 000BCE 4590 6210            0124C  5685             +
 000BD2 4D90 61E8/0414       01224  5686     723.              FSCALL SEGNAME                WRITE NAME
 000BD8 5890 624C/0D99       01288  5690     724.              VWRITE ,
 000BDE 4770 6176            011B2  5695     725.              BNZ   FILEXIT                 QUIT IF ATTENTION ON WRITE
                                    5696     726.
 000BE2 4120 0010            00010  5697     727.              LA    SR,DENTSIZ              LENGTH OF ENTRY
 000BE6 5830 C048            00048  5698     728.              L     TR,GPWDIRAE             HOW FAR TO GO
 000BEA 5840 C040            00040  5699     729.              L     QR,GPWDIRAP             WHERE TO START
 USING  DIRB,R4                     5700     730.              USING DIRB,QR                 ##
 000BEE 4140 4010            00010  5709     731.              LA    QR,DIRBDENT             BUMP PAST HEADER
 DROP   DIRB,R4                     5710     732.              USING DENTRY,QR               ##
 USING  DENTRY,R4
 000BF2 9540 4000      00000        5722     733.     SHPROGLP CLI   DNAME,C' '              USED ENTRY?
 000BF6 47D0 7CFA            00D36  5723     734.              BNH   SHPROGLE                NO
 000BFA 9138 C004      00004        5724     735.              IF    GPWSFLK+GPWSFUNL+GPWSFFRO,BEGIN
 000BFE 4780 7BFC            00C38  5741             +
 000C02 1FEE/43E0 C12E       0012E  5746  1  736.                LC    R14,GPWAFNL             LENGTH TO COMPARE
 000C08 9120 C004      00004        5753  1  737.                IF    GPWSFLK,BEGIN           LIKE
 000C0C 47E0 7BE0            00C1C  5763  1          +
 000C10 44E0 7D02            00D3E  5768  2  738.                  EX    R14,SHMCLC
 000C14 4770 7CFA            00D36  5770  2  739.                  BNE   SHPROGLE                SKIP THIS
 000C18 47F0 7BFC            00C38  5771  2  740.                  B     SHPROGSG
 000C1C                             5772  1  741.                END   ,
 000C1C 9110 C004      00004        5776  1  742.                IF    GPWSFUNL,BEGIN          UNLIKE
 000C20 47E0 7BF4            00C30  5786  1          +
 000C24 44E0 7D02            00D3E  5791  2  743.                  EX    R14,SHMCLC
 000C28 4780 7CFA            00D36  5793  2  744.                  BE    SHPROGLE                SKIP THIS
 000C2C 47F0 7BFC            00C38  5794  2  745.                  B     SHPROGSG
 000C30                             5795  1  746.                END   ,
 000C30 44E0 7D02            00D3E  5799  1  747.                EX    R14,SHMCLC            MUST BE FROM
 000C34 4740 7CFA            00D36  5801  1  748.                BL    SHPROGLE
 000C38                             5802     749.              END   ,
 000C38 4110 4000            00000  5806     750.     SHPROGSG SEG   DNAME,8                 WRITE NAME
 000C3C 4100 0008            00008  5822             +
 000C40 4590 61F8            01234  5823             +
1VFSH     (VFSH00) (09:47) (22MAR04) ORVYL'S FILE SYSTEM SHOW COMMANDS                                                      Page   45
0Current Usings:  (DENTRY,R4) (BASE+4096,R6) (BASE,R7) (WA,R8) (CLW,R10) (GPW,R12)
0Loc    Object Code    Addr1 Addr2  Stmt Lv Lineno    Source Statement           (Hibal 5, Asmedit 3.3)  HLASM R4.0  2004/03/22 09.47
+___    ______ ____    _____ _____  ____ __ ______    ______ _________
0000C44 4110 00AA            000AA  5824     751.              SEG   '  '
 000C48 4590 6210            0124C  5826             +
 000C4C 9540 4008      00008        5827     752.              CLI   DALINAM,DALICD          ALIAS NAME?
 000C50 47D0 7C30            00C6C  5828     753.              BNH   SHPROMEM                NO
 000C54 4110 020E            0020E  5829     754.              SEG   ' alias for '
 000C58 4590 6210            0124C  5831             +
 000C5C 4110 4008            00008  5832     755.              SEG   DALINAM,8               WRITE ALIASED NAME
 000C60 4100 0008            00008  5848             +
 000C64 4590 61F8            01234  5849             +
 000C68 47F0 7CF0            00D2C  5850     756.              B     SHPROGWR                GO WRITE IT
 000C6C                             5851     757.     SHPROMEM LABEL ,                       MEMBER, WRITE ATTRIBUTES
 000C6C 9120 4008      00008        5853     758.              IF    DFLG1.DFL1SHR,'SEG  " Shared"'  SHARED
 000C70 47E0 7C40            00C7C  5864             +
 000C74 4110 021A            0021A  5871  1          +
 000C78 4590 6210            0124C  5872             +
 000C7C 9110 4008      00008        5877     759.              IF    DFLG1.DFL1REF,'SEG  " Protected"'  PROTECTED
 000C80 47E0 7C50            00C8C  5888             +
 000C84 4110 0222            00222  5895  1          +
 000C88 4590 6210            0124C  5896             +
 000C8C 9108 4008      00008        5901     760.              IF    DFLG1.DFL1PRV,'SEG  " Private"'    PRIVATE
 000C90 47E0 7C60            00C9C  5912             +
 000C94 4110 022D            0022D  5919  1          +
 000C98 4590 6210            0124C  5920             +
 000C9C 9101 4008      00008        5925     761.              IF    DFLG1.DFL1PAG,'SEG  " Page"'    PAGE ALIGNED
 000CA0 47E0 7C70            00CAC  5936             +
 000CA4 4110 0236            00236  5943  1          +
 000CA8 4590 6210            0124C  5944             +
 000CAC 9104 4008      00008        5949     762.              IF    DFLG1.DFL1M31,'SEG  " Mode31"' START IN 31 BIT
 000CB0 47E0 7C80            00CBC  5960             +
 000CB4 4110 023C            0023C  5967  1          +
 000CB8 4590 6210            0124C  5968             +
 000CBC 9102 C004      00004        5973     763.              IF    GPWSFBLO,BEGIN         BLOCKS
 000CC0 47E0 7C8E            00CCA  5983             +
 000CC4 1814                        5988  1  764.                LR    R1,R4
 000CC6 4D90 7FA6            00FE2  5989  1  765.                LCALL SEG#BLKS
 000CCA                             5991     766.              END   ,
 000CCA 9180 C004      00004        5995     767.              IF    ~GPWSFER,SHPROGWR
 000CCE 47E0 7CF0            00D2C  6007             +
 000CD2 947F C003      00003        6013     768.              CLEAR GPWFERS                 CLEAR FLAG BEFORE QUERY
 000CD6 5890 6258/0D99       01294  6020     769.              VMARK
 000CDC 4110 0079            00079  6025     770.              SEG   'Erase'
 000CE0 4590 6210            0124C  6027             +
 000CE4 4D90 61E8/1414       01224  6028     771.              FSCALL RDERASE             DOES HE REALLY WANT TO ERASE?
 000CEA 9180 C003      00003        6032     772.              IF    ~GPWFERS,SHPROGLE       PERMISSION?
 000CEE 47E0 7CFA            00D36  6044             +
 000CF2 9208 C08F      0008F        6050     773.              MVI   GPWLMNL,8               NAME LENGTH
 000CF6 D207 C090 4000 00090 00000  6051     774.              MVC   GPWLMN,DNAME            MOVE NAME
 000CFC 9024 D000            00000  6052     775.              VPUSH SR,QR,*
 000D00 41D0 D00C            0000C  6054             +
 000D04 4D90 61E8/1020       01224  6055     776.              FSCALL DELMEM                 REMOVE MEMBER
 000D0A 4D90 61E8/1004       01224  6059     777.              FSCALL PUTDIR                 WRITE DIRECTORY
 000D10 4D90 61E8/0410       01224  6063     778.              FSCALL SEGMEMB                WRITE MEMBER NAME
 000D16 4110 0244            00244  6067     779.              SEG   'erased in '
 000D1A 4590 6210            0124C  6069             +
1VFSH     (VFSH00) (09:47) (22MAR04) ORVYL'S FILE SYSTEM SHOW COMMANDS                                                      Page   46
0Current Usings:  (DENTRY,R4) (BASE+4096,R6) (BASE,R7) (WA,R8) (CLW,R10) (GPW,R12)
0Loc    Object Code    Addr1 Addr2  Stmt Lv Lineno    Source Statement           (Hibal 5, Asmedit 3.3)  HLASM R4.0  2004/03/22 09.47
+___    ______ ____    _____ _____  ____ __ ______    ______ _________
0000D1E 4D90 61E8/0414       01224  6070     780.              FSCALL SEGNAME                 WRITE LIBRARY NAME
 000D24 4BD0 62B6            012F2  6074     781.              VPOP  SR,QR,*
 000D28 9824 D000            00000  6076             +
 000D2C 5890 624C/0D99       01288  6077     782.     SHPROGWR VWRITE ,
 000D32 4770 6176            011B2  6082     783.              BNZ   FILEXIT                 QUIT IF ATTENTION ON WRITE
 000D36 8742 7BB6            00BF2  6083     784.     SHPROGLE BXLE  QR,SR,SHPROGLP          LOOP UNTIL DONE
 000D3A 47F0 6176            011B2  6084     785.              B     FILEXIT                 THAT'S ALL
                                    6085     786.
 000D3E D500 4000 C164 00000 00164  6086     787.     SHMCLC   CLC   DNAME(0),GPWAFN
1VFSH     (VFSH00) (09:47) (22MAR04) ORVYL'S FILE SYSTEM SHOW COMMANDS                                                      Page   47
0Current Usings:  (DENTRY,R4) (BASE+4096,R6) (BASE,R7) (WA,R8) (CLW,R10) (GPW,R12)
0Loc    Object Code    Addr1 Addr2  Stmt Lv Lineno    Source Statement           (Hibal 5, Asmedit 3.3)  HLASM R4.0  2004/03/22 09.47
+___    ______ ____    _____ _____  ____ __ ______    ______ _________
0                                   6088     789.     *  SHOW CONTENTS SCAN EXITS
                                    6089     790.     *
 000D44 9138 C004      00004        6090     791.     CLIKE    IF    GPWSFLK+GPWSFUNL+GPWSFFRO,UNREC   ALREADY SET?
 000D48 4770 6166            011A2  6110             +
 000D4C 9620 C004      00004        6116     792.              SET   GPWSFLK                 SET LIKE
 000D50 47F0 7D24            00D60  6122     793.              B     SAVLIKE                 FIX UP AND CONTINUE SCAN
                                    6123     794.
 000D54 9138 C004      00004        6124     795.     CUNLIKE  IF    GPWSFLK+GPWSFUNL+GPWSFFRO,UNREC  ALREADY SET?
 000D58 4770 6166            011A2  6144             +
 000D5C 9610 C004      00004        6150     796.              SET   GPWSFUNL                SET UNLIKE
 000D60                             6156     797.     SAVLIKE  LABEL ,                       SAVE STRING FOR SCAN
 000D60 5900 6274            012B0  6158     798.              CEIL  R0,8                    MAX LENGTH
 000D64 47D0 7D30            00D6C  6167             +
 000D68 5800 6274            012B0  6172             +
 000D6C 1820                        6177     799.              LR    SR,R0
 000D6E 0620                        6178     800.              DECR  SR                      DECREMENT FOR MOVE
 000D70 4220 C12E            0012E  6180     801.              STC   SR,GPWAFNL              AND SAVE
 000D74 D22B C164 6234 00164 01270  6181     802.              MVC   GPWAFN,=CL8' '          BLANK IT OUT
 000D7A 4420 62CE            0130A  6182     803.              EX    SR,'OC  GPWAFN(0),@R1'  MOVE STRING
 001309 00                                1          +
 00130A D600 C164 1000 00164 00000  6190             +
 000D7E 07FE                        6198     804.              SCRTN (15)
                                    6205     805.
 000D80 9138 C004      00004        6206     806.     CFROM    IF    GPWSFLK+GPWSFUNL+GPWSFFRO,UNREC
 000D84 4770 6166            011A2  6226             +
 000D88 9608 C004      00004        6232     807.              SET   GPWSFFRO                SET FROM
 000D8C 47F0 7D24            00D60  6238     808.              B     SAVLIKE
1VFSH     (VFSH00) (09:47) (22MAR04) ORVYL'S FILE SYSTEM SHOW COMMANDS                                                      Page   48
0Current Usings:  (DENTRY,R4) (BASE+4096,R6) (BASE,R7) (WA,R8) (CLW,R10) (GPW,R12)
0Loc    Object Code    Addr1 Addr2  Stmt Lv Lineno    Source Statement           (Hibal 5, Asmedit 3.3)  HLASM R4.0  2004/03/22 09.47
+___    ______ ____    _____ _____  ____ __ ______    ______ _________
0                                   6240     810.     * SHOW PUBLIC PROGRAMS
                                    6241     811.     *
 000D90                             6242     812.     SHPROPUB LABEL ,
 000D90 4110 0FFF            00FFF  6244     813.              GETCLW 4095,4095              GET ROOM FOR CATALOG
 000D94 41F0 0FFF            00FFF  6258             +
 000D98 5890 6278/0D99       012B4  6261             +
 000D9E 4770 61C0            011FC  6263     814.              BNZ   NOCORE                  SORRY
 000DA2 5010 C040            00040  6264     815.              ST    R1,GPWDIRAP             SAVE
 000DA6 5000 C044            00044  6265     816.              ST    R0,GPWDIRAL              LENGTHS
 000DAA 4D90 61E8/0C2C       01224  6266     817.              FSCALL GETCAT                 GO GET CATALOG
 000DB0 1841                        6270     818.              LR    QR,R1                   MOVE BASE
 DROP   DENTRY,R4                   6271     819.              USING PRGCAT,QR               ## (SET BY GETCAT)
 USING  PRGCAT,R4
 000DB2 9823 4000            00000  6283     820.              LM    SR,TR,PCATPTR           GET POINTERS
 000DB6 1B32                        6284     821.              SR    TR,SR                   GET LENGTH OF CATALOG
 000DB8 1843                        6285     822.              LR    QR,TR                   SAVE FOR LATER
 DROP   PRGCAT,R4                   6286     823.              DROP  QR                      ##
 000DBA 1813                        6293     824.              LR    R1,TR                   ALSO IN R1
 000DBC 5800 C040            00040  6294     825.              L     R0,GPWDIRAP             ADDRESS OF AREA
 000DC0 0E02                        6295     826.              MVCL  R0,SR                   MOVE IT
 000DC2 4D90 61E8/0C30       01224  6296     827.              FSCALL RELCAT                 RELEASE CATALOG
 000DC8 5820 C040            00040  6300     828.              L     SR,GPWDIRAP             POINT TO CATALOG
 000DCC 4134 2000            00000  6301     829.              LA    TR,@SR(QR)              END OF CATALOG
 000DD0 4110 024F            0024F  6302     830.              SEG   'Public Programs'
 000DD4 4590 6210            0124C  6304             +
 000DD8 5890 624C/0D99       01288  6305     831.              VWRITE ,
 000DDE 4770 7E48            00E84  6310     832.              BNZ   DONECAT                 CHANGED MIND
 000DE2 1923                        6311     833.     SHOWPCAT CR    SR,TR                   ANY MORE?
 000DE4 47B0 7E48            00E84  6312     834.              BNL   DONECAT                 NO
 000DE8 41F0 C800            00800  6313     835.              UNPRS GPWHXBUF,@SR            UNPRESS NEXT LINE
 000DEC 4110 2000            00000  6327             +
 000DF0 5890 627C/0D99       012B8  6330             +
 000DF6 4770 61B4            011F0  6333     836.              BNZ   PCATERR                 ERROR IN CATALOG
 000DFA 1821                        6334     837.              LR    SR,R1                   UPDATE POINTER
 000DFC 4110 C800            00800  6335     838.              SCINIT GPWHXBUF,(0),CLWKWCB   SET UP TO SCAN LINE
 000E00 41F0 A2C4            002C4  6354             +
 000E04 58E0 6280/0DEE       012BC  6357             +
 000E0A 1B11/41F0 A2C4       002C4  6359     839.              SCAN  ,CLWKWCB                GET PROGRAM NAME
 000E10 58E0 6244/0DEE       01280  6373             +
 000E16 D207 A2E8 A2C8 002E8 002C8  6375     840.              MVC   CLWTEMP,CLWKWKW         SAVE NAME
 000E1C                             6376     841.              CLEAR GPWFCB
 000E1C D79D C08C C08C 0008C 0008C  6382             +
 000E22 4D90 61E8/0004       01224  6383     842.              FSCALL FNINIT                 CLEAN OUT OLD FILE NAME
 000E28                             6387     843.              CLEAR GPWMSGL                 RESET SAVED MESSAGE
 000E28 D703 C01C C01C 0001C 0001C  6393             +
 000E2E 1B11/41F0 A2C4       002C4  6394     844.              SCAN  ,CLWKWCB                GET LIBRARY NAME
 000E34 58E0 6244/0DEE       01280  6408             +
 000E3A 4110 7E4C            00E88  6410     845.              SCAN  CATSCKWS,CLWKWCB        SCAN FOR COMMENT
 000E3E 41F0 A2C4            002C4  6424             +
 000E42 58E0 6244/0DEE       01280  6427             +
 000E48 4770 61B4            011F0  6429     846.              BNZ   PCATERR                 ERROR IN CATALOG
 000E4C 4110 A2E8            002E8  6430     847.              SEG   CLWTEMP,8               WRITE NAME
 000E50 4100 0008            00008  6446             +
 000E54 4590 61F8            01234  6447             +
1VFSH     (VFSH00) (09:47) (22MAR04) ORVYL'S FILE SYSTEM SHOW COMMANDS                                                      Page   49
0Current Usings:  (BASE+4096,R6) (BASE,R7) (WA,R8) (CLW,R10) (GPW,R12)
0Loc    Object Code    Addr1 Addr2  Stmt Lv Lineno    Source Statement           (Hibal 5, Asmedit 3.3)  HLASM R4.0  2004/03/22 09.47
+___    ______ ____    _____ _____  ____ __ ______    ______ _________
0000E58                             6448     848.              IF    (GPWMSGL,NZ),BEGIN     IF COMMENT
 000E58 D603 C01C C01C 0001C 0001C  6458             +
 000E5E 4780 7E3A            00E76  6459             +
 000E62 4110 00AA            000AA  6464  1  849.                SEG   '  '                    PUT BLANKS
 000E66 4590 6210            0124C  6466  1          +
 000E6A 5810 C020            00020  6467  1  850.                SEG   L:GPWMSGA,L:GPWMSGL     WRITE SAVED COMMENT
 000E6E 5800 C01C            0001C  6479  1          +
 000E72 4590 61F8            01234  6480  1          +
 000E76                             6481     851.              END   ,
 000E76 5890 624C/0D99       01288  6485     852.              VWRITE ,
 000E7C 4770 7E48            00E84  6490     853.              BNZ   DONECAT                 QUIT
 000E80 47F0 7DA6            00DE2  6491     854.              B     SHOWPCAT                DO NEXT
-000E84                             6493     856.     DONECAT  LABEL ,
 000E84 47F0 6176            011B2  6495     857.              B     FILEXIT                 DONE
-000E88                             6497     859.     CATSCKWS SCKW  NAME,CATNULL,(A,P)
 000E88 8B000EDCD5C1D4C5            6498             +
 000E90                             6499     860.              SCKW  NOPRINT,SHOWPCAT,A      SKIP WRITE IF NOPRINT
 000E90 0E000DE2D5D6D7D9            6500             +
 000E9B                             6501     861.              SCKW  COMMENT,CATCOMM,(A,P)
 000E9B 8E000EC0C3D6D4D4            6502             +
 000EA6                             6503     862.              SCKW  SPIRES,CATNULL,A
 000EA6 0D000EDCE2D7C9D9            6504             +
 000EB0                             6505     863.              SCKW  SPL,CATNULL
 000EB0 02000EDCE2D7D3              6506             +
 000EB7 F8000000                    6507     864.              SCKW  ,KWFNOPT,PUSH
 000EBB FF0011F0                    6509     865.              SCKW  ,PCATERR
-000EC0                             6512     867.     CATCOMM  LABEL ,                       FOUND COMMENT
 000EC0 9110 C003      00003        6514     868.              IF    GPWFNCOM,CATNULL        NO COMMENT?
 000EC4 4710 7EA0            00EDC  6526             +
 000EC8 5900 6284            012C0  6532     869.              IF    (R0,GT,2),BEGIN
 000ECC 47D0 7E9C            00ED8  6544             +
 000ED0 4110 1001            00001  6549  1  870.                LA    R1,@R1+1                SKIP ENCLOSING
 000ED4 0600                        6550  1  871.                DECR  R0                      DELIMETERS
 000ED6 0600                        6552  1  872.                DECR  R0
 000ED8                             6554     873.              END   ,
 000ED8 9001 C01C            0001C  6558     874.              STM   R0,R1,GPWMSGL           SAVE COMMENT FOR LATER
                                    6559     875.
 000EDC 07FE                        6560     876.     CATNULL  SCRTN (R15)                   RETURN
-                                   6567     878.
 000EDE 9608 C003      00003        6568     879.     SHPRPUB  SET   GPWFPUB                 INDICATE PUB SPECIFIED
 000EE2 5810 6288            012C4  6575     880.              L     R1,=V(SETPUB)
 000EE6 07F1                        6576     881.              BR    R1                      ENTER SCAN EXIT
                                    6577     882.
 000EE8 9610 C003      00003        6578     883.     NOCOM    SET   GPWFNCOM                NO COMMENTS
 000EEC 07FE                        6585     884.              SCRTN (R15)
1VFSH     (VFSH00) (09:47) (22MAR04) ORVYL'S FILE SYSTEM SHOW COMMANDS                                                      Page   50
0Current Usings:  (BASE+4096,R6) (BASE,R7) (WA,R8) (CLW,R10) (GPW,R12)
0Loc    Object Code    Addr1 Addr2  Stmt Lv Lineno    Source Statement           (Hibal 5, Asmedit 3.3)  HLASM R4.0  2004/03/22 09.47
+___    ______ ____    _____ _____  ____ __ ______    ______ _________
0                                   6592     886.     * MISCELLANEOUS KEYWORD PROCESSING
                                    6593     887.     *
                                    6594     888.     * DETECT WHETHER FILENAME OR ACCOUNT OR NOTHING IS SPECIFIED
                                    6595     889.     *
 000EEE 41F0 A2C4            002C4  6596     890.     CHECKFOR SCTELL CLWKWCB                SAVE OLD SCAN
 000EF2 58E0 628C/0DEE       012C8  6606             +
 000EF8 1830                        6608     891.              LR    TR,R0
 000EFA 1841                        6609     892.              LR    QR,1                    SAVE IN TR AND QR
 000EFC 5810 6290            012CC  6610     893.              LSCAN CKFORTBL,CLWKWCB        LOOK FOR 'FOR'
 000F00 41F0 A2C4            002C4  6624             +
 000F04 58E0 6244/0DEE       01280  6627             +
 000F0A 4770 6144            01180  6629     894.              BNZ   SCRET                   ERROR IN SCAN
 000F0E 1BFF                        6630     895.              CLEAR R15                     FOUND NOTHING  RC=0
 000F10 07F9                        6634     896.              BR    RAR
                                    6635     897.
 000F12                             6636     898.     CKVALFOR LABEL ,                       FOUND VALID 'FOR'
 000F12 1814/1803                   6638     899.              SCINIT (QR),(TR),CLWKWCB      RESTORE SCAN
 000F16 41F0 A2C4            002C4  6655             +
 000F1A 58E0 6280/0DEE       012BC  6658             +
 000F20 41F0 000C            0000C  6660     900.              LA    R15,12                  FOUND 'FOR'  RC=12
 000F24 07F9                        6661     901.              BR    RAR
                                    6662     902.
 000F26                             6663     903.     CKFNDFIL LABEL ,                       FOUND FILE NAME
 000F26 1814/1803                   6665     904.              SCINIT (QR),(TR),CLWKWCB      RESTORE SCAN
 000F2A 41F0 A2C4            002C4  6682             +
 000F2E 58E0 6280/0DEE       012BC  6685             +
 000F34 41F0 0004            00004  6687     905.     CKVALFIL LA    R15,4                   FOUND PROBABLE FILENAME  RC=4
 000F38 07F9                        6688     906.              BR    RAR
                                    6689     907.
 000F3A                             6690     908.     CKFNDACC LABEL ,                       ACCOUNT SPECIFIED
 000F3A 4900 62B8            012F4  6692     909.              CH    0,=Y(L'ACCT)            TEST LENTH
 000F3E 4770 61D8            01214  6693     910.              BNE   BADACCT                 NO GOOD
 000F42 955B 1003      00003        6694     911.              CLI   L'UUU(1),C'$'           CHECK DELIMITER TYPE
 000F46 4780 7F2A            00F66  6695     912.              BE    CKVALACC
 000F4A 954B 1002      00002        6696     913.              CLI   L'GG(1),C'.'            OTHER OPTION
 000F4E 4770 61D8            01214  6697     914.              BNE   BADACCT                 BAD
 000F52 47F0 7F2A            00F66  6698     915.              B     CKVALACC
                                    6699     916.
 000F56                             6700     917.     CKACCT   LABEL ,                       SCAN DIDN'T FIND 'FOR'
 000F56 4900 62B8            012F4  6702     918.              CH    0,=Y(L'ACCT)            RIGHT LENGTH FOR ACCT?
 000F5A 4770 7EEA            00F26  6703     919.              BNE   CKFNDFIL                NO - TRY FILE
 000F5E 955B 1003      00003        6704     920.              CLI   L'UUU(1),C'$'           $ IN RIGHT PLACE?
 000F62 4770 7EEA            00F26  6705     921.              BNE   CKFNDFIL                NO - TRY FILE
 000F66 41F0 0008            00008  6706     922.     CKVALACC LA    R15,8                   FOUND ACCT  RC=8
 000F6A 07F9                        6707     923.              BR    RAR
                                    6708     924.
1VFSH     (VFSH00) (09:47) (22MAR04) ORVYL'S FILE SYSTEM SHOW COMMANDS                                                      Page   51
0Current Usings:  (BASE+4096,R6) (BASE,R7) (WA,R8) (CLW,R10) (GPW,R12)
0Loc    Object Code    Addr1 Addr2  Stmt Lv Lineno    Source Statement           (Hibal 5, Asmedit 3.3)  HLASM R4.0  2004/03/22 09.47
+___    ______ ____    _____ _____  ____ __ ______    ______ _________
0                                   6710     926.     *  FIND GROUP NAME
                                    6711     927.     *
 000F6C                             6712     928.     FOR      LABEL ,                       FOR FOUND
 000F6C 5090 D000            00000  6714     929.              VPUSH RAR,,*                  SAVE RETURN
 000F70 41D0 D004            00004  6716             +
 000F74 D205 C007 C058 00007 00058  6717     930.              MVC   GPWACCT(L'ACCT),GPWGRP  SAVE EXISTING ACCOUNT
 000F7A D205 C058 62BA 00058 012F6  6718     931.              MVC   GPWGRP(L'ACCT),=C'  .   '
 000F80 5810 6294            012D0  6719     932.              LSCAN FORTBL4,CLWKWCB
 000F84 41F0 A2C4            002C4  6733             +
 000F88 58E0 6244/0DEE       01280  6736             +
 000F8E 4770 6144            01180  6738     933.              BNZ   SCRET
                                    6739     934.     *  RESTORE THE FILE ACCOUNT TO ITS PROPER PLACE
 000F92 4110 C164            00164  6740     935.              LA    R1,GPWAFN               SET UP SAVE ADDRESS
 000F96 9540 C05B      0005B        6741     936.              CLI   GPWUSER,C' '            USER SPECIFIED?
 000F9A 4770 7F70            00FAC  6742     937.              BNE   FORUSR                  JUMP IF SO
 000F9E 9540 C058      00058        6743     938.              CLI   GPWGRP,C' '             HOW ABOUT GROUP?
 000FA2 4780 615A            01196  6744     939.              BE    MISSING                 NOT THERE
 000FA6 D202 C05B 62C3 0005B 012FF  6745     940.              MVC   GPWUSER(L'UUU),=C'PUB'  SET GROUP LEVEL
 000FAC 9540 C058      00058        6746     941.     FORUSR   CLI   GPWGRP,C' '             CHECK FOR GROUP
 000FB0 4770 7F7E            00FBA  6747     942.              BNE   FORUSG                  IT IS THERE
 000FB4 D201 C058 A3B0 00058 003B0  6748     943.              MVC   GPWGRP,CLWGROUP         SIGNED ON GROUP
 000FBA D205 1000 C058 00000 00058  6749     944.     FORUSG   MVC   @R1(L'ACCT),GPWGRP
 000FC0 D205 C058 C007 00058 00007  6750     945.              MVC   GPWGRP(L'ACCT),GPWACCT  RESTORE ACCOUNT
 000FC6 9108 C003      00003        6751     946.              IF    GPWFPUB,FORRET          PUBLIC?
 000FCA 4710 7F9C            00FD8  6763             +
 000FCE 4100 0006            00006  6769     947.              LA    R0,L'ACCT
 000FD2 4D90 61E8/1418       01224  6770     948.              FSCALL FORGROUP                CHECK ACCOUNT
 000FD8 4BD0 62A4            012E0  6774     949.     FORRET   VPOP  RAR,,*
 000FDC 5890 D000            00000  6776             +
 000FE0 07F9                        6777     950.              BR    RAR
1VFSH     (VFSH00) (09:47) (22MAR04) ORVYL'S FILE SYSTEM SHOW COMMANDS                                                      Page   52
0Current Usings:  (BASE+4096,R6) (BASE,R7) (WA,R8) (CLW,R10) (GPW,R12)
0Loc    Object Code    Addr1 Addr2  Stmt Lv Lineno    Source Statement           (Hibal 5, Asmedit 3.3)  HLASM R4.0  2004/03/22 09.47
+___    ______ ____    _____ _____  ____ __ ______    ______ _________
0                                   6779     952.     *  FORMAT MEMBER ENTRY FROM DIRECTORY
                                    6780     953.     *
 000FE2 9029 D000            00000  6781     954.     SEG#BLKS VPUSH SR,RAR,*                SAVE RETURN REGISTERS
 000FE6 41D0 D020            00020  6783             +
 000FEA 1841                        6784     955.              LR    QR,R1                   MOVE DIRECTORY ENTRY ADDR
 USING  DENTRY,R4                   6785     956.              USING DENTRY,QR               ##
 000FEC 1F22/BF27 400D       0000D  6794     957.              L3    SR,DBCT                 BLOCK COUNT FROM ENTRY
 000FF2 4780 601A            01056  6802     958.              IF    NZ,BEGIN               BLOCKS EXIST FOR MEMBER
 000FF6 4110 015E            0015E  6813  1  959.                SEG   '-- '                   PRETTY
 000FFA 4590 6210            0124C  6815  1          +
 000FFE 18F2/1B00                   6816  1  960.                BTD   CLWTEMP,0,(SR)          CONVERT TOTAL
 001002 4110 A2E8            002E8  6832  1          +
 001006 58E0 6254/0DEE       01290  6835  1          +
 00100C 4590 61F8            01234  6837  1  961.                SEG   (1),(0)                 SET BLOCK COUNT
 001010 4110 025F            0025F  6851  1  962.                SEG   ' Blocks (F: '            MESSAGE
 001014 4590 6210            0124C  6853  1          +
 001018 1F33/BF37 400A       0000A  6854  1  963.                L3    TR,DFBN                 FIRST BLOCK OF MEMBER
 00101E 18F3/1B00                   6862  1  964.                BTD   CLWTEMP,0,(TR)          FORMAT IT
 001022 4110 A2E8            002E8  6878  1          +
 001026 58E0 6254/0DEE       01290  6881  1          +
 00102C 4590 61F8            01234  6883  1  965.                SEG   (1),(0)                 AND ADD TO MESSAGE
 001030 4110 0176            00176  6897  1  966.                SEG   ', L: '
 001034 4590 6210            0124C  6899  1          +
 001038 1A32                        6900  1  967.                AR    TR,SR                   LAST BLOCK NUMBER
 00103A 0630                        6901  1  968.                DECR  TR                      DECREMENT FOR LAST BLOCK
 00103C 18F3/1B00                   6903  1  969.                BTD   CLWTEMP,0,(TR)          FORMAT IT
 001040 4110 A2E8            002E8  6919  1          +
 001044 58E0 6254/0DEE       01290  6922  1          +
 00104A 4590 61F8            01234  6924  1  970.                SEG   (1),(0)                 ADD TO MESSAGE
 00104E 4110 0076            00076  6938  1  971.                SEG   ') '                    PRETTY THINGS UP
 001052 4590 6210            0124C  6940  1          +
 001056 601E           01056 00FF4  6941     972.              END   ELSE,BEGIN            NO CONTENTS FOR MEMBER
 001056 47F0 6026            01062  6950             +
 00105A 4110 017C            0017C  6956  1  973.                SEG   '-- No contents '
 00105E 4590 6210            0124C  6958  1          +
 001062                             6959     974.              END   ,
 001062 4BD0 62C0            012FC  6963     975.              VPOP  SR,RAR,*                RESTORE RETURN
 001066 9829 D000            00000  6965             +
 00106A 07F9                        6966     976.              BR    RAR                     RETURN TO CALLER
 DROP   DENTRY,R4                   6967     977.              DROP  QR                      ##
1VFSH     (VFSH00) (09:47) (22MAR04) ORVYL'S FILE SYSTEM SHOW COMMANDS                                                      Page   53
0Current Usings:  (BASE+4096,R6) (BASE,R7) (WA,R8) (CLW,R10) (GPW,R12)
0Loc    Object Code    Addr1 Addr2  Stmt Lv Lineno    Source Statement           (Hibal 5, Asmedit 3.3)  HLASM R4.0  2004/03/22 09.47
+___    ______ ____    _____ _____  ____ __ ______    ______ _________
0                                   6975     979.     *  SEG ACCOUNT AND PRIVILEGES
                                    6976     980.     *
 00106C                             6977     981.     SEGAPRIV LABEL ,
 00106C 5090 D000            00000  6979     982.              VPUSH RAR,,*                  SAVE RETURN
 001070 41D0 D004            00004  6981             +
 001074 4110 026C            0026C  6982     983.              SEG   '- '                  ESTHETICS
 001078 4590 6210            0124C  6984             +
 00107C 47F0 604C            01088  6985     984.              B     SEGPRIVN                DO PRIVILEGES
                                    6986     985.
 001080                             6987     986.     SEGPRIV  LABEL ,
 001080 5090 D000            00000  6989     987.              VPUSH RAR,,*                  SAVE RETURN
 001084 41D0 D004            00004  6991             +
 001088 9107 C005      00005        6992     988.     SEGPRIVN IF    GPWPRMWR,SETALL         TEST PRIVS
 00108C 4710 6070            010AC  7005             +
 001090 4780 6064            010A0  7011     989.              BZ    SETNONE
 001094 9101 C005      00005        7012     990.              IF    GPWPRMRD,SETRO
 001098 4710 607C            010B8  7024             +
 00109C 47F0 608C            010C8  7030     991.              B     SETAO
                                    7031     992.
 0010A0 4110 026F            0026F  7032     993.     SETNONE  SEG   'None '
 0010A4 4590 6210            0124C  7034             +
 0010A8 47F0 6098            010D4  7035     994.              B     SGPREX
                                    7036     995.
 0010AC 4110 0275            00275  7037     996.     SETALL   SEG   'Write '
 0010B0 4590 6210            0124C  7039             +
 0010B4 47F0 6098            010D4  7040     997.              B     SGPREX
                                    7041     998.
 0010B8 4110 027C            0027C  7042     999.     SETRO    SEG   'Read '
 0010BC 4590 6210            0124C  7044             +
 0010C0 9102 C005      00005        7045    1000.              IF    ~GPWPRMAP,SGPREX        APPEND TOO?
 0010C4 47E0 6098            010D4  7057             +
                                    7063    1001.
 0010C8 4110 0282            00282  7064    1002.     SETAO    SEG   'Append '
 0010CC 4590 6210            0124C  7066             +
 0010D0 47F0 6098            010D4  7067    1003.              B     SGPREX
                                    7068    1004.
 0010D4                             7069    1005.     SGPREX   LABEL ,
 0010D4 9108 C005      00005        7071    1006.              IF    ~GPWPRMEX,SGPRWR        EXTEND?
 0010D8 47E0 60A8            010E4  7083             +
 0010DC 4110 028A            0028A  7089    1007.              SEG   '&& Extend'
 0010E0 4590 6210            0124C  7091             +
 0010E4 5890 624C/0D99       01288  7092    1008.     SGPRWR   VWRITE
 0010EA 4770 6176            011B2  7097    1009.              BNZ   FILEXIT                 QUIT IF ATTENTION HIT
 0010EE 4BD0 62A4            012E0  7098    1010.              VPOP  RAR,,*                  GET RETURN
 0010F2 5890 D000            00000  7100             +
 0010F6 07F9                        7101    1011.              BR    RAR
1VFSH     (VFSH00) (09:47) (22MAR04) ORVYL'S FILE SYSTEM SHOW COMMANDS                                                      Page   54
0Current Usings:  (BASE+4096,R6) (BASE,R7) (WA,R8) (CLW,R10) (GPW,R12)
0Loc    Object Code    Addr1 Addr2  Stmt Lv Lineno    Source Statement           (Hibal 5, Asmedit 3.3)  HLASM R4.0  2004/03/22 09.47
+___    ______ ____    _____ _____  ____ __ ______    ______ _________
0                                   7103    1013.     *  FORMAT DATE
                                    7104    1014.     *
 0010F8                             7105    1015.     SEGDATE  LABEL ,
 0010F8 5090 D000            00000  7107    1016.              VPUSH RAR,,*                  SAVE RETURN
 0010FC 41D0 D004            00004  7109             +
 001100 9500 1000      00000        7110    1017.              IF    ('CLI  @R1,X"00"',NE),BEGIN  NEW STYLE
 001104 4780 60DC            01118  7118             +
 001108 BF0F 1000            00000  7123  1 1018.                L4    R0,@R1                  GET CLOCK INFO
 00110C 1B11                        7125  1 1019.                CLEAR R1
 00110E 41F0 A2E8            002E8  7129  1 1020.                LA    R15,CLWTEMP             ANSWER AREA
 001112 58E0 6298/0DEE       012D4  7130  1 1021.                XCALL FMTDATE                 FORMAT IT
 001118 60E0           01118 01106  7134    1022.              END   ELSE,BEGIN
 001118 47F0 6104            01140  7143             +
 00111C F363 A2F0 1001 002F0 00001  7149  1 1023.                UNPK  CLWTEMP+8(7),@R1+1(4)   UNPACK AND MOVE DATA
 001122 4110 A2F0            002F0  7150  1 1024.                LA    R1,CLWTEMP+8            SET POINTER
 001126 D201 A2E8 1002 002E8 00002  7151  1 1025.                MVC   CLWTEMP(2),@R1+2        MONTH
 00112C 9261 A2EA      002EA        7152  1 1026.                MVI   CLWTEMP+2,C'/'
 001130 D201 A2EB 1004 002EB 00004  7153  1 1027.                MVC   CLWTEMP+3(2),@R1+4      DAY
 001136 9261 A2ED      002ED        7154  1 1028.                MVI   CLWTEMP+5,C'/'
 00113A D207 A2EE 1000 002EE 00000  7155  1 1029.                MVC   CLWTEMP+6,@R1           AND YEAR
 001140                             7156    1030.              END   ,
 001140 4110 0293            00293  7160    1031.              SEG   ': '                    BE NEAT
 001144 4590 6210            0124C  7162             +
 001148 4110 A2E8            002E8  7163    1032.              SEG   CLWTEMP,8
 00114C 4100 0008            00008  7179             +
 001150 4590 61F8            01234  7180             +
 001154 4BD0 62A4            012E0  7181    1033.              VPOP  RAR,,*                  RESTORE
 001158 5890 D000            00000  7183             +
 00115C 07F9                        7184    1034.              BR    RAR                     AND RETURN
1VFSH     (VFSH00) (09:47) (22MAR04) ORVYL'S FILE SYSTEM SHOW COMMANDS                                                      Page   55
0Current Usings:  (BASE+4096,R6) (BASE,R7) (WA,R8) (CLW,R10) (GPW,R12)
0Loc    Object Code    Addr1 Addr2  Stmt Lv Lineno    Source Statement           (Hibal 5, Asmedit 3.3)  HLASM R4.0  2004/03/22 09.47
+___    ______ ____    _____ _____  ____ __ ______    ______ _________
0                                   7186    1036.     * FILE ERROR MESSAGES
                                    7187    1037.     *
 00115E 4110 0296            00296  7188    1038.     NOMEM    SEG   'No accounts given privileges'
 001162 4590 6210            0124C  7190             +
 001166 47F0 6180            011BC  7191    1039.              B     WRITEXIT
                                    7192    1040.
 00116A 4110 C007            00007  7193    1041.     ACCTINC  LA    R1,GPWACCT              PRINT ACCT
 00116E 4D90 61E8/1404       01224  7194    1042.              FSCALL SEGACCT
 001174 4110 02B3            002B3  7198    1043.              SEG   ' Invalid in this context'
 001178 4590 6210            0124C  7200             +
 00117C 47F0 7004            00004  7201    1044.              B     4(,BR)                  ERROR RETURN
                                    7202    1045.
 001180 1000                        7203    1046.     SCRET    LPR   R0,R0
 001182 4780 615A            01196  7204    1047.              BZ    MISSING
                                    7205    1048.
 001186 4590 61F8            01234  7206    1049.     ILLSTR   SEG   (1),(0)
 00118A 4110 02CC            002CC  7221    1050.              SEG   ': Invalid string'
 00118E 4590 6210            0124C  7223             +
 001192 47F0 7004            00004  7224    1051.              B     4(,BR)                  ERROR RETURN
                                    7225    1052.
 001196 4110 02DD            002DD  7226    1053.     MISSING  SEG   'Operand missing'
 00119A 4590 6210            0124C  7228             +
 00119E 47F0 7004            00004  7229    1054.              B     4(,BR)                  ERROR RETURN
                                    7230    1055.
 0011A2 4590 61F8            01234  7231    1056.     UNREC    SEG   (1),(0)
 0011A6 4110 02ED            002ED  7246    1057.              SEG   ': Invalid'
 0011AA 4590 6210            0124C  7248             +
 0011AE 47F0 7004            00004  7249    1058.              B     4(,BR)                  ERROR RETURN
 0011B2                             7250    1059.     FILEXIT  LABEL ,
 0011B2 4D90 61E8/0898       01224  7252    1060.              FSCALL FILEXIT                DOES NOT RETURN HERE
                                    7256    1061.     *  SET MESSAGE, CLEAN UP AND LEAVE
                                    7257    1062.     *
 0011B8                             7258    1063.     MSGEXIT  LABEL ,
 0011B8 4590 61F8            01234  7260    1064.              SEG   (1),(0)
 0011BC                             7274    1065.     WRITEXIT LABEL ,                       :::
 0011BC 5890 624C/0D99       01288  7276    1066.              VWRITE ,                      SEND MESSAGE
 0011C2 47F0 6176            011B2  7281    1067.              B     FILEXIT                 RETURN
 0011C6                             7282    1068.     QIETEXIT LABEL ,                       :::
 0011C6 9104 C001      00001        7284    1069.              IF    ~GPWFQIET,WRITEXIT
 0011CA 47E0 6180            011BC  7296             +
 0011CE                             7302    1070.              CLEAR (CLWOBUF,4)             QUIET!!
 0011CE D703 A118 A118 00118 00118  7308             +
 0011D4 47F0 6176            011B2  7309    1071.              B     FILEXIT
                                    7310    1072.
 0011D8 4110 02F7            002F7  7311    1073.     REQABORT SEG   'Request aborted'
 0011DC 4590 6210            0124C  7313             +
 0011E0 47F0 7004            00004  7314    1074.              B     4(,BR)
 0011E4 4110 0307            00307  7315    1075.     VFMSG    SEG   'in Orvyl File System'
 0011E8 4590 6210            0124C  7317             +
 0011EC 47F0 618A            011C6  7318    1076.              B     QIETEXIT
00011F0                             7320    1078.     PCATERR  LABEL ,
 0011F0 4110 031C            0031C  7322    1079.              SEG   'Program Catalog error'
 0011F4 4590 6210            0124C  7324             +
1VFSH     (VFSH00) (09:47) (22MAR04) ORVYL'S FILE SYSTEM SHOW COMMANDS                                                      Page   56
0Current Usings:  (BASE+4096,R6) (BASE,R7) (WA,R8) (CLW,R10) (GPW,R12)
0Loc    Object Code    Addr1 Addr2  Stmt Lv Lineno    Source Statement           (Hibal 5, Asmedit 3.3)  HLASM R4.0  2004/03/22 09.47
+___    ______ ____    _____ _____  ____ __ ______    ______ _________
00011F8 47F0 7004            00004  7325    1080.              B     4(,BR)
00011FC                             7327    1082.     NOCORE   LABEL ,
 0011FC 4110 0332            00332  7329    1083.              SEG   'Insufficient user memory to process command'
 001200 4590 6210            0124C  7331             +
 001204 47F0 7004            00004  7332    1084.              B     4(,BR)
 001208                             7333    1085.     NOCANDO  LABEL ,
 001208 4110 035E            0035E  7335    1086.              SEG   'Blocks, Format or All invalid with Erase option'
 00120C 4590 6210            0124C  7337             +
 001210 47F0 7004            00004  7338    1087.              B     4(,BR)
 001214                             7339    1088.     BADACCT  LABEL ,
 001214 4590 61F8            01234  7341    1089.              SEG   (1),(0)
 001218 4110 038E            0038E  7355    1090.              SEG   ': Invalid account'
 00121C 4590 6210            0124C  7357             +
 001220 47F0 7004            00004  7358    1091.              B     4(,BR)
1VFSH     (VFSH00) (09:47) (22MAR04) ORVYL'S FILE SYSTEM SHOW COMMANDS                                                      Page   57
0Current Usings:  (BASE+4096,R6) (BASE,R7) (WA,R8) (CLW,R10) (GPW,R12)
0Loc    Object Code    Addr1 Addr2  Stmt Lv Lineno    Source Statement           (Hibal 5, Asmedit 3.3)  HLASM R4.0  2004/03/22 09.47
+___    ______ ____    _____ _____  ____ __ ______    ______ _________
0                                   7361    1094.              FSCALL GOSUB
 001224                             7362    01-FSCAL +GOSUB    DS    0H
 001224 9029 D000            00000  7364    02-VSAVE +         STM   SR,RAR,0(13)
 001228 188D                        7365    02-VSAVE +         LR    8,13
 00122A 41D0 D020            00020  7366    02-VSAVE +         LA    13,(RAR+1-(SR)+16*((SR)/(RAR+1))/((SR)/(RAR+1)))*4(,13)
 00122E 5860 629C            012D8  7367    01-FSCAL +         L     BRR,=V(FSUB#COM)        ENTRY ADDRESS
 001232 07F6                        7368    01-FSCAL +         BR    BRR                     ENTER FILESUBS
-                                   7371    1097.     *  SPACE-SAVING SEG  ROUTINE
                                    7372    1098.     *
                                    7373    1099.     *
 001234 5090 D000            00000  7374    1100.     SEG      VPUSH RAR,,*
 001238 41D0 D004            00004  7376             +
 00123C 5890 62A0/0D99       012DC  7377    1101.              VSEG  (1),(0)
 001242 4BD0 62A4            012E0  7394    1102.              VPOP  RAR,,*
 001246 5890 D000            00000  7396             +
 00124A 07F9                        7397    1103.              BR    RAR
1VFSH     (VFSH00) (09:47) (22MAR04) ORVYL'S FILE SYSTEM SHOW COMMANDS                                                      Page   58
0Current Usings:  (BASE+4096,R6) (BASE,R7) (WA,R8) (CLW,R10) (GPW,R12)
0Loc    Object Code    Addr1 Addr2  Stmt Lv Lineno    Source Statement           (Hibal 5, Asmedit 3.3)  HLASM R4.0  2004/03/22 09.47
+___    ______ ____    _____ _____  ____ __ ______    ______ _________
0                                   7399    1105.     *  CONSTANTS AND WORK AREA
                                    7400    1106.     *
 00124C 5090 D000            00000  7401    1107.              GENMSGS
 001250 41D0 D004/1F00       00004  7405             +
 001256 4301 62D4            01310  7410             +
 00125A 4111 62D5            01311  7411             +
 00125E 5890 62A0/0D99       012DC  7427             +
 001264 4BD0 62A4            012E0  7430             +
 001268 5890 D000/07F9       00000  7431             +
 001270 4040404040404040            7435                             =CL8' '
 001278 00000000                    7436                             =V(TYPEIT)
 00127C 000016B0                    7437                             =A(USRGPTBL)
 001280 00000000                    7438                             =V(SCAN)
 001284 000016B8                    7439                             =A(SHFILTBL)
 001288 00000000                    7440                             =V(VWRITE)
 00128C 00000038                    7441                             =F'56'
 001290 00000000                    7442                             =V(BTD)
 001294 00000000                    7443                             =V(VMARK)
 001298 00001742                    7444                             =A(FORTBL2)
 00129C 00001751                    7445                             =A(FORTBL3)
 0012A0 C1C3C340                    7446                             =C'ACC '
 0012A4 0000176E                    7447                             =A(FORTBL5)
 0012A8 00000000                    7448                             =V(BTX)
 0012AC 00001779                    7449                             =A(LIBROPT)
 0012B0 00000008                    7450                             =A(8)
 0012B4 00000000                    7451                             =V(GETCLW)
 0012B8 00000000                    7452                             =V(UNPRS)
 0012BC 00000000                    7453                             =V(SCINIT)
 0012C0 00000002                    7454                             =A(2)
 0012C4 00000000                    7455                             =V(SETPUB)
 0012C8 00000000                    7456                             =V(SCTELL)
 0012CC 0000171C                    7457                             =A(CKFORTBL)
 0012D0 0000175C                    7458                             =A(FORTBL4)
 0012D4 00000000                    7459                             =V(FMTDATE)
 0012D8 00000000                    7460                             =V(FSUB#COM)
 0012DC 00000000                    7461                             =V(VSEG)
 0012E0 0004                        7462                             =Y(4)
 0012E2 002C                        7463                             =Y(L'GPWFN)
 0012E4 FFF7                        7464                             =XL2'FFF7'
 0012E6 0007                        7465                             =XL2'0007'
 0012E8 D7E4C2D3C9C3                7466                             =C'PUBLIC'
 0012EE 0050                        7467                             =Y(80)
 0012F0 0085                        7468                             =Y(133)
 0012F2 000C                        7469                             =Y((QR+1-(SR)+16*((SR)/(QR+1))/((SR)/(QR+1)))*4)
 0012F4 0006                        7470                             =Y(L'ACCT)
 0012F6 40404B404040                7471                             =C'  .   '
 0012FC 0020                        7472                             =Y((RAR+1-(SR)+16*((SR)/(RAR+1))/((SR)/(RAR+1)))*4)
 0012FE 40                          7473                             =C' '
 0012FF D7E4C2                      7474                             =C'PUB'
 001302 D7D9D6C7D3C9C2              7475                             =C'PROGLIB'
1VFSH     (VFSH00) (09:47) (22MAR04) ORVYL'S FILE SYSTEM SHOW COMMANDS                                                      Page   59
0Current Usings:  (BASE+4096,R6) (BASE,R7) (WA,R8) (CLW,R10) (GPW,R12)
0Loc    Object Code    Addr1 Addr2  Stmt Lv Lineno    Source Statement           (Hibal 5, Asmedit 3.3)  HLASM R4.0  2004/03/22 09.47
+___    ______ ____    _____ _____  ____ __ ______    ______ _________
0                                   7661    1109.     *  SCAN TABLES
                                    7662    1110.     *
                                    7663    1111.              EXTRN KWFNOPT
                                    7664    1112.              EXTRN GOTNKWR
                                    7665    1113.              EXTRN FORPUB
                                    7666    1114.              EXTRN QUIET
                                    7667    1115.              EXTRN FORACT
 0016B0 F8000000                    7668    1116.     USRGPTBL SCKW  ,KWFNOPT,PUSH
 0016B4 FF0011A2                    7670    1117.              SCKW  ,UNREC
                                    7672    1118.     *
                                    7673    1119.     *
                                    7674    1120.     *
 0016B8                             7675    1121.     SHFILTBL SCKW  DATED,DATED,A
 0016B8 0C0004C0C4C1E3C5            7676             +
 0016C1                             7677    1122.              SCKW  ERASE,SHFERASE,A
 0016C1 0C0004B2C5D9C1E2            7678             +
 0016CA                             7679    1123.              SCKW  LIKE,LIKE,A
 0016CA 0B0004C6D3C9D2C5            7680             +
 0016D2                             7681    1124.              SCKW  UNLIKE,UNLIKE,A
 0016D2 0D0004D6E4D5D3C9            7682             +
 0016DC                             7683    1125.              SCKW  FROM,SHFILFRO,A
 0016DC 0B0004ECC6D9D6D4            7684             +
 0016E4                             7685    1126.              SCKW  ATTACHED,SHFATT,A
 0016E4 0F0004FCC1E3E3C1            7686             +
 0016F0                             7687    1127.              SCKW  BLOCKS,BLOCKS,A
 0016F0 0D000502C2D3D6C3            7688             +
 0016FA                             7689    1128.              SCKW  FORMAT,FORMAT,A
 0016FA 0D000510C6D6D9D4            7690             +
 001704                             7691    1129.              SCKW  ALL,DTBLOFMT,A
 001704 0A00051EC1D3D3              7692             +
 00170B                             7693    1130.              SCKW  QUIET,QUIET,A
 00170B 0C000000D8E4C9C5            7694             +
 001714 F8000000                    7695    1131.              SCKW  ,KWFNOPT,PUSH
 001718 FF0011A2                    7697    1132.              SCKW  ,UNREC
                                    7699    1133.
 00171C                             7700    1134.     CKFORTBL SCKW  FOR,CKVALFOR
 00171C 02000F12C6D6D9              7701             +
 001723                             7702    1135.              SCKW  ACCOUNT,CKFNDACC,(A,P)
 001723 8E000F3AC1C3C3D6            7703             +
 00172E                             7704    1136.              SCKW  FILE,CKVALFIL
 00172E 03000F34C6C9D3C5            7705             +
 001736                             7706    1137.              SCKW  ACCT,CKFNDACC,P
 001736 83000F3AC1C3C3E3            7707             +
 00173E FF000F56                    7708    1138.              SCKW  ,CKACCT
                                    7710    1139.
 001742 F8000000                    7711    1140.     FORTBL2  SCKW  ,KWFNOPT,PUSH
 001746                             7713    1141.              SCKW  FOR,SHPERFFR
 001746 02000560C6D6D9              7714             +
 00174D FF0011A2                    7715    1142.              SCKW  ,UNREC
                                    7717    1143.
 001751                             7718    1144.     FORTBL3  SCKW  FOR,SHPERACN
 001751 02000694C6D6D9              7719             +
 001758 FF0011A2                    7720    1145.              SCKW  ,UNREC
                                    7722    1146.
1VFSH     (VFSH00) (09:47) (22MAR04) ORVYL'S FILE SYSTEM SHOW COMMANDS                                                      Page   60
0Current Usings:  (BASE+4096,R6) (BASE,R7) (WA,R8) (CLW,R10) (GPW,R12)
0Loc    Object Code    Addr1 Addr2  Stmt Lv Lineno    Source Statement           (Hibal 5, Asmedit 3.3)  HLASM R4.0  2004/03/22 09.47
+___    ______ ____    _____ _____  ____ __ ______    ______ _________
000175C                             7723    1147.     FORTBL4  SCKW  PUBLIC,FORPUB,A
 00175C 0D000000D7E4C2D3            7724             +
 001766 F8000000                    7725    1148.              SCKW  ,KWFNOPT,PUSH
 00176A FF000000                    7727    1149.              SCKW  ,FORACT
                                    7729    1150.
 00176E                             7730    1151.     FORTBL5  SCKW  FOR,SHBLKACN
 00176E 02000898C6D6D9              7731             +
 001775 FF0011A2                    7732    1152.              SCKW  ,UNREC
                                    7734    1153.
 001779                             7735    1154.     LIBROPT  SCKW  LIBRARY,GOTNKWR,(A,P)
 001779 8E000000D3C9C2D9            7736             +
 001784 81000000C9D5                7737    1155.              SCKW  IN,GOTNKWR,P
 00178A 81000000D6C6                7739    1156.              SCKW  OF,GOTNKWR,P
 001790                             7741    1157.              SCKW  FOR,GOTNKWR,P
 001790 82000000C6D6D9              7742             +
 001797                             7743    1158.              SCKW  BLOCKS,BLOCKS,A
 001797 0D000502C2D3D6C3            7744             +
 0017A1                             7745    1159.              SCKW  ALL,DTBLOFMT,A
 0017A1 0A00051EC1D3D3              7746             +
 0017A8                             7747    1160.              SCKW  LIKE,CLIKE,(A,P)
 0017A8 8B000D44D3C9D2C5            7748             +
 0017B0                             7749    1161.              SCKW  UNLIKE,CUNLIKE,(A,P)
 0017B0 8D000D54E4D5D3C9            7750             +
 0017BA                             7751    1162.              SCKW  FROM,CFROM,(A,P)
 0017BA 8B000D80C6D9D6D4            7752             +
 0017C2                             7753    1163.              SCKW  ERASE,SHFERASE,A
 0017C2 0C0004B2C5D9C1E2            7754             +
 0017CB                             7755    1164.              SCKW  PUBLIC,SHPRPUB,A
 0017CB 0D000EDED7E4C2D3            7756             +
 0017D5                             7757    1165.              SCKW  NOCOMMENT,NOCOM,A
 0017D5 0F000EE8D5D6C3D6            7758             +
 0017E1 F8000000                    7759    1166.              SCKW  ,KWFNOPT,PUSH
 0017E5 FF0011A2                    7761    1167.              SCKW  ,UNREC
                                    7763    1168.
 0017F0                017F0 017F0  7764    1169.              END   .

1VFSH     (VFSH00) (09:47) (22MAR04) Ordinary Symbol and Literal Cross Reference                                            Page   61
-Symbol   Length   Value     Id    R Type   Defn References                                  HLASM R4.0  2004/03/22 09.47
0$$$@R10       1 00000000 FFFFFFF4     J     836 1129
 $$$@R12       1 00000000 FFFFFFF2     J     862 1142
 $$$@R2        1 00000000 FFFFFFFC     J     732 1025
 $$$@R3        1 00000000 FFFFFFFB     J     745 1038
 $$$@R4        1 00000000 FFFFFFFA     J     758 1051
 $$$@R5        1 00000000 FFFFFFF9     J     771 1064
 $$$@R6        1 00000000 FFFFFFF8     J     784 1077
 $$$@R7        1 00000000 FFFFFFF7     J     797 1090
 $$$@R8        1 00000000 FFFFFFF6     J     810 1103
 $$$@R9        1 00000000 FFFFFFF5     J     823 1116
 $$$C1VFSH
               1 00000070 00000001     J    2566 2568  6196
 $$$C2VFSH
               1 00001310 00000001     J    7476 7478
 $$$C3VFSH
               1 000017F0 00000001     J    7767 7769
 $$$D1VFSH
               1 00001309 00000001     J    2567 6185
 $$$RCLW       1 00000000 FFFFFFEE     J    1189 1496  1496
 $$$102F       2 00000A62 00000001     H    5308 5296B
 $$$109B       4 00000AFE 00000001     I    5502 5517
 $$$109F       2 00000B0A 00000001     H    5514 5502B 5516
 $$$110E       2 00000B0E 00000001     H    5524 5518
 $$$110F       2 00000B16 00000001     H    5533 5520B
 $$$112F       2 00000C38 00000001     H    5805 5741B
 $$$113F       2 00000C1C 00000001     H    5775 5763B
 $$$115F       2 00000C30 00000001     H    5798 5786B
 $$$118F       2 00000C7C 00000001     H    5876 5864B
 $$$120F       2 00000C8C 00000001     H    5900 5888B
 $$$122F       2 00000C9C 00000001     H    5924 5912B
 $$$124F       2 00000CAC 00000001     H    5948 5936B
 $$$126F       2 00000CBC 00000001     H    5972 5960B
 $$$128F       2 00000CCA 00000001     H    5994 5983B
 $$$133F       2 00000D6C 00000001     H    6176 6167B
 $$$134        6 0000130A 00000001     I    6191 6183X
 $$$135        6 0000130A 00000001     I    6190 6191  6191
 $$$137F       2 00000E76 00000001     H    6484 6459B
 $$$139F       2 00000ED8 00000001     H    6557 6544B
 $$$141B       4 00000FF2 00000001     I    6808 6947
 $$$141F       2 00001056 00000001     H    6944 6808B 6946
 $$$142E       2 0000105A 00000001     H    6954 6948
 $$$142F       2 00001062 00000001     H    6962 6950B
 $$$147B       4 00001104 00000001     I    7118 7140
 $$$147F       2 00001118 00000001     H    7137 7118B 7139
 $$$148E       2 0000111C 00000001     H    7147 7141
 $$$148F       2 00001140 00000001     H    7159 7143B
 $$$42B        1 00000022 00000001     X    2465 2472U
 $$$45F        2 000000FA 00000001     H    2688 2676B
 $$$46B        4 0000018A 00000001     I    2813 2828
 $$$46F        2 00000196 00000001     H    2825 2813B 2827
 $$$47E        2 0000019A 00000001     H    2835 2829
 $$$47F        2 000001A2 00000001     H    2844 2831B
 $$$49F        2 000001E8 00000001     H    2927 2911B
 $$$50F        2 0000021C 00000001     H    2991 2952B
 $$$51F        2 0000021C 00000001     H    2987 2977B
1VFSH     (VFSH00) (09:47) (22MAR04) Ordinary Symbol and Literal Cross Reference                                            Page   62
 $$$56F        2 000002E6 00000001     H    3235 3095B
 $$$57F        2 000002B4 00000001     H    3145 3134B
 $$$58F        2 000002C0 00000001     H    3167 3156B
 $$$59F        2 000002DA 00000001     H    3212 3199B
 $$$61F        2 00000316 00000001     H    3272 3249B
 $$$62F        2 0000034A 00000001     H    3346 3285B 3297B
 $$$66F        2 000003DE 00000001     H    3483 3467B
 $$$68F        2 000004AE 00000001     H    3783 3618B 3773B
 $$$68S        2 00000436 00000001     H    3587 3782B
 $$$70F        2 00000490 00000001     H    3735 3723B
 $$$72F        2 000004A0 00000001     H    3759 3747B
 $$$88B        4 0000069C 00000001     I    4369 4385
 $$$88F        2 000006AA 00000001     H    4382 4369B 4384
 $$$89E        2 000006AE 00000001     H    4392 4386
 $$$89F        2 000006BA 00000001     H    4416 4388B
 $$$92F        2 0000081A 00000001     H    4671 4658B
 $$$93B        4 00000856 00000001     I    4732 4747
 $$$93F        2 00000862 00000001     H    4744 4732B 4746
 $$$94E        2 00000866 00000001     H    4754 4748
 $$$94F        2 0000086E 00000001     H    4763 4750B
 $$$96F        2 000008DA 00000001     H    4860 4844B
 $$$97B        4 00000994 00000001     I    5066 5083
 $$$97F        2 000009A0 00000001     H    5078 5054B 5066B 5080
 $$$98B        4 0000098C 00000001     I    5054 5081
 $$$99E        2 000009A4 00000001     H    5090 5082  5084
 $$$99F        2 000009E4 00000001     H    5181 5086B
 #VFSHA1M      1 00001310 00000001     R    7482 2664
 #VFSHA1T      4 00001311 00000001     C    7483 7482
 #VFSHA2M      1 00001315 00000001     R    7484 2683
 #VFSHA2T      4 00001316 00000001     C    7485 7484
 #VFSHA3M      1 0000131A 00000001     R    7486 2690
 #VFSHA3T     17 0000131B 00000001     C    7487 7486
 #VFSHA4M      1 0000132C 00000001     R    7488 2736
 #VFSHA4T     10 0000132D 00000001     C    7489 7488
 #VFSHA5M      1 00001337 00000001     R    7490 2801
 #VFSHA5T     14 00001338 00000001     C    7491 7490
 #VFSHA6M      1 00001346 00000001     R    7492 2820
 #VFSHA6T     11 00001347 00000001     C    7493 7492
 #VFSHA7M      1 00001352 00000001     R    7494 2839
 #VFSHA7T     11 00001353 00000001     C    7495 7494
 #VFSHA8M      1 0000135E 00000001     R    7496 2890
 #VFSHA8T     17 0000135F 00000001     C    7497 7496
 #VFSHA9M      1 00001370 00000001     R    7498 3255
 #VFSHA9T      5 00001371 00000001     C    7499 7498
 #VFSHB0M      1 00001376 00000001     R    7500 3261
 #VFSHB0T      4 00001377 00000001     C    7501 7500
 #VFSHB1M      1 0000137B 00000001     R    7502 3267  7594
 #VFSHB1T      1 0000137C 00000001     C    7503 7502
 #VFSHB2M      1 0000137D 00000001     R    7504 3304
 #VFSHB2T      8 0000137E 00000001     C    7505 7504
 #VFSHB3M      1 00001386 00000001     R    7506 3341  7560  7620
 #VFSHB3T      2 00001387 00000001     C    7507 7506
 #VFSHB4M      1 00001389 00000001     R    7508 3415  7610
 #VFSHB4T      5 0000138A 00000001     C    7509 7508
 #VFSHB5M      1 0000138F 00000001     R    7510 3477
 #VFSHB5T     12 00001390 00000001     C    7511 7510
 #VFSHB6M      1 0000139C 00000001     R    7512 3500
 #VFSHB6T      7 0000139D 00000001     C    7513 7512
 #VFSHB7M      1 000013A4 00000001     R    7514 3574
1VFSH     (VFSH00) (09:47) (22MAR04) Ordinary Symbol and Literal Cross Reference                                            Page   63
 #VFSHB7T     21 000013A5 00000001     C    7515 7514
 #VFSHB8M      1 000013BA 00000001     R    7516 3664  7597  7615
 #VFSHB8T      2 000013BB 00000001     C    7517 7516
 #VFSHB9M      1 000013BD 00000001     R    7518 3730
 #VFSHB9T      8 000013BE 00000001     C    7519 7518
 #VFSHC0M      1 000013C6 00000001     R    7520 3754
 #VFSHC0T     10 000013C7 00000001     C    7521 7520
 #VFSHC1M      1 000013D1 00000001     R    7522 4126
 #VFSHC1T     13 000013D2 00000001     C    7523 7522
 #VFSHC2M      1 000013DF 00000001     R    7524 4251
 #VFSHC2T      8 000013E0 00000001     C    7525 7524
 #VFSHC3M      1 000013E8 00000001     R    7526 4301
 #VFSHC3T     16 000013E9 00000001     C    7527 7526
 #VFSHC4M      1 000013F9 00000001     R    7528 4418
 #VFSHC4T     17 000013FA 00000001     C    7529 7528
 #VFSHC5M      1 0000140B 00000001     R    7530 4540
 #VFSHC5T      8 0000140C 00000001     C    7531 7530
 #VFSHC6M      1 00001414 00000001     R    7532 4580
 #VFSHC6T      7 00001415 00000001     C    7533 7532
 #VFSHC7M      1 0000141C 00000001     R    7534 4641
 #VFSHC7T      8 0000141D 00000001     C    7535 7534
 #VFSHC8M      1 00001425 00000001     R    7536 4720
 #VFSHC8T     11 00001426 00000001     C    7537 7536
 #VFSHC9M      1 00001431 00000001     R    7538 4739
 #VFSHC9T      8 00001432 00000001     C    7539 7538
 #VFSHD0M      1 0000143A 00000001     R    7540 4758
 #VFSHD0T     10 0000143B 00000001     C    7541 7540
 #VFSHD1M      1 00001445 00000001     R    7542 4855
 #VFSHD1T      3 00001446 00000001     C    7543 7542
 #VFSHD2M      1 00001449 00000001     R    7544 4897
 #VFSHD2T     17 0000144A 00000001     C    7545 7544
 #VFSHD3M      1 0000145B 00000001     R    7546 4902
 #VFSHD3T      2 0000145C 00000001     C    7547 7546
 #VFSHD4M      1 0000145E 00000001     R    7548 4940
 #VFSHD4T     15 0000145F 00000001     C    7549 7548
 #VFSHD5M      1 0000146E 00000001     R    7550 5002  7563  7616
 #VFSHD5T      3 0000146F 00000001     C    7551 7550
 #VFSHD6M      1 00001472 00000001     R    7552 5040
 #VFSHD6T      7 00001473 00000001     C    7553 7552
 #VFSHD7M      1 0000147A 00000001     R    7554 5073
 #VFSHD7T      7 0000147B 00000001     C    7555 7554
 #VFSHD8M      1 00001482 00000001     R    7556 5093
 #VFSHD8T      3 00001483 00000001     C    7557 7556
 #VFSHD9M      1 00001486 00000001     R    7558 5136  7619
 #VFSHD9T      5 00001487 00000001     C    7559 7558
 #VFSHE0M      1 00001386 00000001     U    7560 5183
 #VFSHE1M      1 0000148C 00000001     R    7561 5193  7621
 #VFSHE1T     15 0000148D 00000001     C    7562 7561
 #VFSHE2M      1 0000146E 00000001     U    7563 5242
 #VFSHE3M      1 0000149C 00000001     R    7564 5303
 #VFSHE3T      9 0000149D 00000001     C    7565 7564
 #VFSHE4M      1 000014A6 00000001     R    7566 5382
 #VFSHE4T      3 000014A7 00000001     C    7567 7566
 #VFSHE5M      1 000014AA 00000001     R    7568 5387
 #VFSHE5T      9 000014AB 00000001     C    7569 7568
 #VFSHE6M      1 000014B4 00000001     R    7570 5399
 #VFSHE6T      5 000014B5 00000001     C    7571 7570
 #VFSHE7M      1 000014BA 00000001     R    7572 5421
 #VFSHE7T      4 000014BB 00000001     C    7573 7572
1VFSH     (VFSH00) (09:47) (22MAR04) Ordinary Symbol and Literal Cross Reference                                            Page   64
 #VFSHE8M      1 000014BF 00000001     R    7574 5424
 #VFSHE8T      1 000014C0 00000001     C    7575 7574
 #VFSHE9M      1 000014C1 00000001     R    7576 5463
 #VFSHE9T      4 000014C2 00000001     C    7577 7576
 #VFSHF0M      1 000014C6 00000001     R    7578 5509
 #VFSHF0T     10 000014C7 00000001     C    7579 7578
 #VFSHF1M      1 000014D1 00000001     R    7580 5528
 #VFSHF1T      9 000014D2 00000001     C    7581 7580
 #VFSHF2M      1 000014DB 00000001     R    7582 5537
 #VFSHF2T      4 000014DC 00000001     C    7583 7582
 #VFSHF3M      1 000014E0 00000001     R    7584 5542
 #VFSHF3T      8 000014E1 00000001     C    7585 7584
 #VFSHF4M      1 000014E9 00000001     R    7586 5547
 #VFSHF4T      5 000014EA 00000001     C    7587 7586
 #VFSHF5M      1 000014EF 00000001     R    7588 5552
 #VFSHF5T      8 000014F0 00000001     C    7589 7588
 #VFSHF6M      1 000014F8 00000001     R    7590 5558
 #VFSHF6T     11 000014F9 00000001     C    7591 7590
 #VFSHF7M      1 00001504 00000001     R    7592 5564
 #VFSHF7T     13 00001505 00000001     C    7593 7592
 #VFSHF8M      1 0000137B 00000001     U    7594 5610
 #VFSHF9M      1 00001512 00000001     R    7595 5684
 #VFSHF9T     11 00001513 00000001     C    7596 7595
 #VFSHG0M      1 000013BA 00000001     U    7597 5825
 #VFSHG1M      1 0000151E 00000001     R    7598 5830
 #VFSHG1T     11 0000151F 00000001     C    7599 7598
 #VFSHG2M      1 0000152A 00000001     R    7600 5871
 #VFSHG2T      7 0000152B 00000001     C    7601 7600
 #VFSHG3M      1 00001532 00000001     R    7602 5895
 #VFSHG3T     10 00001533 00000001     C    7603 7602
 #VFSHG4M      1 0000153D 00000001     R    7604 5919
 #VFSHG4T      8 0000153E 00000001     C    7605 7604
 #VFSHG5M      1 00001546 00000001     R    7606 5943
 #VFSHG5T      5 00001547 00000001     C    7607 7606
 #VFSHG6M      1 0000154C 00000001     R    7608 5967
 #VFSHG6T      7 0000154D 00000001     C    7609 7608
 #VFSHG7M      1 00001389 00000001     U    7610 6026
 #VFSHG8M      1 00001554 00000001     R    7611 6068
 #VFSHG8T     10 00001555 00000001     C    7612 7611
 #VFSHG9M      1 0000155F 00000001     R    7613 6303
 #VFSHG9T     15 00001560 00000001     C    7614 7613
 #VFSHH0M      1 000013BA 00000001     U    7615 6465
 #VFSHH1M      1 0000146E 00000001     U    7616 6814
 #VFSHH2M      1 0000156F 00000001     R    7617 6852
 #VFSHH2T     12 00001570 00000001     C    7618 7617
 #VFSHH3M      1 00001486 00000001     U    7619 6898
 #VFSHH4M      1 00001386 00000001     U    7620 6939
 #VFSHH5M      1 0000148C 00000001     U    7621 6957
 #VFSHH6M      1 0000157C 00000001     R    7622 6983
 #VFSHH6T      2 0000157D 00000001     C    7623 7622
 #VFSHH7M      1 0000157F 00000001     R    7624 7033
 #VFSHH7T      5 00001580 00000001     C    7625 7624
 #VFSHH8M      1 00001585 00000001     R    7626 7038
 #VFSHH8T      6 00001586 00000001     C    7627 7626
 #VFSHH9M      1 0000158C 00000001     R    7628 7043
 #VFSHH9T      5 0000158D 00000001     C    7629 7628
 #VFSHI0M      1 00001592 00000001     R    7630 7065
 #VFSHI0T      7 00001593 00000001     C    7631 7630
 #VFSHI1M      1 0000159A 00000001     R    7632 7090
1VFSH     (VFSH00) (09:47) (22MAR04) Ordinary Symbol and Literal Cross Reference                                            Page   65
 #VFSHI1T      8 0000159B 00000001     C    7633 7632
 #VFSHI2M      1 000015A3 00000001     R    7634 7161
 #VFSHI2T      2 000015A4 00000001     C    7635 7634
 #VFSHI3M      1 000015A6 00000001     R    7636 7189
 #VFSHI3T     28 000015A7 00000001     C    7637 7636
 #VFSHI4M      1 000015C3 00000001     R    7638 7199
 #VFSHI4T     24 000015C4 00000001     C    7639 7638
 #VFSHI5M      1 000015DC 00000001     R    7640 7222
 #VFSHI5T     16 000015DD 00000001     C    7641 7640
 #VFSHI6M      1 000015ED 00000001     R    7642 7227
 #VFSHI6T     15 000015EE 00000001     C    7643 7642
 #VFSHI7M      1 000015FD 00000001     R    7644 7247
 #VFSHI7T      9 000015FE 00000001     C    7645 7644
 #VFSHI8M      1 00001607 00000001     R    7646 7312
 #VFSHI8T     15 00001608 00000001     C    7647 7646
 #VFSHI9M      1 00001617 00000001     R    7648 7316
 #VFSHI9T     20 00001618 00000001     C    7649 7648
 #VFSHJ0M      1 0000162C 00000001     R    7650 7323
 #VFSHJ0T     21 0000162D 00000001     C    7651 7650
 #VFSHJ1M      1 00001642 00000001     R    7652 7330
 #VFSHJ1T     43 00001643 00000001     C    7653 7652
 #VFSHJ2M      1 0000166E 00000001     R    7654 7336
 #VFSHJ2T     47 0000166F 00000001     C    7655 7654
 #VFSHJ3M      1 0000169E 00000001     R    7656 7356
 #VFSHJ3T     17 0000169F 00000001     C    7657 7656
 @QR           0 00000000 FFFFFFFA     @    1052 3384M 3388M
 @R0           0 00000000 FFFFFFFE     @     707  983U
 @R1           0 00000000 FFFFFFFD     @     720  979U 3004  6190  6549  6749M 7117  7124  7149  7151  7153  7155
 @R10          0 00000000 FFFFFFF4     @     837  943U
 @R11          0 00000000 FFFFFFF3     @     850  939U
 @R12          0 00000000 FFFFFFF2     @     863  935U
 @R13          0 00000000 FFFFFFF1     @     876  931U
 @R14          0 00000000 FFFFFFF0     @     889  927U 4552U 5752U
 @R15          0 00000000 FFFFFFEF     @     902  923U 2964U
 @R2           0 00000000 FFFFFFFC     @     733  975U 6801U
 @R3           0 00000000 FFFFFFFB     @     746  971U 6861U
 @R4           0 00000000 FFFFFFFA     @     759  967U 3042U 3380U 5717U 6278U 6291U 6972U
 @R5           0 00000000 FFFFFFF9     @     772  963U
 @R6           0 00000000 FFFFFFF8     @     785  959U
 @R7           0 00000000 FFFFFFF7     @     798  955U 2482U
 @R8           0 00000000 FFFFFFF6     @     811  951U
 @R9           0 00000000 FFFFFFF5     @     824  947U
 @SR           0 00000000 FFFFFFFC     @    1026 3000  3001  3257  3263  4182  4187  4197  4619  4621  4624  6301  6327
 ACCT          6 00000007 FFFFFFED     C    1836 4189  4621  4624  6717  6718  6749  6750  6769  7470
 ACCTINC       4 0000116A 00000001     I    7193 4601B
 BADACCT       2 00001214 00000001     H    7340 6693B 6697B
 BASE          1 0000003C 00000001     U    2511 2485U 2494U 2565  2565
 BLOCKS        2 00000502 00000001     H    3962 7688  7744
 BR            7 00000007 00000001 A   #    1084 2474M 2485U 7201B 7224B 7229B 7249B 7314B 7325B 7332B 7338B 7358B
 BRR           6 00000006 00000001 A   #    1071 2474M 2494U 2505  7367M 7368B
 BTD           1 00000000 00000005     T    7442 7442
 BTX           1 00000000 00000007     T    7448 7448
 CATCOMM       2 00000EC0 00000001     H    6513 6502
 CATNULL       2 00000EDC 00000001     I    6565 6498  6504  6506  6526B
 CATSCKWS      1 00000E88 00000001     R    6498 6417
 CFROM         2 00000D80 00000001     H    6208 7752
 CHECKFOR      4 00000EEE 00000001     I    6603 4072B 4489B 4771B
 CKACCT        2 00000F56 00000001     H    6701 7709
 CKFNDACC      2 00000F3A 00000001     H    6691 7703  7707
1VFSH     (VFSH00) (09:47) (22MAR04) Ordinary Symbol and Literal Cross Reference                                            Page   66
 CKFNDFIL      2 00000F26 00000001     H    6664 6703B 6705B
 CKFORTBL      1 0000171C 00000001     R    7701 7457
 CKSHACCT      2 0000080C 00000001     H    4649 4491B
 CKVALACC      4 00000F66 00000001     I    6706 6695B 6698B
 CKVALFIL      4 00000F34 00000001     I    6687 7705
 CKVALFOR      2 00000F12 00000001     H    6637 7701
 CLIKE         2 00000D44 00000001     H    6092 7748
 CLW        1560 00000000 FFFFFFEE     J    1496 2443U
 CLWACCT       6 000003B0 FFFFFFEE     C    1482 1483  1484  4404  4411
 CLWFCERR    128 00000208 FFFFFFEE         1237 3530M
 CLWFL         1 00000207 FFFFFFEE     R    1213 1217  1222  1227
 CLWFLG        1 00000208 FFFFFFEE     R    1233 1237  1242  1247  1252  1257  1262  1267
 CLWGROUP      2 000003B0 FFFFFFEE     C    1484 4577  4600  4616  6748
 CLWKWCB       4 000002C4 FFFFFFEE     F    1458 1469  2639  2712  2776  2865  4097  4348  4514  4696  4792  4966  5219
                                                 5637  6354  6370  6405  6424  6603  6624  6655  6682  6733
 CLWKWKW       8 000002C8 FFFFFFEE     C    1460 4479  6375
 CLWMFL        1 0000020A FFFFFFEE     R    1318 1322  1327  1332  1337  1342  1347  1352  1357
 CLWMONF       1 0000020B FFFFFFEE     R    1363 1367  1372  1377  1382
 CLWNTRAP      1 00000008 FFFFFFEE A   N    1440 1441
 CLWOBUF       2 00000118 FFFFFFEE     H    1207 1209  7308M 7308
 CLWPFL        1 00000209 FFFFFFEE     R    1273 1277  1282  1287  1292  1297  1302  1307  1312
 CLWQRET       4 00000358 FFFFFFEE     F    1477 2505M
 CLWR         10 0000000A 00000001 A   #    1123 2443U
 CLWSFL        1 0000020C FFFFFFEE     R    1388 1392  1397
 CLWTEMP       8 000002E8 FFFFFFEE     D    1471 3321  3644  4877  4920  5020  5116  5159  5441  5587  6375M 6439  6832
                                                 6878  6919  7129  7149M 7150  7151M 7152M 7153M 7154M 7155M 7172
 CLWUSER       3 000003B3 FFFFFFEE     C    1483 4575  4598  4618
 CUNLIKE       2 00000D54 00000001     H    6126 7750
 DALICD        1 00000040 FFFFFFEB A   U    2383 5827
 DALINAM       8 00000008 FFFFFFEB     C    2382 2385  5827  5841
 DATED         2 000004C0 00000001     H    3826 7676
 DBCT          3 0000000D FFFFFFEB     R    2398 6800
 DENTRY        1 00000000 FFFFFFEB     J    2380 2401  5720U 6792U
 DENTSIZ       1 00000010 FFFFFFEB A   U    2401 2410  5697
 DFBN          3 0000000A FFFFFFEB     R    2397 6860
 DFLG1         1 00000008 FFFFFFEB     X    2386 2396  2396  2400  2400  5863  5887  5911  5935  5959
 DFL1M31       1 00000004 FFFFFFEB A   U    2392 5957
 DFL1PAG       1 00000001 FFFFFFEB A   U    2393 5933
 DFL1PRV       1 00000008 FFFFFFEB A   U    2391 5909
 DFL1REF       1 00000010 FFFFFFEB A   U    2390 5885
 DFL1SHR       1 00000020 FFFFFFEB A   U    2389 5861
 DIRB          1 00000000 FFFFFFEA     J    2406 2411  5707U
 DIRBDENT     16 00000010 FFFFFFEA     C    2410 5709
 DNAME         8 00000000 FFFFFFEB     C    2381 5722  5815  6051  6086
 DONECAT       2 00000E84 00000001     H    6494 6310B 6312B 6490B
 DOSHP         2 0000058E 00000001     I    4139 4448B 4465B
 DOSHPUB       2 0000060A 00000001     I    4227 4153B 4211B 4218B 4310B
 DTBLOFMT      2 0000051E 00000001     H    4028 7692  7746
 EMPTY         4 000009F6 00000001     I    5193 5000B
 EXIT          2 00000044 00000001     H    2518 2514B
 FILELOOP      4 00000230 00000001     I    3000 3373B 3395B
 FILESHOW      4 00000016 00000001     I    2457 2455
 FILEXIT       2 000011B2 00000001     H    7251 2588B 2752B 2897B 3065B 3370B 3531B 3581B 3784B 4268B 4294B 4305B 4592B
                                                 4645B 5695B 6082B 6084B 6495B 7097B 7281B 7309B
 FMTCARD       4 00000AE6 00000001     I    5463 5395B
 FMTDATE       1 00000000 0000000D     T    7459 7459
 FMTEDIT       4 00000B1A 00000001     I    5537 5339B
 FMTLDFIL      4 00000B3E 00000001     I    5552 5284B
 FMTLNDA       4 00000AC6 00000001     I    5424 5414B
1VFSH     (VFSH00) (09:47) (22MAR04) Ordinary Symbol and Literal Cross Reference                                            Page   67
 FMTLRECL      2 00000A9A 00000001     H    5392 5321B
 FMTLRENI      2 00000AFA 00000001     H    5491 5482B
 FMTPRINT      4 00000B32 00000001     I    5547 5397B
 FMTSEGE       2 00000B76 00000001     H    5608 5460B 5488B 5534B 5539B 5544B 5549B 5554B
 FMTSEGL       2 00000AB6 00000001     H    5403 5384B 5389B
 FMTSEGV       4 00000B26 00000001     I    5542 5357B
 FMTSHEX       2 00000B62 00000001     I    5567 5560B
 FMTUINF       2 00000B4A 00000001     I    5556 5248B
 FMTUND        4 00000A8E 00000001     I    5387 5375B
 FMTUSER       2 00000B58 00000001     I    5562 5263B
 FOR           2 00000F6C 00000001     H    6713 4105B 4356B 4799B
 FORACT        1 00000000 00000014     T    7667 7728
 FORMAT        2 00000510 00000001     H    3995 7690
 FORPUB        1 00000000 00000012     T    7665 7724
 FORRET        4 00000FD8 00000001     I    6775 6763B
 FORTBL2       1 00001742 00000001     X    7712 7444
 FORTBL3       1 00001751 00000001     R    7719 7445
 FORTBL4       1 0000175C 00000001     R    7724 7458
 FORTBL5       1 0000176E 00000001     R    7731 7447
 FORUSG        6 00000FBA 00000001     I    6749 6747B
 FORUSR        4 00000FAC 00000001     I    6746 6742B
 FSUB#COM      1 00000000 0000000E     T    7460 7460
 GETCLW        1 00000000 00000008     T    7451 7451
 GG            2 00000013 FFFFFFED     C    1840 4182  4185  4185  4187  4575  4577  4598  4600  4616  4617M 4618M 6696
 GOSUB         2 00001224 00000001     H    7362 2508B 2623B 2647B 2657B 2661B 2668B 2696B 2719B 2729B 2733B 2740B 2760B
                                                 2784B 2794B 2798B 2805B 2922B 2931B 2994B 3080B 3122B 3207B 3391B 3419B
                                                 3455B 3474B 3486B 3497B 3907B 4081B 4108B 4119B 4123B 4137B 4193B 4222B
                                                 4317B 4377B 4429B 4498B 4521B 4533B 4537B 4596B 4611B 4638B 4666B 4680B
                                                 4703B 4713B 4717B 4724B 4826B 4830B 4852B 4950B 4974B 4984B 4988B 4997B
                                                 5097B 5140B 5203B 5226B 5230B 5234B 5246B 5669B 5673B 5677B 5681B 5688B
                                                 6030B 6057B 6061B 6065B 6072B 6268B 6298B 6385B 6772B 7196B 7254B
 GOTNKWR       1 00000000 00000011     T    7664 7736  7738  7740  7742
 GPW       12288 00000000 FFFFFFED     X    2369 2597U
 GPWAACCT      6 0000000D FFFFFFED     C    1838 4319M 4374  4602M 4635
 GPWACCT       6 00000007 FFFFFFED     C    1837 4182  4185  4219  4319  4598  4600  4602  4616M 4617M 4618M 4619  4849
                                                 6717M 6750  7193
 GPWAFILE    158 0000012C FFFFFFED     X    2341 2359
 GPWAFN       44 00000164 FFFFFFED     C    2358 2957M 3521  6086  6181M 6190M 6740
 GPWAFNL       1 0000012E FFFFFFED     X    2344 2966M 3041  5751  6180M
 GPWBLK        2 0000001A FFFFFFED     R    1848 1849
 GPWBUFA       4 00000038 FFFFFFED     A    1865 1867  2998  3393  4161  4615
 GPWDIRAE      4 00000048 FFFFFFED     A    1870 5698
 GPWDIRAL      4 00000044 FFFFFFED     A    1869 6265M
 GPWDIRAP      4 00000040 FFFFFFED     A    1868 5699  6264M 6294  6300
 GPWFAACC      2 00000003 FFFFFFED         1717 4332M 4368  4608M
 GPWFACC       4 00000003 FFFFFFED         1708 4173  4208  4326M 4486M 4657  4843
 GPWFATT     128 0000008C FFFFFFED         1897 3198  3494M
 GPWFCB      158 0000008C FFFFFFED     X    2336 2341  2359  6382M 6382
 GPWFERS     128 00000003 FFFFFFED         1627 3118M 3174M 3223  3408M 3430  6019M 6041
 GPWFFREE    128 00000000 FFFFFFED         1523 3106M 3188M 3451M 3517M
 GPWFGRP       2 000000C8 FFFFFFED     C    2018 2957  3521
 GPWFHYBR      8 00000002 FFFFFFED         1613 3296  5065
 GPWFID        1 0000008D FFFFFFED     X    1931 4551
 GPWFILE       4 0000008C FFFFFFED     F    1886 2336  2336
 GPWFILN      44 000000C4 FFFFFFED     C    2017 2018  2019  2020  2021  3001  3001M 3002  3003  3003  3382
 GPWFN        44 0000005F FFFFFFED     C    1880 3257  3263  3710  7463
 GPWFNAM      33 000000CF FFFFFFED     C    2020 2982M 2983  2983M 2983
 GPWFNCOM     16 00000003 FFFFFFED         1681 6523  6584M
 GPWFNIXR     16 00000002 FFFFFFED         1608 5053
1VFSH     (VFSH00) (09:47) (22MAR04) Ordinary Symbol and Literal Cross Reference                                            Page   68
 GPWFNL        1 0000008E FFFFFFED     X    1932 2910  2963  3009M 3379  4523  5643
 GPWFNSF      16 00000001 FFFFFFED         1568 2654M 2726M 2791M 4116M 4530M 4710M 4981M
 GPWFPUB       8 00000003 FFFFFFED         1699 4150  4239  4809  5654  6574M 6760
 GPWFQIET      4 00000001 FFFFFFED         1578 7293
 GPWFWDS       4 0000001C FFFFFFED     A    1850 1856
 GPWGFL        1 00000000 FFFFFFED     R    1519 1523  1528  1533  1538  1543
 GPWGPFL       1 00000006 FFFFFFED     R    1793 1797  1802  1807  1812  1817  1822  1827  1832
 GPWGRP        2 00000058 FFFFFFED     C    1876 6717  6718M 6743  6746  6748M 6749  6750M
 GPWHCNT       4 000001CC FFFFFFED     F    2360 3302
 GPWHXBUF   2048 00000800 FFFFFFED     X    2367 6320  6342
 GPWKWFL       1 00000003 FFFFFFED     R    1619 1627  1636  1645  1654  1663  1672  1681  1690  1699  1708  1717  1726
                                                 1735
 GPWLFLAG      1 000000B4 FFFFFFED     R    1951 1955  1960  1965  1970  1975  1980  1985  1990
 GPWLMF1       1 000000A0 FFFFFFED     X    1939 1941  1941  1945  1945
 GPWLMN        8 00000090 FFFFFFED     C    1937 1944  1944  6051M
 GPWLMNL       1 0000008F FFFFFFED     R    1936 6050M
 GPWLWDS       4 00000020 FFFFFFED     A    1851 1857
 GPWMSGA       4 00000020 FFFFFFED     U    1857 6474
 GPWMSGL       4 0000001C FFFFFFED     C    1856 6393M 6393  6458M 6458  6479  6558M
 GPWPERM       1 00000005 FFFFFFED     X    1784 1785  1786  1787  1788  1789  2742M 4162M 4189M 4217  4229M 4248  4274M
                                                 4582M 4624M 4625  4627M
 GPWPFFL       1 0000008C FFFFFFED     R    1893 1897  1902  1907  1912  1917  1922  1927
 GPWPRFL       1 00000001 FFFFFFED     R    1549 1553  1558  1563  1568  1573  1578  1583
 GPWPRFL2      1 00000002 FFFFFFED     R    1589 1593  1598  1603  1608  1613
 GPWPRMAP      2 00000005 FFFFFFED         1786 7054
 GPWPRMEX      8 00000005 FFFFFFED         1789 2749M 4281M 4589M 4634M 7080
 GPWPRMRD      1 00000005 FFFFFFED         1785 7021
 GPWPRMWR      7 00000005 FFFFFFED         1788 4291  7002
 GPWR         12 0000000C 00000001 A   #    1136 2597U
 GPWRBL        2 00000036 FFFFFFED     R    1862 1863
 GPWSFATT      4 00000004 FFFFFFED         1770 2880  3951M
 GPWSFBLO      2 00000004 FFFFFFED         1775 3093  3093  3094  3133  3284  3800  3800  3801  3984M 4054  4054  4056
                                                 4056  5982
 GPWSFDT      64 00000004 FFFFFFED         1750 3248  3554  3554  3556  3556  3558  3558  3561  3561  3830M 4054  4054
                                                 4055  4055  4057M
 GPWSFER     128 00000004 FFFFFFED         1745 3356  3554  3554  3555  3555  3557  3557  3560  3560  3564  3815M 3970
                                                 4003  4036  6004
 GPWSFFL       1 00000004 FFFFFFED     R    1741 1745  1750  1755  1760  1765  1770  1775  1780
 GPWSFFMT      1 00000004 FFFFFFED         1780 3093  3093  3155  3800  3800  4017M 4055  4055  4056  4056
 GPWSFFRO      8 00000004 FFFFFFED         1765 2949  2949  2950  2950  3560  3560  3561  3561  3562  3562  3563  3563
                                                 3854  3854  3855  3855  3888  3888  3889  3889  3926  3926  3927  3927
                                                 3942M 5738  5738  5739  5739  6105  6105  6106  6106  6139  6139  6140
                                                 6140  6221  6221  6222  6222  6237M
 GPWSFLK      32 00000004 FFFFFFED         1755 2948  2948  2949  2949  2951  3026  3026  3027  3054  3555  3555  3556
                                                 3556  3559  3559  3562  3562  3853  3853  3854  3854  3856  3870M 3887
                                                 3887  3888  3888  3890  3925  3925  3926  3926  3928  5737  5737  5738
                                                 5738  5740  5762  6104  6104  6105  6105  6107  6121M 6138  6138  6139
                                                 6139  6141  6220  6220  6221  6221  6223
 GPWSFUNL     16 00000004 FFFFFFED         1760 2948  2948  2950  2950  2976  3026  3026  3557  3557  3558  3558  3559
                                                 3559  3563  3563  3853  3853  3855  3855  3887  3887  3889  3889  3904M
                                                 3925  3925  3927  3927  5737  5737  5739  5739  5785  6104  6104  6106
                                                 6106  6138  6138  6140  6140  6155M 6220  6220  6222  6222
 GPWSTART      8 00000000 FFFFFFED     D    1516 2362  2362  2365  2369  2369
 GPWSUSER      3 00000013 FFFFFFED     C    1842 1844  1844
 GPWTST        1 000001D4 FFFFFFED     U    2364 2366
 GPWUIDA      32 000000B8 FFFFFFED         2000 5411
 GPWUIFE       1 000000B8 FFFFFFED         2006 5336
 GPWUIFI       2 000000B8 FFFFFFED         2005 5478  5478
 GPWUIFLR      4 000000B8 FFFFFFED         2003 5318
1VFSH     (VFSH00) (09:47) (22MAR04) Ordinary Symbol and Literal Cross Reference                                            Page   69
 GPWUIFMT      1 000000B8 FFFFFFED     R    1997 1998  1999  2000  2001  2002  2003  2004  2005  2006  2007  2008
 GPWUIFN       1 000000B8 FFFFFFED         2004 5478  5478  5479  5501
 GPWUIFV       2 000000B8 FFFFFFED         2007 5354
 GPWUILDF     64 000000B8 FFFFFFED         1999 5280  5280
 GPWUILIB    128 000000B8 FFFFFFED         1998 3466  5280  5280  5281
 GPWUILRC      2 000000BA FFFFFFED     R    2010 5393  5430
 GPWUIMSK    127 000000B8 FFFFFFED         2008 5260
 GPWUIUND     16 000000B8 FFFFFFED         2001 5372
 GPWUSER       3 0000005B FFFFFFED     C    1878 6741  6745M
 HIBAL         1 00000000 FFFFFFFF     J     692  708   721   734   747   760   773   786   799   812   825   838   851
                                                  864   877   890   903
 KWFNOPT       1 00000000 00000010     T    7663 6508  7669  7696  7712  7726  7760
 LIBROPT       1 00001779 00000001     R    7736 7449
 LIKE          2 000004C6 00000001     H    3841 7680
 LIKENAME      4 000004E2 00000001     I    3907 3871B 3943B
 MISSING       4 00001196 00000001     I    7227 4524B 4672B 6744B 7204B
 NOCANDO       2 00001208 00000001     H    7334 3804B 3973B 4006B 4039B
 NOCOM         2 00000EE8 00000001     H    6580 7758
 NOCORE        2 000011FC 00000001     H    7328 6263B
 NOMEM         4 0000115E 00000001     I    7189 4311B 4471B
 NOTLIKE       4 0000027C 00000001     I    3070 3057B
 OSFDSORG      1 000000FF FFFFFFED     R    2085 2093  2102  2111  2121
 OSFFDISP      1 000000FE FFFFFFED     R    2034 2042  2051  2060  2069  2079
 OSFFLAG       1 00000107 FFFFFFED     R    2278 2286  2295  2304  2313  2323
 OSFPBDS       4 000000C4 FFFFFFED     F    2027 2334  2334
 OSFRECFM      1 00000100 FFFFFFED     R    2127 2135  2144  2153  2162  2171  2180  2189  2199
 OSFSPTYP      1 00000106 FFFFFFED     R    2209 2217  2226  2235  2244  2253  2262  2272
 PCATERR       2 000011F0 00000001     H    7321 6333B 6429B 6510
 PCATPTR       4 00000000 FFFFFFEC     A    2373 6283
 PRGCAT        1 00000000 FFFFFFEC     J    2372 6281U
 QIETEXIT      2 000011C6 00000001     H    7283 7318B
 QR            4 00000004 00000001 A   #    1045 3002M 3008M 3009  3041M 3044M 3064  3070  3379M 3381  3382M 3382  4140M
                                                 4227  4228M 4229  4308  5699M 5707U 5709M 5720U 6053  6054  6054  6054
                                                 6076M 6083M 6270M 6281U 6285M 6301  6609M 6643  6670  6784M 6792U 7469
                                                 7469  7469
 QUIET         1 00000000 00000013     T    7666 7694
 RAR           9 00000009 00000001 A   #    1110 2508M 2572M 2573M 2573B 2623M 2647M 2657M 2661M 2665M 2668M 2684M 2691M
                                                 2696M 2719M 2729M 2733M 2737M 2740M 2751M 2760M 2784M 2794M 2798M 2802M
                                                 2805M 2821M 2840M 2891M 2895M 2896M 2896B 2922M 2931M 2994M 3080M 3122M
                                                 3141M 3163M 3207M 3256M 3259M 3262M 3265M 3268M 3305M 3339M 3342M 3368M
                                                 3369M 3369B 3391M 3412M 3413M 3413B 3416M 3419M 3455M 3474M 3478M 3486M
                                                 3497M 3501M 3575M 3579M 3580M 3580B 3662M 3665M 3711M 3731M 3755M 3763M
                                                 3764M 3764B 3907M 4072M 4081M 4105M 4108M 4119M 4123M 4127M 4133M 4134M
                                                 4134B 4137M 4193M 4196M 4222M 4225M 4252M 4254M 4302M 4304M 4317M 4356M
                                                 4377M 4412M 4419M 4425M 4426M 4426B 4429M 4489M 4498M 4521M 4533M 4537M
                                                 4541M 4581M 4591M 4596M 4611M 4638M 4642M 4644M 4666M 4680M 4703M 4713M
                                                 4717M 4721M 4724M 4740M 4759M 4771M 4799M 4826M 4830M 4852M 4856M 4895M
                                                 4898M 4903M 4938M 4941M 4950M 4974M 4984M 4988M 4990M 4993  4997M 5003M
                                                 5038M 5041M 5074M 5094M 5097M 5134M 5137M 5140M 5177M 5184M 5189M 5190B
                                                 5194M 5203M 5226M 5230M 5234M 5236M 5239  5243M 5246M 5304M 5383M 5388M
                                                 5400M 5422M 5425M 5459M 5464M 5510M 5529M 5538M 5543M 5548M 5553M 5559M
                                                 5565M 5605M 5611M 5614M 5615B 5669M 5673M 5677M 5681M 5685M 5688M 5693M
                                                 5694M 5694B 5823M 5826M 5831M 5849M 5872M 5896M 5920M 5944M 5968M 5990M
                                                 6023M 6024M 6024B 6027M 6030M 6057M 6061M 6065M 6069M 6072M 6080M 6081M
                                                 6081B 6261M 6262M 6262B 6268M 6298M 6304M 6308M 6309M 6309B 6330M 6331M
                                                 6331B 6385M 6447M 6466M 6480M 6488M 6489M 6489B 6634B 6661B 6688B 6707B
                                                 6715  6772M 6776M 6777B 6782  6783  6783  6783  6815M 6850M 6853M 6896M
                                                 6899M 6937M 6940M 6958M 6965M 6966B 6980  6984M 6990  7034M 7039M 7044M
                                                 7066M 7091M 7095M 7096M 7096B 7100M 7101B 7108  7162M 7180M 7183M 7184B
1VFSH     (VFSH00) (09:47) (22MAR04) Ordinary Symbol and Literal Cross Reference                                            Page   70
                                                 7190M 7196M 7200M 7220M 7223M 7228M 7245M 7248M 7254M 7273M 7279M 7280M
                                                 7280B 7313M 7317M 7324M 7331M 7337M 7354M 7357M 7364  7366  7366  7366
                                                 7375  7392M 7393M 7393B 7396M 7397B 7404  7427M 7428M 7428B 7431M 7432B
                                                 7472  7472  7472
 R0            0 00000000 FFFFFFFF A   #     700 2496  2919M 3710M 4411M 4626  4821M 5666M 5822M 5848M 6160  6172M 6177
                                                 6265  6294M 6295M 6446M 6479M 6543  6551M 6553M 6558  6608  6769M 7124M
                                                 7179M 7203M 7203  7410M
 R1            1 00000001 FFFFFFFF A   #     713 2626M 2699M 2742  2763M 2852M 2918M 2996  3003M 3006M 3257M 3263M 3394
                                                 3624  3703M 4084M 4190M 4219M 4335M 4374M 4404M 4462M 4462  4501M 4626M
                                                 4627  4635M 4683M 4779M 4820M 4849M 4953M 5206M 5556  5562  5624M 5665M
                                                 5815M 5841M 5988M 6264  6270  6293M 6334  6439M 6474M 6549M 6558  6575M
                                                 6576B 6611M 6720M 6740M 6784  7128M 7128  7150M 7172M 7193M 7411M
 R14          14 0000000E FFFFFFFF A   #     882 4445M 4445  4613M 4622M 5751M 5769  5792  5800
 R15          15 0000000F FFFFFFFF A   #     895 2555M 2963M 2965M 2966  3302M 4073B 4772B 5393M 5394  5396  5567M 6633M
                                                 6633  6660M 6687M 6706M 7129M
 R4            4 00000004 FFFFFFFF A   #     752 5988
 SAVLIKE       2 00000D60 00000001     H    6157 6122B 6238B
 SCAN          1 00000000 00000003     T    7438 7438
 SCINIT        1 00000000 0000000A     T    7453 7453
 SCRET         2 00001180 00000001     I    7203 2644B 2781B 2870B 4102B 4353B 4797B 4971B 5642B 6629B 6738B
 SCTELL        1 00000000 0000000C     T    7456 7456
 SEG           4 00001234 00000001     I    7375 3339B 3662B 3711B 4412B 4895B 4938B 5038B 5134B 5177B 5459B 5605B 5823B
                                                 5849B 6447B 6480B 6850B 6896B 6937B 7180B 7220B 7245B 7273B 7354B
 SEG#BLKS      4 00000FE2 00000001     I    6782 5990B
 SEGAPRIV      2 0000106C 00000001     H    6978 4196B 4225B
 SEGBLKS       4 00000952 00000001     I    4993 3141B
 SEGBLKSE      2 000009EC 00000001     H    5186 5195B
 SEGDATE       2 000010F8 00000001     H    7106 3259B 3265B
 SEGFMT        4 00000A2C 00000001     I    5239 3163B
 SEGPRIV       2 00001080 00000001     H    6988 2751B 4254B 4304B 4591B 4644B
 SEGPRIVN      2 00001088 00000001     H    6994 6985B
 SETALL        4 000010AC 00000001     I    7038 7005B
 SETAO         4 000010C8 00000001     I    7065 7030B
 SETNONE       4 000010A0 00000001     I    7033 7011B
 SETPUB        1 00000000 0000000B     T    7455 7455
 SETRO         4 000010B8 00000001     I    7043 7024B
 SETUPRTN      2 00000082 00000001     H    2600 2510B
 SGPREX        2 000010D4 00000001     H    7070 7035B 7040B 7057B 7067B
 SGPRWR        4 000010E4 00000001     I    7095 7083B
 SHACACLP      6 000007C8 00000001     I    4619 4622B
 SHACCACC      4 00000784 00000001     I    4596 4493B
 SHACCDIF      6 0000079E 00000001     I    4602 4599B
 SHACCESS      2 000006E2 00000001     H    4477 2605B
 SHACCFIL      4 00000708 00000001     I    4498 4492B 4494B
 SHACCFND      6 000007DE 00000001     I    4624 4620B
 SHACCGO       4 000006F0 00000001     I    4489 4480B
 SHACNFND      4 000007E4 00000001     I    4625 4614B 4623B
 SHACNOWN      6 00000772 00000001     I    4582 4576B 4578B
 SHBLKACC      4 000008B0 00000001     I    4826 4775B
 SHBLKACN      4 00000898 00000001     I    4799 7731
 SHBLKNAC      4 000008B6 00000001     I    4830 4773B 4812B
 SHBLOCKF      2 00000920 00000001     H    4947 4774B
 SHBLOCKS      2 00000872 00000001     H    4769 2606B
 SHCLP         2 000000B2 00000001     H    2620 2607B
 SHCONTEN      2 00000B88 00000001     H    5622 2608B
 SHFASKER      2 00000392 00000001     H    3401 3359B
 SHFATT        2 000004FC 00000001     H    3947 7686
 SHFBLRET      2 000002C4 00000001     H    3177 2549B
 SHFCLC        6 0000040A 00000001     I    3521 3064X 3070X
1VFSH     (VFSH00) (09:47) (22MAR04) Ordinary Symbol and Literal Cross Reference                                            Page   71
 SHFCONT       2 00000284 00000001     H    3073 3030B 3067B
 SHFERASE      2 000004B2 00000001     H    3790 7678  7754
 SHFERRET      2 000003FA 00000001     H    3506 2531B
 SHFEXIT       2 00000410 00000001     H    3525 2997B 3396B
 SHFFNSCN      4 00000242 00000001     I    3004 3008B
 SHFFNSC1      4 00000250 00000001     I    3009 3007B
 SHFILATT      2 00000418 00000001     H    3536 2883B
 SHFILEMA      4 00000106 00000001     I    2696 2609B
 SHFILES       2 000001A6 00000001     H    2850 2604B 3909B
 SHFILFRO      2 000004EC 00000001     H    3913 7684
 SHFILTBL      1 000016B8 00000001     R    7676 7439
 SHFNEXT       2 0000035C 00000001     H    3372 3066B 3071B 3226B 3433B 3519B
 SHFORMAT      2 00000A02 00000001     H    5200 2610B
 SHFSEN        4 0000021C 00000001     I    2994 3385B
 SHFSENX       2 0000037A 00000001     H    3387 3383B
 SHMCLC        6 00000D3E 00000001     I    6086 5769X 5792X 5800X
 SHOWPCAT      2 00000DE2 00000001     I    6311 6491B 6500
 SHPERACC      4 0000066A 00000001     I    4317 4076B
 SHPERACF      4 0000067E 00000001     I    4335 4077B
 SHPERACN      4 00000694 00000001     I    4356 7719
 SHPERACO      2 00000698 00000001     H    4360 4074B 4354B
 SHPERFFR      4 00000560 00000001     I    4105 7714
 SHPERFIL      4 00000544 00000001     I    4081 4075B
 SHPERFL2      4 00000564 00000001     I    4108 4103B
 SHPERMIT      2 0000052C 00000001     H    4070 2611B
 SHPFLMSK      2 00000630 00000001     H    4257 4249B
 SHPGRP        6 000005D2 00000001     I    4189 4176B 4186B
 SHPLOOP       2 000005A8 00000001     H    4165 4198B
 SHPNEXT       4 000005E4 00000001     I    4197 4183B 4188B
 SHPNOMEM      4 00000658 00000001     I    4307 4160B
 SHPNONE       4 000005F4 00000001     I    4217 4184B
 SHPPUBLC      4 00000624 00000001     I    4251 4242B
 SHPROGLE      4 00000D36 00000001     I    6083 5723B 5770B 5793B 5801B 6044B
 SHPROGLP      4 00000BF2 00000001     I    5722 6083B
 SHPROGRA      2 00000B88 00000001     H    5620 2612B
 SHPROGSG      4 00000C38 00000001     I    5815 5771B 5794B
 SHPROGWR      4 00000D2C 00000001     I    6080 5850B 6007B
 SHPROMEM      2 00000C6C 00000001     H    5852 5828B
 SHPRONAM      4 00000BB8 00000001     I    5673 5644B
 SHPROPUB      2 00000D90 00000001     H    6243 5657B
 SHPRPUB       2 00000EDE 00000001     H    6570 7756
 SHSHARE       2 0000081E 00000001     H    4677 2613B
 SHSPIFIL      2 0000014E 00000001     H    2757 2614B
 SR            2 00000002 00000001 A   #    1019 2496M 2555  2998M 2999M 3000M 3119  3213M 3393M 3452  3518M 3582M 3601
                                                 3624M 3630  3671  4161M 4185  4189  4190  4197M 4227M 4274  4307M 4308M
                                                 4309  4615M 4621M 4832M 4866  4999M 5009  5556M 5562M 5567  5697M 6053
                                                 6054  6054  6054  6076M 6083  6177M 6179M 6180  6183  6283M 6284  6295M
                                                 6300M 6311  6334M 6782  6783  6783  6783  6800M 6821  6900  6965M 7364
                                                 7366  7366  7366  7469  7469  7469  7472  7472  7472
 TR            3 00000003 00000001 A   #    1032 2497M 2556  2603B 2996M 3119  3213M 3373M 3394M 3395M 3452  3518M 4139M
                                                 4159M 4159  4198M 4833M 4899M 4899  4909  5698M 6283M 6284M 6285  6293
                                                 6301M 6311  6608M 6648  6675  6860M 6867  6900M 6902M 6908
 TYPEIT        1 00000000 00000002     T    7436 7436
 TYPERR        4 00000070 00000001     I    2572 2515B
 UNLIKE        2 000004D6 00000001     H    3875 7682
 UNPRS         1 00000000 00000009     T    7452 7452
 UNREC         2 000011A2 00000001     H    7239 3567B 3859B 3893B 3931B 4822B 6110B 6144B 6226B 7671  7698  7716  7721
                                                 7733  7762
 USRGPTBL      1 000016B0 00000001     X    7669 7437
1VFSH     (VFSH00) (09:47) (22MAR04) Ordinary Symbol and Literal Cross Reference                                            Page   72
 UUU           3 00000013 FFFFFFED     C    1839 4185  4187  4575  4598  4618  6694  6704  6745
 VFMSG         4 000011E4 00000001     I    7316 3502B
 VFSH          1 00000000 00000001     J     994  996  1027  1040  1053  1066  1079  1092  1105  1118  1131  1144  1497
                                                 2435
 VFSH#SEG      2 0000124C 00000001     H    7402 2665B 2684B 2691B 2737B 2802B 2821B 2840B 2891B 3256B 3262B 3268B 3305B
                                                 3342B 3416B 3478B 3501B 3575B 3665B 3731B 3755B 4127B 4252B 4302B 4419B
                                                 4541B 4581B 4642B 4721B 4740B 4759B 4856B 4898B 4903B 4941B 5003B 5041B
                                                 5074B 5094B 5137B 5184B 5194B 5243B 5304B 5383B 5388B 5400B 5422B 5425B
                                                 5464B 5510B 5529B 5538B 5543B 5548B 5553B 5559B 5565B 5611B 5685B 5826B
                                                 5831B 5872B 5896B 5920B 5944B 5968B 6027B 6069B 6304B 6466B 6815B 6853B
                                                 6899B 6940B 6958B 6984B 7034B 7039B 7044B 7066B 7091B 7162B 7190B 7200B
                                                 7223B 7228B 7248B 7313B 7317B 7324B 7331B 7337B 7357B
 VFSHMORG      1 00001310 00000001     U    7479 2664  2683  2690  2736  2801  2820  2839  2890  3255  3261  3267  3304
                                                 3341  3415  3477  3500  3574  3664  3730  3754  4126  4251  4301  4418
                                                 4540  4580  4641  4720  4739  4758  4855  4897  4902  4940  5002  5040
                                                 5073  5093  5136  5183  5193  5242  5303  5382  5387  5399  5421  5424
                                                 5463  5509  5528  5537  5542  5547  5552  5558  5564  5610  5684  5825
                                                 5830  5871  5895  5919  5943  5967  6026  6068  6303  6465  6814  6852
                                                 6898  6939  6957  6983  7033  7038  7043  7065  7090  7161  7189  7199
                                                 7222  7227  7247  7312  7316  7323  7330  7336  7356  7410  7411
 VFSH00        1 00000000 00000001     R    1003 1001
 VMARK         1 00000000 00000006     T    7443 7443
 VSEG          1 00000000 0000000F     T    7461 7461
 VWRITE        1 00000000 00000004     T    7440 7440
 WA            1 00000000 FFFFFFE9     J    2414 2431  2452U
 WADEVFL       1 00000029 FFFFFFE9     X    2422 2425  2425  2427  3685  3722  3746
 WADEVINF     46 00000029 FFFFFFE9     X    2425 3678  4559  4566
 WADEVNM       1 0000002B FFFFFFE9     X    2424 3703  4575  4577
 WADEVPR       1 0000002A FFFFFFE9     X    2423 4582
 WAFL          1 00000028 FFFFFFE9     X    2417 2418  2419  2420  2504M
 WAFSHFBL     64 00000028 FFFFFFE9         2419 2546  2587M 3112M 3182M
 WAFSHFER    128 00000028 FFFFFFE9         2418 2528  2580M 3444M 3511M
 WAFSPA       32 00000028 FFFFFFE9         2420 4265  4436M
 WAR           8 00000008 00000001 A   #    1097 2452U 2505
 WASAVESR      4 0000002C FFFFFFE9     F    2428 3119M 3213  3452M 3518
 WASIZE        1 00000057 FFFFFFE9 A   U    2431 2459
 WRITEXIT      2 000011BC 00000001     H    7275 2692B 2845B 3479B 4764B 4900B 4942B 4990  5236  7191B 7296B
 =A(BASE+4096,BASE)
               4 00000068 00000001     A    2565 2474
 =A(CKFORTBL)
               4 000012CC 00000001     A    7457 6611
 =A(FORTBL2)
               4 00001298 00000001     A    7444 4084
 =A(FORTBL3)
               4 0000129C 00000001     A    7445 4335
 =A(FORTBL4)
               4 000012D0 00000001     A    7458 6720
 =A(FORTBL5)
               4 000012A4 00000001     A    7447 4779
 =A(LIBROPT)
               4 000012AC 00000001     A    7449 5624
 =A(SHFILTBL)
               4 00001284 00000001     A    7439 2852
 =A(USRGPTBL)
               4 0000127C 00000001     A    7437 2626  2699  2763  4501  4683  4953  5206
 =A(2)         4 000012C0 00000001     A    7454 6543
 =A(8)         4 000012B0 00000001     A    7450 6160  6172
 =C'  .   '
               6 000012F6 00000001     C    7471 6718
1VFSH     (VFSH00) (09:47) (22MAR04) Ordinary Symbol and Literal Cross Reference                                            Page   73
 =C' '         1 000012FE 00000001     C    7473 2918
 =C'ACC '      4 000012A0 00000001     C    7446 4479
 =C'PROGLIB'
               7 00001302 00000001     C    7475 5665
 =C'PUB'       3 000012FF 00000001     C    7474 4187  6745
 =C'PUBLIC'
               6 000012E8 00000001     C    7466 4820
 =CL8' '       8 00001270 00000001     C    7435 6181
 =F'56'        4 0000128C 00000001     F    7441 2999
 =V(BTD)       4 00001290 00000001     V    7442 3324  3647  4880  4923  5023  5119  5162  5444  6835  6881  6922
 =V(BTX)       4 000012A8 00000001     V    7448 5590
 =V(FMTDATE)
               4 000012D4 00000001     V    7459 7132
 =V(FSUB#COM)
               4 000012D8 00000001     V    7460 7367
 =V(GETCLW)
               4 000012B4 00000001     V    7451 6261
 =V(SCAN)      4 00001280 00000001     V    7438 2642  2715  2779  2868  4100  4351  4517  4699  4795  4969  5222  5640
                                                 6373  6408  6427  6627  6736
 =V(SCINIT)
               4 000012BC 00000001     V    7453 6357  6658  6685
 =V(SCTELL)
               4 000012C8 00000001     V    7456 6606
 =V(SETPUB)
               4 000012C4 00000001     V    7455 6575
 =V(TYPEIT)
               4 00001278 00000001     V    7436 2572
 =V(UNPRS)
               4 000012B8 00000001     V    7452 6330
 =V(VMARK)
               4 00001294 00000001     V    7443 3412  6023
 =V(VSEG)      4 000012DC 00000001     V    7461 7392  7427
 =V(VWRITE)
               4 00001288 00000001     V    7440 2895  3368  3579  3763  4133  4425  5693  6080  6308  6488  7095  7279
 =XL2'FFF7'
               2 000012E4 00000001     X    7464 4307
 =XL2'0007'
               2 000012E6 00000001     X    7465 4309
 =Y((QR+1-(SR)+16*((SR)/(QR+1))/((SR)/(QR+1)))*4)
               2 000012F2 00000001     Y    7469 6075
 =Y((RAR+1-(SR)+16*((SR)/(RAR+1))/((SR)/(RAR+1)))*4)
               2 000012FC 00000001     Y    7472 6964
 =Y(L'ACCT)
               2 000012F4 00000001     Y    7470 6692  6702
 =Y(L'GPWFN)
               2 000012E2 00000001     Y    7463 3381
 =Y(133)       2 000012F0 00000001     Y    7468 5396
 =Y(4)         2 000012E0 00000001     Y    7462 2965  5188  5613  6775  7099  7182  7395  7430
 =Y(80)        2 000012EE 00000001     Y    7467 5394

1VFSH     (VFSH00) (09:47) (22MAR04) Macro and Copy Code Source Summary                                                     Page   74
- Con Source                                        Volume    Members                        HLASM R4.0  2004/03/22 09.47
0     PRIMARY INPUT                                           BTD      BTX      CSECT    DROP     END      EX
                                                              LSCAN    LTORG    POP      PRINT    PUSH     START
                                                              USING
   L2 WYL.GG.SYS.MACLIB                             SYSB05    $BC      $BFLKUP  $BV      $CCLKUP  $CRS     $CSS     $L
                                                              $LA      $LBLAD   $LEXP    $LOR     $REL     $RGLKUP
                                                              $USLKUP  BASE     BEGIN    CEIL     CLEAR    CSECT    DATA
                                                              DECR     DEFCC    DROP     ELSE     END      EX       FLAG
                                                              GEN      HIBAL    IDENT    IF       LABEL    LC
                                                              LCALL    LCM      LOOP     LS       LTORG    L3       L4
                                                              POP      PRINT    PUSH     RECORD   REG      REGS     SET
                                                              SETMSG   START    SYSLR    SYSQS    USING    VCALL
   L3 WYL.GG.ORV.BC.MACLIB                          SYSB02    CLPSERV  CLW      DENTRY   DIRB     FSCALL   GENMSGS
                                                              GETCLW   GPW      ORVDEFN  OSFPB    PRGCAT   SCAN
                                                              SCANCB   SCINIT   SCKW     SCRTN    SCTELL   SEG
                                                              UNPRS    VENTER   VEXIT    VFSHTAB  VMARK    VPOP
                                                              VPUSH    VREST    VSA      VSAVE    VSEG     VWRITE
                                                              WYLMDWD  XCALL
   L4 SYS3.ORVYL.UMACLIB                            SYSB02    SYSKWT
   L5 SYS3.IS.MACLIB                                SYSB05    SYSDEFN

1         (VFSH00) (09:47) (22MAR04) General Purpose Register Cross Reference                                               Page   75
- Register  References (M=modified, B=branch, U=USING, D=DROP, N=index)                      HLASM R4.0  2004/03/22 09.47
0    0(0)     983U  984D 2496  2556M 2919M 3314M 3314  3608M 3637M 3692M 3710M 4411M 4573M 4625M 4626  4821M 4870M 4870
             4913M 4913  5013M 5013  5109M 5109  5152M 5152  5434M 5434  5580M 5666M 5822M 5848M 6160  6172M 6177  6265
             6294M 6295M 6446M 6479M 6543  6551M 6553M 6558  6608  6648M 6675M 6692  6702  6769M 6825M 6825  6871M 6871
             6912M 6912  7124M 7179M 7203M 7203  7409M 7409  7410M
     1(1)     979U 2626M 2664M 2683M 2690M 2699M 2736M 2742  2763M 2801M 2820M 2839M 2852M 2890M 2918M 2996  3003M 3006M
             3255M 3257M 3261M 3263M 3267M 3304M 3321M 3341M 3394  3415M 3477M 3500M 3574M 3601M 3624  3644M 3664M 3685M
             3703M 3730M 3754M 4084M 4126M 4140  4190M 4219M 4251M 4301M 4335M 4374M 4404M 4418M 4462M 4462  4501M 4540M
             4566M 4580M 4626M 4627  4635M 4641M 4683M 4720M 4739M 4758M 4779M 4820M 4833  4849M 4855M 4877M 4897M 4902M
             4920M 4940M 4953M 4999  5002M 5020M 5040M 5073M 5093M 5105  5116M 5136M 5148  5159M 5183M 5193M 5206M 5242M
             5303M 5382M 5387M 5399M 5421M 5424M 5441M 5463M 5509M 5528M 5537M 5542M 5547M 5552M 5556  5558M 5562  5564M
             5587M 5610M 5624M 5665M 5684M 5815M 5825M 5830M 5841M 5871M 5895M 5919M 5943M 5967M 5988M 6026M 6068M 6251M
             6264  6270  6293M 6295M 6303M 6327M 6334  6342M 6363M 6363  6398M 6398  6417M 6439M 6465M 6474M 6549M 6558
             6575M 6576B 6609  6611M 6643M 6670M 6694  6696  6704  6720M 6740M 6784  6814M 6832M 6852M 6878M 6898M 6919M
             6939M 6957M 6983M 7033M 7038M 7043M 7065M 7090M 7128M 7128  7150M 7161M 7172M 7189M 7193M 7199M 7222M 7227M
             7247M 7312M 7316M 7323M 7330M 7336M 7356M 7410N 7411M 7411N
     2(2)     975U 2457  2496M 2555  2560M 2998M 2999M 3000M 3119  3213M 3393M 3452  3518M 3582M 3601  3624M 3630  3671
             4161M 4185  4189  4190  4197M 4227M 4274  4307M 4308M 4309  4615M 4621M 4832M 4866  4999M 5009  5556M 5562M
             5567  5697M 6053  6076M 6083  6177M 6179M 6180  6183  6283M 6284  6295M 6300M 6311  6334M 6782  6797D 6799M
             6799  6800M 6821  6900  6965M 7364
     3(3)     971U 2457  2497M 2556  2560M 2603N 2996M 3119  3213M 3373M 3394M 3395M 3452  3518M 4139M 4159M 4159  4198M
             4833M 4899M 4899  4909  5698M 6053  6076M 6083  6283M 6284M 6285  6293  6295M 6301M 6311  6608M 6648  6675
             6782  6857D 6859M 6859  6860M 6861U 6867  6900M 6902M 6908  6965M 7364
     4(4)     967U 2457  2560M 3002M 3008M 3009  3038D 3040M 3040  3041M 3042U 3044M 3064  3070  3376D 3378M 3378  3379M
             3380U 3381  3382M 3382N 4140M 4227  4228M 4229  4308  5699M 5707U 5709M 5717U 5720U 5988  6053  6076M 6083M
             6270M 6278U 6281U 6285M 6291U 6301N 6609M 6643  6670  6782  6784M 6792U 6965M 6972U 7364
     5(5)     963U 2457  2560M 6782  6965M 7364
     6(6)     959U 2457  2474M 2505  2560M 6782  6965M 7364  7367M 7368B
     7(7)     955U 2457  2462M 2472U 2474M 2482U 2485U 2505  2560M 6782  6965M 7201  7224  7229  7249  7314  7325  7332
             7338  7358  7364
     8(8)     951U 2452U 2457  2458M 2505  2559  2560M 6782  6965M 7364  7365M
     9(9)     947U 2457  2508M 2560M 2562B 2572M 2573M 2573B 2623M 2647M 2657M 2661M 2665M 2668M 2684M 2691M 2696M 2719M
             2729M 2733M 2737M 2740M 2751M 2760M 2784M 2794M 2798M 2802M 2805M 2821M 2840M 2891M 2895M 2896M 2896B 2922M
             2931M 2994M 3080M 3122M 3141M 3163M 3207M 3256M 3259M 3262M 3265M 3268M 3305M 3339M 3342M 3368M 3369M 3369B
             3391M 3412M 3413M 3413B 3416M 3419M 3455M 3474M 3478M 3486M 3497M 3501M 3575M 3579M 3580M 3580B 3662M 3665M
             3711M 3731M 3755M 3763M 3764M 3764B 3907M 4072M 4081M 4105M 4108M 4119M 4123M 4127M 4133M 4134M 4134B 4137M
             4193M 4196M 4222M 4225M 4252M 4254M 4302M 4304M 4317M 4356M 4377M 4412M 4419M 4425M 4426M 4426B 4429M 4489M
             4498M 4521M 4533M 4537M 4541M 4581M 4591M 4596M 4611M 4638M 4642M 4644M 4666M 4680M 4703M 4713M 4717M 4721M
             4724M 4740M 4759M 4771M 4799M 4826M 4830M 4852M 4856M 4895M 4898M 4903M 4938M 4941M 4950M 4974M 4984M 4988M
             4990M 4993  4997M 5003M 5038M 5041M 5074M 5094M 5097M 5134M 5137M 5140M 5177M 5184M 5189M 5190B 5194M 5203M
             5226M 5230M 5234M 5236M 5239  5243M 5246M 5304M 5383M 5388M 5400M 5422M 5425M 5459M 5464M 5510M 5529M 5538M
             5543M 5548M 5553M 5559M 5565M 5605M 5611M 5614M 5615B 5669M 5673M 5677M 5681M 5685M 5688M 5693M 5694M 5694B
             5823M 5826M 5831M 5849M 5872M 5896M 5920M 5944M 5968M 5990M 6023M 6024M 6024B 6027M 6030M 6057M 6061M 6065M
             6069M 6072M 6080M 6081M 6081B 6261M 6262M 6262B 6268M 6298M 6304M 6308M 6309M 6309B 6330M 6331M 6331B 6385M
             6447M 6466M 6480M 6488M 6489M 6489B 6634B 6661B 6688B 6707B 6715  6772M 6776M 6777B 6782  6815M 6850M 6853M
             6896M 6899M 6937M 6940M 6958M 6965M 6966B 6980  6984M 6990  7034M 7039M 7044M 7066M 7091M 7095M 7096M 7096B
             7100M 7101B 7108  7162M 7180M 7183M 7184B 7190M 7196M 7200M 7220M 7223M 7228M 7245M 7248M 7254M 7273M 7279M
             7280M 7280B 7313M 7317M 7324M 7331M 7337M 7354M 7357M 7364  7375  7392M 7393M 7393B 7396M 7397B 7404  7427M
             7428M 7428B 7431M 7432B
    10(A)     943U 2443U 2457  2560M
    11(B)     939U 2457  2560M
    12(C)     935U 2597U
    13(D)     931U 2457  2458  2459M 2459  2559M 2560  4993  4994M 4994  5188M 5189  5239  5240M 5240  5613M 5614  6053
             6054M 6054  6075M 6076  6715  6716M 6716  6775M 6776  6782  6783M 6783  6964M 6965  6980  6981M 6981  6990
             6991M 6991  7099M 7100  7108  7109M 7109  7182M 7183  7364  7365  7366M 7366  7375  7376M 7376  7395M 7396
             7404  7405M 7405  7430M 7431
1         (VFSH00) (09:47) (22MAR04) General Purpose Register Cross Reference                                               Page   76
    14(E)     927U 2642M 2643M 2643B 2715M 2716M 2716B 2779M 2780M 2780B 2868M 2869M 2869B 3324M 3325M 3325B 3647M 3648M
             3648B 3671M 3822B 3837B 3958B 3991B 4024B 4064B 4100M 4101M 4101B 4139  4351M 4352M 4352B 4445M 4445  4517M
             4518M 4518B 4548D 4550M 4550  4551M 4552U 4613M 4613  4622M 4699M 4700M 4700B 4795M 4796M 4796B 4832  4880M
             4881M 4881B 4923M 4924M 4924B 4969M 4970M 4970B 5023M 5024M 5024B 5119M 5120M 5120B 5162M 5163M 5163B 5222M
             5223M 5223B 5444M 5445M 5445B 5590M 5591M 5591B 5640M 5641M 5641B 5748D 5750M 5750  5751M 5752U 5769  5792
             5800  6204B 6357M 6358M 6358B 6373M 6374M 6374B 6408M 6409M 6409B 6427M 6428M 6428B 6565B 6590B 6606M 6607M
             6607B 6627M 6628M 6628B 6658M 6659M 6659B 6685M 6686M 6686B 6736M 6737M 6737B 6835M 6836M 6836B 6881M 6882M
             6882B 6922M 6923M 6923B 7132M 7133M 7133B
    15(F)     923U 2497  2555M 2561M 2561  2639M 2712M 2776M 2865M 2960D 2962M 2962  2963M 2964U 2965M 2966  3302M 3596M
             3630M 3678M 4073N 4097M 4348M 4490N 4514M 4559M 4696M 4772N 4792M 4866M 4909M 4966M 5009M 5105M 5148M 5219M
             5393M 5394  5396  5430M 5567M 5637M 6258M 6320M 6354M 6370M 6405M 6424M 6603M 6624M 6633M 6633  6655M 6660M
             6682M 6687M 6706M 6733M 6821M 6867M 6908M 7129M

1VFSH     (VFSH00) (09:47) (22MAR04) Diagnostic Cross Reference and Assembler Summary                                       Page   77
-                                                                                            HLASM R4.0  2004/03/22 09.47
0     No Statements Flagged in this Assembly
 HIGH LEVEL ASSEMBLER, 5696-234, RELEASE 4.0, PTF UQ57391
0SYSTEM: OS/390 02.10.00            JOBNAME: PJG#VFSH    STEPNAME: ASM        PROCSTEP: (NOPROC)
0Datasets Allocated for this Assembly
  Con DDname   Dataset Name                                 Volume  Member
   P1 SYSIN    SYS04082.T094738.RA000.PJG#VFSH.INPUT.H01    SCR100
   L1 SYSLIB   SYS3.DUMMYMAC                                SYSB02
   L2          WYL.GG.SYS.MACLIB                            SYSB05
   L3          WYL.GG.ORV.BC.MACLIB                         SYSB02
   L4          SYS3.ORVYL.UMACLIB                           SYSB02
   L5          SYS3.IS.MACLIB                               SYSB05
      SYSLIN   WYL.GG.PJG.OBJ                               SYSB05  VFSH
      SYSPRINT SYS04082.T094738.RA000.PJG#VFSH.PRINT.H01    SCR100
      SYSTERM  GG$PJG.PJG#VFSH.JOB05983.D0000103.?

    7812K allocated to Buffer Pool,         1213K would be required for this to be an In-Storage Assembly
    1169 Primary Input Records Read         4415 Library Records Read                  0 Work File Reads
       0 ASMAOPT Records Read               5056 Primary Print Records Written         0 Work File Writes
     142 Punch Records Written                 0 ADATA Records Written
0Assembly Start Time: 09.47.40 Stop Time: 09.47.44 Processor Time: 00.00.01.8988
 Return Code 000
