1                        J E S 2  J O B  L O G  --  S Y S T E M  S Y S B  --  N O D E  R L G
0
 09.48.43 JOB05995 ---- MONDAY,    22 MAR 2004 ----
 09.48.43 JOB05995  ICH70001I GG$PJG   LAST ACCESS AT 09:48:18 ON MONDAY, MARCH 22, 2004
 09.48.43 JOB05995  $HASP373 PJG#VMSC STARTED - INIT 2    - CLASS E - SYS SYSB
 09.48.43 JOB05995  ***  HCMD      STEP $$QUIET
 09.48.43 JOB05995  PURGE * Q=OUTPUT MULTIPLE
 09.48.43 JOB05995  JOB PJG#VMSC NOT IN OUTPUT QUEUE
 09.48.44 JOB05995  PJG#VMSC.$$QUIET .         RC=0008 TapeIO=0000 DiskIO=0000 CPU=  .01s Elapsed=23.11s
 09.48.44 JOB05995  PJG#VMSC.$CND    .         RC=Zero TapeIO=0000 DiskIO=0002 CPU=  .01s Elapsed=24.33s
 09.48.44 JOB05995  PJG#VMSC.$UNP    .         RC=Zero TapeIO=0000 DiskIO=0009 CPU=  .05s Elapsed=24.68s
 09.48.53 JOB05995  PJG#VMSC.ASM     .         RC=Zero TapeIO=0000 DiskIO=0455 CPU= 1.36s Elapsed=25.01s
 09.48.55 JOB05995  PJG#VMSC.$EDIT   .         RC=Zero TapeIO=0000 DiskIO=0081 CPU=  .40s Elapsed=33.65s
 09.48.55 JOB05995  PJG#VMSC Ended.  Name=Module: VMSC                   Total CPU= 1.83s Elapsed=23.11s
 09.48.55 JOB05995
 09.48.55 JOB05995  Execution charges   Priority=Standard   Block=Day
 09.48.55 JOB05995
 09.48.55 JOB05995  CPU Usage          33.00          $20.46   Standard Processing Unit Equivalent
 09.48.55 JOB05995                                   =======
 09.48.55 JOB05995                                    $20.46   Total Job execution charge
 09.48.55 JOB05995
 09.48.55 JOB05995  See back separator page for print charges
 09.48.55 JOB05995
 09.48.55 JOB05995  $HASP395 PJG#VMSC ENDED  ASM=0
1        1 //PJG#VMSC JOB PJG$GG,'Module: VMSC',TIME=1,MSGCLASS=C                  JOB05995
           /*JOBPARM HOLD=OUTPUT,LINES=50,CHARS=TN15,NOTIFY=YES
         2 //       EXEC PURGEOLD
         3 XXPURGEOLD PROC
           XX*
           XX* This proc is maintained by Jim Stosick
           XX*
         4 XX$$QUIET  EXEC PGM=HCMDX,PARM='PURGE * Q=OUTPUT MULTIPLE',
           XX         ACCT=(PURGEOLD,SYS3)
         5 //$CND   EXEC PGM=BILBO,REGION=512K,PARM='RECS=100'
         6 //STEPLIB  DD DSN=WYL.GG.ORV.LINKLIB,DISP=SHR
         7 //SYSPRINT DD SYSOUT=$
         8 //SYSUT1   DD DSN=WYL.GG.PJG.OBJ,DISP=OLD
         9 //SYSUT2   DD DSN=WYL.GG.PJG.OBJ,DISP=OLD
        10 //SYSIN    DD DUMMY
        11 //$UNP   EXEC PGM=WUNPRESS,PARM='NUM'
        12 //SYSPRINT DD SYSOUT=$
        13 //SYSUT1   DD DSN=WYL.GG.ORV.SOURCE.FILEUTIL(VMSC),DISP=SHR
        14 //SYSUT2   DD DSN=&&INPUT,DISP=(,PASS),UNIT=SYSDA,
           //            SPACE=(TRK,(25,25),RLSE),DCB=CARD
        15 //ASM    EXEC PGM=ASMA90,REGION=8M,COND=(0,NE,$UNP),
           //            PARM=('SYSPARM(VMSC),TERM,LANG(EN),OBJ',
           //          'LC(32500),XREF(SHORT),NODECK,NORLD,NODX,NOUS')
           //*STEPLIB  DD DSN=SYS1.SASMMOD1,DISP=SHR
        16 //SYSLIB   DD DSN=SYS3.DUMMYMAC,DISP=SHR,DCB=BLKSIZE=27920
        17 //         DD DSN=WYL.GG.SYS.MACLIB,DISP=SHR
        18 //         DD DSN=WYL.GG.ORV.BC.MACLIB,DISP=SHR
        19 //         DD DSN=SYS3.IS.MACLIB,DISP=SHR
        20 //         DD DSN=SYS1.MACLIB,DISP=SHR
        21 //SYSUT1   DD DSN=&&SYSUT1,UNIT=VIO,DISP=(,DELETE),
           //            SPACE=(4088,(500,250),,CONTIG,ROUND)
        22 //SYSTERM  DD SYSOUT=$
        23 //SYSPRINT DD DSN=&&PRINT,UNIT=SYSDA,DISP=(,PASS),
           //            SPACE=(6650,(250,250),RLSE),
           //            DCB=(BLKSIZE=6650,LRECL=133,RECFM=FB)
        24 //SYSLIN   DD DSN=WYL.GG.PJG.OBJ(VMSC),DISP=OLD
        25 //SYSUDUMP DD SYSOUT=A
        26 //SYSIN    DD DSN=&&INPUT,DISP=(OLD,DELETE)
        27 //$EDIT  EXEC PGM=ASMEDIT,REGION=1M,
           //            COND=EVEN,PARM='STMT,DATA'
        28 //STEPLIB  DD DSN=WYL.GG.SYS.LINKLIB,DISP=SHR
        29 //ASMOUT   DD DSN=&&PRINT,DISP=(OLD,DELETE)
        30 //SYSPRINT DD SYSOUT=A
        31 //SYSUDUMP DD SYSOUT=A
1 STMT NO. MESSAGE
         2 IEFC001I PROCEDURE PURGEOLD WAS EXPANDED USING SYSTEM LIBRARY SYS3.BETAPROC
        14 IGD01010I STORCLAS= TEMP STORGROUP =
        14 IGD01010I STORGRP=VIO ASSIGNED.
        21 IGD01010I STORCLAS= TEMP STORGROUP =
        21 IGD01010I STORGRP=VIO ASSIGNED.
        23 IGD01010I STORCLAS= TEMP STORGROUP =
        23 IGD01010I STORGRP=VIO ASSIGNED.
 ICH70001I GG$PJG   LAST ACCESS AT 09:48:18 ON MONDAY, MARCH 22, 2004
 IEF142I PJG#VMSC $$QUIET - STEP WAS EXECUTED - COND CODE 0008
 *********************************************************************************
 *   PJG#VMSC/$$QUIET /                    Return Code      0008                 *
 *   Region used      260K (16K user + 244K system)                              *
 *   Extended region  9352K (4K user + 9348K system)                             *
 *                                                                               *
 *   Paging              In      Out                                             *
 *   Private <-> Aux      0        0       CPU time (TCB)   00:00:00.01          *
 *   Private <-> Exp      0        0       CPU time (SRB)   00:00:00.00          *
 *   VIO                  0        0       Elapsed time    920:39:09.85          *
 *   Common               0      ---                                             *
 *                                                                               *
 *                                                                               *
 *   CPU Usage          0.18         $0.11  Standard Processing Unit Equivalent  *
 *                                   $0.11  Total Step execution charge          *
 *                                                                               *
 *    I/O count  DDname   Type Addr           I/O count  DDname   Type Addr      *
 *                         *** No I/O for this step ***                          *
 *********************************************************************************
 IEF373I STEP/$$QUIET /START 2004082.0948
 IEF374I STEP/$$QUIET /STOP  2004082.0948 CPU    0MIN 00.01SEC SRB    0MIN 00.00SEC VIRT    16K SYS   244K EXT       4K SYS    9348K
 IEF236I ALLOC. FOR PJG#VMSC $CND
 IEF237I 0401 ALLOCATED TO STEPLIB
 IEF237I JES2 ALLOCATED TO SYSPRINT
 IEF237I 04DC ALLOCATED TO SYSUT1
 IEF237I 04DC ALLOCATED TO SYSUT2
 IEF237I DMY  ALLOCATED TO SYSIN
 IEF142I PJG#VMSC $CND - STEP WAS EXECUTED - COND CODE 0000
 IEF285I   WYL.GG.ORV.LINKLIB                           KEPT
 IEF285I   VOL SER NOS= SYSB01.
 IEF285I   GG$PJG.PJG#VMSC.JOB05995.D0000101.?          SYSOUT
 IEF285I   WYL.GG.PJG.OBJ                               KEPT
 IEF285I   VOL SER NOS= SYSB05.
 IEF285I   WYL.GG.PJG.OBJ                               KEPT
 IEF285I   VOL SER NOS= SYSB05.
 *********************************************************************************
 *   PJG#VMSC/$CND    /                    Return Code      Zero                 *
 *   Region used      280K (16K user + 264K system)                              *
 *   Extended region  9392K (4K user + 9388K system)                             *
 *                                                                               *
 *   Paging              In      Out                                             *
 *   Private <-> Aux      0        0       CPU time (TCB)   00:00:00.01          *
 *   Private <-> Exp      0        0       CPU time (SRB)   00:00:00.00          *
 *   VIO                  0        0       Elapsed time    920:39:08.63          *
 *   Common               0      ---                                             *
 *                                                                               *
 *                                                                               *
 *   CPU Usage          0.18         $0.11  Standard Processing Unit Equivalent  *
 *                                   $0.11  Total Step execution charge          *
 *                                                                               *
 *    I/O count  DDname   Type Addr           I/O count  DDname   Type Addr      *
 *            2  STEPLIB  Disk 0401                   0  SYSPRINT      ----      *
 *            0  SYSUT1   Disk 04DC                   0  SYSUT2   Disk 04DC      *
 *            0  SYSIN         ----                                              *
 *********************************************************************************
 IEF373I STEP/$CND    /START 2004082.0948
 IEF374I STEP/$CND    /STOP  2004082.0948 CPU    0MIN 00.01SEC SRB    0MIN 00.00SEC VIRT    16K SYS   264K EXT       4K SYS    9388K
 IEF236I ALLOC. FOR PJG#VMSC $UNP
 IEF237I JES2 ALLOCATED TO SYSPRINT
 IEF237I 0402 ALLOCATED TO SYSUT1
 IGD101I SMS ALLOCATED TO DDNAME (SYSUT2  )
         DSN (SYS04082.T094843.RA000.PJG#VMSC.INPUT.H01   )
         STORCLAS (TEMP) MGMTCLAS (        ) DATACLAS (        )
         VOL SER NOS= SCR101
 IEF142I PJG#VMSC $UNP - STEP WAS EXECUTED - COND CODE 0000
 IEF285I   GG$PJG.PJG#VMSC.JOB05995.D0000102.?          SYSOUT
 IEF285I   WYL.GG.ORV.SOURCE.FILEUTIL                   KEPT
 IEF285I   VOL SER NOS= SYSB02.
 IGD106I SYS04082.T094843.RA000.PJG#VMSC.INPUT.H01    PASSED,    DDNAME=SYSUT2
 *********************************************************************************
 *   PJG#VMSC/$UNP    /                    Return Code      Zero                 *
 *   Region used      388K (108K user + 280K system)                             *
 *   Extended region  9468K (4K user + 9464K system)                             *
 *                                                                               *
 *   Paging              In      Out                                             *
 *   Private <-> Aux      0        0       CPU time (TCB)   00:00:00.05          *
 *   Private <-> Exp      0        0       CPU time (SRB)   00:00:00.00          *
 *   VIO                  0        0       Elapsed time    920:39:08.28          *
 *   Common               0      ---                                             *
 *                                                                               *
 *                                                                               *
 *   CPU Usage          0.93         $0.57  Standard Processing Unit Equivalent  *
 *                                   $0.57  Total Step execution charge          *
 *                                                                               *
 *    I/O count  DDname   Type Addr           I/O count  DDname   Type Addr      *
 *            0  SYSPRINT      ----                   2  SYSUT1   Disk 0402      *
 *            7  SYSUT2   Disk 04E3                                              *
 *********************************************************************************
 IEF373I STEP/$UNP    /START 2004082.0948
 IEF374I STEP/$UNP    /STOP  2004082.0948 CPU    0MIN 00.05SEC SRB    0MIN 00.00SEC VIRT   108K SYS   280K EXT       4K SYS    9464K
 IEF236I ALLOC. FOR PJG#VMSC ASM
 IEF237I 0402 ALLOCATED TO SYSLIB
 IEF237I 04DC ALLOCATED TO
 IEF237I 0402 ALLOCATED TO
 IEF237I 04DC ALLOCATED TO
 IEF237I 04A0 ALLOCATED TO
 IGD101I SMS ALLOCATED TO DDNAME (SYSUT1  )
         DSN (SYS04082.T094843.RA000.PJG#VMSC.SYSUT1.H01  )
         STORCLAS (TEMP) MGMTCLAS (        ) DATACLAS (        )
         VOL SER NOS= VIO
 IEF237I JES2 ALLOCATED TO SYSTERM
 IGD101I SMS ALLOCATED TO DDNAME (SYSPRINT)
         DSN (SYS04082.T094843.RA000.PJG#VMSC.PRINT.H01   )
         STORCLAS (TEMP) MGMTCLAS (        ) DATACLAS (        )
         VOL SER NOS= SCR101
 IEF237I 04DC ALLOCATED TO SYSLIN
 IEF237I JES2 ALLOCATED TO SYSUDUMP
 IGD103I SMS ALLOCATED TO DDNAME SYSIN
 IEF142I PJG#VMSC ASM - STEP WAS EXECUTED - COND CODE 0000
 IEF285I   SYS3.DUMMYMAC                                KEPT
 IEF285I   VOL SER NOS= SYSB02.
 IEF285I   WYL.GG.SYS.MACLIB                            KEPT
 IEF285I   VOL SER NOS= SYSB05.
 IEF285I   WYL.GG.ORV.BC.MACLIB                         KEPT
 IEF285I   VOL SER NOS= SYSB02.
 IEF285I   SYS3.IS.MACLIB                               KEPT
 IEF285I   VOL SER NOS= SYSB05.
 IEF285I   SYS1.MACLIB                                  KEPT
 IEF285I   VOL SER NOS= MVSBR9.
 IGD105I SYS04082.T094843.RA000.PJG#VMSC.SYSUT1.H01   DELETED,   DDNAME=SYSUT1
 IEF285I   GG$PJG.PJG#VMSC.JOB05995.D0000103.?          SYSOUT
 IGD106I SYS04082.T094843.RA000.PJG#VMSC.PRINT.H01    PASSED,    DDNAME=SYSPRINT
 IEF285I   WYL.GG.PJG.OBJ                               KEPT
 IEF285I   VOL SER NOS= SYSB05.
 IEF285I   GG$PJG.PJG#VMSC.JOB05995.D0000104.?          SYSOUT
 IGD105I SYS04082.T094843.RA000.PJG#VMSC.INPUT.H01    DELETED,   DDNAME=SYSIN
 *********************************************************************************
 *   PJG#VMSC/ASM     /                    Return Code      Zero                 *
 *   Region used      8484K (8192K user + 292K system)                           *
 *   Extended region  9952K (412K user + 9540K system)                           *
 *                                                                               *
 *   Paging              In      Out                                             *
 *   Private <-> Aux      0        0       CPU time (TCB)   00:00:01.30          *
 *   Private <-> Exp      0        0       CPU time (SRB)   00:00:00.06          *
 *   VIO                  0        0       Elapsed time    920:39:07.95          *
 *   Common               0      ---                                             *
 *                                                                               *
 *                                                                               *
 *   CPU Usage         24.37        $15.10  Standard Processing Unit Equivalent  *
 *                                  $15.10  Total Step execution charge          *
 *                                                                               *
 *    I/O count  DDname   Type Addr           I/O count  DDname   Type Addr      *
 *           28  SYSLIB   Disk 0402                 135  SYSLIB   Disk 04DC      *
 *            0  SYSLIB   Disk 0402                   0  SYSLIB   Disk 04DC      *
 *          204  SYSLIB   Disk 04A0                   0  SYSUT1   VIO  ----      *
 *            0  SYSTERM       ----                  78  SYSPRINT Disk 04E3      *
 *            2  SYSLIN   Disk 04DC                   0  SYSUDUMP      ----      *
 *            8  SYSIN    Disk 04E3                                              *
 *********************************************************************************
 IEF373I STEP/ASM     /START 2004082.0948
 IEF374I STEP/ASM     /STOP  2004082.0948 CPU    0MIN 01.30SEC SRB    0MIN 00.06SEC VIRT  8192K SYS   292K EXT     412K SYS    9540K
 IEF236I ALLOC. FOR PJG#VMSC $EDIT
 IEF237I 0402 ALLOCATED TO STEPLIB
 IGD103I SMS ALLOCATED TO DDNAME ASMOUT
 IEF237I JES2 ALLOCATED TO SYSPRINT
 IEF237I JES2 ALLOCATED TO SYSUDUMP
 IEF142I PJG#VMSC $EDIT - STEP WAS EXECUTED - COND CODE 0000
 IEF285I   WYL.GG.SYS.LINKLIB                           KEPT
 IEF285I   VOL SER NOS= SYSB02.
 IGD105I SYS04082.T094843.RA000.PJG#VMSC.PRINT.H01    DELETED,   DDNAME=ASMOUT
 IEF285I   GG$PJG.PJG#VMSC.JOB05995.D0000105.?          SYSOUT
 IEF285I   GG$PJG.PJG#VMSC.JOB05995.D0000106.?          SYSOUT
 *********************************************************************************
 *   PJG#VMSC/$EDIT   /                    Return Code      Zero                 *
 *   Region used      388K (116K user + 272K system)                             *
 *   Extended region  9468K (4K user + 9464K system)                             *
 *                                                                               *
 *   Paging              In      Out                                             *
 *   Private <-> Aux      0        0       CPU time (TCB)   00:00:00.39          *
 *   Private <-> Exp      0        0       CPU time (SRB)   00:00:00.01          *
 *   VIO                  0        0       Elapsed time    920:38:59.31          *
 *   Common               0      ---                                             *
 *                                                                               *
 *                                                                               *
 *   CPU Usage          7.31         $4.53  Standard Processing Unit Equivalent  *
 *                                   $4.53  Total Step execution charge          *
 *                                                                               *
 *    I/O count  DDname   Type Addr           I/O count  DDname   Type Addr      *
 *            2  STEPLIB  Disk 0402                  79  ASMOUT   Disk 04E3      *
 *            0  SYSPRINT      ----                   0  SYSUDUMP      ----      *
 *********************************************************************************
 IEF373I STEP/$EDIT   /START 2004082.0948
 IEF374I STEP/$EDIT   /STOP  2004082.0948 CPU    0MIN 00.39SEC SRB    0MIN 00.01SEC VIRT   116K SYS   272K EXT       4K SYS    9464K
 *********************************************************************************
 *                                                                               *
 *                      S t a n f o r d   U n i v e r s i t y                    *
 *                                                                               *
 *                              *** Job Summary ***                              *
 *                                                                               *
 *   System Id      SYSB                   Input time     09:38:39  Mar 22, 2004 *
 *                                                                               *
 *   System Release SP6.1.0                Start time     09:48:43  Mar 22, 2004 *
 *                                                                               *
 *   Job name       PJG#VMSC               Stop  time     00:00:00  Mar 22, 2004 *
 *                                                                               *
 *   Account        PJG$GG                 Elapsed time  920:39:09.85            *
 *                                                                               *
 *   User Name      Module: VMSC           CPU time       00:00:01.76            *
 *                                                                               *
 *   Job class      E                      SRB Time       00:00:00.07            *
 *                                                                               *
 *********************************************************************************
 IEF375I  JOB/PJG#VMSC/START 2004082.0948
 IEF376I  JOB/PJG#VMSC/STOP  2004082.0948 CPU    0MIN 01.76SEC SRB    0MIN 00.07SEC
1Data set successfully converted from EDIT to FB format
1Assembler Done VMSC No Statements Flagged
1         High Level Assembler Option Summary                   (PTF UQ57391)                                               Page    1
-                                                                                            HLASM R4.0  2004/03/22 09.48
0  No Overriding ASMAOPT Parameters
   Overriding Parameters-  SYSPARM(VMSC),TERM,LANG(EN),OBJ,LC(32500),XREF(SHORT),NODECK,NORLD,NODX,NOUS
   No Process Statements


   Options for this Assembly
0  NOADATA
     ALIGN
   NOASA
     BATCH
     CODEPAGE(047C)
   NOCOMPAT
   NODBCS
 3 NODECK
 3 NODXREF
     ESD
   NOEXIT
     FLAG(0,ALIGN,CONT,NOIMPLEN,NOPAGE0,PUSH,RECORD,NOSUBSTR,USING0)
   NOFOLD
   NOGOFF
   NOINFO
 3   LANGUAGE(EN)
   NOLIBMAC
 3   LINECOUNT(32500)
     LIST(121)
     MXREF(SOURCE)
 3   OBJECT
     OPTABLE(UNI,NOLIST)
   NOPCONTROL
   NOPESTOP
   NOPROFILE
   NORA2
   NORENT
 3 NORLD
     RXREF
     SIZE(MAX)
 3   SYSPARM(VMSC)
 3   TERM(WIDE)
   NOTEST
     THREAD
   NOTRANSLATE
 3 NOUSING
 3   XREF(SHORT)

   No Overriding DD Names

1VMSC     External Symbol Dictionary                                                                                        Page    2
-Symbol   Type   Id     Address  Length     LD ID  Flags Alias-of                            HLASM R4.0  2004/03/22 09.48
0VMSC      SD 00000001 00000000 00000D98             00
 VMSC00    LD          00000000           00000001
 PRCORE    LD          00000016           00000001
 GETCMD    LD          00000114           00000001
 VSEG      LD          000002AA           00000001
 VCNTRL    LD          000002F6           00000001
 VWRITE    LD          0000057C           00000001
 CALCTRK   LD          000005F0           00000001
 CALCRPS   LD          00000632           00000001
 BTX       ER 00000002
 VSEG      ER 00000003
 VWRITE    ER 00000004

1VMSC     ORVYL STYLE BATCH I/O ROUTINES                                                                                    Page    3
0Loc    Object Code    Addr1 Addr2  Stmt Lv Lineno    Source Statement                    (Asmedit 3.3)  HLASM R4.0  2004/03/22 09.48
+___    ______ ____    _____ _____  ____ __ ______    ______ _________
0                                      2       2.     ******************************************************************
                                       3       3.     *                                                                *
                                       4       4.     *      ORVYL/370  RELEASE III - CLASS I - STANFORD PROPRIETARY   *
                                       5       5.     *                                                                *
                                       6       6.     ******************************************************************
-                                      8       8.              HIBAL
-                                    990      10.     *    MODIFICATIONS
                                     991      11.     *
1VMSC     ORVYL STYLE BATCH I/O ROUTINES                                                                                    Page    4
0D-Loc  Object Code    Addr1 Addr2  Stmt Lv Lineno    Source Statement           (Hibal 5, Asmedit 3.3)  HLASM R4.0  2004/03/22 09.48
+_____  ______ ____    _____ _____  ____ __ ______    ______ _________
0000000                00000 00D98   993      13.     VMSC     CSECT
                                     997      14.              IDENT 00
                                    1000             +
                                    1001    01-IDENT +         ENTRY VMSC00
                                    1002             +
 000000 14E5D4E2C3F0F06B            1003    01-IDENT +VMSC00   DC    AL1(20),C'VMSC00,22MAR04,09:48'
                                    1004             +*
-                                   1007      16.              COPY  ORVDEFN
                                    1008             =         SYSDEFN  ,
                                    1009             =         GBLB  &PROTECT
                                    1010             =         GBLC  &MODULE
                                    1011      17.     &MODULE  SETC  'VMSC'
-                                   1013      19.              REGS  ,,SR,TR,QR,RR,PR,BR,WAR,RAR
-                                   1125      21.              MACRO
                                    1126      22.     &L       ERROR &NO,&COND,&MSG
                                    1127      23.     &L       DC    0H'0',AL2(&NO,&COND),C&MSG
                                    1128      24.              MEND
1VMSC     (VMSC00) (09:48) (22MAR04) ORVYL STYLE BATCH I/O ROUTINES                                                         Page    5
0Loc    Object Code    Addr1 Addr2  Stmt Lv Lineno    Source Statement           (Hibal 5, Asmedit 3.3)  HLASM R4.0  2004/03/22 09.48
+___    ______ ____    _____ _____  ____ __ ______    ______ _________
0000000                00000 00018  1131      27.     DVTDSECT DSECT
                                    1132      28.     DVTAREA  DVTAREA ,
 000000                             1133    01-DVTAR +$$$DVT   DS    0F
 000000                             1134    01-DVTAR +DVTDEVCD DS    F                   device code
                                    1135             +
                                    1136    01-DVTAR +DVTOPT   EQU   DVTDEVCD+1,1,C'X'   device options
                                    1137    01-DVTAR +DVTFRPS  EQU   X'10'               - RPS device
                                    1138    01-DVTAR +DVTFOFLO EQU   X'40'               - overflow capability
                                    1139             +
                                    1140    01-DVTAR +DVTCLASS EQU   DVTDEVCD+2,1,C'X'   device class
                                    1141    01-DVTAR +DVTCDUMM EQU   X'00'               - dummy
                                    1142    01-DVTAR +DVTCTAPE EQU   X'80'               - tape
                                    1143    01-DVTAR +DVTCCOMM EQU   X'40'               - communications
                                    1144    01-DVTAR +DVTCDA   EQU   X'20'               - direct access
                                    1145    01-DVTAR +DVTCTP   EQU   X'10'               - teleprocessing
                                    1146    01-DVTAR +DVTCUR   EQU   X'08'               - unit record
                                    1147    01-DVTAR +DVTCJES  EQU   X'01'               - JES (sysin or sysout)
                                    1148             +
                                    1149    01-DVTAR +DVTUTYPE EQU   DVTDEVCD+3,1,C'X'   unit type
                                    1150    01-DVTAR +DVT2301  EQU   X'02'               - 2301 drum
                                    1151    01-DVTAR +DVT23051 EQU   X'06'               - 2305 drum model 1
                                    1152    01-DVTAR +DVT23052 EQU   X'07'               - 2305 drum model 2
                                    1153    01-DVTAR +DVT2314  EQU   X'08'               - 2314/2319 disk
                                    1154    01-DVTAR +DVT3330  EQU   X'09'               - 3330 disk model I
                                    1155    01-DVTAR +DVT3350  EQU   X'0B'               - 3350 disk
                                    1156    01-DVTAR +DVT33301 EQU   X'0D'               - 3330 disk model II
                                    1157    01-DVTAR +DVT3380  EQU   X'0E'               - 3380 disk
                                    1158             +
 000004                             1159    01-DVTAR +DVTMXBLK DS    F                   max block size
                                    1160             +
 000008                             1161    01-DVTAR +DVTNUMC  DS    H                   number of cylinders
 00000A                             1162    01-DVTAR +DVTNUMT  DS    H                   number of tracks
                                    1163             +
 00000C                             1164    01-DVTAR +DVTTRKSZ DS    H                   track size
 00000E                             1165    01-DVTAR +DVTBLKO  DS    X                   keyed block overhead
 00000F                             1166    01-DVTAR +DVTLBLKO DS    X                   keyed block overhead (last)
                                    1167             +
 000010                             1168    01-DVTAR +DVTKEYO  DS    0X                  reduce overhead if no keys
 000010                             1169    01-DVTAR +DVTMODN  DS    X                   modulo factor, for modulo devices
 000011                             1170    01-DVTAR +DVTFLAG  DS    X                   flag byte
                                    1171    01-DVTAR +DVTFMOD  EQU   X'10'               - this is a modulo device (3380)
                                    1172    01-DVTAR +DVTFOHD  EQU   X'08'               - overhead is single half-word
                                    1173    01-DVTAR +DVTFTOL  EQU   X'01'               device needs tolerance factor
 000012                             1174    01-DVTAR +DVTTOL   DS    0H                  tolerance factor for device
 000012                             1175    01-DVTAR +DVTMODO  DS    H                   data overhead, for modulo devices
                                    1176             +*
                                    1177             +*  NOTE: DVTTOL is 512 for devices not having tolerance factor
                                    1178             +*        so DVTFTOL need not be checked before using DVTTOL.
                                    1179             +* NOTE2: Sorry Joe, DVTFTOL must now be checked, DEVTYPE now
                                    1180             +*        returns other info in that field for modulo devices
                                    1181             +*        like the 3380.
                                    1182             +*
 000014                             1183    01-DVTAR +DVTRPSR0 DS    H                   R0 overhead for RPS
 000016                             1184    01-DVTAR +DVTRPSTS DS    X                   total number of sectors
 000017                             1185    01-DVTAR +DVTRPSDS DS    X                   number of data sectors
                                    1186             +
1VMSC     (VMSC00) (09:48) (22MAR04) ORVYL STYLE BATCH I/O ROUTINES                                                         Page    6
0Loc    Object Code    Addr1 Addr2  Stmt Lv Lineno    Source Statement           (Hibal 5, Asmedit 3.3)  HLASM R4.0  2004/03/22 09.48
+___    ______ ____    _____ _____  ____ __ ______    ______ _________
0                                   1187    01-DVTAR +DVTAREA  EQU   $$$DVT,*-$$$DVT,C'X'
1VMSC     (VMSC00) (09:48) (22MAR04) ORVYL STYLE BATCH I/O ROUTINES                                                         Page    7
0D-Loc  Object Code    Addr1 Addr2  Stmt Lv Lineno    Source Statement           (Hibal 5, Asmedit 3.3)  HLASM R4.0  2004/03/22 09.48
+_____  ______ ____    _____ _____  ____ __ ______    ______ _________
0                                   1189      30.              DCBD  DSORG=PS,DEVD=DA
                                    1190             +*                       DCB SYMBOLIC DEFINITION FOR
                                    1191             +*                       PHYSICAL SEQUENTIAL
 000000                00000 00060  1192    01-DCBD  +IHADCB   DSECT ,              DCBPTR                           @ZA05613
                                    1193             +*
                                    1194             +***********************************************************************
                                    1196             +*
                                    1197             +*$MAC(DCBD):
                                    1198             +*
                                    1199             +*  STATUS - OS/390 DFSMS 3.10                                      @LBC
                                    1200             +*
                                    1201             +***********************************************************************
                                    1202    01-DCBD  +DCBBIT0  EQU   128                                             @ZA05613
                                    1203    01-DCBD  +DCBBIT1  EQU   64                                              @ZA05613
                                    1204    01-DCBD  +DCBBIT2  EQU   32                                              @ZA05613
                                    1205    01-DCBD  +DCBBIT3  EQU   16                                              @ZA05613
                                    1206    01-DCBD  +DCBBIT4  EQU   8                                               @ZA05613
                                    1207    01-DCBD  +DCBBIT5  EQU   4                                               @ZA05613
                                    1208    01-DCBD  +DCBBIT6  EQU   2                                               @ZA05613
                                    1209    01-DCBD  +DCBBIT7  EQU   1                                               @ZA05613
                                    1210             +***********************************************************************
                                    1211             +***********************************************************************
                                    1212             +*                       DEVICE INTERFACES
                                    1213             +***********************************************************************
                                    1214             +***********************************************************************
                                    1215             +*                       DIRECT ACCESS DEVICES
                                    1216             +***********************************************************************
 000000                             1217    01-DCBD  +DCBDCBE  DS    A              DCBE ADDRESS ASSOCIATED WITH THIS    @L5A
                                    1218             +*                             DCB IF A DCBE EXISTS. A DCBE EXISTS  @L5A
                                    1219             +*                             IF BOTH DCBH0 AND DCBH1 ARE SET ON.  @L5A
                                    1220             +*                             (DSORG=PS OR PO)                     @L5A
 000004                00004 00000  1221    01-DCBD  +         ORG   DCBDCBE                                             @L5A
 000000                             1222    01-DCBD  +DCBRELAD DS    CL4        --- PARTITIONED ORGANIZATION DATA SET -
                                    1223             +*                             ADDRESS (IN THE FORM TTRN) OF MEMBER
                                    1224             +*                             CURRENTLY USED (UNLESS A DCBE EXISTS
                                    1225             +*                             IN WHICH CASE THIS OFFSET POINTS TO  @L5A
                                    1226             +*                             THE DCBE, SEE DCBDCBE).              @L5A
                                    1227             +*                             IF A DCBE EXISTS, THE TTRN IS STORED @L5A
                                    1228             +*                             IN THE DCBE (DCBERELA). HIERARCHY    @L5A
                                    1229             +*                             BITS DEFINE THE EXISTANCE OF A DCBE. @L5A
                                    1230             +*                         --- SEQUENTIAL DATA SET - ADDRESS OF     @L5A
                                    1231             +*                             DCBE IF ONE EXISTS.                  @L5A
 000004                             1232    01-DCBD  +DCBKEYCN DS    FL1            KEYED BLOCK OVERHEAD CONSTANT
 000005                             1233    01-DCBD  +DCBFDAD  DS    CL8            FULL DISK ADDRESS IN THE FORM OF MBBCCHHR
                                    1234             +*                             OF RECORD THAT WAS JUST READ OR WRITTEN
 00000D                0000D 0000C  1235    01-DCBD  +         ORG   DCBFDAD+7
 00000C                             1236    01-DCBD  +DCBDVTBL DS    0A             SAME AS DCBDVTBA BELOW
 00000C                             1237    01-DCBD  +         DS    X              LAST BYTE OF DCBFDAD
 00000D                             1238    01-DCBD  +DCBDVTBA DS    AL3            ADDRESS OF ENTRY IN I/O DEVICE
                                    1239             +*                             CHARACTERISTICS TABLE FOR DEVICE BEING
                                    1240             +*                             USED
 000010                             1241    01-DCBD  +         DS    FL1            DCBKEYLE - KEY LENGTH OF DATA SET
 000011                             1242    01-DCBD  +         DS    C              DCBDEVT - DEVICE TYPE
                                    1243             +*   FOR MASKS FOR ISAM DIRECT ACCESS, SEE DCBOVDEV IN ISAM SECTION
                                    1244    01-DCBD  +DCBDV311 EQU   X'21'          2311 DISK STORAGE                @ZA46311
                                    1245    01-DCBD  +DCBDV301 EQU   X'22'          2301 PARALLEL DRUM
1VMSC     (VMSC00) (09:48) (22MAR04) ORVYL STYLE BATCH I/O ROUTINES                                                         Page    8
0D-Loc  Object Code    Addr1 Addr2  Stmt Lv Lineno    Source Statement           (Hibal 5, Asmedit 3.3)  HLASM R4.0  2004/03/22 09.48
+_____  ______ ____    _____ _____  ____ __ ______    ______ _________
0                                   1246    01-DCBD  +DCBDV303 EQU   X'23'          2303 SERIAL DRUM
                                    1247    01-DCBD  +DCBDV345 EQU   X'24'          9345 DISK STORAGE FACILITY(NO LONGER @11C
                                    1248             +*                             FOR 2302 DISK STORAGE)               @11A
                                    1249    01-DCBD  +DCBDV321 EQU   X'25'          2321 DATA CELL STORAGE           @ZA46311
                                    1250    01-DCBD  +DCBD1305 EQU   X'26'          2305 DRUM MODEL-1                @ZA46311
                                    1251    01-DCBD  +DCBDV305 EQU   X'27'          2305 DRUM MODEL-2                @ZA46311
                                    1252    01-DCBD  +DCBDV314 EQU   X'28'          2314/2319 DISK STORAGE FACILITY  @ZA46311
                                    1253    01-DCBD  +DCBDV330 EQU   X'29'          3330 DISK STORAGE FACILITY       @ZA46311
                                    1254             +*                             3330 MODEL-1                     @ZA46311
                                    1255             +*                             3330 MODEL-2                     @ZA46311
                                    1256             +*                             3333 MODEL-1                     @ZA46311
                                    1257    01-DCBD  +DCBDV340 EQU   X'2A'          3340/3344 DISK STORAGE FACILITY  @ZA46311
                                    1258    01-DCBD  +DCBDV350 EQU   X'2B'          3350 DISK STORAGE FACILITY       @ZA46311
                                    1259             +*                             MODELS A2, B2, AND C2            @ZA46311
                                    1260    01-DCBD  +DCBDV375 EQU   X'2C'          3375 DISK STORAGE FACILITY           @01A
                                    1261    01-DCBD  +DCBDV331 EQU   X'2D'          3330 MODEL-11 OR 3333 MODEL-11   @ZA46311
                                    1262             +*                             DISK STORAGE FACILITY            @ZA46311
                                    1263    01-DCBD  +DCBDV380 EQU   X'2E'          3380 DISK STORAGE FACILITY           @01A
                                    1264    01-DCBD  +DCBDV390 EQU   X'2F'          3390 DISK STORAGE FACILITY           @08A
 000012                             1265    01-DCBD  +DCBTRBAL DS    H              CODE INDICATING CAPACITY REMAINING ON
                                    1266             +*                             CURRENT TRACK AFTER A WRITE OPERATION.
                                    1267             +*                             VALID WHEN DCBOFLWR IS ON. FIELD IS
                                    1268             +*                             USED BY TRKCALC.                     @L5C
                                    1269             +***********************************************************************
                                    1270             +*                       ACCESS METHOD COMMON INTERFACE
                                    1271             +***********************************************************************
 000014                00014 00010  1272    01-DCBD  +         ORG   IHADCB+16
 000010                             1273    01-DCBD  +DCBRELB  DS    0F             SAME AS DCBREL BELOW
 000010                             1274    01-DCBD  +DCBKEYLE DS    FL1            KEY LENGTH OF DATA SET
 000011                             1275    01-DCBD  +DCBDEVT  DS    0C             DEVICE TYPE
                                    1276    01-DCBD  +DCBDVTRM EQU   X'4F'          TERMINAL.  (DD CONTAINS TERM=TS)
 000011                             1277    01-DCBD  +DCBREL   DS    FL3            NUMBER OF RELATIVE TRACKS OR BLOCKS IN
                                    1278             +*                             THIS DATA SET (BDAM)
 000014                             1279    01-DCBD  +DCBBUFCB DS    0A             ADDRESS OF BUFFER POOL CONTROL BLOCK
 000014                             1280    01-DCBD  +DCBBUFNO DS    FL1            NUMBER OF BUFFERS REQUIRED FOR THIS DATA
                                    1281             +*                             SET.  MAY RANGE FROM 0 TO 255.  IF
                                    1282             +*                             UNBLOCKED SPANNED RECORDS ARE USED,
                                    1283             +*                             NUMBER OF SEGMENT WORK AREAS REQUIRED
                                    1284             +*                             FOR THIS DATA SET.
 000015                             1285    01-DCBD  +DCBBUFCA DS    AL3            ADDRESS OF BUFFER POOL CONTROL BLOCK
 000018                             1286    01-DCBD  +DCBBUFL  DS    H              LENGTH OF BUFFER.  MAY RANGE FROM 0 TO
                                    1287             +*                             32,760.                              @L5C
 00001A                             1288    01-DCBD  +DCBDSORG DS    0BL2           DATA SET ORGANIZATION BEING USED
 00001A                             1289    01-DCBD  +DCBDSRG1 DS    BL1            FIRST BYTE OF DCBDSORG
                                    1290    01-DCBD  +DCBDSGIS EQU   DCBBIT0        IS - INDEXED SEQUENTIAL ORGANIZATION
                                    1291    01-DCBD  +DCBDSGPS EQU   DCBBIT1        PS - PHYSICAL SEQUENTIAL ORGANIZATION
                                    1292    01-DCBD  +DCBDSGDA EQU   DCBBIT2        DA - DIRECT ORGANIZATION
                                    1293    01-DCBD  +DCBDSGCX EQU   DCBBIT3        CX - BTAM OR QTAM LINE GROUP
                                    1294    01-DCBD  +DCBDSGPO EQU   DCBBIT6        PO - PARTITIONED ORGANIZATION
                                    1295    01-DCBD  +DCBDSGU  EQU   DCBBIT7        U  - UNMOVABLE, THE DATA CONTAINS
                                    1296             +*                                  LOCATION DEPENDENT INFORMATION
 00001B                             1297    01-DCBD  +DCBDSRG2 DS    BL1            SECOND BYTE OF DCBDSORG
                                    1298    01-DCBD  +DCBDSGGS EQU   DCBBIT0        GS - GRAPHICS ORGANIZATION
                                    1299    01-DCBD  +DCBDSGTX EQU   DCBBIT1        TX - TCAM LINE GROUP
                                    1300    01-DCBD  +DCBDSGTQ EQU   DCBBIT2        TQ - TCAM MESSAGE QUEUE
                                    1301    01-DCBD  +DCBACBM  EQU   DCBBIT4        ALWAYS 0 IN DCB. ALWAYS 1 IN ACB     @L5C
1VMSC     (VMSC00) (09:48) (22MAR04) ORVYL STYLE BATCH I/O ROUTINES                                                         Page    9
0D-Loc  Object Code    Addr1 Addr2  Stmt Lv Lineno    Source Statement           (Hibal 5, Asmedit 3.3)  HLASM R4.0  2004/03/22 09.48
+_____  ______ ____    _____ _____  ____ __ ______    ______ _________
0                                   1302    01-DCBD  +DCBDSGTR EQU   DCBBIT5        TR - TCAM 3705
 00001C                             1303    01-DCBD  +DCBIOBAD DS    0A             ADDRESS OF IOB WHEN CHAINED SCHEDULING IS
                                    1304             +*                             USED OR FOR 1419/1275
 00001C                             1305    01-DCBD  +DCBICQE  DS    0A             ADDRESS OF ICQE
 00001C                             1306    01-DCBD  +DCBODEB  DS    0A             ADDRESS OF OLD DEB
 00001C                             1307    01-DCBD  +DCBLNP   DS    0FL1           3525 PRINTER LINE POSITION COUNTER
                                    1308             +*                                                                  @07D
 00001C                             1309    01-DCBD  +DCBQSLM  DS    BL1            QSAM LOCATE MODE LOGICAL RECORD INTERFACE
                                    1310             +*                             INDICATOR BYTE FOR UPDAT PROCESSING OF
                                    1311             +*                             SPANNED RECORDS
                                    1312    01-DCBD  +DCB1DVDS EQU   DCBBIT0        ONLY ONE DEVICE IS ALLOCATED TO THIS
                                    1313             +*                             DATA SET
                                    1314    01-DCBD  +DCBUPDCM EQU   DCBBIT1        UPDATE COMPLETE, FREE OLD DEB
                                    1315    01-DCBD  +DCBUPDBT EQU   DCBBIT2+DCBBIT3   UPDATE BITS
                                    1316    01-DCBD  +DCBUPDT  EQU   DCBBIT2        UPDATE TO TAKE PLACE
                                    1317    01-DCBD  +DCBNUPD  EQU   DCBBIT2+DCBBIT3   NO UPDATE TO TAKE PLACE
                                    1318    01-DCBD  +DCBSVDEB EQU   DCBBIT3        OLD DEB ADDRESS MUST BE SAVED
 00001D                             1319    01-DCBD  +DCBIOBAA DS    0AL3           SAME AS DCBIOBAD ABOVE
 00001D                             1320    01-DCBD  +DCBICQEA DS    0AL3           SAME AS DCBICQE ABOVE
 00001D                             1321    01-DCBD  +DCBODEBA DS    AL3            ADDRESS OF OLD DEB
 000020                00020 0001C  1322    01-DCBD  +         ORG   IHADCB+28
 00001C                             1323    01-DCBD  +DCBSVCXL DS    0A             SAME AS DCBSVCXA BELOW
 00001C                             1324    01-DCBD  +         DS    X              RESERVED
 00001D                             1325    01-DCBD  +DCBSVCXA DS    AL3            POINTER TO EXIT LIST OF JES
                                    1326             +*                             C.I. INTERFACE CONTROL SVC
                                    1327             +***********************************************************************
                                    1328             +*                       FOUNDATION EXTENSION
                                    1329             +***********************************************************************
 000020                             1330    01-DCBD  +DCBEODAD DS    0A             SAME AS DCBEODA BELOW
 000020                             1331    01-DCBD  +DCBHIARC DS    0BL1           HIERARCHY BITS
 000020                             1332    01-DCBD  +DCBBFTEK DS    0BL1           BUFFERING TECHNIQUE BITS
 000020                             1333    01-DCBD  +DCBBFALN DS    BL1            BUFFER ALIGNMENT BITS
                                    1334    01-DCBD  +DCBH1    EQU   DCBBIT0        HIERARCHY 1 MAIN STORAGE IF BIT5 IS ZERO.
                                    1335             +*                             DCBE EXISTS IF BIT5 IS ON.           @L5A
                                    1336             +*              INTERPRETATION OF BITS DCBH1 AND DCBH0:             @L5A
                                    1337             +*                 DCBH1 DCBH0                                      @L5A
                                    1338             +*                   0     0   -  NO HIARCHY,  NO DCBE.             @L5A
                                    1339             +*                   1     0   -  HIARCHY=1,   NO DCBE.             @L5A
                                    1340             +*                   0     1   -  HIARCHY=0,   NO DCBE.             @L5A
                                    1341             +*                   1     1   -  NO HIARCHY,  DCBE EXISTS, POINTED @L5A
                                    1342             +*                                             TO BY DCBDCBE        @L5A
                                    1343    01-DCBD  +DCBBFT   EQU   DCBBIT1+DCBBIT2+DCBBIT3 BUFFERING TECHNIQUE
                                    1344    01-DCBD  +DCBBFTA  EQU   DCBBIT1+DCBBIT2   QSAM LOCATE MODE PROCESSING OF SPANNED
                                    1345             +*                             RECORDS - OPEN IS TO CONSTRUCT A RECORD
                                    1346             +*                             AREA IF IT AUTOMATICALLY CONSTRUCTS
                                    1347             +*                             BUFFERS
                                    1348    01-DCBD  +DCBBFTR  EQU   DCBBIT2        FOR BSAM CREATE BDAM PROCESSING OF
                                    1349             +*                             UNBLOCKED SPANNED RECORDS - SOFTWARE
                                    1350             +*                             TRACK OVERFLOW.  FOR BSAM INPUT
                                    1351             +*                             PROCESSING OF UNBLOCKED SPANNED RECORDS
                                    1352             +*                             WITH KEYS - RECORD OFFSET PROCESSING.
                                    1353    01-DCBD  +DCBBFTS  EQU   DCBBIT1        SIMPLE BUFFERING - BIT 3 IS ZERO
                                    1354    01-DCBD  +DCBBFTKR EQU   DCBBIT2        UNBLOCKED SPANNED RECORDS - SOFTWARE
                                    1355             +*                             TRACK OVERFLOW (BDAM)
                                    1356    01-DCBD  +DCBBFTE  EQU   DCBBIT3        EXCHANGE BUFFERING - BIT 1 IS ZERO
                                    1357    01-DCBD  +DCBBFTKD EQU   DCBBIT4        DYNAMIC BUFFERING (BTAM)
1VMSC     (VMSC00) (09:48) (22MAR04) ORVYL STYLE BATCH I/O ROUTINES                                                         Page   10
0D-Loc  Object Code    Addr1 Addr2  Stmt Lv Lineno    Source Statement           (Hibal 5, Asmedit 3.3)  HLASM R4.0  2004/03/22 09.48
+_____  ______ ____    _____ _____  ____ __ ______    ______ _________
0                                   1358    01-DCBD  +DCBBFTK  EQU   DCBBIT4        LRECL  IN 'K' UNITS FOR XLRI         @L2A
                                    1359    01-DCBD  +DCBBXLRI EQU   DCBBIT1+DCBBIT2+DCBBIT4   EXTENDED LOGICAL RECORD   @L2A
                                    1360             +*                                      INTERFACE MODE FOR SPANNED  @L2A
                                    1361             +*                                      RECORDS GREATER THAN 32K -  @L2A
                                    1362             +*                                      ALL RECORDS TRANSFERRED TO  @L2A
                                    1363             +*                                      OR FROM THE RECORD AREA.    @L2A
                                    1364    01-DCBD  +DCBH0    EQU   DCBBIT5        HIERARCHY 0 MAIN STORAGE IF BIT0 IS ZERO
                                    1365             +*                             DCBE EXISTS IF BIT0 IS ON. SEE DCBH1 @L5A
                                    1366    01-DCBD  +DCBBFA   EQU   DCBBIT6+DCBBIT7   BUFFER ALIGNMENT
                                    1367    01-DCBD  +DCBBFAD  EQU   DCBBIT6        DOUBLEWORD BOUNDARY
                                    1368    01-DCBD  +DCBBFAF1 EQU   DCBBIT7        FULLWORD NOT A DOUBLEWORD BOUNDARY,
                                    1369             +*                             CODED IN DCB MACRO INSTRUCTION
                                    1370    01-DCBD  +DCBBFAF2 EQU   DCBBIT6+DCBBIT7   FULLWORD NOT A DOUBLEWORD BOUNDARY,
                                    1371             +*                             CODED IN DCB MACRO INSTRUCTION
 000021                             1372    01-DCBD  +DCBEODA  DS    AL3            ADDRESS OF A USER-PROVIDED ROUTINE TO
                                    1373             +*                             HANDLE END-OF-DATA CONDITIONS
 000024                             1374    01-DCBD  +DCBEXLST DS    0A             ADDRESS OF USER-PROVIDED LIST OF EXITS
 000024                             1375    01-DCBD  +DCBRECFM DS    BL1            RECORD FORMAT
                                    1376    01-DCBD  +DCBRECLA EQU   DCBBIT0+DCBBIT1+DCBBIT2 RECORD LENGTH INDICATOR - ASCII
                                    1377    01-DCBD  +DCBRECD  EQU   DCBBIT2        ASCII VARIABLE RECORD LENGTH
                                    1378    01-DCBD  +DCBRECL  EQU   DCBBIT0+DCBBIT1   RECORD LENGTH INDICATOR
                                    1379    01-DCBD  +DCBRECF  EQU   DCBBIT0        FIXED RECORD LENGTH
                                    1380    01-DCBD  +DCBRECV  EQU   DCBBIT1        VARIABLE RECORD LENGTH
                                    1381    01-DCBD  +DCBRECU  EQU   DCBBIT0+DCBBIT1   UNDEFINED RECORD LENGTH
                                    1382    01-DCBD  +DCBRECTO EQU   DCBBIT2        TRACK OVERFLOW
                                    1383    01-DCBD  +DCBRECBR EQU   DCBBIT3        BLOCKED RECORDS
                                    1384    01-DCBD  +DCBRECSB EQU   DCBBIT4        FOR FIXED LENGTH RECORD FORMAT - STANDARD
                                    1385             +*                             BLOCKS.  FOR VARIABLE LENGTH RECORD
                                    1386             +*                             FORMAT - SPANNED RECORDS
                                    1387    01-DCBD  +DCBRECCC EQU   DCBBIT5+DCBBIT6   CONTROL CHARACTER INDICATOR
                                    1388    01-DCBD  +DCBRECCA EQU   DCBBIT5        ASA CONTROL CHARACTER
                                    1389    01-DCBD  +DCBRECCM EQU   DCBBIT6        MACHINE CONTROL CHARACTER
                                    1390    01-DCBD  +DCBRECC  EQU   X'00'          NO CONTROL CHARACTER
                                    1391    01-DCBD  +DCBRECKL EQU   DCBBIT7        KEY LENGTH (KEYLEN) WAS SPECIFIED IN DCB
                                    1392             +*                             MACRO INSTRUCTION
 000025                             1393    01-DCBD  +DCBEXLSA DS    AL3            ADDRESS OF USER-PROVIDED LIST OF EXITS
                                    1394             +***********************************************************************
                                    1395             +*                       FOUNDATION BEFORE OPEN
                                    1396             +***********************************************************************
 000028                00028 00028  1397    01-DCBD  +         ORG   IHADCB+40
 000028                             1398    01-DCBD  +DCBDDNAM DS    CL8            NAME ON THE DD STATEMENT WHICH DEFINES
                                    1399             +*                             THE DATA SET ASSOCIATED WITH THIS DCB
 000030                             1400    01-DCBD  +DCBOFLGS DS    BL1            FLAGS USED BY OPEN ROUTINE
                                    1401    01-DCBD  +DCBOFLWR EQU   DCBBIT0        IF ZERO, LAST I/O OPERATION WAS READ OR
                                    1402             +*                             POINT.  IF ONE, LAST I/O OPERATION WAS
                                    1403             +*                             WRITE.
                                    1404    01-DCBD  +DCBOFIOD EQU   DCBBIT0        DATA SET IS BEING OPENED FOR INPUT OR
                                    1405             +*                             OUTPUT (BDAM)
                                    1406    01-DCBD  +DCBOFLRB EQU   DCBBIT1        LAST I/O OPERATION WAS IN READ BACKWARD
                                    1407             +*                             MODE
                                    1408    01-DCBD  +DCBOFEOV EQU   DCBBIT2        SET TO 1 BY EOV WHEN IT CALLS CLOSE
                                    1409             +*                             ROUTINE FOR CONCATENATION OF DATA SETS
                                    1410             +*                             WITH UNLIKE ATTRIBUTES
                                    1411    01-DCBD  +DCBOFOPN EQU   DCBBIT3        AN OPEN HAS BEEN SUCCESSFULLY COMPLETED
                                    1412    01-DCBD  +DCBOFPPC EQU   DCBBIT4        SET TO 1 BY PROBLEM PROGRAM TO INDICATE A
                                    1413             +*                             CONCATENATION OF UNLIKE ATTRIBUTES
1VMSC     (VMSC00) (09:48) (22MAR04) ORVYL STYLE BATCH I/O ROUTINES                                                         Page   11
0D-Loc  Object Code    Addr1 Addr2  Stmt Lv Lineno    Source Statement           (Hibal 5, Asmedit 3.3)  HLASM R4.0  2004/03/22 09.48
+_____  ______ ____    _____ _____  ____ __ ______    ______ _________
0                                   1414    01-DCBD  +DCBOFTM  EQU   DCBBIT5        TAPE MARK HAS BEEN READ
                                    1415    01-DCBD  +DCBOFUEX EQU   DCBBIT6        SET TO 0 BY AN I/O SUPPORT FUNCTION WHEN
                                    1416             +*                             THAT FUNCTION TAKES A USER EXIT. SET TO 1
                                    1417             +*                             ON RETURN FROM USER EXIT TO THE I/O
                                    1418             +*                             SUPPORT FUNCTION WHICH TOOK THE EXIT.
                                    1419    01-DCBD  +DCBOLOCK EQU   DCBOFUEX       SAME USE AS DCBOFUEX                 @LAA
                                    1420    01-DCBD  +DCBOFIOF EQU   DCBBIT7        SET TO 1 BY AN I/O SUPPORT FUNCTION IF
                                    1421             +*                             DCB IS TO BE PROCESSED BY THAT FUNCTION
                                    1422    01-DCBD  +DCBOBUSY EQU   DCBOFIOF       SAME USE AS DCBOFIOF                 @LAA
 000031                             1423    01-DCBD  +DCBIFLG  DS    BL1            FLAGS USED BY IOS IN COMMUNICATING ERROR
                                    1424             +*                             CONDITIONS AND IN DETERMINING CORRECTIVE
                                    1425             +*                             PROCEDURES
                                    1426    01-DCBD  +DCBIBEC  EQU   DCBBIT0+DCBBIT1   ERROR CORRECTION INDICATOR
                                    1427    01-DCBD  +DCBIFNEP EQU   X'00'          NOT IN ERROR PROCEDURE
                                    1428    01-DCBD  +DCBEX    EQU   DCBBIT1        ERROR CORRECTION OR IOS PAGE FIX IN
                                    1429             +*                             PROCESS
                                    1430    01-DCBD  +DCBIFPEC EQU   DCBBIT0+DCBBIT1   PERMANENT ERROR CORRECTION
                                    1431    01-DCBD  +DCBIBPCT EQU   DCBBIT2+DCBBIT3   PRINTER CARRIAGE TAPE PUNCH INDICATOR
                                    1432    01-DCBD  +DCBIFC9  EQU   DCBBIT2        CHANNEL 9 PRINTER CARRIAGE TAPE PUNCH
                                    1433             +*                             SENSED
                                    1434    01-DCBD  +DCBIFC12 EQU   DCBBIT3        CHANNEL 12 PRINTER CARRIAGE TAPE PUNCH
                                    1435             +*                             SENSED
                                    1436    01-DCBD  +DCBIBIOE EQU   DCBBIT4+DCBBIT5   IOS ERROR ROUTINE USE INDICATOR
                                    1437    01-DCBD  +DCBIFER  EQU   X'00'          ALWAYS USE I/O SUPERVISOR ERROR ROUTINE
                                    1438    01-DCBD  +DCBIFNE1 EQU   DCBBIT5        NEVER USE I/O SUPERVISOR ERROR ROUTINE
                                    1439    01-DCBD  +DCBIFTIM EQU   DCBBIT5        TEST IOS MASK (IMSK) FOR ERROR PROCEDURE
                                    1440             +*                             (BTAM)
                                    1441    01-DCBD  +DCBIFNE2 EQU   DCBBIT4        NEVER USE I/O SUPERVISOR ERROR ROUTINE
                                    1442    01-DCBD  +DCBIFNE3 EQU   DCBBIT4+DCBBIT5   NEVER USE I/O SUPERVISOR ERROR ROUTINE
 000032                             1443    01-DCBD  +DCBMACR  DS    0BL2           MACRO INSTRUCTION REFERENCE
 000032                             1444    01-DCBD  +DCBMACR1 DS    BL1            FIRST BYTE OF DCBMACR
                                    1445    01-DCBD  +DCBMRECP EQU   DCBBIT0        EXECUTE CHANNEL PROGRAM (EXCP) ---
                                    1446             +*                             ALWAYS ZERO (BSAM, QSAM, BPAM, BISAM,
                                    1447             +*                             QISAM, BDAM) --- RESERVED (QTAM, BTAM)
                                    1448    01-DCBD  +DCBMRFE  EQU   DCBBIT1        FOUNDATION EXTENSION IS PRESENT (EXCP)
                                    1449    01-DCBD  +DCBMRGET EQU   DCBBIT1        GET (QSAM, QISAM, TCAM)
                                    1450    01-DCBD  +DCBMRPTQ EQU   DCBBIT1        PUT FOR MESSAGE GROUP (QTAM) ---
                                    1451             +*                             ALWAYS ZERO (BSAM, BPAM, BISAM, BDAM) ---
                                    1452             +*                             RESERVED (BTAM)
                                    1453    01-DCBD  +DCBMRAPG EQU   DCBBIT2        APPENDAGES ARE REQUIRED (EXCP)
                                    1454    01-DCBD  +DCBMRRD  EQU   DCBBIT2        READ (BSAM, BPAM, BISAM, BDAM, BTAM)
                                    1455    01-DCBD  +DCBMRWRQ EQU   DCBBIT2        WRITE FOR LINE GROUP (QTAM) ---
                                    1456             +*                             ALWAYS ZERO (QSAM, QISAM)
                                    1457    01-DCBD  +DCBMRCI  EQU   DCBBIT3        COMMON INTERFACE (EXCP)
                                    1458    01-DCBD  +DCBMRMVG EQU   DCBBIT3        MOVE MODE OF GET (QSAM, QISAM)
                                    1459    01-DCBD  +DCBMRRDK EQU   DCBBIT3        KEY SEGMENT WITH READ (BDAM) ---
                                    1460             +*                             ALWAYS ZERO (BISAM) ---
                                    1461             +*                             RESERVED (BSAM, BPAM, QTAM, BTAM)
                                    1462    01-DCBD  +DCBMRLCG EQU   DCBBIT4        LOCATE MODE OF GET (QSAM, QISAM)
                                    1463    01-DCBD  +DCBMRRDI EQU   DCBBIT4        ID ARGUMENT WITH READ (BDAM) ---
                                    1464             +*                             ALWAYS ZERO (BISAM) ---
                                    1465             +*                             RESERVED (EXCP, BSAM, BPAM, QTAM, BTAM)
                                    1466    01-DCBD  +DCBMRABC EQU   DCBBIT5        USER'S PROGRAM MAINTAINS ACCURATE BLOCK
                                    1467             +*                             COUNT (EXCP)
                                    1468    01-DCBD  +DCBMRPT1 EQU   DCBBIT5        POINT (WHICH IMPLIES NOTE) (BSAM, BPAM)
                                    1469    01-DCBD  +DCBMRSBG EQU   DCBBIT5        SUBSTITUTE MODE OF GET (QSAM)
1VMSC     (VMSC00) (09:48) (22MAR04) ORVYL STYLE BATCH I/O ROUTINES                                                         Page   12
0D-Loc  Object Code    Addr1 Addr2  Stmt Lv Lineno    Source Statement           (Hibal 5, Asmedit 3.3)  HLASM R4.0  2004/03/22 09.48
+_____  ______ ____    _____ _____  ____ __ ______    ______ _________
0                                   1470    01-DCBD  +DCBMRDBF EQU   DCBBIT5        DYNAMIC BUFFERING (BISAM, BDAM) ---
                                    1471             +*                             ALWAYS ZERO (QISAM) ---
                                    1472             +*                             RESERVED (QTAM, BTAM)
                                    1473    01-DCBD  +DCBPGFXA EQU   DCBBIT6        PAGE FIX APPENDAGE IS SPECIFIED (EXCP)
                                    1474    01-DCBD  +DCBMRCRL EQU   DCBBIT6        CNTRL (BSAM, QSAM)
                                    1475    01-DCBD  +DCBMRCHK EQU   DCBBIT6        CHECK (BISAM)
                                    1476    01-DCBD  +DCBMRRDX EQU   DCBBIT6        READ EXCLUSIVE (BDAM) ---
                                    1477             +*                             RESERVED (BPAM, QISAM, QTAM, BTAM)
                                    1478    01-DCBD  +DCBMRDMG EQU   DCBBIT7        DATA MODE OF GET (QSAM)
                                    1479    01-DCBD  +DCBMRCK  EQU   DCBBIT7        CHECK (BDAM) --- RESERVED (EXCP, BSAM,
                                    1480             +*                             BPAM, BISAM, QISAM, QTAM, BTAM)
 000033                             1481    01-DCBD  +DCBMACR2 DS    BL1            SECOND BYTE OF DCBMACR
                                    1482    01-DCBD  +DCBMRSTL EQU   DCBBIT0        SETL (QISAM) --- ALWAYS ZERO (BSAM, QSAM,
                                    1483             +*                             BPAM, BISAM, BDAM) ---
                                    1484             +*                             RESERVED (EXCP, QTAM, BTAM)
                                    1485    01-DCBD  +DCBMRPUT EQU   DCBBIT1        PUT (QSAM, TCAM) - PUT OR PUTX (QISAM)
                                    1486    01-DCBD  +DCBMRGTQ EQU   DCBBIT1        GET FOR MESSAGE GROUP (QTAM) ---
                                    1487             +*                             ALWAYS ZERO (BSAM, BPAM, BISAM, BDAM) ---
                                    1488             +*                             RESERVED (EXCP, BTAM)
                                    1489    01-DCBD  +DCBMRWRT EQU   DCBBIT2        WRITE (BSAM, BPAM, BISAM, BDAM, BTAM)
                                    1490    01-DCBD  +DCBMRRDQ EQU   DCBBIT2        READ FOR LINE GROUP (QTAM) ---
                                    1491             +*                             ALWAYS ZERO (QSAM, QISAM) ---
                                    1492             +*                             RESERVED (EXCP)
                                    1493    01-DCBD  +DCBMRMVP EQU   DCBBIT3        MOVE MODE OF PUT (QSAM, QISAM)
                                    1494    01-DCBD  +DCBMRWRK EQU   DCBBIT3        KEY SEGMENT WITH WRITE (BDAM) ---
                                    1495             +*                             ALWAYS ZERO (BISAM) ---
                                    1496             +*                             RESERVED (EXCP, BSAM, BPAM, QTAM, BTAM)
                                    1497    01-DCBD  +DCBMR5WD EQU   DCBBIT4        FIVE-WORD DEVICE INTERFACE (EXCP)
                                    1498    01-DCBD  +DCBMRLDM EQU   DCBBIT4        LOAD MODE BSAM (CREATE BDAM DATA SET)
                                    1499             +*                             (BSAM)
                                    1500    01-DCBD  +DCBMRLCP EQU   DCBBIT4        LOCATE MODE OF PUT (QSAM, QISAM)
                                    1501    01-DCBD  +DCBMRIDW EQU   DCBBIT4        ID ARGUMENT WITH WRITE (BDAM) ---
                                    1502             +*                             ALWAYS ZERO (BISAM) ---
                                    1503             +*                             RESERVED (BPAM, QTAM, BTAM)
                                    1504    01-DCBD  +DCBMR4WD EQU   DCBBIT5        FOUR-WORD DEVICE INTERFACE (EXCP)
                                    1505    01-DCBD  +DCBMRPT2 EQU   DCBBIT5        POINT (WHICH IMPLIES NOTE) (BSAM, BPAM)
                                    1506    01-DCBD  +DCBMRTMD EQU   DCBBIT5        SUBSTITUTE MODE (QSAM)
                                    1507    01-DCBD  +DCBMRUIP EQU   DCBBIT5        UPDATE IN PLACE (PUTX) (QISAM) ---
                                    1508             +*                             ALWAYS ZERO (BISAM) ---
                                    1509             +*                             RESERVED (BDAM, QTAM, BTAM)
                                    1510    01-DCBD  +DCBMR3WD EQU   DCBBIT6        THREE-WORD DEVICE INTERFACE (EXCP)
                                    1511    01-DCBD  +DCBMRCTL EQU   DCBBIT6        CNTRL (BSAM, QSAM)
                                    1512    01-DCBD  +DCBMRSTK EQU   DCBBIT6        SETL BY KEY (QISAM)
                                    1513    01-DCBD  +DCBMRAWR EQU   DCBBIT6        ADD TYPE OF WRITE (BDAM) ---
                                    1514             +*                             ALWAYS ZERO (BISAM) ---
                                    1515             +*                             RESERVED (BPAM, QTAM, BTAM)
                                    1516    01-DCBD  +DCBMR1WD EQU   DCBBIT7        ONE-WORD DEVICE INTERFACE (EXCP)
                                    1517    01-DCBD  +DCBMRSWA EQU   DCBBIT7        USER'S PROGRAM HAS PROVIDED A SEGMENT
                                    1518             +*                             WORK AREA POOL (BSAM CREATE BDAM, BDAM)
                                    1519    01-DCBD  +DCBMRDMD EQU   DCBBIT7        DATA MODE (QSAM)
                                    1520    01-DCBD  +DCBMRSTI EQU   DCBBIT7        SETL BY ID (QISAM) ---
                                    1521             +*                             ALWAYS ZERO (BISAM) ---
                                    1522             +*                             RESERVED (BPAM, QTAM, BTAM)
                                    1523             +*        AIF   (NOT &DSORGXE).C8A8                                 @L1A
                                    1524    01-DCBD  +DCBLNGXE EQU   *-IHADCB       LENGTH OF DCB FOR EXCP WITH          @L1A
                                    1525             +*                             EXTENSION INTERFACE                  @L1A
1VMSC     (VMSC00) (09:48) (22MAR04) ORVYL STYLE BATCH I/O ROUTINES                                                         Page   13
0D-Loc  Object Code    Addr1 Addr2  Stmt Lv Lineno    Source Statement           (Hibal 5, Asmedit 3.3)  HLASM R4.0  2004/03/22 09.48
+_____  ______ ____    _____ _____  ____ __ ______    ______ _________
0                                   1526             +***********************************************************************
                                    1527             +*                       FOUNDATION AFTER OPEN
                                    1528             +***********************************************************************
 000034                00034 00028  1529    01-DCBD  +         ORG   IHADCB+40
 000028                             1530    01-DCBD  +DCBTIOT  DS    AL2            OFFSET FROM TIOT ORIGIN TO TIOELNGH FIELD
                                    1531             +*                             IN TIOT ENTRY FOR DD STATEMENT ASSOCIATED
                                    1532             +*                             WITH THIS DCB
 00002A                             1533    01-DCBD  +DCBMACRF DS    0BL2           SAME AS DCBMACR BEFORE OPEN
 00002A                             1534    01-DCBD  +DCBMACF1 DS    BL1            FIRST BYTE OF DCBMACRF
 00002B                             1535    01-DCBD  +DCBMACF2 DS    BL1            SECOND BYTE OF DCBMACRF
 00002C                             1536    01-DCBD  +DCBDEBAD DS    0A             ADDRESS OF ASSOCIATED DEB
 00002C                             1537    01-DCBD  +DCBIFLGS DS    BL1            SAME AS DCBIFLG BEFORE OPEN
                                    1538    01-DCBD  +DCBIFEC  EQU   DCBBIT0+DCBBIT1   ERROR CORRECTION INDICATOR
                                    1539    01-DCBD  +DCBIFPCT EQU   DCBBIT2+DCBBIT3   PRINTER CARRIAGE TAPE PUNCH INDICATOR
                                    1540    01-DCBD  +DCBIFIOE EQU   DCBBIT4+DCBBIT5   IOS ERROR ROUTINE USE INDICATOR
                                    1541    01-DCBD  +DCBIFLDT EQU   DCBBIT6        POSSIBLE LOST DATA CONDITION     @42480LP
                                    1542             +*                             SUCH AS FOR A PRINTER            @42480LP
 00002D                             1543    01-DCBD  +DCBDEBA  DS    AL3            ADDRESS OF ASSOCIATED DEB
 000030                00030 00030  1544    01-DCBD  +         ORG   IHADCB+48
 000030                             1545    01-DCBD  +DCBREAD  DS    0A             ADDRESS OF READ MODULE
 000030                             1546    01-DCBD  +DCBWRITE DS    0A             ADDRESS OF WRITE MODULE          @ZA11086
 000030                             1547    01-DCBD  +DCBOFLG  DS    BL1            SAME AS DCBOFLGS BEFORE OPEN     @ZA11086
 000031                             1548    01-DCBD  +DCBREADA DS    0AL3           ADDRESS OF READ MODULE           @ZA11086
 000031                             1549    01-DCBD  +DCBWRITA DS    AL3            ADDRESS OF WRITE MODULE          @ZA11086
 000034                00034 00030  1550    01-DCBD  +         ORG   IHADCB+48
 000030                             1551    01-DCBD  +DCBGET   DS    0A             ADDRESS OF GET MODULE
 000030                             1552    01-DCBD  +DCBPUT   DS    0A             ADDRESS OF PUT MODULE            @ZA11086
 000030                             1553    01-DCBD  +DCBOFLG1 DS    BL1            SAME AS DCBOFLGS BEFORE OPEN     @ZA14562
 000031                             1554    01-DCBD  +DCBGETA  DS    0AL3           ADDRESS OF GET MODULE            @ZA11086
 000031                             1555    01-DCBD  +DCBPUTA  DS    AL3            ADDRESS OF PUT MODULE            @ZA11086
                                    1556             +***********************************************************************
                                    1557             +*                       QSAM-BSAM-BPAM COMMON INTERFACE
                                    1558             +***********************************************************************
 000034                00034 00034  1559    01-DCBD  +         ORG   IHADCB+52
 000034                             1560    01-DCBD  +DCBGERR  DS    0A             ADDRESS OF SYNCHRONIZING ROUTINE FOR GET
 000034                             1561    01-DCBD  +DCBPERR  DS    0A             ADDRESS OF SYNCHRONIZING ROUTINE FOR PUT
 000034                             1562    01-DCBD  +DCBCHECK DS    0A             ADDRESS OF CHECK MODULE
 000034                             1563    01-DCBD  +DCBOPTCD DS    BL1            OPTION CODES
                                    1564    01-DCBD  +DCBOPTW  EQU   DCBBIT0        WRITE VALIDITY CHECK (DASD)
                                    1565             +*                             (BSAM, BPAM, QSAM, ISAM, BDAM)
                                    1566    01-DCBD  +DCBOPTU  EQU   DCBBIT1        ALLOW DATA CHECK CAUSED BY INVALID
                                    1567             +*                             CHARACTER (1403 PRINTER WITH UCS FEATURE)
                                    1568             +*                             (BSAM, QSAM)
                                    1569             +*                             MSS WINDOW PROCESSING REQUESTED  @ZA37313
                                    1570             +*                             (BSAM, QSAM)                     @ZA37313
                                    1571    01-DCBD  +DCBOPTC  EQU   DCBBIT2        CHAINED SCHEDULING
                                    1572             +*                             (BSAM, BPAM, QSAM)
                                    1573    01-DCBD  +DCBOPTH  EQU   DCBBIT3        1287/1288 OPTICAL READER - HOPPER EMPTY
                                    1574             +*                             EXIT (BSAM, BPAM)
                                    1575    01-DCBD  +DCBOPTO  EQU   DCBBIT3        1285/1287 OPTICAL READER - ON-LINE
                                    1576             +*                             CORRECTION (QSAM)
                                    1577    01-DCBD  +DCBBCKPT EQU   DCBBIT3        CHANNEL-END APPENDAGE IS TO BYPASS DOS
                                    1578             +*                             EMBEDDED CHECKPOINT RECORDS ON TAPE
                                    1579             +*                             (BSAM, QSAM)
                                    1580    01-DCBD  +DCBOPTQ  EQU   DCBBIT4        TRANSLATION TO OR FROM ASCII
                                    1581             +*                             (BSAM, BPAM, QSAM)
1VMSC     (VMSC00) (09:48) (22MAR04) ORVYL STYLE BATCH I/O ROUTINES                                                         Page   14
0D-Loc  Object Code    Addr1 Addr2  Stmt Lv Lineno    Source Statement           (Hibal 5, Asmedit 3.3)  HLASM R4.0  2004/03/22 09.48
+_____  ______ ____    _____ _____  ____ __ ______    ______ _________
0                                   1582    01-DCBD  +DCBOPTZ  EQU   DCBBIT5        MAGNETIC TAPE DEVICES - USE REDUCED ERROR
                                    1583             +*                             RECOVERY PROCEDURE (EXCP, BSAM, BPAM,
                                    1584             +*                             QSAM)
                                    1585    01-DCBD  +DCBSRCHD EQU   DCBBIT5        USE SEARCH DIRECT, INSTEAD OF SEARCH
                                    1586             +*                             PREVIOUS, ON RECORD POSITION SENSING
                                    1587             +*                             DEVICE  (EXCP, BSAM, BPAM, QSAM)
                                    1588    01-DCBD  +DCBOPTT  EQU   DCBBIT6        USER TOTALING (BSAM, QSAM)
                                    1589             +*
                                    1590             +*
                                    1591    01-DCBD  +DCBOPTJ  EQU   DCBBIT7        3800 PRINTER, OPTCD=J; (DYNAMIC  @Z40MSRZ
                                    1592             +*                             SELECT OF TRANSLATE TABLES)      @Z40MSRZ
 000035                             1593    01-DCBD  +DCBGERRA DS    0AL3           ADDRESS OF SYNCHRONIZING ROUTINE FOR GET
 000035                             1594    01-DCBD  +DCBPERRA DS    0AL3           ADDRESS OF SYNCHRONIZING ROUTINE FOR PUT
 000035                             1595    01-DCBD  +DCBCHCKA DS    AL3            ADDRESS OF CHECK MODULE
 000038                             1596    01-DCBD  +DCBSYNAD DS    0A             ADDRESS OF USER-PROVIDED SYNAD ROUTINE
 000038                             1597    01-DCBD  +DCBIOBL  DS    FL1            IOB LENGTH IN DOUBLE WORDS
 000039                             1598    01-DCBD  +DCBSYNA  DS    AL3            ADDRESS OF USER-PROVIDED SYNAD ROUTINE
 00003C                             1599    01-DCBD  +DCBFLAG1 DS    0BL1           TCAM APPLICATION PROGRAM FLAGS
                                    1600             +*                             (BSAM, BPAM, QSAM)
 00003C                             1601    01-DCBD  +DCBCIND1 DS    BL1            CONDITION INDICATORS
                                    1602    01-DCBD  +DCBCNTOV EQU   DCBBIT0        DIRECT ACCESS - TRACK OVERFLOW IN USE
                                    1603             +*                             (BSAM, BPAM, QSAM)
                                    1604             +*                             2540 CARD PUNCH - DATA SET WAS OPENED BUT
                                    1605             +*                             NO DATA WAS WRITTEN (QSAM)
                                    1606    01-DCBD  +DCBSTQCK EQU   DCBBIT0        STOP EQUAL QUICK WAS SPECIFIED FOR
                                    1607             +*                             APPLICATION PROG. DCBS (TCAM)
                                    1608    01-DCBD  +DCBSTFLS EQU   DCBBIT1        STOP EQUAL FLUSH WAS SPECIFIED FOR
                                    1609             +*                             APPLICATION PROG. DCBS (TCAM)
                                    1610    01-DCBD  +DCBCNSRD EQU   DCBBIT1        SEARCH DIRECT (BSAM, BPAM, QSAM)
                                    1611    01-DCBD  +DCBCNEVB EQU   DCBBIT2        END OF VOLUME - USED BY EOB ROUTINES
                                    1612             +*                             (BSAM, BPAM, QSAM)
                                    1613    01-DCBD  +DCBCNEVA EQU   DCBBIT3        END OF VOLUME - USED BY CHANNEL-END
                                    1614             +*                             APPENDAGE ROUTINES (BSAM, BPAM, QSAM)
                                    1615    01-DCBD  +DCBCNCI  EQU   DCBBIT4        SAM-SI COMPATABILITY INTERFACE (CI)
                                    1616             +*                             PROCESSING HAS BEEN PERFORMED (BSAM,
                                    1617             +*                             QSAM)                                @04A
                                    1618    01-DCBD  +DCBCNBRM EQU   DCBBIT5        BLOCKED RECORD BIT MODIFIED (BSAM,BPAM,
                                    1619             +*                             QSAM)
                                    1620    01-DCBD  +DCBCBNDF EQU   DCBBIT6 -      OPEN DEFAULTED BUFNO (QSAM)          @L7A
                                    1621    01-DCBD  +DCBCNEXB EQU   DCBBIT7        EXCHANGE BUFFERING SUPPORTED (QSAM)
                                    1622    01-DCBD  +DCBCDWDO EQU   DCBBIT7        INTERNAL USE ONLY, DCBOFFSW IS       @LBA
                                    1623             +*                               DOUBLE-WORD OFFSET                 @LBA
 00003D                             1624    01-DCBD  +DCBCIND2 DS    BL1            CONDITION INDICATORS
                                    1625    01-DCBD  +DCBCNSTO EQU   DCBBIT0        PARTITIONED DATA SET - STOW HAS BEEN
                                    1626             +*                             PERFORMED (BSAM, BPAM, QSAM)
                                    1627             +*                             SEQUENTIAL DATA SET - UPDATE (BSAM, BPAM)
                                    1628    01-DCBD  +DCBCNWR0 EQU   DCBBIT1        DIRECT ORGANIZATION DATA SET - LAST I/O
                                    1629             +*                             WAS A WRITE RECORD ZERO
                                    1630             +*                             (BSAM, BPAM, QSAM)
                                    1631             +*                             SEQUENTIAL DATA SET - UPDATE EOF IS
                                    1632             +*                             INDICATED (BSAM, BPAM)
                                    1633    01-DCBD  +DCBCNCLO EQU   DCBBIT2        CLOSE IN PROCESS (QSAM)
                                    1634    01-DCBD  +DCBCNIOE EQU   DCBBIT3        PERMANENT I/O ERROR (BSAM, BPAM, QSAM)
                                    1635    01-DCBD  +DCBCNBFP EQU   DCBBIT4        OPEN ACQUIRED BUFFER POOL
                                    1636             +*                             (BSAM, BPAM, QSAM)
                                    1637    01-DCBD  +DCBCNCHS EQU   DCBBIT5        CHAINED SCHEDULING BEING SUPPORTED
1VMSC     (VMSC00) (09:48) (22MAR04) ORVYL STYLE BATCH I/O ROUTINES                                                         Page   15
0D-Loc  Object Code    Addr1 Addr2  Stmt Lv Lineno    Source Statement           (Hibal 5, Asmedit 3.3)  HLASM R4.0  2004/03/22 09.48
+_____  ______ ____    _____ _____  ____ __ ______    ______ _________
0                                   1638             +*                             (BSAM, BPAM, QSAM)
                                    1639    01-DCBD  +DCBCNFEO EQU   DCBBIT6        FEOV BIT (BSAM, BPAM, QSAM)
                                    1640    01-DCBD  +DCBCNQSM EQU   DCBBIT7        ALWAYS ZERO (BSAM, BPAM)
                                    1641             +*                             THIS IS A QSAM DCB (QSAM)
 00003E                             1642    01-DCBD  +DCBBLKSI DS    H              MAXIMUM BLOCK SIZE
 000040                             1643    01-DCBD  +DCBWCPO  DS    AL1            OFFSET OF WRITE CHANNEL PROGRAM FROM THE
                                    1644             +*                             START OF IOB
 000041                             1645    01-DCBD  +DCBWCPL  DS    FL1            LENGTH OF WRITE CHANNEL PROGRAM
 000042                             1646    01-DCBD  +DCBOFFSR DS    AL1            OFFSET OF READ CCW FROM BSAM/BPAM PREFIX
                                    1647             +*                             OF IOB
 000043                             1648    01-DCBD  +DCBOFFSW DS    AL1            OFFSET OF WRITE CCW FROM BSAM/BPAM PREFIX
                                    1649             +*                             OF IOB
 000044                             1650    01-DCBD  +DCBIOBA  DS    A              FOR NORMAL SCHEDULING, ADDRESS OF QSAM OR
                                    1651             +*                             BSAM/BPAM PREFIX OF IOB.  FOR CHAINED
                                    1652             +*                             SCHEDULING, ADDRESS OF ICB.  FOR
                                    1653             +*                             1419/1275, ADDRESS OF MAGNETIC INTERRUPT
                                    1654             +*                             CONTROL BLOCK (MICB) CURRENTLY BEING
                                    1655             +*                             PROCESSED BY READ ROUTINE.  FOR TSO
                                    1656             +*                             TERMINAL DATA SET OPENED FOR INPUT AND
                                    1657             +*                             FORMAT U, SIMULATED LOW-ORDER FOUR BYTES
                                    1658             +*                             OF IOBCSW
 000048                00048 00044  1659    01-DCBD  +         ORG   IHADCB+68                                           @L4A
 000044                             1660    01-DCBD  +         DS    X                                                   @L4A
 000045                             1661    01-DCBD  +DCBIOBB  DS    AL3            SAME AS DCBIOBA ABOVE                @L4A
 000048                00048 00044  1662    01-DCBD  +         ORG   IHADCB+68
 000044                             1663    01-DCBD  +DCBCICB  DS    0A             SAME AS DCBCICBA BELOW
 000044                             1664    01-DCBD  +         DS    X              INTERNAL ACCESS METHOD USE
 000045                             1665    01-DCBD  +DCBCICBA DS    AL3            POINTER TO JES C.I.
                                    1666             +*                             CONTROL BLOCK (CICB)
 000048                00048 00050  1667    01-DCBD  +         ORG   IHADCB+80
 000050                             1668    01-DCBD  +DCBDIRCT DS    0H             NUMBER OF BYTES USED IN LAST DIRECTORY
                                    1669             +*                             BLOCK (RANGE 0-254)  (BSAM, BPAM)
 000050                             1670    01-DCBD  +DCBQSWS  DS    0BL1           FLAG BYTE
                                    1671    01-DCBD  +DCBPOPEN EQU   DCBBIT5        QSAM PARALLEL INPUT PROCESSING
 000050                             1672    01-DCBD  +DCBUSASI DS    B              FLAG BYTE FOR ASCII TAPES
                                    1673    01-DCBD  +DCBBLBP  EQU   DCBBIT1        BLOCK PREFIX IS FOUR BYTE FIELD
                                    1674             +*                             CONTAINING BLOCK LENGTH IN UNPACKED
                                    1675             +*                             DECIMAL (SPECIFIED BY BUFFER=L).
                                    1676    01-DCBD  +DCBQADFS EQU   DCBBIT2+DCBBIT3+DCBBIT4 USED TO PERFORM SEQUENCE
                                    1677             +*                             CHECKING WITH MULTIPLE FUNCTION SUPPORT
                                    1678             +*                             FOR 3525 (BSAM, QSAM)
                                    1679    01-DCBD  +DCBQADF1 EQU   DCBBIT2        FIRST BIT OF DCBQADFS
                                    1680    01-DCBD  +DCBQADF2 EQU   DCBBIT3        SECOND BIT OF DCBQADFS
                                    1681    01-DCBD  +DCBQADF3 EQU   DCBBIT4        THIRD BIT OF DCBQADFS
                                    1682    01-DCBD  +DCB3525A EQU   DCBBIT6        DCB IS 3525 - ASSOCIATED DATA
                                    1683             +*                             SETS EXIST
                                    1684    01-DCBD  +DCBQSTRU EQU   DCBBIT7        TRUNC ENTRY POINT ENTERED (QSAM)
 000051                             1685    01-DCBD  +DCBBUFOF DS    0FL1           BLOCK PREFIX LENGTH (0-99), SPECIFIED BY
                                    1686             +*                             BUFOFF=N OR BUFOFF=L
 000051                             1687    01-DCBD  +DCBDIRCQ DS    FL1            NUMBER OF BYTES USED IN LAST DIRECTORY
                                    1688             +*                             BLOCK (RANGE 0-254)  (QSAM)
                                    1689             +***********************************************************************
                                    1690             +*                       BSAM-BPAM INTERFACE
                                    1691             +***********************************************************************
 000052                00052 00048  1692    01-DCBD  +         ORG   IHADCB+72
 000048                             1693    01-DCBD  +DCBEOBR  DS    0A             ADDRESS OF END-OF-BLOCK MODULE FOR READ
1VMSC     (VMSC00) (09:48) (22MAR04) ORVYL STYLE BATCH I/O ROUTINES                                                         Page   16
0D-Loc  Object Code    Addr1 Addr2  Stmt Lv Lineno    Source Statement           (Hibal 5, Asmedit 3.3)  HLASM R4.0  2004/03/22 09.48
+_____  ______ ____    _____ _____  ____ __ ______    ______ _________
0000048                             1694    01-DCBD  +DCBNCP   DS    FL1            NUMBER OF CHANNEL PROGRAMS.
                                    1695             +*                             NUMBER OF READ OR WRITE REQUESTS WHICH
                                    1696             +*                             MAY BE ISSUED PRIOR TO A CHECK, NUMBER
                                    1697             +*                             OF IOB'S GENERATED.  (99 MAXIMUM)
 000049                             1698    01-DCBD  +DCBEOBRA DS    AL3            ADDRESS OF END-OF-BLOCK MODULE FOR READ
 00004C                             1699    01-DCBD  +DCBEOBW  DS    A              ADDRESS OF END-OF-BLOCK MODULE FOR WRITE.
                                    1700             +*                             FOR BSAM CREATE BDAM PROCESSING OF
                                    1701             +*                             UNBLOCKED SPANNED RECORDS WITH BKTEK=R
                                    1702             +*                             SPECIFIED, ADDRESS OF SEGMENT WORK AREA
                                    1703             +*                             CONTROL BLOCK
 000050                             1704    01-DCBD  +         DS    H              DCBDIRCT - NUMBER OF BYTES USED IN LAST
                                    1705             +*                             DIRECTORY BLOCK  (RANGE 0-254)
 000052                             1706    01-DCBD  +DCBLRECL DS    H              LOGICAL RECORD LENGTH
 000054                             1707    01-DCBD  +DCBCNTRL DS    0A             ADDRESS OF CNTRL MODULE
 000054                             1708    01-DCBD  +DCBNOTE  DS    0A             ADDRESS OF NOTE/POINT MODULE
 000054                             1709    01-DCBD  +DCBPOINT DS    A              ADDRESS OF NOTE/POINT MODULE
                                    1710    01-DCBD  +DCBLNGBS EQU   *-IHADCB       LENGTH OF DCB FOR BSAM INTERFACE     @L1A
                                    1711    01-DCBD  +DCBLNGPO EQU   *-IHADCB       LENGTH OF DCB FOR BPAM INTERFACE     @L1A
                                    1712             +***********************************************************************
                                    1713             +*                       QSAM INTERFACE
                                    1714             +***********************************************************************
 000058                00058 00048  1715    01-DCBD  +         ORG   IHADCB+72
 000048                             1716    01-DCBD  +DCBLCCW  DS    0A             FOR EXCHANGE BUFFERING, ADDRESS OF LAST
                                    1717             +*                             CCW IN LIST
 000048                             1718    01-DCBD  +DCBEOBAD DS    A              FOR SIMPLE BUFFERING, ADDRESS OF LAST
                                    1719             +*                             BYTE OF CURRENT BUFFER
 00004C                             1720    01-DCBD  +DCBCCCW  DS    0A             FOR EXCHANGE BUFFERING, ADDRESS OF
                                    1721             +*                             CURRENT OR NEXT CCW
 00004C                             1722    01-DCBD  +DCBRECAD DS    0A             ADDRESS OF CURRENT OR NEXT LOGICAL RECORD
 00004C                             1723    01-DCBD  +         DS    XL1 -          DCBRECBT DELETED                     @L7C
 00004D                             1724    01-DCBD  +DCBRECA  DS    AL3            ADDRESS OF CURRENT OR NEXT LOGICAL RECORD
 000050                             1725    01-DCBD  +         DS    B              DCBQSWS - FLAG BYTE
 000051                             1726    01-DCBD  +         DS    FL1            DCBDIRCQ - NUMBER OF BYTES USED IN LAST
                                    1727             +*                             DIRECTORY BLOCK (RANGE 0-254)
 000052                             1728    01-DCBD  +         DS    H              DCBLRECL - LOGICAL RECORD LENGTH
 000054                             1729    01-DCBD  +         DS    0A             DCBCNTRL - ADDRESS OF CNTRL MODULE
 000054                             1730    01-DCBD  +DCBEROPT DS    BL1            ERROR OPTION
                                    1731    01-DCBD  +DCBERACC EQU   DCBBIT0        ACCEPT PERMANENT ERROR
                                    1732    01-DCBD  +DCBERSKP EQU   DCBBIT1        SKIP PERMANENT ERROR
                                    1733    01-DCBD  +DCBERABE EQU   DCBBIT2        ABNORMAL END OF TASK
                                    1734    01-DCBD  +DCBERBAM EQU   DCBBIT7        OPEN TURNED OFF BFTEK=A              @05A
 000055                             1735    01-DCBD  +DCBXLREC DS    0AL3           LRECL WHEN IN XLRI MODE              @L2A
 000055                             1736    01-DCBD  +         DS    AL3            DCBCNTRA  - ADDRESS OF CNTRL MODULE  @L2A
 000058                             1737    01-DCBD  +         DS    XL2            RESERVED
 00005A                             1738    01-DCBD  +DCBPRECL DS    H              FORMAT F RECORDS: BLOCK LENGTH
                                    1739             +*                             FORMAT U RECORDS: MAXIMUM BLOCK LENGTH
                                    1740             +*                             FORMAT V RECORDS:
                                    1741             +*                               UNSPANNED RECORDS: MAXIMUM BLOCK LENGTH
                                    1742             +*                               SPANNED RECORDS:
                                    1743             +*                                 PUT, NOT DATA MODE:
                                    1744             +*                                   MAXIMUM BOLCK LENGTH
                                    1745             +*                                 PUT, DATA MODE:
                                    1746             +*                                   DATA LENGTH
                                    1747             +*                                 GET:
                                    1748             +*                                   SEGMENT CONTROL CODE OF PREVIOUS
                                    1749             +*                                   SEGMENT
1VMSC     (VMSC00) (09:48) (22MAR04) ORVYL STYLE BATCH I/O ROUTINES                                                         Page   17
0D-Loc  Object Code    Addr1 Addr2  Stmt Lv Lineno    Source Statement           (Hibal 5, Asmedit 3.3)  HLASM R4.0  2004/03/22 09.48
+_____  ______ ____    _____ _____  ____ __ ______    ______ _________
000005C                             1750    01-DCBD  +DCBEOB   DS    A              ADDRESS OF END OF BLOCK MODULE
                                    1751    01-DCBD  +DCBLNGQS EQU   *-IHADCB       LENGTH OF DCB WITH QSAM INTERFACE    @L1A
                                    1752    01-DCBD  +DCBLNGPS EQU   *-IHADCB       LENGTH OF DCB WITH BSAM INTERFACE    @L1A
1VMSC     (VMSC00) (09:48) (22MAR04) ORVYL STYLE BATCH I/O ROUTINES                                                         Page   18
0D-Loc  Object Code    Addr1 Addr2  Stmt Lv Lineno    Source Statement           (Hibal 5, Asmedit 3.3)  HLASM R4.0  2004/03/22 09.48
+_____  ______ ____    _____ _____  ____ __ ______    ______ _________
0                                   1754      31.11            IEFZB4D0 ,
                                    1755             +**/
                                    1756             +*%S99PLS1: ;
                                    1757             +*/**START OF SPECIFICATIONS************************************* @L3C*/
                                    1758             +*/*                                                              @L3A*/
                                    1759             +*/*01* MACRO NAME: IEFZB4D0                                      @L3C*/
                                    1760             +*/*                                                              @L3A*/
                                    1761             +*/*01* ACRONYM:  S99PARMS                                        @L3A*/
                                    1762             +*/*                                                              @L3A*/
                                    1763             +*/*01* DESCRIPTIVE NAME:  Dynamic Allocation (SVC 99) Parameter  @L3C*/
                                    1764             +*/*                       List                                   @L3C*/
                                    1765             +*/*                                                              @L3A*/
                                    1766             +*/*01* PROPRIETARY STATEMENT=                                        */
                                    1767             +*/***PROPRIETARY_STATEMENT********************************************/
                                    1768             +*/*                                                                  */
                                    1769             +*/*                                                                  */
                                    1770             +*/* LICENSED MATERIALS - PROPERTY OF IBM                             */
                                    1771             +*/* THIS MACRO IS "RESTRICTED MATERIALS OF IBM"                      */
                                    1772             +*/* 5647-A01 (C) COPYRIGHT IBM CORP. 1974, 2000                      */
                                    1773             +*/*                                                                  */
                                    1774             +*/* STATUS= HBB7703                                                  */
                                    1775             +*/*                                                                  */
                                    1776             +*/***END_OF_PROPRIETARY_STATEMENT*************************************/
                                    1777             +*/*                                                              @L3A*/
                                    1778             +*/*01* EXTERNAL CLASSIFICATION:                                  @L3A*/
                                    1779             +*/*02* GUPI:  BASE                                               @L3A*/
                                    1780             +*/*02* DMTI:  FIELDS S99EMSGP                                    @L3A*/
                                    1781             +*/*01* END OF EXTERNAL CLASSIFICATION:                           @L3A*/
                                    1782             +*/*                                                              @L3A*/
                                    1783             +*/*01* DSECT NAME: S99RB, S99RBP, S99TUPL, S99TUNIT, S99TUFLD,   @L3A*/
                                    1784             +*/*                S99RBX                                        @L3A*/
                                    1785             +*/*                                                              @L3A*/
                                    1786             +*/*01* COMPONENT:  Allocation (SC1B4)                            @L3A*/
                                    1787             +*/*                                                              @L3A*/
                                    1788             +*/*01* EYE-CATCHER:  None                                        @L3A*/
                                    1789             +*/*02*  OFFSET:  n/a                                             @L3A*/
                                    1790             +*/*02*  LENGTH:  n/a                                             @L3A*/
                                    1791             +*/*                                                              @L3A*/
                                    1792             +*/*01* STORAGE ATTRIBUTES:                                       @L3A*/
                                    1793             +*/*02*  SUBPOOL:  User defined                                   @L3A*/
                                    1794             +*/*02*  KEY:  User's key                                         @L3A*/
                                    1795             +*/*02*  RESIDENCY:  Any                                          @L3A*/
                                    1796             +*/*02*  MAIN STORAGE:  No                                        @L3A*/
                                    1797             +*/*                                                              @L3A*/
                                    1798             +*/*01* SIZE:  S99RB:  24 bytes                                   @L3A*/
                                    1799             +*/*           S99RBX: 36 bytes                                   @L3A*/
                                    1800             +*/*                                                              @L3A*/
                                    1801             +*/*01* CREATED BY: Callers of dynamic allocation                 @L3A*/
                                    1802             +*/*                                                              @L3A*/
                                    1803             +*/*01* POINTED TO BY: Register 1 points to a pointer to this     @L3A*/
                                    1804             +*/*                   parameter list upon entry to SVC 99.       @L3A*/
                                    1805             +*/*                                                              @L3A*/
                                    1806             +*/*01* SERIALIZATION: None                                       @L3A*/
                                    1807             +*/*                                                              @L3A*/
                                    1808             +*/*01* FUNCTION: Input required by dynamic allocation,           @L3C*/
                                    1809             +*/*              specifically the dynamic allocation control     @L3C*/
1VMSC     (VMSC00) (09:48) (22MAR04) ORVYL STYLE BATCH I/O ROUTINES                                                         Page   19
0D-Loc  Object Code    Addr1 Addr2  Stmt Lv Lineno    Source Statement           (Hibal 5, Asmedit 3.3)  HLASM R4.0  2004/03/22 09.48
+_____  ______ ____    _____ _____  ____ __ ______    ______ _________
0                                   1810             +*/*              routine, IEFDB400.                              @L3C*/
                                    1811             +*/*                                                              @L3A*/
                                    1812             +*/*01* METHOD OF ACCESS =                                        @L3A*/
                                    1813             +*/*                                                              @L3A*/
                                    1814             +*/*  02* PL/AS INVOCATION =                                      @L3A*/
                                    1815             +*/*        %INCLUDE SYSLIB(IEFZB4D0)                             @L3A*/
                                    1816             +*/*                                                              @L3A*/
                                    1817             +*/*  02* BAL INVOCATION =                                        @L3A*/
                                    1818             +*/*                 IEFZB4D0                                     @L3A*/
                                    1819             +*/*                                                              @L3A*/
                                    1820             +*/*                                                              @L3A*/
                                    1821             +*/*01* DELETED BY: Callers of dynamic allocation                 @L3A*/
                                    1822             +*/*                                                              @L3A*/
                                    1823             +*/*01* DEPENDENCIES: None                                        @L3A*/
                                    1824             +*/*                                                              @L3A*/
                                    1825             +*/*01* DISTRIBUTION LIBRARY: SYS1.AMACLIB                        @L3A*/
                                    1826             +*/*                                                              @L3A*/
                                    1827             +*/*                                                                  */
                                    1828             +*/*                                                                  */
                                    1829             +*/* THE PARAMETER LIST CONSISTS OF:                                  */
                                    1830             +*/*                                                                  */
                                    1831             +*/* 1) A REQUEST BLOCK POINTER. THIS IS A FULLWORD CONTAINING THE    */
                                    1832             +*/*    ADDRESS OF THE DYNAMIC ALLOCATION REQUEST BLOCK. THE HIGH-    */
                                    1833             +*/*    ORDER BIT MUST BE ON. THIS WORD MUST BE LOCATED BY REG. ONE.  */
                                    1834             +*/*                                                                  */
                                    1835             +*/* 2) A REQUEST BLOCK. THIS BLOCK IS LOCATED BY THE REQUEST BLOCK   */
                                    1836             +*/*    POINTER AND CONTAINS:                                         */
                                    1837             +*/*    . A ONE BYTE FIELD CONTAINING THE LENGTH OF THIS REQUEST      */
                                    1838             +*/*      BLOCK. THE LENGTH IS IN BINARY AND HAS A VALUE OF 20.       */
                                    1839             +*/*    . A ONE BYTE FIELD CONTAINING A VERB CODE CORRESPONDING TO A  */
                                    1840             +*/*      DYNAMIC ALLOCATION FUNCTION. MNEMONIC NAMES FOR THE VERB    */
                                    1841             +*/*      CODES ARE CONTAINED IN THIS MACRO.                          */
                                    1842             +*/*    . TWO BYTES OF FLAGS WHICH MUST MAP DIRECTLY TO ALCFNCMAP     */
                                    1843             +*/*      (COMMON ALLOCATION FUNCTION MAP) IN IEFZB4D7.               */
                                    1844             +*/*    . TWO BYTES IN WHICH DYNAMIC ALLOCATION WILL RETURN AN ERROR  */
                                    1845             +*/*      REASON CODE.                                                */
                                    1846             +*/*    . TWO BYTES IN WHICH DYNAMIC ALLOCATION WILL RETURN AN        */
                                    1847             +*/*      INFORMATIONAL REASON CODE.                                  */
                                    1848             +*/*    . A FULLWORD CONTAINING THE ADDRESS OF A LIST OF POINTERS TO  */
                                    1849             +*/*      TEXT UNITS.                                                 */
                                    1850             +*/*    . A FULLWORD CONTAINING THE ADDRESS OF A REQUEST BLOCK    @L1C*/
                                    1851             +*/*      EXTENSION FOR MESSAGE PROCESSING OR ZERO.               @L1C*/
                                    1852             +*/*    . FOUR BYTES OF FLAGS FOR AUTHORIZED FUNCTIONS.               */
                                    1853             +*/*                                                                  */
                                    1854             +*/* 3) A LIST OF FULLWORDS CONTAINING THE ADDRESSES OF TEXT UNITS.   */
                                    1855             +*/*    A WORD WITH A VALUE OF ZERO IS IGNORED. THE LAST WORD IN THE  */
                                    1856             +*/*    LIST MUST HAVE THE HIGH ORDER BIT ON.                         */
                                    1857             +*/*                                                                  */
                                    1858             +*/* 4) TEXT UNITS. A TEXT UNIT CONSISTS OF:                          */
                                    1859             +*/*    . A TWO BYTE FIELD CONTAINING A KEY WHICH IDENTIFIES THE      */
                                    1860             +*/*      INFORMATION IN THIS TEXT UNIT. A TEXT UNIT HAVING A KEY     */
                                    1861             +*/*      WITH A VALUE OF ZERO IS IGNORED. THE MACRO IEFZB4D2 LISTS   */
                                    1862             +*/*      MNEMONIC NAMES FOR THE VALUES OF THE KEYS.                  */
                                    1863             +*/*    . A TWO BYTE FIELD WHICH CONTAINS THE NUMBER OF LENGTH/PARA-  */
                                    1864             +*/*      METER ENTRIES WHICH FOLLOW. A VALUE OF ZERO INDICATES NO    */
                                    1865             +*/*      ENTRIES FOLLOW.                                             */
1VMSC     (VMSC00) (09:48) (22MAR04) ORVYL STYLE BATCH I/O ROUTINES                                                         Page   20
0D-Loc  Object Code    Addr1 Addr2  Stmt Lv Lineno    Source Statement           (Hibal 5, Asmedit 3.3)  HLASM R4.0  2004/03/22 09.48
+_____  ______ ____    _____ _____  ____ __ ______    ______ _________
0                                   1866             +*/*    . A TWO BYTE FIELD WHICH CONTAINS THE LENGTH OF THE IMMED-    */
                                    1867             +*/*      IATELY FOLLOWING PARAMETER.                                 */
                                    1868             +*/*    . A PARAMETER.                                                */
                                    1869             +*/*                                                                  */
                                    1870             +*/* 5) A REQUEST BLOCK EXTENSION. THIS BLOCK IS LOCATED BY THE   @L1A*/
                                    1871             +*/*    POINTER (S99S99X) FOUND IN THE REQUEST BLOCK. IT IS       @L1A*/
                                    1872             +*/*    OPTIONAL AND CONTAINS:                                    @L1A*/
                                    1873             +*/*    . A SIX BYTE FIELD CONTAINING THE CONTROL BLOCK           @L1A*/
                                    1874             +*/*      IDENTIFIER 'S99RBX'.                                    @L1A*/
                                    1875             +*/*    . A ONE BYTE FIELD CONTAINING THE VERSION NUMBER.         @L1A*/
                                    1876             +*/*    . ONE BYTE OF FLAGS FOR MESSAGE PROCESSING OPTIONS        @L1A*/
                                    1877             +*/*    . A ONE BYTE FIELD CONTAINING THE SUBPOOL FOR MESSAGE     @L1A*/
                                    1878             +*/*      BLOCKS.                                                 @L1A*/
                                    1879             +*/*    . A ONE BYTE FIELD CONTAINING THE STORAGE KEY FOR         @L1A*/
                                    1880             +*/*      MESSAGE BLOCKS.                                         @L1A*/
                                    1881             +*/*    . A ONE BYTE FIELD CONTAINING THE SEVERITY LEVEL FOR      @L1A*/
                                    1882             +*/*      MESSAGE PROCESSING.                                     @L1A*/
                                    1883             +*/*    . A ONE BYTE FIELD CONTAINING THE NUMBER OF MESSAGE       @D1C*/
                                    1884             +*/*      BLOCKS RETURNED                                         @D1A*/
                                    1885             +*/*    . A FULLWORD CONTAINING THE ADDRESS OF CPPL.              @L1A*/
                                    1886             +*/*    . FOUR BYTES FOR MESSAGE SERVICE RETURN CODE.             @L1A*/
                                    1887             +*/*    . FOUR BYTES FOR PUTLINE/WTO RETURN CODE.                 @L1A*/
                                    1888             +*/*    . FOUR BYTES FOR MESSAGE BLOCK POINTER.                   @L1A*/
                                    1889             +*/*    . FOUR BYTES FOR INFORMATION RETRIEVAL RETURN CODE        @L1A*/
                                    1890             +*/*      (VERB 01 ONLY)                                          @L1A*/
                                    1891             +*/*    . FOUR BYTES FOR SMS ERROR REASON CODE.                   @02C*/
                                    1892             +*/*                                                                  */
                                    1893             +*/* CHANGE ACTIVITY:  OZ32641, OZ63125, L1, L2, D1               @D1C*/
                                    1894             +*/*                   OY27926, OY29243, T1, 01, 02               @02C*/
                                    1895             +*/*                                                                  */
                                    1896             +*/*The above section of the Change Activity is no longer updated @03A*/
                                    1897             +*/*                                                                  */
                                    1898             +*/* $L1= SMSSTG2 JBB2223 860523 PDM9: STOR MGMT SUBSYS STG2 SUP  @L1A*/
                                    1899             +*/* $L2= SMSSTG2 JBB2223 860820 PDV6: STOR MGMT SUBSYS STG2 SUP  @L2A*/
                                    1900             +*/* $D1= DC20061 JBB2223 871216 PDV6: ADD S99ENMSG FIELD         @D1A*/
                                    1901             +*/* $T1= OY26839 HBB3310 890831 PDE1: DD LIMIT SPE               @T1A*/
                                    1902             +*/* $01= OY42979 HBB4410 910419 PDCC: Allow message suppression  @01A*/
                                    1903             +*/* $02= OY32848 JBB2223 910101 PDHK: ADD SMS REASON CODE        @02A*/
                                    1904             +*/* $03= OY52645 HBB4410 911105 PDDU: Provide "do not recall         */
                                    1905             +*/*                                   migrated data set" option  @03A*/
                                    1906             +*/* $L3= UCBVP   HBB5520 940210 PDN1: Add S99ACUCB to enable         */
                                    1907             +*/*                                   requesting use of actual       */
                                    1908             +*/*                                   UCBs.                      @L3A*/
                                    1909             +*/* $L4= CLONE   HBB5520 940728 PDBN: System symbolics           @L4A*/
                                    1910             +*/* $P1= PN71391 HBB5520 940908 PDEM: Change S99ACUCB to         @P1A*/
                                    1911             +*/*                                   non-authorized             @P1A*/
                                    1912             +*/* $P2= PXD0099 HBB7703 991231 PDG5: Handle device allocated to @P2A*/
                                    1913             +*/*                                   ASID *UNKNOWN* during      @P2A*/
                                    1914             +*/*                                   VARY Offline. This change  @P2A*/
                                    1915             +*/*                                   is the result of multiple  @P2A*/
                                    1916             +*/*                                   customer system outage     @P2A*/
                                    1917             +*/*                                   PMRs.                      @P2A*/
                                    1918             +*/*                                                                  */
                                    1919             +*/*                                                                  */
                                    1920             +*/**END OF SPECIFICATIONS**************************************  @L3C*/
                                    1921             +*/* IEFZB4D0 - Added S99ASERR to S99FLG22 (Under S99FLAGS2 for       */
1VMSC     (VMSC00) (09:48) (22MAR04) ORVYL STYLE BATCH I/O ROUTINES                                                         Page   21
0D-Loc  Object Code    Addr1 Addr2  Stmt Lv Lineno    Source Statement           (Hibal 5, Asmedit 3.3)  HLASM R4.0  2004/03/22 09.48
+_____  ______ ____    _____ _____  ____ __ ______    ______ _________
0                                   1922             +*/*            authorized functions). When = 1, Unit Unallocation    */
                                    1923             +*/*            service IEFDB440 should ignore coupling facility      */
                                    1924             +*/*            READ and WRITE errors for the RELEASE function on an  */
                                    1925             +*/*            Autoswitchable device.                            @P2A*/
                                    1926             +*/*          - Changed S99FLG22 masks to recognize S99ASERR as a     */
                                    1927             +*/*            valid authorized flag (bit position X'08').       @P2A*/
                                    1928             +*/*          - Changed S99NOT22 to no longer flag bit position       */
                                    1929             +*/*            X'08' (now used for S99ASERR) as invalid.         @P2A*/
                                    1930             +*/* IEFZB4D0 - Changed SVC99 S99ACUCB bit from authorized to         */
                                    1931             +*/*            non-authorized.                                       */
                                    1932             +*/*          - Change S99FLG22 masks to remove the S99ACUCB          */
                                    1933             +*/*            flag.                                                 */
                                    1934             +*/*          - Change S99FLG12 masks so that the new non-authorized  */
                                    1935             +*/*            S99ACUCB flag can be recognized as a valid flag.  @P1A*/
                                    1936             +*/* IEFZB4D0 - Add a new SVC 99 input request bit S99NOSYM to        */
                                    1937             +*/*            indicate that Allocation should not resolve           */
                                    1938             +*/*            system symbolics.                                     */
                                    1939             +*/*          - Change S99FLG12 masks so that the new flag            */
                                    1940             +*/*            can be recognized as a valid flag.                @L4A*/
                                    1941             +*/* IEFZB4D0 - Add a new SVC 99 input request bit to indicate        */
                                    1942             +*/*            that actual UCBs should be utilized.                  */
                                    1943             +*/*          - Change S99FLG22 masks so that the new flag            */
                                    1944             +*/*            can be recognized as a valid flag.                @L3A*/
                                    1945             +*/* IEFZB4D0 - Add a new SVC 99 input request bit to indicate        */
                                    1946             +*/*            that no recall will be performed on migrated          */
                                    1947             +*/*            data sets.                                        @03A*/
                                    1948             +*/*          - Change S99FLG11 masks so that the new flag            */
                                    1949             +*/*            can be recognized as a valid flag.                @03A*/
                                    1950             +*/* IEFZB4D0 - ADD S99ERSN TO REQUEST BLOCK EXTENSION WHICH          */
                                    1951             +*/*            CONTAINS THE SMS REASON CODE.                     @02A*/
                                    1952             +*/* IEFZB4D0 - A - S99MSGL0 indicates that Allocation should act as if
                                    1953             +*                  Allocation's MSGLEVEL was 0 for this Allocation
                                    1954             +*                  only.  S99ERSVM is defined to allow checking
                                    1955             +*                  of the Request Block Extension.               @01A*/
                                    1956             +*/* IEFZB4D0 - ADDED S99TIOEX IN S99FLG22                        @T1A*/
                                    1957             +*/* IEFZB4D0 - ADDED DECLARES FOR S99FLAGS BIT MASKS             @T1A*/
                                    1958             +*/* IEFZB4D0 - DELETED EQUATE FOR S99RBID                    @YD29243*/
                                    1959             +*/* IEFZB4D0 - ADDED EQUATE FOR S99RBID WHICH WAS MISSING    @YA27926*/
                                    1960             +*/* IEFZB4D0 - ADDED NUMBER OF MESSAGE BLOCKS FIELD (S99EMSG)    @D1A*/
                                    1961             +*/* IEFZB4D0 - ADDED A FLAG (S99EWTP) TO THE EXTENSION THAT
                                    1962             +*              INDICATES A WTO IS TO BE USED FOR MESSAGE OUTPUT  @L2A*/
                                    1963             +*/* IEFZB4D0 - CHANGE SEVERITY LEVEL, SUBPOOL, STORAGE KEY, AND
                                    1964             +*              MESSAGE PROCESSING RETURN CODES FROM CHAR(1) TO
                                    1965             +*              FIXED(8).                                         @L2A*/
                                    1966             +*/* IEFZB4D0 - ADDED CONSTANTS FOR THE MESSAGE SEVERITIES        @L2A*/
                                    1967             +*/* IEFZB4D0 - CHANGED FOUR RESERVED BYTES IN SVC 99 REQUEST BLOCK   */
                                    1968             +*/*            TO POINTER TO SVC 99 REQUEST BLOCK EXTENSION      @L1A*/
                                    1969             +*/* IEFZB4D0 - DEFINE SVC 99 REQUEST BLOCK EXTENSION WHICH CONTAINS  */
                                    1970             +*/*            INFORMATION FOR MESSAGE PROCESSING                @L1A*/
                                    1971             +*        %GOTO S99PLS2;                /*
                                    1972             +***********************************************************************
                                    1973             +*                SVC 99 INPUT REQUEST BLOCK
                                    1974             +***********************************************************************
 000000                00000 00004  1975    01-IEFZB +S99RBP   DSECT
 000000                             1976    01-IEFZB +S99RBPTR DS     F                      REQUEST BLOCK POINTER
                                    1977    01-IEFZB +S99RBPND EQU    X'80'                  LAST POINTER INDICATOR
1VMSC     (VMSC00) (09:48) (22MAR04) ORVYL STYLE BATCH I/O ROUTINES                                                         Page   22
0D-Loc  Object Code    Addr1 Addr2  Stmt Lv Lineno    Source Statement           (Hibal 5, Asmedit 3.3)  HLASM R4.0  2004/03/22 09.48
+_____  ______ ____    _____ _____  ____ __ ______    ______ _________
0000000                00000 00014  1978    01-IEFZB +S99RB    DSECT                         REQUEST BLOCK
 000000                             1979    01-IEFZB +         DS     0F
 000000                             1980    01-IEFZB +S99RBLN  DS     CL1                    LENGTH OF REQUEST BLOCK
 000001                             1981    01-IEFZB +S99VERB  DS     CL1                    VERB CODE
                                    1982    01-IEFZB +S99VRBAL EQU    X'01'                  ALLOCATION
                                    1983    01-IEFZB +S99VRBUN EQU    X'02'                  UNALLOCATION
                                    1984    01-IEFZB +S99VRBCC EQU    X'03'                  CONCATENATION
                                    1985    01-IEFZB +S99VRBDC EQU    X'04'                  DECONCATENATION
                                    1986    01-IEFZB +S99VRBRI EQU    X'05'                  REMOVE IN-USE
                                    1987    01-IEFZB +S99VRBDN EQU    X'06'                  DDNAME ALLOCATION
                                    1988    01-IEFZB +S99VRBIN EQU    X'07'                  INFORMATION RETRIEVAL
 000002                             1989    01-IEFZB +S99FLAG1 DS     0CL2                   FLAGS
 000002                             1990    01-IEFZB +S99FLG11 DS     CL1                    FIRST FLAGS BYTE
                                    1991    01-IEFZB +S99ONCNV EQU    X'80'                  ALLOC FUNCTION-DO NOT USE AN
                                    1992             +*                                      EXISTING ALLOCATION THAT DOES
                                    1993             +*                                      NOT HAVE THE CONVERTIBLE
                                    1994             +*                                      ATTRIBUTE TO SATISFY A REQUEST
                                    1995    01-IEFZB +S99NOCNV EQU    X'40'                  ALLOC FUNCTION-DO NOT USE AN
                                    1996             +*                                      EXISTING ALLOCATION TO SATISFY
                                    1997             +*                                      THE REQUEST
                                    1998    01-IEFZB +S99NOMNT EQU    X'20'                  ALLOC FUNCTION-DO NOT MOUNT
                                    1999             +*                                      VOLUMES OR CONSIDER OFFLINE
                                    2000             +*                                      UNITS (THIS FLAG OVERRIDES
                                    2001             +*                                      S99MOUNT AND S99OFFLN BELOW)
                                    2002    01-IEFZB +S99JBSYS EQU    X'10'                  ALLOC FUNC-JOB RELATED SYSOUT
                                    2003    01-IEFZB +S99CNENQ EQU    X'08'                  ALL FUNCTIONS-ISSUE A   @ZA32641
                                    2004             +*                                      CONDITIONAL ENQ ON TIOT @ZA32641
                                    2005             +*                                      RESOURCE. IF NOT        @ZA32641
                                    2006             +*                                      AVAILABLE, RETURN AN    @ZA32641
                                    2007             +*                                      ERROR CODE TO USER.     @ZA32641
                                    2008    01-IEFZB +S99GDGNT EQU    X'04'                  ALLOC FUNCTION - IGNORE @YA10531
                                    2009             +*                                      THE GDG NAME TABLE AND  @YA10531
                                    2010             +*                                      PERFORM A LOCATE FOR    @YA10531
                                    2011             +*                                      THE GDG BASE LEVEL.     @YA10531
                                    2012    01-IEFZB +S99MSGL0 EQU    X'02'                  All functions - ignore the  @01A
                                    2013             +*                                      MSGLEVEL parameter in the   @01A
                                    2014             +*                                      JCT and use MSGLEVEL=(,0)   @01A
                                    2015    01-IEFZB +S99NOMIG EQU    X'01'                  ALLOC function - do not     @03A
                                    2016             +*                                      recall migrated data sets   @03A
 000003                             2017    01-IEFZB +S99FLG12 DS     CL1                    SECOND BYTE OF FLAGS
                                    2018    01-IEFZB +S99NOSYM EQU    X'80'                  Allocate, unallocate, info
                                    2019             +*                                      retrieval - do not perform
                                    2020             +*                                      symbolic substitution       @L4A
                                    2021    01-IEFZB +S99ACUCB EQU    X'40'                  Alloc function-use Actual
                                    2022             +*                                      UCB addresses               @P1C
 000004                             2023    01-IEFZB +S99RSC   DS     0CL4                   REASON CODE FIELDS
 000004                             2024    01-IEFZB +S99ERROR DS     XL2                    ERROR REASON CODE
 000006                             2025    01-IEFZB +S99INFO  DS     XL2                    INFORMATION REASON CODE
 000008                             2026    01-IEFZB +S99TXTPP DS     F                      ADDR OF LIST OF TEXT UNIT PTRS
 00000C                             2027    01-IEFZB +S99S99X  DS     F                      ADDR OF REQ BLK EXTENSION  @L1C
 000010                             2028    01-IEFZB +S99FLAG2 DS     0CL4                   FLAGS FOR AUTHORIZED FUNCTIONS
 000010                             2029    01-IEFZB +S99FLG21 DS     CL1                    FIRST BYTE OF FLAGS
                                    2030    01-IEFZB +S99WTVOL EQU    X'80'                  ALLOC FUNCTION-WAIT FOR
                                    2031             +*                                      VOLUMES
                                    2032    01-IEFZB +S99WTDSN EQU    X'40'                  ALLOC FUNCTION-WAIT FOR DSNAME
                                    2033    01-IEFZB +S99NORES EQU    X'20'                  ALLOC FUNCTION-DO NOT DO
1VMSC     (VMSC00) (09:48) (22MAR04) ORVYL STYLE BATCH I/O ROUTINES                                                         Page   23
0D-Loc  Object Code    Addr1 Addr2  Stmt Lv Lineno    Source Statement           (Hibal 5, Asmedit 3.3)  HLASM R4.0  2004/03/22 09.48
+_____  ______ ____    _____ _____  ____ __ ______    ______ _________
0                                   2034             +*                                      DATA SET RESERVATION
                                    2035    01-IEFZB +S99WTUNT EQU    X'10'                  ALLOC FUNCTION-WAIT FOR UNITS
                                    2036    01-IEFZB +S99OFFLN EQU    X'08'                  ALLOC FUNCTION-CONSIDER OFFLINE
                                    2037             +*                                      UNITS
                                    2038    01-IEFZB +S99TIONQ EQU    X'04'                  ALL FUNCTIONS-TIOT ENQ ALREADY
                                    2039             +*                                      DONE
                                    2040    01-IEFZB +S99CATLG EQU    X'02'                  ALLOC FUNCTION-SET SPECIAL
                                    2041             +*                                      CATALOG DATA SET INDICATORS
                                    2042    01-IEFZB +S99MOUNT EQU    X'01'                  ALLOC FUNCTION-MAY MOUNT VOLUME
 000011                             2043    01-IEFZB +S99FLG22 DS     CL1                    SECOND BYTE OF FLAGS
                                    2044    01-IEFZB +S99UDEVT EQU    X'80'                  ALLOCATION FUNCTION-UNIT NAME
                                    2045             +*                                      PARM IS A DEVICE TYPE
                                    2046    01-IEFZB +S99PCINT EQU    X'40'                  ALLOC FUNCTION-ALLOC    @Y30QPPB
                                    2047             +*                                      PRIVATE CATALOG TO      @Y30QPPB
                                    2048             +*                                      INITIATOR               @Y30QPPB
                                    2049    01-IEFZB +S99DYNDI EQU    X'20'                  ALLOC FUNCTION-NO JES3  @ZA63125
                                    2050             +*                                      DSN INTEGRITY PROCESS   @ZA63125
                                    2051    01-IEFZB +S99TIOEX EQU    X'10'                  ALLOC FUNCTION - XTIOT
                                    2052             +*                                      ENTRY REQUESTED (FOR
                                    2053             +*                                      SYSTEM PROGRAM USE ONLY)    @T1A
                                    2054    01-IEFZB +S99ASERR EQU    X'08'                  Unit Allocation / Unallocation
                                    2055             +*                                      Service (IEFAB4C1/IEFDB440) -
                                    2056             +*                                      Ignore Coupling Facility
                                    2057             +*                                      READ/WRITE failure when
                                    2058             +*                                      processing RELEASE function
                                    2059             +*                                      for Autoswitchable device
                                    2060             +*                                      (FOR SYSTEM PROGRAM USE
                                    2061             +*                                      ONLY)                       @P2A
 000012                             2062    01-IEFZB +S99FLG23 DS     CL1                    THIRD BYTE OF FLAGS
 000013                             2063    01-IEFZB +S99FLG24 DS     CL1                    FOURTH BYTE OF FLAGS
                                    2064    01-IEFZB +S99RBEND EQU    *                      END MARKER
                                    2065             +***********************************************************************
                                    2066             +* SVC 99 FLAG BIT MASKS                                            @T1A
                                    2067             +*   - A '1' DENOTES DEFINED BITS                                   @T1A
                                    2068             +*   - USED TO TEST FOR BIT SETTINGS                                @T1A
                                    2069             +***********************************************************************
                                    2070    01-IEFZB +S99MSK11 EQU    B'11111111'            BIT MASK FOR S99FLG11       @03C
                                    2071    01-IEFZB +S99MSK12 EQU    B'11000000'            BIT MASK FOR S99FLG12       @P1C
                                    2072    01-IEFZB +S99MSK21 EQU    B'11111111'            BIT MASK FOR S99FLG21       @T1A
                                    2073    01-IEFZB +S99MSK22 EQU    B'11111000'            BIT MASK FOR S99FLG22       @P2C
                                    2074    01-IEFZB +S99MSK23 EQU    B'00000000'            BIT MASK FOR S99FLG23       @T1A
                                    2075    01-IEFZB +S99MSK24 EQU    B'00000000'            BIT MASK FOR S99FLG24       @T1A
                                    2076             +***********************************************************************
                                    2077             +* SVC 99 FLAG RESERVED BIT MASKS                                   @T1A
                                    2078             +*   - A '1' DENOTES RESERVED BITS                                  @T1A
                                    2079             +*   - USED TO TEST FOR INVALID USE OF RESERVED FIELDS              @T1A
                                    2080             +***********************************************************************
                                    2081    01-IEFZB +S99NOT11 EQU    B'00000000'           INVERSE BITMASK FOR S99FLG11 @03C
                                    2082    01-IEFZB +S99NOT12 EQU    B'00111111'           INVERSE BITMASK FOR S99FLG12 @P1C
                                    2083    01-IEFZB +S99NOT21 EQU    B'00000000'           INVERSE BITMASK FOR S99FLG21 @T1A
                                    2084    01-IEFZB +S99NOT22 EQU    B'00000111'           INVERSE BITMASK FOR S99FLG22 @P2C
                                    2085    01-IEFZB +S99NOT23 EQU    B'11111111'           INVERSE BITMASK FOR S99FLG23 @T1A
                                    2086    01-IEFZB +S99NOT24 EQU    B'11111111'           INVERSE BITMASK FOR S99FLG24 @T1A
                                    2087             +***********************************************************************
                                    2088             +* SVC 99 TEXT UNIT POINTER LIST
                                    2089             +***********************************************************************
1VMSC     (VMSC00) (09:48) (22MAR04) ORVYL STYLE BATCH I/O ROUTINES                                                         Page   24
0D-Loc  Object Code    Addr1 Addr2  Stmt Lv Lineno    Source Statement           (Hibal 5, Asmedit 3.3)  HLASM R4.0  2004/03/22 09.48
+_____  ______ ____    _____ _____  ____ __ ______    ______ _________
0000000                00000 00004  2090    01-IEFZB +S99TUPL  DSECT                         TEXT UNIT POINTER LIST
 000000                             2091    01-IEFZB +S99TUPTR DS     F                      TEXT UNIT POINTER
                                    2092    01-IEFZB +S99TUPLN EQU    X'80'                  LAST TEXT UNIT POINTER IN LIST
                                    2093             +***********************************************************************
                                    2094             +* SVC 99 TEXT UNIT
                                    2095             +***********************************************************************
 000000                00000 00007  2096    01-IEFZB +S99TUNIT DSECT                         TEXT UNIT
 000000                             2097    01-IEFZB +S99TUKEY DS     XL2                    KEY
 000002                             2098    01-IEFZB +S99TUNUM DS     XL2                    N0. OF LENGTH+PARAMETER ENTRIES
 000004                             2099    01-IEFZB +S99TUENT DS     0C                     ENTRY OF LENGTH+PARAMETER
 000004                             2100    01-IEFZB +S99TULNG DS     XL2                    LENGH OF 1ST (OR ONLY) PARAMETER
 000006                             2101    01-IEFZB +S99TUPAR DS     C                      1ST (OR ONLY) PARAMETER
                                    2102             +* THE FOLLOWING DSECT IS PROVIDED FOR USE WITH MULTIPLE
                                    2103             +* LENGTH/PARAMETER ENTRIES TO ALLOW ZERO DISPLACEMENT TO THE
                                    2104             +* LENGTH FIELD
 000000                00000 00003  2105    01-IEFZB +S99TUFLD DSECT
 000000                             2106    01-IEFZB +S99TULEN DS     XL2                    LENGTH OF PARAMETER
 000002                             2107    01-IEFZB +S99TUPRM DS     C                      PARAMETER
                                    2108             +****************************************************************** @L1A
                                    2109             +* SVC 99 REQUEST BLOCK EXTENSION                                   @L1A
                                    2110             +****************************************************************** @L1A
 000000                00000 00024  2111    01-IEFZB +S99RBX   DSECT                         REQUEST BLOCK EXTENSION     @L1A
 000000                             2112    01-IEFZB +S99EID   DS     CL6                    CONTROL BLOCK ID ='S99RBX'  @L1A
 000006                             2113    01-IEFZB +S99EVER  DS     CL1                    VERSION NUMBER              @L1A
                                    2114    01-IEFZB +S99RBXVR EQU    X'01'                  CURRENT VERSION NUMBER      @L2A
 000007                             2115    01-IEFZB +S99EOPTS DS     CL1                    PROCESSING OPTIONS          @L1A
                                    2116    01-IEFZB +S99EIMSG EQU    X'80'                  ISSUE MSG BEFORE RETURNING  @L1A
                                    2117             +*                                      TO CALLER                   @L1A
                                    2118    01-IEFZB +S99ERMSG EQU    X'40'                  RETURN MSG TO CALLER        @L1A
                                    2119    01-IEFZB +S99ELSTO EQU    X'20'                  USER STORAGE SHOULD BE      @L1A
                                    2120             +*                                      BELOW 16M BOUNDRY           @L1A
                                    2121    01-IEFZB +S99EMKEY EQU    X'10'                  USER SPECIFIED STORAGE KEY  @L1A
                                    2122             +*                                      FOR MESSAGE BLOCKS          @L1A
                                    2123    01-IEFZB +S99EMSUB EQU    X'08'                  USER SPECIFIED SUBPOOL FOR  @L1A
                                    2124             +*                                      MESSAGE BLOCKS              @L1A
                                    2125    01-IEFZB +S99EWTP  EQU    X'04'                  USE WTO FOR MESSAGE OUTPUT  @L2A
 000008                             2126    01-IEFZB +S99ESUBP DS     CL1                    SUBPOOL FOR MESSAGE BLOCKS  @L1A
 000009                             2127    01-IEFZB +S99EKEY  DS     CL1                    STORAGE KEY FOR MESSAGE     @L1A
                                    2128             +*                                      BLOCKS                      @L1A
 00000A                             2129    01-IEFZB +S99EMGSV DS     CL1                    SEVERITY LEVEL FOR MESSAGES @L1A
                                    2130             +*                                      PROCESSING                  @L1A
                                    2131    01-IEFZB +S99XINFO EQU    X'00'                  INFORMATIONAL MSG SEVERITY  @L2A
                                    2132    01-IEFZB +S99XWARN EQU    X'04'                  WARNING MESSAGE SEVERITY    @L2A
                                    2133    01-IEFZB +S99XSEVE EQU    X'08'                  SEVERE MESSAGE SEVERITY     @L2A
 00000B                             2134    01-IEFZB +S99ENMSG DS     CL1                    NUMBER OF MESSAGE BLOCKS
                                    2135             +*                                       RETURNED                   @D1C
 00000C                             2136    01-IEFZB +S99ECPPL DS     F                      ADDRESS OF CPPL             @L1A
 000010                             2137    01-IEFZB +S99EMRC  DS     0CL4                   MESSAGE SERVICE RETURN CODE @L1A
 000010                             2138    01-IEFZB +S99ERCR  DS     CL1                    RESERVED                    @L1A
 000011                             2139    01-IEFZB +S99ERCM  DS     CL1                    RESERVED                    @D1C
 000012                             2140    01-IEFZB +S99ERCO  DS     CL1                    RETURN CODE DEALING WITH    @L1A
                                    2141             +*                                      MESSAGE OUTPUT              @L1A
 000013                             2142    01-IEFZB +S99ERCF  DS     CL1                    RETURN CODE DEALING WITH    @L1A
                                    2143             +*                                      STORAGE FOR MESSAGE BLOCKS  @L1A
 000014                             2144    01-IEFZB +S99EWRC  DS     F                      PUTLINE/WTO RETURN CODE     @L1A
 000018                             2145    01-IEFZB +S99EMSGP DS     F                      MESSAGE BLOCK POINTER       @L1A
1VMSC     (VMSC00) (09:48) (22MAR04) ORVYL STYLE BATCH I/O ROUTINES                                                         Page   25
0D-Loc  Object Code    Addr1 Addr2  Stmt Lv Lineno    Source Statement           (Hibal 5, Asmedit 3.3)  HLASM R4.0  2004/03/22 09.48
+_____  ______ ____    _____ _____  ____ __ ______    ______ _________
000001C                             2146    01-IEFZB +S99ESIRC DS     0F                     INFORMATION RETRIEVAL       @L1A
                                    2147             +*                                      RETURN CODE FOR SJF KEYS    @L1A
 00001C                             2148    01-IEFZB +S99EERR  DS     XL2                    ERROR REASON CODE
 00001E                             2149    01-IEFZB +S99EINFO DS     XL2                    INFORMATION REASON CODE
 000020                             2150    01-IEFZB +S99ERSN  DS     XL4                    SMS REASON CODE             @02C
                                    2151      31.12            IEFZB4D2 ,
                                    2152             +*
                                    2153             +*/**** START OF SPECIFICATIONS ***************************************/
                                    2154             +*/*                                                                  */
                                    2155             +*/*01* MACRO NAME = IEFZB4D2                                         */
                                    2156             +*/*                                                                  */
                                    2157             +*/*01*  ACRONYM = N/A                                                */
                                    2158             +*/*                                                                  */
                                    2159             +*/*01* DESCRIPTIVE NAME = Dynamic Allocation Key Definition          */
                                    2160             +*/*                       Table                                      */
                                    2161             +*/*                                                                  */
                                    2162             +*/*01* PROPRIETARY STATEMENT=                                        */
                                    2163             +*/***PROPRIETARY_STATEMENT********************************************/
                                    2164             +*/*                                                                  */
                                    2165             +*/*                                                                  */
                                    2166             +*/* LICENSED MATERIALS - PROPERTY OF IBM                             */
                                    2167             +*/* THIS MACRO IS "RESTRICTED MATERIALS OF IBM"                      */
                                    2168             +*/* 5647-A01 (C) COPYRIGHT IBM CORP. 1983, 2000                  @P3C*/
                                    2169             +*/*                                                                  */
                                    2170             +*/* STATUS= HBB7703                                                  */
                                    2171             +*/*                                                                  */
                                    2172             +*/***END_OF_PROPRIETARY_STATEMENT*************************************/
                                    2173             +*/*                                                              @L6M*/
                                    2174             +*/*01* DSECT NAME = SVC99KYS                                     @L6M*/
                                    2175             +*/*                                                              @L6M*/
                                    2176             +*/*01* COMPONENT = Allocation (SC1B4)                            @L6M*/
                                    2177             +*/*                                                              @L6M*/
                                    2178             +*/*01* EYE-CATCHER = None                                        @L6M*/
                                    2179             +*/*02*  OFFSET = N/A                                             @L6M*/
                                    2180             +*/*02*  LENGTH = N/A                                             @L6M*/
                                    2181             +*/*                                                              @L6M*/
                                    2182             +*/*01* STORAGE ATTRIBUTES =                                      @L6M*/
                                    2183             +*/*                                                              @L6M*/
                                    2184             +*/*02*   ALLOCATION METHOD = Data only macro                     @L6M*/
                                    2185             +*/*02*   SUBPOOL           = N/A                                 @L6M*/
                                    2186             +*/*02*   KEY               = N/A                                 @L6M*/
                                    2187             +*/*02*   RESIDENCY         = N/A                                 @L6M*/
                                    2188             +*/*02*   SIZE              = N/A                                 @L6M*/
                                    2189             +*/*02*   FREQUENCY         = N/A                                 @L6M*/
                                    2190             +*/*                                                              @L6M*/
                                    2191             +*/*01* CREATED BY = N/A                                          @L6M*/
                                    2192             +*/*                                                              @L6M*/
                                    2193             +*/*01* POINTED TO BY = N/A                                       @L6M*/
                                    2194             +*/*                                                              @L6M*/
                                    2195             +*/*01* DELETED BY = N/A                                          @L6M*/
                                    2196             +*/*                                                              @L6M*/
                                    2197             +*/*01* SERIALIZATION = None                                      @L6M*/
                                    2198             +*/*                                                              @L6M*/
                                    2199             +*/*01* FUNCTION =                                                @L6C*/
                                    2200             +*/*                                                                  */
                                    2201             +*/*02*   This macro defines the Dynamic Allocation keys for each @L6C*/
1VMSC     (VMSC00) (09:48) (22MAR04) ORVYL STYLE BATCH I/O ROUTINES                                                         Page   26
0D-Loc  Object Code    Addr1 Addr2  Stmt Lv Lineno    Source Statement           (Hibal 5, Asmedit 3.3)  HLASM R4.0  2004/03/22 09.48
+_____  ______ ____    _____ _____  ____ __ ______    ______ _________
0                                   2202             +*/*      of the Dynamic Allocation functions.  The keys are used     */
                                    2203             +*/*      in the text unit input to Dynamic Allocation.  A key        */
                                    2204             +*/*      identifies the information being passed in a particular     */
                                    2205             +*/*      text unit.  A key is two bytes in length.  The names        */
                                    2206             +*/*      for the keys consist of:                                    */
                                    2207             +*/*                                                                  */
                                    2208             +*/*      - The character 'D' representing Dynamic Allocation.        */
                                    2209             +*/*                                                                  */
                                    2210             +*/*      - Characters representing the Dynamic Allocation            */
                                    2211             +*/*        function.  The functions are represented by these         */
                                    2212             +*/*        characters:                                               */
                                    2213             +*/*                                                                  */
                                    2214             +*/*        - 'AL' for allocation,                                    */
                                    2215             +*/*        - 'UN' for unallocation,                                  */
                                    2216             +*/*        - 'CC' for concatenation,                                 */
                                    2217             +*/*        - 'DC' for deconcatenation,                               */
                                    2218             +*/*        - 'RI' for remove in-use,                                 */
                                    2219             +*/*        - 'DN' for ddname allocation,                             */
                                    2220             +*/*        - 'IN' for information retrieval input, and               */
                                    2221             +*/*        - 'INR' for information retrieval output.                 */
                                    2222             +*/*                                                                  */
                                    2223             +*/*      - Descriptive characters (up to five).                      */
                                    2224             +*/*                                                                  */
                                    2225             +*/*01* INVOCATION ****************************************************/
                                    2226             +*/*                                                                  */
                                    2227             +*/*01* METHOD OF ACCESS =                                        @L6C*/
                                    2228             +*/*                                                                  */
                                    2229             +*/*02*   PL/X Invocation =                                       @L6C*/
                                    2230             +*/*                                                                  */
                                    2231             +*/*        %INCLUDE SYSLIB(IEFZB4D2)                                 */
                                    2232             +*/*                                                                  */
                                    2233             +*/*                                                                  */
                                    2234             +*/*                                                                  */
                                    2235             +*/*------------------------------------------------------------------*/
                                    2236             +*/*                                                                  */
                                    2237             +*/*02*   BAL Invocation =                                        @L6C*/
                                    2238             +*/*                                                                  */
                                    2239             +*/*        b                   one or more blanks (up to nine)       */
                                    2240             +*/*        IEFZB4D2            should start in column 10             */
                                    2241             +*/*        b                   one or more blanks                    */
                                    2242             +*/*                                                                  */
                                    2243             +*/********************************************************************/
                                    2244             +*/*                                                                  */
                                    2245             +*/*01* NOTES =                                                   @L6M*/
                                    2246             +*/*                                                              @L6M*/
                                    2247             +*/*        Bilingual Mapping Macro (PL/X and BAL)                @L6M*/
                                    2248             +*/*                                                              @L6M*/
                                    2249             +*/*          All fields in this macro are General Use            @L6C*/
                                    2250             +*/*          Programming Interface (GUPI).                       @L6C*/
                                    2251             +*/*                                                              @L6M*/
                                    2252             +*/*01* DEPENDENCIES =                                            @L6M*/
                                    2253             +*/*                                                              @L6M*/
                                    2254             +*/*          The IEFSJDKY macro is updated when we add new JDT   @L6M*/
                                    2255             +*/*          defined keys.                                       @L6M*/
                                    2256             +*/*                                                              @L6M*/
                                    2257             +*/*01* RESTRICTIONS = None                                       @L6M*/
1VMSC     (VMSC00) (09:48) (22MAR04) ORVYL STYLE BATCH I/O ROUTINES                                                         Page   27
0D-Loc  Object Code    Addr1 Addr2  Stmt Lv Lineno    Source Statement           (Hibal 5, Asmedit 3.3)  HLASM R4.0  2004/03/22 09.48
+_____  ______ ____    _____ _____  ____ __ ______    ______ _________
0                                   2258             +*/*                                                              @L6M*/
                                    2259             +*/*01* DISTRIBUTION LIBRARY = AMACLIB                            @L6M*/
                                    2260             +*/*                                                                  */
                                    2261             +*/*01* EXTERNAL CLASSIFICATION: GUPI                             @L6A*/
                                    2262             +*/*01* END OF EXTERNAL CLASSIFICATION:                           @L6A*/
                                    2263             +*/*                                                                  */
                                    2264             +*/*01* CHANGE ACTIVITY = OZ25778, 0Z28413, G32HPPJ, G29AN2F,     @L9C*/
                                    2265             +*/*                                                                  */
                                    2266             +*/*                                                                  */
                                    2267             +*/*  $H1= EXTJCL   JBB2110 820605 PD2Q: SUPPORT FOR EXTENDED JCL @H1A*/
                                    2268             +*/*  $L1= ANSITAPE JBB2110 820605 PDD8: SUPPORT FOR ANSI LABELS  @L1A*/
                                    2269             +*/*  $D1= DEFERMNT JBB2110 820605 PDFR: DEFER MOUNT FOR DYNALLOC @D1A*/
                                    2270             +*/*  $L2= EXPDATE  JBB2220 860226 PDN2: 4 DIGIT YEAR EXPDT       @L2A*/
                                    2271             +*/*  $D2= DC20044  JBB2223 870522 PDN1: ADD SMS RELATED KEYS     @D2A*/
                                    2272             +*/*  $P1= PC20307  JBB2223 870703 PDV6: SUPPORT NEW INVOCATION   @P1A*/
                                    2273             +*/*                                     FOR IEFSJDKY MACRO       @P1A*/
                                    2274             +*/*  $L3= EMVS2    HBB4410 881205 PDEU: SPIN PROCESSING FOR      @L3A*/
                                    2275             +*/*                                     SYSOUT DATA SETS         @L3A*/
                                    2276             +*/*  $T1= OY13448  JBB1356 870703 PDV6: NEW DEVICE SUPPORT       @T1A*/
                                    2277             +*/*  $D3= DEO0284  HBB4410 891127 PDDU: New text unit support for    */
                                    2278             +*/*                                     browse token             @D3A*/
                                    2279             +*/*  $D4= DH30067  HBB4420 900430 PDAZ: Support of multiple      @D4A*/
                                    2280             +*/*                                     TSO/STC internal readers @D4A*/
                                    2281             +*/*  $L4= POSIX    HBB4430 920108 PDIO: OPEN/MVS Support         @L4A*/
                                    2282             +*/*  $L5= ATLIB    HBB4430 920624 PDNN: Tape Library Support     @L5A*/
                                    2283             +*/*  $P2= PKB2501  HBB4430 920731 PDNN: 10X Defect Elimination   @P2A*/
                                    2284             +*/*  $L6= ARM      HBB5520 940215 PDG5: ARM Support              @L6A*/
                                    2285             +*/*  $L7= PARMC    JBB6602 950921 PDNN: Parmlib Concatenation    @L7A*/
                                    2286             +*/*                                     Support                  @L7A*/
                                    2287             +*/*  $L8= BCPOP    HBB6605 970516 PDG5: Support for JES Open     @L8A*/
                                    2288             +*/*                                     Print Interface          @L8A*/
                                    2289             +*/*  $L9= GT32K    HBB7703 990831 PDFD: Greater than 32K Blksize @L9A*/
                                    2290             +*/*  $P3= PXD1020  HBB7703 000201 PDFD: Fix copyright            @P3A*/
                                    2291             +*/*                                                                  */
                                    2292             +*/**** END OF SPECIFICATIONS *****************************************/
                                    2293             +*/*                                                                  */
                                    2294             +*/*  IEFZB4DS C - Fixed copyright/program number statements.     @P3A*/
                                    2295             +*/*  IEFZB4D2 A - Added new text units for BLKSIZE TYPES of KILOBYTE */
                                    2296             +*/*               (DALKILO), MEGABYTE (DALMEG), and GIGABYTE (DALGIG)*/
                                    2297             +*/*                                                              @L9A*/
                                    2298             +*/*  IEFZB4D2 A - Added a new text unit to return the Allocation @L8A*/
                                    2299             +*/*               Sysout Client Token (CTOKEN) associated with   @L8A*/
                                    2300             +*/*               the current Sysout Allocation.                 @L8A*/
                                    2301             +*/*  IEFZB4D2 A - Added a new text unit to return the first      @L7A*/
                                    2302             +*/*               volume serial number where an allocated data   @L7A*/
                                    2303             +*/*               set resides.                                   @L7A*/
                                    2304             +*/*  IEFZB4D2 A - Added a new text unit to indicate JES should   @L6A*/
                                    2305             +*/*               run all jobs, submitted via the dynamically-   @L6A*/
                                    2306             +*/*               allocated internal reader, on the same system  @L6A*/
                                    2307             +*/*               they were submitted on, overriding all system  @L6A*/
                                    2308             +*/*               affinities (DALOVAFF).                         @L6A*/
                                    2309             +*/*               Convert prolog to SHOWHDR format.              @L6A*/
                                    2310             +*/*  IEFZB4D2 A - Added a new text unit to define an overriding user */
                                    2311             +*/*               ID for unallocating a SYSOUT data set.         @P2A*/
                                    2312             +*/*  IEFZB4D2 A - Added a new text unit to define volume inter-  @L5A*/
                                    2313             +*/*               change attributes.                             @L5A*/
1VMSC     (VMSC00) (09:48) (22MAR04) ORVYL STYLE BATCH I/O ROUTINES                                                         Page   28
0D-Loc  Object Code    Addr1 Addr2  Stmt Lv Lineno    Source Statement           (Hibal 5, Asmedit 3.3)  HLASM R4.0  2004/03/22 09.48
+_____  ______ ____    _____ _____  ____ __ ______    ______ _________
0                                   2314             +*/*  IEFZB4D2 A - Added an invocation of IEFSJDKY for input keys     */
                                    2315             +*/*               to Information Retrieval                       @L4A*/
                                    2316             +*/*  IEFZB4D2 C - Changed prolog to meet format requirements     @L4A*/
                                    2317             +*/*  IEFZB4D2 C - Change the descriptive name into 'DYNAMIC      @D4A*/
                                    2318             +*/*               ALLOCATION DEFINITION KEY TABLE' to            @D4A*/
                                    2319             +*/*               differentiate itself from the descriptive name @D4A*/
                                    2320             +*/*               of IEFZB4D3                                    @D4A*/
                                    2321             +*/*  IEFZB4D2 C - Add a new text unit to define browse token     @D3A*/
                                    2322             +*/*  IEFZB4D2 C - CHANGED THE COMMENT FOR DALTRTCH               @T1A*/
                                    2323             +*/*  IEFZB4D2 C - SUPPORT FOR JDT DEFINED UNALLOCATION KEYS      @L3A*/
                                    2324             +*/*  IEFZB4D2 C - SUPPORT THE CHANGE OF IEFSJDKY TO AN EXECUTABLE    */
                                    2325             +*/*               MACRO                                          @P1A*/
                                    2326             +*/*  IEFZB4D2 C - INVOKE IEFSJDKY FOR SMS RELATED KEY DEFINITION @D2A*/
                                    2327             +*/*  IEFZB4D2 C - ADDED KEY FOR 4 DIGIT YEAR EXPIRATION DATE     @L2A*/
                                    2328             +*/*  IEFZB4D2 C - ADDED KEY FOR DEFER                            @D1A*/
                                    2329             +*/*  IEFZB4D2 C - ADDED KEY FOR LRECL IN NNNNNK FORMAT               */
                                    2330             +*/*                AND ACCODE                                    @L1A*/
                                    2331             +*/*  IEFZB4D2 C - ADDED SUPPORT FOR BURST, CHARS, COPY GROUPS,       */
                                    2332             +*/*               FLASH, MODIFY AND OUTPUT REFERENCE             @H1A*/
                                    2333             +*/*  IEFZB4D2 C - ADD DALUSRID FIELD IN ALLOCATION FUNCTION  @G860P44*/
                                    2334             +*/*  IEFZB4D2 C - SU29 VECTOR PROCESSING SUBSYSTEM SUPPORT   @G29AN2F*/
                                    2335             +*/*  IEFZB4D2 C - SU32 RACF PROTECT KEY SUPPORT              @G32HPPJ*/
                                    2336             +*/*  IEFZB4D2 C - MERGED BACK TO REL 3.7                     @ZA28413*/
                                    2337             +*/*  IEFZB4D2 C - ADD SUBSYSTEM ATTRIBUTE TEXT UNIT          @ZA25778*/
                                    2338             +*/*                                                                  */
                                    2339             +*/********************************************************************/
                                    2340             +*        %GOTO PLSS99K2;                                          /* *
                                    2341             +*
 000000                00000 00000  2342    01-IEFZB +SVC99KYS DSECT
                                    2343             +***********************************************************************
                                    2344             +*
                                    2345             +* KEYS FOR ALLOCATION FUNCTION
                                    2346             +*
                                    2347             +***********************************************************************
                                    2348    01-IEFZB +DALDDNAM EQU   X'0001'                 DDNAME
                                    2349    01-IEFZB +DALDSNAM EQU   X'0002'                 DSNAME
                                    2350    01-IEFZB +DALMEMBR EQU   X'0003'                 MEMBER NAME
                                    2351    01-IEFZB +DALSTATS EQU   X'0004'                 DATA SET STATUS
                                    2352    01-IEFZB +DALNDISP EQU   X'0005'                 DATA SET NORMAL DISPOSITION
                                    2353    01-IEFZB +DALCDISP EQU   X'0006'                 DATA SET CONDITIONAL DISP
                                    2354    01-IEFZB +DALTRK   EQU   X'0007'                 TRACK SPACE TYPE
                                    2355    01-IEFZB +DALCYL   EQU   X'0008'                 CYLINDER SPACE TYPE
                                    2356    01-IEFZB +DALBLKLN EQU   X'0009'                 AVERAGE DATA BLOCK LENGTH
                                    2357    01-IEFZB +DALPRIME EQU   X'000A'                 PRIMARY SPACE QUANTITY
                                    2358    01-IEFZB +DALSECND EQU   X'000B'                 SECONDARY SPACE QUANTITY
                                    2359    01-IEFZB +DALDIR   EQU   X'000C'                 DIRECTORY SPACE QUANTITY
                                    2360    01-IEFZB +DALRLSE  EQU   X'000D'                 UNUSED SPACE RELEASE
                                    2361    01-IEFZB +DALSPFRM EQU   X'000E'                 CONTIG,MXIG,ALX SPACE FORMAT
                                    2362    01-IEFZB +DALROUND EQU   X'000F'                 WHOLE CYLINDER (ROUND) SPACE
                                    2363    01-IEFZB +DALVLSER EQU   X'0010'                 VOLUME SERIAL
                                    2364    01-IEFZB +DALPRIVT EQU   X'0011'                 PRIVATE VOLUME
                                    2365    01-IEFZB +DALVLSEQ EQU   X'0012'                 VOL SEQUENCE NUMBER
                                    2366    01-IEFZB +DALVLCNT EQU   X'0013'                 VOLUME COUNT
                                    2367    01-IEFZB +DALVLRDS EQU   X'0014'                 VOLUME REFERENCE TO DSNAME
                                    2368    01-IEFZB +DALUNIT  EQU   X'0015'                 UNIT DESCRIPTION
                                    2369    01-IEFZB +DALUNCNT EQU   X'0016'                 UNIT COUNT
1VMSC     (VMSC00) (09:48) (22MAR04) ORVYL STYLE BATCH I/O ROUTINES                                                         Page   29
0D-Loc  Object Code    Addr1 Addr2  Stmt Lv Lineno    Source Statement           (Hibal 5, Asmedit 3.3)  HLASM R4.0  2004/03/22 09.48
+_____  ______ ____    _____ _____  ____ __ ______    ______ _________
0                                   2370    01-IEFZB +DALPARAL EQU   X'0017'                 PARALLEL MOUNT
                                    2371    01-IEFZB +DALSYSOU EQU   X'0018'                 SYSOUT
                                    2372    01-IEFZB +DALSPGNM EQU   X'0019'                 SYSOUT PROGRAM NAME
                                    2373    01-IEFZB +DALSFMNO EQU   X'001A'                 SYSOUT FORM NUMBER
                                    2374    01-IEFZB +DALOUTLM EQU   X'001B'                 OUTPUT LIMIT
                                    2375    01-IEFZB +DALCLOSE EQU   X'001C'                 UNALLOCATE AT CLOSE
                                    2376    01-IEFZB +DALCOPYS EQU   X'001D'                 SYSOUT COPIES
                                    2377    01-IEFZB +DALLABEL EQU   X'001E'                 LABEL TYPE
                                    2378    01-IEFZB +DALDSSEQ EQU   X'001F'                 DATA SET SEQUENCE NUMBER
                                    2379    01-IEFZB +DALPASPR EQU   X'0020'                 PASSWORD PROTECTION
                                    2380    01-IEFZB +DALINOUT EQU   X'0021'                 INPUT ONLY OR OUTPUT ONLY
                                    2381    01-IEFZB +DALEXPDT EQU   X'0022'                 2 DIGIT YEAR EXPIRATION DATE
                                    2382    01-IEFZB +DALRETPD EQU   X'0023'                 RETENTION PERIOD
                                    2383    01-IEFZB +DALDUMMY EQU   X'0024'                 DUMMY ALLOCATION
                                    2384    01-IEFZB +DALFCBIM EQU   X'0025'                 FCB IMAGE-ID
                                    2385    01-IEFZB +DALFCBAV EQU   X'0026'                 FCB FORM ALIGNMENT,IMAGE VERIFY
                                    2386    01-IEFZB +DALQNAME EQU   X'0027'                 QNAME ALLOCATION
                                    2387    01-IEFZB +DALTERM  EQU   X'0028'                 TERMINAL ALLOCATION
                                    2388    01-IEFZB +DALUCS   EQU   X'0029'                 UNIVERSAL CHARACTER SET
                                    2389    01-IEFZB +DALUFOLD EQU   X'002A'                 UCS FOLD MODE
                                    2390    01-IEFZB +DALUVRFY EQU   X'002B'                 UCS VERIFY CHARACTER SET
                                    2391    01-IEFZB +DALDCBDS EQU   X'002C'                 DCB DSNAME REFERENCE
                                    2392    01-IEFZB +DALDCBDD EQU   X'002D'                 DCB DDNAME REFERENCE
                                    2393    01-IEFZB +DALBFALN EQU   X'002E'                 BUFFER ALIGNMENT
                                    2394    01-IEFZB +DALBFTEK EQU   X'002F'                 BUFFERING TECHNIQUE
                                    2395    01-IEFZB +DALBLKSZ EQU   X'0030'                 BLOCKSIZE
                                    2396    01-IEFZB +DALBUFIN EQU   X'0031'                 NUMBER OF INPUT BUFFERS
                                    2397    01-IEFZB +DALBUFL  EQU   X'0032'                 BUFFER LENGTH
                                    2398    01-IEFZB +DALBUFMX EQU   X'0033'                 MAXIMUM NUMBER OF BUFFERS
                                    2399    01-IEFZB +DALBUFNO EQU   X'0034'                 NUMBER OF DCB BUFFERS
                                    2400    01-IEFZB +DALBUFOF EQU   X'0035'                 BUFFER OFFSET
                                    2401    01-IEFZB +DALBUFOU EQU   X'0036'                 NUMBER OF OUTPUT BUFFERS
                                    2402    01-IEFZB +DALBUFRQ EQU   X'0037'                 NUMBER OF GET MACRO BUFFERS
                                    2403    01-IEFZB +DALBUFSZ EQU   X'0038'                 LINE BUFFER SIZE
                                    2404    01-IEFZB +DALCODE  EQU   X'0039'                 PAPER TAPE CODE
                                    2405    01-IEFZB +DALCPRI  EQU   X'003A'                 SEND/RECEIVE PRIORITY
                                    2406    01-IEFZB +DALDEN   EQU   X'003B'                 TAPE DENSITY
                                    2407    01-IEFZB +DALDSORG EQU   X'003C'                 DATA SET ORGANIZATION
                                    2408    01-IEFZB +DALEROPT EQU   X'003D'                 ERROR OPTIONS
                                    2409    01-IEFZB +DALGNCP  EQU   X'003E'                 NO. OF GAM I/O BEFORE WAIT
                                    2410    01-IEFZB +DALINTVL EQU   X'003F'                 POLLING INTERVAL
                                    2411    01-IEFZB +DALKYLEN EQU   X'0040'                 DATA SET KEYS LENGTH
                                    2412    01-IEFZB +DALLIMCT EQU   X'0041'                 SEARCH LIMIT
                                    2413    01-IEFZB +DALLRECL EQU   X'0042'                 LOGICAL RECORD  LENGTH
                                    2414    01-IEFZB +DALMODE  EQU   X'0043'                 CARD READER/PUNCH MODE
                                    2415    01-IEFZB +DALNCP   EQU   X'0044'                 NO. READ/WRITE BEFORE CHECK
                                    2416    01-IEFZB +DALOPTCD EQU   X'0045'                 OPTIONAL SERVICES
                                    2417    01-IEFZB +DALPCIR  EQU   X'0046'                 RECEIVING PCI
                                    2418    01-IEFZB +DALPCIS  EQU   X'0047'                 SENDING PCI
                                    2419    01-IEFZB +DALPRTSP EQU   X'0048'                 PRINTER LINE SPACING
                                    2420    01-IEFZB +DALRECFM EQU   X'0049'                 RECORD FORMAT
                                    2421    01-IEFZB +DALRSRVF EQU   X'004A'                 FIRST BUFFER RESERVE
                                    2422    01-IEFZB +DALRSRVS EQU   X'004B'                 SECONDARY BUFFER RESERVE
                                    2423    01-IEFZB +DALSOWA  EQU   X'004C'                 TCAM USER WORK AREA SIZE
                                    2424    01-IEFZB +DALSTACK EQU   X'004D'                 STACKER BIN
                                    2425    01-IEFZB +DALTHRSH EQU   X'004E'                 MESSAGE QUEUE PERCENTAGE
1VMSC     (VMSC00) (09:48) (22MAR04) ORVYL STYLE BATCH I/O ROUTINES                                                         Page   30
0D-Loc  Object Code    Addr1 Addr2  Stmt Lv Lineno    Source Statement           (Hibal 5, Asmedit 3.3)  HLASM R4.0  2004/03/22 09.48
+_____  ______ ____    _____ _____  ____ __ ______    ______ _________
0                                   2426    01-IEFZB +DALTRTCH EQU   X'004F'                 TAPE RECORDING TECHNOLOGY @T1C
                                    2427    01-IEFZB +DALPASSW EQU   X'0050'                 PASSWORD
                                    2428    01-IEFZB +DALIPLTX EQU   X'0051'                 IPL TEXT ID
                                    2429    01-IEFZB +DALPERMA EQU   X'0052'                 PERMANENTLY ALLOCATED ATTRIB
                                    2430    01-IEFZB +DALCNVRT EQU   X'0053'                 CONVERTIBLE ATTRIBUTE
                                    2431    01-IEFZB +DALDIAGN EQU   X'0054'                 OPEN/CLOSE/EOV DIAGNOSTIC TRACE
                                    2432    01-IEFZB +DALRTDDN EQU   X'0055'                 RETURN DDNAME
                                    2433    01-IEFZB +DALRTDSN EQU   X'0056'                 RETURN DSNAME
                                    2434    01-IEFZB +DALRTORG EQU   X'0057'                 RETURN D.S. ORGANIZATION
                                    2435    01-IEFZB +DALSUSER EQU   X'0058'                 SYSOUT REMOTE USER
                                    2436    01-IEFZB +DALSHOLD EQU   X'0059'                 SYSOUT HOLD QUEUE
                                    2437    01-IEFZB +DALFUNC  EQU   X'005A'                 D.S. TYPE FOR 3525 CARD DEVICE
                                    2438    01-IEFZB +DALFRID  EQU   X'005B'                 IMAGELIB MEMBER FOR SHARK
                                    2439    01-IEFZB +DALSSREQ EQU   X'005C'                 SUBSYSTEM REQUEST
                                    2440    01-IEFZB +DALRTVOL EQU   X'005D'                 RETURN VOLUME SERIAL
                                    2441    01-IEFZB +DALMSVGP EQU   X'005E'                 MSVGP FOR 3330V        @Y30LPPD
                                    2442    01-IEFZB +DALSSNM  EQU   X'005F'                 SUBSYSTEM NAME REQUEST @G29AN2F
                                    2443    01-IEFZB +DALSSPRM EQU   X'0060'                 SUBSYSTEM PARAMETERS   @G29AN2F
                                    2444    01-IEFZB +DALPROT  EQU   X'0061'                 RACF PROTECT FEATURE   @G32HPPJ
                                    2445    01-IEFZB +DALSSATT EQU   X'0062'                 SUBSYSTEM ATTRIBUTE    @ZA25778
                                    2446    01-IEFZB +DALUSRID EQU   X'0063'                 SYSOUT USER ID         @G860P44
                                    2447    01-IEFZB +DALBURST EQU   X'0064'                 BURSTER-TRIMMER-STACKER    @H1A
                                    2448    01-IEFZB +DALCHARS EQU   X'0065'                 CHAR ARRANGEMENT TABLE     @H1A
                                    2449    01-IEFZB +DALCOPYG EQU   X'0066'                 COPY GROUP VALUES          @H1A
                                    2450    01-IEFZB +DALFFORM EQU   X'0067'                 FLASH FORMS OVERLAY        @H1A
                                    2451    01-IEFZB +DALFCNT  EQU   X'0068'                 FLASH FORMS OVERLAY COUNT  @H1A
                                    2452    01-IEFZB +DALMMOD  EQU   X'0069'                 COPY MODIFICATION MODULE   @H1A
                                    2453    01-IEFZB +DALMTRC  EQU   X'006A'                 TABLE REFERENCE CHARACTER  @H1A
                                    2454    01-IEFZB +DALLRECK EQU   X'006B'                 LRECL IN MULT OF 1K FORMAT @L1A
                                    2455    01-IEFZB +DALDEFER EQU   X'006C'                 DEFER MOUNT UNTIL OPEN     @D1A
                                    2456    01-IEFZB +DALEXPDL EQU   X'006D'                 4 DIGIT YEAR EXP. DATE     @L2A
                                    2457    01-IEFZB +DALBRTKN EQU   X'006E'                 Browse token supplied      @D3A
                                    2458    01-IEFZB +DALINCHG EQU   X'006F'                 Volume Interchange
                                    2459             +*                                      Attributes                 @L5A
                                    2460    01-IEFZB +DALOVAFF EQU   X'0070'                 Tell JES to override       @L6A
                                    2461             +*                                      system affinity for INTRDR @L6A
                                    2462    01-IEFZB +DALRTCTK EQU   X'0071'                 Return Allocation Sysout   @L8A
                                    2463             +*                                      Client Token               @L8A
                                    2464    01-IEFZB +DALKILO  EQU   X'0072'                 BLKSIZE OF KILOBYTE        @L9A
                                    2465    01-IEFZB +DALMEG   EQU   X'0073'                 BLKSIZE OF MEGABYTE        @L9A
                                    2466    01-IEFZB +DALGIG   EQU   X'0074'                 BLKSIZE OF GIGABYTE        @L9A
                                    2467    01-IEFZB +DALACODE EQU   X'8001'                 ACCESSIBILITY CODE         @L1A
                                    2468    01-IEFZB +DALOUTPT EQU   X'8002'                 OUTPUT REFERENCE           @H1A
                                    2469             +*  JDT defined Allocation keys
                                    2471             +*        SJF DD ALLOCATION KEYS                               *    @L3A
                                    2472    02-IEFSJ +DALCNTL    EQU   X'8003'        CNTL                               @D1A
                                    2473    02-IEFSJ +DALSTCL    EQU   X'8004'        STORCLAS
                                    2474    02-IEFSJ +DALMGCL    EQU   X'8005'        MGMTCLAS
                                    2475    02-IEFSJ +DALDACL    EQU   X'8006'        DATACLAS
                                    2476    02-IEFSJ +DALRECO    EQU   X'800B'        RECORG
                                    2477    02-IEFSJ +DALKEYO    EQU   X'800C'       KEYOFF
                                    2478    02-IEFSJ +DALREFD    EQU   X'800D'       REFDD
                                    2479    02-IEFSJ +DALSECM    EQU   X'800E'       SECMODEL
                                    2480    02-IEFSJ +DALLIKE    EQU   X'800F'        LIKE
                                    2481    02-IEFSJ +DALAVGR    EQU   X'8010'        AVGREC
                                    2482    02-IEFSJ +DALDSNT    EQU   X'8012'        DSNTYPE                          @L1A
1VMSC     (VMSC00) (09:48) (22MAR04) ORVYL STYLE BATCH I/O ROUTINES                                                         Page   31
0D-Loc  Object Code    Addr1 Addr2  Stmt Lv Lineno    Source Statement           (Hibal 5, Asmedit 3.3)  HLASM R4.0  2004/03/22 09.48
+_____  ______ ____    _____ _____  ____ __ ______    ______ _________
0                                   2483    02-IEFSJ +DALSPIN    EQU   X'8013'        SPIN                             @L2A
                                    2484    02-IEFSJ +DALSEGM    EQU   X'8014'        SEGMENT                          @L2A
                                    2485             +*                                                                  @L4A
                                    2486    02-IEFSJ +DALPATH    EQU   X'8017'        PATH                               @L4A
                                    2487             +*                                                                  @L4A
                                    2488    02-IEFSJ +DALPOPT    EQU   X'8018'        PATHOPTS                           @L4A
                                    2489    02-IEFSJ +DALPMDE    EQU   X'8019'        PATHMODE                           @L4A
                                    2490    02-IEFSJ +DALPNDS    EQU   X'801A'        PATHDISP - Normal Disposition      @L4A
                                    2491    02-IEFSJ +DALPCDS    EQU   X'801B'        PATHDISP - Conditional Disposition @L4A
                                    2492    02-IEFSJ +DALRLS     EQU   X'801C'        RLS - Record Level Sharing         @L5A
                                    2493    02-IEFSJ +DALFDAT    EQU   X'801D'        FILEDATA - file organization       @L6A
                                    2494    02-IEFSJ +DALLGST    EQU   X'801F'        LGSTREAM                           @02A
                                    2495    02-IEFSJ +DALDCCS    EQU   X'8020'        CCSID                              @03A
                                    2496    02-IEFSJ +DALBSLM    EQU   X'8022'        BLKSZLIM                           @04A
                                    2497             +**********************************************************************
                                    2498             +*
                                    2499             +* KEYS FOR CONCATENATION FUNCTION
                                    2500             +*
                                    2501             +**********************************************************************
                                    2502    01-IEFZB +DCCDDNAM EQU   X'0001'                 DDNAMES
                                    2503    01-IEFZB +DCCPERMC EQU   X'0004'                 PERMANENTLY CONCATENATED
                                    2504             +**********************************************************************
                                    2505             +*
                                    2506             +* KEYS FOR DECONCATENATION FUNCTION
                                    2507             +*
                                    2508             +***********************************************************************
                                    2509    01-IEFZB +DDCDDNAM EQU   X'0001'                 DDNAME
                                    2510             +***********************************************************************
                                    2511             +*
                                    2512             +* KEYS FOR INFORMATION RETRIEVAL FUNCTION
                                    2513             +*
                                    2514             +***********************************************************************
                                    2515    01-IEFZB +DINDDNAM EQU   X'0001'                 DDNAME
                                    2516    01-IEFZB +DINDSNAM EQU   X'0002'                 DSNAME
                                    2517    01-IEFZB +DINRTDDN EQU   X'0004'                 RETURN DDNAME
                                    2518    01-IEFZB +DINRTDSN EQU   X'0005'                 RETURN DSNAME
                                    2519    01-IEFZB +DINRTMEM EQU   X'0006'                 RETURN MEMBER NAME
                                    2520    01-IEFZB +DINRTSTA EQU   X'0007'                 RETURN DATA SET STATUS
                                    2521    01-IEFZB +DINRTNDP EQU   X'0008'                 RETURN NORMAL DISPOSITION
                                    2522    01-IEFZB +DINRTCDP EQU   X'0009'                 RETURN CONDITIONAL DISP
                                    2523    01-IEFZB +DINRTORG EQU   X'000A'                 RETURN D.S. ORGANIZATION
                                    2524    01-IEFZB +DINRTLIM EQU   X'000B'                 RETURN # TO NOT-IN-USE LIMIT
                                    2525    01-IEFZB +DINRTATT EQU   X'000C'                 RETURN DYN. ALLOC ATTRIBUTES
                                    2526    01-IEFZB +DINRTLST EQU   X'000D'                 RETURN LAST ENTRY INDICATION
                                    2527    01-IEFZB +DINRTTYP EQU   X'000E'                 RETURN S.D. TYPE INDICATION
                                    2528    01-IEFZB +DINRELNO EQU   X'000F'                 RELATIVE REQUEST NUMBER
                                    2529    01-IEFZB +DINRTVOL EQU   X'0010'                 Return First Volser        @L7A
                                    2530             +*  JDT defined Information Retrieval output keys
                                    2532             +*        SJF DD INFORMATION RETRIEVAL KEYS                    *    @L3A
                                    2533    02-IEFSJ +DINRCNTL   EQU   X'C003'        CNTL                               @D1A
                                    2534    02-IEFSJ +DINRSTCL   EQU   X'C004'        STORCLAS
                                    2535    02-IEFSJ +DINRMGCL   EQU   X'C005'        MGMTCLAS
                                    2536    02-IEFSJ +DINRDACL   EQU   X'C006'        DATACLAS
                                    2537    02-IEFSJ +DINRRECO   EQU   X'C00B'        RECORG
                                    2538    02-IEFSJ +DINRKEYO   EQU   X'C00C'        KEYOFF
                                    2539    02-IEFSJ +DINRREFD   EQU   X'C00D'        REFDD
1VMSC     (VMSC00) (09:48) (22MAR04) ORVYL STYLE BATCH I/O ROUTINES                                                         Page   32
0D-Loc  Object Code    Addr1 Addr2  Stmt Lv Lineno    Source Statement           (Hibal 5, Asmedit 3.3)  HLASM R4.0  2004/03/22 09.48
+_____  ______ ____    _____ _____  ____ __ ______    ______ _________
0                                   2540    02-IEFSJ +DINRSECM   EQU   X'C00E'        SECMODEL
                                    2541    02-IEFSJ +DINRLIKE   EQU   X'C00F'        LIKE
                                    2542    02-IEFSJ +DINRAVGR   EQU   X'C010'        AVGREC
                                    2543    02-IEFSJ +DINRDSNT   EQU   X'C012'        DSNTYPE                           @L1A
                                    2544    02-IEFSJ +DINRSPIN   EQU   X'C013'        SPIN                              @L2A
                                    2545    02-IEFSJ +DINRSEGM   EQU   X'C014'        SEGMENT                           @L2A
                                    2546    02-IEFSJ +DINRPATH   EQU   X'C017'        PATH                               @L4A
                                    2547    02-IEFSJ +DINRPOPT   EQU   X'C018'        PATHOPTS                           @L4A
                                    2548    02-IEFSJ +DINRPMDE   EQU   X'C019'        PATHMODE                           @L4A
                                    2549    02-IEFSJ +DINRPNDS   EQU   X'C01A'        NORMAL PATHDISP                    @L4A
                                    2550    02-IEFSJ +DINRCNDS   EQU   X'C01B'        CONDITIONAL PATHDISP               @L4A
                                    2551    02-IEFSJ +DINRFDAT   EQU   X'C01D'        FILEDATA                           @L6A
                                    2552             +*  JDT defined Information Retrieval input keys
                                    2554             +*        SJF DD INFORMATION RETRIEVAL INPUT KEYS              *    @L4A
                                    2555    02-IEFSJ +DINPATH    EQU   X'8017'        PATH                               @L4A
                                    2556             +**********************************************************************
                                    2557             +*
                                    2558             +* KEYS FOR REMOVE IN-USE FUNCTION
                                    2559             +*
                                    2560             +**********************************************************************
                                    2561    01-IEFZB +DRITCBAD EQU   X'0001'                 TCB ADDRESS
                                    2562    01-IEFZB +DRICURNT EQU   X'0002'                 CURRENT TASK OPTION
                                    2563             +**********************************************************************
                                    2564             +*
                                    2565             +* KEYS FOR DDNAME ALLOCATION FUNCTION
                                    2566             +*
                                    2567             +**********************************************************************
                                    2568    01-IEFZB +DDNDDNAM EQU   X'0001'                 DDNAME
                                    2569    01-IEFZB +DDNRTDUM EQU   X'0002'                 RETURN DUMMY D.S. INDICATION
                                    2570             +**********************************************************************
                                    2571             +*
                                    2572             +* KEYS FOR UNALLOCATION FUNCTION
                                    2573             +*
                                    2574             +**********************************************************************
                                    2575    01-IEFZB +DUNDDNAM EQU   X'0001'                 DDNAME
                                    2576    01-IEFZB +DUNDSNAM EQU   X'0002'                 DSNAME
                                    2577    01-IEFZB +DUNMEMBR EQU   X'0003'                 MEMBER NAME
                                    2578    01-IEFZB +DUNOVDSP EQU   X'0005'                 OVERRIDING DISPOSITION
                                    2579    01-IEFZB +DUNUNALC EQU   X'0007'                 UNALLOC OPTION
                                    2580    01-IEFZB +DUNREMOV EQU   X'0008'                 REMOVE OPTION
                                    2581    01-IEFZB +DUNOVSNH EQU   X'000A'                 OVERRIDING SYSOUT NOHOLD
                                    2582    01-IEFZB +DUNOVCLS EQU   X'0018'                 OVERRIDING SYSOUT CLASS
                                    2583    01-IEFZB +DUNOVSUS EQU   X'0058'                 OVERRIDING SYSOUT NODE     @P2C
                                    2584    01-IEFZB +DUNOVSHQ EQU   X'0059'                 OVERRIDING SYSOUT HOLD QUEUE
                                    2585    01-IEFZB +DUNOVUID EQU   X'0063'                 Overriding SYSOUT User ID  @P2A
                                    2586             +*  JDT defined Unallocation keys                                  @L3A
                                    2588             +*        SJF DD UNALLOCATION KEYS                             *    @L3A
                                    2589    02-IEFSJ +DUNSPIN    EQU   X'8013'        SPIN                               @L3A
                                    2590             +
                                    2591    02-IEFSJ +DUNPATH    EQU   X'8017'        PATH                               @L4A
                                    2592             +
                                    2593    02-IEFSJ +DUNOVPDS    EQU   X'801A'        PATHDISP - Override Disposition   @L4A
 000000                00000 00040  2594      31.18   TIOT     DSECT ,
                                    2595      31.23            IEFTIOT1 ,
                                    2596             +*%TIOTL1 : ;
                                    2597             +*
1VMSC     (VMSC00) (09:48) (22MAR04) ORVYL STYLE BATCH I/O ROUTINES                                                         Page   33
0D-Loc  Object Code    Addr1 Addr2  Stmt Lv Lineno    Source Statement           (Hibal 5, Asmedit 3.3)  HLASM R4.0  2004/03/22 09.48
+_____  ______ ____    _____ _____  ____ __ ______    ______ _________
0                                   2598             +*/** START OF SPECIFICATIONS *************************************** */
                                    2599             +*/*            TASK INPUT/OUTPUT TABLE                               */
                                    2600             +*/*                                                                  */
                                    2601             +*/*01* MACRO NAME: IEFTIOT1                                          */
                                    2602             +*/*                                                                  */
                                    2603             +*/*01* DESCRIPTIVE-NAME: Task Input/Output Table                     */
                                    2604             +*/*                                                                  */
                                    2605             +*/*01* EXTERNAL CLASSIFICATION:                                      */
                                    2606             +*/*    DMTI: BASE                                                    */
                                    2607             +*/*    GUPI: FIELDS                                                  */
                                    2608             +*/*    TIOCNJOB TIOCSTEP TIOCSTPN TIOCPSTN TIOCJSTN                  */
                                    2609             +*/*    TIOEDDNM TIOEJFCB TIOEFSRT TIOELNGH TIOEWTCT                  */
                                    2610             +*/*                                                                  */
                                    2611             +*/*01* END OF EXTERNAL CLASSIFICATION:                               */
                                    2612             +*/*                                                                  */
                                    2613             +*/*01* PROPRIETARY STATEMENT=                                        */
                                    2614             +*/***PROPRIETARY_STATEMENT********************************************/
                                    2615             +*/*                                                                  */
                                    2616             +*/*                                                                  */
                                    2617             +*/* LICENSED MATERIALS - PROPERTY OF IBM                             */
                                    2618             +*/* THIS MACRO IS "RESTRICTED MATERIALS OF IBM"                      */
                                    2619             +*/* 5645-001 (C) COPYRIGHT IBM CORP. 1980,1996                       */
                                    2620             +*/*                                                                  */
                                    2621             +*/* STATUS= JBB6602                                                  */
                                    2622             +*/*                                                                  */
                                    2623             +*/***END_OF_PROPRIETARY_STATEMENT*************************************/
                                    2624             +*/*                                                                  */
                                    2625             +*/*01* DSECT NAME:                                                   */
                                    2626             +*/*    No DSECT card put out by macro. TIOT1 may be used in the      */
                                    2627             +*/*    USING statement.                                              */
                                    2628             +*/*                                                                  */
                                    2629             +*/*01* COMPONENT = Allocation/unallocation (SC1B4)                   */
                                    2630             +*/*                                                                  */
                                    2631             +*/*01* EYE CATCHER = None                                            */
                                    2632             +*/*02*   OFFSET = N/A                                                */
                                    2633             +*/*02*   LENGTH = N/A                                                */
                                    2634             +*/*                                                                  */
                                    2635             +*/*01* STORAGE ATTRIBUTES =                                          */
                                    2636             +*/*                                                                  */
                                    2637             +*/*                                                                  */
                                    2638             +*/*01* SIZE: Variable (Installation Defined)                         */
                                    2639             +*/*01*   MAIN STORAGE = No                                           */
                                    2640             +*/*01*   VIRTUAL STORAGE = Yes                                       */
                                    2641             +*/*01*   DATA SPACE = No                                             */
                                    2642             +*/*01*   SUBPOOL = 237 (obtained from JSCBSWSP)                  @P2C*/
                                    2643             +*/*01*   KEY = 1                                                     */
                                    2644             +*/*01*   RESIDENCY = Below (normal TIOT) or Above (XTIOT) 16M        */
                                    2645             +*/*01*   FREQUENCY = One per jobstep                                 */
                                    2646             +*/*                                                                  */
                                    2647             +*/*01* CREATED BY: Device allocation                                 */
                                    2648             +*/*                                                                  */
                                    2649             +*/*01* POINTED TO BY:                                                */
                                    2650             +*/* TCBTIO field of the TCB data area                            @P2A*/
                                    2651             +*/* DCBTIOT field of the DCB data area                               */
                                    2652             +*/* DSABTIOT field of the DSAB data area (DD entry TIOT)             */
                                    2653             +*/* JCTSTIOT field of the JCT data area                              */
1VMSC     (VMSC00) (09:48) (22MAR04) ORVYL STYLE BATCH I/O ROUTINES                                                         Page   34
0D-Loc  Object Code    Addr1 Addr2  Stmt Lv Lineno    Source Statement           (Hibal 5, Asmedit 3.3)  HLASM R4.0  2004/03/22 09.48
+_____  ______ ____    _____ _____  ____ __ ______    ______ _________
0                                   2654             +*/* SMCATIOT field of the SMCA data area (master scheduler TIOT)     */
                                    2655             +*/*01* SERIALIZATION: ENQ on SYSZTIOT                                */
                                    2656             +*/*                                                                  */
                                    2657             +*/*01* FUNCTION: Provides the I/O support routines with pointers     */
                                    2658             +*/*    to JFCBs and to allocated devices.                            */
                                    2659             +*/*                                                                  */
                                    2660             +*/*02* -  Each DD statement, whether it is a member of a         @P2A*/
                                    2661             +*/*       concatenation or not, has its own TIOT DD Entry. There @P2A*/
                                    2662             +*/*       will be one DD statement for each GDG data set for a   @P2A*/
                                    2663             +*/*       GDGALL request.                                        @P2A*/
                                    2664             +*/*                                                                  */
                                    2665             +*/*02* -  Within each DD Entry there will be one Device Entry    @P2A*/
                                    2666             +*/*       for each device allocated to that DD statement.        @P2A*/
                                    2667             +*/*       Single device does not always mean "not a multi-volume"@P2A*/
                                    2668             +*/*       data set.  For permres devices (e.g., D/T3390), device @P2A*/
                                    2669             +*/*       and volume are synonymous.  However, for tape requests @P2A*/
                                    2670             +*/*       device and volume are NOT synonymous since a tape      @P2A*/
                                    2671             +*/*       volume can be mounted on any one of many tape devices. @P2A*/
                                    2672             +*/*                                                                  */
                                    2673             +*/*01* METHOD OF ACCESS:                                             */
                                    2674             +*/*      A DSECT card should precede the macro call. USING on        */
                                    2675             +*/*      TIOT1 gives addressability for all symbols.                 */
                                    2676             +*/*01* METHOD OF PL/S ACCESS:                                        */
                                    2677             +*/*      PL/S - DCL TIOTPTR PTR                                      */
                                    2678             +*/*                                                                  */
                                    2679             +*/*  DEPENDENCY - ANY CHANGES TO THE TIOENTRY STRUCTURE OF THIS  @L0A*/
                                    2680             +*/*               MAPPING SHOULD BE REFLECTED IN THE IPCS        @L0A*/
                                    2681             +*/*               MODEL IEFMTIOE.                                @L0A*/
                                    2682             +*/*                                                                  */
                                    2683             +*/*  CHANGE ACTIVITY - L0                                            */
                                    2684             +*/*   $L0= DDPERF   HBB4420 900406 PDDS: DDLPERFIPCS DD LIMIT        */
                                    2685             +*/*                                                  PERFORMANCE @L0A*/
                                    2686             +*/*   $P1= PSD0454  JBB6602 950921 PDXB: Fix TIOEJFCB comment,   @P1A*/
                                    2687             +*/*                                      Add TIOCSTEP subfields. @P1A*/
                                    2688             +*/*   $P2= PSD0771  JBB6602 960208 PDNN: Updates to the prolog   @P2A*/
                                    2689             +*/*                                                                  */
                                    2690             +*/* **************************************************************** */
                                    2691             +*/* C - Added TCBTIO under Pointed to by and added additional    @P2A*/
                                    2692             +*/*     explanations on TIOT entries.                            @P2A*/
                                    2693             +*/* C - Change comment on TIOEJFCB. Add subfields to TIOCSTEP.   @P1A*/
                                    2694             +*/* A - ADD DEPENDENCY NOTE FOR IPCS TIOT ENTRY CONTROL BLOCK    @L0A*/
                                    2695             +*/*     MODEL                                                    @L0A*/
                                    2696             +*/*** END OF SPECIFICATIONS **************************************** */
                                    2697             +*/*                                                                  */
                                    2698             +*%GOTO TIOTL2;  /*
0000000                             2700    01-IEFTI +         DS    0F
                                    2701    01-IEFTI +TIOT1    EQU   * -            TIOTPTR
 000000                             2702    01-IEFTI +TIOCNJOB DS    CL8  -         JOB NAME
 000008                             2703    01-IEFTI +TIOCSTEP DS   0CL16 -         STEP INFORMATION                    @P1C
 000008                             2704    01-IEFTI +TIOCSTPN DS   0CL8  -         8-BYTE STEP NAME FOR NON-PROCS      @P1A
 000008                             2705    01-IEFTI +TIOCPSTN DS   CL8   -         8-BYTE PROC STEP NAME FOR PROCS     @P1A
 000010                             2706    01-IEFTI +TIOCJSTN DS   CL8   -         8-BYTE JOBSTEP NAME FOR PROCS       @P1A
0                                   2708             +***********************************************************************
                                    2709             +*                                                                     *
1VMSC     (VMSC00) (09:48) (22MAR04) ORVYL STYLE BATCH I/O ROUTINES                                                         Page   35
0D-Loc  Object Code    Addr1 Addr2  Stmt Lv Lineno    Source Statement           (Hibal 5, Asmedit 3.3)  HLASM R4.0  2004/03/22 09.48
+_____  ______ ____    _____ _____  ____ __ ______    ______ _________
0                                   2710             +*   DD ENTRY                                                          *
                                    2711             +*                                                                     *
                                    2712             +*        THERE IS A 16-BYTE DD ENTRY FOR EACH DD STATEMENT IN THE     *
                                    2713             +*        JOB STEP OR PROCEDURE STEP.  (REFERENCES TO GDG (ALL) DATA   *
                                    2714             +*        SETS, THE JOBLIB DATA SET OR PGM=*.DDNAME CREATE STILL       *
                                    2715             +*        OTHER DD ENTRIES.)                                           *
                                    2716             +*                                                                     *
                                    2717             +*        A DD ENTRY INCLUDES A DEVICE ENTRY.  BEFORE ALLOCATION,      *
                                    2718             +*        THERE MAY BE SEVERAL DEVICE ENTRIES IN EACH DD ENTRY.        *
                                    2719             +*                                                                     *
                                    2720             +***********************************************************************
0                                   2722    01-IEFTI +TIOENTRY EQU   * -            TIODDPTR
 000018                             2723    01-IEFTI +TIOELNGH DS    FL1 -          LENGTH, IN BYTES, OF THIS ENTRY
                                    2724             +*                             (INCLUDING ALL DEVICE ENTRIES)
 000019                             2725    01-IEFTI +TIOESTTA DS    B -            STATUS BYTE A
                                    2726    01-IEFTI +TIOSLTYP EQU   X'80' -        NONSTANDARD LABEL (TAPE) (OS/VS1)
                                    2727             +*                             FREED TIOT ENTRY (OS/VS2)        @ZA45994
                                    2728    01-IEFTI +TIOSPLTP EQU   X'40' -        DURING ALLOCATION, SPLIT CYLINDER
                                    2729             +*                             PRIMARY.  (THIS IS THE FIRST DD ENTRY FOR
                                    2730             +*                             A SPLIT CYLINDER.)
                                    2731             +*                             DURING STEP TERMINATION, NO UNALLOCATION
                                    2732             +*                             NECESSARY.
                                    2733    01-IEFTI +TIOSPLTS EQU   X'20' -        DURING ALLOCATION, SPLIT CYLINDER
                                    2734             +*                             SECONDARY.  (THIS IS NOT THE FIRST DD
                                    2735             +*                             ENTRY FOR A SPLIT CYLINDER.)
                                    2736             +*                             DURING STEP TERMINATION, REWIND BUT NO
                                    2737             +*                             UNLOADING.
                                    2738    01-IEFTI +TIOSJBLB EQU   X'10' -        JOBLIB INDICATOR
                                    2739    01-IEFTI +TIOSDADS EQU   X'08' -        DADSM ALLOCATION NECESSRY
                                    2740    01-IEFTI +TIOSLABL EQU   X'04' -        LABELED TAPE.  IF BIT 0 IS OFF, SL OR
                                    2741             +*                             SUL.  IF BIT 0 IS ALSO ON, AL OR AUL.
                                    2742    01-IEFTI +TIOSDSP1 EQU   X'02' -        REWIND/UNLOAD THE TAPE VOLUME (TAPE)
                                    2743             +*                             PRIVATE VOLUME (DIRECT ACCESS)     MDC001
                                    2744    01-IEFTI +TIOSDSP2 EQU   X'01' -        REWIND THE TAPE VOLUME (TAPE)
                                    2745             +*                             PUBLIC VOLUME (DIRECT ACCESS)      MDC002
 00001A                             2746    01-IEFTI +TIOERLOC DS    0CL2 -         RELATIVE LOCATION OF POOL
 00001A                             2747    01-IEFTI +TIOEWTCT DS    CL1 -          DURING ALLOCATION, NUMBER OF DEVICES
                                    2748             +*                             REQUESTED FOR THIS DATA SET
 00001B                             2749    01-IEFTI +TIOELINK DS    CL1 -          DURING ALLOCATION, LINK TO THE
                                    2750             +*                             APPROPRIATE PRIME SPLIT, UNIT AFFINITY,
                                    2751             +*                             VOLUME AFFINITY OR SUBALLOCATE TIOT
                                    2752             +*                             ENTRY.  AFTER ALLOCATION, FLAG BYTE.
                                    2753    01-IEFTI +TIOSYOUT EQU   X'80' -        THIS IS A SYSOUT DATA SET THAT CONTAINS
                                    2754             +*                             DATA (AFTER CLOSE)
                                    2755    01-IEFTI +TIOTRV01 EQU   X'40' -        RESERVED                           MDC006
                                    2756    01-IEFTI +TIOTTERM EQU   X'20' -        DEVICE IS A TERMINAL
                                    2757    01-IEFTI +TIOEDYNM EQU   X'10' -        DYNAM CODED ON DD STATEMENT
                                    2758    01-IEFTI +TIOEQNAM EQU   X'08' -        QNAME CODED ON DD STATEMENT
                                    2759    01-IEFTI +TIOESYIN EQU   X'04' -        ENTRY FOR SPOOLED SYSIN DATA SET
                                    2760             +*                             (OS/VS1)                           MDC003
                                    2761    01-IEFTI +TIOESYOT EQU   X'02' -        ENTRY FOR SPOOLED SYSOUT DATA SET
                                    2762             +*                             (OS/VS1)                           MDC004
                                    2763    01-IEFTI +TIOESSDS EQU   X'02' -        ENTRY FOR A SUBSYSTEM DATA SET
                                    2764             +*                             (OS/VS2)                           MDC005
                                    2765    01-IEFTI +TIOTREM  EQU   X'01' -        ENTRY FOR A REMOTE DEVICE          ICB340
1VMSC     (VMSC00) (09:48) (22MAR04) ORVYL STYLE BATCH I/O ROUTINES                                                         Page   36
0D-Loc  Object Code    Addr1 Addr2  Stmt Lv Lineno    Source Statement           (Hibal 5, Asmedit 3.3)  HLASM R4.0  2004/03/22 09.48
+_____  ______ ____    _____ _____  ____ __ ______    ______ _________
000001C                             2766    01-IEFTI +TIOEDDNM DS    CL8 -          DD NAME
 000024                             2767    01-IEFTI +TIOEJFCB DS    CL3 -          SWA virtual address token, mapped
                                    2768             +*                             by SWAREQ macro. Refer to that macro for
                                    2769             +*                             further information.                 @P1C
 000027                             2770    01-IEFTI +TIOESTTC DS    B -            STATUS BYTE C.  USED DURING ALLOCATION
                                    2771             +*                             ONLY.  SET TO ZEROS AT END OF ALLOCATION.
                                    2772    01-IEFTI +TIOSDKCR EQU   X'80' -        MAIN STORAGE OR DASD ADDRESS
                                    2773    01-IEFTI +TIOSDEFR EQU   X'40' -        DEFERRED MOUNT
                                    2774    01-IEFTI +TIOSAFFP EQU   X'20' -        PRIMARY UNIT AFFINITY
                                    2775    01-IEFTI +TIOSAFFS EQU   X'10' -        SECONDARY UNIT AFFINITY
                                    2776    01-IEFTI +TIOSVOLP EQU   X'08' -        PRIMARY VOLUME AFFINITY
                                    2777    01-IEFTI +TIOSVOLS EQU   X'04' -        SECONDARY VOLUME AFFINITY
                                    2778    01-IEFTI +TIOSBALP EQU   X'02' -        PRIMARY SUBALLOCATE
                                    2779    01-IEFTI +TIOSBALS EQU   X'01' -        SECONDARY SUBALLOCATE
0                                   2781             +***********************************************************************
                                    2782             +*                                                                     *
                                    2783             +*   DEVICE ENTRIES                                                    *
                                    2784             +*                                                                     *
                                    2785             +*      1. DURING ALLOCATION -                                         *
                                    2786             +*                ONE DEVICE ENTRY FOR EACH DEVICE REQUIRED, OR FOR    *
                                    2787             +*                EACH PUBLIC DEVICE ELIGIBLE.                         *
                                    2788             +*                                                                     *
                                    2789             +*      2. DURING PROBLEM PROGRAM -                                    *
                                    2790             +*                ONE DEVICE ENTRY FOR EACH ALLOCATED DEVICE.          *
                                    2791             +*                                                                     *
                                    2792             +***********************************************************************
0000028                             2794    01-IEFTI +TIOESTTB DS    B -            STATUS BYTE B - DURING ALLOCATION AND
                                    2795             +*                             DURING PROBLEM PROGRAM
                                    2796    01-IEFTI +TIOSUSED EQU   X'80' -        DATA SET IS ON DEVICE
                                    2797    01-IEFTI +TIOSREQD EQU   X'40' -        DATA SET WILL USE DEVICE
                                    2798    01-IEFTI +TIOSPVIO EQU   X'20' -        DEVICE VIOLATES SEPARATION
                                    2799    01-IEFTI +TIOSVLSR EQU   X'10' -        VOLUME SERIAL PRESENT
                                    2800    01-IEFTI +TIOSSETU EQU   X'08' -        SETUP MESSAGE REQUIRED
                                    2801    01-IEFTI +TIOSMNTD EQU   X'04' -        IF 0, DELETE UNLOADED VOLUME IF UNLOAD
                                    2802             +*                             REQUIRED.  IF 1, RETAIN UNLOADED VOLUME
                                    2803             +*                             IF UNLOAD REQUIRED.
                                    2804    01-IEFTI +TIOSUNLD EQU   X'02' -        UNLOAD REQUIRED
                                    2805    01-IEFTI +TIOSVERF EQU   X'01' -        VERIFICATION REQUIRED
 000029                             2806    01-IEFTI +TIOEFSRT DS    AL3 -          DURING PROBLEM PROGRAM, ADDRESS OF UCB.
                                    2807             +*                             DURING ALLOCATION, BITS 0-11 CONTAIN
                                    2808             +*                             OFFSET, IN THE UCB LOOK-UP TABLE, TO AN
                                    2809             +*                             ADDRESS FOR A DEVICE REQUIRED OR ELIGIBLE
                                    2810             +*                             FOR THIS DATA SET.  THE UCB LOOK-UP TABLE
                                    2811             +*                             HAS ADDRESSES OF UCB'S.  BITS 12-23
                                    2812             +*                             CONTAIN OFFSET, IN THE STEP VOLUME TABLE
                                    2813             +*                             (VOLT), TO THE VOLUME SERIAL NUMBER FOR
                                    2814             +*                             THE VOLUME REQUIRED OR ELIGIBLE FOR THIS
                                    2815             +*                             DATA SET.
-                                   2817             +*        TIOT POOL ENTRY
0                                   2819    01-IEFTI +POOLSTAR EQU   *
 00002C                             2820    01-IEFTI +         DS    CL1 -          RESERVED
1VMSC     (VMSC00) (09:48) (22MAR04) ORVYL STYLE BATCH I/O ROUTINES                                                         Page   37
0D-Loc  Object Code    Addr1 Addr2  Stmt Lv Lineno    Source Statement           (Hibal 5, Asmedit 3.3)  HLASM R4.0  2004/03/22 09.48
+_____  ______ ____    _____ _____  ____ __ ______    ______ _________
000002D                             2821    01-IEFTI +TIOPNSLT DS    FL1 -          NUMBER OF SLOTS FOR POOL
 00002E                             2822    01-IEFTI +         DS    CL1 -          RESERVED
 00002F                             2823    01-IEFTI +TIOPNSRT DS    FL1 -          NUMBER OF DEVICES (FILLED SLOTS)
 000030                             2824    01-IEFTI +TIOPPOOL DS    CL8 -          POOL NAME
 000038                             2825    01-IEFTI +TIOPSTTB DS    XL1 -          STATUS OF SLOT
 000039                             2826    01-IEFTI +TIOPSLOT DS    AL3 -          UCB ADDRESS OR EMPTY SLOT
 00003C                             2827    01-IEFTI +TIOTFEND DS    CL4 -          FINAL END OF THE TIOT - BINARY ZEROS
 000000                00000 00000  2828      31.25   TCBDSCT  DSECT ,
                                    2829      31.28            IKJTCB ,
                                    2830             +*%TCBL1 : ;
                                    2831             +*/* START OF SPECIFICATIONS ******************************************/
                                    2832             +*/*                                                                  */
                                    2833             +*/*01* PROPRIETARY STATEMENT =                                   @P5C*/
                                    2834             +*/*                                                                  */
                                    2835             +*/*      LICENSED MATERIALS - PROPERTY OF IBM                        */
                                    2836             +*/*      THIS MACRO IS "RESTRICTED MATERIALS OF IBM"                 */
                                    2837             +*/*      5647-A01 (C) COPYRIGHT IBM CORP. 1977, 2000                 */
                                    2838             +*/*                                                                  */
                                    2839             +*/*01* STATUS = JBB6609                                              */
                                    2840             +*/*                                                                  */
                                    2841             +*/*01* DESCRIPTIVE NAME = TASK CONTROL BLOCK                         */
                                    2842             +*/*02*  ACRONYM:  TCB                                                */
                                    2843             +*/*                                                                  */
                                    2844             +*/*01* MACRO NAME = IKJTCB                                           */
                                    2845             +*/*                                                                  */
                                    2846             +*/*01* DSECT NAME:                                                   */
                                    2847             +*/*     TCBFIX (DSECT card precedes prefix).  The label, TCB,        */
                                    2848             +*/*     should be used in the USING statement for the TCB proper.    */
                                    2849             +*/*     TCBXTNT2 is the DSECT name for common extension.             */
                                    2850             +*/*                                                                  */
                                    2851             +*/*01* COMPONENT:  Task Management (SC1CL)                           */
                                    2852             +*/*                                                                  */
                                    2853             +*/*01* EYE-CATCHER:  TCB                                             */
                                    2854             +*/*02*  OFFSET:  256                                                 */
                                    2855             +*/*02*  LENGTH:  4                                                   */
                                    2856             +*/*                                                                  */
                                    2857             +*/*01* STORAGE ATTRIBUTES:                                           */
                                    2858             +*/*02*  SUBPOOL: 253                                                 */
                                    2859             +*/*02*  KEY:  0                                                      */
                                    2860             +*/*02*  RESIDENCY:  Below 16 MB line                                 */
                                    2861             +*/*                                                                  */
                                    2862             +*/*01* SIZE:  408 bytes                                              */
                                    2863             +*/*                                                                  */
                                    2864             +*/*01* CREATED BY: IEAMSWCB, ATTACH                                  */
                                    2865             +*/*                                                                  */
                                    2866             +*/*01* DELETED BY : DETACH                                           */
                                    2867             +*/*                                                                  */
                                    2868             +*/*01* POINTED TO BY:                                                */
                                    2869             +*/*     ASMTCBPT field of the ASMVT data area                        */
                                    2870             +*/*     ASXBFTCB field of the ASXB data area (first TCB)             */
                                    2871             +*/*     ASXBLTCB field of the ASXB data area (last TCB)              */
                                    2872             +*/*     CVTSLIDA field of the CVT data area (supervisor lock TCB)    */
                                    2873             +*/*     CVTWTCB field of the CVT data area (dummy WAIT TCB)          */
                                    2874             +*/*     DEBTCBAD field of the DEB data area                          */
                                    2875             +*/*     DSABTCBP field of the DSAB data area                         */
                                    2876             +*/*     EVNTTCBP field of the EVNT data area                         */
1VMSC     (VMSC00) (09:48) (22MAR04) ORVYL STYLE BATCH I/O ROUTINES                                                         Page   38
0D-Loc  Object Code    Addr1 Addr2  Stmt Lv Lineno    Source Statement           (Hibal 5, Asmedit 3.3)  HLASM R4.0  2004/03/22 09.48
+_____  ______ ____    _____ _____  ____ __ ______    ______ _________
0                                   2877             +*/*     JSCBTCBP field of the JSCB data area (initiator TCB)         */
                                    2878             +*/*     LCTTCBAD field of the LCT data area                          */
                                    2879             +*/*     ORETCB field of the ORE data area                            */
                                    2880             +*/*     PQETCB field of the PQE data area                            */
                                    2881             +*/*     PSATNEW field of the PSA data area (new TCB to dispatch)     */
                                    2882             +*/*     PSATOLD field of the PSA data area (current TCB              */
                                    2883             +*/*     dispatched)                                                  */
                                    2884             +*/*     QELTCB field of the QEL data area                            */
                                    2885             +*/*     QPLTCB field of the QPL data area                            */
                                    2886             +*/*     RBLINK field of the RB data area                             */
                                    2887             +*/*     RQETCB field of the RQE data area                            */
                                    2888             +*/*     SCVTCTCB field of the SCVT data area (Comm Task TCB)         */
                                    2889             +*/*     SMCAWTCB field of the SMCA data area (SMF writer TCB)        */
                                    2890             +*/*     SQETCB field of the SQE data area                            */
                                    2891             +*/*     SSETCBA field of the EOT SSOB data area (terminating TCB)    */
                                    2892             +*/*     TAXETCB field of the TAXE data area                          */
                                    2893             +*/*     TCBTCB field of the TCB data area (next TCB)                 */
                                    2894             +*/*     TCBJSTCB field of the TCB data area (jobstep TCB)            */
                                    2895             +*/*     TCBNTC field of the TCB data area (sister TCB)               */
                                    2896             +*/*     TCBOTC field of the TCB data area (originating TCB)          */
                                    2897             +*/*     TCBLTC field of the TCB data area (subtask TCB)              */
                                    2898             +*/*     TCBBACK field of the TCB data area (previous TCB)            */
                                    2899             +*/*     TCCWTCB field of the TCCW data area                          */
                                    2900             +*/*     TCTTCB field of the TCT data area                            */
                                    2901             +*/*     TIOCLDS field of the TIOCRPT data area (line                 */
                                    2902             +*/*     disconnect TCB)                                              */
                                    2903             +*/*     TQETCB field of the TQE data area                            */
                                    2904             +*/*     TSBWTCB field of the TSB data area (waiting TCB)             */
                                    2905             +*/*     TSBCTCB field of the TSB data area (TPUT TCB)                */
                                    2906             +*/*     UCMPXA field of the UCM data area (comm task TCB)            */
                                    2907             +*/*     WEBUPTR field of the WEB data area                           */
                                    2908             +*/*     WQETCB field of the WQE data area                            */
                                    2909             +*/*     WQEJSTCB field of the WQE data area                          */
                                    2910             +*/*     (associated jobstep TCB)                                     */
                                    2911             +*/*                                                                  */
                                    2912             +*/*01* SERIALIZATION:                                                */
                                    2913             +*/*     Depends on the field                                         */
                                    2914             +*/*                                                                  */
                                    2915             +*/*01* FUNCTION:                                                     */
                                    2916             +*/*     The task control block (TCB) serves as a repository          */
                                    2917             +*/*     for information and pointers associated with a task.         */
                                    2918             +*/*     Various components of the control program place              */
                                    2919             +*/*     information in the TCB and obtain information from           */
                                    2920             +*/*     the TCB.                                                     */
                                    2921             +*/*                                                                  */
                                    2922             +*/*01* EXTERNAL CLASSIFICATION:                                      */
                                    2923             +*/*                                                                  */
                                    2924             +*/*02*   GUPI: FIELDS                                                */
                                    2925             +*/*             TCBRBP TCBGRS TCBUSER TCBJSCBB TCBSVCSP TCBSVCS      */
                                    2926             +*/*             TCBTID TCBSVCA2 TCBARC TCBSENV TCBJSTCB TCBTIO       */
                                    2927             +*/*             TCBFLGS8 TCBSTCB TCBRV316 TCBPIE                     */
                                    2928             +*/*                                                                  */
                                    2929             +*/*02*   PSPI: FIELDS                                                */
                                    2930             +*/*             TCBDEB   TCBCMP   TCBCMPF  TCBPKF  TCBANDSP          */
                                    2931             +*/*             TCBJLB   TCBTCB   TCBNTC   TCBOTC   TCBLTC           */
                                    2932             +*/*             TCBTCT   TCBBACK                                     */
1VMSC     (VMSC00) (09:48) (22MAR04) ORVYL STYLE BATCH I/O ROUTINES                                                         Page   39
0D-Loc  Object Code    Addr1 Addr2  Stmt Lv Lineno    Source Statement           (Hibal 5, Asmedit 3.3)  HLASM R4.0  2004/03/22 09.48
+_____  ______ ____    _____ _____  ____ __ ______    ______ _________
0                                   2933             +*/*             TCBTCBID TCBAFFN  TCBGRES                            */
                                    2934             +*/*             TCBCELAP TCBLEVEL TCBLLS                             */
                                    2935             +*/*                                                                  */
                                    2936             +*/*02*   DMTI: BASE                                                  */
                                    2937             +*/*                                                                  */
                                    2938             +*/*01* END OF EXTERNAL CLASSIFICATION:                               */
                                    2939             +*/*                                                                  */
                                    2940             +*/*01* METHOD OF ACCESS:                                             */
                                    2941             +*/*      BAL  - A DSECT IS PRODUCED UNLESS DSECT=NO IS SPECIFIED.    */
                                    2942             +*/*             USING ON TCBFIX GIVES ADDRESSABILITY FOR ALL SYMBOLS */
                                    2943             +*/*             IN PREFIX AND TCB PROPER.  TO GET ADDRESSABILITY FOR */
                                    2944             +*/*             THE TCB EXTENSION, YOU SHOULD CODE:                  */
                                    2945             +*/*                                                                  */
                                    2946             +*/*             L     REG,TCBEXT2                                    */
                                    2947             +*/*             USING TCBXTNT2,REG                                   */
                                    2948             +*/*             WHERE REG IS ANY REGISTER OTHER THAN ZERO.           */
                                    2949             +*/*                                                                  */
                                    2950             +*/*                                                                  */
                                    2951             +*/*      BAL LISTING  - SPECIFY LIST=YES ON MACRO CALL.              */
                                    2952             +*/*                                                                  */
                                    2953             +*/*      PL/S - DCL TCBPTR PTR                                       */
                                    2954             +*/*                                                                  */
                                    2955             +*/*                                                                  */
                                    2956             +*/*             MACRO VARIABLE TCBLEN IS SET TO THE LENGTH OF THE    */
                                    2957             +*/*             TCB INCLUDING THE PREFIX.                            */
                                    2958             +*/*                                                                  */
                                    2959             +*/*             VIA ATTRIBUTE - SPECIFY %IHAVIA='YES' PRIOR TO       */
                                    2960             +*/*                             INCLUDE STATEMENT.                   */
                                    2961             +*/*                             DECLARE TCBALET.                     */
                                    2962             +*/*                                                                  */
                                    2963             +*/*      PL/S LISTING - SPECIFY %IHALIST='YES' BEFORE %INCLUDE.      */
                                    2964             +*/*                                                                  */
                                    2965             +*/*01* DEPENDENCIES:                                                 */
                                    2966             +*/*      RTM MUST BE NOTIFIED of any changes to nondispatchability   */
                                    2967             +*/*      bits (modification of RTM code required).                   */
                                    2968             +*/*                                                                  */
                                    2969             +*/*01* DISTRIBUTION LIBRARY:  AMACLIB                                */
                                    2970             +*/*                                                                  */
                                    2971             +*/* END OF SPECIFICATIONS ********************************************/
                                    2972             +*%GOTO TCBL2;  /*
                                    2974    02-00316 +       $$PUSH  PRINT
                                    2976    02-00281 +       $$PRINT OFF
                                    3741    02-00421 +       $$POP   PRINT
1VMSC     (VMSC00) (09:48) (22MAR04) ORVYL STYLE BATCH I/O ROUTINES                                                         Page   40
0D-Loc  Object Code    Addr1 Addr2  Stmt Lv Lineno    Source Statement           (Hibal 5, Asmedit 3.3)  HLASM R4.0  2004/03/22 09.48
+_____  ______ ____    _____ _____  ____ __ ______    ______ _________
0                                   3743      32.              CVT   DSECT=YES
                                    3744             +*%CVTL1 : ;
                                    3745             +*
                                    3746             +*/* START OF SPECIFICATIONS ******************************************/
                                    3747             +*/*01* PROPRIETARY_STATEMENT******************************************/
                                    3748             +*/*                                                                  */
                                    3749             +*/*                                                                  */
                                    3750             +*/* LICENSED MATERIALS - PROPERTY OF IBM                             */
                                    3751             +*/* THIS MACRO IS "RESTRICTED MATERIALS OF IBM"                      */
                                    3752             +*/* 5647-A01 (C) COPYRIGHT IBM CORP. 1988, 2000                      */
                                    3753             +*/*                                                                  */
                                    3754             +*/* STATUS= HBB7703                                                  */
                                    3755             +*/*                                                                  */
                                    3756             +*/***END_OF_PROPRIETARY_STATEMENT*************************************/
                                    3757             +*/*                                                                  */
                                    3758             +*/*01* EXTERNAL CLASSIFICATION:                                      */
                                    3759             +*/*02*         DMTI:BASE                                             */
                                    3760             +*/*02*         GUPI: FIELDS                                          */
                                    3761             +*/*                  CVTABEND                                        */
                                    3762             +*/*                  CVTBRET                                         */
                                    3763             +*/*                  CVTCSD                                          */
                                    3764             +*/*                  CVTDCB                                          */
                                    3765             +*/*                  CVTDFA                                          */
                                    3766             +*/*                  CVTECVT                                         */
                                    3767             +*/*                  CVTEXP1                                         */
                                    3768             +*/*                  CVTFLAG2                                        */
                                    3769             +*/*                  CVTFLAG3                                        */
                                    3770             +*/*                  CVTJESCT                                        */
                                    3771             +*/*                  CVTLDTO                                         */
                                    3772             +*/*                  CVTLSO                                          */
                                    3773             +*/*                  CVTMDL                                          */
                                    3774             +*/*                  CVTOPCTP                                        */
                                    3775             +*/*                  CVTOSLVL                                        */
                                    3776             +*/*                  CVTOVER                                         */
                                    3777             +*/*                  CVTPCCAT                                        */
                                    3778             +*/*                  CVTPCNVT                                        */
                                    3779             +*/*                  CVTPRLTV                                        */
                                    3780             +*/*                  CVTPROD                                         */
                                    3781             +*/*                  CVTPSXM                                         */
                                    3782             +*/*                  CVTQTD00                                        */
                                    3783             +*/*                  CVTQTE00                                        */
                                    3784             +*/*                  CVTRAC                                          */
                                    3785             +*/*                  CVTRCZRT                                        */
                                    3786             +*/*                  CVTRELNO                                        */
                                    3787             +*/*                  CVTSCPIN                                        */
                                    3788             +*/*                  CVTSDBF                                         */
                                    3789             +*/*                  CVTSMCA                                         */
                                    3790             +*/*                  CVTSNAME                                        */
                                    3791             +*/*                  CVTSUBSP                                        */
                                    3792             +*/*                  CVTSVT                                          */
                                    3793             +*/*                  CVTTPC                                          */
                                    3794             +*/*                  CVTTVT                                          */
                                    3795             +*/*                  CVTUCBSC                                        */
                                    3796             +*/*                  CVTUSER                                         */
                                    3797             +*/*                  CVTVFGET                                        */
                                    3798             +*/*                  CVTVFIND                                        */
1VMSC     (VMSC00) (09:48) (22MAR04) ORVYL STYLE BATCH I/O ROUTINES                                                         Page   41
0D-Loc  Object Code    Addr1 Addr2  Stmt Lv Lineno    Source Statement           (Hibal 5, Asmedit 3.3)  HLASM R4.0  2004/03/22 09.48
+_____  ______ ____    _____ _____  ____ __ ______    ______ _________
0                                   3799             +*/*                  CVTVPSIB                                        */
                                    3800             +*/*                  CVTVWAIT                                        */
                                    3801             +*/*                  CVT0EF00                                        */
                                    3802             +*/*                  CVT0PT0E                                        */
                                    3803             +*/*                  CVT0PT02                                        */
                                    3804             +*/*                  CVT0PT03                                        */
                                    3805             +*/*                  CVT0SCR1                                        */
                                    3806             +*/*02*         PSPI:FIELDS                                           */
                                    3807             +*/*                  CVTAMFF                                         */
                                    3808             +*/*                  CVTASVT                                         */
                                    3809             +*/*                  CVTGDA                                          */
                                    3810             +*/*                  CVTGRSST                                        */
                                    3811             +*/*                  CVTHID                                          */
                                    3812             +*/*                  CVTLINK                                     @M9A*/
                                    3813             +*/*                  CVTRCEP                                         */
                                    3814             +*/*                  CVTSAF                                          */
                                    3815             +*/*                  CVTSDUMP                                        */
                                    3816             +*/*                  CVTVERID                                        */
                                    3817             +*/*01* END OF EXTERNAL CLASSIFICATION:                               */
                                    3818             +*/*                                                                  */
                                    3819             +*/*01* DESCRIPTIVE NAME:  Communications Vector Table                */
                                    3820             +*/*02*  ACRONYM:  CVT                                                */
                                    3821             +*/*                                                                  */
                                    3822             +*/*01* MACRO-NAME:  CVT                                              */
                                    3823             +*/*                                                                  */
                                    3824             +*/*01* DSECT NAME:                                                   */
                                    3825             +*/*02*  CVT(when DSECT=YES is coded and PREFIX=YES is not coded)     */
                                    3826             +*/*02*  CVTFIX(when DSECT=YES and PREFIX=YES is coded)               */
                                    3827             +*/*02*  CVTMAP(or name user coded in label field of CVT invocation)  */
                                    3828             +*/*02*  CVTVSTGX(DSECT name of virtual storage extension)            */
                                    3829             +*/*02*  CVTXTNT1(DSECT name of OS-OS/VS common extension)            */
                                    3830             +*/*02*  CVTXTNT2(DSECT name of OS/VS1-OS/VS2 common extension)       */
                                    3831             +*/*                                                                  */
                                    3832             +*/*                                                                  */
                                    3833             +*/*01* COMPONENT:  Common Macros (SC101)                             */
                                    3834             +*/*                                                                  */
                                    3835             +*/*01* EYE-CATCHER:  CVT                                             */
                                    3836             +*/*02*  OFFSET:  96                                                  */
                                    3837             +*/*02*  LENGTH:  4                                                   */
                                    3838             +*/*                                                                  */
                                    3839             +*/*01* STORAGE ATTRIBUTES:                                           */
                                    3840             +*/*                                                                  */
                                    3841             +*/*02*   ALLOCATION METHOD:  N/A.                                    */
                                    3842             +*/*02*   SUBPOOL:            Nucleus                                 */
                                    3843             +*/*02*   KEY:                0                                       */
                                    3844             +*/*02*   RESIDENCY:          Below 16M line                          */
                                    3845             +*/*02*   FREQUENCY:          1 per system.                           */
                                    3846             +*/*                                                                  */
                                    3847             +*/*01* SIZE:                                                         */
                                    3848             +*/*     Prefix: 256 bytes                                            */
                                    3849             +*/*     CVT: 1280 bytes                                              */
                                    3850             +*/*     Virtual storage address extension: 80 bytes                  */
                                    3851             +*/*     OS - OS/VS common extension: 12 bytes                        */
                                    3852             +*/*     OS/VS1 - OS/VS2 common extension: 132 bytes                  */
                                    3853             +*/*                                                                  */
                                    3854             +*/*01* CREATED BY:                                                   */
1VMSC     (VMSC00) (09:48) (22MAR04) ORVYL STYLE BATCH I/O ROUTINES                                                         Page   42
0D-Loc  Object Code    Addr1 Addr2  Stmt Lv Lineno    Source Statement           (Hibal 5, Asmedit 3.3)  HLASM R4.0  2004/03/22 09.48
+_____  ______ ____    _____ _____  ____ __ ______    ______ _________
0                                   3855             +*/*     IEAVCVT                                                      */
                                    3856             +*/*                                                                  */
                                    3857             +*/*01* DELETED BY: N/A.                                              */
                                    3858             +*/*                                                                  */
                                    3859             +*/*01* POINTED TO BY:                                                */
                                    3860             +*/*     FLCCVT field of the PSA data area (location X'10')           */
                                    3861             +*/*     FLCCVT2 field of the PSA data area                           */
                                    3862             +*/*     CVTSMEXT points to the Virtual address storage extension     */
                                    3863             +*/*     OS/VS - OS/VS extention is pointed to by CVTEXT1             */
                                    3864             +*/*     OS/VS1 - OS/VS2 extention is pointed to by CVTEXT2           */
                                    3865             +*/*                                                                  */
                                    3866             +*/*01* SERIALIZATION:                                                */
                                    3867             +*/*     Based on the individual fields being referenced.             */
                                    3868             +*/*                                                                  */
                                    3869             +*/*01* FUNCTION:                                                     */
                                    3870             +*/*02*  The CVT provides the means by which non-nucleus-resident     */
                                    3871             +*/*     routines may refer to information in the nucleus of the      */
                                    3872             +*/*     control program.  It contains addresses of other control     */
                                    3873             +*/*     blocks and tables used by the control program routines.      */
                                    3874             +*/*                                                                  */
                                    3875             +*/*01* METHOD OF ACCESS:                                             */
                                    3876             +*/*                                                                  */
                                    3877             +*/*02*  ASM:                                                         */
                                    3878             +*/*      DSECT=YES should be specified on macro call except          */
                                    3879             +*/*      when called by IEAVCVT to create CSECT.                     */
                                    3880             +*/*                                                                  */
                                    3881             +*/*      CVT for OS/VS2 is always mapped.                            */
                                    3882             +*/*                                                                  */
                                    3883             +*/*      The PREFIX is not mapped unless PREFIX=YES is specified.    */
                                    3884             +*/*                                                                  */
                                    3885             +*/*      A USING on CVTMAP or DSECT name will establish              */
                                    3886             +*/*      addressability for all symbols except in the 2 extentions.  */
                                    3887             +*/*                                                                  */
                                    3888             +*/*      To establish addressability for the                         */
                                    3889             +*/*      OS - OS/VS common extension, you should code:               */
                                    3890             +*/*                                                                  */
                                    3891             +*/*          L     REG,CVTEXT1                                       */
                                    3892             +*/*          USING CVTXTNT1,REG                                      */
                                    3893             +*/*                                                                  */
                                    3894             +*/*      To establish addressability for the OS/VS2                  */
                                    3895             +*/*      common extension, you should code:                          */
                                    3896             +*/*                                                                  */
                                    3897             +*/*          L     REG,CVTEXT2                                       */
                                    3898             +*/*          USING CVTXTNT2,REG                                      */
                                    3899             +*/*                                                                  */
                                    3900             +*/*      Where REG in either case is any register other than zero.   */
                                    3901             +*/*                                                                  */
                                    3902             +*/*      When LISTING is suppressed, you can determine which         */
                                    3903             +*/*      DSECT a symbol is in by using the statement number          */
                                    3904             +*/*      in the DEFN column in the Cross Reference Listing.          */
                                    3905             +*/*      For example, any symbol defined between the                 */
                                    3906             +*/*      statement numbers for CVTXTNT1 and CVTXTNT2 is in           */
                                    3907             +*/*      the OS - OS/VS common extension.                            */
                                    3908             +*/*                                                                  */
                                    3909             +*/*      Specify LIST=YES on macro call to obtain a listing.         */
                                    3910             +*/*                                                                  */
1VMSC     (VMSC00) (09:48) (22MAR04) ORVYL STYLE BATCH I/O ROUTINES                                                         Page   43
0D-Loc  Object Code    Addr1 Addr2  Stmt Lv Lineno    Source Statement           (Hibal 5, Asmedit 3.3)  HLASM R4.0  2004/03/22 09.48
+_____  ______ ____    _____ _____  ____ __ ______    ______ _________
0                                   3911             +*/*02*  PL/AS:                                                       */
                                    3912             +*/*                                                                  */
                                    3913             +*/*      DCL CVTPTR PTR.                                             */
                                    3914             +*/*                                                                  */
                                    3915             +*/*      Specify %IHALIST='YES' before %INCLUDE to obtain            */
                                    3916             +*/*      the PL/AS listing.                                          */
                                    3917             +*/*                                                                  */
                                    3918             +*/*      For integration, a listing must not be requested unless     */
                                    3919             +*/*      your module creates the CSECT.                              */
                                    3920             +*/*                                                                  */
                                    3921             +*/*01* DISTRIBUTION LIBRARY:  AMACLIB                                */
                                    3922             +*/*                                                                  */
                                    3923             +*/*01* CHANGE ACTIVITY:                                              */
                                    3924             +*/*  $LS=PR313    JBB3313  891128  PD16EI:  SHOWHDR format complete  */
                                    3925             +*/*                                                                  */
                                    3926             +*/* END OF SPECIFICATIONS ********************************************/
                                    3927             +*
                                    3928             +*%GOTO CVTL2;   /*
                                    3930    02-00316 +       $$PUSH  PRINT
                                    3932    02-00281 +       $$PRINT OFF
                                    5072    02-00421 +       $$POP   PRINT
1VMSC     (VMSC00) (09:48) (22MAR04) ORVYL STYLE BATCH I/O ROUTINES                                                         Page   44
0D-Loc  Object Code    Addr1 Addr2  Stmt Lv Lineno    Source Statement           (Hibal 5, Asmedit 3.3)  HLASM R4.0  2004/03/22 09.48
+_____  ______ ____    _____ _____  ____ __ ______    ______ _________
0000015                00000 00D98  5075      35.     VMSC     CSECT ,
 000793                00793 00D98  5077      36.              DATA  BEGIN
 000793 00                          5082  1   37.     GCF        FLAG  ,                   Get COMMAND flags
 GCF.GCFINITD      80 ONES          5086  1   38.                FLAG  GCFINITD            - GETCMD has been initialized
 000794 00000000                    5091  1   39.     GCRECP     DC    A(0)                Input command record pointer
                                    5093  1   41.   C INPUT      DCB   DDNAME=SYSIN,MACRF=GL,DSORG=PS,DEVD=DA,LRECL=80,
                                          1   42.                      RECFM=FB,EODAD=GCEOF
0                                   5096  1          +*                       DATA CONTROL BLOCK
                                    5097  1          +*
 000798                             5098  1 01-DCB   +INPUT      DC    0F'0'          ORIGIN ON WORD BOUNDARY
                                    5099  1          +*                       DIRECT ACCESS DEVICE INTERFACE
 000798 0000000000000000            5100  1 01-DCB   +           DC    BL16'0'        FDAD, DVTBL
 0007A8 00000000                    5101  1 01-DCB   +           DC    A(0)           KEYLEN, DEVT, TRBAL
                                    5102  1          +*                       COMMON ACCESS METHOD INTERFACE
 0007AC 00                          5103  1 01-DCB   +           DC    AL1(0)         BUFNO, NUMBER OF BUFFERS
 0007AD 000001                      5104  1 01-DCB   +           DC    AL3(1)         BUFCB, BUFFER POOL CONTROL BLOCK
 0007B0 0000                        5105  1 01-DCB   +           DC    AL2(0)         BUFL, BUFFER LENGTH
 0007B2 4000                        5106  1 01-DCB   +           DC    BL2'0100000000000000' DSORG, DATA SET ORGANIZATION
 0007B4 00000001                    5107  1 01-DCB   +           DC    A(1)           IOBAD FOR EXCP OR RESERVED
                                    5108  1          +*                       FOUNDATION EXTENSION
 0007B8 00                          5109  1 01-DCB   +           DC    BL1'00000000'  BFTEK, BFALN, DCBE INDICATORS
 0007B9 0001FC                      5110  1 01-DCB   +           DC    AL3(GCEOF)     EODAD (END OF DATA ROUTINE ADDRESS)
 0007BC 90                          5111  1 01-DCB   +           DC    BL1'10010000'  RECFM (RECORD FORMAT)
 0007BD 000000                      5112  1 01-DCB   +           DC    AL3(0)         EXLST (EXIT LIST ADDRESS)
                                    5113  1          +*                       FOUNDATION BLOCK
 0007C0 E2E8E2C9D5404040            5114  1 01-DCB   +           DC    CL8'SYSIN'     DDNAME
 0007C8 02                          5115  1 01-DCB   +           DC    BL1'00000010'  OFLGS (OPEN FLAGS)
 0007C9 00                          5116  1 01-DCB   +           DC    BL1'00000000'  IFLGS (IOS FLAGS)
 0007CA 4800                        5117  1 01-DCB   +           DC    BL2'0100100000000000' MACR (MACRO FORMAT)
                                    5118  1          +*                       BSAM-BPAM-QSAM INTERFACE
 0007CC 00                          5119  1 01-DCB   +           DC    BL1'00000000'  OPTCD, OPTION CODES
 0007CD 000001                      5120  1 01-DCB   +           DC    AL3(1)         CHECK OR INTERNAL QSAM SYNCHRONIZING RTN.
 0007D0 00000001                    5121  1 01-DCB   +           DC    A(1)           SYNAD, SYNCHRONOUS ERROR RTN. (3 BYTES)
 0007D4 0000                        5122  1 01-DCB   +           DC    H'0'           INTERNAL ACCESS METHOD FLAGS
 0007D6 0000                        5123  1 01-DCB   +           DC    AL2(0)         BLKSIZE, BLOCK SIZE
 0007D8 00000000                    5124  1 01-DCB   +           DC    F'0'           INTERNAL ACCESS METHOD FLAGS
 0007DC 00000001                    5125  1 01-DCB   +           DC    A(1)           INTERNAL ACCESS METHOD USE
                                    5126  1          +*                            QSAM INTERFACE
 0007E0 00000001                    5127  1 01-DCB   +           DC    A(1)           EOBAD
 0007E4 00000001                    5128  1 01-DCB   +           DC    A(1)           RECAD
 0007E8 0000                        5129  1 01-DCB   +           DC    H'0'           QSWS (FLAGS) AND EITHER DIRCT OR BUFOFF
 0007EA 0050                        5130  1 01-DCB   +           DC    AL2(80)        LRECL
 0007EC 00                          5131  1 01-DCB   +           DC    BL1'00000000'  EROPT, ERROR OPTION
 0007ED 000001                      5132  1 01-DCB   +           DC    AL3(1)         CNTRL
 0007F0 00000000                    5133  1 01-DCB   +           DC    H'0,0'         RESERVED AND PRECL
 0007F4 00000001                    5134  1 01-DCB   +           DC    A(1)           EOB, INTERNAL ACCESS METHOD FIELD
 0007F8                             5136  1   44.     GCBUF      DS    XL(72+71*9)             ALLOW 10 CARDS PER COMMAND
1VMSC     (VMSC00) (09:48) (22MAR04) ORVYL STYLE BATCH I/O ROUTINES                                                         Page   45
0Loc    Object Code    Addr1 Addr2  Stmt Lv Lineno    Source Statement           (Hibal 5, Asmedit 3.3)  HLASM R4.0  2004/03/22 09.48
+___    ______ ____    _____ _____  ____ __ ______    ______ _________
0                                   5138  1   46.     *  CORE DUMP CONSTANTS AND WORK AREA
                                    5139  1   47.     *
 000ABF 00                                1
 000AC0 00000000                    5140  1   48.     DUMPADD    DC    A(0)                    VIRTUAL ADDRESS OF CORE DUMPED
 000AC4 00000000                    5141  1   49.     DUMPEND    DC    A(0)
                                    5142  1   50.
 000AC8 4040404040404040            5143  1   51.     PDMPBUF    DC    CL9' '
 000AD1 4040404040404040            5144  1   52.     DUMPBUF    DC    CL133' '
 000B56                00B56 00B28  5145  1   53.                ORG   DUMPBUF+87
 000B28 5C                          5146  1   54.                DC    C'*'
 000B29                00B29 00B49  5147  1   55.                ORG   DUMPBUF+120
 000B49 5C                          5148  1   56.                DC    C'*'
 000B4A                00B4A 00B56  5149  1   57.                ORG   ,
                                    5150  1   58.
 000B56 0000000000000000            5151  1   59.     PRCPREV    DC    32X'00'
                                    5152  1   60.
 000B76                             5153  1   61.     EBCDIC     DS    0H
 000B76 4B4B4B4B4B4B4B4B            5154  1   62.                DC    64C'.'
 000BB6 40                          5155  1   63.                DC    C' '
 000BB7 4B4B4B4B4B4B4B4B            5156  1   64.                DC    10C'.'
 000BC1 4B4C4D4E4F                  5157  1   65.                DC    C'.<(+|'
 000BC6 80                          5158  1   66.                DC    X'80'
 000BC7 4B4B4B4B4B4B4B4B            5159  1   67.                DC    10C'.'
 000BD1 5B5C5D5E5F6061              5160  1   68.                DC    C'$*);~-/'
 000BD8 4B4B4B4B4B4B4B4B            5161  1   69.                DC    9C'.'
 000BE1 6B6C6D6E6F                  5162  1   70.                DC    C',%_>?'
 000BE6 4B4B4B4B4B4B4B4B            5163  1   71.                DC    10C'.'
 000BF0 7A7B7C                      5164  1   72.                DC    C':#@'
 000BF3 7D                          5165  1   73.                DC    X'7D'
 000BF4 7E7F                        5166  1   74.                DC    C'="'
 000BF6 4B                          5167  1   75.                DC    C'.'
 000BF7 C1C2C3C4C5C6C7C8            5168  1   76.                DC    C'ABCDEFGHI'
 000C00 4B4B4B4B4B4B4B              5169  1   77.                DC    7C'.'
 000C07 D1D2D3D4D5D6D7D8            5170  1   78.                DC    C'JKLMNOPQR'
 000C10 4B4B4B4B4B4B4B4B            5171  1   79.                DC    8C'.'
 000C18 E2E3E4E5E6E7E8E9            5172  1   80.                DC    C'STUVWXYZ'
 000C20 4B4B4B4B4B4B4B4B            5173  1   81.                DC    23C'.'
 000C37 C1C2C3C4C5C6C7C8            5174  1   82.                DC    C'ABCDEFGHI'
 000C40 4B4B4B4B4B4B4B              5175  1   83.                DC    7C'.'
 000C47 D1D2D3D4D5D6D7D8            5176  1   84.                DC    C'JKLMNOPQR'
 000C50 4B4B4B4B4B4B4B4B            5177  1   85.                DC    8C'.'
 000C58 E2E3E4E5E6E7E8E9            5178  1   86.                DC    C'STUVWXYZ'
 000C60 4B4B4B4B4B4B                5179  1   87.                DC    6C'.'
 000C66 F0F1F2F3F4F5F6F7            5180  1   88.                DC    C'0123456789'
 000C70 4B4B4B4B4B4B                5181  1   89.                DC    6C'.'
1VMSC     (VMSC00) (09:48) (22MAR04) ORVYL STYLE BATCH I/O ROUTINES                                                         Page   46
0Loc    Object Code    Addr1 Addr2  Stmt Lv Lineno    Source Statement           (Hibal 5, Asmedit 3.3)  HLASM R4.0  2004/03/22 09.48
+___    ______ ____    _____ _____  ____ __ ______    ______ _________
0                                   5183  1   91.     *    CONSTANTS, CONTROL BLOCKS AND DATA
                                    5184  1   92.     *
 000C76                             5185  1   93.                DS    0H
 000C76                             5186  1   94.     SEGBUF     DS    0CL137
 000C76 00050000                    5187  1   95.     SEGLEN     DC    AL2(5,0)
 000C7A 40                          5188  1   96.     SEGCC      DC    C' '
 000C7B                             5189  1   97.     SEGB       DS    CL(L'SEGBUF-5)
 000CFF 00                          5190  1   98.     SEGFLAGS   FLAG  ,
 SEGFLAGS.SEGFCLOS 80 ONES          5194  1   99.                FLAG  SEGFCLOS
 SEGFLAGS.SEGFJNAM 40 ONES          5199  1  100.                FLAG  SEGFJNAM
                                    5204  1  101.     *
                                    5206  1  103.   C PRYNTER    DCB   DDNAME=SYSPRINT,RECFM=VBA,LRECL=137,DSORG=PS,DEVD=DA,
                                          1  104.                      MACRF=PM,EXLST=OPEXITL
0                                   5209  1          +*                       DATA CONTROL BLOCK
                                    5210  1          +*
 000D00                             5211  1 01-DCB   +PRYNTER    DC    0F'0'          ORIGIN ON WORD BOUNDARY
                                    5212  1          +*                       DIRECT ACCESS DEVICE INTERFACE
 000D00 0000000000000000            5213  1 01-DCB   +           DC    BL16'0'        FDAD, DVTBL
 000D10 00000000                    5214  1 01-DCB   +           DC    A(0)           KEYLEN, DEVT, TRBAL
                                    5215  1          +*                       COMMON ACCESS METHOD INTERFACE
 000D14 00                          5216  1 01-DCB   +           DC    AL1(0)         BUFNO, NUMBER OF BUFFERS
 000D15 000001                      5217  1 01-DCB   +           DC    AL3(1)         BUFCB, BUFFER POOL CONTROL BLOCK
 000D18 0000                        5218  1 01-DCB   +           DC    AL2(0)         BUFL, BUFFER LENGTH
 000D1A 4000                        5219  1 01-DCB   +           DC    BL2'0100000000000000' DSORG, DATA SET ORGANIZATION
 000D1C 00000001                    5220  1 01-DCB   +           DC    A(1)           IOBAD FOR EXCP OR RESERVED
                                    5221  1          +*                       FOUNDATION EXTENSION
 000D20 00                          5222  1 01-DCB   +           DC    BL1'00000000'  BFTEK, BFALN, DCBE INDICATORS
 000D21 000001                      5223  1 01-DCB   +           DC    AL3(1)         EODAD (END OF DATA ROUTINE ADDRESS)
 000D24 54                          5224  1 01-DCB   +           DC    BL1'01010100'  RECFM (RECORD FORMAT)
 000D25 0005D8                      5225  1 01-DCB   +           DC    AL3(OPEXITL)   EXLST (EXIT LIST ADDRESS)
                                    5226  1          +*                       FOUNDATION BLOCK
 000D28 E2E8E2D7D9C9D5E3            5227  1 01-DCB   +           DC    CL8'SYSPRINT'  DDNAME
 000D30 02                          5228  1 01-DCB   +           DC    BL1'00000010'  OFLGS (OPEN FLAGS)
 000D31 00                          5229  1 01-DCB   +           DC    BL1'00000000'  IFLGS (IOS FLAGS)
 000D32 0050                        5230  1 01-DCB   +           DC    BL2'0000000001010000' MACR (MACRO FORMAT)
                                    5231  1          +*                       BSAM-BPAM-QSAM INTERFACE
 000D34 00                          5232  1 01-DCB   +           DC    BL1'00000000'  OPTCD, OPTION CODES
 000D35 000001                      5233  1 01-DCB   +           DC    AL3(1)         CHECK OR INTERNAL QSAM SYNCHRONIZING RTN.
 000D38 00000001                    5234  1 01-DCB   +           DC    A(1)           SYNAD, SYNCHRONOUS ERROR RTN. (3 BYTES)
 000D3C 0000                        5235  1 01-DCB   +           DC    H'0'           INTERNAL ACCESS METHOD FLAGS
 000D3E 0000                        5236  1 01-DCB   +           DC    AL2(0)         BLKSIZE, BLOCK SIZE
 000D40 00000000                    5237  1 01-DCB   +           DC    F'0'           INTERNAL ACCESS METHOD FLAGS
 000D44 00000001                    5238  1 01-DCB   +           DC    A(1)           INTERNAL ACCESS METHOD USE
                                    5239  1          +*                            QSAM INTERFACE
 000D48 00000001                    5240  1 01-DCB   +           DC    A(1)           EOBAD
 000D4C 00000001                    5241  1 01-DCB   +           DC    A(1)           RECAD
 000D50 0000                        5242  1 01-DCB   +           DC    H'0'           QSWS (FLAGS) AND EITHER DIRCT OR BUFOFF
 000D52 0089                        5243  1 01-DCB   +           DC    AL2(137)       LRECL
 000D54 00                          5244  1 01-DCB   +           DC    BL1'00000000'  EROPT, ERROR OPTION
 000D55 000001                      5245  1 01-DCB   +           DC    AL3(1)         CNTRL
 000D58 00000000                    5246  1 01-DCB   +           DC    H'0,0'         RESERVED AND PRECL
 000D5C 00000001                    5247  1 01-DCB   +           DC    A(1)           EOB, INTERNAL ACCESS METHOD FIELD
1VMSC     (VMSC00) (09:48) (22MAR04) ORVYL STYLE BATCH I/O ROUTINES                                                         Page   47
0Loc    Object Code    Addr1 Addr2  Stmt Lv Lineno    Source Statement           (Hibal 5, Asmedit 3.3)  HLASM R4.0  2004/03/22 09.48
+___    ______ ____    _____ _____  ____ __ ______    ______ _________
0000D60                             5250  1  105.11              DC    0A(0)               FORCE ALIGMENT
 000D60 80000D64                    5251  1  105.21   SDYNBLK    DC    X'80',AL3(SDYNPRM)  Pointer to svc99 request block
 000D64 14                          5252  1  105.22   SDYNPRM    DC    AL1(20)             Length of svc99 request block
 000D65 01                          5253  1  105.23              DC    AL1(S99VRBAL)       Dsname allocation
 000D66 20                          5254  1  105.24              DC    AL1(S99NOMNT)       Don't mount volumes
 000D67 00                          5255  1  105.25              DC    AL1(0)              Reserved flags
 000D68 00000000                    5256  1  105.26              DC    AL2(0,0)            Error and reason codes
 000D6C 00000D78                    5257  1  105.27              DC    A(STXTS)            Address of text unit list
 000D70 00000000                    5258  1  105.28              DC    A(0)                Reserved
 000D74 00000000                    5259  1  105.29              DC    A(0)                System flag information
 000D78 00000D80                    5260  1  105.3    STXTS      DC    A(SDD)              Address of ddname unit
 000D7C 80000D8E                    5261  1  105.31              DC    X'80',AL3(SOUT)     Address of sysout=$ unit
 000D80 000100010008A2A8            5262  1  105.32   SDD        DC    AL2(DALDDNAM,1,8),CL8'sysprint'
 000D8E 00180000                    5263  1  105.33   SOUT       DC    AL2(DALSYSOU,0)
 000015                00000 00D98  5264     106.              END   ,
1VMSC     (VMSC00) (09:48) (22MAR04) ORVYL STYLE BATCH I/O ROUTINES                                                         Page   48
0Loc    Object Code    Addr1 Addr2  Stmt Lv Lineno    Source Statement           (Hibal 5, Asmedit 3.3)  HLASM R4.0  2004/03/22 09.48
+___    ______ ____    _____ _____  ____ __ ______    ______ _________
0000015                00000 00D98  5271     108.     VMSC     CSECT
                                    5273     109.     *
                                    5274     110.     *        PRINT CORE
                                    5275     111.     *
                                    5276     112.     *        R0 - LENGTH OF MEMORY TO PRINT
                                    5277     113.     *        R1 - STARTING ADDRESS OF MEMORY TO PRINT
                                    5278     114.     *        R15 - LOGICAL ADDRESS (PRINTED ADDRESS)
                                    5279     115.     *
                                    5280     116.     *
                                    5281     117.     *
 000015 00/9029 D000         00000  5282     118.     PRCORE   VENTER SR,RAR,*
 00001A 188D/41D0 D020       00020  5286             +
 000020 0D70                        5290             +
 USING  *,R7
                                    5302     119.     PRCOREX  EQU   *-2                     PRPAGE ENTRY
 000022 50F0 7A9E            00AC0  5303     120.              ST    R15,DUMPADD             LOGICAL ADDRESS
 000026 1E0F                        5304     121.              ALR   R0,R15                  LOGICAL END
 000028 5000 7AA2            00AC4  5305     122.              ST    R0,DUMPEND
 00002C 1831                        5306     123.              LR    TR,R1                   PHYSICAL START
 00002E 47F0 701A            0003C  5307     124.              B     PRCGO                   HOP IN
                                    5308     125.
 000032 D51F 7B34 3000 00B56 00000  5309     126.     PRCLOOP  CLC   PRCPREV(32),@TR         SAME?
 000038 4780 70BA            000DC  5310     127.              BE    PRCRPT                  YES
 00003C D21F 7B34 3000 00B56 00000  5311     128.     PRCGO    MVC   PRCPREV(32),@TR         SET CURRENT
 000042 58F0 7A9E            00AC0  5312     129.              BTX   DUMPBUF+1,6,L:DUMPADD   SET ADDRESS
 000046 4100 0006            00006  5324             +
 00004A 4110 7AB0            00AD2  5331             +
 00004E 58E0 769E/0DEE       006C0  5334             +
 000054 4120 7AB9            00ADB  5336     130.              LA    SR,DUMPBUF+10
 000058 4140 0004            00004  5337     131.              LA    QR,4
 00005C 58F0 3000            00000  5338     132.     PRCFORM  BTX   @SR,8,@TR             FORMAT
 000060 4100 0008            00008  5350             +
 000064 4110 2000            00000  5357             +
 000068 58E0 769E/0DEE       006C0  5360             +
 00006E 4120 2009            00009  5362     133.              LA    SR,@SR+9                FIRST
 000072 4130 3004            00004  5363     134.              LA    TR,@TR+4                HALF
 000076 4640 703A            0005C  5364     135.              BCT   QR,PRCFORM
 00007A 4120 7AE0            00B02  5365     136.              LA    SR,DUMPBUF+49
 00007E 4140 0004            00004  5366     137.              LA    QR,4
 000082 58F0 3000            00000  5367     138.     PRCFORMX BTX   @SR,8,@TR             FORMAT
 000086 4100 0008            00008  5379             +
 00008A 4110 2000            00000  5386             +
 00008E 58E0 769E/0DEE       006C0  5389             +
 000094 4120 2009            00009  5391     139.              LA    SR,@SR+9                SECOND
 000098 4130 3004            00004  5392     140.              LA    TR,@TR+4                HALF
 00009C 4640 7060            00082  5393     141.              BCT   QR,PRCFORMX
 0000A0 D21F 7B07 7B34 00B29 00B56  5394     142.              MVC   DUMPBUF+88(32),PRCPREV
 0000A6 DC1F 7B07 7B54 00B29 00B76  5395     143.              TR    DUMPBUF+88(32),EBCDIC
 0000AC 4110 7AA6            00AC8  5396     144.              VWRITE PDMPBUF,133
 0000B0 4100 0085            00085  5413             +
 0000B4 5890 76A2/0D99       006C4  5416             +
 0000BA 5890 76A6/0D99       006C8  5420             +
 0000C0 4120 0020            00020  5422     145.              LA    SR,32                   INCREMENT
 0000C4 5E20 7A9E            00AC0  5423     146.              AL    SR,DUMPADD
 0000C8 5020 7A9E            00AC0  5424     147.              ST    SR,DUMPADD
 0000CC 5920 7AA2            00AC4  5425     148.              C     SR,DUMPEND
1VMSC     (VMSC00) (09:48) (22MAR04) ORVYL STYLE BATCH I/O ROUTINES                                                         Page   49
0Current Usings:  (*,R7)
0Loc    Object Code    Addr1 Addr2  Stmt Lv Lineno    Source Statement           (Hibal 5, Asmedit 3.3)  HLASM R4.0  2004/03/22 09.48
+___    ______ ____    _____ _____  ____ __ ______    ______ _________
00000D0 4740 7010            00032  5426     149.              BL    PRCLOOP                 NOT YET
 0000D4 18D8/9829 D000       00000  5427     150.     PRCBYE   VEXIT SR,RAR
 0000DA 07F9                        5431             +
-0000DC 4110 773E            00760  5433     152.     PRCRPT   VWRITE '          **** REPEAT LINE(S) ****'
 0000E0 4100 0022            00022  5438             +
 0000E4 5890 76A2/0D99       006C4  5441             +
 0000EA 5890 76A6/0D99       006C8  5445             +
 0000F0 4120 0020            00020  5447     153.     PRCRLOOP LA    SR,32                   INCREMENT
 0000F4 1E32                        5448     154.              ALR   TR,SR
 0000F6 5E20 7A9E            00AC0  5449     155.              AL    SR,DUMPADD
 0000FA 5020 7A9E            00AC0  5450     156.              ST    SR,DUMPADD
 0000FE 5520 7AA2            00AC4  5451     157.              CL    SR,DUMPEND              DONE?
 000102 47B0 70B2            000D4  5452     158.              BNL   PRCBYE                  YES
 000106 D51F 7B34 3000 00B56 00000  5453     159.              CLC   PRCPREV(32),@TR         SAME?
 00010C 4770 701A            0003C  5454     160.              BNE   PRCGO                   NO
 000110 47F0 70CE            000F0  5455     161.              B     PRCRLOOP                YES
1VMSC     (VMSC00) (09:48) (22MAR04) ORVYL STYLE BATCH I/O ROUTINES                                                         Page   50
0Current Usings:  (*,R7)
0Loc    Object Code    Addr1 Addr2  Stmt Lv Lineno    Source Statement           (Hibal 5, Asmedit 3.3)  HLASM R4.0  2004/03/22 09.48
+___    ______ ____    _____ _____  ____ __ ______    ______ _________
0                                   5457     162.1
                                    5458     163.
                                    5459     164.      GETCMD - Get the control cards for an operation from SYSIN
                                    5460     165.               capitalize and prepare for scanning.  Continuation
                                    5461     166.               cards are signaled by a special character in column
                                    5462     167.               one.  Returns length in R0, pointer in R1, CC (and R0)
                                    5463     168.               set to zero at EOF on SYSIN.  Cards with a semi-colon (;)
                                    5464     169.               or an asterisk (*) in column one are treated as comments.
                                    5465     170.

0000114 902F D000/188D       00000  5466     171.     GETCMD   VENTER SR,R15,*           Enter and save registers
 00011A 41D0 D038/0D70       00038  5471             +
 000120 9180 7673      00793        5489     172.              IF    ~GCFINITD,BEGIN     Check for initialization
 DROP   *,R7
 USING  *,R7
 000124 4710 702E            0014E  5499             +
 000128 4510 7010/80         00130  5504  1  173.                OPEN  (INPUT,(INPUT))     Open sysin
 00012D 000798/0A13                 5508  1          +
 000132 9110 76A8      007C8        5510  1  174.                TM    INPUT+(DCBOFLGS-IHADCB),DCBOFOPN  Open OK?
 000136 4780 7172            00292  5511  1  175.                BZ    GCBADOPN            Nope, error
 00013A 4110 7678/1FFF       00798  5512  1  176.                GET   INPUT               Get a reccord
 000140 BFF7 1031/05EF       00031  5516  1          +
 000146 5010 7674            00794  5518  1  177.                ST    R1,GCRECP           Initialize record pointer
 00014A 9680 7673      00793        5519  1  178.                SET   GCFINITD            Set initialization complete
 00014E                             5525     178.1             END   ,
000014E 5800 7674/1200       00794  5530     179.              LT    R0,GCRECP           Anything to work with?
 000154 4780 70D2            001F2  5534     180.              BZ    GCEXIT              No, goodbye
 000158 1810                        5535     181.              LR    R1,R0               Move starting address of command
 00015A D247 76D8 1000 007F8 00000  5536     182.              MVC   GCBUF(72),@R1       Move in command data thru col 72
 000160 D647 76D8 7558 007F8 00678  5537     183.              OC    GCBUF(72),=CL72' '  Capitalize command data
 000166 4160 7720            00840  5538     184.              LA    PR,GCBUF+72         Set address of end of buffer+1
000016A 1821                        5540     185.     GCLOOP   LR    SR,R1               Save pointer
 00016C 4110 7662            00782  5541     186.              VSEG  '->'                Report input command contents
 000170 4100 0002            00002  5545             +
 000174 5890 75A4/0D99       006C4  5548             +
 00017A 4110 2000            00000  5550     187.              VSEG @SR,80               Print the card
 00017E 4100 0050            00050  5566             +
 000182 5890 75A4/0D99       006C4  5569             +
 000188 4110 7664            00784  5571     188.              VWRITE '<-'               Terminate message
 00018C 4100 0002            00002  5576             +
 000190 5890 75A4/0D99       006C4  5579             +
 000196 5890 75A8/0D99       006C8  5583             +
 00019C 4110 7678/1FFF       00798  5585     189.              GET   INPUT                   GET ANOTHER
 0001A2 BFF7 1031/05EF       00031  5589             +
 0001A8 5010 7674            00794  5591     190.              ST    R1,GCRECP               SAVE POINTER
 0001AC 957F 1000      00000        5592     191.              CLI   @R1,X'7F'               SPECIAL CHARACTER?
 0001B0 4720 70C8            001E8  5593     192.              BH    GCGOTCMD                NO, TOO HIGH
 0001B4 9540 1000      00000        5594     193.              CLI   @R1,X'40'               BLANK?
 0001B8 4780 70C8            001E8  5595     194.              BE    GCGOTCMD                YES, START OF NEXT COMMAND
 0001BC 955E 1000      00000        5596     195.              CLI   @R1,C';'                COMMENT CARD?
 0001C0 4780 704A            0016A  5597     196.              BE    GCLOOP                  YES, IGNORE
1VMSC     (VMSC00) (09:48) (22MAR04) ORVYL STYLE BATCH I/O ROUTINES                                                         Page   51
0Current Usings:  (*,R7)
0Loc    Object Code    Addr1 Addr2  Stmt Lv Lineno    Source Statement           (Hibal 5, Asmedit 3.3)  HLASM R4.0  2004/03/22 09.48
+___    ______ ____    _____ _____  ____ __ ______    ______ _________
00001C4 955C 1000      00000        5598     197.              CLI   @R1,C'*'                COMMENT CARD?
 0001C8 4780 704A            0016A  5599     198.              BE    GCLOOP                  YES, IGNORE
 0001CC 5960 75AC            006CC  5600     199.              C     PR,=A(GCBUF+L'GCBUF-71) TOO MANY CONTINUATIONS?
 0001D0 4720 7152            00272  5601     200.              BH    GCTOOBIG                YES, ERROR
 0001D4 D246 6000 1001 00000 00001  5602     201.              MVC   @PR(71),@R1+1           MOVE IN DATA PART
 0001DA D646 6000 7558 00000 00678  5603     202.              OC    @PR(71),=CL72' '        CAPITALIZE
 0001E0 4160 6047            00047  5604     203.              LA    PR,@PR+71               BUMP BUFFER POINTER
 0001E4 47F0 704A            0016A  5605     204.              B     GCLOOP                  TRY AGAIN
                                    5606     205.     *
                                    5607     206.     *    WE'VE GOT IT TOGETHER
                                    5608     207.     *
 0001E8 5B60 75B0            006D0  5609     208.     GCGOTCMD S     PR,=A(GCBUF)        Calculate length
 0001EC 1806                        5610     209.              LR    R0,PR               Copy length  to R0
 0001EE 4110 76D8            007F8  5611     210.              LA    R1,GCBUF            Set data pointer
 0001F2 1200                        5612     211.     GCEXIT   LTR   R0,R0               Set condition code
 0001F4 18D8/982F D000       00000  5613     212.              VEXIT SR,R15              Restore registers and return
 0001FA 07F9                        5617             +
                                    5618     213.     *
                                    5619     214.     *    HERE AT END OF FILE
                                    5620     215.     *
 0001FC D703 7674 7674 00794 00794  5621     216.     GCEOF    XC    GCRECP,GCRECP       Set no more records
 000202 0700/4510 70EC       0020C  5622     217.              CLOSE INPUT               Close SYSIN
 000208 80/000798/0A14              5625             +
 00020E 4110 7678            00798  5628     217.1             FREEPOOL INPUT            Release QSAN buffer pools
 000212 9101 1017      00017        5631             +
 000216 4710 713C/1FFF       0025C  5632             +
 00021C BFF7 1015            00015  5634             +
 000220 58E0 F000/12EE       00000  5635             +
 000226 4770 7112            00232  5637             +
 00022A 9130 F004      00004        5638             +
 00022E 4770 713C            0025C  5639             +
 000232 9601 1017/1BEE 00017        5640             +
 000238 1B11/BF13 F006       00006  5642             +
 00023E 43E0 F005/1C0E       00005  5644             +
 000244 4110 1008            00008  5646             +
 000248 9140 F004      00004        5647             +
 00024C 47E0 7134            00254  5648             +
 000250 4110 1008/1801       00008  5649             +
 000256 4110 F000/0A0A       00000  5651             +
 00025C 9180 7673      00793        5654     218.              IF    ~GCFINITD,GCNOINP   An error if no records
 000260 47E0 7148            00268  5666             +
 000264 47F0 70C8            001E8  5672     219.              B     GCGOTCMD            Good enough
                                    5673     220.     *
                                    5674     221.     *    ERROR CONDITIONS
                                    5675     222.     *
 000268                             5676     223.     GCNOINP  LABEL ,
 000268 4100 0004            00004  5678     224.              LA    R0,4
 00026C 1300                        5679     225.              LCR   R0,R0                SET MINUS FOR NULL INPUT
 00026E 47F0 70D2            001F2  5680     226.              B     GCEXIT               EXIT
-000272                             5682     228.     GCTOOBIG ERROR 2,16,'Too many continuation cards'
 000272 00020010E3969640            5683             +
 000291 00                          5684     229.     GCBADOPN ERROR 3,16,'Unable to open SYSIN'
1VMSC     (VMSC00) (09:48) (22MAR04) ORVYL STYLE BATCH I/O ROUTINES                                                         Page   52
0Current Usings:  (*,R7)
0Loc    Object Code    Addr1 Addr2  Stmt Lv Lineno    Source Statement           (Hibal 5, Asmedit 3.3)  HLASM R4.0  2004/03/22 09.48
+___    ______ ____    _____ _____  ____ __ ______    ______ _________
0000292 00030010E4958182            5685             +
1VMSC     (VMSC00) (09:48) (22MAR04) ORVYL STYLE BATCH I/O ROUTINES                                                         Page   53
0Current Usings:  (*,R7)
0Loc    Object Code    Addr1 Addr2  Stmt Lv Lineno    Source Statement           (Hibal 5, Asmedit 3.3)  HLASM R4.0  2004/03/22 09.48
+___    ______ ____    _____ _____  ____ __ ______    ______ _________
0                                   5687     231.     *    ADD A SEGMENT  TO OUTPUT BUFFER
                                    5688     232.     *
 0002AA 900F D000/188D       00000  5689     233.     VSEG     VENTER R0,R15,*
 0002B0 41D0 D040/0D70       00040  5694             +
 0002B6 1230                        5712     234.              LTR   TR,R0                   CHECK LENGTH
 DROP   *,R7
 USING  *,R7
 0002B8 47D0 7032            002E8  5713     235.              BNP   SEGX                    NULL CALL
 0002BC 4120 0089            00089  5714     236.              LA    SR,L'SEGBUF             CALCULATE
 0002C0 4B20 79C0            00C76  5715     237.              SH    SR,SEGLEN               LENGTH REMAINING
 0002C4 47D0 7032            002E8  5716     238.              BNP   SEGX                    NO MORE, TOO BAD
 0002C8 1B23                        5717     239.              SR    SR,TR                   MORE DATA THAN SPACE?
 0002CA 47B0 701A            002D0  5718     240.              IF    M,BEGIN                NO, WE GOT ROOM
 0002CE 1A32                        5729  1  241.                AR    TR,SR                   YES, REDUCE TO MAX AVAIL.
 0002D0                             5730     242.              END   ,
 0002D0 4160 79C0            00C76  5734     243.              LA    PR,SEGBUF               CALCULATE DATA ADDRESS
 0002D4 4A60 79C0            00C76  5735     244.              AH    PR,SEGLEN
 0002D8 1823                        5736     245.              LR    SR,TR                   CALCULATE NEW
 0002DA 4A20 79C0            00C76  5737     246.              AH    SR,SEGLEN               RECORD LENGTH
 0002DE 4020 79C0            00C76  5738     247.              STH   SR,SEGLEN               AND SAVE IT
 0002E2 0630                        5739     248.              BCTR  TR,0                    REDUCE FOR EXECUTE
 0002E4 4430 703A            002F0  5740     249.              EX    TR,SEGMVC               MOVE IN THE GOODIES
 0002E8 18D8/980F D000       00000  5742     250.     SEGX     VEXIT R0,R15                  RESTORE AND RETURN
 0002EE 07F9                        5746             +
                                    5747     251.
 0002F0 D200 6000 1000 00000 00000  5748     252.     SEGMVC   MVC   @PR(*-*),@R1            MOVE DATA
1VMSC     (VMSC00) (09:48) (22MAR04) ORVYL STYLE BATCH I/O ROUTINES                                                         Page   54
0Current Usings:  (*,R7)
0Loc    Object Code    Addr1 Addr2  Stmt Lv Lineno    Source Statement           (Hibal 5, Asmedit 3.3)  HLASM R4.0  2004/03/22 09.48
+___    ______ ____    _____ _____  ____ __ ______    ______ _________
0                                   5750     254.     *    PERFORM VARIOUS FUNCTIONS
                                    5751     255.     *
 0002F6 900E D000/188D       00000  5752     256.     VCNTRL   VENTER R0,R14,*
 0002FC 41D0 D03C/0D70       0003C  5757             +
 000302 1820                        5775     257.              LR    SR,R0
 DROP   *,R7
 USING  *,R7
                                    5777     259.              VCNTL TABLE,SR
 000304 47F2 7006            00308  5778    01-VCNTL +VCNBTBL  B     VCNBTBL+4(SR)
 000308 47F0 70B2            003B4  5779    01-VCNTL +         B     VCNWTO
 00030C 47F0 70C2            003C4  5780    01-VCNTL +         B     VCNWTOWR
 000310 47F0 7042            00344  5781    01-VCNTL +         B     VCNSETCC
 000314 47F0 704A            0034C  5782    01-VCNTL +         B     VCNCLOSE
 000318 47F0 70D2            003D4  5783    01-VCNTL +         B     VCNBLANK
 00031C 47F0 70E2            003E4  5784    01-VCNTL +         B     VCNSKIP1
 000320 47F0 70EA            003EC  5785    01-VCNTL +         B     VCNSKIP2
 000324 47F0 70F2            003F4  5786    01-VCNTL +         B     VCNPAGE
 000328 47F0 70FA            003FC  5787    01-VCNTL +         B     VCNDDNAM
 00032C 47F0 702E            00330  5788    01-VCNTL +         B     VCNRETBF
                                    5790     260.1    *
 000330                             5791     260.2    VCNRETBF LABEL ,
 000330 4820 7974            00C76  5793     260.21            LH    SR,SEGLEN           SET LENGTH OF SEG BUFFER
 000334 0620/4420 7A90       00D92  5794     260.22            DEX   SR,'MVC @R1(0),SEGBUF'
 000D92 D200 1000 7974 00000 00C76  5805             +
 00033A D204 7974 748C 00C76 0078E  5813     260.23            MVC   SEGLEN(5),=X'0005000040' RESET THE BUFFER CONTROL
 000340 47F0 7122            00424  5814     260.3             B     VCNEXIT             EXIT PROCESSING
                                    5815     261.
 000344                             5816     262.     VCNSETCC LABEL ,
 000344 4210 7978            00C7A  5818     263.              STC   R1,SEGCC                SET CARRIAGE CONTROL CHAR.
 000348 47F0 7122            00424  5819     264.              B     VCNEXIT                 BYE, BYE
                                    5820     265.
 00034C                             5821     266.     VCNCLOSE LABEL ,
 00034C 5890 73C6/0D99       006C8  5823     267.              VWRITE ,                  Write whatever's there
 000352 0700/4510 705A       0035C  5828     268.              CLOSE PRYNTER             Close the data set
 000358 80/000D00/0A14              5831             +
 00035E 4110 79FE            00D00  5834     268.1             FREEPOOL PRYNTER          Release buffer pool for prynter
 000362 9101 1017      00017        5837             +
 000366 4710 70AA/1FFF       003AC  5838             +
 00036C BFF7 1015            00015  5840             +
 000370 58E0 F000/12EE       00000  5841             +
 000376 4770 7080            00382  5843             +
 00037A 9130 F004      00004        5844             +
 00037E 4770 70AA            003AC  5845             +
 000382 9601 1017/1BEE 00017        5846             +
 000388 1B11/BF13 F006       00006  5848             +
 00038E 43E0 F005/1C0E       00005  5850             +
 000394 4110 1008            00008  5852             +
 000398 9140 F004      00004        5853             +
 00039C 47E0 70A2            003A4  5854             +
 0003A0 4110 1008/1801       00008  5855             +
 0003A6 4110 F000/0A0A       00000  5857             +
 0003AC 9680 79FD      00CFF        5860     269.              SET   SEGFCLOS            Mark it closed
 0003B0 47F0 7122            00424  5866     270.              B     VCNEXIT             All thru
                                    5867     271.
1VMSC     (VMSC00) (09:48) (22MAR04) ORVYL STYLE BATCH I/O ROUTINES                                                         Page   55
0Current Usings:  (*,R7)
0Loc    Object Code    Addr1 Addr2  Stmt Lv Lineno    Source Statement           (Hibal 5, Asmedit 3.3)  HLASM R4.0  2004/03/22 09.48
+___    ______ ____    _____ _____  ____ __ ______    ______ _________
00003B4                             5868     272.     VCNWTO   LABEL ,
 0003B4 4590 712A            0042C  5870     273.              BAL   RAR,DOWTO               DO THE WTO
 0003B8 18F1                        5871     274.              LR    R15,R1                  SAVE DOM-ID
 0003BA D204 7974 748C 00C76 0078E  5872     275.     VCNRESET MVC   SEGLEN(5),=X'0005000040' RESET THE BUFFER CONTROL
 0003C0 47F0 7122            00424  5873     276.              B     VCNEXIT
                                    5874     277.
 0003C4                             5875     278.     VCNWTOWR LABEL ,                       WTO AND WRITE
 0003C4 4590 712A            0042C  5877     279.              BAL   RAR,DOWTO               DO THE WTO
 0003C8 5890 73C6/0D99       006C8  5878     280.              VWRITE ,                      WRITE THE LINE TOO
 0003CE 18F1                        5883     281.              LR    R15,R1                  SAVE DOM-ID
 0003D0 47F0 7122            00424  5884     282.              B     VCNEXIT
                                    5885     283.
 0003D4                             5886     284.     VCNBLANK LABEL ,                       VSEG (1) BLANKS
 0003D4 1801                        5888     285.              LR    R0,R1                   SET LENGTH
 0003D6 4110 73D2            006D4  5889     286.              LA    R1,=CL132' '            ASSUME 1 LINE OR LESS
 0003DA 5890 73C2/0D99       006C4  5890     287.              VSEG  (1),(0)                 SEG IT
 0003E0 47F0 7122            00424  5907     288.              B     VCNEXIT
                                    5908     289.
 0003E4                             5909     290.     VCNSKIP1 LABEL ,
 0003E4 92F0 7978      00C7A        5911     291.              MVI   SEGCC,C'0'
 0003E8 47F0 7122            00424  5912     292.              B     VCNEXIT
                                    5913     293.
 0003EC                             5914     294.     VCNSKIP2 LABEL ,
 0003EC 9260 7978      00C7A        5916     295.              MVI   SEGCC,C'-'
 0003F0 47F0 7122            00424  5917     296.              B     VCNEXIT
                                    5918     297.
 0003F4                             5919     298.     VCNPAGE  LABEL ,
 0003F4 92F1 7978      00C7A        5921     299.              MVI   SEGCC,C'1'
 0003F8 47F0 7122            00424  5922     300.              B     VCNEXIT
                                    5923     301.
 0003FC                             5924     302.     VCNDDNAM LABEL ,                       SET PRINT DD NAME
 0003FC 9110 7A2E      00D30        5926     303.              TM    PRYNTER+(DCBOFLGS-IHADCB),DCBOFOPN  ALREADY OPEN?
 000400 4710 7122            00424  5927     304.              BO    VCNEXIT                 CAN'T DO IT NOW, DODO
 000404 D207 7A26 1000 00D28 00000  5928     305.              MVC   PRYNTER+(DCBDDNAM-IHADCB)(8),@R1  SET DDNAME
 00040A 1841                        5929     305.1             LR    QR,R1               SAVE ADDRESS OF DDNAME
 00040C 4D90 7242            00544  5930     305.2             LCALL FINDDD              ATTEMPT TO LOCATE VIA TIOT
 000410 4780 711E            00420  5932     305.3             IF    NZ,BEGIN            NOT THERE -- ALLOCATE SYSOUT=$
 000414 D207 7A84 4000 00D86 00000  5943  1  305.4               MVC   SDD+6(8),@QR        SET DDNAME TO ALLOCATE
 00041A 4110 7A5E            00D60  5944  1  305.5               LA    R1,SDYNBLK          SET POINTER TO SVC99 RB
 00041E 0A63                        5945  1  305.6               DYNALLOC ,
 000420                             5948     305.7             END   ,
 000420 47F0 7122            00424  5952     306.              B     VCNEXIT
                                    5953     307.
 000424 18D8/980E D000       00000  5954     308.     VCNEXIT  VEXIT R0,R14
 00042A 07F9                        5958             +
1VMSC     (VMSC00) (09:48) (22MAR04) ORVYL STYLE BATCH I/O ROUTINES                                                         Page   56
0Current Usings:  (*,R7)
0Loc    Object Code    Addr1 Addr2  Stmt Lv Lineno    Source Statement           (Hibal 5, Asmedit 3.3)  HLASM R4.0  2004/03/22 09.48
+___    ______ ____    _____ _____  ____ __ ______    ______ _________
0                                   5960     310.     *    FORMAT A WTO AND ISSUE THE WTO SVC
                                    5961     311.     *
 00042C 9029 D000            00000  5962     312.     DOWTO    VPUSH SR,RAR,*
 000430 41D0 D020            00020  5964             +
 000434 4820 7974            00C76  5965     313.              LH    SR,SEGLEN               GET LENGTH
 000438 4B20 7484            00786  5966     314.              SH    SR,=H'6'                LESS CC, REDUCE FOR EXECUTE
 00043C 4740 71AE            004B0  5967     315.              BM    DWEXIT                  NOTHING TO SEND
 000440 4920 7486            00788  5968     316.              CH    SR,=AL2(L'WTOMSG-1)     TOO BIG?
 000444 47D0 714A            0044C  5969     317.              IF    H,BEGIN                NO, GO AHEAD
 000448 4120 006A            0006A  5980  1  318.                LA    SR,L'WTOMSG-1           SET MAX
 00044C                             5981     319.              END   ,
 00044C 4420 71B8            004BA  5985     320.              EX    SR,WTOMVC               GET MESSAGE
 000450 4120 2016            00016  5987     321.              LA    SR,@SR+(WTOMSG-WTOBUFF+1)   FULL WTO LENGTH
 000454 4020 71BE            004C0  5988     322.              STH   SR,WTOLEN               SET THE LENGTH
 000458 D201 71C0 7488 004C2 0078A  5989     323.              MVC   WTOFLAGS,=X'8000'       SET NEW FORM WTO
 00045E 4132 71BE            004C0  5990     324.              LA    TR,WTOBUFF(SR)          WHERE ROUTE AND DESC CODES GO
 000462 D203 3000 7456 00000 00758  5991     325.              MVC   @TR(L'WTOCODES),=X'04004000'  DESC=6,ROUTCDE=2
 000468 1221                        5992     326.              LTR   SR,R1                   DESCRIPTOR CODE SPECIFIED?
 00046A 47D0 7178            0047A  5993     327.              IF    P,BEGIN                NOPE
 00046E 5840 745A            0075C  6004  1  328.                L     QR,=X'00010000'         GET A BIT
 000472 8840 2000            00000  6005  1  329.                SRL   QR,@SR                  SHIFT IT ROUND
 000476 40403000                    6006  1  330.                ST2   QR,@TR                  SET DESCRIPTOR CODE
 00047A                             6008     331.              END   ,
 00047A 122F                        6012     332.              LTR   SR,R15                  ROUTCDE SPECIFIED?
 00047C 47D0 718A            0048C  6013     333.              IF    P,BEGIN                NO
 000480 5840 745A            0075C  6024  1  334.                L     QR,=X'00010000'         GET ANOTHER BIT
 000484 8840 2000            00000  6025  1  335.                SRL   QR,@SR                  PUT IN POSITION
 000488 40403002                    6026  1  336.                ST2   QR,@TR+2                SAVE ROUTING CODE
 00048C                             6028     337.              END   ,
 00048C 9140 79FD      00CFF        6032     338.              IF    ~SEGFJNAM,BEGIN        JUST GET THE JOBNAME ONCE
 000490 4710 71A8            004AA  6042             +
 000494 5820 0010            00010  6047  1  339.                L     SR,CVTPTR               CVT POINTER
 000498 5820 2000            00000  6048  1  340.                WITH  (CVT,SR),'L  SR,CVTTCBP'    TCB WORDS
 USING  CVT,R2
 DROP   CVT,R2
 00049C 5820 2004            00004  6072  1  341.                L     SR,@SR+4                CURRENT TCB POINTER (THAT'S US)
 0004A0 5820 200C            0000C  6073  1  342.                L     SR,@SR+12               TCBTIO - TIOT POINTER
 0004A4 D207 71C6 2000 004C8 00000  6074  1  343.                MVC   WTOJNAME,@SR            SET JOBNAME FOR WTO
 0004AA                             6075     344.              END   ,
 0004AA 4110 71BE/0A23       004C0  6079     345.              WTO   MF=(E,WTOBUFF)          SEND THE WORD
 0004B0 4BD0 748A            0078C  6083     346.     DWEXIT   VPOP  SR,RAR,*
 0004B4 9829 D000            00000  6085             +
 0004B8 07F9                        6086     347.              BR    RAR
                                    6087     348.
 0004BA D200 71D3 7979 004D5 00C7B  6088     349.     WTOMVC   MVC   WTOMSG(*-*),SEGB
 0004C0                             6089     350.     WTOBUFF  LABEL ,
 0004C0                             6091     351.     WTOLEN   DS    H
 0004C2                             6092     352.     WTOFLAGS DS    H
 0004C4 5C5C5C40                    6093     353.     WTOSTAR1 DC    C'*** '
 0004C8                             6094     354.     WTOJNAME DS    CL8
 0004D0 405C5C5C40                  6095     355.     WTOSTAR2 DC    C' *** '
                                    6096     356.     WTOMLEN  EQU   124-(*-WTOSTAR1)
 0004D5                             6097     357.     WTOMSG   DS    CL(WTOMLEN)
 000540                             6098     358.     WTODESC  DS    H
1VMSC     (VMSC00) (09:48) (22MAR04) ORVYL STYLE BATCH I/O ROUTINES                                                         Page   57
0Current Usings:  (*,R7)
0Loc    Object Code    Addr1 Addr2  Stmt Lv Lineno    Source Statement           (Hibal 5, Asmedit 3.3)  HLASM R4.0  2004/03/22 09.48
+___    ______ ____    _____ _____  ____ __ ______    ______ _________
0000542                             6099     359.     WTOROUTC DS    H
                                    6100     360.     WTOCODES EQU   WTODESC,*-WTODESC
1VMSC     (VMSC00) (09:48) (22MAR04) ORVYL STYLE BATCH I/O ROUTINES                                                         Page   58
0Current Usings:  (*,R7)
0Loc    Object Code    Addr1 Addr2  Stmt Lv Lineno    Source Statement           (Hibal 5, Asmedit 3.3)  HLASM R4.0  2004/03/22 09.48
+___    ______ ____    _____ _____  ____ __ ______    ______ _________
0                                   6102     361.11   ********************************************************************
                                    6103     361.12   *                                                                  *
                                    6104     361.13   * SEARCH TIOT FOR SPECIFIED DDNAME                                 *
                                    6105     361.14   *                                                                  *
                                    6106     361.15   *                                                                  *
                                    6107     361.16   *        ENTRY:                                                    *
                                    6108     361.17   *                R1 -> DDNAME                                      *
                                    6109     361.18   *                                                                  *
                                    6110     361.19   *               Z -- DDCARD FOUND                                  *
                                    6111     361.2    *              NZ -- NO DDCARD FOUND                               *
                                    6112     361.21   *                                                                  *
                                    6113     361.22   ********************************************************************
0000544                             6115     361.24   FINDDD   LABEL ,
 000544 5820 0010            00010  6117     361.25            L     SR,16                   Cvt address
 000548 5820 2000            00000  6118     361.26            L     SR,@SR                  Address of TCB words
 00054C 5820 2004            00004  6119     361.27            L     SR,@SR+4                Address of TCB
 USING  TCB,R2                      6120     361.28            USING TCB,SR                  ##
 000550 5820 200C            0002C  6129     361.29            L     SR,TCBTIO               Address of tiot
 DROP   TCB,R2                      6130     361.3             USING TIOT,SR                 ##
 USING  TIOT,R2
 000554 4120 2018            00018  6142     361.31            LA    SR,TIOELNGH             Dd entries
 DROP   TIOT,R2                     6143     361.32            USING TIOELNGH,SR             ##
 USING  TIOELNGH,R2
 000558 1B33                        6155     361.33            CLEAR TR                      Clear for length bytes
 00055A 9500 2000      00018        6159     361.34            WHILE (TIOELNGH,NZ),BEGIN
 00055E 4780 7274            00576  6172             +
 000562 D507 1000 2004 00000 0001C  6177  1  361.35              CLC   @R1(8),TIOEDDNM         Found ddname?
 000568 0789                        6178  1  361.36              BER   RAR                     Yep -- return
 00056A 4330 2000            00018  6179  1  361.37              IC    TR,TIOELNGH             Entry length
 00056E 4123 2000            00000  6180  1  361.38              LA    SR,0(TR,SR)             Bump entry address
 000572 47F0 7258            0055A  6181     361.39            END   ,
 000576 9500 7274      00576        6186     361.4             CLI   *,0                     Set cc ne
 00057A 07F9                        6187     361.41            BR    RAR                     Return
-DROP   TIOELNGH,R2                 6189     361.43            DROP  SR                      ## rlse tioelngh
1VMSC     (VMSC00) (09:48) (22MAR04) ORVYL STYLE BATCH I/O ROUTINES                                                         Page   59
0Current Usings:  (*,R7)
0Loc    Object Code    Addr1 Addr2  Stmt Lv Lineno    Source Statement           (Hibal 5, Asmedit 3.3)  HLASM R4.0  2004/03/22 09.48
+___    ______ ____    _____ _____  ____ __ ______    ______ _________
0                                   6197     362.     *    PRINT THE BUFFER
                                    6198     363.     *
 00057C 900E D000/188D       00000  6199     364.     VWRITE   VENTER R0,R14,*
 000582 41D0 D03C/0D70       0003C  6204             +
 000588 9110 77A8      00D30        6222     365.              TM    PRYNTER+(DCBOFLGS-IHADCB),DCBOFOPN  ALREADY OPENED?
 DROP   *,R7
 USING  *,R7
 00058C 4710 702E            005B6  6223     366.              IF    NO,BEGIN               YEP, GO 'HEAD
 000590 9180 7777      00CFF        6234  1  367.                IF    SEGFCLOS,VWERROR        IT'S BEEN CLOSED?
 000594 4710 7026            005AE  6246  1          +
 000598 4510 7018/8F         005A0  6252  1  368.                OPEN  (PRYNTER,OUTPUT)
 00059D 000D00/0A13                 6256  1          +
 0005A2 9110 77A8      00D30        6258  1  369.                TM    PRYNTER+(DCBOFLGS-IHADCB),DCBOFOPN  OPEN OK?
 0005A6 4710 702E            005B6  6259  1  370.                IF    NO,BEGIN               JUST FINE
 0005AA 9680 7777      00CFF        6270  2  371.                  SET   SEGFCLOS                SET CLOSED FLAG
 0005AE 41F0 0004            00004  6276  2  372.     VWERROR      LA    R15,4                   SET ERROR CODE
 0005B2 47F0 7046            005CE  6277  2  373.                  B     VWEXIT                  RETURN
 0005B6                             6278  1  374.                END   ,
 0005B6                             6282     375.              END   ,
 0005B6 4110 7778            00D00  6286     376.              PUT   PRYNTER,SEGBUF          WRITE A RECORD
 0005BA 4100 76EE/1FFF       00C76  6289             +
 0005C0 BFF7 1031/05EF       00031  6291             +
 0005C6 D204 76EE 7206 00C76 0078E  6293     377.              MVC   SEGLEN(5),=X'0005000040' INITIALIZE LENGTH, FLAGS, CC
 0005CC 1BFF                        6294     378.              SR    R15,R15                 SET GOOD RETURN
 0005CE 18D8/980E D000       00000  6295     379.     VWEXIT   VEXIT R0,R14,LTR
 0005D4 12FF/07F9                   6299             +
-
-                                   6302     381.     *
                                    6303     382.     *    DCB EXIT LIST AND EXIT ROUTINE
                                    6304     383.     *
 0005D8 850005DC                    6305     384.     OPEXITL  DC    0A(0),X'85',AL3(OPEXIT)
 USING  OPEXIT,R15                  6306     385.              USING OPEXIT,R15              ##
 USING  IHADCB,R1                   6315     386.              USING IHADCB,R1               ##
 0005DC                             6324     387.     OPEXIT   LABEL ,
 0005DC 4820 1052            00052  6326     388.              LH    SR,DCBLRECL             GET RECORD LENGTH
 0005E0 4120 2004            00004  6327     389.              LA    SR,@SR+4                BUMP
 0005E4 4920 103E            0003E  6328     390.              CH    SR,DCBBLKSI             PASS THE TEST?
 0005E8 07DE                        6329     391.              BNHR  R14                     IT'S OK
 0005EA 4020 103E            0003E  6330     392.              STH   SR,DCBBLKSI             SET IT UP
 0005EE 07FE                        6331     393.              BR    R14
 DROP   IHADCB,R1                   6332     394.              DROP  R1,R15                  ##
 DROP   OPEXIT,R15
1VMSC     (VMSC00) (09:48) (22MAR04) ORVYL STYLE BATCH I/O ROUTINES                                                         Page   60
0Current Usings:  (*,R7)
0Loc    Object Code    Addr1 Addr2  Stmt Lv Lineno    Source Statement           (Hibal 5, Asmedit 3.3)  HLASM R4.0  2004/03/22 09.48
+___    ______ ____    _____ _____  ____ __ ______    ______ _________
0000000                00000 00034  6346     396.     TRKWRK   RECORD BEGIN
                                    6354  1  397.                VSA   SR,R11
 000000                             6355  1 01-VSA   +           DS    (R11+1-(SR)+16*((SR)/(R11+1))/((SR)/(R11+1)))F
                                    6356  1  398.     TRKLIST    TRKCALC MF=D
 000028                             6357  1 01-TRKCA +           DS    0F                       ALIGN TO FULL WORD BOUNDARY
 000028                             6358  1 01-TRKCA +TRKLIST    DS    0CL12                    STAR PARM LIST MAP
 000028                             6359  1 01-TRKCA +STARUCBA   DS    0F                       UCB ADDRESS
 000028                             6360  1 01-TRKCA +STARDCTA   DS    0F                       DEVICE TABLE ADDRESS
 000028                             6361  1 01-TRKCA +           DS    XL3
 00002B                             6362  1 01-TRKCA +STARTYPE   DS    XL1                      DEVICE TYPE
 00002C                             6363  1 01-TRKCA +STARFLGS   DS    XL1                      FUNCTION AND OPTIONS
                                    6364  1 01-TRKCA +STARFUNC   EQU   B'10000000'              FUNCTION: 0=TRKBAL, 1=TRKCAP
                                    6365  1 01-TRKCA +STARMAXS   EQU   B'01000000'              1=MAXSIZE REQUESTED
                                    6366  1 01-TRKCA +STARREMV   EQU   B'00100000'              1=REMOVE REQUESTED
                                    6367  1 01-TRKCA +STARUBAL   EQU   B'00010000'              1=CALLER PROVIDED BALANCE
                                    6368  1 01-TRKCA +STARLAST   EQU   B'00001000'              1=SPECIAL LAST RCD REQUEST
                                    6369  1 01-TRKCA +STARDTU    EQU   B'00000110'              DVCT ENTRY SOURCE FLAGS:
                                    6370  1          +*                                       00=DVCT ENTRY ADDRESS PROVIDED
                                    6371  1          +*                                       01=RESERVED
                                    6372  1          +*                                       10=UCB ADDRESS PROVIDED
                                    6373  1          +*                                       11=DEVICE TYPE PROVIDED
                                    6374  1 01-TRKCA +STARLOC    EQU   B'00000001'              LOC=ANY. DEVTAB OR UCB     @L1C
                                    6375  1          +*                                       ABOVE THE LINE             @L1A
 00002D                             6376  1 01-TRKCA +           DS    XL1                      RESERVED
 00002E                             6377  1 01-TRKCA +STARBAL    DS    H                        TRACK BALANCE
 000030                             6378  1 01-TRKCA +STARRKDD   DS    0F                       RECORD INFO AS DEFINED BELOW
 000030                             6379  1 01-TRKCA +STARR      DS    XL1                      RECORD NUMBER
 000031                             6380  1 01-TRKCA +STARKL     DS    XL1                      KEY LENGTH
 000032                             6381  1 01-TRKCA +STARDL     DS    H                        DATA LENGTH
 000034                00034 00034  6382     399.              END   ,
1VMSC     (VMSC00) (09:48) (22MAR04) ORVYL STYLE BATCH I/O ROUTINES                                                         Page   61
0Current Usings:  (*,R7)
0Loc    Object Code    Addr1 Addr2  Stmt Lv Lineno    Source Statement           (Hibal 5, Asmedit 3.3)  HLASM R4.0  2004/03/22 09.48
+___    ______ ____    _____ _____  ____ __ ______    ______ _________
0                                   6392     401.     *
                                    6393     402.     * CALCTRK CALCULATES THE NUMBER OF RECORDS/TRACK FOR A GIVEN
                                    6394     403.     *        BLKSIZE, AND THE NUMBER OF EXTRA BLOCKS/CYLINDER
                                    6395     404.     *        IF TRACK OVERFLOW WERE TO BE USED.
                                    6396     405.     * INPUT  R1 POINTS TO DVTAREA AND THE DEVTYPE HAS BEEN DONE
                                    6397     406.     *        R0 HAS BLKSIZE
                                    6398     407.     *OUTPUT  R1 HAS RECORDS/TRACK
                                    6399     408.     *
 0005F0 902B D000/188D       00000  6400     409.     CALCTRK  VENTER SR,R11,L'TRKWRK
 0005F6 41D0 D034/0D70       00034  6405             +
 DROP   *,R7                        6423     410.              USING TRKWRK,WAR              ##
 USING  *,R7
 USING  TRKWRK,R8
 0005FC                             6432     411.              CLEAR TRKLIST
 0005FC D70B 8028 8028 00028 00028  6438             +
 000602 5000 8030            00030  6439     412.              ST    R0,STARRKDD             SET KEY AND DATA LENGTH
 000606 9201 8030      00030        6440     413.              MVI   STARR,1                 SET RECORD NUMBER
 00060A 1F22/4320 1003       00003  6441     414.              WITH  (DVTAREA,R1),'LC  SR,DVTUTYPE'      DEVICE TYPE
 USING  DVTAREA,R1
 DROP   DVTAREA,R1
 000610 4110 8028            00028  6471     415.              TRKCALC  FUNCTN=TRKCAP,TYPE=(SR),MF=(E,TRKLIST)
 000614 4220 1003            00003  6477             +
 000618 9286 1004      00004        6478             +
 00061C 58F0 0010            00010  6479             +
 000620 58F0 F0E8            000E8  6480             +
 000624 45E0 F00C            0000C  6481             +
 000628 1810                        6482     416.              LR    R1,R0                   ANSWER
 DROP   TRKWRK,R8                   6483     417.              DROP  WAR                     ##
 00062A 18D8/982B D000       00000  6490     418.              VEXIT SR,R11                  RETURN
 000630 07F9                        6494             +
1VMSC     (VMSC00) (09:48) (22MAR04) ORVYL STYLE BATCH I/O ROUTINES                                                         Page   62
0Current Usings:  (*,R7)
0Loc    Object Code    Addr1 Addr2  Stmt Lv Lineno    Source Statement           (Hibal 5, Asmedit 3.3)  HLASM R4.0  2004/03/22 09.48
+___    ______ ____    _____ _____  ____ __ ______    ______ _________
0                                   6496     420.     *  CALCULATE RPS VALUES
                                    6497     421.     *
                                    6498     422.     *  INPUT  R1  POINTS TO DVTAREA AND THE DEVTYPE HAS BEEN DONE
                                    6499     423.     *         R0  HAS BLKSIZE
                                    6500     424.     *         R14 LENGTH OF SHORT FIRST BLOCK (INCLUDING OVERHEAD)
                                    6501     425.     *         R15 RECORD NUMBER
                                    6502     426.     *
                                    6503     427.     *  OUTPUT R15 HAS SECTOR NUMBER
                                    6504     428.     *
 000632 902B D000/188D       00000  6505     429.     CALCRPS  VENTER R2,R11,L'TRKWRK
 000638 41D0 D034/0D70       00034  6510             +
 DROP   *,R7                        6528     430.              USING TRKWRK,WAR              ##
 USING  *,R7
 USING  TRKWRK,R8
 00063E 12FF/4780 7032       00670  6537     431.              IF    (R15,NZ),BEGIN          NOTHING TO DO FOR R0
 000644 5000 8030            00030  6551  1  432.                ST    R0,STARRKDD             SET KEY AND DATA LENGTH
 000648 180F                        6552  1  433.                LR    R0,R15                  RECORD NUMBER IN BYTE 3
 00064A BF0C 8032            00032  6553  1  434.                ICM   R0,B'1100',STARDL       DATA LENGTH IN BYTES 0 & 1
 00064E BF02 8031            00031  6554  1  435.                ICM   R0,B'0010',STARKL       KEY LENGTH IN BYTE 2
 000652                             6555  1  436.                CLEAR STARBAL                 ANSWER AREA
 000652 D701 802E 802E 0002E 0002E  6561  1          +
 000658 4120 802E            0002E  6562  1  437.                LA    R2,STARBAL              SET POINTER
 00065C BF28 1003            00003  6563  1  438.                WITH  (DVTAREA,R1),'ICM  R2,B'1000',DVTUTYPE'   DEVICE TYPE
 USING  DVTAREA,R1
 DROP   DVTAREA,R1
 000660 58F0 0010            00010  6587  1  439.                L     R15,CVTPTR              CVT POINTER
 000664 58F0 F0E8            000E8  6588  1  440.                WITH  (CVT,R15),'L  R15,CVT0SCR1'   GET SECTOR NUMBER
 USING  CVT,R15
 DROP   CVT,R15
 000668 05EF                        6612  1  441.                BALR  R14,R15
 00066A 1FFF/43F0 802E       0002E  6613  1  442.                LC    R15,STARBAL
 000670                             6620     443.              END   ,
 000670 18D8/982B D000       00000  6624     444.              VEXIT R2,R11
 000676 07F9                        6628             +
1VMSC     (VMSC00) (09:48) (22MAR04) ORVYL STYLE BATCH I/O ROUTINES                                                         Page   63
0Current Usings:  (*,R7) (TRKWRK,R8)
0Loc    Object Code    Addr1 Addr2  Stmt Lv Lineno    Source Statement           (Hibal 5, Asmedit 3.3)  HLASM R4.0  2004/03/22 09.48
+___    ______ ____    _____ _____  ____ __ ______    ______ _________
0000678                             6630     446.              LTORG
 000678 4040404040404040            6632                             =CL72' '
 0006C0 00000000                    6633                             =V(BTX)
 0006C4 00000000                    6634                             =V(VSEG)
 0006C8 00000000                    6635                             =V(VWRITE)
 0006CC 00000A78                    6636                             =A(GCBUF+L'GCBUF-71)
 0006D0 000007F8                    6637                             =A(GCBUF)
 0006D4 4040404040404040            6638                             =CL132' '
 000758 04004000                    6639                             =X'04004000'
 00075C 00010000                    6640                             =X'00010000'
 000760 4040404040404040            6641                             =C'          **** REPEAT LINE(S) ****'
 000782 606E                        6642                             =C'->'
 000784 4C60                        6643                             =C'<-'
 000786 0006                        6644                             =H'6'
 000788 006A                        6645                             =AL2(L'WTOMSG-1)
 00078A 8000                        6646                             =X'8000'
 00078C 0020                        6647                             =Y((RAR+1-(SR)+16*((SR)/(RAR+1))/((SR)/(RAR+1)))*4)
 00078E 0005000040     00D98 00D98  6648                             =X'0005000040'
-000D98                00D98 00D98  6653     448.              END   .

1VMSC     (VMSC00) (09:48) (22MAR04) Ordinary Symbol and Literal Cross Reference                                            Page   64
-Symbol   Length   Value     Id    R Type   Defn References                                  HLASM R4.0  2004/03/22 09.48
0$$$@R2        1 00000000 FFFFFFFC     J     732 1026
 $$$@R3        1 00000000 FFFFFFFB     J     745 1039
 $$$@R4        1 00000000 FFFFFFFA     J     758 1052
 $$$@R5        1 00000000 FFFFFFF9     J     771 1065
 $$$@R6        1 00000000 FFFFFFF8     J     784 1078
 $$$@R7        1 00000000 FFFFFFF7     J     797 1091
 $$$@R8        1 00000000 FFFFFFF6     J     810 1104
 $$$@R9        1 00000000 FFFFFFF5     J     823 1117
 $$$C1VMSC
               1 00000D98 00000001     J    6649 6651
 $$$C2VMSC
               1 00000D98 00000001     J    6656 6658
 $$$DVT        4 00000000 FFFFFFEE     F    1133 1187  1187
 $$$D0VMSC
               1 00000793 00000001     J     995 5078  5800
 $$$RTRKWRK
               1 00000000 FFFFFFDD     J    6348 6388  6388
 $$$0B         1 00000022 00000001     X    5293 5300U
 $$$1B         1 00000120 00000001     X    5477 5487U
 $$$10F        2 00000420 00000001     H    5951 5938B
 $$$11F        2 0000044C 00000001     H    5984 5975B
 $$$13F        2 0000047A 00000001     H    6011 5999B
 $$$14F        2 0000048C 00000001     H    6031 6019B
 $$$15F        2 000004AA 00000001     H    6078 6042B
 $$$16F        2 00000576 00000001     H    6185 6172B
 $$$16S        2 0000055A 00000001     H    6164 6184B
 $$$18B        1 00000588 00000001     X    6210 6220U
 $$$19F        2 000005B6 00000001     H    6285 6229B
 $$$2F         2 0000014E 00000001     H    5528 5499B
 $$$21F        2 000005B6 00000001     H    6281 6265B
 $$$22B        1 000005FC 00000001     X    6411 6421U
 $$$23B        1 0000063E 00000001     X    6516 6526U
 $$$24F        2 00000670 00000001     H    6623 6546B
 $$$4B         1 000002B6 00000001     X    5700 5710U
 $$$5F         2 000002D0 00000001     H    5733 5724B
 $$$7B         1 00000302 00000001     X    5763 5773U
 $$$8          6 00000D92 00000001     I    5806 5798X
 $$$9          6 00000D92 00000001     I    5805 5806  5806
 @PR           0 00000000 FFFFFFF8     @    1079 5602M 5603M 5604  5748M
 @QR           0 00000000 FFFFFFFA     @    1053 5943
 @R0           0 00000000 FFFFFFFE     @     707  983U
 @R1           0 00000000 FFFFFFFD     @     720  979U 5536  5592  5594  5596  5598  5602  5748  5805M 5928  6177  6337U
                                                 6469U 6585U
 @R10          0 00000000 FFFFFFF4     @     837  943U
 @R11          0 00000000 FFFFFFF3     @     850  939U
 @R12          0 00000000 FFFFFFF2     @     863  935U
 @R13          0 00000000 FFFFFFF1     @     876  931U
 @R14          0 00000000 FFFFFFF0     @     889  927U
 @R15          0 00000000 FFFFFFEF     @     902  923U 6343U 6610U 6619U
 @R2           0 00000000 FFFFFFFC     @     733  975U 6070U 6137U 6150U 6194U 6462U
 @R3           0 00000000 FFFFFFFB     @     746  971U
 @R4           0 00000000 FFFFFFFA     @     759  967U
 @R5           0 00000000 FFFFFFF9     @     772  963U
 @R6           0 00000000 FFFFFFF8     @     785  959U
 @R7           0 00000000 FFFFFFF7     @     798  955U 5484U 5707U 5770U 6217U 6418U 6523U
1VMSC     (VMSC00) (09:48) (22MAR04) Ordinary Symbol and Literal Cross Reference                                            Page   65
 @R8           0 00000000 FFFFFFF6     @     811  951U 6488U
 @R9           0 00000000 FFFFFFF5     @     824  947U
 @SR           0 00000000 FFFFFFFC     @    1027 5357  5362  5386  5391  5559  5987  6005  6025  6072  6073  6074  6118
                                                 6119  6327
 @TR           0 00000000 FFFFFFFB     @    1040 5309  5311  5343  5363  5372  5392  5453  5991M 6007  6027
 AHLHEAD       1 00000000 00000000 A   T    4149 4149
 AHLVCCR8      1 00000000 00000000 A   T    4640 4640
 ASMVT         1 00000000 00000000 A   T    4529 4529
 BTX           1 00000000 00000002     T    6633 6633
 CALCRPS       4 00000632 00000001     I    6508 6506
 CALCTRK       4 000005F0 00000001     I    6403 6401
 CBBRANCH      1 00000000 00000000 A   T    4685 4685
 CRBRANCH      1 00000000 00000000 A   T    4426 4426
 CSRTABLE      1 00000000 00000000 A   T    4446 4446
 CSVARMGR      1 00000000 00000000 A   T    4494 4494
 CSVEXIT       1 00000000 00000000 A   T    4367 4367
 CSVLLCB       1 00000000 00000000 A   T    3967 3967
 CSVLLTRM      1 00000000 00000000 A   T    3968 3968
 CSVMEM        1 00000000 00000000 A   T    4195 4195
 CSVVFGET      1 00000000 00000000 A   T    4759 4759
 CSVVFIND      1 00000000 00000000 A   T    4757 4757
 CVT           1 00000000 FFFFFFE1     J    3937 6057U 6597U
 CVTBRET       2 00000052 FFFFFFE1     H    3992 4505  4584
 CVTPTR        1 00000010 FFFFFFE2 A   U    3933 6047  6587
 CVTTCBP       4 00000000 FFFFFFE1     V    3944 6063
 CVTVSTGX      1 00000000 FFFFFFE0     J    4957 4821
 CVTXTNT1      1 00000000 FFFFFFDF     J    4996 4164
 CVTXTNT2      1 00000000 FFFFFFDE     J    5004 4234
 CVT0SCR1      4 000000E8 FFFFFFE1     V    4129 6603
 CVT4MS1       1 00000010 FFFFFFE1 A   U    4017 4025
 CVT6DAT       1 00000002 FFFFFFE1 A   U    4021 4025
 DALDDNAM      1 00000001 FFFFFFE6 A   U    2348 5262
 DALSYSOU      1 00000018 FFFFFFE6 A   U    2371 5263
 DCBBIT0       1 00000080 FFFFFFED A   U    1202 1290  1298  1312  1334  1376  1378  1379  1381  1401  1404  1426  1430
                                                 1445  1482  1538  1564  1602  1606  1625  1731
 DCBBIT1       1 00000040 FFFFFFED A   U    1203 1291  1299  1314  1343  1344  1353  1359  1376  1378  1380  1381  1406
                                                 1426  1428  1430  1448  1449  1450  1485  1486  1538  1566  1608  1610
                                                 1628  1673  1732
 DCBBIT2       1 00000020 FFFFFFED A   U    1204 1292  1300  1315  1316  1317  1343  1344  1348  1354  1359  1376  1377
                                                 1382  1408  1431  1432  1453  1454  1455  1489  1490  1539  1571  1611
                                                 1633  1676  1679  1733
 DCBBIT3       1 00000010 FFFFFFED A   U    1205 1293  1315  1317  1318  1343  1356  1383  1411  1431  1434  1457  1458
                                                 1459  1493  1494  1539  1573  1575  1577  1613  1634  1676  1680
 DCBBIT4       1 00000008 FFFFFFED A   U    1206 1301  1357  1358  1359  1384  1412  1436  1441  1442  1462  1463  1497
                                                 1498  1500  1501  1540  1580  1615  1635  1676  1681
 DCBBIT5       1 00000004 FFFFFFED A   U    1207 1302  1364  1387  1388  1414  1436  1438  1439  1442  1466  1468  1469
                                                 1470  1504  1505  1506  1507  1540  1582  1585  1618  1637  1671
 DCBBIT6       1 00000002 FFFFFFED A   U    1208 1294  1366  1367  1370  1387  1389  1415  1473  1474  1475  1476  1510
                                                 1511  1512  1513  1541  1588  1620  1639  1682
 DCBBIT7       1 00000001 FFFFFFED A   U    1209 1295  1366  1368  1370  1391  1420  1478  1479  1516  1517  1519  1520
                                                 1591  1621  1622  1640  1684  1734
 DCBBLKSI      2 0000003E FFFFFFED     H    1642 6328  6330M
 DCBDCBE       4 00000000 FFFFFFED     A    1217 1221
 DCBDDNAM      8 00000028 FFFFFFED     C    1398 5928M
 DCBFDAD       8 00000005 FFFFFFED     C    1233 1235
 DCBLRECL      2 00000052 FFFFFFED     H    1706 6326
 DCBOFIOF      1 00000001 FFFFFFED A   U    1420 1422
 DCBOFLGS      1 00000030 FFFFFFED     B    1400 5510  5926  6222  6258
 DCBOFOPN      1 00000010 FFFFFFED A   U    1411 5510  5926  6222  6258
1VMSC     (VMSC00) (09:48) (22MAR04) Ordinary Symbol and Literal Cross Reference                                            Page   66
 DCBOFUEX      1 00000002 FFFFFFED A   U    1415 1419
 DFAIDTAB      1 00000000 00000000 A   T    4834 4834
 DOWTO         4 0000042C 00000001     I    5963 5870B 5877B
 DUMPADD       4 00000AC0 00000001     A    5140 5303M 5317  5423  5424M 5449  5450M
 DUMPBUF     133 00000AD1 00000001     C    5144 5145  5147  5331  5336  5365  5394M 5395M
 DUMPEND       4 00000AC4 00000001     A    5141 5305M 5425  5451
 DVTAREA      24 00000000 FFFFFFEE     X    1187 6450U 6572U
 DVTDEVCD      4 00000000 FFFFFFEE     F    1134 1136  1140  1149
 DVTUTYPE      1 00000003 FFFFFFEE     X    1149 6461  6578
 DWEXIT        4 000004B0 00000001     I    6084 5967B
 EBCDIC        2 00000B76 00000001     H    5153 5395
 FINDDD        2 00000544 00000001     H    6116 5931B
 FMBRANCH      1 00000000 00000000 A   T    4610 4610
 GCBADOPN      2 00000292 00000001     H    5685 5511B
 GCBUF       711 000007F8 00000001     X    5136 5536M 5537M 5538  5611  6636  6636  6637
 GCEOF         6 000001FC 00000001     I    5621 5110
 GCEXIT        2 000001F2 00000001     I    5612 5534B 5680B
 GCF           1 00000793 00000001     R    5084 5088
 GCFINITD    128 00000793 00000001         5088 5498  5524M 5663
 GCGOTCMD      4 000001E8 00000001     I    5609 5593B 5595B 5672B
 GCLOOP        2 0000016A 00000001     I    5540 5597B 5599B 5605B
 GCNOINP       2 00000268 00000001     H    5677 5666B
 GCRECP        4 00000794 00000001     A    5091 5518M 5532  5591M 5621M 5621
 GCTOOBIG      2 00000272 00000001     H    5683 5601B
 GETCMD        4 00000114 00000001     I    5469 5467
 GLBRANCH      1 00000000 00000000 A   T    4516 4516
 GMBRANCH      1 00000000 00000000 A   T    4612 4612
 GVT           1 00000000 00000000 A   T    4378 4378
 HIBAL         1 00000000 FFFFFFFF     J     692  708   721   734   747   760   773   786   799   812   825   838   851
                                                  864   877   890   903
 IARMPVT       1 00000000 00000000 A   T    4253 4253
 IARMRRCE      1 00000000 00000000 A   T    4798 4798
 IARPIBR       1 00000000 00000000 A   T    4768 4768
 IARPSIV       1 00000000 00000000 A   T    4592 4592
 IARPSXM       1 00000000 00000000 A   T    4741 4741
 IARXKEY       1 00000000 00000000 A   T    4699 4699
 IARXVIO       1 00000000 00000000 A   T    4593 4593
 ICYMMVTC      1 00000000 00000000 A   T    5024 5024
 IDA121CV      1 00000000 00000000 A   T    4531 4531
 IEABEND       1 00000000 00000000 A   T    4115 4115
 IEADQIQE      1 00000000 00000000 A   T    4511 4511
 IEAECVT       1 00000000 00000000 A   T    4040 4040
 IEAGSMQ       1 00000000 00000000 A   T    4488 4488
 IEAIHASU      1 00000000 00000000 A   T    4728 4728
 IEALSMQ       1 00000000 00000000 A   T    4490 4490
 IEAMASCB      1 00000000 00000000 A   T    4458 4458  4462
 IEAPATCH      1 00000000 00000000 A   T    4123 4123
 IEAPDSRT      1 00000000 00000000 A   T    4386 4386
 IEAPTRV       1 00000000 00000000 A   T    4202 4202
 IEAQCDSR      1 00000000 00000000 A   T    4106 4106
 IEAQCS01      1 00000000 00000000 A   T    4498 4498
 IEAQLPAQ      1 00000000 00000000 A   T    4107 4107
 IEAQTD00      1 00000000 00000000 A   T    4003 4003
 IEAQTE00      1 00000000 00000000 A   T    4001 4001
 IEARPOST      1 00000000 00000000 A   T    4513 4513
 IEASMFEX      1 00000000 00000000 A   T    4390 4390
 IEASMFSP      1 00000000 00000000 A   T    4736 4736
 IEASPOST      1 00000000 00000000 A   T    4533 4533
 IEASVDCB      1 00000000 00000000 A   T    3994 3994
1VMSC     (VMSC00) (09:48) (22MAR04) Ordinary Symbol and Literal Cross Reference                                            Page   67
 IEATCBP       1 00000000 00000000 A   T    3944 3944
 IEATPC        1 00000000 00000000 A   T    3996 3996
 IEATRSCN      1 00000000 00000000 A   T    4354 4354
 IEAVAR02      1 00000000 00000000 A   T    4438 4438
 IEAVBLDP      1 00000000 00000000 A   T    4422 4422
 IEAVDELP      1 00000000 00000000 A   T    4425 4425
 IEAVEAC0      1 00000000 00000000 A   T    4515 4515
 IEAVEADV      1 00000000 00000000 A   T    4673 4673
 IEAVEDR1      1 00000000 00000000 A   T    4558 4558
 IEAVELRM      1 00000000 00000000 A   T    4507 4507
 IEAVENLU      1 00000000 00000000 A   T    4854 4854
 IEAVENQ2      1 00000000 00000000 A   T    4504 4504
 IEAVEQV1      1 00000000 00000000 A   T    4661 4661
 IEAVEQV2      1 00000000 00000000 A   T    4664 4664
 IEAVEQV3      1 00000000 00000000 A   T    4667 4667
 IEAVERI1      1 00000000 00000000 A   T    4560 4560
 IEAVERP1      1 00000000 00000000 A   T    4562 4562
 IEAVERX1      1 00000000 00000000 A   T    4750 4750
 IEAVESC1      1 00000000 00000000 A   T    4689 4689
 IEAVESPR      1 00000000 00000000 A   T    4618 4618
 IEAVESTU      1 00000000 00000000 A   T    4852 4852
 IEAVESVT      1 00000000 00000000 A   T    4624 4624
 IEAVET6E      1 00000000 00000000 A   T    4724 4724
 IEAVEVT2      1 00000000 00000000 A   T    4678 4678
 IEAVEXPR      1 00000000 00000000 A   T    4486 4486
 IEAVEXP1      1 00000000 00000000 A   T    4655 4655
 IEAVFRCL      1 00000000 00000000 A   T    4424 4424
 IEAVGSDA      1 00000000 00000000 A   T    4669 4669
 IEAVGTCL      1 00000000 00000000 A   T    4423 4423
 IEAVGWSA      1 00000000 00000000 A   T    4518 4518
 IEAVLKRM      1 00000000 00000000 A   T    4225 4225
 IEAVMFRM      1 00000000 00000000 A   T    4603 4603
 IEAVMSGS      1 00000000 00000000 A   T    4172 4172
 IEAVNVT0      1 00000000 00000000 A   T    4837 4837
 IEAVRSUH      1 00000000 00000000 A   T    4716 4716
 IEAVRT03      1 00000000 00000000 A   T    4330 4330
 IEAVSPND      1 00000000 00000000 A   T    4726 4726
 IEAVSTAG      1 00000000 00000000 A   T    4466 4466
 IEAVTCTL      1 00000000 00000000 A   T    4718 4718
 IEAVTEST      1 00000000 00000000 A   T    4229 4229
 IEAVTRGR      1 00000000 00000000 A   T    4526 4526
 IEAVTRG1      1 00000000 00000000 A   T    3975 3975
 IEAVTRV3      1 00000000 00000000 A   T    4222 4222
 IEAVTSBP      1 00000000 00000000 A   T    4472 4472
 IEAVTSFR      1 00000000 00000000 A   T    4193 4193
 IEAVTSGL      1 00000000 00000000 A   T    4470 4470
 IEAVVMSR      1 00000000 00000000 A   T    4251 4251
 IEAVWAIT      1 00000000 00000000 A   T    4493 4493
 IEAVWSAC      1 00000000 00000000 A   T    4524 4524
 IEAVWSAG      1 00000000 00000000 A   T    4522 4522
 IEAVWSAL      1 00000000 00000000 A   T    4520 4520
 IEAVXEXT      1 00000000 00000000 A   T    4601 4601
 IEAVXSFT      1 00000000 00000000 A   T    4568 4568
 IEAVXSTN      1 00000000 00000000 A   T    4574 4574
 IEAVXSTS      1 00000000 00000000 A   T    4572 4572
 IEAVXUNN      1 00000000 00000000 A   T    4597 4597
 IEAVXUNS      1 00000000 00000000 A   T    4576 4576
 IEAWTCB       1 00000000 00000000 A   T    4633 4633
 IEA0DS        1 00000000 00000000 A   T    4039 4039
1VMSC     (VMSC00) (09:48) (22MAR04) Ordinary Symbol and Literal Cross Reference                                            Page   68
 IEA0EF00      1 00000000 00000000 A   T    3945 3945
 IEA0EF01      1 00000000 00000000 A   T    3985 3985
 IEA0PT0E      1 00000000 00000000 A   T    4705 4705
 IEA0PT01      1 00000000 00000000 A   T    4046 4046
 IEA0PT02      1 00000000 00000000 A   T    4630 4630
 IEA0PT03      1 00000000 00000000 A   T    4707 4707
 IEA0VL00      1 00000000 00000000 A   T    3956 3956
 IEA0VL01      1 00000000 00000000 A   T    4363 4363
 IECIXAVL      1 00000000 00000000 A   T    4031 4031
 IECPCNVT      1 00000000 00000000 A   T    3959 3959
 IECPRLTV      1 00000000 00000000 A   T    3963 3963
 IECVEXCL      1 00000000 00000000 A   T    4595 4595
 IECXAPG       1 00000000 00000000 A   T    3954 3954
 IECXITP       1 00000000 00000000 A   T    3984 3984
 IECXTLER      1 00000000 00000000 A   T    3970 3970
 IEC0SCR1      1 00000000 00000000 A   T    4129 4129
 IEECUCB       1 00000000 00000000 A   T    4000 4000
 IEEMSER       1 00000000 00000000 A   T    3978 3978  4044
 IEEVEXSN      1 00000000 00000000 A   T    4333 4333
 IEEVSTOP      1 00000000 00000000 A   T    4643 4643
 IEFAQTOP      1 00000000 00000000 A   T    4450 4450
 IEFAUSDM      1 00000000 00000000 A   T    3950 3950
 IEFENFDM      1 00000000 00000000 A   T    4109 4109
 IEFJESCT      1 00000000 00000000 A   T    4209 4209
 IEFLINK       1 00000000 00000000 A   T    3947 3947
 IEFQMWR       1 00000000 00000000 A   T    4060 4060
 IEWFBOSV      1 00000000 00000000 A   T    4037 4037
 IEWMSEPT      1 00000000 00000000 A   T    4542 4542
 IFBDCB        1 00000000 00000000 A   T    4026 4026
 IFDOLT0A      1 00000000 00000000 A   T    4388 4388
 IFGDEBVR      1 00000000 00000000 A   T    5019 5019
 IGC043BR      1 00000000 00000000 A   T    4434 4434
 IGC044R2      1 00000000 00000000 A   T    4544 4544
 IGC062R1      1 00000000 00000000 A   T    4514 4514
 IGC07903      1 00000000 00000000 A   T    4659 4659
 IGC124        1 00000000 00000000 A   T    4675 4675
 IGFRVT        1 00000000 00000000 A   T    4124 4124
 IGVCPBDB      1 00000000 00000000 A   T    4790 4790
 IGVCPDLB      1 00000000 00000000 A   T    4792 4792
 IGVCPFRE      1 00000000 00000000 A   T    4782 4782
 IGVCPGTC      1 00000000 00000000 A   T    4780 4780
 IGVCPGUB      1 00000000 00000000 A   T    4774 4774
 IGVCPGUP      1 00000000 00000000 A   T    4777 4777
 IGVCPGUS      1 00000000 00000000 A   T    4800 4800
 IGVGCAS       1 00000000 00000000 A   T    4428 4428
 IGVGFAS       1 00000000 00000000 A   T    4432 4432
 IGVGRRGN      1 00000000 00000000 A   T    4804 4804
 IGVGVRGN      1 00000000 00000000 A   T    4806 4806
 IGVQSPET      1 00000000 00000000 A   T    4430 4430
 IGVSLIST      1 00000000 00000000 A   T    4784 4784
 IGVSLOC       1 00000000 00000000 A   T    4788 4788
 IGVSREGN      1 00000000 00000000 A   T    4786 4786
 IGVSTSKI      1 00000000 00000000 A   T    4771 4771
 IHADCB        1 00000000 FFFFFFED     J    1192 1272  1322  1397  1524  1529  1544  1550  1559  1659  1662  1667  1692
                                                 1710  1711  1715  1751  1752  5510  5926  5928M 6222  6258  6322U
 IHB0410       2 0000025C 00000001     H    5653 5632B 5639B
 IHB0484       2 000003AC 00000001     H    5859 5838B 5845B
 ILRJTERM      1 00000000 00000000 A   T    4713 4713
 INPUT         4 00000798 00000001     F    5098 5508  5510  5514  5587  5626  5630
1VMSC     (VMSC00) (09:48) (22MAR04) Ordinary Symbol and Literal Cross Reference                                            Page   69
 IOSVDEVN      1 00000000 00000000 A   T    4730 4730
 IOSVHID       1 00000000 00000000 A   T    4740 4740
 IOSVSUCB      1 00000000 00000000 A   T    4743 4743
 IRARMCNS      1 00000000 00000000 A   T    4484 4484
 IRARMEPS      1 00000000 00000000 A   T    4702 4702
 IRARMI00      1 00000000 00000000 A   T    4441 4441
 ISNBRNCH      1 00000000 00000000 A   T    4599 4599
 OPEXIT        2 000005DC 00000001     H    6325 6305  6313U
 OPEXITL       4 000005D8 00000001     A    6305 5225
 PDMPBUF       9 00000AC8 00000001     C    5143 5406
 PR            6 00000006 00000001 A   #    1072 5538M 5600  5604M 5609M 5610  5734M 5735M
 PRCBYE        2 000000D4 00000001     I    5429 5452B
 PRCFORM       4 0000005C 00000001     I    5343 5364B
 PRCFORMX      4 00000082 00000001     I    5372 5393B
 PRCGO         6 0000003C 00000001     I    5311 5307B 5454B
 PRCLOOP       6 00000032 00000001     I    5309 5426B
 PRCORE        4 00000016 00000001     I    5285 5283
 PRCPREV       1 00000B56 00000001     X    5151 5309  5311M 5394  5453
 PRCRLOOP      4 000000F0 00000001     I    5447 5455B
 PRCRPT        4 000000DC 00000001     I    5437 5310B
 PRYNTER       4 00000D00 00000001     F    5211 5832  5836  5926  5928M 6222  6256  6258  6288
 QR            4 00000004 00000001 A   #    1046 5337M 5364M 5366M 5393M 5929M 6004M 6005M 6007  6024M 6025M 6027
 RAR           9 00000009 00000001 A   #    1111 5285  5287  5287  5287  5416M 5417M 5417B 5420M 5421M 5421B 5430M 5441M
                                                 5442M 5442B 5445M 5446M 5446B 5548M 5549M 5549B 5569M 5570M 5570B 5579M
                                                 5580M 5580B 5583M 5584M 5584B 5826M 5827M 5827B 5870M 5877M 5881M 5882M
                                                 5882B 5905M 5906M 5906B 5931M 5963  5964  5964  5964  6085M 6086B 6178B
                                                 6187B 6647  6647  6647
 RMBRANCH      1 00000000 00000000 A   T    4609 4609
 R0            0 00000000 FFFFFFFF A   #     700 5304M 5305  5532M 5533M 5533  5535  5610M 5612M 5612  5678M 5679M 5679
                                                 5692  5694  5694  5694  5712  5745M 5755  5757  5757  5757  5775  5888M
                                                 5957M 6202  6204  6204  6204  6298M 6439  6482  6551  6552M 6553M 6554M
 R1            1 00000001 FFFFFFFF A   #     713 5306  5518  5535M 5540  5591  5611M 5818  5871  5883  5888  5889M 5929
                                                 5944M 5992  6322U 6450U 6482M 6572U
 R11          11 0000000B FFFFFFFF A   #     843 6355  6355  6355  6403  6493M 6508  6627M
 R14          14 0000000E FFFFFFFF A   #     882 5755  5757  5757  5757  5957M 6202  6204  6204  6204  6298M 6329B 6331B
                                                 6612M
 R15          15 0000000F FFFFFFFF A   #     895 5303  5304  5469  5471  5471  5471  5616M 5692  5694  5694  5694  5745M
                                                 5871M 5883M 6012  6276M 6294M 6294  6313U 6545M 6545  6552  6587M 6597U
                                                 6603M 6612B 6618M
 R2            2 00000002 FFFFFFFF A   #     726 6508  6562M 6578M 6627M
 SDD           2 00000D80 00000001     R    5262 5260  5943M
 SDYNBLK       1 00000D60 00000001     X    5251 5944
 SDYNPRM       1 00000D64 00000001     R    5252 5251
 SEGB        132 00000C7B 00000001     C    5189 6088
 SEGBUF      137 00000C76 00000001     C    5186 5189  5714  5734  5805  6289
 SEGCC         1 00000C7A 00000001     C    5188 5818M 5911M 5916M 5921M
 SEGFCLOS    128 00000CFF 00000001         5196 5865M 6243  6275M
 SEGFJNAM     64 00000CFF 00000001         5201 6041
 SEGFLAGS      1 00000CFF 00000001     R    5192 5196  5201
 SEGLEN        2 00000C76 00000001     R    5187 5715  5735  5737  5738M 5793  5813M 5872M 5965  6293M
 SEGMVC        6 000002F0 00000001     I    5748 5741X
 SEGX          2 000002E8 00000001     I    5744 5713B 5716B
 SOUT          2 00000D8E 00000001     R    5263 5261
 SR            2 00000002 00000001 A   #    1020 5285  5287  5287  5287  5336M 5362M 5365M 5391M 5422M 5423M 5424  5425
                                                 5430M 5447M 5448  5449M 5450  5451  5469  5471  5471  5471  5540M 5616M
                                                 5714M 5715M 5717M 5729  5736M 5737M 5738  5775M 5778B 5793M 5796M 5798
                                                 5963  5964  5964  5964  5965M 5966M 5968  5980M 5986  5987M 5988  5990
                                                 5992M 6012M 6047M 6057U 6063M 6072M 6073M 6085M 6117M 6118M 6119M 6127U
                                                 6129M 6140U 6142M 6153U 6180M 6180  6326M 6327M 6328  6330  6355  6355
1VMSC     (VMSC00) (09:48) (22MAR04) Ordinary Symbol and Literal Cross Reference                                            Page   70
                                                 6355  6403  6461M 6477  6493M 6647  6647  6647
 STARBAL       2 0000002E FFFFFFDD     H    6377 6561M 6561  6562  6618
 STARDL        2 00000032 FFFFFFDD     H    6381 6553
 STARKL        1 00000031 FFFFFFDD     X    6380 6554
 STARR         1 00000030 FFFFFFDD     X    6379 6440M
 STARRKDD      4 00000030 FFFFFFDD     F    6378 6439M 6551M
 STXTS         4 00000D78 00000001     A    5260 5257
 S99NOMNT      1 00000020 FFFFFFEB A   U    1998 5254
 S99VRBAL      1 00000001 FFFFFFEB A   U    1982 5253
 TCB           1 00000020 FFFFFFE3     U    2992 3691  6127U
 TCBAE         4 000000BC FFFFFFE3     A    3236 3239
 TCBDARPN      1 00000040 FFFFFFE3 A   U    3282 3284
 TCBDARTN      1 00000080 FFFFFFE3 A   U    3279 3281
 TCBFIX        1 00000000 FFFFFFE3     J    2980 2987
 TCBMNLEN      1 00000158 FFFFFFE3 A   U    3691 3736
 TCBPXLEN      1 00000020 FFFFFFE3 A   U    2987 3736
 TCBRD         4 000000B8 FFFFFFE3     A    3231 3235
 TCBTIO        4 0000002C FFFFFFE3     A    3000 6129
 TCBXTNT2      1 00000000 FFFFFFE2     J    3696 3734
 TCBX2LEN      1 00000020 FFFFFFE2 A   U    3734 3736
 TIOEDDNM      8 0000001C FFFFFFE5     C    2766 6177
 TIOELNGH      1 00000018 FFFFFFE5     G    2723 6142  6153U 6171  6179
 TIOT          1 00000000 FFFFFFE5     J    2594 6140U
 TR            3 00000003 00000001 A   #    1033 5306M 5363M 5392M 5448M 5712M 5717  5729M 5736  5739M 5741  5990M 6158M
                                                 6158  6179M 6180
 TRKLIST      12 00000028 FFFFFFDD     C    6358 6438M 6438  6476
 TRKWRK       52 00000000 FFFFFFDD     J    6388 6405  6430U 6510  6535U
 VCNBLANK      2 000003D4 00000001     H    5887 5783B
 VCNBTBL       4 00000304 00000001     I    5778 5778B
 VCNCLOSE      2 0000034C 00000001     H    5822 5782B
 VCNDDNAM      2 000003FC 00000001     H    5925 5787B
 VCNEXIT       2 00000424 00000001     I    5956 5814B 5819B 5866B 5873B 5884B 5907B 5912B 5917B 5922B 5927B 5952B
 VCNPAGE       2 000003F4 00000001     H    5920 5786B
 VCNRETBF      2 00000330 00000001     H    5792 5788B
 VCNSETCC      2 00000344 00000001     H    5817 5781B
 VCNSKIP1      2 000003E4 00000001     H    5910 5784B
 VCNSKIP2      2 000003EC 00000001     H    5915 5785B
 VCNTRL        4 000002F6 00000001     I    5755 5753
 VCNWTO        2 000003B4 00000001     H    5869 5779B
 VCNWTOWR      2 000003C4 00000001     H    5876 5780B
 VMSC          1 00000000 00000001     J     994  996  1028  1041  1054  1067  1080  1093  1106  1119  5076  5268  5272
                                                 5811  6389
 VMSC00        1 00000000 00000001     R    1003 1001
 VSEG          4 000002AA 00000001     I    5692 5690
 VSEG          1 00000000 00000003     T    6634 6634
 VWERROR       4 000005AE 00000001     I    6276 6246B
 VWEXIT        2 000005CE 00000001     I    6297 6277B
 VWRITE        4 0000057C 00000001     I    6202 6200
 VWRITE        1 00000000 00000004     T    6635 6635
 WAR           8 00000008 00000001 A   #    1098 6430U 6535U
 WTOBUFF       2 000004C0 00000001     H    6090 5987  5990  6081
 WTOCODES      4 00000540 00000001     U    6100 5991
 WTODESC       2 00000540 00000001     H    6098 6100  6100
 WTOFLAGS      2 000004C2 00000001     H    6092 5989M
 WTOJNAME      8 000004C8 00000001     C    6094 6074M
 WTOLEN        2 000004C0 00000001     H    6091 5988M
 WTOMLEN       1 0000006B 00000001 A   U    6096 6097
 WTOMSG      107 000004D5 00000001     C    6097 5980  5987  6088M 6645
 WTOMVC        6 000004BA 00000001     I    6088 5986X
1VMSC     (VMSC00) (09:48) (22MAR04) Ordinary Symbol and Literal Cross Reference                                            Page   71
 WTOSTAR1      4 000004C4 00000001     C    6093 6096
 =A(GCBUF+L'GCBUF-71)
               4 000006CC 00000001     A    6636 5600
 =A(GCBUF)
               4 000006D0 00000001     A    6637 5609
 =AL2(L'WTOMSG-1)
               2 00000788 00000001     R    6645 5968
 =C'          **** REPEAT LINE(S) ****'
              34 00000760 00000001     C    6641 5437
 =C'<-'        2 00000784 00000001     C    6643 5575
 =C'->'        2 00000782 00000001     C    6642 5544
 =CL132' '
             132 000006D4 00000001     C    6638 5889
 =CL72' '     72 00000678 00000001     C    6632 5537  5603
 =H'6'         2 00000786 00000001     H    6644 5966
 =V(BTX)       4 000006C0 00000001     V    6633 5334  5360  5389
 =V(VSEG)      4 000006C4 00000001     V    6634 5416  5441  5548  5569  5579  5905
 =V(VWRITE)
               4 000006C8 00000001     V    6635 5420  5445  5583  5826  5881
 =X'00010000'
               4 0000075C 00000001     X    6640 6004  6024
 =X'0005000040'
               5 0000078E 00000001     X    6648 5813  5872  6293
 =X'04004000'
               4 00000758 00000001     X    6639 5991
 =X'8000'      2 0000078A 00000001     X    6646 5989
 =Y((RAR+1-(SR)+16*((SR)/(RAR+1))/((SR)/(RAR+1)))*4)
               2 0000078C 00000001     Y    6647 6084

1VMSC     (VMSC00) (09:48) (22MAR04) Macro and Copy Code Source Summary                                                     Page   72
- Con Source                                        Volume    Members                        HLASM R4.0  2004/03/22 09.48
0     PRIMARY INPUT                                           CSECT    DROP     END      ERROR    EX       LTORG    POP
                                                              PRINT    PUSH     START    USING
   L2 WYL.GG.SYS.MACLIB                             SYSB05    $BC      $BFLKUP  $BV      $CCLKUP  $L       $LA
                                                              $LBLAD   $LEXP    $LOR     $REL     $RGLKUP  $USLKUP  BASE
                                                              BEGIN    CLEAR    CSECT    DATA     DEFCC    DEX      DROP
                                                              END      EX       FLAG     GEN      HIBAL    IDENT    IF
                                                              LABEL    LC       LCALL    LS       LT       LTORG    POP
                                                              PRINT    PUSH     RECORD   REG      REGS     SET
                                                              START    ST2      SYSLR    SYSQS    USING    VCALL
                                                              WHILE    WITH
   L3 WYL.GG.ORV.BC.MACLIB                          SYSB02    BTX      ORVDEFN  VCNTL    VENTER   VEXIT    VPOP
                                                              VPUSH    VREST    VSA      VSAVE    VSEG     VWRITE
                                                              XCALL
   L4 SYS3.IS.MACLIB                                SYSB05    DVTAREA  SYSDEFN
   L5 SYS1.MACLIB                                   MVSBR9    CLOSE    CVT      DCB      DCBD     DYNALLOC FREEPOOL GET
                                                              IEFSJDKY IEFTIOT1 IEFZB4D0 IEFZB4D2 IHBINNRA IHB01
                                                              IKJTCB   OPEN     PUT      TRKCALC  WTO

1         (VMSC00) (09:48) (22MAR04) General Purpose Register Cross Reference                                               Page   73
- Register  References (M=modified, B=branch, U=USING, D=DROP, N=index)                      HLASM R4.0  2004/03/22 09.48
0    0(0)     983U  984D 5304M 5305  5324M 5350M 5379M 5413M 5438M 5532M 5533M 5533  5535  5545M 5566M 5576M 5610M 5612M
             5612  5645M 5650M 5678M 5679M 5679  5692  5712  5745M 5755  5775  5851M 5856M 5888M 5957M 6202  6289M 6298M
             6439  6482  6551  6552M 6553M 6554M
     1(1)     979U 5306  5331M 5357M 5386M 5406M 5437M 5506M 5514M 5516  5518  5535M 5540  5544M 5559M 5575M 5587M 5589
             5591  5611M 5624M 5630M 5631  5634  5640  5642M 5642  5643M 5645M 5646M 5646  5649M 5649  5650  5651M 5692
             5745M 5755  5818  5830M 5836M 5837  5840  5846  5848M 5848  5849M 5851M 5852M 5852  5855M 5855  5856  5857M
             5871  5883  5888  5889M 5929  5944M 5957M 5992  6081M 6202  6254M 6288M 6291  6298M 6322U 6337U 6450U 6469U
             6476M 6477  6478  6482M 6572U 6585U
     2(2)     975U 5285  5336M 5362M 5365M 5391M 5422M 5423M 5424  5425  5430M 5447M 5448  5449M 5450  5451  5469  5540M
             5616M 5692  5714M 5715M 5717M 5729  5736M 5737M 5738  5745M 5755  5775M 5778N 5793M 5796M 5798  5957M 5963
             5965M 5966M 5968  5980M 5986  5987M 5988  5990N 5992M 6012M 6047M 6063M 6072M 6073M 6085M 6117M 6118M 6119M
             6129M 6142M 6180M 6180  6194U 6202  6298M 6326M 6327M 6328  6330  6403  6458D 6460M 6460  6461M 6477  6493M
             6508  6562M 6578M 6627M
     3(3)     971U 5285  5306M 5363M 5392M 5430M 5448M 5469  5616M 5692  5712M 5717  5729M 5736  5739M 5741  5745M 5755
             5957M 5963  5990M 6085M 6158M 6158  6179M 6180N 6202  6298M 6403  6493M 6508  6627M
     4(4)     967U 5285  5337M 5364M 5366M 5393M 5430M 5469  5616M 5692  5745M 5755  5929M 5957M 5963  6004M 6005M 6024M
             6025M 6085M 6202  6298M 6403  6493M 6508  6627M
     5(5)     963U 5285  5430M 5469  5616M 5692  5745M 5755  5957M 5963  6085M 6202  6298M 6403  6493M 6508  6627M
     6(6)     959U 5285  5430M 5469  5538M 5600  5604M 5609M 5610  5616M 5692  5734M 5735M 5745M 5755  5957M 5963  6085M
             6202  6298M 6403  6493M 6508  6627M
     7(7)     955U 5285  5290M 5300U 5430M 5469  5474M 5484U 5487U 5616M 5692  5697M 5707U 5710U 5745M 5755  5760M 5770U
             5773U 5957M 5963  6085M 6202  6207M 6217U 6220U 6298M 6403  6408M 6418U 6421U 6493M 6508  6513M 6523U 6526U
             6627M
     8(8)     951U 5285  5286M 5429  5430M 5469  5470M 5615  5616M 5692  5693M 5744  5745M 5755  5756M 5956  5957M 5963
             6085M 6202  6203M 6297  6298M 6403  6404M 6430U 6488U 6492  6493M 6508  6509M 6535U 6626  6627M
     9(9)     947U 5285  5416M 5417M 5417B 5420M 5421M 5421B 5430M 5431B 5441M 5442M 5442B 5445M 5446M 5446B 5469  5548M
             5549M 5549B 5569M 5570M 5570B 5579M 5580M 5580B 5583M 5584M 5584B 5616M 5617B 5692  5745M 5746B 5755  5826M
             5827M 5827B 5870M 5877M 5881M 5882M 5882B 5905M 5906M 5906B 5931M 5957M 5958B 5963  6085M 6086B 6178B 6187B
             6202  6298M 6300B 6403  6493M 6494B 6508  6627M 6628B
    10(A)     943U 5469  5616M 5692  5745M 5755  5957M 6202  6298M 6403  6493M 6508  6627M
    11(B)     939U 4352B 4353B 5469  5616M 5692  5745M 5755  5957M 6202  6298M 6403  6493M 6508  6627M
    12(C)     935U 5469  5616M 5692  5745M 5755  5957M 6202  6298M
    13(D)     931U 5285  5286  5287M 5287  5429M 5430  5469  5469  5470  5471M 5471  5615M 5616M 5616  5692  5692  5693
             5694M 5694  5744M 5745M 5745  5755  5755  5756  5757M 5757  5956M 5957M 5957  5963  5964M 5964  6084M 6085
             6202  6202  6203  6204M 6204  6297M 6298M 6298  6403  6404  6405M 6405  6492M 6493  6508  6509  6510M 6510
             6626M 6627
    14(E)     927U 5334M 5335M 5335B 5360M 5361M 5361B 5389M 5390M 5390B 5469  5517M 5590M 5616M 5635M 5636M 5636  5641M
             5641  5644M 5645  5692  5745M 5755  5841M 5842M 5842  5847M 5847  5850M 5851  5957M 6202  6292M 6298M 6329B
             6331B 6481M 6612M
    15(F)     923U 4814M 4814  5303  5304  5317M 5343M 5372M 5469  5515M 5515  5516M 5517B 5588M 5588  5589M 5590B 5616M
             5633M 5633  5634M 5635  5638  5643  5644  5647  5651  5692  5745M 5839M 5839  5840M 5841  5844  5849  5850
             5853  5857  5871M 5883M 6012  6276M 6290M 6290  6291M 6292B 6294M 6294  6299M 6299  6313U 6343U 6479M 6480M
             6480  6481  6545M 6545  6552  6587M 6597U 6603M 6610U 6612B 6615D 6617M 6617  6618M 6619U

1VMSC     (VMSC00) (09:48) (22MAR04) Diagnostic Cross Reference and Assembler Summary                                       Page   74
-                                                                                            HLASM R4.0  2004/03/22 09.48
0     No Statements Flagged in this Assembly
 HIGH LEVEL ASSEMBLER, 5696-234, RELEASE 4.0, PTF UQ57391
0SYSTEM: OS/390 02.10.00            JOBNAME: PJG#VMSC    STEPNAME: ASM        PROCSTEP: (NOPROC)
0Datasets Allocated for this Assembly
  Con DDname   Dataset Name                                 Volume  Member
   P1 SYSIN    SYS04082.T094843.RA000.PJG#VMSC.INPUT.H01    SCR101
   L1 SYSLIB   SYS3.DUMMYMAC                                SYSB02
   L2          WYL.GG.SYS.MACLIB                            SYSB05
   L3          WYL.GG.ORV.BC.MACLIB                         SYSB02
   L4          SYS3.IS.MACLIB                               SYSB05
   L5          SYS1.MACLIB                                  MVSBR9
      SYSLIN   WYL.GG.PJG.OBJ                               SYSB05  VMSC
      SYSPRINT SYS04082.T094843.RA000.PJG#VMSC.PRINT.H01    SCR101
      SYSTERM  GG$PJG.PJG#VMSC.JOB05995.D0000103.?

    7812K allocated to Buffer Pool,         2513K would be required for this to be an In-Storage Assembly
     523 Primary Input Records Read        16347 Library Records Read                  0 Work File Reads
       0 ASMAOPT Records Read               3861 Primary Print Records Written         0 Work File Writes
      60 Punch Records Written                 0 ADATA Records Written
0Assembly Start Time: 09.48.45 Stop Time: 09.48.53 Processor Time: 00.00.01.2191
 Return Code 000
