1                        J E S 2  J O B  L O G  --  S Y S T E M  S Y S B  --  N O D E  R L G
0
 09.38.46 JOB05930 ---- MONDAY,    22 MAR 2004 ----
 09.38.46 JOB05930  ICH70001I GG$PJG   LAST ACCESS AT 09:38:27 ON MONDAY, MARCH 22, 2004
 09.38.46 JOB05930  $HASP373 PJG#FCSH STARTED - INIT 3    - CLASS E - SYS SYSB
 09.38.46 JOB05930  ***  HCMD      STEP $$QUIET
 09.38.46 JOB05930  PURGE * Q=OUTPUT MULTIPLE
 09.38.46 JOB05930  JOB PJG#FCSH NOT IN OUTPUT QUEUE
 09.38.47 JOB05930  PJG#FCSH.$$QUIET .         RC=0008 TapeIO=0000 DiskIO=0000 CPU=  .01s Elapsed=26.62s
 09.38.47 JOB05930  PJG#FCSH.$CND    .         RC=Zero TapeIO=0000 DiskIO=0002 CPU=  .01s Elapsed=27.66s
 09.38.48 JOB05930  PJG#FCSH.$UNP    .         RC=Zero TapeIO=0000 DiskIO=0014 CPU=  .05s Elapsed=27.82s
 09.38.52 JOB05930  PJG#FCSH.ASM     .         RC=Zero TapeIO=0000 DiskIO=0296 CPU= 1.59s Elapsed=28.21s
 09.38.53 JOB05930  PJG#FCSH.$EDIT   .         RC=Zero TapeIO=0000 DiskIO=0081 CPU=  .33s Elapsed=32.22s
 09.38.53 JOB05930  PJG#FCSH Ended.  Name=Module: FILCACHE               Total CPU= 1.99s Elapsed=26.62s
 09.38.53 JOB05930
 09.38.53 JOB05930  Execution charges   Priority=Standard   Block=Day
 09.38.53 JOB05930
 09.38.53 JOB05930  CPU Usage          36.37          $22.54   Standard Processing Unit Equivalent
 09.38.53 JOB05930                                   =======
 09.38.53 JOB05930                                    $22.54   Total Job execution charge
 09.38.53 JOB05930
 09.38.53 JOB05930  See back separator page for print charges
 09.38.53 JOB05930
 09.38.53 JOB05930  $HASP395 PJG#FCSH ENDED  ASM=0
1        1 //PJG#FCSH JOB PJG$GG,'Module: FILCACHE',TIME=1,MSGCLASS=C              JOB05930
           /*JOBPARM HOLD=OUTPUT,LINES=50,CHARS=TN15,NOTIFY=YES
         2 //       EXEC PURGEOLD
         3 XXPURGEOLD PROC
           XX*
           XX* This proc is maintained by Jim Stosick
           XX*
         4 XX$$QUIET  EXEC PGM=HCMDX,PARM='PURGE * Q=OUTPUT MULTIPLE',
           XX         ACCT=(PURGEOLD,SYS3)
         5 //$CND   EXEC PGM=BILBO,REGION=512K,PARM='RECS=100'
         6 //STEPLIB  DD DSN=WYL.GG.ORV.LINKLIB,DISP=SHR
         7 //SYSPRINT DD SYSOUT=$
         8 //SYSUT1   DD DSN=WYL.GG.PJG.OBJ,DISP=OLD
         9 //SYSUT2   DD DSN=WYL.GG.PJG.OBJ,DISP=OLD
        10 //SYSIN    DD DUMMY
        11 //$UNP   EXEC PGM=WUNPRESS,PARM='NUM'
        12 //SYSPRINT DD SYSOUT=$
        13 //SYSUT1   DD DSN=WYL.GG.ORV.SOURCE(FILCACHE),DISP=SHR
        14 //SYSUT2   DD DSN=&&INPUT,DISP=(,PASS),UNIT=SYSDA,
           //            SPACE=(TRK,(25,25),RLSE),DCB=CARD
        15 //ASM    EXEC PGM=ASMA90,REGION=8M,COND=(0,NE,$UNP),
           //            PARM=('SYSPARM(FILCACHE),TERM,LANG(EN),OBJ',
           //          'LC(32500),XREF(SHORT),NODECK,NORLD,NODX,NOUS')
           //*STEPLIB  DD DSN=SYS1.SASMMOD1,DISP=SHR
        16 //SYSLIB   DD DSN=SYS3.DUMMYMAC,DISP=SHR,DCB=BLKSIZE=27920
        17 //         DD DSN=WYL.GG.ORV.MACLIB,DISP=SHR
        18 //         DD DSN=WYL.GG.SYS.MACLIB,DISP=SHR
        19 //SYSUT1   DD DSN=&&SYSUT1,UNIT=VIO,DISP=(,DELETE),
           //            SPACE=(4088,(500,250),,CONTIG,ROUND)
        20 //SYSTERM  DD SYSOUT=$
        21 //SYSPRINT DD DSN=&&PRINT,UNIT=SYSDA,DISP=(,PASS),
           //            SPACE=(6650,(250,250),RLSE),
           //            DCB=(BLKSIZE=6650,LRECL=133,RECFM=FB)
        22 //SYSLIN   DD DSN=WYL.GG.PJG.OBJ(FILCACHE),DISP=OLD
        23 //SYSUDUMP DD SYSOUT=A
        24 //SYSIN    DD DSN=&&INPUT,DISP=(OLD,DELETE)
        25 //$EDIT  EXEC PGM=ASMEDIT,REGION=1M,
           //            COND=EVEN,PARM='STMT,DATA'
        26 //STEPLIB  DD DSN=WYL.GG.SYS.LINKLIB,DISP=SHR
        27 //ASMOUT   DD DSN=&&PRINT,DISP=(OLD,DELETE)
        28 //SYSPRINT DD SYSOUT=A
        29 //SYSUDUMP DD SYSOUT=A
1 STMT NO. MESSAGE
         2 IEFC001I PROCEDURE PURGEOLD WAS EXPANDED USING SYSTEM LIBRARY SYS3.BETAPROC
        14 IGD01010I STORCLAS= TEMP STORGROUP =
        14 IGD01010I STORGRP=VIO ASSIGNED.
        19 IGD01010I STORCLAS= TEMP STORGROUP =
        19 IGD01010I STORGRP=VIO ASSIGNED.
        21 IGD01010I STORCLAS= TEMP STORGROUP =
        21 IGD01010I STORGRP=VIO ASSIGNED.
 ICH70001I GG$PJG   LAST ACCESS AT 09:38:27 ON MONDAY, MARCH 22, 2004
 IEF142I PJG#FCSH $$QUIET - STEP WAS EXECUTED - COND CODE 0008
 *********************************************************************************
 *   PJG#FCSH/$$QUIET /                    Return Code      0008                 *
 *   Region used      260K (16K user + 244K system)                              *
 *   Extended region  9352K (4K user + 9348K system)                             *
 *                                                                               *
 *   Paging              In      Out                                             *
 *   Private <-> Aux      0        0       CPU time (TCB)   00:00:00.01          *
 *   Private <-> Exp      0        0       CPU time (SRB)   00:00:00.00          *
 *   VIO                  0        0       Elapsed time    920:49:06.34          *
 *   Common               0      ---                                             *
 *                                                                               *
 *                                                                               *
 *   CPU Usage          0.18         $0.11  Standard Processing Unit Equivalent  *
 *                                   $0.11  Total Step execution charge          *
 *                                                                               *
 *    I/O count  DDname   Type Addr           I/O count  DDname   Type Addr      *
 *                         *** No I/O for this step ***                          *
 *********************************************************************************
 IEF373I STEP/$$QUIET /START 2004082.0938
 IEF374I STEP/$$QUIET /STOP  2004082.0938 CPU    0MIN 00.01SEC SRB    0MIN 00.00SEC VIRT    16K SYS   244K EXT       4K SYS    9348K
 IEF236I ALLOC. FOR PJG#FCSH $CND
 IEF237I 0401 ALLOCATED TO STEPLIB
 IEF237I JES2 ALLOCATED TO SYSPRINT
 IEF237I 04DC ALLOCATED TO SYSUT1
 IEF237I 04DC ALLOCATED TO SYSUT2
 IEF237I DMY  ALLOCATED TO SYSIN
 IEF142I PJG#FCSH $CND - STEP WAS EXECUTED - COND CODE 0000
 IEF285I   WYL.GG.ORV.LINKLIB                           KEPT
 IEF285I   VOL SER NOS= SYSB01.
 IEF285I   GG$PJG.PJG#FCSH.JOB05930.D0000101.?          SYSOUT
 IEF285I   WYL.GG.PJG.OBJ                               KEPT
 IEF285I   VOL SER NOS= SYSB05.
 IEF285I   WYL.GG.PJG.OBJ                               KEPT
 IEF285I   VOL SER NOS= SYSB05.
 *********************************************************************************
 *   PJG#FCSH/$CND    /                    Return Code      Zero                 *
 *   Region used      280K (16K user + 264K system)                              *
 *   Extended region  9392K (4K user + 9388K system)                             *
 *                                                                               *
 *   Paging              In      Out                                             *
 *   Private <-> Aux      0        0       CPU time (TCB)   00:00:00.01          *
 *   Private <-> Exp      0        0       CPU time (SRB)   00:00:00.00          *
 *   VIO                  0        0       Elapsed time    920:49:05.30          *
 *   Common               0      ---                                             *
 *                                                                               *
 *                                                                               *
 *   CPU Usage          0.18         $0.11  Standard Processing Unit Equivalent  *
 *                                   $0.11  Total Step execution charge          *
 *                                                                               *
 *    I/O count  DDname   Type Addr           I/O count  DDname   Type Addr      *
 *            2  STEPLIB  Disk 0401                   0  SYSPRINT      ----      *
 *            0  SYSUT1   Disk 04DC                   0  SYSUT2   Disk 04DC      *
 *            0  SYSIN         ----                                              *
 *********************************************************************************
 IEF373I STEP/$CND    /START 2004082.0938
 IEF374I STEP/$CND    /STOP  2004082.0938 CPU    0MIN 00.01SEC SRB    0MIN 00.00SEC VIRT    16K SYS   264K EXT       4K SYS    9388K
 IEF236I ALLOC. FOR PJG#FCSH $UNP
 IEF237I JES2 ALLOCATED TO SYSPRINT
 IEF237I 0402 ALLOCATED TO SYSUT1
 IGD101I SMS ALLOCATED TO DDNAME (SYSUT2  )
         DSN (SYS04082.T093846.RA000.PJG#FCSH.INPUT.H01   )
         STORCLAS (TEMP) MGMTCLAS (        ) DATACLAS (        )
         VOL SER NOS= SCR101
 IEF142I PJG#FCSH $UNP - STEP WAS EXECUTED - COND CODE 0000
 IEF285I   GG$PJG.PJG#FCSH.JOB05930.D0000102.?          SYSOUT
 IEF285I   WYL.GG.ORV.SOURCE                            KEPT
 IEF285I   VOL SER NOS= SYSB02.
 IGD106I SYS04082.T093846.RA000.PJG#FCSH.INPUT.H01    PASSED,    DDNAME=SYSUT2
 *********************************************************************************
 *   PJG#FCSH/$UNP    /                    Return Code      Zero                 *
 *   Region used      380K (108K user + 272K system)                             *
 *   Extended region  9468K (4K user + 9464K system)                             *
 *                                                                               *
 *   Paging              In      Out                                             *
 *   Private <-> Aux      0        0       CPU time (TCB)   00:00:00.05          *
 *   Private <-> Exp      0        0       CPU time (SRB)   00:00:00.00          *
 *   VIO                  0        0       Elapsed time    920:49:05.14          *
 *   Common               0      ---                                             *
 *                                                                               *
 *                                                                               *
 *   CPU Usage          0.93         $0.57  Standard Processing Unit Equivalent  *
 *                                   $0.57  Total Step execution charge          *
 *                                                                               *
 *    I/O count  DDname   Type Addr           I/O count  DDname   Type Addr      *
 *            0  SYSPRINT      ----                   2  SYSUT1   Disk 0402      *
 *           12  SYSUT2   Disk 04E3                                              *
 *********************************************************************************
 IEF373I STEP/$UNP    /START 2004082.0938
 IEF374I STEP/$UNP    /STOP  2004082.0938 CPU    0MIN 00.05SEC SRB    0MIN 00.00SEC VIRT   108K SYS   272K EXT       4K SYS    9464K
 IEF236I ALLOC. FOR PJG#FCSH ASM
 IEF237I 0402 ALLOCATED TO SYSLIB
 IEF237I 0402 ALLOCATED TO
 IEF237I 04DC ALLOCATED TO
 IGD101I SMS ALLOCATED TO DDNAME (SYSUT1  )
         DSN (SYS04082.T093846.RA000.PJG#FCSH.SYSUT1.H01  )
         STORCLAS (TEMP) MGMTCLAS (        ) DATACLAS (        )
         VOL SER NOS= VIO
 IEF237I JES2 ALLOCATED TO SYSTERM
 IGD101I SMS ALLOCATED TO DDNAME (SYSPRINT)
         DSN (SYS04082.T093846.RA000.PJG#FCSH.PRINT.H01   )
         STORCLAS (TEMP) MGMTCLAS (        ) DATACLAS (        )
         VOL SER NOS= SCR100
 IEF237I 04DC ALLOCATED TO SYSLIN
 IEF237I JES2 ALLOCATED TO SYSUDUMP
 IGD103I SMS ALLOCATED TO DDNAME SYSIN
 IEF142I PJG#FCSH ASM - STEP WAS EXECUTED - COND CODE 0000
 IEF285I   SYS3.DUMMYMAC                                KEPT
 IEF285I   VOL SER NOS= SYSB02.
 IEF285I   WYL.GG.ORV.MACLIB                            KEPT
 IEF285I   VOL SER NOS= SYSB02.
 IEF285I   WYL.GG.SYS.MACLIB                            KEPT
 IEF285I   VOL SER NOS= SYSB05.
 IGD105I SYS04082.T093846.RA000.PJG#FCSH.SYSUT1.H01   DELETED,   DDNAME=SYSUT1
 IEF285I   GG$PJG.PJG#FCSH.JOB05930.D0000103.?          SYSOUT
 IGD106I SYS04082.T093846.RA000.PJG#FCSH.PRINT.H01    PASSED,    DDNAME=SYSPRINT
 IEF285I   WYL.GG.PJG.OBJ                               KEPT
 IEF285I   VOL SER NOS= SYSB05.
 IEF285I   GG$PJG.PJG#FCSH.JOB05930.D0000104.?          SYSOUT
 IGD105I SYS04082.T093846.RA000.PJG#FCSH.INPUT.H01    DELETED,   DDNAME=SYSIN
 *********************************************************************************
 *   PJG#FCSH/ASM     /                    Return Code      Zero                 *
 *   Region used      8476K (8192K user + 284K system)                           *
 *   Extended region  9952K (412K user + 9540K system)                           *
 *                                                                               *
 *   Paging              In      Out                                             *
 *   Private <-> Aux      0        0       CPU time (TCB)   00:00:01.55          *
 *   Private <-> Exp      0        0       CPU time (SRB)   00:00:00.04          *
 *   VIO                  0        0       Elapsed time    920:49:04.75          *
 *   Common               0      ---                                             *
 *                                                                               *
 *                                                                               *
 *   CPU Usage         29.06        $18.01  Standard Processing Unit Equivalent  *
 *                                  $18.01  Total Step execution charge          *
 *                                                                               *
 *    I/O count  DDname   Type Addr           I/O count  DDname   Type Addr      *
 *           68  SYSLIB   Disk 0402                   0  SYSLIB   Disk 0402      *
 *          134  SYSLIB   Disk 04DC                   0  SYSUT1   VIO  ----      *
 *            0  SYSTERM       ----                  78  SYSPRINT Disk 038B      *
 *            3  SYSLIN   Disk 04DC                   0  SYSUDUMP      ----      *
 *           13  SYSIN    Disk 04E3                                              *
 *********************************************************************************
 IEF373I STEP/ASM     /START 2004082.0938
 IEF374I STEP/ASM     /STOP  2004082.0938 CPU    0MIN 01.55SEC SRB    0MIN 00.04SEC VIRT  8192K SYS   284K EXT     412K SYS    9540K
 IEF236I ALLOC. FOR PJG#FCSH $EDIT
 IEF237I 0402 ALLOCATED TO STEPLIB
 IGD103I SMS ALLOCATED TO DDNAME ASMOUT
 IEF237I JES2 ALLOCATED TO SYSPRINT
 IEF237I JES2 ALLOCATED TO SYSUDUMP
 IEF142I PJG#FCSH $EDIT - STEP WAS EXECUTED - COND CODE 0000
 IEF285I   WYL.GG.SYS.LINKLIB                           KEPT
 IEF285I   VOL SER NOS= SYSB02.
 IGD105I SYS04082.T093846.RA000.PJG#FCSH.PRINT.H01    DELETED,   DDNAME=ASMOUT
 IEF285I   GG$PJG.PJG#FCSH.JOB05930.D0000105.?          SYSOUT
 IEF285I   GG$PJG.PJG#FCSH.JOB05930.D0000106.?          SYSOUT
 *********************************************************************************
 *   PJG#FCSH/$EDIT   /                    Return Code      Zero                 *
 *   Region used      388K (116K user + 272K system)                             *
 *   Extended region  9472K (4K user + 9468K system)                             *
 *                                                                               *
 *   Paging              In      Out                                             *
 *   Private <-> Aux      0        0       CPU time (TCB)   00:00:00.32          *
 *   Private <-> Exp      0        0       CPU time (SRB)   00:00:00.01          *
 *   VIO                  0        0       Elapsed time    920:49:00.74          *
 *   Common               0      ---                                             *
 *                                                                               *
 *                                                                               *
 *   CPU Usage          6.00         $3.72  Standard Processing Unit Equivalent  *
 *                                   $3.72  Total Step execution charge          *
 *                                                                               *
 *    I/O count  DDname   Type Addr           I/O count  DDname   Type Addr      *
 *            2  STEPLIB  Disk 0402                  79  ASMOUT   Disk 038B      *
 *            0  SYSPRINT      ----                   0  SYSUDUMP      ----      *
 *********************************************************************************
 IEF373I STEP/$EDIT   /START 2004082.0938
 IEF374I STEP/$EDIT   /STOP  2004082.0938 CPU    0MIN 00.32SEC SRB    0MIN 00.01SEC VIRT   116K SYS   272K EXT       4K SYS    9468K
 *********************************************************************************
 *                                                                               *
 *                      S t a n f o r d   U n i v e r s i t y                    *
 *                                                                               *
 *                              *** Job Summary ***                              *
 *                                                                               *
 *   System Id      SYSB                   Input time     09:38:16  Mar 22, 2004 *
 *                                                                               *
 *   System Release SP6.1.0                Start time     09:38:46  Mar 22, 2004 *
 *                                                                               *
 *   Job name       PJG#FCSH               Stop  time     00:00:00  Mar 22, 2004 *
 *                                                                               *
 *   Account        PJG$GG                 Elapsed time  920:49:06.34            *
 *                                                                               *
 *   User Name      Module: FILCACHE       CPU time       00:00:01.94            *
 *                                                                               *
 *   Job class      E                      SRB Time       00:00:00.05            *
 *                                                                               *
 *********************************************************************************
 IEF375I  JOB/PJG#FCSH/START 2004082.0938
 IEF376I  JOB/PJG#FCSH/STOP  2004082.0938 CPU    0MIN 01.94SEC SRB    0MIN 00.05SEC
1Data set successfully converted from EDIT to FB format
1Assembler Done FILCACHE No Statements Flagged
1         High Level Assembler Option Summary                   (PTF UQ57391)                                               Page    1
-                                                                                            HLASM R4.0  2004/03/22 09.38
0  No Overriding ASMAOPT Parameters
   Overriding Parameters-  SYSPARM(FILCACHE),TERM,LANG(EN),OBJ,LC(32500),XREF(SHORT),NODECK,NORLD,NODX,NOUS
   No Process Statements


   Options for this Assembly
0  NOADATA
     ALIGN
   NOASA
     BATCH
     CODEPAGE(047C)
   NOCOMPAT
   NODBCS
 3 NODECK
 3 NODXREF
     ESD
   NOEXIT
     FLAG(0,ALIGN,CONT,NOIMPLEN,NOPAGE0,PUSH,RECORD,NOSUBSTR,USING0)
   NOFOLD
   NOGOFF
   NOINFO
 3   LANGUAGE(EN)
   NOLIBMAC
 3   LINECOUNT(32500)
     LIST(121)
     MXREF(SOURCE)
 3   OBJECT
     OPTABLE(UNI,NOLIST)
   NOPCONTROL
   NOPESTOP
   NOPROFILE
   NORA2
   NORENT
 3 NORLD
     RXREF
     SIZE(MAX)
 3   SYSPARM(FILCACHE)
 3   TERM(WIDE)
   NOTEST
     THREAD
   NOTRANSLATE
 3 NOUSING
 3   XREF(SHORT)

   No Overriding DD Names

1FILCACHE External Symbol Dictionary                                                                                        Page    2
-Symbol   Type   Id     Address  Length     LD ID  Flags Alias-of                            HLASM R4.0  2004/03/22 09.38
0FILCACHE  SD 00000001 00000000 000012D1             06
 FILC00    LD          00000000           00000001
 CAOPEN    LD          00000022           00000001
 CACTRL    LD          000001F4           00000001
 UNLINK51  LD          00000662           00000001
 APURGE51  LD          00000776           00000001
 CHKSUM51  LD          00000844           00000001
 VMGET     ER 00000002
 LKCRE     ER 00000003
 VMFREE    ER 00000004
 LKOB      ER 00000005
 LKREL     ER 00000006
 CAREAD    LD          00000A6E           00000001
 CAWRITE   LD          00000CD8           00000001
 CADELETE  LD          00001042           00000001
 CACLOSE   LD          0000117A           00000001
 CAVERIFY  LD          0000123A           00000001

1FILCACHE ORVYL'S Buffer Management Caching Routines                                                                        Page    3
0Loc    Object Code    Addr1 Addr2  Stmt Lv Lineno    Source Statement                    (Asmedit 3.3)  HLASM R4.0  2004/03/22 09.38
+___    ______ ____    _____ _____  ____ __ ______    ______ _________
0                                      2       2.              COPY  HEADER
                                       3             =*********************************************************************
                                       4             =*                                                                   *
                                       5             =*                                                                   *
                                       6             =*                          M P - O R V Y L                          *
                                       7             =*                                                                   *
                                       8             =*       ORVYL - Release 5.0 - Class I - Stanford Proprietary        *
                                       9             =*                                                                   *
                                      10             =*                                                                   *
                                      11             =*********************************************************************
-
-                                     13             =         SPLEVEL SET=2
                                      16             =         HIBAL ASSOC=YES
-
                                     998             =*
                                     999             =* REGISTER CONVENTIONS (USE ONLY THE SYMBOLS)
                                    1000             =*
                                    1001             =*                     CLASS  USAGE
                                    1002             =*                     -----  -----------------------------
                                    1003             =RVR      REG   0        1    RETURN VALUE REGISTER
                                    1015             =RS       REG   1        *    SCRATCH
                                    1027             =RA       REG   2        *    SCRATCH
                                    1039             =RB       REG   3        *    SCRATCH
                                    1051             =RJ       REG   4        *    SCRATCH
                                    1063             =RK       REG   5        *    SCRATCH
                                    1075             =RX       REG   6        *    SCRATCH
                                    1087             =RY       REG   7        *    SCRATCH
                                    1099             =RM       REG   8        *    SCRATCH
                                    1111             =RN       REG   9        *    SCRATCH (In Guest)
                                    1123             =RTCBR    REG   9        -    POINTER TO THE RTCB (In Host)
                                    1135             =BR       REG   10       -    FIRST BASE REGISTER
                                    1147             =BRR      REG   11       -    SECOND BASE REGISTER
                                    1159             =WAR      REG   12       -    WORK AREA POINTER
                                    1171             =SPR      REG   13       -    STACK TOP POINTER
                                    1183             =RAR      REG   14       1    RETURN ADDRESS REGISTER
                                    1195             =EPAR     REG   15       1    ENTRY POINT ADDRESS
                                    1207             =*
                                    1208             =*      CLASS   MEANING
                                    1209             =*      -----   --------------------------------------------------
                                    1210             =*        *     Register may be freely used for scratch
                                    1211             =*        -     Register may not be used
                                    1212             =*        1     Available but may change on subroutine calls
                                    1213             =*
1FILCACHE ORVYL'S Buffer Management Caching Routines                                                                        Page    4
0D-Loc  Object Code    Addr1 Addr2  Stmt Lv Lineno    Source Statement           (Hibal 5, Asmedit 3.3)  HLASM R4.0  2004/03/22 09.38
+_____  ______ ____    _____ _____  ____ __ ______    ______ _________
0                                   1215       3.     *
 000000                00000 012D1  1216       4.     FILCACHE MODULE TRCNUM=51
                                    1226             +*
                                    1227    02-IDENT +         ENTRY FILC00
                                    1228             +
 000000 14C6C9D3C3F0F06B            1229    02-IDENT +FILC00   DC    AL1(20),C'FILC00,22MAR04,09:38'
                                    1230             +*
                                    1232       5.     *
                                    1233       6.     *         COPY  ORVDEFN
                                    1234       7.     *
                                    1235       8.              PUSH  OFF                 Don't print common DSECTS
                                    1480      19.
                                    1481      20.              COPY  CACHPARM            Caching
                                    1482=            =¿þþþþþþþþþþþþþþþþþþþþþþþþþþþþþþþþþþþþþþþþþþþþþþþþþþþþþþþþþþþþþþþþþþþþþÜ
                                    1483=            =Ÿ                                                                     Ÿ
                                    1484=            =Ÿ        CACHPARM - Caching routine calling parms                     Ÿ
                                    1485=            =Ÿ                                                                     Ÿ
                                                      ¾þþþþþþþþþþþþþþþþþþþþþþþþþþþþþþþþþþþþþþþþþþþþþþþþþþþþþþþþþþþþþþþþþþþþþ»
0000000                00000 00009  1486             =@CAOPEN  RECORD BEGIN              CAOPEN parameters...
 000000                             1494  1          =@CAODLEN   DS    F                   Data entry length
 000004                             1495  1          =@CAONBUF   DS    F                   Number of buffers
 000008 00                          1496  1          =@CAOFLAG   FLAG  ,                   Flag
 @CAOFLAG.@CAOFNOT 80 ONES          1500  1          =           FLAG  @CAOFNOT            Don't dump cache blocks
 000009                00009 00009  1505             =         END
                                    1514=            =þþþþ
 000000                00000 0000C  1515             =@CACTRL  RECORD BEGIN              CACTRL parameters...
 000000                             1523  1          =@CACCIT    DS    A                   CIT ptr
 000004                             1524  1          =@CACCNO    DS    F                   Control number
 000008                             1525  1          =@CACPARM   DS    F                   Control parameter
 00000C                0000C 0000C  1526             =         END
                                    1535=            =þþþþ
 000000                00000 00020  1536             =@CAIO    RECORD BEGIN              CAREAD/CAWRITE parameters...
 000000                             1544  1          =@CAIOCIT   DS    A                   CIT ptr
 000004                             1545  1          =@CAIOHP    DS    A                   Header ptr (move to/from here)
 000008                             1546  1          =@CAIOHL    DS    F                   Header length
 00000C                             1547  1          =@CAIODP    DS    A                   Data ptr   (move to/from here)
 000010                             1548  1          =@CAIODL    DS    F                   Data length
 000018                             1549  1          =@CAIOKEY   DS    D                   64-bit key
 000020                00020 00020  1550             =         END
                                    1559=            =þþþþ
 000000                00000 00004  1560             =@CAVERIFY RECORD BEGIN             CAVERIFY parameters...
 000000                             1568  1          =@CAVRCIT   DS    A                   CIT ptr
 000004                00004 00004  1569             =         END
                                    1578=            =þþþþ
 000000                00000 00004  1579             =@CACLOSE RECORD BEGIN              CACLOSE parameters...
 000000                             1587  1          =@CACLCIT   DS    A                   CIT ptr
 000004                00004 00004  1588             =         END
                                    1597      21.     *
                                    1598      22.     *
                                    1599      23.              REGS  ,,,,,,,,,,SCPR,SCBR
                                    1632      24.
                                    1633      25.     CITR     REG   RX                  CIT ptr
                                    1645      26.     CABR     REG   RY                  CAB ptr
1FILCACHE (FILC00) (09:38) (22MAR04) Local Cache Control Blocks                                                             Page    5
0Loc    Object Code    Addr1 Addr2  Stmt Lv Lineno    Source Statement           (Hibal 5, Asmedit 3.3)  HLASM R4.0  2004/03/22 09.38
+___    ______ ____    _____ _____  ____ __ ______    ______ _________
0                                   1658      28.              COPY  CACHCB
                                    1659=            =¿þþþþþþþþþþþþþþþþþþþþþþþþþþþþþþþþþþþþþþþþþþþþþþþþþþþþþþþþþþþþþþþþþþþþþÜ
                                    1660=            =Ÿ                                                                     Ÿ
                                    1661=            =Ÿ        CAB -- Cache Buffer Entry                                    Ÿ
                                    1662=            =Ÿ                                                                     Ÿ
                                                      ¾þþþþþþþþþþþþþþþþþþþþþþþþþþþþþþþþþþþþþþþþþþþþþþþþþþþþþþþþþþþþþþþþþþþþþ»
0000000                00000 00050  1663             =CAB      RECORD BEGIN
 000000                             1671  1          =CABID      DS    C'CAB '             Self-identification
 000004                             1672  1          =CABLINK    DS    A                   Next CAB ptr (or zero)
                                    1673  1          =
 000008                             1674  1          =CABQF      DS    A                   Forw CAB ptr in LRU/FREE queue
 00000C                             1675  1          =CABQB      DS    A                   Back CAB ptr in LRU/FREE queue
                                    1676  1          =
 000010                             1677  1          =CABKEY     DS    D                   64-bit key for this buffer
                                    1678  1          =
 000018                             1679  1          =CABHDR     DS    XL32                32-byte header
 000038                             1680  1          =CABBUFP    DS    A                   Data buffer ptr (0 if dummy CAB)
 00003C                             1681  1          =CABVRFYD   DS    F                   Verification data
 000040                             1682  1          =CABNRDS    DS    F                   No. cache reads for this buffer
 000044                             1683  1          =CABNWRS    DS    F                   No. cache writes for this buffer
                                    1684  1          =CABNCOUNTS   EQU CABNRDS,*-CABNRDS,C'X'  Initialized counters
 000048                             1685  1          =           DS    F                   Reserved
 00004C                             1686  1          =CABCLCK    DS    F                   STCK time when queued
 000050                00050 00050  1687             =         END
1FILCACHE (FILC00) (09:38) (22MAR04) Local Cache Control Blocks                                                             Page    6
0Loc    Object Code    Addr1 Addr2  Stmt Lv Lineno    Source Statement           (Hibal 5, Asmedit 3.3)  HLASM R4.0  2004/03/22 09.38
+___    ______ ____    _____ _____  ____ __ ______    ______ _________
0                                   1697=            =¿þþþþþþþþþþþþþþþþþþþþþþþþþþþþþþþþþþþþþþþþþþþþþþþþþþþþþþþþþþþþþþþþþþþþþÜ
                                    1698=            =Ÿ                                                                     Ÿ
                                    1699=            =Ÿ        CIT -- Cache Information Table                               Ÿ
                                    1700=            =Ÿ                                                                     Ÿ
                                                      ¾þþþþþþþþþþþþþþþþþþþþþþþþþþþþþþþþþþþþþþþþþþþþþþþþþþþþþþþþþþþþþþþþþþþþþ»
0000000                00000 000D0  1701             =CIT      RECORD BEGIN
 000000                             1709  1          =CITID      DS    C'CIT '             Self-identification
                                    1710  1          =
 000004 00                          1711  1          =CITFLAG    FLAG
 CITFLAG.CITFDISAB 80 ONES          1715  1          =           FLAG  CITFDISABLED        - Cache is disabled
 CITFLAG.CITFVERIF 40 ONES          1720  1          =           FLAG  CITFVERIFY          - Verify data integrity
                                    1725  1          =
 000008                             1726  1          =CITLOCK    DS    F                   Lock id
                                    1727= 1          =           ¿þþþþþþþþþþþþþþþÜ
                                    1728= 1          =           Ÿ  Statistics.  Ÿ
                                    1729= 1          =           ¾þþþþþþþþþþþþþþþ»
 00000C                             1730  1          =CIT#RD     DS    F                   Number of CAREAD calls
 000010                             1731  1          =CIT#RDF    DS    F                   Number of CAREADs found in cache
 000014                             1732  1          =CIT#WR     DS    F                   Number of CAWRITE calls
                                    1733= 1          =           ¿þþþþþþþþþþþþþþþþþþþþþþÜ
                                    1734= 1          =           Ÿ  Cache information.  Ÿ
                                    1735= 1          =           ¾þþþþþþþþþþþþþþþþþþþþþþ»
 000018                             1736  1          =CITDLEN    DS    F                   Data element size (in bytes)
 00001C                             1737  1          =CITDCUR    DS    F                   Current number of cache entries
 000020                             1738  1          =CITDMAX    DS    F                   Maximum number of cache entries
                                    1739  1          =
 000024                             1740  1          =           DS    2F                  Reserved
                                    1741  1          =
 00002C                             1742  1          =CITFREEQ   DS    XL(L'CAB)           Master free CAB entry
 00007C                             1743  1          =CITLRUQ    DS    XL(L'CAB)           Master LRU  CAB entry
                                    1744  1          =
                                    1745  1          =CITDEFH#   EQU   15121,,C'N'         Default number of hashed Q heads
 0000CC                             1746  1          =CITNHASH   DS    F                   Number of hashed queue heads
 0000D0                             1747  1          =CITHASHQ   DS    0A                  Start of hashed queue head ptrs
 0000D0                000D0 000D0  1748             =         END
1FILCACHE (FILC00) (09:38) (22MAR04) Local Cache Macros                                                                     Page    7
0Loc    Object Code    Addr1 Addr2  Stmt Lv Lineno    Source Statement           (Hibal 5, Asmedit 3.3)  HLASM R4.0  2004/03/22 09.38
+___    ______ ____    _____ _____  ____ __ ______    ______ _________
0                                   1758      30.              MACRO
                                    1759      31.     &L       LKVER &NAME
                                    1760      32.     .*  LKVER call could be used to verify that we have the
                                    1761      33.     .*    lock specified.  Right now it doesn't generate any code.
                                    1762      34.     &L       LABEL
                                    1763      35.              MEND
                                    1764      36.     ¿þþþþþþþþþþþþþþþþþþþþþþþþþþþþþþþþþþþþþþþþþþþþþþþþþþþþþþþþþþþþþþþþþþþþþÜ
                                    1765      37.     Ÿ                                                                     Ÿ
                                    1766      38.     Ÿ        CAQ -- Macro to insert CAB into the start of the             Ÿ
                                    1767      39.     Ÿ          specified doubly linked queue.                             Ÿ
                                    1768      40.     Ÿ                                                                     Ÿ
                                                      ¾þþþþþþþþþþþþþþþþþþþþþþþþþþþþþþþþþþþþþþþþþþþþþþþþþþþþþþþþþþþþþþþþþþþþþ»
0                                   1769      41.              MACRO
                                    1770      42.     &L       CAQ   &R1,&R2,&QNAME
                                    1771      43.     .*  Note:  Assumes that the queue update lock is held.
                                    1772      44.     &L       LA    &R1,CAB             Our CAB
                                    1773      45.              LA    &R2,CIT&QNAME       Master CAB
                                    1774      46.              LKVER CITLOCK             Verify that we still have lock
                                    1775      47.     .*
                                    1776      48.              ST    &R2,CABQB-CAB(,&R1)  Set our back ptr
                                    1777      49.              L     &R2,CABQF-CAB(,&R2)  Next entry
                                    1778      50.              ST    &R2,CABQF-CAB(,&R1)  Set our forw ptr
                                    1779      51.              ST    &R1,CABQB-CAB(,&R2)  Link us in back Q
                                    1780      52.              LA    &R2,CIT&QNAME        Master CAB
                                    1781      53.              ST    &R1,CABQF-CAB(,&R2)  Link us in forw Q
                                    1782      54.     .*
                                    1783      55.              STCK  0(SPR)
                                    1784      56.              MVC   CABCLCK,0(SPR)      Save TOD when queued
                                    1785      57.              MEND
                                    1786      58.     ¿þþþþþþþþþþþþþþþþþþþþþþþþþþþþþþþþþþþþþþþþþþþþþþþþþþþþþþþþþþþþþþþþþþþþþÜ
                                    1787      59.     Ÿ                                                                     Ÿ
                                    1788      60.     Ÿ        CADQ -- Macro to remove CAB from the current doubly          Ÿ
                                    1789      61.     Ÿ          linked queue.                                              Ÿ
                                    1790      62.     Ÿ                                                                     Ÿ
                                                      ¾þþþþþþþþþþþþþþþþþþþþþþþþþþþþþþþþþþþþþþþþþþþþþþþþþþþþþþþþþþþþþþþþþþþþþ»
0                                   1791      63.              MACRO
                                    1792      64.     &L       CADQ  &R1,&R2
                                    1793      65.     .*  Note:  Assumes that the queue update lock is held.
                                    1794      66.     &L       LA    &R1,CAB             Our CAB
                                    1795      67.              LKVER CITLOCK             Verify that we still have lock
                                    1796      68.     .*
                                    1797      69.              L     &R2,CABQB-CAB(,&R1)  Previous entry
                                    1798      70.              MVC   CABQF-CAB(4,&R2),CABQF-CAB(&R1)  Dequeue forw
                                    1799      71.     .*
                                    1800      72.              L     &R2,CABQF-CAB(,&R1)  Next entry
                                    1801      73.              MVC   CABQB-CAB(4,&R2),CABQB-CAB(&R1)  Dequeue back
                                    1802      74.     .*
                                    1803      75.              L     &R2,=F'-1'          Neatness...
                                    1804      76.              ST    &R2,CABQB-CAB(,&R1)
                                    1805      77.              ST    &R2,CABQF-CAB(,&R1)
                                    1806      78.              MEND
1FILCACHE (FILC00) (09:38) (22MAR04) Local Cache Macros                                                                     Page    8
0Loc    Object Code    Addr1 Addr2  Stmt Lv Lineno    Source Statement           (Hibal 5, Asmedit 3.3)  HLASM R4.0  2004/03/22 09.38
+___    ______ ____    _____ _____  ____ __ ______    ______ _________
0                                   1808      80.     ¿þþþþþþþþþþþþþþþþþþþþþþþþþþþþþþþþþþþþþþþþþþþþþþþþþþþþþþþþþþþþþþþþþþþþþÜ
                                    1809      81.     Ÿ                                                                     Ÿ
                                    1810      82.     Ÿ        CAHASH -- Macro to form number between 0 and CITNHASH-1      Ÿ
                                    1811      83.     Ÿ          based on a 64-bit key.                                     Ÿ
                                    1812      84.     Ÿ                                                                     Ÿ
                                                      ¾þþþþþþþþþþþþþþþþþþþþþþþþþþþþþþþþþþþþþþþþþþþþþþþþþþþþþþþþþþþþþþþþþþþþþ»
0                                   1813      85.              MACRO
                                    1814      86.     &L       CAHASH &R0,&R1
                                    1815      87.              AIF   ('&R0,&R1' EQ 'RA,RB').OK
                                    1816      88.              MNOTE 8,'Only "CAHASH RA,RB" is allowed.'
                                    1817      89.     .OK      ANOP
                                    1818      90.     &L       SLL   RA,16
                                    1819      91.              ALR   RB,RA               Form 32 bit hash
                                    1820      92.              N     RB,=A(X'7FFFFFFF')  Force positive number
                                    1821      93.              CLEAR RA
                                    1822      94.              D     RA,CITNHASH         RA = num between 0 and CITNHASH-1
                                    1823      95.              MEND
1FILCACHE (FILC00) (09:38) (22MAR04) Cache Open (Initialization) Routine                                                    Page    9
0Loc    Object Code    Addr1 Addr2  Stmt Lv Lineno    Source Statement           (Hibal 5, Asmedit 3.3)  HLASM R4.0  2004/03/22 09.38
+___    ______ ____    _____ _____  ____ __ ______    ______ _________
0                                   1825      97.     ¿þþþþþþþþþþþþþþþþþþþþþþþþþþþþþþþþþþþþþþþþþþþþþþþþþþþþþþþþþþþþþþþþþþþþþÜ
                                    1826      98.     Ÿ                                                                     Ÿ
                                    1827      99.     Ÿ  CAOPEN -- Routine to establish a cache area.                       Ÿ
                                    1828     100.     Ÿ                                                                     Ÿ
                                    1829     101.     Ÿ    On entry:                                                        Ÿ
                                    1830     102.     Ÿ      @CAODLEN - data entry length                                   Ÿ
                                    1831     103.     Ÿ      @CAONBUF - number of buffers to allocate                       Ÿ
                                    1832     104.     Ÿ                                                                     Ÿ
                                    1833     105.     Ÿ    On exit, RVR:                                                    Ÿ
                                    1834     106.     Ÿ      0 - cache not available                                        Ÿ
                                    1835     107.     Ÿ      nz- CIT ptr                                                    Ÿ
                                    1836     108.     Ÿ                                                                     Ÿ
                                                      ¾þþþþþþþþþþþþþþþþþþþþþþþþþþþþþþþþþþþþþþþþþþþþþþþþþþþþþþþþþþþþþþþþþþþþþ»
0000016                             1837     109.     CAOPEN   PROC  @CAOPEN,SCOPE=GLOBAL
 000016 C3C1D6D7C5D54040            1843             +
 00001E 0010/0000                   1844             +
 000022 900F D004/18AF       00004  1846             +
 USING  CAOPEN,R10
 000028 50D0 C000/18CD       00000  1861             +
 00002E 9680 C000      00000        1863             +
 USING  @CAOPEN-72,R12
 000032 41D0 C058            00058  1877             +
                                    1878     110.              ¿þþþþþþþþþþþþþþþþþÜ
                                    1879     111.              Ÿ  Allocate CIT.  Ÿ
                                    1880     112.              ¾þþþþþþþþþþþþþþþþþ»
 000036 5850 A9DE            00A00  1881     113.              L     RK,=A(L'CIT)        Basic CIT length
 00003A 5E50 A9E2            00A04  1882     114.              AL    RK,=A(CITDEFH#*4)   Add in length of hashed Q heads
 USING  @VMGET-72,R13               1883     115.              VMGET (RK),LOC=GLOBHI,FIX=YES,SP=05  Allocate CIT
 00003E D70A D048 D048 00000 00000  1907             +
 000044 5050 D048            00000  1917             +
 000048 D201 D050 AA32 00008 00A54  1918             +
 00004E 58F0 A9E6/0DEF       00A08  1921             +
 000054 1200/4780 A1BC       001DE  1923     116.              IF    (RVR,Z),CAOPEXIT    No memory, forget it
 00005A 1860                        1940     117.              LR    CITR,RVR
 USING  CIT,R6                      1941     118.              WITH  CIT
 00005C 18E6/18F5/1B11              1953     119.              ZOT   CIT,(RK)            Zero entire CIT
 000062 0EE0                        1967             +
 000064 9180 C050      00008        1968     120.              IF    @CAOFNOT,BEGIN
 000068 47E0 A04E            00070  1978             +
 00006C 8365001D                    1983  1  121.                SYSCTL CITR,RK,TYPE=DUMPNOT Don't include in a dump
 000070                             1986     122.              END   ,
 000070 D203 6000 A9EA 00000 00A0C  1990     123.              MVC   CITID,=CL4'CIT'     Set self-identification
                                    1991     124.
 000076 D203 6018 C048 00018 00000  1992     125.              MVC   CITDLEN,@CAODLEN    Save entry length
 00007C D203 60CC A9EE 000CC 00A10  1993     126.              MVC   CITNHASH,=A(CITDEFH#)  Save number of hashed Q heads
                                    1994     127.              ¿þþþþþþþþþþþþþþþþþþþþþþþþþþþþþþþþþþþþþþþþþþþþþþþþþþþþþþþþþþþþþÜ
                                    1995     128.              Ÿ  Initialize "master" free CAB.  This is a dummy CAB entry,  Ÿ
                                    1996     129.              Ÿ    so there will always be at least one entry on the queue  Ÿ
                                    1997     130.              Ÿ    (which makes queue manipulations easier).                Ÿ
                                    1998     131.              ¾þþþþþþþþþþþþþþþþþþþþþþþþþþþþþþþþþþþþþþþþþþþþþþþþþþþþþþþþþþþþþ»
 000082 4120 602C            0002C  1999     132.              LA    RA,CITFREEQ         Master free CAB
 USING  CAB,R2                      2000     133.              WITH  (CAB,RA),BEGIN
 000086                             2014  1  134.                CLEAR CAB
 000086 D74F 2000 2000 00000 00000  2020  1          +
 00008C D203 2000 A9F2 00000 00A14  2021  1  135.                MVC   CABID,=CL4'CAB'     Set self-identification
1FILCACHE (FILC00) (09:38) (22MAR04) Cache Open (Initialization) Routine                                                    Page   10
0Current Usings:  (CAB,R2) (CIT,R6) (CAOPEN,R10) (@CAOPEN-72,R12) (@VMGET-72,R13)
0Loc    Object Code    Addr1 Addr2  Stmt Lv Lineno    Source Statement           (Hibal 5, Asmedit 3.3)  HLASM R4.0  2004/03/22 09.38
+___    ______ ____    _____ _____  ____ __ ______    ______ _________
0000092 5020 2008            00008  2022  1  136.                ST    RA,CABQF            Set forward queue ptr
 000096 5020 200C            0000C  2023  1  137.                ST    RA,CABQB            Set backward queue ptr
 DROP   CAB,R2                      2024     138.              END
                                    2032     139.              ¿þþþþþþþþþþþþþþþþþþþþþþþþþþþþþþþþþþþþþþþþþþþþþþþþþþþþþþþþþþþþÜ
                                    2033     140.              Ÿ  Initialize "master" LRU CAB.  This is a dummy CAB entry.  Ÿ
                                    2034     141.              ¾þþþþþþþþþþþþþþþþþþþþþþþþþþþþþþþþþþþþþþþþþþþþþþþþþþþþþþþþþþþþ»
 00009A 4120 607C            0007C  2035     142.              LA    RA,CITLRUQ          Master LRU CAB
 USING  CAB,R2                      2036     143.              WITH  (CAB,RA),BEGIN
 00009E                             2050  1  144.                CLEAR CAB
 00009E D74F 2000 2000 00000 00000  2056  1          +
 0000A4 D203 2000 A9F2 00000 00A14  2057  1  145.                MVC   CABID,=CL4'CAB'     Set self-identification
 0000AA 5020 2008            00008  2058  1  146.                ST    RA,CABQF            Set forward queue ptr
 0000AE 5020 200C            0000C  2059  1  147.                ST    RA,CABQB            Set backward queue ptr
 DROP   CAB,R2                      2060     148.              END
                                    2068     149.              ¿þþþþþþþþþþþþþþþþþþþþþþþþþþþþþþþþþþþþþþÜ
                                    2069     150.              Ÿ  Allocate buffer manipulation lock.  Ÿ
                                    2070     151.              ¾þþþþþþþþþþþþþþþþþþþþþþþþþþþþþþþþþþþþþþ»
 DROP   @VMGET-72,R13               2071     152.              LKCRE FILE_CACHE          Allocate lock
 USING  @LOCKCRE-72,R13
 0000B2 D710 D048 D048 00000 00000  2092             +
 0000B8 D20F D048 A9CE 00000 009F0  2098             +
 0000BE 58F0 A9F6/0DEF       00A18  2101             +
 0000C4 5000 6008            00008  2103     153.              ST    RVR,CITLOCK         Save lock id
                                    2104     154.
 0000C8 9180 C050      00008        2105     155.     DUMPNOT  IF    @CAOFNOT,BEGIN      Exclude cache buffers in a dump
 0000CC 47E0 A19A            001BC  2116             +
                                    2121  1  156.                ¿þþþþþþþþþþþþþþþþþþþþþþþþþþþþþþþþþþþþþþþþþþþþþþþþþþþþÜ
                                    2122  1  157.                Ÿ  Allocate cache buffers a different way so we can  Ÿ
                                    2123  1  158.                Ÿ  avoid dumping them.                               Ÿ
                                    2124  1  159.                ¾þþþþþþþþþþþþþþþþþþþþþþþþþþþþþþþþþþþþþþþþþþþþþþþþþþþþ»
 0000D0 5850 C04C            00004  2125  1  160.                L     RK,@CAONBUF         Count of buffers
 0000D4 4C50 AA34            00A56  2126  1  161.                MH    RK,=Y(L'CAB)        Calc length
 DROP   @LOCKCRE-72,R13             2127  1  162.                VMGET (RK),LOC=GLOBHI,FIX=YES,SP=05  Allocate CAB
 USING  @VMGET-72,R13
 0000D8 D70A D048 D048 00000 00000  2154  1          +
 0000DE 5050 D048            00000  2164  1          +
 0000E2 D201 D050 AA32 00008 00A54  2165  1          +
 0000E8 58F0 A9E6/0DEF       00A08  2168  1          +
 0000EE 1200/4770 A0D6       000F8  2170  1  163.                IF    (RVR,Z),'EXIT DUMPNOT' forget it
 0000F4 47F0 A19A            001BC  2187  1          +
 0000F8 1870                        2192  1  164.                LR    CABR,RVR            Get pointer
 USING  CAB,R7                      2193  1  165.                WITH  CAB
 0000FA 1B22                        2205  1  166.                CLEAR RA
 0000FC 5830 C04C            00004  2209  1  167.                L     RB,@CAONBUF         Count of buffers
 000100 5C20 6018            00018  2210  1  168.                M     RA,CITDLEN          Calc length
 000104                             2211  1  169.                VMGET (RB),LOC=GLOBHI,FIX=YES,SP=06,PAGE=YES Get buffs
 000104 D70A D048 D048 00000 00000  2228  1          +
 00010A 5030 D048            00000  2238  1          +
 00010E D201 D050 AA36 00008 00A58  2239  1          +
 000114 9680 D052      0000A        2245  1          +
 000118 58F0 A9E6/0DEF       00A08  2248  1          +
 00011E 1200/4770 A120       00142  2250  1  170.                IF    (RVR,Z),BEGIN
 DROP   @VMGET-72,R13               2264  2  171.                  VMFREE A=LA:CAB,(RK),LOC=GLOBHI,FIX=YES,SP=05 Release CAB
 USING  @VMFREE-72,R13
1FILCACHE (FILC00) (09:38) (22MAR04) Cache Open (Initialization) Routine                                                    Page   11
0Current Usings:  (CIT,R6) (CAB,R7) (CAOPEN,R10) (@CAOPEN-72,R12) (@VMFREE-72,R13)
0Loc    Object Code    Addr1 Addr2  Stmt Lv Lineno    Source Statement           (Hibal 5, Asmedit 3.3)  HLASM R4.0  2004/03/22 09.38
+___    ______ ____    _____ _____  ____ __ ______    ______ _________
0000124 D709 D048 D048 00000 00000  2291  2          +
 00012A 5050 D04C            00004  2301  2          +
 00012E 5070 D048            00000  2312  2          +
 000132 D201 D050 AA32 00008 00A54  2313  2          +
 000138 58F0 A9FA/0DEF       00A1C  2316  2          +
 00013E 47F0 A19A            001BC  2318  2  172.                  EXIT  DUMPNOT
 000142                             2321  1  173.                END   ,
 000142 1840                        2325  1  174.                LR    RJ,RVR
 000144 8375001D                    2326  1  175.                SYSCTL CABR,RK,TYPE=DUMPNOT Don't include in a dump
 000148 8343001D                    2329  1  176.                SYSCTL RJ,RB,TYPE=DUMPNOT Don't include in a dump
 00014C D203 601C C04C 0001C 00004  2332  1  177.                MVC   CITDCUR,@CAONBUF
 000152 D203 6020 C04C 00020 00004  2333  1  178.                MVC   CITDMAX,@CAONBUF
 000158 18E7/18F5/1B11              2334  1  179.                ZOT   CAB,(RK)
 00015E 0EE0                        2348  1          +
 000160 41E0 4000/18F3       00000  2349  1  180.                ZOT   @RJ,(RB)
 000166 1B11/0EE0                   2362  1          +
 00016A 5800 601C            0001C  2364  1  181.                L     RVR,CITDCUR         Loop count
 00016E                             2365  1  182.                LOOP  BEGIN               Initialize buffers
 00016E D203 7000 A9F2 00000 00A14  2371  2  183.                  MVC   CABID,=CL4'CAB'     Set self-identification
 000174 D203 7004 A9FE 00004 00A20  2372  2  184.                  MVC   CABLINK,=F'-1'      Neatness
 00017A 5040 7038            00038  2373  2  185.                  ST    RJ,CABBUFP          Save buffer ptr
                                    2374  2  186.     *  mvc @rj(16),=c' *** Buffer *** '
 00017E 4120 7000            00000  2375  2  187.                  CAQ   RA,RB,FREEQ         Add buffer to free queue
 000182 4130 602C            0002C  2377  2          +
 000186 5030 200C            0000C  2380  2          +
 00018A 5830 3008            00008  2381  2          +
 00018E 5030 2008            00008  2382  2          +
 000192 5020 300C            0000C  2383  2          +
 000196 4130 602C            0002C  2384  2          +
 00019A 5020 3008            00008  2385  2          +
 00019E B205 D000      00000        2386  2          +
 0001A2 D203 704C D000 0004C 00000  2387  2          +
 0001A8 4170 7050            00050  2388  2  188.                  LA    CABR,CAB+L'CAB      Next buffer
 0001AC 5A40 6018            00018  2389  2  189.                  A     RJ,CITDLEN          Next buffer
 0001B0 4600 A14C            0016E  2390  1  190.                UNTIL (BCT,RVR),END
 0001B4 4100 6000            00000  2400  1  191.                LA    RVR,CIT             Return CIT ptr to caller
 0001B8 47F0 A1BC            001DE  2401  1  192.                EXIT  CAOPEN
 DROP   CAB,R7                      2404     193.              END   ,                   Exclude cache buffers in a dump
0                                   2414     195.              ¿þþþþþþþþþþþþþþþþþþþþþþþþþþþþþþþþþþþþþþþþþþþþþþþþþþþþþþÜ
                                    2415     196.              Ÿ  Do control function to allocate the cache buffers.  Ÿ
                                    2416     197.              ¾þþþþþþþþþþþþþþþþþþþþþþþþþþþþþþþþþþþþþþþþþþþþþþþþþþþþþþ»
 DROP   @VMFREE-72,R13              2417     198.              PSET  @CACTRL
 USING  @CACTRL-72,R13
 0001BC D70B D048 D048 00000 00000  2437             +
 0001C2 5060 D048            00000  2438     199.              PMOV  @CACCIT,LA:CIT      CIT ptr
 0001C6 4100 0001            00001  2449     200.              PMOV  @CACCNO,LA:1        Control 1: change no. of bufs
 0001CA 5000 D04C            00004  2465             +
 0001CE                             2466     201.              PMOV  @CACPARM,@CAONBUF   Desired number of buffers
 0001CE D203 D050 C04C 00008 00004  2470             +
 0001D4 58F0 AA02/0DEF       00A24  2471     202.              ACALL CACTRL              Allocate buffers
                                    2478     203.
 0001DA 4100 6000            00000  2479     204.              LA    RVR,CIT             Return CIT ptr to caller
 0001DE 981F C008            00008  2480     205.     CAOPEXIT PEND
1FILCACHE (FILC00) (09:38) (22MAR04) Cache Open (Initialization) Routine                                                    Page   12
0Current Usings:  (@CACTRL-72,R13)
0Loc    Object Code    Addr1 Addr2  Stmt Lv Lineno    Source Statement           (Hibal 5, Asmedit 3.3)  HLASM R4.0  2004/03/22 09.38
+___    ______ ____    _____ _____  ____ __ ______    ______ _________
0DROP   CIT,R6
 DROP   @CAOPEN-72,R12
 DROP   CAOPEN,R10
 0001E2 9680 C000/0B0E 00000        2501             +
 DROP   @CACTRL-72,R13
1FILCACHE (FILC00) (09:38) (22MAR04) Cache Control Routine                                                                  Page   13
0Loc    Object Code    Addr1 Addr2  Stmt Lv Lineno    Source Statement           (Hibal 5, Asmedit 3.3)  HLASM R4.0  2004/03/22 09.38
+___    ______ ____    _____ _____  ____ __ ______    ______ _________
0                                   2511     207.     ¿þþþþþþþþþþþþþþþþþþþþþþþþþþþþþþþþþþþþþþþþþþþþþþþþþþþþþþþþþþþþþþþþþþþþþÜ
                                    2512     208.     Ÿ                                                                     Ÿ
                                    2513     209.     Ÿ  CACTRL -- Routine to change a cache parameter.  Right now the      Ÿ
                                    2514     210.     Ÿ    only thing that is supported is to change the number of          Ÿ
                                    2515     211.     Ÿ    cache data entries.                                              Ÿ
                                    2516     212.     Ÿ                                                                     Ÿ
                                    2517     213.     Ÿ    On entry:                                                        Ÿ
                                    2518     214.     Ÿ      @CACCIT = CIT ptr                                              Ÿ
                                    2519     215.     Ÿ                                                                     Ÿ
                                    2520     216.     Ÿ      @CACCNO =  ctrl opcode:                                        Ÿ
                                    2521     217.     Ÿ              1 - change number of buffers;                          Ÿ
                                    2522     218.     Ÿ                    @CACPARM = number of buffers                     Ÿ
                                    2523     219.     Ÿ              2 - enable caching                                     Ÿ
                                    2524     220.     Ÿ              3 - disable caching                                    Ÿ
                                    2525     221.     Ÿ              4 - purge current cache buffers                        Ÿ
                                    2526     222.     Ÿ              5 - cache data verification;                           Ÿ
                                    2527     223.     Ÿ                    @CACPARM = 1=on, 0=off                           Ÿ
                                    2528     224.     Ÿ                                                                     Ÿ
                                    2529     225.     Ÿ    On exit, RVR:                                                    Ÿ
                                    2530     226.     Ÿ      0 - OK                                                         Ÿ
                                    2531     227.     Ÿ      nz- error of some sort                                         Ÿ
                                    2532     228.     Ÿ                                                                     Ÿ
                                                      ¾þþþþþþþþþþþþþþþþþþþþþþþþþþþþþþþþþþþþþþþþþþþþþþþþþþþþþþþþþþþþþþþþþþþþþ»
00001E8                             2533     229.     CACTRL   PROC  @CACTRL,SCOPE=GLOBAL
 0001E8 C3C1C3E3D9D34040            2539             +
 0001F0 0010/0000                   2540             +
 0001F4 900F D004/18AF       00004  2542             +
 USING  CACTRL,R10
 0001FA 50D0 C000/18CD       00000  2557             +
 000200 9680 C000      00000        2559             +
 USING  @CACTRL-72,R12
 000204 41D0 C058            00058  2573             +
 000208 5860 C048            00000  2574     230.              L     CITR,@CACCIT        CIT ptr
 USING  CIT,R6                      2575     231.              WITH  CIT
 00020C                             2587     232.              FAIL  (CIT,NE,'CIT'),CACTRL_BADCIT  Bad CIT ptr
 00020C D502 A868 6000 00A5C 00000  2599             +
 000212 4780 A052            00246  2600             +
 USING  PZERO,R0
 000216 AC04 021B      0021B        2617  1          +
 00021A 9680 021A      0021A        2623  1          +
 00021E 50F0 021C            0021C  2624  1          +
 000222 58F0 0210            00210  2625  1          +
 000226 89F0 0010            00010  2626  1          +
 00022A 88F0 0010            00010  2627  1          +
 00022E 41F0 F000            00000  2628  1          +
 000232 AEFF 0006            00006  2629  1          +
 000236 C3C1C3E3D9D36DC2            2630             +
 DROP   PZERO,R0
                                    2643     233.              ¿þþþþþþþþþþþþþþþþþþþþþþþþþþþþþþþþþþþþþþþþþþþþþÜ
                                    2644     234.              Ÿ  Control 1:  Change the number of buffers.  Ÿ
                                    2645     235.              ¾þþþþþþþþþþþþþþþþþþþþþþþþþþþþþþþþþþþþþþþþþþþþþ»
 000246                             2646     236.              IF    (@CACCNO,EQ,=F'1'),BEGIN  Change number of buffers...
 000246 D503 A834 C04C 00A28 00004  2656             +
 00024C 4770 A300            004F4  2657             +
 000250 D203 6020 C050 00020 00008  2662  1  237.                MVC   CITDMAX,@CACPARM    New maximum number of buffers
1FILCACHE (FILC00) (09:38) (22MAR04) Cache Control Routine                                                                  Page   14
0Current Usings:  (CIT,R6) (CACTRL,R10) (@CACTRL-72,R12)
0Loc    Object Code    Addr1 Addr2  Stmt Lv Lineno    Source Statement           (Hibal 5, Asmedit 3.3)  HLASM R4.0  2004/03/22 09.38
+___    ______ ____    _____ _____  ____ __ ______    ______ _________
0                                   2663  1  238.
 USING  CAB,R7                      2664  1  239.                WITH  CAB
                                    2676  1  240.
 000256                             2677  1  241.     CAC1LP     WHILE (CITDCUR,NE,CITDMAX),BEGIN  We need to adjust...
 000256 D503 601C 6020 0001C 00020  2692  1          +
 00025C 4780 A2FE            004F2  2693  1          +
 USING  @LOCKS-72,R13               2698  2  242.                  LKOB  CITLOCK             Get exclusive lock
 000260 D203 D048 6008 00000 00008  2714  2          +
 000266 58F0 A838/0DEF       00A2C  2717  2          +
                                    2719  2  243.                  ¿þþþþþþþþþþþþþþþþþþþþþþþþþþþþþþþþþþþþþþþþþþþþþþþþþþþþþþþÜ
                                    2720  2  244.                  Ÿ  Allocate a new buffer and add it to the free queue.  Ÿ
                                    2721  2  245.                  ¾þþþþþþþþþþþþþþþþþþþþþþþþþþþþþþþþþþþþþþþþþþþþþþþþþþþþþþþ»
 00026C                             2722  2  246.                  IF    (CITDCUR,LT,CITDMAX),BEGIN  Add a buffer...
 00026C D503 601C 6020 0001C 00020  2734  2          +
 000272 47B0 A164            00358  2735  2          +
 DROP   @LOCKS-72,R13               2740  3  247.                    VMGET L'CAB,LOC=GLOBHI,FIX=YES,SP=05  Allocate CAB
 USING  @VMGET-72,R13
 000276 D70A D048 D048 00000 00000  2767  3          +
 00027C 4100 0050            00050  2779  3          +
 000280 5000 D048            00000  2784  3          +
 000284 D201 D050 A860 00008 00A54  2785  3          +
 00028A 58F0 A814/0DEF       00A08  2788  3          +
 000290 1200/4770 A0B6       002AA  2790  3  248.                    IF    (RVR,Z),'LKREL CITLOCK; LA RVR,16; B CACTEXIT'
 000296 D203 D048 6008 00000 00008  2824  4          +
 DROP   @VMGET-72,R13
 USING  @LOCKS-72,R13
 00029C 58F0 A83C/0DEF       00A30  2827  4          +
 0002A2 4100 0010            00010  2829  4          +
 0002A6 47F0 A464            00658  2830  3          +
 0002AA 1870                        2835  3  249.                    LR    CABR,RVR
 0002AC                             2836  3  250.                    CLEAR CAB
 0002AC D74F 7000 7000 00000 00000  2842  3          +
 0002B2 D203 7000 A820 00000 00A14  2843  3  251.                    MVC   CABID,=CL4'CAB'     Set self-identification
 0002B8 D203 7004 A82C 00004 00A20  2844  3  252.                    MVC   CABLINK,=F'-1'      Neatness
                                    2845  3  253.
 DROP   @LOCKS-72,R13               2846  3  254.                    VMGET L:CITDLEN,LOC=GLOBHI,FIX=YES,SP=06  Allocate buffer
 USING  @VMGET-72,R13
 0002BE D70A D048 D048 00000 00000  2873  3          +
 0002C4 D203 D048 6018 00000 00018  2878  3          +
 0002CA D201 D050 A864 00008 00A58  2879  3          +
 0002D0 58F0 A814/0DEF       00A08  2882  3          +
 0002D6 1200/4770 A11A       0030E  2884  3  255.                    IF    (RVR,Z),BEGIN       No memory...
 DROP   @VMGET-72,R13               2898  4  256.                      VMFREE A=LA:CAB,L'CAB,LOC=GLOBHI,FIX=YES,SP=05  Release CAB
 USING  @VMFREE-72,R13
 0002DC D709 D048 D048 00000 00000  2925  4          +
 0002E2 4100 0050            00050  2937  4          +
 0002E6 5000 D04C            00004  2942  4          +
 0002EA 5070 D048            00000  2953  4          +
 0002EE D201 D050 A860 00008 00A54  2954  4          +
 0002F4 58F0 A828/0DEF       00A1C  2957  4          +
 DROP   @VMFREE-72,R13              2959  4  257.                      LKREL CITLOCK             Release exclusive lock
 USING  @LOCKS-72,R13
 0002FA D203 D048 6008 00000 00008  2978  4          +
 000300 58F0 A83C/0DEF       00A30  2981  4          +
1FILCACHE (FILC00) (09:38) (22MAR04) Cache Control Routine                                                                  Page   15
0Current Usings:  (CIT,R6) (CAB,R7) (CACTRL,R10) (@CACTRL-72,R12) (@LOCKS-72,R13)
0Loc    Object Code    Addr1 Addr2  Stmt Lv Lineno    Source Statement           (Hibal 5, Asmedit 3.3)  HLASM R4.0  2004/03/22 09.38
+___    ______ ____    _____ _____  ____ __ ______    ______ _________
0000306 4100 0010            00010  2983  4  258.                      LA    RVR,16              No memory return code
 00030A 47F0 A464            00658  2984  4  259.                      B     CACTEXIT
 00030E                             2985  3  260.                    END
                                    2989  3  261.
 00030E 5000 7038            00038  2990  3  262.                    ST    RVR,CABBUFP         Save buffer ptr
 000312 18E0/58F0 6018       00018  2991  3  263.                    ZOT   (RVR),L:CITDLEN     Zero data block
 000318 1B11/0EE0                   3002  3          +
                                    3004  3  264.     *  l r14,cabbufp
                                    3005  3  265.     *  mvc @r14(16),=c' *** Buffer *** '
                                    3006  3  266.     *
 00031C 5820 601C            0001C  3007  3  267.                    INCRR RA,RB,CITDCUR       Kick number of entries
 000320 4130 0001/1E32       00001  3009  3          +
 000326 BA23 601C            0001C  3011  3          +
 00032A 4770 A128            0031C  3012  3          +
                                    3013  3  268.
 00032E 4120 7000            00000  3014  3  269.                    CAQ   RA,RB,FREEQ         Add buffer to free queue
 000332 4130 602C            0002C  3016  3          +
 000336 5030 200C            0000C  3019  3          +
 00033A 5830 3008            00008  3020  3          +
 00033E 5030 2008            00008  3021  3          +
 000342 5020 300C            0000C  3022  3          +
 000346 4130 602C            0002C  3023  3          +
 00034A 5020 3008            00008  3024  3          +
 00034E B205 D000      00000        3025  3          +
 000352 D203 704C D000 0004C 00000  3026  3          +
 000358                             3027  2  270.                  END
                                    3031  2  271.                  ¿þþþþþþþþþþþþþþþþþþþþþÜ
                                    3032  2  272.                  Ÿ  Release a buffer.  Ÿ
                                    3033  2  273.                  ¾þþþþþþþþþþþþþþþþþþþþþ»
 000358                             3034  2  274.                  IF    (CITDCUR,GT,CITDMAX),BEGIN  Release a buffer...
 000358 D503 601C 6020 0001C 00020  3046  2          +
 00035E 47D0 A2EE            004E2  3047  2          +
                                    3052  3  275.                    ¿þþþþþþþþþþþþþþþþþþþþþþþþþþÜ
                                    3053  3  276.                    Ÿ  Release a free buffer.  Ÿ
                                    3054  3  277.                    ¾þþþþþþþþþþþþþþþþþþþþþþþþþþ»
 000362 4170 602C            0002C  3055  3  278.                    LA    CABR,CITFREEQ       Master free CAB entry
 000366 5970 7008            00008  3056  3  279.                    IF    (CABR,NE,CABQF),BEGIN  We have a free entry...
 00036A 4780 A1A6            0039A  3068  3          +
 00036E 5870 7008            00008  3073  4  280.                      L     CABR,CABQF          Get first real free entry
                                    3074  4  281.
 000372 4120 7000            00000  3075  4  282.                      CADQ  RA,RB               Take it off the free queue
 000376 5830 200C            0000C  3079  4          +
 00037A D203 3008 2008 00008 00008  3080  4          +
 000380 5830 2008            00008  3081  4          +
 000384 D203 300C 200C 0000C 0000C  3082  4          +
 00038A 5830 A82C            00A20  3083  4          +
 00038E 5030 200C            0000C  3084  4          +
 000392 5030 2008            00008  3085  4          +
 000396 47F0 A24A            0043E  3086  4  283.                      B     CAC1REL             Release this CAB
 00039A                             3087  3  284.                    END
1FILCACHE (FILC00) (09:38) (22MAR04) Cache Control Routine                                                                  Page   16
0Current Usings:  (CIT,R6) (CAB,R7) (CACTRL,R10) (@CACTRL-72,R12) (@LOCKS-72,R13)
0Loc    Object Code    Addr1 Addr2  Stmt Lv Lineno    Source Statement           (Hibal 5, Asmedit 3.3)  HLASM R4.0  2004/03/22 09.38
+___    ______ ____    _____ _____  ____ __ ______    ______ _________
0                                   3091  3  285.                    ¿þþþþþþþþþþþþþþþþþþþþþþþþþþþþþþþþþþþþþþþþþþþþþþþÜ
                                    3092  3  286.                    Ÿ  Release the oldest buffer on the LRU queue.  Ÿ
                                    3093  3  287.                    ¾þþþþþþþþþþþþþþþþþþþþþþþþþþþþþþþþþþþþþþþþþþþþþþþ»
 00039A 4170 607C            0007C  3094  3  288.                    LA    CABR,CITLRUQ        Master LRU CAB entry
 00039E 5970 7008            00008  3095  3  289.                    FAIL  (CABR,EQ,CABQF),CA1ERR_QF  Cache buffer error
 0003A2 4770 A1E2            003D6  3108  3          +
 USING  PZERO,R0
 0003A6 AC04 021B      0021B        3125  4          +
 0003AA 9680 021A      0021A        3131  4          +
 0003AE 50F0 021C            0021C  3132  4          +
 0003B2 58F0 0210            00210  3133  4          +
 0003B6 89F0 0010            00010  3134  4          +
 0003BA 88F0 0010            00010  3135  4          +
 0003BE 41F0 F000            00000  3136  4          +
 0003C2 AEFF 0006            00006  3137  4          +
 0003C6 C3C1F1C5D9D96DD8            3138  3          +
 DROP   PZERO,R0
 0003D6 5870 700C            0000C  3151  3  290.                    L     CABR,CABQB          Get oldest buffer
 0003DA                             3152  3  291.                    FAIL  (CABBUFP,Z),CA1ERR_BUFP  Cache buffer error
 0003DA D603 7038 7038 00038 00038  3163  3          +
 0003E0 4770 A220            00414  3164  3          +
 USING  PZERO,R0
 0003E4 AC04 021B      0021B        3181  4          +
 0003E8 9680 021A      0021A        3187  4          +
 0003EC 50F0 021C            0021C  3188  4          +
 0003F0 58F0 0210            00210  3189  4          +
 0003F4 89F0 0010            00010  3190  4          +
 0003F8 88F0 0010            00010  3191  4          +
 0003FC 41F0 F000            00000  3192  4          +
 000400 AEFF 0006            00006  3193  4          +
 000404 C3C1F1C5D9D96DC2            3194  3          +
 DROP   PZERO,R0
                                    3207  3  292.     *
 000414 4120 7000            00000  3208  3  293.                    CADQ  RA,RB               Remove this entry from LRU Q
 000418 5830 200C            0000C  3212  3          +
 00041C D203 3008 2008 00008 00008  3213  3          +
 000422 5830 2008            00008  3214  3          +
 000426 D203 300C 200C 0000C 0000C  3215  3          +
 00042C 5830 A82C            00A20  3216  3          +
 000430 5030 200C            0000C  3217  3          +
 000434 5030 2008            00008  3218  3          +
                                    3219  3  294.
 000438 58F0 A840/0DEF       00A34  3220  3  295.                    ACALL CAUNLINK            Remove entry from hashed queue
                                    3227  3  296.
 00043E                             3228  3  297.     CAC1REL        FAIL  (CAB,NE,'CAB'),CA1ERR_CABID  Release buffer error
 00043E D502 A86B 7000 00A5F 00000  3241  3          +
 000444 4780 A284            00478  3242  3          +
 USING  PZERO,R0
 000448 AC04 021B      0021B        3259  4          +
 00044C 9680 021A      0021A        3265  4          +
 000450 50F0 021C            0021C  3266  4          +
 000454 58F0 0210            00210  3267  4          +
 000458 89F0 0010            00010  3268  4          +
 00045C 88F0 0010            00010  3269  4          +
1FILCACHE (FILC00) (09:38) (22MAR04) Cache Control Routine                                                                  Page   17
0Current Usings:  (PZERO,R0) (CIT,R6) (CAB,R7) (CACTRL,R10) (@CACTRL-72,R12) (@LOCKS-72,R13)
0Loc    Object Code    Addr1 Addr2  Stmt Lv Lineno    Source Statement           (Hibal 5, Asmedit 3.3)  HLASM R4.0  2004/03/22 09.38
+___    ______ ____    _____ _____  ____ __ ______    ______ _________
0000460 41F0 F000            00000  3270  4          +
 000464 AEFF 0006            00006  3271  4          +
 000468 C3C1F1C5D9D96DC3            3272  3          +
 DROP   PZERO,R0
 000478 D203 7000 A844 00000 00A38  3285  3  298.                    MVC   CABID,=C'XCAB'      Zap self identification
 00047E D203 7004 A82C 00004 00A20  3286  3  299.                    MVC   CABLINK,=F'-1'      | Neatness
 000484 D203 7008 A82C 00008 00A20  3287  3  300.                    MVC   CABQF,=F'-1'        |
 00048A D203 700C A82C 0000C 00A20  3288  3  301.                    MVC   CABQB,=F'-1'        |
                                    3289  3  302.
 DROP   @LOCKS-72,R13               3290  3  303.                    VMFREE A=L:CABBUFP,L:CITDLEN,LOC=GLOBHI,FIX=YES,SP=06
 USING  @VMFREE-72,R13
 000490 D709 D048 D048 00000 00000  3317  3          +
 000496 D203 D04C 6018 00004 00018  3322  3          +
 00049C D203 D048 7038 00000 00038  3327  3          +
 0004A2 D201 D050 A864 00008 00A58  3328  3          +
 0004A8 58F0 A828/0DEF       00A1C  3331  3          +
 0004AE D203 7038 A82C 00038 00A20  3333  3  304.                    MVC   CABBUFP,=F'-1'      Buffer has been released
                                    3334  3  305.
 0004B4                             3335  3  306.                    VMFREE A=LA:CAB,L'CAB,LOC=GLOBHI,FIX=YES,SP=05  Release CAB
 0004B4 D709 D048 D048 00000 00000  3352  3          +
 0004BA 4100 0050            00050  3364  3          +
 0004BE 5000 D04C            00004  3369  3          +
 0004C2 5070 D048            00000  3380  3          +
 0004C6 D201 D050 A860 00008 00A54  3381  3          +
 0004CC 58F0 A828/0DEF       00A1C  3384  3          +
                                    3386  3  307.
 0004D2 5820 601C/1832       0001C  3387  3  308.                    DECRR RA,RB,CITDCUR       One less buffer now
 0004D8 0630/BA23 601C       0001C  3390  3          +
 0004DE 4770 A2DE            004D2  3392  3          +
 0004E2                             3393  2  309.                  END
                                    3397  2  310.
 DROP   @VMFREE-72,R13              3398  2  311.                  LKREL CITLOCK             Release exclusive control
 USING  @LOCKS-72,R13
 0004E2 D203 D048 6008 00000 00008  3417  2          +
 0004E8 58F0 A83C/0DEF       00A30  3420  2          +
 0004EE 47F0 A062            00256  3422  1  312.                END
                                    3427  1  313.
 0004F2 1B00                        3428  1  314.                CLEAR RVR                 Set good return code
 DROP   CAB,R7                      3432     315.              END
                                    3441     316.              ¿þþþþþþþþþþþþþþþþþþþþþþþþþþþþþþÜ
                                    3442     317.              Ÿ  Control 2: Enable Caching.  Ÿ
                                    3443     318.              ¾þþþþþþþþþþþþþþþþþþþþþþþþþþþþþþ»
 0004F4 A304           004F4 0024E  3444     319.              ELSEIF (@CACCNO,EQ,=F'2'),BEGIN  Enable caching...
 0004F4 47F0 A3A8            0059C  3450             +
 0004F8 D503 A848 C04C 00A3C 00004  3463             +
 0004FE 4770 A3A8            0059C  3464             +
 000502 9180 6004      00004        3469  1  320.                IF    CITFDISABLED,BEGIN  Currently disabled...
 000506 47E0 A3A6            0059A  3479  1          +
 00050A 4170 607C            0007C  3484  2  321.                  LA    CABR,CITLRUQ
 USING  CAB,R7                      3485  2  322.                  WITH  CAB
 00050E 5970 700C            0000C  3497  2  323.                  FAIL  (CABR,NE,CABQB),CA2ERRB  Cache enable error
 000512 4780 A352            00546  3510  2          +
 USING  PZERO,R0
 000516 AC04 021B      0021B        3527  3          +
1FILCACHE (FILC00) (09:38) (22MAR04) Cache Control Routine                                                                  Page   18
0Current Usings:  (PZERO,R0) (CIT,R6) (CAB,R7) (CACTRL,R10) (@CACTRL-72,R12) (@LOCKS-72,R13)
0Loc    Object Code    Addr1 Addr2  Stmt Lv Lineno    Source Statement           (Hibal 5, Asmedit 3.3)  HLASM R4.0  2004/03/22 09.38
+___    ______ ____    _____ _____  ____ __ ______    ______ _________
000051A 9680 021A      0021A        3533  3          +
 00051E 50F0 021C            0021C  3534  3          +
 000522 58F0 0210            00210  3535  3          +
 000526 89F0 0010            00010  3536  3          +
 00052A 88F0 0010            00010  3537  3          +
 00052E 41F0 F000            00000  3538  3          +
 000532 AEFF 0006            00006  3539  3          +
 000536 C3C1F2C5D9D9C240            3540  2          +
 DROP   PZERO,R0
 000546 5970 7008            00008  3553  2  324.                  FAIL  (CABR,NE,CABQF),CA2ERRF  Cache enable error
 00054A 4780 A38A            0057E  3566  2          +
 USING  PZERO,R0
 00054E AC04 021B      0021B        3583  3          +
 000552 9680 021A      0021A        3589  3          +
 000556 50F0 021C            0021C  3590  3          +
 00055A 58F0 0210            00210  3591  3          +
 00055E 89F0 0010            00010  3592  3          +
 000562 88F0 0010            00010  3593  3          +
 000566 41F0 F000            00000  3594  3          +
 00056A AEFF 0006            00006  3595  3          +
 00056E C3C1F2C5D9D9C640            3596  2          +
 DROP   PZERO,R0
                                    3609  2  325.     *
 00057E                             3610  2  326.                  LKOB  CITLOCK             Get exclusive control
 00057E D203 D048 6008 00000 00008  3619  2          +
 000584 58F0 A838/0DEF       00A2C  3622  2          +
 00058A 947F 6004      00004        3624  2  327.                  CLEAR CITFDISABLED        Enable cache
 00058E                             3631  2  328.                  LKREL CITLOCK             Release exclusive control
 00058E D203 D048 6008 00000 00008  3640  2          +
 000594 58F0 A83C/0DEF       00A30  3643  2          +
 DROP   CAB,R7                      3645  1  329.                END
                                    3654  1  330.
 00059A 1B00                        3655  1  331.                CLEAR RVR                 A-ok
 00059C                             3659     332.              END
                                    3663     333.              ¿þþþþþþþþþþþþþþþþþþþþþþþþþþþþþþþÜ
                                    3664     334.              Ÿ  Control 3: Disable Caching.  Ÿ
                                    3665     335.              ¾þþþþþþþþþþþþþþþþþþþþþþþþþþþþþþþ»
 00059C A3AC           0059C 00500  3666     336.              ELSEIF (@CACCNO,EQ,=F'3'),BEGIN  Disable caching...
 00059C 47F0 A3E2            005D6  3672             +
 0005A0 D503 A84C C04C 00A40 00004  3685             +
 0005A6 4770 A3E2            005D6  3686             +
 0005AA 9180 6004      00004        3691  1  337.                IF    ~CITFDISABLED,BEGIN Currently enabled...
 0005AE 4710 A3E0            005D4  3701  1          +
 0005B2                             3706  2  338.                  LKOB  CITLOCK             Get exclusive control
 0005B2 D203 D048 6008 00000 00008  3715  2          +
 0005B8 58F0 A838/0DEF       00A2C  3718  2          +
 0005BE 9680 6004      00004        3720  2  339.                  SET   CITFDISABLED        Disable cache
 0005C2 58F0 A850/0DEF       00A44  3726  2  340.                  ACALL CAPURGE             Purge current cache
 0005C8                             3733  2  341.                  LKREL CITLOCK             Release control
 0005C8 D203 D048 6008 00000 00008  3742  2          +
 0005CE 58F0 A83C/0DEF       00A30  3745  2          +
 0005D4                             3747  1  342.                END
                                    3751  1  343.
 0005D4 1B00                        3752  1  344.                CLEAR RVR                 A-ok
1FILCACHE (FILC00) (09:38) (22MAR04) Cache Control Routine                                                                  Page   19
0Current Usings:  (CIT,R6) (CACTRL,R10) (@CACTRL-72,R12) (@LOCKS-72,R13)
0Loc    Object Code    Addr1 Addr2  Stmt Lv Lineno    Source Statement           (Hibal 5, Asmedit 3.3)  HLASM R4.0  2004/03/22 09.38
+___    ______ ____    _____ _____  ____ __ ______    ______ _________
00005D6                             3756     345.              END
                                    3760     346.              ¿þþþþþþþþþþþþþþþþþþþþþþþþþþþþþþþþþþþÜ
                                    3761     347.              Ÿ  Control 4: Purge current cache.  Ÿ
                                    3762     348.              ¾þþþþþþþþþþþþþþþþþþþþþþþþþþþþþþþþþþþ»
 0005D6 A3E6           005D6 005A8  3763     349.              ELSEIF (@CACCNO,EQ,=F'4'),BEGIN  Purge current cache...
 0005D6 47F0 A410            00604  3769             +
 0005DA D503 A854 C04C 00A48 00004  3782             +
 0005E0 4770 A410            00604  3783             +
 0005E4                             3788  1  350.                LKOB  CITLOCK             Get exclusive control
 0005E4 D203 D048 6008 00000 00008  3797  1          +
 0005EA 58F0 A838/0DEF       00A2C  3800  1          +
 0005F0 58F0 A850/0DEF       00A44  3802  1  351.                ACALL CAPURGE             Purge current cache entries
 0005F6                             3809  1  352.                LKREL CITLOCK             Release exclusive control
 0005F6 D203 D048 6008 00000 00008  3818  1          +
 0005FC 58F0 A83C/0DEF       00A30  3821  1          +
                                    3823  1  353.
 000602 1B00                        3824  1  354.                CLEAR RVR                 A-ok
 000604                             3828     355.              END
                                    3832     356.              ¿þþþþþþþþþþþþþþþþþþþþþþþþþþþþþþþþþþþþþþþþþþþþþþþþþþþÜ
                                    3833     357.              Ÿ  Control 5: Turn cache data verification on/off.  Ÿ
                                    3834     358.              ¾þþþþþþþþþþþþþþþþþþþþþþþþþþþþþþþþþþþþþþþþþþþþþþþþþþþ»
 000604 A414           00604 005E2  3835     359.              ELSEIF (@CACCNO,EQ,=F'5'),BEGIN  Set data verify mode...
 000604 47F0 A45C            00650  3841             +
 000608 D503 A858 C04C 00A4C 00004  3854             +
 00060E 4770 A45C            00650  3855             +
 000612                             3860  1  360.                LKOB  CITLOCK             Get exclusive control
 000612 D203 D048 6008 00000 00008  3869  1          +
 000618 58F0 A838/0DEF       00A2C  3872  1          +
 00061E                             3874  1  361.                IF    (@CACPARM,Z),'CLEAR CITFVERIFY'
 00061E D603 C050 C050 00008 00008  3884  1          +
 000624 4770 A438            0062C  3885  1          +
 000628 94BF 6004      00004        3897  1          +
                                    3902  1  362.
 00062C A43C           0062C 00626  3903  1  363.                ELSE  BEGIN
 00062C 47F0 A44E            00642  3908  1          +
 000630 9140 6004      00004        3914  2  364.                  IF    CITFVERIFY,EXIT     Already in verify mode, scram
 000634 4710 A44E            00642  3926  2          +
 000638 58F0 A850/0DEF       00A44  3932  2  365.                  ACALL CAPURGE             Purge current cache
 00063E 9640 6004      00004        3939  2  366.                  SET   CITFVERIFY          Now start verifying data
 000642                             3945  1  367.                END
                                    3949  1  368.
 000642                             3950  1  369.                LKREL CITLOCK             Release control
 000642 D203 D048 6008 00000 00008  3959  1          +
 000648 58F0 A83C/0DEF       00A30  3962  1          +
                                    3964  1  370.
 00064E 1B00                        3965  1  371.                CLEAR RVR                 A-ok
 000650                             3969     372.              END
                                    3973     373.              ¿þþþþþþþþþþþþþþþþþþþþÜ
                                    3974     374.              Ÿ  Unknown control.  Ÿ
                                    3975     375.              ¾þþþþþþþþþþþþþþþþþþþþ»
 000650 A460           00650 00610  3976     376.              ELSE  BEGIN               Error...
 000650 47F0 A464            00658  3981             +
 000654 4100 0014            00014  3987  1  377.                LA    RVR,20              Error return code
 000658                             3988     378.              END
1FILCACHE (FILC00) (09:38) (22MAR04) Cache Control Routine                                                                  Page   20
0Current Usings:  (CIT,R6) (CACTRL,R10) (@CACTRL-72,R12) (@LOCKS-72,R13)
0Loc    Object Code    Addr1 Addr2  Stmt Lv Lineno    Source Statement           (Hibal 5, Asmedit 3.3)  HLASM R4.0  2004/03/22 09.38
+___    ______ ____    _____ _____  ____ __ ______    ______ _________
0                                   3992     379.
 000658 981F C008            00008  3993     380.     CACTEXIT PEND
 DROP   CIT,R6
 DROP   @CACTRL-72,R12
 DROP   CACTRL,R10
 00065C 9680 C000/0B0E 00000        4014             +
 DROP   @LOCKS-72,R13
1FILCACHE (FILC00) (09:38) (22MAR04) Cache Control Routine                                                                  Page   21
0Loc    Object Code    Addr1 Addr2  Stmt Lv Lineno    Source Statement           (Hibal 5, Asmedit 3.3)  HLASM R4.0  2004/03/22 09.38
+___    ______ ____    _____ _____  ____ __ ______    ______ _________
0                                   4024     382.     ¿þþþþþþþþþþþþþþþþþþþþþþþþþþþþþþþþþþþþþþþþþþþþþþþþþþþþþþþþþþþþþþþþþþþþþÜ
                                    4025     383.     Ÿ                                                                     Ÿ
                                    4026     384.     Ÿ  CAUNLINK -- Local routine to unlink the current CAB from the       Ÿ
                                    4027     385.     Ÿ    hashed queue.  Must be called with queue manipulation lock       Ÿ
                                    4028     386.     Ÿ    held.                                                            Ÿ
                                    4029     387.     Ÿ                                                                     Ÿ
                                    4030     388.     Ÿ    On entry:                                                        Ÿ
                                    4031     389.     Ÿ      CABR - our CAB ptr                                             Ÿ
                                    4032     390.     Ÿ      CITR - our CIT ptr                                             Ÿ
                                    4033     391.     Ÿ                                                                     Ÿ
                                                      ¾þþþþþþþþþþþþþþþþþþþþþþþþþþþþþþþþþþþþþþþþþþþþþþþþþþþþþþþþþþþþþþþþþþþþþ»
0000662                             4034     392.     CAUNLINK PROC
 000662 C3C1E4D5D3C9D5D2            4041             +
 00066A 0000/0000                   4042             +
 00066E 900F D004/18AF       00004  4044             +
 USING  CAUNLINK,R10
 000674 50D0 C000/18CD       00000  4059             +
 00067A 9680 C000      00000        4061             +
 00067E 41D0 C048            00048  4062             +
 USING  CIT,R6                      4063     393.              WITH  CIT,CAB             Entry assumptions
 USING  CAB,R7
                                    4084     394.
 000682                             4085     395.              FAIL  (CIT,NE,'CIT'),CAUNLINK_BADCIT  Bad CIT ptr
 000682 D502 A3EE 6000 00A5C 00000  4097             +
 000688 4780 A04E            006BC  4098             +
 USING  PZERO,R0
 00068C AC04 021B      0021B        4115  1          +
 000690 9680 021A      0021A        4121  1          +
 000694 50F0 021C            0021C  4122  1          +
 000698 58F0 0210            00210  4123  1          +
 00069C 89F0 0010            00010  4124  1          +
 0006A0 88F0 0010            00010  4125  1          +
 0006A4 41F0 F000            00000  4126  1          +
 0006A8 AEFF 0006            00006  4127  1          +
 0006AC C3C1E4D5D3C9D5D2            4128             +
 DROP   PZERO,R0
 0006BC                             4141     396.              FAIL  (CAB,NE,'CAB'),CAUNLINK_BADCAB  Bad CAB ptr
 0006BC D502 A3F1 7000 00A5F 00000  4153             +
 0006C2 4780 A088            006F6  4154             +
 USING  PZERO,R0
 0006C6 AC04 021B      0021B        4171  1          +
 0006CA 9680 021A      0021A        4177  1          +
 0006CE 50F0 021C            0021C  4178  1          +
 0006D2 58F0 0210            00210  4179  1          +
 0006D6 89F0 0010            00010  4180  1          +
 0006DA 88F0 0010            00010  4181  1          +
 0006DE 41F0 F000            00000  4182  1          +
 0006E2 AEFF 0006            00006  4183  1          +
 0006E6 C3C1E4D5D3C9D5D2            4184             +
 DROP   PZERO,R0
                                    4197     397.     *
 0006F6 9823 7010            00010  4198     398.              LM    RA,RB,CABKEY        Get key
 0006FA 8920 0010/1E32       00010  4199     399.              CAHASH RA,RB              RA = num between 0 and CITNHASH-1
 000700 5430 A3E2/1B22       00A50  4202             +
 000706 5D20 60CC            000CC  4207             +
1FILCACHE (FILC00) (09:38) (22MAR04) Cache Control Routine                                                                  Page   22
0Current Usings:  (CIT,R6) (CAB,R7) (CAUNLINK,R10)
0Loc    Object Code    Addr1 Addr2  Stmt Lv Lineno    Source Statement           (Hibal 5, Asmedit 3.3)  HLASM R4.0  2004/03/22 09.38
+___    ______ ____    _____ _____  ____ __ ______    ______ _________
000070A 8920 0002            00002  4208     400.              SLL   RA,2                Times 4 for word offset
 00070E 4142 60CC            000CC  4209     401.              LA    RJ,CITHASHQ-(CABLINK-CAB)(RA)  Dummy prev entry ptr
 000712 5852 60D0            000D0  4210     402.              L     RK,CITHASHQ(RA)     Get first entry in our queue
 000716 1255/4780 A0CE       0073C  4211     403.              WHILE (RK,NZ),BEGIN       Go through CAB queue...
 DROP   CAB,R7                      4227  1  404.                WITH  (CAB,RK)
 USING  CAB,R5
 00071C 1957/4770 A0C4       00732  4248  1  405.                IF    (RK,EQ,CABR),BEGIN  It's our CAB...
 000722 D203 4004 5004 00004 00004  4263  2  406.                  MVC   CABLINK-CAB(4,RJ),CABLINK  Dequeue
 000728 D203 5004 A3B2 00004 00A20  4264  2  407.                  MVC   CABLINK,=F'-1'      Neatness
 00072E 47F0 A0FE            0076C  4265  2  408.                  B     CAUNEXIT            All done, scram
 000732                             4266  1  409.                END
                                    4270  1  410.
 000732 1845                        4271  1  411.                LR    RJ,RK               Save prev CAB ptr
 000734 5850 5004            00004  4272  1  412.                L     RK,CABLINK          Get next CAB
 000738 47F0 A0A8            00716  4273     413.              END
 USING  CAB,R7
 DROP   CAB,R5
                                    4292     414.
 00073C AC04 021B      0021B        4293     415.              ABORT CAUNLINK_BADQ       Bad cache hashed queue
 USING  PZERO,R0
 000740 9680 021A      0021A        4311             +
 000744 50F0 021C            0021C  4312             +
 000748 58F0 0210            00210  4313             +
 00074C 89F0 0010            00010  4314             +
 000750 88F0 0010            00010  4315             +
 000754 41F0 F000            00000  4316             +
 000758 AEFF 0006            00006  4317             +
 00075C C3C1E4D5D3C9D5D2            4318             +
 DROP   PZERO,R0
                                    4327     416.
 00076C 981F C008            00008  4328     417.     CAUNEXIT PEND
 DROP   CAB,R7
 DROP   CIT,R6
 DROP   CAUNLINK,R10
 000770 9680 C000/0B0E 00000        4349             +
1FILCACHE (FILC00) (09:38) (22MAR04) Cache Control Routine                                                                  Page   23
0Loc    Object Code    Addr1 Addr2  Stmt Lv Lineno    Source Statement           (Hibal 5, Asmedit 3.3)  HLASM R4.0  2004/03/22 09.38
+___    ______ ____    _____ _____  ____ __ ______    ______ _________
0                                   4356     419.     ¿þþþþþþþþþþþþþþþþþþþþþþþþþþþþþþþþþþþþþþþþþþþþþþþþþþþþþþþþþþþþþþþþþþþþþÜ
                                    4357     420.     Ÿ                                                                     Ÿ
                                    4358     421.     Ÿ  CAPURGE -- Local routine to purge all entries from the cache.      Ÿ
                                    4359     422.     Ÿ    Must be called with queue manipulation lock held.                Ÿ
                                    4360     423.     Ÿ                                                                     Ÿ
                                    4361     424.     Ÿ    On entry:                                                        Ÿ
                                    4362     425.     Ÿ      CITR - our CIT ptr                                             Ÿ
                                    4363     426.     Ÿ                                                                     Ÿ
                                                      ¾þþþþþþþþþþþþþþþþþþþþþþþþþþþþþþþþþþþþþþþþþþþþþþþþþþþþþþþþþþþþþþþþþþþþþ»
0000776                             4364     427.     CAPURGE  PROC
 000776 C3C1D7E4D9C7C540            4371             +
 00077E 0000/0000                   4372             +
 000782 900F D004/18AF       00004  4374             +
 USING  CAPURGE,R10
 000788 50D0 C000/18CD       00000  4389             +
 00078E 9680 C000      00000        4391             +
 000792 41D0 C048            00048  4392             +
 USING  CIT,R6                      4393     428.              WITH  CIT                 Entry assumption
                                    4405     429.
 000796                             4406     430.              FAIL  (CIT,NE,'CIT'),CAPURGE_BADCIT  Bad CIT ptr
 000796 D502 A2DA 6000 00A5C 00000  4418             +
 00079C 4780 A04E            007D0  4419             +
 USING  PZERO,R0
 0007A0 AC04 021B      0021B        4436  1          +
 0007A4 9680 021A      0021A        4442  1          +
 0007A8 50F0 021C            0021C  4443  1          +
 0007AC 58F0 0210            00210  4444  1          +
 0007B0 89F0 0010            00010  4445  1          +
 0007B4 88F0 0010            00010  4446  1          +
 0007B8 41F0 F000            00000  4447  1          +
 0007BC AEFF 0006            00006  4448  1          +
 0007C0 C3C1D7E4D9C7C56D            4449             +
 DROP   PZERO,R0
                                    4462     431.              LKVER CITLOCK             Verify that lock is held
                                    4464     432.
 0007D0                             4465     433.              LOOP  BEGIN
 0007D0 4170 607C            0007C  4471  1  434.                LA    CABR,CITLRUQ        Master LRU CAB
 USING  CAB,R7                      4472  1  435.                WITH  CAB
 0007D4 5870 7008            00008  4484  1  436.                L     CABR,CABQF          Get next CAB ptr
 0007D8                             4485  1  437.                IF    (CABBUFP,Z),EXIT    All done, scram
 0007D8 D603 7038 7038 00038 00038  4495  1          +
 0007DE 4780 A0B8            0083A  4498  1          +
                                    4504  1  438.
 0007E2 4120 7000            00000  4505  1  439.                CADQ  RA,RB               De-queue CAB from LRU Q
 0007E6 5830 200C            0000C  4509  1          +
 0007EA D203 3008 2008 00008 00008  4510  1          +
 0007F0 5830 2008            00008  4511  1          +
 0007F4 D203 300C 200C 0000C 0000C  4512  1          +
 0007FA 5830 A29E            00A20  4513  1          +
 0007FE 5030 200C            0000C  4514  1          +
 000802 5030 2008            00008  4515  1          +
 000806 58F0 A2B2/0DEF       00A34  4516  1  440.                ACALL CAUNLINK            Unlink CAB from hashed Q
 00080C 4120 7000            00000  4523  1  441.                CAQ   RA,RB,FREEQ         Re-queue CAB to free Q
 000810 4130 602C            0002C  4525  1          +
 000814 5030 200C            0000C  4528  1          +
1FILCACHE (FILC00) (09:38) (22MAR04) Cache Control Routine                                                                  Page   24
0Current Usings:  (CIT,R6) (CAB,R7) (CAPURGE,R10)
0Loc    Object Code    Addr1 Addr2  Stmt Lv Lineno    Source Statement           (Hibal 5, Asmedit 3.3)  HLASM R4.0  2004/03/22 09.38
+___    ______ ____    _____ _____  ____ __ ______    ______ _________
0000818 5830 3008            00008  4529  1          +
 00081C 5030 2008            00008  4530  1          +
 000820 5020 300C            0000C  4531  1          +
 000824 4130 602C            0002C  4532  1          +
 000828 5020 3008            00008  4533  1          +
 00082C B205 D000      00000        4534  1          +
 000830 D203 704C D000 0004C 00000  4535  1          +
 000836 47F0 A04E            007D0  4536     442.              END
 DROP   CAB,R7
                                    4546     443.
 00083A 981F C008            00008  4547     444.              PEND
 DROP   CIT,R6
 DROP   CAPURGE,R10
 00083E 9680 C000/0B0E 00000        4562             +
1FILCACHE (FILC00) (09:38) (22MAR04) Cache Control Routine                                                                  Page   25
0Loc    Object Code    Addr1 Addr2  Stmt Lv Lineno    Source Statement           (Hibal 5, Asmedit 3.3)  HLASM R4.0  2004/03/22 09.38
+___    ______ ____    _____ _____  ____ __ ______    ______ _________
0                                   4569     446.     ¿þþþþþþþþþþþþþþþþþþþþþþþþþþþþþþþþþþþþþþþþþþþþþþþþþþþþþþþþþþþþþþþþþþþþþÜ
                                    4570     447.     Ÿ                                                                     Ÿ
                                    4571     448.     Ÿ  CACHKSUM -- Local routine to calculate a one word checksum from    Ÿ
                                    4572     449.     Ÿ    both the header and the data.  Data verification mode can be     Ÿ
                                    4573     450.     Ÿ    used (at the expense of performance) if there is ever a          Ÿ
                                    4574     451.     Ÿ    suspicion that there is a core clobber.                          Ÿ
                                    4575     452.     Ÿ                                                                     Ÿ
                                    4576     453.     Ÿ    On entry:                                                        Ÿ
                                    4577     454.     Ÿ      CABR - our CAB ptr                                             Ÿ
                                    4578     455.     Ÿ      CITR - our CIT ptr                                             Ÿ
                                    4579     456.     Ÿ                                                                     Ÿ
                                    4580     457.     Ÿ    On exit:                                                         Ÿ
                                    4581     458.     Ÿ      RVR - checksum word for header and data                        Ÿ
                                    4582     459.     Ÿ                                                                     Ÿ
                                                      ¾þþþþþþþþþþþþþþþþþþþþþþþþþþþþþþþþþþþþþþþþþþþþþþþþþþþþþþþþþþþþþþþþþþþþþ»
0000844                             4583     460.     CACHKSUM PROC
 000844 C3C1C3C8D2E2E4D4            4590             +
 00084C 0000/0000                   4591             +
 000850 900F D004/18AF       00004  4593             +
 USING  CACHKSUM,R10
 000856 50D0 C000/18CD       00000  4608             +
 00085C 9680 C000      00000        4610             +
 000860 41D0 C048            00048  4611             +
 USING  CIT,R6                      4612     461.              WITH  CIT,CAB             Entry assumptions
 USING  CAB,R7
                                    4633     462.
 000864                             4634     463.              FAIL  (CIT,NE,'CIT'),CACHKSUM_BADCIT  Bad CIT ptr
 000864 D502 A20C 6000 00A5C 00000  4646             +
 00086A 4780 A04E            0089E  4647             +
 USING  PZERO,R0
 00086E AC04 021B      0021B        4664  1          +
 000872 9680 021A      0021A        4670  1          +
 000876 50F0 021C            0021C  4671  1          +
 00087A 58F0 0210            00210  4672  1          +
 00087E 89F0 0010            00010  4673  1          +
 000882 88F0 0010            00010  4674  1          +
 000886 41F0 F000            00000  4675  1          +
 00088A AEFF 0006            00006  4676  1          +
 00088E C3C1C3C8D2E2E4D4            4677             +
 DROP   PZERO,R0
 00089E                             4690     464.              FAIL  (CAB,NE,'CAB'),CACHKSUM_BADCAB  Bad CAB ptr
 00089E D502 A20F 7000 00A5F 00000  4702             +
 0008A4 4780 A088            008D8  4703             +
 USING  PZERO,R0
 0008A8 AC04 021B      0021B        4720  1          +
 0008AC 9680 021A      0021A        4726  1          +
 0008B0 50F0 021C            0021C  4727  1          +
 0008B4 58F0 0210            00210  4728  1          +
 0008B8 89F0 0010            00010  4729  1          +
 0008BC 88F0 0010            00010  4730  1          +
 0008C0 41F0 F000            00000  4731  1          +
 0008C4 AEFF 0006            00006  4732  1          +
 0008C8 C3C1C3C8D2E2E4D4            4733             +
 DROP   PZERO,R0
                                    4746     465.              LKVER CITLOCK             Verify that lock is held
1FILCACHE (FILC00) (09:38) (22MAR04) Cache Control Routine                                                                  Page   26
0Current Usings:  (CIT,R6) (CAB,R7) (CACHKSUM,R10)
0Loc    Object Code    Addr1 Addr2  Stmt Lv Lineno    Source Statement           (Hibal 5, Asmedit 3.3)  HLASM R4.0  2004/03/22 09.38
+___    ______ ____    _____ _____  ____ __ ______    ______ _________
0                                   4748     466.
 0008D8 1B00                        4749     467.              CLEAR RVR                 Initialize checksum word
                                    4753     468.              ¿þþþþþþþþþþþþþþþþþþþþþþþþþþþþþþþþþþþþÜ
                                    4754     469.              Ÿ  Calculate header checksum first.  Ÿ
                                    4755     470.              ¾þþþþþþþþþþþþþþþþþþþþþþþþþþþþþþþþþþþþ»
 0008DA 4120 7018            00018  4756     471.              LA    RA,CABHDR           Get header data ptr
 0008DE 4130 0020            00020  4757     472.              LA    RB,L'CABHDR         Header length
                                    4758     473.
 0008E2 1813                        4759     474.              LR    RS,RB
 0008E4 5410 A1F0            00A40  4760     475.              N     RS,=F'3'
 0008E8 4780 A0CC            0091C  4761     476.              FAIL  NZ,CACHKSUM_HDRERR  Header length not mult of 4
 USING  PZERO,R0
 0008EC AC04 021B      0021B        4785  1          +
 0008F0 9680 021A      0021A        4791  1          +
 0008F4 50F0 021C            0021C  4792  1          +
 0008F8 58F0 0210            00210  4793  1          +
 0008FC 89F0 0010            00010  4794  1          +
 000900 88F0 0010            00010  4795  1          +
 000904 41F0 F000            00000  4796  1          +
 000908 AEFF 0006            00006  4797  1          +
 00090C C3C1C3C8D2E2E4D4            4798             +
 DROP   PZERO,R0
                                    4811     477.     *
 00091C 1233/47D0 A0F2       00942  4812     478.              WHILE (RB,POS),BEGIN      Checksum header...
 000922 1830                        4828  1  479.                LR    RB,RVR
 000924 8900 0001            00001  4829  1  480.                SLL   RVR,1               Rotate left one bit
 000928 1233/47B0 A0E2       00932  4830  1  481.                IF    (RB,NEG),'O RVR,=F"1"'  Move rotated bit to LSB
 00092E 5600 A1D8            00A28  4845  1          +
 000932 5700 2000            00000  4850  1  482.                X     RVR,@RA             X-or in next word
                                    4851  1  483.
 000936 4120 2004            00004  4852  1  484.                LA    RA,@RA+4            Next word
 00093A 4B30 A20A            00A5A  4853  1  485.                SH    RB,=H'4'            One word less now
 00093E 47F0 A0CC            0091C  4854     486.              END
                                    4859     487.              ¿þþþþþþþþþþþþþþþþþþþþþþþþþþþþþþþþþþþþþþþþÜ
                                    4860     488.              Ÿ  Now checksum the data in the buffer.  Ÿ
                                    4861     489.              ¾þþþþþþþþþþþþþþþþþþþþþþþþþþþþþþþþþþþþþþþþ»
 000942 5820 7038/1222       00038  4862     490.              LT    RA,CABBUFP          Get data buffer ptr
 000948 4770 A12C            0097C  4866     491.              FAIL  Z,CACHKSUM_NOBUF    No data
 USING  PZERO,R0
 00094C AC04 021B      0021B        4890  1          +
 000950 9680 021A      0021A        4896  1          +
 000954 50F0 021C            0021C  4897  1          +
 000958 58F0 0210            00210  4898  1          +
 00095C 89F0 0010            00010  4899  1          +
 000960 88F0 0010            00010  4900  1          +
 000964 41F0 F000            00000  4901  1          +
 000968 AEFF 0006            00006  4902  1          +
 00096C C3C1C3C8D2E2E4D4            4903             +
 DROP   PZERO,R0
 00097C 5830 6018            00018  4916     492.              L     RB,CITDLEN          Maximum length of data
                                    4917     493.
 000980 1813                        4918     494.              LR    RS,RB
 000982 5410 A1F0            00A40  4919     495.              N     RS,=F'3'
 000986 4780 A16A            009BA  4920     496.              FAIL  NZ,CACHKSUM_BUFERR  Buffer length not mult of 4
1FILCACHE (FILC00) (09:38) (22MAR04) Cache Control Routine                                                                  Page   27
0Current Usings:  (PZERO,R0) (CIT,R6) (CAB,R7) (CACHKSUM,R10)
0Loc    Object Code    Addr1 Addr2  Stmt Lv Lineno    Source Statement           (Hibal 5, Asmedit 3.3)  HLASM R4.0  2004/03/22 09.38
+___    ______ ____    _____ _____  ____ __ ______    ______ _________
0USING  PZERO,R0
 00098A AC04 021B      0021B        4944  1          +
 00098E 9680 021A      0021A        4950  1          +
 000992 50F0 021C            0021C  4951  1          +
 000996 58F0 0210            00210  4952  1          +
 00099A 89F0 0010            00010  4953  1          +
 00099E 88F0 0010            00010  4954  1          +
 0009A2 41F0 F000            00000  4955  1          +
 0009A6 AEFF 0006            00006  4956  1          +
 0009AA C3C1C3C8D2E2E4D4            4957             +
 DROP   PZERO,R0
                                    4970     497.     *
 0009BA 1233/47D0 A190       009E0  4971     498.              WHILE (RB,POS),BEGIN      Checksum data buffer...
 0009C0 1830                        4987  1  499.                LR    RB,RVR
 0009C2 8900 0001            00001  4988  1  500.                SLL   RVR,1               Rotate left one bit
 0009C6 1233/47B0 A180       009D0  4989  1  501.                IF    (RB,NEG),'O RVR,=F"1"'  Move rotated bit to LSB
 0009CC 5600 A1D8            00A28  5004  1          +
 0009D0 5700 2000            00000  5009  1  502.                X     RVR,@RA             X-or in next word
                                    5010  1  503.
 0009D4 4120 2004            00004  5011  1  504.                LA    RA,@RA+4            Next word
 0009D8 4B30 A20A            00A5A  5012  1  505.                SH    RB,=H'4'            One word less now
 0009DC 47F0 A16A            009BA  5013     506.              END
                                    5018     507.
 0009E0 981F C008            00008  5019     508.              PEND
 DROP   CAB,R7
 DROP   CIT,R6
 DROP   CACHKSUM,R10
 0009E4 9680 C000/0B0E 00000        5039             +
                                    5045     509.
 0009F0                             5046     510.              LTORG
 0009F0 C6C9D3C56DC3C1C3            5048                             =CL16'FILE_CACHE'
 000A00 000000D0                    5049                             =A(L'CIT)
 000A04 0000EC44                    5050                             =A(CITDEFH#*4)
 000A08 00000000                    5051                             =V(VMGET)
 000A0C C3C9E340                    5052                             =CL4'CIT'
 000A10 00003B11                    5053                             =A(CITDEFH#)
 000A14 C3C1C240                    5054                             =CL4'CAB'
 000A18 00000000                    5055                             =V(LKCRE)
 000A1C 00000000                    5056                             =V(VMFREE)
 000A20 FFFFFFFF                    5057                             =F'-1'
 000A24 000001F4                    5058                             =A(CACTRL)
 000A28 00000001                    5059                             =F'1'
 000A2C 00000000                    5060                             =V(LKOB)
 000A30 00000000                    5061                             =V(LKREL)
 000A34 0000066E                    5062                             =A(CAUNLINK)
 000A38 E7C3C1C2                    5063                             =C'XCAB'
 000A3C 00000002                    5064                             =F'2'
 000A40 00000003                    5065                             =F'3'
 000A44 00000782                    5066                             =A(CAPURGE)
 000A48 00000004                    5067                             =F'4'
 000A4C 00000005                    5068                             =F'5'
 000A50 7FFFFFFF                    5069                             =A(X'7FFFFFFF')
 000A54 3F05                        5070                             =Y(63*256+5)
 000A56 0050                        5071                             =Y(L'CAB)
1FILCACHE (FILC00) (09:38) (22MAR04) Cache Control Routine                                                                  Page   28
0Loc    Object Code    Addr1 Addr2  Stmt Lv Lineno    Source Statement           (Hibal 5, Asmedit 3.3)  HLASM R4.0  2004/03/22 09.38
+___    ______ ____    _____ _____  ____ __ ______    ______ _________
0000A58 3F06                        5072                             =Y(63*256+6)
 000A5A 0004                        5073                             =H'4'
 000A5C C3C9E3                      5074                             =C'CIT'
 000A5F C3C1C2         00A62 012D1  5075                             =C'CAB'
1FILCACHE (FILC00) (09:38) (22MAR04) Cache Read Routine                                                                     Page   29
0Loc    Object Code    Addr1 Addr2  Stmt Lv Lineno    Source Statement           (Hibal 5, Asmedit 3.3)  HLASM R4.0  2004/03/22 09.38
+___    ______ ____    _____ _____  ____ __ ______    ______ _________
0                                   5080     512.     ¿þþþþþþþþþþþþþþþþþþþþþþþþþþþþþþþþþþþþþþþþþþþþþþþþþþþþþþþþþþþþþþþþþþþþþÜ
                                    5081     513.     Ÿ                                                                     Ÿ
                                    5082     514.     Ÿ  CAREAD -- Routine to read a buffer from the cache if possible.     Ÿ
                                    5083     515.     Ÿ    Note that this routine moves the data into the user buffer,      Ÿ
                                    5084     516.     Ÿ    it never returns a pointer to the cache buffer.                  Ÿ
                                    5085     517.     Ÿ                                                                     Ÿ
                                    5086     518.     Ÿ    On entry:                                                        Ÿ
                                    5087     519.     Ÿ      @CAIO - key and data/header ptrs                               Ÿ
                                    5088     520.     Ÿ                                                                     Ÿ
                                    5089     521.     Ÿ    On exit, RVR:                                                    Ÿ
                                    5090     522.     Ÿ      0 - OK (data moved)                                            Ÿ
                                    5091     523.     Ÿ      nz- not found                                                  Ÿ
                                    5092     524.     Ÿ                                                                     Ÿ
                                                      ¾þþþþþþþþþþþþþþþþþþþþþþþþþþþþþþþþþþþþþþþþþþþþþþþþþþþþþþþþþþþþþþþþþþþþþ»
0000A62                             5093     525.     CAREAD   PROC  @CAIO,SCOPE=GLOBAL
 000A62 C3C1D9C5C1C44040            5099             +
 000A6A 0020/0000                   5100             +
 000A6E 900F D004/18AF       00004  5102             +
 USING  CAREAD,R10
 000A74 50D0 C000/18CD       00000  5117             +
 000A7A 9680 C000      00000        5119             +
 USING  @CAIO-72,R12
 000A7E 41D0 C068            00068  5133             +
 000A82 5860 C048            00000  5134     526.              L     CITR,@CAIOCIT
 USING  CIT,R6                      5135     527.              WITH  CIT
 000A86                             5147     528.              FAIL  (CIT,NE,'CIT'),CAREAD_BADCIT  Bad CIT ptr
 000A86 D502 A860 6000 012CE 00000  5159             +
 000A8C 4780 A052            00AC0  5160             +
 USING  PZERO,R0
 000A90 AC04 021B      0021B        5177  1          +
 000A94 9680 021A      0021A        5183  1          +
 000A98 50F0 021C            0021C  5184  1          +
 000A9C 58F0 0210            00210  5185  1          +
 000AA0 89F0 0010            00010  5186  1          +
 000AA4 88F0 0010            00010  5187  1          +
 000AA8 41F0 F000            00000  5188  1          +
 000AAC AEFF 0006            00006  5189  1          +
 000AB0 C3C1D9C5C1C46DC2            5190             +
 DROP   PZERO,R0
                                    5203     529.              ¿þþþþþþþþþþþþþþþþþþþþþþþþþþþþþþþþþþþþþþþþþþþþþÜ
                                    5204     530.              Ÿ  Don't do anything if caching is disabled.  Ÿ
                                    5205     531.              ¾þþþþþþþþþþþþþþþþþþþþþþþþþþþþþþþþþþþþþþþþþþþþþ»
 000AC0 9180 6004      00004        5206     532.              IF    CITFDISABLED,BEGIN  Disabled...
 000AC4 47E0 A062            00AD0  5216             +
 000AC8 4100 0018            00018  5221  1  533.                LA    RVR,24              No cache
 000ACC 47F0 A254            00CC2  5222  1  534.                B     CARDEXIT            Scram
 000AD0                             5223     535.              END
                                    5227     536.
 000AD0 5820 600C            0000C  5228     537.              INCRR RA,RB,CIT#RD        Count the read buffer call
 000AD4 4130 0001/1E32       00001  5230             +
 000ADA BA23 600C            0000C  5232             +
 000ADE 4770 A062            00AD0  5233             +
1FILCACHE (FILC00) (09:38) (22MAR04) Cache Read Routine                                                                     Page   30
0Current Usings:  (CIT,R6) (CAREAD,R10) (@CAIO-72,R12)
0Loc    Object Code    Addr1 Addr2  Stmt Lv Lineno    Source Statement           (Hibal 5, Asmedit 3.3)  HLASM R4.0  2004/03/22 09.38
+___    ______ ____    _____ _____  ____ __ ______    ______ _________
0                                   5234     538.              ¿þþþþþþþþþþþþþþþþþþþþþþþþþþþþþþþþþþþþþþþþþþþþþþþþþþþþþþþþþþþþþÜ
                                    5235     539.              Ÿ  Get buffer queue manipulation lock so nothing will change  Ÿ
                                    5236     540.              Ÿ    on us.                                                   Ÿ
                                    5237     541.              ¾þþþþþþþþþþþþþþþþþþþþþþþþþþþþþþþþþþþþþþþþþþþþþþþþþþþþþþþþþþþþþ»
 USING  @LOCKS-72,R13               5238     542.              LKOB  CITLOCK             Get exclusive lock
 000AE2 D203 D048 6008 00000 00008  5254             +
 000AE8 58F0 A82A/0DEF       01298  5257             +
                                    5259     543.              ¿þþþþþþþþþþþþþþþþþþþþþþþþþþþþþþþþþþþþþþþþþþþÜ
                                    5260     544.              Ÿ  Hash key to get appropriate queue head.  Ÿ
                                    5261     545.              ¾þþþþþþþþþþþþþþþþþþþþþþþþþþþþþþþþþþþþþþþþþþþ»
 000AEE 9823 C060            00018  5262     546.              LM    RA,RB,@CAIOKEY      Get 64-bit key
 000AF2 8920 0010/1E32       00010  5263     547.              CAHASH RA,RB              RA = num between 0 and CITNHASH-1
 000AF8 5430 A82E/1B22       0129C  5266             +
 000AFE 5D20 60CC            000CC  5271             +
 000B02 8920 0002            00002  5272     548.              SLL   RA,2                Times 4 for word offset
 000B06 5872 60D0            000D0  5273     549.              L     CABR,CITHASHQ(RA)   Get first entry in our queue
                                    5274     550.              ¿þþþþþþþþþþþþþþþþþþþþþþþþþþþþþþþþþþþþþþþþþþþþþþþþþþþþþþþþþþÜ
                                    5275     551.              Ÿ  Now go through this CAB queue to find our entry (if it  Ÿ
                                    5276     552.              Ÿ    exists).                                              Ÿ
                                    5277     553.              ¾þþþþþþþþþþþþþþþþþþþþþþþþþþþþþþþþþþþþþþþþþþþþþþþþþþþþþþþþþþ»
 000B0A 1277/4780 A240       00CAE  5278     554.              WHILE (CABR,NZ),BEGIN     Go through CAB queue...
 USING  CAB,R7                      5294  1  555.                WITH  CAB
 000B10                             5306  1  556.                IF    (CABKEY,EQ,@CAIOKEY),BEGIN  Matched...
 000B10 D507 7010 C060 00010 00018  5317  1          +
 000B16 4770 A238            00CA6  5318  1          +
                                    5323  2  557.                  ¿þþþþþþþþþþþþþþþþþþþþþþþþþþþþþþþþþþþþþþþþþþþþþþþþþþþþþþþþþþþþþÜ
                                    5324  2  558.                  Ÿ  Recalculate data checksum to make sure data has not been   Ÿ
                                    5325  2  559.                  Ÿ    clobbered (the normal production configuration does not  Ÿ
                                    5326  2  560.                  Ÿ    use this, but it could).                                 Ÿ
                                    5327  2  561.                  ¾þþþþþþþþþþþþþþþþþþþþþþþþþþþþþþþþþþþþþþþþþþþþþþþþþþþþþþþþþþþþþ»
 000B1A 9140 6004      00004        5328  2  562.                  IF    CITFVERIFY,BEGIN    Verify that buffer is OK...
 000B1E 47E0 A0F2            00B60  5338  2          +
 000B22 58F0 A832/0DEF       012A0  5343  3  563.                    ACALL CACHKSUM            Calculate checksum
 000B28 5900 703C            0003C  5350  3  564.                    FAIL  (RVR,NE,CABVRFYD),CAREAD_BADDATA  Checksum error
 000B2C 4780 A0F2            00B60  5363  3          +
 USING  PZERO,R0
 000B30 AC04 021B      0021B        5380  4          +
 000B34 9680 021A      0021A        5386  4          +
 000B38 50F0 021C            0021C  5387  4          +
 000B3C 58F0 0210            00210  5388  4          +
 000B40 89F0 0010            00010  5389  4          +
 000B44 88F0 0010            00010  5390  4          +
 000B48 41F0 F000            00000  5391  4          +
 000B4C AEFF 0006            00006  5392  4          +
 000B50 C3C1D9C5C1C46DC2            5393  3          +
 DROP   PZERO,R0
 000B60                             5406  2  565.                  END
                                    5410  2  566.                  ¿þþþþþþþþþþþþþþþþþþþþþþþþþþþþþþþþþþþþþþþþþÜ
                                    5411  2  567.                  Ÿ  Copy the header to the user's buffer.  Ÿ
                                    5412  2  568.                  ¾þþþþþþþþþþþþþþþþþþþþþþþþþþþþþþþþþþþþþþþþþ»
 000B60 5820 C04C            00004  5413  2  569.                  L     RA,@CAIOHP          Header ptr
 000B64 5830 C050            00008  5414  2  570.                  L     RB,@CAIOHL          Header length
 000B68 5530 A836            012A4  5415  2  571.                  FAIL  (RB,LGT,L'CABHDR),CAREAD_HDRLEN  Too big
 000B6C 47D0 A132            00BA0  5428  2          +
1FILCACHE (FILC00) (09:38) (22MAR04) Cache Read Routine                                                                     Page   31
0Current Usings:  (PZERO,R0) (CIT,R6) (CAB,R7) (CAREAD,R10) (@CAIO-72,R12) (@LOCKS-72,R13)
0Loc    Object Code    Addr1 Addr2  Stmt Lv Lineno    Source Statement           (Hibal 5, Asmedit 3.3)  HLASM R4.0  2004/03/22 09.38
+___    ______ ____    _____ _____  ____ __ ______    ______ _________
0USING  PZERO,R0
 000B70 AC04 021B      0021B        5445  3          +
 000B74 9680 021A      0021A        5451  3          +
 000B78 50F0 021C            0021C  5452  3          +
 000B7C 58F0 0210            00210  5453  3          +
 000B80 89F0 0010            00010  5454  3          +
 000B84 88F0 0010            00010  5455  3          +
 000B88 41F0 F000            00000  5456  3          +
 000B8C AEFF 0006            00006  5457  3          +
 000B90 C3C1D9C5C1C46DC8            5458  2          +
 DROP   PZERO,R0
 000BA0 4140 7018            00018  5471  2  572.                  LA    RJ,CABHDR           Our saved header area
 000BA4 1853                        5472  2  573.                  LR    RK,RB
 000BA6 0E24                        5473  2  574.                  MVCL  RA,RJ               Copy header to user area
                                    5474  2  575.                  ¿þþþþþþþþþþþþþþþþþþþþþþþþþþþþþþþþþþþþþþþÜ
                                    5475  2  576.                  Ÿ  Copy the data to the user's buffer.  Ÿ
                                    5476  2  577.                  ¾þþþþþþþþþþþþþþþþþþþþþþþþþþþþþþþþþþþþþþþ»
 000BA8 5820 C054            0000C  5477  2  578.                  L     RA,@CAIODP          Data ptr
 000BAC 5830 C058/1233       00010  5478  2  579.                  LT    RB,@CAIODL          Data length
 000BB2 4780 A1C0            00C2E  5482  2  580.                  IF    NZ,BEGIN            We have something...
 000BB6 5530 6018            00018  5493  3  581.                    FAIL  (RB,LGT,CITDLEN),CAREAD_LENERR  Too big
 000BBA 47D0 A180            00BEE  5506  3          +
 USING  PZERO,R0
 000BBE AC04 021B      0021B        5523  4          +
 000BC2 9680 021A      0021A        5529  4          +
 000BC6 50F0 021C            0021C  5530  4          +
 000BCA 58F0 0210            00210  5531  4          +
 000BCE 89F0 0010            00010  5532  4          +
 000BD2 88F0 0010            00010  5533  4          +
 000BD6 41F0 F000            00000  5534  4          +
 000BDA AEFF 0006            00006  5535  4          +
 000BDE C3C1D9C5C1C46DD3            5536  3          +
 DROP   PZERO,R0
 000BEE 5840 7038/1244       00038  5549  3  582.                    LT    RJ,CABBUFP          Data buffer ptr
 000BF4 1244/4770 A1BC       00C2A  5553  3  583.                    FAIL  (RJ,Z),CAREAD_ZEROBUF  Cache buffer error
 000BFA AC04 021B      0021B        5580  4          +
 USING  PZERO,R0
 000BFE 9680 021A      0021A        5586  4          +
 000C02 50F0 021C            0021C  5587  4          +
 000C06 58F0 0210            00210  5588  4          +
 000C0A 89F0 0010            00010  5589  4          +
 000C0E 88F0 0010            00010  5590  4          +
 000C12 41F0 F000            00000  5591  4          +
 000C16 AEFF 0006            00006  5592  4          +
 000C1A C3C1D9C5C1C46DE9            5593  3          +
 DROP   PZERO,R0
 000C2A 1853                        5606  3  584.                    LR    RK,RB
 000C2C 0E24                        5607  3  585.                    MVCL  RA,RJ               Copy data to user area
 000C2E                             5608  2  586.                  END
1FILCACHE (FILC00) (09:38) (22MAR04) Cache Read Routine                                                                     Page   32
0Current Usings:  (CIT,R6) (CAB,R7) (CAREAD,R10) (@CAIO-72,R12) (@LOCKS-72,R13)
0Loc    Object Code    Addr1 Addr2  Stmt Lv Lineno    Source Statement           (Hibal 5, Asmedit 3.3)  HLASM R4.0  2004/03/22 09.38
+___    ______ ____    _____ _____  ____ __ ______    ______ _________
0                                   5612  2  587.                  ¿þþþþþþþþþþþþþþþþþþþþþþþþþþþþþþþþþþþþþþþþþþþþþþþþþþþþþþþþþþÜ
                                    5613  2  588.                  Ÿ  De-queue and then re-queue so that this buffer will be  Ÿ
                                    5614  2  589.                  Ÿ    at the head of the LRU queue.                         Ÿ
                                    5615  2  590.                  ¾þþþþþþþþþþþþþþþþþþþþþþþþþþþþþþþþþþþþþþþþþþþþþþþþþþþþþþþþþþ»
 000C2E 4120 7000            00000  5616  2  591.                  CADQ  RA,RB               Dequeue
 000C32 5830 200C            0000C  5620  2          +
 000C36 D203 3008 2008 00008 00008  5621  2          +
 000C3C 5830 2008            00008  5622  2          +
 000C40 D203 300C 200C 0000C 0000C  5623  2          +
 000C46 5830 A83A            012A8  5624  2          +
 000C4A 5030 200C            0000C  5625  2          +
 000C4E 5030 2008            00008  5626  2          +
 000C52 4120 7000            00000  5627  2  592.                  CAQ   RA,RB,LRUQ          Put at the head of the LRU Q
 000C56 4130 607C            0007C  5629  2          +
 000C5A 5030 200C            0000C  5632  2          +
 000C5E 5830 3008            00008  5633  2          +
 000C62 5030 2008            00008  5634  2          +
 000C66 5020 300C            0000C  5635  2          +
 000C6A 4130 607C            0007C  5636  2          +
 000C6E 5020 3008            00008  5637  2          +
 000C72 B205 D000      00000        5638  2          +
 000C76 D203 704C D000 0004C 00000  5639  2          +
                                    5640  2  593.
 000C7C 5820 7040            00040  5641  2  594.                  INCRR RA,RB,CABNRDS       Number of times this buffer read
 000C80 4130 0001/1E32       00001  5643  2          +
 000C86 BA23 7040            00040  5645  2          +
 000C8A 4770 A20E            00C7C  5646  2          +
                                    5647  2  595.
 000C8E 5820 6010            00010  5648  2  596.                  INCRR RA,RB,CIT#RDF       Count the read buffer found
 000C92 4130 0001/1E32       00001  5650  2          +
 000C98 BA23 6010            00010  5652  2          +
 000C9C 4770 A220            00C8E  5653  2          +
 000CA0 1B00                        5654  2  597.                  CLEAR RVR                 A-ok
 000CA2 47F0 A244            00CB2  5658  2  598.                  B     CARDULK
 000CA6                             5659  1  599.                END
                                    5663  1  600.
 000CA6 5870 7004            00004  5664  1  601.                L     CABR,CABLINK        Get next CAB entry (or zero)
 000CAA 47F0 A09C            00B0A  5665     602.              END
 DROP   CAB,R7
                                    5675     603.              ¿þþþþþþþþþþþþþþþþþþþþþþþþþþþþþþþÜ
                                    5676     604.              Ÿ  Buffer is not in our cache.  Ÿ
                                    5677     605.              ¾þþþþþþþþþþþþþþþþþþþþþþþþþþþþþþþ»
 000CAE 4100 0004            00004  5678     606.              LA    RVR,4               Not found
                                    5679     607.
 000CB2 1820                        5680     608.     CARDULK  LR    RA,RVR              Save our return code
 000CB4                             5681     609.              LKREL CITLOCK             Release exclusive lock
 000CB4 D203 D048 6008 00000 00008  5690             +
 000CBA 58F0 A83E/0DEF       012AC  5693             +
 000CC0 1802                        5695     610.              LR    RVR,RA              Restore return code
                                    5696     611.
 000CC2 981F C008            00008  5697     612.     CARDEXIT PEND
 DROP   CIT,R6
 DROP   @CAIO-72,R12
 DROP   CAREAD,R10
1FILCACHE (FILC00) (09:38) (22MAR04) Cache Read Routine                                                                     Page   33
0Loc    Object Code    Addr1 Addr2  Stmt Lv Lineno    Source Statement           (Hibal 5, Asmedit 3.3)  HLASM R4.0  2004/03/22 09.38
+___    ______ ____    _____ _____  ____ __ ______    ______ _________
0000CC6 9680 C000/0B0E 00000        5718             +
 DROP   @LOCKS-72,R13
1FILCACHE (FILC00) (09:38) (22MAR04) Cache Write Routine                                                                    Page   34
0Loc    Object Code    Addr1 Addr2  Stmt Lv Lineno    Source Statement           (Hibal 5, Asmedit 3.3)  HLASM R4.0  2004/03/22 09.38
+___    ______ ____    _____ _____  ____ __ ______    ______ _________
0                                   5728     614.     ¿þþþþþþþþþþþþþþþþþþþþþþþþþþþþþþþþþþþþþþþþþþþþþþþþþþþþþþþþþþþþþþþþþþþþþÜ
                                    5729     615.     Ÿ                                                                     Ÿ
                                    5730     616.     Ÿ  CAWRITE -- Routine to copy the buffer passed to us into the        Ÿ
                                    5731     617.     Ÿ    cache.                                                           Ÿ
                                    5732     618.     Ÿ                                                                     Ÿ
                                    5733     619.     Ÿ    On entry:                                                        Ÿ
                                    5734     620.     Ÿ      @CAIO - key and data/header ptrs                               Ÿ
                                    5735     621.     Ÿ                                                                     Ÿ
                                    5736     622.     Ÿ    On exit, RVR:                                                    Ÿ
                                    5737     623.     Ÿ      0 - OK                                                         Ÿ
                                    5738     624.     Ÿ      4 - no buffers                                                 Ÿ
                                    5739     625.     Ÿ     24 - caching is disabled                                        Ÿ
                                    5740     626.     Ÿ                                                                     Ÿ
                                                      ¾þþþþþþþþþþþþþþþþþþþþþþþþþþþþþþþþþþþþþþþþþþþþþþþþþþþþþþþþþþþþþþþþþþþþþ»
0000CCC                             5741     627.     CAWRITE  PROC  @CAIO,SCOPE=GLOBAL
 000CCC C3C1E6D9C9E3C540            5747             +
 000CD4 0020/0000                   5748             +
 000CD8 900F D004/18AF       00004  5750             +
 USING  CAWRITE,R10
 000CDE 50D0 C000/18CD       00000  5765             +
 000CE4 9680 C000      00000        5767             +
 USING  @CAIO-72,R12
 000CE8 41D0 C068            00068  5781             +
 000CEC 5860 C048            00000  5782     628.              L     CITR,@CAIOCIT
 USING  CIT,R6                      5783     629.              WITH  CIT
 000CF0                             5795     630.              FAIL  (CIT,NE,'CIT'),CAWRITE_BADCIT  Bad CIT ptr
 000CF0 D502 A5F6 6000 012CE 00000  5807             +
 000CF6 4780 A052            00D2A  5808             +
 USING  PZERO,R0
 000CFA AC04 021B      0021B        5825  1          +
 000CFE 9680 021A      0021A        5831  1          +
 000D02 50F0 021C            0021C  5832  1          +
 000D06 58F0 0210            00210  5833  1          +
 000D0A 89F0 0010            00010  5834  1          +
 000D0E 88F0 0010            00010  5835  1          +
 000D12 41F0 F000            00000  5836  1          +
 000D16 AEFF 0006            00006  5837  1          +
 000D1A C3C1E6D9C9E3C56D            5838             +
 DROP   PZERO,R0
                                    5851     631.              ¿þþþþþþþþþþþþþþþþþþþþþþþþþþþþþþþþþþþþþþþþþþþþþÜ
                                    5852     632.              Ÿ  Don't do anything if caching is disabled.  Ÿ
                                    5853     633.              ¾þþþþþþþþþþþþþþþþþþþþþþþþþþþþþþþþþþþþþþþþþþþþþ»
 000D2A 9180 6004      00004        5854     634.              IF    CITFDISABLED,BEGIN  Disabled...
 000D2E 47E0 A062            00D3A  5864             +
 000D32 4100 0018            00018  5869  1  635.                LA    RVR,24              No cache
 000D36 47F0 A354            0102C  5870  1  636.                B     CAWREXIT            Scram
 000D3A                             5871     637.              END
                                    5875     638.
 000D3A 5820 6014            00014  5876     639.              INCRR RA,RB,CIT#WR        Count the write buffer call
 000D3E 4130 0001/1E32       00001  5878             +
 000D44 BA23 6014            00014  5880             +
 000D48 4770 A062            00D3A  5881             +
1FILCACHE (FILC00) (09:38) (22MAR04) Cache Write Routine                                                                    Page   35
0Current Usings:  (CIT,R6) (CAWRITE,R10) (@CAIO-72,R12)
0Loc    Object Code    Addr1 Addr2  Stmt Lv Lineno    Source Statement           (Hibal 5, Asmedit 3.3)  HLASM R4.0  2004/03/22 09.38
+___    ______ ____    _____ _____  ____ __ ______    ______ _________
0                                   5882     640.              ¿þþþþþþþþþþþþþþþþþþþþþþþþþþþþþþþþþÜ
                                    5883     641.              Ÿ  Get buffer manipulation lock.  Ÿ
                                    5884     642.              ¾þþþþþþþþþþþþþþþþþþþþþþþþþþþþþþþþþ»
 USING  @LOCKS-72,R13               5885     643.              LKOB  CITLOCK             Get exclusive lock
 000D4C D203 D048 6008 00000 00008  5901             +
 000D52 58F0 A5C0/0DEF       01298  5904             +
                                    5906     644.              ¿þþþþþþþþþþþþþþþþþþþþþþþþþþþþþþþþþþþþþþþþþþþÜ
                                    5907     645.              Ÿ  Hash key to get appropriate queue head.  Ÿ
                                    5908     646.              ¾þþþþþþþþþþþþþþþþþþþþþþþþþþþþþþþþþþþþþþþþþþþ»
 000D58 9823 C060            00018  5909     647.              LM    RA,RB,@CAIOKEY      Get key
 000D5C 8920 0010/1E32       00010  5910     648.              CAHASH RA,RB              RA = num between 0 and CITNHASH-1
 000D62 5430 A5C4/1B22       0129C  5913             +
 000D68 5D20 60CC            000CC  5918             +
 000D6C 8920 0002            00002  5919     649.              SLL   RA,2                Times 4 for word offset
 000D70 5872 60D0            000D0  5920     650.              L     CABR,CITHASHQ(RA)   Get first entry in our queue
                                    5921     651.
 USING  CAB,R7                      5922     652.              WITH  CAB
                                    5934     653.              ¿þþþþþþþþþþþþþþþþþþþþþþþþþþþþþþþþþþþþþþþþþþþþþþþþþþþþþþþþþþÜ
                                    5935     654.              Ÿ  Now go through this CAB queue to find our entry (if it  Ÿ
                                    5936     655.              Ÿ    exists).                                              Ÿ
                                    5937     656.              ¾þþþþþþþþþþþþþþþþþþþþþþþþþþþþþþþþþþþþþþþþþþþþþþþþþþþþþþþþþþ»
 000D74 1277/4780 A0DC       00DB4  5938     657.              WHILE (CABR,NZ),BEGIN     Go through CAB queue...
 000D7A                             5954  1  658.                IF    (CABKEY,EQ,@CAIOKEY),BEGIN  Matched...
 000D7A D507 7010 C060 00010 00018  5965  1          +
 000D80 4770 A0D4            00DAC  5966  1          +
                                    5971  2  659.
 000D84 4120 7000            00000  5972  2  660.                  CADQ  RA,RB               Deq (will Q at head of LRU Q)
 000D88 5830 200C            0000C  5976  2          +
 000D8C D203 3008 2008 00008 00008  5977  2          +
 000D92 5830 2008            00008  5978  2          +
 000D96 D203 300C 200C 0000C 0000C  5979  2          +
 000D9C 5830 A5D0            012A8  5980  2          +
 000DA0 5030 200C            0000C  5981  2          +
 000DA4 5030 2008            00008  5982  2          +
 000DA8 47F0 A228            00F00  5983  2  661.                  B     CAWROLD
 000DAC                             5984  1  662.                END
                                    5988  1  663.
 000DAC 5870 7004            00004  5989  1  664.                L     CABR,CABLINK        Get next CAB entry (or zero)
 000DB0 47F0 A09C            00D74  5990     665.              END
                                    5995     666.              ¿þþþþþþþþþþþþþþþþþþþþþþþþþþþþþþþþþþþþþþþþþþþþþþþþþþþþþþþþÜ
                                    5996     667.              Ÿ  Take the first available buffer on the free queue if  Ÿ
                                    5997     668.              Ÿ    possible.                                           Ÿ
                                    5998     669.              ¾þþþþþþþþþþþþþþþþþþþþþþþþþþþþþþþþþþþþþþþþþþþþþþþþþþþþþþþþ»
 000DB4 4170 602C            0002C  5999     670.              LA    CABR,CITFREEQ       Get master free CAB
 000DB8 5970 7008            00008  6000     671.              IF    (CABR,NE,CABQF),BEGIN  We have a free entry...
 000DBC 4780 A14A            00E22  6012             +
 000DC0 5870 7008            00008  6017  1  672.                L     CABR,CABQF          Get first entry on free Q
 000DC4 4120 7000            00000  6018  1  673.                CADQ  RA,RB               Take it off the free queue
 000DC8 5830 200C            0000C  6022  1          +
 000DCC D203 3008 2008 00008 00008  6023  1          +
 000DD2 5830 2008            00008  6024  1          +
 000DD6 D203 300C 200C 0000C 0000C  6025  1          +
 000DDC 5830 A5D0            012A8  6026  1          +
 000DE0 5030 200C            0000C  6027  1          +
1FILCACHE (FILC00) (09:38) (22MAR04) Cache Write Routine                                                                    Page   36
0Current Usings:  (CIT,R6) (CAB,R7) (CAWRITE,R10) (@CAIO-72,R12) (@LOCKS-72,R13)
0Loc    Object Code    Addr1 Addr2  Stmt Lv Lineno    Source Statement           (Hibal 5, Asmedit 3.3)  HLASM R4.0  2004/03/22 09.38
+___    ______ ____    _____ _____  ____ __ ______    ______ _________
0000DE4 5030 2008            00008  6028  1          +
 000DE8                             6029  1  674.                FAIL  (CABLINK,NE,-1),CAWRITE_FREECAB  Free CAB entry error
 000DE8 D503 A5D8 7004 012B0 00004  6042  1          +
 000DEE 4780 A14A            00E22  6043  1          +
 USING  PZERO,R0
 000DF2 AC04 021B      0021B        6060  2          +
 000DF6 9680 021A      0021A        6066  2          +
 000DFA 50F0 021C            0021C  6067  2          +
 000DFE 58F0 0210            00210  6068  2          +
 000E02 89F0 0010            00010  6069  2          +
 000E06 88F0 0010            00010  6070  2          +
 000E0A 41F0 F000            00000  6071  2          +
 000E0E AEFF 0006            00006  6072  2          +
 000E12 C3C1E6D9C9E3C56D            6073  1          +
 DROP   PZERO,R0
 000E22                             6086     675.              END
                                    6090     676.              ¿þþþþþþþþþþþþþþþþþþþþþþþþþþþþþþþþþþþþþþþþþþþþþþþþþþþþþþþþþþþÜ
                                    6091     677.              Ÿ  Otherwise, snatch the oldest buffer from the LRU queue.  Ÿ
                                    6092     678.              ¾þþþþþþþþþþþþþþþþþþþþþþþþþþþþþþþþþþþþþþþþþþþþþþþþþþþþþþþþþþþ»
 000E22 A14E           00E22 00DBE  6093     679.              ELSE  BEGIN               Take oldest buffer on LRU Q...
 000E22 47F0 A1FA            00ED2  6098             +
 000E26 4170 607C            0007C  6104  1  680.                LA    CABR,CITLRUQ        Master LRU CAB
 000E2A 5970 700C            0000C  6105  1  681.                IF    (CABR,EQ,CABQB),BEGIN  No buffers at all...
 000E2E 4770 A162            00E3A  6117  1          +
 000E32 4100 0004            00004  6122  2  682.                  LA    RVR,4               No buffers
 000E36 47F0 A344            0101C  6123  2  683.                  B     CAWRULK             Scram
 000E3A                             6124  1  684.                END
                                    6128  1  685.
 000E3A 5870 700C            0000C  6129  1  686.                L     CABR,CABQB          Get oldest entry on LRU Q
 000E3E 4120 7000            00000  6130  1  687.                CADQ  RA,RB               Take it off the LRU Q
 000E42 5830 200C            0000C  6134  1          +
 000E46 D203 3008 2008 00008 00008  6135  1          +
 000E4C 5830 2008            00008  6136  1          +
 000E50 D203 300C 200C 0000C 0000C  6137  1          +
 000E56 5830 A5D0            012A8  6138  1          +
 000E5A 5030 200C            0000C  6139  1          +
 000E5E 5030 2008            00008  6140  1          +
                                    6141  1  688.                ¿þþþþþþþþþþþþþþþþþþþþþþþþþþþþþþþþþþþþþþþþÜ
                                    6142  1  689.                Ÿ  Remove entry from it's hashed queue.  Ÿ
                                    6143  1  690.                ¾þþþþþþþþþþþþþþþþþþþþþþþþþþþþþþþþþþþþþþþþ»
 000E62 9823 7010            00010  6144  1  691.                LM    RA,RB,CABKEY        Get key
 000E66 8920 0010/1E32       00010  6145  1  692.                CAHASH RA,RB              RA = num between 0 and CITNHASH-1
 000E6C 5430 A5C4/1B22       0129C  6148  1          +
 000E72 5D20 60CC            000CC  6153  1          +
 000E76 8920 0002            00002  6154  1  693.                SLL   RA,2                Times 4 for word offset
 000E7A 4142 60CC            000CC  6155  1  694.                LA    RJ,CITHASHQ-(CABLINK-CAB)(RA)  Dummy prev entry ptr
 000E7E 5852 60D0            000D0  6156  1  695.                L     RK,CITHASHQ(RA)     Get first entry in our queue
 000E82 1255/4780 A1CA       00EA2  6157  1  696.                WHILE (RK,NZ),BEGIN       Go through CAB queue...
 DROP   CAB,R7                      6173  2  697.                  WITH  (CAB,RK)
 USING  CAB,R5
 000E88 1957/4770 A1C0       00E98  6194  2  698.                  IF    (RK,EQ,CABR),BEGIN  It's our CAB...
 000E8E D203 4004 5004 00004 00004  6209  3  699.                    MVC   CABLINK-CAB(4,RJ),CABLINK  Dequeue
 000E94 47F0 A1FA            00ED2  6210  3  700.                    B     CAWRNEW             Now go save our data
 000E98                             6211  2  701.                  END
1FILCACHE (FILC00) (09:38) (22MAR04) Cache Write Routine                                                                    Page   37
0Current Usings:  (CAB,R5) (CIT,R6) (CAWRITE,R10) (@CAIO-72,R12) (@LOCKS-72,R13)
0Loc    Object Code    Addr1 Addr2  Stmt Lv Lineno    Source Statement           (Hibal 5, Asmedit 3.3)  HLASM R4.0  2004/03/22 09.38
+___    ______ ____    _____ _____  ____ __ ______    ______ _________
0                                   6215  2  702.
 000E98 1845                        6216  2  703.                  LR    RJ,RK               Save prev CAB ptr
 000E9A 5850 5004            00004  6217  2  704.                  L     RK,CABLINK          Get next CAB
 000E9E 47F0 A1AA            00E82  6218  1  705.                END
 USING  CAB,R7
 DROP   CAB,R5
                                    6237  1  706.
 000EA2 AC04 021B      0021B        6238  1  707.                ABORT CAWRITE_QERR        Caching queue error
 USING  PZERO,R0
 000EA6 9680 021A      0021A        6256  1          +
 000EAA 50F0 021C            0021C  6257  1          +
 000EAE 58F0 0210            00210  6258  1          +
 000EB2 89F0 0010            00010  6259  1          +
 000EB6 88F0 0010            00010  6260  1          +
 000EBA 41F0 F000            00000  6261  1          +
 000EBE AEFF 0006            00006  6262  1          +
 000EC2 C3C1E6D9C9E3C56D            6263  1          +
 DROP   PZERO,R0
 000ED2                             6272     708.              END
                                    6276     709.              ¿þþþþþþþþþþþþþþþþþþþþþþþþþþþþþþþþþþþþþþþþþþþþþþþþþþþþþþþÜ
                                    6277     710.              Ÿ  Save our buffer in this CAB and then add CAB to the  Ÿ
                                    6278     711.              Ÿ    appropriate queues.                                Ÿ
                                    6279     712.              ¾þþþþþþþþþþþþþþþþþþþþþþþþþþþþþþþþþþþþþþþþþþþþþþþþþþþþþþþ»
 000ED2                             6280     713.     CAWRNEW  CLEAR CABNCOUNTS          Reset buffer usage counters
 000ED2 D707 7040 7040 00040 00040  6287             +
                                    6288     714.
 000ED8 9823 C060            00018  6289     715.              LM    RA,RB,@CAIOKEY      Our 64-bit key
 000EDC 9023 7010            00010  6290     716.              STM   RA,RB,CABKEY        Save it in our CAB
 000EE0 8920 0010/1E32       00010  6291     717.              CAHASH RA,RB              RA = num between 0 and CITNHASH-1
 000EE6 5430 A5C4/1B22       0129C  6294             +
 000EEC 5D20 60CC            000CC  6299             +
 000EF0 8920 0002            00002  6300     718.              SLL   RA,2                Times 4 for word offset
 000EF4 5842 60D0            000D0  6301     719.              L     RJ,CITHASHQ(RA)     First entry in our queue
 000EF8 5040 7004            00004  6302     720.              ST    RJ,CABLINK          Make old first our next
 000EFC 5072 60D0            000D0  6303     721.              ST    CABR,CITHASHQ(RA)   Our entry is now first
                                    6304     722.              ¿þþþþþþþþþþþþþþþþþþþþþþþþþþþþþþþþþþþþþþþþþþþþþþþþþþþþþþþþÜ
                                    6305     723.              Ÿ  Copy the header from the user's buffer and zero pad.  Ÿ
                                    6306     724.              ¾þþþþþþþþþþþþþþþþþþþþþþþþþþþþþþþþþþþþþþþþþþþþþþþþþþþþþþþþ»
 000F00 5820 C04C            00004  6307     725.     CAWROLD  L     RA,@CAIOHP          User's header ptr
 000F04 5830 C050            00008  6308     726.              L     RB,@CAIOHL          User's header length
 000F08 5530 A5CC            012A4  6309     727.              FAIL  (RB,LGT,L'CABHDR),CAREAD_HDRLEN  Too big
 000F0C 47D0 A268            00F40  6322             +
 USING  PZERO,R0
 000F10 AC04 021B      0021B        6339  1          +
 000F14 9680 021A      0021A        6345  1          +
 000F18 50F0 021C            0021C  6346  1          +
 000F1C 58F0 0210            00210  6347  1          +
 000F20 89F0 0010            00010  6348  1          +
 000F24 88F0 0010            00010  6349  1          +
 000F28 41F0 F000            00000  6350  1          +
 000F2C AEFF 0006            00006  6351  1          +
 000F30 C3C1D9C5C1C46DC8            6352             +
 DROP   PZERO,R0
 000F40 4140 7018            00018  6365     728.              LA    RJ,CABHDR           Our header area
1FILCACHE (FILC00) (09:38) (22MAR04) Cache Write Routine                                                                    Page   38
0Current Usings:  (CIT,R6) (CAB,R7) (CAWRITE,R10) (@CAIO-72,R12) (@LOCKS-72,R13)
0Loc    Object Code    Addr1 Addr2  Stmt Lv Lineno    Source Statement           (Hibal 5, Asmedit 3.3)  HLASM R4.0  2004/03/22 09.38
+___    ______ ____    _____ _____  ____ __ ______    ______ _________
0000F44 4150 0020            00020  6366     729.              LA    RK,L'CABHDR
 000F48 0E42                        6367     730.              MVCL  RJ,RA               Copy header from user area
                                    6368     731.              ¿þþþþþþþþþþþþþþþþþþþþþþþþþþþþþþþþþþþþþþþþþþþþþþþþþþþþþþÜ
                                    6369     732.              Ÿ  Copy the data from the user's buffer and zero pad.  Ÿ
                                    6370     733.              ¾þþþþþþþþþþþþþþþþþþþþþþþþþþþþþþþþþþþþþþþþþþþþþþþþþþþþþþ»
 000F4A 5820 C054            0000C  6371     734.              L     RA,@CAIODP          User's data ptr
 000F4E 5830 C058            00010  6372     735.              L     RB,@CAIODL          User's data length
 000F52 5530 6018            00018  6373     736.              FAIL  (RB,LGT,CITDLEN),CAREAD_LENERR  Too big
 000F56 47D0 A2B2            00F8A  6386             +
 USING  PZERO,R0
 000F5A AC04 021B      0021B        6403  1          +
 000F5E 9680 021A      0021A        6409  1          +
 000F62 50F0 021C            0021C  6410  1          +
 000F66 58F0 0210            00210  6411  1          +
 000F6A 89F0 0010            00010  6412  1          +
 000F6E 88F0 0010            00010  6413  1          +
 000F72 41F0 F000            00000  6414  1          +
 000F76 AEFF 0006            00006  6415  1          +
 000F7A C3C1D9C5C1C46DD3            6416             +
 DROP   PZERO,R0
 000F8A 5840 7038/1244       00038  6429     737.              LT    RJ,CABBUFP          Our data buffer ptr
 000F90 1244/4770 A2EE       00FC6  6433     738.              FAIL  (RJ,Z),CAWRITE_CABERR  Bad CAB entry
 000F96 AC04 021B      0021B        6460  1          +
 USING  PZERO,R0
 000F9A 9680 021A      0021A        6466  1          +
 000F9E 50F0 021C            0021C  6467  1          +
 000FA2 58F0 0210            00210  6468  1          +
 000FA6 89F0 0010            00010  6469  1          +
 000FAA 88F0 0010            00010  6470  1          +
 000FAE 41F0 F000            00000  6471  1          +
 000FB2 AEFF 0006            00006  6472  1          +
 000FB6 C3C1E6D9C9E3C56D            6473             +
 DROP   PZERO,R0
 000FC6 5850 6018            00018  6486     739.              L     RK,CITDLEN          Our data length
 000FCA 0E42                        6487     740.              MVCL  RJ,RA               Copy data from user area
                                    6488     741.
 000FCC 5820 7044            00044  6489     742.              INCRR RA,RB,CABNWRS       Count writes to cache
 000FD0 4130 0001/1E32       00001  6491             +
 000FD6 BA23 7044            00044  6493             +
 000FDA 4770 A2F4            00FCC  6494             +
                                    6495     743.              ¿þþþþþþþþþþþþþþþþþþþþþþþþþþþþþþþþþþþþþþþþþþþþþþþþþþþþþþþþþþÜ
                                    6496     744.              Ÿ  Generate checksum if we are in data verification mode.  Ÿ
                                    6497     745.              ¾þþþþþþþþþþþþþþþþþþþþþþþþþþþþþþþþþþþþþþþþþþþþþþþþþþþþþþþþþþ»
 000FDE 9140 6004      00004        6498     746.              IF    CITFVERIFY,BEGIN    Verify data...
 000FE2 47E0 A318            00FF0  6508             +
 000FE6 58F0 A5C8/0DEF       012A0  6513  1  747.                ACALL CACHKSUM            Go calculate checksum
 000FEC 5000 703C            0003C  6520  1  748.                ST    RVR,CABVRFYD        Save it for later
 000FF0                             6521     749.              END
                                    6525     750.
 000FF0 4120 7000            00000  6526     751.              CAQ   RA,RB,LRUQ          Add our entry to the LRU queue
 000FF4 4130 607C            0007C  6528             +
 000FF8 5030 200C            0000C  6531             +
 000FFC 5830 3008            00008  6532             +
 001000 5030 2008            00008  6533             +
1FILCACHE (FILC00) (09:38) (22MAR04) Cache Write Routine                                                                    Page   39
0Current Usings:  (CIT,R6) (CAB,R7) (CAWRITE,R10) (@CAIO-72,R12) (@LOCKS-72,R13)
0Loc    Object Code    Addr1 Addr2  Stmt Lv Lineno    Source Statement           (Hibal 5, Asmedit 3.3)  HLASM R4.0  2004/03/22 09.38
+___    ______ ____    _____ _____  ____ __ ______    ______ _________
0001004 5020 300C            0000C  6534             +
 001008 4130 607C            0007C  6535             +
 00100C 5020 3008            00008  6536             +
 001010 B205 D000      00000        6537             +
 001014 D203 704C D000 0004C 00000  6538             +
                                    6539     752.
 00101A 1B00                        6540     753.              CLEAR RVR                 A-ok
                                    6544     754.
 00101C 1820                        6545     755.     CAWRULK  LR    RA,RVR
 00101E                             6546     756.              LKREL CITLOCK             Release exclusive lock
 00101E D203 D048 6008 00000 00008  6555             +
 001024 58F0 A5D4/0DEF       012AC  6558             +
 00102A 1802                        6560     757.              LR    RVR,RA
 00102C 981F C008            00008  6561     758.     CAWREXIT PEND
 DROP   CAB,R7
 DROP   CIT,R6
 DROP   @CAIO-72,R12
 DROP   CAWRITE,R10
 001030 9680 C000/0B0E 00000        6587             +
 DROP   @LOCKS-72,R13
1FILCACHE (FILC00) (09:38) (22MAR04) Cache Delete Routine                                                                   Page   40
0Loc    Object Code    Addr1 Addr2  Stmt Lv Lineno    Source Statement           (Hibal 5, Asmedit 3.3)  HLASM R4.0  2004/03/22 09.38
+___    ______ ____    _____ _____  ____ __ ______    ______ _________
0                                   6597     760.     ¿þþþþþþþþþþþþþþþþþþþþþþþþþþþþþþþþþþþþþþþþþþþþþþþþþþþþþþþþþþþþþþþþþþþþþÜ
                                    6598     761.     Ÿ                                                                     Ÿ
                                    6599     762.     Ÿ  CADELETE -- Routine to delete the buffer specified from the        Ÿ
                                    6600     763.     Ÿ    cache.                                                           Ÿ
                                    6601     764.     Ÿ                                                                     Ÿ
                                    6602     765.     Ÿ    On entry:                                                        Ÿ
                                    6603     766.     Ÿ      @CAIO - key information                                        Ÿ
                                    6604     767.     Ÿ                                                                     Ÿ
                                    6605     768.     Ÿ    On exit, RVR:                                                    Ÿ
                                    6606     769.     Ÿ      0 - OK                                                         Ÿ
                                    6607     770.     Ÿ      4 - not found                                                  Ÿ
                                    6608     771.     Ÿ     24 - caching is disabled                                        Ÿ
                                    6609     772.     Ÿ                                                                     Ÿ
                                                      ¾þþþþþþþþþþþþþþþþþþþþþþþþþþþþþþþþþþþþþþþþþþþþþþþþþþþþþþþþþþþþþþþþþþþþþ»
0001036                             6610     773.     CADELETE PROC  @CAIO,SCOPE=GLOBAL
 001036 C3C1C4C5D3C5E3C5            6616             +
 00103E 0020/0000                   6617             +
 001042 900F D004/18AF       00004  6619             +
 USING  CADELETE,R10
 001048 50D0 C000/18CD       00000  6634             +
 00104E 9680 C000      00000        6636             +
 USING  @CAIO-72,R12
 001052 41D0 C068            00068  6650             +
 001056 5860 C048            00000  6651     774.              L     CITR,@CAIOCIT
 USING  CIT,R6                      6652     775.              WITH  CIT
 00105A                             6664     776.              FAIL  (CIT,NE,'CIT'),CADELETE_BADCIT  Bad CIT ptr
 00105A D502 A28C 6000 012CE 00000  6676             +
 001060 4780 A052            01094  6677             +
 USING  PZERO,R0
 001064 AC04 021B      0021B        6694  1          +
 001068 9680 021A      0021A        6700  1          +
 00106C 50F0 021C            0021C  6701  1          +
 001070 58F0 0210            00210  6702  1          +
 001074 89F0 0010            00010  6703  1          +
 001078 88F0 0010            00010  6704  1          +
 00107C 41F0 F000            00000  6705  1          +
 001080 AEFF 0006            00006  6706  1          +
 001084 C3C1C4C5D3C5E3C5            6707             +
 DROP   PZERO,R0
                                    6720     777.              ¿þþþþþþþþþþþþþþþþþþþþþþþþþþþþþþþþþþþþþþþþþþþþþÜ
                                    6721     778.              Ÿ  Don't do anything if caching is disabled.  Ÿ
                                    6722     779.              ¾þþþþþþþþþþþþþþþþþþþþþþþþþþþþþþþþþþþþþþþþþþþþþ»
 001094 9180 6004      00004        6723     780.              IF    CITFDISABLED,BEGIN  Disabled...
 001098 47E0 A062            010A4  6733             +
 00109C 4100 0018            00018  6738  1  781.                LA    RVR,24              No cache
 0010A0 47F0 A122            01164  6739  1  782.                B     CADLEXIT            Scram
 0010A4                             6740     783.              END
                                    6744     784.
 0010A4 5820 6014            00014  6745     785.              INCRR RA,RB,CIT#WR        Count delete as "write" call
 0010A8 4130 0001/1E32       00001  6747             +
 0010AE BA23 6014            00014  6749             +
 0010B2 4770 A062            010A4  6750             +
1FILCACHE (FILC00) (09:38) (22MAR04) Cache Delete Routine                                                                   Page   41
0Current Usings:  (CIT,R6) (CADELETE,R10) (@CAIO-72,R12)
0Loc    Object Code    Addr1 Addr2  Stmt Lv Lineno    Source Statement           (Hibal 5, Asmedit 3.3)  HLASM R4.0  2004/03/22 09.38
+___    ______ ____    _____ _____  ____ __ ______    ______ _________
0                                   6751     786.              ¿þþþþþþþþþþþþþþþþþþþþþþþþþþþþþþþþþÜ
                                    6752     787.              Ÿ  Get buffer manipulation lock.  Ÿ
                                    6753     788.              ¾þþþþþþþþþþþþþþþþþþþþþþþþþþþþþþþþþ»
 USING  @LOCKS-72,R13               6754     789.              LKOB  CITLOCK             Get exclusive lock
 0010B6 D203 D048 6008 00000 00008  6770             +
 0010BC 58F0 A256/0DEF       01298  6773             +
                                    6775     790.              ¿þþþþþþþþþþþþþþþþþþþþþþþþþþþþþþþþþþþþþþþþþþþÜ
                                    6776     791.              Ÿ  Hash key to get appropriate queue head.  Ÿ
                                    6777     792.              ¾þþþþþþþþþþþþþþþþþþþþþþþþþþþþþþþþþþþþþþþþþþþ»
 0010C2 9823 C060            00018  6778     793.              LM    RA,RB,@CAIOKEY      Get key
 0010C6 8920 0010/1E32       00010  6779     794.              CAHASH RA,RB              RA = num between 0 and CITNHASH-1
 0010CC 5430 A25A/1B22       0129C  6782             +
 0010D2 5D20 60CC            000CC  6787             +
 0010D6 8920 0002            00002  6788     795.              SLL   RA,2                Times 4 for word offset
 0010DA 5872 60D0            000D0  6789     796.              L     CABR,CITHASHQ(RA)   Get first entry in our queue
                                    6790     797.
 USING  CAB,R7                      6791     798.              WITH  CAB
                                    6803     799.              ¿þþþþþþþþþþþþþþþþþþþþþþþþþþþþþþþþþþþþþþþþþþþþþþþþþþþþþþþþþþÜ
                                    6804     800.              Ÿ  Now go through this CAB queue to find our entry (if it  Ÿ
                                    6805     801.              Ÿ    exists).                                              Ÿ
                                    6806     802.              ¾þþþþþþþþþþþþþþþþþþþþþþþþþþþþþþþþþþþþþþþþþþþþþþþþþþþþþþþþþþ»
 0010DE 1277/4780 A10E       01150  6807     803.              WHILE (CABR,NZ),BEGIN     Go through CAB queue...
 0010E4                             6823  1  804.                IF    (CABKEY,EQ,@CAIOKEY),BEGIN  Matched...
 0010E4 D507 7010 C060 00010 00018  6834  1          +
 0010EA 4770 A106            01148  6835  1          +
 0010EE 4120 7000            00000  6840  2  805.                  CADQ  RA,RB               Dequeue it from LRU queue
 0010F2 5830 200C            0000C  6844  2          +
 0010F6 D203 3008 2008 00008 00008  6845  2          +
 0010FC 5830 2008            00008  6846  2          +
 001100 D203 300C 200C 0000C 0000C  6847  2          +
 001106 5830 A266            012A8  6848  2          +
 00110A 5030 200C            0000C  6849  2          +
 00110E 5030 2008            00008  6850  2          +
 001112 4120 7000            00000  6851  2  806.                  CAQ   RA,RB,FREEQ         Re-queue it to FREE queue
 001116 4130 602C            0002C  6853  2          +
 00111A 5030 200C            0000C  6856  2          +
 00111E 5830 3008            00008  6857  2          +
 001122 5030 2008            00008  6858  2          +
 001126 5020 300C            0000C  6859  2          +
 00112A 4130 602C            0002C  6860  2          +
 00112E 5020 3008            00008  6861  2          +
 001132 B205 D000      00000        6862  2          +
 001136 D203 704C D000 0004C 00000  6863  2          +
 00113C 58F0 A272/0DEF       012B4  6864  2  807.                  ACALL CAUNLINK            Take it off the hashed queue
 001142 1B00                        6871  2  808.                  CLEAR RVR                 A-ok
 001144 47F0 A112            01154  6875  2  809.                  B     CADLULK             All done
 001148                             6876  1  810.                END
                                    6880  1  811.
 001148 5870 7004            00004  6881  1  812.                L     CABR,CABLINK        Get next CAB entry (or zero)
 00114C 47F0 A09C            010DE  6882     813.              END
 001150 4100 0004            00004  6887     814.              LA    RVR,4               Not found
                                    6888     815.
 001154 1820                        6889     816.     CADLULK  LR    RA,RVR
 001156                             6890     817.              LKREL CITLOCK             Release exclusive lock
1FILCACHE (FILC00) (09:38) (22MAR04) Cache Delete Routine                                                                   Page   42
0Current Usings:  (CIT,R6) (CAB,R7) (CADELETE,R10) (@CAIO-72,R12) (@LOCKS-72,R13)
0Loc    Object Code    Addr1 Addr2  Stmt Lv Lineno    Source Statement           (Hibal 5, Asmedit 3.3)  HLASM R4.0  2004/03/22 09.38
+___    ______ ____    _____ _____  ____ __ ______    ______ _________
0001156 D203 D048 6008 00000 00008  6899             +
 00115C 58F0 A26A/0DEF       012AC  6902             +
 001162 1802                        6904     818.              LR    RVR,RA
 001164 981F C008            00008  6905     819.     CADLEXIT PEND
 DROP   CAB,R7
 DROP   CIT,R6
 DROP   @CAIO-72,R12
 DROP   CADELETE,R10
 001168 9680 C000/0B0E 00000        6931             +
 DROP   @LOCKS-72,R13
1FILCACHE (FILC00) (09:38) (22MAR04) Cache Close Routine                                                                    Page   43
0Loc    Object Code    Addr1 Addr2  Stmt Lv Lineno    Source Statement           (Hibal 5, Asmedit 3.3)  HLASM R4.0  2004/03/22 09.38
+___    ______ ____    _____ _____  ____ __ ______    ______ _________
0                                   6941     821.     ¿þþþþþþþþþþþþþþþþþþþþþþþþþþþþþþþþþþþþþþþþþþþþþþþþþþþþþþþþþþþþþþþþþþþþþÜ
                                    6942     822.     Ÿ                                                                     Ÿ
                                    6943     823.     Ÿ  CACLOSE -- Routine to free up the cache area.                      Ÿ
                                    6944     824.     Ÿ                                                                     Ÿ
                                    6945     825.     Ÿ    On entry:                                                        Ÿ
                                    6946     826.     Ÿ      @CACLOSE - CIT ptr                                             Ÿ
                                    6947     827.     Ÿ                                                                     Ÿ
                                    6948     828.     Ÿ    On exit, RVR:                                                    Ÿ
                                    6949     829.     Ÿ      0 - OK                                                         Ÿ
                                    6950     830.     Ÿ                                                                     Ÿ
                                                      ¾þþþþþþþþþþþþþþþþþþþþþþþþþþþþþþþþþþþþþþþþþþþþþþþþþþþþþþþþþþþþþþþþþþþþþ»
000116E                             6951     831.     CACLOSE  PROC  @CACLOSE,SCOPE=GLOBAL
 00116E C3C1C3D3D6E2C540            6957             +
 001176 0008/0000                   6958             +
 00117A 900F D004/18AF       00004  6960             +
 USING  CACLOSE,R10
 001180 50D0 C000/18CD       00000  6975             +
 001186 9680 C000      00000        6977             +
 USING  @CACLOSE-72,R12
 00118A 41D0 C050            00050  6991             +
 00118E 5860 C048            00000  6992     832.              L     CITR,@CACLCIT
 USING  CIT,R6                      6993     833.              WITH  CIT
 001192                             7005     834.              FAIL  (CIT,NE,'CIT'),CACLOSE_BADCIT  Bad CIT ptr
 001192 D502 A154 6000 012CE 00000  7017             +
 001198 4780 A052            011CC  7018             +
 USING  PZERO,R0
 00119C AC04 021B      0021B        7035  1          +
 0011A0 9680 021A      0021A        7041  1          +
 0011A4 50F0 021C            0021C  7042  1          +
 0011A8 58F0 0210            00210  7043  1          +
 0011AC 89F0 0010            00010  7044  1          +
 0011B0 88F0 0010            00010  7045  1          +
 0011B4 41F0 F000            00000  7046  1          +
 0011B8 AEFF 0006            00006  7047  1          +
 0011BC C3C1C3D3D6E2C56D            7048             +
 DROP   PZERO,R0
                                    7061     835.              ¿þþþþþþþþþþþþþþþþþþþþþþþþþþþþþþþþþþþþþþþþþþþþþþþÜ
                                    7062     836.              Ÿ  Do control function to release all buffers.  Ÿ
                                    7063     837.              ¾þþþþþþþþþþþþþþþþþþþþþþþþþþþþþþþþþþþþþþþþþþþþþþþ»
 USING  @CACTRL-72,R13              7064     838.              PSET  @CACTRL
 0011CC D70B D048 D048 00000 00000  7081             +
 0011D2 4100 0001            00001  7082     839.              PMOV  @CACCNO,LA:1        Change the number of buffers
 0011D6 5000 D04C            00004  7098             +
 0011DA 1B00/5000 D050       00008  7099     840.              PMOV  @CACPARM,LA:0       Release all buffers
 0011E0 5060 D048            00000  7113     841.              PMOV  @CACCIT,LA:CIT
 0011E4 58F0 A13E/0DEF       012B8  7124     842.              ACALL CACTRL              Make it so
                                    7131     843.              ¿þþþþþþþþþþþþþþþþþþþþþþþþþþþþþþþþþþþþþþþþþþþþþþþþþþþþþþþþþþþþÜ
                                    7132     844.              Ÿ  Delete lock.                                              Ÿ
                                    7133     845.              Ÿ    There is no LKDEL routine; so we'll leave the lock for  Ÿ
                                    7134     846.              Ÿ    now.                                                    Ÿ
                                    7135     847.              ¾þþþþþþþþþþþþþþþþþþþþþþþþþþþþþþþþþþþþþþþþþþþþþþþþþþþþþþþþþþþþ»
                                    7136     848.     ***      LKDEL CITLOCK             Delete lock
                                    7137     849.     *
 0011EA D203 6000 A142 00000 012BC  7138     850.              MVC   CITID,=C'XCIT'      Change self-identification
 0011F0 D203 602C A146 0002C 012C0  7139     851.              MVC   CITFREEQ(4),=C'XCAB'  Ditto
1FILCACHE (FILC00) (09:38) (22MAR04) Cache Close Routine                                                                    Page   44
0Current Usings:  (CIT,R6) (CACLOSE,R10) (@CACLOSE-72,R12) (@CACTRL-72,R13)
0Loc    Object Code    Addr1 Addr2  Stmt Lv Lineno    Source Statement           (Hibal 5, Asmedit 3.3)  HLASM R4.0  2004/03/22 09.38
+___    ______ ____    _____ _____  ____ __ ______    ______ _________
00011F6 D203 607C A146 0007C 012C0  7140     852.              MVC   CITLRUQ(4),=C'XCAB'   Ditto
                                    7141     853.              ¿þþþþþþþþþþþþþþþþÜ
                                    7142     854.              Ÿ  Release CIT.  Ÿ
                                    7143     855.              ¾þþþþþþþþþþþþþþþþ»
 0011FC 5820 60CC            000CC  7144     856.              L     RA,CITNHASH         Get number of hash queue ptrs
 001200 8920 0002            00002  7145     857.              SLL   RA,2                Times 4 for the number of words
 001204 5A20 A14A            012C4  7146     858.              A     RA,=A(L'CIT)        Plus length of common part
 DROP   @CACTRL-72,R13              7147     859.              VMFREE A=LA:CIT,(RA),LOC=GLOBHI,FIX=YES,SP=05  Release CIT
 USING  @VMFREE-72,R13
 001208 D709 D048 D048 00000 00000  7174             +
 00120E 5020 D04C            00004  7184             +
 001212 5060 D048            00000  7195             +
 001216 D201 D050 A152 00008 012CC  7196             +
 00121C 58F0 A14E/0DEF       012C8  7199             +
                                    7201     860.
 001222 1B00                        7202     861.              CLEAR RVR                 Always return OK
 001224 981F C008            00008  7206     862.              PEND
 DROP   CIT,R6
 DROP   @CACLOSE-72,R12
 DROP   CACLOSE,R10
 001228 9680 C000/0B0E 00000        7226             +
 DROP   @VMFREE-72,R13
1FILCACHE (FILC00) (09:38) (22MAR04) Cache Verification Routine                                                             Page   45
0Loc    Object Code    Addr1 Addr2  Stmt Lv Lineno    Source Statement           (Hibal 5, Asmedit 3.3)  HLASM R4.0  2004/03/22 09.38
+___    ______ ____    _____ _____  ____ __ ______    ______ _________
0                                   7236     864.     ¿þþþþþþþþþþþþþþþþþþþþþþþþþþþþþþþþþþþþþþþþþþþþþþþþþþþþþþþþþþþþþþþþþþþþþÜ
                                    7237     865.     Ÿ                                                                     Ÿ
                                    7238     866.     Ÿ  CAVERIFY -- Routine to do a consistency check on the cache         Ÿ
                                    7239     867.     Ÿ    control blocks.                                                  Ÿ
                                    7240     868.     Ÿ                                                                     Ÿ
                                    7241     869.     Ÿ    On entry:                                                        Ÿ
                                    7242     870.     Ÿ      @CAVERIFY - CIT ptr                                            Ÿ
                                    7243     871.     Ÿ                                                                     Ÿ
                                    7244     872.     Ÿ    On exit, RVR:                                                    Ÿ
                                    7245     873.     Ÿ      0 - OK                                                         Ÿ
                                    7246     874.     Ÿ      nz- error (check codes below)                                  Ÿ
                                    7247     875.     Ÿ                                                                     Ÿ
                                                      ¾þþþþþþþþþþþþþþþþþþþþþþþþþþþþþþþþþþþþþþþþþþþþþþþþþþþþþþþþþþþþþþþþþþþþþ»
000122E                             7248     876.     CAVERIFY PROC  @CAVERIFY,SCOPE=GLOBAL
 00122E C3C1E5C5D9C9C6E8            7254             +
 001236 0008/0000                   7255             +
 00123A 900F D004/18AF       00004  7257             +
 USING  CAVERIFY,R10
 001240 50D0 C000/18CD       00000  7272             +
 001246 9680 C000      00000        7274             +
 USING  @CAVERIFY-72,R12
 00124A 41D0 C050            00050  7288             +
 00124E 5860 C048            00000  7289     877.              L     CITR,@CAVRCIT
 USING  CIT,R6                      7290     878.              WITH  CIT
 001252                             7302     879.              FAIL  (CIT,NE,'CIT'),CAVERIFY_BADCIT  Bad CIT ptr
 001252 D502 A094 6000 012CE 00000  7314             +
 001258 4780 A052            0128C  7315             +
 USING  PZERO,R0
 00125C AC04 021B      0021B        7332  1          +
 001260 9680 021A      0021A        7338  1          +
 001264 50F0 021C            0021C  7339  1          +
 001268 58F0 0210            00210  7340  1          +
 00126C 89F0 0010            00010  7341  1          +
 001270 88F0 0010            00010  7342  1          +
 001274 41F0 F000            00000  7343  1          +
 001278 AEFF 0006            00006  7344  1          +
 00127C C3C1E5C5D9C9C6E8            7345             +
 DROP   PZERO,R0
                                    7358     880.     *
 00128C 1B00                        7359     881.              CLEAR RVR                 A-ok
 00128E 981F C008            00008  7363     882.              PEND
 DROP   CIT,R6
 DROP   @CAVERIFY-72,R12
 DROP   CAVERIFY,R10
 001292 9680 C000/0B0E 00000        7383             +
                                    7389     883.
 001298                             7390     884.              END   .
 001298 00000000                    7393                             =V(LKOB)
 00129C 7FFFFFFF                    7394                             =A(X'7FFFFFFF')
 0012A0 00000850                    7395                             =A(CACHKSUM)
 0012A4 00000020                    7396                             =A(L'CABHDR)
 0012A8 FFFFFFFF                    7397                             =F'-1'
 0012AC 00000000                    7398                             =V(LKREL)
 0012B0 FFFFFFFF                    7399                             =AL4(-1)
 0012B4 0000066E                    7400                             =A(CAUNLINK)
1FILCACHE (FILC00) (09:38) (22MAR04) Cache Verification Routine                                                             Page   46
0Loc    Object Code    Addr1 Addr2  Stmt Lv Lineno    Source Statement           (Hibal 5, Asmedit 3.3)  HLASM R4.0  2004/03/22 09.38
+___    ______ ____    _____ _____  ____ __ ______    ______ _________
00012B8 000001F4                    7401                             =A(CACTRL)
 0012BC E7C3C9E3                    7402                             =C'XCIT'
 0012C0 E7C3C1C2                    7403                             =C'XCAB'
 0012C4 000000D0                    7404                             =A(L'CIT)
 0012C8 00000000                    7405                             =V(VMFREE)
 0012CC 3F05                        7406                             =Y(63*256+5)
 0012CE C3C9E3         012D1 012D1  7407                             =C'CIT'

1FILCACHE (FILC00) (09:38) (22MAR04) Ordinary Symbol and Literal Cross Reference                                            Page   47
-Symbol   Length   Value     Id    R Type   Defn References                                  HLASM R4.0  2004/03/22 09.38
0$$$@R0        1 00000000 FFFFFFFE     J     714 1010
 $$$@R1        1 00000000 FFFFFFFD     J     727 1022
 $$$@R10       1 00000000 FFFFFFF4     J     844 1142  1612
 $$$@R11       1 00000000 FFFFFFF3     J     857 1154  1625
 $$$@R12       1 00000000 FFFFFFF2     J     870 1166
 $$$@R13       1 00000000 FFFFFFF1     J     883 1178
 $$$@R14       1 00000000 FFFFFFF0     J     896 1190
 $$$@R15       1 00000000 FFFFFFEF     J     909 1202
 $$$@R2        1 00000000 FFFFFFFC     J     740 1034
 $$$@R3        1 00000000 FFFFFFFB     J     753 1046
 $$$@R4        1 00000000 FFFFFFFA     J     766 1058
 $$$@R5        1 00000000 FFFFFFF9     J     779 1070
 $$$@R6        1 00000000 FFFFFFF8     J     792 1082  1640
 $$$@R7        1 00000000 FFFFFFF7     J     805 1094  1652
 $$$@R8        1 00000000 FFFFFFF6     J     818 1106
 $$$@R9        1 00000000 FFFFFFF5     J     831 1118  1130
 $$$C1FILCACHE
               1 00000A62 00000001     J    5076 5078
 $$$C2FILCACHE
               1 000012D1 00000001     J    7408 7410
 $$$R@CACLOSE
               1 00000000 FFFFFFE4     J    1581 1594  1594
 $$$R@CACTRL
               1 00000000 FFFFFFE7     J    1517 1532  1532
 $$$R@CAIO
               1 00000000 FFFFFFE6     J    1538 1556  1556
 $$$R@CAOPEN
               1 00000000 FFFFFFE8     J    1488 1511  1511
 $$$R@CAVERIFY
               1 00000000 FFFFFFE5     J    1562 1575  1575
 $$$R@LOCKCRE
               1 00000000 FFFFFFEA     J    1433 1455  1455
 $$$R@LOCKS
               1 00000000 FFFFFFE9     J    1461 1474  1474
 $$$R@VMFREE
               1 00000000 FFFFFFEC     J    1384 1399  1399
 $$$R@VMGET
               1 00000000 FFFFFFED     J    1349 1378  1378
 $$$R@VMINFO
               1 00000000 FFFFFFEB     J    1405 1420  1420
 $$$RCAB       1 00000000 FFFFFFE3     J    1665 1693  1693
 $$$RCIT       1 00000000 FFFFFFE2     J    1703 1754  1754
 $$$RPZERO
               1 00000000 FFFFFFEE     J    1245 1336  1336
 $$$0F         2 000001DE 00000001     H    2499 2403B
 $$$10B        4 0000024C 00000001     I    2657 3447
 $$$10F        2 000004F4 00000001     H    3440 2657B 3446
 $$$11F        2 000004F2 00000001     H    3426 2693B
 $$$11S        2 00000256 00000001     H    2683 3425B
 $$$13F        2 00000358 00000001     H    3030 2735B
 $$$14F        2 000002AA 00000001     H    2834 2799B
 $$$15F        2 0000030E 00000001     H    2988 2893B
 $$$16F        2 000004E2 00000001     H    3396 3047B
 $$$17F        2 0000039A 00000001     H    3090 3068B
 $$$18F        2 000003D6 00000001     H    3150 3108B
1FILCACHE (FILC00) (09:38) (22MAR04) Ordinary Symbol and Literal Cross Reference                                            Page   48
 $$$19F        2 00000414 00000001     H    3206 3164B
 $$$2F         2 00000070 00000001     H    1989 1978B
 $$$20F        2 00000478 00000001     H    3284 3242B
 $$$21B        4 000004FE 00000001     I    3464 3669
 $$$21E        2 000004F8 00000001     H    3454 3448
 $$$21F        2 0000059C 00000001     H    3662 3450B 3464B 3668
 $$$23F        2 0000059A 00000001     H    3653 3479B
 $$$24F        2 00000546 00000001     H    3552 3510B
 $$$25F        2 0000057E 00000001     H    3608 3566B
 $$$26B        4 000005A6 00000001     I    3686 3766
 $$$26E        2 000005A0 00000001     H    3676 3670
 $$$26F        2 000005D6 00000001     H    3759 3672B 3686B 3765
 $$$28F        2 000005D4 00000001     H    3750 3701B
 $$$29B        4 000005E0 00000001     I    3783 3838
 $$$29E        2 000005DA 00000001     H    3773 3767
 $$$29F        2 00000604 00000001     H    3831 3769B 3783B 3837
 $$$3F         2 000001BC 00000001     H    2412 2116B 2187B 2320B
 $$$31B        4 0000060E 00000001     I    3855 3978
 $$$31E        2 00000608 00000001     H    3845 3839
 $$$31F        2 00000650 00000001     H    3972 3841B 3855B 3977
 $$$33B        4 00000624 00000001     I    3885 3905
 $$$33F        2 0000062C 00000001     H    3901 3885B 3904
 $$$34E        2 00000630 00000001     H    3912 3906
 $$$34F        2 00000642 00000001     H    3948 3908B 3926B
 $$$36E        2 00000654 00000001     H    3985 3979
 $$$36F        2 00000658 00000001     H    3991 3981B
 $$$38F        2 000006BC 00000001     H    4140 4098B
 $$$39F        2 000006F6 00000001     H    4196 4154B
 $$$4F         2 000000F8 00000001     H    2191 2179B
 $$$40F        2 0000073C 00000001     H    4291 4222B
 $$$40S        2 00000716 00000001     H    4216 4290B
 $$$42F        2 00000732 00000001     H    4269 4258B
 $$$44F        2 000007D0 00000001     H    4461 4419B
 $$$45F        2 0000083A 00000001     H    4545 4498B
 $$$45S        2 000007D0 00000001     H    4469 4544B
 $$$48F        2 0000089E 00000001     H    4689 4647B
 $$$49F        2 000008D8 00000001     H    4745 4703B
 $$$5F         2 00000142 00000001     H    2324 2259B
 $$$50F        2 0000091C 00000001     H    4810 4768B
 $$$51F        2 00000942 00000001     H    4858 4823B
 $$$51S        2 0000091C 00000001     H    4817 4857B
 $$$53F        2 00000932 00000001     H    4849 4839B
 $$$54F        2 0000097C 00000001     H    4915 4873B
 $$$55F        2 000009BA 00000001     H    4969 4927B
 $$$56F        2 000009E0 00000001     H    5017 4982B
 $$$56S        2 000009BA 00000001     H    4976 5016B
 $$$58F        2 000009D0 00000001     H    5008 4998B
 $$$6S         2 0000016E 00000001     H    2369 2395B
 $$$60F        2 00000AC0 00000001     H    5202 5160B
 $$$61F        2 00000AD0 00000001     H    5226 5216B
 $$$62F        2 00000CAE 00000001     H    5674 5289B
 $$$62S        2 00000B0A 00000001     H    5283 5673B
 $$$64F        2 00000CA6 00000001     H    5662 5318B
 $$$65F        2 00000B60 00000001     H    5409 5338B
 $$$66F        2 00000B60 00000001     H    5405 5363B
 $$$67F        2 00000BA0 00000001     H    5470 5428B
 $$$68F        2 00000C2E 00000001     H    5611 5488B
 $$$69F        2 00000BEE 00000001     H    5548 5506B
 $$$70F        2 00000C2A 00000001     H    5605 5563B
1FILCACHE (FILC00) (09:38) (22MAR04) Ordinary Symbol and Literal Cross Reference                                            Page   49
 $$$72F        2 00000D2A 00000001     H    5850 5808B
 $$$73F        2 00000D3A 00000001     H    5874 5864B
 $$$74F        2 00000DB4 00000001     H    5994 5949B
 $$$74S        2 00000D74 00000001     H    5943 5993B
 $$$76F        2 00000DAC 00000001     H    5987 5966B
 $$$77B        4 00000DBC 00000001     I    6012 6095
 $$$77F        2 00000E22 00000001     H    6089 6012B 6094
 $$$78F        2 00000E22 00000001     H    6085 6043B
 $$$79E        2 00000E26 00000001     H    6102 6096
 $$$79F        2 00000ED2 00000001     H    6275 6098B
 $$$80F        2 00000E3A 00000001     H    6127 6117B
 $$$81F        2 00000EA2 00000001     H    6236 6168B
 $$$81S        2 00000E82 00000001     H    6162 6235B
 $$$83F        2 00000E98 00000001     H    6214 6204B
 $$$84F        2 00000F40 00000001     H    6364 6322B
 $$$85F        2 00000F8A 00000001     H    6428 6386B
 $$$86F        2 00000FC6 00000001     H    6485 6443B
 $$$87F        2 00000FF0 00000001     H    6524 6508B
 $$$89F        2 00001094 00000001     H    6719 6677B
 $$$9F         2 00000246 00000001     H    2642 2600B
 $$$90F        2 000010A4 00000001     H    6743 6733B
 $$$91F        2 00001150 00000001     H    6886 6818B
 $$$91S        2 000010DE 00000001     H    6812 6885B
 $$$93F        2 00001148 00000001     H    6879 6835B
 $$$95F        2 000011CC 00000001     H    7060 7018B
 $$$97F        2 0000128C 00000001     H    7357 7315B
 @CACCIT       4 00000000 FFFFFFE7     A    1523 2448M 2574  7123M
 @CACCNO       4 00000004 FFFFFFE7     F    1524 2465M 2656  3463  3685  3782  3854  7098M
 @CACLCIT      4 00000000 FFFFFFE4     A    1587 6992
 @CACLOSE      4 00000000 FFFFFFE4     J    1594 6987U
 @CACPARM      4 00000008 FFFFFFE7     F    1525 2470M 2662  3884M 3884  7112M
 @CACTRL      12 00000000 FFFFFFE7     J    1532 2429U 2437M 2437  2569U 7073U 7081M 7081
 @CAIO        32 00000000 FFFFFFE6     J    1556 5129U 5777U 6646U
 @CAIOCIT      4 00000000 FFFFFFE6     A    1544 5134  5782  6651
 @CAIODL       4 00000010 FFFFFFE6     F    1548 5480  6372
 @CAIODP       4 0000000C FFFFFFE6     A    1547 5477  6371
 @CAIOHL       4 00000008 FFFFFFE6     F    1546 5414  6308
 @CAIOHP       4 00000004 FFFFFFE6     A    1545 5413  6307
 @CAIOKEY      8 00000018 FFFFFFE6     D    1549 5262  5317  5909  5965  6289  6778  6834
 @CAODLEN      4 00000000 FFFFFFE8     F    1494 1992
 @CAOFLAG      1 00000008 FFFFFFE8     R    1498 1502
 @CAOFNOT    128 00000008 FFFFFFE8         1502 1977  2115
 @CAONBUF      4 00000004 FFFFFFE8     F    1495 2125  2209  2332  2333  2470
 @CAOPEN       9 00000000 FFFFFFE8     J    1511 1873U
 @CAVERIFY
               4 00000000 FFFFFFE5     J    1575 7284U
 @CAVRCIT      4 00000000 FFFFFFE5     A    1568 7289
 @LOCKCRE     17 00000000 FFFFFFEA     J    1455 2084U 2092M 2092
 @LOCKFL       1 00000010 FFFFFFEA     R    1442 1446
 @LOCKID       4 00000000 FFFFFFE9     A    1467 2714M 2824M 2978M 3417M 3619M 3640M 3715M 3742M 3797M 3818M 3869M 3959M
                                                 5254M 5690M 5901M 6555M 6770M 6899M
 @LOCKNAM     16 00000000 FFFFFFEA     C    1439 2098M
 @LOCKS        4 00000000 FFFFFFE9     J    1474 2708U 2818U 2972U 3411U 5248U 5895U 6764U
 @RA           0 00000000 FFFFFFFC     @    1035 4850  4852  5009  5011
 @RJ           0 00000000 FFFFFFFA     @    1059 2356
 @R0           0 00000000 FFFFFFFE     @     715  991U 2636U 3144U 3200U 3278U 3546U 3602U 4134U 4190U 4324U 4455U 4683U
                                                 4739U 4804U 4909U 4963U 5196U 5399U 5464U 5542U 5599U 5844U 6079U 6269U
                                                 6358U 6422U 6479U 6713U 7054U 7351U
 @R1           0 00000000 FFFFFFFD     @     728  987U
1FILCACHE (FILC00) (09:38) (22MAR04) Ordinary Symbol and Literal Cross Reference                                            Page   50
 @R10          0 00000000 FFFFFFF4     @     845  951U 2497U 4010U 4345U 4558U 5035U 5714U 6583U 6927U 7222U 7379U
 @R11          0 00000000 FFFFFFF3     @     858  947U
 @R12          0 00000000 FFFFFFF2     @     871  943U 2492U 4005U 5709U 6578U 6922U 7217U 7374U
 @R13          0 00000000 FFFFFFF1     @     884  939U 2081U 2143U 2280U 2426U 2508U 2756U 2815U 2862U 2914U 2969U 3306U
                                                 3408U 4021U 5725U 6594U 6938U 7163U 7233U
 @R14          0 00000000 FFFFFFF0     @     897  935U
 @R15          0 00000000 FFFFFFEF     @     910  931U
 @R2           0 00000000 FFFFFFFC     @     741  983U 2030U 2066U
 @R3           0 00000000 FFFFFFFB     @     754  979U
 @R4           0 00000000 FFFFFFFA     @     767  975U
 @R5           0 00000000 FFFFFFF9     @     780  971U 4287U 6232U
 @R6           0 00000000 FFFFFFF8     @     793  967U 2487U 4000U 4340U 4553U 5030U 5704U 6573U 6917U 7212U 7369U
 @R7           0 00000000 FFFFFFF7     @     806  963U 2409U 3437U 3650U 4241U 4335U 4541U 5025U 5670U 6187U 6568U 6912U
 @R8           0 00000000 FFFFFFF6     @     819  959U
 @R9           0 00000000 FFFFFFF5     @     832  955U
 @VMFLEN       4 00000004 FFFFFFEC     A    1391 2301M 2942M 3322M 3369M 7184M
 @VMFLOC       4 00000000 FFFFFFEC     A    1390 2312M 2953M 3327M 3380M 7195M
 @VMFPOOL      2 00000008 FFFFFFEC     H    1392 2313M 2954M 3328M 3381M 7196M
 @VMFREE      10 00000000 FFFFFFEC     J    1399 2283U 2291M 2291  2917U 2925M 2925  3309U 3317M 3317  3352M 3352  7166U
                                                 7174M 7174
 @VMGET       11 00000000 FFFFFFED     J    1378 1899U 1907M 1907  2146U 2154M 2154  2228M 2228  2759U 2767M 2767  2865U
                                                 2873M 2873
 @VMGFLG       1 0000000A FFFFFFED     R    1360 1364  1369
 @VMGLEN       4 00000000 FFFFFFED     A    1355 1917M 2164M 2238M 2784M 2878M
 @VMGPAGE    128 0000000A FFFFFFED         1364 2245M
 @VMGPOOL      2 00000008 FFFFFFED     H    1357 1918M 2165M 2239M 2785M 2879M
 APURGE51      2 00000776 00000001     H    4369 4368
 BR           10 0000000A FFFFFFFF A   #    1136 1847M 1857U 2543M 2553U 4045M 4055U 4375M 4385U 4594M 4604U 5103M 5113U
                                                 5751M 5761U 6620M 6630U 6961M 6971U 7258M 7268U
 CAB          80 00000000 FFFFFFE3     J    1693 1742  1743  2009U 2020M 2020  2045U 2056M 2056  2201U 2376  2380M 2381
                                                 2382M 2383M 2385M 2388  2388  2672U 2779  2842M 2842  2937  3015  3019M
                                                 3020  3021M 3022M 3024M 3076  3079  3080M 3080  3081  3082M 3082  3084M
                                                 3085M 3209  3212  3213M 3213  3214  3215M 3215  3217M 3218M 3241  3364
                                                 3493U 4080U 4153  4209  4244U 4263M 4282U 4480U 4506  4509  4510M 4510
                                                 4511  4512M 4512  4514M 4515M 4524  4528M 4529  4530M 4531M 4533M 4629U
                                                 4702  5071  5302U 5617  5620  5621M 5621  5622  5623M 5623  5625M 5626M
                                                 5628  5632M 5633  5634M 5635M 5637M 5930U 5973  5976  5977M 5977  5978
                                                 5979M 5979  5981M 5982M 6019  6022  6023M 6023  6024  6025M 6025  6027M
                                                 6028M 6131  6134  6135M 6135  6136  6137M 6137  6139M 6140M 6155  6190U
                                                 6209M 6227U 6527  6531M 6532  6533M 6534M 6536M 6799U 6841  6844  6845M
                                                 6845  6846  6847M 6847  6849M 6850M 6852  6856M 6857  6858M 6859M 6861M
 CABBUFP       4 00000038 FFFFFFE3     A    1680 2373M 2990M 3163M 3163  3327  3333M 4495M 4495  4864  5551  6431
 CABCLCK       4 0000004C FFFFFFE3     F    1686 2387M 3026M 4535M 5639M 6538M 6863M
 CABHDR       32 00000018 FFFFFFE3     X    1679 4756  4757  5471  6365  6366  7396
 CABID         4 00000000 FFFFFFE3     C    1671 2021M 2057M 2371M 2843M 3285M
 CABKEY        8 00000010 FFFFFFE3     D    1677 4198  5317  5965  6144  6290M 6834
 CABLINK       4 00000004 FFFFFFE3     A    1672 2372M 2844M 3286M 4209  4263M 4263  4264M 4272  5664  5989  6042  6155
                                                 6209M 6209  6217  6302M 6881
 CABNCOUNTS
               8 00000040 FFFFFFE3     X    1684 6287M 6287
 CABNRDS       4 00000040 FFFFFFE3     F    1682 1684  1684  5642  5645M
 CABNWRS       4 00000044 FFFFFFE3     F    1683 6490  6493M
 CABQB         4 0000000C FFFFFFE3     A    1675 2023M 2059M 2380M 2383M 3019M 3022M 3079  3082M 3082  3084M 3151  3212
                                                 3215M 3215  3217M 3288M 3509  4509  4512M 4512  4514M 4528M 4531M 5620
                                                 5623M 5623  5625M 5632M 5635M 5976  5979M 5979  5981M 6022  6025M 6025
                                                 6027M 6116  6129  6134  6137M 6137  6139M 6531M 6534M 6844  6847M 6847
                                                 6849M 6856M 6859M
 CABQF         4 00000008 FFFFFFE3     A    1674 2022M 2058M 2381  2382M 2385M 3020  3021M 3024M 3067  3073  3080M 3080
                                                 3081  3085M 3107  3213M 3213  3214  3218M 3287M 3565  4484  4510M 4510
1FILCACHE (FILC00) (09:38) (22MAR04) Ordinary Symbol and Literal Cross Reference                                            Page   51
                                                 4511  4515M 4529  4530M 4533M 5621M 5621  5622  5626M 5633  5634M 5637M
                                                 5977M 5977  5978  5982M 6011  6017  6023M 6023  6024  6028M 6135M 6135
                                                 6136  6140M 6532  6533M 6536M 6845M 6845  6846  6850M 6857  6858M 6861M
 CABR          7 00000007 00000001 A   #    1646 2192M 2201U 2328  2388M 2672U 2835M 3055M 3067  3073M 3094M 3107  3151M
                                                 3484M 3493U 3509  3565  4080U 4257  4471M 4480U 4484M 4629U 5273M 5288M
                                                 5288  5302U 5664M 5920M 5930U 5948M 5948  5989M 5999M 6011  6017M 6104M
                                                 6116  6129M 6203  6303  6789M 6799U 6817M 6817  6881M
 CABVRFYD      4 0000003C FFFFFFE3     F    1681 5362  6520M
 CACHKSUM      4 00000850 00000001     I    4593 4604U 7395
 CACLOSE       4 0000117A 00000001     I    6960 6955  6971U
 CACTEXIT      2 00000658 00000001     H    3996 2830B 2984B
 CACTRL        4 000001F4 00000001     I    2542 2537  2553U 5058  7401
 CAC1REL       2 0000043E 00000001     H    3231 3086B
 CADELETE      4 00001042 00000001     I    6619 6614  6630U
 CADLEXIT      2 00001164 00000001     H    6908 6739B
 CADLULK       2 00001154 00000001     I    6889 6875B
 CAOPEN        4 00000022 00000001     I    1846 1841  1857U
 CAOPEXIT      2 000001DE 00000001     H    2483 1934B
 CAPURGE       4 00000782 00000001     I    4374 4385U 5066
 CARDEXIT      2 00000CC2 00000001     H    5700 5222B
 CARDULK       2 00000CB2 00000001     I    5680 5658B
 CAREAD        4 00000A6E 00000001     I    5102 5097  5113U
 CAUNEXIT      2 0000076C 00000001     H    4331 4265B
 CAUNLINK      4 0000066E 00000001     I    4044 4055U 5062  7400
 CAVERIFY      4 0000123A 00000001     I    7257 7252  7268U
 CAWREXIT      2 0000102C 00000001     H    6564 5870B
 CAWRITE       4 00000CD8 00000001     I    5750 5745  5761U
 CAWRNEW       2 00000ED2 00000001     H    6282 6210B
 CAWROLD       4 00000F00 00000001     I    6307 5983B
 CAWRULK       2 0000101C 00000001     I    6545 6123B
 CHKSUM51      2 00000844 00000001     H    4588 4587
 CIT         208 00000000 FFFFFFE2     J    1754 1949U 2400  2479  2583U 2599  4071U 4097  4401U 4418  4620U 4646  5049
                                                 5143U 5159  5791U 5807  6660U 6676  7001U 7017  7298U 7314  7404
 CIT#RD        4 0000000C FFFFFFE2     F    1730 5229  5232M
 CIT#RDF       4 00000010 FFFFFFE2     F    1731 5649  5652M
 CIT#WR        4 00000014 FFFFFFE2     F    1732 5877  5880M 6746  6749M
 CITDCUR       4 0000001C FFFFFFE2     F    1737 2332M 2364  2692  2734  3008  3011M 3046  3388  3391M
 CITDEFH#      1 00003B11 FFFFFFE2 A   N    1745 5050  5053
 CITDLEN       4 00000018 FFFFFFE2     F    1736 1992M 2210  2389  2878  3001  3322  4916  5505  6385  6486
 CITDMAX       4 00000020 FFFFFFE2     F    1738 2333M 2662M 2692  2734  3046
 CITFDISABLED
             128 00000004 FFFFFFE2         1717 3478  3630M 3700  3725M 5215  5863  6732
 CITFLAG       1 00000004 FFFFFFE2     R    1713 1717  1722
 CITFREEQ     80 0000002C FFFFFFE2     X    1742 1999  2377  2384  3016  3023  3055  4525  4532  5999  6853  6860  7139M
 CITFVERIFY
              64 00000004 FFFFFFE2         1722 3897M 3923  3944M 5337  6507
 CITHASHQ      4 000000D0 FFFFFFE2     A    1747 4209  4210  5273  5920  6155  6156  6301  6303M 6789
 CITID         4 00000000 FFFFFFE2     C    1709 1990M 7138M
 CITLOCK       4 00000008 FFFFFFE2     F    1726 2103M 2714  2824  2978  3417  3619  3640  3715  3742  3797  3818  3869
                                                 3959  5254  5690  5901  6555  6770  6899
 CITLRUQ      80 0000007C FFFFFFE2     X    1743 2035  3094  3484  4471  5629  5636  6104  6528  6535  7140M
 CITNHASH      4 000000CC FFFFFFE2     F    1746 1993M 4207  5271  5918  6153  6299  6787  7144
 CITR          6 00000006 00000001 A   #    1634 1940M 1949U 1985  2574M 2583U 4071U 4401U 4620U 5134M 5143U 5782M 5791U
                                                 6651M 6660U 6992M 7001U 7289M 7298U
 EPAR         15 0000000F FFFFFFFF A   #    1196 1847  1921M 1922B 2101M 2102B 2168M 2169B 2248M 2249B 2316M 2317B 2476M
                                                 2477B 2543  2717M 2718B 2788M 2789B 2827M 2828B 2882M 2883B 2957M 2958B
                                                 2981M 2982B 3225M 3226B 3331M 3332B 3384M 3385B 3420M 3421B 3622M 3623B
                                                 3643M 3644B 3718M 3719B 3731M 3732B 3745M 3746B 3800M 3801B 3807M 3808B
                                                 3821M 3822B 3872M 3873B 3937M 3938B 3962M 3963B 4045  4375  4521M 4522B
1FILCACHE (FILC00) (09:38) (22MAR04) Ordinary Symbol and Literal Cross Reference                                            Page   52
                                                 4594  5103  5257M 5258B 5348M 5349B 5693M 5694B 5751  5904M 5905B 6518M
                                                 6519B 6558M 6559B 6620  6773M 6774B 6869M 6870B 6902M 6903B 6961  7129M
                                                 7130B 7199M 7200B 7258
 FILCACHE      1 00000000 00000001     J    1220 1217  1218  1222  1337  1379  1400  1421  1456  1475  1512  1533  1557
                                                 1576  1595  1614  1627  1642  1654  1694  1755
 FILC00        1 00000000 00000001     R    1229 1227
 HIBAL         1 00000000 FFFFFFFF     J     700  716   729   742   755   768   781   794   807   820   833   846   859
                                                  872   885   898   911  1012  1024  1036  1048  1060  1072  1084  1096
                                                 1108  1120  1132  1144  1156  1168  1180  1192  1204
 LKCRE         1 00000000 00000003     T    5055 5055
 LKOB          1 00000000 00000005     T    5060 5060  7393
 LKREL         1 00000000 00000006     T    5061 5061  7398
 PZABORT     128 0000021A FFFFFFEE         1317 2623M 3131M 3187M 3265M 3533M 3589M 4121M 4177M 4311M 4442M 4670M 4726M
                                                 4791M 4896M 4950M 5183M 5386M 5451M 5529M 5586M 5831M 6066M 6256M 6345M
                                                 6409M 6466M 6700M 7041M 7338M
 PZABR15       4 0000021C FFFFFFEE     A    1326 2624M 3132M 3188M 3266M 3534M 3590M 4122M 4178M 4312M 4443M 4671M 4727M
                                                 4792M 4897M 4951M 5184M 5387M 5452M 5530M 5587M 5832M 6067M 6257M 6346M
                                                 6410M 6467M 6701M 7042M 7339M
 PZABSM        1 0000021B FFFFFFEE     X    1325 2617M 3125M 3181M 3259M 3527M 3583M 4115M 4171M 4305M 4436M 4664M 4720M
                                                 4785M 4890M 4944M 5177M 5380M 5445M 5523M 5580M 5825M 6060M 6250M 6339M
                                                 6403M 6460M 6694M 7035M 7332M
 PZERO       640 00000000 FFFFFFEE     J    1336 2615U 3123U 3179U 3257U 3525U 3581U 4113U 4169U 4303U 4434U 4662U 4718U
                                                 4783U 4888U 4942U 5175U 5378U 5443U 5521U 5578U 5823U 6058U 6248U 6337U
                                                 6401U 6458U 6692U 7033U 7330U
 PZLCPUA       4 00000210 FFFFFFEE     A    1304 2625  3133  3189  3267  3535  3591  4123  4179  4313  4444  4672  4728
                                                 4793  4898  4952  5185  5388  5453  5531  5588  5833  6068  6258  6347
                                                 6411  6468  6702  7043  7340
 PZTERMFL      1 0000021A FFFFFFEE     R    1313 1317  1322
 RA            2 00000002 FFFFFFFF A   #    1028 1999M 2009U 2022  2023  2035M 2045U 2058  2059  2208M 2208  2210M 2376M
                                                 2380  2382  2383  2385  3008M 3010  3011M 3015M 3019  3021  3022  3024
                                                 3076M 3079  3080  3081  3082  3084  3085  3209M 3212  3213  3214  3215
                                                 3217  3218  3388M 3389  3391M 4198M 4200M 4201  4206M 4206  4207M 4208M
                                                 4209  4210  4506M 4509  4510  4511  4512  4514  4515  4524M 4528  4530
                                                 4531  4533  4756M 4852M 4864M 4865M 4865  5011M 5229M 5231  5232M 5262M
                                                 5264M 5265  5270M 5270  5271M 5272M 5273  5413M 5473M 5477M 5607M 5617M
                                                 5620  5621  5622  5623  5625  5626  5628M 5632  5634  5635  5637  5642M
                                                 5644  5645M 5649M 5651  5652M 5680M 5695  5877M 5879  5880M 5909M 5911M
                                                 5912  5917M 5917  5918M 5919M 5920  5973M 5976  5977  5978  5979  5981
                                                 5982  6019M 6022  6023  6024  6025  6027  6028  6131M 6134  6135  6136
                                                 6137  6139  6140  6144M 6146M 6147  6152M 6152  6153M 6154M 6155  6156
                                                 6289M 6290  6292M 6293  6298M 6298  6299M 6300M 6301  6303  6307M 6367M
                                                 6371M 6487M 6490M 6492  6493M 6527M 6531  6533  6534  6536  6545M 6560
                                                 6746M 6748  6749M 6778M 6780M 6781  6786M 6786  6787M 6788M 6789  6841M
                                                 6844  6845  6846  6847  6849  6850  6852M 6856  6858  6859  6861  6889M
                                                 6904  7144M 7145M 7146M
 RAR          14 0000000E FFFFFFFF A   #    1184 1922M 2102M 2169M 2249M 2317M 2477M 2502B 2718M 2789M 2828M 2883M 2958M
                                                 2982M 3226M 3332M 3385M 3421M 3623M 3644M 3719M 3732M 3746M 3801M 3808M
                                                 3822M 3873M 3938M 3963M 4015B 4350B 4522M 4563B 5040B 5258M 5349M 5694M
                                                 5719B 5905M 6519M 6559M 6588B 6774M 6870M 6903M 6932B 7130M 7200M 7227B
                                                 7384B
 RB            3 00000003 FFFFFFFF A   #    1040 2209M 2331  2361  2377M 2380  2381M 2381  2382  2383  2384M 2385  3009M
                                                 3010M 3011  3016M 3019  3020M 3020  3021  3022  3023M 3024  3079M 3080
                                                 3081M 3082  3083M 3084  3085  3212M 3213  3214M 3215  3216M 3217  3218
                                                 3389M 3390M 3391  4198M 4201M 4202M 4509M 4510  4511M 4512  4513M 4514
                                                 4515  4525M 4528  4529M 4529  4530  4531  4532M 4533  4757M 4759  4822M
                                                 4822  4828M 4838M 4838  4853M 4916M 4918  4981M 4981  4987M 4997M 4997
                                                 5012M 5230M 5231M 5232  5262M 5265M 5266M 5414M 5427  5472  5480M 5481M
                                                 5481  5505  5606  5620M 5621  5622M 5623  5624M 5625  5626  5629M 5632
                                                 5633M 5633  5634  5635  5636M 5637  5643M 5644M 5645  5650M 5651M 5652
1FILCACHE (FILC00) (09:38) (22MAR04) Ordinary Symbol and Literal Cross Reference                                            Page   53
                                                 5878M 5879M 5880  5909M 5912M 5913M 5976M 5977  5978M 5979  5980M 5981
                                                 5982  6022M 6023  6024M 6025  6026M 6027  6028  6134M 6135  6136M 6137
                                                 6138M 6139  6140  6144M 6147M 6148M 6289M 6290  6293M 6294M 6308M 6321
                                                 6372M 6385  6491M 6492M 6493  6528M 6531  6532M 6532  6533  6534  6535M
                                                 6536  6747M 6748M 6749  6778M 6781M 6782M 6844M 6845  6846M 6847  6848M
                                                 6849  6850  6853M 6856  6857M 6857  6858  6859  6860M 6861
 RJ            4 00000004 FFFFFFFF A   #    1052 2325M 2331  2373  2389M 4209M 4263  4271M 5471M 5473M 5551M 5552M 5552
                                                 5562M 5562  5607M 6155M 6209  6216M 6301M 6302  6365M 6367M 6431M 6432M
                                                 6432  6442M 6442  6487M
 RK            5 00000005 FFFFFFFF A   #    1064 1881M 1882M 1965  1985  2125M 2126M 2328  2346  4210M 4221M 4221  4244U
                                                 4257  4271  4272M 5472M 5606M 6156M 6167M 6167  6190U 6203  6216  6217M
                                                 6366M 6486M
 RS            1 00000001 FFFFFFFF A   #    1016 4759M 4760M 4918M 4919M
 RVR           0 00000000 FFFFFFFF A   #    1004 1931M 1931  1940  2103  2178M 2178  2192  2258M 2258  2325  2364M 2400M
                                                 2460M 2479M 2779M 2798M 2798  2829M 2835  2892M 2892  2937M 2983M 2990
                                                 2996  3364M 3431M 3431  3658M 3658  3755M 3755  3827M 3827  3968M 3968
                                                 3987M 4752M 4752  4828  4829M 4845M 4850M 4987  4988M 5004M 5009M 5221M
                                                 5362  5657M 5657  5678M 5680  5695M 5869M 6122M 6520  6543M 6543  6545
                                                 6560M 6738M 6874M 6874  6887M 6889  6904M 7093M 7107M 7107  7205M 7205
                                                 7362M 7362
 RX            6 00000006 FFFFFFFF A   #    1076 1634  1634
 RY            7 00000007 FFFFFFFF A   #    1088 1646  1646
 R0            0 00000000 FFFFFFFF A   #     708 1846  1966M 1966  1967M 2347M 2347  2348M 2362M 2362  2363M 2542  2615U
                                                 3002M 3002  3003M 3123U 3179U 3257U 3525U 3581U 4044  4113U 4169U 4303U
                                                 4374  4434U 4593  4662U 4718U 4783U 4888U 4942U 5102  5175U 5378U 5443U
                                                 5521U 5578U 5750  5823U 6058U 6248U 6337U 6401U 6458U 6619  6692U 6960
                                                 7033U 7257  7330U
 R1            1 00000001 FFFFFFFF A   #     721 2500M 4013M 4348M 4561M 5038M 5717M 6586M 6930M 7225M 7382M
 R14          14 0000000E FFFFFFFF A   #     890 1960M 1965M 1967M 2341M 2346M 2348M 2356M 2361M 2363M 2996M 3001M 3003M
 R15          15 0000000F FFFFFFFF A   #     903 1846  2500M 2542  2624  2625M 2626M 2627M 2628M 2629M 2629  3132  3133M
                                                 3134M 3135M 3136M 3137M 3137  3188  3189M 3190M 3191M 3192M 3193M 3193
                                                 3266  3267M 3268M 3269M 3270M 3271M 3271  3534  3535M 3536M 3537M 3538M
                                                 3539M 3539  3590  3591M 3592M 3593M 3594M 3595M 3595  4013M 4044  4122
                                                 4123M 4124M 4125M 4126M 4127M 4127  4178  4179M 4180M 4181M 4182M 4183M
                                                 4183  4312  4313M 4314M 4315M 4316M 4317M 4317  4348M 4374  4443  4444M
                                                 4445M 4446M 4447M 4448M 4448  4561M 4593  4671  4672M 4673M 4674M 4675M
                                                 4676M 4676  4727  4728M 4729M 4730M 4731M 4732M 4732  4792  4793M 4794M
                                                 4795M 4796M 4797M 4797  4897  4898M 4899M 4900M 4901M 4902M 4902  4951
                                                 4952M 4953M 4954M 4955M 4956M 4956  5038M 5102  5184  5185M 5186M 5187M
                                                 5188M 5189M 5189  5387  5388M 5389M 5390M 5391M 5392M 5392  5452  5453M
                                                 5454M 5455M 5456M 5457M 5457  5530  5531M 5532M 5533M 5534M 5535M 5535
                                                 5587  5588M 5589M 5590M 5591M 5592M 5592  5717M 5750  5832  5833M 5834M
                                                 5835M 5836M 5837M 5837  6067  6068M 6069M 6070M 6071M 6072M 6072  6257
                                                 6258M 6259M 6260M 6261M 6262M 6262  6346  6347M 6348M 6349M 6350M 6351M
                                                 6351  6410  6411M 6412M 6413M 6414M 6415M 6415  6467  6468M 6469M 6470M
                                                 6471M 6472M 6472  6586M 6619  6701  6702M 6703M 6704M 6705M 6706M 6706
                                                 6930M 6960  7042  7043M 7044M 7045M 7046M 7047M 7047  7225M 7257  7339
                                                 7340M 7341M 7342M 7343M 7344M 7344  7382M
 SPR          13 0000000D FFFFFFFF A   #    1172 1846  1861  1862  1877M 1899U 2084U 2146U 2283U 2386  2387  2429U 2542
                                                 2557  2558  2573M 2708U 2759U 2818U 2865U 2917U 2972U 3025  3026  3309U
                                                 3411U 4044  4059  4060  4062M 4374  4389  4390  4392M 4534  4535  4593
                                                 4608  4609  4611M 5102  5117  5118  5133M 5248U 5638  5639  5750  5765
                                                 5766  5781M 5895U 6537  6538  6619  6634  6635  6650M 6764U 6862  6863
                                                 6960  6975  6976  6991M 7073U 7166U 7257  7272  7273  7288M
 UNLINK51      2 00000662 00000001     H    4039 4038
 VMFREE        1 00000000 00000004     T    5056 5056  7405
 VMGET         1 00000000 00000002     T    5051 5051
 WAR          12 0000000C FFFFFFFF A   #    1160 1861  1862M 1863  1873U 1877  2500  2501  2557  2558M 2559  2569U 2573
                                                 4013  4014  4059  4060M 4061  4062  4348  4349  4389  4390M 4391  4392
1FILCACHE (FILC00) (09:38) (22MAR04) Ordinary Symbol and Literal Cross Reference                                            Page   54
                                                 4561  4562  4608  4609M 4610  4611  5038  5039  5117  5118M 5119  5129U
                                                 5133  5717  5718  5765  5766M 5767  5777U 5781  6586  6587  6634  6635M
                                                 6636  6646U 6650  6930  6931  6975  6976M 6977  6987U 6991  7225  7226
                                                 7272  7273M 7274  7284U 7288  7382  7383
 =A(CACHKSUM)
               4 000012A0 00000001     A    7395 5348  6518
 =A(CACTRL)
               4 00000A24 00000001     A    5058 2476
 =A(CACTRL)
               4 000012B8 00000001     A    7401 7129
 =A(CAPURGE)
               4 00000A44 00000001     A    5066 3731  3807  3937
 =A(CAUNLINK)
               4 00000A34 00000001     A    5062 3225  4521
 =A(CAUNLINK)
               4 000012B4 00000001     A    7400 6869
 =A(CITDEFH#*4)
               4 00000A04 00000001     A    5050 1882
 =A(CITDEFH#)
               4 00000A10 00000001     A    5053 1993
 =A(L'CABHDR)
               4 000012A4 00000001     A    7396 5427  6321
 =A(L'CIT)
               4 00000A00 00000001     A    5049 1881
 =A(L'CIT)
               4 000012C4 00000001     A    7404 7146
 =A(X'7FFFFFFF')
               4 00000A50 00000001     A    5069 4202
 =A(X'7FFFFFFF')
               4 0000129C 00000001     A    7394 5266  5913  6148  6294  6782
 =AL4(-1)      4 000012B0 00000001     R    7399 6042
 =C'CAB'       3 00000A5F 00000001     C    5075 3241  4153  4702
 =C'CIT'       3 00000A5C 00000001     C    5074 2599  4097  4418  4646
 =C'CIT'       3 000012CE 00000001     C    7407 5159  5807  6676  7017  7314
 =C'XCAB'      4 00000A38 00000001     C    5063 3285
 =C'XCAB'      4 000012C0 00000001     C    7403 7139  7140
 =C'XCIT'      4 000012BC 00000001     C    7402 7138
 =CL16'FILE_CACHE'
              16 000009F0 00000001     C    5048 2098
 =CL4'CAB'
               4 00000A14 00000001     C    5054 2021  2057  2371  2843
 =CL4'CIT'
               4 00000A0C 00000001     C    5052 1990
 =F'-1'        4 00000A20 00000001     F    5057 2372  2844  3083  3216  3286  3287  3288  3333  4264  4513
 =F'-1'        4 000012A8 00000001     F    7397 5624  5980  6026  6138  6848
 =F'1'         4 00000A28 00000001     F    5059 2656  4845  5004
 =F'2'         4 00000A3C 00000001     F    5064 3463
 =F'3'         4 00000A40 00000001     F    5065 3685  4760  4919
 =F'4'         4 00000A48 00000001     F    5067 3782
 =F'5'         4 00000A4C 00000001     F    5068 3854
 =H'4'         2 00000A5A 00000001     H    5073 4853  5012
 =V(LKCRE)
               4 00000A18 00000001     V    5055 2101
 =V(LKOB)      4 00000A2C 00000001     V    5060 2717  3622  3718  3800  3872
 =V(LKOB)      4 00001298 00000001     V    7393 5257  5904  6773
 =V(LKREL)
               4 00000A30 00000001     V    5061 2827  2981  3420  3643  3745  3821  3962
 =V(LKREL)
               4 000012AC 00000001     V    7398 5693  6558  6902
1FILCACHE (FILC00) (09:38) (22MAR04) Ordinary Symbol and Literal Cross Reference                                            Page   55
 =V(VMFREE)
               4 00000A1C 00000001     V    5056 2316  2957  3331  3384
 =V(VMFREE)
               4 000012C8 00000001     V    7405 7199
 =V(VMGET)
               4 00000A08 00000001     V    5051 1921  2168  2248  2788  2882
 =Y(L'CAB)
               2 00000A56 00000001     Y    5071 2126
 =Y(63*256+5)
               2 00000A54 00000001     Y    5070 1918  2165  2313  2785  2954  3381
 =Y(63*256+5)
               2 000012CC 00000001     Y    7406 7196
 =Y(63*256+6)
               2 00000A58 00000001     Y    5072 2239  2879  3328

1FILCACHE (FILC00) (09:38) (22MAR04) Macro and Copy Code Source Summary                                                     Page   56
- Con Source                                        Volume    Members                        HLASM R4.0  2004/03/22 09.38
0     PRIMARY INPUT                                           CADQ     CAHASH   CAQ      CSECT    DROP     END      EX
                                                              LKVER    LTORG    POP      PRINT    PUSH     START
                                                              USING
   L2 WYL.GG.ORV.MACLIB                             SYSB02    $LKPARM  ABORT    ACALL    CACHCB   CACHPARM FAIL
                                                              HEADER   LKCRE    LKOB     LKREL    LOCKPARM MODULE   PEND
                                                              PMOV     PROC     PSET     PZERO    REG      SPLEVEL
                                                              SYSCTL   VCALL    VMFREE   VMGET    VMPARM
   L3 WYL.GG.SYS.MACLIB                             SYSB05    $BC      $BFLKUP  $BV      $CCLKUP  $CRS     $CSS     $L
                                                              $LA      $LBLAD   $LEXP    $LOR     $REL     $RGLKUP
                                                              $USLKUP  BEGIN    CLEAR    CSECT    DECRR    DEFCC    DIAG
                                                              DROP     ELSE     ELSEIF   END      EX       EXIT     FLAG
                                                              GEN      HIBAL    IDENT    IF       INCRR    LABEL    LOOP
                                                              LT       LTORG    POP      PRINT    PUSH     RECORD   REGS
                                                              SET      START    STF      UNTIL    USING    WHILE    WITH
                                                              ZOT

1         (FILC00) (09:38) (22MAR04) General Purpose Register Cross Reference                                               Page   57
- Register  References (M=modified, B=branch, U=USING, D=DROP, N=index)                      HLASM R4.0  2004/03/22 09.38
0    0(0)     991U  992D 1846  1931M 1931  1940  1967M 2103  2178M 2178  2192  2258M 2258  2325  2348M 2363M 2364M 2395M
             2400M 2460M 2465  2479M 2542  2637D 2779M 2784  2798M 2798  2829M 2835  2892M 2892  2937M 2942  2983M 2990
             2996  3003M 3145D 3201D 3279D 3364M 3369  3431M 3431  3547D 3603D 3658M 3658  3755M 3755  3827M 3827  3968M
             3968  3987M 4044  4135D 4191D 4303U 4324U 4325D 4374  4456D 4593  4684D 4740D 4752M 4752  4805D 4828  4829M
             4845M 4850M 4910D 4964D 4987  4988M 5004M 5009M 5102  5197D 5221M 5362  5378U 5399U 5400D 5443U 5464U 5465D
             5521U 5542U 5543D 5578U 5599U 5600D 5657M 5657  5678M 5680  5695M 5750  5845D 5869M 6058U 6079U 6080D 6122M
             6248U 6269U 6270D 6337U 6358U 6359D 6401U 6422U 6423D 6458U 6479U 6480D 6520  6543M 6543  6545  6560M 6619
             6714D 6738M 6874M 6874  6887M 6889  6904M 6960  7055D 7093M 7098  7107M 7107  7112  7205M 7205  7257  7352D
             7362M 7362
     1(1)     987U 1846  1966M 1966  1967M 2347M 2347  2348M 2362M 2362  2363M 2500M 2542  3002M 3002  3003M 4013M 4044
             4348M 4374  4561M 4593  4759M 4760M 4918M 4919M 5038M 5102  5717M 5750  6586M 6619  6930M 6960  7225M 7257
             7382M
     2(2)     983U 1846  1999M 2009U 2022  2023  2030U 2035M 2045U 2058  2059  2066U 2208M 2208  2210M 2376M 2380  2382
             2383  2385  2500M 2542  3008M 3010  3011M 3015M 3019  3021  3022  3024  3076M 3079  3080  3081  3082  3084
             3085  3209M 3212  3213  3214  3215  3217  3218  3388M 3389  3391M 4013M 4044  4198M 4200M 4201  4206M 4206
             4207M 4208M 4209N 4210N 4348M 4374  4506M 4509  4510  4511  4512  4514  4515  4524M 4528  4530  4531  4533
             4561M 4593  4756M 4852M 4864M 4865M 4865  5011M 5038M 5102  5229M 5231  5232M 5262M 5264M 5265  5270M 5270
             5271M 5272M 5273N 5413M 5473M 5477M 5607M 5617M 5620  5621  5622  5623  5625  5626  5628M 5632  5634  5635
             5637  5642M 5644  5645M 5649M 5651  5652M 5680M 5695  5717M 5750  5877M 5879  5880M 5909M 5911M 5912  5917M
             5917  5918M 5919M 5920N 5973M 5976  5977  5978  5979  5981  5982  6019M 6022  6023  6024  6025  6027  6028
             6131M 6134  6135  6136  6137  6139  6140  6144M 6146M 6147  6152M 6152  6153M 6154M 6155N 6156N 6289M 6290
             6292M 6293  6298M 6298  6299M 6300M 6301N 6303N 6307M 6367M 6371M 6487M 6490M 6492  6493M 6527M 6531  6533
             6534  6536  6545M 6560  6586M 6619  6746M 6748  6749M 6778M 6780M 6781  6786M 6786  6787M 6788M 6789N 6841M
             6844  6845  6846  6847  6849  6850  6852M 6856  6858  6859  6861  6889M 6904  6930M 6960  7144M 7145M 7146M
             7184  7225M 7257  7382M
     3(3)     979U 1846  2209M 2210M 2238  2361  2377M 2380  2381M 2381  2382  2383  2384M 2385  2500M 2542  3009M 3010M
             3011  3016M 3019  3020M 3020  3021  3022  3023M 3024  3079M 3080  3081M 3082  3083M 3084  3085  3212M 3213
             3214M 3215  3216M 3217  3218  3389M 3390M 3391  4013M 4044  4198M 4201M 4202M 4207M 4348M 4374  4509M 4510
             4511M 4512  4513M 4514  4515  4525M 4528  4529M 4529  4530  4531  4532M 4533  4561M 4593  4757M 4759  4822M
             4822  4828M 4838M 4838  4853M 4916M 4918  4981M 4981  4987M 4997M 4997  5012M 5038M 5102  5230M 5231M 5232
             5262M 5265M 5266M 5271M 5414M 5427  5472  5473M 5480M 5481M 5481  5505  5606  5607M 5620M 5621  5622M 5623
             5624M 5625  5626  5629M 5632  5633M 5633  5634  5635  5636M 5637  5643M 5644M 5645  5650M 5651M 5652  5717M
             5750  5878M 5879M 5880  5909M 5912M 5913M 5918M 5976M 5977  5978M 5979  5980M 5981  5982  6022M 6023  6024M
             6025  6026M 6027  6028  6134M 6135  6136M 6137  6138M 6139  6140  6144M 6147M 6148M 6153M 6289M 6290  6293M
             6294M 6299M 6308M 6321  6367M 6372M 6385  6487M 6491M 6492M 6493  6528M 6531  6532M 6532  6533  6534  6535M
             6536  6586M 6619  6747M 6748M 6749  6778M 6781M 6782M 6787M 6844M 6845  6846M 6847  6848M 6849  6850  6853M
             6856  6857M 6857  6858  6859  6860M 6861  6930M 6960  7225M 7257  7382M
     4(4)     975U 1846  2325M 2373  2389M 2500M 2542  4013M 4044  4209M 4263  4271M 4348M 4374  4561M 4593  5038M 5102
             5471M 5473M 5551M 5552M 5552  5562M 5562  5607M 5717M 5750  6155M 6209  6216M 6301M 6302  6365M 6367M 6431M
             6432M 6432  6442M 6442  6487M 6586M 6619  6930M 6960  7225M 7257  7382M
     5(5)     971U 1846  1881M 1882M 1917  1965  2125M 2126M 2164  2301  2346  2500M 2542  4013M 4044  4210M 4221M 4221
             4244U 4257  4271  4272M 4287U 4348M 4374  4561M 4593  5038M 5102  5472M 5473M 5606M 5607M 5717M 5750  6156M
             6167M 6167  6190U 6203  6216  6217M 6232U 6366M 6367M 6486M 6487M 6586M 6619  6930M 6960  7225M 7257  7382M
     6(6)     967U 1846  1940M 1949U 1960  2448  2487U 2500M 2542  2574M 2583U 4000U 4013M 4044  4071U 4340U 4348M 4374
             4401U 4553U 4561M 4593  4620U 5030U 5038M 5102  5134M 5143U 5704U 5717M 5750  5782M 5791U 6573U 6586M 6619
             6651M 6660U 6917U 6930M 6960  6992M 7001U 7123  7195  7212U 7225M 7257  7289M 7298U 7369U 7382M
     7(7)     963U 1846  2192M 2201U 2312  2341  2388M 2409U 2500M 2542  2672U 2835M 2953  3055M 3067  3073M 3094M 3107
             3151M 3380  3437U 3484M 3493U 3509  3565  3650U 4013M 4044  4080U 4241U 4257  4282U 4335U 4348M 4374  4471M
             4480U 4484M 4541U 4561M 4593  4629U 5025U 5038M 5102  5273M 5288M 5288  5302U 5664M 5670U 5717M 5750  5920M
             5930U 5948M 5948  5989M 5999M 6011  6017M 6104M 6116  6129M 6187U 6203  6227U 6303  6568U 6586M 6619  6789M
             6799U 6817M 6817  6881M 6912U 6930M 6960  7225M 7257  7382M
     8(8)     959U 1846  2500M 2542  4013M 4044  4348M 4374  4561M 4593  5038M 5102  5717M 5750  6586M 6619  6930M 6960
             7225M 7257  7382M
     9(9)     955U 1846  2500M 2542  4013M 4044  4348M 4374  4561M 4593  5038M 5102  5717M 5750  6586M 6619  6930M 6960
             7225M 7257  7382M
1         (FILC00) (09:38) (22MAR04) General Purpose Register Cross Reference                                               Page   58
    10(A)     951U 1846  1847M 1857U 2497U 2500M 2542  2543M 2553U 4010U 4013M 4044  4045M 4055U 4345U 4348M 4374  4375M
             4385U 4558U 4561M 4593  4594M 4604U 5035U 5038M 5102  5103M 5113U 5714U 5717M 5750  5751M 5761U 6583U 6586M
             6619  6620M 6630U 6927U 6930M 6960  6961M 6971U 7222U 7225M 7257  7258M 7268U 7379U 7382M
    11(B)     947U 1846  2500M 2542  4013M 4044  4348M 4374  4561M 4593  5038M 5102  5717M 5750  6586M 6619  6930M 6960
             7225M 7257  7382M
    12(C)     943U 1846  1861  1862M 1863  1873U 1877  2492U 2500M 2500  2501  2542  2557  2558M 2559  2569U 2573  4005U
             4013M 4013  4014  4044  4059  4060M 4061  4062  4348M 4348  4349  4374  4389  4390M 4391  4392  4561M 4561
             4562  4593  4608  4609M 4610  4611  5038M 5038  5039  5102  5117  5118M 5119  5129U 5133  5709U 5717M 5717
             5718  5750  5765  5766M 5767  5777U 5781  6578U 6586M 6586  6587  6619  6634  6635M 6636  6646U 6650  6922U
             6930M 6930  6931  6960  6975  6976M 6977  6987U 6991  7217U 7225M 7225  7226  7257  7272  7273M 7274  7284U
             7288  7374U 7382M 7382  7383
    13(D)     939U 1846  1846  1861  1862  1877M 1899U 2081U 2084U 2143U 2146U 2280U 2283U 2386  2387  2426U 2429U 2500M
             2508U 2542  2542  2557  2558  2573M 2708U 2756U 2759U 2815U 2818U 2862U 2865U 2914U 2917U 2969U 2972U 3025
             3026  3306U 3309U 3408U 3411U 4013M 4021U 4044  4044  4059  4060  4062M 4348M 4374  4374  4389  4390  4392M
             4534  4535  4561M 4593  4593  4608  4609  4611M 5038M 5102  5102  5117  5118  5133M 5248U 5638  5639  5717M
             5725U 5750  5750  5765  5766  5781M 5895U 6537  6538  6586M 6594U 6619  6619  6634  6635  6650M 6764U 6862
             6863  6930M 6938U 6960  6960  6975  6976  6991M 7073U 7163U 7166U 7225M 7233U 7257  7257  7272  7273  7288M
             7382M
    14(E)     935U 1846  1922M 1960M 1967M 2102M 2169M 2249M 2317M 2341M 2348M 2356M 2363M 2477M 2500M 2502B 2542  2718M
             2789M 2828M 2883M 2958M 2982M 2996M 3003M 3226M 3332M 3385M 3421M 3623M 3644M 3719M 3732M 3746M 3801M 3808M
             3822M 3873M 3938M 3963M 4013M 4015B 4044  4348M 4350B 4374  4522M 4561M 4563B 4593  5038M 5040B 5102  5258M
             5349M 5694M 5717M 5719B 5750  5905M 6519M 6559M 6586M 6588B 6619  6774M 6870M 6903M 6930M 6932B 6960  7130M
             7200M 7225M 7227B 7257  7382M 7384B
    15(F)     931U 1846  1847  1921M 1922B 1965M 1967M 2101M 2102B 2168M 2169B 2248M 2249B 2316M 2317B 2346M 2348M 2361M
             2363M 2476M 2477B 2500M 2542  2543  2624  2625M 2626M 2627M 2628M 2628  2629M 2629  2717M 2718B 2788M 2789B
             2827M 2828B 2882M 2883B 2957M 2958B 2981M 2982B 3001M 3003M 3132  3133M 3134M 3135M 3136M 3136  3137M 3137
             3188  3189M 3190M 3191M 3192M 3192  3193M 3193  3225M 3226B 3266  3267M 3268M 3269M 3270M 3270  3271M 3271
             3331M 3332B 3384M 3385B 3420M 3421B 3534  3535M 3536M 3537M 3538M 3538  3539M 3539  3590  3591M 3592M 3593M
             3594M 3594  3595M 3595  3622M 3623B 3643M 3644B 3718M 3719B 3731M 3732B 3745M 3746B 3800M 3801B 3807M 3808B
             3821M 3822B 3872M 3873B 3937M 3938B 3962M 3963B 4013M 4044  4045  4122  4123M 4124M 4125M 4126M 4126  4127M
             4127  4178  4179M 4180M 4181M 4182M 4182  4183M 4183  4312  4313M 4314M 4315M 4316M 4316  4317M 4317  4348M
             4374  4375  4443  4444M 4445M 4446M 4447M 4447  4448M 4448  4521M 4522B 4561M 4593  4594  4671  4672M 4673M
             4674M 4675M 4675  4676M 4676  4727  4728M 4729M 4730M 4731M 4731  4732M 4732  4792  4793M 4794M 4795M 4796M
             4796  4797M 4797  4897  4898M 4899M 4900M 4901M 4901  4902M 4902  4951  4952M 4953M 4954M 4955M 4955  4956M
             4956  5038M 5102  5103  5184  5185M 5186M 5187M 5188M 5188  5189M 5189  5257M 5258B 5348M 5349B 5387  5388M
             5389M 5390M 5391M 5391  5392M 5392  5452  5453M 5454M 5455M 5456M 5456  5457M 5457  5530  5531M 5532M 5533M
             5534M 5534  5535M 5535  5587  5588M 5589M 5590M 5591M 5591  5592M 5592  5693M 5694B 5717M 5750  5751  5832
             5833M 5834M 5835M 5836M 5836  5837M 5837  5904M 5905B 6067  6068M 6069M 6070M 6071M 6071  6072M 6072  6257
             6258M 6259M 6260M 6261M 6261  6262M 6262  6346  6347M 6348M 6349M 6350M 6350  6351M 6351  6410  6411M 6412M
             6413M 6414M 6414  6415M 6415  6467  6468M 6469M 6470M 6471M 6471  6472M 6472  6518M 6519B 6558M 6559B 6586M
             6619  6620  6701  6702M 6703M 6704M 6705M 6705  6706M 6706  6773M 6774B 6869M 6870B 6902M 6903B 6930M 6960
             6961  7042  7043M 7044M 7045M 7046M 7046  7047M 7047  7129M 7130B 7199M 7200B 7225M 7257  7258  7339  7340M
             7341M 7342M 7343M 7343  7344M 7344  7382M

1FILCACHE (FILC00) (09:38) (22MAR04) Diagnostic Cross Reference and Assembler Summary                                       Page   59
-                                                                                            HLASM R4.0  2004/03/22 09.38
0     No Statements Flagged in this Assembly
 HIGH LEVEL ASSEMBLER, 5696-234, RELEASE 4.0, PTF UQ57391
0SYSTEM: OS/390 02.10.00            JOBNAME: PJG#FCSH    STEPNAME: ASM        PROCSTEP: (NOPROC)
0Datasets Allocated for this Assembly
  Con DDname   Dataset Name                                 Volume  Member
   P1 SYSIN    SYS04082.T093846.RA000.PJG#FCSH.INPUT.H01    SCR101
   L1 SYSLIB   SYS3.DUMMYMAC                                SYSB02
   L2          WYL.GG.ORV.MACLIB                            SYSB02
   L3          WYL.GG.SYS.MACLIB                            SYSB05
      SYSLIN   WYL.GG.PJG.OBJ                               SYSB05  FILCACHE
      SYSPRINT SYS04082.T093846.RA000.PJG#FCSH.PRINT.H01    SCR100
      SYSTERM  GG$PJG.PJG#FCSH.JOB05930.D0000103.?

    7812K allocated to Buffer Pool,         1173K would be required for this to be an In-Storage Assembly
     884 Primary Input Records Read         4358 Library Records Read                  0 Work File Reads
       0 ASMAOPT Records Read               3888 Primary Print Records Written         0 Work File Writes
     107 Punch Records Written                 0 ADATA Records Written
0Assembly Start Time: 09.38.48 Stop Time: 09.38.51 Processor Time: 00.00.01.4698
 Return Code 000
