1                        J E S 2  J O B  L O G  --  S Y S T E M  S Y S B  --  N O D E  R L G
0
 09.47.26 JOB05982 ---- MONDAY,    22 MAR 2004 ----
 09.47.26 JOB05982  ICH70001I GG$PJG   LAST ACCESS AT 09:47:13 ON MONDAY, MARCH 22, 2004
 09.47.26 JOB05982  $HASP373 PJG#VFRY STARTED - INIT 2    - CLASS E - SYS SYSB
 09.47.26 JOB05982  ***  HCMD      STEP $$QUIET
 09.47.26 JOB05982  PURGE * Q=OUTPUT MULTIPLE
 09.47.26 JOB05982  JOB PJG#VFRY NOT IN OUTPUT QUEUE
 09.47.27 JOB05982  PJG#VFRY.$$QUIET .         RC=0008 TapeIO=0000 DiskIO=0000 CPU=  .01s Elapsed=46.57s
 09.47.27 JOB05982  PJG#VFRY.$CND    .         RC=Zero TapeIO=0000 DiskIO=0002 CPU=  .01s Elapsed=47.75s
 09.47.28 JOB05982  PJG#VFRY.$UNP    .         RC=Zero TapeIO=0000 DiskIO=0033 CPU=  .06s Elapsed=47.93s
 09.47.36 JOB05982  PJG#VFRY.ASM     .         RC=Zero TapeIO=0000 DiskIO=0701 CPU= 3.39s Elapsed=48.57s
 09.47.38 JOB05982  PJG#VFRY.$EDIT   .         RC=Zero TapeIO=0000 DiskIO=0172 CPU=  .67s Elapsed=56.25s
 09.47.38 JOB05982  PJG#VFRY Ended.  Name=Module: VFRY                   Total CPU= 4.14s Elapsed=46.57s
 09.47.38 JOB05982
 09.47.38 JOB05982  Execution charges   Priority=Standard   Block=Day
 09.47.38 JOB05982
 09.47.38 JOB05982  CPU Usage          75.75          $46.96   Standard Processing Unit Equivalent
 09.47.38 JOB05982                                   =======
 09.47.38 JOB05982                                    $46.96   Total Job execution charge
 09.47.38 JOB05982
 09.47.38 JOB05982  See back separator page for print charges
 09.47.38 JOB05982
 09.47.38 JOB05982  $HASP395 PJG#VFRY ENDED  ASM=0
1        1 //PJG#VFRY JOB PJG$GG,'Module: VFRY',TIME=1,MSGCLASS=C                  JOB05982
           /*JOBPARM HOLD=OUTPUT,LINES=50,CHARS=TN15,NOTIFY=YES
         2 //       EXEC PURGEOLD
         3 XXPURGEOLD PROC
           XX*
           XX* This proc is maintained by Jim Stosick
           XX*
         4 XX$$QUIET  EXEC PGM=HCMDX,PARM='PURGE * Q=OUTPUT MULTIPLE',
           XX         ACCT=(PURGEOLD,SYS3)
         5 //$CND   EXEC PGM=BILBO,REGION=512K,PARM='RECS=100'
         6 //STEPLIB  DD DSN=WYL.GG.ORV.LINKLIB,DISP=SHR
         7 //SYSPRINT DD SYSOUT=$
         8 //SYSUT1   DD DSN=WYL.GG.PJG.OBJ,DISP=OLD
         9 //SYSUT2   DD DSN=WYL.GG.PJG.OBJ,DISP=OLD
        10 //SYSIN    DD DUMMY
        11 //$UNP   EXEC PGM=WUNPRESS,PARM='NUM'
        12 //SYSPRINT DD SYSOUT=$
        13 //SYSUT1   DD DSN=WYL.GG.ORV.SOURCE.FILEUTIL(VFRY),DISP=SHR
        14 //SYSUT2   DD DSN=&&INPUT,DISP=(,PASS),UNIT=SYSDA,
           //            SPACE=(TRK,(25,25),RLSE),DCB=CARD
        15 //ASM    EXEC PGM=ASMA90,REGION=8M,COND=(0,NE,$UNP),
           //            PARM=('SYSPARM(VFRY),TERM,LANG(EN),OBJ',
           //          'LC(32500),XREF(SHORT),NODECK,NORLD,NODX,NOUS')
           //*STEPLIB  DD DSN=SYS1.SASMMOD1,DISP=SHR
        16 //SYSLIB   DD DSN=SYS3.DUMMYMAC,DISP=SHR,DCB=BLKSIZE=27920
        17 //         DD DSN=WYL.GG.SYS.MACLIB,DISP=SHR
        18 //         DD DSN=WYL.GG.ORV.BC.MACLIB,DISP=SHR
        19 //         DD DSN=WYL.GG.ORV.MACLIB,DISP=SHR
        20 //         DD DSN=SYS1.MACLIB,DISP=SHR
        21 //         DD DSN=SYS3.IS.MACLIB,DISP=SHR
        22 //         DD DSN=SYS3.MACLIB,DISP=SHR
        23 //SYSUT1   DD DSN=&&SYSUT1,UNIT=VIO,DISP=(,DELETE),
           //            SPACE=(4088,(500,250),,CONTIG,ROUND)
        24 //SYSTERM  DD SYSOUT=$
        25 //SYSPRINT DD DSN=&&PRINT,UNIT=SYSDA,DISP=(,PASS),
           //            SPACE=(6650,(250,250),RLSE),
           //            DCB=(BLKSIZE=6650,LRECL=133,RECFM=FB)
        26 //SYSLIN   DD DSN=WYL.GG.PJG.OBJ(VFRY),DISP=OLD
        27 //SYSUDUMP DD SYSOUT=A
        28 //SYSIN    DD DSN=&&INPUT,DISP=(OLD,DELETE)
        29 //$EDIT  EXEC PGM=ASMEDIT,REGION=1M,
           //            COND=EVEN,PARM='STMT,DATA'
        30 //STEPLIB  DD DSN=WYL.GG.SYS.LINKLIB,DISP=SHR
        31 //ASMOUT   DD DSN=&&PRINT,DISP=(OLD,DELETE)
        32 //SYSPRINT DD SYSOUT=A
        33 //SYSUDUMP DD SYSOUT=A
1 STMT NO. MESSAGE
         2 IEFC001I PROCEDURE PURGEOLD WAS EXPANDED USING SYSTEM LIBRARY SYS3.BETAPROC
        14 IGD01010I STORCLAS= TEMP STORGROUP =
        14 IGD01010I STORGRP=VIO ASSIGNED.
        23 IGD01010I STORCLAS= TEMP STORGROUP =
        23 IGD01010I STORGRP=VIO ASSIGNED.
        25 IGD01010I STORCLAS= TEMP STORGROUP =
        25 IGD01010I STORGRP=VIO ASSIGNED.
 ICH70001I GG$PJG   LAST ACCESS AT 09:47:13 ON MONDAY, MARCH 22, 2004
 IEF142I PJG#VFRY $$QUIET - STEP WAS EXECUTED - COND CODE 0008
 *********************************************************************************
 *   PJG#VFRY/$$QUIET /                    Return Code      0008                 *
 *   Region used      260K (16K user + 244K system)                              *
 *   Extended region  9352K (4K user + 9348K system)                             *
 *                                                                               *
 *   Paging              In      Out                                             *
 *   Private <-> Aux      0        0       CPU time (TCB)   00:00:00.01          *
 *   Private <-> Exp      0        0       CPU time (SRB)   00:00:00.00          *
 *   VIO                  0        0       Elapsed time    920:40:26.39          *
 *   Common               0      ---                                             *
 *                                                                               *
 *                                                                               *
 *   CPU Usage          0.18         $0.11  Standard Processing Unit Equivalent  *
 *                                   $0.11  Total Step execution charge          *
 *                                                                               *
 *    I/O count  DDname   Type Addr           I/O count  DDname   Type Addr      *
 *                         *** No I/O for this step ***                          *
 *********************************************************************************
 IEF373I STEP/$$QUIET /START 2004082.0947
 IEF374I STEP/$$QUIET /STOP  2004082.0947 CPU    0MIN 00.01SEC SRB    0MIN 00.00SEC VIRT    16K SYS   244K EXT       4K SYS    9348K
 IEF236I ALLOC. FOR PJG#VFRY $CND
 IEF237I 0401 ALLOCATED TO STEPLIB
 IEF237I JES2 ALLOCATED TO SYSPRINT
 IEF237I 04DC ALLOCATED TO SYSUT1
 IEF237I 04DC ALLOCATED TO SYSUT2
 IEF237I DMY  ALLOCATED TO SYSIN
 IEF142I PJG#VFRY $CND - STEP WAS EXECUTED - COND CODE 0000
 IEF285I   WYL.GG.ORV.LINKLIB                           KEPT
 IEF285I   VOL SER NOS= SYSB01.
 IEF285I   GG$PJG.PJG#VFRY.JOB05982.D0000101.?          SYSOUT
 IEF285I   WYL.GG.PJG.OBJ                               KEPT
 IEF285I   VOL SER NOS= SYSB05.
 IEF285I   WYL.GG.PJG.OBJ                               KEPT
 IEF285I   VOL SER NOS= SYSB05.
 *********************************************************************************
 *   PJG#VFRY/$CND    /                    Return Code      Zero                 *
 *   Region used      288K (16K user + 272K system)                              *
 *   Extended region  9392K (4K user + 9388K system)                             *
 *                                                                               *
 *   Paging              In      Out                                             *
 *   Private <-> Aux      0        0       CPU time (TCB)   00:00:00.01          *
 *   Private <-> Exp      0        0       CPU time (SRB)   00:00:00.00          *
 *   VIO                  0        0       Elapsed time    920:40:25.21          *
 *   Common               0      ---                                             *
 *                                                                               *
 *                                                                               *
 *   CPU Usage          0.18         $0.11  Standard Processing Unit Equivalent  *
 *                                   $0.11  Total Step execution charge          *
 *                                                                               *
 *    I/O count  DDname   Type Addr           I/O count  DDname   Type Addr      *
 *            2  STEPLIB  Disk 0401                   0  SYSPRINT      ----      *
 *            0  SYSUT1   Disk 04DC                   0  SYSUT2   Disk 04DC      *
 *            0  SYSIN         ----                                              *
 *********************************************************************************
 IEF373I STEP/$CND    /START 2004082.0947
 IEF374I STEP/$CND    /STOP  2004082.0947 CPU    0MIN 00.01SEC SRB    0MIN 00.00SEC VIRT    16K SYS   272K EXT       4K SYS    9388K
 IEF236I ALLOC. FOR PJG#VFRY $UNP
 IEF237I JES2 ALLOCATED TO SYSPRINT
 IEF237I 0402 ALLOCATED TO SYSUT1
 IGD101I SMS ALLOCATED TO DDNAME (SYSUT2  )
         DSN (SYS04082.T094726.RA000.PJG#VFRY.INPUT.H01   )
         STORCLAS (TEMP) MGMTCLAS (        ) DATACLAS (        )
         VOL SER NOS= SCR101
 IEF142I PJG#VFRY $UNP - STEP WAS EXECUTED - COND CODE 0000
 IEF285I   GG$PJG.PJG#VFRY.JOB05982.D0000102.?          SYSOUT
 IEF285I   WYL.GG.ORV.SOURCE.FILEUTIL                   KEPT
 IEF285I   VOL SER NOS= SYSB02.
 IGD106I SYS04082.T094726.RA000.PJG#VFRY.INPUT.H01    PASSED,    DDNAME=SYSUT2
 *********************************************************************************
 *   PJG#VFRY/$UNP    /                    Return Code      Zero                 *
 *   Region used      388K (108K user + 280K system)                             *
 *   Extended region  9468K (4K user + 9464K system)                             *
 *                                                                               *
 *   Paging              In      Out                                             *
 *   Private <-> Aux      0        0       CPU time (TCB)   00:00:00.06          *
 *   Private <-> Exp      0        0       CPU time (SRB)   00:00:00.00          *
 *   VIO                  0        0       Elapsed time    920:40:25.03          *
 *   Common               0      ---                                             *
 *                                                                               *
 *                                                                               *
 *   CPU Usage          1.12         $0.69  Standard Processing Unit Equivalent  *
 *                                   $0.69  Total Step execution charge          *
 *                                                                               *
 *    I/O count  DDname   Type Addr           I/O count  DDname   Type Addr      *
 *            0  SYSPRINT      ----                   4  SYSUT1   Disk 0402      *
 *           29  SYSUT2   Disk 04E3                                              *
 *********************************************************************************
 IEF373I STEP/$UNP    /START 2004082.0947
 IEF374I STEP/$UNP    /STOP  2004082.0947 CPU    0MIN 00.06SEC SRB    0MIN 00.00SEC VIRT   108K SYS   280K EXT       4K SYS    9464K
 IEF236I ALLOC. FOR PJG#VFRY ASM
 IEF237I 0402 ALLOCATED TO SYSLIB
 IEF237I 04DC ALLOCATED TO
 IEF237I 0402 ALLOCATED TO
 IEF237I 0402 ALLOCATED TO
 IEF237I 04A0 ALLOCATED TO
 IEF237I 04DC ALLOCATED TO
 IEF237I 0402 ALLOCATED TO
 IGD101I SMS ALLOCATED TO DDNAME (SYSUT1  )
         DSN (SYS04082.T094726.RA000.PJG#VFRY.SYSUT1.H01  )
         STORCLAS (TEMP) MGMTCLAS (        ) DATACLAS (        )
         VOL SER NOS= VIO
 IEF237I JES2 ALLOCATED TO SYSTERM
 IGD101I SMS ALLOCATED TO DDNAME (SYSPRINT)
         DSN (SYS04082.T094726.RA000.PJG#VFRY.PRINT.H01   )
         STORCLAS (TEMP) MGMTCLAS (        ) DATACLAS (        )
         VOL SER NOS= SCR100
 IEF237I 04DC ALLOCATED TO SYSLIN
 IEF237I JES2 ALLOCATED TO SYSUDUMP
 IGD103I SMS ALLOCATED TO DDNAME SYSIN
 IEF142I PJG#VFRY ASM - STEP WAS EXECUTED - COND CODE 0000
 IEF285I   SYS3.DUMMYMAC                                KEPT
 IEF285I   VOL SER NOS= SYSB02.
 IEF285I   WYL.GG.SYS.MACLIB                            KEPT
 IEF285I   VOL SER NOS= SYSB05.
 IEF285I   WYL.GG.ORV.BC.MACLIB                         KEPT
 IEF285I   VOL SER NOS= SYSB02.
 IEF285I   WYL.GG.ORV.MACLIB                            KEPT
 IEF285I   VOL SER NOS= SYSB02.
 IEF285I   SYS1.MACLIB                                  KEPT
 IEF285I   VOL SER NOS= MVSBR9.
 IEF285I   SYS3.IS.MACLIB                               KEPT
 IEF285I   VOL SER NOS= SYSB05.
 IEF285I   SYS3.MACLIB                                  KEPT
 IEF285I   VOL SER NOS= SYSB02.
 IGD105I SYS04082.T094726.RA000.PJG#VFRY.SYSUT1.H01   DELETED,   DDNAME=SYSUT1
 IEF285I   GG$PJG.PJG#VFRY.JOB05982.D0000103.?          SYSOUT
 IGD106I SYS04082.T094726.RA000.PJG#VFRY.PRINT.H01    PASSED,    DDNAME=SYSPRINT
 IEF285I   WYL.GG.PJG.OBJ                               KEPT
 IEF285I   VOL SER NOS= SYSB05.
 IEF285I   GG$PJG.PJG#VFRY.JOB05982.D0000104.?          SYSOUT
 IGD105I SYS04082.T094726.RA000.PJG#VFRY.INPUT.H01    DELETED,   DDNAME=SYSIN
 *********************************************************************************
 *   PJG#VFRY/ASM     /                    Return Code      Zero                 *
 *   Region used      8484K (8192K user + 292K system)                           *
 *   Extended region  9952K (412K user + 9540K system)                           *
 *                                                                               *
 *   Paging              In      Out                                             *
 *   Private <-> Aux      0        0       CPU time (TCB)   00:00:03.31          *
 *   Private <-> Exp      0        0       CPU time (SRB)   00:00:00.08          *
 *   VIO                  0        0       Elapsed time    920:40:24.39          *
 *   Common               0      ---                                             *
 *                                                                               *
 *                                                                               *
 *   CPU Usage         62.06        $38.47  Standard Processing Unit Equivalent  *
 *                                  $38.47  Total Step execution charge          *
 *                                                                               *
 *    I/O count  DDname   Type Addr           I/O count  DDname   Type Addr      *
 *           64  SYSLIB   Disk 0402                 158  SYSLIB   Disk 04DC      *
 *            0  SYSLIB   Disk 0402                   0  SYSLIB   Disk 0402      *
 *          272  SYSLIB   Disk 04A0                   0  SYSLIB   Disk 04DC      *
 *            0  SYSLIB   Disk 0402                   0  SYSUT1   VIO  ----      *
 *            0  SYSTERM       ----                 169  SYSPRINT Disk 038B      *
 *            8  SYSLIN   Disk 04DC                   0  SYSUDUMP      ----      *
 *           30  SYSIN    Disk 04E3                                              *
 *********************************************************************************
 IEF373I STEP/ASM     /START 2004082.0947
 IEF374I STEP/ASM     /STOP  2004082.0947 CPU    0MIN 03.31SEC SRB    0MIN 00.08SEC VIRT  8192K SYS   292K EXT     412K SYS    9540K
 IEF236I ALLOC. FOR PJG#VFRY $EDIT
 IEF237I 0402 ALLOCATED TO STEPLIB
 IGD103I SMS ALLOCATED TO DDNAME ASMOUT
 IEF237I JES2 ALLOCATED TO SYSPRINT
 IEF237I JES2 ALLOCATED TO SYSUDUMP
 IEF142I PJG#VFRY $EDIT - STEP WAS EXECUTED - COND CODE 0000
 IEF285I   WYL.GG.SYS.LINKLIB                           KEPT
 IEF285I   VOL SER NOS= SYSB02.
 IGD105I SYS04082.T094726.RA000.PJG#VFRY.PRINT.H01    DELETED,   DDNAME=ASMOUT
 IEF285I   GG$PJG.PJG#VFRY.JOB05982.D0000105.?          SYSOUT
 IEF285I   GG$PJG.PJG#VFRY.JOB05982.D0000106.?          SYSOUT
 *********************************************************************************
 *   PJG#VFRY/$EDIT   /                    Return Code      Zero                 *
 *   Region used      388K (116K user + 272K system)                             *
 *   Extended region  9488K (4K user + 9484K system)                             *
 *                                                                               *
 *   Paging              In      Out                                             *
 *   Private <-> Aux      0        0       CPU time (TCB)   00:00:00.65          *
 *   Private <-> Exp      0        0       CPU time (SRB)   00:00:00.02          *
 *   VIO                  0        0       Elapsed time    920:40:16.71          *
 *   Common               0      ---                                             *
 *                                                                               *
 *                                                                               *
 *   CPU Usage         12.18         $7.55  Standard Processing Unit Equivalent  *
 *                                   $7.55  Total Step execution charge          *
 *                                                                               *
 *    I/O count  DDname   Type Addr           I/O count  DDname   Type Addr      *
 *            2  STEPLIB  Disk 0402                 170  ASMOUT   Disk 038B      *
 *            0  SYSPRINT      ----                   0  SYSUDUMP      ----      *
 *********************************************************************************
 IEF373I STEP/$EDIT   /START 2004082.0947
 IEF374I STEP/$EDIT   /STOP  2004082.0947 CPU    0MIN 00.65SEC SRB    0MIN 00.02SEC VIRT   116K SYS   272K EXT       4K SYS    9484K
 *********************************************************************************
 *                                                                               *
 *                      S t a n f o r d   U n i v e r s i t y                    *
 *                                                                               *
 *                              *** Job Summary ***                              *
 *                                                                               *
 *   System Id      SYSB                   Input time     09:38:36  Mar 22, 2004 *
 *                                                                               *
 *   System Release SP6.1.0                Start time     09:47:26  Mar 22, 2004 *
 *                                                                               *
 *   Job name       PJG#VFRY               Stop  time     00:00:00  Mar 22, 2004 *
 *                                                                               *
 *   Account        PJG$GG                 Elapsed time  920:40:26.39            *
 *                                                                               *
 *   User Name      Module: VFRY           CPU time       00:00:04.04            *
 *                                                                               *
 *   Job class      E                      SRB Time       00:00:00.10            *
 *                                                                               *
 *********************************************************************************
 IEF375I  JOB/PJG#VFRY/START 2004082.0947
 IEF376I  JOB/PJG#VFRY/STOP  2004082.0947 CPU    0MIN 04.04SEC SRB    0MIN 00.10SEC
1Data set successfully converted from EDIT to FB format
1Assembler Done VFRY No Statements Flagged
1         High Level Assembler Option Summary                   (PTF UQ57391)                                               Page    1
-                                                                                            HLASM R4.0  2004/03/22 09.47
0  No Overriding ASMAOPT Parameters
   Overriding Parameters-  SYSPARM(VFRY),TERM,LANG(EN),OBJ,LC(32500),XREF(SHORT),NODECK,NORLD,NODX,NOUS
   No Process Statements


   Options for this Assembly
0  NOADATA
     ALIGN
   NOASA
     BATCH
     CODEPAGE(047C)
   NOCOMPAT
   NODBCS
 3 NODECK
 3 NODXREF
     ESD
   NOEXIT
     FLAG(0,ALIGN,CONT,NOIMPLEN,NOPAGE0,PUSH,RECORD,NOSUBSTR,USING0)
   NOFOLD
   NOGOFF
   NOINFO
 3   LANGUAGE(EN)
   NOLIBMAC
 3   LINECOUNT(32500)
     LIST(121)
     MXREF(SOURCE)
 3   OBJECT
     OPTABLE(UNI,NOLIST)
   NOPCONTROL
   NOPESTOP
   NOPROFILE
   NORA2
   NORENT
 3 NORLD
     RXREF
     SIZE(MAX)
 3   SYSPARM(VFRY)
 3   TERM(WIDE)
   NOTEST
     THREAD
   NOTRANSLATE
 3 NOUSING
 3   XREF(SHORT)

   No Overriding DD Names

1VFRY     External Symbol Dictionary                                                                                        Page    2
-Symbol   Type   Id     Address  Length     LD ID  Flags Alias-of                            HLASM R4.0  2004/03/22 09.47
0VFRY      SD 00000001 00000000 00002EB0             00
 VFRY21    LD          00000000           00000001
 VFVERIFY  LD          00000016           00000001
 VSEG      ER 00000002
 VWRITE    ER 00000003
 VFIO      ER 00000004
 BTD       ER 00000005
 BTDC      ER 00000006
 VCNTRL    ER 00000007
 BTX       ER 00000008
 SCINIT    ER 00000009
 SCAN      ER 0000000A
 FMTCLCK   ER 0000000B
 VFOPN     ER 0000000C
 VFRETFS   ER 0000000D

1VFRY     ORVYL File System Verify                                                                                          Page    3
0Loc    Object Code    Addr1 Addr2  Stmt Lv Lineno    Source Statement                    (Asmedit 3.3)  HLASM R4.0  2004/03/22 09.47
+___    ______ ____    _____ _____  ____ __ ______    ______ _________
0                                      2       2.     ********************************************************************
                                       3       3.     *                                                                  *
                                       4       4.     *    ORVYL/370 - Release III - Class I - Stanford Proprietary      *
                                       5       5.     *                                                                  *
                                       6       6.     ********************************************************************
                                       7       7.     *                                                                  *
                                       8       8.     *                 File System Verification Program                 *
                                       9       9.     *                                                                  *
                                      10      10.     ********************************************************************
                                      11      11.     *                                                                  *
                                      12      12.     *    Validation of Bit-Map, Catalog, and IXR structures            *
                                      13      13.     *                                                                  *
                                      14      14.     *  The following error types are possible:                         *
                                      15      15.     *                                                                  *
                                      16      16.     *        TYPE  1:  Block number > last block number                *
                                      17      17.     *        TYPE  2:  I/O error reading block from file system        *
                                      18      18.     *        TYPE  3:  ?????                                           *
                                      19      19.     *        TYPE  4:  IXR Block number wrong                          *
                                      20      20.     *        TYPE  5:  IXRSTATE Wrong                                  *
                                      21      21.     *        TYPE  6:  Bit map bit not ON for this block.              *
                                      22      22.     *        TYPE  7:  Multiple files have claimed this block          *
                                      23      23.     *        TYPE  8:  IXR Filename mismatch                           *
                                      24      24.     *        TYPE  9:  IXR Header length wrong                         *
                                      25      25.     *                                                                  *
                                      26      26.     ********************************************************************
                                      27      27.     *                                                                  *
                                      28      28.     * OPTIONS:                                                         *
                                      29      29.     *                                                                  *
                                      30      30.     *  (NO)AUTO    Auto fixup of errors (default = NOAUTO)             *
                                      31      31.     *  IXRDUMP     Write IXRs to IXRDUMP DD                            *
                                      32      32.     *  POWER=n     Number of I/O blocks                                *
                                      33      33.     *  REBUILD     Ignore existing bitmap block                        *
                                      34      34.     *  RECLAIM     Reclaim lost blocks                                 *
                                      35      35.     *  FORCE       Force rebuild or reclaim even if errors exist       *
                                      36      36.     *  DUMP        Dump on error                                       *
                                      37      37.     *  VERBOSE     Talk about it!                                      *
                                      38      38.     *                                                                  *
                                      39      39.     ********************************************************************
1VFRY     ORVYL File System Verify                                                                                          Page    4
0Loc    Object Code    Addr1 Addr2  Stmt Lv Lineno    Source Statement                    (Asmedit 3.3)  HLASM R4.0  2004/03/22 09.47
+___    ______ ____    _____ _____  ____ __ ______    ______ _________
0                                     41      41.     ¿þþþþþþþþþþþþþþþþþþþþþþþþþþþþþþþþþþþþþþþþþþþþþþþþþþþþþþþþþþþþþþþþþþþþþÜ
                                      42      42.     Ÿ                                                                     Ÿ
                                      43      43.     Ÿ  Modifications                                                      Ÿ
                                      44      44.     Ÿ                                                                     Ÿ
                                      45      45.     Ÿ 08/23/01 ddf Add logic for hybrid files                             Ÿ
                                      46      46.     Ÿ                                                                     Ÿ
                                      47      47.     Ÿ                                                                     Ÿ
                                      48      48.     Ÿ 08/01/84 jkr Write NON-IXR record to IXRDUMP tape for Selective     Ÿ
                                      49      49.     Ÿ              restore.  Really hokey and patchy... need to redo      Ÿ
                                      50      50.     Ÿ              SRES/VRFY/VFRD interface                               Ÿ
                                      51      51.     Ÿ                                                                     Ÿ
                                                      ¾þþþþþþþþþþþþþþþþþþþþþþþþþþþþþþþþþþþþþþþþþþþþþþþþþþþþþþþþþþþþþþþþþþþþþ»
-                                     53      53.              HIBAL ,                   Enable Hibal macro system
-
                                    1035      55.              REGS  ,,SR,TR,QR,RR,BRR,BR,WAR,RAR,RECR,DCBR
-                                   1173      57.              MACRO ,
                                    1174      58.     &L       SETCODE &RET
                                    1175      59.              LCLC  &V
                                    1176      60.              AIF   ('&RET'(1,1) EQ '=').EQUAL
                                    1177      61.     &L       LA    R15,&RET            LOAD RETURN CODE
                                    1178      62.              LCALL SETCODE             SET MAXIMUM RETURN CODE
                                    1179      63.              MEXIT ,
                                    1180      64.     .EQUAL   ANOP  ,
                                    1181      65.     &V       SETC  '&RET'(2,K'&RET-1)
                                    1182      66.     &L       MVI   RETCODE+3,&V
                                    1183      67.              MEND  ,
-000000                00000 02EB0  1185      69.     VFRY     CSECT ,
                                    1189      70.              IDENT 21                  Figure its time for a new one
                                    1192             +
                                    1193    01-IDENT +         ENTRY VFRY21
                                    1194             +
 000000 14E5C6D9E8F2F16B            1195    01-IDENT +VFRY21   DC    AL1(20),C'VFRY21,22MAR04,09:47'
                                    1196             +*
1VFRY     (VFRY21) (09:47) (22MAR04) ORVYL File System Verify                                                               Page    5
0Loc    Object Code    Addr1 Addr2  Stmt Lv Lineno    Source Statement           (Hibal 5, Asmedit 3.3)  HLASM R4.0  2004/03/22 09.47
+___    ______ ____    _____ _____  ____ __ ______    ______ _________
0                                   1200      73.     ¿þþþþþþþþþþþþþþþþþþþþþþþþþþþþþþþþþþþþþþþþþþþþþþþþþþþþþþþþþþþþþþþþþþþþþÜ
                                    1201      74.     Ÿ                                                                     Ÿ
                                    1202      75.     Ÿ  Orvyl file block header                                            Ÿ
                                    1203      76.     Ÿ                                                                     Ÿ
                                                      ¾þþþþþþþþþþþþþþþþþþþþþþþþþþþþþþþþþþþþþþþþþþþþþþþþþþþþþþþþþþþþþþþþþþþþþ»
-                                   1205      78.              COPY  FBHDR
 000000                00000 00014  1206             =FBHDR    RECORD BEGIN
                                    1214  1          =*
                                    1215  1          =*  ORVYL File Block Header Field
                                    1216  1          =*
 000000                             1217  1          =FBHBLOCK   DS    AL3                     Block number in file system
 000003                             1218  1          =FBHTYPE    DS    AL1                     Block type
                                    1219  1          =
                                    1220  1          =FBHTFSMB   EQU   X'FF'                   File System Master Block
                                    1221  1          =FBHTCAT    EQU   X'80'                   Catalog
                                    1222  1          =FBHTBIT    EQU   X'40'                   Bit Map
                                    1223  1          =FBHTZIXR   EQU   X'10'                   ZIXR
                                    1224  1          =FBHTIXR    EQU   X'08'                   IXR
                                    1225  1          =FBHTSIXR   EQU   X'04'                   SIXR
                                    1226  1          =FBHTMIXR   EQU   X'02'                   MIXR
                                    1227  1          =FBHTUSER   EQU   X'01'                   User data block
                                    1228  1          =FBHTIXRT   EQU   FBHTIXR+FBHTSIXR+FBHTMIXR+FBHTZIXR
                                    1229  1          =FBHTBICA   EQU   FBHTCAT+FBHTBIT
                                    1230  1          =FBHTSYSR   EQU   FBHTIXRT+FBHTBICA
                                    1231  1          =
 000004                             1232  1          =           DS    AL2                     Reserved
 000006                             1233  1          =FBHLEN     DS    AL2                     User data length in block
 000008                             1234  1          =FBHTIME    DS    AL4                     Time (STCK) block written
                                    1235  1          =
                                    1236  1          =FBHDTLEN   EQU   *-FBHDR                 Saved header length (VDMP)
 00000C                             1237  1          =FBHAVAIL   DS    2AL4                    Available
 000014                00014 00014  1238             =         END   ,
1VFRY     (VFRY21) (09:47) (22MAR04) ORVYL File System Verify                                                               Page    6
0Loc    Object Code    Addr1 Addr2  Stmt Lv Lineno    Source Statement           (Hibal 5, Asmedit 3.3)  HLASM R4.0  2004/03/22 09.47
+___    ______ ____    _____ _____  ____ __ ______    ______ _________
0                                   1248      80.     ¿þþþþþþþþþþþþþþþþþþþþþþþþþþþþþþþþþþþþþþþþþþþþþþþþþþþþþþþþþþþþþþþþþþþþþÜ
                                    1249      81.     Ÿ                                                                     Ÿ
                                    1250      82.     Ÿ  Orvyl file system privilege flag codes                             Ÿ
                                    1251      83.     Ÿ                                                                     Ÿ
                                                      ¾þþþþþþþþþþþþþþþþþþþþþþþþþþþþþþþþþþþþþþþþþþþþþþþþþþþþþþþþþþþþþþþþþþþþþ»
-                                   1253      85.              COPY  FPC
                                    1254             =*
                                    1255             =*  FILE SYSTEM PRIVILEGE FLAG CODES
                                    1256             =*
                                    1257             =FPMIXR   EQU   X'80',,C'N'             **RESERVE** IXR MASTER IXR
                                    1258             =FPSIXR   EQU   X'40',,C'N'             **RESERVE** IXR SUPER IXR
                                    1259             =FPZIXR   EQU   X'20',,C'N'             **RESERVE** IXR HYBRID IXR
                                    1260             =FPFIXR   EQU   X'10',,C'N'             **RESERVE** IXR FIRST HYBRID
                                    1261             =FPN      EQU   X'00',,C'N'             PRIMITIVE NO-ACCESS
                                    1262             =FPR      EQU   X'01',,C'N'             PRIMITIVE READ
                                    1263             =FPA      EQU   X'02',,C'N'             PRIMITIVE APPEND
                                    1264             =FPW      EQU   X'04',,C'N'             PRIMITIVE WRITE
                                    1265             =FPE      EQU   X'08',,C'N'             PRIMITIVE EXTEND
                                    1266             =FPS      EQU   X'10',,C'N'             PRIMITIVE SHARE
                                    1267             =
                                    1268             =FRO      EQU   FPR                     READ ONLY
                                    1269             =FRW      EQU   FPR+FPA+FPW             READ & WRITE
                                    1270             =FRP      EQU   FPR+FPA                 READ & APPEND
                                    1271             =FAO      EQU   FPA                     APPEND ONLY
                                    1272             =FSHR     EQU   FPS                     SHARE ONLY
                                    1273             =FAC      EQU   FPE                     EXTEND ONLY
                                    1274             =FPALL    EQU   FRW+FPE                 ALL PRIVILEGES
                                    1275             =FPNONE   EQU   FPN                     NO-ACCESS
                                    1276             =
                                    1277             =FPREAD   EQU   FPR                     READ ONLY
                                    1278             =FPAPPEND EQU   FPA                     APPEND ONLY
                                    1279             =FPWRITE  EQU   FPW                     WRITE ONLY
                                    1280             =FPEXTEND EQU   FPE                     EXTEND
                                    1281             =FPFWRITE EQU   FPR+FPA+FPW             FULL WRITE
1VFRY     (VFRY21) (09:47) (22MAR04) ORVYL File System Verify                                                               Page    7
0Loc    Object Code    Addr1 Addr2  Stmt Lv Lineno    Source Statement           (Hibal 5, Asmedit 3.3)  HLASM R4.0  2004/03/22 09.47
+___    ______ ____    _____ _____  ____ __ ______    ______ _________
0                                   1283      87.     ¿þþþþþþþþþþþþþþþþþþþþþþþþþþþþþþþþþþþþþþþþþþþþþþþþþþþþþþþþþþþþþþþþþþþþþÜ
                                    1284      88.     Ÿ                                                                     Ÿ
                                    1285      89.     Ÿ  Orvyl File system master block (disk resident) definition          Ÿ
                                    1286      90.     Ÿ                                                                     Ÿ
                                                      ¾þþþþþþþþþþþþþþþþþþþþþþþþþþþþþþþþþþþþþþþþþþþþþþþþþþþþþþþþþþþþþþþþþþþþþ»
-                                   1288      92.              COPY  FSMB                    INCLUDE FILE MASTER BLOCK
 000000                00000 00800  1289             =FSMB     RECORD BEGIN
                                    1297  1          =*
                                    1298  1          =*  FILE SYSTEM MASTER BLOCK  (DISK RESIDENT)
                                    1299  1          =*
 000000                             1300  1          =FSMSTART   DC    0D'0'                   FILE SYSTEM BLOCK START
 000000 C7C74BE4E4E4                1301  1          =FSMOWNER   DC    CL6'GG.UUU' NOT USED ** FILE-SYSTEM MASTER ACCOUNT
0000006 00                          1303  1          =FSMOFLGS   FLAG  ,                       FILE-SYSTEM OPTIONS
 FSMOFLGS.FSMOSE   80 ONES          1307  1          =           FLAG  FSMOSE   ** NOT USED **      SECURITY ERASE
0                                   1313  1          =*
                                    1314  1          =*  FILE-SYSTEM BLOCK LIMITS
                                    1315  1          =*                AND AVAILABLE BLOCKS
                                    1316  1          =*
 000008                             1317  1          =FSMMBLK    DS    A        ** NOT USED ** MAXIMUM BLOCK ALLOCATION
 00000C                             1318  1          =FSMTBLK    DS    A        ** NOT USED ** TOTAL NUMBER OF BLOCKS
 000010                             1319  1          =FSMDBLK    DS    A        ** NOT USED ** DEFAULT BLOCK ALLOCATION
 000014                             1320  1          =FSMNAME    DS    CL8      ** NOT USED ** FILE-SYSTEM NAME
 00001C                             1321  1          =FSMSYMB    DS    CL8      ** NOT USED ** FILE-SYSTEM DATA SET NAME
 000024                             1322  1          =FSMCATSB   DS    A                       CATALOGUE STARTING BLOCK
 000028                             1323  1          =FSMCATBC   DS    A                       CATALOGUE BLOCK COUNT
 00002C                             1324  1          =FSMBITSB   DS    A                       BIT-MAP STARTING BLOCK
 000030                             1325  1          =FSMBITBC   DS    A                       BIT-MAP BLOCK COUNT
                                    1326  1          =FSML1      EQU   FSMMBLK,*-FSMMBLK,C'X'
 000034                             1327  1          =FSMDSCNT   DS    H        ** NOT USED ** DATA SETS COMPRISING SYSTEM
                                    1328  1          =*
                                    1329  1          =*
 000036                             1330  1          =FSMAUCNT   DS    X        ** NOT USED ** ALLOWED-USER ACTIVE COUNT
 000037 00                                1
 000038                             1331  1          =           CNOP   0,4
 000038                             1332  1          =FSMBALST   DS     0X
 000038                             1333  1          =FSMDSZ     DS     Y                 Size of disk block
 00003A                             1334  1          =FSMDAVA    DS     Y                 Available space per block
 00003C                             1335  1          =FSMDTAGX   DS     Y                 Offset of end tag in block
 00003E                             1336  1          =FSMNALEN   DS     Y                 Account: Length of node
 000040                             1337  1          =FSMNASPA   DS     Y                 Î Free space in node
 000042                             1338  1          =FSMTAXLN   DS     Y                 Î Maximum length of entry
 000044                             1339  1          =FSMNAMXL   DS     Y                 Î Max len of entry in node
 000046                             1340  1          =FSMNAXSP   DS     Y                 Î Max free space per node
 000048                             1341  1          =FSMNANSP   DS     Y                 Î Min free space per node
 00004A                             1342  1          =FSMNFLEN   DS     Y                 File: Length of node
 00004C                             1343  1          =FSMNFSPA   DS     Y                 Î Free space in node
 00004E                             1344  1          =FSMTFXLN   DS     Y                 Î Maximum length of entry
 000050                             1345  1          =FSMNFMXL   DS     Y                 Î Max len of entry in node
 000052                             1346  1          =FSMNFXSP   DS     Y                 Î Max free space per node
 000054                             1347  1          =FSMNFNSP   DS     Y                 Î Min free space per node
 000056                             1348  1          =FSMTXXLN   DS     Y                 Max len of extended data entry
 000058                             1349  1          =FSMLOGFR   DS     Y                 Minimum logical block count
1VFRY     (VFRY21) (09:47) (22MAR04) ORVYL File System Verify                                                               Page    8
0Loc    Object Code    Addr1 Addr2  Stmt Lv Lineno    Source Statement           (Hibal 5, Asmedit 3.3)  HLASM R4.0  2004/03/22 09.47
+___    ______ ____    _____ _____  ____ __ ______    ______ _________
000005A                             1350  1          =FSMMNFRE   DS     Y                 Minimum number of free blks in Cat
                                    1351  1          =FSMBALLN   EQU    *-FSMBALST
                                    1352  1          =FSMBALX    EQU    *                 End of balance parms
 00005C 07000700                    1353  1          =           CNOP   0,8                    FORCE ALIGNMENT
0                                   1355  1          =*
                                    1356  1          =*  FILE-SYSTEM VOLUME TABLE, MAXIMUM OF 128 VOLUMES
                                    1357  1          =*  IN FILE-SYSTEM
                                    1358  1          =*
 000060                00060 00500  1359  1          =           ORG   FSMSTART+1280           ORIGIN OUT
 000500                             1360  1          =FSMVOLS    DS    128CL6   ** NOT USED ** ROOM FOR 128 VOLUME SERIALS
 000800                00800 00800  1361             =         END   ,
1VFRY     (VFRY21) (09:47) (22MAR04) ORVYL File System Verify                                                               Page    9
0Loc    Object Code    Addr1 Addr2  Stmt Lv Lineno    Source Statement           (Hibal 5, Asmedit 3.3)  HLASM R4.0  2004/03/22 09.47
+___    ______ ____    _____ _____  ____ __ ______    ______ _________
0                                   1371      94.              COPY  NXRYGR
 000000                00000 00010  1372             =NXRYGR   RECORD BEGIN
                                    1380  1          =*
                                    1381  1          =* FILE CATALOG ACCOUNX ENXRY
                                    1382  1          =*
 000000                             1383  1          =NXGBYTS    DS    XL2                     TOTAL LENGTH OF ENXRY
 000002                             1384  1          =NXGNAME    DS    XL6                     ACCOUNX
 000008                             1385  1          =NXGCODE    DS    X                       ACCOUNX ENXRY FLAG (X'FF')
 000009                             1386  1          =NXGMXSP    DS    XL3                     MAX SPACE ALLOWED FOR ACCOUNX
 00000C                             1387  1          =NXGUSSP    DS    XL3                     SPACE ALREADY USED BY ACCOUNX
 00000F 00                          1388  1          =NXGFLG     FLAG  ,                       PERMITS FOR PUBLIC
 NXGFLG.NXGFRO     01 ONES          1392  1          =           FLAG  (NXGFRO,FRO)  (PUBLIC)        READ ONLY
 NXGFLG.NXGFRW     07 ONES          1401  1          =           FLAG  (NXGFRW,FRW)  (PUBLIC)        READ & WRITE
 NXGFLG.NXGFRP     03 ONES          1410  1          =           FLAG  (NXGFRP,FRP)  (PUBLIC)        READ & APPEND
 NXGFLG.NXGFAO     02 ONES          1419  1          =           FLAG  (NXGFAO,FAO)  (PUBLIC)        APPEND ONLY
 000010                             1428  1          =NXGMEMBR   DS    0X                       MEMBERS START HERE
                                    1429  1          =
 000010                00010 00010  1430             =         END   ,
1VFRY     (VFRY21) (09:47) (22MAR04) ORVYL File System Verify                                                               Page   10
0Loc    Object Code    Addr1 Addr2  Stmt Lv Lineno    Source Statement           (Hibal 5, Asmedit 3.3)  HLASM R4.0  2004/03/22 09.47
+___    ______ ____    _____ _____  ____ __ ______    ______ _________
0                                   1440      96.              COPY  NXRYFL
 000000                00000 00018  1441             =NXRYFL   RECORD BEGIN
                                    1449  1          =*
                                    1450  1          =* FILE CATALOG FILE ENTRY
                                    1451  1          =*
 000000                             1452  1          =NXFBYTS    DS    XL2                     TOTAL LENGTH OF ENTRY
 000002                             1453  1          =NXFLOC     DS    XL3                     LOCATION OF FILE INDEX
 000005                             1454  1          =NXFCNT     DS    XL3                     NUMBER OF BLOCKS (NON-IXR)
 000008 00                          1455  1          =NXFCODE    FLAG  ,                       FILE FLAGS
 NXFCODE.NXFCLP    80 ONES          1459  1          =           FLAG  NXFCLP                  ONLY CLP CAN ATTACH THIS FILE
 NXFCODE.NXFSFORM  40 ONES          1464  1          =           FLAG  NXFSFORM                USER INFO IS FORMAT DATA
 NXFCODE.NXFNOCLP  20 ONES          1469  1          =           FLAG  NXFNOCLP                CLP CAN'T CHANGE THIS FILE
 NXFCODE.NXFNIXR   10 ONES          1474  1          =           FLAG  NXFNIXR                 NON-IXR FILE
 NXFCODE.NXFSPI    08 ONES          1479  1          =           FLAG  NXFSPI                  ONLY SPIRES CAN ATTACH FILE
 NXFCODE.NXFHYBR   04 ONES          1484  1          =           FLAG  NXFHYBR                 IXR/Non-IXR hybrid file type
 000009 00                          1489  1          =NXFFLGP    FLAG  ,                       PERMITS FOR PUBLIC
 NXFFLGP.NXFPFRO   01 ONES          1493  1          =           FLAG  (NXFPFRO,FRO)  (PUBLIC)       READ ONLY
 NXFFLGP.NXFPFRW   07 ONES          1502  1          =           FLAG  (NXFPFRW,FRW)  (PUBLIC)       READ & WRITE
 NXFFLGP.NXFPFRP   03 ONES          1511  1          =           FLAG  (NXFPFRP,FRP)  (PUBLIC)       READ & APPEND
 NXFFLGP.NXFPFAO   02 ONES          1520  1          =           FLAG  (NXFPFAO,FAO)  (PUBLIC)       APPEND ONLY
 NXFFLGP.NXFPSHR   10 ONES          1529  1          =           FLAG  (NXFPSHR,FSHR) (PUBLIC)       SHARE ONLY
 00000A 00                          1538  1          =NXFFLGO    FLAG  ,                       PERMITS FOR OWNER
 NXFFLGO.NXFOFRO   01 ONES          1542  1          =           FLAG  (NXFOFRO,FRO)  (OWNER)        READ ONLY
 NXFFLGO.NXFOFRW   07 ONES          1551  1          =           FLAG  (NXFOFRW,FRW)  (OWNER)        READ & WRITE
 NXFFLGO.NXFOFAO   02 ONES          1560  1          =           FLAG  (NXFOFAO,FAO)  (OWNER)        APPEND ONLY
 NXFFLGO.NXFOFRP   03 ONES          1569  1          =           FLAG  (NXFOFRP,FRP)  (OWNER)        READ & APPEND
 00000B                             1578  1          =NXFCRDT    DS    XL4                     CREATION DATE & TIME
 00000F                             1579  1          =NXFLSDT    DS    XL4                     LAST REFERENCE DATE & TIME
 000013                             1580  1          =NXFUINFO   DS    XL4                     USER INFO - SET BY CONTROL 14
 000017                             1581  1          =NXFLNMSZ   DS    X                       LENGTH OF FILE NAME
 000018                             1582  1          =NXFLNAME   DS    0X                      FILE NAME HERE
 000018                00018 00018  1583             =         END   ,
1VFRY     (VFRY21) (09:47) (22MAR04) ORVYL File System Verify                                                               Page   11
0Loc    Object Code    Addr1 Addr2  Stmt Lv Lineno    Source Statement           (Hibal 5, Asmedit 3.3)  HLASM R4.0  2004/03/22 09.47
+___    ______ ____    _____ _____  ____ __ ______    ______ _________
0                                   1593      98.              COPY  IXR
 000000                00000 00800  1594             =IXRDSECT DSECT
                                    1595             =*
                                    1596             =*  INDEX RECORD & SUPER INDEX RECORD
                                    1597             =*
 000000                             1598             =IXRSTART DS    0F
                                    1599             =IXR      EQU   IXRSTART,2048
 000000 00                          1600             =IXRSTATE FLAG  ,                       IXR STATUS
 IXRSTATE.IXRMIXR  80 ONES          1604             =         FLAG  (IXRMIXR,FPMIXR)        MASTER IXR
 IXRSTATE.IXRSIXR  40 ONES          1613             =         FLAG  (IXRSIXR,FPSIXR)        SUPER IXR
 IXRSTATE.IXRZIXR  20 ONES          1622             =         FLAG  (IXRZIXR,FPZIXR)        HYBRID IXR
 IXRSTATE.IXRFIXR  10 ONES          1631             =         FLAG  (IXRFIXR,FPFIXR)        FIRST HYBRID IXR
                                    1640             =
 000001                             1641             =IXRECNO  DS    XL3                     ABSOLUTE ORVYL BLOCK NUMBER
 000004                             1642             =IXRNAME  DS    CL44                    FILE NAME
 000030                             1643             =IXRNRCS  DS    A                       NO. USER RECS IN FILE/IXR
 000034                             1644             =IXRRRCS  DS    A                       NO. REAL RECS IN FILE
 000038                             1645             =IXRLWRC  DS    XL3                     LOWEST REC NO IN IXR
 00003B                             1646             =IXRHIRC  DS    XL3                     HIGHEST REC NO IN IXR
 00003E                             1647             =IXRPAD   DS   0XL6                     SPARE BYTES (NON-HYBRID)
 00003E                             1648             =IXRLWRF  DS    XL3          (HYBRID)   LOWEST REC NO IN FILE
 000041                             1649             =IXRHIRF  DS    XL3          (HYBRID)   HIGHEST REC NO IN FILE
                                    1650             =
                                    1651             =IXRPREF  EQU   IXRSTART,*-IXRSTART     IXR PREFIX
 000044                             1652             =IXRNT    DS    XL3                     FIRST IXR ENTRY
                                    1653             =
                                    1654             =IXRNT#   EQU   (L'IXR-L'IXRPREF)/L'IXRNT        NO. OF ENTRIES
 000047                             1655             =IXRNTNEX DS    (IXRNT#-1)XL(L'IXRNT)   REMAINING ENTRIES
                                    1656             =*
                                    1657             =*  Use last 6 bytes of SIXR for special IXR counts
 000800                00800 007FA  1658             =         ORG   IXR+L'IXR-6
                                    1659             =IXRIXNT# EQU   IXRNT#-(6/L'IXRNT)      NO OF IXR ENTRIES IN SIXR
                                    1660             =IXRMXNT# EQU   IXRNT#*IXRIXNT#         MAX NUMBER OF USER BLOCKS
 0007FA                             1661             =IXRNIXR  DS    H        (SIXR ONLY)    NO. IXRS FOR FILE
 0007FC                             1662             =IXRLWXR  DS    H        (SIXR ONLY)    LOWEST IXR FOR FILE
 0007FE                             1663             =IXRHIXR  DS    H        (SIXR ONLY)    HIGHEST IXR FOR FILE
1VFRY     (VFRY21) (09:47) (22MAR04) ORVYL File System Verify                                                               Page   12
0D-Loc  Object Code    Addr1 Addr2  Stmt Lv Lineno    Source Statement           (Hibal 5, Asmedit 3.3)  HLASM R4.0  2004/03/22 09.47
+_____  ______ ____    _____ _____  ____ __ ______    ______ _________
0                                   1665     100.     ¿þþþþþþþþþþþþþþþþþþþþþþþþþþþþþþþþþþþþþþþþþþþþþþþþþþþþþþþþþþþþþþþþþþþþþÜ
                                    1666     101.     Ÿ                                                                     Ÿ
                                    1667     102.     Ÿ  Define system DSECT mappings                                       Ÿ
                                    1668     103.     Ÿ                                                                     Ÿ
                                                      ¾þþþþþþþþþþþþþþþþþþþþþþþþþþþþþþþþþþþþþþþþþþþþþþþþþþþþþþþþþþþþþþþþþþþþþ»
-                                   1670     105.              PRINT NOGEN               Suppress macro expansions
                                    1672     106.              DCBD  DSORG=BS,DEVD=DA    Data control block
                                    2189     107.              IEFZB4D0 ,                Dynamic allocation
                                    2586     108.              IEFZB4D2 ,                Dynamic allocation
                                    3029     109.              IEFTIOT1 ,                Task i/o table
                                    3262     110.              CVT   DSECT=YES           Communications vector table
                                    4592     111.              IKJTCB ,                  Task control block
                                    5505     112.              PRINT GEN                 Enable macro expansions
1VFRY     (VFRY21) (09:47) (22MAR04) ORVYL File System Verify                                                               Page   13
0D-Loc  Object Code    Addr1 Addr2  Stmt Lv Lineno    Source Statement           (Hibal 5, Asmedit 3.3)  HLASM R4.0  2004/03/22 09.47
+_____  ______ ____    _____ _____  ____ __ ______    ______ _________
0                                   5508     114.     ¿þþþþþþþþþþþþþþþþþþþþþþþþþþþþþþþþþþþþþþþþþþþþþþþþþþþþþþþþþþþþþþþþþþþþþÜ
                                    5509     115.     Ÿ                                                                     Ÿ
                                    5510     116.     Ÿ  Define VERIFY error class codes                                    Ÿ
                                    5511     117.     Ÿ                                                                     Ÿ
                                                      ¾þþþþþþþþþþþþþþþþþþþþþþþþþþþþþþþþþþþþþþþþþþþþþþþþþþþþþþþþþþþþþþþþþþþþþ»
-                                   5513     119.     ERR_RANG EQU   1,1,C'C'            Block number out of range
                                    5514     120.     ERR_IOER EQU   2,1,C'C'            I/o error reading/writing file
                                    5515     121.     ERR_RSV  EQU   3,1,C'C'            ** not assigned **
                                    5516     122.     ERR_IXNO EQU   4,1,C'C'            IXR block number is wrong
                                    5517     123.     ERR_IXST EQU   5,1,C'C'            Ixrstate wrong
                                    5518     124.     ERR_UNAL EQU   6,1,C'C'            Block not allocated in bit map
                                    5519     125.     ERR_DUPL EQU   7,1,C'C'            Multiple files have same block
                                    5520     126.     ERR_FILN EQU   8,1,C'C'            Filename is wrong
                                    5521     127.     ERR_IXLN EQU   9,1,C'C'            IXR header length is wrong
-                                   5523     129.     ST_SPACE EQU   12,4,C'A'           Stack space to request (K)
                                    5524     130.     ST_RESV  EQU   256,4,C'A'          Stack "full" cutoff
1VFRY     (VFRY21) (09:47) (22MAR04) ORVYL File System Verify                                                               Page   14
0D-Loc  Object Code    Addr1 Addr2  Stmt Lv Lineno    Source Statement           (Hibal 5, Asmedit 3.3)  HLASM R4.0  2004/03/22 09.47
+_____  ______ ____    _____ _____  ____ __ ______    ______ _________
0                                   5526     132.     ********************************************************************
                                    5527     133.     *                                                                  *
                                    5528     134.     *   VERIFY Data section                                            *
                                    5529     135.     *                                                                  *
                                    5530     136.     ********************************************************************
-000015                00000 02EB0  5532     138.     VFRY     CSECT ,
 000058                00058 02EB0  5534     139.              DATA  BEGIN
 000058                             5539  1  140.     DATASEG    DC    0D'0'               DEFINE DATA AREA ALIGNMENT
 000058 0000000000000000            5540  1  141.     CONWORK    DC    D'0'                    Conversion area
 000060 0000000000000000            5541  1  142.     CONWORK2   DC    D'0'                    More conversion area
 000068 0000000000000000            5542  1  143.     CLCKSTRT   DC    D'0'                    STCK Starting value
 000070 0000000000000000            5543  1  144.     CLWTEMP    DC    5D'0'                   Conversion work area
 000098 00000C6E                    5544  1  145.     MAINADDR   DC    A(MAINLOOP)         Address of main processing
 00009C 00000000                    5545  1  146.     VSSAVE     DC    A(0)                SAVE FOR VS AREA
 0000A0 00000000                    5546  1  147.     SAVEAREA   DC    A(0)                Verify save stack pointer
 0000A4 00000000                    5547  1  148.     SAVEAEND   DC    A(0)                Last address of save stack
00000A8 00000000                    5549  1  150.     RETCODE    DC    A(0)                Verify return code
 0000AC E5C6D9E8D7D9E340            5550  1  151.     VFRYPRT    DC    CL8'VFRYPRT'        Default print file
 0000B4 C9E7D9C4E4D4D740            5551  1  152.     IXRDDN     DC    CL8'IXRDUMP'        Default ixrdump file
 0000BC C6C9D3C5E2404040            5552  1  153.     FILDDN     DC    CL8'FILES'          Default catalog input file
 0000C4 C6E2D5C1D4C54040            5553  1  154.     FSNAME     DC    CL8'FSNAME'         File system name
00000CC 00                          5555  1  156.     PARMFLGS   FLAG  ,                   PARAMETER FLAGS
 PARMFLGS.DMPIXRS  80 ONES          5559  1  157.                FLAG  DMPIXRS               *IXR DUMP FLAG
 PARMFLGS.IXDISK   40 ONES          5564  1  158.                FLAG  IXDISK                *DUMP IXR'S TO DISK (INC)
 PARMFLGS.IXTAPE   20 ONES          5569  1  159.                FLAG  IXTAPE                *DUMP IXR'S TO TAPE (INC)
 PARMFLGS.RECLAIM  10 ONES          5574  1  160.                FLAG  RECLAIM               *RECLAIM LOST BLOCKS
 PARMFLGS.REBUILD  08 ONES          5579  1  161.                FLAG  REBUILD               *IGNORE EXISTING BIT MAP
 PARMFLGS.AUTO     04 ONES          5584  1  162.                FLAG  AUTO                  *PERFORM AUTO FIXUPS
 PARMFLGS.DUMP     02 ONES          5589  1  163.                FLAG  DUMP                  *DUMP ON ERROR RETURN
 PARMFLGS.VERBOSE  01 ONES          5594  1  164.                FLAG  VERBOSE               *CHATTY-CATHY SWITCH
00000CD 00                          5600  1  166.     PRM2FLGS   FLAG  ,
 PRM2FLGS.INC      80 ONES          5604  1  167.                FLAG  INC                   *Incremental data set stem
 PRM2FLGS.FORCE    40 ONES          5609  1  168.                FLAG  FORCE                 *FORCE BITMAP RECONSTRUCTION
00000CE 00                          5615  1  170.     VFRYFLGS   FLAG  ,                   VERIFY RUN FLAGS
 VFRYFLGS.ERROR    80 ONES          5619  1  171.                FLAG  ERROR                 *PROCESSING ERROR
 VFRYFLGS.DO2ND    40 ONES          5624  1  172.                FLAG  DO2ND                 *2ND PASS NEEDED
 VFRYFLGS.FRSTPASS 20 ONES          5629  1  173.                FLAG  FRSTPASS              *FIRST PASS OF VERIFY
 VFRYFLGS.OTHER    10 ONES          5634  1  174.                FLAG  OTHER                 *2ND PASS ERROR FLAGS
 VFRYFLGS.IXRIOE   08 ONES          5639  1  175.                FLAG  IXRIOE                *I/O ERROR OCCURRED ON IXR
00000CF 4040404040404040            5645  1  177.     PLINE      DC    CL132' '                Output buffer for print
 000153 40404040                    5646  1  178.     UINFO      DC    CL4' '                  Format
 000157 4040                        5647  1  179.     UMASK      DC    CL2' '                  Public permits and filemask
                                    5650  1  182.                SCANCB ,                      GENERATE SCANNER CNTRL BLOCK
 00015C                             5651  1 01-SCANC +SCNCB      DS    0F
 00015C                             5652  1 01-SCANC +SCNVAL     DS    A                       VALUE RETURNED
 000160                             5653  1 01-SCANC +SCNKW      DS    CL8                     CURRENT KEY WORD
 000168                             5654  1 01-SCANC +SCNLEN     DS    A                       LENGTH LEFT TO SCAN
 00016C                             5655  1 01-SCANC +SCNLOC     DS    A                       NEXT THING TO SCAN
 000170                             5656  1 01-SCANC +SCNRA      DS    A                       RETURN ADDRESS
1VFRY     (VFRY21) (09:47) (22MAR04) ORVYL File System Verify                                                               Page   15
0D-Loc  Object Code    Addr1 Addr2  Stmt Lv Lineno    Source Statement           (Hibal 5, Asmedit 3.3)  HLASM R4.0  2004/03/22 09.47
+_____  ______ ____    _____ _____  ____ __ ______    ______ _________
0000174                             5657  1 01-SCANC +SCNPRT     DS    A                       ROUTING TABLE ADDRESS
 000178                             5658  1 01-SCANC +SCNCLT     DS    A                       SCAN TYPE
                                    5659  1          +*                                      0 = NORMAL SCAN
                                    5660  1          +*                                      4 = EXPRESSION ISOLATION
                                    5661  1          +*                                      8 = EXPRESSION SCAN
                                    5662  1 01-SCANC +SCNCBL     EQU *-SCNCB
-                                   5665  1  185.     *
                                    5666  1  186.     *     Memory map
                                    5667  1  187.     *
 00017C 00000000                    5668  1  188.     FDBAREA    DC    A(0)                    FILE CATALOG BLOCK AREA
 000180 00000000                    5669  1  189.     IXRAREA    DC    A(0)                    IXR Information
 000184 00000000                    5670  1  190.     BTTMEMRQ   DC    A(0)                    BIT MAP MEMORY REQUIRED
 000188 00000000                    5671  1  191.     BTTMEMST   DC    A(0)                    BIT MAP STARTING ADDRESS
 00018C 00000000                    5672  1  192.     BTTMEMND   DC    A(0)                    BIT MAP ENDING ADDRESS+1
 000190 00000000                    5673  1  193.     BITND      DC    A(0)                    BIT MAP END
 000194 00000000                    5674  1  194.     BTTBASE    DC    A(0)                    Bit-Map base block
 000198 00000000                    5675  1  195.     BTTCNT     DC    A(0)                    Bit-Map block count
0                                   5677  1  197.     *
                                    5678  1  198.     *  ERROR TABLE POINTERS
                                    5679  1  199.     *
 00019C 00000000                    5680  1  200.     ERRSTRT    DC    A(0)                    Current error block
 0001A0 00000000                    5681  1  201.     ERRANCHR   DC    A(0)                    Error list anchor
1VFRY     (VFRY21) (09:47) (22MAR04) ORVYL File System Verify                                                               Page   16
0Loc    Object Code    Addr1 Addr2  Stmt Lv Lineno    Source Statement           (Hibal 5, Asmedit 3.3)  HLASM R4.0  2004/03/22 09.47
+___    ______ ____    _____ _____  ____ __ ______    ______ _________
0                                   5683  1  203.     *
                                    5684  1  204.     *    VFREAD Parameter lists
                                    5685  1  205.     *
 0001A4 FFFFFFFE                    5686  1  206.     VOPN       DC    A(-2)               NEWer FORMAT VFOPN PARAMETER
 0001A8 00                          5687  1  207.     VOPN_FL    FLAG  ,
 VOPN_FL.VOPN_BCV  80 ONES          5691  1  208.                FLAG  VOPN_BCV              - BCV processing mode
                                    5696  1  209.     *                                    - CAUTION: Last X'01' output
 0001A9 0001CC                      5697  1  210.                DC    AL3(VPOW)           Open for input only
 0001AC 00000180                    5698  1  211.                DC    A(IXRAREA)          Chain address
 0001B0 000001D0                    5699  1  212.                DC    A(MAINECB)          Ecb address for post
 0001B4 000001D4                    5700  1  213.                DC    A(MAXNO)            Secondary format total blocks
 0001B8 C3D6D5E3D9D6D340            5701  1  214.     VFOCNTL    DC    CL8'CONTROL'        Ddname of passed control file
 0001C0 C4E2D24040404040            5702  1  215.     VFOPFX     DC    CL8'DSK'            Ddname prefix for disk allocation
 0001C8 000001DC                    5703  1  216.     VFOBKS     DC    A(FSBLKSZ)          Blocksize
1VFRY     (VFRY21) (09:47) (22MAR04) ORVYL File System Verify                                                               Page   17
0Loc    Object Code    Addr1 Addr2  Stmt Lv Lineno    Source Statement           (Hibal 5, Asmedit 3.3)  HLASM R4.0  2004/03/22 09.47
+___    ______ ____    _____ _____  ____ __ ______    ______ _________
0                                   5705  1  218.     *
                                    5706  1  219.     *  MISCELLANEOUS COUNTERS
                                    5707  1  220.     *
 0001CC 00000001                    5708  1  221.     VPOW       DC    A(1)                    Number of I/O blocks
 0001D0 00000000                    5709  1  222.     MAINECB    DC    A(0)                    MAIN ECB FOR I/O POSTING
 0001D4 00000000                    5710  1  223.     MAXNO      DC    A(0)                    Maximum ORVYL block number
 0001D8 00000000                    5711  1  224.     MAXUSE     DC    A(0)                    Maximum ORVYL block in use
 0001DC 00000000                    5712  1  225.     FSBLKSZ    DC    A(0)                    Block size of bit map blocks
 0001E0 00000000                    5713  1  226.     FILECNT    DC    A(0)                    Count of files in system
 0001E4 00000000                    5714  1  227.     NUMACCTS   DC    A(0)                    Number of accounts in system
 0001E8 00000000                    5715  1  228.     NERRS      DC    A(0)                    Number of serious file errors
 0001EC 00000000                    5716  1  229.     IXRSOUT    DC    A(0)                    Count of IXRs written to tape
 0001F0 00000000                    5717  1  230.     BLKNO      DC    A(0)                    Initial block number
 0001F4 00000000                    5718  1  231.     BLOCKID    DC    A(0)                    Block id for da read/write
 0001F8 00000000                    5719  1  232.     NIXRFLS    DC    A(0)                    Count of NON-IXR files
 0001FC 00000000                    5720  1  233.     HYBRFLS    DC    A(0)                    Count of hybrid files
 000200 0000                        5721  1  234.     ENLN       DC    H'0'                    Entry length
 000202 0000                              1
 000204 00000000                    5722  1  235.     RECLVL     DC    A(0)                RECURSION LEVEL
 000208 00000000                    5723  1  236.     MAXLVL     DC    A(0)                MAXIMUM RECURSION LEVEL
                                    5724  1  237.     *
                                    5725  1  238.     *
 00020C                             5726  1  239.     BITTRT     DC    0A(0)              BITS PER BYTE TRT TABLE
000020C 0001010201020203            5728  1  241.                DC    AL1(0,1,1,2,1,2,2,3,1,2,2,3,2,3,3,4)
 00021C 0102020302030304            5729  1  242.                DC    AL1(1,2,2,3,2,3,3,4,2,3,3,4,3,4,4,5)
 00022C 0102020302030304            5730  1  243.                DC    AL1(1,2,2,3,2,3,3,4,2,3,3,4,3,4,4,5)
 00023C 0203030403040405            5731  1  244.                DC    AL1(2,3,3,4,3,4,4,5,3,4,4,5,4,5,5,6)
 00024C 0102020302030304            5732  1  245.                DC    AL1(1,2,2,3,2,3,3,4,2,3,3,4,3,4,4,5)
 00025C 0203030403040405            5733  1  246.                DC    AL1(2,3,3,4,3,4,4,5,3,4,4,5,4,5,5,6)
 00026C 0203030403040405            5734  1  247.                DC    AL1(2,3,3,4,3,4,4,5,3,4,4,5,4,5,5,6)
 00027C 0304040504050506            5735  1  248.                DC    AL1(3,4,4,5,4,5,5,6,4,5,5,6,5,6,6,7)
 00028C 0102020302030304            5736  1  249.                DC    AL1(1,2,2,3,2,3,3,4,2,3,3,4,3,4,4,5)
 00029C 0203030403040405            5737  1  250.                DC    AL1(2,3,3,4,3,4,4,5,3,4,4,5,4,5,5,6)
 0002AC 0203030403040405            5738  1  251.                DC    AL1(2,3,3,4,3,4,4,5,3,4,4,5,4,5,5,6)
 0002BC 0304040504050506            5739  1  252.                DC    AL1(3,4,4,5,4,5,5,6,4,5,5,6,5,6,6,7)
 0002CC 0203030403040405            5740  1  253.                DC    AL1(2,3,3,4,3,4,4,5,3,4,4,5,4,5,5,6)
 0002DC 0304040504050506            5741  1  254.                DC    AL1(3,4,4,5,4,5,5,6,4,5,5,6,5,6,6,7)
 0002EC 0304040504050506            5742  1  255.                DC    AL1(3,4,4,5,4,5,5,6,4,5,5,6,5,6,6,7)
 0002FC 0405050605060607            5743  1  256.                DC    AL1(4,5,5,6,5,6,6,7,5,6,6,7,6,7,7,8)
1VFRY     (VFRY21) (09:47) (22MAR04) ORVYL File System Verify                                                               Page   18
0Loc    Object Code    Addr1 Addr2  Stmt Lv Lineno    Source Statement           (Hibal 5, Asmedit 3.3)  HLASM R4.0  2004/03/22 09.47
+___    ______ ____    _____ _____  ____ __ ______    ______ _________
0                                   5745  1  258.                PRINT NOGEN                   SUPPRESS MACRO EXPANSION
                                    5747  1  259.   C IXRDCB     DCB   DDNAME=IXRDUMP,DSORG=PS,RECFM=FB,MACRF=PM,
 00030C 0000000000000000                  1  260.                      BLKSIZE=0,LRECL=2104
0                                   5790  1  262.   C FILS       DCB   DDNAME=FILES,DSORG=PS,RECFM=VBS,MACRF=(GM),
 00036C 0000000000000000                  1  263.                      BLKSIZE=6233,LRECL=4100,EODAD=FILEND
-                                   5833  1  265.                PRINT GEN
00003CC 8F/00030C                   5836  1  267.     IXROPNL    OPEN  (IXRDCB,(OUTPUT)),MF=L
00003D0 80/00036C                   5841  1  269.     FILSOPNL   OPEN  (FILS,(INPUT)),MF=L
00003D4 00000000                    5846  1  271.     GETLST     GETMAIN EC,LV=0,A=0,MF=L,BNDRY=PAGE PARAMETER LIST
 0003D8 00000000/30/00              5849  1          +
 000015                00000 02EB0  5852     272.              END   ,
1VFRY     (VFRY21) (09:47) (22MAR04) ORVYL File System Verify                                                               Page   19
0Loc    Object Code    Addr1 Addr2  Stmt Lv Lineno    Source Statement           (Hibal 5, Asmedit 3.3)  HLASM R4.0  2004/03/22 09.47
+___    ______ ____    _____ _____  ____ __ ______    ______ _________
0                                   5859     274.     ********************************************************************
                                    5860     275.     *                                                                  *
                                    5861     276.     *  DEFINE ERROR TABLE BLOCK FORMAT                                 *
                                    5862     277.     *                                                                  *
                                    5863     278.     ********************************************************************
0000000                00000 01000  5865     280.     SERRBLK  RECORD BEGIN
 000000                             5873  1  281.     SERRNXT    DS    A                       NEXT ERROR BLOCK ADDRESS
 000004                             5874  1  282.     SERRENT    DS    A                       OFFSET TO NEXT ENTRY
                                    5875  1  283.     SERRFRST   EQU   *                       FIRST ENTRY IN BLOCK
                                    5876  1  284.     SERRMAX    EQU   (4096-8)                MAXIMUM OFFSET
 000008                             5877  1  285.                DS    (4096-8)X               ROUND OFF TO 4K
 001000                01000 01000  5878     286.              END   ,
-
                                    5888     288.     ********************************************************************
                                    5889     289.     *                                                                  *
                                    5890     290.     *  DEFINE ERROR TABLE ENTRY FORMAT                                 *
                                    5891     291.     *                                                                  *
                                    5892     292.     ********************************************************************
-000000                00000 00050  5894     294.     SERRLST  RECORD BEGIN              Define error table entry
 000000                             5902  1  295.     SERRLO     DS    A                   Low-pointer address
 000004                             5903  1  296.     SERRHI     DS    A                   High-pointer address
 000008 00000000                    5904  1  297.     SERRLCNT   DC    A(0)                Nodes on the low side
 00000C 00000000                    5905  1  298.     SERRHCNT   DC    A(0)                Nodes on the high side
 000010 00                          5906  1  299.     SERRFLG    FLAG  ,                   Error modifiers
 SERRFLG.SERRDEL   80 ONES          5910  1  300.                FLAG  SERRDEL               This entry deleted
 SERRFLG.SERR6     40 ONES          5915  1  301.                FLAG  SERR6                 This error actually a "6"
 SERRFLG.SERR7     20 ONES          5920  1  302.                FLAG  SERR7                 This error actually a "7"
 000011                             5925  1  303.                DS    CL3                 Alignment
 000014                             5926  1  304.     SERRBIT    DS    A                   Bit-no of error
                                    5927  1  305.     SERRCLAS   EQU   SERRBIT,1,C'C'      Error class
 000018                             5928  1  306.     SERRNAME   DS    CL40                Filename error
 000040                             5929  1  307.     SERRREL    DS    A                   Relative block
 000044                             5930  1  308.     SERRTYPE   DS    A                   Error location
 000048                             5931  1  309.     SERRCCHH   DS    2A                  Mbcchhr of error
                                    5932  1  310.     SERRINFO   EQU   SERRBIT,*-SERRBIT,C'C'  Define key portion
 000050                00050 00050  5933     311.              END   ,
1VFRY     (VFRY21) (09:47) (22MAR04) ORVYL File System Verify                                                               Page   20
0Loc    Object Code    Addr1 Addr2  Stmt Lv Lineno    Source Statement           (Hibal 5, Asmedit 3.3)  HLASM R4.0  2004/03/22 09.47
+___    ______ ____    _____ _____  ____ __ ______    ______ _________
0                                   5944     314.              VFAREA
 000000                00000 02800  5945    01-VFARE +IOINFO   DSECT ,
 000000 00000000                    5946    01-VFARE +IONXT    DC    A(0)                    NEXT BLOCK ON CHAIN
 000004 00000000                    5947    01-VFARE +IOPRV    DC    A(0)                    PREVIOUS BLOCK ON CHAIN
 000008 00000000/00                 5948    01-VFARE +IOECB    DC    A(0)                    ECB TO POST (MAYBE?)
 IOFLGS.IOWRITE    80 ONES
000000D 00                          5960    01-VFARE +IORET    DC    X'00'                   RETURN CODE FROM VFRD
 00000E 00                          5961    01-VFARE +IOSECT   DC    X'00'                   SECTOR NUMBER FOR I/O
 00000F 00                                           +
 000010 00000000                    5962    01-VFARE +         DC    A(0)                Available
                                    5963             +***********************************************************************
                                    5964             +*                                                                     *
                                    5965             +*                    STANDARD SECTION OF THE IOB                      *
                                    5966             +*                                                                     *
                                    5967             +***********************************************************************
-
 000018                             5969    01-VFARE +IOBSTDRD DS    0D
0000018                             5971    01-VFARE +IOBFLAG1 DS    B -       FLAG BYTE
                                    5972    01-VFARE +IOBDATCH EQU   X'80' --- DATA CHAINING USED IN CHANNEL PROGRAM
                                    5973    01-VFARE +IOBCMDCH EQU   X'40' --- COMMAND CHAINING USED IN CHANNEL PROGRAM
                                    5974    01-VFARE +IOBERRTN EQU   X'20' --- ERROR ROUTINE IS IN CONTROL
                                    5975    01-VFARE +IOBRPSTN EQU   X'10' --- DEVICE IS TO BE REPOSITIONED
                                    5976    01-VFARE +IOBCYCCK EQU   X'08' --- CYCLIC REDUNDANCY CHECK NEEDED(TAPE ONLY)
                                    5977    01-VFARE +IOBFCREX EQU   X'08' --- FETCH COMMAND RETRY EXIT (DIRECT ACCESS ONLY)
                                    5978    01-VFARE +IOBIOERR EQU   X'04' --- I/O ERROR HAS OCCURRED
                                    5979    01-VFARE +IOBUNREL EQU   X'02' --- THIS I/O REQUEST IS UNRELATED(NON-SEQUENTIAL)
                                    5980    01-VFARE +IOBRSTRT EQU   X'01' --- RESTART ADDR.IN IOB TO BE USED
 000019                             5981    01-VFARE +IOBFLAG2 DS    B -       FLAG BYTE
                                    5982    01-VFARE +IOBHALT  EQU   X'80' --- HALT I/O HAS BEEN ISSUED BY SVC PURGE ROUTINE
                                    5983    01-VFARE +IOBSENSE EQU   X'40' --- ISSUE SENSE COMMAND AFTER DEVICE END OCCURS
                                    5984    01-VFARE +IOBPURGE EQU   X'20' --- IOB HAS BEEN PURGED *ALLOW I/O TO QUIESCE
                                    5985    01-VFARE +IOBRDHA0 EQU   X'10' --- HOME ADDRESS TO BE READ * NO SEEK NEEDED
                                    5986    01-VFARE +IOBALTTR EQU   X'08' --- NO TEST FOR OUT-OF-EXTENT * AN ALTERNATE TRACK
                                    5987             +*                        IS IN USE
                                    5988    01-VFARE +IOBSKUPD EQU   X'04' --- SEEK ADDRESS IS BEING UPDATED -CYLINDER END
                                    5989             +*                        OR FILE MASK VIOLATION HAS OCCURRED
                                    5990    01-VFARE +IOBSTATO EQU   X'02' --- DEVICE END STATUS HAS BEEN ORED WITH
                                    5991             +*                        CHANNEL END STATUS - GRAPHICS DEVICE
                                    5992    01-VFARE +IOBPNCH  EQU   X'01' --- TURNED ON BY QSAM WHEN ERROR RECOVERY IS TO
                                    5993             +*                        BE PROVIDED FOR THE 2540 CARD PUNCH
 00001A                             5994    01-VFARE +IOBSENS0 DS    B ------- FIRST SENSE BYTE
                                    5995    01-VFARE +IOBS0B0  EQU   X'80' --- BIT 0 (DEVICE DEPENDENT)
                                    5996    01-VFARE +IOBS0B1  EQU   X'40' --- BIT 1 (DEVICE DEPENDENT)
                                    5997    01-VFARE +IOBS0B2  EQU   X'20' --- BIT 2 (DEVICE DEPENDENT)
                                    5998    01-VFARE +IOBS0B3  EQU   X'10' --- BIT 3 (DEVICE DEPENDENT)
                                    5999    01-VFARE +IOBS0B4  EQU   X'08' --- BIT 4 (DEVICE DEPENDENT)
                                    6000    01-VFARE +IOBS0B5  EQU   X'04' --- BIT 5 (DEVICE DEPENDENT)
                                    6001    01-VFARE +IOBS0B6  EQU   X'02' --- BIT 6 (DEVICE DEPENDENT)
                                    6002    01-VFARE +IOBS0B7  EQU   X'01' --- BIT 7 (DEVICE DEPENDENT)
                                    6003    01-VFARE +IOBSNSC9 EQU   X'01' --- CHANNEL 9 SENSED IN CARRIAGE TAPE
 00001B                             6004    01-VFARE +IOBSENS1 DS    B ------- SECOND SENSE BYTE
                                    6005    01-VFARE +IOBS1B0  EQU   X'80' --- BIT 0 (DEVICE DEPENDENT)
1VFRY     (VFRY21) (09:47) (22MAR04) ORVYL File System Verify                                                               Page   21
0Loc    Object Code    Addr1 Addr2  Stmt Lv Lineno    Source Statement           (Hibal 5, Asmedit 3.3)  HLASM R4.0  2004/03/22 09.47
+___    ______ ____    _____ _____  ____ __ ______    ______ _________
0                                   6006    01-VFARE +IOBS1B1  EQU   X'40' --- BIT 1 (DEVICE DEPENDENT)
                                    6007    01-VFARE +IOBS1B2  EQU   X'20' --- BIT 2 (DEVICE DEPENDENT)
                                    6008    01-VFARE +IOBS1B3  EQU   X'10' --- BIT 3 (DEVICE DEPENDENT)
                                    6009    01-VFARE +IOBS1B4  EQU   X'08' --- BIT 4 (DEVICE DEPENDENT)
                                    6010    01-VFARE +IOBS1B5  EQU   X'04' --- BIT 5 (DEVICE DEPENDENT)
                                    6011    01-VFARE +IOBS1B6  EQU   X'02' --- BIT 6 (DEVICE DEPENDENT)
                                    6012    01-VFARE +IOBS1B7  EQU   X'01' --- BIT 7 (DEVICE DEPENDENT)
 00001C                             6013    01-VFARE +IOBECBPT DS    0A ------ ADDRESS OF ECB TO BE POSTED ON I/O COMPLETION
 00001C                             6014    01-VFARE +IOBECBCC DS    CL1 ---- COMPLETION CODE FOR THIS I/O REQUEST
 00001D                             6015    01-VFARE +IOBECBPB DS    AL3 ----- ADDRESS OF ECB TO BE POSTED ON I/O COMPLETION
 000020                             6016    01-VFARE +IOBFLAG3 DS    B ------- ERROR ROUTINE FLAG BYTE
 000021                             6017    01-VFARE +IOBCSW   DS    CL7 ----- LOW ORDER 7 BYTES OF CSW AT CHANNEL END
 000028                             6018    01-VFARE +IOBSTART DS    0A ------ ADDRESS OF CHANNEL PROGRAM
 000028                             6019    01-VFARE +IOBSIOCC DS    B ------- BITS 2 AND 3 = C.C. FROM SIO
 000029                             6020    01-VFARE +IOBSTRTB DS    AL3 ----- ADDRESS OF CHANNEL PROGRAM
 00002C                             6021    01-VFARE +IOBDCBPT DS    0A ------ ADDRESS OF DATA CONTROL BLOCK FOR THIS IOB
 00002C                             6022    01-VFARE +IOBRSV36 DS    XL1 ----- RESERVED
 00002D                             6023    01-VFARE +IOBDCBPB DS    AL3 ----- ADDRESS OF DATA CONTROL BLOCK FOR THIS IOB
 000030                             6024    01-VFARE +IOBRESTR DS    0A ------ RESTART ADDRESS FOR ERROR RETRY
 000030                             6025    01-VFARE +IOBREPOS DS    CL1 ----- CODE USED TO REPOSITION DEVICE
 000031                             6026    01-VFARE +IOBRSTRB DS    AL3 ----- RESTART ADDRESS FOR ERROR RETRY
 000034                             6027    01-VFARE +IOBINCAM DS    0H ------ VALUE USED TO INCREMENT BLOCK COUNT ON TAPE
 000034                             6028    01-VFARE +IOBBTAMF DS    B ------- FLAG BYTE FOR BTAM
                                    6029    01-VFARE +IOBPRMER EQU   X'80' --- 'SAD','ENABLE' ISSUED BY OPEN CAUSED I/O ERROR
                                    6030    01-VFARE +IOBINUSE EQU   X'40' --- IOB IS IN USE
                                    6031    01-VFARE +IOBRSV14 EQU   X'20',,C'X' RESERVED
                                    6032    01-VFARE +IOBRSV15 EQU   X'10',,C'X' RESERVED
                                    6033    01-VFARE +IOBRSV16 EQU   X'08',,C'X' RESERVED
                                    6034    01-VFARE +IOBRSV17 EQU   X'04',,C'X' RESERVED
                                    6035    01-VFARE +IOBRFTMG EQU   X'02' --- INDICATES A REQUEST-FOR-TEST MESSAGE FROM A
                                    6036             +*                        REMOTE 3270                             ICB478
                                    6037    01-VFARE +IOBOLTST EQU   X'01' --- LINE IS UNDER ON-LINE TEST OPERATION
 000035                             6038    01-VFARE +IOBRSV19 DS    XL1 ----- RESERVED
0000036                00036 00034  6040    01-VFARE +         ORG   IOBINCAM
 000034                             6041    01-VFARE +IOBCRDCC DS    CL1 ----- OPTICAL READER: DATA CHECK ERROR COUNT
 000035                             6042    01-VFARE +IOBCRILC DS    CL1 ----- OPTICAL READER: INCORRECT LENGTH ERROR COUNT
-000036                             6044    01-VFARE +IOBERRCT DS    H ------- NUMBER OF ERROR RETRIES
-
                                    6046             +***********************************************************************
                                    6047             +*                                                                     *
                                    6048             +*                   EXTENSION SECTIONS OF THE IOB                     *
                                    6049             +*                                                                     *
                                    6050             +***********************************************************************
0000038                             6052    01-VFARE +IOBEXTEN DS    0D
0                                   6054             +*                            ******************************************
                                    6055             +*                            *                                        *
                                    6056             +*                            *  DIRECT ACCESS EXTENSION ** 16 BYTES   *
                                    6057             +*                            *                                        *
                                    6058             +*                            ******************************************
1VFRY     (VFRY21) (09:47) (22MAR04) ORVYL File System Verify                                                               Page   22
0Loc    Object Code    Addr1 Addr2  Stmt Lv Lineno    Source Statement           (Hibal 5, Asmedit 3.3)  HLASM R4.0  2004/03/22 09.47
+___    ______ ____    _____ _____  ____ __ ______    ______ _________
0000038                             6060    01-VFARE +IOBSEEK  DS    0CL8 ----
 000038                             6061    01-VFARE +IOBM     DS    CL1 ----- RELATIVE EXTENT NUMBER FOR THIS REQUEST(0-15)
 000039                             6062    01-VFARE +IOBBB    DS    0CL2 ---- BIN NUMBER(DATA CELL)
 000039                             6063    01-VFARE +IOBBB1   DS    CL1
 00003A                             6064    01-VFARE +IOBBB2   DS    CL1
 00003B                             6065    01-VFARE +IOBCC    DS    0CL2 ---- CYLINDER NUMBER
 00003B                             6066    01-VFARE +IOBCC1   DS    CL1
 00003C                             6067    01-VFARE +IOBCC2   DS    CL1
 00003D                             6068    01-VFARE +IOBHH    DS    0CL2 ---- TRACK NUMBER
 00003D                             6069    01-VFARE +IOBHH1   DS    CL1
 00003E                             6070    01-VFARE +IOBHH2   DS    CL1
 00003F                             6071    01-VFARE +IOBR     DS    CL1 ----- RECORD NUMBER
                                    6072    01-VFARE +IOBAREA  EQU   IOBSTDRD,*-IOBSTDRD,C'R'         LENGTH OF IOB
0000040                             6074    01-VFARE +IOCCW    DC    0D'0'
 000040 2300000E40000001            6075    01-VFARE +CCWSECT  CCW   X'23',IOSECT,X'40',1    SET SECTOR
 000048 3100003B40000005            6076    01-VFARE +CCWSRCH  CCW   X'31',IOBCC,X'40',5     SEARCH ID EQUAL
 000050 0800004840000001            6077    01-VFARE +CCWTIC   CCW   X'08',*-8,X'40',1       TIC *-1
 000058 0E000068C0000050            6078    01-VFARE +CCWREAD  CCW   X'0E',IOHDR,X'C0',80    READ HEADER
 000060 0000080000000800            6079    01-VFARE +CCWR2    CCW   X'00',IOIXR,X'00',2048  READ BLOCK
0000068 0000000000000000            6081    01-VFARE +IOHDR    DC    XL80'00'                HEADER AREA
0                                   6083             +*
                                    6084             +*  DEFINE ERROR LIST FORMAT
                                    6085             +*
                                    6086             +*        NOTE: These entries must remain together.
                                    6087             +*
00000B8 00000000                    6089    01-VFARE +BITNO    DC    A(0)                    Bit number of error
                                    6090    01-VFARE +CLASS    EQU   BITNO,1,C'C'            Error class (number)
 0000BC 4040404040404040            6091    01-VFARE +FILENAME DC    CL40' '                 Filename
 0000E4 00000000                    6092    01-VFARE +RELBLK   DC    A(0)                    Relative block number
 0000E8 00000000                    6093    01-VFARE +TYPE     DC    A(0)                    Error location
 0000EC 0000000000000000            6094    01-VFARE +CCHHR    DC    2A(0)                   MBBCCHHR Address
00000F4 00000000                    6096    01-VFARE +NIXRCNT  DC    A(0)                    NUMBER OF RECORDS IN NIXR FILE
 0000F8 00000000                    6097    01-VFARE +SCNDHDR  DC    A(0)                    SECOND IXR BLK FOR SUPER IXRS
 0000FC 0000                        6098    01-VFARE +IXRNDX   DC    H'0'                    Index into SIXR's IXR pointers
 0000FE                             6099    01-VFARE +IOVOL    DS    CL6                     CURRENT VOLUME SERIAL
0                                   6101             +*
                                    6102             +* VFRD WORK AREAS
                                    6103             +*
 000104 00000000                    6104    01-VFARE +RELTRK   DC    A(0)                    RELATIVE TRACK
 000108 00000000                    6105    01-VFARE +XELBLK   DC    A(0)                    RELATIVE BLOCK ON TRACK
 00010C 00000000                    6106    01-VFARE +WORK     DC    A(0)                    WORK-AREA
0000110                00110 007C8  6108    01-VFARE +         ORG   IOINFO+2048-56          NICE DUMP READING ALIGNMENT
 0007C8                             6109    01-VFARE +MYHDR    DC    0D'0'                   SELECTIVE RESTORE INFO
 0007C8 4040404040404040            6110    01-VFARE +MYFILE   DC    CL40' '                 FILENAME
 0007F0 40404040                    6111    01-VFARE +         DC    CL4' '                  FILLER
 0007F4 00000000                    6112    01-VFARE +MYREL    DC    A(0)                    FILE RELATIVE BLOCK
 0007F8 00000000                    6113    01-VFARE +MAINHDR  DC    A(0)                    FIRST 4 BYTES OF HEADER
 0007FC 0000                        6114    01-VFARE +         DC    AL2(0)                  FILLER
 0007FE 0000                        6115    01-VFARE +MAINSZ   DC    AL2(0)                  RECORD SIZE
1VFRY     (VFRY21) (09:47) (22MAR04) ORVYL File System Verify                                                               Page   23
0Loc    Object Code    Addr1 Addr2  Stmt Lv Lineno    Source Statement           (Hibal 5, Asmedit 3.3)  HLASM R4.0  2004/03/22 09.47
+___    ______ ____    _____ _____  ____ __ ______    ______ _________
0000800 0000000000000000            6116    01-VFARE +IOIXR    DC    4096X'00'               AREA FOR IXR
                                    6117    01-VFARE +USERINFO EQU   IOIXR+62                *? (CHECK THIS ONE OUT)
 001800 0000000000000000            6118    01-VFARE +SCNDREC  DC    4096X'00'
1VFRY     (VFRY21) (09:47) (22MAR04) ORVYL File System Verify                                                               Page   24
0D-Loc  Object Code    Addr1 Addr2  Stmt Lv Lineno    Source Statement           (Hibal 5, Asmedit 3.3)  HLASM R4.0  2004/03/22 09.47
+_____  ______ ____    _____ _____  ____ __ ______    ______ _________
0                                   6121     317.     ******************************************************************
                                    6122     318.     *                                                                *
                                    6123     319.     *              Start VFRY Assembly                               *
                                    6124     320.     *                                                                *
                                    6125     321.     ******************************************************************
-000015                00000 02EB0  6127     323.     VFRY     CSECT ,                   Continue verify control section
0USING  IOINFO,R10                  6130     325.              USING IOINFO,R10          ## VFRD information buffer
 USING  IXRDSECT,R11                6139     326.              USING IXRDSECT,R11        ## IXR record structure
 USING  NXRYFL,R12                  6148     327.              USING NXRYFL,R12          ## Catalogue entry
0                                   6158     329.              ENTRY VFVERIFY            Declare entry point
0000016                             6160     331.     VFVERIFY LABEL ,
 000016 90EC D00C            0000C  6162     332.              STM   R14,R12,@R13+12     Save registers
 00001A 187F                        6163     333.              LR    BR,R15                Copy program base
 USING  VFVERIFY,R7                 6164     334.              USING VFVERIFY,BR             Declare VFRY base regs
000001C 5860 7032            00048  6174     336.              L     BRR,=A(DATASEG)     Address of data and common
 USING  DATASEG,R6                  6175     337.              USING DATASEG,BRR           Declare addressability to data
0000020 50D0 6044            0009C  6185     339.              ST    R13,VSSAVE          Save vs save area address
 000024 1821                        6186     340.              LR    SR,R1                 Copy exec parm pointer
 000026 5800 7036            0004C  6187     341.              L     R0,=A(ST_SPACE*1024)    Amount needed
 00002A 4510 7018/0A0A       0002E  6188     342.              GETMAIN R,LV=(0)                Request save stack memory
 000030 5010 6048            000A0  6192     343.              ST    R1,SAVEAREA                 Save pointer for release
 000034 18D1                        6193     344.              LR    R13,R1                        Set save stack pointer
 000036 5E10 703A            00050  6194     345.              AL    R1,=A(ST_SPACE*1024-ST_RESV-1)  Last address of stack
 00003A 5010 604C            000A4  6195     346.              ST    R1,SAVEAEND         Stack "full" ending address
-00003E 5890 703E/0D99       00054  6197     348.              ACALL VFRY_INI            Process initialization code
 000044 47F0 6C16            00C6E  6201     349.              B     MAINLOOP            Enter mainline code loop
 DROP   VFVERIFY,R7                 6202     350.              Drop  R7                  Release initial addressability
1VFRY     (VFRY21) (09:47) (22MAR04) ORVYL File System Verify                                                               Page   25
0Current Usings:  (DATASEG,R6) (IOINFO,R10) (IXRDSECT,R11) (NXRYFL,R12)
0Loc    Object Code    Addr1 Addr2  Stmt Lv Lineno    Source Statement           (Hibal 5, Asmedit 3.3)  HLASM R4.0  2004/03/22 09.47
+___    ______ ____    _____ _____  ____ __ ______    ______ _________
0                                   6210     352.     ¿þþþþþþþþþþþþþþþþþþþþþþþþþþþþþþþþþþþþþþþþþþþþþþþþþþþþþþþþþþþþþþþþþþþþþÜ
                                    6211     353.     Ÿ                                                                     Ÿ
                                    6212     354.     Ÿ  Define initialization literal pool and Global Data Section         Ÿ
                                    6213     355.     Ÿ                                                                     Ÿ
                                                      ¾þþþþþþþþþþþþþþþþþþþþþþþþþþþþþþþþþþþþþþþþþþþþþþþþþþþþþþþþþþþþþþþþþþþþþ»
-000048                             6215     357.              LTORG ,
 000048 00000058                    6217                             =A(DATASEG)
 00004C 00003000                    6218                             =A(ST_SPACE*1024)
 000050 00002EFF                    6219                             =A(ST_SPACE*1024-ST_RESV-1)
 000054 0000181C       003DE 02EB0  6220                             =A(VFRY_INI)
1VFRY     (VFRY21) (09:47) (22MAR04) ORVYL File System Verify                                                               Page   26
0Current Usings:  (DATASEG,R6) (IOINFO,R10) (IXRDSECT,R11) (NXRYFL,R12)
0Loc    Object Code    Addr1 Addr2  Stmt Lv Lineno    Source Statement           (Hibal 5, Asmedit 3.3)  HLASM R4.0  2004/03/22 09.47
+___    ______ ____    _____ _____  ____ __ ______    ______ _________
0                                   6225     359.     *
                                    6226     360.     *  INITIALIZATION ERROR EXIT ROUTINES
                                    6227     361.     *
-0003DE                             6229     363.     BTTIOERR LABEL ,
 0003DE 4110 65EC            00644  6231     364.              VWRITE 'VFRY (106): File system I/O error.'
 0003E2 4100 0022            00022  6236             +
 0003E6 5890 65A8/0D99       00600  6239             +
 0003EC 5890 65AC/0D99       00604  6243             +
 0003F2 9210 6053      000AB        6245     365.              SETCODE =16               Set return code
 0003F6 9102 6074      000CC        6247     366.              IF    DUMP,'ABEND 1003,DUMP'
 0003FA 47E0 63B6            0040E  6257             +
 0003FE 4110 03EB            003EB  6267  1          +
 000402 4100 0080            00080  6268  1          +
 000406 8900 0018/1610       00018  6269  1          +
 00040C 0A0D                        6271             +
 00040E 47F0 657E            005D6  6276     367.              B     RETURN              Pull the plug
0000412                             6278     369.     BTTCNTER LABEL ,
 000412 4110 662E            00686  6280     370.              VWRITE 'VFRY (108): Bit-Map block count is invalid.'
 000416 4100 002B            0002B  6285             +
 00041A 5890 65A8/0D99       00600  6288             +
 000420 5890 65AC/0D99       00604  6292             +
 000426 9210 6053      000AB        6294     371.              SETCODE =16               Set return code
 00042A 47F0 657E            005D6  6296     372.              B     RETURN              Exit with failure
000042E                             6298     374.     NOCATBSE LABEL ,
 00042E 4110 65B0            00608  6300     375.              VWRITE 'VFRY (109): Catalogue base block is invalid.'
 000432 4100 002C            0002C  6305             +
 000436 5890 65A8/0D99       00600  6308             +
 00043C 5890 65AC/0D99       00604  6312             +
 000442 9210 6053      000AB        6314     376.              SETCODE =16               Set return code
 000446 47F0 657E            005D6  6316     377.              B     RETURN              Exit with failure
000044A                             6318     379.     CATCNTER LABEL ,
 00044A 4110 6659            006B1  6320     380.              VWRITE 'VFRY (110): Catalogue block count is invalid.'
 00044E 4100 002D            0002D  6325             +
 000452 5890 65A8/0D99       00600  6328             +
 000458 5890 65AC/0D99       00604  6332             +
 00045E 9210 6053      000AB        6334     381.              SETCODE =16               Set return code
 000462 47F0 657E            005D6  6336     382.              B     RETURN              Exit with failure
1VFRY     (VFRY21) (09:47) (22MAR04) ORVYL File System Verify                                                               Page   27
0Current Usings:  (DATASEG,R6) (IOINFO,R10) (IXRDSECT,R11) (NXRYFL,R12)
0Loc    Object Code    Addr1 Addr2  Stmt Lv Lineno    Source Statement           (Hibal 5, Asmedit 3.3)  HLASM R4.0  2004/03/22 09.47
+___    ______ ____    _____ _____  ____ __ ______    ______ _________
0                                   6338     384.     ********************************************************************
                                    6339     385.     *                                                                  *
                                    6340     386.     *                  Scanner exit routines                           *
                                    6341     387.     *                                                                  *
                                    6342     388.     ********************************************************************
-000466                             6344     390.     SPFX     LABEL ,
 000466 47D0 64AE            00506  6346     391.              IF    NP,SINV             INVALID STRING
 00046A 5900 65DC            00634  6360     392.              IF    (R0,NE,2),SINV      INVALID LENGTH
 00046E 4770 64AE            00506  6374             +
 000472 D201 6160 1000 001B8 00000  6380     393.              MVC   VFOCNTL(2),@R1      SET CONTROL FILE PREFIX
 000478 D205 6162 660E 001BA 00666  6381     394.              MVC   VFOCNTL+2(6),=CL6'CNTRL'
 00047E D201 6168 1000 001C0 00000  6382     395.              MVC   VFOPFX(2),@R1       SET FILE SYSTEM PREFIX
 000484 D205 616A 6614 001C2 0066C  6383     396.              MVC   VFOPFX+2(6),=CL6'DSK'
 00048A D201 6054 1000 000AC 00000  6384     397.              MVC   VFRYPRT(2),@R1      SET PRINT FILE PREFIX
 000490 D205 6056 661A 000AE 00672  6385     398.              MVC   VFRYPRT+2(6),=CL6'VFPRT'
 000496 D201 605C 1000 000B4 00000  6386     399.              MVC   IXRDDN(2),@R1       SET IXRDUMP DDNAME PREFIX
 00049C D205 605E 6620 000B6 00678  6387     400.              MVC   IXRDDN+2(6),=CL6'IXRDMP'
 0004A2 D201 6064 1000 000BC 00000  6388     401.              MVC   FILDDN(2),@R1       SET CATALOG INPUT PREFIX
 0004A8 D205 6066 6626 000BE 0067E  6389     402.              MVC   FILDDN+2(6),=CL6'FILES'
 0004AE 07FE                        6390     403.              SCRTN (R15)               RETURN TO SCANNER
00004B0                             6397     405.     SPOW     LABEL ,                   Set power
 0004B0 47D0 64AE            00506  6399     406.              IF    NP,SINV             Invalid string
 0004B4 D203 6174 6104 001CC 0015C  6413     407.              MVC   VPOW,SCNVAL         Set power setting
 0004BA 07FE                        6414     408.              SCRTN (R15)               Return to scanner
00004BC                             6421     410.     SIXR     LABEL ,                   Set ixrdump option
 0004BC 9680 6074      000CC        6423     411.              SET   DMPIXRS
 0004C0 07FE                        6429     412.              SCRTN (R15)               Return to scanner
00004C2                             6436     414.     SINC     LABEL ,                   Set for .INCIXR name stem
 0004C2 9680 6075      000CD        6438     415.              SET   INC                 Set flag for incremental name
 0004C6 07FE                        6444     416.              SCRTN (R15)               Return to the scanner
 0004C8                             6450     417.     STAPE    LABEL ,                   Dump ixr's to disk
 0004C8 9620 6074      000CC        6452     418.              SET   IXTAPE              Set for ixrdump to tape
 0004CC 94BF 6074      000CC        6458     419.              CLEAR IXDISK              And clear IXRDUMP to disk
 0004D0 07FE                        6465     420.              SCRTN (R15)               Return to the scanner
00004D2                             6472     422.     SDISK    LABEL ,                   Dump ixr's to disk
 0004D2 9640 6074      000CC        6474     423.              SET   IXDISK              Set for ixrdump to disk
 0004D6 94DF 6074      000CC        6480     424.              CLEAR IXTAPE              And clear IXRDUMP to tape
 0004DA 07FE                        6487     425.              SCRTN (R15)               Return to the scanner
00004DC                             6494     427.     SCLM     LABEL ,                   Set reclaim lost blocks
 0004DC 9610 6074      000CC        6496     428.              SET   RECLAIM
 0004E0 07FE                        6502     429.              SCRTN (R15)               Return to scanner
00004E2                             6509     431.     SAUTO    LABEL ,                   Clear reclaim lost blocks
 0004E2 9604 6074      000CC        6511     432.              SET   AUTO                Set automatic fixup
 0004E6 07FE                        6517     433.              SCRTN (R15)               Return to scanner
00004E8                             6524     435.     SRBL     LABEL ,                   Set ignore existing bit-map
1VFRY     (VFRY21) (09:47) (22MAR04) ORVYL File System Verify                                                               Page   28
0Current Usings:  (DATASEG,R6) (IOINFO,R10) (IXRDSECT,R11) (NXRYFL,R12)
0Loc    Object Code    Addr1 Addr2  Stmt Lv Lineno    Source Statement           (Hibal 5, Asmedit 3.3)  HLASM R4.0  2004/03/22 09.47
+___    ______ ____    _____ _____  ____ __ ______    ______ _________
00004E8 9608 6074      000CC        6526     436.              SET   REBUILD
 0004EC 07FE                        6532     437.              SCRTN (R15)               Return to scanner
00004EE                             6539     439.     SFORCE   LABEL ,                   Force reconstruction of bit map
 0004EE 9640 6075      000CD        6541     440.              SET   FORCE               Set force flag
 0004F2 07FE                        6547     441.              SCRTN (R15)
00004F4 9602 6074      000CC        6554     443.     SDMP     SET   DUMP                Set for dumping ixr's to disk
 0004F8 07FE                        6561     444.              SCRTN (R15)
00004FA 9601 6074      000CC        6568     446.     SVRB     SET   VERBOSE
 0004FE 07FE                        6575     447.              SCRTN (R15)
0000500 9680 6150      001A8        6582     449.     SBCV     SET   VOPN_BCV            Utilize EMC BC volumes
 000504 07FE                        6589     450.              SCRTN (R15)
0000506                             6596     452.     SINV     LABEL ,                       Invalid string or parameter
                                    6598     453.   C          WTO   'VFRY (120): Invalid parameter string',
 000506 0700/4510 64E0       00538           454.                    ROUTCDE=13
 00050C 0028/8000                   6601             +
 000510 E5C6D9E8404DF1F2            6603             +
 000518 F05D7A40C995A581                             +
 000534 0000/0008/0A23              6604             +
 00053A 58D0 6044            0009C  6608     455.              L     R13,VSSAVE          Address of vs save area
 00053E 98EC D00C            0000C  6609     456.              LM    R14,R12,@R13+12       Restore calling registers
 000542 41F0 0018            00018  6610     457.              LA    R15,24                  Set return code
 000546 07FE                        6611     458.              BR    R14                       And return
1VFRY     (VFRY21) (09:47) (22MAR04) ORVYL File System Verify                                                               Page   29
0Current Usings:  (DATASEG,R6) (IOINFO,R10) (IXRDSECT,R11) (NXRYFL,R12)
0Loc    Object Code    Addr1 Addr2  Stmt Lv Lineno    Source Statement           (Hibal 5, Asmedit 3.3)  HLASM R4.0  2004/03/22 09.47
+___    ______ ____    _____ _____  ____ __ ______    ______ _________
0                                   6613     460.     ¿þþþþþþþþþþþþþþþþþþþþþþþþþþþþþþþþþþþþþþþþþþþþþþþþþþþþþþþþþþþþþþþþþþþþþÜ
                                    6614     461.     Ÿ                                                                     Ÿ
                                    6615     462.     Ÿ  Standard error exit routines for VERIFY                            Ÿ
                                    6616     463.     Ÿ                                                                     Ÿ
                                                      ¾þþþþþþþþþþþþþþþþþþþþþþþþþþþþþþþþþþþþþþþþþþþþþþþþþþþþþþþþþþþþþþþþþþþþþ»
0000548                             6618     465.     NOMEM    LABEL ,                   Insufficient memory error
 000548 4110 6686            006DE  6620     466.              VWRITE 'VFRY (101): Insufficient memory allocated'
 00054C 4100 0029            00029  6625             +
 000550 5890 65A8/0D99       00600  6628             +
 000556 5890 65AC/0D99       00604  6632             +
 00055C 9210 6053      000AB        6634     467.              SETCODE =16               Set return code
 000560 47F0 657E            005D6  6636     468.              B     RETURN              And return with failure
-                                   6638     470.     ¿þþþþþþþþþþþþþþþþþþþþþþþþþþþþþþþþþþþþþþþþþþþþþþþþþþþþþþþþþþþþþþþþþþþþþÜ
                                    6639     471.     Ÿ                                                                     Ÿ
                                    6640     472.     Ÿ  VFIOBAD -- received bad return code from VFIO                      Ÿ
                                    6641     473.     Ÿ                                                                     Ÿ
                                    6642     474.     Ÿ        Assumes: Addressability via R10 to the IOAREA VFRD           Ÿ
                                    6643     475.     Ÿ                 parmater area                                       Ÿ
                                    6644     476.     Ÿ                                                                     Ÿ
                                                      ¾þþþþþþþþþþþþþþþþþþþþþþþþþþþþþþþþþþþþþþþþþþþþþþþþþþþþþþþþþþþþþþþþþþþþþ»
0000564                             6646     478.     VFIOBAD  LABEL ,                   Bad return code from vfio
 000564 5890 65E0/0D99       00638  6648     479.              ACALL VFIOBAD2            Format and print error message
 00056A 47F0 657E            005D6  6652     480.              B     RETURN              Clean up & return
-                                   6654     482.     ¿þþþþþþþþþþþþþþþþþþþþþþþþþþþþþþþþþþþþþþþþþþþþþþþþþþþþþþþþþþþþþþþþþþþþþÜ
                                    6655     483.     Ÿ                                                                     Ÿ
                                    6656     484.     Ÿ  Abort verify run due to internal logic error                       Ÿ
                                    6657     485.     Ÿ                                                                     Ÿ
                                                      ¾þþþþþþþþþþþþþþþþþþþþþþþþþþþþþþþþþþþþþþþþþþþþþþþþþþþþþþþþþþþþþþþþþþþþþ»
000056E                             6659     487.     ABORT    LABEL ,                   Very bad news indeed
 00056E 4110 6588            005E0  6661     488.              VSEG  'VFRY (999): Internal logic error'
 000572 4100 0020            00020  6665             +
 000576 5890 65A8/0D99       00600  6668             +
 00057C 5890 65AC/0D99       00604  6670     489.              VWRITE ,                  write to report file
 000582 4110 03EA            003EA  6675     490.              ABEND 1002,DUMP           Pull the plug
 000586 4100 0080            00080  6680             +
 00058A 8900 0018/1610       00018  6681             +
 000590 0A0D                        6683             +
1VFRY     (VFRY21) (09:47) (22MAR04) ORVYL File System Verify                                                               Page   30
0Current Usings:  (DATASEG,R6) (IOINFO,R10) (IXRDSECT,R11) (NXRYFL,R12)
0Loc    Object Code    Addr1 Addr2  Stmt Lv Lineno    Source Statement           (Hibal 5, Asmedit 3.3)  HLASM R4.0  2004/03/22 09.47
+___    ______ ____    _____ _____  ____ __ ______    ______ _________
0                                   6686     493.     ¿þþþþþþþþþþþþþþþþþþþþþþþþþþþþþþþþþþþþþþþþþþþþþþþþþþþþþþþþþþþþþþþþþþþþþÜ
                                    6687     494.     Ÿ                                                                     Ÿ
                                    6688     495.     Ÿ  SET MAXIMUM RETURN CODE                                            Ÿ
                                    6689     496.     Ÿ                                                                     Ÿ
                                                      ¾þþþþþþþþþþþþþþþþþþþþþþþþþþþþþþþþþþþþþþþþþþþþþþþþþþþþþþþþþþþþþþþþþþþþþ»
0000592                             6691     498.     SETCODE  LABEL ,
 000592 59F0 6050            000A8  6693     499.              C     R15,RETCODE         COMPARE CURRENT RETURN CODE
 000596 47D0 6546            0059E  6694     500.              IF    GT,'ST R15,RETCODE' SET HIGHTER RETURN CODE
 00059A 50F0 6050            000A8  6706             +
 00059E 07F9                        6711     501.              BR    RAR                 RETURN TO CALLER
-
0                                   6713     503.     ¿þþþþþþþþþþþþþþþþþþþþþþþþþþþþþþþþþþþþþþþþþþþþþþþþþþþþþþþþþþþþþþþþþþþþþÜ
                                    6714     504.     Ÿ                                                                     Ÿ
                                    6715     505.     Ÿ  Read/Write a block from the bit map                                Ÿ
                                    6716     506.     Ÿ                                                                     Ÿ
                                                      ¾þþþþþþþþþþþþþþþþþþþþþþþþþþþþþþþþþþþþþþþþþþþþþþþþþþþþþþþþþþþþþþþþþþþþþ»
-0005A0                             6718     508.     BTTIO    LABEL ,                   Read bit-map block from system
 0005A0 5090 D000            00000  6720     509.              VPUSH RAR,,*              Save return register
 0005A4 41D0 D004            00004  6722             +
 0005A8 181A                        6723     510.              LR    R1,R10              Copy ioarea address
 0005AA                             6724     511.              CLEAR MAINECB             Zero ecb for posting
 0005AA D703 6178 6178 001D0 001D0  6730             +
 0005B0 5890 65E4/0D99       0063C  6731     512.              VCALL VFIO                Initiate I/O request
 0005B6 4770 6386            003DE  6735     513.              IF    NZ,BTTIOERR         Whoops, can't have this
 0005BA 4100 0001            00001  6749     514.              WAIT  ECB=MAINECB         Wait for I/O to complete
 0005BE 4110 6178/0A01       001D0  6754             +
 0005C4 957F 6178      001D0        6756     515.              IF    (MAINECB,NE,X'7F'),BTTIOERR   Check for I/O error
 0005C8 4770 6386            003DE  6770             +
 0005CC 4BD0 662C            00684  6776     516.              VPOP  RAR,,*              Restore return register
 0005D0 5890 D000            00000  6778             +
 0005D4 07F9                        6779     517.              BR    RAR                 And return to caller
-
                                    6781     519.     ¿þþþþþþþþþþþþþþþþþþþþþþþþþþþþþþþþþþþþþþþþþþþþþþþþþþþþþþþþþþþþþþþþþþþþþÜ
                                    6782     520.     Ÿ                                                                     Ÿ
                                    6783     521.     Ÿ  Exit code cleanup and return to system                             Ÿ
                                    6784     522.     Ÿ                                                                     Ÿ
                                                      ¾þþþþþþþþþþþþþþþþþþþþþþþþþþþþþþþþþþþþþþþþþþþþþþþþþþþþþþþþþþþþþþþþþþþþþ»
-0005D6                             6786     524.     RETURN   LABEL ,
 0005D6 5890 65E8/0D99       00640  6788     525.              ACALL VFRY_CLS            Perform closing functions
1VFRY     (VFRY21) (09:47) (22MAR04) ORVYL File System Verify                                                               Page   31
0Current Usings:  (DATASEG,R6) (IOINFO,R10) (IXRDSECT,R11) (NXRYFL,R12)
0Loc    Object Code    Addr1 Addr2  Stmt Lv Lineno    Source Statement           (Hibal 5, Asmedit 3.3)  HLASM R4.0  2004/03/22 09.47
+___    ______ ____    _____ _____  ____ __ ______    ______ _________
0                                   6793     527.     ¿þþþþþþþþþþþþþþþþþþþþþþþþþþþþþþþþþþþþþþþþþþþþþþþþþþþþþþþþþþþþþþþþþþþþþÜ
                                    6794     528.     Ÿ                                                                     Ÿ
                                    6795     529.     Ÿ  DEFINE COMMON CODE LITERAL POOL                                    Ÿ
                                    6796     530.     Ÿ                                                                     Ÿ
                                                      ¾þþþþþþþþþþþþþþþþþþþþþþþþþþþþþþþþþþþþþþþþþþþþþþþþþþþþþþþþþþþþþþþþþþþþþ»
-0005E0                             6798     532.              LTORG ,
 0005E0 E5C6D9E8404DF9F9            6800                             =C'VFRY (999): Internal logic error'
 000600 00000000                    6801                             =V(VSEG)
 000604 00000000                    6802                             =V(VWRITE)
 000608 E5C6D9E8404DF1F0            6803                             =C'VFRY (109): Catalogue base block is invalid.'
 000634 00000002                    6804                             =A(2)
 000638 000010B4                    6805                             =A(VFIOBAD2)
 00063C 00000000                    6806                             =V(VFIO)
 000640 000024B2                    6807                             =A(VFRY_CLS)
 000644 E5C6D9E8404DF1F0            6808                             =C'VFRY (106): File system I/O error.'
 000666 C3D5E3D9D340                6809                             =CL6'CNTRL'
 00066C C4E2D2404040                6810                             =CL6'DSK'
 000672 E5C6D7D9E340                6811                             =CL6'VFPRT'
 000678 C9E7D9C4D4D7                6812                             =CL6'IXRDMP'
 00067E C6C9D3C5E240                6813                             =CL6'FILES'
 000684 0004                        6814                             =Y(4)
 000686 E5C6D9E8404DF1F0            6815                             =C'VFRY (108): Bit-Map block count is invalid.'
 0006B1 E5C6D9E8404DF1F1            6816                             =C'VFRY (110): Catalogue block count is invalid.'
 0006DE E5C6D9E8404DF1F0            6817                             =C'VFRY (101): Insufficient memory allocated'
1VFRY     (VFRY21) (09:47) (22MAR04) ORVYL File System Verify                                                               Page   32
0Current Usings:  (DATASEG,R6) (IOINFO,R10) (IXRDSECT,R11) (NXRYFL,R12)
0Loc    Object Code    Addr1 Addr2  Stmt Lv Lineno    Source Statement           (Hibal 5, Asmedit 3.3)  HLASM R4.0  2004/03/22 09.47
+___    ______ ____    _____ _____  ____ __ ______    ______ _________
0                                   6822     534.     ****************************************************************** *
                                    6823     535.     *                                                                  *
                                    6824     536.     *  ADDERR ROUTINE
                                    6825     537.     *                                                                  *
                                    6826     538.     ****************************************************************** *
0000708                             6828     540.     ADDERR   LABEL ,
 000708 9130 6076/0789 000CE        6830     541.              IF    (FRSTPASS+OTHER,Z),RAR  JUST RETURN ON NULL ACTION
 00070E 9029 D000            00000  6853     542.              VPUSH SR,RAR,*            Save registers
 000712 41D0 D020            00020  6855             +
 USING  SERRLST,R2                  6856     543.              USING SERRLST,SR          ## entry error list
 000716 41F0 0008            00008  6865     544.              SETCODE 8                 Set return code
 00071A 4D90 653A            00592  6868             +
 00071E 4110 0001            00001  6869     545.              INCR  R1,NERRS            Bump error count
 000722 5E10 6190            001E8  6873             +
 000726 5010 6190            001E8  6874             +
 00072A 5830 6144/1233       0019C  6875     546.              LT    TR,ERRSTRT          Get current error block
 000730 4770 66E0            00738  6879     547.              IF    Z,'LCALL ADDMEM'    Doesn't exist -- create it
 000734 4D90 6782            007DA  6892             +
 USING  SERRBLK,R3                  6897     548.              WITH  (SERRBLK,TR),BEGIN  ERROR BLOCK ADDRESSABILITY
 000738 5820 3004            00004  6911  1  549.                L     SR,SERRENT          Current offset
 00073C 4110 2050            00050  6912  1  550.                LA    R1,L'SERRLST(,SR)   New offset
 000740 5910 6B60            00BB8  6913  1  551.                IF    (R1,GT,SERRMAX),BEGIN   NOT ENOUGH ROOM - GET ANNOTHER
 000744 47D0 66F8            00750  6925  1          +
 000748 4D90 6782            007DA  6930  2  552.                  LCALL ADDMEM              Get annother page
 00074C 4110 2050            00050  6932  2  553.                  LA    R1,L'SERRLST(,SR)   Reset next offset
 000750                             6933  1  554.                END   ,
 000750 1E23                        6937  1  555.                ALR   SR,TR               Create new address
 000752 5010 3004            00004  6938  1  556.                ST    R1,SERRENT          Save next offset value
 DROP   SERRBLK,R3                  6939     557.              END   ,                   RELEASE ERROR BLOCK
0000756                             6948     559.              CLEAR SERRLST             CLEAR ERROR ENTRY
 000756 D74F 2000 2000 00000 00000  6954             +
 00075C D23B 2014 A0B8 00014 000B8  6955     560.              MVC   SERRINFO,BITNO      MOVE IN DATA
 000762 9110 6076      000CE        6956     561.              IF    OTHER,'SET SERR7'   SECOND PASS CRAP
 000766 47E0 6716            0076E  6966             +
 00076A 9620 2010      00010        6977             +
 00076E 1832                        6982     562.              LR    TR,SR               Save address for later
0000770 5820 6148/1222       001A0  6984     564.              LT    SR,ERRANCHR         Set anchor address
 000776 4770 6726            0077E  6988     565.              IF    Z,'ST TR,ERRANCHR'  First entry - set anchor
 00077A 5030 6148            001A0  7000             +
 00077E 672A           0077E 00778  7005     566.              ELSE  BEGIN               Chain through tree now
 00077E 47F0 676E            007C6  7010             +
 000782                             7016  1  567.                LOOP  BEGIN               Chain till zero entry ptr fnd
 000782 D53B 2014 3014 00014 00014  7022  2  568.                  CLC   SERRINFO,@TR+SERRINFO-SERRLST   COMPARE KEYS
 000788 4780 6516            0056E  7023  2  569.                  IF    E,ABORT             SHOULDN'T HAPPEN
 00078C 47D0 674C            007A4  7037  2  570.                  IF    H,BEGIN             OFF THE LOW SIDE
 000790 4100 0001            00001  7048  3  571.                    INCR  R0,SERRLCNT         COUNT NODES TO THE LOW
 000794 5E00 2008            00008  7052  3          +
 000798 5000 2008            00008  7053  3          +
 00079C 4110 2000            00000  7054  3  572.                    LA    R1,SERRLO           CHAIN ADDRESS IF ZERO
 0007A0 5820 2000            00000  7055  3  573.                    L     SR,SERRLO           RESET FOR THE LOW SIDE
 0007A4 6750           007A4 0078E  7056  2  574.                  END   ELSE,BEGIN          IT'S ON THE HIGH SIDE
1VFRY     (VFRY21) (09:47) (22MAR04) ORVYL File System Verify                                                               Page   33
0Current Usings:  (SERRLST,R2) (DATASEG,R6) (IOINFO,R10) (IXRDSECT,R11) (NXRYFL,R12)
0Loc    Object Code    Addr1 Addr2  Stmt Lv Lineno    Source Statement           (Hibal 5, Asmedit 3.3)  HLASM R4.0  2004/03/22 09.47
+___    ______ ____    _____ _____  ____ __ ______    ______ _________
00007A4 47F0 6764            007BC  7065  2          +
 0007A8 4100 0001            00001  7071  3  575.                    INCR  R0,SERRHCNT         COUNT HODES TO THE HIGH
 0007AC 5E00 200C            0000C  7075  3          +
 0007B0 5000 200C            0000C  7076  3          +
 0007B4 4110 2004            00004  7077  3  576.                    LA    R1,SERRHI           CHAIN ADDRESS IF ZERO
 0007B8 5820 2004            00004  7078  3  577.                    L     SR,SERRHI           RESET FOR THE HIGH SIDE
 0007BC                             7079  2  578.                  END   ,
 0007BC 1222/4770 672A       00782  7083  1  579.                UNTIL (SR,Z),END          CONTINUE TREE TRAVERSAL
 0007C2 5030 1000            00000  7105  1  580.                ST    TR,@R1              PLACE IN PROPER TREE LOCATION
 0007C6                             7106     581.              END   ,
 0007C6 4110 6148            001A0  7110     582.              LA    R1,ERRANCHR         ADDRESS OF ANCHOR CELL
 0007CA 5890 6B64/0D99       00BBC  7111     583.              ACALL BALANCE             BALANCE ERROR TREE
 0007D0 4BD0 6BAC            00C04  7115     584.              VPOP  SR,RAR,*            RESTORE REGISTERS
 0007D4 9829 D000            00000  7117             +
 0007D8 07F9                        7118     585.              BR    RAR                 AND RETURN TO CALLER
1VFRY     (VFRY21) (09:47) (22MAR04) ORVYL File System Verify                                                               Page   34
0Current Usings:  (SERRLST,R2) (DATASEG,R6) (IOINFO,R10) (IXRDSECT,R11) (NXRYFL,R12)
0Loc    Object Code    Addr1 Addr2  Stmt Lv Lineno    Source Statement           (Hibal 5, Asmedit 3.3)  HLASM R4.0  2004/03/22 09.47
+___    ______ ____    _____ _____  ____ __ ______    ______ _________
0                                   7120     587.     ********************************************************************
                                    7121     588.     *                                                                  *
                                    7122     589.     *  ACQUIRE ADDITION MEMORY FOR MORE ERROR BLOCKS                   *
                                    7123     590.     *                                                                  *
                                    7124     591.     ********************************************************************
-0007DA                             7126     593.     ADDMEM   LABEL ,                   REQUEST AN ADDITION ERROR BLOCK
 0007DA 9101 6074      000CC        7128     594.              IF    VERBOSE,BEGIN       INFORM USER IF IN VERBOSE
 0007DE 47E0 67A2            007FA  7138             +
 0007E2 1839                        7143  1  595.                LR    TR,RAR              Save return address
 0007E4 4110 6BAE            00C06  7144  1  596.                VSEG  'VFRY (031): Requesting 4K for error table.'
 0007E8 4100 002A            0002A  7148  1          +
 0007EC 5890 6B68/0D99       00BC0  7151  1          +
 0007F2 5890 6B6C/0D99       00BC4  7153  1  597.                VWRITE ,                  Write to report file
 0007F8 1893                        7158  1  598.                LR    RAR,TR              Restore return address
 0007FA                             7159     599.              END   ,
 USING  SERRBLK,R3                  7163     600.              USING SERRBLK,TR          ## addr
 0007FA 5800 6B70            00BC8  7172     601.              L     R0,=A(4096)         Amount needed
 0007FE 4130 6144            0019C  7173     602.              LA    TR,ERRSTRT          Receiving address of core
 000802 5820 6144            0019C  7174     603.              L     SR,ERRSTRT          Save previous block address
 000806 4110 637C            003D4  7175     604.              GETMAIN EC,LV=(0),A=(TR),BNDRY=PAGE,MF=(E,GETLST)
 00080A 5000 1000            00000  7179             +
 00080E 9230 1008      00008        7180             +
 000812 5031 0004/0A04       00004  7181             +
 000818 12FF/4770 64F0       00548  7183     605.              IF    (R15,NZ),NOMEM      Insufficient memory abort
 00081E 5830 6144            0019C  7200     606.              L     TR,ERRSTRT          Set current error block addr
 000822 5020 3000            00000  7201     607.              ST    SR,SERRNXT          Chain block in front
 000826 4120 0008            00008  7202     608.              LA    SR,8                Set current offset for block
 00082A 5020 3004            00004  7203     609.              ST    SR,SERRENT          Save offset in current block
 00082E 07F9                        7204     610.              BR    RAR                 And return
0DROP   SERRLST,R2                  7206     612.              DROP  SR,TR               ## rlse addr
 DROP   SERRBLK,R3
1VFRY     (VFRY21) (09:47) (22MAR04) ORVYL File System Verify                                                               Page   35
0Current Usings:  (DATASEG,R6) (IOINFO,R10) (IXRDSECT,R11) (NXRYFL,R12)
0Loc    Object Code    Addr1 Addr2  Stmt Lv Lineno    Source Statement           (Hibal 5, Asmedit 3.3)  HLASM R4.0  2004/03/22 09.47
+___    ______ ____    _____ _____  ____ __ ______    ______ _________
0                                   7220     614.     ********************************************************************
                                    7221     615.     *                                                                  *
                                    7222     616.     *  GETFDE routine                                                  *
                                    7223     617.     *                                                                  *
                                    7224     618.     *  Get a file directory entry.  File information is passed via     *
                                    7225     619.     *  variabes in the data area.                                      *
                                    7226     620.     *                                                                  *
                                    7227     621.     ********************************************************************
-000830                             7229     623.     GETFDE   LABEL ,                   Get next file entry
 000830 5090 D000            00000  7231     624.              VPUSH RAR,,*              Save registers
 000834 41D0 D004            00004  7233             +
 000838                             7234     625.              LOOP  BEGIN               Search for file entry
 000838                             7240  1  626.                LOOP  BEGIN               Skip until file entry found
 000838 58F0 6124            0017C  7246  2  627.                  L     R15,FDBAREA         Catalog work area address
 00083C 41C0 F004            00004  7247  2  628.                  LA    R12,@R15+4          skip rdw
 000840 4110 6314/180F       0036C  7248  2  629.                  GET   FILS,(R15)          get catalog entry
 000846 1FFF/BFF7 1031       00031  7252  2          +
 00084C 05EF                        7254  2          +
 00084E 1F11/BF13 C000       00000  7255  2  630.                  L2    R1,NXFBYTS          Entry length
 000854 4010 61A8            00200  7263  2  631.                  STH   R1,ENLN             Save entry length for error
 000858 95FF C008      00008        7264  2  632.                  CLI   NXFCODE,X'FF'       X'FF'  means account fd entry
 00085C 4770 682A            00882  7265  2  633.                  IF    NE,EXIT             Process account entry
 DROP   NXRYFL,R12                  7279  2  634.                  WITH  (NXRYGR,R12),BEGIN  Addressability to account entry
 USING  NXRYGR,R12
 000860 9120 6076      000CE        7296  3  635.                    IF    FRSTPASS,'INCR  R0,NUMACCTS'  Count number of accounts
 000864 47E0 681C            00874  7306  3          +
 000868 4100 0001            00001  7315  4          +
 00086C 5E00 618C            001E4  7316  4          +
 000870 5000 618C            001E4  7317  3          +
 000874 D205 A0BC C002 000BC 00002  7322  3  636.                    MVC   FILENAME(6),NXGNAME Set GG.UUU in filename
 00087A 924B A0C2      000C2        7323  3  637.                    MVI   FILENAME+6,C'.'     And the dot
 DROP   NXRYGR,R12                  7324  2  638.                  END   ,                   Release account entry
 USING  NXRYFL,R12
 00087E 47F0 67E0            00838  7339  1  639.                END   ,
0000882 D202 6199 C002 001F1 00002  7345  1  641.                MVC   BLKNO+1(3),NXFLOC   Save mixr,sixr pointer
 000888 D203 A0B8 6198 000B8 001F0  7346  1  642.                MVC   BITNO,BLKNO         Copy for adderr routine
 00088E 1B11                        7347  1  643.                CLEAR R1                  Zero reg 1
 000890 5010 A0E4            000E4  7351  1  644.                ST    R1,RELBLK           Relative blk number
 000894 D202 A0F5 C005 000F5 00005  7352  1  645.                MVC   NIXRCNT+1(3),NXFCNT --for non-ixr files--
 00089A 4310 C017            00017  7353  1  646.                IC    R1,NXFLNMSZ         File name size
 00089E 9240 A0C3      000C3        7354  1  647.                MVI   FILENAME+7,C' '     Blank fill the rest
 0008A2 D21F A0C4 A0C3 000C4 000C3  7355  1  648.                MVC   FILENAME+8(32),FILENAME+7     BLANK FILE NAME
 0008A8 5910 6B74            00BCC  7356  1  649.                IF    (R1,GT,32),'BAL R15,ABORT'
 0008AC 47D0 685C            008B4  7368  1          +
 0008B0 45F0 6516            0056E  7374  1          +
 0008B4 4410 6C10            00C68  7379  1  650.                EX    R1,'MVC FILENAME+7(0),NXFLNAME'  MOVE FILE NAME
 000C68 D200 A0C3 C018 000C3 00018  7387  1          +
 0008B8 D203 A0E8 6B78 000E8 00BD0  7395  1  651.                MVC   TYPE,=C'DIR.'       Set error location
 0008BE D203 60FB C013 00153 00013  7396  1  652.                MVC   UINFO,NXFUINFO      User info for IXRDUMP
 0008C4 D201 60FF C009 00157 00009  7397  1  653.                MVC   UMASK(2),NXFFLGP    Public permit and Filemask
 0008CA 9120 6076      000CE        7398  1  654.                IF    FRSTPASS,'INCR  R1,FILECNT'   Increment file count
1VFRY     (VFRY21) (09:47) (22MAR04) ORVYL File System Verify                                                               Page   36
0Current Usings:  (DATASEG,R6) (IOINFO,R10) (IXRDSECT,R11) (NXRYFL,R12)
0Loc    Object Code    Addr1 Addr2  Stmt Lv Lineno    Source Statement           (Hibal 5, Asmedit 3.3)  HLASM R4.0  2004/03/22 09.47
+___    ______ ____    _____ _____  ____ __ ______    ______ _________
00008CE 47E0 6886            008DE  7408  1          +
 0008D2 4110 0001            00001  7417  2          +
 0008D6 5E10 6188            001E0  7418  2          +
 0008DA 5010 6188            001E0  7419  1          +
 0008DE 5830 6198            001F0  7424  1  655.                L     TR,BLKNO            MIXR, SIXR, BIT NUMBER
 0008E2 1233/47D0 6898       008F0  7425  1  656.                IF    ((TR,NP),OR,(TR,GE,MAXNO)),BEGIN   INVALID ENTRY FOUND
 0008E8 5930 617C            001D4  7449  1          +
 0008EC 4750 689C            008F4  7450  1          +
 0008F0 4D90 66B0            00708  7455  2  657.                  LCALL ADDERR              Add error to err list
                                    7457  2  658.     *         END   ELSE,GFEXIT         Return with file entry
 0008F4                             7458  1  659.                END   ,
 0008F4 68A0           008F4 008EE  7462  1  660.                ELSE  BEGIN
 0008F4 47F0 68B0            00908  7467  1          +
 0008F8 5930 6180            001D8  7473  2  661.                  IF    (TR,GT,MAXUSE),'ST TR,MAXUSE' Set max in use
 0008FC 47D0 68AC            00904  7485  2          +
 000900 5030 6180            001D8  7491  2          +
 000904 47F0 68B4            0090C  7496  2  662.                  B     GFEXIT              Return with file entry
 000908                             7497  1  663.                END   ,
 000908 47F0 67E0            00838  7501     664.              END   ,
-00090C 4BD0 6BD8            00C30  7507     666.     GFEXIT   VPOP  RAR,,*              Restore return address
 000910 5890 D000            00000  7509             +
 000914 12CC                        7510     667.              LTR   R12,R12             Set condition code
 000916 07F9                        7511     668.              BR    RAR                 Return to caller
0000918                             7513     670.     FILEND   LABEL ,                   End of file exit for catalogue
 000918 1BCC                        7515     671.              CLEAR R12                 Zero return code
 00091A 47F0 68B4            0090C  7519     672.              B     GFEXIT              Return to caller with code set
1VFRY     (VFRY21) (09:47) (22MAR04) ORVYL File System Verify                                                               Page   37
0Current Usings:  (DATASEG,R6) (IOINFO,R10) (IXRDSECT,R11) (NXRYFL,R12)
0Loc    Object Code    Addr1 Addr2  Stmt Lv Lineno    Source Statement           (Hibal 5, Asmedit 3.3)  HLASM R4.0  2004/03/22 09.47
+___    ______ ____    _____ _____  ____ __ ______    ______ _________
0                                   7521     674.     ¿þþþþþþþþþþþþþþþþþþþþþþþþþþþþþþþþþþþþþþþþþþþþþþþþþþþþþþþþþþþþþþþþþþþþþÜ
                                    7522     675.     Ÿ                                                                     Ÿ
                                    7523     676.     Ÿ  NONIXR ROUTINE                                                     Ÿ
                                    7524     677.     Ÿ                                                                     Ÿ
                                    7525     678.     Ÿ  THIS ROUTINE PROCESSES NON-IXR FILES.  IT CHECKS THE BIT MAP       Ÿ
                                    7526     679.     Ÿ  STARTING AT "NXFLOC", FOR A TOTAL OF "NXFCNT" BLOCKS               Ÿ
                                    7527     680.     Ÿ                                                                     Ÿ
                                                      ¾þþþþþþþþþþþþþþþþþþþþþþþþþþþþþþþþþþþþþþþþþþþþþþþþþþþþþþþþþþþþþþþþþþþþþ»
-00091E                             7529     682.     NONIXR   LABEL ,                   Check non-ixr'd file
 00091E 9029 D000            00000  7531     683.              VPUSH SR,RAR,*            Save calling registers
 000922 41D0 D020            00020  7533             +
 000926 41B0 A800            00800  7534     684.              LA    R11,IOIXR           IXR addr
 00092A 4100 0001            00001  7535     685.              INCR  R0,NIXRFLS          Count non-ixr'd files
 00092E 5E00 61A0            001F8  7539             +
 000932 5000 61A0            001F8  7540             +
 000936 D203 A0E8 6B7C 000E8 00BD4  7541     686.              MVC   TYPE,=C'*NIX'       Set proper error location
 00093C 9120 6076      000CE        7542     687.              IF    (FRSTPASS,AND,DMPIXRS),BEGIN  WRITE TO IXRDUMP
 000940 47E0 694E            009A6  7554             +
 000944 9180 6074      000CC        7565             +
 000948 47E0 694E            009A6  7566             +
 00094C 180B                        7571  1  688.                LR    R0,R11              Clear IXR slot
 00094E 4110 0800            00800  7572  1  689.                LA    R1,L'IXR            Length of IXR
 000952 1BFF                        7573  1  690.                CLEAR R15                 Zero from length
 000954 0E0E                        7577  1  691.                MVCL  R0,R14              Zero IXR area
 000956 92F0 B000      00000        7578  1  692.                MVI   IXRSTATE,X'F0'      Show nonixr for sres - hokey
 00095A D227 A7C8 A0BC 007C8 000BC  7579  1  693.                MVC   MYFILE,FILENAME     Set orvyl filename
 000960 D203 A7F0 6B80 007F0 00BD8  7580  1  694.                MVC   MYFILE+40(4),=CL4' '    blank out remainder
 000966 D205 A83E 60FB 0083E 00153  7581  1  695.                MVC   USERINFO(6),UINFO   FORMAT AND FILEMASK
 00096C D202 B001 6199 00001 001F1  7582  1  696.                MVC   IXRECNO,BLKNO+1     START BLOCK
 000972 D203 B030 A0F4 00030 000F4  7583  1  697.                MVC   IXRNRCS,NIXRCNT     NUMBER OF BLOCKS
 000978                             7584  1  698.                CLEAR MYREL               not used for non-ixr
 000978 D703 A7F4 A7F4 007F4 007F4  7590  1          +
 00097E                             7591  1  699.                CLEAR MAINHDR
 00097E D703 A7F8 A7F8 007F8 007F8  7597  1          +
 000984                             7598  1  700.                CLEAR MAINSZ
 000984 D701 A7FE A7FE 007FE 007FE  7604  1          +
 00098A 4110 62B4            0030C  7605  1  701.                PUT   IXRDCB,MYHDR        Write IXR block to tape
 00098E 4100 A7C8/1FFF       007C8  7608  1          +
 000994 BFF7 1031/05EF       00031  7610  1          +
 00099A 4110 0001            00001  7612  1  702.                INCR  R1,IXRSOUT          Count it
 00099E 5E10 6194            001EC  7616  1          +
 0009A2 5010 6194            001EC  7617  1          +
 0009A6                             7618     703.              END   ,                   Of write to ixrdump
 0009A6                             7622     704.              WHILE (RELBLK,LT,NIXRCNT),BEGIN        CHECK ALL BITS OUT
 0009A6 D503 A0E4 A0F4 000E4 000F4  7636             +
 0009AC 47B0 697A            009D2  7637             +
 0009B0 5890 6B84/0D99       00BDC  7642  1  705.                ACALL CHECKBIT            Test for valid bit-on
 0009B6 4110 0001            00001  7646  1  706.                INCR  R1,BITNO            Bump orvyl block number
 0009BA 5E10 A0B8            000B8  7650  1          +
 0009BE 5010 A0B8            000B8  7651  1          +
 0009C2 4110 0001            00001  7652  1  707.                INCR  R1,RELBLK           Bump relative block
 0009C6 5E10 A0E4            000E4  7656  1          +
1VFRY     (VFRY21) (09:47) (22MAR04) ORVYL File System Verify                                                               Page   38
0Current Usings:  (DATASEG,R6) (IOINFO,R10) (IXRDSECT,R11) (NXRYFL,R12)
0Loc    Object Code    Addr1 Addr2  Stmt Lv Lineno    Source Statement           (Hibal 5, Asmedit 3.3)  HLASM R4.0  2004/03/22 09.47
+___    ______ ____    _____ _____  ____ __ ______    ______ _________
00009CA 5010 A0E4            000E4  7657  1          +
 0009CE 47F0 694E            009A6  7658     708.              END   ,
 0009D2 4BD0 6BAC            00C04  7663     709.              VPOP  SR,RAR,*            Restore calling registers
 0009D6 9829 D000            00000  7665             +
 0009DA 07F9                        7666     710.              BR    RAR                 And return
1VFRY     (VFRY21) (09:47) (22MAR04) ORVYL File System Verify                                                               Page   39
0Current Usings:  (DATASEG,R6) (IOINFO,R10) (IXRDSECT,R11) (NXRYFL,R12)
0Loc    Object Code    Addr1 Addr2  Stmt Lv Lineno    Source Statement           (Hibal 5, Asmedit 3.3)  HLASM R4.0  2004/03/22 09.47
+___    ______ ____    _____ _____  ____ __ ______    ______ _________
0                                   7668     712.     ¿þþþþþþþþþþþþþþþþþþþþþþþþþþþþþþþþþþþþþþþþþþþþþþþþþþþþþþþþþþþþþþþþþþþþþÜ
                                    7669     713.     Ÿ                                                                     Ÿ
                                    7670     714.     Ÿ  HYBRID ROUTINE                                                     Ÿ
                                    7671     715.     Ÿ                                                                     Ÿ
                                    7672     716.     Ÿ  PROCESS A NORMAL ORVYL HYBRID FILE.  CHECK EACH ALLOCATED          Ÿ
                                    7673     717.     Ÿ  BLOCK AGAINST THE BIT-MAP.                                         Ÿ
                                    7674     718.     Ÿ                                                                     Ÿ
                                                      ¾þþþþþþþþþþþþþþþþþþþþþþþþþþþþþþþþþþþþþþþþþþþþþþþþþþþþþþþþþþþþþþþþþþþþþ»
-0009DC                             7676     720.     HYBRID   LABEL ,                   Process orvyl file entry
 0009DC 9029 D000            00000  7678     721.              VPUSH SR,RAR,*            Save registers on stack
 0009E0 41D0 D020            00020  7680             +
 0009E4 4100 0001            00001  7681     722.              INCR  R0,HYBRFLS          Count non-ixr'd files
 0009E8 5E00 61A4            001FC  7685             +
 0009EC 5000 61A4            001FC  7686             +
 0009F0 D203 A0E8 6B88 000E8 00BE0  7687     723.              MVC   TYPE,=C'HYBR'       Set proper error location
 0009F6                             7688     724.              WHILE (NIXRCNT,GT,0),BEGIN Check all IXRs in hybrid file
 0009F6 D503 6B5C A0F4 00BB4 000F4  7702             +
 0009FC 47B0 69E6            00A3E  7703             +
 000A00 5890 6B8C/0D99       00BE4  7708  1  725.                ACALL GETIXR              Block number in BLKNO
 000A06 9120 B000      00000        7712  1  726.                IF    ~IXRZIXR,BEGIN      Not hybrid IXR
 000A0A 4710 69C2            00A1A  7722  1          +
 000A0E 9205 A0B8      000B8        7727  2  727.                  MVI   CLASS,ERR_IXST      Set IXRSTATE wrong in class
 000A12 4D90 66B0            00708  7728  2  728.                  LCALL ADDERR              Add file to error table
 000A16 4D90 6AD4            00B2C  7730  2  729.                  LCALL CHKRBLD             Check bit map rebuild options
 000A1A 69C6           00A1A 00A0C  7732  1  730.                END   ELSE,BEGIN          Process hybrid IXR
 000A1A 47F0 69E2            00A3A  7741  1          +
 000A1E 4D90 6FDA            01032  7747  2  731.                  LCALL DOUSER              PROCESS  IXR FILE ROUTINE
 000A22 1F11/BF17 B001       00001  7749  2  732.                  L3    R1,IXRECNO          Get block number
 000A28 5E10 6B90            00BE8  7757  2  733.                  INCR  R1                  Next hybrid IXR
 000A2C 5010 6198            001F0  7760  2  734.                  ST    R1,BLKNO            Bump orvyl block number
 000A30 5810 A0F4/0610       000F4  7761  2  735.                  DECR  R1,NIXRCNT          Decrement count of IXRs to check
 000A36 5010 A0F4            000F4  7765  2          +
 000A3A                             7766  1  736.                END   ,
 000A3A 47F0 699E            009F6  7770     737.              END   ,
0000A3E 4BD0 6BAC            00C04  7776     739.              VPOP  SR,RAR,*            Restore calling registers
 000A42 9829 D000            00000  7778             +
 000A46 07F9                        7779     740.              BR    RAR                 And return to caller
1VFRY     (VFRY21) (09:47) (22MAR04) ORVYL File System Verify                                                               Page   40
0Current Usings:  (DATASEG,R6) (IOINFO,R10) (IXRDSECT,R11) (NXRYFL,R12)
0Loc    Object Code    Addr1 Addr2  Stmt Lv Lineno    Source Statement           (Hibal 5, Asmedit 3.3)  HLASM R4.0  2004/03/22 09.47
+___    ______ ____    _____ _____  ____ __ ______    ______ _________
0                                   7781     742.     ¿þþþþþþþþþþþþþþþþþþþþþþþþþþþþþþþþþþþþþþþþþþþþþþþþþþþþþþþþþþþþþþþþþþþþþÜ
                                    7782     743.     Ÿ                                                                     Ÿ
                                    7783     744.     Ÿ  DOFILE ROUTINE                                                     Ÿ
                                    7784     745.     Ÿ                                                                     Ÿ
                                    7785     746.     Ÿ  PROCESS A NORMAL ORVYL IXR'D FILE.  CHECK EACH ALLOCATED           Ÿ
                                    7786     747.     Ÿ  BLOCK AGAINST THE BIT-MAP.                                         Ÿ
                                    7787     748.     Ÿ                                                                     Ÿ
                                                      ¾þþþþþþþþþþþþþþþþþþþþþþþþþþþþþþþþþþþþþþþþþþþþþþþþþþþþþþþþþþþþþþþþþþþþþ»
-000A48                             7789     750.     DOFILE   LABEL ,                   Process orvyl file entry
 000A48 9029 D000            00000  7791     751.              VPUSH SR,RAR,*            Save registers on stack
 000A4C 41D0 D020            00020  7793             +
 000A50 5890 6B8C/0D99       00BE4  7794     752.              ACALL GETIXR              Block number in BLKNO
 000A56 4770 6ACA            00B22  7798     753.              IF    Z,BEGIN             Got main IXR for file
                                    7809  1  754.     *
                                    7810  1  755.     *     Check IXR status bits.  This should be either an IXR or
                                    7811  1  756.     *     a super IXR block.
                                    7812  1  757.     *
                                    7813  1  758.     *              MIXR,SIXR
                                    7814  1  759.     *                 0,0  Error must be Master or Super IXR
                                    7815  1  760.     *                 0,1  Error invalid combination
                                    7816  1  761.     *                 1,0  OK - This is a master IXR
                                    7817  1  762.     *                 1,1  OK - This is a super IXR
                                    7818  1  763.     *
 000A5A 9180 B000      00000        7819  1  764.                IF    ~IXRMIXR,BEGIN      Some invalid combination
 000A5E 4710 6A16            00A6E  7829  1          +
 000A62 9205 A0B8      000B8        7834  2  765.                  MVI   CLASS,ERR_IXST      Set IXRSTATE wrong in class
 000A66 4D90 66B0            00708  7835  2  766.                  LCALL ADDERR              Add file to error table
 000A6A 4D90 6AD4            00B2C  7837  2  767.                  LCALL CHKRBLD             Check bit map rebuild options
 000A6E 6A1A           00A6E 00A60  7839  1  768.                END   ELSE,BEGIN          Process mixr or sixr
 000A6E 47F0 6ACA            00B22  7848  1          +
                                    7854  2  769.     *
                                    7855  2  770.     *  Process a MIXR or SIXR data file
                                    7856  2  771.     *
                                    7857  2  772.     *        1,0  this is a master IXR
                                    7858  2  773.     *        1,1  this is a super IXR
                                    7859  2  774.     *
 000A72 9140 B000      00000        7860  2  775.                  IF    ~IXRSIXR,BEGIN      CHECK FOR STANDARD MIXR FILE
 000A76 4710 6A26            00A7E  7870  2          +
 000A7A 4D90 6FDA            01032  7875  3  776.                    LCALL DOUSER              PROCESS MIXR FILE ROUTINE
 000A7E 6A2A           00A7E 00A78  7877  2  777.                  END   ELSE,BEGIN          PROCESS SIXR FILE
 000A7E 47F0 6ACA            00B22  7886  2          +
                                    7892  3  778.     *
                                    7893  3  779.     *  PROCESS SIXR
                                    7894  3  780.     *
 000A82 9120 6076      000CE        7895  3  781.                    IF    (FRSTPASS,AND,DMPIXRS),'ACALL WRTIXR'
 000A86 47E0 6A40            00A98  7907  3          +
 000A8A 9180 6074      000CC        7918  3          +
 000A8E 47E0 6A40            00A98  7919  3          +
 000A92 5890 6B94/0D99       00BEC  7927  3          +
 000A98 5800 A0F8            000F8  7933  3  782.                    L     R0,SCNDHDR          Move sxr into secondary IXR
 000A9C 4110 0800            00800  7934  3  783.                    LA    R1,L'IXR            Ixr's will use primary buffer
 000AA0 182B                        7935  3  784.                    LR    R2,R11              Copy from address for mvcl
1VFRY     (VFRY21) (09:47) (22MAR04) ORVYL File System Verify                                                               Page   41
0Current Usings:  (DATASEG,R6) (IOINFO,R10) (IXRDSECT,R11) (NXRYFL,R12)
0Loc    Object Code    Addr1 Addr2  Stmt Lv Lineno    Source Statement           (Hibal 5, Asmedit 3.3)  HLASM R4.0  2004/03/22 09.47
+___    ______ ____    _____ _____  ____ __ ______    ______ _________
0000AA2 1831                        7936  3  785.                    LR    R3,R1               Copy from length for mvcl
 000AA4 0E02                        7937  3  786.                    MVCL  R0,R2               Move sixr to secondary buffer
 000AA6 58B0 A0F8            000F8  7938  3  787.                    L     R11,SCNDHDR         Set proper address
                                    7939  3  788.     *
                                    7940  3  789.     *  LOOP THROUGH EACH IXR IN SIXR, CHECKING BITMAP BITS
                                    7941  3  790.     *
 000AAA D201 A0FC 6BDA 000FC 00C32  7942  3  791.                    MVC   IXRNDX,=H'0'      INDEX INTO SIXR'S IXRS
 000AB0                             7943  3  792.                    WHILE (IXRNDX,LE,IXRHIXR),BEGIN
 000AB0 D501 A0FC B7FE 000FC 007FE  7957  3          +
 000AB6 4730 6ACA            00B22  7958  3          +
 000ABA 4110 0294            00294  7963  4  793.                      LA    R1,IXRNT#           Maximum possible blocks in IXR
 000ABE 4C10 A0FC            000FC  7964  4  794.                      MH    R1,IXRNDX           X (index) = relative block number
 000AC2 5010 A0E4            000E4  7965  4  795.                      ST    R1,RELBLK           Save relative block number
 000AC6 4110 0003            00003  7966  4  796.                      LA    R1,L'IXRNT          Set length of block entry in IXR
 000ACA 4C10 A0FC            000FC  7967  4  797.                      MH    R1,IXRNDX           Offset into sixr entries
 000ACE 4111 B044            00044  7968  4  798.                      LA    R1,IXRNT(R1)        Address of IXR entry
 000AD2 D202 6199 1000 001F1 00000  7969  4  799.                      MVC   BLKNO+1(3),@R1      Save block number of IXR
 000AD8 D602 6199 6199 001F1 001F1  7970  4  800.                      OC    BLKNO+1(3),BLKNO+1  Check for IXR pointer here
 000ADE 4780 6AB6            00B0E  7971  4  801.                      IF    NZ,BEGIN            If nz, process IXR block
 000AE2 D203 A0E8 6B98 000E8 00BF0  7982  5  802.                        MVC   TYPE(4),=C'SIXR'    Set error location for report
 000AE8 5890 6B8C/0D99       00BE4  7983  5  803.                        ACALL GETIXR              Loop through all ixrs in sixr
 000AEE 4770 6AB6            00B0E  7987  5  804.                        IF    Z,BEGIN             Got new IXR
 000AF2 9205 A0B8      000B8        7998  6  805.                          MVI   CLASS,ERR_IXST      Ixrstate is wrong, should be IXR
 000AF6 94C0 B000      00000        7999  6  806.                          NI    IXRSTATE,X'C0'      Test ixrstate for current IXR
 000AFA 4780 6AAE            00B06  8000  6  807.                          IF    NZ,BEGIN            Check ixrstate for IXR
 000AFE 4D90 66B0            00708  8011  7  808.                            LCALL ADDERR              Add into error table
 000B02 4D90 6AD4            00B2C  8013  7  809.                            LCALL CHKRBLD             Check bit map rebuild options
 000B06 6AB2           00B06 00AFC  8015  6  810.                          END   ELSE,'LCALL DOUSER' Process IXR
 000B06 47F0 6AB6            00B0E  8024  6          +
 000B0A 4D90 6FDA            01032  8032  6          +
 000B0E                             8037  5  811.                        END   ,
 000B0E                             8041  4  812.                      END   ,
 000B0E 58B0 A0F8            000F8  8045  4  813.                      L     R11,SCNDHDR         Reset to sixr buffer
 000B12 4110 0001            00001  8046  4  814.                      INCR  R1,IXRNDX           Bump IXR index and loop
 000B16 4A10 A0FC            000FC  8050  4          +
 000B1A 4010 A0FC            000FC  8051  4          +
 000B1E 47F0 6A58            00AB0  8052  3  815.                    END   ,
 000B22                             8057  2  816.                  END   ,
 000B22                             8061  1  817.                END   ,
 000B22                             8065     818.              END   ,
0000B22 4BD0 6BAC            00C04  8070     820.              VPOP  SR,RAR,*            Restore calling registers
 000B26 9829 D000            00000  8072             +
 000B2A 07F9                        8073     821.              BR    RAR                 And return to caller
1VFRY     (VFRY21) (09:47) (22MAR04) ORVYL File System Verify                                                               Page   42
0Current Usings:  (DATASEG,R6) (IOINFO,R10) (IXRDSECT,R11) (NXRYFL,R12)
0Loc    Object Code    Addr1 Addr2  Stmt Lv Lineno    Source Statement           (Hibal 5, Asmedit 3.3)  HLASM R4.0  2004/03/22 09.47
+___    ______ ____    _____ _____  ____ __ ______    ______ _________
0                                   8075     823.     *
                                    8076     824.     *  CHECK BIT MAP REBUILD FLAGS ON I/O ERROR OR SERIOUS IXR
                                    8077     825.     *  IXR ERROR
                                    8078     826.     *
0000B2C                             8080     828.     CHKRBLD  LABEL ,
 000B2C 9140 6075/0719 000CD        8082     829.              IF    FORCE,RAR           RETURN IF FORCE IN EFFECT
 000B32 911C 6074/0789 000CC        8100     830.              IF    (REBUILD+RECLAIM+AUTO,Z),RAR  RETURN ON NULL ACTION
 000B38 9029 D000            00000  8127     831.              VPUSH SR,RAR,*            SAVE CALLING REGISTERS
 000B3C 41D0 D020            00020  8129             +
 000B40 4110 6B9C            00BF4  8130     832.              VSEG  'VFRY (033): '      INFORM USER OF ACTION
 000B44 4100 000C            0000C  8134             +
 000B48 5890 6B68/0D99       00BC0  8137             +
 000B4E 9110 6074      000CC        8139     833.              IF    RECLAIM,'VSEG "RECLAIM"'      RECLAIM DISABLED
 000B52 47E0 6B0C            00B64  8149             +
 000B56 4110 6C02            00C5A  8158  1          +
 000B5A 4100 0007            00007  8159  1          +
 000B5E 5890 6B68/0D99       00BC0  8162             +
 000B64 6B10           00B64 00B54  8168     834.              ELSEIF REBUILD,'VSEG "REBUILD"'     REBUILD DISABLED
 000B64 47F0 6B26            00B7E  8174             +
 000B68 9108 6074      000CC        8186             +
 000B6C 47E0 6B26            00B7E  8187             +
 000B70 4110 6C09            00C61  8196  1          +
 000B74 4100 0007            00007  8197  1          +
 000B78 5890 6B68/0D99       00BC0  8200             +
 000B7E 6B2A           00B7E 00B6E  8206     835.              ELSE  'VSEG "AUTO"'                 AUTO DISABLED
 000B7E 47F0 6B38            00B90  8211             +
 000B82 4110 6BA8            00C00  8221  1          +
 000B86 4100 0004            00004  8222  1          +
 000B8A 5890 6B68/0D99       00BC0  8225             +
 000B90 4110 6BDC            00C34  8231     836.              VSEG  ' OPTION DISABLED DUE TO IXR I/O ERROR.'
 000B94 4100 0026            00026  8235             +
 000B98 5890 6B68/0D99       00BC0  8238             +
 000B9E 5890 6B6C/0D99       00BC4  8240     837.              VWRITE ,                  WRITE TO REPORT FILE
 000BA4 94E3 6074      000CC        8245     838.              CLEAR RECLAIM*REBUILD*AUTO    DISABLE BIT MAP REWRITE
 000BA8 4BD0 6BAC            00C04  8259     839.              VPOP  SR,RAR,*            RESTORE CALLING REGISTERS
 000BAC 9829 D000            00000  8261             +
 000BB0 07F9                        8262     840.              BR    RAR                 AND RETURN TO CALLER
1VFRY     (VFRY21) (09:47) (22MAR04) ORVYL File System Verify                                                               Page   43
0Current Usings:  (DATASEG,R6) (IOINFO,R10) (IXRDSECT,R11) (NXRYFL,R12)
0Loc    Object Code    Addr1 Addr2  Stmt Lv Lineno    Source Statement           (Hibal 5, Asmedit 3.3)  HLASM R4.0  2004/03/22 09.47
+___    ______ ____    _____ _____  ____ __ ______    ______ _________
0000BB2 0000/00000000               8264     842.              LTORG ,
 000BB8 00000FF8                    8267                             =A(SERRMAX)
 000BBC 0000233A                    8268                             =A(BALANCE)
 000BC0 00000000                    8269                             =V(VSEG)
 000BC4 00000000                    8270                             =V(VWRITE)
 000BC8 00001000                    8271                             =A(4096)
 000BCC 00000020                    8272                             =A(32)
 000BD0 C4C9D94B                    8273                             =C'DIR.'
 000BD4 5CD5C9E7                    8274                             =C'*NIX'
 000BD8 40404040                    8275                             =CL4' '
 000BDC 000016BE                    8276                             =A(CHECKBIT)
 000BE0 C8E8C2D9                    8277                             =C'HYBR'
 000BE4 000014EA                    8278                             =A(GETIXR)
 000BE8 00000001                    8279                             =A(1)
 000BEC 00001662                    8280                             =A(WRTIXR)
 000BF0 E2C9E7D9                    8281                             =C'SIXR'
 000BF4 E5C6D9E8404DF0F3            8282                             =C'VFRY (033): '
 000C00 C1E4E3D6                    8283                             =C'AUTO'
 000C04 0020                        8284                             =Y((RAR+1-(SR)+16*((SR)/(RAR+1))/((SR)/(RAR+1)))*4)
 000C06 E5C6D9E8404DF0F3            8285                             =C'VFRY (031): Requesting 4K for error table.'
 000C30 0004                        8286                             =Y(4)
 000C32 0000                        8287                             =H'0'
 000C34 40D6D7E3C9D6D540            8288                             =C' OPTION DISABLED DUE TO IXR I/O ERROR.'
 000C5A D9C5C3D3C1C9D4              8289                             =C'RECLAIM'
 000C61 D9C5C2E4C9D3C4              8290                             =C'REBUILD'
1VFRY     (VFRY21) (09:47) (22MAR04) ORVYL File System Verify                                                               Page   44
0Current Usings:  (DATASEG,R6) (IOINFO,R10) (IXRDSECT,R11) (NXRYFL,R12)
0Loc    Object Code    Addr1 Addr2  Stmt Lv Lineno    Source Statement           (Hibal 5, Asmedit 3.3)  HLASM R4.0  2004/03/22 09.47
+___    ______ ____    _____ _____  ____ __ ______    ______ _________
0                                   8295     844.     ********************************************************************
                                    8296     845.     *                                                                  *
                                    8297     846.     *        Main Program Loop                                         *
                                    8298     847.     *                                                                  *
                                    8299     848.     ********************************************************************
                                    8300     849.     *                                                                  *
                                    8301     850.     *  As we read file entries from the Catalog, we check the validity *
                                    8302     851.     *  of the catalog block and the IXR's, and then turn off the       *
                                    8303     852.     *  bits in the Bit Map which represent that file's blocks.         *
                                    8304     853.     *  This eventually leaves us with an error Bit Table.  The bits    *
                                    8305     854.     *  in the error Bit Table represent lost blocks.                   *
                                    8306     855.     *                                                                  *
                                    8307     856.     ********************************************************************
-000C6E                             8309     858.     MAINLOOP LABEL ,
 000C6E 5870 6040            00098  8311     859.              L     BR,MAINADDR         SET MAINLINE CODE BASE
                                    8312     860.              DROP  BR                  Release current basing
 USING  MAINLOOP,R7                 8316     861.              USING MAINLOOP,BR         Declare new basing
0000C72 9620 6076      000CE        8326     863.              SET   FRSTPASS            Set first pass in effect
 000C76                             8332     864.              LOOP  BEGIN               Churn thru them all
 000C76 4D90 67D8            00830  8338  1  865.                LCALL GETFDE              Get next file entry
 000C7A 4780 7038            00CA6  8340  1  866.                IF    Z,EXIT              Through all entries
 000C7E 9104 C008      00008        8354  1  867.                IF    NXFHYBR,'LCALL HYBRID' Process hybrid file
 000C82 47E0 701C            00C8A  8364  1          +
 000C86 4D90 6984            009DC  8371  1          +
 000C8A 7020           00C8A 00C84  8376  1  868.                ELSEIF NXFNIXR,'LCALL NONIXR' Process non-IXR'd file
 000C8A 47F0 702C            00C9A  8382  1          +
 000C8E 9110 C008      00008        8394  1          +
 000C92 47E0 702C            00C9A  8395  1          +
 000C96 4D90 68C6            0091E  8402  1          +
 000C9A 7030           00C9A 00C94  8407  1  869.                ELSE  'LCALL DOFILE'      Else - process normal file
 000C9A 47F0 7034            00CA2  8412  1          +
 000C9E 4D90 69F0            00A48  8420  1          +
 000CA2 47F0 7008            00C76  8425     870.              END   ,
-000CA6 5890 759A/0D99       01208  8431     872.              ACALL PRSTAT              Print file statistics
0000CAC 9140 6076      000CE        8436     874.              IF    DO2ND,BEGIN         Second pass for errors?
 000CB0 47E0 708C            00CFA  8446             +
 000CB4 94DF 6076      000CE        8451  1  875.                CLEAR FRSTPASS            No longer first pass
 000CB8 4110 6378/0A14       003D0  8458  1  876.                CLOSE ,MF=(E,FILSOPNL)    Close the file
 000CBE 4110 6378/0A13       003D0  8462  1  877.                OPEN  ,MF=(E,FILSOPNL)    re-open it at the beginning
 000CC4                             8466  1  878.                CLEAR BLOCKID             Zero current block id
 000CC4 D703 619C 619C 001F4 001F4  8472  1          +
 000CCA                             8473  1  879.                LOOP  BEGIN               Churn thru them all
 000CCA 4D90 67D8            00830  8479  2  880.                  LCALL GETFDE              Get next file entry
 000CCE 4780 708C            00CFA  8481  2  881.                  IF    Z,EXIT              Through all entries
 000CD2 9104 C008      00008        8495  2  882.                  IF    NXFHYBR,'LCALL HYBRID' Process hybrid file
 000CD6 47E0 7070            00CDE  8505  2          +
 000CDA 4D90 6984            009DC  8512  2          +
 000CDE 7074           00CDE 00CD8  8517  2  883.                  ELSEIF NXFNIXR,'LCALL NONIXR' Process non-IXR'd file
1VFRY     (VFRY21) (09:47) (22MAR04) ORVYL File System Verify                                                               Page   45
0Current Usings:  (DATASEG,R6) (MAINLOOP,R7) (IOINFO,R10) (IXRDSECT,R11) (NXRYFL,R12)
0Loc    Object Code    Addr1 Addr2  Stmt Lv Lineno    Source Statement           (Hibal 5, Asmedit 3.3)  HLASM R4.0  2004/03/22 09.47
+___    ______ ____    _____ _____  ____ __ ______    ______ _________
0000CDE 47F0 7080            00CEE  8523  2          +
 000CE2 9110 C008      00008        8535  2          +
 000CE6 47E0 7080            00CEE  8536  2          +
 000CEA 4D90 68C6            0091E  8543  2          +
 000CEE 7084           00CEE 00CE8  8548  2  884.                  ELSE  'LCALL DOFILE'      Else - process normal file
 000CEE 47F0 7088            00CF6  8553  2          +
 000CF2 4D90 69F0            00A48  8561  2          +
 000CF6 47F0 705C            00CCA  8566  1  885.                END   ,
 000CFA                             8571     886.              END   ,
1VFRY     (VFRY21) (09:47) (22MAR04) ORVYL File System Verify                                                               Page   46
0Current Usings:  (DATASEG,R6) (MAINLOOP,R7) (IOINFO,R10) (IXRDSECT,R11) (NXRYFL,R12)
0Loc    Object Code    Addr1 Addr2  Stmt Lv Lineno    Source Statement           (Hibal 5, Asmedit 3.3)  HLASM R4.0  2004/03/22 09.47
+___    ______ ____    _____ _____  ____ __ ______    ______ _________
0                                   8576     888.     ********************************************************************
                                    8577     889.     *                                                                  *
                                    8578     890.     *     Format sorted error list                                     *
                                    8579     891.     *                                                                  *
                                    8580     892.     ********************************************************************
-000CFA                             8582     894.              IF    (NERRS,NZ),BEGIN
 000CFA D603 6190 6190 001E8 001E8  8592             +
 000D00 4780 7114            00D82  8593             +
 000D04 5890 759E/0D99       0120C  8598  1  895.                VWRITE ,                       BLANK LINE PLEASE
 000D0A D20D 6077 761A 000CF 01288  8603  1  896.                MVC   PLINE(14),=C'PTR  ERR  FILE'
 000D10 D216 60AE 76B0 00106 0131E  8604  1  897.                MVC   PLINE+55(23),=C'PHYS.    FD  REL   FILE'
 000D16 D204 60D4 76C7 0012C 01335  8605  1  898.                MVC   PLINE+93(5),=C'CCHHR'
 000D1C 5890 75A2/0D99       01210  8606  1  899.                ACALL WRITEOUT           PRINT HEADER
 000D22 D20D 6077 7628 000CF 01296  8610  1  900.                MVC   PLINE(14),=C'TYPE CODE NAME'
 000D28 D219 60AE 7636 00106 012A4  8611  1  901.                MVC   PLINE+55(26),=C'BLOCK#  BYTE,BIT  REL BLK.'
 000D2E 5890 75A2/0D99       01210  8612  1  902.                ACALL WRITEOUT
 000D34 5890 75A2/0D99       01210  8616  1  903.                ACALL WRITEOUT
 000D3A 5810 6148/1211       001A0  8620  1  904.                LT    R1,ERRANCHR             SET ERROR LIST ANCHOR
 000D40 4780 6516            0056E  8624  1  905.                IF    Z,ABORT                 SHOULD NEVER BE ZERO
 000D44 5890 75A6/0D99       01214  8638  1  906.                ACALL LISTNTRY                MUNCH 'EM RIGHT DOWN
0000D4A 4110 75AA            01218  8643  1  908.                VSEG  'VFRY (013): '
 000D4E 4100 000C            0000C  8647  1          +
 000D52 5890 75B6/0D99       01224  8650  1          +
 000D58 58F0 6190/1B00       001E8  8652  1  909.                SEGDC 0,NERRS
 000D5E 4110 6018            00070  8669  1          +
 000D62 58E0 75BA/0DEE       01228  8672  1          +
 000D68 5890 75B6/0D99       01224  8689  1          +
 000D6E 4110 7650            012BE  8691  1  910.                VSEG  ' ORVYL File errors'
 000D72 4100 0012            00012  8695  1          +
 000D76 5890 75B6/0D99       01224  8698  1          +
 000D7C 5890 759E/0D99       0120C  8700  1  911.                VWRITE ,
 000D82                             8705     912.              END   ,
1VFRY     (VFRY21) (09:47) (22MAR04) ORVYL File System Verify                                                               Page   47
0Current Usings:  (DATASEG,R6) (MAINLOOP,R7) (IOINFO,R10) (IXRDSECT,R11) (NXRYFL,R12)
0Loc    Object Code    Addr1 Addr2  Stmt Lv Lineno    Source Statement           (Hibal 5, Asmedit 3.3)  HLASM R4.0  2004/03/22 09.47
+___    ______ ____    _____ _____  ____ __ ______    ______ _________
0                                   8710     914.     *
                                    8711     915.     *  PROCESS BIT MAP ERRORS.
                                    8712     916.     *
                                    8713     917.     *  WE HAVE BIT MAP THAT HAS BITS SET FOR LOST BLOCKS.   (ERR BIT TABLE)
                                    8714     918.     *  WE COUNT UP THE NUMBER OF LOST BLOCKS BY COUNTING THE NUMBER OF
                                    8715     919.     *  BITS SET.  THIS IS DONE WITH A BITS PER BYTE TABLE AND A TRT. THE
                                    8716     920.     *  NUMBER OF LOST BLOCKS (BITS) IS PRINTED AT THE END OF THIS SECTION.
                                    8717     921.     *
 000D82 5810 6130            00188  8718     922.              L     R1,BTTMEMST             R1 - Error bits (lost blocks)
 000D86 5830 612C            00184  8719     923.              L     TR,BTTMEMRQ             TR - Length of error bit table
 000D8A 1E31                        8720     924.              ALR   TR,R1                        Last address + 1
 000D8C 1B00                        8721     925.              CLEAR R0                      R0 - Lost block counter
 000D8E 1B22                        8725     926.              CLEAR SR                      SR - Bytes per bit from trt
 000D90 1913/47B0 7150       00DBE  8729     927.              WHILE (R1,LT,TR),BEGIN        LOOP THRU ALL ERROR BITS
 000D96 1853                        8746  1  928.                LR    R5,TR                   R5 - Length remaining to count
 000D98 1B51                        8747  1  929.                SR    R5,R1
 000D9A 5950 75BE            0122C  8748  1  930.                CEIL  R5,256                  Up to 256 max for trt
 000D9E 47D0 7138            00DA6  8757  1          +
 000DA2 5850 75BE            0122C  8762  1          +
 000DA6 0650/4450 774E       013BC  8767  1  931.                DEX   R5,'TRT @R1(0),BITTRT'  TRT With bits per byte
 0013BB 00                                2          +
 0013BC DD00 1000 61B4 00000 0020C  8778  1          +
 000DAC 4770 7144/1A15       00DB2  8786  1  932.                IF    E,'AR R1,R5'            BUMP ERR BIT POINTER
 000DB2 4110 1001            00001  8803  1  933.                LA    R1,@R1+1
 000DB6 1A02                        8804  1  934.                AR    R0,SR                   SUM COUNT IN R0
 000DB8 1B22                        8805  1  935.                CLEAR SR                      CLEAR COUNTER FOR NXT PASS
 000DBA 47F0 7122            00D90  8809     936.              END   ,
 000DBE 1830                        8814     937.              LR    TR,R0                   COPY OUT LOST BLOCKS
 000DC0 9108 6074      000CC        8815     938.              IF    REBUILD,BEGIN
 000DC4 47E0 71B0            00E1E  8825             +
                                    8830  1  939.                PRINT NOGEN
 000DC8 4110 75C2            01230  8832  1  940.                VSEG 'VFRY (014): '
 000DD6 58F0 617C            001D4  8841  1  941.                L     R15,MAXNO               TOTAL NUMBER OF BLOCKS
 000DDA 1BF3                        8842  1  942.                SR    R15,TR                   LESS AVAILABLE
 000DDC 1B00                        8843  1  943.                SEGDC 0,(R15),COMMAS=YES
 000DEE 4110 7582            011F0  8881  1  944.                VSEG  ' Blocks in use, '
 000DFC 18F3                        8890  1  945.                SEGDC 0,(TR),COMMAS=YES
 000E10 4110 7662            012D0  8929  1  946.                VSEG  ' Blocks available.'
                                    8938  1  947.                PRINT GEN
 000E1E 71B4           00E1E 00DC6  8940     948.              END   ELSE,BEGIN
 000E1E 47F0 71D8            00E46  8949             +
 000E22 4110 7674            012E2  8955  1  949.                VSEG  'VFRY (015): Lost block count ='
 000E26 4100 001E            0001E  8959  1          +
 000E2A 5890 75B6/0D99       01224  8962  1          +
 000E30 18F3/4100 000A       0000A  8964  1  950.                SEGDC 10,(TR),COMMAS=YES
 000E36 4110 6018            00070  8984  1          +
 000E3A 58E0 75CE/0DEE       0123C  8987  1          +
 000E40 5890 75B6/0D99       01224  9004  1          +
 000E46                             9006     951.              END   ,
 000E46 5890 759E/0D99       0120C  9010     952.              VWRITE ,
 000E4C 4110 7692            01300  9015     953.              VSEG  'VFRY (019): Max block in use ='
 000E50 4100 001E            0001E  9019             +
 000E54 5890 75B6/0D99       01224  9022             +
 000E5A 58F0 6180            001D8  9024     954.              SEGDC 10,MAXUSE,COMMAS=YES
1VFRY     (VFRY21) (09:47) (22MAR04) ORVYL File System Verify                                                               Page   48
0Current Usings:  (DATASEG,R6) (MAINLOOP,R7) (IOINFO,R10) (IXRDSECT,R11) (NXRYFL,R12)
0Loc    Object Code    Addr1 Addr2  Stmt Lv Lineno    Source Statement           (Hibal 5, Asmedit 3.3)  HLASM R4.0  2004/03/22 09.47
+___    ______ ____    _____ _____  ____ __ ______    ______ _________
0000E5E 4100 000A            0000A  9037             +
 000E62 4110 6018            00070  9044             +
 000E66 58E0 75CE/0DEE       0123C  9047             +
 000E6C 5890 75B6/0D99       01224  9064             +
 000E72 5890 759E/0D99       0120C  9066     955.              VWRITE ,                  Write to report file
1VFRY     (VFRY21) (09:47) (22MAR04) ORVYL File System Verify                                                               Page   49
0Current Usings:  (DATASEG,R6) (MAINLOOP,R7) (IOINFO,R10) (IXRDSECT,R11) (NXRYFL,R12)
0Loc    Object Code    Addr1 Addr2  Stmt Lv Lineno    Source Statement           (Hibal 5, Asmedit 3.3)  HLASM R4.0  2004/03/22 09.47
+___    ______ ____    _____ _____  ____ __ ______    ______ _________
0                                   9072     957.     *
                                    9073     958.     *        IF REQUESTED CREATE NEW BIT MAP
                                    9074     959.     *
                                    9075     960.     *  WE DO THIS BY XORING LOST BLOCK BITS WITH OLD BIT MAP
                                    9076     961.     *  ITS A PIECE OF CAKE
                                    9077     962.     *
 000E78 911C 6074      000CC        9078     963.              IF    RECLAIM+REBUILD+AUTO,BEGIN
 000E7C 4780 73AC            0101A  9095             +
 000E80 9104 6074      000CC        9100  1  964.                IF    (AUTO,AND,(TR,Z)),EXIT   NO LOST BLOCKS TODAY
 000E84 47E0 7220/1233       00E8E  9112  1          +
 000E8A 4780 73AC            0101A  9125  1          +
 000E8E 5830 6130            00188  9131  1  965.                L     R3,BTTMEMST             Point to bit map
 000E92 9108 6074      000CC        9132  1  966.                IF    REBUILD,BEGIN
 000E96 47E0 726C            00EDA  9142  1          +
 000E9A 5840 617C            001D4  9147  2  967.                  L     QR,MAXNO                Actual number of blocks
 000E9E 4140 4007            00007  9148  2  968.                  LA    QR,@QR+7                Round up
 000EA2 8840 0003            00003  9149  2  969.                  SRL   QR,3                    Convert to bytes
 000EA6 4100 A800            00800  9150  2  970.                  LA    R0,IOIXR                Buffer area
 000EAA 5810 6184            001DC  9151  2  971.                  L     R1,FSBLKSZ               length
 000EAE 1FFF/BFF8 76CC       0133A  9152  2  972.                  LCM   R15,8,=X'FF'            All bits on
 000EB4 0E0E                        9159  2  973.                  MVCL  R0,R14                  Turn on
 000EB6 4120 A800            00800  9160  2  974.                  LA    SR,IOIXR                Set block address
 000EBA 5810 6184            001DC  9161  2  975.                  L     R1,FSBLKSZ              And length to xor
 000EBE 1914/47B0 7264       00ED2  9162  2  976.                  WHILE (R1,LT,QR),BEGIN
 000EC4 5890 75D2/0D99       01240  9179  3  977.                    ACALL XORCORE                 A page at a time
 000ECA 1A31                        9183  3  978.                    AR    R3,R1                   Bump address for next page
 000ECC 1B41                        9184  3  979.                    SR    QR,R1
 000ECE 47F0 7250            00EBE  9185  2  980.                  END   ,
 000ED2 1814                        9190  2  981.                  LR    R1,QR                   Remaining portion
 000ED4 5890 75D2/0D99       01240  9191  2  982.                  ACALL XORCORE                 Do last part
 000EDA 7270           00EDA 00E98  9195  1  983.                END   ELSE,BEGIN
 000EDA 47F0 72AE            00F1C  9204  1          +
 000EDE                             9210  2  984.                  CLEAR BLOCKID                 ZERO CURRENT BLOCK ID
 000EDE D703 619C 619C 001F4 001F4  9216  2          +
 000EE4 5930 6134            0018C  9217  2  985.                  WHILE (R3,LT,BTTMEMND),BEGIN  READ ALL VALID BIT PAGES
 000EE8 47B0 72AE            00F1C  9231  2          +
 000EEC 5800 619C            001F4  9236  3  986.                    L     R0,BLOCKID              RETRIEVE CURRENT OFFSET
 000EF0 5A00 613C            00194  9237  3  987.                    A     R0,BTTBASE              + BIT-MAP BASE BLOCK
 000EF4 5000 A0B8            000B8  9238  3  988.                    ST    R0,BITNO                AND SAVE BLOCK TO READ
 000EF8 4D90 6548            005A0  9239  3  989.                    LCALL BTTIO                   READ THAT BLOCK OLLIE
 000EFC 4120 A800            00800  9241  3  990.                    LA    SR,IOIXR                SET BLOCK ADDRESS
 000F00 5810 6184            001DC  9242  3  991.                    L     R1,FSBLKSZ              AND LENGTH TO XOR
 000F04 5890 75D2/0D99       01240  9243  3  992.                    ACALL XORCORE                 A page at a time
 000F0A 1A31                        9247  3  993.                    AR    R3,R1                   Bump address for next page
 000F0C 4110 0001            00001  9248  3  994.                    INCR  R1,BLOCKID              BUMP BLOCK NUMBER
 000F10 5E10 619C            001F4  9252  3          +
 000F14 5010 619C            001F4  9253  3          +
 000F18 47F0 7276            00EE4  9254  2  995.                  END   ,
 000F1C                             9259  1  996.                END   ,
 000F1C 5810 6130            00188  9263  1  997.                L     R1,BTTMEMST
 000F20 9680 1000      00000        9264  1  998.                SET   @R1.X'80'               Done, now turn on first bit
 000F24 5810 6148/1211       001A0  9271  1  999.                LT    R1,ERRANCHR             SET ANCHOR ADDRESS OF ERRORS
 000F2A 4780 72C6            00F34  9275  1 1000.                IF    NZ,'ACALL SETBIT'       Much 'em right down
 000F2E 5890 75D6/0D99       01244  9289  1          +
1VFRY     (VFRY21) (09:47) (22MAR04) ORVYL File System Verify                                                               Page   50
0Current Usings:  (DATASEG,R6) (MAINLOOP,R7) (IOINFO,R10) (IXRDSECT,R11) (NXRYFL,R12)
0Loc    Object Code    Addr1 Addr2  Stmt Lv Lineno    Source Statement           (Hibal 5, Asmedit 3.3)  HLASM R4.0  2004/03/22 09.47
+___    ______ ____    _____ _____  ____ __ ______    ______ _________
0                                   9296  1 1002.     *
                                    9297  1 1003.     *  REWRITE THE NOW CORRECT BIT MAP
                                    9298  1 1004.     *
0000F34                             9300  1 1006.                CLEAR BLOCKID                 Reset block num to zero
 000F34 D703 619C 619C 001F4 001F4  9306  1          +
 000F3A 5840 6130            00188  9307  1 1007.                L     QR,BTTMEMST             QR - BTT Starting address
 000F3E 5940 6134            0018C  9308  1 1008.                WHILE (QR,LT,BTTMEMND),BEGIN  Loop writting out bit map
 000F42 47B0 732A            00F98  9322  1          +
 000F46 5800 619C            001F4  9327  2 1009.                  L     R0,BLOCKID              GET CURRENT BLOCK OFFSET
 000F4A 5A00 613C            00194  9328  2 1010.                  A     R0,BTTBASE              + BIT-MAP BASE BLOCK
 000F4E 5000 A0B8            000B8  9329  2 1011.                  ST    R0,BITNO                SAVE IN IO/AREA
 000F52 41F0 A068            00068  9330  2 1012.                  LA    R15,IOHDR               HEADER
 USING  FBHDR,R15                   9331  2 1013.                  WITH  (FBHDR,R15),BEGIN
 000F56 BE07 F000            00000  9345  3 1014.                    ST3   R0,FBHBLOCK             SET BLOCK NUMBER
 000F5A D201 F006 6186 00006 001DE  9347  3 1015.                    MVC   FBHLEN,FSBLKSZ+2        SET BLOCK LENGTH
 000F60 B205 6008      00060        9348  3 1016.                    STCK  CONWORK2                GET TIME & DATE
 000F64 D203 F008 6008 00008 00060  9349  3 1017.                    MVC   FBHTIME,CONWORK2        SET TIME WRITTEN
 000F6A 9240 F003      00003        9350  3 1018.                    MVI   FBHTYPE,FBHTBIT         SET BIT MAP BLOCK
 DROP   FBHDR,R15                   9351  2 1019.                  END   ,
 000F6E 9680 A00C      0000C        9359  2 1020.                  SET   IOWRITE                 SET A WRITE REQUEST
 000F72 41E0 A800            00800  9365  2 1021.                  LA    R14,IOIXR               SET RECEIVE ADDRESS
 000F76 58F0 6184            001DC  9366  2 1022.                  L     R15,FSBLKSZ             AND RECEIVE LENGTH
 000F7A 181F                        9367  2 1023.                  LR    R1,R15                  COPY FROM LENGTH
 000F7C 1804                        9368  2 1024.                  LR    R0,QR                   AND FROM ADDRESS
 000F7E 0EE0                        9369  2 1025.                  MVCL  R14,R0                  MOVE INTO BUFFER IN AREA
 000F80 4D90 6548            005A0  9370  2 1026.                  LCALL BTTIO                   WRITE THAT SUCKER OUT MOM
 000F84 5E40 6184            001DC  9372  2 1027.                  AL    QR,FSBLKSZ              BUMP ADDRESS
 000F88 4110 0001            00001  9373  2 1028.                  INCR  R1,BLOCKID              Bump block ptr
 000F8C 5E10 619C            001F4  9377  2          +
 000F90 5010 619C            001F4  9378  2          +
 000F94 47F0 72D0            00F3E  9379  1 1029.                END   ,                  LOOP
1VFRY     (VFRY21) (09:47) (22MAR04) ORVYL File System Verify                                                               Page   51
0Current Usings:  (DATASEG,R6) (MAINLOOP,R7) (IOINFO,R10) (IXRDSECT,R11) (NXRYFL,R12)
0Loc    Object Code    Addr1 Addr2  Stmt Lv Lineno    Source Statement           (Hibal 5, Asmedit 3.3)  HLASM R4.0  2004/03/22 09.47
+___    ______ ____    _____ _____  ____ __ ______    ______ _________
0                                   9385  1 1031.     *
                                    9386  1 1032.     *  REWRITE ZERO BLOCKS TO ASSURE NO EXTRA BITS ARE ON
                                    9387  1 1033.     *
0000F98 4100 A800            00800  9389  1 1035.                LA    R0,IOIXR                SET ZERO ADDRESS
 000F9C 5810 6184            001DC  9390  1 1036.                L     R1,FSBLKSZ              AND LENGTH
 000FA0 1BFF                        9391  1 1037.                CLEAR R15                     ZERO LENGTH+PAD
 000FA2 0E0E                        9395  1 1038.                MVCL  R0,R14                  ZERO BUFFER IN IO/AREA
 000FA4 5840 6140            00198  9396  1 1039.                L     QR,BTTCNT               SET ENDING COUNT
 000FA8 5940 619C            001F4  9397  1 1040.                WHILE (BLOCKID,LT,QR),BEGIN   ZERO REMAINING MAP
 000FAC 47D0 737E            00FEC  9411  1          +
 000FB0 5800 619C            001F4  9416  2 1041.                  L     R0,BLOCKID              GET CURRENT OFFSET
 000FB4 5A00 613C            00194  9417  2 1042.                  A     R0,BTTBASE              + BIT-MAP BASE BLOCK
 000FB8 5000 A0B8            000B8  9418  2 1043.                  ST    R0,BITNO                SET IN IO/AREA
 000FBC 41F0 A068            00068  9419  2 1044.                  LA    R15,IOHDR               HEADER
 USING  FBHDR,R15                   9420  2 1045.                  WITH  (FBHDR,R15),BEGIN
 000FC0 BE07 F000            00000  9434  3 1046.                    ST3   R0,FBHBLOCK             SET BLOCK NUMBER
 000FC4 D201 F006 6186 00006 001DE  9436  3 1047.                    MVC   FBHLEN,FSBLKSZ+2        SET BLOCK LENGTH
 000FCA B205 6008      00060        9437  3 1048.                    STCK  CONWORK2                GET TIME & DATE
 000FCE D203 F008 6008 00008 00060  9438  3 1049.                    MVC   FBHTIME,CONWORK2        SET TIME WRITTEN
 000FD4 9240 F003      00003        9439  3 1050.                    MVI   FBHTYPE,FBHTBIT         SET BIT MAP BLOCK
 DROP   FBHDR,R15                   9440  2 1051.                  END   ,
 000FD8 4D90 6548            005A0  9448  2 1052.                  LCALL BTTIO                   WRITE OUT A ZERO BLOCK
 000FDC 4100 0001            00001  9450  2 1053.                  INCR  R0,BLOCKID              BUMP BLOCK NUMBER
 000FE0 5E00 619C            001F4  9454  2          +
 000FE4 5000 619C            001F4  9455  2          +
 000FE8 47F0 733A            00FA8  9456  1 1054.                END   ,
 000FEC 9108 6074      000CC        9461  1 1055.                IF    REBUILD,BEGIN
 000FF0 47E0 7394            01002  9471  1          +
 000FF4 4110 75DA            01248  9476  2 1056.                  VSEG  'VFRY (016): Bit map re-built'
 000FF8 4100 001C            0001C  9480  2          +
 000FFC 5890 75B6/0D99       01224  9483  2          +
 001002 7398           01002 00FF2  9485  1 1057.                END   ELSE,BEGIN
 001002 47F0 73A6            01014  9494  1          +
 001006 4110 76CD            0133B  9500  2 1058.                  VSEG  'VFRY (017): Bit map replaced in file system'
 00100A 4100 002B            0002B  9504  2          +
 00100E 5890 75B6/0D99       01224  9507  2          +
 001014                             9509  1 1059.                END   ,
 001014 5890 759E/0D99       0120C  9513  1 1060.                VWRITE ,                      OUTPUT LINE
 00101A                             9518    1061.              END   ,
1VFRY     (VFRY21) (09:47) (22MAR04) ORVYL File System Verify                                                               Page   52
0Current Usings:  (DATASEG,R6) (MAINLOOP,R7) (IOINFO,R10) (IXRDSECT,R11) (NXRYFL,R12)
0Loc    Object Code    Addr1 Addr2  Stmt Lv Lineno    Source Statement           (Hibal 5, Asmedit 3.3)  HLASM R4.0  2004/03/22 09.47
+___    ______ ____    _____ _____  ____ __ ______    ______ _________
0                                   9523    1063.     ****************************************************************** *
                                    9524    1064.     *                                                                  *
                                    9525    1065.     *                    Cleanup, return to system                     *
                                    9526    1066.     *                                                                  *
                                    9527    1067.     ****************************************************************** *
000101A 4110 76F8            01366  9529    1069.              VWRITE 'VFRY (018): VERIFY Finished'
 00101E 4100 001B            0001B  9534             +
 001022 5890 75B6/0D99       01224  9537             +
 001028 5890 759E/0D99       0120C  9541             +
 00102E 47F0 657E            005D6  9543    1070.              B     RETURN              Exit processing in common code
 DROP   MAINLOOP,R7                 9544    1071.              Drop  BR                  Release MAINLOOP addressability
1VFRY     (VFRY21) (09:47) (22MAR04) ORVYL File System Verify                                                               Page   53
0Current Usings:  (DATASEG,R6) (IOINFO,R10) (IXRDSECT,R11) (NXRYFL,R12)
0Loc    Object Code    Addr1 Addr2  Stmt Lv Lineno    Source Statement           (Hibal 5, Asmedit 3.3)  HLASM R4.0  2004/03/22 09.47
+___    ______ ____    _____ _____  ____ __ ______    ______ _________
0                                   9552    1073.     ********************************************************************
                                    9553    1074.     *                                                                  *
                                    9554    1075.     *  DOUSER ROUTINE                                                  *
                                    9555    1076.     *                                                                  *
                                    9556    1077.     *  THIS ROUTINE PROCESSES MIXR'S AND IF THERE IS A SIXR IT DOES THE*
                                    9557    1078.     *  IXRS.  IT CHECKS THE BIT MAP FOR EACH FILE BLOCK POINTER IN THE *
                                    9558    1079.     *  IXR (UP TO 660).  OK?   OK.                                     *
                                    9559    1080.     *                                                                  *
                                    9560    1081.     ********************************************************************
-001032                             9562    1083.     DOUSER   LABEL ,                   PROCESS MIXR OR IXR
 001032 9029 D000/188D       00000  9564    1084.              VENTER SR,RAR,*,LOCAL     SAVE CALLING REGISTERS
 001038 41D0 D020/0D70       00020  9568             +
 USING  *,R7                        9583    1085.              IF    (TYPE,NE,'HYBR'),BEGIN Not hybrid
 00103E D503 7226 A0E8 01264 000E8  9594             +
 001044 4780 7024            01062  9595             +
                                    9600  1 1086.   C            IF    (TYPE,EQ,'SIXR'),   SET PROPER ERROR LOCATION FIELD
 001048                                   1 1087.                      'MVC TYPE,=C" IXR"' ERROR OCCURRED IN IXR
 001048 D503 722A A0E8 01268 000E8  9611  1          +
 00104E 4770 701A            01058  9612  1          +
 001052 D203 A0E8 722E 000E8 0126C  9618  1          +
 001058 701E           01058 01050  9623  1 1088.                ELSE  'MVC TYPE,=C"MIXR"' ERROR OCCURRED IN MIXR
 001058 47F0 7024            01062  9628  1          +
 00105C D203 A0E8 7232 000E8 01270  9635  1          +
 001062                             9640    1089.              END   ,
 001062 9120 6076      000CE        9644    1090.              IF    (FRSTPASS,AND,DMPIXRS),'ACALL WRTIXR'
 001066 47E0 703A            01078  9656             +
 00106A 9180 6074      000CC        9667             +
 00106E 47E0 703A            01078  9668             +
 001072 5890 7236/0D99       01274  9676             +
0                                   9683    1092.     *
                                    9684    1093.     *  SET BIT MAP BIT FOR EACH BLK POINTED TO BY IXR
                                    9685    1094.     *
 001078 4130 B044            00044  9686    1095.              LA    R3,IXRNT            R3 - IXR entry pointer
 00107C 4140 B800            00800  9687    1096.              LA    QR,IXRSTART+L'IXR   Qr - end of IXR entries
 001080 1934/47B0 706E       010AC  9688    1097.              WHILE (R3,LT,QR),BEGIN    Process all IXR entries
 001086 D202 6199 3000 001F1 00000  9705  1 1098.                MVC   BLKNO+1(3),@R3      Set IXR entry
 00108C D203 A0B8 6198 000B8 001F0  9706  1 1099.                MVC   BITNO,BLKNO         Set bit for checkbit routine
 001092 5890 723A/0D99       01278  9707  1 1100.                ACALL CHECKBIT            Check bit map for this entry
 001098 4110 0001            00001  9711  1 1101.                INCR  R1,RELBLK           Update relative block pointer
 00109C 5E10 A0E4            000E4  9715  1          +
 0010A0 5010 A0E4            000E4  9716  1          +
 0010A4 4130 3003            00003  9717  1 1102.                LA    R3,@R3+L'IXRNT      Bump to next blk pointer
 0010A8 47F0 7042            01080  9718    1103.              END   ,                   Check next potential user block
 0010AC 18D8/9829 D000       00000  9723    1104.              VEXIT SR,RAR              Restore calling registers
 0010B2 07F9                        9727             +
1VFRY     (VFRY21) (09:47) (22MAR04) ORVYL File System Verify                                                               Page   54
0Current Usings:  (DATASEG,R6) (*,R7) (IOINFO,R10) (IXRDSECT,R11) (NXRYFL,R12)
0Loc    Object Code    Addr1 Addr2  Stmt Lv Lineno    Source Statement           (Hibal 5, Asmedit 3.3)  HLASM R4.0  2004/03/22 09.47
+___    ______ ____    _____ _____  ____ __ ______    ______ _________
0                                   9729    1106.     ¿þþþþþþþþþþþþþþþþþþþþþþþþþþþþþþþþþþþþþþþþþþþþþþþþþþþþþþþþþþþþþþþþþþþþþÜ
                                    9730    1107.     Ÿ                                                                     Ÿ
                                    9731    1108.     Ÿ  VFIOBAD -- Format and print error return data from VFIO I/O call   Ÿ
                                    9732    1109.     Ÿ                                                                     Ÿ
                                                      ¾þþþþþþþþþþþþþþþþþþþþþþþþþþþþþþþþþþþþþþþþþþþþþþþþþþþþþþþþþþþþþþþþþþþþþ»
00010B4 9029 D000/188D       00000  9734    1111.     VFIOBAD2 VENTER R2,RAR,*,LOCAL     Enter and save calling registers
 0010BA 41D0 D020/0D70       00020  9738             +
 0010C0 4110 72C1            01381  9756    1112.              VSEG  'VFRY (103): Bad return code from VFIO'
 DROP   *,R7
 USING  *,R7
 0010C4 4100 0025            00025  9760             +
 0010C8 5890 7164/0D99       01224  9763             +
 0010CE 5890 714C/0D99       0120C  9765    1113.              VWRITE ,                  Write to error file
 0010D4 4100 0010            00010  9770    1114.              VCNTL BLANK,12            Some filler
 0010D8 4110 000C            0000C  9778             +
 0010DC 5890 71BC/0D99       0127C  9787             +
 0010E2 4110 7140            01200  9789    1115.              VSEG  'Bitno(X'''
 0010E6 4100 0008            00008  9793             +
 0010EA 5890 7164/0D99       01224  9796             +
 0010F0 58F0 A0B8            000B8  9798    1116.              SEGHX 2,L:BITNO
 0010F4 4100 0002            00002  9811             +
 0010F8 4110 6018            00070  9818             +
 0010FC 58E0 71C0/0DEE       01280  9821             +
 001102 5890 7164/0D99       01224  9838             +
 001108 4110 72E6            013A6  9840    1117.              VSEG  ' '                 Set some spacing
 00110C 4100 0001            00001  9844             +
 001110 5890 7164/0D99       01224  9847             +
 001116 1FFF/BFF7 A0B9       000B9  9849    1118.              SEGHX 6,L3:BITNO+1        Retrieve associated block number
 00111C 4100 0006            00006  9868             +
 001120 4110 6018            00070  9875             +
 001124 58E0 71C0/0DEE       01280  9878             +
 00112A 5890 7164/0D99       01224  9895             +
 001130 4110 72E7            013A7  9897    1119.              VSEG  ''')  File='        Terminate string
 001134 4100 0009            00009  9901             +
 001138 5890 7164/0D99       01224  9904             +
 00113E 4110 A0BC            000BC  9906    1120.              VSEG  FILENAME,L'FILENAME Report associated file name
 001142 4100 0028            00028  9922             +
 001146 5890 7164/0D99       01224  9925             +
 00114C 5890 714C/0D99       0120C  9927    1121.              VWRITE ,                  Write to report file
0001152 4100 0010            00010  9933    1123.              VCNTL BLANK,12
 001156 4110 000C            0000C  9941             +
 00115A 5890 71BC/0D99       0127C  9950             +
 001160 4110 72F0            013B0  9952    1124.              VSEG  'CCW Chain: '
 001164 4100 000B            0000B  9956             +
 001168 5890 7164/0D99       01224  9959             +
 00116E 4120 0005            00005  9961    1125.              LA    R2,5                CCW LOOP COUNT
 001172 4130 A040            00040  9962    1126.              LA    R3,IOCCW            ADDRESS OF CCW CHAIN
 001176 1222/4780 711A       011DA  9963    1127.              WHILE (R2,NZ),BEGIN       Format and print CCW chain
 00117C 58F0 3000            00000  9979  1 1128.                SEGHX 8,L:@R3             Format 1st half of CCW
 001180 4100 0008            00008  9992  1          +
 001184 4110 6018            00070  9999  1          +
 001188 58E0 71C0/0DEE       01280 10002  1          +
1VFRY     (VFRY21) (09:47) (22MAR04) ORVYL File System Verify                                                               Page   55
0Current Usings:  (DATASEG,R6) (*,R7) (IOINFO,R10) (IXRDSECT,R11) (NXRYFL,R12)
0Loc    Object Code    Addr1 Addr2  Stmt Lv Lineno    Source Statement           (Hibal 5, Asmedit 3.3)  HLASM R4.0  2004/03/22 09.47
+___    ______ ____    _____ _____  ____ __ ______    ______ _________
000118E 5890 7164/0D99       01224 10019  1          +
 001194 4110 72E6            013A6 10021  1 1129.                VSEG  ' '                 Add some space
 001198 4100 0001            00001 10025  1          +
 00119C 5890 7164/0D99       01224 10028  1          +
 0011A2 58F0 3004            00004 10030  1 1130.                SEGHX 8,L:@R3+4           Format 2nd hald of CCW
 0011A6 4100 0008            00008 10043  1          +
 0011AA 4110 6018            00070 10050  1          +
 0011AE 58E0 71C0/0DEE       01280 10053  1          +
 0011B4 5890 7164/0D99       01224 10070  1          +
 0011BA 5890 714C/0D99       0120C 10072  1 1131.                VWRITE ,                  WRITE TO ERROR FILE
 0011C0 4100 0010            00010 10077  1 1132.                VCNTL BLANK,23            Tab over for next CCW
 0011C4 4110 0017            00017 10085  1          +
 0011C8 5890 71BC/0D99       0127C 10094  1          +
 0011CE 4130 3008            00008 10096  1 1133.                LA    R3,@R3+8            BUMP TO NEXT CCW
 0011D2 5B20 71C4            01284 10097  1 1134.                S     R2,=A(1)            DECREMENT COUNT
 0011D6 47F0 70B6            01176 10098    1135.              END   ,
 0011DA 5890 714C/0D99       0120C 10103    1136.              VWRITE ,                  Terminate with a blank line
 0011E0 9210 6053      000AB       10108    1137.              SETCODE =16               Set return code
 0011E4 18D8/9829 D000       00000 10110    1138.              VEXIT R2,RAR              Restore registers and return
 0011EA 07F9                       10114             +
-
 0011F0                            10116    1140.              LTORG ,
 0011F0 40C293968392A240           10118                             =C' Blocks in use, '
 001200 C289A395964DE77D           10119                             =C'Bitno(X'''
 001208 0000212C                   10120                             =A(PRSTAT)
 00120C 00000000                   10121                             =V(VWRITE)
 001210 00002480                   10122                             =A(WRITEOUT)
 001214 000013C2                   10123                             =A(LISTNTRY)
 001218 E5C6D9E8404DF0F1           10124                             =C'VFRY (013): '
 001224 00000000                   10125                             =V(VSEG)
 001228 00000000                   10126                             =V(BTD)
 00122C 00000100                   10127                             =A(256)
 001230 E5C6D9E8404DF0F1           10128                             =C'VFRY (014): '
 00123C 00000000                   10129                             =V(BTDC)
 001240 00002242                   10130                             =A(XORCORE)
 001244 000015B4                   10131                             =A(SETBIT)
 001248 E5C6D9E8404DF0F1           10132                             =C'VFRY (016): Bit map re-built'
 001264 C8E8C2D9                   10133                             =C'HYBR'
 001268 E2C9E7D9                   10134                             =C'SIXR'
 00126C 40C9E7D9                   10135                             =C' IXR'
 001270 D4C9E7D9                   10136                             =C'MIXR'
 001274 00001662                   10137                             =A(WRTIXR)
 001278 000016BE                   10138                             =A(CHECKBIT)
 00127C 00000000                   10139                             =V(VCNTRL)
 001280 00000000                   10140                             =V(BTX)
 001284 00000001                   10141                             =A(1)
 001288 D7E3D94040C5D9D9           10142                             =C'PTR  ERR  FILE'
 001296 E3E8D7C540C3D6C4           10143                             =C'TYPE CODE NAME'
 0012A4 C2D3D6C3D27B4040           10144                             =C'BLOCK#  BYTE,BIT  REL BLK.'
 0012BE 40D6D9E5E8D340C6           10145                             =C' ORVYL File errors'
 0012D0 40C293968392A240           10146                             =C' Blocks available.'
 0012E2 E5C6D9E8404DF0F1           10147                             =C'VFRY (015): Lost block count ='
1VFRY     (VFRY21) (09:47) (22MAR04) ORVYL File System Verify                                                               Page   56
0Current Usings:  (DATASEG,R6) (*,R7) (IOINFO,R10) (IXRDSECT,R11) (NXRYFL,R12)
0Loc    Object Code    Addr1 Addr2  Stmt Lv Lineno    Source Statement           (Hibal 5, Asmedit 3.3)  HLASM R4.0  2004/03/22 09.47
+___    ______ ____    _____ _____  ____ __ ______    ______ _________
0001300 E5C6D9E8404DF0F1           10148                             =C'VFRY (019): Max block in use ='
 00131E D7C8E8E24B404040           10149                             =C'PHYS.    FD  REL   FILE'
 001335 C3C3C8C8D9                 10150                             =C'CCHHR'
 00133A FF                         10151                             =X'FF'
 00133B E5C6D9E8404DF0F1           10152                             =C'VFRY (017): Bit map replaced in file system'
 001366 E5C6D9E8404DF0F1           10153                             =C'VFRY (018): VERIFY Finished'
 001381 E5C6D9E8404DF1F0           10154                             =C'VFRY (103): Bad return code from VFIO'
 0013A6 40                         10155                             =C' '
 0013A7 7D5D4040C6899385           10156                             =C''')  File='
 0013B0 C3C3E640C3888189           10157                             =C'CCW Chain: '
1VFRY     (VFRY21) (09:47) (22MAR04) ORVYL File System Verify                                                               Page   57
0Current Usings:  (DATASEG,R6) (*,R7) (IOINFO,R10) (IXRDSECT,R11) (NXRYFL,R12)
0Loc    Object Code    Addr1 Addr2  Stmt Lv Lineno    Source Statement           (Hibal 5, Asmedit 3.3)  HLASM R4.0  2004/03/22 09.47
+___    ______ ____    _____ _____  ____ __ ______    ______ _________
0                                  10162    1142.     ¿þþþþþþþþþþþþþþþþþþþþþþþþþþþþþþþþþþþþþþþþþþþþþþþþþþþþþþþþþþþþþþþþþþþþþÜ
                                   10163    1143.     Ÿ                                                                     Ÿ
                                   10164    1144.     Ÿ  LISTNTRY Subroutine                                                Ÿ
                                   10165    1145.     Ÿ                                                                     Ÿ
                                                      ¾þþþþþþþþþþþþþþþþþþþþþþþþþþþþþþþþþþþþþþþþþþþþþþþþþþþþþþþþþþþþþþþþþþþþþ»
00013C2                            10167    1147.     LISTNTRY LABEL ,
 0013C2 9029 D000/188D       00000 10169    1148.              VENTER SR,RAR,*,LOCAL     Enter and save calling registers
 0013C8 41D0 D020/0D70       00020 10173             +
 0013CE 1821                       10191    1149.              LR    SR,R1                   COPY ERROR LIST ADDRESS
 DROP   *,R7
 USING  *,R7
 USING  SERRLST,R2                 10192    1150.              USING SERRLST,SR              ## ADDR FOR ERROR LIST
 0013D0 5810 2000/1211       00000 10201    1151.              LT    R1,SERRLO               GET LOW SIDE OF TREE
 0013D6 4780 7012            013E0 10205    1152.              IF    NZ,'ACALL LISTNTRY'     PRINT THAT FIRST
 0013DA 5890 725A/0D99       01628 10219             +
 0013E0 4140 724A            01618 10225    1153.              LA    QR,=C'0123456789ABCDEF'       TR TABLE FOR EBCDIC
 0013E4 5B40 725E            0162C 10226    1154.              S     QR,=F'240'                    PROPERLY OFFSET
 0013E8 D203 6077 2044 000CF 00044 10227    1155.              MVC   PLINE(L'SERRTYPE),SERRTYPE    Set type in line
 0013EE D227 6081 2018 000D9 00018 10228    1156.              MVC   PLINE+10(L'SERRNAME),SERRNAME FILE NAME PLEASE
 0013F4 D200 607D 2014 000D5 00014 10229    1157.              MVC   PLINE+6(1),SERRCLAS           SET CLASS OF ERROR
 0013FA 9120 2010      00010       10230    1158.              IF    SERR7,'MVI PLINE+6,7'         REALLY IS A "7"
 0013FE 47E0 7038            01406 10240             +
 001402 9207 607D      000D5       10246             +
 001406 96F0 607D      000D5       10251    1159.              OI    PLINE+6,C'0'                  EBCDIC IT
 00140A F363 6000 2015 00058 00015 10252    1160.              UNPK  CONWORK(7),SERRBIT+1(4)
 001410 DC05 6000 4000 00058 00000 10253    1161.              TR    CONWORK(6),@QR          55-60 - BLKNO
 001416 D205 60AE 6000 00106 00058 10254    1162.              MVC   PLINE+55(6),CONWORK     SET INTO OUTPUT BUFFER
 00141C 1F11/BF17 2015       00015 10255    1163.              L3    R1,SERRBIT+1            CALCULATE BYTE,BIT NUMBER FROM
 001422 8810 0003            00003 10263    1164.              SRL   R1,3                    OFFSET FOR FIRST BIT IN TABLE
 001426 5010 6008            00060 10264    1165.              ST    R1,CONWORK2             SAVE IN WORK AREA
 00142A F363 6000 6009 00058 00061 10265    1166.              UNPK  CONWORK(7),CONWORK2+1(4)      CONVERT TO EBCDIC
 001430 DC05 6000 4000 00058 00000 10266    1167.              TR    CONWORK(6),@QR                TRANSLATE BYTES
 001436 D205 60B6 6000 0010E 00058 10267    1168.              MVC   PLINE+63(6),CONWORK     63-68 = FD BYTE NUMBER
 00143C 926B 60BC      00114       10268    1169.              MVI   PLINE+69,C','           Place comma
 001440 5810 2014            00014 10269    1170.              L     R1,SERRBIT              Calculate bit offset
 001444 5410 7262            01630 10270    1171.              N     R1,=F'7'                Mask for just bit
 001448 4210 60BD            00115 10271    1172.              STC   R1,PLINE+70             70 - FD BIT NUMBER
 00144C 96F0 60BD      00115       10272    1173.              OI    PLINE+70,C'0'           EBCDIC IT
 001450 D503 2044 7266 00044 01634 10273    1174.              CLC   SERRTYPE,=C'DIR.'       IF DIR. OR SIXR, GIVE CCHHR
 001456 4780 7096            01464 10274    1175.              IF    (E,OR,(SERRTYPE,EQ,=C'SIXR')),BEGIN
 00145A D503 726A 2044 01638 00044 10295             +
 001460 4770 70B2            01480 10296             +
 001464 D607 2048 2048 00048 00048 10301  1 1176.                OC    SERRCCHH(8),SERRCCHH    CCHHR KNOWN?
 00146A 4780 70B2            01480 10302  1 1177.                IF    Z,EXIT                  NO
 00146E F3A5 6000 204B 00058 0004B 10316  1 1178.                UNPK  CONWORK(11),SERRCCHH+3(6)
 001474 DC09 6000 4000 00058 00000 10317  1 1179.                TR    CONWORK(10),@QR         93-102 - CCHHR,  IF SIXR,DIR
 00147A D209 60D4 6000 0012C 00058 10318  1 1180.                MVC   PLINE+93(10),CONWORK
 001480                            10319    1181.              END   ,
 001480 D503 2044 7266 00044 01634 10323    1182.              CLC   SERRTYPE,=C'DIR.'
 001486 4780 70FE            014CC 10324    1183.              IF    NE,BEGIN                IF NOT DIR., REL BLKNO VALID
 00148A 5810 2040            00040 10335  1 1184.                L     R1,SERRREL              GET FILE RELATIVE BLOCK
 00148E D503 2044 726A 00044 01638 10336  1 1185.                CLC   SERRTYPE,=C'SIXR'       IF SIXR, REL BLK=IXR NO * 660
 001494 4770 70D0            0149E 10337  1 1186.                IF    E,BEGIN                          + IXR OFFSET FOR BLK
1VFRY     (VFRY21) (09:47) (22MAR04) ORVYL File System Verify                                                               Page   58
0Current Usings:  (SERRLST,R2) (DATASEG,R6) (*,R7) (IOINFO,R10) (IXRDSECT,R11) (NXRYFL,R12)
0Loc    Object Code    Addr1 Addr2  Stmt Lv Lineno    Source Statement           (Hibal 5, Asmedit 3.3)  HLASM R4.0  2004/03/22 09.47
+___    ______ ____    _____ _____  ____ __ ______    ______ _________
0001498 1B00                       10348  2 1187.                  SR    R0,R0
 00149A 5D00 726E            0163C 10349  2 1188.                  D     R0,=A(IXRNT#)
 00149E                            10350  1 1189.                END   ,
 00149E 4E10 6000            00058 10354  1 1190.                CVD   R1,CONWORK
 0014A2 960F 6007      0005F       10355  1 1191.                OI    CONWORK+7,X'0F'
 0014A6 F357 60CC 6000 00124 00058 10356  1 1192.                UNPK  PLINE+85(6),CONWORK(8)  CONVERT TO EBCDIC
 0014AC 5010 A0E4            000E4 10357  1 1193.                ST    R1,RELBLK
 0014B0 F384 6000 A0E4 00058 000E4 10358  1 1194.                UNPK  CONWORK(9),RELBLK(5)
 0014B6 DC07 6000 4000 00058 00000 10359  1 1195.                TR    CONWORK(8),@QR          73 - 81 = REL BLK NO (HEX)
 0014BC D201 60C0 728A 00118 01658 10360  1 1196.                MVC   PLINE+73(2),=X'E77D'    SET "X'"
 0014C2 D205 60C2 6002 0011A 0005A 10361  1 1197.                MVC   PLINE+75(6),CONWORK+2
 0014C8 927D 60C8      00120       10362  1 1198.                MVI   PLINE+81,X'7D'          SET "'"
 0014CC                            10363    1199.              END   ,
 0014CC 5890 7272/0D99       01640 10367    1200.              ACALL WRITEOUT
00014D2 5810 2004/1211       00004 10372    1202.              LT    R1,SERRHI               GET HIGH SIDE OF TREE
 0014D8 4780 7114            014E2 10376    1203.              IF    NZ,'ACALL LISTNTRY'     PRINT THOSE TOO
 0014DC 5890 725A/0D99       01628 10390             +
 0014E2 18D8/9829 D000       00000 10396    1204.              VEXIT SR,RAR
 0014E8 07F9                       10400             +
 DROP   SERRLST,R2                 10401    1205.              DROP  SR                      ## RLSE ERROR LIST ADDR
1VFRY     (VFRY21) (09:47) (22MAR04) ORVYL File System Verify                                                               Page   59
0Current Usings:  (DATASEG,R6) (*,R7) (IOINFO,R10) (IXRDSECT,R11) (NXRYFL,R12)
0Loc    Object Code    Addr1 Addr2  Stmt Lv Lineno    Source Statement           (Hibal 5, Asmedit 3.3)  HLASM R4.0  2004/03/22 09.47
+___    ______ ____    _____ _____  ____ __ ______    ______ _________
0                                  10409    1207.     ¿þþþþþþþþþþþþþþþþþþþþþþþþþþþþþþþþþþþþþþþþþþþþþþþþþþþþþþþþþþþþþþþþþþþþþÜ
                                   10410    1208.     Ÿ                                                                     Ÿ
                                   10411    1209.     Ÿ  GETIXR ROUTINE                                                     Ÿ
                                   10412    1210.     Ÿ                                                                     Ÿ
                                   10413    1211.     Ÿ  THIS ROUTINE READS AN IXR BLOCK, THE BLOCK NUMBER IS IN BLKNO.     Ÿ
                                   10414    1212.     Ÿ                                                                     Ÿ
                                                      ¾þþþþþþþþþþþþþþþþþþþþþþþþþþþþþþþþþþþþþþþþþþþþþþþþþþþþþþþþþþþþþþþþþþþþþ»
-0014EA                            10416    1214.     GETIXR   LABEL ,                   Read an IXR from file system
 0014EA 9029 D000/188D       00000 10418    1215.              VENTER SR,RAR,*,LOCAL     Save calling registers
 0014F0 41D0 D020/0D70       00020 10422             +
 0014F6 947F 6076      000CE       10440    1216.              CLEAR ERROR               Preset no error found
 DROP   *,R7
 USING  *,R7
 0014FA 5830 6198            001F0 10447    1217.              L     TR,BLKNO            TR - block to read
 0014FE 5930 714E            01644 10448    1218.              IF    (TR,GT,0),BEGIN
 001502 47D0 70B2            015A8 10460             +
 001506 5030 A0B8            000B8 10465  1 1219.                ST    TR,BITNO            Set for adderr routine
 00150A 9201 A0B8      000B8       10466  1 1220.                MVI   CLASS,ERR_RANG      Set out-of-range error
 00150E                            10467  1 1221.                CLEAR (CCHHR,8)           Unknown block id
 00150E D707 A0EC A0EC 000EC 000EC 10473  1          +
 001514 5890 7152/0D99       01648 10474  1 1222.                ACALL CHECKBIT            Set bit for IXR itself
 00151A                            10478  1 1223.                CLEAR MAINECB             Clear ecb for file i/o
 00151A D703 6178 6178 001D0 001D0 10484  1          +
 001520 181A                       10485  1 1224.                LR    R1,R10              COPY IOAREA ADDRESS
 001522 5890 7156/0D99       0164C 10486  1 1225.                VCALL VFIO                READ IXR BLOCK
 001528 4770 650C            00564 10490  1 1226.                IF    NZ,VFIOBAD          ERROR ABORT
 00152C 4100 0001            00001 10504  1 1227.                WAIT  ECB=MAINECB         WAIT FOR I/O COMP
 001530 4110 6178/0A01       001D0 10509  1          +
 001536                            10511  1 1228.                IF    (MAINECB,NE,=X'7F'),BEGIN
 001536 D500 7166 6178 0165C 001D0 10522  1          +
 00153C 4780 7058            0154E 10523  1          +
 001540 9202 A0B8      000B8       10528  2 1229.                  MVI   CLASS,2             IXR Read error
 001544 9680 6076      000CE       10529  2 1230.                  SET   ERROR               SET ERROR INDICATOR
 001548 5890 715A/0D99       01650 10535  2 1231.                  ACALL CHKRBLD             CHECK BIT MAP REBUILD STATUS
 00154E                            10539  1 1232.                END   ,
 00154E 705C           0154E 0153E 10543  1 1233.                ELSE  BEGIN ,             IXR READ IN OK
 00154E 47F0 70B2            015A8 10548  1          +
 001552 41B0 A800            00800 10554  2 1234.                  LA    R11,IOIXR           SET IXR REGISTER
 001556 D207 A7F8 A068 007F8 00068 10555  2 1235.                  MVC   MAINHDR(8),IOHDR    SET HEADER IN PROPER PLACE
 00155C D207 A0EC A038 000EC 00038 10556  2 1236.                  MVC   CCHHR(8),IOBSEEK    SET CYLINDER ADDRESS
 001562                            10557  2 1237.                  IF    (IXRECNO,NE,BLKNO+1),BEGIN   Block Number wrong
 001562 D502 B001 6199 00001 001F1 10569  2          +
 001568 4780 7082            01578 10570  2          +
 00156C 9680 6076      000CE       10575  3 1238.                    SET   ERROR               BAD ERROR
 001570 9204 A0B8      000B8       10581  3 1239.                    MVI   CLASS,ERR_IXNO      4 - IXR BLKNO WRONG
 001574 4D90 66B0            00708 10582  3 1240.                    LCALL ADDERR              ADD TO ERROR LIST
 001578                            10584  2 1241.                  END   ,
 001578 7086           01578 0156A 10588  2 1242.                  ELSEIF (FILENAME,NE,IXRNAME),BEGIN   FILENAME MISMATCH
 001578 47F0 709C            01592 10594  2          +
 00157C D527 A0BC B004 000BC 00004 10609  2          +
 001582 4780 709C            01592 10610  2          +
 001586 9208 A0B8      000B8       10615  3 1243.                    MVI   CLASS,ERR_FILN          8 - FILENAME IN ERROR
1VFRY     (VFRY21) (09:47) (22MAR04) ORVYL File System Verify                                                               Page   60
0Current Usings:  (DATASEG,R6) (*,R7) (IOINFO,R10) (IXRDSECT,R11) (NXRYFL,R12)
0Loc    Object Code    Addr1 Addr2  Stmt Lv Lineno    Source Statement           (Hibal 5, Asmedit 3.3)  HLASM R4.0  2004/03/22 09.47
+___    ______ ____    _____ _____  ____ __ ______    ______ _________
000158A 4D90 66B0            00708 10616  3 1244.                    LCALL ADDERR                  ADD TO ERROR LIST
 00158E 9680 6076      000CE       10618  3 1245.                    SET   ERROR                   SET ERROR FLAG
 001592                            10624  2 1246.                  END   ,
 001592 70A0           01592 01584 10628  2 1247.                  ELSEIF (MAINSZ,NE,L'IXR),BEGIN     IXR BLOCK LENGTH WRONG
 001592 47F0 70B2            015A8 10634  2          +
 001596 D501 7164 A7FE 0165A 007FE 10648  2          +
 00159C 4780 70B2            015A8 10649  2          +
 0015A0 9209 A0B8      000B8       10654  3 1248.                    MVI   CLASS,ERR_IXLN                9 - IXR BLKLNGTH WRONG
 0015A4 4D90 66B0            00708 10655  3 1249.                    LCALL ADDERR                        ADD TO ERROR LIST
 0015A8                            10657  2 1250.                  END   ,
 0015A8                            10661  1 1251.                END   ,
 0015A8                            10665    1252.              END   ,
 0015A8 9180 6076      000CE       10669    1253.              TM    ERROR,L'ERROR           Set return code
 0015AC 18D8/9829 D000       00000 10670    1254.              VEXIT SR,RAR                  RESTORE REGISTERS
 0015B2 07F9                       10674             +
1VFRY     (VFRY21) (09:47) (22MAR04) ORVYL File System Verify                                                               Page   61
0Current Usings:  (DATASEG,R6) (*,R7) (IOINFO,R10) (IXRDSECT,R11) (NXRYFL,R12)
0Loc    Object Code    Addr1 Addr2  Stmt Lv Lineno    Source Statement           (Hibal 5, Asmedit 3.3)  HLASM R4.0  2004/03/22 09.47
+___    ______ ____    _____ _____  ____ __ ______    ______ _________
0                                  10676    1256.     ¿þþþþþþþþþþþþþþþþþþþþþþþþþþþþþþþþþþþþþþþþþþþþþþþþþþþþþþþþþþþþþþþþþþþþþÜ
                                   10677    1257.     Ÿ                                                                     Ÿ
                                   10678    1258.     Ÿ        SETBIT ROUTINE                                               Ÿ
                                   10679    1259.     Ÿ                                                                     Ÿ
                                   10680    1260.     Ÿ  THIS ROUTINE SETS THE BIT SPECIFIED BY BLKNO                       Ÿ
                                   10681    1261.     Ÿ                                                                     Ÿ
                                                      ¾þþþþþþþþþþþþþþþþþþþþþþþþþþþþþþþþþþþþþþþþþþþþþþþþþþþþþþþþþþþþþþþþþþþþþ»
-0015B4                            10683    1263.     SETBIT   LABEL ,
 0015B4 9029 D000/188D       00000 10685    1264.              VENTER R2,RAR,*,LOCAL     Enter and save registers
 0015BA 41D0 D020/0D70       00020 10689             +
 0015C0 1851                       10707    1265.              LR    R5,R1                   COPY ERROR LIST PTR
 DROP   *,R7
 USING  *,R7
 USING  SERRLST,R5                 10708    1266.              USING SERRLST,R5              ## ADDR FOR ERROR LIST
 0015C2 5810 5000/1211       00000 10717    1267.              LT    R1,SERRLO               GET LOW SIDE FIRST
 0015C8 4780 7012            015D2 10721    1268.              IF    NZ,'ACALL SETBIT'       SET THESE BITS TOO
 0015CC 5890 7094/0D99       01654 10735             +
 0015D2 9506 5014      00014       10741    1269.              IF    (SERRCLAS,EQ,6),BEGIN   TURN THE 6'S ON
 0015D6 4770 7040            01600 10754             +
 0015DA 5820 5014            00014 10759  1 1270.                L     SR,SERRBIT              GET BLOCK NUMBER
 0015DE 4120 2000            00000 10760  1 1271.                LA    SR,@SR                  CLEAR HIGH-ORDER BYTE
 0015E2 8C20 0003            00003 10761  1 1272.                SRDL  SR,3                    SR - Byte in bitmap
 0015E6 8830 001D            0001D 10762  1 1273.                SRL   R3,29              R3 - BIT
 0015EA 9201 A0B8      000B8       10763  1 1274.                MVI   CLASS,ERR_RANG      BLOCK NUMBER IS OUT OF BOUNDS
 0015EE 4140 0080            00080 10764  1 1275.                LA    QR,X'80'
 0015F2 8840 3000            00000 10765  1 1276.                SRL   QR,0(R3)           BIT NUMBER TO BIT
 0015F6 5810 6130            00188 10766  1 1277.                L     R1,BTTMEMST
 0015FA 1A12                       10767  1 1278.                AR    R1,R2              R1 - BYTE LOCATION
 0015FC 4440 709E            0165E 10768  1 1279.                EX    QR,'OI  @R1,0'          SET BIT ON
 00165D 00/9600 1000   00000              1          +
 001600                            10784    1280.              END   ,
 001600 5810 5004/1211       00004 10788    1281.              LT    R1,SERRHI               GET HIGH SIDE OF LIST
 001606 4780 7050            01610 10792    1282.              IF    NZ,'ACALL SETBIT'       TURN TO HIGHS TOO, --PUFF
 00160A 5890 7094/0D99       01654 10806             +
 001610 18D8/9829 D000       00000 10812    1283.              VEXIT SR,RAR              Restore registers and return
 001616 07F9                       10816             +
 DROP   SERRLST,R5                 10817    1284.              DROP  R5                      ## RLSE ADDR FOR ERROR LIST
1VFRY     (VFRY21) (09:47) (22MAR04) ORVYL File System Verify                                                               Page   62
0Current Usings:  (DATASEG,R6) (*,R7) (IOINFO,R10) (IXRDSECT,R11) (NXRYFL,R12)
0Loc    Object Code    Addr1 Addr2  Stmt Lv Lineno    Source Statement           (Hibal 5, Asmedit 3.3)  HLASM R4.0  2004/03/22 09.47
+___    ______ ____    _____ _____  ____ __ ______    ______ _________
0                                  10825    1286.     ¿þþþþþþþþþþþþþþþþþþþþþþþþþþþþþþþþþþþþþþþþþþþþþþþþþþþþþþþþþþþþþþþþþþþþþÜ
                                   10826    1287.     Ÿ                                                                     Ÿ
                                   10827    1288.     Ÿ  Define literal pool                                                Ÿ
                                   10828    1289.     Ÿ                                                                     Ÿ
                                                      ¾þþþþþþþþþþþþþþþþþþþþþþþþþþþþþþþþþþþþþþþþþþþþþþþþþþþþþþþþþþþþþþþþþþþþþ»
-001618                            10830    1291.              LTORG ,
 001618 F0F1F2F3F4F5F6F7           10832                             =C'0123456789ABCDEF'
 001628 000013C2                   10833                             =A(LISTNTRY)
 00162C 000000F0                   10834                             =F'240'
 001630 00000007                   10835                             =F'7'
 001634 C4C9D94B                   10836                             =C'DIR.'
 001638 E2C9E7D9                   10837                             =C'SIXR'
 00163C 00000294                   10838                             =A(IXRNT#)
 001640 00002480                   10839                             =A(WRITEOUT)
 001644 00000000                   10840                             =A(0)
 001648 000016BE                   10841                             =A(CHECKBIT)
 00164C 00000000                   10842                             =V(VFIO)
 001650 00000B2C                   10843                             =A(CHKRBLD)
 001654 000015B4                   10844                             =A(SETBIT)
 001658 E77D                       10845                             =X'E77D'
 00165A 0800                       10846                             =AL2(L'IXR)
 00165C 7F             01662 02EB0 10847                             =X'7F'
1VFRY     (VFRY21) (09:47) (22MAR04) ORVYL File System Verify                                                               Page   63
0Current Usings:  (DATASEG,R6) (*,R7) (IOINFO,R10) (IXRDSECT,R11) (NXRYFL,R12)
0Loc    Object Code    Addr1 Addr2  Stmt Lv Lineno    Source Statement           (Hibal 5, Asmedit 3.3)  HLASM R4.0  2004/03/22 09.47
+___    ______ ____    _____ _____  ____ __ ______    ______ _________
0                                  10852    1293.     ¿þþþþþþþþþþþþþþþþþþþþþþþþþþþþþþþþþþþþþþþþþþþþþþþþþþþþþþþþþþþþþþþþþþþþþÜ
                                   10853    1294.     Ÿ                                                                     Ÿ
                                   10854    1295.     Ÿ WRTIXR SUBROUTINE                                                   Ÿ
                                   10855    1296.     Ÿ                                                                     Ÿ
                                   10856    1297.     Ÿ  WRITE AN IXR TO IXRDUMP TAPE FOR SELECTIVE RESTORE.                Ÿ
                                   10857    1298.     Ÿ                                                                     Ÿ
                                                      ¾þþþþþþþþþþþþþþþþþþþþþþþþþþþþþþþþþþþþþþþþþþþþþþþþþþþþþþþþþþþþþþþþþþþþþ»
-001662 9029 D000/188D       00000 10859    1300.     WRTIXR   VENTER SR,RAR,*,LOCAL     Enter and save calling registers
 001668 41D0 D020/0D70       00020 10863             +
 DROP   *,R7                       10881    1301.     *         NI    IXRSTATE,X'C0'      Blitz filemask in IXR
 USING  *,R7
 00166E 94F0 B000      00000       10882    1302.              NI    IXRSTATE,X'F0'      Blitz filemask in IXR
 001672 D227 A7C8 A0BC 007C8 000BC 10883    1303.              MVC   MYFILE,FILENAME     Set filename in sres header
 001678 D203 A7F0 780A 007F0 01E78 10884    1304.              MVC   MYFILE+40(4),=CL4' '    blank out remainder
                                   10885    1305.     *         IF    IXRMIXR,'MVC USERINFO(6),UINFO'  FOR SIXR'S OR MIXR'S
 00167E 9180 B000      00000       10886    1306.              IF    (IXRMIXR,OR,IXRFIXR),'MVC USERINFO(6),UINFO'
 001682 4710 7020            0168E 10900             +
 001686 9110 B000      00000       10909             +
 00168A 47E0 7026            01694 10910             +
 00168E D205 A83E 60FB 0083E 00153 10916             +
 001694 D203 A7F4 A0E4 007F4 000E4 10921    1307.              MVC   MYREL,RELBLK        If requested, output sixr info
 00169A 4110 62B4            0030C 10922    1308.              PUT   IXRDCB,MYHDR        Write IXR block to tape
 00169E 4100 A7C8/1FFF       007C8 10925             +
 0016A4 BFF7 1031/05EF       00031 10927             +
 0016AA 4110 0001            00001 10929    1309.              INCR  R1,IXRSOUT          Count it
 0016AE 5E10 6194            001EC 10933             +
 0016B2 5010 6194            001EC 10934             +
 0016B6 18D8/9829 D000       00000 10935    1310.              VEXIT SR,RAR              Return to caller
 0016BC 07F9                       10939             +
1VFRY     (VFRY21) (09:47) (22MAR04) ORVYL File System Verify                                                               Page   64
0Current Usings:  (DATASEG,R6) (*,R7) (IOINFO,R10) (IXRDSECT,R11) (NXRYFL,R12)
0Loc    Object Code    Addr1 Addr2  Stmt Lv Lineno    Source Statement           (Hibal 5, Asmedit 3.3)  HLASM R4.0  2004/03/22 09.47
+___    ______ ____    _____ _____  ____ __ ______    ______ _________
0                                  10941    1312.     ********************************************************************
                                   10942    1313.     *                                                                  *
                                   10943    1314.     *  CHECKBIT ROUTINE                                                *
                                   10944    1315.     *                                                                  *
                                   10945    1316.     *   This routine is called to process the bit map.  On the first   *
                                   10946    1317.     *   pass it turns off the appropriate bit in the bit table.  If the*
                                   10947    1318.     *   bit is already off we have an error of class 6.  On the second *
                                   10948    1319.     *   pass, we determine if bit was just off or claimed by someone   *
                                   10949    1320.     *   else (class 7 err).  The second pass only occurs if we have an *
                                   10950    1321.     *   error on the first pass.  During the second pass we must search*
                                   10951    1322.     *   the error list for doubly claimed blocks.  Check it out below. *
                                   10952    1323.     *                                                                  *
                                   10953    1324.     *                                                                  *
                                   10954    1325.     *    |  THE FOLLOWING ERRORS PROCESSED BELOW:                      *
                                   10955    1326.     *    |  TYPE 6: FD BIT NOT ON FOR THIS BLOCK                 PASS 1*
                                   10956    1327.     *    |  TYPE 7: MULTIPLE FILES HAVE  CLAIMED THIS BLKNO      PASS 2*
                                   10957    1328.     *    |           BIT TABLE   0   0   0   0   1   1   1   1         *
                                   10958    1329.     *    |           USER A      0   0   1   1   0   0   1   1         *
                                   10959    1330.     *    |           USER X      0   1   0   1   0   1   0   1         *
                                   10960    1331.     *    |           ERR TYPE   OK   6   6  6/7  LB  OK  OK  7         *
                                   10961    1332.     *                                                                  *
                                   10962    1333.     *                                                                  *
                                   10963    1334.     ********************************************************************
-0016BE                            10965    1336.     CHECKBIT LABEL ,
 0016BE 9029 D000/188D       00000 10967    1337.              VENTER SR,RAR,*,LOCAL     Enter and save calling registers
 0016C4 41D0 D020/0D70       00020 10971             +
 0016CA 1F22/BF27 A0B9       000B9 10989    1338.              L3    R2,BITNO+1          Bit number
 DROP   *,R7
 USING  *,R7
 0016D0 1222/4780 7040       0170A 10997    1339.              IF    (R2,NZ),BEGIN       Non-zero block found
 0016D6 9201 A0B8      000B8       11011  1 1340.                MVI   CLASS,ERR_RANG      Set error class
 0016DA 5920 617C            001D4 11012  1 1341.                IF    (R2,GE,MAXNO),'LCALL ADDERR'  Block out of bounds
 0016DE 4750 701C            016E6 11024  1          +
 0016E2 4D90 66B0            00708 11031  1          +
 0016E6 7020           016E6 016E0 11036  1 1342.                ELSE  BEGIN               Check it out
 0016E6 47F0 7040            0170A 11041  1          +
 0016EA 5920 6180            001D8 11047  2 1343.                  IF    (R2,GT,MAXUSE),'ST R2,MAXUSE' Set max in use
 0016EE 47D0 702C            016F6 11059  2          +
 0016F2 5020 6180            001D8 11065  2          +
                                   11070  2 1344.   C              IF    FRSTPASS,           Check pass number
 0016F6 9120 6076      000CE              2 1345.                        'LCALL TYPE6'       Do type 6 for first pass
 0016FA 47E0 7038            01702 11080  2          +
 0016FE 4D90 7048            01712 11087  2          +
 001702 703C           01702 016FC 11092  2 1346.                  ELSE  'LCALL TYPE7'       Do type 7 for second pass
 001702 47F0 7040            0170A 11097  2          +
 001706 4D90 7094            0175E 11105  2          +
 00170A                            11110  1 1347.                END   ,
 00170A                            11114    1348.              END   ,
 00170A 18D8/9829 D000       00000 11118    1349.              VEXIT SR,RAR              Restore registers
 001710 07F9                       11122             +
1VFRY     (VFRY21) (09:47) (22MAR04) ORVYL File System Verify                                                               Page   65
0Current Usings:  (DATASEG,R6) (*,R7) (IOINFO,R10) (IXRDSECT,R11) (NXRYFL,R12)
0Loc    Object Code    Addr1 Addr2  Stmt Lv Lineno    Source Statement           (Hibal 5, Asmedit 3.3)  HLASM R4.0  2004/03/22 09.47
+___    ______ ____    _____ _____  ____ __ ______    ______ _________
0                                  11124    1351.     ¿þþþþþþþþþþþþþþþþþþþþþþþþþþþþþþþþþþþþþþþþþþþþþþþþþþþþþþþþþþþþþþþþþþþþþÜ
                                   11125    1352.     Ÿ                                                                     Ÿ
                                   11126    1353.     Ÿ  check type 6 error routine                                         Ÿ
                                   11127    1354.     Ÿ                                                                     Ÿ
                                                      ¾þþþþþþþþþþþþþþþþþþþþþþþþþþþþþþþþþþþþþþþþþþþþþþþþþþþþþþþþþþþþþþþþþþþþþ»
-001712                            11129    1356.     TYPE6    LABEL ,
 001712 5090 D000            00000 11131    1357.              VPUSH RAR,,*                  SAVE RETURN REGISTER
 001716 41D0 D004            00004 11133             +
 00171A 8C20 0003            00003 11134    1358.              SRDL  R2,3
 00171E 8830 001D            0001D 11135    1359.              SRL   R3,29                   R2 - BYTE,  R3 - BIT
 001722 9206 A0B8      000B8       11136    1360.              MVI   CLASS,6                 Set error class
 001726 4140 0080            00080 11137    1361.              LA    QR,X'80'                MASK VALUE
 00172A 8840 3000            00000 11138    1362.              SRL   QR,0(R3)                BIT FROM BIT NUMBER
 00172E 5810 6130            00188 11139    1363.              L     R1,BTTMEMST             Starting address of map
 001732 1A12                       11140    1364.              AR    R1,R2                   BYTE IN BIT TABLE
 001734 4440 7A5A            02124 11141    1365.              EX    QR,'TM  @R1,0'          Test bit
 002123 00/9100 1000   00000                         +
 001738 4710 707A            01744 11157    1366.              IF    NO,BEGIN                If bit is off error
 00173C 4D90 66B0            00708 11168  1 1367.                LCALL ADDERR                  ADD TO ERROR TABLE
 001740 9640 6076      000CE       11170  1 1368.                SET   DO2ND                   SECOND PASS NEEDED
 001744                            11176    1369.              END   ,
 001744 707E           01744 0173A 11180    1370.              ELSE  BEGIN                   NO SENSE DOING IT TWICE
 001744 47F0 708A            01754 11185             +
 001748 1834                       11191  1 1371.                LR    R3,QR
 00174A 5840 77B2            01E7C 11192  1 1372.                L     QR,=F'-1'
 00174E 1B43                       11193  1 1373.                SR    QR,R3                   COMPLEMENT QR
 001750 4440 7A5E            02128 11194  1 1374.                EX    QR,'NI  @R1,0'          Turn off bit
 002128 9400 1000      00000       11202  1          +
 001754                            11210    1375.              END   ,
 001754 4BD0 7862            01F2C 11214    1376.              VPOP  RAR,,*                  POP RETURN REGISTER
 001758 5890 D000            00000 11216             +
 00175C 07F9                       11217    1377.              BR    RAR                     AND RETURN TO CALLER
1VFRY     (VFRY21) (09:47) (22MAR04) ORVYL File System Verify                                                               Page   66
0Current Usings:  (DATASEG,R6) (*,R7) (IOINFO,R10) (IXRDSECT,R11) (NXRYFL,R12)
0Loc    Object Code    Addr1 Addr2  Stmt Lv Lineno    Source Statement           (Hibal 5, Asmedit 3.3)  HLASM R4.0  2004/03/22 09.47
+___    ______ ____    _____ _____  ____ __ ______    ______ _________
0                                  11219    1379.     ¿þþþþþþþþþþþþþþþþþþþþþþþþþþþþþþþþþþþþþþþþþþþþþþþþþþþþþþþþþþþþþþþþþþþþþÜ
                                   11220    1380.     Ÿ                                                                     Ÿ
                                   11221    1381.     Ÿ  CHECK TYPE 7 ERROR ROUTINE                                         Ÿ
                                   11222    1382.     Ÿ                                                                     Ÿ
                                                      ¾þþþþþþþþþþþþþþþþþþþþþþþþþþþþþþþþþþþþþþþþþþþþþþþþþþþþþþþþþþþþþþþþþþþþþ»
-00175E                            11224    1384.     TYPE7    LABEL ,
 00175E 5090 D000            00000 11226    1385.              VPUSH RAR,,*                  SAVE RETURN REGISTER
 001762 41D0 D004            00004 11228             +
 USING  SERRLST,R2                 11229    1386.              USING SERRLST,SR              ## ERROR LIST ADDR
 001766 9206 A0B8      000B8       11238    1387.              MVI   CLASS,6                 SET ERROR CLASS
 00176A 5820 6148            001A0 11239    1388.              L     SR,ERRANCHR             SET ERROR LIST START ADDRESS
 00176E 94EF 6076      000CE       11240    1389.              CLEAR OTHER                   CLEAR ERROR FLAGS
 001772 1222/4780 70CA       01794 11247    1390.              WHILE (SR,NZ),BEGIN           FIND TYPE 6 ERROR START
 001778 9506 2014      00014       11263  1 1391.                IF    (SERRCLAS,EQ,6),EXIT    FOUND IT, YOU CAN QUIT NOW
 00177C 4780 70CA            01794 11278  1          +
 001780 47B0 70BE            01788 11284  1 1392.                IF    L,'L SR,SERRHI'         Chain high side
 001784 5820 2004            00004 11296  1          +
 001788 70C2           01788 01782 11301  1 1393.                ELSE  'L SR,SERRLO'           CHAIN LOW OTHERWISE
 001788 47F0 70C6            01790 11306  1          +
 00178C 5820 2000            00000 11313  1          +
 001790 47F0 70A8            01772 11318    1394.              END   ,
 001794 1212                       11323    1395.              LTR   R1,SR                   TEST FOR ANY "6"'S
 001796 4780 70F2            017BC 11324    1396.              IF    NZ,BEGIN                CHECK IT OUT
 00179A 1B00                       11335  1 1397.                CLEAR R0                      CLEAR FOR ERROR
 00179C 4D90 7100            017CA 11339  1 1398.                LCALL TRAVERSE                LOOK THRU PARTIAL TREE
 0017A0 9110 6076      000CE       11341  1 1399.                IF    OTHER,BEGIN             HAVE A PROBLEM HERE OLLIE
 0017A4 47E0 70F2            017BC 11351  1          +
 0017A8 1200/4770 70E8       017B2 11356  2 1400.                  IF    (R0,Z),'LCALL ADDERR'   ADD ME IN AS A "7"
 0017AE 4D90 66B0            00708 11372  2          +
 0017B2 70EC           017B2 017AC 11377  2 1401.                  ELSE  BEGIN
 0017B2 47F0 70F2            017BC 11382  2          +
 0017B6 1820                       11388  3 1402.                    LR    SR,R0                   COPY MY ADDRESS IN ERROR TBLE
 0017B8 9620 2010      00010       11389  3 1403.                    SET   SERR7                   MARK ME AS A "7"
 0017BC                            11395  2 1404.                  END   ,
 0017BC                            11399  1 1405.                END   ,
 0017BC                            11403    1406.              END   ,
 0017BC 94EF 6076      000CE       11407    1407.              CLEAR OTHER                   DON'T MESS UP THE NEXT TIME
 0017C0 4BD0 7862            01F2C 11414    1408.              VPOP  RAR,,*                  POP RETURN REGISTER
 0017C4 5890 D000            00000 11416             +
 0017C8 07F9                       11417    1409.              BR    RAR                     AND RETURN TO CALLER
1VFRY     (VFRY21) (09:47) (22MAR04) ORVYL File System Verify                                                               Page   67
0Current Usings:  (SERRLST,R2) (DATASEG,R6) (*,R7) (IOINFO,R10) (IXRDSECT,R11) (NXRYFL,R12)
0Loc    Object Code    Addr1 Addr2  Stmt Lv Lineno    Source Statement           (Hibal 5, Asmedit 3.3)  HLASM R4.0  2004/03/22 09.47
+___    ______ ____    _____ _____  ____ __ ______    ______ _________
0                                  11419    1411.     ¿þþþþþþþþþþþþþþþþþþþþþþþþþþþþþþþþþþþþþþþþþþþþþþþþþþþþþþþþþþþþþþþþþþþþþÜ
                                   11420    1412.     Ÿ                                                                     Ÿ
                                   11421    1413.     Ÿ  TRAVERSE THE ERROR TREE                                            Ÿ
                                   11422    1414.     Ÿ                                                                     Ÿ
                                                      ¾þþþþþþþþþþþþþþþþþþþþþþþþþþþþþþþþþþþþþþþþþþþþþþþþþþþþþþþþþþþþþþþþþþþþþ»
-0017CA                            11424    1416.     TRAVERSE LABEL ,                       TRAVERSE PARTIAL ERROR TREE
 0017CA 9029 D000            00000 11426    1417.              VPUSH SR,RAR,*                SAVE REGISTERS
 0017CE 41D0 D020            00020 11428             +
 0017D2 1821                       11429    1418.              LR    SR,R1                   COPY ADDRESS
 0017D4 5810 2000/1211       00000 11430    1419.              LT    R1,SERRLO               TRY LOW SIDE FIRST
 0017DA 4780 7118            017E2 11434    1420.              IF    NZ,'LCALL TRAVERSE'     AND DO IT
 0017DE 4D90 7100            017CA 11447             +
 0017E2                            11452    1421.              IF    (BITNO,EQ,SERRBIT),BEGIN
 0017E2 D503 A0B8 2014 000B8 00014 11464             +
 0017E8 4770 713A            01804 11465             +
 0017EC                            11470  1 1422.                IF    (SERRINFO,NE,BITNO),BEGIN
 0017EC D53B 2014 A0B8 00014 000B8 11482  1          +
 0017F2 4780 7134            017FE 11483  1          +
 0017F6 9610 6076      000CE       11488  2 1423.                  SET   OTHER
 0017FA 9620 2010      00010       11494  2 1424.                  SET   SERR7                   MARK AS A "7"
 0017FE 7138           017FE 017F4 11500  1 1425.                END   ELSE,'LR R0,SR'         COPY ADDRESS
 0017FE 47F0 713A/1802       01804 11509  1          +
 001804                            11521    1426.              END   ,
 001804 5810 2004/1211       00004 11525    1427.              LT    R1,SERRHI               TRY HIGH SIDE NOW
 00180A 4780 7148            01812 11529    1428.              IF    NZ,'LCALL TRAVERSE'     AND DO IT
 00180E 4D90 7100            017CA 11542             +
 001812 4BD0 7864            01F2E 11547    1429.              VPOP  SR,RAR,*                POP RETURN REGISTERS
 001816 9829 D000            00000 11549             +
 00181A 07F9                       11550    1430.              BR    RAR                     AND RETURN
 DROP   SERRLST,R2                 11551    1431.              DROP  SR                      ## RLSE ADDR
1VFRY     (VFRY21) (09:47) (22MAR04) ORVYL File System Verify                                                               Page   68
0Current Usings:  (DATASEG,R6) (*,R7) (IOINFO,R10) (IXRDSECT,R11) (NXRYFL,R12)
0Loc    Object Code    Addr1 Addr2  Stmt Lv Lineno    Source Statement           (Hibal 5, Asmedit 3.3)  HLASM R4.0  2004/03/22 09.47
+___    ______ ____    _____ _____  ____ __ ______    ______ _________
0                                  11559    1433.     ¿þþþþþþþþþþþþþþþþþþþþþþþþþþþþþþþþþþþþþþþþþþþþþþþþþþþþþþþþþþþþþþþþþþþþþÜ
                                   11560    1434.     Ÿ                                                                     Ÿ
                                   11561    1435.     Ÿ  Verify routine intialization code                                  Ÿ
                                   11562    1436.     Ÿ                                                                     Ÿ
                                                      ¾þþþþþþþþþþþþþþþþþþþþþþþþþþþþþþþþþþþþþþþþþþþþþþþþþþþþþþþþþþþþþþþþþþþþþ»
-00181C 9029 D000/188D       00000 11564    1438.     VFRY_INI VENTER SR,RAR,*,LOCAL     Enter and save calling registers
 001822 41D0 D020/0D70       00020 11568             +
 DROP   *,R7                       11586    1439.     *
 USING  *,R7
                                   11587    1440.     *  PROCESS EXEC FIELD PARAMETERS
                                   11588    1441.     *
0001828 5810 2000            00000 11590    1443.              L     R1,@SR              Point at exec parm
 00182C 4800 1000            00000 11591    1444.              LH    R0,@R1              Set parameter length
 001830 1200/4780 702A       01852 11592    1445.              IF    (R0,NZ),BEGIN       Scan off parameters
 001836 4110 1002            00002 11606  1 1446.                LA    R1,@R1+2            Bump to start of string
 00183A 41F0 6104            0015C 11607  1 1447.                SCINIT (R1),(R0),SCNCB    Initialize scanner
 00183E 58E0 7658/0DEE       01E80 11625  1          +
 001844 5810 765C            01E84 11627  1 1448.                SCAN  L:=A(VKWRT),(R15)   Pop em off, Ollie
 001848 58E0 7660/0DEE       01E88 11639  1          +
 00184E 4770 64AE            00506 11641  1 1449.                IF    NZ,SINV             Invalid string found
 001852                            11655    1450.              END   ,
0001852 4100 0020            00020 11660    1452.              VCNTL DDNAM,VFRYPRT       Set sysout ddname
 001856 4110 6054            000AC 11668             +
 00185A 5890 7664/0D99       01E8C 11677             +
 001860 4100 001C/1B11       0001C 11679    1453.              VCNTL PAGE                Set page eject
 001866 5890 7664/0D99       01E8C 11693             +
 00186C 4110 7668            01E90 11695    1454.              VSEG  'VFRY (000): '      Set header
 001870 4100 000C            0000C 11699             +
 001874 5890 7674/0D99       01E9C 11702             +
 00187A B205 6010      00068       11704    1455.              STCK  CLCKSTRT            Save starting tod value
 00187E 9801 6010            00068 11705    1456.              LM    R0,R1,CLCKSTRT      Retrieve tod clock for fmt
 001882 41F0 6018            00070 11706    1457.              LA    R15,CLWTEMP         Set output address
 001886 58E0 7678/0DEE       01EA0 11707    1458.              XCALL FMTCLCK             Format into printable
 00188C 5890 7674/0D99       01E9C 11711    1459.              VSEG  (R1),(R0)           Set into output buffer
 001892 4100 0010            00010 11726    1460.              VCNTL BLANK,10            Some filler
 001896 4110 000A            0000A 11734             +
 00189A 5890 7664/0D99       01E8C 11743             +
 0018A0 4110 7778            01FA0 11745    1461.              VWRITE 'ORVYL File System -- VERIFY'
 0018A4 4100 001B            0001B 11750             +
 0018A8 5890 7674/0D99       01E9C 11753             +
 0018AE 5890 767C/0D99       01EA4 11757             +
 0018B4 4780 70B2            018DA 11759    1462.              IF    NZ,BEGIN            open error on sysprint
 0018B8 9210 6053      000AB       11770  1 1463.                SETCODE =16               set return code
 0018BC 4110 7793            01FBB 11772  1 1464.                VSEG  'SYSPRINT DDNAME missing'
 0018C0 4100 0017            00017 11776  1          +
 0018C4 5890 7674/0D99       01E9C 11779  1          +
 0018CA 4100 0000/1B11       00000 11781  1 1465.                VCNTL WTO                 issue wto to operator
 0018D0 5890 7664/0D99       01E8C 11795  1          +
 0018D6 47F0 657E            005D6 11797  1 1466.                B     RETURN              and lets get outta here
 0018DA                            11798    1467.              END   ,
1VFRY     (VFRY21) (09:47) (22MAR04) ORVYL File System Verify                                                               Page   69
0Current Usings:  (DATASEG,R6) (*,R7) (IOINFO,R10) (IXRDSECT,R11) (NXRYFL,R12)
0Loc    Object Code    Addr1 Addr2  Stmt Lv Lineno    Source Statement           (Hibal 5, Asmedit 3.3)  HLASM R4.0  2004/03/22 09.47
+___    ______ ____    _____ _____  ____ __ ______    ______ _________
00018DA 4110 7680            01EA8 11802    1468.              VSEG  'VFRY (001): Version='
 0018DE 4100 0014            00014 11806             +
 0018E2 5890 7674/0D99       01E9C 11809             +
 0018E8 5810 7694            01EBC 11811    1469.              L     R1,=A(VFRY)         Address of control section
 0018EC 1F00/4300 1000       00000 11812    1470.              LC    R0,@R1                Set length of id string
 0018F2 4110 1001            00001 11817    1471.              LA    R1,@R1+1                Address of id string
 0018F6 5890 7674/0D99       01E9C 11818    1472.              VSEG  (R1),(R0)                 Set into message line
 0018FC 5890 767C/0D99       01EA4 11833    1473.              VWRITE ,                          Write to report file
 001902 5890 767C/0D99       01EA4 11838    1474.              VWRITE ,                  Blank line also please
0001908 4110 7708            01F30 11844    1476.              VSEG  'VFRY (003): Options - '      Report set options
 00190C 4100 0016            00016 11848             +
 001910 5890 7674/0D99       01E9C 11851             +
 001916 9104 6074      000CC       11853    1477.              IF    AUTO,'VSEG "AUTO"'            auto
 00191A 47E0 7104            0192C 11863             +
 00191E 4110 7698            01EC0 11872  1          +
 001922 4100 0004            00004 11873  1          +
 001926 5890 7674/0D99       01E9C 11876             +
 00192C 7108           0192C 0191C 11882    1478.              ELSE  'VSEG "NOAUTO"'               noauto
 00192C 47F0 7116            0193E 11887             +
 001930 4110 771E            01F46 11897  1          +
 001934 4100 0006            00006 11898  1          +
 001938 5890 7674/0D99       01E9C 11901             +
 00193E 9102 6074      000CC       11907    1479.              IF    DUMP,'VSEG ",DUMP"'           dump
 001942 47E0 712C            01954 11917             +
 001946 4110 77AA            01FD2 11926  1          +
 00194A 4100 0005            00005 11927  1          +
 00194E 5890 7674/0D99       01E9C 11930             +
 001954 9101 6074      000CC       11936    1480.              IF    VERBOSE,'VSEG ",VERBOSE"'     verbose
 001958 47E0 7142            0196A 11946             +
 00195C 4110 7630            01E58 11955  1          +
 001960 4100 0008            00008 11956  1          +
 001964 5890 7674/0D99       01E9C 11959             +
 00196A 9110 6074      000CC       11965    1481.              IF    RECLAIM,'VSEG ",RECLAIM"'     reclaim
 00196E 47E0 7158            01980 11975             +
 001972 4110 7638            01E60 11984  1          +
 001976 4100 0008            00008 11985  1          +
 00197A 5890 7674/0D99       01E9C 11988             +
 001980 9180 6074      000CC       11994    1482.              IF    DMPIXRS,'VSEG ",IXRDUMP"'     ixrdump
 001984 47E0 716E            01996 12004             +
 001988 4110 7640            01E68 12013  1          +
 00198C 4100 0008            00008 12014  1          +
 001990 5890 7674/0D99       01E9C 12017             +
 001996 9140 6074      000CC       12023    1483.              IF    IXDISK,'VSEG ",DISK"'         disk
 00199A 47E0 7184            019AC 12033             +
 00199E 4110 77AF            01FD7 12042  1          +
 0019A2 4100 0005            00005 12043  1          +
 0019A6 5890 7674/0D99       01E9C 12046             +
 0019AC 9120 6074      000CC       12052    1484.              IF    IXTAPE,'VSEG ",TAPE"'         tape
 0019B0 47E0 719A            019C2 12062             +
 0019B4 4110 77B4            01FDC 12071  1          +
 0019B8 4100 0005            00005 12072  1          +
 0019BC 5890 7674/0D99       01E9C 12075             +
 0019C2 9108 6074      000CC       12081    1485.              IF    REBUILD,'VSEG ",REBUILD"'     rebuild
1VFRY     (VFRY21) (09:47) (22MAR04) ORVYL File System Verify                                                               Page   70
0Current Usings:  (DATASEG,R6) (*,R7) (IOINFO,R10) (IXRDSECT,R11) (NXRYFL,R12)
0Loc    Object Code    Addr1 Addr2  Stmt Lv Lineno    Source Statement           (Hibal 5, Asmedit 3.3)  HLASM R4.0  2004/03/22 09.47
+___    ______ ____    _____ _____  ____ __ ______    ______ _________
00019C6 47E0 71B0            019D8 12091             +
 0019CA 4110 7648            01E70 12100  1          +
 0019CE 4100 0008            00008 12101  1          +
 0019D2 5890 7674/0D99       01E9C 12104             +
 0019D8 5890 767C/0D99       01EA4 12110    1486.              VWRITE ,                  Output options line
-0019DE 4110 000C            0000C 12116    1488.              LA    R1,ST_SPACE         Set stack space size
 0019E2 5C00 769C            01EC4 12117    1489.              M     R0,=A(1024)           Compute stack size
 0019E6 5B10 76A0            01EC8 12118    1490.              S     R1,=A(512)              Working stack size
 0019EA 5D00 76A4            01ECC 12119    1491.              D     R0,=A(X'20')              Compute activation records
 0019EE 5010 61B0            00208 12120    1492.              ST    R1,MAXLVL                   Set maximum recursion
00019F2 9101 6074      000CC       12122    1494.              IF    VERBOSE,BEGIN
 0019F6 47E0 71FC            01A24 12132             +
 0019FA 4110 77B9            01FE1 12137  1 1495.                VSEG  'VFRY (033): Maximum recursion set to '
 0019FE 4100 0025            00025 12141  1          +
 001A02 5890 7674/0D99       01E9C 12144  1          +
 001A08 58F0 61B0/1B00       00208 12146  1 1496.                SEGDC 0,MAXLVL            Report recursion level
 001A0E 4110 6018            00070 12163  1          +
 001A12 58E0 76A8/0DEE       01ED0 12166  1          +
 001A18 5890 7674/0D99       01E9C 12183  1          +
 001A1E 5890 767C/0D99       01EA4 12185  1 1497.                VWRITE ,                  Write to report file
 001A24                            12190    1498.              END   ,
1VFRY     (VFRY21) (09:47) (22MAR04) ORVYL File System Verify                                                               Page   71
0Current Usings:  (DATASEG,R6) (*,R7) (IOINFO,R10) (IXRDSECT,R11) (NXRYFL,R12)
0Loc    Object Code    Addr1 Addr2  Stmt Lv Lineno    Source Statement           (Hibal 5, Asmedit 3.3)  HLASM R4.0  2004/03/22 09.47
+___    ______ ____    _____ _____  ____ __ ______    ______ _________
0                                  12195    1500.     ********************************************************************
                                   12196    1501.     *                                                                  *
                                   12197    1502.     *  OPEN STANDARD FILES FOR PROCESSING.                             *
                                   12198    1503.     *                                                                  *
                                   12199    1504.     *        1.  OPEN IXRDUMP FILE FOR OUTPUT IF REQUESTED BY THE      *
                                   12200    1505.     *            IXRDUMP OPTION.                                       *
                                   12201    1506.     *                                                                  *
                                   12202    1507.     *        2.  OPEN CATALOGUE FILE FOR INPUT.                        *
                                   12203    1508.     *                                                                  *
                                   12204    1509.     ********************************************************************
-USING  IHADCB,R1                  12206    1511.              WITH  (IHADCB,R1),BEGIN   Addressability to dcb's
 001A24 9180 6074      000CC       12220  1 1512.                IF    DMPIXRS,BEGIN       Open ixrdump dcb
 001A28 47E0 7238            01A60 12230  1          +
 001A2C 5890 76AC/0D99       01ED4 12235  2 1513.                  ACALL DYNTAPE             Check for IXRDUMP DD card
 001A32 4110 6374/0A13       003CC 12239  2 1514.                  OPEN  ,MF=(E,IXROPNL)     Open IXR dump file
 001A38 4110 62B4            0030C 12243  2 1515.                  LA    R1,IXRDCB           Set address of ixrdump dcb
 001A3C 9110 1030      00030       12244  2 1516.                  IF    ~DCBOFLGS.DCBOFOPN,BEGIN      Abort on bad open
 001A40 4710 7238            01A60 12255  2          +
 001A44 4110 77DE            02006 12260  3 1517.                    VWRITE 'VFRY (104): Unable to open IXRDUMP file'
 001A48 4100 0027            00027 12265  3          +
 001A4C 5890 7674/0D99       01E9C 12268  3          +
 001A52 5890 767C/0D99       01EA4 12272  3          +
 001A58 9210 6053      000AB       12274  3 1518.                    SETCODE =16               Set return code
 001A5C 47F0 657E            005D6 12276  3 1519.                    B     RETURN              Clean up & return
 001A60                            12277  2 1520.                  END   ,
 001A60                            12281  1 1521.                END   ,
-001A60 4110 6314            0036C 12286  1 1523.                LA    R1,FILS             ADDRESS OF CATALOGUE DCB
 001A64 D207 1028 6064 00028 000BC 12287  1 1524.                MVC   DCBDDNAM,FILDDN     SET DDNAME FOR FILES DATA SET
 001A6A 4110 6378/0A13       003D0 12288  1 1525.                OPEN  ,MF=(E,FILSOPNL)    Open catalogue input file
 001A70 4110 6314            0036C 12292  1 1526.                LA    R1,FILS             Set address of files dcb
 001A74 9110 1030      00030       12293  1 1527.                IF    ~DCBOFLGS.DCBOFOPN,BEGIN      Abort on bad open
 001A78 4710 7270            01A98 12304  1          +
 001A7C 4110 7805            0202D 12309  2 1528.                  VWRITE 'VFRY (105): Unable to open Catalog file'
 001A80 4100 0027            00027 12314  2          +
 001A84 5890 7674/0D99       01E9C 12317  2          +
 001A8A 5890 767C/0D99       01EA4 12321  2          +
 001A90 9210 6053      000AB       12323  2 1529.                  SETCODE =16               SET RETURN CODE
 001A94 47F0 657E            005D6 12325  2 1530.                  B     RETURN              Cleanup & return
 001A98                            12326  1 1531.                END   ,
 DROP   IHADCB,R1                  12330    1532.              END   ,
1VFRY     (VFRY21) (09:47) (22MAR04) ORVYL File System Verify                                                               Page   72
0Current Usings:  (DATASEG,R6) (*,R7) (IOINFO,R10) (IXRDSECT,R11) (NXRYFL,R12)
0Loc    Object Code    Addr1 Addr2  Stmt Lv Lineno    Source Statement           (Hibal 5, Asmedit 3.3)  HLASM R4.0  2004/03/22 09.47
+___    ______ ____    _____ _____  ____ __ ______    ______ _________
0                                  12339    1534.     ********************************************************************
                                   12340    1535.     *                                                                  *
                                   12341    1536.     *        OPEN FILES                                                *
                                   12342    1537.     *                                                                  *
                                   12343    1538.     *     1) Make initial call to VFREAD (opens ORVYL File System)     *
                                   12344    1539.     *                                                                  *
                                   12345    1540.     *                                                                  *
                                   12346    1541.     ********************************************************************
0001A98 4110 614C            001A4 12348    1543.              LA    R1,VOPN             Make initial call to VFREAD
 001A9C 911C 6074      000CC       12349    1544.              IF    AUTO+RECLAIM+REBUILD,'OI @R1+4,1'    OPEN FOR OUTPUT
 001AA0 4780 7280            01AA8 12366             +
 001AA4 9601 1004      00004       12372             +
 001AA8 5890 76B0/0D99       01ED8 12377    1545.              VCALL VFOPN               Open orvyl file system
 001AAE 12FF/4780 72A8       01AD0 12381    1546.              IF    (R15,NZ),BEGIN      Open failed, abort
 001AB4 4110 782C            02054 12395  1 1547.                VWRITE 'VFRY (102): File system open failed'
 001AB8 4100 0023            00023 12400  1          +
 001ABC 5890 7674/0D99       01E9C 12403  1          +
 001AC2 5890 767C/0D99       01EA4 12407  1          +
 001AC8 9210 6053      000AB       12409  1 1548.                SETCODE =16               Set return code
 001ACC 47F0 657E            005D6 12411  1 1549.                B     RETURN              Clean up & return
 001AD0                            12412    1550.              END   ,
 001AD0 4110 606C            000C4 12416    1551.              LA    R1,FSNAME
 001AD4 5890 76B4/0D99       01EDC 12417    1552.              VCALL VFRETFS             Return file system name
 001ADA 5820 617C            001D4 12421    1553.              L     SR,MAXNO            Number of blocks in system
 001ADE 4110 76B8            01EE0 12422    1554.              VSEG  'VFRY (004): '      Set message header
 001AE2 4100 000C            0000C 12426             +
 001AE6 5890 7674/0D99       01E9C 12429             +
 001AEC 18F2/1B00                  12431    1555.              SEGDC 0,(SR),COMMAS=YES   Report number of blocks
 001AF0 4110 6018            00070 12448             +
 001AF4 58E0 76C4/0DEE       01EEC 12451             +
 001AFA 5890 7674/0D99       01E9C 12468             +
 001B00 4110 784F            02077 12470    1556.              VSEG  ' Blocks in '
 001B04 4100 000B            0000B 12474             +
 001B08 5890 7674/0D99       01E9C 12477             +
 001B0E 4110 606C            000C4 12479    1557.              VSEG  FSNAME
 001B12 4100 0008            00008 12493             +
 001B16 5890 7674/0D99       01E9C 12496             +
 001B1C 4110 785A            02082 12498    1558.              VSEG  ' file system.'
 001B20 4100 000D            0000D 12502             +
 001B24 5890 7674/0D99       01E9C 12505             +
 001B2A 5890 767C/0D99       01EA4 12507    1559.              VWRITE ,                  Write to report file
 001B30 5E20 76C8            01EF0 12512    1560.              AL    SR,=A(7)            Round up
 001B34 8820 0003            00003 12513    1561.              SRL   SR,3                Number of bytes req for map
 001B38 5E20 76CC            01EF4 12514    1562.              AL    SR,=A(4096-1)       Round up, for number pages
 001B3C 5420 76D0            01EF8 12515    1563.              N     SR,=A(X'FFFFF000')  Page or block boundary request
 001B40 5020 612C            00184 12516    1564.              ST    SR,BTTMEMRQ         Save memory required for map
 001B44 5E20 76D4            01EFC 12517    1565.              AL    SR,=A(L'FSMB)       Plus one fdb buffer
 001B48 9101 6074      000CC       12518    1566.              IF    VERBOSE,BEGIN
 001B4C 47E0 7362            01B8A 12528             +
 001B50 18F2                       12533  1 1567.                LR    R15,SR              Copy requested length
 001B52 88F0 000A            0000A 12534  1 1568.                SRL   R15,10              Convert to "K" value
 001B56 4110 7867            0208F 12535  1 1569.                VSEG  'VFRY (030): Requesting '
 001B5A 4100 0017            00017 12539  1          +
1VFRY     (VFRY21) (09:47) (22MAR04) ORVYL File System Verify                                                               Page   73
0Current Usings:  (DATASEG,R6) (*,R7) (IOINFO,R10) (IXRDSECT,R11) (NXRYFL,R12)
0Loc    Object Code    Addr1 Addr2  Stmt Lv Lineno    Source Statement           (Hibal 5, Asmedit 3.3)  HLASM R4.0  2004/03/22 09.47
+___    ______ ____    _____ _____  ____ __ ______    ______ _________
0001B5E 5890 7674/0D99       01E9C 12542  1          +
 001B64 1B00/4110 6018       00070 12544  1 1570.                SEGDC 0,(R15)             Convert memory request
 001B6A 58E0 76A8/0DEE       01ED0 12563  1          +
 001B70 5890 7674/0D99       01E9C 12580  1          +
 001B76 4110 7724            01F4C 12582  1 1571.                VSEG  'K from system.'    Add message trailer
 001B7A 4100 000E            0000E 12586  1          +
 001B7E 5890 7674/0D99       01E9C 12589  1          +
 001B84 5890 767C/0D99       01EA4 12591  1 1572.                VWRITE ,                  And output buffer
 001B8A                            12596    1573.              END   ,
0001B8A 4110 637C            003D4 12601    1575.              GETMAIN EC,LV=(SR),A=FDBAREA,BNDRY=PAGE,MF=(E,GETLST)
 001B8E 5020 1000            00000 12605             +
 001B92 9230 1008      00008       12606             +
 001B96 41E0 6124            0017C 12607             +
 001B9A 50E0 1004/0A04       00004 12608             +
 001BA0 12FF/4770 64F0       00548 12610    1576.              IF    (R15,NZ),NOMEM      Insufficient memory avail.
1VFRY     (VFRY21) (09:47) (22MAR04) ORVYL File System Verify                                                               Page   74
0Current Usings:  (DATASEG,R6) (*,R7) (IOINFO,R10) (IXRDSECT,R11) (NXRYFL,R12)
0Loc    Object Code    Addr1 Addr2  Stmt Lv Lineno    Source Statement           (Hibal 5, Asmedit 3.3)  HLASM R4.0  2004/03/22 09.47
+___    ______ ____    _____ _____  ____ __ ______    ______ _________
0                                  12628    1578.     ********************************************************************
                                   12629    1579.     *                                                                  *
                                   12630    1580.     *  Got memory, set up bit table                                    *
                                   12631    1581.     *                                                                  *
                                   12632    1582.     ********************************************************************
-001BA6 5810 6124            0017C 12634    1584.              L     R1,FDBAREA          Catalog block buffer
 001BAA 5E10 76D4            01EFC 12635    1585.              AL    R1,=A(L'FSMB)       Bump to start of bitmap
 001BAE 5010 6130            00188 12636    1586.              ST    R1,BTTMEMST         Starting memory address
 001BB2 5010 6138            00190 12637    1587.              ST    R1,BITND            Save current ending address
 001BB6 5E10 612C            00184 12638    1588.              AL    R1,BTTMEMRQ         Last map address+1
 001BBA 5010 6134            0018C 12639    1589.              ST    R1,BTTMEMND         Save ending address
 001BBE 58A0 6128            00180 12640    1590.              L     R10,IXRAREA         Set first ioarea address
1VFRY     (VFRY21) (09:47) (22MAR04) ORVYL File System Verify                                                               Page   75
0Current Usings:  (DATASEG,R6) (*,R7) (IOINFO,R10) (IXRDSECT,R11) (NXRYFL,R12)
0Loc    Object Code    Addr1 Addr2  Stmt Lv Lineno    Source Statement           (Hibal 5, Asmedit 3.3)  HLASM R4.0  2004/03/22 09.47
+___    ______ ____    _____ _____  ____ __ ______    ______ _________
0                                  12642    1592.     ********************************************************************
                                   12643    1593.     *                                                                  *
                                   12644    1594.     *        READ IN BASE BLOCK                                        *
                                   12645    1595.     *                                                                  *
                                   12646    1596.     ********************************************************************
0001BC2                            12648    1598.              CLEAR BITNO               Read zero block from file system
 001BC2 D703 A0B8 A0B8 000B8 000B8 12654             +
 001BC8                            12655    1599.              CLEAR MAINECB             Clear ECB
 001BC8 D703 6178 6178 001D0 001D0 12661             +
 001BCE 181A                       12662    1600.              LR    R1,R10              Copy I/O area address for VFIO
 001BD0 5890 76D8/0D99       01F00 12663    1601.              VCALL VFIO                Issue read EXCP
 001BD6 4770 650C            00564 12667    1602.              IF    NZ,VFIOBAD          Exit on bad return code
 001BDA 4100 0001            00001 12681    1603.              WAIT  ECB=MAINECB         Wait for I/O completion
 001BDE 4110 6178/0A01       001D0 12686             +
 001BE4 957F 6178      001D0       12688    1604.              IF    (MAINECB,NE,X'7F'),BTTIOERR   Tube out on I/O error
 001BE8 4770 6386            003DE 12702             +
 001BEC 4120 A800            00800 12708    1605.              LA    SR,IOIXR            Address of FSMB
 USING  FSMB,R2                    12709    1606.              WITH  (FSMB,SR),BEGIN     FSMB ADDRESSABILITY
 001BF0 5830 2024/1233       00024 12723  1 1607.                LT    TR,FSMCATSB         Get catalog starting block
 001BF6 4780 63D6            0042E 12727  1 1608.                IF    Z,NOCATBSE          No base for catalog
 001BFA 5930 617C            001D4 12741  1 1609.                IF    (TR,GT,MAXNO),NOCATBSE  Out-of-range error
 001BFE 4720 63D6            0042E 12755  1          +
0001C02 5810 2028/1211       00028 12762  1 1611.                LT    R1,FSMCATBC         Get block count from FSMB
 001C08 4780 63F2            0044A 12766  1 1612.                IF    Z,CATCNTER          Can't be zero
 001C0C 1A31                       12780  1 1613.                AR    TR,R1               Compute last block+1
 001C0E 5930 617C            001D4 12781  1 1614.                IF    (TR,GE,MAXNO),CATCNTER  Can't extend over end either
 001C12 47A0 63F2            0044A 12795  1          +
 001C16 1803                       12801  1 1615.                LR    R0,TR
 001C18 0600                       12802  1 1616.                DECR  R0                  Last cat block
 001C1A 5900 6180            001D8 12804  1 1617.                IF    (R0,GT,MAXUSE),'ST R0,MAXUSE' Set max in use
 001C1E 47D0 73FE            01C26 12816  1          +
 001C22 5000 6180            001D8 12822  1          +
0001C26 5830 202C/1233       0002C 12828  1 1619.                LT    TR,FSMBITSB         Get starting block
 001C2C 4780 7410            01C38 12832  1 1620.                IF    (Z,OR,(TR,GT,MAXNO)),BEGIN    Out-of-range error
 001C30 5930 617C            001D4 12853  1          +
 001C34 47D0 742C            01C54 12854  1          +
 001C38 4110 7732            01F5A 12859  2 1621.                  VWRITE 'VFRY (107): Bit-Map base block is invalid.'
 001C3C 4100 002A            0002A 12864  2          +
 001C40 5890 7674/0D99       01E9C 12867  2          +
 001C46 5890 767C/0D99       01EA4 12871  2          +
 001C4C 9210 6053      000AB       12873  2 1622.                  SETCODE =16               Set return code
 001C50 47F0 657E            005D6 12875  2 1623.                  B     RETURN              Exit with failure
 001C54                            12876  1 1624.                END   ,
 001C54 5030 613C            00194 12880  1 1625.                ST    TR,BTTBASE          Save base for bit-map
0001C58 5810 2030/1211       00030 12882  1 1627.                LT    R1,FSMBITBC         Get block count from fsmb
 001C5E 5010 6140            00198 12886  1 1628.                ST    R1,BTTCNT           Save count for reading
 001C62 4780 63BA            00412 12887  1 1629.                IF    Z,BTTCNTER          Can't be zero
 001C66 1A31                       12901  1 1630.                AR    TR,R1               Compute last block+1
 001C68 5930 617C            001D4 12902  1 1631.                IF    (TR,GE,MAXNO),BTTCNTER  Can't extend over end either
 001C6C 47A0 63BA            00412 12916  1          +
1VFRY     (VFRY21) (09:47) (22MAR04) ORVYL File System Verify                                                               Page   76
0Current Usings:  (FSMB,R2) (DATASEG,R6) (*,R7) (IOINFO,R10) (IXRDSECT,R11) (NXRYFL,R12)
0Loc    Object Code    Addr1 Addr2  Stmt Lv Lineno    Source Statement           (Hibal 5, Asmedit 3.3)  HLASM R4.0  2004/03/22 09.47
+___    ______ ____    _____ _____  ____ __ ______    ______ _________
0001C70 1803                       12922  1 1632.                LR    R0,TR
 001C72 0600                       12923  1 1633.                DECR  R0                  Last bit block
 001C74 5900 6180            001D8 12925  1 1634.                IF    (R0,GT,MAXUSE),'ST R0,MAXUSE' Set max in use
 001C78 47D0 7458            01C80 12937  1          +
 001C7C 5000 6180            001D8 12943  1          +
 001C80 5800 6184            001DC 12948  1 1635.                L     R0,FSBLKSZ          Block size
 001C84 1C00                       12949  1 1636.                MR    R0,R0               Compute bit-map size
 001C86 8910 0003            00003 12950  1 1637.                SLL   R1,3                Times 8 (blocks/byte)
 001C8A 5910 617C            001D4 12951  1 1638.                IF    (R1,LT,MAXNO),BEGIN
 001C8E 47B0 7494            01CBC 12963  1          +
 001C92 4110 787E            020A6 12968  2 1639.                  VSEG  'VFRY (345): More blocks than bit-map can '
 001C96 4100 0029            00029 12972  2          +
 001C9A 5890 7674/0D99       01E9C 12975  2          +
 001CA0 4110 775C            01F84 12977  2 1640.                  VWRITE 'represent!'
 001CA4 4100 000A            0000A 12982  2          +
 001CA8 5890 7674/0D99       01E9C 12985  2          +
 001CAE 5890 767C/0D99       01EA4 12989  2          +
 001CB4 41F0 0004            00004 12991  2 1641.                  SETCODE 4
 001CB8 4D90 653A            00592 12994  2          +
 001CBC                            12995  1 1642.                END   ,
 DROP   FSMB,R2                    12999    1643.              END   ,                   Release FSMB register
1VFRY     (VFRY21) (09:47) (22MAR04) ORVYL File System Verify                                                               Page   77
0Current Usings:  (DATASEG,R6) (*,R7) (IOINFO,R10) (IXRDSECT,R11) (NXRYFL,R12)
0Loc    Object Code    Addr1 Addr2  Stmt Lv Lineno    Source Statement           (Hibal 5, Asmedit 3.3)  HLASM R4.0  2004/03/22 09.47
+___    ______ ____    _____ _____  ____ __ ______    ______ _________
0                                  13008    1645.     ********************************************************************
                                   13009    1646.     *                                                                  *
                                   13010    1647.     *        READ IN BIT TABLE.                                        *
                                   13011    1648.     *                                                                  *
                                   13012    1649.     ********************************************************************
0001CBC 5840 6140            00198 13014    1651.              L     QR,BTTCNT           Set bit map block count
 001CC0 1B55                       13015    1652.              CLEAR RR                  Zero logical block number
 001CC2 D203 A0B8 613C 000B8 00194 13019    1653.              MVC   BITNO,BTTBASE       First bit-map block to read
 001CC8 1954/47B0 75D0       01DF8 13020    1654.              WHILE (RR,LT,QR),BEGIN    Loop reading all blocks
 001CCE                            13037  1 1655.                CLEAR MAINECB             Clear ecb for post
 001CCE D703 6178 6178 001D0 001D0 13043  1          +
 001CD4 181A                       13044  1 1656.                LR    R1,R10              Copy io area address
 001CD6 5890 76D8/0D99       01F00 13045  1 1657.                VCALL VFIO                Initiate I/O
 001CDC 4770 650C            00564 13049  1 1658.                IF    NZ,VFIOBAD          Bad return code from vfio
 001CE0 4100 0001            00001 13063  1 1659.                WAIT  ECB=MAINECB         Wait fro I/O completion
 001CE4 4110 6178/0A01       001D0 13068  1          +
 001CEA 957F 6178      001D0       13070  1 1660.                IF    (MAINECB,NE,X'7F'),BTTIOERR   I/O error reading map
 001CEE 4770 6386            003DE 13084  1          +
 001CF2 4120 A068            00068 13090  1 1661.                LA    SR,IOHDR            Set address of header
 001CF6 4830 2006            00006 13091  1 1662.                WITH  (FBHDR,SR),'LH  TR,FBHLEN'    Get header length
 USING  FBHDR,R2
 DROP   FBHDR,R2
 001CFA 5930 6184            001DC 13115  1 1663.                IF    (TR,NE,FSBLKSZ),BEGIN  Length error
 001CFE 4780 7558            01D80 13127  1          +
 001D02 41F0 0004            00004 13132  2 1664.                  SETCODE 4                 Set medium return code
 001D06 4D90 653A            00592 13135  2          +
 001D0A 4110 76DC            01F04 13136  2 1665.                  VSEG  'VFRY (010): Header length should be '
 001D0E 4100 0024            00024 13140  2          +
 001D12 5890 7674/0D99       01E9C 13143  2          +
 001D18 5810 6184            001DC 13145  2 1666.                  L     R1,FSBLKSZ              Length of bit block
 001D1C 18F1/1B00                  13146  2 1667.                  SEGDC 0,(R1)                  Report expected length
 001D20 4110 6018            00070 13163  2          +
 001D24 58E0 76A8/0DEE       01ED0 13166  2          +
 001D2A 5890 7674/0D99       01E9C 13183  2          +
 001D30 4110 78A7            020CF 13185  2 1668.                  VSEG  ', is '
 001D34 4100 0005            00005 13189  2          +
 001D38 5890 7674/0D99       01E9C 13192  2          +
 001D3E 18F3/1B00                  13194  2 1669.                  SEGDC 0,(TR)                  Report header length
 001D42 4110 6018            00070 13211  2          +
 001D46 58E0 76A8/0DEE       01ED0 13214  2          +
 001D4C 5890 7674/0D99       01E9C 13231  2          +
 001D52 4110 7766            01F8E 13233  2 1670.                  VSEG  ' in bit map block '
 001D56 4100 0012            00012 13237  2          +
 001D5A 5890 7674/0D99       01E9C 13240  2          +
 001D60 58F0 A0B8            000B8 13242  2 1671.                  L     R15,BITNO           get orvyl block number
 001D64 5BF0 613C            00194 13243  2 1672.                  S     R15,BTTBASE         convert to bit map block
 001D68 1B00/4110 6018       00070 13244  2 1673.                  SEGDC 0,(R15)             report block number
 001D6E 58E0 76A8/0DEE       01ED0 13263  2          +
 001D74 5890 7674/0D99       01E9C 13280  2          +
 001D7A 5890 767C/0D99       01EA4 13282  2 1674.                  VWRITE ,                  print error message
 001D80                            13287  1 1675.                END   ,
 001D80 5820 6138            00190 13291  1 1676.                L     SR,BITND            set current ending address
 001D84 5830 6184            001DC 13292  1 1677.                L     TR,FSBLKSZ          length of btt block
1VFRY     (VFRY21) (09:47) (22MAR04) ORVYL File System Verify                                                               Page   78
0Current Usings:  (DATASEG,R6) (*,R7) (IOINFO,R10) (IXRDSECT,R11) (NXRYFL,R12)
0Loc    Object Code    Addr1 Addr2  Stmt Lv Lineno    Source Statement           (Hibal 5, Asmedit 3.3)  HLASM R4.0  2004/03/22 09.47
+___    ______ ____    _____ _____  ____ __ ______    ______ _________
0001D88 4112 3000            00000 13293  1 1678.                LA    R1,0(SR,TR)         compute new ending address
 001D8C 5910 6134            0018C 13294  1 1679.                IF    (R1,LE,BTTMEMND),BEGIN  still used btt map
 001D90 4730 7578            01DA0 13306  1          +
 001D94 5010 6138            00190 13311  2 1680.                  ST    R1,BITND            save new btt ending address
 001D98 4100 A800            00800 13312  2 1681.                  LA    R0,IOIXR            set buffer address
 001D9C 1813                       13313  2 1682.                  LR    R1,TR               and buffer length
 001D9E 0E20                       13314  2 1683.                  MVCL  SR,R0               copy buffer to map address
 001DA0 757C           01DA0 01D92 13315  1 1684.                END   ELSE,BEGIN          check for extra bits on
 001DA0 47F0 75BC            01DE4 13324  1          +
 001DA4 4100 A800            00800 13330  2 1685.                  LA    R0,IOIXR            copy compare address
 001DA8 1813                       13331  2 1686.                  LR    R1,TR               copy length to compare
 001DAA 1BFF                       13332  2 1687.                  CLEAR R15                 zero pad + length
 001DAC 0F0E                       13336  2 1688.                  CLCL  R0,R14              should be zero
 001DAE 4780 75BC            01DE4 13337  2 1689.                  IF    NE,BEGIN            report extra bits please
 001DB2 41F0 0004            00004 13348  3 1690.                    SETCODE 4                 Set medium return code
 001DB6 4D90 653A            00592 13351  3          +
 001DBA 4110 78AC            020D4 13352  3 1691.                    VSEG  'VFRY (011): Extra bit(s) in map block(s) '
 001DBE 4100 0029            00029 13356  3          +
 001DC2 5890 7674/0D99       01E9C 13359  3          +
 001DC8 18F5/4100 0004       00004 13361  3 1692.                    SEGDC 4,(RR)              Report current block number
 001DCE 4110 6018            00070 13381  3          +
 001DD2 58E0 76A8/0DEE       01ED0 13384  3          +
 001DD8 5890 7674/0D99       01E9C 13401  3          +
 001DDE 5890 767C/0D99       01EA4 13403  3 1693.                    VWRITE ,                  Write to report file
 001DE4                            13408  2 1694.                  END   ,
 001DE4                            13412  1 1695.                END   ,
 001DE4 4100 0001            00001 13416  1 1696.                INCR  R0,BITNO            Bump orvyl bit-map number
 001DE8 5E00 A0B8            000B8 13420  1          +
 001DEC 5000 A0B8            000B8 13421  1          +
 001DF0 5E50 7700            01F28 13422  1 1697.                INCR  RR                  Bump logical number
 001DF4 47F0 74A0            01CC8 13425    1698.              END   ,
-                                  13431    1700.     ¿þþþþþþþþþþþþþþþþþþþþþþþþþþþþþþþþþþþþþþþþþþþþþþþþþþþþþþþþþþþþþþþþþþþþþÜ
                                   13432    1701.     Ÿ                                                                     Ÿ
                                   13433    1702.     Ÿ  Got bit table, turn all bits on if Rebuild operation               Ÿ
                                   13434    1703.     Ÿ  has been requested.                                                Ÿ
                                   13435    1704.     Ÿ                                                                     Ÿ
                                                      ¾þþþþþþþþþþþþþþþþþþþþþþþþþþþþþþþþþþþþþþþþþþþþþþþþþþþþþþþþþþþþþþþþþþþþþ»
-001DF8 9108 6074      000CC       13437    1706.              IF    REBUILD,BEGIN       Rebuild option requested
 001DFC 47E0 75FC            01E24 13447             +
 001E00 5800 6130            00188 13452  1 1707.                L     R0,BTTMEMST         Start of table
 001E04 5830 612C            00184 13453  1 1708.                L     TR,BTTMEMRQ         Total length of table
 001E08 5810 617C            001D4 13454  1 1709.                L     R1,MAXNO            Actual number of blocks
 001E0C 4110 1007            00007 13455  1 1710.                LA    R1,@R1+7            Round up
 001E10 8810 0003            00003 13456  1 1711.                SRL   R1,3                Convert to bytes
 001E14 1B31                       13457  1 1712.                SR    TR,R1               Extra room in last B/M block
 001E16 1FFF/BFF8 78D5       020FD 13458  1 1713.                LCM   R15,8,=X'FF'        Set padding value for MVCL
 001E1C 0E0E                       13465  1 1714.                MVCL  R0,R14              Set all bits on in map
 001E1E 1813                       13466  1 1715.                LR    R1,TR               Remaining length
 001E20 1BFF                       13467  1 1716.                CLEAR R15                   to be zero'ed
 001E22 0E0E                       13471  1 1717.                MVCL  R0,R14                  Do it
1VFRY     (VFRY21) (09:47) (22MAR04) ORVYL File System Verify                                                               Page   79
0Current Usings:  (DATASEG,R6) (*,R7) (IOINFO,R10) (IXRDSECT,R11) (NXRYFL,R12)
0Loc    Object Code    Addr1 Addr2  Stmt Lv Lineno    Source Statement           (Hibal 5, Asmedit 3.3)  HLASM R4.0  2004/03/22 09.47
+___    ______ ____    _____ _____  ____ __ ______    ______ _________
0001E24                            13472    1718.              END   ,
-                                  13477    1720.     ********************************************************************
                                   13478    1721.     *                                                                  *
                                   13479    1722.     *  Validate block zero (FSMB) allocated                            *
                                   13480    1723.     *                                                                  *
                                   13481    1724.     ********************************************************************
-001E24 5830 6130            00188 13483    1726.              L     TR,BTTMEMST         First bit should be on,
 001E28 9180 3000      00000       13484    1727.              IF    (@TR.X'80',Z),BEGIN ERROR - 1ST BIT NOT ON
 001E2C 4770 7624            01E4C 13497             +
 001E30 41F0 0004            00004 13502  1 1728.                SETCODE 4                 Set error return code
 001E34 4D90 653A            00592 13505  1          +
 001E38 4110 78D6            020FE 13506  1 1729.                VWRITE 'VFRY (012): First bit of Bit Map zero'
 001E3C 4100 0025            00025 13511  1          +
 001E40 5890 7674/0D99       01E9C 13514  1          +
 001E46 5890 767C/0D99       01EA4 13518  1          +
 001E4C                            13520    1730.              END   ,
 001E4C 947F 3000      00000       13524    1731.              CLEAR @TR.X'80'           Turn bit off in err bit tble
 001E50 18D8/9829 D000       00000 13532    1732.              VEXIT SR,RAR              Restore registers and return
 001E56 07F9                       13536             +
1VFRY     (VFRY21) (09:47) (22MAR04) ORVYL File System Verify                                                               Page   80
0Current Usings:  (DATASEG,R6) (*,R7) (IOINFO,R10) (IXRDSECT,R11) (NXRYFL,R12)
0Loc    Object Code    Addr1 Addr2  Stmt Lv Lineno    Source Statement           (Hibal 5, Asmedit 3.3)  HLASM R4.0  2004/03/22 09.47
+___    ______ ____    _____ _____  ____ __ ______    ______ _________
0                                  13538    1734.     ¿þþþþþþþþþþþþþþþþþþþþþþþþþþþþþþþþþþþþþþþþþþþþþþþþþþþþþþþþþþþþþþþþþþþþþÜ
                                   13539    1735.     Ÿ                                                                     Ÿ
                                   13540    1736.     Ÿ  Define literal pool and drop all initial basing registers          Ÿ
                                   13541    1737.     Ÿ                                                                     Ÿ
                                                      ¾þþþþþþþþþþþþþþþþþþþþþþþþþþþþþþþþþþþþþþþþþþþþþþþþþþþþþþþþþþþþþþþþþþþþþ»
-DROP   NXRYFL,R12                 13543    1739.              DROP  ,                   RELEASE ALL ADDRESSABILITY
 DROP   IXRDSECT,R11
 DROP   IOINFO,R10
 DROP   *,R7
 DROP   DATASEG,R6
0001E58                            13592    1741.              LTORG ,
 001E58 6BE5C5D9C2D6E2C5           13594                             =C',VERBOSE'
 001E60 6BD9C5C3D3C1C9D4           13595                             =C',RECLAIM'
 001E68 6BC9E7D9C4E4D4D7           13596                             =C',IXRDUMP'
 001E70 6BD9C5C2E4C9D3C4           13597                             =C',REBUILD'
 001E78 40404040                   13598                             =CL4' '
 001E7C FFFFFFFF                   13599                             =F'-1'
 001E80 00000000                   13600                             =V(SCINIT)
 001E84 000026FC                   13601                             =A(VKWRT)
 001E88 00000000                   13602                             =V(SCAN)
 001E8C 00000000                   13603                             =V(VCNTRL)
 001E90 E5C6D9E8404DF0F0           13604                             =C'VFRY (000): '
 001E9C 00000000                   13605                             =V(VSEG)
 001EA0 00000000                   13606                             =V(FMTCLCK)
 001EA4 00000000                   13607                             =V(VWRITE)
 001EA8 E5C6D9E8404DF0F0           13608                             =C'VFRY (001): Version='
 001EBC 00000000                   13609                             =A(VFRY)
 001EC0 C1E4E3D6                   13610                             =C'AUTO'
 001EC4 00000400                   13611                             =A(1024)
 001EC8 00000200                   13612                             =A(512)
 001ECC 00000020                   13613                             =A(X'20')
 001ED0 00000000                   13614                             =V(BTD)
 001ED4 00002788                   13615                             =A(DYNTAPE)
 001ED8 00000000                   13616                             =V(VFOPN)
 001EDC 00000000                   13617                             =V(VFRETFS)
 001EE0 E5C6D9E8404DF0F0           13618                             =C'VFRY (004): '
 001EEC 00000000                   13619                             =V(BTDC)
 001EF0 00000007                   13620                             =A(7)
 001EF4 00000FFF                   13621                             =A(4096-1)
 001EF8 FFFFF000                   13622                             =A(X'FFFFF000')
 001EFC 00000800                   13623                             =A(L'FSMB)
 001F00 00000000                   13624                             =V(VFIO)
 001F04 E5C6D9E8404DF0F1           13625                             =C'VFRY (010): Header length should be '
 001F28 00000001                   13626                             =A(1)
 001F2C 0004                       13627                             =Y(4)
 001F2E 0020                       13628                             =Y((RAR+1-(SR)+16*((SR)/(RAR+1))/((SR)/(RAR+1)))*4)
 001F30 E5C6D9E8404DF0F0           13629                             =C'VFRY (003): Options - '
 001F46 D5D6C1E4E3D6               13630                             =C'NOAUTO'
 001F4C D2408699969440A2           13631                             =C'K from system.'
 001F5A E5C6D9E8404DF1F0           13632                             =C'VFRY (107): Bit-Map base block is invalid.'
 001F84 9985979985A28595           13633                             =C'represent!'
1VFRY     (VFRY21) (09:47) (22MAR04) ORVYL File System Verify                                                               Page   81
0Loc    Object Code    Addr1 Addr2  Stmt Lv Lineno    Source Statement           (Hibal 5, Asmedit 3.3)  HLASM R4.0  2004/03/22 09.47
+___    ______ ____    _____ _____  ____ __ ______    ______ _________
0001F8E 408995408289A340           13634                             =C' in bit map block '
 001FA0 D6D9E5E8D340C689           13635                             =C'ORVYL File System -- VERIFY'
 001FBB E2E8E2D7D9C9D5E3           13636                             =C'SYSPRINT DDNAME missing'
 001FD2 6BC4E4D4D7                 13637                             =C',DUMP'
 001FD7 6BC4C9E2D2                 13638                             =C',DISK'
 001FDC 6BE3C1D7C5                 13639                             =C',TAPE'
 001FE1 E5C6D9E8404DF0F3           13640                             =C'VFRY (033): Maximum recursion set to '
 002006 E5C6D9E8404DF1F0           13641                             =C'VFRY (104): Unable to open IXRDUMP file'
 00202D E5C6D9E8404DF1F0           13642                             =C'VFRY (105): Unable to open Catalog file'
 002054 E5C6D9E8404DF1F0           13643                             =C'VFRY (102): File system open failed'
 002077 40C293968392A240           13644                             =C' Blocks in '
 002082 408689938540A2A8           13645                             =C' file system.'
 00208F E5C6D9E8404DF0F3           13646                             =C'VFRY (030): Requesting '
 0020A6 E5C6D9E8404DF3F4           13647                             =C'VFRY (345): More blocks than bit-map can '
 0020CF 6B4089A240                 13648                             =C', is '
 0020D4 E5C6D9E8404DF0F1           13649                             =C'VFRY (011): Extra bit(s) in map block(s) '
 0020FD FF                         13650                             =X'FF'
 0020FE E5C6D9E8404DF0F1           13651                             =C'VFRY (012): First bit of Bit Map zero'
1VFRY     (VFRY21) (09:47) (22MAR04) ORVYL File System Verify                                                               Page   82
0Loc    Object Code    Addr1 Addr2  Stmt Lv Lineno    Source Statement           (Hibal 5, Asmedit 3.3)  HLASM R4.0  2004/03/22 09.47
+___    ______ ____    _____ _____  ____ __ ______    ______ _________
0                                  13656    1743.     ********************************************************************
                                   13657    1744.     *                                                                  *
                                   13658    1745.     *                         Print Statistics                         *
                                   13659    1746.     *                                                                  *
                                   13660    1747.     ********************************************************************
-00212C 9029 D000/188D       00000 13662    1749.     PRSTAT   VENTER SR,RAR,*,LOCAL     ENTER AND SAVE CALLING REGISTERS
 002132 41D0 D020/0D70       00020 13666             +
 002138 5860 74D0            02608 13681    1750.              L     BRR,=A(DATASEG)     ADDRESS OF DATA AREA
 USING  *,R7
 USING  DATASEG,R6                 13682    1751.              USING DATASEG,BRR         DECLARE ADDRESSABILITY TO DATA
 00213C 4110 7510            02648 13691    1752.              VSEG  'VFRY (025): Accounts ='
 002140 4100 0016            00016 13695             +
 002144 5890 74D4/0D99       0260C 13698             +
 00214A 58F0 618C            001E4 13700    1753.              SEGDC 10,NUMACCTS,COMMAS=YES
 00214E 4100 000A            0000A 13713             +
 002152 4110 6018            00070 13720             +
 002156 58E0 74D8/0DEE       02610 13723             +
 00215C 5890 74D4/0D99       0260C 13740             +
 002162 5890 74DC/0D99       02614 13742    1754.              VWRITE ,                  WRITE TO REPORT FILE
 002168 4110 7526            0265E 13747    1755.              VSEG  '               Files ='
 00216C 4100 0016            00016 13751             +
 002170 5890 74D4/0D99       0260C 13754             +
 002176 58F0 6188            001E0 13756    1756.              SEGDC 10,FILECNT,COMMAS=YES
 00217A 4100 000A            0000A 13769             +
 00217E 4110 6018            00070 13776             +
 002182 58E0 74D8/0DEE       02610 13779             +
 002188 5890 74D4/0D99       0260C 13796             +
 00218E 5890 74DC/0D99       02614 13798    1757.              VWRITE ,                  WRITE TO REPORT FILE
 002194 58F0 61A0/12FF       001F8 13803    1758.              LT    R15,NIXRFLS         REPORT ANY NIXR FILES
 00219A 4780 7092            021CA 13807    1759.              IF    NZ,BEGIN            NON-IXR FILES WERE ENCOUNERTED
 00219E 4110 753C            02674 13818  1 1760.                VSEG  '       Non-IXR files ='
 0021A2 4100 0016            00016 13822  1          +
 0021A6 5890 74D4/0D99       0260C 13825  1          +
 0021AC 58F0 61A0            001F8 13827  1 1761.                SEGDC 10,NIXRFLS,COMMAS=YES
 0021B0 4100 000A            0000A 13840  1          +
 0021B4 4110 6018            00070 13847  1          +
 0021B8 58E0 74D8/0DEE       02610 13850  1          +
 0021BE 5890 74D4/0D99       0260C 13867  1          +
 0021C4 5890 74DC/0D99       02614 13869  1 1762.                VWRITE ,
 0021CA                            13874    1763.              END   ,
 0021CA 58F0 61A4/12FF       001FC 13878    1764.              LT    R15,HYBRFLS         REPORT ANY HYBRID FILES
 0021D0 4780 70C8            02200 13882    1765.              IF    NZ,BEGIN            HYBRID FILES WERE ENCOUNERTED
 0021D4 4110 7552            0268A 13893  1 1766.                VSEG  '        Hybrid files ='
 0021D8 4100 0016            00016 13897  1          +
 0021DC 5890 74D4/0D99       0260C 13900  1          +
 0021E2 58F0 61A4            001FC 13902  1 1767.                SEGDC 10,HYBRFLS,COMMAS=YES
 0021E6 4100 000A            0000A 13915  1          +
 0021EA 4110 6018            00070 13922  1          +
 0021EE 58E0 74D8/0DEE       02610 13925  1          +
 0021F4 5890 74D4/0D99       0260C 13942  1          +
 0021FA 5890 74DC/0D99       02614 13944  1 1768.                VWRITE ,
 002200                            13949    1769.              END   ,
 002200 9180 6074      000CC       13953    1770.              IF    DMPIXRS,BEGIN           NOTE IXRDUMP ACTION
 002204 47E0 7102            0223A 13963             +
1VFRY     (VFRY21) (09:47) (22MAR04) ORVYL File System Verify                                                               Page   83
0Current Usings:  (DATASEG,R6) (*,R7)
0Loc    Object Code    Addr1 Addr2  Stmt Lv Lineno    Source Statement           (Hibal 5, Asmedit 3.3)  HLASM R4.0  2004/03/22 09.47
+___    ______ ____    _____ _____  ____ __ ______    ______ _________
0002208 4110 6374/0A14       003CC 13968  1 1771.                CLOSE ,MF=(E,IXROPNL)         CLOSE IXRDUMP TAPE
 00220E 4110 75A0            026D8 13972  1 1772.                VSEG  'VFRY (026): IXR''s written ='
 002212 4100 001B            0001B 13976  1          +
 002216 5890 74D4/0D99       0260C 13979  1          +
 00221C 58F0 6194            001EC 13981  1 1773.                SEGDC 10,IXRSOUT,COMMAS=YES
 002220 4100 000A            0000A 13994  1          +
 002224 4110 6018            00070 14001  1          +
 002228 58E0 74D8/0DEE       02610 14004  1          +
 00222E 5890 74D4/0D99       0260C 14021  1          +
 002234 5890 74DC/0D99       02614 14023  1 1774.                VWRITE ,
 00223A                            14028    1775.              END   ,
 00223A 18D8/9829 D000       00000 14032    1776.              VEXIT SR,RAR              RESTORE REGISTERS AND RETURN
 002240 07F9                       14036             +
1VFRY     (VFRY21) (09:47) (22MAR04) ORVYL File System Verify                                                               Page   84
0Current Usings:  (DATASEG,R6) (*,R7)
0Loc    Object Code    Addr1 Addr2  Stmt Lv Lineno    Source Statement           (Hibal 5, Asmedit 3.3)  HLASM R4.0  2004/03/22 09.47
+___    ______ ____    _____ _____  ____ __ ______    ______ _________
0                                  14038    1778.     ********************************************************************
                                   14039    1779.     *                                                                  *
                                   14040    1780.     * XORCORE SUBROUTINE                                               *
                                   14041    1781.     *                                                                  *
                                   14042    1782.     *  LOGICAL EXCLUSIVE OR OF MEMORY                                  *
                                   14043    1783.     *                                                                  *
                                   14044    1784.     *        R3  =  TO ADDRESS                                         *
                                   14045    1785.     *        R2  =  FROM ADDRESS                                       *
                                   14046    1786.     *        R1  =  LENGTH OF XOR OPERATION                            *
                                   14047    1787.     *                                                                  *
                                   14048    1788.     ********************************************************************
-002242                            14050    1790.     XORCORE  LABEL ,                   EXCLUSIVE OR ROUTINE
 002242 9019 D000/188D       00000 14052    1791.              VENTER R1,RAR,*,LOCAL     ENTER AND SAVE REGISTERS
 002248 41D0 D024/0D70       00024 14056             +
 00224E 0610                       14074    1792.              DECR  R1                  R1 BETTER BE MORE THAN ONE
 DROP   *,R7
 USING  *,R7
 002250 5910 73CA            02618 14076    1793.              WHILE (R1,GE,256),BEGIN   XOR IN 256 BYTE CHUNKS
 002254 4750 7020            0226E 14090             +
 002258 D7FF 3000 2000 00000 00000 14095  1 1794.                XC    @R3(256),@R2        XOR FIRSTY 256 BYTE CHANK
 00225E 5B10 73CE            0261C 14096  1 1795.                S     R1,=F'256'          DECREMENT LENGTH REMAINING
 002262 4130 3100            00100 14097  1 1796.                LA    R3,@R3+256          INCREMENT TO ADDRESS
 002266 4120 2100            00100 14098  1 1797.                LA    R2,@R2+256          INCREMENT FROM ADDRESS
 00226A 47F0 7002            02250 14099    1798.              END   ,                   BACK TO DO NEXT CHUNK
 00226E 4410 74A8            026F6 14104    1799.              EX    R1,'XC @R3(*-*),@R2'    DO LAST LITTLE CHUNK
 0026F5 00                                1          +
 0026F6 D700 3000 2000 00000 00000 14112             +
 002272 18D8/9819 D000       00000 14120    1800.              VEXIT R1,RAR              RESTORE REGISTERS AND RETURN
 002278 07F9                       14124             +
1VFRY     (VFRY21) (09:47) (22MAR04) ORVYL File System Verify                                                               Page   85
0Current Usings:  (DATASEG,R6) (*,R7)
0Loc    Object Code    Addr1 Addr2  Stmt Lv Lineno    Source Statement           (Hibal 5, Asmedit 3.3)  HLASM R4.0  2004/03/22 09.47
+___    ______ ____    _____ _____  ____ __ ______    ______ _________
0                                  14126    1802.     ¿þþþþþþþþþþþþþþþþþþþþþþþþþþþþþþþþþþþþþþþþþþþþþþþþþþþþþþþþþþþþþþþþþþþþþÜ
                                   14127    1803.     Ÿ                                                                     Ÿ
                                   14128    1804.     Ÿ  Report tree balance structure for current add element              Ÿ
                                   14129    1805.     Ÿ                                                                     Ÿ
                                                      ¾þþþþþþþþþþþþþþþþþþþþþþþþþþþþþþþþþþþþþþþþþþþþþþþþþþþþþþþþþþþþþþþþþþþþþ»
-00227A                            14131    1807.     BALRPT   LABEL ,
 00227A 9029 D000/188D       00000 14133    1808.              VENTER SR,RAR,*,LOCAL     SAVE RETURN ADDRESS
 002280 41D0 D020/0D70       00020 14137             +
 DROP   *,R7                       14155    1809.              WITH  (SERRLST,TR),BEGIN  ADDRESSABILITY TO ERROR ENTRY
 USING  *,R7
 USING  SERRLST,R3
 002286 58F0 3008            00008 14169  1 1810.                SEGDC 6,SERRLCNT          REPORT LOW COUNT
 00228A 4100 0006            00006 14182  1          +
 00228E 4110 6018            00070 14189  1          +
 002292 58E0 739A/0DEE       02620 14192  1          +
 002298 5890 7386/0D99       0260C 14209  1          +
 00229E 4110 746D            026F3 14211  1 1811.                VSEG  ' '                 SPACES
 0022A2 4100 0001            00001 14215  1          +
 0022A6 5890 7386/0D99       0260C 14218  1          +
 0022AC 58F0 300C            0000C 14220  1 1812.                SEGDC 6,SERRHCNT          REPORT HIGH COUNT
 0022B0 4100 0006            00006 14233  1          +
 0022B4 4110 6018            00070 14240  1          +
 0022B8 58E0 739A/0DEE       02620 14243  1          +
 0022BE 5890 7386/0D99       0260C 14260  1          +
 0022C4 4110 746D            026F3 14262  1 1813.                VSEG  ' '
 0022C8 4100 0001            00001 14266  1          +
 0022CC 5890 7386/0D99       0260C 14269  1          +
 0022D2 58F0 3014            00014 14271  1 1814.                SEGHX 8,SERRBIT
 0022D6 4100 0008            00008 14284  1          +
 0022DA 4110 6018            00070 14291  1          +
 0022DE 58E0 739E/0DEE       02624 14294  1          +
 0022E4 5890 7386/0D99       0260C 14311  1          +
 0022EA 4110 746D            026F3 14313  1 1815.                VSEG  ' '                 ADD SPACES
 0022EE 4100 0001            00001 14317  1          +
 0022F2 5890 7386/0D99       0260C 14320  1          +
 0022F8 58F0 3040            00040 14322  1 1816.                SEGDC 6,SERRREL           REPORT RELATIVE BLOCK NUMBER
 0022FC 4100 0006            00006 14335  1          +
 002300 4110 6018            00070 14342  1          +
 002304 58E0 739A/0DEE       02620 14345  1          +
 00230A 5890 7386/0D99       0260C 14362  1          +
 002310 4110 746D            026F3 14364  1 1817.                VSEG  ' '
 002314 4100 0001            00001 14368  1          +
 002318 5890 7386/0D99       0260C 14371  1          +
 00231E 4110 3018            00018 14373  1 1818.                VSEG  SERRNAME            REPORT FILE NAME ALSO
 002322 4100 0028            00028 14387  1          +
 002326 5890 7386/0D99       0260C 14390  1          +
 00232C 5890 738E/0D99       02614 14392  1 1819.                VWRITE ,                  WRITE TO REPORT FILE
 DROP   SERRLST,R3                 14397    1820.              END   ,                   RELEASE ERROR ENTRY
 002332 18D8/9829 D000       00000 14405    1821.              VEXIT SR,RAR              RESTORE RETURN POINTER
 002338 07F9                       14409             +
1VFRY     (VFRY21) (09:47) (22MAR04) ORVYL File System Verify                                                               Page   86
0Current Usings:  (DATASEG,R6) (*,R7)
0Loc    Object Code    Addr1 Addr2  Stmt Lv Lineno    Source Statement           (Hibal 5, Asmedit 3.3)  HLASM R4.0  2004/03/22 09.47
+___    ______ ____    _____ _____  ____ __ ______    ______ _________
0                                  14411    1823.     ¿þþþþþþþþþþþþþþþþþþþþþþþþþþþþþþþþþþþþþþþþþþþþþþþþþþþþþþþþþþþþþþþþþþþþþÜ
                                   14412    1824.     Ÿ                                                                     Ÿ
                                   14413    1825.     Ÿ  BALANCE THE ERROR TREE                                             Ÿ
                                   14414    1826.     Ÿ                                                                     Ÿ
                                   14415    1827.     Ÿ    SR  CONTAINS THE ADDRESS OF THE ERROR TREE ANCHOR CELL OR        Ÿ
                                   14416    1828.     Ÿ        THE ADDRESS OF THE PREVIOUS LINK NODE.                       Ÿ
                                   14417    1829.     Ÿ                                                                     Ÿ
                                   14418    1830.     Ÿ    TR  CONTAINS THE ADDRESS OF THE CURRENT NODE                     Ÿ
                                   14419    1831.     Ÿ                                                                     Ÿ
                                   14420    1832.     Ÿ    QR  CONTINAS THE ADDRESS OF THE NODE, (EITHER THE HIGH OR        Ÿ
                                   14421    1833.     Ÿ        LOW), WHICH WILL MOVE TO THE CURRENT NODE                    Ÿ
                                   14422    1834.     Ÿ                                                                     Ÿ
                                                      ¾þþþþþþþþþþþþþþþþþþþþþþþþþþþþþþþþþþþþþþþþþþþþþþþþþþþþþþþþþþþþþþþþþþþþþ»
-00233A                            14424    1836.     BALANCE  LABEL ,
 00233A 9029 D000/188D       00000 14426    1837.              VENTER SR,RAR,*,LOCAL     SAVE CALLING REGISTERS
 002340 41D0 D020/0D70       00020 14430             +
 002346 1821                       14448    1838.              LR    SR,R1               SAVE POINTER TO CURRENT ANCHOR
 DROP   *,R7
 USING  *,R7
 002348 4100 0001            00001 14449    1839.              INCR  R0,RECLVL           BUMP RECURSION LEVEL
 00234C 5E00 61AC            00204 14453             +
 002350 5000 61AC            00204 14454             +
 002354 59D0 604C            000A4 14455    1840.              IF    (R13,GT,SAVEAEND),BEGIN STACK "OVERFLOW" IS OCCURRING
 002358 47D0 709C            023E2 14467             +
 00235C 4110 735A            026A0 14472  1 1841.                VSEG  'VFRY (843): Stack overflow in balance routine.'
 002360 4100 002E            0002E 14476  1          +
 002364 5890 72C6/0D99       0260C 14479  1          +
 00236A 5890 72CE/0D99       02614 14481  1 1842.                VWRITE ,                  WRITE TO THE REPORT FILE
 002370 4100 0010            00010 14486  1 1843.                VCNTL BLANK,13            ADD SOME SPACING
 002374 4110 000D            0000D 14494  1          +
 002378 5890 72E2/0D99       02628 14503  1          +
 00237E 4110 7388            026CE 14505  1 1844.                VSEG  'RECURSION('
 002382 4100 000A            0000A 14509  1          +
 002386 5890 72C6/0D99       0260C 14512  1          +
 00238C 58F0 61AC/1B00       00204 14514  1 1845.                SEGDC 0,L:RECLVL          REPORT RECURSION LEVEL
 002392 4110 6018            00070 14531  1          +
 002396 58E0 72DA/0DEE       02620 14534  1          +
 00239C 5890 72C6/0D99       0260C 14551  1          +
 0023A2 4110 72BA            02600 14553  1 1846.                VSEG  ') STACK('
 0023A6 4100 0008            00008 14557  1          +
 0023AA 5890 72C6/0D99       0260C 14560  1          +
 0023B0 18FD/4100 0008       00008 14562  1 1847.                SEGHX 8,(R13)             REPORT CURRENT STACK ADDRESS
 0023B6 4110 6018            00070 14582  1          +
 0023BA 58E0 72DE/0DEE       02624 14585  1          +
 0023C0 5890 72C6/0D99       0260C 14602  1          +
 0023C6 4110 73AE            026F4 14604  1 1848.                VSEG  ')'                 TERMINATE MESSAGE
 0023CA 4100 0001            00001 14608  1          +
 0023CE 5890 72C6/0D99       0260C 14611  1          +
 0023D4 5890 72CE/0D99       02614 14613  1 1849.                VWRITE ,
 0023DA 9218 6053      000AB       14618  1 1850.                SETCODE =24               Set return code
 0023DE 47F0 657E            005D6 14620  1 1851.                B     RETURN              Exit with failure
 0023E2                            14621    1852.              END   ,
1VFRY     (VFRY21) (09:47) (22MAR04) ORVYL File System Verify                                                               Page   87
0Current Usings:  (DATASEG,R6) (*,R7)
0Loc    Object Code    Addr1 Addr2  Stmt Lv Lineno    Source Statement           (Hibal 5, Asmedit 3.3)  HLASM R4.0  2004/03/22 09.47
+___    ______ ____    _____ _____  ____ __ ______    ______ _________
00023E2 5830 2000/1233       00000 14625    1853.              LT    TR,@SR              ADDRESS OF CURRENT TREE ENTRY
 0023E8 4780 7126            0246C 14629    1854.              IF    NZ,BEGIN            VALID ENTRY EXISTS, BALANCE TREE
 USING  SERRLST,R3                 14640  1 1855.                USING SERRLST,TR          ADDRESSABILTY TO ERROR ENTRY
 0023EC 4110 3000            00000 14649  1 1856.                LA    R1,SERRLO           ADDRESS OF LOW SIDE POINTER
 0023F0 5890 72E6/0D99       0262C 14650  1 1857.                ACALL BALANCE             BALANCE LOW SIDE OF TREE FIRST
 0023F6 5840 300C            0000C 14654  1 1858.                L     QR,SERRHCNT         LOAD NODES TO THE HIGH SIDE
 0023FA 5B40 3008            00008 14655  1 1859.                S     QR,SERRLCNT         COMPUTE DIFFERENCE IN NODES
 0023FE 1014                       14656  1 1860.                LPR   R1,QR               ABSOLUTE DIFFERENCE IN TREE SIZE
 002400 5910 72EA            02630 14657  1 1861.                IF    (R1,GE,2),BEGIN     REBALANCE THIS SECTION
 002404 4750 711C            02462 14669  1          +
 002408 1244/47D0 70F0       02436 14674  2 1862.                  IF    (QR,P),BEGIN        REBALANCE TO THE HIGH SIDE
 00240E 5840 3004            00004 14688  3 1863.                    L     QR,SERRHI           LOAD ANCHOR HIGH POINTER
 002412 5040 2000            00000 14689  3 1864.                    ST    QR,@SR              RESET MOVING NODE TO ANCHOR
 002416 D203 3004 4000 00004 00000 14690  3 1865.                    MVC   SERRHI,SERRLO-SERRLST(QR)     RELINK ANCHOR
 00241C D203 300C 4008 0000C 00008 14691  3 1866.                    MVC   SERRHCNT,SERRLCNT-SERRLST(QR) RESET ANCHOR COUNT
 002422 5034 0000            00000 14692  3 1867.                    ST    TR,SERRLO-SERRLST(QR)         RESET MOVED NODE LOW
 002426 5810 3008            00008 14693  3 1868.                    L     R1,SERRLCNT         RECOMPUTE COUNTS
 00242A 5A10 300C            0000C 14694  3 1869.                    A     R1,SERRHCNT           PLUS NEW HIGH COUNT
 00242E 5A10 72EE            02634 14695  3 1870.                    A     R1,=A(1)                PLUS THE NODE ITSELF
 002432 5014 0008            00008 14696  3 1871.                    ST    R1,SERRLCNT-SERRLST(QR)   RESET INTO MOVED NODE LOW
 002436 70F4           02436 0240C 14697  2 1872.                  END   ELSE,BEGIN          REBALANCE TO THE LOW SIDE
 002436 47F0 711C            02462 14706  2          +
 00243A 5840 3000            00000 14712  3 1873.                    L     QR,SERRLO           LOAD ANCHOR LOW POINTER
 00243E 5040 2000            00000 14713  3 1874.                    ST    QR,@SR              RESET MOVING NODE TO ANCHOR
 002442 D203 3000 4004 00000 00004 14714  3 1875.                    MVC   SERRLO,SERRHI-SERRLST(QR)     RELINK ANCHOR
 002448 D203 3008 400C 00008 0000C 14715  3 1876.                    MVC   SERRLCNT,SERRHCNT-SERRLST(QR) RESET ANCHOR COUNT
 00244E 5034 0004            00004 14716  3 1877.                    ST    TR,SERRHI-SERRLST(QR)         RESET MOVED NODE LOW
 002452 5810 3008            00008 14717  3 1878.                    L     R1,SERRLCNT         RECOMPUTE COUNTS
 002456 5A10 300C            0000C 14718  3 1879.                    A     R1,SERRHCNT           PLUS NEW HIGH COUNT
 00245A 5A10 72EE            02634 14719  3 1880.                    A     R1,=A(1)                PLUS THE NODE ITSELF
 00245E 5014 000C            0000C 14720  3 1881.                    ST    R1,SERRHCNT-SERRLST(QR)   RESET INTO MOVED NODE LOW
 002462                            14721  2 1882.                  END   ,
 002462                            14725  1 1883.                END   ,
 002462 4110 3004            00004 14729  1 1884.                LA    R1,SERRHI           ADDRESS OF HIGH SIDE POINTER
 002466 5890 72E6/0D99       0262C 14730  1 1885.                ACALL BALANCE             BALANCE HIGH SIDE OF TREE
 00246C                            14734    1886.              END   ,
 00246C 5800 61AC            00204 14738    1887.              L     R0,RECLVL           DECREMENT CURRENT
 002470 5B00 72EE            02634 14739    1888.              S     R0,=A(1)              RECURSION LEVEL
 002474 5000 61AC            00204 14740    1889.              ST    R0,RECLVL               FOR GRINS, AND STACK CHECK
 002478 18D8/9829 D000       00000 14741    1890.              VEXIT SR,RAR              RESTORE CALLING REGISTERS
 00247E 07F9                       14745             +
 DROP   SERRLST,R3                 14746    1891.              DROP  TR
1VFRY     (VFRY21) (09:47) (22MAR04) ORVYL File System Verify                                                               Page   88
0Current Usings:  (DATASEG,R6) (*,R7)
0Loc    Object Code    Addr1 Addr2  Stmt Lv Lineno    Source Statement           (Hibal 5, Asmedit 3.3)  HLASM R4.0  2004/03/22 09.47
+___    ______ ____    _____ _____  ____ __ ______    ______ _________
0                                  14754    1893.     ¿þþþþþþþþþþþþþþþþþþþþþþþþþþþþþþþþþþþþþþþþþþþþþþþþþþþþþþþþþþþþþþþþþþþþþÜ
                                   14755    1894.     Ÿ        WRITEOUT SUBROUTINE                                          Ÿ
                                   14756    1895.     Ÿ                                                                     Ÿ
                                   14757    1896.     Ÿ  WRITE A LINE TO SYSPRINT. LINE LENGTH IS 132.                      Ÿ
                                   14758    1897.     Ÿ                                                                     Ÿ
                                                      ¾þþþþþþþþþþþþþþþþþþþþþþþþþþþþþþþþþþþþþþþþþþþþþþþþþþþþþþþþþþþþþþþþþþþþþ»
-002480                            14760    1899.     WRITEOUT LABEL ,
 002480 9029 D000/188D       00000 14762    1900.              VENTER R2,RAR,*,LOCAL     Enter and save registers
 002486 41D0 D020/0D70       00020 14766             +
 00248C 4110 6077            000CF 14784    1901.              VSEG  PLINE,L'PLINE           SEG OUTPUT BUFFER
 DROP   *,R7
 USING  *,R7
 002490 4100 0084            00084 14800             +
 002494 5890 7180/0D99       0260C 14803             +
 00249A 5890 7188/0D99       02614 14805    1902.              VWRITE ,                      OUTPUT BUFFER
 0024A0 9240 6077      000CF       14810    1903.              MVI   PLINE,C' '              BLANK FILL OUTPUT BUFFER
 0024A4 D282 6078 6077 000D0 000CF 14811    1904.              MVC   PLINE+1(131),PLINE      BLANK LINE FOR NEXT WRITE
 0024AA 18D8/9829 D000       00000 14812    1905.              VEXIT R2,RAR                  Pop return register
 0024B0 07F9                       14816             +
1VFRY     (VFRY21) (09:47) (22MAR04) ORVYL File System Verify                                                               Page   89
0Current Usings:  (DATASEG,R6) (*,R7)
0Loc    Object Code    Addr1 Addr2  Stmt Lv Lineno    Source Statement           (Hibal 5, Asmedit 3.3)  HLASM R4.0  2004/03/22 09.47
+___    ______ ____    _____ _____  ____ __ ______    ______ _________
0                                  14818    1907.     ¿þþþþþþþþþþþþþþþþþþþþþþþþþþþþþþþþþþþþþþþþþþþþþþþþþþþþþþþþþþþþþþþþþþþþþÜ
                                   14819    1908.     Ÿ                                                                     Ÿ
                                   14820    1909.     Ÿ  VFRY_CLS  --  Close and exit processing                            Ÿ
                                   14821    1910.     Ÿ                                                                     Ÿ
                                                      ¾þþþþþþþþþþþþþþþþþþþþþþþþþþþþþþþþþþþþþþþþþþþþþþþþþþþþþþþþþþþþþþþþþþþþþ»
-0024B2 9029 D000/188D       00000 14823    1912.     VFRY_CLS VENTER R2,RAR,*,LOCAL     Enter and save calling registers
 0024B8 41D0 D020/0D70       00020 14827             +
 0024BE 9102 6074      000CC       14845    1913.              IF    (DUMP,AND,(RETCODE,GE,16)),'BAL R15,ABORT'
 DROP   *,R7
 USING  *,R7
 0024C2 47E0 7016            024D4 14857             +
 0024C6 D503 717A 6050 02638 000A8 14871             +
 0024CC 4730 7016            024D4 14872             +
 0024D0 45F0 6516            0056E 14878             +
 0024D4 4100 000C/1B11       0000C 14883    1914.              VCNTL CLOSE               Close sysprint file
 0024DA 5890 716A/0D99       02628 14897             +
00024E0 5810 6124            0017C 14900    1916.              L     R1,FDBAREA          Getmained area start
 0024E4 1211/4780 703A       024F8 14901    1917.              IF    (R1,NZ),BEGIN       Release only if it's there
 0024EA 5800 612C            00184 14915  1 1918.                L     R0,BTTMEMRQ         Btt map memory length
 0024EE 5E00 717E            0263C 14916  1 1919.                AL    R0,=A(L'FSMB)       Plus the catalog buffer
 0024F2 4110 1000/0A0A       00000 14917  1 1920.                FREEMAIN R,LV=(0),A=(1)   Release memory
 0024F8                            14921    1921.              END   ,
0                                  14926    1923.         ¿þþþþþþþþþþþþþþþþþþþþþþþþþþþþþþþþþþþþþþþþþþÜ
                                   14927    1924.         Ÿ  RELEASE FILES INPUT DATA SET AND AREAS  Ÿ
                                   14928    1925.         ¾þþþþþþþþþþþþþþþþþþþþþþþþþþþþþþþþþþþþþþþþþþ»
 0024F8 4120 6314            0036C 14929    1926.              LA    SR,FILS
 USING  IHADCB,R2                  14930    1927.              WITH  (IHADCB,SR),BEGIN
 0024FC 9110 2030      00030       14944  1 1928.                IF    DCBOFLGS.DCBOFOPN,BEGIN
 002500 47E0 709A            02558 14955  1          +
 002504 4110 6378/0A14       003D0 14960  2 1929.                  CLOSE ,MF=(E,FILSOPNL)    Close the catalog file
 00250A 4110 6314            0036C 14964  2 1930.                  LA    R1,FILS             Address of fils dcb
 00250E 9101 1017      00017       14965  2 1931.                  FREEPOOL (1)              RELEASE DCB BUFFER POOL
 002512 4710 709A/1FFF       02558 14968  2          +
 002518 BFF7 1015            00015 14970  2          +
 00251C 58E0 F000/12EE       00000 14971  2          +
 002522 4770 7070            0252E 14973  2          +
 002526 9130 F004      00004       14974  2          +
 00252A 4770 709A            02558 14975  2          +
 00252E 9601 1017/1BEE 00017       14976  2          +
 002534 1B11/BF13 F006       00006 14978  2          +
 00253A 43E0 F005/1C0E       00005 14980  2          +
 002540 4110 1008            00008 14982  2          +
 002544 9140 F004      00004       14983  2          +
 002548 47E0 7092            02550 14984  2          +
 00254C 4110 1008/1801       00008 14985  2          +
 002552 4110 F000/0A0A       00000 14987  2          +
 002558                            14990  1 1932.                END   ,
 DROP   IHADCB,R2                  14994    1933.              END   ,
1VFRY     (VFRY21) (09:47) (22MAR04) ORVYL File System Verify                                                               Page   90
0Current Usings:  (DATASEG,R6) (*,R7)
0Loc    Object Code    Addr1 Addr2  Stmt Lv Lineno    Source Statement           (Hibal 5, Asmedit 3.3)  HLASM R4.0  2004/03/22 09.47
+___    ______ ____    _____ _____  ____ __ ______    ______ _________
0                                  15003    1935.         ¿þþþþþþþþþþþþþþþþþþþþþþþþþþþþþþþþþþþþþþÜ
                                   15004    1936.         Ÿ  RELEASE IXRDUMP DATA SET AND AREAS  Ÿ
                                   15005    1937.         ¾þþþþþþþþþþþþþþþþþþþþþþþþþþþþþþþþþþþþþþ»
 002558 9180 6074      000CC       15006    1938.              IF    DMPIXRS,BEGIN
 00255C 47E0 7102            025C0 15016             +
 002560 4120 62B4            0030C 15021  1 1939.                LA    SR,IXRDCB           ADDRESS OF IXRDUMP DCB
 USING  IHADCB,R2                  15022  1 1940.                WITH  (IHADCB,SR),BEGIN
 002564 9110 2030      00030       15036  2 1941.                  IF    DCBOFLGS.DCBOFOPN,BEGIN
 002568 47E0 7102            025C0 15047  2          +
 00256C 4110 6374/0A14       003CC 15052  3 1942.                    CLOSE ,MF=(E,IXROPNL)     Close the ixrdump tape
 002572 4110 62B4            0030C 15056  3 1943.                    LA    R1,IXRDCB           Address of ixrdump dcb
 002576 9101 1017      00017       15057  3 1944.                    FREEPOOL (1)              RELEASE DCB BUFFER POOL
 00257A 4710 7102/1FFF       025C0 15060  3          +
 002580 BFF7 1015            00015 15062  3          +
 002584 58E0 F000/12EE       00000 15063  3          +
 00258A 4770 70D8            02596 15065  3          +
 00258E 9130 F004      00004       15066  3          +
 002592 4770 7102            025C0 15067  3          +
 002596 9601 1017/1BEE 00017       15068  3          +
 00259C 1B11/BF13 F006       00006 15070  3          +
 0025A2 43E0 F005/1C0E       00005 15072  3          +
 0025A8 4110 1008            00008 15074  3          +
 0025AC 9140 F004      00004       15075  3          +
 0025B0 47E0 70FA            025B8 15076  3          +
 0025B4 4110 1008/1801       00008 15077  3          +
 0025BA 4110 F000/0A0A       00000 15079  3          +
 0025C0                            15082  2 1945.                  END   ,
 DROP   IHADCB,R2                  15086  1 1946.                END   ,
 0025C0                            15094    1947.              END   ,
 0025C0 58D0 6048            000A0 15098    1948.              L     R13,SAVEAREA        Reset vs save area
 0025C4 5800 7182            02640 15099    1949.              L     R0,=A(ST_SPACE*1024)  Amount to release
 0025C8 4110 D000/0A0A       00000 15100    1950.              FREEMAIN R,LV=(0),A=(13)      Release memory
 0025CE 5820 6144            0019C 15104    1951.              L     SR,ERRSTRT          Start of error list
 0025D2 1222/4780 712E       025EC 15105    1952.              WHILE (SR,NZ),BEGIN       Release all pages
 0025D8 1812                       15121  1 1953.                LR    R1,SR               Copy address
 0025DA 5820 2000            00000 15122  1 1954.                L     SR,@SR              Chain to next block
 0025DE 5800 7186            02644 15123  1 1955.                L     R0,=A(4096)
 0025E2 4110 1000/0A0A       00000 15124  1 1956.                FREEMAIN R,LV=(0),A=(1)   Release page
 0025E8 47F0 7114            025D2 15128    1957.              END   ,
                                                               ¿þþþþþþþþþþþþþþþþþþþþþþþþÜ
                                   15133    1958.              Ÿ  Return to OS/390 MVS  Ÿ
                                                               ¾þþþþþþþþþþþþþþþþþþþþþþþþ»
 0025EC 58D0 6044            0009C 15134    1959.              L     R13,VSSAVE          Reload vs save area pointer
 0025F0 58F0 6050            000A8 15135    1960.              L     R15,RETCODE         Set maximum return code
 0025F4 58E0 D00C            0000C 15136    1961.              L     R14,@R13+12         Reload return address
 0025F8 980C D014            00014 15137    1962.              LM    R0,R12,@R13+20      Reload remaining regs
 0025FC 07FE                       15138    1963.              BR    R14                 Return to system
1VFRY     (VFRY21) (09:47) (22MAR04) ORVYL File System Verify                                                               Page   91
0Current Usings:  (DATASEG,R6) (*,R7)
0Loc    Object Code    Addr1 Addr2  Stmt Lv Lineno    Source Statement           (Hibal 5, Asmedit 3.3)  HLASM R4.0  2004/03/22 09.47
+___    ______ ____    _____ _____  ____ __ ______    ______ _________
0                                  15140    1965.     ¿þþþþþþþþþþþþþþþþþþþþþþþþþþþþþþþþþþþþþþþþþþþþþþþþþþþþþþþþþþþþþþþþþþþþþÜ
                                   15141    1966.     Ÿ                                                                     Ÿ
                                   15142    1967.     Ÿ  Define literal pool                                                Ÿ
                                   15143    1968.     Ÿ                                                                     Ÿ
                                                      ¾þþþþþþþþþþþþþþþþþþþþþþþþþþþþþþþþþþþþþþþþþþþþþþþþþþþþþþþþþþþþþþþþþþþþþ»
-002600                            15145    1970.              LTORG ,
 002600 5D40E2E3C1C3D24D           15147                             =C') STACK('
 002608 00000058                   15148                             =A(DATASEG)
 00260C 00000000                   15149                             =V(VSEG)
 002610 00000000                   15150                             =V(BTDC)
 002614 00000000                   15151                             =V(VWRITE)
 002618 00000100                   15152                             =A(256)
 00261C 00000100                   15153                             =F'256'
 002620 00000000                   15154                             =V(BTD)
 002624 00000000                   15155                             =V(BTX)
 002628 00000000                   15156                             =V(VCNTRL)
 00262C 0000233A                   15157                             =A(BALANCE)
 002630 00000002                   15158                             =A(2)
 002634 00000001                   15159                             =A(1)
 002638 00000010                   15160                             =AL4(16)
 00263C 00000800                   15161                             =A(L'FSMB)
 002640 00003000                   15162                             =A(ST_SPACE*1024)
 002644 00001000                   15163                             =A(4096)
 002648 E5C6D9E8404DF0F2           15164                             =C'VFRY (025): Accounts ='
 00265E 4040404040404040           15165                             =C'               Files ='
 002674 40404040404040D5           15166                             =C'       Non-IXR files ='
 00268A 4040404040404040           15167                             =C'        Hybrid files ='
 0026A0 E5C6D9E8404DF8F4           15168                             =C'VFRY (843): Stack overflow in balance routine.'
 0026CE D9C5C3E4D9E2C9D6           15169                             =C'RECURSION('
 0026D8 E5C6D9E8404DF0F2           15170                             =C'VFRY (026): IXR''s written ='
 0026F3 40                         15171                             =C' '
 0026F4 5D             026FC 02EB0 15172                             =C')'
1VFRY     (VFRY21) (09:47) (22MAR04) ORVYL File System Verify                                                               Page   92
0Current Usings:  (DATASEG,R6) (*,R7)
0Loc    Object Code    Addr1 Addr2  Stmt Lv Lineno    Source Statement           (Hibal 5, Asmedit 3.3)  HLASM R4.0  2004/03/22 09.47
+___    ______ ____    _____ _____  ____ __ ______    ______ _________
0                                  15177    1972.     ¿þþþþþþþþþþþþþþþþþþþþþþþþþþþþþþþþþþþþþþþþþþþþþþþþþþþþþþþþþþþþþþþþþþþþþÜ
                                   15178    1973.     Ÿ                                                                     Ÿ
                                   15179    1974.     Ÿ  Define VERIFY exec parameter keywords and scanning exit            Ÿ
                                   15180    1975.     Ÿ  routines.                                                          Ÿ
                                   15181    1976.     Ÿ                                                                     Ÿ
                                                      ¾þþþþþþþþþþþþþþþþþþþþþþþþþþþþþþþþþþþþþþþþþþþþþþþþþþþþþþþþþþþþþþþþþþþþþ»
00026FC                            15183    1978.     VKWRT    SCKW  IXRDUMP,SIXR,A      Dump IXR to file
 0026FC 0E0004BCC9E7D9C4           15184             +
 002707                            15185    1979.              SCKW  RECLAIM,SCLM        Reclaim "lost" blocks
 002707 060004DCD9C5C3D3           15186             +
 002712                            15187    1980.              SCKW  VERBOSE,SVRB,A      Verbose option
 002712 0E0004FAE5C5D9C2           15188             +
 00271D                            15189    1981.              SCKW  DUMP,SDMP,A         DUMP ON ERROR
 00271D 0B0004F4C4E4D4D7           15190             +
 002725                            15191    1982.              SCKW  BCV,SBCV,A          Use EMC BC volumes
 002725 0A000500C2C3E5             15192             +
 00272C                            15193    1983.              SCKW  AUTO,SAUTO,A
 00272C 0B0004E2C1E4E3D6           15194             +
 002734                            15195    1984.              SCKW  POWER,SPOW,(A,P,PI) ** Not supported **
 002734 AC0004B0D7D6E6C5           15196             +
 00273D                            15197    1985.              SCKW  REBUILD,SRBL        Rebuild bit-map
 00273D 060004E8D9C5C2E4           15198             +
 002748                            15199    1986.              SCKW  DISK,SDISK,A        DUMP IXR FILE STRUCTURE TO DISK
 002748 0B0004D2C4C9E2D2           15200             +
 002750                            15201    1987.              SCKW  TAPE,STAPE,A        DUMP IXR FILE STRUCTURE TO TAPE
 002750 0B0004C8E3C1D7C5           15202             +
 002758                            15203    1988.              SCKW  INC,SINC,A          Indicate .INCIXR name stem
 002758 0A0004C2C9D5C3             15204             +
 00275F                            15205    1989.              SCKW  FORCE,SFORCE,A      FORCE REWRITE OF BIT MAP
 00275F 0C0004EEC6D6D9C3           15206             +
 002768                            15207    1990.              SCKW  DDNPFX,SPFX,(A,P)   DDNAME PREFIX
 002768 8D000466C4C4D5D7           15208             +
 002772                            15209    1991.              SCKW  VOLUME,,(A,P)       N/A Tape volume serial
 002772 8D000000E5D6D3E4           15210             +
 00277C                            15211    1992.              SCKW  FILE,,(A,P)         N/A Tape file sequence
 00277C 8B000000C6C9D3C5           15212             +
 002784 FF000506                   15213    1993.              SCKW  ,SINV
1VFRY     (VFRY21) (09:47) (22MAR04) ORVYL File System Verify                                                               Page   93
0Current Usings:  (DATASEG,R6) (*,R7)
0Loc    Object Code    Addr1 Addr2  Stmt Lv Lineno    Source Statement           (Hibal 5, Asmedit 3.3)  HLASM R4.0  2004/03/22 09.47
+___    ______ ____    _____ _____  ____ __ ______    ______ _________
0                                  15216    1995.     ********************************************************************
                                   15217    1996.     *                                                                  *
                                   15218    1997.     *  DYNAMIC ROUTINE TO ALLOCATE AN "IXRDUMP" DDCARD TO TAPE         *
                                   15219    1998.     *  IF ONE IS NOT DEFINED VIA JCL.                                  *
                                   15220    1999.     *                                                                  *
                                   15221    2000.     ********************************************************************
0002B9E                02B9E 02EB0 15223    2002.              DATA  BEGIN               GENERATE DATA SECTION
-002B9E 0000                              1
 002BA0 80002BA4                   15229  1 2004.     TDYNP      DC    A(X'80000000'+TDYNRB)   POINTER TO SVC99 REQUEST BLK
 002BA4 14010000                   15230  1 2005.     TDYNRB     DC    0A(0),AL1(20,S99VRBAL,0,0)
 002BA8 00000000                   15231  1 2006.                DC    AL2(0,0)                ERROR AND REASON CODES
 002BAC 00002BC0                   15232  1 2007.                DC    A(TPTRS)                ADDRESS OF POINTER LIST
 002BB0 0000000000000000           15233  1 2008.                DC    2A(0)                   RESERVED AND SYS FLAGS
0002BB8 4040404040404040           15235  1 2010.     TunitIX    DC    CL8' '              Potential override for IXR dump
0                                  15237  1 2012.     *
                                   15238  1 2013.     *  DYNAMIC ELEMENTS FOR DUMPING IXR'S TO TAPE
                                   15239  1 2014.     *
0002BC0 00002BF4                   15241  1 2016.     TPTRS      DC    A(TDDN)             POINTER TO DDNAME
 002BC4 00002C02                   15242  1 2017.                DC    A(TDSN)                 TO DATA SET NAME
 002BC8 00002C34                   15243  1 2018.                DC    A(TMEM)                 TO RELATIVE GENERATION
 002BCC 00002C47                   15244  1 2019.                DC    A(TNDSP)                TO NORMAL DISPOSITION
 002BD0 00002C3C                   15245  1 2020.                DC    A(TSTAT)                TO STATUS
 002BD4 00002C43                   15246  1 2021.                DC    A(TFREE)                TO CLOSE=FREE
 002BD8 00002C4E                   15247  1 2022.                DC    A(TCDSP)                TO CONDITIONAL DISPOSITION
 002BDC 00002C55                   15248  1 2023.                DC    A(TUNIT)                TO UNIT SPECIFICATION
 002BE0 00002C63                   15249  1 2024.                DC    A(TLBL)                 TO LABEL SPECIFICATION
 002BE4 00002C6A                   15250  1 2025.                DC    A(TSEQ)                 TO LABEL SEQUENCE
 002BE8 00002C72                   15251  1 2026.                DC    A(TPROT)                TO PROTOTYPE DCB
 002BEC 00002CAC                   15252  1 2027.                DC    A(TBLK)                 TO BLKSIZE FOR IXRDUMP
 002BF0 80002CA4                   15253  1 2028.                DC    A(X'80000000'+TRETP)    TO RETENTION PERIOD
-                                  15255  1 2030.     *
                                   15256  1 2031.     *  DYNAMIC TEXT ENTRIES FOR DUMPING IXR'S TO TAPE
                                   15257  1 2032.     *
0002BF4 000100010008C9E7           15259  1 2034.     TDDN       DC    AL2(DALDDNAM,1,8),CL8'IXRDUMP'
 002C02 00020001002C4040           15260  1 2035.     TDSN       DC    AL2(DALDSNAM,1,44),CL44' '
 002C34 0003000100024EF1           15261  1 2036.     TMEM       DC    AL2(DALMEMBR,1,2),C'+1'
 002C3C 00040001000104             15262  1 2037.     TSTAT      DC    AL2(DALSTATS,1,1),X'04'       DISP=NEW
 002C43 001C0000                   15263  1 2038.     TFREE      DC    AL2(DALCLOSE,0)
 002C47 00050001000102             15264  1 2039.     TNDSP      DC    AL2(DALNDISP,1,1),X'02'       DISP=CATLG
 002C4E 00060001000104             15265  1 2040.     TCDSP      DC    AL2(DALCDISP,1,1),X'04'       DISP=(,,DELETE)
 002C55 0015000100084040           15266  1 2041.     TUNIT      DC    AL2(DALUNIT,1,8),CL8' '
 002C63 001E0001000102             15267  1 2042.     TLBL       DC    AL2(DALLABEL,1,1),X'02'
 002C6A 001F000100020001           15268  1 2043.     TSEQ       DC    AL2(DALDSSEQ,1,2),AL2(1)
 002C72 002C0001002CE2E8           15269  1 2044.     TPROT      DC    AL2(DALDCBDS,1,44),CL44'SYS3.PROTO.DSCB'
 002CA4 002300010002005A           15270  1 2045.     TRETP      DC    AL2(DALRETPD,1,2),AL2(90)
1VFRY     (VFRY21) (09:47) (22MAR04) ORVYL File System Verify                                                               Page   94
0Current Usings:  (DATASEG,R6) (*,R7)
0Loc    Object Code    Addr1 Addr2  Stmt Lv Lineno    Source Statement           (Hibal 5, Asmedit 3.3)  HLASM R4.0  2004/03/22 09.47
+___    ______ ____    _____ _____  ____ __ ______    ______ _________
0002CAC 0030000100027B48           15271  1 2046.     TBLK       DC    AL2(DALBLKSZ,1,2),AL2(31560)
1VFRY     (VFRY21) (09:47) (22MAR04) ORVYL File System Verify                                                               Page   95
0Current Usings:  (DATASEG,R6) (*,R7)
0Loc    Object Code    Addr1 Addr2  Stmt Lv Lineno    Source Statement           (Hibal 5, Asmedit 3.3)  HLASM R4.0  2004/03/22 09.47
+___    ______ ____    _____ _____  ____ __ ______    ______ _________
0                                  15273  1 2048.     *
                                   15274  1 2049.     *  DYNAMIC ELEMENTS FOR DUMPING IXR'S TO TAPE
                                   15275  1 2050.     *
0002CB4 00002BF4                   15277  1 2052.     DTPTRS     DC    A(TDDN)            POINTER TO DDNAME
 002CB8 00002C02                   15278  1 2053.                DC    A(TDSN)                TO DATA SET NAME
 002CBC 00002C47                   15279  1 2054.                DC    A(TNDSP)               TO NORMAL DISPOSITION
 002CC0 00002C3C                   15280  1 2055.                DC    A(TSTAT)               TO STATUS
 002CC4 00002C43                   15281  1 2056.                DC    A(TFREE)               TO CLOSE=FREE
 002CC8 00002C4E                   15282  1 2057.                DC    A(TCDSP)               TO CONDITIONAL DISPOSITION
 002CCC 00002CE4                   15283  1 2058.                DC    A(DTSP1)               TO SPACE TYPE
 002CD0 00002CED                   15284  1 2059.                DC    A(DTSP2)               TO PRIMARY SPACE
 002CD4 00002CF6                   15285  1 2060.                DC    A(DTSP3)               TO SECONDARY SPACE
 002CD8 00002CFF                   15286  1 2061.                DC    A(DTUNIT)              TO UNIT SPECIFICATION
 002CDC 00002D13                   15287  1 2062.                DC    A(DTBLK)               TO BLKSIZE FOR IXRDUMP
 002CE0 80002D0D                   15288  1 2063.                DC    A(X'80000000'+DTRLSE)  TO RETENTION PERIOD
-                                  15290  1 2065.     *
                                   15291  1 2066.     *  DYNAMIC TEXT ENTRIES FOR DUMPING IXR'S TO DISK
                                   15292  1 2067.     *
0002CE4 000900010003007B           15294  1 2069.     DTSP1      DC    AL2(DALBLKLN,1,3),AL3(31560)
 002CED 000A000100030003           15295  1 2070.     DTSP2      DC    AL2(DALPRIME,1,3),AL3(800)
 002CF6 000B000100030000           15296  1 2071.     DTSP3      DC    AL2(DALSECND,1,3),AL3(200)
 002CFF 001500010008E2E8           15297  1 2072.     DTUNIT     DC    AL2(DALUNIT,1,8),CL8'SYSALLDA'
 002D0D 000D00000000               15298  1 2073.     DTRLSE     DC    AL2(DALRLSE,0,0)              RELEASE SPACE
 002D13 0030000100027B48           15299  1 2074.     DTBLK      DC    AL2(DALBLKSZ,1,2),AL2(31560)
-002D1B 0000000000                        1
 002D20 0000000000000000           15301  1 2076.     SWRK       DC    2D'0'               DEFINE LOCAL WORK AREA
 002D30 4040404040404040           15302  1 2077.     CNTBUFR    DC    CL80' '             CONTROL FILE BUFFER
                                   15304  1 2079.                SCANCB PFX=CNT            GENERATE SCANNER CONTROL BLOCK
 002D80                            15305  1 01-SCANC +CNTCB      DS    0F
 002D80                            15306  1 01-SCANC +CNTVAL     DS    A                       VALUE RETURNED
 002D84                            15307  1 01-SCANC +CNTKW      DS    CL8                     CURRENT KEY WORD
 002D8C                            15308  1 01-SCANC +CNTLEN     DS    A                       LENGTH LEFT TO SCAN
 002D90                            15309  1 01-SCANC +CNTLOC     DS    A                       NEXT THING TO SCAN
 002D94                            15310  1 01-SCANC +CNTRA      DS    A                       RETURN ADDRESS
 002D98                            15311  1 01-SCANC +CNTPRT     DS    A                       ROUTING TABLE ADDRESS
 002D9C                            15312  1 01-SCANC +CNTCLT     DS    A                       SCAN TYPE
                                   15313  1          +*                                      0 = NORMAL SCAN
                                   15314  1          +*                                      4 = EXPRESSION ISOLATION
                                   15315  1          +*                                      8 = EXPRESSION SCAN
                                   15316  1 01-SCANC +CNTCBL     EQU *-CNTCB
                                   15318  1 2081.                PRINT NOGEN
                                   15320  1 2082.   C CNTDCB     DCB   DDNAME=CONTROL,DSORG=PS,MACRF=GM,LRECL=80,
 002DA0 0000000000000000                  1 2083.                      RECFM=FB,EODAD=CNTEOD
                                   15362  1 2084.                PRINT GEN
-002E00                            15365  1 2086.     CNTKWR     SCKW  TAPE,CNTSTAPE,(A,P)
 002E00 8B002996E3C1D7C5           15366  1          +
1VFRY     (VFRY21) (09:47) (22MAR04) ORVYL File System Verify                                                               Page   96
0Current Usings:  (DATASEG,R6) (*,R7)
0Loc    Object Code    Addr1 Addr2  Stmt Lv Lineno    Source Statement           (Hibal 5, Asmedit 3.3)  HLASM R4.0  2004/03/22 09.47
+___    ______ ____    _____ _____  ____ __ ______    ______ _________
0002E08                            15367  1 2087.                SCKW  UNIT,CNTSUNIT,(A,P)
 002E08 8B0029E0E4D5C9E3           15368  1          +
 002E10                            15369  1 2088.                SCKW  UNITIXR,CUNITIX,(P)
 002E10 860029F2E4D5C9E3           15370  1          +
 002E1B                            15371  1 2089.                SCKW  UNITCAT,,P
 002E1B 86000000E4D5C9E3           15372  1          +
 002E26                            15373  1 2090.                SCKW  CPUID,,(A,P)        IGNORE CPUID KEYWORD
 002E26 8C000000C3D7E4C9           15374  1          +
 002E2F                            15375  1 2091.                SCKW  NAME,,(A,P)         IGNORE NAME KEYWORD
 002E2F 8B000000D5C1D4C5           15376  1          +
 002E37                            15377  1 2092.                SCKW  HISTORY,,(A,P)      IGNORE HISTORY KEYWORD
 002E37 8E000000C8C9E2E3           15378  1          +
 002E42                            15379  1 2093.                SCKW  POOL,,(A,P)         IGNORE POOL KEYWORD
 002E42 8B000000D7D6D6D3           15380  1          +
 002E4A                            15381  1 2094.                SCKW  INCTASK,,(A,P)      IGNORE INCTASK
 002E4A 8E000000C9D5C3E3           15382  1          +
 002E55                            15383  1 2095.                SCKW  TASK,,(A,P)         IGNORE TASK KEYWORD
 002E55 8B000000E3C1E2D2           15384  1          +
 002E5D                            15385  1 2096.                SCKW  SEGMENT,,(A,P)      IGNORE SEGMENT
 002E5D 8E000000E2C5C7D4           15386  1          +
 002E68                            15387  1 2097.                SCKW  START,,(A,P)        IGNORE START
 002E68 8C000000E2E3C1D9           15388  1          +
 002E71                            15389  1 2098.                SCKW  SEQUENCE,,(A,P)     IGNORE SEQUENCE
 002E71 8F000000E2C5D8E4           15390  1          +
 002E7D                            15391  1 2099.                SCKW  FILE,,(A,P)         IGNORE FILE
 002E7D 8B000000C6C9D3C5           15392  1          +
 002E85 81000000D6D5               15393  1 2100.                SCKW  ON,,P               IGNORE ON
 002E8B                            15395  1 2101.                SCKW  ENDSEG,,A           IGNORE ENDSEGMENT
 002E8B 0D000000C5D5C4E2           15396  1          +
 002E95 FF000000                   15397  1 2102.                SCKW  ,                   IGNORE ALL OTHER PARAMETERS
 002788                026FC 02EB0 15399    2103.              END   ,
1VFRY     (VFRY21) (09:47) (22MAR04) ORVYL File System Verify                                                               Page   97
0Current Usings:  (DATASEG,R6) (*,R7)
0Loc    Object Code    Addr1 Addr2  Stmt Lv Lineno    Source Statement           (Hibal 5, Asmedit 3.3)  HLASM R4.0  2004/03/22 09.47
+___    ______ ____    _____ _____  ____ __ ______    ______ _________
0                                  15406    2105.     ¿þþþþþþþþþþþþþþþþþþþþþþþþþþþþþþþþþþþþþþþþþþþþþþþþþþþþþþþþþþþþþþþþþþþþþÜ
                                   15407    2106.     Ÿ                                                                     Ÿ
                                   15408    2107.     Ÿ  CHECK FOR ALLOCATED IXRDUMP DD DEFINITION FOR DUMP THE IXR         Ÿ
                                   15409    2108.     Ÿ  STRUCTURE TO DISK OR TAPE.                                         Ÿ
                                   15410    2109.     Ÿ                                                                     Ÿ
                                                      ¾þþþþþþþþþþþþþþþþþþþþþþþþþþþþþþþþþþþþþþþþþþþþþþþþþþþþþþþþþþþþþþþþþþþþþ»
-002788 9029 D000/188D       00000 15412    2111.     DYNTAPE  VENTER SR,RAR,*,LOCAL     ENTER AND SAVE CALLING REGISTERS
 00278E 41D0 D020/0D70       00020 15416             +
 002794 5860 730C            02AA0 15434    2112.              L     BRR,=A(DATASEG)     ADDRESS OF DATA SEGMENT
 DROP   *,R7
 USING  *,R7
                                   15435    2113.              USING DATASEG,BRR         ADDRESSABILITY TO DATA SEGMENT
 002798 4110 605C            000B4 15437    2114.              LA    R1,IXRDDN           CHECK FOR IXRDUMP BEING DEFINED
 00279C 5890 7310/0D99       02AA4 15438    2115.              ACALL FINDDD              CHECK VIA TIOT
 0027A2 4780 71F8            0298C 15442    2116.              IF    Z,DYNEXIT           ALREADY ALLOCATED, RETURN
 0027A6 4110 6160            001B8 15456    2117.              LA    R1,VFOCNTL          CHECK FOR THE CONTROL FILE
 0027AA 5890 7310/0D99       02AA4 15457    2118.              ACALL FINDDD              CHECK VIA TIOT
 0027B0 4770 71F8            0298C 15461    2119.              IF    NZ,DYNEXIT          LET THE USER BEWARE, I'M TIRED
 0027B4 4120 760C            02DA0 15475    2120.              LA    SR,CNTDCB           ADDRESS OF CONTROL DCB
 USING  IHADCB,R2                  15476    2121.              WITH  (IHADCB,SR),BEGIN   ## ADDRESSABILITY TO DCB
 0027B8 D207 2028 6160 00028 001B8 15490  1 2122.                MVC   DCBDDNAM,VFOCNTL    SET CONTROL FILE DDNAME
 0027BE 0700/4510 7034       027C8 15491  1 2123.                OPEN  (CNTDCB,(INPUT))    OPEN CONTROL FILE
 0027C4 80/002DA0/0A13             15494  1          +
 0027CA 9110 2030      00030       15497  1 2124.                IF    ~DCBOFLGS.DCBOFOPN,BEGIN
 0027CE 4710 705A            027EE 15508  1          +
 0027D2 4110 7390            02B24 15513  2 2125.                  VSEG  'VFRY (201): Unable to open "CONTROL" file.'
 0027D6 4100 002A            0002A 15517  2          +
 0027DA 5890 7314/0D99       02AA8 15520  2          +
 0027E0 5890 7318/0D99       02AAC 15522  2 2126.                  VWRITE ,
 0027E6 41F0 0020            00020 15527  2 2127.                  LA    R15,32              SET RETURN CODE
 0027EA 47F0 71F8            0298C 15528  2 2128.                  B     DYNEXIT             AND JUST RETURN FROM HERE
 0027EE                            15529  1 2129.                END   ,
 DROP   IHADCB,R2                  15533    2130.              END   ,
                                   15541    2131.              DROP  SR
00027EE 9140 6074      000CC       15546    2133.              IF    IXDISK,BEGIN        CHANGE SVC99 RB
 0027F2 47E0 706A            027FE 15556             +
 0027F6 4110 7520            02CB4 15561  1 2134.                LA    R1,DTPTRS           ADDRESS OF DISK POINTERS
 0027FA 5010 7418            02BAC 15562  1 2135.                ST    R1,TDYNRB+8         RESET INTO SVC99 RB
 0027FE                            15563    2136.              END   ,
00027FE                            15568    2138.              LOOP BEGIN                LOOK FOR TAPE PREFIX
 0027FE 4110 760C            02DA0 15574  1 2139.                GET   CNTDCB,CNTBUFR      READ RECORD INTO CONTROL BUFFER
 002802 4100 759C/1FFF       02D30 15577  1          +
 002808 BFF7 1031/05EF       00031 15579  1          +
 00280E 4110 759C            02D30 15581  1 2140.                SCINIT CNTBUFR,L'CNTBUFR,CNTCB      INITIALIZE SCANNER
 002812 4100 0050            00050 15595  1          +
 002816 41F0 75EC            02D80 15602  1          +
 00281A 58E0 731C/0DEE       02AB0 15605  1          +
 002820 4110 766C            02E00 15607  1 2141.                SCAN  CNTKWR,(R15)        LOOK FOR TAPE PREFIX
 002824 58E0 7320/0DEE       02AB4 15621  1          +
 00282A 47F0 706A            027FE 15623    2142.              END   ,
1VFRY     (VFRY21) (09:47) (22MAR04) ORVYL File System Verify                                                               Page   98
0Current Usings:  (DATASEG,R6) (*,R7)
0Loc    Object Code    Addr1 Addr2  Stmt Lv Lineno    Source Statement           (Hibal 5, Asmedit 3.3)  HLASM R4.0  2004/03/22 09.47
+___    ______ ____    _____ _____  ____ __ ______    ______ _________
000282E                            15628    2143.     CNTEOD   LABEL ,
 00282E D52B 7474 7324 02C08 02AB8 15630    2144.              CLC   TDSN+6(44),=CL44' '  TAPE DSN FOUND?
 002834 4770 70C0            02854 15631    2145.              IF    EQ,BEGIN
 002838 4110 7350            02AE4 15642  1 2146.                VSEG  'VFRY (202): Unable to determine tape prefix.'
 00283C 4100 002C            0002C 15646  1          +
 002840 5890 7314/0D99       02AA8 15649  1          +
 002846 5890 7318/0D99       02AAC 15651  1 2147.                VWRITE ,                  WRITE TO REPORT FILE
 00284C 41F0 0020            00020 15656  1 2148.                LA    R15,32              SET RETURN CODE
 002850 47F0 71F8            0298C 15657  1 2149.                B     DYNEXIT             AND JUST RETURN FROM HERE
 002854                            15658    2150.              END   ,
 002854 4510 70C8/80         0285C 15662    2151.     PREFFND  CLOSE CNTDCB              CLOSE CONTROL FILE
 002859 002DA0/0A14                15666             +
 00285E 4110 760C            02DA0 15668    2152.              FREEPOOL CNTDCB           AND RELEASE BUFFER POOL
 002862 9101 1017      00017       15671             +
 002866 4710 7118/1FFF       028AC 15672             +
 00286C BFF7 1015            00015 15674             +
 002870 58E0 F000/12EE       00000 15675             +
 002876 4770 70EE            02882 15677             +
 00287A 9130 F004      00004       15678             +
 00287E 4770 7118            028AC 15679             +
 002882 9601 1017/1BEE 00017       15680             +
 002888 1B11/BF13 F006       00006 15682             +
 00288E 43E0 F005/1C0E       00005 15684             +
 002894 4110 1008            00008 15686             +
 002898 9140 F004      00004       15687             +
 00289C 47E0 7110            028A4 15688             +
 0028A0 4110 1008/1801       00008 15689             +
 0028A6 4110 F000/0A0A       00000 15691             +
 0028AC                            15694    2153.              IF    (TUNITIX,NE,=CL8' '),BEGIN
 0028AC D507 72E4 7424 02A78 02BB8 15705             +
 0028B2 4780 7128            028BC 15706             +
 0028B6 D207 74C7 7424 02C5B 02BB8 15711  1 2154.                MVC   TUNIT+6(8),TUNITIX      UPDATE ALLOCATION UNIT
 0028BC                            15712    2155.              END   ,
 0028BC D507 74C7 72E4 02C5B 02A78 15716    2156.              CLC   TUNIT+6(8),=CL8' '      CHECK FOR MISSING TAPE ALLOC
 0028C2 4770 7138            028CC 15717    2157.              IF    EQ,BEGIN                SET DEFAULT ALLOCATION
 0028C6 D207 74C7 72EC 02C5B 02A80 15728  1 2158.                MVC   TUNIT+6(8),=CL8'TAPE'   DEFAULT TO GENERIC TAPE
 0028CC                            15729    2159.              END   ,
 0028CC D207 7466 605C 02BFA 000B4 15733    2160.              MVC   TDDN+6(8),IXRDDN
 0028D2 4110 740C            02BA0 15734    2161.              LA    R1,TDYNP            ADDRESS OF SVC99 REQUEST
 0028D6 0A63                       15735    2162.              DYNALLOC ,                ALLOCATE THE TAPE
 0028D8 12FF/4780 71F8       0298C 15738    2163.              IF    (R15,NZ),BEGIN      ERROR IN DYNAMIC ALLOCATION
                                   15752  1 2164.                ¿þþþþþþþþþþþþþþþþþþþþþþþþþþþþþþþþþþþþþþþþþþþþþþþþþþþþþþþþþþÜ
                                   15753  1 2165.                Ÿ  Title: OS/390 V2R7.0 MVS Auth Assembler Services Guide  Ÿ
                                   15754  1 2166.                Ÿ  Document Number: GC28-1763-06                           Ÿ
                                   15755  1 2167.                ¾þþþþþþþþþþþþþþþþþþþþþþþþþþþþþþþþþþþþþþþþþþþþþþþþþþþþþþþþþþ»
 0028DE 182F                       15756  1 2168.                LR    SR,R15              SAVE SVC99 RETURN CODE
 0028E0 4110 73CA            02B5E 15757  1 2169.                VSEG  'VFRY (203): Dynamic allocation error. Return('
 0028E4 4100 002D            0002D 15761  1          +
 0028E8 5890 7314/0D99       02AA8 15764  1          +
 0028EE 18F2/1B00                  15766  1 2170.                SEGDC 0,(SR),WORK=SWRK    ADD TO MESSAGE
 0028F2 4110 758C            02D20 15783  1          +
 0028F6 58E0 737C/0DEE       02B10 15786  1          +
 0028FC 5890 7314/0D99       02AA8 15803  1          +
 002902 4110 73F7            02B8B 15805  1 2171.                VSEG  ')'                 ADD CLOSING PAREND
1VFRY     (VFRY21) (09:47) (22MAR04) ORVYL File System Verify                                                               Page   99
0Current Usings:  (DATASEG,R6) (*,R7)
0Loc    Object Code    Addr1 Addr2  Stmt Lv Lineno    Source Statement           (Hibal 5, Asmedit 3.3)  HLASM R4.0  2004/03/22 09.47
+___    ______ ____    _____ _____  ____ __ ______    ______ _________
0002906 4100 0001            00001 15809  1          +
 00290A 5890 7314/0D99       02AA8 15812  1          +
 002910 5890 7318/0D99       02AAC 15814  1 2172.                VWRITE ,
 002916 4100 0010            00010 15819  1 2173.                VCNTL BLANK,12            ADD SPACES TO MESSAGE
 00291A 4110 000C            0000C 15827  1          +
 00291E 5890 7380/0D99       02B14 15836  1          +
 002924 4110 73F8            02B8C 15838  1 2174.                VSEG  'Error code('
 002928 4100 000B            0000B 15842  1          +
 00292C 5890 7314/0D99       02AA8 15845  1          +
 002932 1FFF/BFF3 7414       02BA8 15847  1 2175.                L2    R15,TDYNRB+4        SET ERROR CODE
 002938 4100 0004            00004 15855  1 2176.                SEGHX 4,(R15),WORK=SWRK   ADD TO MESSAGE
 00293C 4110 758C            02D20 15874  1          +
 002940 58E0 7384/0DEE       02B18 15877  1          +
 002946 5890 7314/0D99       02AA8 15894  1          +
 00294C 4110 73BA            02B4E 15896  1 2177.                VSEG  ') Reason code('
 002950 4100 000E            0000E 15900  1          +
 002954 5890 7314/0D99       02AA8 15903  1          +
 00295A 1FFF/BFF3 7416       02BAA 15905  1 2178.                L2    R15,TDYNRB+6        SET REASON CODE
 002960 4100 0004            00004 15913  1 2179.                SEGHX 4,(R15),WORK=SWRK   ADD TO MESSAGE
 002964 4110 758C            02D20 15932  1          +
 002968 58E0 7384/0DEE       02B18 15935  1          +
 00296E 5890 7314/0D99       02AA8 15952  1          +
 002974 4110 73F7            02B8B 15954  1 2180.                VSEG  ')'                 ADD CLOSING PAREND
 002978 4100 0001            00001 15958  1          +
 00297C 5890 7314/0D99       02AA8 15961  1          +
 002982 5890 7318/0D99       02AAC 15963  1 2181.                VWRITE ,                  WRITE TO REPORT FILE
 002988 41F0 0020            00020 15968  1 2182.                LA    R15,32              SET ERROR RETURN CODE
 00298C                            15969    2183.              END   ,
000298C 18D8/9829 D000       00000 15974    2185.     DYNEXIT  VEXIT SR,RAR,LTR          RESTORE REGISTERS AND RETURN
 002992 12FF/07F9                  15978             +
1VFRY     (VFRY21) (09:47) (22MAR04) ORVYL File System Verify                                                               Page  100
0Current Usings:  (DATASEG,R6) (*,R7)
0Loc    Object Code    Addr1 Addr2  Stmt Lv Lineno    Source Statement           (Hibal 5, Asmedit 3.3)  HLASM R4.0  2004/03/22 09.47
+___    ______ ____    _____ _____  ____ __ ______    ______ _________
0002996                            15981    2187.     CNTSTAPE LABEL ,                   RETRIEVE TAPE PREFIX NAME
 002996 1820                       15983    2188.              LR    SR,R0               COPY LENGTH OF PREFIX
 002998 0620/4420 7706       02E9A 15984    2189.              DEX   SR,'MVC TDSN+6(0),@R1' MOVE PREFIX
 002E99 00                                1          +
 002E9A D200 7474 1000 02C08 00000 15995             +
 00299E 4110 7474            02C08 16003    2190.              LA    R1,TDSN+6           POINT TO FIRST CHARACTER OF NAME
 0029A2 4100 002C            0002C 16004    2191.              LA    R0,44               AND SET MAXIMUM LENGTH
 0029A6 5890 7388/0D99       02B1C 16005    2192.              ACALL RTRIM               TRIM TRAILING BLANKS
 0029AC 1E10                       16009    2193.              ALR   R1,R0               POINT TO END
 0029AE D207 1000 72F4 00000 02A88 16010    2194.              MVC   @R1(8),=C'.IXRDUMP' Assume IXRDUMP for full dump
 0029B4 9180 6075      000CD       16011    2195.              IF    INC,'MVC @R1(8),=CL8".INCIXR"'
 0029B8 47E0 722E            029C2 16021             +
 0029BC D207 1000 72FC 00000 02A90 16027             +
 0029C2 9120 6074      000CC       16032    2196.              IF    IXTAPE,'MVC @R1(7),=C".INCIXR"'
 0029C6 47E0 723C            029D0 16042             +
 0029CA D206 1000 7403 00000 02B97 16048             +
 0029D0 9140 6074      000CC       16053    2197.              IF    IXDISK,'MVC @R1(8),=C".INC.IXR"'
 0029D4 47E0 724A            029DE 16063             +
 0029D8 D207 1000 7304 00000 02A98 16069             +
 0029DE 07FE                       16074    2198.              SCRTN (R15)               RETURN TO SCANNER
-0029E0                            16081    2200.     CNTSUNIT LABEL ,
 0029E0 9140 6074      000CC       16083    2201.              IF    ~IXDISK,BEGIN       FOR IXR DUMP TO TAPE
 0029E4 4710 725C            029F0 16093             +
 0029E8 1820                       16098  1 2202.                LR    SR,R0               COPY LENGTH OF UNIT
 0029EA 0620/4420 770C       02EA0 16099  1 2203.                DEX   SR,'MVC TUNIT+6(0),@R1'  MOVE IN TAPE UNIT NAME
 002EA0 D200 74C7 1000 02C5B 00000 16110  1          +
 0029F0                            16118    2204.              END   ,
 0029F0 07FE                       16122    2205.              SCRTN (R15)               RETURN TO THE SCANNER
-0029F2                            16129    2207.     CUNITIX  LABEL ,                   Set overriding IXR dump unit
 0029F2 1820                       16131    2208.              LR    SR,R0                   COPY LENGTH OF UNIT NAME
 0029F4 0620/4420 7712       02EA6 16132    2209.              DEX   SR,'MVC TunitIX(0),@R1'   SET TAPE UNIT NAME
 002EA6 D200 7424 1000 02BB8 00000 16143             +
 0029FA 07FE                       16151    2210.              SCRTN (R15)                       RETURN TO THE SCANNER
1VFRY     (VFRY21) (09:47) (22MAR04) ORVYL File System Verify                                                               Page  101
0Current Usings:  (DATASEG,R6) (*,R7)
0Loc    Object Code    Addr1 Addr2  Stmt Lv Lineno    Source Statement           (Hibal 5, Asmedit 3.3)  HLASM R4.0  2004/03/22 09.47
+___    ______ ____    _____ _____  ____ __ ______    ______ _________
0                                  16158    2212.     ¿þþþþþþþþþþþþþþþþþþþþþþþþþþþþþþþþþþþþþþþþþþþþþþþþþþþþþþþþþþþþþþþþþþþþþÜ
                                   16159    2213.     Ÿ                                                                     Ÿ
                                   16160    2214.     Ÿ  RTRIM  -- Trim trailing blanks from passed string                  Ÿ
                                   16161    2215.     Ÿ                                                                     Ÿ
                                                      ¾þþþþþþþþþþþþþþþþþþþþþþþþþþþþþþþþþþþþþþþþþþþþþþþþþþþþþþþþþþþþþþþþþþþþþ»
-0029FC                            16163    2217.     RTRIM    LABEL ,                   Right trim character string
 0029FC 1200/0789                  16165    2218.              IF    (R0,Z),RAR          Just return if length is zero
 002A00 5020 D000            00000 16182    2219.              VPUSH R2,,*               Save work register
 002A04 41D0 D004            00004 16184             +
 002A08 1821                       16185    2220.              LR    R2,R1               Copy address of string start
 002A0A 1E20                       16186    2221.              ALR   R2,R0               Set address of end of string +1
 002A0C 5B20 738C            02B20 16187    2222.              S     R2,=A(1)            Point to last character
 002A10                            16188    2223.              LOOP  BEGIN               Find first non-blank character
 002A10 9540 2000      00000       16194  1 2224.                CLI   @R2,C' '            Any blank there?
 002A14 4770 7290            02A24 16195  1 2225.                IF    NE,EXIT             Exit loop if non-balnk
 002A18 5F20 738C            02B20 16209  1 2226.                SL    R2,=A(1)            Decrement compare address
 002A1C 5B00 738C            02B20 16210  1 2227.                S     R0,=A(1)            Decrement string length
 002A20 4770 727C            02A10 16211    2228.              UNTIL Z,END               Loop back to check next character
 002A24 4BD0 73C8            02B5C 16230    2229.              VPOP  R2,,*               Restore registers
 002A28 5820 D000            00000 16232             +
 002A2C 07F9                       16233    2230.              BR    RAR                 And return
1VFRY     (VFRY21) (09:47) (22MAR04) ORVYL File System Verify                                                               Page  102
0Current Usings:  (DATASEG,R6) (*,R7)
0Loc    Object Code    Addr1 Addr2  Stmt Lv Lineno    Source Statement           (Hibal 5, Asmedit 3.3)  HLASM R4.0  2004/03/22 09.47
+___    ______ ____    _____ _____  ____ __ ______    ______ _________
0                                  16235    2232.     ********************************************************************
                                   16236    2233.     *                                                                  *
                                   16237    2234.     **  Locate specified DDNAME in TIOT                                *
                                   16238    2235.     **       R1  ->  Eight character right padded DDNAME               *
                                   16239    2236.     **       R1  ->  On return is address of TIOT entry if found       *
                                   16240    2237.     **       R15 ->  On return 0, DDNAME found                         *
                                   16241    2238.     **                         4, DDNAME not found                     *
                                   16242    2239.     *                                                                  *
                                   16243    2240.     ********************************************************************
0002A2E                            16245    2242.     FINDDD   LABEL ,
 002A2E 5820 0010            00010 16247    2243.              L     R2,16               Address of CVT
 USING  CVTMAP,R2                  16248    2244.              USING CVTMAP,R2           ## Addresability to CVT
 002A32 5820 2000            00000 16257    2245.              L     R2,CVTTCBP          Address of TCB double words
 DROP   CVTMAP,R2                  16258    2246.              DROP  R2                  ## Rlse addr to CVT
 002A36 5820 2004            00004 16265    2247.              L     R2,@R2+4            Current TCB address, ours namely
 USING  TCB,R2                     16266    2248.              USING TCB,R2              ## Addr to tcb
 002A3A 5820 200C            0002C 16275    2249.              L     R2,TCBTIO           TIOT address from TCB
 DROP   TCB,R2                     16276    2250.              USING TIOT1,R2            ## Addr to TIOT
 USING  TIOT1,R2
 002A3E 4120 2018            00018 16288    2251.              LA    R2,TIOENTRY         Start of DDNAME entries
 DROP   TIOT1,R2                   16289    2252.              USING TIOENTRY,R2         ## Addr to TIOT entries
 USING  TIOENTRY,R2
 002A42 1F33/4330 2000       00018 16301    2253.              LC    TR,TIOELNGH         Length of current entry or zero
 002A48 1233/4780 72D2       02A66 16308    2254.              WHILE (TR,NZ),BEGIN       Loop through non-zero entries
 002A4E                            16324  1 2255.                IF    (TIOEDDNM,EQ,@R1),EXIT  Exit loop if DDNAME found
 002A4E D507 2004 1000 0001C 00000 16335  1          +
 002A54 4780 72D2            02A66 16338  1          +
 002A58 4123 2000            00018 16344  1 2256.                LA    R2,TIOELNGH(TR)     Next possible ddname entry
 002A5C 1F33/4330 2000       00018 16345  1 2257.                LC    TR,TIOELNGH         Length of next entry
 002A62 47F0 72B4            02A48 16352    2258.              END   ,
 002A66 41F0 0004            00004 16357    2259.              LA    R15,4               Set not found return code
 002A6A 1233/4780 72E0       02A74 16358    2260.              IF    (TR,NZ),BEGIN       Found ddname set return regs
 002A70 1812                       16372  1 2261.                LR    R1,R2               Address of TIOT entry
 002A72 1BFF                       16373  1 2262.                CLEAR R15                 Zero return code
 DROP   TIOENTRY,R2                16377  1 2263.                DROP  R2,TR               ## Release addressability
 002A74                            16387    2264.              END   ,
 002A74 12FF                       16391    2265.              LTR   R15,R15             SET CONDITION CODE
 002A76 07F9                       16392    2266.              BR    RAR                 RETURN TO CALLER
1VFRY     (VFRY21) (09:47) (22MAR04) ORVYL File System Verify                                                               Page  103
0Current Usings:  (DATASEG,R6) (*,R7)
0Loc    Object Code    Addr1 Addr2  Stmt Lv Lineno    Source Statement           (Hibal 5, Asmedit 3.3)  HLASM R4.0  2004/03/22 09.47
+___    ______ ____    _____ _____  ____ __ ______    ______ _________
0                                  16394    2268.     ¿þþþþþþþþþþþþþþþþþþþþþþþþþþþþþþþþþþþþþþþþþþþþþþþþþþþþþþþþþþþþþþþþþþþþþÜ
                                   16395    2269.     Ÿ                                                                     Ÿ
                                   16396    2270.     Ÿ  Define final literal pool for VERIFY utility                       Ÿ
                                   16397    2271.     Ÿ                                                                     Ÿ
                                                      ¾þþþþþþþþþþþþþþþþþþþþþþþþþþþþþþþþþþþþþþþþþþþþþþþþþþþþþþþþþþþþþþþþþþþþþ»
-002A78                            16399    2273.              LTORG ,                   Define literal pool
 002A78 4040404040404040           16401                             =CL8' '
 002A80 E3C1D7C540404040           16402                             =CL8'TAPE'
 002A88 4BC9E7D9C4E4D4D7           16403                             =C'.IXRDUMP'
 002A90 4BC9D5C3C9E7D940           16404                             =CL8'.INCIXR'
 002A98 4BC9D5C34BC9E7D9           16405                             =C'.INC.IXR'
 002AA0 00000058                   16406                             =A(DATASEG)
 002AA4 00002A2E                   16407                             =A(FINDDD)
 002AA8 00000000                   16408                             =V(VSEG)
 002AAC 00000000                   16409                             =V(VWRITE)
 002AB0 00000000                   16410                             =V(SCINIT)
 002AB4 00000000                   16411                             =V(SCAN)
 002AB8 4040404040404040           16412                             =CL44' '
 002AE4 E5C6D9E8404DF2F0           16413                             =C'VFRY (202): Unable to determine tape prefix.'
 002B10 00000000                   16414                             =V(BTD)
 002B14 00000000                   16415                             =V(VCNTRL)
 002B18 00000000                   16416                             =V(BTX)
 002B1C 000029FC                   16417                             =A(RTRIM)
 002B20 00000001                   16418                             =A(1)
 002B24 E5C6D9E8404DF2F0           16419                             =C'VFRY (201): Unable to open "CONTROL" file.'
 002B4E 5D40D98581A29695           16420                             =C') Reason code('
 002B5C 0004                       16421                             =Y(4)
 002B5E E5C6D9E8404DF2F0           16422                             =C'VFRY (203): Dynamic allocation error. Return('
 002B8B 5D                         16423                             =C')'
 002B8C C599999699408396           16424                             =C'Error code('
 002B97 4BC9D5C3C9E7D9             16425                             =C'.INCIXR'
 DROP   *,R7                       16429    2274.              DROP  ,                   Release all addressability
 DROP   DATASEG,R6
 002EB0                02EB0 02EB0 16468    2275.              END   .

1VFRY     (VFRY21) (09:47) (22MAR04) Ordinary Symbol and Literal Cross Reference                                            Page  104
-Symbol   Length   Value     Id    R Type   Defn References                                  HLASM R4.0  2004/03/22 09.47
0$$$@R10       1 00000000 FFFFFFF4     J     881  1152
 $$$@R11       1 00000000 FFFFFFF3     J     894  1165
 $$$@R2        1 00000000 FFFFFFFC     J     777  1048
 $$$@R3        1 00000000 FFFFFFFB     J     790  1061
 $$$@R4        1 00000000 FFFFFFFA     J     803  1074
 $$$@R5        1 00000000 FFFFFFF9     J     816  1087
 $$$@R6        1 00000000 FFFFFFF8     J     829  1100
 $$$@R7        1 00000000 FFFFFFF7     J     842  1113
 $$$@R8        1 00000000 FFFFFFF6     J     855  1126
 $$$@R9        1 00000000 FFFFFFF5     J     868  1139
 $$$C1VFRY
               1 000003DE 00000001     J    6221  6223
 $$$C2VFRY
               1 00000707 00000001     J    6818  6820   7393
 $$$C3VFRY
               1 00000C6E 00000001     J    8291  8293   8784
 $$$C4VFRY
               1 000013C2 00000001     J   10158 10160  10782
 $$$C5VFRY
               1 00001662 00000001     J   10848 10850  11155  11208
 $$$C6VFRY
               1 0000212C 00000001     J   13652 13654  14118
 $$$C7VFRY
               1 000026FC 00000001     J   15173 15175  15403  16001  16116  16149
 $$$C8VFRY
               1 00002EAC 00000001     J   16426 16428
 $$$C9VFRY
               1 00002EB0 00000001     J   16471 16473
 $$$D0VFRY
               1 00000058 00000001     J    1187  5535
 $$$D2VFRY
               1 00000C68 00000001     J    6819  7382
 $$$D3VFRY
               1 000013BB 00000001     J    8292  8773
 $$$D4VFRY
               1 0000165D 00000001     J   10159 10771
 $$$D5VFRY
               1 00002123 00000001     J   10849 11144  11197
 $$$D6VFRY
               1 000026F5 00000001     J   13653 14107
 $$$D7VFRY
               1 00002B9E 00000001     J   15174 15224  15990  16105  16138
 $$$RFBHDR
               1 00000000 FFFFFFEE     J    1208  1244   1244
 $$$RFSMB      1 00000000 FFFFFFED     J    1291  1367   1367
 $$$RNXRYFL
               1 00000000 FFFFFFEB     J    1443  1589   1589
 $$$RNXRYGR
               1 00000000 FFFFFFEC     J    1374  1436   1436
 $$$RSERRBLK
               1 00000000 FFFFFFDB     J    5867  5884   5884
 $$$RSERRLST
               1 00000000 FFFFFFDA     J    5896  5939   5939
 $$$Z2         4 00000BB4 00000001     F    8265  7702
 $$$100F       2 0000101A 00000001     H    9521  9095B  9125B
1VFRY     (VFRY21) (09:47) (22MAR04) Ordinary Symbol and Literal Cross Reference                                            Page  105
 $$$101F       2 00000E8E 00000001     H    9128  9112B
 $$$103B       4 00000E96 00000001     I    9142  9201
 $$$103F       2 00000EDA 00000001     H    9198  9142B  9200
 $$$104F       2 00000ED2 00000001     H    9189  9174B
 $$$104S       2 00000EBE 00000001     H    9167  9188B
 $$$106E       2 00000EDE 00000001     H    9208  9202
 $$$106F       2 00000F1C 00000001     H    9262  9204B
 $$$107F       2 00000F1C 00000001     H    9258  9231B
 $$$107S       2 00000EE4 00000001     H    9222  9257B
 $$$110F       2 00000F34 00000001     H    9294  9281B
 $$$111F       2 00000F98 00000001     H    9383  9322B
 $$$111S       2 00000F3E 00000001     H    9313  9382B
 $$$113F       2 00000FEC 00000001     H    9460  9411B
 $$$113S       2 00000FA8 00000001     H    9402  9459B
 $$$115B       4 00000FF0 00000001     I    9471  9491
 $$$115F       2 00001002 00000001     H    9488  9471B  9490
 $$$116E       2 00001006 00000001     H    9498  9492
 $$$116F       2 00001014 00000001     H    9512  9494B
 $$$117B       1 0000103E 00000001     X    9574  9581U
 $$$118F       2 00001062 00000001     H    9643  9595B
 $$$119B       4 0000104E 00000001     I    9612  9625
 $$$119F       2 00001058 00000001     H    9622  9612B  9624
 $$$120E       2 0000105C 00000001     H    9632  9626
 $$$120F       2 00001062 00000001     H    9639  9628B
 $$$121F       2 00001078 00000001     H    9681  9656B  9668B
 $$$123F       2 000010AC 00000001     H    9722  9700B
 $$$123S       2 00001080 00000001     H    9693  9721B
 $$$125B       1 000010C0 00000001     X    9744  9754U
 $$$126F       2 000011DA 00000001     H   10102  9974B
 $$$126S       2 00001176 00000001     H    9968 10101B
 $$$128B       1 000013CE 00000001     X   10179 10189U
 $$$129F       2 000013E0 00000001     H   10224 10211B
 $$$130F       2 00001406 00000001     H   10250 10240B
 $$$131F       2 00001480 00000001     H   10322 10296B 10310B
 $$$131T       2 00001464 00000001     H   10299 10284B
 $$$134F       2 000014CC 00000001     H   10366 10330B
 $$$135F       2 0000149E 00000001     H   10353 10343B
 $$$136F       2 000014E2 00000001     H   10395 10382B
 $$$137B       1 000014F6 00000001     X   10428 10438U
 $$$138F       2 000015A8 00000001     H   10668 10460B
 $$$141B       4 0000153C 00000001     I   10523 10545
 $$$141F       2 0000154E 00000001     H   10542 10523B 10544
 $$$142E       2 00001552 00000001     H   10552 10546
 $$$142F       2 000015A8 00000001     H   10664 10548B
 $$$143B       4 00001568 00000001     I   10570 10591
 $$$143F       2 00001578 00000001     H   10587 10570B 10590
 $$$144B       4 00001582 00000001     I   10610 10631
 $$$144E       2 0000157C 00000001     H   10598 10592
 $$$144F       2 00001592 00000001     H   10627 10594B 10610B 10630
 $$$146E       2 00001596 00000001     H   10638 10632
 $$$146F       2 000015A8 00000001     H   10660 10634B 10649B
 $$$148B       1 000015C0 00000001     X   10695 10705U
 $$$149F       2 000015D2 00000001     H   10740 10727B
 $$$150F       2 00001600 00000001     H   10787 10754B
 $$$151        4 0000165E 00000001     I   10777 10769X
 $$$152        4 0000165E 00000001     I   10776 10777  10777
 $$$153F       2 00001610 00000001     H   10811 10798B
 $$$154B       1 0000166E 00000001     X   10869 10879U
 $$$155F       2 00001694 00000001     H   10920 10910B
1VFRY     (VFRY21) (09:47) (22MAR04) Ordinary Symbol and Literal Cross Reference                                            Page  106
 $$$155T       2 0000168E 00000001     H   10913 10900B
 $$$157B       1 000016CA 00000001     X   10977 10987U
 $$$158F       2 0000170A 00000001     H   11117 11006B
 $$$159B       4 000016DE 00000001     I   11024 11038
 $$$159F       2 000016E6 00000001     H   11035 11024B 11037
 $$$160E       2 000016EA 00000001     H   11045 11039
 $$$160F       2 0000170A 00000001     H   11113 11041B
 $$$161F       2 000016F6 00000001     H   11069 11059B
 $$$162B       4 000016FA 00000001     I   11080 11094
 $$$162F       2 00001702 00000001     H   11091 11080B 11093
 $$$163E       2 00001706 00000001     H   11101 11095
 $$$163F       2 0000170A 00000001     H   11109 11097B
 $$$164        4 00002124 00000001     I   11150 11142X
 $$$165        4 00002124 00000001     I   11149 11150  11150
 $$$166B       4 00001738 00000001     I   11163 11182
 $$$166F       2 00001744 00000001     H   11179 11163B 11181
 $$$167E       2 00001748 00000001     H   11189 11183
 $$$167F       2 00001754 00000001     H   11213 11185B
 $$$168        4 00002128 00000001     I   11203 11195X
 $$$169        4 00002128 00000001     I   11202 11203  11203
 $$$17F        2 0000040E 00000001     H    6275  6257B
 $$$170F       2 00001794 00000001     H   11322 11258B 11278B
 $$$170S       2 00001772 00000001     H   11252 11321B
 $$$173B       4 00001780 00000001     I   11290 11303
 $$$173F       2 00001788 00000001     H   11300 11290B 11302
 $$$174E       2 0000178C 00000001     H   11310 11304
 $$$174F       2 00001790 00000001     H   11317 11306B
 $$$175F       2 000017BC 00000001     H   11406 11330B
 $$$176F       2 000017BC 00000001     H   11402 11351B
 $$$177B       4 000017AA 00000001     I   11365 11379
 $$$177F       2 000017B2 00000001     H   11376 11365B 11378
 $$$178E       2 000017B6 00000001     H   11386 11380
 $$$178F       2 000017BC 00000001     H   11398 11382B
 $$$179F       2 000017E2 00000001     H   11451 11440B
 $$$180F       2 00001804 00000001     H   11524 11465B
 $$$181B       4 000017F2 00000001     I   11483 11506
 $$$181F       2 000017FE 00000001     H   11503 11483B 11505
 $$$182E       2 00001802 00000001     H   11513 11507
 $$$182F       2 00001804 00000001     H   11520 11509B
 $$$183F       2 00001812 00000001     H   11546 11535B
 $$$184B       1 00001828 00000001     X   11574 11584U
 $$$185F       2 00001852 00000001     H   11658 11601B
 $$$187F       2 000018DA 00000001     H   11801 11765B
 $$$188B       4 0000191A 00000001     I   11863 11884
 $$$188F       2 0000192C 00000001     H   11881 11863B 11883
 $$$189E       2 00001930 00000001     H   11891 11885
 $$$189F       2 0000193E 00000001     H   11906 11887B
 $$$190F       2 00001954 00000001     H   11935 11917B
 $$$191F       2 0000196A 00000001     H   11964 11946B
 $$$192F       2 00001980 00000001     H   11993 11975B
 $$$193F       2 00001996 00000001     H   12022 12004B
 $$$194F       2 000019AC 00000001     H   12051 12033B
 $$$195F       2 000019C2 00000001     H   12080 12062B
 $$$196F       2 000019D8 00000001     H   12109 12091B
 $$$197F       2 00001A24 00000001     H   12193 12132B
 $$$198F       2 00001A60 00000001     H   12284 12230B
 $$$199F       2 00001A60 00000001     H   12280 12255B
 $$$201F       2 00001A98 00000001     H   12329 12304B
 $$$203F       2 00001AA8 00000001     H   12376 12366B
1VFRY     (VFRY21) (09:47) (22MAR04) Ordinary Symbol and Literal Cross Reference                                            Page  107
 $$$204F       2 00001AD0 00000001     H   12415 12390B
 $$$205F       2 00001B8A 00000001     H   12599 12528B
 $$$21F        2 0000059E 00000001     H    6710  6700B
 $$$213F       2 00001C26 00000001     H   12826 12816B
 $$$214F       2 00001C54 00000001     H   12879 12854B
 $$$214T       2 00001C38 00000001     H   12857 12842B
 $$$218F       2 00001C80 00000001     H   12947 12937B
 $$$219F       2 00001CBC 00000001     H   12998 12963B
 $$$220F       2 00001DF8 00000001     H   13429 13032B
 $$$220S       2 00001CC8 00000001     H   13025 13428B
 $$$224F       2 00001D80 00000001     H   13290 13127B
 $$$225B       4 00001D90 00000001     I   13306 13321
 $$$225F       2 00001DA0 00000001     H   13318 13306B 13320
 $$$226E       2 00001DA4 00000001     H   13328 13322
 $$$226F       2 00001DE4 00000001     H   13415 13324B
 $$$227F       2 00001DE4 00000001     H   13411 13343B
 $$$228F       2 00001E24 00000001     H   13475 13447B
 $$$229F       2 00001E4C 00000001     H   13523 13497B
 $$$232B       1 00002138 00000001     X   13672 13679U
 $$$233F       2 000021CA 00000001     H   13877 13813B
 $$$234F       2 00002200 00000001     H   13952 13888B
 $$$235F       2 0000223A 00000001     H   14031 13963B
 $$$236B       1 0000224E 00000001     X   14062 14072U
 $$$237F       2 0000226E 00000001     H   14103 14090B
 $$$237S       2 00002250 00000001     H   14081 14102B
 $$$239        6 000026F6 00000001     I   14113 14105X
 $$$240        6 000026F6 00000001     I   14112 14113  14113
 $$$241B       1 00002286 00000001     X   14143 14153U
 $$$242B       1 00002346 00000001     X   14436 14446U
 $$$243F       2 000023E2 00000001     H   14624 14467B
 $$$244F       2 0000246C 00000001     H   14737 14635B
 $$$245F       2 00002462 00000001     H   14728 14669B
 $$$246B       4 0000240A 00000001     I   14683 14703
 $$$246F       2 00002436 00000001     H   14700 14683B 14702
 $$$247E       2 0000243A 00000001     H   14710 14704
 $$$247F       2 00002462 00000001     H   14724 14706B
 $$$248B       1 0000248C 00000001     X   14772 14782U
 $$$249B       1 000024BE 00000001     X   14833 14843U
 $$$25F        2 00000738 00000001     H    6896  6885B
 $$$250F       2 000024D4 00000001     H   14882 14857B 14872B
 $$$252F       2 000024F8 00000001     H   14924 14910B
 $$$253F       2 00002558 00000001     H   14993 14955B
 $$$255F       2 000025C0 00000001     H   15097 15016B
 $$$256F       2 000025C0 00000001     H   15085 15047B
 $$$258F       2 000025EC 00000001     H   15132 15116B
 $$$258S       2 000025D2 00000001     H   15110 15131B
 $$$26F        2 00000750 00000001     H    6936  6925B
 $$$260B       1 00002794 00000001     X   15422 15432U
 $$$263F       2 000027EE 00000001     H   15532 15508B
 $$$265F       2 000027FE 00000001     H   15566 15556B
 $$$266S       2 000027FE 00000001     H   15572 15626B
 $$$267F       2 00002854 00000001     H   15661 15637B
 $$$268F       2 000028BC 00000001     H   15715 15706B
 $$$269F       2 000028CC 00000001     H   15732 15723B
 $$$27F        2 0000076E 00000001     H    6981  6966B
 $$$270F       2 0000298C 00000001     H   15972 15747B
 $$$271        6 00002E9A 00000001     I   15996 15988X
 $$$272        6 00002E9A 00000001     I   15995 15996  15996
 $$$273F       2 000029C2 00000001     H   16031 16021B
1VFRY     (VFRY21) (09:47) (22MAR04) Ordinary Symbol and Literal Cross Reference                                            Page  108
 $$$274F       2 000029D0 00000001     H   16052 16042B
 $$$275F       2 000029DE 00000001     H   16073 16063B
 $$$276F       2 000029F0 00000001     H   16121 16093B
 $$$277        6 00002EA0 00000001     I   16111 16103X
 $$$278        6 00002EA0 00000001     I   16110 16111  16111
 $$$279        6 00002EA6 00000001     I   16144 16136X
 $$$28B        4 00000776 00000001     I    6994  7007
 $$$28F        2 0000077E 00000001     H    7004  6994B  7006
 $$$280        6 00002EA6 00000001     I   16143 16144  16144
 $$$282F       2 00002A24 00000001     H   16227 16203B
 $$$282S       2 00002A10 00000001     H   16192 16224B
 $$$286F       2 00002A66 00000001     H   16356 16319B 16338B
 $$$286S       2 00002A48 00000001     H   16313 16355B
 $$$289F       2 00002A74 00000001     H   16390 16367B
 $$$29E        2 00000782 00000001     H    7014  7008
 $$$29F        2 000007C6 00000001     H    7109  7010B
 $$$30S        2 00000782 00000001     H    7020  7099B
 $$$32B        4 0000078C 00000001     I    7043  7062
 $$$32F        2 000007A4 00000001     H    7059  7043B  7061
 $$$33E        2 000007A8 00000001     H    7069  7063
 $$$33F        2 000007BC 00000001     H    7082  7065B
 $$$36F        2 000007FA 00000001     H    7162  7138B
 $$$38S        2 00000838 00000001     H    7238  7504B
 $$$39F        2 00000882 00000001     H    7343  7273B
 $$$39S        2 00000838 00000001     H    7244  7342B
 $$$41F        2 00000874 00000001     H    7321  7306B
 $$$42F        2 000008B4 00000001     H    7378  7368B
 $$$43         6 00000C68 00000001     I    7388  7380X
 $$$44         6 00000C68 00000001     I    7387  7388   7388
 $$$45F        2 000008DE 00000001     H    7423  7408B
 $$$46B        4 000008EC 00000001     I    7450  7464
 $$$46F        2 000008F4 00000001     H    7461  7450B  7463
 $$$46T        2 000008F0 00000001     H    7453  7438B
 $$$48E        2 000008F8 00000001     H    7471  7465
 $$$48F        2 00000908 00000001     H    7500  7467B
 $$$49F        2 00000904 00000001     H    7495  7485B
 $$$50F        2 000009A6 00000001     H    7621  7554B  7566B
 $$$52F        2 000009D2 00000001     H    7662  7637B
 $$$52S        2 000009A6 00000001     H    7627  7661B
 $$$54F        2 00000A3E 00000001     H    7774  7703B
 $$$54S        2 000009F6 00000001     H    7693  7773B
 $$$56B        4 00000A0A 00000001     I    7722  7738
 $$$56F        2 00000A1A 00000001     H    7735  7722B  7737
 $$$57E        2 00000A1E 00000001     H    7745  7739
 $$$57F        2 00000A3A 00000001     H    7769  7741B
 $$$58F        2 00000B22 00000001     H    8068  7804B
 $$$59B        4 00000A5E 00000001     I    7829  7845
 $$$59F        2 00000A6E 00000001     H    7842  7829B  7844
 $$$60E        2 00000A72 00000001     H    7852  7846
 $$$60F        2 00000B22 00000001     H    8064  7848B
 $$$61B        4 00000A76 00000001     I    7870  7883
 $$$61F        2 00000A7E 00000001     H    7880  7870B  7882
 $$$62E        2 00000A82 00000001     H    7890  7884
 $$$62F        2 00000B22 00000001     H    8060  7886B
 $$$63F        2 00000A98 00000001     H    7932  7907B  7919B
 $$$65F        2 00000B22 00000001     H    8056  7958B
 $$$65S        2 00000AB0 00000001     H    7948  8055B
 $$$67F        2 00000B0E 00000001     H    8044  7977B
 $$$68F        2 00000B0E 00000001     H    8040  7993B
1VFRY     (VFRY21) (09:47) (22MAR04) Ordinary Symbol and Literal Cross Reference                                            Page  109
 $$$69B        4 00000AFA 00000001     I    8006  8021
 $$$69F        2 00000B06 00000001     H    8018  8006B  8020
 $$$70E        2 00000B0A 00000001     H    8028  8022
 $$$70F        2 00000B0E 00000001     H    8036  8024B
 $$$73B        4 00000B52 00000001     I    8149  8171
 $$$73F        2 00000B64 00000001     H    8167  8149B  8170
 $$$74B        4 00000B6C 00000001     I    8187  8208
 $$$74E        2 00000B68 00000001     H    8178  8172
 $$$74F        2 00000B7E 00000001     H    8205  8174B  8187B  8207
 $$$76E        2 00000B82 00000001     H    8215  8209
 $$$76F        2 00000B90 00000001     H    8230  8211B
 $$$77F        2 00000CA6 00000001     H    8429  8348B
 $$$77S        2 00000C76 00000001     H    8336  8428B
 $$$79B        4 00000C82 00000001     I    8364  8379
 $$$79F        2 00000C8A 00000001     H    8375  8364B  8378
 $$$80B        4 00000C92 00000001     I    8395  8409
 $$$80E        2 00000C8E 00000001     H    8386  8380
 $$$80F        2 00000C9A 00000001     H    8406  8382B  8395B  8408
 $$$82E        2 00000C9E 00000001     H    8416  8410
 $$$82F        2 00000CA2 00000001     H    8424  8412B
 $$$83F        2 00000CFA 00000001     H    8574  8446B
 $$$84F        2 00000CFA 00000001     H    8570  8489B
 $$$84S        2 00000CCA 00000001     H    8477  8569B
 $$$86B        4 00000CD6 00000001     I    8505  8520
 $$$86F        2 00000CDE 00000001     H    8516  8505B  8519
 $$$87B        4 00000CE6 00000001     I    8536  8550
 $$$87E        2 00000CE2 00000001     H    8527  8521
 $$$87F        2 00000CEE 00000001     H    8547  8523B  8536B  8549
 $$$89E        2 00000CF2 00000001     H    8557  8551
 $$$89F        2 00000CF6 00000001     H    8565  8553B
 $$$90F        2 00000D82 00000001     H    8708  8593B
 $$$92F        2 00000DBE 00000001     H    8813  8741B
 $$$92S        2 00000D90 00000001     H    8734  8812B
 $$$94F        2 00000DA6 00000001     H    8766  8757B
 $$$95         6 000013BC 00000001     I    8779  8771X
 $$$96         6 000013BC 00000001     I    8778  8779   8779
 $$$97F        2 00000DB2 00000001     H    8802  8792B
 $$$98B        4 00000DC4 00000001     I    8825  8946
 $$$98F        2 00000E1E 00000001     H    8943  8825B  8945
 $$$99E        2 00000E22 00000001     H    8953  8947
 $$$99F        2 00000E46 00000001     H    9009  8949B
 @QR           0 00000000 FFFFFFFA     @    1075  9148  10253  10266  10317  10359
 @R0           0 00000000 FFFFFFFE     @     752  1028U
 @R1           0 00000000 FFFFFFFD     @     765  1024U  6380   6382   6384   6386   6388   7105M  7262U  7756U  7969
                                                  8778   8803   9270M 10262U 10776M 11149  11202M 11591  11606  11816
                                                 11817  12336U 12372M 13455  15995  16010M 16027M 16048M 16069M 16110
                                                 16143  16335
 @R10          0 00000000 FFFFFFF4     @     882   988U 13563U
 @R11          0 00000000 FFFFFFF3     @     895   984U 13558U
 @R12          0 00000000 FFFFFFF2     @     908   980U  7288U  7334U 13553U
 @R13          0 00000000 FFFFFFF1     @     921   976U  6162M  6609  15136  15137
 @R14          0 00000000 FFFFFFF0     @     934   972U
 @R15          0 00000000 FFFFFFEF     @     947   968U  7247   9158U  9357U  9446U  9861U 13464U 15854U 15912U
 @R2           0 00000000 FFFFFFFC     @     778  1020U  7211U 10406U 10996U 11556U 13005U 13113U 14095  14098  14112
                                                 15000U 15092U 15539U 16194  16263U 16265  16283U 16296U 16382U
 @R3           0 00000000 FFFFFFFB     @     791  1016U  6945U  7217U  9705   9717   9985  10036  10096  14095M 14097
                                                 14112M 14403U 14751U 16307U 16351U
 @R4           0 00000000 FFFFFFFA     @     804  1012U
 @R5           0 00000000 FFFFFFF9     @     817  1008U 10822U
1VFRY     (VFRY21) (09:47) (22MAR04) Ordinary Symbol and Literal Cross Reference                                            Page  110
 @R6           0 00000000 FFFFFFF8     @     830  1004U 13577U 16454U
 @R7           0 00000000 FFFFFFF7     @     843  1000U  6207U  9549U  9751U 10186U 10435U 10702U 10876U 10984U 11581U
                                                 13572U 14069U 14150U 14443U 14779U 14840U 15429U 16449U
 @R8           0 00000000 FFFFFFF6     @     856   996U
 @R9           0 00000000 FFFFFFF5     @     869   992U
 @SR           0 00000000 FFFFFFFC     @    1049 10760  11590  14627  14689M 14713M 15122
 @TR           0 00000000 FFFFFFFB     @    1062  7022  13496  13531M
 ABORT         2 0000056E 00000001     H    6660  7031B  7374B  8632B 14878B
 ADDERR        2 00000708 00000001     H    6829  7456B  7729B  7836B  8012B 10583B 10617B 10656B 11031B 11169B 11372B
 ADDMEM        2 000007DA 00000001     H    7127  6892B  6931B
 AHLHEAD       1 00000000 00000000 A   T    3668  3668
 AHLVCCR8      1 00000000 00000000 A   T    4159  4159
 ASMVT         1 00000000 00000000 A   T    4048  4048
 AUTO          4 000000CC 00000001         5586  6516M  8116   8116   8117   8117   8256   8256   8257   8257   9092
                                                  9092   9093   9093   9111  11862  12362  12362  12363  12363  12365
 BALANCE       2 0000233A 00000001     H   14425  8268  15157
 BITND         4 00000190 00000001     A    5673 12637M 13291  13311M
 BITNO         4 000000B8 FFFFFFD9     A    6089  6090   6955   7346M  7650   7651M  9238M  9329M  9418M  9706M  9804
                                                  9860  10465M 10995  11464  11482  12654M 12654  13019M 13242  13420
                                                 13421M
 BITTRT        4 0000020C 00000001     A    5726  8778
 BLKNO         4 000001F0 00000001     A    5717  7345M  7346   7424   7582   7760M  7969M  7970M  7970   9705M  9706
                                                 10447  10569
 BLOCKID       4 000001F4 00000001     A    5718  8472M  8472   9216M  9216   9236   9252   9253M  9306M  9306   9327
                                                  9377   9378M  9410   9416   9454   9455M
 BR            7 00000007 FFFFFFFF A   #    1107  6163M  6171U  8311M  8323U
 BRR           6 00000006 FFFFFFFF A   #    1094  6174M  6182U 13681M 13689U 15434M
 BTD           1 00000000 00000005     T   10126 10126  13614  15154  16414
 BTDC          1 00000000 00000006     T   10129 10129  13619  15150
 BTTBASE       4 00000194 00000001     A    5674  9237   9328   9417  12880M 13019  13243
 BTTCNT        4 00000198 00000001     A    5675  9396  12886M 13014
 BTTCNTER      2 00000412 00000001     H    6279 12895B 12916B
 BTTIO         2 000005A0 00000001     H    6719  9240B  9371B  9449B
 BTTIOERR      2 000003DE 00000001     H    6230  6743B  6770B 12702B 13084B
 BTTMEMND      4 0000018C 00000001     A    5672  9230   9321  12639M 13305
 BTTMEMRQ      4 00000184 00000001     A    5670  8719  12516M 12638  13453  14915
 BTTMEMST      4 00000188 00000001     A    5671  8718   9131   9263   9307  10766  11139  12636M 13452  13483
 BTX           1 00000000 00000008     T   10140 10140  15155  16416
 CATCNTER      2 0000044A 00000001     H    6319 12774B 12795B
 CBBRANCH      1 00000000 00000000 A   T    4204  4204
 CCHHR         4 000000EC FFFFFFD9     A    6094 10473M 10473  10556M
 CHECKBIT      2 000016BE 00000001     H   10966  8276  10138  10841
 CHKRBLD       2 00000B2C 00000001     H    8081  7731B  7838B  8014B 10843
 CLASS         1 000000B8 FFFFFFD9     C    6090  7727M  7834M  7998M 10466M 10528M 10581M 10615M 10654M 10763M 11011M
                                                 11136M 11238M
 CLCKSTRT      8 00000068 00000001     D    5542 11704M 11705
 CLWTEMP       8 00000070 00000001     D    5543  8669   8859   8907   8984   9044   9818   9875   9999  10050  11706
                                                 12163  12448  12560  13163  13211  13260  13381  13720  13776  13847
                                                 13922  14001  14189  14240  14291  14342  14531  14582
 CNTBUFR      80 00002D30 00000001     C   15302 15577  15588  15595
 CNTCB         4 00002D80 00000001     F   15305 15316  15602
 CNTDCB        4 00002DA0 00000001     F   15325 15475  15495  15576  15666  15670
 CNTEOD        2 0000282E 00000001     H   15629 15337
 CNTKWR        1 00002E00 00000001     R   15366 15614
 CNTSTAPE      2 00002996 00000001     H   15982 15366
 CNTSUNIT      2 000029E0 00000001     H   16082 15368
 CONWORK       8 00000058 00000001     D    5540 10252M 10253M 10254  10265M 10266M 10267  10316M 10317M 10318  10354M
                                                 10355M 10356  10358M 10359M 10361
 CONWORK2      8 00000060 00000001     D    5541  9348M  9349   9437M  9438  10264M 10265
1VFRY     (VFRY21) (09:47) (22MAR04) Ordinary Symbol and Literal Cross Reference                                            Page  111
 CRBRANCH      1 00000000 00000000 A   T    3945  3945
 CSRTABLE      1 00000000 00000000 A   T    3965  3965
 CSVARMGR      1 00000000 00000000 A   T    4013  4013
 CSVEXIT       1 00000000 00000000 A   T    3886  3886
 CSVLLCB       1 00000000 00000000 A   T    3486  3486
 CSVLLTRM      1 00000000 00000000 A   T    3487  3487
 CSVMEM        1 00000000 00000000 A   T    3714  3714
 CSVVFGET      1 00000000 00000000 A   T    4278  4278
 CSVVFIND      1 00000000 00000000 A   T    4276  4276
 CUNITIX       2 000029F2 00000001     H   16130 15370
 CVTBRET       2 00000052 FFFFFFE1     H    3511  4024   4103
 CVTMAP        1 00000000 FFFFFFE1     U    3461 16255U
 CVTTCBP       4 00000000 FFFFFFE1     V    3463 16257
 CVTVSTGX      1 00000000 FFFFFFE0     J    4476  4340
 CVTXTNT1      1 00000000 FFFFFFDF     J    4515  3683
 CVTXTNT2      1 00000000 FFFFFFDE     J    4523  3753
 CVT4MS1       1 00000010 FFFFFFE1 A   U    3536  3544
 CVT6DAT       1 00000002 FFFFFFE1 A   U    3540  3544
 DALBLKLN      1 00000009 FFFFFFE2 A   U    2791 15294
 DALBLKSZ      1 00000030 FFFFFFE2 A   U    2830 15271  15299
 DALCDISP      1 00000006 FFFFFFE2 A   U    2788 15265
 DALCLOSE      1 0000001C FFFFFFE2 A   U    2810 15263
 DALDCBDS      1 0000002C FFFFFFE2 A   U    2826 15269
 DALDDNAM      1 00000001 FFFFFFE2 A   U    2783 15259
 DALDSNAM      1 00000002 FFFFFFE2 A   U    2784 15260
 DALDSSEQ      1 0000001F FFFFFFE2 A   U    2813 15268
 DALLABEL      1 0000001E FFFFFFE2 A   U    2812 15267
 DALMEMBR      1 00000003 FFFFFFE2 A   U    2785 15261
 DALNDISP      1 00000005 FFFFFFE2 A   U    2787 15264
 DALPRIME      1 0000000A FFFFFFE2 A   U    2792 15295
 DALRETPD      1 00000023 FFFFFFE2 A   U    2817 15270
 DALRLSE       1 0000000D FFFFFFE2 A   U    2795 15298
 DALSECND      1 0000000B FFFFFFE2 A   U    2793 15296
 DALSTATS      1 00000004 FFFFFFE2 A   U    2786 15262
 DALUNIT       1 00000015 FFFFFFE2 A   U    2803 15266  15297
 DATASEG       8 00000058 00000001     D    5539  6182U  6217  13689U 15148  16406
 DCBBIT0       1 00000080 FFFFFFE9 A   U    1685  1773   1781   1795   1817   1859   1861   1862   1864   1884   1887
                                                  1909   1913   1928   1965   2021   2041   2079   2083   2102
 DCBBIT1       1 00000040 FFFFFFE9 A   U    1686  1774   1782   1797   1826   1827   1836   1842   1859   1861   1863
                                                  1864   1889   1909   1911   1913   1931   1932   1933   1968   1969
                                                  2021   2043   2085   2087   2105   2150
 DCBBIT2       1 00000020 FFFFFFE9 A   U    1687  1775   1783   1798   1799   1800   1826   1827   1831   1837   1842
                                                  1859   1860   1865   1891   1914   1915   1936   1937   1938   1972
                                                  1973   2022   2048   2088   2110   2153   2156
 DCBBIT3       1 00000010 FFFFFFE9 A   U    1688  1776   1798   1800   1801   1826   1839   1866   1894   1914   1917
                                                  1940   1941   1942   1976   1977   2022   2050   2052   2054   2090
                                                  2111   2153   2157
 DCBBIT4       1 00000008 FFFFFFE9 A   U    1689  1784   1840   1841   1842   1867   1895   1919   1924   1925   1945
                                                  1946   1980   1981   1983   1984   2023   2057   2092   2112   2153
                                                  2158
 DCBBIT5       1 00000004 FFFFFFE9 A   U    1690  1785   1847   1870   1871   1897   1919   1921   1922   1925   1949
                                                  1951   1952   1953   1987   1988   1989   1990   2023   2059   2062
                                                  2095   2114   2148
 DCBBIT6       1 00000002 FFFFFFE9 A   U    1691  1777   1849   1850   1853   1870   1872   1898   1956   1957   1958
                                                  1959   1993   1994   1995   1996   2024   2065   2097   2116   2159
 DCBBIT7       1 00000001 FFFFFFE9 A   U    1692  1778   1849   1851   1853   1874   1903   1961   1962   1999   2000
                                                  2002   2003   2068   2098   2099   2117   2161
 DCBDCBE       4 00000000 FFFFFFE9     A    1700  1704
 DCBDDNAM      8 00000028 FFFFFFE9     C    1881 12287M 15490M
1VFRY     (VFRY21) (09:47) (22MAR04) Ordinary Symbol and Literal Cross Reference                                            Page  112
 DCBFDAD       8 00000005 FFFFFFE9     C    1716  1718
 DCBOFIOF      1 00000001 FFFFFFE9 A   U    1903  1905
 DCBOFLGS      1 00000030 FFFFFFE9     B    1883 12254  12303  14954  15046  15507
 DCBOFOPN      1 00000010 FFFFFFE9 A   U    1894 12252  12301  14952  15044  15505
 DCBOFUEX      1 00000002 FFFFFFE9 A   U    1898  1902
 DFAIDTAB      1 00000000 00000000 A   T    4353  4353
 DMPIXRS     128 000000CC 00000001         5561  6428M  7565   7918   9667  12003  12229  13962  15015
 DOFILE        2 00000A48 00000001     H    7790  8420B  8561B
 DOUSER        2 00001032 00000001     H    9563  7748B  7876B  8032B
 DO2ND        64 000000CE 00000001         5626  8445  11175M
 DTBLK         2 00002D13 00000001     R   15299 15287
 DTPTRS        4 00002CB4 00000001     A   15277 15561
 DTRLSE        2 00002D0D 00000001     R   15298 15288
 DTSP1         2 00002CE4 00000001     R   15294 15283
 DTSP2         2 00002CED 00000001     R   15295 15284
 DTSP3         2 00002CF6 00000001     R   15296 15285
 DTUNIT        2 00002CFF 00000001     R   15297 15286
 DUMP          2 000000CC 00000001         5591  6256   6560M 11916  14856
 DYNEXIT       2 0000298C 00000001     I   15976 15450B 15469B 15528B 15657B
 DYNTAPE       4 00002788 00000001     I   15414 13615
 ENLN          2 00000200 00000001     H    5721  7263M
 ERR_FILN      1 00000008 FFFFFFDC A   C    5520 10615
 ERR_IXLN      1 00000009 FFFFFFDC A   C    5521 10654
 ERR_IXNO      1 00000004 FFFFFFDC A   C    5516 10581
 ERR_IXST      1 00000005 FFFFFFDC A   C    5517  7727   7834   7998
 ERR_RANG      1 00000001 FFFFFFDC A   C    5513 10466  10763  11011
 ERRANCHR      4 000001A0 00000001     A    5681  6986   7000M  7110   8622   9273  11239
 ERROR       128 000000CE 00000001         5621 10446M 10534M 10580M 10623M 10669  10669
 ERRSTRT       4 0000019C 00000001     A    5680  6877   7173   7174   7200  15104
 FAO           1 00000002 00000001 A   U    1271  1423   1524   1564
 FBHBLOCK      3 00000000 FFFFFFEE     R    1217  9346M  9435M
 FBHDR        20 00000000 FFFFFFEE     J    1244  1236   9340U  9429U 13100U
 FBHLEN        2 00000006 FFFFFFEE     R    1233  9347M  9436M 13106
 FBHTBICA      1 000000C0 FFFFFFEE A   U    1229  1230
 FBHTBIT       1 00000040 FFFFFFEE A   U    1222  1229   9350   9439
 FBHTCAT       1 00000080 FFFFFFEE A   U    1221  1229
 FBHTIME       4 00000008 FFFFFFEE     R    1234  9349M  9438M
 FBHTIXR       1 00000008 FFFFFFEE A   U    1224  1228
 FBHTIXRT      1 0000001E FFFFFFEE A   U    1228  1230
 FBHTMIXR      1 00000002 FFFFFFEE A   U    1226  1228
 FBHTSIXR      1 00000004 FFFFFFEE A   U    1225  1228
 FBHTYPE       1 00000003 FFFFFFEE     R    1218  9350M  9439M
 FBHTZIXR      1 00000010 FFFFFFEE A   U    1223  1228
 FDBAREA       4 0000017C 00000001     A    5668  7246  12607  12634  14900
 FILDDN        8 000000BC 00000001     C    5552  6388M  6389M 12287
 FILECNT       4 000001E0 00000001     A    5713  7418   7419M 13762
 FILENAME     40 000000BC FFFFFFD9     C    6091  7322M  7323M  7354M  7355M  7355   7387M  7579   9915   9922  10609
                                                 10883
 FILEND        2 00000918 00000001     H    7514  5807
 FILS          4 0000036C 00000001     F    5795  5844   7250  12286  12292  14929  14964
 FILSOPNL      4 000003D0 00000001     F    5842  8460   8464  12290  14962
 FINDDD        2 00002A2E 00000001     H   16246 16407
 FMBRANCH      1 00000000 00000000 A   T    4129  4129
 FMTCLCK       1 00000000 0000000B     T   13606 13606
 FORCE        64 000000CD 00000001         5611  6546M  8091
 FPA           1 00000002 00000001 A   N    1263  1269   1270   1271   1278   1281
 FPE           1 00000008 00000001 A   N    1265  1273   1274   1280
 FPFIXR        1 00000010 00000001 A   N    1260  1635
 FPMIXR        1 00000080 00000001 A   N    1257  1608
1VFRY     (VFRY21) (09:47) (22MAR04) Ordinary Symbol and Literal Cross Reference                                            Page  113
 FPN           1 00000000 00000001 A   N    1261  1275
 FPR           1 00000001 00000001 A   N    1262  1268   1269   1270   1277   1281
 FPS           1 00000010 00000001 A   N    1266  1272
 FPSIXR        1 00000040 00000001 A   N    1258  1617
 FPW           1 00000004 00000001 A   N    1264  1269   1279   1281
 FPZIXR        1 00000020 00000001 A   N    1259  1626
 FRO           1 00000001 00000001 A   U    1268  1396   1497   1546
 FRP           1 00000003 00000001 A   U    1270  1414   1515   1573
 FRSTPASS     32 000000CE 00000001         5631  6843   6843   6844   7305   7407   7553   7906   8331M  8457M  9655
                                                 11079
 FRW           1 00000007 00000001 A   U    1269  1274   1405   1506   1555
 FSBLKSZ       4 000001DC 00000001     A    5712  5703   9151   9161   9242   9347   9366   9372   9390   9436  12948
                                                 13126  13145  13292
 FSHR          1 00000010 00000001 A   U    1272  1533
 FSMB       2048 00000000 FFFFFFED     J    1367 12718U 13623  15161
 FSMBALST      1 00000038 FFFFFFED     X    1332  1351
 FSMBITBC      4 00000030 FFFFFFED     A    1325 12884
 FSMBITSB      4 0000002C FFFFFFED     A    1324 12830
 FSMCATBC      4 00000028 FFFFFFED     A    1323 12764
 FSMCATSB      4 00000024 FFFFFFED     A    1322 12725
 FSMMBLK       4 00000008 FFFFFFED     A    1317  1326   1326
 FSMOFLGS      1 00000006 FFFFFFED     R    1305  1309
 FSMSTART      8 00000000 FFFFFFED     D    1300  1359
 FSNAME        8 000000C4 00000001     C    5553 12416  12488  12493
 GETFDE        2 00000830 00000001     H    7230  8339B  8480B
 GETIXR        2 000014EA 00000001     H   10417  8278
 GETLST        4 000003D4 00000001     A    5848  7178  12604
 GFEXIT        4 0000090C 00000001     I    7508  7496B  7519B
 GLBRANCH      1 00000000 00000000 A   T    4035  4035
 GMBRANCH      1 00000000 00000000 A   T    4131  4131
 GVT           1 00000000 00000000 A   T    3897  3897
 HIBAL         1 00000000 FFFFFFFF     J     737   753    766    779    792    805    818    831    844    857    870
                                                   883    896    909    922    935    948   1050   1063   1076   1089
                                                  1102   1115   1128   1141   1154   1167
 HYBRFLS       4 000001FC 00000001     A    5720  7685   7686M 13880  13908
 HYBRID        2 000009DC 00000001     H    7677  8371B  8512B
 IARMPVT       1 00000000 00000000 A   T    3772  3772
 IARMRRCE      1 00000000 00000000 A   T    4317  4317
 IARPIBR       1 00000000 00000000 A   T    4287  4287
 IARPSIV       1 00000000 00000000 A   T    4111  4111
 IARPSXM       1 00000000 00000000 A   T    4260  4260
 IARXKEY       1 00000000 00000000 A   T    4218  4218
 IARXVIO       1 00000000 00000000 A   T    4112  4112
 ICYMMVTC      1 00000000 00000000 A   T    4543  4543
 IDA121CV      1 00000000 00000000 A   T    4050  4050
 IEABEND       1 00000000 00000000 A   T    3634  3634
 IEADQIQE      1 00000000 00000000 A   T    4030  4030
 IEAECVT       1 00000000 00000000 A   T    3559  3559
 IEAGSMQ       1 00000000 00000000 A   T    4007  4007
 IEAIHASU      1 00000000 00000000 A   T    4247  4247
 IEALSMQ       1 00000000 00000000 A   T    4009  4009
 IEAMASCB      1 00000000 00000000 A   T    3977  3977   3981
 IEAPATCH      1 00000000 00000000 A   T    3642  3642
 IEAPDSRT      1 00000000 00000000 A   T    3905  3905
 IEAPTRV       1 00000000 00000000 A   T    3721  3721
 IEAQCDSR      1 00000000 00000000 A   T    3625  3625
 IEAQCS01      1 00000000 00000000 A   T    4017  4017
 IEAQLPAQ      1 00000000 00000000 A   T    3626  3626
 IEAQTD00      1 00000000 00000000 A   T    3522  3522
1VFRY     (VFRY21) (09:47) (22MAR04) Ordinary Symbol and Literal Cross Reference                                            Page  114
 IEAQTE00      1 00000000 00000000 A   T    3520  3520
 IEARPOST      1 00000000 00000000 A   T    4032  4032
 IEASMFEX      1 00000000 00000000 A   T    3909  3909
 IEASMFSP      1 00000000 00000000 A   T    4255  4255
 IEASPOST      1 00000000 00000000 A   T    4052  4052
 IEASVDCB      1 00000000 00000000 A   T    3513  3513
 IEATCBP       1 00000000 00000000 A   T    3463  3463
 IEATPC        1 00000000 00000000 A   T    3515  3515
 IEATRSCN      1 00000000 00000000 A   T    3873  3873
 IEAVAR02      1 00000000 00000000 A   T    3957  3957
 IEAVBLDP      1 00000000 00000000 A   T    3941  3941
 IEAVDELP      1 00000000 00000000 A   T    3944  3944
 IEAVEAC0      1 00000000 00000000 A   T    4034  4034
 IEAVEADV      1 00000000 00000000 A   T    4192  4192
 IEAVEDR1      1 00000000 00000000 A   T    4077  4077
 IEAVELRM      1 00000000 00000000 A   T    4026  4026
 IEAVENLU      1 00000000 00000000 A   T    4373  4373
 IEAVENQ2      1 00000000 00000000 A   T    4023  4023
 IEAVEQV1      1 00000000 00000000 A   T    4180  4180
 IEAVEQV2      1 00000000 00000000 A   T    4183  4183
 IEAVEQV3      1 00000000 00000000 A   T    4186  4186
 IEAVERI1      1 00000000 00000000 A   T    4079  4079
 IEAVERP1      1 00000000 00000000 A   T    4081  4081
 IEAVERX1      1 00000000 00000000 A   T    4269  4269
 IEAVESC1      1 00000000 00000000 A   T    4208  4208
 IEAVESPR      1 00000000 00000000 A   T    4137  4137
 IEAVESTU      1 00000000 00000000 A   T    4371  4371
 IEAVESVT      1 00000000 00000000 A   T    4143  4143
 IEAVET6E      1 00000000 00000000 A   T    4243  4243
 IEAVEVT2      1 00000000 00000000 A   T    4197  4197
 IEAVEXPR      1 00000000 00000000 A   T    4005  4005
 IEAVEXP1      1 00000000 00000000 A   T    4174  4174
 IEAVFRCL      1 00000000 00000000 A   T    3943  3943
 IEAVGSDA      1 00000000 00000000 A   T    4188  4188
 IEAVGTCL      1 00000000 00000000 A   T    3942  3942
 IEAVGWSA      1 00000000 00000000 A   T    4037  4037
 IEAVLKRM      1 00000000 00000000 A   T    3744  3744
 IEAVMFRM      1 00000000 00000000 A   T    4122  4122
 IEAVMSGS      1 00000000 00000000 A   T    3691  3691
 IEAVNVT0      1 00000000 00000000 A   T    4356  4356
 IEAVRSUH      1 00000000 00000000 A   T    4235  4235
 IEAVRT03      1 00000000 00000000 A   T    3849  3849
 IEAVSPND      1 00000000 00000000 A   T    4245  4245
 IEAVSTAG      1 00000000 00000000 A   T    3985  3985
 IEAVTCTL      1 00000000 00000000 A   T    4237  4237
 IEAVTEST      1 00000000 00000000 A   T    3748  3748
 IEAVTRGR      1 00000000 00000000 A   T    4045  4045
 IEAVTRG1      1 00000000 00000000 A   T    3494  3494
 IEAVTRV3      1 00000000 00000000 A   T    3741  3741
 IEAVTSBP      1 00000000 00000000 A   T    3991  3991
 IEAVTSFR      1 00000000 00000000 A   T    3712  3712
 IEAVTSGL      1 00000000 00000000 A   T    3989  3989
 IEAVVMSR      1 00000000 00000000 A   T    3770  3770
 IEAVWAIT      1 00000000 00000000 A   T    4012  4012
 IEAVWSAC      1 00000000 00000000 A   T    4043  4043
 IEAVWSAG      1 00000000 00000000 A   T    4041  4041
 IEAVWSAL      1 00000000 00000000 A   T    4039  4039
 IEAVXEXT      1 00000000 00000000 A   T    4120  4120
 IEAVXSFT      1 00000000 00000000 A   T    4087  4087
1VFRY     (VFRY21) (09:47) (22MAR04) Ordinary Symbol and Literal Cross Reference                                            Page  115
 IEAVXSTN      1 00000000 00000000 A   T    4093  4093
 IEAVXSTS      1 00000000 00000000 A   T    4091  4091
 IEAVXUNN      1 00000000 00000000 A   T    4116  4116
 IEAVXUNS      1 00000000 00000000 A   T    4095  4095
 IEAWTCB       1 00000000 00000000 A   T    4152  4152
 IEA0DS        1 00000000 00000000 A   T    3558  3558
 IEA0EF00      1 00000000 00000000 A   T    3464  3464
 IEA0EF01      1 00000000 00000000 A   T    3504  3504
 IEA0PT0E      1 00000000 00000000 A   T    4224  4224
 IEA0PT01      1 00000000 00000000 A   T    3565  3565
 IEA0PT02      1 00000000 00000000 A   T    4149  4149
 IEA0PT03      1 00000000 00000000 A   T    4226  4226
 IEA0VL00      1 00000000 00000000 A   T    3475  3475
 IEA0VL01      1 00000000 00000000 A   T    3882  3882
 IECIXAVL      1 00000000 00000000 A   T    3550  3550
 IECPCNVT      1 00000000 00000000 A   T    3478  3478
 IECPRLTV      1 00000000 00000000 A   T    3482  3482
 IECVEXCL      1 00000000 00000000 A   T    4114  4114
 IECXAPG       1 00000000 00000000 A   T    3473  3473
 IECXITP       1 00000000 00000000 A   T    3503  3503
 IECXTLER      1 00000000 00000000 A   T    3489  3489
 IEC0SCR1      1 00000000 00000000 A   T    3648  3648
 IEECUCB       1 00000000 00000000 A   T    3519  3519
 IEEMSER       1 00000000 00000000 A   T    3497  3497   3563
 IEEVEXSN      1 00000000 00000000 A   T    3852  3852
 IEEVSTOP      1 00000000 00000000 A   T    4162  4162
 IEFAQTOP      1 00000000 00000000 A   T    3969  3969
 IEFAUSDM      1 00000000 00000000 A   T    3469  3469
 IEFENFDM      1 00000000 00000000 A   T    3628  3628
 IEFJESCT      1 00000000 00000000 A   T    3728  3728
 IEFLINK       1 00000000 00000000 A   T    3466  3466
 IEFQMWR       1 00000000 00000000 A   T    3579  3579
 IEWFBOSV      1 00000000 00000000 A   T    3556  3556
 IEWMSEPT      1 00000000 00000000 A   T    4061  4061
 IFBDCB        1 00000000 00000000 A   T    3545  3545
 IFDOLT0A      1 00000000 00000000 A   T    3907  3907
 IFGDEBVR      1 00000000 00000000 A   T    4538  4538
 IGC043BR      1 00000000 00000000 A   T    3953  3953
 IGC044R2      1 00000000 00000000 A   T    4063  4063
 IGC062R1      1 00000000 00000000 A   T    4033  4033
 IGC07903      1 00000000 00000000 A   T    4178  4178
 IGC124        1 00000000 00000000 A   T    4194  4194
 IGFRVT        1 00000000 00000000 A   T    3643  3643
 IGVCPBDB      1 00000000 00000000 A   T    4309  4309
 IGVCPDLB      1 00000000 00000000 A   T    4311  4311
 IGVCPFRE      1 00000000 00000000 A   T    4301  4301
 IGVCPGTC      1 00000000 00000000 A   T    4299  4299
 IGVCPGUB      1 00000000 00000000 A   T    4293  4293
 IGVCPGUP      1 00000000 00000000 A   T    4296  4296
 IGVCPGUS      1 00000000 00000000 A   T    4319  4319
 IGVGCAS       1 00000000 00000000 A   T    3947  3947
 IGVGFAS       1 00000000 00000000 A   T    3951  3951
 IGVGRRGN      1 00000000 00000000 A   T    4323  4323
 IGVGVRGN      1 00000000 00000000 A   T    4325  4325
 IGVQSPET      1 00000000 00000000 A   T    3949  3949
 IGVSLIST      1 00000000 00000000 A   T    4303  4303
 IGVSLOC       1 00000000 00000000 A   T    4307  4307
 IGVSREGN      1 00000000 00000000 A   T    4305  4305
 IGVSTSKI      1 00000000 00000000 A   T    4290  4290
1VFRY     (VFRY21) (09:47) (22MAR04) Ordinary Symbol and Literal Cross Reference                                            Page  116
 IHADCB        1 00000000 FFFFFFE9     J    1675  1755   1805   1880   2007   2012   2027   2036   2136   2139   2144
                                                  2169   2187   2188  12215U 14939U 15031U 15485U
 IHB0680A      2 00000538 00000001     H    6606  6600B
 IHB5370       2 00002558 00000001     H   14989 14968B 14975B
 IHB5414       2 000025C0 00000001     H   15081 15060B 15067B
 IHB5637       2 000028AC 00000001     H   15693 15672B 15679B
 ILRJTERM      1 00000000 00000000 A   T    4232  4232
 INC         128 000000CD 00000001         5606  6443M 16020
 IOBCC         2 0000003B FFFFFFD9     C    6065  6076
 IOBINCAM      2 00000034 FFFFFFD9     H    6027  6040
 IOBSEEK       8 00000038 FFFFFFD9     C    6060 10556
 IOBSTDRD      8 00000018 FFFFFFD9     D    5969  6072   6072
 IOCCW         8 00000040 FFFFFFD9     D    6074  9962
 IOFLGS        1 0000000C FFFFFFD9     R    5952  5956
 IOHDR        80 00000068 FFFFFFD9     X    6081  6078   9330   9419  10555  13090
 IOINFO        1 00000000 FFFFFFD9     J    5945  6108   6137U
 IOIXR         1 00000800 FFFFFFD9     X    6116  6079   6117   7534   9150   9160   9241   9365   9389  10554  12708
                                                 13312  13330
 IOSECT        1 0000000E FFFFFFD9     X    5961  6075
 IOSVDEVN      1 00000000 00000000 A   T    4249  4249
 IOSVHID       1 00000000 00000000 A   T    4259  4259
 IOSVSUCB      1 00000000 00000000 A   T    4262  4262
 IOWRITE     128 0000000C FFFFFFD9         5956  9364M
 IRARMCNS      1 00000000 00000000 A   T    4003  4003
 IRARMEPS      1 00000000 00000000 A   T    4221  4221
 IRARMI00      1 00000000 00000000 A   T    3960  3960
 ISNBRNCH      1 00000000 00000000 A   T    4118  4118
 IXDISK       64 000000CC 00000001         5566  6464M  6479M 12032  15555  16062  16092
 IXR        2048 00000000 FFFFFFEA     U    1599  1654   1658   1658   7572   7934   9687  10846
 IXRAREA       4 00000180 00000001     A    5669  5698  12640
 IXRDCB        4 0000030C 00000001     F    5752  5839   7607  10924  12243  15021  15056
 IXRDDN        8 000000B4 00000001     C    5551  6386M  6387M 15437  15733
 IXRDSECT      1 00000000 FFFFFFEA     J    1594  6146U
 IXRECNO       3 00000001 FFFFFFEA     X    1641  7582M  7755  10569
 IXRFIXR      16 00000000 FFFFFFEA         1637 10909
 IXRHIXR       2 000007FE FFFFFFEA     H    1663  7957
 IXRIXNT#      1 00000292 FFFFFFEA A   U    1659  1660
 IXRMIXR     128 00000000 FFFFFFEA         1610  7828  10897
 IXRNAME      44 00000004 FFFFFFEA     C    1642 10609
 IXRNDX        2 000000FC FFFFFFD9     H    6098  7942M  7957   7964   7967   8050   8051M
 IXRNRCS       4 00000030 FFFFFFEA     A    1643  7583M
 IXRNT         3 00000044 FFFFFFEA     X    1652  1654   1655   1659   7966   7968   9686   9717
 IXRNT#        1 00000294 FFFFFFEA A   U    1654  1655   1659   1660   7963  10838
 IXROPNL       4 000003CC 00000001     F    5837 12241  13970  15054
 IXRPREF      68 00000000 FFFFFFEA     U    1651  1654
 IXRSIXR      64 00000000 FFFFFFEA         1619  7869
 IXRSOUT       4 000001EC 00000001     A    5716  7616   7617M 10933  10934M 13987
 IXRSTART      4 00000000 FFFFFFEA     F    1598  1599   1651   1651   9687
 IXRSTATE      1 00000000 FFFFFFEA     R    1602  1610   1619   1628   1637   7578M  7999M 10882M
 IXRZIXR      32 00000000 FFFFFFEA         1628  7721
 IXTAPE       32 000000CC 00000001         5571  6457M  6486M 12061  16041
 LISTNTRY      2 000013C2 00000001     H   10168 10123  10833
 MAINADDR      4 00000098 00000001     A    5544  8311
 MAINECB       4 000001D0 00000001     A    5709  5699   6730M  6730   6754   6767  10484M 10484  10509  10522  12661M
                                                 12661  12686  12699  13043M 13043  13068  13081
 MAINHDR       4 000007F8 FFFFFFD9     A    6113  7597M  7597  10555M
 MAINLOOP      2 00000C6E 00000001     H    8310  5544   6201B  8323U
 MAINSZ        2 000007FE FFFFFFD9     R    6115  7604M  7604  10648
 MAXLVL        4 00000208 00000001     A    5723 12120M 12152
1VFRY     (VFRY21) (09:47) (22MAR04) Ordinary Symbol and Literal Cross Reference                                            Page  117
 MAXNO         4 000001D4 00000001     A    5710  5700   7449   8841   9147  11023  12421  12752  12792  12853  12913
                                                 12962  13454
 MAXUSE        4 000001D8 00000001     A    5711  7484   7491M  9030  11058  11065M 12815  12822M 12936  12943M
 MYFILE       40 000007C8 FFFFFFD9     C    6110  7579M  7580M 10883M 10884M
 MYHDR         8 000007C8 FFFFFFD9     D    6109  7608  10925
 MYREL         4 000007F4 FFFFFFD9     A    6112  7590M  7590  10921M
 NERRS         4 000001E8 00000001     A    5715  6873   6874M  8592M  8592   8658
 NIXRCNT       4 000000F4 FFFFFFD9     A    6096  7352M  7583   7636   7702   7763   7765M
 NIXRFLS       4 000001F8 00000001     A    5719  7539   7540M 13805  13833
 NOCATBSE      2 0000042E 00000001     H    6299 12735B 12755B
 NOMEM         2 00000548 00000001     H    6619  7194B 12621B
 NONIXR        2 0000091E 00000001     H    7530  8402B  8543B
 NUMACCTS      4 000001E4 00000001     A    5714  7316   7317M 13706
 NXFBYTS       2 00000000 FFFFFFEB     X    1452  7261
 NXFCNT        3 00000005 FFFFFFEB     X    1454  7352
 NXFCODE       1 00000008 FFFFFFEB     R    1457  1461   1466   1471   1476   1481   1486   7264
 NXFFLGO       1 0000000A FFFFFFEB     R    1540  1548   1557   1566   1575
 NXFFLGP       1 00000009 FFFFFFEB     R    1491  1499   1508   1517   1526   1535   7397
 NXFHYBR       4 00000008 FFFFFFEB         1486  8363   8504
 NXFLNAME      1 00000018 FFFFFFEB     X    1582  7387
 NXFLNMSZ      1 00000017 FFFFFFEB     X    1581  7353
 NXFLOC        3 00000002 FFFFFFEB     X    1453  7345
 NXFNIXR      16 00000008 FFFFFFEB         1476  8394   8535
 NXFUINFO      4 00000013 FFFFFFEB     X    1580  7396
 NXGFLG        1 0000000F FFFFFFEC     R    1390  1398   1407   1416   1425
 NXGNAME       6 00000002 FFFFFFEC     X    1384  7322
 NXRYFL       24 00000000 FFFFFFEB     J    1589  6155U  7337U
 NXRYGR       16 00000000 FFFFFFEC     J    1436  7291U
 OTHER        16 000000CE 00000001         5636  6843   6843   6965  11246M 11350  11413M 11493M
 PARMFLGS      1 000000CC 00000001     R    5557  5561   5566   5571   5576   5581   5586   5591   5596
 PLINE       132 000000CF 00000001     C    5645  8603M  8604M  8605M  8610M  8611M 10227M 10228M 10229M 10246M 10251M
                                                 10254M 10267M 10268M 10271M 10272M 10318M 10356M 10360M 10361M 10362M
                                                 14793  14800  14810M 14811M 14811
 PRM2FLGS      1 000000CD 00000001     R    5602  5606   5611
 PRSTAT        4 0000212C 00000001     I   13664 10120
 QR            4 00000004 FFFFFFFF A   #    1068  9147M  9148M  9149M  9173   9184M  9190   9307M  9321   9368   9372M
                                                  9396M  9410   9687M  9699  10225M 10226M 10764M 10765M 10769  11137M
                                                 11138M 11142  11191  11192M 11193M 11195  13014M 13031  14654M 14655M
                                                 14656  14682M 14682  14688M 14689  14690  14691  14692  14696  14712M
                                                 14713  14714  14715  14716  14720
 RAR           9 00000009 FFFFFFFF A   #    1133  6199M  6200M  6200B  6239M  6240M  6240B  6243M  6244M  6244B  6288M
                                                  6289M  6289B  6292M  6293M  6293B  6308M  6309M  6309B  6312M  6313M
                                                  6313B  6328M  6329M  6329B  6332M  6333M  6333B  6628M  6629M  6629B
                                                  6632M  6633M  6633B  6650M  6651M  6651B  6668M  6669M  6669B  6673M
                                                  6674M  6674B  6711B  6721   6733M  6734M  6734B  6778M  6779B  6790M
                                                  6791M  6791B  6847B  6854   6855   6855   6855   6868M  6892M  6931M
                                                  7113M  7114M  7114B  7117M  7118B  7143   7151M  7152M  7152B  7156M
                                                  7157M  7157B  7158M  7204B  7232   7456M  7509M  7511B  7532   7533
                                                  7533   7533   7644M  7645M  7645B  7665M  7666B  7679   7680   7680
                                                  7680   7710M  7711M  7711B  7729M  7731M  7748M  7778M  7779B  7792
                                                  7793   7793   7793   7796M  7797M  7797B  7836M  7838M  7876M  7927M
                                                  7928M  7928B  7985M  7986M  7986B  8012M  8014M  8032M  8072M  8073B
                                                  8094B  8121B  8128   8129   8129   8129   8137M  8138M  8138B  8162M
                                                  8163M  8163B  8200M  8201M  8201B  8225M  8226M  8226B  8238M  8239M
                                                  8239B  8243M  8244M  8244B  8261M  8262B  8284   8284   8284   8339M
                                                  8371M  8402M  8420M  8433M  8434M  8434B  8480M  8512M  8543M  8561M
                                                  8601M  8602M  8602B  8608M  8609M  8609B  8614M  8615M  8615B  8618M
                                                  8619M  8619B  8640M  8641M  8641B  8650M  8651M  8651B  8689M  8690M
                                                  8690B  8698M  8699M  8699B  8703M  8704M  8704B  8839M  8840M  8840B
1VFRY     (VFRY21) (09:47) (22MAR04) Ordinary Symbol and Literal Cross Reference                                            Page  118
                                                  8879M  8880M  8880B  8888M  8889M  8889B  8927M  8928M  8928B  8936M
                                                  8937M  8937B  8962M  8963M  8963B  9004M  9005M  9005B  9013M  9014M
                                                  9014B  9022M  9023M  9023B  9064M  9065M  9065B  9069M  9070M  9070B
                                                  9181M  9182M  9182B  9193M  9194M  9194B  9240M  9245M  9246M  9246B
                                                  9289M  9290M  9290B  9371M  9449M  9483M  9484M  9484B  9507M  9508M
                                                  9508B  9516M  9517M  9517B  9537M  9538M  9538B  9541M  9542M  9542B
                                                  9566   9568   9568   9568   9676M  9677M  9677B  9709M  9710M  9710B
                                                  9726M  9736   9738   9738   9738   9763M  9764M  9764B  9768M  9769M
                                                  9769B  9787M  9788M  9788B  9796M  9797M  9797B  9838M  9839M  9839B
                                                  9847M  9848M  9848B  9895M  9896M  9896B  9904M  9905M  9905B  9925M
                                                  9926M  9926B  9930M  9931M  9931B  9950M  9951M  9951B  9959M  9960M
                                                  9960B 10019M 10020M 10020B 10028M 10029M 10029B 10070M 10071M 10071B
                                                 10075M 10076M 10076B 10094M 10095M 10095B 10106M 10107M 10107B 10113M
                                                 10171  10173  10173  10173  10219M 10220M 10220B 10369M 10370M 10370B
                                                 10390M 10391M 10391B 10399M 10420  10422  10422  10422  10476M 10477M
                                                 10477B 10488M 10489M 10489B 10537M 10538M 10538B 10583M 10617M 10656M
                                                 10673M 10687  10689  10689  10689  10735M 10736M 10736B 10806M 10807M
                                                 10807B 10815M 10861  10863  10863  10863  10938M 10969  10971  10971
                                                 10971  11031M 11087M 11105M 11121M 11132  11169M 11216M 11217B 11227
                                                 11340M 11372M 11416M 11417B 11427  11428  11428  11428  11447M 11542M
                                                 11549M 11550B 11566  11568  11568  11568  11677M 11678M 11678B 11693M
                                                 11694M 11694B 11702M 11703M 11703B 11724M 11725M 11725B 11743M 11744M
                                                 11744B 11753M 11754M 11754B 11757M 11758M 11758B 11779M 11780M 11780B
                                                 11795M 11796M 11796B 11809M 11810M 11810B 11831M 11832M 11832B 11836M
                                                 11837M 11837B 11841M 11842M 11842B 11851M 11852M 11852B 11876M 11877M
                                                 11877B 11901M 11902M 11902B 11930M 11931M 11931B 11959M 11960M 11960B
                                                 11988M 11989M 11989B 12017M 12018M 12018B 12046M 12047M 12047B 12075M
                                                 12076M 12076B 12104M 12105M 12105B 12113M 12114M 12114B 12144M 12145M
                                                 12145B 12183M 12184M 12184B 12188M 12189M 12189B 12237M 12238M 12238B
                                                 12268M 12269M 12269B 12272M 12273M 12273B 12317M 12318M 12318B 12321M
                                                 12322M 12322B 12379M 12380M 12380B 12403M 12404M 12404B 12407M 12408M
                                                 12408B 12419M 12420M 12420B 12429M 12430M 12430B 12468M 12469M 12469B
                                                 12477M 12478M 12478B 12496M 12497M 12497B 12505M 12506M 12506B 12510M
                                                 12511M 12511B 12542M 12543M 12543B 12580M 12581M 12581B 12589M 12590M
                                                 12590B 12594M 12595M 12595B 12665M 12666M 12666B 12867M 12868M 12868B
                                                 12871M 12872M 12872B 12975M 12976M 12976B 12985M 12986M 12986B 12989M
                                                 12990M 12990B 12994M 13047M 13048M 13048B 13135M 13143M 13144M 13144B
                                                 13183M 13184M 13184B 13192M 13193M 13193B 13231M 13232M 13232B 13240M
                                                 13241M 13241B 13280M 13281M 13281B 13285M 13286M 13286B 13351M 13359M
                                                 13360M 13360B 13401M 13402M 13402B 13406M 13407M 13407B 13505M 13514M
                                                 13515M 13515B 13518M 13519M 13519B 13535M 13628  13628  13628  13664
                                                 13666  13666  13666  13698M 13699M 13699B 13740M 13741M 13741B 13745M
                                                 13746M 13746B 13754M 13755M 13755B 13796M 13797M 13797B 13801M 13802M
                                                 13802B 13825M 13826M 13826B 13867M 13868M 13868B 13872M 13873M 13873B
                                                 13900M 13901M 13901B 13942M 13943M 13943B 13947M 13948M 13948B 13979M
                                                 13980M 13980B 14021M 14022M 14022B 14026M 14027M 14027B 14035M 14054
                                                 14056  14056  14056  14123M 14135  14137  14137  14137  14209M 14210M
                                                 14210B 14218M 14219M 14219B 14260M 14261M 14261B 14269M 14270M 14270B
                                                 14311M 14312M 14312B 14320M 14321M 14321B 14362M 14363M 14363B 14371M
                                                 14372M 14372B 14390M 14391M 14391B 14395M 14396M 14396B 14408M 14428
                                                 14430  14430  14430  14479M 14480M 14480B 14484M 14485M 14485B 14503M
                                                 14504M 14504B 14512M 14513M 14513B 14551M 14552M 14552B 14560M 14561M
                                                 14561B 14602M 14603M 14603B 14611M 14612M 14612B 14616M 14617M 14617B
                                                 14652M 14653M 14653B 14732M 14733M 14733B 14744M 14764  14766  14766
                                                 14766  14803M 14804M 14804B 14808M 14809M 14809B 14815M 14825  14827
                                                 14827  14827  14897M 14898M 14898B 15414  15416  15416  15416  15440M
                                                 15441M 15441B 15459M 15460M 15460B 15520M 15521M 15521B 15525M 15526M
                                                 15526B 15649M 15650M 15650B 15654M 15655M 15655B 15764M 15765M 15765B
                                                 15803M 15804M 15804B 15812M 15813M 15813B 15817M 15818M 15818B 15836M
1VFRY     (VFRY21) (09:47) (22MAR04) Ordinary Symbol and Literal Cross Reference                                            Page  119
                                                 15837M 15837B 15845M 15846M 15846B 15894M 15895M 15895B 15903M 15904M
                                                 15904B 15952M 15953M 15953B 15961M 15962M 15962B 15966M 15967M 15967B
                                                 15977M 16007M 16008M 16008B 16176B 16233B 16392B
 REBUILD       8 000000CC 00000001         5581  6531M  8115   8115   8116   8116   8118   8186   8255   8255   8257
                                                  8257   8824   9091   9091   9093   9093   9141   9470  12090  12363
                                                 12363  12364  12364  13446
 RECLAIM      16 000000CC 00000001         5576  6501M  8115   8115   8117   8117   8148   8255   8255   8256   8256
                                                  8258M  9091   9091   9092   9092   9094  11974  12362  12362  12364
                                                 12364
 RECLVL        4 00000204 00000001     A    5722 14453  14454M 14520  14738  14740M
 RELBLK        4 000000E4 FFFFFFD9     A    6092  7351M  7636   7656   7657M  7965M  9715   9716M 10357M 10358  10921
 RETCODE       4 000000A8 00000001     A    5549  6246M  6295M  6315M  6335M  6635M  6693   6706M 10109M 11771M 12275M
                                                 12324M 12410M 12874M 14619M 14871  15135
 RETURN        2 000005D6 00000001     H    6787  6276B  6296B  6316B  6336B  6636B  6652B  9543B 11797B 12276B 12325B
                                                 12411B 12875B 14620B
 RMBRANCH      1 00000000 00000000 A   T    4128  4128
 RR            5 00000005 FFFFFFFF A   #    1081 13018M 13018  13031  13367  13424M
 RTRIM         2 000029FC 00000001     H   16164 16417
 R0            0 00000000 FFFFFFFF A   #     745  6187M  6371   7051M  7052M  7053   7074M  7075M  7076   7172M  7315M
                                                  7316M  7317   7538M  7539M  7540   7571M  7577M  7684M  7685M  7686
                                                  7933M  7937M  8724M  8724   8804M  8814   9150M  9159M  9236M  9237M
                                                  9238   9327M  9328M  9329   9346   9368M  9369M  9389M  9395M  9416M
                                                  9417M  9418   9435   9453M  9454M  9455  10348M 10348  10349M 11338M
                                                 11338  11364M 11364  11388  11516M 11591M 11600M 11600  11705M 11816M
                                                 12117M 12119M 12801M 12803M 12815  12822  12922M 12924M 12936  12943
                                                 12948M 12949M 12949  13312M 13314M 13330M 13336M 13419M 13420M 13421
                                                 13452M 13465M 13471M 14452M 14453M 14454  14738M 14739M 14740  14915M
                                                 14916M 15099M 15123M 15137M 15983  16004M 16009  16098  16131  16173M
                                                 16173  16186  16210M
 R1            1 00000001 FFFFFFFF A   #     758  6186   6192   6193   6194M  6195   6723M  6872M  6873M  6874   6912M
                                                  6924   6932M  6938   7054M  7077M  7110M  7261M  7263   7350M  7350
                                                  7351   7353M  7367   7380   7417M  7418M  7419   7572M  7615M  7616M
                                                  7617   7649M  7650M  7651   7655M  7656M  7657   7755M  7759M  7760
                                                  7763M  7764M  7765   7934M  7936   7963M  7964M  7965   7966M  7967M
                                                  7968M  7968   8049M  8050M  8051   8622M  8623M  8623   8718M  8720
                                                  8740   8747   8798M  8803M  9151M  9161M  9173   9183   9184   9190M
                                                  9242M  9247   9251M  9252M  9253   9263M  9273M  9274M  9274   9367M
                                                  9376M  9377M  9378   9390M  9714M  9715M  9716  10191  10203M 10204M
                                                 10204  10261M 10263M 10264  10269M 10270M 10271  10335M 10354  10357
                                                 10374M 10375M 10375  10485M 10707  10719M 10720M 10720  10766M 10767M
                                                 10790M 10791M 10791  10932M 10933M 10934  11139M 11140M 11323M 11429
                                                 11432M 11433M 11433  11527M 11528M 11528  11590M 11606M 11705M 11811M
                                                 11817M 12116M 12118M 12120  12215U 12243M 12286M 12292M 12348M 12416M
                                                 12634M 12635M 12636  12637  12638M 12639  12662M 12764M 12765M 12765
                                                 12780  12884M 12885M 12885  12886  12901  12950M 12962  13044M 13145M
                                                 13152  13293M 13305  13311  13313M 13331M 13454M 13455M 13456M 13457
                                                 13466M 14054  14056  14056  14056  14075M 14089  14096M 14105  14123M
                                                 14448  14649M 14656M 14668  14693M 14694M 14695M 14696  14717M 14718M
                                                 14719M 14720  14729M 14900M 14909M 14909  14964M 15056M 15121M 15437M
                                                 15456M 15561M 15562  15734M 16003M 16009M 16185  16372M
 R10          10 0000000A FFFFFFFF A   #     875  6137U  6723  10485  12640M 12662  13044
 R11          11 0000000B FFFFFFFF A   #     888  6146U  7534M  7571   7935   7938M  8045M 10554M
 R12          12 0000000C FFFFFFFF A   #     901  6155U  6162   6609M  7247M  7291U  7510M  7510   7518M  7518  15137M
 R13          13 0000000D FFFFFFFF A   #     914  6185   6193M  6608M 14466  14568  15098M 15134M
 R14          14 0000000E FFFFFFFF A   #     927  6162   6609M  6611B  7577M  9159M  9365M  9369M  9395M 13336M 13465M
                                                 13471M 15136M 15138B
 R15          15 0000000F FFFFFFFF A   #     940  6163   6610M  6693   6706   6866M  7191M  7191   7246M  7251   7374M
                                                  7576M  7576   8841M  8842M  9157M  9330M  9340U  9366M  9367   9394M
                                                  9394   9419M  9429U 11706M 12389M 12389  12533M 12534M 12618M 12618
1VFRY     (VFRY21) (09:47) (22MAR04) Ordinary Symbol and Literal Cross Reference                                            Page  120
                                                 12992M 13133M 13242M 13243M 13335M 13335  13349M 13463M 13470M 13470
                                                 13503M 13805M 13806M 13806  13880M 13881M 13881  14878M 15135M 15527M
                                                 15656M 15746M 15746  15756  15853M 15911M 15968M 16357M 16376M 16376
                                                 16391M 16391
 R2            2 00000002 FFFFFFFF A   #     771  7935M  7937M  9736   9738   9738   9738   9961M  9973M  9973  10097M
                                                 10113M 10687  10689  10689  10689  10767  10995M 11005M 11005  11023
                                                 11058  11065  11134M 11140  14098M 14764  14766  14766  14766  14815M
                                                 14825  14827  14827  14827  16183  16185M 16186M 16187M 16209M 16232M
                                                 16247M 16255U 16257M 16265M 16273U 16275M 16286U 16288M 16299U 16344M
                                                 16372
 R3            3 00000003 FFFFFFFF A   #     784  7936M  9131M  9183M  9230   9247M  9686M  9699   9717M  9962M 10096M
                                                 10762M 10765  11135M 11138  11191M 11193  14097M
 R5            5 00000005 FFFFFFFF A   #     810  8746M  8747M  8750   8762M  8769M  8771   8798  10707M 10715U
 SAUTO         2 000004E2 00000001     H    6510 15194
 SAVEAEND      4 000000A4 00000001     A    5547  6195M 14466
 SAVEAREA      4 000000A0 00000001     A    5546  6192M 15098
 SBCV          2 00000500 00000001     H    6584 15192
 SCAN          1 00000000 0000000A     T   13602 13602  16411
 SCINIT        1 00000000 00000009     T   13600 13600  16410
 SCLM          2 000004DC 00000001     H    6495 15186
 SCNCB         4 0000015C 00000001     F    5651  5662  11622
 SCNDHDR       4 000000F8 FFFFFFD9     A    6097  7933   7938   8045
 SCNVAL        4 0000015C 00000001     A    5652  6413
 SDISK         2 000004D2 00000001     H    6473 15200
 SDMP          2 000004F4 00000001     H    6556 15190
 SERRBIT       4 00000014 FFFFFFDA     A    5926  5927   5932   5932  10252  10261  10269  10759  11464  14277
 SERRBLK    4096 00000000 FFFFFFDB     J    5884  6906U  7170U
 SERRCCHH      4 00000048 FFFFFFDA     A    5931 10301M 10301  10316
 SERRCLAS      1 00000014 FFFFFFDA     C    5927 10229  10753  11275
 SERRENT       4 00000004 FFFFFFDB     A    5874  6911   6938M  7203M
 SERRFLG       1 00000010 FFFFFFDA     R    5908  5912   5917   5922
 SERRHCNT      4 0000000C FFFFFFDA     A    5905  7075   7076M 14226  14654  14691M 14694  14715  14718  14720M
 SERRHI        4 00000004 FFFFFFDA     A    5903  7077   7078  10374  10790  11296  11527  14688  14690M 14714  14716M
                                                 14729
 SERRINFO     60 00000014 FFFFFFDA     C    5932  6955M  7022   7022  11482
 SERRLCNT      4 00000008 FFFFFFDA     A    5904  7052   7053M 14175  14655  14691  14693  14696M 14715M 14717
 SERRLO        4 00000000 FFFFFFDA     A    5902  7054   7055  10203  10719  11313  11432  14649  14690  14692M 14712
                                                 14714M
 SERRLST      80 00000000 FFFFFFDA     J    5939  6863U  6912   6932   6954M  6954   7022  10199U 10715U 11236U 14164U
                                                 14647U 14690  14691  14692M 14696M 14714  14715  14716M 14720M
 SERRMAX       1 00000FF8 FFFFFFDB A   U    5876  8267
 SERRNAME     40 00000018 FFFFFFDA     C    5928 10228  10228  14382  14387
 SERRNXT       4 00000000 FFFFFFDB     A    5873  7201M
 SERRREL       4 00000040 FFFFFFDA     A    5929 10335  14328
 SERRTYPE      4 00000044 FFFFFFDA     A    5930 10227  10227  10273  10295  10323  10336
 SERR7        32 00000010 FFFFFFDA         5922  6977M 10239  11394M 11499M
 SETBIT        2 000015B4 00000001     H   10684 10131  10844
 SETCODE       2 00000592 00000001     H    6692  6868B 12994B 13135B 13351B 13505B
 SFORCE        2 000004EE 00000001     H    6540 15206
 SINC          2 000004C2 00000001     H    6437 15204
 SINV          2 00000506 00000001     H    6597  6354B  6374B  6407B 11649B 15214
 SIXR          2 000004BC 00000001     H    6422 15184
 SPFX          2 00000466 00000001     H    6345 15208
 SPOW          2 000004B0 00000001     H    6398 15196
 SR            2 00000002 FFFFFFFF A   #    1042  6186M  6854   6855   6855   6855   6863U  6911M  6912   6932   6937M
                                                  6982   6986M  6987M  6987   7055M  7078M  7096M  7096   7117M  7174M
                                                  7201   7202M  7203   7532   7533   7533   7533   7665M  7679   7680
                                                  7680   7680   7778M  7792   7793   7793   7793   8072M  8128   8129
                                                  8129   8129   8261M  8284   8284   8284   8728M  8728   8804   8808M
1VFRY     (VFRY21) (09:47) (22MAR04) Ordinary Symbol and Literal Cross Reference                                            Page  121
                                                  8808   9160M  9241M  9566   9568   9568   9568   9726M 10171  10173
                                                 10173  10173  10191M 10199U 10399M 10420  10422  10422  10422  10673M
                                                 10759M 10760M 10761M 10815M 10861  10863  10863  10863  10938M 10969
                                                 10971  10971  10971  11121M 11236U 11239M 11257M 11257  11296M 11313M
                                                 11323  11388M 11427  11428  11428  11428  11429M 11516  11549M 11566
                                                 11568  11568  11568  12421M 12437  12512M 12513M 12514M 12515M 12516
                                                 12517M 12533  12605  12708M 12718U 13090M 13100U 13291M 13293  13314M
                                                 13535M 13628  13628  13628  13664  13666  13666  13666  14035M 14135
                                                 14137  14137  14137  14408M 14428  14430  14430  14430  14448M 14744M
                                                 14929M 14939U 15021M 15031U 15104M 15115M 15115  15121  15122M 15414
                                                 15416  15416  15416  15475M 15485U 15756M 15772  15977M 15983M 15986M
                                                 15988  16098M 16101M 16103  16131M 16134M 16136
 SRBL          2 000004E8 00000001     H    6525 15198
 ST_RESV       4 00000100 FFFFFFDC A   A    5524  6219
 ST_SPACE      4 0000000C FFFFFFDC A   A    5523  6218   6219  12116  15162
 STAPE         2 000004C8 00000001     H    6451 15202
 SVRB          2 000004FA 00000001     H    6570 15188
 SWRK          8 00002D20 00000001     D   15301 15783  15874  15932
 S99VRBAL      1 00000001 FFFFFFE7 A   U    2417 15230
 TBLK          2 00002CAC 00000001     R   15271 15252
 TCB           1 00000020 FFFFFFDD     U    4755  5454  16273U
 TCBAE         4 000000BC FFFFFFDD     A    4999  5002
 TCBDARPN      1 00000040 FFFFFFDD A   U    5045  5047
 TCBDARTN      1 00000080 FFFFFFDD A   U    5042  5044
 TCBFIX        1 00000000 FFFFFFDD     J    4743  4750
 TCBMNLEN      1 00000158 FFFFFFDD A   U    5454  5499
 TCBPXLEN      1 00000020 FFFFFFDD A   U    4750  5499
 TCBRD         4 000000B8 FFFFFFDD     A    4994  4998
 TCBTIO        4 0000002C FFFFFFDD     A    4763 16275
 TCBXTNT2      1 00000000 FFFFFFDC     J    5459  5497
 TCBX2LEN      1 00000020 FFFFFFDC A   U    5497  5499
 TCDSP         2 00002C4E 00000001     R   15265 15247  15282
 TDDN          2 00002BF4 00000001     R   15259 15241  15277  15733M
 TDSN          2 00002C02 00000001     R   15260 15242  15278  15630  15995M 16003
 TDYNP         4 00002BA0 00000001     A   15229 15734
 TDYNRB        4 00002BA4 00000001     A   15230 15229  15562M 15853  15911
 TFREE         2 00002C43 00000001     R   15263 15246  15281
 TIOEDDNM      8 0000001C FFFFFFE2     C    3200 16335
 TIOELNGH      1 00000018 FFFFFFE2     G    3157 16306  16344  16350
 TIOENTRY      1 00000018 FFFFFFE2     U    3156 16288  16299U
 TIOT1         1 00000000 FFFFFFE2     U    3135 16286U
 TLBL          2 00002C63 00000001     R   15267 15249
 TMEM          2 00002C34 00000001     R   15261 15243
 TNDSP         2 00002C47 00000001     R   15264 15244  15279
 TPROT         2 00002C72 00000001     R   15269 15251
 TPTRS         4 00002BC0 00000001     A   15241 15232
 TR            3 00000003 FFFFFFFF A   #    1055  6877M  6878M  6878   6906U  6937   6982M  7000   7105   7143M  7158
                                                  7170U  7173M  7181   7200M  7424M  7435M  7435   7449   7484   7491
                                                  8719M  8720M  8740   8746   8814M  8842   8896   8970   9122M  9122
                                                 10447M 10459  10465  12725M 12726M 12726  12752  12780M 12792  12801
                                                 12830M 12831M 12831  12853  12880  12901M 12913  12922  13106M 13126
                                                 13200  13292M 13293  13313  13331  13453M 13457M 13466  13483M 14164U
                                                 14627M 14628M 14628  14647U 14692  14716  16306M 16318M 16318  16344
                                                 16350M 16366M 16366
 TRAVERSE      2 000017CA 00000001     H   11425 11340B 11447B 11542B
 TRETP         2 00002CA4 00000001     R   15270 15253
 TSEQ          2 00002C6A 00000001     R   15268 15250
 TSTAT         2 00002C3C 00000001     R   15262 15245  15280
 TUNIT         2 00002C55 00000001     R   15266 15248  15711M 15716  15728M 16110M
1VFRY     (VFRY21) (09:47) (22MAR04) Ordinary Symbol and Literal Cross Reference                                            Page  122
 TunitIX       8 00002BB8 00000001     C   15235 15705  15711  16143M
 TYPE          4 000000E8 FFFFFFD9     A    6093  7395M  7541M  7687M  7982M  9594   9611   9618M  9635M
 TYPE6         2 00001712 00000001     H   11130 11087B
 TYPE7         2 0000175E 00000001     H   11225 11105B
 UINFO         4 00000153 00000001     C    5646  7396M  7581  10916
 UMASK         2 00000157 00000001     C    5647  7397M
 USERINFO      1 0000083E FFFFFFD9     U    6117  7581M 10916M
 VCNTRL        1 00000000 00000007     T   10139 10139  13603  15156  16415
 VERBOSE       1 000000CC 00000001         5596  6574M  7137  11945  12131  12527
 VFIO          1 00000000 00000004     T    6806  6806  10842  13624
 VFIOBAD       2 00000564 00000001     H    6647 10498B 12675B 13057B
 VFIOBAD2      4 000010B4 00000001     I    9736  6805
 VFOCNTL       8 000001B8 00000001     C    5701  6380M  6381M 15456  15490
 VFOPFX        8 000001C0 00000001     C    5702  6382M  6383M
 VFOPN         1 00000000 0000000C     T   13616 13616
 VFRETFS       1 00000000 0000000D     T   13617 13617
 VFRY          1 00000000 00000001     J    1186  1188   1245   1368   1437   1590   5533   5856   5885   5940   6128
                                                 13609
 VFRY_CLS      4 000024B2 00000001     I   14825  6807
 VFRY_INI      4 0000181C 00000001     I   11566  6220
 VFRYFLGS      1 000000CE 00000001     R    5617  5621   5626   5631   5636   5641
 VFRYPRT       8 000000AC 00000001     C    5550  6384M  6385M 11668
 VFRY21        1 00000000 00000001     R    1195  1193
 VFVERIFY      2 00000016 00000001     H    6161  6158   6171U
 VKWRT         1 000026FC 00000001     R   15184 13601
 VOPN          4 000001A4 00000001     A    5686 12348
 VOPN_BCV    128 000001A8 00000001         5693  6588M
 VOPN_FL       1 000001A8 00000001     R    5689  5693
 VPOW          4 000001CC 00000001     A    5708  5697   6413M
 VSEG          1 00000000 00000002     T    6801  6801   8269  10125  13605  15149  16408
 VSSAVE        4 0000009C 00000001     A    5545  6185M  6608  15134
 VWRITE        1 00000000 00000003     T    6802  6802   8270  10121  13607  15151  16409
 WRITEOUT      2 00002480 00000001     H   14761 10122  10839
 WRTIXR        4 00001662 00000001     I   10861  8280  10137
 XORCORE       2 00002242 00000001     H   14051 10130
 =A(BALANCE)
               4 00000BBC 00000001     A    8268  7113
 =A(BALANCE)
               4 0000262C 00000001     A   15157 14652  14732
 =A(CHECKBIT)
               4 00000BDC 00000001     A    8276  7644
 =A(CHECKBIT)
               4 00001278 00000001     A   10138  9709
 =A(CHECKBIT)
               4 00001648 00000001     A   10841 10476
 =A(CHKRBLD)
               4 00001650 00000001     A   10843 10537
 =A(DATASEG)
               4 00000048 00000001     A    6217  6174
 =A(DATASEG)
               4 00002608 00000001     A   15148 13681
 =A(DATASEG)
               4 00002AA0 00000001     A   16406 15434
 =A(DYNTAPE)
               4 00001ED4 00000001     A   13615 12237
 =A(FINDDD)
               4 00002AA4 00000001     A   16407 15440  15459
 =A(GETIXR)
               4 00000BE4 00000001     A    8278  7710   7796   7985
1VFRY     (VFRY21) (09:47) (22MAR04) Ordinary Symbol and Literal Cross Reference                                            Page  123
 =A(IXRNT#)
               4 0000163C 00000001     A   10838 10349
 =A(L'FSMB)
               4 00001EFC 00000001     A   13623 12517  12635
 =A(L'FSMB)
               4 0000263C 00000001     A   15161 14916
 =A(LISTNTRY)
               4 00001214 00000001     A   10123  8640
 =A(LISTNTRY)
               4 00001628 00000001     A   10833 10219  10390
 =A(PRSTAT)
               4 00001208 00000001     A   10120  8433
 =A(RTRIM)
               4 00002B1C 00000001     A   16417 16007
 =A(SERRMAX)
               4 00000BB8 00000001     A    8267  6924
 =A(SETBIT)
               4 00001244 00000001     A   10131  9289
 =A(SETBIT)
               4 00001654 00000001     A   10844 10735  10806
 =A(ST_SPACE*1024)
               4 0000004C 00000001     A    6218  6187
 =A(ST_SPACE*1024)
               4 00002640 00000001     A   15162 15099
 =A(ST_SPACE*1024-ST_RESV-1)
               4 00000050 00000001     A    6219  6194
 =A(VFIOBAD2)
               4 00000638 00000001     A    6805  6650
 =A(VFRY)      4 00001EBC 00000001     A   13609 11811
 =A(VFRY_CLS)
               4 00000640 00000001     A    6807  6790
 =A(VFRY_INI)
               4 00000054 00000001     A    6220  6199
 =A(VKWRT)
               4 00001E84 00000001     A   13601 11632
 =A(WRITEOUT)
               4 00001210 00000001     A   10122  8608   8614   8618
 =A(WRITEOUT)
               4 00001640 00000001     A   10839 10369
 =A(WRTIXR)
               4 00000BEC 00000001     A    8280  7927
 =A(WRTIXR)
               4 00001274 00000001     A   10137  9676
 =A(X'FFFFF000')
               4 00001EF8 00000001     A   13622 12515
 =A(X'20')
               4 00001ECC 00000001     A   13613 12119
 =A(XORCORE)
               4 00001240 00000001     A   10130  9181   9193   9245
 =A(0)         4 00001644 00000001     A   10840 10459
 =A(1)         4 00000BE8 00000001     A    8279  7759
 =A(1)         4 00001284 00000001     A   10141 10097
 =A(1)         4 00001F28 00000001     A   13626 13424
 =A(1)         4 00002634 00000001     A   15159 14695  14719  14739
 =A(1)         4 00002B20 00000001     A   16418 16187  16209  16210
 =A(1024)      4 00001EC4 00000001     A   13611 12117
 =A(2)         4 00000634 00000001     A    6804  6371
 =A(2)         4 00002630 00000001     A   15158 14668
 =A(256)       4 0000122C 00000001     A   10127  8750   8762
1VFRY     (VFRY21) (09:47) (22MAR04) Ordinary Symbol and Literal Cross Reference                                            Page  124
 =A(256)       4 00002618 00000001     A   15152 14089
 =A(32)        4 00000BCC 00000001     A    8272  7367
 =A(4096)      4 00000BC8 00000001     A    8271  7172
 =A(4096)      4 00002644 00000001     A   15163 15123
 =A(4096-1)
               4 00001EF4 00000001     A   13621 12514
 =A(512)       4 00001EC8 00000001     A   13612 12118
 =A(7)         4 00001EF0 00000001     A   13620 12512
 =AL2(L'IXR)
               2 0000165A 00000001     R   10846 10648
 =AL4(16)      4 00002638 00000001     R   15160 14871
 =C'               Files ='
              22 0000265E 00000001     C   15165 13750
 =C'        Hybrid files ='
              22 0000268A 00000001     C   15167 13896
 =C'       Non-IXR files ='
              22 00002674 00000001     C   15166 13821
 =C' '         1 000013A6 00000001     C   10155  9843  10024
 =C' '         1 000026F3 00000001     C   15171 14214  14265  14316  14367
 =C' file system.'
              13 00002082 00000001     C   13645 12501
 =C' in bit map block '
              18 00001F8E 00000001     C   13634 13236
 =C' Blocks available.'
              18 000012D0 00000001     C   10146  8932
 =C' Blocks in '
              11 00002077 00000001     C   13644 12473
 =C' Blocks in use, '
              16 000011F0 00000001     C   10118  8884
 =C' IXR'      4 0000126C 00000001     C   10135  9618
 =C' OPTION DISABLED DUE TO IXR I/O ERROR.'
              38 00000C34 00000001     C    8288  8234
 =C' ORVYL File errors'
              18 000012BE 00000001     C   10145  8694
 =C'.INC.IXR'
               8 00002A98 00000001     C   16405 16069
 =C'.INCIXR'
               7 00002B97 00000001     C   16425 16048
 =C'.IXRDUMP'
               8 00002A88 00000001     C   16403 16010
 =C'*NIX'      4 00000BD4 00000001     C    8274  7541
 =C') Reason code('
              14 00002B4E 00000001     C   16420 15899
 =C') STACK('
               8 00002600 00000001     C   15147 14556
 =C')'         1 000026F4 00000001     C   15172 14607
 =C')'         1 00002B8B 00000001     C   16423 15808  15957
 =C', is '
               5 000020CF 00000001     C   13648 13188
 =C',DISK'
               5 00001FD7 00000001     C   13638 12042
 =C',DUMP'
               5 00001FD2 00000001     C   13637 11926
 =C',IXRDUMP'
               8 00001E68 00000001     C   13596 12013
 =C',REBUILD'
               8 00001E70 00000001     C   13597 12100
 =C',RECLAIM'
               8 00001E60 00000001     C   13595 11984
1VFRY     (VFRY21) (09:47) (22MAR04) Ordinary Symbol and Literal Cross Reference                                            Page  125
 =C',TAPE'
               5 00001FDC 00000001     C   13639 12071
 =C',VERBOSE'
               8 00001E58 00000001     C   13594 11955
 =C''')  File='
               9 000013A7 00000001     C   10156  9900
 =C'represent!'
              10 00001F84 00000001     C   13633 12981
 =C'AUTO'      4 00000C00 00000001     C    8283  8221
 =C'AUTO'      4 00001EC0 00000001     C   13610 11872
 =C'Bitno(X'''
               8 00001200 00000001     C   10119  9792
 =C'BLOCK#  BYTE,BIT  REL BLK.'
              26 000012A4 00000001     C   10144  8611
 =C'CCHHR'
               5 00001335 00000001     C   10150  8605
 =C'CCW Chain: '
              11 000013B0 00000001     C   10157  9955
 =C'DIR.'      4 00000BD0 00000001     C    8273  7395
 =C'DIR.'      4 00001634 00000001     C   10836 10273  10323
 =C'Error code('
              11 00002B8C 00000001     C   16424 15841
 =C'HYBR'      4 00000BE0 00000001     C    8277  7687
 =C'HYBR'      4 00001264 00000001     C   10133  9594
 =C'K from system.'
              14 00001F4C 00000001     C   13631 12585
 =C'MIXR'      4 00001270 00000001     C   10136  9635
 =C'NOAUTO'
               6 00001F46 00000001     C   13630 11897
 =C'ORVYL File System -- VERIFY'
              27 00001FA0 00000001     C   13635 11749
 =C'PHYS.    FD  REL   FILE'
              23 0000131E 00000001     C   10149  8604
 =C'PTR  ERR  FILE'
              14 00001288 00000001     C   10142  8603
 =C'REBUILD'
               7 00000C61 00000001     C    8290  8196
 =C'RECLAIM'
               7 00000C5A 00000001     C    8289  8158
 =C'RECURSION('
              10 000026CE 00000001     C   15169 14508
 =C'SIXR'      4 00000BF0 00000001     C    8281  7982
 =C'SIXR'      4 00001268 00000001     C   10134  9611
 =C'SIXR'      4 00001638 00000001     C   10837 10295  10336
 =C'SYSPRINT DDNAME missing'
              23 00001FBB 00000001     C   13636 11775
 =C'TYPE CODE NAME'
              14 00001296 00000001     C   10143  8610
 =C'VFRY (000): '
              12 00001E90 00000001     C   13604 11698
 =C'VFRY (001): Version='
              20 00001EA8 00000001     C   13608 11805
 =C'VFRY (003): Options - '
              22 00001F30 00000001     C   13629 11847
 =C'VFRY (004): '
              12 00001EE0 00000001     C   13618 12425
 =C'VFRY (010): Header length should be '
              36 00001F04 00000001     C   13625 13139
 =C'VFRY (011): Extra bit(s) in map block(s) '
1VFRY     (VFRY21) (09:47) (22MAR04) Ordinary Symbol and Literal Cross Reference                                            Page  126
              41 000020D4 00000001     C   13649 13355
 =C'VFRY (012): First bit of Bit Map zero'
              37 000020FE 00000001     C   13651 13510
 =C'VFRY (013): '
              12 00001218 00000001     C   10124  8646
 =C'VFRY (014): '
              12 00001230 00000001     C   10128  8835
 =C'VFRY (015): Lost block count ='
              30 000012E2 00000001     C   10147  8958
 =C'VFRY (016): Bit map re-built'
              28 00001248 00000001     C   10132  9479
 =C'VFRY (017): Bit map replaced in file system'
              43 0000133B 00000001     C   10152  9503
 =C'VFRY (018): VERIFY Finished'
              27 00001366 00000001     C   10153  9533
 =C'VFRY (019): Max block in use ='
              30 00001300 00000001     C   10148  9018
 =C'VFRY (025): Accounts ='
              22 00002648 00000001     C   15164 13694
 =C'VFRY (026): IXR''s written ='
              27 000026D8 00000001     C   15170 13975
 =C'VFRY (030): Requesting '
              23 0000208F 00000001     C   13646 12538
 =C'VFRY (031): Requesting 4K for error table.'
              42 00000C06 00000001     C    8285  7147
 =C'VFRY (033): '
              12 00000BF4 00000001     C    8282  8133
 =C'VFRY (033): Maximum recursion set to '
              37 00001FE1 00000001     C   13640 12140
 =C'VFRY (101): Insufficient memory allocated'
              41 000006DE 00000001     C    6817  6624
 =C'VFRY (102): File system open failed'
              35 00002054 00000001     C   13643 12399
 =C'VFRY (103): Bad return code from VFIO'
              37 00001381 00000001     C   10154  9759
 =C'VFRY (104): Unable to open IXRDUMP file'
              39 00002006 00000001     C   13641 12264
 =C'VFRY (105): Unable to open Catalog file'
              39 0000202D 00000001     C   13642 12313
 =C'VFRY (106): File system I/O error.'
              34 00000644 00000001     C    6808  6235
 =C'VFRY (107): Bit-Map base block is invalid.'
              42 00001F5A 00000001     C   13632 12863
 =C'VFRY (108): Bit-Map block count is invalid.'
              43 00000686 00000001     C    6815  6284
 =C'VFRY (109): Catalogue base block is invalid.'
              44 00000608 00000001     C    6803  6304
 =C'VFRY (110): Catalogue block count is invalid.'
              45 000006B1 00000001     C    6816  6324
 =C'VFRY (201): Unable to open "CONTROL" file.'
              42 00002B24 00000001     C   16419 15516
 =C'VFRY (202): Unable to determine tape prefix.'
              44 00002AE4 00000001     C   16413 15645
 =C'VFRY (203): Dynamic allocation error. Return('
              45 00002B5E 00000001     C   16422 15760
 =C'VFRY (345): More blocks than bit-map can '
              41 000020A6 00000001     C   13647 12971
 =C'VFRY (843): Stack overflow in balance routine.'
              46 000026A0 00000001     C   15168 14475
1VFRY     (VFRY21) (09:47) (22MAR04) Ordinary Symbol and Literal Cross Reference                                            Page  127
 =C'VFRY (999): Internal logic error'
              32 000005E0 00000001     C    6800  6664
 =C'0123456789ABCDEF'
              16 00001618 00000001     C   10832 10225
 =CL4' '       4 00000BD8 00000001     C    8275  7580
 =CL4' '       4 00001E78 00000001     C   13598 10884
 =CL44' '     44 00002AB8 00000001     C   16412 15630
 =CL6'CNTRL'
               6 00000666 00000001     C    6809  6381
 =CL6'DSK'
               6 0000066C 00000001     C    6810  6383
 =CL6'FILES'
               6 0000067E 00000001     C    6813  6389
 =CL6'IXRDMP'
               6 00000678 00000001     C    6812  6387
 =CL6'VFPRT'
               6 00000672 00000001     C    6811  6385
 =CL8' '       8 00002A78 00000001     C   16401 15705  15716
 =CL8'.INCIXR'
               8 00002A90 00000001     C   16404 16027
 =CL8'TAPE'
               8 00002A80 00000001     C   16402 15728
 =F'-1'        4 00001E7C 00000001     F   13599 11192
 =F'240'       4 0000162C 00000001     F   10834 10226
 =F'256'       4 0000261C 00000001     F   15153 14096
 =F'7'         4 00001630 00000001     F   10835 10270
 =H'0'         2 00000C32 00000001     H    8287  7942
 =V(BTD)       4 00001228 00000001     V   10126  8672
 =V(BTD)       4 00001ED0 00000001     V   13614 12166  12563  13166  13214  13263  13384
 =V(BTD)       4 00002620 00000001     V   15154 14192  14243  14345  14534
 =V(BTD)       4 00002B10 00000001     V   16414 15786
 =V(BTDC)      4 0000123C 00000001     V   10129  8862   8910   8987   9047
 =V(BTDC)      4 00001EEC 00000001     V   13619 12451
 =V(BTDC)      4 00002610 00000001     V   15150 13723  13779  13850  13925  14004
 =V(BTX)       4 00001280 00000001     V   10140  9821   9878  10002  10053
 =V(BTX)       4 00002624 00000001     V   15155 14294  14585
 =V(BTX)       4 00002B18 00000001     V   16416 15877  15935
 =V(FMTCLCK)
               4 00001EA0 00000001     V   13606 11709
 =V(SCAN)      4 00001E88 00000001     V   13602 11639
 =V(SCAN)      4 00002AB4 00000001     V   16411 15621
 =V(SCINIT)
               4 00001E80 00000001     V   13600 11625
 =V(SCINIT)
               4 00002AB0 00000001     V   16410 15605
 =V(VCNTRL)
               4 0000127C 00000001     V   10139  9787   9950  10094
 =V(VCNTRL)
               4 00001E8C 00000001     V   13603 11677  11693  11743  11795
 =V(VCNTRL)
               4 00002628 00000001     V   15156 14503  14897
 =V(VCNTRL)
               4 00002B14 00000001     V   16415 15836
 =V(VFIO)      4 0000063C 00000001     V    6806  6733
 =V(VFIO)      4 0000164C 00000001     V   10842 10488
 =V(VFIO)      4 00001F00 00000001     V   13624 12665  13047
 =V(VFOPN)
               4 00001ED8 00000001     V   13616 12379
 =V(VFRETFS)
1VFRY     (VFRY21) (09:47) (22MAR04) Ordinary Symbol and Literal Cross Reference                                            Page  128
               4 00001EDC 00000001     V   13617 12419
 =V(VSEG)      4 00000600 00000001     V    6801  6239   6288   6308   6328   6628   6668
 =V(VSEG)      4 00000BC0 00000001     V    8269  7151   8137   8162   8200   8225   8238
 =V(VSEG)      4 00001224 00000001     V   10125  8650   8689   8698   8839   8879   8888   8927   8936   8962   9004
                                                  9022   9064   9483   9507   9537   9763   9796   9838   9847   9895
                                                  9904   9925   9959  10019  10028  10070
 =V(VSEG)      4 00001E9C 00000001     V   13605 11702  11724  11753  11779  11809  11831  11851  11876  11901  11930
                                                 11959  11988  12017  12046  12075  12104  12144  12183  12268  12317
                                                 12403  12429  12468  12477  12496  12505  12542  12580  12589  12867
                                                 12975  12985  13143  13183  13192  13231  13240  13280  13359  13401
                                                 13514
 =V(VSEG)      4 0000260C 00000001     V   15149 13698  13740  13754  13796  13825  13867  13900  13942  13979  14021
                                                 14209  14218  14260  14269  14311  14320  14362  14371  14390  14479
                                                 14512  14551  14560  14602  14611  14803
 =V(VSEG)      4 00002AA8 00000001     V   16408 15520  15649  15764  15803  15812  15845  15894  15903  15952  15961
 =V(VWRITE)
               4 00000604 00000001     V    6802  6243   6292   6312   6332   6632   6673
 =V(VWRITE)
               4 00000BC4 00000001     V    8270  7156   8243
 =V(VWRITE)
               4 0000120C 00000001     V   10121  8601   8703   9013   9069   9516   9541   9768   9930  10075  10106
 =V(VWRITE)
               4 00001EA4 00000001     V   13607 11757  11836  11841  12113  12188  12272  12321  12407  12510  12594
                                                 12871  12989  13285  13406  13518
 =V(VWRITE)
               4 00002614 00000001     V   15151 13745  13801  13872  13947  14026  14395  14484  14616  14808
 =V(VWRITE)
               4 00002AAC 00000001     V   16409 15525  15654  15817  15966
 =X'E77D'      2 00001658 00000001     X   10845 10360
 =X'FF'        1 0000133A 00000001     X   10151  9157
 =X'FF'        1 000020FD 00000001     X   13650 13463
 =X'7F'        1 0000165C 00000001     X   10847 10522
 =Y((RAR+1-(SR)+16*((SR)/(RAR+1))/((SR)/(RAR+1)))*4)
               2 00000C04 00000001     Y    8284  7116   7664   7777   8071   8260
 =Y((RAR+1-(SR)+16*((SR)/(RAR+1))/((SR)/(RAR+1)))*4)
               2 00001F2E 00000001     Y   13628 11548
 =Y(4)         2 00000684 00000001     Y    6814  6777
 =Y(4)         2 00000C30 00000001     Y    8286  7508
 =Y(4)         2 00001F2C 00000001     Y   13627 11215  11415
 =Y(4)         2 00002B5C 00000001     Y   16421 16231

1VFRY     (VFRY21) (09:47) (22MAR04) Macro and Copy Code Source Summary                                                     Page  129
- Con Source                                        Volume    Members                        HLASM R4.0  2004/03/22 09.47
0     PRIMARY INPUT                                           CSECT    DROP     END      EX       LTORG    POP
                                                              PRINT    PUSH     SETCODE  START    USING
   L2 WYL.GG.SYS.MACLIB                             SYSB05    $BC      $BFLKUP  $BV      $CCLKUP  $CRS     $CSS     $L
                                                              $LA      $LBLAD   $LEXP    $LOR     $REL     $RGLKUP
                                                              $USLKUP  ACALL    BASE     BEGIN    CEIL     CLEAR
                                                              CSECT    DATA     DECR     DEFCC    DEX      DROP     ELSE
                                                              ELSEIF   END      EX       FLAG     GEN      HIBAL
                                                              IDENT    IF       INCR     LABEL    LC       LCALL    LCM
                                                              LOOP     LS       LT       LTORG    L2       L3       POP
                                                              PRINT    PUSH     RECORD   REG      REGS     SET
                                                              START    ST3      SYSLR    SYSQS    UNTIL    USING
                                                              VCALL    WHILE    WITH
   L3 WYL.GG.ORV.BC.MACLIB                          SYSB02    BTD      BTX      IOB      NXRYFL   NXRYGR   SCAN
                                                              SCANCB   SCINIT   SCKW     SCRTN    SEGDC    SEGHX
                                                              VCNTL    VENTER   VEXIT    VFAREA   VPOP     VPUSH
                                                              VREST    VSAVE    VSEG     VWRITE   XCALL
   L4 WYL.GG.ORV.MACLIB                             SYSB02    FBHDR    FPC      FSMB     IXR
   L5 SYS1.MACLIB                                   MVSBR9    ABEND    CLOSE    CVT      DCB      DCBD     DYNALLOC
                                                              FREEMAIN FREEPOOL GET      GETMAIN  IEFSJDKY IEFTIOT1
                                                              IEFZB4D0 IEFZB4D2 IHBINNRA IHBINNRR IHB01    IKJTCB   OPEN
                                                              PUT      SYSSTATE WAIT     WTO

1         (VFRY21) (09:47) (22MAR04) General Purpose Register Cross Reference                                               Page  130
- Register  References (M=modified, B=branch, U=USING, D=DROP, N=index)                      HLASM R4.0  2004/03/22 09.47
0    0(0)     1028U  1029D  6162   6187M  6236M  6268M  6269M  6270   6285M  6305M  6325M  6371   6609M  6625M  6665M
              6680M  6681M  6682   6752M  7051M  7052M  7053   7074M  7075M  7076   7148M  7172M  7179   7251M  7315M
              7316M  7317   7538M  7539M  7540   7571M  7577M  7608M  7684M  7685M  7686   7933M  7937M  8134M  8159M
              8197M  8222M  8235M  8647M  8662M  8662   8695M  8724M  8724   8804M  8814   8836M  8852M  8852   8885M
              8900M  8900   8933M  8959M  8977M  9019M  9037M  9150M  9159M  9236M  9237M  9238   9327M  9328M  9329
              9346   9368M  9369M  9389M  9395M  9416M  9417M  9418   9435   9453M  9454M  9455   9480M  9504M  9534M
              9760M  9771M  9793M  9811M  9844M  9868M  9901M  9922M  9934M  9956M  9992M 10025M 10043M 10078M 10348M
             10348  10349M 10507M 10925M 11338M 11338  11364M 11364  11388  11516M 11591M 11600M 11600  11661M 11680M
             11699M 11705M 11727M 11750M 11776M 11782M 11806M 11815M 11815  11816M 11848M 11873M 11898M 11927M 11956M
             11985M 12014M 12043M 12072M 12101M 12117M 12119M 12141M 12156M 12156  12265M 12314M 12400M 12426M 12441M
             12441  12474M 12493M 12502M 12539M 12553M 12553  12586M 12684M 12801M 12803M 12815  12822  12864M 12922M
             12924M 12936  12943  12948M 12949M 12949  12972M 12982M 13066M 13140M 13156M 13156  13189M 13204M 13204
             13237M 13253M 13253  13312M 13314M 13330M 13336M 13356M 13374M 13419M 13420M 13421  13452M 13465M 13471M
             13511M 13695M 13713M 13751M 13769M 13822M 13840M 13897M 13915M 13976M 13994M 14182M 14215M 14233M 14266M
             14284M 14317M 14335M 14368M 14387M 14452M 14453M 14454  14476M 14487M 14509M 14524M 14524  14557M 14575M
             14608M 14738M 14739M 14740  14800M 14884M 14915M 14916M 14981M 14986M 15073M 15078M 15099M 15123M 15137M
             15517M 15577M 15595M 15646M 15685M 15690M 15761M 15776M 15776  15809M 15820M 15842M 15867M 15900M 15925M
             15958M 15983  16004M 16009  16098  16131  16173M 16173  16186  16210M
     1(1)     1024U  6162   6186   6190M  6192   6193   6194M  6195   6235M  6267M  6270M  6284M  6304M  6324M  6600M
              6609M  6624M  6664M  6679M  6682M  6723M  6754M  6872M  6873M  6874   6912M  6924   6932M  6938   7054M
              7077M  7110M  7147M  7178M  7179   7180   7181N  7250M  7253   7258D  7260M  7260   7261M  7262U  7263
              7350M  7350   7351   7353M  7367   7380   7417M  7418M  7419   7572M  7577M  7607M  7610   7615M  7616M
              7617   7649M  7650M  7651   7655M  7656M  7657   7752D  7754M  7754   7755M  7756U  7759M  7760   7763M
              7764M  7765   7934M  7936   7937M  7963M  7964M  7965   7966M  7967M  7968M  7968N  8049M  8050M  8051
              8133M  8158M  8196M  8221M  8234M  8460M  8464M  8622M  8623M  8623   8646M  8669M  8694M  8718M  8720
              8740   8747   8778M  8798M  8803M  8835M  8859M  8884M  8907M  8932M  8958M  8984M  9018M  9044M  9151M
              9159M  9161M  9173   9183   9184   9190M  9242M  9247   9251M  9252M  9253   9263M  9273M  9274M  9274
              9367M  9369M  9376M  9377M  9378   9390M  9395M  9479M  9503M  9533M  9714M  9715M  9716   9759M  9778M
              9792M  9818M  9843M  9875M  9900M  9915M  9941M  9955M  9999M 10024M 10050M 10085M 10191  10203M 10204M
             10204  10258D 10260M 10260  10261M 10262U 10263M 10264  10269M 10270M 10271  10335M 10349M 10354  10357
             10374M 10375M 10375  10485M 10509M 10707  10719M 10720M 10720  10766M 10767M 10790M 10791M 10791  10924M
             10927  10932M 10933M 10934  11139M 11140M 11323M 11429  11432M 11433M 11433  11527M 11528M 11528  11590M
             11606M 11632M 11668M 11684M 11684  11698M 11705M 11734M 11749M 11775M 11786M 11786  11805M 11811M 11817M
             11847M 11872M 11897M 11926M 11955M 11984M 12013M 12042M 12071M 12100M 12116M 12117M 12118M 12119M 12120
             12140M 12163M 12215U 12241M 12243M 12264M 12286M 12290M 12292M 12313M 12336U 12348M 12399M 12416M 12425M
             12448M 12473M 12488M 12501M 12538M 12560M 12585M 12604M 12605  12606  12608  12634M 12635M 12636  12637
             12638M 12639  12662M 12686M 12764M 12765M 12765  12780  12863M 12884M 12885M 12885  12886  12901  12949M
             12950M 12962  12971M 12981M 13044M 13068M 13139M 13145M 13152  13163M 13188M 13211M 13236M 13260M 13293M
             13305  13311  13313M 13314M 13331M 13336M 13355M 13381M 13454M 13455M 13456M 13457  13465M 13466M 13471M
             13510M 13694M 13720M 13750M 13776M 13821M 13847M 13896M 13922M 13970M 13975M 14001M 14054  14075M 14089
             14096M 14105  14123M 14189M 14214M 14240M 14265M 14291M 14316M 14342M 14367M 14382M 14448  14475M 14494M
             14508M 14531M 14556M 14582M 14607M 14649M 14656M 14668  14693M 14694M 14695M 14696  14717M 14718M 14719M
             14720  14729M 14793M 14888M 14888  14900M 14909M 14909  14919M 14919  14962M 14964M 14967  14970  14976
             14978M 14978  14979M 14981M 14982M 14982  14985M 14985  14986  14987M 15054M 15056M 15059  15062  15068
             15070M 15070  15071M 15073M 15074M 15074  15077M 15077  15078  15079M 15102M 15121M 15126M 15126  15137M
             15437M 15456M 15493M 15516M 15561M 15562  15576M 15579  15588M 15614M 15645M 15664M 15670M 15671  15674
             15680  15682M 15682  15683M 15685M 15686M 15686  15689M 15689  15690  15691M 15734M 15760M 15783M 15808M
             15827M 15841M 15874M 15899M 15932M 15957M 16003M 16009M 16185  16372M
     2(2)     1020U  6162   6186M  6609M  6854   6911M  6912   6932   6937M  6982   6986M  6987M  6987   7055M  7078M
              7096M  7096   7117M  7174M  7201   7202M  7203   7211U  7532   7665M  7679   7778M  7792   7935M  7937M
              8072M  8128   8261M  8728M  8728   8778M  8804   8808M  8808   9160M  9241M  9566   9726M  9736   9961M
              9973M  9973  10097M 10113M 10171  10191M 10399M 10406U 10420  10673M 10687  10759M 10760M 10761M 10767
             10815M 10861  10938M 10969  10992D 10994M 10994  10995M 11005M 11005  11023  11058  11065  11121M 11134M
             11140  11239M 11257M 11257  11296M 11313M 11323  11388M 11427  11429M 11516  11549M 11556U 11566  12421M
             12437  12512M 12513M 12514M 12515M 12516  12517M 12533  12605  12708M 12718U 13005U 13090M 13100U 13113U
1         (VFRY21) (09:47) (22MAR04) General Purpose Register Cross Reference                                               Page  131
             13291M 13293N 13314M 13535M 13664  14035M 14054  14098M 14123M 14135  14408M 14428  14448M 14744M 14764
             14815M 14825  14929M 15000U 15021M 15092U 15104M 15115M 15115  15121  15122M 15137M 15414  15475M 15539U
             15756M 15772  15977M 15983M 15986M 15988  16098M 16101M 16103  16131M 16134M 16136  16183  16185M 16186M
             16187M 16209M 16232M 16247M 16257M 16265M 16275M 16288M 16344M 16372
     3(3)     1016U  6162   6609M  6854   6877M  6878M  6878   6906U  6937   6945U  6982M  7000   7105   7117M  7143M
              7158   7170U  7173M  7181   7200M  7217U  7424M  7435M  7435   7449   7484   7491   7532   7665M  7679
              7778M  7792   7936M  7937M  8072M  8128   8261M  8719M  8720M  8740   8746   8814M  8842   8896   8970
              9122M  9122   9131M  9183M  9230   9247M  9566   9686M  9699   9717M  9726M  9736   9962M 10096M 10113M
             10171  10399M 10420  10447M 10459  10465  10673M 10687  10761M 10762M 10765  10815M 10861  10938M 10969
             11121M 11134M 11135M 11138  11191M 11193  11427  11549M 11566  12725M 12726M 12726  12752  12780M 12792
             12801  12830M 12831M 12831  12853  12880  12901M 12913  12922  13106M 13126  13200  13292M 13293  13313
             13314M 13331  13453M 13457M 13466  13483M 13535M 13664  14035M 14054  14097M 14123M 14135  14164U 14403U
             14408M 14428  14627M 14628M 14628  14647U 14692  14716  14744M 14751U 14764  14815M 14825  15137M 15414
             15977M 16303D 16305M 16305  16306M 16307U 16318M 16318  16344N 16347D 16349M 16349  16350M 16351U 16366M
             16366
     4(4)     1012U  6162   6609M  6854   7117M  7532   7665M  7679   7778M  7792   8072M  8128   8261M  9147M  9148M
              9149M  9173   9184M  9190   9307M  9321   9368   9372M  9396M  9410   9566   9687M  9699   9726M  9736
             10113M 10171  10225M 10226M 10399M 10420  10673M 10687  10764M 10765M 10769  10815M 10861  10938M 10969
             11121M 11137M 11138M 11142  11191  11192M 11193M 11195  11427  11549M 11566  13014M 13031  13535M 13664
             14035M 14054  14123M 14135  14408M 14428  14654M 14655M 14656  14682M 14682  14688M 14689  14690  14691
             14692N 14696N 14712M 14713  14714  14715  14716N 14720N 14744M 14764  14815M 14825  15137M 15414  15977M
     5(5)     1008U  6162   6609M  6854   7117M  7532   7665M  7679   7778M  7792   8072M  8128   8261M  8746M  8747M
              8750   8762M  8769M  8771   8798   9566   9726M  9736  10113M 10171  10399M 10420  10673M 10687  10707M
             10715U 10815M 10822U 10861  10938M 10969  11121M 11427  11549M 11566  13018M 13018  13031  13367  13424M
             13535M 13664  14035M 14054  14123M 14135  14408M 14428  14744M 14764  14815M 14825  15137M 15414  15977M
     6(6)     1004U  6162   6174M  6182U  6609M  6854   7117M  7532   7665M  7679   7778M  7792   8072M  8128   8261M
              9566   9726M  9736  10113M 10171  10399M 10420  10673M 10687  10815M 10861  10938M 10969  11121M 11427
             11549M 11566  13535M 13577U 13664  13681M 13689U 14035M 14054  14123M 14135  14408M 14428  14744M 14764
             14815M 14825  15137M 15414  15434M 15977M 16454U
     7(7)     1000U  6162   6163M  6171U  6207U  6609M  6854   7117M  7532   7665M  7679   7778M  7792   8072M  8128
              8261M  8311M  8323U  9549U  9566   9571M  9581U  9726M  9736   9741M  9751U  9754U 10113M 10171  10176M
             10186U 10189U 10399M 10420  10425M 10435U 10438U 10673M 10687  10692M 10702U 10705U 10815M 10861  10866M
             10876U 10879U 10938M 10969  10974M 10984U 10987U 11121M 11427  11549M 11566  11571M 11581U 11584U 13535M
             13572U 13664  13669M 13679U 14035M 14054  14059M 14069U 14072U 14123M 14135  14140M 14150U 14153U 14408M
             14428  14433M 14443U 14446U 14744M 14764  14769M 14779U 14782U 14815M 14825  14830M 14840U 14843U 15137M
             15414  15419M 15429U 15432U 15977M 16449U
     8(8)      996U  6162   6609M  6854   7117M  7532   7665M  7679   7778M  7792   8072M  8128   8261M  9566   9567M
              9725   9726M  9736   9737M 10112  10113M 10171  10172M 10398  10399M 10420  10421M 10672  10673M 10687
             10688M 10814  10815M 10861  10862M 10937  10938M 10969  10970M 11120  11121M 11427  11549M 11566  11567M
             13534  13535M 13664  13665M 14034  14035M 14054  14055M 14122  14123M 14135  14136M 14407  14408M 14428
             14429M 14743  14744M 14764  14765M 14814  14815M 14825  14826M 15137M 15414  15415M 15976  15977M
     9(9)      992U  6162   6199M  6200M  6200B  6239M  6240M  6240B  6243M  6244M  6244B  6288M  6289M  6289B  6292M
              6293M  6293B  6308M  6309M  6309B  6312M  6313M  6313B  6328M  6329M  6329B  6332M  6333M  6333B  6609M
              6628M  6629M  6629B  6632M  6633M  6633B  6650M  6651M  6651B  6668M  6669M  6669B  6673M  6674M  6674B
              6711B  6721   6733M  6734M  6734B  6778M  6779B  6790M  6791M  6791B  6847B  6854   6868M  6892M  6931M
              7113M  7114M  7114B  7117M  7118B  7143   7151M  7152M  7152B  7156M  7157M  7157B  7158M  7204B  7232
              7456M  7509M  7511B  7532   7644M  7645M  7645B  7665M  7666B  7679   7710M  7711M  7711B  7729M  7731M
              7748M  7778M  7779B  7792   7796M  7797M  7797B  7836M  7838M  7876M  7927M  7928M  7928B  7985M  7986M
              7986B  8012M  8014M  8032M  8072M  8073B  8094B  8121B  8128   8137M  8138M  8138B  8162M  8163M  8163B
              8200M  8201M  8201B  8225M  8226M  8226B  8238M  8239M  8239B  8243M  8244M  8244B  8261M  8262B  8339M
              8371M  8402M  8420M  8433M  8434M  8434B  8480M  8512M  8543M  8561M  8601M  8602M  8602B  8608M  8609M
              8609B  8614M  8615M  8615B  8618M  8619M  8619B  8640M  8641M  8641B  8650M  8651M  8651B  8689M  8690M
              8690B  8698M  8699M  8699B  8703M  8704M  8704B  8839M  8840M  8840B  8879M  8880M  8880B  8888M  8889M
              8889B  8927M  8928M  8928B  8936M  8937M  8937B  8962M  8963M  8963B  9004M  9005M  9005B  9013M  9014M
              9014B  9022M  9023M  9023B  9064M  9065M  9065B  9069M  9070M  9070B  9181M  9182M  9182B  9193M  9194M
              9194B  9240M  9245M  9246M  9246B  9289M  9290M  9290B  9371M  9449M  9483M  9484M  9484B  9507M  9508M
              9508B  9516M  9517M  9517B  9537M  9538M  9538B  9541M  9542M  9542B  9566   9676M  9677M  9677B  9709M
              9710M  9710B  9726M  9727B  9736   9763M  9764M  9764B  9768M  9769M  9769B  9787M  9788M  9788B  9796M
              9797M  9797B  9838M  9839M  9839B  9847M  9848M  9848B  9895M  9896M  9896B  9904M  9905M  9905B  9925M
1         (VFRY21) (09:47) (22MAR04) General Purpose Register Cross Reference                                               Page  132
              9926M  9926B  9930M  9931M  9931B  9950M  9951M  9951B  9959M  9960M  9960B 10019M 10020M 10020B 10028M
             10029M 10029B 10070M 10071M 10071B 10075M 10076M 10076B 10094M 10095M 10095B 10106M 10107M 10107B 10113M
             10114B 10171  10219M 10220M 10220B 10369M 10370M 10370B 10390M 10391M 10391B 10399M 10400B 10420  10476M
             10477M 10477B 10488M 10489M 10489B 10537M 10538M 10538B 10583M 10617M 10656M 10673M 10674B 10687  10735M
             10736M 10736B 10806M 10807M 10807B 10815M 10816B 10861  10938M 10939B 10969  11031M 11087M 11105M 11121M
             11122B 11132  11169M 11216M 11217B 11227  11340M 11372M 11416M 11417B 11427  11447M 11542M 11549M 11550B
             11566  11677M 11678M 11678B 11693M 11694M 11694B 11702M 11703M 11703B 11724M 11725M 11725B 11743M 11744M
             11744B 11753M 11754M 11754B 11757M 11758M 11758B 11779M 11780M 11780B 11795M 11796M 11796B 11809M 11810M
             11810B 11831M 11832M 11832B 11836M 11837M 11837B 11841M 11842M 11842B 11851M 11852M 11852B 11876M 11877M
             11877B 11901M 11902M 11902B 11930M 11931M 11931B 11959M 11960M 11960B 11988M 11989M 11989B 12017M 12018M
             12018B 12046M 12047M 12047B 12075M 12076M 12076B 12104M 12105M 12105B 12113M 12114M 12114B 12144M 12145M
             12145B 12183M 12184M 12184B 12188M 12189M 12189B 12237M 12238M 12238B 12268M 12269M 12269B 12272M 12273M
             12273B 12317M 12318M 12318B 12321M 12322M 12322B 12379M 12380M 12380B 12403M 12404M 12404B 12407M 12408M
             12408B 12419M 12420M 12420B 12429M 12430M 12430B 12468M 12469M 12469B 12477M 12478M 12478B 12496M 12497M
             12497B 12505M 12506M 12506B 12510M 12511M 12511B 12542M 12543M 12543B 12580M 12581M 12581B 12589M 12590M
             12590B 12594M 12595M 12595B 12665M 12666M 12666B 12867M 12868M 12868B 12871M 12872M 12872B 12975M 12976M
             12976B 12985M 12986M 12986B 12989M 12990M 12990B 12994M 13047M 13048M 13048B 13135M 13143M 13144M 13144B
             13183M 13184M 13184B 13192M 13193M 13193B 13231M 13232M 13232B 13240M 13241M 13241B 13280M 13281M 13281B
             13285M 13286M 13286B 13351M 13359M 13360M 13360B 13401M 13402M 13402B 13406M 13407M 13407B 13505M 13514M
             13515M 13515B 13518M 13519M 13519B 13535M 13536B 13664  13698M 13699M 13699B 13740M 13741M 13741B 13745M
             13746M 13746B 13754M 13755M 13755B 13796M 13797M 13797B 13801M 13802M 13802B 13825M 13826M 13826B 13867M
             13868M 13868B 13872M 13873M 13873B 13900M 13901M 13901B 13942M 13943M 13943B 13947M 13948M 13948B 13979M
             13980M 13980B 14021M 14022M 14022B 14026M 14027M 14027B 14035M 14036B 14054  14123M 14124B 14135  14209M
             14210M 14210B 14218M 14219M 14219B 14260M 14261M 14261B 14269M 14270M 14270B 14311M 14312M 14312B 14320M
             14321M 14321B 14362M 14363M 14363B 14371M 14372M 14372B 14390M 14391M 14391B 14395M 14396M 14396B 14408M
             14409B 14428  14479M 14480M 14480B 14484M 14485M 14485B 14503M 14504M 14504B 14512M 14513M 14513B 14551M
             14552M 14552B 14560M 14561M 14561B 14602M 14603M 14603B 14611M 14612M 14612B 14616M 14617M 14617B 14652M
             14653M 14653B 14732M 14733M 14733B 14744M 14745B 14764  14803M 14804M 14804B 14808M 14809M 14809B 14815M
             14816B 14825  14897M 14898M 14898B 15137M 15414  15440M 15441M 15441B 15459M 15460M 15460B 15520M 15521M
             15521B 15525M 15526M 15526B 15649M 15650M 15650B 15654M 15655M 15655B 15764M 15765M 15765B 15803M 15804M
             15804B 15812M 15813M 15813B 15817M 15818M 15818B 15836M 15837M 15837B 15845M 15846M 15846B 15894M 15895M
             15895B 15903M 15904M 15904B 15952M 15953M 15953B 15961M 15962M 15962B 15966M 15967M 15967B 15977M 15979B
             16007M 16008M 16008B 16176B 16233B 16392B
    10(A)      988U  6137U  6162   6609M  6723  10485  12640M 12662  13044  13563U 15137M
    11(B)      984U  3871B  3872B  6146U  6162   6609M  7534M  7571   7935   7938M  8045M 10554M 13558U 15137M
    12(C)      980U  6155U  6162   6609M  7247M  7288U  7291U  7334U  7337U  7510M  7510   7518M  7518  13553U 15137M
    13(D)      976U  6185   6193M  6608M  6721   6722M  6722   6777M  6778   6854   6855M  6855   7116M  7117   7232
              7233M  7233   7508M  7509   7532   7533M  7533   7664M  7665   7679   7680M  7680   7777M  7778   7792
              7793M  7793   8071M  8072   8128   8129M  8129   8260M  8261   9566   9567   9568M  9568   9725M  9726
              9736   9737   9738M  9738  10112M 10113  10171  10172  10173M 10173  10398M 10399  10420  10421  10422M
             10422  10672M 10673  10687  10688  10689M 10689  10814M 10815  10861  10862  10863M 10863  10937M 10938
             10969  10970  10971M 10971  11120M 11121  11132  11133M 11133  11215M 11216  11227  11228M 11228  11415M
             11416  11427  11428M 11428  11548M 11549  11566  11567  11568M 11568  13534M 13535  13664  13665  13666M
             13666  14034M 14035  14054  14055  14056M 14056  14122M 14123  14135  14136  14137M 14137  14407M 14408
             14428  14429  14430M 14430  14466  14568  14743M 14744  14764  14765  14766M 14766  14814M 14815  14825
             14826  14827M 14827  15098M 15102  15134M 15414  15415  15416M 15416  15976M 15977  16183  16184M 16184
             16231M 16232
    14(E)      972U  6162   6395B  6419B  6434B  6449B  6470B  6492B  6507B  6522B  6537B  6552B  6566B  6580B  6594B
              6609M  6611B  7254M  7577M  7611M  8672M  8673M  8673B  8862M  8863M  8863B  8910M  8911M  8911B  8987M
              8988M  8988B  9047M  9048M  9048B  9159M  9365M  9369M  9395M  9821M  9822M  9822B  9878M  9879M  9879B
             10002M 10003M 10003B 10053M 10054M 10054B 10928M 11625M 11626M 11626B 11639M 11640M 11640B 11709M 11710M
             11710B 12166M 12167M 12167B 12451M 12452M 12452B 12563M 12564M 12564B 12607M 12608  13166M 13167M 13167B
             13214M 13215M 13215B 13263M 13264M 13264B 13336M 13384M 13385M 13385B 13465M 13471M 13723M 13724M 13724B
             13779M 13780M 13780B 13850M 13851M 13851B 13925M 13926M 13926B 14004M 14005M 14005B 14192M 14193M 14193B
             14243M 14244M 14244B 14294M 14295M 14295B 14345M 14346M 14346B 14534M 14535M 14535B 14585M 14586M 14586B
             14971M 14972M 14972  14977M 14977  14980M 14981  15063M 15064M 15064  15069M 15069  15072M 15073  15136M
             15138B 15580M 15605M 15606M 15606B 15621M 15622M 15622B 15675M 15676M 15676  15681M 15681  15684M 15685
             15786M 15787M 15787B 15877M 15878M 15878B 15935M 15936M 15936B 16079B 16127B 16156B
    15(F)      968U  4333M  4333   6162   6163   6609M  6610M  6693   6706   6866M  7191M  7191   7246M  7251   7252M
1         (VFRY21) (09:47) (22MAR04) General Purpose Register Cross Reference                                               Page  133
              7252   7253M  7254B  7374M  7576M  7576   7577M  7609M  7609   7610M  7611B  8658M  8841M  8842M  8896M
              8970M  9030M  9154D  9156M  9156   9157M  9158U  9159M  9330M  9340U  9357U  9366M  9367   9369M  9394M
              9394   9395M  9419M  9429U  9446U  9804M  9857D  9859M  9859   9860M  9861U  9985M 10036M 10926M 10926
             10927M 10928B 11622M 11706M 12152M 12389M 12389  12437M 12533M 12534M 12618M 12618  12992M 13133M 13152M
             13200M 13242M 13243M 13335M 13335  13336M 13349M 13367M 13460D 13462M 13462  13463M 13464U 13465M 13470M
             13470  13471M 13503M 13706M 13762M 13805M 13806M 13806  13833M 13880M 13881M 13881  13908M 13987M 14175M
             14226M 14277M 14328M 14520M 14568M 14878M 14969M 14969  14970M 14971  14974  14979  14980  14983  14987
             15061M 15061  15062M 15063  15066  15071  15072  15075  15079  15135M 15527M 15578M 15578  15579M 15580B
             15602M 15656M 15673M 15673  15674M 15675  15678  15683  15684  15687  15691  15746M 15746  15756  15772M
             15850D 15852M 15852  15853M 15854U 15908D 15910M 15910  15911M 15912U 15968M 15978M 15978  16357M 16376M
             16376  16391M 16391

1VFRY     (VFRY21) (09:47) (22MAR04) Diagnostic Cross Reference and Assembler Summary                                       Page  134
-                                                                                            HLASM R4.0  2004/03/22 09.47
0     No Statements Flagged in this Assembly
 HIGH LEVEL ASSEMBLER, 5696-234, RELEASE 4.0, PTF UQ57391
0SYSTEM: OS/390 02.10.00            JOBNAME: PJG#VFRY    STEPNAME: ASM        PROCSTEP: (NOPROC)
0Datasets Allocated for this Assembly
  Con DDname   Dataset Name                                 Volume  Member
   P1 SYSIN    SYS04082.T094726.RA000.PJG#VFRY.INPUT.H01    SCR101
   L1 SYSLIB   SYS3.DUMMYMAC                                SYSB02
   L2          WYL.GG.SYS.MACLIB                            SYSB05
   L3          WYL.GG.ORV.BC.MACLIB                         SYSB02
   L4          WYL.GG.ORV.MACLIB                            SYSB02
   L5          SYS1.MACLIB                                  MVSBR9
   L6          SYS3.IS.MACLIB                               SYSB05
   L7          SYS3.MACLIB                                  SYSB02
      SYSLIN   WYL.GG.PJG.OBJ                               SYSB05  VFRY
      SYSPRINT SYS04082.T094726.RA000.PJG#VFRY.PRINT.H01    SCR100
      SYSTERM  GG$PJG.PJG#VFRY.JOB05982.D0000103.?

    7812K allocated to Buffer Pool,         4001K would be required for this to be an In-Storage Assembly
    2275 Primary Input Records Read        21938 Library Records Read                  0 Work File Reads
       0 ASMAOPT Records Read               8427 Primary Print Records Written         0 Work File Writes
     298 Punch Records Written                 0 ADATA Records Written
0Assembly Start Time: 09.47.29 Stop Time: 09.47.36 Processor Time: 00.00.03.2192
 Return Code 000
