1                        J E S 2  J O B  L O G  --  S Y S T E M  S Y S B  --  N O D E  R L G
0
 09.47.46 JOB05984 ---- MONDAY,    22 MAR 2004 ----
 09.47.46 JOB05984  ICH70001I GG$PJG   LAST ACCESS AT 09:47:38 ON MONDAY, MARCH 22, 2004
 09.47.46 JOB05984  $HASP373 PJG#VGP  STARTED - INIT 2    - CLASS E - SYS SYSB
 09.47.46 JOB05984  ***  HCMD      STEP $$QUIET
 09.47.46 JOB05984  PURGE * Q=OUTPUT MULTIPLE
 09.47.46 JOB05984  JOB PJG#VGP NOT IN OUTPUT QUEUE
 09.47.47 JOB05984  PJG#VGP .$$QUIET .         RC=0008 TapeIO=0000 DiskIO=0000 CPU=  .01s Elapsed=66.27s
 09.47.47 JOB05984  PJG#VGP .$CND    .         RC=Zero TapeIO=0000 DiskIO=0002 CPU=  .01s Elapsed=67.31s
 09.47.47 JOB05984  PJG#VGP .$UNP    .         RC=Zero TapeIO=0000 DiskIO=0025 CPU=  .05s Elapsed=67.44s
 09.47.52 JOB05984  PJG#VGP .ASM     .         RC=Zero TapeIO=0000 DiskIO=0417 CPU= 2.73s Elapsed=67.66s
 09.47.53 JOB05984  PJG#VGP .$EDIT   .         RC=Zero TapeIO=0000 DiskIO=0148 CPU=  .54s Elapsed=72.46s
 09.47.53 JOB05984  PJG#VGP  Ended.  Name=Module: VGP                    Total CPU= 3.34s Elapsed=66.27s
 09.47.53 JOB05984
 09.47.53 JOB05984  Execution charges   Priority=Standard   Block=Day
 09.47.53 JOB05984
 09.47.53 JOB05984  CPU Usage          61.50          $38.13   Standard Processing Unit Equivalent
 09.47.53 JOB05984                                   =======
 09.47.53 JOB05984                                    $38.13   Total Job execution charge
 09.47.53 JOB05984
 09.47.53 JOB05984  See back separator page for print charges
 09.47.53 JOB05984
 09.47.53 JOB05984  $HASP395 PJG#VGP  ENDED  ASM=0
1        1 //PJG#VGP  JOB PJG$GG,'Module: VGP',TIME=1,MSGCLASS=C                   JOB05984
           /*JOBPARM HOLD=OUTPUT,LINES=50,CHARS=TN15,NOTIFY=YES
         2 //       EXEC PURGEOLD
         3 XXPURGEOLD PROC
           XX*
           XX* This proc is maintained by Jim Stosick
           XX*
         4 XX$$QUIET  EXEC PGM=HCMDX,PARM='PURGE * Q=OUTPUT MULTIPLE',
           XX         ACCT=(PURGEOLD,SYS3)
         5 //$CND   EXEC PGM=BILBO,REGION=512K,PARM='RECS=100'
         6 //STEPLIB  DD DSN=WYL.GG.ORV.LINKLIB,DISP=SHR
         7 //SYSPRINT DD SYSOUT=$
         8 //SYSUT1   DD DSN=WYL.GG.PJG.OBJ,DISP=OLD
         9 //SYSUT2   DD DSN=WYL.GG.PJG.OBJ,DISP=OLD
        10 //SYSIN    DD DUMMY
        11 //$UNP   EXEC PGM=WUNPRESS,PARM='NUM'
        12 //SYSPRINT DD SYSOUT=$
        13 //SYSUT1   DD DSN=WYL.GG.ORV.SOURCE(VGP),DISP=SHR
        14 //SYSUT2   DD DSN=&&INPUT,DISP=(,PASS),UNIT=SYSDA,
           //            SPACE=(TRK,(25,25),RLSE),DCB=CARD
        15 //ASM    EXEC PGM=ASMA90,REGION=8M,COND=(0,NE,$UNP),
           //            PARM=('SYSPARM(VGP),TERM,LANG(EN),OBJ',
           //          'LC(32500),XREF(SHORT),NODECK,NORLD,NODX,NOUS')
           //*STEPLIB  DD DSN=SYS1.SASMMOD1,DISP=SHR
        16 //SYSLIB   DD DSN=SYS3.DUMMYMAC,DISP=SHR,DCB=BLKSIZE=27920
        17 //         DD DSN=WYL.GG.SYS.MACLIB,DISP=SHR
        18 //         DD DSN=WYL.GG.ORV.BC.MACLIB,DISP=SHR
        19 //         DD DSN=WYL.GG.ORV.MACLIB,DISP=SHR
        20 //         DD DSN=SYS3.IS.MACLIB,DISP=SHR
        21 //SYSUT1   DD DSN=&&SYSUT1,UNIT=VIO,DISP=(,DELETE),
           //            SPACE=(4088,(500,250),,CONTIG,ROUND)
        22 //SYSTERM  DD SYSOUT=$
        23 //SYSPRINT DD DSN=&&PRINT,UNIT=SYSDA,DISP=(,PASS),
           //            SPACE=(6650,(250,250),RLSE),
           //            DCB=(BLKSIZE=6650,LRECL=133,RECFM=FB)
        24 //SYSLIN   DD DSN=WYL.GG.PJG.OBJ(VGP),DISP=OLD
        25 //SYSUDUMP DD SYSOUT=A
        26 //SYSIN    DD DSN=&&INPUT,DISP=(OLD,DELETE)
        27 //$EDIT  EXEC PGM=ASMEDIT,REGION=1M,
           //            COND=EVEN,PARM='STMT,DATA'
        28 //STEPLIB  DD DSN=WYL.GG.SYS.LINKLIB,DISP=SHR
        29 //ASMOUT   DD DSN=&&PRINT,DISP=(OLD,DELETE)
        30 //SYSPRINT DD SYSOUT=A
        31 //SYSUDUMP DD SYSOUT=A
1 STMT NO. MESSAGE
         2 IEFC001I PROCEDURE PURGEOLD WAS EXPANDED USING SYSTEM LIBRARY SYS3.BETAPROC
        14 IGD01010I STORCLAS= TEMP STORGROUP =
        14 IGD01010I STORGRP=VIO ASSIGNED.
        21 IGD01010I STORCLAS= TEMP STORGROUP =
        21 IGD01010I STORGRP=VIO ASSIGNED.
        23 IGD01010I STORCLAS= TEMP STORGROUP =
        23 IGD01010I STORGRP=VIO ASSIGNED.
 ICH70001I GG$PJG   LAST ACCESS AT 09:47:38 ON MONDAY, MARCH 22, 2004
 IEF142I PJG#VGP $$QUIET - STEP WAS EXECUTED - COND CODE 0008
 *********************************************************************************
 *   PJG#VGP /$$QUIET /                    Return Code      0008                 *
 *   Region used      260K (16K user + 244K system)                              *
 *   Extended region  9352K (4K user + 9348K system)                             *
 *                                                                               *
 *   Paging              In      Out                                             *
 *   Private <-> Aux      0        0       CPU time (TCB)   00:00:00.01          *
 *   Private <-> Exp      0        0       CPU time (SRB)   00:00:00.00          *
 *   VIO                  0        0       Elapsed time    920:40:06.69          *
 *   Common               0      ---                                             *
 *                                                                               *
 *                                                                               *
 *   CPU Usage          0.18         $0.11  Standard Processing Unit Equivalent  *
 *                                   $0.11  Total Step execution charge          *
 *                                                                               *
 *    I/O count  DDname   Type Addr           I/O count  DDname   Type Addr      *
 *                         *** No I/O for this step ***                          *
 *********************************************************************************
 IEF373I STEP/$$QUIET /START 2004082.0947
 IEF374I STEP/$$QUIET /STOP  2004082.0947 CPU    0MIN 00.01SEC SRB    0MIN 00.00SEC VIRT    16K SYS   244K EXT       4K SYS    9348K
 IEF236I ALLOC. FOR PJG#VGP $CND
 IEF237I 0401 ALLOCATED TO STEPLIB
 IEF237I JES2 ALLOCATED TO SYSPRINT
 IEF237I 04DC ALLOCATED TO SYSUT1
 IEF237I 04DC ALLOCATED TO SYSUT2
 IEF237I DMY  ALLOCATED TO SYSIN
 IEF142I PJG#VGP $CND - STEP WAS EXECUTED - COND CODE 0000
 IEF285I   WYL.GG.ORV.LINKLIB                           KEPT
 IEF285I   VOL SER NOS= SYSB01.
 IEF285I   GG$PJG.PJG#VGP.JOB05984.D0000101.?           SYSOUT
 IEF285I   WYL.GG.PJG.OBJ                               KEPT
 IEF285I   VOL SER NOS= SYSB05.
 IEF285I   WYL.GG.PJG.OBJ                               KEPT
 IEF285I   VOL SER NOS= SYSB05.
 *********************************************************************************
 *   PJG#VGP /$CND    /                    Return Code      Zero                 *
 *   Region used      280K (16K user + 264K system)                              *
 *   Extended region  9392K (4K user + 9388K system)                             *
 *                                                                               *
 *   Paging              In      Out                                             *
 *   Private <-> Aux      0        0       CPU time (TCB)   00:00:00.01          *
 *   Private <-> Exp      0        0       CPU time (SRB)   00:00:00.00          *
 *   VIO                  0        0       Elapsed time    920:40:05.65          *
 *   Common               0      ---                                             *
 *                                                                               *
 *                                                                               *
 *   CPU Usage          0.18         $0.11  Standard Processing Unit Equivalent  *
 *                                   $0.11  Total Step execution charge          *
 *                                                                               *
 *    I/O count  DDname   Type Addr           I/O count  DDname   Type Addr      *
 *            2  STEPLIB  Disk 0401                   0  SYSPRINT      ----      *
 *            0  SYSUT1   Disk 04DC                   0  SYSUT2   Disk 04DC      *
 *            0  SYSIN         ----                                              *
 *********************************************************************************
 IEF373I STEP/$CND    /START 2004082.0947
 IEF374I STEP/$CND    /STOP  2004082.0947 CPU    0MIN 00.01SEC SRB    0MIN 00.00SEC VIRT    16K SYS   264K EXT       4K SYS    9388K
 IEF236I ALLOC. FOR PJG#VGP $UNP
 IEF237I JES2 ALLOCATED TO SYSPRINT
 IEF237I 0402 ALLOCATED TO SYSUT1
 IGD101I SMS ALLOCATED TO DDNAME (SYSUT2  )
         DSN (SYS04082.T094746.RA000.PJG#VGP.INPUT.H01    )
         STORCLAS (TEMP) MGMTCLAS (        ) DATACLAS (        )
         VOL SER NOS= SCR100
 IEF142I PJG#VGP $UNP - STEP WAS EXECUTED - COND CODE 0000
 IEF285I   GG$PJG.PJG#VGP.JOB05984.D0000102.?           SYSOUT
 IEF285I   WYL.GG.ORV.SOURCE                            KEPT
 IEF285I   VOL SER NOS= SYSB02.
 IGD106I SYS04082.T094746.RA000.PJG#VGP.INPUT.H01     PASSED,    DDNAME=SYSUT2
 *********************************************************************************
 *   PJG#VGP /$UNP    /                    Return Code      Zero                 *
 *   Region used      388K (108K user + 280K system)                             *
 *   Extended region  9468K (4K user + 9464K system)                             *
 *                                                                               *
 *   Paging              In      Out                                             *
 *   Private <-> Aux      0        0       CPU time (TCB)   00:00:00.05          *
 *   Private <-> Exp      0        0       CPU time (SRB)   00:00:00.00          *
 *   VIO                  0        0       Elapsed time    920:40:05.52          *
 *   Common               0      ---                                             *
 *                                                                               *
 *                                                                               *
 *   CPU Usage          0.93         $0.57  Standard Processing Unit Equivalent  *
 *                                   $0.57  Total Step execution charge          *
 *                                                                               *
 *    I/O count  DDname   Type Addr           I/O count  DDname   Type Addr      *
 *            0  SYSPRINT      ----                   3  SYSUT1   Disk 0402      *
 *           22  SYSUT2   Disk 038B                                              *
 *********************************************************************************
 IEF373I STEP/$UNP    /START 2004082.0947
 IEF374I STEP/$UNP    /STOP  2004082.0947 CPU    0MIN 00.05SEC SRB    0MIN 00.00SEC VIRT   108K SYS   280K EXT       4K SYS    9464K
 IEF236I ALLOC. FOR PJG#VGP ASM
 IEF237I 0402 ALLOCATED TO SYSLIB
 IEF237I 04DC ALLOCATED TO
 IEF237I 0402 ALLOCATED TO
 IEF237I 0402 ALLOCATED TO
 IEF237I 04DC ALLOCATED TO
 IGD101I SMS ALLOCATED TO DDNAME (SYSUT1  )
         DSN (SYS04082.T094746.RA000.PJG#VGP.SYSUT1.H01   )
         STORCLAS (TEMP) MGMTCLAS (        ) DATACLAS (        )
         VOL SER NOS= VIO
 IEF237I JES2 ALLOCATED TO SYSTERM
 IGD101I SMS ALLOCATED TO DDNAME (SYSPRINT)
         DSN (SYS04082.T094746.RA000.PJG#VGP.PRINT.H01    )
         STORCLAS (TEMP) MGMTCLAS (        ) DATACLAS (        )
         VOL SER NOS= SCR101
 IEF237I 04DC ALLOCATED TO SYSLIN
 IEF237I JES2 ALLOCATED TO SYSUDUMP
 IGD103I SMS ALLOCATED TO DDNAME SYSIN
 IEF142I PJG#VGP ASM - STEP WAS EXECUTED - COND CODE 0000
 IEF285I   SYS3.DUMMYMAC                                KEPT
 IEF285I   VOL SER NOS= SYSB02.
 IEF285I   WYL.GG.SYS.MACLIB                            KEPT
 IEF285I   VOL SER NOS= SYSB05.
 IEF285I   WYL.GG.ORV.BC.MACLIB                         KEPT
 IEF285I   VOL SER NOS= SYSB02.
 IEF285I   WYL.GG.ORV.MACLIB                            KEPT
 IEF285I   VOL SER NOS= SYSB02.
 IEF285I   SYS3.IS.MACLIB                               KEPT
 IEF285I   VOL SER NOS= SYSB05.
 IGD105I SYS04082.T094746.RA000.PJG#VGP.SYSUT1.H01    DELETED,   DDNAME=SYSUT1
 IEF285I   GG$PJG.PJG#VGP.JOB05984.D0000103.?           SYSOUT
 IGD106I SYS04082.T094746.RA000.PJG#VGP.PRINT.H01     PASSED,    DDNAME=SYSPRINT
 IEF285I   WYL.GG.PJG.OBJ                               KEPT
 IEF285I   VOL SER NOS= SYSB05.
 IEF285I   GG$PJG.PJG#VGP.JOB05984.D0000104.?           SYSOUT
 IGD105I SYS04082.T094746.RA000.PJG#VGP.INPUT.H01     DELETED,   DDNAME=SYSIN
 *********************************************************************************
 *   PJG#VGP /ASM     /                    Return Code      Zero                 *
 *   Region used      8484K (8192K user + 292K system)                           *
 *   Extended region  9952K (412K user + 9540K system)                           *
 *                                                                               *
 *   Paging              In      Out                                             *
 *   Private <-> Aux      0        0       CPU time (TCB)   00:00:02.68          *
 *   Private <-> Exp      0        0       CPU time (SRB)   00:00:00.05          *
 *   VIO                  0        0       Elapsed time    920:40:05.30          *
 *   Common               0      ---                                             *
 *                                                                               *
 *                                                                               *
 *   CPU Usage         50.25        $31.15  Standard Processing Unit Equivalent  *
 *                                  $31.15  Total Step execution charge          *
 *                                                                               *
 *    I/O count  DDname   Type Addr           I/O count  DDname   Type Addr      *
 *           92  SYSLIB   Disk 0402                 151  SYSLIB   Disk 04DC      *
 *            0  SYSLIB   Disk 0402                   0  SYSLIB   Disk 0402      *
 *            0  SYSLIB   Disk 04DC                   0  SYSUT1   VIO  ----      *
 *            0  SYSTERM       ----                 145  SYSPRINT Disk 04E3      *
 *            6  SYSLIN   Disk 04DC                   0  SYSUDUMP      ----      *
 *           23  SYSIN    Disk 038B                                              *
 *********************************************************************************
 IEF373I STEP/ASM     /START 2004082.0947
 IEF374I STEP/ASM     /STOP  2004082.0947 CPU    0MIN 02.68SEC SRB    0MIN 00.05SEC VIRT  8192K SYS   292K EXT     412K SYS    9540K
 IEF236I ALLOC. FOR PJG#VGP $EDIT
 IEF237I 0402 ALLOCATED TO STEPLIB
 IGD103I SMS ALLOCATED TO DDNAME ASMOUT
 IEF237I JES2 ALLOCATED TO SYSPRINT
 IEF237I JES2 ALLOCATED TO SYSUDUMP
 IEF142I PJG#VGP $EDIT - STEP WAS EXECUTED - COND CODE 0000
 IEF285I   WYL.GG.SYS.LINKLIB                           KEPT
 IEF285I   VOL SER NOS= SYSB02.
 IGD105I SYS04082.T094746.RA000.PJG#VGP.PRINT.H01     DELETED,   DDNAME=ASMOUT
 IEF285I   GG$PJG.PJG#VGP.JOB05984.D0000105.?           SYSOUT
 IEF285I   GG$PJG.PJG#VGP.JOB05984.D0000106.?           SYSOUT
 *********************************************************************************
 *   PJG#VGP /$EDIT   /                    Return Code      Zero                 *
 *   Region used      388K (116K user + 272K system)                             *
 *   Extended region  9472K (4K user + 9468K system)                             *
 *                                                                               *
 *   Paging              In      Out                                             *
 *   Private <-> Aux      0        0       CPU time (TCB)   00:00:00.53          *
 *   Private <-> Exp      0        0       CPU time (SRB)   00:00:00.01          *
 *   VIO                  0        0       Elapsed time    920:40:00.50          *
 *   Common               0      ---                                             *
 *                                                                               *
 *                                                                               *
 *   CPU Usage          9.93         $6.15  Standard Processing Unit Equivalent  *
 *                                   $6.15  Total Step execution charge          *
 *                                                                               *
 *    I/O count  DDname   Type Addr           I/O count  DDname   Type Addr      *
 *            2  STEPLIB  Disk 0402                 146  ASMOUT   Disk 04E3      *
 *            0  SYSPRINT      ----                   0  SYSUDUMP      ----      *
 *********************************************************************************
 IEF373I STEP/$EDIT   /START 2004082.0947
 IEF374I STEP/$EDIT   /STOP  2004082.0947 CPU    0MIN 00.53SEC SRB    0MIN 00.01SEC VIRT   116K SYS   272K EXT       4K SYS    9468K
 *********************************************************************************
 *                                                                               *
 *                      S t a n f o r d   U n i v e r s i t y                    *
 *                                                                               *
 *                              *** Job Summary ***                              *
 *                                                                               *
 *   System Id      SYSB                   Input time     09:38:37  Mar 22, 2004 *
 *                                                                               *
 *   System Release SP6.1.0                Start time     09:47:46  Mar 22, 2004 *
 *                                                                               *
 *   Job name       PJG#VGP                Stop  time     00:00:00  Mar 22, 2004 *
 *                                                                               *
 *   Account        PJG$GG                 Elapsed time  920:40:06.69            *
 *                                                                               *
 *   User Name      Module: VGP            CPU time       00:00:03.28            *
 *                                                                               *
 *   Job class      E                      SRB Time       00:00:00.06            *
 *                                                                               *
 *********************************************************************************
 IEF375I  JOB/PJG#VGP /START 2004082.0947
 IEF376I  JOB/PJG#VGP /STOP  2004082.0947 CPU    0MIN 03.28SEC SRB    0MIN 00.06SEC
1Data set successfully converted from EDIT to FB format
1Assembler Done VGP No Statements Flagged
1         High Level Assembler Option Summary                   (PTF UQ57391)                                               Page    1
-                                                                                            HLASM R4.0  2004/03/22 09.47
0  No Overriding ASMAOPT Parameters
   Overriding Parameters-  SYSPARM(VGP),TERM,LANG(EN),OBJ,LC(32500),XREF(SHORT),NODECK,NORLD,NODX,NOUS
   No Process Statements


   Options for this Assembly
0  NOADATA
     ALIGN
   NOASA
     BATCH
     CODEPAGE(047C)
   NOCOMPAT
   NODBCS
 3 NODECK
 3 NODXREF
     ESD
   NOEXIT
     FLAG(0,ALIGN,CONT,NOIMPLEN,NOPAGE0,PUSH,RECORD,NOSUBSTR,USING0)
   NOFOLD
   NOGOFF
   NOINFO
 3   LANGUAGE(EN)
   NOLIBMAC
 3   LINECOUNT(32500)
     LIST(121)
     MXREF(SOURCE)
 3   OBJECT
     OPTABLE(UNI,NOLIST)
   NOPCONTROL
   NOPESTOP
   NOPROFILE
   NORA2
   NORENT
 3 NORLD
     RXREF
     SIZE(MAX)
 3   SYSPARM(VGP)
 3   TERM(WIDE)
   NOTEST
     THREAD
   NOTRANSLATE
 3 NOUSING
 3   XREF(SHORT)

   No Overriding DD Names

1VGP      External Symbol Dictionary                                                                                        Page    2
-Symbol   Type   Id     Address  Length     LD ID  Flags Alias-of                            HLASM R4.0  2004/03/22 09.47
0VGP       SD 00000001 00000000 000022E0             00
 VGP00     LD          00000000           00000001
 FILES     LD          00000014           00000001
 TYPEIT    ER 00000002
 SCAN      ER 00000003
 VMARK     ER 00000004
 SETFMT    ER 00000005
 GETFMT    ER 00000006
 VWRITE    ER 00000007
 SHOWLAST  ER 00000008
 XTB       ER 00000009
 DTB       ER 0000000A
 CHKATTN   ER 0000000B
 PRIVTEST  ER 0000000C
 PRIVTNOM  ER 0000000D
 BTD       ER 0000000E
 VSEG      ER 0000000F
 SCTELL    ER 00000010
 SCINIT    ER 00000011
 FSUB#COM  ER 00000012
 GETFMT    LD          00001FC4           00000001
 SETFMT    LD          00002050           00000001
 QUIET     ER 00000013
 KWFNOPT   ER 00000014
 FORACT    ER 00000015
 FORPUB    ER 00000016
 OSOPTS    ER 00000017
 OSCREATE  ER 00000018

1VGP      ORVYL'S FILE SYSTEM SERVICE PROCESSOR                                                                             Page    3
0Loc    Object Code    Addr1 Addr2  Stmt Lv Lineno    Source Statement                    (Asmedit 3.3)  HLASM R4.0  2004/03/22 09.47
+___    ______ ____    _____ _____  ____ __ ______    ______ _________
0                                      2       2.     ********************************************************************
                                       3       3.     *                                                                  *
                                       4       4.     *       ORVYL/370  RELEASE III - CLASS I - STANFORD PROPRIETARY    *
                                       5       5.     *                                                                  *
                                       6       6.     ********************************************************************
-                                      8       8.              HIBAL ,
-                                    990      10.     * MODIFICATIONS
                                     991      11.     *
1VGP      ORVYL'S FILE SYSTEM SERVICE PROCESSOR                                                                             Page    4
0D-Loc  Object Code    Addr1 Addr2  Stmt Lv Lineno    Source Statement           (Hibal 5, Asmedit 3.3)  HLASM R4.0  2004/03/22 09.47
+_____  ______ ____    _____ _____  ____ __ ______    ______ _________
0000000                00000 022E0   993      13.     VGP      CSECT
                                     997      14.              IDENT 00
                                    1000             +
                                    1001    01-IDENT +         ENTRY VGP00
                                    1002             +
 000000 13E5C7D7F0F06BF2            1003    01-IDENT +VGP00    DC    AL1(19),C'VGP00,22MAR04,09:47'
                                    1004             +*
-                                   1007      16.              COPY  ORVDEFN
                                    1008             =         SYSDEFN  ,
                                    1009             =         GBLB  &PROTECT
                                    1010             =         GBLC  &MODULE
-
                                    1012      18.              REGS  ,,SR,TR,QR,FSUBR,BRR,BR,WAR,RAR,CLWR,,GPWR
1VGP      (VGP00) (09:47) (22MAR04) ORVYL'S FILE SYSTEM SERVICE PROCESSOR                                                   Page    5
0Loc    Object Code    Addr1 Addr2  Stmt Lv Lineno    Source Statement           (Hibal 5, Asmedit 3.3)  HLASM R4.0  2004/03/22 09.47
+___    ______ ____    _____ _____  ____ __ ______    ______ _________
0                                   1150      20.              MACRO ,
                                    1151      21.     &LABEL   LSCAN &GETADC,&SAME       SO WE CAN PUT SCKWS AT END
                                    1152      22.     &LABEL   L     R1,=A(&GETADC)
                                    1153      23.              SCAN  (1),&SAME
                                    1154      24.              MEND
-                                   1156      26.              MACRO ,
                                    1157      27.     &LABEL   ERRXT &P1,&P2,&P3
                                    1158      28.     &LABEL   SEG   &P1,&P2
                                    1159      29.              AIF   (T'&P3 EQ 'O').NXT
                                    1160      30.              B     &P3
                                    1161      31.              MEXIT ,
                                    1162      32.     .NXT     ANOP  ,
                                    1163      33.              B     4(,BR)
                                    1164      34.              MEND  ,
                                    1165      35.
                                    1166      36.              MACRO
                                    1167      37.     &L       BTD   &LOC,&LEN,&WORD,&SW,&COMMAS=NO
                                    1168      38.              LCLC  &CM
                                    1169      39.              AIF   ('&COMMAS' NE 'YES').NOCM
                                    1170      40.     &CM      SETC  'C'
                                    1171      41.     .NOCM    ANOP
                                    1172      42.     &L       SYSLR 15,&WORD,OP=L
                                    1173      43.              SYSLR 0,&LEN,TYPE=&SW
                                    1174      44.              SYSLR 1,&LOC
                                    1175      45.              XCALL BTD&CM
                                    1176      46.              MEND
1VGP      (VGP00) (09:47) (22MAR04) ORVYL'S FILE SYSTEM SERVICE PROCESSOR                                                   Page    6
0Loc    Object Code    Addr1 Addr2  Stmt Lv Lineno    Source Statement           (Hibal 5, Asmedit 3.3)  HLASM R4.0  2004/03/22 09.47
+___    ______ ____    _____ _____  ____ __ ______    ______ _________
0                                   1179      49.              COPY  SCP
                                    1180             =*******************************************************************
                                    1181             =*                                                                 *
                                    1182             =*    SCP  -  Mode 1 Session Control Page                          *
                                    1183             =*                                                                 *
                                    1184             =*******************************************************************
0000000                00000 00294  1186             =SCP      RECORD BEGIN
 000000                             1194  1          =SCPID      DS    CL4'SCP'
                                    1195  1          =
 000008                             1196  1          =SCPPSW     DS    D                       RESUME PSW
 000010                             1197  1          =SCPGPRS    DS    16F                     RESUME GPRS
 000050                             1198  1          =SCPFPRS    DS    4D                      RESUME FPRS
                                    1199  1          =
 000070                             1200  1          =SCPXPSW    DS    D                       EXIT PSW
 000078                             1201  1          =SCPXGPRS   DS    16F                     EXIT GPRS
                                    1202  1          =
 0000B8                             1203  1          =SCPSBPSW   DS    D                       SESSION BREAK PSW
 0000C0                             1204  1          =SCPSBGPR   DS    16F                     SESSION BREAK GPRS
                                    1205  1          =
 000100                             1206  1          =SCPCLPSW   DS    D                       CLP ERROR PSW
 000108                             1207  1          =SCPCLPGP   DS    16F                     CLP ERROR GPRS
                                    1208  1          =
 000148                             1209  1          =SCPSVPSW   DS    D                       SVC ERROR PSW
 000150                             1210  1          =SCPSVGPR   DS    16F                     SVC ERROR GPRS
                                    1211  1          =
 000190                             1212  1          =SCPCTL8    DS    A                       CONTROL REGISTER 8 (MON CALL)
 000194                             1213  1          =SCPCTL9    DS    3A                      CONTROL REGISTERS 9-11 (PER)
                                    1214  1          =
 0001A0                             1215  1          =SCPPXA     DS    A                       PAGING EXCEPTION ADDR
 0001A4                             1216  1          =SCPIPSW    DS    A                       INTERRUPT PSW
 0001A8                             1217  1          =SCPPAN     DS    H                       PANIC CODE
                                    1218  1          =SCPPANSY   EQU   SCPPAN+1,1,C'X'         FOR ONE BYTE PANIC CODE
                                    1219  1          =
                                    1220  1          =PANOPER    EQU   1,,C'N'                 OPERATION ERROR
                                    1221  1          =PANPROT    EQU   4,,C'N'                 PROTECTION ERROR
                                    1222  1          =PANADDR    EQU   5,,C'N'                 ADDRESSING ERROR
                                    1223  1          =PANSPEC    EQU   6,,C'N'                 SPECIFICATION ERROR
                                    1224  1          =PANWAIT    EQU   16,,C'N'                MISSING WAIT ERROR
                                    1225  1          =
 0001AA                             1226  1          =SCPACCT    DS    C'GG.UUU'               SIGNED-ON ACCOUNT
                                    1227  1          =SCPUSER    EQU   SCPACCT+3,3,C'C'        SIGNED-ON USER
                                    1228  1          =SCPGROUP   EQU   SCPACCT,2,C'C'          SIGNED-ON GROUP
                                    1229  1          =*
                                    1230  1          =*SCPPACCT DS    C'GG.UUU'               PSEUDO ACCOUNT
                                    1231  1          =*SCPPUSER EQU   SCPPACCT+3,3,C'C'       PSEUDO USER
                                    1232  1          =*SCPPGRP  EQU   SCPPACCT,2,C'C'         PSEUDO GROUP
                                    1233  1          =*SCPPRIVS DS    X                       PSEUDO ACCOUNT PRIVS
 0001B0                             1234  1          =           DS    XL7                     SPARE
                                    1235  1          =
 0001B7                             1236  1          =SCPPRIV    DS    X                       ACCOUNT PRIVS
 0001B8                             1237  1          =SCPCLW     DS    A                       POINTER TO THE CLW
 0001BC                             1238  1          =SCPPCAT    DS    A                       PROGRAM CATALOG POINTER
1VGP      (VGP00) (09:47) (22MAR04) ORVYL'S FILE SYSTEM SERVICE PROCESSOR                                                   Page    7
0D-Loc  Object Code    Addr1 Addr2  Stmt Lv Lineno    Source Statement           (Hibal 5, Asmedit 3.3)  HLASM R4.0  2004/03/22 09.47
+_____  ______ ____    _____ _____  ____ __ ______    ______ _________
00001C0                             1240  1          =SCPSID     DS    D                       SUSPEND ID
 0001C8                             1241  1          =SCPUCLK    DS    A                       USER CLOCK ID
 0001CC                             1242  1          =SCPUCXIT   DS    A                       USER CLOCK EXIT ID
 0001D0                             1243  1          =SCPCCLK    DS    A                       CLP CLOCK ID
 0001D4                             1244  1          =SCPCCXIT   DS    A                       CLP CLOCK EXIT ID
                                    1245  1          =
 0001D8                             1246  1          =SCPTXEP    DS    A                       TIMER EXIT ENTRY POINT
 0001DC                             1247  1          =SCPTXI     DS    A                       USER POINTER FOR TIMER EXIT
 0001E0                             1248  1          =SCPPXEP    DS    A                       PANIC EXIT ENTRY POINT
 0001E4                             1249  1          =SCPPXI     DS    A                       USER POINTER FOR PANIC EXIT
 0001E8                             1250  1          =SCPSXEP    DS    A                       SVC EXIT ENTRY POINT
 0001EC                             1251  1          =SCPSXI     DS    A                       USER POINTER FOR SVC EXIT
                                    1252  1          =
 0001F0                             1253  1          =SCPUMSIZ   DS    A                       ADDRESS SPACE LIMIT
 0001F4                             1254  1          =SCPRRSEG   DS    A                       LOW ADDR FOR RESERVE/RELEASE
 0001F8                             1255  1          =SCPRESRV   DS    H                       RESERVED (GETMAINED) PAGES
 0001FA                             1256  1          =SCPUNRSV   DS    H                       UNRESERVED PAGE COUNT
 0001FC                             1257  1          =SCPUMAP    DS    A                       USER MAP SIZE
                                    1258  1          =
 000200 00                          1259  1          =SCPFL      FLAG  ,                       FLAG BYTE
 SCPFL.SCPFERR     80 ONES          1263  1          =           FLAG  SCPFERR                 ERROR IN CLP
 SCPFL.SCPFPER     40 ONES          1268  1          =           FLAG  SCPFPER                 PER IS ACTIVE
 SCPFL.SCPFMON     20 ONES          1273  1          =           FLAG  SCPFMON                 MONITOR CALL IS ACTIVE
 SCPFL.SCPFPSEU    10 ONES          1278  1          =           FLAG  SCPFPSEU                PSUEDO USER SET
 SCPFL.SCPFSAM     08 ONES          1283  1          =           FLAG  SCPFSAM                 USER IS STAND-ALONE
 SCPFL.SCPFPRT     04 ONES          1288  1          =           FLAG  SCPFPRT                 USER PROGRAM "PROTECTED"
 SCPFL.SCPFTRU     02 ONES          1293  1          =           FLAG  SCPFTRU                 USER TRACE ACTIVE
 SCPFL.SCPFTRC     01 ONES          1298  1          =           FLAG  SCPFTRC                 CLP TRACE ACTIVE
                                    1303  1          =
 000201                             1304  1          =SCPKLUDG   DS    X     ***KLUDGE***      "KLUDGE" BYTE
 000202                             1305  1          =SCPTRASH   DS    X                       MEMORY CLEARING VALUE
 000203                             1306  1          =SCPJESR    DS    X                       NUMBER OF JES READERS IN USE
                                    1307  1          =
 000204                             1308  1          =SCPPER     DS    A                       PER INTERRUPT CODE,ADDRESS
 000208                             1309  1          =SCPMON     DS    A                       MONITOR INTERRUPT CODE,ADDRESS
                                    1310  1          =
 00020C                             1311  1          =SCPIDT     DS    A                       I/O ID TABLES
 000210                             1312  1          =SCPNIDT    DS    H                       NUMBER OF ID BLOCKS
 000212                             1313  1          =SCPQIDT    DS    H                       ENQ/DEQ ID TABLE
                                    1314  1          =
                                    1315  1          =SCPCWASZ   EQU   16,,C'N'                SIZE OF COMMON WORK AREA
 000214                             1316  1          =SCPCWA     DS    (SCPCWASZ)X
                                    1317  1          =
                                    1318  1          =CLWIBUFL   EQU   235                     LENGTH OF COMMAND BUFFER
 000224                             1319  1          =SCPCMDP    DS    A                       =>AL2(LEN),CL133'COMMAND'
 000228                             1320  1          =SCPPARMP   DS    A                       =>AL2(LEN),CL133'PARM'
 00022C                             1321  1          =SCPLCMDL   DS    H                       LENGTH OF LAST CMD
 00022E                             1322  1          =SCPLCMD    DS    CL40                    LAST COMMAND
                                    1323  1          =
 000256                             1324  1          =SCPNENQ    DS    H                       NUMBER OF ALLOWED ENQ'S
 000258                             1325  1          =SCPENQL    DS    A                       ENQUEUE ID TABLE ADDRESS
                                    1326  1          =
 00025C                             1327  1          =SCPTRACE   DS    A                       MODE 1 TRACE BUFFER CHAIN
1VGP      (VGP00) (09:47) (22MAR04) ORVYL'S FILE SYSTEM SERVICE PROCESSOR                                                   Page    8
0D-Loc  Object Code    Addr1 Addr2  Stmt Lv Lineno    Source Statement           (Hibal 5, Asmedit 3.3)  HLASM R4.0  2004/03/22 09.47
+_____  ______ ____    _____ _____  ____ __ ______    ______ _________
0                                   1329  1          =*******************************************************************
                                    1330  1          =*                                                                 *
                                    1331  1          =*    SCB  -  Mode 1 Session Control Block                         *
                                    1332  1          =*                                                                 *
                                    1333  1          =*******************************************************************
0000260 00                          1335  1          =SCBWFL     FLAG  ,                       WAIT FLAGS
 SCBWFL.SCBFWAIT   80 ONES          1339  1          =           FLAG  SCBFWAIT                WAITING
                                    1344  1          =
 000261 00                          1345  1          =SCBCFL     FLAG  ,                       COMMON FLAGS
 SCBCFL.SCBCFALP   80 ONES          1349  1          =           FLAG  SCBCFALP                AUTO LOGOFF BEING PROCESSED
 SCBCFL.SCBCFCLA   40 ONES          1354  1          =           FLAG  SCBCFCLA                IDLE ATTN IN CLP
 SCBCFL.SCBCFAX    20 ONES          1359  1          =           FLAG  SCBCFAX                 BRANCH TO ATTENTION EXIT
 SCBCFL.SCBCFNMA   10 ONES          1364  1          =           FLAG  SCBCFNMA                SUPPRESS MULTIPLE ATTN BREAK
 SCBCFL.SCBFNESC   08 ONES          1369  1          =           FLAG  SCBFNESC                FORCE SESSION BREAK ON ATTN
                                    1374  1          =
 000262 00                          1375  1          =SCBFL      FLAG  ,                       FLAGS
 SCBFL.SCBFCLP     80 ONES          1379  1          =           FLAG  SCBFCLP                 CLP IN CONTROL
 SCBFL.SCBFSVC     40 ONES          1384  1          =           FLAG  SCBFSVC                 USER IS IN SVC PROCESSING
 SCBFL.SCBFNPUP    20 ONES          1389  1          =           FLAG  SCBFNPUP                NO PSW CC CHANGES
 SCBFL.SCBFASLK    10 ONES          1394  1          =           FLAG  SCBFASLK                ADDRESS SPACE LOCK HELD
 SCBFL.SCBFPCLP    08 ONES          1399  1          =           FLAG  SCBFPCLP                PSEUDO CLP
                                    1404  1          =
 000263 00                          1405  1          =SCBTFL     FLAG  ,                       TIMER FLAGS
 SCBTFL.SCBTUTR    80 ONES          1409  1          =           FLAG  SCBTUTR                 USER TIMER RUNNING
 SCBTFL.SCBTUCT    40 ONES          1414  1          =           FLAG  SCBTUCT                 USER TIMING CPU TIME
 SCBTFL.SCBTCPTR   20 ONES          1419  1          =           FLAG  SCBTCPTR                COMMAND TIMER RUNNING
 SCBTFL.SCBTCPCT   10 ONES          1424  1          =           FLAG  SCBTCPCT                COMMAND TIMING CPU TIME
 SCBTFL.SCBTCPQU   08 ONES          1429  1          =           FLAG  SCBTCPQU                "QUEUED" TIMER RUNNING
                                    1434  1          =
 000264 00                          1435  1          =SCBMB      FLAG  ,                       EXIT ENABLED FLAG
                                    1439  1          =*
                                    1440  1          =* FOLLOWING FLAGS USED FOR BOTH SCBMB AND SCBXFL
                                    1441  1          =*
 000265 00                          1442  1          =SCBXFL     FLAG   ,                      EXIT FLAGS
 SCBXFL.SCBXT      80 ONES          1446  1          =           FLAG  SCBXT                   TIMER EXIT
 SCBXFL.SCBXA      40 ONES          1451  1          =           FLAG  SCBXA                   ATTN EXIT
 SCBXFL.SCBXW      20 ONES          1456  1          =           FLAG  SCBXW                   WAIT EXIT
 SCBXFL.SCBXP      10 ONES          1461  1          =           FLAG  SCBXP                   PANIC EXIT
 SCBXFL.SCBXCPT    08 ONES          1466  1          =           FLAG  SCBXCPT                 CLP TIMER EXIT
 SCBXFL.SCBXALO    04 ONES          1471  1          =           FLAG  SCBXALO                 AUTO LOGOFF
 SCBXFL.SCBDEFMB   F0 NZ            1476  1          =           FLAG  (SCBDEFMB,SCBXT+SCBXA+SCBXW+SCBXP)  DEFAULT
                                    1496  1          =
 000268                             1497  1          =SCBSPB     DS    A                       SPB POINTER
 00026C                             1498  1          =SCBENQ     DS    A                       ENQUEUE ID
 000270                             1499  1          =SCPEPXIT   DS    A                       ENQUEUE POST EXIT ID
                                    1500  1          =
 000278                             1501  1          =           DS    D                       Available
 000280                             1502  1          =SCBPNAML   DS    H                       LENGTH OF THE PROGRAM NAME
 000282                             1503  1          =SCBPNAM    DS    CL8                     PROGRAM NAME
 00028A                             1504  1          =SCBUPRI    DS    X                       USER PRIORITY
                                    1505  1          =*
                                    1506  1          =* Shared symbol control
                                    1507  1          =*
 00028C                             1508  1          =SCBSSAB    DS    A                       POINTER TO SSAB CHAIN
                                    1509  1          =
1VGP      (VGP00) (09:47) (22MAR04) ORVYL'S FILE SYSTEM SERVICE PROCESSOR                                                   Page    9
0D-Loc  Object Code    Addr1 Addr2  Stmt Lv Lineno    Source Statement           (Hibal 5, Asmedit 3.3)  HLASM R4.0  2004/03/22 09.47
+_____  ______ ____    _____ _____  ____ __ ______    ______ _________
0000290                             1510  1          =SCBWAITB   DS    A         WAIT BLOCK PTR (SEE M1GOWAIT IN M1SERV)
 000294                00294 00294  1511             =         END
1VGP      (VGP00) (09:47) (22MAR04) ORVYL'S FILE SYSTEM SERVICE PROCESSOR                                                   Page   10
0Loc    Object Code    Addr1 Addr2  Stmt Lv Lineno    Source Statement           (Hibal 5, Asmedit 3.3)  HLASM R4.0  2004/03/22 09.47
+___    ______ ____    _____ _____  ____ __ ______    ______ _________
0                                   1521      51.              COPY  CLW
                                    1522             =*
                                    1523             =*                   COMMAND LANGUAGE WORK AREA
                                    1524             =*
                                    1525             =* ORGANIZATION:
                                    1526             =*
                                    1527             =*        COMMONLY USED CLP FLAGS, COMMAND BUFFERS AND OTHER CONTROL
                                    1528             =*        INFORMATION FOLLOW THE SESSION CONTROL PAGE INFORMATION.
                                    1529             =*        THE BALANCE OF THIS PAGE IS THE CLP SAVE AREA STACK.
                                    1530             =*
 000000                00000 00618  1531             =CLW      RECORD BEGIN
 000000                             1539  1          =CLWSTART   DS    0F
 000000                             1540  1          =CLWSCP     DS    A                       POINTER TO THE SCP
 000004                             1541  1          =           DS    5A                      AVAILABLE
 000018                             1542  1          =CLWUWST    DS    A                       STARTING LOC OF USER WORK AREA
 00001C                             1543  1          =CLWUPST    DS    A                       STARTING LOC OF USER PROGRAM
 000020                             1544  1          =CLWUPML    DS    A                       MAXIMUM LEN OF USER PROGRAM
 000024                             1545  1          =CLWUPRSV   DS    H                       USER PROGRAM RESERVE COUNT
 000026                             1546  1          =CLWUPURV   DS    H                       USER PROGRAM UN-RESERVE COUNT
 000028                             1547  1          =CLWIBUFN   DS    H                       LENGTH OF INPUT LINE
 00002A 606E40                      1548  1          =           DC    C'-> '
 00002D                             1549  1          =CLWIBUF    DS    CL235                   INPUT BUFFER
                                    1550  1          =
 000118                             1551  1          =CLWOBUF    DS    2H                      WRITE/PROMPT COUNTS
 00011C                             1552  1          =           DS    CL235                   OUTPUT BUFFER
                                    1553  1          =CLWOBUFL   EQU   *-CLWOBUF-4
                                    1554  1          =*                                      SESSION BREAK FLAGS:
 000207 00                          1555  1          =CLWFL      FLAG  ,                       ZEROED AT SESSION BREAK START
 CLWFL.CLWFTYPD    80 ONES          1559  1          =           FLAG  CLWFTYPD                CURRENT COMMAND WAS TYPED
 CLWFL.CLWFCMD     40 ONES          1564  1          =           FLAG  CLWFCMD                 PROCESSING COMMAND SVC
 CLWFL.CLWFWYL     20 ONES          1569  1          =           FLAG  CLWFWYL                 COMMAND HAS BEEN TO WYLBUR
                                    1574  1          =
 000208 00                          1575  1          =CLWFLG     FLAG  ,                       FLAGS
 CLWFLG.CLWFCERR   80 ONES          1579  1          =           FLAG  CLWFCERR                COMMAND ERROR: EXE BREAK
 CLWFLG.CLWFGPW    40 ONES          1584  1          =           FLAG  CLWFGPW                 GET-PUT WORK AREA ALLOCATED
 CLWFLG.CLWFTTRP   20 ONES          1589  1          =           FLAG  CLWFTTRP                TEMPORARY TRAP SET
 CLWFLG.CLWFTRAP   10 ONES          1594  1          =           FLAG  CLWFTRAP                TRAP IN PROGRESS
 CLWFLG.CLWFOSC    08 ONES          1599  1          =           FLAG  CLWFOSC                 READ/WRITE REAL (OS) CORE
 CLWFLG.CLWFQMSG   04 ONES          1604  1          =           FLAG  CLWFQMSG                "QUEUED" MESSAGE SENT
 CLWFLG.CLWFM31    02 ONES          1609  1          =           FLAG  CLWFM31                 PROGRAM IN 31 BIT MODE
                                    1614  1          =
 000209 00                          1615  1          =CLWPFL     FLAG  ,                       PROGRAM FLAGS
 CLWPFL.CLWPFSUP   80 ONES          1619  1          =           FLAG  CLWPFSUP                LINK AREA SET UP
 CLWPFL.CLWPFPL    40 ONES          1624  1          =           FLAG  CLWPFPL                 PROGRAM LOADING
 CLWPFL.CLWPFPIC   20 ONES          1629  1          =           FLAG  CLWPFPIC                PROGRAM ENTERED
 CLWPFL.CLWPFRUN   10 ONES          1634  1          =           FLAG  CLWPFRUN                EXECUTE PROGRAM
 CLWPFL.CLWPFPAU   08 ONES          1639  1          =           FLAG  CLWPFPAU                PAUSE BEFORE EXECUTION
 CLWPFL.CLWPFPRV   04 ONES          1644  1          =           FLAG  CLWPFPRV                PRIVATE PROGRAM
 CLWPFL.CLWPFPRT   02 ONES          1649  1          =           FLAG  CLWPFPRT                PROGRAM PROTECTED
 CLWPFL.CLWPFSHR   01 ONES          1654  1          =           FLAG  CLWPFSHR                SHARED PROGRAM LOADED
                                    1659  1          =
 00020A 00                          1660  1          =CLWMFL     FLAG  ,                       MISCELLANEOUS FLAGS
 CLWMFL.CLWMEVCN   80 ONES          1664  1          =           FLAG  CLWMEVCN                CONTINUE AFTER EVENTS
 CLWMFL.CLWMMNCN   40 ONES          1669  1          =           FLAG  CLWMMNCN                CONTINUE AFTER MONITORS
 CLWMFL.CLWMBSUC   20 ONES          1674  1          =           FLAG  CLWMBSUC                SIMULATED BRANCH SUCCESSFUL
 CLWMFL.CLWMNCST   10 ONES          1679  1          =           FLAG  CLWMNCST                SUPPRESS AUTOMATIC COST PRINT
1VGP      (VGP00) (09:47) (22MAR04) ORVYL'S FILE SYSTEM SERVICE PROCESSOR                                                   Page   11
0Loc    Object Code    Addr1 Addr2  Stmt Lv Lineno    Source Statement           (Hibal 5, Asmedit 3.3)  HLASM R4.0  2004/03/22 09.47
+___    ______ ____    _____ _____  ____ __ ______    ______ _________
0CLWMFL.CLWMCLRP   08 ONES          1684  1          =           FLAG  CLWMCLRP                UNREC. CLR FOUND
 CLWMFL.CLWMNOL    04 ONES          1689  1          =           FLAG  CLWMNOL                 DON'T PRINT ON CONT. EVENTS
 CLWMFL.CLWMDSUP   02 ONES          1694  1          =           FLAG  CLWMDSUP                DUMP AREA SET UP
 CLWMFL.CLWMDUMP   01 ONES          1699  1          =           FLAG  CLWMDUMP                DUMP COMMAND BEING PROCESSED
                                    1704  1          =
 00020B 00                          1705  1          =CLWMONF    FLAG  ,                       PROGLOOK/MONITOR FLAGS
 CLWMONF.CLWFMWP   80 ONES          1709  1          =           FLAG  CLWFMWP                 MONITOR WORK PAGE EXISTS
 CLWMONF.CLWFPRGL  40 ONES          1714  1          =           FLAG  CLWFPRGL                PROGLOOK IN PROGRESS
 CLWMONF.CLWDOTIM  20 ONES          1719  1          =           FLAG  CLWDOTIM                SET TIMER AT RUN
 CLWMONF.CLWCPTIM  10 ONES          1724  1          =           FLAG  CLWCPTIM                SET CPU TIME TIMER
                                    1729  1          =
 00020C 00                          1730  1          =CLWSFL     FLAG  ,                       SESSION FLAGS
 CLWSFL.CLWSSAM    80 ONES          1734  1          =           FLAG  CLWSSAM                 STAND ALONE MODE
 CLWSFL.CLWSSP     40 ONES          1739  1          =           FLAG  CLWSSP                  SPECIAL PERSON
                                    1744  1          =
 00020D                             1745  1          =           DS    X
                                    1746  1          =
 00020E                             1747  1          =CLWEXSVC   DS    H                       EXIT SVC
 000210                             1748  1          =CLWPSVC    DS    H                       PAUSE/TRAP SVC
 000212                             1749  1          =CLWCSVC    DS    H                       COMMAND SVC
                                    1750  1          =
 000214                             1751  1          =CLWDSP     DS    X                       DISPATCHING PRIORITY
 000215                             1752  1          =CLWPFS     DS    X                       PARAMTER FLAG SAVE
 000218                             1753  1          =CLWPS      DS    3F                      PARAMETER SAVE
                                    1754  1          =
 000224                             1755  1          =CLWMLMOD   DS    F                       MILTEN MODE WORD
 000228                             1756  1          =CLWWLMOD   DS    F                       WYLBUR MODE WORD
                                    1757  1          =
 00022C                             1758  1          =CLWTIMER   DS    A                       TIMER VALUE TO BE SET AT RUN
 000230                             1759  1          =CLWTIMAX   DS    H                       MAX TIMER INTERVAL (IN .1 SEC)
 000232                             1760  1          =CLWTIVAL   DS    H                       CURRENT TIMER INTERVAL
 000234                             1761  1          =CLWTMAX    DS    H                       CPU TIME LIMIT
 000236                             1762  1          =CLWTIME    DS    H                       CURRENT CPU TIME
 000238                             1763  1          =CLWPELT    DS    A                       ELAPSED TIME
 00023C                             1764  1          =CLWPCVM    DS    A                       VM CHARGES
 000240                             1765  1          =CLWPIOS    DS    A                       I/O COUNTS
 000244                             1766  1          =CLWPCUSE   DS    A                       CPU TIME
                                    1767  1          =
 000248                             1768  1          =CLWPROGN   DS    CL8                     PROGRAM NAME
 000250                             1769  1          =CLWLNKP    DS    A                       LINK PAGE POINTER
 000254                             1770  1          =CLWGPWP    DS    A                       GET-PUT WORK PAGE POINTER
 000258                             1771  1          =CLWMONP    DS    A                       MONITOR/PROGLOOK PAGE
 00025C                             1772  1          =CLWSPB     DS    A                       SHARED PROGRAM BLOCK
 000260                             1773  1          =CLWDUMPB   DS    A                       POINTER TO DUMP BUFFER
                                    1774  1          =
 000264                             1775  1          =CLWPER     DS    A                       PER INFO
 000268                             1776  1          =CLWMON     DS    A                       MONITOR INFO
                                    1777  1          =
 00026C                             1778  1          =CLWEVCNT   DS    A                       NUMBER OF EVENTS TO EXECUTE
 000270                             1779  1          =CLWTRAPA   DS    A                       ADDR OF INST BEING TRAPPED
 000274                             1780  1          =CLWTRAPB   DS    A                       ADDR OF INST AFTER
 000278                             1781  1          =CLWTRAPI   DS    3H                      INSTRUCTION BEING TRAPPED
 00027E                             1782  1          =CLWTRAPJ   DS    H                       1ST HALFWORD OF INST AFTER
                                    1783  1          =
                                    1784  1          =CLWNTRAP   EQU   8,,C'N'                 NO. OF TRAPS
 000280                             1785  1          =CLWTRAPS   DS    (CLWNTRAP)XL5           TRAP TABLE
1VGP      (VGP00) (09:47) (22MAR04) ORVYL'S FILE SYSTEM SERVICE PROCESSOR                                                   Page   12
0Loc    Object Code    Addr1 Addr2  Stmt Lv Lineno    Source Statement           (Hibal 5, Asmedit 3.3)  HLASM R4.0  2004/03/22 09.47
+___    ______ ____    _____ _____  ____ __ ______    ______ _________
00002A8                             1786  1          =CLWTTRAP   DS    XL5                     TEMPORARY TRAP
                                    1787  1          =*
                                    1788  1          =* KEYWORD FILE RECORD AREA
                                    1789  1          =*
 0002AD                             1790  1          =CLWKFL     DS    X                       KEYWORD FILE FLAGS
                                    1791  1          =
                                    1792  1          =CLWKFAC    EQU   X'80'                   PROGRAM AUTO CALL
                                    1793  1          =CLWKFMP    EQU   X'40'                   PROGRAM MANDATORY
                                    1794  1          =
 0002AE                             1795  1          =CLWKACC    DS    CL5                     ACCOUNT FOR PROGRAM SEARCH
 0002B3                             1796  1          =CLWKPROG   DS    CL8                     DEFAULT/MANDATORY PROGRAM
 0002BB                             1797  1          =CLWKMISC   DS    CL8                     MISCELLANEOUS FIELDS
                                    1798  1          =*
                                    1799  1          =*  SCANNER UTILITY AREA
                                    1800  1          =*
                                    1801  1          =           SCANCB PFX=CLWKW
 0002C4                             1802  1 01-SCANC +CLWKWCB    DS    0F
 0002C4                             1803  1 01-SCANC +CLWKWVAL   DS    A                       VALUE RETURNED
 0002C8                             1804  1 01-SCANC +CLWKWKW    DS    CL8                     CURRENT KEY WORD
 0002D0                             1805  1 01-SCANC +CLWKWLEN   DS    A                       LENGTH LEFT TO SCAN
 0002D4                             1806  1 01-SCANC +CLWKWLOC   DS    A                       NEXT THING TO SCAN
 0002D8                             1807  1 01-SCANC +CLWKWRA    DS    A                       RETURN ADDRESS
 0002DC                             1808  1 01-SCANC +CLWKWPRT   DS    A                       ROUTING TABLE ADDRESS
 0002E0                             1809  1 01-SCANC +CLWKWCLT   DS    A                       SCAN TYPE
                                    1810  1          +*                                      0 = NORMAL SCAN
                                    1811  1          +*                                      4 = EXPRESSION ISOLATION
                                    1812  1          +*                                      8 = EXPRESSION SCAN
                                    1813  1 01-SCANC +CLWKWCBL   EQU *-CLWKWCB
                                    1814  1          =
 0002E8                             1815  1          =CLWTEMP    DS    4D                      WORK AREA
                                    1816  1          =
 000308                             1817  1          =CLWDELTA   DS    F                       Wylbr line delta
 00030C                             1818  1          =           DS    F                       Spare
 000310                             1819  1          =CLWEVHST   DS    8D                      EVENT HISTORY
 000350                             1820  1          =CLWEVENT   DS    D                       LAST EVENT INFO
 000358                             1821  1          =CLWQRET    DS    3F                      QUICK RETURN FOR VSUB
                                    1822  1          =*                                      SAVE AREA FOR BRR,BR,WAR
                                    1823  1          =*
 000368                             1824  1          =CLWSBPSW   DS    D                       SESSION BREAK PSW
 000370                             1825  1          =CLWSBGPR   DS    16F                     SESSION BREAK GPRS
 0003B0                             1826  1          =CLWACCT    DS    C'GG.UUU'               USER ACCOUNT
                                    1827  1          =CLWUSER    EQU   CLWACCT+3,3,C'C'        USER
                                    1828  1          =CLWGROUP   EQU   CLWACCT,2,C'C'          GROUP
 0003B8                             1829  1          =CLWIDT     DS    A                       ADDRESS OF THE IDTS
 0003BC                             1830  1          =CLWNIDT    DS    H                       NUMBER OF IDTS
 0003C0                             1831  1          =           DS    0F                      START OF SAVE AREA
 0003C0                             1832  1          =CLWSVA     DS    XL600                   SAVE STACK
                                    1833  1          =CLWSVAEN   EQU   *-4,4,C'X'              LAST WORD OF THE STACK
 000618                00618 00618  1834             =         END   ,
1VGP      (VGP00) (09:47) (22MAR04) ORVYL'S FILE SYSTEM SERVICE PROCESSOR                                                   Page   13
0Loc    Object Code    Addr1 Addr2  Stmt Lv Lineno    Source Statement           (Hibal 5, Asmedit 3.3)  HLASM R4.0  2004/03/22 09.47
+___    ______ ____    _____ _____  ____ __ ______    ______ _________
0                                   1844      53.              COPY  WYLMDWD
                                    1845             =*
                                    1846             =*   EQUS FOR VALUES IN WYLBUR MODE WORD - LOW ORDER BYTE
                                    1847             =*
                                    1848             =WPREST   EQU   X'01',,C'N'              RETURN DATA IN PREST FORMAT
                                    1849             =WNFORM   EQU   X'02',,C'N'              INFORM OF WDS CHANGES (RE)
                                    1850             =WPRHBT   EQU   X'04',,C'N'              PROHIBIT WDS CHANGES (RE)
                                    1851             =WNNUMB   EQU   X'08',,C'N'              NUMBER COMMAND INVALID
                                    1852             =WNALGN   EQU   X'10',,C'N'              ALIGN,JUSTIFY,CENTER INVALID
                                    1853             =WSSBRK   EQU   X'20',,C'N'              PROHIBIT SESS BREAK WDS CHGS
1VGP      (VGP00) (09:47) (22MAR04) ORVYL'S FILE SYSTEM SERVICE PROCESSOR                                                   Page   14
0Loc    Object Code    Addr1 Addr2  Stmt Lv Lineno    Source Statement           (Hibal 5, Asmedit 3.3)  HLASM R4.0  2004/03/22 09.47
+___    ______ ____    _____ _____  ____ __ ______    ______ _________
0                                   1855      55.              COPY  GPW
                                    1856             =*
                                    1857             =* GET PUT WORK PAGE. ALLOCATED ON ENTRY TO VGP. DE-ALLOCATED ON EXIT
                                    1858             =*
 000000                00000 03000  1859             =GPWDSECT DSECT
 000000                             1860             =GPWSTART DS    0D
 000000 00                          1861             =GPWGFL   FLAG  ,                       GENERAL FLAGS
 GPWGFL.GPWFFREE   80 ONES          1865             =         FLAG  GPWFFREE                FREE CORE
 GPWGFL.GPWFALTF   40 ONES          1870             =         FLAG  GPWFALTF                PROCESS ALTERNATE FILE
 GPWGFL.GPWFALTA   20 ONES          1875             =         FLAG  GPWFALTA                PROCESS ALTERNATE ACCOUNT
 GPWGFL.GPWFARET   10 ONES          1880             =         FLAG  GPWFARET                TAKE ALTERNATE RETURN
 GPWGFL.GPWFPCAT   08 ONES          1885             =         FLAG  GPWFPCAT                PROCESSING PROGRAM CATALOG
                                    1890             =
 000001 00                          1891             =GPWPRFL  FLAG  ,                       PROCESSING FLAGS
 GPWPRFL.GPWFTRN   80 ONES          1895             =         FLAG  GPWFTRN                 SOME LINES TRUNCATED
 GPWPRFL.GPWFNOE   40 ONES          1900             =         FLAG  GPWFNOE                 NO ERROR IF FILE NOT FOUND (ATT)
 GPWPRFL.GPWFANW   20 ONES          1905             =         FLAG  GPWFANW                 ATTACH NEW IF FILE NOT FOUND
 GPWPRFL.GPWFNSF   10 ONES          1910             =         FLAG  GPWFNSF                 DO NOT SENSE USER INFO ON ATTACH
 GPWPRFL.GPWFNSKP  08 ONES          1915             =         FLAG  GPWFNSKP                READ WITH NO MODE = SKIP
 GPWPRFL.GPWFQIET  04 ONES          1920             =         FLAG  GPWFQIET                QUIET OPTION SET
 GPWPRFL.GPWOSFOK  02 ONES          1925             =         FLAG  GPWOSFOK                OS/FILES IMPLEMENTED FOR CMD
                                    1930             =
 000002 00                          1931             =GPWPRFL2 FLAG  ,                       MORE PROCESSING FLAGS
 GPWPRFL2.GPWSRCHC 80 ONES          1935             =         FLAG  GPWSRCHC                CONTINUE DIRECTORY SEARCH
 GPWPRFL2.GPWFFRST 40 ONES          1940             =         FLAG  GPWFFRST                FIRST PASS (FBAL)
 GPWPRFL2.GPWFRST  20 ONES          1945             =         FLAG  GPWFRST                 RESET BLOCKS (FBAL)
 GPWPRFL2.GPWFNIXR 10 ONES          1950             =         FLAG  GPWFNIXR                NON-IXR'ED FILE ATTACHED
 GPWPRFL2.GPWFHYBR 08 ONES          1955             =         FLAG  GPWFHYBR                HYBRID NON-IXR'ED FILE ATTACHED
                                    1960             =
 000003 00                          1961             =GPWKWFL  FLAG  ,                       KEYWORD SCAN FLAGS
 GPWKWFL.GPWFERS   80 ONES          1965             =         FLAG  (GPWFERS,X'80')         ERASE
 GPWKWFL.GPWFCLR   80 ONES          1974             =         FLAG  (GPWFCLR,X'80')         CLEAR TEXT (ON GET)
 GPWKWFL.GPWFAPP   40 ONES          1983             =         FLAG  (GPWFAPP,X'40')         APPEND
 GPWKWFL.GPWFMRG   40 ONES          1992             =         FLAG  (GPWFMRG,X'40')         MERGE
 GPWKWFL.GPWFCON   20 ONES          2001             =         FLAG  (GPWFCON,X'20')         CONTENTS
 GPWKWFL.GPWFCREF  20 ONES          2010             =         FLAG  (GPWFCREF,X'20')        CREATE BEING PROCESSED
 GPWKWFL.GPWFNCOM  10 ONES          2019             =         FLAG  (GPWFNCOM,X'10')        NO COMMENT
 GPWKWFL.GPWFELIB  10 ONES          2028             =         FLAG  (GPWFELIB,X'10')        LIBRARY (ON ERASE)
 GPWKWFL.GPWFPUB   08 ONES          2037             =         FLAG  (GPWFPUB,X'08')         PUBLIC SPECIFIED
 GPWKWFL.GPWFACC   04 ONES          2046             =         FLAG  (GPWFACC,X'04')         ACCOUNT SPECIFIED
 GPWKWFL.GPWFAACC  02 ONES          2055             =         FLAG  (GPWFAACC,X'02')        ALTERNATE ACCOUNT SPECIFIED
 GPWKWFL.GPWFRNUM  01 ONES          2064             =         FLAG  (GPWFRNUM,X'01')        RENUMBER (FOR GET)
 GPWKWFL.GPWFPMBR  01 ONES          2073             =         FLAG  (GPWFPMBR,X'01')        PUT LIBRARY MEMBER
                                    2082             =
 000004 00                          2083             =GPWSFFL  FLAG  ,                       SHOW FILES FLAGS
 GPWSFFL.GPWSFER   80 ONES          2087             =         FLAG  GPWSFER                 ERASE  (SHOW FILES)
 GPWSFFL.GPWSFDT   40 ONES          2092             =         FLAG  GPWSFDT                 DATED    "    "
 GPWSFFL.GPWSFLK   20 ONES          2097             =         FLAG  GPWSFLK                 LIKE     "    "
 GPWSFFL.GPWSFUNL  10 ONES          2102             =         FLAG  GPWSFUNL                UNLIKE   "    "
 GPWSFFL.GPWSFFRO  08 ONES          2107             =         FLAG  GPWSFFRO                FROM     "    "
 GPWSFFL.GPWSFATT  04 ONES          2112             =         FLAG  GPWSFATT                ATTACH   "    "
 GPWSFFL.GPWSFBLO  02 ONES          2117             =         FLAG  GPWSFBLO                BLOCKS   "    "
 GPWSFFL.GPWSFFMT  01 ONES          2122             =         FLAG  GPWSFFMT                FORMAT
1VGP      (VGP00) (09:47) (22MAR04) ORVYL'S FILE SYSTEM SERVICE PROCESSOR                                                   Page   15
0D-Loc  Object Code    Addr1 Addr2  Stmt Lv Lineno    Source Statement           (Hibal 5, Asmedit 3.3)  HLASM R4.0  2004/03/22 09.47
+_____  ______ ____    _____ _____  ____ __ ______    ______ _________
0000005                             2128             =GPWPERM  DS    X                       PERMIT FLAGS
                                    2129             =GPWPRMRD EQU   GPWPERM,X'01',1         READ ONLY
                                    2130             =GPWPRMAP EQU   GPWPERM,X'02',1         APPEND ONLY
                                    2131             =GPWPRMRP EQU   GPWPERM,X'03',1         READ AND APPEND
                                    2132             =GPWPRMWR EQU   GPWPERM,X'07',1         WRITE
                                    2133             =GPWPRMEX EQU   GPWPERM,X'08',1         EXTEND
                                    2134             =
 000006 00                          2135             =GPWGPFL  FLAG  ,                       FLAGS FOR GET/PUT
 GPWGPFL.GPWGPFIN  80 ONES          2139             =         FLAG  GPWGPFIN                INTEGER
 GPWGPFL.GPWGPFV   40 ONES          2144             =         FLAG  GPWGPFV                 VARIABLE
 GPWGPFL.GPWGPFLR  20 ONES          2149             =         FLAG  GPWGPFLR                LRECL
 GPWGPFL.GPWGPFE   10 ONES          2154             =         FLAG  GPWGPFE                 EDIT
 GPWGPFL.GPWGPFSK  08 ONES          2159             =         FLAG  GPWGPFSK                SKIP COUNT
 GPWGPFL.GPWGPFBK  04 ONES          2164             =         FLAG  GPWGPFBK                BLOCKING FACTOR
 GPWGPFL.GPWGPFHX  02 ONES          2169             =         FLAG  GPWGPFHX                HEX
 GPWGPFL.GPWGPFN   01 ONES          2174             =         FLAG  GPWGPFN                 NUMBERED
                                    2179             =
 000007                             2180             =ACCT     DS    0C'UUU$GG'
 000007                             2181             =GPWACCT  DS    C'UUU$GG'               GROUP NAME
 00000D                             2182             =GPWAACCT DS    C'UUU$GG'               ALTERNATE GROUP NAME
 000013                             2183             =UUU      DS    0C'UUU'                 STANDARD USER PATTERN
 000013                             2184             =GG       DS    0C'GG'                  STANDARD GROUP PATTERN
                                    2185             =
 000013                             2186             =GPWSUSER DS    C'UUU'                   'SET' USER
 000016                             2187             =GPWSGRP  DS    C'GG'                    'SET' GROUP
                                    2188             =GPWSACCT EQU   GPWSUSER,*-GPWSUSER
                                    2189             =
 000018                             2190             =         DS    0F                      ALIGN WYLBUR INFO
 000018                             2191             =GPWOPT   DS    AL2(0)                  * READ TEXT OPTION
 00001A 0000                        2192             =GPWBLK   DC    AL2(0)                  W READ BLOCKING FACTOR
                                    2193             =GPWWBL   EQU   GPWBLK                  Y WRITE BUFFER LEN
 00001C                             2194             =GPWFWDS  DS    A(0)                    L FIRST LINE OF WDS
 000020                             2195             =GPWLWDS  DS    A(0)                    B LAST LINE OF WDS
 000024                             2196             =GPWFCOL  DS    AL2(0)                  U FIRST COLUMN (RANGE)
 000026                             2197             =GPWLCOL  DS    AL2(0)                  R LAST COLUMN (RANGE)
 000028                             2198             =GPWSLEN  DS    AL2(0)                  * STRING LEN (RANGE)
 00002A                             2199             =GPWSTR   DS    0CL44                   * STRING (RANGE)
                                    2200             =GPWMSGL  EQU   GPWFWDS,4,C'C'          LENGTH OF SAVED MESSAGE
                                    2201             =GPWMSGA  EQU   GPWLWDS,4               START OF SAVED MESSAGE
 00002A 0000
 00002C 00000000                    2202             =GPWSKIP  DC    A(0)                    SKIPING COUNT
 000030 00000000                    2203             =GPWLINCT DC    A(0)                    LINE COUNT
                                    2204             =
 000034 0000                        2205             =GPWLREC  DC    AL2(0)                  LRECL
 000036 0000                        2206             =GPWRBL   DC    AL2(0)                  READ BUFFER LEN
                                    2207             =GPWWBLK  EQU   GPWRBL                  WRITE BLOCKING FACTOR
1VGP      (VGP00) (09:47) (22MAR04) ORVYL'S FILE SYSTEM SERVICE PROCESSOR                                                   Page   16
0D-Loc  Object Code    Addr1 Addr2  Stmt Lv Lineno    Source Statement           (Hibal 5, Asmedit 3.3)  HLASM R4.0  2004/03/22 09.47
+_____  ______ ____    _____ _____  ____ __ ______    ______ _________
0000038                             2209             =GPWBUFA  DS    A                       ADDRESS OF GENERAL BUFFER
 00003C                             2210             =GPWDATAD DS    A                       START OF DATA IN BLOCK
                                    2211             =MONBUFA  EQU   GPWBUFA,4,C'A'          ALTERNATE NAME FOR VPS
 000040                             2212             =GPWDIRAP DS    A                       POINTER TO FIRST DIRECTORY BLOCK
 000044                             2213             =GPWDIRAL DS    A                       LENGTH OF DIRECTORY AREA
 000048                             2214             =GPWDIRAE DS    A                       ADDR OF END OF LAST VALID DIRB
 00004C                             2215             =GPWARETA DS    A                       ALTERNATE RETURN ADDRESS
 000050                             2216             =GPWDIRLS DS    A                       LAST DIRECTORY ENTRY LOC
-000054                             2218             =PFX      DS    0C'ORV.GG.UUU.'        STANDARD FILENAME PREFIX
 000054                             2219             =GPWFFN   DS    C'ORV.'                 FULL FILE NAME
 000058                             2220             =GPWGRP   DS    C'GG'                    GROUP ON LAST FILE
 00005A                             2221             =GPWGDOT  DS    C'.'
 00005B                             2222             =GPWUSER  DS    C'UUU'                   USER FOR LAST FILE
 00005E                             2223             =GPWUDOT  DS    C'.'
 00005F                             2224             =GPWFN    DS    CL44                    FILE NAME (AS TYPED)
 00008B                             2225             =         DS    C                       SPACE FOR BLANK FOLLOWING NAME
1VGP      (VGP00) (09:47) (22MAR04) ORVYL'S FILE SYSTEM SERVICE PROCESSOR                                                   Page   17
0D-Loc  Object Code    Addr1 Addr2  Stmt Lv Lineno    Source Statement           (Hibal 5, Asmedit 3.3)  HLASM R4.0  2004/03/22 09.47
+_____  ______ ____    _____ _____  ____ __ ______    ______ _________
0
                                    2228             =* GPW FILE CONTROL BLOCK
                                    2229             =*
 00008C                             2230             =GPWFILE  DS    0F                      FILE CONTROL BLOCK
                                    2231             =*
                                    2232             =*                            NOTE:  GPWPFFL AND GPWFID MUST
                                    2233             =*                                   REMAIN PAIRED FOR VPM
                                    2234             =*
 00008C 00                          2235             =GPWPFFL  FLAG  ,                       PRIMARY FILE FLAGS
 GPWPFFL.GPWFATT   80 ONES          2239             =         FLAG  GPWFATT                 FILE IS ATTACHED
 GPWPFFL.GPWFSHR   40 ONES          2244             =         FLAG  GPWFSHR                 ATTACH FILE SHARE
 GPWPFFL.GPWFNEW   20 ONES          2249             =         FLAG  GPWFNEW                 FILE IS NEW
 GPWPFFL.GPWFFMT   10 ONES          2254             =         FLAG  GPWFFMT                 USER INFO IS FORMAT
 GPWPFFL.GPWFVOSF  08 ONES          2259             =         FLAG  GPWFVOSF                FILE IS AN OS/FILE
 GPWPFFL.GPWOSFED  04 ONES          2264             =         FLAG  GPWOSFED                OS/FILE IS EDIT FORMAT
 GPWPFFL.GPWFFFN   02 ONES          2269             =         FLAG  GPWFFFN                 FULL FILENAME SPECIFIED
                                    2274             =
 00008D                             2275             =GPWFID   DS    X                       FILE ID NUMBER
 00008E                             2276             =GPWFNL   DS    X                       FILE NAME LENGTH
                                    2277             =*
                                    2278             =*        LIBRARY DATA AND FLAGS
                                    2279             =*
 00008F                             2280             =GPWLMNL  DS    AL1                     LIBRARY MEMBER NAME LENGTH
 000090                             2281             =GPWLMN   DS    CL8                     LIBRARY MEMBER NAME
 000098                             2282             =GPWLMN2  DS    CL8                     LIBRARY MEMBER NAME2 (ALIAS)
 0000A0                             2283             =GPWLMF1  DS    X                       LIB MEMBER
 0000A1                             2284             =GPWLMF2  DS    X                       DIRECTORY FLAGS
                                    2285             =GPWLMFLS EQU   GPWLMF1,*-GPWLMF1
 0000A4                             2286             =GPWLMFBN DS    A                       FIRST BLOCK # OF LIB MEMBER
 0000A8                             2287             =GPWLMBCT DS    A                       NUM OF BLOCKS IN LIB MEMBER
                                    2288             =GPWLMSPC EQU   GPWLMN,*-GPWLMN,C'X'    SPECIFIES LIB MBR.
                                    2289             =GPWLMFLD EQU   GPWLMF1,*-GPWLMF1       DESCRIPTORS OF LIB MBR.
 0000AC                             2290             =GPWLMLBN DS    A                       LAST BLOCK NUMBER OF LIB MEMBER
 0000B0                             2291             =GPWNXTAD DS    A                       ADDRESS OF NEXT ENTRY IN LIB DIR
                                    2292             =
 0000B4 00                          2293             =GPWLFLAG FLAG  ,                       LIBRARY FLAGS
 GPWLFLAG.GPWLREP  80 ONES          2297             =     FLAG  GPWLREP                     REPLACE PDS MEMBER
 GPWLFLAG.GPWLGOTD 40 ONES          2302             =     FLAG  GPWLGOTD                    GOT DIRECTORY BLK, SKIP READ
 GPWLFLAG.GPWLNEWD 20 ONES          2307             =     FLAG  GPWLNEWD                    NEW DIRECTORY, CREATE DIRE
 GPWLFLAG.GPWALIAS 10 ONES          2312             =     FLAG  GPWALIAS                    ALIAS USED FOR FSCALL, GPWLMN
 GPWLFLAG.GPWLNXTM 08 ONES          2317             =     FLAG  GPWLNXTM                    SCAN NEXT MEMBER IN DIR
 GPWLFLAG.GPWLLDMD 04 ONES          2322             =     FLAG  GPWLLDMD                    OS/LOAD MODULE PDS
 GPWLFLAG.GPWLLIST 02 ONES          2327             =     FLAG  GPWLLIST                    LIST OF MEMBERS IN INCLUDE, ETC
 GPWLFLAG.GPWLMORE 01 ONES          2332             =     FLAG  GPWLMORE                    UNUSED, MORE LIB FLAGS TO COME?
                                    2337             =*
                                    2338             =*  FILE INFO WORD
                                    2339             =*
 0000B8                             2340             =GPWUINFO DS    0F                      USER INFO FIELD
 0000B8                             2341             =GPWUIFMT DS    AL1                     FILE FORMAT
                                    2342             =GPWUILIB EQU   GPWUIFMT,X'80',1        LIBRARY
                                    2343             =GPWUILDF EQU   GPWUIFMT,X'40',1        LOADFILE
                                    2344             =GPWUIDA  EQU   GPWUIFMT,X'20',1        KEYED DIRECT ACCESS (URAM)
                                    2345             =GPWUIUND EQU   GPWUIFMT,X'10',1        UNDEFINED (URAM)
                                    2346             =GPWUIVBS EQU   GPWUIFMT,X'08',1        VAR. BLOCKED SPANNED  (URAM)
                                    2347             =GPWUIFLR EQU   GPWUIFMT,X'04',1        LRECL=
                                    2348             =GPWUIFN  EQU   GPWUIFMT,X'01',1        NUMBERED (LRECL ASSUMED)
1VGP      (VGP00) (09:47) (22MAR04) ORVYL'S FILE SYSTEM SERVICE PROCESSOR                                                   Page   18
0D-Loc  Object Code    Addr1 Addr2  Stmt Lv Lineno    Source Statement           (Hibal 5, Asmedit 3.3)  HLASM R4.0  2004/03/22 09.47
+_____  ______ ____    _____ _____  ____ __ ______    ______ _________
0                                   2349             =GPWUIFI  EQU   GPWUIFMT,X'02',1        INTEGER (LRECL ASSUMED)
                                    2350             =GPWUIFE  EQU   GPWUIFMT,X'01',1        EDIT
                                    2351             =GPWUIFV  EQU   GPWUIFMT,X'02',1        VARIABLE
                                    2352             =GPWUIMSK EQU   GPWUIFMT,X'7F',1        FORMAT MASK
 0000B9                             2353             =         DS    AL1                     RESERVED
 0000BA                             2354             =GPWUILRC DS    AL2                     FILE LRECL
                                    2355             =
                                    2356             =GPWMAXBS EQU   X'02000'                MAXIMUM BLOCKSIZE, 8K
                                    2357             =
 0000BC                             2358             =GPWBLKSZ DS    AL2                     File Block Size
 0000C0                             2359             =GPWBN    DS    A                       NUMBER OF NEXT BLOCK
00000C4                             2361             =GPWFILN  DS    CL44
                                    2362             =GPWFGRP  EQU   GPWFILN+4,2,C'C'        GROUP
                                    2363             =GPWFUSR  EQU   GPWFILN+7,3,C'C'        USER
                                    2364             =GPWFNAM  EQU   GPWFILN+11,33,C'C'
 0000F0                000F0 000C4  2365             =         ORG   GPWFILN                 OVERLAP OSFPB
1VGP      (VGP00) (09:47) (22MAR04) ORVYL'S FILE SYSTEM SERVICE PROCESSOR                                                   Page   19
0D-Loc  Object Code    Addr1 Addr2  Stmt Lv Lineno    Source Statement           (Hibal 5, Asmedit 3.3)  HLASM R4.0  2004/03/22 09.47
+_____  ______ ____    _____ _____  ____ __ ______    ______ _________
0                                   2367             =         COPY  OSFPB                   COPY IN FILE PARAMETER BLOCK
                                    2368             =*
                                    2369             =*  OS FILE PARAMETER BLOCK
                                    2370             =*
 0000C4                             2371             =OSFPBDS  DS    0F
 0000C4                             2372             =OSFDSN   DS    CL44                    DSNAME
 0000F0                             2373             =OSFMEM   DS    CL8                     MEMBER NAME
 0000F8                             2374             =OSFVOL   DS    CL6                     VOLUME ID
                                    2375             =
 0000FE 00                          2376             =OSFFDISP FLAG  ,                       DATA SET DISPOSITION FLAGS
 OSFFDISP.OSFNEW   C0 ONES          2380             =         FLAG  (OSFNEW,X'C0')          NEW DS
 OSFFDISP.OSFMOD   80 ONES          2389             =         FLAG  (OSFMOD,X'80')          MOD DS
 OSFFDISP.OSFOLD   40 ONES          2398             =         FLAG  (OSFOLD,X'40')          OLD DS
 OSFFDISP.OSFSHR   08 ONES          2407             =         FLAG  (OSFSHR,X'08')          SHARE (IMPLIES OLD)
 OSFFDISP.OSFIDSP  37 NZ            2416             =         FLAG  (OSFIDSP,X'37',NZ)      DISPOSITION RESERVED BITS
                                    2426             =
 0000FF 00                          2427             =OSFDSORG FLAG  ,                       DATA SET ORGANIZATION FLAGS
 OSFDSORG.OSFPS    40 ONES          2431             =         FLAG  (OSFPS,X'40')           SEQUENTIAL DATA SET
 OSFDSORG.OSFDA    20 ONES          2440             =         FLAG  (OSFDA,X'20')           DIRECT ACCESS DATA SET
 OSFDSORG.OSFPO    02 ONES          2449             =         FLAG  (OSFPO,X'02')           PARTITIONED DATA SET
 OSFDSORG.OSFIDSG  AD NZ            2458             =         FLAG  (OSFIDSG,X'AD',NZ)      DSORG RESERVED BITS
                                    2468             =
 000100 00                          2469             =OSFRECFM FLAG  ,                       DATA SET FORMAT FLAGS
 OSFRECFM.OSFRCFMU C0 ONES          2473             =         FLAG  (OSFRCFMU,X'C0')        RECFM=U
 OSFRECFM.OSFRCFMF 80 ONES          2482             =         FLAG  (OSFRCFMF,X'80')        RECFM=F
 OSFRECFM.OSFRCFMV 40 ONES          2491             =         FLAG  (OSFRCFMV,X'40')        RECFM=V
 OSFRECFM.OSFRCFMB 10 ONES          2500             =         FLAG  (OSFRCFMB,X'10')        RECFM=?B
 OSFRECFM.OSFRCFMS 08 ONES          2509             =         FLAG  (OSFRCFMS,X'08')        RECFM=?S
 OSFRECFM.OSFRCFMA 04 ONES          2518             =         FLAG  (OSFRCFMA,X'04')        RECFM=?A
 OSFRECFM.OSFRCFMM 02 ONES          2527             =         FLAG  (OSFRCFMM,X'02')        RECFM=?M
 OSFRECFM.OSFIRCFM 21 NZ            2536             =         FLAG  (OSFIRCFM,X'21',NZ)     RESERVED RECFM BITS
                                    2546             =
 000101                             2547             =OSFKEY   DS    X                       KEY LENGTH
 000102                             2548             =OSFLRECL DS    H                       LRECL
 000104                             2549             =OSFBLKSZ DS    H                       BLOCKSIZE
                                    2550             =
 000106 00                          2551             =OSFSPTYP FLAG  ,                       SPACE FLAGS
 OSFSPTYP.OSFSPCYL C0 ONES          2555             =         FLAG  (OSFSPCYL,X'C0')        CYLINDER ALLOCATION
 OSFSPTYP.OSFSPTRK 80 ONES          2564             =         FLAG  (OSFSPTRK,X'80')        TRACK ALLOCATION
 OSFSPTYP.OSFSPBLK 40 ONES          2573             =         FLAG  (OSFSPBLK,X'40')        BLOCK ALLOCATION
 OSFSPTYP.OSFSPCON 08 ONES          2582             =         FLAG  (OSFSPCON,X'08')        CONTIG
 OSFSPTYP.OSFSPMXG 04 ONES          2591             =         FLAG  (OSFSPMXG,X'04')        MAXIMUM CONTIG
 OSFSPTYP.OSFSPRND 01 ONES          2600             =         FLAG  (OSFSPRND,X'01')        ROUND
 OSFSPTYP.OSFISP   32 NZ            2609             =         FLAG  (OSFISP,X'32',NZ)       RESERVED SPACE BITS
                                    2619             =
 000107 00                          2620             =OSFFLAG  FLAG  ,                       MISCELLANY
 OSFFLAG.OSFSPRLS  20 ONES          2624             =         FLAG  (OSFSPRLS,X'20')        RLSE
 OSFFLAG.OSFIN     08 ONES          2633             =         FLAG  (OSFIN,X'08')           WILL READ DATA SET
 OSFFLAG.OSFOUT    04 ONES          2642             =         FLAG  (OSFOUT,X'04')          WILL WRITE DATA SET
 OSFFLAG.OSFUPD    02 ONES          2651             =         FLAG  (OSFUPD,X'02')          WILL UPDATE DATA SET
 OSFFLAG.OSFIFLG   D1 NZ            2660             =         FLAG  (OSFIFLG,X'D1',NZ)      RESERVED MISC BITS
                                    2670             =
 000108                             2671             =OSFSPQTY DS    F                       PRIMARY ALLOCATION QUANTITY
 00010C                             2672             =OSFSSQTY DS    F                       SECONDARY ALLOCATION QUANTITY
 000110                             2673             =OSFSDBLK DS    H                       NUMBER OF DIRECTORY BLOCKS
 000112                             2674             =OSFLIMCT DS    H                       LIMIT COUNT ON DA SEARCH
1VGP      (VGP00) (09:47) (22MAR04) ORVYL'S FILE SYSTEM SERVICE PROCESSOR                                                   Page   20
0D-Loc  Object Code    Addr1 Addr2  Stmt Lv Lineno    Source Statement           (Hibal 5, Asmedit 3.3)  HLASM R4.0  2004/03/22 09.47
+_____  ______ ____    _____ _____  ____ __ ______    ______ _________
0                                   2675             =
 000114                             2676             =         DS    22X                     RESERVED
                                    2677             =
                                    2678             =OSFPB    EQU   OSFPBDS,*-OSFPBDS
 00012A                0012A 0012A  2679             =         ORG   ,
                                    2680             =GPWFCB   EQU   GPWFILE,*-GPWFILE,C'X'  LENGTH OF FILE BLOCK
1VGP      (VGP00) (09:47) (22MAR04) ORVYL'S FILE SYSTEM SERVICE PROCESSOR                                                   Page   21
0D-Loc  Object Code    Addr1 Addr2  Stmt Lv Lineno    Source Statement           (Hibal 5, Asmedit 3.3)  HLASM R4.0  2004/03/22 09.47
+_____  ______ ____    _____ _____  ____ __ ______    ______ _________
0                                   2682             =* ALTERNATE FILE CONTROL BLOCK
                                    2683             =*
 00012C                             2684             =         DS    0F                      ALIGNMENT CHECK
 00012C                             2685             =GPWAFILE DS    0XL(L'GPWFCB)           ALTERNATE FILE CONTROL
 00012C                             2686             =GPWAFFL  DS    X                       ALTERNATE FILE FLAGS
 00012D                             2687             =GPWAFID  DS    X                       ALTERNATE FILE ID
 00012E                             2688             =GPWAFNL  DS    X                       ALTERNATE FILE NAME LEN
 00012F                             2689             =GPWALMNL DS    X                       ALTERNATE MEMBER LENGTH
 000130                             2690             =GPWALMN  DS    CL8                     ALTERNATE MEMBER NAME
 000138                             2691             =GPWALMN2 DS    CL8                     ALTERNAME MEMBER NAME2 (ALIAS)
 000140                             2692             =GPWALMF1 DS    X                       ALTERNATE MEMBER F1
 000141                             2693             =GPWALMF2 DS    X                       ALTERNATE MEMBER F2 FLGS
 000144                             2694             =GPWAMFBN DS    A                       ALTERNATE MEMBER FRST BLK
 000148                             2695             =GPWAMBCT DS    A                       ALTERNATE MEMBER # BLK'S
 00014C                             2696             =GPWAMLBN DS    A                       ALTERNATE MEMBER LST BLK
 000150                             2697             =GPWANXTA DS    A                       ALTERNATE NEXT ADDRESS
 000154                             2698             =GPWAFLG  DS    X                       ALTERNATE LIBRARY FLAGS
 000158                             2699             =GPWAUINF DS    A                       ALTERNATE FILE USER INFO
 00015C                             2700             =GPWABKSZ DS    AL2                     ALTERNATE File Block Size
 000160                             2701             =GPWABN   DS    A                       ALTERNATE FILE BLK #
 000164                             2702             =GPWAFN   DS    CL44                    ALTERNATE FILE NAME
 000190                00190 001CA  2703             =         ORG   GPWAFILE+L'GPWFCB
 0001CC                             2704             =GPWHCNT  DS    F                       COUNT OF HYBRID FILE BLOCKS
 0001D0                             2705             =GPWDELTA DS    F                       WYLBUR LINE NUMBER DELTA
                                    2706             =GPWWRK   EQU   GPWSTART,*-GPWSTART     CLEARED WORK AREA
-
                                    2708             =GPWTST   EQU   *                       1024 BYTE MAXIMUM LENGTH
 0001D4                001D4 00800  2709             =         ORG   GPWSTART+2*1024         PUT HEX BUFFER AT END
 000800                             2710             =         DC    0Y(*-GPWTST)            ASSEMBLY ERROR IF OVERFLOW
 000800                             2711             =GPWHXBUF DS    XL2048                  I/O BUFFER FOR HEX OPERATIONS
 001000                             2712             =GPWBUF   DS    XL8192                  GENERAL I/O BUFFER
                                    2713             =GPW      EQU   GPWSTART,*-GPWSTART,C'X'
1VGP      (VGP00) (09:47) (22MAR04) ORVYL'S FILE SYSTEM SERVICE PROCESSOR                                                   Page   22
0D-Loc  Object Code    Addr1 Addr2  Stmt Lv Lineno    Source Statement           (Hibal 5, Asmedit 3.3)  HLASM R4.0  2004/03/22 09.47
+_____  ______ ____    _____ _____  ____ __ ______    ______ _________
0                                   2715      57.              COPY  PRGCAT
 000000                00000 0000C  2716             =PRGCAT   DSECT
 000000                             2717             =PCATPTR  DS    A                       POINTER TO START OF CATALOG
 000004                             2718             =PCATEND  DS    A                       POINTER TO END OF CATALOG
 000008                             2719             =PCATSTRT DS    F                       PROGRAM CATALOG STARTS HERE
-
                                    2721      59.              COPY  DENTRY
                                    2722             =* LIBRARY DIRECTORY ENTRY
                                    2723             =*
 000000                00000 00010  2724             =DENTRY   DSECT
 000000                             2725             =DNAME    DS    CL8
 000008                             2726             =DALINAM  DS    CL8                     MEMBER NAME IF ALIAS
                                    2727             =DALICD   EQU   C' '                    ALIAS IF HIGHER THAN THIS
                                    2728             =
 000010                00010 00008  2729             =         ORG   DALINAM
 000008                             2730             =DFLG1    DS    X
                                    2731             =*        EQU   X'80'                    DON'T USE
                                    2732             =*        EQU   X'40'                   DON'T USE
                                    2733             =DFL1SHR  EQU   X'20'                   PROGRAM IS SHARABLE
                                    2734             =DFL1REF  EQU   X'10'                   MODULE IS PROTECTED(REFRESHABLE)
                                    2735             =DFL1PRV  EQU   X'08'                   MODULE IS PRIVATE
                                    2736             =DFL1M31  EQU   X'04'                   START IN 31 BIT MODE
                                    2737             =DFL1PAG  EQU   X'01'                   MODULE REQUIRES PAGE ALIGNMENT
                                    2738             =
 000009                             2739             =DFLG2    DS    X
                                    2740             =DFLGS    EQU   DFLG1,*-DFLG1
 00000A                             2741             =DFBN     DS    AL3                     FIRST BLOCK NUMBER
 00000D                             2742             =DBCT     DS    AL3                     BLOCK COUNT
 000010                             2743             =DNEXT    DS    0F
                                    2744             =DFLD     EQU   DFLG1,*-DFLG1
                                    2745             =DENTSIZ  EQU   *-DENTRY
-
                                    2747      61.              COPY  DIRB
                                    2748             =*  LIBRARY DIRECTORY BLOCK
                                    2749             =*
 000000                00000 00800  2750             =DIRB     DSECT
 000000                             2751             =DIRBLINK DS    A                       BLOCK NUMBER OF NEXT DIRB
 000004                             2752             =DIRBBNUM DS    A                       NUMBER OF THIS DIRB
 000008                             2753             =         DS    2A                      ***RESERVED***
 000010                             2754             =DIRBDENT DS    127CL(DENTSIZ)          DIRECTORY ENTRIES
                                    2755             =DIRBLEN  EQU   *-DIRB                  LENGTH OF DIRB
0000000                00000 00056  2757      63.     WA       RECORD BEGIN
                                    2765  1   64.                VSA   2,11
 000000                             2766  1 01-VSA   +           DS    (11+1-(2)+16*((2)/(11+1))/((2)/(11+1)))F
 000028                             2767  1   65.     WADEVFL    DS    X
 000029                             2768  1   66.     WADEVPR    DS    X
 00002A                             2769  1   67.     WADEVNM    DS    44X
                                    2770  1   68.     WADEVINF   EQU   WADEVFL,*-WADEVFL,C'X'
 000056                00056 00056  2771      69.              END   ,
1VGP      (VGP00) (09:47) (22MAR04) ORVYL'S FILE SYSTEM SERVICE PROCESSOR                                                   Page   23
0D-Loc  Object Code    Addr1 Addr2  Stmt Lv Lineno    Source Statement           (Hibal 5, Asmedit 3.3)  HLASM R4.0  2004/03/22 09.47
+_____  ______ ____    _____ _____  ____ __ ______    ______ _________
0000014                00000 022E0  2782      72.     VGP      CSECT ,
 USING  CLW,R10                     2784      73.              USING CLW,CLWR                ##
 USING  GPW,R12                     2793      74.              USING GPW,GPWR                ##
 USING  WA,R8                       2802      75.              USING WA,WAR                  ##
0000014 902B D000/188D       00000  2812      77.     FILES    VENTER  2,11,L'WA
 00001A 41D0 D058/0D70       00058  2817             +
 000020 9867 7030            00050  2832      78.              LM    BRR,BR,=A(BASE+4096,BASE)
 USING  *,R7
 DROP   *,R7                        2833      79.              USING BASE,BR,BRR             ##
 USING  BASE,R7
 USING  BASE+4096,R6
 000024 1820                        2853      80.              LR    SR,R0                   SAVE KEYWORD LENGTH
 000026 183F                        2854      81.              LR    TR,R15                  SAVE ENTRY CODE
 000028 9068 A358            00358  2855      82.              STM   BRR,WAR,CLWQRET         PROVIDE QUICK RETURN
 00002C 4D90 6926/0000       0195C  2856      83.              FSCALL FILSETUP
 000032 47F0 702C            00062  2860      84.              B     SETUPRTN
                                    2861      85.     BASE     EQU   *
                                    2862      86.     *
                                    2863      87.     * EXIT BRANCH TABLE
 000036 47F0 7008            0003E  2864      88.              B     EXIT                    NORMAL EXIT
 00003A 47F0 7022            00058  2865      89.              B     TYPERR                  ERROR MESSAGE EXIT
                                    2866      90.
 00003E                             2867      91.     EXIT     LABEL ,
 00003E 18F2                        2869      92.              LR    R15,SR                  RETURN CODE
 000040 1803                        2870      93.              LR    R0,TR
 000042 18D8/982B D000       00000  2871      94.              VEXIT 2,11,LTR
 000048 12FF/07F9                   2875             +
 000050                             2877      95.              LTORG
 000050 0000103600000036            2879                             =A(BASE+4096,BASE)
                                    2883      96.     *
 000058 5890 6A02/0D99       01A38  2884      97.     TYPERR   VCALL TYPEIT
 00005E 47F0 67D8            0180E  2888      98.              B     FILEXIT                 DROP FILES
1VGP      (VGP00) (09:47) (22MAR04) ORVYL'S FILE SYSTEM SERVICE PROCESSOR                                                   Page   24
0Current Usings:  (BASE+4096,R6) (BASE,R7) (WA,R8) (CLW,R10) (GPW,R12)
0Loc    Object Code    Addr1 Addr2  Stmt Lv Lineno    Source Statement           (Hibal 5, Asmedit 3.3)  HLASM R4.0  2004/03/22 09.47
+___    ______ ____    _____ _____  ____ __ ______    ______ _________
0000062                             2890     100.     SETUPRTN LABEL ,
                                    2893     102.              VGPTAB GPTAB,TR               BRANCH ON CODE
 000062 47F3 7030            00066  2894    01-VGPTA +         B     *+4(TR)
 000066 47F0 72AA            002E0  2895    01-VGPTA +         B     CREATE
 00006A 47F0 7074            000AA  2896    01-VGPTA +         B     ERASE
 00006E 47F0 754A            00580  2897    01-VGPTA +         B     GET
 000072 47F0 788E            008C4  2898    01-VGPTA +         B     PUT
 000076 47F0 718E            001C4  2899    01-VGPTA +         B     RENAME
 00007A 47F0 604C            01082  2900    01-VGPTA +         B     SHRINK
 00007E 47F0 647E            014B4  2901    01-VGPTA +         B     FBAL
 000082 47F0 6314            0134A  2902    01-VGPTA +         B     SETCLP
 000086 47F0 63CC            01402  2903    01-VGPTA +         B     SETFILEM
 00008A 47F0 63FA            01430  2904    01-VGPTA +         B     SETFORMA
 00008E 47F0 6338            0136E  2905    01-VGPTA +         B     SETNOCLP
 000092 47F0 62E2            01318  2906    01-VGPTA +         B     SETNOSHA
 000096 47F0 6396            013CC  2907    01-VGPTA +         B     SETNOSPI
 00009A 47F0 618C            011C2  2908    01-VGPTA +         B     SETPERMI
 00009E 47F0 6430            01466  2909    01-VGPTA +         B     SETPROGR
 0000A2 47F0 62C0            012F6  2910    01-VGPTA +         B     SETSHARE
 0000A6 47F0 6370            013A6  2911    01-VGPTA +         B     SETSPIFI
1VGP      (VGP00) (09:47) (22MAR04) ORVYL'S FILE SYSTEM SERVICE PROCESSOR                                                   Page   25
0Current Usings:  (BASE+4096,R6) (BASE,R7) (WA,R8) (CLW,R10) (GPW,R12)
0Loc    Object Code    Addr1 Addr2  Stmt Lv Lineno    Source Statement           (Hibal 5, Asmedit 3.3)  HLASM R4.0  2004/03/22 09.47
+___    ______ ____    _____ _____  ____ __ ______    ______ _________
0                                   2914     105.     *  ERASE A FILE
                                    2915     106.     *
 0000AA                             2916     107.     ERASE    LABEL ,
 0000AA 4D90 6926/0400       0195C  2918     108.              FSCALL GETMEMBR               LOOK FOR A LIBRARY MEMBER
 0000B0 4780 7138            0016E  2922     109.              BZ    ERASEMEM                FOUND ONE
 0000B4 4D90 6926/0404       0195C  2923     110.              FSCALL GETNAME                GET FILE NAME
 0000BA 5810 6A06            01A3C  2927     111.              LSCAN ERASEOPT,CLWKWCB        SCAN ERASE OPTIONS
 0000BE 41F0 A2C4            002C4  2941             +
 0000C2 58E0 6A0A/0DEE       01A40  2944             +
 0000C8 4770 67BE            017F4  2946     112.              BNZ SCRET                     ERROR
 0000CC 4D90 6926/1408       0195C  2947     113.              FSCALL ASMBLNAM               PUT NAME TOGETHER
 0000D2 4D90 6926/0010       0195C  2951     114.              FSCALL ATTOLDE                ATTACH FILE
 0000D8 9180 C0B8      000B8        2955     115.              IF    GPWUILIB,BEGIN
 0000DC 47E0 70DC            00112  2965             +
 0000E0 9110 C003      00003        2970  1  116.                IF    ~GPWFELIB,BEGIN
 0000E4 4710 70DC            00112  2980  1          +
 0000E8 4110 0000            00000  2985  2  117.                  SEG   'No member specified in '
 0000EC 4590 6966            0199C  2987  2          +
 0000F0 4D90 6926/0414       0195C  2988  2  118.                  FSCALL SEGNAME
 0000F6 5890 6A0E/0D99       01A44  2992  2  119.                  VMARK ,
 0000FC 4110 0018            00018  2997  2  120.                  SEG   'Erase entire library'
 000100 4590 6966            0199C  2999  2          +
 000104 4D90 6926/1414       0195C  3000  2  121.                  FSCALL RDERASE
 00010A 9180 C003      00003        3004  2  122.                  IF    ~GPWFERS,NOACTION
 00010E 47E0 68C4            018FA  3016  2          +
 000112                             3022  1  123.                END  ,
 000112 70E0           00112 000DE  3026     124.              END   ELSE,BEGIN              NOT A LIBRARY
 000112 47F0 70E8            0011E  3035             +
 000116 9110 C003      00003        3041  1  125.                IF    GPWFELIB,NOTLIB
 00011A 4710 6886            018BC  3053  1          +
 00011E                             3059     126.              END   ,
 00011E 9120 C003      00003        3063     127.              IF    GPWFCON,BEGIN           CONTENTS OPTION ?
 000122 47E0 710C            00142  3073             +
 000126 9110 C002      00002        3078  1  128.                IF    (GPWFNIXR,AND,~GPWFHYBR),NIXNIXR NOT ALLOWED
 00012A 47E0 7100            00136  3090  1          +
 00012E 9108 C002      00002        3101  1          +
 000132 47E0 7F80            00FB6  3104  1          +
 000136 4D90 6936            0196C  3110  1  129.                LCALL DELETE                  CLEAR FILE
 00013A 4110 002D            0002D  3112  1  130.                SEG   'Contents of '          TELL IT
 00013E 4590 6966            0199C  3114  1          +
 000142 7110           00142 00124  3115     131.              END   ELSE,BEGIN              ERASE OPTION
 000142 47F0 711A            00150  3124             +
 000146 4D90 6926/0850       0195C  3130  1  132.                FSCALL DOERASE                ZOT THE FILE
 00014C 947F C08C      0008C        3134  1  133.                CLEAR GPWFATT                 ERASE DETACHES FILE
 000150                             3141     134.              END   ,
 000150 4D90 6926/0414       0195C  3145     135.              FSCALL SEGNAME                FORMAT
 000156 4110 003A            0003A  3149     136.              SEG   'erased '               ANSWER
 00015A 4590 6966            0199C  3151             +
 00015E 47F0 67EE            01824  3152     137.              B     VFMSG
0000162 9610 C003      00003        3154     139.     ERASELIB SET   GPWFELIB                SET LIBRARY BIT
 000166 07FE                        3161     140.              SCRTN (15)
0000168 9620 C003      00003        3169     142.     CONTENTS SET   GPWFCON                 SET CONTENTS BIT
1VGP      (VGP00) (09:47) (22MAR04) ORVYL'S FILE SYSTEM SERVICE PROCESSOR                                                   Page   26
0Current Usings:  (BASE+4096,R6) (BASE,R7) (WA,R8) (CLW,R10) (GPW,R12)
0Loc    Object Code    Addr1 Addr2  Stmt Lv Lineno    Source Statement           (Hibal 5, Asmedit 3.3)  HLASM R4.0  2004/03/22 09.47
+___    ______ ____    _____ _____  ____ __ ______    ______ _________
000016C 07FE                        3176     143.              SCRTN (15)                    AND RETURN TO SCAN
1VGP      (VGP00) (09:47) (22MAR04) ORVYL'S FILE SYSTEM SERVICE PROCESSOR                                                   Page   27
0Current Usings:  (BASE+4096,R6) (BASE,R7) (WA,R8) (CLW,R10) (GPW,R12)
0Loc    Object Code    Addr1 Addr2  Stmt Lv Lineno    Source Statement           (Hibal 5, Asmedit 3.3)  HLASM R4.0  2004/03/22 09.47
+___    ______ ____    _____ _____  ____ __ ______    ______ _________
000016E                             3184     145.     ERASEMEM LABEL ,                       ERASE MEMBER OF LIBRARY
 00016E 5810 6A12            01A48  3186     146.              LSCAN ERAS#MEM,CLWKWCB        USER OR GROUP?
 000172 41F0 A2C4            002C4  3200             +
 000176 58E0 6A0A/0DEE       01A40  3203             +
 00017C 4D90 6926/1408       0195C  3205     147.              FSCALL ASMBLNAM               PUT NAME TOGETHER
 000182 4D90 6926/0010       0195C  3209     148.              FSCALL ATTOLDE                ATTACH FILE OLD,EXCLUSIVE
 000188 4D90 6926/1020       0195C  3213     149.              FSCALL DELMEM                 DELETE MEMBER SPECIFIED
 00018E 4740 68AC            018E2  3217     150.              BM    MEMNFND                 ERROR IF MEMBER NOT FOUND
 000192 9110 C0B4      000B4        3218     151.              IF    GPWALIAS,BEGIN          IF ALIAS REPORT REAL NAME TOO
 000196 47E0 7176            001AC  3228             +
 00019A 4D90 6926/0410       0195C  3233  1  152.                FSCALL SEGMEMB                SET ALIAS NAME IN MESSAGE
 0001A0 4110 0042            00042  3237  1  153.                SEG   'alias for '            IT WAS AN ALIAS
 0001A4 4590 6966            0199C  3239  1          +
 0001A8 94EF C0B4      000B4        3240  1  154.                CLEAR GPWALIAS                CLEAR FLAG FOR SEGMEMB
 0001AC                             3247     155.              END   ,
 0001AC 4D90 6926/0410       0195C  3251     156.              FSCALL SEGMEMB                REPORT DELETED MEMBER
 0001B2 4110 004D            0004D  3255     157.              SEG   'erased in '            'MEMBER' ERASED IN 'LIB'
 0001B6 4590 6966            0199C  3257             +
 0001BA 4D90 6926/0414       0195C  3258     158.              FSCALL SEGNAME                REPORT FILENAME
 0001C0 47F0 68DE            01914  3262     159.              B     QIETEXIT                RETURN WITH QUIET OPTION
1VGP      (VGP00) (09:47) (22MAR04) ORVYL'S FILE SYSTEM SERVICE PROCESSOR                                                   Page   28
0Current Usings:  (BASE+4096,R6) (BASE,R7) (WA,R8) (CLW,R10) (GPW,R12)
0Loc    Object Code    Addr1 Addr2  Stmt Lv Lineno    Source Statement           (Hibal 5, Asmedit 3.3)  HLASM R4.0  2004/03/22 09.47
+___    ______ ____    _____ _____  ____ __ ______    ______ _________
0                                   3264     161.     *  RENAME A FILE
                                    3265     162.     *
 0001C4                             3266     163.     RENAME   LABEL ,
 0001C4 9602 C001      00001        3268     164.              SET   GPWOSFOK                OS/FILES POSSIBLE
 0001C8 4D90 6926/0400       0195C  3274     165.              IF    ('FSCALL GETMEMBR',NZ),'FSCALL GETNAME'
 0001CE 4780 71A2            001D8  3285             +
 0001D2 4D90 6926/0404       0195C  3293             +
 0001D8 5810 6A16            01A4C  3299     166.              LSCAN RENAMCMD,CLWKWCB        PAST PREPOSITION
 0001DC 41F0 A2C4            002C4  3313             +
 0001E0 58E0 6A0A/0DEE       01A40  3316             +
 0001E6 47F0 67BE            017F4  3318     167.              B     SCRET                   BAD NEWS
 0001EA 4D90 6926/1408       0195C  3319     168.     RENEW    FSCALL ASMBLNAM               PUT NAME TOGETHER
 0001F0 9500 C08F      0008F        3323     169.              IF    (GPWLMNL,NE,0),RENAMEMB RENAME LIBRARY MEMBER
 0001F4 4770 7232            00268  3338             +
 0001F8 9108 C08C      0008C        3344     170.              IF    GPWFVOSF,BEGIN          OS/FILE RENAME
 0001FC 47E0 71D4            0020A  3354             +
 000200 4D90 6926/0018       0195C  3359  1  171.                FSCALL CHECKOS                FILE EXIST?
 000206 4740 68F0            01926  3363  1  172.                IF    M,OSNOTFND              COULDN'T FIND IT..SORRY
 00020A 71D8           0020A 001FE  3377     173.              END   ELSE,BEGIN              ORVYL FILE RENAME
 00020A 47F0 71DE            00214  3386             +
 00020E 4D90 6926/0010       0195C  3392  1  174.                FSCALL ATTOLDE                ATTACH EXCULSIVE
 000214                             3396     175.              END   ,
 000214 D29D C12C C08C 0012C 0008C  3400     176.              MVC   GPWAFILE,GPWFCB         MOVE TO ALTERNATE FCB
 00021A 4D90 6926/0004       0195C  3401     177.              FSCALL FNINIT                 CLEAR FILE-NAME AREA
 000220 D201 C08C C12C 0008C 0012C  3405     178.              MVC   GPWPFFL(2),GPWAFFL      RESET FLAGS AND FILE ID
 000226 947F C12C      0012C        3406     179.              CLEAR GPWAFFL.GPWFATT         DONT WANT ALTERNATE ATTACHED
 00022A 94FD C08C      0008C        3413     180.              CLEAR GPWFFFN                 CLEAR FULL FILENAME
 00022E 4D90 6926/0404       0195C  3420     181.              FSCALL GETNAME                GET FILENAME
 000234 5810 6A1A            01A50  3424     182.              LSCAN USRGPTB0,CLWKWCB        AND USER AND GROUP
 000238 41F0 A2C4            002C4  3438             +
 00023C 58E0 6A0A/0DEE       01A40  3441             +
 000242 4D90 6926/1408       0195C  3443     183.              FSCALL ASMBLNAM               PUT IT TOGETHER
 000248 9102 C08C      0008C        3447     184.              IF    (~GPWFFFN,AND,GPWFVOSF),BEGIN
 00024C 4710 7228            0025E  3459             +
 000250 9108 C08C      0008C        3470             +
 000254 47E0 7228            0025E  3471             +
 000258 D202 C0C4 6B74 000C4 01BAA  3476  1  185.                MVC   GPWFILN(3),=C'WYL'      RESET WYL. PREFIX
 00025E                             3477     186.              END   ,
 00025E 4D90 6926/0854       0195C  3481     187.              FSCALL DORENAME               RENAME THE FILE
 000264 47F0 746A            004A0  3485     188.              B     CRMSG                   DONE
1VGP      (VGP00) (09:47) (22MAR04) ORVYL'S FILE SYSTEM SERVICE PROCESSOR                                                   Page   29
0Current Usings:  (BASE+4096,R6) (BASE,R7) (WA,R8) (CLW,R10) (GPW,R12)
0Loc    Object Code    Addr1 Addr2  Stmt Lv Lineno    Source Statement           (Hibal 5, Asmedit 3.3)  HLASM R4.0  2004/03/22 09.47
+___    ______ ____    _____ _____  ____ __ ______    ______ _________
0                                   3487     190.     *
                                    3488     191.     *  RENAME LIBRARY MEMBER
                                    3489     192.     *
 000268                             3490     193.     RENAMEMB LABEL ,
 000268 1B11/41F0 A2C4       002C4  3492     194.              SCAN  ,CLWKWCB                GET MEMBER NAME
 00026E 58E0 6A0A/0DEE       01A40  3506             +
 000274 4780 6778            017AE  3508     195.              BZ    MISSING                 MUST BE SOMETHING
 000278 4740 6790            017C6  3509     196.              BM    UNREC                   INVALID STRING
 00027C 5900 6A1E            01A54  3510     197.     RENAMB   IF    (R0,GT,8),INVALMEM      TOO LONG
 000280 4720 6898            018CE  3525             +
 000284 D207 C098 698A 00098 019C0  3531     198.              MVC   GPWLMN2,=CL8' '         BLANK IT OUT
 00028A 1820                        3532     199.              LR    SR,R0                   PUT LENGTH WHERE USEABLE
 00028C 0620/4420 6C90       01CC6  3533     200.              DEX   SR,'OC  GPWLMN2(0),@R1'
 001CC6 D600 C098 1000 00098 00000  3544             +
 000292 5810 6A22            01A58  3552     201.              LSCAN QUIETBL,CLWKWCB         LOOK FOR QUIET
 000296 41F0 A2C4            002C4  3566             +
 00029A 58E0 6A0A/0DEE       01A40  3569             +
 0002A0 4770 67BE            017F4  3571     202.              BNZ   SCRET
 0002A4 9602 C107      00107        3572     203.              SET   OSFUPD                  OPEN FOR UPDATE
 0002A8 4D90 6926/0010       0195C  3578     204.              FSCALL ATTOLDE                ATTACH OLD FILE
 0002AE 4D90 6926/1018       0195C  3582     205.              FSCALL RNAMEMEM               RENAME MEMBER OR ALIAS
 0002B4 4740 68AC            018E2  3586     206.              BM    MEMNFND                 MEMBER NOT FOUND
 0002B8 4720 728E            002C4  3587     207.              BH    N2EXISTS                NEW NAME ALREAD EXISTS
 0002BC 9610 C0B4      000B4        3588     208.              SET   GPWALIAS
 0002C0 47F0 7536            0056C  3594     209.              B     CREATMBS                ADD 'X CREATED IN LIB' ..DONE
                                    3595     210.
 0002C4                             3596     211.     N2EXISTS LABEL ,
 0002C4 9610 C0B4      000B4        3598     212.              SET   GPWALIAS
 0002C8 4D90 6926/0410       0195C  3604     213.              FSCALL SEGMEMB
 0002CE 4110 0058            00058  3608     214.              SEG   'already exists in '
 0002D2 4590 6966            0199C  3610             +
 0002D6 4D90 6926/0414       0195C  3611     215.              FSCALL SEGNAME
 0002DC 47F0 68A8            018DE  3615     216.              B     ERROR
1VGP      (VGP00) (09:47) (22MAR04) ORVYL'S FILE SYSTEM SERVICE PROCESSOR                                                   Page   30
0Current Usings:  (BASE+4096,R6) (BASE,R7) (WA,R8) (CLW,R10) (GPW,R12)
0Loc    Object Code    Addr1 Addr2  Stmt Lv Lineno    Source Statement           (Hibal 5, Asmedit 3.3)  HLASM R4.0  2004/03/22 09.47
+___    ______ ____    _____ _____  ____ __ ______    ______ _________
0                                   3617     218.     *  CREATE A FILE
                                    3618     219.     *
 0002E0                             3619     220.     CREATE   LABEL ,                       GET FILE NAME
 0002E0 4D90 6926/0400       0195C  3621     221.              IF    ('FSCALL GETMEMBR',NZ),'FSCALL GETNAME'
 0002E6 4780 72BA            002F0  3632             +
 0002EA 4D90 6926/0404       0195C  3640             +
 0002F0 9620 C003      00003        3646     222.              SET   GPWFCREF
 0002F4 5810 6A26            01A5C  3652     223.              LSCAN CREATBLF,CLWKWCB        SCAN CREATE OPTIONS
 0002F8 41F0 A2C4            002C4  3666             +
 0002FC 58E0 6A0A/0DEE       01A40  3669             +
 000302 4770 67BE            017F4  3671     224.              BNZ   SCRET                   ERROR
 000306 9140 C003      00003        3672     225.              IF    GPWFAPP,APPILLEG        APPEND WITHOUT FROM ILLEGAL
 00030A 4710 6788            017BE  3684             +
 00030E 4D90 6926/1408       0195C  3690     226.              FSCALL ASMBLNAM               GET FILENAME
 000314 9500 C08F      0008F        3694     227.              IF    (GPWLMNL,NE,0),CREAMBNO PDS MEMBER CREATION ILLEGAL
 000318 4770 74AC            004E2  3709             +
 00031C 9108 C08C      0008C        3715     228.              IF    ~GPWFVOSF,BEGIN         CREATE ORVYL FILE
 000320 4710 730E            00344  3725             +
 000324 4D90 7A0C            00A42  3730  1  229.                LCALL ATTFPUT
 000328 5890 6A2A/0D99       01A60  3732  1  230.                VCALL SETFMT                  SET FORMAT FIELD
 00032E 9110 C003      00003        3736  1  231.                IF    GPWFELIB,'SET GPWUILIB'
 000332 47E0 7304            0033A  3746  1          +
 000336 9680 C0B8      000B8        3757  1          +
 00033A 4D90 6926/0830       0195C  3762  1  232.                FSCALL SETUINFO
 000340 47F0 746A            004A0  3766  1  233.                B     CRMSG                   DONE.
 000344                             3767     234.              END
 000344 9108 C08C      0008C        3771     235.              IF    GPWFVOSF,BEGIN          CREATE OS FILE (PDS)
 000348 47E0 733A            00370  3781             +
 00034C 4D90 6926/0018       0195C  3786  1  236.                FSCALL CHECKOS                IF OS FILE EXISTS, ABORT
 000352 4780 67DE            01814  3790  1  237.                BZ    REQABORT
 000356 9110 C003      00003        3791  1  238.                IF    GPWFELIB,'SET OSFPO'    LIBRARY
 00035A 47E0 732C            00362  3801  1          +
 00035E 9602 C0FF      000FF        3812  1          +
 000362 96C0 C0FE      000FE        3817  1  239.                SET   OSFNEW
 000366 4D90 6926/001C       0195C  3823  1  240.                FSCALL ATTOUTOS               OS/FILE CREATE
 00036C 47F0 746A            004A0  3827  1  241.                B     CRMSG
 000370                             3828     242.              END
                                    3832     243.
 000370 4D90 6926/1408       0195C  3833     244.     CREFROM  FSCALL ASMBLNAM                GET FIRST FILENAME
 000376 9500 C08F      0008F        3837     245.              IF    (GPWLMNL,NE,0),CREAMBNO
 00037A 4770 74AC            004E2  3852             +
 00037E D200 C12E C08E 0012E 0008E  3858     246.              MVC   GPWAFNL,GPWFNL          SAVE FILE NAME
 000384 D22B C164 C0C4 00164 000C4  3859     247.              MVC   GPWAFN,GPWFILN
 00038A                             3860     248.              CLEAR GPWFCB
 00038A D79D C08C C08C 0008C 0008C  3866             +
 000390 4D90 6926/0004       0195C  3867     249.              FSCALL FNINIT
 000396 4D90 6926/0404       0195C  3871     250.              FSCALL GETNAME                GET SECOND FILENAME
 00039C 5810 6A2E            01A64  3875     251.              LSCAN CREATBL,CLWKWCB         SCAN CREATE OPTIONS
 0003A0 41F0 A2C4            002C4  3889             +
 0003A4 58E0 6A0A/0DEE       01A40  3892             +
 0003AA 4770 67BE            017F4  3894     252.              BNZ   SCRET                   ERROR
 0003AE 4D90 6926/1408       0195C  3895     253.              FSCALL ASMBLNAM                GET SECOND FILENAME
 0003B4 4D90 6926/000C       0195C  3899     254.              FSCALL ATTOLD                 GET 'FROM' FILE
 0003BA 4D90 6926/084C       0195C  3903     255.              FSCALL SENLDF                 IS IT CLPONLY?
1VGP      (VGP00) (09:47) (22MAR04) ORVYL'S FILE SYSTEM SERVICE PROCESSOR                                                   Page   31
0Current Usings:  (BASE+4096,R6) (BASE,R7) (WA,R8) (CLW,R10) (GPW,R12)
0Loc    Object Code    Addr1 Addr2  Stmt Lv Lineno    Source Statement           (Hibal 5, Asmedit 3.3)  HLASM R4.0  2004/03/22 09.47
+___    ______ ____    _____ _____  ____ __ ______    ______ _________
00003C0 4770 6758            0178E  3907     256.              IF    NZ,NORDPRIV             YES, FORGET IT
 0003C4 4D90 6926/083C       0195C  3921     257.              FSCALL DOSENCLP               SENSE CLP ACCESS
 0003CA 4770 749A            004D0  3925     258.              IF    NZ,NOACCLP
 0003CE 4D90 6926/1420       0195C  3939     259.              FSCALL CHKSPIRE               AVOID SPIRES ONLY
 0003D4 9180 C0B8      000B8        3943     260.              IF    (GPWUILIB,AND,GPWFAPP),CRAPLIB  APPEND
 0003D8 47E0 73AE            003E4  3955             +
 0003DC 9140 C003      00003        3966             +
 0003E0 4710 747C            004B2  3969             +
 0003E4 D200 C12D C08D 0012D 0008D  3975     261.              MVC   GPWAFID,GPWFID          'FROM' BECOMES ALTERNATE
 0003EA 947F C08C      0008C        3976     262.              CLEAR GPWFATT
 0003EE 9680 C12C      0012C        3983     263.              SET   GPWAFFL.GPWFATT         MARK ALTERNATE ATTACHED
 0003F2 4310 C08E            0008E  3989     264.              IC    R1,GPWFNL               SWAP 'FROM' & CREATE FILE NAMES
 0003F6 D22B D000 C054 00000 00054  3990     265.              MVC   @R13(L'GPWFN),GPWFFN    'FROM' NAME TO SAVE AREA
 0003FC D200 C08E C12E 0008E 0012E  3991     266.              MVC   GPWFNL,GPWAFNL
 000402 D22B C0C4 C164 000C4 00164  3992     267.              MVC   GPWFILN(L'GPWFN),GPWAFN
 000408 4210 C12E            0012E  3993     268.              STC   R1,GPWAFNL
 00040C D22B C164 D000 00164 00000  3994     269.              MVC   GPWAFN,@R13
 000412 D201 C15C C0BC 0015C 000BC  3995     270.              MVC   GPWABKSZ,GPWBLKSZ       Block size
 000418 4D90 7A0C            00A42  3996     271.              LCALL ATTFPUT                 ATTACH FOR PUTTING
 00041C D501 C15C C0BC 0015C 000BC  3998     272.              CLC   GPWABKSZ,GPWBLKSZ       Block sizes same?
 000422 4770 74B8            004EE  3999     273.              BNE   CREBLKSZ                Error if not
 000426 9640 C000      00000        4000     274.              SET   GPWFALTF                INDICATE ALTERNATE FILE
 00042A 9610 C08C      0008C        4006     275.              SET   GPWFFMT                 ASSUME FORMAT
 00042E 4D90 6926/0834       0195C  4012     276.              FSCALL SENUINFO               GET USER INFO
 000434 5010 C0B8            000B8  4016     277.              ST    R1,GPWUINFO             SAV UINFO
 000438 4780 740A            00440  4017     278.              BZ    *+8                     SKIP IF FORMAT
 00043C 94EF C08C      0008C        4018     279.              CLEAR GPWFFMT                 NOT A FORMAT
 000440 94BF C000      00000        4025     280.              CLEAR GPWFALTF                PRIMARY FILE
 000444 4D90 6926/0830       0195C  4032     281.              FSCALL SETUINFO               GO SET USER INFO
 00044A 5830 C0C0            000C0  4036     282.              L     TR,GPWBN                TR IS FIRST BLOCK TO WRITE
 00044E 9140 C003      00003        4037     283.              IF    ~GPWFAPP,'CLEAR TR'     BLOCK ZERO IF NOT APPEND
 000452 4710 7422/1B33       00458  4047             +
 000458 0630                        4061     284.              DECR  TR                      DECREMENT
 00045A 1B22                        4063     285.              CLEAR SR                      ZERO SR (INPUT BLOCK NO)
 00045C 5020 C0C0            000C0  4067     286.     CRELOOP  ST    SR,GPWBN                BLOCK TO READ
 000460 9640 C000      00000        4068     287.              SET   GPWFALTF                FROM ALT FILE
 000464 4D90 6926/0C08       0195C  4074     288.              FSCALL READ                    GET 1 BLOCK
 00046A 4770 7466            0049C  4078     289.              BNZ   CREEND                  NO MORE BLOCKS TO READ
 00046E 18F1                        4079     290.              LR    R15,1                   BLOCK LENGTH
 000470 5820 C0C0            000C0  4080     291.              L     SR,GPWBN                BLOCK NUMBER
 000474 1812                        4081     292.              LR    R1,SR                   COMPUTE OUTPUT BLOCK NO
 000476 1A13                        4082     293.              AR    R1,TR                   ADD OFFSET
 000478 5010 C0C0            000C0  4083     294.              ST    R1,GPWBN                BLOCK TO BE WRITTEN
 00047C 94BF C000      00000        4084     295.              CLEAR GPWFALTF                WRITE TO PRIMARY FILE
 000480 59F0 6A32            01A68  4091     296.              IF    (R15,GE,4),BEGIN        ENOUGH DATA TO WRITE?
 000484 4750 7458            0048E  4103             +
 000488 4D90 6926/0C14       0195C  4108  1  297.                FSCALL WRITE                   YES, DO IT
 00048E 745C           0048E 00486  4112     298.              END   ELSE,BEGIN
 00048E 47F0 7462            00498  4121             +
 000492 4D90 6926/0800       0195C  4127  1  299.                FSCALL CREC                   OTHERWISE, DO A CREATE BLOCK
 000498                             4131     300.              END   ,
 000498 47F0 7426            0045C  4135     301.              B     CRELOOP
                                    4136     302.
 00049C                             4137     303.     CREEND   LABEL ,
1VGP      (VGP00) (09:47) (22MAR04) ORVYL'S FILE SYSTEM SERVICE PROCESSOR                                                   Page   32
0Current Usings:  (BASE+4096,R6) (BASE,R7) (WA,R8) (CLW,R10) (GPW,R12)
0Loc    Object Code    Addr1 Addr2  Stmt Lv Lineno    Source Statement           (Hibal 5, Asmedit 3.3)  HLASM R4.0  2004/03/22 09.47
+___    ______ ____    _____ _____  ____ __ ______    ______ _________
000049C 94BF C000      00000        4139     304.              CLEAR GPWFALTF                STOP ALT FILE PROCESSING
 0004A0 4D90 6926/0414       0195C  4146     305.     CRMSG    FSCALL SEGNAME                FORMAT
 0004A6 4110 006B            0006B  4150     306.              SEG   'created '              ANSWER
 0004AA 4590 6966            0199C  4152             +
 0004AE 47F0 67EE            01824  4153     307.              B     VFMSG
1VGP      (VGP00) (09:47) (22MAR04) ORVYL'S FILE SYSTEM SERVICE PROCESSOR                                                   Page   33
0Current Usings:  (BASE+4096,R6) (BASE,R7) (WA,R8) (CLW,R10) (GPW,R12)
0Loc    Object Code    Addr1 Addr2  Stmt Lv Lineno    Source Statement           (Hibal 5, Asmedit 3.3)  HLASM R4.0  2004/03/22 09.47
+___    ______ ____    _____ _____  ____ __ ______    ______ _________
00004B2                             4155     309.     CRAPLIB  LABEL ,
 0004B2 4110 0074            00074  4157     310.              SEG   'Cannot append from a library'
 0004B6 4590 6966            0199C  4159             +
 0004BA 47F0 68A8            018DE  4160     311.              B     ERROR
                                    4161     312.
 0004BE 4D90 6926/0414       0195C  4162     313.     CRALREDY FSCALL SEGNAME
 0004C4 4110 0091            00091  4166     314.              SEG   'already exists.'
 0004C8 4590 6966            0199C  4168             +
 0004CC 47F0 68A8            018DE  4169     315.              B     ERROR
                                    4170     316.
 0004D0 4D90 6926/0414       0195C  4171     317.     NOACCLP  FSCALL SEGNAME
 0004D6 4110 00A1            000A1  4175     318.              SEG   'may not be accessed by CLP'
 0004DA 4590 6966            0199C  4177             +
 0004DE 47F0 68A8            018DE  4178     319.              B     ERROR
                                    4179     320.
 0004E2 4110 00BC            000BC  4180     321.     CREAMBNO SEG   'Library member creation not available'
 0004E6 4590 6966            0199C  4182             +
 0004EA 47F0 68A8            018DE  4183     322.              B     ERROR
                                    4184     323.
 0004EE 4110 00E2            000E2  4185     324.     CREBLKSZ SEG   'Cannot complete "CREATE FROM", blocksize incompatible'
 0004F2 4590 6966            0199C  4187             +
 0004F6 47F0 68A8            018DE  4188     325.              B     ERROR
1VGP      (VGP00) (09:47) (22MAR04) ORVYL'S FILE SYSTEM SERVICE PROCESSOR                                                   Page   34
0Current Usings:  (BASE+4096,R6) (BASE,R7) (WA,R8) (CLW,R10) (GPW,R12)
0Loc    Object Code    Addr1 Addr2  Stmt Lv Lineno    Source Statement           (Hibal 5, Asmedit 3.3)  HLASM R4.0  2004/03/22 09.47
+___    ______ ____    _____ _____  ____ __ ______    ______ _________
0                                   4190     327.     *
                                    4191     328.     *  CREATE ALIAS FOR LIBRARY MEMBER
                                    4192     329.     *
 0004FA                             4193     330.     CREALIAS LABEL ,
 0004FA 4D90 6926/1408       0195C  4195     331.              FSCALL ASMBLNAM                PUT NAME TOGETHER
 000500 9500 C08F      0008F        4199     332.              IF    (GPWLMNL,EQ,0),MEMNTSPC
 000504 4780 6718            0174E  4214             +
 000508 5810 6A36            01A6C  4220     333.              L     R1,=A(ALIASFTB)
 00050C 41F0 A2C4            002C4  4221     334.              SCAN  (1),CLWKWCB             GET MEMBER NAME
 000510 58E0 6A0A/0DEE       01A40  4236             +
 000516 47F0 6778            017AE  4238     335.              B     MISSING
 00051A                             4239     336.     CRENAMB  LABEL ,
 00051A D207 C098 C090 00098 00090  4241     337.              MVC   GPWLMN2(8),GPWLMN
 000520 5900 6A1E            01A54  4242     338.              IF    (R0,GT,8),INVALMEM      TOO LONG
 000524 4720 6898            018CE  4256             +
 000528 D207 C090 698A 00090 019C0  4262     339.              MVC   GPWLMN,=CL8' '          BLANK IT OUT
 00052E 1820                        4263     340.              LR    SR,R0                   PUT LENGTH WHERE USEABLE
 000530 0620/4420 6C96       01CCC  4264     341.              DEX   SR,'OC  GPWLMN(0),@R1'
 001CCC D600 C090 1000 00090 00000  4275             +
 000536 5810 6A22            01A58  4283     342.              LSCAN QUIETBL,CLWKWCB         LOOK FOR QUIET
 00053A 41F0 A2C4            002C4  4297             +
 00053E 58E0 6A0A/0DEE       01A40  4300             +
 000544 4770 67BE            017F4  4302     343.              BNZ   SCRET
 000548 9602 C107      00107        4303     344.              SET   OSFUPD                  OPEN FOR UPDATE
 00054C 4D90 6926/0010       0195C  4309     345.              FSCALL ATTOLDE                ATTACH OLD FILE
 000552 4D90 6926/101C       0195C  4313     346.              FSCALL ADDALIAS               RENAME MEMBER OR ALIAS
 000558 4740 68AC            018E2  4317     347.              BM    MEMNFND                 MEMBER NOT FOUND
 00055C 4720 728E            002C4  4318     348.              BH    N2EXISTS                NEW NAME ALREADY EXISTS
 000560 4110 0118            00118  4319     349.              SEG   'Alias '
 000564 4590 6966            0199C  4321             +
 000568 9610 C0B4      000B4        4322     350.              SET   GPWALIAS
 00056C 4D90 6926/0410       0195C  4328     351.     CREATMBS FSCALL SEGMEMB
 000572 4110 006B            0006B  4332     352.              SEG   'created '
 000576 4590 6966            0199C  4334             +
 00057A 47F0 7DCA            00E00  4335     353.              B     PUTESEND                GENERATE MESSAGE
                                    4336     354.
 00057E                             4337     355.     CREATAFO LABEL ,                      BYPASS 'FOR'
 00057E 07FE                        4339     356.              SCRTN (15)
1VGP      (VGP00) (09:47) (22MAR04) ORVYL'S FILE SYSTEM SERVICE PROCESSOR                                                   Page   35
0Current Usings:  (BASE+4096,R6) (BASE,R7) (WA,R8) (CLW,R10) (GPW,R12)
0Loc    Object Code    Addr1 Addr2  Stmt Lv Lineno    Source Statement           (Hibal 5, Asmedit 3.3)  HLASM R4.0  2004/03/22 09.47
+___    ______ ____    _____ _____  ____ __ ______    ______ _________
0                                   4347     358.     *  GET FILE
                                    4348     359.     *
 000580                             4349     360.     GET      LABEL ,
 000580 4D90 6926/0400       0195C  4351     361.              IF    ('FSCALL GETMEMBR',NZER),'FSCALL GETNAME'
 000586 4780 755A            00590  4362             +
 00058A 4D90 6926/0404       0195C  4370             +
 000590 9604 C006      00006        4376     362.              SET   GPWGPFBK                STOP BLOCK
 000594 5810 6A3A            01A70  4382     363.              LSCAN GETTBL,CLWKWCB          GET OPTIONS
 000598 41F0 A2C4            002C4  4396             +
 00059C 58E0 6A0A/0DEE       01A40  4399             +
 0005A2 4770 67BE            017F4  4401     364.              BNZ   SCRET
                                    4402     365.
 0005A6 4D90 6926/1408       0195C  4403     366.              FSCALL ASMBLNAM                PUT NAME TOGETHER
 0005AC 9124 A22B      0022B        4407     367.              TM    CLWWLMOD+3,WSSBRK+WPRHBT CHANGES OK?
 0005B0 4770 6738            0176E  4408     368.              BNZ   BLOCKED                 NO
 0005B4 4D90 6926/086C       0195C  4409     369.              FSCALL SENSWDS                 ANYTHING THERE
 0005BA 1211                        4413     370.              LTR   R1,1
 0005BC 4780 75A8            005DE  4414     371.              BZ    GETSET                  NO
 0005C0 91C0 C003      00003        4415     372.              IF    (GPWFCLR+GPWFMRG,NZ),GETSET   CLEAR OR MERGE?
 0005C4 4770 75A8            005DE  4432             +
 0005C8 4110 011F            0011F  4438     373.              SEG   'OK to clear'
 0005CC 4590 6966            0199C  4440             +
 0005D0 4D90 6926/1414       0195C  4441     374.              FSCALL RDERASE                 ASK USER
 0005D6 91C0 C003      00003        4445     375.              IF    (GPWFCLR+GPWFMRG,Z),NOACTION  OK?
 0005DA 4780 68C4            018FA  4462             +
                                    4468     376.
 0005DE                             4469     377.     GETSET   LABEL ,
 0005DE 4D90 6926/000C       0195C  4471     378.              FSCALL ATTOLD                 GET FILE
 0005E4 4D90 6926/084C       0195C  4475     379.              FSCALL SENLDF                 IS IT CLPONLY?
 0005EA 4770 6758            0178E  4479     380.              IF    NZ,NORDPRIV             YES, FORGET IT
 0005EE 4D90 6926/083C       0195C  4493     381.              FSCALL DOSENCLP               SENSE CLP ACCESS
 0005F4 4770 749A            004D0  4497     382.              IF    NZ,NOACCLP
 0005F8 4D90 6926/1420       0195C  4511     383.              FSCALL CHKSPIRE               AVOID SPIRES ONLY
 0005FE 5890 6A3E/0D99       01A74  4515     384.              VCALL GETFMT                   CHECK USER INFO FOR ATTRIBTES
 000604 9120 C006      00006        4519     385.              IF    GPWGPFLR,GETLREC        LRECL?
 000608 4710 75FE            00634  4531             +
 00060C 9102 C006      00006        4537     386.              IF    GPWGPFHX,NIXHEX         HEX?
 000610 4710 7F70            00FA6  4549             +
 000614 4120 0002            00002  4555     387.              LA    SR,2                    SET INSERT ONLY OPTION
 000618 9140 C003      00003        4556     388.              IF    GPWFMRG,'CLEAR SR'      SET MERGE CODE
 00061C 47E0 75EC/1B22       00622  4566             +
 000622 9140 C006      00006        4580     389.              IF    GPWGPFV,GETCOM          VARIABLE?
 000626 4710 7646            0067C  4592             +
 00062A 4D90 6926/0860       0195C  4598     390.              FSCALL SETPREST                SET EDIT FORMAT
 000630 47F0 7646            0067C  4602     391.              B     GETCOM                  CONTINUE
                                    4603     392.
 000634                             4604     393.     GETLREC  LABEL ,
 000634 9102 C006      00006        4606     394.              IF    (GPWGPFHX,AND,('TM GPWLREC+1,1',O)),HEXNEVEN
 000638 47E0 760E            00644  4618             +
 00063C 9101 C035      00035        4627             +
 000640 4710 7FB8            00FEE  4630             +
 000644                             4636     395.              IF    (GPWLREC,Z),ZRLREC      CAN'T HAVE THIS
 000644 D601 C034 C034 00034 00034  4646             +
 00064A 4780 7FC8            00FFE  4649             +
1VGP      (VGP00) (09:47) (22MAR04) ORVYL'S FILE SYSTEM SERVICE PROCESSOR                                                   Page   36
0Current Usings:  (BASE+4096,R6) (BASE,R7) (WA,R8) (CLW,R10) (GPW,R12)
0Loc    Object Code    Addr1 Addr2  Stmt Lv Lineno    Source Statement           (Hibal 5, Asmedit 3.3)  HLASM R4.0  2004/03/22 09.47
+___    ______ ____    _____ _____  ____ __ ______    ______ _________
000064E 9101 C003      00003        4655     396.              IF    GPWFRNUM,NIXRENUM       RENUMBER?
 000652 4710 7F90            00FC6  4667             +
 000656 4120 0004            00004  4673     397.              LA    SR,4                    SET CODE
 00065A 9101 C006      00006        4674     398.              IF    ~GPWGPFN,GETCOM         NUMBERED?
 00065E 47E0 7646            0067C  4686             +
 000662 D501 C034 6B0A 00034 01B40  4692     399.              CLC   GPWLREC(2),=Y(80)       VALID?
 000668 4770 7646            0067C  4693     400.              BNE   GETCOM                  NO
 00066C 4120 0005            00005  4694     401.              LA    SR,5                    SET NUMBERED
 000670 9180 C006      00006        4695     402.              IF    ~GPWGPFIN,GETCOM        INTEGER?
 000674 47E0 7646            0067C  4707             +
 000678 4120 0006            00006  4713     403.              LA    SR,6                    SET INTEGER
                                    4714     404.
 00067C                             4715     405.     GETCOM   LABEL ,
 00067C 4020 C018            00018  4717     406.              STH   SR,GPWOPT
 000680 9180 C0B8      000B8        4718     407.              IF    GPWUILIB,BEGIN         PRIME IF L
 000684 47E0 7664            0069A  4728             +
 000688 9500 C08F      0008F        4733  1  408.                IF    (GPWLMNL,EQ,0),MEMNTSPC
 00068C 4780 6718            0174E  4748  1          +
 000690 4D90 6926/100C       0195C  4754  1  409.                FSCALL GETMEM                 INITIALIZE MEMBER READ
 000696 4740 68AC            018E2  4758  1  410.                BM    MEMNFND                 NOT THERE
 00069A                             4759     411.              END   ,
 00069A 7668           0069A 00686  4763     412.              ELSE  BEGIN
 00069A 47F0 7670            006A6  4768             +
 00069E 9500 C08F      0008F        4774  1  413.                IF    (GPWLMNL,NE,0),NOTLIB
 0006A2 4770 6886            018BC  4789  1          +
 0006A6                             4795     414.              END   ,
 0006A6 9140 C003      00003        4799     415.              IF    GPWFMRG,GETCLR          MERGE?
 0006AA 4710 767E            006B4  4811             +
 0006AE 4D90 6926/0878       0195C  4817     416.              FSCALL CLRWDS                  DO CLEAR TEXT
                                    4821     417.
 0006B4 9108 C006      00006        4822     418.     GETCLR   IF    ~GPWGPFSK,GETLOOP       SKIP?
 0006B8 47E0 76D8            0070E  4835             +
 0006BC 1B11                        4841     419.              CLEAR R1
 0006BE 5840 C02C            0002C  4845     420.              L     QR,GPWSKIP              SKIP COUNT
 0006C2 4820 C034            00034  4846     421.              LH    SR,GPWLREC              LRECL
 0006C6 1211/4720 76A4       006DA  4847     422.     GETSKIP  IF    (R1,NP),BEGIN           NO MORE IN THIS BUFFER
 0006CC 4D90 6926/0C08       0195C  4862  1  423.                FSCALL READ                   GET NEXT BLOCK
 0006D2 4770 67D8            0180E  4866  1  424.                BNZ   FILEXIT                 QUIT IF END OF FILE
 0006D6 5830 C03C            0003C  4867  1  425.                L     TR,GPWDATAD             INPUT POINTER
 0006DA                             4868     426.              END   ,
 0006DA 9120 C006      00006        4872     427.              IF    GPWGPFLR,GSLRECL        LRECL OR EDIT/VARIABLE
 0006DE 4710 76BE            006F4  4884             +
 0006E2 1F22/4320 3004       00004  4890     428.              LC    SR,@TR+4                LINE LENGTH
 0006E8 4920 6B0C            01B42  4897     429.              CH    SR,=Y(251)              REALLY EDIT?
 0006EC 4720 683A            01870  4898     430.              BH    BADFORM                 NO
 0006F0 4120 2005            00005  4899     431.              LA    SR,@SR+5                FULL LENGTH
 0006F4 1B12                        4900     432.     GSLRECL  SR    R1,SR                   REMAINING LENGTH IN BUFFER
 0006F6 4132 3000            00000  4901     433.              LA    TR,@TR(SR)              NEW INPUT POINTER
 0006FA 4640 7690            006C6  4902     434.              BCT   QR,GETSKIP
 0006FE 1211                        4903     435.              LTR   R1,1                    ANY LEFT?
 000700 47D0 76D8            0070E  4904     436.              BNP   GETLOOP                 START FRESH IF NOT
 000704 4010 C01A            0001A  4905     437.              STH   R1,GPWWBL               SET WRITE LENGTH
 000708 1813                        4906     438.              LR    R1,TR                   AND CURRENT POINTER
 00070A 47F0 76F0            00726  4907     439.              B     GETWRITE                ANS SEND TO WYLBUR
1VGP      (VGP00) (09:47) (22MAR04) ORVYL'S FILE SYSTEM SERVICE PROCESSOR                                                   Page   37
0Current Usings:  (BASE+4096,R6) (BASE,R7) (WA,R8) (CLW,R10) (GPW,R12)
0Loc    Object Code    Addr1 Addr2  Stmt Lv Lineno    Source Statement           (Hibal 5, Asmedit 3.3)  HLASM R4.0  2004/03/22 09.47
+___    ______ ____    _____ _____  ____ __ ______    ______ _________
0                                   4908     440.
 00070E 4D90 6926/0C08       0195C  4909     441.     GETLOOP  FSCALL READ                    GET A BLOCK
 000714 4770 7866            0089C  4913     442.              BNZ   GETDONE                 DONE?
 000718 1211/4780 7866       0089C  4914     443.              IF    (R1,Z),GETDONE
 00071E 4010 C01A            0001A  4931     444.              STH   R1,GPWWBL               SET LEN
 000722 5810 C03C            0003C  4932     445.              L     R1,GPWDATAD             LOCATION OF TEXT
 000726 9120 C006      00006        4933     446.     GETWRITE IF    ~GPWGPFLR,WREDIT        LRECL?
 00072A 47E0 780A            00840  4946             +
0                                   4953     448.     * IF LRECL THEN PAD OUT BUFFER TO MULTIPLE OF BLOCK LENGTH
 00072E 48F0 C01A            0001A  4954     449.              LH    R15,GPWWBL              CURRENT BUFFER SIZE
 000732 1BEE                        4955     450.              CLEAR R14
 000734 4800 C034            00034  4959     451.              LH    R0,GPWLREC
 000738 9102 C006      00006        4960     452.              IF    ~GPWGPFHX,WRW1          HEX?
 00073C 47E0 770E            00744  4972             +
 000740 8800 0001            00001  4978     453.              SRL   R0,R1
 000744 1DE0                        4979     454.     WRW1     DR    R14,0                   BUFFER LEN/LRECL
 000746 40F0 C036            00036  4980     455.              STH   R15,GPWWBLK
 00074A 12EE                        4981     456.              LTR   R14,14                  EVEN DIVISION?
 00074C 4780 7748            0077E  4982     457.              BZ    WHEXCV                  YES
 000750 41F0 F001            00001  4983     458.              LA    R15,@R15+1              ADJUST FOR PADDING LAST LINE
 000754 40F0 C036            00036  4984     459.              STH   R15,GPWWBLK
 000758 18F0                        4985     460.              LR    R15,0                   LRECL
 00075A 1BFE                        4986     461.              SR    R15,R14                 PAD LENGTH
 00075C 4800 C01A            0001A  4987     462.              LH    R0,GPWWBL
 000760 18E0                        4988     463.              LR    R14,0
 000762 1A0F                        4989     464.              AR    R0,R15                  NEW BUFF LEN
 000764 4000 C01A            0001A  4990     465.              STH   R0,GPWWBL
 000768 41E1 E000            00000  4991     466.              LA    R14,@R14(R1)
 00076C 9240 E000      00000        4992     467.              MVI   @R14,C' '               PAD CHARACTER
 000770 46F0 7742            00778  4993     468.              BCT   R15,WRWPAD
 000774 47F0 7748            0077E  4994     469.              B     WHEXCV
 000778 06F0/44F0 6C9C       01CD2  4995     470.     WRWPAD   DEX   R15,'MVC  @R14+1(0),@R14'     PAD
 001CD2 D200 E001 E000 00001 00000  5006             +
-                                   5015     472.     *
                                    5016     473.     * MOVE AND TRANSLATE INTO HEX IF REQUESTED
                                    5017     474.     * -ASSUME LRECL IS EVEN
 00077E 9102 C006      00006        5018     475.     WHEXCV   IF    ~GPWGPFHX,GOWRWDS       HEX?
 000782 47E0 784C            00882  5031             +
 000786 4830 6B0E            01B44  5037     476.              LH    TR,=Y(L'GPWHXBUF)        HEX BUFFER LEN
 00078A 1B22                        5038     477.              CLEAR SR
 00078C 4800 C034            00034  5042     478.              LH    R0,GPWLREC
 000790 1D20                        5043     479.              DR    SR,R0
 000792 4030 C036            00036  5044     480.              STH   TR,GPWWBLK              BLOCKS IN A BUFFER
 000796 1322                        5045     481.              LCR   SR,SR
 000798 4A20 6B0E            01B44  5046     482.              AH    SR,=Y(L'GPWHXBUF)        ROUND BUFFER SIZE DOWN
 00079C 4830 C01A            0001A  5047     483.              LH    TR,GPWWBL               SOURCE BUFFER LEN
 0007A0 4020 C01A            0001A  5048     484.              STH   SR,GPWWBL               NEW OUTPUT LEN
 0007A4 8820 0001            00001  5049     485.              SRL   SR,R1                   SOURCE LEN
 0007A8 4D90 777A            007B0  5050     486.              LCALL WHEXLOOP                SKIP THIS
                                    5052     487.
 0007AC 5810 A2E8            002E8  5053     488.     WHEXRET  L     R1,CLWTEMP              SOURCE POINTER
1VGP      (VGP00) (09:47) (22MAR04) ORVYL'S FILE SYSTEM SERVICE PROCESSOR                                                   Page   38
0Current Usings:  (BASE+4096,R6) (BASE,R7) (WA,R8) (CLW,R10) (GPW,R12)
0Loc    Object Code    Addr1 Addr2  Stmt Lv Lineno    Source Statement           (Hibal 5, Asmedit 3.3)  HLASM R4.0  2004/03/22 09.47
+___    ______ ____    _____ _____  ____ __ ______    ______ _________
00007B0 41E0 0007            00007  5054     489.     WHEXLOOP LA    R14,7
 0007B4 18F1                        5055     490.              LR    R15,1
 0007B6 1AF2                        5056     491.              AR    R15,SR                  SOURCE END
 0007B8 50F0 A2E8            002E8  5057     492.              ST    R15,CLWTEMP
 0007BC 1BFE                        5058     493.              SR    R15,R14                 WARNING POINT
 0007BE 06F0                        5059     494.              DECR  R15
 0007C0 4140 C800            00800  5061     495.              LA    QR,GPWHXBUF             DESTINATION
 0007C4 4100 000E            0000E  5062     496.              LA    R0,14
 0007C8 F3E7 4000 1000 00000 00000  5063     497.     UPLOOP   UNPK  @QR(15),@R1(8)          14 GOOD BYTES, 1 BAD
 0007CE 1A40                        5064     498.              AR    QR,R0
 0007D0 871E 7792            007C8  5065     499.              BXLE  R1,14,UPLOOP
 0007D4 F3E7 D000 1000 00000 00000  5066     500.              UNPK  @R13(15),@R1(8)         FINAL UNPK (IN SAVE STACK)
 0007DA 41FE F001            00001  5067     501.              LA    R15,@R15+1(R14)
 0007DE 1BF1                        5068     502.              SR    R15,R1                  RESIDUAL COUNT
 0007E0 1AFF                        5069     503.              AR    R15,15                  DOUBLES AFTER UNPK
 0007E2 06F0/44F0 6CA2       01CD8  5070     504.              DEX   R15,'MVC  @QR(0),@R13'  MOVE LAST BIT
 001CD8 D200 4000 D000 00000 00000  5081             +
 0007E8 4110 C800            00800  5089     505.              LA    R1,GPWHXBUF
 0007EC 41E0 0100            00100  5090     506.              LA    R14,256
 0007F0 18F1                        5091     507.              LR    R15,1
 0007F2 4AF0 C01A            0001A  5092     508.              AH    R15,GPWWBL              BUFFER END
 0007F6 184F                        5093     509.              LR    QR,R15
 0007F8 1BFE                        5094     510.              SR    R15,R14                 WARNING POINT
 0007FA 4740 77D2            00808  5095     511.              BL    LASTTR
 0007FE DCFF 1000 7766 00000 0079C  5096     512.     TR256    TR    @R1(256),HEXTR
 000804 871E 77C8            007FE  5097     513.              BXLE  R1,14,TR256
 000808 1B41                        5098     514.     LASTTR   SR    QR,R1                   RESIDUAL
 00080A 4780 77DE/0640       00814  5099     515.              IF    NZ,'DEX  QR,"TR  @R1(0),HEXTR"'
 000810 4440 6CA8            01CDE  5115  1          +
 001CDE DC00 1000 7766 00000 0079C  5122  1          +
 000814 4110 C800            00800  5134     516.              LA    R1,GPWHXBUF
 000818 1B32                        5135     517.              SR    TR,SR                   REMAINING WRITE COUNT
 00081A 47D0 77F2            00828  5136     518.              IF    H,'FSCALL WRITEWDS ; B WHEXRET' RET TO HEXLOOP
 00081E 4D90 6926/0C04       0195C  5150  1          +
 000824 47F0 7776            007AC  5152             +
 000828 1A32                        5157     519.              AR    TR,SR                   LAST WRITE
 00082A 1A33                        5158     520.              AR    TR,TR
 00082C 4030 C01A            0001A  5159     521.              STH   TR,GPWWBL               WRITE LENGTH
 000830 4840 C034            00034  5160     522.              LH    QR,GPWLREC
 000834 1B22                        5161     523.              CLEAR SR
 000836 1D24                        5165     524.              DR    SR,QR                   NUMBER OF BLOCKS IN TR
 000838 4030 C036            00036  5166     525.              STH   TR,GPWWBLK
 00083C 47F0 784C            00882  5167     526.              B     GOWRWDS                 GO SEND TO WYLBUR
-000840                             5169     528.     WREDIT   LABEL ,                      WRITE EDIT FORMAT
 000840 9101 C003      00003        5171     529.              IF    ~GPWFRNUM,GOWRWDS       RENUMBER?
 000844 47E0 784C            00882  5183             +
 000848 5840 C030            00030  5189     530.              L     QR,GPWLINCT             GET LINE NO
 00084C 1831                        5190     531.              LR    TR,R1                   TR POINT TO DATA
 00084E 4800 C01A            0001A  5191     532.              LH    R0,GPWWBL               LENGTH OF DATA
 000852 1A01                        5192     533.              AR    R0,R1                   POINT TO END OF DATA
 000854 1B22                        5193     534.              CLEAR SR                      ZERO SR FOR IC'S
 000856 1930/47B0 7842       00878  5197     535.              WHILE (TR,LT,R0),BEGIN        LOOP TO RENUMBER
1VGP      (VGP00) (09:47) (22MAR04) ORVYL'S FILE SYSTEM SERVICE PROCESSOR                                                   Page   39
0Current Usings:  (BASE+4096,R6) (BASE,R7) (WA,R8) (CLW,R10) (GPW,R12)
0Loc    Object Code    Addr1 Addr2  Stmt Lv Lineno    Source Statement           (Hibal 5, Asmedit 3.3)  HLASM R4.0  2004/03/22 09.47
+___    ______ ____    _____ _____  ____ __ ______    ______ _________
0                                   5214  1  536.     *         A     QR,=F'1000'             INCREMENT LINE COUNT
 00085C 5A40 C1D0            001D0  5215  1  537.                A     QR,GPWDELTA
 000860 BE4F 3000            00000  5216  1  538.                ST4   QR,@TR                  SET LINE NO
 000864 4320 3004            00004  5218  1  539.                IC    SR,@TR+4                GET LINE LENGTH
 000868 4920 6B0C            01B42  5219  1  540.                CH    SR,=Y(251)              REALLY EDIT?
 00086C 4720 683A            01870  5220  1  541.                BH    BADFORM                 VERIFY NOT TOO LONG
 000870 4132 3005            00005  5221  1  542.                LA    TR,@TR+5(SR)            GO TO NEXT LINE
 000874 47F0 7820            00856  5222     543.              END   ,
 000878 5040 C030            00030  5227     544.              ST    QR,GPWLINCT             SAVE UPDATE LINE NO
 00087C 1930/4770 683A       01870  5228     545.              IF    (TR,NE,R0),BADFORM      IF NOT RIGHT ON, BAD FORMAT
 000882 4D90 6926/0C04       0195C  5246     546.     GOWRWDS  FSCALL WRITEWDS                TO WYLBUR
 000888 47F0 76D8            0070E  5250     547.              B     GETLOOP
                                    5251     548.     *
                                    5252     549.     * HEX CONVERSION AIDS
                                    5253     550.     *
                                    5254     551.     HEXTR    EQU   *-C'0'
 00088C F0F1F2F3F4F5F6F7            5255     552.              DC    C'0123456789ABCDEF'
                                    5256     553.
 00089C                             5257     554.     GETDONE  LABEL ,
 00089C 9180 C001      00001        5259     555.              IF    ~GPWFTRN,GETDLAST       ANY TRUNCATED?
 0008A0 47E0 787C            008B2  5271             +
 0008A4 4110 012B            0012B  5277     556.              SEG   'One or more lines truncated to 235 characters'
 0008A8 4590 6966            0199C  5279             +
 0008AC 5890 6A42/0D99       01A78  5280     557.              VWRITE ,
 0008B2 9141 C003      00003        5285     558.     GETDLAST IF    (GPWFMRG+GPWFRNUM,Z),FILEXIT  MERGE OR RENUMBER?
 0008B6 4780 67D8            0180E  5303             +
 0008BA 5890 6A46/0D99       01A7C  5309     559.              VCALL SHOWLAST                TELL USER LAST LINE
 0008C0 47F0 67D8            0180E  5313     560.              B     FILEXIT                 DONE
1VGP      (VGP00) (09:47) (22MAR04) ORVYL'S FILE SYSTEM SERVICE PROCESSOR                                                   Page   40
0Current Usings:  (BASE+4096,R6) (BASE,R7) (WA,R8) (CLW,R10) (GPW,R12)
0Loc    Object Code    Addr1 Addr2  Stmt Lv Lineno    Source Statement           (Hibal 5, Asmedit 3.3)  HLASM R4.0  2004/03/22 09.47
+___    ______ ____    _____ _____  ____ __ ______    ______ _________
0                                   5315     562.     *  PUT A FILE
                                    5316     563.     *
 0008C4                             5317     564.     PUT      LABEL ,
                                    5319     565.     *
                                    5320     566.     *                                      PUT RANGE SCAN HERE
                                    5321     567.     *
 0008C4 4D90 6926/0400       0195C  5322     568.              IF    ('FSCALL GETMEMBR',NZER),'FSCALL GETNAME'
 0008CA 4780 789E            008D4  5333             +
 0008CE 4D90 6926/0404       0195C  5341             +
 0008D4 5810 6A4A            01A80  5347     569.              LSCAN PUTTBL,CLWKWCB          GET PUT OPTIONS
 0008D8 41F0 A2C4            002C4  5361             +
 0008DC 58E0 6A0A/0DEE       01A40  5364             +
 0008E2 4770 67BE            017F4  5366     570.              BNZ   SCRET
 0008E6 4D90 6926/1408       0195C  5367     571.              FSCALL ASMBLNAM                PUT NAME TOGETHER
                                    5371     572.
 0008EC 4D90 6926/086C       0195C  5372     573.              FSCALL SENSWDS                 ANYTHING IN WYLBUR?
 0008F2 1211/4780 687A       018B0  5376     574.              IF    (R1,Z),VOID             NO
 0008F8 9108 C08C      0008C        5393     575.              IF    GPWFVOSF,'LCALL ATTOSPUT'   O.S ATTACH FOR PUT
 0008FC 47E0 78CE            00904  5403             +
 000900 4D90 7B58            00B8E  5410             +
 000904 78D2           00904 008FE  5415     576.              ELSE  'LCALL ATTFPUT'             ORVYL ATTACH FOR PUT
 000904 47F0 78D6            0090C  5420             +
 000908 4D90 7A0C            00A42  5428             +
                                    5433     577.     *   IF A FORMAT IS SPECIFIED,
 00090C 9170 C006      00006        5434     578.              IF    GPWGPFLR+GPWGPFV+GPWGPFE,BEGIN
 000910 4780 794A            00980  5451             +
                                    5456  1  579.     *     IF NO DATA IN FILE AND NOT APPEND, SET NEW FORMAT
 000914                             5457  1  580.                IF    (GPWBN,Z),PUT1
 000914 D603 C0C0 C0C0 000C0 000C0  5467  1          +
 00091A 4780 78FA            00930  5470  1          +
 00091E                             5476  1  581.                IF    ((GPWBN,NE,1),OR,~GPWUILIB),PUT2
 00091E D503 6A4E C0C0 01A84 000C0  5490  1          +
 000924 4770 7912            00948  5493  1          +
 000928 9180 C0B8      000B8        5502  1          +
 00092C 47E0 7912            00948  5505  1          +
 000930 9140 C003      00003        5511  1  582.     PUT1       IF    GPWFAPP,PUT2
 000934 4710 7912            00948  5524  1          +
 000938 5890 6A2A/0D99       01A60  5530  1  583.                VCALL SETFMT                   USE NEW FORMAT
 00093E 4D90 6926/0830       0195C  5534  1  584.                FSCALL SETUINFO               GO SET INFO
 000944 47F0 7954            0098A  5538  1  585.                B     PUT3
                                    5539  1  586.     *     OTHERWISE, FORMATS MUST MATCH
 000948                             5540  1  587.     PUT2      LABEL ,
 000948 9140 C0B8      000B8        5542  1  588.                IF    GPWUILDF,PUTLOAD
 00094C 4710 7FD8            0100E  5554  1          +
                                    5560  1  589.     *   MAKE SURE FORMATS MATCH
 000950 9120 C006      00006        5561  1  590.                IF    (GPWGPFLR,AND,GPWUIFE+GPWUIFV),INCFORM
 000954 47E0 792A            00960  5573  1          +
 000958 9103 C0B8      000B8        5587  1          +
 00095C 4770 7FA0            00FD6  5590  1          +
 000960 9110 C006      00006        5596  1  591.                IF    (GPWGPFE,AND,GPWUIFLR+GPWUIFV),INCFORM
 000964 47E0 793A            00970  5608  1          +
 000968 9106 C0B8      000B8        5622  1          +
 00096C 4770 7FA0            00FD6  5625  1          +
                                    5631  1  592.   C            IF    (GPWGPFV,AND,
1VGP      (VGP00) (09:47) (22MAR04) ORVYL'S FILE SYSTEM SERVICE PROCESSOR                                                   Page   41
0Current Usings:  (BASE+4096,R6) (BASE,R7) (WA,R8) (CLW,R10) (GPW,R12)
0Loc    Object Code    Addr1 Addr2  Stmt Lv Lineno    Source Statement           (Hibal 5, Asmedit 3.3)  HLASM R4.0  2004/03/22 09.47
+___    ______ ____    _____ _____  ____ __ ______    ______ _________
0000970 9140 C006      00006              1  593.                      GPWUIFE+GPWUIFLR),INCFORM
 000974 47E0 794A            00980  5643  1          +
 000978 9105 C0B8      000B8        5657  1          +
 00097C 4770 7FA0            00FD6  5660  1          +
 000980                             5666     594.              END   ,
                                    5670     595.     * IF NO FORMAT GIVEN, GET FILE FORMAT
 000980 794E           00980 00912  5671     596.              ELSE  'VCALL GETFMT'
 000980 47F0 7954            0098A  5676             +
 000984 5890 6A3E/0D99       01A74  5685             +
 00098A                             5691     597.     PUT3     LABEL ,
 00098A 9120 C006      00006        5693     598.              IF    GPWGPFLR,PUTLREC        LRECL?
 00098E 4710 7978            009AE  5705             +
 000992 9102 C006      00006        5711     599.              IF    GPWGPFHX,NIXHEX         HEX?
 000996 4710 7F70            00FA6  5723             +
 00099A 1B22                        5729     600.              CLEAR SR                   SET OPTION TYPE
 00099C 9140 C006      00006        5733     601.              IF    GPWGPFV,PUTRANGE        VARIABLE?
 0009A0 4710 79AE            009E4  5745             +
 0009A4 4D90 6926/0860       0195C  5751     602.              FSCALL SETPREST                SET EDIT FORMAT
 0009AA 47F0 79AE            009E4  5755     603.              B     PUTRANGE                SO RANGE
                                    5756     604.
 0009AE                             5757     605.     PUTLREC  LABEL ,
 0009AE 9102 C006      00006        5759     606.              IF    (GPWGPFHX,AND,('TM GPWLREC+1,1',O)),HEXNEVEN
 0009B2 47E0 7988            009BE  5771             +
 0009B6 9101 C035      00035        5780             +
 0009BA 4710 7FB8            00FEE  5783             +
 0009BE 4120 00C8            000C8  5789     607.              LA    SR,200                  SET CODE
 0009C2 9101 C006      00006        5790     608.              IF    ~GPWGPFN,PUTRANGE       NUMBERED?
 0009C6 47E0 79AE            009E4  5802             +
 0009CA D501 C034 6B0A 00034 01B40  5808     609.              CLC   GPWLREC(2),=Y(80)       VALID?
 0009D0 4770 79AE            009E4  5809     610.              BNE   PUTRANGE                NO
 0009D4 4120 012C            0012C  5810     611.              LA    SR,300                  SET NUMBERED
 0009D8 9180 C006      00006        5811     612.              IF    ~GPWGPFIN,PUTRANGE      INTEGER?
 0009DC 47E0 79AE            009E4  5823             +
 0009E0 4120 0190            00190  5829     613.              LA    SR,400                  SET INTEGER
                                    5830     614.
 0009E4                             5831     615.     PUTRANGE LABEL ,
 0009E4 4120 2003            00003  5833     616.              LA    SR,@SR+3                SET CODE
 0009E8 4020 C018            00018  5834     617.              STH   SR,GPWOPT
 0009EC 4810 C0BC            000BC  5835     618.              LH    R1,GPWBLKSZ             LENGTH
 0009F0 9102 C006      00006        5836     619.              IF    GPWGPFHX,BEGIN          HEX BUFFER LENGTH
 0009F4 47E0 79C6            009FC  5846             +
 0009F8 8810 0001            00001  5851  1  620.                SRL   R1,1                     IS HALF A BLOCK
 0009FC                             5852     621.              END
 0009FC 9108 C08C      0008C        5856     622.              IF    GPWFVOSF,'LH  R1,OSFBLKSZ'    O.S. FILE BLKSZ LENGTH
 000A00 47E0 79D2            00A08  5866             +
 000A04 4810 C104            00104  5872             +
 000A08 4010 C036            00036  5877     623.              STH   R1,GPWRBL               LEN OF BUFFER
 000A0C 4D90 6926/0C00       0195C  5878     624.              FSCALL READWDS                 GET FIRST BUFFER
 000A12 4770 687A            018B0  5882     625.              BNZ   VOID                    NOTHING TO PUT
 000A16 1831                        5883     626.              LR    TR,R1                   SAVE LEN
 000A18 06F0                        5884     627.              DECR  R15
 000A1A 50F0 C01C            0001C  5886     628.              ST    R15,GPWFWDS             SET NEXT LINE
1VGP      (VGP00) (09:47) (22MAR04) ORVYL'S FILE SYSTEM SERVICE PROCESSOR                                                   Page   42
0Current Usings:  (BASE+4096,R6) (BASE,R7) (WA,R8) (CLW,R10) (GPW,R12)
0Loc    Object Code    Addr1 Addr2  Stmt Lv Lineno    Source Statement           (Hibal 5, Asmedit 3.3)  HLASM R4.0  2004/03/22 09.47
+___    ______ ____    _____ _____  ____ __ ______    ______ _________
0000A1E 9102 C006      00006        5888     630.              IF    GPWGPFHX,PUTHEX         HEX?
 000A22 4710 7C8E            00CC4  5900             +
 000A26 18F3                        5906     631.              LR    R15,TR                  SET LEN FOR WRITE
 000A28 47F0 7A02            00A38  5907     632.              B     PUTOUT
 000A2C 4D90 6926/0C00       0195C  5908     633.     PUTLOOP  FSCALL READWDS                 GET A BLOCK
 000A32 4770 7D3E            00D74  5912     634.              BNZ   PUTDONE                 END OF WDS
 000A36 18F1                        5913     635.              LR    R15,1                   SET LEN
 000A38 4D90 6926/0C14       0195C  5914     636.     PUTOUT   FSCALL WRITE                   PUT IT
 000A3E 47F0 79F6            00A2C  5918     637.              B     PUTLOOP
1VGP      (VGP00) (09:47) (22MAR04) ORVYL'S FILE SYSTEM SERVICE PROCESSOR                                                   Page   43
0Current Usings:  (BASE+4096,R6) (BASE,R7) (WA,R8) (CLW,R10) (GPW,R12)
0Loc    Object Code    Addr1 Addr2  Stmt Lv Lineno    Source Statement           (Hibal 5, Asmedit 3.3)  HLASM R4.0  2004/03/22 09.47
+___    ______ ____    _____ _____  ____ __ ______    ______ _________
0                                   5920     639.     * ORVYL ATTACH FOR PUT
                                    5921     640.     *
 000A42 5090 D000            00000  5922     641.     ATTFPUT  VPUSH RAR,,*                  SAVE RETURN
 000A46 41D0 D004            00004  5924             +
 000A4A 9620 C001      00001        5925     642.              SET   GPWFANW                 CREATE FILE IF NOT THERE
 000A4E 4D90 6926/0010       0195C  5931     643.              FSCALL ATTOLDE                EXCLUSIVE USE
 000A54 4D90 6926/1420       0195C  5935     644.              FSCALL CHKSPIRE               AVOID SPIRES ONLY
 000A5A 9120 C08C      0008C        5939     645.              IF    (~GPWFNEW,AND,GPWFNIXR,AND,~GPWFHYBR),NIXNIXR
 000A5E 4710 7A3C            00A72  5951             +
 000A62 9110 C002      00002        5962             +
 000A66 47E0 7A3C            00A72  5963             +
 000A6A 9108 C002      00002        5974             +
 000A6E 47E0 7F80            00FB6  5977             +
 000A72 9180 C0B8      000B8        5983     646.              IF    GPWUILIB,BEGIN          LIBRARY
 000A76 47E0 7A98            00ACE  5993             +
 000A7A 9140 C003      00003        5998  1  647.                IF    GPWFAPP,NOLIBAPP        NO APPEND
 000A7E 4710 7DEC            00E22  6010  1          +
 000A82 9120 C003      00003        6016  1  648.                IF    GPWFCREF,BEGIN
 000A86 47E0 7A80            00AB6  6026  1          +
 000A8A 9110 C003      00003        6031  2  649.                  IF    GPWFELIB,ATTFP1
 000A8E 4710 7AF8            00B2E  6043  2          +
 000A92 947F C003      00003        6049  2  650.                  CLEAR GPWFERS                 CLEAR ERASE
 000A96 4110 0159            00159  6056  2  651.                  SEG   'Replace library '
 000A9A 4590 6966            0199C  6058  2          +
 000A9E 4D90 6926/0414       0195C  6059  2  652.                  FSCALL SEGNAME
 000AA4 4D90 6926/1414       0195C  6063  2  653.                  FSCALL RDERASE
 000AAA 9180 C003      00003        6067  2  654.                  IF    ~GPWFERS,NOACTION
 000AAE 47E0 68C4            018FA  6079  2          +
 000AB2 47F0 7AF8            00B2E  6085  2  655.                  B     ATTFP1
 000AB6                             6086  1  656.                END ,
 000AB6 9140 C0B8      000B8        6090  1  657.                IF    GPWUILDF,PUTLOAD
 000ABA 4710 7FD8            0100E  6102  1          +
 000ABE 9500 C08F      0008F        6108  1  658.                IF    (GPWLMNL,EQ,0),MEMNTSPC NO MEMBER
 000AC2 4780 6718            0174E  6123  1          +
 000AC6 9138 C0B8      000B8        6129  1  659.                IF    (GPWUIDA+GPWUIUND+GPWUIVBS,NZ),INCFRM2
 000ACA 4770 7FA8            00FDE  6150  1          +
 000ACE                             6156     660.              END   ,
 000ACE 9500 C08F      0008F        6160     661.              IF    (GPWLMNL,EQ,0),ATTFP1   NOT FOR LIB
 000AD2 4780 7AF8            00B2E  6175             +
 000AD6 9120 C08C      0008C        6181     662.              IF    (GPWFNEW,OR,('FSCALL SENLREC',NZ)),BEGIN
 000ADA 4710 7AB2            00AE8  6195             +
 000ADE 4D90 6926/0814       0195C  6204             +
 000AE4 4780 7AC2            00AF8  6206             +
 000AE8 9620 C0B4      000B4        6211  1  663.                SET   GPWLNEWD                LIBRARY IS NEW
 000AEC 5890 6A2A/0D99       01A60  6217  1  664.                VCALL SETFMT
 000AF2 4D90 6926/0830       0195C  6221  1  665.                FSCALL SETUINFO
 000AF8                             6225     666.              END   ,
-
 000AF8 9180 C003      00003        6230     668.              IF    GPWFERS,BEGIN
 000AFC 47E0 7ACE            00B04  6240             +
 000B00 9680 C0B4      000B4        6245  1  669.                SET   GPWLREP                 IF ERASE, MEMBER REPLACE OK
 000B04                             6251     670.              END   ,
1VGP      (VGP00) (09:47) (22MAR04) ORVYL'S FILE SYSTEM SERVICE PROCESSOR                                                   Page   44
0Current Usings:  (BASE+4096,R6) (BASE,R7) (WA,R8) (CLW,R10) (GPW,R12)
0Loc    Object Code    Addr1 Addr2  Stmt Lv Lineno    Source Statement           (Hibal 5, Asmedit 3.3)  HLASM R4.0  2004/03/22 09.47
+___    ______ ____    _____ _____  ____ __ ______    ______ _________
0000B04 7AD2           00B04 00AFE  6255     671.              ELSE  BEGIN
 000B04 47F0 7AEE            00B24  6260             +
 000B08 4D90 6926/1008       0195C  6266  1  672.                FSCALL CHECKMEM               IF NOT ERASE, DOES MEMBER EXIST
 000B0E 4740 7AEE            00B24  6270  1  673.                BM    PPUTMEM                 NO, GO PUT MEMBER
 000B12 4D90 6926/140C       0195C  6271  1  674.                FSCALL ASKMBERS               YES, ASK IF ERASE OK
 000B18 9180 C003      00003        6275  1  675.                IF    ~GPWFERS,NOACTION
 000B1C 47E0 68C4            018FA  6287  1          +
 000B20 9680 C0B4      000B4        6293  1  676.                SET   GPWLREP                 ERASE, REPLACE OK
 000B24                             6299     677.              END   ,
 000B24                             6303     678.     PPUTMEM  LABEL ,
 000B24 4D90 6926/1010       0195C  6305     679.              FSCALL PUTMEM                 INITIALIZE MEMBER FOR OUTPUT
 000B2A 47F0 7B4E            00B84  6309     680.              B     ATTPGO1
 000B2E 9120 C08C      0008C        6310     681.     ATTFP1   IF    GPWFNEW,ATTPGO          NEW
 000B32 4710 7B48            00B7E  6323             +
 000B36 4D90 6926/0814       0195C  6329     682.              FSCALL SENLREC                GET LAST
 000B3C 4770 7B48            00B7E  6333     683.              BNZ   ATTPGO                  NOTHING TO ERASE
 000B40 4110 1001            00001  6334     684.              LA    R1,@R1+1                IN CASE OF APPEND
 000B44 5010 C0C0            000C0  6335     685.              ST    R1,GPWBN
 000B48 91C0 C003      00003        6336     686.              IF    (GPWFERS+GPWFAPP,NZ),ATTPERS  ERASE OR APPEND?
 000B4C 4770 7B38            00B6E  6353             +
 000B50 9120 C003      00003        6359     687.              IF    (GPWFCREF,AND,~GPWAFFL.GPWFATT),CRALREDY
 000B54 47E0 7B2A            00B60  6371             +
 000B58 9180 C12C      0012C        6382             +
 000B5C 47E0 7488            004BE  6385             +
 000B60 4D90 6926/1410       0195C  6391     688.              FSCALL ASKERASE
 000B66 91C0 C003      00003        6395     689.              IF    (GPWFERS+GPWFAPP,Z),NOACTION  ERASE OR APPEND?
 000B6A 4780 68C4            018FA  6412             +
 000B6E 9180 C003      00003        6418     690.     ATTPERS  IF    ~GPWFERS,ATTPGO1        ERASE?
 000B72 47E0 7B4E            00B84  6431             +
 000B76 4D90 6936            0196C  6437     691.              LCALL DELETE                  CLEAR FILE
 000B7A 9680 C004      00004        6439     692.              SET   GPWSFER                 SET ERASED
 000B7E D703 C0C0 C0C0 000C0 000C0  6445     693.     ATTPGO   XC    GPWBN,GPWBN             NOT APPEND
 000B84 4BD0 6B10            01B46  6446     694.     ATTPGO1  VPOP  RAR,,*
 000B88 5890 D000            00000  6448             +
 000B8C 07F9                        6449     695.              BR    RAR
1VGP      (VGP00) (09:47) (22MAR04) ORVYL'S FILE SYSTEM SERVICE PROCESSOR                                                   Page   45
0Current Usings:  (BASE+4096,R6) (BASE,R7) (WA,R8) (CLW,R10) (GPW,R12)
0Loc    Object Code    Addr1 Addr2  Stmt Lv Lineno    Source Statement           (Hibal 5, Asmedit 3.3)  HLASM R4.0  2004/03/22 09.47
+___    ______ ____    _____ _____  ____ __ ______    ______ _________
0                                   6451     697.     *
                                    6452     698.     *  O.S. OUTPUT FILE ATTACH ETC.
                                    6453     699.     *
                                    6454     700.     *  WE PROCESS THE FOLLOWING CASES
                                    6455     701.     *      1. EXISTING FILES; PDS AND SEQUENTIAL
                                    6456     702.     *      2. NEW FILES; PDS AND SEQUENTIAL
                                    6457     703.     *
 000B8E                             6458     704.     ATTOSPUT LABEL ,                       ATTACH FOR O.S. PUT
 000B8E 5090 D000            00000  6460     705.              VPUSH RAR,,*
 000B92 41D0 D004            00004  6462             +
 000B96 9130 C006      00006        6463     706.              IF    (GPWGPFE+GPWGPFLR,Z),BEGIN    ONLY EDIT AND LRECL
 000B9A 4770 7B74            00BAA  6478             +
 000B9E 4110 016A            0016A  6483  1  707.                SEG   'Invalid format for O.S. file PUT'
 000BA2 4590 6966            0199C  6485  1          +
 000BA6 47F0 68A8            018DE  6486  1  708.                B     ERROR
 000BAA                             6487     709.              END   ,
 000BAA 4D90 6926/0018       0195C  6491     710.              FSCALL CHECKOS                CHECK IF FILE EXISTS
 000BB0 4780 7C5A            00C90  6495     711.              BZ    NOTTHERE                NO EXISTING FILE ->
                                    6496     712.     * FILE EXISTS
 000BB4 9200 C0FF      000FF        6497     713.              MVI   OSFDSORG,X'00'          CLEAR OLD DSORG
 000BB8 5890 6A3E/0D99       01A74  6498     714.              VCALL GETFMT                  SET FORMAT FROM EXISTING
 000BBE 9120 C006      00006        6502     715.              IF    (GPWGPFLR,AND,GPWUIFE+GPWUIFV),INCFORM
 000BC2 47E0 7B98            00BCE  6514             +
 000BC6 9103 C0B8      000B8        6528             +
 000BCA 4770 7FA0            00FD6  6531             +
 000BCE 9110 C006      00006        6537     716.              IF    (GPWGPFE,AND,GPWUIFLR+GPWUIFV),INCFORM
 000BD2 47E0 7BA8            00BDE  6549             +
 000BD6 9106 C0B8      000B8        6563             +
 000BDA 4770 7FA0            00FD6  6566             +
 000BDE 9140 C006      00006        6572     717.              IF    (GPWGPFV,AND,GPWUIFE+GPWUIFLR),INCFORM
 000BE2 47E0 7BB8            00BEE  6584             +
 000BE6 9105 C0B8      000B8        6598             +
 000BEA 4770 7FA0            00FD6  6601             +
 000BEE 9102 C0FF      000FF        6607     718.              IF    OSFPO,BEGIN             LIBRARY
 000BF2 47E0 7C14            00C4A  6617             +
 000BF6 9140 C003      00003        6622  1  719.                IF    GPWFAPP,NOLIBAPP        NO APPEND
 000BFA 4710 7DEC            00E22  6634  1          +
 000BFE 9140 C0B8      000B8        6640  1  720.                IF    GPWUILDF,PUTLOAD        NO LOADFILES
 000C02 4710 7FD8            0100E  6652  1          +
 000C06 9500 C08F      0008F        6658  1  721.                IF    (GPWLMNL,EQ,0),MEMNTSPC       NO MEMBER
 000C0A 4780 6718            0174E  6673  1          +
 000C0E 4D90 6926/001C       0195C  6679  1  722.                FSCALL ATTOUTOS
 000C14 9180 C003      00003        6683  1  723.                IF    GPWFERS,BEGIN
 000C18 47E0 7BEA            00C20  6693  1          +
 000C1C 9680 C0B4      000B4        6698  2  724.                  SET   GPWLREP                 IF ERASE, MEMBER REPLACE OK
 000C20                             6704  1  725.                END   ,
 000C20 7BEE           00C20 00C1A  6708  1  726.                ELSE BEGIN
 000C20 47F0 7C0A            00C40  6713  1          +
 000C24 4D90 6926/1008       0195C  6719  2  727.                  FSCALL CHECKMEM               IF NOT ERASE, DOES MEMBER EXIST
 000C2A 4740 7C0A            00C40  6723  2  728.                  BM    PUTMEMS                 NO, GO PUT MEMBER
 000C2E 4D90 6926/140C       0195C  6724  2  729.                  FSCALL ASKMBERS               YES, ASK IF ERASE OK
 000C34 9180 C003      00003        6728  2  730.                  IF    ~GPWFERS,NOACTION
 000C38 47E0 68C4            018FA  6740  2          +
 000C3C 9680 C0B4      000B4        6746  2  731.                  SET   GPWLREP                 ERASE, REPLACE OK
1VGP      (VGP00) (09:47) (22MAR04) ORVYL'S FILE SYSTEM SERVICE PROCESSOR                                                   Page   46
0Current Usings:  (BASE+4096,R6) (BASE,R7) (WA,R8) (CLW,R10) (GPW,R12)
0Loc    Object Code    Addr1 Addr2  Stmt Lv Lineno    Source Statement           (Hibal 5, Asmedit 3.3)  HLASM R4.0  2004/03/22 09.47
+___    ______ ____    _____ _____  ____ __ ______    ______ _________
0000C40                             6752  1  732.                END
 000C40                             6756  1  733.     PUTMEMS    LABEL ,
 000C40 4D90 6926/1010       0195C  6758  1  734.                FSCALL PUTMEM                 INITIALIZE MEMBER FOR OUTPUT
 000C46 47F0 7C78            00CAE  6762  1  735.                B     ATTOSRET                RETURN
 000C4A                             6763     736.              END   ,
                                    6767     737.     * EXISTING SEQUENTIAL FILE
 000C4A 9140 C0FF      000FF        6768     738.              IF    OSFPS,BEGIN            ATTACH EXISTING SEQUENTIAL FILE
 000C4E 47E0 7C5A            00C90  6778             +
 000C52 91C0 C003      00003        6783  1  739.                IF    (GPWFERS+GPWFAPP,Z),BEGIN     IF NOT ERA/APP, ASK
 000C56 4770 7C38            00C6E  6798  1          +
 000C5A 4D90 6926/0414       0195C  6803  2  740.                  FSCALL SEGNAME
 000C60 4D90 6926/1410       0195C  6807  2  741.                  FSCALL ASKERASE
 000C66 91C0 C003      00003        6811  2  742.                  IF    (GPWFERS+GPWFAPP,Z),NOACTION  NO, ABORT REQUEST
 000C6A 4780 68C4            018FA  6828  2          +
 000C6E                             6834  1  743.                END
 000C6E 9180 C003      00003        6838  1  744.                IF    GPWFERS,'SET OSFOLD'        ERASE
 000C72 47E0 7C44            00C7A  6848  1          +
 000C76 9640 C0FE      000FE        6859  1          +
 000C7A 9140 C003      00003        6864  1  745.                IF    GPWFAPP,'SET OSFMOD'   APPEND
 000C7E 47E0 7C50            00C86  6874  1          +
 000C82 9680 C0FE      000FE        6885  1          +
 000C86 4D90 6926/001C       0195C  6890  1  746.                FSCALL ATTOUTOS               ATTACH FOR OUTPUT
 000C8C 47F0 7C78            00CAE  6894  1  747.                B     ATTOSRET                EXISTING SEQUENTIAL DONE
 000C90                             6895     748.              END   ,
                                    6899     749.     * FILE DOES NOT EXIST
 000C90                             6900     750.     NOTTHERE LABEL ,                      FILE DOES NOT EXIST
 000C90 5890 6A2A/0D99       01A60  6902     751.              VCALL SETFMT                  GET FORMAT INFO FOR ATTACH
 000C96 96C0 C0FE      000FE        6906     752.              SET   OSFNEW                  NEW O.S. FILE ATTACH
 000C9A 4D90 6926/001C       0195C  6912     753.              FSCALL ATTOUTOS               ATTACH FILE
 000CA0 9102 C0FF      000FF        6916     754.              IF    OSFPO,'FSCALL PUTMEM'   IF LIB, INIT MEMBER FOR PUT
 000CA4 47E0 7C78            00CAE  6926             +
 000CA8 4D90 6926/1010       0195C  6934             +
 000CAE                             6940     755.     ATTOSRET LABEL ,
 000CAE 9110 C006      00006        6942     756.              IF    GPWGPFE,'SET GPWOSFED'  IF EDIT, SET O.S. EDIT FLAG
 000CB2 47E0 7C84            00CBA  6952             +
 000CB6 9604 C08C      0008C        6963             +
 000CBA 4BD0 6B10            01B46  6968     757.              VPOP  RAR,,*
 000CBE 5890 D000            00000  6970             +
 000CC2 07F9                        6971     758.              BR    RAR                     RETURN
1VGP      (VGP00) (09:47) (22MAR04) ORVYL'S FILE SYSTEM SERVICE PROCESSOR                                                   Page   47
0Current Usings:  (BASE+4096,R6) (BASE,R7) (WA,R8) (CLW,R10) (GPW,R12)
0Loc    Object Code    Addr1 Addr2  Stmt Lv Lineno    Source Statement           (Hibal 5, Asmedit 3.3)  HLASM R4.0  2004/03/22 09.47
+___    ______ ____    _____ _____  ____ __ ______    ______ _________
0                                   6973     760.     *  PUT HEX CONVERSION
                                    6974     761.     *
 000CC4                             6975     762.     PUTHEX   LABEL ,
 000CC4 4140 0004            00004  6977     763.              LA    QR,4                    RATIO - WYLBUR/FILE
 000CC8 5820 C038            00038  6978     764.              L     SR,GPWBUFA              STARTING OUTPUT LOCATION
 000CCC 47F0 7CA6            00CDC  6979     765.              B     PHSTART                 ENTER LOOP
 000CD0 4D90 6926/0C00       0195C  6980     766.     PHREAD   FSCALL READWDS                 GET A BLOCK
 000CD6 4770 7D22            00D58  6984     767.              BNZ   PHEND                   DONE
 000CDA 1831                        6985     768.              LR    TR,R1                   SAVE TOTAL LENGTH
 000CDC 4110 C800            00800  6986     769.     PHSTART  LA    R1,GPWHXBUF             INPUT POINTER
 000CE0 4100 0008            00008  6987     770.     PHCLOOP  LA    R0,8                    COUNT
 000CE4 1903                        6988     771.              CR    R0,TR                   THAT MUCH LEFT?#
 000CE6 4720 7CF8            00D2E  6989     772.              BH    PHFRAG                  NO
 000CEA 58E0 6A52/0DEE       01A88  6990     773.              XCALL XTB                     CONVERT
 000CF0 1200                        6994     774.              LTR   R0,0                    COMPLETE OK?
 000CF2 4770 7D36            00D6C  6995     775.              BNZ   PHERR                   NO
 000CF6 4100 0004            00004  6996     776.              LA    R0,4                    STORE COUNT
 000CFA 8DE0 0008            00008  6997     777.     PHOUT    SLDL  R14,8                   FIRST BYTE
 000CFE 42E0 2000            00000  6998     778.              STC   R14,@SR                 INTO OUTPUT BUFFER
 000D02 4120 2001            00001  6999     779.              LA    SR,@SR+1                INCREMENT
 000D06 4600 7CC4            00CFA  7000     780.              BCT   R0,PHOUT                DO ALL
 000D0A 4B30 6B12            01B48  7001     781.              SH    TR,=Y(8)                GET REMAINING
 000D0E 4720 7CAA            00CE0  7002     782.              BP    PHCLOOP                 CONVERT ALL OF INPUT
 000D12 4640 7C9A            00CD0  7003     783.     PHNEXT   BCT   QR,PHREAD               GET NEXT INPUT BUFFER
 000D16 18F2                        7004     784.              LR    R15,SR                  SET LEN
 000D18 5FF0 C038            00038  7005     785.              SL    R15,GPWBUFA             LENGTH TO WRITE
 000D1C 4D90 6926/0C14       0195C  7006     786.              FSCALL WRITE                   WRITE BLOCK
 000D22 5820 C038            00038  7010     787.              L     SR,GPWBUFA              RESET OUTPUT LOCATION
 000D26 4140 0004            00004  7011     788.              LA    QR,4                    RATIO - WYLBUR/FILE
 000D2A 47F0 7C9A            00CD0  7012     789.              B     PHREAD                  CONTINUE
                                    7013     790.
 000D2E 1203                        7014     791.     PHFRAG   LTR   R0,TR                   REALLY SOME THERE?
 000D30 47D0 7CDC            00D12  7015     792.              BNP   PHNEXT                  NO
 000D34 58E0 6A52/0DEE       01A88  7016     793.              XCALL XTB                     CONVERT
 000D3A 1200                        7020     794.              LTR   R0,0                    COMPLETE OK?
 000D3C 4770 7D36            00D6C  7021     795.              BNZ   PHERR                   NO
 000D40 4110 0008            00008  7022     796.              LA    R1,8                    SHIFT UP REMAINDER
 000D44 1B13                        7023     797.              SR    R1,TR                   EMPTY HEX DIGITS
 000D46 8910 0002            00002  7024     798.              SLL   R1,2                    TO BIT COUNT
 000D4A 89F0 1000            00000  7025     799.              SLL   R15,@R1                 PUSH TO TOP
 000D4E 1803                        7026     800.              LR    R0,TR                   SET COUNT FOR STORE LOOP
 000D50 8800 0001            00001  7027     801.              SRL   R0,R1                   IN BYTES
 000D54 47F0 7CC4            00CFA  7028     802.              B     PHOUT                   PUT IN OUTPUT BUFFER
                                    7029     803.
 000D58                             7030     804.     PHEND    LABEL ,                      ANY?
 000D58 5F20 C038            00038  7032     805.              SL    SR,GPWBUFA              COMPUTE LENGTH
 000D5C 12F2                        7033     806.              LTR   R15,SR                  ANY CHARACTERS THERE?
 000D5E 4780 7D3E            00D74  7034     807.              BZ    PUTDONE                 DONE IF NOT
 000D62 4D90 6926/0C14       0195C  7035     808.              FSCALL WRITE                   SEND LAST
 000D68 47F0 7D3E            00D74  7039     809.              B     PUTDONE                 AND A MESSAGE
                                    7040     810.
 000D6C 4100 0001            00001  7041     811.     PHERR    LA    R0,1
 000D70 47F0 6790            017C6  7042     812.              B     UNREC
1VGP      (VGP00) (09:47) (22MAR04) ORVYL'S FILE SYSTEM SERVICE PROCESSOR                                                   Page   48
0Current Usings:  (BASE+4096,R6) (BASE,R7) (WA,R8) (CLW,R10) (GPW,R12)
0Loc    Object Code    Addr1 Addr2  Stmt Lv Lineno    Source Statement           (Hibal 5, Asmedit 3.3)  HLASM R4.0  2004/03/22 09.47
+___    ______ ____    _____ _____  ____ __ ______    ______ _________
0000D74                             7044     814.     PUTDONE  LABEL ,
 000D74 9120 C08C      0008C        7046     815.              IF    GPWFNEW,BEGIN          SET FORMAT ON NEW FILE
 000D78 47E0 7D52            00D88  7056             +
 000D7C 5890 6A2A/0D99       01A60  7061  1  816.                  VCALL SETFMT                 SET FORMAT INTO USER INFO
 000D82 4D90 6926/0830       0195C  7065  1  817.                  FSCALL SETUINFO             SET USER INFO
 000D88                             7069     818.              END   ,
 000D88 9180 C0B8      000B8        7073     819.              IF    GPWUILIB,BEGIN
 000D8C 47E0 7D60            00D96  7083             +
 000D90 4D90 6926/1014       0195C  7088  1  820.                  FSCALL  EOFMEM          EOF ON MEMBER PUT
 000D96                             7092     821.              END   ,
 000D96 4D90 6926/0410       0195C  7096     822.              FSCALL SEGMEMB                FILE NAME OR MEMBER
 000D9C 91C0 C003      00003        7100     823.              IF    (GPWFAPP+GPWFERS,Z),PUTEND    ERASE OR APPEND?
 000DA0 4780 7DC2            00DF8  7117             +
 000DA4 9120 C08C      0008C        7123     824.              IF    GPWFNEW,PUTDNEW         NEW?
 000DA8 4710 7D9E            00DD4  7135             +
 000DAC 9140 C003      00003        7141     825.              IF    GPWFAPP,PUTDAPP         APPEND?
 000DB0 4710 7D92            00DC8  7153             +
 000DB4 9180 C004      00004        7159     826.              IF    ~GPWSFER,PUTEND         ERASE DONE?
 000DB8 47E0 7DC2            00DF8  7171             +
 000DBC 4110 018B            0018B  7177     827.              SEG   'replaced '
 000DC0 4590 6966            0199C  7179             +
 000DC4 47F0 7DCA            00E00  7180     828.              B     PUTESEND                SEND IT
                                    7181     829.
 000DC8 4110 0195            00195  7182     830.     PUTDAPP  SEG   'appended '             TELL USER
 000DCC 4590 6966            0199C  7184             +
 000DD0 47F0 7DCA            00E00  7185     831.              B     PUTESEND                ALL
                                    7186     832.
 000DD4 4110 019F            0019F  7187     833.     PUTDNEW  SEG   'not found'
 000DD8 4590 6966            0199C  7189             +
 000DDC 9140 C003      00003        7190     834.              IF    ~GPWFAPP,PUTDNER        APPEND?
 000DE0 47E0 7DBA            00DF0  7202             +
 000DE4 4110 01A9            001A9  7208     835.              SEG   ' to append, '
 000DE8 4590 6966            0199C  7210             +
 000DEC 47F0 7DC2            00DF8  7211     836.              B     PUTEMSG
                                    7212     837.
 000DF0 4110 01B6            001B6  7213     838.     PUTDNER  SEG   ' to replace, '
 000DF4 4590 6966            0199C  7215             +
                                    7216     839.
 000DF8                             7217     840.     PUTEMSG  LABEL ,
                                    7219     841.
 000DF8 4110 01C4            001C4  7220     842.     PUTEND   SEG   'Put '
 000DFC 4590 6966            0199C  7222             +
                                    7223     843.
 000E00                             7224     844.     PUTESEND LABEL ,
 000E00 9180 C0B8      000B8        7226     845.              IF    ~GPWUILIB,VFMSG
 000E04 47E0 67EE            01824  7238             +
 000E08 9500 C08F      0008F        7244     846.              IF    (GPWLMNL,EQ,0),VFMSG
 000E0C 4780 67EE            01824  7259             +
 000E10 4110 01C9            001C9  7265     847.              SEG   'in '                   IN LIBRARY
 000E14 4590 6966            0199C  7267             +
 000E18 4D90 6926/0414       0195C  7268     848.              FSCALL SEGNAME
 000E1E 47F0 68DE            01914  7272     849.              B     QIETEXIT
                                    7273     850.
 000E22 4110 01CD            001CD  7274     851.     NOLIBAPP SEG   'Libraries may not be appended'
1VGP      (VGP00) (09:47) (22MAR04) ORVYL'S FILE SYSTEM SERVICE PROCESSOR                                                   Page   49
0Current Usings:  (BASE+4096,R6) (BASE,R7) (WA,R8) (CLW,R10) (GPW,R12)
0Loc    Object Code    Addr1 Addr2  Stmt Lv Lineno    Source Statement           (Hibal 5, Asmedit 3.3)  HLASM R4.0  2004/03/22 09.47
+___    ______ ____    _____ _____  ____ __ ______    ______ _________
0000E26 4590 6966            0199C  7276             +
 000E2A 47F0 68A8            018DE  7277     852.              B     ERROR
1VGP      (VGP00) (09:47) (22MAR04) ORVYL'S FILE SYSTEM SERVICE PROCESSOR                                                   Page   50
0Current Usings:  (BASE+4096,R6) (BASE,R7) (WA,R8) (CLW,R10) (GPW,R12)
0Loc    Object Code    Addr1 Addr2  Stmt Lv Lineno    Source Statement           (Hibal 5, Asmedit 3.3)  HLASM R4.0  2004/03/22 09.47
+___    ______ ____    _____ _____  ____ __ ______    ______ _________
0                                   7279     854.     *  GET AND PUT SCAN ROUTINES
                                    7280     855.     *
 000E2E 9140 C003      00003        7281     856.     CLRERASE IF    GPWFAPP,UNREC           APPEND SPECIFIED?
 000E32 4710 6790            017C6  7294             +
 000E36 9680 C003      00003        7300     857.              SET   GPWFERS                 SET ERASE
 000E3A 07FE                        7306     858.     IGNORE   SCRTN (15)
                                    7313     859.
 000E3C 9163 C006      00006        7314     860.     EDIT     IF    (GPWGPFV+GPWGPFLR+GPWGPFHX+GPWGPFN,NZ),UNREC
 000E40 4770 6790            017C6  7341             +
 000E44 9610 C006      00006        7347     861.              SET   GPWGPFE                 SET EDIT
 000E48 07FE                        7353     862.              SCRTN (15)
                                    7360     863.
 000E4A 4120 0085            00085  7361     864.     PRINT    LA    SR,133                  SET LEN
 000E4E 47F0 7E34            00E6A  7362     865.              B     LRECL1                  COMMON
                                    7363     866.
 000E52 4120 0050            00050  7364     867.     CARD     LA    SR,80                   SET LEN
 000E56 47F0 7E34            00E6A  7365     868.              B     LRECL1
                                    7366     869.
 000E5A 4780 6778            017AE  7367     870.     LRECL    BZ    MISSING                 NO PARM
 000E5E 5820 F000            00000  7368     871.              L     SR,@R15                 KWVAL
 000E62 4920 6B10            01B46  7369     872.              CH    SR,=Y(4)                OF MINIMAL VALUE?
 000E66 4740 6790            017C6  7370     873.              BL    UNREC                   ERROR IF NOT
 000E6A 9150 C006      00006        7371     874.     LRECL1   IF    (GPWGPFV+GPWGPFE,NZ),UNREC
 000E6E 4770 6790            017C6  7389             +
 000E72 9120 C006      00006        7395     875.              IF    ~GPWGPFLR,SETLREC       LRECL SET?
 000E76 47E0 7E4E            00E84  7407             +
 000E7A 4920 C034            00034  7413     876.              CH    SR,GPWLREC              REPEATING?
 000E7E 078E                        7414     877.              SCRTN (15),BC=E               YES
 000E80 47F0 6790            017C6  7421     878.              B     UNREC
 000E84 9620 C006      00006        7422     879.     SETLREC  SET   GPWGPFLR                SET LRECL
 000E88 4020 C034            00034  7429     880.              STH   SR,GPWLREC              SAVE LENGTH
 000E8C 9102 C006      00006        7430     881.              IF    GPWGPFHX,HEXCHECK       HEX?
 000E90 4710 7E90            00EC6  7442             +
 000E94 9101 C006      00006        7448     882.              IF    ~GPWGPFN,'SCRTN (15)'   NUMBERED?
 000E98 4710 7E68/07FE       00E9E  7458             +
 000E9E 47F0 7ED2            00F08  7475     883.              B     NUMCHECK                CHECK LEN
                                    7476     884.
 000EA2 9133 C006      00006        7477     885.     VARIABLE IF    (GPWGPFE+GPWGPFLR+GPWGPFHX+GPWGPFN,NZ),UNREC
 000EA6 4770 6790            017C6  7504             +
 000EAA 9640 C006      00006        7510     886.              SET   GPWGPFV                 SET VARIABLE
 000EAE 07FE                        7516     887.              SCRTN (15)
                                    7523     888.
 000EB0 9151 C006      00006        7524     889.     HEX      IF    (GPWGPFV+GPWGPFE+GPWGPFN,NZ),UNREC
 000EB4 4770 6790            017C6  7546             +
 000EB8 9602 C006      00006        7552     890.              SET   GPWGPFHX                SET HEX
 000EBC 9120 C006      00006        7558     891.              IF    ~GPWGPFLR,'SCRTN (15)'  LRECL ALREADY SET?
 000EC0 4710 7E90/07FE       00EC6  7568             +
 000EC6 9101 C035      00035        7585     892.     HEXCHECK TM    GPWLREC+1,1             EVEN COUNT?
 000ECA 078E                        7586     893.              SCRTN (15),BC=Z               YES
 000ECC 47F0 7FB8            00FEE  7593     894.              B     HEXNEVEN                ILLEGAL IF NOT
                                    7594     895.
 000ED0 4780 6778            017AE  7595     896.     SKIP     BZ    MISSING                 NO PARM
 000ED4 9108 C006      00006        7596     897.              IF    GPWGPFSK,UNREC          ALREADY?
 000ED8 4710 6790            017C6  7608             +
1VGP      (VGP00) (09:47) (22MAR04) ORVYL'S FILE SYSTEM SERVICE PROCESSOR                                                   Page   51
0Current Usings:  (BASE+4096,R6) (BASE,R7) (WA,R8) (CLW,R10) (GPW,R12)
0Loc    Object Code    Addr1 Addr2  Stmt Lv Lineno    Source Statement           (Hibal 5, Asmedit 3.3)  HLASM R4.0  2004/03/22 09.47
+___    ______ ____    _____ _____  ____ __ ______    ______ _________
0000EDC 9608 C006      00006        7614     898.              SET   GPWGPFSK                SET SKIP
 000EE0 D203 C02C F000 0002C 00000  7620     899.              MVC   GPWSKIP,@R15            COUNT FROM KWVAL
 000EE6 07FE                        7621     900.              SCRTN (15)
                                    7628     901.
 000EE8 9152 C006      00006        7629     902.     NUMB     IF    (GPWGPFV+GPWGPFE+GPWGPFHX,NZ),UNREC
 000EEC 4770 6790            017C6  7651             +
 000EF0 9601 C006      00006        7657     903.     NUMBINT  SET   GPWGPFN                 SET NUMBERED
 000EF4 9120 C006      00006        7664     904.              IF    GPWGPFLR,NUMCHECK       LRECL?
 000EF8 4710 7ED2            00F08  7676             +
 000EFC 9620 C006      00006        7682     905.              SET   GPWGPFLR                ASSUME LRECL=80
 000F00 D201 C034 6B0A 00034 01B40  7688     906.              MVC   GPWLREC(2),=Y(80)
 000F06 07FE                        7689     907.              SCRTN (15)
 000F08 D501 C034 6B0A 00034 01B40  7696     908.     NUMCHECK CLC   GPWLREC(2),=Y(80)
 000F0E 078E                        7697     909.              SCRTN (15),BC=E
 000F10 47F0 6790            017C6  7704     910.              B     UNREC
                                    7705     911.
 000F14 9180 C003      00003        7706     912.     APPEND   IF    GPWFERS,UNREC           ERASE SPECIFIED?
 000F18 4710 6790            017C6  7719             +
 000F1C 9640 C003      00003        7725     913.              SET   GPWFAPP                 SET APPEND
 000F20 07FE                        7731     914.              SCRTN (15)
                                    7738     915.
 000F22 9152 C006      00006        7739     916.     INTEGER  IF    (GPWGPFV+GPWGPFE+GPWGPFHX,NZ),UNREC
 000F26 4770 6790            017C6  7761             +
 000F2A 9680 C006      00006        7767     917.              SET   GPWGPFIN                SET INTEGER BIT
 000F2E 47F0 7EBA            00EF0  7773     918.              B     NUMBINT                 AND TREAT LIKE NUMBERED
                                    7774     919.
 000F32 9122 C006      00006        7775     920.     RENUMBER IF    (GPWGPFHX+GPWGPFLR,NZ),UNREC  ANY BAD GUYS?
 000F36 4770 6790            017C6  7793             +
 000F3A 9601 C003      00003        7799     921.              SET   GPWFRNUM                SET RENUMBER
 000F3E 184E                        7805     922.              LR    QR,R14                  SAVE RETURN TO SCANNER
 000F40 182F                        7806     923.              LR    SR,R15                  AND WORK AREA POINTER
 000F42 4D90 6926/08B8       0195C  7807     924.              FSCALL GETDELTA
 000F48 1211/4770 7F1C       00F52  7811     925.              IF    (R1,Z),'LA R1,1000'     Mikey is not ready yet
 000F4E 4110 03E8            003E8  7826             +
 000F52 5010 C1D0            001D0  7831     926.              ST    R1,GPWDELTA             SAVE
 000F56 18E4                        7832     927.              LR    R14,QR
 000F58 18F2/07FE                   7833     928.              SCRTN (SR)
1VGP      (VGP00) (09:47) (22MAR04) ORVYL'S FILE SYSTEM SERVICE PROCESSOR                                                   Page   52
0Current Usings:  (BASE+4096,R6) (BASE,R7) (WA,R8) (CLW,R10) (GPW,R12)
0Loc    Object Code    Addr1 Addr2  Stmt Lv Lineno    Source Statement           (Hibal 5, Asmedit 3.3)  HLASM R4.0  2004/03/22 09.47
+___    ______ ____    _____ _____  ____ __ ______    ______ _________
0000F5C 9104 C006      00006        7841     930.     BLKSIZE  IF    GPWGPFBK,UNREC          ALREADY?
 000F60 4710 6790            017C6  7854             +
 000F64 954D 1000      00000        7860     931.              CLI   @R1,C'('                BLOCKSIZE?
 000F68 4770 6790            017C6  7861     932.              BNE   UNREC                   NO
 000F6C 1820                        7862     933.              LR    SR,R0                   CHECK END
 000F6E 1A21                        7863     934.              AR    SR,R1
 000F70 0620                        7864     935.              DECR  SR
 000F72 955D 2000      00000        7866     936.              CLI   @SR,C')'                END PROPER?
 000F76 4770 6790            017C6  7867     937.              BNE   UNREC
 000F7A 4900 6B14            01B4A  7868     938.              CH    R0,=Y(2)                LEN OK?
 000F7E 47D0 6790            017C6  7869     939.              BNH   UNREC
 000F82 0600                        7870     940.              DECR  R0
 000F84 0600                        7872     941.              DECR  R0                      RIGHT LEN
 000F86 4110 1001            00001  7874     942.              LA    R1,@R1+1                RIGHT LOC
 000F8A 184E                        7875     943.              LR    QR,R14                  SAVE RETURN TO SCANNER
 000F8C 182F                        7876     944.              LR    SR,R15                  AND WORK AREA POINTER
 000F8E 58E0 6A56/0DEE       01A8C  7877     945.              XCALL DTB                     CONVERT
 000F94 4770 6790            017C6  7881     946.              BNZ   UNREC
 000F98 40F0 C01A            0001A  7882     947.              STH   R15,GPWBLK              SAVE BLKSIZE
 000F9C 9604 C006      00006        7883     948.              SET   GPWGPFBK                SET BLOCKSIZE
 000FA0 18E4                        7889     949.              LR    R14,QR
 000FA2 18F2/07FE                   7890     950.              SCRTN (SR)
1VGP      (VGP00) (09:47) (22MAR04) ORVYL'S FILE SYSTEM SERVICE PROCESSOR                                                   Page   53
0Current Usings:  (BASE+4096,R6) (BASE,R7) (WA,R8) (CLW,R10) (GPW,R12)
0Loc    Object Code    Addr1 Addr2  Stmt Lv Lineno    Source Statement           (Hibal 5, Asmedit 3.3)  HLASM R4.0  2004/03/22 09.47
+___    ______ ____    _____ _____  ____ __ ______    ______ _________
0                                   7898     952.     *
 000FA6 4110 6B77            01BAD  7899     953.     NIXHEX   ERRXT 'Hex requires lrecl format'
 000FAA 4100 0019            00019  7904             +
 000FAE 4590 690E            01944  7905             +
 000FB2 47F0 7004            00004  7906             +
0000FB6 4110 6B90            01BC6  7908     955.     NIXNIXR  ERRXT 'Unable to access non-IXR file'
 000FBA 4100 001D            0001D  7913             +
 000FBE 4590 690E            01944  7914             +
 000FC2 47F0 7004            00004  7915             +
0000FC6 4110 6BAD            01BE3  7917     957.     NIXRENUM ERRXT 'Renumber requires edit or variable format'
 000FCA 4100 0029            00029  7922             +
 000FCE 4590 690E            01944  7923             +
 000FD2 47F0 7004            00004  7924             +
0000FD6 4110 01EB            001EB  7926     959.     INCFORM  SEG   'Specified '
 000FDA 4590 6966            0199C  7928             +
 000FDE 4110 6A5A            01A90  7929     960.     INCFRM2  ERRXT 'Format inconsistent with file format'
 000FE2 4100 0024            00024  7934             +
 000FE6 4590 690E            01944  7935             +
 000FEA 47F0 7004            00004  7936             +
0000FEE 4110 6BD6            01C0C  7938     962.     HEXNEVEN ERRXT 'Hex requires even lrecl'
 000FF2 4100 0017            00017  7943             +
 000FF6 4590 690E            01944  7944             +
 000FFA 47F0 7004            00004  7945             +
0000FFE 4110 6992            019C8  7947     964.     ZRLREC   ERRXT 'File has invalid lrecl 0'
 001002 4100 0018            00018  7952             +
 001006 4590 690E            01944  7953             +
 00100A 47F0 7004            00004  7954             +
000100E 4110 69AA            019E0  7956     966.     PUTLOAD  ERRXT 'Cannot put to a loadfile'
 001012 4100 0018            00018  7961             +
 001016 4590 690E            01944  7962             +
 00101A 47F0 7004            00004  7963             +
1VGP      (VGP00) (09:47) (22MAR04) ORVYL'S FILE SYSTEM SERVICE PROCESSOR                                                   Page   54
0Current Usings:  (BASE+4096,R6) (BASE,R7) (WA,R8) (CLW,R10) (GPW,R12)
0Loc    Object Code    Addr1 Addr2  Stmt Lv Lineno    Source Statement           (Hibal 5, Asmedit 3.3)  HLASM R4.0  2004/03/22 09.47
+___    ______ ____    _____ _____  ____ __ ______    ______ _________
0                                   7965     968.     *
                                    7966     969.     *MOVEBLOCK EXPECTS 1 - TO LOCATION
                                    7967     970.     *                 14 - FROM LOCATION
                                    7968     971.     *                 15 - 0 MEANING READ FROM 1 UNTIL EOF
                                    7969     972.     *                      OR THE # OF BLOCKS TO MOVE
                                    7970     973.     *
                                    7971     974.     * RETURNS R1 -> NEXT BLOCK THAT WOULD HAVE BEEN WRITTEN TO
                                    7972     975.     *
                                    7973     976.     * MOVEBLOK WILL NOT ALLOW AN IDLE ATTENTION*******
                                    7974     977.     *
 00101E                             7975     978.     MOVEBLOK LABEL ,
 00101E 902B D000            00000  7977     979.              VPUSH R2,R11,*
 001022 41D0 D028            00028  7979             +
 001026 1821                        7980     980.              LR    R2,R1                   TO LOCATION
 001028 183E                        7981     981.              LR    R3,R14                  FROM LOCATION
 00102A 184F                        7982     982.              LR    R4,R15                  HOW MANY TO DO OR 0
 00102C                             7983     983.     MOVBLOOP LABEL ,
 00102C 5030 C0C0            000C0  7985     984.              ST    R3,GPWBN
 001030 4D90 6926/0C0C       0195C  7986     985.              FSCALL REDNOIDL               GET SOMETHING TO MOVE
 001036 4780 6014            0104A  7990     986.              BZ    MOVEBOK                 GOOD READ
 00103A 9108 C001      00001        7991     987.              IF    ~GPWFNSKP,MOVEEOF       TEST FOR NO SKIP
 00103E 47E0 6040            01076  8003             +
 001042 4130 3001            00001  8009     988.              LA    R3,1(,R3)               KEEP TRYING FOR MEMBER
 001046 47F0 602E            01064  8010     989.              B     MOVEBUMP
 00104A 18B3                        8011     990.     MOVEBOK  LR    R11,R3                  WE WILL DELETE BLOCK READ
 00104C 5830 C0C0            000C0  8012     991.              L     R3,GPWBN                NEXT ONE WE WILL READ
 001050 18F1                        8013     992.              LR    R15,R1                  HOW MUCH TO WRITE OUT
 001052 5020 C0C0            000C0  8014     993.              ST    R2,GPWBN
 001056 4D90 6926/0C14       0195C  8015     994.              FSCALL WRITE
 00105C 18FB                        8019     995.              LR    R15,R11                 BLOCK TO DELETE
 00105E 4D90 6926/0804       0195C  8020     996.              FSCALL DELREC
 001064 4120 2001            00001  8024     997.     MOVEBUMP LA    R2,@R2+1                NEXT TO WRITE
 001068 1244/4780 603A       01070  8025     998.              IF    (R4,NZ),'DECR  R4'      ONE LESS TO DO
 00106E 0640                        8041             +
 001070 1244/4720 7FF6       0102C  8046     999.              IF    (R4,P),MOVBLOOP
 001076                             8063    1000.     MOVEEOF  LABEL ,
 001076 1812                        8065    1001.              LR    R1,R2
 001078 4BD0 6B16            01B4C  8066    1002.              VPOP  R2,R11,*
 00107C 982B D000            00000  8068             +
 001080 07F9                        8069    1003.              BR    RAR
1VGP      (VGP00) (09:47) (22MAR04) ORVYL'S FILE SYSTEM SERVICE PROCESSOR                                                   Page   55
0Current Usings:  (BASE+4096,R6) (BASE,R7) (WA,R8) (CLW,R10) (GPW,R12)
0Loc    Object Code    Addr1 Addr2  Stmt Lv Lineno    Source Statement           (Hibal 5, Asmedit 3.3)  HLASM R4.0  2004/03/22 09.47
+___    ______ ____    _____ _____  ____ __ ______    ______ _________
0                                   8071    1005.     *  SHRINK FILE
                                    8072    1006.     *
 001082                             8073    1007.     SHRINK   LABEL ,
 001082 4D90 6926/0404       0195C  8075    1008.              FSCALL GETNAME                GET FILENAME
 001088 5810 6A1A            01A50  8079    1009.              LSCAN USRGPTB0,CLWKWCB        SCAN USER AND GROUP
 00108C 41F0 A2C4            002C4  8093             +
 001090 58E0 6A0A/0DEE       01A40  8096             +
 001096 4770 67BE            017F4  8098    1010.              BNZ   SCRET                   SCAN ERROR
                                    8099    1011.
 00109A 4D90 6926/1408       0195C  8100    1012.              FSCALL ASMBLNAM                PUT NAME TOGETHER
 0010A0 4D90 6926/0010       0195C  8104    1013.              FSCALL ATTOLDE                ATTACH EXCLUSIVE
 0010A6 9180 C0B8      000B8        8108    1014.              IF    GPWUILIB,SHRLIB         SHRINKING LIBRARY?
 0010AA 4710 60B4            010EA  8120             +
 0010AE 4D90 6926/0810       0195C  8126    1015.              FSCALL SENFREC                GET FIRST REC NO
 0010B4 1B33                        8130    1016.              CLEAR R3                   WHERE FIRST SHOULD START
 0010B6 1221                        8134    1017.              LTR   R2,R1                   FIRST REC 0?
 0010B8 4770 6098            010CE  8135    1018.              BNZ   SHRL2                   NO - GO SHRINK
 0010BC 4120 2001            00001  8136    1019.     SHRSENLP LA    R2,@R2+1                CHECK FOR NEXT REC
 0010C0 18F2                        8137    1020.              LR    R15,R2
 0010C2 4D90 6926/080C       0195C  8138    1021.              FSCALL SENREC                 IS IT THERE?
 0010C8 4780 6086            010BC  8142    1022.              BZ    SHRSENLP                YES, TRY NEXT
 0010CC 1832                        8143    1023.              LR    R3,R2                   DEST OF FIRST RECORD
 0010CE 1BFF                        8144    1024.     SHRL2    CLEAR R15                     PUSH WHOLE FILE DOWN
 0010D0 18E2                        8149    1025.              LR    R14,R2                  LOCATION OF FIRST RECORD
 0010D2 1813                        8150    1026.              LR    R1,R3                   DESTINATION OF 1ST RECORD
 0010D4 4D90 7FE8            0101E  8151    1027.              LCALL MOVEBLOK
 0010D8 4D90 6926/0414       0195C  8153    1028.     SHREND   FSCALL SEGNAME                WRITE FILENAME
 0010DE 4110 01F6            001F6  8157    1029.              SEG   'Shrunk '
 0010E2 4590 6966            0199C  8159             +
 0010E6 47F0 67EE            01824  8160    1030.              B     VFMSG
1VGP      (VGP00) (09:47) (22MAR04) ORVYL'S FILE SYSTEM SERVICE PROCESSOR                                                   Page   56
0Current Usings:  (BASE+4096,R6) (BASE,R7) (WA,R8) (CLW,R10) (GPW,R12)
0Loc    Object Code    Addr1 Addr2  Stmt Lv Lineno    Source Statement           (Hibal 5, Asmedit 3.3)  HLASM R4.0  2004/03/22 09.47
+___    ______ ____    _____ _____  ____ __ ______    ______ _________
0                                   8162    1032.     *  SHRINK A LIBRARY
                                    8163    1033.     *
 0010EA                             8164    1034.     SHRLIB   LABEL ,
 0010EA 4D90 6926/1000       0195C  8166    1035.              FSCALL GETDIR                  BRING IN DIRECTORY
 0010F0 5810 C040            00040  8170    1036.              L     R1,GPWDIRAP             DIRECTORY ADDRESS
 USING  DIRB,R1                     8171    1037.              USING DIRB,R1                 ##
 0010F4 5810 1000/1211       00000  8180    1038.              LT    R1,DIRBLINK
 DROP   DIRB,R1                     8184    1039.              DROP  R1                      ##
 0010FA 4770 6748            0177E  8191    1040.              BNZ   NOSHRINK                CAN'T PROCESS IF > A BLOCK
                                    8192    1041.     *
                                    8193    1042.     *  SCAN THE DIRECTORY MEMBERS TO LOCATE THE MEMBER WITH THE
                                    8194    1043.     *  LOWEST START BLOCK ABOVE THE THRESHOLD VALUE.
                                    8195    1044.     *
 0010FE 1B44                        8196    1045.              CLEAR R4                   INITIALIZE THRESHOLD BLOCK
 001100                             8200    1046.     SHRSCN   LABEL ,
 001100 1B11                        8202    1047.              CLEAR R1
 001102 5820 C040            00040  8206    1048.              L     R2,GPWDIRAP             DIRECTORY ADDRESS
 USING  DIRB,R2                     8207    1049.              USING DIRB,R2                 ##
 001106 4100 2800            00800  8216    1050.              LA    R0,DIRBLEN(,R2)         END OF MEMBERS
 00110A 4120 2010            00010  8217    1051.              LA    R2,DIRBDENT             FIRST MEMBER ENTRY
 DROP   DIRB,R2                     8218    1052.              USING DENTRY,R2               ##
 USING  DENTRY,R2
 00110E 9540 2000      00000        8230    1053.     SHRSCNL  CLI   DNAME,C' '              DONE WITH ENTRYS?
 001112 4780 610C            01142  8231    1054.              BE    SHRSCNM                 YES
 001116 9540 2008      00008        8232    1055.              IF    ('CLI  DFLG1,DALICD',LT),BEGIN
 00111A 47B0 610C            01142  8240             +
 00111E 1FFF/BFF7 200A       0000A  8245  1 1056.                L3    R15,DFBN                MEMBER START
 001124 194F/4730 610C       01142  8253  1 1057.                IF    (R4,LE,R15),BEGIN       THRESHOLD REACHED
 00112A 1211/4770 60FC       01132  8268  2 1058.                  IF    (R1,Z),'LR  R1,R2'      FIRST CANDIDATE
 001130 1812                        8283  2          +
 001132 41E0 E000            00000  8288  2 1059.                  LA    R14,@R14
 001136 BFE7 100A            0000A  8289  2 1060.                  ICM   R14,B'0111',DFBN-DENTRY(R1)
 00113A 19FE/47B0 610C       01142  8290  2 1061.                  IF    (R15,LT,R14),'LR R1,R2' THIS IS BETTER
 001140 1812                        8306  2          +
 001142                             8311  1 1062.                END   ,
 001142                             8315    1063.              END   ,
 001142 4120 2010            00010  8319    1064.     SHRSCNM  LA    R2,DNEXT                BUMP TO NEXT
 001146 1920/4740 60D8       0110E  8320    1065.              IF    (R2,LT,R0),SHRSCNL      AND CHECK
 DROP   DENTRY,R2                   8338    1066.              DROP  R2                      ##
                                    8345    1067.     *  SCAN COMPLETE,  R1 LOCATES NEW CANDIDATE
 00114C 1211/4780 616C       011A2  8346    1068.     SHRSCNX  IF    (R1,Z),SHRLFIN          FINISH UP
 USING  DENTRY,R1                   8364    1069.              USING DENTRY,R1               ##
 001152 18F4                        8373    1070.              LR    R15,R4                  POSSIBLE DELETE BLOCK
 001154 1FEE/BFE7 100A       0000A  8374    1071.              L3    R14,DFBN                START BLOCK
 00115A 194E/4780 612E       01164  8382    1072.              IF    (R4,NE,R14),'LA R4,@R4+1'    BUMP THRESHOLD BLOCK
 001160 4140 4001            00001  8398             +
 001164 1F22/BF27 100D       0000D  8403    1073.              L3    R2,DBCT                 NUMBER OF BLOCKS
 00116A 194E/47B0 615C       01192  8411    1074.              IF    (R4,LT,R14),BEGIN      BLOCKS MUST BE MOVED
 001170 BE47 100A            0000A  8426  1 1075.                ST3   R4,DFBN                 RESET THRESHOLD
 001174 12FF/4780 614A       01180  8428  1 1076.                IF    (R15,NZ),'FSCALL DELREC'   ENSURE A HOLE
 00117A 4D90 6926/0804       0195C  8445  1          +
 001180 1814                        8451  1 1077.                LR    R1,R4                   NEW START BLOCK
 001182 18F2                        8452  1 1078.                LR    R15,R2                  NUMBER OF BLOCKS
 001184 9608 C001      00001        8453  1 1079.                SET   GPWFNSKP                NO MODE SKIP ON READ
1VGP      (VGP00) (09:47) (22MAR04) ORVYL'S FILE SYSTEM SERVICE PROCESSOR                                                   Page   57
0Current Usings:  (DENTRY,R1) (BASE+4096,R6) (BASE,R7) (WA,R8) (CLW,R10) (GPW,R12)
0Loc    Object Code    Addr1 Addr2  Stmt Lv Lineno    Source Statement           (Hibal 5, Asmedit 3.3)  HLASM R4.0  2004/03/22 09.47
+___    ______ ____    _____ _____  ____ __ ______    ______ _________
0001188 4D90 7FE8            0101E  8459  1 1080.                LCALL MOVEBLOK                MOVE THEM
 00118C 4D90 6926/1004       0195C  8461  1 1081.                FSCALL PUTDIR                 REWRITE DIRECTORY
 001192                             8465    1082.              END   ,
 001192 1A42                        8469    1083.              AR    R4,R2                   GET PAST MEMBER
 DROP   DENTRY,R1                   8470    1084.              DROP  R1                      ##
 001194 5890 6A7E/0D99       01AB4  8477    1085.              VCALL CHKATTN
 00119A 4770 67DE            01814  8481    1086.              IF    NZ,REQABORT             ATTN?
 00119E 47F0 60CA            01100  8495    1087.              B     SHRSCN                  GO TRY ANOTHER
                                    8496    1088.     *
                                    8497    1089.     *  ALL MEMBERS PROCESSED - FINISH UP
 0011A2 4D90 6926/0814       0195C  8498    1090.     SHRLFIN  FSCALL SENLREC                SENSE LAST RECORD
 0011A8 1211/4780 6188       011BE  8502    1091.              IF    ((R1,NZ),AND,(R1,GE,R4)),BEGIN
 0011AE 1914/4750 6188       011BE  8524             +
 0011B4 18F4                        8530  1 1092.                LR    R15,R4                  RANGE START
 0011B6 18E1                        8531  1 1093.                LR    R14,R1                  LAST BLOCK
 0011B8 4D90 6926/0808       0195C  8532  1 1094.                FSCALL DELLOTS                DELETE RECORDS TO END
 0011BE                             8536    1095.              END   ,
 0011BE 47F0 60A2            010D8  8540    1096.              B     SHREND
1VGP      (VGP00) (09:47) (22MAR04) ORVYL'S FILE SYSTEM SERVICE PROCESSOR                                                   Page   58
0Current Usings:  (BASE+4096,R6) (BASE,R7) (WA,R8) (CLW,R10) (GPW,R12)
0Loc    Object Code    Addr1 Addr2  Stmt Lv Lineno    Source Statement           (Hibal 5, Asmedit 3.3)  HLASM R4.0  2004/03/22 09.47
+___    ______ ____    _____ _____  ____ __ ______    ______ _________
0                                   8542    1098.     *  SET FILE PRIVILEGES
                                    8543    1099.     *
 0011C2                             8544    1100.     SETPERMI LABEL ,
 0011C2 4D90 6612            01648  8546    1101.              LCALL CHECKFOR                TEST FOR ACCT OR FILENAME
 0011C6 47FF 6194            011CA  8548    1102.              B     *+4(15)                 RETURN CODE IS IN 15
 0011CA 47F0 6778            017AE  8549    1103.              B     MISSING                 0  NOTHING THERE
 0011CE 47F0 61A4            011DA  8550    1104.              B     SETPERFL                4  FILENAME
 0011D2 47F0 6210            01246  8551    1105.              B     SETPRACC                8  ACCT
 0011D6 47F0 6224            0125A  8552    1106.              B     SETPRACF                12 FOR WAS FOUND
                                    8553    1107.
 0011DA 4D90 6926/0404       0195C  8554    1108.     SETPERFL FSCALL GETNAME                GET FILENAME
 0011E0 5810 6A82            01AB8  8558    1109.              LSCAN FORTBL,CLWKWCB          LOOK FOR 'FOR' (MUST BE)
 0011E4 41F0 A2C4            002C4  8572             +
 0011E8 58E0 6A0A/0DEE       01A40  8575             +
 0011EE 47F0 6778            017AE  8577    1110.              B     MISSING                 'FOR' NOT FOUND
 0011F2 4D90 6692            016C8  8578    1111.     SETPRFOR LCALL FOR                     FOUND 'FOR'
                                    8580    1112.
 0011F6 9508 C005      00005        8581    1113.              CLI   GPWPERM,L'GPWPRMEX      EXTEND ONLY?
 0011FA 4780 6708            0173E  8582    1114.              BE    NOEXTEND                ILLEGAL IF SO
 0011FE 9500 C08E      0008E        8583    1115.              CLI   GPWFNL,0                ANY FILE NAME?
 001202 4780 6236            0126C  8584    1116.              BE    SETPERAC                NO: PERMIT ACCOUNT
                                    8585    1117.
 001206 9610 C001      00001        8586    1118.              SET   GPWFNSF                 DO NOT SENSE USER INFO
 00120A 4D90 6926/1408       0195C  8592    1119.              FSCALL ASMBLNAM
 001210 4D90 6926/0010       0195C  8596    1120.              FSCALL ATTOLDE                GET FILE EXCLUSIVELY
 001216 9104 C003      00003        8600    1121.              IF    ~GPWFACC,SETPRFOK       GROUP SPECIFIED?
 00121A 47E0 6206            0123C  8612             +
 00121E 1FEE/43E0 C08D       0008D  8618    1122.              CLPSERV DEVINFO,WADEVINF,L'WADEVINF,LC:GPWFID
 001224 41F0 002E            0002E  8635             +
 001228 4110 8028            00028  8642             +
 00122C 4100 0064/0AED       00064  8649             +
 001232 D505 C007 802E 00007 0002E  8651    1123.              CLC   GPWACCT,WADEVNM+4       FILE OWNER?
 001238 4780 67A4            017DA  8652    1124.              BE    ACCTINC                 YES - SHOULD USE SET FILEMASK
 00123C 4D90 6926/0858       0195C  8653    1125.     SETPRFOK FSCALL DOPERM                 ORVYL
 001242 47F0 67D8            0180E  8657    1126.              B     FILEXIT                 DONE
                                    8658    1127.
 001246 4D90 6926/1418       0195C  8659    1128.     SETPRACC FSCALL FORGROUP                FOUND ACCT
 00124C 94FB C003      00003        8663    1129.              CLEAR GPWFACC                 UNSET THE ACCT BIT
 001250 D205 C00D C007 0000D 00007  8670    1130.              MVC   GPWAACCT,GPWACCT        SAVE ACCT
 001256 9602 C003      00003        8671    1131.              SET   GPWFAACC                SET ALT ACCT
 00125A 5810 6A86            01ABC  8677    1132.     SETPRACF LSCAN FORTBL1,CLWKWCB         NEXT THING MUST BE 'FOR'
 00125E 41F0 A2C4            002C4  8691             +
 001262 58E0 6A0A/0DEE       01A40  8694             +
 001268 47F0 6778            017AE  8696    1133.              B     MISSING                 IF NOT ...
                                    8697    1134.
 00126C                             8698    1135.     SETPERAC LABEL ,
 00126C 910C C003      00003        8700    1136.              IF    (GPWFACC+GPWFPUB,Z),MISSING   COMPLETE COMMAND?
 001270 4780 6778            017AE  8717             +
 001274 9104 C003      00003        8723    1137.              IF    ~GPWFACC,SETPRCKA       GROUP SPECIFIED?
 001278 47E0 6266            0129C  8735             +
 00127C 9102 C003      00003        8741    1138.              IF    ~GPWFAACC,SETPRCKG      TWO GROUPS?
 001280 47E0 6272            012A8  8753             +
 001284 D505 C007 C00D 00007 0000D  8759    1139.              CLC   GPWACCT,GPWAACCT        ARE THEY THE SAME?
 00128A 4770 6286            012BC  8760    1140.              BNE   SETPRAOK
1VGP      (VGP00) (09:47) (22MAR04) ORVYL'S FILE SYSTEM SERVICE PROCESSOR                                                   Page   59
0Current Usings:  (BASE+4096,R6) (BASE,R7) (WA,R8) (CLW,R10) (GPW,R12)
0Loc    Object Code    Addr1 Addr2  Stmt Lv Lineno    Source Statement           (Hibal 5, Asmedit 3.3)  HLASM R4.0  2004/03/22 09.47
+___    ______ ____    _____ _____  ____ __ ______    ______ _________
000128E D502 C00A 6BED 0000A 01C23  8761    1141.              CLC   GPWACCT+L'GG+1(L'UUU),=C'PUB'  ALLOW GROUP PERMITS
 001294 4770 67A4            017DA  8762    1142.              BNE   ACCTINC                 NOT GROUP
 001298 47F0 6286            012BC  8763    1143.              B     SETPRAOK
 00129C 9102 C003      00003        8764    1144.     SETPRCKA IF    GPWFAACC,NOPUBPER       SET ACC FOR PUBLIC?
 0012A0 4710 6768            0179E  8777             +
 0012A4 47F0 6286            012BC  8783    1145.              B     SETPRAOK
 0012A8 D502 C00A A3B3 0000A 003B3  8784    1146.     SETPRCKG CLC   GPWACCT+L'GG+1(L'UUU),CLWUSER     USER MATCH
 0012AE 4770 6286            012BC  8785    1147.              BNE   SETPRAOK                NO - OK
 0012B2 D501 C007 A3B0 00007 003B0  8786    1148.              CLC   GPWACCT(L'GG),CLWGROUP            GROUP MATCH?
 0012B8 4780 67A4            017DA  8787    1149.              BE    ACCTINC                 YES - ERROR
 0012BC 4D90 6926/0880       0195C  8788    1150.     SETPRAOK FSCALL MEMBER                 GO SET MEMBER
 0012C2 47F0 67D8            0180E  8792    1151.              B     FILEXIT                 DONE
                                    8793    1152.
 0012C6 9601 C005      00005        8794    1153.     PERMRD   SET   GPWPRMRD                SET READ ALLOWED
 0012CA 07FE                        8801    1154.              SCRTN (15)
                                    8808    1155.
 0012CC 9602 C005      00005        8809    1156.     PERMAPP  SET   GPWPRMAP                SET APPEND ALLOWED
 0012D0 07FE                        8816    1157.              SCRTN (15)
                                    8823    1158.
 0012D2 9607 C005      00005        8824    1159.     PERMWR   SET   GPWPRMWR                SET WRITE ALLOWED
 0012D6 07FE                        8831    1160.              SCRTN (15)
                                    8838    1161.
 0012D8 9107 C005      00005        8839    1162.     PERMNONE IF    GPWPRMWR,UNREC          ANY SET?
 0012DC 4710 6790            017C6  8852             +
 0012E0 07FE                        8858    1163.              SCRTN (15)
                                    8865    1164.
 0012E2 9108 C003      00003        8866    1165.     PERMEXT  IF    GPWFPUB,UNREC           PUBLIC?
 0012E6 4710 6790            017C6  8879             +
 0012EA 9608 C005      00005        8885    1166.              SET   GPWPRMEX                SET EXTEND ALLOWED
 0012EE 07FE                        8891    1167.              SCRTN (15)
                                    8898    1168.
 0012F0 9603 C005      00005        8899    1169.     PERMRA   SET   GPWPRMAP+GPWPRMRD       SET READ AND APPEND
 0012F4 07FE                        8909    1170.              SCRTN (15)
1VGP      (VGP00) (09:47) (22MAR04) ORVYL'S FILE SYSTEM SERVICE PROCESSOR                                                   Page   60
0Current Usings:  (BASE+4096,R6) (BASE,R7) (WA,R8) (CLW,R10) (GPW,R12)
0Loc    Object Code    Addr1 Addr2  Stmt Lv Lineno    Source Statement           (Hibal 5, Asmedit 3.3)  HLASM R4.0  2004/03/22 09.47
+___    ______ ____    _____ _____  ____ __ ______    ______ _________
0                                   8917    1172.     *  SET FILE SHARE ONLY
                                    8918    1173.     *
 0012F6                             8919    1174.     SETSHARE LABEL ,
 0012F6 4D90 6926/0404       0195C  8921    1175.              FSCALL GETNAME                GET FILENAME
 0012FC 5810 6A8A            01AC0  8925    1176.              LSCAN USRGPTBL,CLWKWCB        GET USER AND GROUP
 001300 41F0 A2C4            002C4  8939             +
 001304 58E0 6A0A/0DEE       01A40  8942             +
 00130A 4D90 6926/1408       0195C  8944    1177.              FSCALL ASMBLNAM                PUT IT TOGETHER
 001310 4120 0004            00004  8948    1178.              LA    SR,4                    SET FOR SHARE ONLY
 001314 47F0 62FE            01334  8949    1179.              B     SETSHRCM                CONTINUE
                                    8950    1180.     *
                                    8951    1181.     *  SET FILE ATTACHABLE EXCLUSIVE
                                    8952    1182.     *
 001318                             8953    1183.     SETNOSHA LABEL ,
 001318 4D90 6926/0404       0195C  8955    1184.              FSCALL GETNAME                GET FILENAME
 00131E 5810 6A8A            01AC0  8959    1185.              LSCAN USRGPTBL,CLWKWCB        GET USER AND GROUP
 001322 41F0 A2C4            002C4  8973             +
 001326 58E0 6A0A/0DEE       01A40  8976             +
 00132C 4D90 6926/1408       0195C  8978    1186.              FSCALL ASMBLNAM                PUT IT TOGETHER
 001332 1B22                        8982    1187.              CLEAR SR                   SET FOR NORMAL ATTACH
                                    8986    1188.
 001334                             8987    1189.     SETSHRCM LABEL ,
 001334 9610 C001      00001        8989    1190.              SET   GPWFNSF                 DO NOT SENSE USER INFO
 001338 4D90 6926/000C       0195C  8995    1191.              FSCALL ATTOLD                 GET FILE(NOT EXCLUSIVE)
 00133E 18F2                        8999    1192.              LR    R15,SR                  SET TYPE OF CALL
 001340 4D90 6926/0828       0195C  9000    1193.              FSCALL SETSHR                 SET STATUS
 001346 47F0 67D8            0180E  9004    1194.              B     FILEXIT                 DONE
1VGP      (VGP00) (09:47) (22MAR04) ORVYL'S FILE SYSTEM SERVICE PROCESSOR                                                   Page   61
0Current Usings:  (BASE+4096,R6) (BASE,R7) (WA,R8) (CLW,R10) (GPW,R12)
0Loc    Object Code    Addr1 Addr2  Stmt Lv Lineno    Source Statement           (Hibal 5, Asmedit 3.3)  HLASM R4.0  2004/03/22 09.47
+___    ______ ____    _____ _____  ____ __ ______    ______ _________
0                                   9006    1196.     * CLP/NOCLP FILE ATTRIBUTE
                                    9007    1197.     *
 00134A                             9008    1198.     SETCLP   LABEL ,
 00134A 4D90 6926/0404       0195C  9010    1199.              FSCALL GETNAME                GET FILE NAME ROOT
 001350 5810 6A8A            01AC0  9014    1200.              LSCAN USRGPTBL,CLWKWCB        LOOK FOR USER OR GROUP
 001354 41F0 A2C4            002C4  9028             +
 001358 58E0 6A0A/0DEE       01A40  9031             +
 00135E 4770 67BE            017F4  9033    1201.              BNZ   SCRET                   ERROR IN SCAN
 001362 4D90 6926/1408       0195C  9034    1202.              FSCALL ASMBLNAM                GET FILENAME
 001368 1B22                        9038    1203.              CLEAR SR                   INDICATE SET CLP
 00136A 47F0 635A            01390  9042    1204.              B     SETCLPCM                DO IT
                                    9043    1205.
 00136E                             9044    1206.     SETNOCLP LABEL ,
 00136E 4D90 6926/0404       0195C  9046    1207.              FSCALL GETNAME                GET FILENAME ROOT
 001374 5810 6A8A            01AC0  9050    1208.              LSCAN USRGPTBL,CLWKWCB        LOOK FOR USER OR GROUP
 001378 41F0 A2C4            002C4  9064             +
 00137C 58E0 6A0A/0DEE       01A40  9067             +
 001382 4770 67BE            017F4  9069    1209.              BNZ   SCRET                   ERROR IN SCAN
 001386 4D90 6926/1408       0195C  9070    1210.              FSCALL ASMBLNAM                GET FILENAME
 00138C 4120 0004            00004  9074    1211.              LA    SR,4                    INDICATE SET NOCLP
                                    9075    1212.
 001390 9610 C001      00001        9076    1213.     SETCLPCM SET   GPWFNSF                 DO NOT SENSE USER INFO
 001394 4D90 6926/000C       0195C  9083    1214.              FSCALL ATTOLD                 ATTACH FILE(NOT EXCLUSIVE)
 00139A 18F2                        9087    1215.              LR    R15,SR                  INDICATE SET OR NOT
 00139C 4D90 6926/0838       0195C  9088    1216.              FSCALL DOSETCLP                AND GO DO IT
 0013A2 47F0 67D8            0180E  9092    1217.              B     FILEXIT
1VGP      (VGP00) (09:47) (22MAR04) ORVYL'S FILE SYSTEM SERVICE PROCESSOR                                                   Page   62
0Current Usings:  (BASE+4096,R6) (BASE,R7) (WA,R8) (CLW,R10) (GPW,R12)
0Loc    Object Code    Addr1 Addr2  Stmt Lv Lineno    Source Statement           (Hibal 5, Asmedit 3.3)  HLASM R4.0  2004/03/22 09.47
+___    ______ ____    _____ _____  ____ __ ______    ______ _________
0                                   9094    1219.     * SET/CLEAR SPIRES ONLY FILE ATTRIBUTE
                                    9095    1220.     *
 0013A6                             9096    1221.     SETSPIFI LABEL ,
 0013A6 4D90 6926/0404       0195C  9098    1222.              FSCALL GETNAME                GET FILE NAME ROOT
 0013AC 5810 6A8A            01AC0  9102    1223.              LSCAN USRGPTBL,CLWKWCB        LOOK FOR USER OR GROUP
 0013B0 41F0 A2C4            002C4  9116             +
 0013B4 58E0 6A0A/0DEE       01A40  9119             +
 0013BA 4770 67BE            017F4  9121    1224.              BNZ   SCRET                   ERROR IN SCAN
 0013BE 4D90 6926/1408       0195C  9122    1225.              FSCALL ASMBLNAM                GET FILENAME
 0013C4 4120 0004            00004  9126    1226.              LA    SR,4                    INDICATE SET SPIRES ONLY
 0013C8 47F0 63B6            013EC  9127    1227.              B     SETSPICM                DO IT
                                    9128    1228.
 0013CC                             9129    1229.     SETNOSPI LABEL ,
 0013CC 4D90 6926/0404       0195C  9131    1230.              FSCALL GETNAME                GET FILENAME ROOT
 0013D2 5810 6A8A            01AC0  9135    1231.              LSCAN USRGPTBL,CLWKWCB        LOOK FOR USER OR GROUP
 0013D6 41F0 A2C4            002C4  9149             +
 0013DA 58E0 6A0A/0DEE       01A40  9152             +
 0013E0 4770 67BE            017F4  9154    1232.              BNZ   SCRET                   ERROR IN SCAN
 0013E4 4D90 6926/1408       0195C  9155    1233.              FSCALL ASMBLNAM                GET FILENAME
 0013EA 1B22                        9159    1234.              CLEAR SR                      INDICATE SET NO SPIRES ONLY
                                    9163    1235.
 0013EC 9610 C001      00001        9164    1236.     SETSPICM SET   GPWFNSF                 DO NOT SENSE USER INFO
 0013F0 4D90 6926/000C       0195C  9171    1237.              FSCALL ATTOLD                 ATTACH FILE(NOT EXCLUSIVE)
 0013F6 18F2                        9175    1238.              LR    R15,SR                  INDICATE SET OR NOT
 0013F8 4D90 6926/0840       0195C  9176    1239.              FSCALL DOSETSPI                AND GO DO IT
 0013FE 47F0 67D8            0180E  9180    1240.              B     FILEXIT
1VGP      (VGP00) (09:47) (22MAR04) ORVYL'S FILE SYSTEM SERVICE PROCESSOR                                                   Page   63
0Current Usings:  (BASE+4096,R6) (BASE,R7) (WA,R8) (CLW,R10) (GPW,R12)
0Loc    Object Code    Addr1 Addr2  Stmt Lv Lineno    Source Statement           (Hibal 5, Asmedit 3.3)  HLASM R4.0  2004/03/22 09.47
+___    ______ ____    _____ _____  ____ __ ______    ______ _________
0                                   9182    1242.     * SET FILEMASK (OLD OWNERS PERMITS)
 001402 4D90 6926/0404       0195C  9183    1243.     SETFILEM FSCALL GETNAME                GET FILENAME
 001408 5810 6A8E            01AC4  9187    1244.              LSCAN MASKTBL,CLWKWCB         SCAN PERMITS
 00140C 41F0 A2C4            002C4  9201             +
 001410 58E0 6A0A/0DEE       01A40  9204             +
 001416 4D90 6926/1408       0195C  9206    1245.              FSCALL ASMBLNAM                PUT NAME TOGETHER
 00141C 9610 C001      00001        9210    1246.              SET   GPWFNSF                 DO NOT SENSE USER INFO
 001420 4D90 6926/0010       0195C  9216    1247.              FSCALL ATTOLDE                ATTACH FILE FIRST
 001426 4D90 6926/0858       0195C  9220    1248.              FSCALL DOPERM                 NO GROUP SET UP
 00142C 47F0 67D8            0180E  9224    1249.              B     FILEXIT
-
-                                   9226    1251.     * SET FILE FORMAT
                                    9227    1252.     *
 001430                             9228    1253.     SETFORMA LABEL ,
 001430 4D90 6926/0404       0195C  9230    1254.              FSCALL GETNAME
 001436 5810 6A92            01AC8  9234    1255.              LSCAN FORMTTBL,CLWKWCB
 00143A 41F0 A2C4            002C4  9248             +
 00143E 58E0 6A0A/0DEE       01A40  9251             +
 001444 4D90 6926/1408       0195C  9253    1256.              FSCALL ASMBLNAM
 00144A 4D90 6926/000C       0195C  9257    1257.              FSCALL ATTOLD
 001450 4D90 6926/1420       0195C  9261    1258.              FSCALL CHKSPIRE               AVOID SPIRES ONLY
 001456 5890 6A2A/0D99       01A60  9265    1259.              VCALL SETFMT                   SET FORMAT
 00145C 4D90 6926/0830       0195C  9269    1260.              FSCALL SETUINFO               SET USER INFO
 001462 47F0 67D8            0180E  9273    1261.              B     FILEXIT                 DONE
1VGP      (VGP00) (09:47) (22MAR04) ORVYL'S FILE SYSTEM SERVICE PROCESSOR                                                   Page   64
0Current Usings:  (BASE+4096,R6) (BASE,R7) (WA,R8) (CLW,R10) (GPW,R12)
0Loc    Object Code    Addr1 Addr2  Stmt Lv Lineno    Source Statement           (Hibal 5, Asmedit 3.3)  HLASM R4.0  2004/03/22 09.47
+___    ______ ____    _____ _____  ____ __ ______    ______ _________
0                                   9275    1263.     * RESET PROGRAM CATALOG
                                    9276    1264.     *
 001466                             9277    1265.     SETPROGR LABEL ,
 001466 5890 6A96/0D99       01ACC  9279    1266.              VCALL PRIVTEST
 00146C 4770 67D8            0180E  9283    1267.              BNZ   FILEXIT                 NOT PRIVILEGED
 001470 5840 A000            00000  9284    1268.              L     QR,CLWSCP
 001474 5840 41BC            001BC  9285    1269.              WITH  (SCP,QR),'L  QR,SCPPCAT'     POINT TO CATALOG
 USING  SCP,R4
 DROP   SCP,R4
 001478 4110 6BF0            01C26  9309    1270.              SETMSG 'PROGRAM CATALOG'      NAME TO ENQ ON
 00147C 4100 000F            0000F  9312             +
 001480 4D90 6926/0C24       0195C  9313    1271.              FSCALL ENQ                    ENQ ON IT
 001486 41F0 0FFF/1814       00FFF  9317    1272.              CLPSERV PGPRTOFF,(QR),4095    UNPROTECT THE PAGE
 00148C 4100 0044/0AED       00044  9336             +
 USING  PRGCAT,R4                   9338    1273.              USING PRGCAT,QR               ##
 001492                             9347    1274.              CLEAR PCATPTR                 ZERO PROG CAT POINTERS
 001492 D703 4000 4000 00000 00000  9353             +
 001498                             9354    1275.              CLEAR PCATEND
 001498 D703 4004 4004 00004 00004  9360             +
 DROP   PRGCAT,R4                   9361    1276.              DROP  QR
 00149E 4D90 6926/0C28       0195C  9368    1277.              FSCALL DEQ                    DEQ IT
 0014A4 4D90 6926/0C2C       0195C  9372    1278.              FSCALL GETCAT
 0014AA 4D90 6926/0C30       0195C  9376    1279.              FSCALL RELCAT
 0014B0 47F0 67D8            0180E  9380    1280.              B     FILEXIT
1VGP      (VGP00) (09:47) (22MAR04) ORVYL'S FILE SYSTEM SERVICE PROCESSOR                                                   Page   65
0Current Usings:  (BASE+4096,R6) (BASE,R7) (WA,R8) (CLW,R10) (GPW,R12)
0Loc    Object Code    Addr1 Addr2  Stmt Lv Lineno    Source Statement           (Hibal 5, Asmedit 3.3)  HLASM R4.0  2004/03/22 09.47
+___    ______ ____    _____ _____  ____ __ ______    ______ _________
0                                   9382    1282.     *   CHECK BLOCKS ACCOUNTED FOR USER AGAINST TOTAL BLOCKS IN ALL FILES
                                    9383    1283.     *
 0014B4                             9384    1284.     FBAL     LABEL ,
 0014B4 5890 6A9A/0D99       01AD0  9386    1285.              VCALL PRIVTNOM                USER HAVE PRIVS?
 0014BA 4780 6492            014C8  9390    1286.              IF    NZ,BEGIN                NOPE -- I DIDN'T UNDERSTAND
 0014BE 1802                        9401  1 1287.                LR    R0,SR                   RESET COMMAND LENGTH
 0014C0 4110 A02D            0002D  9402  1 1288.                LA    R1,CLWIBUF              AND COMMAND ADDRESS
 0014C4 47F0 6790            017C6  9403  1 1289.                B     UNREC                   LATERAL SHUFFLE
 0014C8                             9404    1290.              END   ,
 0014C8 1B11/41F0 A2C4       002C4  9408    1291.              SCAN  ,CLWKWCB                GET ACCOUNT
 0014CE 58E0 6A0A/0DEE       01A40  9422             +
 0014D4 47D0 67BE            017F4  9424    1292.              BNP   SCRET                   NG
 0014D8 5900 6A9E            01AD4  9425    1293.              C     R0,=A(L'ACCT)           RIGHT LENGTH?
 0014DC 4770 6790            017C6  9426    1294.              BNE   UNREC                   NG
 0014E0 955B 1003      00003        9427    1295.              IF    ('$',EQ,@R1+3),BEGIN
 0014E4 4770 64B8            014EE  9438             +
 0014E8 D205 C007 1000 00007 00000  9443  1 1296.                MVC   GPWACCT,@R1
 0014EE 64BC           014EE 014E6  9444    1297.              END   ELSE,BEGIN              '.' FORM
 0014EE 47F0 64D4            0150A  9453             +
 0014F2 954B 1002      00002        9459  1 1298.                IF    ('.',NE,@R1+2),BADACCT  BAD ACCOUNT FORMAT
 0014F6 4770 681A            01850  9472  1          +
 0014FA D202 C007 1003 00007 00003  9478  1 1299.                MVC   GPWACCT(L'UUU),@R1+3    SET USER
 001500 D201 C00B 1000 0000B 00000  9479  1 1300.                MVC   GPWACCT+L'UUU+1(L'GG),@R1     SET GROUP
 001506 925B C00A      0000A        9480  1 1301.                MVI   GPWACCT+L'UUU,C'$'            SET $ IN ACCOUNT
 00150A                             9481    1302.              END   ,
 00150A 9604 C003      00003        9485    1303.              SET   GPWFACC                 SET ACCOUNT FLAG
 00150E 9240 C0C4      000C4        9491    1304.              MVI   GPWFILN,C' '            BLANK OUT FILENAME
 001512 D22A C0C5 C0C4 000C5 000C4  9492    1305.              MVC   GPWFILN+1(L'GPWFILN-1),GPWFILN
 001518 D20B C0C4 6AA2 000C4 01AD8  9493    1306.              MVC   GPWFILN(12),=C'ORV.GG.UUU.A' SET PREFIX
 00151E D202 C0CB C007 000CB 00007  9494    1307.              MVC   GPWFUSR,GPWACCT         SET USER
 001524 D201 C0C8 C00B 000C8 0000B  9495    1308.              MVC   GPWFGRP,GPWACCT+L'UUU+1 SET GROUP
 00152A 5810 6AAE            01AE4  9496    1309.              LSCAN FBALSCKW,CLWKWCB        ANY PARM?
 00152E 41F0 A2C4            002C4  9510             +
 001532 58E0 6A0A/0DEE       01A40  9513             +
 001538 4770 67BE            017F4  9515    1310.              BNZ   SCRET                   NG
 00153C 4D90 6926/0890       0195C  9516    1311.              FSCALL SENSP                  CHECK FOR NO SPACE
 001542 12EE/4770 6520       01556  9520    1312.              IF    (R14,Z),BEGIN
 001548 4110 01FE            001FE  9534  1 1313.                SEG   'No blocks accounted'
 00154C 4590 6966            0199C  9536  1          +
 001550 5890 6A42/0D99       01A78  9537  1 1314.                VWRITE ,
 001556                             9542    1315.              END   ,
 001556 1B44                        9546    1316.              CLEAR QR                      ZERO BLOCK COUNTER
 001558 9640 C002      00002        9550    1317.              SET   GPWFFRST                SET FIRST PASS FLAG
 00155C 922C C08E      0008E        9556    1318.              MVI   GPWFNL,44               SET MAX LENGTH
 001560 4D90 6926/0888       0195C  9557    1319.     FBAOLOOP FSCALL SENFILE                GET A BUNCH OF FILE NAMES
 001566 9140 C002      00002        9561    1320.              IF    GPWFFRST,BEGIN          FOR FIRST PASS
 00156A 47E0 6540            01576  9571             +
 00156E 94BF C002      00002        9576  1 1321.                CLEAR GPWFFRST                CLEAR FIRST TIME FLAG
 001572 5820 C038            00038  9583  1 1322.                L     SR,GPWBUFA              SET POINTER
 001576 6544           01576 0156C  9584    1323.              END   ELSE,BEGIN
 001576 47F0 6554            0158A  9593             +
 00157A 5910 6AB2            01AE8  9599  1 1324.                IF    (R1,EQ,1),FBADONE       FINISHED
 00157E 4780 6588            015BE  9613  1          +
 001582 5820 C038            00038  9619  1 1325.                L    SR,GPWBUFA               SET POINTER TO BUFFER
1VGP      (VGP00) (09:47) (22MAR04) ORVYL'S FILE SYSTEM SERVICE PROCESSOR                                                   Page   66
0Current Usings:  (BASE+4096,R6) (BASE,R7) (WA,R8) (CLW,R10) (GPW,R12)
0Loc    Object Code    Addr1 Addr2  Stmt Lv Lineno    Source Statement           (Hibal 5, Asmedit 3.3)  HLASM R4.0  2004/03/22 09.47
+___    ______ ____    _____ _____  ____ __ ______    ______ _________
0001586 4120 2038            00038  9620  1 1326.                LA    SR,@SR+56               SKIP FIRST FILE
 00158A                             9621    1327.              END   ,
 00158A 0610                        9625    1328.              DECR  R1                      REDUCE COUNT
 00158C 4C10 6B18            01B4E  9627    1329.              MH    R1,=Y(56)               CALCULATE LENGTH
 001590 5830 C038            00038  9628    1330.              L     TR,GPWBUFA              BEGINNING POINTER
 001594 1A31                        9629    1331.              AR    TR,R1                   END POINTER
 001596 D22B C0C4 2000 000C4 00000  9630    1332.     FBAILOOP MVC   GPWFILN(44),@SR         SET FILE NAME
 00159C 4D90 6926/0014       0195C  9631    1333.              FSCALL ATTOLDX                ATTACH THE FILE
 0015A2 4D90 6926/0818       0195C  9635    1334.              FSCALL SENNREC                SENSE THE NUMBER OF RECORDS
 0015A8 1A4E                        9639    1335.              AR    QR,R14                  BUMP COUNTER
 0015AA 4D90 6926/0020       0195C  9640    1336.              FSCALL DETACH                 DETACH THE FILE
 0015B0 4120 2038            00038  9644    1337.              LA    SR,@SR+56               BUMP POINTER
 0015B4 1923                        9645    1338.              CR    SR,TR                   FINISHED WITH THE BUFFER?
 0015B6 4740 6560            01596  9646    1339.              BL    FBAILOOP                NO
 0015BA 47F0 652A            01560  9647    1340.              B     FBAOLOOP                GET MORE FILENAMES
-
 0015BE 4D90 6926/0890       0195C  9649    1342.     FBADONE  FSCALL SENSP                  GET TOTAL SPACE AGAIN
 0015C4 183E                        9653    1343.              LR    TR,R14                  SAVE BLOCKS ACCOUNTED
 0015C6 12EE/4780 65B2       015E8  9654    1344.              IF    (R14,NZ),BEGIN
 0015CC 18F3/1B00                   9668  1 1345.                SEGDC 0,(TR)                  SEG IT
 0015D0 4110 A2E8            002E8  9685  1          +
 0015D4 58E0 6AB6/0DEE       01AEC  9688  1          +
 0015DA 5890 6ABA/0D99       01AF0  9705  1          +
 0015E0 4110 0212            00212  9707  1 1346.                SEG   ' Blocks accounted, '
 0015E4 4590 6966            0199C  9709  1          +
 0015E8                             9710    1347.              END   ,
 0015E8 18F4/1B00                   9714    1348.              SEGDC 0,(QR)
 0015EC 4110 A2E8            002E8  9731             +
 0015F0 58E0 6AB6/0DEE       01AEC  9734             +
 0015F6 5890 6ABA/0D99       01AF0  9751             +
 0015FC 4110 0226            00226  9753    1349.              SEG   ' Blocks total in files for '
 001600 4590 6966            0199C  9755             +
 001604 4110 C007            00007  9756    1350.              SEG   GPWACCT,L'GPWACCT
 001608 4100 0006            00006  9772             +
 00160C 4590 690E            01944  9773             +
 001610 1943/4780 6608       0163E  9774    1351.              IF    (QR,NE,TR),BEGIN
 001616 4110 0242            00242  9789  1 1352.                SEG   ' ** Error **'
 00161A 4590 6966            0199C  9791  1          +
 00161E 9120 C002      00002        9792  1 1353.                IF    GPWFRST,BEGIN
 001622 47E0 6608            0163E  9802  1          +
 001626 18F4                        9807  2 1354.                  LR    15,QR                   PROPER SPACE
 001628 4100 0068            00068  9808  2 1355.                  LA    R0,104                  RESET SPACE
 00162C 4110 C007            00007  9809  2 1356.                  LA    R1,GPWACCT              POINT AT GROUP
 001630 4D90 6926/08A8       0195C  9810  2 1357.                  FSCALL STAT3OR4               GO DO STATUS
 001636 4110 024F            0024F  9814  2 1358.                  SEG   ' Reset'                INDICATE FIXED
 00163A 4590 6966            0199C  9816  2          +
 00163E                             9817  1 1359.                END   ,
 00163E                             9821    1360.              END   ,
 00163E 47F0 68D4            0190A  9825    1361.              B     WRITEXIT
-001642 9620 C002      00002        9827    1363.     DFBRES   SET   GPWFRST                 SET RESET FLAG
1VGP      (VGP00) (09:47) (22MAR04) ORVYL'S FILE SYSTEM SERVICE PROCESSOR                                                   Page   67
0Current Usings:  (BASE+4096,R6) (BASE,R7) (WA,R8) (CLW,R10) (GPW,R12)
0Loc    Object Code    Addr1 Addr2  Stmt Lv Lineno    Source Statement           (Hibal 5, Asmedit 3.3)  HLASM R4.0  2004/03/22 09.47
+___    ______ ____    _____ _____  ____ __ ______    ______ _________
0001646 07FE                        9834    1364.              SCRTN (15)
1VGP      (VGP00) (09:47) (22MAR04) ORVYL'S FILE SYSTEM SERVICE PROCESSOR                                                   Page   68
0Current Usings:  (BASE+4096,R6) (BASE,R7) (WA,R8) (CLW,R10) (GPW,R12)
0Loc    Object Code    Addr1 Addr2  Stmt Lv Lineno    Source Statement           (Hibal 5, Asmedit 3.3)  HLASM R4.0  2004/03/22 09.47
+___    ______ ____    _____ _____  ____ __ ______    ______ _________
0                                   9842    1366.     * MISCELLANEOUS KEYWORD PROCESSING
                                    9843    1367.     *
                                    9844    1368.     * DETECT WHETHER FILENAME OR ACCOUNT OR NOTHING IS SPECIFIED
                                    9845    1369.     *
 001648 41F0 A2C4            002C4  9846    1370.     CHECKFOR SCTELL CLWKWCB                SAVE OLD SCAN
 00164C 58E0 6ABE/0DEE       01AF4  9856             +
 001652 1830                        9858    1371.              LR    TR,R0
 001654 1841                        9859    1372.              LR    QR,R1                   SAVE IN TR AND QR
 001656 5810 6AC2            01AF8  9860    1373.              LSCAN CKFORTBL,CLWKWCB        LOOK FOR 'FOR'
 00165A 41F0 A2C4            002C4  9874             +
 00165E 58E0 6A0A/0DEE       01A40  9877             +
 001664 4770 67BE            017F4  9879    1374.              BNZ   SCRET                   ERROR IN SCAN
 001668 41F0 0000            00000  9880    1375.              LA    R15,0                   FOUND NOTHING  RC=0
 00166C 07F9                        9881    1376.              BR    RAR
                                    9882    1377.
 00166E                             9883    1378.     CKVALFOR LABEL ,                      FOUND VALID 'FOR'
 00166E 1814/1803                   9885    1379.              SCINIT (QR),(TR),CLWKWCB      RESTORE SCAN
 001672 41F0 A2C4            002C4  9902             +
 001676 58E0 6AC6/0DEE       01AFC  9905             +
 00167C 41F0 000C            0000C  9907    1380.              LA    R15,12                  FOUND 'FOR'  RC=12
 001680 07F9                        9908    1381.              BR    RAR
                                    9909    1382.
 001682                             9910    1383.     CKFNDFIL LABEL ,                      FOUND FILE NAME
 001682 1814/1803                   9912    1384.              SCINIT (QR),(TR),CLWKWCB      RESTORE SCAN
 001686 41F0 A2C4            002C4  9929             +
 00168A 58E0 6AC6/0DEE       01AFC  9932             +
 001690 41F0 0004            00004  9934    1385.     CKVALFIL LA    R15,4                   FOUND PROBABLE FILENAME  RC=4
 001694 07F9                        9935    1386.              BR    RAR
                                    9936    1387.
 001696                             9937    1388.     CKFNDACC LABEL ,                      ACCOUNT SPECIFIED
 001696 4900 6B1A            01B50  9939    1389.              CH    R0,=Y(L'ACCT)           TEST LENTH
 00169A 4770 681A            01850  9940    1390.              BNE   BADACCT                 NO GOOD
 00169E 955B 1003      00003        9941    1391.              CLI   L'UUU(1),C'$'           CHECK DELIMITER TYPE
 0016A2 4780 668C            016C2  9942    1392.              BE    CKVALACC
 0016A6 954B 1002      00002        9943    1393.              CLI   L'GG(1),C'.'            OTHER OPTION
 0016AA 4770 681A            01850  9944    1394.              BNE   BADACCT                 BAD
 0016AE 47F0 668C            016C2  9945    1395.              B     CKVALACC
                                    9946    1396.
 0016B2                             9947    1397.     CKACCT   LABEL ,                      SCAN DIDN'T FIND 'FOR'
 0016B2 4900 6B1A            01B50  9949    1398.              CH    R0,=Y(L'ACCT)           RIGHT LENGTH FOR ACCT?
 0016B6 4770 664C            01682  9950    1399.              BNE   CKFNDFIL                NO - TRY FILE
 0016BA 955B 1003      00003        9951    1400.              CLI   L'UUU(1),C'$'           $ IN RIGHT PLACE?
 0016BE 4770 664C            01682  9952    1401.              BNE   CKFNDFIL                NO - TRY FILE
 0016C2 41F0 0008            00008  9953    1402.     CKVALACC LA    R15,8                   FOUND ACCT  RC=8
 0016C6 07F9                        9954    1403.              BR    RAR
                                    9955    1404.
1VGP      (VGP00) (09:47) (22MAR04) ORVYL'S FILE SYSTEM SERVICE PROCESSOR                                                   Page   69
0Current Usings:  (BASE+4096,R6) (BASE,R7) (WA,R8) (CLW,R10) (GPW,R12)
0Loc    Object Code    Addr1 Addr2  Stmt Lv Lineno    Source Statement           (Hibal 5, Asmedit 3.3)  HLASM R4.0  2004/03/22 09.47
+___    ______ ____    _____ _____  ____ __ ______    ______ _________
0                                   9957    1406.     *  FIND GROUP NAME
                                    9958    1407.     *
 0016C8                             9959    1408.     FOR      LABEL ,                      FOR FOUND
 0016C8 5090 D000            00000  9961    1409.              VPUSH RAR,,*                  SAVE RETURN
 0016CC 41D0 D004            00004  9963             +
 0016D0 D205 C007 C058 00007 00058  9964    1410.              MVC   GPWACCT(L'ACCT),GPWGRP  SAVE EXISTING ACCOUNT
 0016D6 D205 C058 6B1C 00058 01B52  9965    1411.              MVC   GPWGRP(L'ACCT),=C'  .   '
 0016DC 5810 6ACA            01B00  9966    1412.              LSCAN FORTBL4,CLWKWCB
 0016E0 41F0 A2C4            002C4  9980             +
 0016E4 58E0 6A0A/0DEE       01A40  9983             +
 0016EA 4770 67BE            017F4  9985    1413.              BNZ   SCRET
                                    9986    1414.     *  RESTORE THE FILE ACCOUNT TO ITS PROPER PLACE
 0016EE 4110 C164            00164  9987    1415.              LA    R1,GPWAFN               SET UP SAVE ADDRESS
 0016F2 9540 C05B      0005B        9988    1416.              CLI   GPWUSER,C' '            USER SPECIFIED?
 0016F6 4770 66D2            01708  9989    1417.              BNE   FORUSR                  JUMP IF SO
 0016FA 9540 C058      00058        9990    1418.              CLI   GPWGRP,C' '             HOW ABOUT GROUP?
 0016FE 4780 6778            017AE  9991    1419.              BE    MISSING                 NOT THERE
 001702 D202 C05B 6BED 0005B 01C23  9992    1420.              MVC   GPWUSER(L'UUU),=C'PUB'  SET GROUP LEVEL
 001708 9540 C058      00058        9993    1421.     FORUSR   CLI   GPWGRP,C' '             CHECK FOR GROUP
 00170C 4770 66E0            01716  9994    1422.              BNE   FORUSG                  IT IS THERE
 001710 D201 C058 A3B0 00058 003B0  9995    1423.              MVC   GPWGRP,CLWGROUP         SIGNED ON GROUP
 001716 D205 1000 C058 00000 00058  9996    1424.     FORUSG   MVC   @R1(L'ACCT),GPWGRP
 00171C D205 C058 C007 00058 00007  9997    1425.              MVC   GPWGRP(L'ACCT),GPWACCT  RESTORE ACCOUNT
 001722 9108 C003      00003        9998    1426.              IF    GPWFPUB,FORRET          PUBLIC?
 001726 4710 66FE            01734 10010             +
 00172A 4100 0006            00006 10016    1427.              LA    R0,L'ACCT
 00172E 4D90 6926/1418       0195C 10017    1428.              FSCALL FORGROUP                CHECK ACCOUNT
 001734 4BD0 6B10            01B46 10021    1429.     FORRET   VPOP  RAR,,*
 001738 5890 D000            00000 10023             +
 00173C 07F9                       10024    1430.              BR    RAR
1VGP      (VGP00) (09:47) (22MAR04) ORVYL'S FILE SYSTEM SERVICE PROCESSOR                                                   Page   70
0Current Usings:  (BASE+4096,R6) (BASE,R7) (WA,R8) (CLW,R10) (GPW,R12)
0Loc    Object Code    Addr1 Addr2  Stmt Lv Lineno    Source Statement           (Hibal 5, Asmedit 3.3)  HLASM R4.0  2004/03/22 09.47
+___    ______ ____    _____ _____  ____ __ ______    ______ _________
0                                  10026    1432.     * FILE ERROR MESSAGES
                                   10027    1433.     *
000173E 4110 6BFF            01C35 10029    1435.     NOEXTEND ERRXT 'No privileges to extend'
 001742 4100 0017            00017 10034             +
 001746 4590 690E            01944 10035             +
 00174A 47F0 7004            00004 10036             +
 00174E 4110 6ACE            01B04 10037    1436.     MEMNTSPC ERRXT 'Member not specified'
 001752 4100 0014            00014 10042             +
 001756 4590 690E            01944 10043             +
 00175A 47F0 7004            00004 10044             +
 00175E 4110 6B22            01B58 10045    1437.     LIBFULL  ERRXT 'No more directory space in library'
 001762 4100 0022            00022 10050             +
 001766 4590 690E            01944 10051             +
 00176A 47F0 7004            00004 10052             +
 00176E 4110 69C2            019F8 10053    1438.     BLOCKED  ERRXT 'Command blocked by Orvyl'
 001772 4100 0018            00018 10058             +
 001776 4590 690E            01944 10059             +
 00177A 47F0 7004            00004 10060             +
 00177E 4110 6B44            01B7A 10061    1439.     NOSHRINK ERRXT 'The library has too many members to shrink'
 001782 4100 002A            0002A 10066             +
 001786 4590 690E            01944 10067             +
 00178A 47F0 7004            00004 10068             +
 00178E 4110 6C16            01C4C 10069    1440.     NORDPRIV ERRXT 'Cannot read loadfile containing private program'
 001792 4100 002F            0002F 10074             +
 001796 4590 690E            01944 10075             +
 00179A 47F0 7004            00004 10076             +
 00179E 4110 6AE2            01B18 10077    1441.     NOPUBPER ERRXT 'Non-owner cannot give public permits'
 0017A2 4100 0024            00024 10082             +
 0017A6 4590 690E            01944 10083             +
 0017AA 47F0 7004            00004 10084             +
 0017AE 4110 6C45            01C7B 10085    1442.     MISSING  ERRXT 'Operand missing'
 0017B2 4100 000F            0000F 10090             +
 0017B6 4590 690E            01944 10091             +
 0017BA 47F0 7004            00004 10092             +
 0017BE 4110 6B6E            01BA4 10093    1443.     APPILLEG SETMSG 'Append'
 0017C2 4100 0006            00006 10096             +
 0017C6 4590 690E            01944 10097    1444.     UNREC    SEG   (1),(0)
 0017CA 4110 6C54            01C8A 10112    1445.              ERRXT ': Invalid'
 0017CE 4100 0009            00009 10117             +
 0017D2 4590 690E            01944 10118             +
 0017D6 47F0 7004            00004 10119             +
00017DA 4110 C007            00007 10121    1447.     ACCTINC  LA    R1,GPWACCT              PRINT ACCT
 0017DE 4D90 6926/1404       0195C 10122    1448.              FSCALL SEGACCT
 0017E4 4110 69DA            01A10 10126    1449.              ERRXT ' Invalid in this context'
 0017E8 4100 0018            00018 10131             +
 0017EC 4590 690E            01944 10132             +
 0017F0 47F0 7004            00004 10133             +
1VGP      (VGP00) (09:47) (22MAR04) ORVYL'S FILE SYSTEM SERVICE PROCESSOR                                                   Page   71
0Current Usings:  (BASE+4096,R6) (BASE,R7) (WA,R8) (CLW,R10) (GPW,R12)
0Loc    Object Code    Addr1 Addr2  Stmt Lv Lineno    Source Statement           (Hibal 5, Asmedit 3.3)  HLASM R4.0  2004/03/22 09.47
+___    ______ ____    _____ _____  ____ __ ______    ______ _________
00017F4 1000                       10135    1451.     SCRET    LPR   R0,0
 0017F6 4780 6778            017AE 10136    1452.              BZ    MISSING
 0017FA 4590 690E            01944 10137    1453.     ILLSTR   SEG   (1),(0)
 0017FE 4110 69F2            01A28 10152    1454.              ERRXT ': Invalid string'
 001802 4100 0010            00010 10157             +
 001806 4590 690E            01944 10158             +
 00180A 47F0 7004            00004 10159             +
 00180E                            10160    1455.     FILEXIT  LABEL ,
 00180E 4D90 6926/0898       0195C 10162    1456.              FSCALL FILEXIT                DOES NOT RETURN HERE
 001814 4110 6C5D            01C93 10166    1457.     REQABORT ERRXT 'Request aborted'
 001818 4100 000F            0000F 10171             +
 00181C 4590 690E            01944 10172             +
 001820 47F0 7004            00004 10173             +
 001824                            10174    1458.     VFMSG    LABEL ,
 001824 9108 C08C      0008C       10176    1459.              IF    GPWFVOSF,BEGIN         OS/FILE MESSAGE
 001828 47E0 680A            01840 10186             +
 00182C 4110 0256            00256 10191  1 1460.                SEG   'on '                   GRAMMAR COUNTS
 001830 4590 6966            0199C 10193  1          +
 001834 4110 C0F8            000F8 10194  1 1461.                SEG   OSFVOL,L'OSFVOL         SET VOLUME
 001838 4100 0006            00006 10210  1          +
 00183C 4590 690E            01944 10211  1          +
 001840 680E           01840 0182A 10212    1462.              END   ELSE,BEGIN            ORVYL FILE MESSAGE
 001840 47F0 6816            0184C 10221             +
 001844 4110 025A            0025A 10227  1 1463.                SEG   'in Orvyl File System'
 001848 4590 6966            0199C 10229  1          +
 00184C                            10230    1464.              END   ,
 00184C 47F0 68DE            01914 10234    1465.              B     QIETEXIT
0001850                            10236    1467.     BADACCT  LABEL ,
 001850 41F0 6C6C            01CA2 10238    1468.              SYSQS 15,14,'ACCOUNT'
 001854 41E0 0007            00007 10241             +
 001858 4590 690E            01944 10242    1469.              SEG   (1),(0)
 00185C 4110 026F            0026F 10256    1470.              SEG   ': Invalid '
 001860 4590 6966            0199C 10258             +
 001864 181F/180E                  10259    1471.              SEG   (15),(14)
 001868 4590 690E            01944 10274             +
 00186C 47F0 7004            00004 10275    1472.              B     4(,BR)
0001870 4110 027A            0027A 10277    1474.     BADFORM  SEG   'File not '
 001874 4590 6966            0199C 10279             +
 001878 9140 C006      00006       10280    1475.              IF    ~GPWGPFV,BADEDIT        FILE VARIABLE FORMAT?
 00187C 47E0 6856            0188C 10292             +
 001880 4110 0284            00284 10298    1476.              SEG   'variable'
 001884 4590 6966            0199C 10300             +
 001888 47F0 686E            018A4 10301    1477.              B     BADFCOM
 00188C 4110 028D            0028D 10302    1478.     BADEDIT  SEG   'edit'
 001890 4590 6966            0199C 10304             +
 001894 9120 C006      00006       10305    1479.              IF    ~GPWGPFLR,BADFCOM       EDIT OR CARD?
 001898 47E0 686E            018A4 10317             +
 00189C 4110 0292            00292 10323    1480.              SEG   ' or card'
 0018A0 4590 6966            0199C 10325             +
 0018A4                            10326    1481.     BADFCOM  LABEL ,
 0018A4 4110 029B            0029B 10328    1482.              SEG   ' format'
 0018A8 4590 6966            0199C 10330             +
1VGP      (VGP00) (09:47) (22MAR04) ORVYL'S FILE SYSTEM SERVICE PROCESSOR                                                   Page   72
0Current Usings:  (BASE+4096,R6) (BASE,R7) (WA,R8) (CLW,R10) (GPW,R12)
0Loc    Object Code    Addr1 Addr2  Stmt Lv Lineno    Source Statement           (Hibal 5, Asmedit 3.3)  HLASM R4.0  2004/03/22 09.47
+___    ______ ____    _____ _____  ____ __ ______    ______ _________
00018AC 47F0 7004            00004 10331    1483.              B     4(,BR)                  TAKE ERROR EXIT
00018B0                            10333    1485.     VOID     LABEL ,
 0018B0 4110 02A3            002A3 10335    1486.              SEG   'Void range'
 0018B4 4590 6966            0199C 10337             +
 0018B8 47F0 7004            00004 10338    1487.              B     4(,BR)
00018BC                            10340    1489.     NOTLIB   LABEL ,
 0018BC 4D90 6926/0414       0195C 10342    1490.              FSCALL SEGNAME
 0018C2 4110 02AE            002AE 10346    1491.              SEG   'is not a library'
 0018C6 4590 6966            0199C 10348             +
 0018CA 47F0 7004            00004 10349    1492.              B     4(,BR)
00018CE 4110 6C73            01CA9 10351    1494.     INVALMEM ERRXT 'Invalid member name specified'
 0018D2 4100 001D            0001D 10356             +
 0018D6 4590 690E            01944 10357             +
 0018DA 47F0 7004            00004 10358             +
00018DE                            10360    1496.     ERROR    LABEL ,
 0018DE 47F0 7004            00004 10362    1497.              B     4(,BR)
-0018E2                            10365    1500.     MEMNFND  LABEL ,
 0018E2 4D90 6926/0410       0195C 10367    1501.              FSCALL SEGMEMB
 0018E8 4110 02BF            002BF 10371    1502.              SEG   'not in '
 0018EC 4590 6966            0199C 10373             +
 0018F0 4D90 6926/0414       0195C 10374    1503.              FSCALL SEGNAME
 0018F6 47F0 7004            00004 10378    1504.              B     4(,BR)
00018FA 4110 02C7            002C7 10380    1506.     NOACTION SEG   'No action taken'
 0018FE 4590 6966            0199C 10382             +
 001902 47F0 68D4            0190A 10383    1507.              B     WRITEXIT
1VGP      (VGP00) (09:47) (22MAR04) ORVYL'S FILE SYSTEM SERVICE PROCESSOR                                                   Page   73
0Current Usings:  (BASE+4096,R6) (BASE,R7) (WA,R8) (CLW,R10) (GPW,R12)
0Loc    Object Code    Addr1 Addr2  Stmt Lv Lineno    Source Statement           (Hibal 5, Asmedit 3.3)  HLASM R4.0  2004/03/22 09.47
+___    ______ ____    _____ _____  ____ __ ______    ______ _________
0                                  10385    1509.     *  SET MESSAGE, CLEAN UP AND LEAVE
                                   10386    1510.     *
 001906                            10387    1511.     MSGEXIT  LABEL ,
 001906 4590 690E            01944 10389    1512.              SEG   (1),(0)
 00190A                            10403    1513.     WRITEXIT LABEL ,
 00190A 5890 6A42/0D99       01A78 10405    1514.              VWRITE ,                      SEND MESSAGE
 001910 47F0 67D8            0180E 10410    1515.              B     FILEXIT                 RETURN
 001914                            10411    1516.     QIETEXIT LABEL ,
 001914 9104 C001      00001       10413    1517.              IF    ~GPWFQIET,WRITEXIT
 001918 47E0 68D4            0190A 10425             +
 00191C                            10431    1518.              CLEAR (CLWOBUF,4)             CLEAR OUTPUT BUFFER
 00191C D703 A118 A118 00118 00118 10437             +
 001922 47F0 67D8            0180E 10438    1519.              B     FILEXIT
-                                  10440    1521.     *
                                   10441    1522.     *  OS/FILE ERROR MESSAGES
                                   10442    1523.     *
 001926                            10443    1524.     OSNOTFND LABEL ,
 001926 4D90 6926/0414       0195C 10445    1525.              FSCALL SEGNAME                SET FILE FILE IN MSG
 00192C 4110 02D7            002D7 10449    1526.              SEG   'not on '
 001930 4590 6966            0199C 10451             +
 001934 4110 C0F8            000F8 10452    1527.              SEG   OSFVOL,L'OSFVOL         SET PRESUMED VOLUME
 001938 4100 0006            00006 10468             +
 00193C 4590 690E            01944 10469             +
 001940 47F0 7004            00004 10470    1528.              B     4(,BR)                  TAKE ERROR RETURN
-                                  10472    1530.     *  SPACE-SAVING SEG  ROUTINE
                                   10473    1531.     *
                                   10474    1532.     *
 001944 5090 D000            00000 10475    1533.     SEG      VPUSH RAR,,*
 001948 41D0 D004            00004 10477             +
 00194C 5890 6ABA/0D99       01AF0 10478    1534.              VSEG  (1),(0)
 001952 4BD0 6B10            01B46 10495    1535.              VPOP  RAR,,*
 001956 5890 D000            00000 10497             +
 00195A 07F9                       10498    1536.              BR    RAR
0                                  10500    1538.     *
                                   10501    1539.     * FILE SUBROUTINE LINKAGE
                                   10502    1540.     *
000195C 9029 D000/188D       00000 10504    1542.              FSCALL GOSUB
 001962 41D0 D020            00020 10509             +
 001966 5860 6B06/07F6       01B3C 10510             +
1VGP      (VGP00) (09:47) (22MAR04) ORVYL'S FILE SYSTEM SERVICE PROCESSOR                                                   Page   74
0Current Usings:  (BASE+4096,R6) (BASE,R7) (WA,R8) (CLW,R10) (GPW,R12)
0Loc    Object Code    Addr1 Addr2  Stmt Lv Lineno    Source Statement           (Hibal 5, Asmedit 3.3)  HLASM R4.0  2004/03/22 09.47
+___    ______ ____    _____ _____  ____ __ ______    ______ _________
0                                  10513    1544.     * THIS PAGE HAS BEEN CONTRIBUTED AS A TRIBUTE TO THE JTM MEMORIAL
                                   10514    1545.     * FILE BUG. HE DIDN'T CREATE IT, BUT HE DIDN'T FIX IT (YET).
                                   10515    1546.     *
 00196C                            10516    1547.     DELETE   LABEL ,                      CLEAR ALL BLOCKS FROM FILE
 00196C 5090 D000            00000 10518    1548.              VPUSH RAR,,*                  SAVE RETURN
 001970 41D0 D004            00004 10520             +
 001974 4D90 6926/0814       0195C 10521    1549.     DELET1   FSCALL SENLREC                GET LAST REC NO
 00197A 4770 695C            01992 10525    1550.              BNZ   DELETED                 NO MORE TO ERASE
 00197E 18E1                       10526    1551.              LR    R14,1                   PUT LAST BLOCK NO IN 14
 001980 4D90 6926/0810       0195C 10527    1552.              FSCALL SENFREC                GET FIRST BLOCK NO
 001986 18F1                       10531    1553.              LR    R15,1                   PUT FIRST BLOCK NO IN 15
 001988 4D90 6926/0808       0195C 10532    1554.              FSCALL DELLOTS                DELETE ALL BLOCKS
 00198E 47F0 693E            01974 10536    1555.              B     DELET1                  OVERKILL
                                   10537    1556.
 001992 4BD0 6B10            01B46 10538    1557.     DELETED  VPOP  RAR,,*
 001996 5890 D000            00000 10540             +
 00199A 07F9                       10541    1558.              BR    RAR
1VGP      (VGP00) (09:47) (22MAR04) ORVYL'S FILE SYSTEM SERVICE PROCESSOR                                                   Page   75
0Current Usings:  (BASE+4096,R6) (BASE,R7) (WA,R8) (CLW,R10) (GPW,R12)
0Loc    Object Code    Addr1 Addr2  Stmt Lv Lineno    Source Statement           (Hibal 5, Asmedit 3.3)  HLASM R4.0  2004/03/22 09.47
+___    ______ ____    _____ _____  ____ __ ______    ______ _________
0                                  10543    1560.     *  CONSTANTS AND WORK AREA
                                   10544    1561.     *
 00199C 5090 D000            00000 10545    1562.              GENMSGS
 0019A0 41D0 D004/1F00       00004 10549             +
 0019A6 4301 6CAE            01CE4 10554             +
 0019AA 4111 6CAF            01CE5 10555             +
 0019AE 5890 6ABA/0D99       01AF0 10571             +
 0019B4 4BD0 6B10            01B46 10574             +
 0019B8 5890 D000/07F9       00000 10575             +
 0019C0 4040404040404040           10579                             =CL8' '
 0019C8 C6899385408881A2           10580                             =C'File has invalid lrecl 0'
 0019E0 C381959596A34097           10581                             =C'Cannot put to a loadfile'
 0019F8 C396949481958440           10582                             =C'Command blocked by Orvyl'
 001A10 40C995A581938984           10583                             =C' Invalid in this context'
 001A28 7A40C995A5819389           10584                             =C': Invalid string'
 001A38 00000000                   10585                             =V(TYPEIT)
 001A3C 000020C6                   10586                             =A(ERASEOPT)
 001A40 00000000                   10587                             =V(SCAN)
 001A44 00000000                   10588                             =V(VMARK)
 001A48 000020D6                   10589                             =A(ERAS#MEM)
 001A4C 000020DA                   10590                             =A(RENAMCMD)
 001A50 000021D7                   10591                             =A(USRGPTB0)
 001A54 00000008                   10592                             =A(8)
 001A58 000021E8                   10593                             =A(QUIETBL)
 001A5C 000020E8                   10594                             =A(CREATBLF)
 001A60 00000000                   10595                             =V(SETFMT)
 001A64 000020F9                   10596                             =A(CREATBL)
 001A68 00000004                   10597                             =A(4)
 001A6C 0000211A                   10598                             =A(ALIASFTB)
 001A70 00002125                   10599                             =A(GETTBL)
 001A74 00000000                   10600                             =V(GETFMT)
 001A78 00000000                   10601                             =V(VWRITE)
 001A7C 00000000                   10602                             =V(SHOWLAST)
 001A80 0000217F                   10603                             =A(PUTTBL)
 001A84 00000001                   10604                             =AL4(1)
 001A88 00000000                   10605                             =V(XTB)
 001A8C 00000000                   10606                             =V(DTB)
 001A90 C696999481A34089           10607                             =C'Format inconsistent with file format'
 001AB4 00000000                   10608                             =V(CHKATTN)
 001AB8 00002295                   10609                             =A(FORTBL)
 001ABC 00002299                   10610                             =A(FORTBL1)
 001AC0 000021E0                   10611                             =A(USRGPTBL)
 001AC4 0000223F                   10612                             =A(MASKTBL)
 001AC8 000022C4                   10613                             =A(FORMTTBL)
 001ACC 00000000                   10614                             =V(PRIVTEST)
 001AD0 00000000                   10615                             =V(PRIVTNOM)
 001AD4 00000006                   10616                             =A(L'ACCT)
 001AD8 D6D9E54BC7C74BE4           10617                             =C'ORV.GG.UUU.A'
 001AE4 000022D0                   10618                             =A(FBALSCKW)
 001AE8 00000001                   10619                             =A(1)
 001AEC 00000000                   10620                             =V(BTD)
 001AF0 00000000                   10621                             =V(VSEG)
 001AF4 00000000                   10622                             =V(SCTELL)
 001AF8 0000226F                   10623                             =A(CKFORTBL)
1VGP      (VGP00) (09:47) (22MAR04) ORVYL'S FILE SYSTEM SERVICE PROCESSOR                                                   Page   76
0Current Usings:  (BASE+4096,R6) (BASE,R7) (WA,R8) (CLW,R10) (GPW,R12)
0Loc    Object Code    Addr1 Addr2  Stmt Lv Lineno    Source Statement           (Hibal 5, Asmedit 3.3)  HLASM R4.0  2004/03/22 09.47
+___    ______ ____    _____ _____  ____ __ ______    ______ _________
0001AFC 00000000                   10624                             =V(SCINIT)
 001B00 000022A4                   10625                             =A(FORTBL4)
 001B04 D485948285994095           10626                             =C'Member not specified'
 001B18 D596956096A69585           10627                             =C'Non-owner cannot give public permits'
 001B3C 00000000                   10628                             =V(FSUB#COM)
 001B40 0050                       10629                             =Y(80)
 001B42 00FB                       10630                             =Y(251)
 001B44 0800                       10631                             =Y(L'GPWHXBUF)
 001B46 0004                       10632                             =Y(4)
 001B48 0008                       10633                             =Y(8)
 001B4A 0002                       10634                             =Y(2)
 001B4C 0028                       10635                             =Y((R11+1-(R2)+16*((R2)/(R11+1))/((R2)/(R11+1)))*4)
 001B4E 0038                       10636                             =Y(56)
 001B50 0006                       10637                             =Y(L'ACCT)
 001B52 40404B404040               10638                             =C'  .   '
 001B58 D596409496998540           10639                             =C'No more directory space in library'
 001B7A E388854093898299           10640                             =C'The library has too many members to shrink'
 001BA4 C19797859584               10641                             =C'Append'
 001BAA E6E8D3                     10642                             =C'WYL'
 001BAD C885A740998598A4           10643                             =C'Hex requires lrecl format'
 001BC6 E4958182938540A3           10644                             =C'Unable to access non-IXR file'
 001BE3 D98595A494828599           10645                             =C'Renumber requires edit or variable format'
 001C0C C885A740998598A4           10646                             =C'Hex requires even lrecl'
 001C23 D7E4C2                     10647                             =C'PUB'
 001C26 D7D9D6C7D9C1D440           10648                             =C'PROGRAM CATALOG'
 001C35 D59640979989A589           10649                             =C'No privileges to extend'
 001C4C C381959596A34099           10650                             =C'Cannot read loadfile containing private program'
 001C7B D697859981958440           10651                             =C'Operand missing'
 001C8A 7A40C995A5819389           10652                             =C': Invalid'
 001C93 D98598A485A2A340           10653                             =C'Request aborted'
 001CA2 C1C3C3D6E4D5E3             10654                             =C'ACCOUNT'
 001CA9 C995A58193898440           10655                             =C'Invalid member name specified'
1VGP      (VGP00) (09:47) (22MAR04) ORVYL'S FILE SYSTEM SERVICE PROCESSOR                                                   Page   77
0Current Usings:  (BASE+4096,R6) (BASE,R7) (WA,R8) (CLW,R10) (GPW,R12)
0Loc    Object Code    Addr1 Addr2  Stmt Lv Lineno    Source Statement           (Hibal 5, Asmedit 3.3)  HLASM R4.0  2004/03/22 09.47
+___    ______ ____    _____ _____  ____ __ ______    ______ _________
0                                  10758    1564.     *  GET FILE FORMAT FROM USER INFO
                                   10759    1565.     *
                                   10760    1566.              ENTRY GETFMT
 001FC4                            10761    1567.     GETFMT   LABEL ,
 001FC4 9079 D000            00000 10763    1568.              VPUSH BR,RAR,*
 001FC8 41D0 D00C            0000C 10765             +
 001FCC 0570                       10766    1569.              BALR  BR,0                    OBTAIN ADDR
 DROP   BASE,R7                    10767    1570.              USING *,BR                    ##
 USING  *,R7
 001FCE 9170 C006      00006       10780    1571.              IF    (GPWGPFV+GPWGPFLR+GPWGPFE,NZ),GETFMTEX  ANYTHING?
 001FD2 4770 7078            02046 10801             +
 001FD6 9110 C08C      0008C       10807    1572.              IF    ~GPWFFMT,GETFMTEX       CLP INFO?
 001FDA 47E0 7078            02046 10819             +
 001FDE 9104 C0B8      000B8       10825    1573.              IF    ~GPWUIFLR,GETFMTVE      LRECL?
 001FE2 47E0 7052            02020 10837             +
 001FE6 9103 C0B8      000B8       10843    1574.              IF    (GPWUIFN+GPWUIFI,Z),GETFMTLR   NUM OR INT?
 001FEA 4780 703A            02008 10860             +
 001FEE D501 C0BA 70F2 000BA 020C0 10866    1575.              CLC   GPWUILRC,=Y(80)         RIGHT LRECL FOR NUM OR INT?
 001FF4 4770 7078            02046 10867    1576.              BNE   GETFMTEX                NO - FORGET IT
 001FF8 9102 C0B8      000B8       10868    1577.              IF    ~GPWUIFI,GETFMTN        INTEGER?
 001FFC 47E0 7036            02004 10880             +
 002000 9680 C006      00006       10886    1578.              SET   GPWGPFIN                SET INTEGER BIT
 002004 9601 C006      00006       10892    1579.     GETFMTN  SET   GPWGPFN                 SET NUMBERED BIT
 002008 D501 C0BA 70F4 000BA 020C2 10899    1580.     GETFMTLR CLC   GPWUILRC,=Y(235)        LRECL OK?
 00200E 4720 7078            02046 10900    1581.              BH    GETFMTEX                NO - FORGET IT
 002012 D201 C034 C0BA 00034 000BA 10901    1582.              MVC   GPWLREC,GPWUILRC        SET LRECL
 002018 9620 C006      00006       10902    1583.              SET   GPWGPFLR                AND BIT
 00201C 47F0 7078            02046 10908    1584.              B     GETFMTEX                RETURN
                                   10909    1585.
 002020 D601 C0BA C0BA 000BA 000BA 10910    1586.     GETFMTVE OC    GPWUILRC,GPWUILRC       LRECL IS 0 FOR VAR OR EDIT
 002026 4770 7078            02046 10911    1587.              BNZ   GETFMTEX                ISN'T - FORGET IT
 00202A 9102 C0B8      000B8       10912    1588.              IF    ~GPWUIFV,GETFMTE        VARIABLE FORMAT?
 00202E 47E0 706C            0203A 10924             +
 002032 9640 C006      00006       10930    1589.              SET   GPWGPFV                 SET VAR BIT
 002036 47F0 7078            02046 10936    1590.              B     GETFMTEX                 AND RETURN
 00203A 9101 C0B8      000B8       10937    1591.     GETFMTE  IF    ~GPWUIFE,GETFMTEX       IS IT EDIT?
 00203E 47E0 7078            02046 10950             +
 002042 9610 C006      00006       10956    1592.              SET   GPWGPFE                 SET EDIT BIT
0002046                            10963    1594.     GETFMTEX LABEL ,
 002046 4BD0 70F6            020C4 10965    1595.              VPOP  BR,RAR,*
 00204A 9879 D000            00000 10967             +
 00204E 07F9                       10968    1596.              BR    RAR                     RETURN
1VGP      (VGP00) (09:47) (22MAR04) ORVYL'S FILE SYSTEM SERVICE PROCESSOR                                                   Page   78
0Current Usings:  (BASE+4096,R6) (*,R7) (WA,R8) (CLW,R10) (GPW,R12)
0Loc    Object Code    Addr1 Addr2  Stmt Lv Lineno    Source Statement           (Hibal 5, Asmedit 3.3)  HLASM R4.0  2004/03/22 09.47
+___    ______ ____    _____ _____  ____ __ ______    ______ _________
0                                  10970    1598.     * SET FILE FORMAT INTO USER INFO FIELD
                                   10971    1599.     *
                                   10972    1600.              ENTRY SETFMT
 002050                            10973    1601.     SETFMT   LABEL ,
 002050 9079 D000            00000 10975    1602.              VPUSH BR,RAR,*
 002054 41D0 D00C            0000C 10977             +
 002058 0570                       10978    1603.              BALR  BR,0
 DROP   *,R7                       10979    1604.              USING *,BR                    ##
 USING  *,R7
 00205A D703 C0B8 C0B8 000B8 000B8 10992    1605.              XC    GPWUINFO,GPWUINFO       CLEAR INFO FIELD
 002060 9500 C08F      0008F       10993    1606.              IF    (GPWLMNL,NE,0),BEGIN   LIB # NAME IMPLIES LIB
 002064 4780 7012            0206C 11006             +
 002068 9680 C0B8      000B8       11011  1 1607.                  SET GPWUILIB
 00206C                            11017    1608.               END ,
 00206C 9120 C006      00006       11021    1609.              IF    ~GPWGPFLR,SETFMTVE      LRECL SPECIFIED?
 002070 47E0 704E            020A8 11033             +
 002074 9101 C006      00006       11039    1610.              IF    ~GPWGPFN,SETFMTLR       NUM (OR INT)?
 002078 47E0 7036            02090 11051             +
 00207C 9180 C006      00006       11057    1611.              IF    ~GPWGPFIN,SETFMTN       INTEGER?
 002080 47E0 7032            0208C 11069             +
 002084 9602 C0B8      000B8       11075    1612.              SET   GPWUIFI                 SET INTEGER BIT
 002088 47F0 7036            02090 11081    1613.              B     SETFMTLR                  AND TREAT LIKE LRECL
 00208C 9601 C0B8      000B8       11082    1614.     SETFMTN  SET   GPWUIFN                 SET NUMBERED BIT
 002090 9604 C0B8      000B8       11089    1615.     SETFMTLR SET   GPWUIFLR                SET LRECL BIT
 002094 D201 C0BA C034 000BA 00034 11096    1616.              MVC   GPWUILRC,GPWLREC        MOVE IN LRECL
 00209A 9610 C08C      0008C       11097    1617.     DOSETFMT SET   GPWFFMT                 INDICATE MODE=SETFORM
 00209E                            11104    1618.     SETFMTEX LABEL ,
 00209E 4BD0 706A            020C4 11106    1619.              VPOP  BR,RAR,*
 0020A2 9879 D000            00000 11108             +
 0020A6 07F9                       11109    1620.              BR    RAR                     RETURN
                                   11110    1621.
 0020A8 9140 C006      00006       11111    1622.     SETFMTVE IF    ~GPWGPFV,SETFMTE        VARIABLE FORMAT?
 0020AC 47E0 705E            020B8 11124             +
 0020B0 9602 C0B8      000B8       11130    1623.              SET   GPWUIFV                 SET VARIABLE BIT
 0020B4 47F0 7040            0209A 11136    1624.              B     DOSETFMT                GO SET THE FORMAT
 0020B8 9601 C0B8      000B8       11137    1625.     SETFMTE  SET   GPWUIFE                 SET EDIT BIT
 0020BC 47F0 7040            0209A 11144    1626.              B     DOSETFMT                GO SET THE FORMAT
00020C0                            11146    1628.              LTORG ,
 0020C0 0050                       11148                             =Y(80)
 0020C2 00EB                       11149                             =Y(235)
 0020C4 000C           020C6 022E0 11150                             =Y((RAR+1-(BR)+16*((BR)/(RAR+1))/((BR)/(RAR+1)))*4)
1VGP      (VGP00) (09:47) (22MAR04) ORVYL'S FILE SYSTEM SERVICE PROCESSOR                                                   Page   79
0Current Usings:  (BASE+4096,R6) (*,R7) (WA,R8) (CLW,R10) (GPW,R12)
0Loc    Object Code    Addr1 Addr2  Stmt Lv Lineno    Source Statement           (Hibal 5, Asmedit 3.3)  HLASM R4.0  2004/03/22 09.47
+___    ______ ____    _____ _____  ____ __ ______    ______ _________
0                                  11155    1630.     *  SCAN TABLES
                                   11156    1631.     *
0                                  11158    1633.              EXTRN QUIET                   EXTERNAL SCAN EXITS
                                   11159    1634.              EXTRN KWFNOPT
                                   11160    1635.              EXTRN FORACT
                                   11161    1636.              EXTRN FORPUB
                                   11162    1637.              EXTRN OSOPTS
                                   11163    1638.              EXTRN OSCREATE
00020C6                            11165    1640.     ERASEOPT SCKW  CONTENTS,CONTENTS,A     ERASE COMMAND
 0020C6 0F000168C3D6D5E3           11166             +
 0020D2 F80021C4                   11167    1641.              SCKW  ,LIBOPTS,PUSH
 0020D6 F80021D7                   11169    1642.     ERAS#MEM SCKW  ,USRGPTB0,PUSH
00020DA 010001EAE3D6               11172    1644.     RENAMCMD SCKW  TO,RENEW                RENAME COMMAND
 0020E0 F8000000                   11174    1645.              SCKW  ,OSOPTS,PUSH
 0020E4 F80021D7                   11176    1646.              SCKW  ,USRGPTB0,PUSH
00020E8                            11179    1648.     CREATBLF SCKW  FROM,CREFROM,A          CREATE COMMAND
 0020E8 0B000370C6D9D6D4           11180             +
 0020F0                            11181    1649.              SCKW  ALIAS,CREALIAS,A
 0020F0 0C0004FAC1D3C9C1           11182             +
 0020F9                            11183    1650.     CREATBL  SCKW  APPEND,APPEND,A
 0020F9 0D000F14C1D7D7C5           11184             +
 002103                            11185    1651.              SCKW  REPLACE,CLRERASE,A
 002103 0E000E2ED9C5D7D3           11186             +
 00210E F80021F5                   11187    1652.              SCKW  ,FORMATS,PUSH
 002112 F80021C4                   11189    1653.              SCKW  ,LIBOPTS,PUSH
 002116 F80021D7                   11191    1654.              SCKW  ,USRGPTB0,PUSH
000211A                            11194    1656.     ALIASFTB SCKW  FOR,CREATAFO            FOR
 00211A 0200057EC6D6D9             11195             +
 002121 FF00051A                   11196    1657.              SCKW  ,CRENAMB                ALIAS NAME
0002125                            11199    1659.     GETTBL   SCKW  CLEAR,CLRERASE,A
 002125 0C000E2EC3D3C5C1           11200             +
 00212E                            11201    1660.              SCKW  CLR,CLRERASE
 00212E 02000E2EC3D3D9             11202             +
 002135                            11203    1661.              SCKW  SKIP,SKIP,(P,PI,A),999999
 002135 BB000ED0E2D2C9D7           11204             +
 00213D 000F423F                   11205             +
 002141                            11206    1662.              SCKW  MERGE,APPEND,A
 002141 0C000F14D4C5D9C7           11207             +
 00214A                            11208    1663.              SCKW  REPLACE,IGNORE,A
 00214A 0E000E3AD9C5D7D3           11209             +
 002155                            11210    1664.              SCKW  ERASE,IGNORE,A
 002155 0C000E3AC5D9C1E2           11211             +
 00215E                            11212    1665.              SCKW  SCRATCH,IGNORE,A
 00215E 0E000E3AE2C3D9C1           11213             +
 002169                            11214    1666.              SCKW  APPEND,IGNORE,A
 002169 0D000E3AC1D7D7C5           11215             +
 002173                            11216    1667.              SCKW  RENUMBER,RENUMBER,A
 002173 0F000F32D9C5D5E4           11217             +
1VGP      (VGP00) (09:47) (22MAR04) ORVYL'S FILE SYSTEM SERVICE PROCESSOR                                                   Page   80
0Current Usings:  (BASE+4096,R6) (*,R7) (WA,R8) (CLW,R10) (GPW,R12)
0Loc    Object Code    Addr1 Addr2  Stmt Lv Lineno    Source Statement           (Hibal 5, Asmedit 3.3)  HLASM R4.0  2004/03/22 09.47
+___    ______ ____    _____ _____  ____ __ ______    ______ _________
000217F                            11219    1669.     PUTTBL   SCKW  REPLACE,CLRERASE,A
 00217F 0E000E2ED9C5D7D3           11220             +
 00218A                            11221    1670.              SCKW  ERASE,CLRERASE,A
 00218A 0C000E2EC5D9C1E2           11222             +
 002193                            11223    1671.              SCKW  SCRATCH,CLRERASE,A
 002193 0E000E2EE2C3D9C1           11224             +
 00219E                            11225    1672.              SCKW  APPEND,APPEND,A
 00219E 0D000F14C1D7D7C5           11226             +
 0021A8                            11227    1673.              SCKW  QUIET,QUIET,A
 0021A8 0C000000D8E4C9C5           11228             +
 0021B1                            11229    1674.              SCKW  HEX,HEX
 0021B1 02000EB0C8C5E7             11230             +
 0021B8 F80021F5                   11231    1675.              SCKW  ,FORMATS,PUSH
 0021BC F8000000                   11233    1676.              SCKW  ,KWFNOPT,PUSH
 0021C0 FF000F5C                   11235    1677.              SCKW  ,BLKSIZE
1VGP      (VGP00) (09:47) (22MAR04) ORVYL'S FILE SYSTEM SERVICE PROCESSOR                                                   Page   81
0Current Usings:  (BASE+4096,R6) (*,R7) (WA,R8) (CLW,R10) (GPW,R12)
0Loc    Object Code    Addr1 Addr2  Stmt Lv Lineno    Source Statement           (Hibal 5, Asmedit 3.3)  HLASM R4.0  2004/03/22 09.47
+___    ______ ____    _____ _____  ____ __ ______    ______ _________
00021C4                            11238    1679.     LIBOPTS  SCKW  LIBRARY,ERASELIB,A
 0021C4 0E000162D3C9C2D9           11239             +
 0021CF                            11240    1680.              SCKW  PDS,ERASELIB,A
 0021CF 0A000162D7C4E2             11241             +
 0021D6 F9                         11242    1681.              SCKW  ,,POP
00021D7                            11245    1683.     USRGPTB0 SCKW  QUIET,QUIET,A
 0021D7 0C000000D8E4C9C5           11246             +
 0021E0 F8000000                   11247    1684.     USRGPTBL SCKW  ,KWFNOPT,PUSH
 0021E4 FF0017C6                   11249    1685.              SCKW  ,UNREC
00021E8                            11252    1687.     QUIETBL  SCKW  QUIET,QUIET,A
 0021E8 0C000000D8E4C9C5           11253             +
 0021F1 FF0017C6                   11254    1688.              SCKW  ,UNREC
00021F5                            11257    1690.     FORMATS  SCKW  CARD,CARD,A
 0021F5 0B000E52C3C1D9C4           11258             +
 0021FD                            11259    1691.              SCKW  PRINT,PRINT,A
 0021FD 0C000E4AD7D9C9D5           11260             +
 002206                            11261    1692.              SCKW  VARIABLE,VARIABLE,A
 002206 0F000EA2E5C1D9C9           11262             +
 002212                            11263    1693.              SCKW  LRECL,LRECL,(P,PI,A),235
 002212 BC000E5AD3D9C5C3           11264             +
 00221B 000000EB                   11265             +
 00221F                            11266    1694.              SCKW  EDIT,EDIT,A
 00221F 0B000E3CC5C4C9E3           11267             +
 002227                            11268    1695.              SCKW  NUMBERED,NUMB,A
 002227 0F000EE8D5E4D4C2           11269             +
 002233                            11270    1696.              SCKW  INTEGER,INTEGER,A
 002233 0E000F22C9D5E3C5           11271             +
 00223E F9                         11272    1697.              SCKW  ,,POP
000223F F8000000                   11275    1699.     MASKTBL  SCKW  ,KWFNOPT,PUSH
 002243 F800224B                   11277    1700.              SCKW  ,PERMOPT,PUSH
 002247 FF0017C6                   11279    1701.              SCKW  ,UNREC
000224B                            11282    1703.     PERMOPT  SCKW  NONE,PERMNONE,A
 00224B 0B0012D8D5D6D5C5           11283             +
 002253                            11284    1704.              SCKW  READ,PERMRD,A
 002253 0B0012C6D9C5C1C4           11285             +
 00225B                            11286    1705.              SCKW  WRITE,PERMWR,A
 00225B 0C0012D2E6D9C9E3           11287             +
 002264                            11288    1706.              SCKW  APPEND,PERMAPP,A
 002264 0D0012CCC1D7D7C5           11289             +
 00226E F9                         11290    1707.              SCKW  ,,POP
000226F                            11293    1709.     CKFORTBL SCKW  FOR,CKVALFOR
 00226F 0200166EC6D6D9             11294             +
 002276                            11295    1710.              SCKW  ACCOUNT,CKFNDACC,(A,P)
 002276 8E001696C1C3C3D6           11296             +
 002281                            11297    1711.              SCKW  FILE,CKVALFIL
 002281 03001690C6C9D3C5           11298             +
 002289                            11299    1712.              SCKW  ACCT,CKFNDACC,P
 002289 83001696C1C3C3E3           11300             +
1VGP      (VGP00) (09:47) (22MAR04) ORVYL'S FILE SYSTEM SERVICE PROCESSOR                                                   Page   82
0Current Usings:  (BASE+4096,R6) (*,R7) (WA,R8) (CLW,R10) (GPW,R12)
0Loc    Object Code    Addr1 Addr2  Stmt Lv Lineno    Source Statement           (Hibal 5, Asmedit 3.3)  HLASM R4.0  2004/03/22 09.47
+___    ______ ____    _____ _____  ____ __ ______    ______ _________
0002291 FF0016B2                   11301    1713.              SCKW  ,CKACCT
0002295 F8000000                   11304    1715.     FORTBL   SCKW  ,KWFNOPT,PUSH
 002299                            11306    1716.     FORTBL1  SCKW  FOR,SETPRFOR
 002299 020011F2C6D6D9             11307             +
 0022A0 FF0017C6                   11308    1717.              SCKW  ,UNREC
00022A4                            11311    1719.     FORTBL4  SCKW  PUBLIC,FORPUB,A
 0022A4 0D000000D7E4C2D3           11312             +
 0022AE F8000000                   11313    1720.              SCKW  ,KWFNOPT,PUSH
 0022B2                            11315    1721.              SCKW  EXTEND,PERMEXT,A
 0022B2 0D0012E2C5E7E3C5           11316             +
 0022BC F800224B                   11317    1722.              SCKW  ,PERMOPT,PUSH
 0022C0 FF000000                   11319    1723.              SCKW  ,FORACT
00022C4 F80021F5                   11322    1725.     FORMTTBL SCKW  ,FORMATS,PUSH
 0022C8 F8000000                   11324    1726.              SCKW  ,KWFNOPT,PUSH
 0022CC FF0017C6                   11326    1727.              SCKW  ,UNREC
00022D0                            11329    1729.     FBALSCKW SCKW  RESET,DFBRES,A
 0022D0 0C001642D9C5E2C5           11330             +
 0022D9 FF0017C6                   11331    1730.              SCKW  ,UNREC
 0022E0                022E0 022E0 11333    1731.              END   .

1VGP      (VGP00) (09:47) (22MAR04) Ordinary Symbol and Literal Cross Reference                                             Page   83
-Symbol   Length   Value     Id    R Type   Defn References                                  HLASM R4.0  2004/03/22 09.47
0$$$@R10       1 00000000 FFFFFFF4     J     836  1129
 $$$@R12       1 00000000 FFFFFFF2     J     862  1142
 $$$@R2        1 00000000 FFFFFFFC     J     732  1025
 $$$@R3        1 00000000 FFFFFFFB     J     745  1038
 $$$@R4        1 00000000 FFFFFFFA     J     758  1051
 $$$@R5        1 00000000 FFFFFFF9     J     771  1064
 $$$@R6        1 00000000 FFFFFFF8     J     784  1077
 $$$@R7        1 00000000 FFFFFFF7     J     797  1090
 $$$@R8        1 00000000 FFFFFFF6     J     810  1103
 $$$@R9        1 00000000 FFFFFFF5     J     823  1116
 $$$C1VGP      1 00000058 00000001     J    2880  2882   3550   4281   5012   5087   5128
 $$$C2VGP      1 00001CE4 00000001     J   10656 10658
 $$$C3VGP      1 000020C6 00000001     J   11151 11153
 $$$C4VGP      1 000022E0 00000001     J   11336 11338
 $$$D1VGP      1 00001CC6 00000001     J    2881  3539   4270   5001   5076   5117
 $$$RCLW       1 00000000 FFFFFFED     J    1533  1840   1840
 $$$RSCP       1 00000000 FFFFFFEE     J    1188  1517   1517
 $$$RWA        1 00000000 FFFFFFE8     J    2759  2777   2777
 $$$103F       2 000006DA 00000001     H    4871  4857B
 $$$108        6 00001CD2 00000001     I    5007  4999X
 $$$109        6 00001CD2 00000001     I    5006  5007   5007
 $$$111        6 00001CD8 00000001     I    5082  5074X
 $$$112        6 00001CD8 00000001     I    5081  5082   5082
 $$$113F       2 00000814 00000001     H    5133  5105B
 $$$114        6 00001CDE 00000001     I    5123  5115X
 $$$115        6 00001CDE 00000001     I    5122  5123   5123
 $$$116F       2 00000828 00000001     H    5156  5142B
 $$$118F       2 00000878 00000001     H    5226  5209B
 $$$118S       2 00000856 00000001     H    5202  5225B
 $$$123F       2 000008D4 00000001     H    5346  5333B
 $$$125B       4 000008FC 00000001     I    5403  5417
 $$$125F       2 00000904 00000001     H    5414  5403B  5416
 $$$126E       2 00000908 00000001     H    5424  5418
 $$$126F       2 0000090C 00000001     H    5432  5420B
 $$$127B       4 00000910 00000001     I    5451  5673
 $$$127F       2 00000980 00000001     H    5669  5451B  5672
 $$$133F       2 00000960 00000001     H    5593  5573B
 $$$135F       2 00000970 00000001     H    5628  5608B
 $$$137F       2 00000980 00000001     H    5663  5643B
 $$$139E       2 00000984 00000001     H    5680  5674
 $$$139F       2 0000098A 00000001     H    5690  5676B
 $$$143F       2 000009BE 00000001     H    5786  5771B
 $$$147F       2 000009FC 00000001     H    5855  5846B
 $$$148F       2 00000A08 00000001     H    5876  5866B
 $$$150F       2 00000A72 00000001     H    5980  5951B  5963B
 $$$153F       2 00000ACE 00000001     H    6159  5993B
 $$$155F       2 00000AB6 00000001     H    6089  6026B
 $$$162F       2 00000AF8 00000001     H    6228  6206B
 $$$162T       2 00000AE8 00000001     H    6209  6195B
 $$$164B       4 00000AFC 00000001     I    6240  6257
 $$$164F       2 00000B04 00000001     H    6254  6240B  6256
 $$$165E       2 00000B08 00000001     H    6264  6258
 $$$165F       2 00000B24 00000001     H    6302  6260B
 $$$169F       2 00000B60 00000001     H    6388  6371B
 $$$173F       2 00000BAA 00000001     H    6490  6478B
1VGP      (VGP00) (09:47) (22MAR04) Ordinary Symbol and Literal Cross Reference                                             Page   84
 $$$174F       2 00000BCE 00000001     H    6534  6514B
 $$$176F       2 00000BDE 00000001     H    6569  6549B
 $$$178F       2 00000BEE 00000001     H    6604  6584B
 $$$180F       2 00000C4A 00000001     H    6766  6617B
 $$$184B       4 00000C18 00000001     I    6693  6710
 $$$184F       2 00000C20 00000001     H    6707  6693B  6709
 $$$185E       2 00000C24 00000001     H    6717  6711
 $$$185F       2 00000C40 00000001     H    6755  6713B
 $$$187F       2 00000C90 00000001     H    6898  6778B
 $$$188F       2 00000C6E 00000001     H    6837  6798B
 $$$190F       2 00000C7A 00000001     H    6863  6848B
 $$$191F       2 00000C86 00000001     H    6889  6874B
 $$$192F       2 00000CAE 00000001     H    6939  6926B
 $$$193F       2 00000CBA 00000001     H    6967  6952B
 $$$194F       2 00000D88 00000001     H    7072  7056B
 $$$195F       2 00000D96 00000001     H    7095  7083B
 $$$208F       2 00000E9E 00000001     H    7474  7458B
 $$$211F       2 00000EC6 00000001     H    7584  7568B
 $$$218F       2 00000F52 00000001     H    7830  7820B
 $$$221F       2 00001070 00000001     H    8045  8034B
 $$$224F       2 00001142 00000001     H    8318  8240B
 $$$225F       2 00001142 00000001     H    8314  8263B
 $$$226F       2 00001132 00000001     H    8287  8277B
 $$$227F       2 00001142 00000001     H    8310  8300B
 $$$230F       2 00001164 00000001     H    8402  8392B
 $$$231F       2 00001192 00000001     H    8468  8421B
 $$$232F       2 00001180 00000001     H    8450  8437B
 $$$234F       2 000011BE 00000001     H    8539  8513B  8525B
 $$$243F       2 000014C8 00000001     H    9407  9396B
 $$$244B       4 000014E4 00000001     I    9438  9450
 $$$244F       2 000014EE 00000001     H    9447  9438B  9449
 $$$245E       2 000014F2 00000001     H    9457  9451
 $$$245F       2 0000150A 00000001     H    9484  9453B
 $$$247F       2 00001556 00000001     H    9545  9529B
 $$$248B       4 0000156A 00000001     I    9571  9590
 $$$248F       2 00001576 00000001     H    9587  9571B  9589
 $$$249E       2 0000157A 00000001     H    9597  9591
 $$$249F       2 0000158A 00000001     H    9624  9593B
 $$$251F       2 000015E8 00000001     H    9713  9663B
 $$$252F       2 0000163E 00000001     H    9824  9784B
 $$$253F       2 0000163E 00000001     H    9820  9802B
 $$$255B       4 00001828 00000001     I   10186 10218
 $$$255F       2 00001840 00000001     H   10215 10186B 10217
 $$$256E       2 00001844 00000001     H   10225 10219
 $$$256F       2 0000184C 00000001     H   10233 10221B
 $$$261B       1 00001FCE 00000001     X   10768 10778U
 $$$269B       1 0000205A 00000001     X   10980 10990U
 $$$270F       2 0000206C 00000001     H   11020 11006B
 $$$42B        1 00000020 00000001     X    2823  2830U
 $$$43B        4 000000DC 00000001     I    2965  3032
 $$$43F        2 00000112 00000001     H    3029  2965B  3031
 $$$44F        2 00000112 00000001     H    3025  2980B
 $$$46E        2 00000116 00000001     H    3039  3033
 $$$46F        2 0000011E 00000001     H    3062  3035B
 $$$48B        4 00000122 00000001     I    3073  3121
 $$$48F        2 00000142 00000001     H    3118  3073B  3120
 $$$49F        2 00000136 00000001     H    3107  3090B
 $$$51E        2 00000146 00000001     H    3128  3122
 $$$51F        2 00000150 00000001     H    3144  3124B
1VGP      (VGP00) (09:47) (22MAR04) Ordinary Symbol and Literal Cross Reference                                             Page   85
 $$$52F        2 000001AC 00000001     H    3250  3228B
 $$$53F        2 000001D8 00000001     H    3298  3285B
 $$$55B        4 000001FC 00000001     I    3354  3383
 $$$55F        2 0000020A 00000001     H    3380  3354B  3382
 $$$57E        2 0000020E 00000001     H    3390  3384
 $$$57F        2 00000214 00000001     H    3399  3386B
 $$$58F        2 0000025E 00000001     H    3480  3459B  3471B
 $$$61         6 00001CC6 00000001     I    3545  3537X
 $$$62         6 00001CC6 00000001     I    3544  3545   3545
 $$$63F        2 000002F0 00000001     H    3645  3632B
 $$$66F        2 00000344 00000001     H    3770  3725B
 $$$67F        2 0000033A 00000001     H    3761  3746B
 $$$68F        2 00000370 00000001     H    3831  3781B
 $$$69F        2 00000362 00000001     H    3816  3801B
 $$$73F        2 000003E4 00000001     H    3972  3955B
 $$$75F        2 00000458 00000001     H    4060  4047B
 $$$76B        4 00000484 00000001     I    4103  4118
 $$$76F        2 0000048E 00000001     H    4115  4103B  4117
 $$$77E        2 00000492 00000001     H    4125  4119
 $$$77F        2 00000498 00000001     H    4134  4121B
 $$$80         6 00001CCC 00000001     I    4276  4268X
 $$$81         6 00001CCC 00000001     I    4275  4276   4276
 $$$82F        2 00000590 00000001     H    4375  4362B
 $$$89F        2 00000622 00000001     H    4579  4566B
 $$$91F        2 00000644 00000001     H    4633  4618B
 $$$97B        4 00000684 00000001     I    4728  4765
 $$$97F        2 0000069A 00000001     H    4762  4728B  4764
 $$$99E        2 0000069E 00000001     H    4772  4766
 $$$99F        2 000006A6 00000001     H    4798  4768B
 #VGPA1M       1 00001CE4 00000001     R   10662  2986
 #VGPA1T      23 00001CE5 00000001     C   10663 10662
 #VGPA2M       1 00001CFC 00000001     R   10664  2998
 #VGPA2T      20 00001CFD 00000001     C   10665 10664
 #VGPA3M       1 00001D11 00000001     R   10666  3113
 #VGPA3T      12 00001D12 00000001     C   10667 10666
 #VGPA4M       1 00001D1E 00000001     R   10668  3150
 #VGPA4T       7 00001D1F 00000001     C   10669 10668
 #VGPA5M       1 00001D26 00000001     R   10670  3238
 #VGPA5T      10 00001D27 00000001     C   10671 10670
 #VGPA6M       1 00001D31 00000001     R   10672  3256
 #VGPA6T      10 00001D32 00000001     C   10673 10672
 #VGPA7M       1 00001D3C 00000001     R   10674  3609
 #VGPA7T      18 00001D3D 00000001     C   10675 10674
 #VGPA8M       1 00001D4F 00000001     R   10676  4151  10690
 #VGPA8T       8 00001D50 00000001     C   10677 10676
 #VGPA9M       1 00001D58 00000001     R   10678  4158
 #VGPA9T      28 00001D59 00000001     C   10679 10678
 #VGPB0M       1 00001D75 00000001     R   10680  4167
 #VGPB0T      15 00001D76 00000001     C   10681 10680
 #VGPB1M       1 00001D85 00000001     R   10682  4176
 #VGPB1T      26 00001D86 00000001     C   10683 10682
 #VGPB2M       1 00001DA0 00000001     R   10684  4181
 #VGPB2T      37 00001DA1 00000001     C   10685 10684
 #VGPB3M       1 00001DC6 00000001     R   10686  4186
 #VGPB3T      53 00001DC7 00000001     C   10687 10686
 #VGPB4M       1 00001DFC 00000001     R   10688  4320
 #VGPB4T       6 00001DFD 00000001     C   10689 10688
 #VGPB5M       1 00001D4F 00000001     U   10690  4333
 #VGPB6M       1 00001E03 00000001     R   10691  4439
1VGP      (VGP00) (09:47) (22MAR04) Ordinary Symbol and Literal Cross Reference                                             Page   86
 #VGPB6T      11 00001E04 00000001     C   10692 10691
 #VGPB7M       1 00001E0F 00000001     R   10693  5278
 #VGPB7T      45 00001E10 00000001     C   10694 10693
 #VGPB8M       1 00001E3D 00000001     R   10695  6057
 #VGPB8T      16 00001E3E 00000001     C   10696 10695
 #VGPB9M       1 00001E4E 00000001     R   10697  6484
 #VGPB9T      32 00001E4F 00000001     C   10698 10697
 #VGPC0M       1 00001E6F 00000001     R   10699  7178
 #VGPC0T       9 00001E70 00000001     C   10700 10699
 #VGPC1M       1 00001E79 00000001     R   10701  7183
 #VGPC1T       9 00001E7A 00000001     C   10702 10701
 #VGPC2M       1 00001E83 00000001     R   10703  7188
 #VGPC2T       9 00001E84 00000001     C   10704 10703
 #VGPC3M       1 00001E8D 00000001     R   10705  7209
 #VGPC3T      12 00001E8E 00000001     C   10706 10705
 #VGPC4M       1 00001E9A 00000001     R   10707  7214
 #VGPC4T      13 00001E9B 00000001     C   10708 10707
 #VGPC5M       1 00001EA8 00000001     R   10709  7221
 #VGPC5T       4 00001EA9 00000001     C   10710 10709
 #VGPC6M       1 00001EAD 00000001     R   10711  7266
 #VGPC6T       3 00001EAE 00000001     C   10712 10711
 #VGPC7M       1 00001EB1 00000001     R   10713  7275
 #VGPC7T      29 00001EB2 00000001     C   10714 10713
 #VGPC8M       1 00001ECF 00000001     R   10715  7927
 #VGPC8T      10 00001ED0 00000001     C   10716 10715
 #VGPC9M       1 00001EDA 00000001     R   10717  8158
 #VGPC9T       7 00001EDB 00000001     C   10718 10717
 #VGPD0M       1 00001EE2 00000001     R   10719  9535
 #VGPD0T      19 00001EE3 00000001     C   10720 10719
 #VGPD1M       1 00001EF6 00000001     R   10721  9708
 #VGPD1T      19 00001EF7 00000001     C   10722 10721
 #VGPD2M       1 00001F0A 00000001     R   10723  9754
 #VGPD2T      27 00001F0B 00000001     C   10724 10723
 #VGPD3M       1 00001F26 00000001     R   10725  9790
 #VGPD3T      12 00001F27 00000001     C   10726 10725
 #VGPD4M       1 00001F33 00000001     R   10727  9815
 #VGPD4T       6 00001F34 00000001     C   10728 10727
 #VGPD5M       1 00001F3A 00000001     R   10729 10192
 #VGPD5T       3 00001F3B 00000001     C   10730 10729
 #VGPD6M       1 00001F3E 00000001     R   10731 10228
 #VGPD6T      20 00001F3F 00000001     C   10732 10731
 #VGPD7M       1 00001F53 00000001     R   10733 10257
 #VGPD7T      10 00001F54 00000001     C   10734 10733
 #VGPD8M       1 00001F5E 00000001     R   10735 10278
 #VGPD8T       9 00001F5F 00000001     C   10736 10735
 #VGPD9M       1 00001F68 00000001     R   10737 10299
 #VGPD9T       8 00001F69 00000001     C   10738 10737
 #VGPE0M       1 00001F71 00000001     R   10739 10303
 #VGPE0T       4 00001F72 00000001     C   10740 10739
 #VGPE1M       1 00001F76 00000001     R   10741 10324
 #VGPE1T       8 00001F77 00000001     C   10742 10741
 #VGPE2M       1 00001F7F 00000001     R   10743 10329
 #VGPE2T       7 00001F80 00000001     C   10744 10743
 #VGPE3M       1 00001F87 00000001     R   10745 10336
 #VGPE3T      10 00001F88 00000001     C   10746 10745
 #VGPE4M       1 00001F92 00000001     R   10747 10347
 #VGPE4T      16 00001F93 00000001     C   10748 10747
 #VGPE5M       1 00001FA3 00000001     R   10749 10372
 #VGPE5T       7 00001FA4 00000001     C   10750 10749
1VGP      (VGP00) (09:47) (22MAR04) Ordinary Symbol and Literal Cross Reference                                             Page   87
 #VGPE6M       1 00001FAB 00000001     R   10751 10381
 #VGPE6T      15 00001FAC 00000001     C   10752 10751
 #VGPE7M       1 00001FBB 00000001     R   10753 10450
 #VGPE7T       7 00001FBC 00000001     C   10754 10753
 @QR           0 00000000 FFFFFFFA     @    1052  5063M  5081M
 @R0           0 00000000 FFFFFFFE     @     707   983U
 @R1           0 00000000 FFFFFFFD     @     720   979U  3544   4275   5063   5066   5096M  5122M  6334   7025   7860
                                                  7874   8189U  8475U  9437   9443   9469   9478   9479   9996M
 @R10          0 00000000 FFFFFFF4     @     837   943U
 @R11          0 00000000 FFFFFFF3     @     850   939U
 @R12          0 00000000 FFFFFFF2     @     863   935U
 @R13          0 00000000 FFFFFFF1     @     876   931U  3990M  3994   5066M  5081
 @R14          0 00000000 FFFFFFF0     @     889   927U  4991   4992M  5006M  5006   8288   8381U  8628U
 @R15          0 00000000 FFFFFFEF     @     902   923U  4983   5067   7368   7620   8252U
 @R2           0 00000000 FFFFFFFC     @     733   975U  4896U  8024   8136   8225U  8343U  8410U
 @R3           0 00000000 FFFFFFFB     @     746   971U
 @R4           0 00000000 FFFFFFFA     @     759   967U  8398   9307U  9366U
 @R5           0 00000000 FFFFFFF9     @     772   963U
 @R6           0 00000000 FFFFFFF8     @     785   959U
 @R7           0 00000000 FFFFFFF7     @     798   955U  2840U 10775U 10987U
 @R8           0 00000000 FFFFFFF6     @     811   951U
 @R9           0 00000000 FFFFFFF5     @     824   947U
 @SR           0 00000000 FFFFFFFC     @    1026  4899   5833   6998M  6999   7866   9620   9630   9644
 @TR           0 00000000 FFFFFFFB     @    1039  4895   4901   5217M  5218   5221
 ACCT          6 00000007 FFFFFFEC     C    2180  9964   9965   9996   9997  10016  10616  10637
 ACCTINC       4 000017DA 00000001     I   10121  8652B  8762B  8787B
 ALIASFTB      1 0000211A 00000001     R   11195 10598
 APPEND        2 00000F14 00000001     H    7708 11184  11207  11226
 APPILLEG      4 000017BE 00000001     I   10095  3684B
 ATTFPUT       4 00000A42 00000001     I    5923  3731B  3997B  5428B
 ATTFP1        2 00000B2E 00000001     H    6312  6043B  6085B  6175B
 ATTOSPUT      2 00000B8E 00000001     H    6459  5410B
 ATTOSRET      2 00000CAE 00000001     H    6941  6762B  6894B
 ATTPERS       2 00000B6E 00000001     H    6420  6353B
 ATTPGO        6 00000B7E 00000001     I    6445  6323B  6333B
 ATTPGO1       4 00000B84 00000001     I    6447  6309B  6431B
 BADACCT       2 00001850 00000001     H   10237  9472B  9940B  9944B
 BADEDIT       4 0000188C 00000001     I   10303 10292B
 BADFCOM       2 000018A4 00000001     H   10327 10301B 10317B
 BADFORM       4 00001870 00000001     I   10278  4898B  5220B  5240B
 BASE          1 00000036 00000001     U    2861  2843U  2851U  2879   2879
 BLKSIZE       2 00000F5C 00000001     H    7843 11236
 BLOCKED       4 0000176E 00000001     I   10057  4408B
 BR            7 00000007 00000001 A   #    1084  2832M  2843U  7906B  7915B  7924B  7936B  7945B  7954B  7963B 10036B
                                                 10044B 10052B 10060B 10068B 10076B 10084B 10092B 10119B 10133B 10159B
                                                 10173B 10275B 10331B 10338B 10349B 10358B 10362B 10378B 10470B 10764
                                                 10765  10765  10765  10766M 10778U 10967M 10976  10977  10977  10977
                                                 10978M 10990U 11108M 11150  11150  11150
 BRR           6 00000006 00000001 A   #    1071  2832M  2851U  2855  10510M 10511B
 BTD           1 00000000 0000000E     T   10620 10620
 CARD          4 00000E52 00000001     I    7364 11258
 CHECKFOR      4 00001648 00000001     I    9853  8547B
 CHKATTN       1 00000000 0000000B     T   10608 10608
 CKACCT        2 000016B2 00000001     H    9948 11302
 CKFNDACC      2 00001696 00000001     H    9938 11296  11300
 CKFNDFIL      2 00001682 00000001     H    9911  9950B  9952B
 CKFORTBL      1 0000226F 00000001     R   11294 10623
 CKVALACC      4 000016C2 00000001     I    9953  9942B  9945B
 CKVALFIL      4 00001690 00000001     I    9934 11298
1VGP      (VGP00) (09:47) (22MAR04) Ordinary Symbol and Literal Cross Reference                                             Page   88
 CKVALFOR      2 0000166E 00000001     H    9884 11294
 CLRERASE      2 00000E2E 00000001     H    7283 11186  11200  11202  11220  11222  11224
 CLW        1560 00000000 FFFFFFED     J    1840  2791U
 CLWACCT       6 000003B0 FFFFFFED     C    1826  1827   1828
 CLWFL         1 00000207 FFFFFFED     R    1557  1561   1566   1571
 CLWFLG        1 00000208 FFFFFFED     R    1577  1581   1586   1591   1596   1601   1606   1611
 CLWGROUP      2 000003B0 FFFFFFED     C    1828  8786   9995
 CLWIBUF     235 0000002D FFFFFFED     C    1549  9402
 CLWKWCB       4 000002C4 FFFFFFED     F    1802  1813   2941   3200   3313   3438   3503   3566   3666   3889   4233
                                                  4297   4396   5361   8093   8572   8691   8939   8973   9028   9064
                                                  9116   9149   9201   9248   9419   9510   9853   9874   9902   9929
                                                  9980
 CLWMFL        1 0000020A FFFFFFED     R    1662  1666   1671   1676   1681   1686   1691   1696   1701
 CLWMONF       1 0000020B FFFFFFED     R    1707  1711   1716   1721   1726
 CLWNTRAP      1 00000008 FFFFFFED A   N    1784  1785
 CLWOBUF       2 00000118 FFFFFFED     H    1551  1553  10437M 10437
 CLWPFL        1 00000209 FFFFFFED     R    1617  1621   1626   1631   1636   1641   1646   1651   1656
 CLWQRET       4 00000358 FFFFFFED     F    1821  2855M
 CLWR         10 0000000A 00000001 A   #    1123  2791U
 CLWSCP        4 00000000 FFFFFFED     A    1540  9284
 CLWSFL        1 0000020C FFFFFFED     R    1732  1736   1741
 CLWTEMP       8 000002E8 FFFFFFED     D    1815  5053   5057M  9685   9731
 CLWUSER       3 000003B3 FFFFFFED     C    1827  8784
 CLWWLMOD      4 00000228 FFFFFFED     F    1756  4407
 CONTENTS      2 00000168 00000001     H    3171 11166
 CRALREDY      4 000004BE 00000001     I    4164  6385B
 CRAPLIB       2 000004B2 00000001     H    4156  3969B
 CREALIAS      2 000004FA 00000001     H    4194 11182
 CREAMBNO      4 000004E2 00000001     I    4181  3709B  3852B
 CREATAFO      2 0000057E 00000001     H    4338 11195
 CREATBL       1 000020F9 00000001     R   11184 10596
 CREATBLF      1 000020E8 00000001     R   11180 10594
 CREATE        2 000002E0 00000001     H    3620  2895B
 CREATMBS      4 0000056C 00000001     I    4330  3594B
 CREBLKSZ      4 000004EE 00000001     I    4186  3999B
 CREEND        2 0000049C 00000001     H    4138  4078B
 CREFROM       4 00000370 00000001     I    3835 11180
 CRELOOP       4 0000045C 00000001     I    4067  4135B
 CRENAMB       2 0000051A 00000001     H    4240 11197
 CRMSG         4 000004A0 00000001     I    4148  3485B  3766B  3827B
 DALICD        1 00000040 FFFFFFEA A   U    2727  8239
 DALINAM       8 00000008 FFFFFFEA     C    2726  2729
 DBCT          3 0000000D FFFFFFEA     R    2742  8409
 DELETE        2 0000196C 00000001     H   10517  3111B  6438B
 DELETED       4 00001992 00000001     I   10539 10525B
 DELET1        4 00001974 00000001     I   10523 10536B
 DENTRY        1 00000000 FFFFFFEA     J    2724  2745   8228U  8289   8371U
 DENTSIZ       1 00000010 FFFFFFEA A   U    2745  2754
 DFBN          3 0000000A FFFFFFEA     R    2741  8251   8289   8380   8427M
 DFBRES        2 00001642 00000001     H    9829 11330
 DFLG1         1 00000008 FFFFFFEA     X    2730  2740   2740   2744   2744   8239
 DIRB          1 00000000 FFFFFFE9     J    2750  2755   2778   8178U  8214U
 DIRBDENT     16 00000010 FFFFFFE9     C    2754  8217
 DIRBLEN       1 00000800 FFFFFFE9 A   U    2755  8216
 DIRBLINK      4 00000000 FFFFFFE9     A    2751  8182
 DNAME         8 00000000 FFFFFFEA     C    2725  8230
 DNEXT         4 00000010 FFFFFFEA     F    2743  8319
 DOSETFMT      2 0000209A 00000001     H   11099 11136B 11144B
 DTB           1 00000000 0000000A     T   10606 10606
1VGP      (VGP00) (09:47) (22MAR04) Ordinary Symbol and Literal Cross Reference                                             Page   89
 EDIT          2 00000E3C 00000001     H    7316 11267
 ERAS#MEM      1 000020D6 00000001     X   11170 10589
 ERASE         2 000000AA 00000001     H    2917  2896B
 ERASELIB      2 00000162 00000001     H    3156 11239  11241
 ERASEMEM      2 0000016E 00000001     H    3185  2922B
 ERASEOPT      1 000020C6 00000001     R   11166 10586
 ERROR         2 000018DE 00000001     H   10361  3615B  4160B  4169B  4178B  4183B  4188B  6486B  7277B
 EXIT          2 0000003E 00000001     H    2868  2864B
 FBADONE       4 000015BE 00000001     I    9651  9613B
 FBAILOOP      6 00001596 00000001     I    9630  9646B
 FBAL          2 000014B4 00000001     H    9385  2901B
 FBALSCKW      1 000022D0 00000001     R   11330 10618
 FBAOLOOP      4 00001560 00000001     I    9559  9647B
 FILES         4 00000014 00000001     I    2815  2813
 FILEXIT       2 0000180E 00000001     H   10161  2888B  4866B  5303B  5313B  8657B  8792B  9004B  9092B  9180B  9224B
                                                  9273B  9283B  9380B 10410B 10438B
 FOR           2 000016C8 00000001     H    9960  8579B
 FORACT        1 00000000 00000015     T   11160 11320
 FORMATS       1 000021F5 00000001     R   11258 11188  11232  11323
 FORMTTBL      1 000022C4 00000001     X   11323 10613
 FORPUB        1 00000000 00000016     T   11161 11312
 FORRET        4 00001734 00000001     I   10022 10010B
 FORTBL        1 00002295 00000001     X   11305 10609
 FORTBL1       1 00002299 00000001     R   11307 10610
 FORTBL4       1 000022A4 00000001     R   11312 10625
 FORUSG        6 00001716 00000001     I    9996  9994B
 FORUSR        4 00001708 00000001     I    9993  9989B
 FSUB#COM      1 00000000 00000012     T   10628 10628
 GET           2 00000580 00000001     H    4350  2897B
 GETCLR        2 000006B4 00000001     H    4824  4811B
 GETCOM        2 0000067C 00000001     H    4716  4592B  4602B  4686B  4693B  4707B
 GETDLAST      2 000008B2 00000001     H    5287  5271B
 GETDONE       2 0000089C 00000001     H    5258  4913B  4925B
 GETFMT        2 00001FC4 00000001     H   10762 10760
 GETFMT        1 00000000 00000006     T   10600 10600
 GETFMTE       2 0000203A 00000001     H   10939 10924B
 GETFMTEX      2 00002046 00000001     H   10964 10801B 10819B 10867B 10900B 10908B 10911B 10936B 10950B
 GETFMTLR      6 00002008 00000001     I   10899 10860B
 GETFMTN       2 00002004 00000001     H   10894 10880B
 GETFMTVE      6 00002020 00000001     I   10910 10837B
 GETLOOP       4 0000070E 00000001     I    4911  4835B  4904B  5250B
 GETLREC       2 00000634 00000001     H    4605  4531B
 GETSET        2 000005DE 00000001     H    4470  4414B  4432B
 GETSKIP       2 000006C6 00000001     H    4849  4902B
 GETTBL        1 00002125 00000001     R   11200 10599
 GETWRITE      2 00000726 00000001     H    4935  4907B
 GG            2 00000013 FFFFFFEC     C    2184  8761   8784   8786   9479   9943
 GOSUB         2 0000195C 00000001     H   10505  2858B  2920B  2925B  2949B  2953B  2990B  3002B  3132B  3147B  3207B
                                                  3211B  3215B  3235B  3253B  3260B  3283B  3293B  3321B  3361B  3394B
                                                  3403B  3422B  3445B  3483B  3580B  3584B  3606B  3613B  3630B  3640B
                                                  3692B  3764B  3788B  3825B  3835B  3869B  3873B  3897B  3901B  3905B
                                                  3923B  3941B  4014B  4034B  4076B  4110B  4129B  4148B  4164B  4173B
                                                  4197B  4311B  4315B  4330B  4360B  4370B  4405B  4411B  4443B  4473B
                                                  4477B  4495B  4513B  4600B  4756B  4819B  4864B  4911B  5150B  5248B
                                                  5331B  5341B  5369B  5374B  5536B  5753B  5880B  5910B  5916B  5933B
                                                  5937B  6061B  6065B  6204B  6223B  6268B  6273B  6307B  6331B  6393B
                                                  6493B  6681B  6721B  6726B  6760B  6805B  6809B  6892B  6914B  6934B
                                                  6982B  7008B  7037B  7067B  7090B  7098B  7270B  7809B  7988B  8017B
                                                  8022B  8077B  8102B  8106B  8128B  8140B  8155B  8168B  8445B  8463B
1VGP      (VGP00) (09:47) (22MAR04) Ordinary Symbol and Literal Cross Reference                                             Page   90
                                                  8500B  8534B  8556B  8594B  8598B  8655B  8661B  8790B  8923B  8946B
                                                  8957B  8980B  8997B  9002B  9012B  9036B  9048B  9072B  9085B  9090B
                                                  9100B  9124B  9133B  9157B  9173B  9178B  9185B  9208B  9218B  9222B
                                                  9232B  9255B  9259B  9263B  9271B  9315B  9370B  9374B  9378B  9518B
                                                  9559B  9633B  9637B  9642B  9651B  9812B 10019B 10124B 10164B 10344B
                                                 10369B 10376B 10447B 10523B 10529B 10534B
 GOWRWDS       4 00000882 00000001     I    5248  5031B  5167B  5183B
 GPW       12288 00000000 FFFFFFEC     X    2713  2800U
 GPWAACCT      6 0000000D FFFFFFEC     C    2182  8670M  8759
 GPWABKSZ      2 0000015C FFFFFFEC     R    2700  3995M  3998
 GPWACCT       6 00000007 FFFFFFEC     C    2181  8651   8670   8759   8761   8784   8786   9443M  9478M  9479M  9480M
                                                  9494   9495   9765   9772   9809   9964M  9997  10121
 GPWAFFL       1 0000012C FFFFFFEC     X    2686  3405   3412M  3988M  6382
 GPWAFID       1 0000012D FFFFFFEC     X    2687  3975M
 GPWAFILE    158 0000012C FFFFFFEC     X    2685  2703   3400M
 GPWAFN       44 00000164 FFFFFFEC     C    2702  3859M  3992   3994M  9987
 GPWAFNL       1 0000012E FFFFFFEC     X    2688  3858M  3991   3993M
 GPWALIAS     16 000000B4 FFFFFFEC         2314  3227   3246M  3593M  3603M  4327M
 GPWBLK        2 0000001A FFFFFFEC     R    2192  2193   7882M
 GPWBLKSZ      2 000000BC FFFFFFEC     R    2358  3995   3998   5835
 GPWBN         4 000000C0 FFFFFFEC     A    2359  4036   4067M  4080   4083M  5467M  5467   5490   6335M  6445M  6445
                                                  7985M  8012   8014M
 GPWBUFA       4 00000038 FFFFFFEC     A    2209  2211   6978   7005   7010   7032   9583   9619   9628
 GPWDATAD      4 0000003C FFFFFFEC     A    2210  4867   4932
 GPWDELTA      4 000001D0 FFFFFFEC     F    2705  5215   7831M
 GPWDIRAP      4 00000040 FFFFFFEC     A    2212  8170   8206
 GPWFAACC      2 00000003 FFFFFFEC         2061  8676M  8750   8774
 GPWFACC       4 00000003 FFFFFFEC         2052  8609   8669M  8713   8713   8714   8732   9490M
 GPWFALTF     64 00000000 FFFFFFEC         1872  4005M  4031M  4073M  4090M  4145M
 GPWFANW      32 00000001 FFFFFFEC         1907  5930M
 GPWFAPP      64 00000003 FFFFFFEC         1989  3681   3966   4046   5521   6007   6349   6349   6408   6408   6631
                                                  6796   6796   6824   6824   6873   7113   7113   7114   7150   7199
                                                  7291   7730M
 GPWFATT     128 0000008C FFFFFFEC         2241  3140M  3982M
 GPWFCB      158 0000008C FFFFFFEC     X    2680  2685   2703   3400   3866M  3866
 GPWFCLR     128 00000003 FFFFFFEC         1980  4428   4428   4429   4458   4458   4459
 GPWFCON      32 00000003 FFFFFFEC         2007  3072   3175M
 GPWFCREF     32 00000003 FFFFFFEC         2016  3651M  6025   6370
 GPWFELIB     16 00000003 FFFFFFEC         2034  2979   3050   3160M  3745   3800   6040
 GPWFERS     128 00000003 FFFFFFEC         1971  3013   6055M  6076   6239   6284   6349   6349   6350   6408   6408
                                                  6409   6428   6692   6737   6796   6796   6797   6824   6824   6825
                                                  6847   7113   7113   7305M  7716
 GPWFFFN       2 0000008C FFFFFFEC         2271  3419M  3458
 GPWFFMT      16 0000008C FFFFFFEC         2256  4011M  4024M 10816  11103M
 GPWFFN        4 00000054 FFFFFFEC     C    2219  3990
 GPWFFRST     64 00000002 FFFFFFEC         1942  9555M  9570   9582M
 GPWFGRP       2 000000C8 FFFFFFEC     C    2362  9495M
 GPWFHYBR      8 00000002 FFFFFFEC         1957  3101   5974
 GPWFID        1 0000008D FFFFFFEC     X    2275  3975   8627
 GPWFILE       4 0000008C FFFFFFEC     F    2230  2680   2680
 GPWFILN      44 000000C4 FFFFFFEC     C    2361  2362   2363   2364   2365   3476M  3859   3992M  9491M  9492   9492M
                                                  9492   9493M  9630M
 GPWFMRG      64 00000003 FFFFFFEC         1998  4428   4428   4458   4458   4565   4808   5299   5299   5300
 GPWFN        44 0000005F FFFFFFEC     C    2224  3990   3992
 GPWFNEW      32 0000008C FFFFFFEC         2251  5950   6192   6320   7055   7132
 GPWFNIXR     16 00000002 FFFFFFEC         1952  3089   5962
 GPWFNL        1 0000008E FFFFFFEC     X    2276  3858   3989   3991M  8583   9556M
 GPWFNSF      16 00000001 FFFFFFEC         1912  8591M  8994M  9082M  9170M  9215M
 GPWFNSKP      8 00000001 FFFFFFEC         1917  8000   8458M
1VGP      (VGP00) (09:47) (22MAR04) Ordinary Symbol and Literal Cross Reference                                             Page   91
 GPWFPUB       8 00000003 FFFFFFEC         2043  8713   8713   8876  10007
 GPWFQIET      4 00000001 FFFFFFEC         1922 10422
 GPWFRNUM      1 00000003 FFFFFFEC         2070  4664   5180   5299   5299   7804M
 GPWFRST      32 00000002 FFFFFFEC         1947  9801   9833M
 GPWFTRN     128 00000001 FFFFFFEC         1897  5268
 GPWFUSR       3 000000CB FFFFFFEC     C    2363  9494M
 GPWFVOSF      8 0000008C FFFFFFEC         2261  3353   3470   3724   3780   5402   5865  10185
 GPWFWDS       4 0000001C FFFFFFEC     A    2194  2200   5886M
 GPWGFL        1 00000000 FFFFFFEC     R    1863  1867   1872   1877   1882   1887
 GPWGPFBK      4 00000006 FFFFFFEC         2166  4381M  7851   7888M
 GPWGPFE      16 00000006 FFFFFFEC         2156  5448   5448   5449   5449   5607   6476   6476   6477   6548   6951
                                                  7352M  7385   7385   7495   7495   7496   7496   7498   7498   7501
                                                  7540   7540   7542   7542   7645   7645   7647   7647   7755   7755
                                                  7757   7757  10796  10796  10797  10797  10961M
 GPWGPFHX      2 00000006 FFFFFFEC         2171  4546   4617   4969   5028   5720   5770   5845   5897   7333   7333
                                                  7334   7334   7337   7337   7439   7496   7496   7497   7497   7500
                                                  7500   7557M  7646   7646   7647   7647   7756   7756   7757   7757
                                                  7789   7789   7790
 GPWGPFIN    128 00000006 FFFFFFEC         2141  4704   5820   7772M 10891M 11066
 GPWGPFL       1 00000006 FFFFFFEC     R    2137  2141   2146   2151   2156   2161   2166   2171   2176
 GPWGPFLR     32 00000006 FFFFFFEC         2151  4528   4881   4943   5447   5447   5448   5448   5450   5572   5702
                                                  6476   6476   6513   7332   7332   7334   7334   7336   7336   7404
                                                  7428M  7495   7495   7497   7497   7499   7499   7567   7673   7687M
                                                  7789   7789  10314  10795  10795  10797  10797  10907M 11030
 GPWGPFN       1 00000006 FFFFFFEC         2176  4683   5799   7335   7335   7336   7336   7337   7337   7457   7498
                                                  7498   7499   7499   7500   7500   7541   7541   7542   7542   7663M
                                                 10898M 11048
 GPWGPFSK      8 00000006 FFFFFFEC         2161  4832   7605   7619M
 GPWGPFV      64 00000006 FFFFFFEC         2146  4589   5447   5447   5449   5449   5642   5742   6583   7332   7332
                                                  7333   7333   7335   7335   7338   7385   7385   7386   7515M  7540
                                                  7540   7541   7541   7543   7645   7645   7646   7646   7648   7755
                                                  7755   7756   7756   7758  10289  10795  10795  10796  10796  10798
                                                 10935M 11121
 GPWGRP        2 00000058 FFFFFFEC     C    2220  9964   9965M  9990   9993   9995M  9996   9997M
 GPWHXBUF   2048 00000800 FFFFFFEC     X    2711  5061   5089   5134   6986  10631
 GPWKWFL       1 00000003 FFFFFFEC     R    1963  1971   1980   1989   1998   2007   2016   2025   2034   2043   2052
                                                  2061   2070   2079
 GPWLFLAG      1 000000B4 FFFFFFEC     R    2295  2299   2304   2309   2314   2319   2324   2329   2334
 GPWLINCT      4 00000030 FFFFFFEC     A    2203  5189   5227M
 GPWLMF1       1 000000A0 FFFFFFEC     X    2283  2285   2285   2289   2289
 GPWLMN        8 00000090 FFFFFFEC     C    2281  2288   2288   4241   4262M  4275M
 GPWLMNL       1 0000008F FFFFFFEC     R    2280  3335   3706   3849   4211   4745   4786   6120   6172   6670   7256
                                                 11005
 GPWLMN2       8 00000098 FFFFFFEC     C    2282  3531M  3544M  4241M
 GPWLNEWD     32 000000B4 FFFFFFEC         2309  6216M
 GPWLREC       2 00000034 FFFFFFEC     R    2205  4627   4646M  4646   4692   4846   4959   5042   5160   5780   5808
                                                  7413   7429M  7585   7688M  7696  10901M 11096
 GPWLREP     128 000000B4 FFFFFFEC         2299  6250M  6298M  6703M  6751M
 GPWLWDS       4 00000020 FFFFFFEC     A    2195  2201
 GPWOPT        2 00000018 FFFFFFEC     R    2191  4717M  5834M
 GPWOSFED      4 0000008C FFFFFFEC         2266  6963M
 GPWOSFOK      2 00000001 FFFFFFEC         1927  3273M
 GPWPERM       1 00000005 FFFFFFEC     X    2128  2129   2130   2131   2132   2133   8581
 GPWPFFL       1 0000008C FFFFFFEC     R    2237  2241   2246   2251   2256   2261   2266   2271   3405M
 GPWPRFL       1 00000001 FFFFFFEC     R    1893  1897   1902   1907   1912   1917   1922   1927
 GPWPRFL2      1 00000002 FFFFFFEC     R    1933  1937   1942   1947   1952   1957
 GPWPRMAP      2 00000005 FFFFFFEC         2130  8815M  8907   8907   8908M
 GPWPRMEX      8 00000005 FFFFFFEC         2133  8581   8890M
 GPWPRMRD      1 00000005 FFFFFFEC         2129  8800M  8907   8907
1VGP      (VGP00) (09:47) (22MAR04) Ordinary Symbol and Literal Cross Reference                                             Page   92
 GPWPRMWR      7 00000005 FFFFFFEC         2132  8830M  8849
 GPWR         12 0000000C 00000001 A   #    1136  2800U
 GPWRBL        2 00000036 FFFFFFEC     R    2206  2207   5877M
 GPWSFER     128 00000004 FFFFFFEC         2089  6444M  7168
 GPWSFFL       1 00000004 FFFFFFEC     R    2085  2089   2094   2099   2104   2109   2114   2119   2124
 GPWSKIP       4 0000002C FFFFFFEC     A    2202  4845   7620M
 GPWSTART      8 00000000 FFFFFFEC     D    1860  2706   2706   2709   2713   2713
 GPWSUSER      3 00000013 FFFFFFEC     C    2186  2188   2188
 GPWTST        1 000001D4 FFFFFFEC     U    2708  2710
 GPWUIDA      32 000000B8 FFFFFFEC         2344  6144   6144   6145   6145   6147
 GPWUIFE       1 000000B8 FFFFFFEC         2350  5586   5586   5587   5656   5656   5657   6527   6527   6528   6597
                                                  6597   6598  10947  11143M
 GPWUIFI       2 000000B8 FFFFFFEC         2349 10856  10856  10877  11080M
 GPWUIFLR      4 000000B8 FFFFFFEC         2347  5621   5621   5622   5656   5656   6562   6562   6563   6597   6597
                                                 10834  11095M
 GPWUIFMT      1 000000B8 FFFFFFEC     R    2341  2342   2343   2344   2345   2346   2347   2348   2349   2350   2351
                                                  2352
 GPWUIFN       1 000000B8 FFFFFFEC         2348 10856  10856  10857  11088M
 GPWUIFV       2 000000B8 FFFFFFEC         2351  5586   5586   5621   5621   6527   6527   6562   6562  10921  11135M
 GPWUILDF     64 000000B8 FFFFFFEC         2343  5551   6099   6649
 GPWUILIB    128 000000B8 FFFFFFEC         2342  2964   3757M  3954   4727   5502   5992   7082   7235   8117  11016M
 GPWUILRC      2 000000BA FFFFFFEC     R    2354 10866  10899  10901  10910M 10910  11096M
 GPWUINFO      4 000000B8 FFFFFFEC     F    2340  4016M 10992M 10992
 GPWUIUND     16 000000B8 FFFFFFEC         2345  6144   6144   6146   6146
 GPWUIVBS      8 000000B8 FFFFFFEC         2346  6145   6145   6146   6146
 GPWUSER       3 0000005B FFFFFFEC     C    2222  9988   9992M
 GPWWBL        2 0000001A FFFFFFEC     U    2193  4905M  4931M  4954   4987   4990M  5047   5048M  5092   5159M  5191
 GPWWBLK       2 00000036 FFFFFFEC     U    2207  4980M  4984M  5044M  5166M
 GSLRECL       2 000006F4 00000001     I    4900  4884B
 HEX           2 00000EB0 00000001     H    7526 11230
 HEXCHECK      4 00000EC6 00000001     I    7585  7442B
 HEXNEVEN      4 00000FEE 00000001     I    7942  4630B  5783B  7593B
 HEXTR         1 0000079C 00000001     U    5254  5096   5122
 HIBAL         1 00000000 FFFFFFFF     J     692   708    721    734    747    760    773    786    799    812    825
                                                   838    851    864    877    890    903
 IGNORE        2 00000E3A 00000001     I    7312 11209  11211  11213  11215
 INCFORM       4 00000FD6 00000001     I    7927  5590B  5625B  5660B  6531B  6566B  6601B
 INCFRM2       4 00000FDE 00000001     I    7933  6150B
 INTEGER       2 00000F22 00000001     H    7741 11271
 INVALMEM      4 000018CE 00000001     I   10355  3525B  4256B
 KWFNOPT       1 00000000 00000014     T   11159 11234  11248  11276  11305  11314  11325
 LASTTR        2 00000808 00000001     I    5098  5095B
 LIBOPTS       1 000021C4 00000001     R   11239 11168  11190
 LRECL         4 00000E5A 00000001     I    7367 11264
 LRECL1        2 00000E6A 00000001     H    7373  7362B  7365B
 MASKTBL       1 0000223F 00000001     X   11276 10612
 MEMNFND       2 000018E2 00000001     H   10366  3217B  3586B  4317B  4758B
 MEMNTSPC      4 0000174E 00000001     I   10041  4214B  4748B  6123B  6673B
 MISSING       4 000017AE 00000001     I   10089  3508B  4238B  7367B  7595B  8549B  8577B  8696B  8717B  9991B 10136B
 MOVBLOOP      2 0000102C 00000001     H    7984  8057B
 MOVEBLOK      2 0000101E 00000001     H    7976  8152B  8460B
 MOVEBOK       2 0000104A 00000001     I    8011  7990B
 MOVEBUMP      4 00001064 00000001     I    8024  8010B
 MOVEEOF       2 00001076 00000001     H    8064  8003B
 NIXHEX        4 00000FA6 00000001     I    7903  4549B  5723B
 NIXNIXR       4 00000FB6 00000001     I    7912  3104B  5977B
 NIXRENUM      4 00000FC6 00000001     I    7921  4667B
 NOACCLP       4 000004D0 00000001     I    4173  3933B  4505B
 NOACTION      4 000018FA 00000001     I   10381  3016B  4462B  6079B  6287B  6412B  6740B  6828B
1VGP      (VGP00) (09:47) (22MAR04) Ordinary Symbol and Literal Cross Reference                                             Page   93
 NOEXTEND      4 0000173E 00000001     I   10033  8582B
 NOLIBAPP      4 00000E22 00000001     I    7275  6010B  6634B
 NOPUBPER      4 0000179E 00000001     I   10081  8777B
 NORDPRIV      4 0000178E 00000001     I   10073  3915B  4487B
 NOSHRINK      4 0000177E 00000001     I   10065  8191B
 NOTLIB        2 000018BC 00000001     H   10341  3053B  4789B
 NOTTHERE      2 00000C90 00000001     H    6901  6495B
 NUMB          2 00000EE8 00000001     H    7631 11269
 NUMBINT       2 00000EF0 00000001     H    7659  7773B
 NUMCHECK      6 00000F08 00000001     I    7696  7475B  7676B
 N2EXISTS      2 000002C4 00000001     H    3597  3587B  4318B
 OSFBLKSZ      2 00000104 FFFFFFEC     H    2549  5872
 OSFDSORG      1 000000FF FFFFFFEC     R    2429  2437   2446   2455   2465   6497M
 OSFFDISP      1 000000FE FFFFFFEC     R    2378  2386   2395   2404   2413   2423
 OSFFLAG       1 00000107 FFFFFFEC     R    2622  2630   2639   2648   2657   2667
 OSFMOD      128 000000FE FFFFFFEC         2395  6885M
 OSFNEW      192 000000FE FFFFFFEC         2386  3822M  6911M
 OSFOLD       64 000000FE FFFFFFEC         2404  6859M
 OSFPBDS       4 000000C4 FFFFFFEC     F    2371  2678   2678
 OSFPO         2 000000FF FFFFFFEC         2455  3812M  6616   6925
 OSFPS        64 000000FF FFFFFFEC         2437  6777
 OSFRECFM      1 00000100 FFFFFFEC     R    2471  2479   2488   2497   2506   2515   2524   2533   2543
 OSFSPTYP      1 00000106 FFFFFFEC     R    2553  2561   2570   2579   2588   2597   2606   2616
 OSFUPD        2 00000107 FFFFFFEC         2657  3577M  4308M
 OSFVOL        6 000000F8 FFFFFFEC     C    2374 10203  10210  10461  10468
 OSNOTFND      2 00001926 00000001     H   10444  3371B
 OSOPTS        1 00000000 00000017     T   11162 11175
 PCATEND       4 00000004 FFFFFFEB     A    2718  9360M  9360
 PCATPTR       4 00000000 FFFFFFEB     A    2717  9353M  9353
 PERMAPP       2 000012CC 00000001     H    8811 11289
 PERMEXT       2 000012E2 00000001     H    8868 11316
 PERMNONE      2 000012D8 00000001     H    8841 11283
 PERMOPT       1 0000224B 00000001     R   11283 11278  11318
 PERMRD        2 000012C6 00000001     H    8796 11285
 PERMWR        2 000012D2 00000001     H    8826 11287
 PHCLOOP       4 00000CE0 00000001     I    6987  7002B
 PHEND         2 00000D58 00000001     H    7031  6984B
 PHERR         4 00000D6C 00000001     I    7041  6995B  7021B
 PHFRAG        2 00000D2E 00000001     I    7014  6989B
 PHNEXT        4 00000D12 00000001     I    7003  7015B
 PHOUT         4 00000CFA 00000001     I    6997  7000B  7028B
 PHREAD        4 00000CD0 00000001     I    6982  7003B  7012B
 PHSTART       4 00000CDC 00000001     I    6986  6979B
 PPUTMEM       2 00000B24 00000001     H    6304  6270B
 PRGCAT        1 00000000 FFFFFFEB     J    2716  9345U
 PRINT         4 00000E4A 00000001     I    7361 11260
 PRIVTEST      1 00000000 0000000C     T   10614 10614
 PRIVTNOM      1 00000000 0000000D     T   10615 10615
 PUT           2 000008C4 00000001     H    5318  2898B
 PUTDAPP       4 00000DC8 00000001     I    7183  7153B
 PUTDNER       4 00000DF0 00000001     I    7214  7202B
 PUTDNEW       4 00000DD4 00000001     I    7188  7135B
 PUTDONE       2 00000D74 00000001     H    7045  5912B  7034B  7039B
 PUTEMSG       2 00000DF8 00000001     H    7218  7211B
 PUTEND        4 00000DF8 00000001     I    7221  7117B  7171B
 PUTESEND      2 00000E00 00000001     H    7225  4335B  7180B  7185B
 PUTHEX        2 00000CC4 00000001     H    6976  5900B
 PUTLOAD       4 0000100E 00000001     I    7960  5554B  6102B  6652B
 PUTLOOP       4 00000A2C 00000001     I    5910  5918B
1VGP      (VGP00) (09:47) (22MAR04) Ordinary Symbol and Literal Cross Reference                                             Page   94
 PUTLREC       2 000009AE 00000001     H    5758  5705B
 PUTMEMS       2 00000C40 00000001     H    6757  6723B
 PUTOUT        4 00000A38 00000001     I    5916  5907B
 PUTRANGE      2 000009E4 00000001     H    5832  5745B  5755B  5802B  5809B  5823B
 PUTTBL        1 0000217F 00000001     R   11220 10603
 PUT1          2 00000930 00000001     H    5513  5470B
 PUT2          2 00000948 00000001     H    5541  5493B  5505B  5524B
 PUT3          2 0000098A 00000001     H    5692  5538B
 QIETEXIT      2 00001914 00000001     H   10412  3262B  7272B 10234B
 QR            4 00000004 00000001 A   #    1045  4845M  4902M  5061M  5064M  5093M  5098M  5113M  5115   5160M  5165
                                                  5189M  5215M  5217   5227   6977M  7003M  7011M  7805M  7832   7875M
                                                  7889   9284M  9294U  9300M  9329   9345U  9549M  9549   9639M  9720
                                                  9783   9807   9859M  9890   9917
 QUIET         1 00000000 00000013     T   11158 11228  11246  11253
 QUIETBL       1 000021E8 00000001     R   11253 10593
 RAR           9 00000009 00000001 A   #    1110  2858M  2886M  2887M  2887B  2920M  2925M  2949M  2953M  2987M  2990M
                                                  2995M  2996M  2996B  2999M  3002M  3111M  3114M  3132M  3147M  3151M
                                                  3207M  3211M  3215M  3235M  3239M  3253M  3257M  3260M  3283M  3293M
                                                  3321M  3361M  3394M  3403M  3422M  3445M  3483M  3580M  3584M  3606M
                                                  3610M  3613M  3630M  3640M  3692M  3731M  3734M  3735M  3735B  3764M
                                                  3788M  3825M  3835M  3869M  3873M  3897M  3901M  3905M  3923M  3941M
                                                  3997M  4014M  4034M  4076M  4110M  4129M  4148M  4152M  4159M  4164M
                                                  4168M  4173M  4177M  4182M  4187M  4197M  4311M  4315M  4321M  4330M
                                                  4334M  4360M  4370M  4405M  4411M  4440M  4443M  4473M  4477M  4495M
                                                  4513M  4517M  4518M  4518B  4600M  4756M  4819M  4864M  4911M  5051M
                                                  5150M  5248M  5279M  5283M  5284M  5284B  5311M  5312M  5312B  5331M
                                                  5341M  5369M  5374M  5410M  5428M  5532M  5533M  5533B  5536M  5685M
                                                  5686M  5686B  5753M  5880M  5910M  5916M  5923   5933M  5937M  6058M
                                                  6061M  6065M  6204M  6219M  6220M  6220B  6223M  6268M  6273M  6307M
                                                  6331M  6393M  6438M  6448M  6449B  6461   6485M  6493M  6500M  6501M
                                                  6501B  6681M  6721M  6726M  6760M  6805M  6809M  6892M  6904M  6905M
                                                  6905B  6914M  6934M  6970M  6971B  6982M  7008M  7037M  7063M  7064M
                                                  7064B  7067M  7090M  7098M  7179M  7184M  7189M  7210M  7215M  7222M
                                                  7267M  7270M  7276M  7809M  7905M  7914M  7923M  7928M  7935M  7944M
                                                  7953M  7962M  7988M  8017M  8022M  8069B  8077M  8102M  8106M  8128M
                                                  8140M  8152M  8155M  8159M  8168M  8445M  8460M  8463M  8479M  8480M
                                                  8480B  8500M  8534M  8547M  8556M  8579M  8594M  8598M  8655M  8661M
                                                  8790M  8923M  8946M  8957M  8980M  8997M  9002M  9012M  9036M  9048M
                                                  9072M  9085M  9090M  9100M  9124M  9133M  9157M  9173M  9178M  9185M
                                                  9208M  9218M  9222M  9232M  9255M  9259M  9263M  9267M  9268M  9268B
                                                  9271M  9281M  9282M  9282B  9315M  9370M  9374M  9378M  9388M  9389M
                                                  9389B  9518M  9536M  9540M  9541M  9541B  9559M  9633M  9637M  9642M
                                                  9651M  9705M  9706M  9706B  9709M  9751M  9752M  9752B  9755M  9773M
                                                  9791M  9812M  9816M  9881B  9908B  9935B  9954B  9962  10019M 10023M
                                                 10024B 10035M 10043M 10051M 10059M 10067M 10075M 10083M 10091M 10111M
                                                 10118M 10124M 10132M 10151M 10158M 10164M 10172M 10193M 10211M 10229M
                                                 10255M 10258M 10274M 10279M 10300M 10304M 10325M 10330M 10337M 10344M
                                                 10348M 10357M 10369M 10373M 10376M 10382M 10402M 10408M 10409M 10409B
                                                 10447M 10451M 10469M 10476  10493M 10494M 10494B 10497M 10498B 10507
                                                 10509  10509  10509  10519  10523M 10529M 10534M 10540M 10541B 10548
                                                 10571M 10572M 10572B 10575M 10576B 10764  10765  10765  10765  10967M
                                                 10968B 10976  10977  10977  10977  11108M 11109B 11150  11150  11150
 RENAMCMD      1 000020DA 00000001     R   11173 10590
 RENAME        2 000001C4 00000001     H    3267  2899B
 RENAMEMB      2 00000268 00000001     H    3491  3338B
 RENEW         4 000001EA 00000001     I    3321 11173
 RENUMBER      2 00000F32 00000001     H    7777 11217
 REQABORT      4 00001814 00000001     I   10170  3790B  8489B
 R0            0 00000000 FFFFFFFF A   #     700  2853   2870M  3522   3532   4253   4263   4959M  4978M  4987M  4989M
1VGP      (VGP00) (09:47) (22MAR04) Ordinary Symbol and Literal Cross Reference                                             Page   95
                                                  4990   5042M  5043   5062M  5064   5191M  5192M  5208   5237   6987M
                                                  6988   6994M  6996M  7000M  7014M  7020M  7026M  7027M  7041M  7862
                                                  7868   7871M  7873M  7904M  7913M  7922M  7934M  7943M  7952M  7961M
                                                  8216M  8329   9312M  9401M  9425   9772M  9808M  9858   9939   9949
                                                 10016M 10034M 10042M 10050M 10058M 10066M 10074M 10082M 10090M 10096M
                                                 10117M 10131M 10135M 10157M 10171M 10210M 10273M 10356M 10468M 10554M
 R1            1 00000001 FFFFFFFF A   #     713  2928M  3187M  3300M  3425M  3553M  3653M  3876M  3989M  3993   4016
                                                  4081M  4082M  4083   4220M  4284M  4383M  4413M  4844M  4844   4856M
                                                  4856   4900M  4903M  4905   4906M  4922M  4922   4931   4932M  4978
                                                  4991   5049   5053M  5065M  5068   5089M  5097M  5098   5134M  5190
                                                  5192   5348M  5384M  5384   5835M  5851M  5872M  5877   5883   6334M
                                                  6335   6985   6986M  7022M  7023M  7024M  7027   7819M  7819   7826M
                                                  7831   7863   7874M  7903M  7912M  7921M  7933M  7942M  7951M  7960M
                                                  7980   8013   8065M  8080M  8134   8150M  8170M  8178U  8182M  8183M
                                                  8183   8205M  8205   8276M  8276   8283M  8289   8306M  8355M  8355
                                                  8371U  8451M  8512M  8512   8524   8531   8559M  8678M  8926M  8960M
                                                  9015M  9051M  9103M  9136M  9188M  9235M  9311M  9402M  9497M  9610
                                                  9626M  9627M  9629   9765M  9809M  9859   9861M  9967M  9987M 10033M
                                                 10041M 10049M 10057M 10065M 10073M 10081M 10089M 10095M 10116M 10121M
                                                 10130M 10156M 10170M 10203M 10267M 10355M 10461M 10555M
 R11          11 0000000B FFFFFFFF A   #     843  7978   7979   7979   7979   8011M  8019   8068M 10635  10635  10635
 R14          14 0000000E FFFFFFFF A   #     882  4958M  4958   4979M  4981M  4986   4988M  4991M  5054M  5058   5067
                                                  5090M  5094   6997M  6998   7805   7832M  7875   7889M  7981   8149M
                                                  8288M  8289M  8299   8380M  8391   8420   8531M  9528M  9528   9639
                                                  9653   9662M  9662  10526M
 R15          15 0000000F FFFFFFFF A   #     895  2854   2869M  4079M  4102   4954M  4980   4983M  4984   4985M  4986M
                                                  4989   4993M  4997M  4999   5055M  5056M  5057   5058M  5060M  5067M
                                                  5068M  5069M  5072M  5074   5091M  5092M  5093   5094M  5885M  5886
                                                  5906M  5913M  7004M  7005M  7025M  7033M  7806   7876   7882   7982
                                                  8013M  8019M  8137M  8148M  8148   8251M  8262   8299   8373M  8436M
                                                  8436   8452M  8530M  8999M  9087M  9175M  9880M  9907M  9934M  9953M
                                                 10531M
 R2            2 00000002 FFFFFFFF A   #     726  7978   7979   7979   7979   7980M  8014   8024M  8065   8068M  8134M
                                                  8136M  8137   8143   8149   8206M  8214U  8216   8217M  8228U  8283
                                                  8306   8319M  8329   8409M  8452   8469  10635  10635  10635
 R3            3 00000003 FFFFFFFF A   #     739  7981M  7985   8009M  8009   8011   8012M  8133M  8133   8143M  8150
 R4            4 00000004 FFFFFFFF A   #     752  7982M  8033M  8033   8041M  8054M  8054   8199M  8199   8262   8373
                                                  8391   8398M  8420   8427   8451   8469M  8524   8530
 SCAN          1 00000000 00000003     T   10587 10587
 SCBCFL        1 00000261 FFFFFFEE     R    1347  1351   1356   1361   1366   1371
 SCBFL         1 00000262 FFFFFFEE     R    1377  1381   1386   1391   1396   1401
 SCBTFL        1 00000263 FFFFFFEE     R    1407  1411   1416   1421   1426   1431
 SCBWFL        1 00000260 FFFFFFEE     R    1337  1341
 SCBXA        64 00000265 FFFFFFEE         1453  1487   1487   1489   1489   1491   1491
 SCBXFL        1 00000265 FFFFFFEE     R    1444  1448   1453   1458   1463   1468   1473   1493
 SCBXP        16 00000265 FFFFFFEE         1463  1490   1490   1491   1491   1492   1492
 SCBXT       128 00000265 FFFFFFEE         1448  1487   1487   1488   1488   1490   1490
 SCBXW        32 00000265 FFFFFFEE         1458  1488   1488   1489   1489   1492   1492
 SCINIT        1 00000000 00000011     T   10624 10624
 SCP         660 00000000 FFFFFFEE     J    1517  9294U
 SCPACCT       6 000001AA FFFFFFEE     C    1226  1227   1228
 SCPCWASZ      1 00000010 FFFFFFEE A   N    1315  1316
 SCPFL         1 00000200 FFFFFFEE     R    1261  1265   1270   1275   1280   1285   1290   1295   1300
 SCPPAN        2 000001A8 FFFFFFEE     H    1217  1218
 SCPPCAT       4 000001BC FFFFFFEE     A    1238  9300
 SCRET         2 000017F4 00000001     I   10135  2946B  3318B  3571B  3671B  3894B  4302B  4401B  5366B  8098B  9033B
                                                  9069B  9121B  9154B  9424B  9515B  9879B  9985B
 SCTELL        1 00000000 00000010     T   10622 10622
 SEG           4 00001944 00000001     I   10476  7905B  7914B  7923B  7935B  7944B  7953B  7962B  9773B 10035B 10043B
1VGP      (VGP00) (09:47) (22MAR04) Ordinary Symbol and Literal Cross Reference                                             Page   96
                                                 10051B 10059B 10067B 10075B 10083B 10091B 10111B 10118B 10132B 10151B
                                                 10158B 10172B 10211B 10255B 10274B 10357B 10402B 10469B
 SETCLP        2 0000134A 00000001     H    9009  2902B
 SETCLPCM      2 00001390 00000001     H    9078  9042B
 SETFILEM      4 00001402 00000001     I    9185  2903B
 SETFMT        2 00002050 00000001     H   10974 10972
 SETFMT        1 00000000 00000005     T   10595 10595
 SETFMTE       2 000020B8 00000001     H   11139 11124B
 SETFMTLR      2 00002090 00000001     H   11091 11051B 11081B
 SETFMTN       2 0000208C 00000001     H   11084 11069B
 SETFMTVE      2 000020A8 00000001     H   11113 11033B
 SETFORMA      2 00001430 00000001     H    9229  2904B
 SETLREC       2 00000E84 00000001     H    7424  7407B
 SETNOCLP      2 0000136E 00000001     H    9045  2905B
 SETNOSHA      2 00001318 00000001     H    8954  2906B
 SETNOSPI      2 000013CC 00000001     H    9130  2907B
 SETPERAC      2 0000126C 00000001     H    8699  8584B
 SETPERFL      4 000011DA 00000001     I    8556  8550B
 SETPERMI      2 000011C2 00000001     H    8545  2908B
 SETPRACC      4 00001246 00000001     I    8661  8551B
 SETPRACF      4 0000125A 00000001     I    8678  8552B
 SETPRAOK      4 000012BC 00000001     I    8790  8760B  8763B  8783B  8785B
 SETPRCKA      2 0000129C 00000001     H    8766  8735B
 SETPRCKG      6 000012A8 00000001     I    8784  8753B
 SETPRFOK      4 0000123C 00000001     I    8655  8612B
 SETPRFOR      4 000011F2 00000001     I    8579 11307
 SETPROGR      2 00001466 00000001     H    9278  2909B
 SETSHARE      2 000012F6 00000001     H    8920  2910B
 SETSHRCM      2 00001334 00000001     H    8988  8949B
 SETSPICM      2 000013EC 00000001     H    9166  9127B
 SETSPIFI      2 000013A6 00000001     H    9097  2911B
 SETUPRTN      2 00000062 00000001     H    2891  2860B
 SHOWLAST      1 00000000 00000008     T   10602 10602
 SHREND        4 000010D8 00000001     I    8155  8540B
 SHRINK        2 00001082 00000001     H    8074  2900B
 SHRLFIN       4 000011A2 00000001     I    8500  8358B
 SHRLIB        2 000010EA 00000001     H    8165  8120B
 SHRL2         2 000010CE 00000001     H    8146  8135B
 SHRSCN        2 00001100 00000001     H    8201  8495B
 SHRSCNL       4 0000110E 00000001     I    8230  8332B
 SHRSCNM       4 00001142 00000001     I    8319  8231B
 SHRSENLP      4 000010BC 00000001     I    8136  8142B
 SKIP          4 00000ED0 00000001     I    7595 11204
 SR            2 00000002 00000001 A   #    1019  2853M  2869   3532M  3535M  3537   4066M  4066   4067   4080M  4081
                                                  4263M  4266M  4268   4555M  4575M  4575   4673M  4694M  4713M  4717
                                                  4846M  4895M  4897   4899M  4900   4901   5041M  5041   5043M  5045M
                                                  5045   5046M  5048   5049M  5056   5135   5157   5164M  5164   5165M
                                                  5196M  5196   5218M  5219   5221   5732M  5732   5789M  5810M  5829M
                                                  5833M  5834   6978M  6999M  7004   7010M  7032M  7033   7361M  7364M
                                                  7368M  7369   7413   7429   7806M  7838   7862M  7863M  7865M  7876M
                                                  7895   8948M  8985M  8985   8999   9041M  9041   9074M  9087   9126M
                                                  9162M  9162   9175   9401   9583M  9619M  9620M  9644M  9645  10507
                                                 10509  10509  10509
 TR            3 00000003 00000001 A   #    1032  2854M  2870   2894B  4036M  4056M  4056   4062M  4082   4867M  4901M
                                                  4906   5037M  5044   5047M  5135M  5157M  5158M  5158   5159   5166
                                                  5190M  5208   5221M  5237   5883M  5906   6985M  6988   7001M  7014
                                                  7023   7026   9628M  9629M  9645   9653M  9674   9783   9858M  9895
                                                  9922
 TR256         6 000007FE 00000001     I    5096  5097B
1VGP      (VGP00) (09:47) (22MAR04) Ordinary Symbol and Literal Cross Reference                                             Page   97
 TYPEIT        1 00000000 00000002     T   10585 10585
 TYPERR        4 00000058 00000001     I    2886  2865B
 UNREC         2 000017C6 00000001     H   10105  3509B  7042B  7294B  7341B  7370B  7389B  7421B  7504B  7546B  7608B
                                                  7651B  7704B  7719B  7761B  7793B  7854B  7861B  7867B  7869B  7881B
                                                  8852B  8879B  9403B  9426B 11250  11255  11280  11309  11327  11332
 UPLOOP        6 000007C8 00000001     I    5063  5065B
 USRGPTBL      1 000021E0 00000001     X   11248 10611
 USRGPTB0      1 000021D7 00000001     R   11246 10591  11170  11177  11192
 UUU           3 00000013 FFFFFFEC     C    2183  8761   8784   9478   9479M  9480M  9495   9941   9951   9992
 VARIABLE      2 00000EA2 00000001     H    7479 11262
 VFMSG         2 00001824 00000001     H   10175  3152B  4153B  7238B  7259B  8160B
 VGP           1 00000000 00000001     J     994   996   1027   1040   1053   1066   1079   1092   1105   1118   1131
                                                  1144   1518   1841   2783
 VGP#SEG       2 0000199C 00000001     H   10546  2987B  2999B  3114B  3151B  3239B  3257B  3610B  4152B  4159B  4168B
                                                  4177B  4182B  4187B  4321B  4334B  4440B  5279B  6058B  6485B  7179B
                                                  7184B  7189B  7210B  7215B  7222B  7267B  7276B  7928B  8159B  9536B
                                                  9709B  9755B  9791B  9816B 10193B 10229B 10258B 10279B 10300B 10304B
                                                 10325B 10330B 10337B 10348B 10373B 10382B 10451B
 VGPMORG       1 00001CE4 00000001     U   10659  2986   2998   3113   3150   3238   3256   3609   4151   4158   4167
                                                  4176   4181   4186   4320   4333   4439   5278   6057   6484   7178
                                                  7183   7188   7209   7214   7221   7266   7275   7927   8158   9535
                                                  9708   9754   9790   9815  10192  10228  10257  10278  10299  10303
                                                 10324  10329  10336  10347  10372  10381  10450  10554  10555
 VGP00         1 00000000 00000001     R    1003  1001
 VMARK         1 00000000 00000004     T   10588 10588
 VOID          2 000018B0 00000001     H   10334  5387B  5882B
 VSEG          1 00000000 0000000F     T   10621 10621
 VWRITE        1 00000000 00000007     T   10601 10601
 WA           86 00000000 FFFFFFE8     J    2777  2809U  2817
 WADEVFL       1 00000028 FFFFFFE8     X    2767  2770   2770
 WADEVINF     46 00000028 FFFFFFE8     X    2770  8635   8642
 WADEVNM       1 0000002A FFFFFFE8     X    2769  8651
 WAR           8 00000008 00000001 A   #    1097  2809U  2855
 WHEXCV        2 0000077E 00000001     H    5020  4982B  4994B
 WHEXLOOP      4 000007B0 00000001     I    5054  5051B
 WHEXRET       4 000007AC 00000001     I    5053  5152B
 WPRHBT        1 00000004 00000001 A   N    1850  4407
 WREDIT        2 00000840 00000001     H    5170  4946B
 WRITEXIT      2 0000190A 00000001     H   10404  9825B 10383B 10425B
 WRWPAD        2 00000778 00000001     I    4997  4993B
 WRW1          2 00000744 00000001     I    4979  4972B
 WSSBRK        1 00000020 00000001 A   N    1853  4407
 XTB           1 00000000 00000009     T   10605 10605
 ZRLREC        4 00000FFE 00000001     I    7951  4649B
 =A(ALIASFTB)
               4 00001A6C 00000001     A   10598  4220
 =A(BASE+4096,BASE)
               4 00000050 00000001     A    2879  2832
 =A(CKFORTBL)
               4 00001AF8 00000001     A   10623  9861
 =A(CREATBL)
               4 00001A64 00000001     A   10596  3876
 =A(CREATBLF)
               4 00001A5C 00000001     A   10594  3653
 =A(ERAS#MEM)
               4 00001A48 00000001     A   10589  3187
 =A(ERASEOPT)
               4 00001A3C 00000001     A   10586  2928
 =A(FBALSCKW)
1VGP      (VGP00) (09:47) (22MAR04) Ordinary Symbol and Literal Cross Reference                                             Page   98
               4 00001AE4 00000001     A   10618  9497
 =A(FORMTTBL)
               4 00001AC8 00000001     A   10613  9235
 =A(FORTBL)
               4 00001AB8 00000001     A   10609  8559
 =A(FORTBL1)
               4 00001ABC 00000001     A   10610  8678
 =A(FORTBL4)
               4 00001B00 00000001     A   10625  9967
 =A(GETTBL)
               4 00001A70 00000001     A   10599  4383
 =A(L'ACCT)
               4 00001AD4 00000001     A   10616  9425
 =A(MASKTBL)
               4 00001AC4 00000001     A   10612  9188
 =A(PUTTBL)
               4 00001A80 00000001     A   10603  5348
 =A(QUIETBL)
               4 00001A58 00000001     A   10593  3553   4284
 =A(RENAMCMD)
               4 00001A4C 00000001     A   10590  3300
 =A(USRGPTBL)
               4 00001AC0 00000001     A   10611  8926   8960   9015   9051   9103   9136
 =A(USRGPTB0)
               4 00001A50 00000001     A   10591  3425   8080
 =A(1)         4 00001AE8 00000001     A   10619  9610
 =A(4)         4 00001A68 00000001     A   10597  4102
 =A(8)         4 00001A54 00000001     A   10592  3522   4253
 =AL4(1)       4 00001A84 00000001     R   10604  5490
 =C'  .   '
               6 00001B52 00000001     C   10638  9965
 =C' Invalid in this context'
              24 00001A10 00000001     C   10583 10130
 =C': Invalid string'
              16 00001A28 00000001     C   10584 10156
 =C': Invalid'
               9 00001C8A 00000001     C   10652 10116
 =C'Append'
               6 00001BA4 00000001     C   10641 10095
 =C'ACCOUNT'
               7 00001CA2 00000001     C   10654 10240
 =C'Cannot put to a loadfile'
              24 000019E0 00000001     C   10581  7960
 =C'Cannot read loadfile containing private program'
              47 00001C4C 00000001     C   10650 10073
 =C'Command blocked by Orvyl'
              24 000019F8 00000001     C   10582 10057
 =C'File has invalid lrecl 0'
              24 000019C8 00000001     C   10580  7951
 =C'Format inconsistent with file format'
              36 00001A90 00000001     C   10607  7933
 =C'Hex requires even lrecl'
              23 00001C0C 00000001     C   10646  7942
 =C'Hex requires lrecl format'
              25 00001BAD 00000001     C   10643  7903
 =C'Invalid member name specified'
              29 00001CA9 00000001     C   10655 10355
 =C'Member not specified'
              20 00001B04 00000001     C   10626 10041
1VGP      (VGP00) (09:47) (22MAR04) Ordinary Symbol and Literal Cross Reference                                             Page   99
 =C'No more directory space in library'
              34 00001B58 00000001     C   10639 10049
 =C'No privileges to extend'
              23 00001C35 00000001     C   10649 10033
 =C'Non-owner cannot give public permits'
              36 00001B18 00000001     C   10627 10081
 =C'Operand missing'
              15 00001C7B 00000001     C   10651 10089
 =C'ORV.GG.UUU.A'
              12 00001AD8 00000001     C   10617  9493
 =C'PROGRAM CATALOG'
              15 00001C26 00000001     C   10648  9311
 =C'PUB'       3 00001C23 00000001     C   10647  8761   9992
 =C'Renumber requires edit or variable format'
              41 00001BE3 00000001     C   10645  7921
 =C'Request aborted'
              15 00001C93 00000001     C   10653 10170
 =C'The library has too many members to shrink'
              42 00001B7A 00000001     C   10640 10065
 =C'Unable to access non-IXR file'
              29 00001BC6 00000001     C   10644  7912
 =C'WYL'       3 00001BAA 00000001     C   10642  3476
 =CL8' '       8 000019C0 00000001     C   10579  3531   4262
 =V(BTD)       4 00001AEC 00000001     V   10620  9688   9734
 =V(CHKATTN)
               4 00001AB4 00000001     V   10608  8479
 =V(DTB)       4 00001A8C 00000001     V   10606  7879
 =V(FSUB#COM)
               4 00001B3C 00000001     V   10628 10510
 =V(GETFMT)
               4 00001A74 00000001     V   10600  4517   5685   6500
 =V(PRIVTEST)
               4 00001ACC 00000001     V   10614  9281
 =V(PRIVTNOM)
               4 00001AD0 00000001     V   10615  9388
 =V(SCAN)      4 00001A40 00000001     V   10587  2944   3203   3316   3441   3506   3569   3669   3892   4236   4300
                                                  4399   5364   8096   8575   8694   8942   8976   9031   9067   9119
                                                  9152   9204   9251   9422   9513   9877   9983
 =V(SCINIT)
               4 00001AFC 00000001     V   10624  9905   9932
 =V(SCTELL)
               4 00001AF4 00000001     V   10622  9856
 =V(SETFMT)
               4 00001A60 00000001     V   10595  3734   5532   6219   6904   7063   9267
 =V(SHOWLAST)
               4 00001A7C 00000001     V   10602  5311
 =V(TYPEIT)
               4 00001A38 00000001     V   10585  2886
 =V(VMARK)
               4 00001A44 00000001     V   10588  2995
 =V(VSEG)      4 00001AF0 00000001     V   10621  9705   9751  10493  10571
 =V(VWRITE)
               4 00001A78 00000001     V   10601  5283   9540  10408
 =V(XTB)       4 00001A88 00000001     V   10605  6992   7018
 =Y((RAR+1-(BR)+16*((BR)/(RAR+1))/((BR)/(RAR+1)))*4)
               2 000020C4 00000001     Y   11150 10966  11107
 =Y((R11+1-(R2)+16*((R2)/(R11+1))/((R2)/(R11+1)))*4)
               2 00001B4C 00000001     Y   10635  8067
 =Y(L'ACCT)
1VGP      (VGP00) (09:47) (22MAR04) Ordinary Symbol and Literal Cross Reference                                             Page  100
               2 00001B50 00000001     Y   10637  9939   9949
 =Y(L'GPWHXBUF)
               2 00001B44 00000001     Y   10631  5037   5046
 =Y(2)         2 00001B4A 00000001     Y   10634  7868
 =Y(235)       2 000020C2 00000001     Y   11149 10899
 =Y(251)       2 00001B42 00000001     Y   10630  4897   5219
 =Y(4)         2 00001B46 00000001     Y   10632  6447   6969   7369  10022  10496  10539  10574
 =Y(56)        2 00001B4E 00000001     Y   10636  9627
 =Y(8)         2 00001B48 00000001     Y   10633  7001
 =Y(80)        2 00001B40 00000001     Y   10629  4692   5808   7688   7696
 =Y(80)        2 000020C0 00000001     Y   11148 10866

1VGP      (VGP00) (09:47) (22MAR04) Macro and Copy Code Source Summary                                                      Page  101
- Con Source                                        Volume    Members                        HLASM R4.0  2004/03/22 09.47
0     PRIMARY INPUT                                           BTD      CSECT    DROP     END      ERRXT    EX
                                                              LSCAN    LTORG    POP      PRINT    PUSH     START
                                                              USING
   L2 WYL.GG.SYS.MACLIB                             SYSB05    $BC      $BFLKUP  $BV      $CCLKUP  $CRS     $CSS     $L
                                                              $LA      $LBLAD   $LEXP    $LOR     $REL     $RGLKUP
                                                              $USLKUP  BASE     BEGIN    CLEAR    CSECT    DATA     DECR
                                                              DEFCC    DEX      DROP     ELSE     END      EX       FLAG
                                                              GEN      HIBAL    IDENT    IF       LABEL    LC
                                                              LCALL    LCM      LS       LT       LTORG    L3       POP
                                                              PRINT    PUSH     RECORD   REG      REGS     SET
                                                              SETMSG   START    ST3      ST4      SYSLR    SYSQS
                                                              USING    VCALL    WHILE    WITH
   L3 WYL.GG.ORV.BC.MACLIB                          SYSB02    CLPSERV  CLW      DENTRY   DIRB     FSCALL   GENMSGS  GPW
                                                              ORVDEFN  OSFPB    PRGCAT   SCAN     SCANCB   SCINIT   SCKW
                                                              SCRTN    SCTELL   SEG      SEGDC    VENTER   VEXIT
                                                              VGPTAB   VMARK    VPOP     VPUSH    VREST    VSA
                                                              VSAVE    VSEG     VWRITE   WYLMDWD  XCALL
   L4 WYL.GG.ORV.MACLIB                             SYSB02    SCP
   L5 SYS3.IS.MACLIB                                SYSB05    SYSDEFN

1         (VGP00) (09:47) (22MAR04) General Purpose Register Cross Reference                                                Page  102
- Register  References (M=modified, B=branch, U=USING, D=DROP, N=index)                      HLASM R4.0  2004/03/22 09.47
0    0(0)      983U   984D  2853   2870M  3522   3532   4253   4263   4959M  4978M  4979   4985   4987M  4988   4989M
              4990   5042M  5043   5062M  5064   5191M  5192M  5208   5237   6987M  6988   6994M  6994   6996M  7000M
              7014M  7020M  7020   7026M  7027M  7041M  7862   7868   7871M  7873M  7904M  7913M  7922M  7934M  7943M
              7952M  7961M  8216M  8329   8649M  9312M  9336M  9401M  9425   9678M  9678   9724M  9724   9772M  9808M
              9858   9895M  9922M  9939   9949  10016M 10034M 10042M 10050M 10058M 10066M 10074M 10082M 10090M 10096M
             10117M 10131M 10135M 10135  10157M 10171M 10210M 10273M 10356M 10468M 10553M 10553  10554M
     1(1)      979U  2928M  2986M  2998M  3113M  3150M  3187M  3238M  3256M  3300M  3425M  3496M  3496   3553M  3609M
              3653M  3876M  3989M  3993   4016   4079   4081M  4082M  4083   4151M  4158M  4167M  4176M  4181M  4186M
              4220M  4284M  4320M  4333M  4383M  4413M  4413   4439M  4844M  4844   4856M  4856   4900M  4903M  4903
              4905   4906M  4922M  4922   4931   4932M  4991N  5053M  5055   5065M  5068   5089M  5091   5097M  5098
              5134M  5190   5192   5278M  5348M  5384M  5384   5835M  5851M  5872M  5877   5883   5913   6057M  6334M
              6335   6484M  6985   6986M  7022M  7023M  7024M  7178M  7183M  7188M  7209M  7214M  7221M  7266M  7275M
              7819M  7819   7826M  7831   7863   7874M  7903M  7912M  7921M  7927M  7933M  7942M  7951M  7960M  7980
              8013   8065M  8080M  8134   8150M  8158M  8170M  8178U  8182M  8183M  8183   8189U  8205M  8205   8276M
              8276   8283M  8289   8306M  8355M  8355   8371U  8451M  8475U  8512M  8512   8524   8531   8559M  8642M
              8678M  8926M  8960M  9015M  9051M  9103M  9136M  9188M  9235M  9311M  9329M  9402M  9412M  9412   9497M
              9535M  9610   9626M  9627M  9629   9685M  9708M  9731M  9754M  9765M  9790M  9809M  9815M  9859   9861M
              9890M  9917M  9941   9943   9951   9967M  9987M 10033M 10041M 10049M 10057M 10065M 10073M 10081M 10089M
             10095M 10116M 10121M 10130M 10156M 10170M 10192M 10203M 10228M 10257M 10267M 10278M 10299M 10303M 10324M
             10329M 10336M 10347M 10355M 10372M 10381M 10450M 10461M 10526  10531  10554N 10555M 10555N
     2(2)      975U  2815   2853M  2869   2874M  3532M  3535M  3537   4066M  4066   4067   4080M  4081   4263M  4266M
              4268   4555M  4575M  4575   4673M  4694M  4713M  4717   4846M  4892D  4894M  4894   4895M  4897   4899M
              4900   4901N  5041M  5041   5043M  5045M  5045   5046M  5048   5049M  5056   5135   5157   5164M  5164
              5165M  5196M  5196   5218M  5219   5221N  5732M  5732   5789M  5810M  5829M  5833M  5834   6978M  6999M
              7004   7010M  7032M  7033   7361M  7364M  7368M  7369   7413   7429   7806M  7838   7862M  7863M  7865M
              7876M  7895   7978   7980M  8014   8024M  8065   8068M  8134M  8136M  8137   8143   8149   8206M  8216
              8217M  8283   8306   8319M  8329   8406D  8408M  8408   8409M  8452   8469   8948M  8985M  8985   8999
              9041M  9041   9074M  9087   9126M  9162M  9162   9175   9401   9583M  9619M  9620M  9644M  9645  10507
     3(3)      971U  2815   2854M  2870   2874M  2894N  4036M  4056M  4056   4062M  4082   4867M  4901M  4906   5037M
              5043M  5044   5047M  5135M  5157M  5158M  5158   5159   5165M  5166   5190M  5208   5221M  5237   5883M
              5906   6985M  6988   7001M  7014   7023   7026   7978   7981M  7985   8009M  8009   8011   8012M  8068M
              8133M  8133   8143M  8150   9628M  9629M  9645   9653M  9674   9783   9858M  9895   9922  10507
     4(4)      967U  2815   2874M  4845M  4902M  5061M  5064M  5093M  5098M  5113M  5115   5160M  5165   5189M  5215M
              5217   5227   6977M  7003M  7011M  7805M  7832   7875M  7889   7978   7982M  8033M  8033   8041M  8054M
              8054   8068M  8199M  8199   8262   8373   8391   8398M  8420   8427   8451   8469M  8524   8530   9284M
              9294U  9300M  9307U  9329   9345U  9366U  9549M  9549   9639M  9720   9783   9807   9859M  9890   9917
             10507
     5(5)      963U  2815   2874M  7978   8068M 10507
     6(6)      959U  2815   2832M  2855   2874M  7978   8068M 10507  10510M 10511B
     7(7)      955U  2815   2820M  2830U  2832M  2840U  2843U  2855   2874M  7906   7915   7924   7936   7945   7954
              7963   7978   8068M 10036  10044  10052  10060  10068  10076  10084  10092  10119  10133  10159  10173
             10275  10331  10338  10349  10358  10362  10378  10470  10507  10764  10766M 10967M 10976  10978M 11108M
     8(8)      951U  2809U  2815   2816M  2855   2873   2874M  7978   8068M 10507  10508M 10764  10967M 10976  11108M
     9(9)      947U  2815   2858M  2874M  2876B  2886M  2887M  2887B  2920M  2925M  2949M  2953M  2987M  2990M  2995M
              2996M  2996B  2999M  3002M  3111M  3114M  3132M  3147M  3151M  3207M  3211M  3215M  3235M  3239M  3253M
              3257M  3260M  3283M  3293M  3321M  3361M  3394M  3403M  3422M  3445M  3483M  3580M  3584M  3606M  3610M
              3613M  3630M  3640M  3692M  3731M  3734M  3735M  3735B  3764M  3788M  3825M  3835M  3869M  3873M  3897M
              3901M  3905M  3923M  3941M  3997M  4014M  4034M  4076M  4110M  4129M  4148M  4152M  4159M  4164M  4168M
              4173M  4177M  4182M  4187M  4197M  4311M  4315M  4321M  4330M  4334M  4360M  4370M  4405M  4411M  4440M
              4443M  4473M  4477M  4495M  4513M  4517M  4518M  4518B  4600M  4756M  4819M  4864M  4911M  5051M  5150M
              5248M  5279M  5283M  5284M  5284B  5311M  5312M  5312B  5331M  5341M  5369M  5374M  5410M  5428M  5532M
              5533M  5533B  5536M  5685M  5686M  5686B  5753M  5880M  5910M  5916M  5923   5933M  5937M  6058M  6061M
              6065M  6204M  6219M  6220M  6220B  6223M  6268M  6273M  6307M  6331M  6393M  6438M  6448M  6449B  6461
              6485M  6493M  6500M  6501M  6501B  6681M  6721M  6726M  6760M  6805M  6809M  6892M  6904M  6905M  6905B
              6914M  6934M  6970M  6971B  6982M  7008M  7037M  7063M  7064M  7064B  7067M  7090M  7098M  7179M  7184M
1         (VGP00) (09:47) (22MAR04) General Purpose Register Cross Reference                                                Page  103
              7189M  7210M  7215M  7222M  7267M  7270M  7276M  7809M  7905M  7914M  7923M  7928M  7935M  7944M  7953M
              7962M  7978   7988M  8017M  8022M  8068M  8069B  8077M  8102M  8106M  8128M  8140M  8152M  8155M  8159M
              8168M  8445M  8460M  8463M  8479M  8480M  8480B  8500M  8534M  8547M  8556M  8579M  8594M  8598M  8655M
              8661M  8790M  8923M  8946M  8957M  8980M  8997M  9002M  9012M  9036M  9048M  9072M  9085M  9090M  9100M
              9124M  9133M  9157M  9173M  9178M  9185M  9208M  9218M  9222M  9232M  9255M  9259M  9263M  9267M  9268M
              9268B  9271M  9281M  9282M  9282B  9315M  9370M  9374M  9378M  9388M  9389M  9389B  9518M  9536M  9540M
              9541M  9541B  9559M  9633M  9637M  9642M  9651M  9705M  9706M  9706B  9709M  9751M  9752M  9752B  9755M
              9773M  9791M  9812M  9816M  9881B  9908B  9935B  9954B  9962  10019M 10023M 10024B 10035M 10043M 10051M
             10059M 10067M 10075M 10083M 10091M 10111M 10118M 10124M 10132M 10151M 10158M 10164M 10172M 10193M 10211M
             10229M 10255M 10258M 10274M 10279M 10300M 10304M 10325M 10330M 10337M 10344M 10348M 10357M 10369M 10373M
             10376M 10382M 10402M 10408M 10409M 10409B 10447M 10451M 10469M 10476  10493M 10494M 10494B 10497M 10498B
             10507  10519  10523M 10529M 10534M 10540M 10541B 10548  10571M 10572M 10572B 10575M 10576B 10764  10967M
             10968B 10976  11108M 11109B
    10(A)      943U  2791U  2815   2874M  7978   8068M
    11(B)      939U  2815   2874M  7978   8011M  8019   8068M
    12(C)      935U  2800U
    13(D)      931U  2815   2816   2817M  2817   2873M  2874   5923   5924M  5924   6447M  6448   6461   6462M  6462
              6969M  6970   7978   7979M  7979   8067M  8068   9962   9963M  9963  10022M 10023  10476  10477M 10477
             10496M 10497  10507  10508  10509M 10509  10519  10520M 10520  10539M 10540  10548  10549M 10549  10574M
             10575  10764  10765M 10765  10966M 10967  10976  10977M 10977  11107M 11108
    14(E)      927U  2944M  2945M  2945B  3167B  3182B  3203M  3204M  3204B  3316M  3317M  3317B  3441M  3442M  3442B
              3506M  3507M  3507B  3569M  3570M  3570B  3669M  3670M  3670B  3892M  3893M  3893B  4236M  4237M  4237B
              4300M  4301M  4301B  4345B  4399M  4400M  4400B  4958M  4958   4979M  4981M  4981   4986   4988M  4991M
              5054M  5058   5065   5067N  5090M  5094   5097   5364M  5365M  5365B  6992M  6993M  6993B  6997M  6998
              7018M  7019M  7019B  7312B  7359B  7420B  7470B  7522B  7580B  7592B  7627B  7695B  7703B  7737B  7805
              7832M  7839B  7875   7879M  7880M  7880B  7889M  7896B  7981   8096M  8097M  8097B  8149M  8288M  8289M
              8299   8377D  8379M  8379   8380M  8381U  8391   8420   8531M  8575M  8576M  8576B  8624D  8626M  8626
              8627M  8628U  8694M  8695M  8695B  8807B  8822B  8837B  8864B  8897B  8915B  8942M  8943M  8943B  8976M
              8977M  8977B  9031M  9032M  9032B  9067M  9068M  9068B  9119M  9120M  9120B  9152M  9153M  9153B  9204M
              9205M  9205B  9251M  9252M  9252B  9422M  9423M  9423B  9513M  9514M  9514B  9528M  9528   9639   9653
              9662M  9662   9688M  9689M  9689B  9734M  9735M  9735B  9840B  9856M  9857M  9857B  9877M  9878M  9878B
              9905M  9906M  9906B  9932M  9933M  9933B  9983M  9984M  9984B 10241M 10273  10526M
    15(F)      923U  2854   2869M  2875M  2875   2941M  3200M  3313M  3438M  3503M  3566M  3666M  3889M  4079M  4102
              4233M  4297M  4396M  4954M  4979M  4980   4983M  4984   4985M  4986M  4989   4993M  4997M  4999   5055M
              5056M  5057   5058M  5060M  5065   5067M  5068M  5069M  5069   5072M  5074   5091M  5092M  5093   5094M
              5097   5361M  5885M  5886   5906M  5913M  6997M  7004M  7005M  7025M  7033M  7806   7838M  7876   7882
              7895M  7982   8013M  8019M  8093M  8137M  8148M  8148   8248D  8250M  8250   8251M  8252U  8262   8299
              8373M  8436M  8436   8452M  8530M  8548N  8572M  8635M  8691M  8939M  8973M  8999M  9028M  9064M  9087M
              9116M  9149M  9175M  9201M  9248M  9324M  9419M  9510M  9674M  9720M  9807M  9853M  9874M  9880M  9902M
              9907M  9929M  9934M  9953M  9980M 10240M 10267  10531M

1VGP      (VGP00) (09:47) (22MAR04) Diagnostic Cross Reference and Assembler Summary                                        Page  104
-                                                                                            HLASM R4.0  2004/03/22 09.47
0     No Statements Flagged in this Assembly
 HIGH LEVEL ASSEMBLER, 5696-234, RELEASE 4.0, PTF UQ57391
0SYSTEM: OS/390 02.10.00            JOBNAME: PJG#VGP     STEPNAME: ASM        PROCSTEP: (NOPROC)
0Datasets Allocated for this Assembly
  Con DDname   Dataset Name                                 Volume  Member
   P1 SYSIN    SYS04082.T094746.RA000.PJG#VGP.INPUT.H01     SCR100
   L1 SYSLIB   SYS3.DUMMYMAC                                SYSB02
   L2          WYL.GG.SYS.MACLIB                            SYSB05
   L3          WYL.GG.ORV.BC.MACLIB                         SYSB02
   L4          WYL.GG.ORV.MACLIB                            SYSB02
   L5          SYS3.IS.MACLIB                               SYSB05
      SYSLIN   WYL.GG.PJG.OBJ                               SYSB05  VGP
      SYSPRINT SYS04082.T094746.RA000.PJG#VGP.PRINT.H01     SCR101
      SYSTERM  GG$PJG.PJG#VGP.JOB05984.D0000103.?

    7812K allocated to Buffer Pool,         1613K would be required for this to be an In-Storage Assembly
    1731 Primary Input Records Read         4677 Library Records Read                  0 Work File Reads
       0 ASMAOPT Records Read               7226 Primary Print Records Written         0 Work File Writes
     208 Punch Records Written                 0 ADATA Records Written
0Assembly Start Time: 09.47.47 Stop Time: 09.47.52 Processor Time: 00.00.02.5977
 Return Code 000
