1                        J E S 2  J O B  L O G  --  S Y S T E M  S Y S B  --  N O D E  R L G
0
 09.49.48 JOB06009 ---- MONDAY,    22 MAR 2004 ----
 09.49.48 JOB06009  ICH70001I GG$PJG   LAST ACCESS AT 09:49:42 ON MONDAY, MARCH 22, 2004
 09.49.48 JOB06009  $HASP373 PJG#VSSW STARTED - INIT 2    - CLASS E - SYS SYSB
 09.49.48 JOB06009  ***  HCMD      STEP $$QUIET
 09.49.48 JOB06009  PURGE * Q=OUTPUT MULTIPLE
 09.49.48 JOB06009  JOB PJG#VSSW NOT IN OUTPUT QUEUE
 09.49.49 JOB06009  PJG#VSSW.$$QUIET .         RC=0008 TapeIO=0000 DiskIO=0000 CPU=  .01s Elapsed=88.11s
 09.49.49 JOB06009  PJG#VSSW.$CND    .         RC=Zero TapeIO=0000 DiskIO=0002 CPU=  .01s Elapsed=89.15s
 09.49.49 JOB06009  PJG#VSSW.$UNP    .         RC=Zero TapeIO=0000 DiskIO=0026 CPU=  .05s Elapsed=89.28s
 09.49.56 JOB06009  PJG#VSSW.ASM     .         RC=Zero TapeIO=0000 DiskIO=0483 CPU= 3.21s Elapsed=89.63s
 09.49.58 JOB06009  PJG#VSSW.$EDIT   .         RC=Zero TapeIO=0000 DiskIO=0174 CPU=  .70s Elapsed=96.92s
 09.49.58 JOB06009  PJG#VSSW Ended.  Name=Module: VSSW                   Total CPU= 3.98s Elapsed=88.11s
 09.49.58 JOB06009
 09.49.58 JOB06009  Execution charges   Priority=Standard   Block=Day
 09.49.58 JOB06009
 09.49.58 JOB06009  CPU Usage          73.31          $45.45   Standard Processing Unit Equivalent
 09.49.58 JOB06009                                   =======
 09.49.58 JOB06009                                    $45.45   Total Job execution charge
 09.49.58 JOB06009
 09.49.58 JOB06009  See back separator page for print charges
 09.49.58 JOB06009
 09.49.58 JOB06009  $HASP395 PJG#VSSW ENDED  ASM=0
1        1 //PJG#VSSW JOB PJG$GG,'Module: VSSW',TIME=1,MSGCLASS=C                  JOB06009
           /*JOBPARM HOLD=OUTPUT,LINES=50,CHARS=TN15,NOTIFY=YES
         2 //       EXEC PURGEOLD
         3 XXPURGEOLD PROC
           XX*
           XX* This proc is maintained by Jim Stosick
           XX*
         4 XX$$QUIET  EXEC PGM=HCMDX,PARM='PURGE * Q=OUTPUT MULTIPLE',
           XX         ACCT=(PURGEOLD,SYS3)
         5 //$CND   EXEC PGM=BILBO,REGION=512K,PARM='RECS=100'
         6 //STEPLIB  DD DSN=WYL.GG.ORV.LINKLIB,DISP=SHR
         7 //SYSPRINT DD SYSOUT=$
         8 //SYSUT1   DD DSN=WYL.GG.PJG.OBJ,DISP=OLD
         9 //SYSUT2   DD DSN=WYL.GG.PJG.OBJ,DISP=OLD
        10 //SYSIN    DD DUMMY
        11 //$UNP   EXEC PGM=WUNPRESS,PARM='NUM'
        12 //SYSPRINT DD SYSOUT=$
        13 //SYSUT1   DD DSN=WYL.GG.ORV.SOURCE(VSSW),DISP=SHR
        14 //SYSUT2   DD DSN=&&INPUT,DISP=(,PASS),UNIT=SYSDA,
           //            SPACE=(TRK,(25,25),RLSE),DCB=CARD
        15 //ASM    EXEC PGM=ASMA90,REGION=8M,COND=(0,NE,$UNP),
           //            PARM=('SYSPARM(VSSW),TERM,LANG(EN),OBJ',
           //          'LC(32500),XREF(SHORT),NODECK,NORLD,NODX,NOUS')
           //*STEPLIB  DD DSN=SYS1.SASMMOD1,DISP=SHR
        16 //SYSLIB   DD DSN=SYS3.DUMMYMAC,DISP=SHR,DCB=BLKSIZE=27920
        17 //         DD DSN=WYL.GG.SYS.MACLIB,DISP=SHR
        18 //         DD DSN=WYL.GG.ORV.BC.MACLIB,DISP=SHR
        19 //         DD DSN=WYL.GG.ORV.MACLIB,DISP=SHR
        20 //         DD DSN=SYS3.ORVYL.UMACLIB,DISP=SHR
        21 //         DD DSN=SYS3.IS.MACLIB,DISP=SHR
        22 //SYSUT1   DD DSN=&&SYSUT1,UNIT=VIO,DISP=(,DELETE),
           //            SPACE=(4088,(500,250),,CONTIG,ROUND)
        23 //SYSTERM  DD SYSOUT=$
        24 //SYSPRINT DD DSN=&&PRINT,UNIT=SYSDA,DISP=(,PASS),
           //            SPACE=(6650,(250,250),RLSE),
           //            DCB=(BLKSIZE=6650,LRECL=133,RECFM=FB)
        25 //SYSLIN   DD DSN=WYL.GG.PJG.OBJ(VSSW),DISP=OLD
        26 //SYSUDUMP DD SYSOUT=A
        27 //SYSIN    DD DSN=&&INPUT,DISP=(OLD,DELETE)
        28 //$EDIT  EXEC PGM=ASMEDIT,REGION=1M,
           //            COND=EVEN,PARM='STMT,DATA'
        29 //STEPLIB  DD DSN=WYL.GG.SYS.LINKLIB,DISP=SHR
        30 //ASMOUT   DD DSN=&&PRINT,DISP=(OLD,DELETE)
        31 //SYSPRINT DD SYSOUT=A
        32 //SYSUDUMP DD SYSOUT=A
1 STMT NO. MESSAGE
         2 IEFC001I PROCEDURE PURGEOLD WAS EXPANDED USING SYSTEM LIBRARY SYS3.BETAPROC
        14 IGD01010I STORCLAS= TEMP STORGROUP =
        14 IGD01010I STORGRP=VIO ASSIGNED.
        22 IGD01010I STORCLAS= TEMP STORGROUP =
        22 IGD01010I STORGRP=VIO ASSIGNED.
        24 IGD01010I STORCLAS= TEMP STORGROUP =
        24 IGD01010I STORGRP=VIO ASSIGNED.
 ICH70001I GG$PJG   LAST ACCESS AT 09:49:42 ON MONDAY, MARCH 22, 2004
 IEF142I PJG#VSSW $$QUIET - STEP WAS EXECUTED - COND CODE 0008
 *********************************************************************************
 *   PJG#VSSW/$$QUIET /                    Return Code      0008                 *
 *   Region used      260K (16K user + 244K system)                              *
 *   Extended region  9352K (4K user + 9348K system)                             *
 *                                                                               *
 *   Paging              In      Out                                             *
 *   Private <-> Aux      0        0       CPU time (TCB)   00:00:00.01          *
 *   Private <-> Exp      0        0       CPU time (SRB)   00:00:00.00          *
 *   VIO                  0        0       Elapsed time    920:38:04.85          *
 *   Common               0      ---                                             *
 *                                                                               *
 *                                                                               *
 *   CPU Usage          0.18         $0.11  Standard Processing Unit Equivalent  *
 *                                   $0.11  Total Step execution charge          *
 *                                                                               *
 *    I/O count  DDname   Type Addr           I/O count  DDname   Type Addr      *
 *                         *** No I/O for this step ***                          *
 *********************************************************************************
 IEF373I STEP/$$QUIET /START 2004082.0949
 IEF374I STEP/$$QUIET /STOP  2004082.0949 CPU    0MIN 00.01SEC SRB    0MIN 00.00SEC VIRT    16K SYS   244K EXT       4K SYS    9348K
 IEF236I ALLOC. FOR PJG#VSSW $CND
 IEF237I 0401 ALLOCATED TO STEPLIB
 IEF237I JES2 ALLOCATED TO SYSPRINT
 IEF237I 04DC ALLOCATED TO SYSUT1
 IEF237I 04DC ALLOCATED TO SYSUT2
 IEF237I DMY  ALLOCATED TO SYSIN
 IEF142I PJG#VSSW $CND - STEP WAS EXECUTED - COND CODE 0000
 IEF285I   WYL.GG.ORV.LINKLIB                           KEPT
 IEF285I   VOL SER NOS= SYSB01.
 IEF285I   GG$PJG.PJG#VSSW.JOB06009.D0000101.?          SYSOUT
 IEF285I   WYL.GG.PJG.OBJ                               KEPT
 IEF285I   VOL SER NOS= SYSB05.
 IEF285I   WYL.GG.PJG.OBJ                               KEPT
 IEF285I   VOL SER NOS= SYSB05.
 *********************************************************************************
 *   PJG#VSSW/$CND    /                    Return Code      Zero                 *
 *   Region used      280K (16K user + 264K system)                              *
 *   Extended region  9392K (4K user + 9388K system)                             *
 *                                                                               *
 *   Paging              In      Out                                             *
 *   Private <-> Aux      0        0       CPU time (TCB)   00:00:00.01          *
 *   Private <-> Exp      0        0       CPU time (SRB)   00:00:00.00          *
 *   VIO                  0        0       Elapsed time    920:38:03.81          *
 *   Common               0      ---                                             *
 *                                                                               *
 *                                                                               *
 *   CPU Usage          0.18         $0.11  Standard Processing Unit Equivalent  *
 *                                   $0.11  Total Step execution charge          *
 *                                                                               *
 *    I/O count  DDname   Type Addr           I/O count  DDname   Type Addr      *
 *            2  STEPLIB  Disk 0401                   0  SYSPRINT      ----      *
 *            0  SYSUT1   Disk 04DC                   0  SYSUT2   Disk 04DC      *
 *            0  SYSIN         ----                                              *
 *********************************************************************************
 IEF373I STEP/$CND    /START 2004082.0949
 IEF374I STEP/$CND    /STOP  2004082.0949 CPU    0MIN 00.01SEC SRB    0MIN 00.00SEC VIRT    16K SYS   264K EXT       4K SYS    9388K
 IEF236I ALLOC. FOR PJG#VSSW $UNP
 IEF237I JES2 ALLOCATED TO SYSPRINT
 IEF237I 0402 ALLOCATED TO SYSUT1
 IGD101I SMS ALLOCATED TO DDNAME (SYSUT2  )
         DSN (SYS04082.T094948.RA000.PJG#VSSW.INPUT.H01   )
         STORCLAS (TEMP) MGMTCLAS (        ) DATACLAS (        )
         VOL SER NOS= SCR100
 IEF142I PJG#VSSW $UNP - STEP WAS EXECUTED - COND CODE 0000
 IEF285I   GG$PJG.PJG#VSSW.JOB06009.D0000102.?          SYSOUT
 IEF285I   WYL.GG.ORV.SOURCE                            KEPT
 IEF285I   VOL SER NOS= SYSB02.
 IGD106I SYS04082.T094948.RA000.PJG#VSSW.INPUT.H01    PASSED,    DDNAME=SYSUT2
 *********************************************************************************
 *   PJG#VSSW/$UNP    /                    Return Code      Zero                 *
 *   Region used      388K (108K user + 280K system)                             *
 *   Extended region  9468K (4K user + 9464K system)                             *
 *                                                                               *
 *   Paging              In      Out                                             *
 *   Private <-> Aux      0        0       CPU time (TCB)   00:00:00.05          *
 *   Private <-> Exp      0        0       CPU time (SRB)   00:00:00.00          *
 *   VIO                  0        0       Elapsed time    920:38:03.68          *
 *   Common               0      ---                                             *
 *                                                                               *
 *                                                                               *
 *   CPU Usage          0.93         $0.57  Standard Processing Unit Equivalent  *
 *                                   $0.57  Total Step execution charge          *
 *                                                                               *
 *    I/O count  DDname   Type Addr           I/O count  DDname   Type Addr      *
 *            0  SYSPRINT      ----                   3  SYSUT1   Disk 0402      *
 *           23  SYSUT2   Disk 038B                                              *
 *********************************************************************************
 IEF373I STEP/$UNP    /START 2004082.0949
 IEF374I STEP/$UNP    /STOP  2004082.0949 CPU    0MIN 00.05SEC SRB    0MIN 00.00SEC VIRT   108K SYS   280K EXT       4K SYS    9464K
 IEF236I ALLOC. FOR PJG#VSSW ASM
 IEF237I 0402 ALLOCATED TO SYSLIB
 IEF237I 04DC ALLOCATED TO
 IEF237I 0402 ALLOCATED TO
 IEF237I 0402 ALLOCATED TO
 IEF237I 0402 ALLOCATED TO
 IEF237I 04DC ALLOCATED TO
 IGD101I SMS ALLOCATED TO DDNAME (SYSUT1  )
         DSN (SYS04082.T094948.RA000.PJG#VSSW.SYSUT1.H01  )
         STORCLAS (TEMP) MGMTCLAS (        ) DATACLAS (        )
         VOL SER NOS= VIO
 IEF237I JES2 ALLOCATED TO SYSTERM
 IGD101I SMS ALLOCATED TO DDNAME (SYSPRINT)
         DSN (SYS04082.T094948.RA000.PJG#VSSW.PRINT.H01   )
         STORCLAS (TEMP) MGMTCLAS (        ) DATACLAS (        )
         VOL SER NOS= SCR101
 IEF237I 04DC ALLOCATED TO SYSLIN
 IEF237I JES2 ALLOCATED TO SYSUDUMP
 IGD103I SMS ALLOCATED TO DDNAME SYSIN
 IEF142I PJG#VSSW ASM - STEP WAS EXECUTED - COND CODE 0000
 IEF285I   SYS3.DUMMYMAC                                KEPT
 IEF285I   VOL SER NOS= SYSB02.
 IEF285I   WYL.GG.SYS.MACLIB                            KEPT
 IEF285I   VOL SER NOS= SYSB05.
 IEF285I   WYL.GG.ORV.BC.MACLIB                         KEPT
 IEF285I   VOL SER NOS= SYSB02.
 IEF285I   WYL.GG.ORV.MACLIB                            KEPT
 IEF285I   VOL SER NOS= SYSB02.
 IEF285I   SYS3.ORVYL.UMACLIB                           KEPT
 IEF285I   VOL SER NOS= SYSB02.
 IEF285I   SYS3.IS.MACLIB                               KEPT
 IEF285I   VOL SER NOS= SYSB05.
 IGD105I SYS04082.T094948.RA000.PJG#VSSW.SYSUT1.H01   DELETED,   DDNAME=SYSUT1
 IEF285I   GG$PJG.PJG#VSSW.JOB06009.D0000103.?          SYSOUT
 IGD106I SYS04082.T094948.RA000.PJG#VSSW.PRINT.H01    PASSED,    DDNAME=SYSPRINT
 IEF285I   WYL.GG.PJG.OBJ                               KEPT
 IEF285I   VOL SER NOS= SYSB05.
 IEF285I   GG$PJG.PJG#VSSW.JOB06009.D0000104.?          SYSOUT
 IGD105I SYS04082.T094948.RA000.PJG#VSSW.INPUT.H01    DELETED,   DDNAME=SYSIN
 *********************************************************************************
 *   PJG#VSSW/ASM     /                    Return Code      Zero                 *
 *   Region used      8484K (8192K user + 292K system)                           *
 *   Extended region  9952K (412K user + 9540K system)                           *
 *                                                                               *
 *   Paging              In      Out                                             *
 *   Private <-> Aux      0        0       CPU time (TCB)   00:00:03.16          *
 *   Private <-> Exp      0        0       CPU time (SRB)   00:00:00.05          *
 *   VIO                  0        0       Elapsed time    920:38:03.33          *
 *   Common               0      ---                                             *
 *                                                                               *
 *                                                                               *
 *   CPU Usage         59.25        $36.73  Standard Processing Unit Equivalent  *
 *                                  $36.73  Total Step execution charge          *
 *                                                                               *
 *    I/O count  DDname   Type Addr           I/O count  DDname   Type Addr      *
 *          112  SYSLIB   Disk 0402                 169  SYSLIB   Disk 04DC      *
 *            0  SYSLIB   Disk 0402                   0  SYSLIB   Disk 0402      *
 *            0  SYSLIB   Disk 0402                   0  SYSLIB   Disk 04DC      *
 *            0  SYSUT1   VIO  ----                   0  SYSTERM       ----      *
 *          171  SYSPRINT Disk 04E3                   7  SYSLIN   Disk 04DC      *
 *            0  SYSUDUMP      ----                  24  SYSIN    Disk 038B      *
 *********************************************************************************
 IEF373I STEP/ASM     /START 2004082.0949
 IEF374I STEP/ASM     /STOP  2004082.0949 CPU    0MIN 03.16SEC SRB    0MIN 00.05SEC VIRT  8192K SYS   292K EXT     412K SYS    9540K
 IEF236I ALLOC. FOR PJG#VSSW $EDIT
 IEF237I 0402 ALLOCATED TO STEPLIB
 IGD103I SMS ALLOCATED TO DDNAME ASMOUT
 IEF237I JES2 ALLOCATED TO SYSPRINT
 IEF237I JES2 ALLOCATED TO SYSUDUMP
 IEF142I PJG#VSSW $EDIT - STEP WAS EXECUTED - COND CODE 0000
 IEF285I   WYL.GG.SYS.LINKLIB                           KEPT
 IEF285I   VOL SER NOS= SYSB02.
 IGD105I SYS04082.T094948.RA000.PJG#VSSW.PRINT.H01    DELETED,   DDNAME=ASMOUT
 IEF285I   GG$PJG.PJG#VSSW.JOB06009.D0000105.?          SYSOUT
 IEF285I   GG$PJG.PJG#VSSW.JOB06009.D0000106.?          SYSOUT
 *********************************************************************************
 *   PJG#VSSW/$EDIT   /                    Return Code      Zero                 *
 *   Region used      388K (116K user + 272K system)                             *
 *   Extended region  9472K (4K user + 9468K system)                             *
 *                                                                               *
 *   Paging              In      Out                                             *
 *   Private <-> Aux      0        0       CPU time (TCB)   00:00:00.68          *
 *   Private <-> Exp      0        0       CPU time (SRB)   00:00:00.02          *
 *   VIO                  0        0       Elapsed time    920:37:56.04          *
 *   Common               0      ---                                             *
 *                                                                               *
 *                                                                               *
 *   CPU Usage         12.75         $7.90  Standard Processing Unit Equivalent  *
 *                                   $7.90  Total Step execution charge          *
 *                                                                               *
 *    I/O count  DDname   Type Addr           I/O count  DDname   Type Addr      *
 *            2  STEPLIB  Disk 0402                 172  ASMOUT   Disk 04E3      *
 *            0  SYSPRINT      ----                   0  SYSUDUMP      ----      *
 *********************************************************************************
 IEF373I STEP/$EDIT   /START 2004082.0949
 IEF374I STEP/$EDIT   /STOP  2004082.0949 CPU    0MIN 00.68SEC SRB    0MIN 00.02SEC VIRT   116K SYS   272K EXT       4K SYS    9468K
 *********************************************************************************
 *                                                                               *
 *                      S t a n f o r d   U n i v e r s i t y                    *
 *                                                                               *
 *                              *** Job Summary ***                              *
 *                                                                               *
 *   System Id      SYSB                   Input time     09:38:43  Mar 22, 2004 *
 *                                                                               *
 *   System Release SP6.1.0                Start time     09:49:48  Mar 22, 2004 *
 *                                                                               *
 *   Job name       PJG#VSSW               Stop  time     00:00:00  Mar 22, 2004 *
 *                                                                               *
 *   Account        PJG$GG                 Elapsed time  920:38:04.85            *
 *                                                                               *
 *   User Name      Module: VSSW           CPU time       00:00:03.91            *
 *                                                                               *
 *   Job class      E                      SRB Time       00:00:00.07            *
 *                                                                               *
 *********************************************************************************
 IEF375I  JOB/PJG#VSSW/START 2004082.0949
 IEF376I  JOB/PJG#VSSW/STOP  2004082.0949 CPU    0MIN 03.91SEC SRB    0MIN 00.07SEC
1Data set successfully converted from EDIT to FB format
1Assembler Done VSSW No Statements Flagged
1         High Level Assembler Option Summary                   (PTF UQ57391)                                               Page    1
-                                                                                            HLASM R4.0  2004/03/22 09.49
0  No Overriding ASMAOPT Parameters
   Overriding Parameters-  SYSPARM(VSSW),TERM,LANG(EN),OBJ,LC(32500),XREF(SHORT),NODECK,NORLD,NODX,NOUS
   No Process Statements


   Options for this Assembly
0  NOADATA
     ALIGN
   NOASA
     BATCH
     CODEPAGE(047C)
   NOCOMPAT
   NODBCS
 3 NODECK
 3 NODXREF
     ESD
   NOEXIT
     FLAG(0,ALIGN,CONT,NOIMPLEN,NOPAGE0,PUSH,RECORD,NOSUBSTR,USING0)
   NOFOLD
   NOGOFF
   NOINFO
 3   LANGUAGE(EN)
   NOLIBMAC
 3   LINECOUNT(32500)
     LIST(121)
     MXREF(SOURCE)
 3   OBJECT
     OPTABLE(UNI,NOLIST)
   NOPCONTROL
   NOPESTOP
   NOPROFILE
   NORA2
   NORENT
 3 NORLD
     RXREF
     SIZE(MAX)
 3   SYSPARM(VSSW)
 3   TERM(WIDE)
   NOTEST
     THREAD
   NOTRANSLATE
 3 NOUSING
 3   XREF(SHORT)

   No Overriding DD Names

1VSSW     External Symbol Dictionary                                                                                        Page    2
-Symbol   Type   Id     Address  Length     LD ID  Flags Alias-of                            HLASM R4.0  2004/03/22 09.49
0VSSW      SD 00000001 00000000 00002940             00
 VSSW07    LD          00000000           00000001
 CLPSYST2  LD          00000016           00000001
 TYPEIT    ER 00000002
 VWRITE    ER 00000003
 VSEG      ER 00000004
 EVAL      ER 00000005
 MVCOS     ER 00000006
 BTDU      ER 00000007
 BTX       ER 00000008
 SEGSECS   ER 00000009
 SEGSYSN   ER 0000000A
 FMTCLCK   ER 0000000B
 FMTELAPS  ER 0000000C
 SCAN      ER 0000000D
 RTRIM     ER 0000000E
 SEGSYSN   LD          000028DE           00000001

1VSSW     ORVYL'S INTERNAL SET, SHOW AND DUMP COMMANDS                                                                      Page    3
0D-Loc  Object Code    Addr1 Addr2  Stmt Lv Lineno    Source Statement                    (Asmedit 3.3)  HLASM R4.0  2004/03/22 09.49
+_____  ______ ____    _____ _____  ____ __ ______    ______ _________
0                                      2       2.     ********************************************************************
                                       3       3.     *                                                                  *
                                       4       4.     *      ORVYL/370  RELEASE III - CLASS I - STANFORD PROPRIETARY     *
                                       5       5.     *                                                                  *
                                       6       6.     ********************************************************************
-
                                       8       8.              HIBAL ASSOC=YES
                                     989       9.
 000000                00000 02940   990      10.     VSSW     CSECT
                                     994      11.              IDENT 07
                                     997             +
                                     998    01-IDENT +         ENTRY VSSW07
                                     999             +
 000000 14E5E2E2E6F0F76B            1000    01-IDENT +VSSW07   DC    AL1(20),C'VSSW07,22MAR04,09:49'
                                    1001             +*
-                                   1004      13.              COPY  ORVDEFN
                                    1005             =         SYSDEFN  ,
                                    1006             =         GBLB  &PROTECT
                                    1007             =         GBLC  &MODULE
                                    1008      14.     &MODULE  SETC  'VSSW'
-
                                    1010      16.              REGS  ,,SR,TR,QR,RR,BRR,BR,WAR,RAR,CLWR,LCBR,CTR
                                    1160      17.              COPY  PZERO
 000000                00000 00280  1161             =PZERO    RECORD BEGIN
                                    1169  1          =*
                                    1170  1          =* Real Page 0.  Each CPU has its own copy of this area.
                                    1171  1          =*
-                                   1173  1          =****************************************************************
                                    1174  1          =*               Fields Fixed by the Architecture               *
                                    1175  1          =*               ********************************               *
                                    1176  1          =*                                                              *
 000000                             1177  1          =PZRSNPSW   DS    D             Restart new PSW                 *
 000008                             1178  1          =PZRSOPSW   DS    D             Restart old PSW                 *
 000010                             1179  1          =           DS    D                                             *
 000018                             1180  1          =PZEXOPSW   DS    D             External old PSW                *
 000020                             1181  1          =PZSVOPSW   DS    D             Supervisor old PSW              *
 000028                             1182  1          =PZPIOPSW   DS    D             Program old PSW                 *
 000030                             1183  1          =PZMCOPSW   DS    D             Machine check old PSW           *
 000038                             1184  1          =PZIOOPSW   DS    D             I/O old PSW                     *
 000040                             1185  1          =           DS    3D                                            *
 000058                             1186  1          =PZEXNPSW   DS    D             External new PSW                *
 000060                             1187  1          =PZSVNPSW   DS    D             Supervisor new PSW              *
 000068                             1188  1          =PZPINPSW   DS    D             Program new PSW                 *
 000070                             1189  1          =PZMCNPSW   DS    D             Machine check new PSW           *
 000078                             1190  1          =PZIONPSW   DS    D             I/O new PSW                     *
 000080                             1191  1          =           DS    F                                             *
 000084                             1192  1          =PZEXCPU    DS    H             CPU address for EXT int         *
 000086                             1193  1          =PZEXIC     DS    H             External interrupt code         *
1VSSW     (VSSW07) (09:49) (22MAR04) ORVYL'S INTERNAL SET, SHOW AND DUMP COMMANDS                                           Page    4
0D-Loc  Object Code    Addr1 Addr2  Stmt Lv Lineno    Source Statement           (Hibal 5, Asmedit 3.3)  HLASM R4.0  2004/03/22 09.49
+_____  ______ ____    _____ _____  ____ __ ______    ______ _________
0000088                             1194  1          =PZSVILC    DS    H             Supervisor call ILC             *
 00008A                             1195  1          =PZSVIC     DS    H             Supervisor interrupt code       *
 00008C                             1196  1          =PZPIILC    DS    H             Program ILC                     *
 00008E                             1197  1          =PZPIIC     DS    H             Program interrupt code          *
 000090                             1198  1          =PZTREXA    DS    A             Translation exception address   *
 000094                             1199  1          =PZMONCL    DS    H             Monitor Class number            *
 000096                             1200  1          =PZPERCD    DS    H             PER code                        *
 000098                             1201  1          =PZPERA     DS    A             PER Address                     *
 00009C                             1202  1          =PZMONCD    DS    A             Monitor Code                    *
 0000A0                             1203  1          =           DS    3D                                            *
 0000B8                             1204  1          =PZIOSID    DS    A             I/O subsystem ID word           *
 0000BC                             1205  1          =PZIOPRM    DS    A             I/O Parameter                   *
 0000C0                             1206  1          =PZIOSCS    DS    A             I/O subchannel ending status    *
 0000C4                             1207  1          =           DS    A                                             *
 0000C8                             1208  1          =           DS    39D                                           *
                                    1209  1          =*                                                              *
                                    1210  1          =*            ***************************************           *
                                    1211  1          =*            End of Fields fixed by the architecture           *
                                    1212  1          =****************************************************************
1VSSW     (VSSW07) (09:49) (22MAR04) ORVYL'S INTERNAL SET, SHOW AND DUMP COMMANDS                                           Page    5
0D-Loc  Object Code    Addr1 Addr2  Stmt Lv Lineno    Source Statement           (Hibal 5, Asmedit 3.3)  HLASM R4.0  2004/03/22 09.49
+_____  ______ ____    _____ _____  ____ __ ______    ______ _________
0                                   1214  1          =*
                                    1215  1          =* Fields of general interest
                                    1216  1          =*
 000200                             1217  1          =PZMATP     DS    A             Address of the MAT
 000204                             1218  1          =           DS    A             ** Reserved **
 000208                             1219  1          =PZCURPID   DS    0D            Unique ID of the current process
 000208                             1220  1          =PZCURASB   DS    A             Addr of ASB for current Address space
 00020C                             1221  1          =PZCURTSK   DS    A             ID of current task in the Address space
 000210                             1222  1          =PZLCPUA    DS    A             Logical CPU address
 000214                             1223  1          =PZCPUMSK   DS    A             CPU address mask bit
 000218                             1224  1          =PZPSWM     DS    X             PSW mask for disabling
 000219                             1225  1          =           DS    X             ** Reserved **
                                    1226  1          =*
                                    1227  1          =* Termination/Trace information
                                    1228  1          =*
 00021A 00                          1229  1          =PZTERMFL   FLAG  ,             Termination flags
 PZTERMFL.PZABORT  80 ONES          1233  1          =           FLAG  PZABORT         ABORT macro issued
 PZTERMFL.PZATERM  40 ONES          1238  1          =           FLAG  PZATERM         Start termination processing
 00021B                             1243  1          =PZABSM     DS    X             Save area for system mask in ABORT
 00021C                             1244  1          =PZABR15    DS    A             Save area for R15 in an ABORT
 000220                             1245  1          =PZTZOFF    DS    D             Time zone offset
 000228                             1246  1          =           DS    22A           ** Reserved **
                                    1247  1          =*         DS    24A           ** Reserved **
 000280                00280 00280  1248             =         END   ,
 USING  PZERO,R0                    1257      18.              USING PZERO,R0
1VSSW     (VSSW07) (09:49) (22MAR04) ORVYL'S INTERNAL SET, SHOW AND DUMP COMMANDS                                           Page    6
0Current Usings:  (PZERO,R0)
0Loc    Object Code    Addr1 Addr2  Stmt Lv Lineno    Source Statement           (Hibal 5, Asmedit 3.3)  HLASM R4.0  2004/03/22 09.49
+___    ______ ____    _____ _____  ____ __ ______    ______ _________
0                                   1267      20.     *
                                    1268      21.              MACRO
                                    1269      22.     &L       BTD   &LOC,&LEN,&WORD,&SW,&COMMAS=NO
                                    1270      23.              LCLC  &CM
                                    1271      24.              AIF   ('&COMMAS' NE 'YES').NOCM
                                    1272      25.     &CM      SETC  'C'
                                    1273      26.     .NOCM    ANOP
                                    1274      27.     &L       SYSLR 15,&WORD,OP=L
                                    1275      28.              SYSLR 0,&LEN,TYPE=&SW
                                    1276      29.              SYSLR 1,&LOC
                                    1277      30.              XCALL BTDU&CM
                                    1278      31.              MEND
                                    1279      32.
                                    1280      33.              MACRO
                                    1281      34.     &L       BTX   &LOC,&LEN,&WORD
                                    1282      35.     &L       SYSLR 15,&WORD,OP=L
                                    1283      36.              SYSLR 0,&LEN
                                    1284      37.              SYSLR 1,&LOC
                                    1285      38.              XCALL BTX
                                    1286      39.              MEND
                                    1287      40.
                                    1288      41.              MACRO
                                    1289      42.     &L       SYSONLY ,
                                    1290      43.     &L       LCALL SYSTEST
                                    1291      44.              MEND
                                    1292      45.
                                    1293      46.              MACRO
                                    1294      47.     &L       PRVBLOCK ,
                                    1295      48.     &L       LCALL PRVPTEST
                                    1296      49.              MEND
                                    1297      50.
                                    1298      51.              MACRO
                                    1299      52.     &L       EVAL  &DUMMY
                                    1300      53.     &L       LCALL EVAL
                                    1301      54.              MEND
                                    1302      55.
                                    1303      56.              MACRO
                                    1304      57.     &L       SEGDC &LEN,&WORD,&SW
                                    1305      58.     &L       SYSLR 15,&WORD,OP=L
                                    1306      59.              SYSLR 0,&LEN,TYPE=&SW
                                    1307      60.              LCALL SEGDC
                                    1308      61.              MEND
                                    1309      62.
                                    1310      63.              MACRO
                                    1311      64.     &L       SEGHX &LEN,&WORD
                                    1312      65.     &L       SYSLR 15,&WORD,OP=L
                                    1313      66.              SYSLR 0,&LEN
                                    1314      67.              LCALL SEGHX
                                    1315      68.              MEND
1VSSW     (VSSW07) (09:49) (22MAR04) ORVYL'S INTERNAL SET, SHOW AND DUMP COMMANDS                                           Page    7
0Current Usings:  (PZERO,R0)
0Loc    Object Code    Addr1 Addr2  Stmt Lv Lineno    Source Statement           (Hibal 5, Asmedit 3.3)  HLASM R4.0  2004/03/22 09.49
+___    ______ ____    _____ _____  ____ __ ______    ______ _________
0                                   1318      71.              COPY  SCP
                                    1319             =*******************************************************************
                                    1320             =*                                                                 *
                                    1321             =*    SCP  -  Mode 1 Session Control Page                          *
                                    1322             =*                                                                 *
                                    1323             =*******************************************************************
0000000                00000 00294  1325             =SCP      RECORD BEGIN
 000000                             1333  1          =SCPID      DS    CL4'SCP'
                                    1334  1          =
 000008                             1335  1          =SCPPSW     DS    D                       RESUME PSW
 000010                             1336  1          =SCPGPRS    DS    16F                     RESUME GPRS
 000050                             1337  1          =SCPFPRS    DS    4D                      RESUME FPRS
                                    1338  1          =
 000070                             1339  1          =SCPXPSW    DS    D                       EXIT PSW
 000078                             1340  1          =SCPXGPRS   DS    16F                     EXIT GPRS
                                    1341  1          =
 0000B8                             1342  1          =SCPSBPSW   DS    D                       SESSION BREAK PSW
 0000C0                             1343  1          =SCPSBGPR   DS    16F                     SESSION BREAK GPRS
                                    1344  1          =
 000100                             1345  1          =SCPCLPSW   DS    D                       CLP ERROR PSW
 000108                             1346  1          =SCPCLPGP   DS    16F                     CLP ERROR GPRS
                                    1347  1          =
 000148                             1348  1          =SCPSVPSW   DS    D                       SVC ERROR PSW
 000150                             1349  1          =SCPSVGPR   DS    16F                     SVC ERROR GPRS
                                    1350  1          =
 000190                             1351  1          =SCPCTL8    DS    A                       CONTROL REGISTER 8 (MON CALL)
 000194                             1352  1          =SCPCTL9    DS    3A                      CONTROL REGISTERS 9-11 (PER)
                                    1353  1          =
 0001A0                             1354  1          =SCPPXA     DS    A                       PAGING EXCEPTION ADDR
 0001A4                             1355  1          =SCPIPSW    DS    A                       INTERRUPT PSW
 0001A8                             1356  1          =SCPPAN     DS    H                       PANIC CODE
                                    1357  1          =SCPPANSY   EQU   SCPPAN+1,1,C'X'         FOR ONE BYTE PANIC CODE
                                    1358  1          =
                                    1359  1          =PANOPER    EQU   1,,C'N'                 OPERATION ERROR
                                    1360  1          =PANPROT    EQU   4,,C'N'                 PROTECTION ERROR
                                    1361  1          =PANADDR    EQU   5,,C'N'                 ADDRESSING ERROR
                                    1362  1          =PANSPEC    EQU   6,,C'N'                 SPECIFICATION ERROR
                                    1363  1          =PANWAIT    EQU   16,,C'N'                MISSING WAIT ERROR
                                    1364  1          =
 0001AA                             1365  1          =SCPACCT    DS    C'GG.UUU'               SIGNED-ON ACCOUNT
                                    1366  1          =SCPUSER    EQU   SCPACCT+3,3,C'C'        SIGNED-ON USER
                                    1367  1          =SCPGROUP   EQU   SCPACCT,2,C'C'          SIGNED-ON GROUP
                                    1368  1          =*
                                    1369  1          =*SCPPACCT DS    C'GG.UUU'               PSEUDO ACCOUNT
                                    1370  1          =*SCPPUSER EQU   SCPPACCT+3,3,C'C'       PSEUDO USER
                                    1371  1          =*SCPPGRP  EQU   SCPPACCT,2,C'C'         PSEUDO GROUP
                                    1372  1          =*SCPPRIVS DS    X                       PSEUDO ACCOUNT PRIVS
 0001B0                             1373  1          =           DS    XL7                     SPARE
                                    1374  1          =
 0001B7                             1375  1          =SCPPRIV    DS    X                       ACCOUNT PRIVS
 0001B8                             1376  1          =SCPCLW     DS    A                       POINTER TO THE CLW
 0001BC                             1377  1          =SCPPCAT    DS    A                       PROGRAM CATALOG POINTER
1VSSW     (VSSW07) (09:49) (22MAR04) ORVYL'S INTERNAL SET, SHOW AND DUMP COMMANDS                                           Page    8
0Current Usings:  (PZERO,R0)
0D-Loc  Object Code    Addr1 Addr2  Stmt Lv Lineno    Source Statement           (Hibal 5, Asmedit 3.3)  HLASM R4.0  2004/03/22 09.49
+_____  ______ ____    _____ _____  ____ __ ______    ______ _________
00001C0                             1379  1          =SCPSID     DS    D                       SUSPEND ID
 0001C8                             1380  1          =SCPUCLK    DS    A                       USER CLOCK ID
 0001CC                             1381  1          =SCPUCXIT   DS    A                       USER CLOCK EXIT ID
 0001D0                             1382  1          =SCPCCLK    DS    A                       CLP CLOCK ID
 0001D4                             1383  1          =SCPCCXIT   DS    A                       CLP CLOCK EXIT ID
                                    1384  1          =
 0001D8                             1385  1          =SCPTXEP    DS    A                       TIMER EXIT ENTRY POINT
 0001DC                             1386  1          =SCPTXI     DS    A                       USER POINTER FOR TIMER EXIT
 0001E0                             1387  1          =SCPPXEP    DS    A                       PANIC EXIT ENTRY POINT
 0001E4                             1388  1          =SCPPXI     DS    A                       USER POINTER FOR PANIC EXIT
 0001E8                             1389  1          =SCPSXEP    DS    A                       SVC EXIT ENTRY POINT
 0001EC                             1390  1          =SCPSXI     DS    A                       USER POINTER FOR SVC EXIT
                                    1391  1          =
 0001F0                             1392  1          =SCPUMSIZ   DS    A                       ADDRESS SPACE LIMIT
 0001F4                             1393  1          =SCPRRSEG   DS    A                       LOW ADDR FOR RESERVE/RELEASE
 0001F8                             1394  1          =SCPRESRV   DS    H                       RESERVED (GETMAINED) PAGES
 0001FA                             1395  1          =SCPUNRSV   DS    H                       UNRESERVED PAGE COUNT
 0001FC                             1396  1          =SCPUMAP    DS    A                       USER MAP SIZE
                                    1397  1          =
 000200 00                          1398  1          =SCPFL      FLAG  ,                       FLAG BYTE
 SCPFL.SCPFERR     80 ONES          1402  1          =           FLAG  SCPFERR                 ERROR IN CLP
 SCPFL.SCPFPER     40 ONES          1407  1          =           FLAG  SCPFPER                 PER IS ACTIVE
 SCPFL.SCPFMON     20 ONES          1412  1          =           FLAG  SCPFMON                 MONITOR CALL IS ACTIVE
 SCPFL.SCPFPSEU    10 ONES          1417  1          =           FLAG  SCPFPSEU                PSUEDO USER SET
 SCPFL.SCPFSAM     08 ONES          1422  1          =           FLAG  SCPFSAM                 USER IS STAND-ALONE
 SCPFL.SCPFPRT     04 ONES          1427  1          =           FLAG  SCPFPRT                 USER PROGRAM "PROTECTED"
 SCPFL.SCPFTRU     02 ONES          1432  1          =           FLAG  SCPFTRU                 USER TRACE ACTIVE
 SCPFL.SCPFTRC     01 ONES          1437  1          =           FLAG  SCPFTRC                 CLP TRACE ACTIVE
                                    1442  1          =
 000201                             1443  1          =SCPKLUDG   DS    X     ***KLUDGE***      "KLUDGE" BYTE
 000202                             1444  1          =SCPTRASH   DS    X                       MEMORY CLEARING VALUE
 000203                             1445  1          =SCPJESR    DS    X                       NUMBER OF JES READERS IN USE
                                    1446  1          =
 000204                             1447  1          =SCPPER     DS    A                       PER INTERRUPT CODE,ADDRESS
 000208                             1448  1          =SCPMON     DS    A                       MONITOR INTERRUPT CODE,ADDRESS
                                    1449  1          =
 00020C                             1450  1          =SCPIDT     DS    A                       I/O ID TABLES
 000210                             1451  1          =SCPNIDT    DS    H                       NUMBER OF ID BLOCKS
 000212                             1452  1          =SCPQIDT    DS    H                       ENQ/DEQ ID TABLE
                                    1453  1          =
                                    1454  1          =SCPCWASZ   EQU   16,,C'N'                SIZE OF COMMON WORK AREA
 000214                             1455  1          =SCPCWA     DS    (SCPCWASZ)X
                                    1456  1          =
                                    1457  1          =CLWIBUFL   EQU   235                     LENGTH OF COMMAND BUFFER
 000224                             1458  1          =SCPCMDP    DS    A                       =>AL2(LEN),CL133'COMMAND'
 000228                             1459  1          =SCPPARMP   DS    A                       =>AL2(LEN),CL133'PARM'
 00022C                             1460  1          =SCPLCMDL   DS    H                       LENGTH OF LAST CMD
 00022E                             1461  1          =SCPLCMD    DS    CL40                    LAST COMMAND
                                    1462  1          =
 000256                             1463  1          =SCPNENQ    DS    H                       NUMBER OF ALLOWED ENQ'S
 000258                             1464  1          =SCPENQL    DS    A                       ENQUEUE ID TABLE ADDRESS
                                    1465  1          =
 00025C                             1466  1          =SCPTRACE   DS    A                       MODE 1 TRACE BUFFER CHAIN
1VSSW     (VSSW07) (09:49) (22MAR04) ORVYL'S INTERNAL SET, SHOW AND DUMP COMMANDS                                           Page    9
0Current Usings:  (PZERO,R0)
0D-Loc  Object Code    Addr1 Addr2  Stmt Lv Lineno    Source Statement           (Hibal 5, Asmedit 3.3)  HLASM R4.0  2004/03/22 09.49
+_____  ______ ____    _____ _____  ____ __ ______    ______ _________
0                                   1468  1          =*******************************************************************
                                    1469  1          =*                                                                 *
                                    1470  1          =*    SCB  -  Mode 1 Session Control Block                         *
                                    1471  1          =*                                                                 *
                                    1472  1          =*******************************************************************
0000260 00                          1474  1          =SCBWFL     FLAG  ,                       WAIT FLAGS
 SCBWFL.SCBFWAIT   80 ONES          1478  1          =           FLAG  SCBFWAIT                WAITING
                                    1483  1          =
 000261 00                          1484  1          =SCBCFL     FLAG  ,                       COMMON FLAGS
 SCBCFL.SCBCFALP   80 ONES          1488  1          =           FLAG  SCBCFALP                AUTO LOGOFF BEING PROCESSED
 SCBCFL.SCBCFCLA   40 ONES          1493  1          =           FLAG  SCBCFCLA                IDLE ATTN IN CLP
 SCBCFL.SCBCFAX    20 ONES          1498  1          =           FLAG  SCBCFAX                 BRANCH TO ATTENTION EXIT
 SCBCFL.SCBCFNMA   10 ONES          1503  1          =           FLAG  SCBCFNMA                SUPPRESS MULTIPLE ATTN BREAK
 SCBCFL.SCBFNESC   08 ONES          1508  1          =           FLAG  SCBFNESC                FORCE SESSION BREAK ON ATTN
                                    1513  1          =
 000262 00                          1514  1          =SCBFL      FLAG  ,                       FLAGS
 SCBFL.SCBFCLP     80 ONES          1518  1          =           FLAG  SCBFCLP                 CLP IN CONTROL
 SCBFL.SCBFSVC     40 ONES          1523  1          =           FLAG  SCBFSVC                 USER IS IN SVC PROCESSING
 SCBFL.SCBFNPUP    20 ONES          1528  1          =           FLAG  SCBFNPUP                NO PSW CC CHANGES
 SCBFL.SCBFASLK    10 ONES          1533  1          =           FLAG  SCBFASLK                ADDRESS SPACE LOCK HELD
 SCBFL.SCBFPCLP    08 ONES          1538  1          =           FLAG  SCBFPCLP                PSEUDO CLP
                                    1543  1          =
 000263 00                          1544  1          =SCBTFL     FLAG  ,                       TIMER FLAGS
 SCBTFL.SCBTUTR    80 ONES          1548  1          =           FLAG  SCBTUTR                 USER TIMER RUNNING
 SCBTFL.SCBTUCT    40 ONES          1553  1          =           FLAG  SCBTUCT                 USER TIMING CPU TIME
 SCBTFL.SCBTCPTR   20 ONES          1558  1          =           FLAG  SCBTCPTR                COMMAND TIMER RUNNING
 SCBTFL.SCBTCPCT   10 ONES          1563  1          =           FLAG  SCBTCPCT                COMMAND TIMING CPU TIME
 SCBTFL.SCBTCPQU   08 ONES          1568  1          =           FLAG  SCBTCPQU                "QUEUED" TIMER RUNNING
                                    1573  1          =
 000264 00                          1574  1          =SCBMB      FLAG  ,                       EXIT ENABLED FLAG
                                    1578  1          =*
                                    1579  1          =* FOLLOWING FLAGS USED FOR BOTH SCBMB AND SCBXFL
                                    1580  1          =*
 000265 00                          1581  1          =SCBXFL     FLAG   ,                      EXIT FLAGS
 SCBXFL.SCBXT      80 ONES          1585  1          =           FLAG  SCBXT                   TIMER EXIT
 SCBXFL.SCBXA      40 ONES          1590  1          =           FLAG  SCBXA                   ATTN EXIT
 SCBXFL.SCBXW      20 ONES          1595  1          =           FLAG  SCBXW                   WAIT EXIT
 SCBXFL.SCBXP      10 ONES          1600  1          =           FLAG  SCBXP                   PANIC EXIT
 SCBXFL.SCBXCPT    08 ONES          1605  1          =           FLAG  SCBXCPT                 CLP TIMER EXIT
 SCBXFL.SCBXALO    04 ONES          1610  1          =           FLAG  SCBXALO                 AUTO LOGOFF
 SCBXFL.SCBDEFMB   F0 NZ            1615  1          =           FLAG  (SCBDEFMB,SCBXT+SCBXA+SCBXW+SCBXP)  DEFAULT
                                    1635  1          =
 000268                             1636  1          =SCBSPB     DS    A                       SPB POINTER
 00026C                             1637  1          =SCBENQ     DS    A                       ENQUEUE ID
 000270                             1638  1          =SCPEPXIT   DS    A                       ENQUEUE POST EXIT ID
                                    1639  1          =
 000278                             1640  1          =           DS    D                       Available
 000280                             1641  1          =SCBPNAML   DS    H                       LENGTH OF THE PROGRAM NAME
 000282                             1642  1          =SCBPNAM    DS    CL8                     PROGRAM NAME
 00028A                             1643  1          =SCBUPRI    DS    X                       USER PRIORITY
                                    1644  1          =*
                                    1645  1          =* Shared symbol control
                                    1646  1          =*
1VSSW     (VSSW07) (09:49) (22MAR04) ORVYL'S INTERNAL SET, SHOW AND DUMP COMMANDS                                           Page   10
0Current Usings:  (PZERO,R0)
0D-Loc  Object Code    Addr1 Addr2  Stmt Lv Lineno    Source Statement           (Hibal 5, Asmedit 3.3)  HLASM R4.0  2004/03/22 09.49
+_____  ______ ____    _____ _____  ____ __ ______    ______ _________
000028C                             1647  1          =SCBSSAB    DS    A                       POINTER TO SSAB CHAIN
                                    1648  1          =
 000290                             1649  1          =SCBWAITB   DS    A         WAIT BLOCK PTR (SEE M1GOWAIT IN M1SERV)
 000294                00294 00294  1650             =         END
1VSSW     (VSSW07) (09:49) (22MAR04) ORVYL'S INTERNAL SET, SHOW AND DUMP COMMANDS                                           Page   11
0Current Usings:  (PZERO,R0)
0Loc    Object Code    Addr1 Addr2  Stmt Lv Lineno    Source Statement           (Hibal 5, Asmedit 3.3)  HLASM R4.0  2004/03/22 09.49
+___    ______ ____    _____ _____  ____ __ ______    ______ _________
0                                   1660      73.              COPY  CLW
                                    1661             =*
                                    1662             =*                   COMMAND LANGUAGE WORK AREA
                                    1663             =*
                                    1664             =* ORGANIZATION:
                                    1665             =*
                                    1666             =*        COMMONLY USED CLP FLAGS, COMMAND BUFFERS AND OTHER CONTROL
                                    1667             =*        INFORMATION FOLLOW THE SESSION CONTROL PAGE INFORMATION.
                                    1668             =*        THE BALANCE OF THIS PAGE IS THE CLP SAVE AREA STACK.
                                    1669             =*
 000000                00000 00618  1670             =CLW      RECORD BEGIN
 000000                             1678  1          =CLWSTART   DS    0F
 000000                             1679  1          =CLWSCP     DS    A                       POINTER TO THE SCP
 000004                             1680  1          =           DS    5A                      AVAILABLE
 000018                             1681  1          =CLWUWST    DS    A                       STARTING LOC OF USER WORK AREA
 00001C                             1682  1          =CLWUPST    DS    A                       STARTING LOC OF USER PROGRAM
 000020                             1683  1          =CLWUPML    DS    A                       MAXIMUM LEN OF USER PROGRAM
 000024                             1684  1          =CLWUPRSV   DS    H                       USER PROGRAM RESERVE COUNT
 000026                             1685  1          =CLWUPURV   DS    H                       USER PROGRAM UN-RESERVE COUNT
 000028                             1686  1          =CLWIBUFN   DS    H                       LENGTH OF INPUT LINE
 00002A 606E40                      1687  1          =           DC    C'-> '
 00002D                             1688  1          =CLWIBUF    DS    CL235                   INPUT BUFFER
                                    1689  1          =
 000118                             1690  1          =CLWOBUF    DS    2H                      WRITE/PROMPT COUNTS
 00011C                             1691  1          =           DS    CL235                   OUTPUT BUFFER
                                    1692  1          =CLWOBUFL   EQU   *-CLWOBUF-4
                                    1693  1          =*                                      SESSION BREAK FLAGS:
 000207 00                          1694  1          =CLWFL      FLAG  ,                       ZEROED AT SESSION BREAK START
 CLWFL.CLWFTYPD    80 ONES          1698  1          =           FLAG  CLWFTYPD                CURRENT COMMAND WAS TYPED
 CLWFL.CLWFCMD     40 ONES          1703  1          =           FLAG  CLWFCMD                 PROCESSING COMMAND SVC
 CLWFL.CLWFWYL     20 ONES          1708  1          =           FLAG  CLWFWYL                 COMMAND HAS BEEN TO WYLBUR
                                    1713  1          =
 000208 00                          1714  1          =CLWFLG     FLAG  ,                       FLAGS
 CLWFLG.CLWFCERR   80 ONES          1718  1          =           FLAG  CLWFCERR                COMMAND ERROR: EXE BREAK
 CLWFLG.CLWFGPW    40 ONES          1723  1          =           FLAG  CLWFGPW                 GET-PUT WORK AREA ALLOCATED
 CLWFLG.CLWFTTRP   20 ONES          1728  1          =           FLAG  CLWFTTRP                TEMPORARY TRAP SET
 CLWFLG.CLWFTRAP   10 ONES          1733  1          =           FLAG  CLWFTRAP                TRAP IN PROGRESS
 CLWFLG.CLWFOSC    08 ONES          1738  1          =           FLAG  CLWFOSC                 READ/WRITE REAL (OS) CORE
 CLWFLG.CLWFQMSG   04 ONES          1743  1          =           FLAG  CLWFQMSG                "QUEUED" MESSAGE SENT
 CLWFLG.CLWFM31    02 ONES          1748  1          =           FLAG  CLWFM31                 PROGRAM IN 31 BIT MODE
                                    1753  1          =
 000209 00                          1754  1          =CLWPFL     FLAG  ,                       PROGRAM FLAGS
 CLWPFL.CLWPFSUP   80 ONES          1758  1          =           FLAG  CLWPFSUP                LINK AREA SET UP
 CLWPFL.CLWPFPL    40 ONES          1763  1          =           FLAG  CLWPFPL                 PROGRAM LOADING
 CLWPFL.CLWPFPIC   20 ONES          1768  1          =           FLAG  CLWPFPIC                PROGRAM ENTERED
 CLWPFL.CLWPFRUN   10 ONES          1773  1          =           FLAG  CLWPFRUN                EXECUTE PROGRAM
 CLWPFL.CLWPFPAU   08 ONES          1778  1          =           FLAG  CLWPFPAU                PAUSE BEFORE EXECUTION
 CLWPFL.CLWPFPRV   04 ONES          1783  1          =           FLAG  CLWPFPRV                PRIVATE PROGRAM
 CLWPFL.CLWPFPRT   02 ONES          1788  1          =           FLAG  CLWPFPRT                PROGRAM PROTECTED
 CLWPFL.CLWPFSHR   01 ONES          1793  1          =           FLAG  CLWPFSHR                SHARED PROGRAM LOADED
                                    1798  1          =
 00020A 00                          1799  1          =CLWMFL     FLAG  ,                       MISCELLANEOUS FLAGS
 CLWMFL.CLWMEVCN   80 ONES          1803  1          =           FLAG  CLWMEVCN                CONTINUE AFTER EVENTS
 CLWMFL.CLWMMNCN   40 ONES          1808  1          =           FLAG  CLWMMNCN                CONTINUE AFTER MONITORS
1VSSW     (VSSW07) (09:49) (22MAR04) ORVYL'S INTERNAL SET, SHOW AND DUMP COMMANDS                                           Page   12
0Current Usings:  (PZERO,R0)
0Loc    Object Code    Addr1 Addr2  Stmt Lv Lineno    Source Statement           (Hibal 5, Asmedit 3.3)  HLASM R4.0  2004/03/22 09.49
+___    ______ ____    _____ _____  ____ __ ______    ______ _________
0CLWMFL.CLWMBSUC   20 ONES          1813  1          =           FLAG  CLWMBSUC                SIMULATED BRANCH SUCCESSFUL
 CLWMFL.CLWMNCST   10 ONES          1818  1          =           FLAG  CLWMNCST                SUPPRESS AUTOMATIC COST PRINT
 CLWMFL.CLWMCLRP   08 ONES          1823  1          =           FLAG  CLWMCLRP                UNREC. CLR FOUND
 CLWMFL.CLWMNOL    04 ONES          1828  1          =           FLAG  CLWMNOL                 DON'T PRINT ON CONT. EVENTS
 CLWMFL.CLWMDSUP   02 ONES          1833  1          =           FLAG  CLWMDSUP                DUMP AREA SET UP
 CLWMFL.CLWMDUMP   01 ONES          1838  1          =           FLAG  CLWMDUMP                DUMP COMMAND BEING PROCESSED
                                    1843  1          =
 00020B 00                          1844  1          =CLWMONF    FLAG  ,                       PROGLOOK/MONITOR FLAGS
 CLWMONF.CLWFMWP   80 ONES          1848  1          =           FLAG  CLWFMWP                 MONITOR WORK PAGE EXISTS
 CLWMONF.CLWFPRGL  40 ONES          1853  1          =           FLAG  CLWFPRGL                PROGLOOK IN PROGRESS
 CLWMONF.CLWDOTIM  20 ONES          1858  1          =           FLAG  CLWDOTIM                SET TIMER AT RUN
 CLWMONF.CLWCPTIM  10 ONES          1863  1          =           FLAG  CLWCPTIM                SET CPU TIME TIMER
                                    1868  1          =
 00020C 00                          1869  1          =CLWSFL     FLAG  ,                       SESSION FLAGS
 CLWSFL.CLWSSAM    80 ONES          1873  1          =           FLAG  CLWSSAM                 STAND ALONE MODE
 CLWSFL.CLWSSP     40 ONES          1878  1          =           FLAG  CLWSSP                  SPECIAL PERSON
                                    1883  1          =
 00020D                             1884  1          =           DS    X
                                    1885  1          =
 00020E                             1886  1          =CLWEXSVC   DS    H                       EXIT SVC
 000210                             1887  1          =CLWPSVC    DS    H                       PAUSE/TRAP SVC
 000212                             1888  1          =CLWCSVC    DS    H                       COMMAND SVC
                                    1889  1          =
 000214                             1890  1          =CLWDSP     DS    X                       DISPATCHING PRIORITY
 000215                             1891  1          =CLWPFS     DS    X                       PARAMTER FLAG SAVE
 000218                             1892  1          =CLWPS      DS    3F                      PARAMETER SAVE
                                    1893  1          =
 000224                             1894  1          =CLWMLMOD   DS    F                       MILTEN MODE WORD
 000228                             1895  1          =CLWWLMOD   DS    F                       WYLBUR MODE WORD
                                    1896  1          =
 00022C                             1897  1          =CLWTIMER   DS    A                       TIMER VALUE TO BE SET AT RUN
 000230                             1898  1          =CLWTIMAX   DS    H                       MAX TIMER INTERVAL (IN .1 SEC)
 000232                             1899  1          =CLWTIVAL   DS    H                       CURRENT TIMER INTERVAL
 000234                             1900  1          =CLWTMAX    DS    H                       CPU TIME LIMIT
 000236                             1901  1          =CLWTIME    DS    H                       CURRENT CPU TIME
 000238                             1902  1          =CLWPELT    DS    A                       ELAPSED TIME
 00023C                             1903  1          =CLWPCVM    DS    A                       VM CHARGES
 000240                             1904  1          =CLWPIOS    DS    A                       I/O COUNTS
 000244                             1905  1          =CLWPCUSE   DS    A                       CPU TIME
                                    1906  1          =
 000248                             1907  1          =CLWPROGN   DS    CL8                     PROGRAM NAME
 000250                             1908  1          =CLWLNKP    DS    A                       LINK PAGE POINTER
 000254                             1909  1          =CLWGPWP    DS    A                       GET-PUT WORK PAGE POINTER
 000258                             1910  1          =CLWMONP    DS    A                       MONITOR/PROGLOOK PAGE
 00025C                             1911  1          =CLWSPB     DS    A                       SHARED PROGRAM BLOCK
 000260                             1912  1          =CLWDUMPB   DS    A                       POINTER TO DUMP BUFFER
                                    1913  1          =
 000264                             1914  1          =CLWPER     DS    A                       PER INFO
 000268                             1915  1          =CLWMON     DS    A                       MONITOR INFO
                                    1916  1          =
 00026C                             1917  1          =CLWEVCNT   DS    A                       NUMBER OF EVENTS TO EXECUTE
 000270                             1918  1          =CLWTRAPA   DS    A                       ADDR OF INST BEING TRAPPED
 000274                             1919  1          =CLWTRAPB   DS    A                       ADDR OF INST AFTER
 000278                             1920  1          =CLWTRAPI   DS    3H                      INSTRUCTION BEING TRAPPED
1VSSW     (VSSW07) (09:49) (22MAR04) ORVYL'S INTERNAL SET, SHOW AND DUMP COMMANDS                                           Page   13
0Current Usings:  (PZERO,R0)
0Loc    Object Code    Addr1 Addr2  Stmt Lv Lineno    Source Statement           (Hibal 5, Asmedit 3.3)  HLASM R4.0  2004/03/22 09.49
+___    ______ ____    _____ _____  ____ __ ______    ______ _________
000027E                             1921  1          =CLWTRAPJ   DS    H                       1ST HALFWORD OF INST AFTER
                                    1922  1          =
                                    1923  1          =CLWNTRAP   EQU   8,,C'N'                 NO. OF TRAPS
 000280                             1924  1          =CLWTRAPS   DS    (CLWNTRAP)XL5           TRAP TABLE
 0002A8                             1925  1          =CLWTTRAP   DS    XL5                     TEMPORARY TRAP
                                    1926  1          =*
                                    1927  1          =* KEYWORD FILE RECORD AREA
                                    1928  1          =*
 0002AD                             1929  1          =CLWKFL     DS    X                       KEYWORD FILE FLAGS
                                    1930  1          =
                                    1931  1          =CLWKFAC    EQU   X'80'                   PROGRAM AUTO CALL
                                    1932  1          =CLWKFMP    EQU   X'40'                   PROGRAM MANDATORY
                                    1933  1          =
 0002AE                             1934  1          =CLWKACC    DS    CL5                     ACCOUNT FOR PROGRAM SEARCH
 0002B3                             1935  1          =CLWKPROG   DS    CL8                     DEFAULT/MANDATORY PROGRAM
 0002BB                             1936  1          =CLWKMISC   DS    CL8                     MISCELLANEOUS FIELDS
                                    1937  1          =*
                                    1938  1          =*  SCANNER UTILITY AREA
                                    1939  1          =*
                                    1940  1          =           SCANCB PFX=CLWKW
 0002C4                             1941  1 01-SCANC +CLWKWCB    DS    0F
 0002C4                             1942  1 01-SCANC +CLWKWVAL   DS    A                       VALUE RETURNED
 0002C8                             1943  1 01-SCANC +CLWKWKW    DS    CL8                     CURRENT KEY WORD
 0002D0                             1944  1 01-SCANC +CLWKWLEN   DS    A                       LENGTH LEFT TO SCAN
 0002D4                             1945  1 01-SCANC +CLWKWLOC   DS    A                       NEXT THING TO SCAN
 0002D8                             1946  1 01-SCANC +CLWKWRA    DS    A                       RETURN ADDRESS
 0002DC                             1947  1 01-SCANC +CLWKWPRT   DS    A                       ROUTING TABLE ADDRESS
 0002E0                             1948  1 01-SCANC +CLWKWCLT   DS    A                       SCAN TYPE
                                    1949  1          +*                                      0 = NORMAL SCAN
                                    1950  1          +*                                      4 = EXPRESSION ISOLATION
                                    1951  1          +*                                      8 = EXPRESSION SCAN
                                    1952  1 01-SCANC +CLWKWCBL   EQU *-CLWKWCB
                                    1953  1          =
 0002E8                             1954  1          =CLWTEMP    DS    4D                      WORK AREA
                                    1955  1          =
 000308                             1956  1          =CLWDELTA   DS    F                       Wylbr line delta
 00030C                             1957  1          =           DS    F                       Spare
 000310                             1958  1          =CLWEVHST   DS    8D                      EVENT HISTORY
 000350                             1959  1          =CLWEVENT   DS    D                       LAST EVENT INFO
 000358                             1960  1          =CLWQRET    DS    3F                      QUICK RETURN FOR VSUB
                                    1961  1          =*                                      SAVE AREA FOR BRR,BR,WAR
                                    1962  1          =*
 000368                             1963  1          =CLWSBPSW   DS    D                       SESSION BREAK PSW
 000370                             1964  1          =CLWSBGPR   DS    16F                     SESSION BREAK GPRS
 0003B0                             1965  1          =CLWACCT    DS    C'GG.UUU'               USER ACCOUNT
                                    1966  1          =CLWUSER    EQU   CLWACCT+3,3,C'C'        USER
                                    1967  1          =CLWGROUP   EQU   CLWACCT,2,C'C'          GROUP
 0003B8                             1968  1          =CLWIDT     DS    A                       ADDRESS OF THE IDTS
 0003BC                             1969  1          =CLWNIDT    DS    H                       NUMBER OF IDTS
 0003C0                             1970  1          =           DS    0F                      START OF SAVE AREA
 0003C0                             1971  1          =CLWSVA     DS    XL600                   SAVE STACK
                                    1972  1          =CLWSVAEN   EQU   *-4,4,C'X'              LAST WORD OF THE STACK
 000618                00618 00618  1973             =         END   ,
1VSSW     (VSSW07) (09:49) (22MAR04) ORVYL'S INTERNAL SET, SHOW AND DUMP COMMANDS                                           Page   14
0Current Usings:  (PZERO,R0)
0Loc    Object Code    Addr1 Addr2  Stmt Lv Lineno    Source Statement           (Hibal 5, Asmedit 3.3)  HLASM R4.0  2004/03/22 09.49
+___    ______ ____    _____ _____  ____ __ ______    ______ _________
0                                   1982      74.
                                    1983      75.                Orvyl 5 control blocks needed for internal display
                                    1984      76.                  commands only.
                                    1985      77.
                                    1986      78.              COPY  SLISTMAC
                                    1987             =*******************************************************************
                                    1988             =*                                                                 *
                                    1989             =* Macros for the serialized manipulation of single linked lists   *
                                    1990             =* in memory.  These lists are of the PUSH/POP (LIFO) variety.     *
                                    1991             =* Serialization is achieved using the CDS and CS instructions.    *
                                    1992             =*                                                                 *
                                    1993             =*******************************************************************
0                                   1995             =*******************************************************************
                                    1996             =*                                                                 *
                                    1997             =* Single linked list head fields                                  *
                                    1998             =*                                                                 *
                                    1999             =*******************************************************************
                                    2000             =         MACRO
                                    2001             =&LAB     SHEAD
                                    2002             =         AIF   ('&LAB' EQ '').ERR
                                    2003             =&LAB     DS   0D                   Single linked CDS list
                                    2004             =&LAB.FP  DS    A                   Forward pointer
                                    2005             =&LAB.SEQ DS    A                   CDS sequence number
                                    2006             =         MEXIT
                                    2007             =.ERR     MNOTE 8,'Label (list name) required'
                                    2008             =         MEND
0                                   2010             =*******************************************************************
                                    2011             =*                                                                 *
                                    2012             =* Push an item onto a single linked list                          *
                                    2013             =*                                                                 *
                                    2014             =*******************************************************************
                                    2015             =         MACRO
                                    2016             =&LABEL   SPUSH &HEAD=,&ITEM=
                                    2017             =         LCLC  &X
                                    2018             =         AIF   ('&LABEL' EQ '').NOLAB
                                    2019             =&LABEL   LABEL ,
                                    2020             =.NOLAB   ANOP  ,
                                    2021             =         AIF   ('&HEAD' EQ '').ERR1
                                    2022             =         AIF   ('&ITEM' EQ '').ERR2
                                    2024             =         LM    R14,R15,&HEAD       Get fwd ptr and sequence number
                                    2025             =         LA    RVR,&ITEM           Point to new item
                                    2026             =         LOOP  BEGIN
                                    2027             =         LA    RS,1(R15)           Increment sequence
                                    2028             =         MVC   &ITEM.(L'&HEAD.FP),&HEAD.FP Set item fwd ptr
                                    2029             =         CDS   R14,RVR,&HEAD       Add item to list
                                    2030             =         UNTIL (Z),END
                                    2032             =         AGO   .EXIT
                                    2033             =.ERR1    MNOTE 8,'Head is a required parameter'
                                    2034             =         AGO   .EXIT
                                    2035             =.ERR2    MNOTE 8,'Item is a required parameter'
                                    2036             =.EXIT    ANOP  ,
                                    2037             =         MEND  ,
1VSSW     (VSSW07) (09:49) (22MAR04) ORVYL'S INTERNAL SET, SHOW AND DUMP COMMANDS                                           Page   15
0Current Usings:  (PZERO,R0)
0Loc    Object Code    Addr1 Addr2  Stmt Lv Lineno    Source Statement           (Hibal 5, Asmedit 3.3)  HLASM R4.0  2004/03/22 09.49
+___    ______ ____    _____ _____  ____ __ ______    ______ _________
0                                   2039             =*******************************************************************
                                    2040             =*                                                                 *
                                    2041             =* Pop an item from a single linked list. Addr returned in RVR     *
                                    2042             =* (zero if the list was empty).                                   *
                                    2043             =*                                                                 *
                                    2044             =*******************************************************************
                                    2045             =         MACRO
                                    2046             =&LABEL   SPOP  &HEAD=
                                    2047             =         AIF   ('&LABEL' EQ '').NOLAB
                                    2048             =&LABEL   LABEL ,
                                    2049             =.NOLAB   ANOP  ,
                                    2050             =         AIF   ('&HEAD' EQ '').ERR1
                                    2052             =         LM    RVR,RS,&HEAD        Get fwd and sequence number
                                    2053             =         LOOP  BEGIN
                                    2054             =         IF    (RVR,Z),EXIT        None to get
                                    2055             =         LR    R14,RVR             Point to first item
                                    2056             =         L     R14,0(R14)          Get fwd pointer
                                    2057             =         LA    R15,1(RS)           Increment sequence
                                    2058             =         CDS   RVR,R14,&HEAD       Remove item from list
                                    2059             =         UNTIL (Z),END
                                    2061             =         AGO   .EXIT
                                    2062             =.ERR1    MNOTE 8,'Head is a required parameter'
                                    2063             =.EXIT    ANOP  ,
                                    2064             =         MEND  ,
0                                   2066             =*******************************************************************
                                    2067             =*                                                                 *
                                    2068             =* Get an available item from list (ptr returned in RVR). Memory   *
                                    2069             =* will be obtained if the list is empty.                          *
                                    2070             =*                                                                 *
                                    2071             =*******************************************************************
                                    2072             =         MACRO
                                    2073             =&LABEL   SAVAIL &HEAD=,&LEN=,&LOC=GLOBHI,&FIX=,&PAGE=
                                    2074             =         AIF   ('&LABEL' EQ '').NOLAB
                                    2075             =&LABEL   LABEL ,
                                    2076             =.NOLAB   ANOP  ,
                                    2077             =         AIF   ('&HEAD' EQ '').ERR1
                                    2078             =         AIF   ('&LEN' EQ '').ERR2
                                    2079             =         SPOP  HEAD=&HEAD          pop a free item
                                    2080             =         IF    (RVR,Z),BEGIN       empty list
                                    2081             =         VMGET &LEN,LOC=&LOC,FIX=&FIX,PAGE=&PAGE
                                    2082             =         IF    ('LTR RVR,RVR',ZERO),'ABORT NO_MEM_&HEAD'
                                    2083             =         END   ,
                                    2084             =         AGO   .EXIT
                                    2085             =.ERR1    MNOTE 8,'Head is a required parameter'
                                    2086             =         AGO   .EXIT
                                    2087             =.ERR2    MNOTE 8,'Len is a required parameter'
                                    2088             =.EXIT    ANOP  ,
                                    2089             =         MEND  ,
0000000                00000 00008  2091             =SLDUMMY  RECORD BEGIN
                                    2099  1          =SLDUM      SHEAD ,
 000000                             2100  1 01-02003 +SLDUM      DS   0D                   Single linked CDS list
 000000                             2101  1 01-02004 +SLDUMFP    DS    A                   Forward pointer
1VSSW     (VSSW07) (09:49) (22MAR04) ORVYL'S INTERNAL SET, SHOW AND DUMP COMMANDS                                           Page   16
0Current Usings:  (PZERO,R0)
0Loc    Object Code    Addr1 Addr2  Stmt Lv Lineno    Source Statement           (Hibal 5, Asmedit 3.3)  HLASM R4.0  2004/03/22 09.49
+___    ______ ____    _____ _____  ____ __ ______    ______ _________
0000004                             2102  1 01-02005 +SLDUMSEQ   DS    A                   CDS sequence number
 000008                00008 00008  2103             =         END
                                    2112      79.              COPY  MAT
                                    2113             =*****************************************************************
                                    2114             =*                                                               *
                                    2115             =*        *** M A S T E R   A D D R E S S   T A B L E ***        *
                                    2116             =*                                                               *
                                    2117             =*****************************************************************
-000000                00000 00100  2119             =MAT      RECORD BEGIN
                                    2127  1          =MATPTR     EQU   X'200',4,C'A' Address of the MAT in PZERO
 000000 D4C1E340                    2128  1          =           DC    CL4'MAT'      Control block ID
                                    2129  1          =*
                                    2130  1          =* Addresses of global control blocks
                                    2131  1          =*
 000004                             2132  1          =MATVMCB    DS    A             Virtual memory control block
 000008                             2133  1          =MATDCT     DS    A             Dispatcher control table
 00000C                             2134  1          =MATPAGCB   DS    A             Real memory control block
 000010                             2135  1          =MATM1CT    DS    A             CT for Mode 1 users
 000014                             2136  1          =MATLCT     DS    A             Lock manager control table
 000018                             2137  1          =MATQCT     DS    A             Queue manager control table
 00001C                             2138  1          =MATIOCB    DS    A             I/O Manager control block
 000020                             2139  1          =MATSBWB    DS    A             System buffer wait blocks
 000024                             2140  1          =MATGTCT    DS    A             Terminal global control table
 000028                             2141  1          =MATFILCB   DS    A             File master control table
 00002C                             2142  1          =MATJESCB   DS    A             JES master control table
 000030                             2143  1          =MATSYSCB   DS    A             System task control table
 000034                             2144  1          =MATACCT    DS    A             Accounting control table
 000038                             2145  1          =MATGRCT    DS    A             General Resource control table
 00003C                             2146  1          =MATGNCT    DS    A             Global Network Control table
 000040                             2147  1          =MATTECB    DS    D             Termination wait ECB
 000048                             2148  1          =           DS    25A           Reserved
                                    2149  1          =*
                                    2150  1          =* Control Block Chains
                                    2151  1          =*
 0000AC                             2152  1          =MATASBS    DS    A             Pointer to chain of ASBs
 0000B0                             2153  1          =MATASBL    DS    A             Id of suspend lock for ASB chain
 0000B4                             2154  1          =           DS    8A            **  RESERVED
                                    2155  1          =*
                                    2156  1          =* Control information
                                    2157  1          =*
 0000D4                             2158  1          =MATSNAME   DS    CL8           System Name
 0000DC                             2159  1          =MATPAGFN   DS    A             Current value of the Paging function
 0000E0                             2160  1          =MATSKEY    DS    X             SYSTEM storage key (in high 4 bits)
 0000E1                             2161  1          =MATUKEY    DS    X             USER storage key
                                    2162= 1          =
                                    2163= 1          =             Information about the Kernel
                                    2164= 1          =
 0000E4                             2165  1          =MATKSTRT   DS    A             Starting address of the Kernel
 0000E8                             2166  1          =MATKMAP    DS    A             Address of the Kernel map
 0000EC                             2167  1          =MATKMAPL   DS    A             Length of the Kernel map
1VSSW     (VSSW07) (09:49) (22MAR04) ORVYL'S INTERNAL SET, SHOW AND DUMP COMMANDS                                           Page   17
0Current Usings:  (PZERO,R0)
0Loc    Object Code    Addr1 Addr2  Stmt Lv Lineno    Source Statement           (Hibal 5, Asmedit 3.3)  HLASM R4.0  2004/03/22 09.49
+___    ______ ____    _____ _____  ____ __ ______    ______ _________
0                                   2168= 1          =
                                    2169= 1          =             Failsoft information.
                                    2170= 1          =
 0000F0                             2171  1          =MATNCLPE   DS    F             Number of CLP errors
 0000F4                             2172  1          =MATNFAIL   DS    F             Number of failsofts
 0000F8                             2173  1          =           DS    2A            Reserved
 000100                00100 00100  2174             =         END
                                    2183      80.              COPY  ASB
 000000                00000 00044  2184             =ASB      RECORD BEGIN
 000000 C1E2C240                    2192  1          =ASBID      DC    CL4'ASB'
 000004                             2193  1          =ASBNEXT    DS    A                       Next ASB in system
                                    2194  1          =*
                                    2195  1          =*  Load Address Space Parameters area
                                    2196  1          =*
 000008                             2197  1          =ASBLASP    DS    0D                      Load Addr Space Parms
 000008                             2198  1          =ASBPKM     DS    H                       Program Key Mask
 00000A                             2199  1          =ASBSASN    DS    H                       Secondary ASN
 00000C                             2200  1          =ASBAX      DS    H                       Authorization index
 00000E                             2201  1          =ASBPASN    DS    H                       Primary ASN
                                    2202  1          =ASBLPARM   EQU   3                       LASP parameter
                                    2203  1          =
 000010                             2204  1          =ASBSASB    DS    A                       Address of secondary ASB
 000014 00                          2205  1          =ASBGCFLG   FLAG  ,
 ASBGCFLG.ASBFGBLC 80 ONES          2209  1          =           FLAG  ASBFGBLC                This is ASB for global/common
 000015                             2214  1          =           DS    3X                      - Available -
                                    2215  1          =*
                                    2216  1          =*  Related control blocks
                                    2217  1          =*
 000018                             2218  1          =ASBVSCT    DS    A                       VSCT for the Address space
 00001C                             2219  1          =ASBASDB    DS    A                       AS dispatching block
 000020                             2220  1          =ASBPAGB    DS    A                       AS paging block
 000024                             2221  1          =ASBIOB     DS    A                       AS I/O block
 000028                             2222  1          =ASBENQ     DS    A                       AS Enqueue table
 00002C                             2223  1          =ASBM1SCP   DS    A                       Mode 1 SCP
 000030                             2224  1          =ASBTCCB    DS    A                       Terminal Control block
 000034                             2225  1          =ASBAIB     DS    A                       Accouting information
 000038                             2226  1          =ASBASFB    DS    A                       File services control block
 00003C                             2227  1          =ASBMSTR    DS    A                       AS Master Control block
 000040                             2228  1          =ASBNET     DS    A                       Local Network Control Block
                                    2229  1          =*ASBLW    DS    A     ** Temp RESMAN ** Lock waiting for
                                    2230  1          =*ASBLH    DS    A     ** Temp RESMAN ** Lock held
 000044                00044 00044  2231             =         END   ,
                                    2240      81.              COPY  AIB
                                    2241             =*****************************************************************
                                    2242             =*                                                               *
                                    2243             =*      AIB --  This control block contains the accouting info   *
                                    2244             =*              for each Address space for which accounting is   *
                                    2245             =*              active.  Fields marked with '*' are not used but *
                                    2246             =*              could well be in the future.  They are included  *
                                    2247             =*              only as an estimate of what might be charged.    *
                                    2248             =*                                                               *
                                    2249             =*****************************************************************
                                    2250             =*
                                    2251             =*  This DSECT is copied only for INTERNAL monitor programs.
1VSSW     (VSSW07) (09:49) (22MAR04) ORVYL'S INTERNAL SET, SHOW AND DUMP COMMANDS                                           Page   18
0Current Usings:  (PZERO,R0)
0Loc    Object Code    Addr1 Addr2  Stmt Lv Lineno    Source Statement           (Hibal 5, Asmedit 3.3)  HLASM R4.0  2004/03/22 09.49
+___    ______ ____    _____ _____  ____ __ ______    ______ _________
0                                   2252             =*  Otherwise it is a private area
                                    2253             =*
-000000                00000 00040  2255             =AIB      RECORD BEGIN
 000000 C1C9C240                    2263  1          =           DC    C'AIB '       Control Block ID
                                    2264  1          =*
                                    2265  1          =* Identify the User/Session
                                    2266  1          =*
 000004                             2267  1          =AIBASB     DS    A             Address of the ASB this belongs to
 000008                             2268  1          =AIBUSER    DS    CL8           User ID
 000010                             2269  1          =AIBLOT     DS    D             Time of logon (TOD)
 000018                             2270  1          =AIBPRIVS   DS    A             Privileges
                                    2271  1          =*
                                    2272  1          =* Keep track of the resources used
                                    2273  1          =*
 00001C                             2274  1          =AIBORG     DS    A             Shared program address
 000020                             2275  1          =AIBDIOS    DS    A             Disk I/O's
 000024                             2276  1          =AIBTIOS    DS    A           * Terminal I/O's
 000028                             2277  1          =AIBPIOSA   DS    A             Address of Page I/O's field (NC)
 00002C                             2278  1          =AIBVMUSE   DS    A           * Virtual memory useage
 000030                             2279  1          =AIBCPUTA   DS    A             Address of the CPU time used
 000034                             2280  1          =AIBTID     DS    A             Terminal ID
 000038                             2281  1          =AIBPGNM    DS    CL8           Current program name
 000040                00040 00040  2282             =         END   ,
                                    2291      82.              COPY  PAGCB
                                    2292             =*
                                    2293             =*  This DSECT is copied only for INTERNAL monitor programs.
                                    2294             =*  Otherwise it is a private area
                                    2295             =*
 000000                00000 00020  2296             =PAGCEL   RECORD BEGIN
 000000                             2304  1          =PAGCELHD    DS   A                       Head of list of cells
 000004                             2305  1          =PAGCELAMT   DS   A                       Number of free cells
 000008                             2306  1          =PAGCELID    DS   CL4                     ID type
                                    2307  1          =*  PCBs waiting for free cells
                                    2308  1          =PAGCELAS    LHEAD PFX=PAGCEL             ASBs waiting for free cells
                                    2309  1 01-LHEAD +PAGCELAS   EQU   *,12,C'N'
 00000C                             2310  1 01-LHEAD +PAGCELFP   DS    A                       Forward pointer
 000010                             2311  1 01-LHEAD +PAGCELBP   DS    A                       Backward pointer
 000014                             2312  1 01-LHEAD +PAGCELCNT   DS   A                       Number of elements in list
 000018                             2313  1          =PAGCELXTR   DS   A                       Extra cells available
 00001C                             2314  1          =PAGCELLEN   DS   H                       Length of this cell type
 00001E                             2315  1          =PAGCELBIT   DS   X                       Wait/post resource bit
 00001F                             2316  1          =            DS   X                       - Available -
 000020                             2317  1          =PAGCELNXT   DS   0A                      Next cell pool
 000020                00020 00020  2318             =         END   ,
1VSSW     (VSSW07) (09:49) (22MAR04) ORVYL'S INTERNAL SET, SHOW AND DUMP COMMANDS                                           Page   19
0Current Usings:  (PZERO,R0)
0Loc    Object Code    Addr1 Addr2  Stmt Lv Lineno    Source Statement           (Hibal 5, Asmedit 3.3)  HLASM R4.0  2004/03/22 09.49
+___    ______ ____    _____ _____  ____ __ ______    ______ _________
0000000                00000 002B4  2328             =PAGCB    RECORD BEGIN                  Real/External Mem Mgmgt Ctrl
 000000 D7C1C7C3C2404040            2336  1          =PAGCBID    DC    CL8'PAGCB'              Self identifying tag
 000008                             2337  1          =PAGSTPTR   DS    A                       Pointer to stats block
 00000C                             2338  1          =           DS    3A                      - Available -
                                    2339  1          =*
                                    2340  1          =*  Common memory management
                                    2341  1          =*
 000018                             2342  1          =PAGCASB    DS    A                       Common memory AS block
 00001C                             2343  1          =           DS    4A                      - Available -
-                                   2345  1          =*
                                    2346  1          =*  Routine addresses
                                    2347  1          =*
 00002C                             2348  1          =PAGLKOB    DS    A                       Lock obtain addr
 000030                             2349  1          =PAGLKREL   DS    A                       Lock release addr
 000034                             2350  1          =PAGRESLV   DS    A                       Address of internal resolve
 000038                             2351  1          =           DS    A                       - Available -
1VSSW     (VSSW07) (09:49) (22MAR04) ORVYL'S INTERNAL SET, SHOW AND DUMP COMMANDS                                           Page   20
0Current Usings:  (PZERO,R0)
0D-Loc  Object Code    Addr1 Addr2  Stmt Lv Lineno    Source Statement           (Hibal 5, Asmedit 3.3)  HLASM R4.0  2004/03/22 09.49
+_____  ______ ____    _____ _____  ____ __ ______    ______ _________
0                                   2353  1          =*
                                    2354  1          =* Frame management
                                    2355  1          =*
 00003C                             2356  1          =PAGFRAL    DS    A                       Free frame lock word
 000040                             2357  1          =PAGSWAPL   DS    A                       Swap lock word
 000044                             2358  1          =PAGPFTO    DS    A                       Page Frame Table Origin (VA)
 000048                             2359  1          =PAGFRAN    DS    A                       Number of frames in machine
 00004C                             2360  1          =           DS    A                       - Available -
 000050                             2361  1          =PAGFIXCNT   DS   A                       Number of frames for paging
                                    2362  1          =PAGUFHD    LHEAD PFX=PAGUF               NON HOST-FIXED FRAMES
                                    2363  1 01-LHEAD +PAGUFHD    EQU   *,12,C'N'
 000054                             2364  1 01-LHEAD +PAGUFFP    DS    A                       Forward pointer
 000058                             2365  1 01-LHEAD +PAGUFBP    DS    A                       Backward pointer
 00005C                             2366  1 01-LHEAD +PAGUFCNT   DS    A                       Number of elements in list
                                    2367  1          =
 000060                             2368  1          =PAGFTCNT   DS    A                  (CS) Total free frames (FCNT+FRC)
                                    2369  1          =PAGFHEAD   LHEAD PFX=PAGF                AVAIL FRAME LIST
                                    2370  1 01-LHEAD +PAGFHEAD   EQU   *,12,C'N'
 000064                             2371  1 01-LHEAD +PAGFFP     DS    A                       Forward pointer
 000068                             2372  1 01-LHEAD +PAGFBP     DS    A                       Backward pointer
 00006C                             2373  1 01-LHEAD +PAGFCNT    DS    A                       Number of elements in list
                                    2374  1          =
                                    2375  1          =PAGLASB    LHEAD PFX=PAGL                LOGICALLY SWAPPED ASBS
                                    2376  1 01-LHEAD +PAGLASB    EQU   *,12,C'N'
 000070                             2377  1 01-LHEAD +PAGLFP     DS    A                       Forward pointer
 000074                             2378  1 01-LHEAD +PAGLBP     DS    A                       Backward pointer
 000078                             2379  1 01-LHEAD +PAGLCNT    DS    A                       Number of elements in list
                                    2380  1          =PAGLIP     LHEAD PFX=PAGLI               LOGICALLY OUT - IN PROGRESS
                                    2381  1 01-LHEAD +PAGLIP     EQU   *,12,C'N'
 00007C                             2382  1 01-LHEAD +PAGLIFP    DS    A                       Forward pointer
 000080                             2383  1 01-LHEAD +PAGLIBP    DS    A                       Backward pointer
 000084                             2384  1 01-LHEAD +PAGLICNT   DS    A                       Number of elements in list
 000088                             2385  1          =PAGFLS     DS    A                       | frame count
                                    2386  1          =PAGRSCB    LHEAD PFX=PAGR                SWAPPED, NOT-RECLAIMED SWAPS
                                    2387  1 01-LHEAD +PAGRSCB    EQU   *,12,C'N'
 00008C                             2388  1 01-LHEAD +PAGRFP     DS    A                       Forward pointer
 000090                             2389  1 01-LHEAD +PAGRBP     DS    A                       Backward pointer
 000094                             2390  1 01-LHEAD +PAGRCNT    DS    A                       Number of elements in list
 000098                             2391  1          =PAGFRC     DS    A                       | frame count
                                    2392  1          =
                                    2393  1          =PAGFWT     LHEAD PFX=PAGFW               PCBS WAITING FOR FRAMES
                                    2394  1 01-LHEAD +PAGFWT     EQU   *,12,C'N'
 00009C                             2395  1 01-LHEAD +PAGFWFP    DS    A                       Forward pointer
 0000A0                             2396  1 01-LHEAD +PAGFWBP    DS    A                       Backward pointer
 0000A4                             2397  1 01-LHEAD +PAGFWCNT   DS    A                       Number of elements in list
                                    2398  1          =*  This next field is incremented when a "notified" address space
                                    2399  1          =*  has its frames taken, or when an address space which has its
                                    2400  1          =*  frames taken is "notified".  This field is decremented when
                                    2401  1          =*  frames are allocated for an address space as it is being
                                    2402  1          =*  prepared for swap in.
 0000A8                             2403  1          =PAGFWSI    DS    A                       Frames waiting swap-in
 0000AC                             2404  1          =PAGFSOIP   DS    A                       Frames w/ swap-out in progress
 0000B0                             2405  1          =PAGASIN    DS    A                  (CS) Number of ASBs swapped in
 0000B4                             2406  1          =PAGFRES    DS    A                  (CS) Number of 'reserved' frames
1VSSW     (VSSW07) (09:49) (22MAR04) ORVYL'S INTERNAL SET, SHOW AND DUMP COMMANDS                                           Page   21
0Current Usings:  (PZERO,R0)
0D-Loc  Object Code    Addr1 Addr2  Stmt Lv Lineno    Source Statement           (Hibal 5, Asmedit 3.3)  HLASM R4.0  2004/03/22 09.49
+_____  ______ ____    _____ _____  ____ __ ______    ______ _________
0                                   2407  1          =
 0000B8                             2408  1          =PAGMEG     DS    A                       Number of Meg in address space
 0000BC                             2409  1          =PAGSEGP    DS    H                       Number of pages for segment
                                    2410  1          =*                                        and shadow-segment tables
 0000BE                             2411  1          =PAGSEGL    DS    H                       Length of hardware seg table
 0000C0 00                          2412  1          =PAGFWAIT   FLAG  ,
 PAGFWAIT.PAGFWFRA 80 ONES          2416  1          =           FLAG  PAGFWFRA                Frame waiters to resume
 PAGFWAIT.PAGFWXP  40 ONES          2421  1          =           FLAG  PAGFWXP                 eXternal frame waiters to res
 PAGFWAIT.PAGFWIOP 20 ONES          2426  1          =           FLAG  PAGFWIOP                Page I/O cell waiters to res
 PAGFWAIT.PAGFWIOS 10 ONES          2431  1          =           FLAG  PAGFWIOS                Swap I/O cell waiters to res
 PAGFWAIT.PAGFWASN 08 ONES          2436  1          =           FLAG  PAGFWASN                ASN waiters to resume
 0000C1                             2441  1          =PAGSKEY    DS    X                       Storage key for paging reads
 0000C2                             2442  1          =           DS    2X                      - Available -
 0000C4                             2443  1          =           DS    A                       - Available -
                                    2444= 1          =
                                    2445= 1          =             Long term frame management.
                                    2446= 1          =
 0000C8                             2447  1          =PAGMINFR   DS    A                   Minimum suggested frame use
 0000CC                             2448  1          =PAGMAXFR   DS    A                   Maximum suggested frame use
 0000D0                             2449  1          =           DS    A                   Reserved
 0000D4                             2450  1          =PAGSRHI    DS    E                       Swap rate high (float)
 0000D8                             2451  1          =PAGSRLO    DS    E                       Swap rate low  (float)
 0000DC                             2452  1          =PAGSRAVG   DS    E                       Exp avg of swap rate (float)
 0000E0                             2453  1          =PAGSRATE   DS    E                       Exponential avg parm (float)
 0000E4                             2454  1          =PAGSRMHI   DS    E                       High Swap rate multiplier
 0000E8                             2455  1          =PAGSRMLO   DS    E                       Low  Swap rate multiplier
 0000EC                             2456  1          =PAGSRTHR   DS    A                       Long term freeing threshold
 0000F0                             2457  1          =PAGLTRT    DS    D                       Real time at last interval
 0000F8                             2458  1          =PAGLTST    DS    D                       Swap time at last interval
 000100                             2459  1          =PAGLTCNT   DS    A                       Frames swapped at last interval
 000104                             2460  1          =PAGLTADJ   DS    A                  (CS) Frames to long term get/free
                                    2461  1          =*
                                    2462  1          =*  Reserved frame calculations
                                    2463  1          =*
 000108                             2464  1          =PAGRESM    DS    E                       Slope
 00010C                             2465  1          =PAGRESX0   DS    E                       X-offset
 000110                             2466  1          =PAGRESB    DS    E                       Intercept
 000114                             2467  1          =PAGRESMX   DS    H                       Max
 000116                             2468  1          =PAGRESMN   DS    H                       Min
 000118                             2469  1          =PAGRESAMT   DS   A                       Actual reserve amount
 00011C                             2470  1          =           DS    A                       - Available -
                                    2471  1          =*
                                    2472  1          =*  Working set management
                                    2473  1          =*
 000120                             2474  1          =PAGMNHST   DS    A                       Minimum history val
 000124                             2475  1          =PAGGMHST   DS    A                       Global minimum history val
 000128                             2476  1          =           DS    A                       - Available -
                                    2477  1          =*
                                    2478  1          =*  Swap management
                                    2479  1          =*
 00012C                             2480  1          =PAGSWECB   DS    A                       ECB for swap address space
 000130                             2481  1          =           DS    2A                      - Available -
1VSSW     (VSSW07) (09:49) (22MAR04) ORVYL'S INTERNAL SET, SHOW AND DUMP COMMANDS                                           Page   22
0Current Usings:  (PZERO,R0)
0D-Loc  Object Code    Addr1 Addr2  Stmt Lv Lineno    Source Statement           (Hibal 5, Asmedit 3.3)  HLASM R4.0  2004/03/22 09.49
+_____  ______ ____    _____ _____  ____ __ ______    ______ _________
0                                   2483  1          =*
                                    2484  1          =*  Paging I/O control-block cell management
                                    2485  1          =*
 000138                             2486  1          =PAGCELLK   DS    A                       Lock ID for page/swap cells
                                    2487  1          =PAGCEL1    EQU   PAGPGCEL
 00013C                             2488  1          =PAGPGCEL   DS    XL(L'PAGCEL)            Paging cell mgmt
                                    2489  1          =*
                                    2490  1          =*  Swapping I/O control-block cell management
                                    2491  1          =*
 00015C                             2492  1          =PAGSWCEL   DS    XL(L'PAGCEL)            Swapping cell mgmt
 00017C                             2493  1          =PAGSWXL    DS    H                       Length of frame extent
 00017E                             2494  1          =PAGSWXTL   DS    H                       Total swap extent length
 000180                             2495  1          =PAGSWXN    DS    H                       Number of frames in extent
 000182                             2496  1          =PAGSWAVG   DS    H                       Average working set size
 000184                             2497  1          =           DS    H                       - Available -
                                    2498  1          =*
                                    2499  1          =* ASN management
                                    2500  1          =*
 000188                             2501  1          =PAGASNL    DS    A                       Lock for ASN manipulation
 00018C                             2502  1          =PAGATO     DS    A                       Authority table origin (RA)
 000190                             2503  1          =PAGATL     DS    H                       Authority table length
 000192                             2504  1          =           DS    H                       - Available -
                                    2505  1          =PAGASNW    LHEAD PFX=PAGASN              Addr spaces waiting for ASN
                                    2506  1 01-LHEAD +PAGASNW    EQU   *,12,C'N'
 000194                             2507  1 01-LHEAD +PAGASNFP   DS    A                       Forward pointer
 000198                             2508  1 01-LHEAD +PAGASNBP   DS    A                       Backward pointer
 00019C                             2509  1 01-LHEAD +PAGASNCNT   DS   A                       Number of elements in list
 0001A0                             2510  1          =PAGAFTO    DS    A                       ASN First Table Origin (VA)
 0001A4                             2511  1          =PAG1ASN    DS    H                       First available ASN
 0001A6                             2512  1          =PAGTASN    DS    H                       Total number of ASNs
 0001A8                             2513  1          =PAGAVASN   DS    A                       | number available
 0001AC 00                          2514  1          =PAGASNF    FLAG  ,
 PAGASNF.PAGFASNL  80 ONES          2518  1          =           FLAG  PAGFASNL                ASN table being updated -
 0001AD                             2523  1          =           DS    3X                      - Available -
 0001B0                             2524  1          =           DS    A                       - Available -
-                                   2526  1          =*
                                    2527  1          =*  External paging frame management
                                    2528  1          =*
 0001B4                             2529  1          =PAGXPDS    DS    A                       Data set group descriptor
 0001B8                             2530  1          =PAGXPL     DS    A                       | lock word
 0001BC                             2531  1          =PAGXPCUR   DS    A                       | current in round robin alloc
 0001C0                             2532  1          =PAGXPN     DS    H                       | number of DSs in set
 0001C2 00                          2533  1          =PAGXPFLG   FLAG  ,
 PAGXPFLG.PAGXFURE 80 ONES          2537  1          =           FLAG  PAGXFUREL               Ext frame rel when we do a
                                    2542  1          =*                                        "free contents"
 PAGXPFLG.PAGXF1DE 40 ONES          2543  1          =           FLAG  PAGXF1DEF               Page defined in one place
                                    2548  1          =*                                        only - subset of PAGXFUREL
 0001C3                             2549  1          =           DS    X                       - Available -
 0001C4                             2550  1          =PAGXPRCNT   DS   A                       No. of resource elments avail
                                    2551  1          =*  PCBs waiting for external page frames
                                    2552  1          =PAGXPWT    LHEAD PFX=PAGXP
                                    2553  1 01-LHEAD +PAGXPWT    EQU   *,12,C'N'
1VSSW     (VSSW07) (09:49) (22MAR04) ORVYL'S INTERNAL SET, SHOW AND DUMP COMMANDS                                           Page   23
0Current Usings:  (PZERO,R0)
0D-Loc  Object Code    Addr1 Addr2  Stmt Lv Lineno    Source Statement           (Hibal 5, Asmedit 3.3)  HLASM R4.0  2004/03/22 09.49
+_____  ______ ____    _____ _____  ____ __ ______    ______ _________
00001C8                             2554  1 01-LHEAD +PAGXPFP    DS    A                       Forward pointer
 0001CC                             2555  1 01-LHEAD +PAGXPBP    DS    A                       Backward pointer
 0001D0                             2556  1 01-LHEAD +PAGXPCNT   DS    A                       Number of elements in list
-                                   2558  1          =*
                                    2559  1          =*  External swapping frame management
                                    2560  1          =*
 0001D4                             2561  1          =PAGXSDS    DS    A                       Data set group descriptor
 0001D8                             2562  1          =PAGXSL     DS    A                       | lock word
 0001DC                             2563  1          =PAGXSCUR   DS    A                       | current in round robin alloc
 0001E0                             2564  1          =PAGXSN     DS    H                       | number of DSs in set
 0001E2                             2565  1          =           DS    H                       - Available -
 0001E4                             2566  1          =PAGXSRCNT   DS   A                       No. of resource elments avail
-                                         1
00001E8                             2568  1          =           DS    4A                      - Available -
                                    2569  1          =*
                                    2570  1          =*  Measurement & Statistics
                                    2571  1          =*
 0001F8                             2572  1          =PAGSTATS   DS    0D                      Statistics Start
 0001F8                             2573  1          =PTRXPN     DS    A                       Pointers - # paging ds
 0001FC                             2574  1          =PTRXPDS    DS    A                       | 1st page ds descriptor
 000200                             2575  1          =PTRXPRCNT   DS   A                       | alloc external page count
 000204                             2576  1          =PTRXSN     DS    A                       | # swapping ds
 000208                             2577  1          =PTRXSDS    DS    A                       | 1st swap ds descriptor
 00020C                             2578  1          =PTRXSRCNT   DS   A                       | alloc external swap count
 000210                             2579  1          =PTRFRAN    DS    A                       | real frame count
 000214                             2580  1          =PTRASIN    DS    A                       | address spaces swapped in
 000218                             2581  1          =PTRLOUT    DS    A                       | logically swapped ASs
 00021C                             2582  1          =PTRFRAME   DS    A                       | fame count pointers
 000220                             2583  1          =           DS    3A                      - Available -
 000230                             2584  1          =PAGMTIME   DS    D                       Store clock @ last interval
                                    2585  1          =
 000238                             2586  1          =PAGMXPMX   DS    A                       Max ext frames ever alloc
 00023C                             2587  1          =PAGMXPG    DS    A                       Total num of external pages
 000240                             2588  1          =PAGMXSMX   DS    A                       Max ext swap frames ever alloc
 000244                             2589  1          =PAGMXSW    DS    A                       Total num of external swap
 000248                             2590  1          =PAGMASMX   DS    A                       Max logged on
 00024C                             2591  1          =           DS    3A                      - Available -
                                    2592  1          =
 000258                             2593  1          =PAGMSORN   DS    A                       Number of swap-out requests
 00025C                             2594  1          =PAGMSOVN   DS    A                       Number of virtual swap-outs
 000260                             2595  1          =PAGMSON    DS    A                       Number of swap-outs
 000264                             2596  1          =PAGMSOF    DS    A                       Frames swapped out
 000268                             2597  1          =PAGMSOTM   DS    D                       Total swap-out time
 000270                             2598  1          =PAGMSIRN   DS    A                       Number of swap-in requests
 000274                             2599  1          =PAGMSIVN   DS    A                       Number of virtual swap-ins
 000278                             2600  1          =PAGMSIN    DS    A                       Number of swap-ins
 00027C                             2601  1          =PAGMSIF    DS    A                       Frames swapped in
 000280                             2602  1          =PAGMSITM   DS    D                       Total swap-in time
 000288                             2603  1          =PAGMSMAX   DS    A                       Biggest swap
1VSSW     (VSSW07) (09:49) (22MAR04) ORVYL'S INTERNAL SET, SHOW AND DUMP COMMANDS                                           Page   24
0Current Usings:  (PZERO,R0)
0D-Loc  Object Code    Addr1 Addr2  Stmt Lv Lineno    Source Statement           (Hibal 5, Asmedit 3.3)  HLASM R4.0  2004/03/22 09.49
+_____  ______ ____    _____ _____  ____ __ ______    ______ _________
000028C                             2604  1          =PAGMSOVR   DS    A                       Number of swaps over extent
 000290                             2605  1          =PAGMPON    DS    A                       Number of page-outs
 000294                             2606  1          =PAGMPIN    DS    A                       Number of page-ins
 000298                             2607  1          =PAGMPOT    DS    D                       Total page-out time
 0002A0                             2608  1          =PAGMPIT    DS    D                       Total page-in time
 0002A8                             2609  1          =PAGMFSO    DS    A            ** TEMP ** Failed swap-outs
 0002AC                             2610  1          =           DS    2A                      - Available -
                                    2611  1          =
                                    2612  1          =PAGSTAT    EQU   PAGSTATS,*-PAGSTATS,C'R'
                                    2613  1          =
                                    2614  1          =PAGPAGEL   EQU   4096                    Length of a page
                                    2615  1          =DISABLE    EQU   X'04'                   Only DAT is left on
                                    2616  1          =PAGDAT     EQU   DISABLE                 |
                                    2617  1          =*
                                    2618  1          =*  The length of these EQUs is the number of bits to shift to right
                                    2619  1          =*  align the value
                                    2620  1          =*
                                    2621  1          =PAGPAGM    EQU   X'7FFFF000',12          Page/Frame mask
                                    2622  1          =PAGOFFM    EQU   X'00000FFF',0           Page offset mask
                                    2623  1          =PAGSGNM    EQU   X'7FF00000',20          Segment number mask
                                    2624  1          =PAGPGNM    EQU   X'000FF000',12          Page number mask
                                    2625  1          =PAGAFXM    EQU   X'0000FFC0',6           AFX mask for ASN
                                    2626  1          =PAGASXM    EQU   X'0000003F',0           ASX mask for ASN
                                    2627  1          =PAGSTOM    EQU   X'7FFFF000',12          Segment table origin mask
                                    2628  1          =PAGSTLM    EQU   X'0000007F',0           Segment table length mask
                                    2629  1          =PAGKEYM    EQU   X'000000F8'             Clear ref/change bits of key
                                    2630  1          =
                                    2631  1          =PAGHINIT   EQU   X'8000'                 History Initialization
                                    2632  1          =PAGKREF    EQU   X'F8'                   Storage key reference mask
                                    2633  1          =PAGKRB     EQU   X'04'                   | reference bit in key
                                    2634  1          =PAGKCHG    EQU   X'02'                   | change bit in key
 0002B4                002B4 002B4  2635             =         END   ,                       OF Real/External Mem Mgmt Ctrl
                                    2644      83.              COPY  FILECB
                                    2645=            =
                                    2646=            =
                                    2647=            =        Global File System Information
                                    2648=            =

0000000                00000 00158  2649             =FILECB   RECORD BEGIN
 000000 C6C9D3C5C3C24040            2657  1          =FILEID     DC    CL8'FILECB'         Self identification
                                    2658  1          =
 000008                             2659  1          =FILEFFSB   DS    A                   First FSB pointer
 00000C                             2660  1          =FILEFSBC   DS    A                   Number of FSBs
 000010                             2661  1          =FILEFSGT   DS    A                   Pointer to file sys group tbl
                                    2662  1          =*
                                    2663  1          =*  Buffer management
                                    2664  1          =*
 000014 00                          2665  1          =FILBFLAG   FLAG  ,                   Buffer flag
 FILBFLAG.FILBFHCA 80 ONES          2669  1          =           FLAG  FILBFHCA            Hiperspace cache
 FILBFLAG.FILBNOTD 40 ONES          2674  1          =           FLAG  FILBNOTD            Don't dump cache blocks
 000015                             2679  1          =           DS    XL3                 Spare
 000018                             2680  1          =FILE2KCH   DS    A                   File cache control block (user)
 00001C                             2681  1          =FILE2KCS   DS    A                   File cache control block (system)
1VSSW     (VSSW07) (09:49) (22MAR04) ORVYL'S INTERNAL SET, SHOW AND DUMP COMMANDS                                           Page   25
0Current Usings:  (PZERO,R0)
0D-Loc  Object Code    Addr1 Addr2  Stmt Lv Lineno    Source Statement           (Hibal 5, Asmedit 3.3)  HLASM R4.0  2004/03/22 09.49
+_____  ______ ____    _____ _____  ____ __ ______    ______ _________
0000020                             2682  1          =FILE4KCH   DS    A                   File cache control block (user)
 000024                             2683  1          =FILE4KCS   DS    A                   File cache control block (system)
                                    2684  1          =
 000028                             2685  1          =FILE2KRB   DS    A                   Read buffer control block
 00002C                             2686  1          =FILE4KRB   DS    A                   Read buffer control block
 000030                             2687  1          =FILEIOP    DS    A                   File IO parm buffers
                                    2688  1          =
 000034                             2689  1          =FILTEMPF   DS    A                   Temp files FSB
                                    2690  1          =
                                    2691  1          =FILEBW     SHEAD ,                   Free wait blocks for buff mngmt
 000038                             2692  1 01-02003 +FILEBW     DS   0D                   Single linked CDS list
 000038                             2693  1 01-02004 +FILEBWFP   DS    A                   Forward pointer
 00003C                             2694  1 01-02005 +FILEBWSEQ   DS   A                   CDS sequence number
                                    2695  1          =FILEATFB   SHEAD ,                   Free file attached blocks
 000040                             2696  1 01-02003 +FILEATFB   DS   0D                   Single linked CDS list
 000040                             2697  1 01-02004 +FILEATFBFP   DS  A                   Forward pointer
 000044                             2698  1 01-02005 +FILEATFBSEQ   DS A                   CDS sequence number
                                    2699  1          =*
                                    2700  1          =*  Statistics
                                    2701  1          =*
 000048                             2702  1          =FILMTIME   DS    D                   Elapsed time for SMF
                                    2703  1          =*
                                    2704  1          =* Note: don't modify the following counters in any way unless
                                    2705  1          =*       FSB and the routine FDOIODO are also modified.
                                    2706  1          =*
                                    2707  1          =*  File read counts from disk
                                    2708  1          =*
 000050                             2709  1          =TTREADCT   DS    0D
 000050                             2710  1          =TTMASRCT   DS    D                   Master - read counts
 000058                             2711  1          =TTCATRCT   DS    D                   Catalog - read counts
 000060                             2712  1          =TTBITRCT   DS    D                   Bitmap - read counts
 000068                             2713  1          =TTIXRRCT   DS    D                   IXR - read counts
 000070                             2714  1          =TTUSERCT   DS    D                   User  - read counts
 000078                             2715  1          =TTOTHRCT   DS    D                   Other?? - read counts
                                    2716  1          =*
                                    2717  1          =* Counter indexes - All counters are referenced with the
                                    2718  1          =* generic label and using one of the following indexes.
                                    2719  1          =*
                                    2720  1          =TTMASD     EQU   TTMASRCT-TTREADCT
                                    2721  1          =TTCATD     EQU   TTCATRCT-TTREADCT
                                    2722  1          =TTBITD     EQU   TTBITRCT-TTREADCT
                                    2723  1          =TTIXRD     EQU   TTIXRRCT-TTREADCT
                                    2724  1          =TTUSED     EQU   TTUSERCT-TTREADCT
                                    2725  1          =TTOTHD     EQU   TTOTHRCT-TTREADCT
                                    2726  1          =*
                                    2727  1          =*  File write counts
                                    2728  1          =*
 000080                             2729  1          =TTWRITCT   DS    0D
 000080                             2730  1          =TTMASWCT   DS    D                   Master - writes
 000088                             2731  1          =TTCATWCT   DS    D                   Catalog - writes
 000090                             2732  1          =TTBITWCT   DS    D                   Bitmap -  writes
 000098                             2733  1          =TTIXRWCT   DS    D                   IXR - writes
 0000A0                             2734  1          =TTUSEWCT   DS    D                   User -  writes
 0000A8                             2735  1          =TTOTHWCT   DS    D                   Other?? - writes
1VSSW     (VSSW07) (09:49) (22MAR04) ORVYL'S INTERNAL SET, SHOW AND DUMP COMMANDS                                           Page   26
0Current Usings:  (PZERO,R0)
0D-Loc  Object Code    Addr1 Addr2  Stmt Lv Lineno    Source Statement           (Hibal 5, Asmedit 3.3)  HLASM R4.0  2004/03/22 09.49
+_____  ______ ____    _____ _____  ____ __ ______    ______ _________
0                                   2736  1          =*
                                    2737  1          =*  File read counts from cache
                                    2738  1          =*
 0000B0                             2739  1          =TTCACHCT   DS    0D
 0000B0                             2740  1          =TTMASCCT   DS    D                   Master - read counts
 0000B8                             2741  1          =TTCATCCT   DS    D                   Catalog - read counts
 0000C0                             2742  1          =TTBITCCT   DS    D                   Bitmap - read counts
 0000C8                             2743  1          =TTIXRCCT   DS    D                   IXR - read counts
 0000D0                             2744  1          =TTUSECCT   DS    D                   User  - read counts
 0000D8                             2745  1          =TTOTHCCT   DS    D                   Other?? - read counts
                                    2746  1          =TTFILECT   EQU   TTREADCT,*-TTREADCT
                                    2747  1          =TTFILECC   EQU   (*-TTREADCT)/L'TTREADCT
                                    2748  1          =
                                    2749  1          =TTFREAD    EQU   TTREADCT-TTFILECT
                                    2750  1          =TTFWRIT    EQU   TTWRITCT-TTFILECT
                                    2751  1          =TTFCACH    EQU   TTCACHCT-TTFILECT
                                    2752  1          =*
                                    2753  1          =*  Attach statistics
                                    2754  1          =*
 0000E0                             2755  1          =TTFILATT   DS    F                   Number of files attached
 0000E4                             2756  1          =TTFILATM   DS    F                   | max number attached
 0000E8                             2757  1          =TTFILAUS   DS    F                   Number of user attaches
 0000EC                             2758  1          =TTFILAUM   DS    F                   | max number of user attaches
 0000F0                             2759  1          =TTFILATP   DS    F                   Number of temp files attached
 0000F4                             2760  1          =TTFILAPM   DS    F                   | max number of temp files attached
 0000F8                             2761  1          =TTFILTBK   DS    F                   Number of temp blocks in use
 0000FC                             2762  1          =TTFILTBM   DS    F                   | max number of temp blocks in use
                                    2763  1          =*
                                    2764  1          =* Delete file processing control area
                                    2765  1          =*
 000100                             2766  1          =FILEDECB   DS    D                   Wait for work ECB
                                    2767  1          =FILEDB     SHEAD ,                   Free file delete blocks
 000108                             2768  1 01-02003 +FILEDB     DS   0D                   Single linked CDS list
 000108                             2769  1 01-02004 +FILEDBFP   DS    A                   Forward pointer
 00010C                             2770  1 01-02005 +FILEDBSEQ   DS   A                   CDS sequence number
                                    2771  1          =FILEDT     SHEAD ,                   List of temp files to delete
 000110                             2772  1 01-02003 +FILEDT     DS   0D                   Single linked CDS list
 000110                             2773  1 01-02004 +FILEDTFP   DS    A                   Forward pointer
 000114                             2774  1 01-02005 +FILEDTSEQ   DS   A                   CDS sequence number
                                    2775  1          =FILEDF     SHEAD ,                   List of files to delete
 000118                             2776  1 01-02003 +FILEDF     DS   0D                   Single linked CDS list
 000118                             2777  1 01-02004 +FILEDFFP   DS    A                   Forward pointer
 00011C                             2778  1 01-02005 +FILEDFSEQ   DS   A                   CDS sequence number
 000120                             2779  1          =FILEDASB   DS    A                   Delete file processing ASB
 000124                             2780  1          =FILEDSYR   DS    A                   Sys routine id
 000128                             2781  1          =FILEDCNT   DS    A                   Count of active tasks
 00012C                             2782  1          =FILEDCN2   DS    H                   Count of 'throttle' waits
 00012E                             2783  1          =FILEDTS    DS    X                   Test and set lock
 00012F                             2784  1          =           DS    X                   Spare
 000130                             2785  1          =FILECRE    DS    A                   Files created
 000134                             2786  1          =           DS    9A                  Spare
 000158                00158 00158  2787             =         END
                                    2796      84.              COPY  FSB
 000000                00000 001E0  2797             =FSB      RECORD BEGIN
1VSSW     (VSSW07) (09:49) (22MAR04) ORVYL'S INTERNAL SET, SHOW AND DUMP COMMANDS                                           Page   27
0Current Usings:  (PZERO,R0)
0D-Loc  Object Code    Addr1 Addr2  Stmt Lv Lineno    Source Statement           (Hibal 5, Asmedit 3.3)  HLASM R4.0  2004/03/22 09.49
+_____  ______ ____    _____ _____  ____ __ ______    ______ _________
0                                   2805  1          =CCAT0PCT   EQU   10                      % OF FREE BLOCKS FOR WARNING
                                    2806  1          =CCAT0MIN   EQU   60                      MIN FREE BEFORE WARNING
                                    2807  1          =CCAT1PCT   EQU   5                       % OF MIN LOGICAL FREE BLOCKS
                                    2808  1          =CCAT1MIN   EQU   60                      MIN FREE LOGICAL BLOCK NUM
                                    2809  1          =CCAT2PCT   EQU   1                       % OF MIN FREE BLOCKS
                                    2810  1          =CCAT2MIN   EQU   10                      MIN FREE BLOCK NUM
                                    2811  1          =
                                    2812  1          =CNODA99    EQU   72,72,C'N'              99th percentile
                                    2813  1          =CNODF99    EQU   65,65,C'N'              Non permit len, no per, max name
                                    2814  1          =
                                    2815  1          =CFSBFLSZ   EQU   40                      MAX FIL NAME LEN(DOTS, ~"ORV.")
                                    2816  1          =CFSBNDOT   EQU   38                      MAX FIL NAME LEN(~DOTS, ~"ORV.")
                                    2817  1          =CFSBNMSZ   EQU   33                      MAX NAME LEN TO SEARCH
                                    2818  1          =CFSBDBLK   EQU   3                       3 DOUBLE WRITE BLOCKS
                                    2819  1          =CFSBSTK    EQU   7                       STACK DEPTH OF 7
                                    2820  1          =CFSBMXNT   EQU   256+41                  MAX ENTRY LENGTH
                                    2821  1          =OBLKPL     EQU   3,3,C'N'                ORVYL FILE BLOCK POINTER LEN
                                    2822  1          =BL         EQU   2,2,C'N'                BLOCK POINTER LEN
                                    2823  1          =OL         EQU   2,2,C'N'                OFFSET POINTER LEN
                                    2824  1          =PL         EQU   BL+OL,BL+OL,C'N'        TOTAL POINTER LEN
                                    2825  1          =           GBLA  &BL,&L
                                    2826  1          =&BL        SETA  L'BL
                                    2827  1          =&L         SETA  L'PL                    TOTAL POINTER LENGTH
                                    2828  1          =*
                                    2829  1          =*  FILE SYSTEM BLOCK
                                    2830  1          =*
 000000 C6E2C240                    2831  1          =FSBBID     DC    CL4'FSB'                BLOCK ID
                                    2832  1          =
 000004                             2833  1          =FSBCHAIN   DS    A                       NEXT FSB ON CHAIN
                                    2834  1          =
 000008                             2835  1          =FSBID      DS    X                       FILE-SYSTEM ID NUMBER
                                    2836  1          =
 000009 00                          2837  1          =FSBAFLGS   FLAG  ,                       FILE-SYSTEM AVAILABILITY
 FSBAFLGS.FSBANAVL 80 ONES          2841  1          =           FLAG  FSBANAVL                NOT AVAILABLE
 FSBAFLGS.FSBARO   40 ONES          2846  1          =           FLAG  FSBARO                  READ-ONLY STATUS
 FSBAFLGS.FSBINIT  20 ONES          2851  1          =           FLAG  FSBINIT                 INITIALIZATION PROCESS
 FSBAFLGS.FSBCLOSE 10 ONES          2856  1          =           FLAG  FSBCLOSE                SHUTDOWN PROCESS
 FSBAFLGS.FSBCATNI 08 ONES          2861  1          =           FLAG  FSBCATNIN               CATALOG IN NoInsert MODE
 FSBAFLGS.FSBCATNL 04 ONES          2866  1          =           FLAG  FSBCATNLM               CATALOG IN NoLenMod MODE
                                    2871  1          =
 00000A 00                          2872  1          =FSBSFLGS   FLAG  ,                       FILE-SYSTEM STATUS
 FSBSFLGS.FSBSPROD 80 ONES          2876  1          =           FLAG  FSBSPROD                PRODUCTION FILE SYSTEM
 FSBSFLGS.FSBSABRO 40 ONES          2881  1          =           FLAG  FSBSABRO                ALLOW BATCH THOUGH R/O
 FSBSFLGS.FSBSTEMP 20 ONES          2886  1          =           FLAG  FSBSTEMP                DEDICATED TO TEMP FILES
                                    2891  1          =
 00000B 00                          2892  1          =FSBOFLGS   FLAG  ,                       FILE-SYSTEM OPTIONS
 FSBOFLGS.FSBONIXR 80 ONES          2896  1          =           FLAG  FSBONIXR                NON-IXR FILES ALLOWED
 FSBOFLGS.FSBFCACH 40 ONES          2901  1          =           FLAG  FSBFCACHE               Use file block caching
 FSBOFLGS.FSBHCACH 20 ONES          2906  1          =           FLAG  FSBHCACHE               Use hiperspace caching
                                    2911  1          =
 00000C                             2912  1          =FSBFRDB    DS    A                       FIRST RDB FOR FILE-SYSTEM
 000010                             2913  1          =FSBLRDB    DS    A                       LAST RDB FOR FILE-SYSTEM
 000014                             2914  1          =FSBDDN     DS    CL4                     DDNAME
 000018                             2915  1          =FSBNAME    DS    CL8                     FILE-SYSTEM NAME
1VSSW     (VSSW07) (09:49) (22MAR04) ORVYL'S INTERNAL SET, SHOW AND DUMP COMMANDS                                           Page   28
0Current Usings:  (PZERO,R0)
0D-Loc  Object Code    Addr1 Addr2  Stmt Lv Lineno    Source Statement           (Hibal 5, Asmedit 3.3)  HLASM R4.0  2004/03/22 09.49
+_____  ______ ____    _____ _____  ____ __ ______    ______ _________
0000020 C7C74BE4E4E4                2916  1          =FSBOWNER   DC    CL6'GG.UUU'             FILE-SYSTEM MASTER ACCOUNT
                                    2917  1          =
 000026                             2918  1          =           DS    XL2                     Spare
                                    2919  1          =
 000028                             2920  1          =FSBCGRI    DS    A                       Catalog general resource id
 00002C                             2921  1          =FSBRBT     DS    A                       Read Buffer Table Pointer
 000030                             2922  1          =FSBCACHE   DS    A                       Cache table pointer
 000034                             2923  1          =FSBCACHS   DS    A                       System cache table pointer
 000038                             2924  1          =           DS    A                       Spare
 00003C                             2925  1          =FSBAHFB    DS    A                       File attached hash table
 000040                             2926  1          =FSBIOP     DS    A                       File IO parm buffers
                                    2927  1          =*
                                    2928  1          =*  CATALOG MANAGEMENT AREA
                                    2929  1          =*
 000044                             2930  1          =FSBCATSB   DS    A                       CATALOGUE START BLOCK
 000048                             2931  1          =FSBCATBC   DS    A                       CATALOGUE BLOCK COUNT
                                    2932  1          =*SBBMALO DS    A   ** MOVE TO STATS ** ALLOCATION REQUESTS
                                    2933  1          =*SBBMALS DS    A   ** MOVE TO STATS ** ALLOCATION NOT CACHED
                                    2934  1          =*SBBMFRE DS    A   ** MOVE TO STATS ** BITMAP RELEASES
                                    2935  1          =*SBBMFRS DS    A   ** MOVE TO STATS ** BITMAP RELEASES - TO SYS
 00004C                             2936  1          =           DS    4A                      Available
                                    2937  1          =CFSBBL     EQU   4                       FSB BLOCK PTR LEN
                                    2938  1          =CFSBPL     EQU   8,8,C'N'                FSB POINTER LEN (BLOCK + ADDR)
                                    2939  1          =CFSBBUF    EQU   8,8,C'N'                8 CAT BLOCK BUFFERS ALLOWED
 00005C                             2940  1          =FSBBLKTOP   DS   A                       POINTS TO LAST BUFFER SLOT
 000060                             2941  1          =FSBCHKA    DS    A                       CHECK POINT BUFFER ADDRESS
 000064                             2942  1          =FSBROOTB   DS    A                       BLOCK NUMBER IN ROOT BUFFER
 000068                             2943  1          =FSBROOTA   DS    A                       | ADDRESS OF ROOT BUFFER
 00006C                             2944  1          =FSBBLK1    DS    A                       BLOCK NUMBER IN 1ST BUFFER
 000070                             2945  1          =FSBBUF1    DS    A                       | ADDRESS OF 1ST BUFFER
                                    2946  1          =&BUFLEN    SETA  (L'CFSBBUF-1)*L'CFSBPL
                                    2947  1          =           DS    &BUFLEN.X               | LEN OF REMAINING BUF SLOTS
 000074                                   1          +           DS    56X                     | LEN OF REMAINING BUF SLOTS
                                    2948  1          =*
                                    2949  1          =*  Catalog Balancing Parameters
                                    2950  1          =*
 0000AC                             2951  1          =FSBBALST   DS    0X
 0000AC                             2952  1          =FSBDSZ     DS    Y                       Size of disk block
 0000AE                             2953  1          =FSBDAVA    DS    Y                       Available space per block
 0000B0                             2954  1          =FSBDTAGX   DS    Y                       Offset of end tag in block
 0000B2                             2955  1          =FSBNALEN   DS    Y                       Account: Length of node
 0000B4                             2956  1          =FSBNASPA   DS    Y                       | Free space in node
 0000B6                             2957  1          =FSBTAXLN   DS    Y                       | Maximum length of entry
 0000B8                             2958  1          =FSBNAMXL   DS    Y                       | Max len of entry in node
 0000BA                             2959  1          =FSBNAXSP   DS    Y                       | Max free space per node
 0000BC                             2960  1          =FSBNANSP   DS    Y                       | Min free space per node
 0000BE                             2961  1          =FSBNFLEN   DS    Y                       File: Length of node
 0000C0                             2962  1          =FSBNFSPA   DS    Y                       | Free space in node
 0000C2                             2963  1          =FSBTFXLN   DS    Y                       | Maximum length of entry
 0000C4                             2964  1          =FSBNFMXL   DS    Y                       | Max len of entry in node
 0000C6                             2965  1          =FSBNFXSP   DS    Y                       | Max free space per node
 0000C8                             2966  1          =FSBNFNSP   DS    Y                       | Min free space per node
 0000CA                             2967  1          =FSBTXXLN   DS    Y                       Max len of extended data entry
 0000CC                             2968  1          =FSBLOGFR   DS    Y                       Minimum logical block count
1VSSW     (VSSW07) (09:49) (22MAR04) ORVYL'S INTERNAL SET, SHOW AND DUMP COMMANDS                                           Page   29
0Current Usings:  (PZERO,R0)
0D-Loc  Object Code    Addr1 Addr2  Stmt Lv Lineno    Source Statement           (Hibal 5, Asmedit 3.3)  HLASM R4.0  2004/03/22 09.49
+_____  ______ ____    _____ _____  ____ __ ______    ______ _________
00000CE                             2969  1          =FSBMNFRE   DS    Y                       Min num of free blks in Cat
                                    2970  1          =FSBBALLN   EQU   *-FSBBALST
                                    2971  1          =*
                                    2972  1          =*  BITMAP MANAGEMENT AREA
                                    2973  1          =*
 0000D0                             2974  1          =FSBBMCNO   DS    Y                       SPECIFIED CNT BLK# IN AVAIL LIST
 0000D4                             2975  1          =FSBBITSB   DS    A                       BIT MAP FIRST BLOCK
 0000D8                             2976  1          =FSBBITBC   DS    A                       BIT MAP BLOCK COUNT
 0000DC                             2977  1          =FSBABLK    DS    A                       NUMBER OF AVAILABLE BLOCKS
 0000E0                             2978  1          =FSBTBLK    DS    A                       TOTAL NUMBER OF BLOCKS
 0000E4                             2979  1          =FSBDBLK    DS    A                       DEFAULT BLOCK ALLOCATION
 0000E8                             2980  1          =FSBABNL    DS    A                       AVAILABLE BLOCK NUMBER LIST
                                    2981  1          =
 0000EC                             2982  1          =FSBSMF     DS    2A                      SMF STATISTICS WORK AREA
 0000F4                             2983  1          =FSBSTATS   DS    0X
 0000F4                             2984  1          =FSBCTRD    DS    F                       CATALOG READ COUNTER
 0000F8                             2985  1          =FSBCTRRD   DS    F                       CATALOG ROOT "READ" COUNTER
 0000FC                             2986  1          =FSBCTCRD   DS    F                       CATALOG CASHED READ COUNTER
 000100                             2987  1          =FSBCTBRD   DS    F                       CATALOG BALANCE READ COUNTER
 000104                             2988  1          =FSBCTWR    DS    F                       CATALOG WRITE COUNTER
 000108                             2989  1          =FSBCTIWR   DS    F                       CATALOG INTENTIONS WRITE CNT
 00010C                             2990  1          =FSBCTBWR   DS    F                       CATALOG BALANCE WRITE COUNTER
 000110                             2991  1          =FSBCTDWR   DS    F                       CATALOG DOUBLE WRITE COUNTER
                                    2992  1          =*
                                    2993  1          =*  Total IO's and IO time
                                    2994  1          =*
 000114                             2995  1          =FSBIOCT    DS    F                   Total I/O count
 000118                             2996  1          =FSBIOTIM   DS    D                   Total I/O time
                                    2997  1          =
 000120                             2998  1          =FSBCAT4K   DS    F                   Cat io 4K buffer (2K file sys only)
                                    2999  1          =
 000124                             3000  1          =CTFILATT   DS    F                   Number of files attached
 000128                             3001  1          =CTFILATM   DS    F                   | max number attached
 00012C                             3002  1          =CTFILAUS   DS    F                   Number of user attaches
 000130                             3003  1          =CTFILAUM   DS    F                   | max number of user attaches
 000134                             3004  1          =CTFILATP   DS    F                   Number of temp files attached
 000138                             3005  1          =CTFILAPM   DS    F                   | max number of temp files attached
000013C                             3007  1          =           DS    F                   Spare
                                    3008  1          =*
                                    3009  1          =* Note: don't modify the following counters in any way unless
                                    3010  1          =*       FILECB and the routine FDOIODO are also modified.
                                    3011  1          =*
                                    3012  1          =*  File read counts from disk
                                    3013  1          =*
 000140                             3014  1          =FSBFIOCT   DS    0D                  First IO count
 000140                             3015  1          =CTREADCT   DS    0D
 000140                             3016  1          =CTMASRCT   DS    D                   Master - read counts
 000148                             3017  1          =CTCATRCT   DS    D                   Catalog - read counts
 000150                             3018  1          =CTBITRCT   DS    D                   Bitmap - read counts
 000158                             3019  1          =CTIXRRCT   DS    D                   IXR - read counts
 000160                             3020  1          =CTUSERCT   DS    D                   User  - read counts
 000168                             3021  1          =CTOTHRCT   DS    D                   Other?? - read counts
                                    3022  1          =*
1VSSW     (VSSW07) (09:49) (22MAR04) ORVYL'S INTERNAL SET, SHOW AND DUMP COMMANDS                                           Page   30
0Current Usings:  (PZERO,R0)
0D-Loc  Object Code    Addr1 Addr2  Stmt Lv Lineno    Source Statement           (Hibal 5, Asmedit 3.3)  HLASM R4.0  2004/03/22 09.49
+_____  ______ ____    _____ _____  ____ __ ______    ______ _________
0                                   3023  1          =* Counter indexes - All counters are referenced with the
                                    3024  1          =* generic label and using one of the following indexes.
                                    3025  1          =*
                                    3026  1          =CTMASD     EQU   CTMASRCT-CTREADCT
                                    3027  1          =CTCATD     EQU   CTCATRCT-CTREADCT
                                    3028  1          =CTBITD     EQU   CTBITRCT-CTREADCT
                                    3029  1          =CTIXRD     EQU   CTIXRRCT-CTREADCT
                                    3030  1          =CTUSED     EQU   CTUSERCT-CTREADCT
                                    3031  1          =CTOTHD     EQU   CTOTHRCT-CTREADCT
                                    3032  1          =*
                                    3033  1          =*  File write counts
                                    3034  1          =*
 000170                             3035  1          =CTWRITCT   DS    0D
 000170                             3036  1          =CTMASWCT   DS    D                   Master - writes
 000178                             3037  1          =CTCATWCT   DS    D                   Catalog - writes
 000180                             3038  1          =CTBITWCT   DS    D                   Bitmap -  writes
 000188                             3039  1          =CTIXRWCT   DS    D                   IXR - writes
 000190                             3040  1          =CTUSEWCT   DS    D                   User -  writes
 000198                             3041  1          =CTOTHWCT   DS    D                   Other?? - writes
                                    3042  1          =FSBFIOCN   EQU   (*-FSBFIOCT)/L'FSBFIOCT
                                    3043  1          =*
                                    3044  1          =*  File read counts from cache
                                    3045  1          =*
 0001A0                             3046  1          =FSBFCACT   DS    0D                  First cache count
 0001A0                             3047  1          =CTCACHCT   DS    0D
 0001A0                             3048  1          =CTMASCCT   DS    D                   Master - read counts
 0001A8                             3049  1          =CTCATCCT   DS    D                   Catalog - read counts
 0001B0                             3050  1          =CTBITCCT   DS    D                   Bitmap - read counts
 0001B8                             3051  1          =CTIXRCCT   DS    D                   IXR - read counts
 0001C0                             3052  1          =CTUSECCT   DS    D                   User  - read counts
 0001C8                             3053  1          =CTOTHCCT   DS    D                   Other?? - read counts
                                    3054  1          =
                                    3055  1          =CTREADD    EQU   CTREADCT-FSBFIOCT
                                    3056  1          =CTWRITD    EQU   CTWRITCT-FSBFIOCT
                                    3057  1          =CTCACHD    EQU   CTCACHCT-FSBFIOCT
                                    3058  1          =
                                    3059  1          =FSBFCACN   EQU   (*-FSBFCACT)/L'FSBFCACT
                                    3060  1          =CTFILECT   EQU   CTREADCT,*-CTREADCT
                                    3061  1          =CTFILECC   EQU   (*-CTREADCT)/L'CTREADCT
00001D0                             3063  1          =           DS    4A                  Spare
00001E0                001E0 001E0  3065             =         END   ,
                                    3074      85.              COPY  CACHCB
                                    3075=            =
                                    3076=            =
                                    3077=            =        CAB -- Cache Buffer Entry
                                    3078=            =

0000000                00000 00050  3079             =CAB      RECORD BEGIN
 000000                             3087  1          =CABID      DS    C'CAB '             Self-identification
 000004                             3088  1          =CABLINK    DS    A                   Next CAB ptr (or zero)
                                    3089  1          =
1VSSW     (VSSW07) (09:49) (22MAR04) ORVYL'S INTERNAL SET, SHOW AND DUMP COMMANDS                                           Page   31
0Current Usings:  (PZERO,R0)
0D-Loc  Object Code    Addr1 Addr2  Stmt Lv Lineno    Source Statement           (Hibal 5, Asmedit 3.3)  HLASM R4.0  2004/03/22 09.49
+_____  ______ ____    _____ _____  ____ __ ______    ______ _________
0000008                             3090  1          =CABQF      DS    A                   Forw CAB ptr in LRU/FREE queue
 00000C                             3091  1          =CABQB      DS    A                   Back CAB ptr in LRU/FREE queue
                                    3092  1          =
 000010                             3093  1          =CABKEY     DS    D                   64-bit key for this buffer
                                    3094  1          =
 000018                             3095  1          =CABHDR     DS    XL32                32-byte header
 000038                             3096  1          =CABBUFP    DS    A                   Data buffer ptr (0 if dummy CAB)
 00003C                             3097  1          =CABVRFYD   DS    F                   Verification data
 000040                             3098  1          =CABNRDS    DS    F                   No. cache reads for this buffer
 000044                             3099  1          =CABNWRS    DS    F                   No. cache writes for this buffer
                                    3100  1          =CABNCOUNTS   EQU CABNRDS,*-CABNRDS,C'X'  Initialized counters
 000048                             3101  1          =           DS    F                   Reserved
 00004C                             3102  1          =CABCLCK    DS    F                   STCK time when queued
 000050                00050 00050  3103             =         END
1VSSW     (VSSW07) (09:49) (22MAR04) ORVYL'S INTERNAL SET, SHOW AND DUMP COMMANDS                                           Page   32
0Current Usings:  (PZERO,R0)
0Loc    Object Code    Addr1 Addr2  Stmt Lv Lineno    Source Statement           (Hibal 5, Asmedit 3.3)  HLASM R4.0  2004/03/22 09.49
+___    ______ ____    _____ _____  ____ __ ______    ______ _________
0                                   3113=            =
                                    3114=            =
                                    3115=            =        CIT -- Cache Information Table
                                    3116=            =

0000000                00000 000D0  3117             =CIT      RECORD BEGIN
 000000                             3125  1          =CITID      DS    C'CIT '             Self-identification
                                    3126  1          =
 000004 00                          3127  1          =CITFLAG    FLAG
 CITFLAG.CITFDISAB 80 ONES          3131  1          =           FLAG  CITFDISABLED        - Cache is disabled
 CITFLAG.CITFVERIF 40 ONES          3136  1          =           FLAG  CITFVERIFY          - Verify data integrity
                                    3141  1          =
 000008                             3142  1          =CITLOCK    DS    F                   Lock id
                                    3143= 1          =
                                    3144= 1          =             Statistics.
                                    3145= 1          =
 00000C                             3146  1          =CIT#RD     DS    F                   Number of CAREAD calls
 000010                             3147  1          =CIT#RDF    DS    F                   Number of CAREADs found in cache
 000014                             3148  1          =CIT#WR     DS    F                   Number of CAWRITE calls
                                    3149= 1          =
                                    3150= 1          =             Cache information.
                                    3151= 1          =
 000018                             3152  1          =CITDLEN    DS    F                   Data element size (in bytes)
 00001C                             3153  1          =CITDCUR    DS    F                   Current number of cache entries
 000020                             3154  1          =CITDMAX    DS    F                   Maximum number of cache entries
                                    3155  1          =
 000024                             3156  1          =           DS    2F                  Reserved
                                    3157  1          =
 00002C                             3158  1          =CITFREEQ   DS    XL(L'CAB)           Master free CAB entry
 00007C                             3159  1          =CITLRUQ    DS    XL(L'CAB)           Master LRU  CAB entry
                                    3160  1          =
                                    3161  1          =CITDEFH#   EQU   15121,,C'N'         Default number of hashed Q heads
 0000CC                             3162  1          =CITNHASH   DS    F                   Number of hashed queue heads
 0000D0                             3163  1          =CITHASHQ   DS    0A                  Start of hashed queue head ptrs
 0000D0                000D0 000D0  3164             =         END
                                    3173      86.              COPY  CACHCBH
                                    3174             =*
                                    3175             =*  Hiperspace cache
                                    3176             =*
                                    3177             =*        CABH -- Cache Buffer Entry
                                    3178             =*
 000000                00000 00050  3179             =CABH     RECORD BEGIN
 000000                             3187  1          =CABHBID    DS    C'CABH'             Self-identification
 000004                             3188  1          =CABHBLKN   DS    A                   ESO data block number
                                    3189  1          =
 000008                             3190  1          =CABHQUE    DS    0D
 000008                             3191  1          =CABHQFP    DS    A                   Forw CABH ptr in hash queue
 00000C                             3192  1          =CABHQBP    DS    A                   Back CABH ptr in hash queue
                                    3193  1          =
 000010                             3194  1          =CABHAGE    DS    0D
 000010                             3195  1          =CABHAFP    DS    A                   Forw CABH ptr in aging queue
 000014                             3196  1          =CABHABP    DS    A                   Back CABH ptr in aging queue
                                    3197  1          =
1VSSW     (VSSW07) (09:49) (22MAR04) ORVYL'S INTERNAL SET, SHOW AND DUMP COMMANDS                                           Page   33
0Current Usings:  (PZERO,R0)
0Loc    Object Code    Addr1 Addr2  Stmt Lv Lineno    Source Statement           (Hibal 5, Asmedit 3.3)  HLASM R4.0  2004/03/22 09.49
+___    ______ ____    _____ _____  ____ __ ______    ______ _________
0000018                             3198  1          =CABHKEY    DS    D                   64-bit key for this buffer
 000020                             3199  1          =CABHHDR    DS    XL32                32-byte header
 000040                             3200  1          =CABHTOD    DS    F                   Active since this time
 000044                             3201  1          =CABHCHK    DS    F                   Check sum result
 000048                             3202  1          =CABHNRDS   DS    F                   No. cache reads for this buffer
 00004C                             3203  1          =CABHNWRS   DS    F                   No. cache writes for this buffer
                                    3204  1          =CABHCLR    EQU   CABHKEY,*-CABHKEY
 000050                00050 00050  3205             =         END   ,
                                    3214             =*
                                    3215             =*        CITH -- Cache Information Table
                                    3216             =*
                                    3217             =* Cache buffers are chained of a queue in one of 16 hash tables.
                                    3218             =* The hash table is determined by the last 4 bits of the hash key.
                                    3219             =* This helps prevent lock contention because there are 16 locks.
                                    3220             =* The number of queues per hash table is determined by the number
                                    3221             =* of blocks defined for the cache.
                                    3222             =*
 000000                00000 00348  3223             =CITH     RECORD BEGIN
                                    3231  1          =
 000000                             3232  1          =CITHBID    DS    C'CITH'             Self-identification
 000004                             3233  1          =           DS    F                   Spare
 000008                             3234  1          =CITHSIZE   DS    A                   Length of this block
 00000C                             3235  1          =CITHTSIZ   DS    A                   Above plus length of CABH area
 000010                             3236  1          =CITHASH    DS    H                   Some nice prime number
 000012 00                          3237  1          =CITHFLAG   FLAG  ,
 CITHFLAG.CITHFCHK 80 ONES          3241  1          =           FLAG  CITHFCHK            Check sum option
 000013                             3246  1          =           DS    X                   Spare
 000014                             3247  1          =           DS    F                   Spare
 000018                             3248  1          =CITHNBUF   DS    F                   Number of cache buffers
 00001C                             3249  1          =           DS    F                   Spare
                                    3250= 1          =
                                    3251= 1          =             Statistics.
                                    3252= 1          =
 000020                             3253  1          =CITH#RD    DS    F                   Number of CAREAD calls
 000024                             3254  1          =CITH#RDF   DS    F                   Number of CAREADs found in cache
 000028                             3255  1          =CITH#RDS   DS    F                   Number of stollen blocks
 00002C                             3256  1          =CITH#WR    DS    F                   Number of CAWRITE calls
 000030                             3257  1          =CITH#RDT   DS    D                   Total read IO time (found only)
 000038                             3258  1          =CITH#WRT   DS    D                   Total write IO time
                                    3259  1          =
 000040                             3260  1          =CITHCTL    DS    0XL48               Control areas
 000040                             3261  1          =CITHCBID   DS    C'CIT0'             Eye catcher
 000044                             3262  1          =CITHGRES   DS    A                   Reserve ID
 000048                             3263  1          =CITHIORB   DS    A                   IORB address
 00004C                             3264  1          =CITHAFP    DS    A                   Aging queue forward pointer
 000050                             3265  1          =CITHABP    DS    A                   Aging queue backward pointer
 000054                             3266  1          =CITHTOKN   DS    F                   Hiperspace token
 000058                             3267  1          =CITHESO    DS    XL24                ESO parm area
 000070                             3268  1          =           DS    15XL(L'CITHCTL)     16 total
                                    3269  1          =
 000340                             3270  1          =CITHQUE    DS    0D                  Hash queues
 000340                             3271  1          =CITHQFP    DS    A                   Forward pointer
 000344                             3272  1          =CITHQBP    DS    A                   Backward pointer
 000348                00348 00348  3273             =         END
1VSSW     (VSSW07) (09:49) (22MAR04) ORVYL'S INTERNAL SET, SHOW AND DUMP COMMANDS                                           Page   34
0Current Usings:  (PZERO,R0)
0Loc    Object Code    Addr1 Addr2  Stmt Lv Lineno    Source Statement           (Hibal 5, Asmedit 3.3)  HLASM R4.0  2004/03/22 09.49
+___    ______ ____    _____ _____  ____ __ ______    ______ _________
0                                   3282      87.              COPY  QLISTMAC
                                    3283             =*******************************************************************
                                    3284             =*                                                                 *
                                    3285             =* These macros are used to update double linked memory lists.     *
                                    3286             =* Serialization is achieved using the PLO instruction. If a       *
                                    3287             =* memory block containing the list head needs to be locked anyway *
                                    3288             =* then the macros in LSTMAC would be better than these.           *
                                    3289             =* Conversely any existing use of LSTMAC macros might be           *
                                    3290             =* converted to this mechanism to avoid using locking.             *
                                    3291             =*                                                                 *
                                    3292             =*******************************************************************
0                                   3294             =*******************************************************************
                                    3295             =*                                                                 *
                                    3296             =* Double linked list head fields                                  *
                                    3297             =*                                                                 *
                                    3298             =*******************************************************************
                                    3299             =         MACRO
                                    3300             =&LAB     QHEAD
                                    3301             =         AIF   ('&LAB' EQ '').ERR
                                    3302             =         DS   0D
                                    3303             =&LAB     DS   0XL(16)              Double linked PLO list
                                    3304             =&LAB.FP  DS    A                   Forward pointer
                                    3305             =&LAB.BP  DS    A                   Backward pointer
                                    3306             =&LAB.SEQ DS    A                   CDS sequence number
                                    3307             =&LAB.CNT DS    A                   Count of items
                                    3308             =         MEXIT
                                    3309             =.ERR     MNOTE 8,'Label (list name) required'
                                    3310             =         MEND
0                                   3312             =*******************************************************************
                                    3313             =*                                                                 *
                                    3314             =* Parameters for the double linked list manipulation routines     *
                                    3315             =* in RESMAN                                                       *
                                    3316             =*                                                                 *
                                    3317             =*******************************************************************
 000000                00000 00010  3318             =@QUE    RECORD BEGIN               List Add/Remove
 000000                             3326  1          =@QUESEQ    DS    D                   Doubleword sequence value
 000008                             3327  1          =@QUEITM    DS    A                   Address of item
 00000C                             3328  1          =@QUELHD    DS    A                   Address of list head
 000010                00010 00010  3329             =         END   ,
0                                   3339             =*******************************************************************
                                    3340             =*                                                                 *
                                    3341             =* Add an item to the end of a double linked list                  *
                                    3342             =*                                                                 *
                                    3343             =*******************************************************************
                                    3344             =         MACRO
                                    3345             =&LABEL   Q_QUE &HEAD=,&ITEM=
                                    3346             =         AIF   ('&LABEL' EQ '').NOLAB
                                    3347             =&LABEL   LABEL ,
                                    3348             =.NOLAB   ANOP  ,
                                    3349             =         AIF   ('&HEAD' EQ '').ERR1
                                    3350             =         AIF   ('&ITEM' EQ '').ERR2
1VSSW     (VSSW07) (09:49) (22MAR04) ORVYL'S INTERNAL SET, SHOW AND DUMP COMMANDS                                           Page   35
0Current Usings:  (PZERO,R0)
0Loc    Object Code    Addr1 Addr2  Stmt Lv Lineno    Source Statement           (Hibal 5, Asmedit 3.3)  HLASM R4.0  2004/03/22 09.49
+___    ______ ____    _____ _____  ____ __ ______    ______ _________
0                                   3352             =         PSET  @QUE,CLEAR=NO
                                    3353             =         LM    R14,R15,&HEAD.SEQ
                                    3354             =         STM   R14,R15,@QUESEQ     Set sequence stuff
                                    3355             =         PMOV  @QUELHD,LA:&HEAD
                                    3356             =         PMOV  @QUEITM,LA:&ITEM
                                    3357             =         LOOP  BEGIN
                                    3358             =         VCALL QUEUE               Add item to end of list
                                    3359             =         UNTIL (RVR,Z),END
                                    3361             =         AGO   .EXIT
                                    3362             =.ERR1    MNOTE 8,'Head is a required parameter'
                                    3363             =         AGO   .EXIT
                                    3364             =.ERR2    MNOTE 8,'Item is a required parameter'
                                    3365             =.EXIT    ANOP  ,
                                    3366             =         MEND  ,
0                                   3368             =*******************************************************************
                                    3369             =*                                                                 *
                                    3370             =* Remove an item from a double linked list                        *
                                    3371             =*                                                                 *
                                    3372             =*******************************************************************
                                    3373             =         MACRO
                                    3374             =&LABEL   Q_REM &HEAD=,&ITEM=
                                    3375             =         AIF   ('&LABEL' EQ '').NOLAB
                                    3376             =&LABEL   LABEL ,
                                    3377             =.NOLAB   ANOP  ,
                                    3378             =         AIF   ('&HEAD' EQ '').ERR1
                                    3379             =         AIF   ('&ITEM' EQ '').ERR2
                                    3381             =         PSET  @QUE,CLEAR=NO
                                    3382             =         LM    R14,R15,&HEAD.SEQ
                                    3383             =         STM   R14,R15,@QUESEQ     Set sequence stuff
                                    3384             =         PMOV  @QUELHD,LA:&HEAD
                                    3385             =         PMOV  @QUEITM,LA:&ITEM
                                    3386             =         LOOP  BEGIN
                                    3387             =         VCALL QUEREM              Add item to nd of list
                                    3388             =         UNTIL (RVR,Z),END
                                    3390             =         AGO   .EXIT
                                    3391             =.ERR1    MNOTE 8,'Head is a required parameter'
                                    3392             =         AGO   .EXIT
                                    3393             =.ERR2    MNOTE 8,'Item is a required parameter'
                                    3394             =.EXIT    ANOP  ,
                                    3395             =         MEND  ,
0                                   3397             =*******************************************************************
                                    3398             =*                                                                 *
                                    3399             =* Add item to beginning of double linked list                     *
                                    3400             =*                                                                 *
                                    3401             =*******************************************************************
                                    3402             =         MACRO
                                    3403             =&LABEL   Q_PSH &HEAD=,&ITEM=
                                    3404             =         AIF   ('&LABEL' EQ '').NOLAB
                                    3405             =&LABEL   LABEL ,
                                    3406             =.NOLAB   ANOP  ,
                                    3407             =         AIF   ('&HEAD' EQ '').ERR1
                                    3408             =         AIF   ('&ITEM' EQ '').ERR2
1VSSW     (VSSW07) (09:49) (22MAR04) ORVYL'S INTERNAL SET, SHOW AND DUMP COMMANDS                                           Page   36
0Current Usings:  (PZERO,R0)
0Loc    Object Code    Addr1 Addr2  Stmt Lv Lineno    Source Statement           (Hibal 5, Asmedit 3.3)  HLASM R4.0  2004/03/22 09.49
+___    ______ ____    _____ _____  ____ __ ______    ______ _________
0                                   3410             =         PSET  @QUE,CLEAR=NO
                                    3411             =         LM    R14,R15,&HEAD.SEQ
                                    3412             =         STM   R14,R15,@QUESEQ     Set sequence stuff
                                    3413             =         PMOV  @QUELHD,LA:&HEAD
                                    3414             =         PMOV  @QUEITM,LA:&ITEM
                                    3415             =         LOOP  BEGIN
                                    3416             =         VCALL QUEPUSH             Add item to end of list
                                    3417             =         UNTIL (RVR,Z),END
                                    3419             =         AGO   .EXIT
                                    3420             =.ERR1    MNOTE 8,'Head is a required parameter'
                                    3421             =         AGO   .EXIT
                                    3422             =.ERR2    MNOTE 8,'Item is a required parameter'
                                    3423             =.EXIT    ANOP  ,
                                    3424             =         MEND  ,
0                                   3426      88.              COPY  GRCOPY
                                    3427             =*******************************************************************
                                    3428             =*                                                                 *
                                    3429             =* GRCT - General Resource Control Table                           *
                                    3430             =*        Pointed to out of the MAT                                *
                                    3431             =*                                                                 *
                                    3432             =*******************************************************************
 000000                00000 00020  3433             =GRCT    RECORD BEGIN               General Resource Pool Control
0000000 C7D9C3E3                    3442  1          =GRCBID     DC    CL4'GRCT'
 000004                             3443  1          =           DS    XL12                Spare
0                                   3445  1          =GRCAR      SHEAD                     Avail resource item list
 000010                             3446  1 01-02003 +GRCAR      DS   0D                   Single linked CDS list
 000010                             3447  1 01-02004 +GRCARFP    DS    A                   Forward pointer
 000014                             3448  1 01-02005 +GRCARSEQ   DS    A                   CDS sequence number
                                    3449  1          =GRCAH      SHEAD                     Avail resource hold item list
 000018                             3450  1 01-02003 +GRCAH      DS   0D                   Single linked CDS list
 000018                             3451  1 01-02004 +GRCAHFP    DS    A                   Forward pointer
 00001C                             3452  1 01-02005 +GRCAHSEQ   DS    A                   CDS sequence number
0000020                00020 00020  3454             =         END   ,
0                                   3464             =*******************************************************************
                                    3465             =*                                                                 *
                                    3466             =* GRITEM - General Resource Item                                  *
                                    3467             =*          There is an item for each General Resource defined in  *
                                    3468             =*          the system.                                            *
                                    3469             =*                                                                 *
                                    3470             =*******************************************************************
 000000                00000 00020  3471             =GRITEM  RECORD BEGIN               General Resource DCB Item
0000000 C7D9C5E2                    3480  1          =GRIBID     DC    CL4'GRES'
0000004                             3482  1          =GRICID     DS    A                   Creater id
0000008                             3484  1          =GRIHCNT    DS    A                   Count of holds
 00000C                             3485  1          =GRIWCNT    DS    A                   Count of waits
1VSSW     (VSSW07) (09:49) (22MAR04) ORVYL'S INTERNAL SET, SHOW AND DUMP COMMANDS                                           Page   37
0Current Usings:  (PZERO,R0)
0Loc    Object Code    Addr1 Addr2  Stmt Lv Lineno    Source Statement           (Hibal 5, Asmedit 3.3)  HLASM R4.0  2004/03/22 09.49
+___    ______ ____    _____ _____  ____ __ ______    ______ _________
0                                   3487  1          =GRIHL      QHEAD                     Resource hold item list
 000010                             3488  1 01-03302 +           DS   0D
 000010                             3489  1 01-03303 +GRIHL      DS   0XL(16)              Double linked PLO list
 000010                             3490  1 01-03304 +GRIHLFP    DS    A                   Forward pointer
 000014                             3491  1 01-03305 +GRIHLBP    DS    A                   Backward pointer
 000018                             3492  1 01-03306 +GRIHLSEQ   DS    A                   CDS sequence number
 00001C                             3493  1 01-03307 +GRIHLCNT   DS    A                   Count of items
0000020                00020 00020  3495             =         END   ,
0                                   3505             =*******************************************************************
                                    3506             =*                                                                 *
                                    3507             =* GRHITM - General Resource Hold item                             *
                                    3508             =*          One of these is created for every hold request for a   *
                                    3509             =*          resource item and is deleted when the resource hold is *
                                    3510             =*          released.                                              *
                                    3511             =*                                                                 *
                                    3512             =*******************************************************************
 000000                00000 00020  3513             =GRHITM   RECORD BEGIN              General Resource Hold Item
0000000                             3522  1          =GRHFP      DS    A                   Forward chain pointer
 000004                             3523  1          =GRHBP      DS    A                   Backward chain pointer
0000008 C7D9C840                    3525  1          =GRHBID     DC    CL4'GRH'
000000C 00                          3527  1          =GRHXBS     FLAG  ,
 GRHXBS.GRHXHOLD   80 ONES          3531  1          =           FLAG  GRHXHOLD            Resource held (not waiting)
 GRHXBS.GRHXEXCL   40 ONES          3536  1          =           FLAG  GRHXEXCL            Hold resource exclusivly
 GRHXBS.GRHXX2S    20 ONES          3541  1          =           FLAG  GRHXX2S             Hold changed from excl to shr
 GRHXBS.GRHXCANC   10 ONES          3546  1          =           FLAG  GRHXCANC            Wait cancelled
 00000D                             3551  1          =GRHRTN     DS    XL3                 Caller return address
0000010                             3553  1          =GRHGRIT    DS    A                   GR item this belongs to
0000014                             3555  1          =GRHASB     DS    A                   Address space id
 000018                             3556  1          =GRHPIDP    DS    D                   Post ID
 000020                00020 00020  3557             =         END   ,
                                    3566      89.              COPY  ATFB
                                    3567             =*
                                    3568             =* Attached file blocks hash table
                                    3569             =*
 000000                00000 00FDC  3570             =AHFB    RECORD BEGIN
0000000 C1C8C6C2                    3579  1          =AHFBID     DC    CL4'AHFB'
 000004                             3580  1          =AHFBGRID   DS    A                   Resource id
 000008                             3581  1          =AHFBFSB    DS    A                   Point back to FSB
 00000C                             3582  1          =           DS    A                   Spare
0                                   3584  1          =AHFBCNT    EQU   337                 Nice big prime number
                                    3585  1          =AHFBLEN    EQU   4096                They will fit in a page
0                                   3587  1          =* File attached blocks (ATFB) are chained off of one of the following
                                    3588  1          =* queues determined by hashing the file name.
1VSSW     (VSSW07) (09:49) (22MAR04) ORVYL'S INTERNAL SET, SHOW AND DUMP COMMANDS                                           Page   38
0Current Usings:  (PZERO,R0)
0Loc    Object Code    Addr1 Addr2  Stmt Lv Lineno    Source Statement           (Hibal 5, Asmedit 3.3)  HLASM R4.0  2004/03/22 09.49
+___    ______ ____    _____ _____  ____ __ ______    ______ _________
0                                   3590  1          =AHFBL      LHEAD PFX=AHFBL           first list head
                                    3591  1 01-LHEAD +AHFBL      EQU   *,12,C'N'
 000010                             3592  1 01-LHEAD +AHFBLFP    DS    A                       Forward pointer
 000014                             3593  1 01-LHEAD +AHFBLBP    DS    A                       Backward pointer
 000018                             3594  1 01-LHEAD +AHFBLCNT   DS    A                       Number of elements in list
 00001C                             3595  1          =           DS    (AHFBCNT-1)XL(L'AHFBL) All the rest of them
 000FDC                00FDC 00FDC  3596             =         END   ,
                                    3605             =*
                                    3606             =* Attached File Block
                                    3607             =*
 000000                00000 00050  3608             =ATFB    RECORD BEGIN
0000000                             3617  1          =ATFBFP     DS    A                   fwd ptr
 000004                             3618  1          =ATFBBP     DS    A                   bwd ptr
0000008 C1E3C6C2                    3620  1          =ATFBID     DC    CL4'ATFB'
000000C 00                          3622  1          =ATFBMASK   FLAG  ,                   File mask
 00000D 00                          3626  1          =ATFBFLAG   FLAG  ,
 ATFBFLAG.ATFBFRES 80 ONES          3630  1          =           FLAG  ATFBFRES            File is reserved
 ATFBFLAG.ATFBFTIM 40 ONES          3635  1          =           FLAG  ATFBFTIM            Update the file access time
                                    3640  1          =*                                  after last detach
 00000E                             3641  1          =ATFBCNT    DS    H                   Count of users attached
0000010                             3643  1          =ATFBFBLK   DS    A                   First block number
 000014                             3644  1          =ATFBBLKC   DS    A                   Block count (non-IXR'd)
0000018                             3646  1          =ATFBATL    DS    A                   Attached file hash list slot
000001C                             3648  1          =ATFBAGRI   DS    A                   Attach resource ID
 000020                             3649  1          =ATFBRGRI   DS    A                   File reserve resource ID
 000024                             3650  1          =ATFBFSB    DS    A                   FSB pointer
 000028                             3651  1          =ATFBNAME   DS    CL(CFSBFLSZ)        File Name
 000050                00050 00050  3652             =         END   ,
1VSSW     (VSSW07) (09:49) (22MAR04) ORVYL'S INTERNAL SET, SHOW AND DUMP COMMANDS                                           Page   39
0Current Usings:  (PZERO,R0)
0Loc    Object Code    Addr1 Addr2  Stmt Lv Lineno    Source Statement           (Hibal 5, Asmedit 3.3)  HLASM R4.0  2004/03/22 09.49
+___    ______ ____    _____ _____  ____ __ ______    ______ _________
0                                   3662      91.
                                    3663      92.                WORK AREA
                                    3664      93.
 000000                00000 00090  3665      94.     WA       DSECT
 000000                             3666      95.              VSA   SR,RAR
                                    3668      96.
 000020 00                          3669      97.     WAFL     FLAG  ,                       MISC FLAGS
 WAFL.WAFLSYS      80 ONES          3673      98.              FLAG  WAFLSYS                 SYSTEM PRIVS
 WAFL.WAFLINS      40 ONES          3678      99.              FLAG  WAFLINS                 INSIDER
                                    3683     100.              KWREC FLAGS
                                    3702     101.
 000028                             3703     102.     AREA     DS    0D
 000028                             3704     103.     WAORVST  DS    2A
 000030                             3705     104.     WACPUT   DS    2A
 000038                             3706     105.     WADSPT   DS    2A
 000040                             3707     106.     WAIOT    DS    2A
 000048                             3708     107.     WAORVCPU DS    2A                      ORVYL CPU TIME CONSUMED
                                    3709     108.
 000050                00050 00028  3710     109.              ORG   AREA
 000028                             3711     110.     WAUNEXT  DS    A                       NEXT ASB IN CHAIN
 00002C                             3712     111.     WAUIOS   DS    A                       USER I/O COUNT
 000030                             3713     112.     WAUCPU   DS    2A                      USER CPU TIME
 000038                             3714     113.     WAUID    DS    CL8                     USER ID
 000040                             3715     114.     WAUPGNM  DS    CL8                     PROGRAM NAME
 000048                             3716     115.     WAUTID   DS    A                       TERMINAL ID
                                    3717     116.     WAUAREA  EQU   WAUNEXT,*-WAUNEXT,C'X'
                                    3718     117.
 00004C                0004C 00028  3719     118.              ORG   AREA
                                    3720     119.     WAVISTRT EQU   *                   Start of SHOW VINFO wa
 000028                             3721     120.     WAVIDISK DS    D
 000030                             3722     121.     WAVICACH DS    D
                                    3723     122.     WAVIWA   EQU   WAVISTRT,*-WAVISTRT,C'X'
                                    3724     123.
 000038                00038 00028  3725     124.              ORG   AREA
                                    3726     125.     WAVBSTRT EQU   *                   Start of SHOW VBLOCKS wa
 000028                             3727     126.     WAVBTEMP DS    XL64                Temporary work area
 000068                             3728     127.     WAVBAVA  DS    F
 00006C                             3729     128.     WAVBTOT  DS    F
 000070                             3730     129.     WAVBTIO  DS    D
 000078                             3731     130.     WAVBCAC  DS    D
 000080 00                          3732     131.     WAVBFL1  FLAG
 WAVBFL1.WAVBFBTF  80 ONES          3736     132.              FLAG  WAVBFBTF            - BTF format
 WAVBFL1.WAVBFDFF  40 ONES          3741     133.              FLAG  WAVBFDFF            - DFF format
 000081                             3746     134.     WAVBFSID DS    X
                                    3747     135.     WAVBWA   EQU   WAVBSTRT,*-WAVBSTRT,C'X'
                                    3748     136.
 000082                00082 00028  3749     137.              ORG   AREA
                                    3750     138.     WAVFSTRT EQU   *                   Start of SHOW VFILES wa
 000028 00                          3751     139.     WAVFL1   FLAG
 WAVFL1.WAVFRESV   80 ONES          3755     140.              FLAG  WAVFRESV            - Exclusive and reserved only
 WAVFL1.WAVFNODI   40 ONES          3760     141.              FLAG  WAVFNODI            - Don't display files
 WAVFL1.WAVFCNTS   20 ONES          3765     142.              FLAG  WAVFCNTS            - Display counts
 WAVFL1.WAVFFID    10 ONES          3770     143.              FLAG  WAVFFID             - Display for this file system
 000029 00                          3775     144.     WAVFL2   FLAG  ,
1VSSW     (VSSW07) (09:49) (22MAR04) ORVYL'S INTERNAL SET, SHOW AND DUMP COMMANDS                                           Page   40
0Current Usings:  (PZERO,R0)
0Loc    Object Code    Addr1 Addr2  Stmt Lv Lineno    Source Statement           (Hibal 5, Asmedit 3.3)  HLASM R4.0  2004/03/22 09.49
+___    ______ ____    _____ _____  ____ __ ______    ______ _________
0WAVFL2.WAVFRES    80 ONES          3779     145.              FLAG  WAVFRES             - Process reserve queue
 WAVFL2.WAVFADDR   40 ONES          3784     146.              FLAG  WAVFADDR            - Display ATFB address
 WAVFL2.WAVFSHOR   20 ONES          3789     147.              FLAG  WAVFSHOR            - Display only one instance
 00002A                             3794     148.     WAVFLLEN DS    H                   LIKE text length
 00002C                             3795     149.     WAVFLIKE DS    CL40                LIKE match text
 000054                             3796     150.     WAVFLNO  DS    F                   Milten lineno to match (0=all)
 000058                             3797     151.     WAVFIFID DS    F                   Input FID
                                    3798     152.
 00005C                             3799     153.     WAVFNFSB DS    A                   Next file system ptr
 000060                             3800     154.     WAVFAHFB DS    A                   Current hash table ptr
 000064                             3801     155.     WAVFAHFN DS    F                   Hash queue number
 000068                             3802     156.     WAVFAHSV DS    CL(L'AHFBL)         Saved hash queue ptrs
 000074                             3803     157.     WAVFGRSV DS    CL(L'GRIHL)         Saved GRES queue ptrs
 000084                             3804     158.     WAVFNAME DS    2A                  File name and length save
 00008C                             3805     159.     WAVFUSER DS    CL3                 This user only
 00008F                             3806     160.     WAVFDFID DS    X                   Display file id
                                    3807     161.     WAVFWA   EQU   WAVFSTRT,*-WAVFSTRT,C'X'
                                    3808     162.
 000090                00090 00028  3809     163.              ORG   AREA
 000028                             3810     164.     WACACHE  DS    A                       Set Vcache work area
                                    3811     165.
 00002C                0002C 00090  3812     166.              ORG   ,
                                    3813     167.     WASIZE   EQU   *-WA
                                    3814     168.     *
                                    3815     169.     *
                                    3816     170.     SETON    EQU   0
                                    3817     171.     SETOFF   EQU   4
                                    3818     172.     SETPATH  EQU   0
                                    3819     173.     SETJES   EQU   4
                                    3820     174.     SETOSF   EQU   8
                                    3821     175.     SETNET   EQU   12
1VSSW     (VSSW07) (09:49) (22MAR04) ORVYL'S INTERNAL SET, SHOW AND DUMP COMMANDS                                           Page   41
0Current Usings:  (PZERO,R0)
0D-Loc  Object Code    Addr1 Addr2  Stmt Lv Lineno    Source Statement           (Hibal 5, Asmedit 3.3)  HLASM R4.0  2004/03/22 09.49
+_____  ______ ____    _____ _____  ____ __ ______    ______ _________
0000015                00000 02940  3824     178.     VSSW     CSECT
                                    3826     179.     *
                                    3827     180.     *
 USING  CLW,R10                     3828     181.              USING CLW,CLWR                ##
 USING  WA,R8                       3837     182.              USING WA,WAR                  ##
                                    3846     183.     *  SYSTEM COMMANDS
                                    3847     184.     *
 000015 00/9029 D000         00000  3848     185.     CLPSYST2 VENTER SR,RAR,WASIZE
 00001A 188D/41D0 D090       00090  3852             +
 000020 0D70                        3856             +
 USING  *,R7
                                    3868     186.     BASE2    EQU   *+4094
 000022 4160 7FFE            01020  3869     187.              LA    BRR,BASE2
 USING  BASE2,R6                    3870     188.              USING BASE2,BRR               ##
 000026                             3879     189.              CLEAR (WAFL,4)
 000026 D703 8020 8020 00020 00020  3885             +
 00002C 183F                        3886     190.              LR    TR,R15                  SAVE ENTRY CODE
 00002E 4100 0028/0AED       00028  3887     191.              CLPSERV PRIVTST               UPDATE PRIVS
 000034 5820 A000            00000  3896     192.              L     SR,CLWSCP               SCP POINTER
 USING  SCP,R2                      3897     193.              USING SCP,SR
 000038 9120 21B7      001B7        3906     194.              IF    ('TM  SCPPRIV,KWRIFSPR',O),'SET  WAFLSYS'
 00003C 47E0 7022            00044  3914             +
 000040 9680 8020      00020        3925             +
 DROP   SCP,R2                      3930     195.              DROP  SCP
 000044 4100 003C/0AED       0003C  3938     196.              CLPSERV LOCCT                 SENSE CT ADDRESS
 00004A 18C1                        3947     197.              LR    CTR,R1
 00004C 4D70 728E            002B0  3948     198.              BAS   BR,CMDTABLE
 DROP   *,R7                        3949     199.              USING BASE,BR                 ## BASE IS EXIT
 USING  BASE,R7
                                    3961     200.     BASE     EQU   *
                                    3962     201.     *  EXIT
 000050 4700 0000            00000  3963     202.              BC    0,0                     NOP for FSCALL erorr rets
 000054 4700 0000            00000  3964     203.              BC    0,0                     NOP for FSCALL erorr rets
 000058 1BFF                        3965     204.              SR    R15,R15                 SET OK RETURN
                                    3966     205.
 00005A 182F                        3967     206.     SHRET    LR    SR,R15
 00005C 4D90 7258            002A8  3968     207.              LCALL AMODE24             Force return to 24 bit mode
 000060 18F2                        3970     208.              LR    R15,SR
                                    3971     209.
 000062 94F7 A208      00208        3972     210.              CLEAR CLWFOSC
 000066 18D8/9829 D000       00000  3979     211.              VEXIT SR,RAR,LTR
 00006C 12FF/07F9                   3983             +
                                    3985     212.
 000070 1000                        3986     213.     SCRET    LPR   R0,R0
 000072 4780 709E            000EE  3987     214.              BZ    MISSING
 000076 4590 70DA            0012A  3988     215.     ILLSTR   SEG   (1),(0)
 00007A 4110 0000            00000  4003     216.              SEG   ': Invalid string'
 00007E 4590 6B80            01BA0  4005             +
 000082 47F0 70BE            0010E  4006     217.              B     ERROR
                                    4007     218.
 000086 4110 0011            00011  4008     219.     REQABORT SEG   'Request aborted'
 00008A 4590 6B80            01BA0  4010             +
 00008E 47F0 70BE            0010E  4011     220.              B     ERROR
                                    4012     221.
1VSSW     (VSSW07) (09:49) (22MAR04) ORVYL'S INTERNAL SET, SHOW AND DUMP COMMANDS                                           Page   42
0Current Usings:  (PZERO,R0) (BASE2,R6) (BASE,R7) (WA,R8) (CLW,R10)
0D-Loc  Object Code    Addr1 Addr2  Stmt Lv Lineno    Source Statement           (Hibal 5, Asmedit 3.3)  HLASM R4.0  2004/03/22 09.49
+_____  ______ ____    _____ _____  ____ __ ______    ______ _________
0000092 9104 A209/07E9 00209        4013     222.     PRVPTEST IF    ~CLWPFPRV,RAR            PRIVATE PROGRAM?
 000098 4110 0021            00021  4032     223.              SEG   'Private program loaded, command blocked'
 00009C 4590 6B80            01BA0  4034             +
 0000A0 47F0 70BE            0010E  4035     224.              B     ERROR
                                    4036     225.
 0000A4 9180 8020/0719 00020        4037     226.     SYSTEST  IF    WAFLSYS,RAR
 0000AA                             4056     227.     PRIVCMD  LABEL ,
 0000AA 4120 A2CF            002CF  4058     228.              LA    SR,CLWKWKW+7            LAST BYTE OF KEYWORD
 0000AE 4130 0008            00008  4059     229.              LA    TR,L'CLWKWKW            LENGTH OF KEYWORD
 0000B2                             4060     230.     PRIVLOOK LABEL ,
 0000B2 9540 2000      00000        4062     231.              CLI   @SR,C' '                STILL BLANK
 0000B6 4770 7070            000C0  4063     232.              BNE   PRIVGOT                 NOPE -- REPORT INVALID
 0000BA 0620                        4064     233.              DECR  SR                      BACK OFF ADDRESS
 0000BC 4630 7062            000B2  4066     234.              BCT   TR,PRIVLOOK             KEEP LOOKING FOR LAST CHAR
 0000C0                             4067     235.     PRIVGOT  LABEL ,
 0000C0 4110 A2C8            002C8  4069     236.              LA    R1,CLWKWKW              ADDRESS OF KEYWORD
 0000C4 1803                        4070     237.              LR    R0,TR                   ACTUAL LENGTH
 0000C6 47F0 70AA            000FA  4071     238.              B     UNREC                   TELL THE BAD NEWS
0                                   4073     240.
 0000CA 4110 0049            00049  4074     241.     ILLVAL   SEG   'Invalid value'
 0000CE 4590 6B80            01BA0  4076             +
 0000D2 47F0 70BE            0010E  4077     242.              B     ERROR
                                    4078     243.
 0000D6 4110 0057            00057  4079     244.     ILLADDR  SEG   'Invalid address'
 0000DA 4590 6B80            01BA0  4081             +
 0000DE 47F0 70BE            0010E  4082     245.              B     ERROR
                                    4083     246.
 0000E2 4110 0067            00067  4084     247.     ILLINE   SEG   'Invalid line'
 0000E6 4590 6B80            01BA0  4086             +
 0000EA 47F0 70BE            0010E  4087     248.              B     ERROR
                                    4088     249.
 0000EE 4110 0074            00074  4089     250.     MISSING  SEG   'Missing operand'
 0000F2 4590 6B80            01BA0  4091             +
 0000F6 47F0 70BE            0010E  4092     251.              B     ERROR
                                    4093     252.     *
                                    4094     253.     *  UNRECOGNIZED NAME
                                    4095     254.     *
 0000FA                             4096     255.     UNREC    LABEL ,
 0000FA 4590 70DA            0012A  4098     256.              SEG   (1),(0)
 0000FE 4110 0084            00084  4112     257.              SEG   ': Invalid'
 000102 4590 6B80            01BA0  4114             +
 000106 47F0 70BE            0010E  4115     258.              B     ERROR
 00010A 4590 70DA            0012A  4116     259.     ERRORMSG SEG   (1),(0)                 SEG MESSAGE
 00010E                             4131     260.     ERROR    LABEL ,                       BE GRAMATICAL
 00010E 5890 6BE8/0D99       01C08  4133     261.              VCALL TYPEIT
 000114 07F7                        4137     262.              BR    BR                      EXIT
                                    4138     263.
 000116                             4139     264.     WYLMIL   LABEL ,
 000116 41F0 0004            00004  4141     265.              LA    R15,4                   SEND CODE
 00011A 47F0 700A            0005A  4142     266.              B     SHRET                   SEND 'SHOW' ON TO MILTEN
                                    4143     267.
 00011E 4590 70DA            0012A  4144     268.     MSGEXIT  SEG   (1),(0)
 000122 5890 6BEC/0D99       01C0C  4159     269.     WRITEXIT VWRITE
1VSSW     (VSSW07) (09:49) (22MAR04) ORVYL'S INTERNAL SET, SHOW AND DUMP COMMANDS                                           Page   43
0Current Usings:  (PZERO,R0) (BASE2,R6) (BASE,R7) (WA,R8) (CLW,R10)
0D-Loc  Object Code    Addr1 Addr2  Stmt Lv Lineno    Source Statement           (Hibal 5, Asmedit 3.3)  HLASM R4.0  2004/03/22 09.49
+_____  ______ ____    _____ _____  ____ __ ______    ______ _________
0000128 07F7                        4164     270.              BR    BR
                                    4165     271.
 00012A 5090 D000            00000  4166     272.     SEG      VPUSH RAR,,*
 00012E 41D0 D004            00004  4168             +
 000132 5890 6BF0/0D99       01C10  4169     273.              VSEG  (1),(0)
 000138 4BD0 6C60            01C80  4186     274.              VPOP  RAR,,*
 00013C 5890 D000            00000  4188             +
 000140 07F9                        4189     275.              BR    RAR
                                    4190     276.
                                    4191     277.
                                    4192     278.       PRCT -- Local routine to do percentage.
                                    4193     279.         On entry:  Seg's R0/R1 as a percentage.
                                    4194     280.

0000142                             4195     281.     PRCT0    LABEL ,
 000142 9200 A2E8      002E8        4197     282.              MVI   CLWTEMP,0
 000146 47F0 7112            00162  4198     283.              B     PRCT9
 00014A                             4199     284.     PRCT4    LABEL ,                   Double math
 00014A 1200/4780 710C       0015C  4201     285.              WHILE (R0,NZ),BEGIN    Seg's R14/R0 percent
 000150 8C00 0001            00001  4217  1  286.                SRDL  R0,1
 000154 8CE0 0001            00001  4218  1  287.                SRDL  R14,1
 000158 47F0 70FA            0014A  4219     288.              END   ,
 00015C 180F                        4224     289.              LR    R0,R15
 00015E 9204 A2E8      002E8        4225     290.              MVI   CLWTEMP,4
 000162 9089 D000/188D       00000  4226     291.     PRCT9    VSAVE WAR,RAR,*
 000168 41D0 D008            00008  4229             +
 00016C 1BEE/1BFF                   4230     292.              CLEAR R14,R15
 000170 1211/4780 714A       0019A  4236     293.              IF    (R1,NZ),BEGIN
 000176 18F0                        4250  1  294.                LR    R15,R0
 000178 1211/47B0 7136       00186  4251  1  295.                IF    (R1,NEG),BEGIN
 00017E 88F0 0001            00001  4265  2  296.                  SRL   R15,1
 000182 8810 0001            00001  4266  2  297.                  SRL   R1,1
 000186                             4267  1  298.                END   ,
 000186 5CE0 6BF4            01C14  4271  1  299.                M     R14,=A(100)
 00018A 1DE1                        4272  1  300.                DR    R14,R1
 00018C 8810 0001            00001  4273  1  301.                SRL   R1,1
 000190 19E1/4750 714A       0019A  4274  1  302.                IF    (R14,GE,R1),'INCR R15'
 000196 5EF0 6BF8            01C18  4292  1          +
 00019A                             4297     303.              END
 00019A 1FEE/43E0 A2E8       002E8  4301     304.              LC    R14,CLWTEMP
 0001A0 180E/4D90 7202       00252  4308     305.              SEGDC (R14),(R15)
 0001A6 4110 008E            0008E  4320     306.              SEG   '%'
 0001AA 4590 6B80            01BA0  4322             +
 0001AE 18D8/9889 D000       00000  4323     307.              VREST WAR,RAR
 0001B4 07F9                        4326     308.              BR    RAR
                                    4327     309.
                                    4328     310.
                                    4329     311.       FRTOMEG -- Display number in R15 which is in 4K frames as
                                    4330     312.         megabytes.
                                    4331     313.

00001B6 9089 D000/188D       00000  4332     314.     FRTOMEG  VSAVE WAR,RAR,*
1VSSW     (VSSW07) (09:49) (22MAR04) ORVYL'S INTERNAL SET, SHOW AND DUMP COMMANDS                                           Page   44
0Current Usings:  (PZERO,R0) (BASE2,R6) (BASE,R7) (WA,R8) (CLW,R10)
0D-Loc  Object Code    Addr1 Addr2  Stmt Lv Lineno    Source Statement           (Hibal 5, Asmedit 3.3)  HLASM R4.0  2004/03/22 09.49
+_____  ______ ____    _____ _____  ____ __ ______    ______ _________
00001BC 41D0 D008            00008  4335             +
 0001C0 88F0 0008            00008  4336     315.              SRL   R15,8               Convert frames to megabytes
 0001C4 1B00/4D90 7202       00252  4337     316.              SEGDC 0,(R15)             Megs
 0001CA 4110 0090            00090  4348     317.              SEG   'M'
 0001CE 4590 6B80            01BA0  4350             +
 0001D2 18D8/9889 D000       00000  4351     318.              VREST WAR,RAR
 0001D8 07F9                        4354     319.              BR    RAR
                                    4355     320.
 0001DA 9089 D000/188D       00000  4356     321.     EVAL     VSAVE WAR,RAR,*
 0001E0 41D0 D008            00008  4359             +
 0001E4 5890 6BFC/0D99       01C1C  4360     322.              VCALL EVAL
 0001EA 18D8/9889 D000       00000  4364     323.              VREST WAR,RAR                 RETURN IS IN RAR
 0001F0 4740 70BE            0010E  4367     324.              BM    ERROR
 0001F4 07F9                        4368     325.              BR    RAR
                                    4369     326.
 0001F6 5090 D000            00000  4370     327.     MSG      VPUSH RAR,,*                  SEG, WRITE, AND RETURN
 0001FA 41D0 D004            00004  4372             +
 0001FE 4590 70DA            0012A  4373     328.              SEG   (1),(0)
 000202 47F0 71BE            0020E  4387     329.              B     WRIT1
                                    4388     330.
 000206 5090 D000            00000  4389     331.     WRITE    VPUSH RAR,,*                  SAVE RETURN
 00020A 41D0 D004            00004  4391             +
 00020E 5890 6BEC/0D99       01C0C  4392     332.     WRIT1    VWRITE ,
 000214 0777                        4397     333.              BNZR  BR                      ATTN OR ERROR
 000216 4BD0 6C60            01C80  4398     334.              VPOP RAR,,*
 00021A 5890 D000            00000  4400             +
 00021E 07F9                        4401     335.              BR    RAR                     NO ERROR
                                    4402     336.
 000220 5090 D000            00000  4403     337.     SGOSD    VPUSH RAR,,*
 000224 41D0 D004            00004  4405             +
 000228 5890 6C00/0D99       01C20  4406     338.              MVCOS CLWTEMP(4),@R14
 00022E D203 A2E8 E000 002E8 00000  4411             +
 000234 58F0 A2E8/1B00       002E8  4412     339.              BTD   CLWTEMP+4,0,CLWTEMP
 00023A 4110 A2EC            002EC  4428             +
 00023E 58E0 6C04/0DEE       01C24  4431             +
 000244 4590 70DA            0012A  4433     340.              SEG   (1),(0)
 000248 4BD0 6C60            01C80  4447     341.              VPOP  RAR,,*
 00024C 5890 D000            00000  4449             +
 000250 07F9                        4450     342.              BR    RAR
                                    4451     343.
 000252 909E D000            00000  4452     344.     SEGDC    VPUSH RAR,14,*
 000256 41D0 D018            00018  4454             +
 00025A 4110 A2E8            002E8  4455     345.              BTD   CLWTEMP,(0),(15)
 00025E 58E0 6C04/0DEE       01C24  4475             +
 000264 5890 6BF0/0D99       01C10  4477     346.              VSEG  (1),(0)
 00026A 4BD0 6C62            01C82  4494     347.              VPOP  RAR,14,*
 00026E 989E D000            00000  4496             +
 000272 07F9                        4497     348.              BR    RAR
                                    4498     349.
 000274 909E D000            00000  4499     350.     SEGHX    VPUSH RAR,14,*
 000278 41D0 D018            00018  4501             +
 00027C 4110 A2E8            002E8  4502     351.              BTX   CLWTEMP,(0),(15)
 000280 58E0 6C08/0DEE       01C28  4522             +
 000286 5890 6BF0/0D99       01C10  4524     352.              VSEG  (1),(0)
1VSSW     (VSSW07) (09:49) (22MAR04) ORVYL'S INTERNAL SET, SHOW AND DUMP COMMANDS                                           Page   45
0Current Usings:  (PZERO,R0) (BASE2,R6) (BASE,R7) (WA,R8) (CLW,R10)
0D-Loc  Object Code    Addr1 Addr2  Stmt Lv Lineno    Source Statement           (Hibal 5, Asmedit 3.3)  HLASM R4.0  2004/03/22 09.49
+_____  ______ ____    _____ _____  ____ __ ______    ______ _________
000028C 4BD0 6C62            01C82  4541     353.              VPOP  RAR,14,*
 000290 989E D000            00000  4543             +
 000294 07F9                        4544     354.              BR    RAR
                                    4545     355.
 000296 58F0 6C0C            01C2C  4546     356.     SEGSECS  L     R15,=V(SEGSECS)         TIME IN R1
 00029A 07FF                        4547     357.              BR    R15                     RETURN IN RAR
                                    4548     358.
                                    4549     359.
                                    4550     360.       AMODE31 -- Routine to switch to 31-bit addressing mode.
                                    4551     361.

000029C 41F0 7256            002A6  4552     362.     AMODE31  LA    R15,A31GO
 0002A0 56F0 6C10            01C30  4553     363.              O     R15,=A(X'80000000')  31 bit mode wanted
 0002A4 0B0F                        4554     364.              BSM   0,R15
                                    4555     365.
 0002A6 07F9                        4556     366.     A31GO    BR    RAR                 Return
                                    4557     367.
                                    4558     368.
                                    4559     369.       AMODE24 -- Routine to switch back to 24-bit addressing mode.
                                    4560     370.

00002A8 41F0 725E            002AE  4561     371.     AMODE24  LA    R15,A24GO
 0002AC 0B0F                        4562     372.              BSM   0,R15               Return to 24 bit mode
                                    4563     373.
 0002AE 07F9                        4564     374.     A24GO    BR    RAR                 Return
1VSSW     (VSSW07) (09:49) (22MAR04) ORVYL'S INTERNAL SET, SHOW AND DUMP COMMANDS                                           Page   46
0Current Usings:  (PZERO,R0) (BASE2,R6) (BASE,R7) (WA,R8) (CLW,R10)
0Loc    Object Code    Addr1 Addr2  Stmt Lv Lineno    Source Statement           (Hibal 5, Asmedit 3.3)  HLASM R4.0  2004/03/22 09.49
+___    ______ ____    _____ _____  ____ __ ______    ______ _________
0                                   4566     376.
                                    4567     377.                SYSTEM COMMAND VECTOR TABLE
                                    4568     378.
 0002B0                             4569     379.     CMDTABLE LABEL
 0002B0 47F3 7264            002B4  4571     380.              VSSWTAB  SYTAB,TR
 0002B4 47F0 6988            019A8  4573             +
 0002B8 47F0 7278            002C8  4574             +
 0002BC 47F0 7AE4            00B34  4575             +
 0002C0 47F0 65D8            015F8  4576             +
 0002C4 47F0 7E14            00E64  4577             +
1VSSW     (VSSW07) (09:49) (22MAR04) SHOW VINFO Command                                                                     Page   47
0Current Usings:  (PZERO,R0) (BASE2,R6) (BASE,R7) (WA,R8) (CLW,R10)
0Loc    Object Code    Addr1 Addr2  Stmt Lv Lineno    Source Statement           (Hibal 5, Asmedit 3.3)  HLASM R4.0  2004/03/22 09.49
+___    ______ ____    _____ _____  ____ __ ______    ______ _________
0                                   4579     382.
                                    4580     383.
                                    4581     384.             SHOW VINFO -- Display Orvyl information.
                                    4582     385.

00002C8 5890 6C14/0D99       01C34  4583     386.     SHVINFO  VCALL SEGSYSN                 GET SUBSYSTEM NAME
 0002CE 41F0 0028            00028  4587     387.              CLPSERV ORVTIME,WAORVST,5*8
 0002D2 4110 8028/1B00       00028  4601             +
 0002D8 0AED                        4606             +
 0002DA 4110 0092            00092  4607     388.              SEG   ' Started at '
 0002DE 4590 6B80            01BA0  4609             +
 0002E2 9801 8028            00028  4610     389.              LM    R0,R1,WAORVST           START TIME
 0002E6 5E10 0224            00224  4611     390.              ADL   R0,PZTZOFF
 0002EA 47C0 72A2            002F2  4620             +
 0002EE 5E00 6BF8            01C18  4626             +
 0002F2 5E00 0220            00220  4631             +
 0002F6 41F0 A2E8            002E8  4632     391.              LA    R15,CLWTEMP             ANSWER AREA
 0002FA 58E0 6C18/0DEE       01C38  4633     392.              XCALL FMTCLCK
 000300 4590 70DA            0012A  4637     393.              SEG   (R1),(R0)
 000304 4D90 71B6            00206  4649     394.              LCALL WRITE
                                    4651     395.
 000308 83200017                    4652     396.              SYSCTL R2,TYPE=CPUINFO    Get CPU info from host
 00030C 4110 009F            0009F  4655     397.              SEG   'Number of CPUs = '
 000310 4590 6B80            01BA0  4657             +
 000314 18F2/1B00                   4658     398.              SEGDC 0,(R2)              Display number of CPUs
 000318 4D90 7202            00252  4669             +
 00031C 4D90 71B6            00206  4670     399.              LCALL WRITE
                                    4672     400.
 000320 4D90 724C            0029C  4673     401.              LCALL AMODE31             ********
 000324 5840 0200            00200  4675     402.              L     R4,MATPTR           MAT ptr from low memory
 USING  MAT,R4                      4676     403.              WITH  (MAT,R4),BEGIN
 000328 5830 400C            0000C  4690  1  404.                L     R3,MATPAGCB
 USING  PAGCB,R3                    4691  1  405.                WITH  (PAGCB,R3),BEGIN
 00032C                             4705  2  406.                  IF    (PAGCB,EQ,'PAGCB'),BEGIN  Valid control block...
 00032C D504 6CFA 3000 01D1A 00000  4716  2          +
 000332 4770 7322            00372  4717  2          +
 000336 4110 00B1            000B1  4722  3  407.                    SEG   'Current real memory = '
 00033A 4590 6B80            01BA0  4724  3          +
 00033E 58F0 3050            00050  4725  3  408.                    L     R15,PAGFIXCNT       Real frame count
 000342 4D90 7166            001B6  4726  3  409.                    LCALL FRTOMEG             Display in megabytes
 000346 4110 00C8            000C8  4728  3  410.                    SEG   ' ('
 00034A 4590 6B80            01BA0  4730  3          +
 00034E 58F0 30C8            000C8  4731  3  411.                    L     R15,PAGMINFR        Minimum allowed
 000352 4D90 7166            001B6  4732  3  412.                    LCALL FRTOMEG
 000356 4110 00CB            000CB  4734  3  413.                    SEG   ' min, '
 00035A 4590 6B80            01BA0  4736  3          +
 00035E 58F0 30CC            000CC  4737  3  414.                    L     R15,PAGMAXFR        Maximum allowed
 000362 4D90 7166            001B6  4738  3  415.                    LCALL FRTOMEG
 000366 4110 00D2            000D2  4740  3  416.                    SEG   ' max)'
 00036A 4590 6B80            01BA0  4742  3          +
 00036E 4D90 71B6            00206  4743  3  417.                    LCALL WRITE
 000372                             4745  2  418.                  END
 DROP   PAGCB,R3                    4749  1  419.                END
1VSSW     (VSSW07) (09:49) (22MAR04) SHOW VINFO Command                                                                     Page   48
0Current Usings:  (PZERO,R0) (MAT,R4) (BASE2,R6) (BASE,R7) (WA,R8) (CLW,R10)
0Loc    Object Code    Addr1 Addr2  Stmt Lv Lineno    Source Statement           (Hibal 5, Asmedit 3.3)  HLASM R4.0  2004/03/22 09.49
+___    ______ ____    _____ _____  ____ __ ______    ______ _________
0                                   4757  1  420.
 000372 4110 00D8            000D8  4758  1  421.                SEG   'User memory origin = '
 000376 4590 6B80            01BA0  4760  1          +
 00037A 4100 0080/0AED       00080  4761  1  422.                CLPSERV VREGION           Get region parameters
 000380 8810 0014            00014  4770  1  423.                SRL   R1,20               Convert origin to number of meg
 000384 18F1/1B00                   4771  1  424.                SEGDC 0,(R1)
 000388 4D90 7202            00252  4782  1          +
 00038C 4110 0090            00090  4783  1  425.                SEG   'M'
 000390 4590 6B80            01BA0  4785  1          +
 000394 4D90 71B6            00206  4786  1  426.                LCALL WRITE
                                    4788  1  427.
 000398 58F0 40F0/1B00       000F0  4789  1  428.                SEGDC 0,L:MATNCLPE
 00039E 4D90 7202            00252  4800  1          +
 0003A2 4110 00EE            000EE  4801  1  429.                SEG   ' CLP errors'
 0003A6 4590 6B80            01BA0  4803  1          +
 0003AA 4D90 71B6            00206  4804  1  430.                LCALL WRITE
 DROP   MAT,R4                      4806     431.              END
 0003AE 4D90 7258            002A8  4814     432.              LCALL AMODE24             ********
                                    4816     433.
 0003B2 4D90 71B6            00206  4817     434.              LCALL WRITE
 0003B6 B205 A2E8      002E8        4819     435.              STCK  CLWTEMP                get the moment
 0003BA 5830 A2E8            002E8  4820     436.              L     R3,CLWTEMP             to the second
 0003BE 4110 00FA            000FA  4821     437.              SEG   'Total Orvyl run time = '
 0003C2 4590 6B80            01BA0  4823             +
 0003C6 1803                        4824     438.              LR    R0,R3                  get current time
 0003C8 5F00 8028            00028  4825     439.              SL    R0,WAORVST             calc elapsed to the second
 0003CC 41F0 A2E8            002E8  4826     440.              LA    R15,CLWTEMP            answer area
 0003D0 1B11                        4827     441.              CLEAR R1
 0003D2 58E0 6C1C/0DEE       01C3C  4831     442.              XCALL FMTELAPS               format elapsed time
 0003D8 4590 70DA            0012A  4835     443.              SEG   (R1),(R0)              add to line
 0003DC 4D90 71B6            00206  4847     444.              LCALL WRITE
 0003E0 4110 0112            00112  4849     445.              SEG   '      Total CPU time = '
 0003E4 4590 6B80            01BA0  4851             +
 0003E8 9801 8048            00048  4852     446.              LM    R0,R1,WAORVCPU          NUMBER OF SECONDS
 0003EC 41F0 A2E8            002E8  4853     447.              LA    R15,CLWTEMP
 0003F0 58E0 6C1C/0DEE       01C3C  4854     448.              XCALL FMTELAPS                CONVERT
 0003F6 4590 70DA            0012A  4858     449.              SEG   (R1),(R0)                ADD TO LINE
 0003FA 4D90 71B6            00206  4870     450.              LCALL WRITE
                                    4872     451.
 0003FE 4110 012A            0012A  4873     452.              SEG   '    Charged CPU time = '
 000402 4590 6B80            01BA0  4875             +
 000406 9801 8030            00030  4876     453.              LM    R0,R1,WACPUT            USER EXECUTION
 00040A 41F0 A2E8            002E8  4877     454.              LA    R15,CLWTEMP
 00040E 58E0 6C1C/0DEE       01C3C  4878     455.              XCALL FMTELAPS                CONVERT
 000414 4590 70DA            0012A  4882     456.              SEG   (R1),(R0)                ADD TO LINE
 000418 4D90 71B6            00206  4894     457.              LCALL WRITE
                                    4896     458.
 00041C 4110 0142            00142  4897     459.              SEG   '   Dispatch CPU time = '
 000420 4590 6B80            01BA0  4899             +
 000424 9801 8038            00038  4900     460.              LM    R0,R1,WADSPT            DISPATCHER
 000428 41F0 A2E8            002E8  4901     461.              LA    R15,CLWTEMP
 00042C 58E0 6C1C/0DEE       01C3C  4902     462.              XCALL FMTELAPS                CONVERT
 000432 4590 70DA            0012A  4906     463.              SEG   (R1),(R0)                ADD TO LINE
 000436 4D90 71B6            00206  4918     464.              LCALL WRITE
1VSSW     (VSSW07) (09:49) (22MAR04) SHOW VINFO Command                                                                     Page   49
0Current Usings:  (PZERO,R0) (BASE2,R6) (BASE,R7) (WA,R8) (CLW,R10)
0Loc    Object Code    Addr1 Addr2  Stmt Lv Lineno    Source Statement           (Hibal 5, Asmedit 3.3)  HLASM R4.0  2004/03/22 09.49
+___    ______ ____    _____ _____  ____ __ ______    ______ _________
0                                   4920     465.
 00043A 4110 015A            0015A  4921     466.              SEG   'I/O service CPU time = '
 00043E 4590 6B80            01BA0  4923             +
 000442 9801 8040            00040  4924     467.              LM    R0,R1,WAIOT             I/O SERVICE
 000446 41F0 A2E8            002E8  4925     468.              LA    R15,CLWTEMP
 00044A 58E0 6C1C/0DEE       01C3C  4926     469.              XCALL FMTELAPS                CONVERT
 000450 4590 70DA            0012A  4930     470.              SEG   (R1),(R0)                ADD TO LINE
 000454 4D90 71B6            00206  4942     471.              LCALL WRITE
 000458 4D90 71B6            00206  4944     472.              LCALL WRITE
                                    4946     473.
                                    4947     474.                Display counters from FILECB (see FILESERV).
                                    4948     475.
 00045C 4D90 724C            0029C  4949     476.              LCALL AMODE31             ********
 000460 5840 0200            00200  4951     477.              L     R4,MATPTR           MAT ptr from low memory
 000464 5840 4028            00028  4952     478.              WITH  (MAT,R4),'L R4,MATFILCB'
 USING  MAT,R4
 DROP   MAT,R4
 USING  FILECB,R4                   4976     479.              WITH  (FILECB,R4),BEGIN
 000468                             4990  1  480.                IF    (FILECB,NE,'FILECB'),BEGIN
 000468 D505 6C64 4000 01C84 00000  5001  1          +
 00046E 4780 742E            0047E  5002  1          +
 000472 4110 0172            00172  5007  2  481.                  SEG   '(File system control block ID error)'
 000476 4590 6B80            01BA0  5009  2          +
 00047A 4D90 71B6            00206  5010  2  482.                  LCALL WRITE
 00047E                             5012  1  483.                END   ,
                                    5016  1  484.
 00047E 7432           0047E 00470  5017  1  485.                ELSE  BEGIN               Good FILECB...
 00047E 47F0 7868            008B8  5022  1          +
 000482 4110 0197            00197  5028  2  486.                  SEG   'File system I/O summary:'
 000486 4590 6B80            01BA0  5030  2          +
 00048A 4D90 71B6            00206  5031  2  487.                  LCALL WRITE
                                    5033  2  488.
 00048E 4110 01B0            001B0  5034  2  489.                  SEG   '  Bitmap: '
 000492 4590 6B80            01BA0  5036  2          +
 000496 9801 40C0            000C0  5037  2  490.                  LM    R0,R1,TTBITCCT
 00049A 5890 6C20/0D99       01C40  5038  2  491.                  ACALL SEGDBL
 0004A0 4110 01BB            001BB  5042  2  492.                  SEG   ' cache reads'
 0004A4 4590 6B80            01BA0  5044  2          +
 0004A8 9801 4060            00060  5045  2  493.                  LM    R0,R1,TTBITRCT
 0004AC 98EF 40C0            000C0  5046  2  494.                  LM    R14,R15,TTBITCCT
 0004B0 1E1F/47C0 746A       004BA  5047  2  495.                  ADLR  R0,R14
 0004B6 5E00 6BF8/1E0E       01C18  5062  2          +
 0004BC 4D90 70FA            0014A  5068  2  496.                  LCALL PRCT4
 0004C0 4110 01C8            001C8  5070  2  497.                  SEG   ','
 0004C4 4590 6B80            01BA0  5072  2          +
 0004C8 9801 4060            00060  5073  2  498.                  LM    R0,R1,TTBITRCT
 0004CC 5890 6C20/0D99       01C40  5074  2  499.                  ACALL SEGDBL
 0004D2 4110 01CA            001CA  5078  2  500.                  SEG   ' disk reads,'
 0004D6 4590 6B80            01BA0  5080  2          +
 0004DA 9801 4090            00090  5081  2  501.                  LM    R0,R1,TTBITWCT
 0004DE 5890 6C20/0D99       01C40  5082  2  502.                  ACALL SEGDBL
 0004E4 4110 01D7            001D7  5086  2  503.                  SEG   ' writes'
 0004E8 4590 6B80            01BA0  5088  2          +
 0004EC 4D90 71B6            00206  5089  2  504.                  LCALL WRITE
1VSSW     (VSSW07) (09:49) (22MAR04) SHOW VINFO Command                                                                     Page   50
0Current Usings:  (PZERO,R0) (FILECB,R4) (BASE2,R6) (BASE,R7) (WA,R8) (CLW,R10)
0Loc    Object Code    Addr1 Addr2  Stmt Lv Lineno    Source Statement           (Hibal 5, Asmedit 3.3)  HLASM R4.0  2004/03/22 09.49
+___    ______ ____    _____ _____  ____ __ ______    ______ _________
0                                   5091  2  505.
 0004F0 4110 01DF            001DF  5092  2  506.                  SEG   '  Catalog:'
 0004F4 4590 6B80            01BA0  5094  2          +
 0004F8 1B00/1B11                   5095  2  507.                  CLEAR R0,R1,WAVICACH
 0004FC D707 8030 8030 00030 00030  5105  2          +
 000502 58E0 4008            00008  5106  2  508.                  L     R14,FILEFFSB
 000506 12EE/4780 74DA       0052A  5107  2  509.                  WHILE (R14,NZ),BEGIN
 USING  FSB,R14                     5123  3  510.                    WITH  (FSB,R14),BEGIN
                                    5137  4  511.     * The catalog package does some buffering of records. Fold these
                                    5138  4  512.     * read counts into the 'read from cache' counts to get a more
                                    5139  4  513.     * accurate picture of what is occuring.
 00050C D203 8034 E0FC 00034 000FC  5140  4  514.                      MVC   WAVICACH+4(4),FSBCTCRD
 000512 5E10 8034            00034  5141  4  515.                      ADL   R0,WAVICACH
 000516 47C0 74CE            0051E  5150  4          +
 00051A 5E00 6BF8            01C18  5156  4          +
 00051E 5E00 8030            00030  5161  4          +
 000522 58E0 E004            00004  5162  4  516.                      L     R14,FSBCHAIN
 DROP   FSB,R14                     5163  3  517.                    END   ,
 000526 47F0 74B6            00506  5171  2  518.                  END   ,
 00052A 5E10 40BC            000BC  5176  2  519.                  ADL   R0,TTCATCCT
 00052E 47C0 74E6            00536  5185  2          +
 000532 5E00 6BF8            01C18  5191  2          +
 000536 5E00 40B8            000B8  5196  2          +
 00053A 9001 8030            00030  5197  2  520.                  STM   R0,R1,WAVICACH      Save 'total' cat cache reads
 00053E 5890 6C20/0D99       01C40  5198  2  521.                  ACALL SEGDBL
 000544 4110 01BB            001BB  5202  2  522.                  SEG   ' cache reads'
 000548 4590 6B80            01BA0  5204  2          +
 00054C 98EF 8030            00030  5205  2  523.                  LM    R14,R15,WAVICACH
 000550 9801 4058            00058  5206  2  524.                  LM    R0,R1,TTCATRCT
 000554 1E1F/47C0 750E       0055E  5207  2  525.                  ADLR  R0,R14
 00055A 5E00 6BF8/1E0E       01C18  5222  2          +
 000560 4D90 70FA            0014A  5228  2  526.                  LCALL PRCT4
 000564 4110 01C8            001C8  5230  2  527.                  SEG   ','
 000568 4590 6B80            01BA0  5232  2          +
 00056C 9801 4058            00058  5233  2  528.                  LM    R0,R1,TTCATRCT
 000570 5890 6C20/0D99       01C40  5234  2  529.                  ACALL SEGDBL
 000576 4110 01CA            001CA  5238  2  530.                  SEG   ' disk reads,'
 00057A 4590 6B80            01BA0  5240  2          +
 00057E 9801 4088            00088  5241  2  531.                  LM    R0,R1,TTCATWCT
 000582 5890 6C20/0D99       01C40  5242  2  532.                  ACALL SEGDBL
 000588 4110 01D7            001D7  5246  2  533.                  SEG   ' writes'
 00058C 4590 6B80            01BA0  5248  2          +
 000590 4D90 71B6            00206  5249  2  534.                  LCALL WRITE
                                    5251  2  535.
 000594 4110 01EA            001EA  5252  2  536.                  SEG   '  IXR:    '
 000598 4590 6B80            01BA0  5254  2          +
 00059C 9801 40C8            000C8  5255  2  537.                  LM    R0,R1,TTIXRCCT
 0005A0 5890 6C20/0D99       01C40  5256  2  538.                  ACALL SEGDBL
 0005A6 4110 01BB            001BB  5260  2  539.                  SEG   ' cache reads'
 0005AA 4590 6B80            01BA0  5262  2          +
 0005AE 9801 4068            00068  5263  2  540.                  LM    R0,R1,TTIXRRCT
 0005B2 98EF 40C8            000C8  5264  2  541.                  LM    R14,R15,TTIXRCCT
 0005B6 1E1F/47C0 7570       005C0  5265  2  542.                  ADLR  R0,R14
 0005BC 5E00 6BF8/1E0E       01C18  5280  2          +
1VSSW     (VSSW07) (09:49) (22MAR04) SHOW VINFO Command                                                                     Page   51
0Current Usings:  (PZERO,R0) (FILECB,R4) (BASE2,R6) (BASE,R7) (WA,R8) (CLW,R10)
0Loc    Object Code    Addr1 Addr2  Stmt Lv Lineno    Source Statement           (Hibal 5, Asmedit 3.3)  HLASM R4.0  2004/03/22 09.49
+___    ______ ____    _____ _____  ____ __ ______    ______ _________
00005C2 4D90 70FA            0014A  5286  2  543.                  LCALL PRCT4
 0005C6 4110 01C8            001C8  5288  2  544.                  SEG   ','
 0005CA 4590 6B80            01BA0  5290  2          +
 0005CE 9801 4068            00068  5291  2  545.                  LM    R0,R1,TTIXRRCT
 0005D2 5890 6C20/0D99       01C40  5292  2  546.                  ACALL SEGDBL
 0005D8 4110 01CA            001CA  5296  2  547.                  SEG   ' disk reads,'
 0005DC 4590 6B80            01BA0  5298  2          +
 0005E0 9801 4098            00098  5299  2  548.                  LM    R0,R1,TTIXRWCT
 0005E4 5890 6C20/0D99       01C40  5300  2  549.                  ACALL SEGDBL
 0005EA 4110 01D7            001D7  5304  2  550.                  SEG   ' writes'
 0005EE 4590 6B80            01BA0  5306  2          +
 0005F2 4D90 71B6            00206  5307  2  551.                  LCALL WRITE
                                    5309  2  552.
 0005F6 4110 01F5            001F5  5310  2  553.                  SEG   '  Data:   '
 0005FA 4590 6B80            01BA0  5312  2          +
 0005FE 9801 40D0            000D0  5313  2  554.                  LM    R0,R1,TTUSECCT
 000602 5890 6C20/0D99       01C40  5314  2  555.                  ACALL SEGDBL
 000608 4110 01BB            001BB  5318  2  556.                  SEG   ' cache reads'
 00060C 4590 6B80            01BA0  5320  2          +
 000610 9801 4070            00070  5321  2  557.                  LM    R0,R1,TTUSERCT
 000614 98EF 40D0            000D0  5322  2  558.                  LM    R14,R15,TTUSECCT
 000618 1E1F/47C0 75D2       00622  5323  2  559.                  ADLR  R0,R14
 00061E 5E00 6BF8/1E0E       01C18  5338  2          +
 000624 4D90 70FA            0014A  5344  2  560.                  LCALL PRCT4
 000628 4110 01C8            001C8  5346  2  561.                  SEG   ','
 00062C 4590 6B80            01BA0  5348  2          +
 000630 9801 4070            00070  5349  2  562.                  LM    R0,R1,TTUSERCT
 000634 5890 6C20/0D99       01C40  5350  2  563.                  ACALL SEGDBL
 00063A 4110 01CA            001CA  5354  2  564.                  SEG   ' disk reads,'
 00063E 4590 6B80            01BA0  5356  2          +
 000642 9801 40A0            000A0  5357  2  565.                  LM    R0,R1,TTUSEWCT
 000646 5890 6C20/0D99       01C40  5358  2  566.                  ACALL SEGDBL
 00064C 4110 01D7            001D7  5362  2  567.                  SEG   ' writes'       LEFT OFF HERE
 000650 4590 6B80            01BA0  5364  2          +
 000654 4D90 71B6            00206  5365  2  568.                  LCALL WRITE
 000658 4110 0200            00200  5367  2  569.                  SEG   '  Total:  '
 00065C 4590 6B80            01BA0  5369  2          +
 000660 9801 40C0            000C0  5370  2  570.                  LM    R0,R1,TTBITCCT
 000664 5E10 8034            00034  5371  2  571.                  ADL   R0,WAVICACH
 000668 47C0 7620            00670  5380  2          +
 00066C 5E00 6BF8            01C18  5386  2          +
 000670 5E00 8030            00030  5391  2          +
 000674 5E10 40CC            000CC  5392  2  572.                  ADL   R0,TTIXRCCT
 000678 47C0 7630            00680  5401  2          +
 00067C 5E00 6BF8            01C18  5407  2          +
 000680 5E00 40C8            000C8  5412  2          +
 000684 5E10 40D4            000D4  5413  2  573.                  ADL   R0,TTUSECCT
 000688 47C0 7640            00690  5422  2          +
 00068C 5E00 6BF8            01C18  5428  2          +
 000690 5E00 40D0            000D0  5433  2          +
 000694 9001 8030            00030  5434  2  574.                  STM   R0,R1,WAVICACH      Save total cache reads
 000698 5890 6C20/0D99       01C40  5435  2  575.                  ACALL SEGDBL
 00069E 4110 01BB            001BB  5439  2  576.                  SEG   ' cache reads'
 0006A2 4590 6B80            01BA0  5441  2          +
1VSSW     (VSSW07) (09:49) (22MAR04) SHOW VINFO Command                                                                     Page   52
0Current Usings:  (PZERO,R0) (FILECB,R4) (BASE2,R6) (BASE,R7) (WA,R8) (CLW,R10)
0Loc    Object Code    Addr1 Addr2  Stmt Lv Lineno    Source Statement           (Hibal 5, Asmedit 3.3)  HLASM R4.0  2004/03/22 09.49
+___    ______ ____    _____ _____  ____ __ ______    ______ _________
00006A6 9801 4060            00060  5442  2  577.                  LM    R0,R1,TTBITRCT
 0006AA 5E10 405C            0005C  5443  2  578.                  ADL   R0,TTCATRCT
 0006AE 47C0 7666            006B6  5452  2          +
 0006B2 5E00 6BF8            01C18  5458  2          +
 0006B6 5E00 4058            00058  5463  2          +
 0006BA 5E10 406C            0006C  5464  2  579.                  ADL   R0,TTIXRRCT
 0006BE 47C0 7676            006C6  5473  2          +
 0006C2 5E00 6BF8            01C18  5479  2          +
 0006C6 5E00 4068            00068  5484  2          +
 0006CA 5E10 4074            00074  5485  2  580.                  ADL   R0,TTUSERCT
 0006CE 47C0 7686            006D6  5494  2          +
 0006D2 5E00 6BF8            01C18  5500  2          +
 0006D6 5E00 4070            00070  5505  2          +
 0006DA 9001 8028            00028  5506  2  581.                  STM   R0,R1,WAVIDISK      Save total disk reads
 0006DE 5E10 8034            00034  5507  2  582.                  ADL   R0,WAVICACH         Calc total reads
 0006E2 47C0 769A            006EA  5516  2          +
 0006E6 5E00 6BF8            01C18  5522  2          +
 0006EA 5E00 8030            00030  5527  2          +
 0006EE 98EF 8030            00030  5528  2  583.                  LM    R14,R15,WAVICACH
 0006F2 4D90 70FA            0014A  5529  2  584.                  LCALL PRCT4
 0006F6 4110 01C8            001C8  5531  2  585.                  SEG   ','
 0006FA 4590 6B80            01BA0  5533  2          +
 0006FE 9801 8028            00028  5534  2  586.                  LM    R0,R1,WAVIDISK
 000702 5890 6C20/0D99       01C40  5535  2  587.                  ACALL SEGDBL
 000708 4110 01CA            001CA  5539  2  588.                  SEG   ' disk reads,'
 00070C 4590 6B80            01BA0  5541  2          +
 000710 9801 4090            00090  5542  2  589.                  LM    R0,R1,TTBITWCT
 000714 5E10 408C            0008C  5543  2  590.                  ADL   R0,TTCATWCT
 000718 47C0 76D0            00720  5552  2          +
 00071C 5E00 6BF8            01C18  5558  2          +
 000720 5E00 4088            00088  5563  2          +
 000724 5E10 409C            0009C  5564  2  591.                  ADL   R0,TTIXRWCT
 000728 47C0 76E0            00730  5573  2          +
 00072C 5E00 6BF8            01C18  5579  2          +
 000730 5E00 4098            00098  5584  2          +
 000734 5E10 40A4            000A4  5585  2  592.                  ADL   R0,TTUSEWCT
 000738 47C0 76F0            00740  5594  2          +
 00073C 5E00 6BF8            01C18  5600  2          +
 000740 5E00 40A0            000A0  5605  2          +
 000744 5890 6C20/0D99       01C40  5606  2  593.                  ACALL SEGDBL
 00074A 4110 01D7            001D7  5610  2  594.                  SEG   ' writes'
 00074E 4590 6B80            01BA0  5612  2          +
 000752 4D90 71B6            00206  5613  2  595.                  LCALL WRITE
 000756 4D90 71B6            00206  5615  2  596.                  LCALL WRITE
                                    5617  2  597.
                                    5618  2  598.                    Display attached file summary
                                    5619  2  599.
                                    5620  2  600.     * Note:  If seven users have FILEA attached then
                                    5621  2  601.     *        individual files would be one and total
                                    5622  2  602.     *        user files would be seven.
                                    5623  2  603.     *
 00075A 4110 020B            0020B  5624  2  604.                  SEG   'Individual files attached: '
 00075E 4590 6B80            01BA0  5626  2          +
 000762 58F0 40E0            000E0  5627  2  605.                  SEGDC 10,L:TTFILATT
1VSSW     (VSSW07) (09:49) (22MAR04) SHOW VINFO Command                                                                     Page   53
0Current Usings:  (PZERO,R0) (FILECB,R4) (BASE2,R6) (BASE,R7) (WA,R8) (CLW,R10)
0Loc    Object Code    Addr1 Addr2  Stmt Lv Lineno    Source Statement           (Hibal 5, Asmedit 3.3)  HLASM R4.0  2004/03/22 09.49
+___    ______ ____    _____ _____  ____ __ ______    ______ _________
0000766 4100 000A            0000A  5639  2          +
 00076A 4D90 7202            00252  5641  2          +
 00076E 4110 0227            00227  5642  2  606.                  SEG   '  high-water: '
 000772 4590 6B80            01BA0  5644  2          +
 000776 58F0 40E4            000E4  5645  2  607.                  SEGDC 10,L:TTFILATM
 00077A 4100 000A            0000A  5657  2          +
 00077E 4D90 7202            00252  5659  2          +
 000782 4D90 71B6            00206  5660  2  608.                  LCALL WRITE
 000786 4110 0236            00236  5662  2  609.                  SEG   'Total user files attached: '
 00078A 4590 6B80            01BA0  5664  2          +
 00078E 58F0 40E8            000E8  5665  2  610.                  SEGDC 10,L:TTFILAUS
 000792 4100 000A            0000A  5677  2          +
 000796 4D90 7202            00252  5679  2          +
 00079A 4110 0227            00227  5680  2  611.                  SEG   '  high-water: '
 00079E 4590 6B80            01BA0  5682  2          +
 0007A2 58F0 40EC            000EC  5683  2  612.                  SEGDC 10,L:TTFILAUM
 0007A6 4100 000A            0000A  5695  2          +
 0007AA 4D90 7202            00252  5697  2          +
 0007AE 4D90 71B6            00206  5698  2  613.                  LCALL WRITE
 0007B2 4110 0252            00252  5700  2  614.                  SEG   'Total temp files attached: '
 0007B6 4590 6B80            01BA0  5702  2          +
 0007BA 58F0 40F0            000F0  5703  2  615.                  SEGDC 10,L:TTFILATP
 0007BE 4100 000A            0000A  5715  2          +
 0007C2 4D90 7202            00252  5717  2          +
 0007C6 4110 0227            00227  5718  2  616.                  SEG   '  high-water: '
 0007CA 4590 6B80            01BA0  5720  2          +
 0007CE 58F0 40F4            000F4  5721  2  617.                  SEGDC 10,L:TTFILAPM
 0007D2 4100 000A            0000A  5733  2          +
 0007D6 4D90 7202            00252  5735  2          +
 0007DA 4D90 71B6            00206  5736  2  618.                  LCALL WRITE
 0007DE 4110 026E            0026E  5738  2  619.                  SEG   'Total temp blocks in use:  '
 0007E2 4590 6B80            01BA0  5740  2          +
 0007E6 58F0 40F8            000F8  5741  2  620.                  SEGDC 10,L:TTFILTBK
 0007EA 4100 000A            0000A  5753  2          +
 0007EE 4D90 7202            00252  5755  2          +
 0007F2 4110 0227            00227  5756  2  621.                  SEG   '  high-water: '
 0007F6 4590 6B80            01BA0  5758  2          +
 0007FA 58F0 40FC            000FC  5759  2  622.                  SEGDC 10,L:TTFILTBM
 0007FE 4100 000A            0000A  5771  2          +
 000802 4D90 7202            00252  5773  2          +
 000806 4D90 71B6            00206  5774  2  623.                  LCALL WRITE
 00080A 5830 4034/1233       00034  5776  2  624.                  IF    ('LT R3,FILTEMPF',NZ),BEGIN
 000810 4780 77E0            00830  5787  2          +
 000814 4D90 71B6            00206  5792  3  625.                    LCALL WRITE
 000818 4110 028A            0028A  5794  3  626.                    SEG   'Designated file system for temporary files: '
 00081C 4590 6B80            01BA0  5796  3          +
 USING  FSB,R3                      5797  3  627.                    WITH  (FSB,R3),BEGIN
 000820 4110 3018            00018  5811  4  628.                      SEG   FSBNAME,L'FSBNAME
 000824 4100 0008            00008  5827  4          +
 000828 4590 70DA            0012A  5828  4          +
 DROP   FSB,R3                      5829  3  629.                    END   ,
 00082C 4D90 71B6            00206  5837  3  630.                    LCALL WRITE
 000830                             5839  2  631.                  END   ,
 000830 4D90 71B6            00206  5843  2  632.                  LCALL WRITE
1VSSW     (VSSW07) (09:49) (22MAR04) SHOW VINFO Command                                                                     Page   54
0Current Usings:  (PZERO,R0) (FILECB,R4) (BASE2,R6) (BASE,R7) (WA,R8) (CLW,R10)
0Loc    Object Code    Addr1 Addr2  Stmt Lv Lineno    Source Statement           (Hibal 5, Asmedit 3.3)  HLASM R4.0  2004/03/22 09.49
+___    ______ ____    _____ _____  ____ __ ______    ______ _________
0                                   5845  2  633.
                                    5846  2  634.                    Display counters from CITs (see FILCACHE).
                                    5847  2  635.
 000834 9180 4014      00014        5848  2  636.                  IF    FILBFHCA,BEGIN      Hiperspace cache
 000838 47E0 7818            00868  5858  2          +
 00083C 4110 02B7            002B7  5863  3  637.                    SEG   'File system cache summary (hiperspace):'
 000840 4590 6B80            01BA0  5865  3          +
 000844 4D90 71B6            00206  5866  3  638.                    LCALL WRITE
 000848 4110 02DF            002DF  5868  3  639.                    SEG   '  System cache: '
 00084C 4590 6B80            01BA0  5870  3          +
 000850 5830 401C            0001C  5871  3  640.                    L     R3,FILE2KCS         Cache block pointer
 000854 4520 799C            009EC  5872  3  641.                    BAL   R2,DOCITH           Caching is defined...
 000858 4110 02F0            002F0  5873  3  642.                    SEG   '  Data cache: '
 00085C 4590 6B80            01BA0  5875  3          +
 000860 5830 4018            00018  5876  3  643.                    L     R3,FILE2KCH         Cache block pointer
 000864 4520 799C            009EC  5877  3  644.                    BAL   R2,DOCITH           Caching is defined...
 000868                             5878  2  645.                  END   ,                   Hiperspace cache
 000868 781C           00868 0083A  5882  2  646.                  ELSE  BEGIN               Regular cache
 000868 47F0 7868            008B8  5887  2          +
 00086C 4110 02FF            002FF  5893  3  647.                    SEG   'File system cache summary:'
 000870 4590 6B80            01BA0  5895  3          +
 000874 4D90 71B6            00206  5896  3  648.                    LCALL WRITE
 000878 4110 031A            0031A  5898  3  649.                    SEG   '  2K System cache: '
 00087C 4590 6B80            01BA0  5900  3          +
 000880 5830 401C            0001C  5901  3  650.                    L     R3,FILE2KCS         2K Cache block pointer
 000884 4520 78DC            0092C  5902  3  651.                    BAL   R2,DOCIT            Caching is defined...
                                    5903  3  652.
 000888 4110 032E            0032E  5904  3  653.                    SEG   '  2K Data cache: '
 00088C 4590 6B80            01BA0  5906  3          +
 000890 5830 4018            00018  5907  3  654.                    L     R3,FILE2KCH         2K Cache block pointer
 000894 4520 78DC            0092C  5908  3  655.                    BAL   R2,DOCIT            Caching is defined...
                                    5909  3  656.
 000898 4110 0340            00340  5910  3  657.                    SEG   '  4K System cache: '
 00089C 4590 6B80            01BA0  5912  3          +
 0008A0 5830 4024            00024  5913  3  658.                    L     R3,FILE4KCS         4K Cache block pointer
 0008A4 4520 78DC            0092C  5914  3  659.                    BAL   R2,DOCIT            Caching is defined...
                                    5915  3  660.
 0008A8 4110 0354            00354  5916  3  661.                    SEG   '  4K Data cache: '
 0008AC 4590 6B80            01BA0  5918  3          +
 0008B0 5830 4020            00020  5919  3  662.                    L     R3,FILE4KCH         4K Cache block pointer
 0008B4 4520 78DC            0092C  5920  3  663.                    BAL   R2,DOCIT            Caching is defined...
 0008B8                             5921  2  664.                  END   ,                   Regular cache
 0008B8                             5925  1  665.                END   ,                   Good FILECB...
                                    5929  1  666.
 0008B8 4D90 7258            002A8  5930  1  667.                LCALL AMODE24             ********
                                    5932  1  668.
 0008BC 4D90 71B6            00206  5933  1  669.                LCALL WRITE
                                    5935  1  670.
 0008C0 07F7                        5936  1  671.                BR    BR
1VSSW     (VSSW07) (09:49) (22MAR04) SHOW VINFO Command                                                                     Page   55
0Current Usings:  (PZERO,R0) (FILECB,R4) (BASE2,R6) (BASE,R7) (WA,R8) (CLW,R10)
0Loc    Object Code    Addr1 Addr2  Stmt Lv Lineno    Source Statement           (Hibal 5, Asmedit 3.3)  HLASM R4.0  2004/03/22 09.49
+___    ______ ____    _____ _____  ____ __ ______    ______ _________
0                                   5938  1  673.     *
 0008C2 909E D000            00000  5939  1  674.     SEGDBL     VPUSH RAR,14,*
 0008C6 41D0 D018            00018  5941  1          +
 0008CA 1200/4780 78B2       00902  5942  1  675.                IF    (R0,NZ),BEGIN
 0008D0 5D00 6C24            01C44  5956  2  676.                  D     R0,=A(1000000000)
 0008D4 5000 A2F8            002F8  5957  2  677.                  ST    R0,CLWTEMP+16
 0008D8 18F1/4100 0002       00002  5958  2  678.                  BTD   CLWTEMP,2,(R1)
 0008DE 4110 A2E8            002E8  5977  2          +
 0008E2 58E0 6C04/0DEE       01C24  5980  2          +
 0008E8 5810 A2F8            002F8  5982  2  679.                  L     R1,CLWTEMP+16
 0008EC 18F1/4100 0009       00009  5983  2  680.                  BTD   CLWTEMP+2,9,(R1)
 0008F2 4110 A2EA            002EA  6002  2          +
 0008F6 58E0 6C04/0DEE       01C24  6005  2          +
 0008FC D607 A2EA 6BA8 002EA 01BC8  6007  2  681.                  OC    CLWTEMP+2(8),=C'00000000'
 000902                             6008  1  682.                END   ,
 000902 78B6           00902 008CE  6012  1  683.                ELSE  BEGIN
 000902 47F0 78C6            00916  6017  1          +
 000906 18F1/4100 000B       0000B  6023  2  684.                  BTD   CLWTEMP,11,(R1)
 00090C 4110 A2E8            002E8  6042  2          +
 000910 58E0 6C04/0DEE       01C24  6045  2          +
 000916                             6047  1  685.                END   ,
 000916 4110 A2E8            002E8  6051  1  686.                SEG   CLWTEMP,11
 00091A 4100 000B            0000B  6067  1          +
 00091E 4590 70DA            0012A  6068  1          +
 000922 4BD0 6C62            01C82  6069  1  687.                VPOP  RAR,14,*
 000926 989E D000            00000  6071  1          +
 00092A 07F9                        6072  1  688.                BR    RAR
1VSSW     (VSSW07) (09:49) (22MAR04) SHOW VINFO Command                                                                     Page   56
0Current Usings:  (PZERO,R0) (FILECB,R4) (BASE2,R6) (BASE,R7) (WA,R8) (CLW,R10)
0Loc    Object Code    Addr1 Addr2  Stmt Lv Lineno    Source Statement           (Hibal 5, Asmedit 3.3)  HLASM R4.0  2004/03/22 09.49
+___    ______ ____    _____ _____  ____ __ ______    ______ _________
000092C                             6074  1  690.     DOCIT      LABEL ,
 00092C 1233/4770 78EE       0093E  6076  1  691.                IF    (R3,Z),BEGIN        No caching...
 000932 4110 0366            00366  6090  2  692.                  SEG   ' No cache is defined.'
 000936 4590 6B80            01BA0  6092  2          +
 00093A 4D90 71B6            00206  6093  2  693.                  LCALL WRITE
 00093E                             6095  1  694.                END   ,
                                    6099  1  695.
 00093E 78F2           0093E 00930  6100  1  696.                ELSE  BEGIN
 00093E 47F0 799A            009EA  6105  1          +
 USING  CIT,R3                      6111  2  697.                  WITH  (CIT,R3)
 000942                             6124  2  698.                  IF    (CIT,NE,'CIT'),BEGIN
 000942 D502 6CFF 3000 01D1F 00000  6135  2          +
 000948 4780 7908            00958  6136  2          +
 00094C 4110 037C            0037C  6141  3  699.                    SEG   ' (CIT control block ID error)'
 000950 4590 6B80            01BA0  6143  3          +
 000954 4D90 71B6            00206  6144  3  700.                    LCALL WRITE
 000958                             6146  2  701.                  END
                                    6150  2  702.
 000958 790C           00958 0094A  6151  2  703.                  ELSE  BEGIN               Display CIT info...
 000958 47F0 799A            009EA  6156  2          +
 00095C 58F0 301C/1B00       0001C  6162  3  704.                    SEGDC 0,L:CITDCUR
 000962 4D90 7202            00252  6173  3          +
 000966 4110 039A            0039A  6174  3  705.                    SEG   ' cache buffers '
 00096A 4590 6B80            01BA0  6176  3          +
 00096E 9180 3004      00004        6177  3  706.                    IF    CITFDISABLED,'SEG " (disabled)"'
 000972 47E0 792E            0097E  6187  3          +
 000976 4110 03AA            003AA  6194  4          +
 00097A 4590 6B80            01BA0  6195  3          +
 00097E 9140 3004      00004        6200  3  707.                    IF    CITFVERIFY,'SEG " (data verification)"'
 000982 47E0 793E            0098E  6210  3          +
 000986 4110 03B6            003B6  6217  4          +
 00098A 4590 6B80            01BA0  6218  3          +
 00098E 4D90 71B6            00206  6223  3  708.                    LCALL WRITE
                                    6225  3  709.
 000992 4110 03CB            003CB  6226  3  710.                    SEG   '            '
 000996 4590 6B80            01BA0  6228  3          +
 00099A 58F0 300C/1B00       0000C  6229  3  711.                    SEGDC 0,L:CIT#RD
 0009A0 4D90 7202            00252  6240  3          +
 0009A4 4110 03D8            003D8  6241  3  712.                    SEG   ' lookups ('
 0009A8 4590 6B80            01BA0  6243  3          +
 0009AC 58F0 3010/1B00       00010  6244  3  713.                    SEGDC 0,L:CIT#RDF
 0009B2 4D90 7202            00252  6255  3          +
 0009B6 4110 03E3            003E3  6256  3  714.                    SEG   ' in cache, '
 0009BA 4590 6B80            01BA0  6258  3          +
 0009BE 5800 3010            00010  6259  3  715.                    L     R0,CIT#RDF
 0009C2 5810 300C            0000C  6260  3  716.                    L     R1,CIT#RD
 0009C6 5890 6C28/0D99       01C48  6261  3  717.                    ACALL PRCT0
 0009CC 4110 03EF            003EF  6265  3  718.                    SEG   '), '
 0009D0 4590 6B80            01BA0  6267  3          +
 0009D4 58F0 3014/1B00       00014  6268  3  719.                    SEGDC 0,L:CIT#WR
 0009DA 4D90 7202            00252  6279  3          +
 0009DE 4110 03F3            003F3  6280  3  720.                    SEG   ' updates'
 0009E2 4590 6B80            01BA0  6282  3          +
 0009E6 4D90 71B6            00206  6283  3  721.                    LCALL WRITE
1VSSW     (VSSW07) (09:49) (22MAR04) SHOW VINFO Command                                                                     Page   57
0Current Usings:  (PZERO,R0) (CIT,R3) (FILECB,R4) (BASE2,R6) (BASE,R7) (WA,R8) (CLW,R10)
0Loc    Object Code    Addr1 Addr2  Stmt Lv Lineno    Source Statement           (Hibal 5, Asmedit 3.3)  HLASM R4.0  2004/03/22 09.49
+___    ______ ____    _____ _____  ____ __ ______    ______ _________
00009EA                             6285  2  722.                  END   ,
 DROP   CIT,R3                      6289  1  723.                END   ,
 0009EA 07F2                        6298  1  724.                BR    R2
1VSSW     (VSSW07) (09:49) (22MAR04) SHOW VINFO Command                                                                     Page   58
0Current Usings:  (PZERO,R0) (FILECB,R4) (BASE2,R6) (BASE,R7) (WA,R8) (CLW,R10)
0Loc    Object Code    Addr1 Addr2  Stmt Lv Lineno    Source Statement           (Hibal 5, Asmedit 3.3)  HLASM R4.0  2004/03/22 09.49
+___    ______ ____    _____ _____  ____ __ ______    ______ _________
00009EC                             6300  1  726.     DOCITH     LABEL ,                   Hiperspace cache
 0009EC 1233/4770 79AE       009FE  6302  1  727.                IF    (R3,Z),BEGIN        No caching...
 0009F2 4110 0366            00366  6316  2  728.                  SEG   ' No cache is defined.'
 0009F6 4590 6B80            01BA0  6318  2          +
 0009FA 4D90 71B6            00206  6319  2  729.                  LCALL WRITE
 0009FE                             6321  1  730.                END   ,
                                    6325  1  731.
 0009FE 79B2           009FE 009F0  6326  1  732.                ELSE  BEGIN
 0009FE 47F0 7AE2            00B32  6331  1          +
 USING  CITH,R3                     6337  2  733.                  WITH  (CITH,R3)
 000A02                             6350  2  734.                  IF    (CITHBID,NE,'CITH'),BEGIN
 000A02 D503 6C2C 3000 01C4C 00000  6361  2          +
 000A08 4780 79C8            00A18  6362  2          +
 000A0C 4110 03FC            003FC  6367  3  735.                    SEG   ' (CITH control block ID error)'
 000A10 4590 6B80            01BA0  6369  3          +
 000A14 4D90 71B6            00206  6370  3  736.                    LCALL WRITE
 000A18                             6372  2  737.                  END
                                    6376  2  738.
 000A18 79CC           00A18 00A0A  6377  2  739.                  ELSE  BEGIN               Display CITH info...
 000A18 47F0 7AE2            00B32  6382  2          +
 000A1C 58F0 3018/1B00       00018  6388  3  740.                    SEGDC 0,L:CITHNBUF
 000A22 4D90 7202            00252  6399  3          +
 000A26 4110 041B            0041B  6400  3  741.                    SEG   ' cache buffers'
 000A2A 4590 6B80            01BA0  6402  3          +
 000A2E 4D90 71B6            00206  6403  3  742.                    LCALL WRITE
                                    6405  3  743.
 000A32 4110 042A            0042A  6406  3  744.                    SEG   '    '
 000A36 4590 6B80            01BA0  6408  3          +
 000A3A 58F0 3020/1B00       00020  6409  3  745.                    SEGDC 0,L:CITH#RD
 000A40 4D90 7202            00252  6420  3          +
 000A44 4110 042F            0042F  6421  3  746.                    SEG   ' reads ('
 000A48 4590 6B80            01BA0  6423  3          +
 000A4C 58F0 3024/1B00       00024  6424  3  747.                    SEGDC 0,L:CITH#RDF
 000A52 4D90 7202            00252  6435  3          +
 000A56 4110 03E3            003E3  6436  3  748.                    SEG   ' in cache, '
 000A5A 4590 6B80            01BA0  6438  3          +
 000A5E 5800 3024            00024  6439  3  749.                    L     R0,CITH#RDF
 000A62 5810 3020            00020  6440  3  750.                    L     R1,CITH#RD
 000A66 5890 6C28/0D99       01C48  6441  3  751.                    ACALL PRCT0
 000A6C 4110 03EF            003EF  6445  3  752.                    SEG   '), '
 000A70 4590 6B80            01BA0  6447  3          +
 000A74 58F0 302C/1B00       0002C  6448  3  753.                    SEGDC 0,L:CITH#WR
 000A7A 4D90 7202            00252  6459  3          +
 000A7E 4110 01D7            001D7  6460  3  754.                    SEG   ' writes'
 000A82 4590 6B80            01BA0  6462  3          +
 000A86 4D90 71B6            00206  6463  3  755.                    LCALL WRITE
 000A8A 4110 042A            0042A  6465  3  756.                    SEG   '    '
 000A8E 4590 6B80            01BA0  6467  3          +
 000A92 58F0 3028/1B00       00028  6468  3  757.                    SEGDC 0,L:CITH#RDS
 000A98 4D90 7202            00252  6479  3          +
 000A9C 4110 0438            00438  6480  3  758.                    SEG   ' cache buffers stolen ('
 000AA0 4590 6B80            01BA0  6482  3          +
 000AA4 5800 3028            00028  6483  3  759.                    L     R0,CITH#RDS
 000AA8 5810 3020            00020  6484  3  760.                    L     R1,CITH#RD
1VSSW     (VSSW07) (09:49) (22MAR04) SHOW VINFO Command                                                                     Page   59
0Current Usings:  (PZERO,R0) (CITH,R3) (FILECB,R4) (BASE2,R6) (BASE,R7) (WA,R8) (CLW,R10)
0Loc    Object Code    Addr1 Addr2  Stmt Lv Lineno    Source Statement           (Hibal 5, Asmedit 3.3)  HLASM R4.0  2004/03/22 09.49
+___    ______ ____    _____ _____  ____ __ ______    ______ _________
0000AAC 5F10 3024            00024  6485  3  761.                    SL    R1,CITH#RDF   Calc count not found
 000AB0 5890 6C28/0D99       01C48  6486  3  762.                    ACALL PRCT0
 000AB6 4110 0450            00450  6490  3  763.                    SEG   '), Avg IO microseconds, reads '
 000ABA 4590 6B80            01BA0  6492  3          +
 000ABE                             6493  3  764.                    IF    (CITH#RDF,NZ),BEGIN
 000ABE D603 3024 3024 00024 00024  6503  3          +
 000AC4 4780 7A94            00AE4  6504  3          +
 000AC8 58E0 3024            00024  6509  4  765.                      L     R14,CITH#RDF
 000ACC 9801 3030            00030  6510  4  766.                      LM    R0,R1,CITH#RDT      Total TOD units
 000AD0 12EE/47B0 7A8E       00ADE  6511  4  767.                      IF    (R14,M),BEGIN
 000AD6 88E0 0001            00001  6525  5  768.                        SRL   R14,1
 000ADA 8C00 0001            00001  6526  5  769.                        SRDL  R0,1
 000ADE                             6527  4  770.                      END   ,
 000ADE 1D0E                        6531  4  771.                      DR    R0,R14              Per read found
 000AE0 8810 000C            0000C  6532  4  772.                      SRL   R1,12               convert to mili seconds
 000AE4                             6533  3  773.                    END   ,
 000AE4 7A98           00AE4 00AC6  6537  3  774.                    ELSE  'CLEAR R1'
 000AE4 47F0 7A9A/1B11       00AEA  6542  3          +
 000AEA 18F1/1B00                   6557  3  775.                    SEGDC 0,(R1)
 000AEE 4D90 7202            00252  6568  3          +
 000AF2 4110 046F            0046F  6569  3  776.                    SEG   ', writes '
 000AF6 4590 6B80            01BA0  6571  3          +
 000AFA                             6572  3  777.                    IF    (CITH#WR,NZ),BEGIN
 000AFA D603 302C 302C 0002C 0002C  6582  3          +
 000B00 4780 7AD0            00B20  6583  3          +
 000B04 58E0 302C            0002C  6588  4  778.                      L     R14,CITH#WR
 000B08 9801 3038            00038  6589  4  779.                      LM    R0,R1,CITH#WRT      Total TOD units
 000B0C 12EE/47B0 7ACA       00B1A  6590  4  780.                      IF    (R14,M),BEGIN
 000B12 88E0 0001            00001  6604  5  781.                        SRL   R14,1
 000B16 8C00 0001            00001  6605  5  782.                        SRDL  R0,1
 000B1A                             6606  4  783.                      END   ,
 000B1A 1D0E                        6610  4  784.                      DR    R0,R14              Per write
 000B1C 8810 000C            0000C  6611  4  785.                      SRL   R1,12               convert to milliseconds
 000B20                             6612  3  786.                    END   ,
 000B20 7AD4           00B20 00B02  6616  3  787.                    ELSE  'CLEAR R1'
 000B20 47F0 7AD6/1B11       00B26  6621  3          +
 000B26 18F1/1B00                   6636  3  788.                    SEGDC 0,(R1)
 000B2A 4D90 7202            00252  6647  3          +
 000B2E 4D90 71B6            00206  6648  3  789.                    LCALL WRITE
 000B32                             6650  2  790.                  END   ,
 DROP   CITH,R3                     6654  1  791.                END   ,
 000B32 07F2                        6663  1  792.                BR    R2
1VSSW     (VSSW07) (09:49) (22MAR04) SHOW VBLOCKS Command                                                                   Page   60
0Current Usings:  (PZERO,R0) (FILECB,R4) (BASE2,R6) (BASE,R7) (WA,R8) (CLW,R10)
0Loc    Object Code    Addr1 Addr2  Stmt Lv Lineno    Source Statement           (Hibal 5, Asmedit 3.3)  HLASM R4.0  2004/03/22 09.49
+___    ______ ____    _____ _____  ____ __ ______    ______ _________
0                                   6665  1  794.
                                    6666  1  795.
                                    6667  1  796.             SHOW VBLOCKS
                                    6668  1  797.
                                          1
0000B34                             6669  1  798.     SHVBLOCK   LABEL ,                       SHOW VBLOCKS COMMAND ENTRY
 000B34                             6671  1  799.                CLEAR WAVBWA              Initialize work area
 000B34 D759 8028 8028 00028 00028  6677  1          +
                                    6678  1  800.
 000B3A 4110 7DEE            00E3E  6679  1  801.                SCAN  SHVBPRT,CLWKWCB     SHOW VBLOCKS options
 000B3E 41F0 A2C4            002C4  6693  1          +
 000B42 58E0 6C30/0DEE       01C50  6696  1          +
 000B48 4770 7020            00070  6698  1  802.                BNZ   SCRET               Trouble, scram
                                    6699  1  803.
                                    6700  1  804.                  Add BTF start of table line.
                                    6701  1  805.
 000B4C 9180 8080      00080        6702  1  806.                IF    WAVBFBTF,BEGIN      BTF...
 000B50 47E0 7B38            00B88  6712  1          +
 000B54 4110 0479            00479  6717  2  807.                  SEG   '100|Orvyl file systems;'
 000B58 4590 6B80            01BA0  6719  2          +
 000B5C 4D90 71B6            00206  6720  2  808.                  LCALL WRITE
                                    6722  2  809.
 000B60 4110 0491            00491  6723  2  810.                  SEG   '101|fsid|fsname|blocks_available'
 000B64 4590 6B80            01BA0  6725  2          +
 000B68 4110 04B2            004B2  6726  2  811.                  SEG   '|blocks_total|ios|cache_reads;'
 000B6C 4590 6B80            01BA0  6728  2          +
 000B70 4D90 71B6            00206  6729  2  812.                  LCALL WRITE
                                    6731  2  813.
 000B74 4110 04D1            004D1  6732  2  814.                  SEG   '102|NUMBER|STRING|NUMBER'
 000B78 4590 6B80            01BA0  6734  2          +
 000B7C 4110 04EA            004EA  6735  2  815.                  SEG   '|NUMBER|NUMBER|NUMBER;'
 000B80 4590 6B80            01BA0  6737  2          +
 000B84 4D90 71B6            00206  6738  2  816.                  LCALL WRITE
 000B88                             6740  1  817.                END
                                    6744  1  818.
 000B88 1B22                        6745  1  819.                CLEAR SR                      INDICATE FIRST FILE SYSTEM
                                    6749  1  820.
                                    6750  1  821.                  Go through each file system and display block information.
                                    6751  1  822.
 000B8A                             6752  1  823.                LOOP  BEGIN
 000B8A 4100 0097            00097  6758  2  824.                  SENSE 151,WAVBTEMP,36,(SR)    FILE SYSTEM STATUS
 000B8E 4110 8028            00028  6772  2          +
 000B92 41F0 0024/18E2       00024  6779  2          +
 000B98 0AFA                        6786  2          +
 000B9A 123F                        6787  2  825.                  LTR   TR,R15                  SAVE RETURN CODE
 000B9C 47B0 7BDA            00C2A  6788  2  826.                  IF    NEG,BEGIN           All done...
 000BA0 9180 8080      00080        6799  3  827.                    IF    WAVBFBTF,BEGIN      Add BTF end of table...
 000BA4 47E0 7B64            00BB4  6809  3          +
 000BA8 4110 0501            00501  6814  4  828.                      SEG   '109|End of table;'
 000BAC 4590 6B80            01BA0  6816  4          +
 000BB0 4D90 71B6            00206  6817  4  829.                      LCALL WRITE
 000BB4                             6819  3  830.                    END
 000BB4 7B68           00BB4 00BA6  6823  3  831.                    ELSEIF WAVBFDFF,BEGIN
1VSSW     (VSSW07) (09:49) (22MAR04) SHOW VBLOCKS Command                                                                   Page   61
0Current Usings:  (PZERO,R0) (FILECB,R4) (BASE2,R6) (BASE,R7) (WA,R8) (CLW,R10)
0Loc    Object Code    Addr1 Addr2  Stmt Lv Lineno    Source Statement           (Hibal 5, Asmedit 3.3)  HLASM R4.0  2004/03/22 09.49
+___    ______ ____    _____ _____  ____ __ ______    ______ _________
0000BB4 47F0 7BD6            00C26  6829  3          +
 000BB8 9140 8080      00080        6841  3          +
 000BBC 47E0 7BD6            00C26  6842  3          +
 000BC0 4110 0513            00513  6847  4  832.                      SEG   '   Total:  '
 000BC4 4590 6B80            01BA0  6849  4          +
 000BC8 58F0 8068            00068  6850  4  833.                      SEGDC 9,WAVBAVA
 000BCC 4100 0009            00009  6862  4          +
 000BD0 4D90 7202            00252  6864  4          +
 000BD4 4110 051F            0051F  6865  4  834.                      SEG   ' blks avail'
 000BD8 4590 6B80            01BA0  6867  4          +
 000BDC 58F0 806C            0006C  6868  4  835.                      SEGDC 9,WAVBTOT
 000BE0 4100 0009            00009  6880  4          +
 000BE4 4D90 7202            00252  6882  4          +
 000BE8 4110 052B            0052B  6883  4  836.                      SEG   ' total   '
 000BEC 4590 6B80            01BA0  6885  4          +
 000BF0 9801 8070            00070  6886  4  837.                      LM    R0,R1,WAVBTIO
 000BF4 5890 6C20/0D99       01C40  6887  4  838.                      ACALL SEGDBL
 000BFA 4110 0535            00535  6891  4  839.                      SEG   ' IOs'
 000BFE 4590 6B80            01BA0  6893  4          +
 000C02 98EF 8078            00078  6894  4  840.                      LM    R14,R15,WAVBCAC
 000C06 9801 8070            00070  6895  4  841.                      LM    R0,R1,WAVBTIO
 000C0A 1E1F/47C0 7BC4       00C14  6896  4  842.                      ADLR  R0,R14
 000C10 5E00 6BF8/1E0E       01C18  6911  4          +
 000C16 4D90 70FA            0014A  6917  4  843.                      LCALL PRCT4
 000C1A 4110 053A            0053A  6919  4  844.                      SEG   ' reduced'
 000C1E 4590 6B80            01BA0  6921  4          +
 000C22 4D90 71B6            00206  6922  4  845.                      LCALL WRITE
 000C26                             6924  3  846.                    END   ,
 000C26 47F0 7DEC            00E3C  6928  3  847.                    B     SHVEXIT             Scram
 000C2A                             6929  2  848.                  END
                                    6933  2  849.
                                    6934  2  850.                    BTF format.
                                    6935  2  851.
 000C2A 9180 8080      00080        6936  2  852.                  IF    WAVBFBTF,BEGIN      BTF...
 000C2E 47E0 7C72            00CC2  6946  2          +
 000C32 4110 0543            00543  6951  3  853.                    SEG   '|'
 000C36 4590 6B80            01BA0  6953  3          +
 000C3A 18F2/1B00                   6954  3  854.                    SEGDC 0,(SR)              fsno
 000C3E 4D90 7202            00252  6965  3          +
                                    6966  3  855.
 000C42 4110 0543            00543  6967  3  856.                    SEG   '|'
 000C46 4590 6B80            01BA0  6969  3          +
 000C4A 4110 8028            00028  6970  3  857.                    SETMSG WAVBTEMP,8
 000C4E 4100 0008            00008  6985  3          +
 000C52 58E0 6C34/0DEE       01C54  6986  3  858.                    XCALL RTRIM
 000C58 4590 70DA            0012A  6990  3  859.                    SEG   (R1),(R0)           fsname
                                    7002  3  860.
 000C5C 1233/4780 7C1E       00C6E  7003  3  861.                    IF    (TR,NZ),BEGIN       Bad return code...
 000C62 4110 0545            00545  7017  4  862.                      SEG   '-1|-1|0|0;'        blocks_avail, total, ios, cards
 000C66 4590 6B80            01BA0  7019  4          +
 000C6A 47F0 7DE0            00E30  7020  4  863.                      B     DOBLKWR
 000C6E                             7021  3  864.                    END
                                    7025  3  865.
 000C6E 4110 0543            00543  7026  3  866.                    SEG   '|'
1VSSW     (VSSW07) (09:49) (22MAR04) SHOW VBLOCKS Command                                                                   Page   62
0Current Usings:  (PZERO,R0) (FILECB,R4) (BASE2,R6) (BASE,R7) (WA,R8) (CLW,R10)
0Loc    Object Code    Addr1 Addr2  Stmt Lv Lineno    Source Statement           (Hibal 5, Asmedit 3.3)  HLASM R4.0  2004/03/22 09.49
+___    ______ ____    _____ _____  ____ __ ______    ______ _________
0000C72 4590 6B80            01BA0  7028  3          +
 000C76 58F0 8030/1B00       00030  7029  3  867.                    SEGDC 0,L:WAVBTEMP+8      blocks_available
 000C7C 4D90 7202            00252  7040  3          +
                                    7041  3  868.
 000C80 4110 0543            00543  7042  3  869.                    SEG   '|'
 000C84 4590 6B80            01BA0  7044  3          +
 000C88 58F0 8034/1B00       00034  7045  3  870.                    SEGDC 0,L:WAVBTEMP+12     blocks_total
 000C8E 4D90 7202            00252  7056  3          +
                                    7057  3  871.
 000C92 4110 0543            00543  7058  3  872.                    SEG   '|'
 000C96 4590 6B80            01BA0  7060  3          +
 000C9A 58F0 803C/1B00       0003C  7061  3  873.                    SEGDC 0,L:WAVBTEMP+20     ios
 000CA0 4D90 7202            00252  7072  3          +
                                    7073  3  874.
 000CA4 4110 0543            00543  7074  3  875.                    SEG   '|'
 000CA8 4590 6B80            01BA0  7076  3          +
 000CAC 58F0 8044/1B00       00044  7077  3  876.                    SEGDC 0,L:WAVBTEMP+28     cache_reads
 000CB2 4D90 7202            00252  7088  3          +
 000CB6 4110 0550            00550  7089  3  877.                    SEG   ';'
 000CBA 4590 6B80            01BA0  7091  3          +
 000CBE 47F0 7DE0            00E30  7092  3  878.                    B     DOBLKWR
 000CC2                             7093  2  879.                  END
                                    7097  2  880.
                                    7098  2  881.                    Regular format.
                                    7099  2  882.
 000CC2 9140 8080      00080        7100  2  883.                  IF    WAVBFDFF,BEGIN      DFF ...
 000CC6 47E0 7C9A            00CEA  7110  2          +
 000CCA 1F44/4340 8081       00081  7115  3  884.                    LC    QR,WAVBFSID
 000CD0 18F4/4100 0002       00002  7122  3  885.                    SEGHX 2,(QR)
 000CD6 4D90 7224            00274  7136  3          +
 000CDA 4110 0552            00552  7137  3  886.                    SEG   ' '
 000CDE 4590 6B80            01BA0  7139  3          +
 000CE2 5E40 6BF8            01C18  7140  3  887.                    INCR  QR
 000CE6 4240 8081            00081  7143  3  888.                    STC   QR,WAVBFSID
 000CEA                             7144  2  889.                  END   ,
0000CEA 4140 0008            00008  7149  2  891.                  LA    QR,8                Trim trailing blanks
 000CEE                             7150  2  892.                  LOOP  BEGIN               |
 000CEE 41F4 8027            00027  7156  3  893.                    LA    R15,WAVBTEMP-1(QR)  |
 000CF2 9540 F000      00000        7157  3  894.                    CLI   @R15,C' '           |
 000CF6 4770 7CB0            00D00  7158  3  895.                    IF    NE,EXIT             |
 000CFA 0640                        7172  3  896.                    DECR  QR                  |
 000CFC 47F0 7C9E            00CEE  7174  2  897.                  END   ,                   |
 000D00 4110 8028/1804       00028  7179  2  898.                  SEG   WAVBTEMP,(QR)       File system name
 000D06 4590 70DA            0012A  7194  2          +
 000D0A 4110 0554            00554  7195  2  899.                  SEG   ':'
 000D0E 4590 6B80            01BA0  7197  2          +
                                    7198  2  900.
 000D12 4100 0008            00008  7199  2  901.                  LA    R0,8
 000D16 1B04                        7200  2  902.                  SR    R0,QR
 000D18 4110 6BB0            01BD0  7201  2  903.                  SEG   =CL8' ',(R0)        Add padding blanks for formatting
 000D1C 4590 70DA            0012A  7215  2          +
                                    7216  2  904.
 000D20 9140 8080      00080        7217  2  905.                  IF    WAVBFDFF,DOBLKOK    DFF ...
1VSSW     (VSSW07) (09:49) (22MAR04) SHOW VBLOCKS Command                                                                   Page   63
0Current Usings:  (PZERO,R0) (FILECB,R4) (BASE2,R6) (BASE,R7) (WA,R8) (CLW,R10)
0Loc    Object Code    Addr1 Addr2  Stmt Lv Lineno    Source Statement           (Hibal 5, Asmedit 3.3)  HLASM R4.0  2004/03/22 09.49
+___    ______ ____    _____ _____  ____ __ ______    ______ _________
0000D24 4710 7CFC            00D4C  7229  2          +
                                    7235  2  906.
 000D28 47F3 7CDC            00D2C  7236  2  907.                  B     *+4(TR)                 INDEX INTO VECTOR TABLE
 000D2C 47F0 7CFC            00D4C  7237  2  908.                  B     DOBLKOK               0 FILE SYSTEM AVAILABLE
 000D30 47F0 7CF0            00D40  7238  2  909.                  B     DOBLKNA               4 FILE SYSTEM UNAVAILABLE
                                    7239  2  910.     *                                    8 FILE MAINTENANCE IN PROGRESS
 000D34 4110 0556            00556  7240  2  911.                  SEG   'File system maintenance in progress'
 000D38 4590 6B80            01BA0  7242  2          +
 000D3C 47F0 7DE0            00E30  7243  2  912.                  B     DOBLKWR                 SKIP TO WRITE EXIT
                                    7244  2  913.
 000D40 4110 057A            0057A  7245  2  914.     DOBLKNA      SEG   'File system unavailable'
 000D44 4590 6B80            01BA0  7247  2          +
 000D48 47F0 7DE0            00E30  7248  2  915.                  B     DOBLKWR
                                    7249  2  916.
 000D4C 58F0 8030            00030  7250  2  917.     DOBLKOK      SEGDC 8,WAVBTEMP+8
 000D50 4100 0008            00008  7262  2          +
 000D54 4D90 7202            00252  7264  2          +
 000D58 9140 8080      00080        7265  2  918.                  IF    WAVBFDFF,BEGIN      DFF ...
 000D5C 47E0 7D62            00DB2  7275  2          +
 000D60 58E0 8030            00030  7280  3  919.                    L     R14,WAVBTEMP+8
 000D64 5EE0 8068            00068  7281  3  920.                    AL    R14,WAVBAVA
 000D68 50E0 8068            00068  7282  3  921.                    ST    R14,WAVBAVA
 000D6C 58E0 8034            00034  7283  3  922.                    L     R14,WAVBTEMP+12
 000D70 5EE0 806C            0006C  7284  3  923.                    AL    R14,WAVBTOT
 000D74 50E0 806C            0006C  7285  3  924.                    ST    R14,WAVBTOT
 000D78 1BEE                        7286  3  925.                    CLEAR R14
 000D7A 58F0 803C            0003C  7290  3  926.                    L     R15,WAVBTEMP+20
 000D7E 5EF0 8074            00074  7291  3  927.                    ADL   R14,WAVBTIO
 000D82 47C0 7D3A            00D8A  7300  3          +
 000D86 5EE0 6BF8            01C18  7306  3          +
 000D8A 5EE0 8070            00070  7311  3          +
 000D8E 90EF 8070            00070  7312  3  928.                    STM   R14,R15,WAVBTIO
 000D92 98EF 8040            00040  7313  3  930.                    LM    R14,R15,WAVBTEMP+24
 000D96 5EF0 807C            0007C  7314  3  931.                    ADL   R14,WAVBCAC
 000D9A 47C0 7D52            00DA2  7323  3          +
 000D9E 5EE0 6BF8            01C18  7329  3          +
 000DA2 5EE0 8078            00078  7334  3          +
 000DA6 90EF 8078            00078  7335  3  932.                    STM   R14,R15,WAVBCAC
 000DAA 4110 051F            0051F  7336  3  933.                    SEG   ' blks avail'
 000DAE 4590 6B80            01BA0  7338  3          +
 000DB2                             7339  2  934.                  END   ,
 000DB2 7D66           00DB2 00D5E  7343  2  935.                  ELSE  BEGIN
 000DB2 47F0 7D6E            00DBE  7348  2          +
 000DB6 4110 0592            00592  7354  3  936.                    SEG   ' blocks available'
 000DBA 4590 6B80            01BA0  7356  3          +
 000DBE                             7357  2  937.                  END   ,
 000DBE 58F0 8034            00034  7361  2  938.                  SEGDC 9,WAVBTEMP+12
 000DC2 4100 0009            00009  7373  2          +
 000DC6 4D90 7202            00252  7375  2          +
 000DCA 4110 05A4            005A4  7376  2  939.                  SEG   ' total '
 000DCE 4590 6B80            01BA0  7378  2          +
 000DD2                             7379  2  940.                  IF    (WAVBTEMP+32,NE,=F'0'),BEGIN  4K
 000DD2 D503 6C38 8048 01C58 00048  7390  2          +
 000DD8 4780 7D94            00DE4  7391  2          +
1VSSW     (VSSW07) (09:49) (22MAR04) SHOW VBLOCKS Command                                                                   Page   64
0Current Usings:  (PZERO,R0) (FILECB,R4) (BASE2,R6) (BASE,R7) (WA,R8) (CLW,R10)
0Loc    Object Code    Addr1 Addr2  Stmt Lv Lineno    Source Statement           (Hibal 5, Asmedit 3.3)  HLASM R4.0  2004/03/22 09.49
+___    ______ ____    _____ _____  ____ __ ______    ______ _________
0000DDC 4110 05AC            005AC  7396  3  941.                    SEG   '4K'
 000DE0 4590 6B80            01BA0  7398  3          +
 000DE4                             7399  2  942.                  END   ,
 000DE4 7D98           00DE4 00DDA  7403  2  943.                  ELSE  BEGIN
 000DE4 47F0 7DA0            00DF0  7408  2          +
 000DE8 4110 05AF            005AF  7414  3  944.                    SEG   '2K'
 000DEC 4590 6B80            01BA0  7416  3          +
 000DF0                             7417  2  945.                  END   ,
 000DF0 58F0 803C            0003C  7421  2  946.                  SEGDC 11,WAVBTEMP+20
 000DF4 4100 000B            0000B  7433  2          +
 000DF8 4D90 7202            00252  7435  2          +
 000DFC 4110 0535            00535  7436  2  947.                  SEG   ' IOs'
 000E00 4590 6B80            01BA0  7438  2          +
                                    7439  2  948.
 000E04                             7440  2  949.                  IF    (WAVBTEMP+16,NE,=F'0'),BEGIN  Cached...
 000E04 D503 6C38 8038 01C58 00038  7451  2          +
 000E0A 4780 7DE0            00E30  7452  2          +
 000E0E 98EF 8040            00040  7457  3  950.                    LM    R14,R15,WAVBTEMP+24  Number of cache reads
 000E12 1B00                        7458  3  951.                    CLEAR R0
 000E14 5810 803C            0003C  7462  3  952.                    L     R1,WAVBTEMP+20      Total no. of disk I/O's
 000E18 1E1F/47C0 7DD2       00E22  7463  3  953.                    ADLR  R0,R14              Calc cache + disk
 000E1E 5E00 6BF8/1E0E       01C18  7478  3          +
 000E24 4D90 70FA            0014A  7484  3  954.                    LCALL PRCT4
 000E28 4110 053A            0053A  7486  3  955.                    SEG   ' reduced'
 000E2C 4590 6B80            01BA0  7488  3          +
 000E30                             7489  2  956.                  END
                                    7493  2  957.
 000E30 4D90 71B6            00206  7494  2  958.     DOBLKWR      LCALL WRITE                   REPORT ON FILE STATUS
 000E34 5E20 6BF8            01C18  7496  2  959.                  INCR  SR                      AND DO NEXT
 000E38 47F0 7B3A            00B8A  7499  1  960.                END
                                    7504  1  961.
 000E3C                             7505  1  962.     SHVEXIT    LABEL
 000E3C 07F7                        7507  1  963.                BR    BR                      RETURN COMPLETE
                                    7508  1  964.
                                    7509  1  965.                  SHOW VBLOCKS Options.
                                    7510  1  966.
 000E3E                             7511  1  967.     SHVBPRT    SCKW  BTF,SETVBBTF
 000E3E 02000E58C2E3C6              7512  1          +
 000E45                             7513  1  968.                SCKW  DFF,SETVBDFF
 000E45 02000E5EC4C6C6              7514  1          +
 000E4C                             7515  1  969.                SCKW  PJG,SETVBDFF
 000E4C 02000E5ED7D1C7              7516  1          +
 000E53 FF0000FA                    7517  1  970.                SCKW  ,UNREC
                                    7519  1  971.
 000E58 9680 8080      00080        7520  1  972.     SETVBBTF   SET   WAVBFBTF
 000E5C 07FE                        7527  1  973.                SCRTN (15)
                                    7534  1  974.
 000E5E 9640 8080      00080        7535  1  975.     SETVBDFF   SET   WAVBFDFF
 000E62 07FE                        7542  1  976.                SCRTN (15)
1VSSW     (VSSW07) (09:49) (22MAR04) SHOW  VFILES Command                                                                   Page   65
0Current Usings:  (PZERO,R0) (FILECB,R4) (BASE2,R6) (BASE,R7) (WA,R8) (CLW,R10)
0Loc    Object Code    Addr1 Addr2  Stmt Lv Lineno    Source Statement           (Hibal 5, Asmedit 3.3)  HLASM R4.0  2004/03/22 09.49
+___    ______ ____    _____ _____  ____ __ ______    ______ _________
0                                   7550  1  978.
                                    7551  1  979.
                                    7552  1  980.             SHOW VFILES
                                    7553  1  981.
                                    7554  1  982.                Displays the state of internal queue control blocks
                                    7555  1  983.                maintained by RESMAN.
                                    7556  1  984.
                                          1
0000E64                             7557  1  985.     SHVFILES   LABEL
 000E64                             7559  1  986.                CLEAR WAVFWA              Initialize our work area
 000E64 D767 8028 8028 00028 00028  7565  1          +
                                    7566  1  987.
                                    7567  1  988.                  Scan SHOW VFILES options.
                                    7568  1  989.
 000E6A 4110 634C            0136C  7569  1  990.                SCAN  SHVFPRT,CLWKWCB     SHOW VFILES options
 000E6E 41F0 A2C4            002C4  7583  1          +
 000E72 58E0 6C30/0DEE       01C50  7586  1          +
 000E78 4770 7020            00070  7588  1  991.                BNZ   SCRET               Trouble, scram
                                    7589  1  992.
 000E7C 4D90 724C            0029C  7590  1  993.                LCALL AMODE31             ********
                                    7592  1  994.     *
                                    7593  1  995.
                                    7594  1  996.                  Title line.
                                    7595  1  997.
 000E80 4D90 71B6            00206  7596  1  998.                LCALL WRITE
 000E84 4110 05B2            005B2  7598  1  999.                SEG   'Attached files'
 000E88 4590 6B80            01BA0  7600  1          +
 000E8C                             7601  1 1000.                IF    (WAVFLLEN,NZ),BEGIN
 000E8C D601 802A 802A 0002A 0002A  7611  1          +
 000E92 4780 7E5A            00EAA  7612  1          +
 000E96 4110 05C1            005C1  7617  2 1001.                  SEG   ' like ORV.'
 000E9A 4590 6B80            01BA0  7619  2          +
 000E9E 4110 802C            0002C  7620  2 1002.                  SEG   WAVFLIKE,LH:WAVFLLEN
 000EA2 4800 802A            0002A  7633  2          +
 000EA6 4590 70DA            0012A  7634  2          +
 000EAA                             7635  1 1003.                END
 000EAA                             7639  1 1004.                IF    (WAVFLNO,NZ),'SEG " for line "; SEGDC 0,L:WAVFLNO'
 000EAA D603 8054 8054 00054 00054  7649  1          +
 000EB0 4780 7E76            00EC6  7650  1          +
 000EB4 4110 05CC            005CC  7657  2          +
 000EB8 4590 6B80            01BA0  7658  2          +
 000EBC 58F0 8054/1B00       00054  7664  2          +
 000EC2 4D90 7202            00252  7670  1          +
 000EC6 4110 0554            00554  7675  1 1005.                SEG   ':'
 000ECA 4590 6B80            01BA0  7677  1          +
 000ECE 4D90 71B6            00206  7678  1 1006.                LCALL WRITE
 DROP   FILECB,R4                   7680  1 1007.                WITH  (FSB,R4),BEGIN      FSB addressability
 USING  FSB,R4
 000ED2 5830 0200            00200  7697  2 1008.                  L     R3,MATPTR
 000ED6 5830 3028            00028  7698  2 1009.                  WITH  (MAT,R3),'L R3,MATFILCB'
 USING  MAT,R3
 DROP   MAT,R3
 USING  FILECB,R3                   7722  2 1010.                  WITH  (FILECB,R3),BEGIN   FILECB addressability
1VSSW     (VSSW07) (09:49) (22MAR04) SHOW  VFILES Command                                                                   Page   66
0Current Usings:  (PZERO,R0) (FILECB,R3) (FSB,R4) (BASE2,R6) (BASE,R7) (WA,R8) (CLW,R10)
0Loc    Object Code    Addr1 Addr2  Stmt Lv Lineno    Source Statement           (Hibal 5, Asmedit 3.3)  HLASM R4.0  2004/03/22 09.49
+___    ______ ____    _____ _____  ____ __ ______    ______ _________
0000EDA 9140 8028      00028        7736  3 1011.                    IF    (WAVFNODI,OR,WAVFCNTS),BEGIN Display counts
 000EDE 4710 7E9A            00EEA  7750  3          +
 000EE2 9120 8028      00028        7759  3          +
 000EE6 47E0 7F2E            00F7E  7760  3          +
                                    7765  4 1012.     * Note:  If seven users have FILEA attached then files attched
                                    7766  4 1013.     *        would be one and total attaches would be seven.
 000EEA 4D90 71B6            00206  7767  4 1014.                      LCALL WRITE
 000EEE 4110 05D7            005D7  7769  4 1015.                      SEG   'Total Orvyl file attached counts'
 000EF2 4590 6B80            01BA0  7771  4          +
 000EF6 4D90 71B6            00206  7772  4 1016.                      LCALL WRITE
 000EFA 4110 05F8            005F8  7774  4 1017.                      SEG   'Files attached: '
 000EFE 4590 6B80            01BA0  7776  4          +
 000F02 58F0 30E0            000E0  7777  4 1018.                      SEGDC 10,L:TTFILATT
 000F06 4100 000A            0000A  7789  4          +
 000F0A 4D90 7202            00252  7791  4          +
 000F0E 4110 0609            00609  7792  4 1019.                      SEG   ', high-water: '
 000F12 4590 6B80            01BA0  7794  4          +
 000F16 58F0 30E4            000E4  7795  4 1020.                      SEGDC 10,L:TTFILATM
 000F1A 4100 000A            0000A  7807  4          +
 000F1E 4D90 7202            00252  7809  4          +
 000F22 4D90 71B6            00206  7810  4 1021.                      LCALL WRITE
 000F26 4110 0618            00618  7812  4 1022.                      SEG   'Total attaches: '
 000F2A 4590 6B80            01BA0  7814  4          +
 000F2E 58F0 30E8            000E8  7815  4 1023.                      SEGDC 10,L:TTFILAUS
 000F32 4100 000A            0000A  7827  4          +
 000F36 4D90 7202            00252  7829  4          +
 000F3A 4110 0609            00609  7830  4 1024.                      SEG   ', high-water: '
 000F3E 4590 6B80            01BA0  7832  4          +
 000F42 58F0 30EC            000EC  7833  4 1025.                      SEGDC 10,L:TTFILAUM
 000F46 4100 000A            0000A  7845  4          +
 000F4A 4D90 7202            00252  7847  4          +
 000F4E 4D90 71B6            00206  7848  4 1026.                      LCALL WRITE
 000F52 4110 0629            00629  7850  4 1027.                      SEG   'Tempf attached: '
 000F56 4590 6B80            01BA0  7852  4          +
 000F5A 58F0 30F0            000F0  7853  4 1028.                      SEGDC 10,L:TTFILATP
 000F5E 4100 000A            0000A  7865  4          +
 000F62 4D90 7202            00252  7867  4          +
 000F66 4110 0609            00609  7868  4 1029.                      SEG   ', high-water: '
 000F6A 4590 6B80            01BA0  7870  4          +
 000F6E 58F0 30F4            000F4  7871  4 1030.                      SEGDC 10,L:TTFILAPM
 000F72 4100 000A            0000A  7883  4          +
 000F76 4D90 7202            00252  7885  4          +
 000F7A 4D90 71B6            00206  7886  4 1031.                      LCALL WRITE
 000F7E                             7888  3 1032.                    END   ,                   Display counts
 000F7E 5840 3008            00008  7892  3 1033.                    L     R4,FILEFFSB         Get first FSB pointer
 000F82 9110 8028      00028        7893  3 1034.                    IF    WAVFFID,BEGIN       Only display one file system
 000F86 47E0 7F62            00FB2  7903  3          +
 000F8A                             7908  4 1035.                      IF    (WAVFIFID,GE,FILEFSBC),BEGIN
 000F8A D503 8058 300C 00058 0000C  7920  4          +
 000F90 4750 7F50            00FA0  7921  4          +
 000F94 4110 6C6A            01C8A  7926  5 1036.                        SETMSG 'Invalid file system id'
 000F98 4100 0016            00016  7929  5          +
 000F9C 47F0 70CE            0011E  7930  5 1037.                        B     MSGEXIT
 000FA0                             7931  4 1038.                      END   ,
1VSSW     (VSSW07) (09:49) (22MAR04) SHOW  VFILES Command                                                                   Page   67
0Current Usings:  (PZERO,R0) (FILECB,R3) (FSB,R4) (BASE2,R6) (BASE,R7) (WA,R8) (CLW,R10)
0Loc    Object Code    Addr1 Addr2  Stmt Lv Lineno    Source Statement           (Hibal 5, Asmedit 3.3)  HLASM R4.0  2004/03/22 09.49
+___    ______ ____    _____ _____  ____ __ ______    ______ _________
0000FA0                             7935  4 1039.                      WHILE (FSBID,NE,WAVFIFID+3),'L R4,FSBCHAIN' Point to file sys
 000FA0 D500 4008 805B 00008 0005B  7949  4          +
 000FA6 4780 7F62            00FB2  7950  4          +
 000FAA 5840 4004            00004  7956  4          +
 000FAE 47F0 7F50            00FA0  7960  4          +
 000FB2                             7962  3 1040.                    END   ,                   Only display one file system
 DROP   FILECB,R3                   7966  2 1041.                  END   ,                   FILECB addressability
0000FB2 1244/4780 60BA       010DA  7975  2 1043.                  WHILE (R4,NZ),BEGIN       Main loop
 000FB8 D203 805C 4004 0005C 00004  7991  3 1044.                    MVC   WAVFNFSB,FSBCHAIN   Set next FSB pointer
 000FBE D203 8060 403C 00060 0003C  7992  3 1045.                    MVC   WAVFAHFB,FSBAHFB    Set current hash table ptr
 000FC4 D200 808F 4008 0008F 00008  7993  3 1046.                    MVC   WAVFDFID,FSBID      Set file id for display
 000FCA                             7994  3 1047.                    CLEAR WAVFAHFN
 000FCA D703 8064 8064 00064 00064  8000  3          +
 000FD0 4D90 71B6            00206  8001  3 1048.                    LCALL WRITE
 000FD4 4110 063A            0063A  8003  3 1049.                    SEG   'File System ID: '
 000FD8 4590 6B80            01BA0  8005  3          +
 000FDC 1FFF/43F0 4008       00008  8006  3 1050.                    SEGDC 0,LC:FSBID
 000FE2 1B00/4D90 7202       00252  8020  3          +
 000FE8 4110 064B            0064B  8023  3 1051.                    SEG   ', Name: '
 000FEC 4590 6B80            01BA0  8025  3          +
 000FF0 4110 4018            00018  8026  3 1052.                    SEG   FSBNAME,L'FSBNAME
 000FF4 4100 0008            00008  8042  3          +
 000FF8 4590 70DA            0012A  8043  3          +
 000FFC 9140 8028      00028        8044  3 1053.                    IF    (WAVFNODI,OR,WAVFCNTS),BEGIN Display counts
 001000 4710 7FBC            0100C  8058  3          +
 001004 9120 8028      00028        8067  3          +
 001008 47E0 6074            01094  8068  3          +
 00100C 4D90 71B6            00206  8073  4 1054.                      LCALL WRITE
 001010 4110 05F8            005F8  8075  4 1055.                      SEG   'Files attached: '
 001014 4590 6B80            01BA0  8077  4          +
 001018 58F0 4124            00124  8078  4 1056.                      SEGDC 10,L:CTFILATT
 00101C 4100 000A            0000A  8090  4          +
 001020 4D90 7202            00252  8092  4          +
 001024 4110 0609            00609  8093  4 1057.                      SEG   ', high-water: '
 001028 4590 6B80            01BA0  8095  4          +
 00102C 58F0 4128            00128  8096  4 1058.                      SEGDC 10,L:CTFILATM
 001030 4100 000A            0000A  8108  4          +
 001034 4D90 7202            00252  8110  4          +
 001038 4D90 71B6            00206  8111  4 1059.                      LCALL WRITE
 00103C 4110 0618            00618  8113  4 1060.                      SEG   'Total attaches: '
 001040 4590 6B80            01BA0  8115  4          +
 001044 58F0 412C            0012C  8116  4 1061.                      SEGDC 10,L:CTFILAUS
 001048 4100 000A            0000A  8128  4          +
 00104C 4D90 7202            00252  8130  4          +
 001050 4110 0609            00609  8131  4 1062.                      SEG   ', high-water: '
 001054 4590 6B80            01BA0  8133  4          +
 001058 58F0 4130            00130  8134  4 1063.                      SEGDC 10,L:CTFILAUM
 00105C 4100 000A            0000A  8146  4          +
 001060 4D90 7202            00252  8148  4          +
 001064 4D90 71B6            00206  8149  4 1064.                      LCALL WRITE
 001068 4110 0629            00629  8151  4 1065.                      SEG   'Tempf attached: '
 00106C 4590 6B80            01BA0  8153  4          +
 001070 58F0 4134            00134  8154  4 1066.                      SEGDC 10,L:CTFILATP
1VSSW     (VSSW07) (09:49) (22MAR04) SHOW  VFILES Command                                                                   Page   68
0Current Usings:  (PZERO,R0) (FSB,R4) (BASE2,R6) (BASE,R7) (WA,R8) (CLW,R10)
0Loc    Object Code    Addr1 Addr2  Stmt Lv Lineno    Source Statement           (Hibal 5, Asmedit 3.3)  HLASM R4.0  2004/03/22 09.49
+___    ______ ____    _____ _____  ____ __ ______    ______ _________
0001074 4100 000A            0000A  8166  4          +
 001078 4D90 7202            00252  8168  4          +
 00107C 4110 0609            00609  8169  4 1067.                      SEG   ', high-water: '
 001080 4590 6B80            01BA0  8171  4          +
 001084 58F0 4138            00138  8172  4 1068.                      SEGDC 10,L:CTFILAPM
 001088 4100 000A            0000A  8184  4          +
 00108C 4D90 7202            00252  8186  4          +
 001090 4D90 71B6            00206  8187  4 1069.                      LCALL WRITE
 001094                             8189  3 1070.                    END   ,                   Display counts
 001094 4D90 71B6            00206  8193  3 1071.                    LCALL WRITE
 001098 5840 805C            0005C  8195  3 1072.                    L     R4,WAVFNFSB         Point to next FSB
 00109C 9140 8028      00028        8196  3 1073.                    IF    WAVFNODI,NEXT       No display, take it from the top
 0010A0 4710 7F62            00FB2  8208  3          +
 0010A4                             8214  3 1074.                    LOOP  BEGIN               All hash queues
 0010A4 5840 8064            00064  8220  4 1075.                      L     R4,WAVFAHFN         Get slot number
 0010A8 4C40 6C80            01CA0  8221  4 1076.                      MH    R4,=Y(L'AHFBL)      Calc displacement
 0010AC 5A40 8060            00060  8222  4 1077.                      A     R4,WAVFAHFB         Point to it
 0010B0 4D90 60CA            010EA  8223  4 1078.                      LCALL SHVFATFB            Process files attached here
 0010B4 41F0 0001            00001  8225  4 1079.                      INCR  R15,WAVFAHFN        Check the next slot
 0010B8 5EF0 8064            00064  8229  4          +
 0010BC 50F0 8064            00064  8230  4          +
 0010C0                             8231  3 1080.                    UNTIL (WAVFAHFN,GE,=A(AHFBCNT)),END  All hash queues
 0010C0 D503 6C3C 8064 01C5C 00064  8247  3          +
 0010C6 4730 6084            010A4  8250  3          +
 0010CA 9110 8028      00028        8256  3 1081.                    IF    WAVFFID,EXIT        Display only one file system
 0010CE 4710 60BA            010DA  8268  3          +
 0010D2 5840 805C            0005C  8274  3 1082.                    L     R4,WAVFNFSB         Point to next FSB
 0010D6 47F0 7F62            00FB2  8275  2 1083.                  END   ,                   Main loop
 DROP   FSB,R4                      8280  1 1084.                END   ,                   FSB addressability
 USING  FILECB,R4
 0010DA 4D90 7258            002A8  8295  1 1085.                LCALL AMODE24
 0010DE 4110 6D02            01D22  8297  1 1086.                SETMSG 'End of VFILES Display'
 0010E2 4100 0015            00015  8300  1          +
 0010E6 47F0 70CE            0011E  8301  1 1087.                B     MSGEXIT
0                                   8303  1 1089.     *  SHVFATFB - Local routine to chase the hash queue
                                    8304  1 1090.     *
                                    8305  1 1091.     *    On entry:
                                    8306  1 1092.     *      R4 - AHFBL ptr
                                    8307  1 1093.     *
 0010EA 5090 D000            00000  8308  1 1094.     SHVFATFB   VPUSH RAR,,*
 0010EE 41D0 D004            00004  8310  1          +
 0010F2 9005 D000            00000  8311  1 1095.                VPUSH R0,R5,*
 0010F6 41D0 D018            00018  8313  1          +
 DROP   FILECB,R4                   8314  1 1096.                WITH  (AHFB,R4),BEGIN     AHFB addressability
 USING  AHFB,R4
 0010FA                             8331  2 1097.     SHVFATF2     IF    (AHFBLCNT,Z),SHVFATFX No files attached here
 0010FA D603 4018 4018 00018 00018  8342  2          +
 001100 4780 614E            0116E  8345  2          +
 001104 D20B 8068 4010 00068 00010  8351  2 1098.                  MVC   WAVFAHSV,AHFBL      Save start of queue
 00110A 4150 4010            00010  8352  2 1099.                  LA    R5,AHFBL            Point to the queue
 USING  ATFB,R5                     8353  2 1100.                  WITH  (ATFB,R5),BEGIN     ATFB addressability
 00110E                             8367  3 1101.     SHVFATF4       LOOP  BEGIN               Forever
 00110E D50B 4010 8068 00010 00068  8374  4 1102.                      CLC   AHFBL,WAVFAHSV      Queue head the same?
1VSSW     (VSSW07) (09:49) (22MAR04) SHOW  VFILES Command                                                                   Page   69
0Current Usings:  (PZERO,R0) (AHFB,R4) (ATFB,R5) (BASE2,R6) (BASE,R7) (WA,R8) (CLW,R10)
0Loc    Object Code    Addr1 Addr2  Stmt Lv Lineno    Source Statement           (Hibal 5, Asmedit 3.3)  HLASM R4.0  2004/03/22 09.49
+___    ______ ____    _____ _____  ____ __ ______    ______ _________
0001114 4780 6104            01124  8375  4 1103.                      IF    NE,BEGIN            Must start over
 001118 4120 0001            00001  8386  5 1104.                        LA    R2,1                Reason code
 00111C 4D90 631E            0133E  8387  5 1105.                        LCALL SHVFRTRY            Give message
 001120 47F0 60DA            010FA  8389  5 1106.                        B     SHVFATF2            Start the queue again
 001124                             8390  4 1107.                      END   ,                   Must start over
 001124 5850 5000            00000  8394  4 1108.                      L     R5,ATFBFP           Point to next attach block
 001128 41F0 4010            00010  8395  4 1109.                      LA    R15,AHFBL
 00112C 195F/4780 614E       0116E  8396  4 1110.                      IF    (R5,EQ,R15),EXIT    End of the queue
 001132 48F0 802A            0002A  8414  4 1111.                      LH    R15,WAVFLLEN
 001136 12FF/4780 6126       01146  8415  4 1112.                      IF    (R15,NZ),BEGIN      Like option
 00113C 06F0/44F0 6D6A       01D8A  8429  5 1113.                        DEX   R15,'CLC WAVFLIKE(1),ATFBNAME'
 001D89 00                                6          +
 001D8A D500 802C 5028 0002C 00028  8440  5          +
 001142 4770 60EE            0110E  8448  5 1114.                        IF    NE,SHVFATF4         Not this one
 001146                             8462  4 1115.                      END   ,                   Like option
 001146 4110 5028            00028  8466  4 1116.                      LA    R1,ATFBNAME         Point to file name
                                    8467  4 1117.     *
                                    8468  4 1118.     * The reserve resource is used for two situations:
                                    8469  4 1119.     *
                                    8470  4 1120.     *  o During IO, it is obtained share for reads and exclusive
                                    8471  4 1121.     *    for writes. Since the system is obtaining the resource,
                                    8472  4 1122.     *    there will be no excessive delays and so not of interest
                                    8473  4 1123.     *    for this display.
                                    8474  4 1124.     *
                                    8475  4 1125.     *  o It is obtained exclusive for the RESERVE SVC. Here there
                                    8476  4 1126.     *    may be delays as the RELEASE is controled by a user program.
                                    8477  4 1127.     *
                                    8478  4 1128.     *  Therefore we will only display the reserve queue when it has
                                    8479  4 1129.     *  been obtained by the RESERVE SVC.
                                    8480  4 1130.     *
 00114A 9180 500D      0000D        8481  4 1131.                      IF    ATFBFRES,BEGIN      Reserve queue
 00114E 47E0 6142            01162  8491  4          +
 001152 5830 5020            00020  8496  5 1132.                        L     R3,ATFBRGRI
 001156 9680 8029      00029        8497  5 1133.                        SET   WAVFRES
 00115A 4D90 6160            01180  8503  5 1134.                        LCALL SHVFGRES            Process these guys
 00115E 947F 8029      00029        8505  5 1135.                        CLEAR WAVFRES
 001162                             8512  4 1136.                      END   ,
 001162 5830 501C            0001C  8516  4 1137.                      L     R3,ATFBAGRI
 001166 4D90 6160            01180  8517  4 1138.                      LCALL SHVFGRES            Process these guys
 00116A 47F0 60EE            0110E  8519  3 1139.                    END   ,                   Forever
 DROP   ATFB,R5                     8524  2 1140.                  END   ,                   ATFB addressability
 DROP   AHFB,R4                     8532  1 1141.                END   ,                   AHFB addressability
 USING  FILECB,R4
 00116E                             8547  1 1142.     SHVFATFX   LABEL ,
 00116E 4BD0 6C82            01CA2  8549  1 1143.                VPOP  R0,R5,*
 001172 9805 D000            00000  8551  1          +
 001176 4BD0 6C60            01C80  8552  1 1144.                VPOP  RAR,,*
 00117A 5890 D000            00000  8554  1          +
 00117E 07F9                        8555  1 1145.                BR    RAR
0                                   8557  1 1147.     * SHVFGRES - Local routine to chase the resource queue
                                    8558  1 1148.     *
                                    8559  1 1149.     *   On entry:
                                    8560  1 1150.     *     R6 - File name ptr
1VSSW     (VSSW07) (09:49) (22MAR04) SHOW  VFILES Command                                                                   Page   70
0Current Usings:  (PZERO,R0) (FILECB,R4) (BASE2,R6) (BASE,R7) (WA,R8) (CLW,R10)
0Loc    Object Code    Addr1 Addr2  Stmt Lv Lineno    Source Statement           (Hibal 5, Asmedit 3.3)  HLASM R4.0  2004/03/22 09.49
+___    ______ ____    _____ _____  ____ __ ______    ______ _________
0                                   8561  1 1151.     *     R3 - GRITEM pointer
                                    8562  1 1152.     *
 001180 5090 D000            00000  8563  1 1153.     SHVFGRES   VPUSH RAR,,*
 001184 41D0 D004            00004  8565  1          +
 001188 9005 D000            00000  8566  1 1154.                VPUSH R0,R5,*
 00118C 41D0 D018            00018  8568  1          +
 001190 1821                        8569  1 1155.                LR    R2,R1
 001192 4100 0027            00027  8570  1 1156.                LA    R0,L'ATFBNAME-1
 001196                             8571  1 1157.                LOOP  BEGIN
 001196 5E20 6BF8            01C18  8577  2 1158.                  INCR  R2
 00119A 9540 2000      00000        8580  2 1159.                  IF    ('CLI 0(R2),C" "',EQ),EXIT
 00119E 4780 6186            011A6  8590  2          +
 0011A2 4600 6176            01196  8596  1 1160.                UNTIL (BCT,R0),END
 0011A6 1B21                        8606  1 1161.                SR    R2,R1               Calc length
 0011A8 1802                        8607  1 1162.                LR    R0,R2
 0011AA 9001 8084            00084  8608  1 1163.                STM   R0,R1,WAVFNAME      Save SEG parms
 USING  GRITEM,R3                   8609  1 1164.                WITH  (GRITEM,R3),BEGIN   GRITEM addressability
 0011AE D20F 8074 3010 00074 00010  8623  2 1165.     SHVFGRE2     MVC   WAVFGRSV,GRIHL      Save start of queue
 0011B4 4140 3010            00010  8624  2 1166.                  LA    R4,GRIHL            Point to the start
 DROP   FILECB,R4                   8625  2 1167.                  WITH  (GRHITM,R4),BEGIN   GRHITM addressability
 USING  GRHITM,R4
 0011B8                             8642  3 1168.     SHVFGRE4       LOOP  BEGIN               Forever
 0011B8 5840 4000            00000  8649  4 1169.                      L     R4,GRHFP            Point to next GR hold item
 0011BC                             8650  4 1170.                      IF    (GRIBID,NE,=CL4'GRES'),EXIT Things change
 0011BC D503 6C40 3000 01C60 00000  8661  4          +
 0011C2 4770 630C            0132C  8664  4          +
 0011C6                             8670  4 1171.                      IF    (GRHBID,NE,=CL4'GRH'),EXIT Things change
 0011C6 D503 6C44 4008 01C64 00008  8681  4          +
 0011CC 4770 630C            0132C  8684  4          +
 0011D0                             8690  4 1172.                      IF    (WAVFGRSV,NE,GRIHL),BEGIN
 0011D0 D50F 8074 3010 00074 00010  8702  4          +
 0011D6 4780 61C6            011E6  8703  4          +
 0011DA 4120 0002            00002  8708  5 1173.                        LA    R2,2                Reason code
 0011DE 4D90 631E            0133E  8709  5 1174.                        LCALL SHVFRTRY            Give message
 0011E2 47F0 618E            011AE  8711  5 1175.                        B     SHVFGRE2            Start the queue again
 0011E6                             8712  4 1176.                      END   ,
 0011E6 41F0 3010            00010  8716  4 1177.                      LA    R15,GRIHL
 0011EA 194F/4780 630C       0132C  8717  4 1178.                      IF    (R4,EQ,R15),EXIT    End of the queue
 0011F0 9180 8028      00028        8735  4 1179.                      IF    WAVFRESV,BEGIN      Only reserved and exclusive
 0011F4 47E0 61FA            0121A  8745  4          +
 0011F8 9140 400C      0000C        8750  5 1180.                        IF    (~GRHXEXCL,AND,GRHXHOLD),'EXIT SHVFGRE4'
 0011FC 4710 61EC            0120C  8762  5          +
 001200 9180 400C      0000C        8773  5          +
 001204 47E0 61EC            0120C  8774  5          +
 001208 47F0 630C            0132C  8782  5          +
 00120C                             8787  5 1181.                        IF    (GRIHLCNT,EQ,=F'1'),'EXIT SHVFGRE4' none waiting
 00120C D503 6C48 301C 01C68 0001C  8798  5          +
 001212 4770 61FA            0121A  8799  5          +
 001216 47F0 630C            0132C  8807  5          +
 00121A                             8812  4 1182.                      END   ,                   Only reserved and exclusive
 00121A 9120 8029      00029        8816  4 1183.                      IF    WAVFSHOR,BEGIN      Short display
 00121E 47E0 6216            01236  8826  4          +
 001222 4110 0654            00654  8831  5 1184.                        SEG   'Users'
 001226 4590 6B80            01BA0  8833  5          +
1VSSW     (VSSW07) (09:49) (22MAR04) SHOW  VFILES Command                                                                   Page   71
0Current Usings:  (PZERO,R0) (GRITEM,R3) (GRHITM,R4) (BASE2,R6) (BASE,R7) (WA,R8) (CLW,R10)
0Loc    Object Code    Addr1 Addr2  Stmt Lv Lineno    Source Statement           (Hibal 5, Asmedit 3.3)  HLASM R4.0  2004/03/22 09.49
+___    ______ ____    _____ _____  ____ __ ______    ______ _________
000122A 58F0 301C            0001C  8834  5 1185.                        SEGDC 5,L:GRIHLCNT
 00122E 4100 0005            00005  8846  5          +
 001232 4D90 7202            00252  8848  5          +
 001236                             8849  4 1186.                      END   ,
 001236 621A           01236 01220  8853  4 1187.                      ELSE  BEGIN
 001236 47F0 6240            01260  8858  4          +
 00123A 5810 4014            00014  8864  5 1188.                        L     R1,GRHASB           Address space ptr
 00123E 4D90 6500            01520  8865  5 1189.                        LCALL WRUINFO             Format information
 001242 4780 622A            0124A  8867  5 1190.                        IF    NZ,'NEXT SHVFGRE4'  Skip it
 001246 47F0 6198            011B8  8881  5          +
 00124A                             8886  5 1191.                        IF    (WAVFGRSV,NE,GRIHL),BEGIN
 00124A D50F 8074 3010 00074 00010  8898  5          +
 001250 4780 6240            01260  8899  5          +
 001254 4120 0003            00003  8904  6 1192.                          LA    R2,3                Reason code
 001258 4D90 631E            0133E  8905  6 1193.                          LCALL SHVFRTRY            Give message
 00125C 47F0 618E            011AE  8907  6 1194.                          B     SHVFGRE2            Start the queue again
 001260                             8908  5 1195.                        END   ,
 001260                             8912  4 1196.                      END   ,
 001260 4110 065A            0065A  8916  4 1197.                      SEG   ' Fid '
 001264 4590 6B80            01BA0  8918  4          +
 001268 1FFF/43F0 808F       0008F  8919  4 1198.                      SEGDC 2,LC:WAVFDFID       File system id
 00126E 4100 0002            00002  8936  4          +
 001272 4D90 7202            00252  8938  4          +
 001276 4110 0660            00660  8939  4 1199.                      SEG   ' File ORV.'
 00127A 4590 6B80            01BA0  8941  4          +
 00127E 9801 8084            00084  8942  4 1200.                      LM    R0,R1,WAVFNAME
 001282 4590 70DA            0012A  8943  4 1201.                      SEG   (R1),(R0)           File name
 001286 9180 400C      0000C        8955  4 1202.                      IF    GRHXHOLD,BEGIN      Holding the resource
 00128A 47E0 629E            012BE  8965  4          +
 00128E 9140 400C      0000C        8970  5 1203.                        IF    GRHXEXCL,BEGIN      Exclusive hold
 001292 47E0 6292            012B2  8980  5          +
 001296 9180 8029      00029        8985  6 1204.                          IF    WAVFRES,BEGIN
 00129A 47E0 6286            012A6  8995  6          +
 00129E 4110 066B            0066B  9000  7 1205.                            SEG   ' (reserved)'
 0012A2 4590 6B80            01BA0  9002  7          +
 0012A6                             9003  6 1206.                          END   ,
 0012A6 628A           012A6 0129C  9007  6 1207.                          ELSE  BEGIN
 0012A6 47F0 6292            012B2  9012  6          +
 0012AA 4110 0677            00677  9018  7 1208.                            SEG   ' (attached exclusive)'
 0012AE 4590 6B80            01BA0  9020  7          +
 0012B2                             9021  6 1209.                          END   ,
 0012B2                             9025  5 1210.                        END   ,                   Exclusive hold
 0012B2 6296           012B2 01294  9029  5 1211.                        ELSE  BEGIN
 0012B2 47F0 629E            012BE  9034  5          +
 0012B6 4110 068D            0068D  9040  6 1212.                          SEG   ' (attached share)'
 0012BA 4590 6B80            01BA0  9042  6          +
 0012BE                             9043  5 1213.                        END   ,
 0012BE                             9047  4 1214.                      END   ,                   Holding the resource
 0012BE 62A2           012BE 0128C  9051  4 1215.                      ELSE  BEGIN               Waiting for the resource
 0012BE 47F0 62E2            01302  9056  4          +
 0012C2 4110 069F            0069F  9062  5 1216.                        SEG   ' (*** waiting '
 0012C6 4590 6B80            01BA0  9064  5          +
 0012CA 9180 8029      00029        9065  5 1217.                        IF    WAVFRES,BEGIN       Waiting for reserve
 0012CE 47E0 62BA            012DA  9075  5          +
1VSSW     (VSSW07) (09:49) (22MAR04) SHOW  VFILES Command                                                                   Page   72
0Current Usings:  (PZERO,R0) (GRITEM,R3) (GRHITM,R4) (BASE2,R6) (BASE,R7) (WA,R8) (CLW,R10)
0Loc    Object Code    Addr1 Addr2  Stmt Lv Lineno    Source Statement           (Hibal 5, Asmedit 3.3)  HLASM R4.0  2004/03/22 09.49
+___    ______ ____    _____ _____  ____ __ ______    ______ _________
00012D2 4110 06AE            006AE  9080  6 1218.                          SEG   'reserve)'
 0012D6 4590 6B80            01BA0  9082  6          +
 0012DA                             9083  5 1219.                        END   ,                   Waiting for reserve
 0012DA 62BE           012DA 012D0  9087  5 1220.                        ELSE  BEGIN               Waiting for attach
 0012DA 47F0 62E2            01302  9092  5          +
 0012DE 9140 400C      0000C        9098  6 1221.                          IF    GRHXEXCL,BEGIN
 0012E2 47E0 62CE            012EE  9108  6          +
 0012E6 4110 06B7            006B7  9113  7 1222.                            SEG   'exclusive '
 0012EA 4590 6B80            01BA0  9115  7          +
 0012EE                             9116  6 1223.                          END   ,
 0012EE 62D2           012EE 012E4  9120  6 1224.                          ELSE  BEGIN
 0012EE 47F0 62DA            012FA  9125  6          +
 0012F2 4110 06C2            006C2  9131  7 1225.                            SEG   'share '
 0012F6 4590 6B80            01BA0  9133  7          +
 0012FA                             9134  6 1226.                          END   ,
 0012FA 4110 06C9            006C9  9138  6 1227.                          SEG   'attach)'
 0012FE 4590 6B80            01BA0  9140  6          +
 001302                             9141  5 1228.                        END   ,                   Waiting for attach
 001302                             9145  4 1229.                      END   ,                   Waiting for the resource
 001302 9140 8029      00029        9149  4 1230.                      IF    WAVFADDR,BEGIN      Show ATFB address
 001306 47E0 62FC            0131C  9159  4          +
 00130A 4110 0552            00552  9164  5 1231.                        SEG   ' '
 00130E 4590 6B80            01BA0  9166  5          +
 001312 18F5/4100 0008       00008  9167  5 1232.                        SEGHX 8,(R5)
 001318 4D90 7224            00274  9181  5          +
 00131C                             9182  4 1233.                      END   ,
 00131C 4D90 71B6            00206  9186  4 1234.                      LCALL WRITE
 001320 9120 8029      00029        9188  4 1235.                      IF    WAVFSHOR,EXIT       Short display
 001324 4710 630C            0132C  9200  4          +
 001328 47F0 6198            011B8  9206  3 1236.                    END   ,                   Forever
 DROP   GRHITM,R4                   9211  2 1237.                  END   ,                   GRITEM addressability
 USING  FILECB,R4
 00132C                             9226  2 1238.     SHVFGREX     LABEL ,
 00132C 4BD0 6C82            01CA2  9228  2 1239.                  VPOP  R0,R5,*
 001330 9805 D000            00000  9230  2          +
 001334 4BD0 6C60            01C80  9231  2 1240.                  VPOP  RAR,,*
 001338 5890 D000            00000  9233  2          +
 00133C 07F9                        9234  2 1241.                  BR    RAR
000133E 909E D000            00000  9236  2 1243.     SHVFRTRY     VPUSH RAR,14,*
 001342 41D0 D018            00018  9238  2          +
 001346 4110 06D1            006D1  9239  2 1244.                  SEG   '(Queue changed; backing up a bit, reason code '
 00134A 4590 6B80            01BA0  9241  2          +
 00134E 18F2/1B00                   9242  2 1245.                  SEGDC 0,(R2)
 001352 4D90 7202            00252  9253  2          +
 001356 4110 0700            00700  9254  2 1246.                  SEG   ').'
 00135A 4590 6B80            01BA0  9256  2          +
 00135E 4D90 71B6            00206  9257  2 1247.                  LCALL WRITE
 001362 4BD0 6C62            01C82  9259  2 1248.                  VPOP  RAR,14,*
 001366 989E D000            00000  9261  2          +
 00136A 07F9                        9262  2 1249.                  BR    RAR
0                                   9264  2 1251.
 00136C                             9265  2 1252.     SHVFPRT      SCKW  NODISP,SHVKNODI,A
1VSSW     (VSSW07) (09:49) (22MAR04) SHOW  VFILES Command                                                                   Page   73
0Current Usings:  (PZERO,R0) (GRITEM,R3) (FILECB,R4) (BASE2,R6) (BASE,R7) (WA,R8) (CLW,R10)
0Loc    Object Code    Addr1 Addr2  Stmt Lv Lineno    Source Statement           (Hibal 5, Asmedit 3.3)  HLASM R4.0  2004/03/22 09.49
+___    ______ ____    _____ _____  ____ __ ______    ______ _________
000136C 0D00147ED5D6C4C9            9266  2          +
 001376                             9267  2 1253.                  SCKW  RESERVED,SHVKRESV
 001376 07001478D9C5E2C5            9268  2          +
 001382                             9269  2 1254.                  SCKW  COUNTS,SHVKCNTS,A
 001382 0D00146CC3D6E4D5            9270  2          +
 00138C                             9271  2 1255.                  SCKW  LIKE,SHVKLIKE,(A,P)
 00138C 8B00148AD3C9D2C5            9272  2          +
 001394                             9273  2 1256.                  SCKW  ADDR,SHVKADDR,(A,P)
 001394 8B001484C1C4C4D9            9274  2          +
 00139C                             9275  2 1257.                  SCKW  USER,SHVKUSER,(A,P)
 00139C 8B0014ECE4E2C5D9            9276  2          +
 0013A4                             9277  2 1258.                  SCKW  FID,SHVKFID,(I,P)
 0013A4 C2001514C6C9C4              9278  2          +
 0013AB                             9279  2 1259.                  SCKW  SHORT,SHVKSHOR,A
 0013AB 0C001472E2C8D6D9            9280  2          +
 0013B4 080013C26F                  9281  2 1260.                  SCKW  ?,SHVFHELP,A
 0013B9 4000150C40                  9283  2 1261.                  SCKW  ,SHVKLNO,I
 0013BE FF0000FA                    9285  2 1262.                  SCKW  ,UNREC
0                                   9288  2 1264.
 0013C2                             9289  2 1265.     SHVFHELP     LABEL ,
 0013C2 4D90 71B6            00206  9291  2 1266.                  LCALL WRITE
 0013C6 4110 0703            00703  9293  2 1267.                  SEG   'SHOW VFILES <parameters> '
 0013CA 4590 6B80            01BA0  9295  2          +
 0013CE 4D90 71B6            00206  9296  2 1268.                  LCALL WRITE
 0013D2 4110 071D            0071D  9298  2 1269.                  SEG   ' where parameters can be any combination'
 0013D6 4590 6B80            01BA0  9300  2          +
 0013DA 4110 0746            00746  9301  2 1270.                  SEG   ' of the following:'
 0013DE 4590 6B80            01BA0  9303  2          +
 0013E2 5890 6C4C/0D99       01C6C  9304  2 1271.                  ACALL WRITE
 0013E8 4110 0759            00759  9308  2 1272.                  SEG   'o NODISP   - Counts only (no display)'
 0013EC 4590 6B80            01BA0  9310  2          +
 0013F0 4D90 71B6            00206  9311  2 1273.                  LCALL WRITE
 0013F4 4110 077F            0077F  9313  2 1274.                  SEG   'o RESERVED - Only files that are reserved and have '
 0013F8 4590 6B80            01BA0  9315  2          +
 0013FC 4110 07B3            007B3  9316  2 1275.                  SEG   'users waiting for reserve'
 001400 4590 6B80            01BA0  9318  2          +
 001404 4D90 71B6            00206  9319  2 1276.                  LCALL WRITE
 001408 4110 07CD            007CD  9321  2 1277.                  SEG   'o COUNTS   - Include counts'
 00140C 4590 6B80            01BA0  9323  2          +
 001410 5890 6C4C/0D99       01C6C  9324  2 1278.                  ACALL WRITE
 001416 4110 07E9            007E9  9328  2 1279.                  SEG   'o LIKE fn  - Only file names that match fn'
 00141A 4590 6B80            01BA0  9330  2          +
 00141E 4D90 71B6            00206  9331  2 1280.                  LCALL WRITE
 001422 4110 0814            00814  9333  2 1281.                  SEG   'o ADDR     - Display ATFB address'
 001426 4590 6B80            01BA0  9335  2          +
 00142A 4D90 71B6            00206  9336  2 1282.                  LCALL WRITE
 00142E 4110 0836            00836  9338  2 1283.                  SEG   'o USER uuu - Only attached by user uuu'
 001432 4590 6B80            01BA0  9340  2          +
 001436 4D90 71B6            00206  9341  2 1284.                  LCALL WRITE
 00143A 4110 085D            0085D  9343  2 1285.                  SEG   'o lineno   - Only attached by user on this line'
 00143E 4590 6B80            01BA0  9345  2          +
 001442 4D90 71B6            00206  9346  2 1286.                  LCALL WRITE
 001446 4110 088D            0088D  9348  2 1287.                  SEG   'o FID nn   - Only for file system with id nn'
1VSSW     (VSSW07) (09:49) (22MAR04) SHOW  VFILES Command                                                                   Page   74
0Current Usings:  (PZERO,R0) (GRITEM,R3) (FILECB,R4) (BASE2,R6) (BASE,R7) (WA,R8) (CLW,R10)
0Loc    Object Code    Addr1 Addr2  Stmt Lv Lineno    Source Statement           (Hibal 5, Asmedit 3.3)  HLASM R4.0  2004/03/22 09.49
+___    ______ ____    _____ _____  ____ __ ______    ______ _________
000144A 4590 6B80            01BA0  9350  2          +
 00144E 5890 6C4C/0D99       01C6C  9351  2 1288.                  ACALL WRITE
 001454 4110 08BA            008BA  9355  2 1289.                  SEG   'o SHORT    - Show each file once with a count of '
 001458 4590 6B80            01BA0  9357  2          +
 00145C 4110 08EC            008EC  9358  2 1290.                  SEG   'users attached'
 001460 4590 6B80            01BA0  9360  2          +
 001464 5890 6C4C/0D99       01C6C  9361  2 1291.                  ACALL WRITE
 00146A 07F7                        9365  2 1292.                  BR    BR                  Done
                                    9366  2 1293.
 00146C 9620 8028      00028        9367  2 1294.     SHVKCNTS     SET   WAVFCNTS
 001470 07FE                        9374  2 1295.                  SCRTN (15)
                                    9381  2 1296.
 001472 9620 8029      00029        9382  2 1297.     SHVKSHOR     SET   WAVFSHOR
 001476 07FE                        9389  2 1298.                  SCRTN (15)
                                    9396  2 1299.
 001478 9680 8028      00028        9397  2 1300.     SHVKRESV     SET   WAVFRESV
 00147C 07FE                        9404  2 1301.                  SCRTN (15)
                                    9411  2 1302.
 00147E 9640 8028      00028        9412  2 1303.     SHVKNODI     SET   WAVFNODI
 001482 07FE                        9419  2 1304.                  SCRTN (15)
                                    9426  2 1305.
 001484 9640 8029      00029        9427  2 1306.     SHVKADDR     SET   WAVFADDR            Display ATFB address
 001488 07FE                        9434  2 1307.                  SCRTN (15)
                                    9441  2 1308.
 00148A 5090 D000            00000  9442  2 1309.     SHVKLIKE     VPUSH RAR,,*
 00148E 41D0 D004            00004  9444  2          +
 001492 9024 D000            00000  9445  2 1310.                  VPUSH R2,R4,*
 001496 41D0 D00C            0000C  9447  2          +
 00149A                             9448  2 1311.                  IF    (@R1,NE,'ORV.'),BEGIN
 00149A D503 6C50 1000 01C70 00000  9458  2          +
 0014A0 4780 6494            014B4  9459  2          +
 0014A4 4590 70DA            0012A  9464  3 1312.                    SEG   (R1),(R0)
 0014A8 4110 6C84            01CA4  9476  3 1313.                    SETMSG ': expecting full filename (e.g., ORV.GG.UUU.FILE).'
 0014AC 4100 0032            00032  9479  3          +
 0014B0 47F0 70CE            0011E  9480  3 1314.                    B     MSGEXIT
 0014B4                             9481  2 1315.                  END
 0014B4 4110 1004            00004  9485  2 1316.                  LA    R1,@R1+4            Skip past ORV.
 0014B8 4B00 6CB6            01CD6  9486  2 1317.                  SH    R0,=H'4'            Keep length accurate
                                    9487  2 1318.
 0014BC 1820                        9488  2 1319.                  LR    R2,R0
 0014BE 5920 6C54            01C74  9489  2 1320.                  CEIL  R2,L'WAVFLIKE
 0014C2 47D0 64AA            014CA  9498  2          +
 0014C6 5820 6C54            01C74  9503  2          +
 0014CA 4020 802A            0002A  9508  2 1321.                  STH   R2,WAVFLLEN         Save length
 0014CE 0620/1222                   9509  2 1322.                  MOVE  R2,WAVFLIKE,@R1     Save match text
 0014D2 4740 64BA            014DA  9522  2          +
 0014D6 4420 6D70            01D90  9528  3          +
 001D90 D200 802C 1000 0002C 00000  9535  3          +
 0014DA 4BD0 6CB8            01CD8  9547  2 1323.                  VPOP  R2,R4,*
 0014DE 9824 D000            00000  9549  2          +
 0014E2 4BD0 6C60            01C80  9550  2 1324.                  VPOP  RAR,,*
 0014E6 5890 D000            00000  9552  2          +
 0014EA 07FE                        9553  2 1325.                  SCRTN (15)
                                    9560  2 1326.
1VSSW     (VSSW07) (09:49) (22MAR04) SHOW  VFILES Command                                                                   Page   75
0Current Usings:  (PZERO,R0) (GRITEM,R3) (FILECB,R4) (BASE2,R6) (BASE,R7) (WA,R8) (CLW,R10)
0Loc    Object Code    Addr1 Addr2  Stmt Lv Lineno    Source Statement           (Hibal 5, Asmedit 3.3)  HLASM R4.0  2004/03/22 09.49
+___    ______ ____    _____ _____  ____ __ ______    ______ _________
00014EC                             9561  2 1327.     SHVKUSER     LABEL ,
 0014EC 5900 6C58            01C78  9563  2 1328.                  IF    (R0,NE,=F'3'),BEGIN
 0014F0 4780 64E4            01504  9574  2          +
 0014F4 4590 70DA            0012A  9579  3 1329.                    SEG   (R1),(R0)
 0014F8 4110 6CBA            01CDA  9591  3 1330.                    SETMSG ': expecting a user ID (e.g., PJG).'
 0014FC 4100 0022            00022  9594  3          +
 001500 47F0 70CE            0011E  9595  3 1331.                    B     MSGEXIT
 001504                             9596  2 1332.                  END
 001504 D202 808C 1000 0008C 00000  9600  2 1333.                  MVC   WAVFUSER,@R1
 00150A 07FE                        9601  2 1334.                  SCRTN (15)
                                    9608  2 1335.
 00150C D203 8054 A2C4 00054 002C4  9609  2 1336.     SHVKLNO      MVC   WAVFLNO,CLWKWVAL    Save MILTEN line-number
 001512 07FE                        9610  2 1337.                  SCRTN (15)
                                    9617  2 1338.
 001514 9610 8028      00028        9618  2 1339.     SHVKFID      SET   WAVFFID             Display only this file system
 001518 D203 8058 A2C4 00058 002C4  9625  2 1340.                  MVC   WAVFIFID,CLWKWVAL
 00151E 07FE                        9626  2 1341.                  SCRTN (15)
1VSSW     (VSSW07) (09:49) (22MAR04) SHOW  VFILES Command                                                                   Page   76
0Current Usings:  (PZERO,R0) (GRITEM,R3) (FILECB,R4) (BASE2,R6) (BASE,R7) (WA,R8) (CLW,R10)
0Loc    Object Code    Addr1 Addr2  Stmt Lv Lineno    Source Statement           (Hibal 5, Asmedit 3.3)  HLASM R4.0  2004/03/22 09.49
+___    ______ ____    _____ _____  ____ __ ______    ______ _________
0                                   9634  2 1343.
                                    9635  2 1344.
                                    9636  2 1345.       WRUINFO -- Local routine to seg user information, given a
                                    9637  2 1346.         pointer to the ASB.
                                    9638  2 1347.
                                    9639  2 1348.         On entry:
                                    9640  2 1349.           R1 - ASB ptr
                                    9641  2 1350.
                                          2
0001520 5090 D000            00000  9642  2 1351.     WRUINFO      VPUSH RAR,,*
 001524 41D0 D004            00004  9644  2          +
 001528 9025 D000            00000  9645  2 1352.                  VPUSH R2,R5,*
 00152C 41D0 D010            00010  9647  2          +
 001530 1251                        9648  2 1353.                  LTR   R5,R1               Copy ASB ptr
 001532 4780 659E            015BE  9649  2 1354.                  BZ    WRUERR              No accounting info, scram
 DROP   FILECB,R4                   9650  2 1355.                  WITH  ((AIB,R4),(ASB,R5)),BEGIN
 USING  AIB,R4
 USING  ASB,R5
 001536                             9677  3 1356.                    IF    (ASBID,NE,'ASB'),WRUERR  Trouble, scram
 001536 D502 6D17 5000 01D37 00000  9688  3          +
 00153C 4770 659E            015BE  9691  3          +
 001540 5840 5034/1244       00034  9697  3 1357.                    LT    R4,ASBAIB           Accounting information
 001546 4780 659E            015BE  9701  3 1358.                    BZ    WRUERR              No accounting info, scram
 00154A                             9702  3 1359.                    IF    (AIB,NE,'AIB'),WRUERR  Trouble, scram
 00154A D502 6D1A 4000 01D3A 00000  9713  3          +
 001550 4770 659E            015BE  9716  3          +
0001554                             9723  3 1361.                    IF    (WAVFLNO,NZ),BEGIN  Only match this line-number...
 001554 D603 8054 8054 00054 00054  9733  3          +
 00155A 4780 6548            01568  9734  3          +
 00155E D503 8054 4034 00054 00034  9739  4 1362.                      CLC   WAVFLNO,AIBTID
 001564 4770 659E            015BE  9740  4 1363.                      IF    NE,WRUERR           Skip it
 001568                             9754  3 1364.                    END   ,                   Only match this line-number...
 001568                             9758  3 1365.                    IF    (WAVFUSER,NZ),BEGIN Only match this user...
 001568 D602 808C 808C 0008C 0008C  9768  3          +
 00156E 4780 655C            0157C  9769  3          +
 001572 D502 808C 4008 0008C 00008  9774  4 1366.                      CLC   WAVFUSER,AIBUSER
 001578 4770 659E            015BE  9775  4 1367.                      IF    NE,WRUERR           Skip it
 00157C                             9789  3 1368.                    END   ,                   Only match this user...
000157C 4110 08FB            008FB  9794  3 1370.                    SEG   'Ln'
 001580 4590 6B80            01BA0  9796  3          +
 001584 58F0 4034            00034  9797  3 1371.                    SEGDC 5,L:AIBTID          Milten line number
 001588 4100 0005            00005  9809  3          +
 00158C 4D90 7202            00252  9811  3          +
 001590 4110 0552            00552  9812  3 1372.                    SEG   ' '
 001594 4590 6B80            01BA0  9814  3          +
 001598 4110 400B            0000B  9815  3 1373.                    SEG   AIBUSER+3,2         gg
 00159C 4100 0002            00002  9831  3          +
 0015A0 4590 70DA            0012A  9832  3          +
 0015A4 4110 08FE            008FE  9833  3 1374.                    SEG   '.'                   .
 0015A8 4590 6B80            01BA0  9835  3          +
 0015AC 4110 4008            00008  9836  3 1375.                    SEG   AIBUSER,3              uuu
1VSSW     (VSSW07) (09:49) (22MAR04) SHOW  VFILES Command                                                                   Page   77
0Current Usings:  (PZERO,R0) (GRITEM,R3) (AIB,R4) (ASB,R5) (BASE2,R6) (BASE,R7) (WA,R8) (CLW,R10)
0Loc    Object Code    Addr1 Addr2  Stmt Lv Lineno    Source Statement           (Hibal 5, Asmedit 3.3)  HLASM R4.0  2004/03/22 09.49
+___    ______ ____    _____ _____  ____ __ ______    ______ _________
00015B0 4100 0003            00003  9852  3          +
 0015B4 4590 70DA            0012A  9853  3          +
 DROP   ASB,R5                      9854  2 1376.                  END
 DROP   AIB,R4
 USING  FILECB,R4
 0015B8 1BFF                        9874  2 1377.                  CLEAR R15
 0015BA 47F0 65C4            015E4  9878  2 1378.                  B     WRUEXIT
                                    9879  2 1379.
 0015BE                             9880  2 1380.     WRUERR       LABEL ,
 0015BE                             9882  2 1381.                  IF    ((WAVFLNO,Z),AND,(WAVFUSER,Z)),BEGIN
 0015BE D603 8054 8054 00054 00054  9894  2          +
 0015C4 4770 65BC            015DC  9895  2          +
 0015C8 D602 808C 808C 0008C 0008C  9907  2          +
 0015CE 4770 65BC            015DC  9908  2          +
 0015D2 4110 0900            00900  9913  3 1382.                    SEG   'Ln ???? ??.???'    Something is screwed up
 0015D6 4590 6B80            01BA0  9915  3          +
 0015DA 1BFF                        9916  3 1383.                    CLEAR R15
 0015DC                             9920  2 1384.                  END   ,
 0015DC 65C0           015DC 015C6  9924  2 1385.                  ELSE  'LA R15,1'
 0015D0 65C0           015D2 015DC  9929  2          +
 0015DC 47F0 65C4            015E4  9931  2          +
 0015E0 41F0 0001            00001  9938  2          +
                                    9943  2 1386.
 0015E4 4BD0 6CDC            01CFC  9944  2 1387.     WRUEXIT      VPOP  R2,R5,*
 0015E8 9825 D000            00000  9946  2          +
 0015EC 4BD0 6C60            01C80  9947  2 1388.                  VPOP  RAR,,*
 0015F0 5890 D000            00000  9949  2          +
 0015F4 12FF                        9950  2 1389.                  LTR   R15,R15
 0015F6 07F9                        9951  2 1390.                  BR    RAR
1VSSW     (VSSW07) (09:49) (22MAR04) SHOW VCACHE Command                                                                    Page   78
0Current Usings:  (PZERO,R0) (GRITEM,R3) (FILECB,R4) (BASE2,R6) (BASE,R7) (WA,R8) (CLW,R10)
0Loc    Object Code    Addr1 Addr2  Stmt Lv Lineno    Source Statement           (Hibal 5, Asmedit 3.3)  HLASM R4.0  2004/03/22 09.49
+___    ______ ____    _____ _____  ____ __ ______    ______ _________
0                                   9953  2 1392.
                                    9954  2 1393.
                                    9955  2 1394.             SHOW VCACHE
                                    9956  2 1395.
                                          2
00015F8                             9957  2 1396.     SHVCACHE     LABEL
 0015F8 4110 090F            0090F  9959  2 1397.                  SEG   'Caching stuff disabled for now'
 0015FC 4590 6B80            01BA0  9961  2          +
 001600 4D90 71B6            00206  9962  2 1398.                  LCALL WRITE
 001604 07F7                        9964  2 1399.                  BR    BR                  Return
 001606 4D90 724C            0029C  9965  2 1400.                  LCALL AMODE31             ********
                                    9967  2 1401.
 00160A 5850 0200            00200  9968  2 1402.                  L     R5,MATPTR           MAT ptr from low memory
 00160E 5850 5028            00028  9969  2 1403.                  WITH  (MAT,R5),'L R5,MATFILCB'
 USING  MAT,R5
 DROP   MAT,R5
 001612 5850 5018            00018  9993  2 1404.                  WITH  (FILECB,R5),'L  R5,FILE2KCH'     Cache block pointer
 USING  FILECB,R5
 DROP   FILECB,R5
 001616 4110 092E            0092E 10017  2 1405.                  SEG   '2K '
 00161A 4590 6B80            01BA0 10019  2          +
 00161E 4540 6624            01644 10020  2 1406.                  BAL   R4,DOSVCA
                                   10021  2 1407.
 001622 5850 0200            00200 10022  2 1408.                  L     R5,MATPTR           MAT ptr from low memory
 001626 5850 5028            00028 10023  2 1409.                  WITH  (MAT,R5),'L R5,MATFILCB'
 USING  MAT,R5
 DROP   MAT,R5
 00162A 5850 5020            00020 10047  2 1410.                  WITH  (FILECB,R5),'L  R5,FILE4KCH'     Cache block pointer
 USING  FILECB,R5
 DROP   FILECB,R5
 00162E 4D90 71B6            00206 10071  2 1411.                  LCALL WRITE
 001632 4110 0932            00932 10073  2 1412.                  SEG   '4K '
 001636 4590 6B80            01BA0 10075  2          +
 00163A 4540 6624            01644 10076  2 1413.                  BAL   R4,DOSVCA
                                   10077  2 1414.
 00163E 4D90 7258            002A8 10078  2 1415.                  LCALL AMODE24             ********
                                   10080  2 1416.
 001642 07F7                       10081  2 1417.                  BR    BR                  Return
                                   10082  2 1418.     *
                                   10083  2 1419.     *   Format Cache information
                                   10084  2 1420.     *
 001644                            10085  2 1421.     DOSVCA       LABEL ,
 001644 4110 0936            00936 10087  2 1422.                  SEG   'File caching information:'
 001648 4590 6B80            01BA0 10089  2          +
 00164C 4D90 71B6            00206 10090  2 1423.                  LCALL WRITE
 001650 4D90 71B6            00206 10092  2 1424.                  LCALL WRITE
                                   10094  2 1425.
 001654 1255/4770 6646       01666 10095  2 1426.                  IF    (R5,Z),BEGIN        No CIT...
 00165A 4110 6CDE            01CFE 10109  3 1427.                    SETMSG ' File caching not defined.'
 00165E 4100 001A            0001A 10112  3          +
 001662 47F0 70CE            0011E 10113  3 1428.                    B     MSGEXIT             Done
 001666                            10114  2 1429.                  END   ,
                                   10118  2 1430.
1VSSW     (VSSW07) (09:49) (22MAR04) SHOW VCACHE Command                                                                    Page   79
0Current Usings:  (PZERO,R0) (GRITEM,R3) (FILECB,R4) (CIT,R5) (BASE2,R6) (BASE,R7) (WA,R8) (CLW,R10)
0Loc    Object Code    Addr1 Addr2  Stmt Lv Lineno    Source Statement           (Hibal 5, Asmedit 3.3)  HLASM R4.0  2004/03/22 09.49
+___    ______ ____    _____ _____  ____ __ ______    ______ _________
0USING  CIT,R5                     10119  2 1431.                  USING CIT,R5
 001666 4110 0950            00950 10128  2 1432.                  SEG   'CIT at 0x'
 00166A 4590 6B80            01BA0 10130  2          +
 00166E 18F5/1B00                  10131  2 1433.                  SEGHX 0,(R5)
 001672 4D90 7224            00274 10142  2          +
 001676 4D90 71B6            00206 10143  2 1434.                  LCALL WRITE
 00167A 4D90 71B6            00206 10145  2 1435.                  LCALL WRITE
                                   10147  2 1436.
 00167E 9180 5004      00004       10148  2 1437.                  TM    CITFDISABLED,L'CITFDISABLED
 001682 4780 666E            0168E 10149  2 1438.                  IF    NZ,'SEG "Disabled"'
 001686 4110 095A            0095A 10162  3          +
 00168A 4590 6B80            01BA0 10163  2          +
 00168E 6672           0168E 01684 10168  2 1439.                  ELSE  'SEG "Enabled"'
 00168E 47F0 667A            0169A 10173  2          +
 001692 4110 0963            00963 10181  3          +
 001696 4590 6B80            01BA0 10182  2          +
 00169A 4D90 71B6            00206 10187  2 1440.                  LCALL WRITE
                                   10189  2 1441.
 00169E 9140 5004      00004       10190  2 1442.                  TM    CITFVERIFY,L'CITFVERIFY
 0016A2 4780 668E            016AE 10191  2 1443.                  IF    NZ,'SEG "Data checksum mode"'
 0016A6 4110 096B            0096B 10204  3          +
 0016AA 4590 6B80            01BA0 10205  2          +
 0016AE 6692           016AE 016A4 10210  2 1444.                  ELSE  'SEG "Standard (no checksum) mode"'
 0016AE 47F0 669A            016BA 10215  2          +
 0016B2 4110 097E            0097E 10223  3          +
 0016B6 4590 6B80            01BA0 10224  2          +
 0016BA 4D90 71B6            00206 10229  2 1445.                  LCALL WRITE
                                   10231  2 1446.
 0016BE 4110 099A            0099A 10232  2 1447.                  SEG   'Lock word '
 0016C2 4590 6B80            01BA0 10234  2          +
 0016C6 58F0 5008            00008 10235  2 1448.                  SEGHX 8,L:CITLOCK
 0016CA 4100 0008            00008 10247  2          +
 0016CE 4D90 7224            00274 10249  2          +
 0016D2 4D90 71B6            00206 10250  2 1449.                  LCALL WRITE
                                   10252  2 1450.
 0016D6 58F0 500C/1B00       0000C 10253  2 1451.                  SEGDC 0,L:CIT#RD
 0016DC 4D90 7202            00252 10264  2          +
 0016E0 4110 042F            0042F 10265  2 1452.                  SEG   ' reads ('
 0016E4 4590 6B80            01BA0 10267  2          +
 0016E8 58F0 5010/1B00       00010 10268  2 1453.                  SEGDC 0,L:CIT#RDF
 0016EE 4D90 7202            00252 10279  2          +
 0016F2 4110 09A5            009A5 10280  2 1454.                  SEG   ' found), '
 0016F6 4590 6B80            01BA0 10282  2          +
 0016FA 58F0 5014/1B00       00014 10283  2 1455.                  SEGDC 0,L:CIT#WR
 001700 4D90 7202            00252 10294  2          +
 001704 4110 01D7            001D7 10295  2 1456.                  SEG   ' writes'
 001708 4590 6B80            01BA0 10297  2          +
 00170C 4D90 71B6            00206 10298  2 1457.                  LCALL WRITE
                                   10300  2 1458.
 001710 4110 09AF            009AF 10301  2 1459.                  SEG   'Block size = '
 001714 4590 6B80            01BA0 10303  2          +
 001718 58F0 5018/1B00       00018 10304  2 1460.                  SEGDC 0,L:CITDLEN
 00171E 4D90 7202            00252 10315  2          +
 001722 4D90 71B6            00206 10316  2 1461.                  LCALL WRITE
1VSSW     (VSSW07) (09:49) (22MAR04) SHOW VCACHE Command                                                                    Page   80
0Current Usings:  (PZERO,R0) (GRITEM,R3) (FILECB,R4) (CIT,R5) (BASE2,R6) (BASE,R7) (WA,R8) (CLW,R10)
0Loc    Object Code    Addr1 Addr2  Stmt Lv Lineno    Source Statement           (Hibal 5, Asmedit 3.3)  HLASM R4.0  2004/03/22 09.49
+___    ______ ____    _____ _____  ____ __ ______    ______ _________
0                                  10318  2 1462.
 001726 58F0 501C/1B00       0001C 10319  2 1463.                  SEGDC 0,L:CITDCUR
 00172C 4D90 7202            00252 10330  2          +
 001730 4110 09BD            009BD 10331  2 1464.                  SEG   '/'
 001734 4590 6B80            01BA0 10333  2          +
 001738 58F0 5020/1B00       00020 10334  2 1465.                  SEGDC 0,L:CITDMAX
 00173E 4D90 7202            00252 10345  2          +
 001742 4110 09BF            009BF 10346  2 1466.                  SEG   ' buffers'
 001746 4590 6B80            01BA0 10348  2          +
 00174A 4D90 71B6            00206 10349  2 1467.                  LCALL WRITE
                                   10351  2 1468.
 00174E 58F0 50CC/1B00       000CC 10352  2 1469.                  SEGDC 0,L:CITNHASH
 001754 4D90 7202            00252 10363  2          +
 001758 4110 09C8            009C8 10364  2 1470.                  SEG   ' hashed queue heads'
 00175C 4590 6B80            01BA0 10366  2          +
 001760 4D90 71B6            00206 10367  2 1471.                  LCALL WRITE
 001764 4D90 71B6            00206 10369  2 1472.                  LCALL WRITE
                                   10371  2 1473.
 001768 4110 09DC            009DC 10372  2 1474.                  SEG   'Master LRU  CAB @ 0x'
 00176C 4590 6B80            01BA0 10374  2          +
 001770 41F0 507C/1B00       0007C 10375  2 1475.                  SEGHX 0,LA:CITLRUQ
 001776 4D90 7224            00274 10386  2          +
 00177A 4D90 71B6            00206 10387  2 1476.                  LCALL WRITE
                                   10389  2 1477.
 00177E 4120 507C            0007C 10390  2 1478.                  LA    R2,CITLRUQ
 001782 1832                       10391  2 1479.                  LR    R3,R2
 001784                            10392  2 1480.                  LOOP  BEGIN
 DROP   GRITEM,R3                  10398  3 1481.                    WITH  (CAB,R3)
 USING  CAB,R3
 001784 5830 3008            00008 10414  3 1482.                    L     R3,CABQF
 001788 1932/4780 6892       018B2 10415  3 1483.                    IF    (R3,EQ,R2),EXIT
 00178E 4110 09F1            009F1 10433  3 1484.                    SEG   '  ='
 001792 4590 6B80            01BA0 10435  3          +
 001796 18F3/4100 0008       00008 10436  3 1485.                    SEGHX 8,(R3)
 00179C 4D90 7224            00274 10450  3          +
                                   10451  3 1486.
 0017A0 4110 6D1D            01D3D 10452  3 1487.                    SETMSG '  ???'
 0017A4 4100 0005            00005 10455  3          +
 0017A8 95FF 301B      0001B       10456  3 1488.                    IF    (CABHDR+3,EQ,X'FF'),'SETMSG " MSTR"'
 0017AC 4770 6798            017B8 10468  3          +
 0017B0 4110 6D22            01D42 10476  4          +
 0017B4 4100 0005            00005 10477  3          +
 0017B8 9580 301B      0001B       10482  3 1489.                    IF    (CABHDR+3,EQ,X'80'),'SETMSG "  CAT"'
 0017BC 4770 67A8            017C8 10494  3          +
 0017C0 4110 6D27            01D47 10502  4          +
 0017C4 4100 0005            00005 10503  3          +
 0017C8 9540 301B      0001B       10508  3 1490.                    IF    (CABHDR+3,EQ,X'40'),'SETMSG " BITM"'
 0017CC 4770 67B8            017D8 10520  3          +
 0017D0 4110 6D2C            01D4C 10528  4          +
 0017D4 4100 0005            00005 10529  3          +
 0017D8 9508 301B      0001B       10534  3 1491.                    IF    (CABHDR+3,EQ,X'08'),'SETMSG "  IXR"'
 0017DC 4770 67C8            017E8 10546  3          +
 0017E0 4110 6D31            01D51 10554  4          +
 0017E4 4100 0005            00005 10555  3          +
1VSSW     (VSSW07) (09:49) (22MAR04) SHOW VCACHE Command                                                                    Page   81
0Current Usings:  (PZERO,R0) (CAB,R3) (FILECB,R4) (CIT,R5) (BASE2,R6) (BASE,R7) (WA,R8) (CLW,R10)
0Loc    Object Code    Addr1 Addr2  Stmt Lv Lineno    Source Statement           (Hibal 5, Asmedit 3.3)  HLASM R4.0  2004/03/22 09.49
+___    ______ ____    _____ _____  ____ __ ______    ______ _________
00017E8 9504 301B      0001B       10560  3 1492.                    IF    (CABHDR+3,EQ,X'04'),'SETMSG " SIXR"'
 0017EC 4770 67D8            017F8 10572  3          +
 0017F0 4110 6D36            01D56 10580  4          +
 0017F4 4100 0005            00005 10581  3          +
 0017F8 9502 301B      0001B       10586  3 1493.                    IF    (CABHDR+3,EQ,X'02'),'SETMSG " MIXR"'
 0017FC 4770 67E8            01808 10598  3          +
 001800 4110 6D3B            01D5B 10606  4          +
 001804 4100 0005            00005 10607  3          +
 001808 9501 301B      0001B       10612  3 1494.                    IF    (CABHDR+3,EQ,X'01'),'SETMSG " USER"'
 00180C 4770 67F8            01818 10624  3          +
 001810 4110 6D40            01D60 10632  4          +
 001814 4100 0005            00005 10633  3          +
 001818 4590 70DA            0012A 10638  3 1495.                    SEG   (R1),(R0)
                                   10650  3 1496.
 00181C B205 D000      00000       10651  3 1497.                    STCK  @R13
 001820 58F0 D000            00000 10652  3 1498.                    L     R15,@R13
 001824 5FF0 304C            0004C 10653  3 1499.                    SL    R15,CABCLCK
 001828                            10654  3 1500.                    IF    (CABCLCK,Z),'LH R15,=H"-1"'
 001828 D603 304C 304C 0004C 0004C 10664  3          +
 00182E 4770 6816            01836 10665  3          +
 001832 48F0 6CF8            01D18 10671  3          +
 001836 4100 0006            00006 10676  3 1501.                    SEGDC 6,(R15)
 00183A 4D90 7202            00252 10689  3          +
 00183E 4110 09F5            009F5 10690  3 1502.                    SEG   ' secs'
 001842 4590 6B80            01BA0 10692  3          +
                                   10693  3 1503.
 001846 58F0 3040            00040 10694  3 1504.                    SEGDC 6,L:CABNRDS
 00184A 4100 0006            00006 10706  3          +
 00184E 4D90 7202            00252 10708  3          +
 001852 4110 09FB            009FB 10709  3 1505.                    SEG   ' hits'
 001856 4590 6B80            01BA0 10711  3          +
 00185A 58F0 3044            00044 10712  3 1506.                    SEGDC 5,L:CABNWRS
 00185E 4100 0005            00005 10724  3          +
 001862 4D90 7202            00252 10726  3          +
 001866 4110 0A01            00A01 10727  3 1507.                    SEG   ' upds'
 00186A 4590 6B80            01BA0 10729  3          +
                                   10730  3 1508.
 00186E 4110 0A07            00A07 10731  3 1509.                    SEG   '  key='
 001872 4590 6B80            01BA0 10733  3          +
 001876 58F0 3010            00010 10734  3 1510.                    SEGHX 2,L:CABKEY
 00187A 4100 0002            00002 10746  3          +
 00187E 4D90 7224            00274 10748  3          +
 001882 4110 0552            00552 10749  3 1511.                    SEG   ' '
 001886 4590 6B80            01BA0 10751  3          +
 00188A 58F0 3014            00014 10752  3 1512.                    SEGHX 8,L:CABKEY+4
 00188E 4100 0008            00008 10764  3          +
 001892 4D90 7224            00274 10766  3          +
 001896 4110 0A0E            00A0E 10767  3 1513.                    SEG   ': buf='
 00189A 4590 6B80            01BA0 10769  3          +
 00189E 58F0 3038            00038 10770  3 1514.                    SEGHX 8,L:CABBUFP
 0018A2 4100 0008            00008 10782  3          +
 0018A6 4D90 7224            00274 10784  3          +
 0018AA 4D90 71B6            00206 10785  3 1515.                    LCALL WRITE
 0018AE 47F0 6764            01784 10787  2 1516.                  END
1VSSW     (VSSW07) (09:49) (22MAR04) SHOW VCACHE Command                                                                    Page   82
0Current Usings:  (PZERO,R0) (GRITEM,R3) (FILECB,R4) (CIT,R5) (BASE2,R6) (BASE,R7) (WA,R8) (CLW,R10)
0Loc    Object Code    Addr1 Addr2  Stmt Lv Lineno    Source Statement           (Hibal 5, Asmedit 3.3)  HLASM R4.0  2004/03/22 09.49
+___    ______ ____    _____ _____  ____ __ ______    ______ _________
0DROP   CAB,R3
 USING  GRITEM,R3
                                   10804  2 1517.
 0018B2 4D90 71B6            00206 10805  2 1518.                  LCALL WRITE
                                   10807  2 1519.
 0018B6 4110 0A15            00A15 10808  2 1520.                  SEG   'Master free CAB @ 0x'
 0018BA 4590 6B80            01BA0 10810  2          +
 0018BE 41F0 502C            0002C 10811  2 1521.                  SEGHX 8,LA:CITFREEQ
 0018C2 4100 0008            00008 10823  2          +
 0018C6 4D90 7224            00274 10825  2          +
 0018CA 4D90 71B6            00206 10826  2 1522.                  LCALL WRITE
                                   10828  2 1523.
 0018CE 4120 502C            0002C 10829  2 1524.                  LA    R2,CITFREEQ
 0018D2 1832                       10830  2 1525.                  LR    R3,R2
 0018D4                            10831  2 1526.                  LOOP  BEGIN
 DROP   GRITEM,R3                  10837  3 1527.                    WITH  (CAB,R3)
 USING  CAB,R3
 0018D4 5830 3008            00008 10853  3 1528.                    L     R3,CABQF
 0018D8 1932/4780 68EC       0190C 10854  3 1529.                    IF    (R3,EQ,R2),EXIT
 0018DE 4110 09F1            009F1 10872  3 1530.                    SEG   '  ='
 0018E2 4590 6B80            01BA0 10874  3          +
 0018E6 18F3/4100 0008       00008 10875  3 1531.                    SEGHX 8,(R3)
 0018EC 4D90 7224            00274 10889  3          +
 0018F0 4110 0A0E            00A0E 10890  3 1532.                    SEG   ': buf='
 0018F4 4590 6B80            01BA0 10892  3          +
 0018F8 58F0 3038            00038 10893  3 1533.                    SEGHX 8,L:CABBUFP
 0018FC 4100 0008            00008 10905  3          +
 001900 4D90 7224            00274 10907  3          +
 001904 4D90 71B6            00206 10908  3 1534.                    LCALL WRITE
 001908 47F0 68B4            018D4 10910  2 1535.                  END
 DROP   CAB,R3
 USING  GRITEM,R3
                                   10927  2 1536.
 00190C 4D90 71B6            00206 10928  2 1537.                  LCALL WRITE
 001910 4D90 71B6            00206 10930  2 1538.                  LCALL WRITE
                                   10932  2 1539.
 001914 4110 0A2A            00A2A 10933  2 1540.                  SEG   'Hashed queue ('
 001918 4590 6B80            01BA0 10935  2          +
 00191C 58F0 50CC/1B00       000CC 10936  2 1541.                  SEGDC 0,L:CITNHASH
 001922 4D90 7202            00252 10947  2          +
 001926 4110 0A39            00A39 10948  2 1542.                  SEG   ' queues):'
 00192A 4590 6B80            01BA0 10950  2          +
 00192E 4D90 71B6            00206 10951  2 1543.                  LCALL WRITE
                                   10953  2 1544.
 001932 1B22                       10954  2 1545.                  CLEAR R2
 001934 5830 50CC            000CC 10958  2 1546.                  L     R3,CITNHASH
 001938 4150 50D0            000D0 10959  2 1547.                  LA    R5,CITHASHQ
 DROP   CIT,R5                     10960  2 1548.                  DROP  CIT
                                   10968  2 1549.
 00193C 1233/47D0 6986       019A6 10969  2 1550.                  WHILE (R3,POS),BEGIN
 001942 58F2 5000/12FF       00000 10985  3 1551.                    LT    R15,@R5(R2)
 001948 4780 697C            0199C 10989  3 1552.                    IF    NZ,BEGIN
 00194C 4110 0A43            00A43 11000  4 1553.                      SEG   '  +'
 001950 4590 6B80            01BA0 11002  4          +
1VSSW     (VSSW07) (09:49) (22MAR04) SHOW VCACHE Command                                                                    Page   83
0Current Usings:  (PZERO,R0) (GRITEM,R3) (FILECB,R4) (BASE2,R6) (BASE,R7) (WA,R8) (CLW,R10)
0Loc    Object Code    Addr1 Addr2  Stmt Lv Lineno    Source Statement           (Hibal 5, Asmedit 3.3)  HLASM R4.0  2004/03/22 09.49
+___    ______ ____    _____ _____  ____ __ ______    ______ _________
0001954 18F2                       11003  4 1554.                      LR    R15,R2
 001956 88F0 0002            00002 11004  4 1555.                      SRL   R15,2
 00195A 4100 0006            00006 11005  4 1556.                      SEGDC 6,(R15)
 00195E 4D90 7202            00252 11018  4          +
 001962 4110 0A47            00A47 11019  4 1557.                      SEG   ': '
 001966 4590 6B80            01BA0 11021  4          +
 00196A 1BFF                       11022  4 1558.                      CLEAR R15
 00196C 5812 5000            00000 11026  4 1559.                      L     R1,@R5(R2)
 001970 1211/4780 696A       0198A 11027  4 1560.                      WHILE (R1,NZ),BEGIN
 USING  CAB,R1                     11043  5 1561.                        WITH  (CAB,R1)
 001976 5810 1004            00004 11056  5 1562.                        L     R1,CABLINK
 00197A 41F0 F001            00001 11057  5 1563.                        LA    R15,@R15+1
 00197E 59F0 6C5C            01C7C 11058  5 1564.                        IF    (R15,GT,=F'9999'),EXIT  (Safety check)
 001982 4720 696A            0198A 11071  5          +
 001986 47F0 6950            01970 11077  4 1565.                      END
 DROP   CAB,R1
 00198A 1B00/4D90 7202       00252 11087  4 1566.                      SEGDC 0,(R15)
 001990 4110 0A4A            00A4A 11098  4 1567.                      SEG   ' entries'
 001994 4590 6B80            01BA0 11100  4          +
 001998 4D90 71B6            00206 11101  4 1568.                      LCALL WRITE
 00199C                            11103  3 1569.                    END
                                   11107  3 1570.
 00199C 4120 2004            00004 11108  3 1571.                    LA    R2,@R2+4
 0019A0 0630                       11109  3 1572.                    DECR  R3
 0019A2 47F0 691C            0193C 11111  2 1573.                  END
 0019A6 07F4                       11116  2 1574.                  BR    R4
1VSSW     (VSSW07) (09:49) (22MAR04) SHOW VCACHE Command                                                                    Page   84
0Current Usings:  (PZERO,R0) (GRITEM,R3) (FILECB,R4) (BASE2,R6) (BASE,R7) (WA,R8) (CLW,R10)
0Loc    Object Code    Addr1 Addr2  Stmt Lv Lineno    Source Statement           (Hibal 5, Asmedit 3.3)  HLASM R4.0  2004/03/22 09.49
+___    ______ ____    _____ _____  ____ __ ______    ______ _________
0                                  11118  2 1576.     *
                                   11119  2 1577.     *  SETVCACH -- SET VCACHE commands (priv'd).
                                   11120  2 1578.     *
 0019A8 4D90 7054            000A4 11121  2 1579.     SETVCACH     SYSONLY ,                 Privileged
                                   11124  2 1580.     *
                                   11125  2 1581.     *  Set default cache
                                   11126  2 1582.     *
 0019AC 4110 090F            0090F 11127  2 1583.                  SEG   'Caching stuff disabled for now'
 0019B0 4590 6B80            01BA0 11129  2          +
 0019B4 4D90 71B6            00206 11130  2 1584.                  LCALL WRITE
 0019B8 07F7                       11132  2 1585.                  BR    BR
00019BA 4D90 724C            0029C 11134  2 1587.                  LCALL AMODE31             ********
 0019BE                            11136  2 1588.                  BEGIN
 0019BE 58F0 0200            00200 11140  3 1589.                    L     R15,MATPTR           MAT ptr from low memory
 0019C2 58F0 F028            00028 11141  3 1590.                    WITH  (MAT,R15),'L R15,MATFILCB'
 USING  MAT,R15
 DROP   MAT,R15
 USING  FILECB,R15                 11165  3 1591.                    WITH  (FILECB,R15)
 0019C6 5820 F018            00018 11178  3 1592.                    L     R2,FILE2KCH               2K Cache block
 0019CA 1222/4770 69B4       019D4 11179  3 1593.                    IF    (R2,Z),'L  R2,FILE4KCH'   4K Cache block
 0019D0 5820 F020            00020 11194  3          +
 DROP   FILECB,R15                 11199  2 1594.                  END   ,
 0019D4 4D90 7258            002A8 11208  2 1595.                  LCALL AMODE24             ********
                                   11210  2 1596.
 0019D8 1222/4770 69CA       019EA 11211  2 1597.                  IF    (R2,Z),BEGIN
 0019DE 4110 6D45            01D65 11225  3 1598.                    SETMSG 'No File Cache defined'
 0019E2 4100 0015            00015 11228  3          +
 0019E6 47F0 70BA            0010A 11229  3 1599.                    B     ERRORMSG
 0019EA                            11230  2 1600.                  END   ,
 0019EA 5020 8028            00028 11234  2 1601.                  ST    R2,WACACHE
                                   11235  2 1602.
 0019EE 4110 69E8            01A08 11236  2 1603.                  SCAN  VCPRT,CLWKWCB       Handle sub-options
 0019F2 41F0 A2C4            002C4 11250  2          +
 0019F6 58E0 6C30/0DEE       01C50 11253  2          +
 0019FC 4110 6D5A            01D7A 11255  2 1604.                  SETMSG 'Missing option.'
 001A00 4100 000F            0000F 11258  2          +
 001A04 47F0 709E            000EE 11259  2 1605.                  B     MISSING
                                   11260  2 1606.
                                   11261  2 1607.                    SET VCACHE options.
                                   11262  2 1608.
 001A08 01001AAAD6D5               11263  2 1609.     VCPRT        SCKW  ON,SETVCON
 001A0E                            11265  2 1610.                  SCKW  OFF,SETVCOFF
 001A0E 02001ABCD6C6C6             11266  2          +
 001A15                            11267  2 1611.                  SCKW  PURGE,SETVCPUR,A
 001A15 0C001ACED7E4D9C7           11268  2          +
 001A1E                            11269  2 1612.                  SCKW  VERIFY,SETVCVER,A
 001A1E 0D001AE0E5C5D9C9           11270  2          +
 001A28                            11271  2 1613.                  SCKW  NOVERIFY,SETVCNOV,A
 001A28 0F001AF4D5D6E5C5           11272  2          +
 001A34 01001A4AF2D2               11273  2 1614.                  SCKW  2K,SETVC2K
 001A3A 01001A7AF4D2               11275  2 1615.                  SCKW  4K,SETVC4K
 001A40 40001B0840                 11277  2 1616.                  SCKW  ,SETVCNO,I
 001A45 FF0000FA                   11279  2 1617.                  SCKW  ,UNREC
1VSSW     (VSSW07) (09:49) (22MAR04) SHOW VCACHE Command                                                                    Page   85
0Current Usings:  (PZERO,R0) (GRITEM,R3) (FILECB,R4) (BASE2,R6) (BASE,R7) (WA,R8) (CLW,R10)
0Loc    Object Code    Addr1 Addr2  Stmt Lv Lineno    Source Statement           (Hibal 5, Asmedit 3.3)  HLASM R4.0  2004/03/22 09.49
+___    ______ ____    _____ _____  ____ __ ______    ______ _________
0                                  11281  2 1618.     *
                                   11282  2 1619.     *   Set 2K cache
                                   11283  2 1620.     *
 001A4A                            11284  2 1621.     SETVC2K      LABEL ,
 001A4A 180F                       11286  2 1622.                  LR    R0,R15
 001A4C 4D90 724C            0029C 11287  2 1623.                  LCALL AMODE31             ********
 001A50 5810 0200            00200 11289  2 1624.                  L     R1,MATPTR           MAT ptr from low memory
 001A54 5810 1028            00028 11290  2 1625.                  WITH  (MAT,R1),'L R1,MATFILCB'
 USING  MAT,R1
 DROP   MAT,R1
 001A58 5820 1018            00018 11314  2 1626.                  WITH  (FILECB,R1),'L  R2,FILE2KCH'   Cache block
 DROP   FILECB,R4
 USING  FILECB,R1
 USING  FILECB,R4
 DROP   FILECB,R1
 001A5C 4D90 7258            002A8 11355  2 1627.                  LCALL AMODE24             ********
                                   11357  2 1628.
 001A60 1222/4770 6A52       01A72 11358  2 1629.                  IF    (R2,Z),BEGIN
 001A66 4110 6BB8            01BD8 11372  3 1630.                    SETMSG 'No 2K File Cache defined'
 001A6A 4100 0018            00018 11375  3          +
 001A6E 47F0 70BA            0010A 11376  3 1631.                    B     ERRORMSG
 001A72                            11377  2 1632.                  END   ,
 001A72 5020 8028            00028 11381  2 1633.                  ST    R2,WACACHE
 001A76 18F0/07FE                  11382  2 1634.                  SCRTN (0)
                                   11390  2 1635.     *
                                   11391  2 1636.     *   Set 4K cache
                                   11392  2 1637.     *
 001A7A                            11393  2 1638.     SETVC4K      LABEL ,
 001A7A 180F                       11395  2 1639.                  LR    R0,R15
 001A7C 4D90 724C            0029C 11396  2 1640.                  LCALL AMODE31             ********
 001A80 5810 0200            00200 11398  2 1641.                  L     R1,MATPTR           MAT ptr from low memory
 001A84 5810 1028            00028 11399  2 1642.                  WITH  (MAT,R1),'L R1,MATFILCB'
 USING  MAT,R1
 DROP   MAT,R1
 001A88 5820 1020            00020 11423  2 1643.                  WITH  (FILECB,R1),'L  R2,FILE4KCH'   Cache block
 DROP   FILECB,R4
 USING  FILECB,R1
 USING  FILECB,R4
 DROP   FILECB,R1
 001A8C 4D90 7258            002A8 11464  2 1644.                  LCALL AMODE24             ********
                                   11466  2 1645.
 001A90 1222/4770 6A82       01AA2 11467  2 1646.                  IF    (R2,Z),BEGIN
 001A96 4110 6BD0            01BF0 11481  3 1647.                    SETMSG 'No 4K File Cache defined'
 001A9A 4100 0018            00018 11484  3          +
 001A9E 47F0 70BA            0010A 11485  3 1648.                    B     ERRORMSG
 001AA2                            11486  2 1649.                  END   ,
 001AA2 5020 8028            00028 11490  2 1650.                  ST    R2,WACACHE
 001AA6 18F0/07FE                  11491  2 1651.                  SCRTN (0)
                                   11499  2 1652.     *
                                   11500  2 1653.     *   Enable caching
                                   11501  2 1654.     *
 001AAA 58E0 8028/1BFF       00028 11502  2 1655.     SETVCON      CLPSERV CACTRL,LA:2,,L:WACACHE
 001AB0 4110 0002            00002 11517  2          +
 001AB4 4100 0078/0AED       00078 11524  2          +
1VSSW     (VSSW07) (09:49) (22MAR04) SHOW VCACHE Command                                                                    Page   86
0Current Usings:  (PZERO,R0) (GRITEM,R3) (FILECB,R4) (BASE2,R6) (BASE,R7) (WA,R8) (CLW,R10)
0Loc    Object Code    Addr1 Addr2  Stmt Lv Lineno    Source Statement           (Hibal 5, Asmedit 3.3)  HLASM R4.0  2004/03/22 09.49
+___    ______ ____    _____ _____  ____ __ ______    ______ _________
0001ABA 07F7                       11526  2 1656.                  BR    BR
                                   11527  2 1657.     *
                                   11528  2 1658.     *   Disable caching
                                   11529  2 1659.     *
 001ABC 58E0 8028/1BFF       00028 11530  2 1660.     SETVCOFF     CLPSERV CACTRL,LA:3,,L:WACACHE
 001AC2 4110 0003            00003 11545  2          +
 001AC6 4100 0078/0AED       00078 11552  2          +
 001ACC 07F7                       11554  2 1661.                  BR    BR
                                   11555  2 1662.     *
                                   11556  2 1663.     *   Purge cache
                                   11557  2 1664.     *
 001ACE 58E0 8028/1BFF       00028 11558  2 1665.     SETVCPUR     CLPSERV CACTRL,LA:4,,L:WACACHE
 001AD4 4110 0004            00004 11573  2          +
 001AD8 4100 0078/0AED       00078 11580  2          +
 001ADE 07F7                       11582  2 1666.                  BR    BR
                                   11583  2 1667.     *
                                   11584  2 1668.     *   Turn data verify on
                                   11585  2 1669.     *
 001AE0 58E0 8028            00028 11586  2 1670.     SETVCVER     CLPSERV CACTRL,LA:5,LA:1,L:WACACHE
 001AE4 41F0 0001            00001 11597  2          +
 001AE8 4110 0005            00005 11602  2          +
 001AEC 4100 0078/0AED       00078 11609  2          +
 001AF2 07F7                       11611  2 1671.                  BR    BR
                                   11612  2 1672.     *
                                   11613  2 1673.     *   Turn data verify off
                                   11614  2 1674.     *
 001AF4 58E0 8028            00028 11615  2 1675.     SETVCNOV     CLPSERV CACTRL,LA:5,LA:0,L:WACACHE
 001AF8 41F0 0000            00000 11626  2          +
 001AFC 4110 0005            00005 11631  2          +
 001B00 4100 0078/0AED       00078 11638  2          +
 001B06 07F7                       11640  2 1676.                  BR    BR
                                   11641  2 1677.     *
                                   11642  2 1678.     *   Set num of buffers
                                   11643  2 1679.     *
 001B08 58E0 8028            00028 11644  2 1680.     SETVCNO      CLPSERV CACTRL,LA:1,L:CLWKWVAL,L:WACACHE
 001B0C 58F0 A2C4            002C4 11655  2          +
 001B10 4110 0001            00001 11660  2          +
 001B14 4100 0078/0AED       00078 11667  2          +
 001B1A 07F7                       11669  2 1681.                  BR    BR
0001B1C                            11671  2 1683.     SETMANY      LABEL ,
 001B1C 4110 0A53            00A53 11673  2 1684.                  SEG   'Too many devices attached'
 001B20 4590 6B80            01BA0 11675  2          +
 001B24 47F0 70BE            0010E 11676  2 1685.                  B     ERROR
0001B28                            11678  2 1687.     SETALDY      LABEL ,
 001B28 4110 0A6D            00A6D 11680  2 1688.                  SEG   'File system already in requested mode'
 001B2C 4590 6B80            01BA0 11682  2          +
 001B30 47F0 70BE            0010E 11683  2 1689.                  B     ERROR
0001B34                            11685  2 1691.     SETIOE       LABEL ,
 001B34 4110 0A93            00A93 11687  2 1692.                  SEG   'I/O error'
 001B38 4590 6B80            01BA0 11689  2          +
 001B3C 47F0 70BE            0010E 11690  2 1693.                  B     ERROR
1VSSW     (VSSW07) (09:49) (22MAR04) SHOW VCACHE Command                                                                    Page   87
0Current Usings:  (PZERO,R0) (GRITEM,R3) (FILECB,R4) (BASE2,R6) (BASE,R7) (WA,R8) (CLW,R10)
0Loc    Object Code    Addr1 Addr2  Stmt Lv Lineno    Source Statement           (Hibal 5, Asmedit 3.3)  HLASM R4.0  2004/03/22 09.49
+___    ______ ____    _____ _____  ____ __ ______    ______ _________
0001B40                            11691  2 1694.     SETMOK       LABEL ,
 001B40 4110 0A9D            00A9D 11693  2 1695.                  SEG   'Requested file mode set'
 001B44 4590 6B80            01BA0 11695  2          +
 001B48 47F0 70D2            00122 11696  2 1696.                  B     WRITEXIT
0001B4C                            11698  2 1698.     SETMSTIL     LABEL ,
 001B4C 4110 0AB5            00AB5 11700  2 1699.                  SEG   'File maintenance still in progress'
 001B50 4590 6B80            01BA0 11702  2          +
 001B54 47F0 70BE            0010E 11703  2 1700.                  B     ERROR
0001B58                            11705  2 1702.     SETNOFS      LABEL ,
 001B58 4110 0AD8            00AD8 11707  2 1703.                  SEG   'File system not found'
 001B5C 4590 6B80            01BA0 11709  2          +
 001B60 47F0 70BE            0010E 11710  2 1704.                  B     ERROR
                                   11711  2 1705.
 001B64                            11712  2 1706.     SETINVA      LABEL ,
 001B64 4110 0AEE            00AEE 11714  2 1707.                  SEG   'You can''t do that'
 001B68 4590 6B80            01BA0 11716  2          +
 001B6C 47F0 70BE            0010E 11717  2 1708.                  B     ERROR
0001B70                            11719  2 1710.     SETMLS       LABEL ,
 001B70 4110 0B00            00B00 11721  2 1711.                  SEG   'You lose some...'
 001B74 4590 6B80            01BA0 11723  2          +
 001B78 47F0 70BE            0010E 11724  2 1712.                  B     ERROR
0001B7C                            11726  2 1714.     SETINVC      LABEL ,
 001B7C 4110 0B11            00B11 11728  2 1715.                  SEG   'This will never happen'
 001B80 4590 6B80            01BA0 11730  2          +
 001B84 47F0 70BE            0010E 11731  2 1716.                  B     ERROR
0001B88                            11733  2 1718.     SETMRG       LABEL ,
 001B88 4110 0B28            00B28 11735  2 1719.                  SEG   'Richard goofed'
 001B8C 4590 6B80            01BA0 11737  2          +
 001B90 47F0 70BE            0010E 11738  2 1720.                  B     ERROR
                                   11739  2 1721.
 001B94                            11740  2 1722.     SETMWS       LABEL ,
 001B94 4110 0B37            00B37 11742  2 1723.                  SEG   'You win some...'
 001B98 4590 6B80            01BA0 11744  2          +
 001B9C 47F0 70BE            0010E 11745  2 1724.                  B     ERROR
1VSSW     (VSSW07) (09:49) (22MAR04) SHOW VCACHE Command                                                                    Page   88
0Current Usings:  (PZERO,R0) (GRITEM,R3) (FILECB,R4) (BASE2,R6) (BASE,R7) (WA,R8) (CLW,R10)
0Loc    Object Code    Addr1 Addr2  Stmt Lv Lineno    Source Statement           (Hibal 5, Asmedit 3.3)  HLASM R4.0  2004/03/22 09.49
+___    ______ ____    _____ _____  ____ __ ______    ______ _________
0                                  11747  2 1726.     *  CONSTANTS
                                   11748  2 1727.     *
 001BA0 5090 D000            00000 11749  2 1728.                  GENMSGS
 001BA4 41D0 D004/1F00       00004 11753  2          +
 001BAA 4301 6D76            01D96 11759  2          +
 001BAE 4111 6D77            01D97 11761  2          +
 001BB2 5890 6BF0/0D99       01C10 11777  2          +
 001BB8 4BD0 6C60            01C80 11780  2          +
 001BBC 5890 D000/07F9       00000 11781  2          +
 001BC8 F0F0F0F0F0F0F0F0           11785  2                              =C'00000000'
 001BD0 4040404040404040           11786  2                              =CL8' '
 001BD8 D59640F2D240C689           11787  2                              =C'No 2K File Cache defined'
 001BF0 D59640F4D240C689           11788  2                              =C'No 4K File Cache defined'
 001C08 00000000                   11789  2                              =V(TYPEIT)
 001C0C 00000000                   11790  2                              =V(VWRITE)
 001C10 00000000                   11791  2                              =V(VSEG)
 001C14 00000064                   11792  2                              =A(100)
 001C18 00000001                   11793  2                              =A(1)
 001C1C 00000000                   11794  2                              =V(EVAL)
 001C20 00000000                   11795  2                              =V(MVCOS)
 001C24 00000000                   11796  2                              =V(BTDU)
 001C28 00000000                   11797  2                              =V(BTX)
 001C2C 00000000                   11798  2                              =V(SEGSECS)
 001C30 80000000                   11799  2                              =A(X'80000000')
 001C34 00000000                   11800  2                              =V(SEGSYSN)
 001C38 00000000                   11801  2                              =V(FMTCLCK)
 001C3C 00000000                   11802  2                              =V(FMTELAPS)
 001C40 000008C2                   11803  2                              =A(SEGDBL)
 001C44 3B9ACA00                   11804  2                              =A(1000000000)
 001C48 00000142                   11805  2                              =A(PRCT0)
 001C4C C3C9E3C8                   11806  2                              =C'CITH'
 001C50 00000000                   11807  2                              =V(SCAN)
 001C54 00000000                   11808  2                              =V(RTRIM)
 001C58 00000000                   11809  2                              =F'0'
 001C5C 00000151                   11810  2                              =A(AHFBCNT)
 001C60 C7D9C5E2                   11811  2                              =CL4'GRES'
 001C64 C7D9C840                   11812  2                              =CL4'GRH'
 001C68 00000001                   11813  2                              =F'1'
 001C6C 00000206                   11814  2                              =A(WRITE)
 001C70 D6D9E54B                   11815  2                              =C'ORV.'
 001C74 00000028                   11816  2                              =A(L'WAVFLIKE)
 001C78 00000003                   11817  2                              =F'3'
 001C7C 0000270F                   11818  2                              =F'9999'
 001C80 0004                       11819  2                              =Y(4)
 001C82 0018                       11820  2                              =Y((14+1-(RAR)+16*((RAR)/(14+1))/((RAR)/(14+1)))*4)
 001C84 C6C9D3C5C3C2               11821  2                              =C'FILECB'
 001C8A C995A58193898440           11822  2                              =C'Invalid file system id'
 001CA0 000C                       11823  2                              =Y(L'AHFBL)
 001CA2 0018                       11824  2                              =Y((R5+1-(R0)+16*((R0)/(R5+1))/((R0)/(R5+1)))*4)
 001CA4 7A4085A7978583A3           11825  2                              =C': expecting full filename (e.g., ORV.GG.UUU.FILE).'
 001CD6 0004                       11826  2                              =H'4'
 001CD8 000C                       11827  2                              =Y((R4+1-(R2)+16*((R2)/(R4+1))/((R2)/(R4+1)))*4)
 001CDA 7A4085A7978583A3           11828  2                              =C': expecting a user ID (e.g., PJG).'
 001CFC 0010                       11829  2                              =Y((R5+1-(R2)+16*((R2)/(R5+1))/((R2)/(R5+1)))*4)
1VSSW     (VSSW07) (09:49) (22MAR04) SHOW VCACHE Command                                                                    Page   89
0Current Usings:  (PZERO,R0) (GRITEM,R3) (FILECB,R4) (BASE2,R6) (BASE,R7) (WA,R8) (CLW,R10)
0Loc    Object Code    Addr1 Addr2  Stmt Lv Lineno    Source Statement           (Hibal 5, Asmedit 3.3)  HLASM R4.0  2004/03/22 09.49
+___    ______ ____    _____ _____  ____ __ ______    ______ _________
0001CFE 40C6899385408381           11830  2                              =C' File caching not defined.'
 001D18 FFFF                       11831  2                              =H'-1'
 001D1A D7C1C7C3C2                 11832  2                              =C'PAGCB'
 001D1F C3C9E3                     11833  2                              =C'CIT'
 001D22 C5958440968640E5           11834  2                              =C'End of VFILES Display'
 001D37 C1E2C2                     11835  2                              =C'ASB'
 001D3A C1C9C2                     11836  2                              =C'AIB'
 001D3D 40406F6F6F                 11837  2                              =C'  ???'
 001D42 40D4E2E3D9                 11838  2                              =C' MSTR'
 001D47 4040C3C1E3                 11839  2                              =C'  CAT'
 001D4C 40C2C9E3D4                 11840  2                              =C' BITM'
 001D51 4040C9E7D9                 11841  2                              =C'  IXR'
 001D56 40E2C9E7D9                 11842  2                              =C' SIXR'
 001D5B 40D4C9E7D9                 11843  2                              =C' MIXR'
 001D60 40E4E2C5D9                 11844  2                              =C' USER'
 001D65 D59640C689938540           11845  2                              =C'No File Cache defined'
 001D7A D489A2A289958740           11846  2                              =C'Missing option.'
 DROP   CLW,R10                    12237  2 1729.                  DROP  ,
 DROP   WA,R8
 DROP   BASE,R7
 DROP   BASE2,R6
 DROP   FILECB,R4
 DROP   GRITEM,R3
 DROP   PZERO,R0
1VSSW     (VSSW07) (09:49) (22MAR04) SHOW VCACHE Command                                                                    Page   90
0Loc    Object Code    Addr1 Addr2  Stmt Lv Lineno    Source Statement           (Hibal 5, Asmedit 3.3)  HLASM R4.0  2004/03/22 09.49
+___    ______ ____    _____ _____  ____ __ ______    ______ _________
0                                  12293  2 1731.     *
                                   12294  2 1732.     *  PUT SUBSYSTEM NAME INTO OUTPUT BUFFER
                                   12295  2 1733.     *
 0028DD 00/902B D000         00000 12296  2 1734.     SEGSYSN      VENTER R2,R11,*
 0028E2 188D/41D0 D028       00028 12300  2          +
 0028E8 0D70                       12304  2          +
 USING  *,R7
 USING  CLW,R10                    12316  2 1735.                  USING CLW,CLWR                ##
 0028EA 4100 001C            0001C 12325  2 1736.                  SENSE 28,CLWTEMP,8            GET NAME
 0028EE 4110 A2E8            002E8 12339  2          +
 0028F2 41F0 0008/0AFA       00008 12346  2          +
 0028F8 4100 0008            00008 12352  2 1737.                  LA    R0,8
 0028FC 41F0 A2EF            002EF 12353  2 1738.                  LA    R15,CLWTEMP+7           END OF NAME
 002900 9540 F000      00000       12354  2 1739.                  WHILE ('CLI  @R15,C" "',EQ),BEGIN
 002904 4770 7026            02910 12364  2          +
 002908 0600                       12369  3 1740.                    DECR  R0                      STRIP BLANKS
 00290A 06F0                       12371  3 1741.                    DECR  R15
 00290C 47F0 7016            02900 12373  2 1742.                  END   ,
 002910 4110 A2E8            002E8 12378  2 1743.                  VSEG  CLWTEMP,(R0)            SEG IT
 002914 5890 704E/0D99       02938 12394  2          +
 00291A 4110 7052            0293C 12396  2 1744.                  VSEG  ': '
 00291E 4100 0002            00002 12400  2          +
 002922 5890 704E/0D99       02938 12403  2          +
 002928 18D8/982B D000       00000 12405  2 1745.                  VEXIT R2,R11,*                AND SPLIT
 00292E 12FF/07F9                  12409  2          +
-DROP   CLW,R10                    12412  2 1747.                  DROP  CLWR                    ##
                                   12419  2 1748.
 002938                            12420  2 1749.                  LTORG
 002938 00000000                   12422  2                              =V(VSEG)
 00293C 7A40           0293E 02940 12423  2                              =C': '
 002940                02940 02940 12427  2 1750.                  END   .
                                          2
1VSSW     (VSSW07) (09:49) (22MAR04) Ordinary Symbol and Literal Cross Reference                                            Page   91
-Symbol   Length   Value     Id    R Type   Defn References                                  HLASM R4.0  2004/03/22 09.49
0$$$@R10       1 00000000 FFFFFFF4     J     836  1127
 $$$@R11       1 00000000 FFFFFFF3     J     849  1140
 $$$@R12       1 00000000 FFFFFFF2     J     862  1153
 $$$@R2        1 00000000 FFFFFFFC     J     732  1023
 $$$@R3        1 00000000 FFFFFFFB     J     745  1036
 $$$@R4        1 00000000 FFFFFFFA     J     758  1049
 $$$@R5        1 00000000 FFFFFFF9     J     771  1062
 $$$@R6        1 00000000 FFFFFFF8     J     784  1075
 $$$@R7        1 00000000 FFFFFFF7     J     797  1088
 $$$@R8        1 00000000 FFFFFFF6     J     810  1101
 $$$@R9        1 00000000 FFFFFFF5     J     823  1114
 $$$C1VSSW
               1 00001D96 00000001     J   11847 11849
 $$$C2VSSW
               1 0000293E 00000001     J   12424 12426
 $$$C3VSSW
               1 00002940 00000001     J   12430 12432
 $$$D0VSSW
               1 00001D89 00000001     J     992  8435   9530
 $$$R@QUE      1 00000000 FFFFFFDF     J    3320  3335   3335
 $$$RAHFB      1 00000000 FFFFFFDB     J    3572  3602   3602
 $$$RAIB       1 00000000 FFFFFFE8     J    2257  2288   2288
 $$$RASB       1 00000000 FFFFFFE9     J    2186  2237   2237
 $$$RATFB      1 00000000 FFFFFFDA     J    3610  3658   3658
 $$$RCAB       1 00000000 FFFFFFE3     J    3081  3109   3109
 $$$RCABH      1 00000000 FFFFFFE1     J    3181  3211   3211
 $$$RCIT       1 00000000 FFFFFFE2     J    3119  3170   3170
 $$$RCITH      1 00000000 FFFFFFE0     J    3225  3279   3279
 $$$RCLW       1 00000000 FFFFFFEC     J    1672  1979   1979
 $$$RFILECB
               1 00000000 FFFFFFE5     J    2651  2793   2793
 $$$RFSB       1 00000000 FFFFFFE4     J    2799  3071   3071
 $$$RGRCT      1 00000000 FFFFFFDE     J    3435  3460   3460
 $$$RGRHITM
               1 00000000 FFFFFFDC     J    3515  3563   3563
 $$$RGRITEM
               1 00000000 FFFFFFDD     J    3473  3501   3501
 $$$RMAT       1 00000000 FFFFFFEA     J    2121  2180   2180
 $$$RPAGCB
               1 00000000 FFFFFFE6     J    2330  2641   2641
 $$$RPAGCEL
               1 00000000 FFFFFFE7     J    2298  2324   2324
 $$$RPZERO
               1 00000000 FFFFFFEE     J    1163  1254   1254
 $$$RSCP       1 00000000 FFFFFFED     J    1327  1656   1656
 $$$RSLDUMMY
               1 00000000 FFFFFFEB     J    2093  2109   2109
 $$$0B         1 00000022 00000001     X    3859  3866U
 $$$10F        2 000002F2 00000001     H    4630  4620B
 $$$100F       2 000011A6 00000001     H    8605  8590B
 $$$100S       2 00001196 00000001     H    8575  8601B
 $$$103F       2 0000132C 00000001     H    9210  8664B  8684B  8729B  8782B  8807B  9200B
 $$$103S       2 000011B8 00000001     H    8647  8881B  9209B
 $$$106F       2 000011E6 00000001     H    8715  8703B
 $$$108F       2 0000121A 00000001     H    8815  8745B
1VSSW     (VSSW07) (09:49) (22MAR04) Ordinary Symbol and Literal Cross Reference                                            Page   92
 $$$109F       2 0000120C 00000001     H    8786  8762B  8774B
 $$$11F        2 00000372 00000001     H    4748  4717B
 $$$111F       2 0000121A 00000001     H    8811  8799B
 $$$112B       4 0000121E 00000001     I    8826  8855
 $$$112F       2 00001236 00000001     H    8852  8826B  8854
 $$$113E       2 0000123A 00000001     H    8862  8856
 $$$113F       2 00001260 00000001     H    8915  8858B
 $$$114F       2 0000124A 00000001     H    8885  8873B
 $$$115F       2 00001260 00000001     H    8911  8899B
 $$$116B       4 0000128A 00000001     I    8965  9053
 $$$116F       2 000012BE 00000001     H    9050  8965B  9052
 $$$117B       4 00001292 00000001     I    8980  9031
 $$$117F       2 000012B2 00000001     H    9028  8980B  9030
 $$$118B       4 0000129A 00000001     I    8995  9009
 $$$118F       2 000012A6 00000001     H    9006  8995B  9008
 $$$119E       2 000012AA 00000001     H    9016  9010
 $$$119F       2 000012B2 00000001     H    9024  9012B
 $$$12B        4 0000046E 00000001     I    5002  5019
 $$$12F        2 0000047E 00000001     H    5015  5002B  5018
 $$$120E       2 000012B6 00000001     H    9038  9032
 $$$120F       2 000012BE 00000001     H    9046  9034B
 $$$121E       2 000012C2 00000001     H    9060  9054
 $$$121F       2 00001302 00000001     H    9148  9056B
 $$$122B       4 000012CE 00000001     I    9075  9089
 $$$122F       2 000012DA 00000001     H    9086  9075B  9088
 $$$123E       2 000012DE 00000001     H    9096  9090
 $$$123F       2 00001302 00000001     H    9144  9092B
 $$$124B       4 000012E2 00000001     I    9108  9122
 $$$124F       2 000012EE 00000001     H    9119  9108B  9121
 $$$125E       2 000012F2 00000001     H    9129  9123
 $$$125F       2 000012FA 00000001     H    9137  9125B
 $$$126F       2 0000131C 00000001     H    9185  9159B
 $$$128F       2 000014B4 00000001     H    9484  9459B
 $$$129F       2 000014CA 00000001     H    9507  9498B
 $$$13E        2 00000482 00000001     H    5026  5020
 $$$13F        2 000008B8 00000001     H    5928  5022B
 $$$130F       2 000014DA 00000001     H    9546  9522B
 $$$131        6 00001D90 00000001     I    9536  9528X
 $$$132        6 00001D90 00000001     I    9535  9536   9536
 $$$133F       2 00001504 00000001     H    9599  9574B
 $$$136F       2 00001568 00000001     H    9757  9734B
 $$$138F       2 0000157C 00000001     H    9792  9769B
 $$$14F        2 000004BA 00000001     H    5066  5056B
 $$$140B       4 000015CE 00000001     I    9908  9928
 $$$140F       2 000015DC 00000001     H    9923  9895B  9908B  9925
 $$$141B       4 000015C4 00000001     I    9895  9926
 $$$142E       2 000015E0 00000001     H    9935  9927   9929
 $$$142F       2 000015E4 00000001     H    9942  9931B
 $$$143F       2 00001666 00000001     H   10117 10104B
 $$$144B       4 00001682 00000001     I   10155 10170
 $$$144F       2 0000168E 00000001     H   10167 10155B 10169
 $$$145E       2 00001692 00000001     H   10177 10171
 $$$145F       2 0000169A 00000001     H   10186 10173B
 $$$146B       4 000016A2 00000001     I   10197 10212
 $$$146F       2 000016AE 00000001     H   10209 10197B 10211
 $$$147E       2 000016B2 00000001     H   10219 10213
 $$$147F       2 000016BA 00000001     H   10228 10215B
 $$$148F       2 000018B2 00000001     H   10803 10427B
 $$$148S       2 00001784 00000001     H   10396 10802B
1VSSW     (VSSW07) (09:49) (22MAR04) Ordinary Symbol and Literal Cross Reference                                            Page   93
 $$$15F        2 0000052A 00000001     H    5175  5118B
 $$$15S        2 00000506 00000001     H    5112  5174B
 $$$150F       2 000017B8 00000001     H   10481 10468B
 $$$151F       2 000017C8 00000001     H   10507 10494B
 $$$152F       2 000017D8 00000001     H   10533 10520B
 $$$153F       2 000017E8 00000001     H   10559 10546B
 $$$154F       2 000017F8 00000001     H   10585 10572B
 $$$155F       2 00001808 00000001     H   10611 10598B
 $$$156F       2 00001818 00000001     H   10637 10624B
 $$$157F       2 00001836 00000001     H   10675 10665B
 $$$158F       2 0000190C 00000001     H   10926 10866B
 $$$158S       2 000018D4 00000001     H   10835 10925B
 $$$160F       2 000019A6 00000001     H   11115 10980B
 $$$160S       2 0000193C 00000001     H   10974 11114B
 $$$162F       2 0000199C 00000001     H   11106 10995B
 $$$163F       2 0000198A 00000001     H   11086 11038B 11071B
 $$$163S       2 00001970 00000001     H   11032 11085B
 $$$167F       2 000019D4 00000001     H   11198 11188B
 $$$168F       2 000019EA 00000001     H   11233 11220B
 $$$169F       2 00001A72 00000001     H   11380 11367B
 $$$17F        2 0000051E 00000001     H    5160  5150B
 $$$170F       2 00001AA2 00000001     H   11489 11476B
 $$$171B       1 000028EA 00000001     X   12307 12314U
 $$$172F       2 00002910 00000001     H   12377 12364B
 $$$172S       2 00002900 00000001     H   12359 12376B
 $$$18F        2 00000536 00000001     H    5195  5185B
 $$$19F        2 0000055E 00000001     H    5226  5216B
 $$$2F         2 00000044 00000001     H    3929  3914B
 $$$20F        2 000005C0 00000001     H    5284  5274B
 $$$21F        2 00000622 00000001     H    5342  5332B
 $$$22F        2 00000670 00000001     H    5390  5380B
 $$$23F        2 00000680 00000001     H    5411  5401B
 $$$24F        2 00000690 00000001     H    5432  5422B
 $$$25F        2 000006B6 00000001     H    5462  5452B
 $$$26F        2 000006C6 00000001     H    5483  5473B
 $$$27F        2 000006D6 00000001     H    5504  5494B
 $$$28F        2 000006EA 00000001     H    5526  5516B
 $$$29F        2 00000720 00000001     H    5562  5552B
 $$$30F        2 00000730 00000001     H    5583  5573B
 $$$31F        2 00000740 00000001     H    5604  5594B
 $$$32F        2 00000830 00000001     H    5842  5787B
 $$$33B        4 00000838 00000001     I    5858  5884
 $$$33F        2 00000868 00000001     H    5881  5858B  5883
 $$$34E        2 0000086C 00000001     H    5891  5885
 $$$34F        2 000008B8 00000001     H    5924  5887B
 $$$35B        4 000008CC 00000001     I    5951  6014
 $$$35F        2 00000902 00000001     H    6011  5951B  6013
 $$$36E        2 00000906 00000001     H    6021  6015
 $$$36F        2 00000916 00000001     H    6050  6017B
 $$$37B        4 0000092E 00000001     I    6085  6102
 $$$37F        2 0000093E 00000001     H    6098  6085B  6101
 $$$38E        2 00000942 00000001     H    6109  6103
 $$$38F        2 000009EA 00000001     H    6297  6105B
 $$$39B        4 00000948 00000001     I    6136  6153
 $$$39F        2 00000958 00000001     H    6149  6136B  6152
 $$$40E        2 0000095C 00000001     H    6160  6154
 $$$40F        2 000009EA 00000001     H    6288  6156B
 $$$41F        2 0000097E 00000001     H    6199  6187B
 $$$42F        2 0000098E 00000001     H    6222  6210B
1VSSW     (VSSW07) (09:49) (22MAR04) Ordinary Symbol and Literal Cross Reference                                            Page   94
 $$$43B        4 000009EE 00000001     I    6311  6328
 $$$43F        2 000009FE 00000001     H    6324  6311B  6327
 $$$44E        2 00000A02 00000001     H    6335  6329
 $$$44F        2 00000B32 00000001     H    6662  6331B
 $$$45B        4 00000A08 00000001     I    6362  6379
 $$$45F        2 00000A18 00000001     H    6375  6362B  6378
 $$$46E        2 00000A1C 00000001     H    6386  6380
 $$$46F        2 00000B32 00000001     H    6653  6382B
 $$$47B        4 00000AC4 00000001     I    6504  6539
 $$$47F        2 00000AE4 00000001     H    6536  6504B  6538
 $$$48F        2 00000ADE 00000001     H    6530  6520B
 $$$49E        2 00000AE8 00000001     H    6546  6540
 $$$49F        2 00000AEA 00000001     H    6556  6542B
 $$$5F         2 0000015C 00000001     H    4223  4212B
 $$$5S         2 0000014A 00000001     H    4206  4222B
 $$$50B        4 00000B00 00000001     I    6583  6618
 $$$50F        2 00000B20 00000001     H    6615  6583B  6617
 $$$51F        2 00000B1A 00000001     H    6609  6599B
 $$$52E        2 00000B24 00000001     H    6625  6619
 $$$52F        2 00000B26 00000001     H    6635  6621B
 $$$53F        2 00000B88 00000001     H    6743  6712B
 $$$54S        2 00000B8A 00000001     H    6756  7502B
 $$$55F        2 00000C2A 00000001     H    6932  6794B
 $$$56B        4 00000BA4 00000001     I    6809  6826
 $$$56F        2 00000BB4 00000001     H    6822  6809B  6825
 $$$57E        2 00000BB8 00000001     H    6833  6827
 $$$57F        2 00000C26 00000001     H    6927  6829B  6842B
 $$$59F        2 00000C14 00000001     H    6915  6905B
 $$$60F        2 00000CC2 00000001     H    7096  6946B
 $$$61F        2 00000C6E 00000001     H    7024  7012B
 $$$62F        2 00000CEA 00000001     H    7147  7110B
 $$$63F        2 00000D00 00000001     H    7178  7166B
 $$$63S        2 00000CEE 00000001     H    7154  7177B
 $$$66B        4 00000D5C 00000001     I    7275  7345
 $$$66F        2 00000DB2 00000001     H    7342  7275B  7344
 $$$67F        2 00000D8A 00000001     H    7310  7300B
 $$$68F        2 00000DA2 00000001     H    7333  7323B
 $$$69E        2 00000DB6 00000001     H    7352  7346
 $$$69F        2 00000DBE 00000001     H    7360  7348B
 $$$7F         2 0000019A 00000001     H    4300  4245B
 $$$70B        4 00000DD8 00000001     I    7391  7405
 $$$70F        2 00000DE4 00000001     H    7402  7391B  7404
 $$$71E        2 00000DE8 00000001     H    7412  7406
 $$$71F        2 00000DF0 00000001     H    7420  7408B
 $$$72F        2 00000E30 00000001     H    7492  7452B
 $$$73F        2 00000E22 00000001     H    7482  7472B
 $$$74F        2 00000EAA 00000001     H    7638  7612B
 $$$75F        2 00000EC6 00000001     H    7674  7650B
 $$$76F        2 00000F7E 00000001     H    7891  7760B
 $$$76T        2 00000EEA 00000001     H    7763  7750B
 $$$78F        2 00000FB2 00000001     H    7965  7903B
 $$$79F        2 00000FA0 00000001     H    7934  7921B
 $$$8F         2 00000186 00000001     H    4270  4260B
 $$$80F        2 00000FB2 00000001     H    7961  7950B
 $$$80S        2 00000FA0 00000001     H    7940  7960B
 $$$82F        2 000010DA 00000001     H    8279  7986B  8268B
 $$$82S        2 00000FB2 00000001     H    7980  8208B  8278B
 $$$84F        2 00001094 00000001     H    8192  8068B
 $$$84T        2 0000100C 00000001     H    8071  8058B
1VSSW     (VSSW07) (09:49) (22MAR04) Ordinary Symbol and Literal Cross Reference                                            Page   95
 $$$87S        2 000010A4 00000001     H    8218  8250B
 $$$9F         2 0000019A 00000001     H    4296  4284B
 $$$92F        2 0000116E 00000001     H    8523  8408B
 $$$92S        2 0000110E 00000001     H    8372  8522B
 $$$93F        2 00001124 00000001     H    8393  8381B
 $$$95F        2 00001146 00000001     H    8465  8424B
 $$$96         6 00001D8A 00000001     I    8441  8433X
 $$$97         6 00001D8A 00000001     I    8440  8441   8441
 $$$99F        2 00001162 00000001     H    8515  8491B
 #VSSWA1M      1 00001D96 00000001     R   11853  4004
 #VSSWA1T     16 00001D97 00000001     C   11854 11853
 #VSSWA2M      1 00001DA7 00000001     R   11855  4009
 #VSSWA2T     15 00001DA8 00000001     C   11856 11855
 #VSSWA3M      1 00001DB7 00000001     R   11857  4033
 #VSSWA3T     39 00001DB8 00000001     C   11858 11857
 #VSSWA4M      1 00001DDF 00000001     R   11859  4075
 #VSSWA4T     13 00001DE0 00000001     C   11860 11859
 #VSSWA5M      1 00001DED 00000001     R   11861  4080
 #VSSWA5T     15 00001DEE 00000001     C   11862 11861
 #VSSWA6M      1 00001DFD 00000001     R   11863  4085
 #VSSWA6T     12 00001DFE 00000001     C   11864 11863
 #VSSWA7M      1 00001E0A 00000001     R   11865  4090
 #VSSWA7T     15 00001E0B 00000001     C   11866 11865
 #VSSWA8M      1 00001E1A 00000001     R   11867  4113
 #VSSWA8T      9 00001E1B 00000001     C   11868 11867
 #VSSWA9M      1 00001E24 00000001     R   11869  4321
 #VSSWA9T      1 00001E25 00000001     C   11870 11869
 #VSSWB0M      1 00001E26 00000001     R   11871  4349  11887
 #VSSWB0T      1 00001E27 00000001     C   11872 11871
 #VSSWB1M      1 00001E28 00000001     R   11873  4608
 #VSSWB1T     12 00001E29 00000001     C   11874 11873
 #VSSWB2M      1 00001E35 00000001     R   11875  4656
 #VSSWB2T     17 00001E36 00000001     C   11876 11875
 #VSSWB3M      1 00001E47 00000001     R   11877  4723
 #VSSWB3T     22 00001E48 00000001     C   11878 11877
 #VSSWB4M      1 00001E5E 00000001     R   11879  4729
 #VSSWB4T      2 00001E5F 00000001     C   11880 11879
 #VSSWB5M      1 00001E61 00000001     R   11881  4735
 #VSSWB5T      6 00001E62 00000001     C   11882 11881
 #VSSWB6M      1 00001E68 00000001     R   11883  4741
 #VSSWB6T      5 00001E69 00000001     C   11884 11883
 #VSSWB7M      1 00001E6E 00000001     R   11885  4759
 #VSSWB7T     21 00001E6F 00000001     C   11886 11885
 #VSSWB8M      1 00001E26 00000001     U   11887  4784
 #VSSWB9M      1 00001E84 00000001     R   11888  4802
 #VSSWB9T     11 00001E85 00000001     C   11889 11888
 #VSSWC0M      1 00001E90 00000001     R   11890  4822
 #VSSWC0T     23 00001E91 00000001     C   11891 11890
 #VSSWC1M      1 00001EA8 00000001     R   11892  4850
 #VSSWC1T     23 00001EA9 00000001     C   11893 11892
 #VSSWC2M      1 00001EC0 00000001     R   11894  4874
 #VSSWC2T     23 00001EC1 00000001     C   11895 11894
 #VSSWC3M      1 00001ED8 00000001     R   11896  4898
 #VSSWC3T     23 00001ED9 00000001     C   11897 11896
 #VSSWC4M      1 00001EF0 00000001     R   11898  4922
 #VSSWC4T     23 00001EF1 00000001     C   11899 11898
 #VSSWC5M      1 00001F08 00000001     R   11900  5008
 #VSSWC5T     36 00001F09 00000001     C   11901 11900
 #VSSWC6M      1 00001F2D 00000001     R   11902  5029
1VSSW     (VSSW07) (09:49) (22MAR04) Ordinary Symbol and Literal Cross Reference                                            Page   96
 #VSSWC6T     24 00001F2E 00000001     C   11903 11902
 #VSSWC7M      1 00001F46 00000001     R   11904  5035
 #VSSWC7T     10 00001F47 00000001     C   11905 11904
 #VSSWC8M      1 00001F51 00000001     R   11906  5043  11916  11922  11928  11934
 #VSSWC8T     12 00001F52 00000001     C   11907 11906
 #VSSWC9M      1 00001F5E 00000001     R   11908  5071  11917  11923  11929  11935
 #VSSWC9T      1 00001F5F 00000001     C   11909 11908
 #VSSWD0M      1 00001F60 00000001     R   11910  5079  11918  11924  11930  11936
 #VSSWD0T     12 00001F61 00000001     C   11911 11910
 #VSSWD1M      1 00001F6D 00000001     R   11912  5087  11919  11925  11931  11937  12000  12174
 #VSSWD1T      7 00001F6E 00000001     C   11913 11912
 #VSSWD2M      1 00001F75 00000001     R   11914  5093
 #VSSWD2T     10 00001F76 00000001     C   11915 11914
 #VSSWD3M      1 00001F51 00000001     U   11916  5203
 #VSSWD4M      1 00001F5E 00000001     U   11917  5231
 #VSSWD5M      1 00001F60 00000001     U   11918  5239
 #VSSWD6M      1 00001F6D 00000001     U   11919  5247
 #VSSWD7M      1 00001F80 00000001     R   11920  5253
 #VSSWD7T     10 00001F81 00000001     C   11921 11920
 #VSSWD8M      1 00001F51 00000001     U   11922  5261
 #VSSWD9M      1 00001F5E 00000001     U   11923  5289
 #VSSWE0M      1 00001F60 00000001     U   11924  5297
 #VSSWE1M      1 00001F6D 00000001     U   11925  5305
 #VSSWE2M      1 00001F8B 00000001     R   11926  5311
 #VSSWE2T     10 00001F8C 00000001     C   11927 11926
 #VSSWE3M      1 00001F51 00000001     U   11928  5319
 #VSSWE4M      1 00001F5E 00000001     U   11929  5347
 #VSSWE5M      1 00001F60 00000001     U   11930  5355
 #VSSWE6M      1 00001F6D 00000001     U   11931  5363
 #VSSWE7M      1 00001F96 00000001     R   11932  5368
 #VSSWE7T     10 00001F97 00000001     C   11933 11932
 #VSSWE8M      1 00001F51 00000001     U   11934  5440
 #VSSWE9M      1 00001F5E 00000001     U   11935  5532
 #VSSWF0M      1 00001F60 00000001     U   11936  5540
 #VSSWF1M      1 00001F6D 00000001     U   11937  5611
 #VSSWF2M      1 00001FA1 00000001     R   11938  5625
 #VSSWF2T     27 00001FA2 00000001     C   11939 11938
 #VSSWF3M      1 00001FBD 00000001     R   11940  5643  11944  11947  11950
 #VSSWF3T     14 00001FBE 00000001     C   11941 11940
 #VSSWF4M      1 00001FCC 00000001     R   11942  5663
 #VSSWF4T     27 00001FCD 00000001     C   11943 11942
 #VSSWF5M      1 00001FBD 00000001     U   11944  5681
 #VSSWF6M      1 00001FE8 00000001     R   11945  5701
 #VSSWF6T     27 00001FE9 00000001     C   11946 11945
 #VSSWF7M      1 00001FBD 00000001     U   11947  5719
 #VSSWF8M      1 00002004 00000001     R   11948  5739
 #VSSWF8T     27 00002005 00000001     C   11949 11948
 #VSSWF9M      1 00001FBD 00000001     U   11950  5757
 #VSSWG0M      1 00002020 00000001     R   11951  5795
 #VSSWG0T     44 00002021 00000001     C   11952 11951
 #VSSWG1M      1 0000204D 00000001     R   11953  5864
 #VSSWG1T     39 0000204E 00000001     C   11954 11953
 #VSSWG2M      1 00002075 00000001     R   11955  5869
 #VSSWG2T     16 00002076 00000001     C   11956 11955
 #VSSWG3M      1 00002086 00000001     R   11957  5874
 #VSSWG3T     14 00002087 00000001     C   11958 11957
 #VSSWG4M      1 00002095 00000001     R   11959  5894
 #VSSWG4T     26 00002096 00000001     C   11960 11959
 #VSSWG5M      1 000020B0 00000001     R   11961  5899
1VSSW     (VSSW07) (09:49) (22MAR04) Ordinary Symbol and Literal Cross Reference                                            Page   97
 #VSSWG5T     19 000020B1 00000001     C   11962 11961
 #VSSWG6M      1 000020C4 00000001     R   11963  5905
 #VSSWG6T     17 000020C5 00000001     C   11964 11963
 #VSSWG7M      1 000020D6 00000001     R   11965  5911
 #VSSWG7T     19 000020D7 00000001     C   11966 11965
 #VSSWG8M      1 000020EA 00000001     R   11967  5917
 #VSSWG8T     17 000020EB 00000001     C   11968 11967
 #VSSWG9M      1 000020FC 00000001     R   11969  6091  11989
 #VSSWG9T     21 000020FD 00000001     C   11970 11969
 #VSSWH0M      1 00002112 00000001     R   11971  6142
 #VSSWH0T     29 00002113 00000001     C   11972 11971
 #VSSWH1M      1 00002130 00000001     R   11973  6175
 #VSSWH1T     15 00002131 00000001     C   11974 11973
 #VSSWH2M      1 00002140 00000001     R   11975  6194
 #VSSWH2T     11 00002141 00000001     C   11976 11975
 #VSSWH3M      1 0000214C 00000001     R   11977  6217
 #VSSWH3T     20 0000214D 00000001     C   11978 11977
 #VSSWH4M      1 00002161 00000001     R   11979  6227
 #VSSWH4T     12 00002162 00000001     C   11980 11979
 #VSSWH5M      1 0000216E 00000001     R   11981  6242
 #VSSWH5T     10 0000216F 00000001     C   11982 11981
 #VSSWH6M      1 00002179 00000001     R   11983  6257  11998
 #VSSWH6T     11 0000217A 00000001     C   11984 11983
 #VSSWH7M      1 00002185 00000001     R   11985  6266  11999
 #VSSWH7T      3 00002186 00000001     C   11986 11985
 #VSSWH8M      1 00002189 00000001     R   11987  6281
 #VSSWH8T      8 0000218A 00000001     C   11988 11987
 #VSSWH9M      1 000020FC 00000001     U   11989  6317
 #VSSWI0M      1 00002192 00000001     R   11990  6368
 #VSSWI0T     30 00002193 00000001     C   11991 11990
 #VSSWI1M      1 000021B1 00000001     R   11992  6401
 #VSSWI1T     14 000021B2 00000001     C   11993 11992
 #VSSWI2M      1 000021C0 00000001     R   11994  6407  12001
 #VSSWI2T      4 000021C1 00000001     C   11995 11994
 #VSSWI3M      1 000021C5 00000001     R   11996  6422  12171
 #VSSWI3T      8 000021C6 00000001     C   11997 11996
 #VSSWI4M      1 00002179 00000001     U   11998  6437
 #VSSWI5M      1 00002185 00000001     U   11999  6446
 #VSSWI6M      1 00001F6D 00000001     U   12000  6461
 #VSSWI7M      1 000021C0 00000001     U   12001  6466
 #VSSWI8M      1 000021CE 00000001     R   12002  6481
 #VSSWI8T     23 000021CF 00000001     C   12003 12002
 #VSSWI9M      1 000021E6 00000001     R   12004  6491
 #VSSWI9T     30 000021E7 00000001     C   12005 12004
 #VSSWJ0M      1 00002205 00000001     R   12006  6570
 #VSSWJ0T      9 00002206 00000001     C   12007 12006
 #VSSWJ1M      1 0000220F 00000001     R   12008  6718
 #VSSWJ1T     23 00002210 00000001     C   12009 12008
 #VSSWJ2M      1 00002227 00000001     R   12010  6724
 #VSSWJ2T     32 00002228 00000001     C   12011 12010
 #VSSWJ3M      1 00002248 00000001     R   12012  6727
 #VSSWJ3T     30 00002249 00000001     C   12013 12012
 #VSSWJ4M      1 00002267 00000001     R   12014  6733
 #VSSWJ4T     24 00002268 00000001     C   12015 12014
 #VSSWJ5M      1 00002280 00000001     R   12016  6736
 #VSSWJ5T     22 00002281 00000001     C   12017 12016
 #VSSWJ6M      1 00002297 00000001     R   12018  6815
 #VSSWJ6T     17 00002298 00000001     C   12019 12018
 #VSSWJ7M      1 000022A9 00000001     R   12020  6848
1VSSW     (VSSW07) (09:49) (22MAR04) Ordinary Symbol and Literal Cross Reference                                            Page   98
 #VSSWJ7T     11 000022AA 00000001     C   12021 12020
 #VSSWJ8M      1 000022B5 00000001     R   12022  6866  12049
 #VSSWJ8T     11 000022B6 00000001     C   12023 12022
 #VSSWJ9M      1 000022C1 00000001     R   12024  6884
 #VSSWJ9T      9 000022C2 00000001     C   12025 12024
 #VSSWK0M      1 000022CB 00000001     R   12026  6892  12058
 #VSSWK0T      4 000022CC 00000001     C   12027 12026
 #VSSWK1M      1 000022D0 00000001     R   12028  6920  12059
 #VSSWK1T      8 000022D1 00000001     C   12029 12028
 #VSSWK2M      1 000022D9 00000001     R   12030  6952  12032  12035  12036  12037  12038
 #VSSWK2T      1 000022DA 00000001     C   12031 12030
 #VSSWK3M      1 000022D9 00000001     U   12032  6968
 #VSSWK4M      1 000022DB 00000001     R   12033  7018
 #VSSWK4T     10 000022DC 00000001     C   12034 12033
 #VSSWK5M      1 000022D9 00000001     U   12035  7027
 #VSSWK6M      1 000022D9 00000001     U   12036  7043
 #VSSWK7M      1 000022D9 00000001     U   12037  7059
 #VSSWK8M      1 000022D9 00000001     U   12038  7075
 #VSSWK9M      1 000022E6 00000001     R   12039  7090
 #VSSWK9T      1 000022E7 00000001     C   12040 12039
 #VSSWL0M      1 000022E8 00000001     R   12041  7138  12111  12146  12195
 #VSSWL0T      1 000022E9 00000001     C   12042 12041
 #VSSWL1M      1 000022EA 00000001     R   12043  7196  12066
 #VSSWL1T      1 000022EB 00000001     C   12044 12043
 #VSSWL2M      1 000022EC 00000001     R   12045  7241
 #VSSWL2T     35 000022ED 00000001     C   12046 12045
 #VSSWL3M      1 00002310 00000001     R   12047  7246
 #VSSWL3T     23 00002311 00000001     C   12048 12047
 #VSSWL4M      1 000022B5 00000001     U   12049  7337
 #VSSWL5M      1 00002328 00000001     R   12050  7355
 #VSSWL5T     17 00002329 00000001     C   12051 12050
 #VSSWL6M      1 0000233A 00000001     R   12052  7377
 #VSSWL6T      7 0000233B 00000001     C   12053 12052
 #VSSWL7M      1 00002342 00000001     R   12054  7397
 #VSSWL7T      2 00002343 00000001     C   12055 12054
 #VSSWL8M      1 00002345 00000001     R   12056  7415
 #VSSWL8T      2 00002346 00000001     C   12057 12056
 #VSSWL9M      1 000022CB 00000001     U   12058  7437
 #VSSWM0M      1 000022D0 00000001     U   12059  7487
 #VSSWM1M      1 00002348 00000001     R   12060  7599
 #VSSWM1T     14 00002349 00000001     C   12061 12060
 #VSSWM2M      1 00002357 00000001     R   12062  7618
 #VSSWM2T     10 00002358 00000001     C   12063 12062
 #VSSWM3M      1 00002362 00000001     R   12064  7657
 #VSSWM3T     10 00002363 00000001     C   12065 12064
 #VSSWM4M      1 000022EA 00000001     U   12066  7676
 #VSSWM5M      1 0000236D 00000001     R   12067  7770
 #VSSWM5T     32 0000236E 00000001     C   12068 12067
 #VSSWM6M      1 0000238E 00000001     R   12069  7775  12083
 #VSSWM6T     16 0000238F 00000001     C   12070 12069
 #VSSWM7M      1 0000239F 00000001     R   12071  7793  12075  12078  12084  12086  12088
 #VSSWM7T     14 000023A0 00000001     C   12072 12071
 #VSSWM8M      1 000023AE 00000001     R   12073  7813  12085
 #VSSWM8T     16 000023AF 00000001     C   12074 12073
 #VSSWM9M      1 0000239F 00000001     U   12075  7831
 #VSSWN0M      1 000023BF 00000001     R   12076  7851  12087
 #VSSWN0T     16 000023C0 00000001     C   12077 12076
 #VSSWN1M      1 0000239F 00000001     U   12078  7869
 #VSSWN2M      1 000023D0 00000001     R   12079  8004
1VSSW     (VSSW07) (09:49) (22MAR04) Ordinary Symbol and Literal Cross Reference                                            Page   99
 #VSSWN2T     16 000023D1 00000001     C   12080 12079
 #VSSWN3M      1 000023E1 00000001     R   12081  8024
 #VSSWN3T      8 000023E2 00000001     C   12082 12081
 #VSSWN4M      1 0000238E 00000001     U   12083  8076
 #VSSWN5M      1 0000239F 00000001     U   12084  8094
 #VSSWN6M      1 000023AE 00000001     U   12085  8114
 #VSSWN7M      1 0000239F 00000001     U   12086  8132
 #VSSWN8M      1 000023BF 00000001     U   12087  8152
 #VSSWN9M      1 0000239F 00000001     U   12088  8170
 #VSSWO0M      1 000023EA 00000001     R   12089  8832
 #VSSWO0T      5 000023EB 00000001     C   12090 12089
 #VSSWO1M      1 000023F0 00000001     R   12091  8917
 #VSSWO1T      5 000023F1 00000001     C   12092 12091
 #VSSWO2M      1 000023F6 00000001     R   12093  8940
 #VSSWO2T     10 000023F7 00000001     C   12094 12093
 #VSSWO3M      1 00002401 00000001     R   12095  9001
 #VSSWO3T     11 00002402 00000001     C   12096 12095
 #VSSWO4M      1 0000240D 00000001     R   12097  9019
 #VSSWO4T     21 0000240E 00000001     C   12098 12097
 #VSSWO5M      1 00002423 00000001     R   12099  9041
 #VSSWO5T     17 00002424 00000001     C   12100 12099
 #VSSWO6M      1 00002435 00000001     R   12101  9063
 #VSSWO6T     14 00002436 00000001     C   12102 12101
 #VSSWO7M      1 00002444 00000001     R   12103  9081
 #VSSWO7T      8 00002445 00000001     C   12104 12103
 #VSSWO8M      1 0000244D 00000001     R   12105  9114
 #VSSWO8T     10 0000244E 00000001     C   12106 12105
 #VSSWO9M      1 00002458 00000001     R   12107  9132
 #VSSWO9T      6 00002459 00000001     C   12108 12107
 #VSSWP0M      1 0000245F 00000001     R   12109  9139
 #VSSWP0T      7 00002460 00000001     C   12110 12109
 #VSSWP1M      1 000022E8 00000001     U   12111  9165
 #VSSWP2M      1 00002467 00000001     R   12112  9240
 #VSSWP2T     46 00002468 00000001     C   12113 12112
 #VSSWP3M      1 00002496 00000001     R   12114  9255
 #VSSWP3T      2 00002497 00000001     C   12115 12114
 #VSSWP4M      1 00002499 00000001     R   12116  9294
 #VSSWP4T     25 0000249A 00000001     C   12117 12116
 #VSSWP5M      1 000024B3 00000001     R   12118  9299
 #VSSWP5T     40 000024B4 00000001     C   12119 12118
 #VSSWP6M      1 000024DC 00000001     R   12120  9302
 #VSSWP6T     18 000024DD 00000001     C   12121 12120
 #VSSWP7M      1 000024EF 00000001     R   12122  9309
 #VSSWP7T     37 000024F0 00000001     C   12123 12122
 #VSSWP8M      1 00002515 00000001     R   12124  9314
 #VSSWP8T     51 00002516 00000001     C   12125 12124
 #VSSWP9M      1 00002549 00000001     R   12126  9317
 #VSSWP9T     25 0000254A 00000001     C   12127 12126
 #VSSWQ0M      1 00002563 00000001     R   12128  9322
 #VSSWQ0T     27 00002564 00000001     C   12129 12128
 #VSSWQ1M      1 0000257F 00000001     R   12130  9329
 #VSSWQ1T     42 00002580 00000001     C   12131 12130
 #VSSWQ2M      1 000025AA 00000001     R   12132  9334
 #VSSWQ2T     33 000025AB 00000001     C   12133 12132
 #VSSWQ3M      1 000025CC 00000001     R   12134  9339
 #VSSWQ3T     38 000025CD 00000001     C   12135 12134
 #VSSWQ4M      1 000025F3 00000001     R   12136  9344
 #VSSWQ4T     47 000025F4 00000001     C   12137 12136
 #VSSWQ5M      1 00002623 00000001     R   12138  9349
1VSSW     (VSSW07) (09:49) (22MAR04) Ordinary Symbol and Literal Cross Reference                                            Page  100
 #VSSWQ5T     44 00002624 00000001     C   12139 12138
 #VSSWQ6M      1 00002650 00000001     R   12140  9356
 #VSSWQ6T     49 00002651 00000001     C   12141 12140
 #VSSWQ7M      1 00002682 00000001     R   12142  9359
 #VSSWQ7T     14 00002683 00000001     C   12143 12142
 #VSSWQ8M      1 00002691 00000001     R   12144  9795
 #VSSWQ8T      2 00002692 00000001     C   12145 12144
 #VSSWQ9M      1 000022E8 00000001     U   12146  9813
 #VSSWR0M      1 00002694 00000001     R   12147  9834
 #VSSWR0T      1 00002695 00000001     C   12148 12147
 #VSSWR1M      1 00002696 00000001     R   12149  9914
 #VSSWR1T     14 00002697 00000001     C   12150 12149
 #VSSWR2M      1 000026A5 00000001     R   12151  9960  12212
 #VSSWR2T     30 000026A6 00000001     C   12152 12151
 #VSSWR3M      1 000026C4 00000001     R   12153 10018
 #VSSWR3T      3 000026C5 00000001     C   12154 12153
 #VSSWR4M      1 000026C8 00000001     R   12155 10074
 #VSSWR4T      3 000026C9 00000001     C   12156 12155
 #VSSWR5M      1 000026CC 00000001     R   12157 10088
 #VSSWR5T     25 000026CD 00000001     C   12158 12157
 #VSSWR6M      1 000026E6 00000001     R   12159 10129
 #VSSWR6T      9 000026E7 00000001     C   12160 12159
 #VSSWR7M      1 000026F0 00000001     R   12161 10162
 #VSSWR7T      8 000026F1 00000001     C   12162 12161
 #VSSWR8M      1 000026F9 00000001     R   12163 10181
 #VSSWR8T      7 000026FA 00000001     C   12164 12163
 #VSSWR9M      1 00002701 00000001     R   12165 10204
 #VSSWR9T     18 00002702 00000001     C   12166 12165
 #VSSWS0M      1 00002714 00000001     R   12167 10223
 #VSSWS0T     27 00002715 00000001     C   12168 12167
 #VSSWS1M      1 00002730 00000001     R   12169 10233
 #VSSWS1T     10 00002731 00000001     C   12170 12169
 #VSSWS2M      1 000021C5 00000001     U   12171 10266
 #VSSWS3M      1 0000273B 00000001     R   12172 10281
 #VSSWS3T      9 0000273C 00000001     C   12173 12172
 #VSSWS4M      1 00001F6D 00000001     U   12174 10296
 #VSSWS5M      1 00002745 00000001     R   12175 10302
 #VSSWS5T     13 00002746 00000001     C   12176 12175
 #VSSWS6M      1 00002753 00000001     R   12177 10332
 #VSSWS6T      1 00002754 00000001     C   12178 12177
 #VSSWS7M      1 00002755 00000001     R   12179 10347
 #VSSWS7T      8 00002756 00000001     C   12180 12179
 #VSSWS8M      1 0000275E 00000001     R   12181 10365
 #VSSWS8T     19 0000275F 00000001     C   12182 12181
 #VSSWS9M      1 00002772 00000001     R   12183 10373
 #VSSWS9T     20 00002773 00000001     C   12184 12183
 #VSSWT0M      1 00002787 00000001     R   12185 10434  12200
 #VSSWT0T      3 00002788 00000001     C   12186 12185
 #VSSWT1M      1 0000278B 00000001     R   12187 10691
 #VSSWT1T      5 0000278C 00000001     C   12188 12187
 #VSSWT2M      1 00002791 00000001     R   12189 10710
 #VSSWT2T      5 00002792 00000001     C   12190 12189
 #VSSWT3M      1 00002797 00000001     R   12191 10728
 #VSSWT3T      5 00002798 00000001     C   12192 12191
 #VSSWT4M      1 0000279D 00000001     R   12193 10732
 #VSSWT4T      6 0000279E 00000001     C   12194 12193
 #VSSWT5M      1 000022E8 00000001     U   12195 10750
 #VSSWT6M      1 000027A4 00000001     R   12196 10768  12201
 #VSSWT6T      6 000027A5 00000001     C   12197 12196
1VSSW     (VSSW07) (09:49) (22MAR04) Ordinary Symbol and Literal Cross Reference                                            Page  101
 #VSSWT7M      1 000027AB 00000001     R   12198 10809
 #VSSWT7T     20 000027AC 00000001     C   12199 12198
 #VSSWT8M      1 00002787 00000001     U   12200 10873
 #VSSWT9M      1 000027A4 00000001     U   12201 10891
 #VSSWU0M      1 000027C0 00000001     R   12202 10934
 #VSSWU0T     14 000027C1 00000001     C   12203 12202
 #VSSWU1M      1 000027CF 00000001     R   12204 10949
 #VSSWU1T      9 000027D0 00000001     C   12205 12204
 #VSSWU2M      1 000027D9 00000001     R   12206 11001
 #VSSWU2T      3 000027DA 00000001     C   12207 12206
 #VSSWU3M      1 000027DD 00000001     R   12208 11020
 #VSSWU3T      2 000027DE 00000001     C   12209 12208
 #VSSWU4M      1 000027E0 00000001     R   12210 11099
 #VSSWU4T      8 000027E1 00000001     C   12211 12210
 #VSSWU5M      1 000026A5 00000001     U   12212 11128
 #VSSWU6M      1 000027E9 00000001     R   12213 11674
 #VSSWU6T     25 000027EA 00000001     C   12214 12213
 #VSSWU7M      1 00002803 00000001     R   12215 11681
 #VSSWU7T     37 00002804 00000001     C   12216 12215
 #VSSWU8M      1 00002829 00000001     R   12217 11688
 #VSSWU8T      9 0000282A 00000001     C   12218 12217
 #VSSWU9M      1 00002833 00000001     R   12219 11694
 #VSSWU9T     23 00002834 00000001     C   12220 12219
 #VSSWV0M      1 0000284B 00000001     R   12221 11701
 #VSSWV0T     34 0000284C 00000001     C   12222 12221
 #VSSWV1M      1 0000286E 00000001     R   12223 11708
 #VSSWV1T     21 0000286F 00000001     C   12224 12223
 #VSSWV2M      1 00002884 00000001     R   12225 11715
 #VSSWV2T     17 00002885 00000001     C   12226 12225
 #VSSWV3M      1 00002896 00000001     R   12227 11722
 #VSSWV3T     16 00002897 00000001     C   12228 12227
 #VSSWV4M      1 000028A7 00000001     R   12229 11729
 #VSSWV4T     22 000028A8 00000001     C   12230 12229
 #VSSWV5M      1 000028BE 00000001     R   12231 11736
 #VSSWV5T     14 000028BF 00000001     C   12232 12231
 #VSSWV6M      1 000028CD 00000001     R   12233 11743
 #VSSWV6T     15 000028CE 00000001     C   12234 12233
 @R0           0 00000000 FFFFFFFE     @     707   983U 12289U
 @R1           0 00000000 FFFFFFFD     @     720   979U  9458   9485   9535   9600  11082U 11312U 11353U 11421U 11462U
 @R10          0 00000000 FFFFFFF4     @     837   943U 12251U 12417U
 @R11          0 00000000 FFFFFFF3     @     850   939U
 @R12          0 00000000 FFFFFFF2     @     863   935U
 @R13          0 00000000 FFFFFFF1     @     876   931U 10651M 10652
 @R14          0 00000000 FFFFFFF0     @     889   927U  4307U  4411   5169U
 @R15          0 00000000 FFFFFFEF     @     902   923U  7157   8016U  8929U 11057  11163U 11204U 12363
 @R2           0 00000000 FFFFFFFC     @     733   975U  3936U 11108
 @R3           0 00000000 FFFFFFFB     @     746   971U  4755U  5835U  6294U  6659U  7720U  7972U 10407U 10796U 10846U
                                                 10919U 12280U
 @R4           0 00000000 FFFFFFFA     @     759   967U  4812U  4974U  7689U  8290U  8323U  8542U  8634U  9221U  9660U
                                                  9869U 11328U 11437U 12275U
 @R5           0 00000000 FFFFFFF9     @     772   963U  8530U  9860U  9991U 10015U 10045U 10069U 10966U 10987  11026
 @R6           0 00000000 FFFFFFF8     @     785   959U 12268U
 @R7           0 00000000 FFFFFFF7     @     798   955U  3956U 12263U
 @R8           0 00000000 FFFFFFF6     @     811   951U 12258U
 @R9           0 00000000 FFFFFFF5     @     824   947U
 @SR           0 00000000 FFFFFFFC     @    1024  4062
 AHFB       4060 00000000 FFFFFFDB     J    3602  8326U
 AHFBCNT       1 00000151 FFFFFFDB A   U    3584  3595  11810
 AHFBL        12 00000010 FFFFFFDB     N    3591  3595   3802   8351   8352   8374   8395  11823
1VSSW     (VSSW07) (09:49) (22MAR04) Ordinary Symbol and Literal Cross Reference                                            Page  102
 AHFBLCNT      4 00000018 FFFFFFDB     A    3594  8342M  8342
 AIB          64 00000000 FFFFFFE8     J    2288  9663U  9713
 AIBTID        4 00000034 FFFFFFE8     A    2280  9739   9802
 AIBUSER       8 00000008 FFFFFFE8     C    2268  9774   9824   9845
 AMODE24       4 000002A8 00000001     I    4561  3969B  4815B  5931B  8296B 10079B 11209B 11356B 11465B
 AMODE31       4 0000029C 00000001     I    4552  4674B  4950B  7591B  9966B 11135B 11288B 11397B
 AREA          8 00000028 FFFFFFD9     D    3703  3710   3719   3725   3749   3809
 ASB          68 00000000 FFFFFFE9     J    2237  9672U
 ASBAIB        4 00000034 FFFFFFE9     A    2225  9699
 ASBGCFLG      1 00000014 FFFFFFE9     R    2207  2211
 ASBID         4 00000000 FFFFFFE9     C    2192  9688
 ATFB         80 00000000 FFFFFFDA     J    3658  8362U
 ATFBAGRI      4 0000001C FFFFFFDA     A    3648  8516
 ATFBFLAG      1 0000000D FFFFFFDA     R    3628  3632   3637
 ATFBFP        4 00000000 FFFFFFDA     A    3617  8394
 ATFBFRES    128 0000000D FFFFFFDA         3632  8490
 ATFBNAME     40 00000028 FFFFFFDA     C    3651  8440   8466   8570
 ATFBRGRI      4 00000020 FFFFFFDA     A    3649  8496
 A24GO         2 000002AE 00000001     I    4564  4561
 A31GO         2 000002A6 00000001     I    4556  4552
 BASE          1 00000050 00000001     U    3961  3959U
 BASE2         1 00001020 00000001     U    3868  3869   3877U
 BL            2 00000002 FFFFFFE4 A   N    2822  2824   2824
 BR            7 00000007 00000001 A   #    1082  3948M  3959U  4137B  4164B  4397B  5936B  7507B  9365B  9964B 10081B
                                                 11132B 11526B 11554B 11582B 11611B 11640B 11669B
 BRR           6 00000006 00000001 A   #    1069  3869M  3877U
 BTDU          1 00000000 00000007     T   11796 11796
 BTX           1 00000000 00000008     T   11797 11797
 CAB          80 00000000 FFFFFFE3     J    3109  3158   3159  10410U 10849U 11052U
 CABBUFP       4 00000038 FFFFFFE3     A    3096 10775  10898
 CABCLCK       4 0000004C FFFFFFE3     F    3102 10653  10664M 10664
 CABHDR       32 00000018 FFFFFFE3     X    3095 10467  10493  10519  10545  10571  10597  10623
 CABHKEY       8 00000018 FFFFFFE1     D    3198  3204   3204
 CABKEY        8 00000010 FFFFFFE3     D    3093 10739  10757
 CABLINK       4 00000004 FFFFFFE3     A    3088 11056
 CABNRDS       4 00000040 FFFFFFE3     F    3098  3100   3100  10699
 CABNWRS       4 00000044 FFFFFFE3     F    3099 10717
 CABQF         4 00000008 FFFFFFE3     A    3090 10414  10853
 CFSBFLSZ      1 00000028 FFFFFFE4 A   U    2815  3651
 CIT         208 00000000 FFFFFFE2     J    3170  6120U  6135  10126U
 CIT#RD        4 0000000C FFFFFFE2     F    3146  6234   6260  10258
 CIT#RDF       4 00000010 FFFFFFE2     F    3147  6249   6259  10273
 CIT#WR        4 00000014 FFFFFFE2     F    3148  6273  10288
 CITDCUR       4 0000001C FFFFFFE2     F    3153  6167  10324
 CITDLEN       4 00000018 FFFFFFE2     F    3152 10309
 CITDMAX       4 00000020 FFFFFFE2     F    3154 10339
 CITFDISABLED
             128 00000004 FFFFFFE2         3133  6186  10148  10148
 CITFLAG       1 00000004 FFFFFFE2     R    3129  3133   3138
 CITFREEQ     80 0000002C FFFFFFE2     X    3158 10816  10829
 CITFVERIFY
              64 00000004 FFFFFFE2         3138  6209  10190  10190
 CITH        840 00000000 FFFFFFE0     J    3279  6346U
 CITH#RD       4 00000020 FFFFFFE0     F    3253  6414   6440   6484
 CITH#RDF      4 00000024 FFFFFFE0     F    3254  6429   6439   6485   6503M  6503   6509
 CITH#RDS      4 00000028 FFFFFFE0     F    3255  6473   6483
 CITH#RDT      8 00000030 FFFFFFE0     D    3257  6510
 CITH#WR       4 0000002C FFFFFFE0     F    3256  6453   6582M  6582   6588
 CITH#WRT      8 00000038 FFFFFFE0     D    3258  6589
1VSSW     (VSSW07) (09:49) (22MAR04) Ordinary Symbol and Literal Cross Reference                                            Page  103
 CITHASHQ      4 000000D0 FFFFFFE2     A    3163 10959
 CITHBID       4 00000000 FFFFFFE0     C    3232  6361
 CITHCTL      48 00000040 FFFFFFE0     X    3260  3268
 CITHFLAG      1 00000012 FFFFFFE0     R    3239  3243
 CITHNBUF      4 00000018 FFFFFFE0     F    3248  6393
 CITLOCK       4 00000008 FFFFFFE2     F    3142 10240
 CITLRUQ      80 0000007C FFFFFFE2     X    3159 10380  10390
 CITNHASH      4 000000CC FFFFFFE2     F    3162 10357  10941  10958
 CLPSYST2      4 00000016 00000001     I    3851  3849
 CLW        1560 00000000 FFFFFFEC     J    1979  3835U 12323U
 CLWACCT       6 000003B0 FFFFFFEC     C    1965  1966   1967
 CLWFL         1 00000207 FFFFFFEC     R    1696  1700   1705   1710
 CLWFLG        1 00000208 FFFFFFEC     R    1716  1720   1725   1730   1735   1740   1745   1750
 CLWFOSC       8 00000208 FFFFFFEC         1740  3978M
 CLWKWCB       4 000002C4 FFFFFFEC     F    1941  1952   6693   7583  11250
 CLWKWKW       8 000002C8 FFFFFFEC     C    1943  4058   4059   4069
 CLWKWVAL      4 000002C4 FFFFFFEC     A    1942  9609   9625  11655
 CLWMFL        1 0000020A FFFFFFEC     R    1801  1805   1810   1815   1820   1825   1830   1835   1840
 CLWMONF       1 0000020B FFFFFFEC     R    1846  1850   1855   1860   1865
 CLWNTRAP      1 00000008 FFFFFFEC A   N    1923  1924
 CLWOBUF       2 00000118 FFFFFFEC     H    1690  1692
 CLWPFL        1 00000209 FFFFFFEC     R    1756  1760   1765   1770   1775   1780   1785   1790   1795
 CLWPFPRV      4 00000209 FFFFFFEC         1785  4023
 CLWR         10 0000000A 00000001 A   #    1121  3835U 12323U
 CLWSCP        4 00000000 FFFFFFEC     A    1679  3896
 CLWSFL        1 0000020C FFFFFFEC     R    1871  1875   1880
 CLWTEMP       8 000002E8 FFFFFFEC     D    1954  4197M  4225M  4306   4411M  4417   4428   4472   4519   4632   4819M
                                                  4820   4826   4853   4877   4901   4925   5957M  5977   5982   6002
                                                  6007M  6042   6060  12339  12353  12387
 CMDTABLE      2 000002B0 00000001     H    4570  3948B
 CTBITRCT      8 00000150 FFFFFFE4     D    3018  3028
 CTCACHCT      8 000001A0 FFFFFFE4     D    3047  3057
 CTCATRCT      8 00000148 FFFFFFE4     D    3017  3027
 CTFILAPM      4 00000138 FFFFFFE4     F    3005  8177
 CTFILATM      4 00000128 FFFFFFE4     F    3001  8101
 CTFILATP      4 00000134 FFFFFFE4     F    3004  8159
 CTFILATT      4 00000124 FFFFFFE4     F    3000  8083
 CTFILAUM      4 00000130 FFFFFFE4     F    3003  8139
 CTFILAUS      4 0000012C FFFFFFE4     F    3002  8121
 CTIXRRCT      8 00000158 FFFFFFE4     D    3019  3029
 CTMASRCT      8 00000140 FFFFFFE4     D    3016  3026
 CTOTHRCT      8 00000168 FFFFFFE4     D    3021  3031
 CTR          12 0000000C 00000001 A   #    1147  3947M
 CTREADCT      8 00000140 FFFFFFE4     D    3015  3026   3027   3028   3029   3030   3031   3055   3060   3060   3061
                                                  3061
 CTUSERCT      8 00000160 FFFFFFE4     D    3020  3030
 CTWRITCT      8 00000170 FFFFFFE4     D    3035  3056
 DISABLE       1 00000004 FFFFFFE6 A   U    2615  2616
 DOBLKNA       4 00000D40 00000001     I    7246  7238B
 DOBLKOK       4 00000D4C 00000001     I    7255  7229B  7237B
 DOBLKWR       4 00000E30 00000001     I    7495  7020B  7092B  7243B  7248B
 DOCIT         2 0000092C 00000001     H    6075  5902B  5908B  5914B  5920B
 DOCITH        2 000009EC 00000001     H    6301  5872B  5877B
 DOSVCA        2 00001644 00000001     H   10086 10020B 10076B
 ERROR         2 0000010E 00000001     H    4132  4006B  4011B  4035B  4077B  4082B  4087B  4092B  4115B  4367B 11676B
                                                 11683B 11690B 11703B 11710B 11717B 11724B 11731B 11738B 11745B
 ERRORMSG      2 0000010A 00000001     H    4124 11229B 11376B 11485B
 EVAL          1 00000000 00000005     T   11794 11794
 FILBFHCA    128 00000014 FFFFFFE5         2671  5857
1VSSW     (VSSW07) (09:49) (22MAR04) Ordinary Symbol and Literal Cross Reference                                            Page  104
 FILBFLAG      1 00000014 FFFFFFE5     R    2667  2671   2676
 FILECB      344 00000000 FFFFFFE5     J    2793  4985U  5001   7121U  7731U  8293U  8545U  9224U  9872U 10002U 10056U
                                                 11174U 11331U 11348U 11440U 11457U
 FILEFFSB      4 00000008 FFFFFFE5     A    2659  5106   7892
 FILEFSBC      4 0000000C FFFFFFE5     A    2660  7920
 FILE2KCH      4 00000018 FFFFFFE5     A    2680  5876   5907  10008  11178  11337
 FILE2KCS      4 0000001C FFFFFFE5     A    2681  5871   5901
 FILE4KCH      4 00000020 FFFFFFE5     A    2682  5919  10062  11194  11446
 FILE4KCS      4 00000024 FFFFFFE5     A    2683  5913
 FILTEMPF      4 00000034 FFFFFFE5     A    2689  5785
 FMTCLCK       1 00000000 0000000B     T   11801 11801
 FMTELAPS      1 00000000 0000000C     T   11802 11802
 FRTOMEG       4 000001B6 00000001     I    4333  4727B  4733B  4739B
 FSB         480 00000000 FFFFFFE4     J    3071  5132U  5806U  7692U
 FSBAFLGS      1 00000009 FFFFFFE4     R    2839  2843   2848   2853   2858   2863   2868
 FSBAHFB       4 0000003C FFFFFFE4     A    2925  7992
 FSBBALST      1 000000AC FFFFFFE4     X    2951  2970
 FSBCHAIN      4 00000004 FFFFFFE4     A    2833  5162   7956   7991
 FSBCTCRD      4 000000FC FFFFFFE4     F    2986  5140
 FSBFCACT      8 000001A0 FFFFFFE4     D    3046  3059   3059
 FSBFIOCT      8 00000140 FFFFFFE4     D    3014  3042   3042   3055   3056   3057
 FSBID         1 00000008 FFFFFFE4     X    2835  7949   7993   8015
 FSBNAME       8 00000018 FFFFFFE4     C    2915  5820   5827   8035   8042
 FSBOFLGS      1 0000000B FFFFFFE4     R    2894  2898   2903   2908
 FSBSFLGS      1 0000000A FFFFFFE4     R    2874  2878   2883   2888
 GRHASB        4 00000014 FFFFFFDC     A    3555  8864
 GRHBID        4 00000008 FFFFFFDC     C    3525  8681
 GRHFP         4 00000000 FFFFFFDC     A    3522  8649
 GRHITM       32 00000000 FFFFFFDC     J    3563  8637U
 GRHXBS        1 0000000C FFFFFFDC     R    3529  3533   3538   3543   3548
 GRHXEXCL     64 0000000C FFFFFFDC         3538  8761   8979   9107
 GRHXHOLD    128 0000000C FFFFFFDC         3533  8773   8964
 GRIBID        4 00000000 FFFFFFDD     C    3480  8661
 GRIHL        16 00000010 FFFFFFDD     X    3489  3803   8623   8624   8702   8716   8898
 GRIHLCNT      4 0000001C FFFFFFDD     A    3493  8798   8839
 GRITEM       32 00000000 FFFFFFDD     J    3501  8618U 10799U 10922U
 HIBAL         1 00000000 FFFFFFFF     J     692   708    721    734    747    760    773    786    799    812    825
                                                   838    851    864    877    890    903
 KWRIFSPR      1 00000020 FFFFFFD9 A   U    3689  3913
 MAT         256 00000000 FFFFFFEA     J    2180  4685U  4961U  7707U  9978U 10032U 11150U 11299U 11408U
 MATFILCB      4 00000028 FFFFFFEA     A    2141  4967   7713   9984  10038  11156  11305  11414
 MATNCLPE      4 000000F0 FFFFFFEA     F    2171  4794
 MATPAGCB      4 0000000C FFFFFFEA     A    2134  4690
 MATPTR        4 00000200 FFFFFFEA A   A    2127  4675   4951   7697   9968  10022  11140  11289  11398
 MISSING       4 000000EE 00000001     I    4090  3987B 11259B
 MSGEXIT       2 0000011E 00000001     H    4152  7930B  8301B  9480B  9595B 10113B
 MVCOS         1 00000000 00000006     T   11795 11795
 OL            2 00000002 FFFFFFE4 A   N    2823  2824   2824
 PAGASNF       1 000001AC FFFFFFE6     R    2516  2520
 PAGCB       692 00000000 FFFFFFE6     J    2641  4700U  4716
 PAGCEL       32 00000000 FFFFFFE7     J    2324  2488   2492
 PAGFIXCNT
               4 00000050 FFFFFFE6     A    2361  4725
 PAGFWAIT      1 000000C0 FFFFFFE6     R    2414  2418   2423   2428   2433   2438
 PAGMAXFR      4 000000CC FFFFFFE6     A    2448  4737
 PAGMINFR      4 000000C8 FFFFFFE6     A    2447  4731
 PAGPGCEL     32 0000013C FFFFFFE6     X    2488  2487
 PAGSTATS      8 000001F8 FFFFFFE6     D    2572  2612   2612
 PAGXPFLG      1 000001C2 FFFFFFE6     R    2535  2539   2545
1VSSW     (VSSW07) (09:49) (22MAR04) Ordinary Symbol and Literal Cross Reference                                            Page  105
 PRCT0         2 00000142 00000001     H    4196 11805
 PRCT4         2 0000014A 00000001     H    4200  5069B  5229B  5287B  5345B  5530B  6918B  7485B
 PRCT9         4 00000162 00000001     I    4227  4198B
 PRIVGOT       2 000000C0 00000001     H    4068  4063B
 PRIVLOOK      2 000000B2 00000001     H    4061  4066B
 PZERO       640 00000000 FFFFFFEE     J    1254  1264U 11760U
 PZTERMFL      1 0000021A FFFFFFEE     R    1231  1235   1240
 PZTZOFF       8 00000220 FFFFFFEE     D    1245  4619   4631
 QR            4 00000004 00000001 A   #    1043  7120M  7127   7142M  7143   7149M  7156   7173M  7193   7200
 RAR           9 00000009 00000001 A   #    1108  3667   3667   3667   3851   3969M  3982M  4002M  4005M  4010M  4026B
                                                  4034M  4050B  4076M  4081M  4086M  4091M  4111M  4114M  4130M  4135M
                                                  4136M  4136B  4158M  4162M  4163M  4163B  4167   4184M  4185M  4185B
                                                  4188M  4189B  4227   4229   4229   4229   4319M  4322M  4325M  4326B
                                                  4333   4335   4335   4335   4347M  4350M  4353M  4354B  4357   4359
                                                  4359   4359   4362M  4363M  4363B  4366M  4368B  4371   4386M  4390
                                                  4395M  4396M  4396B  4400M  4401B  4404   4409M  4410M  4410B  4446M
                                                  4449M  4450B  4453   4454   4454   4454   4492M  4493M  4493B  4496M
                                                  4497B  4500   4501   4501   4501   4539M  4540M  4540B  4543M  4544B
                                                  4556B  4564B  4585M  4586M  4586B  4609M  4648M  4650M  4657M  4669M
                                                  4671M  4674M  4724M  4727M  4730M  4733M  4736M  4739M  4742M  4744M
                                                  4760M  4782M  4785M  4787M  4800M  4803M  4805M  4815M  4818M  4823M
                                                  4846M  4848M  4851M  4869M  4871M  4875M  4893M  4895M  4899M  4917M
                                                  4919M  4923M  4941M  4943M  4945M  4950M  5009M  5011M  5030M  5032M
                                                  5036M  5040M  5041M  5041B  5044M  5069M  5072M  5076M  5077M  5077B
                                                  5080M  5084M  5085M  5085B  5088M  5090M  5094M  5200M  5201M  5201B
                                                  5204M  5229M  5232M  5236M  5237M  5237B  5240M  5244M  5245M  5245B
                                                  5248M  5250M  5254M  5258M  5259M  5259B  5262M  5287M  5290M  5294M
                                                  5295M  5295B  5298M  5302M  5303M  5303B  5306M  5308M  5312M  5316M
                                                  5317M  5317B  5320M  5345M  5348M  5352M  5353M  5353B  5356M  5360M
                                                  5361M  5361B  5364M  5366M  5369M  5437M  5438M  5438B  5441M  5530M
                                                  5533M  5537M  5538M  5538B  5541M  5608M  5609M  5609B  5612M  5614M
                                                  5616M  5626M  5641M  5644M  5659M  5661M  5664M  5679M  5682M  5697M
                                                  5699M  5702M  5717M  5720M  5735M  5737M  5740M  5755M  5758M  5773M
                                                  5775M  5793M  5796M  5828M  5838M  5844M  5865M  5867M  5870M  5875M
                                                  5895M  5897M  5900M  5906M  5912M  5918M  5931M  5934M  5940   5941
                                                  5941   5941   6068M  6071M  6072B  6092M  6094M  6143M  6145M  6173M
                                                  6176M  6195M  6218M  6224M  6228M  6240M  6243M  6255M  6258M  6263M
                                                  6264M  6264B  6267M  6279M  6282M  6284M  6318M  6320M  6369M  6371M
                                                  6399M  6402M  6404M  6408M  6420M  6423M  6435M  6438M  6443M  6444M
                                                  6444B  6447M  6459M  6462M  6464M  6467M  6479M  6482M  6488M  6489M
                                                  6489B  6492M  6568M  6571M  6647M  6649M  6719M  6721M  6725M  6728M
                                                  6730M  6734M  6737M  6739M  6816M  6818M  6849M  6864M  6867M  6882M
                                                  6885M  6889M  6890M  6890B  6893M  6918M  6921M  6923M  6953M  6965M
                                                  6969M  7001M  7019M  7028M  7040M  7044M  7056M  7060M  7072M  7076M
                                                  7088M  7091M  7136M  7139M  7194M  7197M  7215M  7242M  7247M  7264M
                                                  7338M  7356M  7375M  7378M  7398M  7416M  7435M  7438M  7485M  7488M
                                                  7495M  7591M  7597M  7600M  7619M  7634M  7658M  7670M  7677M  7679M
                                                  7768M  7771M  7773M  7776M  7791M  7794M  7809M  7811M  7814M  7829M
                                                  7832M  7847M  7849M  7852M  7867M  7870M  7885M  7887M  8002M  8005M
                                                  8022M  8025M  8043M  8074M  8077M  8092M  8095M  8110M  8112M  8115M
                                                  8130M  8133M  8148M  8150M  8153M  8168M  8171M  8186M  8188M  8194M
                                                  8224M  8296M  8309   8388M  8504M  8518M  8554M  8555B  8564   8710M
                                                  8833M  8848M  8866M  8906M  8918M  8938M  8941M  8954M  9002M  9020M
                                                  9042M  9064M  9082M  9115M  9133M  9140M  9166M  9181M  9187M  9233M
                                                  9234B  9237   9238   9238   9238   9241M  9253M  9256M  9258M  9261M
                                                  9262B  9292M  9295M  9297M  9300M  9303M  9306M  9307M  9307B  9310M
                                                  9312M  9315M  9318M  9320M  9323M  9326M  9327M  9327B  9330M  9332M
                                                  9335M  9337M  9340M  9342M  9345M  9347M  9350M  9353M  9354M  9354B
                                                  9357M  9360M  9363M  9364M  9364B  9443   9475M  9552M  9590M  9643
1VSSW     (VSSW07) (09:49) (22MAR04) Ordinary Symbol and Literal Cross Reference                                            Page  106
                                                  9796M  9811M  9814M  9832M  9835M  9853M  9915M  9949M  9951B  9961M
                                                  9963M  9966M 10019M 10072M 10075M 10079M 10089M 10091M 10093M 10130M
                                                 10142M 10144M 10146M 10163M 10182M 10188M 10205M 10224M 10230M 10234M
                                                 10249M 10251M 10264M 10267M 10279M 10282M 10294M 10297M 10299M 10303M
                                                 10315M 10317M 10330M 10333M 10345M 10348M 10350M 10363M 10366M 10368M
                                                 10370M 10374M 10386M 10388M 10435M 10450M 10649M 10689M 10692M 10708M
                                                 10711M 10726M 10729M 10733M 10748M 10751M 10766M 10769M 10784M 10786M
                                                 10806M 10810M 10825M 10827M 10874M 10889M 10892M 10907M 10909M 10929M
                                                 10931M 10935M 10947M 10950M 10952M 11002M 11018M 11021M 11097M 11100M
                                                 11102M 11123M 11129M 11131M 11135M 11209M 11288M 11356M 11397M 11465M
                                                 11675M 11682M 11689M 11695M 11702M 11709M 11716M 11723M 11730M 11737M
                                                 11744M 11752  11777M 11778M 11778B 11781M 11782B 11820  11820  11820
                                                 12394M 12395M 12395B 12403M 12404M 12404B
 RTRIM         1 00000000 0000000E     T   11808 11808
 R0            0 00000000 FFFFFFFF A   #     700  1264U  3986M  3986   4070M  4211M  4211   4217M  4224M  4250   4610M
                                                  4619M  4626M  4631M  4824M  4825M  4852M  4876M  4900M  4924M  5037M
                                                  5045M  5055M  5062M  5067M  5073M  5081M  5098M  5098   5149M  5156M
                                                  5161M  5184M  5191M  5196M  5197   5206M  5215M  5222M  5227M  5233M
                                                  5241M  5255M  5263M  5273M  5280M  5285M  5291M  5299M  5313M  5321M
                                                  5331M  5338M  5343M  5349M  5357M  5370M  5379M  5386M  5391M  5400M
                                                  5407M  5412M  5421M  5428M  5433M  5434   5442M  5451M  5458M  5463M
                                                  5472M  5479M  5484M  5493M  5500M  5505M  5506   5515M  5522M  5527M
                                                  5534M  5542M  5551M  5558M  5563M  5572M  5579M  5584M  5593M  5600M
                                                  5605M  5827M  5950M  5950   5956M  5957   6067M  6259M  6439M  6483M
                                                  6510M  6526M  6531M  6589M  6605M  6610M  6886M  6895M  6904M  6911M
                                                  6916M  6985M  7193M  7199M  7200M  7461M  7461   7471M  7478M  7483M
                                                  7633M  7929M  8042M  8300M  8312   8313   8313   8313   8551M  8567
                                                  8568   8568   8568   8570M  8607M  8608   8942M  9230M  9479M  9486M
                                                  9488   9573   9594M  9831M  9852M 10112M 10455M 10477M 10503M 10529M
                                                 10555M 10581M 10607M 10633M 11228M 11258M 11286M 11375M 11395M 11484M
                                                 11759M 11824  11824  11824  12352M 12370M
 R1            1 00000001 FFFFFFFF A   #     713  3947   4069M  4244M  4244   4259M  4259   4266M  4272   4273M  4283
                                                  4610M  4770M  4776   4830M  4830   4852M  4876M  4900M  4924M  5037M
                                                  5045M  5073M  5081M  5100M  5100   5197   5206M  5233M  5241M  5255M
                                                  5263M  5291M  5299M  5313M  5321M  5349M  5357M  5370M  5434   5442M
                                                  5506   5534M  5542M  5820M  5963   5982M  5988   6028   6060M  6260M
                                                  6440M  6484M  6485M  6510M  6532M  6552M  6552   6562   6589M  6611M
                                                  6631M  6631   6641   6886M  6895M  6978M  7188M  7210M  7462M  7629M
                                                  7928M  8035M  8299M  8466M  8569   8606   8608   8864M  8942M  9478M
                                                  9485M  9593M  9648   9824M  9845M 10111M 10454M 10476M 10502M 10528M
                                                 10554M 10580M 10606M 10632M 11026M 11037M 11037  11052U 11056M 11227M
                                                 11257M 11289M 11299U 11305M 11331U 11374M 11398M 11408U 11414M 11440U
                                                 11483M 11761M
 R11          11 0000000B FFFFFFFF A   #     843 12299  12301  12301  12301  12408M
 R14          14 0000000E FFFFFFFF A   #     882  4218M  4233M  4233   4271M  4272M  4283   4306M  4317   5046M  5055
                                                  5067   5106M  5117M  5117   5132U  5162M  5205M  5215   5227   5264M
                                                  5273   5285   5322M  5331   5343   5528M  6509M  6519M  6519   6525M
                                                  6531   6588M  6598M  6598   6604M  6610   6894M  6904   6916   7280M
                                                  7281M  7282   7283M  7284M  7285   7289M  7289   7299M  7306M  7311M
                                                  7312   7313M  7322M  7329M  7334M  7335   7457M  7471   7483
 R15          15 0000000F FFFFFFFF A   #     895  3886   3965M  3965   3967   3970M  4141M  4224   4235M  4235   4250M
                                                  4265M  4292M  4336M  4546M  4547B  4552M  4553M  4554B  4561M  4562B
                                                  4632M  4725M  4731M  4737M  4826M  4853M  4877M  4901M  4925M  5046M
                                                  5205M  5264M  5322M  5528M  6787   6894M  7156M  7290M  7312   7313M
                                                  7335   7457M  8228M  8229M  8230   8395M  8405   8414M  8423M  8423
                                                  8431M  8433   8716M  8726   9877M  9877   9919M  9919   9938M  9950M
                                                  9950  10652M 10653M 10671M 10987M 10988M 10988  11003M 11004M 11025M
                                                 11025  11057M 11068  11140M 11150U 11156M 11174U 11286  11395  12353M
                                                 12372M
1VSSW     (VSSW07) (09:49) (22MAR04) Ordinary Symbol and Literal Cross Reference                                            Page  107
 R2            2 00000002 FFFFFFFF A   #     726  4654   4663   5872M  5877M  5902M  5908M  5914M  5920M  6298B  6663B
                                                  8386M  8569M  8579M  8587   8606M  8607   8708M  8904M  9247   9446
                                                  9447   9447   9447   9488M  9491   9503M  9508   9512M  9521M  9521
                                                  9528   9549M  9646   9647   9647   9647   9946M 10390M 10391  10424
                                                 10829M 10830  10863  10957M 10957  10987  11003  11026  11108M 11178M
                                                 11187M 11187  11194M 11219M 11219  11234  11337M 11366M 11366  11381
                                                 11446M 11475M 11475  11490  11827  11827  11827  11829  11829  11829
                                                 12299  12301  12301  12301  12408M
 R3            3 00000003 FFFFFFFF A   #     739  4690M  4700U  4820M  4824   5785M  5786M  5786   5806U  5871M  5876M
                                                  5901M  5907M  5913M  5919M  6084M  6084   6120U  6310M  6310   6346U
                                                  7697M  7707U  7713M  7731U  8496M  8516M  8618U 10391M 10410U 10414M
                                                 10424  10441  10830M 10849U 10853M 10863  10880  10958M 10979M 10979
                                                 11110M
 R4            4 00000004 FFFFFFFF A   #     752  4675M  4685U  4951M  4961U  4967M  4985U  7692U  7892M  7956M  7985M
                                                  7985   8195M  8220M  8221M  8222M  8274M  8326U  8624M  8637U  8649M
                                                  8726   9446   9447   9447   9447   9549M  9663U  9699M  9700M  9700
                                                 10020M 10076M 11116B 11827  11827  11827
 R5            5 00000005 FFFFFFFF A   #     765  8312   8313   8313   8313   8352M  8362U  8394M  8405   8551M  8567
                                                  8568   8568   8568   9172   9230M  9646   9647   9647   9647   9648M
                                                  9672U  9946M  9968M  9978U  9984M 10002U 10008M 10022M 10032U 10038M
                                                 10056U 10062M 10103M 10103  10126U 10136  10959M 11824  11824  11824
                                                 11829  11829  11829
 SCAN          1 00000000 0000000D     T   11807 11807
 SCBCFL        1 00000261 FFFFFFED     R    1486  1490   1495   1500   1505   1510
 SCBFL         1 00000262 FFFFFFED     R    1516  1520   1525   1530   1535   1540
 SCBTFL        1 00000263 FFFFFFED     R    1546  1550   1555   1560   1565   1570
 SCBWFL        1 00000260 FFFFFFED     R    1476  1480
 SCBXA        64 00000265 FFFFFFED         1592  1626   1626   1628   1628   1630   1630
 SCBXFL        1 00000265 FFFFFFED     R    1583  1587   1592   1597   1602   1607   1612   1632
 SCBXP        16 00000265 FFFFFFED         1602  1629   1629   1630   1630   1631   1631
 SCBXT       128 00000265 FFFFFFED         1587  1626   1626   1627   1627   1629   1629
 SCBXW        32 00000265 FFFFFFED         1597  1627   1627   1628   1628   1631   1631
 SCP         660 00000000 FFFFFFED     J    1656  3904U
 SCPACCT       6 000001AA FFFFFFED     C    1365  1366   1367
 SCPCWASZ      1 00000010 FFFFFFED A   N    1454  1455
 SCPFL         1 00000200 FFFFFFED     R    1400  1404   1409   1414   1419   1424   1429   1434   1439
 SCPPAN        2 000001A8 FFFFFFED     H    1356  1357
 SCPPRIV       1 000001B7 FFFFFFED     X    1375  3913
 SCRET         2 00000070 00000001     I    3986  6698B  7588B
 SEG           4 0000012A 00000001     I    4167  4002B  4111B  4130B  4158B  4386B  4446B  4648B  4846B  4869B  4893B
                                                  4917B  4941B  5828B  6068B  7001B  7194B  7215B  7634B  8043B  8954B
                                                  9475B  9590B  9832B  9853B 10649B
 SEGDBL        4 000008C2 00000001     I    5940 11803
 SEGDC         4 00000252 00000001     I    4453  4319B  4347B  4669B  4782B  4800B  5641B  5659B  5679B  5697B  5717B
                                                  5735B  5755B  5773B  6173B  6240B  6255B  6279B  6399B  6420B  6435B
                                                  6459B  6479B  6568B  6647B  6864B  6882B  6965B  7040B  7056B  7072B
                                                  7088B  7264B  7375B  7435B  7670B  7791B  7809B  7829B  7847B  7867B
                                                  7885B  8022B  8092B  8110B  8130B  8148B  8168B  8186B  8848B  8938B
                                                  9253B  9811B 10264B 10279B 10294B 10315B 10330B 10345B 10363B 10689B
                                                 10708B 10726B 10947B 11018B 11097B
 SEGHX         4 00000274 00000001     I    4500  7136B  9181B 10142B 10249B 10386B 10450B 10748B 10766B 10784B 10825B
                                                 10889B 10907B
 SEGSECS       1 00000000 00000009     T   11798 11798
 SEGSYSN       4 000028DE 00000001     I   12299 12297
 SEGSYSN       1 00000000 0000000A     T   11800 11800
 SETVBBTF      2 00000E58 00000001     H    7522  7512
 SETVBDFF      2 00000E5E 00000001     H    7537  7514   7516
 SETVCACH      4 000019A8 00000001     I   11123  4573B
 SETVCNO       2 00001B08 00000001     H   11645 11278
1VSSW     (VSSW07) (09:49) (22MAR04) Ordinary Symbol and Literal Cross Reference                                            Page  108
 SETVCNOV      2 00001AF4 00000001     H   11616 11272
 SETVCOFF      2 00001ABC 00000001     H   11531 11266
 SETVCON       2 00001AAA 00000001     H   11503 11264
 SETVCPUR      2 00001ACE 00000001     H   11559 11268
 SETVCVER      2 00001AE0 00000001     H   11587 11270
 SETVC2K       2 00001A4A 00000001     H   11285 11274
 SETVC4K       2 00001A7A 00000001     H   11394 11276
 SHRET         2 0000005A 00000001     I    3967  4142B
 SHVBLOCK      2 00000B34 00000001     H    6670  4575B
 SHVBPRT       1 00000E3E 00000001     R    7512  6686
 SHVCACHE      2 000015F8 00000001     H    9958  4576B
 SHVEXIT       2 00000E3C 00000001     H    7506  6928B
 SHVFATFB      4 000010EA 00000001     I    8309  8224B
 SHVFATFX      2 0000116E 00000001     H    8548  8345B
 SHVFATF2      2 000010FA 00000001     H    8333  8389B
 SHVFATF4      2 0000110E 00000001     H    8369  8456B
 SHVFGRES      4 00001180 00000001     I    8564  8504B  8518B
 SHVFGRE2      6 000011AE 00000001     I    8623  8711B  8907B
 SHVFHELP      2 000013C2 00000001     H    9290  9282
 SHVFILES      2 00000E64 00000001     H    7558  4577B
 SHVFPRT       1 0000136C 00000001     R    9266  7576
 SHVFRTRY      4 0000133E 00000001     I    9237  8388B  8710B  8906B
 SHVINFO       4 000002C8 00000001     I    4585  4574B
 SHVKADDR      2 00001484 00000001     H    9429  9274
 SHVKCNTS      2 0000146C 00000001     H    9369  9270
 SHVKFID       2 00001514 00000001     H    9620  9278
 SHVKLIKE      4 0000148A 00000001     I    9443  9272
 SHVKLNO       6 0000150C 00000001     I    9609  9284
 SHVKNODI      2 0000147E 00000001     H    9414  9266
 SHVKRESV      2 00001478 00000001     H    9399  9268
 SHVKSHOR      2 00001472 00000001     H    9384  9280
 SHVKUSER      2 000014EC 00000001     H    9562  9276
 SR            2 00000002 00000001 A   #    1017  3667   3667   3667   3851   3896M  3904U  3967M  3970   3982M  4058M
                                                  4065M  6748M  6748   6784   6959   7498M
 SYSTEST       2 000000A4 00000001     H    4039 11123B
 TR            3 00000003 00000001 A   #    1030  3886M  4059M  4066M  4070   4572B  6787M  7011M  7011   7236B
 TTBITCCT      8 000000C0 FFFFFFE5     D    2742  5037   5046   5370
 TTBITRCT      8 00000060 FFFFFFE5     D    2712  2722   5045   5073   5442
 TTBITWCT      8 00000090 FFFFFFE5     D    2732  5081   5542
 TTCACHCT      8 000000B0 FFFFFFE5     D    2739  2751
 TTCATCCT      8 000000B8 FFFFFFE5     D    2741  5184   5196
 TTCATRCT      8 00000058 FFFFFFE5     D    2711  2721   5206   5233   5451   5463
 TTCATWCT      8 00000088 FFFFFFE5     D    2731  5241   5551   5563
 TTFILAPM      4 000000F4 FFFFFFE5     F    2760  5726   7876
 TTFILATM      4 000000E4 FFFFFFE5     F    2756  5650   7800
 TTFILATP      4 000000F0 FFFFFFE5     F    2759  5708   7858
 TTFILATT      4 000000E0 FFFFFFE5     F    2755  5632   7782
 TTFILAUM      4 000000EC FFFFFFE5     F    2758  5688   7838
 TTFILAUS      4 000000E8 FFFFFFE5     F    2757  5670   7820
 TTFILECT    144 00000050 FFFFFFE5     U    2746  2749   2750   2751
 TTFILTBK      4 000000F8 FFFFFFE5     F    2761  5746
 TTFILTBM      4 000000FC FFFFFFE5     F    2762  5764
 TTIXRCCT      8 000000C8 FFFFFFE5     D    2743  5255   5264   5400   5412
 TTIXRRCT      8 00000068 FFFFFFE5     D    2713  2723   5263   5291   5472   5484
 TTIXRWCT      8 00000098 FFFFFFE5     D    2733  5299   5572   5584
 TTMASRCT      8 00000050 FFFFFFE5     D    2710  2720
 TTOTHRCT      8 00000078 FFFFFFE5     D    2715  2725
 TTREADCT      8 00000050 FFFFFFE5     D    2709  2720   2721   2722   2723   2724   2725   2746   2746   2747   2747
                                                  2749
1VSSW     (VSSW07) (09:49) (22MAR04) Ordinary Symbol and Literal Cross Reference                                            Page  109
 TTUSECCT      8 000000D0 FFFFFFE5     D    2744  5313   5322   5421   5433
 TTUSERCT      8 00000070 FFFFFFE5     D    2714  2724   5321   5349   5493   5505
 TTUSEWCT      8 000000A0 FFFFFFE5     D    2734  5357   5593   5605
 TTWRITCT      8 00000080 FFFFFFE5     D    2729  2750
 TYPEIT        1 00000000 00000002     T   11789 11789
 UNREC         2 000000FA 00000001     H    4097  4071B  7518   9286  11280
 VCPRT         1 00001A08 00000001     R   11264 11243
 VSEG          1 00000000 00000004     T   11791 11791  12422
 VSSW          1 00000000 00000001     J     991   993   1025   1038   1051   1064   1077   1090   1103   1116   1129
                                                  1142   1155   1255   1657   1980   2110   2181   2238   2289   2325
                                                  2642   2794   3072   3110   3171   3212   3280   3336   3461   3502
                                                  3564   3603   3659   3825   8446   9541
 VSSW#SEG      2 00001BA0 00000001     H   11750  4005B  4010B  4034B  4076B  4081B  4086B  4091B  4114B  4322B  4350B
                                                  4609B  4657B  4724B  4730B  4736B  4742B  4760B  4785B  4803B  4823B
                                                  4851B  4875B  4899B  4923B  5009B  5030B  5036B  5044B  5072B  5080B
                                                  5088B  5094B  5204B  5232B  5240B  5248B  5254B  5262B  5290B  5298B
                                                  5306B  5312B  5320B  5348B  5356B  5364B  5369B  5441B  5533B  5541B
                                                  5612B  5626B  5644B  5664B  5682B  5702B  5720B  5740B  5758B  5796B
                                                  5865B  5870B  5875B  5895B  5900B  5906B  5912B  5918B  6092B  6143B
                                                  6176B  6195B  6218B  6228B  6243B  6258B  6267B  6282B  6318B  6369B
                                                  6402B  6408B  6423B  6438B  6447B  6462B  6467B  6482B  6492B  6571B
                                                  6719B  6725B  6728B  6734B  6737B  6816B  6849B  6867B  6885B  6893B
                                                  6921B  6953B  6969B  7019B  7028B  7044B  7060B  7076B  7091B  7139B
                                                  7197B  7242B  7247B  7338B  7356B  7378B  7398B  7416B  7438B  7488B
                                                  7600B  7619B  7658B  7677B  7771B  7776B  7794B  7814B  7832B  7852B
                                                  7870B  8005B  8025B  8077B  8095B  8115B  8133B  8153B  8171B  8833B
                                                  8918B  8941B  9002B  9020B  9042B  9064B  9082B  9115B  9133B  9140B
                                                  9166B  9241B  9256B  9295B  9300B  9303B  9310B  9315B  9318B  9323B
                                                  9330B  9335B  9340B  9345B  9350B  9357B  9360B  9796B  9814B  9835B
                                                  9915B  9961B 10019B 10075B 10089B 10130B 10163B 10182B 10205B 10224B
                                                 10234B 10267B 10282B 10297B 10303B 10333B 10348B 10366B 10374B 10435B
                                                 10692B 10711B 10729B 10733B 10751B 10769B 10810B 10874B 10892B 10935B
                                                 10950B 11002B 11021B 11100B 11129B 11675B 11682B 11689B 11695B 11702B
                                                 11709B 11716B 11723B 11730B 11737B 11744B
 VSSWMORG      1 00001D96 00000001     U   11850  4004   4009   4033   4075   4080   4085   4090   4113   4321   4349
                                                  4608   4656   4723   4729   4735   4741   4759   4784   4802   4822
                                                  4850   4874   4898   4922   5008   5029   5035   5043   5071   5079
                                                  5087   5093   5203   5231   5239   5247   5253   5261   5289   5297
                                                  5305   5311   5319   5347   5355   5363   5368   5440   5532   5540
                                                  5611   5625   5643   5663   5681   5701   5719   5739   5757   5795
                                                  5864   5869   5874   5894   5899   5905   5911   5917   6091   6142
                                                  6175   6194   6217   6227   6242   6257   6266   6281   6317   6368
                                                  6401   6407   6422   6437   6446   6461   6466   6481   6491   6570
                                                  6718   6724   6727   6733   6736   6815   6848   6866   6884   6892
                                                  6920   6952   6968   7018   7027   7043   7059   7075   7090   7138
                                                  7196   7241   7246   7337   7355   7377   7397   7415   7437   7487
                                                  7599   7618   7657   7676   7770   7775   7793   7813   7831   7851
                                                  7869   8004   8024   8076   8094   8114   8132   8152   8170   8832
                                                  8917   8940   9001   9019   9041   9063   9081   9114   9132   9139
                                                  9165   9240   9255   9294   9299   9302   9309   9314   9317   9322
                                                  9329   9334   9339   9344   9349   9356   9359   9795   9813   9834
                                                  9914   9960  10018  10074  10088  10129  10162  10181  10204  10223
                                                 10233  10266  10281  10296  10302  10332  10347  10365  10373  10434
                                                 10691  10710  10728  10732  10750  10768  10809  10873  10891  10934
                                                 10949  11001  11020  11099  11128  11674  11681  11688  11694  11701
                                                 11708  11715  11722  11729  11736  11743  11759  11761
 VSSW07        1 00000000 00000001     R    1000   998
 VWRITE        1 00000000 00000003     T   11790 11790
 WA            1 00000000 FFFFFFD9     J    3665  3813   3844U
1VSSW     (VSSW07) (09:49) (22MAR04) Ordinary Symbol and Literal Cross Reference                                            Page  110
 WACACHE       4 00000028 FFFFFFD9     A    3810 11234M 11381M 11490M 11508  11536  11564  11592  11621  11650
 WACPUT        4 00000030 FFFFFFD9     A    3705  4876
 WADSPT        4 00000038 FFFFFFD9     A    3706  4900
 WAFL          1 00000020 FFFFFFD9     R    3671  3675   3680   3885M  3885
 WAFLSYS     128 00000020 FFFFFFD9         3675  3925M  4047
 WAIOT         4 00000040 FFFFFFD9     A    3707  4924
 WAORVCPU      4 00000048 FFFFFFD9     A    3708  4852
 WAORVST       4 00000028 FFFFFFD9     A    3704  4601   4610   4825
 WAR           8 00000008 00000001 A   #    1095  3844U  4227   4229   4229   4229   4325M  4333   4335   4335   4335
                                                  4353M  4357   4359   4359   4359   4366M
 WASIZE        1 00000090 FFFFFFD9 A   U    3813  3853
 WAUNEXT       4 00000028 FFFFFFD9     A    3711  3717   3717
 WAVBAVA       4 00000068 FFFFFFD9     F    3728  6855   7281   7282M
 WAVBCAC       8 00000078 FFFFFFD9     D    3731  6894   7322   7334   7335M
 WAVBFBTF    128 00000080 FFFFFFD9         3738  6711   6808   6945   7526M
 WAVBFDFF     64 00000080 FFFFFFD9         3743  6841   7109   7226   7274   7541M
 WAVBFL1       1 00000080 FFFFFFD9     R    3734  3738   3743
 WAVBFSID      1 00000081 FFFFFFD9     X    3746  7120   7143M
 WAVBSTRT      1 00000028 FFFFFFD9     U    3726  3747   3747
 WAVBTEMP     64 00000028 FFFFFFD9     X    3727  6772   6978   7034   7050   7066   7082   7156   7188   7255   7280
                                                  7283   7290   7313   7366   7390   7426   7451   7457   7462
 WAVBTIO       8 00000070 FFFFFFD9     D    3730  6886   6895   7299   7311   7312M
 WAVBTOT       4 0000006C FFFFFFD9     F    3729  6873   7284   7285M
 WAVBWA       90 00000028 FFFFFFD9     X    3747  6677M  6677
 WAVFADDR     64 00000029 FFFFFFD9         3786  9158   9433M
 WAVFAHFB      4 00000060 FFFFFFD9     A    3800  7992M  8222
 WAVFAHFN      4 00000064 FFFFFFD9     F    3801  8000M  8000   8220   8229   8230M  8247
 WAVFAHSV     12 00000068 FFFFFFD9     C    3802  8351M  8374
 WAVFCNTS     32 00000028 FFFFFFD9         3767  7759   8067   9373M
 WAVFDFID      1 0000008F FFFFFFD9     X    3806  7993M  8928
 WAVFFID      16 00000028 FFFFFFD9         3772  7902   8265   9624M
 WAVFGRSV     16 00000074 FFFFFFD9     C    3803  8623M  8702   8898
 WAVFIFID      4 00000058 FFFFFFD9     F    3797  7920   7949   9625M
 WAVFLIKE     40 0000002C FFFFFFD9     C    3795  7629   8440   9535M 11816
 WAVFLLEN      2 0000002A FFFFFFD9     H    3794  7611M  7611   7633   8414   9508M
 WAVFLNO       4 00000054 FFFFFFD9     F    3796  7649M  7649   7664   9609M  9733M  9733   9739   9894M  9894
 WAVFL1        1 00000028 FFFFFFD9     R    3753  3757   3762   3767   3772
 WAVFL2        1 00000029 FFFFFFD9     R    3777  3781   3786   3791
 WAVFNAME      4 00000084 FFFFFFD9     A    3804  8608M  8942
 WAVFNFSB      4 0000005C FFFFFFD9     A    3799  7991M  8195   8274
 WAVFNODI     64 00000028 FFFFFFD9         3762  7747   8055   8205   9418M
 WAVFRES     128 00000029 FFFFFFD9         3781  8502M  8511M  8994   9074
 WAVFRESV    128 00000028 FFFFFFD9         3757  8744   9403M
 WAVFSHOR     32 00000029 FFFFFFD9         3791  8825   9197   9388M
 WAVFSTRT      1 00000028 FFFFFFD9     U    3750  3807   3807
 WAVFUSER      3 0000008C FFFFFFD9     C    3805  9600M  9768M  9768   9774   9907M  9907
 WAVFWA      104 00000028 FFFFFFD9     X    3807  7565M  7565
 WAVICACH      8 00000030 FFFFFFD9     D    3722  5105M  5105   5140M  5149   5161   5197M  5205   5379   5391   5434M
                                                  5515   5527   5528
 WAVIDISK      8 00000028 FFFFFFD9     D    3721  5506M  5534
 WAVISTRT      1 00000028 FFFFFFD9     U    3720  3723   3723
 WRITE         4 00000206 00000001     I    4390  4650B  4671B  4744B  4787B  4805B  4818B  4848B  4871B  4895B  4919B
                                                  4943B  4945B  5011B  5032B  5090B  5250B  5308B  5366B  5614B  5616B
                                                  5661B  5699B  5737B  5775B  5793B  5838B  5844B  5867B  5897B  5934B
                                                  6094B  6145B  6224B  6284B  6320B  6371B  6404B  6464B  6649B  6721B
                                                  6730B  6739B  6818B  6923B  7495B  7597B  7679B  7768B  7773B  7811B
                                                  7849B  7887B  8002B  8074B  8112B  8150B  8188B  8194B  9187B  9258B
                                                  9292B  9297B  9312B  9320B  9332B  9337B  9342B  9347B  9963B 10072B
                                                 10091B 10093B 10144B 10146B 10188B 10230B 10251B 10299B 10317B 10350B
1VSSW     (VSSW07) (09:49) (22MAR04) Ordinary Symbol and Literal Cross Reference                                            Page  111
                                                 10368B 10370B 10388B 10786B 10806B 10827B 10909B 10929B 10931B 10952B
                                                 11102B 11131B 11814
 WRITEXIT      4 00000122 00000001     I    4162 11696B
 WRIT1         4 0000020E 00000001     I    4395  4387B
 WRUERR        2 000015BE 00000001     H    9881  9649B  9691B  9701B  9716B  9748B  9783B
 WRUEXIT       4 000015E4 00000001     I    9945  9878B
 WRUINFO       4 00001520 00000001     I    9643  8866B
 =A(AHFBCNT)
               4 00001C5C 00000001     A   11810  8247
 =A(L'WAVFLIKE)
               4 00001C74 00000001     A   11816  9491   9503
 =A(PRCT0)
               4 00001C48 00000001     A   11805  6263   6443   6488
 =A(SEGDBL)
               4 00001C40 00000001     A   11803  5040   5076   5084   5200   5236   5244   5258   5294   5302   5316
                                                  5352   5360   5437   5537   5608   6889
 =A(WRITE)
               4 00001C6C 00000001     A   11814  9306   9326   9353   9363
 =A(X'80000000')
               4 00001C30 00000001     A   11799  4553
 =A(1)         4 00001C18 00000001     A   11793  4292   4626   5062   5156   5191   5222   5280   5338   5386   5407
                                                  5428   5458   5479   5500   5522   5558   5579   5600   6911   7142
                                                  7306   7329   7478   7498   8579
 =A(100)       4 00001C14 00000001     A   11792  4271
 =A(1000000000)
               4 00001C44 00000001     A   11804  5956
 =C'  ???'
               5 00001D3D 00000001     C   11837 10454
 =C'  CAT'
               5 00001D47 00000001     C   11839 10502
 =C'  IXR'
               5 00001D51 00000001     C   11841 10554
 =C' BITM'
               5 00001D4C 00000001     C   11840 10528
 =C' File caching not defined.'
              26 00001CFE 00000001     C   11830 10111
 =C' MIXR'
               5 00001D5B 00000001     C   11843 10606
 =C' MSTR'
               5 00001D42 00000001     C   11838 10476
 =C' SIXR'
               5 00001D56 00000001     C   11842 10580
 =C' USER'
               5 00001D60 00000001     C   11844 10632
 =C': '        2 0000293C 00000001     C   12423 12399
 =C': expecting a user ID (e.g., PJG).'
              34 00001CDA 00000001     C   11828  9593
 =C': expecting full filename (e.g., ORV.GG.UUU.FILE).'
              50 00001CA4 00000001     C   11825  9478
 =C'AIB'       3 00001D3A 00000001     C   11836  9713
 =C'ASB'       3 00001D37 00000001     C   11835  9688
 =C'CIT'       3 00001D1F 00000001     C   11833  6135
 =C'CITH'      4 00001C4C 00000001     C   11806  6361
 =C'End of VFILES Display'
              21 00001D22 00000001     C   11834  8299
 =C'FILECB'
               6 00001C84 00000001     C   11821  5001
 =C'Invalid file system id'
              22 00001C8A 00000001     C   11822  7928
1VSSW     (VSSW07) (09:49) (22MAR04) Ordinary Symbol and Literal Cross Reference                                            Page  112
 =C'Missing option.'
              15 00001D7A 00000001     C   11846 11257
 =C'No File Cache defined'
              21 00001D65 00000001     C   11845 11227
 =C'No 2K File Cache defined'
              24 00001BD8 00000001     C   11787 11374
 =C'No 4K File Cache defined'
              24 00001BF0 00000001     C   11788 11483
 =C'ORV.'      4 00001C70 00000001     C   11815  9458
 =C'PAGCB'
               5 00001D1A 00000001     C   11832  4716
 =C'00000000'
               8 00001BC8 00000001     C   11785  6007
 =CL4'GRES'
               4 00001C60 00000001     C   11811  8661
 =CL4'GRH'
               4 00001C64 00000001     C   11812  8681
 =CL8' '       8 00001BD0 00000001     C   11786  7210
 =F'0'         4 00001C58 00000001     F   11809  7390   7451
 =F'1'         4 00001C68 00000001     F   11813  8798
 =F'3'         4 00001C78 00000001     F   11817  9573
 =F'9999'      4 00001C7C 00000001     F   11818 11068
 =H'-1'        2 00001D18 00000001     H   11831 10671
 =H'4'         2 00001CD6 00000001     H   11826  9486
 =V(BTDU)      4 00001C24 00000001     V   11796  4431   4475   5980   6005   6045
 =V(BTX)       4 00001C28 00000001     V   11797  4522
 =V(EVAL)      4 00001C1C 00000001     V   11794  4362
 =V(FMTCLCK)
               4 00001C38 00000001     V   11801  4635
 =V(FMTELAPS)
               4 00001C3C 00000001     V   11802  4833   4856   4880   4904   4928
 =V(MVCOS)
               4 00001C20 00000001     V   11795  4409
 =V(RTRIM)
               4 00001C54 00000001     V   11808  6988
 =V(SCAN)      4 00001C50 00000001     V   11807  6696   7586  11253
 =V(SEGSECS)
               4 00001C2C 00000001     V   11798  4546
 =V(SEGSYSN)
               4 00001C34 00000001     V   11800  4585
 =V(TYPEIT)
               4 00001C08 00000001     V   11789  4135
 =V(VSEG)      4 00001C10 00000001     V   11791  4184   4492   4539  11777
 =V(VSEG)      4 00002938 00000001     V   12422 12394  12403
 =V(VWRITE)
               4 00001C0C 00000001     V   11790  4162   4395
 =Y((R4+1-(R2)+16*((R2)/(R4+1))/((R2)/(R4+1)))*4)
               2 00001CD8 00000001     Y   11827  9548
 =Y((R5+1-(R0)+16*((R0)/(R5+1))/((R0)/(R5+1)))*4)
               2 00001CA2 00000001     Y   11824  8550   9229
 =Y((R5+1-(R2)+16*((R2)/(R5+1))/((R2)/(R5+1)))*4)
               2 00001CFC 00000001     Y   11829  9945
 =Y((14+1-(RAR)+16*((RAR)/(14+1))/((RAR)/(14+1)))*4)
               2 00001C82 00000001     Y   11820  4495   4542   6070   9260
 =Y(L'AHFBL)
               2 00001CA0 00000001     Y   11823  8221
 =Y(4)         2 00001C80 00000001     Y   11819  4187   4399   4448   8553   9232   9551   9948  11780

1VSSW     (VSSW07) (09:49) (22MAR04) Macro and Copy Code Source Summary                                                     Page  113
- Con Source                                        Volume    Members                        HLASM R4.0  2004/03/22 09.49
0     PRIMARY INPUT                                           BTD      BTX      CSECT    DROP     END      EVAL     EX
                                                              LTORG    POP      PRINT    PRVBLOCK PUSH     Q_PSH
                                                              Q_QUE    Q_REM    QHEAD    SAVAIL   SEGDC    SEGHX
                                                              SHEAD    SPOP     SPUSH    START    SYSONLY  USING
   L2 WYL.GG.SYS.MACLIB                             SYSB05    $BC      $BFLKUP  $BV      $CCLKUP  $CRS     $CSS     $L
                                                              $LA      $LBLAD   $LEXP    $LOR     $REL     $RGLKUP
                                                              $USLKUP  ACALL    ADL      ADLR     BASE     BEGIN    CEIL
                                                              CLEAR    CSECT    DATA     DECR     DEFCC    DEX      DIAG
                                                              DROP     DTEX     ELSE     ELSEIF   END      EX       EXIT
                                                              FLAG     GEN      HIBAL    IDENT    IF       INCR
                                                              LABEL    LC       LCALL    LOOP     LS       LT
                                                              LTORG    MOVE     NEXT     POP      PRINT    PUSH
                                                              RECORD   REG      REGS     SET      SETMSG   START
                                                              SYSLR    SYSQS    UNTIL    USING    VCALL    WHILE    WITH
   L3 WYL.GG.ORV.BC.MACLIB                          SYSB02    CLPSERV  CLW      GENMSGS  MVCOS    ORVDEFN  SCAN
                                                              SCANCB   SCKW     SCRTN    SEG      VENTER   VEXIT    VPOP
                                                              VPUSH    VREST    VSA      VSAVE    VSEG     VSSWTAB
                                                              VWRITE   XCALL
   L4 WYL.GG.ORV.MACLIB                             SYSB02    AIB      ASB      ATFB     CACHCB   CACHCBH  FILECB   FSB
                                                              GRCOPY   KWREC    LHEAD    MAT      PAGCB    PZERO
                                                              QLISTMAC SCP      SLISTMAC SYSCTL
   L5 SYS3.ORVYL.UMACLIB                            SYSB02    CALLSYS  SENSE
   L6 SYS3.IS.MACLIB                                SYSB05    SYSDEFN

1         (VSSW07) (09:49) (22MAR04) General Purpose Register Cross Reference                                               Page  114
- Register  References (M=modified, B=branch, U=USING, D=DROP, N=index)                      HLASM R4.0  2004/03/22 09.49
0    0(0)      983U   984D  1264U  3894M  3945M  3986M  3986   4070M  4211M  4211   4217M  4224M  4250   4317M  4345M
              4345   4421M  4421   4605M  4605   4610M  4626M  4631M  4667M  4667   4768M  4780M  4780   4798M  4798
              4824M  4825M  4852M  4876M  4900M  4924M  5037M  5045M  5062M  5067M  5073M  5081M  5098M  5098   5156M
              5161M  5191M  5196M  5197   5206M  5222M  5227M  5233M  5241M  5255M  5263M  5280M  5285M  5291M  5299M
              5313M  5321M  5338M  5343M  5349M  5357M  5370M  5386M  5391M  5407M  5412M  5428M  5433M  5434   5442M
              5458M  5463M  5479M  5484M  5500M  5505M  5506   5522M  5527M  5534M  5542M  5558M  5563M  5579M  5584M
              5600M  5605M  5639M  5657M  5677M  5695M  5715M  5733M  5753M  5771M  5827M  5950M  5950   5956M  5957
              5970M  5995M  6035M  6067M  6171M  6171   6238M  6238   6253M  6253   6259M  6277M  6277   6397M  6397
              6418M  6418   6433M  6433   6439M  6457M  6457   6477M  6477   6483M  6510M  6526M  6531M  6566M  6566
              6589M  6605M  6610M  6645M  6645   6765M  6862M  6880M  6886M  6895M  6911M  6916M  6963M  6963   6985M
              7038M  7038   7054M  7054   7070M  7070   7086M  7086   7134M  7193M  7199M  7200M  7262M  7373M  7433M
              7461M  7461   7478M  7483M  7633M  7668M  7668   7789M  7807M  7827M  7845M  7865M  7883M  7929M  8020M
              8020   8042M  8090M  8108M  8128M  8146M  8166M  8184M  8300M  8312   8551M  8567   8570M  8601M  8607M
              8608   8846M  8936M  8942M  9179M  9230M  9251M  9251   9479M  9486M  9488   9573   9594M  9809M  9831M
              9852M 10112M 10140M 10140  10247M 10262M 10262  10277M 10277  10292M 10292  10313M 10313  10328M 10328
             10343M 10343  10361M 10361  10384M 10384  10448M 10455M 10477M 10503M 10529M 10555M 10581M 10607M 10633M
             10687M 10706M 10724M 10746M 10764M 10782M 10823M 10887M 10905M 10945M 10945  11016M 11095M 11095  11228M
             11258M 11286M 11375M 11388  11395M 11484M 11497  11524M 11552M 11580M 11609M 11638M 11667M 11756D 11758M
             11758  11759M 11760U 12289U 12290D 12332M 12352M 12370M 12400M
     1(1)      979U  3947   4004M  4009M  4033M  4069M  4075M  4080M  4085M  4090M  4113M  4217M  4244M  4244   4259M
              4259   4266M  4272   4273M  4283   4321M  4349M  4428M  4472M  4519M  4601M  4608M  4610M  4619M  4656M
              4723M  4729M  4735M  4741M  4759M  4770M  4776   4784M  4802M  4822M  4830M  4830   4850M  4852M  4874M
              4876M  4898M  4900M  4922M  4924M  5008M  5029M  5035M  5037M  5043M  5045M  5055M  5071M  5073M  5079M
              5081M  5087M  5093M  5100M  5100   5149M  5184M  5197   5203M  5206M  5215M  5231M  5233M  5239M  5241M
              5247M  5253M  5255M  5261M  5263M  5273M  5289M  5291M  5297M  5299M  5305M  5311M  5313M  5319M  5321M
              5331M  5347M  5349M  5355M  5357M  5363M  5368M  5370M  5379M  5400M  5421M  5434   5440M  5442M  5451M
              5472M  5493M  5506   5515M  5532M  5534M  5540M  5542M  5551M  5572M  5593M  5611M  5625M  5643M  5663M
              5681M  5701M  5719M  5739M  5757M  5795M  5820M  5864M  5869M  5874M  5894M  5899M  5905M  5911M  5917M
              5956M  5963   5977M  5982M  5988   6002M  6028   6042M  6060M  6091M  6142M  6175M  6194M  6217M  6227M
              6242M  6257M  6260M  6266M  6281M  6317M  6368M  6401M  6407M  6422M  6437M  6440M  6446M  6461M  6466M
              6481M  6484M  6485M  6491M  6510M  6526M  6531M  6532M  6552M  6552   6562   6570M  6589M  6605M  6610M
              6611M  6631M  6631   6641   6686M  6718M  6724M  6727M  6733M  6736M  6772M  6815M  6848M  6866M  6884M
              6886M  6892M  6895M  6904M  6920M  6952M  6968M  6978M  7018M  7027M  7043M  7059M  7075M  7090M  7138M
              7188M  7196M  7210M  7241M  7246M  7337M  7355M  7377M  7397M  7415M  7437M  7462M  7471M  7487M  7576M
              7599M  7618M  7629M  7657M  7676M  7770M  7775M  7793M  7813M  7831M  7851M  7869M  7928M  8004M  8024M
              8035M  8076M  8094M  8114M  8132M  8152M  8170M  8299M  8312   8466M  8551M  8567   8569   8606   8608
              8832M  8864M  8917M  8940M  8942M  9001M  9019M  9041M  9063M  9081M  9114M  9132M  9139M  9165M  9230M
              9240M  9255M  9294M  9299M  9302M  9309M  9314M  9317M  9322M  9329M  9334M  9339M  9344M  9349M  9356M
              9359M  9478M  9485M  9593M  9648   9795M  9813M  9824M  9834M  9845M  9914M  9960M 10018M 10074M 10088M
             10111M 10129M 10162M 10181M 10204M 10223M 10233M 10266M 10281M 10296M 10302M 10332M 10347M 10365M 10373M
             10434M 10454M 10476M 10502M 10528M 10554M 10580M 10606M 10632M 10691M 10710M 10728M 10732M 10750M 10768M
             10809M 10873M 10891M 10934M 10949M 11001M 11020M 11026M 11037M 11037  11052U 11056M 11082U 11099M 11128M
             11227M 11243M 11257M 11289M 11299U 11305M 11312U 11331U 11353U 11374M 11398M 11408U 11414M 11421U 11440U
             11462U 11483M 11517M 11545M 11573M 11602M 11631M 11660M 11674M 11681M 11688M 11694M 11701M 11708M 11715M
             11722M 11729M 11736M 11743M 11759N 11761M 11761N 12339M 12387M 12399M
     2(2)      975U  3851   3896M  3967M  3970   3982M  4058M  4065M  4663   5872M  5877M  5902M  5908M  5914M  5920M
              6298B  6663B  6748M  6748   6784   6959   7498M  8312   8386M  8551M  8567   8569M  8579M  8587   8606M
              8607   8708M  8904M  9230M  9247   9446   9488M  9491   9503M  9508   9512M  9521M  9521   9528   9549M
              9646   9946M 10390M 10391  10424  10829M 10830  10863  10957M 10957  10987N 11003  11026N 11108M 11178M
             11187M 11187  11194M 11219M 11219  11234  11337M 11366M 11366  11381  11446M 11475M 11475  11490  12299
             12408M
     3(3)      971U  3851   3886M  3982M  4059M  4066M  4070   4572N  4690M  4700U  4755U  4820M  4824   5785M  5786M
              5786   5806U  5835U  5871M  5876M  5901M  5907M  5913M  5919M  6084M  6084   6120U  6294U  6310M  6310
              6346U  6659U  6787M  7011M  7011   7236N  7697M  7707U  7713M  7720U  7731U  7972U  8312   8496M  8516M
              8551M  8567   8618U  9230M  9446   9549M  9646   9946M 10391M 10407U 10410U 10414M 10424  10441  10796U
1         (VSSW07) (09:49) (22MAR04) General Purpose Register Cross Reference                                               Page  115
             10799U 10830M 10846U 10849U 10853M 10863  10880  10919U 10922U 10958M 10979M 10979  11110M 12280U 12299
             12408M
     4(4)      967U  3851   3982M  4675M  4685U  4812U  4951M  4961U  4967M  4974U  4985U  7117D  7119M  7119   7120M
              7121U  7127   7142M  7143   7149M  7156N  7173M  7193   7200   7689U  7692U  7892M  7956M  7985M  7985
              8195M  8220M  8221M  8222M  8274M  8290U  8293U  8312   8323U  8326U  8542U  8545U  8551M  8567   8624M
              8634U  8637U  8649M  8726   9221U  9224U  9230M  9446   9549M  9646   9660U  9663U  9699M  9700M  9700
              9869U  9872U  9946M 10020M 10076M 11116B 11328U 11348U 11437U 11457U 12275U 12299  12408M
     5(5)      963U  3851   3982M  8312   8352M  8362U  8394M  8405   8530U  8551M  8567   9172   9230M  9646   9648M
              9672U  9860U  9946M  9968M  9978U  9984M  9991U 10002U 10008M 10015U 10022M 10032U 10038M 10045U 10056U
             10062M 10069U 10103M 10103  10126U 10136  10959M 10966U 12299  12408M
     6(6)      959U  3851   3869M  3877U  3982M 12268U 12299  12408M
     7(7)      955U  3851   3856M  3866U  3948M  3956U  3959U  3982M  4137B  4164B  4397B  5936B  7507B  9365B  9964B
             10081B 11132B 11526B 11554B 11582B 11611B 11640B 11669B 12263U 12299  12304M 12314U 12408M
     8(8)      951U  3844U  3851   3852M  3981   3982M  4227   4228M  4324   4325M  4333   4334M  4352   4353M  4357
              4358M  4365   4366M 12258U 12299  12300M 12407  12408M
     9(9)      947U  3851   3969M  3982M  3984B  4002M  4005M  4010M  4026B  4034M  4050B  4076M  4081M  4086M  4091M
              4111M  4114M  4130M  4135M  4136M  4136B  4158M  4162M  4163M  4163B  4167   4184M  4185M  4185B  4188M
              4189B  4227   4319M  4322M  4325M  4326B  4333   4347M  4350M  4353M  4354B  4357   4362M  4363M  4363B
              4366M  4368B  4371   4386M  4390   4395M  4396M  4396B  4400M  4401B  4404   4409M  4410M  4410B  4446M
              4449M  4450B  4453   4492M  4493M  4493B  4496M  4497B  4500   4539M  4540M  4540B  4543M  4544B  4556B
              4564B  4585M  4586M  4586B  4609M  4648M  4650M  4657M  4669M  4671M  4674M  4724M  4727M  4730M  4733M
              4736M  4739M  4742M  4744M  4760M  4782M  4785M  4787M  4800M  4803M  4805M  4815M  4818M  4823M  4846M
              4848M  4851M  4869M  4871M  4875M  4893M  4895M  4899M  4917M  4919M  4923M  4941M  4943M  4945M  4950M
              5009M  5011M  5030M  5032M  5036M  5040M  5041M  5041B  5044M  5069M  5072M  5076M  5077M  5077B  5080M
              5084M  5085M  5085B  5088M  5090M  5094M  5200M  5201M  5201B  5204M  5229M  5232M  5236M  5237M  5237B
              5240M  5244M  5245M  5245B  5248M  5250M  5254M  5258M  5259M  5259B  5262M  5287M  5290M  5294M  5295M
              5295B  5298M  5302M  5303M  5303B  5306M  5308M  5312M  5316M  5317M  5317B  5320M  5345M  5348M  5352M
              5353M  5353B  5356M  5360M  5361M  5361B  5364M  5366M  5369M  5437M  5438M  5438B  5441M  5530M  5533M
              5537M  5538M  5538B  5541M  5608M  5609M  5609B  5612M  5614M  5616M  5626M  5641M  5644M  5659M  5661M
              5664M  5679M  5682M  5697M  5699M  5702M  5717M  5720M  5735M  5737M  5740M  5755M  5758M  5773M  5775M
              5793M  5796M  5828M  5838M  5844M  5865M  5867M  5870M  5875M  5895M  5897M  5900M  5906M  5912M  5918M
              5931M  5934M  5940   6068M  6071M  6072B  6092M  6094M  6143M  6145M  6173M  6176M  6195M  6218M  6224M
              6228M  6240M  6243M  6255M  6258M  6263M  6264M  6264B  6267M  6279M  6282M  6284M  6318M  6320M  6369M
              6371M  6399M  6402M  6404M  6408M  6420M  6423M  6435M  6438M  6443M  6444M  6444B  6447M  6459M  6462M
              6464M  6467M  6479M  6482M  6488M  6489M  6489B  6492M  6568M  6571M  6647M  6649M  6719M  6721M  6725M
              6728M  6730M  6734M  6737M  6739M  6816M  6818M  6849M  6864M  6867M  6882M  6885M  6889M  6890M  6890B
              6893M  6918M  6921M  6923M  6953M  6965M  6969M  7001M  7019M  7028M  7040M  7044M  7056M  7060M  7072M
              7076M  7088M  7091M  7136M  7139M  7194M  7197M  7215M  7242M  7247M  7264M  7338M  7356M  7375M  7378M
              7398M  7416M  7435M  7438M  7485M  7488M  7495M  7591M  7597M  7600M  7619M  7634M  7658M  7670M  7677M
              7679M  7768M  7771M  7773M  7776M  7791M  7794M  7809M  7811M  7814M  7829M  7832M  7847M  7849M  7852M
              7867M  7870M  7885M  7887M  8002M  8005M  8022M  8025M  8043M  8074M  8077M  8092M  8095M  8110M  8112M
              8115M  8130M  8133M  8148M  8150M  8153M  8168M  8171M  8186M  8188M  8194M  8224M  8296M  8309   8388M
              8504M  8518M  8554M  8555B  8564   8710M  8833M  8848M  8866M  8906M  8918M  8938M  8941M  8954M  9002M
              9020M  9042M  9064M  9082M  9115M  9133M  9140M  9166M  9181M  9187M  9233M  9234B  9237   9241M  9253M
              9256M  9258M  9261M  9262B  9292M  9295M  9297M  9300M  9303M  9306M  9307M  9307B  9310M  9312M  9315M
              9318M  9320M  9323M  9326M  9327M  9327B  9330M  9332M  9335M  9337M  9340M  9342M  9345M  9347M  9350M
              9353M  9354M  9354B  9357M  9360M  9363M  9364M  9364B  9443   9475M  9552M  9590M  9643   9796M  9811M
              9814M  9832M  9835M  9853M  9915M  9949M  9951B  9961M  9963M  9966M 10019M 10072M 10075M 10079M 10089M
             10091M 10093M 10130M 10142M 10144M 10146M 10163M 10182M 10188M 10205M 10224M 10230M 10234M 10249M 10251M
             10264M 10267M 10279M 10282M 10294M 10297M 10299M 10303M 10315M 10317M 10330M 10333M 10345M 10348M 10350M
             10363M 10366M 10368M 10370M 10374M 10386M 10388M 10435M 10450M 10649M 10689M 10692M 10708M 10711M 10726M
             10729M 10733M 10748M 10751M 10766M 10769M 10784M 10786M 10806M 10810M 10825M 10827M 10874M 10889M 10892M
             10907M 10909M 10929M 10931M 10935M 10947M 10950M 10952M 11002M 11018M 11021M 11097M 11100M 11102M 11123M
             11129M 11131M 11135M 11209M 11288M 11356M 11397M 11465M 11675M 11682M 11689M 11695M 11702M 11709M 11716M
             11723M 11730M 11737M 11744M 11752  11777M 11778M 11778B 11781M 11782B 12299  12394M 12395M 12395B 12403M
             12404M 12404B 12408M 12410B
    10(A)      943U  3835U  4453   4496M  4500   4543M  5940   6071M  9237   9261M 12251U 12299  12323U 12408M 12417U
    11(B)      939U  4453   4496M  4500   4543M  5940   6071M  9237   9261M 12299  12408M
    12(C)      935U  3947M  4453   4496M  4500   4543M  5940   6071M  9237   9261M
1         (VSSW07) (09:49) (22MAR04) General Purpose Register Cross Reference                                               Page  116
    13(D)      931U  3851   3852   3853M  3853   3981M  3982   4167   4168M  4168   4187M  4188   4227   4228   4229M
              4229   4324M  4325   4333   4334   4335M  4335   4352M  4353   4357   4358   4359M  4359   4365M  4366
              4371   4372M  4372   4390   4391M  4391   4399M  4400   4404   4405M  4405   4448M  4449   4453   4453
              4454M  4454   4495M  4496M  4496   4500   4500   4501M  4501   4542M  4543M  4543   5940   5940   5941M
              5941   6070M  6071M  6071   8309   8310M  8310   8312   8313M  8313   8550M  8551   8553M  8554   8564
              8565M  8565   8567   8568M  8568   9229M  9230   9232M  9233   9237   9237   9238M  9238   9260M  9261M
              9261   9443   9444M  9444   9446   9447M  9447   9548M  9549   9551M  9552   9643   9644M  9644   9646
              9647M  9647   9945M  9946   9948M  9949  11752  11753M 11753  11780M 11781  12299  12300  12301M 12301
             12407M 12408
    14(E)      927U  4218M  4233M  4233   4271M  4272M  4283   4303D  4305M  4305   4306M  4307U  4317   4431M  4432M
              4432B  4453   4475M  4476M  4476B  4496M  4500   4522M  4523M  4523B  4543M  4635M  4636M  4636B  4833M
              4834M  4834B  4856M  4857M  4857B  4880M  4881M  4881B  4904M  4905M  4905B  4928M  4929M  4929B  5046M
              5067   5106M  5117M  5117   5132U  5162M  5169U  5205M  5227   5264M  5285   5322M  5343   5528M  5940
              5980M  5981M  5981B  6005M  6006M  6006B  6045M  6046M  6046B  6071M  6509M  6519M  6519   6525M  6531
              6588M  6598M  6598   6604M  6610   6696M  6697M  6697B  6784M  6894M  6916   6988M  6989M  6989B  7280M
              7281M  7282   7283M  7284M  7285   7289M  7289   7306M  7311M  7312   7313M  7329M  7334M  7335   7457M
              7483   7533B  7548B  7586M  7587M  7587B  9237   9261M  9380B  9395B  9410B  9425B  9440B  9559B  9607B
              9616B  9632B 11253M 11254M 11254B 11389B 11498B 11508M 11536M 11564M 11592M 11621M 11650M
    15(F)      923U  3886   3965M  3965   3967   3970M  3983M  3983   4141M  4218M  4224   4235M  4235   4250M  4265M
              4271M  4272M  4292M  4336M  4417M  4546M  4547B  4552M  4553M  4554B  4561M  4562B  4594M  4632M  4663M
              4725M  4731M  4737M  4776M  4794M  4826M  4853M  4877M  4901M  4925M  5046M  5055   5205M  5215   5264M
              5273   5322M  5331   5528M  5632M  5650M  5670M  5688M  5708M  5726M  5746M  5764M  5963M  5988M  6028M
              6167M  6234M  6249M  6273M  6393M  6414M  6429M  6453M  6473M  6562M  6641M  6693M  6779M  6787   6855M
              6873M  6894M  6904   6959M  7034M  7050M  7066M  7082M  7127M  7156M  7255M  7290M  7299M  7312   7313M
              7322M  7335   7366M  7426M  7457M  7471   7583M  7664M  7782M  7800M  7820M  7838M  7858M  7876M  8012D
              8014M  8014   8015M  8016U  8083M  8101M  8121M  8139M  8159M  8177M  8228M  8229M  8230   8395M  8405
              8414M  8423M  8423   8431M  8433   8716M  8726   8839M  8925D  8927M  8927   8928M  8929U  9172M  9247M
              9802M  9877M  9877   9919M  9919   9938M  9950M  9950  10136M 10240M 10258M 10273M 10288M 10309M 10324M
             10339M 10357M 10380M 10441M 10652M 10653M 10671M 10699M 10717M 10739M 10757M 10775M 10816M 10880M 10898M
             10941M 10987M 10988M 10988  11003M 11004M 11025M 11025  11057M 11068  11140M 11150U 11156M 11163U 11174U
             11204U 11250M 11286  11388M 11395  11497M 11512M 11512  11540M 11540  11568M 11568  11597M 11626M 11655M
             12346M 12353M 12372M 12409M 12409

1VSSW     (VSSW07) (09:49) (22MAR04) Diagnostic Cross Reference and Assembler Summary                                       Page  117
-                                                                                            HLASM R4.0  2004/03/22 09.49
0     No Statements Flagged in this Assembly
 HIGH LEVEL ASSEMBLER, 5696-234, RELEASE 4.0, PTF UQ57391
0SYSTEM: OS/390 02.10.00            JOBNAME: PJG#VSSW    STEPNAME: ASM        PROCSTEP: (NOPROC)
0Datasets Allocated for this Assembly
  Con DDname   Dataset Name                                 Volume  Member
   P1 SYSIN    SYS04082.T094948.RA000.PJG#VSSW.INPUT.H01    SCR100
   L1 SYSLIB   SYS3.DUMMYMAC                                SYSB02
   L2          WYL.GG.SYS.MACLIB                            SYSB05
   L3          WYL.GG.ORV.BC.MACLIB                         SYSB02
   L4          WYL.GG.ORV.MACLIB                            SYSB02
   L5          SYS3.ORVYL.UMACLIB                           SYSB02
   L6          SYS3.IS.MACLIB                               SYSB05
      SYSLIN   WYL.GG.PJG.OBJ                               SYSB05  VSSW
      SYSPRINT SYS04082.T094948.RA000.PJG#VSSW.PRINT.H01    SCR101
      SYSTERM  GG$PJG.PJG#VSSW.JOB06009.D0000103.?

    7812K allocated to Buffer Pool,         1697K would be required for this to be an In-Storage Assembly
    1749 Primary Input Records Read         5807 Library Records Read                  0 Work File Reads
       0 ASMAOPT Records Read               8549 Primary Print Records Written         0 Work File Writes
     240 Punch Records Written                 0 ADATA Records Written
0Assembly Start Time: 09.49.50 Stop Time: 09.49.56 Processor Time: 00.00.03.0778
 Return Code 000
