1                        J E S 2  J O B  L O G  --  S Y S T E M  S Y S B  --  N O D E  R L G
0
 09.49.24 JOB06000 ---- MONDAY,    22 MAR 2004 ----
 09.49.24 JOB06000  ICH70001I GG$PJG   LAST ACCESS AT 09:49:17 ON MONDAY, MARCH 22, 2004
 09.49.24 JOB06000  $HASP373 PJG#VSCN STARTED - INIT 2    - CLASS E - SYS SYSB
 09.49.24 JOB06000  ***  HCMD      STEP $$QUIET
 09.49.24 JOB06000  PURGE * Q=OUTPUT MULTIPLE
 09.49.24 JOB06000  JOB PJG#VSCN NOT IN OUTPUT QUEUE
 09.49.25 JOB06000  PJG#VSCN.$$QUIET .         RC=0008 TapeIO=0000 DiskIO=0000 CPU=  .01s Elapsed=64.13s
 09.49.25 JOB06000  PJG#VSCN.$CND    .         RC=Zero TapeIO=0000 DiskIO=0003 CPU=  .01s Elapsed=65.16s
 09.49.25 JOB06000  PJG#VSCN.$UNP    .         RC=Zero TapeIO=0000 DiskIO=0012 CPU=  .05s Elapsed=65.30s
 09.49.27 JOB06000  PJG#VSCN.ASM     .         RC=Zero TapeIO=0000 DiskIO=0140 CPU=  .43s Elapsed=65.53s
 09.49.27 JOB06000  PJG#VSCN.$EDIT   .         RC=Zero TapeIO=0000 DiskIO=0031 CPU=  .14s Elapsed=67.58s
 09.49.27 JOB06000  PJG#VSCN Ended.  Name=Module: VSCN                   Total CPU=  .64s Elapsed=64.13s
 09.49.27 JOB06000
 09.49.27 JOB06000  Execution charges   Priority=Standard   Block=Day
 09.49.27 JOB06000
 09.49.27 JOB06000  CPU Usage          11.62           $7.20   Standard Processing Unit Equivalent
 09.49.27 JOB06000                                   =======
 09.49.27 JOB06000                                     $7.20   Total Job execution charge
 09.49.27 JOB06000
 09.49.27 JOB06000  See back separator page for print charges
 09.49.27 JOB06000
 09.49.27 JOB06000  $HASP395 PJG#VSCN ENDED  ASM=0
1        1 //PJG#VSCN JOB PJG$GG,'Module: VSCN',TIME=1,MSGCLASS=C                  JOB06000
           /*JOBPARM HOLD=OUTPUT,LINES=50,CHARS=TN15,NOTIFY=YES
         2 //       EXEC PURGEOLD
         3 XXPURGEOLD PROC
           XX*
           XX* This proc is maintained by Jim Stosick
           XX*
         4 XX$$QUIET  EXEC PGM=HCMDX,PARM='PURGE * Q=OUTPUT MULTIPLE',
           XX         ACCT=(PURGEOLD,SYS3)
         5 //$CND   EXEC PGM=BILBO,REGION=512K,PARM='RECS=100'
         6 //STEPLIB  DD DSN=WYL.GG.ORV.LINKLIB,DISP=SHR
         7 //SYSPRINT DD SYSOUT=$
         8 //SYSUT1   DD DSN=WYL.GG.PJG.OBJ,DISP=OLD
         9 //SYSUT2   DD DSN=WYL.GG.PJG.OBJ,DISP=OLD
        10 //SYSIN    DD DUMMY
        11 //$UNP   EXEC PGM=WUNPRESS,PARM='NUM'
        12 //SYSPRINT DD SYSOUT=$
        13 //SYSUT1   DD DSN=WYL.GG.ORV.SOURCE(VSCN),DISP=SHR
        14 //SYSUT2   DD DSN=&&INPUT,DISP=(,PASS),UNIT=SYSDA,
           //            SPACE=(TRK,(25,25),RLSE),DCB=CARD
        15 //ASM    EXEC PGM=ASMA90,REGION=8M,COND=(0,NE,$UNP),
           //            PARM=('SYSPARM(VSCN),TERM,LANG(EN),OBJ',
           //          'LC(32500),XREF(SHORT),NODECK,NORLD,NODX,NOUS')
           //*STEPLIB  DD DSN=SYS1.SASMMOD1,DISP=SHR
        16 //SYSLIB   DD DSN=SYS3.DUMMYMAC,DISP=SHR,DCB=BLKSIZE=27920
        17 //         DD DSN=WYL.GG.SYS.MACLIB,DISP=SHR
        18 //         DD DSN=WYL.GG.ORV.BC.MACLIB,DISP=SHR
        19 //         DD DSN=SYS3.IS.MACLIB,DISP=SHR
        20 //SYSUT1   DD DSN=&&SYSUT1,UNIT=VIO,DISP=(,DELETE),
           //            SPACE=(4088,(500,250),,CONTIG,ROUND)
        21 //SYSTERM  DD SYSOUT=$
        22 //SYSPRINT DD DSN=&&PRINT,UNIT=SYSDA,DISP=(,PASS),
           //            SPACE=(6650,(250,250),RLSE),
           //            DCB=(BLKSIZE=6650,LRECL=133,RECFM=FB)
        23 //SYSLIN   DD DSN=WYL.GG.PJG.OBJ(VSCN),DISP=OLD
        24 //SYSUDUMP DD SYSOUT=A
        25 //SYSIN    DD DSN=&&INPUT,DISP=(OLD,DELETE)
        26 //$EDIT  EXEC PGM=ASMEDIT,REGION=1M,
           //            COND=EVEN,PARM='STMT,DATA'
        27 //STEPLIB  DD DSN=WYL.GG.SYS.LINKLIB,DISP=SHR
        28 //ASMOUT   DD DSN=&&PRINT,DISP=(OLD,DELETE)
        29 //SYSPRINT DD SYSOUT=A
        30 //SYSUDUMP DD SYSOUT=A
1 STMT NO. MESSAGE
         2 IEFC001I PROCEDURE PURGEOLD WAS EXPANDED USING SYSTEM LIBRARY SYS3.BETAPROC
        14 IGD01010I STORCLAS= TEMP STORGROUP =
        14 IGD01010I STORGRP=VIO ASSIGNED.
        20 IGD01010I STORCLAS= TEMP STORGROUP =
        20 IGD01010I STORGRP=VIO ASSIGNED.
        22 IGD01010I STORCLAS= TEMP STORGROUP =
        22 IGD01010I STORGRP=VIO ASSIGNED.
 ICH70001I GG$PJG   LAST ACCESS AT 09:49:17 ON MONDAY, MARCH 22, 2004
 IEF142I PJG#VSCN $$QUIET - STEP WAS EXECUTED - COND CODE 0008
 *********************************************************************************
 *   PJG#VSCN/$$QUIET /                    Return Code      0008                 *
 *   Region used      260K (16K user + 244K system)                              *
 *   Extended region  9352K (4K user + 9348K system)                             *
 *                                                                               *
 *   Paging              In      Out                                             *
 *   Private <-> Aux      0        0       CPU time (TCB)   00:00:00.01          *
 *   Private <-> Exp      0        0       CPU time (SRB)   00:00:00.00          *
 *   VIO                  0        0       Elapsed time    920:38:28.83          *
 *   Common               0      ---                                             *
 *                                                                               *
 *                                                                               *
 *   CPU Usage          0.18         $0.11  Standard Processing Unit Equivalent  *
 *                                   $0.11  Total Step execution charge          *
 *                                                                               *
 *    I/O count  DDname   Type Addr           I/O count  DDname   Type Addr      *
 *                         *** No I/O for this step ***                          *
 *********************************************************************************
 IEF373I STEP/$$QUIET /START 2004082.0949
 IEF374I STEP/$$QUIET /STOP  2004082.0949 CPU    0MIN 00.01SEC SRB    0MIN 00.00SEC VIRT    16K SYS   244K EXT       4K SYS    9348K
 IEF236I ALLOC. FOR PJG#VSCN $CND
 IEF237I 0401 ALLOCATED TO STEPLIB
 IEF237I JES2 ALLOCATED TO SYSPRINT
 IEF237I 04DC ALLOCATED TO SYSUT1
 IEF237I 04DC ALLOCATED TO SYSUT2
 IEF237I DMY  ALLOCATED TO SYSIN
 IEF142I PJG#VSCN $CND - STEP WAS EXECUTED - COND CODE 0000
 IEF285I   WYL.GG.ORV.LINKLIB                           KEPT
 IEF285I   VOL SER NOS= SYSB01.
 IEF285I   GG$PJG.PJG#VSCN.JOB06000.D0000101.?          SYSOUT
 IEF285I   WYL.GG.PJG.OBJ                               KEPT
 IEF285I   VOL SER NOS= SYSB05.
 IEF285I   WYL.GG.PJG.OBJ                               KEPT
 IEF285I   VOL SER NOS= SYSB05.
 *********************************************************************************
 *   PJG#VSCN/$CND    /                    Return Code      Zero                 *
 *   Region used      280K (16K user + 264K system)                              *
 *   Extended region  9392K (4K user + 9388K system)                             *
 *                                                                               *
 *   Paging              In      Out                                             *
 *   Private <-> Aux      0        0       CPU time (TCB)   00:00:00.01          *
 *   Private <-> Exp      0        0       CPU time (SRB)   00:00:00.00          *
 *   VIO                  0        0       Elapsed time    920:38:27.80          *
 *   Common               0      ---                                             *
 *                                                                               *
 *                                                                               *
 *   CPU Usage          0.18         $0.11  Standard Processing Unit Equivalent  *
 *                                   $0.11  Total Step execution charge          *
 *                                                                               *
 *    I/O count  DDname   Type Addr           I/O count  DDname   Type Addr      *
 *            3  STEPLIB  Disk 0401                   0  SYSPRINT      ----      *
 *            0  SYSUT1   Disk 04DC                   0  SYSUT2   Disk 04DC      *
 *            0  SYSIN         ----                                              *
 *********************************************************************************
 IEF373I STEP/$CND    /START 2004082.0949
 IEF374I STEP/$CND    /STOP  2004082.0949 CPU    0MIN 00.01SEC SRB    0MIN 00.00SEC VIRT    16K SYS   264K EXT       4K SYS    9388K
 IEF236I ALLOC. FOR PJG#VSCN $UNP
 IEF237I JES2 ALLOCATED TO SYSPRINT
 IEF237I 0402 ALLOCATED TO SYSUT1
 IGD101I SMS ALLOCATED TO DDNAME (SYSUT2  )
         DSN (SYS04082.T094924.RA000.PJG#VSCN.INPUT.H01   )
         STORCLAS (TEMP) MGMTCLAS (        ) DATACLAS (        )
         VOL SER NOS= SCR100
 IEF142I PJG#VSCN $UNP - STEP WAS EXECUTED - COND CODE 0000
 IEF285I   GG$PJG.PJG#VSCN.JOB06000.D0000102.?          SYSOUT
 IEF285I   WYL.GG.ORV.SOURCE                            KEPT
 IEF285I   VOL SER NOS= SYSB02.
 IGD106I SYS04082.T094924.RA000.PJG#VSCN.INPUT.H01    PASSED,    DDNAME=SYSUT2
 *********************************************************************************
 *   PJG#VSCN/$UNP    /                    Return Code      Zero                 *
 *   Region used      380K (108K user + 272K system)                             *
 *   Extended region  9468K (4K user + 9464K system)                             *
 *                                                                               *
 *   Paging              In      Out                                             *
 *   Private <-> Aux      0        0       CPU time (TCB)   00:00:00.05          *
 *   Private <-> Exp      0        0       CPU time (SRB)   00:00:00.00          *
 *   VIO                  0        0       Elapsed time    920:38:27.66          *
 *   Common               0      ---                                             *
 *                                                                               *
 *                                                                               *
 *   CPU Usage          0.93         $0.57  Standard Processing Unit Equivalent  *
 *                                   $0.57  Total Step execution charge          *
 *                                                                               *
 *    I/O count  DDname   Type Addr           I/O count  DDname   Type Addr      *
 *            0  SYSPRINT      ----                   2  SYSUT1   Disk 0402      *
 *           10  SYSUT2   Disk 038B                                              *
 *********************************************************************************
 IEF373I STEP/$UNP    /START 2004082.0949
 IEF374I STEP/$UNP    /STOP  2004082.0949 CPU    0MIN 00.05SEC SRB    0MIN 00.00SEC VIRT   108K SYS   272K EXT       4K SYS    9464K
 IEF236I ALLOC. FOR PJG#VSCN ASM
 IEF237I 0402 ALLOCATED TO SYSLIB
 IEF237I 04DC ALLOCATED TO
 IEF237I 0402 ALLOCATED TO
 IEF237I 04DC ALLOCATED TO
 IGD101I SMS ALLOCATED TO DDNAME (SYSUT1  )
         DSN (SYS04082.T094924.RA000.PJG#VSCN.SYSUT1.H01  )
         STORCLAS (TEMP) MGMTCLAS (        ) DATACLAS (        )
         VOL SER NOS= VIO
 IEF237I JES2 ALLOCATED TO SYSTERM
 IGD101I SMS ALLOCATED TO DDNAME (SYSPRINT)
         DSN (SYS04082.T094924.RA000.PJG#VSCN.PRINT.H01   )
         STORCLAS (TEMP) MGMTCLAS (        ) DATACLAS (        )
         VOL SER NOS= SCR101
 IEF237I 04DC ALLOCATED TO SYSLIN
 IEF237I JES2 ALLOCATED TO SYSUDUMP
 IGD103I SMS ALLOCATED TO DDNAME SYSIN
 IEF142I PJG#VSCN ASM - STEP WAS EXECUTED - COND CODE 0000
 IEF285I   SYS3.DUMMYMAC                                KEPT
 IEF285I   VOL SER NOS= SYSB02.
 IEF285I   WYL.GG.SYS.MACLIB                            KEPT
 IEF285I   VOL SER NOS= SYSB05.
 IEF285I   WYL.GG.ORV.BC.MACLIB                         KEPT
 IEF285I   VOL SER NOS= SYSB02.
 IEF285I   SYS3.IS.MACLIB                               KEPT
 IEF285I   VOL SER NOS= SYSB05.
 IGD105I SYS04082.T094924.RA000.PJG#VSCN.SYSUT1.H01   DELETED,   DDNAME=SYSUT1
 IEF285I   GG$PJG.PJG#VSCN.JOB06000.D0000103.?          SYSOUT
 IGD106I SYS04082.T094924.RA000.PJG#VSCN.PRINT.H01    PASSED,    DDNAME=SYSPRINT
 IEF285I   WYL.GG.PJG.OBJ                               KEPT
 IEF285I   VOL SER NOS= SYSB05.
 IEF285I   GG$PJG.PJG#VSCN.JOB06000.D0000104.?          SYSOUT
 IGD105I SYS04082.T094924.RA000.PJG#VSCN.INPUT.H01    DELETED,   DDNAME=SYSIN
 *********************************************************************************
 *   PJG#VSCN/ASM     /                    Return Code      Zero                 *
 *   Region used      8484K (8192K user + 292K system)                           *
 *   Extended region  9952K (412K user + 9540K system)                           *
 *                                                                               *
 *   Paging              In      Out                                             *
 *   Private <-> Aux      0        0       CPU time (TCB)   00:00:00.41          *
 *   Private <-> Exp      0        0       CPU time (SRB)   00:00:00.02          *
 *   VIO                  0        0       Elapsed time    920:38:27.43          *
 *   Common               0      ---                                             *
 *                                                                               *
 *                                                                               *
 *   CPU Usage          7.68         $4.76  Standard Processing Unit Equivalent  *
 *                                   $4.76  Total Step execution charge          *
 *                                                                               *
 *    I/O count  DDname   Type Addr           I/O count  DDname   Type Addr      *
 *           10  SYSLIB   Disk 0402                  88  SYSLIB   Disk 04DC      *
 *            0  SYSLIB   Disk 0402                   0  SYSLIB   Disk 04DC      *
 *            0  SYSUT1   VIO  ----                   0  SYSTERM       ----      *
 *           28  SYSPRINT Disk 04E3                   3  SYSLIN   Disk 04DC      *
 *            0  SYSUDUMP      ----                  11  SYSIN    Disk 038B      *
 *********************************************************************************
 IEF373I STEP/ASM     /START 2004082.0949
 IEF374I STEP/ASM     /STOP  2004082.0949 CPU    0MIN 00.41SEC SRB    0MIN 00.02SEC VIRT  8192K SYS   292K EXT     412K SYS    9540K
 IEF236I ALLOC. FOR PJG#VSCN $EDIT
 IEF237I 0402 ALLOCATED TO STEPLIB
 IGD103I SMS ALLOCATED TO DDNAME ASMOUT
 IEF237I JES2 ALLOCATED TO SYSPRINT
 IEF237I JES2 ALLOCATED TO SYSUDUMP
 IEF142I PJG#VSCN $EDIT - STEP WAS EXECUTED - COND CODE 0000
 IEF285I   WYL.GG.SYS.LINKLIB                           KEPT
 IEF285I   VOL SER NOS= SYSB02.
 IGD105I SYS04082.T094924.RA000.PJG#VSCN.PRINT.H01    DELETED,   DDNAME=ASMOUT
 IEF285I   GG$PJG.PJG#VSCN.JOB06000.D0000105.?          SYSOUT
 IEF285I   GG$PJG.PJG#VSCN.JOB06000.D0000106.?          SYSOUT
 *********************************************************************************
 *   PJG#VSCN/$EDIT   /                    Return Code      Zero                 *
 *   Region used      388K (116K user + 272K system)                             *
 *   Extended region  9468K (4K user + 9464K system)                             *
 *                                                                               *
 *   Paging              In      Out                                             *
 *   Private <-> Aux      0        0       CPU time (TCB)   00:00:00.14          *
 *   Private <-> Exp      0        0       CPU time (SRB)   00:00:00.00          *
 *   VIO                  0        0       Elapsed time    920:38:25.38          *
 *   Common               0      ---                                             *
 *                                                                               *
 *                                                                               *
 *   CPU Usage          2.62         $1.62  Standard Processing Unit Equivalent  *
 *                                   $1.62  Total Step execution charge          *
 *                                                                               *
 *    I/O count  DDname   Type Addr           I/O count  DDname   Type Addr      *
 *            2  STEPLIB  Disk 0402                  29  ASMOUT   Disk 04E3      *
 *            0  SYSPRINT      ----                   0  SYSUDUMP      ----      *
 *********************************************************************************
 IEF373I STEP/$EDIT   /START 2004082.0949
 IEF374I STEP/$EDIT   /STOP  2004082.0949 CPU    0MIN 00.14SEC SRB    0MIN 00.00SEC VIRT   116K SYS   272K EXT       4K SYS    9464K
 *********************************************************************************
 *                                                                               *
 *                      S t a n f o r d   U n i v e r s i t y                    *
 *                                                                               *
 *                              *** Job Summary ***                              *
 *                                                                               *
 *   System Id      SYSB                   Input time     09:38:41  Mar 22, 2004 *
 *                                                                               *
 *   System Release SP6.1.0                Start time     09:49:24  Mar 22, 2004 *
 *                                                                               *
 *   Job name       PJG#VSCN               Stop  time     00:00:00  Mar 22, 2004 *
 *                                                                               *
 *   Account        PJG$GG                 Elapsed time  920:38:28.83            *
 *                                                                               *
 *   User Name      Module: VSCN           CPU time       00:00:00.62            *
 *                                                                               *
 *   Job class      E                      SRB Time       00:00:00.02            *
 *                                                                               *
 *********************************************************************************
 IEF375I  JOB/PJG#VSCN/START 2004082.0949
 IEF376I  JOB/PJG#VSCN/STOP  2004082.0949 CPU    0MIN 00.62SEC SRB    0MIN 00.02SEC
1Data set successfully converted from EDIT to FB format
1Assembler Done VSCN No Statements Flagged
1         High Level Assembler Option Summary                   (PTF UQ57391)                                               Page    1
-                                                                                            HLASM R4.0  2004/03/22 09.49
0  No Overriding ASMAOPT Parameters
   Overriding Parameters-  SYSPARM(VSCN),TERM,LANG(EN),OBJ,LC(32500),XREF(SHORT),NODECK,NORLD,NODX,NOUS
   No Process Statements


   Options for this Assembly
0  NOADATA
     ALIGN
   NOASA
     BATCH
     CODEPAGE(047C)
   NOCOMPAT
   NODBCS
 3 NODECK
 3 NODXREF
     ESD
   NOEXIT
     FLAG(0,ALIGN,CONT,NOIMPLEN,NOPAGE0,PUSH,RECORD,NOSUBSTR,USING0)
   NOFOLD
   NOGOFF
   NOINFO
 3   LANGUAGE(EN)
   NOLIBMAC
 3   LINECOUNT(32500)
     LIST(121)
     MXREF(SOURCE)
 3   OBJECT
     OPTABLE(UNI,NOLIST)
   NOPCONTROL
   NOPESTOP
   NOPROFILE
   NORA2
   NORENT
 3 NORLD
     RXREF
     SIZE(MAX)
 3   SYSPARM(VSCN)
 3   TERM(WIDE)
   NOTEST
     THREAD
   NOTRANSLATE
 3 NOUSING
 3   XREF(SHORT)

   No Overriding DD Names

1VSCN     External Symbol Dictionary                                                                                        Page    2
-Symbol   Type   Id     Address  Length     LD ID  Flags Alias-of                            HLASM R4.0  2004/03/22 09.49
0VSCN      SD 00000001 00000000 00000A10             00
 VSCN00    LD          00000000           00000001
 SCINIT    LD          00000016           00000001
 SCTELL    LD          00000026           00000001
 SCTYPE    LD          00000038           00000001
 SCAN      LD          00000050           00000001
 DQSCAN    LD          00000576           00000001

1VSCN     ORVYL'S SCANNER                                                                                                   Page    3
0D-Loc  Object Code    Addr1 Addr2  Stmt Lv Lineno    Source Statement                    (Asmedit 3.3)  HLASM R4.0  2004/03/22 09.49
+_____  ______ ____    _____ _____  ____ __ ______    ______ _________
0                                      2       2.     ********************************************************************
                                       3       3.     *                                                                  *
                                       4       4.     *       ORVYL/370  RELEASE III - CLASS I - STANFORD PROPRIETARY    *
                                       5       5.     *                                                                  *
                                       6       6.     ********************************************************************
-                                      8       8.              HIBAL ,
-                                    990      10.     * MODIFICATIONS
                                     991      11.     *
1VSCN     ORVYL'S SCANNER                                                                                                   Page    4
0D-Loc  Object Code    Addr1 Addr2  Stmt Lv Lineno    Source Statement           (Hibal 5, Asmedit 3.3)  HLASM R4.0  2004/03/22 09.49
+_____  ______ ____    _____ _____  ____ __ ______    ______ _________
0000000                00000 00A10   993      13.     VSCN     CSECT
                                     997      14.              IDENT 00
                                    1000             +
                                    1001    01-IDENT +         ENTRY VSCN00
                                    1002             +
 000000 14E5E2C3D5F0F06B            1003    01-IDENT +VSCN00   DC    AL1(20),C'VSCN00,22MAR04,09:49'
                                    1004             +*
-                                   1007      16.              COPY  ORVDEFN
                                    1008             =         SYSDEFN  ,
                                    1009             =         GBLB  &PROTECT
                                    1010             =         GBLC  &MODULE
-                                   1012      18.              REGS  ,,SR,TR,RR,NR,PR,BR,WAR,RAR,SCANCBR
1VSCN     (VSCN00) (09:49) (22MAR04) ORVYL'S SCANNER                                                                        Page    5
0Loc    Object Code    Addr1 Addr2  Stmt Lv Lineno    Source Statement           (Hibal 5, Asmedit 3.3)  HLASM R4.0  2004/03/22 09.49
+___    ______ ____    _____ _____  ____ __ ______    ______ _________
0                                   1137      20.     * SAVE AREA
                                    1138      21.     *
 000000                00000 00054  1139      22.     SA       RECORD BEGIN
 000000                             1147  1   23.                DS    F
 000004                             1148  1   24.                DS    (12-2+1)F
 000030                             1149  1   25.     WORD       DS    2F
 000038                             1150  1   26.     SV15       DS    F
 00003C                             1151  1   27.     CPSAVE     DS    2F
 000044                             1152  1   28.     TEMPD      DS    3F                      DWORD WORK AREA
 000050                             1153  1   29.     PCNT       DS    H
 000052                             1154  1   30.     FL         DS    X
                                    1155  1   31.
                                    1156  1   32.     FSQS       EQU   X'80'                   SINGLE QUOTED STRING
                                    1157  1   33.     FDQS       EQU   X'40'                   DOUBLE QUOTED STRING
                                    1158  1   34.     FPS        EQU   X'20'                   PARENED STRING
                                    1159  1   35.     FISOL      EQU   X'01'                   STRING ISOLATION
 000054                             1160  1   36.                DS    0F
                                    1161  1   37.     SASIZ      EQU   *-SA
 000054                00054 00054  1162      38.              END   ,
0                                   1172      40.     FTBLE    EQU   X'F8'                   LAST/POP/PUSH
                                    1173      41.     FLAST    EQU   X'FF'                   END
                                    1174      42.     FPARM    EQU   X'80'                   PARM
                                    1175      43.     FLINNO   EQU   X'60'                   LINE NO. CONV
                                    1176      44.     FINTEG   EQU   X'40'                   INTEGER 0 OR GTR
                                    1177      45.     FINTEGP  EQU   X'20'                   INTEGER GTR 0
                                    1178      46.     FCMSET   EQU   X'10'                   SET 3 COMMAND CHARS
                                    1179      47.     FLIMIT   EQU   X'10'                   LIMIT
                                    1180      48.     FABBREV  EQU   X'08'                   ABBREVIATION
-000000                00000 00008  1182      50.     PRTSTACK RECORD BEGIN                  PUSH/POP STACK
 000000                             1190  1   51.     PRTSTP     DS    A                       STACK POINTER (RELATIVE)
 000004                             1191  1   52.                DS    A                       STACK (UNKNOWN LENGTH)
 000008                00008 00008  1192      53.              END   ,
 000000                00000 00020  1203      56.     SCANCB   RECORD BEGIN
                                    1211  1   57.                SCANCB PFX=
 000000                             1212  1 01-SCANC +CB         DS    0F
 000000                             1213  1 01-SCANC +VAL        DS    A                       VALUE RETURNED
 000004                             1214  1 01-SCANC +KW         DS    CL8                     CURRENT KEY WORD
 00000C                             1215  1 01-SCANC +LEN        DS    A                       LENGTH LEFT TO SCAN
 000010                             1216  1 01-SCANC +LOC        DS    A                       NEXT THING TO SCAN
 000014                             1217  1 01-SCANC +RA         DS    A                       RETURN ADDRESS
 000018                             1218  1 01-SCANC +PRT        DS    A                       ROUTING TABLE ADDRESS
 00001C                             1219  1 01-SCANC +CLT        DS    A                       SCAN TYPE
                                    1220  1          +*                                      0 = NORMAL SCAN
                                    1221  1          +*                                      4 = EXPRESSION ISOLATION
                                    1222  1          +*                                      8 = EXPRESSION SCAN
                                    1223  1 01-SCANC +CBL        EQU *-CB
 000020                00020 00020  1224      58.              END   ,
1VSCN     (VSCN00) (09:49) (22MAR04) ORVYL'S SCANNER                                                                        Page    6
0Loc    Object Code    Addr1 Addr2  Stmt Lv Lineno    Source Statement           (Hibal 5, Asmedit 3.3)  HLASM R4.0  2004/03/22 09.49
+___    ______ ____    _____ _____  ____ __ ______    ______ _________
0USING  SA,R8                       1235      61.              USING SA,WAR                  ##
 USING  SCANCB,R15                  1244      62.              USING SCANCB,R15              ##
-                                   1254      64.     * INITIALIZE
                                    1255      65.     *
                                    1256      66.              ENTRY SCINIT
 000016                             1257      67.     SCINIT   DS    0H
 000016 4110 1000            00000  1258      68.              LA    R1,@R1
 00001A 9001 F00C            0000C  1259      69.              STM   R0,R1,LEN               SAVE LOC AND LENGTH
 00001E D703 F01C F01C 0001C 0001C  1260      70.              XC    CLT,CLT                 RESET SCAN TYPE
 000024 07FE                        1261      71.              BR    R14
1VSCN     (VSCN00) (09:49) (22MAR04) ORVYL'S SCANNER                                                                        Page    7
0Current Usings:  (SA,R8) (SCANCB,R15)
0Loc    Object Code    Addr1 Addr2  Stmt Lv Lineno    Source Statement           (Hibal 5, Asmedit 3.3)  HLASM R4.0  2004/03/22 09.49
+___    ______ ____    _____ _____  ____ __ ______    ______ _________
0                                   1263      73.     *  TELL LOCATION AND LENGTH
                                    1264      74.     *
                                    1265      75.     *    - SCAN TYPE IS 0, 1, OR 2
                                    1266      76.              ENTRY SCTELL
 000026                             1267      77.     SCTELL   DS    0H
 000026 5810 F01C            0001C  1268      78.              L     R1,CLT                  SCAN TYPE
 00002A 8810 0002            00002  1269      79.              SRL   R1,2                    SHIFT DOWN
 00002E 5010 F000            00000  1270      80.              ST    R1,VAL                  RETURN IN SCANCB
 000032 9801 F00C            0000C  1271      81.              LM    R0,R1,LEN
 000036 07FE                        1272      82.              BR    R14
1VSCN     (VSCN00) (09:49) (22MAR04) ORVYL'S SCANNER                                                                        Page    8
0Current Usings:  (SA,R8) (SCANCB,R15)
0Loc    Object Code    Addr1 Addr2  Stmt Lv Lineno    Source Statement           (Hibal 5, Asmedit 3.3)  HLASM R4.0  2004/03/22 09.49
+___    ______ ____    _____ _____  ____ __ ______    ______ _________
0                                   1274      84.     *  SET SCAN TYPE
                                    1275      85.     *
                                    1276      86.     *    - SCAN TYPE IS 0, 1, OR 2
                                    1277      87.              ENTRY SCTYPE
 000038                             1278      88.     SCTYPE   DS    0H
 000038 8910 0002            00002  1279      89.              SLL   R1,2                    SHIFT NEW SCAN TYPE
 00003C 5010 D000            00000  1280      90.              ST    R1,@R13                 SAVE IN STACK
 000040 5810 F01C            0001C  1281      91.              L     R1,CLT
 000044 8810 0002            00002  1282      92.              SRL   R1,2
 000048 D203 F01C D000 0001C 00000  1283      93.              MVC   CLT,@R13                SET NEW SCAN TYPE
 00004E 07FE                        1284      94.              BR    R14
0DROP   SCANCB,R15                  1286      96.              DROP  R15                     ##  RELEASE SCANCB
1VSCN     (VSCN00) (09:49) (22MAR04) ORVYL'S SCANNER                                                                        Page    9
0Current Usings:  (SA,R8)
0Loc    Object Code    Addr1 Addr2  Stmt Lv Lineno    Source Statement           (Hibal 5, Asmedit 3.3)  HLASM R4.0  2004/03/22 09.49
+___    ______ ____    _____ _____  ____ __ ______    ______ _________
0USING  PRTSTACK,R13                1294      98.              USING PRTSTACK,R13            ##  KEYWORD TABLE STACK
 000050 50E0 D000            00000  1303      99.     SCAN     XENTER SR,R12,SASIZ
 000054 902C D004/188D       00004  1306             +
 00005A 41D0 D054/0D70       00054  1308             +
 USING  *,R7                        1323     100.     BASE     DS    0H
 000060 18AF                        1324     101.              LR    SCANCBR,R15             SET SCAN WORK AREA ADDRESS
 USING  SCANCB,R10                  1325     102.              USING SCANCB,SCANCBR          ##
                                    1334     103.              DROP  R15                     ##
 000062 50E0 A014            00014  1338     104.              ST    R14,RA                  RETURN ADDR
 000066 5010 A018            00018  1339     105.              ST    R1,PRT                  ROUTING TABLE
 00006A 1B44                        1340     106.              SR    RR,RR
 00006C 9856 A00C            0000C  1341     107.     SCANTOK  LM    NR,PR,LEN               PICK UP LOC AND LEN
 000070 9200 8052      00052        1342     108.              MVI   FL,0                    CLEAR FLAGS
 000074 D503 A01C 7988 0001C 009E8  1343     109.              CLC   CLT,=A(4)               STRING ISOLATION?
 00007A 4770 7022            00082  1344     110.              BNE   SCANON                  NO
 00007E 9201 8052      00052        1345     111.              MVI   FL,FISOL
 000082 4115 6000            00000  1346     112.     SCANON   LA    R1,@PR(NR)
 000086 1255                        1347     113.              LTR   NR,NR                   ANY LEFT?
 000088 47D0 74C6            00526  1348     114.              BNP   DONE                    BR IF NOT
 00008C 1B22                        1349     115.              SR    2,2                     CLEAR TRT REGS
 00008E 58F0 A01C            0001C  1350     116.              L     R15,CLT
 000092 58FF 7678            006D8  1351     117.              L     R15,CLTS(R15)
 000096 0650                        1352     118.              BCTR  NR,0
 000098 4450 7060            000C0  1353     119.              EX    NR,TRT
 00009C 47F2 7040            000A0  1355     120.              B     *+4(2)                  BR ON DELIM CODE
 0000A0 47F0 7066            000C6  1356     121.              B     EOS                     0  END OF STRING
 0000A4 47F0 7080            000E0  1357     122.              B     BLKCOM                  4  BLANK-COMMA
 0000A8 47F0 70CA            0012A  1358     123.              B     SQUOTE                  8  SINGLE QUOTE
 0000AC 47F0 711A            0017A  1359     124.              B     DQUOTE                  12 DOUBLE QUOTE
 0000B0 47F0 7154            001B4  1360     125.              B     LPAR                    16 LEFT PAREN
 0000B4 47F0 7194            001F4  1361     126.              B     RPAR                    20 RIGHT PAREN
 0000B8 47F0 70B2            00112  1362     127.              B     SLASH                    24 SLASH
 0000BC 47F0 709C            000FC  1363     128.              B     SEMI                    28 SEMI-COLON
 0000C0 DD00 6000 F000 00000 00000  1364     129.     TRT      TRT   @PR(*-*),@R15           SCAN
1VSCN     (VSCN00) (09:49) (22MAR04) ORVYL'S SCANNER                                                                        Page   10
0Current Usings:  (*,R7) (SA,R8) (SCANCB,R10) (PRTSTACK,R13)
0Loc    Object Code    Addr1 Addr2  Stmt Lv Lineno    Source Statement           (Hibal 5, Asmedit 3.3)  HLASM R4.0  2004/03/22 09.49
+___    ______ ____    _____ _____  ____ __ ______    ______ _________
0                                   1366     131.     *
                                    1367     132.     *  PROCESS END OF STRING
                                    1368     133.     *
 0000C6 91E0 8052      00052        1369     134.     EOS      TM    FL,FSQS+FDQS+FPS        STRING?
 0000CA 4780 71E4            00244  1370     135.              BZ    TOKEN                   BR IF NOT
 0000CE 1B55                        1371     136.     ILLSTR   SR    NR,NR                   UPDATE PTR
 0000D0 1861                        1372     137.              LR    PR,R1
 0000D2 1801                        1373     138.              LR    R0,R1                   COMPUTE STRING PTR
 0000D4 5810 A010            00010  1374     139.              L     R1,LOC
 0000D8 1B01                        1375     140.              SR    R0,R1
 0000DA 1300                        1376     141.              LCR   R0,R0                   INDICATE ILLEGAL STRING
 0000DC 47F0 74EE            0054E  1377     142.              B     RTN                  %% RETURN
                                    1378     143.     *
                                    1379     144.     * PROCESS BLANKS
                                    1380     145.     *
 0000E0 91E0 8052      00052        1381     146.     BLKCOM   TM    FL,FSQS+FDQS+FPS        STRING BEING COLLECTED?
 0000E4 4770 71C2            00222  1382     147.              BNZ   GOSTRING                BR IF SO
 0000E8 5910 A010            00010  1383     148.              C     R1,LOC                  BLANK AT START OF STRING?
 0000EC 4770 71E4            00244  1384     149.              BNE   TOKEN                   NO
 0000F0 4160 1001            00001  1385     150.              LA    PR,@R1+1                SKIP OVER
 0000F4 9056 A00C            0000C  1386     151.              STM   NR,PR,LEN               START OVER
 0000F8 47F0 7022            00082  1387     152.              B     SCANON
                                    1388     153.     *
                                    1389     154.     * PROCESS SEMI-COLON
                                    1390     155.     *
 0000FC 91E0 8052      00052        1391     156.     SEMI     TM    FL,FSQS+FDQS+FPS        STRING BEING COLLECTED?
 000100 4770 71C2            00222  1392     157.              BNZ   GOSTRING                BR IF SO
 000104 1851                        1393     158.              LR    NR,R1
 000106 5B50 A010            00010  1394     159.              S     NR,LOC                  TRUNCATE REST OF SCAN
 00010A 5050 A00C            0000C  1395     160.              ST    NR,LEN
 00010E 47F0 71E4            00244  1396     161.              B     TOKEN
1VSCN     (VSCN00) (09:49) (22MAR04) ORVYL'S SCANNER                                                                        Page   11
0Current Usings:  (*,R7) (SA,R8) (SCANCB,R10) (PRTSTACK,R13)
0Loc    Object Code    Addr1 Addr2  Stmt Lv Lineno    Source Statement           (Hibal 5, Asmedit 3.3)  HLASM R4.0  2004/03/22 09.49
+___    ______ ____    _____ _____  ____ __ ______    ______ _________
0                                   1398     163.     *  PROCESS SLASH
                                    1399     164.     *
 000112 91E0 8052      00052        1400     165.     SLASH    TM    FL,FSQS+FDQS+FPS         STRING BEING COLLECTED?
 000116 4770 71C2            00222  1401     166.              BNZ   GOSTRING                 BR IF SO
 00011A 5910 A010            00010  1402     167.              C     R1,LOC                   COMPUTE TOKEN SIZE
 00011E 4770 71E4            00244  1403     168.              BNE   TOKEN                    TOKEN WON'T BE "/"
 000122 4110 1001            00001  1404     169.              LA    R1,@R1+1                 LENGTH "/" TOKEN
 000126 47F0 71E4            00244  1405     170.              B     TOKEN                    PROCESS
                                    1406     171.     *
                                    1407     172.     *  PROCESS SINGLE QUOTE
                                    1408     173.     *
 00012A 9160 8052      00052        1409     174.     SQUOTE   TM    FL,FDQS+FPS             "STRING"?
 00012E 4770 71C2            00222  1410     175.              BNZ   GOSTRING                BR IF SO
 000132 9180 8052      00052        1411     176.              TM    FL,FSQS                 OLD STRING?
 000136 4710 70EA            0014A  1412     177.              BO    CSQ                     BR IF SO
 00013A 5910 A010            00010  1413     178.              C     R1,LOC                  COMPUTE TOKEN SIZE
 00013E 4770 71E4            00244  1414     179.              BNE   TOKEN                  BR IF PREVIOUS TOKEN
 000142 9680 8052      00052        1415     180.              OI    FL,FSQS                 SET STRING SCAN
 000146 47F0 71C2            00222  1416     181.              B     GOSTRING
                                    1417     182.
 00014A 1A56                        1418     183.     CSQ      AR    NR,PR                   BUMP PTR
 00014C 1B51                        1419     184.              SR    NR,R1
 00014E 4110 1001            00001  1420     185.              LA    R1,@R1+1                POINT PAST QUOTE
 000152 1861                        1421     186.              LR    PR,R1
 000154 47D0 71E4            00244  1422     187.              BNP   TOKEN                   BR IF END
 000158 957D 6000      00000        1423     188.              CLI   @PR,C''''               QUOTE?
 00015C 4780 7110            00170  1424     189.              BE    MVS
 000160 9101 8052      00052        1425     190.     ISOLAT   TM    FL,FISOL                STRING ISOLATING?
 000164 4780 71E4            00244  1426     191.              BZ    TOKEN                   END OF STRING
 000168 941F 8052      00052        1427     192.              NI    FL,255-FSQS-FDQS-FPS    END OF STRING
 00016C 47F0 7022            00082  1428     193.              B     SCANON                  KEEP GOING
 000170 0650                        1429     194.     MVS      BCTR  NR,0                    ELIMINATE 2ND QUOTE
 000172 4160 6001            00001  1430     195.              LA    PR,@PR+1
 000176 47F0 7022            00082  1431     196.              B     SCANON
1VSCN     (VSCN00) (09:49) (22MAR04) ORVYL'S SCANNER                                                                        Page   12
0Current Usings:  (*,R7) (SA,R8) (SCANCB,R10) (PRTSTACK,R13)
0Loc    Object Code    Addr1 Addr2  Stmt Lv Lineno    Source Statement           (Hibal 5, Asmedit 3.3)  HLASM R4.0  2004/03/22 09.49
+___    ______ ____    _____ _____  ____ __ ______    ______ _________
0                                   1433     198.     *  PROCESS DOUBLE QUOTE
                                    1434     199.     *
 00017A 91A0 8052      00052        1435     200.     DQUOTE   TM    FL,FSQS+FPS             'STRING'?
 00017E 4770 71C2            00222  1436     201.              BNZ   GOSTRING                BR IF SO
 000182 9140 8052      00052        1437     202.              TM    FL,FDQS                 OLD STRING?
 000186 4710 713A            0019A  1438     203.              BO    CDQ                     BR IF SO
 00018A 5910 A010            00010  1439     204.              C     R1,LOC                  PASSED OVER TOKEN?
 00018E 4770 71E4            00244  1440     205.              BNE   TOKEN
 000192 9640 8052      00052        1441     206.              OI    FL,FDQS                 SET STRING SCAN
 000196 47F0 71C2            00222  1442     207.              B     GOSTRING
                                    1443     208.
 00019A 1A56                        1444     209.     CDQ      AR    NR,PR                   UPDATE PTR
 00019C 1B51                        1445     210.              SR    NR,R1
 00019E 4110 1001            00001  1446     211.              LA    R1,@R1+1                POINT PAST QUOTE
 0001A2 1861                        1447     212.              LR    PR,R1
 0001A4 47D0 71E4            00244  1448     213.              BNP   TOKEN                   BR IF END
 0001A8 957F 6000      00000        1449     214.              CLI   @PR,C'"'                QUOTE?
 0001AC 4780 7110            00170  1450     215.              BE    MVS                     BR IF SO
 0001B0 47F0 7100            00160  1451     216.              B     ISOLAT                  MAKE ISOLATION CHECK
                                    1452     217.     *
                                    1453     218.     *  PROCESS LEFT PAREN
                                    1454     219.     *
 0001B4 91C0 8052      00052        1455     220.     LPAR     TM    FL,FSQS+FDQS            QUOTED STRING?
 0001B8 4770 71C2            00222  1456     221.              BNZ   GOSTRING                BR IF SO
 0001BC 9120 8052      00052        1457     222.              TM    FL,FPS                  PAREN STRING?
 0001C0 4710 7184            001E4  1458     223.              BO    INP                     BR IF SO
 0001C4 5910 A010            00010  1459     224.              C     R1,LOC                  PREVIOUS TOKEN?
 0001C8 4780 7174            001D4  1460     225.              BE    LPAR1ST                 NO
 0001CC 9101 8052      00052        1461     226.              TM    FL,FISOL                ISOLATING STRING?
 0001D0 4780 71E4            00244  1462     227.              BZ    TOKEN                   NO
                                    1463     228.
 0001D4 9620 8052      00052        1464     229.     LPAR1ST  OI    FL,FPS                  SET PAREN SCAN
 0001D8 4120 0001            00001  1465     230.              LA    SR,1
 0001DC 4020 8050            00050  1466     231.              STH   SR,PCNT
 0001E0 47F0 71C2            00222  1467     232.              B     GOSTRING
                                    1468     233.
 0001E4 4820 8050            00050  1469     234.     INP      LH    SR,PCNT                 PAREN COUNT
 0001E8 4120 2001            00001  1470     235.              LA    SR,@SR+1
 0001EC 4020 8050            00050  1471     236.              STH   SR,PCNT
 0001F0 47F0 71C2            00222  1472     237.              B     GOSTRING
1VSCN     (VSCN00) (09:49) (22MAR04) ORVYL'S SCANNER                                                                        Page   13
0Current Usings:  (*,R7) (SA,R8) (SCANCB,R10) (PRTSTACK,R13)
0Loc    Object Code    Addr1 Addr2  Stmt Lv Lineno    Source Statement           (Hibal 5, Asmedit 3.3)  HLASM R4.0  2004/03/22 09.49
+___    ______ ____    _____ _____  ____ __ ______    ______ _________
0                                   1474     239.     *  PROCESS RIGHT PAREN
                                    1475     240.     *
 0001F4 91C0 8052      00052        1476     241.     RPAR     TM    FL,FSQS+FDQS            QUOTED STRING?
 0001F8 4770 71C2            00222  1477     242.              BNZ   GOSTRING                BR IF SO
 0001FC 9120 8052      00052        1478     243.              TM    FL,FPS                  PAREN STRING?
 000200 4780 71CE            0022E  1479     244.              BZ    ILLPS                   BR IF NOT
 000204 4820 8050            00050  1480     245.              LH    SR,PCNT                 DECR COUNT
 000208 0620                        1481     246.              BCTR  SR,0
 00020A 4020 8050            00050  1482     247.              STH   SR,PCNT
 00020E 1222                        1483     248.              LTR   SR,SR
 000210 4770 71C2            00222  1484     249.              BNZ   GOSTRING
 000214 1A56                        1485     250.              AR    NR,PR                   UPDATE PTR
 000216 1B51                        1486     251.              SR    NR,R1
 000218 4110 1001            00001  1487     252.              LA    R1,@R1+1                POINT PAST QUOTE
 00021C 1861                        1488     253.              LR    PR,R1
 00021E 47F0 7100            00160  1489     254.              B     ISOLAT                  ALL PARENS MATCHED
 000222 1B51                        1490     255.     GOSTRING SR    NR,R1                   UPDATE STRING PTRS
 000224 1A56                        1491     256.              AR    NR,PR
 000226 4160 1001            00001  1492     257.              LA    PR,@R1+1
 00022A 47F0 7022            00082  1493     258.              B     SCANON
                                    1494     259.
 00022E 5800 A010            00010  1495     260.     ILLPS    L     R0,LOC                  COMPUTE -LENGTH
 000232 1B01                        1496     261.              SR    R0,R1
 000234 5810 A010            00010  1497     262.              L     R1,LOC                  LOC OF TOKEN
 000238 1A50                        1498     263.              AR    NR,R0                   DECR LENGTH
 00023A 4160 1001            00001  1499     264.              LA    PR,@R1+1
 00023E 1B60                        1500     265.              SR    PR,R0                   BUMP PTR
 000240 47F0 74EE            0054E  1501     266.              B     RTN                  %%
1VSCN     (VSCN00) (09:49) (22MAR04) ORVYL'S SCANNER                                                                        Page   14
0Current Usings:  (*,R7) (SA,R8) (SCANCB,R10) (PRTSTACK,R13)
0Loc    Object Code    Addr1 Addr2  Stmt Lv Lineno    Source Statement           (Hibal 5, Asmedit 3.3)  HLASM R4.0  2004/03/22 09.49
+___    ______ ____    _____ _____  ____ __ ______    ______ _________
0                                   1503     268.     *  PROCESS A TOKEN
                                    1504     269.     *
 000244 9856 A00C            0000C  1505     270.     TOKEN    LM    NR,PR,LEN               OLD LOC AND LENGTH
 000248 5010 A010            00010  1506     271.              ST    R1,LOC                  NEXT NOKEN
 00024C 1B16                        1507     272.              SR    R1,PR                   LENGTH
 00024E 4780 74C6            00526  1508     273.              BZ    DONE
 000252 1B51                        1509     274.              SR    NR,R1                   REDUCE REMAINING LENGTH
 000254 5050 A00C            0000C  1510     275.              ST    NR,LEN
 000258 1801                        1511     276.              LR    R0,R1                   TOKEN LENGTH
 00025A 1816                        1512     277.              LR    R1,PR                   TOKEN START
 00025C 18F0                        1513     278.              LR    R15,R0
 00025E 9240 A004      00004        1514     279.              MVI   KW,C' '                 CLEAR KW AREA
 000262 D206 A005 A004 00005 00004  1515     280.              MVC   KW+1(7),KW
 000268 D703 D000 D000 00000 00000  1516     281.              XC    PRTSTP,PRTSTP           CLEAR PUSH/POP STACK
 00026E 91E1 8052      00052        1517     282.              TM    FL,FSQS+FDQS+FPS+FISOL  QUOTE OR PAREN STRING?
 000272 4770 723C            0029C  1518     283.              BNZ   PRKW                    BR IF QUOTE OR PAREN STRING
 000276 1820                        1519     284.              LR    SR,R0                   COUNT
 000278 1831                        1520     285.              LR    TR,R1                   PTR
 00027A 95A9 3000      00000        1521     286.     MRECH    IF    (@TR,LE,'z'),'OI @TR,X"40"'  Convert to caps
 00027E 4730 7226            00286  1533             +
 000282 9640 3000      00000        1539             +
 000286 4130 3001            00001  1544     287.              LA    TR,@TR+1                MOVE PTR
 00028A 4620 721A            0027A  1545     288.              BCT   SR,MRECH                MORE?
 00028E 55F0 798C            009EC  1546     289.              CL    R15,=A(8)               MAX LEN IS 8
 000292 4720 723C            0029C  1547     290.              BH    PRKW                    BR IF TOO LONG
 000296 06F0                        1548     291.              BCTR  R15,0
 000298 44F0 750A            0056A  1549     292.              EX    R15,MVT                 MOVE KW
 00029C 1244                        1551     293.     PRKW     LTR   RR,RR                   ROUTINE?
 00029E 4770 7332            00392  1552     294.              BNZ   SETSR                   BR IF SO
 0002A2 5820 A018            00018  1553     295.              L     SR,PRT                  ROUTING TABLE
 0002A6 1222                        1554     296.              LTR   SR,SR
 0002A8 4770 7258            002B8  1555     297.              BNZ   KWSRCH                  BR IF ONE
 0002AC 5840 A014            00014  1556     298.              L     RR,RA
 0002B0 47F0 7336            00396  1557     299.              B     GORTN
                                    1558     300.
 0002B4 4123 2005            00005  1559     301.     KWNEX    LA    SR,@SR+5(TR)            TRY NEXT
 0002B8 91F8 2000      00000        1560     302.     KWSRCH   TM    @SR,FTBLE               TABLE END/PUSH/POP?
 0002BC 4710 72BC            0031C  1561     303.              BO    KWFND                   BR IF SO
 0002C0 4330 2000            00000  1562     304.              IC    TR,@SR                  EXTRACT (LEN-1)
 0002C4 5430 7990            009F0  1563     305.              N     TR,=X'00000007'
 0002C8 91E0 8052      00052        1564     306.              TM    FL,FSQS+FDQS+FPS        QUOTE OR PAREN STRING?
 0002CC 4770 72A4            00304  1565     307.              BNZ   NXTRY                   BR IF QUOTE OR PAREN STRING
 0002D0 1233                        1566     308.              LTR   TR,TR                   TEST TOKEN LEN
 0002D2 4770 727E            002DE  1567     309.              BNZ   COMPOK                  USER KW EXISTS
 0002D6 9540 2004      00004        1568     310.              CLI   @SR+4,C' '              BLANK?
 0002DA 4780 72BC            0031C  1569     311.              BE    KWFND                   YES
 0002DE 193F                        1570     312.     COMPOK   CR    TR,R15                  LEN OK?
 0002E0 4770 728C            002EC  1571     313.              BNE   QABBRV                  ABBREV?
 0002E4 4430 7510            00570  1572     314.              EX    TR,CLC                  COMPARE KEYWORDS
 0002E8 4780 72BC            0031C  1574     315.              BE    KWFND                   BR IF FOUND
 0002EC 9108 2000      00000        1575     316.     QABBRV   TM    @SR,FABBREV             TRY ABBREVIATION?
 0002F0 4780 72A4            00304  1576     317.              BZ    NXTRY                   NO
 0002F4 4900 79A4            00A04  1577     318.              CH    R0,=Y(3)                3-CHARS?
 0002F8 4740 72A4            00304  1578     319.              BL    NXTRY                   MUST BE AT LEAST 3
1VSCN     (VSCN00) (09:49) (22MAR04) ORVYL'S SCANNER                                                                        Page   15
0Current Usings:  (*,R7) (SA,R8) (SCANCB,R10) (PRTSTACK,R13)
0Loc    Object Code    Addr1 Addr2  Stmt Lv Lineno    Source Statement           (Hibal 5, Asmedit 3.3)  HLASM R4.0  2004/03/22 09.49
+___    ______ ____    _____ _____  ____ __ ______    ______ _________
00002FC 44F0 7510            00570  1579     320.              EX    R15,CLC                 EQUAL TO GIVEN LENGTH?
 000300 4780 72BC            0031C  1581     321.              BE    KWFND                   BR IF FOUND
 000304 9110 2000      00000        1582     322.     NXTRY    TM    @SR,FLIMIT              LIMIT?
 000308 4780 7254            002B4  1583     323.              BZ    KWNEX                   NO
 00030C 9160 2000      00000        1584     324.              TM    @SR,FINTEG+FINTEGP      INTEGER?
 000310 47B0 7254            002B4  1585     325.              BNM   KWNEX                   NO
 000314 4123 2009            00009  1586     326.              LA    SR,@SR+9(TR)            TRY NEXT
 000318 47F0 7258            002B8  1587     327.              B     KWSRCH
1VSCN     (VSCN00) (09:49) (22MAR04) ORVYL'S SCANNER                                                                        Page   16
0Current Usings:  (*,R7) (SA,R8) (SCANCB,R10) (PRTSTACK,R13)
0Loc    Object Code    Addr1 Addr2  Stmt Lv Lineno    Source Statement           (Hibal 5, Asmedit 3.3)  HLASM R4.0  2004/03/22 09.49
+___    ______ ____    _____ _____  ____ __ ______    ______ _________
000031C 941F 8052      00052        1589     329.     KWFND    NI    FL,255-FSQS-FDQS-FPS    RESET STRING SCAN
 000320 D203 8044 2000 00044 00000  1590     330.              MVC   TEMPD(4),@SR            TO TEMP BOUND
 000326 5840 8044            00044  1591     331.              L     RR,TEMPD                ROUTINE
 00032A 91F8 2000      00000        1592     332.              TM    @SR,FTBLE               END/PUSH/POP?
 00032E 4710 72E2            00342  1593     333.              BO    TSTLAST                 BR IF SO
 000332 9180 2000      00000        1594     334.              TM    @SR,FPARM               PARM?
 000336 4780 7336            00396  1595     335.              BZ    GORTN                   BR IF NOT
 00033A 9023 8030            00030  1596     336.              STM   SR,TR,WORD              SAVE SR/TR VALUES
 00033E 47F0 700C            0006C  1597     337.              B     SCANTOK                 FIND PARM
                                    1598     338.
 000342 9107 2000      00000        1599     339.     TSTLAST  TM    @SR,255-FTBLE           IS IT LAST
 000346 4710 7336            00396  1600     340.              BO    GORTN                   ALL ON, YES
 00034A 4740 7312            00372  1601     341.              BM    GOPOP                   MIXED, GO POP UP ONE LEVEL
                                    1602     342.     *
                                    1603     343.     * PUSH DOWN CURRENT SCAN TABLE POINTER
                                    1604     344.     *
 00034E 4120 2004            00004  1605     345.              LA    SR,@SR+4                SET FOR NEXT AFTER POP
 000352 4140 4000            00000  1606     346.              LA    RR,@RR                  FORM ADDRESS AND CHECK
 000356 1244                        1607     347.              LTR   RR,RR                   BR IF ADDRESS
 000358 4780 7258            002B8  1608     348.              BZ    KWSRCH                  BR IF NO TABLE TO PUSH TO
 00035C 58E0 D000            00000  1609     349.     GOPUSH1  L     R14,PRTSTP              STACK POINTER
 000360 41E0 E004            00004  1610     350.              LA    R14,@R14+4              NEXT ENTRY
 000364 50E0 D000            00000  1611     351.              ST    R14,PRTSTP              REPLACE STACK COUNT
 000368 502E D000            00000  1612     352.              ST    SR,PRTSTACK(R14)        SAVE CURRENT PRT POINTER
 00036C 1824                        1613     353.              LR    SR,RR                   SET NEW PRT ADDRESS
 00036E 47F0 7258            002B8  1614     354.              B     KWSRCH                  GO SEARCH THIS TABLE
                                    1615     355.     *
                                    1616     356.     * POP UP A SAVE SCAN TABLE POINTER -- IGNORE IF AT TOP LEVEL
                                    1617     357.     *
 000372 58E0 D000            00000  1618     358.     GOPOP    L     R14,PRTSTP              GET CURRENT STACK POINTER
 000376 5BE0 7988            009E8  1619     359.              S     R14,=A(4)               POP
 00037A 4740 732A            0038A  1620     360.              BM    NXTRY1                  IGNORE IF TOP LEVEL
 00037E 50E0 D000            00000  1621     361.              ST    R14,PRTSTP              PUT BACK STACK POINTER
 000382 582E D004            00004  1622     362.              L     SR,PRTSTACK+4(R14)      PICK UP OLD PRT POINTER
 000386 47F0 7258            002B8  1623     363.              B     KWSRCH                  BR TO CONTINUE SEARCH
                                    1624     364.
 00038A 4120 2001            00001  1625     365.     NXTRY1   LA    SR,@SR+1                STEP PAST IGNORED POP
 00038E 47F0 7258            002B8  1626     366.              B     KWSRCH                  CONTINUE IN SAME TABLE
1VSCN     (VSCN00) (09:49) (22MAR04) ORVYL'S SCANNER                                                                        Page   17
0Current Usings:  (*,R7) (SA,R8) (SCANCB,R10) (PRTSTACK,R13)
0Loc    Object Code    Addr1 Addr2  Stmt Lv Lineno    Source Statement           (Hibal 5, Asmedit 3.3)  HLASM R4.0  2004/03/22 09.49
+___    ______ ____    _____ _____  ____ __ ______    ______ _________
0000392 9823 8030            00030  1628     368.     SETSR    LM    SR,TR,WORD              RESET SR/TR VALUES
 000396 4140 4000            00000  1629     369.     GORTN    LA    RR,@RR                  CLEAR HI BYTE
 00039A 12E4                        1630     370.              LTR   R14,RR                  TEST EP
 00039C 4780 700C            0006C  1631     371.              BZ    SCANTOK                 BR IF NONE
 0003A0 9001 803C            0003C  1632     372.              STM   R0,R1,CPSAVE            SAVE PTRS
 0003A4 50F0 8038            00038  1633     373.              ST    R15,SV15                SAVE 15
 0003A8 1222                        1634     374.              LTR   SR,SR                   ROUTING TABLE?
 0003AA 4780 7362            003C2  1635     375.              BZ    NTCMV                   NO
 0003AE 95FF 2000      00000        1636     376.              CLI   @SR,FLAST               END?
 0003B2 4780 7362            003C2  1637     377.              BE    NTCMV                   BR IF SO
 0003B6 9160 2000      00000        1638     378.              TM    @SR,FLINNO              INTEGER OR LINE NO CONV?
 0003BA 4710 73D8            00438  1639     379.              BO    LINNOCV                 LINE NO. CONV
 0003BE 4740 73A8            00408  1640     380.              BM    INTGRCV                 INTEGER CONV
 0003C2                             1641     381.     NTCMV    DS    0H
 0003C2 41F0 A004            00004  1642     382.              LA    R15,KW                  KW PTR
 0003C6                             1643     383.     NOTKWPS  DS    0H
 0003C6 50F0 A000            00000  1644     384.              ST    R15,VAL                 SAVE VALUE
 0003CA 18FA                        1645     385.              LR    R15,SCANCBR             RESTORE R15
 USING  SCANCB,R15                  1646     386.              USING SCANCB,R15              ##
 DROP   SCANCB,R10                  1655     387.              DROP  SCANCBR                 ##
 0003CC 18E4                        1662     388.              LR    R14,RR                  SET EP
 0003CE 18D8                        1663     389.              LR    R13,8                   RESTORE STACK
 0003D0 982C D004            00004  1664     390.              LM    SR,R12,4(R13)
 0003D4 92FF F018      00018        1665     391.              MVI   PRT,X'FF'               SET OLD PRT
 0003D8 1200                        1666     392.              LTR   R0,R0                   SET CC
 0003DA 05EE                        1667     393.              BALR  R14,R14                 GO TO PARM ROUTINE
                                    1668     394.     * RETURN TO R14 TO CONTINUE SCAN
                                    1669     395.     * RETURN TO 4(R14) TO CONTINUE SCAN WIH NEW KWRT
 0003DC 9200 F018      00018        1670     396.              MVI   PRT,0                   SET TO USE OLD PRT
 0003E0 50E0 D000            00000  1671     397.              XENTER SR,R12,SASIZ                 SAVE
 0003E4 902C D004/188D       00004  1673             +
 0003EA 41D0 D054/0D70       00054  1675             +
 0003F0 5870 7604            009F4  1693     398.              L     7,=A(BASE)              RESTORE BASE
 DROP   *,R7
 USING  *,R7
 DROP   *,R7                        1694     399.              USING BASE,7                  ##
 USING  BASE,R7
 0003F4 18AF                        1706     400.              LR    SCANCBR,R15             SET SCAN WORK AREA
 DROP   SCANCB,R15                  1707     401.              DROP  R15                     ##
 USING  SCANCB,R10                  1714     402.              USING SCANCB,SCANCBR          ##
 0003F6 1B44                        1723     403.              SR    RR,RR                   NO ROUTINE
 0003F8 91FF A018      00018        1724     404.              TM    PRT,X'FF'               USE OLD PRT?
 0003FC 4780 700C            0006C  1725     405.              BZ    SCANTOK                 YES
 000400 5010 A018            00018  1726     406.              ST    R1,PRT                  NEW PRT SPECIFIED
 000404 47F0 700C            0006C  1727     407.              B     SCANTOK                 CONTINUE SCAN
1VSCN     (VSCN00) (09:49) (22MAR04) ORVYL'S SCANNER                                                                        Page   18
0Current Usings:  (BASE,R7) (SA,R8) (SCANCB,R10) (PRTSTACK,R13)
0Loc    Object Code    Addr1 Addr2  Stmt Lv Lineno    Source Statement           (Hibal 5, Asmedit 3.3)  HLASM R4.0  2004/03/22 09.49
+___    ______ ____    _____ _____  ____ __ ______    ______ _________
0                                   1729     409.     * DECIMAL TO BINARY CONV RTN FOR SCAN
                                    1730     410.     *
 000408 45E0 7464            004C4  1731     411.     INTGRCV  BAL   R14,DOINT               GO DO CV
 00040C 9120 2000      00000        1732     412.              TM    @SR,FINTEGP             POS INT?
 000410 4780 73BA            0041A  1733     413.              BZ    ANYI                    NO
 000414 1200                        1734     414.              LTR   R0,R0                   TEST INTEG
 000416 47D0 74A8            00508  1735     415.              BNP   BOO                     NG
 00041A 9110 2000      00000        1736     416.     ANYI     TM    @SR,FLIMIT              LIMIT?
 00041E 4780 7420            00480  1737     417.              BZ    NTRSET                  NO
 000422 5000 8044            00044  1738     418.              ST    R0,TEMPD                FOR CLC
 000426 4163 2005            00005  1739     419.              LA    PR,@SR+5(TR)            PT AT LIMIT
 00042A D503 8044 6000 00044 00000  1740     420.              CLC   TEMPD(4),@PR            CHECK LIMIT
 000430 47D0 7420            00480  1741     421.              BNH   NTRSET                  OK
 000434 47F0 74A8            00508  1742     422.              B     BOO                     NG
1VSCN     (VSCN00) (09:49) (22MAR04) ORVYL'S SCANNER                                                                        Page   19
0Current Usings:  (BASE,R7) (SA,R8) (SCANCB,R10) (PRTSTACK,R13)
0Loc    Object Code    Addr1 Addr2  Stmt Lv Lineno    Source Statement           (Hibal 5, Asmedit 3.3)  HLASM R4.0  2004/03/22 09.49
+___    ______ ____    _____ _____  ____ __ ______    ______ _________
0000438                             1744     424.     LINNOCV  DS    0H
 000438 1200                        1745     425.              LTR   R0,R0                   ANY STRING TO CONVERT?
 00043A 4780 7420            00480  1746     426.              BZ    NTRSET                  CALLER CAN TELL FROM CC
 00043E 5500 7998            009F8  1747     427.              CL    R0,=A(9)                MAX LEN IS 8
 000442 4720 74A8            00508  1748     428.              BH    BOO                     TOO BIG
 000446 1BFF                        1749     429.              SR    R15,R15                 ZERO COUNTER
 000448 1861                        1750     430.              LR    PR,R1                   PTR
 00044A 954B 6000      00000        1751     431.     CHKMR    CLI   @PR,C'.'                PERIOD?
 00044E 4780 7402            00462  1752     432.              BE    HVPRD                   YES
 000452 41F0 F001            00001  1753     433.              LA    R15,@R15+1              KICK COUNTER
 000456 4160 6001            00001  1754     434.              LA    PR,@PR+1                KICK PTR
 00045A 4600 73EA            0044A  1755     435.              BCT   R0,CHKMR                MORE?
 00045E 47F0 7406            00466  1756     436.              B     WHOL                    INTEGER LINE NO
                                    1757     437.
 000462 4600 742A            0048A  1758     438.     HVPRD    BCT   R0,CHKFR                FRACTION?
 000466 120F                        1759     439.     WHOL     LTR   R0,R15                  INTEG COUNT
 000468 47D0 74A8            00508  1760     440.              BNP   BOO                     "." NOT LEGAL
 00046C 1BFF                        1761     441.              SR    R15,R15                 ZERO FRACTION
 00046E 5500 799C            009FC  1762     442.     WHOLDO   CL    R0,=A(5)                4 IS MAX
 000472 4720 74A8            00508  1763     443.              BH    BOO
 000476 45E0 7464            004C4  1764     444.              BAL   R14,DOINT               CONV
 00047A 4C00 79A6            00A06  1765     445.              MH    R0,=H'1000'             SET INTEGER VALUE
 00047E 1A0F                        1766     446.              AR    R0,R15                  ADD FRACTION
 000480 18F0                        1767     447.     NTRSET   LR    R15,R0                  SET RETURN VALUE INTO R15
 000482 9801 803C            0003C  1768     448.              LM    R0,R1,CPSAVE            RESET PTRS
 000486 47F0 7366            003C6  1769     449.              B     NOTKWPS                 READY TO RETURN
                                    1770     450.
 00048A 5500 7988            009E8  1771     451.     CHKFR    CL    R0,=A(4)                3 IS MAX
 00048E 47B0 74A8            00508  1772     452.              BNL   BOO                     NG
 000492 D201 8045 79A8 00045 00A08  1773     453.              MVC   TEMPD+1(2),=C'00'       PUT ZEROS
 000498 18E0                        1774     454.              LR    R14,R0                  COUNT
 00049A 06E0                        1775     455.              BCTR  R14,0                   FOR EX
 00049C 44E0 745E            004BE  1776     456.              EX    R14,MVFR                MVC   TEMP(0),1(PR)
 0004A0 4100 0003            00003  1778     457.              LA    R0,3                    CV COUNT
 0004A4 4110 8044            00044  1779     458.              LA    R1,TEMPD                 PTR
 0004A8 45E0 7464            004C4  1780     459.              BAL   R14,DOINT               CV
 0004AC 125F                        1781     460.              LTR   NR,R15                  ANY INTEG COUNT?
 0004AE 47D0 7420            00480  1782     461.              BNP   NTRSET                  FIN
 0004B2 18F0                        1783     462.              LR    R15,R0                  SAVE FRAC
 0004B4 1805                        1784     463.              LR    R0,NR                   INTEG COUNT
 0004B6 5810 8040            00040  1785     464.              L     R1,CPSAVE+4             RESET START PTR
 0004BA 47F0 740E            0046E  1786     465.              B     WHOLDO                  INTEGER LINE NO
                                    1787     466.
 0004BE D200 8044 6001 00044 00001  1788     467.     MVFR     MVC   TEMPD(0),@PR+1
1VSCN     (VSCN00) (09:49) (22MAR04) ORVYL'S SCANNER                                                                        Page   20
0Current Usings:  (BASE,R7) (SA,R8) (SCANCB,R10) (PRTSTACK,R13)
0Loc    Object Code    Addr1 Addr2  Stmt Lv Lineno    Source Statement           (Hibal 5, Asmedit 3.3)  HLASM R4.0  2004/03/22 09.49
+___    ______ ____    _____ _____  ____ __ ______    ______ _________
00004C4                             1790     469.     DOINT    DS    0H
 0004C4 1200                        1791     470.              LTR   R0,R0                   ANY STRING TO CONVERT?
 0004C6 4780 7420            00480  1792     471.              BZ    NTRSET                  CALLER CAN TELL FROM CC
 0004CA 5500 798C            009EC  1793     472.              CL    R0,=A(8)                MAX LEN IS 7
 0004CE 47B0 74A8            00508  1794     473.              BNL   BOO                     NG
 0004D2 1850                        1795     474.              LR    NR,R0                   COUNT
 0004D4 1861                        1796     475.              LR    PR,R1                   PTR
 0004D6 95F0 1000      00000        1797     476.     CHNEXT   CLI   @R1,C'0'                TOO SMALL?
 0004DA 4740 74A8            00508  1798     477.              BL    BOO                     YES
 0004DE 95F9 1000      00000        1799     478.              CLI   @R1,C'9'                TOO BIG?
 0004E2 4720 74A8            00508  1800     479.              BH    BOO                     YES
 0004E6 4110 1001            00001  1801     480.              LA    R1,@R1+1                NEXT
 0004EA 4600 7476            004D6  1802     481.              BCT   R0,CHNEXT               MORE?
 0004EE 4110 804B            0004B  1803     482.              LA    R1,TEMPD+7              GET A DOUBLEWORD
 0004F2 5410 79A0            00A00  1804     483.              N     R1,=F'-8'               ROUND UP
 0004F6 0650                        1805     484.              BCTR  NR,0                    REDUCE FOR EX OF PACK
 0004F8 4450 74A2            00502  1806     485.              EX    NR,CHPACK               PACK
 0004FC 4F00 1000            00000  1808     486.              CVB   R0,@R1                  TO DOUBLEWORD TEMP
 000500 07FE                        1809     487.              BR    R14                     RETURN
                                    1810     488.
 000502 F270 1000 6000 00000 00000  1811     489.     CHPACK   PACK  @R1(8),@PR(*-*)         PACK NUMBER
1VSCN     (VSCN00) (09:49) (22MAR04) ORVYL'S SCANNER                                                                        Page   21
0Current Usings:  (BASE,R7) (SA,R8) (SCANCB,R10) (PRTSTACK,R13)
0Loc    Object Code    Addr1 Addr2  Stmt Lv Lineno    Source Statement           (Hibal 5, Asmedit 3.3)  HLASM R4.0  2004/03/22 09.49
+___    ______ ____    _____ _____  ____ __ ______    ______ _________
0000508                             1813     491.     BOO      DS    0H
 000508 1B44                        1814     492.              SR    RR,RR                    UNSET ROUTINE
 00050A 9856 A00C            0000C  1815     493.              LM    NR,PR,LEN                SET LOC AND LEN
 00050E 9801 803C            0003C  1816     494.              LM    R0,R1,CPSAVE             PTRS
 000512 9180 2000      00000        1817     495.              TM    @SR,FPARM                PARM?
 000516 58F0 8038            00038  1818     496.              L     R15,SV15                SET 15
 00051A 4780 72A4            00304  1819     497.              BZ    NXTRY                    NO
 00051E 1300                        1820     498.              LCR   R0,R0                    NEG
 000520 1B55                        1821     499.              SR    NR,NR                    FIN LINE
 000522 47F0 74EE            0054E  1822     500.              B     RTN                  %%
1VSCN     (VSCN00) (09:49) (22MAR04) ORVYL'S SCANNER                                                                        Page   22
0Current Usings:  (BASE,R7) (SA,R8) (SCANCB,R10) (PRTSTACK,R13)
0Loc    Object Code    Addr1 Addr2  Stmt Lv Lineno    Source Statement           (Hibal 5, Asmedit 3.3)  HLASM R4.0  2004/03/22 09.49
+___    ______ ____    _____ _____  ____ __ ______    ______ _________
0                                   1824     502.     *  TERMINAL PROCESSING
                                    1825     503.     *
 000526                             1826     504.     DONE     DS    0H
 000526 91E0 8052      00052        1827     505.              TM    FL,FSQS+FDQS+FPS        COLLECTING STRING?
 00052A 4770 706E            000CE  1828     506.              BNZ   ILLSTR                  ERROR IF SO
 00052E 1B00                        1829     507.              SR    R0,R0                   ZOT LOC AND LEN
 000530 1B11                        1830     508.              SR    R1,R1
 000532 9240 A004      00004        1831     509.              MVI   KW,C' '                 CLEAR KW
 000536 D206 A005 A004 00005 00004  1832     510.              MVC   KW+1(7),KW
 00053C 9101 8052      00052        1833     511.              TM    FL,FISOL                ISOLATING STRING?
 000540 4780 74E8            00548  1834     512.              BZ    DON1
 000544 9801 A00C            0000C  1835     513.              LM    R0,R1,LEN               USE LAST POINTERS
 000548 1244                        1836     514.     DON1     LTR   RR,RR                   PARM MISSING?
 00054A 4770 7332            00392  1837     515.              BNZ   SETSR                %% BR IF SO
 00054E 9056 A00C            0000C  1838     516.     RTN      STM   NR,PR,LEN               SAVE STRING PTR
 000552 58E0 A014            00014  1839     517.              L     R14,RA                  RETURN ADDR
 000556 41F0 A004            00004  1840     518.              LA    R15,KW
 00055A 50F0 A000            00000  1841     519.              ST    R15,VAL                 SAVE RETURN VALUE
 00055E 18FA                        1842     520.              LR    R15,SCANCBR             RESTORE R15
 000560 18D8                        1843     521.              LR    R13,8                   RESTORE STACK
 000562 982C D004            00004  1844     522.              LM    SR,R12,4(R13)
 000566 1200                        1845     523.              LTR   R0,R0
 000568 07FE                        1846     524.              BR    R14
1VSCN     (VSCN00) (09:49) (22MAR04) ORVYL'S SCANNER                                                                        Page   23
0Current Usings:  (BASE,R7) (SA,R8) (SCANCB,R10) (PRTSTACK,R13)
0Loc    Object Code    Addr1 Addr2  Stmt Lv Lineno    Source Statement           (Hibal 5, Asmedit 3.3)  HLASM R4.0  2004/03/22 09.49
+___    ______ ____    _____ _____  ____ __ ______    ______ _________
0                                   1848     526.     *  CONSTANTS
                                    1849     527.     *
 00056A D200 A004 1000 00004 00000  1850     528.     MVT      MVC   KW(0),@R1               MOVE TOKEN
 000570 D500 A004 2004 00004 00004  1851     529.     CLC      CLC   KW(0),@SR+4             COMPARE KEYWORDS
 DROP   SCANCB,R10                  1852     530.              DROP  SCANCBR,WAR,R13         ##
 DROP   SA,R8
 DROP   PRTSTACK,R13
1VSCN     (VSCN00) (09:49) (22MAR04) ORVYL'S SCANNER                                                                        Page   24
0Current Usings:  (BASE,R7)
0Loc    Object Code    Addr1 Addr2  Stmt Lv Lineno    Source Statement           (Hibal 5, Asmedit 3.3)  HLASM R4.0  2004/03/22 09.49
+___    ______ ____    _____ _____  ____ __ ______    ______ _________
0                                   1872     532.     *  DOUBLE QUOTE SCAN
                                    1873     533.     *
 000576 50E0 D000            00000  1874     534.     DQSCAN   XENTER SR,R12,*
 00057A 902C D004/188D       00004  1877             +
 000580 41D0 D030/0D70       00030  1879             +
 000586 0600                        1897     535.              BCTR  R0,0                    STRIP OFF OUTER QUOTES
 DROP   BASE,R7
 USING  *,R7
 000588 0600                        1898     536.              BCTR  R0,0
 00058A 1841                        1899     537.              LR    RR,R1                   REMEMBER KIND OF QUOTE
 00058C 4110 1001            00001  1900     538.              LA    R1,@R1+1
 000590 1861                        1901     539.              LR    PR,R1
 000592 1250                        1902     540.              LTR   NR,R0
 000594 47D0 7026            005AC  1903     541.              BNP   DQX                     BR IF NO STRING
 000598 D500 6000 4000 00000 00000  1904     542.     DQL      CLC   @PR(1),@RR              QUOTE?
 00059E 4780 7032            005B8  1905     543.              BE    QF                      BR IF SO
 0005A2 4160 6001            00001  1906     544.     DQLL     LA    PR,@PR+1                NEXT CHAR
 0005A6 4650 7012            00598  1907     545.              BCT   NR,DQL
 0005AA 1200                        1908     546.              LTR   R0,R0                   COURTESY
 0005AC 18D8/982C D004       00004  1909     547.     DQX      XEXIT SR,R12
 0005B2 58E0 D000/07FE       00000  1912             +
                                    1914     548.
 0005B8 0650                        1915     549.     QF       BCTR  NR,0
 0005BA 0650                        1916     550.              BCTR  NR,0
 0005BC 1255                        1917     551.              LTR   NR,NR
 0005BE 4740 7026            005AC  1918     552.              BM    DQX
 0005C2 0600                        1919     553.              BCTR  R0,0
 0005C4 4450 704A            005D0  1920     554.              EX    NR,MVSTR                ELIMINATE 2ND QUOTE
 0005C8 4150 5001            00001  1922     555.              LA    NR,@NR+1
 0005CC 47F0 701C            005A2  1923     556.              B     DQLL
                                    1924     557.
 0005D0 D200 6000 6001 00000 00001  1925     558.     MVSTR    MVC   @PR(*-*),@PR+1
1VSCN     (VSCN00) (09:49) (22MAR04) ORVYL'S SCANNER                                                                        Page   25
0Current Usings:  (*,R7)
0Loc    Object Code    Addr1 Addr2  Stmt Lv Lineno    Source Statement           (Hibal 5, Asmedit 3.3)  HLASM R4.0  2004/03/22 09.49
+___    ______ ____    _____ _____  ____ __ ______    ______ _________
0                                   1927     560.     *  TRANSLATE TABLES
                                    1928     561.     *
                                    1929     562.     *    LOWER TO UPPER CASE
                                    1930     563.     *
 0005D6 0001020304050607            1931     564.     LCUCT    DC    256AL1(*-LCUCT)
 0006D6                006D6 00657  1932     565.              ORG   LCUCT+X'81'
 000657 C1C2C3C4C5C6C7C8            1933     566.              DC    C'ABCDEFGHI'
 000660                00660 00667  1934     567.              ORG   LCUCT+X'91'
 000667 D1D2D3D4D5D6D7D8            1935     568.              DC    C'JKLMNOPQR'
 000670                00670 00678  1936     569.              ORG   LCUCT+X'A2'
 000678 E2E3E4E5E6E7E8E9            1937     570.              DC    C'STUVWXYZ'
 000680                00680 006D6  1938     571.              ORG
                                    1939     572.     *
                                    1940     573.     *    CLASS TABLES
                                    1941     574.     *
 0006D6 0000
 0006D8 000006E4000007E4            1942     575.     CLTS     DC    A(CLT0,CLT1,CLT2)
                                    1943     576.     *
                                    1944     577.     *    NORMAL SCAN TABLE
                                    1945     578.     *
 0006E4 0404040404040404            1946     579.     CLT0     DC    256AL1(4)
 0007E4                007E4 00765  1947     580.              ORG   CLT0+X'81'
 000765 0000000000000000            1948     581.              DC    9X'00'
 00076E                0076E 00775  1949     582.              ORG   CLT0+X'91'
 000775 0000000000000000            1950     583.              DC    9X'00'
 00077E                0077E 00786  1951     584.              ORG   CLT0+X'A2'
 000786 0000000000000000            1952     585.              DC    8X'00'
 00078E                0078E 007A5  1953     586.              ORG   CLT0+C'A'
 0007A5 0000000000000000            1954     587.              DC    9X'00'
 0007AE                007AE 007B5  1955     588.              ORG   CLT0+C'J'
 0007B5 0000000000000000            1956     589.              DC    9X'00'
 0007BE                007BE 007C6  1957     590.              ORG   CLT0+C'S'
 0007C6 0000000000000000            1958     591.              DC    8X'00'
 0007CE                007CE 007D4  1959     592.              ORG   CLT0+C'0'
 0007D4 0000000000000000            1960     593.              DC    10X'00'
 0007DE                007DE 0072F  1961     594.              ORG   CLT0+C'.'
 00072F 00                          1962     595.              DC    X'00'
 000730                00730 0073F  1963     596.              ORG   CLT0+C'$'
 00073F 00                          1964     597.              DC    X'00'
 000740                00740 00760  1965     598.              ORG   CLT0+C'@'
 000760 00                          1966     599.              DC    X'00'
 000761                00761 0075F  1967     600.              ORG   CLT0+C'#'
 00075F 00                          1968     601.              DC    X'00'
 000760                00760 00734  1969     602.              ORG   CLT0+C'&&'
 000734 00                          1970     603.              DC    X'00'
 000735                00735 00751  1971     604.              ORG   CLT0+C'_'
 000751 00                          1972     605.              DC    X'00'
 000752                00752 00732  1973     606.              ORG   CLT0+C'+'
 000732 18                          1974     607.              DC    AL1(24)
 000733                00733 00744  1975     608.              ORG   CLT0+C'-'
 000744 18                          1976     609.              DC    AL1(24)
 000745                00745 00733  1977     610.              ORG   CLT0+C'|'
 000733 18                          1978     611.              DC    AL1(24)
 000734                00734 00745  1979     612.              ORG   CLT0+C'/'
1VSCN     (VSCN00) (09:49) (22MAR04) ORVYL'S SCANNER                                                                        Page   26
0Current Usings:  (*,R7)
0Loc    Object Code    Addr1 Addr2  Stmt Lv Lineno    Source Statement           (Hibal 5, Asmedit 3.3)  HLASM R4.0  2004/03/22 09.49
+___    ______ ____    _____ _____  ____ __ ______    ______ _________
0000745 18                          1980     613.              DC    AL1(24)
 000746                00746 00743  1981     614.              ORG   CLT0+C'~'
 000743 18                          1982     615.              DC    AL1(24)
 000744                00744 00791  1983     616.              ORG   CLT0+C'['
 000791 00                          1984     617.              DC    X'00'                   MAKE IT A PRINTING CHAR
 000792                00792 007A1  1985     618.              ORG   CLT0+C']'
 0007A1 00                          1986     619.              DC    X'00'                   MAKE IT A PRINTING CHAR
 0007A2                007A2 007A4  1987     620.              ORG   CLT0+C'{'
 0007A4 00                          1988     621.              DC    X'00'                   MAKE IT A PRINTING CHAR
 0007A5                007A5 007B4  1989     622.              ORG   CLT0+C'}'
 0007B4 00                          1990     623.              DC    X'00'                   MAKE IT A PRINTING CHAR
 0007B5                007B5 007C4  1991     624.              ORG   CLT0+C'\'
 0007C4 00                          1992     625.              DC    X'00'                   MAKE IT A PRINTING CHAR
 0007C5                007C5 0075D  1993     626.              ORG   CLT0+C'`'
 00075D 00                          1994     627.              DC    X'00'                   MAKE IT A PRINGING CHAR
 00075E                0075E 0072E  1995     628.              ORG   CLT0+C'^'               CENT SIGN OR CARAT
 00072E 00                          1996     629.              DC    X'00'
 00072F                0072F 0073E  1997     630.              ORG   CLT0+C'!'               EXCLAMATION POINT
 00073E 00                          1998     631.              DC    X'00'
 00073F                0073F 00730  1999     632.              ORG   CLT0+C'<'
 000730 00                          2000     633.              DC    X'00'
 000731                00731 00752  2001     634.              ORG   CLT0+C'>'
 000752 00                          2002     635.              DC    X'00'
 000753                00753 0075E  2003     636.              ORG   CLT0+C':'
 00075E 00                          2004     637.              DC    X'00'
 00075F                0075F 00750  2005     638.              ORG   CLT0+C'%'
 000750 00                          2006     639.              DC    X'00'
 000751                00751 00753  2007     640.              ORG   CLT0+C'?'
 000753 00                          2008     641.              DC    X'00'
 000754                00754 00740  2009     642.              ORG   CLT0+C'*'
 000740 00                          2010     643.              DC    X'00'
 000741                00741 00724  2011     644.              ORG   CLT0+C' '               A SPACE
 000724 04                          2012     645.              DC    AL1(4)                   IS
 000725                00725 0074F  2013     646.              ORG   CLT0+C','                 A COMMA
 00074F 04                          2014     647.              DC    AL1(4)                     IS
 000750                00750 00762  2015     648.              ORG   CLT0+C'='                   AN EQUALS
 000762 04                          2016     649.              DC    AL1(4)                       SIGN
 000763                00763 00761  2017     650.              ORG   CLT0+C''''
 000761 08                          2018     651.              DC    AL1(8)
 000762                00762 00763  2019     652.              ORG   CLT0+C'"'
 000763 0C                          2020     653.              DC    AL1(12)
 000764                00764 00731  2021     654.              ORG   CLT0+C'('
 000731 10                          2022     655.              DC    AL1(16)
 000732                00732 00741  2023     656.              ORG   CLT0+C')'
 000741 14                          2024     657.              DC    AL1(20)
 000742                00742 00742  2025     658.              ORG   CLT0+C';'
 000742 1C                          2026     659.              DC    AL1(28)
 000743                00743 007E4  2027     660.              ORG
                                    2028     661.     *
                                    2029     662.     *  SCAN TABLE FOR ISOLATING STRING (BOUNDED BY BLANK OR COMMA)
                                    2030     663.     *
 0007E4 0000000000000000            2031     664.     CLT1     DC    256AL1(0)
 0008E4                008E4 00824  2032     665.              ORG   CLT1+C' '
 000824 04                          2033     666.              DC    AL1(4)
1VSCN     (VSCN00) (09:49) (22MAR04) ORVYL'S SCANNER                                                                        Page   27
0Current Usings:  (*,R7)
0Loc    Object Code    Addr1 Addr2  Stmt Lv Lineno    Source Statement           (Hibal 5, Asmedit 3.3)  HLASM R4.0  2004/03/22 09.49
+___    ______ ____    _____ _____  ____ __ ______    ______ _________
0000825                00825 0084F  2034     667.              ORG   CLT1+C','
 00084F 04                          2035     668.              DC    AL1(4)
 000850                00850 00862  2036     669.              ORG   CLT1+C'='
 000862 04                          2037     670.              DC    AL1(4)
 000863                00863 00861  2038     671.              ORG   CLT1+C''''
 000861 08                          2039     672.              DC    AL1(8)
 000862                00862 00863  2040     673.              ORG   CLT1+C'"'
 000863 0C                          2041     674.              DC    AL1(12)
 000864                00864 00831  2042     675.              ORG   CLT1+C'('
 000831 10                          2043     676.              DC    AL1(16)
 000832                00832 00841  2044     677.              ORG   CLT1+C')'
 000841 14                          2045     678.              DC    AL1(20)
 000842                00842 00842  2046     679.              ORG   CLT1+C';'
 000842 1C                          2047     680.              DC    AL1(28)
 000843                00843 008E4  2048     681.              ORG
                                    2049     682.     *
                                    2050     683.     *  TABLE FOR SCANNING EXPRESSIONS
                                    2051     684.     *
 0008E4 1818181818181818            2052     685.     CLT2     DC    256AL1(24)
 0009E4                009E4 00965  2053     686.              ORG   CLT2+X'81'
 000965 0000000000000000            2054     687.              DC    9X'00'
 00096E                0096E 00975  2055     688.              ORG   CLT2+X'91'
 000975 0000000000000000            2056     689.              DC    9X'00'
 00097E                0097E 00986  2057     690.              ORG   CLT2+X'A2'
 000986 0000000000000000            2058     691.              DC    8X'00'
 00098E                0098E 009A5  2059     692.              ORG   CLT2+C'A'
 0009A5 0000000000000000            2060     693.              DC    9X'00'
 0009AE                009AE 009B5  2061     694.              ORG   CLT2+C'J'
 0009B5 0000000000000000            2062     695.              DC    9X'00'
 0009BE                009BE 009C6  2063     696.              ORG   CLT2+C'S'
 0009C6 0000000000000000            2064     697.              DC    8X'00'
 0009CE                009CE 009D4  2065     698.              ORG   CLT2+C'0'
 0009D4 0000000000000000            2066     699.              DC    10X'00'
 0009DE                009DE 0092F  2067     700.              ORG   CLT2+C'.'
 00092F 00                          2068     701.              DC    X'00'
 000930                00930 0093F  2069     702.              ORG   CLT2+C'$'
 00093F 00                          2070     703.              DC    X'00'
 000940                00940 00960  2071     704.              ORG   CLT2+C'@'
 000960 00                          2072     705.              DC    X'00'
 000961                00961 0095F  2073     706.              ORG   CLT2+C'#'
 00095F 00                          2074     707.              DC    X'00'
 000960                00960 00951  2075     708.              ORG   CLT2+C'_'
 000951 00                          2076     709.              DC    X'00'
 000952                00952 00961  2077     710.              ORG   CLT2+C''''
 000961 08                          2078     711.              DC    AL1(8)
 000962                00962 00963  2079     712.              ORG   CLT2+C'"'
 000963 0C                          2080     713.              DC    AL1(12)
 000964                00964 00942  2081     714.              ORG   CLT2+C';'
 000942 1C                          2082     715.              DC    AL1(28)
 000943                00943 009E4  2083     716.              ORG
1VSCN     (VSCN00) (09:49) (22MAR04) ORVYL'S SCANNER                                                                        Page   28
0Current Usings:  (*,R7)
0Loc    Object Code    Addr1 Addr2  Stmt Lv Lineno    Source Statement           (Hibal 5, Asmedit 3.3)  HLASM R4.0  2004/03/22 09.49
+___    ______ ____    _____ _____  ____ __ ______    ______ _________
00009E8                             2085     718.              LTORG
 0009E8 00000004                    2087                             =A(4)
 0009EC 00000008                    2088                             =A(8)
 0009F0 00000007                    2089                             =X'00000007'
 0009F4 00000060                    2090                             =A(BASE)
 0009F8 00000009                    2091                             =A(9)
 0009FC 00000005                    2092                             =A(5)
 000A00 FFFFFFF8                    2093                             =F'-8'
 000A04 0003                        2094                             =Y(3)
 000A06 03E8                        2095                             =H'1000'
 000A08 F0F0           00A0A 00A10  2096                             =C'00'
1VSCN     (VSCN00) (09:49) (22MAR04) ORVYL'S SCANNER                                                                        Page   29
0Current Usings:  (*,R7)
0Loc    Object Code    Addr1 Addr2  Stmt Lv Lineno    Source Statement           (Hibal 5, Asmedit 3.3)  HLASM R4.0  2004/03/22 09.49
+___    ______ ____    _____ _____  ____ __ ______    ______ _________
0000A10                00A10 00A10  2101     720.              END   .

1VSCN     (VSCN00) (09:49) (22MAR04) Ordinary Symbol and Literal Cross Reference                                            Page   30
-Symbol   Length   Value     Id    R Type   Defn References                                  HLASM R4.0  2004/03/22 09.49
0$$$@R10       1 00000000 FFFFFFF4     J     836 1129
 $$$@R2        1 00000000 FFFFFFFC     J     732 1025
 $$$@R3        1 00000000 FFFFFFFB     J     745 1038
 $$$@R4        1 00000000 FFFFFFFA     J     758 1051
 $$$@R5        1 00000000 FFFFFFF9     J     771 1064
 $$$@R6        1 00000000 FFFFFFF8     J     784 1077
 $$$@R7        1 00000000 FFFFFFF7     J     797 1090
 $$$@R8        1 00000000 FFFFFFF6     J     810 1103
 $$$@R9        1 00000000 FFFFFFF5     J     823 1116
 $$$C1VSCN
               1 00000A0A 00000001     J    2097 2099
 $$$C2VSCN
               1 00000A10 00000001     J    2104 2106
 $$$RPRTSTACK
               1 00000000 FFFFFFED     J    1184 1198  1198
 $$$RSA        1 00000000 FFFFFFEE     J    1141 1168  1168
 $$$RSCANCB
               1 00000000 FFFFFFEC     J    1205 1230  1230
 $$$0B         1 00000060 00000001     X    1314 1321U
 $$$2F         2 00000286 00000001     H    1543 1533B
 $$$6B         1 000003F0 00000001     X    1681 1691U
 $$$9B         1 00000586 00000001     X    1885 1895U
 @NR           0 00000000 FFFFFFF9     @    1065 1922
 @PR           0 00000000 FFFFFFF8     @    1078 1346  1364  1423  1430  1449  1740  1751  1754  1788  1811  1904  1906
                                                 1925M 1925
 @RR           0 00000000 FFFFFFFA     @    1052 1606  1629  1904
 @R0           0 00000000 FFFFFFFE     @     707  983U
 @R1           0 00000000 FFFFFFFD     @     720  979U 1258  1385  1404  1420  1446  1487  1492  1499  1797  1799  1801
                                                 1808  1811M 1850  1900
 @R10          0 00000000 FFFFFFF4     @     837  943U 1660U 1857U
 @R11          0 00000000 FFFFFFF3     @     850  939U
 @R12          0 00000000 FFFFFFF2     @     863  935U
 @R13          0 00000000 FFFFFFF1     @     876  931U 1280M 1283  1869U
 @R14          0 00000000 FFFFFFF0     @     889  927U 1610
 @R15          0 00000000 FFFFFFEF     @     902  923U 1291U 1364  1712U 1753
 @R2           0 00000000 FFFFFFFC     @     733  975U
 @R3           0 00000000 FFFFFFFB     @     746  971U
 @R4           0 00000000 FFFFFFFA     @     759  967U
 @R5           0 00000000 FFFFFFF9     @     772  963U
 @R6           0 00000000 FFFFFFF8     @     785  959U
 @R7           0 00000000 FFFFFFF7     @     798  955U 1688U 1701U 1892U
 @R8           0 00000000 FFFFFFF6     @     811  951U 1863U
 @R9           0 00000000 FFFFFFF5     @     824  947U
 @SR           0 00000000 FFFFFFFC     @    1026 1470  1559  1560  1562  1568  1575  1582  1584  1586  1590  1592  1594
                                                 1599  1605  1625  1636  1638  1732  1736  1739  1817  1851
 @TR           0 00000000 FFFFFFFB     @    1039 1532  1539M 1544
 ANYI          4 0000041A 00000001     I    1736 1733B
 BASE          2 00000060 00000001     H    1323 1704U 2090
 BLKCOM        4 000000E0 00000001     I    1381 1357B
 BOO           2 00000508 00000001     H    1813 1735B 1742B 1748B 1760B 1763B 1772B 1794B 1798B 1800B
 CB            4 00000000 FFFFFFEC     F    1212 1223
 CDQ           2 0000019A 00000001     I    1444 1438B
 CHKFR         4 0000048A 00000001     I    1771 1758B
 CHKMR         4 0000044A 00000001     I    1751 1755B
 CHNEXT        4 000004D6 00000001     I    1797 1802B
1VSCN     (VSCN00) (09:49) (22MAR04) Ordinary Symbol and Literal Cross Reference                                            Page   31
 CHPACK        6 00000502 00000001     I    1811 1807X
 CLC           6 00000570 00000001     I    1851 1573X 1580X
 CLT           4 0000001C FFFFFFEC     A    1219 1260M 1260  1268  1281  1283M 1343  1350
 CLTS          4 000006D8 00000001     A    1942 1351
 CLT0          1 000006E4 00000001     R    1946 1942  1947  1949  1951  1953  1955  1957  1959  1961  1963  1965  1967
                                                 1969  1971  1973  1975  1977  1979  1981  1983  1985  1987  1989  1991
                                                 1993  1995  1997  1999  2001  2003  2005  2007  2009  2011  2013  2015
                                                 2017  2019  2021  2023  2025
 CLT1          1 000007E4 00000001     R    2031 1942  2032  2034  2036  2038  2040  2042  2044  2046
 CLT2          1 000008E4 00000001     R    2052 1942  2053  2055  2057  2059  2061  2063  2065  2067  2069  2071  2073
                                                 2075  2077  2079  2081
 COMPOK        2 000002DE 00000001     I    1570 1567B
 CPSAVE        4 0000003C FFFFFFEE     F    1151 1632M 1768  1785  1816
 CSQ           2 0000014A 00000001     I    1418 1412B
 DOINT         2 000004C4 00000001     H    1790 1731B 1764B 1780B
 DONE          2 00000526 00000001     H    1826 1348B 1508B
 DON1          2 00000548 00000001     I    1836 1834B
 DQL           6 00000598 00000001     I    1904 1907B
 DQLL          4 000005A2 00000001     I    1906 1923B
 DQSCAN        4 00000576 00000001     I    1876 1875
 DQUOTE        4 0000017A 00000001     I    1435 1359B
 DQX           2 000005AC 00000001     I    1910 1903B 1918B
 EOS           4 000000C6 00000001     I    1369 1356B
 FABBREV       1 00000008 00000001 A   U    1180 1575
 FDQS          1 00000040 FFFFFFEE A   U    1157 1369  1381  1391  1400  1409  1427  1437  1441  1455  1476  1517  1564
                                                 1589  1827
 FINTEG        1 00000040 00000001 A   U    1176 1584
 FINTEGP       1 00000020 00000001 A   U    1177 1584  1732
 FISOL         1 00000001 FFFFFFEE A   U    1159 1345  1425  1461  1517  1833
 FL            1 00000052 FFFFFFEE     X    1154 1342M 1345M 1369  1381  1391  1400  1409  1411  1415M 1425  1427M 1435
                                                 1437  1441M 1455  1457  1461  1464M 1476  1478  1517  1564  1589M 1827
                                                 1833
 FLAST         1 000000FF 00000001 A   U    1173 1636
 FLIMIT        1 00000010 00000001 A   U    1179 1582  1736
 FLINNO        1 00000060 00000001 A   U    1175 1638
 FPARM         1 00000080 00000001 A   U    1174 1594  1817
 FPS           1 00000020 FFFFFFEE A   U    1158 1369  1381  1391  1400  1409  1427  1435  1457  1464  1478  1517  1564
                                                 1589  1827
 FSQS          1 00000080 FFFFFFEE A   U    1156 1369  1381  1391  1400  1411  1415  1427  1435  1455  1476  1517  1564
                                                 1589  1827
 FTBLE         1 000000F8 00000001 A   U    1172 1560  1592  1599
 GOPOP         4 00000372 00000001     I    1618 1601B
 GORTN         4 00000396 00000001     I    1629 1557B 1595B 1600B
 GOSTRING      2 00000222 00000001     I    1490 1382B 1392B 1401B 1410B 1416B 1436B 1442B 1456B 1467B 1472B 1477B 1484B
 HIBAL         1 00000000 FFFFFFFF     J     692  708   721   734   747   760   773   786   799   812   825   838   851
                                                  864   877   890   903
 HVPRD         4 00000462 00000001     I    1758 1752B
 ILLPS         4 0000022E 00000001     I    1495 1479B
 ILLSTR        2 000000CE 00000001     I    1371 1828B
 INP           4 000001E4 00000001     I    1469 1458B
 INTGRCV       4 00000408 00000001     I    1731 1640B
 ISOLAT        4 00000160 00000001     I    1425 1451B 1489B
 KW            8 00000004 FFFFFFEC     C    1214 1514M 1515M 1515  1642  1831M 1832M 1832  1840  1850M 1851
 KWFND         4 0000031C 00000001     I    1589 1561B 1569B 1574B 1581B
 KWNEX         4 000002B4 00000001     I    1559 1583B 1585B
 KWSRCH        4 000002B8 00000001     I    1560 1555B 1587B 1608B 1614B 1623B 1626B
 LCUCT         1 000005D6 00000001     R    1931 1931  1932  1934  1936
 LEN           4 0000000C FFFFFFEC     A    1215 1259M 1271  1341  1386M 1395M 1505  1510M 1815  1835  1838M
 LINNOCV       2 00000438 00000001     H    1744 1639B
1VSCN     (VSCN00) (09:49) (22MAR04) Ordinary Symbol and Literal Cross Reference                                            Page   32
 LOC           4 00000010 FFFFFFEC     A    1216 1374  1383  1394  1402  1413  1439  1459  1495  1497  1506M
 LPAR          4 000001B4 00000001     I    1455 1360B
 LPAR1ST       4 000001D4 00000001     I    1464 1460B
 MRECH         2 0000027A 00000001     H    1523 1545B
 MVFR          6 000004BE 00000001     I    1788 1777X
 MVS           2 00000170 00000001     I    1429 1424B 1450B
 MVSTR         6 000005D0 00000001     I    1925 1921X
 MVT           6 0000056A 00000001     I    1850 1550X
 NOTKWPS       2 000003C6 00000001     H    1643 1769B
 NR            5 00000005 00000001 A   #    1058 1341M 1346  1347M 1347  1352M 1354  1371M 1371  1386  1393M 1394M 1395
                                                 1418M 1419M 1429M 1444M 1445M 1485M 1486M 1490M 1491M 1498M 1505M 1509M
                                                 1510  1781M 1784  1795M 1805M 1807  1815M 1821M 1821  1838  1902M 1907M
                                                 1915M 1916M 1917M 1917  1921  1922M
 NTCMV         2 000003C2 00000001     H    1641 1635B 1637B
 NTRSET        2 00000480 00000001     I    1767 1737B 1741B 1746B 1782B 1792B
 NXTRY         4 00000304 00000001     I    1582 1565B 1576B 1578B 1819B
 NXTRY1        4 0000038A 00000001     I    1625 1620B
 PCNT          2 00000050 FFFFFFEE     H    1153 1466M 1469  1471M 1480  1482M
 PR            6 00000006 00000001 A   #    1071 1341M 1372M 1385M 1386  1418  1421M 1430M 1444  1447M 1485  1488M 1491
                                                 1492M 1499M 1500M 1505M 1507  1512  1739M 1750M 1754M 1796M 1815M 1838
                                                 1901M 1906M
 PRKW          2 0000029C 00000001     I    1551 1518B 1547B
 PRT           4 00000018 FFFFFFEC     A    1218 1339M 1553  1665M 1670M 1724  1726M
 PRTSTACK      8 00000000 FFFFFFED     J    1198 1301U 1612M 1622
 PRTSTP        4 00000000 FFFFFFED     A    1190 1516M 1516  1609  1611M 1618  1621M
 QABBRV        4 000002EC 00000001     I    1575 1571B
 QF            2 000005B8 00000001     I    1915 1905B
 RA            4 00000014 FFFFFFEC     A    1217 1338M 1556  1839
 RPAR          4 000001F4 00000001     I    1476 1361B
 RR            4 00000004 00000001 A   #    1045 1340M 1340  1551M 1551  1556M 1591M 1606M 1607M 1607  1613  1629M 1630
                                                 1662  1723M 1723  1814M 1814  1836M 1836  1899M
 RTN           4 0000054E 00000001     I    1838 1377B 1501B 1822B
 R0            0 00000000 FFFFFFFF A   #     700 1259  1271M 1373M 1375M 1376M 1376  1495M 1496M 1498  1500  1511M 1513
                                                 1519  1577  1632  1666M 1666  1734M 1734  1738  1745M 1745  1747  1755M
                                                 1758M 1759M 1762  1765M 1766M 1767  1768M 1771  1774  1778M 1783  1784M
                                                 1791M 1791  1793  1795  1802M 1808M 1816M 1820M 1820  1829M 1829  1835M
                                                 1845M 1845  1897M 1898M 1902  1908M 1908  1919M
 R1            1 00000001 FFFFFFFF A   #     713 1258M 1259  1268M 1269M 1270  1271M 1279M 1280  1281M 1282M 1339  1346M
                                                 1372  1373  1374M 1375  1383  1393  1402  1404M 1413  1419  1420M 1421
                                                 1439  1445  1446M 1447  1459  1486  1487M 1488  1490  1496  1497M 1506
                                                 1507M 1509  1511  1512M 1520  1632  1726  1750  1768M 1779M 1785M 1796
                                                 1801M 1803M 1804M 1816M 1830M 1830  1835M 1899  1900M 1901
 R12          12 0000000C FFFFFFFF A   #     856 1306  1664M 1673  1844M 1877  1879  1879  1879  1911M
 R13          13 0000000D FFFFFFFF A   #     869 1301U 1663M 1664  1843M 1844
 R14          14 0000000E FFFFFFFF A   #     882 1261B 1272B 1284B 1338  1609M 1610M 1611  1612  1618M 1619M 1621  1622
                                                 1630M 1662M 1667M 1667B 1731M 1764M 1774M 1775M 1777  1780M 1809B 1839M
                                                 1846B
 R15          15 0000000F FFFFFFFF A   #     895 1251U 1324  1350M 1351M 1351  1513M 1546  1548M 1550  1570  1580  1633
                                                 1642M 1644  1645M 1653U 1706  1749M 1749  1753M 1759  1761M 1761  1766
                                                 1767M 1781  1783M 1818M 1840M 1841  1842M
 SA           84 00000000 FFFFFFEE     J    1168 1161  1242U
 SASIZ         1 00000054 FFFFFFEE A   U    1161 1308  1675
 SCAN          4 00000050 00000001     I    1305 1304
 SCANCB       32 00000000 FFFFFFEC     J    1230 1251U 1332U 1653U 1721U
 SCANCBR      10 0000000A 00000001 A   #    1123 1324M 1332U 1645  1706M 1721U 1842
 SCANON        4 00000082 00000001     I    1346 1344B 1387B 1428B 1431B 1493B
 SCANTOK       4 0000006C 00000001     I    1341 1597B 1631B 1725B 1727B
 SCINIT        2 00000016 00000001     H    1257 1256
 SCTELL        2 00000026 00000001     H    1267 1266
1VSCN     (VSCN00) (09:49) (22MAR04) Ordinary Symbol and Literal Cross Reference                                            Page   33
 SCTYPE        2 00000038 00000001     H    1278 1277
 SEMI          4 000000FC 00000001     I    1391 1363B
 SETSR         4 00000392 00000001     I    1628 1552B 1837B
 SLASH         4 00000112 00000001     I    1400 1362B
 SQUOTE        4 0000012A 00000001     I    1409 1358B
 SR            2 00000002 00000001 A   #    1019 1306  1465M 1466  1469M 1470M 1471  1480M 1481M 1482  1483M 1483  1519M
                                                 1545M 1553M 1554M 1554  1559M 1586M 1596  1605M 1612  1613M 1622M 1625M
                                                 1628M 1634M 1634  1664M 1673  1844M 1877  1879  1879  1879  1911M
 SV15          4 00000038 FFFFFFEE     F    1150 1633M 1818
 TEMPD         4 00000044 FFFFFFEE     F    1152 1590M 1591  1738M 1740  1773M 1779  1788M 1803
 TOKEN         4 00000244 00000001     I    1505 1370B 1384B 1396B 1403B 1405B 1414B 1422B 1426B 1440B 1448B 1462B
 TR            3 00000003 00000001 A   #    1032 1520M 1544M 1559  1562M 1563M 1566M 1566  1570  1573  1586  1596  1628M
                                                 1739
 TRT           6 000000C0 00000001     I    1364 1354X
 TSTLAST       4 00000342 00000001     I    1599 1593B
 VAL           4 00000000 FFFFFFEC     A    1213 1270M 1644M 1841M
 VSCN          1 00000000 00000001     J     994  996  1027  1040  1053  1066  1079  1092  1105  1118  1131  1169  1199
                                                 1231
 VSCN00        1 00000000 00000001     R    1003 1001
 WAR           8 00000008 00000001 A   #    1097 1242U
 WHOL          2 00000466 00000001     I    1759 1756B
 WHOLDO        4 0000046E 00000001     I    1762 1786B
 WORD          4 00000030 FFFFFFEE     F    1149 1596M 1628
 =A(BASE)      4 000009F4 00000001     A    2090 1693
 =A(4)         4 000009E8 00000001     A    2087 1343  1619  1771
 =A(5)         4 000009FC 00000001     A    2092 1762
 =A(8)         4 000009EC 00000001     A    2088 1546  1793
 =A(9)         4 000009F8 00000001     A    2091 1747
 =C'00'        2 00000A08 00000001     C    2096 1773
 =F'-8'        4 00000A00 00000001     F    2093 1804
 =H'1000'      2 00000A06 00000001     H    2095 1765
 =X'00000007'
               4 000009F0 00000001     X    2089 1563
 =Y(3)         2 00000A04 00000001     Y    2094 1577

1VSCN     (VSCN00) (09:49) (22MAR04) Macro and Copy Code Source Summary                                                     Page   34
- Con Source                                        Volume    Members                        HLASM R4.0  2004/03/22 09.49
0     PRIMARY INPUT                                           CSECT    DROP     END      EX       LTORG    POP
                                                              PRINT    PUSH     START    USING
   L2 WYL.GG.SYS.MACLIB                             SYSB05    $CCLKUP  $CSS     $LEXP    $REL     $RGLKUP  $USLKUP  BASE
                                                              BEGIN    CSECT    DEFCC    DROP     END      EX       GEN
                                                              HIBAL    IDENT    IF       LABEL    LTORG    POP
                                                              PRINT    PUSH     RECORD   REG      REGS     START
                                                              USING
   L3 WYL.GG.ORV.BC.MACLIB                          SYSB02    ORVDEFN  SCANCB   XENTER   XEXIT
   L4 SYS3.IS.MACLIB                                SYSB05    SYSDEFN

1         (VSCN00) (09:49) (22MAR04) General Purpose Register Cross Reference                                               Page   35
- Register  References (M=modified, B=branch, U=USING, D=DROP, N=index)                      HLASM R4.0  2004/03/22 09.49
0    0(0)     983U  984D 1259  1271M 1373M 1375M 1376M 1376  1495M 1496M 1498  1500  1511M 1513  1519  1577  1632  1666M
             1666  1734M 1734  1738  1745M 1745  1747  1755M 1758M 1759M 1762  1765M 1766M 1767  1768M 1771  1774  1778M
             1783  1784M 1791M 1791  1793  1795  1802M 1808M 1816M 1820M 1820  1829M 1829  1835M 1845M 1845  1897M 1898M
             1902  1908M 1908  1919M
     1(1)     979U 1258M 1259  1268M 1269M 1270  1271M 1279M 1280  1281M 1282M 1339  1346M 1364M 1372  1373  1374M 1375
             1383  1393  1402  1404M 1413  1419  1420M 1421  1439  1445  1446M 1447  1459  1486  1487M 1488  1490  1496
             1497M 1506  1507M 1509  1511  1512M 1520  1632  1726  1750  1768M 1779M 1785M 1796  1801M 1803M 1804M 1816M
             1830M 1830  1835M 1899  1900M 1901
     2(2)     975U 1306  1349M 1349  1355N 1364M 1465M 1466  1469M 1470M 1471  1480M 1481M 1482  1483M 1483  1519M 1545M
             1553M 1554M 1554  1559M 1586M 1596  1605M 1612  1613M 1622M 1625M 1628M 1634M 1634  1664M 1673  1844M 1877
             1911M
     3(3)     971U 1306  1520M 1544M 1559N 1562M 1563M 1566M 1566  1570  1573  1586N 1596  1628M 1664M 1673  1739N 1844M
             1877  1911M
     4(4)     967U 1306  1340M 1340  1551M 1551  1556M 1591M 1606M 1607M 1607  1613  1629M 1630  1662  1664M 1673  1723M
             1723  1814M 1814  1836M 1836  1844M 1877  1899M 1911M
     5(5)     963U 1306  1341M 1346N 1347M 1347  1352M 1354  1371M 1371  1386  1393M 1394M 1395  1418M 1419M 1429M 1444M
             1445M 1485M 1486M 1490M 1491M 1498M 1505M 1509M 1510  1664M 1673  1781M 1784  1795M 1805M 1807  1815M 1821M
             1821  1838  1844M 1877  1902M 1907M 1911M 1915M 1916M 1917M 1917  1921  1922M
     6(6)     959U 1306  1341M 1372M 1385M 1386  1418  1421M 1430M 1444  1447M 1485  1488M 1491  1492M 1499M 1500M 1505M
             1507  1512  1664M 1673  1739M 1750M 1754M 1796M 1815M 1838  1844M 1877  1901M 1906M 1911M
     7(7)     955U 1306  1311M 1321U 1664M 1673  1678M 1688U 1691U 1693M 1701U 1704U 1844M 1877  1882M 1892U 1895U 1911M
     8(8)     951U 1242U 1306  1307M 1663  1664M 1673  1674M 1843  1844M 1863U 1877  1878M 1910  1911M
     9(9)     947U 1306  1664M 1673  1844M 1877  1911M
    10(A)     943U 1306  1324M 1332U 1645  1660U 1664M 1673  1706M 1721U 1842  1844M 1857U 1877  1911M
    11(B)     939U 1306  1664M 1673  1844M 1877  1911M
    12(C)     935U 1306  1664M 1673  1844M 1877  1911M
    13(D)     931U 1301U 1305  1306  1307  1308M 1308  1663M 1664  1672  1673  1674  1675M 1675  1843M 1844  1869U 1876
             1877  1878  1879M 1879  1910M 1911  1912
    14(E)     927U 1261B 1272B 1284B 1305  1338  1609M 1610M 1611  1612N 1618M 1619M 1621  1622N 1630M 1662M 1667M 1667B
             1672  1731M 1764M 1774M 1775M 1777  1780M 1809B 1839M 1846B 1876  1912M 1913B
    15(F)     923U 1251U 1291U 1324  1350M 1351M 1351N 1513M 1546  1548M 1550  1570  1580  1633  1642M 1644  1645M 1653U
             1706  1712U 1749M 1749  1753M 1759  1761M 1761  1766  1767M 1781  1783M 1818M 1840M 1841  1842M

1VSCN     (VSCN00) (09:49) (22MAR04) Diagnostic Cross Reference and Assembler Summary                                       Page   36
-                                                                                            HLASM R4.0  2004/03/22 09.49
0     No Statements Flagged in this Assembly
 HIGH LEVEL ASSEMBLER, 5696-234, RELEASE 4.0, PTF UQ57391
0SYSTEM: OS/390 02.10.00            JOBNAME: PJG#VSCN    STEPNAME: ASM        PROCSTEP: (NOPROC)
0Datasets Allocated for this Assembly
  Con DDname   Dataset Name                                 Volume  Member
   P1 SYSIN    SYS04082.T094924.RA000.PJG#VSCN.INPUT.H01    SCR100
   L1 SYSLIB   SYS3.DUMMYMAC                                SYSB02
   L2          WYL.GG.SYS.MACLIB                            SYSB05
   L3          WYL.GG.ORV.BC.MACLIB                         SYSB02
   L4          SYS3.IS.MACLIB                               SYSB05
      SYSLIN   WYL.GG.PJG.OBJ                               SYSB05  VSCN
      SYSPRINT SYS04082.T094924.RA000.PJG#VSCN.PRINT.H01    SCR101
      SYSTERM  GG$PJG.PJG#VSCN.JOB06000.D0000103.?

    7812K allocated to Buffer Pool,          409K would be required for this to be an In-Storage Assembly
     720 Primary Input Records Read         1931 Library Records Read                  0 Work File Reads
       0 ASMAOPT Records Read               1351 Primary Print Records Written         0 Work File Writes
     117 Punch Records Written                 0 ADATA Records Written
0Assembly Start Time: 09.49.25 Stop Time: 09.49.27 Processor Time: 00.00.00.3384
 Return Code 000
