1                        J E S 2  J O B  L O G  --  S Y S T E M  S Y S B  --  N O D E  R L G
0
 09.42.41 JOB05951 ---- MONDAY,    22 MAR 2004 ----
 09.42.41 JOB05951  ICH70001I GG$PJG   LAST ACCESS AT 09:42:27 ON MONDAY, MARCH 22, 2004
 09.42.41 JOB05951  $HASP373 PJG#OVAM STARTED - INIT 2    - CLASS E - SYS SYSB
 09.42.41 JOB05951  ***  HCMD      STEP $$QUIET
 09.42.41 JOB05951  PURGE * Q=OUTPUT MULTIPLE
 09.42.41 JOB05951  JOB PJG#OVAM NOT IN OUTPUT QUEUE
 09.42.42 JOB05951  PJG#OVAM.$$QUIET .         RC=0008 TapeIO=0000 DiskIO=0000 CPU=  .01s Elapsed=61.18s
 09.42.42 JOB05951  PJG#OVAM.$CND    .         RC=Zero TapeIO=0000 DiskIO=0003 CPU=  .01s Elapsed=62.22s
 09.42.42 JOB05951  PJG#OVAM.$UNP    .         RC=Zero TapeIO=0000 DiskIO=0021 CPU=  .05s Elapsed=62.36s
 09.42.47 JOB05951  PJG#OVAM.ASM     .         RC=Zero TapeIO=0000 DiskIO=0348 CPU= 1.76s Elapsed=62.73s
 09.42.48 JOB05951  PJG#OVAM.$EDIT   .         RC=Zero TapeIO=0000 DiskIO=0092 CPU=  .37s Elapsed=67.58s
 09.42.48 JOB05951  PJG#OVAM Ended.  Name=Module: OVAM                   Total CPU= 2.20s Elapsed=61.18s
 09.42.48 JOB05951
 09.42.48 JOB05951  Execution charges   Priority=Standard   Block=Day
 09.42.48 JOB05951
 09.42.48 JOB05951  CPU Usage          40.12          $24.87   Standard Processing Unit Equivalent
 09.42.48 JOB05951                                   =======
 09.42.48 JOB05951                                    $24.87   Total Job execution charge
 09.42.48 JOB05951
 09.42.48 JOB05951  See back separator page for print charges
 09.42.48 JOB05951
 09.42.48 JOB05951  $HASP395 PJG#OVAM ENDED  ASM=0
1        1 //PJG#OVAM JOB PJG$GG,'Module: OVAM',TIME=1,MSGCLASS=C                  JOB05951
           /*JOBPARM HOLD=OUTPUT,LINES=50,CHARS=TN15,NOTIFY=YES
         2 //       EXEC PURGEOLD
         3 XXPURGEOLD PROC
           XX*
           XX* This proc is maintained by Jim Stosick
           XX*
         4 XX$$QUIET  EXEC PGM=HCMDX,PARM='PURGE * Q=OUTPUT MULTIPLE',
           XX         ACCT=(PURGEOLD,SYS3)
         5 //$CND   EXEC PGM=BILBO,REGION=512K,PARM='RECS=100'
         6 //STEPLIB  DD DSN=WYL.GG.ORV.LINKLIB,DISP=SHR
         7 //SYSPRINT DD SYSOUT=$
         8 //SYSUT1   DD DSN=WYL.GG.PJG.OBJ,DISP=OLD
         9 //SYSUT2   DD DSN=WYL.GG.PJG.OBJ,DISP=OLD
        10 //SYSIN    DD DUMMY
        11 //$UNP   EXEC PGM=WUNPRESS,PARM='NUM'
        12 //SYSPRINT DD SYSOUT=$
        13 //SYSUT1   DD DSN=WYL.GG.ORV.SOURCE.FILEUTIL(OVAM),DISP=SHR
        14 //SYSUT2   DD DSN=&&INPUT,DISP=(,PASS),UNIT=SYSDA,
           //            SPACE=(TRK,(25,25),RLSE),DCB=CARD
        15 //ASM    EXEC PGM=ASMA90,REGION=8M,COND=(0,NE,$UNP),
           //            PARM=('SYSPARM(OVAM),TERM,LANG(EN),OBJ',
           //          'LC(32500),XREF(SHORT),NODECK,NORLD,NODX,NOUS')
           //*STEPLIB  DD DSN=SYS1.SASMMOD1,DISP=SHR
        16 //SYSLIB   DD DSN=SYS3.DUMMYMAC,DISP=SHR,DCB=BLKSIZE=27920
        17 //         DD DSN=WYL.GG.SYS.MACLIB,DISP=SHR
        18 //         DD DSN=WYL.GG.ORV.BC.MACLIB,DISP=SHR
        19 //         DD DSN=SYS3.ORVYL.UMACLIB,DISP=SHR
        20 //         DD DSN=SYS3.IS.MACLIB,DISP=SHR
        21 //SYSUT1   DD DSN=&&SYSUT1,UNIT=VIO,DISP=(,DELETE),
           //            SPACE=(4088,(500,250),,CONTIG,ROUND)
        22 //SYSTERM  DD SYSOUT=$
        23 //SYSPRINT DD DSN=&&PRINT,UNIT=SYSDA,DISP=(,PASS),
           //            SPACE=(6650,(250,250),RLSE),
           //            DCB=(BLKSIZE=6650,LRECL=133,RECFM=FB)
        24 //SYSLIN   DD DSN=WYL.GG.PJG.OBJ(OVAM),DISP=OLD
        25 //SYSUDUMP DD SYSOUT=A
        26 //SYSIN    DD DSN=&&INPUT,DISP=(OLD,DELETE)
        27 //$EDIT  EXEC PGM=ASMEDIT,REGION=1M,
           //            COND=EVEN,PARM='STMT,DATA'
        28 //STEPLIB  DD DSN=WYL.GG.SYS.LINKLIB,DISP=SHR
        29 //ASMOUT   DD DSN=&&PRINT,DISP=(OLD,DELETE)
        30 //SYSPRINT DD SYSOUT=A
        31 //SYSUDUMP DD SYSOUT=A
1 STMT NO. MESSAGE
         2 IEFC001I PROCEDURE PURGEOLD WAS EXPANDED USING SYSTEM LIBRARY SYS3.BETAPROC
        14 IGD01010I STORCLAS= TEMP STORGROUP =
        14 IGD01010I STORGRP=VIO ASSIGNED.
        21 IGD01010I STORCLAS= TEMP STORGROUP =
        21 IGD01010I STORGRP=VIO ASSIGNED.
        23 IGD01010I STORCLAS= TEMP STORGROUP =
        23 IGD01010I STORGRP=VIO ASSIGNED.
 ICH70001I GG$PJG   LAST ACCESS AT 09:42:27 ON MONDAY, MARCH 22, 2004
 IEF142I PJG#OVAM $$QUIET - STEP WAS EXECUTED - COND CODE 0008
 *********************************************************************************
 *   PJG#OVAM/$$QUIET /                    Return Code      0008                 *
 *   Region used      260K (16K user + 244K system)                              *
 *   Extended region  9352K (4K user + 9348K system)                             *
 *                                                                               *
 *   Paging              In      Out                                             *
 *   Private <-> Aux      0        0       CPU time (TCB)   00:00:00.01          *
 *   Private <-> Exp      0        0       CPU time (SRB)   00:00:00.00          *
 *   VIO                  0        0       Elapsed time    920:45:11.78          *
 *   Common               0      ---                                             *
 *                                                                               *
 *                                                                               *
 *   CPU Usage          0.18         $0.11  Standard Processing Unit Equivalent  *
 *                                   $0.11  Total Step execution charge          *
 *                                                                               *
 *    I/O count  DDname   Type Addr           I/O count  DDname   Type Addr      *
 *                         *** No I/O for this step ***                          *
 *********************************************************************************
 IEF373I STEP/$$QUIET /START 2004082.0942
 IEF374I STEP/$$QUIET /STOP  2004082.0942 CPU    0MIN 00.01SEC SRB    0MIN 00.00SEC VIRT    16K SYS   244K EXT       4K SYS    9348K
 IEF236I ALLOC. FOR PJG#OVAM $CND
 IEF237I 0401 ALLOCATED TO STEPLIB
 IEF237I JES2 ALLOCATED TO SYSPRINT
 IEF237I 04DC ALLOCATED TO SYSUT1
 IEF237I 04DC ALLOCATED TO SYSUT2
 IEF237I DMY  ALLOCATED TO SYSIN
 IEF142I PJG#OVAM $CND - STEP WAS EXECUTED - COND CODE 0000
 IEF285I   WYL.GG.ORV.LINKLIB                           KEPT
 IEF285I   VOL SER NOS= SYSB01.
 IEF285I   GG$PJG.PJG#OVAM.JOB05951.D0000101.?          SYSOUT
 IEF285I   WYL.GG.PJG.OBJ                               KEPT
 IEF285I   VOL SER NOS= SYSB05.
 IEF285I   WYL.GG.PJG.OBJ                               KEPT
 IEF285I   VOL SER NOS= SYSB05.
 *********************************************************************************
 *   PJG#OVAM/$CND    /                    Return Code      Zero                 *
 *   Region used      280K (16K user + 264K system)                              *
 *   Extended region  9392K (4K user + 9388K system)                             *
 *                                                                               *
 *   Paging              In      Out                                             *
 *   Private <-> Aux      0        0       CPU time (TCB)   00:00:00.01          *
 *   Private <-> Exp      0        0       CPU time (SRB)   00:00:00.00          *
 *   VIO                  0        0       Elapsed time    920:45:10.74          *
 *   Common               0      ---                                             *
 *                                                                               *
 *                                                                               *
 *   CPU Usage          0.18         $0.11  Standard Processing Unit Equivalent  *
 *                                   $0.11  Total Step execution charge          *
 *                                                                               *
 *    I/O count  DDname   Type Addr           I/O count  DDname   Type Addr      *
 *            3  STEPLIB  Disk 0401                   0  SYSPRINT      ----      *
 *            0  SYSUT1   Disk 04DC                   0  SYSUT2   Disk 04DC      *
 *            0  SYSIN         ----                                              *
 *********************************************************************************
 IEF373I STEP/$CND    /START 2004082.0942
 IEF374I STEP/$CND    /STOP  2004082.0942 CPU    0MIN 00.01SEC SRB    0MIN 00.00SEC VIRT    16K SYS   264K EXT       4K SYS    9388K
 IEF236I ALLOC. FOR PJG#OVAM $UNP
 IEF237I JES2 ALLOCATED TO SYSPRINT
 IEF237I 0402 ALLOCATED TO SYSUT1
 IGD101I SMS ALLOCATED TO DDNAME (SYSUT2  )
         DSN (SYS04082.T094241.RA000.PJG#OVAM.INPUT.H01   )
         STORCLAS (TEMP) MGMTCLAS (        ) DATACLAS (        )
         VOL SER NOS= SCR101
 IEF142I PJG#OVAM $UNP - STEP WAS EXECUTED - COND CODE 0000
 IEF285I   GG$PJG.PJG#OVAM.JOB05951.D0000102.?          SYSOUT
 IEF285I   WYL.GG.ORV.SOURCE.FILEUTIL                   KEPT
 IEF285I   VOL SER NOS= SYSB02.
 IGD106I SYS04082.T094241.RA000.PJG#OVAM.INPUT.H01    PASSED,    DDNAME=SYSUT2
 *********************************************************************************
 *   PJG#OVAM/$UNP    /                    Return Code      Zero                 *
 *   Region used      388K (108K user + 280K system)                             *
 *   Extended region  9468K (4K user + 9464K system)                             *
 *                                                                               *
 *   Paging              In      Out                                             *
 *   Private <-> Aux      0        0       CPU time (TCB)   00:00:00.05          *
 *   Private <-> Exp      0        0       CPU time (SRB)   00:00:00.00          *
 *   VIO                  0        0       Elapsed time    920:45:10.60          *
 *   Common               0      ---                                             *
 *                                                                               *
 *                                                                               *
 *   CPU Usage          0.93         $0.57  Standard Processing Unit Equivalent  *
 *                                   $0.57  Total Step execution charge          *
 *                                                                               *
 *    I/O count  DDname   Type Addr           I/O count  DDname   Type Addr      *
 *            0  SYSPRINT      ----                   3  SYSUT1   Disk 0402      *
 *           18  SYSUT2   Disk 04E3                                              *
 *********************************************************************************
 IEF373I STEP/$UNP    /START 2004082.0942
 IEF374I STEP/$UNP    /STOP  2004082.0942 CPU    0MIN 00.05SEC SRB    0MIN 00.00SEC VIRT   108K SYS   280K EXT       4K SYS    9464K
 IEF236I ALLOC. FOR PJG#OVAM ASM
 IEF237I 0402 ALLOCATED TO SYSLIB
 IEF237I 04DC ALLOCATED TO
 IEF237I 0402 ALLOCATED TO
 IEF237I 0402 ALLOCATED TO
 IEF237I 04DC ALLOCATED TO
 IGD101I SMS ALLOCATED TO DDNAME (SYSUT1  )
         DSN (SYS04082.T094241.RA000.PJG#OVAM.SYSUT1.H01  )
         STORCLAS (TEMP) MGMTCLAS (        ) DATACLAS (        )
         VOL SER NOS= VIO
 IEF237I JES2 ALLOCATED TO SYSTERM
 IGD101I SMS ALLOCATED TO DDNAME (SYSPRINT)
         DSN (SYS04082.T094241.RA000.PJG#OVAM.PRINT.H01   )
         STORCLAS (TEMP) MGMTCLAS (        ) DATACLAS (        )
         VOL SER NOS= SCR100
 IEF237I 04DC ALLOCATED TO SYSLIN
 IEF237I JES2 ALLOCATED TO SYSUDUMP
 IGD103I SMS ALLOCATED TO DDNAME SYSIN
 IEF142I PJG#OVAM ASM - STEP WAS EXECUTED - COND CODE 0000
 IEF285I   SYS3.DUMMYMAC                                KEPT
 IEF285I   VOL SER NOS= SYSB02.
 IEF285I   WYL.GG.SYS.MACLIB                            KEPT
 IEF285I   VOL SER NOS= SYSB05.
 IEF285I   WYL.GG.ORV.BC.MACLIB                         KEPT
 IEF285I   VOL SER NOS= SYSB02.
 IEF285I   SYS3.ORVYL.UMACLIB                           KEPT
 IEF285I   VOL SER NOS= SYSB02.
 IEF285I   SYS3.IS.MACLIB                               KEPT
 IEF285I   VOL SER NOS= SYSB05.
 IGD105I SYS04082.T094241.RA000.PJG#OVAM.SYSUT1.H01   DELETED,   DDNAME=SYSUT1
 IEF285I   GG$PJG.PJG#OVAM.JOB05951.D0000103.?          SYSOUT
 IGD106I SYS04082.T094241.RA000.PJG#OVAM.PRINT.H01    PASSED,    DDNAME=SYSPRINT
 IEF285I   WYL.GG.PJG.OBJ                               KEPT
 IEF285I   VOL SER NOS= SYSB05.
 IEF285I   GG$PJG.PJG#OVAM.JOB05951.D0000104.?          SYSOUT
 IGD105I SYS04082.T094241.RA000.PJG#OVAM.INPUT.H01    DELETED,   DDNAME=SYSIN
 *********************************************************************************
 *   PJG#OVAM/ASM     /                    Return Code      Zero                 *
 *   Region used      8484K (8192K user + 292K system)                           *
 *   Extended region  9952K (412K user + 9540K system)                           *
 *                                                                               *
 *   Paging              In      Out                                             *
 *   Private <-> Aux      0        0       CPU time (TCB)   00:00:01.71          *
 *   Private <-> Exp      0        0       CPU time (SRB)   00:00:00.05          *
 *   VIO                  0        0       Elapsed time    920:45:10.23          *
 *   Common               0      ---                                             *
 *                                                                               *
 *                                                                               *
 *   CPU Usage         32.06        $19.87  Standard Processing Unit Equivalent  *
 *                                  $19.87  Total Step execution charge          *
 *                                                                               *
 *    I/O count  DDname   Type Addr           I/O count  DDname   Type Addr      *
 *           84  SYSLIB   Disk 0402                 152  SYSLIB   Disk 04DC      *
 *            0  SYSLIB   Disk 0402                   0  SYSLIB   Disk 0402      *
 *            0  SYSLIB   Disk 04DC                   0  SYSUT1   VIO  ----      *
 *            0  SYSTERM       ----                  89  SYSPRINT Disk 038B      *
 *            4  SYSLIN   Disk 04DC                   0  SYSUDUMP      ----      *
 *           19  SYSIN    Disk 04E3                                              *
 *********************************************************************************
 IEF373I STEP/ASM     /START 2004082.0942
 IEF374I STEP/ASM     /STOP  2004082.0942 CPU    0MIN 01.71SEC SRB    0MIN 00.05SEC VIRT  8192K SYS   292K EXT     412K SYS    9540K
 IEF236I ALLOC. FOR PJG#OVAM $EDIT
 IEF237I 0402 ALLOCATED TO STEPLIB
 IGD103I SMS ALLOCATED TO DDNAME ASMOUT
 IEF237I JES2 ALLOCATED TO SYSPRINT
 IEF237I JES2 ALLOCATED TO SYSUDUMP
 IEF142I PJG#OVAM $EDIT - STEP WAS EXECUTED - COND CODE 0000
 IEF285I   WYL.GG.SYS.LINKLIB                           KEPT
 IEF285I   VOL SER NOS= SYSB02.
 IGD105I SYS04082.T094241.RA000.PJG#OVAM.PRINT.H01    DELETED,   DDNAME=ASMOUT
 IEF285I   GG$PJG.PJG#OVAM.JOB05951.D0000105.?          SYSOUT
 IEF285I   GG$PJG.PJG#OVAM.JOB05951.D0000106.?          SYSOUT
 *********************************************************************************
 *   PJG#OVAM/$EDIT   /                    Return Code      Zero                 *
 *   Region used      388K (116K user + 272K system)                             *
 *   Extended region  9468K (4K user + 9464K system)                             *
 *                                                                               *
 *   Paging              In      Out                                             *
 *   Private <-> Aux      0        0       CPU time (TCB)   00:00:00.36          *
 *   Private <-> Exp      0        0       CPU time (SRB)   00:00:00.01          *
 *   VIO                  0        0       Elapsed time    920:45:05.38          *
 *   Common               0      ---                                             *
 *                                                                               *
 *                                                                               *
 *   CPU Usage          6.75         $4.18  Standard Processing Unit Equivalent  *
 *                                   $4.18  Total Step execution charge          *
 *                                                                               *
 *    I/O count  DDname   Type Addr           I/O count  DDname   Type Addr      *
 *            2  STEPLIB  Disk 0402                  90  ASMOUT   Disk 038B      *
 *            0  SYSPRINT      ----                   0  SYSUDUMP      ----      *
 *********************************************************************************
 IEF373I STEP/$EDIT   /START 2004082.0942
 IEF374I STEP/$EDIT   /STOP  2004082.0942 CPU    0MIN 00.36SEC SRB    0MIN 00.01SEC VIRT   116K SYS   272K EXT       4K SYS    9464K
 *********************************************************************************
 *                                                                               *
 *                      S t a n f o r d   U n i v e r s i t y                    *
 *                                                                               *
 *                              *** Job Summary ***                              *
 *                                                                               *
 *   System Id      SYSB                   Input time     09:38:24  Mar 22, 2004 *
 *                                                                               *
 *   System Release SP6.1.0                Start time     09:42:41  Mar 22, 2004 *
 *                                                                               *
 *   Job name       PJG#OVAM               Stop  time     00:00:00  Mar 22, 2004 *
 *                                                                               *
 *   Account        PJG$GG                 Elapsed time  920:45:11.78            *
 *                                                                               *
 *   User Name      Module: OVAM           CPU time       00:00:02.14            *
 *                                                                               *
 *   Job class      E                      SRB Time       00:00:00.06            *
 *                                                                               *
 *********************************************************************************
 IEF375I  JOB/PJG#OVAM/START 2004082.0942
 IEF376I  JOB/PJG#OVAM/STOP  2004082.0942 CPU    0MIN 02.14SEC SRB    0MIN 00.06SEC
1Data set successfully converted from EDIT to FB format
1Assembler Done OVAM No Statements Flagged
1         High Level Assembler Option Summary                   (PTF UQ57391)                                               Page    1
-                                                                                            HLASM R4.0  2004/03/22 09.42
0  No Overriding ASMAOPT Parameters
   Overriding Parameters-  SYSPARM(OVAM),TERM,LANG(EN),OBJ,LC(32500),XREF(SHORT),NODECK,NORLD,NODX,NOUS
   No Process Statements


   Options for this Assembly
0  NOADATA
     ALIGN
   NOASA
     BATCH
     CODEPAGE(047C)
   NOCOMPAT
   NODBCS
 3 NODECK
 3 NODXREF
     ESD
   NOEXIT
     FLAG(0,ALIGN,CONT,NOIMPLEN,NOPAGE0,PUSH,RECORD,NOSUBSTR,USING0)
   NOFOLD
   NOGOFF
   NOINFO
 3   LANGUAGE(EN)
   NOLIBMAC
 3   LINECOUNT(32500)
     LIST(121)
     MXREF(SOURCE)
 3   OBJECT
     OPTABLE(UNI,NOLIST)
   NOPCONTROL
   NOPESTOP
   NOPROFILE
   NORA2
   NORENT
 3 NORLD
     RXREF
     SIZE(MAX)
 3   SYSPARM(OVAM)
 3   TERM(WIDE)
   NOTEST
     THREAD
   NOTRANSLATE
 3 NOUSING
 3   XREF(SHORT)

   No Overriding DD Names

1OVAM     External Symbol Dictionary                                                                                        Page    2
-Symbol   Type   Id     Address  Length     LD ID  Flags Alias-of                            HLASM R4.0  2004/03/22 09.42
0OVAM      SD 00000001 00000000 00001968             00
 OVAM20    LD          00000000           00000001
 OCP       LD          00000016           00000001
 SCINIT    ER 00000002
 SCAN      ER 00000003
 VSEG      ER 00000004
 VWRITE    ER 00000005
 VSEG      LD          000007A0           00000001
 VMARK     LD          000007E4           00000001
 VWRITE    LD          000007EC           00000001
 VREAD     LD          0000095A           00000001
 VREAD     ER 00000006
 BTX       ER 00000007
 BTD       ER 00000008
 FMTTIME   ER 00000009
 TIME      ER 0000000A

1OVAM     VAM/370 - Online Orvyl File Batch Access Program                                                                  Page    3
0Loc    Object Code    Addr1 Addr2  Stmt Lv Lineno    Source Statement                    (Asmedit 3.3)  HLASM R4.0  2004/03/22 09.42
+___    ______ ____    _____ _____  ____ __ ______    ______ _________
0                                      2       2.     ********************************************************************
                                       3       3.     *                                                                  *
                                       4       4.     *      ORVYL/370  RELEASE III - CLASS I - STANFORD PROPRIETARY     *
                                       5       5.     *                                                                  *
                                       6       6.     ********************************************************************
-
-                                      8       8.              HIBAL ,                   Enable Hibal macro system
 000000                00000 01968   989       9.     OVAM     CSECT
                                     993      10.              IDENT 20                  Provide module identification
                                     996             +
                                     997    01-IDENT +         ENTRY OVAM20
                                     998             +
 000000 14D6E5C1D4F2F06B             999    01-IDENT +OVAM20   DC    AL1(20),C'OVAM20,22MAR04,09:42'
                                    1000             +*
                                    1002      11.              REGS  ,,SR,TR,QR,RR,PR,BR,WAR,RAR,CTR,VCHR
1OVAM     (OVAM20) (09:42) (22MAR04) VAM/370 - Online Orvyl File Batch Access Program                                       Page    4
0Loc    Object Code    Addr1 Addr2  Stmt Lv Lineno    Source Statement           (Hibal 5, Asmedit 3.3)  HLASM R4.0  2004/03/22 09.42
+___    ______ ____    _____ _____  ____ __ ______    ______ _________
0                                   1141      14.     ¿þþþþþþþþþþþþþþþþþþþþþþþþþþþþþþþþþþþþþþþþþþþþþþþþþþþþþþþþþþþþþþþþþþþþþÜ
                                    1142      15.     Ÿ                                                                     Ÿ
                                    1143      16.     Ÿ    OVAM Device Talbe Entry                                          Ÿ
                                    1144      17.     Ÿ                                                                     Ÿ
                                                      ¾þþþþþþþþþþþþþþþþþþþþþþþþþþþþþþþþþþþþþþþþþþþþþþþþþþþþþþþþþþþþþþþþþþþþþ»
0000000                00000 00002  1145      18.     ODT      RECORD BEGIN              Ovam device table entry
 000000 00                          1153  1   19.     ODTFL      FLAG  ,                   Flag byte
 ODTFL.ODTFATCH    80 ONES          1157  1   20.                FLAG  ODTFATCH             - Device attached
 000001 00                          1162  1   21.     ODTCLASS   FLAG  ,                   Device class
 ODTCLASS.ODTTERMC 01 EQ            1166  1   22.                FLAG  (ODTTERMC,1,EQ)      - Terminal class
 ODTCLASS.ODTFILEC 02 EQ            1176  1   23.                FLAG  (ODTFILEC,2,EQ)      - File class
 ODTCLASS.ODTPATHC 04 EQ            1186  1   24.                FLAG  (ODTPATHC,4,EQ)      - Path class
 000002                             1196  1   25.     ODTNEXT    DS    0H                  Next device table entry
 000002                00002 00002  1197      26.              END   ,
1OVAM     (OVAM20) (09:42) (22MAR04) VAM/370 - Online Orvyl File Batch Access Program                                       Page    5
0Loc    Object Code    Addr1 Addr2  Stmt Lv Lineno    Source Statement           (Hibal 5, Asmedit 3.3)  HLASM R4.0  2004/03/22 09.42
+___    ______ ____    _____ _____  ____ __ ______    ______ _________
0                                   1207      28.     ¿þþþþþþþþþþþþþþþþþþþþþþþþþþþþþþþþþþþþþþþþþþþþþþþþþþþþþþþþþþþþþþþþþþþþþÜ
                                    1208      29.     Ÿ                                                                     Ÿ
                                    1209      30.     Ÿ   VAM Communications header                                         Ÿ
                                    1210      31.     Ÿ                                                                     Ÿ
                                                      ¾þþþþþþþþþþþþþþþþþþþþþþþþþþþþþþþþþþþþþþþþþþþþþþþþþþþþþþþþþþþþþþþþþþþþþ»
0000000                00000 00058  1211      32.     VCH      RECORD BEGIN
                                    1219  1   33.                COPY  VCHEAD
 000000                             1220  1          =VCHSTART   DS    0F
 000000                             1221  1          =VCTRAN     DS    X                       TRANSACTION CODE
 000001                             1222  1          =VCCODE     DS    X                       TRANSACTION SUBCODE
                                    1223  1          =
 000002 00                          1224  1          =VCFLAGS    FLAG  ,                       SVC FLAGS
 VCFLAGS.VCFWAIT   80 ONES          1228  1          =           FLAG  VCFWAIT                 MODE=WAIT (R0 COMPLEMENTED)
 VCFLAGS.VCFNR1    40 ONES          1233  1          =           FLAG  VCFNR1                  R1 COMPLEMENTED
 VCFLAGS.VCFNR15   20 ONES          1238  1          =           FLAG  VCFNR15                 R15 COMPLEMENTED
 VCFLAGS.VCFNR14   10 ONES          1243  1          =           FLAG  VCFNR14                 R14 COMPLEMENTED
                                    1248  1          =
 000003 00                          1249  1          =VCRFLAGS   FLAG  ,                       RETURN FLAGS
 VCRFLAGS.VCRR15Z  80 ONES          1253  1          =           FLAG  VCRR15Z                 R15 ZERO ON SVC
 VCRFLAGS.VCRSPEC  40 ONES          1258  1          =           FLAG  VCRSPEC                 SPEC ON SVC
                                    1263  1          =
 000004                             1264  1          =VCJOBNAM   DS    CL8                     BATCH JOB NAME
 00000C                             1265  1          =VCJOBACC   DS    CL6                     ACCOUNT OF BATCH JOB
 000012                             1266  1          =VCPRIVS    DS    CL2                     PRIVS. OF BATCH JOB (IFL, AFL)
 000014                             1267  1          =VCDEVID    DS    F                       DEVICE IDENTIFIER
 000018                             1268  1          =VCPARM1    DS    F
 00001C                             1269  1          =VCPARM2    DS    F
 000020                             1270  1          =VCRETCOD   DS    F                       RETURN CODE
 000024                             1271  1          =VCDATAL    DS    H                       LENGTH OF VARIABLE DATA
 000028                             1272  1          =VCOMEND    DS    0D
                                    1273  1          =VCHLEN     EQU   *-VCHSTART
0000028                00028 00028  1275  1          =           ORG   VCOMEND
 000028                             1276  1          =VCDATA     DS    0X                      VARIABLE LENGTH DATA FIELD
 000028                00028 00028  1277  1          =           ORG   VCOMEND
 000028                             1278  1          =VCFNAME    DS    CL44                    FILE NAME (FOR ATTACH OR STATUS)
                                    1279  1          =VCFNLEN    EQU   *-VCOMEND
 000054                00054 00028  1280  1          =           ORG   VCOMEND
 000028                             1281  1          =VCACC1     DS    CL6                     ACCOUNT FIELDS (FOR CONTROL
 00002E                             1282  1          =VCACC2     DS    CL6                      OR STATUS CALLS)
                                    1283  1          =VCACCLEN   EQU   *-VCOMEND
 000034                00034 00054  1284  1          =           ORG
 000058                             1285  1          =VCEND      DS    0D
 000058                00058 00058  1286      34.              END   ,
1OVAM     (OVAM20) (09:42) (22MAR04) VAM/370 - Online Orvyl File Batch Access Program                                       Page    6
0Loc    Object Code    Addr1 Addr2  Stmt Lv Lineno    Source Statement           (Hibal 5, Asmedit 3.3)  HLASM R4.0  2004/03/22 09.42
+___    ______ ____    _____ _____  ____ __ ______    ______ _________
0                                   1296      36.     ¿þþþþþþþþþþþþþþþþþþþþþþþþþþþþþþþþþþþþþþþþþþþþþþþþþþþþþþþþþþþþþþþþþþþþþÜ
                                    1297      37.     Ÿ                                                                     Ÿ
                                    1298      38.     Ÿ    OVAM'S CT                                                        Ÿ
                                    1299      39.     Ÿ                                                                     Ÿ
                                                      ¾þþþþþþþþþþþþþþþþþþþþþþþþþþþþþþþþþþþþþþþþþþþþþþþþþþþþþþþþþþþþþþþþþþþþþ»
0000000                00000 03000  1300      40.     CT       RECORD BEGIN
 000000                             1308  1   41.     CTSTART    DS    0D
 000000 D6E5C1D440C3E340            1309  1   42.     CT_EYE     DC    CL8'OVAM CT '
 000008                             1310  1   43.                DS    A                   AVAILABLE
 00000C                             1311  1   44.     CTCTADDR   DS    A
 000010                             1312  1   45.     CTCTLEN    DS    A
 000014                             1313  1   46.     CTVTIOAD   DS    A                   ADDRESS OF TERM. I/O WORK AREA
 000018                             1314  1   47.     CTTIMINT   DS    F                   IDLE MESSAGE TIME INTERVAL
 000020                             1315  1   48.     CTWORK     DS    4D
                                    1316  1   49.     CLWTEMP    EQU   CTWORK              FOR SEGDC, SEGHX MACROS
 000040                             1317  1   50.     CTPATHID   DS    F                   PATH DEVICE ID
                                    1318  1   51.            ¿þþþþþþþþþþþþþþþþþþþþþþþþþþþþþþþþþþþÜ
                                    1319  1   52.            Ÿ  Batch Session Statistics Fields  Ÿ
                                    1320  1   53.            ¾þþþþþþþþþþþþþþþþþþþþþþþþþþþþþþþþþþþ»
 000044                             1321  1   54.     CTCPUTIM   DS    F                   STARTING CPU TIME
 000048                             1322  1   55.     CTELATIM   DS    F                   STARTING ELAPSED TIME
 00004C                             1323  1   56.     CTIOCNT    DS    F                   STARTING I/O COUNT
 000050                             1324  1   57.     CTUSER     DS    CL3                 USER INITIALS
 000053 5B                          1325  1   58.     CT$        DC    C'$'
 000054                             1326  1   59.     CTGRP      DS    2CL2                GROUP, SUBGROUP
 000058                             1327  1   60.     CTERMID    DS    CL3                 TERMINAL ID (ANN)
 00005B                             1328  1   61.     CTUNAME    DS    CL16                USER NAME FIELD
                                    1329  1   62.     CTUINFO    EQU   CTUSER,*-CTUSER,C'X'    USER INFORMATION FROM SENSE 8
 00006C                             1330  1   63.                DS    0F
 00006C                             1331  1   64.     CTPME      DS    CL8                 PATH MY TAG
 000074                             1332  1   65.     CTPYOU     DS    CL8                 PATH YOU TAG
 00007C                             1333  1   66.     CTPPASS    DS    CL4                 PATH PASSWORD
                                    1334  1   67.     CTPTHTAG   EQU   CTPME,*-CTPME,C'X'  PATH TAGS FOR ATTACH
                                    1335  1   68.
                                    1336  1   69.     CTPBUFSZ   EQU   8*1024              PATH BUFFER SIZE
                                    1337  1   70.
 000080 00                          1338  1   71.     CTGF       FLAG  ,                   General Flag Byte
 CTGF.CTFILEOP     80 ONES          1342  1   72.                FLAG  CTFILEOP             -  FILE OPERATION IN PROGRESS
 CTGF.CTPOPEN      40 ONES          1347  1   73.                FLAG  CTPOPEN              -  PATH PARTNER HAS OPENED
 CTGF.CTPRIVAM     20 ONES          1352  1   74.                FLAG  CTPRIVAM             -  PRIVATE COPY OF OVAM
 CTGF.CTINITC      10 ONES          1357  1   75.                FLAG  CTINITC              -  INITIALIZATION COMPLETE
 CTGF.CTENQ        08 ONES          1362  1   76.                FLAG  CTENQ                -  SOMETHING IS ENQUEUED
 CTGF.CTENQW       04 ONES          1367  1   77.                FLAG  CTENQW               -  OVAM WAITING FOR ENQUEUE
                                    1372  1   78.
 000084                             1373  1   79.                DS    0F
 000084                             1374  1   80.     CTPARML    DS    X                   LENGTH OF PARM
 000085                             1375  1   81.     CTPARM     DS    CL133               PARM FROM CALLING COMMAND
                                    1376  1   82.            ¿þþþþþþþþþþþþþþþþþþþþþþþþÜ
                                    1377  1   83.            Ÿ  OVAM'S Device Tables  Ÿ
                                    1378  1   84.            ¾þþþþþþþþþþþþþþþþþþþþþþþþ»
                                    1379  1   85.     CTNODTS    EQU   128,,C'N'           SHOULD BE ENOUGH
                                    1380  1   86.     CTODTSIZ   EQU   2,,C'N'             EACH TWO BYTES LONG
 000110                             1381  1   87.                DS    0D                  First ODT entry is device ID:1
 000110                             1382  1   88.     CTODTS     DS    (CTNODTS)XL(CTODTSIZ)   PUT THEM RIGHT HERE
1OVAM     (OVAM20) (09:42) (22MAR04) VAM/370 - Online Orvyl File Batch Access Program                                       Page    7
0Loc    Object Code    Addr1 Addr2  Stmt Lv Lineno    Source Statement           (Hibal 5, Asmedit 3.3)  HLASM R4.0  2004/03/22 09.42
+___    ______ ____    _____ _____  ____ __ ______    ______ _________
0                                   1383  1   89.            ¿þþþþþþþþþþþþþþþþþþþÜ
                                    1384  1   90.            Ÿ  OVAM'S Counters  Ÿ
                                    1385  1   91.            ¾þþþþþþþþþþþþþþþþþþþ»
                                    1386  1   92.     CTNCNTRS   EQU   50,,C'N'            Define room for 50 cells
 000210                             1387  1   93.     CTCNTRS    DS    (CTNCNTRS)F
 0002D8                002D8 00210  1388  1   94.                ORG   CTCNTRS
 000210                             1389  1   95.     CTXACTS    DS    F                   - Number of OVAM transactions
 000214                00214 002D8  1390  1   96.                ORG   ,
 0002D8 00000000                    1391  1   97.     DUMPADD    DC    A(0)                VIRTUAL ADDRESS OF CORE DUMPED
 0002DC 00000000                    1392  1   98.     DUMPEND    DC    A(0)
                                    1393  1   99.
 0002E0 0000000000000000            1394  1  100.     AREA       DC    16X'00'
                                    1395  1  101.     *
                                    1396  1  102.     *
                                    1397  1  103.     *   TERMINAL I/O WORK AREA
                                    1398  1  104.     *
                                    1399  1  105.     VTSCANW    SCANCB PFX=VTSC           SCAN WORK AREA
 0002F0                             1400  1 01-SCANC +VTSCANW    DS    0F
 0002F0                             1401  1 01-SCANC +VTSCCB     DS    0F
 0002F0                             1402  1 01-SCANC +VTSCVAL    DS    A                       VALUE RETURNED
 0002F4                             1403  1 01-SCANC +VTSCKW     DS    CL8                     CURRENT KEY WORD
 0002FC                             1404  1 01-SCANC +VTSCLEN    DS    A                       LENGTH LEFT TO SCAN
 000300                             1405  1 01-SCANC +VTSCLOC    DS    A                       NEXT THING TO SCAN
 000304                             1406  1 01-SCANC +VTSCRA     DS    A                       RETURN ADDRESS
 000308                             1407  1 01-SCANC +VTSCPRT    DS    A                       ROUTING TABLE ADDRESS
 00030C                             1408  1 01-SCANC +VTSCCLT    DS    A                       SCAN TYPE
                                    1409  1          +*                                      0 = NORMAL SCAN
                                    1410  1          +*                                      4 = EXPRESSION ISOLATION
                                    1411  1          +*                                      8 = EXPRESSION SCAN
                                    1412  1 01-SCANC +VTSCCBL    EQU *-VTSCCB
 000310                             1413  1  106.     VTDUMPB    DS    A                   ADDRESS OF DUMP BUFFER
 000314                             1414  1  107.     VTIBUFN    DS    H                   LENGTH OF INPUT TEXT
 000316                             1415  1  108.     VTIBUF     DS    133C                INPUT BUFFER
                                    1416  1  109.     VTIBUFL    EQU   *-VTIBUF
                                    1417  1  110.
 00039C                             1418  1  111.     VTOBUF     DS    2H                  OUTPUT LENGTHS
 0003A0                             1419  1  112.                DS    CL133
                                    1420  1  113.     VTOBUFL    EQU   *-VTOBUF-4
                                    1421  1  114.
 000425 00                          1422  1  115.     VTFLAGS    FLAG  ,
 VTFLAGS.VTFTYPD   80 ONES          1426  1  116.                FLAG  VTFTYPD             -   COMMAND TYPED AT TERMINAL
 VTFLAGS.VTFWYL    40 ONES          1431  1  117.                FLAG  VTFWYL              -   COMMAND SENT TO WYLBUR
 VTFLAGS.VTFDSUP   20 ONES          1436  1  118.                FLAG  VTFDSUP             -   ?
 VTFLAGS.VTFDUMP   10 ONES          1441  1  119.                FLAG  VTFDUMP             -   SEND OUTPUT TO WDS
 VTFLAGS.VTFATTN   08 ONES          1446  1  120.                FLAG  VTFATTN             -   ATTENTION WAS HIT
 000428                             1451  1  121.     VTSETA     DS    18F                 SET 10 SAVE AREA
 000470                             1452  1  122.     VTSVA      DS    100F                SAVE AREA FOR TERM. I/O
 000600                             1453  1  123.     CTSVA      DS    200F                MINIMUM SAVE AREA
 000920                             1454  1  124.     CTMAIN     DS    0F                  END OF MAIN CT
-000920                00920 00FD8  1456  1  126.                ORG   CTSTART+4096-VCHLEN     START VCH AT END OF PAGE
                                    1457  1  127.
 000FD8                             1458  1  128.     CTVCH      DS    0A(*-CTMAIN),XL(VCHLEN)  SET THE VCH
 001000                01000 01000  1459  1  129.                ORG   CTVCH+(VCDATA-VCH)
 001000                             1460  1  130.                DS    CL(CTPBUFSZ)
1OVAM     (OVAM20) (09:42) (22MAR04) VAM/370 - Online Orvyl File Batch Access Program                                       Page    8
0Loc    Object Code    Addr1 Addr2  Stmt Lv Lineno    Source Statement           (Hibal 5, Asmedit 3.3)  HLASM R4.0  2004/03/22 09.42
+___    ______ ____    _____ _____  ____ __ ______    ______ _________
0003000                03000 03000  1461  1  131.                ORG   ,
 003000                03000 03000  1462     132.              END   ,
1OVAM     (OVAM20) (09:42) (22MAR04) VAM/370 - OVAM'S ORVYL INTERFACE AND CONTROL PROGRAM                                   Page    9
0Loc    Object Code    Addr1 Addr2  Stmt Lv Lineno    Source Statement           (Hibal 5, Asmedit 3.3)  HLASM R4.0  2004/03/22 09.42
+___    ______ ____    _____ _____  ____ __ ______    ______ _________
0                                   1473     135.     ¿þþþþþþþþþþþþþþþþþþþþþþþþþþþþþþþþþþþþþþþþþþþþþþþþþþþþþþþþþþþþþþþþþþþþþÜ
                                    1474     136.     Ÿ                                                                     Ÿ
                                    1475     137.     Ÿ   Initialization, control and service routines for the VAM          Ÿ
                                    1476     138.     Ÿ   Orvyl interface program                                           Ÿ
                                    1477     139.     Ÿ                                                                     Ÿ
                                                      ¾þþþþþþþþþþþþþþþþþþþþþþþþþþþþþþþþþþþþþþþþþþþþþþþþþþþþþþþþþþþþþþþþþþþþþ»
-000015                00000 01968  1479     141.     OVAM     CSECT ,                   Resume OVAM control section
                                    1481     142.              ENTRY OCP                 Declare main entry address
 000015 00/0D70                     1482     143.     OCP      BASE  BR                  Declare initial basing
 USING  *,R7
 000018 5810 71D8            001F0  1496     144.              L     R1,=A(L'CT)             WHAT WE NEED
 00001C 4100 000E/18F1       0000E  1497     145.              VSET  14,(1),(1)              TRY AND GET IT
 000022 0AFB                        1520             +
 000024 4780 7022            0003A  1522     146.              BZ    SETCT                   GOT IT
 000028 4110 71B0            001C8  1523     147.     NOCORE   SYSQS R1,R15,'Not enough core for OVAM'
 00002C 41F0 0018            00018  1526             +
 000030 4100 0001/0AF6       00001  1527     148.              WRITE LA:1,(1),(15)       Write error to user terminal
 000036 0AF2                        1549     149.              WAIT  (0)                 Wait for I/O completion
 000038 0AFD                        1557     150.              XIT   ,                   Abort further processing
-00003A                             1561     152.     SETCT    LABEL ,
 00003A 18A1                        1563     153.              LR    CTR,R1              Set CT address
 USING  CT,R10                      1564     154.              USING CT,CTR              Set addressability to CT
 00003C 182A                        1573     155.              LR    SR,CTR              Copy address of CT for clear
 00003E 1830                        1574     156.              LR    TR,R0               Copy length of dynamic CT area
 000040 1B55                        1575     157.              CLEAR RR                  Zero from length and pad
 000042 0E24                        1579     158.              MVCL  SR,QR               Set CT memory to zeroes
0000044 D207 A000 71C8 00000 001E0  1581     160.              MVC   CT_EYE,=CL8'OVAM CT'
 00004A 41D0 A600            00600  1582     161.              LA    R13,CTSVA           Set initial save stack address
 00004E 50A0 A00C            0000C  1583     162.              ST    CTR,CTCTADDR        Save address of OVAM CT
 000052 5000 A010            00010  1584     163.              ST    R0,CTCTLEN          Save length of ovam ct
0000056 4100 0008            00008  1586     165.              SENSE 8,CTUINFO           Get user information
 00005A 4110 A050/0AFA       00050  1600             +
 000060 4120 A110            00110  1609     166.              LA    SR,CTODTS           Address of master terminal odt
 USING  ODT,R2                      1610     167.              WITH (ODT,SR),BEGIN       Addressability to odt
 000064 9680 2000      00000        1624  1  168.                SET   ODTFATCH            Set terminal attached,
 000068 9201 2001      00001        1630  1  169.                SET   ODTTERMC            Terminal class
 DROP   ODT,R2                      1636     170.              END   ,
-00006C 9620 A080      00080        1645     172.              SET   CTPRIVAM            Assume private copy of vam
 000070 D203 A018 71DC 00018 001F4  1651     173.              MVC   CTTIMINT,=A(600*38400)  DEFAULT IDLE MSG. TIME INT.
 000076 D203 A018 71E0 00018 001F8  1652     174.              MVC   CTTIMINT,=A(120*38400)  DEFAULT IDLE MSG. TIME INT.
 00007C 4100 0013            00013  1653     175.              SENSE 19,CTPARM,L'CTPARM  Sense parameter string and
 000080 4110 A085            00085  1667             +
 000084 41F0 0085/0AFA       00085  1674             +
 00008A 4210 A084            00084  1680     176.              STC   R1,CTPARML          Save length
 00008E 4110 A085/1F00       00085  1681     177.              SCINIT CTPARM,IC:CTPARML,VTSCANW
 000094 4300 A084            00084  1696             +
 000098 41F0 A2F0            002F0  1703             +
 00009C 58E0 71E4/0DEE       001FC  1706             +
1OVAM     (OVAM20) (09:42) (22MAR04) VAM/370 - OVAM'S ORVYL INTERFACE AND CONTROL PROGRAM                                   Page   10
0Current Usings:  (*,R7) (CT,R10)
0Loc    Object Code    Addr1 Addr2  Stmt Lv Lineno    Source Statement           (Hibal 5, Asmedit 3.3)  HLASM R4.0  2004/03/22 09.42
+___    ______ ____    _____ _____  ____ __ ______    ______ _________
00000A2 4110 729B            002B3  1708     178.              SCAN  PARMSCKW,(15)
 0000A6 58E0 71E8/0DEE       00200  1723             +
 0000AC 4780 70AA            000C2  1725     179.              IF    NZ,BEGIN
 0000B0 4110 7208            00220  1736  1  180.                SYSQS R1,R15,'Parm scan error'
 0000B4 41F0 000F            0000F  1739  1          +
 0000B8 4100 0001/0AF6       00001  1740  1  181.                WRITE LA:1,(1),(15)       Write error message
 0000BE 0AF2                        1762  1  182.                WAIT  (0)                 Wait for terminal completion
 0000C0 0AFD                        1770  1  183.                XIT   ,                   Just terminate execution
 0000C2                             1773     184.              END   ,
-0000C2 4100 0003/1B11       00003  1778     186.              VSET  3,0                 Clear any timer interval
 0000C8 0AFB                        1797             +
 0000CA 4100 0005            00005  1799     187.              VSET  5,TIMER,,(CTR)      Set timer exit address
 0000CE 4110 7400/18EA       00418  1813             +
 0000D4 0AFB                        1823             +
 0000D6 4100 0007            00007  1825     188.              VSET  7,PANIC,,(CTR)      Set panic exit
 0000DA 4110 743E/18EA       00456  1839             +
 0000E0 0AFB                        1849             +
 0000E2 5890 71EC/0D99       00204  1851     189.              ACALL INITPATH            Open OVAM path to VAMTASK
 0000E8 4770 7010            00028  1855     190.              BNZ   NOCORE              Unable to open path to VAMTASK
 0000EC 4100 0008            00008  1856     191.              VSET  8,VTATTN,1,(CTR)    Set ATTN. exit for terminal
 0000F0 4110 72C4            002DC  1870             +
 0000F4 41F0 0001/18EA       00001  1877             +
 0000FA 0AFB                        1884             +
 0000FC 5890 71F0/0D99       00208  1886     192.              ACALL SEGTIME             Time stamp id message
 000102 4110 71D0            001E8  1890     193.              VSEG  'Version='          Report current version ID string
 000106 4100 0008            00008  1894             +
 00010A 5890 71F4/0D99       0020C  1897             +
 000110 5810 71F8            00210  1899     194.              L     R1,=A(OVAM)         Address of module ID string
 000114 1F00/4300 1000       00000  1900     195.              LC    R0,@R1              Load length of id string
 00011A 4110 1001            00001  1905     196.              LA    R1,@R1+1            Address of id string start
 00011E 5890 71F4/0D99       0020C  1906     197.              VSEG  (R1),(R0)           Add module id string to message
 000124 5890 71FC/0D99       00214  1921     198.              VWRITE ,                  Write message to user terminal
 00012A 5890 71F0/0D99       00208  1926     199.              ACALL SEGTIME             Time stamp initialization msg
 000130 4110 7217            0022F  1930     200.              VWRITE 'OVAM Initialization complete.'
 000134 4100 001D            0001D  1935             +
 000138 5890 71F4/0D99       0020C  1938             +
 00013E 5890 71FC/0D99       00214  1942             +
 000144 9610 A080      00080        1944     201.              SET   CTINITC             Set initialization complete
 000148 5890 7200/0D99       00218  1950     202.              ACALL GETXACT
 00014E 5890 71F0/0D99       00208  1954     203.              ACALL SEGTIME             Time stamp message
 000154 4110 7234            0024C  1958     204.              VWRITE 'Entering WAIT for transactions.'
 000158 4100 001F            0001F  1963             +
 00015C 5890 71F4/0D99       0020C  1966             +
 000162 5890 71FC/0D99       00214  1970             +
 000168 4100 0000/0AF2       00000  1972     205.              WAIT  LA:0                Enter continuous wait
1OVAM     (OVAM20) (09:42) (22MAR04) VAM/370 - OVAM'S ORVYL INTERFACE AND CONTROL PROGRAM                                   Page   11
0Current Usings:  (*,R7) (CT,R10)
0Loc    Object Code    Addr1 Addr2  Stmt Lv Lineno    Source Statement           (Hibal 5, Asmedit 3.3)  HLASM R4.0  2004/03/22 09.42
+___    ______ ____    _____ _____  ____ __ ______    ______ _________
0                                   1981     207.     ¿þþþþþþþþþþþþþþþþþþþþþþþþþþþþþþþþþþþþþþþþþþþþþþþþþþþþþþþþþþþþþþþþþþþþþÜ
                                    1982     208.     Ÿ                                                                     Ÿ
                                    1983     209.     Ÿ  Scan exit routines                                                 Ÿ
                                    1984     210.     Ÿ                                                                     Ÿ
                                                      ¾þþþþþþþþþþþþþþþþþþþþþþþþþþþþþþþþþþþþþþþþþþþþþþþþþþþþþþþþþþþþþþþþþþþþþ»
000016E 94DF A080      00080        1985     211.     PUBVAM   CLEAR CTPRIVAM            Clear private vam indicator
 000172 07FE                        1993     212.              SCRTN (15)                Return to scanner
                                    2000     213.
 000174 9620 A080      00080        2001     214.     PRIVAM   SET   CTPRIVAM            Set private vam indicator
 000178 07FE                        2008     215.              SCRTN (15)                Return to scanner
                                    2015     216.
 00017A 4720 717C            00194  2016     217.     TIMINT1  IF    NP,BEGIN            No interval specified
 00017E 4110 7253            0026B  2028  1  218.                VWRITE 'No interval specified - default assumed'
 000182 4100 0027            00027  2033  1          +
 000186 5890 71F4/0D99       0020C  2036  1          +
 00018C 5890 71FC/0D99       00214  2040  1          +
 000192 07FE                        2042  1  219.                SCRTN (15)                Return to scanner
 000194                             2049     220.              END   ,
 000194 5810 F000            00000  2053     221.              L     R1,@R15             Get value specified
 000198 1B00                        2054     222.              CLEAR R0                  Set for tu conversion
 00019A 5C00 7204            0021C  2058     223.              M     R0,=A(38400)        Convert to tu's
 00019E 5010 A018            00018  2059     224.              ST    R1,CTTIMINT         Save
 0001A2 07FE                        2060     225.              SCRTN (15)                Return to scanner
                                    2067     226.
 0001A4 4720 71A6            001BE  2068     227.     TASKID   IF    NP,BEGIN               NO ID SPECIFIED
 0001A8 4110 727A            00292  2080  1  228.                VWRITE 'NO ID SPECIFIED - DEFAULT ASSUMED'
 0001AC 4100 0021            00021  2085  1          +
 0001B0 5890 71F4/0D99       0020C  2088  1          +
 0001B6 5890 71FC/0D99       00214  2092  1          +
 0001BC 07FE                        2094  1  229.                SCRTN (15)
 0001BE                             2101     230.              END   ,
 0001BE D203 A07C 1000 0007C 00000  2105     231.              MVC   CTPPASS,@R1             SET PATH PASSWORD
 0001C4 07FE                        2106     232.              SCRTN (15)
-DROP   CT,R10                      2114     234.              DROP  ,                       ##
 DROP   *,R7
1OVAM     (OVAM20) (09:42) (22MAR04) VAM/370 - OVAM'S ORVYL INTERFACE AND CONTROL PROGRAM                                   Page   12
0Loc    Object Code    Addr1 Addr2  Stmt Lv Lineno    Source Statement           (Hibal 5, Asmedit 3.3)  HLASM R4.0  2004/03/22 09.42
+___    ______ ____    _____ _____  ____ __ ______    ______ _________
0                                   2154     236.     ¿þþþþþþþþþþþþþþþþþþþþþþþþþþþþþþþþþþþþþþþþþþþþþþþþþþþþþþþþþþþþþþþþþþþþþÜ
                                    2155     237.     Ÿ                                                                     Ÿ
                                    2156     238.     Ÿ   CONSTANTS                                                         Ÿ
                                    2157     239.     Ÿ                                                                     Ÿ
                                                      ¾þþþþþþþþþþþþþþþþþþþþþþþþþþþþþþþþþþþþþþþþþþþþþþþþþþþþþþþþþþþþþþþþþþþþþ»
00001C8                             2158     240.              LTORG ,
 0001C8 D596A340859596A4            2160                             =C'Not enough core for OVAM'
 0001E0 D6E5C1D440C3E340            2161                             =CL8'OVAM CT'
 0001E8 E58599A28996957E            2162                             =C'Version='
 0001F0 00003000                    2163                             =A(L'CT)
 0001F4 015F9000                    2164                             =A(600*38400)
 0001F8 00465000                    2165                             =A(120*38400)
 0001FC 00000000                    2166                             =V(SCINIT)
 000200 00000000                    2167                             =V(SCAN)
 000204 00000DBA                    2168                             =A(INITPATH)
 000208 000009EA                    2169                             =A(SEGTIME)
 00020C 00000000                    2170                             =V(VSEG)
 000210 00000000                    2171                             =A(OVAM)
 000214 00000000                    2172                             =V(VWRITE)
 000218 00000F20                    2173                             =A(GETXACT)
 00021C 00009600                    2174                             =A(38400)
 000220 D781999440A28381            2175                             =C'Parm scan error'
 00022F D6E5C1D440C99589            2176                             =C'OVAM Initialization complete.'
 00024C C595A38599899587            2177                             =C'Entering WAIT for transactions.'
 00026B D596408995A38599            2178                             =C'No interval specified - default assumed'
 000292 D5D640C9C440E2D7            2179                             =C'NO ID SPECIFIED - DEFAULT ASSUMED'
-0002B3                             2184     242.     PARMSCKW SCKW  PUBLIC,PUBVAM,A
 0002B3 0D00016ED7E4C2D3            2185             +
 0002BD                             2186     243.              SCKW  PRIVATE,PRIVAM,A
 0002BD 0E000174D7D9C9E5            2187             +
 0002C8                             2188     244.              SCKW  TIMER,TIMINT1,(P,I)
 0002C8 C400017AE3C9D4C5            2189             +
 0002D1 810001A4C9C4                2190     245.              SCKW  ID,TASKID,P
 0002D7 FF000000                    2192     246.              SCKW  ,
1OVAM     (OVAM20) (09:42) (22MAR04) VAM/370 - OVAM'S ORVYL INTERFACE AND CONTROL PROGRAM                                   Page   13
0Loc    Object Code    Addr1 Addr2  Stmt Lv Lineno    Source Statement           (Hibal 5, Asmedit 3.3)  HLASM R4.0  2004/03/22 09.42
+___    ______ ____    _____ _____  ____ __ ______    ______ _________
0                                   2195     248.     ¿þþþþþþþþþþþþþþþþþþþþþþþþþþþþþþþþþþþþþþþþþþþþþþþþþþþþþþþþþþþþþþþþþþþþþÜ
                                    2196     249.     Ÿ                                                                     Ÿ
                                    2197     250.     Ÿ  Attention exit routine                                             Ÿ
                                    2198     251.     Ÿ                                                                     Ÿ
                                                      ¾þþþþþþþþþþþþþþþþþþþþþþþþþþþþþþþþþþþþþþþþþþþþþþþþþþþþþþþþþþþþþþþþþþþþþ»
00002DC                             2199     252.     EXITBASE LABEL ,                       COMMON EXIT ROUTINE BASE
 0002DC                             2201     253.     VTATTN   LABEL ,
 0002DC 0D70                        2203     254.              BASE  BR                  Temporary exit routine base
 USING  *,R7
 0002DE 5870 796A            00C48  2217     255.              BASE  EXITBASE            Set common base for exit routines
 DROP   *,R7
 USING  EXITBASE,R7
 0002E2 18AE                        2235     256.              LR    CTR,R14                 RESET CTR
 USING  CT,R10                      2236     257.              USING CT,CTR                  ##
 0002E4 41D0 A470            00470  2245     258.              LA    R13,VTSVA
 0002E8 4100 000F            0000F  2246     259.              SENSE 15,VTSETA               GET PSW AND REGS
 0002EC 4110 A428/0AFA       00428  2260             +
 0002F2 4100 0001/0AF2       00001  2269     260.              WAIT  LA:1                    WAIT ON TERMINAL JUST IN CASE
 0002F8                             2277     261.              CLEAR (VTOBUF,4)              ZOT ANYTHING LEFT AROUND
 0002F8 D703 A39C A39C 0039C 0039C  2283             +
 0002FE 5890 7970/0D99       00C4C  2284     262.              VREAD
 000304 1200                        2289     263.              LTR   R0,R0                   ANY DATA?
 000306 4780 7060            0033C  2290     264.              BZ    VTSET10                 RETURN
 00030A 41F0 A2F0            002F0  2291     265.              SCINIT (1),(0),VTSCCB
 00030E 58E0 7974/0DEE       00C50  2311             +
 000314 4110 7082            0035E  2313     266.              SCAN  VERBTABL
 000318 58E0 7978/0DEE       00C54  2326             +
 00031E 4780 7060            0033C  2328     267.              BZ    VTSET10                 ALL CLEAN
 000322 5890 797C/0D99       00C58  2329     268.     ILLSTR   VSEG  (1),(0)
 000328 4110 793C            00C18  2347     269.              VWRITE ': ILLEGAL STRING'
 00032C 4100 0010            00010  2352             +
 000330 5890 797C/0D99       00C58  2355             +
 000336 5890 7980/0D99       00C5C  2359             +
 00033C 4100 000A            0000A  2361     270.     VTSET10  VSET  10,VTSETA
 000340 4110 A428/0AFB       00428  2375             +
                                    2385     271.
 000346 4110 7A28            00D04  2386     272.     VTMISSOP VWRITE 'MISSING OPERAND'
 00034A 4100 000F            0000F  2391             +
 00034E 5890 797C/0D99       00C58  2394             +
 000354 5890 7980/0D99       00C5C  2398             +
 00035A 47F0 7060            0033C  2400     273.              B     VTSET10
-
 00035E                             2402     275.     VERBTABL DS    0H
 00035E                             2403     276.              SCKW  STATUS,STATUS,(A)
 00035E 0D0003BEE2E3C1E3            2404             +
 000368                             2405     277.              SCKW  TIMER,TIMINT2,(A,P,I)
 000368 CC000390E3C9D4C5            2406             +
 000371                             2407     278.              SCKW  PAUSE,PAUSE,A
 000371 0C0003A4D7C1E4E2            2408             +
 00037A FF00037E                    2409     279.              SCKW  ,PASS
-
1OVAM     (OVAM20) (09:42) (22MAR04) VAM/370 - OVAM'S ORVYL INTERFACE AND CONTROL PROGRAM                                   Page   14
0Current Usings:  (EXITBASE,R7) (CT,R10)
0Loc    Object Code    Addr1 Addr2  Stmt Lv Lineno    Source Statement           (Hibal 5, Asmedit 3.3)  HLASM R4.0  2004/03/22 09.42
+___    ______ ____    _____ _____  ____ __ ______    ______ _________
000037E                             2412     281.     PASS     DS    0H
 00037E 1B00/4110 A316       00316  2413     282.              COMMAND 0,VTIBUF,LH:VTIBUFN,MODE=WYLBUR
 000384 1311/48F0 A314       00314  2425             +
 00038A 0AFE                        2431             +
 00038C 47F0 7060            0033C  2433     283.              B     VTSET10
                                    2434     284.
 000390 47D0 706A            00346  2435     285.     TIMINT2  BNP   VTMISSOP                NO INTERVAL SPECIFIED
 000394 5810 F000            00000  2436     286.              L     R1,@R15                 GET # OF SECONDS
 000398 1B00                        2437     287.              CLEAR R0
 00039A 5C00 7984            00C60  2441     288.              M     R0,=A(38400)            CONVERT TO TU'S
 00039E 5010 A018            00018  2442     289.              ST    R1,CTTIMINT             SET
 0003A2 07FE                        2443     290.              SCRTN (15)
                                    2450     291.     *
                                    2451     292.     *   PAUSE FOR DEBUGGING
                                    2452     293.     *
 0003A4 4110 79FC            00CD8  2453     294.     PAUSE    VWRITE 'OK'
 0003A8 4100 0002            00002  2458             +
 0003AC 5890 797C/0D99       00C58  2461             +
 0003B2 5890 7980/0D99       00C5C  2465             +
 0003B8 0AFF                        2467     295.              PAUSE ,
 0003BA 47F0 7060            0033C  2470     296.              B     VTSET10
                                    2471     297.
 0003BE                             2472     298.     STATUS   DS    0H
 0003BE 9140 A080      00080        2473     299.              IF    CTPOPEN,BEGIN
 0003C2 47E0 711A            003F6  2483             +
 0003C6 4110 7988            00C64  2488  1  300.                SETMSG ' EXECUTING, '         JOB IS IN PROGRESS
 0003CA 4100 000C            0000C  2491  1          +
 0003CE 5890 7994/0D99       00C70  2492  1  301.                ACALL SEGSTAT                 PRINT STATS
 0003D4 9104 A080      00080        2496  1  302.                IF    CTENQW,BEGIN
 0003D8 47E0 711A            003F6  2506  1          +
 0003DC 5890 7998/0D99       00C74  2511  2  303.                  ACALL SEGTIME
 0003E2 4110 7A37            00D13  2515  2  304.                  VWRITE 'WAITING FOR ENQUEUE'
 0003E6 4100 0013            00013  2520  2          +
 0003EA 5890 797C/0D99       00C58  2523  2          +
 0003F0 5890 7980/0D99       00C5C  2527  2          +
 0003F6                             2529  1  305.                END   ,
 0003F6 711E           003F6 003C4  2533     306.              END   ELSE,BEGIN
 0003F6 47F0 7138            00414  2542             +
 0003FA 5890 7998/0D99       00C74  2548  1  307.                ACALL SEGTIME             Time stamp response
 000400 4110 7A4A            00D26  2552  1  308.                VWRITE 'OVAM Idle'        Indicate no activity
 000404 4100 0009            00009  2557  1          +
 000408 5890 797C/0D99       00C58  2560  1          +
 00040E 5890 7980/0D99       00C5C  2564  1          +
 000414                             2566     309.              END   ,
 000414 47F0 7060            0033C  2570     310.              B     VTSET10
1OVAM     (OVAM20) (09:42) (22MAR04) VAM/370 - OVAM'S ORVYL INTERFACE AND CONTROL PROGRAM                                   Page   15
0Current Usings:  (EXITBASE,R7) (CT,R10)
0Loc    Object Code    Addr1 Addr2  Stmt Lv Lineno    Source Statement           (Hibal 5, Asmedit 3.3)  HLASM R4.0  2004/03/22 09.42
+___    ______ ____    _____ _____  ____ __ ______    ______ _________
0                                   2572     312.     ¿þþþþþþþþþþþþþþþþþþþþþþþþþþþþþþþþþþþþþþþþþþþþþþþþþþþþþþþþþþþþþþþþþþþþþÜ
                                    2573     313.     Ÿ                                                                     Ÿ
                                    2574     314.     Ÿ    When the timer fires, print the idle message and reset           Ÿ
                                    2575     315.     Ÿ                                                                     Ÿ
                                                      ¾þþþþþþþþþþþþþþþþþþþþþþþþþþþþþþþþþþþþþþþþþþþþþþþþþþþþþþþþþþþþþþþþþþþþþ»
0000418                             2576     316.     TIMER    LABEL ,
 000418 0D70                        2578     317.              BASE  BR                  Temporary base for Timer exit
 DROP   EXITBASE,R7
 USING  *,R7
 00041A 5870 782E            00C48  2595     318.              BASE  EXITBASE            Set common base for exit routines
 DROP   *,R7
 USING  EXITBASE,R7
 00041E 18AE                        2613     319.              LR    CTR,R14             Reset CT from exit info
 000420 41D0 A470            00470  2614     320.              LA    R13,VTSVA           Use exit save area
 000424 4100 0001/0AF2       00001  2615     321.              WAIT  LA:1                Wait on terminal
 00042A 5890 7998/0D99       00C74  2623     322.              ACALL SEGTIME             Time stamp message
 000430 4110 7A4A            00D26  2627     323.              VWRITE 'OVAM Idle'        Indicate no activity
 000434 4100 0009            00009  2632             +
 000438 5890 797C/0D99       00C58  2635             +
 00043E 5890 7980/0D99       00C5C  2639             +
 000444 4100 0003            00003  2641     324.              VSET  3,L:CTTIMINT        Set timer again
 000448 5810 A018/0AFB       00018  2653             +
 00044E 4100 000A/1B11       0000A  2663     325.              VSET  10,0                Return
 000454 0AFB                        2682             +
1OVAM     (OVAM20) (09:42) (22MAR04) VAM/370 - OVAM'S ORVYL INTERFACE AND CONTROL PROGRAM                                   Page   16
0Current Usings:  (EXITBASE,R7) (CT,R10)
0Loc    Object Code    Addr1 Addr2  Stmt Lv Lineno    Source Statement           (Hibal 5, Asmedit 3.3)  HLASM R4.0  2004/03/22 09.42
+___    ______ ____    _____ _____  ____ __ ______    ______ _________
0                                   2685     327.     ¿þþþþþþþþþþþþþþþþþþþþþþþþþþþþþþþþþþþþþþþþþþþþþþþþþþþþþþþþþþþþþþþþþþþþþÜ
                                    2686     328.     Ÿ                                                                     Ÿ
                                    2687     329.     Ÿ    OVAM PANIC EXIT                                                  Ÿ
                                    2688     330.     Ÿ                                                                     Ÿ
                                                      ¾þþþþþþþþþþþþþþþþþþþþþþþþþþþþþþþþþþþþþþþþþþþþþþþþþþþþþþþþþþþþþþþþþþþþþ»
0000456 0D70                        2689     331.     PANIC    BASE  BR                  Temporary base for Panic exit
 DROP   EXITBASE,R7
 USING  *,R7
 000458 5870 77F0            00C48  2706     332.              BASE  EXITBASE            Set common base for exit routines
 DROP   *,R7
 USING  EXITBASE,R7
 00045C 18AE                        2724     333.              LR    CTR,R14                 RESET CT FROM EXIT INFO
 00045E 41D0 A470            00470  2725     334.              LA    R13,VTSVA               USE EXIT SAVE AREA
 000462 4100 000F            0000F  2726     335.              SENSE 15,VTSETA               GET PSW AND REGS
 000466 4110 A428/0AFA       00428  2740             +
 00046C 4110 799C            00C78  2749     336.              SETMSG ' OVAM ERROR '
 000470 4100 000C            0000C  2752             +
 000474 5890 7994/0D99       00C70  2753     337.              ACALL  SEGSTAT                PUT OUT JOB STATS
 00047A 5890 7980/0D99       00C5C  2757     338.              VWRITE ,
 000480 4120 A428            00428  2762     339.              LA    SR,VTSETA               POINT AT PSW, REGS
 000484 4110 79A8            00C84  2763     340.              VSEG  'PSW='
 000488 4100 0004            00004  2767             +
 00048C 5890 797C/0D99       00C58  2770             +
 000492 58F0 2000            00000  2772     341.              SEGHX 8,@SR              CONVERT PSW
 000496 4100 0008            00008  2785             +
 00049A 4110 A020            00020  2792             +
 00049E 58E0 79AC/0DEE       00C88  2795             +
 0004A4 5890 797C/0D99       00C58  2812             +
 0004AA 4110 7A53            00D2F  2814     342.              VSEG  ' '
 0004AE 4100 0001            00001  2818             +
 0004B2 5890 797C/0D99       00C58  2821             +
 0004B8 58F0 2004            00004  2823     343.              SEGHX 8,@SR+4
 0004BC 4100 0008            00008  2836             +
 0004C0 4110 A020            00020  2843             +
 0004C4 58E0 79AC/0DEE       00C88  2846             +
 0004CA 5890 797C/0D99       00C58  2863             +
 0004D0 5890 7980/0D99       00C5C  2865     344.              VWRITE ,
 0004D6 4120 2008            00008  2870     345.              LA    SR,@SR+8
 0004DA 4110 7A54            00D30  2871     346.              VWRITE 'GENERAL PURPOSE REGISTERS'
 0004DE 4100 0019            00019  2876             +
 0004E2 5890 797C/0D99       00C58  2879             +
 0004E8 5890 7980/0D99       00C5C  2883             +
 0004EE 1B33                        2885     347.              CLEAR TR
 0004F0 5930 79B0            00C8C  2889     348.              WHILE (TR,LT,16),BEGIN
 0004F4 47B0 726A            00546  2903             +
 0004F8 18F3/4100 0002       00002  2908  1  349.                SEGDC 2,(TR)             CONVERT GPR NUMBER
 0004FE 4110 A020            00020  2928  1          +
 000502 58E0 79B4/0DEE       00C90  2931  1          +
 000508 5890 797C/0D99       00C58  2948  1          +
 00050E 4110 7A53            00D2F  2950  1  350.                VSEG  ' '
 000512 4100 0001            00001  2954  1          +
 000516 5890 797C/0D99       00C58  2957  1          +
 00051C 58F0 2000            00000  2959  1  351.                SEGHX 8,@SR
1OVAM     (OVAM20) (09:42) (22MAR04) VAM/370 - OVAM'S ORVYL INTERFACE AND CONTROL PROGRAM                                   Page   17
0Current Usings:  (EXITBASE,R7) (CT,R10)
0Loc    Object Code    Addr1 Addr2  Stmt Lv Lineno    Source Statement           (Hibal 5, Asmedit 3.3)  HLASM R4.0  2004/03/22 09.42
+___    ______ ____    _____ _____  ____ __ ______    ______ _________
0000520 4100 0008            00008  2972  1          +
 000524 4110 A020            00020  2979  1          +
 000528 58E0 79AC/0DEE       00C88  2982  1          +
 00052E 5890 797C/0D99       00C58  2999  1          +
 000534 5890 7980/0D99       00C5C  3001  1  352.                VWRITE ,
 00053A 4120 2004            00004  3006  1  353.                LA    SR,@SR+4
 00053E 4130 3001            00001  3007  1  354.                LA    TR,@TR+1
 000542 47F0 7214            004F0  3008     355.              END   ,
                                    3013     356.     *
                                    3014     357.     *  PRINT MISCELLANEOUS CORE AREAS
                                    3015     358.     *
 000546 4110 79FE            00CDA  3016     359.              VWRITE 'OVAM WORK AREA'
 00054A 4100 000E            0000E  3021             +
 00054E 5890 797C/0D99       00C58  3024             +
 000554 5890 7980/0D99       00C5C  3028             +
 00055A 181A                        3030     360.              LR    R1,CTR                  FIRST
 00055C 5800 79B8            00C94  3031     361.              L     R0,=A(L'CT)              PRINT
 000560 1BFF                        3032     362.              CLEAR R15                       THE
 000562 5890 79BC/0D99       00C98  3036     363.              ACALL PRCORE
 000568 0AFD                        3040     364.              XIT   ,                       SAY GOODBYE
1OVAM     (OVAM20) (09:42) (22MAR04) VAM/370 - OVAM'S ORVYL INTERFACE AND CONTROL PROGRAM                                   Page   18
0Current Usings:  (EXITBASE,R7) (CT,R10)
0Loc    Object Code    Addr1 Addr2  Stmt Lv Lineno    Source Statement           (Hibal 5, Asmedit 3.3)  HLASM R4.0  2004/03/22 09.42
+___    ______ ____    _____ _____  ____ __ ______    ______ _________
0                                   3044     366.     ¿þþþþþþþþþþþþþþþþþþþþþþþþþþþþþþþþþþþþþþþþþþþþþþþþþþþþþþþþþþþþþþþþþþþþþÜ
                                    3045     367.     Ÿ                                                                     Ÿ
                                    3046     368.     Ÿ  Print core routine                                                 Ÿ
                                    3047     369.     Ÿ                                                                     Ÿ
                                                      ¾þþþþþþþþþþþþþþþþþþþþþþþþþþþþþþþþþþþþþþþþþþþþþþþþþþþþþþþþþþþþþþþþþþþþþ»
000056A 9029 D000/188D       00000  3048     370.     PRCORE   VENTER SR,RAR,*,LOCAL
 000570 41D0 D020/0D70       00020  3052             +
 000576 5010 A2D8            002D8  3070     371.              ST    R1,DUMPADD              SET STARTING POINT
 DROP   EXITBASE,R7
 USING  *,R7
 00057A 1E10                        3071     372.              ALR   R1,R0                   ENDING ADDRESS
 00057C 5010 A2DC            002DC  3072     373.              ST    R1,DUMPEND
 000580                             3073     374.              WHILE (DUMPADD,LT,DUMPEND),BEGIN
 000580 D503 A2D8 A2DC 002D8 002DC  3087             +
 000586 47B0 7222            00798  3088             +
 00058A 5840 A2D8            002D8  3093  1  375.                L     QR,DUMPADD
 00058E 1834                        3094  1  376.                LR    TR,QR                   COPY
 000590 5440 7726            00C9C  3095  1  377.                N     QR,=XL4'FFFFF0'         TO 16 BOUNDARY
 000594 D20F A2E0 4000 002E0 00000  3096  1  378.                MVC   AREA(16),@QR            GET CORE
 00059A 1934/4770 70FA       00670  3097  1  379.                IF    (TR,EQ,QR),BEGIN        SAME AS REQUESTED
 0005A0 D50B A2E0 A2E4 002E0 002E4  3112  2  380.                  CLC   AREA(12),AREA+4         ALL WORDS SAME?
 0005A6 4770 70FA            00670  3113  2  381.                  IF    EQ,BEGIN
 0005AA 1814                        3124  3  382.                    LR    R1,QR
                                    3125  3  383.     *
                                    3126  3  384.     *  SEARCH FOR EQUAL WORDS
                                    3127  3  385.     *
 0005AC                             3128  3  386.                    LOOP  BEGIN
 0005AC 4110 1010            00010  3134  4  387.                      LA    R1,@R1+16
 0005B0 5910 A2DC            002DC  3135  4  388.                      IF    (R1,GE,DUMPEND),EXIT
 0005B4 47A0 7050            005C6  3149  4          +
 0005B8                             3155  4  389.                      IF    ('CLC   AREA(16),@R1',NE),EXIT     EQUAL?
 0005B8 D50F A2E0 1000 002E0 00000  3162  4          +
 0005BE 4770 7050            005C6  3165  4          +
 0005C2 47F0 7036            005AC  3171  3  390.                    END   ,
 0005C6 5010 A2D8            002D8  3176  3  391.                    ST    R1,DUMPADD
 0005CA 1B13                        3177  3  392.                    SR    R1,TR                   EQUAL WORDS LENGTH
 0005CC 5510 772A            00CA0  3178  3  393.                    CL    R1,=F'16'
 0005D0 47D0 70FA            00670  3179  3  394.                    IF    NH,EXIT
                                    3193  3  395.
 0005D4 1821                        3194  3  396.                    LR    SR,R1                   SAVE COUNT
 0005D6 18F3/4100 0006       00006  3195  3  397.                    SEGHX 6,(TR)                  LOCATION
 0005DC 4110 A020            00020  3215  3          +
 0005E0 58E0 7712/0DEE       00C88  3218  3          +
 0005E6 5890 76E2/0D99       00C58  3235  3          +
 0005EC 4110 77D3            00D49  3237  3  398.                    VSEG  '   '
 0005F0 4100 0003            00003  3241  3          +
 0005F4 5890 76E2/0D99       00C58  3244  3          +
 0005FA 18F2/4100 0006       00006  3246  3  399.                    SEGHX 6,(SR)
 000600 4110 A020            00020  3266  3          +
 000604 58E0 7712/0DEE       00C88  3269  3          +
 00060A 5890 76E2/0D99       00C58  3286  3          +
 000610 4110 77D6            00D4C  3288  3  400.                    VSEG  ' BYTES ALL CONTAIN '
 000614 4100 0013            00013  3292  3          +
1OVAM     (OVAM20) (09:42) (22MAR04) VAM/370 - OVAM'S ORVYL INTERFACE AND CONTROL PROGRAM                                   Page   19
0Current Usings:  (*,R7) (CT,R10)
0Loc    Object Code    Addr1 Addr2  Stmt Lv Lineno    Source Statement           (Hibal 5, Asmedit 3.3)  HLASM R4.0  2004/03/22 09.42
+___    ______ ____    _____ _____  ____ __ ______    ______ _________
0000618 5890 76E2/0D99       00C58  3295  3          +
 00061E 58F0 A2E0            002E0  3297  3  401.                    SEGHX 8,AREA
 000622 4100 0008            00008  3310  3          +
 000626 4110 A020            00020  3317  3          +
 00062A 58E0 7712/0DEE       00C88  3320  3          +
 000630 5890 76E2/0D99       00C58  3337  3          +
 000636 DC03 A2E0 759C 002E0 00B12  3339  3  402.                    TR    AREA(4),EBCDIC
 00063C 4110 77E9            00D5F  3340  3  403.                    VSEG  '  |'
 000640 4100 0003            00003  3344  3          +
 000644 5890 76E2/0D99       00C58  3347  3          +
 00064A 4110 A2E0            002E0  3349  3  404.                    VSEG  AREA,4
 00064E 4100 0004            00004  3365  3          +
 000652 5890 76E2/0D99       00C58  3368  3          +
 000658 4110 77EC            00D62  3370  3  405.                    VSEG  '|'
 00065C 4100 0001            00001  3374  3          +
 000660 5890 76E2/0D99       00C58  3377  3          +
 000666 5890 76E6/0D99       00C5C  3379  3  406.                    VWRITE ,
 00066C 47F0 700A            00580  3384  3  407.                    NEXT  ,
 000670                             3387  2  408.                  END   ,
 000670                             3391  1  409.                END   ,
 000670 18F3/4100 0006       00006  3395  1  410.                SEGHX 6,(TR)
 000676 4110 A020            00020  3415  1          +
 00067A 58E0 7712/0DEE       00C88  3418  1          +
 000680 5890 76E2/0D99       00C58  3435  1          +
 000686 4110 7772            00CE8  3437  1  411.                VSEG  '  '
 00068A 4100 0002            00002  3441  1          +
 00068E 5890 76E2/0D99       00C58  3444  1          +
 000694 58F0 A2E0            002E0  3446  1  412.                BTX   CLWTEMP,8,AREA          DATA
 000698 4100 0008            00008  3458  1          +
 00069C 4110 A020            00020  3465  1          +
 0006A0 58E0 7712/0DEE       00C88  3468  1          +
 0006A6 58F0 A2E4            002E4  3470  1  413.                BTX   CLWTEMP+8,(0),AREA+4
 0006AA 4110 A028            00028  3487  1          +
 0006AE 58E0 7712/0DEE       00C88  3490  1          +
 0006B4 58F0 A2E8            002E8  3492  1  414.                BTX   CLWTEMP+16,(0),AREA+8
 0006B8 4110 A030            00030  3509  1          +
 0006BC 58E0 7712/0DEE       00C88  3512  1          +
 0006C2 58F0 A2EC            002EC  3514  1  415.                BTX   CLWTEMP+24,(0),AREA+12
 0006C6 4110 A038            00038  3531  1          +
 0006CA 58E0 7712/0DEE       00C88  3534  1          +
 0006D0 DC0F A2E0 759C 002E0 00B12  3536  1  416.                TR    AREA(16),EBCDIC         TRANSLATE FOR BCD
 0006D6 1B34                        3537  1  417.                SR    TR,QR                   REQUEST ADDR-FETCH ADDRESS
 0006D8 4780 7184            006FA  3538  1  418.                IF    NZ,BEGIN
 0006DC 9240 A020      00020        3549  2  419.                  MVI   CLWTEMP,C' '            BUT BLANK
 0006E0 924B A2E0      002E0        3550  2  420.                  MVI   AREA,C'.'               UNWANTED INFO
 0006E4 0630                        3551  2  421.                  DECR  TR
 0006E6 1233/47D0 7180       006F6  3553  2  422.                  IF   (TR,P),BEGIN             BLANKING MORE THAN 1
 0006EC 0630/4430 7826       00D9C  3567  3  423.                    DEX   TR,'MVC  AREA+1(0),AREA'
 000D9C D200 A2E1 A2E0 002E1 002E0  3578  3          +
 0006F2 4133 3002            00002  3586  3  424.                    LA    TR,@TR+2(TR)
 0006F6                             3587  2  425.                  END   ,
 0006F6 4430 782C            00DA2  3591  2  426.                  EX    TR,'MVC  CLWTEMP+1(0),CLWTEMP'
 000DA2 D200 A021 A020 00021 00020  3599  2          +
 0006FA                             3607  1  427.                END   ,
1OVAM     (OVAM20) (09:42) (22MAR04) VAM/370 - OVAM'S ORVYL INTERFACE AND CONTROL PROGRAM                                   Page   20
0Current Usings:  (*,R7) (CT,R10)
0Loc    Object Code    Addr1 Addr2  Stmt Lv Lineno    Source Statement           (Hibal 5, Asmedit 3.3)  HLASM R4.0  2004/03/22 09.42
+___    ______ ____    _____ _____  ____ __ ______    ______ _________
00006FA 4110 A020            00020  3611  1  428.                VSEG  CLWTEMP,8               PUT DATA IN BUFFER
 0006FE 4100 0008            00008  3627  1          +
 000702 5890 76E2/0D99       00C58  3630  1          +
 000708 4110 77B9            00D2F  3632  1  429.                VSEG  ' '                     INSERT A BLANK
 00070C 4100 0001            00001  3636  1          +
 000710 5890 76E2/0D99       00C58  3639  1          +
 000716 4110 A028            00028  3641  1  430.                VSEG  CLWTEMP+8,8
 00071A 4100 0008            00008  3657  1          +
 00071E 5890 76E2/0D99       00C58  3660  1          +
 000724 4110 77B9            00D2F  3662  1  431.                VSEG  ' '                     INSERT A BLANK
 000728 4100 0001            00001  3666  1          +
 00072C 5890 76E2/0D99       00C58  3669  1          +
 000732 4110 A030            00030  3671  1  432.                VSEG  CLWTEMP+16,8
 000736 4100 0008            00008  3687  1          +
 00073A 5890 76E2/0D99       00C58  3690  1          +
 000740 4110 77B9            00D2F  3692  1  433.                VSEG  ' '                     INSERT A BLANK
 000744 4100 0001            00001  3696  1          +
 000748 5890 76E2/0D99       00C58  3699  1          +
 00074E 4110 A038            00038  3701  1  434.                VSEG  CLWTEMP+24,8
 000752 4100 0008            00008  3717  1          +
 000756 5890 76E2/0D99       00C58  3720  1          +
 00075C 4110 7774            00CEA  3722  1  435.                VSEG  ' |'
 000760 4100 0002            00002  3726  1          +
 000764 5890 76E2/0D99       00C58  3729  1          +
 00076A 4110 A2E0            002E0  3731  1  436.                VSEG  AREA,16
 00076E 4100 0010            00010  3747  1          +
 000772 5890 76E2/0D99       00C58  3750  1          +
 000778 4110 77EC            00D62  3752  1  437.                VSEG  '|'
 00077C 4100 0001            00001  3756  1          +
 000780 5890 76E2/0D99       00C58  3759  1          +
 000786 5890 76E6/0D99       00C5C  3761  1  438.                VWRITE ,
 00078C 4140 4010            00010  3766  1  439.                LA    QR,@QR+16               NEXT ADDRESS
 000790 5040 A2D8            002D8  3767  1  440.                ST    QR,DUMPADD
 000794 47F0 700A            00580  3768     441.              END   ,
 000798 18D8/9829 D000       00000  3773     442.              VEXIT  SR,RAR
 00079E 07F9                        3777             +
1OVAM     (OVAM20) (09:42) (22MAR04) VAM/370 - OVAM'S ORVYL INTERFACE AND CONTROL PROGRAM                                   Page   21
0Current Usings:  (*,R7) (CT,R10)
0Loc    Object Code    Addr1 Addr2  Stmt Lv Lineno    Source Statement           (Hibal 5, Asmedit 3.3)  HLASM R4.0  2004/03/22 09.42
+___    ______ ____    _____ _____  ____ __ ______    ______ _________
0                                   3779     444.     *    FOLLOWING ROUTINES MAY BE CALLED FROM ANYWHERE IN OVAM, WHICH
                                    3780     445.     *    MAY CAUSE INTERESTING SIDE EFFECTS.
                                    3781     446.     *
 DROP   CT,R10                      3782     447.              DROP  ,                       ##
 DROP   *,R7
 USING  CT,R10                      3821     448.              USING CT,CTR                  ##
                                    3830     449.     *  ADD SEGMENT TO OUTPUT BUFFER
                                    3831     450.     *
 0007A0 9009 D000/188D       00000  3832     451.     VSEG     VENTER 0,9
 0007A6 0D70                        3839             +
 USING  *,R7
 0007A8 1230                        3851     452.              LTR   TR,0                    TEST LENGTH
 0007AA 47D0 7034            007DC  3852     453.              BNP   SEGX                    BR IF NULL SEG
 0007AE 4120 0085            00085  3853     454.              LA    SR,VTOBUFL              COMPUTE REMAINING LENGTH
 0007B2 4B20 A39C            0039C  3854     455.              SH    SR,VTOBUF
 0007B6 47D0 7034            007DC  3855     456.              BNP   SEGX
 0007BA 1B23                        3856     457.              SR    SR,TR
 0007BC 47B0 701C            007C4  3857     458.              BNM   *+8
 0007C0 1A32                        3858     459.              AR    TR,SR
 0007C2 1B22                        3859     460.              SR    SR,SR
 0007C4 4150 A3A0            003A0  3860     461.              LA    RR,VTOBUF+4             COMPUT MOVE ADDR
 0007C8 4A50 A39C            0039C  3861     462.              AH    RR,VTOBUF
 0007CC 0630/4430 7600       00DA8  3862     463.              DEX   TR,'MVC  @RR(0),@R1'    MOVE SEG TO BUFFER
 000DA8 D200 5000 1000 00000 00000  3873             +
 0007D2 4130 0085            00085  3881     464.              LA    TR,VTOBUFL              COMPUTE NEW LENGTH
 0007D6 1B32                        3882     465.              SR    TR,SR
 0007D8 4030 A39C            0039C  3883     466.              STH   TR,VTOBUF
 0007DC 18D8/9809 D000       00000  3884     467.     SEGX     VEXIT 0,9
 0007E2 07F9                        3888             +
                                    3889     468.
-
-                                   3891     470.     *
                                    3892     471.     *  MARK START OF PROMPT
                                    3893     472.     *
                                    3894     473.              ENTRY VMARK
 0007E4 D201 A39E A39C 0039E 0039C  3895     474.     VMARK    MVC   VTOBUF+2(2),VTOBUF
 0007EA 07F9                        3896     475.              BR    RAR
1OVAM     (OVAM20) (09:42) (22MAR04) VAM/370 - OVAM'S ORVYL INTERFACE AND CONTROL PROGRAM                                   Page   22
0Current Usings:  (*,R7) (CT,R10)
0Loc    Object Code    Addr1 Addr2  Stmt Lv Lineno    Source Statement           (Hibal 5, Asmedit 3.3)  HLASM R4.0  2004/03/22 09.42
+___    ______ ____    _____ _____  ____ __ ______    ______ _________
0                                   3898     477.     *  TYPE THE BUFFER
                                    3899     478.     *
 0007EC 9029 D000/188D       00000  3900     479.     VWRITE   VENTER 02,9,*
 0007F2 41D0 D020/0D70       00020  3905             +
 0007F8 9110 A425      00425        3923     480.              IF    VTFDUMP,VWDUMP          TO WDS?
 DROP   *,R7
 USING  *,R7
 0007FC 4710 701C            00814  3935             +
 000800 4100 0001            00001  3941     481.              WRITE LA:1,VTOBUF+4,LH:VTOBUF
 000804 4110 A3A0            003A0  3953             +
 000808 48F0 A39C/0AF6       0039C  3957             +
 00080E 0AF2                        3964     482.              WAIT  (0)
 000810 47F0 70DC            008D4  3972     483.              B     VWDONE
                                    3973     484.
 000814 9120 A425      00425        3974     485.     VWDUMP   IF    VTFDSUP,VW1             DUMP AREA SET UP?
 000818 4710 7064            0085C  3987             +
 00081C 4100 000E            0000E  3993     486.              VSET  14,133,133              GET A BUFFER FOR DUMP
 000820 4110 0085            00085  4007             +
 000824 41F0 0085/0AFB       00085  4014             +
 00082A 4770 714A            00942  4021     487.              BNZ   VTNOCORE
 00082E 9620 A425      00425        4022     488.              SET   VTFDSUP                 DUMP AREA SET UP
 000832 5010 A310            00310  4028     489.              ST    1,VTDUMPB               SAVE ADD OF DUMP BUFFER
 000836                             4029     490.              CLEAR (@R1,4)                 CLEAR CONTROL WORD
 000836 D703 1000 1000 00000 00000  4035             +
 00083C 1821                        4036     491.              LR    SR,1                    SAVE BUFF POINTER
 00083E 4100 0001            00001  4037     492.              CONTROL LA:1,16               SENSE LAST LINE NUMBER
 000842 4110 0010/0AF5       00010  4049             +
 000848 0AF2                        4059     493.              WAIT  (0)
 00084A 5A10 74AC            00CA4  4067     494.              A     1,=A(999)               ROUND LINE NUMBER UP
 00084E 1B00                        4068     495.              SR    0,0
 000850 5D00 74B0            00CA8  4069     496.              D     0,=A(1000)
 000854 5C00 74B0            00CA8  4070     497.              M     0,=A(1000)
 000858 5010 2004            00004  4071     498.              ST    1,4(,SR)                SAVE LINENNUMBER IN BUFFER
000085C 5820 A310            00310  4073     500.     VW1      L     SR,VTDUMPB              GET DUMP BUFFER
 000860 5830 2000            00000  4074     501.              L     TR,0(,SR)               CONTROL WORD
 000864 95FF A39E      0039E        4075     502.              CLI   VTOBUF+2,X'FF'          CLEAR BUFFER?
 000868 4780 7086            0087E  4076     503.              BE    VW2
 00086C 1BFF                        4077     504.              SR    15,15                   RETURN CODE IF NO WRITE
 00086E 4850 A39C            0039C  4078     505.              LH    RR,VTOBUF               LENGTH OF THIS LINE
 000872 4145 3005            00005  4079     506.              LA    QR,4+1(RR,TR)           NEW CONTROL WORD
 000876 5940 74B4            00CAC  4080     507.              C     QR,=A(133-4-4)         WILL IT FIT?
 00087A 4740 70B4            008AC  4081     508.              BL    VW4                     YES
                                    4082     509.     *
                                    4083     510.     * TIME TO WRITE TO WDS
                                    4084     511.     *
 00087E 18F3                        4085     512.     VW2      LR    15,TR                   BUFF LENGTH
 000880 56F0 74B8            00CB0  4086     513.              O     15,=X'00020000'         OPTION CODE: INSERT
 000884 1BEE                        4087     514.              SR    14,14
 000886 4100 0001            00001  4088     515.              WRITE LA:1,4(SR),(15),MODE=TEXT
 00088A 4112 0004/1311       00004  4100             +
 000890 0AF6                        4111             +
 000892 0AF2                        4113     516.              WAIT  (0)
 000894 95FF A39E      0039E        4121     517.              CLI   VTOBUF+2,X'FF'          WDS BUFFER CLEARED?
1OVAM     (OVAM20) (09:42) (22MAR04) VAM/370 - OVAM'S ORVYL INTERFACE AND CONTROL PROGRAM                                   Page   23
0Current Usings:  (*,R7) (CT,R10)
0Loc    Object Code    Addr1 Addr2  Stmt Lv Lineno    Source Statement           (Hibal 5, Asmedit 3.3)  HLASM R4.0  2004/03/22 09.42
+___    ______ ____    _____ _____  ____ __ ______    ______ _________
0000898 4780 7104            008FC  4122     518.              BE    VWFREE                  RELEASE BUFFER
 00089C 4132 3004            00004  4123     519.              LA    TR,4(SR,TR)             OLD END OF BUFFER
 0008A0 D203 2004 3000 00004 00000  4124     520.              MVC   4(4,SR),0(TR)           MOVE UP NEXT LINE NUMBER
 0008A6 4140 5005            00005  4125     521.              LA    QR,4+1(,RR)             NEW CONTROL WORD
 0008AA 1B33                        4126     522.              SR    TR,TR
 0008AC 5040 2000            00000  4127     523.     VW4      ST    QR,0(,SR)               NEW CONTROL WORD
 0008B0 4132 3004            00004  4128     524.              LA    TR,4(SR,TR)             BUFFER FOR NEW LINE
 0008B4 4250 3004            00004  4129     525.              STC   RR,4(,TR)               LENGTH BYTE
 0008B8 4450 75B6            00DAE  4130     526.              EX    RR,'MVC  @TR+5(0),VTOBUF+4'   MOVE LINE TO BUFFER
 000DAE D200 3005 A3A0 00005 003A0  4138             +
 0008BC BF1F 3000            00000  4146     527.              L4    1,@TR                   PRE-SET LINE NUMBER
 0008C0 5A10 74B0            00CA8  4148     528.              A     1,=A(1000)              NEXT LINE NUMBER
 0008C4 4153 5005            00005  4149     529.              LA    RR,5(TR,RR)             KEEP AT END OF LAST LINE
 0008C8 BE1F 5000            00000  4150     530.              ST4   R1,@RR
 0008CC 54F0 74BC            00CB4  4152     531.              N     15,=X'FFFFFFF8'         MASK EDIT RETURN CODE=4
 0008D0 4770 7100            008F8  4153     532.              BNZ   VWERR
 0008D4 9108 A425      00425        4154     533.     VWDONE   IF    ~VTFATTN,VWEXIT         IDLE ATTN?
 0008D8 47E0 70F0            008E8  4167             +
 0008DC 41F0 0004            00004  4173     534.              LA    15,4                    ABORT CODE
 0008E0 9120 A425      00425        4174     535.              IF    VTFDSUP,VWFREE          DUMPING?
 0008E4 4710 7104            008FC  4186             +
 0008E8                             4192     536.     VWEXIT   DS    0H
 0008E8                             4193     537.              CLEAR (VTOBUF,4)
 0008E8 D703 A39C A39C 0039C 0039C  4199             +
 0008EE 18D8/9829 D000       00000  4200     538.              VEXIT 2,9,LTR
 0008F4 12FF/07F9                   4204             +
                                    4206     539.
 0008F8 41F0 0004            00004  4207     540.     VWERR    LA    15,4                    ERROR CODE
 0008FC 94EF A425      00425        4208     541.     VWFREE   CLEAR VTFDUMP
 000900 94DF A425      00425        4216     542.              CLEAR VTFDSUP
 000904 182F                        4223     543.              LR    SR,15                   SAVE RETURN
 000906 4100 000F            0000F  4224     544.              VSET  15,L:VTDUMPB,133        FREE DUMP BUFFER
 00090A 5810 A310            00310  4236             +
 00090E 41F0 0085/0AFB       00085  4243             +
 000914 12F2                        4250     545.              LTR   15,SR                   ERROR OR ATTN?
 000916 4780 70F0            008E8  4251     546.              BZ    VWEXIT
 00091A                             4252     547.              CLEAR (VTOBUF,4)
 00091A D703 A39C A39C 0039C 0039C  4258             +
 000920 4110 74C0            00CB8  4259     548.              VWRITE 'DUMP ABORTED'
 000924 4100 000C            0000C  4264             +
 000928 5890 7460/0D99       00C58  4267             +
 00092E 5890 7464/0D99       00C5C  4271             +
 000934 41F0 0004            00004  4273     549.              LA    15,4
 000938 18D8/9829 D000       00000  4274     550.              VEXIT 2,9,LTR
 00093E 12FF/07F9                   4278             +
                                    4280     551.
 000942 4110 756B            00D63  4281     552.     VTNOCORE VWRITE 'INSUFFICIENT USER MEMORY TO PROCESS COMMAND'
 000946 4100 002B            0002B  4286             +
 00094A 5890 7460/0D99       00C58  4289             +
 000950 5890 7464/0D99       00C5C  4293             +
 000956 47F0 7100            008F8  4295     553.              B     VWERR
1OVAM     (OVAM20) (09:42) (22MAR04) VAM/370 - OVAM'S ORVYL INTERFACE AND CONTROL PROGRAM                                   Page   24
0Current Usings:  (*,R7) (CT,R10)
0Loc    Object Code    Addr1 Addr2  Stmt Lv Lineno    Source Statement           (Hibal 5, Asmedit 3.3)  HLASM R4.0  2004/03/22 09.42
+___    ______ ____    _____ _____  ____ __ ______    ______ _________
0                                   4297     555.     *  TYPE AND PROMPT
                                    4298     556.     *
 00095A 9029 D000/188D       00000  4299     557.     VREAD    VENTER 2,9,*
 000960 41D0 D020/0D70       00020  4304             +
 000966 4110 7428            00D8E  4322     558.              VSEG  '*? '
 DROP   *,R7
 USING  *,R7
 00096A 4100 0003            00003  4326             +
 00096E 5890 72F2/0D99       00C58  4329             +
 000974 4820 A39C            0039C  4331     559.              LH    SR,VTOBUF               COMPUTE COUNTS
 000978 4830 A39E            0039E  4332     560.              LH    TR,VTOBUF+2
 00097C 4030 A39C            0039C  4333     561.              STH   TR,VTOBUF
 000980 1B23                        4334     562.              SR    SR,TR
 000982 4020 A39E            0039E  4335     563.              STH   SR,VTOBUF+2
 000986                             4336     564.     VRAGAIN  DS    0H
 000986 4100 0001            00001  4337     565.              READ  LA:1,VTIBUF,VTIBUFL,LA:VTOBUF
 00098A 4110 A316            00316  4349             +
 00098E 41F0 0085            00085  4356             +
 000992 41E0 A39C/0AF7       0039C  4361             +
 000998 0AF2                        4365     566.              WAIT  (0)
 00099A 4740 7056            009BC  4373     567.              BM    VRIO                    BR IF I/O ERROR
 00099E 4720 7062            009C8  4374     568.              BP    VRATTN                  BR IF ATTN
 0009A2 4010 A314            00314  4375     569.     VRRET    STH   1,VTIBUFN
 0009A6 1801                        4376     570.              LR    0,1
 0009A8 4110 A316            00316  4377     571.              LA    1,VTIBUF
 0009AC                             4378     572.              CLEAR (VTOBUF,4)
 0009AC D703 A39C A39C 0039C 0039C  4384             +
 0009B2 18D8/9829 D000       00000  4385     573.              VEXIT 2,9,LTR
 0009B8 12FF/07F9                   4389             +
                                    4391     574.     *
                                    4392     575.     *
 0009BC                             4393     576.     VRIO     DS    0H
 0009BC 4110 72C2            00C28  4394     577.              SYSQS 1,15,'TRANSMISSION ERROR. RETYPE LINE.'
 0009C0 41F0 0020            00020  4397             +
 0009C4 0AF6                        4398     578.              WRITE (0),(1),(15)
 0009C6 0AF2                        4420     579.              WAIT  (0)
                                    4428     580.
 0009C8                             4429     581.     VRATTN   DS    0H
 0009C8 1211                        4430     582.              LTR   1,1
 0009CA 4780 703C            009A2  4431     583.              BZ    VRRET
 0009CE 4120 A3A0            003A0  4432     584.              LA    SR,VTOBUF+4             MOVE PROMPT TO START OF BUFFER
 0009D2 4A20 A39C            0039C  4433     585.              AH    SR,VTOBUF
 0009D6 4830 A39E            0039E  4434     586.              LH    TR,VTOBUF+2
 0009DA 0630/4430 744E       00DB4  4435     587.              DEX   TR,' MVC VTOBUF+4(0),0(SR) '
 000DB4 D200 A3A0 2000 003A0 00000  4446             +
 0009E0 1B33                        4454     588.              SR    TR,TR
 0009E2 4030 A39C            0039C  4455     589.              STH   TR,VTOBUF
 0009E6 47F0 7020            00986  4456     590.              B     VRAGAIN
1OVAM     (OVAM20) (09:42) (22MAR04) VAM/370 - OVAM'S ORVYL INTERFACE AND CONTROL PROGRAM                                   Page   25
0Current Usings:  (*,R7) (CT,R10)
0Loc    Object Code    Addr1 Addr2  Stmt Lv Lineno    Source Statement           (Hibal 5, Asmedit 3.3)  HLASM R4.0  2004/03/22 09.42
+___    ______ ____    _____ _____  ____ __ ______    ______ _________
0                                   4458     592.     ¿þþþþþþþþþþþþþþþþþþþþþþþþþþþþþþþþþþþþþþþþþþþþþþþþþþþþþþþþþþþþþþþþþþþþþÜ
                                    4459     593.     Ÿ                                                                     Ÿ
                                    4460     594.     Ÿ    SEGTIME - Print current time of day                              Ÿ
                                    4461     595.     Ÿ                                                                     Ÿ
                                                      ¾þþþþþþþþþþþþþþþþþþþþþþþþþþþþþþþþþþþþþþþþþþþþþþþþþþþþþþþþþþþþþþþþþþþþþ»
00009EA 9029 D000/188D       00000  4462     596.     SEGTIME  VENTER SR,RAR,*,LOCAL
 0009F0 41D0 D020/0D70       00020  4466             +
 0009F6 1B00/1B11                   4484     597.              CLEAR R0,R1
 DROP   *,R7
 USING  *,R7
 0009FA 41F0 A020            00020  4490     598.              LA    R15,CTWORK
 0009FE 58E0 72CE/0DEE       00CC4  4491     599.              XCALL FMTTIME
 000A04 9240 A028      00028        4495     600.              MVI   CTWORK+8,C' '
 000A08 4110 A020            00020  4496     601.              VSEG  CTWORK,9
 000A0C 4100 0009            00009  4512             +
 000A10 5890 7262/0D99       00C58  4515             +
 000A16 18D8/9829 D000       00000  4517     602.              VEXIT SR,RAR
 000A1C 07F9                        4521             +
1OVAM     (OVAM20) (09:42) (22MAR04) VAM/370 - OVAM'S ORVYL INTERFACE AND CONTROL PROGRAM                                   Page   26
0Current Usings:  (*,R7) (CT,R10)
0Loc    Object Code    Addr1 Addr2  Stmt Lv Lineno    Source Statement           (Hibal 5, Asmedit 3.3)  HLASM R4.0  2004/03/22 09.42
+___    ______ ____    _____ _____  ____ __ ______    ______ _________
0                                   4523     604.     *    SEG ELAPSED, CPU TIMES, I/O COUNTS
                                    4524     605.     *     MESSAGE TEXT POINTERS IN R0,R1 FOR 'ENDING', ETC.
                                    4525     606.     *
 USING  VCH,R11                     4526     607.              USING VCH,VCHR                ##
 000A1E 9029 D000/188D       00000  4535     608.     SEGSTAT  VENTER SR,RAR,*,LOCAL
 000A24 41D0 D020/0D70       00020  4539             +
 000A2A 1820                        4557     609.              LR    SR,R0                   SAVE PARM LENGTH
 DROP   *,R7
 USING  *,R7
 000A2C 1831                        4558     610.              LR    TR,R1                   AND ADDRESS
 000A2E 5890 724A/0D99       00C74  4559     611.              ACALL SEGTIME
 000A34 4110 729E            00CC8  4563     612.              VSEG  'JOB '
 000A38 4100 0004            00004  4567             +
 000A3C 5890 722E/0D99       00C58  4570             +
 000A42 4110 B004            00004  4572     613.              VSEG  VCJOBNAM,L'VCJOBNAM
 000A46 4100 0008            00008  4588             +
 000A4A 5890 722E/0D99       00C58  4591             +
 000A50 1813/1802                   4593     614.              VSEG  (TR),(SR)               SEG PARM. TEXT
 000A54 5890 722E/0D99       00C58  4608             +
 000A5A 4100 0004/0AFA       00004  4610     615.              SENSE 4                       GET TIMES
 000A60 5B10 A048            00048  4629     616.              S     R1,CTELATIM             ELAPSED TIME
 000A64 5BF0 A044            00044  4630     617.              S     R15,CTCPUTIM            CPU TIME
 000A68 182F                        4631     618.              LR    SR,R15                  SAVE
 000A6A 1B00                        4632     619.              CLEAR R0
 000A6C 5D00 72A2            00CCC  4636     620.              D     R0,=A(384)
 000A70 1801                        4637     621.              LR    R0,R1                   TIME
 000A72 4110 A020            00020  4638     622.              LA    R1,CTWORK               ANSWER AREA
 000A76 58E0 72A6/0DEE       00CD0  4639     623.              XCALL TIME
 000A7C 5890 722E/0D99       00C58  4643     624.              VSEG  (R1),(R0)
 000A82 4110 72C2            00CEC  4658     625.              VSEG  ' ELAPSED, '
 000A86 4100 000A            0000A  4662             +
 000A8A 5890 722E/0D99       00C58  4665             +
 000A90 1812                        4667     626.              LR    R1,SR
 000A92 1B00                        4668     627.              CLEAR R0
 000A94 5C00 72AA            00CD4  4672     628.              M     R0,=A(26)               CONVERT TO MICRO-SECS
 000A98 5D00 727E            00CA8  4673     629.              D     R0,=A(1000)             DOWN TO MILLI-SECS
 000A9C 4E10 A020            00020  4674     630.              CVD   R1,CTWORK
 000AA0 D20C A028 70DA 00028 00B04  4675     631.              MVC   CTWORK+8(L'CPUTMASK),CPUTMASK  EDIT MASK
 000AA6 4110 A030            00030  4676     632.              LA    R1,CTWORK+8+8           IN CASE OF NO SIGNIFIGANCE
 000AAA DF0C A028 A022 00028 00022  4677     633.              EDMK  CTWORK+8(L'CPUTMASK),CTWORK+2
 000AB0 4100 A035            00035  4678     634.              LA    R0,CTWORK+8+L'CPUTMASK
 000AB4 1B01                        4679     635.              SR    R0,R1                   CALCULATE LENGTH
 000AB6 5890 722E/0D99       00C58  4680     636.              VSEG  (1),(0)
 000ABC 4110 72CC            00CF6  4697     637.              VSEG  ' SECONDS CPU, '
 000AC0 4100 000E            0000E  4701             +
 000AC4 5890 722E/0D99       00C58  4704             +
 000ACA 4100 0019/0AFA       00019  4706     638.              SENSE 25                      GET I/O COUNT
 000AD0 5B00 A04C            0004C  4725     639.              S     R0,CTIOCNT
 000AD4 18F0                        4726     640.              LR    R15,R0
 000AD6 1B00/4110 A020       00020  4727     641.              SEGDC 0,(15)
 000ADC 58E0 7266/0DEE       00C90  4747             +
 000AE2 5890 722E/0D99       00C58  4764             +
 000AE8 4110 7367            00D91  4766     642.              VWRITE ' FILE I/O''S'
 000AEC 4100 000B            0000B  4771             +
1OVAM     (OVAM20) (09:42) (22MAR04) VAM/370 - OVAM'S ORVYL INTERFACE AND CONTROL PROGRAM                                   Page   27
0Current Usings:  (*,R7) (CT,R10) (VCH,R11)
0Loc    Object Code    Addr1 Addr2  Stmt Lv Lineno    Source Statement           (Hibal 5, Asmedit 3.3)  HLASM R4.0  2004/03/22 09.42
+___    ______ ____    _____ _____  ____ __ ______    ______ _________
0000AF0 5890 722E/0D99       00C58  4774             +
 000AF6 5890 7232/0D99       00C5C  4778             +
 000AFC 18D8/9829 D000       00000  4780     643.              VEXIT SR,RAR                  RETURN TO CALLER
 000B02 07F9                        4784             +
                                    4785     644.
 000B04 4020202020202021            4786     645.     CPUTM    DC    C' ',6X'20',X'2120',C'.',3X'20'
                                    4787     646.     CPUTMASK EQU   CPUTM,*-CPUTM
1OVAM     (OVAM20) (09:42) (22MAR04) VAM/370 - OVAM'S ORVYL INTERFACE AND CONTROL PROGRAM                                   Page   28
0Current Usings:  (*,R7) (CT,R10) (VCH,R11)
0Loc    Object Code    Addr1 Addr2  Stmt Lv Lineno    Source Statement           (Hibal 5, Asmedit 3.3)  HLASM R4.0  2004/03/22 09.42
+___    ______ ____    _____ _____  ____ __ ______    ______ _________
0                                   4789     648.     *  CONSTANTS
                                    4790     649.     *
 000B12                             4791     650.     EBCDIC   DS    0H
 000B12 4B4B4B4B4B4B4B4B            4792     651.              DC    64C'.'
 000B52 40                          4793     652.              DC    C' '
 000B53 4B4B4B4B4B4B4B4B            4794     653.              DC    10C'.'
 000B5D 4B4C4D4E4F                  4795     654.              DC    C'.<(+|'
 000B62 80                          4796     655.              DC    X'80'
 000B63 4B4B4B4B4B4B4B4B            4797     656.              DC    10C'.'
 000B6D 5B5C5D5E5F6061              4798     657.              DC    C'$*);~-/'
 000B74 4B4B4B4B4B4B4B4B            4799     658.              DC    9C'.'
 000B7D 6B6C6D6E6F                  4800     659.              DC    C',%_>?'
 000B82 4B4B4B4B4B4B4B4B            4801     660.              DC    10C'.'
 000B8C 7A7B7C                      4802     661.              DC    C':#@'
 000B8F 7D                          4803     662.              DC    X'7D'
 000B90 7E7F                        4804     663.              DC    C'="'
 000B92 4B                          4805     664.              DC    C'.'
 000B93 8182838485868788            4806     665.              DC    C'abcdefghi'
 000B9C 4B4B4B4B4B4B4B              4807     666.              DC    7C'.'
 000BA3 9192939495969798            4808     667.              DC    C'jklmnopqr'
 000BAC 4B4B4B4B4B4B4B4B            4809     668.              DC    8C'.'
 000BB4 A2A3A4A5A6A7A8A9            4810     669.              DC    C'stuvwxyz'
 000BBC 4B4B4B4B4B4B4B4B            4811     670.              DC    23C'.'
 000BD3 C1C2C3C4C5C6C7C8            4812     671.              DC    C'ABCDEFGHI'
 000BDC 4B4B4B4B4B4B4B              4813     672.              DC    7C'.'
 000BE3 D1D2D3D4D5D6D7D8            4814     673.              DC    C'JKLMNOPQR'
 000BEC 4B4B4B4B4B4B4B4B            4815     674.              DC    8C'.'
 000BF4 E2E3E4E5E6E7E8E9            4816     675.              DC    C'STUVWXYZ'
 000BFC 4B4B4B4B4B4B                4817     676.              DC    6C'.'
 000C02 F0F1F2F3F4F5F6F7            4818     677.              DC    C'0123456789'
 000C0C 4B4B4B4B4B4B                4819     678.              DC    6C'.'
                                    4820     679.
 000C18                             4821     680.              LTORG ,
 000C18 7A40C9D3D3C5C7C1            4823                             =C': ILLEGAL STRING'
 000C28 E3D9C1D5E2D4C9E2            4824                             =C'TRANSMISSION ERROR. RETYPE LINE.'
 000C48 000002DC                    4825                             =A(EXITBASE)
 000C4C 00000000                    4826                             =V(VREAD)
 000C50 00000000                    4827                             =V(SCINIT)
 000C54 00000000                    4828                             =V(SCAN)
 000C58 00000000                    4829                             =V(VSEG)
 000C5C 00000000                    4830                             =V(VWRITE)
 000C60 00009600                    4831                             =A(38400)
 000C64 40C5E7C5C3E4E3C9            4832                             =C' EXECUTING, '
 000C70 00000A1E                    4833                             =A(SEGSTAT)
 000C74 000009EA                    4834                             =A(SEGTIME)
 000C78 40D6E5C1D440C5D9            4835                             =C' OVAM ERROR '
 000C84 D7E2E67E                    4836                             =C'PSW='
 000C88 00000000                    4837                             =V(BTX)
 000C8C 00000010                    4838                             =A(16)
 000C90 00000000                    4839                             =V(BTD)
 000C94 00003000                    4840                             =A(L'CT)
 000C98 0000056A                    4841                             =A(PRCORE)
 000C9C 00FFFFF0                    4842                             =XL4'FFFFF0'
 000CA0 00000010                    4843                             =F'16'
1OVAM     (OVAM20) (09:42) (22MAR04) VAM/370 - OVAM'S ORVYL INTERFACE AND CONTROL PROGRAM                                   Page   29
0Current Usings:  (*,R7) (CT,R10) (VCH,R11)
0Loc    Object Code    Addr1 Addr2  Stmt Lv Lineno    Source Statement           (Hibal 5, Asmedit 3.3)  HLASM R4.0  2004/03/22 09.42
+___    ______ ____    _____ _____  ____ __ ______    ______ _________
0000CA4 000003E7                    4844                             =A(999)
 000CA8 000003E8                    4845                             =A(1000)
 000CAC 0000007D                    4846                             =A(133-4-4)
 000CB0 00020000                    4847                             =X'00020000'
 000CB4 FFFFFFF8                    4848                             =X'FFFFFFF8'
 000CB8 C4E4D4D740C1C2D6            4849                             =C'DUMP ABORTED'
 000CC4 00000000                    4850                             =V(FMTTIME)
 000CC8 D1D6C240                    4851                             =C'JOB '
 000CCC 00000180                    4852                             =A(384)
 000CD0 00000000                    4853                             =V(TIME)
 000CD4 0000001A                    4854                             =A(26)
 000CD8 D6D2                        4855                             =C'OK'
 000CDA D6E5C1D440E6D6D9            4856                             =C'OVAM WORK AREA'
 000CE8 4040                        4857                             =C'  '
 000CEA 404F                        4858                             =C' |'
 000CEC 40C5D3C1D7E2C5C4            4859                             =C' ELAPSED, '
 000CF6 40E2C5C3D6D5C4E2            4860                             =C' SECONDS CPU, '
 000D04 D4C9E2E2C9D5C740            4861                             =C'MISSING OPERAND'
 000D13 E6C1C9E3C9D5C740            4862                             =C'WAITING FOR ENQUEUE'
 000D26 D6E5C1D440C98493            4863                             =C'OVAM Idle'
 000D2F 40                          4864                             =C' '
 000D30 C7C5D5C5D9C1D340            4865                             =C'GENERAL PURPOSE REGISTERS'
 000D49 404040                      4866                             =C'   '
 000D4C 40C2E8E3C5E240C1            4867                             =C' BYTES ALL CONTAIN '
 000D5F 40404F                      4868                             =C'  |'
 000D62 4F                          4869                             =C'|'
 000D63 C9D5E2E4C6C6C9C3            4870                             =C'INSUFFICIENT USER MEMORY TO PROCESS COMMAND'
 000D8E 5C6F40                      4871                             =C'*? '
 000D91 40C6C9D3C540C961            4872                             =C' FILE I/O''S'
 DROP   VCH,R11                     4876     681.              DROP  ,                       ##
 DROP   CT,R10
 DROP   *,R7
1OVAM     (OVAM20) (09:42) (22MAR04) VAM/370 - OVAM'S SUZAN COMMUNICATIONS MODULE                                           Page   30
0Loc    Object Code    Addr1 Addr2  Stmt Lv Lineno    Source Statement           (Hibal 5, Asmedit 3.3)  HLASM R4.0  2004/03/22 09.42
+___    ______ ____    _____ _____  ____ __ ______    ______ _________
0                                   4919     683.     ********************************************************************
                                    4920     684.     *                                                                  *
                                    4921     685.     *    INITIALIZE AND SUPERVISE COMMUNICATIONS WITH THE BATCH        *
                                    4922     686.     *    PORTION OF VAM                                                *
                                    4923     687.     *                                                                  *
                                    4924     688.     ********************************************************************
0USING  CT,R10                      4926     690.              USING CT,CTR                  ##
 USING  VCH,R11                     4935     691.              USING VCH,VCHR                ##
                                    4944     692.     *
                                    4945     693.     *    INITIALIZE SUZAN PATH
                                    4946     694.     *
                                    4947     695.     *       RC=0, INITIALIZATION COMPLETE
                                    4948     696.     *       RC~=0, NOT ENOUGH MEMORY
                                    4949     697.     *       BLOW ON BAD ATTACH
                                    4950     698.     *
 000DBA 9029 D000/188D       00000  4951     699.     INITPATH VENTER SR,RAR,*,LOCAL
 000DC0 41D0 D020/0D70       00020  4955             +
 000DC6 41B0 AFD8            00FD8  4970     700.              LA    VCHR,CTVCH
 USING  *,R7
 000DCA 9120 A080      00080        4971     701.              IF    CTPRIVAM,BEGIN         SPECIAL TAGS, PASSWORD
 000DCE 47E0 7064            00E2A  4981             +
 000DD2 D202 A06C 74BC 0006C 01282  4986  1  702.                MVC   CTPME(3),=CL3'OVA'      OVAM ID (THAT'S ME)
 000DD8 D202 A06F A050 0006F 00050  4987  1  703.                MVC   CTPME+3(3),CTUSER
 000DDE D201 A072 A054 00072 00054  4988  1  704.                MVC   CTPME+6(2),CTGRP
 000DE4 D202 A074 74BF 00074 01285  4989  1  705.                MVC   CTPYOU(3),=CL3'VAM'     VAM ID (THAT'S YOU)
 000DEA D204 A077 A06F 00077 0006F  4990  1  706.                MVC   CTPYOU+3(5),CTPME+3
 000DF0 D603 A07C A07C 0007C 0007C  4991  1  707.                OC    CTPPASS,CTPPASS         USER SPECIFIED?
 000DF6 4770 7064            00E2A  4992  1  708.                IF    Z,BEGIN
                                    5003  2  709.     *
                                    5004  2  710.     *  NOW CONCOCT A WIERD PASSWORD FROM THE USERS ACCOUNT
                                    5005  2  711.     *
 000DFA BF2F A06F            0006F  5006  2  712.                  ICM   SR,15,CTPME+3           LOAD FIRST FOUR BYTES
 000DFE BF38 A073            00073  5007  2  713.                  ICM   TR,8,CTPME+7            LAST BYTE AT LEFT END
 000E02 8930 0002            00002  5008  2  714.                  SLL   TR,2                    STRIP TWO BITS
 000E06 5430 741A            011E0  5009  2  715.                  N     TR,=X'FC000000'         MASK LEAVING 6 BITS
 000E0A 8C20 0006            00006  5010  2  716.                  SRDL  SR,6                    SHIFT IN BCD PARTS
 000E0E 8820 0002            00002  5011  2  717.                  SRL   SR,2                    DROP HIGH ORDER PARTS
 000E12 8C20 0006            00006  5012  2  718.                  SRDL  SR,6
 000E16 8820 0002            00002  5013  2  719.                  SRL   SR,2
 000E1A 8C20 0006            00006  5014  2  720.                  SRDL  SR,6
 000E1E 8820 0002            00002  5015  2  721.                  SRL   SR,2
 000E22 8C20 0006            00006  5016  2  722.                  SRDL  SR,6
 000E26 5030 A07C            0007C  5017  2  723.                  ST    TR,CTPPASS              ALL DONE, SAVE IT
 000E2A                             5018  1  724.                END   ,
 000E2A 7068           00E2A 00DD0  5022     725.              END   ELSE,BEGIN           *PUBLIC TAGS
 000E2A 47F0 706E            00E34  5031             +
 000E2E D213 A06C 73D4 0006C 0119A  5037  1  726.                MVC   CTPTHTAG,PATHTAGS       SET
 000E34                             5038     727.              END   ,                      *PUBLIC TAGS
 000E34 58F0 741E            011E4  5042     728.              L     R15,=A(CTPBUFSZ)
 000E38                             5043     729.              CLEAR CTPATHID                CLEAR PATH ID NUMBER
 000E38 D703 A040 A040 00040 00040  5049             +
 000E3E                             5050     730.              CLEAR (CTWORK,9)              CLEAR FLAGS, JOBNAME
 000E3E D708 A020 A020 00020 00020  5056             +
 000E44 4100 0004            00004  5057     731.              ATTACH 4,CTPTHTAG,(15),CTWORK
 000E48 4110 A06C            0006C  5071             +
1OVAM     (OVAM20) (09:42) (22MAR04) VAM/370 - OVAM'S SUZAN COMMUNICATIONS MODULE                                           Page   31
0Current Usings:  (*,R7) (CT,R10) (VCH,R11)
0Loc    Object Code    Addr1 Addr2  Stmt Lv Lineno    Source Statement           (Hibal 5, Asmedit 3.3)  HLASM R4.0  2004/03/22 09.42
+___    ______ ____    _____ _____  ____ __ ______    ______ _________
0000E4C 41E0 A020/0AF9       00020  5083             +
 000E52 4770 70F4            00EBA  5087     732.              BNZ   ATTERR1
 000E56 5000 A040            00040  5088     733.              ST    R0,CTPATHID
 000E5A 0AF2                        5089     734.              WAIT  (0)
 000E5C 4780 70CE            00E94  5097     735.              IF    NZ,BEGIN                 *PROCESS NZ RETURN CODE
 000E60 59F0 7422            011E8  5108  1  736.                IF    (R15,NE,16),ATTERR2     PARTNER NOT THERE YET?
 000E64 4770 7130            00EF6  5122  1          +
 000E68 4100 0003            00003  5128  1  737.                VSET  3,L:CTTIMINT            SET TIMER INTERVAL
 000E6C 5810 A018/0AFB       00018  5140  1          +
 000E72 9110 A080      00080        5150  1  738.                IF    CTINITC,BEGIN          *PRINT IDLE MESSAGE
 000E76 47E0 70CE            00E94  5160  1          +
 000E7A 5890 7426/0D99       011EC  5165  2  739.                  ACALL SEGTIME                 TIME STAMP
 000E80 4110 74C2            01288  5169  2  740.                  VWRITE 'OVAM Idle'
 000E84 4100 0009            00009  5174  2          +
 000E88 5890 742A/0D99       011F0  5177  2          +
 000E8E 5890 742E/0D99       011F4  5181  2          +
 000E94                             5183  1  741.                END   ,                       *PRINT IDLE MESSAGE
 000E94                             5187     742.              END   ,                       *PROCESS NZ RETURN CODE
 000E94 5820 A040            00040  5191     743.              L     SR,CTPATHID             GET PATH ID NUMBER
 000E98 4920 745A            01220  5192     744.              CH    SR,=Y(CTNODTS)          TOO HIGH?
 000E9C 4720 7144            00F0A  5193     745.              BH    BADPATH                 DON'T KNOW HOW IT HAPPENED
 000EA0 4C20 745C            01222  5194     746.              MH    SR,=Y(CTODTSIZ)         GET OFFSET
 000EA4 4122 A10E            0010E  5195     747.              LA    SR,CTODTS-CTODTSIZ(SR)  FIND ENTRY
 USING  ODT,R2                      5196     748.              USING ODT,SR                  ##
 000EA8 9680 2000      00000        5205     749.              SET   ODTFATCH                SET ATTACHED
 000EAC 9204 2001      00001        5211     750.              SET   ODTPATHC                SET CLASS = PATH
 DROP   ODT,R2                      5217     751.              DROP  SR                      ##
 000EB0 1B00                        5224     752.              SR    R0,R0                   SET CC ZERO
 000EB2 18D8/9829 D000       00000  5225     753.              VEXIT SR,RAR
 000EB8 07F9                        5229             +
1OVAM     (OVAM20) (09:42) (22MAR04) VAM/370 - OVAM'S SUZAN COMMUNICATIONS MODULE                                           Page   32
0Current Usings:  (*,R7) (CT,R10) (VCH,R11)
0Loc    Object Code    Addr1 Addr2  Stmt Lv Lineno    Source Statement           (Hibal 5, Asmedit 3.3)  HLASM R4.0  2004/03/22 09.42
+___    ______ ____    _____ _____  ____ __ ______    ______ _________
0000EBA 182F                        5231     755.     ATTERR1  LR    SR,R15                  SAVE RETURN CODE
 000EBC 4110 745E            01224  5232     756.              VSEG  'ATTACH RETURN '
 000EC0 4100 000E            0000E  5236             +
 000EC4 5890 742A/0D99       011F0  5239             +
 000ECA 1222                        5241     757.     SEGRET   LTR   SR,SR
 000ECC 47B0 711A            00EE0  5242     758.              BNM   SEGIT
 000ED0 1322                        5243     759.              LCR   SR,SR
 000ED2 4110 74CB            01291  5244     760.              VSEG  '-'
 000ED6 4100 0001            00001  5248             +
 000EDA 5890 742A/0D99       011F0  5251             +
 000EE0 18F2/1B00                   5253     761.     SEGIT    SEGDC 0,(SR)
 000EE4 4110 A020            00020  5270             +
 000EE8 58E0 7432/0DEE       011F8  5273             +
 000EEE 5890 742A/0D99       011F0  5290             +
 000EF4 0AFF                        5292     762.              PAUSE
 000EF6 182F                        5295     763.     ATTERR2  LR    SR,R15                  SAVE RETURN CODE
 000EF8 4110 74CC            01292  5296     764.              VSEG  'ATTACH WAIT RETURN '
 000EFC 4100 0013            00013  5300             +
 000F00 5890 742A/0D99       011F0  5303             +
 000F06 47F0 7104            00ECA  5305     765.              B     SEGRET
-
 000F0A 4110 73F2            011B8  5307     767.     BADPATH  VWRITE 'PATH ID TOO HIGH'
 000F0E 4100 0010            00010  5312             +
 000F12 5890 742A/0D99       011F0  5315             +
 000F18 5890 742E/0D99       011F4  5319             +
 000F1E 0AFF                        5321     768.              PAUSE
1OVAM     (OVAM20) (09:42) (22MAR04) VAM/370 - OVAM'S SUZAN COMMUNICATIONS MODULE                                           Page   33
0Current Usings:  (*,R7) (CT,R10) (VCH,R11)
0Loc    Object Code    Addr1 Addr2  Stmt Lv Lineno    Source Statement           (Hibal 5, Asmedit 3.3)  HLASM R4.0  2004/03/22 09.42
+___    ______ ____    _____ _____  ____ __ ______    ______ _________
0                                   5325     770.     *    HANDLE SUZAN TRANSACTIONS
                                    5326     771.     *
 000F20 9029 D000/188D       00000  5327     772.     GETXACT  VENTER SR,RAR,*,LOCAL
 000F26 41D0 D020/0D70       00020  5331             +
 000F2C 5800 A040/1300       00040  5349     773.     GETXLOOP READ  CTPATHID,VCHSTART,L:XACTLEN,MODE=WAIT
 DROP   *,R7
 USING  *,R7
 000F32 4110 B000            00000  5362             +
 000F36 58F0 7284/1BEE       011B0  5367             +
 000F3C 0AF7                        5373             +
 000F3E 4770 715E            0108A  5375     774.              BNZ   READERR1                BAD RETURN
 000F42 0AF2                        5376     775.              WAIT  (0)
 000F44 4780 7028            00F54  5384     776.              IF    NZ,BEGIN               *ARE WE DONE?
 000F48 49F0 7306            01232  5395  1  777.                IF    (R15,EQ,=H'-4'),CLEANUP YES, PARTNER CLOSED
 000F4C 4780 71D6            01102  5408  1          +
 000F50 47F0 716A            01096  5414  1  778.                B     READERR2                SOMETHING HAS HAPPENED
 000F54                             5415     779.              END   ,                       *ARE WE DONE?
                                    5419     780.
 000F54 9140 A080      00080        5420     781.              IF    ~CTPOPEN,BEGIN         *FIRST GOOD READ
 000F58 4710 70C6            00FF2  5430             +
 000F5C 90E1 D000            00000  5435  1  782.                VPUSH R14,R1,*                SAVE SVC RETURNS
 000F60 41D0 D010            00010  5437  1          +
 000F64 4100 0003/1B11       00003  5438  1  783.                VSET  3,0                     CLEAR TIMER
 000F6A 0AFB                        5457  1          +
 000F6C 9640 A080      00080        5459  1  784.                SET   CTPOPEN                 SET OPEN FLAG
 000F70 4100 0004/0AFA       00004  5465  1  785.                SENSE 4                       GET STARTING TIMES
 000F76 5010 A048            00048  5484  1  786.                ST    R1,CTELATIM
 000F7A 50F0 A044            00044  5485  1  787.                ST    R15,CTCPUTIM
 000F7E 4100 0019/0AFA       00019  5486  1  788.                SENSE 25
 000F84 5000 A04C            0004C  5505  1  789.                ST    R0,CTIOCNT
 000F88 5890 72C0/0D99       011EC  5506  1  790.                ACALL SEGTIME
 000F8E 4110 72D0            011FC  5510  1  791.                VSEG  'JOB '
 000F92 4100 0004            00004  5514  1          +
 000F96 5890 72C4/0D99       011F0  5517  1          +
 000F9C 4110 B004            00004  5519  1  792.                VSEG  VCJOBNAM,L'VCJOBNAM
 000FA0 4100 0008            00008  5535  1          +
 000FA4 5890 72C4/0D99       011F0  5538  1          +
 000FAA 4110 72D4            01200  5540  1  793.                VSEG  ' STARTING, ACCOUNT= '
 000FAE 4100 0014            00014  5544  1          +
 000FB2 5890 72C4/0D99       011F0  5547  1          +
 000FB8 4110 B00C            0000C  5549  1  794.                VWRITE VCJOBACC,L'VCJOBACC
 000FBC 4100 0006            00006  5566  1          +
 000FC0 5890 72C4/0D99       011F0  5569  1          +
 000FC6 5890 72C8/0D99       011F4  5573  1          +
 000FCC 9120 A080      00080        5575  1  795.                IF    ~CTPRIVAM,BEGIN
 000FD0 4710 70BE            00FEA  5585  1          +
 000FD4 4100 006B            0006B  5590  2  796.                  STATUS 107,VCJOBACC,IC:VCPRIVS  SET PSEUDO ACCOUNT
 000FD8 4110 B00C/1FFF       0000C  5604  2          +
 000FDE 43F0 B012/0AF1       00012  5613  2          +
 000FE4 0AF2                        5620  2  797.                  WAIT  (0)
 000FE6 4770 7122            0104E  5628  2  798.                  IF    NZ,ACCTERR              ACCOUNT NOT ENABLED FOR FS
 000FEA                             5642  1  799.                END   ,
 000FEA 4BD0 7308            01234  5646  1  800.                VPOP  R14,R1,*                RESTORE STATE
 000FEE 98E1 D000            00000  5648  1          +
1OVAM     (OVAM20) (09:42) (22MAR04) VAM/370 - OVAM'S SUZAN COMMUNICATIONS MODULE                                           Page   34
0Current Usings:  (*,R7) (CT,R10) (VCH,R11)
0Loc    Object Code    Addr1 Addr2  Stmt Lv Lineno    Source Statement           (Hibal 5, Asmedit 3.3)  HLASM R4.0  2004/03/22 09.42
+___    ______ ____    _____ _____  ____ __ ______    ______ _________
0000FF2                             5649     801.              END   ,                       *FIRST GOOD READ
 000FF2 4120 0001            00001  5653     802.              INCR  SR,CTXACTS              COUNT ONE FOR THE GOOD GUYS
 000FF6 5E20 A210            00210  5657             +
 000FFA 5020 A210            00210  5658             +
 000FFE 4120 0028            00028  5659     803.              LA    SR,VCDATA-VCHSTART
 001002 4A20 B024            00024  5660     804.              AH    SR,VCDATAL
 001006 1921                        5661     805.              CR    SR,R1                   CHECK THAT LENGTHS MATCH
 001008 4770 71A0            010CC  5662     806.              BNE   READERR3                NOPE
 00100C 9200 B003      00003        5663     807.              MVI   VCRFLAGS,X'00'          CLEAR FLAGS
 001010 9680 A080      00080        5664     808.              SET   CTFILEOP                SET FILE OPERATION IN PROGRESS
 001014 5890 72E8/0D99       01214  5670     809.              ACALL DOSVC
 00101A 947F A080      00080        5674     810.              CLEAR CTFILEOP                CLEAR FILE OPERATION FLAG
 00101E 48F0 B024            00024  5681     811.              LH    R15,VCDATAL
 001022 41F0 F028            00028  5682     812.              LA    R15,VCDATA-VCHSTART(,R15)
 001026 5800 A040            00040  5683     813.              WRITE CTPATHID,VCHSTART,(R15)
 00102A 4110 B000/0AF6       00000  5695             +
 001030 4770 7176            010A2  5706     814.              BNZ   WRITERR1
 001034 0AF2                        5707     815.              WAIT  (0)
 001036 4780 7000            00F2C  5715     816.              BZ    GETXLOOP                WRITE OK, READ SOME MORE
 00103A 49F0 7306            01232  5716     817.              IF    (R15,EQ,=H'-4'),CLEANUP  PARTNER WENT AWAY
 00103E 4780 71D6            01102  5729             +
 001042 4110 730A            01236  5735     818.              SETMSG 'PATH WRITE WAIT ERROR '
 001046 4100 0016            00016  5738             +
 00104A 47F0 7182            010AE  5739     819.              B     GETXERR
-
 00104E 4110 729C            011C8  5741     821.     ACCTERR  VSEG  'ACCOUNT '
 001052 4100 0008            00008  5745             +
 001056 5890 72C4/0D99       011F0  5748             +
 00105C 4110 B00C            0000C  5750     822.              VSEG  VCJOBACC,L'VCJOBACC
 001060 4100 0006            00006  5766             +
 001064 5890 72C4/0D99       011F0  5769             +
 00106A 4110 7320            0124C  5771     823.              VWRITE ' NOT VALID'
 00106E 4100 000A            0000A  5776             +
 001072 5890 72C4/0D99       011F0  5779             +
 001078 5890 72C8/0D99       011F4  5783             +
 00107E 4BD0 7308            01234  5785     824.              VPOP  R14,R1,*
 001082 98E1 D000            00000  5787             +
 001086 47F0 71D6            01102  5788     825.              B     CLEANUP
 00108A 4110 72A4            011D0  5789     826.     READERR1 SETMSG 'PATH READ ERROR '
 00108E 4100 0010            00010  5792             +
 001092 47F0 7182            010AE  5793     827.              B     GETXERR
 001096 4110 7379            012A5  5794     828.     READERR2 SETMSG 'PATH READ WAIT ERROR '
 00109A 4100 0015            00015  5797             +
 00109E 47F0 7182            010AE  5798     829.              B     GETXERR
 0010A2 4110 738E            012BA  5799     830.     WRITERR1 SETMSG 'PATH WRITE ERROR '
 0010A6 4100 0011            00011  5802             +
 0010AA 47F0 7182            010AE  5803     831.              B     GETXERR
 0010AE 182F                        5804     832.     GETXERR  LR    SR,R15                  SAVE RETURN CODE
 0010B0 5890 72C4/0D99       011F0  5805     833.              VSEG  (1),(0)
 0010B6 18F2/1B00                   5822     834.     GETXSEGD SEGDC 0,(SR)
 0010BA 4110 A020            00020  5839             +
 0010BE 58E0 72CC/0DEE       011F8  5842             +
1OVAM     (OVAM20) (09:42) (22MAR04) VAM/370 - OVAM'S SUZAN COMMUNICATIONS MODULE                                           Page   35
0Current Usings:  (*,R7) (CT,R10) (VCH,R11)
0Loc    Object Code    Addr1 Addr2  Stmt Lv Lineno    Source Statement           (Hibal 5, Asmedit 3.3)  HLASM R4.0  2004/03/22 09.42
+___    ______ ____    _____ _____  ____ __ ______    ______ _________
00010C4 5890 72C4/0D99       011F0  5859             +
 0010CA 0AFF                        5861     835.              PAUSE
-0010CC 1831                        5865     837.     READERR3 LR    TR,R1                   SAVE LENGTH
 0010CE 4110 739F            012CB  5866     838.              VSEG  'LENGTH MISMATCH - READ LEN = '
 0010D2 4100 001D            0001D  5870             +
 0010D6 5890 72C4/0D99       011F0  5873             +
 0010DC 18F3/1B00                   5875     839.              SEGDC 0,(TR)
 0010E0 4110 A020            00020  5892             +
 0010E4 58E0 72CC/0DEE       011F8  5895             +
 0010EA 5890 72C4/0D99       011F0  5912             +
 0010F0 4110 73BC            012E8  5914     840.              VSEG  ', VCDATAL+HEADER = '
 0010F4 4100 0013            00013  5918             +
 0010F8 5890 72C4/0D99       011F0  5921             +
 0010FE 47F0 718A            010B6  5923     841.              B     GETXSEGD
-
 001102                             5925     843.     CLEANUP  DS    0H
 001102 4110 73CF            012FB  5926     844.              SETMSG ' Ending, '            PRINT STATS WITH ENDING
 001106 4100 0009            00009  5929             +
 00110A 5890 72EC/0D99       01218  5930     845.              ACALL SEGSTAT                 MESSAGE
 001110 9120 A080      00080        5934     846.              IF    CTPRIVAM,BEGIN      Terminate OVAM session if private
 001114 47E0 7208            01134  5944             +
 001118 5890 72C0/0D99       011EC  5949  1  847.                ACALL SEGTIME             Time stamp exiting message
 00111E 4110 732A            01256  5953  1  848.                VWRITE 'OVAM exiting to Wylbur'
 001122 4100 0016            00016  5958  1          +
 001126 5890 72C4/0D99       011F0  5961  1          +
 00112C 5890 72C8/0D99       011F4  5965  1          +
 001132 0AFD                        5967  1  849.                XIT   ,                   Terminate OVAM session
 001134                             5970     850.              END   ,
 001134 94BF A080      00080        5974     851.              CLEAR CTPOPEN             TURN OFF OPEN FLAG
 001138                             5981     852.              CLEAR CTPATHID            SET NO PATH ID
 001138 D703 A040 A040 00040 00040  5987             +
 00113E 4120 A112            00112  5988     853.              LA    SR,CTODTS+CTODTSIZ  POINT PAST TERMINAL
 001142 4130 0002            00002  5989     854.              LA    TR,2                SET FIRST ID
 001146 4140 0001            00001  5990     855.              LA    QR,1                INCREMENT
 00114A 4150 0080            00080  5991     856.              LA    RR,CTNODTS          LIMIT
 USING  ODT,R2                      5992     857.              USING ODT,SR                  ##
 00114E 9180 2000      00000        6001     858.     CLEANLP  IF    ODTFATCH,BEGIN         SKIP IF NOT ATTACHED
 001152 47E0 7230            0115C  6012             +
 001156 1803/0AF8                   6017  1  859.                DETACH (TR)
 00115A 0AF2                        6025  1  860.                WAIT  (0)
 00115C                             6033     861.              END   ,
 00115C 4120 2002            00002  6037     862.              LA    SR,ODTNEXT              POINT AT NEXT ONE
 001160 8734 7222            0114E  6038     863.              BXLE  TR,QR,CLEANLP           DO THEM ALL
 001164 D7FD A112 A112 00112 00112  6039     864.              XC    CTODTS+CTODTSIZ((CTNODTS-1)*CTODTSIZ),CTODTS+CTODTSIZ
                                    6040     865.     *                                      ZAP THEM ALL CLEAN
 00116A 4100 0016/1B11       00016  6041     866.              VSET  22,0                    DEQUEUE ANYTHING
 001170 0AFB                        6060             +
 001172 4100 0096/1B11       00096  6062     867.              VSET  150                     CLEAR PSEUDO USER
 001178 0AFB                        6081             +
 00117A 5890 72F0/0D99       0121C  6083     868.              ACALL INITPATH                CALL INITIALIZATION ROUTINE
1OVAM     (OVAM20) (09:42) (22MAR04) VAM/370 - OVAM'S SUZAN COMMUNICATIONS MODULE                                           Page   36
0Current Usings:  (ODT,R2) (*,R7) (CT,R10) (VCH,R11)
0Loc    Object Code    Addr1 Addr2  Stmt Lv Lineno    Source Statement           (Hibal 5, Asmedit 3.3)  HLASM R4.0  2004/03/22 09.42
+___    ______ ____    _____ _____  ____ __ ______    ______ _________
0001180 4780 7000            00F2C  6087     869.              BZ    GETXLOOP                GET GOING AGAIN
 001184 4110 7340            0126C  6088     870.              VWRITE 'REINITIALIZATION ERROR'
 001188 4100 0016            00016  6093             +
 00118C 5890 72C4/0D99       011F0  6096             +
 001192 5890 72C8/0D99       011F4  6100             +
 001198 0AFF                        6102     871.              PAUSE
                                    6105     872.
1OVAM     (OVAM20) (09:42) (22MAR04) VAM/370 - OVAM'S SUZAN COMMUNICATIONS MODULE                                           Page   37
0Current Usings:  (ODT,R2) (*,R7) (CT,R10) (VCH,R11)
0Loc    Object Code    Addr1 Addr2  Stmt Lv Lineno    Source Statement           (Hibal 5, Asmedit 3.3)  HLASM R4.0  2004/03/22 09.42
+___    ______ ____    _____ _____  ____ __ ______    ______ _________
0                                   6107     874.     *    CONSTANTS
                                    6108     875.     *
 00119A                             6109     876.     PATHTAGS DS    0CL20
 00119A E5C1D4D6D9E5E8D3            6110     877.              DC    CL8'VAMORVYL'
 0011A2 E5C1D4C2C1E3C3C8            6111     878.              DC    CL8'VAMBATCH'
 0011AA E5C1D4D7                    6112     879.              DC    CL4'VAMP'
 0011AE 0000
 0011B0 00001028                    6113     880.     XACTLEN  DC    A(VCDATA-VCHSTART+4*1024)
 0011B8                             6114     881.              LTORG
 0011B8 D7C1E3C840C9C440            6116                             =C'PATH ID TOO HIGH'
 0011C8 C1C3C3D6E4D5E340            6117                             =C'ACCOUNT '
 0011D0 D7C1E3C840D9C5C1            6118                             =C'PATH READ ERROR '
 0011E0 FC000000                    6119                             =X'FC000000'
 0011E4 00002000                    6120                             =A(CTPBUFSZ)
 0011E8 00000010                    6121                             =A(16)
 0011EC 000009EA                    6122                             =A(SEGTIME)
 0011F0 00000000                    6123                             =V(VSEG)
 0011F4 00000000                    6124                             =V(VWRITE)
 0011F8 00000000                    6125                             =V(BTD)
 0011FC D1D6C240                    6126                             =C'JOB '
 001200 40E2E3C1D9E3C9D5            6127                             =C' STARTING, ACCOUNT= '
 001214 00001304                    6128                             =A(DOSVC)
 001218 00000A1E                    6129                             =A(SEGSTAT)
 00121C 00000DBA                    6130                             =A(INITPATH)
 001220 0080                        6131                             =Y(CTNODTS)
 001222 0002                        6132                             =Y(CTODTSIZ)
 001224 C1E3E3C1C3C840D9            6133                             =C'ATTACH RETURN '
 001232 FFFC                        6134                             =H'-4'
 001234 0010                        6135                             =Y((R1+1-(R14)+16*((R14)/(R1+1))/((R14)/(R1+1)))*4)
 001236 D7C1E3C840E6D9C9            6136                             =C'PATH WRITE WAIT ERROR '
 00124C 40D5D6E340E5C1D3            6137                             =C' NOT VALID'
 001256 D6E5C1D44085A789            6138                             =C'OVAM exiting to Wylbur'
 00126C D9C5C9D5C9E3C9C1            6139                             =C'REINITIALIZATION ERROR'
 001282 D6E5C1                      6140                             =CL3'OVA'
 001285 E5C1D4                      6141                             =CL3'VAM'
 001288 D6E5C1D440C98493            6142                             =C'OVAM Idle'
 001291 60                          6143                             =C'-'
 001292 C1E3E3C1C3C840E6            6144                             =C'ATTACH WAIT RETURN '
 0012A5 D7C1E3C840D9C5C1            6145                             =C'PATH READ WAIT ERROR '
 0012BA D7C1E3C840E6D9C9            6146                             =C'PATH WRITE ERROR '
 0012CB D3C5D5C7E3C840D4            6147                             =C'LENGTH MISMATCH - READ LEN = '
 0012E8 6B40E5C3C4C1E3C1            6148                             =C', VCDATAL+HEADER = '
 0012FB 40C595848995876B            6149                             =C' Ending, '
1OVAM     (OVAM20) (09:42) (22MAR04) VAM/370 - OVAM'S SVC EXECUTOR                                                          Page   38
0Current Usings:  (ODT,R2) (*,R7) (CT,R10) (VCH,R11)
0Loc    Object Code    Addr1 Addr2  Stmt Lv Lineno    Source Statement           (Hibal 5, Asmedit 3.3)  HLASM R4.0  2004/03/22 09.42
+___    ______ ____    _____ _____  ____ __ ______    ______ _________
0                                   6154     883.     ********************************************************************
                                    6155     884.     *                                                                  *
                                    6156     885.     *  OSVC - SET UP AND EXECUTE ORVYL SVC BASED ON                    *
                                    6157     886.     *         COMMUNICATION HEADER PASSED FROM VAM                     *
                                    6158     887.     *                                                                  *
                                    6159     888.     ********************************************************************
-
0                                   6161     890.              USING VCH,VCHR                ##
 001304 9029 D000/188D       00000  6163     891.     DOSVC    VENTER SR,RAR,*,LOCAL
 00130A 41D0 D020/0D70       00020  6167             +
 001310 1F22/4320 B000       00000  6185     892.              LC    SR,VCTRAN               GET TRANSACTION CODE
 DROP   *,R7
 USING  *,R7
 001316 1812                        6192     893.              LR    R1,SR                   CHECK FOR
 001318 8810 0002            00002  6193     894.              SRL   R1,2                     MULTIPLE
 00131C 8910 0002            00002  6194     895.              SLL   R1,2                      OF 4
 001320 1912                        6195     896.              CR    R1,SR                      FOR BRANCH
 001322 4770 706E            0137E  6196     897.              BNE   SPEC                        TABLE
 001326 4920 7624            01934  6197     898.              CH    SR,=Y(OSVHIGH)          AND WITHIN RANGE
 00132A 4720 706E            0137E  6198     899.              BH    SPEC                    NG
 00132E 9200 B003      00003        6199     900.              MVI   VCRFLAGS,X'00'          CLEAR RETURN FLAGS
                                    6201     902.              GENVAM SR,ROOT=OSV
 001332 47F2 7026            01336  6220    01-GENVA +         B     *+4(SR)
 001336 47F0 7082            01392  6222    02-GENLI +         B     OSVATTAC .              ATTACH DEVICE (249)
 00133A 47F0 75EE            018FE  6224    02-GENLI +         B     OSVCOMMA .              PASS ORV/WYL/MIL COMMAND (254)
 00133E 47F0 7166            01476  6226    02-GENLI +         B     OSVCONTR .              CONTROL DEVICE (245)
 001342 47F0 7562            01872  6228    02-GENLI +         B     OSVDETAC .              DETACH DEVICE (248)
 001346 47F0 75EE            018FE  6230    02-GENLI +         B     OSVEXIT .               TERMINATE USER PROGRAM (253)
 00134A 47F0 75EE            018FE  6232    02-GENLI +         B     OSVPANIC .              TERMINATE WITH ERROR CODE (252)
 00134E 47F0 75EE            018FE  6234    02-GENLI +         B     OSVPAUSE .              TEMP SESSION INTERRUPT (255)
 001352 47F0 710A            0141A  6236    02-GENLI +         B     OSVREAD .               READ FROM DEVICE (247)
 001356 47F0 7558            01868  6238    02-GENLI +         B     OSVRELEA .              RELEASE EXCLUSIVE CONTROL (243)
 00135A 47F0 753A            0184A  6240    02-GENLI +         B     OSVRESER .              REQUEST EXCLUSIVE CONTROL (244)
 00135E 47F0 75F2            01902  6242    02-GENLI +         B     OSVSENSE .              SENSE INFORMATION (250)
 001362 47F0 7590            018A0  6244    02-GENLI +         B     OSVSET .                SET VARIOUS FIELDS (251)
 001366 47F0 72C2            015D2  6246    02-GENLI +         B     OSVSTATU .              GLOBAL STATUS INFORMATION (241)
 00136A 47F0 75EE            018FE  6248    02-GENLI +         B     OSVWAIT .               WAIT FOR COMPLETION (242)
 00136E 47F0 74BE            017CE  6250    02-GENLI +         B     OSVWRITE .              WRITE TO DEVICE (246)
 001372 47F0 75EE            018FE  6252    02-GENLI +         B     OSVMILCO .              SEND COMMANDS TO MILTEN (238)
 001376 47F0 75EE            018FE  6254    02-GENLI +         B     OSVSERVI .              OS/FILE SERVICES  (240)
 00137A 47F0 74F0            01800  6256    02-GENLI +         B     OSVENQUE .              ENQUEUE/DEQUEUE (239)
                                    6258    02-GENLI +OSVHIGH  EQU   68 .                    HIGHEST LEGAL VAM CODE
1OVAM     (OVAM20) (09:42) (22MAR04) VAM/370 - OVAM'S SVC EXECUTOR                                                          Page   39
0Current Usings:  (ODT,R2) (*,R7) (CT,R10) (VCH,R11)
0Loc    Object Code    Addr1 Addr2  Stmt Lv Lineno    Source Statement           (Hibal 5, Asmedit 3.3)  HLASM R4.0  2004/03/22 09.42
+___    ______ ____    _____ _____  ____ __ ______    ______ _________
0                                   6261     905.     *   SPECIFICATION EXCEPTION
                                    6262     906.     *
 00137E                             6263     907.     SPEC     DS    0H
 00137E 9640 B003      00003        6264     908.              SET   VCRSPEC
 001382 47F0 707A            0138A  6270     909.              B     SVCEXIT
-
                                    6272     911.     *
                                    6273     912.     *   RETURN TO CALLER
                                    6274     913.     *
 001386 50F0 B020            00020  6275     914.     SVCRET   ST    R15,VCRETCOD            SAVE RETURN CODE
 00138A 18D8/9829 D000       00000  6276     915.     SVCEXIT  VEXIT SR,RAR
 001390 07F9                        6280             +
1OVAM     (OVAM20) (09:42) (22MAR04) VAM/370 - OVAM'S SVC EXECUTOR                                                          Page   40
0Current Usings:  (ODT,R2) (*,R7) (CT,R10) (VCH,R11)
0Loc    Object Code    Addr1 Addr2  Stmt Lv Lineno    Source Statement           (Hibal 5, Asmedit 3.3)  HLASM R4.0  2004/03/22 09.42
+___    ______ ____    _____ _____  ____ __ ______    ______ _________
0                                   6282     917.     *  ATTACH A FILE
                                    6283     918.     *
 001392                             6284     919.     OSVATTAC DS    0H
 001392                             6285     920.              CLEAR VCDEVID                 SET NO ID
 001392 D703 B014 B014 00014 00014  6291             +
 001398 5800 B018            00018  6292     921.              L     R0,VCPARM1              GET DEVICE CLASS
 00139C 1B11                        6293     922.              SR    R1,R1                   SET FOR TEMP.
 00139E 58F0 B01C/12FF       0001C  6294     923.              LT    R15,VCPARM2             GET LENGTH, CHECK
 0013A4 4780 70B0            013C0  6298     924.              BZ    ATCHMW                  CHECK MODE=WAIT
 0013A8 4110 B028            00028  6299     925.              LA    R1,VCFNAME              POINT AT NAME
 0013AC 9120 B002      00002        6300     926.              IF    ~VCFNR15,ATPOSR15       MODE IN 15?
 0013B0 47E0 70A6            013B6  6312             +
 0013B4 13FF                        6318     927.              LCR   R15,R15                 COMPLEMENT
 0013B6 9140 B002      00002        6319     928.     ATPOSR15 IF    ~VCFNR1,ATCHMW          MODE IN R1?
 0013BA 47E0 70B0            013C0  6332             +
 0013BE 1311                        6338     929.              LCR   R1,R1                   COMPLEMENT
 0013C0 9180 B002      00002        6339     930.     ATCHMW   IF    ~VCFWAIT,ATCHSVC        MODE=WAIT SPECIFIED?
 0013C4 47E0 70BA            013CA  6352             +
 0013C8 1300                        6358     931.              LCR   R0,R0                   COMPLEMENT
 0013CA 1BEE/0AF9                   6359     932.     ATCHSVC  ATTACH (0),(1),(15)           ATTACH THE DEVICE
 0013CE 4740 7076            01386  6383     933.              BM    SVCRET                  NO ID RETURNED
 0013D2 5000 B014            00014  6384     934.              ST    R0,VCDEVID              SAVE DEVICE ID
 0013D6 4720 7076            01386  6385     935.              BP    SVCRET                  DEVICE ALREADY ATTACHED
 0013DA 9680 B003      00003        6386     936.              SET   VCRR15Z                 SET GOOD SVC RETURN
 0013DE 0AF2                        6392     937.              WAIT  (0)
 0013E0 4770 7076            01386  6400     938.              BNZ   SVCRET                  DON'T SET ATTACHED
 0013E4 1820                        6401     939.              LR    SR,R0
 0013E6 4920 7626            01936  6402     940.              CH    SR,=Y(CTNODTS)          ID TOO HIGH?
 0013EA 4720 70F4            01404  6403     941.              BH    ATBADID                 TOO BAD
 0013EE 4C20 7628            01938  6404     942.              MH    SR,=Y(CTODTSIZ)         GET OFFSET
 0013F2 4122 A10E            0010E  6405     943.              LA    SR,CTODTS-CTODTSIZ(SR)  FIND THE SLOT
                                    6406     944.              USING ODT,SR                  ##
 0013F6 9680 2000      00000        6408     945.              SET   ODTFATCH                SET ATTACHED
 0013FA D200 2001 B01B 00001 0001B  6414     946.              MVC   ODTCLASS,VCPARM1+3      SET DEVICE CLASS
 DROP   ODT,R2                      6415     947.              DROP  SR                      ##
 001400 47F0 7076            01386  6422     948.              B     SVCRET                  RETURN TO CALLER
-
 001404 4110 762A            0193A  6424     950.     ATBADID  VWRITE 'DEVICE ID TOO BIG FOR OVAM'
 001408 4100 001A            0001A  6429             +
 00140C 5890 7618/0D99       01928  6432             +
 001412 5890 761C/0D99       0192C  6436             +
 001418 0AFF                        6438     951.              PAUSE
1OVAM     (OVAM20) (09:42) (22MAR04) VAM/370 - OVAM'S SVC EXECUTOR                                                          Page   41
0Current Usings:  (*,R7) (CT,R10) (VCH,R11)
0Loc    Object Code    Addr1 Addr2  Stmt Lv Lineno    Source Statement           (Hibal 5, Asmedit 3.3)  HLASM R4.0  2004/03/22 09.42
+___    ______ ____    _____ _____  ____ __ ______    ______ _________
0                                   6442     953.     *   READ A RECORD
                                    6443     954.     *
 00141A                             6444     955.     OSVREAD  DS    0H
 00141A 5800 B014            00014  6445     956.              L     R0,VCDEVID              DEVICE ID
 00141E 58F0 B018/12FF       00018  6446     957.              LT    R15,VCPARM1             LENGTH TO READ MUST BE POS.
 001424 47D0 706E            0137E  6450     958.              BNP   SPEC                    NASTY, NASTY
 001428 49F0 7644            01954  6451     959.              CH    R15,=Y(4096)            AND LESS THAN 4K
 00142C 4720 706E            0137E  6452     960.              BH    SPEC
 001430 58E0 B01C            0001C  6453     961.              L     R14,VCPARM2             RECORD NUMBER
 001434 4110 B028            00028  6454     962.              LA    R1,VCOMEND             POINT TO AREA
 001438 9120 B002      00002        6455     963.              IF    ~VCFNR15,REPOSR15       MODE FOR R15
 00143C 47E0 7132            01442  6467             +
 001440 13FF                        6473     964.              LCR   R15,R15
 001442 9140 B002      00002        6474     965.     REPOSR15 IF    ~VCFNR1,REPOSR1         MODE IN R1?
 001446 47E0 713C            0144C  6487             +
 00144A 1311                        6493     966.              LCR   R1,R1
 00144C 9180 B002      00002        6494     967.     REPOSR1  IF    ~VCFWAIT,READSVC        MODE=WAIT?
 001450 47E0 7146            01456  6507             +
 001454 1300                        6513     968.              LCR   R0,R0
 001456 0AF7                        6514     969.     READSVC  READ  (0),(1),(15),(14)
 001458 4770 715E            0146E  6539     970.              BNZ   REBADRET                BADO
 00145C 9680 B003      00003        6540     971.              SET   VCRR15Z                 SET GOOD RETURN
 001460 0AF2                        6546     972.              WAIT  (0)
 001462 4770 715E            0146E  6554     973.              BNZ   REBADRET                BADO
 001466 4010 B024            00024  6555     974.              STH   R1,VCDATAL              RETURN DATA LENGTH
 00146A 50E0 B018            00018  6556     975.              ST    R14,VCPARM1             NEXT RECORD NUMBER
 00146E 50F0 B020            00020  6557     976.     REBADRET ST    R15,VCRETCOD
 001472 47F0 707A            0138A  6558     977.              B     SVCEXIT
1OVAM     (OVAM20) (09:42) (22MAR04) VAM/370 - OVAM'S SVC EXECUTOR                                                          Page   42
0Current Usings:  (*,R7) (CT,R10) (VCH,R11)
0Loc    Object Code    Addr1 Addr2  Stmt Lv Lineno    Source Statement           (Hibal 5, Asmedit 3.3)  HLASM R4.0  2004/03/22 09.42
+___    ______ ____    _____ _____  ____ __ ______    ______ _________
0                                   6560     979.     *
                                    6561     980.     *    CONTROL
                                    6562     981.     *
 001476                             6563     982.     OSVCONTR DS    0H
 001476 1F22/4320 B001       00001  6564     983.              LC    SR,VCCODE               GET CONTROL NUMBER
 00147C 4920 7646            01956  6571     984.              CH    SR,=Y((NFILCD-FFILCD-4)/4)  TOO BIG?
 001480 4720 706E            0137E  6572     985.              BH    SPEC                    YEP
                                    6574     987.              GENCONT SR
 001484 8920 0002            00002  6575    01-GENCO +         SLL   SR,2                    MULT. BY 4
 001488 47F2 717C            0148C  6576    01-GENCO +         B     *+4(SR)                 BLIP OFF
 00148C 47F0 71E4            014F4  6577    01-GENCO +FFILCD   B     CREATR               0  CREATE BLOCK
 001490 47F0 71E4            014F4  6578    01-GENCO +         B     DELETR               1  DELETE BLOCK
 001494 47F0 71E4            014F4  6579    01-GENCO +         B     DELTRS               2  DELETE RANGE OF BLOCKS
 001498 47F0 71E4            014F4  6580    01-GENCO +         B     TESTRR               3  TEST EXISTENCE OF BLOCK
 00149C 47F0 71E4            014F4  6581    01-GENCO +         B     SNFSRC               4  SENSE FIRST BLOCK NUMBER
 0014A0 47F0 71E4            014F4  6582    01-GENCO +         B     SNLSRC               5  SENSE LAST BLOCK NUMBER
 0014A4 47F0 71E4            014F4  6583    01-GENCO +         B     SNNMRC               6  SENSE NUMBER OF BLOCKS
 0014A8 47F0 71E4            014F4  6584    01-GENCO +         B     WRFLNX               7  UPDATE FILE INDEX (FORCE IXR)
 0014AC 47F0 71FC            0150C  6585    01-GENCO +         B     RENAME               8  RENAME/ERASE FILE
 0014B0 47F0 7234            01544  6586    01-GENCO +         B     GRPACC               9  EXTEND ACCESS TO ACCOUNT
 0014B4 47F0 71E4            014F4  6587    01-GENCO +         B     PUBACC              10  EXTEND ACCESS TO PUBLIC
 0014B8 47F0 724E            0155E  6588    01-GENCO +         B     SNPRIV              11  SENSE FILEMASK, PRIVILEGES
 0014BC 47F0 71E4            014F4  6589    01-GENCO +         B     SETATT              12  SET SHARE/NOSHARE MODE
 0014C0 47F0 71E4            014F4  6590    01-GENCO +         B     SENATT              13  SENSE SHARE/NOSHARE MODE
 0014C4 47F0 7284            01594  6591    01-GENCO +         B     SETUIN              14  SET FD USER INFO FIELD
 0014C8 47F0 71E4            014F4  6592    01-GENCO +         B     SENUIN              15  SENSE FD USER INFO FIELD
 0014CC 47F0 71E4            014F4  6593    01-GENCO +         B     SETCLP              16  SET CLP/NOCLP
 0014D0 47F0 71E4            014F4  6594    01-GENCO +         B     SENCLP              17  SENSE CLP/NOCLP
 0014D4 47F0 71E4            014F4  6595    01-GENCO +         B     SETCLPO             18  SET CLP ONLY
 0014D8 47F0 71E4            014F4  6596    01-GENCO +         B     SENCLPO             19  SENSE CLP ONLY
 0014DC 47F0 71E4            014F4  6597    01-GENCO +         B     SENTYPE             20  SENSE FILE TYPE
 0014E0 47F0 71E4            014F4  6598    01-GENCO +         B     SETSPI              21  SET SPIRES/NOSPIRES
 0014E4 47F0 71E4            014F4  6599    01-GENCO +         B     SENSPI              22  SENSE SPIRES ONLY
 0014E8 47F0 71E4            014F4  6600    01-GENCO +         B     SENBKS              23  SENSE File Blocksize
 0014EC 47F0 71E4            014F4  6601    01-GENCO +         B     SENMAX              24  SENSE MAX NUMBER OF USER BLOCKS
 0014F0 47F0 71E4            014F4  6602    01-GENCO +         B     CONVHYBR            25  CONVERT TO HYBRID FILE
 0014F4                             6603    01-GENCO +NFILCD   DS    0H
1OVAM     (OVAM20) (09:42) (22MAR04) VAM/370 - OVAM'S SVC EXECUTOR                                                          Page   43
0Current Usings:  (*,R7) (CT,R10) (VCH,R11)
0Loc    Object Code    Addr1 Addr2  Stmt Lv Lineno    Source Statement           (Hibal 5, Asmedit 3.3)  HLASM R4.0  2004/03/22 09.42
+___    ______ ____    _____ _____  ____ __ ______    ______ _________
0                                   6606     990.     *
                                    6607     991.     *    ALL THE EASY CONTROLS - R15 AND R14 ARE LOADED FROM VCPARM1
                                    6608     992.     *    AND VCPARM2 RESPECTFULLY, WHETHER THEY ARE NEEDED OR NOT.
                                    6609     993.     *    R1 AND R14 RETURNS ARE PUT IN VCPARM1 AND VCPARM2 FOR VAM
                                    6610     994.     *    TO FIGURE OUT.
                                    6611     995.     *
 0014F4                             6612     996.     CREATR   DS    0H          CONTROL  0
 0014F4                             6613     997.     DELETR   DS    0H                   1
 0014F4                             6614     998.     DELTRS   DS    0H                   2
 0014F4                             6615     999.     TESTRR   DS    0H                   3
 0014F4                             6616    1000.     SNFSRC   DS    0H                   4
 0014F4                             6617    1001.     SNLSRC   DS    0H                   5
 0014F4                             6618    1002.     SNNMRC   DS    0H                   6
 0014F4                             6619    1003.     WRFLNX   DS    0H                   7
 0014F4                             6620    1004.     PUBACC   DS    0H                  10
 0014F4                             6621    1005.     SETATT   DS    0H                  12
 0014F4                             6622    1006.     SENATT   DS    0H                  13
 0014F4                             6623    1007.     SENUIN   DS    0H                  15
 0014F4                             6624    1008.     SETCLP   DS    0H                  16
 0014F4                             6625    1009.     SENCLP   DS    0H                  17
 0014F4                             6626    1010.     SETCLPO  DS    0H                  18
 0014F4                             6627    1011.     SENCLPO  DS    0H                  19
 0014F4                             6628    1012.     SENTYPE  DS    0H                  20
 0014F4                             6629    1013.     SETSPI   DS    0H                  21
 0014F4                             6630    1014.     SENSPI   DS    0H                  22
 0014F4                             6631    1015.     SENBKS   DS    0H                  23
 0014F4                             6632    1016.     SENMAX   DS    0H                  24
 0014F4                             6633    1017.     CONVHYBR DS    0H                  25
 0014F4 58F0 B018            00018  6634    1018.              L     R15,VCPARM1             GET FIRST PARM
 0014F8 58E0 B01C            0001C  6635    1019.              L     R14,VCPARM2             AND SECOND
 0014FC 4D90 72A0            015B0  6636    1020.              LCALL CONTCOMM                DO THE CONTROL
 001500 5010 B018            00018  6638    1021.              ST    R1,VCPARM1              SAVE FIRST RETURN
 001504 50E0 B01C            0001C  6639    1022.              ST    R14,VCPARM2             AND SECOND
 001508 47F0 7076            01386  6640    1023.              B     SVCRET                  BYE-BYE
1OVAM     (OVAM20) (09:42) (22MAR04) VAM/370 - OVAM'S SVC EXECUTOR                                                          Page   44
0Current Usings:  (*,R7) (CT,R10) (VCH,R11)
0Loc    Object Code    Addr1 Addr2  Stmt Lv Lineno    Source Statement           (Hibal 5, Asmedit 3.3)  HLASM R4.0  2004/03/22 09.42
+___    ______ ____    _____ _____  ____ __ ______    ______ _________
0                                   6642    1025.     *
                                    6643    1026.     *    RENAME/ERASE A FILE
                                    6644    1027.     *
                                    6645    1028.     *     IF ERASE, ALSO MARK DETACHED
                                    6646    1029.     *
 00150C                             6647    1030.     RENAME   DS    0H          CONTROL  8
 00150C 48F0 B024            00024  6648    1031.              LH    R15,VCDATAL             ANY FILE NAME SENT?
 001510 12FF                        6649    1032.              LTR   R15,R15                 BZ
 001512 4780 7216            01526  6650    1033.              BZ    ERASEF                  NO, MUST BE ERASE
 001516 41F0 B028            00028  6651    1034.              LA    R15,VCFNAME             POINT AT NAME
 00151A 58E0 B018            00018  6652    1035.              L     R14,VCPARM1             GET FILENAME LENGTH
 00151E 4D90 72A0            015B0  6653    1036.              LCALL CONTCOMM                DO IT
 001522 47F0 7076            01386  6655    1037.              B     SVCRET
                                    6656    1038.
 001526 4D90 72A0            015B0  6657    1039.     ERASEF   LCALL CONTCOMM                R15 ALREADY ZERO
 00152A 4770 7076            01386  6659    1040.              BNZ   SVCRET                  DIDN'T WORK, JUST RETURN
 00152E 1820                        6660    1041.              LR    SR,R0                   GET DEVICE ID
 001530 4C20 7628            01938  6661    1042.              MH    SR,=Y(CTODTSIZ)         GET OFFSET
 001534 4122 A10E            0010E  6662    1043.              LA    SR,CTODTS-CTODTSIZ(SR)  GET THE RIGHT ONE
 USING  ODT,R2                      6663    1044.              USING ODT,SR                  ##
 001538 947F 2000      00000        6672    1045.              CLEAR ODTFATCH                SET DETACHED
 00153C 9200 2001      00001        6679    1046.              CLEAR ODTCLASS                SET NULL CLASS
 DROP   ODT,R2                      6686    1047.              DROP  SR                      ##
 001540 47F0 7076            01386  6693    1048.              B     SVCRET                  RETURN TO USER
                                    6694    1049.     *
                                    6695    1050.     *    EXTEND ACCESS PRIVILEGES TO AN ACCOUNT
                                    6696    1051.     *
 001544                             6697    1052.     GRPACC   DS    0H          CONTROL  9
 001544 58F0 B018            00018  6698    1053.              L     R15,VCPARM1             GET PRIVS.
 001548 48E0 B024            00024  6699    1054.              LH    R14,VCDATAL             ANY EXTENDEE ACCOUNT?
 00154C 12EE                        6700    1055.              LTR   R14,R14
 00154E 4780 7246            01556  6701    1056.              IF    NZ,' LA  R14,VCACC1 '   POINT AT EXTENDEE
 001552 41E0 B028            00028  6713             +
 001556 4D90 72A0            015B0  6718    1057.              LCALL CONTCOMM
 00155A 47F0 7076            01386  6720    1058.              B     SVCRET
                                    6721    1059.     *
                                    6722    1060.     *    SENSE FILE MASK, PUBLIC PRIVS., PRIVILEGED ACCOUNTS
                                    6723    1061.     *
 00155E                             6724    1062.     SNPRIV   DS    0H          CONTROL 11
 00155E 58E0 B018/12EE       00018  6725    1063.              LT    R14,VCPARM1             BUFFER SPECIFIED
 001564 4780 7268            01578  6729    1064.              IF    NZ,BEGIN
 001568 49E0 7644            01954  6740  1 1065.                CH    R14,=Y(4096)            TOO BIG?
 00156C 47D0 7264            01574  6741  1 1066.                IF    H,' LH  R14,=Y(4096) '   ADJUST TO MAX
 001570 48E0 7644            01954  6753  1          +
 001574 41F0 B028            00028  6758  1 1067.                LA    R15,VCDATA              SET DATA ADDRESS
 001578                             6759    1068.              END   ,
 001578 4D90 72A0            015B0  6763    1069.              LCALL CONTCOMM
 00157C 4770 7076            01386  6765    1070.              BNZ   SVCRET                  WHOOPS
 001580 5010 B018            00018  6766    1071.              ST    R1,VCPARM1              SET PUBLIC PRIVS., FILEMASK
 001584 50E0 B01C            0001C  6767    1072.              ST    R14,VCPARM2             SET NUMBER RETURNED
 001588 4CE0 7648            01958  6768    1073.              MH    R14,=Y(7)               LENGTH OF DATA
 00158C 40E0 B024            00024  6769    1074.              STH   R14,VCDATAL             SET LENGTH
 001590 47F0 7076            01386  6770    1075.              B     SVCRET                  GO HOME
                                    6771    1076.     *
1OVAM     (OVAM20) (09:42) (22MAR04) VAM/370 - OVAM'S SVC EXECUTOR                                                          Page   45
0Current Usings:  (*,R7) (CT,R10) (VCH,R11)
0Loc    Object Code    Addr1 Addr2  Stmt Lv Lineno    Source Statement           (Hibal 5, Asmedit 3.3)  HLASM R4.0  2004/03/22 09.42
+___    ______ ____    _____ _____  ____ __ ______    ______ _________
0                                   6772    1077.     *    SET FD USER INFO FIELD
                                    6773    1078.     *
 001594                             6774    1079.     SETUIN   DS    0H          CONTROL 14
 001594 1F11/4310 B001       00001  6775    1080.              LC    R1,VCCODE               GET CONTROL NUMBER (14)
 00159A 58F0 B018            00018  6782    1081.              L     R15,VCPARM1             GET INFO FIELD
 00159E 9140 B002      00002        6783    1082.              IF    ~VCFNR1,SETUIN1         MODE=FORMAT SET
 0015A2 47E0 7298            015A8  6795             +
 0015A6 1111                        6801    1083.              LNR   R1,R1                   SET MODE=FORMAT
 0015A8 4D90 72A6            015B6  6802    1084.     SETUIN1  LCALL CCKATCH                 ENTER A BIT LATE
 0015AC 47F0 7076            01386  6804    1085.              B     SVCRET
                                    6805    1086.     *
                                    6806    1087.     *    COMMON CONTROL ROUTINE
                                    6807    1088.     *
 0015B0                             6808    1089.     CONTCOMM DS    0H
 0015B0 1F11/4310 B001       00001  6809    1090.              LC    R1,VCCODE               GET CONTROL CODE
 0015B6 5800 B014            00014  6816    1091.     CCKATCH  L     R0,VCDEVID              GET DEVICE ID
 0015BA 9180 B002      00002        6817    1092.              IF    ~VCFWAIT,CCOMM1         MODE=WAIT SPECIFIED?
 0015BE 47E0 72B4            015C4  6829             +
 0015C2 1100                        6835    1093.              LNR   R0,R0                   SET MODE=WAIT
 0015C4 0AF5                        6836    1094.     CCOMM1   CONTROL (0),(1),(15),(14)
 0015C6 4770 7076            01386  6861    1095.              BNZ   SVCRET                  STRAIGHT BACK
 0015CA 9680 B003      00003        6862    1096.              SET   VCRR15Z                 SET GOOD RETURN FLAG
 0015CE 0AF2                        6868    1097.              WAIT  (0)
 0015D0 07F9                        6876    1098.              BR    RAR                     MISSION ACCOMPLISHED
1OVAM     (OVAM20) (09:42) (22MAR04) VAM/370 - OVAM'S SVC EXECUTOR                                                          Page   46
0Current Usings:  (*,R7) (CT,R10) (VCH,R11)
0Loc    Object Code    Addr1 Addr2  Stmt Lv Lineno    Source Statement           (Hibal 5, Asmedit 3.3)  HLASM R4.0  2004/03/22 09.42
+___    ______ ____    _____ _____  ____ __ ______    ______ _________
0                                   6878    1100.     *    STATUS FUNCTIONS
                                    6879    1101.     *
 0015D2                             6880    1102.     OSVSTATU DS    0H
 0015D2 1F22/4320 B001       00001  6881    1103.              LC    SR,VCCODE               GET STATUS NUMBER
 0015D8 4920 764A            0195A  6888    1104.              CH    SR,=Y(PRIVSTAT)         IN PRIVILEGED SECTION?
 0015DC 4740 72E4            015F4  6889    1105.              BL    STATOK                  NO, GO AHEAD
 0015E0 4B20 764C            0195C  6890    1106.              SH    SR,=Y(100)              REDUCE
 0015E4 4740 706E            0137E  6891    1107.              BM    SPEC                    NG
 0015E8 4122 0008            00008  6892    1108.              LA    SR,PRIVSTAT(SR)         BUMP UP
 0015EC 4920 764E            0195E  6893    1109.              CH    SR,=Y(HISTATUS)         HIGHER THAN MAX?
 0015F0 4720 706E            0137E  6894    1110.              BH    SPEC                    YEP
                                    6896    1112.     STATOK   GENSTAT SR
 0015F4 8920 0002            00002  6897    01-GENST +STATOK   SLL   SR,2                    MULT. BY 4
 0015F8 47F2 72EC            015FC  6898    01-GENST +         B     *+4(SR)                 AND BLAST OFF
 0015FC                             6899    01-GENST +FSTATUS  DS    0H
 0015FC 47F0 733C            0164C  6900    01-GENST +         B     ACCGRP               0  EXTEND FILE ACCESS TO ACCOUNT
 001600 47F0 7356            01666  6901    01-GENST +         B     ACCPUB               1  EXTEND FILE ACCESS TO PUBLIC
 001604 47F0 735E            0166E  6902    01-GENST +         B     SNFILE               2  SENSE FILES
 001608 47F0 735E            0166E  6903    01-GENST +         B     SNGMEM               3  SENSE GROUP MEMBERS
 00160C 47F0 73B4            016C4  6904    01-GENST +         B     SNFSPAC              4  SENSE SPACE FOR ACCOUNT
 001610 47F0 7490            017A0  6905    01-GENST +         B     USERSPAC             5  USER SET ACCOUNT ENTRY
 001614 47F0 7412            01722  6906    01-GENST +         B     CRTNIXR              6  CREATE NON-IXR'ED FILE
 001618 47F0 7412            01722  6907    01-GENST +         B     CRTHYBR              7  CREATE HYBRID FILE
 00161C                             6908    01-GENST +PSTATUS  DS    0H                      START OF PRIVILEGED REQUESTS
 00161C 47F0 73C8            016D8  6909    01-GENST +         B     SETGRP             100  ENTER ACCOUNT IN FILE SYSTEM
 001620 47F0 73C8            016D8  6910    01-GENST +         B     DELGRP             101  REMOVE ACCOUNT FROM FILE SYS.
 001624 47F0 73C8            016D8  6911    01-GENST +         B     STGRSP             102  RESET ACCOUNT'S MAX SPACE
 001628 47F0 73D4            016E4  6912    01-GENST +         B     SNGRPS             103  SENSE ACCOUNTS, SPACE
 00162C 47F0 73C8            016D8  6913    01-GENST +         B     SETSPU             104  RESET FILE SPACE USED
 001630                             6914    01-GENST +ASTATUS  DS    0H                      END OF ACCOUNTS PRIVS.
 001630 47F0 7412            01722  6915    01-GENST +         B     DELFILFD           105  DELETE FILE DIRECTORY FILE ENTRY
 001634 47F0 7422            01732  6916    01-GENST +         B     RDABSB             106  READ BLOCK BY ABS. BLOCK NO.
 001638 47F0 7466            01776  6917    01-GENST +         B     SETPUSER           107  SET PSEUDO USER FOR FILE I/O
 00163C 47F0 7446            01756  6918    01-GENST +         B     SETMODE            108  SET READ ONLY MODE
 001640 47F0 7490            017A0  6919    01-GENST +         B     WRABSB             109  WRITE BLOCK BY ABS. BLOCK NO.
 001644 47F0 7490            017A0  6920    01-GENST +         B     SETCACHE           110  SET BITMAP CACHE SIZE
 001648 47F0 7490            017A0  6921    01-GENST +         B     IXRTST             111  TEST IXR MGMT ROUTINES
 00164C                             6922    01-GENST +NSTATUS  DS    0H
0                                   6924    01-GENST +PRIVSTAT EQU   (PSTATUS-FSTATUS)/4     START OF PRIVILIGED STATUS'S
                                    6925    01-GENST +HISTATUS EQU   ((NSTATUS-FSTATUS)/4)-1 HIGHEST LEGAL STATUS
1OVAM     (OVAM20) (09:42) (22MAR04) VAM/370 - OVAM'S SVC EXECUTOR                                                          Page   47
0Current Usings:  (*,R7) (CT,R10) (VCH,R11)
0Loc    Object Code    Addr1 Addr2  Stmt Lv Lineno    Source Statement           (Hibal 5, Asmedit 3.3)  HLASM R4.0  2004/03/22 09.42
+___    ______ ____    _____ _____  ____ __ ______    ______ _________
0                                   6928    1115.     *   PERMIT ACCESS TO ANOTHER GROUP
                                    6929    1116.     *
 00164C                             6930    1117.     ACCGRP   DS    0H                   0
 00164C 5810 B018            00018  6931    1118.              L     R1,VCPARM1              GET PRIVS.
 001650 41F0 B028            00028  6932    1119.              LA    R15,VCACC1              GET GRANTEE
 001654 1BEE                        6933    1120.              SR    R14,R14                 ASSUME NO GRANTOR
 001656 9540 B02E      0002E        6934    1121.              CLI   VCACC2,C' '             ANY SPECIFIED?
 00165A 4780 7494            017A4  6935    1122.              BE    STATNDAT                NOPE
 00165E 41E0 B02E            0002E  6936    1123.              LA    R14,VCACC2              POINT TO GRANTING ACCOUNT
 001662 47F0 7494            017A4  6937    1124.              B     STATNDAT
-
                                    6939    1126.     *
                                    6940    1127.     *    PERMIT ACCESS TO PUBLIC
                                    6941    1128.     *
 001666                             6942    1129.     ACCPUB   DS    0H                   1
 001666 5810 B018            00018  6943    1130.              L     R1,VCPARM1              GET PUBLIC PRIVS.
 00166A 47F0 7494            017A4  6944    1131.              B     STATNDAT                DO IT
1OVAM     (OVAM20) (09:42) (22MAR04) VAM/370 - OVAM'S SVC EXECUTOR                                                          Page   48
0Current Usings:  (*,R7) (CT,R10) (VCH,R11)
0Loc    Object Code    Addr1 Addr2  Stmt Lv Lineno    Source Statement           (Hibal 5, Asmedit 3.3)  HLASM R4.0  2004/03/22 09.42
+___    ______ ____    _____ _____  ____ __ ______    ______ _________
0                                   6946    1133.     *
                                    6947    1134.     *    SENSE FILES FOR AN ACCOUNT
                                    6948    1135.     *    SENSE ACCOUNT UNIT MEMBERS
                                    6949    1136.     *
 00166E                             6950    1137.     SNFILE   DS    0H                   2
 00166E                             6951    1138.     SNGMEM   DS    0H                   3
 00166E 4110 B028            00028  6952    1139.              LA    R1,VCOMEND              GET DATA ADDRESS
 001672 58F0 B018            00018  6953    1140.              L     R15,VCPARM1             LENGTH OF USER BUFFER
 001676 1BEE                        6954    1141.              SR    R14,R14                 ASSUME NO FNAME/ACC SPECIFIED
 001678 4820 B024            00024  6955    1142.              LH    SR,VCDATAL              GET DATA LENGTH
 00167C 1222                        6956    1143.              LTR   SR,SR                   CHECK FOR DATA PRESENT
 00167E 4780 7376            01686  6957    1144.              BZ    SNSTAT                  NONE
 001682 41E0 B028            00028  6958    1145.              LA    R14,VCDATA              FNAME/ACCOUNT
 001686 1F00/4300 B001       00001  6959    1146.     SNSTAT   LC    R0,VCCODE               GET STATUS CODE AGAIN
 00168C 0AF1                        6964    1147.              STATUS (0),(1),(15),(14)
 00168E 4770 7076            01386  6987    1148.              BNZ   SVCRET                  TOO BAD
 001692 9680 B003      00003        6988    1149.              SET   VCRR15Z                 SET STATUS RETURN OK
 001696 5000 B014            00014  6994    1150.              ST    R0,VCDEVID              SAVE ID FOR WAIT
 00169A 0AF2                        6995    1151.              WAIT  (0)
 00169C 5010 B018            00018  7003    1152.              ST    R1,VCPARM1              SAVE RETURN
 0016A0 9503 B001      00001        7004    1153.              CLI   VCCODE,3                CHECK FOR STATUS 3
 0016A4 4780 73A4            016B4  7005    1154.              BE    SNGMRET                 DIFFERENT PARMS
 0016A8 4C10 7650            01960  7006    1155.              MH    R1,=Y(56)               TIMES BYTES/ENTRY
 0016AC 4010 B024            00024  7007    1156.              STH R1,VCDATAL                GIVES TOTAL LENGTH
 0016B0 47F0 7076            01386  7008    1157.              B     SVCRET
                                    7009    1158.
 0016B4 50E0 B01C            0001C  7010    1159.     SNGMRET  ST    R14,VCPARM2             SAVE # RETURNED
 0016B8 4CE0 7648            01958  7011    1160.              MH    R14,=Y(7)               TIMES BYTES/ENTRY
 0016BC 40E0 B024            00024  7012    1161.              STH   R14,VCDATAL             GIVES TOTAL LENGTH
 0016C0 47F0 7076            01386  7013    1162.              B     SVCRET
1OVAM     (OVAM20) (09:42) (22MAR04) VAM/370 - OVAM'S SVC EXECUTOR                                                          Page   49
0Current Usings:  (*,R7) (CT,R10) (VCH,R11)
0Loc    Object Code    Addr1 Addr2  Stmt Lv Lineno    Source Statement           (Hibal 5, Asmedit 3.3)  HLASM R4.0  2004/03/22 09.42
+___    ______ ____    _____ _____  ____ __ ______    ______ _________
0                                   7015    1164.     *    SENSE ALLOCATED AND USED SPACE FOR AN ACCOUNT
                                    7016    1165.     *
 0016C4                             7017    1166.     SNFSPAC  DS    0H                   4
 0016C4 1B11                        7018    1167.              SR    R1,R1                   ASSUME NO USER SPECIFIED
 0016C6 4820 B024            00024  7019    1168.              LH    SR,VCDATAL              CHECK FOR DATA
 0016CA 1222                        7020    1169.              LTR   SR,SR
 0016CC 4780 7494            017A4  7021    1170.              BZ    STATNDAT                NOTHING THERE
 0016D0 4110 B028            00028  7022    1171.              LA    R1,VCACC1               POINT AT ACCOUNT
 0016D4 47F0 7494            017A4  7023    1172.              B     STATNDAT
-
                                    7025    1174.     *
                                    7026    1175.     *    ATTACH ACCOUNT TO FILE SYSTEM
                                    7027    1176.     *    DELETE ACCOUNT FROM FILE SYSTEM
                                    7028    1177.     *    RESET BLOCK LIMIT FOR AN ACCOUNT
                                    7029    1178.     *    RESET BLOCKS USED FOR AN ACCOUNT
                                    7030    1179.     *
 0016D8                             7031    1180.     SETGRP   DS    0H             100 (5)
 0016D8                             7032    1181.     DELGRP   DS    0H             101 (6)
 0016D8                             7033    1182.     STGRSP   DS    0H             102 (7)
 0016D8                             7034    1183.     SETSPU   DS    0H             104 (9)
 0016D8 4110 B028            00028  7035    1184.              LA    R1,VCACC1               GET OPERAND ACCOUNT
 0016DC 58F0 B018            00018  7036    1185.              L     R15,VCPARM1             GET SPACE PARM (IGNORED FOR 101)
 0016E0 47F0 7494            017A4  7037    1186.              B     STATNDAT
-
                                    7039    1188.     *
                                    7040    1189.     *    REPORT ON ACCOUNTS IN FILE SYSTEM
                                    7041    1190.     *
 0016E4                             7042    1191.     SNGRPS   DS    0H             103 (8)
 0016E4 58F0 B018            00018  7043    1192.              L     R15,VCPARM1             GET LENGTH OF BUFFER
 0016E8 4110 B028            00028  7044    1193.              LA    R1,VCOMEND
 0016EC 48E0 B024            00024  7045    1194.              LH    R14,VCDATAL             CHECK FOR STARTING ACCOUNT
 0016F0 12EE/4780 73EA       016FA  7046    1195.              IF    (R14,NZ),BEGIN          THERE IS ONE
 0016F6 41E0 B028            00028  7060  1 1196.                LA    R14,VCACC1              POINT AT STARTING ACCOUNT
 0016FA                             7061    1197.              END   ,
 0016FA BFE8 B01C            0001C  7065    1198.              ICM   R14,8,VCPARM2           SET FILE SYSTEM ID
 0016FE 4100 0067/0AF1       00067  7066    1199.              STATUS 103,(1),(15),(14)
 001704 4770 7076            01386  7091    1200.              BNZ   SVCRET                  NO GOOD
 001708 9680 B003      00003        7092    1201.              SET   VCRR15Z                 SET GOOD RETURN
 00170C 5000 B014            00014  7098    1202.              ST    R0,VCDEVID              SAVE DEVICE ID
 001710 0AF2                        7099    1203.              WAIT  (0)
 001712 5010 B018            00018  7107    1204.              ST    R1,VCPARM1              SAVE # RETURNED
 001716 4C10 7652            01962  7108    1205.              MH    R1,=Y(14)               CALC. TOTAL LENGTH
 00171A 4010 B024            00024  7109    1206.              STH   R1,VCDATAL
 00171E 47F0 7076            01386  7110    1207.              B     SVCRET
1OVAM     (OVAM20) (09:42) (22MAR04) VAM/370 - OVAM'S SVC EXECUTOR                                                          Page   50
0Current Usings:  (*,R7) (CT,R10) (VCH,R11)
0Loc    Object Code    Addr1 Addr2  Stmt Lv Lineno    Source Statement           (Hibal 5, Asmedit 3.3)  HLASM R4.0  2004/03/22 09.42
+___    ______ ____    _____ _____  ____ __ ______    ______ _________
0                                   7112    1209.     *
                                    7113    1210.     *    CREATE NON-IXR FILE
                                    7114    1211.     *    DELETE FD FILE ENTRY
                                    7115    1212.     *
 001722                             7116    1213.     CRTNIXR  DS    0H                  6
 001722                             7117    1214.     CRTHYBR  DS    0H                  7
 001722                             7118    1215.     DELFILFD DS    0H            105 (10)
 001722 58E0 B018            00018  7119    1216.              L     R14,VCPARM1             GET BLOCK COUNT
 001726 4110 B028            00028  7120    1217.              LA    R1,VCFNAME              POINT AT FILE NAME
 00172A 41F0 002C            0002C  7121    1218.              LA    R15,L'VCFNAME           AND LENGTH
 00172E 47F0 7494            017A4  7122    1219.              B     STATNDAT
-                                   7124    1221.     *
                                    7125    1222.     *    READ BLOCK BY ABSOLUTE BLOCK NUMBER
                                    7126    1223.     *
 001732                             7127    1224.     RDABSB   DS    0H            106 (11)
 001732 4100 006A            0006A  7128    1225.              STATUS 106,VCOMEND,L:VCPARM1,L:VCPARM2
 001736 4110 B028            00028  7142             +
 00173A 58F0 B018            00018  7147             +
 00173E 58E0 B01C/0AF1       0001C  7152             +
 001744 4770 7076            01386  7155    1226.              BNZ   SVCRET
 001748 9680 B003      00003        7156    1227.              SET   VCRR15Z
 00174C 5000 B014            00014  7162    1228.              ST    R0,VCDEVID
 001750 0AF2                        7163    1229.              WAIT  (0)
 001752 47F0 7076            01386  7171    1230.              B     SVCRET
-                                   7173    1232.     *
                                    7174    1233.     *    SET FILE SYSTEM MODE
                                    7175    1234.     *
 001756                             7176    1235.     SETMODE  LABEL ,                 108
 001756 4100 006C            0006C  7178    1236.              STATUS 108,VCFNAME,L:VCPARM1      SET FILE MODE
 00175A 4110 B028            00028  7192             +
 00175E 58F0 B018/0AF1       00018  7197             +
 001764 4770 7076            01386  7203    1237.              BNZ   SVCRET                  RETURN ON ERROR
 001768 9680 B003      00003        7204    1238.              SET   VCRR15Z                 SET GOOD RETURN
 00176C 5000 B014            00014  7210    1239.              ST    R0,VCDEVID              SAVE DEVICE IDENTIFIER
 001770 0AF2                        7211    1240.              WAIT  (0)                     WAIT FOR COMPLETION
 001772 47F0 7076            01386  7219    1241.              B     SVCRET                  RETURN
1OVAM     (OVAM20) (09:42) (22MAR04) VAM/370 - OVAM'S SVC EXECUTOR                                                          Page   51
0Current Usings:  (*,R7) (CT,R10) (VCH,R11)
0Loc    Object Code    Addr1 Addr2  Stmt Lv Lineno    Source Statement           (Hibal 5, Asmedit 3.3)  HLASM R4.0  2004/03/22 09.42
+___    ______ ____    _____ _____  ____ __ ______    ______ _________
0                                   7221    1243.     *
                                    7222    1244.     * SET PSUEDO/USER
                                    7223    1245.     *
 001776                             7224    1246.     SETPUSER LABEL ,
 001776 1B11                        7226    1247.              CLEAR R1                      SET TO CLEAR USER
 001778 9540 B028      00028        7230    1248.              IF    (VCACC1,NE,C' '),BEGIN
 00177C 4780 7478            01788  7242             +
 001780 4110 B028            00028  7247  1 1249.                LA    R1,VCACC1               PTR TO ACCOUNT
 001784 58F0 B018            00018  7248  1 1250.                L     R15,VCPARM1             AND PRIVS
 001788                             7249    1251.              END   ,
 001788 4100 006B/0AF1       0006B  7253    1252.              STATUS 107,(R1),(R15)
 00178E 4770 7076            01386  7274    1253.              BNZ   SVCRET                  WHOOPS
 001792 9680 B003      00003        7275    1254.              SET   VCRR15Z                 GOOD RETURN
 001796 5000 B014            00014  7281    1255.              ST    R0,VCDEVID              SAVE DEV ID
 00179A 0AF2                        7282    1256.              WAIT  (R0)                    WAIT
 00179C 47F0 7076            01386  7289    1257.              B     SVCRET                  RETURN
0                                   7291    1259.     *
                                    7292    1260.     *    HAVEN'T DONE THESE STATUS'S YET, SORRY
                                    7293    1261.     *
 0017A0                             7294    1262.     USERSPAC DS    0H            5
 0017A0                             7295    1263.     WRABSB   DS    0H            109
 0017A0                             7296    1264.     SETCACHE DS    0H            110
 0017A0                             7297    1265.     IXRTST   DS    0H            111
 0017A0 47F0 706E            0137E  7298    1266.              B     SPEC
-                                   7300    1268.     *    COMMON CODE FOR STATUS'S WHICH RETURN NO DATA
                                    7301    1269.     *     (CODES 0, 1, 4, 100, 101, 102, 104, 105)
                                    7302    1270.     *
 0017A4                             7303    1271.     STATNDAT DS    0H
 0017A4 1F00/4300 B001       00001  7304    1272.              LC    R0,VCCODE               GET STATUS CODE
 0017AA 0AF1                        7309    1273.              STATUS (0),(1),(15),(14)
 0017AC 4770 7076            01386  7332    1274.              BNZ   SVCRET                  WHOOPS
 0017B0 9680 B003      00003        7333    1275.              SET   VCRR15Z                 SET GOOD RETURN
 0017B4 5000 B014            00014  7339    1276.              ST    R0,VCDEVID              SAVE DEVICE ID
 0017B8 0AF2                        7340    1277.              WAIT  (0)
 0017BA 9504 B001      00001        7348    1278.              CLI   VCCODE,4                ONLY STATUS 4 RETURNS
 0017BE 4770 7076            01386  7349    1279.              BNE   SVCRET                  MORE THAN R15
 0017C2 5010 B018            00018  7350    1280.              ST    R1,VCPARM1              SAVE BLOCKS ALLOWED
 0017C6 50E0 B01C            0001C  7351    1281.              ST    R14,VCPARM2             SAVE BLOCKS USED
 0017CA 47F0 7076            01386  7352    1282.              B     SVCRET
1OVAM     (OVAM20) (09:42) (22MAR04) VAM/370 - OVAM'S SVC EXECUTOR                                                          Page   52
0Current Usings:  (*,R7) (CT,R10) (VCH,R11)
0Loc    Object Code    Addr1 Addr2  Stmt Lv Lineno    Source Statement           (Hibal 5, Asmedit 3.3)  HLASM R4.0  2004/03/22 09.42
+___    ______ ____    _____ _____  ____ __ ______    ______ _________
0                                   7354    1284.     *    WRITE A BLOCK
                                    7355    1285.     *
 0017CE                             7356    1286.     OSVWRITE DS    0H
 0017CE 5800 B014            00014  7357    1287.              L     R0,VCDEVID              GET DEVICE NUMBER
 0017D2 58E0 B018            00018  7358    1288.              L     R14,VCPARM1             GET BLOCK NUMBER
 0017D6 48F0 B024            00024  7359    1289.              LH    R15,VCDATAL             LENGTH TO WRITE
 0017DA 4110 B028            00028  7360    1290.              LA    R1,VCDATA               DATA TO WRITE
 0017DE 9180 B002      00002        7361    1291.              IF    ~VCFWAIT,WRSVC
 0017E2 47E0 74D8            017E8  7373             +
 0017E6 1300                        7379    1292.              LCR   R0,R0                   SET MODE=WAIT
 0017E8 0AF6                        7380    1293.     WRSVC    WRITE (0),(1),(15),(14)
 0017EA 4770 7076            01386  7405    1294.              BNZ   SVCRET                  WHOOPS
 0017EE 9680 B003      00003        7406    1295.              SET   VCRR15Z                 SET GOOD RETURN
 0017F2 0AF2                        7412    1296.              WAIT  (0)
 0017F4 5010 B018            00018  7420    1297.              ST    R1,VCPARM1              SAVE LENGTH WRITTEN
 0017F8 50E0 B01C            0001C  7421    1298.              ST    R14,VCPARM2             SAVE NEXT BLOCK NUMBER
 0017FC 47F0 7076            01386  7422    1299.              B     SVCRET
1OVAM     (OVAM20) (09:42) (22MAR04) VAM/370 - OVAM'S SVC EXECUTOR                                                          Page   53
0Current Usings:  (*,R7) (CT,R10) (VCH,R11)
0Loc    Object Code    Addr1 Addr2  Stmt Lv Lineno    Source Statement           (Hibal 5, Asmedit 3.3)  HLASM R4.0  2004/03/22 09.42
+___    ______ ____    _____ _____  ____ __ ______    ______ _________
0                                   7424    1301.     *
                                    7425    1302.     *  ENQUEUE/DEQUEUE
                                    7426    1303.     *
 001800                             7427    1304.     OSVENQUE DS    0H
 001800                             7428    1305.              CLEAR VCDEVID                 SET NO ID
 001800 D703 B014 B014 00014 00014  7434             +
 001806 1F00/4300 B001       00001  7435    1306.              LC    R0,VCCODE               GET DEVICE CLASS
 00180C 58E0 B018            00018  7440    1307.              L     R14,VCPARM1              REQUEST CODE
 001810 58F0 B01C            0001C  7441    1308.              L     R15,VCPARM2               AND LENGTH
 001814 4110 B028            00028  7442    1309.              LA    R1,VCFNAME              POINT AT NAME
 001818 9120 B002      00002        7443    1310.              IF    VCFNR15,'LCR  R15,R15'  MODE = TEST
 00181C 47E0 7512/13FF       01822  7453             +
 001822 9140 B002      00002        7464    1311.              IF    VCFNR1,'LCR  R1,R1'     MODE = SHARE
 001826 47E0 751C/1311       0182C  7474             +
 00182C 9180 B002      00002        7485    1312.              IF    VCFWAIT,'LCR  R0,R0'    MODE = WAIT
 001830 47E0 7526/1300       01836  7495             +
 001836 0AEF                        7506    1313.              SVC   239                     ENQUEUE THE RESOURCE
 001838 4770 7076            01386  7507    1314.              BNZ   SVCRET                  WHOOPS
 00183C 9680 B003      00003        7508    1315.              SET   VCRR15Z                 SET GOOD RETURN
 001840 5000 B014            00014  7514    1316.              ST    R0,VCDEVID              SAVE DEVICE ID
 001844 0AF2                        7515    1317.              WAIT  (0)
 001846 47F0 7076            01386  7523    1318.              B     SVCRET
1OVAM     (OVAM20) (09:42) (22MAR04) VAM/370 - OVAM'S SVC EXECUTOR                                                          Page   54
0Current Usings:  (*,R7) (CT,R10) (VCH,R11)
0Loc    Object Code    Addr1 Addr2  Stmt Lv Lineno    Source Statement           (Hibal 5, Asmedit 3.3)  HLASM R4.0  2004/03/22 09.42
+___    ______ ____    _____ _____  ____ __ ______    ______ _________
0                                   7525    1320.     *    RESERVE DEVICE EXCLUSIVELY
                                    7526    1321.     *
 00184A                             7527    1322.     OSVRESER DS    0H
 00184A 5800 B014            00014  7528    1323.              L     R0,VCDEVID              GET DEVICE ID
 00184E 9180 B002      00002        7529    1324.              IF    ~VCFWAIT,OSVRES1        NOT WAIT, LEAVE POSITIVE
 001852 47E0 7548            01858  7541             +
 001856 1300                        7547    1325.              LCR   R0,R0                   SET MODE=WAIT
 001858 0AF4                        7548    1326.     OSVRES1  RESERVE (0)                   RESERVE DEVICE
 00185A 4770 7076            01386  7558    1327.     RESRELWT BNZ   SVCRET                  QUIT
 00185E 9680 B003      00003        7559    1328.              SET   VCRR15Z                 SET GOOD RETURN
 001862 0AF2                        7565    1329.              WAIT  (0)
 001864 47F0 7076            01386  7573    1330.              B     SVCRET                  ALL DONE
-
                                    7575    1332.     *
                                    7576    1333.     *    RELEASE EXCLUSIVE CONTROL
                                    7577    1334.     *
 001868                             7578    1335.     OSVRELEA DS    0H
 001868 5800 B014/0AF3       00014  7579    1336.              RELEASE VCDEVID
 00186E 47F0 754A            0185A  7587    1337.              B     RESRELWT                JOIN COMMON CODE
-
                                    7589    1339.     *
                                    7590    1340.     *    DETACH DEVICE
                                    7591    1341.     *
 001872                             7592    1342.     OSVDETAC DS    0H
 001872 5820 B014            00014  7593    1343.              L     SR,VCDEVID              GET DEVICE NUMBER
 001876 4920 7626            01936  7594    1344.              CH    SR,=Y(CTNODTS)          TOO HIGH?
 00187A 4720 706E            0137E  7595    1345.              BH    SPEC                    CAN'T HAPPEN HERE
 00187E 4C20 7628            01938  7596    1346.              MH    SR,=Y(CTODTSIZ)         GET OFFSET
 001882 4122 A10E            0010E  7597    1347.              LA    SR,CTODTS-CTODTSIZ(SR)  FIND SLOT
 USING  ODT,R2                      7598    1348.              USING ODT,SR                  ##
 001886 9180 2000      00000        7607    1349.              IF    ~ODTFATCH,SPEC          WASN'T ATTACHED
 00188A 47E0 706E            0137E  7619             +
 00188E                             7625    1350.              CLEAR ODT                     ZAP IT AWAY
 00188E D701 2000 2000 00000 00000  7631             +
 DROP   ODT,R2                      7632    1351.              DROP  SR                      ##
 001894 5800 B014/0AF8       00014  7639    1352.              DETACH VCDEVID
 00189A 0AF2                        7647    1353.              WAIT  (0)
 00189C 47F0 707A            0138A  7655    1354.              B     SVCEXIT
1OVAM     (OVAM20) (09:42) (22MAR04) VAM/370 - OVAM'S SVC EXECUTOR                                                          Page   55
0Current Usings:  (*,R7) (CT,R10) (VCH,R11)
0Loc    Object Code    Addr1 Addr2  Stmt Lv Lineno    Source Statement           (Hibal 5, Asmedit 3.3)  HLASM R4.0  2004/03/22 09.42
+___    ______ ____    _____ _____  ____ __ ______    ______ _________
0                                   7657    1356.     *   SETS - ONLY 21, 22 (ENQUEUE, DEQUEUE) ARE IMPLEMENTED
                                    7658    1357.     *
 0018A0                             7659    1358.     OSVSET   DS    0H
 0018A0 9515 B001      00001        7660    1359.              IF    (VCCODE,EQ,21),ENQUEUE
 0018A4 4780 75A4            018B4  7675             +
 0018A8 9516 B001      00001        7681    1360.              IF    (VCCODE,EQ,22),DEQUEUE
 0018AC 4780 75DC            018EC  7696             +
 0018B0 47F0 706E            0137E  7702    1361.              B     SPEC
-
 0018B4 4110 B028            00028  7704    1363.     ENQUEUE  LA    R1,VCDATA               POINT AT ENQUEUE STRING
 0018B8 48F0 B024            00024  7705    1364.              LH    R15,VCDATAL             GET LENGTH
 0018BC 59F0 7620            01930  7706    1365.              IF    (R15,GT,128),SPEC
 0018C0 4720 706E            0137E  7720             +
 0018C4 9120 B002      00002        7726    1366.              IF    VCFNR15,' LCR R15,R15 ' SET MODE
 0018C8 47E0 75BE/13FF       018CE  7736             +
 0018CE 9604 A080      00080        7747    1367.              SET   CTENQW                  SET WAITING FOR ENQUEUE
 0018D2 4100 0015/0AFB       00015  7753    1368.              VSET  21,(1),(15)             DO ENQUEUE
 0018D8 4770 75D0            018E0  7777    1369.              IF    ZERO,'  SET  CTENQ  '    SET SOMETHING ENQUEUED
 0018DC 9608 A080      00080        7794             +
 0018E0 94FB A080      00080        7799    1370.              CLEAR CTENQW                  SET NO LONGER WAITING
 0018E4 5010 B018            00018  7806    1371.              ST    R1,VCPARM1              SET RETURN
 0018E8 47F0 7076            01386  7807    1372.              B     SVCRET                  ALL DONE
-
 0018EC 4100 0016            00016  7809    1374.     DEQUEUE  VSET  22,L:VCPARM1
 0018F0 5810 B018/0AFB       00018  7821             +
 0018F6 94F7 A080      00080        7831    1375.              CLEAR CTENQ                   SET NO ENQUEUE OUT
 0018FA 47F0 7076            01386  7838    1376.              B     SVCRET                  THAT WAS QUICK
1OVAM     (OVAM20) (09:42) (22MAR04) VAM/370 - OVAM'S SVC EXECUTOR                                                          Page   56
0Current Usings:  (*,R7) (CT,R10) (VCH,R11)
0Loc    Object Code    Addr1 Addr2  Stmt Lv Lineno    Source Statement           (Hibal 5, Asmedit 3.3)  HLASM R4.0  2004/03/22 09.42
+___    ______ ____    _____ _____  ____ __ ______    ______ _________
0                                   7840    1378.     *        MISC. OPERATIONS NOT YET IMPLEMENTED
                                    7841    1379.     *
 0018FE                             7842    1380.     OSVCOMMA DS    0H
 0018FE                             7843    1381.     OSVEXIT  DS    0H
 0018FE                             7844    1382.     OSVPANIC DS    0H
 0018FE                             7845    1383.     OSVPAUSE DS    0H
 0018FE                             7846    1384.     OSVMILCO DS    0H
 0018FE                             7847    1385.     OSVWAIT  DS    0H
 0018FE                             7848    1386.     OSVSERVI DS    0H
-
                                    7850    1388.     *
                                    7851    1389.     *        CLP ONLY SERVICES
                                    7852    1390.     *
 0018FE                             7853    1391.     OSVHALT  DS    0H
 0018FE                             7854    1392.     OSVCLPSE DS    0H
 0018FE 47F0 706E            0137E  7855    1393.              B     SPEC
-                                   7857    1395.     *
                                    7858    1396.     *  SENSE OPERATIONS
                                    7859    1397.     *
 001902                             7860    1398.     OSVSENSE LABEL ,                       ONLY SENSE 28 ALLOWED
 001902 951C B001      00001        7862    1399.              IF    (VCCODE,NE,28),SPEC     WHOOPS
 001906 4770 706E            0137E  7877             +
 00190A 4100 001C            0001C  7883    1400.              SENSE 28,VCDATA               SENSE ORVYL RUNNING
 00190E 4110 B028/0AFA       00028  7897             +
 001914 12FF/4770 760E       0191E  7906    1401.              IF    (R15,Z),'SET VCRR15Z'
 00191A 9680 B003      00003        7926             +
 00191E D201 B024 7654 00024 01964  7931    1402.              MVC   VCDATAL,=Y(8)           SET LENGTH TO RETURN
 001924 47F0 7076            01386  7932    1403.              B     SVCRET                  AND RETURN
1OVAM     (OVAM20) (09:42) (22MAR04) VAM/370 - OVAM'S SVC EXECUTOR                                                          Page   57
0Current Usings:  (*,R7) (CT,R10) (VCH,R11)
0Loc    Object Code    Addr1 Addr2  Stmt Lv Lineno    Source Statement           (Hibal 5, Asmedit 3.3)  HLASM R4.0  2004/03/22 09.42
+___    ______ ____    _____ _____  ____ __ ______    ______ _________
0                                   7934    1405.     *
                                    7935    1406.     *    CONSTANTS
                                    7936    1407.     *
 001928                             7937    1408.              LTORG
 001928 00000000                    7939                             =V(VSEG)
 00192C 00000000                    7940                             =V(VWRITE)
 001930 00000080                    7941                             =A(128)
 001934 0044                        7942                             =Y(OSVHIGH)
 001936 0080                        7943                             =Y(CTNODTS)
 001938 0002                        7944                             =Y(CTODTSIZ)
 00193A C4C5E5C9C3C540C9            7945                             =C'DEVICE ID TOO BIG FOR OVAM'
 001954 1000                        7946                             =Y(4096)
 001956 0019                        7947                             =Y((NFILCD-FFILCD-4)/4)
 001958 0007                        7948                             =Y(7)
 00195A 0008                        7949                             =Y(PRIVSTAT)
 00195C 0064                        7950                             =Y(100)
 00195E 0013                        7951                             =Y(HISTATUS)
 001960 0038                        7952                             =Y(56)
 001962 000E                        7953                             =Y(14)
 001964 0008           01966 01968  7954                             =Y(8)
 001968                01968 01968  7958    1409.              END   .

1OVAM     (OVAM20) (09:42) (22MAR04) Ordinary Symbol and Literal Cross Reference                                            Page   58
-Symbol   Length   Value     Id    R Type   Defn References                                  HLASM R4.0  2004/03/22 09.42
0$$$@R10       1 00000000 FFFFFFF4     J     836 1119
 $$$@R11       1 00000000 FFFFFFF3     J     849 1132
 $$$@R2        1 00000000 FFFFFFFC     J     732 1015
 $$$@R3        1 00000000 FFFFFFFB     J     745 1028
 $$$@R4        1 00000000 FFFFFFFA     J     758 1041
 $$$@R5        1 00000000 FFFFFFF9     J     771 1054
 $$$@R6        1 00000000 FFFFFFF8     J     784 1067
 $$$@R7        1 00000000 FFFFFFF7     J     797 1080
 $$$@R8        1 00000000 FFFFFFF6     J     810 1093
 $$$@R9        1 00000000 FFFFFFF5     J     823 1106
 $$$C1OVAM
               1 000002B3 00000001     J    2180 2182  3584  3605  3879  4144  4452
 $$$C2OVAM
               1 00000DBA 00000001     J    4873 4875
 $$$C3OVAM
               1 00001304 00000001     J    6150 6152
 $$$C4OVAM
               1 00001966 00000001     J    7955 7957
 $$$C5OVAM
               1 00001968 00000001     J    7961 7963
 $$$D1OVAM
               1 00000D9C 00000001     J    2181 3573  3594  3868  4133  4441
 $$$RCT        1 00000000 FFFFFFEC     J    1302 1468  1468
 $$$RODT       1 00000000 FFFFFFEE     J    1147 1203  1203
 $$$RVCH       1 00000000 FFFFFFED     J    1213 1292  1292
 $$$10F        2 000003F6 00000001     H    2532 2506B
 $$$11E        2 000003FA 00000001     H    2546 2540
 $$$11F        2 00000414 00000001     H    2569 2542B
 $$$12B        1 0000041A 00000001     X    2583 2593U
 $$$13B        1 00000458 00000001     X    2694 2704U
 $$$14F        2 00000546 00000001     H    3012 2903B
 $$$14S        2 000004F0 00000001     H    2894 3011B
 $$$16B        1 00000576 00000001     X    3058 3068U
 $$$17F        2 00000798 00000001     H    3772 3088B
 $$$17S        2 00000580 00000001     H    3078 3386B 3771B
 $$$19F        2 00000670 00000001     H    3394 3107B
 $$$20F        2 00000670 00000001     H    3390 3119B 3187B
 $$$21F        2 000005C6 00000001     H    3175 3149B 3165B
 $$$21S        2 000005AC 00000001     H    3132 3174B
 $$$25F        2 000006FA 00000001     H    3610 3544B
 $$$26F        2 000006F6 00000001     H    3590 3562B
 $$$27         6 00000D9C 00000001     I    3579 3571X
 $$$28         6 00000D9C 00000001     I    3578 3579  3579
 $$$29         6 00000DA2 00000001     I    3600 3592X
 $$$3B         1 00000018 00000001     X    1487 1494U
 $$$30         6 00000DA2 00000001     I    3599 3600  3600
 $$$31B        1 000007A8 00000001     X    3842 3849U
 $$$32         6 00000DA8 00000001     I    3874 3866X
 $$$33         6 00000DA8 00000001     I    3873 3874  3874
 $$$34B        1 000007F8 00000001     X    3911 3921U
 $$$38         6 00000DAE 00000001     I    4139 4131X
 $$$39         6 00000DAE 00000001     I    4138 4139  4139
 $$$4F         2 000000C2 00000001     H    1776 1731B
 $$$44B        1 00000966 00000001     X    4310 4320U
 $$$46         6 00000DB4 00000001     I    4447 4439X
1OVAM     (OVAM20) (09:42) (22MAR04) Ordinary Symbol and Literal Cross Reference                                            Page   59
 $$$47         6 00000DB4 00000001     I    4446 4447  4447
 $$$48B        1 000009F6 00000001     X    4472 4482U
 $$$49B        1 00000A2A 00000001     X    4545 4555U
 $$$5F         2 00000194 00000001     H    2052 2023B
 $$$50B        1 00000DC6 00000001     X    4961 4968U
 $$$51B        4 00000DCE 00000001     I    4981 5028
 $$$51F        2 00000E2A 00000001     H    5025 4981B 5027
 $$$52F        2 00000E2A 00000001     H    5021 4998B
 $$$53E        2 00000E2E 00000001     H    5035 5029
 $$$53F        2 00000E34 00000001     H    5041 5031B
 $$$55F        2 00000E94 00000001     H    5190 5103B
 $$$57F        2 00000E94 00000001     H    5186 5160B
 $$$58B        1 00000F2C 00000001     X    5337 5347U
 $$$59F        2 00000F54 00000001     H    5418 5390B
 $$$6F         2 000001BE 00000001     H    2104 2075B
 $$$61F        2 00000FF2 00000001     H    5652 5430B
 $$$62F        2 00000FEA 00000001     H    5645 5585B
 $$$65F        2 00001134 00000001     H    5973 5944B
 $$$66F        2 0000115C 00000001     H    6036 6012B
 $$$67B        1 00001310 00000001     X    6173 6183U
 $$$7B         1 000002DE 00000001     X    2208 2215U
 $$$74F        2 00001556 00000001     H    6717 6707B
 $$$75F        2 00001578 00000001     H    6762 6735B
 $$$76F        2 00001574 00000001     H    6757 6747B
 $$$79F        2 000016FA 00000001     H    7064 7055B
 $$$80F        2 00001788 00000001     H    7252 7242B
 $$$82F        2 00001822 00000001     H    7463 7453B
 $$$83F        2 0000182C 00000001     H    7484 7474B
 $$$84F        2 00001836 00000001     H    7505 7495B
 $$$9B         4 000003C2 00000001     I    2483 2539
 $$$9F         2 000003F6 00000001     H    2536 2483B 2538
 $$$90F        2 000018CE 00000001     H    7746 7736B
 $$$91F        2 000018E0 00000001     H    7798 7783B
 $$$93F        2 0000191E 00000001     H    7930 7915B
 @QR           0 00000000 FFFFFFFA     @    1042 3096  3766
 @RR           0 00000000 FFFFFFF9     @    1055 3873M 4151M
 @R0           0 00000000 FFFFFFFE     @     707  983U
 @R1           0 00000000 FFFFFFFD     @     720  979U 1904  1905  2105  3134  3162  3873  4035M 4035  6781U 6815U
 @R10          0 00000000 FFFFFFF4     @     837  943U 2128U 3796U 4893U
 @R11          0 00000000 FFFFFFF3     @     850  939U 4888U
 @R12          0 00000000 FFFFFFF2     @     863  935U
 @R13          0 00000000 FFFFFFF1     @     876  931U
 @R14          0 00000000 FFFFFFF0     @     889  927U
 @R15          0 00000000 FFFFFFEF     @     902  923U 2053  2436  5614U
 @R2           0 00000000 FFFFFFFC     @     733  975U 1642U 5222U 6420U 6570U 6691U 6887U 7637U
 @R3           0 00000000 FFFFFFFB     @     746  971U
 @R4           0 00000000 FFFFFFFA     @     759  967U
 @R5           0 00000000 FFFFFFF9     @     772  963U
 @R6           0 00000000 FFFFFFF8     @     785  959U
 @R7           0 00000000 FFFFFFF7     @     798  955U 2137U 2230U 2590U 2608U 2701U 2719U 3065U 3805U 3918U 4317U 4479U
                                                 4552U 4902U 5344U 6180U
 @R8           0 00000000 FFFFFFF6     @     811  951U
 @R9           0 00000000 FFFFFFF5     @     824  947U
 @SR           0 00000000 FFFFFFFC     @    1016 2778  2829  2870  2965  3006
 @TR           0 00000000 FFFFFFFB     @    1029 3007  3586  4138M 4147
 ACCGRP        2 0000164C 00000001     H    6930 6900B
 ACCPUB        2 00001666 00000001     H    6942 6901B
 ACCTERR       4 0000104E 00000001     I    5744 5636B
 AREA          1 000002E0 FFFFFFEC     X    1394 3096M 3112  3112  3162  3303  3339M 3358  3451  3475  3497  3519  3536M
1OVAM     (OVAM20) (09:42) (22MAR04) Ordinary Symbol and Literal Cross Reference                                            Page   60
                                                 3550M 3578M 3578  3740
 ATBADID       4 00001404 00000001     I    6428 6403B
 ATCHMW        2 000013C0 00000001     H    6341 6298B 6332B
 ATCHSVC       2 000013CA 00000001     H    6365 6352B
 ATPOSR15      2 000013B6 00000001     H    6321 6312B
 ATTERR1       2 00000EBA 00000001     I    5231 5087B
 ATTERR2       2 00000EF6 00000001     I    5295 5122B
 BADPATH       4 00000F0A 00000001     I    5311 5193B
 BTD           1 00000000 00000008     T    4839 4839  6125
 BTX           1 00000000 00000007     T    4837 4837
 CCKATCH       4 000015B6 00000001     I    6816 6803B
 CCOMM1        2 000015C4 00000001     H    6842 6829B
 CLEANLP       2 0000114E 00000001     H    6003 6038B
 CLEANUP       2 00001102 00000001     H    5925 5408B 5729B 5788B
 CLWTEMP       8 00000020 FFFFFFEC     U    1316 2792  2843  2928  2979  3215  3266  3317  3415  3465  3487  3509  3531
                                                 3549M 3599M 3599  3620  3650  3680  3710  4744  5270  5839  5892
 CONTCOMM      2 000015B0 00000001     H    6808 6637B 6654B 6658B 6719B 6764B
 CONVHYBR      2 000014F4 00000001     H    6633 6602B
 CPUTM         1 00000B04 00000001     C    4786 4787  4787
 CPUTMASK     13 00000B04 00000001     U    4787 4675  4675  4677  4678
 CREATR        2 000014F4 00000001     H    6612 6577B
 CRTHYBR       2 00001722 00000001     H    7117 6907B
 CRTNIXR       2 00001722 00000001     H    7116 6906B
 CT        12288 00000000 FFFFFFEC     J    1468 1571U 2163  2243U 3828U 4840  4933U
 CT_EYE        8 00000000 FFFFFFEC     C    1309 1581M
 CTCNTRS       4 00000210 FFFFFFEC     F    1387 1388
 CTCPUTIM      4 00000044 FFFFFFEC     F    1321 4630  5485M
 CTCTADDR      4 0000000C FFFFFFEC     A    1311 1583M
 CTCTLEN       4 00000010 FFFFFFEC     A    1312 1584M
 CTELATIM      4 00000048 FFFFFFEC     F    1322 4629  5484M
 CTENQ         8 00000080 FFFFFFEC         1364 7794M 7837M
 CTENQW        4 00000080 FFFFFFEC         1369 2505  7752M 7805M
 CTFILEOP    128 00000080 FFFFFFEC         1344 5669M 5680M
 CTGF          1 00000080 FFFFFFEC     R    1340 1344  1349  1354  1359  1364  1369
 CTGRP         2 00000054 FFFFFFEC     C    1326 4988
 CTINITC      16 00000080 FFFFFFEC         1359 1949M 5159
 CTIOCNT       4 0000004C FFFFFFEC     F    1323 4725  5505M
 CTMAIN        4 00000920 FFFFFFEC     F    1454 1458
 CTNCNTRS      1 00000032 FFFFFFEC A   N    1386 1387
 CTNODTS       1 00000080 FFFFFFEC A   N    1379 1382  5991  6039  6131  7943
 CTODTS        2 00000110 FFFFFFEC     X    1382 1609  5195  5988  6039M 6039  6405  6662  7597
 CTODTSIZ      1 00000002 FFFFFFEC A   N    1380 1382  5195  5988  6039  6039M 6039  6132  6405  6662  7597  7944
 CTPARM      133 00000085 FFFFFFEC     C    1375 1667  1674  1688
 CTPARML       1 00000084 FFFFFFEC     X    1374 1680M 1696
 CTPATHID      4 00000040 FFFFFFEC     F    1317 5049M 5049  5088M 5191  5354  5688  5987M 5987
 CTPBUFSZ      1 00002000 FFFFFFEC A   U    1336 1460  6120
 CTPME         8 0000006C FFFFFFEC     C    1331 1334  1334  4986M 4987M 4988M 4990  5006  5007
 CTPOPEN      64 00000080 FFFFFFEC         1349 2482  5429  5464M 5980M
 CTPPASS       4 0000007C FFFFFFEC     C    1333 2105M 4991M 4991  5017M
 CTPRIVAM     32 00000080 FFFFFFEC         1354 1650M 1992M 2007M 4980  5584  5943
 CTPTHTAG     20 0000006C FFFFFFEC     X    1334 5037M 5071
 CTPYOU        8 00000074 FFFFFFEC     C    1332 4989M 4990M
 CTR          10 0000000A 00000001 A   #    1113 1563M 1571U 1573  1583  1821  1847  1882  2235M 2243U 2613M 2724M 3030
                                                 3828U 4933U
 CTSTART       8 00000000 FFFFFFEC     D    1308 1456
 CTSVA         4 00000600 FFFFFFEC     F    1453 1582
 CTTIMINT      4 00000018 FFFFFFEC     F    1314 1651M 1652M 2059M 2442M 2653  5140
 CTUINFO      27 00000050 FFFFFFEC     X    1329 1600
 CTUSER        3 00000050 FFFFFFEC     C    1324 1329  1329  4987
1OVAM     (OVAM20) (09:42) (22MAR04) Ordinary Symbol and Literal Cross Reference                                            Page   61
 CTVCH         4 00000FD8 FFFFFFEC     A    1458 1459  4970
 CTWORK        8 00000020 FFFFFFEC     D    1315 1316  4490  4495M 4505  4638  4674M 4675M 4676  4677M 4677  4678  5056M
                                                 5056  5083
 CTXACTS       4 00000210 FFFFFFEC     F    1389 5657  5658M
 DELETR        2 000014F4 00000001     H    6613 6578B
 DELFILFD      2 00001722 00000001     H    7118 6915B
 DELGRP        2 000016D8 00000001     H    7032 6910B
 DELTRS        2 000014F4 00000001     H    6614 6579B
 DEQUEUE       4 000018EC 00000001     I    7816 7696B
 DOSVC         4 00001304 00000001     I    6165 6128
 DUMPADD       4 000002D8 FFFFFFEC     A    1391 3070M 3087  3093  3176M 3767M
 DUMPEND       4 000002DC FFFFFFEC     A    1392 3072M 3087  3146
 EBCDIC        2 00000B12 00000001     H    4791 3339  3536
 ENQUEUE       4 000018B4 00000001     I    7704 7675B
 ERASEF        4 00001526 00000001     I    6658 6650B
 EXITBASE      2 000002DC 00000001     H    2200 2233U 2611U 2722U 4825
 FFILCD        4 0000148C 00000001     I    6577 7947
 FMTTIME       1 00000000 00000009     T    4850 4850
 FSTATUS       2 000015FC 00000001     H    6899 6924  6925
 GETXACT       4 00000F20 00000001     I    5329 2173
 GETXERR       2 000010AE 00000001     I    5804 5739B 5793B 5798B 5803B
 GETXLOOP      4 00000F2C 00000001     I    5354 5715B 6087B
 GETXSEGD      2 000010B6 00000001     I    5828 5923B
 GRPACC        2 00001544 00000001     H    6697 6586B
 HIBAL         1 00000000 FFFFFFFF     J     692  708   721   734   747   760   773   786   799   812   825   838   851
                                                  864   877   890   903
 HISTATUS      2 00000013 00000001 A   U    6925 7951
 INITPATH      4 00000DBA 00000001     I    4953 2168  6130
 IXRTST        2 000017A0 00000001     H    7297 6921B
 NFILCD        2 000014F4 00000001     H    6603 7947
 NOCORE        4 00000028 00000001     I    1525 1855B
 NSTATUS       2 0000164C 00000001     H    6922 6925
 OCP           2 00000016 00000001     I    1484 1481
 ODT           2 00000000 FFFFFFEE     J    1203 1619U 5203U 5999U 6191U 6670U 7605U 7631M 7631
 ODTCLASS      1 00000001 FFFFFFEE     R    1164 1173  1183  1193  6414M 6685M
 ODTFATCH    128 00000000 FFFFFFEE         1159 1629M 5210M 6011  6413M 6678M 7616
 ODTFL         1 00000000 FFFFFFEE     R    1155 1159
 ODTNEXT       2 00000002 FFFFFFEE     H    1196 6037
 ODTPATHC      4 00000001 FFFFFFEE         1193 5216M
 ODTTERMC      1 00000001 FFFFFFEE         1173 1635M
 OSVATTAC      2 00001392 00000001     H    6284 6222B
 OSVCOMMA      2 000018FE 00000001     H    7842 6224B
 OSVCONTR      2 00001476 00000001     H    6563 6226B
 OSVDETAC      2 00001872 00000001     H    7592 6228B
 OSVENQUE      2 00001800 00000001     H    7427 6256B
 OSVEXIT       2 000018FE 00000001     H    7843 6230B
 OSVHIGH       1 00000044 00000001 A   U    6258 7942
 OSVMILCO      2 000018FE 00000001     H    7846 6252B
 OSVPANIC      2 000018FE 00000001     H    7844 6232B
 OSVPAUSE      2 000018FE 00000001     H    7845 6234B
 OSVREAD       2 0000141A 00000001     H    6444 6236B
 OSVRELEA      2 00001868 00000001     H    7578 6238B
 OSVRESER      2 0000184A 00000001     H    7527 6240B
 OSVRES1       2 00001858 00000001     H    7554 7541B
 OSVSENSE      2 00001902 00000001     H    7861 6242B
 OSVSERVI      2 000018FE 00000001     H    7848 6254B
 OSVSET        2 000018A0 00000001     H    7659 6244B
 OSVSTATU      2 000015D2 00000001     H    6880 6246B
 OSVWAIT       2 000018FE 00000001     H    7847 6248B
1OVAM     (OVAM20) (09:42) (22MAR04) Ordinary Symbol and Literal Cross Reference                                            Page   62
 OSVWRITE      2 000017CE 00000001     H    7356 6250B
 OVAM          1 00000000 00000001     J     990  992  1017  1030  1043  1056  1069  1082  1095  1108  1121  1134  1204
                                                 1293  1469  1480  2171
 OVAM20        1 00000000 00000001     R     999  997
 PANIC         2 00000456 00000001     I    2691 1839
 PARMSCKW      1 000002B3 00000001     R    2185 1715
 PASS          2 0000037E 00000001     H    2412 2410
 PATHTAGS     20 0000119A 00000001     C    6109 5037
 PAUSE         4 000003A4 00000001     I    2457 2408
 PRCORE        4 0000056A 00000001     I    3050 4841
 PRIVAM        2 00000174 00000001     H    2003 2187
 PRIVSTAT      2 00000008 00000001 A   U    6924 6892  7949
 PSTATUS       2 0000161C 00000001     H    6908 6924
 PUBACC        2 000014F4 00000001     H    6620 6587B
 PUBVAM        2 0000016E 00000001     H    1987 2185
 QR            4 00000004 00000001 A   #    1035 1579M 3093M 3094  3095M 3106  3124  3537  3766M 3767  4079M 4080  4125M
                                                 4127  5990M 6038
 RAR           9 00000009 00000001 A   #    1100 1853M 1854M 1854B 1888M 1889M 1889B 1897M 1898M 1898B 1919M 1920M 1920B
                                                 1924M 1925M 1925B 1928M 1929M 1929B 1938M 1939M 1939B 1942M 1943M 1943B
                                                 1952M 1953M 1953B 1956M 1957M 1957B 1966M 1967M 1967B 1970M 1971M 1971B
                                                 2036M 2037M 2037B 2040M 2041M 2041B 2088M 2089M 2089B 2092M 2093M 2093B
                                                 2287M 2288M 2288B 2345M 2346M 2346B 2355M 2356M 2356B 2359M 2360M 2360B
                                                 2394M 2395M 2395B 2398M 2399M 2399B 2461M 2462M 2462B 2465M 2466M 2466B
                                                 2494M 2495M 2495B 2513M 2514M 2514B 2523M 2524M 2524B 2527M 2528M 2528B
                                                 2550M 2551M 2551B 2560M 2561M 2561B 2564M 2565M 2565B 2625M 2626M 2626B
                                                 2635M 2636M 2636B 2639M 2640M 2640B 2755M 2756M 2756B 2760M 2761M 2761B
                                                 2770M 2771M 2771B 2812M 2813M 2813B 2821M 2822M 2822B 2863M 2864M 2864B
                                                 2868M 2869M 2869B 2879M 2880M 2880B 2883M 2884M 2884B 2948M 2949M 2949B
                                                 2957M 2958M 2958B 2999M 3000M 3000B 3004M 3005M 3005B 3024M 3025M 3025B
                                                 3028M 3029M 3029B 3038M 3039M 3039B 3050  3052  3052  3052  3235M 3236M
                                                 3236B 3244M 3245M 3245B 3286M 3287M 3287B 3295M 3296M 3296B 3337M 3338M
                                                 3338B 3347M 3348M 3348B 3368M 3369M 3369B 3377M 3378M 3378B 3382M 3383M
                                                 3383B 3435M 3436M 3436B 3444M 3445M 3445B 3630M 3631M 3631B 3639M 3640M
                                                 3640B 3660M 3661M 3661B 3669M 3670M 3670B 3690M 3691M 3691B 3699M 3700M
                                                 3700B 3720M 3721M 3721B 3729M 3730M 3730B 3750M 3751M 3751B 3759M 3760M
                                                 3760B 3764M 3765M 3765B 3776M 3896B 4267M 4268M 4268B 4271M 4272M 4272B
                                                 4289M 4290M 4290B 4293M 4294M 4294B 4329M 4330M 4330B 4464  4466  4466
                                                 4466  4515M 4516M 4516B 4520M 4537  4539  4539  4539  4561M 4562M 4562B
                                                 4570M 4571M 4571B 4591M 4592M 4592B 4608M 4609M 4609B 4656M 4657M 4657B
                                                 4665M 4666M 4666B 4695M 4696M 4696B 4704M 4705M 4705B 4764M 4765M 4765B
                                                 4774M 4775M 4775B 4778M 4779M 4779B 4783M 4953  4955  4955  4955  5167M
                                                 5168M 5168B 5177M 5178M 5178B 5181M 5182M 5182B 5228M 5239M 5240M 5240B
                                                 5251M 5252M 5252B 5290M 5291M 5291B 5303M 5304M 5304B 5315M 5316M 5316B
                                                 5319M 5320M 5320B 5329  5331  5331  5331  5508M 5509M 5509B 5517M 5518M
                                                 5518B 5538M 5539M 5539B 5547M 5548M 5548B 5569M 5570M 5570B 5573M 5574M
                                                 5574B 5672M 5673M 5673B 5748M 5749M 5749B 5769M 5770M 5770B 5779M 5780M
                                                 5780B 5783M 5784M 5784B 5820M 5821M 5821B 5859M 5860M 5860B 5873M 5874M
                                                 5874B 5912M 5913M 5913B 5921M 5922M 5922B 5932M 5933M 5933B 5951M 5952M
                                                 5952B 5961M 5962M 5962B 5965M 5966M 5966B 6085M 6086M 6086B 6096M 6097M
                                                 6097B 6100M 6101M 6101B 6165  6167  6167  6167  6279M 6432M 6433M 6433B
                                                 6436M 6437M 6437B 6637M 6654M 6658M 6719M 6764M 6803M 6876B
 RDABSB        2 00001732 00000001     H    7127 6916B
 READERR1      4 0000108A 00000001     I    5791 5375B
 READERR2      4 00001096 00000001     I    5796 5414B
 READERR3      2 000010CC 00000001     I    5865 5662B
 READSVC       2 00001456 00000001     H    6520 6507B
 REBADRET      4 0000146E 00000001     I    6557 6539B 6554B
 RENAME        2 0000150C 00000001     H    6647 6585B
 REPOSR1       2 0000144C 00000001     H    6496 6487B
1OVAM     (OVAM20) (09:42) (22MAR04) Ordinary Symbol and Literal Cross Reference                                            Page   63
 REPOSR15      2 00001442 00000001     H    6476 6467B
 RESRELWT      4 0000185A 00000001     I    7558 7587B
 RR            5 00000005 00000001 A   #    1048 1578M 1578  3860M 3861M 4078M 4079  4125  4129  4131  4149M 4149  5991M
 R0            0 00000000 FFFFFFFF A   #     700 1574  1584  1904M 2057M 2057  2058M 2289M 2289  2440M 2440  2441M 2491M
                                                 2752M 3031M 3071  4487M 4487  4557  4635M 4635  4636M 4637M 4671M 4671
                                                 4672M 4673M 4678M 4679M 4725M 4726  5088  5224M 5224  5505  5738M 5792M
                                                 5797M 5802M 5929M 6292M 6358M 6358  6384  6401  6445M 6513M 6513  6660
                                                 6816M 6835M 6835  6963M 6994  7098  7162  7210  7281  7308M 7339  7357M
                                                 7379M 7379  7439M 7501M 7501  7514  7528M 7547M 7547
 R1            1 00000001 FFFFFFFF A   #     713 1496M 1525M 1563  1680  1738M 1899M 1905M 2053M 2059  2436M 2442  2490M
                                                 2751M 3030M 3070  3071M 3072  3124M 3134M 3146  3176  3177M 3178  3194
                                                 4151  4489M 4489  4558  4629M 4637  4638M 4667M 4674  4676M 4679  5436
                                                 5437  5437  5437  5484  5648M 5661  5737M 5787M 5791M 5796M 5801M 5865
                                                 5928M 6135  6135  6135  6192M 6193M 6194M 6195  6293M 6293  6299M 6338M
                                                 6338  6454M 6493M 6493  6555  6638  6766  6780M 6801M 6801  6814M 6931M
                                                 6943M 6952M 7003  7006M 7007  7018M 7018  7022M 7035M 7044M 7107  7108M
                                                 7109  7120M 7229M 7229  7247M 7350  7360M 7420  7442M 7480M 7480  7704M
                                                 7806
 R13          13 0000000D FFFFFFFF A   #     869 1582M 2245M 2614M 2725M
 R14          14 0000000E FFFFFFFF A   #     882 2235  2613  2724  5436  5437  5437  5437  5648M 5787M 6135  6135  6135
                                                 6453M 6556  6635M 6639  6652M 6699M 6700M 6700  6713M 6727M 6728M 6728
                                                 6740  6753M 6767  6768M 6769  6933M 6933  6936M 6954M 6954  6958M 7010
                                                 7011M 7012  7045M 7054M 7054  7060M 7065M 7119M 7351  7358M 7421  7440M
 R15          15 0000000F FFFFFFFF A   #     895 1526M 1739M 3035M 3035  4490M 4630M 4631  4726M 5042M 5119  5231  5295
                                                 5405  5485  5681M 5682M 5682  5726  5804  6275  6296M 6297M 6297  6318M
                                                 6318  6448M 6449M 6449  6451  6473M 6473  6557  6634M 6648M 6649M 6649
                                                 6651M 6698M 6758M 6782M 6932M 6953M 7036M 7043M 7121M 7248M 7359M 7441M
                                                 7459M 7459  7705M 7717  7742M 7742  7914M 7914
 SCAN          1 00000000 00000003     T    2167 2167  4828
 SCINIT        1 00000000 00000002     T    2166 2166  4827
 SEGIT         2 00000EE0 00000001     I    5259 5242B
 SEGRET        2 00000ECA 00000001     I    5241 5305B
 SEGSTAT       4 00000A1E 00000001     I    4537 4833  6129
 SEGTIME       4 000009EA 00000001     I    4464 2169  4834  6122
 SEGX          2 000007DC 00000001     I    3886 3852B 3855B
 SENATT        2 000014F4 00000001     H    6622 6590B
 SENBKS        2 000014F4 00000001     H    6631 6600B
 SENCLP        2 000014F4 00000001     H    6625 6594B
 SENCLPO       2 000014F4 00000001     H    6627 6596B
 SENMAX        2 000014F4 00000001     H    6632 6601B
 SENSPI        2 000014F4 00000001     H    6630 6599B
 SENTYPE       2 000014F4 00000001     H    6628 6597B
 SENUIN        2 000014F4 00000001     H    6623 6592B
 SETATT        2 000014F4 00000001     H    6621 6589B
 SETCACHE      2 000017A0 00000001     H    7296 6920B
 SETCLP        2 000014F4 00000001     H    6624 6593B
 SETCLPO       2 000014F4 00000001     H    6626 6595B
 SETCT         2 0000003A 00000001     H    1562 1522B
 SETGRP        2 000016D8 00000001     H    7031 6909B
 SETMODE       2 00001756 00000001     H    7177 6918B
 SETPUSER      2 00001776 00000001     H    7225 6917B
 SETSPI        2 000014F4 00000001     H    6629 6598B
 SETSPU        2 000016D8 00000001     H    7034 6913B
 SETUIN        2 00001594 00000001     H    6774 6591B
 SETUIN1       4 000015A8 00000001     I    6803 6795B
 SNFILE        2 0000166E 00000001     H    6950 6902B
 SNFSPAC       2 000016C4 00000001     H    7017 6904B
 SNFSRC        2 000014F4 00000001     H    6616 6581B
 SNGMEM        2 0000166E 00000001     H    6951 6903B
1OVAM     (OVAM20) (09:42) (22MAR04) Ordinary Symbol and Literal Cross Reference                                            Page   64
 SNGMRET       4 000016B4 00000001     I    7010 7005B
 SNGRPS        2 000016E4 00000001     H    7042 6912B
 SNLSRC        2 000014F4 00000001     H    6617 6582B
 SNNMRC        2 000014F4 00000001     H    6618 6583B
 SNPRIV        2 0000155E 00000001     H    6724 6588B
 SNSTAT        2 00001686 00000001     I    6962 6957B
 SPEC          2 0000137E 00000001     H    6263 6196B 6198B 6450B 6452B 6572B 6891B 6894B 7298B 7595B 7619B 7702B 7720B
                                                 7855B 7877B
 SR            2 00000002 00000001 A   #    1009 1573M 1579M 1609M 1619U 2762M 2870M 3006M 3050  3052  3052  3052  3194M
                                                 3252  3776M 3853M 3854M 3856M 3858  3859M 3859  3882  4036M 4071  4073M
                                                 4074  4100  4123  4124  4127  4128  4223M 4250  4331M 4334M 4335  4432M
                                                 4433M 4446  4464  4466  4466  4466  4520M 4537  4539  4539  4539  4557M
                                                 4605  4631M 4667  4783M 4953  4955  4955  4955  5006M 5010M 5011M 5012M
                                                 5013M 5014M 5015M 5016M 5191M 5192  5194M 5195M 5195  5203U 5228M 5231M
                                                 5241M 5241  5243M 5243  5259  5295M 5329  5331  5331  5331  5656M 5657M
                                                 5658  5659M 5660M 5661  5804M 5828  5988M 5999U 6037M 6165  6167  6167
                                                 6167  6190M 6192  6195  6197  6220B 6279M 6401M 6402  6404M 6405M 6405
                                                 6569M 6571  6575M 6576B 6660M 6661M 6662M 6662  6670U 6886M 6888  6890M
                                                 6892M 6892  6893  6897M 6898B 6955M 6956M 6956  7019M 7020M 7020  7593M
                                                 7594  7596M 7597M 7597  7605U
 STATNDAT      2 000017A4 00000001     H    7303 6935B 6937B 6944B 7021B 7023B 7037B 7122B
 STATOK        4 000015F4 00000001     I    6897 6889B
 STATUS        2 000003BE 00000001     H    2472 2404
 STGRSP        2 000016D8 00000001     H    7033 6911B
 SVCEXIT       2 0000138A 00000001     I    6278 6270B 6558B 7655B
 SVCRET        4 00001386 00000001     I    6275 6383B 6385B 6400B 6422B 6640B 6655B 6659B 6693B 6720B 6765B 6770B 6804B
                                                 6861B 6987B 7008B 7013B 7091B 7110B 7155B 7171B 7203B 7219B 7274B 7289B
                                                 7332B 7349B 7352B 7405B 7422B 7507B 7523B 7558B 7573B 7807B 7838B 7932B
 TASKID        2 000001A4 00000001     H    2070 2191
 TESTRR        2 000014F4 00000001     H    6615 6580B
 TIME          1 00000000 0000000A     T    4853 4853
 TIMER         2 00000418 00000001     H    2577 1813
 TIMINT1       2 0000017A 00000001     H    2018 2189
 TIMINT2       4 00000390 00000001     I    2435 2406
 TR            3 00000003 00000001 A   #    1022 1574M 2888M 2888  2902  2914  3007M 3094M 3106  3177  3201  3401  3537M
                                                 3552M 3561M 3561  3569M 3571  3586M 3586  3592  3851M 3856  3858M 3864M
                                                 3866  3881M 3882M 3883  4074M 4079  4085  4123M 4123  4124  4126M 4126
                                                 4128M 4128  4129  4149  4332M 4333  4334  4434M 4437M 4439  4454M 4454
                                                 4455  4558M 4600  5007M 5008M 5009M 5017  5865M 5881  5989M 6022  6038M
 USERSPAC      2 000017A0 00000001     H    7294 6905B
 VCACC1        6 00000028 FFFFFFED     C    1281 6713  6932  7022  7035  7060  7241  7247
 VCACC2        6 0000002E FFFFFFED     C    1282 6934  6936
 VCCODE        1 00000001 FFFFFFED     X    1222 6569  6780  6814  6886  6963  7004  7308  7348  7439  7672  7693  7874
 VCDATA        1 00000028 FFFFFFED     X    1276 1459  5659  5682  6113  6758  6958  7360  7704  7897
 VCDATAL       2 00000024 FFFFFFED     H    1271 5660  5681  6555M 6648  6699  6769M 6955  7007M 7012M 7019  7045  7109M
                                                 7359  7705  7931M
 VCDEVID       4 00000014 FFFFFFED     F    1267 6291M 6291  6384M 6445  6816  6994M 7098M 7162M 7210M 7281M 7339M 7357
                                                 7434M 7434  7514M 7528  7584  7593  7644
 VCFLAGS       1 00000002 FFFFFFED     R    1226 1230  1235  1240  1245
 VCFNAME      44 00000028 FFFFFFED     C    1278 6299  6651  7120  7121  7192  7442
 VCFNR1       64 00000002 FFFFFFED         1235 6329  6484  6792  7473
 VCFNR15      32 00000002 FFFFFFED         1240 6309  6464  7452  7735
 VCFWAIT     128 00000002 FFFFFFED         1230 6349  6504  6826  7370  7494  7538
 VCH          88 00000000 FFFFFFED     J    1292 1459  4533U 4942U
 VCHLEN        1 00000028 FFFFFFED A   U    1273 1456  1458
 VCHR         11 0000000B 00000001 A   #    1126 4533U 4942U 4970M
 VCHSTART      4 00000000 FFFFFFED     F    1220 1273  5362  5659  5682  5695  6113
 VCJOBACC      6 0000000C FFFFFFED     C    1265 5559  5566  5604  5759  5766
 VCJOBNAM      8 00000004 FFFFFFED     C    1264 4581  4588  5528  5535
1OVAM     (OVAM20) (09:42) (22MAR04) Ordinary Symbol and Literal Cross Reference                                            Page   65
 VCOMEND       8 00000028 FFFFFFED     D    1272 1275  1277  1279  1280  1283  6454  6952  7044  7142
 VCPARM1       4 00000018 FFFFFFED     F    1268 6292  6414  6448  6556M 6634  6638M 6652  6698  6727  6766M 6782  6931
                                                 6943  6953  7003M 7036  7043  7107M 7119  7147  7197  7248  7350M 7358
                                                 7420M 7440  7806M 7821
 VCPARM2       4 0000001C FFFFFFED     F    1269 6296  6453  6635  6639M 6767M 7010M 7065  7152  7351M 7421M 7441
 VCPRIVS       2 00000012 FFFFFFED     C    1266 5613
 VCRETCOD      4 00000020 FFFFFFED     F    1270 6275M 6557M
 VCRFLAGS      1 00000003 FFFFFFED     R    1251 1255  1260  5663M 6199M
 VCRR15Z     128 00000003 FFFFFFED         1255 6391M 6545M 6867M 6993M 7097M 7161M 7209M 7280M 7338M 7411M 7513M 7564M
                                                 7926M
 VCRSPEC      64 00000003 FFFFFFED         1260 6269M
 VCTRAN        1 00000000 FFFFFFED     X    1221 6190
 VERBTABL      2 0000035E 00000001     H    2402 2320
 VMARK         6 000007E4 00000001     I    3895 3894
 VRAGAIN       2 00000986 00000001     H    4336 4456B
 VRATTN        2 000009C8 00000001     H    4429 4374B
 VREAD         4 0000095A 00000001     I    4302 4300
 VREAD         1 00000000 00000006     T    4826 4826
 VRIO          2 000009BC 00000001     H    4393 4373B
 VRRET         4 000009A2 00000001     I    4375 4431B
 VSEG          4 000007A0 00000001     I    3835 3833
 VSEG          1 00000000 00000004     T    2170 2170  4829  6123  7939
 VTATTN        2 000002DC 00000001     H    2202 1870
 VTDUMPB       4 00000310 FFFFFFEC     A    1413 4028M 4073  4236
 VTFATTN       8 00000425 FFFFFFEC         1448 4164
 VTFDSUP      32 00000425 FFFFFFEC         1438 3984  4027M 4183  4222M
 VTFDUMP      16 00000425 FFFFFFEC         1443 3932  4215M
 VTFLAGS       1 00000425 FFFFFFEC     R    1424 1428  1433  1438  1443  1448
 VTIBUF        1 00000316 FFFFFFEC     C    1415 1416  2424  4349  4377
 VTIBUFL       1 00000085 FFFFFFEC A   U    1416 4356
 VTIBUFN       2 00000314 FFFFFFEC     H    1414 2429  4375M
 VTMISSOP      4 00000346 00000001     I    2390 2435B
 VTNOCORE      4 00000942 00000001     I    4285 4021B
 VTOBUF        2 0000039C FFFFFFEC     H    1418 1420  2283M 2283  3854  3860  3861  3883M 3895M 3895  3953  3957  4075
                                                 4078  4121  4138  4199M 4199  4258M 4258  4331  4332  4333M 4335M 4361
                                                 4384M 4384  4432  4433  4434  4446M 4455M
 VTOBUFL       1 00000085 FFFFFFEC A   U    1420 3853  3881
 VTSCANW       4 000002F0 FFFFFFEC     F    1400 1703
 VTSCCB        4 000002F0 FFFFFFEC     F    1401 1412  2308
 VTSETA        4 00000428 FFFFFFEC     F    1451 2260  2375  2740  2762
 VTSET10       4 0000033C 00000001     I    2368 2290B 2328B 2400B 2433B 2470B 2570B
 VTSVA         4 00000470 FFFFFFEC     F    1452 2245  2614  2725
 VWDONE        2 000008D4 00000001     H    4156 3972B
 VWDUMP        2 00000814 00000001     H    3976 3935B
 VWERR         4 000008F8 00000001     I    4207 4153B 4295B
 VWEXIT        2 000008E8 00000001     H    4192 4167B 4251B
 VWFREE        2 000008FC 00000001     H    4210 4122B 4186B
 VWRITE        4 000007EC 00000001     I    3903 3901
 VWRITE        1 00000000 00000005     T    2172 2172  4830  6124  7940
 VW1           4 0000085C 00000001     I    4073 3987B
 VW2           2 0000087E 00000001     I    4085 4076B
 VW4           4 000008AC 00000001     I    4127 4081B
 WRABSB        2 000017A0 00000001     H    7295 6919B
 WRFLNX        2 000014F4 00000001     H    6619 6584B
 WRITERR1      4 000010A2 00000001     I    5801 5706B
 WRSVC         2 000017E8 00000001     H    7386 7373B
 XACTLEN       4 000011B0 00000001     A    6113 5367
 =A(CTPBUFSZ)
               4 000011E4 00000001     A    6120 5042
1OVAM     (OVAM20) (09:42) (22MAR04) Ordinary Symbol and Literal Cross Reference                                            Page   66
 =A(DOSVC)
               4 00001214 00000001     A    6128 5672
 =A(EXITBASE)
               4 00000C48 00000001     A    4825 2221  2599  2710
 =A(GETXACT)
               4 00000218 00000001     A    2173 1952
 =A(INITPATH)
               4 00000204 00000001     A    2168 1853
 =A(INITPATH)
               4 0000121C 00000001     A    6130 6085
 =A(L'CT)      4 000001F0 00000001     A    2163 1496
 =A(L'CT)      4 00000C94 00000001     A    4840 3031
 =A(OVAM)      4 00000210 00000001     A    2171 1899
 =A(PRCORE)
               4 00000C98 00000001     A    4841 3038
 =A(SEGSTAT)
               4 00000C70 00000001     A    4833 2494  2755
 =A(SEGSTAT)
               4 00001218 00000001     A    6129 5932
 =A(SEGTIME)
               4 00000208 00000001     A    2169 1888  1928  1956
 =A(SEGTIME)
               4 00000C74 00000001     A    4834 2513  2550  2625  4561
 =A(SEGTIME)
               4 000011EC 00000001     A    6122 5167  5508  5951
 =A(1000)      4 00000CA8 00000001     A    4845 4069  4070  4148  4673
 =A(120*38400)
               4 000001F8 00000001     A    2165 1652
 =A(128)       4 00001930 00000001     A    7941 7717
 =A(133-4-4)
               4 00000CAC 00000001     A    4846 4080
 =A(16)        4 00000C8C 00000001     A    4838 2902
 =A(16)        4 000011E8 00000001     A    6121 5119
 =A(26)        4 00000CD4 00000001     A    4854 4672
 =A(384)       4 00000CCC 00000001     A    4852 4636
 =A(38400)
               4 0000021C 00000001     A    2174 2058
 =A(38400)
               4 00000C60 00000001     A    4831 2441
 =A(600*38400)
               4 000001F4 00000001     A    2164 1651
 =A(999)       4 00000CA4 00000001     A    4844 4067
 =C'   '       3 00000D49 00000001     C    4866 3240
 =C'  |'       3 00000D5F 00000001     C    4868 3343
 =C'  '        2 00000CE8 00000001     C    4857 3440
 =C' |'        2 00000CEA 00000001     C    4858 3725
 =C' '         1 00000D2F 00000001     C    4864 2817  2953  3635  3665  3695
 =C' BYTES ALL CONTAIN '
              19 00000D4C 00000001     C    4867 3291
 =C' Ending, '
               9 000012FB 00000001     C    6149 5928
 =C' ELAPSED, '
              10 00000CEC 00000001     C    4859 4661
 =C' EXECUTING, '
              12 00000C64 00000001     C    4832 2490
 =C' FILE I/O''S'
              11 00000D91 00000001     C    4872 4770
 =C' NOT VALID'
              10 0000124C 00000001     C    6137 5775
1OVAM     (OVAM20) (09:42) (22MAR04) Ordinary Symbol and Literal Cross Reference                                            Page   67
 =C' OVAM ERROR '
              12 00000C78 00000001     C    4835 2751
 =C' SECONDS CPU, '
              14 00000CF6 00000001     C    4860 4700
 =C' STARTING, ACCOUNT= '
              20 00001200 00000001     C    6127 5543
 =C'|'         1 00000D62 00000001     C    4869 3373  3755
 =C'*? '       3 00000D8E 00000001     C    4871 4325
 =C'-'         1 00001291 00000001     C    6143 5247
 =C', VCDATAL+HEADER = '
              19 000012E8 00000001     C    6148 5917
 =C': ILLEGAL STRING'
              16 00000C18 00000001     C    4823 2351
 =C'ACCOUNT '
               8 000011C8 00000001     C    6117 5744
 =C'ATTACH RETURN '
              14 00001224 00000001     C    6133 5235
 =C'ATTACH WAIT RETURN '
              19 00001292 00000001     C    6144 5299
 =C'DEVICE ID TOO BIG FOR OVAM'
              26 0000193A 00000001     C    7945 6428
 =C'DUMP ABORTED'
              12 00000CB8 00000001     C    4849 4263
 =C'Entering WAIT for transactions.'
              31 0000024C 00000001     C    2177 1962
 =C'GENERAL PURPOSE REGISTERS'
              25 00000D30 00000001     C    4865 2875
 =C'INSUFFICIENT USER MEMORY TO PROCESS COMMAND'
              43 00000D63 00000001     C    4870 4285
 =C'JOB '      4 00000CC8 00000001     C    4851 4566
 =C'JOB '      4 000011FC 00000001     C    6126 5513
 =C'LENGTH MISMATCH - READ LEN = '
              29 000012CB 00000001     C    6147 5869
 =C'MISSING OPERAND'
              15 00000D04 00000001     C    4861 2390
 =C'No interval specified - default assumed'
              39 0000026B 00000001     C    2178 2032
 =C'Not enough core for OVAM'
              24 000001C8 00000001     C    2160 1525
 =C'NO ID SPECIFIED - DEFAULT ASSUMED'
              33 00000292 00000001     C    2179 2084
 =C'OK'        2 00000CD8 00000001     C    4855 2457
 =C'OVAM exiting to Wylbur'
              22 00001256 00000001     C    6138 5957
 =C'OVAM Idle'
               9 00000D26 00000001     C    4863 2556  2631
 =C'OVAM Idle'
               9 00001288 00000001     C    6142 5173
 =C'OVAM Initialization complete.'
              29 0000022F 00000001     C    2176 1934
 =C'OVAM WORK AREA'
              14 00000CDA 00000001     C    4856 3020
 =C'Parm scan error'
              15 00000220 00000001     C    2175 1738
 =C'PATH ID TOO HIGH'
              16 000011B8 00000001     C    6116 5311
 =C'PATH READ ERROR '
              16 000011D0 00000001     C    6118 5791
 =C'PATH READ WAIT ERROR '
1OVAM     (OVAM20) (09:42) (22MAR04) Ordinary Symbol and Literal Cross Reference                                            Page   68
              21 000012A5 00000001     C    6145 5796
 =C'PATH WRITE ERROR '
              17 000012BA 00000001     C    6146 5801
 =C'PATH WRITE WAIT ERROR '
              22 00001236 00000001     C    6136 5737
 =C'PSW='      4 00000C84 00000001     C    4836 2766
 =C'REINITIALIZATION ERROR'
              22 0000126C 00000001     C    6139 6092
 =C'TRANSMISSION ERROR. RETYPE LINE.'
              32 00000C28 00000001     C    4824 4396
 =C'Version='
               8 000001E8 00000001     C    2162 1893
 =C'WAITING FOR ENQUEUE'
              19 00000D13 00000001     C    4862 2519
 =CL3'OVA'
               3 00001282 00000001     C    6140 4986
 =CL3'VAM'
               3 00001285 00000001     C    6141 4989
 =CL8'OVAM CT'
               8 000001E0 00000001     C    2161 1581
 =F'16'        4 00000CA0 00000001     F    4843 3178
 =H'-4'        2 00001232 00000001     H    6134 5405  5726
 =V(BTD)       4 00000C90 00000001     V    4839 2931  4747
 =V(BTD)       4 000011F8 00000001     V    6125 5273  5842  5895
 =V(BTX)       4 00000C88 00000001     V    4837 2795  2846  2982  3218  3269  3320  3418  3468  3490  3512  3534
 =V(FMTTIME)
               4 00000CC4 00000001     V    4850 4493
 =V(SCAN)      4 00000200 00000001     V    2167 1723
 =V(SCAN)      4 00000C54 00000001     V    4828 2326
 =V(SCINIT)
               4 000001FC 00000001     V    2166 1706
 =V(SCINIT)
               4 00000C50 00000001     V    4827 2311
 =V(TIME)      4 00000CD0 00000001     V    4853 4641
 =V(VREAD)
               4 00000C4C 00000001     V    4826 2287
 =V(VSEG)      4 0000020C 00000001     V    2170 1897  1919  1938  1966  2036  2088
 =V(VSEG)      4 00000C58 00000001     V    4829 2345  2355  2394  2461  2523  2560  2635  2770  2812  2821  2863  2879
                                                 2948  2957  2999  3024  3235  3244  3286  3295  3337  3347  3368  3377
                                                 3435  3444  3630  3639  3660  3669  3690  3699  3720  3729  3750  3759
                                                 4267  4289  4329  4515  4570  4591  4608  4656  4665  4695  4704  4764
                                                 4774
 =V(VSEG)      4 000011F0 00000001     V    6123 5177  5239  5251  5290  5303  5315  5517  5538  5547  5569  5748  5769
                                                 5779  5820  5859  5873  5912  5921  5961  6096
 =V(VSEG)      4 00001928 00000001     V    7939 6432
 =V(VWRITE)
               4 00000214 00000001     V    2172 1924  1942  1970  2040  2092
 =V(VWRITE)
               4 00000C5C 00000001     V    4830 2359  2398  2465  2527  2564  2639  2760  2868  2883  3004  3028  3382
                                                 3764  4271  4293  4778
 =V(VWRITE)
               4 000011F4 00000001     V    6124 5181  5319  5573  5783  5965  6100
 =V(VWRITE)
               4 0000192C 00000001     V    7940 6436
 =X'FC000000'
               4 000011E0 00000001     X    6119 5009
 =X'FFFFFFF8'
               4 00000CB4 00000001     X    4848 4152
 =X'00020000'
1OVAM     (OVAM20) (09:42) (22MAR04) Ordinary Symbol and Literal Cross Reference                                            Page   69
               4 00000CB0 00000001     X    4847 4086
 =XL4'FFFFF0'
               4 00000C9C 00000001     X    4842 3095
 =Y((NFILCD-FFILCD-4)/4)
               2 00001956 00000001     Y    7947 6571
 =Y((R1+1-(R14)+16*((R14)/(R1+1))/((R14)/(R1+1)))*4)
               2 00001234 00000001     Y    6135 5647  5786
 =Y(CTNODTS)
               2 00001220 00000001     Y    6131 5192
 =Y(CTNODTS)
               2 00001936 00000001     Y    7943 6402  7594
 =Y(CTODTSIZ)
               2 00001222 00000001     Y    6132 5194
 =Y(CTODTSIZ)
               2 00001938 00000001     Y    7944 6404  6661  7596
 =Y(HISTATUS)
               2 0000195E 00000001     Y    7951 6893
 =Y(OSVHIGH)
               2 00001934 00000001     Y    7942 6197
 =Y(PRIVSTAT)
               2 0000195A 00000001     Y    7949 6888
 =Y(100)       2 0000195C 00000001     Y    7950 6890
 =Y(14)        2 00001962 00000001     Y    7953 7108
 =Y(4096)      2 00001954 00000001     Y    7946 6451  6740  6753
 =Y(56)        2 00001960 00000001     Y    7952 7006
 =Y(7)         2 00001958 00000001     Y    7948 6768  7011
 =Y(8)         2 00001964 00000001     Y    7954 7931

1OVAM     (OVAM20) (09:42) (22MAR04) Macro and Copy Code Source Summary                                                     Page   70
- Con Source                                        Volume    Members                        HLASM R4.0  2004/03/22 09.42
0     PRIMARY INPUT                                           CSECT    DROP     END      EX       LTORG    POP
                                                              PRINT    PUSH     START    USING
   L2 WYL.GG.SYS.MACLIB                             SYSB05    $BC      $BFLKUP  $BV      $CCLKUP  $CRS     $CSS     $L
                                                              $LA      $LBLAD   $LEXP    $LOR     $REL     $RGLKUP
                                                              $USLKUP  ACALL    BASE     BEGIN    CLEAR    CSECT    DATA
                                                              DECR     DEFCC    DEX      DROP     ELSE     END      EX
                                                              FLAG     GEN      HIBAL    IDENT    IF       INCR
                                                              LABEL    LC       LCALL    LOOP     LS       LT
                                                              LTORG    L4       NEXT     POP      PRINT    PUSH
                                                              RECORD   REG      REGS     SET      SETMSG   START    ST4
                                                              SYSLR    SYSQS    USING    VCALL    WHILE    WITH
   L3 WYL.GG.ORV.BC.MACLIB                          SYSB02    BTD      BTX      GENCODE  GENCONT  GENLINE  GENSTAT
                                                              GENVAM   SCAN     SCANCB   SCINIT   SCKW     SCRTN
                                                              SEGDC    SEGHX    VCHEAD   VENTER   VEXIT    VPOP
                                                              VPUSH    VREAD    VREST    VSAVE    VSEG     VWRITE
                                                              XCALL
   L4 SYS3.ORVYL.UMACLIB                            SYSB02    ATTACH   CALLSYS  COMMAND  CONTROL  DETACH   PAUSE    READ
                                                              RELEASE  RESERVE  SENSE    STATUS   SYSKWT   VSET     WAIT
                                                              WRITE    XIT

1         (OVAM20) (09:42) (22MAR04) General Purpose Register Cross Reference                                               Page   71
- Register  References (M=modified, B=branch, U=USING, D=DROP, N=index)                      HLASM R4.0  2004/03/22 09.42
0    0(0)     983U  984D 1504M 1532M 1574  1584  1593M 1660M 1695M 1695  1696M 1745M 1785M 1806M 1832M 1863M 1894M 1903M
             1903  1904M 1935M 1963M 1977M 2033M 2057M 2057  2058M 2085M 2253M 2274M 2289M 2289  2352M 2368M 2391M 2417M
             2417  2440M 2440  2441M 2458M 2491M 2520M 2557M 2620M 2632M 2648M 2670M 2733M 2752M 2767M 2785M 2818M 2836M
             2876M 2921M 2954M 2972M 3021M 3031M 3071  3208M 3241M 3259M 3292M 3310M 3344M 3365M 3374M 3408M 3441M 3458M
             3627M 3636M 3657M 3666M 3687M 3696M 3717M 3726M 3747M 3756M 3835  3851  3887M 3946M 4000M 4042M 4068M 4068
             4069M 4070M 4093M 4231M 4264M 4286M 4326M 4342M 4376M 4487M 4487  4512M 4557  4567M 4588M 4605M 4617M 4635M
             4635  4636M 4637M 4662M 4671M 4671  4672M 4673M 4678M 4679M 4701M 4713M 4725M 4726  4737M 4737  4771M 5064M
             5088  5135M 5174M 5224M 5224  5236M 5248M 5263M 5263  5300M 5312M 5354M 5355M 5355  5436  5445M 5472M 5493M
             5505  5514M 5535M 5544M 5566M 5597M 5648M 5688M 5738M 5745M 5766M 5776M 5787M 5792M 5797M 5802M 5832M 5832
             5870M 5885M 5885  5918M 5929M 5958M 6022M 6048M 6069M 6093M 6292M 6358M 6358  6384  6401  6429M 6445M 6513M
             6513  6660  6816M 6835M 6835  6962M 6962  6963M 6994  7073M 7098  7135M 7162  7185M 7210  7260M 7281  7307M
             7307  7308M 7339  7357M 7379M 7379  7438M 7438  7439M 7501M 7501  7514  7528M 7547M 7547  7584M 7644M 7760M
             7816M 7890M
     1(1)     979U 1496M 1515  1525M 1563  1600M 1667M 1680  1688M 1715M 1738M 1789M 1789  1813M 1839M 1870M 1893M 1899M
             1905M 1934M 1962M 2032M 2053M 2058M 2059  2084M 2260M 2320M 2351M 2375M 2390M 2424M 2425M 2425  2436M 2441M
             2442  2457M 2490M 2519M 2556M 2631M 2653M 2674M 2674  2740M 2751M 2766M 2792M 2817M 2843M 2875M 2928M 2953M
             2979M 3020M 3030M 3070  3071M 3072  3124M 3134M 3146  3176  3177M 3178  3194  3215M 3240M 3266M 3291M 3317M
             3343M 3358M 3373M 3415M 3440M 3465M 3487M 3509M 3531M 3620M 3635M 3650M 3665M 3680M 3695M 3710M 3725M 3740M
             3755M 3835  3887M 3953M 4007M 4028  4036  4049M 4067M 4069M 4070M 4071  4100M 4101M 4101  4147M 4148M 4151
             4236M 4263M 4285M 4325M 4349M 4375  4376  4377M 4396M 4430M 4430  4489M 4489  4505M 4558  4566M 4581M 4600M
             4629M 4636M 4637  4638M 4661M 4667M 4672M 4673M 4674  4676M 4677M 4679  4700M 4744M 4770M 5071M 5140M 5173M
             5235M 5247M 5270M 5299M 5311M 5362M 5436  5449M 5449  5484  5513M 5528M 5543M 5559M 5604M 5648M 5661  5695M
             5737M 5744M 5759M 5775M 5787M 5791M 5796M 5801M 5839M 5865  5869M 5892M 5917M 5928M 5957M 6052M 6052  6073M
             6073  6092M 6192M 6193M 6194M 6195  6293M 6293  6299M 6338M 6338  6428M 6454M 6493M 6493  6555  6638  6766
             6777D 6779M 6779  6780M 6781U 6801M 6801  6811D 6813M 6813  6814M 6815U 6931M 6943M 6952M 7003  7006M 7007
             7018M 7018  7022M 7035M 7044M 7107  7108M 7109  7120M 7142M 7192M 7229M 7229  7247M 7350  7360M 7420  7442M
             7480M 7480  7704M 7806  7821M 7897M
     2(2)     975U 1573M 1579M 1609M 1619U 1642U 2762M 2870M 3006M 3050  3194M 3252  3776M 3835  3853M 3854M 3856M 3858
             3859M 3859  3882  3887M 3903  4036M 4071  4073M 4074  4100N 4123N 4124  4127  4128N 4203M 4223M 4250  4277M
             4302  4331M 4334M 4335  4388M 4432M 4433M 4446  4464  4520M 4537  4557M 4605  4631M 4667  4783M 4953  5006M
             5010M 5011M 5012M 5013M 5014M 5015M 5016M 5191M 5192  5194M 5195M 5195N 5228M 5231M 5241M 5241  5243M 5243
             5259  5295M 5329  5656M 5657M 5658  5659M 5660M 5661  5804M 5828  5988M 5999U 6037M 6165  6187D 6189M 6189
             6190M 6192  6195  6197  6220N 6279M 6401M 6402  6404M 6405M 6405N 6566D 6568M 6568  6569M 6571  6575M 6576N
             6660M 6661M 6662M 6662N 6883D 6885M 6885  6886M 6888  6890M 6892M 6892N 6893  6897M 6898N 6955M 6956M 6956
             7019M 7020M 7020  7593M 7594  7596M 7597M 7597N
     3(3)     971U 1574M 1579M 2888M 2888  2902  2914  3007M 3050  3094M 3106  3177  3201  3401  3537M 3552M 3561M 3561
             3569M 3571  3586M 3586N 3592  3776M 3835  3851M 3856  3858M 3864M 3866  3881M 3882M 3883  3887M 3903  4074M
             4079  4085  4123M 4123  4124  4126M 4126  4128M 4128  4129  4149N 4203M 4277M 4302  4332M 4333  4334  4388M
             4434M 4437M 4439  4454M 4454  4455  4464  4520M 4537  4558M 4600  4783M 4953  5007M 5008M 5009M 5010M 5012M
             5014M 5016M 5017  5228M 5329  5865M 5881  5989M 6022  6038M 6165  6279M
     4(4)     967U 1579M 3050  3093M 3094  3095M 3106  3124  3537  3766M 3767  3776M 3835  3887M 3903  4079M 4080  4125M
             4127  4203M 4277M 4302  4388M 4464  4520M 4537  4783M 4953  5228M 5329  5990M 6038  6165  6279M
     5(5)     963U 1578M 1578  1579M 3050  3776M 3835  3860M 3861M 3887M 3903  4078M 4079N 4125  4129  4131  4149M 4149
             4203M 4277M 4302  4388M 4464  4520M 4537  4783M 4953  5228M 5329  5991M 6038  6165  6279M
     6(6)     959U 3050  3776M 3835  3887M 3903  4203M 4277M 4302  4388M 4464  4520M 4537  4783M 4953  5228M 5329  6165
             6279M
     7(7)     955U 1484M 1494U 2137U 2205M 2215U 2221M 2230U 2233U 2580M 2590U 2593U 2599M 2608U 2611U 2691M 2701U 2704U
             2710M 2719U 2722U 3050  3055M 3065U 3068U 3776M 3805U 3835  3839M 3849U 3887M 3903  3908M 3918U 3921U 4203M
             4277M 4302  4307M 4317U 4320U 4388M 4464  4469M 4479U 4482U 4520M 4537  4542M 4552U 4555U 4783M 4902U 4953
             4958M 4968U 5228M 5329  5334M 5344U 5347U 6165  6170M 6180U 6183U 6279M
     8(8)     951U 3050  3051M 3775  3776M 3835  3836M 3886  3887M 3903  3904M 4202  4203M 4276  4277M 4302  4303M 4387
             4388M 4464  4465M 4519  4520M 4537  4538M 4782  4783M 4953  4954M 5227  5228M 5329  5330M 6165  6166M 6278
             6279M
     9(9)     947U 1853M 1854M 1854B 1888M 1889M 1889B 1897M 1898M 1898B 1919M 1920M 1920B 1924M 1925M 1925B 1928M 1929M
             1929B 1938M 1939M 1939B 1942M 1943M 1943B 1952M 1953M 1953B 1956M 1957M 1957B 1966M 1967M 1967B 1970M 1971M
1         (OVAM20) (09:42) (22MAR04) General Purpose Register Cross Reference                                               Page   72
             1971B 2036M 2037M 2037B 2040M 2041M 2041B 2088M 2089M 2089B 2092M 2093M 2093B 2287M 2288M 2288B 2345M 2346M
             2346B 2355M 2356M 2356B 2359M 2360M 2360B 2394M 2395M 2395B 2398M 2399M 2399B 2461M 2462M 2462B 2465M 2466M
             2466B 2494M 2495M 2495B 2513M 2514M 2514B 2523M 2524M 2524B 2527M 2528M 2528B 2550M 2551M 2551B 2560M 2561M
             2561B 2564M 2565M 2565B 2625M 2626M 2626B 2635M 2636M 2636B 2639M 2640M 2640B 2755M 2756M 2756B 2760M 2761M
             2761B 2770M 2771M 2771B 2812M 2813M 2813B 2821M 2822M 2822B 2863M 2864M 2864B 2868M 2869M 2869B 2879M 2880M
             2880B 2883M 2884M 2884B 2948M 2949M 2949B 2957M 2958M 2958B 2999M 3000M 3000B 3004M 3005M 3005B 3024M 3025M
             3025B 3028M 3029M 3029B 3038M 3039M 3039B 3050  3235M 3236M 3236B 3244M 3245M 3245B 3286M 3287M 3287B 3295M
             3296M 3296B 3337M 3338M 3338B 3347M 3348M 3348B 3368M 3369M 3369B 3377M 3378M 3378B 3382M 3383M 3383B 3435M
             3436M 3436B 3444M 3445M 3445B 3630M 3631M 3631B 3639M 3640M 3640B 3660M 3661M 3661B 3669M 3670M 3670B 3690M
             3691M 3691B 3699M 3700M 3700B 3720M 3721M 3721B 3729M 3730M 3730B 3750M 3751M 3751B 3759M 3760M 3760B 3764M
             3765M 3765B 3776M 3777B 3835  3887M 3888B 3896B 3903  4203M 4205B 4267M 4268M 4268B 4271M 4272M 4272B 4277M
             4279B 4289M 4290M 4290B 4293M 4294M 4294B 4302  4329M 4330M 4330B 4388M 4390B 4464  4515M 4516M 4516B 4520M
             4521B 4537  4561M 4562M 4562B 4570M 4571M 4571B 4591M 4592M 4592B 4608M 4609M 4609B 4656M 4657M 4657B 4665M
             4666M 4666B 4695M 4696M 4696B 4704M 4705M 4705B 4764M 4765M 4765B 4774M 4775M 4775B 4778M 4779M 4779B 4783M
             4784B 4953  5167M 5168M 5168B 5177M 5178M 5178B 5181M 5182M 5182B 5228M 5229B 5239M 5240M 5240B 5251M 5252M
             5252B 5290M 5291M 5291B 5303M 5304M 5304B 5315M 5316M 5316B 5319M 5320M 5320B 5329  5508M 5509M 5509B 5517M
             5518M 5518B 5538M 5539M 5539B 5547M 5548M 5548B 5569M 5570M 5570B 5573M 5574M 5574B 5672M 5673M 5673B 5748M
             5749M 5749B 5769M 5770M 5770B 5779M 5780M 5780B 5783M 5784M 5784B 5820M 5821M 5821B 5859M 5860M 5860B 5873M
             5874M 5874B 5912M 5913M 5913B 5921M 5922M 5922B 5932M 5933M 5933B 5951M 5952M 5952B 5961M 5962M 5962B 5965M
             5966M 5966B 6085M 6086M 6086B 6096M 6097M 6097B 6100M 6101M 6101B 6165  6279M 6280B 6432M 6433M 6433B 6436M
             6437M 6437B 6637M 6654M 6658M 6719M 6764M 6803M 6876B
    10(A)     943U 1563M 1571U 1573  1583  1821  1847  1882  2128U 2235M 2243U 2613M 2724M 3030  3796U 3828U 4893U 4933U
    11(B)     939U 4533U 4888U 4942U 4970M
    12(C)     935U
    13(D)     931U 1582M 2245M 2614M 2725M 3050  3051  3052M 3052  3775M 3776  3835  3836  3886M 3887  3903  3904  3905M
             3905  4202M 4203  4276M 4277  4302  4303  4304M 4304  4387M 4388  4464  4465  4466M 4466  4519M 4520  4537
             4538  4539M 4539  4782M 4783  4953  4954  4955M 4955  5227M 5228  5329  5330  5331M 5331  5436  5437M 5437
             5647M 5648  5786M 5787  6165  6166  6167M 6167  6278M 6279
    14(E)     927U 1706M 1707M 1707B 1723M 1724M 1724B 1821M 1847M 1882M 1999B 2014B 2048B 2066B 2100B 2112B 2235  2311M
             2312M 2312B 2326M 2327M 2327B 2449B 2613  2724  2795M 2796M 2796B 2846M 2847M 2847B 2931M 2932M 2932B 2982M
             2983M 2983B 3218M 3219M 3219B 3269M 3270M 3270B 3320M 3321M 3321B 3418M 3419M 3419B 3468M 3469M 3469B 3490M
             3491M 3491B 3512M 3513M 3513B 3534M 3535M 3535B 4087M 4087  4361M 4493M 4494M 4494B 4641M 4642M 4642B 4747M
             4748M 4748B 5083M 5273M 5274M 5274B 5371M 5371  5436  5648M 5787M 5842M 5843M 5843B 5895M 5896M 5896B 6379M
             6379  6453M 6556  6635M 6639  6652M 6699M 6700M 6700  6713M 6727M 6728M 6728  6740  6753M 6767  6768M 6769
             6933M 6933  6936M 6954M 6954  6958M 7010  7011M 7012  7045M 7054M 7054  7060M 7065M 7119M 7152M 7351  7358M
             7421  7440M
    15(F)     923U 1515M 1526M 1674M 1703M 1739M 1877M 2308M 2429M 2778M 2829M 2914M 2965M 3035M 3035  3201M 3252M 3303M
             3401M 3451M 3475M 3497M 3519M 3957M 4014M 4077M 4077  4085M 4086M 4152M 4173M 4204M 4204  4207M 4223  4243M
             4250M 4273M 4278M 4278  4356M 4389M 4389  4397M 4490M 4630M 4631  4726M 5042M 5119  5231  5259M 5295  5367M
             5405  5436  5485  5610D 5612M 5612  5613M 5614U 5648M 5681M 5682M 5682  5726  5787M 5804  5828M 5881M 6275
             6296M 6297M 6297  6318M 6318  6448M 6449M 6449  6451  6473M 6473  6557  6634M 6648M 6649M 6649  6651M 6698M
             6758M 6782M 6932M 6953M 7036M 7043M 7121M 7147M 7197M 7248M 7359M 7441M 7459M 7459  7705M 7717  7742M 7742
             7914M 7914

1OVAM     (OVAM20) (09:42) (22MAR04) Diagnostic Cross Reference and Assembler Summary                                       Page   73
-                                                                                            HLASM R4.0  2004/03/22 09.42
0     No Statements Flagged in this Assembly
 HIGH LEVEL ASSEMBLER, 5696-234, RELEASE 4.0, PTF UQ57391
0SYSTEM: OS/390 02.10.00            JOBNAME: PJG#OVAM    STEPNAME: ASM        PROCSTEP: (NOPROC)
0Datasets Allocated for this Assembly
  Con DDname   Dataset Name                                 Volume  Member
   P1 SYSIN    SYS04082.T094241.RA000.PJG#OVAM.INPUT.H01    SCR101
   L1 SYSLIB   SYS3.DUMMYMAC                                SYSB02
   L2          WYL.GG.SYS.MACLIB                            SYSB05
   L3          WYL.GG.ORV.BC.MACLIB                         SYSB02
   L4          SYS3.ORVYL.UMACLIB                           SYSB02
   L5          SYS3.IS.MACLIB                               SYSB05
      SYSLIN   WYL.GG.PJG.OBJ                               SYSB05  OVAM
      SYSPRINT SYS04082.T094241.RA000.PJG#OVAM.PRINT.H01    SCR100
      SYSTERM  GG$PJG.PJG#OVAM.JOB05951.D0000103.?

    7812K allocated to Buffer Pool,         1221K would be required for this to be an In-Storage Assembly
    1409 Primary Input Records Read         3568 Library Records Read                  0 Work File Reads
       0 ASMAOPT Records Read               4427 Primary Print Records Written         0 Work File Writes
     141 Punch Records Written                 0 ADATA Records Written
0Assembly Start Time: 09.42.43 Stop Time: 09.42.47 Processor Time: 00.00.01.6234
 Return Code 000
