1                        J E S 2  J O B  L O G  --  S Y S T E M  S Y S B  --  N O D E  R L G
0
 09.39.37 JOB05935 ---- MONDAY,    22 MAR 2004 ----
 09.39.37 JOB05935  ICH70001I GG$PJG   LAST ACCESS AT 09:39:17 ON MONDAY, MARCH 22, 2004
 09.39.37 JOB05935  $HASP373 PJG#FSRV STARTED - INIT 3    - CLASS E - SYS SYSB
 09.39.37 JOB05935  ***  HCMD      STEP $$QUIET
 09.39.37 JOB05935  PURGE * Q=OUTPUT MULTIPLE
 09.39.37 JOB05935  JOB PJG#FSRV NOT IN OUTPUT QUEUE
 09.39.38 JOB05935  PJG#FSRV.$$QUIET .         RC=0008 TapeIO=0000 DiskIO=0000 CPU=  .01s Elapsed=77.36s
 09.39.38 JOB05935  PJG#FSRV.$CND    .         RC=Zero TapeIO=0000 DiskIO=0002 CPU=  .01s Elapsed=78.45s
 09.39.38 JOB05935  PJG#FSRV.$UNP    .         RC=Zero TapeIO=0000 DiskIO=0022 CPU=  .05s Elapsed=78.60s
 09.39.46 JOB05935  PJG#FSRV.ASM     .         RC=Zero TapeIO=0000 DiskIO=0467 CPU= 2.95s Elapsed=78.86s
 09.39.47 JOB05935  PJG#FSRV.$EDIT   .         RC=Zero TapeIO=0000 DiskIO=0174 CPU=  .67s Elapsed=86.50s
 09.39.47 JOB05935  PJG#FSRV Ended.  Name=Module: FILESERV               Total CPU= 3.69s Elapsed=77.36s
 09.39.47 JOB05935
 09.39.47 JOB05935  Execution charges   Priority=Standard   Block=Day
 09.39.47 JOB05935
 09.39.47 JOB05935  CPU Usage          67.87          $42.07   Standard Processing Unit Equivalent
 09.39.47 JOB05935                                   =======
 09.39.47 JOB05935                                    $42.07   Total Job execution charge
 09.39.47 JOB05935
 09.39.47 JOB05935  See back separator page for print charges
 09.39.47 JOB05935
 09.39.47 JOB05935  $HASP395 PJG#FSRV ENDED  ASM=0
1        1 //PJG#FSRV JOB PJG$GG,'Module: FILESERV',TIME=1,MSGCLASS=C              JOB05935
           /*JOBPARM HOLD=OUTPUT,LINES=50,CHARS=TN15,NOTIFY=YES
         2 //       EXEC PURGEOLD
         3 XXPURGEOLD PROC
           XX*
           XX* This proc is maintained by Jim Stosick
           XX*
         4 XX$$QUIET  EXEC PGM=HCMDX,PARM='PURGE * Q=OUTPUT MULTIPLE',
           XX         ACCT=(PURGEOLD,SYS3)
         5 //$CND   EXEC PGM=BILBO,REGION=512K,PARM='RECS=100'
         6 //STEPLIB  DD DSN=WYL.GG.ORV.LINKLIB,DISP=SHR
         7 //SYSPRINT DD SYSOUT=$
         8 //SYSUT1   DD DSN=WYL.GG.PJG.OBJ,DISP=OLD
         9 //SYSUT2   DD DSN=WYL.GG.PJG.OBJ,DISP=OLD
        10 //SYSIN    DD DUMMY
        11 //$UNP   EXEC PGM=WUNPRESS,PARM='NUM'
        12 //SYSPRINT DD SYSOUT=$
        13 //SYSUT1   DD DSN=WYL.GG.ORV.SOURCE(FILESERV),DISP=SHR
        14 //SYSUT2   DD DSN=&&INPUT,DISP=(,PASS),UNIT=SYSDA,
           //            SPACE=(TRK,(25,25),RLSE),DCB=CARD
        15 //ASM    EXEC PGM=ASMA90,REGION=8M,COND=(0,NE,$UNP),
           //            PARM=('SYSPARM(FILESERV),TERM,LANG(EN),OBJ',
           //          'LC(32500),XREF(SHORT),NODECK,NORLD,NODX,NOUS')
           //*STEPLIB  DD DSN=SYS1.SASMMOD1,DISP=SHR
        16 //SYSLIB   DD DSN=SYS3.DUMMYMAC,DISP=SHR,DCB=BLKSIZE=27920
        17 //         DD DSN=WYL.GG.ORV.MACLIB,DISP=SHR
        18 //         DD DSN=WYL.GG.SYS.MACLIB,DISP=SHR
        19 //SYSUT1   DD DSN=&&SYSUT1,UNIT=VIO,DISP=(,DELETE),
           //            SPACE=(4088,(500,250),,CONTIG,ROUND)
        20 //SYSTERM  DD SYSOUT=$
        21 //SYSPRINT DD DSN=&&PRINT,UNIT=SYSDA,DISP=(,PASS),
           //            SPACE=(6650,(250,250),RLSE),
           //            DCB=(BLKSIZE=6650,LRECL=133,RECFM=FB)
        22 //SYSLIN   DD DSN=WYL.GG.PJG.OBJ(FILESERV),DISP=OLD
        23 //SYSUDUMP DD SYSOUT=A
        24 //SYSIN    DD DSN=&&INPUT,DISP=(OLD,DELETE)
        25 //$EDIT  EXEC PGM=ASMEDIT,REGION=1M,
           //            COND=EVEN,PARM='STMT,DATA'
        26 //STEPLIB  DD DSN=WYL.GG.SYS.LINKLIB,DISP=SHR
        27 //ASMOUT   DD DSN=&&PRINT,DISP=(OLD,DELETE)
        28 //SYSPRINT DD SYSOUT=A
        29 //SYSUDUMP DD SYSOUT=A
1 STMT NO. MESSAGE
         2 IEFC001I PROCEDURE PURGEOLD WAS EXPANDED USING SYSTEM LIBRARY SYS3.BETAPROC
        14 IGD01010I STORCLAS= TEMP STORGROUP =
        14 IGD01010I STORGRP=VIO ASSIGNED.
        19 IGD01010I STORCLAS= TEMP STORGROUP =
        19 IGD01010I STORGRP=VIO ASSIGNED.
        21 IGD01010I STORCLAS= TEMP STORGROUP =
        21 IGD01010I STORGRP=VIO ASSIGNED.
 ICH70001I GG$PJG   LAST ACCESS AT 09:39:17 ON MONDAY, MARCH 22, 2004
 IEF142I PJG#FSRV $$QUIET - STEP WAS EXECUTED - COND CODE 0008
 *********************************************************************************
 *   PJG#FSRV/$$QUIET /                    Return Code      0008                 *
 *   Region used      260K (16K user + 244K system)                              *
 *   Extended region  9352K (4K user + 9348K system)                             *
 *                                                                               *
 *   Paging              In      Out                                             *
 *   Private <-> Aux      0        0       CPU time (TCB)   00:00:00.01          *
 *   Private <-> Exp      0        0       CPU time (SRB)   00:00:00.00          *
 *   VIO                  0        0       Elapsed time    920:48:15.60          *
 *   Common               0      ---                                             *
 *                                                                               *
 *                                                                               *
 *   CPU Usage          0.18         $0.11  Standard Processing Unit Equivalent  *
 *                                   $0.11  Total Step execution charge          *
 *                                                                               *
 *    I/O count  DDname   Type Addr           I/O count  DDname   Type Addr      *
 *                         *** No I/O for this step ***                          *
 *********************************************************************************
 IEF373I STEP/$$QUIET /START 2004082.0939
 IEF374I STEP/$$QUIET /STOP  2004082.0939 CPU    0MIN 00.01SEC SRB    0MIN 00.00SEC VIRT    16K SYS   244K EXT       4K SYS    9348K
 IEF236I ALLOC. FOR PJG#FSRV $CND
 IEF237I 0401 ALLOCATED TO STEPLIB
 IEF237I JES2 ALLOCATED TO SYSPRINT
 IEF237I 04DC ALLOCATED TO SYSUT1
 IEF237I 04DC ALLOCATED TO SYSUT2
 IEF237I DMY  ALLOCATED TO SYSIN
 IEF142I PJG#FSRV $CND - STEP WAS EXECUTED - COND CODE 0000
 IEF285I   WYL.GG.ORV.LINKLIB                           KEPT
 IEF285I   VOL SER NOS= SYSB01.
 IEF285I   GG$PJG.PJG#FSRV.JOB05935.D0000101.?          SYSOUT
 IEF285I   WYL.GG.PJG.OBJ                               KEPT
 IEF285I   VOL SER NOS= SYSB05.
 IEF285I   WYL.GG.PJG.OBJ                               KEPT
 IEF285I   VOL SER NOS= SYSB05.
 *********************************************************************************
 *   PJG#FSRV/$CND    /                    Return Code      Zero                 *
 *   Region used      280K (16K user + 264K system)                              *
 *   Extended region  9392K (4K user + 9388K system)                             *
 *                                                                               *
 *   Paging              In      Out                                             *
 *   Private <-> Aux      0        0       CPU time (TCB)   00:00:00.01          *
 *   Private <-> Exp      0        0       CPU time (SRB)   00:00:00.00          *
 *   VIO                  0        0       Elapsed time    920:48:14.51          *
 *   Common               0      ---                                             *
 *                                                                               *
 *                                                                               *
 *   CPU Usage          0.18         $0.11  Standard Processing Unit Equivalent  *
 *                                   $0.11  Total Step execution charge          *
 *                                                                               *
 *    I/O count  DDname   Type Addr           I/O count  DDname   Type Addr      *
 *            2  STEPLIB  Disk 0401                   0  SYSPRINT      ----      *
 *            0  SYSUT1   Disk 04DC                   0  SYSUT2   Disk 04DC      *
 *            0  SYSIN         ----                                              *
 *********************************************************************************
 IEF373I STEP/$CND    /START 2004082.0939
 IEF374I STEP/$CND    /STOP  2004082.0939 CPU    0MIN 00.01SEC SRB    0MIN 00.00SEC VIRT    16K SYS   264K EXT       4K SYS    9388K
 IEF236I ALLOC. FOR PJG#FSRV $UNP
 IEF237I JES2 ALLOCATED TO SYSPRINT
 IEF237I 0402 ALLOCATED TO SYSUT1
 IGD101I SMS ALLOCATED TO DDNAME (SYSUT2  )
         DSN (SYS04082.T093937.RA000.PJG#FSRV.INPUT.H01   )
         STORCLAS (TEMP) MGMTCLAS (        ) DATACLAS (        )
         VOL SER NOS= SCR100
 IEF142I PJG#FSRV $UNP - STEP WAS EXECUTED - COND CODE 0000
 IEF285I   GG$PJG.PJG#FSRV.JOB05935.D0000102.?          SYSOUT
 IEF285I   WYL.GG.ORV.SOURCE                            KEPT
 IEF285I   VOL SER NOS= SYSB02.
 IGD106I SYS04082.T093937.RA000.PJG#FSRV.INPUT.H01    PASSED,    DDNAME=SYSUT2
 *********************************************************************************
 *   PJG#FSRV/$UNP    /                    Return Code      Zero                 *
 *   Region used      380K (108K user + 272K system)                             *
 *   Extended region  9468K (4K user + 9464K system)                             *
 *                                                                               *
 *   Paging              In      Out                                             *
 *   Private <-> Aux      0        0       CPU time (TCB)   00:00:00.05          *
 *   Private <-> Exp      0        0       CPU time (SRB)   00:00:00.00          *
 *   VIO                  0        0       Elapsed time    920:48:14.36          *
 *   Common               0      ---                                             *
 *                                                                               *
 *                                                                               *
 *   CPU Usage          0.93         $0.57  Standard Processing Unit Equivalent  *
 *                                   $0.57  Total Step execution charge          *
 *                                                                               *
 *    I/O count  DDname   Type Addr           I/O count  DDname   Type Addr      *
 *            0  SYSPRINT      ----                   3  SYSUT1   Disk 0402      *
 *           19  SYSUT2   Disk 038B                                              *
 *********************************************************************************
 IEF373I STEP/$UNP    /START 2004082.0939
 IEF374I STEP/$UNP    /STOP  2004082.0939 CPU    0MIN 00.05SEC SRB    0MIN 00.00SEC VIRT   108K SYS   272K EXT       4K SYS    9464K
 IEF236I ALLOC. FOR PJG#FSRV ASM
 IEF237I 0402 ALLOCATED TO SYSLIB
 IEF237I 0402 ALLOCATED TO
 IEF237I 04DC ALLOCATED TO
 IGD101I SMS ALLOCATED TO DDNAME (SYSUT1  )
         DSN (SYS04082.T093937.RA000.PJG#FSRV.SYSUT1.H01  )
         STORCLAS (TEMP) MGMTCLAS (        ) DATACLAS (        )
         VOL SER NOS= VIO
 IEF237I JES2 ALLOCATED TO SYSTERM
 IGD101I SMS ALLOCATED TO DDNAME (SYSPRINT)
         DSN (SYS04082.T093937.RA000.PJG#FSRV.PRINT.H01   )
         STORCLAS (TEMP) MGMTCLAS (        ) DATACLAS (        )
         VOL SER NOS= SCR101
 IEF237I 04DC ALLOCATED TO SYSLIN
 IEF237I JES2 ALLOCATED TO SYSUDUMP
 IGD103I SMS ALLOCATED TO DDNAME SYSIN
 IEF142I PJG#FSRV ASM - STEP WAS EXECUTED - COND CODE 0000
 IEF285I   SYS3.DUMMYMAC                                KEPT
 IEF285I   VOL SER NOS= SYSB02.
 IEF285I   WYL.GG.ORV.MACLIB                            KEPT
 IEF285I   VOL SER NOS= SYSB02.
 IEF285I   WYL.GG.SYS.MACLIB                            KEPT
 IEF285I   VOL SER NOS= SYSB05.
 IGD105I SYS04082.T093937.RA000.PJG#FSRV.SYSUT1.H01   DELETED,   DDNAME=SYSUT1
 IEF285I   GG$PJG.PJG#FSRV.JOB05935.D0000103.?          SYSOUT
 IGD106I SYS04082.T093937.RA000.PJG#FSRV.PRINT.H01    PASSED,    DDNAME=SYSPRINT
 IEF285I   WYL.GG.PJG.OBJ                               KEPT
 IEF285I   VOL SER NOS= SYSB05.
 IEF285I   GG$PJG.PJG#FSRV.JOB05935.D0000104.?          SYSOUT
 IGD105I SYS04082.T093937.RA000.PJG#FSRV.INPUT.H01    DELETED,   DDNAME=SYSIN
 *********************************************************************************
 *   PJG#FSRV/ASM     /                    Return Code      Zero                 *
 *   Region used      8476K (8192K user + 284K system)                           *
 *   Extended region  9952K (412K user + 9540K system)                           *
 *                                                                               *
 *   Paging              In      Out                                             *
 *   Private <-> Aux      0        0       CPU time (TCB)   00:00:02.90          *
 *   Private <-> Exp      0        0       CPU time (SRB)   00:00:00.05          *
 *   VIO                  0        0       Elapsed time    920:48:14.10          *
 *   Common               0      ---                                             *
 *                                                                               *
 *                                                                               *
 *   CPU Usage         54.37        $33.70  Standard Processing Unit Equivalent  *
 *                                  $33.70  Total Step execution charge          *
 *                                                                               *
 *    I/O count  DDname   Type Addr           I/O count  DDname   Type Addr      *
 *          123  SYSLIB   Disk 0402                   0  SYSLIB   Disk 0402      *
 *          148  SYSLIB   Disk 04DC                   0  SYSUT1   VIO  ----      *
 *            0  SYSTERM       ----                 171  SYSPRINT Disk 04E3      *
 *            5  SYSLIN   Disk 04DC                   0  SYSUDUMP      ----      *
 *           20  SYSIN    Disk 038B                                              *
 *********************************************************************************
 IEF373I STEP/ASM     /START 2004082.0939
 IEF374I STEP/ASM     /STOP  2004082.0939 CPU    0MIN 02.90SEC SRB    0MIN 00.05SEC VIRT  8192K SYS   284K EXT     412K SYS    9540K
 IEF236I ALLOC. FOR PJG#FSRV $EDIT
 IEF237I 0402 ALLOCATED TO STEPLIB
 IGD103I SMS ALLOCATED TO DDNAME ASMOUT
 IEF237I JES2 ALLOCATED TO SYSPRINT
 IEF237I JES2 ALLOCATED TO SYSUDUMP
 IEF142I PJG#FSRV $EDIT - STEP WAS EXECUTED - COND CODE 0000
 IEF285I   WYL.GG.SYS.LINKLIB                           KEPT
 IEF285I   VOL SER NOS= SYSB02.
 IGD105I SYS04082.T093937.RA000.PJG#FSRV.PRINT.H01    DELETED,   DDNAME=ASMOUT
 IEF285I   GG$PJG.PJG#FSRV.JOB05935.D0000105.?          SYSOUT
 IEF285I   GG$PJG.PJG#FSRV.JOB05935.D0000106.?          SYSOUT
 *********************************************************************************
 *   PJG#FSRV/$EDIT   /                    Return Code      Zero                 *
 *   Region used      388K (116K user + 272K system)                             *
 *   Extended region  9472K (4K user + 9468K system)                             *
 *                                                                               *
 *   Paging              In      Out                                             *
 *   Private <-> Aux      0        0       CPU time (TCB)   00:00:00.65          *
 *   Private <-> Exp      0        0       CPU time (SRB)   00:00:00.02          *
 *   VIO                  0        0       Elapsed time    920:48:06.46          *
 *   Common               0      ---                                             *
 *                                                                               *
 *                                                                               *
 *   CPU Usage         12.18         $7.55  Standard Processing Unit Equivalent  *
 *                                   $7.55  Total Step execution charge          *
 *                                                                               *
 *    I/O count  DDname   Type Addr           I/O count  DDname   Type Addr      *
 *            2  STEPLIB  Disk 0402                 172  ASMOUT   Disk 04E3      *
 *            0  SYSPRINT      ----                   0  SYSUDUMP      ----      *
 *********************************************************************************
 IEF373I STEP/$EDIT   /START 2004082.0939
 IEF374I STEP/$EDIT   /STOP  2004082.0939 CPU    0MIN 00.65SEC SRB    0MIN 00.02SEC VIRT   116K SYS   272K EXT       4K SYS    9468K
 *********************************************************************************
 *                                                                               *
 *                      S t a n f o r d   U n i v e r s i t y                    *
 *                                                                               *
 *                              *** Job Summary ***                              *
 *                                                                               *
 *   System Id      SYSB                   Input time     09:38:18  Mar 22, 2004 *
 *                                                                               *
 *   System Release SP6.1.0                Start time     09:39:37  Mar 22, 2004 *
 *                                                                               *
 *   Job name       PJG#FSRV               Stop  time     00:00:00  Mar 22, 2004 *
 *                                                                               *
 *   Account        PJG$GG                 Elapsed time  920:48:15.60            *
 *                                                                               *
 *   User Name      Module: FILESERV       CPU time       00:00:03.62            *
 *                                                                               *
 *   Job class      E                      SRB Time       00:00:00.07            *
 *                                                                               *
 *********************************************************************************
 IEF375I  JOB/PJG#FSRV/START 2004082.0939
 IEF376I  JOB/PJG#FSRV/STOP  2004082.0939 CPU    0MIN 03.62SEC SRB    0MIN 00.07SEC
1Data set successfully converted from EDIT to FB format
1Assembler Done FILESERV No Statements Flagged
1         High Level Assembler Option Summary                   (PTF UQ57391)                                               Page    1
-                                                                                            HLASM R4.0  2004/03/22 09.39
0  No Overriding ASMAOPT Parameters
   Overriding Parameters-  SYSPARM(FILESERV),TERM,LANG(EN),OBJ,LC(32500),XREF(SHORT),NODECK,NORLD,NODX,NOUS
   No Process Statements


   Options for this Assembly
0  NOADATA
     ALIGN
   NOASA
     BATCH
     CODEPAGE(047C)
   NOCOMPAT
   NODBCS
 3 NODECK
 3 NODXREF
     ESD
   NOEXIT
     FLAG(0,ALIGN,CONT,NOIMPLEN,NOPAGE0,PUSH,RECORD,NOSUBSTR,USING0)
   NOFOLD
   NOGOFF
   NOINFO
 3   LANGUAGE(EN)
   NOLIBMAC
 3   LINECOUNT(32500)
     LIST(121)
     MXREF(SOURCE)
 3   OBJECT
     OPTABLE(UNI,NOLIST)
   NOPCONTROL
   NOPESTOP
   NOPROFILE
   NORA2
   NORENT
 3 NORLD
     RXREF
     SIZE(MAX)
 3   SYSPARM(FILESERV)
 3   TERM(WIDE)
   NOTEST
     THREAD
   NOTRANSLATE
 3 NOUSING
 3   XREF(SHORT)

   No Overriding DD Names

1FILESERV External Symbol Dictionary                                                                                        Page    2
-Symbol   Type   Id     Address  Length     LD ID  Flags Alias-of                            HLASM R4.0  2004/03/22 09.39
0FILESERV  SD 00000001 00000000 00001D00             06
 FILESE    LD          00000000           00000001
 FILEBLKI  LD          00000022           00000001
 FILSMF    LD          00000122           00000001
 VMGET     ER 00000002
 VMFREE    ER 00000003
 FILEINIT  LD          00000298           00000001
 SBUFINIT  ER 00000004
 CHOPEN    ER 00000005
 CAOPEN    ER 00000006
 FMANINIT  ER 00000007
 FCATINIT  ER 00000008
 FBITINIT  ER 00000009
 FMANTDIN  ER 0000000A
 M1GOSTAT  ER 0000000B
 FSINIT6   LD          00000E04           00000001
 FSADDVOL  LD          000011B2           00000001
 DSDEDIT6  LD          0000155C           00000001
 STATFS    LD          00001604           00000001
 FDOIODO   LD          00001672           00000001
 IOSIDGET  ER 0000000C
 IOSDOIO   ER 0000000D
 IOSIDFRE  ER 0000000E
 FBITADDV  ER 0000000F
 FBITREMV  ER 00000010
 SBUFGET   ER 00000011
 CHREAD    ER 00000012
 CAREAD    ER 00000013
 CHWRITE   ER 00000014
 CAWRITE   ER 00000015
 IOSTIME   ER 00000016
 SBUFREE   ER 00000017
 ACDSKIO   ER 00000018

1FILESERV MP-ORVYL File services                                                                                            Page    3
0Loc    Object Code    Addr1 Addr2  Stmt Lv Lineno    Source Statement                    (Asmedit 3.3)  HLASM R4.0  2004/03/22 09.39
+___    ______ ____    _____ _____  ____ __ ______    ______ _________
0                                      2       2.              COPY  HEADER
                                       3             =*********************************************************************
                                       4             =*                                                                   *
                                       5             =*                                                                   *
                                       6             =*                          M P - O R V Y L                          *
                                       7             =*                                                                   *
                                       8             =*       ORVYL - Release 5.0 - Class I - Stanford Proprietary        *
                                       9             =*                                                                   *
                                      10             =*                                                                   *
                                      11             =*********************************************************************
-
-                                     13             =         SPLEVEL SET=2
                                      16             =         HIBAL ASSOC=YES
-
                                     998             =*
                                     999             =* REGISTER CONVENTIONS (USE ONLY THE SYMBOLS)
                                    1000             =*
                                    1001             =*                     CLASS  USAGE
                                    1002             =*                     -----  -----------------------------
                                    1003             =RVR      REG   0        1    RETURN VALUE REGISTER
                                    1015             =RS       REG   1        *    SCRATCH
                                    1027             =RA       REG   2        *    SCRATCH
                                    1039             =RB       REG   3        *    SCRATCH
                                    1051             =RJ       REG   4        *    SCRATCH
                                    1063             =RK       REG   5        *    SCRATCH
                                    1075             =RX       REG   6        *    SCRATCH
                                    1087             =RY       REG   7        *    SCRATCH
                                    1099             =RM       REG   8        *    SCRATCH
                                    1111             =RN       REG   9        *    SCRATCH (In Guest)
                                    1123             =RTCBR    REG   9        -    POINTER TO THE RTCB (In Host)
                                    1135             =BR       REG   10       -    FIRST BASE REGISTER
                                    1147             =BRR      REG   11       -    SECOND BASE REGISTER
                                    1159             =WAR      REG   12       -    WORK AREA POINTER
                                    1171             =SPR      REG   13       -    STACK TOP POINTER
                                    1183             =RAR      REG   14       1    RETURN ADDRESS REGISTER
                                    1195             =EPAR     REG   15       1    ENTRY POINT ADDRESS
                                    1207             =*
                                    1208             =*      CLASS   MEANING
                                    1209             =*      -----   --------------------------------------------------
                                    1210             =*        *     Register may be freely used for scratch
                                    1211             =*        -     Register may not be used
                                    1212             =*        1     Available but may change on subroutine calls
                                    1213             =*
1FILESERV MP-ORVYL File services                                                                                            Page    4
0D-Loc  Object Code    Addr1 Addr2  Stmt Lv Lineno    Source Statement           (Hibal 5, Asmedit 3.3)  HLASM R4.0  2004/03/22 09.39
+_____  ______ ____    _____ _____  ____ __ ______    ______ _________
0
                                    1216       4.     M1RAR    EQU   R9                      Return register for mode 1
0000000                00000 01D00  1218       6.     FILESERV MODULE TRCNUM=6,ID=SE
                                    1228             +*
                                    1229    02-IDENT +         ENTRY FILESE
                                    1230             +
 000000 14C6C9D3C5E2C56B            1231    02-IDENT +FILESE   DC    AL1(20),C'FILESE,22MAR04,09:39'
                                    1232             +*
1FILESERV (FILESE) (09:39) (22MAR04) FILESERV - Global data areas                                                           Page    5
0Loc    Object Code    Addr1 Addr2  Stmt Lv Lineno    Source Statement           (Hibal 5, Asmedit 3.3)  HLASM R4.0  2004/03/22 09.39
+___    ______ ____    _____ _____  ____ __ ______    ______ _________
0                                   1235       8.              COPY  PZERO
 000000                00000 00280  1236             =PZERO    RECORD BEGIN
                                    1244  1          =*
                                    1245  1          =* Real Page 0.  Each CPU has its own copy of this area.
                                    1246  1          =*
-                                   1248  1          =****************************************************************
                                    1249  1          =*               Fields Fixed by the Architecture               *
                                    1250  1          =*               ********************************               *
                                    1251  1          =*                                                              *
 000000                             1252  1          =PZRSNPSW   DS    D             Restart new PSW                 *
 000008                             1253  1          =PZRSOPSW   DS    D             Restart old PSW                 *
 000010                             1254  1          =           DS    D                                             *
 000018                             1255  1          =PZEXOPSW   DS    D             External old PSW                *
 000020                             1256  1          =PZSVOPSW   DS    D             Supervisor old PSW              *
 000028                             1257  1          =PZPIOPSW   DS    D             Program old PSW                 *
 000030                             1258  1          =PZMCOPSW   DS    D             Machine check old PSW           *
 000038                             1259  1          =PZIOOPSW   DS    D             I/O old PSW                     *
 000040                             1260  1          =           DS    3D                                            *
 000058                             1261  1          =PZEXNPSW   DS    D             External new PSW                *
 000060                             1262  1          =PZSVNPSW   DS    D             Supervisor new PSW              *
 000068                             1263  1          =PZPINPSW   DS    D             Program new PSW                 *
 000070                             1264  1          =PZMCNPSW   DS    D             Machine check new PSW           *
 000078                             1265  1          =PZIONPSW   DS    D             I/O new PSW                     *
 000080                             1266  1          =           DS    F                                             *
 000084                             1267  1          =PZEXCPU    DS    H             CPU address for EXT int         *
 000086                             1268  1          =PZEXIC     DS    H             External interrupt code         *
 000088                             1269  1          =PZSVILC    DS    H             Supervisor call ILC             *
 00008A                             1270  1          =PZSVIC     DS    H             Supervisor interrupt code       *
 00008C                             1271  1          =PZPIILC    DS    H             Program ILC                     *
 00008E                             1272  1          =PZPIIC     DS    H             Program interrupt code          *
 000090                             1273  1          =PZTREXA    DS    A             Translation exception address   *
 000094                             1274  1          =PZMONCL    DS    H             Monitor Class number            *
 000096                             1275  1          =PZPERCD    DS    H             PER code                        *
 000098                             1276  1          =PZPERA     DS    A             PER Address                     *
 00009C                             1277  1          =PZMONCD    DS    A             Monitor Code                    *
 0000A0                             1278  1          =           DS    3D                                            *
 0000B8                             1279  1          =PZIOSID    DS    A             I/O subsystem ID word           *
 0000BC                             1280  1          =PZIOPRM    DS    A             I/O Parameter                   *
 0000C0                             1281  1          =PZIOSCS    DS    A             I/O subchannel ending status    *
 0000C4                             1282  1          =           DS    A                                             *
 0000C8                             1283  1          =           DS    39D                                           *
                                    1284  1          =*                                                              *
                                    1285  1          =*            ***************************************           *
                                    1286  1          =*            End of Fields fixed by the architecture           *
                                    1287  1          =****************************************************************
1FILESERV (FILESE) (09:39) (22MAR04) FILESERV - Global data areas                                                           Page    6
0D-Loc  Object Code    Addr1 Addr2  Stmt Lv Lineno    Source Statement           (Hibal 5, Asmedit 3.3)  HLASM R4.0  2004/03/22 09.39
+_____  ______ ____    _____ _____  ____ __ ______    ______ _________
0                                   1289  1          =*
                                    1290  1          =* Fields of general interest
                                    1291  1          =*
 000200                             1292  1          =PZMATP     DS    A             Address of the MAT
 000204                             1293  1          =           DS    A             ** Reserved **
 000208                             1294  1          =PZCURPID   DS    0D            Unique ID of the current process
 000208                             1295  1          =PZCURASB   DS    A             Addr of ASB for current Address space
 00020C                             1296  1          =PZCURTSK   DS    A             ID of current task in the Address space
 000210                             1297  1          =PZLCPUA    DS    A             Logical CPU address
 000214                             1298  1          =PZCPUMSK   DS    A             CPU address mask bit
 000218                             1299  1          =PZPSWM     DS    X             PSW mask for disabling
 000219                             1300  1          =           DS    X             ** Reserved **
                                    1301  1          =*
                                    1302  1          =* Termination/Trace information
                                    1303  1          =*
 00021A 00                          1304  1          =PZTERMFL   FLAG  ,             Termination flags
 PZTERMFL.PZABORT  80 ONES          1308  1          =           FLAG  PZABORT         ABORT macro issued
 PZTERMFL.PZATERM  40 ONES          1313  1          =           FLAG  PZATERM         Start termination processing
 00021B                             1318  1          =PZABSM     DS    X             Save area for system mask in ABORT
 00021C                             1319  1          =PZABR15    DS    A             Save area for R15 in an ABORT
 000220                             1320  1          =PZTZOFF    DS    D             Time zone offset
 000228                             1321  1          =           DS    22A           ** Reserved **
                                    1322  1          =*         DS    24A           ** Reserved **
 000280                00280 00280  1323             =         END   ,
 USING  PZERO,R0                    1332       9.              USING PZERO,R0
1FILESERV (FILESE) (09:39) (22MAR04) FILESERV - Global data areas                                                           Page    7
0Current Usings:  (PZERO,R0)
0Loc    Object Code    Addr1 Addr2  Stmt Lv Lineno    Source Statement           (Hibal 5, Asmedit 3.3)  HLASM R4.0  2004/03/22 09.39
+___    ______ ____    _____ _____  ____ __ ______    ______ _________
0                                   1342      11.              COPY  MAT
                                    1343             =*****************************************************************
                                    1344             =*                                                               *
                                    1345             =*        *** M A S T E R   A D D R E S S   T A B L E ***        *
                                    1346             =*                                                               *
                                    1347             =*****************************************************************
-000000                00000 00100  1349             =MAT      RECORD BEGIN
                                    1357  1          =MATPTR     EQU   X'200',4,C'A' Address of the MAT in PZERO
 000000 D4C1E340                    1358  1          =           DC    CL4'MAT'      Control block ID
                                    1359  1          =*
                                    1360  1          =* Addresses of global control blocks
                                    1361  1          =*
 000004                             1362  1          =MATVMCB    DS    A             Virtual memory control block
 000008                             1363  1          =MATDCT     DS    A             Dispatcher control table
 00000C                             1364  1          =MATPAGCB   DS    A             Real memory control block
 000010                             1365  1          =MATM1CT    DS    A             CT for Mode 1 users
 000014                             1366  1          =MATLCT     DS    A             Lock manager control table
 000018                             1367  1          =MATQCT     DS    A             Queue manager control table
 00001C                             1368  1          =MATIOCB    DS    A             I/O Manager control block
 000020                             1369  1          =MATSBWB    DS    A             System buffer wait blocks
 000024                             1370  1          =MATGTCT    DS    A             Terminal global control table
 000028                             1371  1          =MATFILCB   DS    A             File master control table
 00002C                             1372  1          =MATJESCB   DS    A             JES master control table
 000030                             1373  1          =MATSYSCB   DS    A             System task control table
 000034                             1374  1          =MATACCT    DS    A             Accounting control table
 000038                             1375  1          =MATGRCT    DS    A             General Resource control table
 00003C                             1376  1          =MATGNCT    DS    A             Global Network Control table
 000040                             1377  1          =MATTECB    DS    D             Termination wait ECB
 000048                             1378  1          =           DS    25A           Reserved
                                    1379  1          =*
                                    1380  1          =* Control Block Chains
                                    1381  1          =*
 0000AC                             1382  1          =MATASBS    DS    A             Pointer to chain of ASBs
 0000B0                             1383  1          =MATASBL    DS    A             Id of suspend lock for ASB chain
 0000B4                             1384  1          =           DS    8A            **  RESERVED
                                    1385  1          =*
                                    1386  1          =* Control information
                                    1387  1          =*
 0000D4                             1388  1          =MATSNAME   DS    CL8           System Name
 0000DC                             1389  1          =MATPAGFN   DS    A             Current value of the Paging function
 0000E0                             1390  1          =MATSKEY    DS    X             SYSTEM storage key (in high 4 bits)
 0000E1                             1391  1          =MATUKEY    DS    X             USER storage key
                                    1392= 1          =           ¿þþþþþþþþþþþþþþþþþþþþþþþþþþþþþþþþÜ
                                    1393= 1          =           Ÿ  Information about the Kernel  Ÿ
                                    1394= 1          =           ¾þþþþþþþþþþþþþþþþþþþþþþþþþþþþþþþþ»
 0000E4                             1395  1          =MATKSTRT   DS    A             Starting address of the Kernel
 0000E8                             1396  1          =MATKMAP    DS    A             Address of the Kernel map
 0000EC                             1397  1          =MATKMAPL   DS    A             Length of the Kernel map
1FILESERV (FILESE) (09:39) (22MAR04) FILESERV - Global data areas                                                           Page    8
0Current Usings:  (PZERO,R0)
0Loc    Object Code    Addr1 Addr2  Stmt Lv Lineno    Source Statement           (Hibal 5, Asmedit 3.3)  HLASM R4.0  2004/03/22 09.39
+___    ______ ____    _____ _____  ____ __ ______    ______ _________
0                                   1398= 1          =           ¿þþþþþþþþþþþþþþþþþþþþþþþþþÜ
                                    1399= 1          =           Ÿ  Failsoft information.  Ÿ
                                    1400= 1          =           ¾þþþþþþþþþþþþþþþþþþþþþþþþþ»
 0000F0                             1401  1          =MATNCLPE   DS    F             Number of CLP errors
 0000F4                             1402  1          =MATNFAIL   DS    F             Number of failsofts
 0000F8                             1403  1          =           DS    2A            Reserved
 000100                00100 00100  1404             =         END
1FILESERV (FILESE) (09:39) (22MAR04) FILESERV - Global data areas                                                           Page    9
0Current Usings:  (PZERO,R0)
0Loc    Object Code    Addr1 Addr2  Stmt Lv Lineno    Source Statement           (Hibal 5, Asmedit 3.3)  HLASM R4.0  2004/03/22 09.39
+___    ______ ____    _____ _____  ____ __ ______    ______ _________
0                                   1414      13.              COPY  SLISTMAC
                                    1415             =*******************************************************************
                                    1416             =*                                                                 *
                                    1417             =* Macros for the serialized manipulation of single linked lists   *
                                    1418             =* in memory.  These lists are of the PUSH/POP (LIFO) variety.     *
                                    1419             =* Serialization is achieved using the CDS and CS instructions.    *
                                    1420             =*                                                                 *
                                    1421             =*******************************************************************
0                                   1423             =*******************************************************************
                                    1424             =*                                                                 *
                                    1425             =* Single linked list head fields                                  *
                                    1426             =*                                                                 *
                                    1427             =*******************************************************************
                                    1428             =         MACRO
                                    1429             =&LAB     SHEAD
                                    1430             =         AIF   ('&LAB' EQ '').ERR
                                    1431             =&LAB     DS   0D                   Single linked CDS list
                                    1432             =&LAB.FP  DS    A                   Forward pointer
                                    1433             =&LAB.SEQ DS    A                   CDS sequence number
                                    1434             =         MEXIT
                                    1435             =.ERR     MNOTE 8,'Label (list name) required'
                                    1436             =         MEND
0                                   1438             =*******************************************************************
                                    1439             =*                                                                 *
                                    1440             =* Push an item onto a single linked list                          *
                                    1441             =*                                                                 *
                                    1442             =*******************************************************************
                                    1443             =         MACRO
                                    1444             =&LABEL   SPUSH &HEAD=,&ITEM=
                                    1445             =         LCLC  &X
                                    1446             =         AIF   ('&LABEL' EQ '').NOLAB
                                    1447             =&LABEL   LABEL ,
                                    1448             =.NOLAB   ANOP  ,
                                    1449             =         AIF   ('&HEAD' EQ '').ERR1
                                    1450             =         AIF   ('&ITEM' EQ '').ERR2
                                    1452             =         LM    R14,R15,&HEAD       Get fwd ptr and sequence number
                                    1453             =         LA    RVR,&ITEM           Point to new item
                                    1454             =         LOOP  BEGIN
                                    1455             =         LA    RS,1(R15)           Increment sequence
                                    1456             =         MVC   &ITEM.(L'&HEAD.FP),&HEAD.FP Set item fwd ptr
                                    1457             =         CDS   R14,RVR,&HEAD       Add item to list
                                    1458             =         UNTIL (Z),END
                                    1460             =         AGO   .EXIT
                                    1461             =.ERR1    MNOTE 8,'Head is a required parameter'
                                    1462             =         AGO   .EXIT
                                    1463             =.ERR2    MNOTE 8,'Item is a required parameter'
                                    1464             =.EXIT    ANOP  ,
                                    1465             =         MEND  ,
0                                   1467             =*******************************************************************
                                    1468             =*                                                                 *
                                    1469             =* Pop an item from a single linked list. Addr returned in RVR     *
1FILESERV (FILESE) (09:39) (22MAR04) FILESERV - Global data areas                                                           Page   10
0Current Usings:  (PZERO,R0)
0Loc    Object Code    Addr1 Addr2  Stmt Lv Lineno    Source Statement           (Hibal 5, Asmedit 3.3)  HLASM R4.0  2004/03/22 09.39
+___    ______ ____    _____ _____  ____ __ ______    ______ _________
0                                   1470             =* (zero if the list was empty).                                   *
                                    1471             =*                                                                 *
                                    1472             =*******************************************************************
                                    1473             =         MACRO
                                    1474             =&LABEL   SPOP  &HEAD=
                                    1475             =         AIF   ('&LABEL' EQ '').NOLAB
                                    1476             =&LABEL   LABEL ,
                                    1477             =.NOLAB   ANOP  ,
                                    1478             =         AIF   ('&HEAD' EQ '').ERR1
                                    1480             =         LM    RVR,RS,&HEAD        Get fwd and sequence number
                                    1481             =         LOOP  BEGIN
                                    1482             =         IF    (RVR,Z),EXIT        None to get
                                    1483             =         LR    R14,RVR             Point to first item
                                    1484             =         L     R14,0(R14)          Get fwd pointer
                                    1485             =         LA    R15,1(RS)           Increment sequence
                                    1486             =         CDS   RVR,R14,&HEAD       Remove item from list
                                    1487             =         UNTIL (Z),END
                                    1489             =         AGO   .EXIT
                                    1490             =.ERR1    MNOTE 8,'Head is a required parameter'
                                    1491             =.EXIT    ANOP  ,
                                    1492             =         MEND  ,
0                                   1494             =*******************************************************************
                                    1495             =*                                                                 *
                                    1496             =* Get an available item from list (ptr returned in RVR). Memory   *
                                    1497             =* will be obtained if the list is empty.                          *
                                    1498             =*                                                                 *
                                    1499             =*******************************************************************
                                    1500             =         MACRO
                                    1501             =&LABEL   SAVAIL &HEAD=,&LEN=,&LOC=GLOBHI,&FIX=,&PAGE=
                                    1502             =         AIF   ('&LABEL' EQ '').NOLAB
                                    1503             =&LABEL   LABEL ,
                                    1504             =.NOLAB   ANOP  ,
                                    1505             =         AIF   ('&HEAD' EQ '').ERR1
                                    1506             =         AIF   ('&LEN' EQ '').ERR2
                                    1507             =         SPOP  HEAD=&HEAD          pop a free item
                                    1508             =         IF    (RVR,Z),BEGIN       empty list
                                    1509             =         VMGET &LEN,LOC=&LOC,FIX=&FIX,PAGE=&PAGE
                                    1510             =         IF    ('LTR RVR,RVR',ZERO),'ABORT NO_MEM_&HEAD'
                                    1511             =         END   ,
                                    1512             =         AGO   .EXIT
                                    1513             =.ERR1    MNOTE 8,'Head is a required parameter'
                                    1514             =         AGO   .EXIT
                                    1515             =.ERR2    MNOTE 8,'Len is a required parameter'
                                    1516             =.EXIT    ANOP  ,
                                    1517             =         MEND  ,
0000000                00000 00008  1519             =SLDUMMY  RECORD BEGIN
                                    1527  1          =SLDUM      SHEAD ,
 000000                             1528  1 01-01431 +SLDUM      DS   0D                   Single linked CDS list
 000000                             1529  1 01-01432 +SLDUMFP    DS    A                   Forward pointer
 000004                             1530  1 01-01433 +SLDUMSEQ   DS    A                   CDS sequence number
 000008                00008 00008  1531             =         END
1FILESERV (FILESE) (09:39) (22MAR04) FILESERV - Global data areas                                                           Page   11
0Current Usings:  (PZERO,R0)
0Loc    Object Code    Addr1 Addr2  Stmt Lv Lineno    Source Statement           (Hibal 5, Asmedit 3.3)  HLASM R4.0  2004/03/22 09.39
+___    ______ ____    _____ _____  ____ __ ______    ______ _________
0                                   1541      15.              COPY  QLISTMAC
                                    1542             =*******************************************************************
                                    1543             =*                                                                 *
                                    1544             =* These macros are used to update double linked memory lists.     *
                                    1545             =* Serialization is achieved using the PLO instruction. If a       *
                                    1546             =* memory block containing the list head needs to be locked anyway *
                                    1547             =* then the macros in LSTMAC would be better than these.           *
                                    1548             =* Conversely any existing use of LSTMAC macros might be           *
                                    1549             =* converted to this mechanism to avoid using locking.             *
                                    1550             =*                                                                 *
                                    1551             =*******************************************************************
0                                   1553             =*******************************************************************
                                    1554             =*                                                                 *
                                    1555             =* Double linked list head fields                                  *
                                    1556             =*                                                                 *
                                    1557             =*******************************************************************
                                    1558             =         MACRO
                                    1559             =&LAB     QHEAD
                                    1560             =         AIF   ('&LAB' EQ '').ERR
                                    1561             =         DS   0D
                                    1562             =&LAB     DS   0XL(16)              Double linked PLO list
                                    1563             =&LAB.FP  DS    A                   Forward pointer
                                    1564             =&LAB.BP  DS    A                   Backward pointer
                                    1565             =&LAB.SEQ DS    A                   CDS sequence number
                                    1566             =&LAB.CNT DS    A                   Count of items
                                    1567             =         MEXIT
                                    1568             =.ERR     MNOTE 8,'Label (list name) required'
                                    1569             =         MEND
0                                   1571             =*******************************************************************
                                    1572             =*                                                                 *
                                    1573             =* Parameters for the double linked list manipulation routines     *
                                    1574             =* in RESMAN                                                       *
                                    1575             =*                                                                 *
                                    1576             =*******************************************************************
 000000                00000 00010  1577             =@QUE    RECORD BEGIN               List Add/Remove
 000000                             1585  1          =@QUESEQ    DS    D                   Doubleword sequence value
 000008                             1586  1          =@QUEITM    DS    A                   Address of item
 00000C                             1587  1          =@QUELHD    DS    A                   Address of list head
 000010                00010 00010  1588             =         END   ,
0                                   1598             =*******************************************************************
                                    1599             =*                                                                 *
                                    1600             =* Add an item to the end of a double linked list                  *
                                    1601             =*                                                                 *
                                    1602             =*******************************************************************
                                    1603             =         MACRO
                                    1604             =&LABEL   Q_QUE &HEAD=,&ITEM=
                                    1605             =         AIF   ('&LABEL' EQ '').NOLAB
                                    1606             =&LABEL   LABEL ,
                                    1607             =.NOLAB   ANOP  ,
                                    1608             =         AIF   ('&HEAD' EQ '').ERR1
                                    1609             =         AIF   ('&ITEM' EQ '').ERR2
1FILESERV (FILESE) (09:39) (22MAR04) FILESERV - Global data areas                                                           Page   12
0Current Usings:  (PZERO,R0)
0Loc    Object Code    Addr1 Addr2  Stmt Lv Lineno    Source Statement           (Hibal 5, Asmedit 3.3)  HLASM R4.0  2004/03/22 09.39
+___    ______ ____    _____ _____  ____ __ ______    ______ _________
0                                   1611             =         PSET  @QUE,CLEAR=NO
                                    1612             =         LM    R14,R15,&HEAD.SEQ
                                    1613             =         STM   R14,R15,@QUESEQ     Set sequence stuff
                                    1614             =         PMOV  @QUELHD,LA:&HEAD
                                    1615             =         PMOV  @QUEITM,LA:&ITEM
                                    1616             =         LOOP  BEGIN
                                    1617             =         VCALL QUEUE               Add item to end of list
                                    1618             =         UNTIL (RVR,Z),END
                                    1620             =         AGO   .EXIT
                                    1621             =.ERR1    MNOTE 8,'Head is a required parameter'
                                    1622             =         AGO   .EXIT
                                    1623             =.ERR2    MNOTE 8,'Item is a required parameter'
                                    1624             =.EXIT    ANOP  ,
                                    1625             =         MEND  ,
0                                   1627             =*******************************************************************
                                    1628             =*                                                                 *
                                    1629             =* Remove an item from a double linked list                        *
                                    1630             =*                                                                 *
                                    1631             =*******************************************************************
                                    1632             =         MACRO
                                    1633             =&LABEL   Q_REM &HEAD=,&ITEM=
                                    1634             =         AIF   ('&LABEL' EQ '').NOLAB
                                    1635             =&LABEL   LABEL ,
                                    1636             =.NOLAB   ANOP  ,
                                    1637             =         AIF   ('&HEAD' EQ '').ERR1
                                    1638             =         AIF   ('&ITEM' EQ '').ERR2
                                    1640             =         PSET  @QUE,CLEAR=NO
                                    1641             =         LM    R14,R15,&HEAD.SEQ
                                    1642             =         STM   R14,R15,@QUESEQ     Set sequence stuff
                                    1643             =         PMOV  @QUELHD,LA:&HEAD
                                    1644             =         PMOV  @QUEITM,LA:&ITEM
                                    1645             =         LOOP  BEGIN
                                    1646             =         VCALL QUEREM              Add item to nd of list
                                    1647             =         UNTIL (RVR,Z),END
                                    1649             =         AGO   .EXIT
                                    1650             =.ERR1    MNOTE 8,'Head is a required parameter'
                                    1651             =         AGO   .EXIT
                                    1652             =.ERR2    MNOTE 8,'Item is a required parameter'
                                    1653             =.EXIT    ANOP  ,
                                    1654             =         MEND  ,
0                                   1656             =*******************************************************************
                                    1657             =*                                                                 *
                                    1658             =* Add item to beginning of double linked list                     *
                                    1659             =*                                                                 *
                                    1660             =*******************************************************************
                                    1661             =         MACRO
                                    1662             =&LABEL   Q_PSH &HEAD=,&ITEM=
                                    1663             =         AIF   ('&LABEL' EQ '').NOLAB
                                    1664             =&LABEL   LABEL ,
                                    1665             =.NOLAB   ANOP  ,
                                    1666             =         AIF   ('&HEAD' EQ '').ERR1
                                    1667             =         AIF   ('&ITEM' EQ '').ERR2
1FILESERV (FILESE) (09:39) (22MAR04) FILESERV - Global data areas                                                           Page   13
0Current Usings:  (PZERO,R0)
0Loc    Object Code    Addr1 Addr2  Stmt Lv Lineno    Source Statement           (Hibal 5, Asmedit 3.3)  HLASM R4.0  2004/03/22 09.39
+___    ______ ____    _____ _____  ____ __ ______    ______ _________
0                                   1669             =         PSET  @QUE,CLEAR=NO
                                    1670             =         LM    R14,R15,&HEAD.SEQ
                                    1671             =         STM   R14,R15,@QUESEQ     Set sequence stuff
                                    1672             =         PMOV  @QUELHD,LA:&HEAD
                                    1673             =         PMOV  @QUEITM,LA:&ITEM
                                    1674             =         LOOP  BEGIN
                                    1675             =         VCALL QUEPUSH             Add item to end of list
                                    1676             =         UNTIL (RVR,Z),END
                                    1678             =         AGO   .EXIT
                                    1679             =.ERR1    MNOTE 8,'Head is a required parameter'
                                    1680             =         AGO   .EXIT
                                    1681             =.ERR2    MNOTE 8,'Item is a required parameter'
                                    1682             =.EXIT    ANOP  ,
                                    1683             =         MEND  ,
1FILESERV (FILESE) (09:39) (22MAR04) FILESERV - Global data areas                                                           Page   14
0Current Usings:  (PZERO,R0)
0Loc    Object Code    Addr1 Addr2  Stmt Lv Lineno    Source Statement           (Hibal 5, Asmedit 3.3)  HLASM R4.0  2004/03/22 09.39
+___    ______ ____    _____ _____  ____ __ ______    ______ _________
0                                   1686      17.              COPY  SBPARM
                                    1687             =*******************************************************************
                                    1688             =*                                                                 *
                                    1689             =* Macros for the inialization and manipulation of system buffer   *
                                    1690             =* pools for the orvyl file system.                                *
                                    1691             =*                                                                 *
                                    1692             =*******************************************************************
0                                   1694             =*******************************************************************
                                    1695             =*                                                                 *
                                    1696             =* Buffer pool initialization                                      *
                                    1697             =*                                                                 *
                                    1698             =*******************************************************************
 000000                00000 00009  1699             =@SBINIT RECORD BEGIN
 000000                             1707  1          =@SBILEN   DS    A                   Length of a buffer
 000004                             1708  1          =@SBICNT   DS    A                   Count of buffers in pool
 000008 00                          1709  1          =@SBIFLG   FLAG  ,                   Where to create pool flags
                                    1713  1          =*Not supported yet FLAG  @SBLUSR User memory local to the addr space
 @SBIFLG.@SBLSYS   80 ONES          1714  1          =           FLAG  @SBLSYS            Sys memory local to the addr space
                                    1719  1          =*Not supported yet FLAG  @SBGLLO Global memory below the line
 @SBIFLG.@SBGLHI   40 ONES          1720  1          =           FLAG  @SBGLHI            Global memory above the line
 @SBIFLG.@SBFIX    20 ONES          1725  1          =           FLAG  @SBFIX             Create in fixed memory
 000009                00009 00009  1730             =         END   ,
0                                   1740             =*******************************************************************
                                    1741             =*                                                                 *
                                    1742             =* Buffer pool get                                                 *
                                    1743             =*                                                                 *
                                    1744             =*******************************************************************
 000000                00000 0000C  1745             =@SBGET  RECORD BEGIN
 000000                             1753  1          =@SBGPOO   DS    A                   Buffer pool address
 000004                             1754  1          =@SBGADR   DS    A                   Buffer address
 000008                             1755  1          =@SBGLEN   DS    A                   Buffer length
 00000C                0000C 0000C  1756             =         END   ,
0                                   1766             =*******************************************************************
                                    1767             =*                                                                 *
                                    1768             =* Buffer pool free                                                *
                                    1769             =*                                                                 *
                                    1770             =*******************************************************************
 000000                00000 00008  1771             =@SBFREE RECORD BEGIN
 000000                             1779  1          =@SBFPOO   DS    A                   Buffer pool address
 000004                             1780  1          =@SBFADR   DS    A                   Buffer address
 000008                00008 00008  1781             =         END   ,
0000000                00000 00020  1791             =SBWAIT  RECORD BEGIN               System buffer wait block
 000000                             1799  1          =SBWFP      DS    A
 000004                             1800  1          =SBWBP      DS    A
 000008 E2C2E640                    1801  1          =SBWBID     DC    CL4'SBW'
 00000C                             1802  1          =SBWADR     DS   0A                   Address of buffer now available
 00000C                             1803  1          =SBWASB     DS    A                   Address space
 000010                             1804  1          =SBWECB     DS    D                   Wait ECB
 000018                             1805  1          =SBWORD1    DS    A                   Various
 00001C                             1806  1          =SBWORD2    DS    A                   Various
1FILESERV (FILESE) (09:39) (22MAR04) FILESERV - Global data areas                                                           Page   15
0Current Usings:  (PZERO,R0)
0Loc    Object Code    Addr1 Addr2  Stmt Lv Lineno    Source Statement           (Hibal 5, Asmedit 3.3)  HLASM R4.0  2004/03/22 09.39
+___    ______ ____    _____ _____  ____ __ ______    ______ _________
0000020                00020 00020  1807             =         END   ,
1FILESERV (FILESE) (09:39) (22MAR04) FILESERV - Global data areas                                                           Page   16
0Current Usings:  (PZERO,R0)
0Loc    Object Code    Addr1 Addr2  Stmt Lv Lineno    Source Statement           (Hibal 5, Asmedit 3.3)  HLASM R4.0  2004/03/22 09.39
+___    ______ ____    _____ _____  ____ __ ______    ______ _________
0                                   1817      19.              COPY  FIOPARM                 File I/O parameters
                                    1818=            =¿þþþþþþþþþþþþþþþþþþþþþþþþþþþþþþþþþþþþþþþþþþþþþþþþþþþþþþþþþþþþþþþþþþþþþÜ
                                    1819=            =Ÿ                                                                     Ÿ
                                    1820=            =Ÿ    FIOPARM -- ORVYL File System I/O request parameters.             Ÿ
                                    1821=            =Ÿ      Modified, 7/90, for file caching, Niz                          Ÿ
                                    1822=            =Ÿ                                                                     Ÿ
                                                      ¾þþþþþþþþþþþþþþþþþþþþþþþþþþþþþþþþþþþþþþþþþþþþþþþþþþþþþþþþþþþþþþþþþþþþþ»
0                                   1824=            =         ¿þþþþþþþþþþþþþþþþþþþþþþþþþþþþþþþþþþþþÜ
                                    1825=            =         Ÿ  Common prefix for every request.  Ÿ
                                    1826=            =         ¾þþþþþþþþþþþþþþþþþþþþþþþþþþþþþþþþþþþþ»
 000000                00000 00004  1827             =#FIOCOM  RECORD BEGIN
 000000                             1835  1          =#FIOCMD    DS    A
                                    1836= 1          =           ¿þþþþþþþþþþþþþþþþþþþþþþþþþþþþþþþþþþÜ
                                    1837= 1          =           Ÿ  File Device I/O command codes.  Ÿ
                                    1838= 1          =           ¾þþþþþþþþþþþþþþþþþþþþþþþþþþþþþþþþþþ»
                                    1839  1          =#FCOPEN    EQU   4                       Open action code
                                    1840  1          =#FCCLOSE   EQU   8                       Close I/O code
                                    1841  1          =#FCREAD    EQU   12                      Read I/O code
                                    1842  1          =#FCWRITE   EQU   16                      Write I/O code
 000004                00004 00004  1843             =         END
                                    1852=            =         ¿þþþþþþþþþþþþþþþþþþþþþþþþþþþþþÜ
                                    1853=            =         Ÿ  File Device Open request.  Ÿ
                                    1854=            =         ¾þþþþþþþþþþþþþþþþþþþþþþþþþþþþþ»
 000000                00000 0000C  1855             =#FIOOPEN RECORD BEGIN
 000000                             1863  1          =#FIOOCMD   DS    XL(L'#FIOCOM)
 000004                             1864  1          =#FIOALLO   DS    A                       Data set allocation info
 000008                             1865  1          =#FIOINFO   DS    A                       Data set info return area
 00000C                0000C 0000C  1866             =         END
                                    1875=            =         ¿þþþþþþþþþþþþþþþþþþþþþþþþþþþþþþÜ
                                    1876=            =         Ÿ  File Device Close request.  Ÿ
                                    1877=            =         ¾þþþþþþþþþþþþþþþþþþþþþþþþþþþþþþ»
 000000                00000 00004  1878             =#FICLOSE RECORD BEGIN
 000000                             1886  1          =#FIOCCMD   DS    XL(L'#FIOCOM)
 000004                00004 00004  1887             =         END
                                    1896=            =         ¿þþþþþþþþþþþþþþþþþþþþþþþþþþþþþþþþþþÜ
                                    1897=            =         Ÿ  File Read/Write block request.  Ÿ
                                    1898=            =         ¾þþþþþþþþþþþþþþþþþþþþþþþþþþþþþþþþþþ»
 000000                00000 00028  1899             =#FIODO   RECORD BEGIN
 000000                             1907  1          =#FIODCMD   DS    XL(L'#FIOCOM)       I/O opcode (read or write)
                                    1908  1          =
 000004                             1909  1          =#FIOFSID   DS    F                   File system id
 000008                             1910  1          =#FIOBLKID   DS   F                   Block number in file system
                                    1911  1          =
 00000C                             1912  1          =#FIOHDRP   DS    A                   Block header virtual address
 000010                             1913  1          =#FIOHDRL   DS    F                   Block header length
                                    1914  1          =
 000014                             1915  1          =#FIODATAP   DS   A                   Data area virtual address
 000018                             1916  1          =#FIODATAL   DS   F                   Data area length
                                    1917  1          =
 00001C                             1918  1          =#FIORBLK   DS    F                   Block number relative to RDB
 000020                             1919  1          =#FIOIDALR   DS   A                   Orvyl real address of IDAL
 000024                             1920  1          =#FIOHDRR    DS   A                   Orvyl real address of header
 000028                00028 00028  1921             =         END
1FILESERV (FILESE) (09:39) (22MAR04) FILESERV - Global data areas                                                           Page   17
0Current Usings:  (PZERO,R0)
0Loc    Object Code    Addr1 Addr2  Stmt Lv Lineno    Source Statement           (Hibal 5, Asmedit 3.3)  HLASM R4.0  2004/03/22 09.39
+___    ______ ____    _____ _____  ____ __ ______    ______ _________
0                                   1931      21.              COPY  DSALPARM                DASD allocation parms
                                    1932             =*******************************************************************
                                    1933             =*                                                                 *
                                    1934             =*    @DSDALLO - Parameters for dynamic allocation routine         *
                                    1935             =*                                                                 *
                                    1936             =*******************************************************************
0000000                00000 00004  1938             =@DSDALLO RECORD BEGIN
 000000                             1946  1          =@DSDPARM   DS    A                       Pointer to @DSALLO parm area
 000004                00004 00004  1947             =         END   ,
-
                                    1957             =*******************************************************************
                                    1958             =*                                                                 *
                                    1959             =*    @DSALLO  - Data set allocation parameters                    *
                                    1960             =*                                                                 *
                                    1961             =*******************************************************************
0000000                00000 00060  1963             =@DSALLO  RECORD BEGIN
 000000                             1971  1          =@DSDSID    DS    A                       Device id
 000004                             1972  1          =@DSDSN     DS    CL44                    Data set name
 000030                             1973  1          =@DSMEM     DS    CL8                     Memeber name or GDG
 000038                             1974  1          =@DSDDN     DS    CL8                     DD name
 000040                             1975  1          =@DSVOL     DS    CL6                     Volume id
 000046                             1976  1          =@DSRTN     DS    H                       Return code from SVC 99
 000048                             1977  1          =@DSERR     DS    H                       Error code from SVC 99
 00004A                             1978  1          =@DSRSN     DS    H                       Reason code from SVC 99
                                    1979  1          =
 00004C 00                          1980  1          =@DSFLAG    FLAG  ,
 @DSFLAG.@DSSHR    80 ONES          1984  1          =           FLAG  @DSSHR                  Data set enqueued share
 @DSFLAG.@DSNEW    40 ONES          1989  1          =           FLAG  @DSNEW                  Data set is new
 @DSFLAG.@DSNOCAT  20 ONES          1994  1          =           FLAG  @DSNOCAT                Do not catalog new data set
 @DSFLAG.@DSGDG    10 ONES          1999  1          =           FLAG  @DSGDG                  Data set needs PROTO.DSCB
                                    2004  1          =*
                                    2005  1          =*  Disk Allocation Information - used only if new data set
                                    2006  1          =*
 00004D 00                          2007  1          =@DSALCF    FLAG  ,                       Allocation flags
 @DSALCF.@DSACYL   80 ONES          2011  1          =           FLAG  @DSACYL                 Cylinder allocation
 @DSALCF.@DSABLK   40 ONES          2016  1          =           FLAG  @DSABLK                 Average block allocation
 @DSALCF.@DSACNTG  20 ONES          2021  1          =           FLAG  @DSACNTG                Contiguous allocation
 @DSALCF.@DSARLSE  10 ONES          2026  1          =           FLAG  @DSARLSE                Release unused space at close
 @DSALCF.@DSARND   08 ONES          2031  1          =           FLAG  @DSARND                 Round up to cylinders
                                    2036  1          =
 000050                             2037  1          =@DSABL     DS    A                       Average block length
 000054                             2038  1          =@DSPTQ     DS    A                       Primary allocation quantity
 000058                             2039  1          =@DSSTQ     DS    A                       Secondary allocation quantity
 00005C                             2040  1          =@DSDBQ     DS    A                       Directory blocks
 000060                00060 00060  2041             =         END   ,
1FILESERV (FILESE) (09:39) (22MAR04) FILESERV - Global data areas                                                           Page   18
0Current Usings:  (PZERO,R0)
0Loc    Object Code    Addr1 Addr2  Stmt Lv Lineno    Source Statement           (Hibal 5, Asmedit 3.3)  HLASM R4.0  2004/03/22 09.39
+___    ______ ____    _____ _____  ____ __ ______    ______ _________
0                                   2051      23.              COPY  PFINFO                  DASD open information
                                    2052             =*******************************************************************
                                    2053             =*                                                                 *
                                    2054             =*    PFINFO - ORVYL Page and File System Description              *
                                    2055             =*                                                                 *
                                    2056             =*******************************************************************
0000000                00000 00020  2058             =#PFINFO  RECORD BEGIN
                                    2066  1          =*
                                    2067  1          =*  Disk Information
                                    2068  1          =*
 000000                             2069  1          =#PFIBKS    DS    A                       Number of blocks
 000004                             2070  1          =#PFIBTK    DS    A                       Blocks per track
 000008                             2071  1          =#PFITCY    DS    A                       Tracks per cylinder
 00000C                             2072  1          =           DS    CL6                     Available
 000012 00                          2073  1          =#PFISPF    FLAG  ,                       Space flags
 #PFISPF.#PFOCYL   80 ONES          2077  1          =           FLAG  #PFOCYL                 Cylinder allocation
 #PFISPF.#PFOCNTG  40 ONES          2082  1          =           FLAG  #PFOCNTG                Single extent
                                    2087  1          =*
                                    2088  1          =*  DCB Information
                                    2089  1          =*
 000013 00                          2090  1          =#PFIDSO    FLAG  ,                       Data set organization
 #PFIDSO.#PFODSQ   40 ONES          2094  1          =           FLAG  (#PFODSQ,X'40')         Sequential
 #PFIDSO.#PFODPO   02 ONES          2103  1          =           FLAG  (#PFODPO,X'02')         Partitioned
 #PFIDSO.#PFODIR   20 ONES          2112  1          =           FLAG  (#PFODIR,X'20')         Direct
                                    2121  1          =
 000014 00                          2122  1          =#PFIRFM    FLAG  ,                       Record Format
 #PFIRFM.#PFORF    80 ONES          2126  1          =           FLAG  (#PFORF,X'80')          Fixed
 #PFIRFM.#PFORV    40 ONES          2135  1          =           FLAG  (#PFORV,X'40')          Variable
 #PFIRFM.#PFORN    C0 ONES          2144  1          =           FLAG  (#PFORN,X'C0')          Undefined
 #PFIRFM.#PFORB    10 ONES          2153  1          =           FLAG  (#PFORB,X'10')          Blocked
                                    2162  1          =
 000015                             2163  1          =#PFIKEY    DS    X                       Key length
 000018                             2164  1          =#PFILRC    DS    A                       Record length
 00001C                             2165  1          =#PFIBLK    DS    A                       Block size
 000020                00020 00020  2166             =         END   ,
1FILESERV (FILESE) (09:39) (22MAR04) FILESERV - Global data areas                                                           Page   19
0Current Usings:  (PZERO,R0)
0Loc    Object Code    Addr1 Addr2  Stmt Lv Lineno    Source Statement           (Hibal 5, Asmedit 3.3)  HLASM R4.0  2004/03/22 09.39
+___    ______ ____    _____ _____  ____ __ ______    ______ _________
0                                   2176      25.              COPY  CACHPARM
                                    2177=            =¿þþþþþþþþþþþþþþþþþþþþþþþþþþþþþþþþþþþþþþþþþþþþþþþþþþþþþþþþþþþþþþþþþþþþþÜ
                                    2178=            =Ÿ                                                                     Ÿ
                                    2179=            =Ÿ        CACHPARM - Caching routine calling parms                     Ÿ
                                    2180=            =Ÿ                                                                     Ÿ
                                                      ¾þþþþþþþþþþþþþþþþþþþþþþþþþþþþþþþþþþþþþþþþþþþþþþþþþþþþþþþþþþþþþþþþþþþþþ»
0000000                00000 00009  2181             =@CAOPEN  RECORD BEGIN              CAOPEN parameters...
 000000                             2189  1          =@CAODLEN   DS    F                   Data entry length
 000004                             2190  1          =@CAONBUF   DS    F                   Number of buffers
 000008 00                          2191  1          =@CAOFLAG   FLAG  ,                   Flag
 @CAOFLAG.@CAOFNOT 80 ONES          2195  1          =           FLAG  @CAOFNOT            Don't dump cache blocks
 000009                00009 00009  2200             =         END
                                    2209=            =þþþþ
 000000                00000 0000C  2210             =@CACTRL  RECORD BEGIN              CACTRL parameters...
 000000                             2218  1          =@CACCIT    DS    A                   CIT ptr
 000004                             2219  1          =@CACCNO    DS    F                   Control number
 000008                             2220  1          =@CACPARM   DS    F                   Control parameter
 00000C                0000C 0000C  2221             =         END
                                    2230=            =þþþþ
 000000                00000 00020  2231             =@CAIO    RECORD BEGIN              CAREAD/CAWRITE parameters...
 000000                             2239  1          =@CAIOCIT   DS    A                   CIT ptr
 000004                             2240  1          =@CAIOHP    DS    A                   Header ptr (move to/from here)
 000008                             2241  1          =@CAIOHL    DS    F                   Header length
 00000C                             2242  1          =@CAIODP    DS    A                   Data ptr   (move to/from here)
 000010                             2243  1          =@CAIODL    DS    F                   Data length
 000018                             2244  1          =@CAIOKEY   DS    D                   64-bit key
 000020                00020 00020  2245             =         END
                                    2254=            =þþþþ
 000000                00000 00004  2255             =@CAVERIFY RECORD BEGIN             CAVERIFY parameters...
 000000                             2263  1          =@CAVRCIT   DS    A                   CIT ptr
 000004                00004 00004  2264             =         END
                                    2273=            =þþþþ
 000000                00000 00004  2274             =@CACLOSE RECORD BEGIN              CACLOSE parameters...
 000000                             2282  1          =@CACLCIT   DS    A                   CIT ptr
 000004                00004 00004  2283             =         END
1FILESERV (FILESE) (09:39) (22MAR04) FILESERV - Global data areas                                                           Page   20
0Current Usings:  (PZERO,R0)
0Loc    Object Code    Addr1 Addr2  Stmt Lv Lineno    Source Statement           (Hibal 5, Asmedit 3.3)  HLASM R4.0  2004/03/22 09.39
+___    ______ ____    _____ _____  ____ __ ______    ______ _________
0                                   2293      27.              COPY  VMPARM                  Virtual memory parameters
                                    2294             =*******************************************************************
                                    2295             =*                                                                 *
                                    2296             =*    Memory parms for inside the virtual machine.                 *
                                    2297             =*                                                                 *
                                    2298             =*******************************************************************
-000000                00000 0000B  2300             =@VMGET   RECORD BEGIN        Parm area for getting virtual memory
 000000                             2308  1          =@VMGLEN    DS    A             Amount of memory needed
 000004                             2309  1          =@VMGDAT    DS    A             More data. Address or maxlen.
 000008                             2310  1          =@VMGPOOL   DS    H             Pool/Subpool to get the memory from
 00000A 00                          2311  1          =@VMGFLG    FLAG  ,
 @VMGFLG.@VMGPAGE  80 ONES          2315  1          =           FLAG  @VMGPAGE      Page Aligned
 @VMGFLG.@VMGONEP  40 ONES          2320  1          =           FLAG  @VMGONEP      Don't cross page boundary
 00000B                0000B 0000B  2325             =         END   ,
-000000                00000 0000A  2335             =@VMFREE  RECORD BEGIN        Used for VMFREE and VMCHECK
 000000                             2343  1          =@VMFLOC    DS    A             Location of the storage to free
 000004                             2344  1          =@VMFLEN    DS    A             Amount to free
 000008                             2345  1          =@VMFPOOL   DS    H             Pool/Subpool where the storage lives
 00000A                0000A 0000A  2346             =         END   ,
-000000                00000 00009  2356             =@VMINFO  RECORD BEGIN        Returns User address limits/hash val
 000000                             2364  1          =@VMIUST    DS    A             Start of the user address space
 000004                             2365  1          =@VMIULEN   DS    A             Length of the user address space
 000008                             2366  1          =@VMITRSH   DS    X             Trash value
 000009                00009 00009  2367             =         END   ,
1FILESERV (FILESE) (09:39) (22MAR04) FILESERV - Global data areas                                                           Page   21
0Current Usings:  (PZERO,R0)
0Loc    Object Code    Addr1 Addr2  Stmt Lv Lineno    Source Statement           (Hibal 5, Asmedit 3.3)  HLASM R4.0  2004/03/22 09.39
+___    ______ ____    _____ _____  ____ __ ______    ______ _________
0                                   2377      29.              COPY  LOCKPARM                Lock parameters
                                    2378             =*******************************************************************
                                    2379             =*                                                                 *
                                    2380             =*    LOCKPARM - Lock routine calling parms                        *
                                    2381             =*                                                                 *
                                    2382             =*******************************************************************
0000000                00000 00011  2384             =@LOCKCRE RECORD BEGIN
 000000                             2392  1          =@LOCKNAM   DS    CL16          Name of the lock
 000010 00                          2393  1          =@LOCKFL    FLAG  ,
 @LOCKFL.@LFSPIN   80 ONES          2397  1          =           FLAG  @LFSPIN       Spin type lock
 000011                00011 00011  2402             =         END   ,
                                    2411             =*
 000000                00000 00004  2412             =@LOCKS   RECORD BEGIN
 000000                             2420  1          =@LOCKID    DS    A             Lock id
 000004                00004 00004  2421             =         END   ,
1FILESERV (FILESE) (09:39) (22MAR04) FILESERV - Global data areas                                                           Page   22
0Current Usings:  (PZERO,R0)
0Loc    Object Code    Addr1 Addr2  Stmt Lv Lineno    Source Statement           (Hibal 5, Asmedit 3.3)  HLASM R4.0  2004/03/22 09.39
+___    ______ ____    _____ _____  ____ __ ______    ______ _________
0                                   2431      31.              COPY  SMFPFX
 000000                00000 00018  2432             =SMFPFX   RECORD BEGIN
                                    2440  1          =SMFNUM     EQU   183                     SMF number for us
                                    2441  1          =
 000000                             2442  1          =           DS    8X                      - Available -
 000008                             2443  1          =SMFSYSTM   DS    CL8                     Subsystem name
 000010                             2444  1          =SMFCAT     DS    CL4                     Record category
 000014                             2445  1          =SMFNSEG    DS    A                       Number of data segments
 000018                00018 00018  2446             =         END   ,
-
0                                   2456      33.              COPY  SMFFILE
 000000                00000 00030  2457             =SMFFILE  RECORD BEGIN
 000000                             2465  1          =SMFFPFX    DS    XL(L'SMFPFX)
 000018                             2466  1          =SMFFGLOC   DS    A                       Offset of general section
 00001C                             2467  1          =SMFFLOC    DS    A                       Offset to file system
                                    2468  1          =*
                                    2469  1          =*  General section
                                    2470  1          =*
 000020                             2471  1          =SMFFGLEN   DS    A                       Length of this record
 000024                             2472  1          =SMFFTIME   DS    A                       Interval of this record
                                    2473  1          =SMFFGEN    EQU   SMFFGLEN,*-SMFFGLEN,C'X'
                                    2474  1          =*
                                    2475  1          =*  File System section
                                    2476  1          =*
 000028                             2477  1          =SMFFLEN    DS    A                       Length of file section
 00002C                             2478  1          =SMFFNFS    DS    A                       Number of file systems
                                    2479  1          =SMFFFILE   EQU   SMFFLEN,*-SMFFLEN,C'X'
 000030                00030 00030  2480             =         END   ,
-000000                00000 00008  2490      35.     SMFFSDAT RECORD BEGIN
 000000                             2498  1   36.     SMFFSIOC   DS    A                       I/O count
 000004                             2499  1   37.     SMFFSTIM   DS    A                       I/O time
 000008                00008 00008  2500      38.              END   ,
1FILESERV (FILESE) (09:39) (22MAR04) FILESERV - Global data areas                                                           Page   23
0Current Usings:  (PZERO,R0)
0Loc    Object Code    Addr1 Addr2  Stmt Lv Lineno    Source Statement           (Hibal 5, Asmedit 3.3)  HLASM R4.0  2004/03/22 09.39
+___    ______ ____    _____ _____  ____ __ ______    ______ _________
0                                   2510      40.              COPY  PARMPARM
                                    2511             =*********************************************************************
                                    2512             =*                                                                   *
                                    2513             =*          Parameters to obtain initialization parameters           *
                                    2514             =*                                                                   *
                                    2515             =*********************************************************************
0000000                00000 00010  2517             =@PARMDO  RECORD BEGIN
 000000                             2525  1          =@PARILOC   DS    A                       Input location
 000004                             2526  1          =@PARILEN   DS    A                       | length
 000008                             2527  1          =@PAROLOC   DS    A                       Output location
 00000C                             2528  1          =@PAROLEN   DS    A                       | length
 000010                00010 00010  2529             =         END   ,
0000000                00000 00004  2539             =PARMIN   RECORD BEGIN
 000000 00                          2547  1          =PARMTYPE   FLAG  ,
 PARMTYPE.PARMFSTR 00 EQ            2551  1          =           FLAG  (PARMFSTR,0,EQ)         Return a string
 PARMTYPE.PARMFINT 04 EQ            2561  1          =           FLAG  (PARMFINT,4,EQ)         Return an integer
 PARMTYPE.PARMFYN  08 EQ            2571  1          =           FLAG  (PARMFYN,8,EQ)          Return Yea or Nay
 PARMTYPE.PARMFFLT 0C EQ            2581  1          =           FLAG  (PARMFFLT,12,EQ)        Return a floating point
 000001                             2591  1          =           DS    3X                      - Available -
 000004                             2592  1          =PARMKEYS   DS    0A                      Start of 8 byte keys
 000004                00004 00004  2593             =         END   ,
1FILESERV (FILESE) (09:39) (22MAR04) FILESERV - Global data areas                                                           Page   24
0Current Usings:  (PZERO,R0)
0Loc    Object Code    Addr1 Addr2  Stmt Lv Lineno    Source Statement           (Hibal 5, Asmedit 3.3)  HLASM R4.0  2004/03/22 09.39
+___    ______ ____    _____ _____  ____ __ ______    ______ _________
0                                   2603      42.              COPY  PAGEPARM
                                    2604             =*
                                    2605             =*  Page fault return codes
                                    2606             =*
                                    2607             =@PFRINP  EQU   0                       Fault in progress
                                    2608             =@PFRADDR EQU   4                       Addressing exception
                                    2609             =@PFROK   EQU   8                       Fault resolved
                                    2610             =@PFRWAIT EQU   12                      Must wait for some resource
0000000                00000 00005  2612             =@PAGSWAP RECORD BEGIN
 000000                             2620  1          =@SWASB     DS    A                       Address of ASB being swapped
                                    2621  1          =* -- Return parameters --
 000004 00                          2622  1          =@SWFLG     FLAG  ,
 @SWFLG.@SWFINP    00 EQ            2626  1          =           FLAG  (@SWFINP,0,EQ)          Swap in progress
 @SWFLG.@SWFOK     04 EQ            2636  1          =           FLAG  (@SWFOK,4,EQ)           Swap done now
 @SWFLG.@SWFWAIT   08 EQ            2646  1          =           FLAG  (@SWFWAIT,8,EQ)         Must wait for some resource
 000005                00005 00005  2656             =         END   ,
0000000                00000 00004  2666             =@PAGSWADV RECORD BEGIN                 Give swap advice
 000000                             2674  1          =@ADVASB    DS    A                       ASB of advice
 000004                00004 00004  2675             =         END   ,
0000000                00000 0000D  2685             =@PAGWSMA RECORD BEGIN                  Working Set management
 000000                             2693  1          =@WSASB     DS    A                       ASB of AS to be managed
 000004                             2694  1          =@WSINT     DS    A                       Number of elapsed intervals
 000008                             2695  1          =@WSLIMIT   DS    A                       Maximum number of frames
 00000C 00                          2696  1          =@WSFLG     FLAG  ,
 @WSFLG.@WSFGLOB   80 ONES          2700  1          =           FLAG  @WSFGLOB                Manage Global AS
 00000D                0000D 0000D  2705             =         END   ,
0000000                00000 0000A  2715             =@PAGDEF  RECORD BEGIN                  Define a page
 000000                             2723  1          =@PDADDR    DS    A                       Page VA
 000004                             2724  1          =@PDLEN     DS    A                       Length of definition (bytes)
 000008                             2725  1          =@PDKEY     DS    X                       Storage key (+ key protect)
                                    2726  1          =* @PDHASH  DS    X                       Hash value for page
 000009 00                          2727  1          =@PDF1      FLAG  @PDFGLOB                In global memory
 @PDF1.@PDFGLOB    80 ONES
 @PDF1.@PDFPROT    40 ONES          2733  1          =           FLAG  @PDFPROT                Page table protection
 00000A                0000A 0000A  2738             =         END   ,
0000000                00000 0000A  2748             =@PAGSEGD RECORD BEGIN                  Define a segment
 000000                             2756  1          =@SDADDR    DS    A                       Segment address
 000004                             2757  1          =@SDLEN     DS    A                       Length of definition (bytes)
 000008                             2758  1          =@SDHASH    DS    X                       Hash value for segment
 000009 00                          2759  1          =@SDF1      FLAG  @SDFGLOB                In global memory
 @SDF1.@SDFGLOB    80 ONES
 00000A                0000A 0000A  2765             =         END   ,
0000000                00000 00008  2775             =@PAGASC1 RECORD BEGIN
 000000                             2783  1          =@ASCASB    DS    A                       ASB for AS being created
 000004                             2784  1          =@ASCWSLM   DS    A                       Maximum size of working set
 000008                00008 00008  2785             =         END   ,
0000000                00000 00005  2795             =@PAGASC2 RECORD BEGIN                  Address space creation
1FILESERV (FILESE) (09:39) (22MAR04) FILESERV - Global data areas                                                           Page   25
0Current Usings:  (PZERO,R0)
0Loc    Object Code    Addr1 Addr2  Stmt Lv Lineno    Source Statement           (Hibal 5, Asmedit 3.3)  HLASM R4.0  2004/03/22 09.39
+___    ______ ____    _____ _____  ____ __ ______    ______ _________
0000000                             2803  1          =@ASCVA     DS    A                       Virtual address of 1st PT
 000004                             2804  1          =@ASCKEY    DS    X                       Storage key (+ key protect)
 000005                00005 00005  2805             =         END   ,
0000000                00000 00009  2815             =@PAGE    RECORD BEGIN                  General paging routine parms
 000000                             2823  1          =@PAGLOC    DS    A                       Virtual address
 000004                             2824  1          =@PAGLEN    DS    A                       Length (in bytes)
 000008                             2825  1          =@PAGKEY    DS    X                       Key - where required
                                    2826  1          =@PAGHASH   EQU   @PAGKEY                 Hash - where required
 000009                00009 00009  2827             =         END   ,
0000000                00000 00008  2837             =@PAGRV   RECORD BEGIN                  Real to virtual translation
 000000                             2845  1          =@PAGRVAD   DS    A                       Real addr to be translated
                                    2846  1          =* -- Return parms --
 000004                             2847  1          =@PAGRVASB   DS   A                       Address space block
 000008                00008 00008  2848             =         END   ,
0000000                00000 00004  2858             =@PAGINTV RECORD BEGIN                  Paging management interval
 000000                             2866  1          =@PAGINT    DS    A                       Number of intervals in cycle
 000004                00004 00004  2867             =         END   ,
0000000                00000 00008  2877             =@PAGINIT RECORD BEGIN                  Global initialization
 000000                             2885  1          =@PAGIASB   DS    A                       Global ASB address
 000004                             2886  1          =@PAGIMEG   DS    A                       Maximum number of bytes in VA
 000008                00008 00008  2887             =         END   ,
1FILESERV (FILESE) (09:39) (22MAR04) FILESERV - Global data areas                                                           Page   26
0Current Usings:  (PZERO,R0)
0Loc    Object Code    Addr1 Addr2  Stmt Lv Lineno    Source Statement           (Hibal 5, Asmedit 3.3)  HLASM R4.0  2004/03/22 09.39
+___    ______ ____    _____ _____  ____ __ ______    ______ _________
0                                   2897      44.              COPY  FILEPARM                Parameters for this module
                                    2898             =*****************************************************************
                                    2899             =*                                                               *
                                    2900             =*  FILEPARM -- Parameters dealing with FILE SVC I/O.            *
                                    2901             =*                                                               *
                                    2902             =*****************************************************************
-                                   2904             =*
                                    2905             =*  M1FILE  --  Mode 1 file operation
                                    2906             =*
                                    2907             =*  RVR =  0 all ok
                                    2908             =*           wait user flags indicate which wait regs to set if any
                                    2909             =*  RVR <> 0 if   panic word <> 0, panic user
                                    2910             =*           else return registers
                                    2911             =*
0000000                00000 00029  2913             =@M1FILE  RECORD BEGIN
 000000                             2921  1          =@M1FR14    DS    A             Contents of R14 at SVC time
 000004                             2922  1          =@M1FR15    DS    A             Contents of R15 at SVC time
 000008                             2923  1          =@M1FR00    DS    A             Contents of R0  at SVC time
 00000C                             2924  1          =@M1FR01    DS    A             Contents of R1  at SVC time
                                    2925  1          =@M1FREG    EQU   @M1FR14,*-@M1FR14
0000010                             2927  1          =@M1FWR14   DS    A             Wait return registers
 000014                             2928  1          =@M1FWR15   DS    A             These are set at SVC time when
 000018                             2929  1          =@M1FWR01   DS    A             be used to set the return registers
000001C                             2931  1          =@M1FRQID   DS    A             Request ID (IDT)
 000020                             2932  1          =@M1FDVID   DS    A             Request block id (RQFB)
                                    2933  1          =
 000024                             2934  1          =@M1FILID   DS    X             File ID (IDT index)
                                    2935  1          =
 000025 00                          2936  1          =@M1FLAG    FLAG  ,
 @M1FLAG.@M1FCLP   80 ONES          2940  1          =           FLAG  @M1FCLP       CLP attach
 @M1FLAG.@M1FSPI   40 ONES          2945  1          =           FLAG  @M1FSPI       Spires attached
 @M1FLAG.@M1FM31   20 ONES          2950  1          =           FLAG  @M1FM31       User in 31 bit mode
0000026                             2956  1          =@M1FPKEY   DS    X             PSW key of requestor
0000027                             2958  1          =@M1FPRIV   DS    X             Signed on privileges
0000028 00                          2960  1          =@M1FTYPE   FLAG  ,             I/O type
 @M1FTYPE.@M1FATCH 04 EQ            2964  1          =           FLAG  (@M1FATCH,4,EQ)   Attach
 @M1FTYPE.@M1FREAD 08 EQ            2974  1          =           FLAG  (@M1FREAD,8,EQ)   Read
 @M1FTYPE.@M1FWRIT 0C EQ            2984  1          =           FLAG  (@M1FWRIT,12,EQ)  Write
 @M1FTYPE.@M1FCONT 10 EQ            2994  1          =           FLAG  (@M1FCONT,16,EQ)  Control
 @M1FTYPE.@M1FSTAT 14 EQ            3004  1          =           FLAG  (@M1FSTAT,20,EQ)  Status
 @M1FTYPE.@M1FDTCH 18 EQ            3014  1          =           FLAG  (@M1FDTCH,24,EQ)  Detach
 @M1FTYPE.@M1FRSRV 1C EQ            3024  1          =           FLAG  (@M1FRSRV,28,EQ)  Reserve
 @M1FTYPE.@M1FRLSE 20 EQ            3034  1          =           FLAG  (@M1FRLSE,32,EQ)  Release
 000029                00029 00029  3044             =         END   ,
1FILESERV (FILESE) (09:39) (22MAR04) FILESERV - Global data areas                                                           Page   27
0Current Usings:  (PZERO,R0)
0Loc    Object Code    Addr1 Addr2  Stmt Lv Lineno    Source Statement           (Hibal 5, Asmedit 3.3)  HLASM R4.0  2004/03/22 09.39
+___    ______ ____    _____ _____  ____ __ ______    ______ _________
0                                   3054             =*
                                    3055             =*   M1FPOST -- This area maps the parm area of the FILE
                                    3056             =*              I/O complete exit.
                                    3057             =*
-000000                00000 00010  3059             =@M1FPOST RECORD BEGIN
 000000                             3067  1          =@M1FPRQI   DS    A             Request id (IDT)
                                    3068  1          =@M1FREDV   EQU   X'80'         Free the device please
 000004                             3069  1          =@M1FPR14   DS    A             Value of R14 to be returned to user
 000008                             3070  1          =@M1FPR15   DS    A             Value of R15 to be returned to user
 00000C                             3071  1          =@M1FPR01   DS    A             Value of R1 to be returned to user
 000010                00010 00010  3072             =         END   ,
-                                   3082             =*
                                    3083             =*  @FILEBLKI -- This area maps the parm area of the FILE
                                    3084             =*               system info area
                                    3085             =*
-000000                00000 00025  3087             =@FILEBLKI RECORD BEGIN                 File system block information
 000000                             3095  1          =@FILFSID   DS    A                       File system ID
                                    3096  1          =* -- Return Parameters --
 000004                             3097  1          =@FILTBLK   DS    A                       Total blocks in file system
 000008                             3098  1          =@FILABLK   DS    A                       Available blocks in file sys
 00000C                             3099  1          =@FILUMAX   DS    A                       Maximum user block allocation
 000010                             3100  1          =@FILNAME   DS    CL8                     File system name
 000018                             3101  1          =@FILCACT   DS    D                   Number of cache reads
 000020                             3102  1          =@FILIOCT   DS    F                   Number of I/O's
 000024 00                          3103  1          =@FILFLAG   FLAG  ,
 @FILFLAG.@FILFNA  80 ONES          3107  1          =           FLAG  @FILFNA                 Not available
 @FILFLAG.@FILFRO  40 ONES          3112  1          =           FLAG  @FILFRO                 Read only
 @FILFLAG.@FILFCAC 20 ONES          3117  1          =           FLAG  @FILFCACHE              File caching is enabled
 @FILFLAG.@FILF4K  10 ONES          3122  1          =           FLAG  @FILF4K                 4K file system
 000025                00025 00025  3127             =         END   ,
-                                   3137             =*
                                    3138             =*  @FILINFO -- This area maps the parm area of the individual
                                    3139             =*              file information area.
                                    3140             =*
-000000                00000 00036  3142             =@FMFINFO RECORD BEGIN
 000000                             3150  1          =@FMFIDID   DS    A                       Address of this file's ID
                                    3151  1          =*  Returned parameters
 000004                             3152  1          =@FMFIBLK   DS    A                       Number of blocks in file
 000008                             3153  1          =@FMFIPRI   DS    X                       File privileges
 000009 00                          3154  1          =@FMFIFLG   FLAG  ,
 @FMFIFLG.@FMFISHR 80 ONES          3158  1          =           FLAG  @FMFISHR                Shared file
 @FMFIFLG.@FMFIRSV 40 ONES          3163  1          =           FLAG  @FMFIRSV                Reserved
 @FMFIFLG.@FMFITMP 20 ONES          3168  1          =           FLAG  @FMFITMP                Temporary
 @FMFIFLG.@FMFINIX 10 ONES          3173  1          =           FLAG  @FMFINIX                Non-IXRed
1FILESERV (FILESE) (09:39) (22MAR04) FILESERV - Global data areas                                                           Page   28
0Current Usings:  (PZERO,R0)
0Loc    Object Code    Addr1 Addr2  Stmt Lv Lineno    Source Statement           (Hibal 5, Asmedit 3.3)  HLASM R4.0  2004/03/22 09.39
+___    ______ ____    _____ _____  ____ __ ______    ______ _________
0@FMFIFLG.@FMFIATT 08 ONES          3178  1          =           FLAG  @FMFIATT                File being attached
 @FMFIFLG.@FMFIHYB 04 ONES          3183  1          =           FLAG  @FMFIHYB                Hybrid file
 00000A                             3188  1          =@FMFINAM   DS    CL44                    File name
 000036                00036 00036  3189             =         END   ,
-                                   3199             =*
                                    3200             =*  @FILEHALT -- This maps the parm area of the file HALT service
                                    3201             =*
-000000                00000 00004  3203             =@FILEHALT RECORD BEGIN
 000000                             3211  1          =@FHRQID    DS    A                       Request ID to be halted (RQB)
 000004                00004 00004  3212             =         END   ,
0000000                00000 00004  3222             =@FMRQFB  RECORD BEGIN
 000000                             3230  1          =@FMRQFBP   DS    A
 000004                00004 00004  3231             =         END   ,
-000000                00000 00005  3242             =@FMFSB  RECORD BEGIN
 000000                             3250  1          =@FMFSBP    DS    A
 000004 00                          3251  1          =@FMFSBF    FLAG  ,
 @FMFSBF.@FMFSBO   80 ONES          3255  1          =           FLAG  @FMFSBO             Flag is on
 000005                00005 00005  3260             =         END   ,
0000000                00000 00010  3270             =@FDOIODO RECORD BEGIN              IO read/write routine
 000000                             3278  1          =@FDOFSB    DS    A                   FSB address
 000004                             3279  1          =@FDOBLK    DS    A                   Block number
 000008                             3280  1          =@FDODATA   DS    A                   Data address
 00000C                             3281  1          =@FDODATL   DS    H                   Data length
 00000E                             3282  1          =@FDOTYPE   DS    X                   Block type
 00000F 00                          3283  1          =@FDOFLAG   FLAG  ,
 @FDOFLAG.@FDOFR   80 ONES          3287  1          =           FLAG  @FDOFR              Read
 @FDOFLAG.@FDOFW   40 ONES          3292  1          =           FLAG  @FDOFW              Write
 @FDOFLAG.@FDOFUSE 20 ONES          3297  1          =           FLAG  @FDOFUSE            User record IO
 @FDOFLAG.@FDOS106 10 ONES          3302  1          =           FLAG  @FDOS106            Status 106, read real block
 @FDOFLAG.@FDOS115 08 ONES          3307  1          =           FLAG  @FDOS115            Status 115, read block header
 @FDOFLAG.@FDODISK 04 ONES          3312  1          =           FLAG  @FDODISK            Read from disk, not cache
 000010                00010 00010  3317             =         END   ,
0000000                00000 00008  3327             =@FSADDV RECORD BEGIN
 000000                             3335  1          =@FSADDVF   DS    A                   File system name pointer
 000004                             3336  1          =@FSADDVD   DS    A                   DSN name pointer
 000008                00008 00008  3337             =         END   ,
1FILESERV (FILESE) (09:39) (22MAR04) FILESERV - Global data areas                                                           Page   29
0Current Usings:  (PZERO,R0)
0Loc    Object Code    Addr1 Addr2  Stmt Lv Lineno    Source Statement           (Hibal 5, Asmedit 3.3)  HLASM R4.0  2004/03/22 09.39
+___    ______ ____    _____ _____  ____ __ ______    ______ _________
0                                   3347      46.              COPY  FBHDR
 000000                00000 00014  3348             =FBHDR    RECORD BEGIN
                                    3356  1          =*
                                    3357  1          =*  ORVYL File Block Header Field
                                    3358  1          =*
 000000                             3359  1          =FBHBLOCK   DS    AL3                     Block number in file system
 000003                             3360  1          =FBHTYPE    DS    AL1                     Block type
                                    3361  1          =
                                    3362  1          =FBHTFSMB   EQU   X'FF'                   File System Master Block
                                    3363  1          =FBHTCAT    EQU   X'80'                   Catalog
                                    3364  1          =FBHTBIT    EQU   X'40'                   Bit Map
                                    3365  1          =FBHTZIXR   EQU   X'10'                   ZIXR
                                    3366  1          =FBHTIXR    EQU   X'08'                   IXR
                                    3367  1          =FBHTSIXR   EQU   X'04'                   SIXR
                                    3368  1          =FBHTMIXR   EQU   X'02'                   MIXR
                                    3369  1          =FBHTUSER   EQU   X'01'                   User data block
                                    3370  1          =FBHTIXRT   EQU   FBHTIXR+FBHTSIXR+FBHTMIXR+FBHTZIXR
                                    3371  1          =FBHTBICA   EQU   FBHTCAT+FBHTBIT
                                    3372  1          =FBHTSYSR   EQU   FBHTIXRT+FBHTBICA
                                    3373  1          =
 000004                             3374  1          =           DS    AL2                     Reserved
 000006                             3375  1          =FBHLEN     DS    AL2                     User data length in block
 000008                             3376  1          =FBHTIME    DS    AL4                     Time (STCK) block written
                                    3377  1          =
                                    3378  1          =FBHDTLEN   EQU   *-FBHDR                 Saved header length (VDMP)
 00000C                             3379  1          =FBHAVAIL   DS    2AL4                    Available
 000014                00014 00014  3380             =         END   ,
1FILESERV (FILESE) (09:39) (22MAR04) FILESERV - Global data areas                                                           Page   30
0Current Usings:  (PZERO,R0)
0Loc    Object Code    Addr1 Addr2  Stmt Lv Lineno    Source Statement           (Hibal 5, Asmedit 3.3)  HLASM R4.0  2004/03/22 09.39
+___    ______ ____    _____ _____  ____ __ ______    ______ _________
0                                   3390      48.              COPY  FSB
 000000                00000 001E0  3391             =FSB      RECORD BEGIN
                                    3399  1          =CCAT0PCT   EQU   10                      % OF FREE BLOCKS FOR WARNING
                                    3400  1          =CCAT0MIN   EQU   60                      MIN FREE BEFORE WARNING
                                    3401  1          =CCAT1PCT   EQU   5                       % OF MIN LOGICAL FREE BLOCKS
                                    3402  1          =CCAT1MIN   EQU   60                      MIN FREE LOGICAL BLOCK NUM
                                    3403  1          =CCAT2PCT   EQU   1                       % OF MIN FREE BLOCKS
                                    3404  1          =CCAT2MIN   EQU   10                      MIN FREE BLOCK NUM
                                    3405  1          =
                                    3406  1          =CNODA99    EQU   72,72,C'N'              99th percentile
                                    3407  1          =CNODF99    EQU   65,65,C'N'              Non permit len, no per, max name
                                    3408  1          =
                                    3409  1          =CFSBFLSZ   EQU   40                      MAX FIL NAME LEN(DOTS, ~"ORV.")
                                    3410  1          =CFSBNDOT   EQU   38                      MAX FIL NAME LEN(~DOTS, ~"ORV.")
                                    3411  1          =CFSBNMSZ   EQU   33                      MAX NAME LEN TO SEARCH
                                    3412  1          =CFSBDBLK   EQU   3                       3 DOUBLE WRITE BLOCKS
                                    3413  1          =CFSBSTK    EQU   7                       STACK DEPTH OF 7
                                    3414  1          =CFSBMXNT   EQU   256+41                  MAX ENTRY LENGTH
                                    3415  1          =OBLKPL     EQU   3,3,C'N'                ORVYL FILE BLOCK POINTER LEN
                                    3416  1          =BL         EQU   2,2,C'N'                BLOCK POINTER LEN
                                    3417  1          =OL         EQU   2,2,C'N'                OFFSET POINTER LEN
                                    3418  1          =PL         EQU   BL+OL,BL+OL,C'N'        TOTAL POINTER LEN
                                    3419  1          =           GBLA  &BL,&L
                                    3420  1          =&BL        SETA  L'BL
                                    3421  1          =&L         SETA  L'PL                    TOTAL POINTER LENGTH
                                    3422  1          =*
                                    3423  1          =*  FILE SYSTEM BLOCK
                                    3424  1          =*
 000000 C6E2C240                    3425  1          =FSBBID     DC    CL4'FSB'                BLOCK ID
                                    3426  1          =
 000004                             3427  1          =FSBCHAIN   DS    A                       NEXT FSB ON CHAIN
                                    3428  1          =
 000008                             3429  1          =FSBID      DS    X                       FILE-SYSTEM ID NUMBER
                                    3430  1          =
 000009 00                          3431  1          =FSBAFLGS   FLAG  ,                       FILE-SYSTEM AVAILABILITY
 FSBAFLGS.FSBANAVL 80 ONES          3435  1          =           FLAG  FSBANAVL                NOT AVAILABLE
 FSBAFLGS.FSBARO   40 ONES          3440  1          =           FLAG  FSBARO                  READ-ONLY STATUS
 FSBAFLGS.FSBINIT  20 ONES          3445  1          =           FLAG  FSBINIT                 INITIALIZATION PROCESS
 FSBAFLGS.FSBCLOSE 10 ONES          3450  1          =           FLAG  FSBCLOSE                SHUTDOWN PROCESS
 FSBAFLGS.FSBCATNI 08 ONES          3455  1          =           FLAG  FSBCATNIN               CATALOG IN NoInsert MODE
 FSBAFLGS.FSBCATNL 04 ONES          3460  1          =           FLAG  FSBCATNLM               CATALOG IN NoLenMod MODE
                                    3465  1          =
 00000A 00                          3466  1          =FSBSFLGS   FLAG  ,                       FILE-SYSTEM STATUS
 FSBSFLGS.FSBSPROD 80 ONES          3470  1          =           FLAG  FSBSPROD                PRODUCTION FILE SYSTEM
 FSBSFLGS.FSBSABRO 40 ONES          3475  1          =           FLAG  FSBSABRO                ALLOW BATCH THOUGH R/O
 FSBSFLGS.FSBSTEMP 20 ONES          3480  1          =           FLAG  FSBSTEMP                DEDICATED TO TEMP FILES
                                    3485  1          =
 00000B 00                          3486  1          =FSBOFLGS   FLAG  ,                       FILE-SYSTEM OPTIONS
 FSBOFLGS.FSBONIXR 80 ONES          3490  1          =           FLAG  FSBONIXR                NON-IXR FILES ALLOWED
 FSBOFLGS.FSBFCACH 40 ONES          3495  1          =           FLAG  FSBFCACHE               Use file block caching
 FSBOFLGS.FSBHCACH 20 ONES          3500  1          =           FLAG  FSBHCACHE               Use hiperspace caching
                                    3505  1          =
 00000C                             3506  1          =FSBFRDB    DS    A                       FIRST RDB FOR FILE-SYSTEM
 000010                             3507  1          =FSBLRDB    DS    A                       LAST RDB FOR FILE-SYSTEM
1FILESERV (FILESE) (09:39) (22MAR04) FILESERV - Global data areas                                                           Page   31
0Current Usings:  (PZERO,R0)
0Loc    Object Code    Addr1 Addr2  Stmt Lv Lineno    Source Statement           (Hibal 5, Asmedit 3.3)  HLASM R4.0  2004/03/22 09.39
+___    ______ ____    _____ _____  ____ __ ______    ______ _________
0000014                             3508  1          =FSBDDN     DS    CL4                     DDNAME
 000018                             3509  1          =FSBNAME    DS    CL8                     FILE-SYSTEM NAME
 000020 C7C74BE4E4E4                3510  1          =FSBOWNER   DC    CL6'GG.UUU'             FILE-SYSTEM MASTER ACCOUNT
                                    3511  1          =
 000026                             3512  1          =           DS    XL2                     Spare
                                    3513  1          =
 000028                             3514  1          =FSBCGRI    DS    A                       Catalog general resource id
 00002C                             3515  1          =FSBRBT     DS    A                       Read Buffer Table Pointer
 000030                             3516  1          =FSBCACHE   DS    A                       Cache table pointer
 000034                             3517  1          =FSBCACHS   DS    A                       System cache table pointer
 000038                             3518  1          =           DS    A                       Spare
 00003C                             3519  1          =FSBAHFB    DS    A                       File attached hash table
 000040                             3520  1          =FSBIOP     DS    A                       File IO parm buffers
                                    3521  1          =*
                                    3522  1          =*  CATALOG MANAGEMENT AREA
                                    3523  1          =*
 000044                             3524  1          =FSBCATSB   DS    A                       CATALOGUE START BLOCK
 000048                             3525  1          =FSBCATBC   DS    A                       CATALOGUE BLOCK COUNT
                                    3526  1          =*SBBMALO DS    A   ** MOVE TO STATS ** ALLOCATION REQUESTS
                                    3527  1          =*SBBMALS DS    A   ** MOVE TO STATS ** ALLOCATION NOT CACHED
                                    3528  1          =*SBBMFRE DS    A   ** MOVE TO STATS ** BITMAP RELEASES
                                    3529  1          =*SBBMFRS DS    A   ** MOVE TO STATS ** BITMAP RELEASES - TO SYS
 00004C                             3530  1          =           DS    4A                      Available
                                    3531  1          =CFSBBL     EQU   4                       FSB BLOCK PTR LEN
                                    3532  1          =CFSBPL     EQU   8,8,C'N'                FSB POINTER LEN (BLOCK + ADDR)
                                    3533  1          =CFSBBUF    EQU   8,8,C'N'                8 CAT BLOCK BUFFERS ALLOWED
 00005C                             3534  1          =FSBBLKTOP   DS   A                       POINTS TO LAST BUFFER SLOT
 000060                             3535  1          =FSBCHKA    DS    A                       CHECK POINT BUFFER ADDRESS
 000064                             3536  1          =FSBROOTB   DS    A                       BLOCK NUMBER IN ROOT BUFFER
 000068                             3537  1          =FSBROOTA   DS    A                       | ADDRESS OF ROOT BUFFER
 00006C                             3538  1          =FSBBLK1    DS    A                       BLOCK NUMBER IN 1ST BUFFER
 000070                             3539  1          =FSBBUF1    DS    A                       | ADDRESS OF 1ST BUFFER
                                    3540  1          =&BUFLEN    SETA  (L'CFSBBUF-1)*L'CFSBPL
                                    3541  1          =           DS    &BUFLEN.X               | LEN OF REMAINING BUF SLOTS
 000074                                   1          +           DS    56X                     | LEN OF REMAINING BUF SLOTS
                                    3542  1          =*
                                    3543  1          =*  Catalog Balancing Parameters
                                    3544  1          =*
 0000AC                             3545  1          =FSBBALST   DS    0X
 0000AC                             3546  1          =FSBDSZ     DS    Y                       Size of disk block
 0000AE                             3547  1          =FSBDAVA    DS    Y                       Available space per block
 0000B0                             3548  1          =FSBDTAGX   DS    Y                       Offset of end tag in block
 0000B2                             3549  1          =FSBNALEN   DS    Y                       Account: Length of node
 0000B4                             3550  1          =FSBNASPA   DS    Y                       | Free space in node
 0000B6                             3551  1          =FSBTAXLN   DS    Y                       | Maximum length of entry
 0000B8                             3552  1          =FSBNAMXL   DS    Y                       | Max len of entry in node
 0000BA                             3553  1          =FSBNAXSP   DS    Y                       | Max free space per node
 0000BC                             3554  1          =FSBNANSP   DS    Y                       | Min free space per node
 0000BE                             3555  1          =FSBNFLEN   DS    Y                       File: Length of node
 0000C0                             3556  1          =FSBNFSPA   DS    Y                       | Free space in node
 0000C2                             3557  1          =FSBTFXLN   DS    Y                       | Maximum length of entry
 0000C4                             3558  1          =FSBNFMXL   DS    Y                       | Max len of entry in node
 0000C6                             3559  1          =FSBNFXSP   DS    Y                       | Max free space per node
 0000C8                             3560  1          =FSBNFNSP   DS    Y                       | Min free space per node
1FILESERV (FILESE) (09:39) (22MAR04) FILESERV - Global data areas                                                           Page   32
0Current Usings:  (PZERO,R0)
0Loc    Object Code    Addr1 Addr2  Stmt Lv Lineno    Source Statement           (Hibal 5, Asmedit 3.3)  HLASM R4.0  2004/03/22 09.39
+___    ______ ____    _____ _____  ____ __ ______    ______ _________
00000CA                             3561  1          =FSBTXXLN   DS    Y                       Max len of extended data entry
 0000CC                             3562  1          =FSBLOGFR   DS    Y                       Minimum logical block count
 0000CE                             3563  1          =FSBMNFRE   DS    Y                       Min num of free blks in Cat
                                    3564  1          =FSBBALLN   EQU   *-FSBBALST
                                    3565  1          =*
                                    3566  1          =*  BITMAP MANAGEMENT AREA
                                    3567  1          =*
 0000D0                             3568  1          =FSBBMCNO   DS    Y                       SPECIFIED CNT BLK# IN AVAIL LIST
 0000D4                             3569  1          =FSBBITSB   DS    A                       BIT MAP FIRST BLOCK
 0000D8                             3570  1          =FSBBITBC   DS    A                       BIT MAP BLOCK COUNT
 0000DC                             3571  1          =FSBABLK    DS    A                       NUMBER OF AVAILABLE BLOCKS
 0000E0                             3572  1          =FSBTBLK    DS    A                       TOTAL NUMBER OF BLOCKS
 0000E4                             3573  1          =FSBDBLK    DS    A                       DEFAULT BLOCK ALLOCATION
 0000E8                             3574  1          =FSBABNL    DS    A                       AVAILABLE BLOCK NUMBER LIST
                                    3575  1          =
 0000EC                             3576  1          =FSBSMF     DS    2A                      SMF STATISTICS WORK AREA
 0000F4                             3577  1          =FSBSTATS   DS    0X
 0000F4                             3578  1          =FSBCTRD    DS    F                       CATALOG READ COUNTER
 0000F8                             3579  1          =FSBCTRRD   DS    F                       CATALOG ROOT "READ" COUNTER
 0000FC                             3580  1          =FSBCTCRD   DS    F                       CATALOG CASHED READ COUNTER
 000100                             3581  1          =FSBCTBRD   DS    F                       CATALOG BALANCE READ COUNTER
 000104                             3582  1          =FSBCTWR    DS    F                       CATALOG WRITE COUNTER
 000108                             3583  1          =FSBCTIWR   DS    F                       CATALOG INTENTIONS WRITE CNT
 00010C                             3584  1          =FSBCTBWR   DS    F                       CATALOG BALANCE WRITE COUNTER
 000110                             3585  1          =FSBCTDWR   DS    F                       CATALOG DOUBLE WRITE COUNTER
                                    3586  1          =*
                                    3587  1          =*  Total IO's and IO time
                                    3588  1          =*
 000114                             3589  1          =FSBIOCT    DS    F                   Total I/O count
 000118                             3590  1          =FSBIOTIM   DS    D                   Total I/O time
                                    3591  1          =
 000120                             3592  1          =FSBCAT4K   DS    F                   Cat io 4K buffer (2K file sys only)
                                    3593  1          =
 000124                             3594  1          =CTFILATT   DS    F                   Number of files attached
 000128                             3595  1          =CTFILATM   DS    F                   | max number attached
 00012C                             3596  1          =CTFILAUS   DS    F                   Number of user attaches
 000130                             3597  1          =CTFILAUM   DS    F                   | max number of user attaches
 000134                             3598  1          =CTFILATP   DS    F                   Number of temp files attached
 000138                             3599  1          =CTFILAPM   DS    F                   | max number of temp files attached
000013C                             3601  1          =           DS    F                   Spare
                                    3602  1          =*
                                    3603  1          =* Note: don't modify the following counters in any way unless
                                    3604  1          =*       FILECB and the routine FDOIODO are also modified.
                                    3605  1          =*
                                    3606  1          =*  File read counts from disk
                                    3607  1          =*
 000140                             3608  1          =FSBFIOCT   DS    0D                  First IO count
 000140                             3609  1          =CTREADCT   DS    0D
 000140                             3610  1          =CTMASRCT   DS    D                   Master - read counts
 000148                             3611  1          =CTCATRCT   DS    D                   Catalog - read counts
 000150                             3612  1          =CTBITRCT   DS    D                   Bitmap - read counts
 000158                             3613  1          =CTIXRRCT   DS    D                   IXR - read counts
 000160                             3614  1          =CTUSERCT   DS    D                   User  - read counts
1FILESERV (FILESE) (09:39) (22MAR04) FILESERV - Global data areas                                                           Page   33
0Current Usings:  (PZERO,R0)
0Loc    Object Code    Addr1 Addr2  Stmt Lv Lineno    Source Statement           (Hibal 5, Asmedit 3.3)  HLASM R4.0  2004/03/22 09.39
+___    ______ ____    _____ _____  ____ __ ______    ______ _________
0000168                             3615  1          =CTOTHRCT   DS    D                   Other?? - read counts
                                    3616  1          =*
                                    3617  1          =* Counter indexes - All counters are referenced with the
                                    3618  1          =* generic label and using one of the following indexes.
                                    3619  1          =*
                                    3620  1          =CTMASD     EQU   CTMASRCT-CTREADCT
                                    3621  1          =CTCATD     EQU   CTCATRCT-CTREADCT
                                    3622  1          =CTBITD     EQU   CTBITRCT-CTREADCT
                                    3623  1          =CTIXRD     EQU   CTIXRRCT-CTREADCT
                                    3624  1          =CTUSED     EQU   CTUSERCT-CTREADCT
                                    3625  1          =CTOTHD     EQU   CTOTHRCT-CTREADCT
                                    3626  1          =*
                                    3627  1          =*  File write counts
                                    3628  1          =*
 000170                             3629  1          =CTWRITCT   DS    0D
 000170                             3630  1          =CTMASWCT   DS    D                   Master - writes
 000178                             3631  1          =CTCATWCT   DS    D                   Catalog - writes
 000180                             3632  1          =CTBITWCT   DS    D                   Bitmap -  writes
 000188                             3633  1          =CTIXRWCT   DS    D                   IXR - writes
 000190                             3634  1          =CTUSEWCT   DS    D                   User -  writes
 000198                             3635  1          =CTOTHWCT   DS    D                   Other?? - writes
                                    3636  1          =FSBFIOCN   EQU   (*-FSBFIOCT)/L'FSBFIOCT
                                    3637  1          =*
                                    3638  1          =*  File read counts from cache
                                    3639  1          =*
 0001A0                             3640  1          =FSBFCACT   DS    0D                  First cache count
 0001A0                             3641  1          =CTCACHCT   DS    0D
 0001A0                             3642  1          =CTMASCCT   DS    D                   Master - read counts
 0001A8                             3643  1          =CTCATCCT   DS    D                   Catalog - read counts
 0001B0                             3644  1          =CTBITCCT   DS    D                   Bitmap - read counts
 0001B8                             3645  1          =CTIXRCCT   DS    D                   IXR - read counts
 0001C0                             3646  1          =CTUSECCT   DS    D                   User  - read counts
 0001C8                             3647  1          =CTOTHCCT   DS    D                   Other?? - read counts
                                    3648  1          =
                                    3649  1          =CTREADD    EQU   CTREADCT-FSBFIOCT
                                    3650  1          =CTWRITD    EQU   CTWRITCT-FSBFIOCT
                                    3651  1          =CTCACHD    EQU   CTCACHCT-FSBFIOCT
                                    3652  1          =
                                    3653  1          =FSBFCACN   EQU   (*-FSBFCACT)/L'FSBFCACT
                                    3654  1          =CTFILECT   EQU   CTREADCT,*-CTREADCT
                                    3655  1          =CTFILECC   EQU   (*-CTREADCT)/L'CTREADCT
00001D0                             3657  1          =           DS    4A                  Spare
00001E0                001E0 001E0  3659             =         END   ,
1FILESERV (FILESE) (09:39) (22MAR04) FILESERV - Global data areas                                                           Page   34
0Current Usings:  (PZERO,R0)
0Loc    Object Code    Addr1 Addr2  Stmt Lv Lineno    Source Statement           (Hibal 5, Asmedit 3.3)  HLASM R4.0  2004/03/22 09.39
+___    ______ ____    _____ _____  ____ __ ______    ______ _________
0                                   3669      50.              COPY  FILECB
                                    3670=            =¿þþþþþþþþþþþþþþþþþþþþþþþþþþþþþþþþþþþþþþþþþþþþþþþþþþþþþþþþþþþþþþþþþþþþþÜ
                                    3671=            =Ÿ                                                                     Ÿ
                                    3672=            =Ÿ        Global File System Information                               Ÿ
                                    3673=            =Ÿ                                                                     Ÿ
                                                      ¾þþþþþþþþþþþþþþþþþþþþþþþþþþþþþþþþþþþþþþþþþþþþþþþþþþþþþþþþþþþþþþþþþþþþþ»
0000000                00000 00158  3674             =FILECB   RECORD BEGIN
 000000 C6C9D3C5C3C24040            3682  1          =FILEID     DC    CL8'FILECB'         Self identification
                                    3683  1          =
 000008                             3684  1          =FILEFFSB   DS    A                   First FSB pointer
 00000C                             3685  1          =FILEFSBC   DS    A                   Number of FSBs
 000010                             3686  1          =FILEFSGT   DS    A                   Pointer to file sys group tbl
                                    3687  1          =*
                                    3688  1          =*  Buffer management
                                    3689  1          =*
 000014 00                          3690  1          =FILBFLAG   FLAG  ,                   Buffer flag
 FILBFLAG.FILBFHCA 80 ONES          3694  1          =           FLAG  FILBFHCA            Hiperspace cache
 FILBFLAG.FILBNOTD 40 ONES          3699  1          =           FLAG  FILBNOTD            Don't dump cache blocks
 000015                             3704  1          =           DS    XL3                 Spare
 000018                             3705  1          =FILE2KCH   DS    A                   File cache control block (user)
 00001C                             3706  1          =FILE2KCS   DS    A                   File cache control block (system)
 000020                             3707  1          =FILE4KCH   DS    A                   File cache control block (user)
 000024                             3708  1          =FILE4KCS   DS    A                   File cache control block (system)
                                    3709  1          =
 000028                             3710  1          =FILE2KRB   DS    A                   Read buffer control block
 00002C                             3711  1          =FILE4KRB   DS    A                   Read buffer control block
 000030                             3712  1          =FILEIOP    DS    A                   File IO parm buffers
                                    3713  1          =
 000034                             3714  1          =FILTEMPF   DS    A                   Temp files FSB
                                    3715  1          =
                                    3716  1          =FILEBW     SHEAD ,                   Free wait blocks for buff mngmt
 000038                             3717  1 01-01431 +FILEBW     DS   0D                   Single linked CDS list
 000038                             3718  1 01-01432 +FILEBWFP   DS    A                   Forward pointer
 00003C                             3719  1 01-01433 +FILEBWSEQ   DS   A                   CDS sequence number
                                    3720  1          =FILEATFB   SHEAD ,                   Free file attached blocks
 000040                             3721  1 01-01431 +FILEATFB   DS   0D                   Single linked CDS list
 000040                             3722  1 01-01432 +FILEATFBFP   DS  A                   Forward pointer
 000044                             3723  1 01-01433 +FILEATFBSEQ   DS A                   CDS sequence number
                                    3724  1          =*
                                    3725  1          =*  Statistics
                                    3726  1          =*
 000048                             3727  1          =FILMTIME   DS    D                   Elapsed time for SMF
                                    3728  1          =*
                                    3729  1          =* Note: don't modify the following counters in any way unless
                                    3730  1          =*       FSB and the routine FDOIODO are also modified.
                                    3731  1          =*
                                    3732  1          =*  File read counts from disk
                                    3733  1          =*
 000050                             3734  1          =TTREADCT   DS    0D
 000050                             3735  1          =TTMASRCT   DS    D                   Master - read counts
 000058                             3736  1          =TTCATRCT   DS    D                   Catalog - read counts
 000060                             3737  1          =TTBITRCT   DS    D                   Bitmap - read counts
 000068                             3738  1          =TTIXRRCT   DS    D                   IXR - read counts
1FILESERV (FILESE) (09:39) (22MAR04) FILESERV - Global data areas                                                           Page   35
0Current Usings:  (PZERO,R0)
0Loc    Object Code    Addr1 Addr2  Stmt Lv Lineno    Source Statement           (Hibal 5, Asmedit 3.3)  HLASM R4.0  2004/03/22 09.39
+___    ______ ____    _____ _____  ____ __ ______    ______ _________
0000070                             3739  1          =TTUSERCT   DS    D                   User  - read counts
 000078                             3740  1          =TTOTHRCT   DS    D                   Other?? - read counts
                                    3741  1          =*
                                    3742  1          =* Counter indexes - All counters are referenced with the
                                    3743  1          =* generic label and using one of the following indexes.
                                    3744  1          =*
                                    3745  1          =TTMASD     EQU   TTMASRCT-TTREADCT
                                    3746  1          =TTCATD     EQU   TTCATRCT-TTREADCT
                                    3747  1          =TTBITD     EQU   TTBITRCT-TTREADCT
                                    3748  1          =TTIXRD     EQU   TTIXRRCT-TTREADCT
                                    3749  1          =TTUSED     EQU   TTUSERCT-TTREADCT
                                    3750  1          =TTOTHD     EQU   TTOTHRCT-TTREADCT
                                    3751  1          =*
                                    3752  1          =*  File write counts
                                    3753  1          =*
 000080                             3754  1          =TTWRITCT   DS    0D
 000080                             3755  1          =TTMASWCT   DS    D                   Master - writes
 000088                             3756  1          =TTCATWCT   DS    D                   Catalog - writes
 000090                             3757  1          =TTBITWCT   DS    D                   Bitmap -  writes
 000098                             3758  1          =TTIXRWCT   DS    D                   IXR - writes
 0000A0                             3759  1          =TTUSEWCT   DS    D                   User -  writes
 0000A8                             3760  1          =TTOTHWCT   DS    D                   Other?? - writes
                                    3761  1          =*
                                    3762  1          =*  File read counts from cache
                                    3763  1          =*
 0000B0                             3764  1          =TTCACHCT   DS    0D
 0000B0                             3765  1          =TTMASCCT   DS    D                   Master - read counts
 0000B8                             3766  1          =TTCATCCT   DS    D                   Catalog - read counts
 0000C0                             3767  1          =TTBITCCT   DS    D                   Bitmap - read counts
 0000C8                             3768  1          =TTIXRCCT   DS    D                   IXR - read counts
 0000D0                             3769  1          =TTUSECCT   DS    D                   User  - read counts
 0000D8                             3770  1          =TTOTHCCT   DS    D                   Other?? - read counts
                                    3771  1          =TTFILECT   EQU   TTREADCT,*-TTREADCT
                                    3772  1          =TTFILECC   EQU   (*-TTREADCT)/L'TTREADCT
                                    3773  1          =
                                    3774  1          =TTFREAD    EQU   TTREADCT-TTFILECT
                                    3775  1          =TTFWRIT    EQU   TTWRITCT-TTFILECT
                                    3776  1          =TTFCACH    EQU   TTCACHCT-TTFILECT
                                    3777  1          =*
                                    3778  1          =*  Attach statistics
                                    3779  1          =*
 0000E0                             3780  1          =TTFILATT   DS    F                   Number of files attached
 0000E4                             3781  1          =TTFILATM   DS    F                   | max number attached
 0000E8                             3782  1          =TTFILAUS   DS    F                   Number of user attaches
 0000EC                             3783  1          =TTFILAUM   DS    F                   | max number of user attaches
 0000F0                             3784  1          =TTFILATP   DS    F                   Number of temp files attached
 0000F4                             3785  1          =TTFILAPM   DS    F                   | max number of temp files attached
 0000F8                             3786  1          =TTFILTBK   DS    F                   Number of temp blocks in use
 0000FC                             3787  1          =TTFILTBM   DS    F                   | max number of temp blocks in use
                                    3788  1          =*
                                    3789  1          =* Delete file processing control area
                                    3790  1          =*
 000100                             3791  1          =FILEDECB   DS    D                   Wait for work ECB
                                    3792  1          =FILEDB     SHEAD ,                   Free file delete blocks
1FILESERV (FILESE) (09:39) (22MAR04) FILESERV - Global data areas                                                           Page   36
0Current Usings:  (PZERO,R0)
0Loc    Object Code    Addr1 Addr2  Stmt Lv Lineno    Source Statement           (Hibal 5, Asmedit 3.3)  HLASM R4.0  2004/03/22 09.39
+___    ______ ____    _____ _____  ____ __ ______    ______ _________
0000108                             3793  1 01-01431 +FILEDB     DS   0D                   Single linked CDS list
 000108                             3794  1 01-01432 +FILEDBFP   DS    A                   Forward pointer
 00010C                             3795  1 01-01433 +FILEDBSEQ   DS   A                   CDS sequence number
                                    3796  1          =FILEDT     SHEAD ,                   List of temp files to delete
 000110                             3797  1 01-01431 +FILEDT     DS   0D                   Single linked CDS list
 000110                             3798  1 01-01432 +FILEDTFP   DS    A                   Forward pointer
 000114                             3799  1 01-01433 +FILEDTSEQ   DS   A                   CDS sequence number
                                    3800  1          =FILEDF     SHEAD ,                   List of files to delete
 000118                             3801  1 01-01431 +FILEDF     DS   0D                   Single linked CDS list
 000118                             3802  1 01-01432 +FILEDFFP   DS    A                   Forward pointer
 00011C                             3803  1 01-01433 +FILEDFSEQ   DS   A                   CDS sequence number
 000120                             3804  1          =FILEDASB   DS    A                   Delete file processing ASB
 000124                             3805  1          =FILEDSYR   DS    A                   Sys routine id
 000128                             3806  1          =FILEDCNT   DS    A                   Count of active tasks
 00012C                             3807  1          =FILEDCN2   DS    H                   Count of 'throttle' waits
 00012E                             3808  1          =FILEDTS    DS    X                   Test and set lock
 00012F                             3809  1          =           DS    X                   Spare
 000130                             3810  1          =FILECRE    DS    A                   Files created
 000134                             3811  1          =           DS    9A                  Spare
 000158                00158 00158  3812             =         END
1FILESERV (FILESE) (09:39) (22MAR04) FILESERV - Global data areas                                                           Page   37
0Current Usings:  (PZERO,R0)
0Loc    Object Code    Addr1 Addr2  Stmt Lv Lineno    Source Statement           (Hibal 5, Asmedit 3.3)  HLASM R4.0  2004/03/22 09.39
+___    ______ ____    _____ _____  ____ __ ______    ______ _________
0                                   3822      52.              COPY  FILEDSD
 000000                00000 0004C  3823             =FILEDSD  RECORD BEGIN                  Dataset descriptor
 000000                             3831  1          =DSDNXT     DS    A                       Next dataset descriptor
 000004                             3832  1          =DSDCHID    DS    A                       Channel ID - host
 000008                             3833  1          =DSDSTART   DS    A                       Starting block of this DS
 00000C                             3834  1          =DSDCNT     DS    A                       Number of blocks
 000010                             3835  1          =DSDTIME    DS    D                       Time of file I/Os
 000018                             3836  1          =DSDICNT    DS    A                       Number of file I/Os
 00001C                             3837  1          =DSDLEN     DS    H                       Block length
 00001E                             3838  1          =DSDHDR     DS    H                       Header length
 000020                             3839  1          =DSDDSN     DS    CL44                    Dataset name
 00004C                0004C 0004C  3840             =         END   ,
1FILESERV (FILESE) (09:39) (22MAR04) FILESERV - Global data areas                                                           Page   38
0Current Usings:  (PZERO,R0)
0Loc    Object Code    Addr1 Addr2  Stmt Lv Lineno    Source Statement           (Hibal 5, Asmedit 3.3)  HLASM R4.0  2004/03/22 09.39
+___    ______ ____    _____ _____  ____ __ ______    ______ _________
0                                   3850      54.              COPY  FILIOP
 000000                00000 00058  3851             =FILIOP   RECORD BEGIN
 000000                             3859  1          =FILPARM    DS    XL(L'#FIODO)        Host parameters
 000028                             3860  1          =FILHDR     DS    XL32                Block header of max len
 000048                             3861  1          =FILIST     DS    0D                  Address/len list
 000048                             3862  1          =FILISTA1   DS    A
 00004C                             3863  1          =FILISTL1   DS    F
 000050                             3864  1          =FILISTA2   DS    A
 000054                             3865  1          =FILISTL2   DS    F
 000058                00058 00058  3866             =         END   ,
1FILESERV (FILESE) (09:39) (22MAR04) FILESERV - Global data areas                                                           Page   39
0Current Usings:  (PZERO,R0)
0Loc    Object Code    Addr1 Addr2  Stmt Lv Lineno    Source Statement           (Hibal 5, Asmedit 3.3)  HLASM R4.0  2004/03/22 09.39
+___    ______ ____    _____ _____  ____ __ ______    ______ _________
0                                   3876      56.              COPY  IOSPARM
 000000                00000 0001E  3877             =@IOSDOIO RECORD BEGIN
 000000                             3885  1          =@IOSCHID   DS    A                       Subchannel ID
 000004                             3886  1          =@IOSID     DS    A                       I/O ID
 000008                             3887  1          =@IOSPID    DS    D                       Process ID
 000010                             3888  1          =@IOSCP     DS    A                       Channel program addr (VA)
 000014                             3889  1          =@IOSXID    DS    A                       Exit ID/Fast path rtn addr
 000018                             3890  1          =@IOSXPAR   DS    A                       Ending parameter
 00001C                             3891  1          =@IOSKEY    DS    X                       Key for I/O
 00001D 00                          3892  1          =@IOSF1     FLAG  ,
 @IOSF1.@IOSFSYNC  80 ONES          3896  1          =           FLAG  @IOSFSYNC               Do I/O synchronous
 @IOSF1.@IOSFAS    40 ONES          3901  1          =           FLAG  @IOSFAS                 | do AS waits for this I/O
 @IOSF1.@IOSFAST   20 ONES          3906  1          =           FLAG  @IOSFAST                Fast path I/O
 00001E                0001E 0001E  3911             =         END   ,
-000000                00000 00008  3921             =@IOTERM  RECORD BEGIN                  I/O termination routine parms
 000000                             3929  1          =@IOTPARM   DS    A                       Termination routine parameter
 000004                             3930  1          =@IOTEND    DS    A                       Ending status of operation
 000008                00008 00008  3931             =         END   ,
-000000                00000 00010  3941             =@IOSTIME RECORD BEGIN
 000000                             3949  1          =@IOSTID    DS    A                       I/O ID
 000008                             3950  1          =@IOSIOTIME   DS  D                       Time of this I/O
 000010                00010 00010  3951             =         END   ,
-000000                00000 00001  3961             =@IOSIDGET RECORD BEGIN
 000000 00                          3969  1          =@IOSIDF     FLAG   ,
 @IOSIDF.@IOSFWAIT 80 ONES          3973  1          =            FLAG   @IOSFWAIT             If need be, wait for id
 000001                00001 00001  3978             =          END    ,
-000000                00000 00004  3988             =@IOSIDFRE RECORD BEGIN
 000000                             3996  1          =@IOSFID     DS   A                       ID being freed
 000004                00004 00004  3997             =          END  ,
1FILESERV (FILESE) (09:39) (22MAR04) FILESERV - Global data areas                                                           Page   40
0Current Usings:  (PZERO,R0)
0Loc    Object Code    Addr1 Addr2  Stmt Lv Lineno    Source Statement           (Hibal 5, Asmedit 3.3)  HLASM R4.0  2004/03/22 09.39
+___    ______ ____    _____ _____  ____ __ ______    ______ _________
0                                   4007             =         COPY  IORPARM
                                    4008             =*******************************************************************
                                    4009             =*                                                                 *
                                    4010             =*     @IORPARM - ORVYL I/O request parameters                     *
                                    4011             =*                                                                 *
                                    4012             =*******************************************************************
0000000                00000 00014  4014             =@IORB    RECORD BEGIN
 000000                             4022  1          =@IORRQID   DS    A                       Request ID
 000004                             4023  1          =@IOROFF    DS    A                       Offset (guest real to MVS)
 000008                             4024  1          =@IORPARM   DS    A                       Pointer to user parm list
 00000C                             4025  1          =@IORSCH    DS    A                       Subchannel (device ID)
 000010                             4026  1          =@IORKEY    DS    X                       Channel program protect key
 000011                             4027  1          =@IORCC     DS    X                       Condition code (returned)
 000012                             4028  1          =           DS    2X                      Reserved
 000014                00014 00014  4029             =         END   ,
-
                                    4039             =*******************************************************************
                                    4040             =*                                                                 *
                                    4041             =*     @IOUPARM - I/O Device id allocate request parameters        *
                                    4042             =*                                                                 *
                                    4043             =*******************************************************************
0000000                00000 00004  4045             =@IOUPARM RECORD BEGIN
 000000                             4053  1          =@IOUDEVT   DS    A
                                    4054  1          =*
                                    4055  1          =*  Device types
                                    4056  1          =*
                                    4057  1          =#IOUPAGE   EQU   4                       | paging
                                    4058  1          =#IOUSWAP   EQU   8                       | swap
                                    4059  1          =#IOUFILE   EQU   12                      | file
                                    4060  1          =#IOUSCOM   EQU   16                      | path
                                    4061  1          =#IOUJES    EQU   20                      | JES
                                    4062  1          =#IOUHSP    EQU   24                      | Standard hiperspace
                                    4063  1          =#IOUESO    EQU   28                      | Cached hiperspace
 000004                00004 00004  4064             =         END   ,
1FILESERV (FILESE) (09:39) (22MAR04) FILESERV - Global data areas                                                           Page   41
0Current Usings:  (PZERO,R0)
0Loc    Object Code    Addr1 Addr2  Stmt Lv Lineno    Source Statement           (Hibal 5, Asmedit 3.3)  HLASM R4.0  2004/03/22 09.39
+___    ______ ____    _____ _____  ____ __ ______    ______ _________
0000015                00000 01D00  4074      58.     FILESERV CSECT ,
1FILESERV (FILESE) (09:39) (22MAR04) File system block information                                                          Page   42
0Current Usings:  (PZERO,R0)
0Loc    Object Code    Addr1 Addr2  Stmt Lv Lineno    Source Statement           (Hibal 5, Asmedit 3.3)  HLASM R4.0  2004/03/22 09.39
+___    ______ ____    _____ _____  ____ __ ______    ______ _________
0                                   4077      60.     *********************************************************************
                                    4078      61.     *  File system block information                                    *
                                    4079      62.     *                                                                   *
                                    4080      63.     *   Input - @FILEBLKI                                               *
                                    4081      64.     *                                                                   *
                                    4082      65.     *  Output - RVR = 0                                                 *
                                    4083      66.     *             @FILEBLKI contains return parameters                  *
                                    4084      67.     *           RVR = 4                                                 *
                                    4085      68.     *             Invalid File System ID for input                      *
                                    4086      69.     *                                                                   *
                                    4087      70.     *********************************************************************
0000016                             4089      72.     FILEBLKI PROC  @FILEBLKI,SCOPE=GLOBAL
 000016 C6C9D3C5C2D3D2C9            4095             +
 00001E 0028/0000                   4096             +
 000022 900F D004/18AF       00004  4098             +
 USING  FILEBLKI,R10
 000028 50D0 C000/18CD       00000  4113             +
 00002E 9680 C000      00000        4115             +
 USING  @FILEBLKI-72,R12
 000032 41D0 C070            00070  4129             +
 000036 5870 0200            00200  4130      73.              L     RY,MATPTR
 USING  MAT,R7                      4131      74.              WITH  (MAT,RY),BEGIN
 00003A 5870 7028            00028  4145  1   75.                L     RY,MATFILCB
 DROP   MAT,R7                      4146      76.              END   ,
 USING  FILECB,R7                   4154      77.              WITH  (FILECB,RY)
 00003E 5860 7008            00008  4167      78.              L     RX,FILEFFSB
 USING  FSB,R6                      4168      79.              WITH  (FSB,RX)
 000042 5810 C048            00000  4181      80.              L     RS,@FILFSID
 000046 1211/4740 A046       00068  4182      81.              IF    (RS,NEG),BADFSID
 00004C 1211/4780 A040       00062  4199      82.              WHILE (RS,NZ),BEGIN           Loop through file systems
 000052 1266/4780 A046       00068  4215  1   83.                IF    (RX,ZERO),BADFSID
 000058 5860 6004            00004  4232  1   84.                L     RX,FSBCHAIN
 00005C 0610                        4233  1   85.                DECR  RS
 00005E 47F0 A02A            0004C  4235      86.              END   ,                       OF Loop through file systems
 000062 1266/4770 A04E       00070  4240      87.              IF    (RX,ZERO),BEGIN
 000068 4100 0004            00004  4254  1   88.     BADFSID    LA    RVR,4
 00006C 47F0 A0EA            0010C  4255  1   89.                EXIT  FILEBLKI
 000070                             4258      90.              END   ,
                                    4262      91.              ¿þþþþþþþþþþþþþþþþþþþþþþþþþþþþþþþþþþþþÜ
                                    4263      92.              Ÿ  Fill in file system information.  Ÿ
                                    4264      93.              ¾þþþþþþþþþþþþþþþþþþþþþþþþþþþþþþþþþþþþ»
 000070 D203 C04C 60E0 00004 000E0  4265      94.              MVC   @FILTBLK,FSBTBLK        Total blocks
 000076 D203 C050 60DC 00008 000DC  4266      95.              MVC   @FILABLK,FSBABLK        Available blocks
 00007C D203 C054 A23E 0000C 00260  4267      96.              MVC   @FILUMAX,=X'00FFFFFF'   Maximum alloc by a user
 000082 D207 C058 6018 00010 00018  4268      97.              MVC   @FILNAME,FSBNAME        File system name
 000088 4180 6140            00140  4269      98.              LA    RM,FSBFIOCT             Point to first one
 00008C 4190 000C            0000C  4270      99.              LA    RN,FSBFIOCN             Count of counts
 000090 1B00/1B11                   4271     100.              CLEAR RVR,R1
 000094                             4277     101.              LOOP  BEGIN
 000094 5E10 8004            00004  4283  1  102.                ADL   RVR,@RM
 000098 47C0 A07E            000A0  4292  1          +
 00009C 5E00 A242            00264  4298  1          +
 0000A0 5E00 8000            00000  4303  1          +
1FILESERV (FILESE) (09:39) (22MAR04) File system block information                                                          Page   43
0Current Usings:  (PZERO,R0) (FSB,R6) (FILECB,R7) (FILEBLKI,R10) (@FILEBLKI-72,R12)
0Loc    Object Code    Addr1 Addr2  Stmt Lv Lineno    Source Statement           (Hibal 5, Asmedit 3.3)  HLASM R4.0  2004/03/22 09.39
+___    ______ ____    _____ _____  ____ __ ______    ______ _________
00000A4 4180 8008            00008  4304  1  103.                LA    RM,@RM+L'FSBFIOCT
 0000A8 4690 A072            00094  4305     104.              UNTIL (BCT,RN),END
 0000AC 5010 C068            00020  4315     105.              ST    R1,@FILIOCT             Total IO count
 0000B0 4180 61A0            001A0  4316     106.              LA    RM,FSBFCACT             Point to first one
 0000B4 4190 0006            00006  4317     107.              LA    RN,FSBFCACN             Count of counts
 0000B8 1B00/1B11                   4318     108.              CLEAR RVR,R1
 0000BC                             4324     109.              LOOP  BEGIN
 0000BC 5E10 8004            00004  4330  1  110.                ADL   RVR,@RM
 0000C0 47C0 A0A6            000C8  4339  1          +
 0000C4 5E00 A242            00264  4345  1          +
 0000C8 5E00 8000            00000  4350  1          +
 0000CC 4180 8008            00008  4351  1  111.                LA    RM,@RM+L'FSBFIOCT
 0000D0 4690 A09A            000BC  4352     112.              UNTIL (BCT,RN),END
 0000D4 9001 C060            00018  4362     113.              STM   R0,R1,@FILCACT          Total cache read counts
 0000D8 9180 6009      00009        4363     114.              IF    FSBANAVL,'SET @FILFNA'  Set not available
 0000DC 47E0 A0C2            000E4  4373             +
 0000E0 9680 C06C      00024        4384             +
 0000E4 9140 6009      00009        4389     115.              IF    FSBARO,'SET @FILFRO'    Set Read Only
 0000E8 47E0 A0CE            000F0  4399             +
 0000EC 9640 C06C      00024        4410             +
 0000F0 9140 600B      0000B        4415     116.              IF    FSBFCACHE,'SET @FILFCACHE'  File caching enabled
 0000F4 47E0 A0DA            000FC  4425             +
 0000F8 9620 C06C      00024        4436             +
 0000FC                             4441     117.              IF    (FSBDSZ,EQ,=Y(4096)),'SET @FILF4K'
 0000FC D501 A262 60AC 00284 000AC  4452             +
 000102 4770 A0E8            0010A  4453             +
 000106 9610 C06C      00024        4464             +
                                    4469     118.
 00010A 1B00                        4470     119.              CLEAR RVR                     Set OK return
 00010C 981F C008            00008  4474     120.              PEND  ,
 DROP   FSB,R6
 DROP   FILECB,R7
 DROP   @FILEBLKI-72,R12
 DROP   FILEBLKI,R10
 000110 9680 C000/0B0E 00000        4499             +
1FILESERV (FILESE) (09:39) (22MAR04) File system SMF routine                                                                Page   44
0Current Usings:  (PZERO,R0)
0Loc    Object Code    Addr1 Addr2  Stmt Lv Lineno    Source Statement           (Hibal 5, Asmedit 3.3)  HLASM R4.0  2004/03/22 09.39
+___    ______ ____    _____ _____  ____ __ ______    ______ _________
0                                   4506     122.     *********************************************************************
                                    4507     123.     *  Write System Management Facilities record                        *
                                    4508     124.     *                                                                   *
                                    4509     125.     *   Input - none                                                    *
                                    4510     126.     *                                                                   *
                                    4511     127.     *  Output - none                                                    *
                                    4512     128.     *                                                                   *
                                    4513     129.     *********************************************************************
 000000                00000 00014  4514     130.     #FILSMF  RECORD BEGIN
 000000                             4522  1  131.     #SMFTIME   DS    D                       TOD of this interval
 000008                             4523  1  132.     #SMFNAM    DS    CL8                     Subsystem Name
 000010                             4524  1  133.     #SMFBLEN   DS    A                       Buffer length
 000014                00014 00014  4525     134.              END   ,
0000116                             4535     136.     FILSMF   PROC  ,#FILSMF,SCOPE=GLOBAL
 000116 C6C9D3E2D4C64040            4541             +
 00011E 0000/0018                   4542             +
 000122 900F D004/18AF       00004  4544             +
 USING  FILSMF,R10
 000128 50D0 C000/18CD       00000  4559             +
 00012E 9680 C000      00000        4561             +
 USING  #FILSMF-72,R12
 000132 41D0 C060            00060  4575             +
 000136 5860 0200            00200  4576     137.              L     RX,MATPTR
 USING  MAT,R6                      4577     138.              WITH  (MAT,RX),BEGIN
 00013A D207 C050 60D4 00008 000D4  4591  1  139.                MVC   #SMFNAM,MATSNAME        Who we are
 000140 5860 6028            00028  4592  1  140.                L     RX,MATFILCB
 DROP   MAT,R6                      4593     141.              END   ,
 USING  FILECB,R6                   4601     142.              WITH  (FILECB,RX)
                                    4614     143.     *
                                    4615     144.     *  Get buffer for SMF record
                                    4616     145.     *
 000144 5810 600C            0000C  4617     146.              L     RS,FILEFSBC             Number of file systems
 000148 4C10 A164            00286  4618     147.              MH    RS,=Y(L'SMFFSDAT)        times field size
 00014C 5010 C058            00010  4619     148.              ST    RS,#SMFBLEN
 000150 4110 1030            00030  4620     149.              LA    RS,@RS+L'SMFFILE
 USING  @VMGET-72,R13               4621     150.              VMGET (RS),LOC=GLOBHI
 000154 D70A D048 D048 00000 00000  4645             +
 00015A 5010 D048            00000  4655             +
 00015E D201 D050 A166 00008 00288  4656             +
 000164 58F0 A146/0DEF       00268  4659             +
 00016A 1250/4770 A07E       001A0  4661     151.              IF    ('LTR RK,RVR',ZERO),'ABORT NOSMFBUFF'
 000170 AC04 021B      0021B        4678  1          +
 000174 9680 021A      0021A        4684  1          +
 000178 50F0 021C            0021C  4685  1          +
 00017C 58F0 0210            00210  4686  1          +
 000180 89F0 0010            00010  4687  1          +
 000184 88F0 0010            00010  4688  1          +
 000188 41F0 F000            00000  4689  1          +
 00018C AEFF 0006            00006  4690  1          +
 000190 D5D6E2D4C6C2E4C6            4691             +
 USING  SMFFILE,R5                  4696     152.              WITH  (SMFFILE,RK)
                                    4709     153.     *
                                    4710     154.     *  Fill in prefix
1FILESERV (FILESE) (09:39) (22MAR04) File system SMF routine                                                                Page   45
0Current Usings:  (PZERO,R0) (SMFFILE,R5) (FILECB,R6) (FILSMF,R10) (#FILSMF-72,R12) (@VMGET-72,R13)
0Loc    Object Code    Addr1 Addr2  Stmt Lv Lineno    Source Statement           (Hibal 5, Asmedit 3.3)  HLASM R4.0  2004/03/22 09.39
+___    ______ ____    _____ _____  ____ __ ______    ______ _________
0                                   4711     155.     *
 AUSING (SMFPFX,SMFFPFX)            4712     156.              WITH  (SMFPFX,SMFFPFX),BEGIN
 0001A0                             4722  1  157.                CLEAR SMFFPFX
 0001A0 D717 5000 5000 00000 00000  4728  1          +
 0001A6 D207 5008 C050 00008 00008  4729  1  158.                MVC   SMFSYSTM,#SMFNAM        Say who we are
 0001AC D203 5010 A14A 00010 0026C  4730  1  159.                MVC   SMFCAT,=CL4'ORVF'       File record
 0001B2 D203 5014 A14E 00014 00270  4731  1  160.                MVC   SMFNSEG,=A(2)           General and file system segs
                                    4732     161.              END   ,
                                    4735     162.     *
                                    4736     163.     *  Fill in basic fields - offsets of segments
                                    4737     164.     *
 0001B8 D203 5018 A152 00018 00274  4738     165.              MVC   SMFFGLOC,=A(SMFFGEN-SMFFILE)
 0001BE D203 501C A156 0001C 00278  4739     166.              MVC   SMFFLOC,=A(SMFFFILE-SMFFILE)
                                    4740     167.     *
                                    4741     168.     *  Fill in general section - elapsed real time
                                    4742     169.     *
 0001C4 D203 5020 A15A 00020 0027C  4743     170.              MVC   SMFFGLEN,=A(L'SMFFGEN)
 0001CA D207 C048 6048 00000 00048  4744     171.              MVC   #SMFTIME,FILMTIME
 0001D0 B205 6048      00048        4745     172.              STCK  FILMTIME
 0001D4 9823 6048            00048  4746     173.              LM    RA,RB,FILMTIME          Store 2 middle bytes of elapse
 0001D8 5F30 C04C            00004  4747     174.              SDL   RA,#SMFTIME             |
 0001DC 47B0 A0C0/0620       001E2  4749             +
 0001E2 5F20 C048            00000  4751             +
 0001E6 8C20 0010            00010  4752     175.              SRDL  RA,16                   |
 0001EA 5030 5024            00024  4753     176.              ST    RB,SMFFTIME             |
                                    4754     177.     *
                                    4755     178.     *  Fill in file system section - length and number of file systems
                                    4756     179.     *
 0001EE 5830 C058            00010  4757     180.              L     RB,#SMFBLEN
 0001F2 4130 3008            00008  4758     181.              LA    RB,@RB+L'SMFFFILE
 0001F6 5030 5028            00028  4759     182.              ST    RB,SMFFLEN
 0001FA 5810 600C            0000C  4760     183.              L     RS,FILEFSBC             Number of file systems
 0001FE 5010 502C            0002C  4761     184.              ST    RS,SMFFNFS              |
                                    4762     185.     *
                                    4763     186.     *  Loop through file systems
                                    4764     187.     *
 000202 5840 6008            00008  4765     188.              L     RJ,FILEFFSB             First file system
 000206 4180 5030            00030  4766     189.              LA    RM,SMFFILE+L'SMFFILE    Data area for SMF
 00020A                             4767     190.              LOOP  BEGIN                   Loop through FSs
 USING  FSB,R4                      4773  1  191.                WITH  (FSB,RJ)
 USING  SMFFSDAT,R8                 4786  1  192.                WITH  (SMFFSDAT,RM)
 00020A D203 8000 4114 00000 00114  4799  1  193.                MVC   SMFFSIOC,FSBIOCT        I/O count - total
 000210 D203 8004 411A 00004 0011A  4800  1  194.                MVC   SMFFSTIM,FSBIOTIM+2     I/O time - total
 000216 4180 8008            00008  4801  1  195.                LA    RM,SMFFSDAT+L'SMFFSDAT  Next data area
 00021A 5840 4004            00004  4802  1  196.                L     RJ,FSBCHAIN             Next FSB
 00021E 4610 A0E8            0020A  4803     197.              UNTIL (BCT,RS),END            OF Loop through FSs
 DROP   SMFFSDAT,R8
 DROP   FSB,R4
                                    4823     198.     *
                                    4824     199.     *  Write SMF record
                                    4825     200.     *
 000222 4120 5000            00000  4826     201.              LA    RA,SMFFILE              Location
 000226 5830 C058            00010  4827     202.              L     RB,#SMFBLEN
 00022A 4130 3030            00030  4828     203.              LA    RB,@RB+L'SMFFILE
1FILESERV (FILESE) (09:39) (22MAR04) File system SMF routine                                                                Page   46
0Current Usings:  (PZERO,R0) (SMFFILE,R5) (FILECB,R6) (FILSMF,R10) (#FILSMF-72,R12) (@VMGET-72,R13)
0Loc    Object Code    Addr1 Addr2  Stmt Lv Lineno    Source Statement           (Hibal 5, Asmedit 3.3)  HLASM R4.0  2004/03/22 09.39
+___    ______ ____    _____ _____  ____ __ ______    ______ _________
000022E BF38 A168            0028A  4829     204.              ICM   RB,8,=AL1(SMFNUM)       SMF number
 000232 8323000D                    4830     205.              SYSCTL RA,RB,TYPE=SMF
                                    4833     206.     *
                                    4834     207.     *  Free buffer
                                    4835     208.     *
 000236 5430 A13E            00260  4836     209.              N     RB,=X'00FFFFFF'
 DROP   @VMGET-72,R13               4837     210.              VMFREE A=LA:SMFFILE,(RB),LOC=GLOBHI
 USING  @VMFREE-72,R13
 00023A D709 D048 D048 00000 00000  4864             +
 000240 5030 D04C            00004  4874             +
 000244 5050 D048            00000  4885             +
 000248 D201 D050 A166 00008 00288  4886             +
 00024E 58F0 A15E/0DEF       00280  4889             +
 000254 981F C008            00008  4891     211.              PEND  ,
 DROP   SMFFILE,R5
 DROP   FILECB,R6
 DROP   #FILSMF-72,R12
 DROP   FILSMF,R10
 000258 9680 C000/0B0E 00000        4916             +
 DROP   @VMFREE-72,R13
1FILESERV (FILESE) (09:39) (22MAR04) MP-ORVYL File services                                                                 Page   47
0Current Usings:  (PZERO,R0)
0Loc    Object Code    Addr1 Addr2  Stmt Lv Lineno    Source Statement           (Hibal 5, Asmedit 3.3)  HLASM R4.0  2004/03/22 09.39
+___    ______ ____    _____ _____  ____ __ ______    ______ _________
0000260                             4926     213.              LTORG ,
 000260 00FFFFFF                    4928                             =X'00FFFFFF'
 000264 00000001                    4929                             =A(1)
 000268 00000000                    4930                             =V(VMGET)
 00026C D6D9E5C6                    4931                             =CL4'ORVF'
 000270 00000002                    4932                             =A(2)
 000274 00000020                    4933                             =A(SMFFGEN-SMFFILE)
 000278 00000028                    4934                             =A(SMFFFILE-SMFFILE)
 00027C 00000008                    4935                             =A(L'SMFFGEN)
 000280 00000000                    4936                             =V(VMFREE)
 000284 1000                        4937                             =Y(4096)
 000286 0008                        4938                             =Y(L'SMFFSDAT)
 000288 3B00                        4939                             =Y(59*256+0)
 00028A B7             0028B 01D00  4940                             =AL1(SMFNUM)
1FILESERV (FILESE) (09:39) (22MAR04) File systems initialization                                                            Page   48
0Current Usings:  (PZERO,R0)
0Loc    Object Code    Addr1 Addr2  Stmt Lv Lineno    Source Statement           (Hibal 5, Asmedit 3.3)  HLASM R4.0  2004/03/22 09.39
+___    ______ ____    _____ _____  ____ __ ______    ______ _________
0                                   4945     215.     *********************************************************************
                                    4946     216.     *                                                                   *
                                    4947     217.     *********************************************************************
0000000                00000 00018  4949     219.     #FILEINIT RECORD BEGIN
 000000                             4957  1  220.     #FIPREV    DS    A                       Previous FSB
 000004                             4958  1  221.     #FIFSID    DS    A                       File sys ID being initialized
 000008                             4959  1  222.     #FIPARM    DS    A                       Parameter allocation block
 000010                             4960  1  223.     #FIWORK    DS    D                       Work area
 000018                00018 00018  4961     224.              END   ,
0000000                00000 0006C  4971     226.     FIPARMS  RECORD BEGIN
 000000                             4979  1  227.     FITYPE     DS    XL(L'PARMIN)            Parameter request type
 000004                             4980  1  228.     FIKEY1     DS    CL8                     Keyword 1
 00000C                             4981  1  229.     FIKEY2     DS    CL8                     | 2
 000014                             4982  1  230.     FIKEY3     DS    CL8                     | 3
 00001C                             4983  1  231.     FISTR      DS    CL80                    Return area
 00006C                0006C 0006C  4984     232.              END   ,
000028C                             4994     234.     FILEINIT PROC  ,#FILEINIT,SCOPE=GLOBAL
 00028C C6C9D3C5C9D5C9E3            5000             +
 000294 0000/0018                   5001             +
 000298 900F D004/18AF       00004  5003             +
 USING  FILEINIT,R10
 00029E 50D0 C000/18CD       00000  5018             +
 0002A4 9680 C000      00000        5020             +
 USING  #FILEINIT-72,R12
 0002A8 41D0 C060            00060  5034             +
 USING  @VMGET-72,R13               5035     235.              VMGET L'FILECB,LOC=GLOBHI,FIX=YES
 0002AC D70A D048 D048 00000 00000  5059             +
 0002B2 4100 0158            00158  5071             +
 0002B6 5000 D048            00000  5076             +
 0002BA D201 D050 AB48 00008 00DE0  5077             +
 0002C0 58F0 AAE0/0DEF       00D78  5080             +
 0002C6 1260/4770 A064       002FC  5082     236.              IF    ('LTR RX,RVR',ZERO),'ABORT NOFILECB'
 0002CC AC04 021B      0021B        5099  1          +
 0002D0 9680 021A      0021A        5105  1          +
 0002D4 50F0 021C            0021C  5106  1          +
 0002D8 58F0 0210            00210  5107  1          +
 0002DC 89F0 0010            00010  5108  1          +
 0002E0 88F0 0010            00010  5109  1          +
 0002E4 41F0 F000            00000  5110  1          +
 0002E8 AEFF 0006            00006  5111  1          +
 0002EC D5D6C6C9D3C5C3C2            5112             +
 USING  FILECB,R6                   5117     237.              WITH  (FILECB,RX)
 0002FC                             5130     238.              CLEAR FILECB                  Clear and set ID
 0002FC D7FF 6000 6000 00000 00000  5136             +
 000302 D757 6100 6100 00100 00100  5137             +
 000308 D207 6000 AA00 00000 00C98  5138     239.              MVC   FILEID,=CL8'FILECB'     |
 00030E 5870 0200            00200  5139     240.              L     RY,MATPTR
 000312 5060 7028            00028  5140     241.              WITH  (MAT,RY),'ST  RX,MATFILCB'   Set anchor in MAT
 USING  MAT,R7
 DROP   MAT,R7
 000316                             5164     242.              VMGET L'FIPARMS,LOC=GLOBHI    Parameter allocation block
1FILESERV (FILESE) (09:39) (22MAR04) File systems initialization                                                            Page   49
0Current Usings:  (PZERO,R0) (FILECB,R6) (FILEINIT,R10) (#FILEINIT-72,R12) (@VMGET-72,R13)
0Loc    Object Code    Addr1 Addr2  Stmt Lv Lineno    Source Statement           (Hibal 5, Asmedit 3.3)  HLASM R4.0  2004/03/22 09.39
+___    ______ ____    _____ _____  ____ __ ______    ______ _________
0000316 D70A D048 D048 00000 00000  5181             +
 00031C 4100 006C            0006C  5193             +
 000320 5000 D048            00000  5198             +
 000324 D201 D050 AB4A 00008 00DE2  5199             +
 00032A 58F0 AAE0/0DEF       00D78  5202             +
 000330 1200/4770 A0CE       00366  5204     243.              IF    (RVR,ZERO),'ABORT NOFILEPRM'
 000336 AC04 021B      0021B        5222  1          +
 00033A 9680 021A      0021A        5228  1          +
 00033E 50F0 021C            0021C  5229  1          +
 000342 58F0 0210            00210  5230  1          +
 000346 89F0 0010            00010  5231  1          +
 00034A 88F0 0010            00010  5232  1          +
 00034E 41F0 F000            00000  5233  1          +
 000352 AEFF 0006            00006  5234  1          +
 000356 D5D6C6C9D3C5D7D9            5235             +
 000366 5000 C050            00008  5240     244.              ST    RVR,#FIPARM             |
                                    5241     245.     *
                                    5242     246.     *  Allocate file system group table
                                    5243     247.     *
 00036A 5830 AAE4            00D7C  5244     248.              L     RB,=A(36*26)
 00036E                             5245     249.              VMGET (RB),LOC=GLOBHI
 00036E D70A D048 D048 00000 00000  5262             +
 000374 5030 D048            00000  5272             +
 000378 D201 D050 AB4A 00008 00DE2  5273             +
 00037E 58F0 AAE0/0DEF       00D78  5276             +
 000384 1200/4770 A122       003BA  5278     250.              IF    (RVR,ZERO),'ABORT NOFSGT'
 00038A AC04 021B      0021B        5296  1          +
 00038E 9680 021A      0021A        5302  1          +
 000392 50F0 021C            0021C  5303  1          +
 000396 58F0 0210            00210  5304  1          +
 00039A 89F0 0010            00010  5305  1          +
 00039E 88F0 0010            00010  5306  1          +
 0003A2 41F0 F000            00000  5307  1          +
 0003A6 AEFF 0006            00006  5308  1          +
 0003AA D5D6C6E2C7E34040            5309             +
 0003BA 5000 6010            00010  5314     251.              ST    RVR,FILEFSGT
 0003BE 1820                        5315     252.              LR    RA,RVR                  Set to all X'FF' - unavail
 0003C0 5850 AAE8            00D80  5316     253.              L     RK,=X'FF000000'         |
 0003C4 0E24                        5317     254.              MVCL  RA,RJ                   |
                                    5318     255.     *
                                    5319     256.     *  Initialize buffer management routines
                                    5320     257.     *
 0003C6 5890 C050            00008  5321     258.              L     RN,#FIPARM
 USING  FIPARMS,R9                  5322     259.              WITH  (FIPARMS,RN),BEGIN
 AUSING (PARMIN,FITYPE)             5336  1  260.                WITH  (PARMIN,FITYPE)
                                    5343  1  261.     *
                                    5344  1  262.     *  Init File IO blocks
                                    5345  1  263.     *
 0003CA 9204 9000      00000        5346  1  264.                GETPARM2 KEY=(FILE,FILEIOS),REGS=(RA,RJ)
 0003CE D207 9004 AA08 00004 00CA0  5353  1          +
 0003D4 D207 900C AA10 0000C 00CA8  5354  1          +
 0003DA 4140 9000            00000  5361  1          +
 0003DE 4150 0014            00014  5368  1          +
 0003E2 83240016                    5371  1          +
1FILESERV (FILESE) (09:39) (22MAR04) File systems initialization                                                            Page   50
0Current Usings:  (PZERO,R0) (FILECB,R6) (FIPARMS,R9) (FILEINIT,R10) (#FILEINIT-72,R12) (@VMGET-72,R13)
0Loc    Object Code    Addr1 Addr2  Stmt Lv Lineno    Source Statement           (Hibal 5, Asmedit 3.3)  HLASM R4.0  2004/03/22 09.39
+___    ______ ____    _____ _____  ____ __ ______    ______ _________
00003E6 4780 A156            003EE  5372  1  265.                IF    NZ,'LA  RA,100'     Minimum if none specified
 0003EA 4120 0064            00064  5384  1          +
 DROP   @VMGET-72,R13               5389  1  266.                PSET  @SBINIT
 USING  @SBINIT-72,R13
 0003EE D708 D048 D048 00000 00000  5409  1          +
 0003F4                             5410  1  267.                PMOV  @SBILEN,=A(L'FILIOP) Buffer length
 0003F4 D203 D048 AAEC 00000 00D84  5414  1          +
 0003FA 5020 D04C            00004  5415  1  268.                ST    RA,@SBICNT          Count of buffers
 0003FE 9640 D050      00008        5416  1  269.                SET   @SBGLHI             High memory
 000402 9620 D050      00008        5422  1  270.                SET   @SBFIX              Fixed
 000406 58F0 AAF0/0DEF       00D88  5428  1  271.                VCALL SBUFINIT            Initialize the buffer pool
 00040C 5000 6030            00030  5432  1  272.                ST    RVR,FILEIOP         IO parm blocks
                                    5433  1  273.     *
                                    5434  1  274.     *  Exclude all cache blocks from any guest dump?
                                    5435  1  275.     *
 000410 9208 9000      00000        5436  1  276.                GETPARM2 FISTR,KEY=(,CDUMPNOT),TYPE=YESNO,REGS=(RA,RJ)
 000414 D207 900C AA18 0000C 00CB0  5443  1          +
 00041A 4120 901C            0001C  5450  1          +
 00041E 4130 0050            00050  5457  1          +
 000422 4140 9000            00000  5464  1          +
 000426 4150 0014            00014  5471  1          +
 00042A 83240016                    5474  1          +
 00042E 4770 A1A6            0043E  5475  1  277.                IF    ZERO,BEGIN              Look for Y/N
 000432 95E8 901C      0001C        5486  2  278.                  IF    ('CLI FISTR,C"Y"',NE),EXIT
 000436 4770 A1A6            0043E  5496  2          +
 00043A 9640 6014      00014        5502  2  279.                  SET   FILBNOTD                Don't dump cache blocks
 00043E                             5508  1  280.                END   ,                       OF Look for Y/N
                                    5512  1  281.     *
                                    5513  1  282.     *  Use hiperspace cache?
                                    5514  1  283.     *
 00043E 9208 9000      00000        5515  1  284.                GETPARM2 FISTR,KEY=(,HCACHE),TYPE=YESNO,REGS=(RA,RJ)
 000442 D207 900C AA20 0000C 00CB8  5522  1          +
 000448 4120 901C            0001C  5529  1          +
 00044C 4130 0050            00050  5536  1          +
 000450 4140 9000            00000  5543  1          +
 000454 4150 0014            00014  5550  1          +
 000458 83240016                    5553  1          +
 00045C 4770 A1D4            0046C  5554  1  285.                IF    ZERO,BEGIN              Look for Y/N
 000460 95E8 901C      0001C        5565  2  286.                  IF    ('CLI FISTR,C"Y"',NE),EXIT
 000464 4770 A1D4            0046C  5575  2          +
 000468 9680 6014      00014        5581  2  287.                  SET   FILBFHCA                Use hiperspace cache
 00046C                             5587  1  288.                END   ,                       OF Look for Y/N
                                    5591  1  289.     *
                                    5592  1  290.     *        Hiperspace cache
                                    5593  1  291.     *
 00046C 9180 6014      00014        5594  1  292.                IF    FILBFHCA,BEGIN      Hiperspace cache
 000470 47E0 A2A0            00538  5604  1          +
                                    5609  2  293.                  ¿þþþþþþþþþþþþþþþþþþþþþþþþþþÜ
                                    5610  2  294.                  Ÿ  Initialize file cache.  Ÿ
                                    5611  2  295.                  ¾þþþþþþþþþþþþþþþþþþþþþþþþþþ»
 000474 9204 9000      00000        5612  2  296.                  GETPARM2 KEY=(,FILEBUFH),TYPE=INT,REGS=(RA,RJ)
 000478 D207 900C AA28 0000C 00CC0  5619  2          +
 00047E 4140 9000            00000  5626  2          +
 000482 4150 0014            00014  5633  2          +
1FILESERV (FILESE) (09:39) (22MAR04) File systems initialization                                                            Page   51
0Current Usings:  (PZERO,R0) (FILECB,R6) (FIPARMS,R9) (FILEINIT,R10) (#FILEINIT-72,R12) (@SBINIT-72,R13)
0Loc    Object Code    Addr1 Addr2  Stmt Lv Lineno    Source Statement           (Hibal 5, Asmedit 3.3)  HLASM R4.0  2004/03/22 09.39
+___    ______ ____    _____ _____  ____ __ ______    ______ _________
0000486 83240016                    5636  2          +
 00048A 4780 A1FA            00492  5637  2  297.                  IF    NZ,'L RA,=A(10000)' Minimum if none specified
 00048E 5820 AAF4            00D8C  5649  2          +
 DROP   @SBINIT-72,R13              5654  2  298.                  PSET  @CAOPEN
 USING  @CAOPEN-72,R13
 000492 D708 D048 D048 00000 00000  5674  2          +
 000498 9140 6014      00014        5675  2  299.                  IF    FILBNOTD,'SET @CAOFNOT' Don't dump cache blocks
 00049C 47E0 A20C            004A4  5685  2          +
 0004A0 9680 D050      00008        5696  2          +
 0004A4 5020 D04C            00004  5701  2  300.                  ST    RA,@CAONBUF         Number of buffers
 0004A8 58F0 AAF8/0DEF       00D90  5702  2  301.                  VCALL CHOPEN              Call hiperspace init
 0004AE 5000 6018            00018  5706  2  302.                  ST    RVR,FILE2KCH        Save cache info
 0004B2 5000 6020            00020  5707  2  303.                  ST    RVR,FILE4KCH        Save cache info
                                    5708  2  304.                  ¿þþþþþþþþþþþþþþþþþþþþþþþþþþþþþþþþþþþþþþþÜ
                                    5709  2  305.                  Ÿ  Initialize system record file cache  Ÿ
                                    5710  2  306.                  ¾þþþþþþþþþþþþþþþþþþþþþþþþþþþþþþþþþþþþþþþ»
 0004B6 9204 9000      00000        5711  2  307.                  GETPARM2 KEY=(,FSYSBUFH),TYPE=INT,REGS=(RA,RJ)
 0004BA D207 900C AA30 0000C 00CC8  5718  2          +
 0004C0 4140 9000            00000  5725  2          +
 0004C4 4150 0014            00014  5732  2          +
 0004C8 83240016                    5735  2          +
 0004CC 4780 A23C            004D4  5736  2  308.                  IF    NZ,'LA  RA,1000'    Minimum if none specified
 0004D0 4120 03E8            003E8  5748  2          +
 0004D4                             5753  2  309.                  PSET  @CAOPEN
 0004D4 D708 D048 D048 00000 00000  5763  2          +
 0004DA 9140 6014      00014        5764  2  310.                  IF    FILBNOTD,'SET @CAOFNOT' Don't dump cache blocks
 0004DE 47E0 A24E            004E6  5774  2          +
 0004E2 9680 D050      00008        5785  2          +
 0004E6 5020 D04C            00004  5790  2  311.                  ST    RA,@CAONBUF         Number of buffers
 0004EA 58F0 AAF8/0DEF       00D90  5791  2  312.                  VCALL CHOPEN              Call hiperspace init
 0004F0 5000 601C            0001C  5795  2  313.                  ST    RVR,FILE2KCS        Save cache info
 0004F4 5000 6024            00024  5796  2  314.                  ST    RVR,FILE4KCs        Save cache info
                                    5797  2  315.                  ¿þþþþþþþþþþþþþþþþþþþþþþþþþþþþþþþþÜ
                                    5798  2  316.                  Ÿ  Initialize Read Buffer Table  Ÿ
                                    5799  2  317.                  ¾þþþþþþþþþþþþþþþþþþþþþþþþþþþþþþþþ»
 0004F8 9204 9000      00000        5800  2  318.                  GETPARM2 KEY=(,,READBUFH),TYPE=INT,REGS=(RA,RJ)
 0004FC D207 9014 AA38 00014 00CD0  5807  2          +
 000502 4140 9000            00000  5814  2          +
 000506 4150 001C            0001C  5821  2          +
 00050A 83240016                    5824  2          +
 00050E 4780 A27E            00516  5825  2  319.                  IF    NZ,'LA  RA,100'      Minimum if none specified
 000512 4120 0064            00064  5837  2          +
 DROP   @CAOPEN-72,R13              5842  2  320.                  PSET  @SBINIT
 USING  @SBINIT-72,R13
 000516 D708 D048 D048 00000 00000  5862  2          +
 00051C                             5863  2  321.                  PMOV  @SBILEN,=A(4096)    Buffer length
 00051C D203 D048 AAFC 00000 00D94  5867  2          +
 000522 5020 D04C            00004  5868  2  322.                  ST    RA,@SBICNT          Count of buffers
 000526 9640 D050      00008        5869  2  323.                  SET   @SBGLHI             High non-fixed memory
 00052A 58F0 AAF0/0DEF       00D88  5875  2  324.                  VCALL SBUFINIT            Initialize the buffer pool
 000530 5000 6028            00028  5879  2  325.                  ST    RVR,FILE2KRB        Read buffers
 000534 5000 602C            0002C  5880  2  326.                  ST    RVR,FILE4KRB        Read buffers
 000538                             5881  1  327.                END   ,                   Hiperspace cache
                                    5885  1  328.     *
1FILESERV (FILESE) (09:39) (22MAR04) File systems initialization                                                            Page   52
0Current Usings:  (PZERO,R0) (FILECB,R6) (FIPARMS,R9) (FILEINIT,R10) (#FILEINIT-72,R12) (@SBINIT-72,R13)
0Loc    Object Code    Addr1 Addr2  Stmt Lv Lineno    Source Statement           (Hibal 5, Asmedit 3.3)  HLASM R4.0  2004/03/22 09.39
+___    ______ ____    _____ _____  ____ __ ______    ______ _________
0                                   5886  1  329.     *        Regular cache
                                    5887  1  330.     *
 000538 A2A4           00538 00472  5888  1  331.                ELSE  BEGIN               Regular cache
 000538 47F0 A438            006D0  5893  1          +
                                    5899  2  332.                  ¿þþþþþþþþþþþþþþþþþþþþþþþþþþþþþþþþþþþþÜ
                                    5900  2  333.                  Ÿ  Initialize 2K file buffer cache.  Ÿ
                                    5901  2  334.                  ¾þþþþþþþþþþþþþþþþþþþþþþþþþþþþþþþþþþþþ»
 00053C 9204 9000      00000        5902  2  335.                  GETPARM2 KEY=(,BUF2K,FILEBUFS),TYPE=INT,REGS=(RA,RJ)
 000540 D207 900C AA40 0000C 00CD8  5909  2          +
 000546 D207 9014 AA48 00014 00CE0  5910  2          +
 00054C 4140 9000            00000  5917  2          +
 000550 4150 001C            0001C  5924  2          +
 000554 83240016                    5927  2          +
 000558 4780 A2C8            00560  5928  2  336.                  IF    NZ,'L RA,=A(10000)' Minimum if none specified
 00055C 5820 AAF4            00D8C  5940  2          +
 DROP   @SBINIT-72,R13              5945  2  337.                  PSET  @CAOPEN
 USING  @CAOPEN-72,R13
 000560 D708 D048 D048 00000 00000  5965  2          +
 000566 9140 6014      00014        5966  2  338.                  IF    FILBNOTD,'SET @CAOFNOT' Don't dump cache blocks
 00056A 47E0 A2DA            00572  5976  2          +
 00056E 9680 D050      00008        5987  2          +
 000572 5020 D04C            00004  5992  2  339.                  ST    RA,@CAONBUF         Number of buffers
 000576                             5993  2  340.                  PMOV  @CAODLEN,=A(2048)   Orvyl file sys block length
 000576 D203 D048 AB00 00000 00D98  5997  2          +
 00057C 58F0 AB04/0DEF       00D9C  5998  2  341.                  VCALL CAOPEN              Initialize caching routines
 000582 5000 6018            00018  6002  2  342.                  ST    RVR,FILE2KCH        Save cache info
                                    6003  2  343.                  ¿þþþþþþþþþþþþþþþþþþþþþþþþþþþþþþþþþþþþþþþþþþþþþþþþÜ
                                    6004  2  344.                  Ÿ  Initialize 2K sytem record file buffer cache  Ÿ
                                    6005  2  345.                  ¾þþþþþþþþþþþþþþþþþþþþþþþþþþþþþþþþþþþþþþþþþþþþþþþþ»
 000586 9204 9000      00000        6006  2  346.                  GETPARM2 KEY=(,,FSYSBUFS),TYPE=INT,REGS=(RA,RJ)
 00058A D207 9014 AA50 00014 00CE8  6013  2          +
 000590 4140 9000            00000  6020  2          +
 000594 4150 001C            0001C  6027  2          +
 000598 83240016                    6030  2          +
 00059C 4780 A30C            005A4  6031  2  347.                  IF    NZ,'LA  RA,1000'    Minimum if none specified
 0005A0 4120 03E8            003E8  6043  2          +
 0005A4                             6048  2  348.                  PSET  @CAOPEN
 0005A4 D708 D048 D048 00000 00000  6058  2          +
 0005AA 9140 6014      00014        6059  2  349.                  IF    FILBNOTD,'SET @CAOFNOT' Don't dump cache blocks
 0005AE 47E0 A31E            005B6  6069  2          +
 0005B2 9680 D050      00008        6080  2          +
 0005B6 5020 D04C            00004  6085  2  350.                  ST    RA,@CAONBUF         Number of buffers
 0005BA                             6086  2  351.                  PMOV  @CAODLEN,=A(2048)   Orvyl file sys block length
 0005BA D203 D048 AB00 00000 00D98  6090  2          +
 0005C0 58F0 AB04/0DEF       00D9C  6091  2  352.                  VCALL CAOPEN              Initialize caching routines
 0005C6 5000 601C            0001C  6095  2  353.                  ST    RVR,FILE2KCS        2K sys cache buffers
                                    6096  2  354.                  ¿þþþþþþþþþþþþþþþþþþþþþþþþþþþþþþþþþþþÜ
                                    6097  2  355.                  Ÿ  Initialize 2K Read Buffer Table  Ÿ
                                    6098  2  356.                  ¾þþþþþþþþþþþþþþþþþþþþþþþþþþþþþþþþþþþ»
 0005CA 9204 9000      00000        6099  2  357.                  GETPARM2 KEY=(,,READBUFS),TYPE=INT,REGS=(RA,RJ)
 0005CE D207 9014 AA58 00014 00CF0  6106  2          +
 0005D4 4140 9000            00000  6113  2          +
 0005D8 4150 001C            0001C  6120  2          +
 0005DC 83240016                    6123  2          +
1FILESERV (FILESE) (09:39) (22MAR04) File systems initialization                                                            Page   53
0Current Usings:  (PZERO,R0) (FILECB,R6) (FIPARMS,R9) (FILEINIT,R10) (#FILEINIT-72,R12) (@CAOPEN-72,R13)
0Loc    Object Code    Addr1 Addr2  Stmt Lv Lineno    Source Statement           (Hibal 5, Asmedit 3.3)  HLASM R4.0  2004/03/22 09.39
+___    ______ ____    _____ _____  ____ __ ______    ______ _________
00005E0 4780 A350            005E8  6124  2  358.                  IF    NZ,'LA  RA,20'      Minimum if none specified
 0005E4 4120 0014            00014  6136  2          +
 DROP   @CAOPEN-72,R13              6141  2  359.                  PSET  @SBINIT
 USING  @SBINIT-72,R13
 0005E8 D708 D048 D048 00000 00000  6161  2          +
 0005EE                             6162  2  360.                  PMOV  @SBILEN,=A(2048)   Buffer length
 0005EE D203 D048 AB00 00000 00D98  6166  2          +
 0005F4 5020 D04C            00004  6167  2  361.                  ST    RA,@SBICNT         Count of buffers
 0005F8 9640 D050      00008        6168  2  362.                  SET   @SBGLHI            High non-fixed memory
 0005FC 58F0 AAF0/0DEF       00D88  6174  2  363.                  VCALL SBUFINIT           Initialize the buffer pool
 000602 5000 6028            00028  6178  2  364.                  ST    RVR,FILE2KRB       2K Read buffers
                                    6179  2  365.                  ¿þþþþþþþþþþþþþþþþþþþþþþþþþþþþþþþþþþþþÜ
                                    6180  2  366.                  Ÿ  Initialize 4K file buffer cache.  Ÿ
                                    6181  2  367.                  ¾þþþþþþþþþþþþþþþþþþþþþþþþþþþþþþþþþþþþ»
 000606 9204 9000      00000        6182  2  368.                  GETPARM2 KEY=(,BUF4K,FILEBUFS),TYPE=INT,REGS=(RA,RJ)
 00060A D207 900C AA60 0000C 00CF8  6189  2          +
 000610 D207 9014 AA48 00014 00CE0  6190  2          +
 000616 4140 9000            00000  6197  2          +
 00061A 4150 001C            0001C  6204  2          +
 00061E 83240016                    6207  2          +
 000622 4780 A392            0062A  6208  2  369.                  IF    NZ,'LA  RA,100'    Minimum if none specified
 000626 4120 0064            00064  6220  2          +
 DROP   @SBINIT-72,R13              6225  2  370.                  PSET  @CAOPEN
 USING  @CAOPEN-72,R13
 00062A D708 D048 D048 00000 00000  6245  2          +
 000630 9140 6014      00014        6246  2  371.                  IF    FILBNOTD,'SET @CAOFNOT' Don't dump cache blocks
 000634 47E0 A3A4            0063C  6256  2          +
 000638 9680 D050      00008        6267  2          +
 00063C 5020 D04C            00004  6272  2  372.                  ST    RA,@CAONBUF        Number of buffers
 000640                             6273  2  373.                  PMOV  @CAODLEN,=A(4096)  Orvyl file sys block length
 000640 D203 D048 AAFC 00000 00D94  6277  2          +
 000646 58F0 AB04/0DEF       00D9C  6278  2  374.                  VCALL CAOPEN             Initialize caching routines
 00064C 5000 6020            00020  6282  2  375.                  ST    RVR,FILE4KCH       Save cache ptr
                                    6283  2  376.                  ¿þþþþþþþþþþþþþþþþþþþþþþþþþþþþþþþþþþþþþþþþþþþþþþþþÜ
                                    6284  2  377.                  Ÿ  Initialize 4K sytem record file buffer cache  Ÿ
                                    6285  2  378.                  ¾þþþþþþþþþþþþþþþþþþþþþþþþþþþþþþþþþþþþþþþþþþþþþþþþ»
 000650 9204 9000      00000        6286  2  379.                  GETPARM2 KEY=(,,FSYSBUFS),TYPE=INT,REGS=(RA,RJ)
 000654 D207 9014 AA50 00014 00CE8  6293  2          +
 00065A 4140 9000            00000  6300  2          +
 00065E 4150 001C            0001C  6307  2          +
 000662 83240016                    6310  2          +
 000666 4780 A3D6            0066E  6311  2  380.                  IF    NZ,'LA  RA,1000'    Minimum if none specified
 00066A 4120 03E8            003E8  6323  2          +
 00066E                             6328  2  381.                  PSET  @CAOPEN
 00066E D708 D048 D048 00000 00000  6338  2          +
 000674 9140 6014      00014        6339  2  382.                  IF    FILBNOTD,'SET @CAOFNOT' Don't dump cache blocks
 000678 47E0 A3E8            00680  6349  2          +
 00067C 9680 D050      00008        6360  2          +
 000680 5020 D04C            00004  6365  2  383.                  ST    RA,@CAONBUF         Number of buffers
 000684                             6366  2  384.                  PMOV  @CAODLEN,=A(4096)   Orvyl file sys block length
 000684 D203 D048 AAFC 00000 00D94  6370  2          +
 00068A 58F0 AB04/0DEF       00D9C  6371  2  385.                  VCALL CAOPEN              Initialize caching routines
 000690 5000 6024            00024  6375  2  386.                  ST    RVR,FILE4KCS        4K sys cache buffers
1FILESERV (FILESE) (09:39) (22MAR04) File systems initialization                                                            Page   54
0Current Usings:  (PZERO,R0) (FILECB,R6) (FIPARMS,R9) (FILEINIT,R10) (#FILEINIT-72,R12) (@CAOPEN-72,R13)
0Loc    Object Code    Addr1 Addr2  Stmt Lv Lineno    Source Statement           (Hibal 5, Asmedit 3.3)  HLASM R4.0  2004/03/22 09.39
+___    ______ ____    _____ _____  ____ __ ______    ______ _________
0                                   6376  2  387.                  ¿þþþþþþþþþþþþþþþþþþþþþþþþþþþþþþþþþþþÜ
                                    6377  2  388.                  Ÿ  Initialize 4K Read Buffer Table  Ÿ
                                    6378  2  389.                  ¾þþþþþþþþþþþþþþþþþþþþþþþþþþþþþþþþþþþ»
 000694 9204 9000      00000        6379  2  390.                  GETPARM2 KEY=(,,READBUFS),TYPE=INT,REGS=(RA,RJ)
 000698 D207 9014 AA58 00014 00CF0  6386  2          +
 00069E 4140 9000            00000  6393  2          +
 0006A2 4150 001C            0001C  6400  2          +
 0006A6 83240016                    6403  2          +
 0006AA 4780 A41A            006B2  6404  2  391.                  IF    NZ,'LA  RA,2'       Minimum if none specified
 0006AE 4120 0002            00002  6416  2          +
 DROP   @CAOPEN-72,R13              6421  2  392.                  PSET  @SBINIT
 USING  @SBINIT-72,R13
 0006B2 D708 D048 D048 00000 00000  6441  2          +
 0006B8                             6442  2  393.                  PMOV  @SBILEN,=A(4096)    Buffer length
 0006B8 D203 D048 AAFC 00000 00D94  6446  2          +
 0006BE 5020 D04C            00004  6447  2  394.                  ST    RA,@SBICNT          Count of buffers
 0006C2 9640 D050      00008        6448  2  395.                  SET   @SBGLHI             High non-fixed memory
 0006C6 58F0 AAF0/0DEF       00D88  6454  2  396.                  VCALL SBUFINIT            Initialize the buffer pool
 0006CC 5000 602C            0002C  6458  2  397.                  ST    RVR,FILE4KRB        4K Read buffers
 0006D0                             6459  1  398.                END   ,
 DROP   FIPARMS,R9                  6463     399.              END   ,                   Regular cache
                                    6471     400.     *
                                    6472     401.     *  Set MAT pointer to buffer wait block list
                                    6473     402.     *
 0006D0 41F0 6038            00038  6474     403.              LA    R15,FILEBW          Init list
 0006D4 5870 0200            00200  6475     404.              L     RY,MATPTR           Set pointer for RESMAN in MAT
 0006D8 50F0 7020            00020  6476     405.              WITH  (MAT,RY),'ST R15,MATSBWB' Set anchor in MAT
 USING  MAT,R7
 DROP   MAT,R7
                                    6500     406.     *
                                    6501     407.     *  Set up I/O loop
                                    6502     408.     *
 0006DC 4150 6004            00004  6503     409.              LA    RK,FILEFFSB-(FSBCHAIN-FSB)       Set anchor as prev
 0006E0 5050 C048            00000  6504     410.              ST    RK,#FIPREV              |
 0006E4                             6505     411.              CLEAR #FIFSID                 | first file sys coming up
 0006E4 D703 C04C C04C 00004 00004  6511             +
                                    6512     412.     *
                                    6513     413.     *  Loop through FSs, initializing them
                                    6514     414.     *
 0006EA                             6515     415.     INITFS   LOOP  BEGIN                   Loop through FSs
 0006EA 5890 C050            00008  6522  1  416.                L     RN,#FIPARM
 USING  FIPARMS,R9                  6523  1  417.                WITH  (FIPARMS,RN),BEGIN      Parameter addr
 AUSING (PARMIN,FITYPE)             6537  2  418.                  WITH  (PARMIN,FITYPE)
 0006EE D207 900C AA68 0000C 00D00  6544  2  419.                  MVC   FIKEY2,=CL8'FS'         Set second level keyword
 0006F4 5820 C04C            00004  6545  2  420.                  L     RA,#FIFSID              |
 0006F8 5E20 AB08            00DA0  6546  2  421.                  INCR  RA                      | fsid + 1
 0006FC 4E20 C058            00010  6549  2  422.                  CVD   RA,#FIWORK              |
 000700 F327 900E C058 0000E 00010  6550  2  423.                  UNPK  FIKEY2+2(3),#FIWORK     |
 000706 96F0 9010      00010        6551  2  424.                  OI    FIKEY2+4,C'0'           | set sign of last digit
                                    6552  2  425.
 DROP   @SBINIT-72,R13              6553  2  426.                  VMGET L'FSB,LOC=GLOBHI,FIX=YES
 USING  @VMGET-72,R13
 00070A D70A D048 D048 00000 00000  6580  2          +
 000710 4100 01E0            001E0  6592  2          +
1FILESERV (FILESE) (09:39) (22MAR04) File systems initialization                                                            Page   55
0Current Usings:  (PZERO,R0) (FILECB,R6) (FIPARMS,R9) (FILEINIT,R10) (#FILEINIT-72,R12) (@VMGET-72,R13)
0Loc    Object Code    Addr1 Addr2  Stmt Lv Lineno    Source Statement           (Hibal 5, Asmedit 3.3)  HLASM R4.0  2004/03/22 09.39
+___    ______ ____    _____ _____  ____ __ ______    ______ _________
0000714 5000 D048            00000  6597  2          +
 000718 D201 D050 AB48 00008 00DE0  6598  2          +
 00071E 58F0 AAE0/0DEF       00D78  6601  2          +
 000724 1210/4770 A4C2       0075A  6603  2  427.                  IF    ('LTR RS,RVR',ZERO),'ABORT NOFSBMEM'
 00072A AC04 021B      0021B        6620  3          +
 00072E 9680 021A      0021A        6626  3          +
 000732 50F0 021C            0021C  6627  3          +
 000736 58F0 0210            00210  6628  3          +
 00073A 89F0 0010            00010  6629  3          +
 00073E 88F0 0010            00010  6630  3          +
 000742 41F0 F000            00000  6631  3          +
 000746 AEFF 0006            00006  6632  3          +
 00074A D5D6C6E2C2D4C5D4            6633  2          +
 USING  FSB,R1                      6638  2  428.                  WITH  (FSB,RS)                FSB addr
 00075A 1820                        6651  2  429.                  LR    RA,RVR                  | Clear FSB
 00075C 4130 01E0            001E0  6652  2  430.                  LA    RB,L'FSB                |
 000760 1B55                        6653  2  431.                  CLEAR RK                      |
 000762 0E24                        6657  2  432.                  MVCL  RA,RJ                   |
 000764 9620 1009      00009        6658  2  433.                  SET   FSBINIT                 Set as in initialization
                                    6664  2  434.
 DROP   @VMGET-72,R13               6665  2  435.                  PSET  @FSINIT
 USING  @FSINIT-72,R13
 000768 D707 D048 D048 00000 00000  6685  2          +
 00076E 5010 D048            00000  6686  2  436.                  PMOV  @FSIFSB,LA:FSB
 000772 5090 D04C            00004  6697  2  437.                  PMOV  @FSIPARM,LA:FIPARMS
 000776 41F0 AB78/0DEF       00E10  6708  2  438.                  LCALL FSINIT
                                    6717  2  439.
 00077C                             6718  2  440.                  IF    (FSBTBLK,ZERO),BEGIN    No file system of that number
 00077C D603 10E0 10E0 000E0 000E0  6728  2          +
 000782 4770 A510            007A8  6729  2          +
 DROP   @FSINIT-72,R13              6734  3  441.                    VMFREE A=LA:FSB,L'FSB,LOC=GLOBHI,FIX=YES
 USING  @VMFREE-72,R13
 000786 D709 D048 D048 00000 00000  6761  3          +
 00078C 4100 01E0            001E0  6773  3          +
 000790 5000 D04C            00004  6778  3          +
 000794 5010 D048            00000  6789  3          +
 000798 D201 D050 AB48 00008 00DE0  6790  3          +
 00079E 58F0 AB0C/0DEF       00DA4  6793  3          +
 0007A4 47F0 A8B8            00B50  6795  3  442.                    EXIT  INITFS
 0007A8                             6798  2  443.                  END   ,                       OF No file sys of that number
                                    6802  2  444.     *
                                    6803  2  445.     *  Set FSID for this file system
                                    6804  2  446.     *
 0007A8 5820 C04C            00004  6805  2  447.                  L     RA,#FIFSID              Get File System ID
 0007AC 4220 1008            00008  6806  2  448.                  STC   RA,FSBID                Save ID
 0007B0 4220 1003            00003  6807  2  449.                  STC   RA,FSBBID+L'FSBBID-1    Easier to find in dumps
 0007B4 5E20 AB08            00DA0  6808  2  450.                  INCR  RA
 0007B8 5020 C04C            00004  6811  2  451.                  ST    RA,#FIFSID
                                    6812  2  452.     *
                                    6813  2  453.     *  Get Owner account for this FSID
                                    6814  2  454.     *
 0007BC D205 1020 AB4C 00020 00DE4  6815  2  455.                  MVC   FSBOWNER,=CL6'GG.ORV'   Default owner
 0007C2 9200 9000      00000        6816  2  456.                  GETPARM2 FISTR,KEY=(,,OWNER),TYPE=STRING,REGS=(RA,RJ)
 0007C6 D207 9014 AA70 00014 00D08  6823  2          +
1FILESERV (FILESE) (09:39) (22MAR04) File systems initialization                                                            Page   56
0Current Usings:  (PZERO,R0) (FSB,R1) (FILECB,R6) (FIPARMS,R9) (FILEINIT,R10) (#FILEINIT-72,R12) (@VMFREE-72,R13)
0Loc    Object Code    Addr1 Addr2  Stmt Lv Lineno    Source Statement           (Hibal 5, Asmedit 3.3)  HLASM R4.0  2004/03/22 09.39
+___    ______ ____    _____ _____  ____ __ ______    ______ _________
00007CC 4120 901C            0001C  6830  2          +
 0007D0 4130 0050            00050  6837  2          +
 0007D4 4140 9000            00000  6844  2          +
 0007D8 4150 001C            0001C  6851  2          +
 0007DC 83240016                    6854  2          +
 0007E0 4770 A55E            007F6  6855  2  457.                  IF    ZERO,BEGIN              Owner parm OK
 0007E4 5930 AB10            00DA8  6866  3  458.                    CEIL  RB,L'FSBOWNER
 0007E8 47D0 A558            007F0  6875  3          +
 0007EC 5830 AB10            00DA8  6880  3          +
 0007F0 0630/4430 AB5A       00DF2  6885  3  459.                    DEX   RB,'MVC FSBOWNER(0),@RA'
 000DF2 D200 1020 2000 00020 00000  6896  3          +
 0007F6                             6904  2  460.                  END   ,                       OF Owner parm OK
                                    6908  2  461.     *
                                    6909  2  462.     *  Get Name of this file system
                                    6910  2  463.     *
 0007F6 D207 1018 AA78 00018 00D10  6911  2  464.                  MVC   FSBNAME,=CL8' '         Default name
 0007FC 9200 9000      00000        6912  2  465.                  GETPARM2 FISTR,KEY=(,,NAME),TYPE=STRING,REGS=(RA,RJ)
 000800 D207 9014 AA80 00014 00D18  6919  2          +
 000806 4120 901C            0001C  6926  2          +
 00080A 4130 0050            00050  6933  2          +
 00080E 4140 9000            00000  6940  2          +
 000812 4150 001C            0001C  6947  2          +
 000816 83240016                    6950  2          +
 00081A 4780 A58E            00826  6951  2  466.                  IF    NZ,'LA EPAR,2 ; B BADPARM '
 00081E 41F0 0002            00002  6963  3          +
 000822 47F0 A964            00BFC  6964  2          +
 000826 5930 AB14            00DAC  6969  2  467.                  CEIL  RB,L'FSBNAME
 00082A 47D0 A59A            00832  6978  2          +
 00082E 5830 AB14            00DAC  6983  2          +
 000832 0630/4430 AB60       00DF8  6988  2  468.                  DEX   RB,'MVC FSBNAME(0),@RA'
 000DF8 D200 1018 2000 00018 00000  6999  2          +
                                    7007  2  469.     *
                                    7008  2  470.     *  Get DDNAME of this file system
                                    7009  2  471.     *
 000838 D203 1014 AA78 00014 00D10  7010  2  472.                  MVC   FSBDDN,=CL8' '          Default DDNAME
 00083E 9200 9000      00000        7011  2  473.                  GETPARM2 FISTR,KEY=(,,DDNAME),TYPE=STRING,REGS=(RA,RJ)
 000842 D207 9014 AA88 00014 00D20  7018  2          +
 000848 4120 901C            0001C  7025  2          +
 00084C 4130 0050            00050  7032  2          +
 000850 4140 9000            00000  7039  2          +
 000854 4150 001C            0001C  7046  2          +
 000858 83240016                    7049  2          +
 00085C 4770 A5DA            00872  7050  2  474.                  IF    ZERO,BEGIN              DDNAME supplied
 000860 5930 AB18            00DB0  7061  3  475.                    CEIL  RB,L'FSBDDN
 000864 47D0 A5D4            0086C  7070  3          +
 000868 5830 AB18            00DB0  7075  3          +
 00086C 0630/4430 AB66       00DFE  7080  3  476.                    DEX   RB,'MVC FSBDDN(0),@RA'
 000DFE D200 1014 2000 00014 00000  7091  3          +
 000872                             7099  2  477.                  END   ,                       OF DDNAME supplied
                                    7103  2  478.     *
                                    7104  2  479.     *  Get default block allocation of this file system
                                    7105  2  480.     *
 000872 D203 10E4 AB1C 000E4 00DB4  7106  2  481.                  MVC   FSBDBLK,=A(2500)        Default block allocation
 000878 9204 9000      00000        7107  2  482.                  GETPARM2 KEY=(,,DEFBLOCK),TYPE=INT,REGS=(RA,RJ)
1FILESERV (FILESE) (09:39) (22MAR04) File systems initialization                                                            Page   57
0Current Usings:  (PZERO,R0) (FSB,R1) (FILECB,R6) (FIPARMS,R9) (FILEINIT,R10) (#FILEINIT-72,R12) (@VMFREE-72,R13)
0Loc    Object Code    Addr1 Addr2  Stmt Lv Lineno    Source Statement           (Hibal 5, Asmedit 3.3)  HLASM R4.0  2004/03/22 09.39
+___    ______ ____    _____ _____  ____ __ ______    ______ _________
000087C D207 9014 AA90 00014 00D28  7114  2          +
 000882 4140 9000            00000  7121  2          +
 000886 4150 001C            0001C  7128  2          +
 00088A 83240016                    7131  2          +
 00088E 4770 A5FE            00896  7132  2  483.                  IF    ZERO,BEGIN
 000892 5020 10E4            000E4  7143  3  484.                    ST    RA,FSBDBLK
 000896                             7144  2  485.                  END   ,                       OF Default block allocation
                                    7148  2  486.     *
                                    7149  2  487.     *  Get number of catalog buffers this file system
                                    7150  2  488.     *  This number is stored in FSBBLKTOP, and buffers are allocated
                                    7151  2  489.     *  later
 000896 D203 105C AB20 0005C 00DB8  7152  2  490.                  MVC   FSBBLKTOP,=A(4)         Default number of blocks
 00089C 9204 9000      00000        7153  2  491.                  GETPARM2 KEY=(,,CATBUFF),TYPE=INT,REGS=(RA,RJ)
 0008A0 D207 9014 AA98 00014 00D30  7160  2          +
 0008A6 4140 9000            00000  7167  2          +
 0008AA 4150 001C            0001C  7174  2          +
 0008AE 83240016                    7177  2          +
 0008B2 4770 A63A            008D2  7178  2  492.                  IF    ZERO,BEGIN              Catalog buffers
 0008B6 5920 AB20            00DB8  7189  3  493.                    FLOOR RA,4
 0008BA 47B0 A62A            008C2  7198  3          +
 0008BE 5820 AB20            00DB8  7203  3          +
 0008C2 5920 AB24            00DBC  7208  3  494.                    CEIL  RA,CFSBBUF
 0008C6 47D0 A636            008CE  7217  3          +
 0008CA 5820 AB24            00DBC  7222  3          +
 0008CE 5020 105C            0005C  7227  3  495.                    ST    RA,FSBBLKTOP
 0008D2                             7228  2  496.                  END   ,                       OF Catalog buffers
                                    7232  2  497.     *
                                    7233  2  498.     *  Get number of blocks to cache in block allocation buffer
                                    7234  2  499.     *
 0008D2 D201 10D0 AB52 000D0 00DEA  7235  2  500.                  MVC   FSBBMCNO,=Y(64)         Default number to cache
 0008D8 9204 9000      00000        7236  2  501.                  GETPARM2 KEY=(,,BITCACHE),TYPE=INT,REGS=(RA,RJ)
 0008DC D207 9014 AAA0 00014 00D38  7243  2          +
 0008E2 4140 9000            00000  7250  2          +
 0008E6 4150 001C            0001C  7257  2          +
 0008EA 83240016                    7260  2          +
 0008EE 4770 A65E            008F6  7261  2  502.                  IF    ZERO,'STH RA,FSBBMCNO'   Number of blocks to cache
 0008F2 4020 10D0            000D0  7273  2          +
                                    7278  2  503.     *
                                    7279  2  504.     *  Is this a production file system?
                                    7280  2  505.     *
 0008F6 9208 9000      00000        7281  2  506.                  GETPARM2 FISTR,KEY=(,,PROD),TYPE=YESNO,REGS=(RA,RJ)
 0008FA D207 9014 AAA8 00014 00D40  7288  2          +
 000900 4120 901C            0001C  7295  2          +
 000904 4130 0050            00050  7302  2          +
 000908 4140 9000            00000  7309  2          +
 00090C 4150 001C            0001C  7316  2          +
 000910 83240016                    7319  2          +
 000914 4770 A68C            00924  7320  2  507.                  IF    ZERO,BEGIN              Look for Y/N
 000918 95E8 901C      0001C        7331  3  508.                    IF    ('CLI FISTR,C"Y"',NE),EXIT
 00091C 4770 A68C            00924  7341  3          +
 000920 9680 100A      0000A        7347  3  509.                    SET   FSBSPROD                Production file sys
 000924                             7353  2  510.                  END   ,                       OF Look for Y/N
1FILESERV (FILESE) (09:39) (22MAR04) File systems initialization                                                            Page   58
0Current Usings:  (PZERO,R0) (FSB,R1) (FILECB,R6) (FIPARMS,R9) (FILEINIT,R10) (#FILEINIT-72,R12) (@VMFREE-72,R13)
0Loc    Object Code    Addr1 Addr2  Stmt Lv Lineno    Source Statement           (Hibal 5, Asmedit 3.3)  HLASM R4.0  2004/03/22 09.39
+___    ______ ____    _____ _____  ____ __ ______    ______ _________
0                                   7357  2  511.                  ¿þþþþþþþþþþþþþþþþþþþþþþþþþþþþþþþþþþþþþþþþþþþþþþþþþÜ
                                    7358  2  512.                  Ÿ  Allow batch when system is in Read-Only mode?  Ÿ
                                    7359  2  513.                  ¾þþþþþþþþþþþþþþþþþþþþþþþþþþþþþþþþþþþþþþþþþþþþþþþþþ»
 000924 9208 9000      00000        7360  2  514.                  GETPARM2 FISTR,KEY=(,,BATCHRO),TYPE=YESNO,REGS=(RA,RJ)
 000928 D207 9014 AAB0 00014 00D48  7367  2          +
 00092E 4120 901C            0001C  7374  2          +
 000932 4130 0050            00050  7381  2          +
 000936 4140 9000            00000  7388  2          +
 00093A 4150 001C            0001C  7395  2          +
 00093E 83240016                    7398  2          +
 000942 4770 A6BA            00952  7399  2  515.                  IF    ZERO,BEGIN              Look for Y/N
 000946 95E8 901C      0001C        7410  3  516.                    IF    ('CLI FISTR,C"Y"',NE),EXIT
 00094A 4770 A6BA            00952  7420  3          +
 00094E 9640 100A      0000A        7426  3  517.                    SET   FSBSABRO                Allow batch in read-only
 000952                             7432  2  518.                  END   ,                       OF Look for Y/N
                                    7436  2  519.                  ¿þþþþþþþþþþþþþþþþþþþþþþþþþþÜ
                                    7437  2  520.                  Ÿ  Allow non-ixr'd files?  Ÿ
                                    7438  2  521.                  ¾þþþþþþþþþþþþþþþþþþþþþþþþþþ»
 000952 9208 9000      00000        7439  2  522.                  GETPARM2 FISTR,KEY=(,,NONIXR),TYPE=YESNO,REGS=(RA,RJ)
 000956 D207 9014 AAB8 00014 00D50  7446  2          +
 00095C 4120 901C            0001C  7453  2          +
 000960 4130 0050            00050  7460  2          +
 000964 4140 9000            00000  7467  2          +
 000968 4150 001C            0001C  7474  2          +
 00096C 83240016                    7477  2          +
 000970 4770 A6E8            00980  7478  2  523.                  IF    ZERO,BEGIN              Look for Y/N
 000974 95E8 901C      0001C        7489  3  524.                    IF    ('CLI FISTR,C"Y"',NE),EXIT
 000978 4770 A6E8            00980  7499  3          +
 00097C 9680 100B      0000B        7505  3  525.                    SET   FSBONIXR                Allow non-ixr files
 000980                             7511  2  526.                  END   ,                       OF Look for Y/N
                                    7515  2  527.                  ¿þþþþþþþþþþþþþþþþþþþþþþþÜ
                                    7516  2  528.                  Ÿ  Allow file caching?  Ÿ
                                    7517  2  529.                  ¾þþþþþþþþþþþþþþþþþþþþþþþ»
 000980 9208 9000      00000        7518  2  530.                  GETPARM2 FISTR,KEY=(,,CACHE),TYPE=YESNO,REGS=(RA,RJ)
 000984 D207 9014 AAC0 00014 00D58  7525  2          +
 00098A 4120 901C            0001C  7532  2          +
 00098E 4130 0050            00050  7539  2          +
 000992 4140 9000            00000  7546  2          +
 000996 4150 001C            0001C  7553  2          +
 00099A 83240016                    7556  2          +
 00099E 4770 A716            009AE  7557  2  531.                  IF    ZERO,BEGIN              Look for Y/N
 0009A2 95E8 901C      0001C        7568  3  532.                    IF    ('CLI FISTR,C"Y"',NE),EXIT
 0009A6 4770 A716            009AE  7578  3          +
 0009AA 9640 100B      0000B        7584  3  533.                    SET   FSBFCACHE               Do file caching
 0009AE                             7590  2  534.                  END   ,                       OF Look for Y/N
                                    7594  2  535.     *
                                    7595  2  536.     *  Is this the designated file system for temporary files?
                                    7596  2  537.     *
 0009AE 9208 9000      00000        7597  2  538.                  GETPARM2 FISTR,KEY=(,,TEMPFILE),TYPE=YESNO,REGS=(RA,RJ)
 0009B2 D207 9014 AAC8 00014 00D60  7604  2          +
 0009B8 4120 901C            0001C  7611  2          +
 0009BC 4130 0050            00050  7618  2          +
 0009C0 4140 9000            00000  7625  2          +
 0009C4 4150 001C            0001C  7632  2          +
1FILESERV (FILESE) (09:39) (22MAR04) File systems initialization                                                            Page   59
0Current Usings:  (PZERO,R0) (FSB,R1) (FILECB,R6) (FIPARMS,R9) (FILEINIT,R10) (#FILEINIT-72,R12) (@VMFREE-72,R13)
0Loc    Object Code    Addr1 Addr2  Stmt Lv Lineno    Source Statement           (Hibal 5, Asmedit 3.3)  HLASM R4.0  2004/03/22 09.39
+___    ______ ____    _____ _____  ____ __ ______    ______ _________
00009C8 83240016                    7635  2          +
 0009CC 4770 A78C            00A24  7636  2  539.                  IF    ZERO,BEGIN              Look for Y/N
 0009D0 95E8 901C      0001C        7647  3  540.                    IF    ('CLI FISTR,C"Y"',NE),EXIT
 0009D4 4770 A78C            00A24  7657  3          +
 0009D8                             7663  3  541.                    IF    (FILTEMPF,NZ),'ABORT MULTI_TEMPFILES'
 0009D8 D603 6034 6034 00034 00034  7673  3          +
 0009DE 4780 A77A            00A12  7674  3          +
 0009E2 AC04 021B      0021B        7683  4          +
 0009E6 9680 021A      0021A        7689  4          +
 0009EA 50F0 021C            0021C  7690  4          +
 0009EE 58F0 0210            00210  7691  4          +
 0009F2 89F0 0010            00010  7692  4          +
 0009F6 88F0 0010            00010  7693  4          +
 0009FA 41F0 F000            00000  7694  4          +
 0009FE AEFF 0006            00006  7695  4          +
 000A02 D4E4D3E3C96DE3C5            7696  3          +
 000A12 5010 6034            00034  7701  3  542.                    ST    RS,FILTEMPF             Set file sys for temp files
 000A16                             7702  3  543.                    IF    (FSBNAME,EQ,'TEMPFILE'),'SET FSBSTEMP' Dedicated to temp
 000A16 D507 AAD0 1018 00D68 00018  7713  3          +
 000A1C 4770 A78C            00A24  7714  3          +
 000A20 9620 100A      0000A        7725  3          +
 000A24                             7730  2  544.                  END   ,                       OF Look for Y/N
                                    7734  2  545.     *
                                    7735  2  546.     *  Set up accounts for this FS
                                    7736  2  547.     *    Parameters are in the form A7..ZX etc
                                    7737  2  548.     *
 000A24                             7738  2  549.                  LOOP  BEGIN                   Get account keywords
 000A24 9200 9000      00000        7744  3  550.                    GETPARM2 FISTR,KEY=(,,ACCT),TYPE=STRING,REGS=(RA,RJ)
 000A28 D207 9014 AAD8 00014 00D70  7751  3          +
 000A2E 4120 901C            0001C  7758  3          +
 000A32 4130 0050            00050  7765  3          +
 000A36 4140 9000            00000  7772  3          +
 000A3A 4150 001C            0001C  7779  3          +
 000A3E 83240016                    7782  3          +
 000A42 4770 A854            00AEC  7783  3  551.                    IF    NZ,EXIT
 000A46 4100 0000            00000  7797  3  552.                    LA    RVR,0                   | Preset error code
 000A4A 5930 AB28            00DC0  7798  3  553.                    IF    (RB,NE,6),BADACC
 000A4E 4770 A994            00C2C  7812  3          +
 000A52 4100 0004            00004  7818  3  554.                    LA    RVR,4                   Error code - no dots
 000A56                             7819  3  555.                    IF    ('CLC FISTR+2(2),=C".."',NE),BADACC
 000A56 D501 901E AB54 0001E 00DEC  7826  3          +
 000A5C 4770 A994            00C2C  7829  3          +
 000A60 D201 901E 9020 0001E 00020  7835  3  556.                    MVC   FISTR+2(2),FISTR+4      Translate - Move 2nd acct
 000A66 D603 901C AB2C 0001C 00DC4  7836  3  557.                    OC    FISTR(4),=CL4' '        | to upper case
 000A6C DC03 901C A903 0001C 00B9B  7837  3  558.                    TR    FISTR(4),ACCTBL         | to numerics
 000A72 4100 0008            00008  7838  3  559.                    LA    RVR,8                   Preset error code
                                    7839  3  560.   C                IF    (('CLI FISTR+0,25',GT),OR,('CLI FISTR+1,35',GT),OR,
                                          3  561.   C                      (' CLI FISTR+2,25',GT),OR,('CLI FISTR+3,35',GT)),
 000A76 9519 901C      0001C              3  562.                          BADACC
 000A7A 4720 A994            00C2C  7851  3          +
 000A7E 9523 901D      0001D        7858  3          +
 000A82 4720 A994            00C2C  7861  3          +
 000A86 9519 901E      0001E        7868  3          +
 000A8A 4720 A994            00C2C  7871  3          +
1FILESERV (FILESE) (09:39) (22MAR04) File systems initialization                                                            Page   60
0Current Usings:  (PZERO,R0) (FSB,R1) (FILECB,R6) (FIPARMS,R9) (FILEINIT,R10) (#FILEINIT-72,R12) (@VMFREE-72,R13)
0Loc    Object Code    Addr1 Addr2  Stmt Lv Lineno    Source Statement           (Hibal 5, Asmedit 3.3)  HLASM R4.0  2004/03/22 09.39
+___    ______ ____    _____ _____  ____ __ ______    ______ _________
0000A8E 9523 901F      0001F        7878  3          +
 000A92 4720 A994            00C2C  7881  3          +
 000A96 1F22/4320 901C       0001C  7887  3  563.                    LC    RA,FISTR                Starting account
 000A9C 4C20 AB56            00DEE  7894  3  564.                    MH    RA,=Y(36)               |
 000AA0 1F33/4330 901D       0001D  7895  3  565.                    LC    RB,FISTR+1              |
 000AA6 1E23                        7902  3  566.                    ALR   RA,RB                   |
 000AA8 1F44/4340 901E       0001E  7903  3  567.                    LC    RJ,FISTR+2              Ending account
 000AAE 4C40 AB56            00DEE  7910  3  568.                    MH    RJ,=Y(36)               |
 000AB2 1F55/4350 901F       0001F  7911  3  569.                    LC    RK,FISTR+3              |
 000AB8 1E45                        7918  3  570.                    ALR   RJ,RK                   |
 000ABA 4100 000C            0000C  7919  3  571.                    LA    RVR,12                  Preset error code
 000ABE 1B42/4740 A994       00C2C  7920  3  572.                    IF    ('SR RJ,RA',NEG),BADACC
 000AC4 4140 4001            00001  7936  3  573.                    LA    RJ,@RJ+1                Number of acct groups
 000AC8 5E20 6010            00010  7937  3  574.                    AL    RA,FILEFSGT             Offset of first acc group
 000ACC 18F2                        7938  3  575.                    LR    EPAR,RA                 |
 000ACE 1834                        7939  3  576.                    LR    RB,RJ                   Check for unassigned - len
 000AD0 5850 AAE8            00D80  7940  3  577.                    L     RK,=X'FF000000'         |
 000AD4 4100 000C            0000C  7941  3  578.                    LA    RVR,12                  | preset error code
 000AD8 0F24                        7942  3  579.                    CLCL  RA,RJ                   |
 000ADA 4770 A994            00C2C  7943  3  580.                    IF    NE,BADACC               |
 000ADE BF58 1008            00008  7957  3  581.                    ICM   RK,8,FSBID              Set file system id
 000AE2 182F                        7958  3  582.                    LR    RA,EPAR                 | location
 000AE4 1834                        7959  3  583.                    LR    RB,RJ                   | length
 000AE6 0E24                        7960  3  584.                    MVCL  RA,RJ                   |
 000AE8 47F0 A78C            00A24  7961  2  585.                  END   ,                       OF Get account keywords
 000AEC 4130 1000            00000  7966  2  586.                  LA    RB,FSB
 DROP   FSB,R1                      7967  1  587.                END   ,                       OF Parameter addr
 DROP   FIPARMS,R9
0USING  FSB,R3                      7981  1  589.                WITH  (FSB,RB)
 000AF0 5840 C048            00000  7994  1  590.                L     RJ,#FIPREV
 USING  PREV.FSB,R4                 7995  1  591.                WITH  (FSB,RJ),LABEL=PREV,BEGIN
 000AF4 5030 4004            00004  8004  2  592.                  ST    RB,PREV.FSBCHAIN        Back points fwd
 DROP   PREV.FSB,R4                 8005  1  593.                END   ,
 000AF8 5030 C048            00000  8016  1  594.                ST    RB,#FIPREV              Set this as previous
                                    8017  1  595.     *
                                    8018  1  596.     *  Set Buffer Management Pointers
                                    8019  1  597.     *
 000AFC                             8020  1  598.                IF    (FSBDSZ,EQ,2048),BEGIN
 000AFC D501 AB58 30AC 00DF0 000AC  8032  1          +
 000B02 4770 A88C            00B24  8033  1          +
 000B06 9180 6014      00014        8038  2  599.                  IF    FILBFHCA,'SET FSBHCACHE' Indicate hiperspace cache
 000B0A 47E0 A87A            00B12  8048  2          +
 000B0E 9620 300B      0000B        8059  2          +
 000B12 D203 3030 6018 00030 00018  8064  2  600.                  MVC   FSBCACHE,FILE2KCH       Block Cache anchor
 000B18 D203 302C 6028 0002C 00028  8065  2  601.                  MVC   FSBRBT,FILE2KRB         Read Buffer Table
 000B1E D203 3034 601C 00034 0001C  8066  2  602.                  MVC   FSBCACHS,FILE2KCS       Sys cache anchor
 000B24                             8067  1  603.                END   ,
 000B24 A890           00B24 00B04  8071  1  604.                ELSE  BEGIN
 000B24 47F0 A8AE            00B46  8076  1          +
 000B28 9180 6014      00014        8082  2  605.                  IF    FILBFHCA,'SET FSBHCACHE' Indicate hiperspace cache
 000B2C 47E0 A89C            00B34  8092  2          +
 000B30 9620 300B      0000B        8103  2          +
 000B34 D203 3030 6020 00030 00020  8108  2  606.                  MVC   FSBCACHE,FILE4KCH       Block Cache anchor
1FILESERV (FILESE) (09:39) (22MAR04) File systems initialization                                                            Page   61
0Current Usings:  (PZERO,R0) (FSB,R3) (FILECB,R6) (FILEINIT,R10) (#FILEINIT-72,R12) (@VMFREE-72,R13)
0Loc    Object Code    Addr1 Addr2  Stmt Lv Lineno    Source Statement           (Hibal 5, Asmedit 3.3)  HLASM R4.0  2004/03/22 09.39
+___    ______ ____    _____ _____  ____ __ ______    ______ _________
0000B3A D203 302C 602C 0002C 0002C  8109  2  607.                  MVC   FSBRBT,FILE4KRB         Read Buffer Table
 000B40 D203 3034 6024 00034 00024  8110  2  608.                  MVC   FSBCACHS,FILE4KCS       Sys cache anchor
 000B46                             8111  1  609.                END   ,
 000B46 D203 3040 6030 00040 00030  8115  1  610.                MVC   FSBIOP,FILEIOP          Set pointer for io parm blks
 000B4C 47F0 A452            006EA  8116     611.              END   ,                       OF Loop through FSs
 DROP   FSB,R3
                                    8126     612.     *
                                    8127     613.     *  FSB initializations are complete
                                    8128     614.     *
 000B50 D203 600C C04C 0000C 00004  8129     615.              MVC   FILEFSBC,#FIFSID        Number of FSBs
                                    8130     616.     *
                                    8131     617.     *  Free parameter area
                                    8132     618.     *
 000B56                             8133     619.              VMFREE A=L:#FIPARM,L'FIPARMS,LOC=GLOBHI
 000B56 D709 D048 D048 00000 00000  8150             +
 000B5C 4100 006C            0006C  8162             +
 000B60 5000 D04C            00004  8167             +
 000B64 D203 D048 C050 00000 00008  8172             +
 000B6A D201 D050 AB4A 00008 00DE2  8173             +
 000B70 58F0 AB0C/0DEF       00DA4  8176             +
                                    8178     620.     *
                                    8179     621.     *  Now initialize the File Systems
                                    8180     622.     *
 000B76 5850 6008            00008  8181     623.              L     RK,FILEFFSB         First FSB
 USING  FSB,R5                      8182     624.              WITH  (FSB,RK)
 000B7A 1B22                        8195     625.              CLEAR RA                  FSID
 000B7C                             8199     626.              LOOP  BEGIN               Init all file systems
 000B7C 9620 5009      00009        8205  1  627.                SET   FSBINIT             Set init in progress
 DROP   @VMFREE-72,R13              8211  1  628.                PSET  @FMFSB
 USING  @FMFSB-72,R13
 000B80 D704 D048 D048 00000 00000  8231  1          +
 000B86 5050 D048            00000  8232  1  629.                PMOV  @FMFSBP,LA:FSB
 000B8A 58F0 AB30/0DEF       00DC8  8243  1  630.                VCALL FMANINIT            Manager init
 000B90 58F0 AB34/0DEF       00DCC  8247  1  631.                VCALL FCATINIT            Catalog init
 000B96 58F0 AB38/0DEF       00DD0  8251  1  632.                VCALL FBITINIT            Bitmap init
 000B9C 94DF 5009      00009        8255  1  633.                CLEAR FSBINIT             Init done
                                    8262  1  634.     *
                                    8263  1  635.     * CLAIM OWNERSHIP OF THE FILE SYSTEMS
                                    8264  1  636.     *
                                    8265  1  637.                REGCH (RVR,R0),(RS,R1)
 000BA0 4110 0008            00008  8266  1  638.                LA    RS,L'FSBNAME            MAXIMUM NAME LENGTH
 000BA4                             8267  1  639.                LOOP  BEGIN
 000BA4 4181 5017            00017  8273  2  640.                  LA    RM,FSBNAME-1(RS)        LAST CHARACTER
 000BA8 9540 8000      00000        8274  2  641.                  CLI   @RM,C' '                STRIP
 000BAC 4770 A91E            00BB6  8275  2  642.                  IF    NE,EXIT                 | BLANKS
 000BB0 0610                        8289  2  643.                  DECR  RS
 000BB2 47F0 A90C            00BA4  8291  1  644.                END   ,
 000BB6 4100 5018            00018  8296  1  645.                LA    RVR,FSBNAME             Location / RS = length
 000BBA 5880 0200            00200  8297  1  646.                L     RM,MATPTR
 000BBE 4180 80D4            000D4  8298  1  647.                WITH  (MAT,RM),'LA RM,MATSNAME'
 USING  MAT,R8
 DROP   MAT,R8
 000BC2 4190 0003            00003  8322  1  648.                LA    RN,X'03'                Enqueue exclusive
 000BC6 8308000E                    8323  1  649.                SYSCTL RVR,RM,TYPE=MVSENQ
1FILESERV (FILESE) (09:39) (22MAR04) File systems initialization                                                            Page   62
0Current Usings:  (PZERO,R0) (FSB,R5) (FILECB,R6) (FILEINIT,R10) (#FILEINIT-72,R12) (@FMFSB-72,R13)
0Loc    Object Code    Addr1 Addr2  Stmt Lv Lineno    Source Statement           (Hibal 5, Asmedit 3.3)  HLASM R4.0  2004/03/22 09.39
+___    ______ ____    _____ _____  ____ __ ______    ______ _________
0000BCA 4780 A93A            00BD2  8326  1  650.                IF    NZ,'SET  FSBARO'        MARK IT READ ONLY IF IN USE
 000BCE 9640 5009      00009        8343  1          +
                                    8348  1  651.
 000BD2 5E20 AB08            00DA0  8349  1  652.                INCR  RA
 000BD6 5850 5004            00004  8352  1  653.                L     RK,FSBCHAIN             Next FSB
 000BDA 1255/4770 A8E4       00B7C  8353     654.              UNTIL (RK,ZERO),END           |
0                                   8376     656.     *
                                    8377     657.     *  INITIALIZE TEMP FILE DELETE PROCESSING
                                    8378     658.     *
 000BE0 58F0 AB3C/0DEF       00DD4  8379     659.              VCALL FMANTDIN                Initialize temp file delete
                                    8383     660.     *
                                    8384     661.     *  TELL JES IF EVERYTHING CAME UP OK
                                    8385     662.     *
 000BE6 58F0 AB40/0DEF       00DD8  8386     663.              ACALL STATFS
 000BEC 58F0 AB44/0DEF       00DDC  8393     664.              VCALL M1GOSTAT
 000BF2 981F C008            00008  8397     665.              PEND  ,
 DROP   FSB,R5
 DROP   FILECB,R6
 DROP   #FILEINIT-72,R12
 DROP   FILEINIT,R10
 000BF6 9680 C000/0B0E 00000        8422             +
 DROP   @FMFSB-72,R13
0000BFC AC04 021B      0021B        8432     667.     BADPARM  ABORT BADFILEPARM             EPAR = CODE OF WHICH PARM
 000C00 9680 021A      0021A        8442             +
 000C04 50F0 021C            0021C  8443             +
 000C08 58F0 0210            00210  8444             +
 000C0C 89F0 0010            00010  8445             +
 000C10 88F0 0010            00010  8446             +
 000C14 41F0 F000            00000  8447             +
 000C18 AEFF 0006            00006  8448             +
 000C1C C2C1C4C6C9D3C5D7            8449             +
0000C2C AC04 021B      0021B        8451     669.     BADACC   ABORT BADFILEACCT             RVR = subclass of error
 000C30 9680 021A      0021A        8461             +
 000C34 50F0 021C            0021C  8462             +
 000C38 58F0 0210            00210  8463             +
 000C3C 89F0 0010            00010  8464             +
 000C40 88F0 0010            00010  8465             +
 000C44 41F0 F000            00000  8466             +
 000C48 AEFF 0006            00006  8467             +
 000C4C C2C1C4C6C9D3C5C1            8468             +
1FILESERV (FILESE) (09:39) (22MAR04) File systems initialization                                                            Page   63
0Current Usings:  (PZERO,R0)
0Loc    Object Code    Addr1 Addr2  Stmt Lv Lineno    Source Statement           (Hibal 5, Asmedit 3.3)  HLASM R4.0  2004/03/22 09.39
+___    ______ ____    _____ _____  ____ __ ______    ______ _________
0                                   8470     671.     ACCTBL   EQU   ACCTDATA-C'A'
 000C5C FFFFFFFFFFFFFFFF            8471     672.     ACCTDATA DC    (C'9'-C'A'+1)X'FF'
 000C95                00C95 00C5C  8472     673.              ORG   ACCTBL+C'A'
 000C5C 0001020304050607            8473     674.              DC    AL1(00,01,02,03,04,05,06,07,08)  A..I
 000C65                00C65 00C6C  8474     675.              ORG   ACCTBL+C'J'
 000C6C 090A0B0C0D0E0F10            8475     676.              DC    AL1(09,10,11,12,13,14,15,16,17)  J..R
 000C75                00C75 00C7D  8476     677.              ORG   ACCTBL+C'S'
 000C7D 1213141516171819            8477     678.              DC    AL1(18,19,20,21,22,23,24,25)     S..Z
 000C85                00C85 00C8B  8478     679.              ORG   ACCTBL+C'0'
 000C8B 1A1B1C1D1E1F2021            8479     680.              DC    AL1(26,27,28,29,30,31,32,33,34,35)       0..9
 000C95                00C95 00C95  8480     681.              ORG   ,
 000C98                             8481     682.              LTORG ,
 000C98 C6C9D3C5C3C24040            8483                             =CL8'FILECB'
 000CA0 C6C9D3C540404040            8484                             =CL8'FILE'
 000CA8 C6C9D3C5C9D6E240            8485                             =CL8'FILEIOS'
 000CB0 C3C4E4D4D7D5D6E3            8486                             =CL8'CDUMPNOT'
 000CB8 C8C3C1C3C8C54040            8487                             =CL8'HCACHE'
 000CC0 C6C9D3C5C2E4C6C8            8488                             =CL8'FILEBUFH'
 000CC8 C6E2E8E2C2E4C6C8            8489                             =CL8'FSYSBUFH'
 000CD0 D9C5C1C4C2E4C6C8            8490                             =CL8'READBUFH'
 000CD8 C2E4C6F2D2404040            8491                             =CL8'BUF2K'
 000CE0 C6C9D3C5C2E4C6E2            8492                             =CL8'FILEBUFS'
 000CE8 C6E2E8E2C2E4C6E2            8493                             =CL8'FSYSBUFS'
 000CF0 D9C5C1C4C2E4C6E2            8494                             =CL8'READBUFS'
 000CF8 C2E4C6F4D2404040            8495                             =CL8'BUF4K'
 000D00 C6E2404040404040            8496                             =CL8'FS'
 000D08 D6E6D5C5D9404040            8497                             =CL8'OWNER'
 000D10 4040404040404040            8498                             =CL8' '
 000D18 D5C1D4C540404040            8499                             =CL8'NAME'
 000D20 C4C4D5C1D4C54040            8500                             =CL8'DDNAME'
 000D28 C4C5C6C2D3D6C3D2            8501                             =CL8'DEFBLOCK'
 000D30 C3C1E3C2E4C6C640            8502                             =CL8'CATBUFF'
 000D38 C2C9E3C3C1C3C8C5            8503                             =CL8'BITCACHE'
 000D40 D7D9D6C440404040            8504                             =CL8'PROD'
 000D48 C2C1E3C3C8D9D640            8505                             =CL8'BATCHRO'
 000D50 D5D6D5C9E7D94040            8506                             =CL8'NONIXR'
 000D58 C3C1C3C8C5404040            8507                             =CL8'CACHE'
 000D60 E3C5D4D7C6C9D3C5            8508                             =CL8'TEMPFILE'
 000D68 E3C5D4D7C6C9D3C5            8509                             =C'TEMPFILE'
 000D70 C1C3C3E340404040            8510                             =CL8'ACCT'
 000D78 00000000                    8511                             =V(VMGET)
 000D7C 000003A8                    8512                             =A(36*26)
 000D80 FF000000                    8513                             =X'FF000000'
 000D84 00000058                    8514                             =A(L'FILIOP)
 000D88 00000000                    8515                             =V(SBUFINIT)
 000D8C 00002710                    8516                             =A(10000)
 000D90 00000000                    8517                             =V(CHOPEN)
 000D94 00001000                    8518                             =A(4096)
 000D98 00000800                    8519                             =A(2048)
 000D9C 00000000                    8520                             =V(CAOPEN)
 000DA0 00000001                    8521                             =A(1)
 000DA4 00000000                    8522                             =V(VMFREE)
 000DA8 00000006                    8523                             =A(L'FSBOWNER)
 000DAC 00000008                    8524                             =A(L'FSBNAME)
1FILESERV (FILESE) (09:39) (22MAR04) File systems initialization                                                            Page   64
0Current Usings:  (PZERO,R0)
0Loc    Object Code    Addr1 Addr2  Stmt Lv Lineno    Source Statement           (Hibal 5, Asmedit 3.3)  HLASM R4.0  2004/03/22 09.39
+___    ______ ____    _____ _____  ____ __ ______    ______ _________
0000DB0 00000004                    8525                             =A(L'FSBDDN)
 000DB4 000009C4                    8526                             =A(2500)
 000DB8 00000004                    8527                             =A(4)
 000DBC 00000008                    8528                             =A(CFSBBUF)
 000DC0 00000006                    8529                             =A(6)
 000DC4 40404040                    8530                             =CL4' '
 000DC8 00000000                    8531                             =V(FMANINIT)
 000DCC 00000000                    8532                             =V(FCATINIT)
 000DD0 00000000                    8533                             =V(FBITINIT)
 000DD4 00000000                    8534                             =V(FMANTDIN)
 000DD8 00001604                    8535                             =A(STATFS)
 000DDC 00000000                    8536                             =V(M1GOSTAT)
 000DE0 3F00                        8537                             =Y(63*256+0)
 000DE2 3B00                        8538                             =Y(59*256+0)
 000DE4 C7C74BD6D9E5                8539                             =CL6'GG.ORV'
 000DEA 0040                        8540                             =Y(64)
 000DEC 4B4B                        8541                             =C'..'
 000DEE 0024                        8542                             =Y(36)
 000DF0 0800           00E04 01D00  8543                             =AL2(2048)
1FILESERV (FILESE) (09:39) (22MAR04) Initialize a single file system                                                        Page   65
0Current Usings:  (PZERO,R0)
0Loc    Object Code    Addr1 Addr2  Stmt Lv Lineno    Source Statement           (Hibal 5, Asmedit 3.3)  HLASM R4.0  2004/03/22 09.39
+___    ______ ____    _____ _____  ____ __ ______    ______ _________
0                                   8548     684.     *********************************************************************
                                    8549     685.     *  Open the datasets for an individual file system                  *
                                    8550     686.     *                                                                   *
                                    8551     687.     *   Input - @FSINIT                                                 *
                                    8552     688.     *             The FSB is allocated and cleared, but otherwise       *
                                    8553     689.     *           uninitialized.                                          *
                                    8554     690.     *             The parameter area is set up with the parameter type  *
                                    8555     691.     *           (string) and the proper keywords to retrieve the files  *
                                    8556     692.     *           for the file system in question.                        *
                                    8557     693.     *                                                                   *
                                    8558     694.     *  Output - FSB                                                     *
                                    8559     695.     *             If no files are found, then the total block count is  *
                                    8560     696.     *           zero, and the calling routine will take this as a       *
                                    8561     697.     *           signal to stop initializing FSBs                        *
                                    8562     698.     *                                                                   *
                                    8563     699.     *********************************************************************
0000000                00000 0000C  8565     701.     #FSINIT  RECORD BEGIN
 000000                             8573  1  702.     #FSIIOID   DS    A                       I/O id for I/O supervisor
 000004                             8574  1  703.     #FSIPRE    DS    A                       Previous DS descriptor
 000008                             8575  1  704.     #FSICBLK   DS    A                       Contiguous block count
 00000C                0000C 0000C  8576     705.              END   ,
0000000                00000 00008  8586     707.     @FSINIT  RECORD BEGIN
 000000                             8594  1  708.     @FSIFSB    DS    A                       Pointer to FSB
 000004                             8595  1  709.     @FSIPARM   DS    A                       Init parameter pointer
 000008                00008 00008  8596     710.              END   ,
0000000                00000 00090  8606     712.     FILEDAL  RECORD BEGIN
 000000                             8614  1  713.     DALFIO     DS    XL(L'#FIOOPEN)          Host master parameters
 000010                             8615  1  714.                DS    0D
 000010                             8616  1  715.     DALAINFO   DS    XL(L'@DSALLO)           Allocation info
 000070                             8617  1  716.                DS    0D
 000070                             8618  1  717.     DALOINFO   DS    XL(L'#PFINFO)           Open info
 000090                             8619  1  718.                DS    0D
                                    8620  1  719.     DALCLR     EQU   DALAINFO,*-DALAINFO,C'A'
 000090                00090 00090  8621     720.              END   ,
0000E04                             8631     722.     FSINIT   PROC  @FSINIT,#FSINIT
 000E04 C6E2C9D5C9E34040            8638             +
 000E0C 0008/0010                   8639             +
 000E10 900F D004/18AF       00004  8641             +
 USING  FSINIT,R10
 000E16 50D0 C000/18CD       00000  8656             +
 000E1C 9680 C000      00000        8658             +
 USING  @FSINIT-72,R12
 AUSING (#FSINIT,@FSINIT+8)
 000E20 41D0 C060            00060  8677             +
 000E24 5870 C048            00000  8678     723.              L     RY,@FSIFSB              FSB pointer
 USING  FSB,R7                      8679     724.              WITH  (FSB,RY)                |
 000E28 D203 7000 AE48 00000 01C58  8692     725.              MVC   FSBBID,=CL4'FSB'        Set block id
                                    8693     726.     *
                                    8694     727.     *  Get I/O id from I/O supervisor
                                    8695     728.     *
1FILESERV (FILESE) (09:39) (22MAR04) Initialize a single file system                                                        Page   66
0Current Usings:  (PZERO,R0) (FSB,R7) (FSINIT,R10) (@FSINIT-72,R12) (@IOSIDGET-72,R13)
0Loc    Object Code    Addr1 Addr2  Stmt Lv Lineno    Source Statement           (Hibal 5, Asmedit 3.3)  HLASM R4.0  2004/03/22 09.39
+___    ______ ____    _____ _____  ____ __ ______    ______ _________
0000E2E 9200 D048      00000        8696     729.              PSET  @IOSIDGET
 USING  @IOSIDGET-72,R13
 000E32 9680 D048      00000        8714     730.              SET   @IOSFWAIT
 000E36 58F0 AE4C/0DEF       01C5C  8720     731.              VCALL IOSIDGET
 000E3C 5000 C050            00000  8724     732.              ST    RVR,#FSIIOID
                                    8725     733.     *
                                    8726     734.     *  Get dataset allocation area (used by host)
                                    8727     735.     *
 DROP   @IOSIDGET-72,R13            8728     736.              VMGET L'FILEDAL,LOC=GLOBHI,FIX=YES     DS alloc work area
 USING  @VMGET-72,R13
 000E40 D70A D048 D048 00000 00000  8755             +
 000E46 4100 0090            00090  8767             +
 000E4A 5000 D048            00000  8772             +
 000E4E D201 D050 AED4 00008 01CE4  8773             +
 000E54 58F0 AE50/0DEF       01C60  8776             +
 000E5A 1260/4770 A080       00E90  8778     737.              IF    ('LTR RX,RVR',ZERO),'ABORT NOFILDAL'
 000E60 AC04 021B      0021B        8795  1          +
 000E64 9680 021A      0021A        8801  1          +
 000E68 50F0 021C            0021C  8802  1          +
 000E6C 58F0 0210            00210  8803  1          +
 000E70 89F0 0010            00010  8804  1          +
 000E74 88F0 0010            00010  8805  1          +
 000E78 41F0 F000            00000  8806  1          +
 000E7C AEFF 0006            00006  8807  1          +
 000E80 D5D6C6C9D3C4C1D3            8808             +
 USING  FILEDAL,R6                  8813     738.              WITH  (FILEDAL,RX)
 AUSING (#FIOOPEN,DALFIO)           8826     739.              WITH  (#FIOOPEN,DALFIO)
 AUSING (@DSALLO,DALAINFO)          8833     740.              WITH  (@DSALLO,DALAINFO)
 AUSING (#PFINFO,DALOINFO)          8840     741.              WITH  (#PFINFO,DALOINFO)
 000E90 D203 6000 AE54 00000 01C64  8847     742.              MVC   #FIOOCMD,=A(#FCOPEN)
 000E96 B150 6010            00000  8848     743.              LRA   RK,@DSALLO              Set alloc area addr
 000E9A 5050 6004            00004  8849     744.              ST    RK,#FIOALLO             |
 000E9E B150 6070            00000  8850     745.              LRA   RK,#PFINFO              Set open info area addr
 000EA2 5050 6008            00008  8851     746.              ST    RK,#FIOINFO             |
                                    8852     747.     *
                                    8853     748.     *  Initialize loop parameters for opening datasets
                                    8854     749.     *
 000EA6 4150 700C            0000C  8855     750.              LA    RK,FSBFRDB-(DSDNXT-FILEDSD)      First RDB pointer
 000EAA 5050 C054            00004  8856     751.              ST    RK,#FSIPRE              |
 000EAE                             8857     752.              CLEAR #FSICBLK                Cumulative block count
 000EAE D703 C058 C058 00008 00008  8863             +
                                    8864     753.     *
                                    8865     754.     *  Open all datasets for this file system
                                    8866     755.     *
 000EB4                             8867     756.     FSDSNOPN LOOP  BEGIN                   Open all datasets
 000EB4 5890 C04C            00004  8874  1  757.                L     RN,@FSIPARM
 USING  FIPARMS,R9                  8875  1  758.                WITH  (FIPARMS,RN),BEGIN      Addr to parameter area
 AUSING (PARMIN,FITYPE)             8889  2  759.                  WITH  (PARMIN,FITYPE)
 000EB8 9200 9000      00000        8896  2  760.                  GETPARM2 FISTR,KEY=(,,FILE),TYPE=STRING,REGS=(RA,RJ)
 000EBC D207 9014 AE20 00014 01C30  8903  2          +
 000EC2 4120 901C            0001C  8910  2          +
 000EC6 4130 0050            00050  8917  2          +
 000ECA 4140 9000            00000  8924  2          +
 000ECE 4150 001C            0001C  8931  2          +
1FILESERV (FILESE) (09:39) (22MAR04) Initialize a single file system                                                        Page   67
0Current Usings:  (PZERO,R0) (FILEDAL,R6) (FSB,R7) (FIPARMS,R9) (FSINIT,R10) (@FSINIT-72,R12) (@VMGET-72,R13)
0Loc    Object Code    Addr1 Addr2  Stmt Lv Lineno    Source Statement           (Hibal 5, Asmedit 3.3)  HLASM R4.0  2004/03/22 09.39
+___    ______ ____    _____ _____  ____ __ ______    ______ _________
0000ED2 83240016                    8934  2          +
 000ED6 4770 A342            01152  8935  2  761.                  IF    NZ,EXIT,FSDSNOPN        No more DSNs this file sys
                                    8949  2  762.
 000EDA                             8950  2  763.                  CLEAR DALCLR                  Clear alloc work area
 000EDA D77F 6010 6010 00010 00010  8956  2          +
 000EE0                             8957  2  764.                  VMGET L'FILEDSD,LOC=GLOBHI,FIX=YES
 000EE0 D70A D048 D048 00000 00000  8974  2          +
 000EE6 4100 004C            0004C  8986  2          +
 000EEA 5000 D048            00000  8991  2          +
 000EEE D201 D050 AED4 00008 01CE4  8992  2          +
 000EF4 58F0 AE50/0DEF       01C60  8995  2          +
 000EFA 1250/4770 A120       00F30  8997  2  765.                  IF    ('LTR RK,RVR',ZERO),'ABORT NOFILDSD'
 000F00 AC04 021B      0021B        9014  3          +
 000F04 9680 021A      0021A        9020  3          +
 000F08 50F0 021C            0021C  9021  3          +
 000F0C 58F0 0210            00210  9022  3          +
 000F10 89F0 0010            00010  9023  3          +
 000F14 88F0 0010            00010  9024  3          +
 000F18 41F0 F000            00000  9025  3          +
 000F1C AEFF 0006            00006  9026  3          +
 000F20 D5D6C6C9D3C4E2C4            9027  2          +
 USING  FILEDSD,R5                  9032  2  766.                  WITH  (FILEDSD,RK)
 000F30                             9045  2  767.                  CLEAR FILEDSD
 000F30 D74B 5000 5000 00000 00000  9051  2          +
                                    9052  2  768.
 000F36 9240 5020      00020        9053  2  769.                  MVI   DSDDSN,C' '             Blank dataset name
 000F3A D22A 5021 5020 00021 00020  9054  2  770.                  MVC   DSDDSN+1(L'DSDDSN-1),DSDDSN
 000F40 5930 AE58            01C68  9055  2  771.                  CEIL  RB,L'DSDDSN
 000F44 47D0 A13C            00F4C  9064  2          +
 000F48 5830 AE58            01C68  9069  2          +
 000F4C 0630/4430 AED6       01CE6  9074  2  772.                  DEX   RB,'MVC DSDDSN(0),@RA'
 001CE6 D200 5020 2000 00020 00000  9085  2          +
 DROP   @VMGET-72,R13               9093  2  773.                  PSET  @DSDEDIT
 USING  @DSDEDIT-72,R13
 000F52 D72F D048 D048 00000 00000  9113  2          +
 000F58                             9114  2  774.                  PMOV  @DSDEDSN,DSDDSN
 000F58 D22B D04C 5020 00004 00020  9118  2          +
 000F5E 58F0 AE5C/0DEF       01C6C  9119  2  775.                  ACALL DSDEDIT                 Edit all other FSBs thus far
 000F64 1200/4770 A164       00F74  9126  2  776.                  IF    (RVR,Z),BEGIN
 000F6A 5070 D048            00000  9140  3  777.                    PMOV  @DSDEFSB,LA:FSB         Edit this one also
 000F6E 58F0 AE5C/0DEF       01C6C  9151  3  778.                    ACALL DSDEDIT
 000F74                             9158  2  779.                  END   ,
 000F74 1200/4780 A19A       00FAA  9162  2  780.                  IF    (RVR,NZ),'ABORT DSN_MULTI_REF' Already opened to Orvyl
 000F7A AC04 021B      0021B        9180  3          +
 000F7E 9680 021A      0021A        9186  3          +
 000F82 50F0 021C            0021C  9187  3          +
 000F86 58F0 0210            00210  9188  3          +
 000F8A 89F0 0010            00010  9189  3          +
 000F8E 88F0 0010            00010  9190  3          +
 000F92 41F0 F000            00000  9191  3          +
 000F96 AEFF 0006            00006  9192  3          +
 000F9A C4E2D56DD4E4D3E3            9193  2          +
 000FAA 5840 C054            00004  9198  2  781.                  L     RJ,#FSIPRE              Point fwd to this DS block
 USING  PREV.FILEDSD,R4             9199  2  782.                  WITH  (FILEDSD,RJ),LABEL=PREV,BEGIN
1FILESERV (FILESE) (09:39) (22MAR04) Initialize a single file system                                                        Page   68
0Current Usings:  (PZERO,R0) (PREV.FILEDSD,R4) (FILEDSD,R5) (FILEDAL,R6) (FSB,R7) (FIPARMS,R9) (FSINIT,R10) (@FSINIT-72,R12) (@DSDEDIT-72,R13)
0Loc    Object Code    Addr1 Addr2  Stmt Lv Lineno    Source Statement           (Hibal 5, Asmedit 3.3)  HLASM R4.0  2004/03/22 09.39
+___    ______ ____    _____ _____  ____ __ ______    ______ _________
0000FAE 5050 4000            00000  9208  3  783.                    ST    RK,PREV.DSDNXT          |
 DROP   PREV.FILEDSD,R4             9209  2  784.                  END   ,                       OF Point fwd to this DS block
 000FB2 5050 C054            00004  9220  2  785.                  ST    RK,#FSIPRE              | and set ourselves as prev
 DROP   FILEDSD,R5                  9221  1  786.                END   ,                       OF Addr to parameter area
 DROP   FIPARMS,R9
                                    9234  1  787.
 USING  FILEDSD,R5                  9235  1  788.                WITH  (FILEDSD,RK)
 000FB6 D22B 6014 5020 00004 00020  9248  1  789.                MVC   @DSDSN,DSDDSN           Set Host alloc parms
 000FBC 9680 605C      0004C        9249  1  790.                SET   @DSSHR                  |
                                    9255  1  791.     *
                                    9256  1  792.     *  Get a channel ID
                                    9257  1  793.     *
 000FC0 4130 000C            0000C  9258  1  794.                LA    RB,#IOUFILE
 000FC4 83300007                    9259  1  795.                SYSCTL (RB),TYPE=ALLOC
 000FC8 1233/4770 A1EE       00FFE  9262  1  796.                IF    (RB,ZERO),'ABORT FILEDAL'        Dynamic alloc no good
 000FCE AC04 021B      0021B        9280  2          +
 000FD2 9680 021A      0021A        9286  2          +
 000FD6 50F0 021C            0021C  9287  2          +
 000FDA 58F0 0210            00210  9288  2          +
 000FDE 89F0 0010            00010  9289  2          +
 000FE2 88F0 0010            00010  9290  2          +
 000FE6 41F0 F000            00000  9291  2          +
 000FEA AEFF 0006            00006  9292  2          +
 000FEE C6C9D3C5C4C1D340            9293  1          +
 000FFE 5030 5004            00004  9298  1  797.                ST    RB,DSDCHID
                                    9299  1  798.     *
                                    9300  1  799.     *  Do the I/O to allocate the file
                                    9301  1  800.     *
 DROP   @DSDEDIT-72,R13             9302  1  801.                PSET  @IOSDOIO
 USING  @IOSDOIO-72,R13
 001002 D71D D048 D048 00000 00000  9322  1          +
 001008 5030 D048            00000  9323  1  802.                PMOV  @IOSCHID,(RB)           Channel ID
 00100C                             9333  1  803.                PMOV  @IOSID,#FSIIOID         I/O Supervisor ID
 00100C D203 D04C C050 00004 00000  9337  1          +
 001012                             9338  1  804.                PMOV  @IOSPID,PZCURPID        This process ID
 001012 D207 D050 0208 00008 00208  9342  1          +
 001018 4100 6000            00000  9343  1  805.                PMOV  @IOSCP,LA:#FIOOPEN      Channel program
 00101C 5000 D058            00010  9359  1          +
                                    9360  1  806.                REGCH (RA,R2)                 Hardware uses R2 for key
 001020 B20B 0000                   9361  1  807.                IPK   ,                       |
 001024 4220 D064            0001C  9362  1  808.                STC   RA,@IOSKEY              |
 001028 9680 D065      0001D        9363  1  809.                SET   @IOSFSYNC               Synchronous I/O
 00102C 58F0 AE60/0DEF       01C70  9369  1  810.                VCALL IOSDOIO
 001032 1200/4780 A26C       0107C  9373  1  811.                IF    (RVR,NZ),BEGIN      Bad I/O completion...
 001038 83000012                    9387  2  812.                  ORVSNAP DSDDSN            File name with problems
 00103C 101000005020                9391  2          +
 001042 83000012                    9392  2  813.                  ORVSNAP DSDDSN+16         Next part of dsname
 001046 101000005030                9396  2          +
 00104C AC04 021B      0021B        9397  2  814.                  ABORT FILEOPEN            Terminate
 001050 9680 021A      0021A        9406  2          +
 001054 50F0 021C            0021C  9407  2          +
 001058 58F0 0210            00210  9408  2          +
 00105C 89F0 0010            00010  9409  2          +
 001060 88F0 0010            00010  9410  2          +
1FILESERV (FILESE) (09:39) (22MAR04) Initialize a single file system                                                        Page   69
0Current Usings:  (PZERO,R0) (FILEDSD,R5) (FILEDAL,R6) (FSB,R7) (FSINIT,R10) (@FSINIT-72,R12) (@IOSDOIO-72,R13)
0Loc    Object Code    Addr1 Addr2  Stmt Lv Lineno    Source Statement           (Hibal 5, Asmedit 3.3)  HLASM R4.0  2004/03/22 09.39
+___    ______ ____    _____ _____  ____ __ ______    ______ _________
0001064 41F0 F000            00000  9411  2          +
 001068 AEFF 0006            00006  9412  2          +
 00106C C6C9D3C5D6D7C5D5            9413  2          +
 00107C                             9414  1  815.                END
                                    9418  1  816.     *
                                    9419  1  817.     *  Check and set up file parameters
                                    9420  1  818.     *
 00107C 5820 C058            00008  9421  1  819.                L     RA,#FSICBLK             Absolute blk offset
 001080 5020 5008            00008  9422  1  820.                ST    RA,DSDSTART             |
 001084 5830 6070            00000  9423  1  821.                L     RB,#PFIBKS              Number of blocks
 001088 5030 500C            0000C  9424  1  822.                ST    RB,DSDCNT               |
 00108C 1E23                        9425  1  823.                ALR   RA,RB                   Update cumulative cnt
 00108E 5020 C058            00008  9426  1  824.                ST    RA,#FSICBLK             |
 001092 5820 608C            0001C  9427  1  825.                L     RA,#PFIBLK              Block len
 001096 1F33/4330 6085       00015  9428  1  826.                LC    RB,#PFIKEY              Key len
 00109C 1233/4770 A298       010A8  9435  1  827.                IF    (RB,Z),BEGIN            Unkeyed blocks
 0010A2 4130 0014            00014  9449  2  828.                  LA    RB,L'FBHDR              Default header length
 0010A6 1B23                        9450  2  829.                  SR    RA,RB                   Block length includes header
 0010A8                             9451  1  830.                END   ,
 0010A8 5920 AE64            01C74  9455  1  831.                IF    ((RA,NE,2048),AND,(RA,NE,4096)),'ABORT FBLKSIZE'
 0010AC 4780 A2D8            010E8  9469  1          +
 0010B0 5920 AE68            01C78  9482  1          +
 0010B4 4780 A2D8            010E8  9483  1          +
 0010B8 AC04 021B      0021B        9492  2          +
 0010BC 9680 021A      0021A        9498  2          +
 0010C0 50F0 021C            0021C  9499  2          +
 0010C4 58F0 0210            00210  9500  2          +
 0010C8 89F0 0010            00010  9501  2          +
 0010CC 88F0 0010            00010  9502  2          +
 0010D0 41F0 F000            00000  9503  2          +
 0010D4 AEFF 0006            00006  9504  2          +
 0010D8 C6C2D3D2E2C9E9C5            9505  1          +
 0010E8 4020 501C            0001C  9510  1  832.                STH   RA,DSDLEN               |
 0010EC 4030 501E            0001E  9511  1  833.                STH   RB,DSDHDR               |
                                    9512  1  834.
 0010F0                             9513  1  835.                IF    (FSBDSZ,ZERO),'STH RA,FSBDSZ'
 0010F0 D601 70AC 70AC 000AC 000AC  9523  1          +
 0010F6 4770 A2EE            010FE  9524  1          +
 0010FA 4020 70AC            000AC  9530  1          +
                                    9535  1  836.   C            IF    (#PFODPO,OR,~#PFORF,OR,(RB,GT,L'FILHDR),OR,
 0010FE 9102 6083      00013              1  837.                      ('CH RA,FSBDSZ',NE)),BEGIN
 001102 4710 A30E            0111E  9549  1          +
 001106 9180 6084      00014        9558  1          +
 00110A 47E0 A30E            0111E  9561  1          +
 00110E 5930 AE6C            01C7C  9572  1          +
 001112 4720 A30E            0111E  9575  1          +
 001116 4920 70AC            000AC  9582  1          +
 00111A 4780 A33E            0114E  9583  1          +
 00111E AC04 021B      0021B        9588  2  838.                  ABORT FILETYPE
 001122 9680 021A      0021A        9597  2          +
 001126 50F0 021C            0021C  9598  2          +
 00112A 58F0 0210            00210  9599  2          +
 00112E 89F0 0010            00010  9600  2          +
 001132 88F0 0010            00010  9601  2          +
1FILESERV (FILESE) (09:39) (22MAR04) Initialize a single file system                                                        Page   70
0Current Usings:  (PZERO,R0) (FILEDSD,R5) (FILEDAL,R6) (FSB,R7) (FSINIT,R10) (@FSINIT-72,R12) (@IOSDOIO-72,R13)
0Loc    Object Code    Addr1 Addr2  Stmt Lv Lineno    Source Statement           (Hibal 5, Asmedit 3.3)  HLASM R4.0  2004/03/22 09.39
+___    ______ ____    _____ _____  ____ __ ______    ______ _________
0001136 41F0 F000            00000  9602  2          +
 00113A AEFF 0006            00006  9603  2          +
 00113E C6C9D3C5E3E8D7C5            9604  2          +
 00114E                             9605  1  839.                END   ,
                                    9609  1  840.     *
                                    9610  1  841.     *  Loop to next file name
                                    9611  1  842.     *
 00114E 47F0 A0A4            00EB4  9612     843.              END   ,                       OF Open all datasets
 DROP   FILEDSD,R5
 001152 5830 C058            00008  9622     844.              L     RB,#FSICBLK             Total number of blocks
 001156 5030 70E0            000E0  9623     845.              ST    RB,FSBTBLK              |
 00115A 5930 AE70            01C80  9624     846.              IF    (RB,LT,200),'SET FSBANAVL'       No file activity
 00115E 47B0 A356            01166  9636             +
 001162 9680 7009      00009        9647             +
 001166 D203 7010 C054 00010 00004  9652     847.              MVC   FSBLRDB,#FSIPRE
                                    9653     848.     *
                                    9654     849.     *  Free work area for allocs
                                    9655     850.     *
 DROP   @IOSDOIO-72,R13             9656     851.              VMFREE A=LA:FILEDAL,L'FILEDAL,LOC=GLOBHI,FIX=YES
 USING  @VMFREE-72,R13
 00116C D709 D048 D048 00000 00000  9683             +
 001172 4100 0090            00090  9695             +
 001176 5000 D04C            00004  9700             +
 00117A 5060 D048            00000  9711             +
 00117E D201 D050 AED4 00008 01CE4  9712             +
 001184 58F0 AE74/0DEF       01C84  9715             +
                                    9717     852.     *
                                    9718     853.     *  Free I/O id
                                    9719     854.     *
 DROP   @VMFREE-72,R13              9720     855.              PSET  @IOSID                  Free I/O id
 USING  @IOSID-72,R13
 00118A D703 D048 D048 00004 00004  9740             +
 001190                             9741     856.              PMOV  @IOSID,#FSIIOID         |
 001190 D203 D048 C050 00004 00000  9745             +
 001196 58F0 AE78/0DEF       01C88  9746     857.              VCALL IOSIDFRE                |
 00119C 981F C008            00008  9750     858.              PEND  ,
 DROP   FILEDAL,R6
 DROP   FSB,R7
 DROP   @FSINIT-72,R12
 DROP   FSINIT,R10
 0011A0 9680 C000/0B0E 00000        9775             +
 DROP   @IOSID-72,R13
1FILESERV (FILESE) (09:39) (22MAR04) Initialize a single file system                                                        Page   71
0Current Usings:  (PZERO,R0)
0Loc    Object Code    Addr1 Addr2  Stmt Lv Lineno    Source Statement           (Hibal 5, Asmedit 3.3)  HLASM R4.0  2004/03/22 09.39
+___    ______ ____    _____ _____  ____ __ ______    ______ _________
0                                   9785     860.     *********************************************************************
                                    9786     861.     *  Add or remove a volume from the file system                      *
                                    9787     862.     *                                                                   *
                                    9788     863.     *********************************************************************
 000000                00000 0000C  9789     864.     #FSADDV  RECORD BEGIN
 000000                             9797  1  865.     #FSAIOID   DS    F
 000004                             9798  1  866.     #FSAFDAL   DS    A
 000008                             9799  1  867.     #FSAFDSD   DS    A
 00000C                0000C 0000C  9800     868.              END   ,
00011A6                             9810     870.     FSADDVOL PROC  @FSADDV,#FSADDV,SCOPE=GLOBAL
 0011A6 C6E2C1C4C4E5D6D3            9816             +
 0011AE 0008/0010                   9817             +
 0011B2 900F D004/18AF       00004  9819             +
 USING  FSADDVOL,R10
 0011B8 50D0 C000/18CD       00000  9834             +
 0011BE 9680 C000      00000        9836             +
 USING  @FSADDV-72,R12
 AUSING (#FSADDV,@FSADDV+8)
 0011C2 41D0 C060            00060  9855             +
                                    9856     871.     *
                                    9857     872.     *  Determine file system id
                                    9858     873.     *
 0011C6                             9859     874.              CLEAR #FSADDV
 0011C6 D70B C050 C050 00000 00000  9865             +
 0011CC 5870 0200            00200  9866     875.              L     RY,MATPTR
 0011D0 5870 7028            00028  9867     876.              WITH  (MAT,RY),'L RY,MATFILCB'
 USING  MAT,R7
 DROP   MAT,R7
 USING  FILECB,R7                   9891     877.              WITH  (FILECB,RY),BEGIN
 0011D4 5870 7008            00008  9905  1  878.                L     RY,FILEFFSB         Point to first FSB
 0011D8 5800 700C            0000C  9906  1  879.                L     R0,FILEFSBC         Count of FSB's
 DROP   FILECB,R7                   9907     880.              END   ,
 0011DC 58E0 C048            00000  9915     881.              L     R14,@FSADDVF        File system name pointer
 USING  FSB,R7                      9916     882.              WITH  (FSB,RY)
 0011E0                             9929     883.              LOOP  BEGIN
 0011E0 D507 7018 E000 00018 00000  9935  1  884.                CLC   FSBNAME,@R14        Same name?
 0011E6 4780 A040            011F2  9936  1  885.                IF    EQ,EXIT             Found
 0011EA 5870 7004            00004  9950  1  886.                L     RY,FSBCHAIN         Next in chain
 0011EE 4600 A02E            011E0  9951     887.              UNTIL (BCT,R0),END
 0011F2 1200/4770 A04E       01200  9961     888.              IF    (R0,Z),BEGIN        Invalid file system name
 0011F8 4190 0004            00004  9975  1  889.                LA    RN,4
 0011FC 47F0 A332            014E4  9976  1  890.                B     FSADDVOX            Exit
 001200                             9977     891.              END   ,
                                    9981     892.     *
                                    9982     893.     *  Get dataset allocation area (used by host)
                                    9983     894.     *
 USING  @VMGET-72,R13               9984     895.              VMGET L'FILEDAL,LOC=GLOBHI,FIX=YES DS alloc work area
 001200 D70A D048 D048 00000 00000 10008             +
 001206 4100 0090            00090 10020             +
 00120A 5000 D048            00000 10025             +
 00120E D201 D050 AB32 00008 01CE4 10026             +
 001214 58F0 AAAE/0DEF       01C60 10029             +
 00121A 1260/4770 A09E       01250 10031     896.              IF    ('LTR RX,RVR',ZERO),'ABORT NOFILDAL2'
1FILESERV (FILESE) (09:39) (22MAR04) Initialize a single file system                                                        Page   72
0Current Usings:  (PZERO,R0) (FSB,R7) (FSADDVOL,R10) (@FSADDV-72,R12) (@VMGET-72,R13)
0Loc    Object Code    Addr1 Addr2  Stmt Lv Lineno    Source Statement           (Hibal 5, Asmedit 3.3)  HLASM R4.0  2004/03/22 09.39
+___    ______ ____    _____ _____  ____ __ ______    ______ _________
0001220 AC04 021B      0021B       10048  1          +
 001224 9680 021A      0021A       10054  1          +
 001228 50F0 021C            0021C 10055  1          +
 00122C 58F0 0210            00210 10056  1          +
 001230 89F0 0010            00010 10057  1          +
 001234 88F0 0010            00010 10058  1          +
 001238 41F0 F000            00000 10059  1          +
 00123C AEFF 0006            00006 10060  1          +
 001240 D5D6C6C9D3C4C1D3           10061             +
 001250 5060 C054            00004 10066     897.              ST    RX,#FSAFDAL
 USING  FILEDAL,R6                 10067     898.              WITH  (FILEDAL,RX)
 001254                            10080     899.              CLEAR DALCLR              Clear alloc work area
 001254 D77F 6010 6010 00010 00010 10086             +
                                   10087     900.     *
                                   10088     901.     *  Get I/O id from I/O supervisor
                                   10089     902.     *
 00125A 9200 D048      00000       10090     903.              PSET  @IOSIDGET
 DROP   @VMGET-72,R13
 USING  @IOSIDGET-72,R13
 00125E 9680 D048      00000       10111     904.              SET   @IOSFWAIT
 001262 58F0 AAAA/0DEF       01C5C 10117     905.              VCALL IOSIDGET
 001268 5000 C050            00000 10121     906.              ST    RVR,#FSAIOID
0USING  FILEDSD,R5                 10123     908.              WITH  (FILEDSD,RK)
 USING  PREV.FILEDSD,R4            10136     909.              WITH  (FILEDSD,RJ),LABEL=PREV
000126C                            10145     911.              IF    (@FSADDVD,NZ),BEGIN Add volume
 00126C D603 C04C C04C 00004 00004 10155             +
 001272 4780 A290            01442 10156             +
                                   10161  1  912.     *
                                   10162  1  913.     *  Get DSD for volume to add
                                   10163  1  914.     *
 DROP   @IOSIDGET-72,R13           10164  1  915.                VMGET L'FILEDSD,LOC=GLOBHI,FIX=YES
 USING  @VMGET-72,R13
 001276 D70A D048 D048 00000 00000 10191  1          +
 00127C 4100 004C            0004C 10203  1          +
 001280 5000 D048            00000 10208  1          +
 001284 D201 D050 AB32 00008 01CE4 10209  1          +
 00128A 58F0 AAAE/0DEF       01C60 10212  1          +
 001290 1250/4770 A114       012C6 10214  1  916.                IF    ('LTR RK,RVR',ZERO),'ABORT NOFILDSD2'
 001296 AC04 021B      0021B       10231  2          +
 00129A 9680 021A      0021A       10237  2          +
 00129E 50F0 021C            0021C 10238  2          +
 0012A2 58F0 0210            00210 10239  2          +
 0012A6 89F0 0010            00010 10240  2          +
 0012AA 88F0 0010            00010 10241  2          +
 0012AE 41F0 F000            00000 10242  2          +
 0012B2 AEFF 0006            00006 10243  2          +
 0012B6 D5D6C6C9D3C4E2C4           10244  1          +
 0012C6 5050 C058            00008 10249  1  917.                ST    RK,#FSAFDSD         Save pointer
 0012CA                            10250  1  918.                CLEAR FILEDSD
 0012CA D74B 5000 5000 00000 00000 10256  1          +
 0012D0 58E0 C04C            00004 10257  1  919.                L     R14,@FSADDVD        DSN pointer
 0012D4 D22B 5020 E000 00020 00000 10258  1  920.                MVC   DSDDSN,@R14         Set DSN
1FILESERV (FILESE) (09:39) (22MAR04) Initialize a single file system                                                        Page   73
0Current Usings:  (PZERO,R0) (PREV.FILEDSD,R4) (FILEDSD,R5) (FILEDAL,R6) (FSB,R7) (FSADDVOL,R10) (@FSADDV-72,R12) (@DSDEDIT-72,R13)
0Loc    Object Code    Addr1 Addr2  Stmt Lv Lineno    Source Statement           (Hibal 5, Asmedit 3.3)  HLASM R4.0  2004/03/22 09.39
+___    ______ ____    _____ _____  ____ __ ______    ______ _________
0DROP   @VMGET-72,R13              10259  1  921.                PSET  @DSDEDIT
 USING  @DSDEDIT-72,R13
 0012DA D72F D048 D048 00000 00000 10279  1          +
 0012E0                            10280  1  922.                PMOV  @DSDEDSN,DSDDSN
 0012E0 D22B D04C 5020 00004 00020 10284  1          +
 0012E6 58F0 AABA/0DEF       01C6C 10285  1  923.                ACALL DSDEDIT
 0012EC 1200/4780 A148       012FA 10292  1  924.                IF    (RVR,NZ),BEGIN
 0012F2 4190 001C            0001C 10306  2  925.                  LA    RN,28               Volume already referenced
 0012F6 47F0 A332            014E4 10307  2  926.                  B     FSADDVOX            Exit
 0012FA                            10308  1  927.                END   ,
0AUSING (#FIOOPEN,DALFIO)          10313  1  929.                WITH  (#FIOOPEN,DALFIO)
 AUSING (@DSALLO,DALAINFO)         10320  1  930.                WITH  (@DSALLO,DALAINFO)
 AUSING (#PFINFO,DALOINFO)         10327  1  931.                WITH  (#PFINFO,DALOINFO)
 0012FA D203 6000 AAB2 00000 01C64 10334  1  932.                MVC   #FIOOCMD,=A(#FCOPEN)
 001300 B110 6010            00000 10335  1  933.                LRA   RS,@DSALLO              Set alloc area addr
 001304 5010 6004            00004 10336  1  934.                ST    RS,#FIOALLO             |
 001308 B110 6070            00000 10337  1  935.                LRA   RS,#PFINFO              Set open info area addr
 00130C 5010 6008            00008 10338  1  936.                ST    RS,#FIOINFO             |
 001310 D22B 6014 5020 00004 00020 10339  1  937.                MVC   @DSDSN,DSDDSN           Set Host alloc parms
 001316 9680 605C      0004C       10340  1  938.                SET   @DSSHR                  |
                                   10346  1  939.     *
                                   10347  1  940.     *  Get a channel ID
                                   10348  1  941.     *
 00131A 4130 000C            0000C 10349  1  942.                LA    RB,#IOUFILE
 00131E 83300007                   10350  1  943.                SYSCTL (RB),TYPE=ALLOC
 001322 1233/4770 A17E       01330 10353  1  944.                IF    (RB,ZERO),BEGIN     Allocation error
 001328 4190 0008            00008 10367  2  945.                  LA    RN,8
 00132C 47F0 A332            014E4 10368  2  946.                  B     FSADDVOX            Exit
 001330                            10369  1  947.                END   ,
 001330 5030 5004            00004 10373  1  948.                ST    RB,DSDCHID
                                   10374  1  949.     *
                                   10375  1  950.     *  Do the I/O to allocate the file
                                   10376  1  951.     *
 DROP   @DSDEDIT-72,R13            10377  1  952.                PSET  @IOSDOIO
 USING  @IOSDOIO-72,R13
 001334 D71D D048 D048 00000 00000 10397  1          +
 00133A 5030 D048            00000 10398  1  953.                PMOV  @IOSCHID,(RB)           Channel ID
 00133E                            10408  1  954.                PMOV  @IOSID,#FSAIOID         I/O Supervisor ID
 00133E D203 D04C C050 00004 00000 10412  1          +
 001344                            10413  1  955.                PMOV  @IOSPID,PZCURPID        This process ID
 001344 D207 D050 0208 00008 00208 10417  1          +
 00134A 4100 6000            00000 10418  1  956.                PMOV  @IOSCP,LA:#FIOOPEN      Channel program
 00134E 5000 D058            00010 10434  1          +
                                   10435  1  957.                REGCH (RA,R2)                 Hardware uses R2 for key
 001352 B20B 0000                  10436  1  958.                IPK   ,                       |
 001356 4220 D064            0001C 10437  1  959.                STC   RA,@IOSKEY              |
 00135A 9680 D065      0001D       10438  1  960.                SET   @IOSFSYNC               Synchronous I/O
 00135E 58F0 AABE/0DEF       01C70 10444  1  961.                VCALL IOSDOIO
 001364 1200/4780 A1C0       01372 10448  1  962.                IF    (RVR,NZ),BEGIN      Bad I/O completion...
 00136A 4190 000C            0000C 10462  2  963.                  LA    RN,12               Open error
 00136E 47F0 A332            014E4 10463  2  964.                  B     FSADDVOX            Exit
 001372                            10464  1  965.                END   ,
                                   10468  1  966.     *
1FILESERV (FILESE) (09:39) (22MAR04) Initialize a single file system                                                        Page   74
0Current Usings:  (PZERO,R0) (PREV.FILEDSD,R4) (FILEDSD,R5) (FILEDAL,R6) (FSB,R7) (FSADDVOL,R10) (@FSADDV-72,R12) (@IOSDOIO-72,R13)
0Loc    Object Code    Addr1 Addr2  Stmt Lv Lineno    Source Statement           (Hibal 5, Asmedit 3.3)  HLASM R4.0  2004/03/22 09.39
+___    ______ ____    _____ _____  ____ __ ______    ______ _________
0                                  10469  1  967.     *  Check and set up file parameters
                                   10470  1  968.     *
 001372 5830 6070            00000 10471  1  969.                L     RB,#PFIBKS              Number of blocks
 001376 5030 500C            0000C 10472  1  970.                ST    RB,DSDCNT               |
 00137A 5820 608C            0001C 10473  1  971.                L     RA,#PFIBLK              Block len
 00137E 1F33/4330 6085       00015 10474  1  972.                LC    RB,#PFIKEY              Key len
 001384 1233/4770 A1DE       01390 10481  1  973.                IF    (RB,Z),BEGIN            Unkeyed blocks
 00138A 4130 0014            00014 10495  2  974.                  LA    RB,L'FBHDR              Default header length
 00138E 1B23                       10496  2  975.                  SR    RA,RB                   Block length includes header
 001390                            10497  1  976.                END   ,
 001390 4020 501C            0001C 10501  1  977.                STH   RA,DSDLEN               |
 001394 4030 501E            0001E 10502  1  978.                STH   RB,DSDHDR               |
                                   10503  1  979.
 001398 5840 7010            00010 10504  1  980.                L     RJ,FSBLRDB          Current last DSD
 00139C 58F0 4008            00008 10505  1  981.                L     R15,PREV.DSDSTART   Get start of last
 0013A0 5AF0 400C            0000C 10506  1  982.                A     R15,PREV.DSDCNT     Calc start of new
 0013A4 50F0 5008            00008 10507  1  983.                ST    R15,DSDSTART        Set start of new volume
 0013A8 1B99                       10508  1  984.                CLEAR RN                  Set to good return
 0013AA                            10512  1  985.                IF    (PREV.DSDLEN,NE,DSDLEN),'LA RN,16'
 0013AA D501 401C 501C 0001C 0001C 10524  1          +
 0013B0 4780 A206            013B8 10525  1          +
 0013B4 4190 0010            00010 10531  1          +
 0013B8 A20A           013B8 013B2 10536  1  986.                ELSEIF (PREV.DSDHDR,NE,DSDHDR),'LA RN,20'
 0013B8 47F0 A218            013CA 10542  1          +
 0013BC D501 401E 501E 0001E 0001E 10557  1          +
 0013C2 4780 A218            013CA 10558  1          +
 0013C6 4190 0014            00014 10564  1          +
 0013CA A21C           013CA 013C4 10569  1  987.                ELSE  BEGIN
 0013CA 47F0 A246            013F8 10574  1          +
 0013CE 5AF0 500C            0000C 10580  2  988.                  A     R15,DSDCNT          Calc total blocks
 0013D2 41F0 F007            00007 10581  2  989.                  LA    R15,@R15+7          Round up
 0013D6 88F0 0003            00003 10582  2  990.                  SRL   R15,3               Calc number of bitmap bytes
 0013DA 1BEE                       10583  2  991.                  CLEAR R14
 0013DC 4800 70AC            000AC 10587  2  992.                  LH    RVR,FSBDSZ          Block size
 0013E0 1DE0                       10588  2  993.                  DR    R14,RVR
 0013E2 12EE/4780 A23A       013EC 10589  2  994.                  IF    (R14,NZ),'INCR R15' Need a block for extras too
 0013E8 5EF0 AADA            01C8C 10606  2          +
 0013EC 59F0 70D8            000D8 10611  2  995.                  IF    (R15,GT,FSBBITBC),'LA RN,24' Not enough bitmaps
 0013F0 47D0 A246            013F8 10623  2          +
 0013F4 4190 0018            00018 10629  2          +
 0013F8                            10634  1  996.                END   ,
00013F8 1299/4770 A2FA       014AC 10639  1  998.                IF    (RN,NZ),FSADDVOC    Error, close dataset
00013FE                            10657  1 1000.                CLEAR #FSAFDSD            Don't release
 0013FE D703 C058 C058 00008 00008 10663  1          +
 001404 5050 7010            00010 10664  1 1001.                ST    RK,FSBLRDB          Set new last
 001408 5050 4000            00000 10665  1 1002.                ST    RK,PREV.DSDNXT      Set new next in old last
 00140C 5800 500C            0000C 10666  1 1003.                L     RVR,DSDCNT
 DROP   @IOSDOIO-72,R13            10667  1 1004.                PSET  @FMFSB
 USING  @FMFSB-72,R13
 001410 D704 D048 D048 00000 00000 10687  1          +
 001416 5070 D048            00000 10688  1 1005.                PMOV  @FMFSBP,LA:FSB
 00141A 58F0 AADE/0DEF       01C90 10699  1 1006.                VCALL FBITADDV            Bitmap processing needs to know
1FILESERV (FILESE) (09:39) (22MAR04) Initialize a single file system                                                        Page   75
0Current Usings:  (PZERO,R0) (PREV.FILEDSD,R4) (FILEDSD,R5) (FILEDAL,R6) (FSB,R7) (FSADDVOL,R10) (@FSADDV-72,R12) (@FMFSB-72,R13)
0Loc    Object Code    Addr1 Addr2  Stmt Lv Lineno    Source Statement           (Hibal 5, Asmedit 3.3)  HLASM R4.0  2004/03/22 09.39
+___    ______ ____    _____ _____  ____ __ ______    ______ _________
0001420 83000012/801C              10703  1 1007.                ORVSNAP 'Volume added to file system:'
 001426 4100 AAE2            01C94 10708  1          +
 00142A 83000012                   10709  1 1008.                ORVSNAP FSBNAME,L'FSBNAME
 00142E 100800007018               10713  1          +
 001434 83000012                   10714  1 1009.                ORVSNAP FILEDSD,L'FILEDSD
 001438 104C00005000               10718  1          +
 00143E 47F0 A332            014E4 10719  1 1010.                B     FSADDVOX            Exit
 001442                            10720    1011.              END   ,                   Add volume
0001442 A294           01442 01274 10725    1013.              ELSE  BEGIN               Remove volume
 001442 47F0 A2FA            014AC 10730             +
 001446 5840 700C            0000C 10736  1 1014.                L     RJ,FSBFRDB          Current first DSD
 00144A 5850 7010            00010 10737  1 1015.                L     RK,FSBLRDB          Current last DSD
 00144E 5950 4000            00000 10738  1 1016.                WHILE (RK,NE,PREV.DSDNXT),'L RJ,PREV.DSDNXT' Next to last
 001452 4780 A2AC            0145E 10752  1          +
 001456 5840 4000            00000 10758  1          +
 00145A 47F0 A29C            0144E 10762  1          +
 00145E 5800 500C            0000C 10764  1 1017.                L     RVR,DSDCNT
 001462                            10765  1 1018.                PSET  @FMFSB
 001462 D704 D048 D048 00000 00000 10775  1          +
 001468 5070 D048            00000 10776  1 1019.                PMOV  @FMFSBP,LA:FSB
 00146C 58F0 AAFE/0DEF       01CB0 10787  1 1020.                VCALL FBITREMV            Bitmap processing needs to know
 001472 1200/4780 A2CE       01480 10791  1 1021.                IF    (RVR,NZ),BEGIN
 001478 4190 0008            00008 10805  2 1022.                  LA    RN,8                Blocks being used in volume
 00147C 47F0 A332            014E4 10806  2 1023.                  B     FSADDVOX            Exit
 001480                            10807  1 1024.                END   ,
 001480                            10811  1 1025.                CLEAR PREV.DSDNXT         Remove last from list
 001480 D703 4000 4000 00000 00000 10817  1          +
 001486 5040 7010            00010 10818  1 1026.                ST    RJ,FSBLRDB          Set new last
 00148A 5050 C058            00008 10819  1 1027.                ST    RK,#FSAFDSD         Free DSD
 00148E 83000012/8020              10820  1 1028.                ORVSNAP 'Volume removed from file system:'
 001494 4100 AA86            01C38 10825  1          +
 001498 83000012                   10826  1 1029.                ORVSNAP FSBNAME,L'FSBNAME
 00149C 100800007018               10830  1          +
 0014A2 83000012                   10831  1 1030.                ORVSNAP FILEDSD,L'FILEDSD
 0014A6 104C00005000               10835  1          +
 0014AC                            10836    1031.              END   ,                   Remove volume
00014AC                            10841    1033.     FSADDVOC LABEL ,                   Close volume
0AUSING (#FICLOSE,DALFIO)          10844    1035.              WITH  (#FICLOSE,DALFIO)
 0014AC D203 6000 AB02 00000 01CB4 10851    1036.              MVC   #FIOOCMD,=A(#FCCLOSE)
 DROP   @FMFSB-72,R13              10852    1037.              PSET  @IOSDOIO
 USING  @IOSDOIO-72,R13
 0014B2 D71D D048 D048 00000 00000 10872             +
 0014B8                            10873    1038.              PMOV  @IOSCHID,DSDCHID        Channel ID
 0014B8 D203 D048 5004 00000 00004 10877             +
 0014BE                            10878    1039.              PMOV  @IOSID,#FSAIOID         I/O Supervisor ID
 0014BE D203 D04C C050 00004 00000 10882             +
 0014C4                            10883    1040.              PMOV  @IOSPID,PZCURPID        This process ID
 0014C4 D207 D050 0208 00008 00208 10887             +
 0014CA 4100 6000            00000 10888    1041.              PMOV  @IOSCP,LA:#FICLOSE      Channel program
 0014CE 5000 D058            00010 10904             +
                                   10905    1042.              REGCH (RA,R2)                 Hardware uses R2 for key
1FILESERV (FILESE) (09:39) (22MAR04) Initialize a single file system                                                        Page   76
0Current Usings:  (PZERO,R0) (PREV.FILEDSD,R4) (FILEDSD,R5) (FILEDAL,R6) (FSB,R7) (FSADDVOL,R10) (@FSADDV-72,R12) (@IOSDOIO-72,R13)
0Loc    Object Code    Addr1 Addr2  Stmt Lv Lineno    Source Statement           (Hibal 5, Asmedit 3.3)  HLASM R4.0  2004/03/22 09.39
+___    ______ ____    _____ _____  ____ __ ______    ______ _________
00014D2 B20B 0000                  10906    1043.              IPK   ,                       |
 0014D6 4220 D064            0001C 10907    1044.              STC   RA,@IOSKEY              |
 0014DA 9680 D065      0001D       10908    1045.              SET   @IOSFSYNC               Synchronous I/O
 0014DE 58F0 AABE/0DEF       01C70 10914    1046.              VCALL IOSDOIO
00014E4                            10919    1048.     FSADDVOX LABEL ,                   Exit
                                   10921    1049.     *
                                   10922    1050.     *  Free DSD
                                   10923    1051.     *
 0014E4                            10924    1052.              IF    (#FSAFDSD,NZ),BEGIN
 0014E4 D603 C058 C058 00008 00008 10934             +
 0014EA 4780 A35A            0150C 10935             +
 DROP   @IOSDOIO-72,R13            10940  1 1053.                VMFREE A=LA:FILEDSD,L'FILEDSD,LOC=GLOBHI,FIX=YES
 USING  @VMFREE-72,R13
 0014EE D709 D048 D048 00000 00000 10967  1          +
 0014F4 4100 004C            0004C 10979  1          +
 0014F8 5000 D04C            00004 10984  1          +
 0014FC 5050 D048            00000 10995  1          +
 001500 D201 D050 AB32 00008 01CE4 10996  1          +
 001506 58F0 AAD2/0DEF       01C84 10999  1          +
 00150C                            11001    1054.              END   ,
                                   11005    1055.     *
                                   11006    1056.     *  Free work area for allocs
                                   11007    1057.     *
 00150C                            11008    1058.              IF    (#FSAFDAL,NZ),BEGIN
 00150C D603 C054 C054 00004 00004 11018             +
 001512 4780 A382            01534 11019             +
 001516                            11024  1 1059.                VMFREE A=LA:FILEDAL,L'FILEDAL,LOC=GLOBHI,FIX=YES
 001516 D709 D048 D048 00000 00000 11041  1          +
 00151C 4100 0090            00090 11053  1          +
 001520 5000 D04C            00004 11058  1          +
 001524 5060 D048            00000 11069  1          +
 001528 D201 D050 AB32 00008 01CE4 11070  1          +
 00152E 58F0 AAD2/0DEF       01C84 11073  1          +
 001534                            11075    1060.              END   ,
                                   11079    1061.     *
                                   11080    1062.     *  Free I/O id
                                   11081    1063.     *
 001534                            11082    1064.              IF    (#FSAIOID,NZ),BEGIN
 001534 D603 C050 C050 00000 00000 11092             +
 00153A 4780 A39E            01550 11093             +
 DROP   @VMFREE-72,R13             11098  1 1065.                PSET  @IOSID                  Free I/O id
 USING  @IOSID-72,R13
 00153E D703 D048 D048 00004 00004 11118  1          +
 001544                            11119  1 1066.                PMOV  @IOSID,#FSAIOID         |
 001544 D203 D048 C050 00004 00000 11123  1          +
 00154A 58F0 AAD6/0DEF       01C88 11124  1 1067.                VCALL IOSIDFRE                |
 001550                            11128    1068.              END   ,
 001550 1809                       11132    1069.              LR    RVR,RN              Set return
0001552 981F C008            00008 11134    1071.              PEND  ,
 DROP   PREV.FILEDSD,R4
 DROP   FILEDSD,R5
 DROP   FILEDAL,R6
1FILESERV (FILESE) (09:39) (22MAR04) Initialize a single file system                                                        Page   77
0Current Usings:  (PZERO,R0) (@IOSID-72,R13)
0Loc    Object Code    Addr1 Addr2  Stmt Lv Lineno    Source Statement           (Hibal 5, Asmedit 3.3)  HLASM R4.0  2004/03/22 09.39
+___    ______ ____    _____ _____  ____ __ ______    ______ _________
0DROP   FSB,R7
 DROP   @FSADDV-72,R12
 DROP   FSADDVOL,R10
 001556 9680 C000/0B0E 00000       11172             +
 DROP   @IOSID-72,R13
1FILESERV (FILESE) (09:39) (22MAR04) Initialize a single file system                                                        Page   78
0Current Usings:  (PZERO,R0)
0Loc    Object Code    Addr1 Addr2  Stmt Lv Lineno    Source Statement           (Hibal 5, Asmedit 3.3)  HLASM R4.0  2004/03/22 09.39
+___    ______ ____    _____ _____  ____ __ ______    ______ _________
0                                  11182    1073.     *---------------------------------------------------------------------*
                                   11183    1074.     *
                                   11184    1075.     *  Edit to make sure that a file system volume is not specified more
                                   11185    1076.     *  than once to Orvyl.
                                   11186    1077.     *
                                   11187    1078.     *      RETURNS: RVR = 0  Volume not already opened
                                   11188    1079.     *                     4  Volume already opened
                                   11189    1080.     *
                                   11190    1081.     *---------------------------------------------------------------------*
 000000                00000 00030 11191    1082.     @DSDEDIT RECORD BEGIN
 000000                            11199  1 1083.     @DSDEFSB   DS    A
 000004                            11200  1 1084.     @DSDEDSN   DS    CL44
 000030                00030 00030 11201    1085.              END   ,
 00155C                            11210    1086.     DSDEDIT  PROC  @DSDEDIT
 00155C C4E2C4C5C4C9E340           11217             +
 001564 0030/0000                  11218             +
 001568 900F D004/18AF       00004 11220             +
 USING  DSDEDIT,R10
 00156E 50D0 C000/18CD       00000 11235             +
 001574 9680 C000      00000       11237             +
 USING  @DSDEDIT-72,R12
 001578 41D0 C078            00078 11251             +
 USING  FILEDSD,R4                 11252    1087.              WITH  (FILEDSD,RJ)
 USING  FSB,R3                     11265    1088.              WITH  (FSB,RB)
 00157C 1B00                       11278    1089.              CLEAR RVR                 ASSUME ALL OK
 00157E 5830 C048/1233       00000 11282    1090.              IF    ('LT RB,@DSDEFSB',Z),BEGIN  Not single FSB option
 001584 4770 A05E            015C6 11293             +
 001588 5810 0200            00200 11298  1 1091.                L     RS,MATPTR
 00158C 5810 1028            00028 11299  1 1092.                WITH  (MAT,RS),'L RS,MATFILCB'
 USING  MAT,R1
 DROP   MAT,R1
 001590 5830 1008            00008 11323  1 1093.                WITH  (FILECB,RS),'L RB,FILEFFSB'
 USING  FILECB,R1
 DROP   FILECB,R1
 001594 1233/4780 A05E       015C6 11347  1 1094.                WHILE (RB,NZ),BEGIN
 00159A 5840 300C            0000C 11363  2 1095.                  L     RJ,FSBFRDB          First DSD
 00159E 1244/4780 A056       015BE 11364  2 1096.                  WHILE (RJ,NZ),BEGIN
 0015A4                            11380  3 1097.                    IF    (DSDDSN,EQ,@DSDEDSN),BEGIN Already opened!
 0015A4 D52B 4020 C04C 00020 00004 11391  3          +
 0015AA 4770 A04E            015B6 11392  3          +
 0015AE 4100 0004            00004 11397  4 1098.                      LA    RVR,4
 0015B2 47F0 A086            015EE 11398  4 1099.                      EXIT  DSDEDIT             Return error
 0015B6                            11401  3 1100.                    END   ,
 0015B6 5840 4000            00000 11405  3 1101.                    L     RJ,DSDNXT           Next DSD pointer
 0015BA 47F0 A036            0159E 11406  2 1102.                  END   ,
 0015BE 5830 3004            00004 11411  2 1103.                  L     RB,FSBCHAIN         Next FSB
 0015C2 47F0 A02C            01594 11412  1 1104.                END   ,
 0015C6                            11417    1105.              END   ,                   Not single FSB option
 0015C6 A062           015C6 01586 11421    1106.              ELSE  BEGIN               Single FSB option
 0015C6 47F0 A086            015EE 11426             +
 0015CA 5840 300C            0000C 11432  1 1107.                L     RJ,FSBFRDB          First DSD
 0015CE 1244/4780 A086       015EE 11433  1 1108.                WHILE (RJ,NZ),BEGIN
 0015D4                            11449  2 1109.                  IF    (DSDDSN,EQ,@DSDEDSN),BEGIN Already opened!
 0015D4 D52B 4020 C04C 00020 00004 11460  2          +
1FILESERV (FILESE) (09:39) (22MAR04) Initialize a single file system                                                        Page   79
0Current Usings:  (PZERO,R0) (FSB,R3) (FILEDSD,R4) (DSDEDIT,R10) (@DSDEDIT-72,R12)
0Loc    Object Code    Addr1 Addr2  Stmt Lv Lineno    Source Statement           (Hibal 5, Asmedit 3.3)  HLASM R4.0  2004/03/22 09.39
+___    ______ ____    _____ _____  ____ __ ______    ______ _________
00015DA 4770 A07E            015E6 11461  2          +
 0015DE 4100 0004            00004 11466  3 1110.                    LA    RVR,4
 0015E2 47F0 A086            015EE 11467  3 1111.                    EXIT  DSDEDIT             Return error
 0015E6                            11470  2 1112.                  END   ,
 0015E6 5840 4000            00000 11474  2 1113.                  L     RJ,DSDNXT           Next DSD pointer
 0015EA 47F0 A066            015CE 11475  1 1114.                END   ,
 0015EE                            11480    1115.              END   ,                   Single FSB option
 0015EE 981F C008            00008 11484    1116.              PEND  ,
 DROP   FSB,R3
 DROP   FILEDSD,R4
 DROP   @DSDEDIT-72,R12
 DROP   DSDEDIT,R10
 0015F2 9680 C000/0B0E 00000       11509             +
1FILESERV (FILESE) (09:39) (22MAR04) Initialize a single file system                                                        Page   80
0Current Usings:  (PZERO,R0)
0Loc    Object Code    Addr1 Addr2  Stmt Lv Lineno    Source Statement           (Hibal 5, Asmedit 3.3)  HLASM R4.0  2004/03/22 09.39
+___    ______ ____    _____ _____  ____ __ ______    ______ _________
0                                  11516    1118.     *---------------------------------------------------------------------*
                                   11517    1119.     *
                                   11518    1120.     *  DETERMINE STATUS OF PRODUCTION FILE SYSTEM(S)
                                   11519    1121.     *
                                   11520    1122.     *      RETURNS: RVR = 0  ALL PRODUCTION FILE SYSTEMS AVAILABLE
                                   11521    1123.     *                     4  ONE OR MORE UNAVAILABLE OR READ-ONLY
                                   11522    1124.     *
                                   11523    1125.     *---------------------------------------------------------------------*
 0015F8                            11524    1126.     STATFS   PROC  SCOPE=GLOBAL
 0015F8 E2E3C1E3C6E24040           11530             +
 001600 0000/0000                  11531             +
 001604 900F D004/18AF       00004 11533             +
 USING  STATFS,R10
 00160A 50D0 C000/18CD       00000 11548             +
 001610 9680 C000      00000       11550             +
 001614 41D0 C048            00048 11551             +
 001618 5810 0200            00200 11552    1127.              L     RS,MATPTR
 00161C 5810 1028            00028 11553    1128.              WITH  (MAT,RS),'L RS,MATFILCB'
 USING  MAT,R1
 DROP   MAT,R1
 001620 5810 1008            00008 11577    1129.              WITH  (FILECB,RS),'L RS,FILEFFSB'
 USING  FILECB,R1
 DROP   FILECB,R1
 USING  FSB,R1                     11601    1130.              USING FSB,RS                  ##
 001624 1B00                       11610    1131.              CLEAR RVR                     ASSUME ALL OK
 001626 1211/4780 A058       0165C 11614    1132.              WHILE (RS,NZ),BEGIN
 00162C 9180 100A      0000A       11630  1 1133.                IF    FSBSPROD,BEGIN          PRODUCTION FILE SYSTEMS ONLY
 001630 47E0 A050            01654 11640  1          +
 001634 9180 1009      00009       11645  2 1134.                  IF    FSBANAVL,'LA  RVR,4'    CHECK STATUS
 001638 47E0 A03C            01640 11655  2          +
 00163C 4100 0004            00004 11661  2          +
 001640 9140 100A      0000A       11666  2 1135.                  IF    FSBSABRO,EXIT           READ ONLY OK
 001644 4710 A050            01654 11678  2          +
 001648 9140 1009      00009       11684  2 1136.                  IF    FSBARO,'LA  RVR,4'      CHECK STATUS
 00164C 47E0 A050            01654 11694  2          +
 001650 4100 0004            00004 11700  2          +
 001654                            11705  1 1137.                END   ,
 001654 5810 1004            00004 11709  1 1138.                L     RS,FSBCHAIN
 001658 47F0 A022            01626 11710    1139.              END   ,
 00165C 981F C008            00008 11715    1140.              PEND  ,
 DROP   STATFS,R10
 001660 9680 C000/0B0E 00000       11725             +
1FILESERV (FILESE) (09:39) (22MAR04) Initialize a single file system                                                        Page   81
0Current Usings:  (PZERO,R0) (FSB,R1)
0Loc    Object Code    Addr1 Addr2  Stmt Lv Lineno    Source Statement           (Hibal 5, Asmedit 3.3)  HLASM R4.0  2004/03/22 09.39
+___    ______ ____    _____ _____  ____ __ ______    ______ _________
0                                  11732    1142.     *---------------------------------------------------------------------*
                                   11733    1143.     *  FDOIODO - File IO routine
                                   11734    1144.     *
                                   11735    1145.     *   Inputs - @FDOIODO
                                   11736    1146.     *
                                   11737    1147.     *   Output - None (all errors are fatal)
                                   11738    1148.     *
                                   11739    1149.     *---------------------------------------------------------------------*
 000000                00000 00010 11740    1150.     #FDOIODO RECORD BEGIN
 000000                            11748  1 1151.     #STCK      DS    D
 000008                            11749  1 1152.     #RETCODE   DS    F
 00000C                            11750  1 1153.     #IOSID     DS    F
 000010                00010 00010 11751    1154.              END   ,
0001666                            11761    1156.     FDOIODO  PROC  @FDOIODO,#FDOIODO,SCOPE=GLOBAL
 001666 C6C4D6C9D6C4D640           11767             +
 00166E 0010/0010                  11768             +
 001672 900F D004/18AF       00004 11770             +
 USING  FDOIODO,R10
 001678 50D0 C000/18CD       00000 11785             +
 00167E 9680 C000      00000       11787             +
 USING  @FDOIODO-72,R12
 AUSING (#FDOIODO,@FDOIODO+16)
 001682 41D0 C068            00068 11806             +
 USING  FILIOP,R2                  11807    1157.              WITH  (FILIOP,RA)
 AUSING (#FIODO,FILPARM)           11820    1158.              WITH  (#FIODO,FILPARM)
 AUSING (FBHDR,FILHDR)             11827    1159.              WITH  (FBHDR,FILHDR)
 USING  FSB,R3                     11834    1160.              WITH  (FSB,RB)
 USING  FILEDSD,R5                 11847    1161.              WITH  (FILEDSD,RK)
0001686 58F0 0208            00208 11861    1163.              L     R15,PZCURASB
 00168A 9803 C048            00000 11862    1164.              LM    R0,R3,@FDOIODO     Get input parms
                                   11863    1165.     * R14 = return to caller address
                                   11864    1166.     * R15 = ASB pointer
                                   11865    1167.     * R0  = FSB pointer
                                   11866    1168.     * R1  = block number
                                   11867    1169.     * R2  = IO data buffer
                                   11868    1170.     * R3  = data length (2), block type (1), flags (1)
 00168E 99E3 A67A            01CEC 11869    1171.              XTRC  R14,R3,FDOIODO     Save some clues
 001CEC 00001CEC                   11877  1          +
 001CF0 00000258/0E03              11878  1          +
 001CF6 C6C4D6C9D6C4D640           11880             +
0001692 5830 C048            00000 11888    1173.              L     RB,@FDOFSB          Point to FSB
0001696                            11890    1175.              CLEAR #RETCODE
 001696 D703 C060 C060 00008 00008 11896             +
000169C 9140 C057      0000F       11898    1177.              IF    (~@FDOFW,AND,~@FDOFR),'ABORT BADIOENTRY'
 0016A0 4710 A06A            016DC 11910             +
 0016A4 9180 C057      0000F       11921             +
 0016A8 4710 A06A            016DC 11922             +
 0016AC AC04 021B      0021B       11931  1          +
 0016B0 9680 021A      0021A       11937  1          +
1FILESERV (FILESE) (09:39) (22MAR04) Initialize a single file system                                                        Page   82
0Current Usings:  (PZERO,R0) (FSB,R1) (FILIOP,R2) (FSB,R3) (FILEDSD,R5) (FDOIODO,R10) (@FDOIODO-72,R12)
0Loc    Object Code    Addr1 Addr2  Stmt Lv Lineno    Source Statement           (Hibal 5, Asmedit 3.3)  HLASM R4.0  2004/03/22 09.39
+___    ______ ____    _____ _____  ____ __ ______    ______ _________
00016B4 50F0 021C            0021C 11938  1          +
 0016B8 58F0 0210            00210 11939  1          +
 0016BC 89F0 0010            00010 11940  1          +
 0016C0 88F0 0010            00010 11941  1          +
 0016C4 41F0 F000            00000 11942  1          +
 0016C8 AEFF 0006            00006 11943  1          +
 0016CC C2C1C4C9D6C5D5E3           11944             +
00016DC                            11950    1179.              IF    (@FDODATA,Z),BEGIN  Read buffer not supplied
 0016DC D603 C050 C050 00008 00008 11960             +
 0016E2 4770 A0CA            0173C 11961             +
 0016E6 9140 C057      0000F       11966  1 1180.                IF    @FDOFW,'ABORT NO_WRITE_BUFF'
 0016EA 47E0 A0AC            0171E 11976  1          +
 0016EE AC04 021B      0021B       11985  2          +
 0016F2 9680 021A      0021A       11991  2          +
 0016F6 50F0 021C            0021C 11992  2          +
 0016FA 58F0 0210            00210 11993  2          +
 0016FE 89F0 0010            00010 11994  2          +
 001702 88F0 0010            00010 11995  2          +
 001706 41F0 F000            00000 11996  2          +
 00170A AEFF 0006            00006 11997  2          +
 00170E D5D66DE6D9C9E3C5           11998  1          +
 USING  @SBGET-72,R13              12003  1 1181.                PSET  @SBGET
 00171E D70B D048 D048 00000 00000 12020  1          +
 001724                            12021  1 1182.                PMOV  @SBGPOO,FSBRBT      Get a read buffer
 001724 D203 D048 302C 00000 0002C 12025  1          +
 00172A 58F0 A646/0DEF       01CB8 12026  1 1183.                VCALL SBUFGET    Note: caller must release buffer when done!
 001730 D203 C050 D04C 00008 00004 12030  1 1184.                MVC   @FDODATA,@SBGADR
 001736 D201 C054 30AC 0000C 000AC 12031  1 1185.                MVC   @FDODATL,FSBDSZ
 00173C                            12032    1186.              END   ,                   Read buffer not supplied
000173C                            12037    1188.              PSET  @SBGET
 00173C D70B D048 D048 00000 00000 12047             +
 001742                            12048    1189.              PMOV  @SBGPOO,FSBIOP      Get a IO parm block
 001742 D203 D048 3040 00000 00040 12052             +
 001748 58F0 A646/0DEF       01CB8 12053    1190.              VCALL SBUFGET
 00174E 5820 D04C            00004 12057    1191.              L     RA,@SBGADR          Point to IO parm block
0001752 1FFF/43F0 3008       00008 12059    1193.              LC    R15,FSBID
 001758 50F0 2004            00004 12066    1194.              ST    R15,#FIOFSID        File system id
 00175C D203 2008 C04C 00008 00004 12067    1195.              MVC   #FIOBLKID,@FDOBLK   Block number this file sys
 001762 41F0 2028            00000 12068    1196.              LA    R15,FBHDR
 001766 50F0 200C            0000C 12069    1197.              ST    R15,#FIOHDRP        Header address
000176A 5850 300C            0000C 12071    1199.              L     RK,FSBFRDB          List of RDB's
 00176E 58F0 2008            00008 12072    1200.              L     R15,#FIOBLKID       Get block id this file sys
 001772                            12073    1201.              LOOP  BEGIN               Loop forever
 001772 59F0 500C            0000C 12079  1 1202.                IF    (R15,LT,DSDCNT),EXIT On this device
 001776 4740 A14A            017BC 12093  1          +
 00177A 5FF0 500C            0000C 12099  1 1203.                SL    R15,DSDCNT          Decrement logical block number
 00177E 5850 5000/1255       00000 12100  1 1204.                IF    ('LT RK,DSDNXT',Z),'ABORT BAD_BLOCK_NUMBER'
 001784 4770 A146            017B8 12111  1          +
 001788 AC04 021B      0021B       12120  2          +
 00178C 9680 021A      0021A       12126  2          +
1FILESERV (FILESE) (09:39) (22MAR04) Initialize a single file system                                                        Page   83
0Current Usings:  (PZERO,R0) (FSB,R1) (FILIOP,R2) (FSB,R3) (FILEDSD,R5) (FDOIODO,R10) (@FDOIODO-72,R12) (@SBGET-72,R13)
0Loc    Object Code    Addr1 Addr2  Stmt Lv Lineno    Source Statement           (Hibal 5, Asmedit 3.3)  HLASM R4.0  2004/03/22 09.39
+___    ______ ____    _____ _____  ____ __ ______    ______ _________
0001790 50F0 021C            0021C 12127  2          +
 001794 58F0 0210            00210 12128  2          +
 001798 89F0 0010            00010 12129  2          +
 00179C 88F0 0010            00010 12130  2          +
 0017A0 41F0 F000            00000 12131  2          +
 0017A4 AEFF 0006            00006 12132  2          +
 0017A8 C2C1C46DC2D3D6C3           12133  1          +
 0017B8 47F0 A100            01772 12138    1205.              END   ,                   End loop
 0017BC 50F0 201C            0001C 12143    1206.              ST    R15,#FIORBLK        Block number on this DS
 0017C0 48F0 501E            0001E 12144    1207.              LH    R15,DSDHDR          Length of header
 0017C4 50F0 2010            00010 12145    1208.              ST    R15,#FIOHDRL        Set header len
00017C8 9140 C057      0000F       12147    1210.              IF    @FDOFW,BEGIN        Write
 0017CC 47E0 A192            01804 12157             +
 0017D0 4D10 A4BC            01B2E 12162  1 1211.                BAS   RS,FDOIOBLK         Edit block types
 0017D4 D203 2000 A64A 00000 01CBC 12163  1 1212.                MVC   #FIODCMD,=A(#FCWRITE)
 0017DA D203 2014 C050 00014 00008 12164  1 1213.                MVC   #FIODATAP,@FDODATA  Get data address
 0017E0 48F0 C054            0000C 12165  1 1214.                LH    R15,@FDODATL
 0017E4 50F0 2018            00018 12166  1 1215.                ST    R15,#FIODATAL       Set data length
 0017E8 D202 2028 C04D 00000 00005 12167  1 1216.                MVC   FBHBLOCK,@FDOBLK+1  Set block number
 0017EE D200 202B C056 00003 0000E 12168  1 1217.                MVC   FBHTYPE,@FDOTYPE    Set block type
 0017F4 D201 202E C054 00006 0000C 12169  1 1218.                MVC   FBHLEN,@FDODATL     Set length of data
 0017FA B205 C058      00000       12170  1 1219.                STCK  #STCK
 0017FE D203 2030 C058 00008 00000 12171  1 1220.                MVC   FBHTIME,#STCK       Set write time
 001804                            12172    1221.              END   ,                   Write
0001804 A196           01804 017CE 12177    1223.              ELSE  BEGIN               Read
 001804 47F0 A258            018CA 12182             +
0001808 D203 2000 A64E 00000 01CC0 12189  1 1225.                MVC   #FIODCMD,=A(#FCREAD)
 00180E D203 2014 C050 00014 00008 12190  1 1226.                MVC   #FIODATAP,@FDODATA  Set data address
 001814 48F0 C054            0000C 12191  1 1227.                LH    R15,@FDODATL
 001818 50F0 2018            00018 12192  1 1228.                ST    R15,#FIODATAL       Set data length
000181C 9140 300B      0000B       12194  1 1230.                IF    (FSBFCACHE,AND,~@FDODISK),BEGIN Caching enabled
 001820 47E0 A258            018CA 12206  1          +
 001824 9104 C057      0000F       12217  1          +
 001828 4710 A258            018CA 12218  1          +
 00182C 9120 C057      0000F       12223  2 1231.                  IF    @FDOFUSE,'L RS,FSBCACHE' User cache
 001830 47E0 A1C6            01838 12233  2          +
 001834 5810 3030            00030 12239  2          +
 001838 A1CA           01838 01832 12244  2 1232.                  ELSEIF (@FDOS106,OR,@FDOS115),'CLEAR RS' No cache
 001838 47F0 A1DC            0184E 12250  2          +
 00183C 9110 C057      0000F       12264  2          +
 001840 4710 A1DA            0184C 12267  2          +
 001844 9108 C057      0000F       12276  2          +
 001848 47E0 A1DC/1B11       0184E 12277  2          +
 00184E A1E0           0184E 0184A 12291  2 1233.                  ELSE  'L RS,FSBCACHS'     System cache
 00184E 47F0 A1E4            01856 12296  2          +
 001852 5810 3034            00034 12303  2          +
 001856 1211/4780 A258       018CA 12308  2 1234.                  IF    (RS,NZ),BEGIN       Cache defined for this
 DROP   @SBGET-72,R13              12322  3 1235.                    PSET  @CAIO
 USING  @CAIO-72,R13
 00185C D71F D048 D048 00000 00000 12342  3          +
1FILESERV (FILESE) (09:39) (22MAR04) Initialize a single file system                                                        Page   84
0Current Usings:  (PZERO,R0) (FSB,R1) (FILIOP,R2) (FSB,R3) (FILEDSD,R5) (FDOIODO,R10) (@FDOIODO-72,R12) (@CAIO-72,R13)
0Loc    Object Code    Addr1 Addr2  Stmt Lv Lineno    Source Statement           (Hibal 5, Asmedit 3.3)  HLASM R4.0  2004/03/22 09.39
+___    ______ ____    _____ _____  ____ __ ______    ______ _________
0001862 5010 D048            00000 12343  3 1236.                    PMOV  @CAIOCIT,(RS)       CIT ptr
 001866 58E0 2004            00004 12353  3 1237.                    L     R14,#FIOFSID        File system ID
 00186A 58F0 2008            00008 12354  3 1238.                    L     R15,#FIOBLKID       Block number in file system
 00186E 90EF D060            00018 12355  3 1239.                    STM   R14,R15,@CAIOKEY    Save as cache entry key
 001872                            12356  3 1240.                    PMOV  @CAIOHP,L:#FIOHDRP  Header data ptr
 001872 D203 D04C 200C 00004 0000C 12360  3          +
 001878                            12361  3 1241.                    PMOV  @CAIOHL,L:#FIOHDRL  Header length
 001878 D203 D050 2010 00008 00010 12365  3          +
 00187E                            12366  3 1242.                    PMOV  @CAIODP,L:#FIODATAP Data ptr
 00187E D203 D054 2014 0000C 00014 12370  3          +
 001884                            12371  3 1243.                    PMOV  @CAIODL,L:#FIODATAL Data length
 001884 D203 D058 2018 00010 00018 12375  3          +
 00188A 9120 300B      0000B       12376  3 1244.                    IF    FSBHCACHE,'VCALL CHREAD' Hiperspace cache
 00188E 47E0 A226            01898 12386  3          +
 001892 58F0 A652/0DEF       01CC4 12394  3          +
 001898 A22A           01898 01890 12400  3 1245.                    ELSE  'VCALL CAREAD'      Look for block in cache
 001898 47F0 A230            018A2 12405  3          +
 00189C 58F0 A656/0DEF       01CC8 12414  3          +
 0018A2 1200/4770 A258       018CA 12420  3 1246.                    IF    (RVR,Z),BEGIN       Got it...
 0018A8 D203 C050 2014 00008 00014 12434  4 1247.                      MVC   @FDODATA,#FIODATAP
 0018AE D201 C054 202E 0000C 00006 12435  4 1248.                      MVC   @FDODATL,FBHLEN
 0018B4 D200 C056 202B 0000E 00003 12436  4 1249.                      MVC   @FDOTYPE,FBHTYPE
 0018BA 4180 0060            00060 12437  4 1250.                      LA    RM,TTFCACH          Increment cache read counts
 0018BE 4D90 A520            01B92 12438  4 1251.                      BAS   RN,FDOIOCTB
 0018C2 4D10 A4BC            01B2E 12439  4 1252.                      BAS   RS,FDOIOBLK         Edit block types
 0018C6 47F0 A49E            01B10 12440  4 1253.                      B     FDOIODOX            Done
 0018CA                            12441  3 1254.                    END   ,                   Got it...
 0018CA                            12445  2 1255.                  END   ,                   Cache defined for this
 0018CA                            12449  1 1256.                END   ,                   Caching enabled
 0018CA                            12453    1257.              END   ,                   Read
00018CA 58F0 200C            0000C 12458    1259.              L     R15,#FIOHDRP        Set real address of header
 0018CE B1F0 F000            00000 12459    1260.              LRA   R15,@R15
 0018D2 50F0 2024            00024 12460    1261.              ST    R15,#FIOHDRR
00018D6 5800 2018/1200       00018 12462    1263.              IF    ('LT R0,#FIODATAL',Z),'CLEAR #FIODATAP' No addr/len list
 0018DC 4770 A274            018E6 12473             +
 0018E0 D703 2014 2014 00014 00014 12485             +
 0018E6 A278           018E6 018DE 12490    1264.              ELSE  BEGIN
 0018E6 47F0 A2C2            01934 12495             +
00018EA B1F0 2048            00048 12502  1 1266.                LRA   R15,FILIST          Set real address of addr/len list
 0018EE 50F0 2020            00020 12503  1 1267.                ST    R15,#FIOIDALR
00018F2 58F0 2014            00014 12505  1 1269.                L     R15,#FIODATAP       Get first data address
 0018F6 B110 F000            00000 12506  1 1270.                LRA   R1,@R15
 0018FA 5010 2048            00048 12507  1 1271.                ST    R1,FILISTA1         Set real addr first data address
 0018FE 5AF0 A606            01C78 12508  1 1272.                A     R15,=A(4096)        Calc end of page address
 001902 54F0 A65A            01CCC 12509  1 1273.                N     R15,=X'7FFFF000'
 001906 18EF                       12510  1 1274.                LR    R14,R15             Get end of page address
 001908 5BE0 2014            00014 12511  1 1275.                S     R14,#FIODATAP       Calc len to end of page
 00190C 19E0/4750 A2A8       0191A 12512  1 1276.                IF    (R14,GE,R0),BEGIN   Data does not reach end of page
 001912 5000 204C            0004C 12527  2 1277.                  ST    R0,FILISTL1         Use full data len
 001916 9680 2048      00048       12528  2 1278.                  OI    FILISTA1,X'80'      Indicate last address
1FILESERV (FILESE) (09:39) (22MAR04) Initialize a single file system                                                        Page   85
0Current Usings:  (PZERO,R0) (FSB,R1) (FILIOP,R2) (FSB,R3) (FILEDSD,R5) (FDOIODO,R10) (@FDOIODO-72,R12) (@CAIO-72,R13)
0Loc    Object Code    Addr1 Addr2  Stmt Lv Lineno    Source Statement           (Hibal 5, Asmedit 3.3)  HLASM R4.0  2004/03/22 09.39
+___    ______ ____    _____ _____  ____ __ ______    ______ _________
000191A                            12529  1 1279.                END
 00191A A2AC           0191A 01910 12533  1 1280.                ELSE  BEGIN               Data spans page boundry
 00191A 47F0 A2C2            01934 12538  1          +
 00191E 50E0 204C            0004C 12544  2 1281.                  ST    R14,FILISTL1        Len in first page
 001922 B110 F000            00000 12545  2 1282.                  LRA   R1,@R15
 001926 5010 2050            00050 12546  2 1283.                  ST    R1,FILISTA2         Set real address of page boundry
 00192A 1B0E                       12547  2 1284.                  SR    R0,R14              Calc len in second page
 00192C 5000 2054            00054 12548  2 1285.                  ST    R0,FILISTL2         Set second data length
 001930 9680 2050      00050       12549  2 1286.                  OI    FILISTA2,X'80'      Indicate last address
 001934                            12550  1 1287.                END   ,
 001934                            12554    1288.              END   ,
0001934 9200 D048      00000       12559    1290.              PSET  @IOSIDGET
 DROP   @CAIO-72,R13
 USING  @IOSIDGET-72,R13
 001938 9680 D048      00000       12580    1291.              SET   @IOSFWAIT
 00193C 58F0 A5EA/0DEF       01C5C 12586    1292.              VCALL IOSIDGET
 001942 5000 C064            0000C 12590    1293.              ST    RVR,#IOSID          Save the number
0DROP   @IOSIDGET-72,R13           12592    1295.              PSET  @IOSDOIO
 USING  @IOSDOIO-72,R13
 001946 D71D D048 D048 00000 00000 12612             +
 00194C                            12613    1296.              PMOV  @IOSCHID,DSDCHID    Channel ID
 00194C D203 D048 5004 00000 00004 12617             +
 001952                            12618    1297.              PMOV  @IOSID,#IOSID       I/O supervisor ID
 001952 D203 D04C C064 00004 0000C 12622             +
 001958 4100 2000            00000 12623    1298.              PMOV  @IOSCP,LA:#FIODO    Channel program VA
 00195C 5000 D058            00010 12639             +
 001960 9180 C057      0000F       12640    1299.              IF    @FDOFR,BEGIN
 001964 47E0 A306            01978 12650             +
 001968 5870 2020            00020 12655  1 1300.                L     RY,#FIOIDALR        Determine read storage key
 00196C B229 0067                  12656  1 1301.                ISKE  RX,RY
 001970 4260 D064            0001C 12657  1 1302.                STC   RX,@IOSKEY
 001974 94F0 D064      0001C       12658  1 1303.                NI    @IOSKEY,X'F0'
 001978                            12659    1304.              END   ,
 001978 9680 D065      0001D       12663    1305.              SET   @IOSFSYNC           Wait for I/O to complete
 00197C 58F0 A5FE/0DEF       01C70 12669    1306.              VCALL IOSDOIO
0001982 5000 C060            00008 12674    1308.              ST    RVR,#RETCODE
 001986 1200/4780 A352       019C4 12675    1309.              IF    (RVR,NZ),BEGIN
 00198C 9120 C057      0000F       12689  1 1310.                IF    @FDOFUSE,FDOIODOE   Exit on user IO error
 001990 4710 A48C            01AFE 12701  1          +
 001994 AC04 021B      0021B       12707  1 1311.                ABORT FDOIO_BADSYSIO      IXR, bitmap or catalog block
 001998 9680 021A      0021A       12716  1          +
 00199C 50F0 021C            0021C 12717  1          +
 0019A0 58F0 0210            00210 12718  1          +
 0019A4 89F0 0010            00010 12719  1          +
 0019A8 88F0 0010            00010 12720  1          +
 0019AC 41F0 F000            00000 12721  1          +
 0019B0 AEFF 0006            00006 12722  1          +
 0019B4 C6C4D6C9D66DC2C1           12723  1          +
 0019C4                            12724    1312.              END   ,
00019C4 9108 C057      0000F       12729    1314.              IF    @FDOS115,BEGIN      They want the header, not the data!
1FILESERV (FILESE) (09:39) (22MAR04) Initialize a single file system                                                        Page   86
0Current Usings:  (PZERO,R0) (FSB,R1) (FILIOP,R2) (FSB,R3) (FILEDSD,R5) (FDOIODO,R10) (@FDOIODO-72,R12) (@IOSDOIO-72,R13)
0Loc    Object Code    Addr1 Addr2  Stmt Lv Lineno    Source Statement           (Hibal 5, Asmedit 3.3)  HLASM R4.0  2004/03/22 09.39
+___    ______ ____    _____ _____  ____ __ ______    ______ _________
00019C8 47E0 A370            019E2 12739             +
 0019CC 5800 C050            00008 12744  1 1315.                L     R0,@FDODATA
 0019D0 4810 C054            0000C 12745  1 1316.                LH    R1,@FDODATL
 0019D4 41E0 2028            00028 12746  1 1317.                LA    R14,FILHDR
 0019D8 48F0 501E            0001E 12747  1 1318.                LH    R15,DSDHDR          Length of header
 0019DC 40F0 C054            0000C 12748  1 1319.                STH   R15,@FDODATL        Set header length
 0019E0 0E0E                       12749  1 1320.                MVCL  R0,R14              So, give it to them
 0019E2                            12750    1321.              END   ,
00019E2 A374           019E2 019CA 12755    1323.              ELSE  BEGIN               Regular IO
 0019E2 47F0 A416            01A88 12760             +
 0019E6 9180 C057      0000F       12766  1 1324.                IF    @FDOFR,BEGIN
 0019EA 47E0 A394            01A06 12776  1          +
 0019EE D201 C054 202E 0000C 00006 12781  2 1325.                  MVC   @FDODATL,FBHLEN     Set return data length
 0019F4 D200 C056 202B 0000E 00003 12782  2 1326.                  MVC   @FDOTYPE,FBHTYPE    Set return block type
 0019FA 4180 0000            00000 12783  2 1327.                  LA    RM,TTFREAD          Increment disk read counts
 0019FE 4D90 A520            01B92 12784  2 1328.                  BAS   RN,FDOIOCTB
 001A02 4D10 A4BC            01B2E 12785  2 1329.                  BAS   RS,FDOIOBLK         Edit block types
 001A06                            12786  1 1330.                END   ,
 001A06 A398           01A06 019EC 12790  1 1331.                ELSE  BEGIN
 001A06 47F0 A3A0            01A12 12795  1          +
 001A0A 4180 0030            00030 12801  2 1332.                  LA    RM,TTFWRIT          Increment disk write counts
 001A0E 4D90 A520            01B92 12802  2 1333.                  BAS   RN,FDOIOCTB
 001A12                            12803  1 1334.                END   ,
0                                  12808  1 1336.     * Update cache with copy of data block.
0001A12 9140 300B      0000B       12810  1 1338.                IF    FSBFCACHE,BEGIN     Caching enabled
 001A16 47E0 A416            01A88 12820  1          +
 001A1A 95FF C056      0000E       12825  2 1339.                  IF    ('CLI @FDOTYPE,FBHTFSMB',EQ),'CLEAR RS' not needed much
 001A1E 4770 A3B2/1B11       01A24 12833  2          +
 001A24 A3B6           01A24 01A20 12847  2 1340.                  ELSEIF ('TM @FDOTYPE,FBHTSYSR',NZ),'L RS,FSBCACHS' Sys cache
 001A24 47F0 A3C2            01A34 12853  2          +
 001A28 91DE C056      0000E       12863  2          +
 001A2C 4780 A3C2            01A34 12864  2          +
 001A30 5810 3034            00034 12870  2          +
 001A34 A3C6           01A34 01A2E 12875  2 1341.                  ELSE  'L RS,FSBCACHE'     General cache
 001A34 47F0 A3CA            01A3C 12880  2          +
 001A38 5810 3030            00030 12887  2          +
 001A3C 1211/4780 A416       01A88 12892  2 1342.                  IF    (RS,NZ),BEGIN       Cache defined for this
 DROP   @IOSDOIO-72,R13            12906  3 1343.                    PSET  @CAIO
 USING  @CAIO-72,R13
 001A42 D71F D048 D048 00000 00000 12926  3          +
 001A48 5010 D048            00000 12927  3 1344.                    PMOV  @CAIOCIT,(RS)       CIT ptr
 001A4C 58E0 2004            00004 12937  3 1345.                    L     R14,#FIOFSID         File system ID
 001A50 58F0 2008            00008 12938  3 1346.                    L     R15,#FIOBLKID        Block number in file system
 001A54 90EF D060            00018 12939  3 1347.                    STM   R14,R15,@CAIOKEY      Save as cache entry key
 001A58                            12940  3 1348.                    PMOV  @CAIOHP,L:#FIOHDRP  Header ptr
 001A58 D203 D04C 200C 00004 0000C 12944  3          +
 001A5E                            12945  3 1349.                    PMOV  @CAIOHL,L:#FIOHDRL  Header length
 001A5E D203 D050 2010 00008 00010 12949  3          +
 001A64                            12950  3 1350.                    PMOV  @CAIODP,L:@FDODATA  Data ptr
 001A64 D203 D054 C050 0000C 00008 12954  3          +
 001A6A                            12955  3 1351.                    PMOV  @CAIODL,LH:@FDODATL Data length
1FILESERV (FILESE) (09:39) (22MAR04) Initialize a single file system                                                        Page   87
0Current Usings:  (PZERO,R0) (FSB,R1) (FILIOP,R2) (FSB,R3) (FILEDSD,R5) (FDOIODO,R10) (@FDOIODO-72,R12) (@CAIO-72,R13)
0Loc    Object Code    Addr1 Addr2  Stmt Lv Lineno    Source Statement           (Hibal 5, Asmedit 3.3)  HLASM R4.0  2004/03/22 09.39
+___    ______ ____    _____ _____  ____ __ ______    ______ _________
0001A6A D201 D05A C054 00012 0000C 12959  3          +
 001A70 9120 300B      0000B       12960  3 1352.                    IF    FSBHCACHE,'VCALL CHWRITE' Hiperspace cache
 001A74 47E0 A40C            01A7E 12970  3          +
 001A78 58F0 A65E/0DEF       01CD0 12978  3          +
 001A7E A410           01A7E 01A76 12984  3 1353.                    ELSE  'VCALL CAWRITE'     Add/update block in cache
 001A7E 47F0 A416            01A88 12989  3          +
 001A82 58F0 A662/0DEF       01CD4 12998  3          +
 001A88                            13004  2 1354.                  END   ,
 001A88                            13008  1 1355.                END   ,                   Caching enabled
 001A88                            13012    1356.              END   ,                   Regular IO
0                                  13017    1358.     * Maintain I/O time statistics.
0DROP   @CAIO-72,R13               13019    1360.              PSET  @IOSTIME            Get elapsed time
 USING  @IOSTIME-72,R13
 001A88 D70F D048 D048 00000 00000 13039             +
 001A8E                            13040    1361.              PMOV  @IOSTID,#IOSID
 001A8E D203 D048 C064 00000 0000C 13044             +
 001A94 58F0 A666/0DEF       01CD8 13045    1362.              VCALL IOSTIME
0001A9A 58E0 3114/18FE       00114 13050    1364.              INCRS FSBIOCT             Update times and counts
 001AA0 5EF0 A61A            01C8C 13061  1          +
 001AA4 BAEF 3114            00114 13062             +
 001AA8 4770 A42C            01A9E 13076             +
 001AAC 98EF 3118/180E       00118 13082    1365.              INCRD FSBIOTIM,@IOSIOTIME
 001AB2 181F/5E10 D054       0000C 13091  1          +
 001AB8 47C0 A44E            01AC0 13101  1          +
 001ABC 5E00 A61A            01C8C 13107  1          +
 001AC0 5E00 D050            00008 13112  1          +
 001AC4 BBE0 3118            00118 13113             +
 001AC8 4770 A43E            01AB0 13127             +
 001ACC 58E0 5018/18FE       00018 13133    1366.              INCRS DSDICNT
 001AD2 5EF0 A61A            01C8C 13144  1          +
 001AD6 BAEF 5018            00018 13145             +
 001ADA 4770 A45E            01AD0 13159             +
 001ADE 98EF 5010/180E       00010 13165    1367.              INCRD DSDTIME,@IOSIOTIME
 001AE4 181F/5E10 D054       0000C 13174  1          +
 001AEA 47C0 A480            01AF2 13184  1          +
 001AEE 5E00 A61A            01C8C 13190  1          +
 001AF2 5E00 D050            00008 13195  1          +
 001AF6 BBE0 5010            00010 13196             +
 001AFA 4770 A470            01AE2 13210             +
0001AFE                            13217    1369.     FDOIODOE LABEL ,
 DROP   @IOSTIME-72,R13            13219    1370.              PSET  @IOSIDFRE           Free the number
 USING  @IOSIDFRE-72,R13
 001AFE D703 D048 D048 00000 00000 13239             +
 001B04                            13240    1371.              PMOV  @IOSFID,#IOSID
 001B04 D203 D048 C064 00000 0000C 13244             +
 001B0A 58F0 A616/0DEF       01C88 13245    1372.              VCALL IOSIDFRE
0001B10                            13250    1374.     FDOIODOX LABEL ,
 DROP   @IOSIDFRE-72,R13           13252    1375.              PSET  @SBFREE
 USING  @SBFREE-72,R13
1FILESERV (FILESE) (09:39) (22MAR04) Initialize a single file system                                                        Page   88
0Current Usings:  (PZERO,R0) (FSB,R1) (FILIOP,R2) (FSB,R3) (FILEDSD,R5) (FDOIODO,R10) (@FDOIODO-72,R12) (@SBFREE-72,R13)
0Loc    Object Code    Addr1 Addr2  Stmt Lv Lineno    Source Statement           (Hibal 5, Asmedit 3.3)  HLASM R4.0  2004/03/22 09.39
+___    ______ ____    _____ _____  ____ __ ______    ______ _________
0001B10 D707 D048 D048 00000 00000 13272             +
 001B16                            13273    1376.              PMOV  @SBFPOO,FSBIOP
 001B16 D203 D048 3040 00000 00040 13277             +
 001B1C 5020 D04C            00004 13278    1377.              PMOV  @SBFADR,LA:FILIOP   Put the IO parm block back
 001B20 58F0 A66A/0DEF       01CDC 13289    1378.              VCALL SBUFREE
0001B26 5800 C060            00008 13294    1380.              L     RVR,#RETCODE        Set return code
 001B2A 47F0 A5B0            01C22 13295    1381.              EXIT  FDOIODO
-001B2E                            13300    1384.     FDOIOBLK LABEL ,                   Check block type
 001B2E 9110 C057      0000F       13302    1385.              IF    (~@FDOS106,AND,~@FDOS115),BEGIN
 001B32 4710 A4EE            01B60 13314             +
 001B36 9108 C057      0000F       13325             +
 001B3A 4710 A4EE            01B60 13326             +
 001B3E 9120 C057      0000F       13331  1 1386.                IF    ~@FDOFUSE,BEGIN
 001B42 4710 A4DC            01B4E 13341  1          +
 001B46 91DE C056      0000E       13346  2 1387.                  IF    ('TM @FDOTYPE,FBHTSYSR',Z),FDOIODOA
 001B4A 4780 A4F0            01B62 13356  2          +
 001B4E                            13362  1 1388.                END   ,
 001B4E A4E0           01B4E 01B44 13366  1 1389.                ELSEIF ('CLI @FDOTYPE,FBHTUSER',EQ),'VCALL ACDSKIO' Count IO
 001B4E 47F0 A4EE            01B60 13372  1          +
 001B52 9501 C056      0000E       13382  1          +
 001B56 4770 A4EE            01B60 13383  1          +
 001B5A 58F0 A66E/0DEF       01CE0 13391  1          +
 001B60                            13397    1390.              END   ,
 001B60 07F1                       13401    1391.              BR    RS
0001B62 AC04 021B      0021B       13403    1393.     FDOIODOA ABORT FILEBLKMISMATCH
 001B66 9680 021A      0021A       13413             +
 001B6A 50F0 021C            0021C 13414             +
 001B6E 58F0 0210            00210 13415             +
 001B72 89F0 0010            00010 13416             +
 001B76 88F0 0010            00010 13417             +
 001B7A 41F0 F000            00000 13418             +
 001B7E AEFF 0006            00006 13419             +
 001B82 C6C9D3C5C2D3D2D4           13420             +
0001B92                            13422    1395.     FDOIOCTB LABEL ,                   Increment counters
 001B92 4110 A59E            01C10 13424    1396.              LA    RS,FDOTAB           Point to type table
 001B96 4100 0008            00008 13425    1397.              LA    R0,FDOCNT           Count of table items
 001B9A                            13426    1398.              LOOP  BEGIN
 001B9A                            13432  1 1399.                IF    ('CLC FBHTYPE,0(RS)',EQ),EXIT
 001B9A D500 202B 1000 00003 00000 13439  1          +
 001BA0 4780 A53A            01BAC 13442  1          +
 001BA4 4111 0002            00002 13448  1 1400.                LA    RS,2(RS)
 001BA8 4600 A528            01B9A 13449    1401.              UNTIL (BCT,R0),END
 001BAC 1F00/4301 0001       00001 13459    1402.              LC    R0,1(RS)            Get counter displacement
 001BB2 1A80                       13466    1403.              AR    RM,R0               Add to IO type displacement
 001BB4 5870 0200            00200 13467    1404.              L     RY,MATPTR
 001BB8 5870 7028            00028 13468    1405.              WITH  (MAT,RY),'L RY,MATFILCB'
 USING  MAT,R7
 DROP   MAT,R7
 001BBC 4178 7050            00050 13492    1406.              WITH  (FILECB,RY),'LA RY,TTFILECT(RM)'
1FILESERV (FILESE) (09:39) (22MAR04) Initialize a single file system                                                        Page   89
0Current Usings:  (PZERO,R0) (FSB,R1) (FILIOP,R2) (FSB,R3) (FILEDSD,R5) (FDOIODO,R10) (@FDOIODO-72,R12) (@SBFREE-72,R13)
0Loc    Object Code    Addr1 Addr2  Stmt Lv Lineno    Source Statement           (Hibal 5, Asmedit 3.3)  HLASM R4.0  2004/03/22 09.39
+___    ______ ____    _____ _____  ____ __ ______    ______ _________
0USING  FILECB,R7
 DROP   FILECB,R7
 001BC0                            13516    1407.              CLEAR #STCK
 001BC0 D707 C058 C058 00000 00000 13522             +
 001BC6 9201 C05F      00007       13523    1408.              MVI   #STCK+L'#STCK-1,1
 001BCA 98EF 7000/180E       00000 13524    1409.              INCRD @RY,#STCK
 001BD0 181F/5E10 C05C       00004 13533  1          +
 001BD6 47C0 A56C            01BDE 13543  1          +
 001BDA 5E00 A61A            01C8C 13549  1          +
 001BDE 5E00 C058            00000 13554  1          +
 001BE2 BBE0 7000            00000 13555             +
 001BE6 4770 A55C            01BCE 13569             +
 001BEA 4178 3140            00140 13575    1410.              LA    RY,FSBFIOCT(RM)
 001BEE 98EF 7000/180E       00000 13576    1411.              INCRD @RY,#STCK
 001BF4 181F/5E10 C05C       00004 13585  1          +
 001BFA 47C0 A590            01C02 13595  1          +
 001BFE 5E00 A61A            01C8C 13601  1          +
 001C02 5E00 C058            00000 13606  1          +
 001C06 BBE0 7000            00000 13607             +
 001C0A 4770 A580            01BF2 13621             +
 001C0E 07F9                       13627    1412.              BR    RN                  Return
0001C10 FF00                       13629    1414.     FDOTAB   DC    AL1(FBHTFSMB,CTMASD) Block type counter displacements
 001C12 8008                       13630    1415.              DC    AL1(FBHTCAT,CTCATD)
 001C14 4010                       13631    1416.              DC    AL1(FBHTBIT,CTBITD)
 001C16 0818                       13632    1417.              DC    AL1(FBHTIXR,CTIXRD)
 001C18 0418                       13633    1418.              DC    AL1(FBHTSIXR,CTIXRD)
 001C1A 0218                       13634    1419.              DC    AL1(FBHTMIXR,CTIXRD)
 001C1C 1018                       13635    1420.              DC    AL1(FBHTZIXR,CTIXRD)
 001C1E 0120                       13636    1421.              DC    AL1(FBHTUSER,CTUSED)
                                   13637    1422.     FDOCNT   EQU   (*-FDOTAB)/2
 001C20 0028                       13638    1423.              DC    AL1(0,CTOTHD)       Are there any others?
0001C22 981F C008            00008 13640    1425.              PEND  ,
 DROP   FILEDSD,R5
 DROP   FSB,R3
 DROP   FILIOP,R2
 DROP   @FDOIODO-72,R12
 DROP   FDOIODO,R10
 001C26 9680 C000/0B0E 00000       13670             +
 DROP   @SBFREE-72,R13
1FILESERV (FILESE) (09:39) (22MAR04) Initialize a single file system                                                        Page   90
0Current Usings:  (PZERO,R0) (FSB,R1)
0Loc    Object Code    Addr1 Addr2  Stmt Lv Lineno    Source Statement           (Hibal 5, Asmedit 3.3)  HLASM R4.0  2004/03/22 09.39
+___    ______ ____    _____ _____  ____ __ ______    ______ _________
0001C30                            13680    1427.              LTORG ,
 001C30 C6C9D3C540404040           13682                             =CL8'FILE'
 001C38 E59693A494854099           13683                             =C'Volume removed from file system:'
 001C58 C6E2C240                   13684                             =CL4'FSB'
 001C5C 00000000                   13685                             =V(IOSIDGET)
 001C60 00000000                   13686                             =V(VMGET)
 001C64 00000004                   13687                             =A(#FCOPEN)
 001C68 0000002C                   13688                             =A(L'DSDDSN)
 001C6C 00001568                   13689                             =A(DSDEDIT)
 001C70 00000000                   13690                             =V(IOSDOIO)
 001C74 00000800                   13691                             =A(2048)
 001C78 00001000                   13692                             =A(4096)
 001C7C 00000020                   13693                             =A(L'FILHDR)
 001C80 000000C8                   13694                             =A(200)
 001C84 00000000                   13695                             =V(VMFREE)
 001C88 00000000                   13696                             =V(IOSIDFRE)
 001C8C 00000001                   13697                             =A(1)
 001C90 00000000                   13698                             =V(FBITADDV)
 001C94 E59693A494854081           13699                             =C'Volume added to file system:'
 001CB0 00000000                   13700                             =V(FBITREMV)
 001CB4 00000008                   13701                             =A(#FCCLOSE)
 001CB8 00000000                   13702                             =V(SBUFGET)
 001CBC 00000010                   13703                             =A(#FCWRITE)
 001CC0 0000000C                   13704                             =A(#FCREAD)
 001CC4 00000000                   13705                             =V(CHREAD)
 001CC8 00000000                   13706                             =V(CAREAD)
 001CCC 7FFFF000                   13707                             =X'7FFFF000'
 001CD0 00000000                   13708                             =V(CHWRITE)
 001CD4 00000000                   13709                             =V(CAWRITE)
 001CD8 00000000                   13710                             =V(IOSTIME)
 001CDC 00000000                   13711                             =V(SBUFREE)
 001CE0 00000000                   13712                             =V(ACDSKIO)
 001CE4 3F00           01CFE 01D00 13713                             =Y(63*256+0)
 001D00                01D00 01D00 13717    1428.              END   .

1FILESERV (FILESE) (09:39) (22MAR04) Ordinary Symbol and Literal Cross Reference                                            Page   91
-Symbol   Length   Value     Id    R Type   Defn References                                  HLASM R4.0  2004/03/22 09.39
0$$$@R0        1 00000000 FFFFFFFE     J     714  1010
 $$$@R1        1 00000000 FFFFFFFD     J     727  1022
 $$$@R10       1 00000000 FFFFFFF4     J     844  1142
 $$$@R11       1 00000000 FFFFFFF3     J     857  1154
 $$$@R12       1 00000000 FFFFFFF2     J     870  1166
 $$$@R13       1 00000000 FFFFFFF1     J     883  1178
 $$$@R14       1 00000000 FFFFFFF0     J     896  1190
 $$$@R15       1 00000000 FFFFFFEF     J     909  1202
 $$$@R2        1 00000000 FFFFFFFC     J     740  1034
 $$$@R3        1 00000000 FFFFFFFB     J     753  1046
 $$$@R4        1 00000000 FFFFFFFA     J     766  1058
 $$$@R5        1 00000000 FFFFFFF9     J     779  1070
 $$$@R6        1 00000000 FFFFFFF8     J     792  1082
 $$$@R7        1 00000000 FFFFFFF7     J     805  1094
 $$$@R8        1 00000000 FFFFFFF6     J     818  1106
 $$$@R9        1 00000000 FFFFFFF5     J     831  1118   1130
 $$$C1FILESERV
               1 0000028B 00000001     J    4941  4943   4968   4991   6902   7005   7097
 $$$C2FILESERV
               1 00000E04 00000001     J    8544  8546   8583   8603   8628   9091   9807  11208  11758  11885
 $$$C3FILESERV
               1 00001CFE 00000001     J   13714 13716
 $$$C4FILESERV
               1 00001D00 00000001     J   13720 13722
 $$$D1FILESERV
               1 00000DF2 00000001     J    4942  6891   6994   7086
 $$$D2FILESERV
               1 00001CE6 00000001     J    8545  9080  11873
 $$$R#FDOIODO
               1 00000000 FFFFFFA8     J   11742 11757  11757
 $$$R#FICLOSE
               1 00000000 FFFFFFE4     J    1880  1893   1893
 $$$R#FILEINIT
               1 00000000 FFFFFFAF     J    4951  4967   4967
 $$$R#FILSMF
               1 00000000 FFFFFFB0     J    4516  4531   4531
 $$$R#FIOCOM
               1 00000000 FFFFFFE6     J    1829  1849   1849
 $$$R#FIODO
               1 00000000 FFFFFFE3     J    1901  1927   1927
 $$$R#FIOOPEN
               1 00000000 FFFFFFE5     J    1857  1872   1872
 $$$R#FSADDV
               1 00000000 FFFFFFAA     J    9791  9806   9806
 $$$R#FSINIT
               1 00000000 FFFFFFAD     J    8567  8582   8582
 $$$R#PFINFO
               1 00000000 FFFFFFE0     J    2060  2172   2172
 $$$R@CACLOSE
               1 00000000 FFFFFFDB     J    2276  2289   2289
 $$$R@CACTRL
               1 00000000 FFFFFFDE     J    2212  2227   2227
 $$$R@CAIO
               1 00000000 FFFFFFDD     J    2233  2251   2251
 $$$R@CAOPEN
1FILESERV (FILESE) (09:39) (22MAR04) Ordinary Symbol and Literal Cross Reference                                            Page   92
               1 00000000 FFFFFFDF     J    2183  2206   2206
 $$$R@CAVERIFY
               1 00000000 FFFFFFDC     J    2257  2270   2270
 $$$R@DSALLO
               1 00000000 FFFFFFE1     J    1965  2047   2047
 $$$R@DSDALLO
               1 00000000 FFFFFFE2     J    1940  1953   1953
 $$$R@DSDEDIT
               1 00000000 FFFFFFA9     J   11193 11207  11207
 $$$R@FDOIODO
               1 00000000 FFFFFFBE     J    3272  3323   3323
 $$$R@FILEBLKI
               1 00000000 FFFFFFC3     J    3089  3133   3133
 $$$R@FILEHALT
               1 00000000 FFFFFFC1     J    3205  3218   3218
 $$$R@FMFINFO
               1 00000000 FFFFFFC2     J    3144  3195   3195
 $$$R@FMFSB
               1 00000000 FFFFFFBF     J    3244  3266   3266
 $$$R@FMRQFB
               1 00000000 FFFFFFC0     J    3224  3237   3237
 $$$R@FSADDV
               1 00000000 FFFFFFBD     J    3329  3343   3343
 $$$R@FSINIT
               1 00000000 FFFFFFAC     J    8588  8602   8602
 $$$R@IORB
               1 00000000 FFFFFFB2     J    4016  4035   4035
 $$$R@IOSDOIO
               1 00000000 FFFFFFB7     J    3879  3917   3917
 $$$R@IOSIDFRE
               1 00000000 FFFFFFB3     J    3990  4003   4003
 $$$R@IOSIDGET
               1 00000000 FFFFFFB4     J    3963  3984   3984
 $$$R@IOSTIME
               1 00000000 FFFFFFB5     J    3943  3957   3957
 $$$R@IOTERM
               1 00000000 FFFFFFB6     J    3923  3937   3937
 $$$R@IOUPARM
               1 00000000 FFFFFFB1     J    4047  4070   4070
 $$$R@LOCKCRE
               1 00000000 FFFFFFD7     J    2386  2408   2408
 $$$R@LOCKS
               1 00000000 FFFFFFD6     J    2414  2427   2427
 $$$R@M1FILE
               1 00000000 FFFFFFC5     J    2915  3050   3050
 $$$R@M1FPOST
               1 00000000 FFFFFFC4     J    3061  3078   3078
 $$$R@PAGASC1
               1 00000000 FFFFFFCB     J    2777  2791   2791
 $$$R@PAGASC2
               1 00000000 FFFFFFCA     J    2797  2811   2811
 $$$R@PAGDEF
               1 00000000 FFFFFFCD     J    2717  2744   2744
 $$$R@PAGE
               1 00000000 FFFFFFC9     J    2817  2833   2833
 $$$R@PAGINIT
               1 00000000 FFFFFFC6     J    2879  2893   2893
 $$$R@PAGINTV
               1 00000000 FFFFFFC7     J    2860  2873   2873
1FILESERV (FILESE) (09:39) (22MAR04) Ordinary Symbol and Literal Cross Reference                                            Page   93
 $$$R@PAGRV
               1 00000000 FFFFFFC8     J    2839  2854   2854
 $$$R@PAGSEGD
               1 00000000 FFFFFFCC     J    2750  2771   2771
 $$$R@PAGSWADV
               1 00000000 FFFFFFCF     J    2668  2681   2681
 $$$R@PAGSWAP
               1 00000000 FFFFFFD0     J    2614  2662   2662
 $$$R@PAGWSMA
               1 00000000 FFFFFFCE     J    2687  2711   2711
 $$$R@PARMDO
               1 00000000 FFFFFFD2     J    2519  2535   2535
 $$$R@QUE      1 00000000 FFFFFFEB     J    1579  1594   1594
 $$$R@SBFREE
               1 00000000 FFFFFFE8     J    1773  1787   1787
 $$$R@SBGET
               1 00000000 FFFFFFE9     J    1747  1762   1762
 $$$R@SBINIT
               1 00000000 FFFFFFEA     J    1701  1736   1736
 $$$R@VMFREE
               1 00000000 FFFFFFD9     J    2337  2352   2352
 $$$R@VMGET
               1 00000000 FFFFFFDA     J    2302  2331   2331
 $$$R@VMINFO
               1 00000000 FFFFFFD8     J    2358  2373   2373
 $$$RFBHDR
               1 00000000 FFFFFFBC     J    3350  3386   3386
 $$$RFILECB
               1 00000000 FFFFFFBA     J    3676  3818   3818
 $$$RFILEDAL
               1 00000000 FFFFFFAB     J    8608  8627   8627
 $$$RFILEDSD
               1 00000000 FFFFFFB9     J    3825  3846   3846
 $$$RFILIOP
               1 00000000 FFFFFFB8     J    3853  3872   3872
 $$$RFIPARMS
               1 00000000 FFFFFFAE     J    4973  4990   4990
 $$$RFSB       1 00000000 FFFFFFBB     J    3393  3665   3665
 $$$RMAT       1 00000000 FFFFFFED     J    1351  1410   1410
 $$$RPARMIN
               1 00000000 FFFFFFD1     J    2541  2599   2599
 $$$RPZERO
               1 00000000 FFFFFFEE     J    1238  1329   1329
 $$$RSBWAIT
               1 00000000 FFFFFFE7     J    1793  1813   1813
 $$$RSLDUMMY
               1 00000000 FFFFFFEC     J    1521  1537   1537
 $$$RSMFFILE
               1 00000000 FFFFFFD4     J    2459  2486   2486
 $$$RSMFFSDAT
               1 00000000 FFFFFFD3     J    2492  2506   2506
 $$$RSMFPFX
               1 00000000 FFFFFFD5     J    2434  2452   2452
 $$$TR$0       4 00001CEC 00000001     A   11877 11871  11877
 $$$100F       2 00000AEC 00000001     H    7965  7791B
 $$$100S       2 00000A24 00000001     H    7742  7964B
 $$$110B       4 00000B02 00000001     I    8033  8073
 $$$110F       2 00000B24 00000001     H    8070  8033B  8072
 $$$111F       2 00000B12 00000001     H    8063  8048B
1FILESERV (FILESE) (09:39) (22MAR04) Ordinary Symbol and Literal Cross Reference                                            Page   94
 $$$112E       2 00000B28 00000001     H    8080  8074
 $$$112F       2 00000B46 00000001     H    8114  8076B
 $$$113F       2 00000B34 00000001     H    8107  8092B
 $$$114S       2 00000B7C 00000001     H    8203  8369B
 $$$115F       2 00000BB6 00000001     H    8295  8283B
 $$$115S       2 00000BA4 00000001     H    8271  8294B
 $$$117F       2 00000BD2 00000001     H    8347  8332B
 $$$121F       2 00000E90 00000001     H    8812  8786B
 $$$122F       2 00001152 00000001     H    9621  8943B
 $$$122S       2 00000EB4 00000001     H    8872  9620B
 $$$124F       2 00000F30 00000001     H    9031  9005B
 $$$125F       2 00000F4C 00000001     H    9073  9064B
 $$$126        6 00001CE6 00000001     I    9086  9078X
 $$$127        6 00001CE6 00000001     I    9085  9086   9086
 $$$128F       2 00000F74 00000001     H    9161  9135B
 $$$129F       2 00000FAA 00000001     H    9197  9171B
 $$$130F       2 00000FFE 00000001     H    9297  9271B
 $$$131F       2 0000107C 00000001     H    9417  9382B
 $$$132F       2 000010A8 00000001     H    9454  9444B
 $$$133F       2 000010E8 00000001     H    9509  9469B  9483B
 $$$135F       2 000010FE 00000001     H    9534  9524B
 $$$136F       2 0000114E 00000001     H    9608  9583B
 $$$136T       2 0000111E 00000001     H    9586  9549B  9561B  9575B
 $$$140F       2 00001166 00000001     H    9651  9636B
 $$$142F       2 000011F2 00000001     H    9960  9944B
 $$$142S       2 000011E0 00000001     H    9933  9956B
 $$$145F       2 00001200 00000001     H    9980  9970B
 $$$146F       2 00001250 00000001     H   10065 10039B
 $$$147B       4 00001272 00000001     I   10156 10727
 $$$147F       2 00001442 00000001     H   10723 10156B 10726
 $$$148F       2 000012C6 00000001     H   10248 10222B
 $$$149F       2 000012FA 00000001     H   10311 10301B
 $$$150F       2 00001330 00000001     H   10372 10362B
 $$$151F       2 00001372 00000001     H   10467 10457B
 $$$152F       2 00001390 00000001     H   10500 10490B
 $$$153B       4 000013B0 00000001     I   10525 10539
 $$$153F       2 000013B8 00000001     H   10535 10525B 10538
 $$$154B       4 000013C2 00000001     I   10558 10571
 $$$154E       2 000013BC 00000001     H   10546 10540
 $$$154F       2 000013CA 00000001     H   10568 10542B 10558B 10570
 $$$156E       2 000013CE 00000001     H   10578 10572
 $$$156F       2 000013F8 00000001     H   10637 10574B
 $$$157F       2 000013EC 00000001     H   10610 10598B
 $$$158F       2 000013F8 00000001     H   10633 10623B
 $$$160E       2 00001446 00000001     H   10734 10728
 $$$160F       2 000014AC 00000001     H   10839 10730B
 $$$161F       2 0000145E 00000001     H   10763 10752B
 $$$161S       2 0000144E 00000001     H   10743 10762B
 $$$163F       2 00001480 00000001     H   10810 10800B
 $$$164F       2 0000150C 00000001     H   11004 10935B
 $$$165F       2 00001534 00000001     H   11078 11019B
 $$$166F       2 00001550 00000001     H   11131 11093B
 $$$167F       2 000015EE 00000001     H   11507 11400B 11469B
 $$$168B       4 00001584 00000001     I   11293 11423
 $$$168F       2 000015C6 00000001     H   11420 11293B 11422
 $$$169F       2 000015C6 00000001     H   11416 11358B
 $$$169S       2 00001594 00000001     H   11352 11415B
 $$$171F       2 000015BE 00000001     H   11410 11375B
 $$$171S       2 0000159E 00000001     H   11369 11409B
1FILESERV (FILESE) (09:39) (22MAR04) Ordinary Symbol and Literal Cross Reference                                            Page   95
 $$$173F       2 000015B6 00000001     H   11404 11392B
 $$$174E       2 000015CA 00000001     H   11430 11424
 $$$174F       2 000015EE 00000001     H   11483 11426B
 $$$175F       2 000015EE 00000001     H   11479 11444B
 $$$175S       2 000015CE 00000001     H   11438 11478B
 $$$177F       2 000015E6 00000001     H   11473 11461B
 $$$179F       2 0000165C 00000001     H   11714 11625B
 $$$179S       2 00001626 00000001     H   11619 11713B
 $$$181F       2 00001654 00000001     H   11708 11640B 11678B
 $$$182F       2 00001640 00000001     H   11665 11655B
 $$$184F       2 00001654 00000001     H   11704 11694B
 $$$185F       2 00001C22 00000001     H   13668 13297B
 $$$187F       2 000016DC 00000001     H   11948 11910B 11922B
 $$$189F       2 0000173C 00000001     H   12035 11961B
 $$$190F       2 0000171E 00000001     H   12002 11976B
 $$$191F       2 000017BC 00000001     H   12142 12093B
 $$$191S       2 00001772 00000001     H   12077 12141B
 $$$193F       2 000017B8 00000001     H   12137 12111B
 $$$194B       4 000017CC 00000001     I   12157 12179
 $$$194F       2 00001804 00000001     H   12175 12157B 12178
 $$$195E       2 00001808 00000001     H   12186 12180
 $$$195F       2 000018CA 00000001     H   12456 12182B
 $$$196F       2 000018CA 00000001     H   12452 12206B 12218B
 $$$198B       4 00001830 00000001     I   12233 12247
 $$$198F       2 00001838 00000001     H   12243 12233B 12246
 $$$199B       4 00001848 00000001     I   12277 12293
 $$$199E       2 0000183C 00000001     H   12254 12248
 $$$199F       2 0000184E 00000001     H   12290 12250B 12277B 12292
 $$$199T       2 0000184C 00000001     H   12280 12267B
 $$$202E       2 00001852 00000001     H   12300 12294
 $$$202F       2 00001856 00000001     H   12307 12296B
 $$$203F       2 000018CA 00000001     H   12448 12317B
 $$$204B       4 0000188E 00000001     I   12386 12402
 $$$204F       2 00001898 00000001     H   12399 12386B 12401
 $$$205E       2 0000189C 00000001     H   12409 12403
 $$$205F       2 000018A2 00000001     H   12419 12405B
 $$$206F       2 000018CA 00000001     H   12444 12429B
 $$$207B       4 000018DC 00000001     I   12473 12492
 $$$207F       2 000018E6 00000001     H   12489 12473B 12491
 $$$208E       2 000018EA 00000001     H   12499 12493
 $$$208F       2 00001934 00000001     H   12557 12495B
 $$$209B       4 0000190E 00000001     I   12522 12535
 $$$209F       2 0000191A 00000001     H   12532 12522B 12534
 $$$210E       2 0000191E 00000001     H   12542 12536
 $$$210F       2 00001934 00000001     H   12553 12538B
 $$$211F       2 00001978 00000001     H   12662 12650B
 $$$212F       2 000019C4 00000001     H   12727 12684B
 $$$214B       4 000019C8 00000001     I   12739 12757
 $$$214F       2 000019E2 00000001     H   12753 12739B 12756
 $$$215E       2 000019E6 00000001     H   12764 12758
 $$$215F       2 00001A88 00000001     H   13015 12760B
 $$$216B       4 000019EA 00000001     I   12776 12792
 $$$216F       2 00001A06 00000001     H   12789 12776B 12791
 $$$217E       2 00001A0A 00000001     H   12799 12793
 $$$217F       2 00001A12 00000001     H   12806 12795B
 $$$218F       2 00001A88 00000001     H   13011 12820B
 $$$219B       4 00001A1E 00000001     I   12833 12850
 $$$219F       2 00001A24 00000001     H   12846 12833B 12849
 $$$22F        2 0000010C 00000001     H    4497  4257B
1FILESERV (FILESE) (09:39) (22MAR04) Ordinary Symbol and Literal Cross Reference                                            Page   96
 $$$220B       4 00001A2C 00000001     I   12864 12877
 $$$220E       2 00001A28 00000001     H   12857 12851
 $$$220F       2 00001A34 00000001     H   12874 12853B 12864B 12876
 $$$222E       2 00001A38 00000001     H   12884 12878
 $$$222F       2 00001A3C 00000001     H   12891 12880B
 $$$223F       2 00001A88 00000001     H   13007 12901B
 $$$224B       4 00001A74 00000001     I   12970 12986
 $$$224F       2 00001A7E 00000001     H   12983 12970B 12985
 $$$225E       2 00001A82 00000001     H   12993 12987
 $$$225F       2 00001A88 00000001     H   13003 12989B
 $$$226S       2 00001A9E 00000001     H   13056 13076B
 $$$229S       2 00001AB0 00000001     H   13088 13127B
 $$$230F       2 00001AC0 00000001     H   13111 13101B
 $$$233S       2 00001AD0 00000001     H   13139 13159B
 $$$236S       2 00001AE2 00000001     H   13171 13210B
 $$$237F       2 00001AF2 00000001     H   13194 13184B
 $$$24F        2 00000062 00000001     H    4239  4210B
 $$$24S        2 0000004C 00000001     H    4204  4238B
 $$$240F       2 00001B60 00000001     H   13400 13314B 13326B
 $$$242B       4 00001B42 00000001     I   13341 13369
 $$$242F       2 00001B4E 00000001     H   13365 13341B 13368
 $$$244E       2 00001B52 00000001     H   13376 13370
 $$$244F       2 00001B60 00000001     H   13396 13372B 13383B
 $$$246F       2 00001BAC 00000001     H   13458 13442B
 $$$246S       2 00001B9A 00000001     H   13430 13454B
 $$$249S       2 00001BCE 00000001     H   13530 13569B
 $$$250F       2 00001BDE 00000001     H   13553 13543B
 $$$253S       2 00001BF2 00000001     H   13582 13621B
 $$$254F       2 00001C02 00000001     H   13605 13595B
 $$$27F        2 00000070 00000001     H    4261  4249B
 $$$28S        2 00000094 00000001     H    4281  4310B
 $$$29F        2 000000A0 00000001     H    4302  4292B
 $$$31S        2 000000BC 00000001     H    4328  4357B
 $$$32F        2 000000C8 00000001     H    4349  4339B
 $$$34F        2 000000E4 00000001     H    4388  4373B
 $$$35F        2 000000F0 00000001     H    4414  4399B
 $$$36F        2 000000FC 00000001     H    4440  4425B
 $$$37F        2 0000010A 00000001     H    4468  4453B
 $$$39F        2 000001A0 00000001     H    4695  4669B
 $$$40S        2 0000020A 00000001     H    4771  4808B
 $$$43F        2 000002FC 00000001     H    5116  5090B
 $$$44F        2 00000366 00000001     H    5239  5213B
 $$$45F        2 000003BA 00000001     H    5313  5287B
 $$$46F        2 000003EE 00000001     H    5388  5378B
 $$$47F        2 0000043E 00000001     H    5511  5481B  5496B
 $$$49F        2 0000046C 00000001     H    5590  5560B  5575B
 $$$51B        4 00000470 00000001     I    5604  5890
 $$$51F        2 00000538 00000001     H    5884  5604B  5889
 $$$52F        2 00000492 00000001     H    5653  5643B
 $$$53F        2 000004A4 00000001     H    5700  5685B
 $$$54F        2 000004D4 00000001     H    5752  5742B
 $$$55F        2 000004E6 00000001     H    5789  5774B
 $$$56F        2 00000516 00000001     H    5841  5831B
 $$$57E        2 0000053C 00000001     H    5897  5891
 $$$57F        2 000006D0 00000001     H    6462  5893B
 $$$58F        2 00000560 00000001     H    5944  5934B
 $$$59F        2 00000572 00000001     H    5991  5976B
 $$$60F        2 000005A4 00000001     H    6047  6037B
 $$$61F        2 000005B6 00000001     H    6084  6069B
1FILESERV (FILESE) (09:39) (22MAR04) Ordinary Symbol and Literal Cross Reference                                            Page   97
 $$$62F        2 000005E8 00000001     H    6140  6130B
 $$$63F        2 0000062A 00000001     H    6224  6214B
 $$$64F        2 0000063C 00000001     H    6271  6256B
 $$$65F        2 0000066E 00000001     H    6327  6317B
 $$$66F        2 00000680 00000001     H    6364  6349B
 $$$67F        2 000006B2 00000001     H    6420  6410B
 $$$68F        2 00000B50 00000001     H    8125  6797B
 $$$68S        2 000006EA 00000001     H    6520  8124B
 $$$69F        2 0000075A 00000001     H    6637  6611B
 $$$70F        2 000007A8 00000001     H    6801  6729B
 $$$71F        2 000007F6 00000001     H    6907  6861B
 $$$72F        2 000007F0 00000001     H    6884  6875B
 $$$73         6 00000DF2 00000001     I    6897  6889X
 $$$74         6 00000DF2 00000001     I    6896  6897   6897
 $$$75F        2 00000826 00000001     H    6968  6957B
 $$$76F        2 00000832 00000001     H    6987  6978B
 $$$77         6 00000DF8 00000001     I    7000  6992X
 $$$78         6 00000DF8 00000001     I    6999  7000   7000
 $$$79F        2 00000872 00000001     H    7102  7056B
 $$$80F        2 0000086C 00000001     H    7079  7070B
 $$$81         6 00000DFE 00000001     I    7092  7084X
 $$$82         6 00000DFE 00000001     I    7091  7092   7092
 $$$83F        2 00000896 00000001     H    7147  7138B
 $$$84F        2 000008D2 00000001     H    7231  7184B
 $$$85F        2 000008C2 00000001     H    7207  7198B
 $$$86F        2 000008CE 00000001     H    7226  7217B
 $$$87F        2 000008F6 00000001     H    7277  7267B
 $$$88F        2 00000924 00000001     H    7356  7326B  7341B
 $$$90F        2 00000952 00000001     H    7435  7405B  7420B
 $$$92F        2 00000980 00000001     H    7514  7484B  7499B
 $$$94F        2 000009AE 00000001     H    7593  7563B  7578B
 $$$96F        2 00000A24 00000001     H    7733  7642B  7657B
 $$$98F        2 00000A12 00000001     H    7700  7674B
 $$$99F        2 00000A24 00000001     H    7729  7714B
 #FCCLOSE      1 00000008 FFFFFFE6 A   U    1840 13701
 #FCOPEN       1 00000004 FFFFFFE6 A   U    1839 13687
 #FCREAD       1 0000000C FFFFFFE6 A   U    1841 13704
 #FCWRITE      1 00000010 FFFFFFE6 A   U    1842 13703
 #FDOIODO     16 00000000 FFFFFFA8     J   11757 11804U
 #FICLOSE      4 00000000 FFFFFFE4     J    1893 10849U 10899
 #FIFSID       4 00000004 FFFFFFAF     A    4958  6511M  6511   6545   6805   6811M  8129
 #FILEINIT
              24 00000000 FFFFFFAF     J    4967  5030U
 #FILSMF      20 00000000 FFFFFFB0     J    4531  4571U
 #FIOALLO      4 00000004 FFFFFFE5     A    1864  8849M 10336M
 #FIOBLKID
               4 00000008 FFFFFFE3     F    1910 12067M 12072  12354  12938
 #FIOCOM       4 00000000 FFFFFFE6     J    1849  1863   1886   1907
 #FIODATAL
               4 00000018 FFFFFFE3     F    1916 12166M 12192M 12375  12471
 #FIODATAP
               4 00000014 FFFFFFE3     A    1915 12164M 12190M 12370  12434  12485M 12485  12505  12511
 #FIODCMD      4 00000000 FFFFFFE3     X    1907 12163M 12189M
 #FIODO       40 00000000 FFFFFFE3     J    1927  3859  11825U 12634
 #FIOFSID      4 00000004 FFFFFFE3     F    1909 12066M 12353  12937
 #FIOHDRL      4 00000010 FFFFFFE3     F    1913 12145M 12365  12949
 #FIOHDRP      4 0000000C FFFFFFE3     A    1912 12069M 12360  12458  12944
 #FIOHDRR      4 00000024 FFFFFFE3     A    1920 12460M
 #FIOIDALR
1FILESERV (FILESE) (09:39) (22MAR04) Ordinary Symbol and Literal Cross Reference                                            Page   98
               4 00000020 FFFFFFE3     A    1919 12503M 12655
 #FIOINFO      4 00000008 FFFFFFE5     A    1865  8851M 10338M
 #FIOOCMD      4 00000000 FFFFFFE5     X    1863  8847M 10334M 10851M
 #FIOOPEN     12 00000000 FFFFFFE5     J    1872  8614   8831U  9354  10318U 10429
 #FIORBLK      4 0000001C FFFFFFE3     F    1918 12143M
 #FIPARM       4 00000008 FFFFFFAF     A    4959  5240M  5321   6522   8172
 #FIPREV       4 00000000 FFFFFFAF     A    4957  6504M  7994   8016M
 #FIWORK       8 00000010 FFFFFFAF     D    4960  6549M  6550
 #FSADDV      12 00000000 FFFFFFAA     J    9806  9853U  9865M  9865
 #FSAFDAL      4 00000004 FFFFFFAA     A    9798 10066M 11018M 11018
 #FSAFDSD      4 00000008 FFFFFFAA     A    9799 10249M 10663M 10663  10819M 10934M 10934
 #FSAIOID      4 00000000 FFFFFFAA     F    9797 10121M 10412  10882  11092M 11092  11123
 #FSICBLK      4 00000008 FFFFFFAD     A    8575  8863M  8863   9421   9426M  9622
 #FSIIOID      4 00000000 FFFFFFAD     A    8573  8724M  9337   9745
 #FSINIT      12 00000000 FFFFFFAD     J    8582  8675U
 #FSIPRE       4 00000004 FFFFFFAD     A    8574  8856M  9198   9220M  9652
 #IOSID        4 0000000C FFFFFFA8     F   11750 12590M 12622  13044  13244
 #IOUFILE      1 0000000C FFFFFFB1 A   U    4059  9258  10349
 #PFIBKS       4 00000000 FFFFFFE0     A    2069  9423  10471
 #PFIBLK       4 0000001C FFFFFFE0     A    2165  9427  10473
 #PFIDSO       1 00000013 FFFFFFE0     R    2092  2100   2109   2118
 #PFIKEY       1 00000015 FFFFFFE0     X    2163  9433  10479
 #PFINFO      32 00000000 FFFFFFE0     J    2172  8618   8845U  8850  10332U 10337
 #PFIRFM       1 00000014 FFFFFFE0     R    2124  2132   2141   2150   2159
 #PFISPF       1 00000012 FFFFFFE0     R    2075  2079   2084
 #PFODPO       2 00000013 FFFFFFE0         2109  9546
 #PFORF      128 00000014 FFFFFFE0         2132  9558
 #RETCODE      4 00000008 FFFFFFA8     F   11749 11896M 11896  12674M 13294
 #SMFBLEN      4 00000010 FFFFFFB0     A    4524  4619M  4757   4827
 #SMFNAM       8 00000008 FFFFFFB0     C    4523  4591M  4729
 #SMFTIME      8 00000000 FFFFFFB0     D    4522  4744M  4748   4751
 #STCK         8 00000000 FFFFFFA8     D   11748 12170M 12171  13522M 13522  13523M 13523M 13542  13554  13594  13606
 @CAIO        32 00000000 FFFFFFDD     J    2251 12334U 12342M 12342  12918U 12926M 12926
 @CAIOCIT      4 00000000 FFFFFFDD     A    2239 12352M 12936M
 @CAIODL       4 00000010 FFFFFFDD     F    2243 12375M 12959M
 @CAIODP       4 0000000C FFFFFFDD     A    2242 12370M 12954M
 @CAIOHL       4 00000008 FFFFFFDD     F    2241 12365M 12949M
 @CAIOHP       4 00000004 FFFFFFDD     A    2240 12360M 12944M
 @CAIOKEY      8 00000018 FFFFFFDD     D    2244 12355M 12939M
 @CAODLEN      4 00000000 FFFFFFDF     F    2189  5997M  6090M  6277M  6370M
 @CAOFLAG      1 00000008 FFFFFFDF     R    2193  2197
 @CAOFNOT    128 00000008 FFFFFFDF         2197  5696M  5785M  5987M  6080M  6267M  6360M
 @CAONBUF      4 00000004 FFFFFFDF     F    2190  5701M  5790M  5992M  6085M  6272M  6365M
 @CAOPEN       9 00000000 FFFFFFDF     J    2206  5666U  5674M  5674   5763M  5763   5957U  5965M  5965   6058M  6058
                                                  6237U  6245M  6245   6338M  6338
 @DSALCF       1 0000004D FFFFFFE1     R    2009  2013   2018   2023   2028   2033
 @DSALLO      96 00000000 FFFFFFE1     J    2047  8616   8838U  8848  10325U 10335
 @DSDEDIT     48 00000000 FFFFFFA9     J   11207  9105U  9113M  9113  10271U 10279M 10279  11247U
 @DSDEDSN     44 00000004 FFFFFFA9     C   11200  9118M 10284M 11391  11460
 @DSDEFSB      4 00000000 FFFFFFA9     A   11199  9150M 11291
 @DSDSN       44 00000004 FFFFFFE1     C    1972  9248M 10339M
 @DSFLAG       1 0000004C FFFFFFE1     R    1982  1986   1991   1996   2001
 @DSSHR      128 0000004C FFFFFFE1         1986  9254M 10345M
 @FDOBLK       4 00000004 FFFFFFBE     A    3279 12067  12167
 @FDODATA      4 00000008 FFFFFFBE     A    3280 11960M 11960  12030M 12164  12190  12434M 12744  12954
 @FDODATL      2 0000000C FFFFFFBE     H    3281 12031M 12165  12169  12191  12435M 12745  12748M 12781M 12959
 @FDODISK      4 0000000F FFFFFFBE         3314 12217
 @FDOFLAG      1 0000000F FFFFFFBE     R    3285  3289   3294   3299   3304   3309   3314
 @FDOFR      128 0000000F FFFFFFBE         3289 11921  12649  12775
1FILESERV (FILESE) (09:39) (22MAR04) Ordinary Symbol and Literal Cross Reference                                            Page   99
 @FDOFSB       4 00000000 FFFFFFBE     A    3278 11888
 @FDOFUSE     32 0000000F FFFFFFBE         3299 12232  12698  13340
 @FDOFW       64 0000000F FFFFFFBE         3294 11909  11975  12156
 @FDOIODO     16 00000000 FFFFFFBE     J    3323 11797U 11804U 11862
 @FDOS106     16 0000000F FFFFFFBE         3304 12264  13313
 @FDOS115      8 0000000F FFFFFFBE         3309 12276  12738  13325
 @FDOTYPE      1 0000000E FFFFFFBE     X    3282 12168  12436M 12782M 12832  12863  13353  13382
 @FILABLK      4 00000008 FFFFFFC3     A    3098  4266M
 @FILCACT      8 00000018 FFFFFFC3     D    3101  4362M
 @FILEBLKI
              37 00000000 FFFFFFC3     J    3133  4125U
 @FILFCACHE
              32 00000024 FFFFFFC3         3119  4436M
 @FILFLAG      1 00000024 FFFFFFC3     R    3105  3109   3114   3119   3124
 @FILFNA     128 00000024 FFFFFFC3         3109  4384M
 @FILFRO      64 00000024 FFFFFFC3         3114  4410M
 @FILFSID      4 00000000 FFFFFFC3     A    3095  4181
 @FILF4K      16 00000024 FFFFFFC3         3124  4464M
 @FILIOCT      4 00000020 FFFFFFC3     F    3102  4315M
 @FILNAME      8 00000010 FFFFFFC3     C    3100  4268M
 @FILTBLK      4 00000004 FFFFFFC3     A    3097  4265M
 @FILUMAX      4 0000000C FFFFFFC3     A    3099  4267M
 @FMFIFLG      1 00000009 FFFFFFC2     R    3156  3160   3165   3170   3175   3180   3185
 @FMFSB        5 00000000 FFFFFFBF     J    3266  8223U  8231M  8231  10679U 10687M 10687  10775M 10775
 @FMFSBF       1 00000004 FFFFFFBF     R    3253  3257
 @FMFSBP       4 00000000 FFFFFFBF     A    3250  8242M 10698M 10786M
 @FSADDV       8 00000000 FFFFFFBD     J    3343  9846U  9853U
 @FSADDVD      4 00000004 FFFFFFBD     A    3336 10155M 10155  10257
 @FSADDVF      4 00000000 FFFFFFBD     A    3335  9915
 @FSIFSB       4 00000000 FFFFFFAC     A    8594  6696M  8678
 @FSINIT       8 00000000 FFFFFFAC     J    8602  6677U  6685M  6685   8668U  8675U
 @FSIPARM      4 00000004 FFFFFFAC     A    8595  6707M  8874
 @IOSCHID      4 00000000 FFFFFFB7     A    3885  9332M 10407M 10877M 12617M
 @IOSCP        4 00000010 FFFFFFB7     A    3888  9359M 10434M 10904M 12639M
 @IOSDOIO     30 00000000 FFFFFFB7     J    3917  9314U  9322M  9322  10389U 10397M 10397  10864U 10872M 10872  12604U
                                                 12612M 12612
 @IOSFID       4 00000000 FFFFFFB3     A    3996 13244M
 @IOSFSYNC
             128 0000001D FFFFFFB7         3898  9368M 10443M 10913M 12668M
 @IOSFWAIT
             128 00000000 FFFFFFB4         3975  8719M 10116M 12585M
 @IOSF1        1 0000001D FFFFFFB7     R    3894  3898   3903   3908
 @IOSID        4 00000004 FFFFFFB7     A    3886  9337M  9732U  9740M  9740   9745M 10412M 10882M 11110U 11118M 11118
                                                 11123M 12622M
 @IOSIDF       1 00000000 FFFFFFB4     R    3971  3975
 @IOSIDFRE
               4 00000000 FFFFFFB3     J    4003 13231U 13239M 13239
 @IOSIDGET
               1 00000000 FFFFFFB4     J    3984  8705U  8713M 10102U 10110M 12571U 12579M
 @IOSIOTIME
               8 00000008 FFFFFFB5     D    3950 13100  13112  13183  13195
 @IOSKEY       1 0000001C FFFFFFB7     X    3891  9362M 10437M 10907M 12657M 12658M
 @IOSPID       8 00000008 FFFFFFB7     D    3887  9342M 10417M 10887M
 @IOSTID       4 00000000 FFFFFFB5     A    3949 13044M
 @IOSTIME     16 00000000 FFFFFFB5     J    3957 13031U 13039M 13039
 @LOCKFL       1 00000010 FFFFFFD7     R    2395  2399
 @M1FLAG       1 00000025 FFFFFFC5     R    2938  2942   2947   2952
 @M1FR14       4 00000000 FFFFFFC5     A    2921  2925   2925
 @M1FTYPE      1 00000028 FFFFFFC5     R    2962  2971   2981   2991   3001   3011   3021   3031   3041
1FILESERV (FILESE) (09:39) (22MAR04) Ordinary Symbol and Literal Cross Reference                                            Page  100
 @PAGKEY       1 00000008 FFFFFFC9     X    2825  2826
 @PDF1         1 00000009 FFFFFFCD     R    2729  2730   2735
 @RA           0 00000000 FFFFFFFC     @    1035  6896   6999   7091   9085
 @RB           0 00000000 FFFFFFFB     @    1047  4758   4828
 @RJ           0 00000000 FFFFFFFA     @    1059  7936
 @RM           0 00000000 FFFFFFF6     @    1107  4291   4303   4304   4338   4350   4351   8274
 @RS           0 00000000 FFFFFFFD     @    1023  4620
 @RY           0 00000000 FFFFFFF7     @    1095 13525  13555M 13577  13607M
 @R0           0 00000000 FFFFFFFE     @     715   991U
 @R1           0 00000000 FFFFFFFD     @     728   987U  7972U 11321U 11345U 11575U 11599U
 @R10          0 00000000 FFFFFFF4     @     845   951U  4495U  4912U  8418U  9771U 11168U 11505U 11721U 13666U
 @R11          0 00000000 FFFFFFF3     @     858   947U
 @R12          0 00000000 FFFFFFF2     @     871   943U  4490U  4907U  8413U  9766U 11163U 11500U 13661U
 @R13          0 00000000 FFFFFFF1     @     884   939U  4853U  4923U  5398U  5663U  5851U  5954U  6150U  6234U  6430U
                                                  6569U  6674U  6750U  8220U  8429U  8744U  9102U  9311U  9672U  9729U
                                                  9782U 10099U 10180U 10268U 10386U 10676U 10861U 10956U 11107U 11179U
                                                 12331U 12568U 12601U 12915U 13028U 13228U 13261U 13677U
 @R14          0 00000000 FFFFFFF0     @     897   935U  9935  10258
 @R15          0 00000000 FFFFFFEF     @     910   931U 10581  12065U 12459  12506  12545
 @R2           0 00000000 FFFFFFFC     @     741   983U  7893U 13656U
 @R3           0 00000000 FFFFFFFB     @     754   979U  7901U  8121U  9434U 10480U 11490U 13651U
 @R4           0 00000000 FFFFFFFA     @     767   975U  4819U  7909U 11495U
 @R5           0 00000000 FFFFFFF9     @     780   971U  4897U  7917U  8403U  9226U  9617U 11148U 13646U
 @R6           0 00000000 FFFFFFF8     @     793   967U  4480U  4599U  4902U  8408U  9756U 11153U
 @R7           0 00000000 FFFFFFF7     @     806   963U  4152U  4485U  5162U  6498U  9761U  9889U  9913U 11158U 13490U
                                                 13514U
 @R8           0 00000000 FFFFFFF6     @     819   959U  4814U  8320U
 @R9           0 00000000 FFFFFFF5     @     832   955U  6469U  7978U  9232U
 @SBFADR       4 00000004 FFFFFFE8     A    1780 13288M
 @SBFIX       32 00000008 FFFFFFEA         1727  5427M
 @SBFPOO       4 00000000 FFFFFFE8     A    1779 13277M
 @SBFREE       8 00000000 FFFFFFE8     J    1787 13264U 13272M 13272
 @SBGADR       4 00000004 FFFFFFE9     A    1754 12030  12057
 @SBGET       12 00000000 FFFFFFE9     J    1762 12012U 12020M 12020  12047M 12047
 @SBGLHI      64 00000008 FFFFFFEA         1722  5421M  5874M  6173M  6453M
 @SBGPOO       4 00000000 FFFFFFE9     A    1753 12025M 12052M
 @SBICNT       4 00000004 FFFFFFEA     A    1708  5415M  5868M  6167M  6447M
 @SBIFLG       1 00000008 FFFFFFEA     R    1711  1716   1722   1727
 @SBILEN       4 00000000 FFFFFFEA     A    1707  5414M  5867M  6166M  6446M
 @SBINIT       9 00000000 FFFFFFEA     J    1736  5401U  5409M  5409   5854U  5862M  5862   6153U  6161M  6161   6433U
                                                  6441M  6441
 @SDF1         1 00000009 FFFFFFCC     R    2761  2762
 @SWFLG        1 00000004 FFFFFFD0     R    2624  2633   2643   2653
 @VMFLEN       4 00000004 FFFFFFD9     A    2344  4874M  6778M  8167M  9700M 10984M 11058M
 @VMFLOC       4 00000000 FFFFFFD9     A    2343  4885M  6789M  8172M  9711M 10995M 11069M
 @VMFPOOL      2 00000008 FFFFFFD9     H    2345  4886M  6790M  8173M  9712M 10996M 11070M
 @VMFREE      10 00000000 FFFFFFD9     J    2352  4856U  4864M  4864   6753U  6761M  6761   8150M  8150   9675U  9683M
                                                  9683  10959U 10967M 10967  11041M 11041
 @VMGET       11 00000000 FFFFFFDA     J    2331  4637U  4645M  4645   5051U  5059M  5059   5181M  5181   5262M  5262
                                                  6572U  6580M  6580   8747U  8755M  8755   8974M  8974  10000U 10008M
                                                 10008  10183U 10191M 10191
 @VMGFLG       1 0000000A FFFFFFDA     R    2313  2317   2322
 @VMGLEN       4 00000000 FFFFFFDA     A    2308  4655M  5076M  5198M  5272M  6597M  8772M  8991M 10025M 10208M
 @VMGPOOL      2 00000008 FFFFFFDA     H    2310  4656M  5077M  5199M  5273M  6598M  8773M  8992M 10026M 10209M
 @WSFLG        1 0000000C FFFFFFCE     R    2698  2702
 ACCTBL        1 00000B9B 00000001 C   U    8470  7837   8472   8474   8476   8478
 ACCTDATA      1 00000C5C 00000001     X    8471  8470
 ACDSKIO       1 00000000 00000018     T   13712 13712
 BADACC        2 00000C2C 00000001     H    8453  7812B  7829B  7851B  7861B  7871B  7881B  7930B  7951B
1FILESERV (FILESE) (09:39) (22MAR04) Ordinary Symbol and Literal Cross Reference                                            Page  101
 BADFSID       4 00000068 00000001     I    4254  4193B  4226B
 BADPARM       2 00000BFC 00000001     H    8434  6964B
 BL            2 00000002 FFFFFFBB A   N    3416  3418   3418
 BR           10 0000000A FFFFFFFF A   #    1136  4099M  4109U  4545M  4555U  5004M  5014U  8642M  8652U  9820M  9830U
                                                 11221M 11231U 11534M 11544U 11771M 11781U
 CAOPEN        1 00000000 00000006     T    8520  8520
 CAREAD        1 00000000 00000013     T   13706 13706
 CAWRITE       1 00000000 00000015     T   13709 13709
 CFSBBUF       8 00000008 FFFFFFBB A   N    3533  8528
 CHOPEN        1 00000000 00000005     T    8517  8517
 CHREAD        1 00000000 00000012     T   13705 13705
 CHWRITE       1 00000000 00000014     T   13708 13708
 CTBITD        8 00000010 FFFFFFBB A   U    3622 13631
 CTBITRCT      8 00000150 FFFFFFBB     D    3612  3622
 CTCACHCT      8 000001A0 FFFFFFBB     D    3641  3651
 CTCATD        8 00000008 FFFFFFBB A   U    3621 13630
 CTCATRCT      8 00000148 FFFFFFBB     D    3611  3621
 CTIXRD        8 00000018 FFFFFFBB A   U    3623 13632  13633  13634  13635
 CTIXRRCT      8 00000158 FFFFFFBB     D    3613  3623
 CTMASD        8 00000000 FFFFFFBB A   U    3620 13629
 CTMASRCT      8 00000140 FFFFFFBB     D    3610  3620
 CTOTHD        8 00000028 FFFFFFBB A   U    3625 13638
 CTOTHRCT      8 00000168 FFFFFFBB     D    3615  3625
 CTREADCT      8 00000140 FFFFFFBB     D    3609  3620   3621   3622   3623   3624   3625   3649   3654   3654   3655
                                                  3655
 CTUSED        8 00000020 FFFFFFBB A   U    3624 13636
 CTUSERCT      8 00000160 FFFFFFBB     D    3614  3624
 CTWRITCT      8 00000170 FFFFFFBB     D    3629  3650
 DALAINFO     96 00000010 FFFFFFAB     X    8616  8620   8620   8838U 10325U
 DALCLR      128 00000010 FFFFFFAB     A    8620  8956M  8956  10086M 10086
 DALFIO       12 00000000 FFFFFFAB     X    8614  8831U 10318U 10849U
 DALOINFO     32 00000070 FFFFFFAB     X    8618  8845U 10332U
 DSDCHID       4 00000004 FFFFFFB9     A    3832  9298M 10373M 10877  12617
 DSDCNT        4 0000000C FFFFFFB9     A    3834  9424M 10472M 10506  10580  10666  10764  12090  12099
 DSDDSN       44 00000020 FFFFFFB9     C    3839  9053M  9054   9054M  9054   9085M  9118   9248   9391   9396  10258M
                                                 10284  10339  11391  11460  13688
 DSDEDIT       4 00001568 00000001     I   11220 11231U 13689
 DSDEDIT6      2 0000155C 00000001     H   11215 11214
 DSDHDR        2 0000001E FFFFFFB9     H    3838  9511M 10502M 10557  10557  12144  12747
 DSDICNT       4 00000018 FFFFFFB9     A    3836 13134  13145M
 DSDLEN        2 0000001C FFFFFFB9     H    3837  9510M 10501M 10524  10524
 DSDNXT        4 00000000 FFFFFFB9     A    3831  8855   9208M 10665M 10751  10758  10817M 10817  11405  11474  12109
 DSDSTART      4 00000008 FFFFFFB9     A    3833  9422M 10505  10507M
 DSDTIME       8 00000010 FFFFFFB9     D    3835 13166  13196M
 EPAR         15 0000000F FFFFFFFF A   #    1196  4099   4545   4659M  4660B  4889M  4890B  5004   5080M  5081B  5202M
                                                  5203B  5276M  5277B  5430M  5431B  5704M  5705B  5793M  5794B  5877M
                                                  5878B  6000M  6001B  6093M  6094B  6176M  6177B  6280M  6281B  6373M
                                                  6374B  6456M  6457B  6601M  6602B  6715M  6716B  6793M  6794B  6963M
                                                  7938M  7958   8176M  8177B  8245M  8246B  8249M  8250B  8253M  8254B
                                                  8381M  8382B  8391M  8392B  8395M  8396B  8642   8722M  8723B  8776M
                                                  8777B  8995M  8996B  9124M  9125B  9156M  9157B  9371M  9372B  9715M
                                                  9716B  9748M  9749B  9820  10029M 10030B 10119M 10120B 10212M 10213B
                                                 10290M 10291B 10446M 10447B 10701M 10702B 10789M 10790B 10916M 10917B
                                                 10999M 11000B 11073M 11074B 11126M 11127B 11221  11534  11771  12028M
                                                 12029B 12055M 12056B 12394M 12395B 12414M 12415B 12588M 12589B 12671M
                                                 12672B 12978M 12979B 12998M 12999B 13047M 13048B 13247M 13248B 13291M
                                                 13292B 13391M 13392B
 FBHBLOCK      3 00000000 FFFFFFBC     R    3359 12167M
 FBHDR        20 00000000 FFFFFFBC     J    3386  3378   9449  10495  11832U 12068
1FILESERV (FILESE) (09:39) (22MAR04) Ordinary Symbol and Literal Cross Reference                                            Page  102
 FBHLEN        2 00000006 FFFFFFBC     R    3375 12169M 12435  12781
 FBHTBICA      1 000000C0 FFFFFFBC A   U    3371  3372
 FBHTBIT       1 00000040 FFFFFFBC A   U    3364  3371  13631
 FBHTCAT       1 00000080 FFFFFFBC A   U    3363  3371  13630
 FBHTFSMB      1 000000FF FFFFFFBC A   U    3362 12832  13629
 FBHTIME       4 00000008 FFFFFFBC     R    3376 12171M
 FBHTIXR       1 00000008 FFFFFFBC A   U    3366  3370  13632
 FBHTIXRT      1 0000001E FFFFFFBC A   U    3370  3372
 FBHTMIXR      1 00000002 FFFFFFBC A   U    3368  3370  13634
 FBHTSIXR      1 00000004 FFFFFFBC A   U    3367  3370  13633
 FBHTSYSR      1 000000DE FFFFFFBC A   U    3372 12863  13353
 FBHTUSER      1 00000001 FFFFFFBC A   U    3369 13382  13636
 FBHTYPE       1 00000003 FFFFFFBC     R    3360 12168M 12436  12782  13439
 FBHTZIXR      1 00000010 FFFFFFBC A   U    3365  3370  13635
 FBITADDV      1 00000000 0000000F     T   13698 13698
 FBITINIT      1 00000000 00000009     T    8533  8533
 FBITREMV      1 00000000 00000010     T   13700 13700
 FCATINIT      1 00000000 00000008     T    8532  8532
 FDOCNT        1 00000008 00000001 A   U   13637 13425
 FDOIOBLK      2 00001B2E 00000001     H   13301 12162B 12439B 12785B
 FDOIOCTB      2 00001B92 00000001     H   13423 12438B 12784B 12802B
 FDOIODO       4 00001672 00000001     I   11770 11765  11781U
 FDOIODOA      2 00001B62 00000001     H   13405 13356B
 FDOIODOE      2 00001AFE 00000001     H   13218 12701B
 FDOIODOX      2 00001B10 00000001     H   13251 12440B
 FDOTAB        1 00001C10 00000001     R   13629 13424  13637
 FIKEY2        8 0000000C FFFFFFAE     C    4981  6544M  6550M  6551M
 FILBFHCA    128 00000014 FFFFFFBA         3696  5586M  5603   8047   8091
 FILBFLAG      1 00000014 FFFFFFBA     R    3692  3696   3701
 FILBNOTD     64 00000014 FFFFFFBA         3701  5507M  5684   5773   5975   6068   6255   6348
 FILEBLKI      4 00000022 00000001     I    4098  4093   4109U
 FILEBW        8 00000038 FFFFFFBA     D    3717  6474
 FILECB      344 00000000 FFFFFFBA     J    3818  4163U  4610U  5071   5126U  5136M  5136   5137M  5137   9900U 11332U
                                                 11586U 13501U
 FILEDAL     144 00000000 FFFFFFAB     J    8627  8767   8822U  9695  10020  10076U 11053
 FILEDSD      76 00000000 FFFFFFB9     J    3846  8855   8986   9041U  9051M  9051   9203U  9244U 10132U 10140U 10203
                                                 10256M 10256  10718  10718  10835  10835  10979  11261U 11856U
 FILEFFSB      4 00000008 FFFFFFBA     A    3684  4167   4765   6503   8181   9905  11338  11592
 FILEFSBC      4 0000000C FFFFFFBA     A    3685  4617   4760   8129M  9906
 FILEFSGT      4 00000010 FFFFFFBA     A    3686  5314M  7937
 FILEID        8 00000000 FFFFFFBA     C    3682  5138M
 FILEINIT      4 00000298 00000001     I    5003  4998   5014U
 FILEIOP       4 00000030 FFFFFFBA     A    3712  5432M  8115
 FILESE        1 00000000 00000001     R    1231  1229
 FILESERV      1 00000000 00000001     J    1222  1219   1220   1224   1330   1411   1538   1595   1737   1763   1788
                                                  1814   1850   1873   1894   1928   1954   2048   2173   2207   2228
                                                  2252   2271   2290   2332   2353   2374   2409   2428   2453   2487
                                                  2507   2536   2600   2663   2682   2712   2745   2772   2792   2812
                                                  2834   2855   2874   2894   3051   3079   3134   3196   3219   3238
                                                  3267   3324   3344   3387   3666   3819   3847   3873   3918   3938
                                                  3958   3985   4004   4036   4071   4075   4532
 FILE2KCH      4 00000018 FFFFFFBA     A    3705  5706M  6002M  8064
 FILE2KCS      4 0000001C FFFFFFBA     A    3706  5795M  6095M  8066
 FILE2KRB      4 00000028 FFFFFFBA     A    3710  5879M  6178M  8065
 FILE4KCH      4 00000020 FFFFFFBA     A    3707  5707M  6282M  8108
 FILE4KCS      4 00000024 FFFFFFBA     A    3708  5796M  6375M  8110
 FILE4KRB      4 0000002C FFFFFFBA     A    3711  5880M  6458M  8109
 FILHDR       32 00000028 FFFFFFB8     X    3860 11832U 12746  13693
 FILIOP       88 00000000 FFFFFFB8     J    3872  8514  11816U
1FILESERV (FILESE) (09:39) (22MAR04) Ordinary Symbol and Literal Cross Reference                                            Page  103
 FILIST        8 00000048 FFFFFFB8     D    3861 12502
 FILISTA1      4 00000048 FFFFFFB8     A    3862 12507M 12528M
 FILISTA2      4 00000050 FFFFFFB8     A    3864 12546M 12549M
 FILISTL1      4 0000004C FFFFFFB8     F    3863 12527M 12544M
 FILISTL2      4 00000054 FFFFFFB8     F    3865 12548M
 FILMTIME      8 00000048 FFFFFFBA     D    3727  4744   4745M  4746
 FILPARM      40 00000000 FFFFFFB8     X    3859 11825U
 FILSMF        4 00000122 00000001     I    4544  4539   4555U
 FILTEMPF      4 00000034 FFFFFFBA     A    3714  7673M  7673   7701M
 FIPARMS     108 00000000 FFFFFFAE     J    4990  5193   5331U  6532U  8162   8884U
 FISTR        80 0000001C FFFFFFAE     C    4983  5450   5457   5493   5529   5536   5572   6830   6837   6926   6933
                                                  7025   7032   7295   7302   7338   7374   7381   7417   7453   7460
                                                  7496   7532   7539   7575   7611   7618   7654   7758   7765   7826
                                                  7835M  7835   7836M  7837M  7848   7858   7868   7878   7892   7900
                                                  7908   7916   8910   8917
 FITYPE        4 00000000 FFFFFFAE     X    4979  5341U  6542U  8894U
 FMANINIT      1 00000000 00000007     T    8531  8531
 FMANTDIN      1 00000000 0000000A     T    8534  8534
 FSADDVOC      2 000014AC 00000001     H   10842 10650B
 FSADDVOL      4 000011B2 00000001     I    9819  9814   9830U
 FSADDVOX      2 000014E4 00000001     H   10920  9976B 10307B 10368B 10463B 10719B 10806B
 FSB         480 00000000 FFFFFFBB     J    3665  4177U  4782U  6503   6592   6647U  6652   6773   7966   7990U  7999U
                                                  8191U  8688U  9925U 11274U 11608U 11843U
 FSBABLK       4 000000DC FFFFFFBB     A    3571  4266
 FSBAFLGS      1 00000009 FFFFFFBB     R    3433  3437   3442   3447   3452   3457   3462
 FSBANAVL    128 00000009 FFFFFFBB         3437  4372   9647M 11654
 FSBARO       64 00000009 FFFFFFBB         3442  4398   8343M 11693
 FSBBALST      1 000000AC FFFFFFBB     X    3545  3564
 FSBBID        4 00000000 FFFFFFBB     C    3425  6807M  6807M  8692M
 FSBBITBC      4 000000D8 FFFFFFBB     A    3570 10622
 FSBBLKTOP
               4 0000005C FFFFFFBB     A    3534  7152M  7227M
 FSBBMCNO      2 000000D0 FFFFFFBB     Y    3568  7235M  7273M
 FSBCACHE      4 00000030 FFFFFFBB     A    3516  8064M  8108M 12239  12887
 FSBCACHS      4 00000034 FFFFFFBB     A    3517  8066M  8110M 12303  12870
 FSBCHAIN      4 00000004 FFFFFFBB     A    3427  4232   4802   6503   8004M  8352   9950  11411  11709
 FSBDBLK       4 000000E4 FFFFFFBB     A    3573  7106M  7143M
 FSBDDN        4 00000014 FFFFFFBB     C    3508  7010M  7091M  8525
 FSBDSZ        2 000000AC FFFFFFBB     Y    3546  4452   8032   9523M  9523   9530M  9582  10587  12031
 FSBFCACHE
              64 0000000B FFFFFFBB         3497  4424   7589M 12205  12819
 FSBFCACN      1 00000006 FFFFFFBB A   U    3653  4317
 FSBFCACT      8 000001A0 FFFFFFBB     D    3640  3653   3653   4316
 FSBFIOCN      1 0000000C FFFFFFBB A   U    3636  4270
 FSBFIOCT      8 00000140 FFFFFFBB     D    3608  3636   3636   3649   3650   3651   4269   4304   4351  13575
 FSBFRDB       4 0000000C FFFFFFBB     A    3506  8855  10736  11363  11432  12071
 FSBHCACHE
              32 0000000B FFFFFFBB         3502  8059M  8103M 12385  12969
 FSBID         1 00000008 FFFFFFBB     X    3429  6806M  7957  12064
 FSBINIT      32 00000009 FFFFFFBB         3447  6663M  8210M  8261M
 FSBIOCT       4 00000114 FFFFFFBB     F    3589  4799  13051  13062M
 FSBIOP        4 00000040 FFFFFFBB     A    3520  8115M 12052  13277
 FSBIOTIM      8 00000118 FFFFFFBB     D    3590  4800  13083  13113M
 FSBLRDB       4 00000010 FFFFFFBB     A    3507  9652M 10504  10664M 10737  10818M
 FSBNAME       8 00000018 FFFFFFBB     C    3509  4268   6911M  6999M  7713   8266   8273   8296   8524   9935  10713
                                                 10713  10830  10830
 FSBOFLGS      1 0000000B FFFFFFBB     R    3488  3492   3497   3502
 FSBONIXR    128 0000000B FFFFFFBB         3492  7510M
 FSBOWNER      6 00000020 FFFFFFBB     C    3510  6815M  6896M  8523
1FILESERV (FILESE) (09:39) (22MAR04) Ordinary Symbol and Literal Cross Reference                                            Page  104
 FSBRBT        4 0000002C FFFFFFBB     A    3515  8065M  8109M 12025
 FSBSABRO     64 0000000A FFFFFFBB         3477  7431M 11675
 FSBSFLGS      1 0000000A FFFFFFBB     R    3468  3472   3477   3482
 FSBSPROD    128 0000000A FFFFFFBB         3472  7352M 11639
 FSBSTEMP     32 0000000A FFFFFFBB         3482  7725M
 FSBTBLK       4 000000E0 FFFFFFBB     A    3572  4265   6728M  6728   9623M
 FSINIT        4 00000E10 00000001     I    8641  6715   8652U
 FSINIT6       2 00000E04 00000001     H    8636  8635
 HIBAL         1 00000000 FFFFFFFF     J     700   716    729    742    755    768    781    794    807    820    833
                                                   846    859    872    885    898    911   1012   1024   1036   1048
                                                  1060   1072   1084   1096   1108   1120   1132   1144   1156   1168
                                                  1180   1192   1204
 IOSDOIO       1 00000000 0000000D     T   13690 13690
 IOSIDFRE      1 00000000 0000000E     T   13696 13696
 IOSIDGET      1 00000000 0000000C     T   13685 13685
 IOSTIME       1 00000000 00000016     T   13710 13710
 MAT         256 00000000 FFFFFFED     J    1410  4140U  4586U  5149U  6485U  8307U  9876U 11308U 11562U 13477U
 MATFILCB      4 00000028 FFFFFFED     A    1371  4145   4592   5155M  9882  11314  11568  13483
 MATPTR        4 00000200 FFFFFFED A   A    1357  4130   4576   5139   6475   8297   9866  11298  11552  13467
 MATSBWB       4 00000020 FFFFFFED     A    1369  6491M
 MATSNAME      8 000000D4 FFFFFFED     C    1388  4591   8313
 M1GOSTAT      1 00000000 0000000B     T    8536  8536
 OL            2 00000002 FFFFFFBB A   N    3417  3418   3418
 PARMFINT      4 00000000 FFFFFFD1         2568  5352M  5618M  5717M  5806M  5908M  6012M  6105M  6188M  6292M  6385M
                                                  7113M  7159M  7242M
 PARMFSTR      0 00000000 FFFFFFD1         2558  6822M  6918M  7017M  7750M  8902M
 PARMFYN       8 00000000 FFFFFFD1         2578  5442M  5521M  7287M  7366M  7445M  7524M  7603M
 PARMIN        4 00000000 FFFFFFD1     J    2599  4979   5341U  5361   5368   5464   5471   5543   5550   5626   5633
                                                  5725   5732   5814   5821   5917   5924   6020   6027   6113   6120
                                                  6197   6204   6300   6307   6393   6400   6542U  6844   6851   6940
                                                  6947   7039   7046   7121   7128   7167   7174   7250   7257   7309
                                                  7316   7388   7395   7467   7474   7546   7553   7625   7632   7772
                                                  7779   8894U  8924   8931
 PARMKEYS      4 00000004 FFFFFFD1     A    2592  5353M  5354M  5443M  5522M  5619M  5718M  5807M  5909M  5910M  6013M
                                                  6106M  6189M  6190M  6293M  6386M  6823M  6919M  7018M  7114M  7160M
                                                  7243M  7288M  7367M  7446M  7525M  7604M  7751M  8903M
 PARMTYPE      1 00000000 FFFFFFD1     R    2549  2558   2568   2578   2588
 PREV                     00000001 A   U    7999  8004
 PREV                     00000001 A   U    9203  9208
 PREV                     00000001 A   U   10140 10505  10506  10524  10557  10665  10751  10758  10817  10817
 PZABORT     128 0000021A FFFFFFEE         1310  4684M  5105M  5228M  5302M  6626M  7689M  8442M  8461M  8801M  9020M
                                                  9186M  9286M  9406M  9498M  9597M 10054M 10237M 11937M 11991M 12126M
                                                 12716M 13413M
 PZABR15       4 0000021C FFFFFFEE     A    1319  4685M  5106M  5229M  5303M  6627M  7690M  8443M  8462M  8802M  9021M
                                                  9187M  9287M  9407M  9499M  9598M 10055M 10238M 11938M 11992M 12127M
                                                 12717M 13414M
 PZABSM        1 0000021B FFFFFFEE     X    1318  4678M  5099M  5222M  5296M  6620M  7683M  8436M  8455M  8795M  9014M
                                                  9180M  9280M  9400M  9492M  9591M 10048M 10231M 11931M 11985M 12120M
                                                 12710M 13407M
 PZCURASB      4 00000208 FFFFFFEE     A    1295 11861
 PZCURPID      8 00000208 FFFFFFEE     D    1294  9342  10417  10887
 PZERO       640 00000000 FFFFFFEE     J    1329  1339U 13465U
 PZLCPUA       4 00000210 FFFFFFEE     A    1297  4686   5107   5230   5304   6628   7691   8444   8463   8803   9022
                                                  9188   9288   9408   9500   9599  10056  10239  11939  11993  12128
                                                 12718  13415
 PZTERMFL      1 0000021A FFFFFFEE     R    1306  1310   1315
 RA            2 00000002 FFFFFFFF A   #    1028  4746M  4748M  4750M  4751M  4752M  4826M  4832   5315M  5317M  5371
                                                  5384M  5415   5450M  5457M  5474   5529M  5536M  5553   5636   5649M
                                                  5701   5735   5748M  5790   5824   5837M  5868   5927   5940M  5992
1FILESERV (FILESE) (09:39) (22MAR04) Ordinary Symbol and Literal Cross Reference                                            Page  105
                                                  6030   6043M  6085   6123   6136M  6167   6207   6220M  6272   6310
                                                  6323M  6365   6403   6416M  6447   6545M  6548M  6549   6651M  6657M
                                                  6805M  6806   6807   6810M  6811   6830M  6837M  6854   6926M  6933M
                                                  6950   7025M  7032M  7049   7131   7143   7177   7191   7203M  7210
                                                  7222M  7227   7260   7273   7295M  7302M  7319   7374M  7381M  7398
                                                  7453M  7460M  7477   7532M  7539M  7556   7611M  7618M  7635   7758M
                                                  7765M  7782   7892M  7894M  7902M  7927   7937M  7938   7942M  7958M
                                                  7960M  8198M  8198   8351M  8910M  8917M  8934   9362   9421M  9422
                                                  9425M  9426   9427M  9450M  9468   9482   9510   9530   9582  10437
                                                 10473M 10496M 10501  10907  11816U 12057M
 RAR          14 0000000E FFFFFFFF A   #    1184  4500B  4660M  4890M  4917B  5081M  5203M  5277M  5431M  5705M  5794M
                                                  5878M  6001M  6094M  6177M  6281M  6374M  6457M  6602M  6716M  6794M
                                                  8177M  8246M  8250M  8254M  8382M  8392M  8396M  8423B  8723M  8777M
                                                  8996M  9125M  9157M  9372M  9716M  9749M  9776B 10030M 10120M 10213M
                                                 10291M 10447M 10702M 10790M 10917M 11000M 11074M 11127M 11173B 11510B
                                                 11726B 12029M 12056M 12395M 12415M 12589M 12672M 12979M 12999M 13048M
                                                 13248M 13292M 13392M 13671B
 RB            3 00000003 FFFFFFFF A   #    1040  4746M  4753   4757M  4758M  4759   4827M  4828M  4829M  4832   4836M
                                                  5244M  6652M  6868   6880M  6887M  6889   6971   6983M  6990M  6992
                                                  7063   7075M  7082M  7084   7809   7900M  7902   7939M  7959M  7966M
                                                  7990U  8004   8016   9057   9069M  9076M  9078   9258M  9261   9270M
                                                  9270   9298   9423M  9424   9425   9433M  9443M  9443   9449M  9450
                                                  9511   9572   9622M  9623   9635  10349M 10352  10361M 10361  10373
                                                 10471M 10472  10479M 10489M 10489  10495M 10496  10502  11274U 11291M
                                                 11292M 11292  11338M 11357M 11357  11411M 11843U 11888M
 RJ            4 00000004 FFFFFFFF A   #    1052  4765M  4782U  4802M  5317M  5361M  5368M  5371   5464M  5471M  5474
                                                  5543M  5550M  5553   5626M  5633M  5636   5725M  5732M  5735   5814M
                                                  5821M  5824   5917M  5924M  5927   6020M  6027M  6030   6113M  6120M
                                                  6123   6197M  6204M  6207   6300M  6307M  6310   6393M  6400M  6403
                                                  6657M  6844M  6851M  6854   6940M  6947M  6950   7039M  7046M  7049
                                                  7121M  7128M  7131   7167M  7174M  7177   7250M  7257M  7260   7309M
                                                  7316M  7319   7388M  7395M  7398   7467M  7474M  7477   7546M  7553M
                                                  7556   7625M  7632M  7635   7772M  7779M  7782   7908M  7910M  7918M
                                                  7927M  7936M  7939   7942M  7959   7960M  7994M  8924M  8931M  8934
                                                  9198M 10504M 10736M 10758M 10818  11261U 11363M 11374M 11374  11405M
                                                 11432M 11443M 11443  11474M
 RK            5 00000005 FFFFFFFF A   #    1064  4668M  4705U  5316M  6503M  6504   6656M  6656   7916M  7918   7940M
                                                  7957M  8181M  8191U  8352M  8366M  8366   8848M  8849   8850M  8851
                                                  8855M  8856   9004M  9041U  9208   9220   9244U 10132U 10221M 10249
                                                 10664  10665  10737M 10751  10819  11856U 12071M 12109M 12110M 12110
 RM            8 00000008 FFFFFFFF A   #    1100  4269M  4304M  4316M  4351M  4766M  4795U  4801M  8273M  8297M  8307U
                                                  8313M  8325  12437M 12783M 12801M 13466M 13507  13575
 RN            9 00000009 FFFFFFFF A   #    1112  4270M  4317M  5321M  5331U  6522M  6532U  8322M  8874M  8884U  9975M
                                                 10306M 10367M 10462M 10511M 10511  10531M 10564M 10629M 10647M 10647
                                                 10805M 11132  12438M 12784M 12802M 13627B
 RS            1 00000001 FFFFFFFF A   #    1016  4181M  4190M  4190   4209M  4209   4234M  4617M  4618M  4619   4620M
                                                  4760M  4761   6610M  6647U  7701   8266M  8273   8290M 10335M 10336
                                                 10337M 10338  11298M 11308U 11314M 11332U 11552M 11562U 11568M 11586U
                                                 11592M 11608U 11624M 11624  11709M 12162M 12239M 12286M 12286  12303M
                                                 12316M 12316  12439M 12785M 12842M 12842  12870M 12887M 12900M 12900
                                                 13401B 13424M 13439  13448M 13448  13464
 RVR           0 00000000 FFFFFFFF A   #    1004  4254M  4274M  4274   4291M  4298M  4303M  4321M  4321   4338M  4345M
                                                  4350M  4473M  4473   4668   5071M  5089   5193M  5212M  5212   5240
                                                  5286M  5286   5314   5315   5432   5706   5707   5795   5796   5879
                                                  5880   6002   6095   6178   6282   6375   6458   6592M  6610   6651
                                                  6773M  7797M  7818M  7838M  7919M  7941M  8162M  8296M  8325   8724
                                                  8767M  8785   8986M  9004   9134M  9134   9170M  9170   9354M  9381M
                                                  9381   9695M 10020M 10038  10121  10203M 10221  10300M 10300  10429M
                                                 10456M 10456  10587M 10588  10666M 10764M 10799M 10799  10899M 10979M
1FILESERV (FILESE) (09:39) (22MAR04) Ordinary Symbol and Literal Cross Reference                                            Page  106
                                                 11053M 11132M 11281M 11281  11397M 11466M 11613M 11613  11661M 11700M
                                                 12428M 12428  12590  12634M 12674  12683M 12683  13294M
 RX            6 00000006 FFFFFFFF A   #    1076  4167M  4177U  4223M  4223   4232M  4248M  4248   4576M  4586U  4592M
                                                  4610U  5089M  5126U  5155   8785M  8822U 10038M 10066  10076U 12656M
                                                 12657
 RY            7 00000007 FFFFFFFF A   #    1088  4130M  4140U  4145M  4163U  5139M  5149U  6475M  6485U  8678M  8688U
                                                  9866M  9876U  9882M  9900U  9905M  9925U  9950M 12655M 12656  13467M
                                                 13477U 13483M 13501U 13507M 13575M
 R0            0 00000000 FFFFFFFF A   #     708  1339U  4098   4362   4544   5003   8641   9819   9906M  9969M  9969
                                                 11220  11533  11770  11862M 12471M 12472M 12472  12521  12527  12547M
                                                 12548  12744M 12749M 13090M 13100M 13107M 13112M 13113  13173M 13183M
                                                 13190M 13195M 13196  13425M 13464M 13466  13532M 13542M 13549M 13554M
                                                 13555  13584M 13594M 13601M 13606M 13607
 R1            1 00000001 FFFFFFFF A   #     721  4276M  4276   4315   4323M  4323   4362   4498M  4915M  8421M  9774M
                                                 11171M 11508M 11724M 12506M 12507  12545M 12546  12745M 13091M 13174M
                                                 13533M 13585M 13669M
 R14          14 0000000E FFFFFFFF A   #     890  9915M 10257M 10586M 10586  10588M 10597M 10597  11871  11879  12353M
                                                 12355  12510M 12511M 12521  12544  12547  12746M 12749M 12937M 12939
                                                 13051M 13058  13062M 13083M 13090  13113M 13134M 13141  13145M 13166M
                                                 13173  13196M 13525M 13532  13555M 13577M 13584  13607M
 R15          15 0000000F FFFFFFFF A   #     903  4098   4498M  4544   4685   4686M  4687M  4688M  4689M  4690M  4690
                                                  4915M  5003   5106   5107M  5108M  5109M  5110M  5111M  5111   5229
                                                  5230M  5231M  5232M  5233M  5234M  5234   5303   5304M  5305M  5306M
                                                  5307M  5308M  5308   6474M  6491   6627   6628M  6629M  6630M  6631M
                                                  6632M  6632   7690   7691M  7692M  7693M  7694M  7695M  7695   8421M
                                                  8443   8444M  8445M  8446M  8447M  8448M  8448   8462   8463M  8464M
                                                  8465M  8466M  8467M  8467   8641   8802   8803M  8804M  8805M  8806M
                                                  8807M  8807   9021   9022M  9023M  9024M  9025M  9026M  9026   9187
                                                  9188M  9189M  9190M  9191M  9192M  9192   9287   9288M  9289M  9290M
                                                  9291M  9292M  9292   9407   9408M  9409M  9410M  9411M  9412M  9412
                                                  9499   9500M  9501M  9502M  9503M  9504M  9504   9598   9599M  9600M
                                                  9601M  9602M  9603M  9603   9774M  9819  10055  10056M 10057M 10058M
                                                 10059M 10060M 10060  10238  10239M 10240M 10241M 10242M 10243M 10243
                                                 10505M 10506M 10507  10580M 10581M 10582M 10606M 10622  11171M 11220
                                                 11508M 11533  11724M 11770  11861M 11938  11939M 11940M 11941M 11942M
                                                 11943M 11943  11992  11993M 11994M 11995M 11996M 11997M 11997  12064M
                                                 12066  12068M 12069  12072M 12090  12099M 12127  12128M 12129M 12130M
                                                 12131M 12132M 12132  12143  12144M 12145  12165M 12166  12191M 12192
                                                 12354M 12355  12458M 12459M 12460  12502M 12503  12505M 12508M 12509M
                                                 12510  12717  12718M 12719M 12720M 12721M 12722M 12722  12747M 12748
                                                 12938M 12939  13058M 13061M 13062  13083M 13091  13141M 13144M 13145
                                                 13166M 13174  13414  13415M 13416M 13417M 13418M 13419M 13419  13525M
                                                 13533  13577M 13585  13669M
 R3            3 00000003 FFFFFFFF A   #     747 11862M 11871  11879
 R9            9 00000009 FFFFFFFF A   #     825  1216
 SBUFGET       1 00000000 00000011     T   13702 13702
 SBUFINIT      1 00000000 00000004     T    8515  8515
 SBUFREE       1 00000000 00000017     T   13711 13711
 SMFCAT        4 00000010 FFFFFFD5     C    2444  4730M
 SMFFFILE      8 00000028 FFFFFFD4     X    2479  4758   4934
 SMFFGEN       8 00000020 FFFFFFD4     X    2473  4933   4935
 SMFFGLEN      4 00000020 FFFFFFD4     A    2471  2473   2473   4743M
 SMFFGLOC      4 00000018 FFFFFFD4     A    2466  4738M
 SMFFILE      48 00000000 FFFFFFD4     J    2486  4620   4705U  4766   4766   4826   4828   4933   4934
 SMFFLEN       4 00000028 FFFFFFD4     A    2477  2479   2479   4759M
 SMFFLOC       4 0000001C FFFFFFD4     A    2467  4739M
 SMFFNFS       4 0000002C FFFFFFD4     A    2478  4761M
 SMFFPFX      24 00000000 FFFFFFD4     X    2465  4717U  4728M  4728
 SMFFSDAT      8 00000000 FFFFFFD3     J    2506  4795U  4801   4801   4938
1FILESERV (FILESE) (09:39) (22MAR04) Ordinary Symbol and Literal Cross Reference                                            Page  107
 SMFFSIOC      4 00000000 FFFFFFD3     A    2498  4799M
 SMFFSTIM      4 00000004 FFFFFFD3     A    2499  4800M
 SMFFTIME      4 00000024 FFFFFFD4     A    2472  4753M
 SMFNSEG       4 00000014 FFFFFFD5     A    2445  4731M
 SMFNUM        1 000000B7 FFFFFFD5 A   U    2440  4940
 SMFPFX       24 00000000 FFFFFFD5     J    2452  2465   4717U
 SMFSYSTM      8 00000008 FFFFFFD5     C    2443  4729M
 SPR          13 0000000D FFFFFFFF A   #    1172  4098   4113   4114   4129M  4544   4559   4560   4575M  4637U  4856U
                                                  5003   5018   5019   5034M  5051U  5401U  5666U  5854U  5957U  6153U
                                                  6237U  6433U  6572U  6677U  6753U  8223U  8641   8656   8657   8677M
                                                  8705U  8747U  9105U  9314U  9675U  9732U  9819   9834   9835   9855M
                                                 10000U 10102U 10183U 10271U 10389U 10679U 10864U 10959U 11110U 11220
                                                 11235  11236  11251M 11533  11548  11549  11551M 11770  11785  11786
                                                 11806M 12012U 12334U 12571U 12604U 12918U 13031U 13231U 13264U
 STATFS        4 00001604 00000001     I   11533  8535  11528  11544U
 TTBITRCT      8 00000060 FFFFFFBA     D    3737  3747
 TTCACHCT      8 000000B0 FFFFFFBA     D    3764  3776
 TTCATRCT      8 00000058 FFFFFFBA     D    3736  3746
 TTFCACH       8 00000060 FFFFFFBA A   U    3776 12437
 TTFILECT    144 00000050 FFFFFFBA     U    3771  3774   3775   3776  13507
 TTFREAD       8 00000000 FFFFFFBA A   U    3774 12783
 TTFWRIT       8 00000030 FFFFFFBA A   U    3775 12801
 TTIXRRCT      8 00000068 FFFFFFBA     D    3738  3748
 TTMASRCT      8 00000050 FFFFFFBA     D    3735  3745
 TTOTHRCT      8 00000078 FFFFFFBA     D    3740  3750
 TTREADCT      8 00000050 FFFFFFBA     D    3734  3745   3746   3747   3748   3749   3750   3771   3771   3772   3772
                                                  3774
 TTUSERCT      8 00000070 FFFFFFBA     D    3739  3749
 TTWRITCT      8 00000080 FFFFFFBA     D    3754  3775
 VMFREE        1 00000000 00000003     T    4936  4936   8522  13695
 VMGET         1 00000000 00000002     T    4930  4930   8511  13686
 WAR          12 0000000C FFFFFFFF A   #    1160  4113   4114M  4115   4125U  4129   4498   4499   4559   4560M  4561
                                                  4571U  4575   4915   4916   5018   5019M  5020   5030U  5034   8421
                                                  8422   8656   8657M  8658   8668U  8677   9774   9775   9834   9835M
                                                  9836   9846U  9855  11171  11172  11235  11236M 11237  11247U 11251
                                                 11508  11509  11548  11549M 11550  11551  11724  11725  11785  11786M
                                                 11787  11797U 11806  13669  13670
 =A(#FCCLOSE)
               4 00001CB4 00000001     A   13701 10851
 =A(#FCOPEN)
               4 00001C64 00000001     A   13687  8847  10334
 =A(#FCREAD)
               4 00001CC0 00000001     A   13704 12189
 =A(#FCWRITE)
               4 00001CBC 00000001     A   13703 12163
 =A(CFSBBUF)
               4 00000DBC 00000001     A    8528  7210   7222
 =A(DSDEDIT)
               4 00001C6C 00000001     A   13689  9124   9156  10290
 =A(L'DSDDSN)
               4 00001C68 00000001     A   13688  9057   9069
 =A(L'FILHDR)
               4 00001C7C 00000001     A   13693  9572
 =A(L'FILIOP)
               4 00000D84 00000001     A    8514  5414
 =A(L'FSBDDN)
               4 00000DB0 00000001     A    8525  7063   7075
 =A(L'FSBNAME)
               4 00000DAC 00000001     A    8524  6971   6983
1FILESERV (FILESE) (09:39) (22MAR04) Ordinary Symbol and Literal Cross Reference                                            Page  108
 =A(L'FSBOWNER)
               4 00000DA8 00000001     A    8523  6868   6880
 =A(L'SMFFGEN)
               4 0000027C 00000001     A    4935  4743
 =A(SMFFFILE-SMFFILE)
               4 00000278 00000001     A    4934  4739
 =A(SMFFGEN-SMFFILE)
               4 00000274 00000001     A    4933  4738
 =A(STATFS)
               4 00000DD8 00000001     A    8535  8391
 =A(1)         4 00000264 00000001     A    4929  4298   4345
 =A(1)         4 00000DA0 00000001     A    8521  6548   6810   8351
 =A(1)         4 00001C8C 00000001     A   13697 10606  13061  13107  13144  13190  13549  13601
 =A(10000)
               4 00000D8C 00000001     A    8516  5649   5940
 =A(2)         4 00000270 00000001     A    4932  4731
 =A(200)       4 00001C80 00000001     A   13694  9635
 =A(2048)      4 00000D98 00000001     A    8519  5997   6090   6166
 =A(2048)      4 00001C74 00000001     A   13691  9468
 =A(2500)      4 00000DB4 00000001     A    8526  7106
 =A(36*26)
               4 00000D7C 00000001     A    8512  5244
 =A(4)         4 00000DB8 00000001     A    8527  7152   7191   7203
 =A(4096)      4 00000D94 00000001     A    8518  5867   6277   6370   6446
 =A(4096)      4 00001C78 00000001     A   13692  9482  12508
 =A(6)         4 00000DC0 00000001     A    8529  7809
 =AL1(SMFNUM)
               1 0000028A 00000001     R    4940  4829
 =AL2(2048)
               2 00000DF0 00000001     R    8543  8032
 =C'..'        2 00000DEC 00000001     C    8541  7826
 =C'TEMPFILE'
               8 00000D68 00000001     C    8509  7713
 =C'Volume added to file system:'
              28 00001C94 00000001     C   13699 10708
 =C'Volume removed from file system:'
              32 00001C38 00000001     C   13683 10825
 =CL4' '       4 00000DC4 00000001     C    8530  7836
 =CL4'FSB'
               4 00001C58 00000001     C   13684  8692
 =CL4'ORVF'
               4 0000026C 00000001     C    4931  4730
 =CL6'GG.ORV'
               6 00000DE4 00000001     C    8539  6815
 =CL8' '       8 00000D10 00000001     C    8498  6911   7010
 =CL8'ACCT'
               8 00000D70 00000001     C    8510  7751
 =CL8'BATCHRO'
               8 00000D48 00000001     C    8505  7367
 =CL8'BITCACHE'
               8 00000D38 00000001     C    8503  7243
 =CL8'BUF2K'
               8 00000CD8 00000001     C    8491  5909
 =CL8'BUF4K'
               8 00000CF8 00000001     C    8495  6189
 =CL8'CACHE'
               8 00000D58 00000001     C    8507  7525
 =CL8'CATBUFF'
               8 00000D30 00000001     C    8502  7160
1FILESERV (FILESE) (09:39) (22MAR04) Ordinary Symbol and Literal Cross Reference                                            Page  109
 =CL8'CDUMPNOT'
               8 00000CB0 00000001     C    8486  5443
 =CL8'DDNAME'
               8 00000D20 00000001     C    8500  7018
 =CL8'DEFBLOCK'
               8 00000D28 00000001     C    8501  7114
 =CL8'FILE'
               8 00000CA0 00000001     C    8484  5353
 =CL8'FILE'
               8 00001C30 00000001     C   13682  8903
 =CL8'FILEBUFH'
               8 00000CC0 00000001     C    8488  5619
 =CL8'FILEBUFS'
               8 00000CE0 00000001     C    8492  5910   6190
 =CL8'FILECB'
               8 00000C98 00000001     C    8483  5138
 =CL8'FILEIOS'
               8 00000CA8 00000001     C    8485  5354
 =CL8'FS'      8 00000D00 00000001     C    8496  6544
 =CL8'FSYSBUFH'
               8 00000CC8 00000001     C    8489  5718
 =CL8'FSYSBUFS'
               8 00000CE8 00000001     C    8493  6013   6293
 =CL8'HCACHE'
               8 00000CB8 00000001     C    8487  5522
 =CL8'NAME'
               8 00000D18 00000001     C    8499  6919
 =CL8'NONIXR'
               8 00000D50 00000001     C    8506  7446
 =CL8'OWNER'
               8 00000D08 00000001     C    8497  6823
 =CL8'PROD'
               8 00000D40 00000001     C    8504  7288
 =CL8'READBUFH'
               8 00000CD0 00000001     C    8490  5807
 =CL8'READBUFS'
               8 00000CF0 00000001     C    8494  6106   6386
 =CL8'TEMPFILE'
               8 00000D60 00000001     C    8508  7604
 =V(ACDSKIO)
               4 00001CE0 00000001     V   13712 13391
 =V(CAOPEN)
               4 00000D9C 00000001     V    8520  6000   6093   6280   6373
 =V(CAREAD)
               4 00001CC8 00000001     V   13706 12414
 =V(CAWRITE)
               4 00001CD4 00000001     V   13709 12998
 =V(CHOPEN)
               4 00000D90 00000001     V    8517  5704   5793
 =V(CHREAD)
               4 00001CC4 00000001     V   13705 12394
 =V(CHWRITE)
               4 00001CD0 00000001     V   13708 12978
 =V(FBITADDV)
               4 00001C90 00000001     V   13698 10701
 =V(FBITINIT)
               4 00000DD0 00000001     V    8533  8253
 =V(FBITREMV)
               4 00001CB0 00000001     V   13700 10789
1FILESERV (FILESE) (09:39) (22MAR04) Ordinary Symbol and Literal Cross Reference                                            Page  110
 =V(FCATINIT)
               4 00000DCC 00000001     V    8532  8249
 =V(FMANINIT)
               4 00000DC8 00000001     V    8531  8245
 =V(FMANTDIN)
               4 00000DD4 00000001     V    8534  8381
 =V(IOSDOIO)
               4 00001C70 00000001     V   13690  9371  10446  10916  12671
 =V(IOSIDFRE)
               4 00001C88 00000001     V   13696  9748  11126  13247
 =V(IOSIDGET)
               4 00001C5C 00000001     V   13685  8722  10119  12588
 =V(IOSTIME)
               4 00001CD8 00000001     V   13710 13047
 =V(M1GOSTAT)
               4 00000DDC 00000001     V    8536  8395
 =V(SBUFGET)
               4 00001CB8 00000001     V   13702 12028  12055
 =V(SBUFINIT)
               4 00000D88 00000001     V    8515  5430   5877   6176   6456
 =V(SBUFREE)
               4 00001CDC 00000001     V   13711 13291
 =V(VMFREE)
               4 00000280 00000001     V    4936  4889
 =V(VMFREE)
               4 00000DA4 00000001     V    8522  6793   8176
 =V(VMFREE)
               4 00001C84 00000001     V   13695  9715  10999  11073
 =V(VMGET)
               4 00000268 00000001     V    4930  4659
 =V(VMGET)
               4 00000D78 00000001     V    8511  5080   5202   5276   6601
 =V(VMGET)
               4 00001C60 00000001     V   13686  8776   8995  10029  10212
 =X'FF000000'
               4 00000D80 00000001     X    8513  5316   7940
 =X'00FFFFFF'
               4 00000260 00000001     X    4928  4267   4836
 =X'7FFFF000'
               4 00001CCC 00000001     X   13707 12509
 =Y(L'SMFFSDAT)
               2 00000286 00000001     Y    4938  4618
 =Y(36)        2 00000DEE 00000001     Y    8542  7894   7910
 =Y(4096)      2 00000284 00000001     Y    4937  4452
 =Y(59*256+0)
               2 00000288 00000001     Y    4939  4656   4886
 =Y(59*256+0)
               2 00000DE2 00000001     Y    8538  5199   5273   8173
 =Y(63*256+0)
               2 00000DE0 00000001     Y    8537  5077   6598   6790
 =Y(63*256+0)
               2 00001CE4 00000001     Y   13713  8773   8992   9712  10026  10209  10996  11070
 =Y(64)        2 00000DEA 00000001     Y    8540  7235

1FILESERV (FILESE) (09:39) (22MAR04) Macro and Copy Code Source Summary                                                     Page  111
- Con Source                                        Volume    Members                        HLASM R4.0  2004/03/22 09.39
0     PRIMARY INPUT                                           CSECT    DROP     END      EX       LTORG    POP
                                                              PRINT    PUSH     Q_PSH    Q_QUE    Q_REM    QHEAD
                                                              SAVAIL   SHEAD    SPOP     SPUSH    START    USING
   L2 WYL.GG.ORV.MACLIB                             SYSB02    $LKPARM  ABORT    ACALL    CACHPARM DSALPARM FBHDR
                                                              FILECB   FILEDSD  FILEPARM FILIOP   FIOPARM  FSB
                                                              GETPARM2 HEADER   INCRD    INCRS    IORPARM  IOSPARM
                                                              LCALL    LOCKPARM MAT      MODULE   ORVSNAP  PAGEPARM
                                                              PARMPARM PEND     PFINFO   PMOV     PROC     PSET
                                                              PZERO    QLISTMAC REG      REGCH    SBPARM   SLISTMAC
                                                              SMFFILE  SMFPFX   SPLEVEL  SYSCTL   VCALL    VMFREE
                                                              VMGET    VMPARM   XTRC
   L3 WYL.GG.SYS.MACLIB                             SYSB05    $BC      $BFLKUP  $BV      $CCLKUP  $CRS     $CSS     $L
                                                              $LA      $LBLAD   $LEXP    $LOR     $REL     $RGLKUP
                                                              $USLKUP  ADL      AUSING   BEGIN    CEIL     CLEAR
                                                              CSECT    DATA     DECR     DEFCC    DEX      DIAG     DROP
                                                              ELSE     ELSEIF   END      EX       EXIT     FLAG
                                                              FLOOR    GEN      HIBAL    IDENT    IF       INCR
                                                              LABEL    LC       LOOP     LT       LTORG    POP
                                                              PRINT    PUSH     RECORD   REGS     SDL      SET
                                                              START    STF      UNTIL    USING    WHILE    WITH

1         (FILESE) (09:39) (22MAR04) General Purpose Register Cross Reference                                               Page  112
- Register  References (M=modified, B=branch, U=USING, D=DROP, N=index)                      HLASM R4.0  2004/03/22 09.39
0    0(0)      991U   992D  1339U  4098   4254M  4274M  4274   4298M  4303M  4321M  4321   4345M  4350M  4362   4473M
              4473   4544   4668   5003   5071M  5076   5089   5193M  5198   5212M  5212   5240   5286M  5286   5314
              5315   5432   5706   5707   5795   5796   5879   5880   6002   6095   6178   6282   6375   6458   6592M
              6597   6610   6651   6773M  6778   7797M  7818M  7838M  7919M  7941M  8162M  8167   8296M  8641   8724
              8767M  8772   8785   8986M  8991   9004   9134M  9134   9170M  9170   9354M  9359   9381M  9381   9695M
              9700   9819   9906M  9956M  9969M  9969  10020M 10025  10038  10121  10203M 10208  10221  10300M 10300
             10429M 10434  10456M 10456  10587M 10588  10666M 10708M 10764M 10799M 10799  10825M 10899M 10904  10979M
             10984  11053M 11058  11132M 11220  11281M 11281  11397M 11466M 11533  11613M 11613  11661M 11700M 11770
             11862M 11871  12428M 12428  12471M 12472M 12472  12521  12527  12547M 12548  12590  12634M 12639  12674
             12683M 12683  12744M 12749M 13090M 13107M 13112M 13113  13173M 13190M 13195M 13196  13294M 13425M 13454M
             13461D 13463M 13463  13464M 13465U 13466  13532M 13549M 13554M 13555  13584M 13601M 13606M 13607
     1(1)      987U  4098   4181M  4190M  4190   4209M  4209   4234M  4276M  4276   4291M  4315   4323M  4323   4338M
              4362   4498M  4544   4617M  4618M  4619   4620M  4655   4760M  4761   4808M  4915M  5003   6610M  6647U
              6696   6789   7701   7972U  8266M  8273N  8290M  8421M  8641   9774M  9819  10335M 10336  10337M 10338
             11171M 11220  11298M 11308U 11314M 11321U 11332U 11345U 11508M 11533  11552M 11562U 11568M 11575U 11586U
             11592M 11599U 11608U 11624M 11624  11709M 11724M 11770  11862M 11871  12162M 12239M 12286M 12286  12303M
             12316M 12316  12352  12439M 12506M 12507  12545M 12546  12745M 12749M 12785M 12842M 12842  12870M 12887M
             12900M 12900  12936  13091M 13100M 13113  13174M 13183M 13196  13401B 13424M 13439  13448M 13448N 13464N
             13533M 13542M 13555  13585M 13594M 13607  13669M
     2(2)      983U  4098   4498M  4544   4746M  4750M  4751M  4752M  4826M  4915M  5003   5315M  5317M  5384M  5415
              5450M  5529M  5649M  5701   5748M  5790   5837M  5868   5940M  5992   6043M  6085   6136M  6167   6220M
              6272   6323M  6365   6416M  6447   6545M  6548M  6549   6651M  6657M  6805M  6806   6807   6810M  6811
              6830M  6926M  7025M  7143   7191   7203M  7210   7222M  7227   7273   7295M  7374M  7453M  7532M  7611M
              7758M  7889D  7891M  7891   7892M  7893U  7894M  7902M  7927   7937M  7938   7942M  7958M  7960M  8198M
              8198   8351M  8421M  8641   8910M  9361M  9362   9421M  9422   9425M  9426   9427M  9450M  9468   9482
              9510   9530   9582   9774M  9819  10436M 10437  10473M 10496M 10501  10906M 10907  11171M 11220  11508M
             11533  11724M 11770  11816U 11862M 11871  12057M 13288  13656U 13669M
     3(3)      979U  4098   4498M  4544   4746M  4748M  4752M  4753   4757M  4758M  4759   4827M  4828M  4829M  4836M
              4874   4915M  5003   5244M  5272   5317M  5457M  5536M  6652M  6657M  6837M  6868   6880M  6887M  6889
              6933M  6971   6983M  6990M  6992   7032M  7063   7075M  7082M  7084   7302M  7381M  7460M  7539M  7618M
              7765M  7809   7897D  7899M  7899   7900M  7901U  7902   7939M  7942M  7959M  7960M  7966M  7990U  8004
              8016   8121U  8421M  8641   8917M  9057   9069M  9076M  9078   9258M  9270M  9270   9298   9332   9423M
              9424   9425   9430D  9432M  9432   9433M  9434U  9443M  9443   9449M  9450   9511   9572   9622M  9623
              9635   9774M  9819  10349M 10361M 10361  10373  10407  10471M 10472  10476D 10478M 10478  10479M 10480U
             10489M 10489  10495M 10496  10502  11171M 11220  11274U 11291M 11292M 11292  11338M 11357M 11357  11411M
             11490U 11508M 11533  11724M 11770  11843U 11862M 11871  11888M 13651U 13669M
     4(4)      975U  4098   4498M  4544   4765M  4782U  4802M  4819U  4915M  5003   5317M  5361M  5464M  5543M  5626M
              5725M  5814M  5917M  6020M  6113M  6197M  6300M  6393M  6657M  6844M  6940M  7039M  7121M  7167M  7250M
              7309M  7388M  7467M  7546M  7625M  7772M  7905D  7907M  7907   7908M  7909U  7910M  7918M  7927M  7936M
              7939   7942M  7959   7960M  7994M  7999U  8421M  8641   8924M  9198M  9203U  9774M  9819  10140U 10504M
             10736M 10758M 10818  11171M 11220  11261U 11363M 11374M 11374  11405M 11432M 11443M 11443  11474M 11495U
             11508M 11533  11724M 11770  13669M
     5(5)      971U  4098   4498M  4544   4668M  4705U  4885   4897U  4915M  5003   5316M  5317M  5368M  5471M  5550M
              5633M  5732M  5821M  5924M  6027M  6120M  6204M  6307M  6400M  6503M  6504   6656M  6656   6657M  6851M
              6947M  7046M  7128M  7174M  7257M  7316M  7395M  7474M  7553M  7632M  7779M  7913D  7915M  7915   7916M
              7917U  7918   7940M  7942M  7957M  7960M  8181M  8191U  8242   8352M  8366M  8366   8403U  8421M  8641
              8848M  8849   8850M  8851   8855M  8856   8931M  9004M  9041U  9208   9220   9226U  9244U  9617U  9774M
              9819  10132U 10221M 10249  10664  10665  10737M 10751  10819  10995  11148U 11171M 11220  11508M 11533
             11724M 11770  11856U 12071M 12109M 12110M 12110  13646U 13669M
     6(6)      967U  4098   4167M  4177U  4223M  4223   4232M  4248M  4248   4480U  4498M  4544   4576M  4586U  4592M
              4599U  4610U  4902U  4915M  5003   5089M  5126U  5155   8408U  8421M  8641   8785M  8822U  9711   9756U
              9774M  9819  10038M 10066  10076U 11069  11153U 11171M 11220  11508M 11533  11724M 11770  12656M 12657
             13669M
     7(7)      963U  4098   4130M  4140U  4145M  4152U  4163U  4485U  4498M  4544   4915M  5003   5139M  5149U  5162U
              6475M  6485U  6498U  8421M  8641   8678M  8688U  9150   9761U  9774M  9819   9866M  9876U  9882M  9889U
1         (FILESE) (09:39) (22MAR04) General Purpose Register Cross Reference                                               Page  113
              9900U  9905M  9913U  9925U  9950M 10698  10786  11158U 11171M 11220  11508M 11533  11724M 11770  12655M
             12656  13467M 13477U 13483M 13490U 13501U 13507M 13514U 13575M 13669M
     8(8)      959U  4098   4269M  4304M  4316M  4351M  4498M  4544   4766M  4795U  4801M  4814U  4915M  5003   8273M
              8297M  8307U  8313M  8320U  8421M  8641   9774M  9819  11171M 11220  11508M 11533  11724M 11770  12437M
             12783M 12801M 13466M 13507N 13575N 13669M
     9(9)      955U  4098   4270M  4310M  4317M  4357M  4498M  4544   4915M  5003   5321M  5331U  6469U  6522M  6532U
              6707   7978U  8322M  8421M  8641   8874M  8884U  9232U  9774M  9819   9975M 10306M 10367M 10462M 10511M
             10511  10531M 10564M 10629M 10647M 10647  10805M 11132  11171M 11220  11508M 11533  11724M 11770  12438M
             12784M 12802M 13627B 13669M
    10(A)      951U  4098   4099M  4109U  4495U  4498M  4544   4545M  4555U  4912U  4915M  5003   5004M  5014U  8418U
              8421M  8641   8642M  8652U  9771U  9774M  9819   9820M  9830U 11168U 11171M 11220  11221M 11231U 11505U
             11508M 11533  11534M 11544U 11721U 11724M 11770  11771M 11781U 13666U 13669M
    11(B)      947U  4098   4498M  4544   4915M  5003   8421M  8641   9774M  9819  11171M 11220  11508M 11533  11724M
             11770  13669M
    12(C)      943U  4098   4113   4114M  4115   4125U  4129   4490U  4498M  4498   4499   4544   4559   4560M  4561
              4571U  4575   4907U  4915M  4915   4916   5003   5018   5019M  5020   5030U  5034   8413U  8421M  8421
              8422   8641   8656   8657M  8658   8668U  8677   9766U  9774M  9774   9775   9819   9834   9835M  9836
              9846U  9855  11163U 11171M 11171  11172  11220  11235  11236M 11237  11247U 11251  11500U 11508M 11508
             11509  11533  11548  11549M 11550  11551  11724M 11724  11725  11770  11785  11786M 11787  11797U 11806
             13661U 13669M 13669  13670
    13(D)      939U  4098   4098   4113   4114   4129M  4498M  4544   4544   4559   4560   4575M  4637U  4853U  4856U
              4915M  4923U  5003   5003   5018   5019   5034M  5051U  5398U  5401U  5663U  5666U  5851U  5854U  5954U
              5957U  6150U  6153U  6234U  6237U  6430U  6433U  6569U  6572U  6674U  6677U  6750U  6753U  8220U  8223U
              8421M  8429U  8641   8641   8656   8657   8677M  8705U  8744U  8747U  9102U  9105U  9311U  9314U  9672U
              9675U  9729U  9732U  9774M  9782U  9819   9819   9834   9835   9855M 10000U 10099U 10102U 10180U 10183U
             10268U 10271U 10386U 10389U 10676U 10679U 10861U 10864U 10956U 10959U 11107U 11110U 11171M 11179U 11220
             11220  11235  11236  11251M 11508M 11533  11533  11548  11549  11551M 11724M 11770  11770  11785  11786
             11806M 12012U 12331U 12334U 12568U 12571U 12601U 12604U 12915U 12918U 13028U 13031U 13228U 13231U 13261U
             13264U 13669M 13677U
    14(E)      935U  4098   4498M  4500B  4544   4660M  4890M  4915M  4917B  5003   5081M  5203M  5277M  5431M  5705M
              5794M  5878M  6001M  6094M  6177M  6281M  6374M  6457M  6602M  6716M  6794M  8177M  8246M  8250M  8254M
              8382M  8392M  8396M  8421M  8423B  8641   8723M  8777M  8996M  9125M  9157M  9372M  9716M  9749M  9774M
              9776B  9819   9915M 10030M 10120M 10213M 10257M 10291M 10447M 10586M 10586  10588M 10597M 10597  10702M
             10790M 10917M 11000M 11074M 11127M 11171M 11173B 11220  11508M 11510B 11533  11724M 11726B 11770  11871
             12029M 12056M 12353M 12355  12395M 12415M 12510M 12511M 12521  12544  12547  12589M 12672M 12746M 12749M
             12937M 12939  12979M 12999M 13048M 13051M 13058  13062M 13083M 13090  13113M 13134M 13141  13145M 13166M
             13173  13196M 13248M 13292M 13392M 13525M 13532  13555M 13577M 13584  13607M 13669M 13671B
    15(F)      931U  4098   4099   4498M  4544   4545   4659M  4660B  4685   4686M  4687M  4688M  4689M  4689   4690M
              4690   4889M  4890B  4915M  5003   5004   5080M  5081B  5106   5107M  5108M  5109M  5110M  5110   5111M
              5111   5202M  5203B  5229   5230M  5231M  5232M  5233M  5233   5234M  5234   5276M  5277B  5303   5304M
              5305M  5306M  5307M  5307   5308M  5308   5430M  5431B  5704M  5705B  5793M  5794B  5877M  5878B  6000M
              6001B  6093M  6094B  6176M  6177B  6280M  6281B  6373M  6374B  6456M  6457B  6474M  6491   6601M  6602B
              6627   6628M  6629M  6630M  6631M  6631   6632M  6632   6715M  6716B  6793M  6794B  6963M  7690   7691M
              7692M  7693M  7694M  7694   7695M  7695   7938M  7958   8176M  8177B  8245M  8246B  8249M  8250B  8253M
              8254B  8381M  8382B  8391M  8392B  8395M  8396B  8421M  8443   8444M  8445M  8446M  8447M  8447   8448M
              8448   8462   8463M  8464M  8465M  8466M  8466   8467M  8467   8641   8642   8722M  8723B  8776M  8777B
              8802   8803M  8804M  8805M  8806M  8806   8807M  8807   8995M  8996B  9021   9022M  9023M  9024M  9025M
              9025   9026M  9026   9124M  9125B  9156M  9157B  9187   9188M  9189M  9190M  9191M  9191   9192M  9192
              9287   9288M  9289M  9290M  9291M  9291   9292M  9292   9371M  9372B  9407   9408M  9409M  9410M  9411M
              9411   9412M  9412   9499   9500M  9501M  9502M  9503M  9503   9504M  9504   9598   9599M  9600M  9601M
              9602M  9602   9603M  9603   9715M  9716B  9748M  9749B  9774M  9819   9820  10029M 10030B 10055  10056M
             10057M 10058M 10059M 10059  10060M 10060  10119M 10120B 10212M 10213B 10238  10239M 10240M 10241M 10242M
             10242  10243M 10243  10290M 10291B 10446M 10447B 10505M 10506M 10507  10580M 10581M 10582M 10588M 10606M
             10622  10701M 10702B 10789M 10790B 10916M 10917B 10999M 11000B 11073M 11074B 11126M 11127B 11171M 11220
             11221  11508M 11533  11534  11724M 11770  11771  11861M 11871  11938  11939M 11940M 11941M 11942M 11942
             11943M 11943  11992  11993M 11994M 11995M 11996M 11996  11997M 11997  12028M 12029B 12055M 12056B 12061D
             12063M 12063  12064M 12065U 12066  12068M 12069  12072M 12090  12099M 12127  12128M 12129M 12130M 12131M
             12131  12132M 12132  12143  12144M 12145  12165M 12166  12191M 12192  12354M 12355  12394M 12395B 12414M
             12415B 12458M 12459M 12460  12502M 12503  12505M 12508M 12509M 12510  12588M 12589B 12671M 12672B 12717
1         (FILESE) (09:39) (22MAR04) General Purpose Register Cross Reference                                               Page  114
             12718M 12719M 12720M 12721M 12721  12722M 12722  12747M 12748  12749M 12938M 12939  12978M 12979B 12998M
             12999B 13047M 13048B 13058M 13061M 13062  13083M 13091  13113M 13141M 13144M 13145  13166M 13174  13196M
             13247M 13248B 13291M 13292B 13391M 13392B 13414  13415M 13416M 13417M 13418M 13418  13419M 13419  13525M
             13533  13555M 13577M 13585  13607M 13669M

1FILESERV (FILESE) (09:39) (22MAR04) Diagnostic Cross Reference and Assembler Summary                                       Page  115
-                                                                                            HLASM R4.0  2004/03/22 09.39
0     No Statements Flagged in this Assembly
 HIGH LEVEL ASSEMBLER, 5696-234, RELEASE 4.0, PTF UQ57391
0SYSTEM: OS/390 02.10.00            JOBNAME: PJG#FSRV    STEPNAME: ASM        PROCSTEP: (NOPROC)
0Datasets Allocated for this Assembly
  Con DDname   Dataset Name                                 Volume  Member
   P1 SYSIN    SYS04082.T093937.RA000.PJG#FSRV.INPUT.H01    SCR100
   L1 SYSLIB   SYS3.DUMMYMAC                                SYSB02
   L2          WYL.GG.ORV.MACLIB                            SYSB02
   L3          WYL.GG.SYS.MACLIB                            SYSB05
      SYSLIN   WYL.GG.PJG.OBJ                               SYSB05  FILESERV
      SYSPRINT SYS04082.T093937.RA000.PJG#FSRV.PRINT.H01    SCR101
      SYSTERM  GG$PJG.PJG#FSRV.JOB05935.D0000103.?

    7812K allocated to Buffer Pool,         1861K would be required for this to be an In-Storage Assembly
    1428 Primary Input Records Read         5973 Library Records Read                  0 Work File Reads
       0 ASMAOPT Records Read               8525 Primary Print Records Written         0 Work File Writes
     190 Punch Records Written                 0 ADATA Records Written
0Assembly Start Time: 09.39.39 Stop Time: 09.39.46 Processor Time: 00.00.02.8212
 Return Code 000
