1                        J E S 2  J O B  L O G  --  S Y S T E M  S Y S B  --  N O D E  R L G
0
 09.44.49 JOB05964 ---- MONDAY,    22 MAR 2004 ----
 09.44.49 JOB05964  ICH70001I GG$PJG   LAST ACCESS AT 09:44:32 ON MONDAY, MARCH 22, 2004
 09.44.49 JOB05964  $HASP373 PJG#TERM STARTED - INIT 3    - CLASS E - SYS SYSB
 09.44.49 JOB05964  ***  HCMD      STEP $$QUIET
 09.44.49 JOB05964  PURGE * Q=OUTPUT MULTIPLE
 09.44.49 JOB05964  JOB PJG#TERM NOT IN OUTPUT QUEUE
 09.44.50 JOB05964  PJG#TERM.$$QUIET .         RC=0008 TapeIO=0000 DiskIO=0000 CPU=  .02s Elapsed=89.43s
 09.44.50 JOB05964  PJG#TERM.$CND    .         RC=Zero TapeIO=0000 DiskIO=0002 CPU=  .01s Elapsed=90.48s
 09.44.51 JOB05964  PJG#TERM.$UNP    .         RC=Zero TapeIO=0000 DiskIO=0063 CPU=  .07s Elapsed=90.65s
 09.45.07 JOB05964  PJG#TERM.ASM     .         RC=Zero TapeIO=0000 DiskIO=0709 CPU= 6.79s Elapsed=91.05s
 09.45.12 JOB05964  PJG#TERM.$EDIT   .         RC=Zero TapeIO=0000 DiskIO=0379 CPU= 1.45s Elapsed=07.51s
 09.45.12 JOB05964  PJG#TERM Ended.  Name=Module: TERMINAL               Total CPU= 8.34s Elapsed=89.43s
 09.45.12 JOB05964
 09.45.12 JOB05964  Execution charges   Priority=Standard   Block=Day
 09.45.12 JOB05964
 09.45.12 JOB05964  CPU Usage         154.50          $95.79   Standard Processing Unit Equivalent
 09.45.12 JOB05964                                   =======
 09.45.12 JOB05964                                    $95.79   Total Job execution charge
 09.45.12 JOB05964
 09.45.12 JOB05964  See back separator page for print charges
 09.45.12 JOB05964
 09.45.12 JOB05964  $HASP395 PJG#TERM ENDED  ASM=0
1        1 //PJG#TERM JOB PJG$GG,'Module: TERMINAL',TIME=1,MSGCLASS=C              JOB05964
           /*JOBPARM HOLD=OUTPUT,LINES=50,CHARS=TN15,NOTIFY=YES
         2 //       EXEC PURGEOLD
         3 XXPURGEOLD PROC
           XX*
           XX* This proc is maintained by Jim Stosick
           XX*
         4 XX$$QUIET  EXEC PGM=HCMDX,PARM='PURGE * Q=OUTPUT MULTIPLE',
           XX         ACCT=(PURGEOLD,SYS3)
         5 //$CND   EXEC PGM=BILBO,REGION=512K,PARM='RECS=100'
         6 //STEPLIB  DD DSN=WYL.GG.ORV.LINKLIB,DISP=SHR
         7 //SYSPRINT DD SYSOUT=$
         8 //SYSUT1   DD DSN=WYL.GG.PJG.OBJ,DISP=OLD
         9 //SYSUT2   DD DSN=WYL.GG.PJG.OBJ,DISP=OLD
        10 //SYSIN    DD DUMMY
        11 //$UNP   EXEC PGM=WUNPRESS,PARM='NUM'
        12 //SYSPRINT DD SYSOUT=$
        13 //SYSUT1   DD DSN=WYL.GG.ORV.SOURCE(TERMINAL),DISP=SHR
        14 //SYSUT2   DD DSN=&&INPUT,DISP=(,PASS),UNIT=SYSDA,
           //            SPACE=(TRK,(25,25),RLSE),DCB=CARD
        15 //ASM    EXEC PGM=ASMA90,REGION=8M,COND=(0,NE,$UNP),
           //            PARM=('SYSPARM(TERMINAL),TERM,LANG(EN),OBJ',
           //          'LC(32500),XREF(SHORT),NODECK,NORLD,NODX,NOUS')
           //*STEPLIB  DD DSN=SYS1.SASMMOD1,DISP=SHR
        16 //SYSLIB   DD DSN=SYS3.DUMMYMAC,DISP=SHR,DCB=BLKSIZE=27920
        17 //         DD DSN=WYL.GG.ORV.MACLIB,DISP=SHR
        18 //         DD DSN=WYL.GG.SYS.MACLIB,DISP=SHR
        19 //         DD DSN=SYS3.IS.MACLIB,DISP=SHR
        20 //SYSUT1   DD DSN=&&SYSUT1,UNIT=VIO,DISP=(,DELETE),
           //            SPACE=(4088,(500,250),,CONTIG,ROUND)
        21 //SYSTERM  DD SYSOUT=$
        22 //SYSPRINT DD DSN=&&PRINT,UNIT=SYSDA,DISP=(,PASS),
           //            SPACE=(6650,(250,250),RLSE),
           //            DCB=(BLKSIZE=6650,LRECL=133,RECFM=FB)
        23 //SYSLIN   DD DSN=WYL.GG.PJG.OBJ(TERMINAL),DISP=OLD
        24 //SYSUDUMP DD SYSOUT=A
        25 //SYSIN    DD DSN=&&INPUT,DISP=(OLD,DELETE)
        26 //$EDIT  EXEC PGM=ASMEDIT,REGION=1M,
           //            COND=EVEN,PARM='STMT,DATA'
        27 //STEPLIB  DD DSN=WYL.GG.SYS.LINKLIB,DISP=SHR
        28 //ASMOUT   DD DSN=&&PRINT,DISP=(OLD,DELETE)
        29 //SYSPRINT DD SYSOUT=A
        30 //SYSUDUMP DD SYSOUT=A
1 STMT NO. MESSAGE
         2 IEFC001I PROCEDURE PURGEOLD WAS EXPANDED USING SYSTEM LIBRARY SYS3.BETAPROC
        14 IGD01010I STORCLAS= TEMP STORGROUP =
        14 IGD01010I STORGRP=VIO ASSIGNED.
        20 IGD01010I STORCLAS= TEMP STORGROUP =
        20 IGD01010I STORGRP=VIO ASSIGNED.
        22 IGD01010I STORCLAS= TEMP STORGROUP =
        22 IGD01010I STORGRP=VIO ASSIGNED.
 ICH70001I GG$PJG   LAST ACCESS AT 09:44:32 ON MONDAY, MARCH 22, 2004
 IEF142I PJG#TERM $$QUIET - STEP WAS EXECUTED - COND CODE 0008
 *********************************************************************************
 *   PJG#TERM/$$QUIET /                    Return Code      0008                 *
 *   Region used      260K (16K user + 244K system)                              *
 *   Extended region  9352K (4K user + 9348K system)                             *
 *                                                                               *
 *   Paging              In      Out                                             *
 *   Private <-> Aux      0        0       CPU time (TCB)   00:00:00.02          *
 *   Private <-> Exp      0        0       CPU time (SRB)   00:00:00.00          *
 *   VIO                  0        0       Elapsed time    920:43:03.53          *
 *   Common               0      ---                                             *
 *                                                                               *
 *                                                                               *
 *   CPU Usage          0.37         $0.22  Standard Processing Unit Equivalent  *
 *                                   $0.22  Total Step execution charge          *
 *                                                                               *
 *    I/O count  DDname   Type Addr           I/O count  DDname   Type Addr      *
 *                         *** No I/O for this step ***                          *
 *********************************************************************************
 IEF373I STEP/$$QUIET /START 2004082.0944
 IEF374I STEP/$$QUIET /STOP  2004082.0944 CPU    0MIN 00.02SEC SRB    0MIN 00.00SEC VIRT    16K SYS   244K EXT       4K SYS    9348K
 IEF236I ALLOC. FOR PJG#TERM $CND
 IEF237I 0401 ALLOCATED TO STEPLIB
 IEF237I JES2 ALLOCATED TO SYSPRINT
 IEF237I 04DC ALLOCATED TO SYSUT1
 IEF237I 04DC ALLOCATED TO SYSUT2
 IEF237I DMY  ALLOCATED TO SYSIN
 IEF142I PJG#TERM $CND - STEP WAS EXECUTED - COND CODE 0000
 IEF285I   WYL.GG.ORV.LINKLIB                           KEPT
 IEF285I   VOL SER NOS= SYSB01.
 IEF285I   GG$PJG.PJG#TERM.JOB05964.D0000101.?          SYSOUT
 IEF285I   WYL.GG.PJG.OBJ                               KEPT
 IEF285I   VOL SER NOS= SYSB05.
 IEF285I   WYL.GG.PJG.OBJ                               KEPT
 IEF285I   VOL SER NOS= SYSB05.
 *********************************************************************************
 *   PJG#TERM/$CND    /                    Return Code      Zero                 *
 *   Region used      280K (16K user + 264K system)                              *
 *   Extended region  9392K (4K user + 9388K system)                             *
 *                                                                               *
 *   Paging              In      Out                                             *
 *   Private <-> Aux      0        0       CPU time (TCB)   00:00:00.01          *
 *   Private <-> Exp      0        0       CPU time (SRB)   00:00:00.00          *
 *   VIO                  0        0       Elapsed time    920:43:02.48          *
 *   Common               0      ---                                             *
 *                                                                               *
 *                                                                               *
 *   CPU Usage          0.18         $0.11  Standard Processing Unit Equivalent  *
 *                                   $0.11  Total Step execution charge          *
 *                                                                               *
 *    I/O count  DDname   Type Addr           I/O count  DDname   Type Addr      *
 *            2  STEPLIB  Disk 0401                   0  SYSPRINT      ----      *
 *            0  SYSUT1   Disk 04DC                   0  SYSUT2   Disk 04DC      *
 *            0  SYSIN         ----                                              *
 *********************************************************************************
 IEF373I STEP/$CND    /START 2004082.0944
 IEF374I STEP/$CND    /STOP  2004082.0944 CPU    0MIN 00.01SEC SRB    0MIN 00.00SEC VIRT    16K SYS   264K EXT       4K SYS    9388K
 IEF236I ALLOC. FOR PJG#TERM $UNP
 IEF237I JES2 ALLOCATED TO SYSPRINT
 IEF237I 0402 ALLOCATED TO SYSUT1
 IGD101I SMS ALLOCATED TO DDNAME (SYSUT2  )
         DSN (SYS04082.T094449.RA000.PJG#TERM.INPUT.H01   )
         STORCLAS (TEMP) MGMTCLAS (        ) DATACLAS (        )
         VOL SER NOS= SCR101
 IEF142I PJG#TERM $UNP - STEP WAS EXECUTED - COND CODE 0000
 IEF285I   GG$PJG.PJG#TERM.JOB05964.D0000102.?          SYSOUT
 IEF285I   WYL.GG.ORV.SOURCE                            KEPT
 IEF285I   VOL SER NOS= SYSB02.
 IGD106I SYS04082.T094449.RA000.PJG#TERM.INPUT.H01    PASSED,    DDNAME=SYSUT2
 *********************************************************************************
 *   PJG#TERM/$UNP    /                    Return Code      Zero                 *
 *   Region used      380K (108K user + 272K system)                             *
 *   Extended region  9468K (4K user + 9464K system)                             *
 *                                                                               *
 *   Paging              In      Out                                             *
 *   Private <-> Aux      0        0       CPU time (TCB)   00:00:00.07          *
 *   Private <-> Exp      0        0       CPU time (SRB)   00:00:00.00          *
 *   VIO                  0        0       Elapsed time    920:43:02.31          *
 *   Common               0      ---                                             *
 *                                                                               *
 *                                                                               *
 *   CPU Usage          1.31         $0.81  Standard Processing Unit Equivalent  *
 *                                   $0.81  Total Step execution charge          *
 *                                                                               *
 *    I/O count  DDname   Type Addr           I/O count  DDname   Type Addr      *
 *            0  SYSPRINT      ----                   6  SYSUT1   Disk 0402      *
 *           57  SYSUT2   Disk 04E3                                              *
 *********************************************************************************
 IEF373I STEP/$UNP    /START 2004082.0944
 IEF374I STEP/$UNP    /STOP  2004082.0944 CPU    0MIN 00.07SEC SRB    0MIN 00.00SEC VIRT   108K SYS   272K EXT       4K SYS    9464K
 IEF236I ALLOC. FOR PJG#TERM ASM
 IEF237I 0402 ALLOCATED TO SYSLIB
 IEF237I 0402 ALLOCATED TO
 IEF237I 04DC ALLOCATED TO
 IEF237I 04DC ALLOCATED TO
 IGD101I SMS ALLOCATED TO DDNAME (SYSUT1  )
         DSN (SYS04082.T094449.RA000.PJG#TERM.SYSUT1.H01  )
         STORCLAS (TEMP) MGMTCLAS (        ) DATACLAS (        )
         VOL SER NOS= VIO
 IEF237I JES2 ALLOCATED TO SYSTERM
 IGD101I SMS ALLOCATED TO DDNAME (SYSPRINT)
         DSN (SYS04082.T094449.RA000.PJG#TERM.PRINT.H01   )
         STORCLAS (TEMP) MGMTCLAS (        ) DATACLAS (        )
         VOL SER NOS= SCR101
 IEF237I 04DC ALLOCATED TO SYSLIN
 IEF237I JES2 ALLOCATED TO SYSUDUMP
 IGD103I SMS ALLOCATED TO DDNAME SYSIN
 IEF142I PJG#TERM ASM - STEP WAS EXECUTED - COND CODE 0000
 IEF285I   SYS3.DUMMYMAC                                KEPT
 IEF285I   VOL SER NOS= SYSB02.
 IEF285I   WYL.GG.ORV.MACLIB                            KEPT
 IEF285I   VOL SER NOS= SYSB02.
 IEF285I   WYL.GG.SYS.MACLIB                            KEPT
 IEF285I   VOL SER NOS= SYSB05.
 IEF285I   SYS3.IS.MACLIB                               KEPT
 IEF285I   VOL SER NOS= SYSB05.
 IGD105I SYS04082.T094449.RA000.PJG#TERM.SYSUT1.H01   DELETED,   DDNAME=SYSUT1
 IEF285I   GG$PJG.PJG#TERM.JOB05964.D0000103.?          SYSOUT
 IGD106I SYS04082.T094449.RA000.PJG#TERM.PRINT.H01    PASSED,    DDNAME=SYSPRINT
 IEF285I   WYL.GG.PJG.OBJ                               KEPT
 IEF285I   VOL SER NOS= SYSB05.
 IEF285I   GG$PJG.PJG#TERM.JOB05964.D0000104.?          SYSOUT
 IGD105I SYS04082.T094449.RA000.PJG#TERM.INPUT.H01    DELETED,   DDNAME=SYSIN
 *********************************************************************************
 *   PJG#TERM/ASM     /                    Return Code      Zero                 *
 *   Region used      8484K (8192K user + 292K system)                           *
 *   Extended region  9952K (412K user + 9540K system)                           *
 *                                                                               *
 *   Paging              In      Out                                             *
 *   Private <-> Aux      0        0       CPU time (TCB)   00:00:06.73          *
 *   Private <-> Exp      0        0       CPU time (SRB)   00:00:00.06          *
 *   VIO                  0        0       Elapsed time    920:43:01.91          *
 *   Common               0      ---                                             *
 *                                                                               *
 *                                                                               *
 *   CPU Usage        126.18        $78.23  Standard Processing Unit Equivalent  *
 *                                  $78.23  Total Step execution charge          *
 *                                                                               *
 *    I/O count  DDname   Type Addr           I/O count  DDname   Type Addr      *
 *          104  SYSLIB   Disk 0402                   0  SYSLIB   Disk 0402      *
 *          161  SYSLIB   Disk 04DC                   0  SYSLIB   Disk 04DC      *
 *            0  SYSUT1   VIO  ----                   0  SYSTERM       ----      *
 *          376  SYSPRINT Disk 04E3                  10  SYSLIN   Disk 04DC      *
 *            0  SYSUDUMP      ----                  58  SYSIN    Disk 04E3      *
 *********************************************************************************
 IEF373I STEP/ASM     /START 2004082.0944
 IEF374I STEP/ASM     /STOP  2004082.0945 CPU    0MIN 06.73SEC SRB    0MIN 00.06SEC VIRT  8192K SYS   292K EXT     412K SYS    9540K
 IEF236I ALLOC. FOR PJG#TERM $EDIT
 IEF237I 0402 ALLOCATED TO STEPLIB
 IGD103I SMS ALLOCATED TO DDNAME ASMOUT
 IEF237I JES2 ALLOCATED TO SYSPRINT
 IEF237I JES2 ALLOCATED TO SYSUDUMP
 IEF142I PJG#TERM $EDIT - STEP WAS EXECUTED - COND CODE 0000
 IEF285I   WYL.GG.SYS.LINKLIB                           KEPT
 IEF285I   VOL SER NOS= SYSB02.
 IGD105I SYS04082.T094449.RA000.PJG#TERM.PRINT.H01    DELETED,   DDNAME=ASMOUT
 IEF285I   GG$PJG.PJG#TERM.JOB05964.D0000105.?          SYSOUT
 IEF285I   GG$PJG.PJG#TERM.JOB05964.D0000106.?          SYSOUT
 *********************************************************************************
 *   PJG#TERM/$EDIT   /                    Return Code      Zero                 *
 *   Region used      388K (116K user + 272K system)                             *
 *   Extended region  9472K (4K user + 9468K system)                             *
 *                                                                               *
 *   Paging              In      Out                                             *
 *   Private <-> Aux      0        0       CPU time (TCB)   00:00:01.41          *
 *   Private <-> Exp      0        0       CPU time (SRB)   00:00:00.04          *
 *   VIO                  0        0       Elapsed time    920:42:45.45          *
 *   Common               0      ---                                             *
 *                                                                               *
 *                                                                               *
 *   CPU Usage         26.43        $16.38  Standard Processing Unit Equivalent  *
 *                                  $16.38  Total Step execution charge          *
 *                                                                               *
 *    I/O count  DDname   Type Addr           I/O count  DDname   Type Addr      *
 *            2  STEPLIB  Disk 0402                 377  ASMOUT   Disk 04E3      *
 *            0  SYSPRINT      ----                   0  SYSUDUMP      ----      *
 *********************************************************************************
 IEF373I STEP/$EDIT   /START 2004082.0945
 IEF374I STEP/$EDIT   /STOP  2004082.0945 CPU    0MIN 01.41SEC SRB    0MIN 00.04SEC VIRT   116K SYS   272K EXT       4K SYS    9468K
 *********************************************************************************
 *                                                                               *
 *                      S t a n f o r d   U n i v e r s i t y                    *
 *                                                                               *
 *                              *** Job Summary ***                              *
 *                                                                               *
 *   System Id      SYSB                   Input time     09:38:28  Mar 22, 2004 *
 *                                                                               *
 *   System Release SP6.1.0                Start time     09:44:49  Mar 22, 2004 *
 *                                                                               *
 *   Job name       PJG#TERM               Stop  time     00:00:00  Mar 22, 2004 *
 *                                                                               *
 *   Account        PJG$GG                 Elapsed time  920:43:03.53            *
 *                                                                               *
 *   User Name      Module: TERMINAL       CPU time       00:00:08.24            *
 *                                                                               *
 *   Job class      E                      SRB Time       00:00:00.10            *
 *                                                                               *
 *********************************************************************************
 IEF375I  JOB/PJG#TERM/START 2004082.0944
 IEF376I  JOB/PJG#TERM/STOP  2004082.0945 CPU    0MIN 08.24SEC SRB    0MIN 00.10SEC
1Data set successfully converted from EDIT to FB format
1Assembler Done TERMINAL No Statements Flagged
1         High Level Assembler Option Summary                   (PTF UQ57391)                                               Page    1
-                                                                                            HLASM R4.0  2004/03/22 09.44
0  No Overriding ASMAOPT Parameters
   Overriding Parameters-  SYSPARM(TERMINAL),TERM,LANG(EN),OBJ,LC(32500),XREF(SHORT),NODECK,NORLD,NODX,NOUS
   No Process Statements


   Options for this Assembly
0  NOADATA
     ALIGN
   NOASA
     BATCH
     CODEPAGE(047C)
   NOCOMPAT
   NODBCS
 3 NODECK
 3 NODXREF
     ESD
   NOEXIT
     FLAG(0,ALIGN,CONT,NOIMPLEN,NOPAGE0,PUSH,RECORD,NOSUBSTR,USING0)
   NOFOLD
   NOGOFF
   NOINFO
 3   LANGUAGE(EN)
   NOLIBMAC
 3   LINECOUNT(32500)
     LIST(121)
     MXREF(SOURCE)
 3   OBJECT
     OPTABLE(UNI,NOLIST)
   NOPCONTROL
   NOPESTOP
   NOPROFILE
   NORA2
   NORENT
 3 NORLD
     RXREF
     SIZE(MAX)
 3   SYSPARM(TERMINAL)
 3   TERM(WIDE)
   NOTEST
     THREAD
   NOTRANSLATE
 3 NOUSING
 3   XREF(SHORT)

   No Overriding DD Names

1TERMINAL External Symbol Dictionary                                                                                        Page    2
-Symbol   Type   Id     Address  Length     LD ID  Flags Alias-of                            HLASM R4.0  2004/03/22 09.44
0TERMINAL  SD 00000001 00000000 000042AF             06
 TERM00    LD          00000000           00000001
 TERMINIT  LD          00000022           00000001
 TERMINAS  LD          000000BA           00000001
 TERMINUI  LD          0000015A           00000001
 TERMLGOF  LD          000001D4           00000001
 TERUINF   LD          0000024E           00000001
 VMGET     ER 00000002
 LKCRE     ER 00000003
 ACREATE   ER 00000004
 LKOB      ER 00000005
 LKREL     ER 00000006
 MILTERM2  LD          00000314           00000001
 MILOPEN2  LD          00000554           00000001
 MILREAD2  LD          00000728           00000001
 MILFQE2   LD          00000AAA           00000001
 ILCLOSE2  LD          00000B62           00000001
 ILNOTFY2  LD          00000BD2           00000001
 MILRECV2  LD          00000C3C           00000001
 DISPSHLD  ER 00000007
 ASSYSTSK  ER 00000008
 VMFREE    ER 00000009
 IOSIDGET  ER 0000000A
 IOSDOIO   ER 0000000B
 SYSRNEW   ER 0000000C
 SYSRDO    ER 0000000D
 SYSRDEL   ER 0000000E
 M1LOGON   ER 0000000F
 RESUMAS   ER 00000010
 PAGFIX    ER 00000011
 PAGUFIX   ER 00000012
 GETTBUF2  LD          00000EBE           00000001
 REETBUF2  LD          00000F9E           00000001
 ADDSEG2   LD          000010AA           00000001
 MILSX2    LD          0000116C           00000001
 MILRX2    LD          0000136E           00000001
 CURSIB2   LD          0000142A           00000001
 NEWSIB2   LD          00001532           00000001
 SIBDO2    LD          000016B4           00000001
 MILIAS2   LD          00001714           00000001
 MILIUSI2  LD          0000186E           00000001
 MILUINF2  LD          000018A6           00000001
 MILLGOF2  LD          000018E6           00000001
 MILSYSR2  LD          00001994           00000001
 MILASYN2  LD          00001A32           00000001
 ASLOCK    ER 00000013
 SUSPEND   ER 00000014
 ASULOCK   ER 00000015
 DISPRD    ER 00000016
 IOSIDFRE  ER 00000017
 ACLOGON   ER 00000018
 XITNEW    ER 00000019
 RESUMTS   ER 0000001A
 M1TERM    LD          00001B46           00000001
 RDTERM2   LD          00001D10           00000001
1TERMINAL External Symbol Dictionary                                                                                        Page    3
 RDTERMX2  LD          0000209C           00000001
 RTTO2     LD          00002302           00000001
 TCREATE   ER 0000001B
 EXRADD    ER 0000001C
 XITMASK   ER 0000001D
 RTSET     ER 0000001E
 RTCAN     ER 0000001F
 TEXIT     ER 00000020
 EXRDONE   ER 00000021
 RDEDIT2   LD          000024BA           00000001
 RDEDITX2  LD          000026E0           00000001
 RDTEXT2   LD          000029D2           00000001
 RDTEXTX2  LD          00002D3E           00000001
 WRTERM2   LD          00002F52           00000001
 WRTERMX2  LD          00003182           00000001
 WREDIT2   LD          00003276           00000001
 WREDITX2  LD          000033E8           00000001
 WRTEXT2   LD          000034F4           00000001
 WRTEXTX2  LD          000036AA           00000001
 CNTRL2    LD          0000380E           00000001
 CNTLX2    LD          00003CFE           00000001
 HALT2     LD          00003F4A           00000001
 M1ATTN2   LD          00003FEC           00000001
 $LOGOFF2  LD          00004048           00000001
 $IODONE2  LD          000040A8           00000001
 GETCHGS2  LD          00004132           00000001
 VALBUF2   LD          00004194           00000001
 TRCD2     LD          00004224           00000001
 XITDO     ER 00000022
 ACINFO    ER 00000023
 PAGTPROT  ER 00000024

1TERMINAL Orvyl Terminal Manager                                                                                            Page    4
0Loc    Object Code    Addr1 Addr2  Stmt Lv Lineno    Source Statement                    (Asmedit 3.3)  HLASM R4.0  2004/03/22 09.44
+___    ______ ____    _____ _____  ____ __ ______    ______ _________
0                                      2       2.              COPY  HEADER
                                       3             =*********************************************************************
                                       4             =*                                                                   *
                                       5             =*                                                                   *
                                       6             =*                          M P - O R V Y L                          *
                                       7             =*                                                                   *
                                       8             =*       ORVYL - Release 5.0 - Class I - Stanford Proprietary        *
                                       9             =*                                                                   *
                                      10             =*                                                                   *
                                      11             =*********************************************************************
-
-                                     13             =         SPLEVEL SET=2
                                      16             =         HIBAL ASSOC=YES
-
                                     998             =*
                                     999             =* REGISTER CONVENTIONS (USE ONLY THE SYMBOLS)
                                    1000             =*
                                    1001             =*                     CLASS  USAGE
                                    1002             =*                     -----  -----------------------------
                                    1003             =RVR      REG   0        1    RETURN VALUE REGISTER
                                    1015             =RS       REG   1        *    SCRATCH
                                    1027             =RA       REG   2        *    SCRATCH
                                    1039             =RB       REG   3        *    SCRATCH
                                    1051             =RJ       REG   4        *    SCRATCH
                                    1063             =RK       REG   5        *    SCRATCH
                                    1075             =RX       REG   6        *    SCRATCH
                                    1087             =RY       REG   7        *    SCRATCH
                                    1099             =RM       REG   8        *    SCRATCH
                                    1111             =RN       REG   9        *    SCRATCH (In Guest)
                                    1123             =RTCBR    REG   9        -    POINTER TO THE RTCB (In Host)
                                    1135             =BR       REG   10       -    FIRST BASE REGISTER
                                    1147             =BRR      REG   11       -    SECOND BASE REGISTER
                                    1159             =WAR      REG   12       -    WORK AREA POINTER
                                    1171             =SPR      REG   13       -    STACK TOP POINTER
                                    1183             =RAR      REG   14       1    RETURN ADDRESS REGISTER
                                    1195             =EPAR     REG   15       1    ENTRY POINT ADDRESS
                                    1207             =*
                                    1208             =*      CLASS   MEANING
                                    1209             =*      -----   --------------------------------------------------
                                    1210             =*        *     Register may be freely used for scratch
                                    1211             =*        -     Register may not be used
                                    1212             =*        1     Available but may change on subroutine calls
                                    1213             =*
1TERMINAL Orvyl Terminal Manager                                                                                            Page    5
0D-Loc  Object Code    Addr1 Addr2  Stmt Lv Lineno    Source Statement           (Hibal 5, Asmedit 3.3)  HLASM R4.0  2004/03/22 09.44
+_____  ______ ____    _____ _____  ____ __ ______    ______ _________
0000000                00000 042AF  1216       4.     TERMINAL MODULE TRCNUM=2
                                    1226             +*
                                    1227    02-IDENT +         ENTRY TERM00
                                    1228             +
 000000 14E3C5D9D4F0F06B            1229    02-IDENT +TERM00   DC    AL1(20),C'TERM00,22MAR04,09:44'
                                    1230             +*
1TERMINAL (TERM00) (09:44) (22MAR04) Global Control Blocks                                                                  Page    6
0Loc    Object Code    Addr1 Addr2  Stmt Lv Lineno    Source Statement           (Hibal 5, Asmedit 3.3)  HLASM R4.0  2004/03/22 09.44
+___    ______ ____    _____ _____  ____ __ ______    ______ _________
0                                   1233       6.              COPY  PZERO
 000000                00000 00280  1234             =PZERO    RECORD BEGIN
                                    1242  1          =*
                                    1243  1          =* Real Page 0.  Each CPU has its own copy of this area.
                                    1244  1          =*
-                                   1246  1          =****************************************************************
                                    1247  1          =*               Fields Fixed by the Architecture               *
                                    1248  1          =*               ********************************               *
                                    1249  1          =*                                                              *
 000000                             1250  1          =PZRSNPSW   DS    D             Restart new PSW                 *
 000008                             1251  1          =PZRSOPSW   DS    D             Restart old PSW                 *
 000010                             1252  1          =           DS    D                                             *
 000018                             1253  1          =PZEXOPSW   DS    D             External old PSW                *
 000020                             1254  1          =PZSVOPSW   DS    D             Supervisor old PSW              *
 000028                             1255  1          =PZPIOPSW   DS    D             Program old PSW                 *
 000030                             1256  1          =PZMCOPSW   DS    D             Machine check old PSW           *
 000038                             1257  1          =PZIOOPSW   DS    D             I/O old PSW                     *
 000040                             1258  1          =           DS    3D                                            *
 000058                             1259  1          =PZEXNPSW   DS    D             External new PSW                *
 000060                             1260  1          =PZSVNPSW   DS    D             Supervisor new PSW              *
 000068                             1261  1          =PZPINPSW   DS    D             Program new PSW                 *
 000070                             1262  1          =PZMCNPSW   DS    D             Machine check new PSW           *
 000078                             1263  1          =PZIONPSW   DS    D             I/O new PSW                     *
 000080                             1264  1          =           DS    F                                             *
 000084                             1265  1          =PZEXCPU    DS    H             CPU address for EXT int         *
 000086                             1266  1          =PZEXIC     DS    H             External interrupt code         *
 000088                             1267  1          =PZSVILC    DS    H             Supervisor call ILC             *
 00008A                             1268  1          =PZSVIC     DS    H             Supervisor interrupt code       *
 00008C                             1269  1          =PZPIILC    DS    H             Program ILC                     *
 00008E                             1270  1          =PZPIIC     DS    H             Program interrupt code          *
 000090                             1271  1          =PZTREXA    DS    A             Translation exception address   *
 000094                             1272  1          =PZMONCL    DS    H             Monitor Class number            *
 000096                             1273  1          =PZPERCD    DS    H             PER code                        *
 000098                             1274  1          =PZPERA     DS    A             PER Address                     *
 00009C                             1275  1          =PZMONCD    DS    A             Monitor Code                    *
 0000A0                             1276  1          =           DS    3D                                            *
 0000B8                             1277  1          =PZIOSID    DS    A             I/O subsystem ID word           *
 0000BC                             1278  1          =PZIOPRM    DS    A             I/O Parameter                   *
 0000C0                             1279  1          =PZIOSCS    DS    A             I/O subchannel ending status    *
 0000C4                             1280  1          =           DS    A                                             *
 0000C8                             1281  1          =           DS    39D                                           *
                                    1282  1          =*                                                              *
                                    1283  1          =*            ***************************************           *
                                    1284  1          =*            End of Fields fixed by the architecture           *
                                    1285  1          =****************************************************************
1TERMINAL (TERM00) (09:44) (22MAR04) Global Control Blocks                                                                  Page    7
0D-Loc  Object Code    Addr1 Addr2  Stmt Lv Lineno    Source Statement           (Hibal 5, Asmedit 3.3)  HLASM R4.0  2004/03/22 09.44
+_____  ______ ____    _____ _____  ____ __ ______    ______ _________
0                                   1287  1          =*
                                    1288  1          =* Fields of general interest
                                    1289  1          =*
 000200                             1290  1          =PZMATP     DS    A             Address of the MAT
 000204                             1291  1          =           DS    A             ** Reserved **
 000208                             1292  1          =PZCURPID   DS    0D            Unique ID of the current process
 000208                             1293  1          =PZCURASB   DS    A             Addr of ASB for current Address space
 00020C                             1294  1          =PZCURTSK   DS    A             ID of current task in the Address space
 000210                             1295  1          =PZLCPUA    DS    A             Logical CPU address
 000214                             1296  1          =PZCPUMSK   DS    A             CPU address mask bit
 000218                             1297  1          =PZPSWM     DS    X             PSW mask for disabling
 000219                             1298  1          =           DS    X             ** Reserved **
                                    1299  1          =*
                                    1300  1          =* Termination/Trace information
                                    1301  1          =*
 00021A 00                          1302  1          =PZTERMFL   FLAG  ,             Termination flags
 PZTERMFL.PZABORT  80 ONES          1306  1          =           FLAG  PZABORT         ABORT macro issued
 PZTERMFL.PZATERM  40 ONES          1311  1          =           FLAG  PZATERM         Start termination processing
 00021B                             1316  1          =PZABSM     DS    X             Save area for system mask in ABORT
 00021C                             1317  1          =PZABR15    DS    A             Save area for R15 in an ABORT
 000220                             1318  1          =PZTZOFF    DS    D             Time zone offset
 000228                             1319  1          =           DS    22A           ** Reserved **
                                    1320  1          =*         DS    24A           ** Reserved **
 000280                00280 00280  1321             =         END   ,
 USING  PZERO,R0                    1330       7.              USING (PZERO,R0)
1TERMINAL (TERM00) (09:44) (22MAR04) Global Control Blocks                                                                  Page    8
0Current Usings:  (PZERO,R0)
0Loc    Object Code    Addr1 Addr2  Stmt Lv Lineno    Source Statement           (Hibal 5, Asmedit 3.3)  HLASM R4.0  2004/03/22 09.44
+___    ______ ____    _____ _____  ____ __ ______    ______ _________
0                                   1341       9.              COPY  MAT
                                    1342             =*****************************************************************
                                    1343             =*                                                               *
                                    1344             =*        *** M A S T E R   A D D R E S S   T A B L E ***        *
                                    1345             =*                                                               *
                                    1346             =*****************************************************************
-000000                00000 00100  1348             =MAT      RECORD BEGIN
                                    1356  1          =MATPTR     EQU   X'200',4,C'A' Address of the MAT in PZERO
 000000 D4C1E340                    1357  1          =           DC    CL4'MAT'      Control block ID
                                    1358  1          =*
                                    1359  1          =* Addresses of global control blocks
                                    1360  1          =*
 000004                             1361  1          =MATVMCB    DS    A             Virtual memory control block
 000008                             1362  1          =MATDCT     DS    A             Dispatcher control table
 00000C                             1363  1          =MATPAGCB   DS    A             Real memory control block
 000010                             1364  1          =MATM1CT    DS    A             CT for Mode 1 users
 000014                             1365  1          =MATLCT     DS    A             Lock manager control table
 000018                             1366  1          =MATQCT     DS    A             Queue manager control table
 00001C                             1367  1          =MATIOCB    DS    A             I/O Manager control block
 000020                             1368  1          =MATSBWB    DS    A             System buffer wait blocks
 000024                             1369  1          =MATGTCT    DS    A             Terminal global control table
 000028                             1370  1          =MATFILCB   DS    A             File master control table
 00002C                             1371  1          =MATJESCB   DS    A             JES master control table
 000030                             1372  1          =MATSYSCB   DS    A             System task control table
 000034                             1373  1          =MATACCT    DS    A             Accounting control table
 000038                             1374  1          =MATGRCT    DS    A             General Resource control table
 00003C                             1375  1          =MATGNCT    DS    A             Global Network Control table
 000040                             1376  1          =MATTECB    DS    D             Termination wait ECB
 000048                             1377  1          =           DS    25A           Reserved
                                    1378  1          =*
                                    1379  1          =* Control Block Chains
                                    1380  1          =*
 0000AC                             1381  1          =MATASBS    DS    A             Pointer to chain of ASBs
 0000B0                             1382  1          =MATASBL    DS    A             Id of suspend lock for ASB chain
 0000B4                             1383  1          =           DS    8A            **  RESERVED
                                    1384  1          =*
                                    1385  1          =* Control information
                                    1386  1          =*
 0000D4                             1387  1          =MATSNAME   DS    CL8           System Name
 0000DC                             1388  1          =MATPAGFN   DS    A             Current value of the Paging function
 0000E0                             1389  1          =MATSKEY    DS    X             SYSTEM storage key (in high 4 bits)
 0000E1                             1390  1          =MATUKEY    DS    X             USER storage key
                                    1391= 1          =           ¿þþþþþþþþþþþþþþþþþþþþþþþþþþþþþþþþÜ
                                    1392= 1          =           Ÿ  Information about the Kernel  Ÿ
                                    1393= 1          =           ¾þþþþþþþþþþþþþþþþþþþþþþþþþþþþþþþþ»
 0000E4                             1394  1          =MATKSTRT   DS    A             Starting address of the Kernel
 0000E8                             1395  1          =MATKMAP    DS    A             Address of the Kernel map
 0000EC                             1396  1          =MATKMAPL   DS    A             Length of the Kernel map
1TERMINAL (TERM00) (09:44) (22MAR04) Global Control Blocks                                                                  Page    9
0Current Usings:  (PZERO,R0)
0Loc    Object Code    Addr1 Addr2  Stmt Lv Lineno    Source Statement           (Hibal 5, Asmedit 3.3)  HLASM R4.0  2004/03/22 09.44
+___    ______ ____    _____ _____  ____ __ ______    ______ _________
0                                   1397= 1          =           ¿þþþþþþþþþþþþþþþþþþþþþþþþþÜ
                                    1398= 1          =           Ÿ  Failsoft information.  Ÿ
                                    1399= 1          =           ¾þþþþþþþþþþþþþþþþþþþþþþþþþ»
 0000F0                             1400  1          =MATNCLPE   DS    F             Number of CLP errors
 0000F4                             1401  1          =MATNFAIL   DS    F             Number of failsofts
 0000F8                             1402  1          =           DS    2A            Reserved
 000100                00100 00100  1403             =         END
1TERMINAL (TERM00) (09:44) (22MAR04) Global Control Blocks                                                                  Page   10
0Current Usings:  (PZERO,R0)
0Loc    Object Code    Addr1 Addr2  Stmt Lv Lineno    Source Statement           (Hibal 5, Asmedit 3.3)  HLASM R4.0  2004/03/22 09.44
+___    ______ ____    _____ _____  ____ __ ______    ______ _________
0                                   1413      11.              COPY  ASB
 000000                00000 00044  1414             =ASB      RECORD BEGIN
 000000 C1E2C240                    1422  1          =ASBID      DC    CL4'ASB'
 000004                             1423  1          =ASBNEXT    DS    A                       Next ASB in system
                                    1424  1          =*
                                    1425  1          =*  Load Address Space Parameters area
                                    1426  1          =*
 000008                             1427  1          =ASBLASP    DS    0D                      Load Addr Space Parms
 000008                             1428  1          =ASBPKM     DS    H                       Program Key Mask
 00000A                             1429  1          =ASBSASN    DS    H                       Secondary ASN
 00000C                             1430  1          =ASBAX      DS    H                       Authorization index
 00000E                             1431  1          =ASBPASN    DS    H                       Primary ASN
                                    1432  1          =ASBLPARM   EQU   3                       LASP parameter
                                    1433  1          =
 000010                             1434  1          =ASBSASB    DS    A                       Address of secondary ASB
 000014 00                          1435  1          =ASBGCFLG   FLAG  ,
 ASBGCFLG.ASBFGBLC 80 ONES          1439  1          =           FLAG  ASBFGBLC                This is ASB for global/common
 000015                             1444  1          =           DS    3X                      - Available -
                                    1445  1          =*
                                    1446  1          =*  Related control blocks
                                    1447  1          =*
 000018                             1448  1          =ASBVSCT    DS    A                       VSCT for the Address space
 00001C                             1449  1          =ASBASDB    DS    A                       AS dispatching block
 000020                             1450  1          =ASBPAGB    DS    A                       AS paging block
 000024                             1451  1          =ASBIOB     DS    A                       AS I/O block
 000028                             1452  1          =ASBENQ     DS    A                       AS Enqueue table
 00002C                             1453  1          =ASBM1SCP   DS    A                       Mode 1 SCP
 000030                             1454  1          =ASBTCCB    DS    A                       Terminal Control block
 000034                             1455  1          =ASBAIB     DS    A                       Accouting information
 000038                             1456  1          =ASBASFB    DS    A                       File services control block
 00003C                             1457  1          =ASBMSTR    DS    A                       AS Master Control block
 000040                             1458  1          =ASBNET     DS    A                       Local Network Control Block
                                    1459  1          =*ASBLW    DS    A     ** Temp RESMAN ** Lock waiting for
                                    1460  1          =*ASBLH    DS    A     ** Temp RESMAN ** Lock held
 000044                00044 00044  1461             =         END   ,
1TERMINAL (TERM00) (09:44) (22MAR04) Global Control Blocks                                                                  Page   11
0Current Usings:  (PZERO,R0)
0Loc    Object Code    Addr1 Addr2  Stmt Lv Lineno    Source Statement           (Hibal 5, Asmedit 3.3)  HLASM R4.0  2004/03/22 09.44
+___    ______ ____    _____ _____  ____ __ ______    ______ _________
0                                   1471      13.              COPY  ACCTPARM
                                    1472             =*****************************************************************
                                    1473             =*                                                               *
                                    1474             =*  ACCTPARM -- Parameters for the Accounting Routines.          *
                                    1475             =*                                                               *
                                    1476             =*****************************************************************
-                                   1478             =*
                                    1479             =* Start accounting for an address space
                                    1480             =*
0000000                00000 0001C  1482             =@ACLOGON RECORD BEGIN
 000000                             1490  1          =@ACLASB    DS    A             ASB of the Address Space
 000004                             1491  1          =@ACLUID    DS    CL8           User ID
 00000C                             1492  1          =@ACLUPR    DS    A             User Privileges
 000010                             1493  1          =@ACLLOT    DS    D             TOD Clock at Logon
 000018                             1494  1          =@ACLTID    DS    A             Terminal ID
 00001C                0001C 0001C  1495             =         END   ,
-                                   1505             =*
                                    1506             =* Get accounting info for an address space.
                                    1507             =*
0000000                00000 00018  1509             =@ACAINFO RECORD BEGIN
 000000                             1517  1          =@ACAASB    DS    A             ASB of the address space
 000004                             1518  1          =@ACAUID    DS    CL8           User ID
 00000C                             1519  1          =@ACAUPR    DS    A             User Privileges
                                    1520  1          =MILPRIV    EQU   @ACAUPR+3     Milten priv byte *** TEMP ***
 000010                             1521  1          =@ACALOT    DS    D             TOD Clock at Logon
 000018                00018 00018  1522             =         END   ,
-                                   1532             =*
                                    1533             =* Get resource usage info for an address space
                                    1534             =*
0000000                00000 00028  1536             =@ACINFO  RECORD BEGIN
 000000                             1544  1          =@ACIASB    DS    A             ASB of the Address space
 000004                             1545  1          =@ACIIOS    DS    A             Number of I/O's
 000008                             1546  1          =@ACICPU    DS    D             CPU time (TOD)
 000010                             1547  1          =@ACICON    DS    D             Connect time (TOD)
 000018                             1548  1          =@ACIPGNM   DS    CL8           Program name
 000020                             1549  1          =@ACITID    DS    A             Terminal Identifier
 000024                             1550  1          =@ACIORG    DS    A             Shared program address
 000028                00028 00028  1551             =         END   ,
                                    1560             =*
                                    1561             =* Set program information
                                    1562             =*
0000000                00000 0000C  1564             =@ACPINFO RECORD BEGIN
 000000                             1572  1          =@ACPASB    DS    A             ASB of the Address space
 000004                             1573  1          =@ACPPGNM   DS    CL8           Program name
1TERMINAL (TERM00) (09:44) (22MAR04) Global Control Blocks                                                                  Page   12
0Current Usings:  (PZERO,R0)
0Loc    Object Code    Addr1 Addr2  Stmt Lv Lineno    Source Statement           (Hibal 5, Asmedit 3.3)  HLASM R4.0  2004/03/22 09.44
+___    ______ ____    _____ _____  ____ __ ______    ______ _________
000000C                0000C 0000C  1574             =         END   ,
                                    1583             =*
                                    1584             =* Set shared program information
                                    1585             =*
0000000                00000 00008  1587             =@ACSPINF RECORD BEGIN
 000000                             1595  1          =@ACSPASB   DS    A             ASB of the Address space
 000004                             1596  1          =@ACSPORG   DS    A             Shared program address
 000008                00008 00008  1597             =         END   ,
1TERMINAL (TERM00) (09:44) (22MAR04) Global Control Blocks                                                                  Page   13
0Current Usings:  (PZERO,R0)
0Loc    Object Code    Addr1 Addr2  Stmt Lv Lineno    Source Statement           (Hibal 5, Asmedit 3.3)  HLASM R4.0  2004/03/22 09.44
+___    ______ ____    _____ _____  ____ __ ______    ______ _________
0                                   1607      15.              COPY  DISPPARM
                                    1608             =*****************************************************************
                                    1609             =*                                                               *
                                    1610             =*  DISPPARM -- Parameters for the dispatcher global routines.   *
                                    1611             =*                                                               *
                                    1612             =*****************************************************************
-                                   1614             =*
                                    1615             =* Routines to indicate completion of a page or swap I/O
                                    1616             =*
 000000                00000 00004  1617             =@DISPPIOC RECORD BEGIN                 Page I/O completion parms
 000000                             1625  1          =@DPIOASB   DS    A                       ASB of completing I/O
 000004                00004 00004  1626             =         END   ,
0000000                00000 00004  1636             =@DISPSIOC RECORD BEGIN                 Swap I/O completion parms
 000000                             1644  1          =@DSIOASB   DS    A                       ASB of completing I/O
 000004                00004 00004  1645             =         END   ,
-                                   1655             =*
                                    1656             =* SUSPEND parameters
                                    1657             =*
0000000                00000 00009  1659             =@SUSPEND RECORD BEGIN
 000000                             1667  1          =@SUSPCTL   DS    0D            ID of the Control level suspended
 000000                             1668  1          =@SUSPID    DS    A             ID of the task/address space suspended
 000004                             1669  1          =@SUSPLC    DS    A             For tasks: Level of control suspended
 000008 00                          1670  1          =@SUSPFLG   FLAG  ,
 @SUSPFLG.@SUSPLNG 80 ONES          1674  1          =           FLAG  @SUSPLNG      This will be of long duration
 @SUSPFLG.@SUSPAS  40 ONES          1679  1          =           FLAG  @SUSPAS       Suspend the entire address space
 @SUSPFLG.@SUSPPLC 20 ONES          1684  1          =           FLAG  @SUSPPLC      Suspend previous level of control
 000009                00009 00009  1689             =         END   ,
-                                   1699             =*
                                    1700             =* RESUMAS/RESUMTS parameters
                                    1701             =*
0000000                00000 00008  1703             =@RESUME  RECORD BEGIN
 000000                             1711  1          =@RESCTL    DS    0D            ID of the unit of work to be resumed
 000000                             1712  1          =@RESUNIT   DS    A             Address of the ASB/task Id to resume
 000004                             1713  1          =@RESLC     DS    A             Level of control in a task
 000008                00008 00008  1714             =         END   ,
-                                   1724             =*
                                    1725             =* DISPSHLD/DISPSREL parmameters
                                    1726             =*
0000000                00000 00004  1728             =@DISPSWP RECORD BEGIN
 000000                             1736  1          =@DISPSAS   DS    A             Address of the ASB being manipulated
 000004                00004 00004  1737             =         END   ,
1TERMINAL (TERM00) (09:44) (22MAR04) Global Control Blocks                                                                  Page   14
0Current Usings:  (PZERO,R0)
0Loc    Object Code    Addr1 Addr2  Stmt Lv Lineno    Source Statement           (Hibal 5, Asmedit 3.3)  HLASM R4.0  2004/03/22 09.44
+___    ______ ____    _____ _____  ____ __ ______    ______ _________
0                                   1747             =*
                                    1748             =* ACREATE parameters
                                    1749             =*
0000000                00000 00008  1751             =@ACREATE RECORD BEGIN
 000000                             1759  1          =@ACRPSW    DS    D             Instruction address for task
 000008                00008 00008  1760             =         END   ,
-                                   1770             =*
                                    1771             =* TCREATE parameters
                                    1772             =*
0000000                00000 00015  1774             =@TCREATE RECORD BEGIN
 000000                             1782  1          =@TCRPSW    DS    D             Initial PSW for the task
 000008                             1783  1          =@TCRPARM   DS    2A            Parameter for the task
 000010                             1784  1          =@TCRPRIO   DS    A             Adjustment to priority from Current task
 000014 00                          1785  1          =@TCRFLAG   FLAG  ,             Task creation flags
 @TCRFLAG.@TCRFSTK 80 ONES          1789  1          =           FLAG  @TCRFSTK        Task entered with a stack
 @TCRFLAG.@TCRFPAB 40 ONES          1794  1          =           FLAG  @TCRFPABS       Prio is absolute
 000015                00015 00015  1799             =         END   ,
-                                   1809             =*
                                    1810             =* TREMOVE parameters
                                    1811             =*
0000000                00000 00004  1813             =@TREMOVE RECORD BEGIN
 000000                             1821  1          =@TREID     DS    A             ID of the task to be removed
 000004                00004 00004  1822             =         END   ,
-                                   1832             =*
                                    1833             =* TENTRY Parameters  (on entry to a created task)
                                    1834             =*
0000000                00000 00008  1836             =@TENTRY  RECORD BEGIN
 000000                             1844  1          =@TEPARM    DS    2A            Entry parm for the task
 000008                00008 00008  1845             =         END   ,
-                                   1855             =*
                                    1856             =* TEXIT parameters
                                    1857             =*
0000000                00000 00004  1859             =@TEXIT   RECORD BEGIN
 000000                             1867  1          =           DS    A             Not used
 000004                00004 00004  1868             =         END   ,
-                                   1878             =*
                                    1879             =* SYSRNEW -- Get a new SYSR ID
                                    1880             =*
1TERMINAL (TERM00) (09:44) (22MAR04) Global Control Blocks                                                                  Page   15
0Current Usings:  (PZERO,R0)
0Loc    Object Code    Addr1 Addr2  Stmt Lv Lineno    Source Statement           (Hibal 5, Asmedit 3.3)  HLASM R4.0  2004/03/22 09.44
+___    ______ ____    _____ _____  ____ __ ______    ______ _________
0000000                00000 00004  1882             =@SYSRNEW RECORD BEGIN
 000000                             1890  1          =           DS    A             Not used
 000004                00004 00004  1891             =         END   ,
-                                   1901             =*
                                    1902             =* SYSRDEL -- Delete a previous SYSR ID
                                    1903             =*
 000000                00000 00004  1904             =@SYSRDEL RECORD BEGIN
 000000                             1912  1          =@SYSRDID   DS    A             Id of the SYSR
 000004                00004 00004  1913             =         END   ,
-                                   1923             =*
                                    1924             =* SYSRDO -- Schedule a system routine to run in another address space
                                    1925             =*
0000000                00000 0001C  1927             =@SYSRDO  RECORD BEGIN
 000000                             1935  1          =@SYSRID    DS    A             Id from SYSRNEW
 000004                             1936  1          =@SYSRASB   DS    A             ASB of the Address space where it goes
 000008                             1937  1          =@SYSRLOC   DS    A             Location of the system routine
 00000C                             1938  1          =@SYSRPRM   DS    4A            Parameters for the routine
 00001C                0001C 0001C  1939             =         END   ,
-                                   1949             =*
                                    1950             =* SYSRTN -- Parameter passed to a system routine
                                    1951             =*
0000000                00000 00010  1953             =@SYSRTN  RECORD BEGIN
 000000                             1961  1          =@SYSPARS   DS    4A            Parameters
 000010                00010 00010  1962             =         END   ,
-                                   1972             =*
                                    1973             =* PERSET -- Set the Per registers
                                    1974             =*
0000000                00000 0000C  1976             =@PERSET  RECORD BEGIN
 000000                             1984  1          =@PERSDAT   DS    3F            3 Registers (corresponds to CRs 9-11)
 00000C                0000C 0000C  1985             =         END   ,
-                                   1995             =*
                                    1996             =* MONSET -- Set the MON masks
                                    1997             =*
0000000                00000 00002  1999             =@MONSET  RECORD BEGIN
 000000                             2007  1          =@MONSDAT   DS    H             Monitor Class Mask
 000002                00002 00002  2008             =         END   ,
-                                   2018             =*
                                    2019             =* DSPSTAT -- Return Dispatcher Statistics
1TERMINAL (TERM00) (09:44) (22MAR04) Global Control Blocks                                                                  Page   16
0Current Usings:  (PZERO,R0)
0Loc    Object Code    Addr1 Addr2  Stmt Lv Lineno    Source Statement           (Hibal 5, Asmedit 3.3)  HLASM R4.0  2004/03/22 09.44
+___    ______ ____    _____ _____  ____ __ ______    ______ _________
0                                   2020             =*
0000000                00000 00020  2022             =@DSPSTAT RECORD BEGIN
 000000                             2030  1          =@DSPSST    DS    D             TOD clock when system started
 000008                             2031  1          =@DSPSCHG   DS    D             Total CPU time charged (TOD)
 000010                             2032  1          =@DSPSDSP   DS    D             Dispatch CPU time (TOD)
 000018                             2033  1          =@DSPSIOS   DS    D             I/O Service time (TOD)
 000020                00020 00020  2034             =         END   ,
1TERMINAL (TERM00) (09:44) (22MAR04) Global Control Blocks                                                                  Page   17
0Current Usings:  (PZERO,R0)
0Loc    Object Code    Addr1 Addr2  Stmt Lv Lineno    Source Statement           (Hibal 5, Asmedit 3.3)  HLASM R4.0  2004/03/22 09.44
+___    ______ ____    _____ _____  ____ __ ______    ______ _________
0                                   2044      17.              COPY  LOCKPARM
                                    2045             =*******************************************************************
                                    2046             =*                                                                 *
                                    2047             =*    LOCKPARM - Lock routine calling parms                        *
                                    2048             =*                                                                 *
                                    2049             =*******************************************************************
0000000                00000 00011  2051             =@LOCKCRE RECORD BEGIN
 000000                             2059  1          =@LOCKNAM   DS    CL16          Name of the lock
 000010 00                          2060  1          =@LOCKFL    FLAG  ,
 @LOCKFL.@LFSPIN   80 ONES          2064  1          =           FLAG  @LFSPIN       Spin type lock
 000011                00011 00011  2069             =         END   ,
                                    2078             =*
 000000                00000 00004  2079             =@LOCKS   RECORD BEGIN
 000000                             2087  1          =@LOCKID    DS    A             Lock id
 000004                00004 00004  2088             =         END   ,
1TERMINAL (TERM00) (09:44) (22MAR04) Global Control Blocks                                                                  Page   18
0Current Usings:  (PZERO,R0)
0Loc    Object Code    Addr1 Addr2  Stmt Lv Lineno    Source Statement           (Hibal 5, Asmedit 3.3)  HLASM R4.0  2004/03/22 09.44
+___    ______ ____    _____ _____  ____ __ ______    ______ _________
0                                   2098      19.              COPY  IOSPARM
 000000                00000 0001E  2099             =@IOSDOIO RECORD BEGIN
 000000                             2107  1          =@IOSCHID   DS    A                       Subchannel ID
 000004                             2108  1          =@IOSID     DS    A                       I/O ID
 000008                             2109  1          =@IOSPID    DS    D                       Process ID
 000010                             2110  1          =@IOSCP     DS    A                       Channel program addr (VA)
 000014                             2111  1          =@IOSXID    DS    A                       Exit ID/Fast path rtn addr
 000018                             2112  1          =@IOSXPAR   DS    A                       Ending parameter
 00001C                             2113  1          =@IOSKEY    DS    X                       Key for I/O
 00001D 00                          2114  1          =@IOSF1     FLAG  ,
 @IOSF1.@IOSFSYNC  80 ONES          2118  1          =           FLAG  @IOSFSYNC               Do I/O synchronous
 @IOSF1.@IOSFAS    40 ONES          2123  1          =           FLAG  @IOSFAS                 | do AS waits for this I/O
 @IOSF1.@IOSFAST   20 ONES          2128  1          =           FLAG  @IOSFAST                Fast path I/O
 00001E                0001E 0001E  2133             =         END   ,
-000000                00000 00008  2143             =@IOTERM  RECORD BEGIN                  I/O termination routine parms
 000000                             2151  1          =@IOTPARM   DS    A                       Termination routine parameter
 000004                             2152  1          =@IOTEND    DS    A                       Ending status of operation
 000008                00008 00008  2153             =         END   ,
-000000                00000 00010  2163             =@IOSTIME RECORD BEGIN
 000000                             2171  1          =@IOSTID    DS    A                       I/O ID
 000008                             2172  1          =@IOSIOTIME   DS  D                       Time of this I/O
 000010                00010 00010  2173             =         END   ,
-000000                00000 00001  2183             =@IOSIDGET RECORD BEGIN
 000000 00                          2191  1          =@IOSIDF     FLAG   ,
 @IOSIDF.@IOSFWAIT 80 ONES          2195  1          =            FLAG   @IOSFWAIT             If need be, wait for id
 000001                00001 00001  2200             =          END    ,
-000000                00000 00004  2210             =@IOSIDFRE RECORD BEGIN
 000000                             2218  1          =@IOSFID     DS   A                       ID being freed
 000004                00004 00004  2219             =          END  ,
1TERMINAL (TERM00) (09:44) (22MAR04) Global Control Blocks                                                                  Page   19
0Current Usings:  (PZERO,R0)
0Loc    Object Code    Addr1 Addr2  Stmt Lv Lineno    Source Statement           (Hibal 5, Asmedit 3.3)  HLASM R4.0  2004/03/22 09.44
+___    ______ ____    _____ _____  ____ __ ______    ______ _________
0                                   2229             =         COPY  IORPARM
                                    2230             =*******************************************************************
                                    2231             =*                                                                 *
                                    2232             =*     @IORPARM - ORVYL I/O request parameters                     *
                                    2233             =*                                                                 *
                                    2234             =*******************************************************************
0000000                00000 00014  2236             =@IORB    RECORD BEGIN
 000000                             2244  1          =@IORRQID   DS    A                       Request ID
 000004                             2245  1          =@IOROFF    DS    A                       Offset (guest real to MVS)
 000008                             2246  1          =@IORPARM   DS    A                       Pointer to user parm list
 00000C                             2247  1          =@IORSCH    DS    A                       Subchannel (device ID)
 000010                             2248  1          =@IORKEY    DS    X                       Channel program protect key
 000011                             2249  1          =@IORCC     DS    X                       Condition code (returned)
 000012                             2250  1          =           DS    2X                      Reserved
 000014                00014 00014  2251             =         END   ,
-
                                    2261             =*******************************************************************
                                    2262             =*                                                                 *
                                    2263             =*     @IOUPARM - I/O Device id allocate request parameters        *
                                    2264             =*                                                                 *
                                    2265             =*******************************************************************
0000000                00000 00004  2267             =@IOUPARM RECORD BEGIN
 000000                             2275  1          =@IOUDEVT   DS    A
                                    2276  1          =*
                                    2277  1          =*  Device types
                                    2278  1          =*
                                    2279  1          =#IOUPAGE   EQU   4                       | paging
                                    2280  1          =#IOUSWAP   EQU   8                       | swap
                                    2281  1          =#IOUFILE   EQU   12                      | file
                                    2282  1          =#IOUSCOM   EQU   16                      | path
                                    2283  1          =#IOUJES    EQU   20                      | JES
                                    2284  1          =#IOUHSP    EQU   24                      | Standard hiperspace
                                    2285  1          =#IOUESO    EQU   28                      | Cached hiperspace
 000004                00004 00004  2286             =         END   ,
1TERMINAL (TERM00) (09:44) (22MAR04) Global Control Blocks                                                                  Page   20
0Current Usings:  (PZERO,R0)
0Loc    Object Code    Addr1 Addr2  Stmt Lv Lineno    Source Statement           (Hibal 5, Asmedit 3.3)  HLASM R4.0  2004/03/22 09.44
+___    ______ ____    _____ _____  ____ __ ______    ______ _________
0                                   2296      21.              COPY  TIMEPARM
                                    2297             =*****************************************************************
                                    2298             =*                                                               *
                                    2299             =*  TIMEPARM -- Parameters for the timer routines.               *
                                    2300             =*                                                               *
                                    2301             =*****************************************************************
-                                   2303             =*
                                    2304             =* Start a Real-time timer
                                    2305             =*
0000000                00000 00018  2307             =@RTSET   RECORD BEGIN
 000000                             2315  1          =@RTSCLK    DS    D             Time of day or interval in TOD format
 000008 00                          2316  1          =@RTSFLG    FLAG  ,             Request flags
 @RTSFLG.@RTSFINT  80 ONES          2320  1          =           FLAG  @RTSFINT       Interval timer
 00000C                             2325  1          =@RTSXIT    DS    A             ID of the Exit request
 000010                             2326  1          =@RTSPARM   DS    2A            Parms passed to the exit
 000018                00018 00018  2327             =         END   ,
-                                   2337             =*
                                    2338             =* Cancel (RTCAN) Or Check (RTCHK) a Real-time timer
                                    2339             =*
0000000                00000 00020  2341             =@RTCNCK  RECORD BEGIN        Cancel or Check
 000000                             2349  1          =@RTCID     DS    A             ID of the Timer
 000008                             2350  1          =@RTCCLK    DS    D             Interval until the clock expires
 000010                             2351  1          =@RTCPARM   DS    4A            Same as the parm area in exit
 000020                00020 00020  2352             =         END   ,
-                                   2362             =*
                                    2363             =* Layout of parms passed to the Real time timer exit
                                    2364             =*
0000000                00000 00010  2366             =RTEXIT   RECORD BEGIN
 000000                             2374  1          =RTXTID     DS    A             ID of the timer
 000004                             2375  1          =RTXXID     DS    A             ID of the timer Exit
 000008                             2376  1          =RTXPARM    DS    2A            Parms set when the timer was set
 000010                00010 00010  2377             =         END   ,
-                                   2387             =*
                                    2388             =* Start a CPU-time timer
                                    2389             =*
0000000                00000 00014  2391             =@CPSET   RECORD BEGIN
 000000                             2399  1          =@CPSCLK    DS    D             Time of day or interval in TOD format
 000008                             2400  1          =@CPSXIT    DS    A             ID of the Exit request
 00000C                             2401  1          =@CPSPARM   DS    2A            Parms passed to the exit
 000014                00014 00014  2402             =         END   ,
1TERMINAL (TERM00) (09:44) (22MAR04) Global Control Blocks                                                                  Page   21
0Current Usings:  (PZERO,R0)
0Loc    Object Code    Addr1 Addr2  Stmt Lv Lineno    Source Statement           (Hibal 5, Asmedit 3.3)  HLASM R4.0  2004/03/22 09.44
+___    ______ ____    _____ _____  ____ __ ______    ______ _________
0                                   2412             =*
                                    2413             =* Cancel (CPCAN) Or Check (CPCHK) a CPU-time timer
                                    2414             =*
0000000                00000 00020  2416             =@CPCNCK  RECORD BEGIN        Cancel or Check
 000000                             2424  1          =@CPCID     DS    A             ID of the Timer
 000008                             2425  1          =@CPCCLK    DS    D             Interval until the clock expires
 000010                             2426  1          =@CPCPARM   DS    4A            Same as the parm area in exit
 000020                00020 00020  2427             =         END   ,
-                                   2437             =*
                                    2438             =* Layout of parms passed to the CPU-time timer exit
                                    2439             =*
0000000                00000 00010  2441             =CPEXIT   RECORD BEGIN
 000000                             2449  1          =CPXTID     DS    A             ID of the timer
 000004                             2450  1          =CPXXID     DS    A             ID of the timer Exit
 000008                             2451  1          =CPXPARM    DS    2A            Parms set when the timer was set
 000010                00010 00010  2452             =         END   ,
1TERMINAL (TERM00) (09:44) (22MAR04) Global Control Blocks                                                                  Page   22
0Current Usings:  (PZERO,R0)
0Loc    Object Code    Addr1 Addr2  Stmt Lv Lineno    Source Statement           (Hibal 5, Asmedit 3.3)  HLASM R4.0  2004/03/22 09.44
+___    ______ ____    _____ _____  ____ __ ______    ______ _________
0                                   2462      23.              COPY  VMPARM
                                    2463             =*******************************************************************
                                    2464             =*                                                                 *
                                    2465             =*    Memory parms for inside the virtual machine.                 *
                                    2466             =*                                                                 *
                                    2467             =*******************************************************************
-000000                00000 0000B  2469             =@VMGET   RECORD BEGIN        Parm area for getting virtual memory
 000000                             2477  1          =@VMGLEN    DS    A             Amount of memory needed
 000004                             2478  1          =@VMGDAT    DS    A             More data. Address or maxlen.
 000008                             2479  1          =@VMGPOOL   DS    H             Pool/Subpool to get the memory from
 00000A 00                          2480  1          =@VMGFLG    FLAG  ,
 @VMGFLG.@VMGPAGE  80 ONES          2484  1          =           FLAG  @VMGPAGE      Page Aligned
 @VMGFLG.@VMGONEP  40 ONES          2489  1          =           FLAG  @VMGONEP      Don't cross page boundary
 00000B                0000B 0000B  2494             =         END   ,
-000000                00000 0000A  2504             =@VMFREE  RECORD BEGIN        Used for VMFREE and VMCHECK
 000000                             2512  1          =@VMFLOC    DS    A             Location of the storage to free
 000004                             2513  1          =@VMFLEN    DS    A             Amount to free
 000008                             2514  1          =@VMFPOOL   DS    H             Pool/Subpool where the storage lives
 00000A                0000A 0000A  2515             =         END   ,
-000000                00000 00009  2525             =@VMINFO  RECORD BEGIN        Returns User address limits/hash val
 000000                             2533  1          =@VMIUST    DS    A             Start of the user address space
 000004                             2534  1          =@VMIULEN   DS    A             Length of the user address space
 000008                             2535  1          =@VMITRSH   DS    X             Trash value
 000009                00009 00009  2536             =         END   ,
1TERMINAL (TERM00) (09:44) (22MAR04) Global Control Blocks                                                                  Page   23
0Current Usings:  (PZERO,R0)
0Loc    Object Code    Addr1 Addr2  Stmt Lv Lineno    Source Statement           (Hibal 5, Asmedit 3.3)  HLASM R4.0  2004/03/22 09.44
+___    ______ ____    _____ _____  ____ __ ______    ______ _________
0                                   2546      25.              COPY  VMIPARM
                                    2547             =*
                                    2548             =*  @VMIPARM -- This data area is passed to the Virtual memory
                                    2549             =*              initialization module to inform it of the storage
                                    2550             =*              areas that have already been set up.
                                    2551             =*
-000000                00000 00014  2553             =@VMIPARM RECORD BEGIN
 000000                             2561  1          =@VMIKLOC   DS    A             Starting address of the Kernel
 000004                             2562  1          =@VMIKLEN   DS    A             Length of the Kernel
 000008                             2563  1          =@VMIMLOC   DS    A             Location of the Kernel map
 00000C                             2564  1          =@VMIMLEN   DS    A             Length of the Kernel map
 000010                             2565  1          =@VMISLOC   DS    A             Location of the V=R stack (16 pages)
 000014                00014 00014  2566             =         END   ,
-                                   2576             =*
                                    2577             =*   @VMCRAS -- This data area is passed to the Address space creation
                                    2578             =*              routine.
                                    2579             =*
-000000                00000 00004  2581             =@VMCRAS  RECORD BEGIN
 000000                             2589  1          =@VMCASB    DS    A             Address of the ASB for the new AS
 000004                00004 00004  2590             =         END   ,
1TERMINAL (TERM00) (09:44) (22MAR04) Global Control Blocks                                                                  Page   24
0Current Usings:  (PZERO,R0)
0Loc    Object Code    Addr1 Addr2  Stmt Lv Lineno    Source Statement           (Hibal 5, Asmedit 3.3)  HLASM R4.0  2004/03/22 09.44
+___    ______ ____    _____ _____  ____ __ ______    ______ _________
0                                   2600      27.              COPY  PAGEPARM
                                    2601             =*
                                    2602             =*  Page fault return codes
                                    2603             =*
                                    2604             =@PFRINP  EQU   0                       Fault in progress
                                    2605             =@PFRADDR EQU   4                       Addressing exception
                                    2606             =@PFROK   EQU   8                       Fault resolved
                                    2607             =@PFRWAIT EQU   12                      Must wait for some resource
0000000                00000 00005  2609             =@PAGSWAP RECORD BEGIN
 000000                             2617  1          =@SWASB     DS    A                       Address of ASB being swapped
                                    2618  1          =* -- Return parameters --
 000004 00                          2619  1          =@SWFLG     FLAG  ,
 @SWFLG.@SWFINP    00 EQ            2623  1          =           FLAG  (@SWFINP,0,EQ)          Swap in progress
 @SWFLG.@SWFOK     04 EQ            2633  1          =           FLAG  (@SWFOK,4,EQ)           Swap done now
 @SWFLG.@SWFWAIT   08 EQ            2643  1          =           FLAG  (@SWFWAIT,8,EQ)         Must wait for some resource
 000005                00005 00005  2653             =         END   ,
0000000                00000 00004  2663             =@PAGSWADV RECORD BEGIN                 Give swap advice
 000000                             2671  1          =@ADVASB    DS    A                       ASB of advice
 000004                00004 00004  2672             =         END   ,
0000000                00000 0000D  2682             =@PAGWSMA RECORD BEGIN                  Working Set management
 000000                             2690  1          =@WSASB     DS    A                       ASB of AS to be managed
 000004                             2691  1          =@WSINT     DS    A                       Number of elapsed intervals
 000008                             2692  1          =@WSLIMIT   DS    A                       Maximum number of frames
 00000C 00                          2693  1          =@WSFLG     FLAG  ,
 @WSFLG.@WSFGLOB   80 ONES          2697  1          =           FLAG  @WSFGLOB                Manage Global AS
 00000D                0000D 0000D  2702             =         END   ,
0000000                00000 0000A  2712             =@PAGDEF  RECORD BEGIN                  Define a page
 000000                             2720  1          =@PDADDR    DS    A                       Page VA
 000004                             2721  1          =@PDLEN     DS    A                       Length of definition (bytes)
 000008                             2722  1          =@PDKEY     DS    X                       Storage key (+ key protect)
                                    2723  1          =* @PDHASH  DS    X                       Hash value for page
 000009 00                          2724  1          =@PDF1      FLAG  @PDFGLOB                In global memory
 @PDF1.@PDFGLOB    80 ONES
 @PDF1.@PDFPROT    40 ONES          2730  1          =           FLAG  @PDFPROT                Page table protection
 00000A                0000A 0000A  2735             =         END   ,
0000000                00000 0000A  2745             =@PAGSEGD RECORD BEGIN                  Define a segment
 000000                             2753  1          =@SDADDR    DS    A                       Segment address
 000004                             2754  1          =@SDLEN     DS    A                       Length of definition (bytes)
 000008                             2755  1          =@SDHASH    DS    X                       Hash value for segment
 000009 00                          2756  1          =@SDF1      FLAG  @SDFGLOB                In global memory
 @SDF1.@SDFGLOB    80 ONES
 00000A                0000A 0000A  2762             =         END   ,
0000000                00000 00008  2772             =@PAGASC1 RECORD BEGIN
 000000                             2780  1          =@ASCASB    DS    A                       ASB for AS being created
 000004                             2781  1          =@ASCWSLM   DS    A                       Maximum size of working set
 000008                00008 00008  2782             =         END   ,
0000000                00000 00005  2792             =@PAGASC2 RECORD BEGIN                  Address space creation
1TERMINAL (TERM00) (09:44) (22MAR04) Global Control Blocks                                                                  Page   25
0Current Usings:  (PZERO,R0)
0Loc    Object Code    Addr1 Addr2  Stmt Lv Lineno    Source Statement           (Hibal 5, Asmedit 3.3)  HLASM R4.0  2004/03/22 09.44
+___    ______ ____    _____ _____  ____ __ ______    ______ _________
0000000                             2800  1          =@ASCVA     DS    A                       Virtual address of 1st PT
 000004                             2801  1          =@ASCKEY    DS    X                       Storage key (+ key protect)
 000005                00005 00005  2802             =         END   ,
0000000                00000 00009  2812             =@PAGE    RECORD BEGIN                  General paging routine parms
 000000                             2820  1          =@PAGLOC    DS    A                       Virtual address
 000004                             2821  1          =@PAGLEN    DS    A                       Length (in bytes)
 000008                             2822  1          =@PAGKEY    DS    X                       Key - where required
                                    2823  1          =@PAGHASH   EQU   @PAGKEY                 Hash - where required
 000009                00009 00009  2824             =         END   ,
0000000                00000 00008  2834             =@PAGRV   RECORD BEGIN                  Real to virtual translation
 000000                             2842  1          =@PAGRVAD   DS    A                       Real addr to be translated
                                    2843  1          =* -- Return parms --
 000004                             2844  1          =@PAGRVASB   DS   A                       Address space block
 000008                00008 00008  2845             =         END   ,
0000000                00000 00004  2855             =@PAGINTV RECORD BEGIN                  Paging management interval
 000000                             2863  1          =@PAGINT    DS    A                       Number of intervals in cycle
 000004                00004 00004  2864             =         END   ,
0000000                00000 00008  2874             =@PAGINIT RECORD BEGIN                  Global initialization
 000000                             2882  1          =@PAGIASB   DS    A                       Global ASB address
 000004                             2883  1          =@PAGIMEG   DS    A                       Maximum number of bytes in VA
 000008                00008 00008  2884             =         END   ,
1TERMINAL (TERM00) (09:44) (22MAR04) Global Control Blocks                                                                  Page   26
0Current Usings:  (PZERO,R0)
0Loc    Object Code    Addr1 Addr2  Stmt Lv Lineno    Source Statement           (Hibal 5, Asmedit 3.3)  HLASM R4.0  2004/03/22 09.44
+___    ______ ____    _____ _____  ____ __ ______    ______ _________
0                                   2894      29.              COPY  XITPARM
                                    2895             =*****************************************************************
                                    2896             =*                                                               *
                                    2897             =*  XITPARM --  Parameters for the routines dealing with exit    *
                                    2898             =*              routine definition and execution.                *
                                    2899             =*                                                               *
                                    2900             =*****************************************************************
-                                   2902             =*
                                    2903             =*  @EXRADD -- Define a new exit routine.
                                    2904             =*
0000000                00000 00015  2906             =@EXRADD  RECORD BEGIN
 000000                             2914  1          =@EXRTYPE   DS    A             Exit type bit map
 000004                             2915  1          =@EXRQUAL   DS    A             Exit Qualifier
 000008                             2916  1          =@EXRPSW    DS    D             Exit PSW
 000010                             2917  1          =@EXRPARM   DS    A             Parm for the exit
 000014 00                          2918  1          =@EXRAFLG   FLAG  ,
 @EXRAFLG.@EXRAFQ  80 ONES          2922  1          =           FLAG  @EXRAFQ       Exit should be qualified
 @EXRAFLG.@EXRAFS  40 ONES          2927  1          =           FLAG  @EXRAFS       System exit (entered with a stack)
 000015                00015 00015  2932             =         END   ,
-                                   2942             =*
                                    2943             =*  @EXRDEL -- Remove an exit routine definition.
                                    2944             =*
0000000                00000 00004  2946             =@EXRDEL  RECORD BEGIN
 000000                             2954  1          =@EXRDID    DS    A             Exit routine ID
 000004                00004 00004  2955             =         END   ,
-                                   2965             =*
                                    2966             =*  @EXRDONE -- Complete exit processing.
                                    2967             =*
0000000                00000 00001  2969             =@EXRDONE RECORD BEGIN
 000000 00                          2977  1          =@EXRDCD    FLAG  ,
 @EXRDCD.@EXRDFIN  00 EQ            2981  1          =           FLAG  (@EXRDFIN,0,EQ)         No further processing needed
 @EXRDCD.@EXRDNXT  01 EQ            2991  1          =           FLAG  (@EXRDNXT,1,EQ)         Percolate the exit request
 000001                00001 00001  3001             =         END   ,
-                                   3011             =*
                                    3012             =*  @XITNEW -- Define a new exit request.
                                    3013             =*
0000000                00000 00001  3015             =@XITNEW  RECORD BEGIN
 000000 00                          3023  1          =@XITNFL    FLAG  ,
 @XITNFL.@XITNFG   80 ONES          3027  1          =           FLAG  @XITNFG       Global exit request
 000001                00001 00001  3032             =         END   ,
1TERMINAL (TERM00) (09:44) (22MAR04) Global Control Blocks                                                                  Page   27
0Current Usings:  (PZERO,R0)
0Loc    Object Code    Addr1 Addr2  Stmt Lv Lineno    Source Statement           (Hibal 5, Asmedit 3.3)  HLASM R4.0  2004/03/22 09.44
+___    ______ ____    _____ _____  ____ __ ______    ______ _________
0                                   3042             =*
                                    3043             =*  @XITDEL -- Delete an exit request
                                    3044             =*
0000000                00000 00004  3046             =@XITDEL  RECORD BEGIN
 000000                             3054  1          =@XITDID    DS    A             Exit request ID
 000004                00004 00004  3055             =         END   ,
-                                   3065             =*
                                    3066             =*  @XITDO -- Schedule an exit.
                                    3067             =*
 000000                00000 00020  3068             =@XITDO   RECORD BEGIN
 000000                             3076  1          =@XITRQID   DS    A             Request ID (from XITNEW)
 000004                             3077  1          =@XITTSK    DS    A             Task Id where this exit is to run
 000008                             3078  1          =@XITTYPE   DS    X             Exit type (Integer)
 00000C                             3079  1          =@XITQUAL   DS    A             Exit qualifier
 000010                             3080  1          =@XITPARM   DS    XL16          Exit parameter area
 000020                00020 00020  3081             =         END   ,
-                                   3091             =*
                                    3092             =*  @XITGPST -- Info about the status of the previous level of control
                                    3093             =*              used by XITGST and XITPST
                                    3094             =*
0000000                00000 00068  3096             =@XITGPST RECORD BEGIN
 000000                             3104  1          =@XITSPSW   DS    D             PSW
 000008                             3105  1          =@XITSGPR   DS    16F           GPRs
 000048                             3106  1          =@XITSFPR   DS    4D            FPRs
 000068                00068 00068  3107             =         END   ,
-                                   3117             =*
                                    3118             =*  @XITMASK -- Modify the current exit mask
                                    3119             =*
0000000                00000 00005  3121             =@XITMASK RECORD BEGIN
 000000                             3129  1          =@XITMSK    DS    A             Bit mask of the data
 000004 00                          3130  1          =@XITMREQ   FLAG  ,             Request type
 @XITMREQ.@XITMSO  00 EQ            3134  1          =           FLAG  (@XITMSO,0,EQ)  OR this data into the mask
 @XITMREQ.@XITMSN  01 EQ            3144  1          =           FLAG  (@XITMSN,1,EQ)  AND this data into the mask
 @XITMREQ.@XITMSS  02 EQ            3154  1          =           FLAG  (@XITMSS,2,EQ)  Store this data into the mask
 000005                00005 00005  3164             =         END   ,
-                                   3174             =*
                                    3175             =* Definition of the types of exits
                                    3176             =*
0                                   3178             =XITTPI   EQU    0          * Program interrupt
                                    3179             =XITTSVC  EQU    1          * Supervisor Call
                                    3180             =XITTRTC  EQU    2            Real time clock expiration
                                    3181             =XITTCTC  EQU    3            CPU time clock expiration
1TERMINAL (TERM00) (09:44) (22MAR04) Global Control Blocks                                                                  Page   28
0Current Usings:  (PZERO,R0)
0Loc    Object Code    Addr1 Addr2  Stmt Lv Lineno    Source Statement           (Hibal 5, Asmedit 3.3)  HLASM R4.0  2004/03/22 09.44
+___    ______ ____    _____ _____  ____ __ ______    ______ _________
0                                   3182             =XITTPER  EQU    4            Program Event
                                    3183             =XITTMON  EQU    5            Monitor Call
                                    3184             =XITTLGO  EQU    6            Logoff
                                    3185             =XITTR07  EQU    7            -- reserved --
                                    3186             =XITTATTN EQU    8            Attention
                                    3187             =XITTIOCN EQU    9            I/O Completed normally
                                    3188             =XITTIOCA EQU   10            I/O Completed abnormally
-                                   3190             =*
                                    3191             =* Definition of the exit mask
                                    3192             =*
0000000                00000 00004  3194             =XITMSKD  RECORD BEGIN
                                    3202  1          =
 000000 00                          3203  1          =MITMK1     FLAG  ,             First byte of the mask
 MITMK1.XITMPI     80 ONES          3207  1          =           FLAG  XITMPI          Program interrupt
 MITMK1.XITMSVC    40 ONES          3212  1          =           FLAG  XITMSVC         Supervisor Call
 MITMK1.XITMRTC    20 ONES          3217  1          =           FLAG  XITMRTC         Real time clock expiration
 MITMK1.XITMCTC    10 ONES          3222  1          =           FLAG  XITMCTC         CPU time clock expiration
 MITMK1.XITMPER    08 ONES          3227  1          =           FLAG  XITMPER         Program Event
 MITMK1.XITMMON    04 ONES          3232  1          =           FLAG  XITMMON         Monitor Call
 MITMK1.XITMLGO    02 ONES          3237  1          =           FLAG  XITMLGO         Logoff
 MITMK1.XITMR07    01 ONES          3242  1          =           FLAG  XITMR07         -- reserved --
                                    3247  1          =
 000001 00                          3248  1          =MITMK2     FLAG  ,             Second byte of the mask
 MITMK2.XITMATTN   80 ONES          3252  1          =           FLAG  XITMATTN        Attention
 MITMK2.XITMIOCN   40 ONES          3257  1          =           FLAG  XITMIOCN        I/O Completed normally
 MITMK2.XITMIOCA   20 ONES          3262  1          =           FLAG  XITMIOCA        I/O Completed abnormally
                                    3267  1          =
 000002 00                          3268  1          =MITMK3     FLAG  ,             Third byte of the mask
                                    3272  1          =
 000003 00                          3273  1          =MITMK4     FLAG  ,             Fourth byte of the mask
 000004                00004 00004  3277             =         END   ,
-                                   3287             =*
                                    3288             =* Definition of Exit routine entry data area
                                    3289             =*
0000000                00000 00004  3291             =@XITDATA RECORD BEGIN
 000000                             3299  1          =@XITDSA    DS    A             Pointer to XITSAREA (exit status area)
 000004                00004 00004  3300             =         END   ,
-                                   3310             =*
                                    3311             =* Definition of the Exit Status area
                                    3312             =*
0000000                00000 0001C  3314             =XITSAREA RECORD BEGIN
 000000                             3322  1          =XITSRPRM   DS    A             Parm value for the Routine
 000004                             3323  1          =XITSTYPE   DS    X             Type of the exit
 000008                             3324  1          =XITSQUAL   DS    A             Exit Qualifier
 00000C                             3325  1          =XITSXPRM   DS    XL16          Exit parameter area
1TERMINAL (TERM00) (09:44) (22MAR04) Global Control Blocks                                                                  Page   29
0Current Usings:  (PZERO,R0)
0Loc    Object Code    Addr1 Addr2  Stmt Lv Lineno    Source Statement           (Hibal 5, Asmedit 3.3)  HLASM R4.0  2004/03/22 09.44
+___    ______ ____    _____ _____  ____ __ ______    ______ _________
000001C                0001C 0001C  3326             =         END   ,
1TERMINAL (TERM00) (09:44) (22MAR04) Global Control Blocks                                                                  Page   30
0Current Usings:  (PZERO,R0)
0Loc    Object Code    Addr1 Addr2  Stmt Lv Lineno    Source Statement           (Hibal 5, Asmedit 3.3)  HLASM R4.0  2004/03/22 09.44
+___    ______ ____    _____ _____  ____ __ ______    ______ _________
0                                   3336      31.              COPY  TERMPARM
                                    3337             =*****************************************************************
                                    3338             =*                                                               *
                                    3339             =*  TERMPARM -- Parameters dealing with Terminal I/O.            *
                                    3340             =*                                                               *
                                    3341             =*****************************************************************
-                                   3343             =*
                                    3344             =*  M1TERM  --  Mode 1 terminal operation
                                    3345             =*
0000000                00000 0001B  3347             =@M1TERM  RECORD BEGIN
 000000                             3355  1          =@M1TR01    DS    A             Contents of R1 at SVC time
 000004                             3356  1          =@M1TR14    DS    A             Contents of R14 at SVC time
 000008                             3357  1          =@M1TR15    DS    A             Contents of R15 at SVC time
 00000C                             3358  1          =@M1TRQID   DS    A             Request ID
 000010                             3359  1          =@M1TPGM    DS    CL8           Current program name
                                    3360  1          =
 000018 00                          3361  1          =@M1TFLG    FLAG  ,
 @M1TFLG.@M1TFRUN  80 ONES          3365  1          =           FLAG  @M1TFRUN      Program is running (not session break)
 @M1TFLG.@M1TFAUTH 40 ONES          3370  1          =           FLAG  @M1TFAUTH     Program is authorized
 @M1TFLG.@M1TFM31  20 ONES          3375  1          =           FLAG  @M1TFM31      Program is in 31 bit mode
                                    3380  1          =
 000019                             3381  1          =@M1TPKEY   DS    X             PSW key of requestor
                                    3382  1          =
 00001A 00                          3383  1          =@M1TTYPE   FLAG  ,             I/O type (READ,WRITE,CONTROL,HALT)
 @M1TTYPE.@M1TREAD 04 EQ            3387  1          =           FLAG  (@M1TREAD,4,EQ)   Read
 @M1TTYPE.@M1TWRIT 08 EQ            3397  1          =           FLAG  (@M1TWRIT,8,EQ)   Write
 @M1TTYPE.@M1TCNTL 0C EQ            3407  1          =           FLAG  (@M1TCNTL,12,EQ)  Control
 @M1TTYPE.@M1THALT 10 EQ            3417  1          =           FLAG  (@M1THALT,16,EQ)  Halt
 00001B                0001B 0001B  3427             =         END   ,
-                                   3437             =*
                                    3438             =*   @TERMUINF -- Parameters for User Terminal information request
                                    3439             =*
 000000                00000 00008  3440             =@TERUINF RECORD BEGIN
 000000                             3448  1          =@TERUTYP   DS    CL8                     Return area for terminal type
 000008                00008 00008  3449             =         END   ,
                                    3458             =*
                                    3459             =*   M1TIOCP -- This area maps the parm area of the terminal I/O
                                    3460             =*              complete exit.
                                    3461             =*
-000000                00000 00010  3463             =@M1TIOCP RECORD BEGIN
 000000                             3471  1          =@M1TICRQ   DS    A             Request ID
 000004                             3472  1          =@M1TIR01   DS    A             Value of R1 to be returned to user
 000008                             3473  1          =@M1TIR14   DS    A             Value of R14 to be returned to user
 00000C                             3474  1          =@M1TIR15   DS    A             Value of R15 to be returned to user
                                    3475  1          =
                                    3476  1          =@M1TINRV   EQU   X'80'         Value should not be returned
 000010                00010 00010  3477             =         END   ,
1TERMINAL (TERM00) (09:44) (22MAR04) Global Control Blocks                                                                  Page   31
0Current Usings:  (PZERO,R0)
0Loc    Object Code    Addr1 Addr2  Stmt Lv Lineno    Source Statement           (Hibal 5, Asmedit 3.3)  HLASM R4.0  2004/03/22 09.44
+___    ______ ____    _____ _____  ____ __ ______    ______ _________
0                                   3487             =*
                                    3488             =*   M1TATP  -- This area maps the parm area of the terminal ATTN
                                    3489             =*              exit.
                                    3490             =*
-000000                00000 00010  3492             =@M1TATP  RECORD BEGIN
 000000                             3500  1          =@M1TATRQ   DS    A             Request ID passed at last I/O
 000004                             3501  1          =@M1TATCT   DS    A             Addr of 1 byte count of ATTNs since read
 000008                             3502  1          =           DS    2A            Reserved
 000010                00010 00010  3503             =         END   ,
1TERMINAL (TERM00) (09:44) (22MAR04) Global Control Blocks                                                                  Page   32
0Current Usings:  (PZERO,R0)
0Loc    Object Code    Addr1 Addr2  Stmt Lv Lineno    Source Statement           (Hibal 5, Asmedit 3.3)  HLASM R4.0  2004/03/22 09.44
+___    ______ ____    _____ _____  ____ __ ______    ______ _________
0                                   3513      33.              COPY  PARMPARM
                                    3514             =*********************************************************************
                                    3515             =*                                                                   *
                                    3516             =*          Parameters to obtain initialization parameters           *
                                    3517             =*                                                                   *
                                    3518             =*********************************************************************
0000000                00000 00010  3520             =@PARMDO  RECORD BEGIN
 000000                             3528  1          =@PARILOC   DS    A                       Input location
 000004                             3529  1          =@PARILEN   DS    A                       | length
 000008                             3530  1          =@PAROLOC   DS    A                       Output location
 00000C                             3531  1          =@PAROLEN   DS    A                       | length
 000010                00010 00010  3532             =         END   ,
0000000                00000 00004  3542             =PARMIN   RECORD BEGIN
 000000 00                          3550  1          =PARMTYPE   FLAG  ,
 PARMTYPE.PARMFSTR 00 EQ            3554  1          =           FLAG  (PARMFSTR,0,EQ)         Return a string
 PARMTYPE.PARMFINT 04 EQ            3564  1          =           FLAG  (PARMFINT,4,EQ)         Return an integer
 PARMTYPE.PARMFYN  08 EQ            3574  1          =           FLAG  (PARMFYN,8,EQ)          Return Yea or Nay
 PARMTYPE.PARMFFLT 0C EQ            3584  1          =           FLAG  (PARMFFLT,12,EQ)        Return a floating point
 000001                             3594  1          =           DS    3X                      - Available -
 000004                             3595  1          =PARMKEYS   DS    0A                      Start of 8 byte keys
 000004                00004 00004  3596             =         END   ,
1TERMINAL (TERM00) (09:44) (22MAR04) Global Control Blocks                                                                  Page   33
0Current Usings:  (PZERO,R0)
0Loc    Object Code    Addr1 Addr2  Stmt Lv Lineno    Source Statement           (Hibal 5, Asmedit 3.3)  HLASM R4.0  2004/03/22 09.44
+___    ______ ____    _____ _____  ____ __ ______    ______ _________
0                                   3606      35.              COPY  SCOMPARM
                                    3607             =*****************************************************************
                                    3608             =*                                                               *
                                    3609             =*  SCOMPARM -- I/O parameters for SCOM devices (paths)          *
                                    3610             =*                                                               *
                                    3611             =*****************************************************************
-                                   3613             =*
                                    3614             =* Prefix for every request
                                    3615             =*
0000000                00000 00004  3617             =#SCOMCMD RECORD BEGIN
 000000                             3625  1          =#SCCMD     DS    A             Request code
                                    3626  1          =*
                                    3627  1          =* SCOM I/O command codes
                                    3628  1          =*
                                    3629  1          =#SCCOPEN   EQU   4             Open the path
                                    3630  1          =#SCCCLOS   EQU   8             Close the path
                                    3631  1          =#SCCSEND   EQU   12            Send a buffer
                                    3632  1          =#SCCRECV   EQU   16            Receive a buffer
                                    3633  1          =#SCCPOST   EQU   32            Post partner
                                    3634  1          =#SCCINFO   EQU   36            Get info about the Path
                                    3635  1          =#SCCNOTE   EQU   40            Notify (Wait for post/Return flags)
                                    3636  1          =*
                                    3637  1          =* Ending status
                                    3638  1          =*
                                    3639  1          =#SCESOK    EQU   0             OK (OPEN,CLOS,POST,SEND,RECV,INFO)
                                    3640  1          =#SCESFQ    EQU   12            Full queue (SEND)
                                    3641  1          =#SCESNP    EQU   16            No partner (POST,SEND,RECV,INFO)
                                    3642  1          =#SCESBOM   EQU   20            Buffer over maximum (SEND)
                                    3643  1          =#SCESBS    EQU   24            Input buffer too small (RECV)
                                    3644  1          =#SCESIBP   EQU   28            Invalid buffer pointer (SEND,RECV)
                                    3645  1          =#SCESIAD   EQU   32            Invalid address (SEND,RECV)
 000004                00004 00004  3646             =         END   ,
-                                   3656             =*
                                    3657             =* SCOM Open request format
                                    3658             =*
0000000                00000 00020  3660             =#SCOPEN  RECORD BEGIN
 000000                             3668  1          =           DS    XL(L'#SCOMCMD)
 000004                             3669  1          =#SCOME     DS    CL8           My name
 00000C                             3670  1          =#SCOYOU    DS    CL8           Your name
 000014                             3671  1          =#SCOPASS   DS    CL4           Password
 000018                             3672  1          =#SCOBUFL   DS    A             Max size of outstanding receive buffs
 00001C                             3673  1          =#SCOINFO   DS    A             Pointer to Info Area
 000020                00020 00020  3674             =         END   ,
-                                   3684             =*
                                    3685             =* SCOM Close request format
                                    3686             =*
1TERMINAL (TERM00) (09:44) (22MAR04) Global Control Blocks                                                                  Page   34
0Current Usings:  (PZERO,R0)
0Loc    Object Code    Addr1 Addr2  Stmt Lv Lineno    Source Statement           (Hibal 5, Asmedit 3.3)  HLASM R4.0  2004/03/22 09.44
+___    ______ ____    _____ _____  ____ __ ______    ______ _________
0000000                00000 00004  3688             =#SCCLOSE RECORD BEGIN
 000000                             3696  1          =           DS    XL(L'#SCOMCMD)
 000004                00004 00004  3697             =         END   ,
-                                   3707             =*
                                    3708             =* SCOM Post request format
                                    3709             =*
0000000                00000 00004  3711             =#SCPOST  RECORD BEGIN
 000000                             3719  1          =           DS    XL(L'#SCOMCMD)
 000004                00004 00004  3720             =         END   ,
-                                   3730             =*
                                    3731             =* SCOM Send/Receive request format
                                    3732             =*
0000000                00000 00018  3734             =#SCSR    RECORD BEGIN
 000000                             3742  1          =           DS    XL(L'#SCOMCMD)
 000004                             3743  1          =#SCSRLEN   DS    A             Total length of the buffer
 000008                             3744  1          =#SCSRCT    DS    A             Number of segments
 00000C 00                          3745  1          =#SCSRFLG   FLAG
 #SCSRFLG.#SCRMORE 80 ONES          3749  1          =           FLAG  #SCRMORE      Additional buffers waiting (Receive)
 #SCSRFLG.#SCRNONE 40 ONES          3754  1          =           FLAG  #SCRNONE      No buffers were waiting (Receive)
 000010                             3759  1          =#SCSRRLN   DS    A             Actual length returned (Receive)
 000018                             3760  1          =#SCSRSEG   DS    0D            Start of the segments
 000018                00018 00018  3761             =         END   ,
-                                   3771             =*
                                    3772             =* SCOM Info request format
                                    3773             =*
0000000                00000 00010  3775             =#SCINFO  RECORD BEGIN
 000000                             3783  1          =           DS    XL(L'#SCOMCMD)
 000004                             3784  1          =#SCIPART   DS    CL8           Partner's name (path name)
 00000C                             3785  1          =#SCIASCB   DS    A             Address of the partner's ASCB (MVS virt)
 000010                00010 00010  3786             =         END   ,
-                                   3796             =*
                                    3797             =* SCOM Notify request format
                                    3798             =*
0000000                00000 00004  3800             =#SCNOTE  RECORD BEGIN
 000000                             3808  1          =           DS    XL(L'#SCOMCMD)
 000004                00004 00004  3809             =         END   ,
                                    3818      36.     SCOMPLEN EQU   L'#SCSR+20*8            Room for 20 Segments
1TERMINAL (TERM00) (09:44) (22MAR04) Local Macros                                                                           Page   35
0Current Usings:  (PZERO,R0)
0Loc    Object Code    Addr1 Addr2  Stmt Lv Lineno    Source Statement           (Hibal 5, Asmedit 3.3)  HLASM R4.0  2004/03/22 09.44
+___    ______ ____    _____ _____  ____ __ ______    ______ _________
0                                   3820      38.              MACRO
                                    3821      39.     &L       FIX   &LOC,&LEN
                                    3822      40.     &L       PSET  @PAGE
                                    3823      41.              PMOV  @PAGLOC,&LOC,OP=LA
                                    3824      42.              PMOV  @PAGLEN,&LEN,OP=LA
                                    3825      43.              VCALL PAGFIX
                                    3826      44.              MEND
-                                   3828      46.              MACRO
                                    3829      47.     &L       UNFIX &LOC,&LEN
                                    3830      48.     &L       PSET  @PAGE
                                    3831      49.              PMOV  @PAGLOC,&LOC,OP=LA
                                    3832      50.              PMOV  @PAGLEN,&LEN,OP=LA
                                    3833      51.              VCALL PAGUFIX
                                    3834      52.              MEND
-                                   3836      54.              MACRO
                                    3837      55.     &L       ADDSG &LOC,&LEN,&PARM
                                    3838      56.     &L       PSET  @ADDSEG,CLEAR=NO
                                    3839      57.              PMOV  @ADDSLOC,&LOC,OP=LA
                                    3840      58.              PMOV  @ADDSLEN,&LEN,OP=LA
                                    3841      59.              PMOV  @ADDSPA,&PARM,OP=LA
                                    3842      60.              ACALL ADDSEG
                                    3843      61.              MEND  ,
-                                   3845      63.              MACRO
                                    3846      64.     &L       FREEB &TBUF
                                    3847      65.     &L       PSET  @FRTBUF
                                    3848      66.              PMOV  @FRTBLOC,&TBUF,OP=LA
                                    3849      67.              ACALL FREETBUF
                                    3850      68.              MEND  ,
1TERMINAL (TERM00) (09:44) (22MAR04) Local Macros                                                                           Page   36
0Current Usings:  (PZERO,R0)
0Loc    Object Code    Addr1 Addr2  Stmt Lv Lineno    Source Statement           (Hibal 5, Asmedit 3.3)  HLASM R4.0  2004/03/22 09.44
+___    ______ ____    _____ _____  ____ __ ______    ______ _________
0                                   3852      70.              MACRO
                                    3853      71.     &L       VALBUF &LOC,&LEN,&KEY,&TYPE
                                    3854      72.     &L       PSET  @VALBUF
                                    3855      73.              PMOV  @VALBLOC,&LOC,OP=L
                                    3856      74.              PMOV  @VALBLEN,&LEN,OP=LH
                                    3857      75.              PMOV  @VALBKEY,&KEY,OP=IC
                                    3858      76.              AIF   ('&TYPE' NE 'W').NOWRT
                                    3859      77.              SET   @VALBWRT
                                    3860      78.     .NOWRT   ANOP
                                    3861      79.              ACALL VALBUF
                                    3862      80.              MEND
1TERMINAL (TERM00) (09:44) (22MAR04) Local Control Blocks                                                                   Page   37
0Current Usings:  (PZERO,R0)
0Loc    Object Code    Addr1 Addr2  Stmt Lv Lineno    Source Statement           (Hibal 5, Asmedit 3.3)  HLASM R4.0  2004/03/22 09.44
+___    ______ ____    _____ _____  ____ __ ______    ______ _________
0                                   3864      82.     *****************************************************************
                                    3865      83.     *                                                               *
                                    3866      84.     *    GTCT  --  Global Terminal Control Table.  This is the main *
                                    3867      85.     *              terminal control block for the system.  It is    *
                                    3868      86.     *              pointed to by the MAT.                           *
                                    3869      87.     *                                                               *
                                    3870      88.     *****************************************************************
-000000                00000 00028  3872      90.     GTCT     RECORD BEGIN
 000000 C7E3C3E3                    3880  1   91.                DC    C'GTCT'       Control block ID
 000004                             3881  1   92.     GTCTLOCK   DS    A             Lock ID for GTCT related resources
                                    3882  1   93.     *
                                    3883  1   94.     * Terminal buffer information
                                    3884  1   95.     *
 000008                             3885  1   96.     GTCTTBSZ   DS    H             Total size of the TBUFs (incl. header)
 00000C                             3886  1   97.     GTCTTBTC   DS    A             Total count of TBUFs obtained
 000010                             3887  1   98.     GTCTTBFC   DS    A             Count of the TBUFs on the free queue
 000018                             3888  1   99.                DS    0D
 000018                             3889  1  100.     GTCTTBFL   DS    A             Free list of the TBUFs
 00001C                             3890  1  101.                DS    A             Control word for the Free list
                                    3891  1  102.     *
                                    3892  1  103.     * Terminal device specific control blocks
                                    3893  1  104.     *
 000020                             3894  1  105.     GTCTMILC   DS    A             Address of the MILTEN control block
                                    3895  1  106.     *
                                    3896  1  107.     * Terminal Driver Address space IDs
                                    3897  1  108.     *
 000024                             3898  1  109.     GTMILAS    DS    A             Address of the MILTEN driver ASB
 000028                00028 00028  3899     110.              END   ,
1TERMINAL (TERM00) (09:44) (22MAR04) Local Control Blocks                                                                   Page   38
0Current Usings:  (PZERO,R0)
0Loc    Object Code    Addr1 Addr2  Stmt Lv Lineno    Source Statement           (Hibal 5, Asmedit 3.3)  HLASM R4.0  2004/03/22 09.44
+___    ______ ____    _____ _____  ____ __ ______    ______ _________
0                                   3909     112.     *****************************************************************
                                    3910     113.     *                                                               *
                                    3911     114.     *    TBUF  --  Terminal I/O buffer.                             *
                                    3912     115.     *                                                               *
                                    3913     116.     *****************************************************************
-000000                00000 00010  3915     118.     TBUF     RECORD BEGIN
 000000 E3C2E4C6                    3923  1  119.                DC    C'TBUF'       Control block ID
 000004                             3924  1  120.     TBUFNEXT   DS    A             Next TBUF in the list
 000008                             3925  1  121.     TBUFMAXL   DS    H             Maximum length of the data
 00000A                             3926  1  122.     TBUFLEN    DS    H             Actual length of the data
 000010                             3927  1  123.     TBUFDATA   DS    0D            Start of the data
 000010                00010 00010  3928     124.              END   ,
1TERMINAL (TERM00) (09:44) (22MAR04) MILTEN Terminal Control Blocks                                                         Page   39
0Current Usings:  (PZERO,R0)
0Loc    Object Code    Addr1 Addr2  Stmt Lv Lineno    Source Statement           (Hibal 5, Asmedit 3.3)  HLASM R4.0  2004/03/22 09.44
+___    ______ ____    _____ _____  ____ __ ______    ______ _________
0                                   3938     126.     *****************************************************************
                                    3939     127.     *                                                               *
                                    3940     128.     *   MILCB  --  MILTEN control block. This area contains info    *
                                    3941     129.     *              about the state of the MILTEN terminal           *
                                    3942     130.     *              interface.                                       *
                                    3943     131.     *                                                               *
                                    3944     132.     *****************************************************************
-000000                00000 00039  3946     134.     MILCB    RECORD BEGIN
 000000 D4C9D3C3                    3954  1  135.                DC    C'MILC'       Control block ID
 000004                             3955  1  136.     MILMAXLN   DS    H             Maximum MILTEN line number
 000008                             3956  1  137.     MILCLTAB   DS    A             Address of the line table
                                    3957  1  138.     *
                                    3958  1  139.     * Milten Subsystem identification
                                    3959  1  140.     *
 00000C                             3960  1  141.     MILONAM    DS    CL8           Our name to Milten
 000014                             3961  1  142.     MILMNAM    DS    CL8           His name to us
 00001C                             3962  1  143.     MILWNAM    DS    CL8           Wylbur's name to us
 000024                             3963  1  144.     MILPASS    DS    CL4           Password for the path
                                    3964  1  145.     *
                                    3965  1  146.     * Path I/O information
                                    3966  1  147.     *
 000028                             3967  1  148.     MILCIOCB   DS    A             Addr of I/O control block
 00002C                             3968  1  149.     MILCIOPA   DS    A             I/O parameter area
 000030                             3969  1  150.     MILCPATH   DS    A             Device ID of the Milten path
                                    3970  1  151.     *
                                    3971  1  152.     * Full Queue information
                                    3972  1  153.     *
 000034                             3973  1  154.     MILCFQCB   DS    A             Addr of Full queue control block
                                    3974  1  155.     *
                                    3975  1  156.     * Path status
                                    3976  1  157.     *
 000038 00                          3977  1  158.     MILCFLG    FLAG  ,             Path status flags (same as PATHFL)
 MILCFLG.CLOSED    80 ONES          3981  1  159.                FLAG  CLOSED          The path closed
 MILCFLG.FULLQE    40 ONES          3986  1  160.                FLAG  FULLQE          His full queue emptied
 MILCFLG.NEWINFO   20 ONES          3991  1  161.                FLAG  NEWINFO         New information pending
 MILCFLG.DISCPOST  10 ONES          3996  1  162.                FLAG  DISCPOST        Discretionary post
 MILCFLG.OPENED    08 ONES          4001  1  163.                FLAG  OPENED          The partner opened his end
 000039                00039 00039  4006     164.              END   ,
1TERMINAL (TERM00) (09:44) (22MAR04) MILTEN Terminal Control Blocks                                                         Page   40
0Current Usings:  (PZERO,R0)
0Loc    Object Code    Addr1 Addr2  Stmt Lv Lineno    Source Statement           (Hibal 5, Asmedit 3.3)  HLASM R4.0  2004/03/22 09.44
+___    ______ ____    _____ _____  ____ __ ______    ______ _________
0                                   4016     166.     *****************************************************************
                                    4017     167.     *                                                               *
                                    4018     168.     *    FQCB  --  Full Queue control block.  This block lives in   *
                                    4019     169.     *              global storage and acts as an anchor for the     *
                                    4020     170.     *              MFQEs.                                           *
                                    4021     171.     *                                                               *
                                    4022     172.     *****************************************************************
-000000                00000 00014  4024     174.     FQCB     RECORD BEGIN
 000000 C6D8C3C2                    4032  1  175.                DC    C'FQCB'       Control block ID
 000004                             4033  1  176.     FQCBCNT    DS    A             Count of the full Q's
 000008                             4034  1  177.     FQCBLOCK   DS    A             Lock ID of chain lock
 00000C                             4035  1  178.     FQCBHEAD   DS    A             Address of the oldest MFQE
 000010                             4036  1  179.     FQCBTAIL   DS    A             Address of the newest MFQE
 000014                00014 00014  4037     180.              END   ,
1TERMINAL (TERM00) (09:44) (22MAR04) MILTEN Terminal Control Blocks                                                         Page   41
0Current Usings:  (PZERO,R0)
0Loc    Object Code    Addr1 Addr2  Stmt Lv Lineno    Source Statement           (Hibal 5, Asmedit 3.3)  HLASM R4.0  2004/03/22 09.44
+___    ______ ____    _____ _____  ____ __ ______    ______ _________
0                                   4047     182.     *****************************************************************
                                    4048     183.     *                                                               *
                                    4049     184.     *     MIB  --  Milten terminal initialization block.  This is   *
                                    4050     185.     *              allocated from global storage and pointed to by  *
                                    4051     186.     *              the ASB until initialization is finished.        *
                                    4052     187.     *                                                               *
                                    4053     188.     *****************************************************************
-000000                00000 00010  4055     190.     MIB      RECORD BEGIN
 000000 D4C9C240                    4063  1  191.                DC    C'MIB '       Control block ID
 000004                             4064  1  192.     MIBTBUF    DS    A             Address of the logon PDB TBUF
 000008                             4065  1  193.     MIBPATH    DS    A             Device ID of the MILTEN path
 00000C                             4066  1  194.     MIBFQCB    DS    A             Address of the Full Queue control block
 000010                00010 00010  4067     195.              END   ,
1TERMINAL (TERM00) (09:44) (22MAR04) MILTEN Terminal Control Blocks                                                         Page   42
0Current Usings:  (PZERO,R0)
0Loc    Object Code    Addr1 Addr2  Stmt Lv Lineno    Source Statement           (Hibal 5, Asmedit 3.3)  HLASM R4.0  2004/03/22 09.44
+___    ______ ____    _____ _____  ____ __ ______    ______ _________
0                                   4077     197.     *****************************************************************
                                    4078     198.     *                                                               *
                                    4079     199.     *    MTCB  --  MILTEN Terminal Control block.  This area        *
                                    4080     200.     *              lives in local storage and contains much of the  *
                                    4081     201.     *              device specific information neede for MILTEN     *
                                    4082     202.     *              terminals.                                       *
                                    4083     203.     *                                                               *
                                    4084     204.     *****************************************************************
-000000                00000 00084  4086     206.     MTCB     RECORD BEGIN
 000000 D4E3C3C2                    4094  1  207.                DC    C'MTCB'       Control block ID
 000004                             4095  1  208.     MTCBLINE   DS    H             Milten line number
 000006                             4096  1  209.     MTCBWYLN   DS    CL8           Wylbur's name
 000010                             4097  1  210.     MTCBPATH   DS    A             Device ID for the Milten path
 000014                             4098  1  211.     MTCBFQCB   DS    A             Address of the FQCB
 000018                             4099  1  212.     MTCBPDB    DS    A             PDB for I/O
 00001C                             4100  1  213.     MTCBSIB    DS    A             Address of our copy of the Milten SIB
 000020                             4101  1  214.     MTCBIOPA   DS    A             Address of the SCOM I/O parm area
 000024                             4102  1  215.     MTCBWMW    DS    A             Current Wylbur mode word
 000028 00                          4103  1  216.     MTCBFLGS   FLAG  ,             Milten flags
 MTCBFLGS.MTFLFRED 80 ONES          4107  1  217.                FLAG  MTFLFRED        First read edit done
 MTCBFLGS.MTFLSLOW 40 ONES          4112  1  218.                FLAG  MTFLSLOW        The current I/O is a slow one
 MTCBFLGS.MTFLWATN 20 ONES          4117  1  219.                FLAG  MTFLWATN        Signal an attn to WYLBUR
 MTCBFLGS.MTFLWCME 10 ONES          4122  1  220.                FLAG  MTFLWCME        Signal command error to WYLBUR
 MTCBFLGS.MTFLLGOF 08 ONES          4127  1  221.                FLAG  MTFLLGOF        Logging off
                                    4132  1  222.
 00002C                             4133  1  223.     MTCBTBUF   DS    A             Return buffer from Milten
 000030                             4134  1  224.     MTCBTKID   DS    D             ID of task to wake upon milten response
 000038                             4135  1  225.     MTCBIOCP   DS    A             Exit request ID for I/O complete
 00003C                             4136  1  226.     MTCBATTN   DS    A             Exit request ID for Attention
 000040                             4137  1  227.     MTCBTIMO   DS    A             Exit request ID for timeout
 000044                             4138  1  228.     MTCBLGOF   DS    A             Exit request ID for logoff
                                    4139  1  229.     *
                                    4140  1  230.     * Mode 1 terminal I/O information
                                    4141  1  231.     *
 000048                             4142  1  232.     MT1RQTK    DS    A             Task ID of requesting task
 00004C                             4143  1  233.     MT1RQID    DS    A             Current Request ID
 000050                             4144  1  234.     MT1WR01    DS    A             Wait return for R1
 000054                             4145  1  235.     MT1WR14    DS    A             Wait return for R14
 000058                             4146  1  236.     MT1WR15    DS    A             Wait return from R15
                                    4147  1  237.
 00005C                             4148  1  238.     MT1IBLOC   DS    A             Location of the input (read) buffer
 000060                             4149  1  239.     MT1IBLEN   DS    H             Length of the input buffer
 000064                             4150  1  240.     MT1TIMO    DS    A             Timeout value
 000068                             4151  1  241.     MT1TIMER   DS    A             Real-time timer ID
                                    4152  1  242.
 00006C                             4153  1  243.     MT1ATSK    DS    A             Task Id of task handling attentions
 000070                             4154  1  244.     MT1IACT    DS    X             Count of Idle ATTNs since last read
                                    4155  1  245.
 000071                             4156  1  246.     MT1CNTL    DS    X             Control number
 000072                             4157  1  247.     MT1RKEY    DS    X             PSW key of user issuing request
                                    4158  1  248.
 000073 00                          4159  1  249.     MT1CFLG    FLAG  ,             Terminal control flags
1TERMINAL (TERM00) (09:44) (22MAR04) MILTEN Terminal Control Blocks                                                         Page   43
0Current Usings:  (PZERO,R0)
0Loc    Object Code    Addr1 Addr2  Stmt Lv Lineno    Source Statement           (Hibal 5, Asmedit 3.3)  HLASM R4.0  2004/03/22 09.44
+___    ______ ____    _____ _____  ____ __ ______    ______ _________
0MT1CFLG.MT1FCC    80 ONES          4163  1  250.                FLAG  MT1FCC         Write lines have CC in col 1
 MT1CFLG.MT1FNWNL  40 ONES          4168  1  251.                FLAG  MT1FNWNL       Write lines not ended by NL
 MT1CFLG.MT1FREWR  20 ONES          4173  1  252.                FLAG  MT1FREWR       Write data on a Read edit
 MT1CFLG.MT1FCIO   10 ONES          4178  1  253.                FLAG  MT1FCIO        Control I/O started in main task
                                    4183  1  254.     *
                                    4184  1  255.     * Program info passed around in the PDB's (maps the area in the PDB)
                                    4185  1  256.     *
 000074                             4186  1  257.                DS    0A
 000074                             4187  1  258.     MT1PGM     DS    CL8           Program name
 00007C                             4188  1  259.     MT1CPUT    DS    F             CPU time used (timer units)
 000080 00                          4189  1  260.     MT1PFLG    FLAG  ,             Program name flags
 MT1PFLG.MT1PRUN   80 ONES          4193  1  261.                FLAG  MT1PRUN         Program is running (not session break)
 MT1PFLG.MT1PAUTH  40 ONES          4198  1  262.                FLAG  MT1PAUTH        Program is authorized
 000081                             4203  1  263.     MT1DIOCT   DS    AL3           Count of orvyl disk I/Os
 000084                00084 00084  4204     264.              END   ,
1TERMINAL (TERM00) (09:44) (22MAR04) MILTEN Terminal Control Blocks                                                         Page   44
0Current Usings:  (PZERO,R0)
0Loc    Object Code    Addr1 Addr2  Stmt Lv Lineno    Source Statement           (Hibal 5, Asmedit 3.3)  HLASM R4.0  2004/03/22 09.44
+___    ______ ____    _____ _____  ____ __ ______    ______ _________
0                                   4214     266.     *****************************************************************
                                    4215     267.     *                                                               *
                                    4216     268.     *    MFQE  --  Milten Full queue entry.  This control block     *
                                    4217     269.     *              represents a send on the milten path that got a  *
                                    4218     270.     *              full queue and could not continue.               *
                                    4219     271.     *                                                               *
                                    4220     272.     *****************************************************************
-000000                00000 0000C  4222     274.     MFQE     RECORD BEGIN
 000000 D4C6D8C5                    4230  1  275.                DC    C'MFQE'       Control block ID
 000004                             4231  1  276.     MFQENEXT   DS    A             Next in the list
 000008                             4232  1  277.     MFQEASB    DS    A             ASB address of waiting Address space
 00000C                0000C 0000C  4233     278.              END   ,
1TERMINAL (TERM00) (09:44) (22MAR04) MILTEN Terminal Control Blocks                                                         Page   45
0Current Usings:  (PZERO,R0)
0Loc    Object Code    Addr1 Addr2  Stmt Lv Lineno    Source Statement           (Hibal 5, Asmedit 3.3)  HLASM R4.0  2004/03/22 09.44
+___    ______ ____    _____ _____  ____ __ ______    ______ _________
0                                   4243     280.     *****************************************************************
                                    4244     281.     *                                                               *
                                    4245     282.     *     PDB  --  Passed Data Block.  This control block specifies *
                                    4246     283.     *              the format of the messages passed between MILTEN *
                                    4247     284.     *              and ORVYL on the SCOM path.  It is also passed   *
                                    4248     285.     *              between WYLBUR and ORVYL via MILTEN and so some  *
                                    4249     286.     *              of the WYLBUR/ORVYL communication protocol is    *
                                    4250     287.     *              also specified here.                             *
                                    4251     288.     *                                                               *
                                    4252     289.     *****************************************************************
-000000                00000 0004A  4254     291.     XPDB     RECORD BEGIN
                                    4262  1  292.                PDB   TYPE=ALL
                                    4263+ 1          +           ¿þþþþþþþþþþþþþþþþþþþþþþÜ
                                    4264+ 1          +           Ÿ  Passed Data Buffer  Ÿ
                                    4265+ 1          +           ¾þþþþþþþþþþþþþþþþþþþþþþ»
 000000                             4266  1 01-PDB   +PDBSTRT    DC    0F'0'
 000000 0000                        4267  1 01-PDB   +PDBLENG    DC    H'0'                (Suzan RDW) Total PDB length
 000002 0000                        4268  1 01-PDB   +           DC    XL2'00'             (Suzan RDW)
                                    4269  1          +
 000004                             4270  1 01-PDB   +PDBDATA    DC    0F'0'               Start of PDB data
                                    4271  1          +
 000004 0000                        4272  1 01-PDB   +PDBLIN#    DC    H'0'                Session number
 000006 00                          4273  1 01-PDB   +PDBCMD     DC    X'00'               Command code
 000007 00                          4274  1 01-PDB   +PDBCMDFL   DC    X'00'               Command code modifier flags
                                    4275  1          +
 000008                             4276  1 01-PDB   +PDBMOD     DS    0XL4                Mode flags
 000008 00                          4277  1 01-PDB   +PDBMODA    DC    X'00'               .a  (see moda)
 000009 00                          4278  1 01-PDB   +PDBMODB    DC    X'00'               .b  (see modb)
 00000A 00                          4279  1 01-PDB   +PDBMODC    DC    X'00'               .c  (see modc)
 00000B 00                          4280  1 01-PDB   +PDBMODD    DC    X'00'               .d  (see modd)
                                    4281  1          +
 00000C                             4282  1 01-PDB   +PDBCPL     DS    0XL2                Completion flags
 00000C 00                          4283  1 01-PDB   +PDBCPLA    DC    X'00'               .a  (see cpla)
 00000D 00                          4284  1 01-PDB   +PDBCPLB    DC    X'00'               .b  (see cplb)
                                    4285  1          +
 00000E 00                          4286  1 01-PDB   +PDBBYT1    DC    X'00'               Byte 1: used by control PDB
 00000F 00                          4287  1 01-PDB   +PDBBYT2    DC    X'00'               Byte 2: used by control PDB
                                    4288  1          +
 000010 00000000                    4289  1 01-PDB   +PDBSINP    DC    A(0)                Session info ptr (in CSA)
                                    4290  1 01-PDB   +PDBAWID    EQU   PDBSINP,4,C'F'      Session id for async write
                                    4291  1          +
 000014 4040404040404040            4292  1 01-PDB   +PDBVPGM    DC    CL8' '              ORVYL program name
 00001C 00000000                    4293  1 01-PDB   +PDBVCPU    DC    F'0'                ORVYL CPU time used
 000020 00                          4294  1 01-PDB   +PDBVFLAG   DC    X'00'               ORVYL flags
                                    4295  1 01-PDB   +PDBVFRUN   EQU   X'80'               - Program is running (not paused)
                                    4296  1 01-PDB   +PDBVFATH   EQU   X'40'               - Program is authorized
 000021 000000                      4297  1 01-PDB   +PDBVDIO    DC    XL3'00'             ORVYL Disk I/O
                                    4298  1 01-PDB   +PDBVINFO   EQU   PDBVPGM,*-PDBVPGM,C'X'
                                    4299  1          +
 000024 4040404040404040            4300  1 01-PDB   +PDBSYSNM   DC    CL8' '              New/old subsys name (xctl, init)
                                    4301  1          +
 00002C 0000                        4302  1 01-PDB   +PDBSUC     DC    H'0'                SIB update count
1TERMINAL (TERM00) (09:44) (22MAR04) MILTEN Terminal Control Blocks                                                         Page   46
0Current Usings:  (PZERO,R0)
0Loc    Object Code    Addr1 Addr2  Stmt Lv Lineno    Source Statement           (Hibal 5, Asmedit 3.3)  HLASM R4.0  2004/03/22 09.44
+___    ______ ____    _____ _____  ____ __ ______    ______ _________
000002E 0000                        4303  1 01-PDB   +PDBOUTCT   DC    H'0'                Output text count
 000030 0000                        4304  1 01-PDB   +PDBINCT    DC    H'0'                Maximum input allowed
 000032 0000                        4305  1 01-PDB   +PDBWC      DC    H'0'                Write count
 000034 0000                        4306  1 01-PDB   +PDBPC      DC    H'0'                Prompt count
 000036 0000                        4307  1 01-PDB   +PDBRC      DC    H'0'                Read count
                                    4308  1 01-PDB   +PDBORV     EQU   PDBINCT,*-PDBINCT,C'X'  Control info for ORVYL XCTLs
                                    4309  1 01-PDB   +PDBVRCTL   EQU   X'01'               - ORVYL "read control" (SIFT)
                                    4310  1 01-PDB   +PDBOPT     EQU   PDBCMDFL,*-PDBCMDFL,C'X'  Option flags
                                    4311  1 01-PDB   +PDBHDR     EQU   PDBSTRT,*-PDBSTRT,C'X'  PDB header
 000038                             4312  1 01-PDB   +PDBTEXT    DS    0C                  Text field (variable length)
                                    4313+ 1          +           ¿þþþþþþþþþþþþþþþþþþþþþþþþþþþþÜ
                                    4314+ 1          +           Ÿ  Control PDB information.  Ÿ
                                    4315+ 1          +           ¾þþþþþþþþþþþþþþþþþþþþþþþþþþþþ»
                                    4316  1 01-PDB   +PDBCNO     EQU   PDBCMDFL,1,C'X'     Control number (to MILTEN)
                                    4317  1          +
                                    4318  1 01-PDB   +PDBCRET    EQU   PDBBYT1,1,C'X'      Return code (from MILTEN)
                                    4319  1 01-PDB   +PDBCROK    EQU   0                   - OK
                                    4320  1 01-PDB   +PDBCRPRV   EQU   4                   - Privileged
                                    4321  1 01-PDB   +PDBCRBF    EQU   8                   - Bad format
                                    4322  1 01-PDB   +PDBCRBAD   EQU   12                  - Unknown control
                                    4323  1          +
                                    4324  1 01-PDB   +PDBCMOD    EQU   PDBBYT2,1,C'X'      Rc modifier (depends on control)
                                    4325  1          +*
                                    4326  1          +*  PDB command codes:
                                    4327  1          +*
                                    4328  1          +*  global (to MILTEN)...
                                    4329  1 01-PDB   +TMILINIT   EQU   33                  Subsystem init -- PDBCMDFL flags:
                                    4330  1 01-PDB   +INITFPRV   EQU   X'80'               - Priv'd subsystem
                                    4331  1 01-PDB   +TMILMW     EQU   34                  not implemented
                                    4332  1 01-PDB   +TMILSTAT   EQU   35                  not implemented
                                    4333  1          +*
                                    4334  1          +*  Line-related, synchronous commands (to MILTEN)...
                                    4335  1 01-PDB   +TMILEOS    EQU   64                  End-of-session -- PDBCMDFL flags:
                                    4336  1 01-PDB   +EOSALL     EQU   X'40'               - logoff this subsys and send alo
                                    4337  1 01-PDB   +EOSXCTL    EQU   X'20'               - logoff this subsys and xctl
                                    4338  1 01-PDB   +TMILWRIT   EQU   65                  Terminal write
                                    4339  1 01-PDB   +TMILREAD   EQU   66                  Terminal read
                                    4340  1 01-PDB   +TMILWTO    EQU   67                  MILTEN write-to-operator
                                    4341  1 01-PDB   +TMILSENS   EQU   68                  Not implemented
                                    4342  1 01-PDB   +TMILNOP    EQU   69                  Check and respond
                                    4343  1 01-PDB   +MILAWR     EQU   70                  Asynchronous write
                                    4344  1 01-PDB   +TMILXCTL   EQU   71                  Send text to another subsys
                                    4345  1 01-PDB   +TMILACCT   EQU   72                  Session accounting data
                                    4346  1 01-PDB   +MILCNTL    EQU   73                  Control (PDBCMDFL has number)
                                    4347  1 01-PDB   +MILSOF     EQU   74                  Force logoff of user subsys's
                                    4348  1          +*  Line-related, asynchronous commands to MILTEN...
                                    4349  1 01-PDB   +TMILBRK    EQU   80                  Halt previous read
                                    4350  1          +*
                                    4351  1          +*  Command codes returned from MILTEN to subsystem...
                                    4352  1          +*
                                    4353  1          +*  Global, with (or as) response...
                                    4354  1 01-PDB   +FMILECHO   EQU   32                  Not implemented
                                    4355  1 01-PDB   +FMILINIT   EQU   33                  Subsystem initialization
                                    4356  1 01-PDB   +FMILSTAT   EQU   35                  Not implemented
1TERMINAL (TERM00) (09:44) (22MAR04) MILTEN Terminal Control Blocks                                                         Page   47
0Current Usings:  (PZERO,R0)
0Loc    Object Code    Addr1 Addr2  Stmt Lv Lineno    Source Statement           (Hibal 5, Asmedit 3.3)  HLASM R4.0  2004/03/22 09.44
+___    ______ ____    _____ _____  ____ __ ______    ______ _________
0                                   4357  1 01-PDB   +FMILERR    EQU   36                  Prev. cmd was bad
                                    4358  1          +*  Global, asynchronous commands from MILTEN...
                                    4359  1 01-PDB   +FMILSTOP   EQU   48                  Normal subsystem shutdown request
                                    4360  1 01-PDB   +FMILDUMP   EQU   49                  Abend-with-dump request
                                    4361  1          +*  Line-related, synchronous responses or commands from MILTEN...
                                    4362  1 01-PDB   +FMILSOS    EQU   64                  Start-of-session (line logon)
                                    4363  1 01-PDB   +FMILWRIT   EQU   65                  Response to tmilwrit
                                    4364  1 01-PDB   +FMILREAD   EQU   66                  Response to tmilread
                                    4365  1 01-PDB   +FMILXCTL   EQU   71                  Response to tmilxctl
                                    4366  1          +*  Line-related asynchronous commands from MILTEN...
                                    4367  1 01-PDB   +FMILASYN   EQU   80                  Asynchronous status in cpl flags
                                    4368  1 01-PDB   +FMILLGFI   EQU   81                  Not implemented
                                    4369  1          +*
                                    4370  1          +*  PDB mode flags (to MILTEN)
                                    4371  1          +*
                                    4372  1 01-PDB   +MODARSV1   EQU   X'80'               - Reserved
                                    4373  1 01-PDB   +MODAFMIL   EQU   X'40'               - Fake MILTEN in TXCTL (for WYLBUR)
                                    4374  1 01-PDB   +MODANMSG   EQU   X'20'               - Reject (don't allow) messages
                                    4375  1 01-PDB   +MODACL     EQU   X'10'               - Clean (don't interleave msgs)
                                    4376  1 01-PDB   +MODABUF    EQU   X'08'               - Buffered I/O (rtns mult lines)
                                    4377  1 01-PDB   +MODADRAT   EQU   X'04'               - Disallow attn on read
                                    4378  1          +
                                    4379  1 01-PDB   +MODBUPPR   EQU   X'80'               - Use upper-case-only (read)
                                    4380  1 01-PDB   +MODBUPLO   EQU   X'40'               - Use uplow (read)
                                    4381  1 01-PDB   +MODBDWAT   EQU   X'20'               - Disallow attn on write
                                    4382  1 01-PDB   +MODBNNLA   EQU   X'10'               - No stars or NL on read attn
                                    4383  1 01-PDB   +MODBSLOL   EQU   X'08'               - Slow list (no tabs used on write)
                                    4384  1 01-PDB   +MODBNLF    EQU   X'04'               - No LF on read carriage-return
                                    4385  1 01-PDB   +MODBUFMT   EQU   X'02'               - Unformatted (don't cvt <...>)
                                    4386  1 01-PDB   +MODBFOR    EQU   X'01'               - Force I/O (override quiet)
                                    4387  1          +
                                    4388  1 01-PDB   +MODCNCRS   EQU   X'80'               - Don't re-position cursor (VTAM)
                                    4389  1 01-PDB   +MODCDSPL   EQU   X'40'               - Display mode I/O
                                    4390  1 01-PDB   +MODCSTIB   EQU   X'20'               - Suppress trailing input blanks
                                    4391  1 01-PDB   +MODCFSR    EQU   X'10'               - Full screen read
                                    4392  1 01-PDB   +MODCFSRU   EQU   X'08'               - Full screen read unsolicited
                                    4393  1 01-PDB   +MODCNECH   EQU   X'04'               - No echo
                                    4394  1 01-PDB   +MODCIMED   EQU   X'02'               - Immediate mode (display I/O)
                                    4395  1 01-PDB   +MODCSTOB   EQU   X'01'               - Suppress trailing output blanks
                                    4396  1          +
                                    4397  1 01-PDB   +MODDNPAU   EQU   X'80'               - Don't stop at end of page
                                    4398  1 01-PDB   +MODDNPT    EQU   X'40'               - No read text allowed at p/p
                                    4399  1 01-PDB   +MODDTRAN   EQU   X'20'               - Transparent I/O
                                    4400  1 01-PDB   +MODDNMOD   EQU   X'10'               - Nomodel
                                    4401  1 01-PDB   +MODDNFLT   EQU   X'08'               - No ctrl char filtering
                                    4402  1 01-PDB   +MODDXON    EQU   X'04'               - Send XON char for read
                                    4403  1 01-PDB   +MODDRUND   EQU   X'02'               - Count rundown mode for read
                                    4404  1 01-PDB   +MODDNTYP   EQU   X'01'               - No read typeahead
                                    4405  1          +*
                                    4406  1          +*  PDB control numbers (to MILTEN)
                                    4407  1          +*
                                    4408  1 01-PDB   +CTLSNSI    EQU   1                   - Sense session info
                                    4409  1 01-PDB   +CTLSETI    EQU   2                   - Set   session info
                                    4410  1 01-PDB   +CTLSNSP    EQU   3                   - Sense port info
1TERMINAL (TERM00) (09:44) (22MAR04) MILTEN Terminal Control Blocks                                                         Page   48
0Current Usings:  (PZERO,R0)
0Loc    Object Code    Addr1 Addr2  Stmt Lv Lineno    Source Statement           (Hibal 5, Asmedit 3.3)  HLASM R4.0  2004/03/22 09.44
+___    ______ ____    _____ _____  ____ __ ______    ______ _________
0                                   4411  1 01-PDB   +CTLSNSF    EQU   4                   - Sense front-end info
                                    4412  1 01-PDB   +CTLSNSD    EQU   5                   - Sense device dependent info
                                    4413  1 01-PDB   +CTLSNSS    EQU   6                   - Sense subsystem info
                                    4414  1 01-PDB   +CTLSNSA    EQU   7                   - Sense accounting info
                                    4415  1 01-PDB   +CTLSNSM    EQU   8                   - Sense MILTEN info
                                    4416  1 01-PDB   +CTLSNST    EQU   9                   - Sense symbol type
                                    4417  1 01-PDB   +CTLSNSMD   EQU   10                  - Sense MILTEN device trace
                                    4418  1 01-PDB   +CTLMAX     EQU   10
                                    4419  1          +
                                    4420  1 01-PDB   +CTLPSETS   EQU   101                 - Set session           (Priv'd)
                                    4421  1 01-PDB   +CTLPSETO   EQU   102                 - Set session options   (Priv'd)
                                    4422  1 01-PDB   +CTLPKILL   EQU   103                 - Kill session          (Priv'd)
                                    4423  1 01-PDB   +CTLPSETP   EQU   104                 - Set port              (Priv'd)
                                    4424  1 01-PDB   +CTLPSETF   EQU   105                 - Set front-end         (Priv'd)
                                    4425  1 01-PDB   +CTLPSETD   EQU   106                 - Set device dependent  (Priv'd)
                                    4426  1 01-PDB   +CTLPSETA   EQU   107                 - Set accounting info   (Priv'd)
                                    4427  1 01-PDB   +CTLPDIE    EQU   108                 - MILTEN shutdown       (Priv'd)
                                    4428  1 01-PDB   +CTLPMAX    EQU   108
                                    4429  1          +*
                                    4430  1          +*  PDB completion flags (from MILTEN)
                                    4431  1          +*
                                    4432  1 01-PDB   +CPLAATTN   EQU   X'80'               - Attn on read/write
                                    4433  1 01-PDB   +CPLAIOE    EQU   X'40'               - I/O error on read
                                    4434  1 01-PDB   +CPLAUST    EQU   X'20'               - Unset tab(s) on input
                                    4435  1 01-PDB   +CPLABRK    EQU   X'10'               - Read killed by break
                                    4436  1          +
                                    4437  1 01-PDB   +CPLBLGF    EQU   X'80'               - Terminal is logging off
                                    4438  1 01-PDB   +CPLBILT    EQU   X'40'               - Terminal can't do that
                                    4439  1 01-PDB   +CPLBIA     EQU   X'20'               - Idle attention (asynchronous)
                                    4440  1          +
                                    4441  1  293.     PDB        EQU   PDBLIN#,PDBTEXT-PDBLIN#,C'X'      Real PDB area
1TERMINAL (TERM00) (09:44) (22MAR04) MILTEN Terminal Control Blocks                                                         Page   49
0Current Usings:  (PZERO,R0)
0D-Loc  Object Code    Addr1 Addr2  Stmt Lv Lineno    Source Statement           (Hibal 5, Asmedit 3.3)  HLASM R4.0  2004/03/22 09.44
+_____  ______ ____    _____ _____  ____ __ ______    ______ _________
0                                   4443  1  295.     *
                                    4444  1  296.     *    W Y L B U R   C O M M U N I C A T I O N   A R E A S
                                    4445  1  297.     *
                                    4446  1  298.                COPY  FORVCMDS
                                    4447  1          =***********************************************************************
                                    4448  1          =**                                                                   **
                                    4449  1          =**           GENERAL FORMAT OF PDB SENT BY ORVYL TO WYLBUR           **
                                    4450  1          =**                                                                   **
                                    4451  1          =***********************************************************************
 000038                00038 00030  4452  1          =           ORG   PDBINCT
 000030                             4453  1          =FORVCMD    DS    X                   COMMAND CODE FOR WYLBUR
                                    4454  1          =
                                    4455  1          =FORVREDT   EQU   X'80'               READ  EDIT
                                    4456  1          =FORVWEDT   EQU   X'40'               WRITE EDIT
                                    4457  1          =FORVRTXT   EQU   X'20'               READ  TEXT
                                    4458  1          =FORVWTXT   EQU   X'10'               WRITE TEXT
                                    4459  1          =FORVCNTL   EQU   X'08'               CONTROL
                                    4460  1          =
 000031                             4461  1          =FORVCMDM   DS    X                   COMMAND CODE MODIFIER SENT TO WYLBUR
                                    4462  1          =
                                    4463  1          =REDTRSEN   EQU   X'04'               RESEND LAST COMMAND (FOR LOGON)
                                    4464  1          =
                                    4465  1          =RTXTFNLP   EQU   X'80'               DON'T USE LOCKED PAGE PASS (RTXT)
                                    4466  1          =
                                    4467  1          =WEDTTYPD   EQU   X'00'               COMMAND HAS BEEN TYPED AT TERM.
                                    4468  1          =WEDTNTYP   EQU   X'04'               COMMAND HAS NOT BEEN TYPED AT TERM.
                                    4469  1          =
                                    4470  1          =CNTLSTMW   EQU   X'0C'            12 SET WYLBUR MODE WORD
                                    4471  1          =CNTLSNMW   EQU   X'0D'            13 SENSE WYLBUR MODE WORD SETTING
                                    4472  1          =CNTLSNAS   EQU   X'0E'            14 SENSE ACTIVE FILE SIZE
                                    4473  1          =CNTLSNFL   EQU   X'0F'            15 SENSE FIRST LINE# IN ACTIVE FILE
                                    4474  1          =CNTLSNLL   EQU   X'10'            16 SENSE LAST  LINE# IN ACTIVE FILE
                                    4475  1          =CNTLDELA   EQU   X'11'            17 DELETE ALL  LINES IN ACTIVE FILE
                                    4476  1          =CNTLABRT   EQU   X'12'            18 ABORT PENDING READ EDIT CHANGES
                                    4477  1          =CNTLWTER   EQU   X'13'            19 WRITE LINE FROM ACTIVE FILE TO TERM.
                                    4478  1          =CNTLSNOP   EQU   X'21'            33 SENSE USER'S OPTION SETTINGS IN WYL
                                    4479  1          =CNTLMAX    EQU   CNTLSNOP            MAXIMUM CONTROL COMMAND
                                    4480  1          =
 000032                             4481  1          =FORVHDR    DS    H                   DEFINITION
 000034                             4482  1          =           DS    H                     DEPENDS ON
 000036                             4483  1          =           DS    X                       COMMAND CODE -
 000037                             4484  1          =           DS    X                   SEE DEFINITIONS BELOW
                                    4485  1          =FORVHDRS   EQU   *-FORVHDR           OUTCT FOR CNTL AND REDT
                                    4486  1          =
                                    4487  1          =FORVTEXT   EQU   PDBTEXT             OPTIONAL TEXT AREA
                                    4488  1          =*
                                    4489  1          =************************************
                                    4490  1          =*  FORVHDR DEFINITIONS BY COMMAND  *
                                    4491  1          =************************************
                                    4492  1          =*  REDT COMMAND FORVHDR USAGE
 000038                00038 00032  4493  1          =           ORG   FORVHDR
 000032                             4494  1          =REDTFL     DS    X
                                    4495  1          =
                                    4496  1          =REDTFCME   EQU   REDTFL,X'80',1      PREVIOUS COMMAND IN ERROR
1TERMINAL (TERM00) (09:44) (22MAR04) MILTEN Terminal Control Blocks                                                         Page   50
0Current Usings:  (PZERO,R0)
0D-Loc  Object Code    Addr1 Addr2  Stmt Lv Lineno    Source Statement           (Hibal 5, Asmedit 3.3)  HLASM R4.0  2004/03/22 09.44
+_____  ______ ____    _____ _____  ____ __ ______    ______ _________
0                                   4497  1          =REDTFATT   EQU   REDTFL,X'40',1      PREVIOUS COMMAND ATTN ENDED
                                    4498  1          =*
                                    4499  1          =*  WEDT COMMAND FORVHDR USAGE
                                    4500  1          =*
 000033                00033 00032  4501  1          =           ORG   FORVHDR
 000032                             4502  1          =WEDTTXTL   DS    H                   LENGTH OF TEXT STARTING AT FORVTEXT
                                    4503  1          =*
                                    4504  1          =*  RTXT COMMAND FORVHDR USAGE AND SPECIAL FORVTEXT DEFINITIONS
                                    4505  1          =*
 000034                00034 00032  4506  1          =           ORG   FORVHDR
 000032                             4507  1          =           DS    2H                  UNUSED
 000036                             4508  1          =RTXTRLEN   DS    H                   LENGTH OF USERS RECIEVING AREA
 000038                00038 00038  4509  1          =           ORG   FORVTEXT
 000038                             4510  1          =RTXTOPT    DS    X                   RTXT OPTION - 0 THRU 6 +NOTEXT+NUM
                                    4511  1          =
                                    4512  1          =RTXTOPT0   EQU   X'00'             0 RTN LINE GIVEN BY RTXTFLIN
                                    4513  1          =RTXTOPT1   EQU   X'01'             1 RTN LINE PRECEDING ONE IN RTXFLIN
                                    4514  1          =RTXTOPT2   EQU   X'02'             2 RTN LINE FOLLOWING ONE IN RTXTFLIN
                                    4515  1          =RTXTOPT3   EQU   X'03'             3 RTN LINE(S) IN RANGE FLIN/LLIN
                                    4516  1          =RTXTOPT4   EQU   X'04'             4 RTN LINE(S) IN FLIN/LLIN WITH STRG
                                    4517  1          =RTXTOPT5   EQU   X'05'             5 RTN LINE(S) IN FLIN/LLIN WITH STRG
                                    4518  1          =*                                      STARTING IN FCOL
                                    4519  1          =RTXTOPT6   EQU   X'06'             6 RTN LINE(S) IN FLIN/LLIN WITH STRG
                                    4520  1          =*                                      IN RANGE OF FCOL/LCOL
                                    4521  1          =RTXTNOT    EQU   X'80'               NO TEXT MODIFIER-'OR'ED WITH OPT 0/6
                                    4522  1          =RTXTNUM    EQU   X'40'               NUMBERD MODIFIER-'OR'ED WITH OPT 0/6
                                    4523  1          =RTXTINT    EQU   X'20'               INTEGER MODIFIER-'OR'ED WITH OPT 0/6
                                    4524  1          =
 000039                             4525  1          =RTXTLREC   DS    X                   LRECL (OPTIONAL ON ALL OPTS)
 00003A                             4526  1          =RTXTMAXL   DS    H                   MAX. LINES TO BE RETURNED (OPTS 3/6)
 00003C                             4527  1          =RTXTFLIN   DS    A                   STARTING LINE#*1000 (ALL OPTS)
 000040                             4528  1          =RTXTLLIN   DS    A                   ENDING LINE#*1000 (ALL OPTS)
 000044                             4529  1          =RTXTFCOL   DS    H                   STARTING COL FOR STRG (OPTS 5/6)
 000046                             4530  1          =RTXTLCOL   DS    H                   ENDING COL FOR STRG (OPT 6)
 000048                             4531  1          =RTXTSLEN   DS    H                   STRING LENGTH (OPTS 4/6)
 00004A                             4532  1          =RTXTSTRG   DS    0X                  STRING TEXT (OPTS 4/6)
                                    4533  1          =*
                                    4534  1          =*  WTXT COMMAND FORVHDR USAGE
                                    4535  1          =*
 00004A                0004A 00032  4536  1          =           ORG   FORVHDR
 000032                             4537  1          =WTXTTXTL   DS    H                   LENGTH OF ALL TEXT BEING PASSED
 000034                             4538  1          =WTXTNUML   DS    H                   NUMBER OF LINES BEING PASSED/DELETED
 000036                             4539  1          =WTXTOPT    DS    X                   WTXT OPTION - O THRU 5
                                    4540  1          =
                                    4541  1          =WTXTOPT0   EQU   X'00'             0 REPLACE OR INSERT LINE(S)-PREST FLAG
                                    4542  1          =WTXTOPT1   EQU   X'01'             1 REPLACE LINE(S) ONLY     -PREST FLAG
                                    4543  1          =WTXTOPT2   EQU   X'02'             2 INSERT LINE(S) ONLY      -PREST FLAG
                                    4544  1          =WTXTOPT3   EQU   X'03'             3 DELETE LINE(S)
                                    4545  1          =WTXTOPT4   EQU   X'04'             4 APPEND LINE(S) ONLY      -LRECL
                                    4546  1          =WTXTOPT5   EQU   X'05'             5 APPEND OR INSERT LINE(S) -LRECL/NUM
                                    4547  1          =WTXTOPT6   EQU   X'06'             6 APPEND OR INSERT LINE(S) -LRECL/INT
                                    4548  1          =
 000037                             4549  1          =WTXTLREC   DS    X                   LRECL FOR OPTS 4 AND 5
                                    4550  1          =*
1TERMINAL (TERM00) (09:44) (22MAR04) MILTEN Terminal Control Blocks                                                         Page   51
0Current Usings:  (PZERO,R0)
0D-Loc  Object Code    Addr1 Addr2  Stmt Lv Lineno    Source Statement           (Hibal 5, Asmedit 3.3)  HLASM R4.0  2004/03/22 09.44
+_____  ______ ____    _____ _____  ____ __ ______    ______ _________
0                                   4551  1          =*  CNTL COMMAND FORVHDR USAGE
                                    4552  1          =*
 000038                00038 00032  4553  1          =           ORG   FORVHDR
 000032                             4554  1          =           DS    2H                  UNUSED
 000036                             4555  1          =CNTLMDWD   DS    H                   STMW ONLY - NEW WYLBUR MODE WORD
 000038                00038 00032  4556  1          =           ORG   FORVHDR
 000032                             4557  1          =           DS    2H                  UNUSED
 000036                             4558  1          =CNTLPCNT   DS    H                   ABRT ONLY - COUNT OF LINES ALREADY
 000038                00038 00032  4559  1          =           ORG   FORVHDR
 000032                             4560  1          =           DS    H                   UNUSED
 000034                             4561  1          =CNTLWTLN   DS    A                   WTER ONLY - LINE#*1000 TO BE WRITTEN
 000038                00038 00032  4562  1          =           ORG   FORVHDR
 000032                             4563  1          =           DS    2H
 000036 00                          4564  1          =CNTLEXF1   DC    X'00'               ABORT COMMAND FLAGS
                                    4565  1          =
                                    4566  1          =CNTL1NRT   EQU   CNTLEXF1,X'80'      NO RETRY ON COMMAND ABORT
                                    4567  1          =CNTL1NEB   EQU   CNTLEXF1,X'40'      NO EXEC BREAK ON COMMAND ABRT
                                    4568  1          =
                                    4569  1          =CNTLSNST   EQU   FORVHDR             SENSE USER OPTIONS IN WYLBUR
                                    4570  1  299.                COPY  FWYLRTNS
                                    4571  1          =***********************************************************************
                                    4572  1          =**                                                                   **
                                    4573  1          =**       GENERAL FORMAT OF PDB RETURNED BY WYLBUR TO ORVYL           **
                                    4574  1          =**                                                                   **
                                    4575  1          =***********************************************************************
 000037                00037 00030  4576  1          =           ORG   PDBINCT
 000030                             4577  1          =FWYLRTNC   DS    X                   RETURN CODE FOR PREVIOUS FORVCMD
                                    4578  1          =*                                   RESPONSES GIVEN BY COMMAND BELOW
                                    4579  1          =*
 000031                             4580  1          =FWYLFL     DS    X                   FLAGS
                                    4581  1          =FWYLFNT    EQU   X'80'               - COMMAND IS NOT-TYPED
                                    4582  1          =
 000032                             4583  1          =FWYLHDR    DS    H                   DEFINITION
 000034                             4584  1          =           DS    H                     DEPENDS ON COMMAND
 000036                             4585  1          =           DS    X                       TO WHICH RESPONDING
 000037                             4586  1          =           DS    X                   SEE DEFINITIONS BELOW
                                    4587  1          =FWYLHDRS   EQU   *-FWYLHDR           OUTCT FOR CNTL,WEDT,WTXT, SOME REDT
                                    4588  1          =
                                    4589  1          =FWYLTEXT   EQU   PDBTEXT             OPTIONAL RETURN TEXT AREA
-                                         1
                                    4591  1          =**********************************************************
                                    4592  1          =*  FWYLRTNC AND FWYLHDR RESPONSE DEFINITIONS BY COMMAND  *
                                    4593  1          =**********************************************************
                                    4594  1          =*  REDT RTNC DEFINITIONS AND FWYLHDR USAGE
                                    4595  1          =*
                                    4596  1          =RTNCILLC   EQU   X'63'             0 ILLEGAL COMMAND OR CENT-ATTN
                                    4597  1          =RTNCINST   EQU   X'04'             4 COLLECT,INSERT          -INFORM ONLY
                                    4598  1          =RTNCINSN   EQU   X'08'             8 USE,FETCH,COPY,ALIGN,JUS-INFORM ONLY
                                    4599  1          =RTNCREPT   EQU   X'0C'            12 REPLACE                 -INFORM ONLY
                                    4600  1          =RTNCREPN   EQU   X'10'            16 CHANGE,MODIFY,EDIT,CENTR-INFORM ONLY
                                    4601  1          =RTNCMOVE   EQU   X'14'            20 MOVE                    -INFORM ONLY
                                    4602  1          =RTNCDEL    EQU   X'18'            24 DELETE, ALIGN,CENTER    -INFORM ONLY
1TERMINAL (TERM00) (09:44) (22MAR04) MILTEN Terminal Control Blocks                                                         Page   52
0Current Usings:  (PZERO,R0)
0D-Loc  Object Code    Addr1 Addr2  Stmt Lv Lineno    Source Statement           (Hibal 5, Asmedit 3.3)  HLASM R4.0  2004/03/22 09.44
+_____  ______ ____    _____ _____  ____ __ ______    ______ _________
0                                   4603  1          =RTNCCLR    EQU   X'1C'            28 CLEAR TEXT              -INFORM ONLY
                                    4604  1          =RTNCCHGF   EQU   X'20'            32 ALL CHANGES REPORTED    -INFORM,CHGS
                                    4605  1          =RTNCLKPP   EQU   X'64'           100 **TEMP LK PAGE PASS REQ.-INFORM,ONLY
                                    4606  1          =*
                                    4607  1          =*  REDT FWYLHDR USAGE AND SPECIAL FWYLTEXT DEFINITIONS
                                    4608  1          =*
 000038                00038 00032  4609  1          =           ORG   FWYLHDR
 000032                             4610  1          =REDTTXTL   DS    H                   LENGTH OF ALL TEXT RETURNED
 000034                             4611  1          =REDTNUML   DS    H                   NUMBER OF LINES OF TEXT RETURNED
 000036                             4612  1          =           DS    H                   UNUSED
 000038                00038 00038  4613  1          =           ORG   FWYLTEXT
 000038                             4614  1          =REDTDFLN   DS    A                   RTNCDEL ONLY-FRST LINE#*1000 DELETED
 00003C                             4615  1          =REDTDLLN   DS    A                   RTNCDEL ONLY-LAST LINE#*1000 DELETED
1TERMINAL (TERM00) (09:44) (22MAR04) MILTEN Terminal Control Blocks                                                         Page   53
0Current Usings:  (PZERO,R0)
0D-Loc  Object Code    Addr1 Addr2  Stmt Lv Lineno    Source Statement           (Hibal 5, Asmedit 3.3)  HLASM R4.0  2004/03/22 09.44
+_____  ______ ____    _____ _____  ____ __ ______    ______ _________
0                                   4617  1          =*  WEDT RTNC DEFINITIONS
                                    4618  1          =*
                                    4619  1          =RTNCOKNC   EQU   X'00'             0 SUCCESS, NO CHANGES OCCURRED
                                    4620  1          =RTNCOKCH   EQU   X'04'             4 SUCCESS, CHANGES OCCURRED
                                    4621  1          =RTNCCHGP   EQU   X'08'             8 CHANGES PENDING
                                    4622  1          =RTNCCHGB   EQU   X'0C'            12 CHANGES BLOCKED
                                    4623  1          =RTNCERR    EQU   X'10'            16 SYNTAX ERROR IN PASSED COMMAND
                                    4624  1          =*
                                    4625  1          =*  WEDT FWYLHDR USAGE
                                    4626  1          =*
 000040                00040 00032  4627  1          =           ORG   FWYLHDR
 000032                             4628  1          =           DS    2H                  UNUSED
 000036                             4629  1          =WEDTATTN   DS    H                   INDICATOR FOR ATTN DURING PROCESSING
                                    4630  1          =
                                    4631  1          =WEDTNOA    EQU   X'00'             0 NO ATTN OCCURRED
                                    4632  1          =WEDTYESA   EQU   X'04'             4 AN ATTN OCCURRED
                                    4633  1          =*
                                    4634  1          =*  RTXT RTNC DEFINITIONS AND FWYLHDR USAGE
                                    4635  1          =*
                                    4636  1          =RTNCOK     EQU   X'00'             0 SUCCESS
                                    4637  1          =RTNCEMPT   EQU   X'04'             4 NO LINES IN RANGE
                                    4638  1          =RTNCTOOS   EQU   X'08'             8 USER AREA TOO SMALL FOR DATA
                                    4639  1          =*RTNCLKPP EQU   X'64'          100 **TEMP LOCKED PAGE PASS REQUEST
                                    4640  1          =*
 000038                00038 00032  4641  1          =           ORG   FWYLHDR
 000032                             4642  1          =RTXTTXTL   DS    H                   LENGTH OF ALL TEXT RETURNED
 000034                             4643  1          =RTXTNUML   DS    H                   NUMBER OF LINES OF TEXT RETURNED
 000036                             4644  1          =           DS    H                   UNUSED
                                    4645  1          =*
                                    4646  1          =*  WTXT RTNC DEFINITIONS AND FWYLHDR USAGE
                                    4647  1          =*
                                    4648  1          =*RTNCOK  EQU   X'00'             0 SUCCESS
                                    4649  1          =RTNCOKLO   EQU   X'04'             4 SUCCESS, LINE(S) EXCEEDED SET LENGTH
                                    4650  1          =RTNCTRNC   EQU   X'08'             8 LINE(S) TRUNCATED
                                    4651  1          =RTNCFULL   EQU   X'0C'            12 ACTIVE FILE FULL
                                    4652  1          =RTNCNOL    EQU   X'10'            16 NO LINE EXISTS AS GIVEN (OPTS 0,1,3)
                                    4653  1          =RTNCLDUP   EQU   X'14'            20 LINE ALREADY EXISTS (OPTS 1,2,5)
                                    4654  1          =RTNCBADB   EQU   X'18'            24 CONTENTS OF TEXT AREA INVALID
                                    4655  1          =RTNCBADL   EQU   X'1C'            28 LINE NUMBER TOO BIG FOR WYLBUR
                                    4656  1          =
 000038                00038 00032  4657  1          =           ORG   FWYLHDR
 000032                             4658  1          =           DS    2H                  UNUSED
 000036                             4659  1          =WTXTRCNT   DS    H                   RESIDUAL COUNT (OPTS 4,5)
                                    4660  1          =*
                                    4661  1          =*  CNTL RTNC DEFINITIONS AND FWYLHDR USAGE
                                    4662  1          =*
                                    4663  1          =*RTNCOK  EQU   X'00'             0 SUCCESS
                                    4664  1          =*RTNCEMPT EQU   X'04'            4 ACTIVE FILE EMPTY
                                    4665  1          =*
 000038                00038 00032  4666  1          =           ORG   FWYLHDR
 000032                             4667  1          =           DS    H                   UNUSED
 000034                             4668  1          =CNTLNUML   DS    A                   CNTLSNAS ONLY-NUM OF LINES
                                    4669  1          =CNTLFSTL   EQU   CNTLNUML            CNTLSNFL ONLY-1ST LINE#
                                    4670  1          =CNTLLSTL   EQU   CNTLNUML            CNTLSNLL ONLY-LAST LINE#
1TERMINAL (TERM00) (09:44) (22MAR04) MILTEN Terminal Control Blocks                                                         Page   54
0Current Usings:  (PZERO,R0)
0D-Loc  Object Code    Addr1 Addr2  Stmt Lv Lineno    Source Statement           (Hibal 5, Asmedit 3.3)  HLASM R4.0  2004/03/22 09.44
+_____  ______ ____    _____ _____  ____ __ ______    ______ _________
0000038                00038 0004A  4671     300.              END   ,
1TERMINAL (TERM00) (09:44) (22MAR04) MILTEN Terminal Control Blocks                                                         Page   55
0Current Usings:  (PZERO,R0)
0Loc    Object Code    Addr1 Addr2  Stmt Lv Lineno    Source Statement           (Hibal 5, Asmedit 3.3)  HLASM R4.0  2004/03/22 09.44
+___    ______ ____    _____ _____  ____ __ ______    ______ _________
0                                   4681     302.     *****************************************************************
                                    4682     303.     *                                                               *
                                    4683     304.     *     SIB  --  Session Information Block.  This is a MILTEN     *
                                    4684     305.     *              control block containing session information of  *
                                    4685     306.     *              interest to ORVYL and WYLBUR.  The contents of   *
                                    4686     307.     *              this can be requested from MILTEN and may also   *
                                    4687     308.     *              be sent to MILTEN for updating its copy.  The    *
                                    4688     309.     *              update count determins whether an update is      *
                                    4689     310.     *              needed or not.  The current value of the update  *
                                    4690     311.     *              count is passed in each PDB from MILTEN.         *
                                    4691     312.     *                                                               *
                                    4692     313.     *****************************************************************
-000000                00000 000FE  4694     315.              RECORD 'SIB'
 000000                             4705  1 03-SIB   +SIBSTART   DS    0F
 000000                             4706  1 03-SIB   +SIBID      DS    F                   Unique session number
 000004                             4707  1 03-SIB   +SIBNO      DS    H                   Session number
 000006                             4708  1 03-SIB   +SIBTMINC   DS    H                   No. minutes session was idle
                                    4709  1 03-SIB   +SIBIHDR    EQU   SIBSTART,*-SIBSTART,C'X'
                                    4710  1          +
 000008                             4711  1 03-SIB   +SIBFE      DS    CL8                 Front-end name
                                    4712  1          +
 000010                             4713  1 03-SIB   +SIBPORT    DS    CL8                 Port name
 000018                             4714  1 03-SIB   +SIBPINFO   DS    CL20                Port information
 00002C                             4715  1 03-SIB   +SIBPLOC    DS    CL20                Port location
 000040 00                          4716  1          +*
 SIBFL.SIBFDIAL    80 ONES
 SIBFL.SIBFSUN     40 ONES
 SIBFL.SIBFDIR     20 ONES
 SIBFL.SIBFGAND    10 ONES
 SIBFL.SIBFDUMB    08 ONES
 000041 00                          4746  1          +*
 SIBFL2.SIBFLEAS   80 ONES
 SIBFL2.SIBFTEL    40 ONES
 SIBFL2.SIBFTYM    20 ONES
 SIBFL2.SIBFRLIN   10 ONES
 000042 00                          4771  1          +*
 SIBFL3.SIBFPS     80 ONES
 SIBFL3.SIBFPTID   40 ONES
 SIBFL3.SIBFOP     20 ONES
 000043 00                          4791  1          +*
 SIBFL4.SIBFSTOP   80 ONES
 SIBFL4.SIBFDET    40 ONES
 SIBFL4.SIBFDUM    20 ONES
 000044 00                          4811  1          +*
 SIBFL5.SIBFDOWN   80 ONES
 SIBFL5.SIBFHU     40 ONES
 SIBFL5.SIBFERR    20 ONES
                                    4831  1          +*
 000045                             4832  1 03-SIB   +           DS    X                   Reserved
                                    4833  1 03-SIB   +SIBPIB     EQU   SIBPORT,*-SIBPORT,C'X'
                                    4834  1          +
 000048 00                          4835  1 03-SIB   +SIB1ST     DS    0F
1TERMINAL (TERM00) (09:44) (22MAR04) MILTEN Terminal Control Blocks                                                         Page   56
0Current Usings:  (PZERO,R0)
0Loc    Object Code    Addr1 Addr2  Stmt Lv Lineno    Source Statement           (Hibal 5, Asmedit 3.3)  HLASM R4.0  2004/03/22 09.44
+___    ______ ____    _____ _____  ____ __ ______    ______ _________
0SIBTYPE.SIBTCONS  01 EQ
 SIBTYPE.SIBTASYN  02 EQ
 SIBTYPE.SIBTPDP   03 EQ
 SIBTYPE.SIBTVTAM  04 EQ
 SIBTYPE.SIBTVIRT  05 EQ
 SIBTYPE.SIBTNSC   06 EQ
 SIBTYPE.SIBTELF   07 EQ
 SIBTYPE.SIBTALF   08 EQ
                                    4920  1          +
 000049                             4921  1 03-SIB   +SIBTINFO   DS    XL2                 Terminal info flags
 00004B 00                          4922  1          +*
 SIBSTAT.SIBFDSC   80 ONES
 SIBSTAT.SIBFLGF   40 ONES
 SIBSTAT.SIBFSOF   20 ONES
 SIBSTAT.SIBFKL    10 ONES
 SIBSTAT.SIBFTO    08 ONES
 SIBSTAT.SIBFMT    04 ONES
 SIBSTAT.SIBFKEPT  02 ONES
                                    4962  1          +*
 00004C                             4963  1 03-SIB   +SIBNMSG    DS    H                   No. of async msgs waiting
                                    4964  1          +
 00004E                             4965  1 03-SIB   +SIBTETYP   DS    C                   SMF port type
 00004F                             4966  1 03-SIB   +           DS    X                   Reserved (was line-speed)
                                    4967  1          +
 000050                             4968  1 03-SIB   +SIBSUB     DS    CL8                 Current subsystem
                                    4969  1          +
 000058                             4970  1 03-SIB   +           DS    0F
 000058                             4971  1 03-SIB   +SIBVPGM    DS    CL8                 ORVYL program
 000060                             4972  1 03-SIB   +SIBVCPU    DS    F                   ORVYL CPU time used
 000064                             4973  1 03-SIB   +SIBVFLAG   DS    X                   ORVYL flags
                                    4974  1 03-SIB   +SIBVFRUN   EQU   X'80'               - Program is running (not paused)
                                    4975  1 03-SIB   +SIBVFATH   EQU   X'40'               - Program is authorized
 000065                             4976  1 03-SIB   +SIBVDIO    DS    XL3                 ORVYL Disk I/O
                                    4977  1 03-SIB   +SIBVINFO   EQU   SIBVPGM,*-SIBVPGM,C'X'
                                    4978  1          +
 000068                             4979  1 03-SIB   +SIBLCLCK   DS    XL8                 Tod clock at logon
                                    4980  1          +
                                    4981  1 03-SIB   +SIBACCT    EQU   *,5,C'C'            Account (uuugg)
 000070                             4982  1 03-SIB   +SIBUSER    DS    CL3                 .uuu
 000073                             4983  1 03-SIB   +SIBGRP     DS    CL2                 .gg
 000075                             4984  1 03-SIB   +SIBANO     DS    XL2                 .number
 000077 00                          4985  1          +*
 SIBSFLG.SIBSFNAT  80 ONES
 SIBSFLG.SIBSFNAR  40 ONES
 SIBSFLG.SIBSFPS   20 ONES
 SIBSFLG.SIBSFOP   10 ONES
 SIBSFLG.SIBSFSEC  08 ONES
 SIBSFLG.SIBSFPRT  04 ONES
 000078 00                          5020  1          +*
 SIBTACF.SIBFNST   80 ONES
 SIBTACF.SIBFNTM   40 ONES
 SIBTACF.SIBRSVX20 20 ONES
 SIBTACF.SIBRSVX10 10 ONES
 SIBTACF.SIBRSVX08 08 ONES
1TERMINAL (TERM00) (09:44) (22MAR04) MILTEN Terminal Control Blocks                                                         Page   57
0Current Usings:  (PZERO,R0)
0Loc    Object Code    Addr1 Addr2  Stmt Lv Lineno    Source Statement           (Hibal 5, Asmedit 3.3)  HLASM R4.0  2004/03/22 09.44
+___    ______ ____    _____ _____  ____ __ ______    ______ _________
0SIBTACF.SIBRSVX04 04 ONES
 SIBTACF.SIBFNDAY  02 ONES
 SIBTACF.SIBRSVX01 01 ONES
                                    5065  1          +*
 000079                             5066  1 03-SIB   +           DS    X                   Reserved
 00007A 00                          5067  1          +*
 SIBKIFL.SIBFIVAL  80 ONES
 SIBKIFL.SIBFAPR   40 ONES
 SIBKIFL.SIBFSPR   20 ONES
 SIBKIFL.SIBFOPR   10 ONES
 SIBKIFL.SIBFSBM   08 ONES
 SIBKIFL.SIBFSUB   04 ONES
 SIBKIFL.SIBFADM   02 ONES
 SIBKIFL.SIBFPC    01 ONES
 00007B 00                          5112  1          +*
 SIBKAFL.SIBFAVAL  80 ONES
 SIBKAFL.SIBFR1    40 ONES
 SIBKAFL.SIBFR2    20 ONES
 SIBKAFL.SIBFR3    10 ONES
 SIBKAFL.SIBFTOK   08 ONES
                                    5142  1          +*
 00007C                             5143  1 03-SIB   +SIBASCBP   DS    A                   ASCB addr, if virtual session
                                    5144  1 03-SIB   +SIBSESS    EQU   SIBACCT,*-SIBACCT,C'X'
                                    5145  1 03-SIB   +SIBINFO    EQU   SIBSTART,*-SIBSTART,C'X'
                                    5146  1          +***
                                    5147  1          +***  Fields below here can be modified by the user program.
                                    5148  1          +***
 000080                             5149  1 03-SIB   +SIBOPST    DS    0F
 000080                             5150  1 03-SIB   +SIBUC      DS    H                   Update count
 000082                             5151  1 03-SIB   +SIBNAME    DS    CL20                User name
 000096                             5152  1 03-SIB   +SIBTID     DS    CL8                 Terminal id
 00009E 00                          5153  1 03-SIB   +SIBTCLS    DS    CL8                 Terminal class
 SIBTFLAG.SIBFMOD  80 ONES
 SIBTFLAG.SIBFSAM  40 ONES
 SIBTFLAG.SIBFALTD 20 ONES
                                    5173  1          +
 0000A7                             5174  1 03-SIB   +           DS    XL1                 Reserved
 0000A8 00                          5175  1          +*
 SIBQFLG.SIBFVFAST 80 ONES
 0000A9 00                          5185  1          +*
 0000AA 00                          5190  1          +*
 SIBUFLG.SIBFNMSG  80 ONES
 SIBUFLG.SIBFNCOM  40 ONES
 SIBUFLG.SIBFNBRK  20 ONES
 SIBUFLG.SIBFNTIM  10 ONES
 SIBUFLG.SIBFCLN   08 ONES
 SIBUFLG.SIBFDISP  04 ONES
 SIBUFLG.SIBFPERM  02 ONES
 SIBUFLG.SIBFTRAN  01 ONES
 0000AB 00                          5235  1          +*
 SIBUFLG2.SIBFTRC  80 ONES
 SIBUFLG2.SIBFKEEP 40 ONES
                                    5250  1 03-SIB   +SIBG       EQU   SIBSTART,*-SIBSTART,C'X'
                                    5251  1          +***
1TERMINAL (TERM00) (09:44) (22MAR04) MILTEN Terminal Control Blocks                                                         Page   58
0Current Usings:  (PZERO,R0)
0Loc    Object Code    Addr1 Addr2  Stmt Lv Lineno    Source Statement           (Hibal 5, Asmedit 3.3)  HLASM R4.0  2004/03/22 09.44
+___    ______ ____    _____ _____  ____ __ ______    ______ _________
0                                   5252  1          +***  Information below this line is considered "private" and
                                    5253  1          +***    the user can only sense it for his own session.
                                    5254  1          +***
 0000AC                             5255  1 03-SIB   +SIBPROJ    DS    CL8                 Project-id
 0000B4 00                          5256  1          +*
 SIBFLG.SIBFUPL    80 ONES
 SIBFLG.SIBFBACK   40 ONES
 SIBFLG.SIBFFAST   20 ONES
 SIBFLG.SIBFRSV8   10 ONES
 SIBFLG.SIBFPSP    08 ONES
 SIBFLG.SIBFXON    04 ONES
 SIBFLG.SIBFFILT   02 ONES
 SIBFLG.SIBFNECH   01 ONES
 0000B5 00                          5301  1          +*
 SIBFLG2.SIBFSAMFO 80 ONES
 SIBFLG2.SIBFERA   40 ONES
 SIBFLG2.SIBFNTYP  20 ONES
                                    5321  1          +*
 0000B6                             5322  1 03-SIB   +SIBINMX    DS    H                   Maximum input length allowed
 0000B8                             5323  1 03-SIB   +SIBOUMX    DS    H                   Maximum output length allowed
 0000BA                             5324  1 03-SIB   +SIBCHAR    DS    CL8                 Terminal translate table name
 0000C2                             5325  1 03-SIB   +SIBTABS    DS    XL16                Tabs
 0000D2 00                          5326  1          +*
 SIBOFLAG.SIBFPAR  80 ONES
 SIBOFLAG.SIBFEVEN 40 ONES
 SIBOFLAG.SIBFODD  20 ONES
 SIBOFLAG.SIBFMARK 10 ONES
 SIBOFLAG.SIBFQUIE 08 ONES
 0000D3                             5356  1 03-SIB   +           DS    X                   Reserved
 0000D4                             5357  1 03-SIB   +SIBWID     DS    H                   Terminal width, actual
 0000D6                             5358  1 03-SIB   +SIBHEIP    DS    H                   Terminal height, before pausing
 0000D8                             5359  1 03-SIB   +SIBHEI     DS    H                   Terminal height, actual
                                    5360  1          +
 0000DA                             5361  1 03-SIB   +SIBTTYPE   DS    CL8                 Terminal type
 0000E2                             5362  1 03-SIB   +           DS    XL2                 Reserved
 0000E4                             5363  1 03-SIB   +SIBIPADR   DS    F                   IP address for TCP/IP sessions
 0000E8                             5364  1 03-SIB   +           DS    XL2                 Reserved
                                    5365  1          +
 0000EA                             5366  1 03-SIB   +SIBIDMAX   DS    H                   Max no. of idle minutes allowed
                                    5367  1          +
 0000EC                             5368  1 03-SIB   +SIBALTWID   DS   H                   Alternate width (0=none)
 0000EE                             5369  1 03-SIB   +SIBALTHEI   DS   H                   Alternate height (0=none)
                                    5370  1          +
 0000F0                             5371  1 03-SIB   +SIBCRI     DS    2H                  CR idles
 0000F4                             5372  1 03-SIB   +SIBLFI     DS    H                   LF idles
 0000F6                             5373  1 03-SIB   +SIBHTI     DS    2H                  HT idles
 0000FA                             5374  1 03-SIB   +SIBCAI     DS    H                   Cursor-address idles
 0000FC                             5375  1 03-SIB   +SIBCSI     DS    H                   Clear-screen idles
                                    5376  1 03-SIB   +SIBIDLE    EQU   SIBCRI,*-SIBCRI,C'X'
                                    5377  1          +
                                    5378  1 03-SIB   +SIBOPT     EQU   SIBOPST,*-SIBOPST,C'X'
                                    5379  1          +
                                    5380  1 03-SIB   +SIB1       EQU   SIB1ST,*-SIB1ST,C'X'
                                    5381  1          +
1TERMINAL (TERM00) (09:44) (22MAR04) MILTEN Terminal Control Blocks                                                         Page   59
0Current Usings:  (PZERO,R0)
0Loc    Object Code    Addr1 Addr2  Stmt Lv Lineno    Source Statement           (Hibal 5, Asmedit 3.3)  HLASM R4.0  2004/03/22 09.44
+___    ______ ____    _____ _____  ____ __ ______    ______ _________
00000FE                000FE 000FE  5382    03-SIB   +SIB      EQU   SIBSTART,*-SIBSTART,C'X'
1TERMINAL (TERM00) (09:44) (22MAR04) Initialization                                                                         Page   60
0Current Usings:  (PZERO,R0)
0Loc    Object Code    Addr1 Addr2  Stmt Lv Lineno    Source Statement           (Hibal 5, Asmedit 3.3)  HLASM R4.0  2004/03/22 09.44
+___    ______ ____    _____ _____  ____ __ ______    ______ _________
0                                   5393     317.     *****************************************************************
                                    5394     318.     *                                                               *
                                    5395     319.     * TERMINIT --  This is entered from global initialization       *
                                    5396     320.     *              as a subroutine of the initialization task.  It  *
                                    5397     321.     *              starts up any address spaces that are needed to  *
                                    5398     322.     *              act as servers for the different types of        *
                                    5399     323.     *              terminals.                                       *
                                    5400     324.     *                                                               *
                                    5401     325.     *   Input  --  none                                             *
                                    5402     326.     *                                                               *
                                    5403     327.     *  Output  --  none                                             *
                                    5404     328.     *                                                               *
                                    5405     329.     *****************************************************************
-000016                             5407     331.     TERMINIT PROC  SCOPE=GLOBAL
 000016 E3C5D9D4C9D5C9E3            5413             +
 00001E 0000/0000                   5414             +
 000022 900F D004/18AF       00004  5416             +
 USING  TERMINIT,R10
 000028 50D0 C000/18CD       00000  5431             +
 00002E 9680 C000      00000        5433             +
 000032 41D0 C048            00048  5434             +
 000036 5880 0200            00200  5435     332.              L     RM,MATPTR               Get the MAT pointer
 USING  MAT,R8                      5436     333.              WITH  (MAT,RM)
                                    5449     334.     *
                                    5450     335.     * First allocate our global control block
                                    5451     336.     *
 USING  @VMGET-72,R13               5452     337.              VMGET L'GTCT,LOC=GLOBHI,FIX=YES
 00003A D70A D048 D048 00000 00000  5476             +
 000040 4100 0028            00028  5488             +
 000044 5000 D048            00000  5493             +
 000048 D201 D050 A2EE 00008 00310  5494             +
 00004E 58F0 A2BE/0DEF       002E0  5497             +
 000054 1870                        5499     338.              LR    RY,RVR                  Copy the address
 USING  GTCT,R7                     5500     339.              WITH  (GTCT,RY)
 000056                             5513     340.              CLEAR GTCT                    Zero it out
 000056 D727 7000 7000 00000 00000  5519             +
 00005C D203 7000 A2C2 00000 002E4  5520     341.              MVC   GTCT(4),=C'GTCT'        Move in the control block ID
 000062 D201 7008 A2F0 00008 00312  5521     342.              MVC   GTCTTBSZ,=Y(8192+L'PDB+L'TBUF)    Allow for 8K xfers
 DROP   @VMGET-72,R13               5522     343.              LKCRE GTCTLOCK                Get a lock
 USING  @LOCKCRE-72,R13
 000068 D710 D048 D048 00000 00000  5543             +
 00006E D20F D048 A2AE 00000 002D0  5549             +
 000074 58F0 A2C6/0DEF       002E8  5552             +
 00007A 5000 7004            00004  5554     344.              ST    RVR,GTCTLOCK            Save the lock ID
 00007E 5070 8024            00024  5555     345.              ST    RY,MATGTCT              Save the GTCT address
                                    5556     346.     *
                                    5557     347.     * Start up the MILTEN terminal server address space
                                    5558     348.     *
 DROP   @LOCKCRE-72,R13             5559     349.              PSET  @ACREATE
 USING  @ACREATE-72,R13
 000082 D707 D048 D048 00000 00000  5579             +
 000088 D203 D048 A2CA 00000 002EC  5580     350.              MVC   @ACRPSW(4),=X'070C0000' Default location
1TERMINAL (TERM00) (09:44) (22MAR04) Initialization                                                                         Page   61
0Current Usings:  (PZERO,R0) (GTCT,R7) (MAT,R8) (TERMINIT,R10) (@ACREATE-72,R13)
0Loc    Object Code    Addr1 Addr2  Stmt Lv Lineno    Source Statement           (Hibal 5, Asmedit 3.3)  HLASM R4.0  2004/03/22 09.44
+___    ______ ____    _____ _____  ____ __ ______    ______ _________
000008E D600 D049 80E0 00001 000E0  5581     351.              OC    @ACRPSW+1(1),MATSKEY    System Key
 000094 D203 D04C A2CE 00004 002F0  5582     352.              MVC   @ACRPSW+4(4),=A(X'80000000'+MILTERM)
                                    5583     353.     *        L     RS,=V(ASMTASK)          Get the address
                                    5584     354.     *        O     RS,=X'80000000'         Set 31 bit mode
                                    5585     355.     *        ST    RS,@ACRPSW+4            Save in the PSW
                                    5586     356.     *        MVC   @ACRPARM,=A(X'80000000'+MILTERM)
 00009A 58F0 A2D2/0DEF       002F4  5587     357.              VCALL ACREATE                 Create the address space
 0000A0 5000 7024            00024  5591     358.              ST    RVR,GTMILAS             Save the ASB address
                                    5592     359.     *
                                    5593     360.     * Start up other terminal servers
                                    5594     361.     *
 0000A4 981F C008            00008  5595     362.              PEND  ,
 DROP   GTCT,R7
 DROP   MAT,R8
 DROP   TERMINIT,R10
 0000A8 9680 C000/0B0E 00000        5615             +
 DROP   @ACREATE-72,R13
1TERMINAL (TERM00) (09:44) (22MAR04) Initialization                                                                         Page   62
0Current Usings:  (PZERO,R0)
0Loc    Object Code    Addr1 Addr2  Stmt Lv Lineno    Source Statement           (Hibal 5, Asmedit 3.3)  HLASM R4.0  2004/03/22 09.44
+___    ______ ____    _____ _____  ____ __ ______    ______ _________
0                                   5625     364.     *****************************************************************
                                    5626     365.     *                                                               *
                                    5627     366.     * TERMINAS --  This is called from a new address space when it  *
                                    5628     367.     *              starts up to initialize terminal communications  *
                                    5629     368.     *              for that address space.                          *
                                    5630     369.     *                                                               *
                                    5631     370.     *   Input  --  none                                             *
                                    5632     371.     *                                                               *
                                    5633     372.     *  Output  --  none                                             *
                                    5634     373.     *                                                               *
                                    5635     374.     *****************************************************************
-0000AE                             5637     376.     TERMINAS PROC  SCOPE=GLOBAL
 0000AE E3C5D9D4C9D5C1E2            5643             +
 0000B6 0000/0000                   5644             +
 0000BA 900F D004/18AF       00004  5646             +
 USING  TERMINAS,R10
 0000C0 50D0 C000/18CD       00000  5661             +
 0000C6 9680 C000      00000        5663             +
 0000CA 41D0 C048            00048  5664             +
                                    5665     377.     *
                                    5666     378.     * Make sure that the Central Terminal routines have had time to
                                    5667     379.     * place the terminal communications control block address in the ASB
                                    5668     380.     *
 0000CE 5880 0200            00200  5669     381.              L     RM,PZMATP               Get the MAT pointer
 0000D2 5880 8024            00024  5670     382.              WITH  (MAT,RM),'L RM,MATGTCT' Get the GTCT pointer
 USING  MAT,R8
 DROP   MAT,R8
 0000D6 1288/4780 A08A       00144  5694     383.              IF    (RM,Z),EXIT             No GTCT yet
 USING  GTCT,R8                     5711     384.              WITH  (GTCT,RM),BEGIN
 USING  @LOCKS-72,R13               5725  1  385.                LKOB  GTCTLOCK                Obtain the Terminal lock
 0000DC D203 D048 8004 00000 00004  5741  1          +
 0000E2 58F0 A23E/0DEF       002F8  5744  1          +
 0000E8                             5746  1  386.                LKREL GTCTLOCK                Now it can be freed
 0000E8 D203 D048 8004 00000 00004  5755  1          +
 0000EE 58F0 A242/0DEF       002FC  5758  1          +
 DROP   GTCT,R8                     5760     387.              END   ,
                                    5768     388.     *
                                    5769     389.     * Get the terminal control block
                                    5770     390.     *
 0000F4 5860 0208            00208  5771     391.              L     RX,PZCURASB             Get the current ASB address
 0000F8 5860 6030            00030  5772     392.              WITH  (ASB,RX),'L RX,ASBTCCB' Get the TCCB address
 USING  ASB,R6
 DROP   ASB,R6
 0000FC 1266/4780 A08A       00144  5796     393.              IF    (RX,Z),EXIT             No terminal for this AS
                                    5813     394.     *
                                    5814     395.     * Call the proper initialization routine, depending on the
                                    5815     396.     * terminal type.
                                    5816     397.     *
 000102 95D4 6000      00000        5817     398.              IF    (@RX,EQ,'M'),BEGIN      Milten Terminal
 000106 4770 A05A            00114  5828             +
 00010A 58F0 A246/0DEF       00300  5833  1  399.                ACALL MILIAS                  Go set up the milten terminal
 000110 47F0 A08A            00144  5840  1  400.                EXIT  TERMINAS
1TERMINAL (TERM00) (09:44) (22MAR04) Initialization                                                                         Page   63
0Current Usings:  (PZERO,R0) (TERMINAS,R10) (@LOCKS-72,R13)
0Loc    Object Code    Addr1 Addr2  Stmt Lv Lineno    Source Statement           (Hibal 5, Asmedit 3.3)  HLASM R4.0  2004/03/22 09.44
+___    ______ ____    _____ _____  ____ __ ______    ______ _________
0000114                             5843     401.              END   ,
 000114 AC04 021B      0021B        5847     402.              ABORT BADTCCB                 What kind is it?
 000118 9680 021A      0021A        5856             +
 00011C 50F0 021C            0021C  5857             +
 000120 58F0 0210            00210  5858             +
 000124 89F0 0010            00010  5859             +
 000128 88F0 0010            00010  5860             +
 00012C 41F0 F000            00000  5861             +
 000130 AEFF 0006            00006  5862             +
 000134 C2C1C4E3C3C3C240            5863             +
 000144 981F C008            00008  5864     403.              PEND  ,
 DROP   TERMINAS,R10
 000148 9680 C000/0B0E 00000        5874             +
 DROP   @LOCKS-72,R13
1TERMINAL (TERM00) (09:44) (22MAR04) Initialization                                                                         Page   64
0Current Usings:  (PZERO,R0)
0Loc    Object Code    Addr1 Addr2  Stmt Lv Lineno    Source Statement           (Hibal 5, Asmedit 3.3)  HLASM R4.0  2004/03/22 09.44
+___    ______ ____    _____ _____  ____ __ ______    ______ _________
0                                   5884     405.     *****************************************************************
                                    5885     406.     *                                                               *
                                    5886     407.     * TERMINUI --  This is called from a new address space when it  *
                                    5887     408.     *              is able to wait.  It sets up user information    *
                                    5888     409.     *              for that address space.                          *
                                    5889     410.     *                                                               *
                                    5890     411.     *   Input  --  none                                             *
                                    5891     412.     *                                                               *
                                    5892     413.     *  Output  --  none                                             *
                                    5893     414.     *                                                               *
                                    5894     415.     *****************************************************************
-00014E                             5896     417.     TERMINUI PROC  SCOPE=GLOBAL
 00014E E3C5D9D4C9D5E4C9            5902             +
 000156 0000/0000                   5903             +
 00015A 900F D004/18AF       00004  5905             +
 USING  TERMINUI,R10
 000160 50D0 C000/18CD       00000  5920             +
 000166 9680 C000      00000        5922             +
 00016A 41D0 C048            00048  5923             +
                                    5924     418.     *
                                    5925     419.     * Get the terminal control block
                                    5926     420.     *
 00016E 5860 0208            00208  5927     421.              L     RX,PZCURASB             Get the current ASB address
 000172 5860 6030            00030  5928     422.              WITH  (ASB,RX),'L RX,ASBTCCB' Get the TCCB address
 USING  ASB,R6
 DROP   ASB,R6
 000176 1266/4780 A064       001BE  5952     423.              IF    (RX,Z),EXIT             No terminal for this AS
                                    5969     424.     *
                                    5970     425.     * Call the proper initialization routine, depending on the
                                    5971     426.     * terminal type.
                                    5972     427.     *
 00017C 95D4 6000      00000        5973     428.              IF    (@RX,EQ,'M'),BEGIN      Milten Terminal
 000180 4770 A034            0018E  5984             +
 000184 58F0 A1AA/0DEF       00304  5989  1  429.                ACALL MILIUSI                 Get user info from Milten
 00018A 47F0 A064            001BE  5996  1  430.                EXIT  TERMINUI
 00018E                             5999     431.              END   ,
 00018E AC04 021B      0021B        6003     432.              ABORT BADTCCB                 What kind is it?
 000192 9680 021A      0021A        6012             +
 000196 50F0 021C            0021C  6013             +
 00019A 58F0 0210            00210  6014             +
 00019E 89F0 0010            00010  6015             +
 0001A2 88F0 0010            00010  6016             +
 0001A6 41F0 F000            00000  6017             +
 0001AA AEFF 0006            00006  6018             +
 0001AE C2C1C4E3C3C3C240            6019             +
 0001BE 981F C008            00008  6020     433.              PEND  ,
 DROP   TERMINUI,R10
 0001C2 9680 C000/0B0E 00000        6030             +
1TERMINAL (TERM00) (09:44) (22MAR04) Initialization                                                                         Page   65
0Current Usings:  (PZERO,R0)
0Loc    Object Code    Addr1 Addr2  Stmt Lv Lineno    Source Statement           (Hibal 5, Asmedit 3.3)  HLASM R4.0  2004/03/22 09.44
+___    ______ ____    _____ _____  ____ __ ______    ______ _________
0                                   6037     435.     *****************************************************************
                                    6038     436.     *                                                               *
                                    6039     437.     * TERMLGOF --  This is called from a when an address space is   *
                                    6040     438.     *              terminating.  It frees up any control blocks or  *
                                    6041     439.     *              devices that are held by that address space with *
                                    6042     440.     *              regard to terminals.                             *
                                    6043     441.     *                                                               *
                                    6044     442.     *   Input  --  none                                             *
                                    6045     443.     *                                                               *
                                    6046     444.     *  Output  --  none                                             *
                                    6047     445.     *                                                               *
                                    6048     446.     *****************************************************************
-0001C8                             6050     448.     TERMLGOF PROC  SCOPE=GLOBAL
 0001C8 E3C5D9D4D3C7D6C6            6056             +
 0001D0 0000/0000                   6057             +
 0001D4 900F D004/18AF       00004  6059             +
 USING  TERMLGOF,R10
 0001DA 50D0 C000/18CD       00000  6074             +
 0001E0 9680 C000      00000        6076             +
 0001E4 41D0 C048            00048  6077             +
                                    6078     449.     *
                                    6079     450.     * Get the terminal control block
                                    6080     451.     *
 0001E8 5860 0208            00208  6081     452.              L     RX,PZCURASB             Get the current ASB address
 0001EC 5860 6030            00030  6082     453.              WITH  (ASB,RX),'L RX,ASBTCCB' Get the TCCB address
 USING  ASB,R6
 DROP   ASB,R6
 0001F0 1266/4780 A064       00238  6106     454.              IF    (RX,Z),EXIT             No terminal for this AS
                                    6123     455.     *
                                    6124     456.     * Call the proper termination routine, depending on the
                                    6125     457.     * terminal type.
                                    6126     458.     *
 0001F6 95D4 6000      00000        6127     459.              IF    (@RX,EQ,'M'),BEGIN      Milten Terminal
 0001FA 4770 A034            00208  6138             +
 0001FE 58F0 A134/0DEF       00308  6143  1  460.                ACALL MILLGOF                 Go logoff the milten terminal
 000204 47F0 A064            00238  6150  1  461.                EXIT  TERMLGOF
 000208                             6153     462.              END   ,
 000208 AC04 021B      0021B        6157     463.              ABORT BADTCCB                 What kind is it?
 00020C 9680 021A      0021A        6166             +
 000210 50F0 021C            0021C  6167             +
 000214 58F0 0210            00210  6168             +
 000218 89F0 0010            00010  6169             +
 00021C 88F0 0010            00010  6170             +
 000220 41F0 F000            00000  6171             +
 000224 AEFF 0006            00006  6172             +
 000228 C2C1C4E3C3C3C240            6173             +
 000238 981F C008            00008  6174     464.              PEND  ,
 DROP   TERMLGOF,R10
 00023C 9680 C000/0B0E 00000        6184             +
1TERMINAL (TERM00) (09:44) (22MAR04) Terminal Information request                                                           Page   66
0Current Usings:  (PZERO,R0)
0Loc    Object Code    Addr1 Addr2  Stmt Lv Lineno    Source Statement           (Hibal 5, Asmedit 3.3)  HLASM R4.0  2004/03/22 09.44
+___    ______ ____    _____ _____  ____ __ ______    ______ _________
0                                   6192     467.     *****************************************************************
                                    6193     468.     *                                                               *
                                    6194     469.     *  TERUINF -  Returns descriptive terminal information          *
                                    6195     470.     *                                                               *
                                    6196     471.     *   Input  --  @TERUINF                                         *
                                    6197     472.     *                                                               *
                                    6198     473.     *  Output  --  @TERUINF                                         *
                                    6199     474.     *                                                               *
                                    6200     475.     *****************************************************************
 000242                             6201     476.     TERUINF  PROC  @TERUINF,SCOPE=GLOBAL
 000242 E3C5D9E4C9D5C640            6207             +
 00024A 0008/0000                   6208             +
 00024E 900F D004/18AF       00004  6210             +
 USING  TERUINF,R10
 000254 50D0 C000/18CD       00000  6225             +
 00025A 9680 C000      00000        6227             +
 USING  @TERUINF-72,R12
 00025E 41D0 C050            00050  6241             +
 000262 5860 0208            00208  6242     477.              L     RX,PZCURASB             Current ASB
 000266 5860 6030            00030  6243     478.              WITH  (ASB,RX),'L RX,ASBTCCB' Get TCCB addr
 USING  ASB,R6
 DROP   ASB,R6
 00026A 1266/4780 A072       002C0  6267     479.              IF    (RX,Z),EXIT             No terminal this AS
 000270 95D4 6000      00000        6284     480.              IF    (@RX,EQ,'M'),BEGIN      Milten style terminal
 000274 4770 A042            00290  6295             +
 USING  @MILUINF-72,R13             6300  1  481.                PSET  @MILUINF
 000278 D703 D048 D048 00000 00000  6317  1          +
 00027E 4100 C048            00000  6318  1  482.                PMOV  @MILUPTR,LA:@TERUINF
 000282 5000 D048            00000  6334  1          +
 000286 58F0 A0BE/0DEF       0030C  6335  1  483.                ACALL MILUINF
 00028C 47F0 A072            002C0  6342  1  484.                EXIT  TERUINF
 000290                             6345     485.              END   ,                       OF Miltem style terminal
 000290 AC04 021B      0021B        6349     486.              ABORT BADTCCB                 What type is it?
 000294 9680 021A      0021A        6358             +
 000298 50F0 021C            0021C  6359             +
 00029C 58F0 0210            00210  6360             +
 0002A0 89F0 0010            00010  6361             +
 0002A4 88F0 0010            00010  6362             +
 0002A8 41F0 F000            00000  6363             +
 0002AC AEFF 0006            00006  6364             +
 0002B0 C2C1C4E3C3C3C240            6365             +
 0002C0 981F C008            00008  6366     487.              PEND  ,
 DROP   @TERUINF-72,R12
 DROP   TERUINF,R10
 0002C4 9680 C000/0B0E 00000        6381             +
 DROP   @MILUINF-72,R13
 0002D0                             6390     488.              LTORG ,
 0002D0 C7E3C3E3D3D6C3D2            6392                             =CL16'GTCTLOCK'
 0002E0 00000000                    6393                             =V(VMGET)
 0002E4 C7E3C3E3                    6394                             =C'GTCT'
 0002E8 00000000                    6395                             =V(LKCRE)
 0002EC 070C0000                    6396                             =X'070C0000'
 0002F0 80000320                    6397                             =A(X'80000000'+MILTERM)
 0002F4 00000000                    6398                             =V(ACREATE)
1TERMINAL (TERM00) (09:44) (22MAR04) Terminal Information request                                                           Page   67
0Current Usings:  (PZERO,R0)
0Loc    Object Code    Addr1 Addr2  Stmt Lv Lineno    Source Statement           (Hibal 5, Asmedit 3.3)  HLASM R4.0  2004/03/22 09.44
+___    ______ ____    _____ _____  ____ __ ______    ______ _________
00002F8 00000000                    6399                             =V(LKOB)
 0002FC 00000000                    6400                             =V(LKREL)
 000300 00001720                    6401                             =A(MILIAS)
 000304 0000187A                    6402                             =A(MILIUSI)
 000308 000018F2                    6403                             =A(MILLGOF)
 00030C 000018B2                    6404                             =A(MILUINF)
 000310 3F00                        6405                             =Y(63*256+0)
 000312 2044           00314 042AF  6406                             =Y(8192+L'PDB+L'TBUF)
1TERMINAL (TERM00) (09:44) (22MAR04) MILTEN Terminal Control - Central                                                      Page   68
0Current Usings:  (PZERO,R0)
0Loc    Object Code    Addr1 Addr2  Stmt Lv Lineno    Source Statement           (Hibal 5, Asmedit 3.3)  HLASM R4.0  2004/03/22 09.44
+___    ______ ____    _____ _____  ____ __ ______    ______ _________
0                                   6411     490.     *****************************************************************
                                    6412     491.     *                                                               *
                                    6413     492.     *  MILTERM --  This is the main entry point for MILTEN terminal *
                                    6414     493.     *              control.  It initializes the MILTEN interface    *
                                    6415     494.     *              and routes input from the path to the correct    *
                                    6416     495.     *              address spaces.                                  *
                                    6417     496.     *                                                               *
                                    6418     497.     *   Input  --  none                                             *
                                    6419     498.     *                                                               *
                                    6420     499.     *  Output  --  none                                             *
                                    6421     500.     *                                                               *
                                    6422     501.     *****************************************************************
-000000                00000 00028  6424     503.     TIPARMS  RECORD BEGIN                  Terminal init parms
 000000                             6432  1  504.     TITYPE     DS    XL(L'PARMIN)            Parameter request type
 000004                             6433  1  505.     TIKEY1     DS    CL8                     Keyword 1
 00000C                             6434  1  506.     TIKEY2     DS    CL8                     | 2
 000014                             6435  1  507.     TIKEY3     DS    CL8                     | 3
 00001C                             6436  1  508.     TIOUT      DS    CL12                    Output string area
 000028                00028 00028  6437     509.              END   ,
0000314                             6447     511.     MILTERM  PROC  SCOPE=LOCAL
 000314 D4C9D3E3C5D9D440            6454             +
 00031C 0000/0000                   6455             +
 000320 900F D004/18AF       00004  6457             +
 USING  MILTERM,R10
 000326 50D0 C000/18CD       00000  6472             +
 00032C 9680 C000      00000        6474             +
 000330 41D0 C048            00048  6475             +
 000334 5880 0200            00200  6476     512.              L     RM,MATPTR               Get the MAT pointer
 000338 5880 8024            00024  6477     513.              WITH  (MAT,RM),'L RM,MATGTCT' Address of the global CB
 USING  MAT,R8
 DROP   MAT,R8
 USING  GTCT,R8                     6501     514.              WITH  (GTCT,RM)
 00033C 58F0 AAB0/0DEF       00DD0  6514     515.              VCALL DISPSHLD                Make us non-swapable
                                    6518     516.     *
                                    6519     517.     *  Give this address space system-AS priority
                                    6520     518.     *
 000342 58F0 AAB4/0DEF       00DD4  6521     519.              VCALL ASSYSTSK
                                    6525     520.     *
                                    6526     521.     * Allocate our Milten Control block
                                    6527     522.     *
 USING  @VMGET-72,R13               6528     523.              VMGET L'MILCB,LOC=LOCSYS,FIX=YES
 000348 D70A D048 D048 00000 00000  6552             +
 00034E 4100 0039            00039  6564             +
 000352 5000 D048            00000  6569             +
 000356 D201 D050 AB48 00008 00E68  6570             +
 00035C 58F0 AAB8/0DEF       00DD8  6573             +
 000362 1890                        6575     524.              LR    RN,RVR
 000364 5090 8020            00020  6576     525.              ST    RN,GTCTMILC             Save the address in the GTCT
 USING  MILCB,R9                    6577     526.              WITH  (MILCB,RN)
 000368                             6590     527.              CLEAR MILCB                   Clear it out
 000368 D738 9000 9000 00000 00000  6596             +
1TERMINAL (TERM00) (09:44) (22MAR04) MILTEN Terminal Control - Central                                                      Page   69
0Current Usings:  (PZERO,R0) (GTCT,R8) (MILCB,R9) (MILTERM,R10) (@VMGET-72,R13)
0Loc    Object Code    Addr1 Addr2  Stmt Lv Lineno    Source Statement           (Hibal 5, Asmedit 3.3)  HLASM R4.0  2004/03/22 09.44
+___    ______ ____    _____ _____  ____ __ ______    ______ _________
000036E D203 9000 AABC 00000 00DDC  6597     528.              MVC   MILCB(4),=C'MILC'       Control block id
                                    6598     529.     *
                                    6599     530.     * Fill in default info
                                    6600     531.     *
 000374 5810 0200            00200  6601     532.              L     RS,PZMATP               Get the MAT address
 USING  MAT,R1                      6602     533.              WITH  (MAT,RS),BEGIN
 000378 D207 900C 10D4 0000C 000D4  6616  1  534.                MVC   MILONAM,MATSNAME        Our name
 DROP   MAT,R1                      6617     535.              END   ,
 00037E D207 9014 AA70 00014 00D90  6625     536.              MVC   MILMNAM,=CL8'MILTEN'
 000384 D203 9024 AAC0 00024 00DE0  6626     537.              MVC   MILPASS,=CL4'PSUB'
 00038A D201 9004 AB4A 00004 00E6A  6627     538.              MVC   MILMAXLN,=Y(1024)       Number of milten lines
                                    6628     539.     *
                                    6629     540.     * Check for specified parameters
                                    6630     541.     *
 000390                             6631     542.              VMGET L'TIPARMS,LOC=LOCSYS
 000390 D70A D048 D048 00000 00000  6648             +
 000396 4100 0028            00028  6660             +
 00039A 5000 D048            00000  6665             +
 00039E D201 D050 AB4C 00008 00E6C  6666             +
 0003A4 58F0 AAB8/0DEF       00DD8  6669             +
 0003AA 1860                        6671     543.              LR    RX,RVR
 USING  TIPARMS,R6                  6672     544.              WITH  (TIPARMS,RX),BEGIN
 AUSING (PARMIN,TITYPE)             6686  1  545.                WITH  (PARMIN,TITYPE)
 0003AC                             6693  1  546.                CLEAR TIPARMS
 0003AC D727 6000 6000 00000 00000  6699  1          +
                                    6700  1  547.     *
                                    6701  1  548.     *  Milten name
                                    6702  1  549.     *
                                    6703  1  550.   C            GETPARM2 TIOUT,L'MILMNAM,KEY=(TERMINAL,MILNAME),
 0003B2 9200 6000      00000              1  551.                      TYPE=STRING,REGS=(RA,RJ)
 0003B6 D207 6004 AA78 00004 00D98  6710  1          +
 0003BC D207 600C AA80 0000C 00DA0  6711  1          +
 0003C2 4120 601C            0001C  6718  1          +
 0003C6 4130 0008            00008  6725  1          +
 0003CA 4140 6000            00000  6732  1          +
 0003CE 4150 0014            00014  6739  1          +
 0003D2 83240016                    6742  1          +
 0003D6 4770 A0C6            003E6  6743  1  552.                IF    ZERO,BEGIN
 0003DA D207 9014 AA88 00014 00DA8  6754  2  553.                  MVC   MILMNAM,=CL8' '
 0003E0 0630/4430 AB92       00EB2  6755  2  554.                  DEX   RB,'MVC MILMNAM(0),@RA' Move the data
 000EB1 00                                3          +
 000EB2 D200 9014 2000 00014 00000  6766  2          +
 0003E6                             6774  1  555.                END   ,
                                    6778  1  556.     *
                                    6779  1  557.     *  Milten password
                                    6780  1  558.     *
                                    6781  1  559.   C            GETPARM2 TIOUT,L'MILPASS,KEY=(,MILPASS),
 0003E6 9200 6000      00000              1  560.                      TYPE=STRING,REGS=(RA,RJ)
 0003EA D207 600C AA90 0000C 00DB0  6788  1          +
 0003F0 4120 601C            0001C  6795  1          +
 0003F4 4130 0004            00004  6802  1          +
 0003F8 4140 6000            00000  6809  1          +
 0003FC 4150 0014            00014  6816  1          +
 000400 83240016                    6819  1          +
1TERMINAL (TERM00) (09:44) (22MAR04) MILTEN Terminal Control - Central                                                      Page   70
0Current Usings:  (PZERO,R0) (TIPARMS,R6) (GTCT,R8) (MILCB,R9) (MILTERM,R10) (@VMGET-72,R13)
0Loc    Object Code    Addr1 Addr2  Stmt Lv Lineno    Source Statement           (Hibal 5, Asmedit 3.3)  HLASM R4.0  2004/03/22 09.44
+___    ______ ____    _____ _____  ____ __ ______    ______ _________
0000404 4770 A0F4            00414  6820  1  561.                IF    ZERO,BEGIN
 000408 D203 9024 AA88 00024 00DA8  6831  2  562.                  MVC   MILPASS,=CL8' '
 00040E 0630/4430 AB98       00EB8  6832  2  563.                  DEX   RB,'MVC MILPASS(0),@RA' Move the data
 000EB8 D200 9024 2000 00024 00000  6843  2          +
 000414                             6851  1  564.                END   ,
                                    6855  1  565.     *
                                    6856  1  566.     *  Maximum number of Milten lines
                                    6857  1  567.     *
 000414 9204 6000      00000        6858  1  568.                GETPARM2 KEY=(,MILLINES),TYPE=INT,REGS=(RA,RJ)
 000418 D207 600C AA98 0000C 00DB8  6865  1          +
 00041E 4140 6000            00000  6872  1          +
 000422 4150 0014            00014  6879  1          +
 000426 83240016                    6882  1          +
 00042A 4770 A11E            0043E  6883  1  569.                IF    ZERO,BEGIN              It was specified
 00042E 4920 AB4E            00E6E  6894  2  570.                  CEIL  RA,=Y(32767)            Thats a lot of terminals
 000432 47D0 A11A            0043A  6897  2          +
 000436 4820 AB4E            00E6E  6898  2          +
 00043A 4020 9004            00004  6899  2  571.                  STH   RA,MILMAXLN             Set value
 00043E                             6900  1  572.                END   ,
                                    6904  1  573.     *
                                    6905  1  574.     * Free parameter work area
                                    6906  1  575.     *
 DROP   @VMGET-72,R13               6907  1  576.                VMFREE L'TIPARMS,A=LA:TIPARMS,LOC=LOCSYS
 USING  @VMFREE-72,R13
 00043E D709 D048 D048 00000 00000  6934  1          +
 000444 4100 0028            00028  6946  1          +
 000448 5000 D04C            00004  6951  1          +
 00044C 5060 D048            00000  6962  1          +
 000450 D201 D050 AB4C 00008 00E6C  6963  1          +
 000456 58F0 AAC4/0DEF       00DE4  6966  1          +
 DROP   TIPARMS,R6                  6968     577.              END   ,
                                    6976     578.     *
                                    6977     579.     * Allocate the line table
                                    6978     580.     *
 00045C 4820 9004            00004  6979     581.              LH    RA,MILMAXLN             Get the number of lines
 000460 8920 0002            00002  6980     582.              SLL   RA,2                    4 bytes per line
 DROP   @VMFREE-72,R13              6981     583.              VMGET (RA),LOC=LOCSYS,FIX=YES  Get the memory
 USING  @VMGET-72,R13
 000464 D70A D048 D048 00000 00000  7008             +
 00046A 5020 D048            00000  7018             +
 00046E D201 D050 AB48 00008 00E68  7019             +
 000474 58F0 AAB8/0DEF       00DD8  7022             +
 00047A 1830                        7024     584.              LR    RB,RVR                  Copy the address
 00047C 5030 9008            00008  7025     585.              ST    RB,MILCLTAB             Save the location
 000480 41E0 3000/18F2       00000  7026     586.              ZOT   @RB,(RA)                Clear it to zero
 000486 1B11/0EE0                   7039             +
                                    7041     587.     *
                                    7042     588.     * Setup the Full queue control block
                                    7043     589.     *
 00048A                             7044     590.              VMGET L'FQCB,LOC=GLOBHI       Get it from global memory
 00048A D70A D048 D048 00000 00000  7061             +
 000490 4100 0014            00014  7073             +
 000494 5000 D048            00000  7078             +
 000498 D201 D050 AB50 00008 00E70  7079             +
1TERMINAL (TERM00) (09:44) (22MAR04) MILTEN Terminal Control - Central                                                      Page   71
0Current Usings:  (PZERO,R0) (GTCT,R8) (MILCB,R9) (MILTERM,R10) (@VMGET-72,R13)
0Loc    Object Code    Addr1 Addr2  Stmt Lv Lineno    Source Statement           (Hibal 5, Asmedit 3.3)  HLASM R4.0  2004/03/22 09.44
+___    ______ ____    _____ _____  ____ __ ______    ______ _________
000049E 58F0 AAB8/0DEF       00DD8  7082             +
 0004A4 1820                        7084     591.              LR    RA,RVR
 USING  FQCB,R2                     7085     592.              WITH  (FQCB,RA),BEGIN
 0004A6                             7099  1  593.                CLEAR FQCB                    Clear it out
 0004A6 D713 2000 2000 00000 00000  7105  1          +
 0004AC D203 2000 AAC8 00000 00DE8  7106  1  594.                MVC   FQCB(4),=C'FQCB'        Move in the ID
 DROP   @VMGET-72,R13               7107  1  595.                LKCRE FQCBLOCK                Get a suspend lock
 USING  @LOCKCRE-72,R13
 0004B2 D710 D048 D048 00000 00000  7128  1          +
 0004B8 D20F D048 AAA0 00000 00DC0  7134  1          +
 0004BE 58F0 AACC/0DEF       00DEC  7137  1          +
 0004C4 5000 2008            00008  7139  1  596.                ST    RVR,FQCBLOCK            Save the lock ID
 DROP   FQCB,R2                     7140     597.              END   ,
 0004C8 5020 9034            00034  7148     598.              ST    RA,MILCFQCB             Save the FQCB address
                                    7149     599.     *
                                    7150     600.     * Allocate our I/O control blocks
                                    7151     601.     *
 0004CC 9200 D048      00000        7152     602.              PSET  @IOSIDGET
 DROP   @LOCKCRE-72,R13
 USING  @IOSIDGET-72,R13
 0004D0 9680 D048      00000        7173     603.              SET   @IOSFWAIT               We can wait for it
 0004D4 58F0 AAD0/0DEF       00DF0  7179     604.              VCALL IOSIDGET
 0004DA 5000 9028            00028  7183     605.              ST    RVR,MILCIOCB            Save the I/O ID
                                    7184     606.
 DROP   @IOSIDGET-72,R13            7185     607.              VMGET SCOMPLEN,LOC=LOCSYS,FIX=YES,ONEPAGE=YES
 USING  @VMGET-72,R13
 0004DE D70A D048 D048 00000 00000  7212             +
 0004E4 4100 00B8            000B8  7224             +
 0004E8 5000 D048            00000  7229             +
 0004EC D201 D050 AB48 00008 00E68  7230             +
 0004F2 9640 D052      0000A        7236             +
 0004F6 58F0 AAB8/0DEF       00DD8  7239             +
 0004FC 5000 902C            0002C  7241     608.              ST    RVR,MILCIOPA            Save the parm area address
                                    7242     609.     *
                                    7243     610.     * Open the path
                                    7244     611.     *
 000500 41F0 A240/0DEF       00560  7245     612.     MOPEN    LCALL MILOPEN
1TERMINAL (TERM00) (09:44) (22MAR04) MILTEN Terminal Control - Central                                                      Page   72
0Current Usings:  (PZERO,R0) (GTCT,R8) (MILCB,R9) (MILTERM,R10) (@VMGET-72,R13)
0Loc    Object Code    Addr1 Addr2  Stmt Lv Lineno    Source Statement           (Hibal 5, Asmedit 3.3)  HLASM R4.0  2004/03/22 09.44
+___    ______ ____    _____ _____  ____ __ ______    ______ _________
0                                   7255     614.     *
                                    7256     615.     *    M I L T E N   M A I N   L O O P
                                    7257     616.     *
 000506                             7258     617.     MMLOOP   LABEL ,
                                    7260     618.     *
                                    7261     619.     * If there is new information for us, we take that in
                                    7262     620.     *
 000506 9120 9038      00038        7263     621.              IF    NEWINFO,'LCALL MILREAD' Read from the path
 00050A 47E0 A1F4            00514  7273             +
 00050E 41F0 A414/0DEF       00734  7286             +
                                    7292     622.     *
                                    7293     623.     * If we have received a discretionary post, we ignore it
                                    7294     624.     *
 000514 9110 9038      00038        7295     625.              IF    DISCPOST,'CLEAR DISCPOST'
 000518 47E0 A200            00520  7305             +
 00051C 94EF 9038      00038        7317             +
                                    7322     626.     *
                                    7323     627.     * If a previous full queue emptied, we wake up those address
                                    7324     628.     * spaces which were suspended for it
                                    7325     629.     *
 000520 9140 9038      00038        7326     630.              IF    FULLQE,'LCALL MILFQE'   Wake up the unfortunate
 000524 47E0 A20E            0052E  7336             +
 000528 41F0 A796/0DEF       00AB6  7349             +
                                    7355     631.     *
                                    7356     632.     * If the path has been closed, we have to logoff all the current
                                    7357     633.     * users, and start back at the beginning.
                                    7358     634.     *
 00052E 9180 9038      00038        7359     635.              IF    CLOSED,BEGIN
 000532 47E0 A220            00540  7369             +
 000536 41F0 A84E/0DEF       00B6E  7374  1  636.                LCALL MILCLOSE                Close down the unfortunate
 00053C 47F0 A1E0            00500  7383  1  637.                B     MOPEN                   Then take it from the top
 000540                             7384     638.              END   ,
                                    7388     639.     *
                                    7389     640.     * Wait until something happens
                                    7390     641.     *
 000540 41F0 A8BE/0DEF       00BDE  7391     642.              LCALL MILNOTFY                Wait for something to happen
 000546 47F0 A1E6            00506  7400     643.              B     MMLOOP                  Then start the loop up
 00054A 981F C008            00008  7401     644.              PEND  ,
 DROP   MILCB,R9
 DROP   GTCT,R8
 DROP   MILTERM,R10
 00054E 9680 C000/0B0E 00000        7421             +
 DROP   @VMGET-72,R13
1TERMINAL (TERM00) (09:44) (22MAR04) MILTEN Terminal Control - Central                                                      Page   73
0Current Usings:  (PZERO,R0)
0Loc    Object Code    Addr1 Addr2  Stmt Lv Lineno    Source Statement           (Hibal 5, Asmedit 3.3)  HLASM R4.0  2004/03/22 09.44
+___    ______ ____    _____ _____  ____ __ ______    ______ _________
0                                   7431     646.     *****************************************************************
                                    7432     647.     *                                                               *
                                    7433     648.     *  MILOPEN --  This routine opens up the path to MILTEN and     *
                                    7434     649.     *              signs us on as a subsystem.                      *
                                    7435     650.     *                                                               *
                                    7436     651.     *   Input  --  none                                             *
                                    7437     652.     *                                                               *
                                    7438     653.     *  Output  --  none                                             *
                                    7439     654.     *                                                               *
                                    7440     655.     *****************************************************************
-000554                             7442     657.     MILOPEN  PROC  SCOPE=LOCAL
 000554 D4C9D3D6D7C5D540            7449             +
 00055C 0000/0000                   7450             +
 000560 900F D004/18AF       00004  7452             +
 USING  MILOPEN,R10
 000566 50D0 C000/18CD       00000  7467             +
 00056C 9680 C000      00000        7469             +
 000570 41D0 C048            00048  7470             +
 000574 5890 0200            00200  7471     658.              L     RN,MATPTR               Get the MAT address
 000578 5890 9024            00024  7472     659.              WITH  (MAT,RN),'L RN,MATGTCT' Get the GTCT address
 USING  MAT,R9
 DROP   MAT,R9
 USING  GTCT,R9                     7496     660.              WITH  (GTCT,RN)
 00057C 5880 9020            00020  7509     661.              L     RM,GTCTMILC             Get the MILCB address
 USING  MILCB,R8                    7510     662.              WITH  (MILCB,RM)
                                    7523     663.     *
                                    7524     664.     * Allocate a path device
                                    7525     665.     *
 000580 4110 0010            00010  7526     666.              LA    RS,#IOUSCOM             SCOM device
 000584 83100007                    7527     667.              SYSCTL RS,TYPE=ALLOC          Do the device allocation
 000588 5010 8030            00030  7530     668.              ST    RS,MILCPATH             Save it as the path ID
                                    7531     669.     *
                                    7532     670.     * Open the path to Milten
                                    7533     671.     *
 00058C 5870 802C            0002C  7534     672.              L     RY,MILCIOPA             Get an IO parm area
 USING  #SCOPEN,R7                  7535     673.              WITH  (#SCOPEN,RY),BEGIN
 000590                             7549  1  674.                CLEAR #SCOPEN
 000590 D71F 7000 7000 00000 00000  7555  1          +
 DROP   #SCOPEN,R7                  7556  1  675.                WITH  (#SCOMCMD,RY),'MVC #SCCMD,=A(#SCCOPEN)'
 USING  #SCOMCMD,R7
 000596 D203 7000 A894 00000 00DF4  7574  1          +
 DROP   #SCOMCMD,R7
 USING  #SCOPEN,R7
 00059C D207 7004 800C 00004 0000C  7590  1  676.                MVC   #SCOME,MILONAM          Move in our name
 0005A2 D207 700C 8014 0000C 00014  7591  1  677.                MVC   #SCOYOU,MILMNAM         MILTEN's name
 0005A8 D203 7014 8024 00014 00024  7592  1  678.                MVC   #SCOPASS,MILPASS        And the password
 0005AE D203 7018 A898 00018 00DF8  7593  1  679.                MVC   #SCOBUFL,=A(64*1024)    64k outstanding at one time
                                    7594  1  680.     *
                                    7595  1  681.     * Go ahead and do the I/O
                                    7596  1  682.     *
 USING  @IOSDOIO-72,R13             7597  1  683.                PSET  @IOSDOIO                Setup for the Call
 0005B4 D71D D048 D048 00000 00000  7614  1          +
1TERMINAL (TERM00) (09:44) (22MAR04) MILTEN Terminal Control - Central                                                      Page   74
0Current Usings:  (PZERO,R0) (#SCOPEN,R7) (MILCB,R8) (GTCT,R9) (MILOPEN,R10) (@IOSDOIO-72,R13)
0Loc    Object Code    Addr1 Addr2  Stmt Lv Lineno    Source Statement           (Hibal 5, Asmedit 3.3)  HLASM R4.0  2004/03/22 09.44
+___    ______ ____    _____ _____  ____ __ ______    ______ _________
00005BA D207 D050 0208 00008 00208  7615  1  684.                MVC   @IOSPID,PZCURPID
 0005C0 5070 D058            00010  7616  1  685.                PMOV  @IOSCP,LA:#SCOPEN       Channel program
 0005C4                             7627  1  686.                PMOV  @IOSCHID,MILCPATH       Device ID of the path
 0005C4 D203 D048 8030 00000 00030  7631  1          +
 0005CA                             7632  1  687.                PMOV  @IOSID,MILCIOCB
 0005CA D203 D04C 8028 00004 00028  7636  1          +
 0005D0 9680 D065      0001D        7637  1  688.                SET   @IOSFSYNC               Synchronous I/O
 0005D4 58F0 A89C/0DEF       00DFC  7643  1  689.                VCALL IOSDOIO                 Do the OPEN
 0005DA 1200/4780 A0B0       00610  7647  1  690.                IF    (RVR,NZ),'ABORT BADOPEN'
 0005E0 AC04 021B      0021B        7665  2          +
 0005E4 9680 021A      0021A        7671  2          +
 0005E8 50F0 021C            0021C  7672  2          +
 0005EC 58F0 0210            00210  7673  2          +
 0005F0 89F0 0010            00010  7674  2          +
 0005F4 88F0 0010            00010  7675  2          +
 0005F8 41F0 F000            00000  7676  2          +
 0005FC AEFF 0006            00006  7677  2          +
 000600 C2C1C4D6D7C5D540            7678  1          +
 DROP   #SCOPEN,R7                  7683     691.              END   ,
                                    7691     692.     *
                                    7692     693.     * Our side is open.  Wait for the other side.
                                    7693     694.     *
 000610 41F0 A67E/0DEF       00BDE  7694     695.              LCALL MILNOTFY                Wait for something to happen
 000616 9108 8038      00038        7703     696.              IF    ~OPENED,'ABORT PATHSEQ' Sequence error
 00061A 4710 A0EE            0064E  7713             +
 00061E AC04 021B      0021B        7722  1          +
 000622 9680 021A      0021A        7728  1          +
 000626 50F0 021C            0021C  7729  1          +
 00062A 58F0 0210            00210  7730  1          +
 00062E 89F0 0010            00010  7731  1          +
 000632 88F0 0010            00010  7732  1          +
 000636 41F0 F000            00000  7733  1          +
 00063A AEFF 0006            00006  7734  1          +
 00063E D7C1E3C8E2C5D840            7735             +
                                    7740     697.     *
                                    7741     698.     * Both sides are open now, we have to send Milten our initialization
                                    7742     699.     * request.
                                    7743     700.     *
 DROP   @IOSDOIO-72,R13             7744     701.              VMGET L'PDB,LOC=LOCSYS,FIX=YES,ONEPAGE=YES
 USING  @VMGET-72,R13
 00064E D70A D048 D048 00000 00000  7771             +
 000654 4100 0034            00034  7783             +
 000658 5000 D048            00000  7788             +
 00065C D201 D050 A908 00008 00E68  7789             +
 000662 9640 D052      0000A        7795             +
 000666 58F0 A878/0DEF       00DD8  7798             +
 00066C 1850                        7800     702.              LR    RK,RVR                  Get the PDB address
 USING  PDB,R5                      7801     703.              WITH  (PDB,RK)
 00066E                             7814     704.              CLEAR PDB
 00066E D733 5000 5000 00004 00004  7820             +
 000674 9221 5002      00006        7821     705.              MVI   PDBCMD,TMILINIT         Move in the init command
 000678 D207 5020 800C 00024 0000C  7822     706.              MVC   PDBSYSNM,MILONAM        Move in our name
                                    7823     707.     *
                                    7824     708.     * Format the I/O request
1TERMINAL (TERM00) (09:44) (22MAR04) MILTEN Terminal Control - Central                                                      Page   75
0Current Usings:  (PZERO,R0) (PDB,R5) (MILCB,R8) (GTCT,R9) (MILOPEN,R10) (@VMGET-72,R13)
0Loc    Object Code    Addr1 Addr2  Stmt Lv Lineno    Source Statement           (Hibal 5, Asmedit 3.3)  HLASM R4.0  2004/03/22 09.44
+___    ______ ____    _____ _____  ____ __ ______    ______ _________
0                                   7825     709.     *
 00067E 5840 802C            0002C  7826     710.              L     RJ,MILCIOPA             Get a parameter location
 USING  #SCSR,R4                    7827     711.              WITH  (#SCSR,RJ)
 000682                             7840     712.              CLEAR #SCSR
 000682 D717 4000 4000 00000 00000  7846             +
 DROP   #SCSR,R4                    7847     713.              WITH  (#SCOMCMD,RJ),'MVC #SCCMD,=A(#SCCSEND)'
 USING  #SCOMCMD,R4
 000688 D203 4000 A8A0 00000 00E00  7865             +
 DROP   #SCOMCMD,R4
 USING  #SCSR,R4
 00068E 5050 D04C            00004  7881     714.              ADDSG PDB,L'PDB,#SCSR         Add the segment
 DROP   @VMGET-72,R13
 USING  @ADDSEG-72,R13
 000692 4100 0034            00034  7918             +
 000696 4000 D050            00008  7923             +
 00069A 5040 D048            00000  7934             +
 00069E 58F0 A8A4/0DEF       00E04  7940             +
                                    7942     715.     *
                                    7943     716.     * Send it off to milten
                                    7944     717.     *
 DROP   @ADDSEG-72,R13              7945     718.              PSET  @IOSDOIO
 USING  @IOSDOIO-72,R13
 0006A4 D71D D048 D048 00000 00000  7965             +
 0006AA D207 D050 0208 00008 00208  7966     719.              MVC   @IOSPID,PZCURPID
 0006B0 D203 D04C 8028 00004 00028  7967     720.              MVC   @IOSID,MILCIOCB         I/O control block
 0006B6 5040 D058            00010  7968     721.              ST    RJ,@IOSCP               Channel program (I/O parm)
 0006BA D203 D048 8030 00000 00030  7969     722.              MVC   @IOSCHID,MILCPATH       Path device ID
 0006C0 9680 D065      0001D        7970     723.              SET   @IOSFSYNC               Synchronous I/O
 0006C4 58F0 A89C/0DEF       00DFC  7976     724.              VCALL IOSDOIO                 Go to it
 0006CA 1200/4780 A1A0       00700  7980     725.              IF    (RVR,NZ),'ABORT MILINIT'
 0006D0 AC04 021B      0021B        7998  1          +
 0006D4 9680 021A      0021A        8004  1          +
 0006D8 50F0 021C            0021C  8005  1          +
 0006DC 58F0 0210            00210  8006  1          +
 0006E0 89F0 0010            00010  8007  1          +
 0006E4 88F0 0010            00010  8008  1          +
 0006E8 41F0 F000            00000  8009  1          +
 0006EC AEFF 0006            00006  8010  1          +
 0006F0 D4C9D3C9D5C9E340            8011             +
 DROP   @IOSDOIO-72,R13             8016     726.              VMFREE L'PDB,A=(RK),LOC=LOCSYS,FIX=YES
 USING  @VMFREE-72,R13
 000700 D709 D048 D048 00000 00000  8043             +
 000706 4100 0034            00034  8055             +
 00070A 5000 D04C            00004  8060             +
 00070E 5050 D048            00000  8070             +
 000712 D201 D050 A908 00008 00E68  8071             +
 000718 58F0 A884/0DEF       00DE4  8074             +
                                    8076     727.     *
                                    8077     728.     * We handle the return from this just like any other from milten,
                                    8078     729.     * in the main loop of the milten terminal control.
                                    8079     730.     *
 00071E 981F C008            00008  8080     731.              PEND  ,
 DROP   #SCSR,R4
 DROP   PDB,R5
1TERMINAL (TERM00) (09:44) (22MAR04) MILTEN Terminal Control - Central                                                      Page   76
0Current Usings:  (PZERO,R0) (@VMFREE-72,R13)
0Loc    Object Code    Addr1 Addr2  Stmt Lv Lineno    Source Statement           (Hibal 5, Asmedit 3.3)  HLASM R4.0  2004/03/22 09.44
+___    ______ ____    _____ _____  ____ __ ______    ______ _________
0DROP   MILCB,R8
 DROP   GTCT,R9
 DROP   MILOPEN,R10
 000722 9680 C000/0B0E 00000        8110             +
 DROP   @VMFREE-72,R13
1TERMINAL (TERM00) (09:44) (22MAR04) MILTEN Terminal Control - Central                                                      Page   77
0Current Usings:  (PZERO,R0)
0Loc    Object Code    Addr1 Addr2  Stmt Lv Lineno    Source Statement           (Hibal 5, Asmedit 3.3)  HLASM R4.0  2004/03/22 09.44
+___    ______ ____    _____ _____  ____ __ ______    ______ _________
0                                   8120     733.     *****************************************************************
                                    8121     734.     *                                                               *
                                    8122     735.     *  MILREAD --  This routine milks the path for all the queued   *
                                    8123     736.     *              buffers and sends them where they belong.        *
                                    8124     737.     *                                                               *
                                    8125     738.     *   Input  --  none                                             *
                                    8126     739.     *                                                               *
                                    8127     740.     *  Output  --  none                                             *
                                    8128     741.     *                                                               *
                                    8129     742.     *****************************************************************
-000728                             8131     744.     MILREAD  PROC  SCOPE=LOCAL
 000728 D4C9D3D9C5C1C440            8138             +
 000730 0000/0000                   8139             +
 000734 900F D004/18AF       00004  8141             +
 USING  MILREAD,R10
 00073A 50D0 C000/18CD       00000  8156             +
 000740 9680 C000      00000        8158             +
 000744 41D0 C048            00048  8159             +
 000748 5890 0200            00200  8160     745.              L     RN,MATPTR               Get the MAT address
 00074C 5890 9024            00024  8161     746.              WITH  (MAT,RN),'L RN,MATGTCT' Get the GTCT pointer
 USING  MAT,R9
 DROP   MAT,R9
 USING  GTCT,R9                     8185     747.              WITH  (GTCT,RN)
 000750 5880 9020            00020  8198     748.              L     RM,GTCTMILC             Get the MILCB address
 USING  MILCB,R8                    8199     749.              WITH  (MILCB,RM)
                                    8212     750.     *
                                    8213     751.     * Loop through, receiving buffers and handling each, until there
                                    8214     752.     * are no more to do.
                                    8215     753.     *
 000754 9120 8038      00038        8216     754.     RCVLOOP  WHILE NEWINFO,BEGIN           Loop until we're done
 000758 47E0 A36C            00AA0  8229             +
                                    8234  1  755.     *
                                    8235  1  756.     * Get a transaction from MILTEN
                                    8236  1  757.     *
 00075C 41F0 A514/0DEF       00C48  8237  1  758.                LCALL MILRECV                 Get one
 000762 1270                        8246  1  759.                LTR   RY,RVR                  Copy the TBUF location
 000764 4780 A36C            00AA0  8247  1  760.                IF    Z,EXIT                  No buffer received
 USING  TBUF,R7                     8261  1  761.                WITH  (TBUF,RY)
                                    8274  1  762.     *
                                    8275  1  763.     * We have received a PDB.  If it is one of the commands we take
                                    8276  1  764.     * care of, we do so.  If not, we ship it off to the proper address
                                    8277  1  765.     * space where it can be processed.
                                    8278  1  766.     *
 AUSING (PDB,TBUFDATA)              8279  1  767.                WITH  (PDB,TBUFDATA)          Address the PDB (no RDW)
                                    8286  1  768.     *
                                    8287  1  769.     * See if it's one that we just pass on.
                                    8288  1  770.     *
 000768 9540 7012      00006        8289  1  771.                IF    ((PDBCMD,GT,FMILSOS),AND,(PDBCMD,LT,FMILASYN)),BEGIN
 00076C 47D0 A122            00856  8304  1          +
 000770 9550 7012      00006        8318  1          +
 000774 47B0 A122            00856  8319  1          +
 000778 4810 7010            00004  8324  2  772.                  LH    RS,PDBLIN#              Get the line number
1TERMINAL (TERM00) (09:44) (22MAR04) MILTEN Terminal Control - Central                                                      Page   78
0Current Usings:  (PZERO,R0) (TBUF,R7) (MILCB,R8) (GTCT,R9) (MILREAD,R10)
0Loc    Object Code    Addr1 Addr2  Stmt Lv Lineno    Source Statement           (Hibal 5, Asmedit 3.3)  HLASM R4.0  2004/03/22 09.44
+___    ______ ____    _____ _____  ____ __ ______    ______ _________
000077C 4910 8004            00004  8325  2  773.                  IF    (RS,GE,MILMAXLN),BEGIN
 000780 4750 A078            007AC  8337  2          +
 000784 83000012/840B               8342  3  774.                    ORVSNAP 'MILSYNCLIN#',MODE=WTL
 00078A 4100 A73E            00E72  8347  3          +
 00078E 83000012                    8348  3  775.                    ORVSNAP TBUF,255
 000792 14FF00007000                8352  3          +
 USING  @FRTBUF-72,R13              8353  3  776.                    FREEB TBUF                    Free the TBUF
 000798 D703 D048 D048 00000 00000  8371  3          +
 00079E 5070 D048            00000  8382  3          +
 0007A2 58F0 A6D4/0DEF       00E08  8388  3          +
 0007A8 47F0 A020            00754  8390  3  777.                    B     RCVLOOP
 0007AC                             8391  2  778.                  END   ,
 0007AC 8910 0002            00002  8395  2  779.                  SLL   RS,2                    Size of line table entry
 0007B0 5A10 8008            00008  8396  2  780.                  A     RS,MILCLTAB             Offset to the entry
 0007B4 5860 1000/1266       00000  8397  2  781.                  LT    RX,@RS                  Get the ASB address
 0007BA 4770 A0B2            007E6  8401  2  782.                  IF    Z,BEGIN
 0007BE 83000012/840B               8412  3  783.                    ORVSNAP 'MILSYNCLIN#',MODE=WTL
 0007C4 4100 A73E            00E72  8417  3          +
 0007C8 83000012                    8418  3  784.                    ORVSNAP TBUF,255
 0007CC 14FF00007000                8422  3          +
 0007D2                             8423  3  785.                    FREEB TBUF                    Free the TBUF
 0007D2 D703 D048 D048 00000 00000  8434  3          +
 0007D8 5070 D048            00000  8445  3          +
 0007DC 58F0 A6D4/0DEF       00E08  8451  3          +
 0007E2 47F0 A020            00754  8453  3  786.                    B     RCVLOOP
 0007E6                             8454  2  787.                  END   ,
                                    8458  2  788.     *
                                    8459  2  789.     * Now go pass that info to the interested address space
                                    8460  2  790.     *
 DROP   @FRTBUF-72,R13              8461  2  791.                  PSET  @SYSRNEW
 USING  @SYSRNEW-72,R13
 0007E6 D703 D048 D048 00000 00000  8481  2          +
 0007EC 58F0 A6D8/0DEF       00E0C  8482  2  792.                  VCALL SYSRNEW                 Get a new SYSR ID
 0007F2 1820                        8486  2  793.                  LR    RA,RVR                  Copy the ID
 DROP   @SYSRNEW-72,R13             8487  2  794.                  PSET  @SYSRDO
 USING  @SYSRDO-72,R13
 0007F4 D71B D048 D048 00000 00000  8507  2          +
 0007FA 5020 D048            00000  8508  2  795.                  ST    RA,@SYSRID              SYSR request ID
 0007FE 5060 D04C            00004  8509  2  796.                  ST    RX,@SYSRASB             ASB pointer
 000802 D203 D050 A6DC 00008 00E10  8510  2  797.                  MVC   @SYSRLOC,=A(MILSYSR)    Location for it
 AUSING (@MSPARM,@SYSRPRM)          8511  2  798.                  WITH  (@MSPARM,@SYSRPRM)
 000808 5020 D054            00000  8518  2  799.                  ST    RA,@MSPSYSR             Pass Him the SYSR ID
 00080C 5070 D058            00004  8519  2  800.                  ST    RY,@MSPTBUF             Address of the TBUF
 000810 58F0 A6E0/0DEF       00E14  8520  2  801.                  VCALL SYSRDO                  Schedule the routine
                                    8524  2  802.     *
                                    8525  2  803.     *  If we can't schedule the SYSR here, we just free the SYSR id
                                    8526  2  804.     *  and ignore the event.
                                    8527  2  805.     *
 000816 1200/4780 A11E       00852  8528  2  806.                  IF    (RVR,NZ),BEGIN          'ABORT MILASYSR'
                                    8542  3  807.     *  Remove the SYSR id
                                    8543  3  808.     *
 DROP   @SYSRDO-72,R13              8544  3  809.                    PSET  @SYSRDEL
 USING  @SYSRDEL-72,R13
 00081C D703 D048 D048 00000 00000  8564  3          +
1TERMINAL (TERM00) (09:44) (22MAR04) MILTEN Terminal Control - Central                                                      Page   79
0Current Usings:  (PZERO,R0) (TBUF,R7) (MILCB,R8) (GTCT,R9) (MILREAD,R10) (@SYSRDEL-72,R13)
0Loc    Object Code    Addr1 Addr2  Stmt Lv Lineno    Source Statement           (Hibal 5, Asmedit 3.3)  HLASM R4.0  2004/03/22 09.44
+___    ______ ____    _____ _____  ____ __ ______    ______ _________
0000822 D203 D048 0002 00000 00002  8565  3  810.                    MVC   @SYSRDID,(RA)           Move in the ID
 000828 58F0 A6E4/0DEF       00E18  8566  3  811.                    VCALL SYSRDEL                 Then remove it
 00082E 83000012/8407               8570  3  812.                    ORVSNAP 'MILSYSR',MODE=WTL
 000834 4100 A749            00E7D  8575  3          +
 000838 83000012                    8576  3  813.                    ORVSNAP TBUF,255
 00083C 14FF00007000                8580  3          +
 DROP   @SYSRDEL-72,R13             8581  3  814.                    FREEB TBUF                    Free the TBUF
 USING  @FRTBUF-72,R13
 000842 D703 D048 D048 00000 00000  8602  3          +
 000848 5070 D048            00000  8613  3          +
 00084C 58F0 A6D4/0DEF       00E08  8619  3          +
 000852                             8621  2  815.                  END   ,
 000852 47F0 A020            00754  8625  2  816.                  NEXT  RCVLOOP                 Go on to the next message
 000856                             8628  1  817.                END   ,
1TERMINAL (TERM00) (09:44) (22MAR04) MILTEN Terminal Control - Central                                                      Page   80
0Current Usings:  (PZERO,R0) (TBUF,R7) (MILCB,R8) (GTCT,R9) (MILREAD,R10) (@FRTBUF-72,R13)
0Loc    Object Code    Addr1 Addr2  Stmt Lv Lineno    Source Statement           (Hibal 5, Asmedit 3.3)  HLASM R4.0  2004/03/22 09.44
+___    ______ ____    _____ _____  ____ __ ______    ______ _________
0                                   8633  1  819.     *
                                    8634  1  820.     * It must be a command code that we handle here.
                                    8635  1  821.     *
 000856 9521 7012      00006        8636  1  822.                IF    (PDBCMD,EQ,FMILINIT),BEGIN        Init completion
 00085A 4770 A13E            00872  8649  1          +
                                    8654  2  823.     *         IF    PDBCPLA.CPLASNIU,'ABORT TWO-ORVS'
 00085E                             8655  2  824.                  FREEB TBUF                    Free the TBUF
 00085E D703 D048 D048 00000 00000  8666  2          +
 000864 5070 D048            00000  8677  2          +
 000868 58F0 A6D4/0DEF       00E08  8683  2          +
 00086E 47F0 A020            00754  8685  2  825.                  NEXT  RCVLOOP                 Get the next one
 000872                             8688  1  826.                END   ,
                                    8692  1  827.     *
                                    8693  1  828.     * If it is an error, or any other global command, we die
                                    8694  1  829.     *
 000872 9530 7012      00006        8695  1  830.                IF    (PDBCMD,EQ,FMILSTOP),BEGIN
 000876 4770 A180            008B4  8708  1          +
 00087A 83000012/8007               8713  2  831.                  ORVSNAP 'MILSTOP',MODE=LOG
 000880 4100 A750            00E84  8718  2          +
 000884 AC04 021B      0021B        8719  2  832.                  ABORT MILSTOP
 000888 9680 021A      0021A        8728  2          +
 00088C 50F0 021C            0021C  8729  2          +
 000890 58F0 0210            00210  8730  2          +
 000894 89F0 0010            00010  8731  2          +
 000898 88F0 0010            00010  8732  2          +
 00089C 41F0 F000            00000  8733  2          +
 0008A0 AEFF 0006            00006  8734  2          +
 0008A4 D4C9D3E2E3D6D740            8735  2          +
 0008B4                             8736  1  833.                END
 0008B4 9531 7012      00006        8740  1  834.                IF    (PDBCMD,LE,FMILDUMP),'ABORT MILERR'
 0008B8 4730 A1B8            008EC  8753  1          +
 0008BC AC04 021B      0021B        8762  2          +
 0008C0 9680 021A      0021A        8768  2          +
 0008C4 50F0 021C            0021C  8769  2          +
 0008C8 58F0 0210            00210  8770  2          +
 0008CC 89F0 0010            00010  8771  2          +
 0008D0 88F0 0010            00010  8772  2          +
 0008D4 41F0 F000            00000  8773  2          +
 0008D8 AEFF 0006            00006  8774  2          +
 0008DC D4C9D3C5D9D94040            8775  1          +
1TERMINAL (TERM00) (09:44) (22MAR04) MILTEN Terminal Control - Central                                                      Page   81
0Current Usings:  (PZERO,R0) (TBUF,R7) (MILCB,R8) (GTCT,R9) (MILREAD,R10) (@FRTBUF-72,R13)
0Loc    Object Code    Addr1 Addr2  Stmt Lv Lineno    Source Statement           (Hibal 5, Asmedit 3.3)  HLASM R4.0  2004/03/22 09.44
+___    ______ ____    _____ _____  ____ __ ______    ______ _________
0                                   8781  1  836.     *
                                    8782  1  837.     *           A S Y N C H R O N O U S   S T A T U S
                                    8783  1  838.     *
                                    8784  1  839.     * If we receive asyncronous status from milten, we just send it
                                    8785  1  840.     * to the proper address space via a SYSR
                                    8786  1  841.     *
 0008EC 9550 7012      00006        8787  1  842.                IF    (PDBCMD,EQ,FMILASYN),BEGIN
 0008F0 4770 A280            009B4  8800  1          +
                                    8805  2  843.     *
                                    8806  2  844.     * Find out who it is for
                                    8807  2  845.     *
 0008F4 4810 7010            00004  8808  2  846.                  LH    RS,PDBLIN#              Get the line number
 0008F8 4910 8004            00004  8809  2  847.                  IF    (RS,GE,MILMAXLN),BEGIN
 0008FC 4750 A1E4            00918  8821  2          +
 000900 83000012/840B               8826  3  848.                    ORVSNAP 'MILASYNLIN#',MODE=WTL
 000906 4100 A757            00E8B  8831  3          +
 00090A 83000012                    8832  3  849.                    ORVSNAP TBUF,255
 00090E 14FF00007000                8836  3          +
 000914 47F0 A26C            009A0  8837  3  850.                    B     ASYNIGNORE
 000918                             8838  2  851.                  END   ,
 000918 8910 0002            00002  8842  2  852.                  SLL   RS,2                    Size of line table entry
 00091C 5A10 8008            00008  8843  2  853.                  A     RS,MILCLTAB             Offset to the entry
 000920 5860 1000/1266       00000  8844  2  854.                  LT    RX,@RS                  Get the ASB address
 000926 4770 A20E            00942  8848  2  855.                  IF    Z,BEGIN
 00092A 83000012/840B               8859  3  856.                    ORVSNAP 'MILASYNLIN#',MODE=WTL
 000930 4100 A757            00E8B  8864  3          +
 000934 83000012                    8865  3  857.                    ORVSNAP TBUF,255
 000938 14FF00007000                8869  3          +
 00093E 47F0 A26C            009A0  8870  3  858.                    B     ASYNIGNORE
 000942                             8871  2  859.                  END   ,
                                    8875  2  860.     *
                                    8876  2  861.     * Get a new SYSR ID
                                    8877  2  862.     *
 DROP   @FRTBUF-72,R13              8878  2  863.                  PSET  @SYSRNEW
 USING  @SYSRNEW-72,R13
 000942 D703 D048 D048 00000 00000  8898  2          +
 000948 58F0 A6D8/0DEF       00E0C  8899  2  864.                  VCALL SYSRNEW                 Get a new SYSR ID
 00094E 1820                        8903  2  865.                  LR    RA,RVR
                                    8904  2  866.     *
                                    8905  2  867.     * Schedule the SYSR
                                    8906  2  868.     *
 DROP   @SYSRNEW-72,R13             8907  2  869.                  PSET  @SYSRDO
 USING  @SYSRDO-72,R13
 000950 D71B D048 D048 00000 00000  8927  2          +
 000956 5020 D048            00000  8928  2  870.                  ST    RA,@SYSRID              ID of the SYSR
 00095A 5060 D04C            00004  8929  2  871.                  ST    RX,@SYSRASB             ASB pointer
 00095E D203 D050 A6E8 00008 00E1C  8930  2  872.                  MVC   @SYSRLOC,=A(MILASYN)    SYSR location
 AUSING (@MAPARM,@SYSRPRM)          8931  2  873.                  WITH  (@MAPARM,@SYSRPRM)
 000964 5020 D054            00000  8938  2  874.                  ST    RA,@MAPSYSR             SYSR ID so it can be deleted
 000968 D200 D058 7019 00004 0000D  8939  2  875.                  MVC   @MAPCPLB,PDBCPLB        Completion flags
 00096E 58F0 A6E0/0DEF       00E14  8940  2  876.                  VCALL SYSRDO                  Go to it
                                    8944  2  877.     *
                                    8945  2  878.     *  If we can't schedule the SYSR here, we just free the SYSR id
                                    8946  2  879.     *  and ignore the asynchronous event.
1TERMINAL (TERM00) (09:44) (22MAR04) MILTEN Terminal Control - Central                                                      Page   82
0Current Usings:  (PZERO,R0) (TBUF,R7) (MILCB,R8) (GTCT,R9) (MILREAD,R10) (@SYSRDO-72,R13)
0Loc    Object Code    Addr1 Addr2  Stmt Lv Lineno    Source Statement           (Hibal 5, Asmedit 3.3)  HLASM R4.0  2004/03/22 09.44
+___    ______ ____    _____ _____  ____ __ ______    ______ _________
0                                   8947  2  880.     *  It probably can't be scheduled because this AS has logged off.
                                    8948  2  881.     *
 000974 1200/4780 A26C       009A0  8949  2  882.                  IF    (RVR,NZ),BEGIN          'ABORT MILASYSR'
                                    8963  3  883.     *  Remove the SYSR id
                                    8964  3  884.     *
 DROP   @SYSRDO-72,R13              8965  3  885.                    PSET  @SYSRDEL
 USING  @SYSRDEL-72,R13
 00097A D703 D048 D048 00000 00000  8985  3          +
 000980 D203 D048 0002 00000 00002  8986  3  886.                    MVC   @SYSRDID,(RA)           Move in the ID
 000986 58F0 A6E4/0DEF       00E18  8987  3  887.                    VCALL SYSRDEL                 Then remove it
 00098C 83000012/840B               8991  3  888.                    ORVSNAP 'MILASYNSYSR',MODE=WTL
 000992 4100 A762            00E96  8996  3          +
 000996 83000012                    8997  3  889.                    ORVSNAP TBUF,255
 00099A 14FF00007000                9001  3          +
 0009A0                             9002  2  890.                  END   ,
                                    9006  2  891.     *
                                    9007  2  892.     * Finish up
                                    9008  2  893.     *
 0009A0                             9009  2  894.     ASYNIGNORE     DS  0H
 DROP   @SYSRDEL-72,R13             9010  2  895.                  FREEB TBUF                    Release the buffer
 USING  @FRTBUF-72,R13
 0009A0 D703 D048 D048 00000 00000  9031  2          +
 0009A6 5070 D048            00000  9042  2          +
 0009AA 58F0 A6D4/0DEF       00E08  9048  2          +
 0009B0 47F0 A020            00754  9050  2  896.                  NEXT  RCVLOOP                 Continue in our quest
 0009B4                             9053  1  897.                END   ,
1TERMINAL (TERM00) (09:44) (22MAR04) MILTEN Terminal Control - Central                                                      Page   83
0Current Usings:  (PZERO,R0) (TBUF,R7) (MILCB,R8) (GTCT,R9) (MILREAD,R10) (@FRTBUF-72,R13)
0Loc    Object Code    Addr1 Addr2  Stmt Lv Lineno    Source Statement           (Hibal 5, Asmedit 3.3)  HLASM R4.0  2004/03/22 09.44
+___    ______ ____    _____ _____  ____ __ ______    ______ _________
0                                   9058  1  899.     *
                                    9059  1  900.     *           L O G O N   R E Q U E S T
                                    9060  1  901.     *
                                    9061  1  902.     * For a logon, we allocate a MIB, then create the address space.
                                    9062  1  903.     *
 0009B4 9540 7012      00006        9063  1  904.                IF    (PDBCMD,EQ,FMILSOS),BEGIN
 0009B8 4770 A344            00A78  9076  1          +
                                    9081  2  905.     *
                                    9082  2  906.     *  Make sure the line number is in range
                                    9083  2  907.     *
 0009BC 4810 7010            00004  9084  2  908.                  LH    RS,PDBLIN#              Get the line number
 0009C0 4910 8004            00004  9085  2  909.                  IF    (RS,GE,MILMAXLN),BEGIN
 0009C4 4750 A2BC            009F0  9097  2          +
 0009C8 83000012/840C               9102  3  910.                    ORVSNAP 'MILLOGONLIN#',MODE=WTL
 0009CE 4100 A6EC            00E20  9107  3          +
 0009D2 83000012                    9108  3  911.                    ORVSNAP TBUF,255
 0009D6 14FF00007000                9112  3          +
 0009DC                             9113  3  912.                    FREEB TBUF                    Free the TBUF
 0009DC D703 D048 D048 00000 00000  9124  3          +
 0009E2 5070 D048            00000  9135  3          +
 0009E6 58F0 A6D4/0DEF       00E08  9141  3          +
 0009EC 47F0 A020            00754  9143  3  913.                    B     RCVLOOP
 0009F0                             9144  2  914.                  END   ,
                                    9148  2  915.     *
                                    9149  2  916.     * Get and initialize a MIB
                                    9150  2  917.     *
 DROP   @FRTBUF-72,R13              9151  2  918.                  VMGET L'MIB,LOC=GLOBHI        Get global memory
 USING  @VMGET-72,R13
 0009F0 D70A D048 D048 00000 00000  9178  2          +
 0009F6 4100 0010            00010  9190  2          +
 0009FA 5000 D048            00000  9195  2          +
 0009FE D201 D050 A73C 00008 00E70  9196  2          +
 000A04 58F0 A6A4/0DEF       00DD8  9199  2          +
 000A0A 1850                        9201  2  919.                  LR    RK,RVR                  Copy the address
                                    9202  2  920.     *
                                    9203  2  921.     * Fill in the MIB
                                    9204  2  922.     *
 USING  MIB,R5                      9205  2  923.                  WITH  (MIB,RK)
 000A0C                             9218  2  924.                  CLEAR MIB
 000A0C D70F 5000 5000 00000 00000  9224  2          +
 000A12 D203 5000 A6F8 00000 00E2C  9225  2  925.                  MVC   MIB(4),=CL4'MIB'        Move in the Control block ID
 000A18 D203 5008 8030 00008 00030  9226  2  926.                  MVC   MIBPATH,MILCPATH        MILTEN path device ID
 000A1E D203 500C 8034 0000C 00034  9227  2  927.                  MVC   MIBFQCB,MILCFQCB        Address of FullQ control block
 000A24 5070 5004            00004  9228  2  928.                  ST    RY,MIBTBUF              Save the logon PDB TBUF
                                    9229  2  929.     *
                                    9230  2  930.     * Create the address space
                                    9231  2  931.     *
 DROP   @VMGET-72,R13               9232  2  932.                  LKOB  GTCTLOCK                Get terminal function lock
 USING  @LOCKS-72,R13
 000A28 D203 D048 9004 00000 00004  9251  2          +
 000A2E 58F0 A6FC/0DEF       00E30  9254  2          +
 DROP   @LOCKS-72,R13               9256  2  933.                  PSET  @ACREATE
 USING  @ACREATE-72,R13
 000A34 D707 D048 D048 00000 00000  9276  2          +
1TERMINAL (TERM00) (09:44) (22MAR04) MILTEN Terminal Control - Central                                                      Page   84
0Current Usings:  (PZERO,R0) (MIB,R5) (TBUF,R7) (MILCB,R8) (GTCT,R9) (MILREAD,R10) (@ACREATE-72,R13)
0Loc    Object Code    Addr1 Addr2  Stmt Lv Lineno    Source Statement           (Hibal 5, Asmedit 3.3)  HLASM R4.0  2004/03/22 09.44
+___    ______ ____    _____ _____  ____ __ ______    ______ _________
0000A3A D203 D048 A700 00000 00E34  9277  2  934.                  MVC   @ACRPSW(4),=X'070C0000' Enabled, Key 0
                                    9278  2  935.     *        L     RS,=V(ASMTASK)          Get the address
 000A40 5810 A704            00E38  9279  2  936.                  L     RS,=V(M1LOGON)          Get the address
 000A44 5610 A708            00E3C  9280  2  937.                  O     RS,=X'80000000'         Set 31 bit mode
 000A48 5010 D04C            00004  9281  2  938.                  ST    RS,@ACRPSW+4            Save in the PSW
                                    9282  2  939.     *        MVC   @ACRPARM,=V(M1LOGON)
 000A4C 58F0 A70C/0DEF       00E40  9283  2  940.                  VCALL ACREATE                 Create the address space
 000A52 1860                        9287  2  941.                  LR    RX,RVR                  Get the ASB Address
 000A54 5050 6030            00030  9288  2  942.                  WITH  (ASB,RX),'ST RK,ASBTCCB' Save the MIB pointer
 USING  ASB,R6
 DROP   ASB,R6
                                    9312  2  943.     *
                                    9313  2  944.     * Save the ASB address in the line table
                                    9314  2  945.     *
 000A58 4810 7010            00004  9315  2  946.                  LH    RS,PDBLIN#              Get the line number
 000A5C 8910 0002            00002  9316  2  947.                  SLL   RS,2
 000A60 5A10 8008            00008  9317  2  948.                  A     RS,MILCLTAB             Get the offset of the entry
 000A64 5060 1000            00000  9318  2  949.                  ST    RX,@RS                  Save the ASB pointer
 DROP   @ACREATE-72,R13             9319  2  950.                  LKREL GTCTLOCK                Free the terminal lock
 USING  @LOCKS-72,R13
 000A68 D203 D048 9004 00000 00004  9338  2          +
 000A6E 58F0 A710/0DEF       00E44  9341  2          +
 000A74 47F0 A020            00754  9343  2  951.                  NEXT  RCVLOOP                 Get the next one
 DROP   MIB,R5                      9346  1  952.                END   ,
                                    9355  1  953.     *
                                    9356  1  954.     * An un-identifiable PDB
                                    9357  1  955.     *
 000A78 83000012/8409               9358  1  956.                ORVSNAP 'MILPDBCMD',MODE=WTL
 000A7E 4100 A76D            00EA1  9363  1          +
 000A82 83000012                    9364  1  957.                ORVSNAP TBUF,255
 000A86 14FF00007000                9368  1          +
 DROP   @LOCKS-72,R13               9369  1  958.                FREEB TBUF                    Release the buffer
 USING  @FRTBUF-72,R13
 000A8C D703 D048 D048 00000 00000  9390  1          +
 000A92 5070 D048            00000  9401  1          +
 000A96 58F0 A6D4/0DEF       00E08  9407  1          +
                                    9409  1  959.
 000A9C 47F0 A020            00754  9410     960.              END   ,                       Of the receive loop
 DROP   TBUF,R7
 000AA0 981F C008            00008  9420     961.              PEND  ,
 DROP   MILCB,R8
 DROP   GTCT,R9
 DROP   MILREAD,R10
 000AA4 9680 C000/0B0E 00000        9440             +
 DROP   @FRTBUF-72,R13
1TERMINAL (TERM00) (09:44) (22MAR04) MILTEN Terminal Control - Central                                                      Page   85
0Current Usings:  (PZERO,R0)
0Loc    Object Code    Addr1 Addr2  Stmt Lv Lineno    Source Statement           (Hibal 5, Asmedit 3.3)  HLASM R4.0  2004/03/22 09.44
+___    ______ ____    _____ _____  ____ __ ______    ______ _________
0                                   9450     963.     *****************************************************************
                                    9451     964.     *                                                               *
                                    9452     965.     *   MILFQE --  This routine handles the full queue emptied      *
                                    9453     966.     *              response from SCOM, it wakes up those address    *
                                    9454     967.     *              spaces and tasks that are waiting on a fullq.    *
                                    9455     968.     *                                                               *
                                    9456     969.     *   Input  --  none                                             *
                                    9457     970.     *                                                               *
                                    9458     971.     *  Output  --  none                                             *
                                    9459     972.     *                                                               *
                                    9460     973.     *****************************************************************
-000AAA                             9462     975.     MILFQE   PROC  SCOPE=LOCAL
 000AAA D4C9D3C6D8C54040            9469             +
 000AB2 0000/0000                   9470             +
 000AB6 900F D004/18AF       00004  9472             +
 USING  MILFQE,R10
 000ABC 50D0 C000/18CD       00000  9487             +
 000AC2 9680 C000      00000        9489             +
 000AC6 41D0 C048            00048  9490             +
                                    9491     976.     *
                                    9492     977.     * Get our bearings
                                    9493     978.     *
 000ACA 5880 0200            00200  9494     979.              L     RM,MATPTR               Get the MAT address
 000ACE 5880 8024            00024  9495     980.              WITH  (MAT,RM),'L RM,MATGTCT' Get the GTCT address
 USING  MAT,R8
 DROP   MAT,R8
 000AD2 5880 8020            00020  9519     981.              WITH  (GTCT,RM),'L RM,GTCTMILC' Get the MILCB location
 USING  GTCT,R8
 DROP   GTCT,R8
 USING  MILCB,R8                    9543     982.              WITH  (MILCB,RM)
 000AD6 94BF 8038      00038        9556     983.              CLEAR FULLQE                  Clear the flag
                                    9563     984.     *
                                    9564     985.     * Find the FQCB
                                    9565     986.     *
 000ADA 5870 8034            00034  9566     987.              L     RY,MILCFQCB             Get the address
 USING  FQCB,R7                     9567     988.              WITH  (FQCB,RY)
                                    9580     989.
 000ADE 5830 7004            00004  9581     990.              L     RB,FQCBCNT              Get the count of fullqueues
 000AE2 5930 7004            00004  9582     991.              WHILE ((RB,EQ,FQCBCNT),AND,(FQCBHEAD,NZ)),BEGIN
 000AE6 4770 A0A2            00B58  9598             +
 000AEA D603 700C 700C 0000C 0000C  9610             +
 000AF0 4780 A0A2            00B58  9611             +
                                    9616  1  992.     *
                                    9617  1  993.     * Take care of one element
                                    9618  1  994.     *
 USING  @LOCKS-72,R13               9619  1  995.                LKOB  FQCBLOCK                Get the fullqueue lock
 000AF4 D203 D048 7008 00000 00008  9635  1          +
 000AFA 58F0 A37A/0DEF       00E30  9638  1          +
 000B00 5840 700C            0000C  9640  1  996.                L     RJ,FQCBHEAD             Get the first in the list
 USING  MFQE,R4                     9641  1  997.                WITH  (MFQE,RJ)
 000B04 D203 700C 4004 0000C 00004  9654  1  998.                MVC   FQCBHEAD,MFQENEXT       Remove it from the list
 000B0A 5940 7010            00010  9655  1  999.                IF    (RJ,EQ,FQCBTAIL),'CLEAR FQCBTAIL' Last on in the list
1TERMINAL (TERM00) (09:44) (22MAR04) MILTEN Terminal Control - Central                                                      Page   86
0Current Usings:  (PZERO,R0) (MFQE,R4) (FQCB,R7) (MILCB,R8) (MILFQE,R10) (@LOCKS-72,R13)
0Loc    Object Code    Addr1 Addr2  Stmt Lv Lineno    Source Statement           (Hibal 5, Asmedit 3.3)  HLASM R4.0  2004/03/22 09.44
+___    ______ ____    _____ _____  ____ __ ______    ______ _________
0000B0E 4770 A062            00B18  9667  1          +
 000B12 D703 7010 7010 00010 00010  9679  1          +
 000B18                             9684  1 1000.                LKREL FQCBLOCK                Free the lock
 000B18 D203 D048 7008 00000 00008  9693  1          +
 000B1E 58F0 A38E/0DEF       00E44  9696  1          +
 DROP   @LOCKS-72,R13               9698  1 1001.                PSET  @RESUME
 USING  @RESUME-72,R13
 000B24 D707 D048 D048 00000 00000  9718  1          +
 000B2A                             9719  1 1002.                PMOV  @RESUNIT,MFQEASB        ASB to wake
 000B2A D203 D048 4008 00000 00008  9723  1          +
 000B30 58F0 A392/0DEF       00E48  9724  1 1003.                VCALL RESUMAS                 And go wake it
 DROP   @RESUME-72,R13              9728  1 1004.                VMFREE L'MFQE,A=(RJ),LOC=GLOBHI   Free the element
 USING  @VMFREE-72,R13
 000B36 D709 D048 D048 00000 00000  9755  1          +
 000B3C 4100 000C            0000C  9767  1          +
 000B40 5000 D04C            00004  9772  1          +
 000B44 5040 D048            00000  9782  1          +
 000B48 D201 D050 A3BA 00008 00E70  9783  1          +
 000B4E 58F0 A32E/0DEF       00DE4  9786  1          +
 000B54 47F0 A02C            00AE2  9788    1005.              END   ,
 DROP   MFQE,R4
 000B58 981F C008            00008  9798    1006.              PEND  ,
 DROP   FQCB,R7
 DROP   MILCB,R8
 DROP   MILFQE,R10
 000B5C 9680 C000/0B0E 00000        9818             +
 DROP   @VMFREE-72,R13
1TERMINAL (TERM00) (09:44) (22MAR04) MILTEN Terminal Control - Central                                                      Page   87
0Current Usings:  (PZERO,R0)
0Loc    Object Code    Addr1 Addr2  Stmt Lv Lineno    Source Statement           (Hibal 5, Asmedit 3.3)  HLASM R4.0  2004/03/22 09.44
+___    ______ ____    _____ _____  ____ __ ______    ______ _________
0                                   9828    1008.     *****************************************************************
                                    9829    1009.     *                                                               *
                                    9830    1010.     * MILCLOSE --  This routine handles the close of the MILTEN     *
                                    9831    1011.     *              path and the cleanup attendant thereto.          *
                                    9832    1012.     *                                                               *
                                    9833    1013.     *   Input  --  none                                             *
                                    9834    1014.     *                                                               *
                                    9835    1015.     *  Output  --  none                                             *
                                    9836    1016.     *                                                               *
                                    9837    1017.     *****************************************************************
-000B62                             9839    1019.     MILCLOSE PROC  SCOPE=LOCAL
 000B62 D4C9D3C3D3D6E2C5            9846             +
 000B6A 0000/0000                   9847             +
 000B6E 900F D004/18AF       00004  9849             +
 USING  MILCLOSE,R10
 000B74 50D0 C000/18CD       00000  9864             +
 000B7A 9680 C000      00000        9866             +
 000B7E 41D0 C048            00048  9867             +
 000B82 5890 0200            00200  9868    1020.              L     RN,MATPTR               Get the MAT address
 000B86 5890 9024            00024  9869    1021.              WITH  (MAT,RN),'L RN,MATGTCT' Get the GTCT address
 USING  MAT,R9
 DROP   MAT,R9
 USING  GTCT,R9                     9893    1022.              WITH  (GTCT,RN)
 000B8A 5880 9020            00020  9906    1023.              L     RM,GTCTMILC             Get the MILCB address
 USING  MILCB,R8                    9907    1024.              WITH  (MILCB,RM)
 000B8E 83000012/8007               9920    1025.              ORVSNAP 'MILGONE',MODE=LOG
 000B94 4100 A33C            00EAA  9925             +
 000B98 AC04 021B      0021B        9926    1026.              ABORT MILGONE
 000B9C 9680 021A      0021A        9935             +
 000BA0 50F0 021C            0021C  9936             +
 000BA4 58F0 0210            00210  9937             +
 000BA8 89F0 0010            00010  9938             +
 000BAC 88F0 0010            00010  9939             +
 000BB0 41F0 F000            00000  9940             +
 000BB4 AEFF 0006            00006  9941             +
 000BB8 D4C9D3C7D6D5C540            9942             +
 000BC8 981F C008            00008  9943    1027.              PEND  ,
 DROP   MILCB,R8
 DROP   GTCT,R9
 DROP   MILCLOSE,R10
 000BCC 9680 C000/0B0E 00000        9963             +
1TERMINAL (TERM00) (09:44) (22MAR04) MILTEN Terminal Control - Central                                                      Page   88
0Current Usings:  (PZERO,R0)
0Loc    Object Code    Addr1 Addr2  Stmt Lv Lineno    Source Statement           (Hibal 5, Asmedit 3.3)  HLASM R4.0  2004/03/22 09.44
+___    ______ ____    _____ _____  ____ __ ______    ______ _________
0                                   9970    1029.     *****************************************************************
                                    9971    1030.     *                                                               *
                                    9972    1031.     * MILNOTFY --  This routine does a notify to get the current    *
                                    9973    1032.     *              SCOM flags, and if no condition is pending, to   *
                                    9974    1033.     *              wait.  It updates the flags in the MILCB.        *
                                    9975    1034.     *                                                               *
                                    9976    1035.     *   Input  --  none                                             *
                                    9977    1036.     *                                                               *
                                    9978    1037.     *  Output  --  none                                             *
                                    9979    1038.     *                                                               *
                                    9980    1039.     *****************************************************************
-000BD2                             9982    1041.     MILNOTFY PROC  SCOPE=LOCAL
 000BD2 D4C9D3D5D6E3C6E8            9989             +
 000BDA 0000/0000                   9990             +
 000BDE 900F D004/18AF       00004  9992             +
 USING  MILNOTFY,R10
 000BE4 50D0 C000/18CD       00000 10007             +
 000BEA 9680 C000      00000       10009             +
 000BEE 41D0 C048            00048 10010             +
 000BF2 5890 0200            00200 10011    1042.              L     RN,MATPTR               Get the MAT address
 000BF6 5890 9024            00024 10012    1043.              WITH  (MAT,RN),'L RN,MATGTCT' Get the GTCT address
 USING  MAT,R9
 DROP   MAT,R9
 000BFA 5890 9020            00020 10036    1044.              WITH  (GTCT,RN),'L RN,GTCTMILC'
 USING  GTCT,R9
 DROP   GTCT,R9
 USING  MILCB,R9                   10060    1045.              WITH  (MILCB,RN)
                                   10073    1046.     *
                                   10074    1047.     * Get the notify parameter area  (already fixed)
                                   10075    1048.     *
 000BFE 5860 902C            0002C 10076    1049.              L     RX,MILCIOPA             Get the parameter area
 USING  #SCNOTE,R6                 10077    1050.              WITH  (#SCNOTE,RX)
 DROP   #SCNOTE,R6                 10090    1051.              WITH  (#SCOMCMD,RX),'MVC #SCCMD,=A(#SCCNOTE)'
 USING  #SCOMCMD,R6
 000C02 D203 6000 A26E 00000 00E4C 10108             +
 DROP   #SCOMCMD,R6
 USING  #SCNOTE,R6
                                   10124    1052.     *
                                   10125    1053.     * The parm area is filled in, do the I/O
                                   10126    1054.     *
 USING  @IOSDOIO-72,R13            10127    1055.              PSET  @IOSDOIO
 000C08 D71D D048 D048 00000 00000 10144             +
 000C0E D207 D050 0208 00008 00208 10145    1056.              MVC   @IOSPID,PZCURPID
 000C14 D203 D048 9030 00000 00030 10146    1057.              MVC   @IOSCHID,MILCPATH       Device ID
 000C1A D203 D04C 9028 00004 00028 10147    1058.              MVC   @IOSID,MILCIOCB         Move in the request ID
 000C20 5060 D058            00010 10148    1059.              ST    RX,@IOSCP               Channel program
 000C24 9680 D065      0001D       10149    1060.              SET   @IOSFSYNC               Synchronous style
 000C28 58F0 A21E/0DEF       00DFC 10155    1061.              VCALL IOSDOIO                 Do the I/O
 000C2E 4200 9038            00038 10159    1062.              STC   RVR,MILCFLG             Ending status is the flags
 000C32 981F C008            00008 10160    1063.              PEND  ,
 DROP   #SCNOTE,R6
 DROP   MILCB,R9
1TERMINAL (TERM00) (09:44) (22MAR04) MILTEN Terminal Control - Central                                                      Page   89
0Current Usings:  (PZERO,R0) (@IOSDOIO-72,R13)
0Loc    Object Code    Addr1 Addr2  Stmt Lv Lineno    Source Statement           (Hibal 5, Asmedit 3.3)  HLASM R4.0  2004/03/22 09.44
+___    ______ ____    _____ _____  ____ __ ______    ______ _________
0DROP   MILNOTFY,R10
 000C36 9680 C000/0B0E 00000       10180             +
 DROP   @IOSDOIO-72,R13
1TERMINAL (TERM00) (09:44) (22MAR04) MILTEN Terminal Control - Central                                                      Page   90
0Current Usings:  (PZERO,R0)
0Loc    Object Code    Addr1 Addr2  Stmt Lv Lineno    Source Statement           (Hibal 5, Asmedit 3.3)  HLASM R4.0  2004/03/22 09.44
+___    ______ ____    _____ _____  ____ __ ______    ______ _________
0                                  10190    1065.     *****************************************************************
                                   10191    1066.     *                                                               *
                                   10192    1067.     *  MILRECV --  This routine retrieves one transaction from the  *
                                   10193    1068.     *              milten path and returns a TBUF pointer in RVR.   *
                                   10194    1069.     *                                                               *
                                   10195    1070.     *   Input  --  none                                             *
                                   10196    1071.     *                                                               *
                                   10197    1072.     *  Output  --  RVR contains TBUF address                        *
                                   10198    1073.     *                                                               *
                                   10199    1074.     *****************************************************************
-000C3C                            10201    1076.     MILRECV  PROC  SCOPE=LOCAL
 000C3C D4C9D3D9C5C3E540           10208             +
 000C44 0000/0000                  10209             +
 000C48 900F D004/18AF       00004 10211             +
 USING  MILRECV,R10
 000C4E 50D0 C000/18CD       00000 10226             +
 000C54 9680 C000      00000       10228             +
 000C58 41D0 C048            00048 10229             +
 000C5C 5880 0200            00200 10230    1077.              L     RM,MATPTR               Get the MAT address
 USING  MAT,R8                     10231    1078.              WITH  (MAT,RM)
 000C60 5890 8024            00024 10244    1079.              L     RN,MATGTCT              Get the GTCT address
 000C64 5890 9020            00020 10245    1080.              WITH  (GTCT,RN),'L RN,GTCTMILC'
 USING  GTCT,R9
 DROP   GTCT,R9
 USING  MILCB,R9                   10269    1081.              WITH  (MILCB,RN)
 000C68 94DF 9038      00038       10282    1082.              CLEAR NEWINFO                 Pre-clear the flag
                                   10289    1083.     *
                                   10290    1084.     * Get an I/O buffer
                                   10291    1085.     *
 000C6C 41F0 A282/0DEF       00ECA 10292    1086.              LCALL GETTBUF                 Get an I/O buffer
 000C72 1870                       10301    1087.              LR    RY,RVR                  Pointer to the buffer
 USING  TBUF,R7                    10302    1088.              WITH  (TBUF,RY)
 USING  @PAGE-72,R13               10315    1089.              FIX   TBUFDATA,LH:TBUFMAXL    Fix the data area
 000C74 D708 D048 D048 00000 00000 10333             +
 000C7A 4100 7010            00010 10345             +
 000C7E 5000 D048            00000 10350             +
 000C82 D201 D04E 7008 00006 00008 10355             +
 000C88 58F0 A208/0DEF       00E50 10358             +
                                   10360    1090.     *
                                   10361    1091.     * Set up the Read parameter area (already fixed)
                                   10362    1092.     *
 000C8E 5860 902C            0002C 10363    1093.              L     RX,MILCIOPA             Get the parm area
 USING  #SCSR,R6                   10364    1094.              WITH  (#SCSR,RX)
 000C92                            10377    1095.              CLEAR #SCSR                   Clear it out first
 000C92 D717 6000 6000 00000 00000 10383             +
 DROP   #SCSR,R6                   10384    1096.              WITH  (#SCOMCMD,RX),'MVC #SCCMD,=A(#SCCRECV)'
 USING  #SCOMCMD,R6
 000C98 D203 6000 A20C 00000 00E54 10402             +
 DROP   #SCOMCMD,R6
 USING  #SCSR,R6
 000C9E 4100 7010            00010 10418    1097.              ADDSG TBUFDATA,LH:TBUFMAXL,#SCSR  Add the data description
 DROP   @PAGE-72,R13
1TERMINAL (TERM00) (09:44) (22MAR04) MILTEN Terminal Control - Central                                                      Page   91
0Current Usings:  (PZERO,R0) (#SCSR,R6) (TBUF,R7) (MAT,R8) (MILCB,R9) (MILRECV,R10) (@ADDSEG-72,R13)
0Loc    Object Code    Addr1 Addr2  Stmt Lv Lineno    Source Statement           (Hibal 5, Asmedit 3.3)  HLASM R4.0  2004/03/22 09.44
+___    ______ ____    _____ _____  ____ __ ______    ______ _________
0USING  @ADDSEG-72,R13
 000CA2 5000 D04C            00004 10449             +
 000CA6 D201 D050 7008 00008 00008 10454             +
 000CAC 5060 D048            00000 10465             +
 000CB0 58F0 A1BC/0DEF       00E04 10471             +
                                   10473    1098.     *
                                   10474    1099.     * The parm area is filled in, do the I/O
                                   10475    1100.     *
 DROP   @ADDSEG-72,R13             10476    1101.              PSET  @IOSDOIO
 USING  @IOSDOIO-72,R13
 000CB6 D71D D048 D048 00000 00000 10496             +
 000CBC D207 D050 0208 00008 00208 10497    1102.              MVC   @IOSPID,PZCURPID
 000CC2 D203 D048 9030 00000 00030 10498    1103.              MVC   @IOSCHID,MILCPATH       Device ID
 000CC8 D203 D04C 9028 00004 00028 10499    1104.              MVC   @IOSID,MILCIOCB         Move in the request ID
 000CCE 5060 D058            00010 10500    1105.              ST    RX,@IOSCP               Channel program
 000CD2 9680 D065      0001D       10501    1106.              SET   @IOSFSYNC               Synchronous style
 000CD6 D200 D064 80E0 0001C 000E0 10507    1107.              MVC   @IOSKEY,MATSKEY         Read in system key
 000CDC 58F0 A1B4/0DEF       00DFC 10508    1108.              VCALL IOSDOIO                 Do the I/O
                                   10512    1109.     *
                                   10513    1110.     * Check the ending status
                                   10514    1111.     *
 000CE2 1820                       10515    1112.              LR    RA,RVR                  Copy the ending status
 DROP   @IOSDOIO-72,R13            10516    1113.              UNFIX TBUF,LH:TBUFMAXL        Unfix the data area
 USING  @PAGE-72,R13
 000CE4 D708 D048 D048 00000 00000 10537             +
 000CEA 5070 D048            00000 10548             +
 000CEE D201 D04E 7008 00006 00008 10553             +
 000CF4 58F0 A210/0DEF       00E58 10556             +
                                   10558    1114.     *
                                   10559    1115.     * Normal return
                                   10560    1116.     *
 000CFA 5920 A214            00E5C 10561    1117.              IF    ((RA,EQ,#SCESOK),OR,(RA,EQ,#SCESBS)),BEGIN
 000CFE 4780 A0C2            00D0A 10577             +
 000D02 5920 A218            00E60 10588             +
 000D06 4770 A0F0            00D38 10589             +
 000D0A 5810 6010            00010 10594  1 1118.                L     RS,#SCSRRLN             Get the length retrieved
 000D0E 4010 700A            0000A 10595  1 1119.                STH   RS,TBUFLEN              Save it in the TBUF
 000D12 1211/4770 A0E2       00D2A 10596  1 1120.                IF    (RS,Z),BEGIN            Zero length, means no buffer
 DROP   @PAGE-72,R13               10610  2 1121.                  FREEB TBUF                    Free the buffer
 USING  @FRTBUF-72,R13
 000D18 D703 D048 D048 00000 00000 10631  2          +
 000D1E 5070 D048            00000 10642  2          +
 000D22 58F0 A1C0/0DEF       00E08 10648  2          +
 000D28 1B77                       10650  2 1122.                  CLEAR RY                      We have it no longer
 000D2A                            10654  1 1123.                END   ,
 000D2A A0E6           00D2A 00D16 10658  1 1124.                ELSE  'SET NEWINFO'           Assume there is more data
 000D2A 47F0 A0EA            00D32 10663  1          +
 000D2E 9620 9038      00038       10675  1          +
 000D32 1807                       10680  1 1125.                LR    RVR,RY                  Copy the TBUF address
 000D34 47F0 A13E            00D86 10681  1 1126.                EXIT  MILRECV                 Return to the caller
 000D38                            10684    1127.              END   ,
                                   10688    1128.     *
                                   10689    1129.     * No Partner
                                   10690    1130.     *
1TERMINAL (TERM00) (09:44) (22MAR04) MILTEN Terminal Control - Central                                                      Page   92
0Current Usings:  (PZERO,R0) (#SCSR,R6) (TBUF,R7) (MAT,R8) (MILCB,R9) (MILRECV,R10) (@FRTBUF-72,R13)
0Loc    Object Code    Addr1 Addr2  Stmt Lv Lineno    Source Statement           (Hibal 5, Asmedit 3.3)  HLASM R4.0  2004/03/22 09.44
+___    ______ ____    _____ _____  ____ __ ______    ______ _________
0000D38 5920 A21C            00E64 10691    1131.              IF    (RA,EQ,#SCESNP),BEGIN   No partner
 000D3C 4770 A10A            00D52 10703             +
 000D40                            10708  1 1132.                FREEB TBUF                    Free the buffer
 000D40 D703 D048 D048 00000 00000 10719  1          +
 000D46 5070 D048            00000 10730  1          +
 000D4A 58F0 A1C0/0DEF       00E08 10736  1          +
 000D50 1B00                       10738  1 1133.                CLEAR RVR                     Return value
 000D52 A10E           00D52 00D3E 10742    1134.              END   ELSE,BEGIN              Some other bad return
 000D52 47F0 A13E            00D86 10751             +
 000D56 AC04 021B      0021B       10757  1 1135.                ABORT PATHREAD                Arrrghhhh.....
 000D5A 9680 021A      0021A       10766  1          +
 000D5E 50F0 021C            0021C 10767  1          +
 000D62 58F0 0210            00210 10768  1          +
 000D66 89F0 0010            00010 10769  1          +
 000D6A 88F0 0010            00010 10770  1          +
 000D6E 41F0 F000            00000 10771  1          +
 000D72 AEFF 0006            00006 10772  1          +
 000D76 D7C1E3C8D9C5C1C4           10773  1          +
 000D86                            10774    1136.              END   ,
 000D86 981F C008            00008 10778    1137.              PEND  ,
 DROP   #SCSR,R6
 DROP   TBUF,R7
 DROP   MILCB,R9
 DROP   MAT,R8
 DROP   MILRECV,R10
 000D8A 9680 C000/0B0E 00000       10808             +
 DROP   @FRTBUF-72,R13
1TERMINAL (TERM00) (09:44) (22MAR04) MILTEN Terminal Control - Central                                                      Page   93
0Current Usings:  (PZERO,R0)
0Loc    Object Code    Addr1 Addr2  Stmt Lv Lineno    Source Statement           (Hibal 5, Asmedit 3.3)  HLASM R4.0  2004/03/22 09.44
+___    ______ ____    _____ _____  ____ __ ______    ______ _________
0000D90                            10818    1139.              LTORG ,
 000D90 D4C9D3E3C5D54040           10820                             =CL8'MILTEN'
 000D98 E3C5D9D4C9D5C1D3           10821                             =CL8'TERMINAL'
 000DA0 D4C9D3D5C1D4C540           10822                             =CL8'MILNAME'
 000DA8 4040404040404040           10823                             =CL8' '
 000DB0 D4C9D3D7C1E2E240           10824                             =CL8'MILPASS'
 000DB8 D4C9D3D3C9D5C5E2           10825                             =CL8'MILLINES'
 000DC0 C6D8C3C2D3D6C3D2           10826                             =CL16'FQCBLOCK'
 000DD0 00000000                   10827                             =V(DISPSHLD)
 000DD4 00000000                   10828                             =V(ASSYSTSK)
 000DD8 00000000                   10829                             =V(VMGET)
 000DDC D4C9D3C3                   10830                             =C'MILC'
 000DE0 D7E2E4C2                   10831                             =CL4'PSUB'
 000DE4 00000000                   10832                             =V(VMFREE)
 000DE8 C6D8C3C2                   10833                             =C'FQCB'
 000DEC 00000000                   10834                             =V(LKCRE)
 000DF0 00000000                   10835                             =V(IOSIDGET)
 000DF4 00000004                   10836                             =A(#SCCOPEN)
 000DF8 00010000                   10837                             =A(64*1024)
 000DFC 00000000                   10838                             =V(IOSDOIO)
 000E00 0000000C                   10839                             =A(#SCCSEND)
 000E04 000010B6                   10840                             =A(ADDSEG)
 000E08 00000FAA                   10841                             =A(FREETBUF)
 000E0C 00000000                   10842                             =V(SYSRNEW)
 000E10 000019A0                   10843                             =A(MILSYSR)
 000E14 00000000                   10844                             =V(SYSRDO)
 000E18 00000000                   10845                             =V(SYSRDEL)
 000E1C 00001A3E                   10846                             =A(MILASYN)
 000E20 D4C9D3D3D6C7D6D5           10847                             =C'MILLOGONLIN#'
 000E2C D4C9C240                   10848                             =CL4'MIB'
 000E30 00000000                   10849                             =V(LKOB)
 000E34 070C0000                   10850                             =X'070C0000'
 000E38 00000000                   10851                             =V(M1LOGON)
 000E3C 80000000                   10852                             =X'80000000'
 000E40 00000000                   10853                             =V(ACREATE)
 000E44 00000000                   10854                             =V(LKREL)
 000E48 00000000                   10855                             =V(RESUMAS)
 000E4C 00000028                   10856                             =A(#SCCNOTE)
 000E50 00000000                   10857                             =V(PAGFIX)
 000E54 00000010                   10858                             =A(#SCCRECV)
 000E58 00000000                   10859                             =V(PAGUFIX)
 000E5C 00000000                   10860                             =A(#SCESOK)
 000E60 00000018                   10861                             =A(#SCESBS)
 000E64 00000010                   10862                             =A(#SCESNP)
 000E68 1F00                       10863                             =Y(31*256+0)
 000E6A 0400                       10864                             =Y(1024)
 000E6C 1B00                       10865                             =Y(27*256+0)
 000E6E 7FFF                       10866                             =Y(32767)
 000E70 3B00                       10867                             =Y(59*256+0)
 000E72 D4C9D3E2E8D5C3D3           10868                             =C'MILSYNCLIN#'
 000E7D D4C9D3E2E8E2D9             10869                             =C'MILSYSR'
 000E84 D4C9D3E2E3D6D7             10870                             =C'MILSTOP'
 000E8B D4C9D3C1E2E8D5D3           10871                             =C'MILASYNLIN#'
 000E96 D4C9D3C1E2E8D5E2           10872                             =C'MILASYNSYSR'
1TERMINAL (TERM00) (09:44) (22MAR04) MILTEN Terminal Control - Central                                                      Page   94
0Current Usings:  (PZERO,R0)
0Loc    Object Code    Addr1 Addr2  Stmt Lv Lineno    Source Statement           (Hibal 5, Asmedit 3.3)  HLASM R4.0  2004/03/22 09.44
+___    ______ ____    _____ _____  ____ __ ______    ______ _________
0000EA1 D4C9D3D7C4C2C3D4           10873                             =C'MILPDBCMD'
 000EAA D4C9D3C7D6D5C5             10874                             =C'MILGONE'
1TERMINAL (TERM00) (09:44) (22MAR04) MILTEN Terminal Control - Global                                                       Page   95
0Current Usings:  (PZERO,R0)
0Loc    Object Code    Addr1 Addr2  Stmt Lv Lineno    Source Statement           (Hibal 5, Asmedit 3.3)  HLASM R4.0  2004/03/22 09.44
+___    ______ ____    _____ _____  ____ __ ______    ______ _________
0                                  10879    1141.     *****************************************************************
                                   10880    1142.     *                                                               *
                                   10881    1143.     *  GETTBUF --  This routine obtains a terminal I/O buffer.  If  *
                                   10882    1144.     *              there is already one on the free queue, it is    *
                                   10883    1145.     *              used, otherwize a new one is allocated.          *
                                   10884    1146.     *                                                               *
                                   10885    1147.     *   Input  --  none                                             *
                                   10886    1148.     *                                                               *
                                   10887    1149.     *  Output  --  RVR points at the allocated TBUF                 *
                                   10888    1150.     *                                                               *
                                   10889    1151.     *****************************************************************
-000EBE                            10891    1153.     GETTBUF  PROC  SCOPE=LOCAL
 000EBE C7C5E3E3C2E4C640           10898             +
 000EC6 0000/0000                  10899             +
 000ECA 900F D004/18AF       00004 10901             +
 USING  GETTBUF,R10
 000ED0 50D0 C000/18CD       00000 10916             +
 000ED6 9680 C000      00000       10918             +
 000EDA 41D0 C048            00048 10919             +
 000EDE 5880 0200            00200 10920    1154.              L     RM,MATPTR               Get the MAT location
 000EE2 5880 8024            00024 10921    1155.              WITH  (MAT,RM),'L RM,MATGTCT' Get the GTCT address
 USING  MAT,R8
 DROP   MAT,R8
 USING  GTCT,R8                    10945    1156.              WITH  (GTCT,RM)               Address it
                                   10958    1157.     *
                                   10959    1158.     * Get a free one if it exists
                                   10960    1159.     *
 000EE6 9845 8018            00018 10961    1160.              LM    RJ,RK,GTCTTBFL          Get Free pointer
 USING  TBUF,R4                    10962    1161.              WITH  (TBUF,RJ)
 000EEA                            10975    1162.              LOOP  BEGIN
 000EEA 1244/4780 A036       00F00 10981  1 1163.                IF    (RJ,Z),EXIT             No free ones
 000EF0 5820 4004            00004 10998  1 1164.                L     RA,TBUFNEXT             Address of the next
 000EF4 4130 5001            00001 10999  1 1165.                LA    RB,@RK+1                Increment the control count
 000EF8 BB42 8018            00018 11000  1 1166.                CDS   RJ,RA,GTCTTBFL          Try to remove it
 000EFC 4770 A020            00EEA 11001    1167.              UNTIL Z,END                   Keep on trying
                                   11020    1168.     *
                                   11021    1169.     * If we got it, we decrease the free count
                                   11022    1170.     *
 000F00 1244/4780 A04C       00F16 11023    1171.              IF    (RJ,NZ),BEGIN
 000F06 5820 8010            00010 11037  1 1172.                L     RA,GTCTTBFC             Get the Free count
 000F0A                            11038  1 1173.                LOOP  BEGIN
 000F0A 1832                       11044  2 1174.                  LR    RB,RA                   Copy the count
 000F0C 0630                       11045  2 1175.                  DECR  RB                      Decrement it
 000F0E BA23 8010            00010 11047  2 1176.                  CS    RA,RB,GTCTTBFC          Update the count
 000F12 4770 A040            00F0A 11048  1 1177.                UNTIL Z,END                   Keep trying
 000F16 A050           00F16 00F04 11067    1178.              END   ELSE,BEGIN
 000F16 47F0 A0B0            00F7A 11076             +
                                   11082  1 1179.     *
                                   11083  1 1180.     * If we didn't get one, we allocate a new one
                                   11084  1 1181.     *
 USING  @VMGET-72,R13              11085  1 1182.                VMGET LH:GTCTTBSZ,LOC=GLOBHI
 000F1A D70A D048 D048 00000 00000 11109  1          +
1TERMINAL (TERM00) (09:44) (22MAR04) MILTEN Terminal Control - Global                                                       Page   96
0Current Usings:  (PZERO,R0) (TBUF,R4) (GTCT,R8) (GETTBUF,R10) (@VMGET-72,R13)
0Loc    Object Code    Addr1 Addr2  Stmt Lv Lineno    Source Statement           (Hibal 5, Asmedit 3.3)  HLASM R4.0  2004/03/22 09.44
+___    ______ ____    _____ _____  ____ __ ______    ______ _________
0000F20 D201 D04A 8008 00002 00008 11114  1          +
 000F26 D201 D050 AC5A 00008 01B24 11115  1          +
 000F2C 58F0 ABD6/0DEF       01AA0 11118  1          +
 000F32 1200/4770 A09E       00F68 11120  1 1183.                IF    (RVR,Z),'ABORT NOGLOB'
 000F38 AC04 021B      0021B       11138  2          +
 000F3C 9680 021A      0021A       11144  2          +
 000F40 50F0 021C            0021C 11145  2          +
 000F44 58F0 0210            00210 11146  2          +
 000F48 89F0 0010            00010 11147  2          +
 000F4C 88F0 0010            00010 11148  2          +
 000F50 41F0 F000            00000 11149  2          +
 000F54 AEFF 0006            00006 11150  2          +
 000F58 D5D6C7D3D6C24040           11151  1          +
 000F68 1840                       11156  1 1184.                LR    RJ,RVR                  Move it to the right spot
                                   11157  1 1185.     *
                                   11158  1 1186.     * And we count it
                                   11159  1 1187.     *
 000F6A 5820 800C            0000C 11160  1 1188.                L     RA,GTCTTBTC             Get the Total count
 000F6E                            11161  1 1189.                LOOP  BEGIN
 000F6E 4130 2001            00001 11167  2 1190.                  LA    RB,@RA+1                Increment the count
 000F72 BA23 800C            0000C 11168  2 1191.                  CS    RA,RB,GTCTTBTC          Update the count
 000F76 4770 A0A4            00F6E 11169  1 1192.                UNTIL Z,END                   Keep trying
 000F7A                            11188    1193.              END   ,
                                   11192    1194.     *
                                   11193    1195.     * Format the buffer the way we want
                                   11194    1196.     *
 000F7A                            11195    1197.              CLEAR TBUF                    Clear the header
 000F7A D70F 4000 4000 00000 00000 11201             +
 000F80 D203 4000 ABDA 00000 01AA4 11202    1198.              MVC   TBUF(4),=C'TBUF'        Move in the ID
 000F86 4810 8008            00008 11203    1199.              LH    RS,GTCTTBSZ             Get the total buffer size
 000F8A 4B10 AC5C            01B26 11204    1200.              SH    RS,=Y(L'TBUF)           Less the header size
 000F8E 4010 4008            00008 11205    1201.              STH   RS,TBUFMAXL             Save maximum data length
 000F92 1804                       11206    1202.              LR    RVR,RJ                  Return the location
 000F94 981F C008            00008 11207    1203.              PEND  ,
 DROP   TBUF,R4
 DROP   GTCT,R8
 DROP   GETTBUF,R10
 000F98 9680 C000/0B0E 00000       11227             +
 DROP   @VMGET-72,R13
1TERMINAL (TERM00) (09:44) (22MAR04) MILTEN Terminal Control - Global                                                       Page   97
0Current Usings:  (PZERO,R0)
0Loc    Object Code    Addr1 Addr2  Stmt Lv Lineno    Source Statement           (Hibal 5, Asmedit 3.3)  HLASM R4.0  2004/03/22 09.44
+___    ______ ____    _____ _____  ____ __ ______    ______ _________
0                                  11237    1205.     *****************************************************************
                                   11238    1206.     *                                                               *
                                   11239    1207.     * FREETBUF --  This routine releases a terminal I/O buffer.  If *
                                   11240    1208.     *              there are already enough on the free queue, then *
                                   11241    1209.     *              this one is de-allocated, otherwize it is put on *
                                   11242    1210.     *              the free queue.                                  *
                                   11243    1211.     *                                                               *
                                   11244    1212.     *   Input  --  @FRTBUF                                          *
                                   11245    1213.     *                                                               *
                                   11246    1214.     *  Output  --  none                                             *
                                   11247    1215.     *                                                               *
                                   11248    1216.     *****************************************************************
-000000                00000 00004 11250    1218.     @FRTBUF  RECORD BEGIN
 000000                            11258  1 1219.     @FRTBLOC   DS    A             Location of the buffer to free
 000004                00004 00004 11259    1220.              END   ,
-000F9E                            11269    1222.     FREETBUF PROC  @FRTBUF,SCOPE=LOCAL
 000F9E C6D9C5C5E3C2E4C6           11276             +
 000FA6 0008/0000                  11277             +
 000FAA 900F D004/18AF       00004 11279             +
 USING  FREETBUF,R10
 000FB0 50D0 C000/18CD       00000 11294             +
 000FB6 9680 C000      00000       11296             +
 USING  @FRTBUF-72,R12
 000FBA 41D0 C050            00050 11310             +
 000FBE 5880 0200            00200 11311    1223.              L     RM,MATPTR               Get the MAT location
 000FC2 5880 8024            00024 11312    1224.              WITH  (MAT,RM),'L RM,MATGTCT' Get the GTCT address
 USING  MAT,R8
 DROP   MAT,R8
 USING  GTCT,R8                    11336    1225.              WITH  (GTCT,RM)               Address it
 000FC6 5820 C048            00000 11349    1226.              L     RA,@FRTBLOC             Get the TBUF location
 USING  TBUF,R2                    11350    1227.              WITH  (TBUF,RA)
 000FCA                            11363    1228.              IF    (TBUF,NE,'TBUF'),'ABORT BADTBUF'
 000FCA D503 AAFA 2000 01AA4 00000 11374             +
 000FD0 4780 A05A            01004 11375             +
 000FD4 AC04 021B      0021B       11384  1          +
 000FD8 9680 021A      0021A       11390  1          +
 000FDC 50F0 021C            0021C 11391  1          +
 000FE0 58F0 0210            00210 11392  1          +
 000FE4 89F0 0010            00010 11393  1          +
 000FE8 88F0 0010            00010 11394  1          +
 000FEC 41F0 F000            00000 11395  1          +
 000FF0 AEFF 0006            00006 11396  1          +
 000FF4 C2C1C4E3C2E4C640           11397             +
 001004 9286 2003      00003       11402    1229.              MVI   TBUF+3,C'f'
                                   11403    1230.     *
                                   11404    1231.     * Check on the free status
                                   11405    1232.     *
 001008 5810 800C            0000C 11406    1233.              L     RS,GTCTTBTC             Get the total count
 00100C 8810 0001            00001 11407    1234.              SRL   RS,1                    Divide by 2
 001010 5910 8010            00010 11408    1235.              IF    (RS,GE,GTCTTBFC),BEGIN  Less than half are free
1TERMINAL (TERM00) (09:44) (22MAR04) MILTEN Terminal Control - Global                                                       Page   98
0Current Usings:  (PZERO,R0) (TBUF,R2) (GTCT,R8) (FREETBUF,R10) (@FRTBUF-72,R12)
0Loc    Object Code    Addr1 Addr2  Stmt Lv Lineno    Source Statement           (Hibal 5, Asmedit 3.3)  HLASM R4.0  2004/03/22 09.44
+___    ______ ____    _____ _____  ____ __ ______    ______ _________
0001014 4750 A090            0103A 11420             +
 001018 9845 8018            00018 11425  1 1236.                LM    RJ,RK,GTCTTBFL          Get Free pointer
 00101C                            11426  1 1237.                LOOP  BEGIN
 00101C 5040 2004            00004 11432  2 1238.                  ST    RJ,TBUFNEXT             Address of the next
 001020 1835                       11433  2 1239.                  LR    RB,RK                   Copy the control count
 001022 BB42 8018            00018 11434  2 1240.                  CDS   RJ,RA,GTCTTBFL          Try to add it
 001026 4770 A072            0101C 11435  1 1241.                UNTIL Z,END                   Keep on trying
                                   11454  1 1242.     *
                                   11455  1 1243.     * If we added it to the free queue, we update the count
                                   11456  1 1244.     *
 00102A 5810 8010            00010 11457  1 1245.                L     RS,GTCTTBFC             Get the Free count
 00102E                            11458  1 1246.                LOOP  BEGIN
 00102E 4130 1001            00001 11464  2 1247.                  LA    RB,@RS+1                Increment the count
 001032 BA13 8010            00010 11465  2 1248.                  CS    RS,RB,GTCTTBFC          Update the count
 001036 4770 A084            0102E 11466  1 1249.                UNTIL Z,END                   Keep trying
 00103A A094           0103A 01016 11485    1250.              END   ELSE,BEGIN
 00103A 47F0 A0F6            010A0 11494             +
                                   11500  1 1251.     *
                                   11501  1 1252.     * If too many were free, we de-allocate this one
                                   11502  1 1253.     *
 USING  @VMFREE-72,R13             11503  1 1254.                VMFREE LH:GTCTTBSZ,A=(RA),LOC=GLOBHI
 00103E D709 D048 D048 00000 00000 11527  1          +
 001044 D201 D04E 8008 00006 00008 11532  1          +
 00104A 5020 D048            00000 11542  1          +
 00104E D201 D050 AB7A 00008 01B24 11543  1          +
 001054 58F0 AAFE/0DEF       01AA8 11546  1          +
 00105A 1200/4780 A0E6       01090 11548  1 1255.                IF    (RVR,NZ),'ABORT BADFTBUF'
 001060 AC04 021B      0021B       11566  2          +
 001064 9680 021A      0021A       11572  2          +
 001068 50F0 021C            0021C 11573  2          +
 00106C 58F0 0210            00210 11574  2          +
 001070 89F0 0010            00010 11575  2          +
 001074 88F0 0010            00010 11576  2          +
 001078 41F0 F000            00000 11577  2          +
 00107C AEFF 0006            00006 11578  2          +
 001080 C2C1C4C6E3C2E4C6           11579  1          +
                                   11584  1 1256.     *
                                   11585  1 1257.     * And have to update the count of terminal buffers out there
                                   11586  1 1258.     *
 001090 5810 800C            0000C 11587  1 1259.                L     RS,GTCTTBTC             Get the Total count
 001094                            11588  1 1260.                LOOP  BEGIN
 001094 1831                       11594  2 1261.                  LR    RB,RS                   Copyt the count
 001096 0630                       11595  2 1262.                  DECR  RB                      Decrement the count
 001098 BA13 800C            0000C 11597  2 1263.                  CS    RS,RB,GTCTTBTC          Update the count
 00109C 4770 A0EA            01094 11598  1 1264.                UNTIL Z,END                   Keep trying
 0010A0                            11617    1265.              END   ,
 0010A0 981F C008            00008 11621    1266.              PEND  ,
 DROP   TBUF,R2
 DROP   GTCT,R8
 DROP   @FRTBUF-72,R12
 DROP   FREETBUF,R10
 0010A4 9680 C000/0B0E 00000       11646             +
 DROP   @VMFREE-72,R13
1TERMINAL (TERM00) (09:44) (22MAR04) MILTEN Terminal Control - Global                                                       Page   99
0Current Usings:  (PZERO,R0)
0Loc    Object Code    Addr1 Addr2  Stmt Lv Lineno    Source Statement           (Hibal 5, Asmedit 3.3)  HLASM R4.0  2004/03/22 09.44
+___    ______ ____    _____ _____  ____ __ ______    ______ _________
0                                  11656    1268.     *****************************************************************
                                   11657    1269.     *                                                               *
                                   11658    1270.     *   ADDSEG --  This routine adds information about an area of   *
                                   11659    1271.     *              virtual memory to the list in a path send/recv   *
                                   11660    1272.     *              request parameter area.  It updates the count    *
                                   11661    1273.     *              and length values in the parm area.              *
                                   11662    1274.     *                                                               *
                                   11663    1275.     *   Input  --  @ADDSEG                                          *
                                   11664    1276.     *                                                               *
                                   11665    1277.     *  Output  --  none                                             *
                                   11666    1278.     *                                                               *
                                   11667    1279.     *****************************************************************
-000000                00000 0000A 11669    1281.     @ADDSEG  RECORD BEGIN
 000000                            11677  1 1282.     @ADDSPA    DS    A             Address of the parameter area
 000004                            11678  1 1283.     @ADDSLOC   DS    A             Location of the data to add
 000008                            11679  1 1284.     @ADDSLEN   DS    H             Length of the data to add
 00000A                0000A 0000A 11680    1285.              END   ,
-0010AA                            11690    1287.     ADDSEG   PROC  @ADDSEG,SCOPE=LOCAL
 0010AA C1C4C4E2C5C74040           11697             +
 0010B2 0010/0000                  11698             +
 0010B6 900F D004/18AF       00004 11700             +
 USING  ADDSEG,R10
 0010BC 50D0 C000/18CD       00000 11715             +
 0010C2 9680 C000      00000       11717             +
 USING  @ADDSEG-72,R12
 0010C6 41D0 C058            00058 11731             +
 0010CA 5860 C048            00000 11732    1288.              L     RX,@ADDSPA    Get the parameter area
 USING  #SCSR,R6                   11733    1289.              WITH  (#SCSR,RX)
                                   11746    1290.     *
                                   11747    1291.     * Get our starting point for this data
                                   11748    1292.     *
 0010CE 5840 6008            00008 11749    1293.              L     RJ,#SCSRCT              Get current count
 0010D2 8940 0003            00003 11750    1294.              SLL   RJ,3                    Size of each segment
 0010D6 4144 6018            00018 11751    1295.              LA    RJ,#SCSRSEG(RJ)         Location of new segment ptrs
 0010DA 5820 C04C            00004 11752    1296.              L     RA,@ADDSLOC             Starting location
 0010DE 4830 C050            00008 11753    1297.              LH    RB,@ADDSLEN             And total length
                                   11754    1298.     *
                                   11755    1299.     * Loop through the data area, adding a segment to the parm area for
                                   11756    1300.     * each page or fraction thereof.
                                   11757    1301.     *
 0010E2 1233/4780 A092       01148 11758    1302.              WHILE (RB,NZ),BEGIN           Through the info
                                   11774  1 1303.     *
                                   11775  1 1304.     * Fill in the location for the current part of the data area
                                   11776  1 1305.     *
 0010E8 B110 2000            00000 11777  1 1306.                LRA   RS,@RA                  Real address of current bit
 0010EC 4780 A06A            01120 11778  1 1307.                IF    NZ,'ABORT BADFIX'       What?
 0010F0 AC04 021B      0021B       11793  2          +
 0010F4 9680 021A      0021A       11799  2          +
 0010F8 50F0 021C            0021C 11800  2          +
 0010FC 58F0 0210            00210 11801  2          +
1TERMINAL (TERM00) (09:44) (22MAR04) MILTEN Terminal Control - Global                                                       Page  100
0Current Usings:  (PZERO,R0) (#SCSR,R6) (ADDSEG,R10) (@ADDSEG-72,R12)
0Loc    Object Code    Addr1 Addr2  Stmt Lv Lineno    Source Statement           (Hibal 5, Asmedit 3.3)  HLASM R4.0  2004/03/22 09.44
+___    ______ ____    _____ _____  ____ __ ______    ______ _________
0001100 89F0 0010            00010 11802  2          +
 001104 88F0 0010            00010 11803  2          +
 001108 41F0 F000            00000 11804  2          +
 00110C AEFF 0006            00006 11805  2          +
 001110 C2C1C4C6C9E74040           11806  1          +
 001120 5010 4000            00000 11811  1 1308.                ST    RS,@RJ                  Save the real address
                                   11812  1 1309.     *
                                   11813  1 1310.     * Figure out how long to the next page boundary
                                   11814  1 1311.     *
 001124 1812                       11815  1 1312.                LR    RS,RA                   Copy the current address
 001126 4A10 AA72            01B28 11816  1 1313.                AH    RS,=Y(4096)             Get to the next page
 00112A 5410 A9F6            01AAC 11817  1 1314.                N     RS,=X'7FFFF000'         Address of the next page
 00112E 1B12                       11818  1 1315.                SR    RS,RA                   Length to the page boundary
 001130 1913/47D0 A082       01138 11819  1 1316.                CEIL  RS,RB                   Max is the buffer length
 001136 1813                       11824  1          +
 001138 5010 4004            00004 11825  1 1317.                ST    RS,@RJ+4                Save the segment length
                                   11826  1 1318.     *
                                   11827  1 1319.     * Adjust the pointers for the next pass through
                                   11828  1 1320.     *
 00113C 1A21                       11829  1 1321.                AR    RA,RS                   Get to the next segment
 00113E 1B31                       11830  1 1322.                SR    RB,RS                   Length is less this segment
 001140 4140 4008            00008 11831  1 1323.                LA    RJ,@RJ+8                Location for next entry
 001144 47F0 A02C            010E2 11832    1324.              END   ,
                                   11837    1325.     *
                                   11838    1326.     * Update the count of segments
                                   11839    1327.     *
 001148 4110 6018            00018 11840    1328.              LA    RS,#SCSRSEG             Starting location
 00114C 1B41                       11841    1329.              SR    RJ,RS                   Length in bytes
 00114E 8840 0003            00003 11842    1330.              SRL   RJ,3                    Length in entries
 001152 5040 6008            00008 11843    1331.              ST    RJ,#SCSRCT              Save the count
                                   11844    1332.     *
                                   11845    1333.     * Update the overall length
                                   11846    1334.     *
 001156 5810 6004            00004 11847    1335.              L     RS,#SCSRLEN             Get the previous length
 00115A 4A10 C050            00008 11848    1336.              AH    RS,@ADDSLEN             Add what we just put in
 00115E 5010 6004            00004 11849    1337.              ST    RS,#SCSRLEN             Update the length
 001162 981F C008            00008 11850    1338.              PEND  ,
 DROP   #SCSR,R6
 DROP   @ADDSEG-72,R12
 DROP   ADDSEG,R10
 001166 9680 C000/0B0E 00000       11870             +
1TERMINAL (TERM00) (09:44) (22MAR04) MILTEN Terminal Control - Local                                                        Page  101
0Current Usings:  (PZERO,R0)
0Loc    Object Code    Addr1 Addr2  Stmt Lv Lineno    Source Statement           (Hibal 5, Asmedit 3.3)  HLASM R4.0  2004/03/22 09.44
+___    ______ ____    _____ _____  ____ __ ______    ______ _________
0                                  11877    1340.     *****************************************************************
                                   11878    1341.     *                                                               *
                                   11879    1342.     *   MILSX  --  This routine sends a request to MILTEN.  It      *
                                   11880    1343.     *              takes care of all the stuff that has to be done  *
                                   11881    1344.     *              in the case of a full queue reply from the path  *
                                   11882    1345.     *              and other return codes as well.  It assumes that *
                                   11883    1346.     *              MTCBIOPA contains the address of the parm area   *
                                   11884    1347.     *              to be used in the PATH I/O.                      *
                                   11885    1348.     *                                                               *
                                   11886    1349.     *   Input  --  none                                             *
                                   11887    1350.     *                                                               *
                                   11888    1351.     *  Output  --  none                                             *
                                   11889    1352.     *                                                               *
                                   11890    1353.     *****************************************************************
-00116C                            11892    1355.     MILSX    PROC  SCOPE=LOCAL
 00116C D4C9D3E2E7404040           11899             +
 001174 0000/0000                  11900             +
 001178 900F D004/18AF       00004 11902             +
 USING  MILSX,R10
 00117E 50D0 C000/18CD       00000 11917             +
 001184 9680 C000      00000       11919             +
 001188 41D0 C048            00048 11920             +
                                   11921    1356.     *
                                   11922    1357.     * Find the MTCB
                                   11923    1358.     *
 00118C 5860 0208            00208 11924    1359.              L     RX,PZCURASB             Get the current ASB address
 001190 5860 6030            00030 11925    1360.              WITH  (ASB,RX),'L RX,ASBTCCB' Get the MTCB address
 USING  ASB,R6
 DROP   ASB,R6
 USING  MTCB,R6                    11949    1361.              WITH  (MTCB,RX)
                                   11962    1362.     *
                                   11963    1363.     * Get the I/O parm area
                                   11964    1364.     *
 001194 5870 6020            00020 11965    1365.              L     RY,MTCBIOPA             Get the I/O parm area
 USING  #SCSR,R7                   11966    1366.              WITH  (#SCSR,RY)
 AUSING (#SCOMCMD,#SCSR)           11979    1367.              WITH  (#SCOMCMD,#SCSR)
 001198 D203 7000 A938 00000 01AB0 11986    1368.              MVC   #SCCMD,=A(#SCCSEND)     Move in the command code
                                   11987    1369.     *
                                   11988    1370.     * Get an IOS ID
                                   11989    1371.     *
 00119E 9200 D048      00000       11990    1372.              PSET  @IOSIDGET
 USING  @IOSIDGET-72,R13
 0011A2 9680 D048      00000       12008    1373.              SET   @IOSFWAIT               We can wait
 0011A6 58F0 A93C/0DEF       01AB4 12014    1374.              VCALL IOSIDGET                Go get us an ID
 0011AC 1850                       12018    1375.              LR    RK,RVR                  Copy the ID
 DROP   @IOSIDGET-72,R13           12019    1376.              FIX   #SCSR,SCOMPLEN          Fix the parm area
 USING  @PAGE-72,R13
 0011AE D708 D048 D048 00000 00000 12040             +
 0011B4 5070 D048            00000 12051             +
 0011B8 4100 00B8            000B8 12063             +
 0011BC 5000 D04C            00004 12068             +
 0011C0 58F0 A940/0DEF       01AB8 12071             +
1TERMINAL (TERM00) (09:44) (22MAR04) MILTEN Terminal Control - Local                                                        Page  102
0Current Usings:  (PZERO,R0) (MTCB,R6) (#SCSR,R7) (MILSX,R10) (@PAGE-72,R13)
0Loc    Object Code    Addr1 Addr2  Stmt Lv Lineno    Source Statement           (Hibal 5, Asmedit 3.3)  HLASM R4.0  2004/03/22 09.44
+___    ______ ____    _____ _____  ____ __ ______    ______ _________
0                                  12073    1377.     *
                                   12074    1378.     * Send the parm area out on the path
                                   12075    1379.     *
 DROP   @PAGE-72,R13               12076    1380.              PSET  @IOSDOIO
 USING  @IOSDOIO-72,R13
 0011C6 D71D D048 D048 00000 00000 12096             +
 0011CC D207 D050 0208 00008 00208 12097    1381.              MVC   @IOSPID,PZCURPID
 0011D2 D203 D048 6010 00000 00010 12098    1382.              MVC   @IOSCHID,MTCBPATH       Path ID
 0011D8 5050 D04C            00004 12099    1383.              ST    RK,@IOSID               I/O ID
 0011DC 5070 D058            00010 12100    1384.              PMOV  @IOSCP,LA:#SCSR         Parm area address
 0011E0 9680 D065      0001D       12111    1385.              SET   @IOSFSYNC               Syncronous
 0011E4 58F0 A944/0DEF       01ABC 12117    1386.              VCALL IOSDOIO                 Do the I/O
 0011EA 1830                       12121    1387.              LR    RB,RVR                  Copy the ending status
                                   12122    1388.     *
                                   12123    1389.     * Check the ending status of the write
                                   12124    1390.     *
 0011EC 5930 A948            01AC0 12125    1391.              IF    (RB,EQ,#SCESOK),MXRDONE  Finish up
 0011F0 4780 A1C4            0133C 12139             +
 0011F4 5930 A94C            01AC4 12145    1392.              IF    (RB,NE,#SCESFQ),'ABORT BADMXS'    Bad send
 0011F8 4780 A0B4            0122C 12157             +
 0011FC AC04 021B      0021B       12166  1          +
 001200 9680 021A      0021A       12172  1          +
 001204 50F0 021C            0021C 12173  1          +
 001208 58F0 0210            00210 12174  1          +
 00120C 89F0 0010            00010 12175  1          +
 001210 88F0 0010            00010 12176  1          +
 001214 41F0 F000            00000 12177  1          +
 001218 AEFF 0006            00006 12178  1          +
 00121C C2C1C4D4E7E24040           12179             +
1TERMINAL (TERM00) (09:44) (22MAR04) MILTEN Terminal Control - Local                                                        Page  103
0Current Usings:  (PZERO,R0) (MTCB,R6) (#SCSR,R7) (MILSX,R10) (@IOSDOIO-72,R13)
0Loc    Object Code    Addr1 Addr2  Stmt Lv Lineno    Source Statement           (Hibal 5, Asmedit 3.3)  HLASM R4.0  2004/03/22 09.44
+___    ______ ____    _____ _____  ____ __ ______    ______ _________
0                                  12185    1394.     *
                                   12186    1395.     *        F U L L   Q U E U E
                                   12187    1396.     *
                                   12188    1397.     * If we got a full queue response, we have to try and re-send the
                                   12189    1398.     * buffer while we're holding the fullqueue lock.  If we still get
                                   12190    1399.     * fullqueue, then we queue an element to the MILCB and go into
                                   12191    1400.     * a wait.
                                   12192    1401.     *
 00122C 5820 6014            00014 12193    1402.              L     RA,MTCBFQCB             Get the FQCB address
 USING  FQCB,R2                    12194    1403.              WITH  (FQCB,RA),BEGIN
 DROP   @IOSDOIO-72,R13            12208  1 1404.     FQL        LKOB  FQCBLOCK                Get the fullqueue lock
 USING  @LOCKS-72,R13
 001230 D203 D048 2008 00000 00008 12228  1          +
 001236 58F0 A950/0DEF       01AC8 12231  1          +
                                   12233  1 1405.     *
                                   12234  1 1406.     * Send the parm area out on the path
                                   12235  1 1407.     *
 DROP   @LOCKS-72,R13              12236  1 1408.                PSET  @IOSDOIO
 USING  @IOSDOIO-72,R13
 00123C D71D D048 D048 00000 00000 12256  1          +
 001242 D207 D050 0208 00008 00208 12257  1 1409.                MVC   @IOSPID,PZCURPID
 001248 D203 D048 6010 00000 00010 12258  1 1410.                MVC   @IOSCHID,MTCBPATH       Path ID
 00124E 5050 D04C            00004 12259  1 1411.                ST    RK,@IOSID               I/O ID
 001252 5070 D058            00010 12260  1 1412.                PMOV  @IOSCP,LA:#SCSR         Parm area address
 001256 9680 D065      0001D       12271  1 1413.                SET   @IOSFSYNC               Syncronous
 00125A 58F0 A944/0DEF       01ABC 12277  1 1414.                VCALL IOSDOIO                 Do the I/O
 001260 1830                       12281  1 1415.                LR    RB,RVR                  Copy the ending status
                                   12282  1 1416.     *
                                   12283  1 1417.     * Check the ending status
                                   12284  1 1418.     *
 001262 5930 A948            01AC0 12285  1 1419.                IF    (RB,EQ,#SCESOK),BEGIN   It went ok this time
 001266 4770 A102            0127A 12297  1          +
 DROP   @IOSDOIO-72,R13            12302  2 1420.                  LKREL FQCBLOCK                Free the lock
 USING  @LOCKS-72,R13
 00126A D203 D048 2008 00000 00008 12321  2          +
 001270 58F0 A954/0DEF       01ACC 12324  2          +
 001276 47F0 A1C4            0133C 12326  2 1421.                  B     MXRDONE                 Then finish up
 00127A                            12327  1 1422.                END   ,
 00127A 5930 A94C            01AC4 12331  1 1423.                IF    (RB,NE,#SCESFQ),'ABORT BADMXS'    Now something wrong
 00127E 4780 A13A            012B2 12343  1          +
 001282 AC04 021B      0021B       12352  2          +
 001286 9680 021A      0021A       12358  2          +
 00128A 50F0 021C            0021C 12359  2          +
 00128E 58F0 0210            00210 12360  2          +
 001292 89F0 0010            00010 12361  2          +
 001296 88F0 0010            00010 12362  2          +
 00129A 41F0 F000            00000 12363  2          +
 00129E AEFF 0006            00006 12364  2          +
 0012A2 C2C1C4D4E7E24040           12365  1          +
                                   12370  1 1424.     *
                                   12371  1 1425.     * We got another fullqueue.  Count it and queue an elem on the FQCB.
                                   12372  1 1426.     *
 0012B2 4110 0001            00001 12373  1 1427.                INCR  RS,FQCBCNT              Count of full queues
 0012B6 5E10 2004            00004 12377  1          +
1TERMINAL (TERM00) (09:44) (22MAR04) MILTEN Terminal Control - Local                                                        Page  104
0Current Usings:  (PZERO,R0) (FQCB,R2) (MTCB,R6) (#SCSR,R7) (MILSX,R10) (@LOCKS-72,R13)
0Loc    Object Code    Addr1 Addr2  Stmt Lv Lineno    Source Statement           (Hibal 5, Asmedit 3.3)  HLASM R4.0  2004/03/22 09.44
+___    ______ ____    _____ _____  ____ __ ______    ______ _________
00012BA 5010 2004            00004 12378  1          +
 0012BE 58F0 A958/0DEF       01AD0 12379  1 1428.                VCALL ASLOCK
 DROP   @LOCKS-72,R13              12383  1 1429.                VMGET L'MFQE,LOC=GLOBHI       Get an element
 USING  @VMGET-72,R13
 0012C4 D70A D048 D048 00000 00000 12410  1          +
 0012CA 4100 000C            0000C 12422  1          +
 0012CE 5000 D048            00000 12427  1          +
 0012D2 D201 D050 A9AC 00008 01B24 12428  1          +
 0012D8 58F0 A928/0DEF       01AA0 12431  1          +
 0012DE 1810                       12433  1 1430.                LR    RS,RVR
 USING  MFQE,R1                    12434  1 1431.                WITH  (MFQE,RS),BEGIN
 0012E0                            12448  2 1432.                  CLEAR MFQE
 0012E0 D70B 1000 1000 00000 00000 12454  2          +
 0012E6 D203 1000 A95C 00000 01AD4 12455  2 1433.                  MVC   MFQE(4),=C'MFQE'
 0012EC D203 1008 0208 00008 00208 12456  2 1434.                  MVC   MFQEASB,PZCURASB        Current Address space
 DROP   MFQE,R1                    12457  1 1435.                END   ,
 0012F2 5830 2010/1233       00010 12465  1 1436.                LT    RB,FQCBTAIL             Get the last in the list
 0012F8 4770 A18C            01304 12469  1 1437.                IF    Z,BEGIN                 Only one in the list
 0012FC 5010 2010            00010 12480  2 1438.                  ST    RS,FQCBTAIL             It is the last
 001300 5010 200C            0000C 12481  2 1439.                  ST    RS,FQCBHEAD             And the first too
 001304 A190           01304 012FA 12482  1 1440.                END   ELSE,BEGIN              Not the only one
 001304 47F0 A198            01310 12491  1          +
 USING  MFQE,R3                    12497  2 1441.                  WITH  (MFQE,RB)               Address the last
 001308 5010 3004            00004 12510  2 1442.                  ST    RS,MFQENEXT             Point the last at the new one
 00130C 5010 2010            00010 12511  2 1443.                  ST    RS,FQCBTAIL             And point tail a the next one
 DROP   MFQE,R3                    12512  1 1444.                END   ,
                                   12521  1 1445.     *
                                   12522  1 1446.     * Suspend the address space
                                   12523  1 1447.     *
 DROP   @VMGET-72,R13              12524  1 1448.                PSET  @SUSPEND
 USING  @SUSPEND-72,R13
 001310 D708 D048 D048 00000 00000 12544  1          +
 001316 9640 D050      00008       12545  1 1449.                SET   @SUSPAS                 Do the whole address space
 00131A 58F0 A960/0DEF       01AD8 12551  1 1450.                VCALL SUSPEND                 Mark us suspended
                                   12555  1 1451.     *
                                   12556  1 1452.     * Free the fullqueue lock, so we can be awakened
                                   12557  1 1453.     *
 DROP   @SUSPEND-72,R13            12558  1 1454.                LKREL FQCBLOCK
 USING  @LOCKS-72,R13
 001320 D203 D048 2008 00000 00008 12577  1          +
 001326 58F0 A954/0DEF       01ACC 12580  1          +
 00132C 58F0 A964/0DEF       01ADC 12582  1 1455.                VCALL ASULOCK                 Release the local lock
 001332 58F0 A968/0DEF       01AE0 12586  1 1456.                VCALL DISPRD                  Do the actual suspend
 001338 47F0 A0B8            01230 12590  1 1457.                B     FQL                     When we wake, try again
 DROP   FQCB,R2                    12591    1458.              END   ,
1TERMINAL (TERM00) (09:44) (22MAR04) MILTEN Terminal Control - Local                                                        Page  105
0Current Usings:  (PZERO,R0) (MTCB,R6) (#SCSR,R7) (MILSX,R10) (@LOCKS-72,R13)
0Loc    Object Code    Addr1 Addr2  Stmt Lv Lineno    Source Statement           (Hibal 5, Asmedit 3.3)  HLASM R4.0  2004/03/22 09.44
+___    ______ ____    _____ _____  ____ __ ______    ______ _________
0                                  12600    1460.     *
                                   12601    1461.     * We are done with the send, unfix the area and free the IOS ID
                                   12602    1462.     *
 DROP   @LOCKS-72,R13              12603    1463.     MXRDONE  UNFIX #SCSR,SCOMPLEN          Free the Parm area
 USING  @PAGE-72,R13
 00133C D708 D048 D048 00000 00000 12625             +
 001342 5070 D048            00000 12636             +
 001346 4100 00B8            000B8 12648             +
 00134A 5000 D04C            00004 12653             +
 00134E 58F0 A96C/0DEF       01AE4 12656             +
 DROP   @PAGE-72,R13               12658    1464.              PSET  @IOSIDFRE
 USING  @IOSIDFRE-72,R13
 001354 D703 D048 D048 00000 00000 12678             +
 00135A 5050 D048            00000 12679    1465.              ST    RK,@IOSFID
 00135E 58F0 A970/0DEF       01AE8 12680    1466.              VCALL IOSIDFRE                Free the IOS ID
 001364 981F C008            00008 12684    1467.              PEND  ,
 DROP   #SCSR,R7
 DROP   MTCB,R6
 DROP   MILSX,R10
 001368 9680 C000/0B0E 00000       12704             +
 DROP   @IOSIDFRE-72,R13
1TERMINAL (TERM00) (09:44) (22MAR04) MILTEN Terminal Control - Local                                                        Page  106
0Current Usings:  (PZERO,R0)
0Loc    Object Code    Addr1 Addr2  Stmt Lv Lineno    Source Statement           (Hibal 5, Asmedit 3.3)  HLASM R4.0  2004/03/22 09.44
+___    ______ ____    _____ _____  ____ __ ______    ______ _________
0                                  12714    1469.     *****************************************************************
                                   12715    1470.     *                                                               *
                                   12716    1471.     *   MILRX  --  This routine receives the transaction back from  *
                                   12717    1472.     *              MILTEN.  The data has been received by the       *
                                   12718    1473.     *              Milten central address space and is (will be)    *
                                   12719    1474.     *              pointed to in our MTCB when the SYSR from the    *
                                   12720    1475.     *              central task runs.  We wait for it if it isn't   *
                                   12721    1476.     *              here yet.                                        *
                                   12722    1477.     *                                                               *
                                   12723    1478.     *   Input  --  none                                             *
                                   12724    1479.     *                                                               *
                                   12725    1480.     *  Output  --  RVR has the address of the received TBUF         *
                                   12726    1481.     *                                                               *
                                   12727    1482.     *****************************************************************
-00136E                            12729    1484.     MILRX    PROC  SCOPE=LOCAL
 00136E D4C9D3D9E7404040           12736             +
 001376 0000/0000                  12737             +
 00137A 900F D004/18AF       00004 12739             +
 USING  MILRX,R10
 001380 50D0 C000/18CD       00000 12754             +
 001386 9680 C000      00000       12756             +
 00138A 41D0 C048            00048 12757             +
 00138E 5860 0208            00208 12758    1485.              L     RX,PZCURASB             Get the current ASB address
 001392 5860 6030            00030 12759    1486.              WITH  (ASB,RX),'L RX,ASBTCCB' Get the MTCB address
 USING  ASB,R6
 DROP   ASB,R6
 USING  MTCB,R6                    12783    1487.              WITH  (MTCB,RX)
                                   12796    1488.     *
                                   12797    1489.     * Wait for the buffer to show up
                                   12798    1490.     *
 001396 58F0 A756/0DEF       01AD0 12799    1491.     UPWT     VCALL ASLOCK                  Get the local lock
 00139C 5840 602C/1244       0002C 12803    1492.              LT    RJ,MTCBTBUF             Get a TBUF
 0013A2 47B0 A05C            013D6 12807    1493.              IF    NEG,'ABORT WAIT2BUF'    We have waited for it
 0013A6 AC04 021B      0021B       12822  1          +
 0013AA 9680 021A      0021A       12828  1          +
 0013AE 50F0 021C            0021C 12829  1          +
 0013B2 58F0 0210            00210 12830  1          +
 0013B6 89F0 0010            00010 12831  1          +
 0013BA 88F0 0010            00010 12832  1          +
 0013BE 41F0 F000            00000 12833  1          +
 0013C2 AEFF 0006            00006 12834  1          +
 0013C6 E6C1C9E3F2C2E4C6           12835             +
                                   12840    1494.     *
                                   12841    1495.     * If it's not back yet, we have to wait for it
                                   12842    1496.     *
 0013D6 4770 A098            01412 12843    1497.              IF    Z,BEGIN                 We have to wait for it
 USING  @SUSPEND-72,R13            12854  1 1498.                PSET  @SUSPEND                We will suspend
 0013DA D708 D048 D048 00000 00000 12871  1          +
 0013E0 9140 6028      00028       12872  1 1499.                IF    MTFLSLOW,BEGIN          We can expect to wait a while
 0013E4 47E0 A076            013F0 12882  1          +
 0013E8 9680 D050      00008       12887  2 1500.                  SET   @SUSPLNG                So do a long wait
 0013EC 94BF 6028      00028       12893  2 1501.                  CLEAR MTFLSLOW                Clear the slow flag
1TERMINAL (TERM00) (09:44) (22MAR04) MILTEN Terminal Control - Local                                                        Page  107
0Current Usings:  (PZERO,R0) (MTCB,R6) (MILRX,R10) (@SUSPEND-72,R13)
0Loc    Object Code    Addr1 Addr2  Stmt Lv Lineno    Source Statement           (Hibal 5, Asmedit 3.3)  HLASM R4.0  2004/03/22 09.44
+___    ______ ____    _____ _____  ____ __ ______    ______ _________
00013F0                            12900  1 1502.                END   ,
 0013F0 58F0 A75E/0DEF       01AD8 12904  1 1503.                VCALL SUSPEND                 Etc
 0013F6 D203 602C A772 0002C 01AEC 12908  1 1504.                MVC   MTCBTBUF,=X'80000000'   Tell the SYSR we're waiting
 0013FC D207 6030 D048 00030 00000 12909  1 1505.                MVC   MTCBTKID,@SUSPCTL       Save info needed to wake
 001402 58F0 A762/0DEF       01ADC 12910  1 1506.                VCALL ASULOCK                 Free the lock
 001408 58F0 A766/0DEF       01AE0 12914  1 1507.                VCALL DISPRD                  Return to the dispatcher
 00140E 47F0 A01C            01396 12918  1 1508.                B     UPWT                    Try again
 001412                            12919    1509.              END   ,
                                   12923    1510.     *
                                   12924    1511.     * We have the return buffer from Milten
                                   12925    1512.     *
 001412                            12926    1513.              CLEAR MTCBTBUF                Clear out the buffer address
 001412 D703 602C 602C 0002C 0002C 12932             +
 001418 58F0 A762/0DEF       01ADC 12933    1514.              VCALL ASULOCK                 Release the local Lock
 00141E 1804                       12937    1515.              LR    RVR,RJ                  Copy the TBUF location
 001420 981F C008            00008 12938    1516.              PEND  ,
 DROP   MTCB,R6
 DROP   MILRX,R10
 001424 9680 C000/0B0E 00000       12953             +
 DROP   @SUSPEND-72,R13
1TERMINAL (TERM00) (09:44) (22MAR04) MILTEN Terminal Control - Local                                                        Page  108
0Current Usings:  (PZERO,R0)
0Loc    Object Code    Addr1 Addr2  Stmt Lv Lineno    Source Statement           (Hibal 5, Asmedit 3.3)  HLASM R4.0  2004/03/22 09.44
+___    ______ ____    _____ _____  ____ __ ______    ______ _________
0                                  12963    1518.     *****************************************************************
                                   12964    1519.     *                                                               *
                                   12965    1520.     *   CURSIB --  This routine sends a request to milten to get    *
                                   12966    1521.     *              the current information about the current line.  *
                                   12967    1522.     *                                                               *
                                   12968    1523.     *   Input  --  none                                             *
                                   12969    1524.     *                                                               *
                                   12970    1525.     *  Output  --  none                                             *
                                   12971    1526.     *                                                               *
                                   12972    1527.     *****************************************************************
-00142A                            12974    1529.     CURSIB   PROC  SCOPE=LOCAL
 00142A C3E4D9E2C9C24040           12981             +
 001432 0000/0000                  12982             +
 001436 900F D004/18AF       00004 12984             +
 USING  CURSIB,R10
 00143C 50D0 C000/18CD       00000 12999             +
 001442 9680 C000      00000       13001             +
 001446 41D0 C048            00048 13002             +
 00144A 5860 0208            00208 13003    1530.              L     RX,PZCURASB             Get the current ASB address
 00144E 5860 6030            00030 13004    1531.              WITH  (ASB,RX),'L RX,ASBTCCB' Get the MTCB address
 USING  ASB,R6
 DROP   ASB,R6
 USING  MTCB,R6                    13028    1532.              WITH  (MTCB,RX)
                                   13041    1533.     *
                                   13042    1534.     * Fill in the PDB how we like it
                                   13043    1535.     *
 001452 5820 6018            00018 13044    1536.              L     RA,MTCBPDB
 USING  PDB,R2                     13045    1537.              WITH  (PDB,RA),BEGIN
 001456                            13059  1 1538.                CLEAR PDB
 001456 D733 2000 2000 00004 00004 13065  1          +
 00145C D201 2000 6004 00004 00004 13066  1 1539.                MVC   PDBLIN#,MTCBLINE        Put in the line number
 001462 9249 2002      00006       13067  1 1540.                MVI   PDBCMD,MILCNTL          Command is a control
 001466 9201 2003      00007       13068  1 1541.                MVI   PDBCNO,CTLSNSI          Sense session info
 DROP   PDB,R2                     13069    1542.              END   ,
                                   13077    1543.     *
                                   13078    1544.     * Make sure it stays put
                                   13079    1545.     *
 USING  @PAGE-72,R13               13080    1546.              FIX   (RA),L'PDB              Fix the PDB
 00146A D708 D048 D048 00000 00000 13098             +
 001470 5020 D048            00000 13108             +
 001474 4100 0034            00034 13120             +
 001478 5000 D04C            00004 13125             +
 00147C 58F0 A682/0DEF       01AB8 13128             +
                                   13130    1547.     *
                                   13131    1548.     * Set up the parm area
                                   13132    1549.     *
 001482 5830 6020            00020 13133    1550.              L     RB,MTCBIOPA             Get the address of the area
 USING  #SCSR,R3                   13134    1551.              WITH  (#SCSR,RB),BEGIN
 001486                            13148  1 1552.                CLEAR #SCSR
 001486 D717 3000 3000 00000 00000 13154  1          +
 00148C 5020 D04C            00004 13155  1 1553.                ADDSG (RA),L'PDB,#SCSR        Add the segment
 DROP   @PAGE-72,R13
1TERMINAL (TERM00) (09:44) (22MAR04) MILTEN Terminal Control - Local                                                        Page  109
0Current Usings:  (PZERO,R0) (#SCSR,R3) (MTCB,R6) (CURSIB,R10) (@ADDSEG-72,R13)
0Loc    Object Code    Addr1 Addr2  Stmt Lv Lineno    Source Statement           (Hibal 5, Asmedit 3.3)  HLASM R4.0  2004/03/22 09.44
+___    ______ ____    _____ _____  ____ __ ______    ______ _________
0USING  @ADDSEG-72,R13
 001490 4100 0034            00034 13191  1          +
 001494 4000 D050            00008 13196  1          +
 001498 5030 D048            00000 13207  1          +
 00149C 58F0 A6BA/0DEF       01AF0 13213  1          +
 DROP   #SCSR,R3                   13215    1554.              END   ,
 0014A2 58F0 A6BE/0DEF       01AF4 13223    1555.              ACALL MILSX                   Send the Transation
 DROP   @ADDSEG-72,R13             13230    1556.              UNFIX (RA),L'PDB              Free the PDB
 USING  @PAGE-72,R13
 0014A8 D708 D048 D048 00000 00000 13251             +
 0014AE 5020 D048            00000 13261             +
 0014B2 4100 0034            00034 13273             +
 0014B6 5000 D04C            00004 13278             +
 0014BA 58F0 A6AE/0DEF       01AE4 13281             +
                                   13283    1557.     *
                                   13284    1558.     * Now we wait to see what we got back from this
                                   13285    1559.     *
 0014C0 58F0 A6C2/0DEF       01AF8 13286    1560.              ACALL MILRX                   Get the rebound
 0014C6 1840                       13293    1561.              LR    RJ,RVR                  Get the TBUF address
 USING  TBUF,R4                    13294    1562.              WITH  (TBUF,RJ),BEGIN
 AUSING (PDB,TBUFDATA)             13308  1 1563.                WITH  (PDB,TBUFDATA)          It should be a PDB
                                   13315  1 1564.     *
                                   13316  1 1565.     * Check to make sure it is the one we want
                                   13317  1 1566.     *
 0014C8 9549 4012      00006       13318  1 1567.                IF    ((PDBCMD,NE,MILCNTL),OR,(PDBCRET,NZ)),'ABORT CURSIB?'
 0014CC 4770 A0A2            014D8 13335  1          +
 0014D0 9500 401A      0000E       13345  1          +
 0014D4 4780 A0D2            01508 13346  1          +
 0014D8 AC04 021B      0021B       13355  2          +
 0014DC 9680 021A      0021A       13361  2          +
 0014E0 50F0 021C            0021C 13362  2          +
 0014E4 58F0 0210            00210 13363  2          +
 0014E8 89F0 0010            00010 13364  2          +
 0014EC 88F0 0010            00010 13365  2          +
 0014F0 41F0 F000            00000 13366  2          +
 0014F4 AEFF 0006            00006 13367  2          +
 0014F8 C3E4D9E2C9C26F40           13368  1          +
 001508 5850 601C            0001C 13373  1 1568.                L     RK,MTCBSIB              Get the SIB area address
 USING  SIB,R5                     13374  1 1569.                WITH  (SIB,RK)
 00150C D2FD 5000 4044 00000 00038 13387  1 1570.                MVC   SIB,PDBTEXT             Move in the SIB
 DROP   @PAGE-72,R13               13388  1 1571.                FREEB TBUF                    Then free our buffer
 USING  @FRTBUF-72,R13
 001512 D703 D048 D048 00000 00000 13409  1          +
 001518 5040 D048            00000 13420  1          +
 00151C 58F0 A6C6/0DEF       01AFC 13426  1          +
 DROP   SIB,R5                     13428    1572.              END   ,
 DROP   TBUF,R4
                                   13441    1573.     *
                                   13442    1574.     * Update global information
                                   13443    1575.     *
 001522 41F0 A28A/0DEF       016C0 13444    1576.              LCALL SIBDO
 001528 981F C008            00008 13453    1577.              PEND  ,
 DROP   MTCB,R6
 DROP   CURSIB,R10
1TERMINAL (TERM00) (09:44) (22MAR04) MILTEN Terminal Control - Local                                                        Page  110
0Current Usings:  (PZERO,R0)
0Loc    Object Code    Addr1 Addr2  Stmt Lv Lineno    Source Statement           (Hibal 5, Asmedit 3.3)  HLASM R4.0  2004/03/22 09.44
+___    ______ ____    _____ _____  ____ __ ______    ______ _________
000152C 9680 C000/0B0E 00000       13468             +
 DROP   @FRTBUF-72,R13
1TERMINAL (TERM00) (09:44) (22MAR04) MILTEN Terminal Control - Local                                                        Page  111
0Current Usings:  (PZERO,R0)
0Loc    Object Code    Addr1 Addr2  Stmt Lv Lineno    Source Statement           (Hibal 5, Asmedit 3.3)  HLASM R4.0  2004/03/22 09.44
+___    ______ ____    _____ _____  ____ __ ______    ______ _________
0                                  13478    1579.     *****************************************************************
                                   13479    1580.     *                                                               *
                                   13480    1581.     *   NEWSIB --  This routine sends a request to have MILTEN      *
                                   13481    1582.     *              update its version of the SIB to be like ours.   *
                                   13482    1583.     *              If we can't update it because we don't have a    *
                                   13483    1584.     *              current copy, we return RVR not equal to zero    *
                                   13484    1585.     *              and update out copy of the SIB.                  *
                                   13485    1586.     *                                                               *
                                   13486    1587.     *   Input  --  none                                             *
                                   13487    1588.     *                                                               *
                                   13488    1589.     *  Output  --  RVR = 0 if it went ok.                           *
                                   13489    1590.     *                                                               *
                                   13490    1591.     *****************************************************************
-001532                            13492    1593.     NEWSIB   PROC  SCOPE=LOCAL
 001532 D5C5E6E2C9C24040           13499             +
 00153A 0000/0000                  13500             +
 00153E 900F D004/18AF       00004 13502             +
 USING  NEWSIB,R10
 001544 50D0 C000/18CD       00000 13517             +
 00154A 9680 C000      00000       13519             +
 00154E 41D0 C048            00048 13520             +
                                   13521    1594.     *
                                   13522    1595.     * Find out where we are
                                   13523    1596.     *
 001552 5860 0208            00208 13524    1597.              L     RX,PZCURASB             Get the current ASB address
 001556 5860 6030            00030 13525    1598.              WITH  (ASB,RX),'L RX,ASBTCCB' Get the MTCB address
 USING  ASB,R6
 DROP   ASB,R6
 USING  MTCB,R6                    13549    1599.              WITH  (MTCB,RX)
                                   13562    1600.     *
                                   13563    1601.     * Increment the update count in the SIB
                                   13564    1602.     *
 00155A 5850 601C            0001C 13565    1603.              L     RK,MTCBSIB              Get the SIB address
 USING  SIB,R5                     13566    1604.              WITH  (SIB,RK)
 00155E 4110 0001            00001 13579    1605.              INCR  RS,SIBUC                Bump the update count
 001562 4A10 5080            00080 13583             +
 001566 4010 5080            00080 13584             +
                                   13585    1606.     *
                                   13586    1607.     * Get the parm area and PDB
                                   13587    1608.     *
 00156A 5870 6018            00018 13588    1609.              L     RY,MTCBPDB              Get a PDB
 USING  PDB,R7                     13589    1610.              WITH  (PDB,RY),BEGIN
 00156E                            13603  1 1611.                CLEAR PDB                     Clean that up too
 00156E D733 7000 7000 00004 00004 13609  1          +
 001574 5880 6020            00020 13610  1 1612.                L     RM,MTCBIOPA             Get a parm location
 USING  #SCSR,R8                   13611  1 1613.                WITH  (#SCSR,RM)
 001578                            13624  1 1614.                CLEAR #SCSR
 001578 D717 8000 8000 00000 00000 13630  1          +
                                   13631  1 1615.     *
                                   13632  1 1616.     * Fill in the PDB
                                   13633  1 1617.     *
 00157E D201 7000 6004 00004 00004 13634  1 1618.                MVC   PDBLIN#,MTCBLINE        Move in the line number
1TERMINAL (TERM00) (09:44) (22MAR04) MILTEN Terminal Control - Local                                                        Page  112
0Current Usings:  (PZERO,R0) (SIB,R5) (MTCB,R6) (PDB,R7) (#SCSR,R8) (NEWSIB,R10)
0Loc    Object Code    Addr1 Addr2  Stmt Lv Lineno    Source Statement           (Hibal 5, Asmedit 3.3)  HLASM R4.0  2004/03/22 09.44
+___    ______ ____    _____ _____  ____ __ ______    ______ _________
0001584 9249 7002      00006       13635  1 1619.                MVI   PDBCMD,MILCNTL          Milten control command
 001588 9202 7003      00007       13636  1 1620.                MVI   PDBCNO,CTLSETI          Set Session info
 00158C D20F 7010 6074 00014 00074 13637  1 1621.                MVC   PDBVINFO,MT1PGM         And the program info
 001592 4120 007E            0007E 13638  1 1622.                LA    RA,L'SIBOPT             Get the SIB updateable length
 001596 4020 702E            00032 13639  1 1623.                STH   RA,PDBWC                Fill in the write count
 00159A 4110 2006            00006 13640  1 1624.                LA    RS,@RA+6
 00159E 4010 702A            0002E 13641  1 1625.                STH   RS,PDBOUTCT             And the milten count
 USING  @PAGE-72,R13               13642  1 1626.                FIX   PDB,L'PDB
 0015A2 D708 D048 D048 00000 00000 13660  1          +
 0015A8 5070 D048            00000 13671  1          +
 0015AC 4100 0034            00034 13683  1          +
 0015B0 5000 D04C            00004 13688  1          +
 0015B4 58F0 A57A/0DEF       01AB8 13691  1          +
 0015BA 5070 D04C            00004 13693  1 1627.                ADDSG PDB,L'PDB,#SCSR         Send the PDB
 DROP   @PAGE-72,R13
 USING  @ADDSEG-72,R13
 0015BE 4100 0034            00034 13730  1          +
 0015C2 4000 D050            00008 13735  1          +
 0015C6 5080 D048            00000 13746  1          +
 0015CA 58F0 A5B2/0DEF       01AF0 13752  1          +
 DROP   @ADDSEG-72,R13             13754  1 1628.                FIX   SIBOPT,L'SIBOPT         Fix the SIB too
 USING  @PAGE-72,R13
 0015D0 D708 D048 D048 00000 00000 13775  1          +
 0015D6 4100 5080            00080 13787  1          +
 0015DA 5000 D048            00000 13792  1          +
 0015DE 4100 007E            0007E 13804  1          +
 0015E2 5000 D04C            00004 13809  1          +
 0015E6 58F0 A57A/0DEF       01AB8 13812  1          +
 0015EC 4100 5080            00080 13814  1 1629.                ADDSG SIBOPT,L'SIBOPT,#SCSR   And add it
 DROP   @PAGE-72,R13
 USING  @ADDSEG-72,R13
 0015F0 5000 D04C            00004 13845  1          +
 0015F4 4100 007E            0007E 13857  1          +
 0015F8 4000 D050            00008 13862  1          +
 0015FC 5080 D048            00000 13873  1          +
 001600 58F0 A5B2/0DEF       01AF0 13879  1          +
 001606 58F0 A5B6/0DEF       01AF4 13881  1 1630.                ACALL MILSX                   Send it off
 DROP   @ADDSEG-72,R13             13888  1 1631.                UNFIX SIBOPT,L'SIBOPT         Unfix the SIB
 USING  @PAGE-72,R13
 00160C D708 D048 D048 00000 00000 13909  1          +
 001612 4100 5080            00080 13921  1          +
 001616 5000 D048            00000 13926  1          +
 00161A 4100 007E            0007E 13938  1          +
 00161E 5000 D04C            00004 13943  1          +
 001622 58F0 A5A6/0DEF       01AE4 13946  1          +
 001628                            13948  1 1632.                UNFIX PDB,L'PDB               Unfix the PDB
 001628 D708 D048 D048 00000 00000 13959  1          +
 00162E 5070 D048            00000 13970  1          +
 001632 4100 0034            00034 13982  1          +
 001636 5000 D04C            00004 13987  1          +
 00163A 58F0 A5A6/0DEF       01AE4 13990  1          +
 DROP   #SCSR,R8                   13992    1633.              END   ,
 DROP   PDB,R7
                                   14005    1634.     *
1TERMINAL (TERM00) (09:44) (22MAR04) MILTEN Terminal Control - Local                                                        Page  113
0Current Usings:  (PZERO,R0) (SIB,R5) (MTCB,R6) (NEWSIB,R10) (@PAGE-72,R13)
0Loc    Object Code    Addr1 Addr2  Stmt Lv Lineno    Source Statement           (Hibal 5, Asmedit 3.3)  HLASM R4.0  2004/03/22 09.44
+___    ______ ____    _____ _____  ____ __ ______    ______ _________
0                                  14006    1635.     * Now we wait to see what we got back from this
                                   14007    1636.     *
 001640 58F0 A5BA/0DEF       01AF8 14008    1637.              ACALL MILRX                   Get the rebound
 001646 1870                       14015    1638.              LR    RY,RVR                  Get the TBUF address
 USING  TBUF,R7                    14016    1639.              WITH  (TBUF,RY)
 AUSING (PDB,TBUFDATA)             14029    1640.              WITH  (PDB,TBUFDATA)          It should be a PDB
                                   14036    1641.     *
                                   14037    1642.     * Check to make sure it is the one we want
                                   14038    1643.     *
 001648                            14039    1644.     NEWSIBOK BEGIN ,                       Return not in error
                                   14044  1 1645.   C            IF    ((PDBCMD,NE,MILCNTL),OR,         'ABORT *SEQERR'
 001648 9549 7012      00006              1 1646.                      (PDBCRET,NZ)),BEGIN              'ABORT *NEWSIB'
 00164C 4770 A11A            01658 14061  1          +
 001650 9500 701A      0000E       14071  1          +
 001654 4780 A136            01674 14072  1          +
 001658 83000012/8406              14077  2 1647.                  ORVSNAP 'NEWSIB',MODE=WTL
 00165E 4100 A5EC            01B2A 14082  2          +
 001662 83000012                   14083  2 1648.                  ORVSNAP TBUF,255
 001666 14FF00007000               14087  2          +
 00166C 4120 0004            00004 14088  2 1649.                  LA    RA,4
 001670 47F0 A15A            01698 14089  2 1650.                  EXIT  NEWSIBOK
 001674                            14092  1 1651.                END   ,                       OF Return not OK
                                   14096  1 1652.     *
                                   14097  1 1653.     * We know that milten liked our message.  If the update was
                                   14098  1 1654.     * successful, we just give a good return.  If not, milten returns
                                   14099  1 1655.     * the current SIB in the PDB.
                                   14100  1 1656.     *
 001674 9500 701B      0000F       14101  1 1657.                IF    (PDBCMOD,Z),BEGIN       The update was sucessful
 001678 4770 A146            01684 14112  1          +
 00167C 41F0 A182/0DEF       016C0 14117  2 1658.                  LCALL SIBDO                   Take the info out of the SIB
 001682 1B22                       14126  2 1659.                  CLEAR RA                      Signal good return
 001684 A14A           01684 0167A 14130  1 1660.                END   ELSE,BEGIN              The update didn't take
 001684 47F0 A15A            01698 14139  1          +
 001688 D2FD 5000 7044 00000 00038 14145  2 1661.                  MVC   SIB,PDBTEXT             Update our copy
 00168E 41F0 A182/0DEF       016C0 14146  2 1662.                  LCALL SIBDO                   Distribute the info
 001694 4120 0004            00004 14155  2 1663.                  LA    RA,4                    Tell them it was NG
 001698                            14156  1 1664.                END   ,
 001698                            14160    1665.              END   ,                       OF Return not in error
                                   14164    1666.     *
                                   14165    1667.     * Free the buffer and return
                                   14166    1668.     *
 DROP   @PAGE-72,R13               14167    1669.              FREEB TBUF
 USING  @FRTBUF-72,R13
 001698 D703 D048 D048 00000 00000 14188             +
 00169E 5070 D048            00000 14199             +
 0016A2 58F0 A5BE/0DEF       01AFC 14205             +
 0016A8 1802                       14207    1670.              LR    RVR,RA                  Return code
 0016AA 981F C008            00008 14208    1671.              PEND  ,
 DROP   TBUF,R7
 DROP   SIB,R5
 DROP   MTCB,R6
 DROP   NEWSIB,R10
 0016AE 9680 C000/0B0E 00000       14233             +
 DROP   @FRTBUF-72,R13
1TERMINAL (TERM00) (09:44) (22MAR04) MILTEN Terminal Control - Local                                                        Page  114
0Current Usings:  (PZERO,R0)
0Loc    Object Code    Addr1 Addr2  Stmt Lv Lineno    Source Statement           (Hibal 5, Asmedit 3.3)  HLASM R4.0  2004/03/22 09.44
+___    ______ ____    _____ _____  ____ __ ______    ______ _________
0                                  14243    1673.     *****************************************************************
                                   14244    1674.     *                                                               *
                                   14245    1675.     *   SIBDO  --  This routine takes the data from the SIB and     *
                                   14246    1676.     *              moves it to the proper control blocks.           *
                                   14247    1677.     *                                                               *
                                   14248    1678.     *   Input  --  none                                             *
                                   14249    1679.     *                                                               *
                                   14250    1680.     *  Output  --  none                                             *
                                   14251    1681.     *                                                               *
                                   14252    1682.     *****************************************************************
-0016B4                            14254    1684.     SIBDO    PROC  SCOPE=LOCAL
 0016B4 E2C9C2C4D6404040           14261             +
 0016BC 0000/0000                  14262             +
 0016C0 900F D004/18AF       00004 14264             +
 USING  SIBDO,R10
 0016C6 50D0 C000/18CD       00000 14279             +
 0016CC 9680 C000      00000       14281             +
 0016D0 41D0 C048            00048 14282             +
                                   14283    1685.     *
                                   14284    1686.     * Find all the control blocks
                                   14285    1687.     *
 0016D4 5870 0208            00208 14286    1688.              L     RY,PZCURASB             Get the current ASB
 USING  ASB,R7                     14287    1689.              WITH  (ASB,RY)
 0016D8 5860 7030            00030 14300    1690.              L     RX,ASBTCCB              Get the MTCB Address
 USING  MTCB,R6                    14301    1691.              WITH  (MTCB,RX)
 0016DC 5850 601C            0001C 14314    1692.              L     RK,MTCBSIB              Get the SIB address
 USING  SIB,R5                     14315    1693.              WITH  (SIB,RK)
                                   14328    1694.     *
                                   14329    1695.     * Update global information
                                   14330    1696.     *
 USING  @ACLOGON-72,R13            14331    1697.              PSET  @ACLOGON
 0016E0 D71B D048 D048 00000 00000 14348             +
 0016E6 D203 D048 0208 00000 00208 14349    1698.              MVC   @ACLASB,PZCURASB        Always for us
 0016EC D204 D04C 5070 00004 00070 14350    1699.              MVC   @ACLUID(L'SIBACCT),SIBACCT
 0016F2 D200 D057 507A 0000F 0007A 14351    1700.              MVC   @ACLUPR+3(1),SIBKIFL    Milten privs
 0016F8 D207 D058 5068 00010 00068 14352    1701.              MVC   @ACLLOT,SIBLCLCK        Logon time
 0016FE                            14353    1702.              PMOV  @ACLTID,SIBNO           Terminal ID
 0016FE D201 D062 5004 0001A 00004 14357             +
 001704 58F0 A440/0DEF       01B00 14358    1703.              VCALL ACLOGON                 Go do the logon
 00170A 981F C008            00008 14362    1704.              PEND  ,
 DROP   SIB,R5
 DROP   MTCB,R6
 DROP   ASB,R7
 DROP   SIBDO,R10
 00170E 9680 C000/0B0E 00000       14387             +
 DROP   @ACLOGON-72,R13
1TERMINAL (TERM00) (09:44) (22MAR04) MILTEN Terminal Control - Local                                                        Page  115
0Current Usings:  (PZERO,R0)
0Loc    Object Code    Addr1 Addr2  Stmt Lv Lineno    Source Statement           (Hibal 5, Asmedit 3.3)  HLASM R4.0  2004/03/22 09.44
+___    ______ ____    _____ _____  ____ __ ______    ______ _________
0                                  14397    1706.     *****************************************************************
                                   14398    1707.     *                                                               *
                                   14399    1708.     *   MILIAS --  This routine is called when an address space     *
                                   14400    1709.     *              using a milten terminal is started up.           *
                                   14401    1710.     *                                                               *
                                   14402    1711.     *   Input  --  none                                             *
                                   14403    1712.     *                                                               *
                                   14404    1713.     *  Output  --  none                                             *
                                   14405    1714.     *                                                               *
                                   14406    1715.     *****************************************************************
-001714                            14408    1717.     MILIAS   PROC  SCOPE=LOCAL
 001714 D4C9D3C9C1E24040           14415             +
 00171C 0000/0000                  14416             +
 001720 900F D004/18AF       00004 14418             +
 USING  MILIAS,R10
 001726 50D0 C000/18CD       00000 14433             +
 00172C 9680 C000      00000       14435             +
 001730 41D0 C048            00048 14436             +
 001734 5880 0208            00208 14437    1718.              L     RM,PZCURASB             Get the current ASB address
 USING  ASB,R8                     14438    1719.              WITH  (ASB,RM)
 001738 5870 8030            00030 14451    1720.              L     RY,ASBTCCB              Get the MIB address
 USING  MIB,R7                     14452    1721.              WITH  (MIB,RY)
                                   14465    1722.     *
                                   14466    1723.     * Allocate an MTCB for the terminal
                                   14467    1724.     *
 USING  @VMGET-72,R13              14468    1725.              VMGET L'MTCB,LOC=LOCSYS,FIX=YES
 00173C D70A D048 D048 00000 00000 14492             +
 001742 4100 0084            00084 14504             +
 001746 5000 D048            00000 14509             +
 00174A D201 D050 A410 00008 01B30 14510             +
 001750 58F0 A380/0DEF       01AA0 14513             +
 001756 1860                       14515    1726.              LR    RX,RVR
 USING  MTCB,R6                    14516    1727.              WITH  (MTCB,RX)
 001758                            14529    1728.              CLEAR MTCB
 001758 D783 6000 6000 00000 00000 14535             +
 00175E D203 6000 A3E4 00000 01B04 14536    1729.              MVC   MTCB(4),=C'MTCB'        Control block ID
 001764 5060 8030            00030 14537    1730.              ST    RX,ASBTCCB              Save the address
                                   14538    1731.     *
                                   14539    1732.     * Save information from the MIB
                                   14540    1733.     *
 001768 D203 6010 7008 00010 00008 14541    1734.              MVC   MTCBPATH,MIBPATH        Save the PATH ID
 00176E D203 6014 700C 00014 0000C 14542    1735.              MVC   MTCBFQCB,MIBFQCB        FQCB address
                                   14543    1736.     *
                                   14544    1737.     * Get information from the logon PDB
                                   14545    1738.     *
 001774 5850 7004            00004 14546    1739.              L     RK,MIBTBUF              Get the logon buffer
 USING  TBUF,R5                    14547    1740.              WITH  (TBUF,RK),BEGIN
 AUSING (PDB,TBUFDATA)             14561  1 1741.                WITH  (PDB,TBUFDATA)          Address the PDB
                                   14568  1 1742.     *        IF    (PDBCMD,NE,FMILSOS),'ABORT *SEQERR'
 001778 9540 5012      00006       14569  1 1743.                IF    (PDBCMD,NE,FMILSOS),BEGIN
 00177C 4780 A074            01794 14582  1          +
 001780 83000012/8406              14587  2 1744.                  ORVSNAP 'MILIAS',MODE=WTL
1TERMINAL (TERM00) (09:44) (22MAR04) MILTEN Terminal Control - Local                                                        Page  116
0Current Usings:  (PZERO,R0) (TBUF,R5) (MTCB,R6) (MIB,R7) (ASB,R8) (MILIAS,R10) (@VMGET-72,R13)
0Loc    Object Code    Addr1 Addr2  Stmt Lv Lineno    Source Statement           (Hibal 5, Asmedit 3.3)  HLASM R4.0  2004/03/22 09.44
+___    ______ ____    _____ _____  ____ __ ______    ______ _________
0001786 4100 A412            01B32 14592  2          +
 00178A 83000012                   14593  2 1745.                  ORVSNAP TBUF,255
 00178E 14FF00005000               14597  2          +
 001794                            14598  1 1746.                END   ,
 001794 D201 6004 5010 00004 00004 14602  1 1747.                MVC   MTCBLINE,PDBLIN#        Milten line number
 00179A D207 6006 5030 00006 00024 14603  1 1748.                MVC   MTCBWYLN,PDBSYSNM       Who XCTL'd to us
 DROP   @VMGET-72,R13              14604  1 1749.                FREEB TBUF                    Free the TBUF
 USING  @FRTBUF-72,R13
 0017A0 D703 D048 D048 00000 00000 14625  1          +
 0017A6 5050 D048            00000 14636  1          +
 0017AA 58F0 A3DC/0DEF       01AFC 14642  1          +
 DROP   TBUF,R5                    14644    1750.              END   ,
                                   14652    1751.     *
                                   14653    1752.     * Allocate some of the things we need
                                   14654    1753.     *
 0017B0 9200 D048      00000       14655    1754.              PSET  @XITNEW
 DROP   @FRTBUF-72,R13
 USING  @XITNEW-72,R13
 0017B4 58F0 A3E8/0DEF       01B08 14676    1755.              VCALL XITNEW
 0017BA 5000 603C            0003C 14680    1756.              ST    RVR,MTCBATTN            Save the Attention Xit id
 0017BE 9200 D048      00000       14681    1757.              PSET  @XITNEW
 0017C2 58F0 A3E8/0DEF       01B08 14692    1758.              VCALL XITNEW
 0017C8 5000 6038            00038 14696    1759.              ST    RVR,MTCBIOCP            And the I/O complete xit id
 0017CC 9200 D048      00000       14697    1760.              PSET  @XITNEW
 0017D0 58F0 A3E8/0DEF       01B08 14708    1761.              VCALL XITNEW
 0017D6 5000 6040            00040 14712    1762.              ST    RVR,MTCBTIMO            And the Timer xit id
 0017DA 9200 D048      00000       14713    1763.              PSET  @XITNEW
 0017DE 58F0 A3E8/0DEF       01B08 14724    1764.              VCALL XITNEW
 0017E4 5000 6044            00044 14728    1765.              ST    RVR,MTCBLGOF            And the logoff xit id
                                   14729    1766.     *
                                   14730    1767.     * Get some local data areas
                                   14731    1768.     *
 DROP   @XITNEW-72,R13             14732    1769.              VMGET SCOMPLEN,LOC=LOCSYS,ONEPAGE=YES  Get an I/O parm area
 USING  @VMGET-72,R13
 0017E8 D70A D048 D048 00000 00000 14759             +
 0017EE 4100 00B8            000B8 14771             +
 0017F2 5000 D048            00000 14776             +
 0017F6 D201 D050 A418 00008 01B38 14777             +
 0017FC 9640 D052      0000A       14783             +
 001800 58F0 A380/0DEF       01AA0 14786             +
 001806 5000 6020            00020 14788    1770.              ST    RVR,MTCBIOPA            Save the address
 00180A                            14789    1771.              VMGET L'PDB,LOC=LOCSYS        Get a PDB
 00180A D70A D048 D048 00000 00000 14806             +
 001810 4100 0034            00034 14818             +
 001814 5000 D048            00000 14823             +
 001818 D201 D050 A418 00008 01B38 14824             +
 00181E 58F0 A380/0DEF       01AA0 14827             +
 001824 5000 6018            00018 14829    1772.              ST    RVR,MTCBPDB             Save the location
 001828                            14830    1773.              VMGET L'SIB,LOC=LOCSYS        Get a SIB buffer
 001828 D70A D048 D048 00000 00000 14847             +
 00182E 4100 00FE            000FE 14859             +
 001832 5000 D048            00000 14864             +
 001836 D201 D050 A418 00008 01B38 14865             +
 00183C 58F0 A380/0DEF       01AA0 14868             +
1TERMINAL (TERM00) (09:44) (22MAR04) MILTEN Terminal Control - Local                                                        Page  117
0Current Usings:  (PZERO,R0) (MTCB,R6) (MIB,R7) (ASB,R8) (MILIAS,R10) (@VMGET-72,R13)
0Loc    Object Code    Addr1 Addr2  Stmt Lv Lineno    Source Statement           (Hibal 5, Asmedit 3.3)  HLASM R4.0  2004/03/22 09.44
+___    ______ ____    _____ _____  ____ __ ______    ______ _________
0001842 5000 601C            0001C 14870    1774.              ST    RVR,MTCBSIB             Save the location
                                   14871    1775.     *
                                   14872    1776.     * We are done with the MIB now, we can free it
                                   14873    1777.     *
 DROP   @VMGET-72,R13              14874    1778.              VMFREE L'MIB,A=LA:MIB,LOC=GLOBHI
 USING  @VMFREE-72,R13
 001846 D709 D048 D048 00000 00000 14901             +
 00184C 4100 0010            00010 14913             +
 001850 5000 D04C            00004 14918             +
 001854 5070 D048            00000 14929             +
 001858 D201 D050 A404 00008 01B24 14930             +
 00185E 58F0 A388/0DEF       01AA8 14933             +
 001864 981F C008            00008 14935    1779.              PEND
 DROP   MTCB,R6
 DROP   MIB,R7
 DROP   ASB,R8
 DROP   MILIAS,R10
 001868 9680 C000/0B0E 00000       14960             +
 DROP   @VMFREE-72,R13
1TERMINAL (TERM00) (09:44) (22MAR04) MILTEN Terminal Control - Local                                                        Page  118
0Current Usings:  (PZERO,R0)
0Loc    Object Code    Addr1 Addr2  Stmt Lv Lineno    Source Statement           (Hibal 5, Asmedit 3.3)  HLASM R4.0  2004/03/22 09.44
+___    ______ ____    _____ _____  ____ __ ______    ______ _________
0                                  14970    1781.     *****************************************************************
                                   14971    1782.     *                                                               *
                                   14972    1783.     *   MILIUSI --  This routine is called to obtain the initial    *
                                   14973    1784.     *               user information from Milten.                   *
                                   14974    1785.     *                                                               *
                                   14975    1786.     *   Input   --  none                                            *
                                   14976    1787.     *                                                               *
                                   14977    1788.     *  Output   --  none                                            *
                                   14978    1789.     *                                                               *
                                   14979    1790.     *****************************************************************
-00186E                            14981    1792.     MILIUSI  PROC  SCOPE=LOCAL
 00186E D4C9D3C9E4E2C940           14988             +
 001876 0000/0000                  14989             +
 00187A 900F D004/18AF       00004 14991             +
 USING  MILIUSI,R10
 001880 50D0 C000/18CD       00000 15006             +
 001886 9680 C000      00000       15008             +
 00188A 41D0 C048            00048 15009             +
 00188E 5880 0208            00208 15010    1793.              L     RM,PZCURASB             Get the current ASB address
 USING  ASB,R8                     15011    1794.              WITH  (ASB,RM)
 001892 5870 8030            00030 15024    1795.              L     RY,ASBTCCB              Get the MIB address
 USING  MTCB,R7                    15025    1796.              WITH  (MTCB,RY)
                                   15038    1797.     *
                                   15039    1798.     * Find out about the user
                                   15040    1799.     *
 001896 58F0 A292/0DEF       01B0C 15041    1800.              ACALL CURSIB                  Update the SIB
 00189C 981F C008            00008 15048    1801.              PEND  ,
 DROP   MTCB,R7
 DROP   ASB,R8
 DROP   MILIUSI,R10
 0018A0 9680 C000/0B0E 00000       15068             +
1TERMINAL (TERM00) (09:44) (22MAR04) MILTEN Terminal Control - Local                                                        Page  119
0Current Usings:  (PZERO,R0)
0Loc    Object Code    Addr1 Addr2  Stmt Lv Lineno    Source Statement           (Hibal 5, Asmedit 3.3)  HLASM R4.0  2004/03/22 09.44
+___    ______ ____    _____ _____  ____ __ ______    ______ _________
0                                  15075    1803.     *****************************************************************
                                   15076    1804.     *                                                               *
                                   15077    1805.     *   MILUINF --  This routine is called to obtain user terminal  *
                                   15078    1806.     *               information from Milten                         *
                                   15079    1807.     *                                                               *
                                   15080    1808.     *   Input   --  @MILUINF                                        *
                                   15081    1809.     *                                                               *
                                   15082    1810.     *  Output   --  parm area pointed to by @MILUINF                *
                                   15083    1811.     *                                                               *
                                   15084    1812.     *****************************************************************
-000000                00000 00004 15086    1814.     @MILUINF RECORD BEGIN
 000000                            15094  1 1815.     @MILUPTR   DS    A
 000004                00004 00004 15095    1816.              END   ,
-0018A6                            15105    1818.     MILUINF  PROC  @MILUINF
 0018A6 D4C9D3E4C9D5C640           15112             +
 0018AE 0008/0000                  15113             +
 0018B2 900F D004/18AF       00004 15115             +
 USING  MILUINF,R10
 0018B8 50D0 C000/18CD       00000 15130             +
 0018BE 9680 C000      00000       15132             +
 USING  @MILUINF-72,R12
 0018C2 41D0 C050            00050 15146             +
 0018C6 5880 0208            00208 15147    1819.              L     RM,PZCURASB             Get the current ASB address
 USING  ASB,R8                     15148    1820.              WITH  (ASB,RM)
 0018CA 5870 8030            00030 15161    1821.              L     RY,ASBTCCB              Get the MIB address
 USING  MTCB,R7                    15162    1822.              WITH  (MTCB,RY)
 0018CE 5860 C048            00000 15175    1823.              L     RX,@MILUPTR             Pointer to return parm area
 USING  @TERUINF,R6                15176    1824.              WITH  (@TERUINF,RX)
 0018D2 5850 701C            0001C 15189    1825.              L     RK,MTCBSIB
 USING  SIB,R5                     15190    1826.              WITH  (SIB,RK)
                                   15203    1827.     *
                                   15204    1828.     *  For now we just return terminal type
                                   15205    1829.     *
 0018D6 D207 6000 5096 00000 00096 15206    1830.              MVC   @TERUTYP,SIBTID
 0018DC 981F C008            00008 15207    1831.              PEND  ,
 DROP   SIB,R5
 DROP   @TERUINF,R6
 DROP   MTCB,R7
 DROP   ASB,R8
 DROP   @MILUINF-72,R12
 DROP   MILUINF,R10
 0018E0 9680 C000/0B0E 00000       15242             +
1TERMINAL (TERM00) (09:44) (22MAR04) MILTEN Terminal Control - Local                                                        Page  120
0Current Usings:  (PZERO,R0)
0Loc    Object Code    Addr1 Addr2  Stmt Lv Lineno    Source Statement           (Hibal 5, Asmedit 3.3)  HLASM R4.0  2004/03/22 09.44
+___    ______ ____    _____ _____  ____ __ ______    ______ _________
0                                  15249    1833.     *****************************************************************
                                   15250    1834.     *                                                               *
                                   15251    1835.     *  MILLGOF --  This routine loggs the terminal off.             *
                                   15252    1836.     *                                                               *
                                   15253    1837.     *   Input  --  none                                             *
                                   15254    1838.     *                                                               *
                                   15255    1839.     *  Output  --  none                                             *
                                   15256    1840.     *                                                               *
                                   15257    1841.     *****************************************************************
-0018E6                            15259    1843.     MILLGOF  PROC  SCOPE=LOCAL
 0018E6 D4C9D3D3C7D6C640           15266             +
 0018EE 0000/0000                  15267             +
 0018F2 900F D004/18AF       00004 15269             +
 USING  MILLGOF,R10
 0018F8 50D0 C000/18CD       00000 15284             +
 0018FE 9680 C000      00000       15286             +
 001902 41D0 C048            00048 15287             +
 001906 5860 0208            00208 15288    1844.              L     RX,PZCURASB             Get the current ASB address
 00190A 5860 6030            00030 15289    1845.              WITH  (ASB,RX),'L RX,ASBTCCB' Get the MTCB address
 USING  ASB,R6
 DROP   ASB,R6
 USING  MTCB,R6                    15313    1846.              WITH  (MTCB,RX)
                                   15326    1847.     *
                                   15327    1848.     * Fill in the PDB with the EOS
                                   15328    1849.     *
 00190E 5820 6018            00018 15329    1850.              L     RA,MTCBPDB
 USING  PDB,R2                     15330    1851.              WITH  (PDB,RA),BEGIN          PDB addr
 001912                            15344  1 1852.                CLEAR PDB
 001912 D733 2000 2000 00004 00004 15350  1          +
 001918 D201 2000 6004 00004 00004 15351  1 1853.                MVC   PDBLIN#,MTCBLINE        Put in the line number
 00191E 9240 2002      00006       15352  1 1854.                MVI   PDBCMD,TMILEOS          Logoff this user
                                   15353  1 1855.     *
                                   15354  1 1856.     *  Get accounting information
                                   15355  1 1857.     *
 001922 58F0 A21E/0DEF       01B10 15356  1 1858.                ACALL GETCHGS                 Get data
 001928 D203 2018 607C 0001C 0007C 15363  1 1859.                MVC   PDBVCPU,MT1CPUT         Move CPU time to PDB
 00192E D202 201D 6081 00021 00081 15364  1 1860.                MVC   PDBVDIO,MT1DIOCT         and I/O count
                                   15365  1 1861.     *
                                   15366  1 1862.     * Make sure it stays put
                                   15367  1 1863.     *
 USING  @PAGE-72,R13               15368  1 1864.                FIX   PDB,L'PDB               Fix the PDB
 001934 D708 D048 D048 00000 00000 15386  1          +
 00193A 5020 D048            00000 15397  1          +
 00193E 4100 0034            00034 15409  1          +
 001942 5000 D04C            00004 15414  1          +
 001946 58F0 A1C6/0DEF       01AB8 15417  1          +
                                   15419  1 1865.     *
                                   15420  1 1866.     * Set up the parm area
                                   15421  1 1867.     *
 00194C 5830 6020            00020 15422  1 1868.                L     RB,MTCBIOPA             Get the address of the area
 USING  #SCSR,R3                   15423  1 1869.                WITH  (#SCSR,RB),BEGIN
 001950                            15437  2 1870.                  CLEAR #SCSR
1TERMINAL (TERM00) (09:44) (22MAR04) MILTEN Terminal Control - Local                                                        Page  121
0Current Usings:  (PZERO,R0) (PDB,R2) (#SCSR,R3) (MTCB,R6) (MILLGOF,R10) (@PAGE-72,R13)
0Loc    Object Code    Addr1 Addr2  Stmt Lv Lineno    Source Statement           (Hibal 5, Asmedit 3.3)  HLASM R4.0  2004/03/22 09.44
+___    ______ ____    _____ _____  ____ __ ______    ______ _________
0001950 D717 3000 3000 00000 00000 15443  2          +
 001956 5020 D04C            00004 15444  2 1871.                  ADDSG PDB,L'PDB,#SCSR         Add the segment
 DROP   @PAGE-72,R13
 USING  @ADDSEG-72,R13
 00195A 4100 0034            00034 15481  2          +
 00195E 4000 D050            00008 15486  2          +
 001962 5030 D048            00000 15497  2          +
 001966 58F0 A1FE/0DEF       01AF0 15503  2          +
 DROP   #SCSR,R3                   15505  1 1872.                END   ,
 00196C 58F0 A202/0DEF       01AF4 15513  1 1873.                ACALL MILSX                   Send the Transation
 DROP   @ADDSEG-72,R13             15520  1 1874.                UNFIX PDB,L'PDB               Free the PDB
 USING  @PAGE-72,R13
 001972 D708 D048 D048 00000 00000 15541  1          +
 001978 5020 D048            00000 15552  1          +
 00197C 4100 0034            00034 15564  1          +
 001980 5000 D04C            00004 15569  1          +
 001984 58F0 A1F2/0DEF       01AE4 15572  1          +
 DROP   PDB,R2                     15574    1875.              END   ,                       OF PDB addr
                                   15582    1876.     *
                                   15583    1877.     * There is no return from milten on this so we're done
                                   15584    1878.     *
 00198A 981F C008            00008 15585    1879.              PEND  ,
 DROP   MTCB,R6
 DROP   MILLGOF,R10
 00198E 9680 C000/0B0E 00000       15600             +
 DROP   @PAGE-72,R13
1TERMINAL (TERM00) (09:44) (22MAR04) MILTEN Terminal Control - Local                                                        Page  122
0Current Usings:  (PZERO,R0)
0Loc    Object Code    Addr1 Addr2  Stmt Lv Lineno    Source Statement           (Hibal 5, Asmedit 3.3)  HLASM R4.0  2004/03/22 09.44
+___    ______ ____    _____ _____  ____ __ ______    ______ _________
0                                  15610    1881.     *****************************************************************
                                   15611    1882.     *                                                               *
                                   15612    1883.     *  MILSYSR --  This routine is run as a SYSR under the address  *
                                   15613    1884.     *              space where a message recevied in the milten     *
                                   15614    1885.     *              main address space is destined.  It saves the    *
                                   15615    1886.     *              address of the buffer and wakes up the task that *
                                   15616    1887.     *              was waiting for it.                              *
                                   15617    1888.     *                                                               *
                                   15618    1889.     *   Input  --  @SYSRTN                                          *
                                   15619    1890.     *                                                               *
                                   15620    1891.     *  Output  --  none                                             *
                                   15621    1892.     *                                                               *
                                   15622    1893.     *****************************************************************
-000000                00000 00008 15624    1895.     @MSPARM  RECORD BEGIN        Mapping of the SYSR parm area
 000000                            15632  1 1896.     @MSPSYSR   DS    A             ID of the SYSR
 000004                            15633  1 1897.     @MSPTBUF   DS    A             Address of the recevied buffer
 000008                00008 00008 15634    1898.              END   ,
-001994                            15644    1900.     MILSYSR  PROC  @SYSRTN,SCOPE=LOCAL
 001994 D4C9D3E2E8E2D940           15651             +
 00199C 0010/0000                  15652             +
 0019A0 900F D004/18AF       00004 15654             +
 USING  MILSYSR,R10
 0019A6 50D0 C000/18CD       00000 15669             +
 0019AC 9680 C000      00000       15671             +
 USING  @SYSRTN-72,R12
 0019B0 41D0 C058            00058 15685             +
                                   15686    1901.     *
                                   15687    1902.     * Get our bearings
                                   15688    1903.     *
 0019B4 5860 0208            00208 15689    1904.              L     RX,PZCURASB             Get the current ASB
 0019B8 5860 6030            00030 15690    1905.              WITH  (ASB,RX),'L RX,ASBTCCB' Get the MTCB Address
 USING  ASB,R6
 DROP   ASB,R6
 USING  MTCB,R6                    15714    1906.              WITH  (MTCB,RX)
 AUSING (@MSPARM,@SYSPARS)         15727    1907.              WITH  (@MSPARM,@SYSPARS)
                                   15734    1908.     *
                                   15735    1909.     * Free the SYSR
                                   15736    1910.     *
 USING  @SYSRDEL-72,R13            15737    1911.              PSET  @SYSRDEL
 0019BC D703 D048 D048 00000 00000 15754             +
 0019C2 D203 D048 C048 00000 00000 15755    1912.              MVC   @SYSRDID,@MSPSYSR       Move in the ID
 0019C8 58F0 A174/0DEF       01B14 15756    1913.              VCALL SYSRDEL                 Then remove it
                                   15760    1914.     *
                                   15761    1915.     * Get the TBUF sent by the central processing
                                   15762    1916.     *
 0019CE 5820 C04C            00004 15763    1917.              L     RA,@MSPTBUF             And the TBUF addres
                                   15764    1918.     *
                                   15765    1919.     * See if there is someone waiting for this
                                   15766    1920.     *
 0019D2 5810 602C            0002C 15767    1921.              L     RS,MTCBTBUF             Get the current value
1TERMINAL (TERM00) (09:44) (22MAR04) MILTEN Terminal Control - Local                                                        Page  123
0Current Usings:  (PZERO,R0) (MTCB,R6) (MILSYSR,R10) (@SYSRTN-72,R12) (@SYSRDEL-72,R13)
0Loc    Object Code    Addr1 Addr2  Stmt Lv Lineno    Source Statement           (Hibal 5, Asmedit 3.3)  HLASM R4.0  2004/03/22 09.44
+___    ______ ____    _____ _____  ____ __ ______    ______ _________
00019D6 1211/47D0 A06C       01A0C 15768    1922.              IF    (RS,POS),'ABORT MILSEQ' Some kind of sequence error
 0019DC AC04 021B      0021B       15786  1          +
 0019E0 9680 021A      0021A       15792  1          +
 0019E4 50F0 021C            0021C 15793  1          +
 0019E8 58F0 0210            00210 15794  1          +
 0019EC 89F0 0010            00010 15795  1          +
 0019F0 88F0 0010            00010 15796  1          +
 0019F4 41F0 F000            00000 15797  1          +
 0019F8 AEFF 0006            00006 15798  1          +
 0019FC D4C9D3E2C5D84040           15799             +
 001A0C 5020 602C            0002C 15804    1923.              ST    RA,MTCBTBUF             Save this buffer address
 001A10 1211/47B0 A088       01A28 15805    1924.              IF    (RS,NEG),BEGIN          Someone is waiting
 DROP   @SYSRDEL-72,R13            15819  1 1925.                PSET  @RESUME
 USING  @RESUME-72,R13
 001A16 D707 D048 D048 00000 00000 15839  1          +
 001A1C D207 D048 6030 00000 00030 15840  1 1926.                MVC   @RESCTL,MTCBTKID        Move in the info
 001A22 58F0 A178/0DEF       01B18 15841  1 1927.                VCALL RESUMTS                 Resume the waiting task
 001A28                            15845    1928.              END   ,
 001A28 981F C008            00008 15849    1929.              PEND  ,
 DROP   MTCB,R6
 DROP   @SYSRTN-72,R12
 DROP   MILSYSR,R10
 001A2C 9680 C000/0B0E 00000       15869             +
 DROP   @RESUME-72,R13
1TERMINAL (TERM00) (09:44) (22MAR04) MILTEN Terminal Control - Local                                                        Page  124
0Current Usings:  (PZERO,R0)
0Loc    Object Code    Addr1 Addr2  Stmt Lv Lineno    Source Statement           (Hibal 5, Asmedit 3.3)  HLASM R4.0  2004/03/22 09.44
+___    ______ ____    _____ _____  ____ __ ______    ______ _________
0                                  15879    1931.     *****************************************************************
                                   15880    1932.     *                                                               *
                                   15881    1933.     *  MILASYN --  This routine is run as a SYSR under the address  *
                                   15882    1934.     *              space whose terminal has received asynchronous   *
                                   15883    1935.     *              status from MILTEN.  It takes care of the status *
                                   15884    1936.     *              and frees the SYSR ID.                           *
                                   15885    1937.     *                                                               *
                                   15886    1938.     *   Input  --  @SYSRTN                                          *
                                   15887    1939.     *                                                               *
                                   15888    1940.     *  Output  --  none                                             *
                                   15889    1941.     *                                                               *
                                   15890    1942.     *****************************************************************
-000000                00000 00005 15892    1944.     @MAPARM  RECORD BEGIN        Mapping of the SYSR parm area
 000000                            15900  1 1945.     @MAPSYSR   DS    A             ID of the current SYSR
 000004                            15901  1 1946.     @MAPCPLB   DS    X             Asynchronous completion flags
 000005                00005 00005 15902    1947.              END   ,
-001A32                            15912    1949.     MILASYN  PROC  @SYSRTN,SCOPE=LOCAL
 001A32 D4C9D3C1E2E8D540           15919             +
 001A3A 0010/0000                  15920             +
 001A3E 900F D004/18AF       00004 15922             +
 USING  MILASYN,R10
 001A44 50D0 C000/18CD       00000 15937             +
 001A4A 9680 C000      00000       15939             +
 USING  @SYSRTN-72,R12
 001A4E 41D0 C058            00058 15953             +
                                   15954    1950.     *
                                   15955    1951.     * Get our bearings
                                   15956    1952.     *
 001A52 5860 0208            00208 15957    1953.              L     RX,PZCURASB             Get the current ASB
 001A56 5860 6030            00030 15958    1954.              WITH  (ASB,RX),'L RX,ASBTCCB' Get the MTCB address
 USING  ASB,R6
 DROP   ASB,R6
 USING  MTCB,R6                    15982    1955.              WITH  (MTCB,RX)
 AUSING (@MAPARM,@SYSPARS)         15995    1956.              WITH  (@MAPARM,@SYSPARS)
                                   16002    1957.     *
                                   16003    1958.     * Free the current SYSR
                                   16004    1959.     *
 USING  @SYSRDEL-72,R13            16005    1960.              PSET  @SYSRDEL
 001A5A D703 D048 D048 00000 00000 16022             +
 001A60 D203 D048 C048 00000 00000 16023    1961.              MVC   @SYSRDID,@MAPSYSR       Move in the ID
 001A66 58F0 A0D6/0DEF       01B14 16024    1962.              VCALL SYSRDEL                 Delete that SYSR
                                   16028    1963.     *
                                   16029    1964.     * Take care of the completion status
                                   16030    1965.     *
 001A6C 9120 C04C      00004       16031    1966.              IF    @MAPCPLB.CPLBIA,BEGIN   Idle attention
 001A70 47E0 A048            01A86 16042             +
 001A74 BF11 6070            00070 16047  1 1967.                INCR  RS,MT1IACT              Update the count
 001A78 4110 1001            00001 16051  1          +
 001A7C BE11 6070            00070 16052  1          +
 001A80 58F0 A0DE/0DEF       01B1C 16053  1 1968.                ACALL M1ATTN                  Call the mode 1 Attn handler
1TERMINAL (TERM00) (09:44) (22MAR04) MILTEN Terminal Control - Local                                                        Page  125
0Current Usings:  (PZERO,R0) (MTCB,R6) (MILASYN,R10) (@SYSRTN-72,R12) (@SYSRDEL-72,R13)
0Loc    Object Code    Addr1 Addr2  Stmt Lv Lineno    Source Statement           (Hibal 5, Asmedit 3.3)  HLASM R4.0  2004/03/22 09.44
+___    ______ ____    _____ _____  ____ __ ______    ______ _________
0001A86                            16060    1969.              END   ,
 001A86 9180 C04C      00004       16064    1970.              IF    @MAPCPLB.CPLBLGF,BEGIN  Hangup
 001A8A 47E0 A056            01A94 16075             +
 001A8E 58F0 A0E2/0DEF       01B20 16080  1 1971.                ACALL M1LOGOFF
 001A94                            16087    1972.              END   ,
 001A94 981F C008            00008 16091    1973.              PEND  ,
 DROP   MTCB,R6
 DROP   @SYSRTN-72,R12
 DROP   MILASYN,R10
 001A98 9680 C000/0B0E 00000       16111             +
 DROP   @SYSRDEL-72,R13
1TERMINAL (TERM00) (09:44) (22MAR04) MILTEN Terminal Control - Local                                                        Page  126
0Current Usings:  (PZERO,R0)
0Loc    Object Code    Addr1 Addr2  Stmt Lv Lineno    Source Statement           (Hibal 5, Asmedit 3.3)  HLASM R4.0  2004/03/22 09.44
+___    ______ ____    _____ _____  ____ __ ______    ______ _________
0001AA0                            16121    1975.              LTORG ,
 001AA0 00000000                   16123                             =V(VMGET)
 001AA4 E3C2E4C6                   16124                             =C'TBUF'
 001AA8 00000000                   16125                             =V(VMFREE)
 001AAC 7FFFF000                   16126                             =X'7FFFF000'
 001AB0 0000000C                   16127                             =A(#SCCSEND)
 001AB4 00000000                   16128                             =V(IOSIDGET)
 001AB8 00000000                   16129                             =V(PAGFIX)
 001ABC 00000000                   16130                             =V(IOSDOIO)
 001AC0 00000000                   16131                             =A(#SCESOK)
 001AC4 0000000C                   16132                             =A(#SCESFQ)
 001AC8 00000000                   16133                             =V(LKOB)
 001ACC 00000000                   16134                             =V(LKREL)
 001AD0 00000000                   16135                             =V(ASLOCK)
 001AD4 D4C6D8C5                   16136                             =C'MFQE'
 001AD8 00000000                   16137                             =V(SUSPEND)
 001ADC 00000000                   16138                             =V(ASULOCK)
 001AE0 00000000                   16139                             =V(DISPRD)
 001AE4 00000000                   16140                             =V(PAGUFIX)
 001AE8 00000000                   16141                             =V(IOSIDFRE)
 001AEC 80000000                   16142                             =X'80000000'
 001AF0 000010B6                   16143                             =A(ADDSEG)
 001AF4 00001178                   16144                             =A(MILSX)
 001AF8 0000137A                   16145                             =A(MILRX)
 001AFC 00000FAA                   16146                             =A(FREETBUF)
 001B00 00000000                   16147                             =V(ACLOGON)
 001B04 D4E3C3C2                   16148                             =C'MTCB'
 001B08 00000000                   16149                             =V(XITNEW)
 001B0C 00001436                   16150                             =A(CURSIB)
 001B10 0000413E                   16151                             =A(GETCHGS)
 001B14 00000000                   16152                             =V(SYSRDEL)
 001B18 00000000                   16153                             =V(RESUMTS)
 001B1C 00003FF8                   16154                             =A(M1ATTN)
 001B20 00004054                   16155                             =A(M1LOGOFF)
 001B24 3B00                       16156                             =Y(59*256+0)
 001B26 0010                       16157                             =Y(L'TBUF)
 001B28 1000                       16158                             =Y(4096)
 001B2A D5C5E6E2C9C2               16159                             =C'NEWSIB'
 001B30 1F00                       16160                             =Y(31*256+0)
 001B32 D4C9D3C9C1E2               16161                             =C'MILIAS'
 001B38 1B00           01B3A 042AF 16162                             =Y(27*256+0)
1TERMINAL (TERM00) (09:44) (22MAR04) Mode 1 Control Blocks (MILTEN)                                                         Page  127
0Current Usings:  (PZERO,R0)
0Loc    Object Code    Addr1 Addr2  Stmt Lv Lineno    Source Statement           (Hibal 5, Asmedit 3.3)  HLASM R4.0  2004/03/22 09.44
+___    ______ ____    _____ _____  ____ __ ______    ______ _________
0                                  16167    1977.     *
                                   16168    1978.     *   M1IO -- Parm area for the Mode 1 I/O requests
                                   16169    1979.     *
0000000                00000 0000D 16171    1981.     @M1IO    RECORD BEGIN
 000000                            16179  1 1982.     @M1IOR01   DS    A             Register 1
 000004                            16180  1 1983.     @M1IOR14   DS    A             Register 14
 000008                            16181  1 1984.     @M1IOR15   DS    A             Register 15
 00000C 00                         16182  1 1985.     @M1IOFLG   FLAG  ,             Mode flags
 @M1IOFLG.@M1IODIS 80 ONES         16186  1 1986.                FLAG  @M1IODIS       Display mode for terminal
 @M1IOFLG.@M1IOM31 40 ONES         16191  1 1987.                FLAG  @M1IOM31       User wants 31 bit mode
 00000D                0000D 0000D 16196    1988.              END   ,
-                                  16206    1990.     *
                                   16207    1991.     * Parm are for Validating addresses
                                   16208    1992.     *
0000000                00000 00008 16210    1994.     @VALBUF  RECORD BEGIN
 000000                            16218  1 1995.     @VALBLOC   DS    A             Location of the buffer
 000004                            16219  1 1996.     @VALBLEN   DS    H             Length of the buffer
 000006                            16220  1 1997.     @VALBKEY   DS    X             Key under which to check buffers
 000007 00                         16221  1 1998.     @VALBFL    FLAG  ,
 @VALBFL.@VALBWRT  80 ONES         16225  1 1999.                FLAG  @VALBWRT      Need write access to the buffer
 000008                00008 00008 16230    2000.              END   ,
1TERMINAL (TERM00) (09:44) (22MAR04) Mode 1 Terminal Interface (MILTEN)                                                     Page  128
0Current Usings:  (PZERO,R0)
0Loc    Object Code    Addr1 Addr2  Stmt Lv Lineno    Source Statement           (Hibal 5, Asmedit 3.3)  HLASM R4.0  2004/03/22 09.44
+___    ______ ____    _____ _____  ____ __ ______    ______ _________
0                                  16241    2003.     *****************************************************************
                                   16242    2004.     *                                                               *
                                   16243    2005.     *   M1TERM --  This is the main entry point for the MODE 1      *
                                   16244    2006.     *              terminal interface.  It is called directly from  *
                                   16245    2007.     *              the SVC handler.  It shedules another task to    *
                                   16246    2008.     *              do part of the I/O if it cannot be done right    *
                                   16247    2009.     *              away.                                            *
                                   16248    2010.     *                                                               *
                                   16249    2011.     *   Input  --  @M1TERM                                          *
                                   16250    2012.     *                                                               *
                                   16251    2013.     *  Output  --  none                                             *
                                   16252    2014.     *                                                               *
                                   16253    2015.     *****************************************************************
-001B3A                            16255    2017.     M1TERM   PROC  @M1TERM,SCOPE=GLOBAL
 001B3A D4F1E3C5D9D44040           16261             +
 001B42 0020/0000                  16262             +
 001B46 900F D004/18AF       00004 16264             +
 USING  M1TERM,R10
 001B4C 50D0 C000/18CD       00000 16279             +
 001B52 9680 C000      00000       16281             +
 USING  @M1TERM-72,R12
 001B56 41D0 C068            00068 16295             +
                                   16296    2018.     *
                                   16297    2019.     * Get our bearings
                                   16298    2020.     *
 001B5A 5860 0208            00208 16299    2021.              L     RX,PZCURASB             Get the current ASB address
 001B5E 5860 6030            00030 16300    2022.              WITH  (ASB,RX),'L RX,ASBTCCB' Get the MTCB address
 USING  ASB,R6
 DROP   ASB,R6
 001B62                            16324    2023.              IF    (@RX,NE,'MTCB'),'ABORT M1NOTMIL'
 001B62 D503 A8B2 6000 023F8 00000 16334             +
 001B68 4780 A056            01B9C 16335             +
 001B6C AC04 021B      0021B       16344  1          +
 001B70 9680 021A      0021A       16350  1          +
 001B74 50F0 021C            0021C 16351  1          +
 001B78 58F0 0210            00210 16352  1          +
 001B7C 89F0 0010            00010 16353  1          +
 001B80 88F0 0010            00010 16354  1          +
 001B84 41F0 F000            00000 16355  1          +
 001B88 AEFF 0006            00006 16356  1          +
 001B8C D4F1D5D6E3D4C9D3           16357             +
 USING  MTCB,R6                    16362    2024.              WITH  (MTCB,RX)
                                   16375    2025.     *
                                   16376    2026.     * Save the program information
                                   16377    2027.     *
 001B9C D203 606C 020C 0006C 0020C 16378    2028.              MVC   MT1ATSK,PZCURTSK        Save the Attention task
 001BA2 D207 6074 C058 00074 00010 16379    2029.              MVC   MT1PGM,@M1TPGM          Program name
 001BA8 D200 6080 C060 00080 00018 16380    2030.              MVC   MT1PFLG,@M1TFLG         Move in the flags
 001BAE 58F0 A8B6/0DEF       023FC 16381    2031.              ACALL GETCHGS                 Get the session charges
                                   16388    2032.     *
                                   16389    2033.     * Save info for the returns
                                   16390    2034.     *
1TERMINAL (TERM00) (09:44) (22MAR04) Mode 1 Terminal Interface (MILTEN)                                                     Page  129
0Current Usings:  (PZERO,R0) (MTCB,R6) (M1TERM,R10) (@M1TERM-72,R12)
0Loc    Object Code    Addr1 Addr2  Stmt Lv Lineno    Source Statement           (Hibal 5, Asmedit 3.3)  HLASM R4.0  2004/03/22 09.44
+___    ______ ____    _____ _____  ____ __ ______    ______ _________
0001BB4 D203 6048 020C 00048 0020C 16391    2035.              MVC   MT1RQTK,PZCURTSK        Copy the Task information
 001BBA D200 6072 C061 00072 00019 16392    2036.              MVC   MT1RKEY,@M1TPKEY        Protection key of requestor
 001BC0 D203 604C C054 0004C 0000C 16393    2037.              MVC   MT1RQID,@M1TRQID        Copy the request ID
 001BC6 D203 6050 A8BA 00050 02400 16394    2038.              MVC   MT1WR01,=X'80000000'    Default the return value
 001BCC D203 6054 A8BA 00054 02400 16395    2039.              MVC   MT1WR14,=X'80000000'    Default the return value
 001BD2 D203 6058 A8BA 00058 02400 16396    2040.              MVC   MT1WR15,=X'80000000'    Default the return value
                                   16397    2041.     *
                                   16398    2042.     * Figure out what we have and who to call do handle the request
                                   16399    2043.     *
 001BD8 950C C062      0001A       16400    2044.              IF    @M1TCNTL,BEGIN          It is a control function
 001BDC 4770 A0BC            01C02 16410             +
 USING  @M1IO-72,R13               16415  1 2045.                PSET  @M1IO
 001BE0 D70C D048 D048 00000 00000 16432  1          +
 001BE6 9120 C060      00018       16433  1 2046.                IF    @M1TFM31,'SET @M1IOM31'
 001BEA 47E0 A0AC            01BF2 16443  1          +
 001BEE 9640 D054      0000C       16454  1          +
 001BF2 D20B D048 C048 00000 00000 16459  1 2047.                MVC   @M1IOR01(3*4),@M1TR01   Copy the registers
 001BF8 58F0 A8BE/0DEF       02404 16460  1 2048.                ACALL CNTRL                   Do the control operation
 001BFE 47F0 A1BA            01D00 16467  1 2049.                B     M1TDONE                 Then return to the caller
 001C02                            16468    2050.              END
                                   16472    2051.     *
                                   16473    2052.     * Halt
                                   16474    2053.     *
 001C02 9510 C062      0001A       16475    2054.              IF    @M1THALT,BEGIN
 001C06 4770 A0CE            01C14 16485             +
 001C0A 58F0 A8C2/0DEF       02408 16490  1 2055.                ACALL HALT                    Do the halt
 001C10 47F0 A1BA            01D00 16497  1 2056.                B     M1TDONE                 Return to caller
 001C14                            16498    2057.              END   ,
1TERMINAL (TERM00) (09:44) (22MAR04) Mode 1 Terminal Interface (MILTEN)                                                     Page  130
0Current Usings:  (PZERO,R0) (MTCB,R6) (M1TERM,R10) (@M1TERM-72,R12) (@M1IO-72,R13)
0Loc    Object Code    Addr1 Addr2  Stmt Lv Lineno    Source Statement           (Hibal 5, Asmedit 3.3)  HLASM R4.0  2004/03/22 09.44
+___    ______ ____    _____ _____  ____ __ ______    ______ _________
0                                  16503    2059.     *
                                   16504    2060.     * Read
                                   16505    2061.     *
 001C14 9504 C062      0001A       16506    2062.              IF    @M1TREAD,BEGIN
 001C18 4770 A144            01C8A 16516             +
 001C1C                            16521  1 2063.                PSET  @M1IO                   All routines take this parm
 001C1C D70C D048 D048 00000 00000 16531  1          +
 001C22 9120 C060      00018       16532  1 2064.                IF    @M1TFM31,'SET @M1IOM31'
 001C26 47E0 A0E8            01C2E 16542  1          +
 001C2A 9640 D054      0000C       16553  1          +
 001C2E 9813 C048            00000 16558  1 2065.                LM    RS,RB,@M1TR01           Get all the registers
 001C32 1211/47B0 A10E       01C54 16559  1 2066.                IF    (RS,NEG),BEGIN          It must be a read text
 001C38 1311                       16573  2 2067.                  LCR   RS,RS                   Fix the value
 001C3A 1222/4740 A1B6       01CFC 16574  2 2068.                  IF    ((RA,NEG),OR,(RB,NEG)),M1TSPEC
 001C40 1233/4740 A1B6       01CFC 16595  2          +
 001C46 9013 D048            00000 16604  2 2069.                  STM   RS,RB,@M1IOR01          Save the registers
 001C4A 58F0 A8C6/0DEF       0240C 16605  2 2070.                  ACALL RDTEXT                  Go do a read text
 001C50 47F0 A1BA            01D00 16612  2 2071.                  B     M1TDONE                 Then return to the caller
 001C54                            16613  1 2072.                END   ,
                                   16617  1 2073.     *
                                   16618  1 2074.     * Not a read text, check for read edit
                                   16619  1 2075.     *
 001C54 1233/47B0 A12A       01C70 16620  1 2076.                IF    (RB,NEG),BEGIN          Read edit (R15 Neg)
 001C5A 1333                       16634  2 2077.                  LCR   RB,RB                   Fix the register up
 001C5C 1222/4740 A1B6       01CFC 16635  2 2078.                  IF    (RA,NEG),M1TSPEC        Spec erorr for bad mode
 001C62 9013 D048            00000 16652  2 2079.                  STM   RS,RB,@M1IOR01          Save the registers
 001C66 58F0 A8CA/0DEF       02410 16653  2 2080.                  ACALL RDEDIT                  Do a read edit
 001C6C 47F0 A1BA            01D00 16660  2 2081.                  B     M1TDONE                 Then return
 001C70                            16661  1 2082.                END   ,
                                   16665  1 2083.     *
                                   16666  1 2084.     * It must be a read terminal
                                   16667  1 2085.     *
 001C70 1222/47B0 A136       01C7C 16668  1 2086.                IF    (RA,NEG),BEGIN          Check R14
 001C76 9680 D054      0000C       16682  2 2087.                  SET   @M1IODIS                Set display mode
 001C7A 1322                       16688  2 2088.                  LCR   RA,RA
 001C7C                            16689  1 2089.                END   ,
 001C7C 9013 D048            00000 16693  1 2090.                STM   RS,RB,@M1IOR01          Save the registers
 001C80 58F0 A8CE/0DEF       02414 16694  1 2091.                ACALL RDTERM                  Then read from the terminal
 001C86 47F0 A1BA            01D00 16701  1 2092.                B     M1TDONE                 Then return to the caller
 001C8A                            16702    2093.              END   ,
1TERMINAL (TERM00) (09:44) (22MAR04) Mode 1 Terminal Interface (MILTEN)                                                     Page  131
0Current Usings:  (PZERO,R0) (MTCB,R6) (M1TERM,R10) (@M1TERM-72,R12) (@M1IO-72,R13)
0Loc    Object Code    Addr1 Addr2  Stmt Lv Lineno    Source Statement           (Hibal 5, Asmedit 3.3)  HLASM R4.0  2004/03/22 09.44
+___    ______ ____    _____ _____  ____ __ ______    ______ _________
0                                  16707    2095.     *
                                   16708    2096.     * Write
                                   16709    2097.     *
 001C8A 9508 C062      0001A       16710    2098.              IF    @M1TWRIT,BEGIN
 001C8E 4770 A1B6            01CFC 16720             +
 001C92                            16725  1 2099.                PSET  @M1IO                   All routines take this parm
 001C92 D70C D048 D048 00000 00000 16735  1          +
 001C98 9120 C060      00018       16736  1 2100.                IF    @M1TFM31,'SET @M1IOM31'
 001C9C 47E0 A15E            01CA4 16746  1          +
 001CA0 9640 D054      0000C       16757  1          +
 001CA4 9813 C048            00000 16762  1 2101.                LM    RS,RB,@M1TR01           Get all the registers
                                   16763  1 2102.     *
                                   16764  1 2103.     * Check for mode text
                                   16765  1 2104.     *
 001CA8 1211/47B0 A17E       01CC4 16766  1 2105.                IF    ((RS,M),AND,(RB,NM)),BEGIN        Write text
 001CAE 1233/4740 A17E       01CC4 16787  1          +
 001CB4 1311                       16793  2 2106.                  LCR   RS,RS                   Fix up the Register
 001CB6 9013 D048            00000 16794  2 2107.                  STM   RS,RB,@M1IOR01          Save the registers
 001CBA 58F0 A8D2/0DEF       02418 16795  2 2108.                  ACALL WRTEXT                  Do the write text
 001CC0 47F0 A1BA            01D00 16802  2 2109.                  B     M1TDONE                 all done here
 001CC4                            16803  1 2110.                END   ,
                                   16807  1 2111.     *
                                   16808  1 2112.     * Check for mode edit
                                   16809  1 2113.     *
 001CC4 1211/4740 A19A       01CE0 16810  1 2114.                IF    ((RS,NM),AND,(RB,M)),BEGIN        Write edit
 001CCA 1233/47B0 A19A       01CE0 16831  1          +
 001CD0 1333                       16837  2 2115.                  LCR   RB,RB                   Fix up the register
 001CD2 9013 D048            00000 16838  2 2116.                  STM   RS,RB,@M1IOR01          Save the registers
 001CD6 58F0 A8D6/0DEF       0241C 16839  2 2117.                  ACALL WREDIT                  Go write edit
 001CDC 47F0 A1BA            01D00 16846  2 2118.                  B     M1TDONE                 Then return
 001CE0                            16847  1 2119.                END   ,
                                   16851  1 2120.     *
                                   16852  1 2121.     * It must be a terminal write
                                   16853  1 2122.     *
 001CE0 1211/47B0 A1A8       01CEE 16854  1 2123.                IF    (RS,M),BEGIN
 001CE6 9680 D054      0000C       16868  2 2124.                  SET   @M1IODIS                Set the display mode bit
 001CEA 1311                       16874  2 2125.                  LCR   RS,RS                   Fixup the registers
 001CEC 1333                       16875  2 2126.                  LCR   RB,RB
 001CEE                            16876  1 2127.                END   ,
 001CEE 9013 D048            00000 16880  1 2128.                STM   RS,RB,@M1IOR01          Save the registers
 001CF2 58F0 A8DA/0DEF       02420 16881  1 2129.                ACALL WRTERM                  Go write on the terminal
 001CF8 47F0 A1BA            01D00 16888  1 2130.                B     M1TDONE                 Then we're done here
 001CFC                            16889    2131.              END   ,
                                   16893    2132.     *
                                   16894    2133.     * If anything bad is found at this early stage we signal a spec error
                                   16895    2134.     *
 001CFC 4100 0006            00006 16896    2135.     M1TSPEC  LA    RVR,6                   Signal a SPEC error
                                   16897    2136.     *
                                   16898    2137.     * R15 is always zero on SVC return
                                   16899    2138.     *
 001D00                            16900    2139.     M1TDONE  CLEAR @M1TR15                 Clear that register
 001D00 D703 C050 C050 00008 00008 16907             +
 001D06 981F C008            00008 16908    2140.              PEND
 DROP   MTCB,R6
1TERMINAL (TERM00) (09:44) (22MAR04) Mode 1 Terminal Interface (MILTEN)                                                     Page  132
0Current Usings:  (PZERO,R0) (@M1IO-72,R13)
0Loc    Object Code    Addr1 Addr2  Stmt Lv Lineno    Source Statement           (Hibal 5, Asmedit 3.3)  HLASM R4.0  2004/03/22 09.44
+___    ______ ____    _____ _____  ____ __ ______    ______ _________
0DROP   @M1TERM-72,R12
 DROP   M1TERM,R10
 001D0A 9680 C000/0B0E 00000       16928             +
 DROP   @M1IO-72,R13
1TERMINAL (TERM00) (09:44) (22MAR04) Mode 1 Terminal Interface (MILTEN)                                                     Page  133
0Current Usings:  (PZERO,R0)
0Loc    Object Code    Addr1 Addr2  Stmt Lv Lineno    Source Statement           (Hibal 5, Asmedit 3.3)  HLASM R4.0  2004/03/22 09.44
+___    ______ ____    _____ _____  ____ __ ______    ______ _________
0                                  16938    2142.     *****************************************************************
                                   16939    2143.     *                                                               *
                                   16940    2144.     *   RDTERM --  Do a Mode 1 terminal I/O.                        *
                                   16941    2145.     *                                                               *
                                   16942    2146.     *   Input  --  @M1IO                                            *
                                   16943    2147.     *                                                               *
                                   16944    2148.     *  Output  --  none                                             *
                                   16945    2149.     *                                                               *
                                   16946    2150.     *****************************************************************
-000000                00000 0000D 16948    2152.     RTWA     RECORD BEGIN
 000000                            16956  1 2153.     RTOLOC     DS    A             Location of the output buffer
 000004                            16957  1 2154.     RTILOC     DS    A             Location of the input buffer
 000008                            16958  1 2155.     RTOLEN     DS    H             Length of the output buffer
 00000A                            16959  1 2156.     RTWLEN     DS    H             Length of the write data in the OBUF
 00000C                            16960  1 2157.     RTFLGS     DS    X             Write flags (display mode)
 00000D                0000D 0000D 16961    2158.              END   ,
-001D10                            16971    2160.     RDTERM   PROC  @M1IO,RTWA,SCOPE=LOCAL
 001D10 D9C4E3C5D9D44040           16978             +
 001D18 0010/0010                  16979             +
 001D1C 900F D004/18AF       00004 16981             +
 USING  RDTERM,R10
 001D22 50D0 C000/18CD       00000 16996             +
 001D28 9680 C000      00000       16998             +
 USING  @M1IO-72,R12
 AUSING (RTWA,@M1IO+16)
 001D2C 41D0 C068            00068 17017             +
                                   17018    2161.     *
                                   17019    2162.     * Find our control blocks
                                   17020    2163.     *
 001D30 5860 0208            00208 17021    2164.              L     RX,PZCURASB             Get the current ASB address
 001D34 5860 6030            00030 17022    2165.              WITH  (ASB,RX),'L RX,ASBTCCB' Get the MTCB address
 USING  ASB,R6
 DROP   ASB,R6
 USING  MTCB,R6                    17046    2166.              WITH  (MTCB,RX)
 001D38                            17059    2167.              CLEAR RTWA                    Zero the local work area
 001D38 D70C C058 C058 00000 00000 17065             +
                                   17066    2168.     *
                                   17067    2169.     * Enforce 24 bit addressing
                                   17068    2170.     *
 001D3E 9140 C054      0000C       17069    2171.              IF    ~@M1IOM31,BEGIN
 001D42 4710 A032            01D4E 17079             +
 001D46 9200 C048      00000       17084  1 2172.                MVI   @M1IOR01,0              Clear high byte
 001D4A 9200 C04C      00004       17085  1 2173.                MVI   @M1IOR14,0              Ditto
 001D4E                            17086    2174.              END   ,
                                   17090    2175.     *
                                   17091    2176.     * Validate the input buffer
                                   17092    2177.     *
 001D4E 5840 C048            00000 17093    2178.              L     RJ,@M1IOR01             Get the input buffer
 001D52 4850 C052            0000A 17094    2179.              LH    RK,@M1IOR15+2           And the input length
 001D56 1255/47D0 A372       0208E 17095    2180.              IF    (RK,NP),RDTSPEC         Bad length
1TERMINAL (TERM00) (09:44) (22MAR04) Mode 1 Terminal Interface (MILTEN)                                                     Page  134
0Current Usings:  (PZERO,R0) (MTCB,R6) (RDTERM,R10) (@M1IO-72,R12)
0Loc    Object Code    Addr1 Addr2  Stmt Lv Lineno    Source Statement           (Hibal 5, Asmedit 3.3)  HLASM R4.0  2004/03/22 09.44
+___    ______ ____    _____ _____  ____ __ ______    ______ _________
0                                  17112    2181.     *oldlim: IF    @M1IODIS,BEGIN          Display mode length check
 001D5C 5950 A708            02424 17113    2182.              IF    (RK,GT,8192),RDTSPEC    Must be less than 8192
 001D60 4720 A372            0208E 17127             +
                                   17133    2183.     *oldlim: END   ELSE,'CEIL RK,256'      Maximum line input size
 USING  @VALBUF-72,R13             17134    2184.              VALBUF (RJ),(RK),MT1RKEY,W    Check out the input buffer
 001D64 D707 D048 D048 00000 00000 17152             +
 001D6A 5040 D048            00000 17162             +
 001D6E 4050 D04C/1F00       00004 17172             +
 001D74 4300 6072            00072 17184             +
 001D78 4200 D04E            00006 17190             +
 001D7C 9680 D04F      00007       17196             +
 001D80 58F0 A70C/0DEF       02428 17202             +
 001D86 1200/4770 A376       02092 17204    2185.              IF    (RVR,NZ),EXIT           Some access exception
 001D8C 5040 605C            0005C 17221    2186.              ST    RJ,MT1IBLOC             Save the buffer location
 001D90 4050 6060            00060 17222    2187.              STH   RK,MT1IBLEN             And the length
                                   17223    2188.     *
                                   17224    2189.     * Check out the timeout value
                                   17225    2190.     *
 001D94 4810 C050            00008 17226    2191.              LH    RS,@M1IOR15             Get the timeout value
 001D98 1211/4740 A372       0208E 17227    2192.              IF    ((RS,M),OR,(RS,GT,6000)),RDTSPEC  Bad timeout value
 001D9E 5910 A710            0242C 17251             +
 001DA2 4720 A372            0208E 17254             +
 001DA6 5010 6064            00064 17260    2193.              ST    RS,MT1TIMO              Save the timeout value
                                   17261    2194.     *
                                   17262    2195.     * Check out the output buffer
                                   17263    2196.     *
 001DAA 5840 C04C            00004 17264    2197.              L     RJ,@M1IOR14             Get the output buffer location
                                   17265    2198.     *
                                   17266    2199.     * Display mode buffer...
                                   17267    2200.     *
 001DAE 9180 C054      0000C       17268    2201.              IF    @M1IODIS,BEGIN          Display mode
 001DB2 47E0 A118            01E34 17278             +
 001DB6 1244/4780 A372       0208E 17283  1 2202.                IF    (RJ,Z),RDTSPEC          Must have flags at least
 001DBC                            17300  1 2203.                VALBUF (RJ),LA:4,MT1RKEY      See if we can read it
 001DBC D707 D048 D048 00000 00000 17311  1          +
 001DC2 5040 D048            00000 17321  1          +
 001DC6 4100 0004            00004 17333  1          +
 001DCA 4000 D04C/1F00       00004 17338  1          +
 001DD0 4300 6072            00072 17350  1          +
 001DD4 4200 D04E            00006 17356  1          +
 001DD8 58F0 A70C/0DEF       02428 17362  1          +
 001DDE 1200/4770 A376       02092 17364  1 2204.                IF    (RVR,NZ),EXIT,RDTERM    Some access exception
 001DE4 D200 C064 4001 0000C 00001 17381  1 2205.                MVC   RTFLGS,@RJ+1            Move in the flags
 001DEA 4810 4002            00002 17382  1 2206.                LH    RS,@RJ+2                Get the length
 001DEE 5910 A708            02424 17383  1 2207.                IF    (RS,GT,8192),RDTSPEC    Maximum length
 001DF2 4720 A372            0208E 17397  1          +
 001DF6 4010 C060            00008 17403  1 2208.                STH   RS,RTOLEN               Save the length
                                   17404  1 2209.     *
                                   17405  1 2210.     * If there is some output data, we ensure that we can read it
                                   17406  1 2211.     *
 001DFA 1211/4780 A118       01E34 17407  1 2212.                IF    (RS,NZ),BEGIN           There is some there
 001E00 5910 A714            02430 17421  2 2213.                  IF    (RS,LT,6),RDTSPEC       Must be at least 6 bytes
 001E04 4740 A372            0208E 17435  2          +
 001E08 4140 4004            00004 17441  2 2214.                  LA    RJ,@RJ+4                Point at the buffer
1TERMINAL (TERM00) (09:44) (22MAR04) Mode 1 Terminal Interface (MILTEN)                                                     Page  135
0Current Usings:  (PZERO,R0) (MTCB,R6) (RDTERM,R10) (@M1IO-72,R12) (@VALBUF-72,R13)
0Loc    Object Code    Addr1 Addr2  Stmt Lv Lineno    Source Statement           (Hibal 5, Asmedit 3.3)  HLASM R4.0  2004/03/22 09.44
+___    ______ ____    _____ _____  ____ __ ______    ______ _________
0001E0C 5040 C058            00000 17442  2 2215.                  ST    RJ,RTOLOC               Save the output buffer address
 001E10                            17443  2 2216.                  VALBUF (RJ),(RS),MT1RKEY      Can we read it?
 001E10 D707 D048 D048 00000 00000 17454  2          +
 001E16 5040 D048            00000 17464  2          +
 001E1A 4010 D04C/1F00       00004 17474  2          +
 001E20 4300 6072            00072 17486  2          +
 001E24 4200 D04E            00006 17492  2          +
 001E28 58F0 A70C/0DEF       02428 17498  2          +
 001E2E 1200/4770 A376       02092 17500  2 2217.                  IF    (RVR,NZ),EXIT,RDTERM    Some access exception
 001E34                            17517  1 2218.                END   ,
 001E34 A11C           01E34 01DB4 17521    2219.              END   ELSE,BEGIN
 001E34 47F0 A1B4            01ED0 17530             +
                                   17536  1 2220.     *
                                   17537  1 2221.     * Non-display mode output buffer...
                                   17538  1 2222.     *
 001E38 1244/4770 A12E       01E4A 17539  1 2223.                IF    (RJ,Z),BEGIN            No output data at all
 001E3E                            17553  2 2224.                  CLEAR RTWLEN                  Zero write length
 001E3E D701 C062 C062 0000A 0000A 17559  2          +
 001E44                            17560  2 2225.                  CLEAR RTOLEN                  And the total output length
 001E44 D701 C060 C060 00008 00008 17566  2          +
 001E4A A132           01E4A 01E3C 17567  1 2226.                END   ELSE,BEGIN
 001E4A 47F0 A1B4            01ED0 17576  1          +
 001E4E                            17582  2 2227.                  VALBUF (RJ),LA:4,MT1RKEY      We check the count bytes
 001E4E D707 D048 D048 00000 00000 17593  2          +
 001E54 5040 D048            00000 17603  2          +
 001E58 4100 0004            00004 17615  2          +
 001E5C 4000 D04C/1F00       00004 17620  2          +
 001E62 4300 6072            00072 17632  2          +
 001E66 4200 D04E            00006 17638  2          +
 001E6A 58F0 A70C/0DEF       02428 17644  2          +
 001E70 1200/4770 A376       02092 17646  2 2228.                  IF    (RVR,NZ),EXIT,RDTERM    Some access exception
 001E76 4810 4000            00000 17663  2 2229.                  LH    RS,@RJ                  Get the write count
 001E7A 1211/4740 A372       0208E 17664  2 2230.                  IF    (RS,NEG),RDTSPEC        Can't be negative
 001E80 4010 C062            0000A 17681  2 2231.                  STH   RS,RTWLEN               Save the write length
 001E84 4810 4002            00002 17682  2 2232.                  LH    RS,@RJ+2                Get the prompt count
 001E88 1211/4740 A372       0208E 17683  2 2233.                  IF    (RS,NEG),RDTSPEC        Can't be negative either
 001E8E 4A10 C062            0000A 17700  2 2234.                  AH    RS,RTWLEN               Add the write count
 001E92 4010 C060            00008 17701  2 2235.                  STH   RS,RTOLEN               Save the total output length
 001E96 5910 A718            02434 17702  2 2236.                  IF    (RS,GT,251),RDTSPEC     Too long
 001E9A 4720 A372            0208E 17716  2          +
 001E9E 1211/4780 A1B4       01ED0 17722  2 2237.                  IF    (RS,NZ),BEGIN
 001EA4 4140 4004            00004 17736  3 2238.                    LA    RJ,@RJ+4                Get the address of the obuf
 001EA8 5040 C058            00000 17737  3 2239.                    ST    RJ,RTOLOC               Save the address
 001EAC                            17738  3 2240.                    VALBUF (RJ),(RS),MT1RKEY      Make sure we can read it
 001EAC D707 D048 D048 00000 00000 17749  3          +
 001EB2 5040 D048            00000 17759  3          +
 001EB6 4010 D04C/1F00       00004 17769  3          +
 001EBC 4300 6072            00072 17781  3          +
 001EC0 4200 D04E            00006 17787  3          +
 001EC4 58F0 A70C/0DEF       02428 17793  3          +
 001ECA 1200/4770 A376       02092 17795  3 2241.                    IF    (RVR,NZ),EXIT,RDTERM    Some access exception
 001ED0                            17812  2 2242.                  END   ,
 001ED0                            17816  1 2243.                END   ,
 001ED0                            17820    2244.              END   ,
1TERMINAL (TERM00) (09:44) (22MAR04) Mode 1 Terminal Interface (MILTEN)                                                     Page  136
0Current Usings:  (PZERO,R0) (MTCB,R6) (RDTERM,R10) (@M1IO-72,R12) (@VALBUF-72,R13)
0Loc    Object Code    Addr1 Addr2  Stmt Lv Lineno    Source Statement           (Hibal 5, Asmedit 3.3)  HLASM R4.0  2004/03/22 09.44
+___    ______ ____    _____ _____  ____ __ ______    ______ _________
0                                  17824    2245.     *
                                   17825    2246.     * Now we know where all the data is, send it off to milten
                                   17826    2247.     *
 001ED0 9200 6070      00070       17827    2248.              CLEAR MT1IACT                 Since it's ok, clear IA count
 001ED4 5880 6020            00020 17834    2249.              L     RM,MTCBIOPA             Get the IO parm address
 USING  #SCSR,R8                   17835    2250.              WITH  (#SCSR,RM)              Address it
 001ED8                            17848    2251.              CLEAR #SCSR                   Clear it
 001ED8 D717 8000 8000 00000 00000 17854             +
 001EDE 5870 6018            00018 17855    2252.              L     RY,MTCBPDB              Get a PDB to use
 USING  PDB,R7                     17856    2253.              WITH  (PDB,RY)
 001EE2                            17869    2254.              CLEAR PDB
 001EE2 D733 7000 7000 00004 00004 17875             +
                                   17876    2255.     *
                                   17877    2256.     * Format the PDB
                                   17878    2257.     *
 001EE8 D201 7000 6004 00004 00004 17879    2258.              MVC   PDBLIN#,MTCBLINE        Put in the line number
 001EEE 9242 7002      00006       17880    2259.              MVI   PDBCMD,TMILREAD         It is a terminal read
 001EF2 D201 702C 6060 00030 00060 17881    2260.              MVC   PDBINCT,MT1IBLEN        Length of the input
 001EF8 D20F 7010 6074 00014 00074 17882    2261.              MVC   PDBVINFO,MT1PGM         Move in the program info
                                   17883    2262.     *
                                   17884    2263.     * Save the output counts, this is strange due to the way milten
                                   17885    2264.     * expects the fields to be set up. (because of previous ORVYLs)
                                   17886    2265.     *
 001EFE 4810 C060            00008 17887    2266.              LH    RS,RTOLEN               Get our output length
                                   17888    2267.     *
                                   17889    2268.     * Display mode ...
                                   17890    2269.     *
 001F02 9180 C054      0000C       17891    2270.              IF    @M1IODIS,BEGIN          Display mode is different
 001F06 47E0 A212            01F2E 17901             +
 001F0A 1211/4780 A212       01F2E 17906  1 2271.                IF    (RS,NZ),BEGIN           Some data to write
 001F10 4010 702A            0002E 17920  2 2272.                  STH   RS,PDBOUTCT             Set the total length
 001F14 5820 C058            00000 17921  2 2273.                  L     RA,RTOLOC               Get the output buffer location
 001F18 D205 702E 2000 00032 00000 17922  2 2274.                  MVC   PDBWC(6),@RA            Move in WC,PC,RC
 001F1E 4A20 A794            024B0 17923  2 2275.                  AH    RA,=Y(6)                Point past the counts
 001F22 5020 C058            00000 17924  2 2276.                  ST    RA,RTOLOC               Update the output pointer
 001F26 4B10 A794            024B0 17925  2 2277.                  SH    RS,=Y(6)                Length is 6 bytes less
 001F2A 4010 C060            00008 17926  2 2278.                  STH   RS,RTOLEN               Update the length
 001F2E                            17927  1 2279.                END   ,
 001F2E A216           01F2E 01F08 17931    2280.              END   ELSE,BEGIN
 001F2E 47F0 A230            01F4C 17940             +
                                   17946  1 2281.     *
                                   17947  1 2282.     * Line mode ...
                                   17948  1 2283.     *
 001F32                            17949  1 2284.                IF    (RTWLEN,NZ),'LA RS,@RS+1' Account for the NL char
 001F32 D601 C062 C062 0000A 0000A 17959  1          +
 001F38 4780 A224            01F40 17960  1          +
 001F3C 4110 1001            00001 17966  1          +
 001F40 4010 7030            00034 17971  1 2285.                STH   RS,PDBPC                Save the output char count
 001F44 4A10 A794            024B0 17972  1 2286.                AH    RS,=Y(6)                Milten requirement
 001F48 4010 702A            0002E 17973  1 2287.                STH   RS,PDBOUTCT             Total length
 001F4C                            17974    2288.              END   ,
                                   17978    2289.     *
                                   17979    2290.     * Handle the mode flags
                                   17980    2291.     *
1TERMINAL (TERM00) (09:44) (22MAR04) Mode 1 Terminal Interface (MILTEN)                                                     Page  137
0Current Usings:  (PZERO,R0) (MTCB,R6) (PDB,R7) (#SCSR,R8) (RDTERM,R10) (@M1IO-72,R12) (@VALBUF-72,R13)
0Loc    Object Code    Addr1 Addr2  Stmt Lv Lineno    Source Statement           (Hibal 5, Asmedit 3.3)  HLASM R4.0  2004/03/22 09.44
+___    ______ ____    _____ _____  ____ __ ______    ______ _________
0001F4C 9640 7007      0000B       17981    2292.              SET   PDBMODD.MODDNPT         Don't allow page pause text
 001F50 9180 C054      0000C       17988    2293.              IF    @M1IODIS,BEGIN          Display mode
 001F54 47E0 A260            01F7C 17998             +
 001F58 9640 7006      0000A       18003  1 2294.                SET   PDBMODC.MODCDSPL        Set display mode
 001F5C 9104 C064      0000C       18010  1 2295.                IF    RTFLGS.X'04','SET PDBMODC.MODCSTIB'   Suppress blanks
 001F60 47E0 A24C            01F68 18021  1          +
 001F64 9620 7006      0000A       18033  1          +
 001F68 9610 7004      00008       18038  1 2296.                SET   PDBMODA.MODACL          Clean
 001F6C 9608 7005      00009       18045  1 2297.                SET   PDBMODB.MODBSLOL        Slow list (don't expand tabs)
 001F70 9640 7005      00009       18052  1 2298.                SET   PDBMODB.MODBUPLO        Uplow
 001F74 9602 7005      00009       18059  1 2299.                SET   PDBMODB.MODBUFMT        Unformatted
 001F78 9680 7007      0000B       18066  1 2300.                SET   PDBMODD.MODDNPAU        Nopause
 001F7C                            18073    2301.              END   ,
 001F7C A264           01F7C 01F56 18077    2302.              ELSE  'SET  PDBMODC.MODCSTOB' Suppress trailing blanks
 001F7C 47F0 A268            01F84 18082             +
 001F80 9601 7006      0000A       18095             +
 DROP   @VALBUF-72,R13             18100    2303.              FIX   PDB,L'PDB               Fix it in storage
 USING  @PAGE-72,R13
 001F84 D708 D048 D048 00000 00000 18121             +
 001F8A 5070 D048            00000 18132             +
 001F8E 4100 0034            00034 18144             +
 001F92 5000 D04C            00004 18149             +
 001F96 58F0 A71C/0DEF       02438 18152             +
 001F9C 5070 D04C            00004 18154    2304.              ADDSG PDB,L'PDB,#SCSR         We will send it first
 DROP   @PAGE-72,R13
 USING  @ADDSEG-72,R13
 001FA0 4100 0034            00034 18191             +
 001FA4 4000 D050            00008 18196             +
 001FA8 5080 D048            00000 18207             +
 001FAC 58F0 A720/0DEF       0243C 18213             +
                                   18215    2305.     *
                                   18216    2306.     * Handle the output
                                   18217    2307.     *
 001FB2 5840 C058            00000 18218    2308.              L     RJ,RTOLOC               Get the output buffer location
 001FB6 4850 C060            00008 18219    2309.              LH    RK,RTOLEN               Get the output count
 001FBA 1255/4780 A30A       02026 18220    2310.              IF    (RK,NZ),BEGIN           If there is any
 DROP   @ADDSEG-72,R13             18234  1 2311.                FIX   (RJ),(RK)               Fix it
 USING  @PAGE-72,R13
 001FC0 D708 D048 D048 00000 00000 18255  1          +
 001FC6 5040 D048            00000 18265  1          +
 001FCA 5050 D04C            00004 18275  1          +
 001FCE 58F0 A71C/0DEF       02438 18278  1          +
 001FD4 4820 C062            0000A 18280  1 2312.                LH    RA,RTWLEN               Get the write length
 001FD8 1222/4780 A2F2       0200E 18281  1 2313.                IF    (RA,NZ),BEGIN           There is some write text
 001FDE 5040 D04C            00004 18295  2 2314.                  ADDSG (RJ),(RA),#SCSR         Move in the write text
 DROP   @PAGE-72,R13
 USING  @ADDSEG-72,R13
 001FE2 4020 D050            00008 18329  2          +
 001FE6 5080 D048            00000 18340  2          +
 001FEA 58F0 A720/0DEF       0243C 18346  2          +
 001FF0 4100 A796            024B2 18348  2 2315.                  ADDSG =X'15',1,#SCSR          A newline
 001FF4 5000 D04C            00004 18365  2          +
 001FF8 4100 0001            00001 18377  2          +
 001FFC 4000 D050            00008 18382  2          +
1TERMINAL (TERM00) (09:44) (22MAR04) Mode 1 Terminal Interface (MILTEN)                                                     Page  138
0Current Usings:  (PZERO,R0) (MTCB,R6) (PDB,R7) (#SCSR,R8) (RDTERM,R10) (@M1IO-72,R12) (@ADDSEG-72,R13)
0Loc    Object Code    Addr1 Addr2  Stmt Lv Lineno    Source Statement           (Hibal 5, Asmedit 3.3)  HLASM R4.0  2004/03/22 09.44
+___    ______ ____    _____ _____  ____ __ ______    ______ _________
0002000 5080 D048            00000 18393  2          +
 002004 58F0 A720/0DEF       0243C 18399  2          +
 00200A 1A42                       18401  2 2316.                  AR    RJ,RA                   New location
 00200C 1B52                       18402  2 2317.                  SR    RK,RA                   New length
 00200E                            18403  1 2318.                END   ,
 00200E 1255/4780 A30A       02026 18407  1 2319.                IF    (RK,NZ),BEGIN           Some amount of prompt
 002014 5040 D04C            00004 18421  2 2320.                  ADDSG (RJ),(RK),#SCSR         Move in the prompt text
 002018 4050 D050            00008 18445  2          +
 00201C 5080 D048            00000 18456  2          +
 002020 58F0 A720/0DEF       0243C 18462  2          +
 002026                            18464  1 2321.                END   ,
 002026                            18468    2322.              END   ,                       No write text
                                   18472    2323.     *
                                   18473    2324.     * Send it off to Milten, then unfix the fixed areas
                                   18474    2325.     *
 002026 58F0 A724/0DEF       02440 18475    2326.              ACALL MILSX                   Send the transaction to milten
 DROP   @ADDSEG-72,R13             18482    2327.              UNFIX PDB,L'PDB               First the PDB
 USING  @PAGE-72,R13
 00202C D708 D048 D048 00000 00000 18503             +
 002032 5070 D048            00000 18514             +
 002036 4100 0034            00034 18526             +
 00203A 5000 D04C            00004 18531             +
 00203E 58F0 A728/0DEF       02444 18534             +
 002044 5840 C058            00000 18536    2328.              L     RJ,RTOLOC               Output location
 002048 4850 C060            00008 18537    2329.              LH    RK,RTOLEN               Output length
 00204C 1255/4780 A34A       02066 18538    2330.              IF    (RK,NZ),BEGIN
 002052                            18552  1 2331.                UNFIX (RJ),(RK)               Unfix the output buffer
 002052 D708 D048 D048 00000 00000 18563  1          +
 002058 5040 D048            00000 18573  1          +
 00205C 5050 D04C            00004 18583  1          +
 002060 58F0 A728/0DEF       02444 18586  1          +
 002066                            18588    2332.              END   ,
                                   18592    2333.     *
                                   18593    2334.     * Schedule the task that will wait for and process the I/O completion
                                   18594    2335.     *
 DROP   @PAGE-72,R13               18595    2336.              PSET  @TCREATE
 USING  @TCREATE-72,R13
 002066 D714 D048 D048 00000 00000 18615             +
 00206C D203 D048 A72C 00000 02448 18616    2337.              MVC   @TCRPSW(4),=X'070C0000'
 002072 D203 D04C A730 00004 0244C 18617    2338.              MVC   @TCRPSW+4(4),=A(X'80000000'+RDTERMX)
 002078 D203 D058 A734 00010 02450 18618    2339.              MVC   @TCRPRIO,=A(10)         Higher priority
 00207E 9680 D05C      00014       18619    2340.              SET   @TCRFSTK                It will need a stack
 002082 58F0 A738/0DEF       02454 18625    2341.              VCALL TCREATE                 Create the stack
                                   18629    2342.     *
                                   18630    2343.     * We are done with the SVC inline stuff, return to the caller
                                   18631    2344.     *
 002088 1B00                       18632    2345.              CLEAR RVR                     Good return
 00208A 47F0 A376            02092 18636    2346.              B     RDTDONE
                                   18637    2347.
 00208E 4100 0006            00006 18638    2348.     RDTSPEC  LA    RVR,6                   Cause a Specification error
 002092 981F C008            00008 18639    2349.     RDTDONE  PEND  ,
 DROP   PDB,R7
 DROP   #SCSR,R8
 DROP   MTCB,R6
1TERMINAL (TERM00) (09:44) (22MAR04) Mode 1 Terminal Interface (MILTEN)                                                     Page  139
0Current Usings:  (PZERO,R0) (@TCREATE-72,R13)
0Loc    Object Code    Addr1 Addr2  Stmt Lv Lineno    Source Statement           (Hibal 5, Asmedit 3.3)  HLASM R4.0  2004/03/22 09.44
+___    ______ ____    _____ _____  ____ __ ______    ______ _________
0DROP   @M1IO-72,R12
 DROP   RDTERM,R10
 002096 9680 C000/0B0E 00000       18670             +
 DROP   @TCREATE-72,R13
1TERMINAL (TERM00) (09:44) (22MAR04) Mode 1 Terminal Interface (MILTEN)                                                     Page  140
0Current Usings:  (PZERO,R0)
0Loc    Object Code    Addr1 Addr2  Stmt Lv Lineno    Source Statement           (Hibal 5, Asmedit 3.3)  HLASM R4.0  2004/03/22 09.44
+___    ______ ____    _____ _____  ____ __ ______    ______ _________
0                                  18680    2351.     *****************************************************************
                                   18681    2352.     *                                                               *
                                   18682    2353.     *  RDTERMX --  This is the Mode 1 terminal Read completion      *
                                   18683    2354.     *              task.  It retrieves the response from milten and *
                                   18684    2355.     *              handles the incoming data.                       *
                                   18685    2356.     *                                                               *
                                   18686    2357.     *   Input  --  none                                             *
                                   18687    2358.     *                                                               *
                                   18688    2359.     *  Output  --  none                                             *
                                   18689    2360.     *                                                               *
                                   18690    2361.     *****************************************************************
-00209C                            18692    2363.     RDTERMX  PROC  SCOPE=LOCAL
 00209C D9C4E3C5D9D4E740           18699             +
 0020A4 0000/0000                  18700             +
 0020A8 900F D004/18AF       00004 18702             +
 USING  RDTERMX,R10
 0020AE 50D0 C000/18CD       00000 18717             +
 0020B4 9680 C000      00000       18719             +
 0020B8 41D0 C048            00048 18720             +
                                   18721    2364.     *
                                   18722    2365.     * Get our bearings
                                   18723    2366.     *
 0020BC 5860 0208            00208 18724    2367.              L     RX,PZCURASB             Get the current ASB address
 0020C0 5860 6030            00030 18725    2368.              WITH  (ASB,RX),'L RX,ASBTCCB' Get the MTCB address
 USING  ASB,R6
 DROP   ASB,R6
 USING  MTCB,R6                    18749    2369.              WITH  (MTCB,RX)
                                   18762    2370.     *
                                   18763    2371.     * Setup for the timeout if that is required
                                   18764    2372.     *
 0020C4                            18765    2373.              IF    (MT1TIMO,NZ),BEGIN
 0020C4 D603 6064 6064 00064 00064 18775             +
 0020CA 4780 A08A            02132 18776             +
                                   18781  1 2374.     *
                                   18782  1 2375.     * Define the Exit routine
                                   18783  1 2376.     *
 USING  @EXRADD-72,R13             18784  1 2377.                PSET  @EXRADD
 0020CE D714 D048 D048 00000 00000 18801  1          +
 AUSING (XITMSKD,@EXRTYPE)         18802  1 2378.                WITH  (XITMSKD,@EXRTYPE)
 0020D4 9620 D048      00000       18809  1 2379.                SET   XITMRTC                 Real time clock only
 0020D8 D203 D050 A3A0 00008 02448 18815  1 2380.                MVC   @EXRPSW(4),=X'070C0000'
 0020DE D203 D054 A3B0 0000C 02458 18816  1 2381.                MVC   @EXRPSW+4(4),=A(X'80000000'+RTTO)
 0020E4 5060 D058            00010 18817  1 2382.                ST    RX,@EXRPARM             Save the MTCB address
 0020E8 9640 D05C      00014       18818  1 2383.                SET   @EXRAFS                 Enter it with a Stack
 0020EC 58F0 A3B4/0DEF       0245C 18824  1 2384.                VCALL EXRADD                  Add the Exit routine
                                   18828  1 2385.     *
                                   18829  1 2386.     * Enable the Exit
                                   18830  1 2387.     *
 DROP   @EXRADD-72,R13             18831  1 2388.                PSET  @XITMASK
 USING  @XITMASK-72,R13
 0020F2 D704 D048 D048 00000 00000 18851  1          +
 AUSING (XITMSKD,@XITMSK)          18852  1 2389.                WITH  (XITMSKD,@XITMSK)
1TERMINAL (TERM00) (09:44) (22MAR04) Mode 1 Terminal Interface (MILTEN)                                                     Page  141
0Current Usings:  (PZERO,R0) (MTCB,R6) (RDTERMX,R10) (@XITMASK-72,R13)
0Loc    Object Code    Addr1 Addr2  Stmt Lv Lineno    Source Statement           (Hibal 5, Asmedit 3.3)  HLASM R4.0  2004/03/22 09.44
+___    ______ ____    _____ _____  ____ __ ______    ______ _________
00020F8 9620 D048      00000       18859  1 2390.                SET   XITMRTC                 Real time-timer
 0020FC 9200 D04C      00004       18865  1 2391.                SET   @XITMSO                 Or it in
 002100 58F0 A3B8/0DEF       02460 18871  1 2392.                VCALL XITMASK                 Set the mask
                                   18875  1 2393.     *
                                   18876  1 2394.     * Start up the timer
                                   18877  1 2395.     *
 DROP   @XITMASK-72,R13            18878  1 2396.                PSET  @RTSET
 USING  @RTSET-72,R13
 002106 D717 D048 D048 00000 00000 18898  1          +
 00210C D203 D054 6040 0000C 00040 18899  1 2397.                MVC   @RTSXIT,MTCBTIMO        Tell him the exit ID
 002112 9680 D050      00008       18900  1 2398.                SET   @RTSFINT                Interval timer
 002116 1B22                       18906  1 2399.                CLEAR RA
 002118 5830 6064            00064 18910  1 2400.                L     RB,MT1TIMO              Get the interval (S)
 00211C 5C20 A3BC            02464 18911  1 2401.                M     RA,=A(1000000)          Turn it into uS
 002120 8D20 000C            0000C 18912  1 2402.                SLDL  RA,12                   Turn it into TOD
 002124 9023 D048            00000 18913  1 2403.                STM   RA,RB,@RTSCLK           Set the clock
 002128 58F0 A3C0/0DEF       02468 18914  1 2404.                VCALL RTSET                   Set the time
 00212E 5000 6068            00068 18918  1 2405.                ST    RVR,MT1TIMER            Save the value
 002132                            18919    2406.              END   ,
                                   18923    2407.     *
                                   18924    2408.     * Wait for the buffer to come back from milten
                                   18925    2409.     *
 002132 5810 601C            0001C 18926    2410.              L     RS,MTCBSIB              Get the SIB pointer
 USING  SIB,R1                     18927    2411.              WITH  (SIB,RS),BEGIN
 002136 9505 1048      00048       18941  1 2412.                IF    ~SIBTVIRT,'SET MTFLSLOW'
 00213A 4780 A09A            02142 18951  1          +
 00213E 9640 6028      00028       18962  1          +
 DROP   SIB,R1                     18967    2413.              END   ,
 002142 58F0 A3C4/0DEF       0246C 18975    2414.              ACALL MILRX                   Get the buffer back
 002148 1880                       18982    2415.              LR    RM,RVR                  Get the TBUF address
 USING  TBUF,R8                    18983    2416.              WITH  (TBUF,RM)               Address it
 AUSING (PDB,TBUFDATA)             18996    2417.              WITH  (PDB,TBUFDATA)          Address the PDB too
                                   19003    2418.     *
                                   19004    2419.     * If the timer has not expired, we have to cancel it
                                   19005    2420.     *
 00214A                            19006    2421.              IF    (MT1TIMO,NZ),BEGIN      Only if an outstanding timer
 00214A D603 6064 6064 00064 00064 19016             +
 002150 4780 A0DA            02182 19017             +
 002154 58F0 A3C8/0DEF       02470 19022  1 2422.                VCALL ASLOCK                  Get the local lock
 00215A                            19026  1 2423.                IF    (MT1TIMER,NZ),BEGIN     The timer is outstanding
 00215A D603 6068 6068 00068 00068 19036  1          +
 002160 4780 A0D4            0217C 19037  1          +
 DROP   @RTSET-72,R13              19042  2 2424.                  PSET  @RTCNCK
 USING  @RTCNCK-72,R13
 002164 D71F D048 D048 00000 00000 19062  2          +
 00216A D203 D048 6068 00000 00068 19063  2 2425.                  MVC   @RTCID,MT1TIMER         Move in the timer ID
 002170                            19064  2 2426.                  CLEAR MT1TIMER                Clear the timer ID
 002170 D703 6068 6068 00068 00068 19070  2          +
 002176 58F0 A3CC/0DEF       02474 19071  2 2427.                  VCALL RTCAN                   Cancel the timer
 00217C                            19075  1 2428.                END   ,
 00217C 58F0 A3D0/0DEF       02478 19079  1 2429.                VCALL ASULOCK
 002182                            19083    2430.              END   ,
1TERMINAL (TERM00) (09:44) (22MAR04) Mode 1 Terminal Interface (MILTEN)                                                     Page  142
0Current Usings:  (PZERO,R0) (MTCB,R6) (TBUF,R8) (RDTERMX,R10) (@RTCNCK-72,R13)
0Loc    Object Code    Addr1 Addr2  Stmt Lv Lineno    Source Statement           (Hibal 5, Asmedit 3.3)  HLASM R4.0  2004/03/22 09.44
+___    ______ ____    _____ _____  ____ __ ______    ______ _________
0                                  19088    2432.     *
                                   19089    2433.     * See if we got the response we wanted.
                                   19090    2434.     *
 002182 9547 8012      00006       19091    2435.              IF    (PDBCMD,EQ,FMILXCTL),BEGIN
 002186 4770 A0FC            021A4 19104             +
                                   19109  1 2436.     *
                                   19110  1 2437.     * Some kinds of requests go out as a read and are converted by milten
                                   19111  1 2438.     * to an XCTL to WYLBUR.  Under certain circumstances, Milten converts
                                   19112  1 2439.     * these back into read responses, but sometimes it doesn't.  That
                                   19113  1 2440.     * is what this section of code is for.
                                   19114  1 2441.     *
 00218A 9242 8012      00006       19115  1 2442.                MVI   PDBCMD,FMILREAD         Convert it back to a read
 00218E 9501 803C      00030       19116  1 2443.                CLI   PDBORV,PDBVRCTL         Test for a control
 002192 4770 A0FC            021A4 19117  1 2444.                IF    NE,EXIT                 If not, fixup not needed
 002196 4800 803E            00032 19131  1 2445.                LH    RVR,PDBWC               Get the text length
 00219A 4000 8042            00036 19132  1 2446.                STH   RVR,PDBRC               Make it the read count
 00219E                            19133  1 2447.                CLEAR PDBWC                   Clear out the write count
 00219E D701 803E 803E 00032 00032 19139  1          +
 0021A4                            19140    2448.              END   ,
                                   19144    2449.     *        IF    (PDBCMD,NE,FMILREAD),'ABORT *SEQERR'
 0021A4 9542 8012      00006       19145    2450.              IF    (PDBCMD,NE,FMILREAD),BEGIN
 0021A8 4780 A118            021C0 19158             +
 0021AC 83000012/8407              19163  1 2451.                ORVSNAP 'RDTERMX',MODE=WTL
 0021B2 4100 A40B            024B3 19168  1          +
 0021B6 83000012                   19169  1 2452.                ORVSNAP TBUF,255
 0021BA 14FF00008000               19173  1          +
 0021C0                            19174    2453.              END   ,
 0021C0 9180 8019      0000D       19178    2454.              IF    PDBCPLB.CPLBLGF,'ACALL M1LOGOFF'
 0021C4 47E0 A126            021CE 19189             +
 0021C8 58F0 A3D4/0DEF       0247C 19200             +
                                   19206    2455.     *
                                   19207    2456.     * Move in the data, after re-checking the input buffer
                                   19208    2457.     *
 0021CE                            19209    2458.              CLEAR MT1WR15                 Default zero return
 0021CE D703 6058 6058 00058 00058 19215             +
 0021D4                            19216    2459.              CLEAR MT1WR01                 Default length return
 0021D4 D703 6050 6050 00050 00050 19222             +
 0021DA 58F0 A3C8/0DEF       02470 19223    2460.              VCALL ASLOCK                  No interference
 0021E0 5840 605C            0005C 19227    2461.              L     RJ,MT1IBLOC             Get the location
 0021E4 4850 6060            00060 19228    2462.              LH    RK,MT1IBLEN             And the length
 DROP   @RTCNCK-72,R13             19229    2463.              VALBUF (RJ),(RK),MT1RKEY,W    Check it out
 USING  @VALBUF-72,R13
 0021E8 D707 D048 D048 00000 00000 19250             +
 0021EE 5040 D048            00000 19260             +
 0021F2 4050 D04C/1F00       00004 19270             +
 0021F8 4300 6072            00072 19282             +
 0021FC 4200 D04E            00006 19288             +
 002200 9680 D04F      00007       19294             +
 002204 58F0 A380/0DEF       02428 19300             +
 00220A 1200/4780 A178       02220 19302    2464.              IF    (RVR,NZ),BEGIN          Now it's no good
 002210 D203 6058 A3D8 00058 02480 19316  1 2465.                MVC   MT1WR15,=A(-4)          Signal I/O error
 002216 58F0 A3D0/0DEF       02478 19317  1 2466.                VCALL ASULOCK                 Unlock the address space
 00221C 47F0 A21A            022C2 19321  1 2467.                B     RDTXDONE                Finish up the read
 002220                            19322    2468.              END   ,
1TERMINAL (TERM00) (09:44) (22MAR04) Mode 1 Terminal Interface (MILTEN)                                                     Page  143
0Current Usings:  (PZERO,R0) (MTCB,R6) (TBUF,R8) (RDTERMX,R10) (@VALBUF-72,R13)
0Loc    Object Code    Addr1 Addr2  Stmt Lv Lineno    Source Statement           (Hibal 5, Asmedit 3.3)  HLASM R4.0  2004/03/22 09.44
+___    ______ ____    _____ _____  ____ __ ______    ______ _________
0002220 4120 8044            00038 19326    2469.              LA    RA,PDBTEXT              Get the start of data
 002224 4A20 8040            00034 19327    2470.              AH    RA,PDBPC                Skip over the prompt
 002228 4830 8042            00036 19328    2471.              LH    RB,PDBRC                Get the read+prompt count
 00222C 4B30 8040            00034 19329    2472.              SH    RB,PDBPC                Reduce to the read count
 002230 1953/47D0 A190       02238 19330    2473.              CEIL  RK,RB                   Buffer no bigger than data
 002236 1853                       19335             +
 002238 5050 6050            00050 19336    2474.              ST    RK,MT1WR01              Save the length
 00223C 0E42                       19337    2475.              MVCL  RJ,RA                   Move the data in
 00223E 58F0 A3D0/0DEF       02478 19338    2476.              VCALL ASULOCK                 Unlock the address space
                                   19342    2477.     *
                                   19343    2478.     * Check the return status, first check for illegal terminal
                                   19344    2479.     *
 002244 9140 8019      0000D       19345    2480.              IF    PDBCPLB.CPLBILT,BEGIN
 002248 47E0 A1AE            02256 19356             +
 00224C D203 6058 A3DC 00058 02484 19361  1 2481.                MVC   MT1WR15,=A(-12)         Illegal terminal return code
 002252 47F0 A21A            022C2 19362  1 2482.                B     RDTXDONE                Don't do any
 002256                            19363    2483.              END   ,
                                   19367    2484.     *
                                   19368    2485.     * Check for unset tabs
                                   19369    2486.     *
 002256 9120 8018      0000C       19370    2487.              IF    PDBCPLA.CPLAUST,BEGIN   They typed an unset tab
 00225A 47E0 A1C0            02268 19381             +
 00225E D203 6058 A3E0 00058 02488 19386  1 2488.                MVC   MT1WR15,=A(-8)          Move in that return code
 002264 47F0 A21A            022C2 19387  1 2489.                B     RDTXDONE                Then finish up
 002268                            19388    2490.              END   ,
                                   19392    2491.     *
                                   19393    2492.     * Check for a break (timeout)
                                   19394    2493.     *
 002268 9110 8018      0000C       19395    2494.              IF    PDBCPLA.CPLABRK,BEGIN   Killed by a break
 00226C 47E0 A1D2            0227A 19406             +
 002270 D203 6058 A3E4 00058 0248C 19411  1 2495.                MVC   MT1WR15,=A(8)           Timout code
 002276 47F0 A21A            022C2 19412  1 2496.                B     RDTXDONE                Finish up
 00227A                            19413    2497.              END   ,
                                   19417    2498.     *
                                   19418    2499.     * Check for I/O error
                                   19419    2500.     *
 00227A 9140 8018      0000C       19420    2501.              IF    PDBCPLA.CPLAIOE,BEGIN   I/O error
 00227E 47E0 A1E4            0228C 19431             +
 002282 D203 6058 A3D8 00058 02480 19436  1 2502.                MVC   MT1WR15,=A(-4)          I/O error code
 002288 47F0 A21A            022C2 19437  1 2503.                B     RDTXDONE                Finish up
 00228C                            19438    2504.              END   ,
                                   19442    2505.     *
                                   19443    2506.     * Check for ATTN, and take care of ?ATTN
                                   19444    2507.     *
 00228C 9180 8018      0000C       19445    2508.              IF    PDBCPLA.CPLAATTN,BEGIN  Someone hit ATTN
 002290 47E0 A21A            022C2 19456             +
 002294 D203 6058 A3E8 00058 02490 19461  1 2509.                MVC   MT1WR15,=A(4)           Set the return code
 00229A                            19462  1 2510.                IF    (MT1WR01,EQ,1),BEGIN    Might be ?***
 00229A D503 A3EC 6050 02494 00050 19474  1          +
 0022A0 4770 A216            022BE 19475  1          +
 0022A4 4120 8044            00038 19480  2 2511.                  LA    RA,PDBTEXT
 0022A8 4A20 8040            00034 19481  2 2512.                  AH    RA,PDBPC                Point at the data
 0022AC 956F 2000      00000       19482  2 2513.                  IF    (@RA,EQ,'?'),BEGIN      We need to signal ATTN too
 0022B0 4770 A216            022BE 19493  2          +
1TERMINAL (TERM00) (09:44) (22MAR04) Mode 1 Terminal Interface (MILTEN)                                                     Page  144
0Current Usings:  (PZERO,R0) (MTCB,R6) (TBUF,R8) (RDTERMX,R10) (@VALBUF-72,R13)
0Loc    Object Code    Addr1 Addr2  Stmt Lv Lineno    Source Statement           (Hibal 5, Asmedit 3.3)  HLASM R4.0  2004/03/22 09.44
+___    ______ ____    _____ _____  ____ __ ______    ______ _________
00022B4 9202 6070      00070       19498  3 2514.                    MVI   MT1IACT,2               Count 2 idle attn's
 0022B8 58F0 A3F0/0DEF       02498 19499  3 2515.                    ACALL M1ATTN                  Then signal the ATTN exit
 0022BE                            19506  2 2516.                  END   ,
 0022BE                            19510  1 2517.                END   ,
 0022BE 47F0 A21A            022C2 19514  1 2518.                B     RDTXDONE
 0022C2                            19515    2519.              END   ,
1TERMINAL (TERM00) (09:44) (22MAR04) Mode 1 Terminal Interface (MILTEN)                                                     Page  145
0Current Usings:  (PZERO,R0) (MTCB,R6) (TBUF,R8) (RDTERMX,R10) (@VALBUF-72,R13)
0Loc    Object Code    Addr1 Addr2  Stmt Lv Lineno    Source Statement           (Hibal 5, Asmedit 3.3)  HLASM R4.0  2004/03/22 09.44
+___    ______ ____    _____ _____  ____ __ ______    ______ _________
0                                  19520    2521.     *
                                   19521    2522.     * Finish up the read
                                   19522    2523.     *
 0022C2                            19523    2524.     RDTXDONE LABEL ,
                                   19525    2525.     *
                                   19526    2526.     * Update the SIB if it needs it
                                   19527    2527.     *
 0022C2 5810 601C            0001C 19528    2528.              L     RS,MTCBSIB              Get the SIB address
 USING  SIB,R1                     19529    2529.              WITH  (SIB,RS),BEGIN
 0022C6                            19543  1 2530.                IF    (PDBSUC,NE,SIBUC),'ACALL CURSIB'  Get the current one
 0022C6 D501 8038 1080 0002C 00080 19555  1          +
 0022CC 4780 A22E            022D6 19556  1          +
 0022D0 58F0 A3F4/0DEF       0249C 19567  1          +
 DROP   SIB,R1                     19573    2531.              END   ,
                                   19581    2532.     *
                                   19582    2533.     * Free the input buffer and signal the I/O complete
                                   19583    2534.     *
 DROP   @VALBUF-72,R13             19584    2535.              FREEB TBUF                    Free it
 USING  @FRTBUF-72,R13
 0022D6 D703 D048 D048 00000 00000 19605             +
 0022DC 5080 D048            00000 19616             +
 0022E0 58F0 A3F8/0DEF       024A0 19622             +
 0022E6 58F0 A3FC/0DEF       024A4 19624    2536.              ACALL M1IODONE                Signal the I/O is done
                                   19631    2537.     *
                                   19632    2538.     * Then finish up the task
                                   19633    2539.     *
 DROP   @FRTBUF-72,R13             19634    2540.              PSET  @TEXIT
 USING  @TEXIT-72,R13
 0022EC D703 D048 D048 00000 00000 19654             +
 0022F2 58F0 A400/0DEF       024A8 19655    2541.              VCALL TEXIT
 0022F8 981F C008            00008 19659    2542.              PEND  ,
 DROP   TBUF,R8
 DROP   MTCB,R6
 DROP   RDTERMX,R10
 0022FC 9680 C000/0B0E 00000       19679             +
 DROP   @TEXIT-72,R13
1TERMINAL (TERM00) (09:44) (22MAR04) Mode 1 Terminal Interface (MILTEN)                                                     Page  146
0Current Usings:  (PZERO,R0)
0Loc    Object Code    Addr1 Addr2  Stmt Lv Lineno    Source Statement           (Hibal 5, Asmedit 3.3)  HLASM R4.0  2004/03/22 09.44
+___    ______ ____    _____ _____  ____ __ ______    ______ _________
0                                  19689    2544.     *****************************************************************
                                   19690    2545.     *                                                               *
                                   19691    2546.     *     RTTO --  This is the Mode 1 Read timout exit routine. It  *
                                   19692    2547.     *              just sends a BREAK to MILTEN.                    *
                                   19693    2548.     *                                                               *
                                   19694    2549.     *   Input  --  @XITDATA                                         *
                                   19695    2550.     *                                                               *
                                   19696    2551.     *  Output  --  none                                             *
                                   19697    2552.     *                                                               *
                                   19698    2553.     *****************************************************************
-002302                            19700    2555.     RTTO     PROC  @XITDATA,SCOPE=LOCAL
 002302 D9E3E3D640404040           19707             +
 00230A 0008/0000                  19708             +
 00230E 900F D004/18AF       00004 19710             +
 USING  RTTO,R10
 002314 50D0 C000/18CD       00000 19725             +
 00231A 9680 C000      00000       19727             +
 USING  @XITDATA-72,R12
 00231E 41D0 C050            00050 19741             +
                                   19742    2556.     *
                                   19743    2557.     * Get our bearings
                                   19744    2558.     *
 002322 5860 C048            00000 19745    2559.              L     RX,@XITDSA              Pointer to the status area
 002326 5860 6000            00000 19746    2560.              WITH  (XITSAREA,RX),'L RX,XITSRPRM'     Get the MTCB address
 USING  XITSAREA,R6
 DROP   XITSAREA,R6
 00232A                            19770    2561.              IF    (@RX,NE,'MTCB'),'ABORT WHAT??'    *** TEMP ***
 00232A D503 A0EA 6000 023F8 00000 19780             +
 002330 4780 A056            02364 19781             +
 002334 AC04 021B      0021B       19790  1          +
 002338 9680 021A      0021A       19796  1          +
 00233C 50F0 021C            0021C 19797  1          +
 002340 58F0 0210            00210 19798  1          +
 002344 89F0 0010            00010 19799  1          +
 002348 88F0 0010            00010 19800  1          +
 00234C 41F0 F000            00000 19801  1          +
 002350 AEFF 0006            00006 19802  1          +
 002354 E6C8C1E36F6F4040           19803             +
 USING  MTCB,R6                    19808    2562.              WITH  (MTCB,RX)
                                   19821    2563.     *
                                   19822    2564.     * Make sure we should still send off the Break
                                   19823    2565.     *
 002364                            19824    2566.              IF    (MT1TIMER,NZ),BEGIN     Timer still out
 002364 D603 6068 6068 00068 00068 19834             +
 00236A 4780 A0D6            023E4 19835             +
 00236E                            19840  1 2567.                CLEAR MT1TIMER                Tell them the Timer fired
 00236E D703 6068 6068 00068 00068 19846  1          +
                                   19847  1 2568.     *
                                   19848  1 2569.     * Send off the BREAK
                                   19849  1 2570.     *
 002374 5880 6020            00020 19850  1 2571.                L     RM,MTCBIOPA             Get the parm area address
 USING  #SCSR,R8                   19851  1 2572.                WITH  (#SCSR,RM)
1TERMINAL (TERM00) (09:44) (22MAR04) Mode 1 Terminal Interface (MILTEN)                                                     Page  147
0Current Usings:  (PZERO,R0) (MTCB,R6) (#SCSR,R8) (RTTO,R10) (@XITDATA-72,R12)
0Loc    Object Code    Addr1 Addr2  Stmt Lv Lineno    Source Statement           (Hibal 5, Asmedit 3.3)  HLASM R4.0  2004/03/22 09.44
+___    ______ ____    _____ _____  ____ __ ______    ______ _________
0002378                            19864  1 2573.                CLEAR #SCSR
 002378 D717 8000 8000 00000 00000 19870  1          +
 00237E 5870 6018            00018 19871  1 2574.                L     RY,MTCBPDB              Get the PDB
 USING  PDB,R7                     19872  1 2575.                WITH  (PDB,RY)
 002382                            19885  1 2576.                CLEAR PDB
 002382 D733 7000 7000 00004 00004 19891  1          +
 002388 D201 7000 6004 00004 00004 19892  1 2577.                MVC   PDBLIN#,MTCBLINE        Line number
 00238E 9250 7002      00006       19893  1 2578.                MVI   PDBCMD,TMILBRK          Break command
 002392 D20F 7010 6074 00014 00074 19894  1 2579.                MVC   PDBVINFO,MT1PGM         Program info
 USING  @PAGE-72,R13               19895  1 2580.                FIX   PDB,L'PDB
 002398 D708 D048 D048 00000 00000 19913  1          +
 00239E 5070 D048            00000 19924  1          +
 0023A2 4100 0034            00034 19936  1          +
 0023A6 5000 D04C            00004 19941  1          +
 0023AA 58F0 A12A/0DEF       02438 19944  1          +
 0023B0 5070 D04C            00004 19946  1 2581.                ADDSG PDB,L'PDB,#SCSR         Add PDB to segment
 DROP   @PAGE-72,R13
 USING  @ADDSEG-72,R13
 0023B4 4100 0034            00034 19983  1          +
 0023B8 4000 D050            00008 19988  1          +
 0023BC 5080 D048            00000 19999  1          +
 0023C0 58F0 A12E/0DEF       0243C 20005  1          +
 0023C6 58F0 A132/0DEF       02440 20007  1 2582.                ACALL MILSX                   Send the data to milten
 DROP   @ADDSEG-72,R13             20014  1 2583.                UNFIX PDB,L'PDB               Unfix the PDB
 USING  @PAGE-72,R13
 0023CC D708 D048 D048 00000 00000 20035  1          +
 0023D2 5070 D048            00000 20046  1          +
 0023D6 4100 0034            00034 20058  1          +
 0023DA 5000 D04C            00004 20063  1          +
 0023DE 58F0 A136/0DEF       02444 20066  1          +
 DROP   PDB,R7                     20068    2584.              END   ,
 DROP   #SCSR,R8
                                   20082    2585.     *
                                   20083    2586.     * Now we are done.
                                   20084    2587.     *
 0023E4 9200 D048      00000       20085    2588.              PSET  @EXRDONE
 DROP   @PAGE-72,R13
 USING  @EXRDONE-72,R13
 0023E8 58F0 A19E/0DEF       024AC 20106    2589.              VCALL EXRDONE
 0023EE 981F C008            00008 20110    2590.              PEND  ,
 DROP   MTCB,R6
 DROP   @XITDATA-72,R12
 DROP   RTTO,R10
 0023F2 9680 C000/0B0E 00000       20130             +
 DROP   @EXRDONE-72,R13
1TERMINAL (TERM00) (09:44) (22MAR04) Mode 1 Terminal Interface (MILTEN)                                                     Page  148
0Current Usings:  (PZERO,R0)
0Loc    Object Code    Addr1 Addr2  Stmt Lv Lineno    Source Statement           (Hibal 5, Asmedit 3.3)  HLASM R4.0  2004/03/22 09.44
+___    ______ ____    _____ _____  ____ __ ______    ______ _________
00023F8                            20140    2592.              LTORG ,
 0023F8 D4E3C3C2                   20142                             =C'MTCB'
 0023FC 0000413E                   20143                             =A(GETCHGS)
 002400 80000000                   20144                             =X'80000000'
 002404 0000381A                   20145                             =A(CNTRL)
 002408 00003F56                   20146                             =A(HALT)
 00240C 000029DE                   20147                             =A(RDTEXT)
 002410 000024C6                   20148                             =A(RDEDIT)
 002414 00001D1C                   20149                             =A(RDTERM)
 002418 00003500                   20150                             =A(WRTEXT)
 00241C 00003282                   20151                             =A(WREDIT)
 002420 00002F5E                   20152                             =A(WRTERM)
 002424 00002000                   20153                             =A(8192)
 002428 000041A0                   20154                             =A(VALBUF)
 00242C 00001770                   20155                             =A(6000)
 002430 00000006                   20156                             =A(6)
 002434 000000FB                   20157                             =A(251)
 002438 00000000                   20158                             =V(PAGFIX)
 00243C 000010B6                   20159                             =A(ADDSEG)
 002440 00001178                   20160                             =A(MILSX)
 002444 00000000                   20161                             =V(PAGUFIX)
 002448 070C0000                   20162                             =X'070C0000'
 00244C 800020A8                   20163                             =A(X'80000000'+RDTERMX)
 002450 0000000A                   20164                             =A(10)
 002454 00000000                   20165                             =V(TCREATE)
 002458 8000230E                   20166                             =A(X'80000000'+RTTO)
 00245C 00000000                   20167                             =V(EXRADD)
 002460 00000000                   20168                             =V(XITMASK)
 002464 000F4240                   20169                             =A(1000000)
 002468 00000000                   20170                             =V(RTSET)
 00246C 0000137A                   20171                             =A(MILRX)
 002470 00000000                   20172                             =V(ASLOCK)
 002474 00000000                   20173                             =V(RTCAN)
 002478 00000000                   20174                             =V(ASULOCK)
 00247C 00004054                   20175                             =A(M1LOGOFF)
 002480 FFFFFFFC                   20176                             =A(-4)
 002484 FFFFFFF4                   20177                             =A(-12)
 002488 FFFFFFF8                   20178                             =A(-8)
 00248C 00000008                   20179                             =A(8)
 002490 00000004                   20180                             =A(4)
 002494 00000001                   20181                             =AL4(1)
 002498 00003FF8                   20182                             =A(M1ATTN)
 00249C 00001436                   20183                             =A(CURSIB)
 0024A0 00000FAA                   20184                             =A(FREETBUF)
 0024A4 000040B4                   20185                             =A(M1IODONE)
 0024A8 00000000                   20186                             =V(TEXIT)
 0024AC 00000000                   20187                             =V(EXRDONE)
 0024B0 0006                       20188                             =Y(6)
 0024B2 15                         20189                             =X'15'
 0024B3 D9C4E3C5D9D4E7             20190                             =C'RDTERMX'
1TERMINAL (TERM00) (09:44) (22MAR04) Mode 1 Terminal Interface (MILTEN)                                                     Page  149
0Current Usings:  (PZERO,R0)
0Loc    Object Code    Addr1 Addr2  Stmt Lv Lineno    Source Statement           (Hibal 5, Asmedit 3.3)  HLASM R4.0  2004/03/22 09.44
+___    ______ ____    _____ _____  ____ __ ______    ______ _________
0                                  20195    2594.     *****************************************************************
                                   20196    2595.     *                                                               *
                                   20197    2596.     *   RDEDIT --  This is the Mode 1 Read edit routine             *
                                   20198    2597.     *                                                               *
                                   20199    2598.     *   Input  --  @M1IO                                            *
                                   20200    2599.     *                                                               *
                                   20201    2600.     *  Output  --  none                                             *
                                   20202    2601.     *                                                               *
                                   20203    2602.     *****************************************************************
-000000                00000 00006 20205    2604.     REWA     RECORD BEGIN
 000000                            20213  1 2605.     REOLOC     DS    A             Location of the output buffer
 000004                            20214  1 2606.     REOLEN     DS    H             Length of the output buffer
 000006                00006 00006 20215    2607.              END   ,
-0024BA                            20225    2609.     RDEDIT   PROC  @M1IO,REWA,SCOPE=LOCAL
 0024BA D9C4C5C4C9E34040           20232             +
 0024C2 0010/0008                  20233             +
 0024C6 900F D004/18AF       00004 20235             +
 USING  RDEDIT,R10
 0024CC 50D0 C000/18CD       00000 20250             +
 0024D2 9680 C000      00000       20252             +
 USING  @M1IO-72,R12
 AUSING (REWA,@M1IO+16)
 0024D6 41D0 C060            00060 20271             +
                                   20272    2610.     *
                                   20273    2611.     * Get our bearings
                                   20274    2612.     *
 0024DA 5860 0208            00208 20275    2613.              L     RX,PZCURASB             Get current ASB
 0024DE 5860 6030            00030 20276    2614.              WITH  (ASB,RX),'L RX,ASBTCCB' Get the MTCB Address
 USING  ASB,R6
 DROP   ASB,R6
 USING  MTCB,R6                    20300    2615.              WITH  (MTCB,RX)
 0024E2                            20313    2616.              CLEAR REWA                    Clear the work area
 0024E2 D705 C058 C058 00000 00000 20319             +
                                   20320    2617.     *
                                   20321    2618.     * Enforce 24 bit addressing
                                   20322    2619.     *
 0024E8 9140 C054      0000C       20323    2620.              IF    ~@M1IOM31,BEGIN
 0024EC 4710 A032            024F8 20333             +
 0024F0 9200 C048      00000       20338  1 2621.                MVI   @M1IOR01,0              Location of the input buffer
 0024F4 9200 C04C      00004       20339  1 2622.                MVI   @M1IOR14,0              Location of output data
 0024F8                            20340    2623.              END   ,
                                   20344    2624.     *
                                   20345    2625.     * Validate the input buffer
                                   20346    2626.     *
 0024F8 5840 C048            00000 20347    2627.              L     RJ,@M1IOR01             Get the location
 0024FC 4850 C052            0000A 20348    2628.              LH    RK,@M1IOR15+2           And the length
 002500 1255/47D0 A20C       026D2 20349    2629.              IF    (RK,NP),RDESPEC         Musn't be too small...
 USING  @VALBUF-72,R13             20366    2630.              VALBUF (RJ),(RK),MT1RKEY,W    Check it out
 002506 D707 D048 D048 00000 00000 20384             +
 00250C 5040 D048            00000 20394             +
1TERMINAL (TERM00) (09:44) (22MAR04) Mode 1 Terminal Interface (MILTEN)                                                     Page  150
0Current Usings:  (PZERO,R0) (MTCB,R6) (RDEDIT,R10) (@M1IO-72,R12) (@VALBUF-72,R13)
0Loc    Object Code    Addr1 Addr2  Stmt Lv Lineno    Source Statement           (Hibal 5, Asmedit 3.3)  HLASM R4.0  2004/03/22 09.44
+___    ______ ____    _____ _____  ____ __ ______    ______ _________
0002510 4050 D04C/1F00       00004 20404             +
 002516 4300 6072            00072 20416             +
 00251A 4200 D04E            00006 20422             +
 00251E 9680 D04F      00007       20428             +
 002522 58F0 A4B2/0DEF       02978 20434             +
 002528 1200/4770 A210       026D6 20436    2631.              IF    (RVR,NZ),RDEDONE        Some access exception
 00252E 5040 605C            0005C 20453    2632.              ST    RJ,MT1IBLOC             Save the input buffer location
 002532 5950 A4B6            0297C 20454    2633.              CEIL  RK,256                  No bigger than 256
 002536 47D0 A078            0253E 20463             +
 00253A 5850 A4B6            0297C 20468             +
 00253E 4050 6060            00060 20473    2634.              STH   RK,MT1IBLEN             Save the length
                                   20474    2635.     *
                                   20475    2636.     * Validate the output buffer
                                   20476    2637.     *
 002542 94DF 6073      00073       20477    2638.              CLEAR MT1FREWR                Default = no write data
 002546 5840 C04C/1244       00004 20484    2639.              LT    RJ,@M1IOR14             Get the location
 00254C 4780 A1E0            026A6 20488    2640.              IF    NZ,BEGIN                Some write data
 002550                            20499  1 2641.                VALBUF (RJ),LA:2,MT1RKEY      Check access to the length
 002550 D707 D048 D048 00000 00000 20510  1          +
 002556 5040 D048            00000 20520  1          +
 00255A 4100 0002            00002 20532  1          +
 00255E 4000 D04C/1F00       00004 20537  1          +
 002564 4300 6072            00072 20549  1          +
 002568 4200 D04E            00006 20555  1          +
 00256C 58F0 A4B2/0DEF       02978 20561  1          +
 002572 1200/4770 A210       026D6 20563  1 2642.                IF    (RVR,NZ),RDEDONE        Some access exeption
 002578 4850 4000            00000 20580  1 2643.                LH    RK,@RJ                  Get the length
 00257C 1255/4780 A1E0       026A6 20581  1 2644.                IF    (RK,Z),EXIT             No write data
 002582 1255/4740 A20C       026D2 20598  1 2645.                IF    (RK,NEG),RDESPEC        Length can't be negative
 002588 5950 A4BA            02980 20615  1 2646.                IF    (RK,GT,251),RDESPEC     Length <= 251
 00258C 4720 A20C            026D2 20629  1          +
 002590 4140 4002            00002 20635  1 2647.                LA    RJ,@RJ+2                Point at the output data
 002594                            20636  1 2648.                VALBUF (RJ),(RK),MT1RKEY      Validate it
 002594 D707 D048 D048 00000 00000 20647  1          +
 00259A 5040 D048            00000 20657  1          +
 00259E 4050 D04C/1F00       00004 20667  1          +
 0025A4 4300 6072            00072 20679  1          +
 0025A8 4200 D04E            00006 20685  1          +
 0025AC 58F0 A4B2/0DEF       02978 20691  1          +
 0025B2 1200/4770 A210       026D6 20693  1 2649.                IF    (RVR,NZ),RDEDONE        Done if any access exception
 0025B8 9620 6073      00073       20710  1 2650.                SET   MT1FREWR                Set read-edit write data flag
 0025BC 5040 C058            00000 20716  1 2651.                ST    RJ,REOLOC               Save the output location
 0025C0 4050 C05C            00004 20717  1 2652.                STH   RK,REOLEN               And the output length
                                   20718  1 2653.     *
                                   20719  1 2654.     * Ready to send the output data off to milten.
                                   20720  1 2655.     *
 0025C4 5880 6020            00020 20721  1 2656.                L     RM,MTCBIOPA             Get a parameter area
 USING  #SCSR,R8                   20722  1 2657.                WITH  (#SCSR,RM)
 0025C8                            20735  1 2658.                CLEAR #SCSR                   Clean it up
 0025C8 D717 8000 8000 00000 00000 20741  1          +
 0025CE 5870 6018            00018 20742  1 2659.                L     RY,MTCBPDB              Get a PDB to use
 USING  PDB,R7                     20743  1 2660.                WITH  (PDB,RY)
 0025D2                            20756  1 2661.                CLEAR PDB                     Clean it up too
 0025D2 D733 7000 7000 00004 00004 20762  1          +
1TERMINAL (TERM00) (09:44) (22MAR04) Mode 1 Terminal Interface (MILTEN)                                                     Page  151
0Current Usings:  (PZERO,R0) (MTCB,R6) (PDB,R7) (#SCSR,R8) (RDEDIT,R10) (@M1IO-72,R12) (@VALBUF-72,R13)
0Loc    Object Code    Addr1 Addr2  Stmt Lv Lineno    Source Statement           (Hibal 5, Asmedit 3.3)  HLASM R4.0  2004/03/22 09.44
+___    ______ ____    _____ _____  ____ __ ______    ______ _________
0                                  20763  1 2662.     *
                                   20764  1 2663.     * Format the PDB
                                   20765  1 2664.     *
 0025D8 D201 7000 6004 00004 00004 20766  1 2665.                MVC   PDBLIN#,MTCBLINE        Our milten line number
 0025DE 9241 7002      00006       20767  1 2666.                MVI   PDBCMD,TMILWRIT         The command
 0025E2 D20F 7010 6074 00014 00074 20768  1 2667.                MVC   PDBVINFO,MT1PGM         The program information
 DROP   @VALBUF-72,R13             20769  1 2668.                FIX   PDB,L'PDB               Fix it
 USING  @PAGE-72,R13
 0025E8 D708 D048 D048 00000 00000 20790  1          +
 0025EE 5070 D048            00000 20801  1          +
 0025F2 4100 0034            00034 20813  1          +
 0025F6 5000 D04C            00004 20818  1          +
 0025FA 58F0 A4BE/0DEF       02984 20821  1          +
 002600 5070 D04C            00004 20823  1 2669.                ADDSG PDB,L'PDB,#SCSR         Add it to the list to send
 DROP   @PAGE-72,R13
 USING  @ADDSEG-72,R13
 002604 4100 0034            00034 20860  1          +
 002608 4000 D050            00008 20865  1          +
 00260C 5080 D048            00000 20876  1          +
 002610 58F0 A4C2/0DEF       02988 20882  1          +
                                   20884  1 2670.     *
                                   20885  1 2671.     * Move the data into the buffer
                                   20886  1 2672.     *
 DROP   @ADDSEG-72,R13             20887  1 2673.                FIX   (RJ),(RK)
 USING  @PAGE-72,R13
 002616 D708 D048 D048 00000 00000 20908  1          +
 00261C 5040 D048            00000 20918  1          +
 002620 5050 D04C            00004 20928  1          +
 002624 58F0 A4BE/0DEF       02984 20931  1          +
 00262A 1255/4780 A17C       02642 20933  1 2674.                IF    (RK,NZ),BEGIN           Only if there is something
 002630 5040 D04C            00004 20947  2 2675.                  ADDSG (RJ),(RK),#SCSR         Add the user data
 DROP   @PAGE-72,R13
 USING  @ADDSEG-72,R13
 002634 4050 D050            00008 20981  2          +
 002638 5080 D048            00000 20992  2          +
 00263C 58F0 A4C2/0DEF       02988 20998  2          +
 002642                            21000  1 2676.                END   ,
                                   21004  1 2677.     *
                                   21005  1 2678.     * Add a trailing NL
                                   21006  1 2679.     *
 002642 4100 A504            029CA 21007  1 2680.                ADDSG =X'15',1,#SCSR          Add it to the buffer
 002646 5000 D04C            00004 21024  1          +
 00264A 4100 0001            00001 21036  1          +
 00264E 4000 D050            00008 21041  1          +
 002652 5080 D048            00000 21052  1          +
 002656 58F0 A4C2/0DEF       02988 21058  1          +
                                   21060  1 2681.     *
                                   21061  1 2682.     * Now we fill in the length of the data for milten
                                   21062  1 2683.     *
 00265C 4150 5001            00001 21063  1 2684.                LA    RK,@RK+1                Add the NL to the length
 002660 4050 702E            00032 21064  1 2685.                STH   RK,PDBWC                Save it in the write count
 002664 4150 3006            00006 21065  1 2686.                LA    RK,@RB+6                Needed for milten
 002668 4050 702A            0002E 21066  1 2687.                STH   RK,PDBOUTCT             Save it again
                                   21067  1 2688.     *
1TERMINAL (TERM00) (09:44) (22MAR04) Mode 1 Terminal Interface (MILTEN)                                                     Page  152
0Current Usings:  (PZERO,R0) (MTCB,R6) (PDB,R7) (#SCSR,R8) (RDEDIT,R10) (@M1IO-72,R12) (@ADDSEG-72,R13)
0Loc    Object Code    Addr1 Addr2  Stmt Lv Lineno    Source Statement           (Hibal 5, Asmedit 3.3)  HLASM R4.0  2004/03/22 09.44
+___    ______ ____    _____ _____  ____ __ ______    ______ _________
0                                  21068  1 2689.     * Send it off to milten
                                   21069  1 2690.     *
 00266C 58F0 A4C6/0DEF       0298C 21070  1 2691.                ACALL MILSX                   Send the transaction off
                                   21077  1 2692.     *
                                   21078  1 2693.     * Unfix the areas we fixed
                                   21079  1 2694.     *
 002672 5840 C058            00000 21080  1 2695.                L     RJ,REOLOC               Get the location again
 002676 4850 C05C            00004 21081  1 2696.                LH    RK,REOLEN               And the length
 DROP   @ADDSEG-72,R13             21082  1 2697.                UNFIX (RJ),(RK)               Unfix the user area
 USING  @PAGE-72,R13
 00267A D708 D048 D048 00000 00000 21103  1          +
 002680 5040 D048            00000 21113  1          +
 002684 5050 D04C            00004 21123  1          +
 002688 58F0 A4CA/0DEF       02990 21126  1          +
 00268E                            21128  1 2698.                UNFIX PDB,L'PDB               And the PDB too
 00268E D708 D048 D048 00000 00000 21139  1          +
 002694 5070 D048            00000 21150  1          +
 002698 4100 0034            00034 21162  1          +
 00269C 5000 D04C            00004 21167  1          +
 0026A0 58F0 A4CA/0DEF       02990 21170  1          +
 DROP   PDB,R7                     21172    2699.              END   ,                       ** End of the write data **
 DROP   #SCSR,R8
                                   21186    2700.     *
                                   21187    2701.     * We're doing a read, so we reset the idle attn counter
                                   21188    2702.     *
 0026A6 9200 6070      00070       21189    2703.              CLEAR MT1IACT                 Clear it up
                                   21196    2704.     *
                                   21197    2705.     * Schedule the task to handle the I/O completion
                                   21198    2706.     *
 DROP   @PAGE-72,R13               21199    2707.              PSET  @TCREATE
 USING  @TCREATE-72,R13
 0026AA D714 D048 D048 00000 00000 21219             +
 0026B0 D203 D048 A4CE 00000 02994 21220    2708.              MVC   @TCRPSW(4),=X'070C0000'
 0026B6 D203 D04C A4D2 00004 02998 21221    2709.              MVC   @TCRPSW+4(4),=A(X'80000000'+RDEDITX)
 0026BC D203 D058 A4D6 00010 0299C 21222    2710.              MVC   @TCRPRIO,=A(10)         Higher priority
 0026C2 9680 D05C      00014       21223    2711.              SET   @TCRFSTK                It will need a stack
 0026C6 58F0 A4DA/0DEF       029A0 21229    2712.              VCALL TCREATE                 Create the stack
                                   21233    2713.     *
                                   21234    2714.     * We are done with the SVC inline stuff, return to the caller
                                   21235    2715.     *
 0026CC 1B00                       21236    2716.              CLEAR RVR                     Good return
 0026CE 47F0 A210            026D6 21240    2717.              B     RDEDONE
                                   21241    2718.
 0026D2 4100 0006            00006 21242    2719.     RDESPEC  LA    RVR,6                   Cause a Specification error
 0026D6 981F C008            00008 21243    2720.     RDEDONE  PEND  ,
 DROP   MTCB,R6
 DROP   @M1IO-72,R12
 DROP   RDEDIT,R10
 0026DA 9680 C000/0B0E 00000       21264             +
 DROP   @TCREATE-72,R13
1TERMINAL (TERM00) (09:44) (22MAR04) Mode 1 Terminal Interface (MILTEN)                                                     Page  153
0Current Usings:  (PZERO,R0)
0Loc    Object Code    Addr1 Addr2  Stmt Lv Lineno    Source Statement           (Hibal 5, Asmedit 3.3)  HLASM R4.0  2004/03/22 09.44
+___    ______ ____    _____ _____  ____ __ ______    ______ _________
0                                  21274    2722.     *****************************************************************
                                   21275    2723.     *                                                               *
                                   21276    2724.     *  RDEDITX --  This is the Mode 1 Read edit completion task.    *
                                   21277    2725.     *                                                               *
                                   21278    2726.     *   Input  --  none                                             *
                                   21279    2727.     *                                                               *
                                   21280    2728.     *  Output  --  none                                             *
                                   21281    2729.     *                                                               *
                                   21282    2730.     *****************************************************************
-0026E0                            21284    2732.     RDEDITX  PROC  SCOPE=LOCAL
 0026E0 D9C4C5C4C9E3E740           21291             +
 0026E8 0000/0000                  21292             +
 0026EC 900F D004/18AF       00004 21294             +
 USING  RDEDITX,R10
 0026F2 50D0 C000/18CD       00000 21309             +
 0026F8 9680 C000      00000       21311             +
 0026FC 41D0 C048            00048 21312             +
                                   21313    2733.     *
                                   21314    2734.     * Get our bearings
                                   21315    2735.     *
 002700 5860 0208            00208 21316    2736.              L     RX,PZCURASB             Get the current ASB address
 002704 5860 6030            00030 21317    2737.              WITH  (ASB,RX),'L RX,ASBTCCB' Get the MTCB address
 USING  ASB,R6
 DROP   ASB,R6
 USING  MTCB,R6                    21341    2738.              WITH  (MTCB,RX)
                                   21354    2739.     *
                                   21355    2740.     * If there was write data on the request, we wait for the return
                                   21356    2741.     * from milten.
                                   21357    2742.     *
 002708 9120 6073      00073       21358    2743.              IF    MT1FREWR,BEGIN          There was write data
 00270C 47E0 A076            02762 21368             +
 002710 58F0 A2B8/0DEF       029A4 21373  1 2744.                ACALL MILRX                   Get the buffer back
 002716 1880                       21380  1 2745.                LR    RM,RVR                  Get the TBUF address
 USING  TBUF,R8                    21381  1 2746.                WITH  (TBUF,RM)               Address it
 AUSING (PDB,TBUFDATA)             21394  1 2747.                WITH  (PDB,TBUFDATA)          Address the PDB too
                                   21401  1 2748.     *        IF    (PDBCMD,NE,FMILWRIT),'ABORT *SEQERR'
 002718 9541 8012      00006       21402  1 2749.                IF    (PDBCMD,NE,FMILWRIT),BEGIN
 00271C 4780 A048            02734 21415  1          +
 002720 83000012/8408              21420  2 2750.                  ORVSNAP 'RDEDITXW',MODE=WTL
 002726 4100 A284            02970 21425  2          +
 00272A 83000012                   21426  2 2751.                  ORVSNAP TBUF,255
 00272E 14FF00008000               21430  2          +
 002734                            21431  1 2752.                END   ,
 002734 9180 8019      0000D       21435  1 2753.                IF    PDBCPLB.CPLBLGF,BEGIN
 002738 47E0 A066            02752 21446  1          +
 00273C 58F0 A2BC/0DEF       029A8 21451  2 2754.                  ACALL M1LOGOFF                Take care of the exit
 002742                            21458  2 2755.                  CLEAR MT1WR15                 Good return
 002742 D703 6058 6058 00058 00058 21464  2          +
 002748                            21465  2 2756.                  CLEAR MT1WR01                 But with no data
 002748 D703 6050 6050 00050 00050 21471  2          +
 00274E 47F0 A254            02940 21472  2 2757.                  B     RDEXDONE                Finish up here
 002752                            21473  1 2758.                END   ,
1TERMINAL (TERM00) (09:44) (22MAR04) Mode 1 Terminal Interface (MILTEN)                                                     Page  154
0Current Usings:  (PZERO,R0) (MTCB,R6) (TBUF,R8) (RDEDITX,R10) (@FRTBUF-72,R13)
0Loc    Object Code    Addr1 Addr2  Stmt Lv Lineno    Source Statement           (Hibal 5, Asmedit 3.3)  HLASM R4.0  2004/03/22 09.44
+___    ______ ____    _____ _____  ____ __ ______    ______ _________
0USING  @FRTBUF-72,R13             21477  1 2759.                FREEB TBUF                    Done with the buffer
 002752 D703 D048 D048 00000 00000 21495  1          +
 002758 5080 D048            00000 21506  1          +
 00275C 58F0 A2C0/0DEF       029AC 21512  1          +
 DROP   TBUF,R8                    21514    2760.              END   ,
                                   21523    2761.     *
                                   21524    2762.     * Now send the read edit request to WYLBUR
                                   21525    2763.     *
 002762 5880 6020            00020 21526    2764.              L     RM,MTCBIOPA             Get the parm area
 USING  #SCSR,R8                   21527    2765.              WITH  (#SCSR,RM)
 002766                            21540    2766.              CLEAR #SCSR                   Clear it out
 002766 D717 8000 8000 00000 00000 21546             +
 00276C 5870 6018            00018 21547    2767.              L     RY,MTCBPDB              Get a PDB
 USING  PDB,R7                     21548    2768.              WITH  (PDB,RY),BEGIN
 002770                            21562  1 2769.                CLEAR PDB                     Make sure it is all cleaned up
 002770 D733 7000 7000 00004 00004 21568  1          +
                                   21569  1 2770.     *
                                   21570  1 2771.     * Format the PDB
                                   21571  1 2772.     *
 002776 D201 7000 6004 00004 00004 21572  1 2773.                MVC   PDBLIN#,MTCBLINE        Move in the line number
 00277C 9247 7002      00006       21573  1 2774.                MVI   PDBCMD,TMILXCTL         We're going to transfer control
 002780 D207 7020 6006 00024 00006 21574  1 2775.                MVC   PDBSYSNM,MTCBWYLN       Move in wylbur's name
 002786 D20F 7010 6074 00014 00074 21575  1 2776.                MVC   PDBVINFO,MT1PGM         Program info
 00278C D201 702A A2DC 0002E 029C8 21576  1 2777.                MVC   PDBOUTCT,=Y(6)          6 + data count = 6
                                   21577  1 2778.     *
                                   21578  1 2779.     * Format the Wylbur command area in the PDB
                                   21579  1 2780.     *
 002792 9280 702C      00030       21580  1 2781.                MVI   FORVCMD,FORVREDT        Read edit command
 002796 9180 6028      00028       21581  1 2782.                IF    ~MTFLFRED,BEGIN         First read edit not done yet
 00279A 4710 A0BA            027A6 21591  1          +
 00279E 9680 6028      00028       21596  2 2783.                  SET   MTFLFRED                But it has now, set the flag
 0027A2 9204 702D      00031       21602  2 2784.                  MVI   FORVCMDM,REDTRSEN       And tell wylbur to re-send it
 0027A6                            21603  1 2785.                END   ,
 0027A6 9120 6028      00028       21607  1 2786.                IF    MTFLWATN,BEGIN          Someone hit ATTN
 0027AA 47E0 A0CA            027B6 21617  1          +
 0027AE 94DF 6028      00028       21622  2 2787.                  CLEAR MTFLWATN
 0027B2 9640 702E      00032       21629  2 2788.                  SET   REDTFATT                Tell Wylbur about the ATTN
 0027B6                            21635  1 2789.                END   ,
 0027B6 9110 6028      00028       21639  1 2790.                IF    MTFLWCME,BEGIN          There was a command error
 0027BA 47E0 A0DA            027C6 21649  1          +
 0027BE 94EF 6028      00028       21654  2 2791.                  CLEAR MTFLWCME
 0027C2 9680 702E      00032       21661  2 2792.                  SET   REDTFCME                Tell wylbur about it
 0027C6                            21667  1 2793.                END   ,
                                   21671  1 2794.     *
                                   21672  1 2795.     * Send it off
                                   21673  1 2796.     *
 DROP   @FRTBUF-72,R13             21674  1 2797.                FIX   PDB,L'PDB               Fix the PDB
 USING  @PAGE-72,R13
 0027C6 D708 D048 D048 00000 00000 21695  1          +
 0027CC 5070 D048            00000 21706  1          +
 0027D0 4100 0034            00034 21718  1          +
 0027D4 5000 D04C            00004 21723  1          +
 0027D8 58F0 A298/0DEF       02984 21726  1          +
 0027DE 5070 D04C            00004 21728  1 2798.                ADDSG PDB,L'PDB,#SCSR         Tell SCOM about it
1TERMINAL (TERM00) (09:44) (22MAR04) Mode 1 Terminal Interface (MILTEN)                                                     Page  155
0Current Usings:  (PZERO,R0) (MTCB,R6) (PDB,R7) (#SCSR,R8) (RDEDITX,R10) (@ADDSEG-72,R13)
0Loc    Object Code    Addr1 Addr2  Stmt Lv Lineno    Source Statement           (Hibal 5, Asmedit 3.3)  HLASM R4.0  2004/03/22 09.44
+___    ______ ____    _____ _____  ____ __ ______    ______ _________
0DROP   @PAGE-72,R13
 USING  @ADDSEG-72,R13
 0027E2 4100 0034            00034 21765  1          +
 0027E6 4000 D050            00008 21770  1          +
 0027EA 5080 D048            00000 21781  1          +
 0027EE 58F0 A29C/0DEF       02988 21787  1          +
 0027F4 58F0 A2A0/0DEF       0298C 21789  1 2799.                ACALL MILSX                   Send it to wylbur
 DROP   @ADDSEG-72,R13             21796  1 2800.                UNFIX PDB,L'PDB               Then unfix the PDB
 USING  @PAGE-72,R13
 0027FA D708 D048 D048 00000 00000 21817  1          +
 002800 5070 D048            00000 21828  1          +
 002804 4100 0034            00034 21840  1          +
 002808 5000 D04C            00004 21845  1          +
 00280C 58F0 A2A4/0DEF       02990 21848  1          +
 DROP   PDB,R7                     21850    2801.              END   ,
                                   21858    2802.     *
                                   21859    2803.     * Wait for a response
                                   21860    2804.     *
 002812 5810 601C            0001C 21861    2805.              L     RS,MTCBSIB              Get the SIB pointer
 USING  SIB,R1                     21862    2806.              WITH  (SIB,RS),BEGIN
 002816 9505 1048      00048       21876  1 2807.                IF    ~SIBTVIRT,'SET MTFLSLOW' Not very speedy
 00281A 4780 A136            02822 21886  1          +
 00281E 9640 6028      00028       21897  1          +
 DROP   SIB,R1                     21902    2808.              END   ,
 002822 58F0 A2B8/0DEF       029A4 21910    2809.              ACALL MILRX                   Wait for a response
 002828 1870                       21917    2810.              LR    RY,RVR                  Get the buffer
 USING  TBUF,R7                    21918    2811.              WITH  (TBUF,RY)
 AUSING (PDB,TBUFDATA)             21931    2812.              WITH  (PDB,TBUFDATA)          Address the return PDB
                                   21938    2813.     *
                                   21939    2814.     * Check out the response
                                   21940    2815.     *
                                   21941    2816.     *        IF    (PDBCMD,NE,FMILXCTL),'ABORT *SEQERR'
 00282A 9547 7012      00006       21942    2817.              IF    (PDBCMD,NE,FMILXCTL),BEGIN
 00282E 4780 A15A            02846 21955             +
 002832 83000012/8407              21960  1 2818.                ORVSNAP 'RDEDITX',MODE=WTL
 002838 4100 A2DF            029CB 21965  1          +
 00283C 83000012                   21966  1 2819.                ORVSNAP TBUF,255
 002840 14FF00007000               21970  1          +
 002846                            21971    2820.              END   ,
                                   21975    2821.     *
                                   21976    2822.     *  If Wylbur is not there log this user off
                                   21977    2823.     *
 002846                            21978    2824.              IF    (PDBSYSNM,Z),'SET  PDBCPLB.CPLBLGF'  Wylbur is gone
 002846 D607 7030 7030 00024 00024 21988             +
 00284C 4770 A168            02854 21989             +
 002850 9680 7019      0000D       22001             +
                                   22006    2825.     *
                                   22007    2826.     *  User needs to be logged off
                                   22008    2827.     *
 002854 9180 7019      0000D       22009    2828.              IF    PDBCPLB.CPLBLGF,BEGIN   User logging off
 002858 47E0 A186            02872 22020             +
 00285C 58F0 A2BC/0DEF       029A8 22025  1 2829.                ACALL M1LOGOFF
 002862                            22032  1 2830.                CLEAR MT1WR01
 002862 D703 6050 6050 00050 00050 22038  1          +
1TERMINAL (TERM00) (09:44) (22MAR04) Mode 1 Terminal Interface (MILTEN)                                                     Page  156
0Current Usings:  (PZERO,R0) (MTCB,R6) (TBUF,R7) (#SCSR,R8) (RDEDITX,R10) (@PAGE-72,R13)
0Loc    Object Code    Addr1 Addr2  Stmt Lv Lineno    Source Statement           (Hibal 5, Asmedit 3.3)  HLASM R4.0  2004/03/22 09.44
+___    ______ ____    _____ _____  ____ __ ______    ______ _________
0002868                            22039  1 2831.                CLEAR MT1WR15                 Clear the length and RC
 002868 D703 6058 6058 00058 00058 22045  1          +
 00286E 47F0 A254            02940 22046  1 2832.                B     RDEXDONE                And finish up here
 002872                            22047    2833.              END   ,
                                   22051    2834.     *
                                   22052    2835.     * Save off Wylbur's name for the next I/O
                                   22053    2836.     *
 002872 D207 6006 7030 00006 00024 22054    2837.              MVC   MTCBWYLN,PDBSYSNM       Save Wylbur's name
                                   22055    2838.     *
                                   22056    2839.     * We only support a return of an illegal command
                                   22057    2840.     *
                                   22058    2841.     *        IF    ((FWYLRTNC,NE,RTNCILLC),AND,(FWYLRTNC,NE,X'00')),
                                   22059    2842.     *              'ABORT BADRCRE'
                                   22060    2843.     *
                                   22061    2844.     * Make sure the buffer is still ok
                                   22062    2845.     *
 002878 58F0 A2C4/0DEF       029B0 22063    2846.              VCALL ASLOCK
 00287E 5840 605C            0005C 22067    2847.              L     RJ,MT1IBLOC             Get the buffer location
 002882 4850 6060            00060 22068    2848.              LH    RK,MT1IBLEN             And its length
 DROP   @PAGE-72,R13               22069    2849.              VALBUF (RJ),(RK),MT1RKEY,W    Verify the location
 USING  @VALBUF-72,R13
 002886 D707 D048 D048 00000 00000 22090             +
 00288C 5040 D048            00000 22100             +
 002890 4050 D04C/1F00       00004 22110             +
 002896 4300 6072            00072 22122             +
 00289A 4200 D04E            00006 22128             +
 00289E 9680 D04F      00007       22134             +
 0028A2 58F0 A28C/0DEF       02978 22140             +
 0028A8 1200/4780 A1F2       028DE 22142    2850.              IF    (RVR,NZ),'ABORT BADIVA' It is now no good
 0028AE AC04 021B      0021B       22160  1          +
 0028B2 9680 021A      0021A       22166  1          +
 0028B6 50F0 021C            0021C 22167  1          +
 0028BA 58F0 0210            00210 22168  1          +
 0028BE 89F0 0010            00010 22169  1          +
 0028C2 88F0 0010            00010 22170  1          +
 0028C6 41F0 F000            00000 22171  1          +
 0028CA AEFF 0006            00006 22172  1          +
 0028CE C2C1C4C9E5C14040           22173             +
                                   22178    2851.     *
                                   22179    2852.     * Set the return registers and move the data in
                                   22180    2853.     *
 0028DE                            22181    2854.              CLEAR MT1WR15                 Always a zero Return code
 0028DE D703 6058 6058 00058 00058 22187             +
 0028E4 1B11                       22188    2855.              CLEAR RS                      "Typed" return code
 0028E6 9180 703D      00031       22192    2856.              IF    (FWYLFL.FWYLFNT),'LA  RS,1'   "Not typed" code
 0028EA 47E0 A206            028F2 22203             +
 0028EE 4110 0001            00001 22209             +
 0028F2 5010 6054            00054 22214    2857.              ST    RS,MT1WR14              Set source code
 0028F6 4830 703E            00032 22215    2858.              LH    RB,REDTTXTL             Get the returned length
 0028FA 1953/47D0 A216       02902 22216    2859.              CEIL  RK,RB                   Move no more than we have data
 002900 1853                       22221             +
 002902 5050 6050            00050 22222    2860.              ST    RK,MT1WR01              Return it to the caller
 002906 1233/4780 A226       02912 22223    2861.              IF    (RB,NZ),BEGIN
 00290C 4120 7044            00038 22237  1 2862.                LA    RA,FWYLTEXT             Move no more than the buffer
1TERMINAL (TERM00) (09:44) (22MAR04) Mode 1 Terminal Interface (MILTEN)                                                     Page  157
0Current Usings:  (PZERO,R0) (MTCB,R6) (TBUF,R7) (#SCSR,R8) (RDEDITX,R10) (@VALBUF-72,R13)
0Loc    Object Code    Addr1 Addr2  Stmt Lv Lineno    Source Statement           (Hibal 5, Asmedit 3.3)  HLASM R4.0  2004/03/22 09.44
+___    ______ ____    _____ _____  ____ __ ______    ______ _________
0002910 0E42                       22238  1 2863.                MVCL  RJ,RA                   Move the data in
 002912                            22239    2864.              END   ,
 002912 58F0 A2C8/0DEF       029B4 22243    2865.              VCALL ASULOCK                 Free up the lock
                                   22247    2866.     *
                                   22248    2867.     * Check for an Attention return from the read edit
                                   22249    2868.     *
 002918                            22250    2869.              IF    (MT1WR01,Z),BEGIN       A zero return length indicator
 002918 D603 6050 6050 00050 00050 22260             +
 00291E 4770 A240            0292C 22261             +
 002922 9202 6070      00070       22266  1 2870.                MVI   MT1IACT,2               Generate enough ATTNs
 002926 58F0 A2CC/0DEF       029B8 22267  1 2871.                ACALL M1ATTN                  Then call the ATTN routine
 00292C                            22274    2872.              END   ,
                                   22278    2873.     *
                                   22279    2874.     * Finish up the read
                                   22280    2875.     *
 00292C 5810 601C            0001C 22281    2876.              L     RS,MTCBSIB              Get the SIB pointer
 USING  SIB,R1                     22282    2877.              WITH  (SIB,RS),BEGIN
 002930                            22296  1 2878.                IF    (PDBSUC,NE,SIBUC),'ACALL CURSIB'  Update it
 002930 D501 7038 1080 0002C 00080 22308  1          +
 002936 4780 A254            02940 22309  1          +
 00293A 58F0 A2D0/0DEF       029BC 22320  1          +
 DROP   SIB,R1                     22326    2879.              END   ,
                                   22334    2880.     *
                                   22335    2881.     * Finish up the task
                                   22336    2882.     *
 DROP   @VALBUF-72,R13             22337    2883.     RDEXDONE FREEB TBUF                    Then free the buffer
 USING  @FRTBUF-72,R13
 002940 D703 D048 D048 00000 00000 22359             +
 002946 5070 D048            00000 22370             +
 00294A 58F0 A2C0/0DEF       029AC 22376             +
 002950 58F0 A2D4/0DEF       029C0 22378    2884.              ACALL M1IODONE                Signal the I/O complete
 DROP   @FRTBUF-72,R13             22385    2885.              PSET  @TEXIT
 USING  @TEXIT-72,R13
 002956 D703 D048 D048 00000 00000 22405             +
 00295C 58F0 A2D8/0DEF       029C4 22406    2886.              VCALL TEXIT
 002962 981F C008            00008 22410    2887.              PEND  ,
 DROP   TBUF,R7
 DROP   #SCSR,R8
 DROP   MTCB,R6
 DROP   RDEDITX,R10
 002966 9680 C000/0B0E 00000       22435             +
 DROP   @TEXIT-72,R13
1TERMINAL (TERM00) (09:44) (22MAR04) Mode 1 Terminal Interface (MILTEN)                                                     Page  158
0Current Usings:  (PZERO,R0)
0Loc    Object Code    Addr1 Addr2  Stmt Lv Lineno    Source Statement           (Hibal 5, Asmedit 3.3)  HLASM R4.0  2004/03/22 09.44
+___    ______ ____    _____ _____  ____ __ ______    ______ _________
0002970                            22445    2889.              LTORG ,
 002970 D9C4C5C4C9E3E7E6           22447                             =C'RDEDITXW'
 002978 000041A0                   22448                             =A(VALBUF)
 00297C 00000100                   22449                             =A(256)
 002980 000000FB                   22450                             =A(251)
 002984 00000000                   22451                             =V(PAGFIX)
 002988 000010B6                   22452                             =A(ADDSEG)
 00298C 00001178                   22453                             =A(MILSX)
 002990 00000000                   22454                             =V(PAGUFIX)
 002994 070C0000                   22455                             =X'070C0000'
 002998 800026EC                   22456                             =A(X'80000000'+RDEDITX)
 00299C 0000000A                   22457                             =A(10)
 0029A0 00000000                   22458                             =V(TCREATE)
 0029A4 0000137A                   22459                             =A(MILRX)
 0029A8 00004054                   22460                             =A(M1LOGOFF)
 0029AC 00000FAA                   22461                             =A(FREETBUF)
 0029B0 00000000                   22462                             =V(ASLOCK)
 0029B4 00000000                   22463                             =V(ASULOCK)
 0029B8 00003FF8                   22464                             =A(M1ATTN)
 0029BC 00001436                   22465                             =A(CURSIB)
 0029C0 000040B4                   22466                             =A(M1IODONE)
 0029C4 00000000                   22467                             =V(TEXIT)
 0029C8 0006                       22468                             =Y(6)
 0029CA 15                         22469                             =X'15'
 0029CB D9C4C5C4C9E3E7             22470                             =C'RDEDITX'
1TERMINAL (TERM00) (09:44) (22MAR04) Mode 1 Terminal Interface (MILTEN)                                                     Page  159
0Current Usings:  (PZERO,R0)
0Loc    Object Code    Addr1 Addr2  Stmt Lv Lineno    Source Statement           (Hibal 5, Asmedit 3.3)  HLASM R4.0  2004/03/22 09.44
+___    ______ ____    _____ _____  ____ __ ______    ______ _________
0                                  22475    2891.     *****************************************************************
                                   22476    2892.     *                                                               *
                                   22477    2893.     *   RDTEXT --  This is the Mode 1 Read Text routine.            *
                                   22478    2894.     *                                                               *
                                   22479    2895.     *   Input  --  @M1IO                                            *
                                   22480    2896.     *                                                               *
                                   22481    2897.     *  Output  --  none                                             *
                                   22482    2898.     *                                                               *
                                   22483    2899.     *****************************************************************
-000000                00000 00008 22485    2901.     RXWA     RECORD BEGIN
 000000                            22493  1 2902.     RXCLOC     DS    A             Location of the control info
 000004                            22494  1 2903.     RXCLEN     DS    H             Length of the control info
 000006                            22495  1 2904.     RXCODE     DS    X             Request code for WYLBUR
 000007                            22496  1 2905.     RXLRECL    DS    X             LRECL
 000008                00008 00008 22497    2906.              END   ,
-0029D2                            22507    2908.     RDTEXT   PROC  @M1IO,RXWA,SCOPE=LOCAL
 0029D2 D9C4E3C5E7E34040           22514             +
 0029DA 0010/0008                  22515             +
 0029DE 900F D004/18AF       00004 22517             +
 USING  RDTEXT,R10
 0029E4 50D0 C000/18CD       00000 22532             +
 0029EA 9680 C000      00000       22534             +
 USING  @M1IO-72,R12
 AUSING (RXWA,@M1IO+16)
 0029EE 41D0 C060            00060 22553             +
                                   22554    2909.     *
                                   22555    2910.     * Get our bearings
                                   22556    2911.     *
 0029F2 5860 0208            00208 22557    2912.              L     RX,PZCURASB             Get current ASB
 0029F6 5860 6030            00030 22558    2913.              WITH  (ASB,RX),'L RX,ASBTCCB' Get the MTCB Adddress
 USING  ASB,R6
 DROP   ASB,R6
 USING  MTCB,R6                    22582    2914.              WITH  (MTCB,RX)
 0029FA                            22595    2915.              CLEAR RXWA                    Clear the work area
 0029FA D707 C058 C058 00000 00000 22601             +
                                   22602    2916.     *
                                   22603    2917.     * Enforce 24 bit addressing
                                   22604    2918.     *
 002A00 9140 C054      0000C       22605    2919.              IF    ~@M1IOM31,BEGIN
 002A04 4710 A032            02A10 22615             +
 002A08 9200 C048      00000       22620  1 2920.                MVI   @M1IOR01,0              Location of the input buffer
 002A0C 9200 C04C      00004       22621  1 2921.                MVI   @M1IOR14,0              Location of output data
 002A10                            22622    2922.              END   ,
                                   22626    2923.     *
                                   22627    2924.     * Validate the input buffer
                                   22628    2925.     *
 002A10 5840 C048            00000 22629    2926.              L     RJ,@M1IOR01             Get the location
 002A14 4850 C052            0000A 22630    2927.              LH    RK,@M1IOR15+2           And the length
 002A18 1255/47D0 A352       02D30 22631    2928.              IF    (RK,NP),RDXSPEC         Musn't be too small...
 002A1E 5950 A4FA            02ED8 22648    2929.              IF    (RK,GT,8192),RDXSPEC    or too big.
1TERMINAL (TERM00) (09:44) (22MAR04) Mode 1 Terminal Interface (MILTEN)                                                     Page  160
0Current Usings:  (PZERO,R0) (MTCB,R6) (RDTEXT,R10) (@M1IO-72,R12)
0Loc    Object Code    Addr1 Addr2  Stmt Lv Lineno    Source Statement           (Hibal 5, Asmedit 3.3)  HLASM R4.0  2004/03/22 09.44
+___    ______ ____    _____ _____  ____ __ ______    ______ _________
0002A22 4720 A352            02D30 22662             +
 002A26 1824                       22668    2930.              LR    RA,RJ                   Addr of the first byte
 002A28 4135 2000            00000 22669    2931.              LA    RB,@RA(RK)              Addr of last byte+1
 002A2C 0630                       22670    2932.              DECR  RB                      Addr of the last byte
 002A2E 5420 A4FE            02EDC 22672    2933.              N     RA,=X'7FFFF000'         Page addr of first byte
 002A32 5430 A4FE            02EDC 22673    2934.              N     RB,=X'7FFFF000'         Page addr of last byte
 002A36 1B32                       22674    2935.              SR    RB,RA                   difference
 002A38 5930 A502            02EE0 22675    2936.              IF    (RB,GT,4096),RDXSPEC    Crosses 2 or more page bdys
 002A3C 4720 A352            02D30 22689             +
 USING  @VALBUF-72,R13             22695    2937.              VALBUF (RJ),(RK),MT1RKEY,W    Check it out
 002A40 D707 D048 D048 00000 00000 22713             +
 002A46 5040 D048            00000 22723             +
 002A4A 4050 D04C/1F00       00004 22733             +
 002A50 4300 6072            00072 22745             +
 002A54 4200 D04E            00006 22751             +
 002A58 9680 D04F      00007       22757             +
 002A5C 58F0 A506/0DEF       02EE4 22763             +
 002A62 1200/4770 A356       02D34 22765    2938.              IF    (RVR,NZ),RDXDONE        Some access exception
 002A68 5040 605C            0005C 22782    2939.              ST    RJ,MT1IBLOC             Save the input buffer location
 002A6C 4050 6060            00060 22783    2940.              STH   RK,MT1IBLEN             And the length
                                   22784    2941.     *
                                   22785    2942.     * Validate the control buffer
                                   22786    2943.     *
 002A70 5840 C04C            00004 22787    2944.              L     RJ,@M1IOR14             Get the control buf location
 002A74 1244/4780 A352       02D30 22788    2945.              IF    (RJ,Z),RDXSPEC          We must have something
 002A7A                            22805    2946.              VALBUF (RJ),LA:8,MT1RKEY      Always read 8 bytes
 002A7A D707 D048 D048 00000 00000 22816             +
 002A80 5040 D048            00000 22826             +
 002A84 4100 0008            00008 22838             +
 002A88 4000 D04C/1F00       00004 22843             +
 002A8E 4300 6072            00072 22855             +
 002A92 4200 D04E            00006 22861             +
 002A96 58F0 A506/0DEF       02EE4 22867             +
 002A9C 1200/4770 A356       02D34 22869    2947.              IF    (RVR,NZ),RDXDONE        Some access exception
 002AA2 1B22                       22886    2948.              CLEAR RA
 002AA4 4830 4000            00000 22890    2949.              LH    RB,@RJ                  Get the code number
 002AA8 5D20 A50A            02EE8 22891    2950.              D     RA,=A(100)              Split them up
 002AAC 5920 A50E            02EEC 22892    2951.              IF    (RA,GT,6),RDXSPEC       Invalid code
 002AB0 4720 A352            02D30 22906             +
 002AB4 5930 A512            02EF0 22912    2952.              IF    (RB,GT,4),RDXSPEC       Invalid option
 002AB8 4720 A352            02D30 22926             +
 002ABC 4220 C05E            00006 22932    2953.              STC   RA,RXCODE               Save the code
                                   22933    2954.     *
                                   22934    2955.     * Take care of the option modifier
                                   22935    2956.     *
 002AC0 5930 A516            02EF4 22936    2957.              IF    (RB,EQ,1),BEGIN         NOTEXT format
 002AC4 4770 A0EE            02ACC 22948             +
 002AC8 9680 C05E      00006       22953  1 2958.                SET   RXCODE.RTXTNOT
 002ACC                            22960    2959.              END   ,
 002ACC 5930 A51A            02EF8 22964    2960.              IF    (RB,EQ,2),BEGIN         LRECL format
 002AD0 4770 A106            02AE4 22976             +
 002AD4 4810 C050            00008 22981  1 2961.                LH    RS,@M1IOR15             Get the user LRECL
 002AD8 5910 A51E            02EFC 22982  1 2962.                IF    (RS,GT,255),RDXSPEC     Must be 255 or less
 002ADC 4720 A352            02D30 22996  1          +
1TERMINAL (TERM00) (09:44) (22MAR04) Mode 1 Terminal Interface (MILTEN)                                                     Page  161
0Current Usings:  (PZERO,R0) (MTCB,R6) (RDTEXT,R10) (@M1IO-72,R12) (@VALBUF-72,R13)
0Loc    Object Code    Addr1 Addr2  Stmt Lv Lineno    Source Statement           (Hibal 5, Asmedit 3.3)  HLASM R4.0  2004/03/22 09.44
+___    ______ ____    _____ _____  ____ __ ______    ______ _________
0002AE0 4210 C05F            00007 23002  1 2963.                STC   RS,RXLRECL              Save it
 002AE4                            23003    2964.              END   ,
 002AE4 5930 A522            02F00 23007    2965.              IF    (RB,EQ,3),BEGIN         CARD format
 002AE8 4770 A116            02AF4 23019             +
 002AEC 9640 C05E      00006       23024  1 2966.                SET   RXCODE.RTXTNUM
 002AF0 9250 C05F      00007       23031  1 2967.                MVI   RXLRECL,80
 002AF4                            23032    2968.              END   ,
 002AF4 5930 A512            02EF0 23036    2969.              IF    (RB,EQ,4),BEGIN         INTEGER format
 002AF8 4770 A126            02B04 23048             +
 002AFC 9620 C05E      00006       23053  1 2970.                SET   RXCODE.RTXTINT
 002B00 9250 C05F      00007       23060  1 2971.                MVI   RXLRECL,80
 002B04                            23061    2972.              END   ,
                                   23065    2973.     *
                                   23066    2974.     * Now validate the rest of the information in the control area
                                   23067    2975.     *
 002B04 4140 4002            00002 23068    2976.              LA    RJ,@RJ+2                Point past the option code
 002B08 5040 C058            00000 23069    2977.              ST    RJ,RXCLOC               Save the control area loc
 002B0C 5920 A522            02F00 23070    2978.              IF    (RA,LT,3),BEGIN         Short fellas
 002B10 47B0 A140            02B1E 23082             +
 002B14 D201 C05C A566 00004 02F44 23087  1 2979.                MVC   RXCLEN,=Y(6)            Length of the control info
 002B1A 47F0 A202            02BE0 23088  1 2980.                B     CBUFOK                  Done checking
 002B1E                            23089    2981.              END   ,
 002B1E 5920 A522            02F00 23093    2982.              IF    (RA,EQ,3),BEGIN         A bit longer
 002B22 4770 A17E            02B5C 23105             +
 002B26 4140 4006            00006 23110  1 2983.                LA    RJ,@RJ+6                Point at the area
 002B2A                            23111  1 2984.                VALBUF (RJ),LA:4,MT1RKEY      Check 4 more bytes
 002B2A D707 D048 D048 00000 00000 23122  1          +
 002B30 5040 D048            00000 23132  1          +
 002B34 4100 0004            00004 23144  1          +
 002B38 4000 D04C/1F00       00004 23149  1          +
 002B3E 4300 6072            00072 23161  1          +
 002B42 4200 D04E            00006 23167  1          +
 002B46 58F0 A506/0DEF       02EE4 23173  1          +
 002B4C 1200/4770 A356       02D34 23175  1 2985.                IF    (RVR,NZ),RDXDONE        Some access exception
 002B52 D201 C05C A568 00004 02F46 23192  1 2986.                MVC   RXCLEN,=Y(10)           Length of the control area
 002B58 47F0 A202            02BE0 23193  1 2987.                B     CBUFOK                  Then we're all done checking
 002B5C                            23194    2988.              END   ,
                                   23198    2989.     *
                                   23199    2990.     * Codes 4,5, and 6 have string data as well
                                   23200    2991.     *
 002B5C 4140 4006            00006 23201    2992.              LA    RJ,@RJ+6                Point at the unchecked area
 002B60                            23202    2993.              VALBUF (RJ),LA:10,MT1RKEY     Validate the needed stuff
 002B60 D707 D048 D048 00000 00000 23213             +
 002B66 5040 D048            00000 23223             +
 002B6A 4100 000A            0000A 23235             +
 002B6E 4000 D04C/1F00       00004 23240             +
 002B74 4300 6072            00072 23252             +
 002B78 4200 D04E            00006 23258             +
 002B7C 58F0 A506/0DEF       02EE4 23264             +
 002B82 1200/4770 A356       02D34 23266    2994.              IF    (RVR,NZ),RDXDONE        Access exception
 002B88 D201 C05C A56A 00004 02F48 23283    2995.              MVC   RXCLEN,=Y(16)           Length of the control info
 002B8E 4140 4008            00008 23284    2996.              LA    RJ,@RJ+8                Location of the string length
 002B92 4850 4000            00000 23285    2997.              LH    RK,@RJ                  Get the length
 002B96 1255/4770 A1CA       02BA8 23286    2998.              IF    (RK,Z),BEGIN            No text
1TERMINAL (TERM00) (09:44) (22MAR04) Mode 1 Terminal Interface (MILTEN)                                                     Page  162
0Current Usings:  (PZERO,R0) (MTCB,R6) (RDTEXT,R10) (@M1IO-72,R12) (@VALBUF-72,R13)
0Loc    Object Code    Addr1 Addr2  Stmt Lv Lineno    Source Statement           (Hibal 5, Asmedit 3.3)  HLASM R4.0  2004/03/22 09.44
+___    ______ ____    _____ _____  ____ __ ______    ______ _________
0002B9C 5920 A512            02EF0 23300  1 2999.                IF    (RA,NE,4),RDXSPEC       Only allowed for code 4
 002BA0 4770 A352            02D30 23314  1          +
 002BA4 47F0 A202            02BE0 23320  1 3000.                B     CBUFOK
 002BA8                            23321    3001.              END   ,
 002BA8 5950 A51E            02EFC 23325    3002.              IF    (RK,GT,255),RDXSPEC     Not too big either
 002BAC 4720 A352            02D30 23339             +
 002BB0 4140 4002            00002 23345    3003.              LA    RJ,@RJ+2                Address of the text
 002BB4                            23346    3004.              VALBUF (RJ),(RK),MT1RKEY      Make sure we can read it
 002BB4 D707 D048 D048 00000 00000 23357             +
 002BBA 5040 D048            00000 23367             +
 002BBE 4050 D04C/1F00       00004 23377             +
 002BC4 4300 6072            00072 23389             +
 002BC8 4200 D04E            00006 23395             +
 002BCC 58F0 A506/0DEF       02EE4 23401             +
 002BD2 1200/4770 A356       02D34 23403    3005.              IF    (RVR,NZ),RDXDONE        Some access execption
 002BD8 4A50 C05C            00004 23420    3006.              AH    RK,RXCLEN               Add the control length
 002BDC 4050 C05C            00004 23421    3007.              STH   RK,RXCLEN               And update the value
                                   23422    3008.     *
                                   23423    3009.     * The information passed to us is all checked out... Format the
                                   23424    3010.     * PDB to send it to WYLBUR
                                   23425    3011.     *
 002BE0 5880 6020            00020 23426    3012.     CBUFOK   L     RM,MTCBIOPA             Get a parameter area
 USING  #SCSR,R8                   23427    3013.              WITH  (#SCSR,RM)
 002BE4                            23440    3014.              CLEAR #SCSR                   Clean it up
 002BE4 D717 8000 8000 00000 00000 23446             +
 002BEA 5870 6018            00018 23447    3015.              L     RY,MTCBPDB              Get a PDB to use
 USING  PDB,R7                     23448    3016.              WITH  (PDB,RY)
 002BEE                            23461    3017.              CLEAR PDB                     Clean it up too
 002BEE D733 7000 7000 00004 00004 23467             +
                                   23468    3018.     *
                                   23469    3019.     * Format the PDB
                                   23470    3020.     *
 002BF4 D201 7000 6004 00004 00004 23471    3021.              MVC   PDBLIN#,MTCBLINE        Our milten line number
 002BFA 9247 7002      00006       23472    3022.              MVI   PDBCMD,TMILXCTL         The command
 002BFE D207 7020 6006 00024 00006 23473    3023.              MVC   PDBSYSNM,MTCBWYLN       We're sending it to WYLBUR
 002C04 D20F 7010 6074 00014 00074 23474    3024.              MVC   PDBVINFO,MT1PGM         The program information
 002C0A 9220 702C      00030       23475    3025.              MVI   FORVCMD,FORVRTXT        Tell WYLBUR its a Read Text
 002C0E 9280 702D      00031       23476    3026.              MVI   FORVCMDM,RTXTFNLP       No locked page passes
 002C12 D201 7032 6060 00036 00060 23477    3027.              MVC   RTXTRLEN,MT1IBLEN       Amount of data we'll accept
 002C18 4810 C05C            00004 23478    3028.              LH    RS,RXCLEN               Get the length of his data
 002C1C 4110 1002            00002 23479    3029.              LA    RS,@RS+2                Count the code and lrecl
 002C20 4110 1006            00006 23480    3030.              LA    RS,@RS+6                Always add 6
 002C24 4010 702A            0002E 23481    3031.              STH   RS,PDBOUTCT             Tell WYLBUR all about it
 DROP   @VALBUF-72,R13             23482    3032.              FIX   PDB,L'PDB               Fix it
 USING  @PAGE-72,R13
 002C28 D708 D048 D048 00000 00000 23503             +
 002C2E 5070 D048            00000 23514             +
 002C32 4100 0034            00034 23526             +
 002C36 5000 D04C            00004 23531             +
 002C3A 58F0 A526/0DEF       02F04 23534             +
 002C40 5070 D04C            00004 23536    3033.              ADDSG PDB,L'PDB,#SCSR         Add it to the list to send
 DROP   @PAGE-72,R13
 USING  @ADDSEG-72,R13
 002C44 4100 0034            00034 23573             +
1TERMINAL (TERM00) (09:44) (22MAR04) Mode 1 Terminal Interface (MILTEN)                                                     Page  163
0Current Usings:  (PZERO,R0) (MTCB,R6) (PDB,R7) (#SCSR,R8) (RDTEXT,R10) (@M1IO-72,R12) (@ADDSEG-72,R13)
0Loc    Object Code    Addr1 Addr2  Stmt Lv Lineno    Source Statement           (Hibal 5, Asmedit 3.3)  HLASM R4.0  2004/03/22 09.44
+___    ______ ____    _____ _____  ____ __ ______    ______ _________
0002C48 4000 D050            00008 23578             +
 002C4C 5080 D048            00000 23589             +
 002C50 58F0 A52A/0DEF       02F08 23595             +
 DROP   @ADDSEG-72,R13             23597    3034.              FIX   RXCODE,2                Fix the code/lrecl
 USING  @PAGE-72,R13
 002C56 D708 D048 D048 00000 00000 23618             +
 002C5C 4100 C05E            00006 23630             +
 002C60 5000 D048            00000 23635             +
 002C64 4100 0002            00002 23647             +
 002C68 5000 D04C            00004 23652             +
 002C6C 58F0 A526/0DEF       02F04 23655             +
 002C72 4100 C05E            00006 23657    3035.              ADDSG RXCODE,2,#SCSR          Add it to the list
 DROP   @PAGE-72,R13
 USING  @ADDSEG-72,R13
 002C76 5000 D04C            00004 23688             +
 002C7A 4100 0002            00002 23700             +
 002C7E 4000 D050            00008 23705             +
 002C82 5080 D048            00000 23716             +
 002C86 58F0 A52A/0DEF       02F08 23722             +
 002C8C 5840 C058            00000 23724    3036.              L     RJ,RXCLOC               Location of the user data
 002C90 4850 C05C            00004 23725    3037.              LH    RK,RXCLEN               Length of his data
 DROP   @ADDSEG-72,R13             23726    3038.              FIX   (RJ),(RK)               Fix his area
 USING  @PAGE-72,R13
 002C94 D708 D048 D048 00000 00000 23747             +
 002C9A 5040 D048            00000 23757             +
 002C9E 5050 D04C            00004 23767             +
 002CA2 58F0 A526/0DEF       02F04 23770             +
 002CA8 5040 D04C            00004 23772    3039.              ADDSG (RJ),(RK),#SCSR         Add it to the list to go
 DROP   @PAGE-72,R13
 USING  @ADDSEG-72,R13
 002CAC 4050 D050            00008 23806             +
 002CB0 5080 D048            00000 23817             +
 002CB4 58F0 A52A/0DEF       02F08 23823             +
                                   23825    3040.     *
                                   23826    3041.     * Send it off to milten
                                   23827    3042.     *
 002CBA 58F0 A52E/0DEF       02F0C 23828    3043.              ACALL MILSX                   Send the transaction off
                                   23835    3044.     *
                                   23836    3045.     * Unfix the areas we fixed
                                   23837    3046.     *
 DROP   @ADDSEG-72,R13             23838    3047.              UNFIX (RJ),(RK)               Unfix the user area
 USING  @PAGE-72,R13
 002CC0 D708 D048 D048 00000 00000 23859             +
 002CC6 5040 D048            00000 23869             +
 002CCA 5050 D04C            00004 23879             +
 002CCE 58F0 A532/0DEF       02F10 23882             +
 002CD4                            23884    3048.              UNFIX RXCODE,2                The code/lrecl
 002CD4 D708 D048 D048 00000 00000 23895             +
 002CDA 4100 C05E            00006 23907             +
 002CDE 5000 D048            00000 23912             +
 002CE2 4100 0002            00002 23924             +
 002CE6 5000 D04C            00004 23929             +
 002CEA 58F0 A532/0DEF       02F10 23932             +
 002CF0                            23934    3049.              UNFIX PDB,L'PDB               And the PDB
1TERMINAL (TERM00) (09:44) (22MAR04) Mode 1 Terminal Interface (MILTEN)                                                     Page  164
0Current Usings:  (PZERO,R0) (MTCB,R6) (PDB,R7) (#SCSR,R8) (RDTEXT,R10) (@M1IO-72,R12) (@PAGE-72,R13)
0Loc    Object Code    Addr1 Addr2  Stmt Lv Lineno    Source Statement           (Hibal 5, Asmedit 3.3)  HLASM R4.0  2004/03/22 09.44
+___    ______ ____    _____ _____  ____ __ ______    ______ _________
0002CF0 D708 D048 D048 00000 00000 23945             +
 002CF6 5070 D048            00000 23956             +
 002CFA 4100 0034            00034 23968             +
 002CFE 5000 D04C            00004 23973             +
 002D02 58F0 A532/0DEF       02F10 23976             +
                                   23978    3050.     *
                                   23979    3051.     * Schedule the task to handle the I/O completion
                                   23980    3052.     *
 DROP   @PAGE-72,R13               23981    3053.              PSET  @TCREATE
 USING  @TCREATE-72,R13
 002D08 D714 D048 D048 00000 00000 24001             +
 002D0E D203 D048 A536 00000 02F14 24002    3054.              MVC   @TCRPSW(4),=X'070C0000'
 002D14 D203 D04C A53A 00004 02F18 24003    3055.              MVC   @TCRPSW+4(4),=A(X'80000000'+RDTEXTX)
 002D1A D203 D058 A53E 00010 02F1C 24004    3056.              MVC   @TCRPRIO,=A(10)         Higher priority
 002D20 9680 D05C      00014       24005    3057.              SET   @TCRFSTK                It will need a stack
 002D24 58F0 A542/0DEF       02F20 24011    3058.              VCALL TCREATE                 Create the stack
                                   24015    3059.     *
                                   24016    3060.     * We are done with the SVC inline stuff, return to the caller
                                   24017    3061.     *
 002D2A 1B00                       24018    3062.              CLEAR RVR                     Good return
 002D2C 47F0 A356            02D34 24022    3063.              B     RDXDONE
                                   24023    3064.
 002D30 4100 0006            00006 24024    3065.     RDXSPEC  LA    RVR,6                   Cause a Specification error
 002D34 981F C008            00008 24025    3066.     RDXDONE  PEND  ,
 DROP   PDB,R7
 DROP   #SCSR,R8
 DROP   MTCB,R6
 DROP   @M1IO-72,R12
 DROP   RDTEXT,R10
 002D38 9680 C000/0B0E 00000       24056             +
 DROP   @TCREATE-72,R13
1TERMINAL (TERM00) (09:44) (22MAR04) Mode 1 Terminal Interface (MILTEN)                                                     Page  165
0Current Usings:  (PZERO,R0)
0Loc    Object Code    Addr1 Addr2  Stmt Lv Lineno    Source Statement           (Hibal 5, Asmedit 3.3)  HLASM R4.0  2004/03/22 09.44
+___    ______ ____    _____ _____  ____ __ ______    ______ _________
0                                  24066    3068.     *****************************************************************
                                   24067    3069.     *                                                               *
                                   24068    3070.     *  RDTEXTX --  This is the Mode 1 read text completion routine. *
                                   24069    3071.     *                                                               *
                                   24070    3072.     *   Input  --  none                                             *
                                   24071    3073.     *                                                               *
                                   24072    3074.     *  Output  --  none                                             *
                                   24073    3075.     *                                                               *
                                   24074    3076.     *****************************************************************
-002D3E                            24076    3078.     RDTEXTX  PROC  SCOPE=LOCAL
 002D3E D9C4E3C5E7E3E740           24083             +
 002D46 0000/0000                  24084             +
 002D4A 900F D004/18AF       00004 24086             +
 USING  RDTEXTX,R10
 002D50 50D0 C000/18CD       00000 24101             +
 002D56 9680 C000      00000       24103             +
 002D5A 41D0 C048            00048 24104             +
                                   24105    3079.     *
                                   24106    3080.     * Get our bearings
                                   24107    3081.     *
 002D5E 5860 0208            00208 24108    3082.              L     RX,PZCURASB             Get the current ASB address
 002D62 5860 6030            00030 24109    3083.              WITH  (ASB,RX),'L RX,ASBTCCB' Get the MTCB address
 USING  ASB,R6
 DROP   ASB,R6
 USING  MTCB,R6                    24133    3084.              WITH  (MTCB,RX)
                                   24146    3085.     *
                                   24147    3086.     * Wait for the buffer to come back from milten
                                   24148    3087.     *
 002D66 58F0 A1DA/0DEF       02F24 24149    3088.              ACALL MILRX                   Get the buffer back
 002D6C 1880                       24156    3089.              LR    RM,RVR                  Get the TBUF address
 USING  TBUF,R8                    24157    3090.              WITH  (TBUF,RM)               Address it
 AUSING (PDB,TBUFDATA)             24170    3091.              WITH  (PDB,TBUFDATA)          Address the PDB too
                                   24177    3092.     *
                                   24178    3093.     * Check out the response
                                   24179    3094.     *
                                   24180    3095.     *        IF    (PDBCMD,NE,FMILXCTL),'ABORT *SEQERR'
 002D6E 9547 8012      00006       24181    3096.              IF    (PDBCMD,NE,FMILXCTL),BEGIN
 002D72 4780 A040            02D8A 24194             +
 002D76 83000012/8407              24199  1 3097.                ORVSNAP 'RDTEXTX',MODE=WTL
 002D7C 4100 A200            02F4A 24204  1          +
 002D80 83000012                   24205  1 3098.                ORVSNAP TBUF,255
 002D84 14FF00008000               24209  1          +
 002D8A                            24210    3099.              END   ,
                                   24214    3100.     *
                                   24215    3101.     *  If Wylbur is not there log this user off
                                   24216    3102.     *
 002D8A                            24217    3103.              IF    (PDBSYSNM,Z),'SET  PDBCPLB.CPLBLGF'  Wylbur is gone
 002D8A D607 8030 8030 00024 00024 24227             +
 002D90 4770 A04E            02D98 24228             +
 002D94 9680 8019      0000D       24240             +
                                   24245    3104.     *
                                   24246    3105.     *  User needs to be logged off
1TERMINAL (TERM00) (09:44) (22MAR04) Mode 1 Terminal Interface (MILTEN)                                                     Page  166
0Current Usings:  (PZERO,R0) (MTCB,R6) (TBUF,R8) (RDTEXTX,R10)
0Loc    Object Code    Addr1 Addr2  Stmt Lv Lineno    Source Statement           (Hibal 5, Asmedit 3.3)  HLASM R4.0  2004/03/22 09.44
+___    ______ ____    _____ _____  ____ __ ______    ______ _________
0                                  24247    3106.     *
 002D98 9180 8019      0000D       24248    3107.              IF    PDBCPLB.CPLBLGF,BEGIN
 002D9C 47E0 A072            02DBC 24259             +
 002DA0 58F0 A1DE/0DEF       02F28 24264  1 3108.                ACALL M1LOGOFF                Schedule the logoff exit
 002DA6                            24271  1 3109.                CLEAR MT1WR01                 No bytes moved
 002DA6 D703 6050 6050 00050 00050 24277  1          +
 002DAC                            24278  1 3110.                CLEAR MT1WR15                 Good return though
 002DAC D703 6058 6058 00058 00058 24284  1          +
 002DB2                            24285  1 3111.                CLEAR MT1WR14                 And no lines moved
 002DB2 D703 6054 6054 00054 00054 24291  1          +
 002DB8 47F0 A160            02EAA 24292  1 3112.                B     RTXDONE                 And finish up here
 002DBC                            24293    3113.              END   ,
                                   24297    3114.     *
                                   24298    3115.     * Save off Wylbur's name for the next I/O
                                   24299    3116.     *
 002DBC D207 6006 8030 00006 00024 24300    3117.              MVC   MTCBWYLN,PDBSYSNM       Save Wylbur's name
                                   24301    3118.     *
                                   24302    3119.     * Handle the returns.
                                   24303    3120.     *
 002DC2 9564 803C      00030       24304    3121.              IF    (FWYLRTNC,EQ,RTNCLKPP),'ABORT TERMLKPP'
 002DC6 4770 A0B0            02DFA 24317             +
 002DCA AC04 021B      0021B       24326  1          +
 002DCE 9680 021A      0021A       24332  1          +
 002DD2 50F0 021C            0021C 24333  1          +
 002DD6 58F0 0210            00210 24334  1          +
 002DDA 89F0 0010            00010 24335  1          +
 002DDE 88F0 0010            00010 24336  1          +
 002DE2 41F0 F000            00000 24337  1          +
 002DE6 AEFF 0006            00006 24338  1          +
 002DEA E3C5D9D4D3D2D7D7           24339             +
 002DFA 1F11/4310 803C       00030 24344    3122.              LC    RS,FWYLRTNC             Get the return
 002E00 5010 6058            00058 24351    3123.              ST    RS,MT1WR15              Return that to the user
 002E04 1211/4770 A14C       02E96 24352    3124.              IF    (RS,Z),BEGIN            Good return
                                   24366  1 3125.     *
                                   24367  1 3126.     * Make sure the input buffer is still good, then move the data in
                                   24368  1 3127.     *
 002E0A 5840 605C            0005C 24369  1 3128.                L     RJ,MT1IBLOC             Get the buffer location
 002E0E 4850 6060            00060 24370  1 3129.                LH    RK,MT1IBLEN             and the length
 002E12 58F0 A1E2/0DEF       02F2C 24371  1 3130.                VCALL ASLOCK                  Lock up the address space
 USING  @VALBUF-72,R13             24375  1 3131.                VALBUF (RJ),(RK),MT1RKEY,W    See if it is still good
 002E18 D707 D048 D048 00000 00000 24393  1          +
 002E1E 5040 D048            00000 24403  1          +
 002E22 4050 D04C/1F00       00004 24413  1          +
 002E28 4300 6072            00072 24425  1          +
 002E2C 4200 D04E            00006 24431  1          +
 002E30 9680 D04F      00007       24437  1          +
 002E34 58F0 A19A/0DEF       02EE4 24443  1          +
 002E3A 1200/4780 A126       02E70 24445  1 3132.                IF    (RVR,NZ),'ABORT BADIVA' Something bad happened
 002E40 AC04 021B      0021B       24463  2          +
 002E44 9680 021A      0021A       24469  2          +
 002E48 50F0 021C            0021C 24470  2          +
 002E4C 58F0 0210            00210 24471  2          +
 002E50 89F0 0010            00010 24472  2          +
 002E54 88F0 0010            00010 24473  2          +
1TERMINAL (TERM00) (09:44) (22MAR04) Mode 1 Terminal Interface (MILTEN)                                                     Page  167
0Current Usings:  (PZERO,R0) (MTCB,R6) (TBUF,R8) (RDTEXTX,R10) (@VALBUF-72,R13)
0Loc    Object Code    Addr1 Addr2  Stmt Lv Lineno    Source Statement           (Hibal 5, Asmedit 3.3)  HLASM R4.0  2004/03/22 09.44
+___    ______ ____    _____ _____  ____ __ ______    ______ _________
0002E58 41F0 F000            00000 24474  2          +
 002E5C AEFF 0006            00006 24475  2          +
 002E60 C2C1C4C9E5C14040           24476  1          +
 002E70 4950 803E            00032 24481  1 3133.                CEIL  RK,RTXTTXTL             Move no more than we have
 002E74 47D0 A132            02E7C 24485  1          +
 002E78 4850 803E            00032 24486  1          +
 002E7C 5050 6050            00050 24487  1 3134.                ST    RK,MT1WR01              Save the length for the user
 002E80 4120 8044            00038 24488  1 3135.                LA    RA,PDBTEXT              Get the data location
 002E84 1835                       24489  1 3136.                LR    RB,RK                   Copy the length to move
 002E86 0E42                       24490  1 3137.                MVCL  RJ,RA                   Move the data for the user
 002E88 58F0 A1E6/0DEF       02F30 24491  1 3138.                VCALL ASULOCK                 Unlock it
 002E8E 4810 8040            00034 24495  1 3139.                LH    RS,RTXTNUML             Get the number of lines
 002E92 5010 6054            00054 24496  1 3140.                ST    RS,MT1WR14              Return that to the user too
 002E96                            24497    3141.              END   ,
                                   24501    3142.     *
                                   24502    3143.     * Finish up the write, Update the SIB if that is needed
                                   24503    3144.     *
 002E96 5810 601C            0001C 24504    3145.              L     RS,MTCBSIB
 USING  SIB,R1                     24505    3146.              WITH  (SIB,RS),BEGIN
 002E9A                            24519  1 3147.                IF    (PDBSUC,NE,SIBUC),'ACALL CURSIB'  Update needed
 002E9A D501 8038 1080 0002C 00080 24531  1          +
 002EA0 4780 A160            02EAA 24532  1          +
 002EA4 58F0 A1EA/0DEF       02F34 24543  1          +
 DROP   SIB,R1                     24549    3148.              END   ,
                                   24557    3149.     *
                                   24558    3150.     * Free the input buffer, and post the I/O complete
                                   24559    3151.     *
 DROP   @VALBUF-72,R13             24560    3152.     RTXDONE  FREEB TBUF
 USING  @FRTBUF-72,R13
 002EAA D703 D048 D048 00000 00000 24582             +
 002EB0 5080 D048            00000 24593             +
 002EB4 58F0 A1EE/0DEF       02F38 24599             +
 002EBA 58F0 A1F2/0DEF       02F3C 24601    3153.              ACALL M1IODONE
                                   24608    3154.     *
                                   24609    3155.     * Finish up the task
                                   24610    3156.     *
 DROP   @FRTBUF-72,R13             24611    3157.              PSET  @TEXIT
 USING  @TEXIT-72,R13
 002EC0 D703 D048 D048 00000 00000 24631             +
 002EC6 58F0 A1F6/0DEF       02F40 24632    3158.              VCALL TEXIT
 002ECC 981F C008            00008 24636    3159.              PEND  ,
 DROP   TBUF,R8
 DROP   MTCB,R6
 DROP   RDTEXTX,R10
 002ED0 9680 C000/0B0E 00000       24656             +
 DROP   @TEXIT-72,R13
1TERMINAL (TERM00) (09:44) (22MAR04) Mode 1 Terminal Interface (MILTEN)                                                     Page  168
0Current Usings:  (PZERO,R0)
0Loc    Object Code    Addr1 Addr2  Stmt Lv Lineno    Source Statement           (Hibal 5, Asmedit 3.3)  HLASM R4.0  2004/03/22 09.44
+___    ______ ____    _____ _____  ____ __ ______    ______ _________
0002ED8                            24666    3161.              LTORG ,
 002ED8 00002000                   24668                             =A(8192)
 002EDC 7FFFF000                   24669                             =X'7FFFF000'
 002EE0 00001000                   24670                             =A(4096)
 002EE4 000041A0                   24671                             =A(VALBUF)
 002EE8 00000064                   24672                             =A(100)
 002EEC 00000006                   24673                             =A(6)
 002EF0 00000004                   24674                             =A(4)
 002EF4 00000001                   24675                             =A(1)
 002EF8 00000002                   24676                             =A(2)
 002EFC 000000FF                   24677                             =A(255)
 002F00 00000003                   24678                             =A(3)
 002F04 00000000                   24679                             =V(PAGFIX)
 002F08 000010B6                   24680                             =A(ADDSEG)
 002F0C 00001178                   24681                             =A(MILSX)
 002F10 00000000                   24682                             =V(PAGUFIX)
 002F14 070C0000                   24683                             =X'070C0000'
 002F18 80002D4A                   24684                             =A(X'80000000'+RDTEXTX)
 002F1C 0000000A                   24685                             =A(10)
 002F20 00000000                   24686                             =V(TCREATE)
 002F24 0000137A                   24687                             =A(MILRX)
 002F28 00004054                   24688                             =A(M1LOGOFF)
 002F2C 00000000                   24689                             =V(ASLOCK)
 002F30 00000000                   24690                             =V(ASULOCK)
 002F34 00001436                   24691                             =A(CURSIB)
 002F38 00000FAA                   24692                             =A(FREETBUF)
 002F3C 000040B4                   24693                             =A(M1IODONE)
 002F40 00000000                   24694                             =V(TEXIT)
 002F44 0006                       24695                             =Y(6)
 002F46 000A                       24696                             =Y(10)
 002F48 0010                       24697                             =Y(16)
 002F4A D9C4E3C5E7E3E7             24698                             =C'RDTEXTX'
1TERMINAL (TERM00) (09:44) (22MAR04) Mode 1 Terminal Interface (MILTEN)                                                     Page  169
0Current Usings:  (PZERO,R0)
0Loc    Object Code    Addr1 Addr2  Stmt Lv Lineno    Source Statement           (Hibal 5, Asmedit 3.3)  HLASM R4.0  2004/03/22 09.44
+___    ______ ____    _____ _____  ____ __ ______    ______ _________
0                                  24703    3163.     *****************************************************************
                                   24704    3164.     *                                                               *
                                   24705    3165.     *   WRTERM --  This is the Mode 1 terminal Write routine.       *
                                   24706    3166.     *                                                               *
                                   24707    3167.     *   Input  --  @M1IO                                            *
                                   24708    3168.     *                                                               *
                                   24709    3169.     *  Output  --  none                                             *
                                   24710    3170.     *                                                               *
                                   24711    3171.     *****************************************************************
-002F52                            24713    3173.     WRTERM   PROC  @M1IO,SCOPE=LOCAL
 002F52 E6D9E3C5D9D44040           24720             +
 002F5A 0010/0000                  24721             +
 002F5E 900F D004/18AF       00004 24723             +
 USING  WRTERM,R10
 002F64 50D0 C000/18CD       00000 24738             +
 002F6A 9680 C000      00000       24740             +
 USING  @M1IO-72,R12
 002F6E 41D0 C058            00058 24754             +
                                   24755    3174.     *
                                   24756    3175.     * Get our bearings
                                   24757    3176.     *
 002F72 5860 0208            00208 24758    3177.              L     RX,PZCURASB             Get current ASB
 002F76 5860 6030            00030 24759    3178.              WITH  (ASB,RX),'L RX,ASBTCCB' Get the MTCB Address
 USING  ASB,R6
 DROP   ASB,R6
 USING  MTCB,R6                    24783    3179.              WITH  (MTCB,RX)
                                   24796    3180.     *
                                   24797    3181.     * Enforce 24 bit addressing
                                   24798    3182.     *
 002F7A 9140 C054      0000C       24799    3183.              IF    ~@M1IOM31,BEGIN
 002F7E 4710 A028            02F86 24809             +
 002F82 9200 C048      00000       24814  1 3184.                MVI   @M1IOR01,0              Location of the buffer
 002F86                            24815    3185.              END   ,
                                   24819    3186.     *
                                   24820    3187.     * Validate the output buffer
                                   24821    3188.     *
 002F86 5840 C048            00000 24822    3189.              L     RJ,@M1IOR01             Get the location
 002F8A 5850 C050            00008 24823    3190.              L     RK,@M1IOR15             And the length
 002F8E 1255/4740 A216       03174 24824    3191.              IF    (RK,NEG),WRTSPEC        Length can't be negative
                                   24841    3192.     *oldlim: IF    @M1IODIS,BEGIN
 002F94 5950 A822            03780 24842    3193.              IF    (RK,GT,8192),WRTSPEC    Display mode <= 8192
 002F98 4720 A216            03174 24856             +
                                   24862    3194.     *oldlim: END   ELSE,BEGIN
                                   24863    3195.     *oldlim: IF    (RK,GT,251),WRTSPEC     Line mode <= 251
                                   24864    3196.     *oldlim: END   ,
                                   24865    3197.     *
                                   24866    3198.     * Make sure we can read the users buffer
                                   24867    3199.     *
 002F9C 1255/4780 A068       02FC6 24868    3200.              IF    (RK,NZ),BEGIN
 USING  @VALBUF-72,R13             24882  1 3201.                VALBUF (RJ),(RK),MT1RKEY      We want to read it
 002FA2 D707 D048 D048 00000 00000 24900  1          +
 002FA8 5040 D048            00000 24910  1          +
1TERMINAL (TERM00) (09:44) (22MAR04) Mode 1 Terminal Interface (MILTEN)                                                     Page  170
0Current Usings:  (PZERO,R0) (MTCB,R6) (WRTERM,R10) (@M1IO-72,R12) (@VALBUF-72,R13)
0Loc    Object Code    Addr1 Addr2  Stmt Lv Lineno    Source Statement           (Hibal 5, Asmedit 3.3)  HLASM R4.0  2004/03/22 09.44
+___    ______ ____    _____ _____  ____ __ ______    ______ _________
0002FAC 4050 D04C/1F00       00004 24920  1          +
 002FB2 4300 6072            00072 24932  1          +
 002FB6 4200 D04E            00006 24938  1          +
 002FBA 58F0 A826/0DEF       03784 24944  1          +
 002FC0 1200/4770 A21A       03178 24946  1 3202.                IF    (RVR,NZ),WRTDONE        Some access violation
 002FC6                            24963    3203.              END   ,
                                   24967    3204.     *
                                   24968    3205.     * All set to go, setup the PDB and parameter area
                                   24969    3206.     *
 002FC6 5880 6020            00020 24970    3207.              L     RM,MTCBIOPA             Get a parameter area
 USING  #SCSR,R8                   24971    3208.              WITH  (#SCSR,RM)
 002FCA                            24984    3209.              CLEAR #SCSR                   Clean it up
 002FCA D717 8000 8000 00000 00000 24990             +
 002FD0 5870 6018            00018 24991    3210.              L     RY,MTCBPDB              Get a PDB to use
 USING  PDB,R7                     24992    3211.              WITH  (PDB,RY)
 002FD4                            25005    3212.              CLEAR PDB                     Clean it up too
 002FD4 D733 7000 7000 00004 00004 25011             +
                                   25012    3213.     *
                                   25013    3214.     * Format the PDB
                                   25014    3215.     *
 002FDA D201 7000 6004 00004 00004 25015    3216.              MVC   PDBLIN#,MTCBLINE        Our milten line number
 002FE0 9241 7002      00006       25016    3217.              MVI   PDBCMD,TMILWRIT         The command
 002FE4 D20F 7010 6074 00014 00074 25017    3218.              MVC   PDBVINFO,MT1PGM         The program information
                                   25018    3219.     *
                                   25019    3220.     * Handle the mode flags
                                   25020    3221.     *
 002FEA 9640 7007      0000B       25021    3222.              SET   PDBMODD.MODDNPT         Don't allow page pause text
 002FEE 9180 C054      0000C       25028    3223.              IF    @M1IODIS,BEGIN          Display mode
 002FF2 47E0 A0B0            0300E 25038             +
 002FF6 9640 7006      0000A       25043  1 3224.                SET   PDBMODC.MODCDSPL        Set display mode
 002FFA 9610 7004      00008       25050  1 3225.                SET   PDBMODA.MODACL          Clean
 002FFE 9608 7005      00009       25057  1 3226.                SET   PDBMODB.MODBSLOL        Slow list (don't expand tabs)
 003002 9640 7005      00009       25064  1 3227.                SET   PDBMODB.MODBUPLO        Uplow
 003006 9602 7005      00009       25071  1 3228.                SET   PDBMODB.MODBUFMT        Unformatted
 00300A 9680 7007      0000B       25078  1 3229.                SET   PDBMODD.MODDNPAU        Nopause
 00300E                            25085    3230.              END   ,
 00300E A0B4           0300E 02FF4 25089    3231.              ELSE  'SET  PDBMODC.MODCSTOB' Suppress trailing blanks
 00300E 47F0 A0B8            03016 25094             +
 003012 9601 7006      0000A       25107             +
 DROP   @VALBUF-72,R13             25112    3232.              FIX   PDB,L'PDB               Fix it
 USING  @PAGE-72,R13
 003016 D708 D048 D048 00000 00000 25133             +
 00301C 5070 D048            00000 25144             +
 003020 4100 0034            00034 25156             +
 003024 5000 D04C            00004 25161             +
 003028 58F0 A82A/0DEF       03788 25164             +
 00302E 5070 D04C            00004 25166    3233.              ADDSG PDB,L'PDB,#SCSR         Add it to the list to send
 DROP   @PAGE-72,R13
 USING  @ADDSEG-72,R13
 003032 4100 0034            00034 25203             +
 003036 4000 D050            00008 25208             +
 00303A 5080 D048            00000 25219             +
 00303E 58F0 A82E/0DEF       0378C 25225             +
                                   25227    3234.     *
1TERMINAL (TERM00) (09:44) (22MAR04) Mode 1 Terminal Interface (MILTEN)                                                     Page  171
0Current Usings:  (PZERO,R0) (MTCB,R6) (PDB,R7) (#SCSR,R8) (WRTERM,R10) (@M1IO-72,R12) (@ADDSEG-72,R13)
0Loc    Object Code    Addr1 Addr2  Stmt Lv Lineno    Source Statement           (Hibal 5, Asmedit 3.3)  HLASM R4.0  2004/03/22 09.44
+___    ______ ____    _____ _____  ____ __ ______    ______ _________
0                                  25228    3235.     * Fix the user data, then figure out what we have to do for carriage
                                   25229    3236.     * control.  (adding leading NLs)
                                   25230    3237.     *
 003044 1255/4780 A174       030D2 25231    3238.              IF    (RK,NZ),BEGIN           We have to have some data
 DROP   @ADDSEG-72,R13             25245  1 3239.                FIX   (RJ),(RK)
 USING  @PAGE-72,R13
 00304A D708 D048 D048 00000 00000 25266  1          +
 003050 5040 D048            00000 25276  1          +
 003054 5050 D04C            00004 25286  1          +
 003058 58F0 A82A/0DEF       03788 25289  1          +
 00305E 1B33                       25291  1 3240.                CLEAR RB                      Count of NLs we're adding
                                   25295  1 3241.     *
                                   25296  1 3242.     * Take care of control characters if we have to
                                   25297  1 3243.     *
 003060 9180 C054      0000C       25298  1 3244.                IF    ~@M1IODIS,BEGIN         No CCs for display mode
 003064 4710 A15A            030B8 25308  1          +
 003068 9180 6073      00073       25313  2 3245.                  IF    MT1FCC,BEGIN            We are interpreting them
 00306C 47E0 A15A            030B8 25323  2          +
 003070 1814                       25328  3 3246.                    LR    RS,RJ                   Get a pointer to the CC
 003072 4140 4001            00001 25329  3 3247.                    LA    RJ,@RJ+1                We won't print it out
 003076 0650                       25330  3 3248.                    DECR  RK                      Modify the count
 003078 95F0 1000      00000       25332  3 3249.                    IF    (@RS,EQ,'0'),'LA RB,1'  Add 1 NL
 00307C 4770 A126            03084 25343  3          +
 003080 4130 0001            00001 25349  3          +
 003084 9560 1000      00000       25354  3 3250.                    IF    (@RS,EQ,'-'),'LA RB,2'  Add 2 NLs
 003088 4770 A132            03090 25365  3          +
 00308C 4130 0002            00002 25371  3          +
 003090 95F1 1000      00000       25376  3 3251.                    IF    (@RS,EQ,'1'),'LA RB,4'  Add 4 NLs
 003094 4770 A13E            0309C 25387  3          +
 003098 4130 0004            00004 25393  3          +
 00309C 1233/4780 A15A       030B8 25398  3 3252.                    IF    (RB,NZ),BEGIN
 0030A2 4100 A832            03790 25412  4 3253.                      ADDSG =X'15151515',(RB),#SCSR Actually add them
 DROP   @PAGE-72,R13
 USING  @ADDSEG-72,R13
 0030A6 5000 D04C            00004 25439  4          +
 0030AA 4030 D050            00008 25449  4          +
 0030AE 5080 D048            00000 25460  4          +
 0030B2 58F0 A82E/0DEF       0378C 25466  4          +
 0030B8                            25468  3 3254.                    END   ,
 0030B8                            25472  2 3255.                  END   ,
 0030B8                            25476  1 3256.                END   ,
                                   25480  1 3257.     *
                                   25481  1 3258.     * Move the user's data into the buffer
                                   25482  1 3259.     *
 0030B8 1255/4780 A172       030D0 25483  1 3260.                IF    (RK,NZ),BEGIN           Only if there is something
 0030BE 5040 D04C            00004 25497  2 3261.                  ADDSG (RJ),(RK),#SCSR         Add the user data
 0030C2 4050 D050            00008 25521  2          +
 0030C6 5080 D048            00000 25532  2          +
 0030CA 58F0 A82E/0DEF       0378C 25538  2          +
 0030D0                            25540  1 3262.                END   ,
 0030D0 1A53                       25544  1 3263.                AR    RK,RB                   Get the Total length so far
 0030D2                            25545    3264.              END   ,                       end of some user data
                                   25549    3265.     *
                                   25550    3266.     * Take care of trailing NLs if requested
1TERMINAL (TERM00) (09:44) (22MAR04) Mode 1 Terminal Interface (MILTEN)                                                     Page  172
0Current Usings:  (PZERO,R0) (MTCB,R6) (PDB,R7) (#SCSR,R8) (WRTERM,R10) (@M1IO-72,R12) (@ADDSEG-72,R13)
0Loc    Object Code    Addr1 Addr2  Stmt Lv Lineno    Source Statement           (Hibal 5, Asmedit 3.3)  HLASM R4.0  2004/03/22 09.44
+___    ______ ____    _____ _____  ____ __ ______    ______ _________
0                                  25551    3267.     *
 0030D2 9180 C054      0000C       25552    3268.              IF    ~@M1IODIS,BEGIN         Not for display mode
 0030D6 4710 A1A2            03100 25562             +
 0030DA 9140 6073      00073       25567  1 3269.                IF    ~MT1FNWNL,BEGIN         Not No NLs, means we add one
 0030DE 4710 A1A2            03100 25577  1          +
 0030E2 4100 A89A            037F8 25582  2 3270.                  ADDSG =X'15',1,#SCSR          Add it to the buffer
 0030E6 5000 D04C            00004 25599  2          +
 0030EA 4100 0001            00001 25611  2          +
 0030EE 4000 D050            00008 25616  2          +
 0030F2 5080 D048            00000 25627  2          +
 0030F6 58F0 A82E/0DEF       0378C 25633  2          +
 0030FC 4150 5001            00001 25635  2 3271.                  LA    RK,@RK+1                Count of our data gets updated
 003100                            25636  1 3272.                END   ,
 003100                            25640    3273.              END   ,
                                   25644    3274.     *
                                   25645    3275.     * Now we fill in the length of the data for milten
                                   25646    3276.     *
 003100 4050 702E            00032 25647    3277.              STH   RK,PDBWC                Save it in the write count
 003104 4150 3006            00006 25648    3278.              LA    RK,@RB+6                Needed for milten
 003108 4050 702A            0002E 25649    3279.              STH   RK,PDBOUTCT             Save it again
                                   25650    3280.     *
                                   25651    3281.     * Send it off to milten
                                   25652    3282.     *
 00310C 58F0 A836/0DEF       03794 25653    3283.              ACALL MILSX                   Send the transaction off
                                   25660    3284.     *
                                   25661    3285.     * Unfix the areas we fixed
                                   25662    3286.     *
 003112 5840 C048            00000 25663    3287.              L     RJ,@M1IOR01             Get the location again
 003116 5850 C050            00008 25664    3288.              L     RK,@M1IOR15             And the length
 00311A 1255/4780 A1D6       03134 25665    3289.              IF    (RK,NZ),BEGIN
 DROP   @ADDSEG-72,R13             25679  1 3290.                UNFIX (RJ),(RK)               Unfix the user area
 USING  @PAGE-72,R13
 003120 D708 D048 D048 00000 00000 25700  1          +
 003126 5040 D048            00000 25710  1          +
 00312A 5050 D04C            00004 25720  1          +
 00312E 58F0 A83A/0DEF       03798 25723  1          +
 003134                            25725    3291.              END   ,
 003134                            25729    3292.              UNFIX PDB,L'PDB               And the PDB too
 003134 D708 D048 D048 00000 00000 25740             +
 00313A 5070 D048            00000 25751             +
 00313E 4100 0034            00034 25763             +
 003142 5000 D04C            00004 25768             +
 003146 58F0 A83A/0DEF       03798 25771             +
                                   25773    3293.     *
                                   25774    3294.     * Schedule the task to handle the I/O completion
                                   25775    3295.     *
 DROP   @PAGE-72,R13               25776    3296.              PSET  @TCREATE
 USING  @TCREATE-72,R13
 00314C D714 D048 D048 00000 00000 25796             +
 003152 D203 D048 A83E 00000 0379C 25797    3297.              MVC   @TCRPSW(4),=X'070C0000'
 003158 D203 D04C A842 00004 037A0 25798    3298.              MVC   @TCRPSW+4(4),=A(X'80000000'+WRTERMX)
 00315E D203 D058 A846 00010 037A4 25799    3299.              MVC   @TCRPRIO,=A(10)         Higher priority
 003164 9680 D05C      00014       25800    3300.              SET   @TCRFSTK                It will need a stack
 003168 58F0 A84A/0DEF       037A8 25806    3301.              VCALL TCREATE                 Create the stack
1TERMINAL (TERM00) (09:44) (22MAR04) Mode 1 Terminal Interface (MILTEN)                                                     Page  173
0Current Usings:  (PZERO,R0) (MTCB,R6) (PDB,R7) (#SCSR,R8) (WRTERM,R10) (@M1IO-72,R12) (@TCREATE-72,R13)
0Loc    Object Code    Addr1 Addr2  Stmt Lv Lineno    Source Statement           (Hibal 5, Asmedit 3.3)  HLASM R4.0  2004/03/22 09.44
+___    ______ ____    _____ _____  ____ __ ______    ______ _________
0                                  25810    3302.     *
                                   25811    3303.     * We are done with the SVC inline stuff, return to the caller
                                   25812    3304.     *
 00316E 1B00                       25813    3305.              CLEAR RVR                     Good return
 003170 47F0 A21A            03178 25817    3306.              B     WRTDONE
                                   25818    3307.
 003174 4100 0006            00006 25819    3308.     WRTSPEC  LA    RVR,6                   Cause a Specification error
 003178 981F C008            00008 25820    3309.     WRTDONE  PEND  ,
 DROP   PDB,R7
 DROP   #SCSR,R8
 DROP   MTCB,R6
 DROP   @M1IO-72,R12
 DROP   WRTERM,R10
 00317C 9680 C000/0B0E 00000       25851             +
 DROP   @TCREATE-72,R13
1TERMINAL (TERM00) (09:44) (22MAR04) Mode 1 Terminal Interface (MILTEN)                                                     Page  174
0Current Usings:  (PZERO,R0)
0Loc    Object Code    Addr1 Addr2  Stmt Lv Lineno    Source Statement           (Hibal 5, Asmedit 3.3)  HLASM R4.0  2004/03/22 09.44
+___    ______ ____    _____ _____  ____ __ ______    ______ _________
0                                  25861    3311.     *****************************************************************
                                   25862    3312.     *                                                               *
                                   25863    3313.     *  WRTERMX --  This is the Mode 1 terminal write completion     *
                                   25864    3314.     *              routine.
                                   25865    3315.     *                                                               *
                                   25866    3316.     *   Input  --  none                                             *
                                   25867    3317.     *                                                               *
                                   25868    3318.     *  Output  --  none                                             *
                                   25869    3319.     *                                                               *
                                   25870    3320.     *****************************************************************
-003182                            25872    3322.     WRTERMX  PROC  SCOPE=LOCAL
 003182 E6D9E3C5D9D4E740           25879             +
 00318A 0000/0000                  25880             +
 00318E 900F D004/18AF       00004 25882             +
 USING  WRTERMX,R10
 003194 50D0 C000/18CD       00000 25897             +
 00319A 9680 C000      00000       25899             +
 00319E 41D0 C048            00048 25900             +
                                   25901    3323.     *
                                   25902    3324.     * Get our bearings
                                   25903    3325.     *
 0031A2 5860 0208            00208 25904    3326.              L     RX,PZCURASB             Get the current ASB address
 0031A6 5860 6030            00030 25905    3327.              WITH  (ASB,RX),'L RX,ASBTCCB' Get the MTCB address
 USING  ASB,R6
 DROP   ASB,R6
 USING  MTCB,R6                    25929    3328.              WITH  (MTCB,RX)
                                   25942    3329.     *
                                   25943    3330.     * Wait for the buffer to come back from milten
                                   25944    3331.     *
 0031AA 58F0 A61E/0DEF       037AC 25945    3332.              ACALL MILRX                   Get the buffer back
 0031B0 1880                       25952    3333.              LR    RM,RVR                  Get the TBUF address
 USING  TBUF,R8                    25953    3334.              WITH  (TBUF,RM)               Address it
 AUSING (PDB,TBUFDATA)             25966    3335.              WITH  (PDB,TBUFDATA)          Address the PDB too
                                   25973    3336.     *
                                   25974    3337.     * See if it is the response we wanted.
                                   25975    3338.     *
                                   25976    3339.     *        IF    (PDBCMD,NE,FMILWRIT),'ABORT *SEQERR'
 0031B2 9541 8012      00006       25977    3340.              IF    (PDBCMD,NE,FMILWRIT),BEGIN
 0031B6 4780 A040            031CE 25990             +
 0031BA 83000012/8407              25995  1 3341.                ORVSNAP 'WRTERMX',MODE=WTL
 0031C0 4100 A66B            037F9 26000  1          +
 0031C4 83000012                   26001  1 3342.                ORVSNAP TBUF,255
 0031C8 14FF00008000               26005  1          +
 0031CE                            26006    3343.              END   ,
 0031CE 9180 8019      0000D       26010    3344.              IF    PDBCPLB.CPLBLGF,'ACALL M1LOGOFF'
 0031D2 47E0 A04E            031DC 26021             +
 0031D6 58F0 A622/0DEF       037B0 26032             +
                                   26038    3345.     *
                                   26039    3346.     * Handle the returns
                                   26040    3347.     *
 0031DC                            26041    3348.              CLEAR MT1WR15                 Default is good return
 0031DC D703 6058 6058 00058 00058 26047             +
1TERMINAL (TERM00) (09:44) (22MAR04) Mode 1 Terminal Interface (MILTEN)                                                     Page  175
0Current Usings:  (PZERO,R0) (MTCB,R6) (TBUF,R8) (WRTERMX,R10)
0Loc    Object Code    Addr1 Addr2  Stmt Lv Lineno    Source Statement           (Hibal 5, Asmedit 3.3)  HLASM R4.0  2004/03/22 09.44
+___    ______ ____    _____ _____  ____ __ ______    ______ _________
00031E2 9140 8018      0000C       26048    3349.              IF    PDBCPLA.CPLAIOE,BEGIN
 0031E6 47E0 A066            031F4 26059             +
 0031EA D203 6058 A626 00058 037B4 26064  1 3350.                MVC   MT1WR15,=A(-4)          I/O error
 0031F0 47F0 A0A8            03236 26065  1 3351.                B     WRTXDONE
 0031F4                            26066    3352.              END   ,
 0031F4 9140 8019      0000D       26070    3353.              IF    PDBCPLB.CPLBILT,BEGIN
 0031F8 47E0 A078            03206 26081             +
 0031FC D203 6058 A62A 00058 037B8 26086  1 3354.                MVC   MT1WR15,=A(-12)         Illegal terminal
 003202 47F0 A0A8            03236 26087  1 3355.                B     WRTXDONE
 003206                            26088    3356.              END   ,
 003206 9180 8018      0000C       26092    3357.              IF    PDBCPLA.CPLAATTN,BEGIN
 00320A 47E0 A0A8            03236 26103             +
 00320E 58F0 A62E/0DEF       037BC 26108  1 3358.                VCALL ASLOCK
 003214 BF11 6070            00070 26112  1 3359.                INCR  RS,MT1IACT              Count an attention
 003218 4110 1001            00001 26116  1          +
 00321C BE11 6070            00070 26117  1          +
 003220 58F0 A632/0DEF       037C0 26118  1 3360.                VCALL ASULOCK
 003226 58F0 A636/0DEF       037C4 26122  1 3361.                ACALL M1ATTN                  Schedule the attention exit
 00322C D203 6058 A63A 00058 037C8 26129  1 3362.                MVC   MT1WR15,=A(4)           Ended by attention
 003232 47F0 A0A8            03236 26130  1 3363.                B     WRTXDONE
 003236                            26131    3364.              END   ,
                                   26135    3365.     *
                                   26136    3366.     * Finish up the write, Update the Sib if that is needed
                                   26137    3367.     *
 003236                            26138    3368.     WRTXDONE LABEL ,
 003236 5810 601C            0001C 26140    3369.              L     RS,MTCBSIB
 USING  SIB,R1                     26141    3370.              WITH  (SIB,RS),BEGIN
 00323A                            26155  1 3371.                IF    (PDBSUC,NE,SIBUC),'ACALL CURSIB'  Update needed
 00323A D501 8038 1080 0002C 00080 26167  1          +
 003240 4780 A0BC            0324A 26168  1          +
 003244 58F0 A63E/0DEF       037CC 26179  1          +
 DROP   SIB,R1                     26185    3372.              END   ,
                                   26193    3373.     *
                                   26194    3374.     * Free the input buffer, and post the I/O complete
                                   26195    3375.     *
 USING  @FRTBUF-72,R13             26196    3376.              FREEB TBUF
 00324A D703 D048 D048 00000 00000 26214             +
 003250 5080 D048            00000 26225             +
 003254 58F0 A642/0DEF       037D0 26231             +
 00325A 58F0 A646/0DEF       037D4 26233    3377.              ACALL M1IODONE
                                   26240    3378.     *
                                   26241    3379.     * Finish up the task
                                   26242    3380.     *
 DROP   @FRTBUF-72,R13             26243    3381.              PSET  @TEXIT
 USING  @TEXIT-72,R13
 003260 D703 D048 D048 00000 00000 26263             +
 003266 58F0 A64A/0DEF       037D8 26264    3382.              VCALL TEXIT
 00326C 981F C008            00008 26268    3383.              PEND  ,
 DROP   TBUF,R8
 DROP   MTCB,R6
 DROP   WRTERMX,R10
 003270 9680 C000/0B0E 00000       26288             +
 DROP   @TEXIT-72,R13
1TERMINAL (TERM00) (09:44) (22MAR04) Mode 1 Terminal Interface (MILTEN)                                                     Page  176
0Current Usings:  (PZERO,R0)
0Loc    Object Code    Addr1 Addr2  Stmt Lv Lineno    Source Statement           (Hibal 5, Asmedit 3.3)  HLASM R4.0  2004/03/22 09.44
+___    ______ ____    _____ _____  ____ __ ______    ______ _________
0                                  26298    3385.     *****************************************************************
                                   26299    3386.     *                                                               *
                                   26300    3387.     *   WREDIT --  This is the Mode 1 Write Edit routine.           *
                                   26301    3388.     *                                                               *
                                   26302    3389.     *   Input  --  @M1IO                                            *
                                   26303    3390.     *                                                               *
                                   26304    3391.     *  Output  --  none                                             *
                                   26305    3392.     *                                                               *
                                   26306    3393.     *****************************************************************
-003276                            26308    3395.     WREDIT   PROC  @M1IO,SCOPE=LOCAL
 003276 E6D9C5C4C9E34040           26315             +
 00327E 0010/0000                  26316             +
 003282 900F D004/18AF       00004 26318             +
 USING  WREDIT,R10
 003288 50D0 C000/18CD       00000 26333             +
 00328E 9680 C000      00000       26335             +
 USING  @M1IO-72,R12
 003292 41D0 C058            00058 26349             +
                                   26350    3396.     *
                                   26351    3397.     * Get our bearings
                                   26352    3398.     *
 003296 5860 0208            00208 26353    3399.              L     RX,PZCURASB             Get current ASB
 00329A 5860 6030            00030 26354    3400.              WITH  (ASB,RX),'L RX,ASBTCCB' Get the MTCB Address
 USING  ASB,R6
 DROP   ASB,R6
 USING  MTCB,R6                    26378    3401.              WITH  (MTCB,RX)
                                   26391    3402.     *
                                   26392    3403.     * Enforce 24 bit addressing
                                   26393    3404.     *
 00329E 9140 C054      0000C       26394    3405.              IF    ~@M1IOM31,BEGIN
 0032A2 4710 A028            032AA 26404             +
 0032A6 9200 C048      00000       26409  1 3406.                MVI   @M1IOR01,0              Location of the buffer
 0032AA                            26410    3407.              END   ,
                                   26414    3408.     *
                                   26415    3409.     * Validate the output buffer
                                   26416    3410.     *
 0032AA 5840 C048            00000 26417    3411.              L     RJ,@M1IOR01             Get the location
 0032AE 5850 C050            00008 26418    3412.              L     RK,@M1IOR15             And the length
 0032B2 1255/47D0 A158       033DA 26419    3413.              IF    (RK,NP),WRESPEC         Length must be >= 1
 0032B8 5950 A55A            037DC 26436    3414.              IF    (RK,GT,251),WRESPEC     Must also be <= 251
 0032BC 4720 A158            033DA 26450             +
                                   26456    3415.     *
                                   26457    3416.     * Make sure we can read the users buffer
                                   26458    3417.     *
 USING  @VALBUF-72,R13             26459    3418.              VALBUF (RJ),(RK),MT1RKEY      We want to read it
 0032C0 D707 D048 D048 00000 00000 26477             +
 0032C6 5040 D048            00000 26487             +
 0032CA 4050 D04C/1F00       00004 26497             +
 0032D0 4300 6072            00072 26509             +
 0032D4 4200 D04E            00006 26515             +
 0032D8 58F0 A502/0DEF       03784 26521             +
 0032DE 1200/4770 A15C       033DE 26523    3419.              IF    (RVR,NZ),EXIT           Some access violation
1TERMINAL (TERM00) (09:44) (22MAR04) Mode 1 Terminal Interface (MILTEN)                                                     Page  177
0Current Usings:  (PZERO,R0) (MTCB,R6) (WREDIT,R10) (@M1IO-72,R12) (@VALBUF-72,R13)
0Loc    Object Code    Addr1 Addr2  Stmt Lv Lineno    Source Statement           (Hibal 5, Asmedit 3.3)  HLASM R4.0  2004/03/22 09.44
+___    ______ ____    _____ _____  ____ __ ______    ______ _________
0                                  26540    3420.     *
                                   26541    3421.     * All set to go, setup the PDB and parameter area
                                   26542    3422.     *
 0032E4 5880 6020            00020 26543    3423.              L     RM,MTCBIOPA             Get a parameter area
 USING  #SCSR,R8                   26544    3424.              WITH  (#SCSR,RM)
 0032E8                            26557    3425.              CLEAR #SCSR                   Clean it up
 0032E8 D717 8000 8000 00000 00000 26563             +
 0032EE 5870 6018            00018 26564    3426.              L     RY,MTCBPDB              Get a PDB to use
 USING  PDB,R7                     26565    3427.              WITH  (PDB,RY)
 0032F2                            26578    3428.              CLEAR PDB                     Clean it up too
 0032F2 D733 7000 7000 00004 00004 26584             +
                                   26585    3429.     *
                                   26586    3430.     * Format the PDB
                                   26587    3431.     *
 0032F8 D201 7000 6004 00004 00004 26588    3432.              MVC   PDBLIN#,MTCBLINE        Our milten line number
 0032FE 9247 7002      00006       26589    3433.              MVI   PDBCMD,TMILXCTL         The command
 003302 D207 7020 6006 00024 00006 26590    3434.              MVC   PDBSYSNM,MTCBWYLN       We're sending it to WYLBUR
 003308 D20F 7010 6074 00014 00074 26591    3435.              MVC   PDBVINFO,MT1PGM         The program information
 00330E 9240 702C      00030       26592    3436.              MVI   FORVCMD,FORVWEDT        Tell WYLBUR its a Write Edit
 003312                            26593    3437.              IF    (@M1IOR14,NZ),'MVI FORVCMDM,WEDTNTYP'  Not typed
 003312 D603 C04C C04C 00004 00004 26603             +
 003318 4780 A09E            03320 26604             +
 00331C 9204 702D      00031       26610             +
 003320 4050 702E            00032 26615    3438.              STH   RK,WEDTTXTL             Save the length of the command
 003324 4110 5006            00006 26616    3439.              LA    RS,@RK+6                Get the Milten count
 003328 4010 702A            0002E 26617    3440.              STH   RS,PDBOUTCT             Save it in the PDB
 DROP   @VALBUF-72,R13             26618    3441.              FIX   PDB,L'PDB               Fix it
 USING  @PAGE-72,R13
 00332C D708 D048 D048 00000 00000 26639             +
 003332 5070 D048            00000 26650             +
 003336 4100 0034            00034 26662             +
 00333A 5000 D04C            00004 26667             +
 00333E 58F0 A506/0DEF       03788 26670             +
 003344 5070 D04C            00004 26672    3442.              ADDSG PDB,L'PDB,#SCSR         Add it to the list to send
 DROP   @PAGE-72,R13
 USING  @ADDSEG-72,R13
 003348 4100 0034            00034 26709             +
 00334C 4000 D050            00008 26714             +
 003350 5080 D048            00000 26725             +
 003354 58F0 A50A/0DEF       0378C 26731             +
 DROP   @ADDSEG-72,R13             26733    3443.              FIX   (RJ),(RK)
 USING  @PAGE-72,R13
 00335A D708 D048 D048 00000 00000 26754             +
 003360 5040 D048            00000 26764             +
 003364 5050 D04C            00004 26774             +
 003368 58F0 A506/0DEF       03788 26777             +
 00336E 5040 D04C            00004 26779    3444.              ADDSG (RJ),(RK),#SCSR         Add the user data too
 DROP   @PAGE-72,R13
 USING  @ADDSEG-72,R13
 003372 4050 D050            00008 26813             +
 003376 5080 D048            00000 26824             +
 00337A 58F0 A50A/0DEF       0378C 26830             +
                                   26832    3445.     *
                                   26833    3446.     * Send it off to milten
1TERMINAL (TERM00) (09:44) (22MAR04) Mode 1 Terminal Interface (MILTEN)                                                     Page  178
0Current Usings:  (PZERO,R0) (MTCB,R6) (PDB,R7) (#SCSR,R8) (WREDIT,R10) (@M1IO-72,R12) (@ADDSEG-72,R13)
0Loc    Object Code    Addr1 Addr2  Stmt Lv Lineno    Source Statement           (Hibal 5, Asmedit 3.3)  HLASM R4.0  2004/03/22 09.44
+___    ______ ____    _____ _____  ____ __ ______    ______ _________
0                                  26834    3447.     *
 003380 58F0 A512/0DEF       03794 26835    3448.              ACALL MILSX                   Send the transaction off
                                   26842    3449.     *
                                   26843    3450.     * Unfix the areas we fixed
                                   26844    3451.     *
 DROP   @ADDSEG-72,R13             26845    3452.              UNFIX (RJ),(RK)               Unfix the user area
 USING  @PAGE-72,R13
 003386 D708 D048 D048 00000 00000 26866             +
 00338C 5040 D048            00000 26876             +
 003390 5050 D04C            00004 26886             +
 003394 58F0 A516/0DEF       03798 26889             +
 00339A                            26891    3453.              UNFIX PDB,L'PDB               And the PDB too
 00339A D708 D048 D048 00000 00000 26902             +
 0033A0 5070 D048            00000 26913             +
 0033A4 4100 0034            00034 26925             +
 0033A8 5000 D04C            00004 26930             +
 0033AC 58F0 A516/0DEF       03798 26933             +
                                   26935    3454.     *
                                   26936    3455.     * Schedule the task to handle the I/O completion
                                   26937    3456.     *
 DROP   @PAGE-72,R13               26938    3457.              PSET  @TCREATE
 USING  @TCREATE-72,R13
 0033B2 D714 D048 D048 00000 00000 26958             +
 0033B8 D203 D048 A51A 00000 0379C 26959    3458.              MVC   @TCRPSW(4),=X'070C0000'
 0033BE D203 D04C A55E 00004 037E0 26960    3459.              MVC   @TCRPSW+4(4),=A(X'80000000'+WREDITX)
 0033C4 D203 D058 A522 00010 037A4 26961    3460.              MVC   @TCRPRIO,=A(10)         Higher priority
 0033CA 9680 D05C      00014       26962    3461.              SET   @TCRFSTK                It will need a stack
 0033CE 58F0 A526/0DEF       037A8 26968    3462.              VCALL TCREATE                 Create the stack
                                   26972    3463.     *
                                   26973    3464.     * We are done with the SVC inline stuff, return to the caller
                                   26974    3465.     *
 0033D4 1B00                       26975    3466.              CLEAR RVR                     Good return
 0033D6 47F0 A15C            033DE 26979    3467.              B     WREDONE
                                   26980    3468.
 0033DA 4100 0006            00006 26981    3469.     WRESPEC  LA    RVR,6                   Cause a Specification error
 0033DE 981F C008            00008 26982    3470.     WREDONE  PEND  ,
 DROP   PDB,R7
 DROP   #SCSR,R8
 DROP   MTCB,R6
 DROP   @M1IO-72,R12
 DROP   WREDIT,R10
 0033E2 9680 C000/0B0E 00000       27013             +
 DROP   @TCREATE-72,R13
1TERMINAL (TERM00) (09:44) (22MAR04) Mode 1 Terminal Interface (MILTEN)                                                     Page  179
0Current Usings:  (PZERO,R0)
0Loc    Object Code    Addr1 Addr2  Stmt Lv Lineno    Source Statement           (Hibal 5, Asmedit 3.3)  HLASM R4.0  2004/03/22 09.44
+___    ______ ____    _____ _____  ____ __ ______    ______ _________
0                                  27023    3472.     *****************************************************************
                                   27024    3473.     *                                                               *
                                   27025    3474.     *  WREDITX --  This is the Mode 1 write edit completion         *
                                   27026    3475.     *              routine.                                         *
                                   27027    3476.     *                                                               *
                                   27028    3477.     *   Input  --  none                                             *
                                   27029    3478.     *                                                               *
                                   27030    3479.     *  Output  --  none                                             *
                                   27031    3480.     *                                                               *
                                   27032    3481.     *****************************************************************
-0033E8                            27034    3483.     WREDITX  PROC  SCOPE=LOCAL
 0033E8 E6D9C5C4C9E3E740           27041             +
 0033F0 0000/0000                  27042             +
 0033F4 900F D004/18AF       00004 27044             +
 USING  WREDITX,R10
 0033FA 50D0 C000/18CD       00000 27059             +
 003400 9680 C000      00000       27061             +
 003404 41D0 C048            00048 27062             +
                                   27063    3484.     *
                                   27064    3485.     * Get our bearings
                                   27065    3486.     *
 003408 5860 0208            00208 27066    3487.              L     RX,PZCURASB             Get the current ASB address
 00340C 5860 6030            00030 27067    3488.              WITH  (ASB,RX),'L RX,ASBTCCB' Get the MTCB address
 USING  ASB,R6
 DROP   ASB,R6
 USING  MTCB,R6                    27091    3489.              WITH  (MTCB,RX)
                                   27104    3490.     *
                                   27105    3491.     * Wait for the buffer to come back from milten
                                   27106    3492.     *
 003410 58F0 A3B8/0DEF       037AC 27107    3493.              ACALL MILRX                   Get the buffer back
 003416 1880                       27114    3494.              LR    RM,RVR                  Get the TBUF address
 USING  TBUF,R8                    27115    3495.              WITH  (TBUF,RM)               Address it
 AUSING (PDB,TBUFDATA)             27128    3496.              WITH  (PDB,TBUFDATA)          Address the PDB too
                                   27135    3497.     *
                                   27136    3498.     * Check out the response
                                   27137    3499.     *
                                   27138    3500.     *        IF    (PDBCMD,NE,FMILXCTL),'ABORT *SEQERR'
 003418 9547 8012      00006       27139    3501.              IF    (PDBCMD,NE,FMILXCTL),BEGIN
 00341C 4780 A040            03434 27152             +
 003420 83000012/8407              27157  1 3502.                ORVSNAP 'WREDITX',MODE=WTL
 003426 4100 A40C            03800 27162  1          +
 00342A 83000012                   27163  1 3503.                ORVSNAP TBUF,255
 00342E 14FF00008000               27167  1          +
 003434                            27168    3504.              END   ,
                                   27172    3505.     *
                                   27173    3506.     *  If Wylbur is not there log this user off
                                   27174    3507.     *
 003434                            27175    3508.              IF    (PDBSYSNM,Z),'SET  PDBCPLB.CPLBLGF'  Wylbur is gone
 003434 D607 8030 8030 00024 00024 27185             +
 00343A 4770 A04E            03442 27186             +
 00343E 9680 8019      0000D       27198             +
                                   27203    3509.     *
1TERMINAL (TERM00) (09:44) (22MAR04) Mode 1 Terminal Interface (MILTEN)                                                     Page  180
0Current Usings:  (PZERO,R0) (MTCB,R6) (TBUF,R8) (WREDITX,R10)
0Loc    Object Code    Addr1 Addr2  Stmt Lv Lineno    Source Statement           (Hibal 5, Asmedit 3.3)  HLASM R4.0  2004/03/22 09.44
+___    ______ ____    _____ _____  ____ __ ______    ______ _________
0                                  27204    3510.     *  User needs to be logged off
                                   27205    3511.     *
 003442 9180 8019      0000D       27206    3512.              IF    PDBCPLB.CPLBLGF,BEGIN
 003446 47E0 A06C            03460 27217             +
 00344A 58F0 A3BC/0DEF       037B0 27222  1 3513.                ACALL M1LOGOFF                Schedule the logoff exit
 003450                            27229  1 3514.                CLEAR MT1WR15                 Good return
 003450 D703 6058 6058 00058 00058 27235  1          +
 003456 D203 6050 A3D4 00050 037C8 27236  1 3515.                MVC   MT1WR01,=A(4)           Call it an idle attn
 00345C 47F0 A0D4            034C8 27237  1 3516.                B     WREXDONE                Don't process any more of it
 003460                            27238    3517.              END   ,
                                   27242    3518.     *
                                   27243    3519.     * Save off Wylbur's name for the next I/O
                                   27244    3520.     *
 003460 D207 6006 8030 00006 00024 27245    3521.              MVC   MTCBWYLN,PDBSYSNM       Save Wylbur's name
                                   27246    3522.     *
                                   27247    3523.     * Handle the returns, first the ATTN status
                                   27248    3524.     *
 003466 4810 8042            00036 27249    3525.              LH    RS,WEDTATTN             Get the ATTN status
 00346A 5010 6050            00050 27250    3526.              ST    RS,MT1WR01              Save in the return reg
 00346E 1211/4780 A09E       03492 27251    3527.              IF    (RS,NZ),BEGIN           Some ATTN was signalled
 003474 58F0 A3C8/0DEF       037BC 27265  1 3528.                VCALL ASLOCK                  Lock it up
 00347A BF11 6070            00070 27269  1 3529.                INCR  RS,MT1IACT              Up the ATTN count
 00347E 4110 1001            00001 27273  1          +
 003482 BE11 6070            00070 27274  1          +
 003486 58F0 A3CC/0DEF       037C0 27275  1 3530.                VCALL ASULOCK                 Unlock it
 00348C 58F0 A3D0/0DEF       037C4 27279  1 3531.                ACALL M1ATTN                  Then schedule the exit
 003492                            27286    3532.              END   ,
                                   27290    3533.     *
                                   27291    3534.     * Then take care of the return regarding the command passed
                                   27292    3535.     *
 003492                            27293    3536.              CLEAR MT1WR15                 Default: good return
 003492 D703 6058 6058 00058 00058 27299             +
 003498 950C 803C      00030       27300    3537.              IF    (FWYLRTNC,EQ,RTNCCHGB),BEGIN      Changes blocked
 00349C 4770 A0B2            034A6 27313             +
 0034A0 D203 6058 A3C0 00058 037B4 27318  1 3538.                MVC   MT1WR15,=A(-4)
 0034A6                            27319    3539.              END   ,
 0034A6 9510 803C      00030       27323    3540.              IF    (FWYLRTNC,EQ,RTNCERR),BEGIN       Command error
 0034AA 4770 A0C0            034B4 27336             +
 0034AE D203 6058 A3F0 00058 037E4 27341  1 3541.                MVC   MT1WR15,=A(-8)
 0034B4                            27342    3542.              END   ,
                                   27346    3543.     *
                                   27347    3544.     * Finish up the write, Update the SIB if that is needed
                                   27348    3545.     *
 0034B4 5810 601C            0001C 27349    3546.              L     RS,MTCBSIB
 USING  SIB,R1                     27350    3547.              WITH  (SIB,RS),BEGIN
 0034B8                            27364  1 3548.                IF    (PDBSUC,NE,SIBUC),'ACALL CURSIB'  Update needed
 0034B8 D501 8038 1080 0002C 00080 27376  1          +
 0034BE 4780 A0D4            034C8 27377  1          +
 0034C2 58F0 A3D8/0DEF       037CC 27388  1          +
 DROP   SIB,R1                     27394    3549.              END   ,
                                   27402    3550.     *
                                   27403    3551.     * Free the input buffer, and post the I/O complete
                                   27404    3552.     *
 USING  @FRTBUF-72,R13             27405    3553.     WREXDONE FREEB TBUF
1TERMINAL (TERM00) (09:44) (22MAR04) Mode 1 Terminal Interface (MILTEN)                                                     Page  181
0Current Usings:  (PZERO,R0) (MTCB,R6) (TBUF,R8) (WREDITX,R10) (@FRTBUF-72,R13)
0Loc    Object Code    Addr1 Addr2  Stmt Lv Lineno    Source Statement           (Hibal 5, Asmedit 3.3)  HLASM R4.0  2004/03/22 09.44
+___    ______ ____    _____ _____  ____ __ ______    ______ _________
00034C8 D703 D048 D048 00000 00000 27424             +
 0034CE 5080 D048            00000 27435             +
 0034D2 58F0 A3DC/0DEF       037D0 27441             +
 0034D8 58F0 A3E0/0DEF       037D4 27443    3554.              ACALL M1IODONE
                                   27450    3555.     *
                                   27451    3556.     * Finish up the task
                                   27452    3557.     *
 DROP   @FRTBUF-72,R13             27453    3558.              PSET  @TEXIT
 USING  @TEXIT-72,R13
 0034DE D703 D048 D048 00000 00000 27473             +
 0034E4 58F0 A3E4/0DEF       037D8 27474    3559.              VCALL TEXIT
 0034EA 981F C008            00008 27478    3560.              PEND  ,
 DROP   TBUF,R8
 DROP   MTCB,R6
 DROP   WREDITX,R10
 0034EE 9680 C000/0B0E 00000       27498             +
 DROP   @TEXIT-72,R13
1TERMINAL (TERM00) (09:44) (22MAR04) Mode 1 Terminal Interface (MILTEN)                                                     Page  182
0Current Usings:  (PZERO,R0)
0Loc    Object Code    Addr1 Addr2  Stmt Lv Lineno    Source Statement           (Hibal 5, Asmedit 3.3)  HLASM R4.0  2004/03/22 09.44
+___    ______ ____    _____ _____  ____ __ ______    ______ _________
0                                  27508    3562.     *****************************************************************
                                   27509    3563.     *                                                               *
                                   27510    3564.     *   WRTEXT --  This is the Mode 1 Write Text routine.           *
                                   27511    3565.     *                                                               *
                                   27512    3566.     *   Input  --  @M1IO                                            *
                                   27513    3567.     *                                                               *
                                   27514    3568.     *  Output  --  none                                             *
                                   27515    3569.     *                                                               *
                                   27516    3570.     *****************************************************************
-0034F4                            27518    3572.     WRTEXT   PROC  @M1IO,SCOPE=LOCAL
 0034F4 E6D9E3C5E7E34040           27525             +
 0034FC 0010/0000                  27526             +
 003500 900F D004/18AF       00004 27528             +
 USING  WRTEXT,R10
 003506 50D0 C000/18CD       00000 27543             +
 00350C 9680 C000      00000       27545             +
 USING  @M1IO-72,R12
 003510 41D0 C058            00058 27559             +
                                   27560    3573.     *
                                   27561    3574.     * Get our bearings
                                   27562    3575.     *
 003514 5860 0208            00208 27563    3576.              L     RX,PZCURASB             Get current ASB
 003518 5860 6030            00030 27564    3577.              WITH  (ASB,RX),'L RX,ASBTCCB' Get the MTCB Address
 USING  ASB,R6
 DROP   ASB,R6
 USING  MTCB,R6                    27588    3578.              WITH  (MTCB,RX)
                                   27601    3579.     *
                                   27602    3580.     * Enforce 24 bit addressing
                                   27603    3581.     *
 00351C 9140 C054      0000C       27604    3582.              IF    ~@M1IOM31,BEGIN
 003520 4710 A028            03528 27614             +
 003524 9200 C048      00000       27619  1 3583.                MVI   @M1IOR01,0              Location of the buffer
 003528                            27620    3584.              END   ,
                                   27624    3585.     *
                                   27625    3586.     * Validate the output buffer
                                   27626    3587.     *
 003528 5840 C048            00000 27627    3588.              L     RJ,@M1IOR01             Get the location
 00352C 4850 C052            0000A 27628    3589.              LH    RK,@M1IOR15+2           And the length
 003530 1255/47D0 A19C       0369C 27629    3590.              IF    (RK,NP),WRXSPEC         Length must be >= 1
 003536 5950 A280            03780 27646    3591.              IF    (RK,GT,8192),WRXSPEC    And <= 8K *** TEMP ***
 00353A 4720 A19C            0369C 27660             +
                                   27666    3592.     *
                                   27667    3593.     * Make sure we can read the users buffer
                                   27668    3594.     *
 USING  @VALBUF-72,R13             27669    3595.              VALBUF (RJ),(RK),MT1RKEY      We want to read it
 00353E D707 D048 D048 00000 00000 27687             +
 003544 5040 D048            00000 27697             +
 003548 4050 D04C/1F00       00004 27707             +
 00354E 4300 6072            00072 27719             +
 003552 4200 D04E            00006 27725             +
 003556 58F0 A284/0DEF       03784 27731             +
 00355C 1200/4770 A1A0       036A0 27733    3596.              IF    (RVR,NZ),EXIT           Some access violation
1TERMINAL (TERM00) (09:44) (22MAR04) Mode 1 Terminal Interface (MILTEN)                                                     Page  183
0Current Usings:  (PZERO,R0) (MTCB,R6) (WRTEXT,R10) (@M1IO-72,R12) (@VALBUF-72,R13)
0Loc    Object Code    Addr1 Addr2  Stmt Lv Lineno    Source Statement           (Hibal 5, Asmedit 3.3)  HLASM R4.0  2004/03/22 09.44
+___    ______ ____    _____ _____  ____ __ ______    ______ _________
0                                  27750    3597.     *
                                   27751    3598.     * Validate the option code, and LRECL
                                   27752    3599.     *
 003562 4820 C050            00008 27753    3600.              LH    RA,@M1IOR15             Get the code
 003566 5920 A2E8            037E8 27754    3601.              IF    (RA,GT,6),WRXSPEC       Option code too big
 00356A 4720 A19C            0369C 27768             +
 00356E 1222/4740 A19C       0369C 27774    3602.              IF    (RA,NEG),WRXSPEC        Or too small
 003574 4810 C04E            00006 27791    3603.              LH    RS,@M1IOR14+2           Get the count of lines
 003578 1211/4740 A19C       0369C 27792    3604.              IF    (RS,NEG),WRXSPEC        Not less than zero
 00357E 1B33                       27809    3605.              CLEAR RB                      Default LRECL
 003580 5920 A2C8            037C8 27813    3606.              IF    (RA,EQ,4),BEGIN         He is specifying LRECL
 003584 4770 A09A            0359A 27825             +
 003588 4830 C04C            00004 27830  1 3607.                LH    RB,@M1IOR14             Get his lrecl
 00358C 5930 A2EC            037EC 27831  1 3608.                IF    (RB,GT,256),WRXSPEC     His is too big
 003590 4720 A19C            0369C 27845  1          +
 003594 1233/47D0 A19C       0369C 27851  1 3609.                IF    (RB,NP),WRXSPEC         Or too small
 00359A                            27868    3610.              END   ,
 00359A 5920 A2C8            037C8 27872    3611.              IF    (RA,GT,4),'LA RB,80'    Card format LRECL
 00359E 47D0 A0A6            035A6 27884             +
 0035A2 4130 0050            00050 27890             +
                                   27895    3612.     *
                                   27896    3613.     * All set to go, setup the PDB and parameter area
                                   27897    3614.     *
 0035A6 5880 6020            00020 27898    3615.              L     RM,MTCBIOPA             Get a parameter area
 USING  #SCSR,R8                   27899    3616.              WITH  (#SCSR,RM)
 0035AA                            27912    3617.              CLEAR #SCSR                   Clean it up
 0035AA D717 8000 8000 00000 00000 27918             +
 0035B0 5870 6018            00018 27919    3618.              L     RY,MTCBPDB              Get a PDB to use
 USING  PDB,R7                     27920    3619.              WITH  (PDB,RY)
 0035B4                            27933    3620.              CLEAR PDB                     Clean it up too
 0035B4 D733 7000 7000 00004 00004 27939             +
                                   27940    3621.     *
                                   27941    3622.     * Format the PDB
                                   27942    3623.     *
 0035BA D201 7000 6004 00004 00004 27943    3624.              MVC   PDBLIN#,MTCBLINE        Our milten line number
 0035C0 9247 7002      00006       27944    3625.              MVI   PDBCMD,TMILXCTL         The command
 0035C4 D207 7020 6006 00024 00006 27945    3626.              MVC   PDBSYSNM,MTCBWYLN       We're sending it to WYLBUR
 0035CA D20F 7010 6074 00014 00074 27946    3627.              MVC   PDBVINFO,MT1PGM         The program information
 0035D0 9210 702C      00030       27947    3628.              MVI   FORVCMD,FORVWTXT        Tell WYLBUR its a Write Text
 0035D4 4220 7032            00036 27948    3629.              STC   RA,WTXTOPT              Move in the option byte
 0035D8 4230 7033            00037 27949    3630.              STC   RB,WTXTLREC             The LRECL
 0035DC D201 7030 C04E 00034 00006 27950    3631.              MVC   WTXTNUML,@M1IOR14+2     The number of lines
 0035E2 4050 702E            00032 27951    3632.              STH   RK,WTXTTXTL             And the length of the data
 0035E6 4110 5006            00006 27952    3633.              LA    RS,@RK+6                Milten count
 0035EA 4010 702A            0002E 27953    3634.              STH   RS,PDBOUTCT             Save in the PDB
 DROP   @VALBUF-72,R13             27954    3635.              FIX   PDB,L'PDB               Fix it
 USING  @PAGE-72,R13
 0035EE D708 D048 D048 00000 00000 27975             +
 0035F4 5070 D048            00000 27986             +
 0035F8 4100 0034            00034 27998             +
 0035FC 5000 D04C            00004 28003             +
 003600 58F0 A288/0DEF       03788 28006             +
 003606 5070 D04C            00004 28008    3636.              ADDSG PDB,L'PDB,#SCSR         Add it to the list to send
 DROP   @PAGE-72,R13
1TERMINAL (TERM00) (09:44) (22MAR04) Mode 1 Terminal Interface (MILTEN)                                                     Page  184
0Current Usings:  (PZERO,R0) (MTCB,R6) (PDB,R7) (#SCSR,R8) (WRTEXT,R10) (@M1IO-72,R12) (@ADDSEG-72,R13)
0Loc    Object Code    Addr1 Addr2  Stmt Lv Lineno    Source Statement           (Hibal 5, Asmedit 3.3)  HLASM R4.0  2004/03/22 09.44
+___    ______ ____    _____ _____  ____ __ ______    ______ _________
0USING  @ADDSEG-72,R13
 00360A 4100 0034            00034 28045             +
 00360E 4000 D050            00008 28050             +
 003612 5080 D048            00000 28061             +
 003616 58F0 A28C/0DEF       0378C 28067             +
 DROP   @ADDSEG-72,R13             28069    3637.              FIX   (RJ),(RK)               Fix the user data
 USING  @PAGE-72,R13
 00361C D708 D048 D048 00000 00000 28090             +
 003622 5040 D048            00000 28100             +
 003626 5050 D04C            00004 28110             +
 00362A 58F0 A288/0DEF       03788 28113             +
 003630 5040 D04C            00004 28115    3638.              ADDSG (RJ),(RK),#SCSR         Send it off
 DROP   @PAGE-72,R13
 USING  @ADDSEG-72,R13
 003634 4050 D050            00008 28149             +
 003638 5080 D048            00000 28160             +
 00363C 58F0 A28C/0DEF       0378C 28166             +
                                   28168    3639.     *
                                   28169    3640.     * Send it off to milten
                                   28170    3641.     *
 003642 58F0 A294/0DEF       03794 28171    3642.              ACALL MILSX                   Send the transaction off
                                   28178    3643.     *
                                   28179    3644.     * Unfix the areas we fixed
                                   28180    3645.     *
 DROP   @ADDSEG-72,R13             28181    3646.              UNFIX (RJ),(RK)               Unfix the user area
 USING  @PAGE-72,R13
 003648 D708 D048 D048 00000 00000 28202             +
 00364E 5040 D048            00000 28212             +
 003652 5050 D04C            00004 28222             +
 003656 58F0 A298/0DEF       03798 28225             +
 00365C                            28227    3647.              UNFIX PDB,L'PDB               And the PDB too
 00365C D708 D048 D048 00000 00000 28238             +
 003662 5070 D048            00000 28249             +
 003666 4100 0034            00034 28261             +
 00366A 5000 D04C            00004 28266             +
 00366E 58F0 A298/0DEF       03798 28269             +
                                   28271    3648.     *
                                   28272    3649.     * Schedule the task to handle the I/O completion
                                   28273    3650.     *
 DROP   @PAGE-72,R13               28274    3651.              PSET  @TCREATE
 USING  @TCREATE-72,R13
 003674 D714 D048 D048 00000 00000 28294             +
 00367A D203 D048 A29C 00000 0379C 28295    3652.              MVC   @TCRPSW(4),=X'070C0000'
 003680 D203 D04C A2F0 00004 037F0 28296    3653.              MVC   @TCRPSW+4(4),=A(X'80000000'+WRTEXTX)
 003686 D203 D058 A2A4 00010 037A4 28297    3654.              MVC   @TCRPRIO,=A(10)         Higher priority
 00368C 9680 D05C      00014       28298    3655.              SET   @TCRFSTK                It will need a stack
 003690 58F0 A2A8/0DEF       037A8 28304    3656.              VCALL TCREATE                 Create the stack
                                   28308    3657.     *
                                   28309    3658.     * We are done with the SVC inline stuff, return to the caller
                                   28310    3659.     *
 003696 1B00                       28311    3660.              CLEAR RVR                     Good return
 003698 47F0 A1A0            036A0 28315    3661.              B     WRXDONE
                                   28316    3662.
 00369C 4100 0006            00006 28317    3663.     WRXSPEC  LA    RVR,6                   Cause a Specification error
1TERMINAL (TERM00) (09:44) (22MAR04) Mode 1 Terminal Interface (MILTEN)                                                     Page  185
0Current Usings:  (PZERO,R0) (@TCREATE-72,R13)
0Loc    Object Code    Addr1 Addr2  Stmt Lv Lineno    Source Statement           (Hibal 5, Asmedit 3.3)  HLASM R4.0  2004/03/22 09.44
+___    ______ ____    _____ _____  ____ __ ______    ______ _________
00036A0 981F C008            00008 28318    3664.     WRXDONE  PEND  ,
 DROP   PDB,R7
 DROP   #SCSR,R8
 DROP   MTCB,R6
 DROP   @M1IO-72,R12
 DROP   WRTEXT,R10
 0036A4 9680 C000/0B0E 00000       28349             +
 DROP   @TCREATE-72,R13
1TERMINAL (TERM00) (09:44) (22MAR04) Mode 1 Terminal Interface (MILTEN)                                                     Page  186
0Current Usings:  (PZERO,R0)
0Loc    Object Code    Addr1 Addr2  Stmt Lv Lineno    Source Statement           (Hibal 5, Asmedit 3.3)  HLASM R4.0  2004/03/22 09.44
+___    ______ ____    _____ _____  ____ __ ______    ______ _________
0                                  28359    3666.     *****************************************************************
                                   28360    3667.     *                                                               *
                                   28361    3668.     *  WRTEXTX --  This is the Mode 1 write text completion         *
                                   28362    3669.     *              routine.                                         *
                                   28363    3670.     *                                                               *
                                   28364    3671.     *   Input  --  none                                             *
                                   28365    3672.     *                                                               *
                                   28366    3673.     *  Output  --  none                                             *
                                   28367    3674.     *                                                               *
                                   28368    3675.     *****************************************************************
-0036AA                            28370    3677.     WRTEXTX  PROC  SCOPE=LOCAL
 0036AA E6D9E3C5E7E3E740           28377             +
 0036B2 0000/0000                  28378             +
 0036B6 900F D004/18AF       00004 28380             +
 USING  WRTEXTX,R10
 0036BC 50D0 C000/18CD       00000 28395             +
 0036C2 9680 C000      00000       28397             +
 0036C6 41D0 C048            00048 28398             +
                                   28399    3678.     *
                                   28400    3679.     * Get our bearings
                                   28401    3680.     *
 0036CA 5860 0208            00208 28402    3681.              L     RX,PZCURASB             Get the current ASB address
 0036CE 5860 6030            00030 28403    3682.              WITH  (ASB,RX),'L RX,ASBTCCB' Get the MTCB address
 USING  ASB,R6
 DROP   ASB,R6
 USING  MTCB,R6                    28427    3683.              WITH  (MTCB,RX)
                                   28440    3684.     *
                                   28441    3685.     * Wait for the buffer to come back from milten
                                   28442    3686.     *
 0036D2 58F0 A0F6/0DEF       037AC 28443    3687.              ACALL MILRX                   Get the buffer back
 0036D8 1880                       28450    3688.              LR    RM,RVR                  Get the TBUF address
 USING  TBUF,R8                    28451    3689.              WITH  (TBUF,RM)               Address it
 AUSING (PDB,TBUFDATA)             28464    3690.              WITH  (PDB,TBUFDATA)          Address the PDB too
                                   28471    3691.     *
                                   28472    3692.     * Check out the response
                                   28473    3693.     *
                                   28474    3694.     *        IF    (PDBCMD,NE,FMILXCTL),'ABORT *SEQERR'
 0036DA 9547 8012      00006       28475    3695.              IF    (PDBCMD,NE,FMILXCTL),BEGIN
 0036DE 4780 A040            036F6 28488             +
 0036E2 83000012/8407              28493  1 3696.                ORVSNAP 'WRTEXTX',MODE=WTL
 0036E8 4100 A151            03807 28498  1          +
 0036EC 83000012                   28499  1 3697.                ORVSNAP TBUF,255
 0036F0 14FF00008000               28503  1          +
 0036F6                            28504    3698.              END   ,
                                   28508    3699.     *
                                   28509    3700.     *  If Wylbur is not there log this user off
                                   28510    3701.     *
 0036F6                            28511    3702.              IF    (PDBSYSNM,Z),'SET  PDBCPLB.CPLBLGF'  Wylbur is gone
 0036F6 D607 8030 8030 00024 00024 28521             +
 0036FC 4770 A04E            03704 28522             +
 003700 9680 8019      0000D       28534             +
                                   28539    3703.     *
1TERMINAL (TERM00) (09:44) (22MAR04) Mode 1 Terminal Interface (MILTEN)                                                     Page  187
0Current Usings:  (PZERO,R0) (MTCB,R6) (TBUF,R8) (WRTEXTX,R10)
0Loc    Object Code    Addr1 Addr2  Stmt Lv Lineno    Source Statement           (Hibal 5, Asmedit 3.3)  HLASM R4.0  2004/03/22 09.44
+___    ______ ____    _____ _____  ____ __ ______    ______ _________
0                                  28540    3704.     *  User needs to be logged off
                                   28541    3705.     *
 003704 9180 8019      0000D       28542    3706.              IF    PDBCPLB.CPLBLGF,BEGIN
 003708 47E0 A066            0371C 28553             +
 00370C 58F0 A0FA/0DEF       037B0 28558  1 3707.                ACALL M1LOGOFF                Schedule the exit
 003712                            28565  1 3708.                CLEAR MT1WR15                 Make his time left happy time
 003712 D703 6058 6058 00058 00058 28571  1          +
 003718 47F0 A09A            03750 28572  1 3709.                B     WTXDONE                 No other info is needed.
 00371C                            28573    3710.              END   ,
                                   28577    3711.     *
                                   28578    3712.     * Save off Wylbur's name for the next I/O
                                   28579    3713.     *
 00371C D207 6006 8030 00006 00024 28580    3714.              MVC   MTCBWYLN,PDBSYSNM       Save Wylbur's name
                                   28581    3715.     *
                                   28582    3716.     * Handle the returns, first the ATTN status
                                   28583    3717.     *
 003722 1F11/4310 803C       00030 28584    3718.              LC    RS,FWYLRTNC             Get the return code
 003728 5010 6058            00058 28591    3719.              ST    RS,MT1WR15              Save in the return reg
 00372C 5910 A13E            037F4 28592    3720.              IF    (RS,GT,RTNCFULL),BEGIN  We have a residual count
 003730 47D0 A086            0373C 28604             +
 003734 4810 8042            00036 28609  1 3721.                LH    RS,WTXTRCNT             Get the residual count
 003738 5010 6050            00050 28610  1 3722.                ST    RS,MT1WR01              Return it to the user
 00373C                            28611    3723.              END   ,
                                   28615    3724.     *
                                   28616    3725.     * Finish up the write, Update the SIB if that is needed
                                   28617    3726.     *
 00373C 5810 601C            0001C 28618    3727.              L     RS,MTCBSIB
 USING  SIB,R1                     28619    3728.              WITH  (SIB,RS),BEGIN
 003740                            28633  1 3729.                IF    (PDBSUC,NE,SIBUC),'ACALL CURSIB'  Update needed
 003740 D501 8038 1080 0002C 00080 28645  1          +
 003746 4780 A09A            03750 28646  1          +
 00374A 58F0 A116/0DEF       037CC 28657  1          +
 DROP   SIB,R1                     28663    3730.              END   ,
                                   28671    3731.     *
                                   28672    3732.     * Free the input buffer, and post the I/O complete
                                   28673    3733.     *
 USING  @FRTBUF-72,R13             28674    3734.     WTXDONE  FREEB TBUF
 003750 D703 D048 D048 00000 00000 28693             +
 003756 5080 D048            00000 28704             +
 00375A 58F0 A11A/0DEF       037D0 28710             +
 003760 58F0 A11E/0DEF       037D4 28712    3735.              ACALL M1IODONE
                                   28719    3736.     *
                                   28720    3737.     * Finish up the task
                                   28721    3738.     *
 DROP   @FRTBUF-72,R13             28722    3739.              PSET  @TEXIT
 USING  @TEXIT-72,R13
 003766 D703 D048 D048 00000 00000 28742             +
 00376C 58F0 A122/0DEF       037D8 28743    3740.              VCALL TEXIT
 003772 981F C008            00008 28747    3741.              PEND  ,
 DROP   TBUF,R8
 DROP   MTCB,R6
 DROP   WRTEXTX,R10
 003776 9680 C000/0B0E 00000       28767             +
 DROP   @TEXIT-72,R13
1TERMINAL (TERM00) (09:44) (22MAR04) Mode 1 Terminal Interface (MILTEN)                                                     Page  188
0Current Usings:  (PZERO,R0)
0Loc    Object Code    Addr1 Addr2  Stmt Lv Lineno    Source Statement           (Hibal 5, Asmedit 3.3)  HLASM R4.0  2004/03/22 09.44
+___    ______ ____    _____ _____  ____ __ ______    ______ _________
0003780                            28777    3743.              LTORG ,
 003780 00002000                   28779                             =A(8192)
 003784 000041A0                   28780                             =A(VALBUF)
 003788 00000000                   28781                             =V(PAGFIX)
 00378C 000010B6                   28782                             =A(ADDSEG)
 003790 15151515                   28783                             =X'15151515'
 003794 00001178                   28784                             =A(MILSX)
 003798 00000000                   28785                             =V(PAGUFIX)
 00379C 070C0000                   28786                             =X'070C0000'
 0037A0 8000318E                   28787                             =A(X'80000000'+WRTERMX)
 0037A4 0000000A                   28788                             =A(10)
 0037A8 00000000                   28789                             =V(TCREATE)
 0037AC 0000137A                   28790                             =A(MILRX)
 0037B0 00004054                   28791                             =A(M1LOGOFF)
 0037B4 FFFFFFFC                   28792                             =A(-4)
 0037B8 FFFFFFF4                   28793                             =A(-12)
 0037BC 00000000                   28794                             =V(ASLOCK)
 0037C0 00000000                   28795                             =V(ASULOCK)
 0037C4 00003FF8                   28796                             =A(M1ATTN)
 0037C8 00000004                   28797                             =A(4)
 0037CC 00001436                   28798                             =A(CURSIB)
 0037D0 00000FAA                   28799                             =A(FREETBUF)
 0037D4 000040B4                   28800                             =A(M1IODONE)
 0037D8 00000000                   28801                             =V(TEXIT)
 0037DC 000000FB                   28802                             =A(251)
 0037E0 800033F4                   28803                             =A(X'80000000'+WREDITX)
 0037E4 FFFFFFF8                   28804                             =A(-8)
 0037E8 00000006                   28805                             =A(6)
 0037EC 00000100                   28806                             =A(256)
 0037F0 800036B6                   28807                             =A(X'80000000'+WRTEXTX)
 0037F4 0000000C                   28808                             =A(RTNCFULL)
 0037F8 15                         28809                             =X'15'
 0037F9 E6D9E3C5D9D4E7             28810                             =C'WRTERMX'
 003800 E6D9C5C4C9E3E7             28811                             =C'WREDITX'
 003807 E6D9E3C5E7E3E7             28812                             =C'WRTEXTX'
1TERMINAL (TERM00) (09:44) (22MAR04) Mode 1 Terminal Interface (MILTEN)                                                     Page  189
0Current Usings:  (PZERO,R0)
0Loc    Object Code    Addr1 Addr2  Stmt Lv Lineno    Source Statement           (Hibal 5, Asmedit 3.3)  HLASM R4.0  2004/03/22 09.44
+___    ______ ____    _____ _____  ____ __ ______    ______ _________
0                                  28817    3745.     *****************************************************************
                                   28818    3746.     *                                                               *
                                   28819    3747.     *    CNTRL --  This is the Mode 1 Control routine.              *
                                   28820    3748.     *                                                               *
                                   28821    3749.     *   Input  --  @M1IO                                            *
                                   28822    3750.     *                                                               *
                                   28823    3751.     *  Output  --  none                                             *
                                   28824    3752.     *                                                               *
                                   28825    3753.     *****************************************************************
-00380E                            28827    3755.     CNTRL    PROC  @M1IO,SCOPE=LOCAL
 00380E C3D5E3D9D3404040           28834             +
 003816 0010/0000                  28835             +
 00381A 900F D004/18AF       00004 28837             +
 USING  CNTRL,R10
 003820 50D0 C000/18CD       00000 28852             +
 003826 9680 C000      00000       28854             +
 USING  @M1IO-72,R12
 00382A 41D0 C058            00058 28868             +
                                   28869    3756.     *
                                   28870    3757.     * Get our bearings
                                   28871    3758.     *
 00382E 5860 0208            00208 28872    3759.              L     RX,PZCURASB             Get current ASB
 003832 5860 6030            00030 28873    3760.              WITH  (ASB,RX),'L RX,ASBTCCB' Get the MTCB Address
 USING  ASB,R6
 DROP   ASB,R6
 USING  MTCB,R6                    28897    3761.              WITH  (MTCB,RX)
                                   28910    3762.     *
                                   28911    3763.     * Decide what kind of Control it is, and dispatch accordingly
                                   28912    3764.     *
 003836 5810 C048            00000 28913    3765.              L     RS,@M1IOR01             Get the control number
 00383A 1211/4740 A4D6       03CF0 28914    3766.              IF    (RS,NEG),CTLSPEC        It is too small
 003840 5910 AA26            04240 28931    3767.              IF    (RS,GT,MAXCNTL),CTLSPEC It is too big
 003844 4720 A4D6            03CF0 28945             +
 003848 4210 6071            00071 28951    3768.              STC   RS,MT1CNTL              Save the control number
 00384C 8910 0002            00002 28952    3769.              SLL   RS,2                    *4
 003850 47F1 A03A            03854 28953    3770.              B     *+4(RS)                 Branch to the routine
 003854 47F0 A0BE            038D8 28954    3771.     CTTAB1   B     CTL00                 0 Space lines
 003858 47F0 A0E4            038FE 28955    3772.              B     CTL01                 1 Page eject
 00385C 47F0 A1C4            039DE 28956    3773.              B     CTL02                 2 Set Tabs
 003860 47F0 A206            03A20 28957    3774.              B     CTL03                 3 Sense Tabs
 003864 47F0 A256            03A70 28958    3775.              B     CTL04                 4 Set Upper
 003868 47F0 A270            03A8A 28959    3776.              B     CTL05                 5 Set Uplow
 00386C 47F0 A28A            03AA4 28960    3777.              B     CTL06                 6 Sense Case
 003870 47F0 A2A6            03AC0 28961    3778.              B     CTL07                 7 Set CC
 003874 47F0 A2B4            03ACE 28962    3779.              B     CTL08                 8 Set No CC
 003878 47F0 A2C2            03ADC 28963    3780.              B     CTL09                 9 Sense CC
 00387C 47F0 A4D6            03CF0 28964    3781.              B     CTLSPEC              10 Set Backspace character
 003880 47F0 A4D6            03CF0 28965    3782.              B     CTLSPEC              11 Sense Backspace character
 003884 47F0 A2DA            03AF4 28966    3783.              B     CTL12                12 Set Wylbur mode word
 003888 47F0 A2F8            03B12 28967    3784.              B     CTL13                13 Sense Wylbur mode word
 00388C 47F0 A308            03B22 28968    3785.              B     WYLCNTL              14 Sense Wylbur active file size
 003890 47F0 A308            03B22 28969    3786.              B     WYLCNTL              15 Sense Wylbur first line number
1TERMINAL (TERM00) (09:44) (22MAR04) Mode 1 Terminal Interface (MILTEN)                                                     Page  190
0Current Usings:  (PZERO,R0) (MTCB,R6) (CNTRL,R10) (@M1IO-72,R12)
0Loc    Object Code    Addr1 Addr2  Stmt Lv Lineno    Source Statement           (Hibal 5, Asmedit 3.3)  HLASM R4.0  2004/03/22 09.44
+___    ______ ____    _____ _____  ____ __ ______    ______ _________
0003894 47F0 A308            03B22 28970    3787.              B     WYLCNTL              16 Sense Wylbur last line number
 003898 47F0 A308            03B22 28971    3788.              B     WYLCNTL              17 Clear Wylbur active file
 00389C 47F0 A4D6            03CF0 28972    3789.              B     CTLSPEC              18 Abort Wylbur command in progress
 0038A0 47F0 A4D6            03CF0 28973    3790.              B     CTLSPEC              19 Write Wylbur lines to terminal
 0038A4 47F0 A4D6            03CF0 28974    3791.              B     CTLSPEC              20 Obtain permission for next line
 0038A8 47F0 A3A4            03BBE 28975    3792.              B     CTL21                21 Sense terminal info
 0038AC 47F0 A4D6            03CF0 28976    3793.              B     CTLSPEC              22 -- handled in M1SERV --
 0038B0 47F0 A4D6            03CF0 28977    3794.              B     CTLSPEC              23 -- handled in M1SERV --
 0038B4 47F0 A4D6            03CF0 28978    3795.              B     CTLSPEC              24 -- handled in M1SERV --
 0038B8 47F0 A3F4            03C0E 28979    3796.              B     CTL25                25 Clear auto NL on write
 0038BC 47F0 A402            03C1C 28980    3797.              B     CTL26                26 Set auto NL on write
 0038C0 47F0 A410            03C2A 28981    3798.              B     CTL27                27 Sense auto NL status
 0038C4 47F0 A308            03B22 28982    3799.              B     WYLCNTL              28 Sense wylbur delta
 0038C8 47F0 A4D6            03CF0 28983    3800.              B     CTLSPEC              29 Open new active file
 0038CC 47F0 A428            03C42 28984    3801.              B     CTL30                30 Set milten mode word
 0038D0 47F0 A45A            03C74 28985    3802.              B     CTL31                31 Sense milten mode word
 0038D4 47F0 A482            03C9C 28986    3803.              B     CTL32                32 Signal Wylbur exec break
                                   28987    3804.
                                   28988    3805.     MAXCNTL  EQU   (*-CTTAB1)/4            Maximum control number
1TERMINAL (TERM00) (09:44) (22MAR04) Mode 1 Terminal Interface (MILTEN)                                                     Page  191
0Current Usings:  (PZERO,R0) (MTCB,R6) (CNTRL,R10) (@M1IO-72,R12)
0Loc    Object Code    Addr1 Addr2  Stmt Lv Lineno    Source Statement           (Hibal 5, Asmedit 3.3)  HLASM R4.0  2004/03/22 09.44
+___    ______ ____    _____ _____  ____ __ ______    ______ _________
0                                  28990    3807.     *
                                   28991    3808.     * CONTROL  0 - Space N lines.
                                   28992    3809.     *
 0038D8                            28993    3810.     CTL00    LABEL ,
 0038D8 5820 C050            00008 28995    3811.              L     RA,@M1IOR15             Get the skip count
 0038DC 1222/4740 A4D6       03CF0 28996    3812.              IF    (RA,NEG),CTLSPEC        Bad number to skip
 0038E2 5920 AA2A            04244 29013    3813.              IF    (RA,GT,66),CTL01        Pretend it is an eject
 0038E6 4720 A0E4            038FE 29027             +
 0038EA 1222/4770 A0E0       038FA 29033    3814.              IF    (RA,Z),BEGIN            Skip no lines, that's easy
 0038F0                            29047  1 3815.                CLEAR MT1WR15                 Good return code
 0038F0 D703 6058 6058 00058 00058 29053  1          +
 0038F6 47F0 A4CA            03CE4 29054  1 3816.                B     CTLIPOST                Do the immediate post
 0038FA                            29055    3817.              END   ,
 0038FA 47F0 A0E8            03902 29059    3818.              B     CTEJECT                 Go send it off
                                   29060    3819.     *
                                   29061    3820.     * CONTROL  1 - Page eject (space 4 lines)
                                   29062    3821.     *
 0038FE                            29063    3822.     CTL01    LABEL ,
 0038FE 4120 0004            00004 29065    3823.              LA    RA,4                    Get the count
                                   29066    3824.     *
                                   29067    3825.     * Send it to milten, RA Contains the number of NL's
                                   29068    3826.     *
 003902                            29069    3827.     CTEJECT  LABEL ,
 003902 5880 6020            00020 29071    3828.              L     RM,MTCBIOPA             Get a parm location
 USING  #SCSR,R8                   29072    3829.              WITH  (#SCSR,RM)
 003906                            29085    3830.              CLEAR #SCSR
 003906 D717 8000 8000 00000 00000 29091             +
 00390C 5870 6018            00018 29092    3831.              L     RY,MTCBPDB              Get a PDB
 USING  PDB,R7                     29093    3832.              WITH  (PDB,RY)
 003910                            29106    3833.              CLEAR PDB                     Clean that up too
 003910 D733 7000 7000 00004 00004 29112             +
 003916 D201 7000 6004 00004 00004 29113    3834.              MVC   PDBLIN#,MTCBLINE        Move in the line number
 00391C 9241 7002      00006       29114    3835.              MVI   PDBCMD,TMILWRIT         Move in the write command
 003920 D20F 7010 6074 00014 00074 29115    3836.              MVC   PDBVINFO,MT1PGM         And the program info
 003926 4020 702E            00032 29116    3837.              STH   RA,PDBWC                Fill in the write count
 00392A 4110 2006            00006 29117    3838.              LA    RS,@RA+6
 00392E 4010 702A            0002E 29118    3839.              STH   RS,PDBOUTCT             And the total count
 USING  @PAGE-72,R13               29119    3840.              FIX   PDB,L'PDB
 003932 D708 D048 D048 00000 00000 29137             +
 003938 5070 D048            00000 29148             +
 00393C 4100 0034            00034 29160             +
 003940 5000 D04C            00004 29165             +
 003944 58F0 AA2E/0DEF       04248 29168             +
 00394A 5070 D04C            00004 29170    3841.              ADDSG PDB,L'PDB,#SCSR         Send the PDB
 DROP   @PAGE-72,R13
 USING  @ADDSEG-72,R13
 00394E 4100 0034            00034 29207             +
 003952 4000 D050            00008 29212             +
 003956 5080 D048            00000 29223             +
 00395A 58F0 AA32/0DEF       0424C 29229             +
 003960 4100 A182            0399C 29231    3842.              ADDSG CTLNLS,(RA),#SCSR       Add the NLs
 003964 5000 D04C            00004 29252             +
 003968 4020 D050            00008 29262             +
 00396C 5080 D048            00000 29273             +
1TERMINAL (TERM00) (09:44) (22MAR04) Mode 1 Terminal Interface (MILTEN)                                                     Page  192
0Current Usings:  (PZERO,R0) (MTCB,R6) (PDB,R7) (#SCSR,R8) (CNTRL,R10) (@M1IO-72,R12) (@ADDSEG-72,R13)
0Loc    Object Code    Addr1 Addr2  Stmt Lv Lineno    Source Statement           (Hibal 5, Asmedit 3.3)  HLASM R4.0  2004/03/22 09.44
+___    ______ ____    _____ _____  ____ __ ______    ______ _________
0003970 58F0 AA32/0DEF       0424C 29279             +
 003976 58F0 AA36/0DEF       04250 29281    3843.              ACALL MILSX                   Send it off
 DROP   @ADDSEG-72,R13             29288    3844.              UNFIX PDB,L'PDB               Unfix the PDB
 USING  @PAGE-72,R13
 00397C D708 D048 D048 00000 00000 29309             +
 003982 5070 D048            00000 29320             +
 003986 4100 0034            00034 29332             +
 00398A 5000 D04C            00004 29337             +
 00398E 58F0 AA3A/0DEF       04254 29340             +
 003994 9610 6073      00073       29342    3845.              SET   MT1FCIO                 Control I/O started
 003998 47F0 A4A2            03CBC 29348    3846.              B     CTLSTSK                 Go start up the task
                                   29349    3847.
 00399C 1515151515151515           29350    3848.     CTLNLS   DC    66X'15'                 Some newlines
1TERMINAL (TERM00) (09:44) (22MAR04) Mode 1 Terminal Interface (MILTEN)                                                     Page  193
0Current Usings:  (PZERO,R0) (MTCB,R6) (PDB,R7) (#SCSR,R8) (CNTRL,R10) (@M1IO-72,R12) (@PAGE-72,R13)
0Loc    Object Code    Addr1 Addr2  Stmt Lv Lineno    Source Statement           (Hibal 5, Asmedit 3.3)  HLASM R4.0  2004/03/22 09.44
+___    ______ ____    _____ _____  ____ __ ______    ______ _________
0                                  29352    3850.     *
                                   29353    3851.     * CONTROL  2 - Set tabs, this currently does nothing
                                   29354    3852.     *
 0039DE                            29355    3853.     CTL02    LABEL ,
 0039DE 9140 C054      0000C       29357    3854.              IF    ~@M1IOM31,BEGIN
 0039E2 4710 A1D0            039EA 29367             +
 0039E6 9200 C050      00008       29372  1 3855.                MVI   @M1IOR15,0              Enforce 24 bit addresses
 0039EA                            29373    3856.              END   ,
 0039EA 5840 C050            00008 29377    3857.              L     RJ,@M1IOR15             Get the tab location address
 DROP   @PAGE-72,R13               29378    3858.              VALBUF (RJ),LA:16,MT1RKEY     Can he access that stuff
 USING  @VALBUF-72,R13
 0039EE D707 D048 D048 00000 00000 29399             +
 0039F4 5040 D048            00000 29409             +
 0039F8 4100 0010            00010 29421             +
 0039FC 4000 D04C/1F00       00004 29426             +
 003A02 4300 6072            00072 29438             +
 003A06 4200 D04E            00006 29444             +
 003A0A 58F0 AA3E/0DEF       04258 29450             +
 003A10 1200/4770 A4DA       03CF4 29452    3859.              IF    (RVR,NZ),CTLDONE        No, an access exception
 003A16                            29469    3860.              CLEAR MT1WR15                 Set good return
 003A16 D703 6058 6058 00058 00058 29475             +
 003A1C 47F0 A4CA            03CE4 29476    3861.              B     CTLIPOST                And post immediately
-
                                   29478    3863.     *
                                   29479    3864.     * CONTROL  3 - Sense Tabs
                                   29480    3865.     *
 003A20                            29481    3866.     CTL03    LABEL ,
 003A20 9140 C054      0000C       29483    3867.              IF    ~@M1IOM31,BEGIN
 003A24 4710 A212            03A2C 29493             +
 003A28 9200 C050      00008       29498  1 3868.                MVI   @M1IOR15,0              Enforce 24 bit addresses
 003A2C                            29499    3869.              END   ,
 003A2C 5840 C050            00008 29503    3870.              L     RJ,@M1IOR15             Get the tab location address
 003A30                            29504    3871.              VALBUF (RJ),LA:16,MT1RKEY,W   Can he access that stuff
 003A30 D707 D048 D048 00000 00000 29515             +
 003A36 5040 D048            00000 29525             +
 003A3A 4100 0010            00010 29537             +
 003A3E 4000 D04C/1F00       00004 29542             +
 003A44 4300 6072            00072 29554             +
 003A48 4200 D04E            00006 29560             +
 003A4C 9680 D04F      00007       29566             +
 003A50 58F0 AA3E/0DEF       04258 29572             +
 003A56 1200/4770 A4DA       03CF4 29574    3872.              IF    (RVR,NZ),CTLDONE        No, an access exception
 003A5C 5810 601C            0001C 29591    3873.              L     RS,MTCBSIB              Get the SIB address
 USING  SIB,R1                     29592    3874.              WITH  (SIB,RS),'MVC @RJ(16),SIBTABS'    Move in the tabs
 003A60 D20F 4000 10C2 00000 000C2 29607             +
 DROP   SIB,R1
 003A66                            29616    3875.              CLEAR MT1WR15                 Set good return
 003A66 D703 6058 6058 00058 00058 29622             +
 003A6C 47F0 A4CA            03CE4 29623    3876.              B     CTLIPOST                And post immediately
1TERMINAL (TERM00) (09:44) (22MAR04) Mode 1 Terminal Interface (MILTEN)                                                     Page  194
0Current Usings:  (PZERO,R0) (MTCB,R6) (PDB,R7) (#SCSR,R8) (CNTRL,R10) (@M1IO-72,R12) (@VALBUF-72,R13)
0Loc    Object Code    Addr1 Addr2  Stmt Lv Lineno    Source Statement           (Hibal 5, Asmedit 3.3)  HLASM R4.0  2004/03/22 09.44
+___    ______ ____    _____ _____  ____ __ ______    ______ _________
0                                  29625    3878.     *
                                   29626    3879.     * CONTROL  4 - Set upper
                                   29627    3880.     *
 003A70                            29628    3881.     CTL04    LABEL ,
 003A70 5830 601C            0001C 29630    3882.              L     RB,MTCBSIB              Get the SIB address
 USING  SIB,R3                     29631    3883.              WITH  (SIB,RB),BEGIN
 003A74 9180 30B4      000B4       29645  1 3884.                IF    ~SIBFUPL,BEGIN          It's already set
 003A78 4710 A26C            03A86 29655  1          +
 003A7C                            29660  2 3885.                  CLEAR MT1WR15                 Good return
 003A7C D703 6058 6058 00058 00058 29666  2          +
 003A82 47F0 A4CA            03CE4 29667  2 3886.                  B     CTLIPOST                And go post
 003A86                            29668  1 3887.                END   ,
 DROP   SIB,R3                     29672    3888.              END   ,
 003A86 47F0 A4A2            03CBC 29680    3889.              B     CTLSTSK                 Finish it in the task
                                   29681    3890.     *
                                   29682    3891.     * CONTROL  5 - Set Uplow
                                   29683    3892.     *
 003A8A                            29684    3893.     CTL05    LABEL ,
 003A8A 5830 601C            0001C 29686    3894.              L     RB,MTCBSIB              Get the SIB address
 USING  SIB,R3                     29687    3895.              WITH  (SIB,RB),BEGIN
 003A8E 9180 30B4      000B4       29701  1 3896.                IF    SIBFUPL,BEGIN           It's already set
 003A92 47E0 A286            03AA0 29711  1          +
 003A96                            29716  2 3897.                  CLEAR MT1WR15                 Good return
 003A96 D703 6058 6058 00058 00058 29722  2          +
 003A9C 47F0 A4CA            03CE4 29723  2 3898.                  B     CTLIPOST                And go post
 003AA0                            29724  1 3899.                END   ,
 DROP   SIB,R3                     29728    3900.              END   ,
 003AA0 47F0 A4A2            03CBC 29736    3901.              B     CTLSTSK                 Otherwize complete in the task
                                   29737    3902.     *
                                   29738    3903.     * CONTROL  6 - Sense the translation mode
                                   29739    3904.     *
 003AA4                            29740    3905.     CTL06    LABEL ,
 003AA4 5830 601C            0001C 29742    3906.              L     RB,MTCBSIB              Get the SIB address
 USING  SIB,R3                     29743    3907.              WITH  (SIB,RB),BEGIN
 003AA8                            29757  1 3908.                CLEAR MT1WR15                 Default (UPPER)
 003AA8 D703 6058 6058 00058 00058 29763  1          +
 003AAE 9180 30B4      000B4       29764  1 3909.                IF    SIBFUPL,'MVC MT1WR15,=A(4)'
 003AB2 47E0 A2A2            03ABC 29774  1          +
 003AB6 D203 6058 AA42 00058 0425C 29780  1          +
 DROP   SIB,R3                     29785    3910.              END   ,
 003ABC 47F0 A4CA            03CE4 29793    3911.              B     CTLIPOST                And go post
1TERMINAL (TERM00) (09:44) (22MAR04) Mode 1 Terminal Interface (MILTEN)                                                     Page  195
0Current Usings:  (PZERO,R0) (MTCB,R6) (PDB,R7) (#SCSR,R8) (CNTRL,R10) (@M1IO-72,R12) (@VALBUF-72,R13)
0Loc    Object Code    Addr1 Addr2  Stmt Lv Lineno    Source Statement           (Hibal 5, Asmedit 3.3)  HLASM R4.0  2004/03/22 09.44
+___    ______ ____    _____ _____  ____ __ ______    ______ _________
0                                  29795    3913.     *
                                   29796    3914.     * CONTROL  7 - Sets no cariage control on terminal writes
                                   29797    3915.     *
 003AC0                            29798    3916.     CTL07    LABEL ,
 003AC0 947F 6073      00073       29800    3917.              CLEAR MT1FCC                  Clear the flag
 003AC4                            29807    3918.              CLEAR MT1WR15                 Good return
 003AC4 D703 6058 6058 00058 00058 29813             +
 003ACA 47F0 A4CA            03CE4 29814    3919.              B     CTLIPOST                And go postit
                                   29815    3920.     *
                                   29816    3921.     * CONTROL  8 - Sets carriage control on terminal writes
                                   29817    3922.     *
 003ACE                            29818    3923.     CTL08    LABEL ,
 003ACE 9680 6073      00073       29820    3924.              SET   MT1FCC                  Set the flag
 003AD2                            29826    3925.              CLEAR MT1WR15                 Good return
 003AD2 D703 6058 6058 00058 00058 29832             +
 003AD8 47F0 A4CA            03CE4 29833    3926.              B     CTLIPOST                Go post
                                   29834    3927.     *
                                   29835    3928.     * CONTROL  9 - Sense the status of carriage control on writes
                                   29836    3929.     *
 003ADC                            29837    3930.     CTL09    LABEL ,
 003ADC                            29839    3931.              CLEAR MT1WR15                 Default is no CC
 003ADC D703 6058 6058 00058 00058 29845             +
 003AE2 9180 6073      00073       29846    3932.              IF    MT1FCC,'MVC MT1WR15,=A(4)' CC in effect
 003AE6 47E0 A2D6            03AF0 29856             +
 003AEA D203 6058 AA42 00058 0425C 29862             +
 003AF0 47F0 A4CA            03CE4 29867    3933.              B     CTLIPOST                Then post
1TERMINAL (TERM00) (09:44) (22MAR04) Mode 1 Terminal Interface (MILTEN)                                                     Page  196
0Current Usings:  (PZERO,R0) (MTCB,R6) (PDB,R7) (#SCSR,R8) (CNTRL,R10) (@M1IO-72,R12) (@VALBUF-72,R13)
0Loc    Object Code    Addr1 Addr2  Stmt Lv Lineno    Source Statement           (Hibal 5, Asmedit 3.3)  HLASM R4.0  2004/03/22 09.44
+___    ______ ____    _____ _____  ____ __ ______    ______ _________
0                                  29869    3935.     *
                                   29870    3936.     * CONTROL 12 - Set the Wylbur mode word
                                   29871    3937.     *
 003AF4                            29872    3938.     CTL12    LABEL ,
 003AF4 5830 C050            00008 29874    3939.              L     RB,@M1IOR15             Get one desired
 003AF8 5930 6024            00024 29875    3940.              C     RB,MTCBWMW              See if it's the same as ours
 003AFC 4770 A2F0            03B0A 29876    3941.              IF    EQ,BEGIN                It is, we can skip the I/O
 003B00                            29887  1 3942.                CLEAR MT1WR15                 Good return
 003B00 D703 6058 6058 00058 00058 29893  1          +
 003B06 47F0 A4CA            03CE4 29894  1 3943.                B     CTLIPOST                Then go post
 003B0A                            29895    3944.              END   ,
 003B0A 5030 6024            00024 29899    3945.              ST    RB,MTCBWMW              Save the new mode word
 003B0E 47F0 A308            03B22 29900    3946.              B     WYLCNTL                 Go do it
                                   29901    3947.     *
                                   29902    3948.     * CONTROL 13 - Sense the Wylbur mode word
                                   29903    3949.     *
 003B12                            29904    3950.     CTL13    LABEL ,
 003B12                            29906    3951.              CLEAR MT1WR15                 Good return
 003B12 D703 6058 6058 00058 00058 29912             +
 003B18 D203 6050 6024 00050 00024 29913    3952.              MVC   MT1WR01,MTCBWMW         Give him the mode word
 003B1E 47F0 A4CA            03CE4 29914    3953.              B     CTLIPOST                Then post complete
1TERMINAL (TERM00) (09:44) (22MAR04) Mode 1 Terminal Interface (MILTEN)                                                     Page  197
0Current Usings:  (PZERO,R0) (MTCB,R6) (PDB,R7) (#SCSR,R8) (CNTRL,R10) (@M1IO-72,R12) (@VALBUF-72,R13)
0Loc    Object Code    Addr1 Addr2  Stmt Lv Lineno    Source Statement           (Hibal 5, Asmedit 3.3)  HLASM R4.0  2004/03/22 09.44
+___    ______ ____    _____ _____  ____ __ ______    ______ _________
0                                  29916    3955.     *
                                   29917    3956.     * Common code for all Wylbur controls
                                   29918    3957.     *
 003B22                            29919    3958.     WYLCNTL  LABEL ,
 003B22 5880 6020            00020 29921    3959.              L     RM,MTCBIOPA             Get the parm address
                                   29922    3960.              WITH  (#SCSR,RM)
 003B26                            29926    3961.              CLEAR #SCSR                   Clear the area
 003B26 D717 8000 8000 00000 00000 29932             +
 003B2C 5870 6018            00018 29933    3962.              L     RY,MTCBPDB              Get a PDB
                                   29934    3963.              WITH  (PDB,RY)
 003B30                            29938    3964.              CLEAR PDB                     Clear it
 003B30 D733 7000 7000 00004 00004 29944             +
                                   29945    3965.     *
                                   29946    3966.     * Format the PDB
                                   29947    3967.     *
 003B36 D201 7000 6004 00004 00004 29948    3968.              MVC   PDBLIN#,MTCBLINE        Line number
 003B3C 9247 7002      00006       29949    3969.              MVI   PDBCMD,TMILXCTL         Transfer control
 003B40 D207 7020 6006 00024 00006 29950    3970.              MVC   PDBSYSNM,MTCBWYLN       To wylbur
 003B46 9208 702C      00030       29951    3971.              MVI   FORVCMD,FORVCNTL        Control command
 003B4A D20F 7010 6074 00014 00074 29952    3972.              MVC   PDBVINFO,MT1PGM         Move in program info
 003B50 D200 702D 6071 00031 00071 29953    3973.              MVC   FORVCMDM,MT1CNTL        Control number
 003B56 950C 6071      00071       29954    3974.              IF    (MT1CNTL,EQ,12),BEGIN   Set mode word
 003B5A 4770 A350            03B6A 29967             +
 003B5E D200 7032 6024 00036 00024 29972  1 3975.                MVC   CNTLMDWD(1),MTCBWMW     Move prompt prefix
 003B64 D200 7033 6027 00037 00027 29973  1 3976.                MVC   CNTLMDWD+1(1),MTCBWMW+3 And the data bits
 003B6A                            29974    3977.              END   ,
 DROP   @VALBUF-72,R13             29978    3978.              FIX   PDB,L'PDB               Fix it
 USING  @PAGE-72,R13
 003B6A D708 D048 D048 00000 00000 29999             +
 003B70 5070 D048            00000 30010             +
 003B74 4100 0034            00034 30022             +
 003B78 5000 D04C            00004 30027             +
 003B7C 58F0 AA2E/0DEF       04248 30030             +
 003B82 5070 D04C            00004 30032    3979.              ADDSG PDB,L'PDB,#SCSR         Add it to the list to send
 DROP   @PAGE-72,R13
 USING  @ADDSEG-72,R13
 003B86 4100 0034            00034 30069             +
 003B8A 4000 D050            00008 30074             +
 003B8E 5080 D048            00000 30085             +
 003B92 58F0 AA32/0DEF       0424C 30091             +
 003B98 58F0 AA36/0DEF       04250 30093    3980.              ACALL MILSX                   Send it off
 DROP   @ADDSEG-72,R13             30100    3981.              UNFIX PDB,L'PDB               Unfix the PDB
 USING  @PAGE-72,R13
 003B9E D708 D048 D048 00000 00000 30121             +
 003BA4 5070 D048            00000 30132             +
 003BA8 4100 0034            00034 30144             +
 003BAC 5000 D04C            00004 30149             +
 003BB0 58F0 AA3A/0DEF       04254 30152             +
 003BB6 9610 6073      00073       30154    3982.              SET   MT1FCIO                 Control I/O started
 003BBA 47F0 A4A2            03CBC 30160    3983.              B     CTLSTSK                 Go start up the task
1TERMINAL (TERM00) (09:44) (22MAR04) Mode 1 Terminal Interface (MILTEN)                                                     Page  198
0Current Usings:  (PZERO,R0) (MTCB,R6) (PDB,R7) (#SCSR,R8) (CNTRL,R10) (@M1IO-72,R12) (@PAGE-72,R13)
0Loc    Object Code    Addr1 Addr2  Stmt Lv Lineno    Source Statement           (Hibal 5, Asmedit 3.3)  HLASM R4.0  2004/03/22 09.44
+___    ______ ____    _____ _____  ____ __ ______    ______ _________
0                                  30162    3985.     *
                                   30163    3986.     * CONTROL 21 - Sense terminal information, dummied up
                                   30164    3987.     *
 003BBE                            30165    3988.     CTL21    LABEL ,
 003BBE 5820 C050            00008 30167    3989.              L     RA,@M1IOR15             Get the address
 DROP   @PAGE-72,R13               30168    3990.              VALBUF (RA),LA:60,MT1RKEY,W   Can we update the area?
 USING  @VALBUF-72,R13
 003BC2 D707 D048 D048 00000 00000 30189             +
 003BC8 5020 D048            00000 30199             +
 003BCC 4100 003C            0003C 30211             +
 003BD0 4000 D04C/1F00       00004 30216             +
 003BD6 4300 6072            00072 30228             +
 003BDA 4200 D04E            00006 30234             +
 003BDE 9680 D04F      00007       30240             +
 003BE2 58F0 AA3E/0DEF       04258 30246             +
 003BE8 1200/4770 A4DA       03CF4 30248    3991.              IF    (RVR,NZ),CTLDONE        Nope, access exception
 003BEE 5810 601C            0001C 30265    3992.              L     RS,MTCBSIB              SIB address
 USING  SIB,R1                     30266    3993.              WITH  (SIB,RS),BEGIN
 003BF2 D201 2000 1049 00000 00049 30280  1 3994.                MVC   @RA(2),SIBTINFO         Terminal type
 003BF8 D200 2002 10D5 00002 000D5 30281  1 3995.                MVC   @RA+2(1),SIBWID+1       Width
 003BFE D200 2003 10D9 00003 000D9 30282  1 3996.                MVC   @RA+3(1),SIBHEI+1       Height
 DROP   SIB,R1                     30283    3997.              END   ,
 003C04                            30291    3998.              CLEAR MT1WR15                 Clear the return code
 003C04 D703 6058 6058 00058 00058 30297             +
 003C0A 47F0 A4CA            03CE4 30298    3999.              B     CTLIPOST                And post complete
1TERMINAL (TERM00) (09:44) (22MAR04) Mode 1 Terminal Interface (MILTEN)                                                     Page  199
0Current Usings:  (PZERO,R0) (MTCB,R6) (PDB,R7) (#SCSR,R8) (CNTRL,R10) (@M1IO-72,R12) (@VALBUF-72,R13)
0Loc    Object Code    Addr1 Addr2  Stmt Lv Lineno    Source Statement           (Hibal 5, Asmedit 3.3)  HLASM R4.0  2004/03/22 09.44
+___    ______ ____    _____ _____  ____ __ ______    ______ _________
0                                  30300    4001.     *
                                   30301    4002.     * CONTROL 25 - Clear Auto NL on terminal writes
                                   30302    4003.     *
 003C0E                            30303    4004.     CTL25    LABEL ,
 003C0E 9640 6073      00073       30305    4005.              SET   MT1FNWNL                Set no write new lines
 003C12                            30311    4006.              CLEAR MT1WR15                 Good return
 003C12 D703 6058 6058 00058 00058 30317             +
 003C18 47F0 A4CA            03CE4 30318    4007.              B     CTLIPOST                Post it complete
                                   30319    4008.     *
                                   30320    4009.     * CONTROL 26 - Set Auto NL on terminal writes
                                   30321    4010.     *
 003C1C                            30322    4011.     CTL26    LABEL ,
 003C1C 94BF 6073      00073       30324    4012.              CLEAR MT1FNWNL                Set write new lines
 003C20                            30331    4013.              CLEAR MT1WR15                 Good return
 003C20 D703 6058 6058 00058 00058 30337             +
 003C26 47F0 A4CA            03CE4 30338    4014.              B     CTLIPOST                Post it complete
                                   30339    4015.     *
                                   30340    4016.     * CONTROL 27 - Sense the state of auto newline on writes
                                   30341    4017.     *
 003C2A                            30342    4018.     CTL27    LABEL ,
 003C2A                            30344    4019.              CLEAR MT1WR15                 Default: Auto newline
 003C2A D703 6058 6058 00058 00058 30350             +
 003C30 9140 6073      00073       30351    4020.              IF    MT1FNWNL,'MVC MT1WR15,=A(4)'      No auto newline
 003C34 47E0 A424            03C3E 30361             +
 003C38 D203 6058 AA42 00058 0425C 30367             +
 003C3E 47F0 A4CA            03CE4 30372    4021.              B     CTLIPOST                Post it complete
1TERMINAL (TERM00) (09:44) (22MAR04) Mode 1 Terminal Interface (MILTEN)                                                     Page  200
0Current Usings:  (PZERO,R0) (MTCB,R6) (PDB,R7) (#SCSR,R8) (CNTRL,R10) (@M1IO-72,R12) (@VALBUF-72,R13)
0Loc    Object Code    Addr1 Addr2  Stmt Lv Lineno    Source Statement           (Hibal 5, Asmedit 3.3)  HLASM R4.0  2004/03/22 09.44
+___    ______ ____    _____ _____  ____ __ ______    ______ _________
0                                  30374    4023.     *
                                   30375    4024.     * CONTROL 30 - Set the milten mode word. We only look at a few bits.
                                   30376    4025.     *
 003C42                            30377    4026.     CTL30    LABEL ,
 003C42 9180 C053      0000B       30379    4027.              IF    @M1IOR15+3.X'80','SET MT1FCC'     Carriage control on
 003C46 47E0 A434            03C4E 30390             +
 003C4A 9680 6073      00073       30401             +
 003C4E A438           03C4E 03C48 30406    4028.              ELSE  'CLEAR MT1FCC'                    Carriage control off
 003C4E 47F0 A43C            03C56 30411             +
 003C52 947F 6073      00073       30424             +
 003C56 9140 C053      0000B       30429    4029.              IF    @M1IOR15+3.X'40','SET MT1FNWNL'   No write NL's
 003C5A 47E0 A448            03C62 30440             +
 003C5E 9640 6073      00073       30451             +
 003C62 A44C           03C62 03C5C 30456    4030.              ELSE  'CLEAR MT1FNWNL'                  Set Write NL's
 003C62 47F0 A450            03C6A 30461             +
 003C66 94BF 6073      00073       30474             +
 003C6A                            30479    4031.              CLEAR MT1WR15
 003C6A D703 6058 6058 00058 00058 30485             +
 003C70 47F0 A4CA            03CE4 30486    4032.              B     CTLIPOST                Post complete
                                   30487    4033.     *
                                   30488    4034.     * CONTROL 31 - Sense the milten mode word (dummy)
                                   30489    4035.     *
 003C74                            30490    4036.     CTL31    LABEL ,
 003C74                            30492    4037.              CLEAR MT1WR01                 Default is no bits
 003C74 D703 6050 6050 00050 00050 30498             +
 003C7A 9180 6073      00073       30499    4038.              IF    MT1FCC,BEGIN            Carriage control on
 003C7E 47E0 A46C            03C86 30509             +
 003C82 9680 6053      00053       30514  1 4039.                SET   MT1WR01+3.X'80'         Tell the caller
 003C86                            30521    4040.              END   ,
 003C86 9140 6073      00073       30525    4041.              IF    MT1FNWNL,BEGIN          No NL's on Write
 003C8A 47E0 A478            03C92 30535             +
 003C8E 9640 6053      00053       30540  1 4042.                SET   MT1WR01+3.X'40'         Tell the Caller
 003C92                            30547    4043.              END   ,
 003C92                            30551    4044.              CLEAR MT1WR15
 003C92 D703 6058 6058 00058 00058 30557             +
 003C98 47F0 A4CA            03CE4 30558    4045.              B     CTLIPOST                Post complete
                                   30559    4046.     *
                                   30560    4047.     * CONTROL 32 - Set WYLBUR exec break or mode retry
                                   30561    4048.     *
 003C9C                            30562    4049.     CTL32    LABEL ,
 003C9C                            30564    4050.              IF    (@M1IOR15,Z),'SET MTFLWCME' Command error
 003C9C D603 C050 C050 00008 00008 30574             +
 003CA2 4770 A490            03CAA 30575             +
 003CA6 9610 6028      00028       30586             +
 003CAA A494           03CAA 03CA4 30591    4051.              ELSE  'SET MTFLWATN'              Attention
 003CAA 47F0 A498            03CB2 30596             +
 003CAE 9620 6028      00028       30608             +
 003CB2                            30613    4052.              CLEAR MT1WR15
 003CB2 D703 6058 6058 00058 00058 30619             +
 003CB8 47F0 A4CA            03CE4 30620    4053.              B     CTLIPOST                Go post it complete
1TERMINAL (TERM00) (09:44) (22MAR04) Mode 1 Terminal Interface (MILTEN)                                                     Page  201
0Current Usings:  (PZERO,R0) (MTCB,R6) (PDB,R7) (#SCSR,R8) (CNTRL,R10) (@M1IO-72,R12) (@VALBUF-72,R13)
0Loc    Object Code    Addr1 Addr2  Stmt Lv Lineno    Source Statement           (Hibal 5, Asmedit 3.3)  HLASM R4.0  2004/03/22 09.44
+___    ______ ____    _____ _____  ____ __ ______    ______ _________
0                                  30622    4055.     *
                                   30623    4056.     * Some action has been initiate that we have to wait for, start up
                                   30624    4057.     * the task that will handle the completion
                                   30625    4058.     *
 003CBC                            30626    4059.     CTLSTSK  LABEL ,
 DROP   @VALBUF-72,R13             30628    4060.              PSET  @TCREATE
 USING  @TCREATE-72,R13
 003CBC D714 D048 D048 00000 00000 30648             +
 003CC2 D203 D048 AA46 00000 04260 30649    4061.              MVC   @TCRPSW(4),=X'070C0000'
 003CC8 D203 D04C AA4A 00004 04264 30650    4062.              MVC   @TCRPSW+4(4),=A(X'80000000'+CNTLX)
 003CCE D203 D058 AA4E 00010 04268 30651    4063.              MVC   @TCRPRIO,=A(10)         Higher priority
 003CD4 9680 D05C      00014       30652    4064.              SET   @TCRFSTK                It will need a stack
 003CD8 58F0 AA52/0DEF       0426C 30658    4065.              VCALL TCREATE                 Create the stack
 003CDE 1B00                       30662    4066.              CLEAR RVR                     All is well here
 003CE0 47F0 A4DA            03CF4 30666    4067.              B     CTLDONE                 Return to the caller
                                   30667    4068.     *
                                   30668    4069.     * Post the I/O complete
                                   30669    4070.     *
 003CE4 58F0 AA56/0DEF       04270 30670    4071.     CTLIPOST ACALL M1IODONE                Call the completion routine
 003CEA 1B00                       30677    4072.              CLEAR RVR                     Signal good return here
 003CEC 47F0 A4DA            03CF4 30681    4073.              B     CTLDONE
 003CF0 4100 0006            00006 30682    4074.     CTLSPEC  LA    RVR,6                   Specification error
 003CF4 981F C008            00008 30683    4075.     CTLDONE  PEND  ,
 DROP   PDB,R7
 DROP   #SCSR,R8
 DROP   MTCB,R6
 DROP   @M1IO-72,R12
 DROP   CNTRL,R10
 003CF8 9680 C000/0B0E 00000       30714             +
 DROP   @TCREATE-72,R13
1TERMINAL (TERM00) (09:44) (22MAR04) Mode 1 Terminal Interface (MILTEN)                                                     Page  202
0Current Usings:  (PZERO,R0)
0Loc    Object Code    Addr1 Addr2  Stmt Lv Lineno    Source Statement           (Hibal 5, Asmedit 3.3)  HLASM R4.0  2004/03/22 09.44
+___    ______ ____    _____ _____  ____ __ ______    ______ _________
0                                  30724    4077.     *****************************************************************
                                   30725    4078.     *                                                               *
                                   30726    4079.     *    CNTLX --  This is the Mode 1 terminal control completion   *
                                   30727    4080.     *              routine.                                         *
                                   30728    4081.     *                                                               *
                                   30729    4082.     *   Input  --  none                                             *
                                   30730    4083.     *                                                               *
                                   30731    4084.     *  Output  --  none                                             *
                                   30732    4085.     *                                                               *
                                   30733    4086.     *****************************************************************
-003CFE                            30735    4088.     CNTLX    PROC  SCOPE=LOCAL
 003CFE C3D5E3D3E7404040           30742             +
 003D06 0000/0000                  30743             +
 003D0A 900F D004/18AF       00004 30745             +
 USING  CNTLX,R10
 003D10 50D0 C000/18CD       00000 30760             +
 003D16 9680 C000      00000       30762             +
 003D1A 41D0 C048            00048 30763             +
                                   30764    4089.     *
                                   30765    4090.     * Get our bearings
                                   30766    4091.     *
 003D1E 5860 0208            00208 30767    4092.              L     RX,PZCURASB             Get the current ASB address
 003D22 5860 6030            00030 30768    4093.              WITH  (ASB,RX),'L RX,ASBTCCB' Get the MTCB address
 USING  ASB,R6
 DROP   ASB,R6
 USING  MTCB,R6                    30792    4094.              WITH  (MTCB,RX)
                                   30805    4095.     *
                                   30806    4096.     * Wait for the Response to come back from milten
                                   30807    4097.     *
 003D26 9110 6073      00073       30808    4098.              IF    ~MT1FCIO,DOCTLX         Skip if no control I/O out
 003D2A 47E0 A048            03D52 30820             +
 003D2E 94EF 6073      00073       30826    4099.              CLEAR MT1FCIO                 Then clear the flag
 003D32 58F0 A56A/0DEF       04274 30833    4100.              ACALL MILRX                   Get the buffer back
 003D38 1880                       30840    4101.              LR    RM,RVR                  Get the TBUF address
 USING  TBUF,R8                    30841    4102.              WITH  (TBUF,RM)               Address it
 AUSING (PDB,TBUFDATA)             30854    4103.              WITH  (PDB,TBUFDATA)          Address the PDB too
 003D3A 9180 8019      0000D       30861    4104.              IF    PDBCPLB.CPLBLGF,BEGIN
 003D3E 47E0 A048            03D52 30872             +
 003D42 58F0 A56E/0DEF       04278 30877  1 4105.                ACALL M1LOGOFF                Schedule a logoff exit
 003D48                            30884  1 4106.                CLEAR MT1WR15                 Make everyone happy
 003D48 D703 6058 6058 00058 00058 30890  1          +
 003D4E 47F0 A214            03F1E 30891  1 4107.                B     CTLXLODN                Finish up
 003D52                            30892    4108.              END   ,
                                   30896    4109.     *
                                   30897    4110.     * Decide what kind of Control it was, and dispatch accordingly
                                   30898    4111.     *
 003D52 1F11/4310 6071       00071 30899    4112.     DOCTLX   LC    RS,MT1CNTL              Get the control number
 003D58 1211/4740 A0DC       03DE6 30906    4113.              IF    (RS,NEG),CTLXBAD        It is too small
 003D5E 5910 A536            04240 30923    4114.              IF    (RS,GT,MAXCNTL),CTLXBAD It is too big
 003D62 4720 A0DC            03DE6 30937             +
 003D66 8910 0002            00002 30943    4115.              SLL   RS,2                    *4
 003D6A 47F1 A064            03D6E 30944    4116.              B     *+4(RS)                 Branch to the routine
1TERMINAL (TERM00) (09:44) (22MAR04) Mode 1 Terminal Interface (MILTEN)                                                     Page  203
0Current Usings:  (PZERO,R0) (MTCB,R6) (TBUF,R8) (CNTLX,R10)
0Loc    Object Code    Addr1 Addr2  Stmt Lv Lineno    Source Statement           (Hibal 5, Asmedit 3.3)  HLASM R4.0  2004/03/22 09.44
+___    ______ ____    _____ _____  ____ __ ______    ______ _________
0003D6E 47F0 A10C            03E16 30945    4117.     CTTAB2   B     CTLX00                0 Space lines
 003D72 47F0 A10C            03E16 30946    4118.              B     CTLX01                1 Page eject
 003D76 47F0 A0DC            03DE6 30947    4119.              B     CTLXBAD               2 Set Tabs
 003D7A 47F0 A0DC            03DE6 30948    4120.              B     CTLXBAD               3 Sense Tabs
 003D7E 47F0 A156            03E60 30949    4121.              B     CTLX04                4 Set Upper
 003D82 47F0 A174            03E7E 30950    4122.              B     CTLX05                5 Set Uplow
 003D86 47F0 A0DC            03DE6 30951    4123.              B     CTLXBAD               6 Sense Case
 003D8A 47F0 A0DC            03DE6 30952    4124.              B     CTLXBAD               7 Set CC
 003D8E 47F0 A0DC            03DE6 30953    4125.              B     CTLXBAD               8 Set No CC
 003D92 47F0 A0DC            03DE6 30954    4126.              B     CTLXBAD               9 Sense CC
 003D96 47F0 A0DC            03DE6 30955    4127.              B     CTLXBAD              10 Set Backspace character
 003D9A 47F0 A0DC            03DE6 30956    4128.              B     CTLXBAD              11 Sense Backspace character
 003D9E 47F0 A192            03E9C 30957    4129.              B     CTLXWYL              12 Set Wylbur mode word
 003DA2 47F0 A0DC            03DE6 30958    4130.              B     CTLXBAD              13 Sense Wylbur mode word
 003DA6 47F0 A192            03E9C 30959    4131.              B     CTLXWYL              14 Sense Wylbur active file size
 003DAA 47F0 A192            03E9C 30960    4132.              B     CTLXWYL              15 Sense Wylbur first line number
 003DAE 47F0 A192            03E9C 30961    4133.              B     CTLXWYL              16 Sense Wylbur last line number
 003DB2 47F0 A192            03E9C 30962    4134.              B     CTLXWYL              17 Clear Wylbur active file
 003DB6 47F0 A192            03E9C 30963    4135.              B     CTLXWYL              18 Abort Wylbur command in progress
 003DBA 47F0 A0DC            03DE6 30964    4136.              B     CTLXBAD              19 Write Wylbur lines to terminal
 003DBE 47F0 A0DC            03DE6 30965    4137.              B     CTLXBAD              20 Obtain permission for next line
 003DC2 47F0 A0DC            03DE6 30966    4138.              B     CTLXBAD              21 Sense terminal info
 003DC6 47F0 A0DC            03DE6 30967    4139.              B     CTLXBAD              22 -- handled in M1SERV --
 003DCA 47F0 A0DC            03DE6 30968    4140.              B     CTLXBAD              23 -- handled in M1SERV --
 003DCE 47F0 A0DC            03DE6 30969    4141.              B     CTLXBAD              24 -- handled in M1SERV --
 003DD2 47F0 A0DC            03DE6 30970    4142.              B     CTLXBAD              25 Clear auto NL on write
 003DD6 47F0 A0DC            03DE6 30971    4143.              B     CTLXBAD              26 Set auto NL on write
 003DDA 47F0 A0DC            03DE6 30972    4144.              B     CTLXBAD              27 Sense auto NL status
 003DDE 47F0 A192            03E9C 30973    4145.              B     CTLXWYL              28 Sense wylbur delta
 003DE2 47F0 A0DC            03DE6 30974    4146.              B     CTLXBAD              29 Open new active file
                                   30975    4147.
                                   30976    4148.     MAXCTLX  EQU   (*-CTTAB2)/4            Maximum control number
 003DE6 AC04 021B      0021B       30977    4149.     CTLXBAD  ABORT BADWCNTL                Bad control involving I/O
 003DEA 9680 021A      0021A       30987             +
 003DEE 50F0 021C            0021C 30988             +
 003DF2 58F0 0210            00210 30989             +
 003DF6 89F0 0010            00010 30990             +
 003DFA 88F0 0010            00010 30991             +
 003DFE 41F0 F000            00000 30992             +
 003E02 AEFF 0006            00006 30993             +
 003E06 C2C1C4E6C3D5E3D3           30994             +
1TERMINAL (TERM00) (09:44) (22MAR04) Mode 1 Terminal Interface (MILTEN)                                                     Page  204
0Current Usings:  (PZERO,R0) (MTCB,R6) (TBUF,R8) (CNTLX,R10)
0Loc    Object Code    Addr1 Addr2  Stmt Lv Lineno    Source Statement           (Hibal 5, Asmedit 3.3)  HLASM R4.0  2004/03/22 09.44
+___    ______ ____    _____ _____  ____ __ ______    ______ _________
0                                  30996    4151.     *
                                   30997    4152.     * Control 0 and 1, just have a write completion from milten
                                   30998    4153.     *
 003E16                            30999    4154.     CTLX00   LABEL ,
 003E16                            31001    4155.     CTLX01   LABEL ,
                                   31003    4156.     *        IF    (PDBCMD,NE,FMILWRIT),'ABORT *SEQERR'
 003E16 9541 8012      00006       31004    4157.              IF    (PDBCMD,NE,FMILWRIT),BEGIN
 003E1A 4780 A128            03E32 31017             +
 003E1E 83000012/8408              31022  1 4158.                ORVSNAP 'MILCNTLX',MODE=WTL
 003E24 4100 A51E            04228 31027  1          +
 003E28 83000012                   31028  1 4159.                ORVSNAP TBUF,255
 003E2C 14FF00008000               31032  1          +
 003E32                            31033    4160.              END   ,
                                   31037    4161.     *
                                   31038    4162.     * Handle the returns
                                   31039    4163.     *
 003E32 9140 8018      0000C       31040    4164.              IF    PDBCPLA.CPLAIOE,BEGIN
 003E36 47E0 A13A            03E44 31051             +
 003E3A D203 6058 A572 00058 0427C 31056  1 4165.                MVC   MT1WR15,=A(-4)          I/O error
 003E40 47F0 A200            03F0A 31057  1 4166.                B     CTLXDONE
 003E44                            31058    4167.              END   ,
 003E44 9180 8018      0000C       31062    4168.              IF    PDBCPLA.CPLAATTN,BEGIN
 003E48 47E0 A14C            03E56 31073             +
 003E4C D203 6058 A552 00058 0425C 31078  1 4169.                MVC   MT1WR15,=A(4)           Ended by attention
 003E52 47F0 A200            03F0A 31079  1 4170.                B     CTLXDONE
 003E56                            31080    4171.              END   ,
 003E56                            31084    4172.              CLEAR MT1WR15                 Must be a good return
 003E56 D703 6058 6058 00058 00058 31090             +
 003E5C 47F0 A200            03F0A 31091    4173.              B     CTLXDONE
1TERMINAL (TERM00) (09:44) (22MAR04) Mode 1 Terminal Interface (MILTEN)                                                     Page  205
0Current Usings:  (PZERO,R0) (MTCB,R6) (TBUF,R8) (CNTLX,R10)
0Loc    Object Code    Addr1 Addr2  Stmt Lv Lineno    Source Statement           (Hibal 5, Asmedit 3.3)  HLASM R4.0  2004/03/22 09.44
+___    ______ ____    _____ _____  ____ __ ______    ______ _________
0                                  31093    4175.     *
                                   31094    4176.     * Control 4 set the terminal translation mode to UPPER by updating
                                   31095    4177.     * the SIB.
                                   31096    4178.     *
 003E60                            31097    4179.     CTLX04   LABEL ,
 003E60 5810 601C            0001C 31099    4180.              L     RS,MTCBSIB              Get the SIB address
 003E64 947F 10B4      000B4       31100    4181.              WITH  (SIB,RS),'CLEAR SIBFUPL'  Clear the uplow flag
 USING  SIB,R1
 DROP   SIB,R1
 003E68 58F0 A576/0DEF       04280 31130    4182.              ACALL NEWSIB                  Update the SIB
 003E6E 1200/4770 A156       03E60 31137    4183.              IF    (RVR,NZ),CTLX04         It didn't work, try again
 003E74                            31154    4184.              CLEAR MT1WR15                 Good return
 003E74 D703 6058 6058 00058 00058 31160             +
 003E7A 47F0 A224            03F2E 31161    4185.              B     CTLXXDN                 All done
-                                  31163    4187.     *
                                   31164    4188.     * Control 5 set the terminal translation mode to UPLOW by updating
                                   31165    4189.     * the SIB.
                                   31166    4190.     *
 003E7E                            31167    4191.     CTLX05   LABEL ,
 003E7E 5810 601C            0001C 31169    4192.              L     RS,MTCBSIB              Get the SIB address
 003E82 9680 10B4      000B4       31170    4193.              WITH  (SIB,RS),'SET SIBFUPL'  Set the uplow flag
 USING  SIB,R1
 DROP   SIB,R1
 003E86 58F0 A576/0DEF       04280 31199    4194.              ACALL NEWSIB                  Update the SIB
 003E8C 1200/4770 A174       03E7E 31206    4195.              IF    (RVR,NZ),CTLX05         It didn't work, try again
 003E92                            31223    4196.              CLEAR MT1WR15                 Good return
 003E92 D703 6058 6058 00058 00058 31229             +
 003E98 47F0 A224            03F2E 31230    4197.              B     CTLXXDN                 All done
1TERMINAL (TERM00) (09:44) (22MAR04) Mode 1 Terminal Interface (MILTEN)                                                     Page  206
0Current Usings:  (PZERO,R0) (MTCB,R6) (TBUF,R8) (CNTLX,R10)
0Loc    Object Code    Addr1 Addr2  Stmt Lv Lineno    Source Statement           (Hibal 5, Asmedit 3.3)  HLASM R4.0  2004/03/22 09.44
+___    ______ ____    _____ _____  ____ __ ______    ______ _________
0                                  31232    4199.     *
                                   31233    4200.     * The Wylbur controls
                                   31234    4201.     *
 003E9C                            31235    4202.     CTLXWYL  LABEL ,                       Set mode word
                                   31237    4203.     *        IF    (PDBCMD,NE,FMILXCTL),'ABORT *SEQERR'
 003E9C 9547 8012      00006       31238    4204.              IF    (PDBCMD,NE,FMILXCTL),BEGIN
 003EA0 4780 A1AE            03EB8 31251             +
 003EA4 83000012/840B              31256  1 4205.                ORVSNAP 'MILCNTLXWYL',MODE=WTL
 003EAA 4100 A59A            042A4 31261  1          +
 003EAE 83000012                   31262  1 4206.                ORVSNAP TBUF,255
 003EB2 14FF00008000               31266  1          +
 003EB8                            31267    4207.              END   ,
                                   31271    4208.     *
                                   31272    4209.     *  If Wylbur is not there log this user off
                                   31273    4210.     *
 003EB8                            31274    4211.              IF    (PDBSYSNM,Z),BEGIN
 003EB8 D607 8030 8030 00024 00024 31284             +
 003EBE 4770 A1CC            03ED6 31285             +
 003EC2 9680 8019      0000D       31290  1 4212.                SET   PDBCPLB.CPLBLGF         Wylbur is gone
 003EC6 58F0 A56E/0DEF       04278 31297  1 4213.                ACALL M1LOGOFF                Schedule the exit
 003ECC                            31304  1 4214.                CLEAR MT1WR15                 Make his time left happy time
 003ECC D703 6058 6058 00058 00058 31310  1          +
 003ED2 47F0 A214            03F1E 31311  1 4215.                B     CTLXLODN                No other info is needed.
 003ED6                            31312    4216.              END   ,
                                   31316    4217.     *
                                   31317    4218.     * Save WYLBUR's name
                                   31318    4219.     *
 003ED6 D207 6006 8030 00006 00024 31319    4220.              MVC   MTCBWYLN,PDBSYSNM       Current wylbur name
                                   31320    4221.     *
                                   31321    4222.     * Handle the returns
                                   31322    4223.     *
 003EDC                            31323    4224.              CLEAR MT1WR15                 Clear the return code
 003EDC D703 6058 6058 00058 00058 31329             +
                                   31330    4225.   C          IF    (((MT1CNTL,GE,14),AND,(MT1CNTL,LE,16)),OR,
 003EE2 950E 6071      00071                4226.                    (MT1CNTL,EQ,28)),BEGIN
 003EE6 4750 A1E8            03EF2 31347             +
 003EEA 9510 6071      00071       31361             +
 003EEE 47C0 A1F0            03EFA 31364             +
 003EF2 951C 6071      00071       31376             +
 003EF6 4770 A200            03F0A 31377             +
 003EFA 1F11/4310 803C       00030 31382  1 4227.                LC    RS,FWYLRTNC
 003F00 5010 6058            00058 31389  1 4228.                ST    RS,MT1WR15              Give that to the user
 003F04 D203 6050 8040 00050 00034 31390  1 4229.                MVC   MT1WR01,CNTLNUML        Return line info in R1
 003F0A                            31391    4230.              END   ,
1TERMINAL (TERM00) (09:44) (22MAR04) Mode 1 Terminal Interface (MILTEN)                                                     Page  207
0Current Usings:  (PZERO,R0) (MTCB,R6) (TBUF,R8) (CNTLX,R10)
0Loc    Object Code    Addr1 Addr2  Stmt Lv Lineno    Source Statement           (Hibal 5, Asmedit 3.3)  HLASM R4.0  2004/03/22 09.44
+___    ______ ____    _____ _____  ____ __ ______    ______ _________
0                                  31396    4232.     *
                                   31397    4233.     * Finish up the Control processing, Update the Sib if that is needed
                                   31398    4234.     *
 003F0A                            31399    4235.     CTLXDONE LABEL ,
 003F0A 5810 601C            0001C 31401    4236.              L     RS,MTCBSIB
 USING  SIB,R1                     31402    4237.              WITH  (SIB,RS),BEGIN
 003F0E                            31416  1 4238.                IF    (PDBSUC,NE,SIBUC),'ACALL CURSIB'  Update needed
 003F0E D501 8038 1080 0002C 00080 31428  1          +
 003F14 4780 A214            03F1E 31429  1          +
 003F18 58F0 A57A/0DEF       04284 31440  1          +
 DROP   SIB,R1                     31446    4239.              END   ,
                                   31454    4240.     *
                                   31455    4241.     * Free the input buffer, and post the I/O complete
                                   31456    4242.     *
 USING  @FRTBUF-72,R13             31457    4243.     CTLXLODN FREEB TBUF
 003F1E D703 D048 D048 00000 00000 31476             +
 003F24 5080 D048            00000 31487             +
 003F28 58F0 A57E/0DEF       04288 31493             +
 003F2E 58F0 A566/0DEF       04270 31495    4244.     CTLXXDN  ACALL M1IODONE
                                   31502    4245.     *
                                   31503    4246.     * Finish up the task
                                   31504    4247.     *
 DROP   @FRTBUF-72,R13             31505    4248.              PSET  @TEXIT
 USING  @TEXIT-72,R13
 003F34 D703 D048 D048 00000 00000 31525             +
 003F3A 58F0 A582/0DEF       0428C 31526    4249.              VCALL TEXIT
 003F40 981F C008            00008 31530    4250.              PEND  ,
 DROP   TBUF,R8
 DROP   MTCB,R6
 DROP   CNTLX,R10
 003F44 9680 C000/0B0E 00000       31550             +
 DROP   @TEXIT-72,R13
1TERMINAL (TERM00) (09:44) (22MAR04) Mode 1 Terminal Interface (MILTEN)                                                     Page  208
0Current Usings:  (PZERO,R0)
0Loc    Object Code    Addr1 Addr2  Stmt Lv Lineno    Source Statement           (Hibal 5, Asmedit 3.3)  HLASM R4.0  2004/03/22 09.44
+___    ______ ____    _____ _____  ____ __ ______    ______ _________
0                                  31560    4252.     *****************************************************************
                                   31561    4253.     *                                                               *
                                   31562    4254.     *     HALT --  This is the Mode 1 terminal Halt routine.        *
                                   31563    4255.     *                                                               *
                                   31564    4256.     *   Input  --  @M1IO                                            *
                                   31565    4257.     *                                                               *
                                   31566    4258.     *  Output  --  none                                             *
                                   31567    4259.     *                                                               *
                                   31568    4260.     *****************************************************************
-003F4A                            31570    4262.     HALT     PROC  @M1IO,SCOPE=LOCAL
 003F4A C8C1D3E340404040           31577             +
 003F52 0010/0000                  31578             +
 003F56 900F D004/18AF       00004 31580             +
 USING  HALT,R10
 003F5C 50D0 C000/18CD       00000 31595             +
 003F62 9680 C000      00000       31597             +
 USING  @M1IO-72,R12
 003F66 41D0 C058            00058 31611             +
                                   31612    4263.     *
                                   31613    4264.     * Find out where we are
                                   31614    4265.     *
 003F6A 5860 0208            00208 31615    4266.              L     RX,PZCURASB             Get the current ASB address
 003F6E 5860 6030            00030 31616    4267.              WITH  (ASB,RX),'L RX,ASBTCCB' Get the MTCB address
 USING  ASB,R6
 DROP   ASB,R6
 USING  MTCB,R6                    31640    4268.              WITH  (MTCB,RX)
                                   31653    4269.     *
                                   31654    4270.     * Get the parm area and PDB
                                   31655    4271.     *
 003F72 5870 6018            00018 31656    4272.              L     RY,MTCBPDB              Get a PDB
 USING  PDB,R7                     31657    4273.              WITH  (PDB,RY)
 003F76                            31670    4274.              CLEAR PDB                     Clean that up too
 003F76 D733 7000 7000 00004 00004 31676             +
 003F7C 5880 6020            00020 31677    4275.              L     RM,MTCBIOPA             Get a parm location
 USING  #SCSR,R8                   31678    4276.              WITH  (#SCSR,RM)
 003F80                            31691    4277.              CLEAR #SCSR
 003F80 D717 8000 8000 00000 00000 31697             +
                                   31698    4278.     *
                                   31699    4279.     * Fill in the PDB
                                   31700    4280.     *
 003F86 D201 7000 6004 00004 00004 31701    4281.              MVC   PDBLIN#,MTCBLINE        Move in the line number
 003F8C 9250 7002      00006       31702    4282.              MVI   PDBCMD,TMILBRK          Send milten a break
 003F90 D20F 7010 6074 00014 00074 31703    4283.              MVC   PDBVINFO,MT1PGM         and the program info
 USING  @PAGE-72,R13               31704    4284.              FIX   PDB,L'PDB
 003F96 D708 D048 D048 00000 00000 31722             +
 003F9C 5070 D048            00000 31733             +
 003FA0 4100 0034            00034 31745             +
 003FA4 5000 D04C            00004 31750             +
 003FA8 58F0 A2F2/0DEF       04248 31753             +
 003FAE 5070 D04C            00004 31755    4285.              ADDSG PDB,L'PDB,#SCSR         Send the PDB
 DROP   @PAGE-72,R13
 USING  @ADDSEG-72,R13
1TERMINAL (TERM00) (09:44) (22MAR04) Mode 1 Terminal Interface (MILTEN)                                                     Page  209
0Current Usings:  (PZERO,R0) (MTCB,R6) (PDB,R7) (#SCSR,R8) (HALT,R10) (@M1IO-72,R12) (@ADDSEG-72,R13)
0Loc    Object Code    Addr1 Addr2  Stmt Lv Lineno    Source Statement           (Hibal 5, Asmedit 3.3)  HLASM R4.0  2004/03/22 09.44
+___    ______ ____    _____ _____  ____ __ ______    ______ _________
0003FB2 4100 0034            00034 31792             +
 003FB6 4000 D050            00008 31797             +
 003FBA 5080 D048            00000 31808             +
 003FBE 58F0 A2F6/0DEF       0424C 31814             +
 003FC4 58F0 A2FA/0DEF       04250 31816    4286.              ACALL MILSX                   Send it off
 DROP   @ADDSEG-72,R13             31823    4287.              UNFIX PDB,L'PDB               Unfix the PDB
 USING  @PAGE-72,R13
 003FCA D708 D048 D048 00000 00000 31844             +
 003FD0 5070 D048            00000 31855             +
 003FD4 4100 0034            00034 31867             +
 003FD8 5000 D04C            00004 31872             +
 003FDC 58F0 A2FE/0DEF       04254 31875             +
 003FE2 981F C008            00008 31877    4288.              PEND
 DROP   #SCSR,R8
 DROP   PDB,R7
 DROP   MTCB,R6
 DROP   @M1IO-72,R12
 DROP   HALT,R10
 003FE6 9680 C000/0B0E 00000       31907             +
 DROP   @PAGE-72,R13
1TERMINAL (TERM00) (09:44) (22MAR04) Mode 1 Terminal Interface (MILTEN)                                                     Page  210
0Current Usings:  (PZERO,R0)
0Loc    Object Code    Addr1 Addr2  Stmt Lv Lineno    Source Statement           (Hibal 5, Asmedit 3.3)  HLASM R4.0  2004/03/22 09.44
+___    ______ ____    _____ _____  ____ __ ______    ______ _________
0                                  31917    4290.     *****************************************************************
                                   31918    4291.     *                                                               *
                                   31919    4292.     *   M1ATTN --  Handle a mode 1 idle attention. This just        *
                                   31920    4293.     *              schedules the proper exit routine.               *
                                   31921    4294.     *                                                               *
                                   31922    4295.     *   Input  --  none                                             *
                                   31923    4296.     *                                                               *
                                   31924    4297.     *  Output  --  none                                             *
                                   31925    4298.     *                                                               *
                                   31926    4299.     *****************************************************************
-003FEC                            31928    4301.     M1ATTN   PROC  @M1IO,SCOPE=LOCAL
 003FEC D4F1C1E3E3D54040           31935             +
 003FF4 0010/0000                  31936             +
 003FF8 900F D004/18AF       00004 31938             +
 USING  M1ATTN,R10
 003FFE 50D0 C000/18CD       00000 31953             +
 004004 9680 C000      00000       31955             +
 USING  @M1IO-72,R12
 004008 41D0 C058            00058 31969             +
 00400C 5860 0208            00208 31970    4302.              L     RX,PZCURASB             ASB address
 004010 5860 6030            00030 31971    4303.              WITH  (ASB,RX),'L RX,ASBTCCB' Get the MTCB address
 USING  ASB,R6
 DROP   ASB,R6
 USING  MTCB,R6                    31995    4304.              WITH  (MTCB,RX)
                                   32008    4305.     *
                                   32009    4306.     * Schedule the exit routine
                                   32010    4307.     *
 USING  @XITDO-72,R13              32011    4308.              PSET  @XITDO
 004014 D71F D048 D048 00000 00000 32028             +
 00401A D203 D048 603C 00000 0003C 32029    4309.              MVC   @XITRQID,MTCBATTN       Get the ATTN request ID
 004020 D203 D04C 606C 00004 0006C 32030    4310.              MVC   @XITTSK,MT1ATSK         Move in the ATTN task
 004026 9208 D050      00008       32031    4311.              MVI   @XITTYPE,XITTATTN       Mark it as an ATTN exit
 AUSING (@M1TATP,@XITPARM)         32032    4312.              WITH  (@M1TATP,@XITPARM)
 00402A D203 D058 604C 00000 0004C 32039    4313.              MVC   @M1TATRQ,MT1RQID        Give him a request ID
 004030 4110 6070            00070 32040    4314.              LA    RS,MT1IACT              Get the address of the count
 004034 5010 D05C            00004 32041    4315.              ST    RS,@M1TATCT             Tell M1SERV about it
 004038 58F0 A298/0DEF       04290 32042    4316.              VCALL XITDO                   Go do it (no matter the RC)
 00403E 981F C008            00008 32046    4317.              PEND  ,
 DROP   MTCB,R6
 DROP   @M1IO-72,R12
 DROP   M1ATTN,R10
 004042 9680 C000/0B0E 00000       32066             +
 DROP   @XITDO-72,R13
1TERMINAL (TERM00) (09:44) (22MAR04) Mode 1 Terminal Interface (MILTEN)                                                     Page  211
0Current Usings:  (PZERO,R0)
0Loc    Object Code    Addr1 Addr2  Stmt Lv Lineno    Source Statement           (Hibal 5, Asmedit 3.3)  HLASM R4.0  2004/03/22 09.44
+___    ______ ____    _____ _____  ____ __ ______    ______ _________
0                                  32076    4319.     *****************************************************************
                                   32077    4320.     *                                                               *
                                   32078    4321.     * M1LOGOFF --  Handle the terminal going away. This just        *
                                   32079    4322.     *              schedules the proper exit routine.               *
                                   32080    4323.     *                                                               *
                                   32081    4324.     *   Input  --  none                                             *
                                   32082    4325.     *                                                               *
                                   32083    4326.     *  Output  --  none                                             *
                                   32084    4327.     *                                                               *
                                   32085    4328.     *****************************************************************
-004048                            32087    4330.     M1LOGOFF PROC  SCOPE=LOCAL
 004048 D4F1D3D6C7D6C6C6           32094             +
 004050 0000/0000                  32095             +
 004054 900F D004/18AF       00004 32097             +
 USING  M1LOGOFF,R10
 00405A 50D0 C000/18CD       00000 32112             +
 004060 9680 C000      00000       32114             +
 004064 41D0 C048            00048 32115             +
 004068 5860 0208            00208 32116    4331.              L     RX,PZCURASB             ASB address
 00406C 5860 6030            00030 32117    4332.              WITH  (ASB,RX),'L RX,ASBTCCB' Get the MTCB address
 USING  ASB,R6
 DROP   ASB,R6
 USING  MTCB,R6                    32141    4333.              WITH  (MTCB,RX)
 004070 9108 6028      00028       32154    4334.              IF    MTFLLGOF,EXIT           Already logging off
 004074 4710 A04A            0409E 32166             +
                                   32172    4335.     *
                                   32173    4336.     * Schedule the exit routine
                                   32174    4337.     *
 USING  @XITDO-72,R13              32175    4338.              PSET  @XITDO
 004078 D71F D048 D048 00000 00000 32192             +
 00407E D203 D048 6044 00000 00044 32193    4339.              MVC   @XITRQID,MTCBLGOF       Get the logoff request ID
 004084 D203 D04C 606C 00004 0006C 32194    4340.              MVC   @XITTSK,MT1ATSK         Move in the ATTN task
 00408A 9206 D050      00008       32195    4341.              MVI   @XITTYPE,XITTLGO        Mark it as an logoff exit
 00408E 58F0 A23C/0DEF       04290 32196    4342.              VCALL XITDO                   Go do it
 004094 1200/4770 A04A       0409E 32200    4343.              IF    (RVR,Z),'SET  MTFLLGOF'    Set the flag
 00409A 9608 6028      00028       32220             +
 00409E 981F C008            00008 32225    4344.              PEND  ,
 DROP   MTCB,R6
 DROP   M1LOGOFF,R10
 0040A2 9680 C000/0B0E 00000       32240             +
 DROP   @XITDO-72,R13
1TERMINAL (TERM00) (09:44) (22MAR04) Mode 1 Terminal Interface (MILTEN)                                                     Page  212
0Current Usings:  (PZERO,R0)
0Loc    Object Code    Addr1 Addr2  Stmt Lv Lineno    Source Statement           (Hibal 5, Asmedit 3.3)  HLASM R4.0  2004/03/22 09.44
+___    ______ ____    _____ _____  ____ __ ______    ______ _________
0                                  32250    4346.     *****************************************************************
                                   32251    4347.     *                                                               *
                                   32252    4348.     * M1IODONE --  Signal the I/O requestor that the I/O is         *
                                   32253    4349.     *              complete.  It uses information from the MTCB.    *
                                   32254    4350.     *                                                               *
                                   32255    4351.     *   Input  --  none                                             *
                                   32256    4352.     *                                                               *
                                   32257    4353.     *  Output  --  none                                             *
                                   32258    4354.     *                                                               *
                                   32259    4355.     *****************************************************************
-0040A8                            32261    4357.     M1IODONE PROC  SCOPE=LOCAL
 0040A8 D4F1C9D6C4D6D5C5           32268             +
 0040B0 0000/0000                  32269             +
 0040B4 900F D004/18AF       00004 32271             +
 USING  M1IODONE,R10
 0040BA 50D0 C000/18CD       00000 32286             +
 0040C0 9680 C000      00000       32288             +
 0040C4 41D0 C048            00048 32289             +
                                   32290    4358.     *
                                   32291    4359.     * Get our bearings
                                   32292    4360.     *
 0040C8 5860 0208            00208 32293    4361.              L     RX,PZCURASB             Get the current ASB address
 0040CC 5860 6030            00030 32294    4362.              WITH  (ASB,RX),'L RX,ASBTCCB' Get the MTCB address
 USING  ASB,R6
 DROP   ASB,R6
 USING  MTCB,R6                    32318    4363.              WITH  (MTCB,RX)
                                   32331    4364.     *
                                   32332    4365.     * Schedule the I/O complete exit
                                   32333    4366.     *
 USING  @XITDO-72,R13              32334    4367.              PSET  @XITDO
 0040D0 D71F D048 D048 00000 00000 32351             +
 0040D6 D203 D048 6038 00000 00038 32352    4368.              MVC   @XITRQID,MTCBIOCP       Move in the request ID
 0040DC D203 D04C 6048 00004 00048 32353    4369.              MVC   @XITTSK,MT1RQTK         Task ID
 0040E2 9209 D050      00008       32354    4370.              MVI   @XITTYPE,XITTIOCN       I/O complete
 0040E6 D20F D058 604C 00010 0004C 32355    4371.              MVC   @XITPARM,MT1RQID        Move in the RQID and Regs
 0040EC 58F0 A1DC/0DEF       04290 32356    4372.              VCALL XITDO                   Schedule the exit
 0040F2 1200/4780 A074       04128 32360    4373.              IF    (RVR,NZ),'ABORT BADIOCPX'  Can't schedule the exit
 0040F8 AC04 021B      0021B       32378  1          +
 0040FC 9680 021A      0021A       32384  1          +
 004100 50F0 021C            0021C 32385  1          +
 004104 58F0 0210            00210 32386  1          +
 004108 89F0 0010            00010 32387  1          +
 00410C 88F0 0010            00010 32388  1          +
 004110 41F0 F000            00000 32389  1          +
 004114 AEFF 0006            00006 32390  1          +
 004118 C2C1C4C9D6C3D7E7           32391             +
 004128 981F C008            00008 32396    4374.              PEND  ,
 DROP   MTCB,R6
 DROP   M1IODONE,R10
 00412C 9680 C000/0B0E 00000       32411             +
 DROP   @XITDO-72,R13
1TERMINAL (TERM00) (09:44) (22MAR04) Mode 1 Terminal Interface (MILTEN)                                                     Page  213
0Current Usings:  (PZERO,R0)
0Loc    Object Code    Addr1 Addr2  Stmt Lv Lineno    Source Statement           (Hibal 5, Asmedit 3.3)  HLASM R4.0  2004/03/22 09.44
+___    ______ ____    _____ _____  ____ __ ______    ______ _________
0                                  32421    4376.     *****************************************************************
                                   32422    4377.     *                                                               *
                                   32423    4378.     * GETCHGS  --  Obtain the current charges for this address      *
                                   32424    4379.     *              space.  The information is put into the MTCB.    *
                                   32425    4380.     *                                                               *
                                   32426    4381.     *   Input  --  none                                             *
                                   32427    4382.     *                                                               *
                                   32428    4383.     *  Output  --  none                                             *
                                   32429    4384.     *                                                               *
                                   32430    4385.     *****************************************************************
-000000                00000 00008 32432    4387.     GCWA     RECORD BEGIN
 000000                            32440  1 4388.     GCTIME     DS    D                       Time conversion area
 000008                00008 00008 32441    4389.              END   ,
-004132                            32451    4391.     GETCHGS  PROC  ,GCWA,SCOPE=LOCAL
 004132 C7C5E3C3C8C7E240           32458             +
 00413A 0000/0008                  32459             +
 00413E 900F D004/18AF       00004 32461             +
 USING  GETCHGS,R10
 004144 50D0 C000/18CD       00000 32476             +
 00414A 9680 C000      00000       32478             +
 USING  GCWA-72,R12
 00414E 41D0 C050            00050 32492             +
                                   32493    4392.     *
                                   32494    4393.     * Get our bearings
                                   32495    4394.     *
 004152 5860 0208            00208 32496    4395.              L     RX,PZCURASB             Get the current ASB address
 004156 5860 6030            00030 32497    4396.              WITH  (ASB,RX),'L RX,ASBTCCB' Get the MTCB address
 USING  ASB,R6
 DROP   ASB,R6
 USING  MTCB,R6                    32521    4397.              WITH  (MTCB,RX)
                                   32534    4398.     *
                                   32535    4399.     *  Get accounting information
                                   32536    4400.     *
 USING  @ACINFO-72,R13             32537    4401.              PSET  @ACINFO
 00415A D727 D048 D048 00000 00000 32554             +
 004160 D203 D048 0208 00000 00208 32555    4402.              MVC   @ACIASB,PZCURASB        Current ASB address
 004166 58F0 A156/0DEF       04294 32556    4403.              VCALL ACINFO
                                   32560    4404.     *
                                   32561    4405.     *  Put charge info (CPU time and I/O counts) into MTCB
                                   32562    4406.     *
 00416C 6800 D050            00008 32563    4407.              LD    R0,@ACICPU              CPU time in clock units
 004170 6D00 A0F2            04230 32564    4408.              DD    R0,=FL8'106667'         Convert to 26 micro-seconds
 004174 6E00 A0FA            04238 32565    4409.              AW    R0,=XL8'4E00000000000000'
 004178 6000 C048            00000 32566    4410.              STD   R0,GCTIME
 00417C D203 607C C04C 0007C 00004 32567    4411.              MVC   MT1CPUT,GCTIME+4        CPU time
 004182 5810 D04C            00004 32568    4412.              L     RS,@ACIIOS              Get the I/O counts
 004186 BE17 6081            00081 32569    4413.              ST3   RS,MT1DIOCT             Save the count
 00418A 981F C008            00008 32571    4414.              PEND  ,
 DROP   MTCB,R6
 DROP   GCWA-72,R12
1TERMINAL (TERM00) (09:44) (22MAR04) Mode 1 Terminal Interface (MILTEN)                                                     Page  214
0Current Usings:  (PZERO,R0) (@ACINFO-72,R13)
0Loc    Object Code    Addr1 Addr2  Stmt Lv Lineno    Source Statement           (Hibal 5, Asmedit 3.3)  HLASM R4.0  2004/03/22 09.44
+___    ______ ____    _____ _____  ____ __ ______    ______ _________
0DROP   GETCHGS,R10
 00418E 9680 C000/0B0E 00000       32591             +
 DROP   @ACINFO-72,R13
1TERMINAL (TERM00) (09:44) (22MAR04) Mode 1 Terminal Interface (MILTEN)                                                     Page  215
0Current Usings:  (PZERO,R0)
0Loc    Object Code    Addr1 Addr2  Stmt Lv Lineno    Source Statement           (Hibal 5, Asmedit 3.3)  HLASM R4.0  2004/03/22 09.44
+___    ______ ____    _____ _____  ____ __ ______    ______ _________
0                                  32601    4416.     *****************************************************************
                                   32602    4417.     *                                                               *
                                   32603    4418.     *  VALBUF  --  Validate a buffer location.                      *
                                   32604    4419.     *                                                               *
                                   32605    4420.     *   Input  --  @VALBUF                                          *
                                   32606    4421.     *                                                               *
                                   32607    4422.     *  Output  --  RVR: 0=OK; 4=Protection; 5=Addressing            *
                                   32608    4423.     *                                                               *
                                   32609    4424.     *****************************************************************
-004194                            32611    4426.     VALBUF   PROC  @VALBUF,SCOPE=LOCAL
 004194 E5C1D3C2E4C64040           32618             +
 00419C 0008/0000                  32619             +
 0041A0 900F D004/18AF       00004 32621             +
 USING  VALBUF,R10
 0041A6 50D0 C000/18CD       00000 32636             +
 0041AC 9680 C000      00000       32638             +
 USING  @VALBUF-72,R12
 0041B0 41D0 C050            00050 32652             +
 0041B4 5840 C048            00000 32653    4427.              L     RJ,@VALBLOC             Get the buffer location
 0041B8 4850 C04C            00004 32654    4428.              LH    RK,@VALBLEN             And it's length
 0041BC 1F33/4330 C04E       00006 32655    4429.              LC    RB,@VALBKEY             Get the key of the issuer
                                   32662    4430.     *
                                   32663    4431.     * Check out the buffer
                                   32664    4432.     *
 USING  @PAGE-72,R13               32665    4433.              PSET  @PAGE
 0041C2 D708 D048 D048 00000 00000 32682             +
 0041C8 D203 D048 C048 00000 00000 32683    4434.              MVC   @PAGLOC,@VALBLOC        Location of the buffer
 0041CE 4810 C04C            00004 32684    4435.              LH    RS,@VALBLEN             Get the length
 0041D2 5010 D04C            00004 32685    4436.              ST    RS,@PAGLEN              Tell him about it
 0041D6 D200 D050 C04E 00008 00006 32686    4437.              MVC   @PAGKEY,@VALBKEY        Inform him of the key too
 0041DC 58F0 A0F8/0DEF       04298 32687    4438.              VCALL PAGTPROT                Test the protection
 0041E2 1200/4780 A07A       0421A 32691    4439.              IF    (RVR,Z),EXIT            All is well
 0041E8 5900 A0FC            0429C 32708    4440.              IF    (RVR,EQ,3),BEGIN        Addressing exception
 0041EC 4770 A058            041F8 32720             +
 0041F0 4100 0005            00005 32725  1 4441.                LA    RVR,5
 0041F4 47F0 A07A            0421A 32726  1 4442.                EXIT  VALBUF
 0041F8                            32729    4443.              END   ,
 0041F8 5900 A100            042A0 32733    4444.              IF    (RVR,EQ,2),BEGIN        No access
 0041FC 4770 A068            04208 32745             +
 004200 4100 0004            00004 32750  1 4445.                LA    RVR,4
 004204 47F0 A07A            0421A 32751  1 4446.                EXIT  VALBUF
 004208                            32754    4447.              END   ,
 004208 9180 C04F      00007       32758    4448.              IF    @VALBWRT,'LA RVR,4'     Only read, he wants write
 00420C 47E0 A074            04214 32768             +
 004210 4100 0004            00004 32774             +
 004214 A078           04214 0420E 32779    4449.              ELSE  'CLEAR RVR'             He just wants to look
 004214 47F0 A07A/1B00       0421A 32784             +
 00421A 981F C008            00008 32799    4450.              PEND  ,
 DROP   @VALBUF-72,R12
 DROP   VALBUF,R10
 00421E 9680 C000/0B0E 00000       32814             +
 DROP   @PAGE-72,R13
1TERMINAL (TERM00) (09:44) (22MAR04) Mode 1 Terminal Interface (MILTEN)                                                     Page  216
0Current Usings:  (PZERO,R0)
0Loc    Object Code    Addr1 Addr2  Stmt Lv Lineno    Source Statement           (Hibal 5, Asmedit 3.3)  HLASM R4.0  2004/03/22 09.44
+___    ______ ____    _____ _____  ____ __ ______    ______ _________
0004224 00000000                   32823    4451.              XTRCDATA ,                    Generate the trace info
 004228                            32826    4452.              END   .
 004228 D4C9D3C3D5E3D3E7           32829                             =C'MILCNTLX'
 004230 000000000001A0AB           32830                             =FL8'106667'
 004238 4E00000000000000           32831                             =XL8'4E00000000000000'
 004240 00000021                   32832                             =A(MAXCNTL)
 004244 00000042                   32833                             =A(66)
 004248 00000000                   32834                             =V(PAGFIX)
 00424C 000010B6                   32835                             =A(ADDSEG)
 004250 00001178                   32836                             =A(MILSX)
 004254 00000000                   32837                             =V(PAGUFIX)
 004258 000041A0                   32838                             =A(VALBUF)
 00425C 00000004                   32839                             =A(4)
 004260 070C0000                   32840                             =X'070C0000'
 004264 80003D0A                   32841                             =A(X'80000000'+CNTLX)
 004268 0000000A                   32842                             =A(10)
 00426C 00000000                   32843                             =V(TCREATE)
 004270 000040B4                   32844                             =A(M1IODONE)
 004274 0000137A                   32845                             =A(MILRX)
 004278 00004054                   32846                             =A(M1LOGOFF)
 00427C FFFFFFFC                   32847                             =A(-4)
 004280 0000153E                   32848                             =A(NEWSIB)
 004284 00001436                   32849                             =A(CURSIB)
 004288 00000FAA                   32850                             =A(FREETBUF)
 00428C 00000000                   32851                             =V(TEXIT)
 004290 00000000                   32852                             =V(XITDO)
 004294 00000000                   32853                             =V(ACINFO)
 004298 00000000                   32854                             =V(PAGTPROT)
 00429C 00000003                   32855                             =A(3)
 0042A0 00000002                   32856                             =A(2)
 0042A4 D4C9D3C3D5E3D3E7           32857                             =C'MILCNTLXWYL'

1TERMINAL (TERM00) (09:44) (22MAR04) Ordinary Symbol and Literal Cross Reference                                            Page  217
-Symbol   Length   Value     Id    R Type   Defn References                                  HLASM R4.0  2004/03/22 09.44
0$$$@R0        1 00000000 FFFFFFFE     J     714  1010
 $$$@R1        1 00000000 FFFFFFFD     J     727  1022
 $$$@R10       1 00000000 FFFFFFF4     J     844  1142
 $$$@R11       1 00000000 FFFFFFF3     J     857  1154
 $$$@R12       1 00000000 FFFFFFF2     J     870  1166
 $$$@R13       1 00000000 FFFFFFF1     J     883  1178
 $$$@R14       1 00000000 FFFFFFF0     J     896  1190
 $$$@R15       1 00000000 FFFFFFEF     J     909  1202
 $$$@R2        1 00000000 FFFFFFFC     J     740  1034
 $$$@R3        1 00000000 FFFFFFFB     J     753  1046
 $$$@R4        1 00000000 FFFFFFFA     J     766  1058
 $$$@R5        1 00000000 FFFFFFF9     J     779  1070
 $$$@R6        1 00000000 FFFFFFF8     J     792  1082
 $$$@R7        1 00000000 FFFFFFF7     J     805  1094
 $$$@R8        1 00000000 FFFFFFF6     J     818  1106
 $$$@R9        1 00000000 FFFFFFF5     J     831  1118   1130
 $$$C1TERMINAL
               1 00000314 00000001     J    6407  6409   6444   6772   6849
 $$$C2TERMINAL
               1 00000EBE 00000001     J   10875 10877  11266  11687  15102  15641  15909
 $$$C3TERMINAL
               1 00001B3A 00000001     J   16163 16165  16203  16237  16968
 $$$C4TERMINAL
               1 000024BA 00000001     J   20191 20193  20222
 $$$C5TERMINAL
               1 000029D2 00000001     J   22471 22473  22504
 $$$C6TERMINAL
               1 00002F51 00000001     J   24699 24701
 $$$C7TERMINAL
               1 0000380E 00000001     J   28813 28815  32448
 $$$C8TERMINAL
               1 000042AF 00000001     J   32858 32860
 $$$D1TERMINAL
               1 00000EB1 00000001     J    6408  6761   6838
 $$$R#SCCLOSE
               1 00000000 FFFFFFA3     J    3690  3703   3703
 $$$R#SCINFO
               1 00000000 FFFFFFA0     J    3777  3792   3792
 $$$R#SCNOTE
               1 00000000 FFFFFF9F     J    3802  3815   3815
 $$$R#SCOMCMD
               1 00000000 FFFFFFA5     J    3619  3652   3652
 $$$R#SCOPEN
               1 00000000 FFFFFFA4     J    3662  3680   3680
 $$$R#SCPOST
               1 00000000 FFFFFFA2     J    3713  3726   3726
 $$$R#SCSR
               1 00000000 FFFFFFA1     J    3736  3767   3767
 $$$R@ACAINFO
               1 00000000 FFFFFFEA     J    1511  1528   1528
 $$$R@ACINFO
               1 00000000 FFFFFFE9     J    1538  1557   1557
 $$$R@ACLOGON
               1 00000000 FFFFFFEB     J    1484  1501   1501
 $$$R@ACPINFO
1TERMINAL (TERM00) (09:44) (22MAR04) Ordinary Symbol and Literal Cross Reference                                            Page  218
               1 00000000 FFFFFFE8     J    1566  1580   1580
 $$$R@ACREATE
               1 00000000 FFFFFFE1     J    1753  1766   1766
 $$$R@ACSPINF
               1 00000000 FFFFFFE7     J    1589  1603   1603
 $$$R@ADDSEG
               1 00000000 FFFFFF93     J   11671 11686  11686
 $$$R@CPCNCK
               1 00000000 FFFFFFC8     J    2418  2433   2433
 $$$R@CPSET
               1 00000000 FFFFFFC9     J    2393  2408   2408
 $$$R@DISPPIOC
               1 00000000 FFFFFFE6     J    1619  1632   1632
 $$$R@DISPSIOC
               1 00000000 FFFFFFE5     J    1638  1651   1651
 $$$R@DISPSWP
               1 00000000 FFFFFFE2     J    1730  1743   1743
 $$$R@DSPSTAT
               1 00000000 FFFFFFD6     J    2024  2040   2040
 $$$R@EXRADD
               1 00000000 FFFFFFB6     J    2908  2938   2938
 $$$R@EXRDEL
               1 00000000 FFFFFFB5     J    2948  2961   2961
 $$$R@EXRDONE
               1 00000000 FFFFFFB4     J    2971  3007   3007
 $$$R@FRTBUF
               1 00000000 FFFFFF94     J   11252 11265  11265
 $$$R@IORB
               1 00000000 FFFFFFCE     J    2238  2257   2257
 $$$R@IOSDOIO
               1 00000000 FFFFFFD3     J    2101  2139   2139
 $$$R@IOSIDFRE
               1 00000000 FFFFFFCF     J    2212  2225   2225
 $$$R@IOSIDGET
               1 00000000 FFFFFFD0     J    2185  2206   2206
 $$$R@IOSTIME
               1 00000000 FFFFFFD1     J    2165  2179   2179
 $$$R@IOTERM
               1 00000000 FFFFFFD2     J    2145  2159   2159
 $$$R@IOUPARM
               1 00000000 FFFFFFCD     J    2269  2292   2292
 $$$R@LOCKCRE
               1 00000000 FFFFFFD5     J    2053  2075   2075
 $$$R@LOCKS
               1 00000000 FFFFFFD4     J    2081  2094   2094
 $$$R@MAPARM
               1 00000000 FFFFFF90     J   15894 15908  15908
 $$$R@MILUINF
               1 00000000 FFFFFF92     J   15088 15101  15101
 $$$R@MONSET
               1 00000000 FFFFFFD7     J    2001  2014   2014
 $$$R@MSPARM
               1 00000000 FFFFFF91     J   15626 15640  15640
 $$$R@M1IO
               1 00000000 FFFFFF8F     J   16173 16202  16202
 $$$R@M1TATP
               1 00000000 FFFFFFA8     J    3494  3509   3509
 $$$R@M1TERM
               1 00000000 FFFFFFAB     J    3349  3433   3433
1TERMINAL (TERM00) (09:44) (22MAR04) Ordinary Symbol and Literal Cross Reference                                            Page  219
 $$$R@M1TIOCP
               1 00000000 FFFFFFA9     J    3465  3483   3483
 $$$R@PAGASC1
               1 00000000 FFFFFFBC     J    2774  2788   2788
 $$$R@PAGASC2
               1 00000000 FFFFFFBB     J    2794  2808   2808
 $$$R@PAGDEF
               1 00000000 FFFFFFBE     J    2714  2741   2741
 $$$R@PAGE
               1 00000000 FFFFFFBA     J    2814  2830   2830
 $$$R@PAGINIT
               1 00000000 FFFFFFB7     J    2876  2890   2890
 $$$R@PAGINTV
               1 00000000 FFFFFFB8     J    2857  2870   2870
 $$$R@PAGRV
               1 00000000 FFFFFFB9     J    2836  2851   2851
 $$$R@PAGSEGD
               1 00000000 FFFFFFBD     J    2747  2768   2768
 $$$R@PAGSWADV
               1 00000000 FFFFFFC0     J    2665  2678   2678
 $$$R@PAGSWAP
               1 00000000 FFFFFFC1     J    2611  2659   2659
 $$$R@PAGWSMA
               1 00000000 FFFFFFBF     J    2684  2708   2708
 $$$R@PARMDO
               1 00000000 FFFFFFA7     J    3522  3538   3538
 $$$R@PERSET
               1 00000000 FFFFFFD8     J    1978  1991   1991
 $$$R@RESUME
               1 00000000 FFFFFFE3     J    1705  1720   1720
 $$$R@RTCNCK
               1 00000000 FFFFFFCB     J    2343  2358   2358
 $$$R@RTSET
               1 00000000 FFFFFFCC     J    2309  2333   2333
 $$$R@SUSPEND
               1 00000000 FFFFFFE4     J    1661  1695   1695
 $$$R@SYSRDEL
               1 00000000 FFFFFFDB     J    1906  1919   1919
 $$$R@SYSRDO
               1 00000000 FFFFFFDA     J    1929  1945   1945
 $$$R@SYSRNEW
               1 00000000 FFFFFFDC     J    1884  1897   1897
 $$$R@SYSRTN
               1 00000000 FFFFFFD9     J    1955  1968   1968
 $$$R@TCREATE
               1 00000000 FFFFFFE0     J    1776  1805   1805
 $$$R@TENTRY
               1 00000000 FFFFFFDE     J    1838  1851   1851
 $$$R@TERUINF
               1 00000000 FFFFFFAA     J    3442  3455   3455
 $$$R@TEXIT
               1 00000000 FFFFFFDD     J    1861  1874   1874
 $$$R@TREMOVE
               1 00000000 FFFFFFDF     J    1815  1828   1828
 $$$R@VALBUF
               1 00000000 FFFFFF8E     J   16212 16236  16236
 $$$R@VMCRAS
               1 00000000 FFFFFFC2     J    2583  2596   2596
 $$$R@VMFREE
1TERMINAL (TERM00) (09:44) (22MAR04) Ordinary Symbol and Literal Cross Reference                                            Page  220
               1 00000000 FFFFFFC5     J    2506  2521   2521
 $$$R@VMGET
               1 00000000 FFFFFFC6     J    2471  2500   2500
 $$$R@VMINFO
               1 00000000 FFFFFFC4     J    2527  2542   2542
 $$$R@VMIPARM
               1 00000000 FFFFFFC3     J    2555  2572   2572
 $$$R@XITDATA
               1 00000000 FFFFFFAD     J    3293  3306   3306
 $$$R@XITDEL
               1 00000000 FFFFFFB2     J    3048  3061   3061
 $$$R@XITDO
               1 00000000 FFFFFFB1     J    3070  3087   3087
 $$$R@XITGPST
               1 00000000 FFFFFFB0     J    3098  3113   3113
 $$$R@XITMASK
               1 00000000 FFFFFFAF     J    3123  3170   3170
 $$$R@XITNEW
               1 00000000 FFFFFFB3     J    3017  3038   3038
 $$$RASB       1 00000000 FFFFFFEC     J    1416  1467   1467
 $$$RCPEXIT
               1 00000000 FFFFFFC7     J    2443  2458   2458
 $$$RFQCB      1 00000000 FFFFFF9B     J    4026  4043   4043
 $$$RGCWA      1 00000000 FFFFFF8A     J   32434 32447  32447
 $$$RGTCT      1 00000000 FFFFFF9E     J    3874  3905   3905
 $$$RMAT       1 00000000 FFFFFFED     J    1350  1409   1409
 $$$RMFQE      1 00000000 FFFFFF98     J    4224  4239   4239
 $$$RMIB       1 00000000 FFFFFF9A     J    4057  4073   4073
 $$$RMILCB
               1 00000000 FFFFFF9C     J    3948  4012   4012
 $$$RMTCB      1 00000000 FFFFFF99     J    4088  4210   4210
 $$$RPARMIN
               1 00000000 FFFFFFA6     J    3544  3602   3602
 $$$RPZERO
               1 00000000 FFFFFFEE     J    1236  1327   1327
 $$$RREWA      1 00000000 FFFFFF8C     J   20207 20221  20221
 $$$RRTEXIT
               1 00000000 FFFFFFCA     J    2368  2383   2383
 $$$RRTWA      1 00000000 FFFFFF8D     J   16950 16967  16967
 $$$RRXWA      1 00000000 FFFFFF8B     J   22487 22503  22503
 $$$RTBUF      1 00000000 FFFFFF9D     J    3917  3934   3934
 $$$RTIPARMS
               1 00000000 FFFFFF95     J    6426  6443   6443
 $$$RXITMSKD
               1 00000000 FFFFFFAE     J    3196  3283   3283
 $$$RXITSAREA
               1 00000000 FFFFFFAC     J    3316  3332   3332
 $$$RXPDB      1 00000000 FFFFFF97     J    4256  4677   4677
 $$$102F       2 00001004 00000001     H   11401 11375B
 $$$103B       4 00001014 00000001     I   11420 11491
 $$$103F       2 0000103A 00000001     H   11488 11420B 11490
 $$$104S       2 0000101C 00000001     H   11430 11448B
 $$$107S       2 0000102E 00000001     H   11462 11479B
 $$$110E       2 0000103E 00000001     H   11498 11492
 $$$110F       2 000010A0 00000001     H   11620 11494B
 $$$111F       2 00001090 00000001     H   11583 11557B
 $$$112S       2 00001094 00000001     H   11592 11611B
 $$$116F       2 00001148 00000001     H   11836 11769B
 $$$116S       2 000010E2 00000001     H   11763 11835B
1TERMINAL (TERM00) (09:44) (22MAR04) Ordinary Symbol and Literal Cross Reference                                            Page  221
 $$$118F       2 00001120 00000001     H   11810 11784B
 $$$121F       2 0000122C 00000001     H   12183 12157B
 $$$122F       2 0000127A 00000001     H   12330 12297B
 $$$123F       2 000012B2 00000001     H   12369 12343B
 $$$124B       4 000012F8 00000001     I   12475 12488
 $$$124F       2 00001304 00000001     H   12485 12475B 12487
 $$$125E       2 00001308 00000001     H   12495 12489
 $$$125F       2 00001310 00000001     H   12520 12491B
 $$$127F       2 000013D6 00000001     H   12839 12813B
 $$$128F       2 00001412 00000001     H   12922 12849B
 $$$129F       2 000013F0 00000001     H   12903 12882B
 $$$131F       2 00001508 00000001     H   13372 13346B
 $$$131T       2 000014D8 00000001     H   13349 13335B
 $$$134F       2 00001698 00000001     H   14163 14091B
 $$$135F       2 00001674 00000001     H   14095 14072B
 $$$135T       2 00001658 00000001     H   14075 14061B
 $$$137B       4 00001678 00000001     I   14112 14136
 $$$137F       2 00001684 00000001     H   14133 14112B 14135
 $$$138E       2 00001688 00000001     H   14143 14137
 $$$138F       2 00001698 00000001     H   14159 14139B
 $$$141F       2 00001794 00000001     H   14601 14582B
 $$$146F       2 00001A0C 00000001     H   15803 15777B
 $$$147F       2 00001A28 00000001     H   15848 15814B
 $$$149F       2 00001A86 00000001     H   16063 16042B
 $$$151F       2 00001A94 00000001     H   16090 16075B
 $$$154F       2 00001B9C 00000001     H   16361 16335B
 $$$155F       2 00001C02 00000001     H   16471 16410B
 $$$156F       2 00001BF2 00000001     H   16458 16443B
 $$$157F       2 00001C14 00000001     H   16501 16485B
 $$$158F       2 00001C8A 00000001     H   16705 16516B
 $$$159F       2 00001C2E 00000001     H   16557 16542B
 $$$160F       2 00001C54 00000001     H   16616 16568B
 $$$163F       2 00001C70 00000001     H   16664 16629B
 $$$165F       2 00001C7C 00000001     H   16692 16677B
 $$$166F       2 00001CFC 00000001     H   16892 16720B
 $$$167F       2 00001CA4 00000001     H   16761 16746B
 $$$168F       2 00001CC4 00000001     H   16806 16777B 16788B
 $$$170F       2 00001CE0 00000001     H   16850 16821B 16832B
 $$$172F       2 00001CEE 00000001     H   16879 16863B
 $$$173F       2 00002092 00000001     H   18668 17215B 17375B 17511B 17657B 17806B
 $$$174F       2 00001D4E 00000001     H   17089 17079B
 $$$180B       4 00001DB2 00000001     I   17278 17527
 $$$180F       2 00001E34 00000001     H   17524 17278B 17526
 $$$184F       2 00001E34 00000001     H   17520 17416B
 $$$187E       2 00001E38 00000001     H   17534 17528
 $$$187F       2 00001ED0 00000001     H   17823 17530B
 $$$188B       4 00001E3A 00000001     I   17548 17573
 $$$188F       2 00001E4A 00000001     H   17570 17548B 17572
 $$$189E       2 00001E4E 00000001     H   17580 17574
 $$$189F       2 00001ED0 00000001     H   17819 17576B
 $$$194F       2 00001ED0 00000001     H   17815 17731B
 $$$196B       4 00001F06 00000001     I   17901 17937
 $$$196F       2 00001F2E 00000001     H   17934 17901B 17936
 $$$197F       2 00001F2E 00000001     H   17930 17915B
 $$$198E       2 00001F32 00000001     H   17944 17938
 $$$198F       2 00001F4C 00000001     H   17977 17940B
 $$$199F       2 00001F40 00000001     H   17970 17960B
 $$$201B       4 00001F54 00000001     I   17998 18079
 $$$201F       2 00001F7C 00000001     H   18076 17998B 18078
1TERMINAL (TERM00) (09:44) (22MAR04) Ordinary Symbol and Literal Cross Reference                                            Page  222
 $$$203F       2 00001F68 00000001     H   18037 18021B
 $$$211E       2 00001F80 00000001     H   18086 18080
 $$$211F       2 00001F84 00000001     H   18099 18082B
 $$$213F       2 00002026 00000001     H   18471 18229B
 $$$214F       2 0000200E 00000001     H   18406 18290B
 $$$215F       2 00002026 00000001     H   18467 18416B
 $$$216F       2 00002066 00000001     H   18591 18547B
 $$$218F       2 00002132 00000001     H   18922 18776B
 $$$219F       2 00002142 00000001     H   18966 18951B
 $$$220F       2 00002182 00000001     H   19086 19017B
 $$$221F       2 0000217C 00000001     H   19078 19037B
 $$$222F       2 000021A4 00000001     H   19143 19104B 19125B
 $$$224F       2 000021C0 00000001     H   19177 19158B
 $$$225F       2 000021CE 00000001     H   19205 19189B
 $$$227F       2 00002220 00000001     H   19325 19311B
 $$$228F       2 00002256 00000001     H   19366 19356B
 $$$230F       2 00002268 00000001     H   19391 19381B
 $$$232F       2 0000227A 00000001     H   19416 19406B
 $$$234F       2 0000228C 00000001     H   19441 19431B
 $$$236F       2 000022C2 00000001     H   19518 19456B
 $$$238F       2 000022BE 00000001     H   19513 19475B
 $$$239F       2 000022BE 00000001     H   19509 19493B
 $$$240F       2 000022D6 00000001     H   19572 19556B
 $$$242F       2 00002364 00000001     H   19807 19781B
 $$$243F       2 000023E4 00000001     H   20081 19835B
 $$$245F       2 000024F8 00000001     H   20343 20333B
 $$$248F       2 0000253E 00000001     H   20472 20463B
 $$$249F       2 000026A6 00000001     H   21185 20494B 20592B
 $$$255F       2 00002642 00000001     H   21003 20942B
 $$$257F       2 00002762 00000001     H   21522 21368B
 $$$258F       2 00002734 00000001     H   21434 21415B
 $$$259F       2 00002752 00000001     H   21476 21446B
 $$$26F        2 00000144 00000001     H    5872  5705B  5807B  5842B
 $$$261F       2 000027A6 00000001     H   21606 21591B
 $$$262F       2 000027B6 00000001     H   21638 21617B
 $$$263F       2 000027C6 00000001     H   21670 21649B
 $$$264F       2 00002822 00000001     H   21901 21886B
 $$$265F       2 00002846 00000001     H   21974 21955B
 $$$266F       2 00002854 00000001     H   22005 21989B
 $$$268F       2 00002872 00000001     H   22050 22020B
 $$$270F       2 000028DE 00000001     H   22177 22151B
 $$$271F       2 000028F2 00000001     H   22213 22203B
 $$$273F       2 00002912 00000001     H   22242 22232B
 $$$274F       2 0000292C 00000001     H   22277 22261B
 $$$275F       2 00002940 00000001     H   22325 22309B
 $$$277F       2 00002A10 00000001     H   22625 22615B
 $$$286F       2 00002ACC 00000001     H   22963 22948B
 $$$288F       2 00002AE4 00000001     H   23006 22976B
 $$$29F        2 00000114 00000001     H    5846  5828B
 $$$290F       2 00002AF4 00000001     H   23035 23019B
 $$$292F       2 00002B04 00000001     H   23064 23048B
 $$$294F       2 00002B1E 00000001     H   23092 23082B
 $$$295F       2 00002B5C 00000001     H   23197 23105B
 $$$298F       2 00002BA8 00000001     H   23324 23295B
 $$$30F        2 000001BE 00000001     H    6028  5963B  5998B
 $$$303F       2 00002D8A 00000001     H   24213 24194B
 $$$304F       2 00002D98 00000001     H   24244 24228B
 $$$306F       2 00002DBC 00000001     H   24296 24259B
 $$$308F       2 00002DFA 00000001     H   24343 24317B
1TERMINAL (TERM00) (09:44) (22MAR04) Ordinary Symbol and Literal Cross Reference                                            Page  223
 $$$309F       2 00002E96 00000001     H   24500 24361B
 $$$310F       2 00002E70 00000001     H   24480 24454B
 $$$311F       2 00002EAA 00000001     H   24548 24532B
 $$$313F       2 00002F86 00000001     H   24818 24809B
 $$$316F       2 00002FC6 00000001     H   24966 24877B
 $$$319B       4 00002FF2 00000001     I   25038 25091
 $$$319F       2 0000300E 00000001     H   25088 25038B 25090
 $$$32F        2 0000018E 00000001     H    6002  5984B
 $$$326E       2 00003012 00000001     H   25098 25092
 $$$326F       2 00003016 00000001     H   25111 25094B
 $$$328F       2 000030D2 00000001     H   25548 25240B
 $$$329F       2 000030B8 00000001     H   25479 25308B
 $$$33F        2 00000238 00000001     H    6182  6117B  6152B
 $$$330F       2 000030B8 00000001     H   25475 25323B
 $$$331F       2 00003084 00000001     H   25353 25343B
 $$$332F       2 00003090 00000001     H   25375 25365B
 $$$333F       2 0000309C 00000001     H   25397 25387B
 $$$334F       2 000030B8 00000001     H   25471 25407B
 $$$335F       2 000030D0 00000001     H   25543 25492B
 $$$336F       2 00003100 00000001     H   25643 25562B
 $$$337F       2 00003100 00000001     H   25639 25577B
 $$$338F       2 00003134 00000001     H   25728 25674B
 $$$340F       2 000031CE 00000001     H   26009 25990B
 $$$341F       2 000031DC 00000001     H   26037 26021B
 $$$343F       2 000031F4 00000001     H   26069 26059B
 $$$345F       2 00003206 00000001     H   26091 26081B
 $$$347F       2 00003236 00000001     H   26134 26103B
 $$$349F       2 0000324A 00000001     H   26184 26168B
 $$$35F        2 00000208 00000001     H    6156  6138B
 $$$350F       2 000033DE 00000001     H   27011 26534B
 $$$351F       2 000032AA 00000001     H   26413 26404B
 $$$355F       2 00003320 00000001     H   26614 26604B
 $$$357F       2 00003434 00000001     H   27171 27152B
 $$$358F       2 00003442 00000001     H   27202 27186B
 $$$36F        2 000002C0 00000001     H    6379  6278B  6344B
 $$$360F       2 00003460 00000001     H   27241 27217B
 $$$362F       2 00003492 00000001     H   27289 27260B
 $$$363F       2 000034A6 00000001     H   27322 27313B
 $$$364F       2 000034B4 00000001     H   27345 27336B
 $$$365F       2 000034C8 00000001     H   27393 27377B
 $$$366F       2 000036A0 00000001     H   28347 27744B
 $$$367F       2 00003528 00000001     H   27623 27614B
 $$$374F       2 0000359A 00000001     H   27871 27825B
 $$$377F       2 000035A6 00000001     H   27894 27884B
 $$$379F       2 000036F6 00000001     H   28507 28488B
 $$$38F        2 00000290 00000001     H    6348  6295B
 $$$380F       2 00003704 00000001     H   28538 28522B
 $$$382F       2 0000371C 00000001     H   28576 28553B
 $$$384F       2 0000373C 00000001     H   28614 28604B
 $$$385F       2 00003750 00000001     H   28662 28646B
 $$$391F       2 000038FA 00000001     H   29058 29042B
 $$$392F       2 000039EA 00000001     H   29376 29367B
 $$$394F       2 00003A2C 00000001     H   29502 29493B
 $$$396F       2 00003A86 00000001     H   29671 29655B
 $$$397F       2 00003AA0 00000001     H   29727 29711B
 $$$398F       2 00003ABC 00000001     H   29784 29774B
 $$$399F       2 00003AF0 00000001     H   29866 29856B
 $$$40F        2 000003E6 00000001     H    6777  6749B
 $$$400F       2 00003B0A 00000001     H   29898 29882B
1TERMINAL (TERM00) (09:44) (22MAR04) Ordinary Symbol and Literal Cross Reference                                            Page  224
 $$$401F       2 00003B6A 00000001     H   29977 29967B
 $$$403F       2 00003C3E 00000001     H   30371 30361B
 $$$404B       4 00003C46 00000001     I   30390 30408
 $$$404F       2 00003C4E 00000001     H   30405 30390B 30407
 $$$406E       2 00003C52 00000001     H   30415 30409
 $$$406F       2 00003C56 00000001     H   30428 30411B
 $$$407B       4 00003C5A 00000001     I   30440 30458
 $$$407F       2 00003C62 00000001     H   30455 30440B 30457
 $$$409E       2 00003C66 00000001     H   30465 30459
 $$$409F       2 00003C6A 00000001     H   30478 30461B
 $$$41         6 00000EB2 00000001     I    6767  6759X
 $$$410F       2 00003C86 00000001     H   30524 30509B
 $$$412F       2 00003C92 00000001     H   30550 30535B
 $$$414B       4 00003CA2 00000001     I   30575 30593
 $$$414F       2 00003CAA 00000001     H   30590 30575B 30592
 $$$415E       2 00003CAE 00000001     H   30600 30594
 $$$415F       2 00003CB2 00000001     H   30612 30596B
 $$$418F       2 00003D52 00000001     H   30895 30872B
 $$$42         6 00000EB2 00000001     I    6766  6767   6767
 $$$422F       2 00003E32 00000001     H   31036 31017B
 $$$423F       2 00003E44 00000001     H   31061 31051B
 $$$425F       2 00003E56 00000001     H   31083 31073B
 $$$429F       2 00003EB8 00000001     H   31270 31251B
 $$$43F        2 00000414 00000001     H    6854  6826B
 $$$430F       2 00003ED6 00000001     H   31315 31285B
 $$$432F       2 00003F0A 00000001     H   31394 31377B
 $$$432T       2 00003EFA 00000001     H   31380 31364B
 $$$433F       2 00003EF2 00000001     H   31367 31347B
 $$$435F       2 00003F1E 00000001     H   31445 31429B
 $$$438F       2 0000409E 00000001     H   32238 32166B
 $$$44         6 00000EB8 00000001     I    6844  6836X
 $$$440F       2 0000409E 00000001     H   32224 32209B
 $$$442F       2 00004128 00000001     H   32395 32369B
 $$$444F       2 0000421A 00000001     H   32812 32702B 32728B 32753B
 $$$446F       2 000041F8 00000001     H   32732 32720B
 $$$447F       2 00004208 00000001     H   32757 32745B
 $$$448B       4 0000420C 00000001     I   32768 32781
 $$$448F       2 00004214 00000001     H   32778 32768B 32780
 $$$449E       2 00004218 00000001     H   32788 32782
 $$$449F       2 0000421A 00000001     H   32798 32784B
 $$$45         6 00000EB8 00000001     I    6843  6844   6844
 $$$46F        2 0000043E 00000001     H    6903  6889B
 $$$47F        2 00000514 00000001     H    7291  7273B
 $$$48F        2 00000520 00000001     H    7321  7305B
 $$$49F        2 0000052E 00000001     H    7354  7336B
 $$$50F        2 00000540 00000001     H    7387  7369B
 $$$52F        2 00000610 00000001     H    7682  7656B
 $$$53F        2 0000064E 00000001     H    7739  7713B
 $$$54F        2 00000700 00000001     H    8015  7989B
 $$$56F        2 00000AA0 00000001     H    9419  8229B  8255B
 $$$56S        2 00000754 00000001     H    8222  8627B  8687B  9052B  9345B  9418B
 $$$59F        2 00000856 00000001     H    8631  8304B  8319B
 $$$61F        2 000007AC 00000001     H    8394  8337B
 $$$62F        2 000007E6 00000001     H    8457  8407B
 $$$63F        2 00000852 00000001     H    8624  8537B
 $$$64F        2 00000872 00000001     H    8691  8649B
 $$$65F        2 000008B4 00000001     H    8739  8708B
 $$$66F        2 000008EC 00000001     H    8779  8753B
 $$$67F        2 000009B4 00000001     H    9056  8800B
1TERMINAL (TERM00) (09:44) (22MAR04) Ordinary Symbol and Literal Cross Reference                                            Page  225
 $$$68F        2 00000918 00000001     H    8841  8821B
 $$$69F        2 00000942 00000001     H    8874  8854B
 $$$70F        2 000009A0 00000001     H    9005  8958B
 $$$71F        2 00000A78 00000001     H    9354  9076B
 $$$72F        2 000009F0 00000001     H    9147  9097B
 $$$74F        2 00000B58 00000001     H    9797  9598B  9611B
 $$$74S        2 00000AE2 00000001     H    9587  9796B
 $$$77F        2 00000B18 00000001     H    9683  9667B
 $$$80F        2 00000D86 00000001     H   10806 10683B
 $$$81F        2 00000D38 00000001     H   10687 10589B
 $$$81T        2 00000D0A 00000001     H   10592 10577B
 $$$83B        4 00000D14 00000001     I   10605 10660
 $$$83F        2 00000D2A 00000001     H   10657 10605B 10659
 $$$84E        2 00000D2E 00000001     H   10667 10661
 $$$84F        2 00000D32 00000001     H   10679 10663B
 $$$85B        4 00000D3C 00000001     I   10703 10748
 $$$85F        2 00000D52 00000001     H   10745 10703B 10747
 $$$86E        2 00000D56 00000001     H   10755 10749
 $$$86F        2 00000D86 00000001     H   10777 10751B
 $$$88F        2 00000F00 00000001     H   11017 10992B
 $$$88S        2 00000EEA 00000001     H   10979 11014B
 $$$92B        4 00000F02 00000001     I   11032 11073
 $$$92F        2 00000F16 00000001     H   11070 11032B 11072
 $$$93S        2 00000F0A 00000001     H   11042 11061B
 $$$96E        2 00000F1A 00000001     H   11080 11074
 $$$96F        2 00000F7A 00000001     H   11191 11076B
 $$$97F        2 00000F68 00000001     H   11155 11129B
 $$$98S        2 00000F6E 00000001     H   11165 11182B
 $IODONE2      2 000040A8 00000001     H   32266 32265
 $LOGOFF2      2 00004048 00000001     H   32092 32091
 #IOUSCOM      1 00000010 FFFFFFCD A   U    2282  7526
 #SCCMD        4 00000000 FFFFFFA5     A    3625  7574M  7865M 10108M 10402M 11986M
 #SCCNOTE      1 00000028 FFFFFFA5 A   U    3635 10856
 #SCCOPEN      1 00000004 FFFFFFA5 A   U    3629 10836
 #SCCRECV      1 00000010 FFFFFFA5 A   U    3632 10858
 #SCCSEND      1 0000000C FFFFFFA5 A   U    3631 10839  16127
 #SCESBS       1 00000018 FFFFFFA5 A   U    3643 10861
 #SCESFQ       1 0000000C FFFFFFA5 A   U    3640 16132
 #SCESNP       1 00000010 FFFFFFA5 A   U    3641 10862
 #SCESOK       1 00000000 FFFFFFA5 A   U    3639 10860  16131
 #SCNOTE       4 00000000 FFFFFF9F     J    3815 10086U 10122U
 #SCOBUFL      4 00000018 FFFFFFA4     A    3672  7593M
 #SCOMCMD      4 00000000 FFFFFFA5     J    3652  3668   3696   3719   3742   3783   3808   7568U  7859U 10102U 10396U
                                                 11984U
 #SCOME        8 00000004 FFFFFFA4     C    3669  7590M
 #SCOPASS      4 00000014 FFFFFFA4     C    3671  7592M
 #SCOPEN      32 00000000 FFFFFFA4     J    3680  7544U  7555M  7555   7588U
 #SCOYOU       8 0000000C FFFFFFA4     C    3670  7591M
 #SCSR        24 00000000 FFFFFFA1     J    3767  3818   7836U  7846M  7846   7879U 10373U 10383M 10383  10416U 11742U
                                                 11975U 11984U 13143U 13154M 13154  13620U 13630M 13630  15432U 15443M
                                                 15443  17844U 17854M 17854  19860U 19870M 19870  20731U 20741M 20741
                                                 21536U 21546M 21546  23436U 23446M 23446  24980U 24990M 24990  26553U
                                                 26563M 26563  27908U 27918M 27918  29081U 29091M 29091  29932M 29932
                                                 31687U 31697M 31697
 #SCSRCT       4 00000008 FFFFFFA1     A    3744 11749  11843M
 #SCSRFLG      1 0000000C FFFFFFA1     R    3747  3751   3756
 #SCSRLEN      4 00000004 FFFFFFA1     A    3743 11847  11849M
 #SCSRRLN      4 00000010 FFFFFFA1     A    3759 10594
 #SCSRSEG      8 00000018 FFFFFFA1     D    3760 11751  11840
1TERMINAL (TERM00) (09:44) (22MAR04) Ordinary Symbol and Literal Cross Reference                                            Page  226
 @ACAUPR       4 0000000C FFFFFFEA     A    1519  1520
 @ACIASB       4 00000000 FFFFFFE9     A    1544 32555M
 @ACICPU       8 00000008 FFFFFFE9     D    1546 32563
 @ACIIOS       4 00000004 FFFFFFE9     A    1545 32568
 @ACINFO      40 00000000 FFFFFFE9     J    1557 32546U 32554M 32554
 @ACLASB       4 00000000 FFFFFFEB     A    1490 14349M
 @ACLLOT       8 00000010 FFFFFFEB     D    1493 14352M
 @ACLOGON     28 00000000 FFFFFFEB     J    1501 14340U 14348M 14348
 @ACLTID       4 00000018 FFFFFFEB     A    1494 14357M
 @ACLUID       8 00000004 FFFFFFEB     C    1491 14350M
 @ACLUPR       4 0000000C FFFFFFEB     A    1492 14351M
 @ACREATE      8 00000000 FFFFFFE1     J    1766  5571U  5579M  5579   9268U  9276M  9276
 @ACRPSW       8 00000000 FFFFFFE1     D    1759  5580M  5581M  5582M  9277M  9281M
 @ADDSEG      10 00000000 FFFFFF93     J   11686  7894U 10431U 11727U 13168U 13706U 13827U 15457U 18167U 18308U 19959U
                                                 20836U 20960U 21741U 23549U 23670U 23785U 25179U 25425U 26685U 26792U
                                                 28021U 28128U 29183U 30045U 31768U
 @ADDSLEN      2 00000008 FFFFFF93     H   11679  7923M 10454M 11753  11848  13196M 13735M 13862M 15486M 18196M 18329M
                                                 18382M 18445M 19988M 20865M 20981M 21041M 21770M 23578M 23705M 23806M
                                                 25208M 25449M 25521M 25616M 26714M 26813M 28050M 28149M 29212M 29262M
                                                 30074M 31797M
 @ADDSLOC      4 00000004 FFFFFF93     A   11678  7906M 10449M 11752  13179M 13718M 13845M 15469M 18179M 18319M 18365M
                                                 18435M 19971M 20848M 20971M 21024M 21753M 23561M 23688M 23796M 25191M
                                                 25439M 25511M 25599M 26697M 26803M 28033M 28139M 29195M 29252M 30057M
                                                 31780M
 @ADDSPA       4 00000000 FFFFFF93     A   11677  7934M 10465M 11732  13207M 13746M 13873M 15497M 18207M 18340M 18393M
                                                 18456M 19999M 20876M 20992M 21052M 21781M 23589M 23716M 23817M 25219M
                                                 25460M 25532M 25627M 26725M 26824M 28061M 28160M 29223M 29273M 30085M
                                                 31808M
 @EXRADD      21 00000000 FFFFFFB6     J    2938 18793U 18801M 18801
 @EXRAFLG      1 00000014 FFFFFFB6     R    2920  2924   2929
 @EXRAFS      64 00000014 FFFFFFB6         2929 18823M
 @EXRDCD       1 00000000 FFFFFFB4     R    2979  2988   2998
 @EXRDONE      1 00000000 FFFFFFB4     J    3007 20097U 20105M
 @EXRPARM      4 00000010 FFFFFFB6     A    2917 18817M
 @EXRPSW       8 00000008 FFFFFFB6     D    2916 18815M 18816M
 @EXRTYPE      4 00000000 FFFFFFB6     A    2914 18807U
 @FRTBLOC      4 00000000 FFFFFF94     A   11258  8382M  8445M  8613M  8677M  9042M  9135M  9401M 10642M 10730M 11349
                                                 13420M 14199M 14636M 19616M 21506M 22370M 24593M 26225M 27435M 28704M
                                                 31487M
 @FRTBUF       4 00000000 FFFFFF94     J   11265  8363U  8371M  8371   8434M  8434   8594U  8602M  8602   8666M  8666
                                                  9023U  9031M  9031   9124M  9124   9382U  9390M  9390  10623U 10631M
                                                 10631  10719M 10719  11306U 13401U 13409M 13409  14180U 14188M 14188
                                                 14617U 14625M 14625  19597U 19605M 19605  21487U 21495M 21495  22351U
                                                 22359M 22359  24574U 24582M 24582  26206U 26214M 26214  27416U 27424M
                                                 27424  28685U 28693M 28693  31468U 31476M 31476
 @IOSCHID      4 00000000 FFFFFFD3     A    2107  7631M  7969M 10146M 10498M 12098M 12258M
 @IOSCP        4 00000010 FFFFFFD3     A    2110  7626M  7968M 10148M 10500M 12110M 12270M
 @IOSDOIO     30 00000000 FFFFFFD3     J    2139  7606U  7614M  7614   7957U  7965M  7965  10136U 10144M 10144  10488U
                                                 10496M 10496  12088U 12096M 12096  12248U 12256M 12256
 @IOSFID       4 00000000 FFFFFFCF     A    2218 12679M
 @IOSFSYNC
             128 0000001D FFFFFFD3         2120  7642M  7975M 10154M 10506M 12116M 12276M
 @IOSFWAIT
             128 00000000 FFFFFFD0         2197  7178M 12013M
 @IOSF1        1 0000001D FFFFFFD3     R    2116  2120   2125   2130
 @IOSID        4 00000004 FFFFFFD3     A    2108  7636M  7967M 10147M 10499M 12099M 12259M
 @IOSIDF       1 00000000 FFFFFFD0     R    2193  2197
 @IOSIDFRE
               4 00000000 FFFFFFCF     J    2225 12670U 12678M 12678
1TERMINAL (TERM00) (09:44) (22MAR04) Ordinary Symbol and Literal Cross Reference                                            Page  227
 @IOSIDGET
               1 00000000 FFFFFFD0     J    2206  7164U  7172M 11999U 12007M
 @IOSKEY       1 0000001C FFFFFFD3     X    2113 10507M
 @IOSPID       8 00000008 FFFFFFD3     D    2109  7615M  7966M 10145M 10497M 12097M 12257M
 @LOCKCRE     17 00000000 FFFFFFD5     J    2075  5535U  5543M  5543   7120U  7128M  7128
 @LOCKFL       1 00000010 FFFFFFD5     R    2062  2066
 @LOCKID       4 00000000 FFFFFFD4     A    2087  5741M  5755M  9251M  9338M  9635M  9693M 12228M 12321M 12577M
 @LOCKNAM     16 00000000 FFFFFFD5     C    2059  5549M  7134M
 @LOCKS        4 00000000 FFFFFFD4     J    2094  5735U  9245U  9332U  9629U 12222U 12315U 12571U
 @MAPARM       5 00000000 FFFFFF90     J   15908  8936U 16000U
 @MAPCPLB      1 00000004 FFFFFF90     X   15901  8939M 16041  16074
 @MAPSYSR      4 00000000 FFFFFF90     A   15900  8938M 16023
 @MILUINF      4 00000000 FFFFFF92     J   15101  6309U  6317M  6317  15142U
 @MILUPTR      4 00000000 FFFFFF92     A   15094  6334M 15175
 @MSPARM       8 00000000 FFFFFF91     J   15640  8516U 15732U
 @MSPSYSR      4 00000000 FFFFFF91     A   15632  8518M 15755
 @MSPTBUF      4 00000004 FFFFFF91     A   15633  8519M 15763
 @M1IO        13 00000000 FFFFFF8F     J   16202 16424U 16432M 16432  16531M 16531  16735M 16735  17008U 17015U 20262U
                                                 20269U 22544U 22551U 24750U 26345U 27555U 28864U 31607U 31965U
 @M1IODIS    128 0000000C FFFFFF8F        16188 16687M 16873M 17277  17900  17997  25037  25307  25561
 @M1IOFLG      1 0000000C FFFFFF8F     R   16184 16188  16193
 @M1IOM31     64 0000000C FFFFFF8F        16193 16454M 16553M 16757M 17078  20332  22614  24808  26403  27613  29366
                                                 29492
 @M1IOR01      4 00000000 FFFFFF8F     A   16179 16459M 16604M 16652M 16693M 16794M 16838M 16880M 17084M 17093  20338M
                                                 20347  22620M 22629  24814M 24822  25663  26409M 26417  27619M 27627
                                                 28913
 @M1IOR14      4 00000004 FFFFFF8F     A   16180 17085M 17264  20339M 20486  22621M 22787  26603M 26603  27791  27830
                                                 27950
 @M1IOR15      4 00000008 FFFFFF8F     A   16181 17094  17226  20348  22630  22981  24823  25664  26418  27628  27753
                                                 28995  29372M 29377  29498M 29503  29874  30167  30389  30439  30574M
                                                 30574
 @M1TATCT      4 00000004 FFFFFFA8     A    3501 32041M
 @M1TATP      16 00000000 FFFFFFA8     J    3509 32037U
 @M1TATRQ      4 00000000 FFFFFFA8     A    3500 32039M
 @M1TCNTL     12 0000001A FFFFFFAB         3414 16409
 @M1TERM      27 00000000 FFFFFFAB     J    3433 16291U
 @M1TFLG       1 00000018 FFFFFFAB     R    3363  3367   3372   3377  16380
 @M1TFM31     32 00000018 FFFFFFAB         3377 16442  16541  16745
 @M1THALT     16 0000001A FFFFFFAB         3424 16484
 @M1TPGM       8 00000010 FFFFFFAB     C    3359 16379
 @M1TPKEY      1 00000019 FFFFFFAB     X    3381 16392
 @M1TREAD      4 0000001A FFFFFFAB         3394 16515
 @M1TRQID      4 0000000C FFFFFFAB     A    3358 16393
 @M1TR01       4 00000000 FFFFFFAB     A    3355 16459  16558  16762
 @M1TR15       4 00000008 FFFFFFAB     A    3357 16907M 16907
 @M1TTYPE      1 0000001A FFFFFFAB     R    3385  3394   3404   3414   3424
 @M1TWRIT      8 0000001A FFFFFFAB         3404 16719
 @PAGE         9 00000000 FFFFFFBA     J    2830 10325U 10333M 10333  10529U 10537M 10537  12032U 12040M 12040  12617U
                                                 12625M 12625  13090U 13098M 13098  13243U 13251M 13251  13652U 13660M
                                                 13660  13767U 13775M 13775  13901U 13909M 13909  13959M 13959  15378U
                                                 15386M 15386  15533U 15541M 15541  18113U 18121M 18121  18247U 18255M
                                                 18255  18495U 18503M 18503  18563M 18563  19905U 19913M 19913  20027U
                                                 20035M 20035  20782U 20790M 20790  20900U 20908M 20908  21095U 21103M
                                                 21103  21139M 21139  21687U 21695M 21695  21809U 21817M 21817  23495U
                                                 23503M 23503  23610U 23618M 23618  23739U 23747M 23747  23851U 23859M
                                                 23859  23895M 23895  23945M 23945  25125U 25133M 25133  25258U 25266M
                                                 25266  25692U 25700M 25700  25740M 25740  26631U 26639M 26639  26746U
                                                 26754M 26754  26858U 26866M 26866  26902M 26902  27967U 27975M 27975
                                                 28082U 28090M 28090  28194U 28202M 28202  28238M 28238  29129U 29137M
1TERMINAL (TERM00) (09:44) (22MAR04) Ordinary Symbol and Literal Cross Reference                                            Page  228
                                                 29137  29301U 29309M 29309  29991U 29999M 29999  30113U 30121M 30121
                                                 31714U 31722M 31722  31836U 31844M 31844  32674U 32682M 32682
 @PAGKEY       1 00000008 FFFFFFBA     X    2822  2823  32686M
 @PAGLEN       4 00000004 FFFFFFBA     A    2821 10355M 10553M 12068M 12653M 13125M 13278M 13688M 13809M 13943M 13987M
                                                 15414M 15569M 18149M 18275M 18531M 18583M 19941M 20063M 20818M 20928M
                                                 21123M 21167M 21723M 21845M 23531M 23652M 23767M 23879M 23929M 23973M
                                                 25161M 25286M 25720M 25768M 26667M 26774M 26886M 26930M 28003M 28110M
                                                 28222M 28266M 29165M 29337M 30027M 30149M 31750M 31872M 32685M
 @PAGLOC       4 00000000 FFFFFFBA     A    2820 10350M 10548M 12051M 12636M 13108M 13261M 13671M 13792M 13926M 13970M
                                                 15397M 15552M 18132M 18265M 18514M 18573M 19924M 20046M 20801M 20918M
                                                 21113M 21150M 21706M 21828M 23514M 23635M 23757M 23869M 23912M 23956M
                                                 25144M 25276M 25710M 25751M 26650M 26764M 26876M 26913M 27986M 28100M
                                                 28212M 28249M 29148M 29320M 30010M 30132M 31733M 31855M 32683M
 @PDF1         1 00000009 FFFFFFBE     R    2726  2727   2732
 @RA           0 00000000 FFFFFFFC     @    1035  6766   6843  11167  11777  13640  17922  19492  22669  29117  30280M
                                                 30281M 30282M
 @RB           0 00000000 FFFFFFFB     @    1047  7033  21065  25648
 @RESCTL       8 00000000 FFFFFFE3     D    1711 15840M
 @RESUME       8 00000000 FFFFFFE3     J    1720  9710U  9718M  9718  15831U 15839M 15839
 @RESUNIT      4 00000000 FFFFFFE3     A    1712  9723M
 @RJ           0 00000000 FFFFFFFA     @    1059 11811M 11825M 11831  17381  17382  17441  17663  17682  17736  20580
                                                 20635  22890  23068  23110  23201  23284  23285  23345  25329  29607M
 @RK           0 00000000 FFFFFFF9     @    1071 10999  21063  25635  26616  27952
 @RS           0 00000000 FFFFFFFD     @    1023  8399   8846   9318M 11464  16051  17966  23479  23480  25342  25364
                                                 25386  26116  27273
 @RTCID        4 00000000 FFFFFFCB     A    2349 19063M
 @RTCNCK      32 00000000 FFFFFFCB     J    2358 19054U 19062M 19062
 @RTSCLK       8 00000000 FFFFFFCC     D    2315 18913M
 @RTSET       24 00000000 FFFFFFCC     J    2333 18890U 18898M 18898
 @RTSFINT    128 00000008 FFFFFFCC         2322 18905M
 @RTSFLG       1 00000008 FFFFFFCC     R    2318  2322
 @RTSXIT       4 0000000C FFFFFFCC     A    2325 18899M
 @RX           0 00000000 FFFFFFF8     @    1083  5827   5983   6137   6294  16334  19780
 @R0           0 00000000 FFFFFFFE     @     715   991U
 @R1           0 00000000 FFFFFFFD     @     728   987U  6623U 12463U 18973U 19579U 21908U 22332U 24350U 24555U 26191U
                                                 27400U 28590U 28669U 29614U 30289U 30905U 31128U 31197U 31388U 31452U
 @R10          0 00000000 FFFFFFF4     @     845   951U  5611U  5870U  6026U  6180U  6377U  7417U  8106U  9436U  9814U
                                                  9959U 10176U 10804U 11223U 11642U 11866U 12700U 12949U 13464U 14229U
                                                 14383U 14956U 15064U 15238U 15596U 15865U 16107U 16924U 18666U 19675U
                                                 20126U 21260U 22431U 24052U 24652U 25847U 26284U 27009U 27494U 28345U
                                                 28763U 30710U 31546U 31903U 32062U 32236U 32407U 32587U 32810U
 @R11          0 00000000 FFFFFFF3     @     858   947U
 @R12          0 00000000 FFFFFFF2     @     871   943U  6372U 11637U 11861U 15233U 15860U 16102U 16919U 18661U 20121U
                                                 21255U 24047U 25842U 27004U 28340U 30705U 31898U 32057U 32582U 32805U
 @R13          0 00000000 FFFFFFF1     @     884   939U  5532U  5568U  5622U  5881U  6388U  6923U  6997U  7117U  7161U
                                                  7201U  7428U  7760U  7891U  7954U  8032U  8117U  8470U  8496U  8553U
                                                  8591U  8887U  8916U  8974U  9020U  9167U  9242U  9265U  9329U  9379U
                                                  9447U  9707U  9744U  9825U 10187U 10428U 10485U 10526U 10620U 10815U
                                                 11234U 11653U 12029U 12085U 12219U 12245U 12312U 12399U 12533U 12568U
                                                 12614U 12667U 12711U 12960U 13165U 13240U 13398U 13475U 13703U 13764U
                                                 13824U 13898U 14177U 14240U 14394U 14614U 14664U 14748U 14890U 14967U
                                                 15454U 15530U 15607U 15828U 15876U 16118U 16935U 18110U 18164U 18244U
                                                 18305U 18492U 18604U 18677U 18840U 18887U 19051U 19239U 19594U 19643U
                                                 19686U 19956U 20024U 20094U 20137U 20779U 20833U 20897U 20957U 21092U
                                                 21208U 21271U 21684U 21738U 21806U 22079U 22348U 22394U 22442U 23492U
                                                 23546U 23607U 23667U 23736U 23782U 23848U 23990U 24063U 24571U 24620U
                                                 24663U 25122U 25176U 25255U 25422U 25689U 25785U 25858U 26252U 26295U
                                                 26628U 26682U 26743U 26789U 26855U 26947U 27020U 27462U 27505U 27964U
                                                 28018U 28079U 28125U 28191U 28283U 28356U 28731U 28774U 29180U 29298U
1TERMINAL (TERM00) (09:44) (22MAR04) Ordinary Symbol and Literal Cross Reference                                            Page  229
                                                 29388U 29988U 30042U 30110U 30178U 30637U 30721U 31514U 31557U 31765U
                                                 31833U 31914U 32073U 32247U 32418U 32598U 32821U
 @R14          0 00000000 FFFFFFF0     @     897   935U
 @R15          0 00000000 FFFFFFEF     @     910   931U
 @R2           0 00000000 FFFFFFFC     @     741   983U  7146U 11627U 12597U 13075U 15580U
 @R3           0 00000000 FFFFFFFB     @     754   979U 12517U 13221U 15511U 29678U 29734U 29791U 32661U
 @R4           0 00000000 FFFFFFFA     @     767   975U  7856U  7876U  8086U  9793U 11213U 13439U
 @R5           0 00000000 FFFFFFF9     @     780   971U  8091U  9351U 13433U 14219U 14368U 14650U 15213U
 @R6           0 00000000 FFFFFFF8     @     793   967U  5794U  5950U  6104U  6265U  6974U  9310U 10099U 10119U 10166U
                                                 10393U 10413U 10784U 11856U 11947U 12695U 12781U 12944U 13026U 13459U
                                                 13547U 14224U 14373U 14941U 15218U 15311U 15591U 15712U 15855U 15980U
                                                 16097U 16322U 16914U 17044U 18656U 18747U 19670U 19768U 20116U 20298U
                                                 21250U 21339U 22426U 22580U 24042U 24131U 24647U 24781U 25837U 25927U
                                                 26279U 26376U 26999U 27089U 27489U 27586U 28335U 28425U 28758U 28895U
                                                 30700U 30790U 31541U 31638U 31893U 31993U 32052U 32139U 32231U 32316U
                                                 32402U 32519U 32577U
 @R7           0 00000000 FFFFFFF7     @     806   963U  5601U  7565U  7585U  7689U  9415U  9804U 10789U 12690U 14003U
                                                 14214U 14378U 14946U 15054U 15223U 18646U 20073U 21177U 21856U 22416U
                                                 24032U 25827U 26989U 28325U 30690U 31888U
 @R8           0 00000000 FFFFFFF6     @     819   959U  5606U  5692U  5766U  6499U  7412U  8096U  9426U  9517U  9541U
                                                  9809U  9949U 10799U 10943U 11218U 11334U 11632U 13997U 14951U 15059U
                                                 15228U 18651U 19665U 20078U 21182U 21519U 22421U 24037U 24642U 25832U
                                                 26274U 26994U 27484U 28330U 28753U 30695U 31536U 31883U
 @R9           0 00000000 FFFFFFF5     @     832   955U  7407U  7494U  8101U  8183U  9431U  9891U  9954U 10034U 10058U
                                                 10171U 10267U 10794U
 @SDF1         1 00000009 FFFFFFBD     R    2758  2759
 @SUSPAS      64 00000008 FFFFFFE4         1681 12550M
 @SUSPCTL      8 00000000 FFFFFFE4     D    1667 12909
 @SUSPEND      9 00000000 FFFFFFE4     J    1695 12536U 12544M 12544  12863U 12871M 12871
 @SUSPFLG      1 00000008 FFFFFFE4     R    1672  1676   1681   1686
 @SUSPLNG    128 00000008 FFFFFFE4         1676 12892M
 @SWFLG        1 00000004 FFFFFFC1     R    2621  2630   2640   2650
 @SYSPARS      4 00000000 FFFFFFD9     A    1961 15732U 16000U
 @SYSRASB      4 00000004 FFFFFFDA     A    1936  8509M  8929M
 @SYSRDEL      4 00000000 FFFFFFDB     J    1919  8556U  8564M  8564   8977U  8985M  8985  15746U 15754M 15754  16014U
                                                 16022M 16022
 @SYSRDID      4 00000000 FFFFFFDB     A    1912  8565M  8986M 15755M 16023M
 @SYSRDO      28 00000000 FFFFFFDA     J    1945  8499U  8507M  8507   8919U  8927M  8927
 @SYSRID       4 00000000 FFFFFFDA     A    1935  8508M  8928M
 @SYSRLOC      4 00000008 FFFFFFDA     A    1937  8510M  8930M
 @SYSRNEW      4 00000000 FFFFFFDC     J    1897  8473U  8481M  8481   8890U  8898M  8898
 @SYSRPRM      4 0000000C FFFFFFDA     A    1938  8516U  8936U
 @SYSRTN      16 00000000 FFFFFFD9     J    1968 15681U 15949U
 @TCREATE     21 00000000 FFFFFFE0     J    1805 18607U 18615M 18615  21211U 21219M 21219  23993U 24001M 24001  25788U
                                                 25796M 25796  26950U 26958M 26958  28286U 28294M 28294  30640U 30648M
                                                 30648
 @TCRFLAG      1 00000014 FFFFFFE0     R    1787  1791   1796
 @TCRFSTK    128 00000014 FFFFFFE0         1791 18624M 21228M 24010M 25805M 26967M 28303M 30657M
 @TCRPRIO      4 00000010 FFFFFFE0     A    1784 18618M 21222M 24004M 25799M 26961M 28297M 30651M
 @TCRPSW       8 00000000 FFFFFFE0     D    1782 18616M 18617M 21220M 21221M 24002M 24003M 25797M 25798M 26959M 26960M
                                                 28295M 28296M 30649M 30650M
 @TERUINF      8 00000000 FFFFFFAA     J    3455  6237U  6329  15185U
 @TERUTYP      8 00000000 FFFFFFAA     C    3448 15206M
 @TEXIT        4 00000000 FFFFFFDD     J    1874 19646U 19654M 19654  22397U 22405M 22405  24623U 24631M 24631  26255U
                                                 26263M 26263  27465U 27473M 27473  28734U 28742M 28742  31517U 31525M
                                                 31525
 @VALBFL       1 00000007 FFFFFF8E     R   16223 16227
 @VALBKEY      1 00000006 FFFFFF8E     X   16220 17190M 17356M 17492M 17638M 17787M 19288M 20422M 20555M 20685M 22128M
                                                 22751M 22861M 23167M 23258M 23395M 24431M 24938M 26515M 27725M 29444M
1TERMINAL (TERM00) (09:44) (22MAR04) Ordinary Symbol and Literal Cross Reference                                            Page  230
                                                 29560M 30234M 32660  32686
 @VALBLEN      2 00000004 FFFFFF8E     H   16219 17172M 17338M 17474M 17620M 17769M 19270M 20404M 20537M 20667M 22110M
                                                 22733M 22843M 23149M 23240M 23377M 24413M 24920M 26497M 27707M 29426M
                                                 29542M 30216M 32654  32684
 @VALBLOC      4 00000000 FFFFFF8E     A   16218 17162M 17321M 17464M 17603M 17759M 19260M 20394M 20520M 20657M 22100M
                                                 22723M 22826M 23132M 23223M 23367M 24403M 24910M 26487M 27697M 29409M
                                                 29525M 30199M 32653  32683
 @VALBUF       8 00000000 FFFFFF8E     J   16236 17144U 17152M 17152  17311M 17311  17454M 17454  17593M 17593  17749M
                                                 17749  19242U 19250M 19250  20376U 20384M 20384  20510M 20510  20647M
                                                 20647  22082U 22090M 22090  22705U 22713M 22713  22816M 22816  23122M
                                                 23122  23213M 23213  23357M 23357  24385U 24393M 24393  24892U 24900M
                                                 24900  26469U 26477M 26477  27679U 27687M 27687  29391U 29399M 29399
                                                 29515M 29515  30181U 30189M 30189  32648U
 @VALBWRT    128 00000007 FFFFFF8E        16227 17196M 19294M 20428M 22134M 22757M 24437M 29566M 30240M 32767
 @VMFLEN       4 00000004 FFFFFFC5     A    2513  6951M  8060M  9772M 11532M 14918M
 @VMFLOC       4 00000000 FFFFFFC5     A    2512  6962M  8070M  9782M 11542M 14929M
 @VMFPOOL      2 00000008 FFFFFFC5     H    2514  6963M  8071M  9783M 11543M 14930M
 @VMFREE      10 00000000 FFFFFFC5     J    2521  6926U  6934M  6934   8035U  8043M  8043   9747U  9755M  9755  11519U
                                                 11527M 11527  14893U 14901M 14901
 @VMGET       11 00000000 FFFFFFC6     J    2500  5468U  5476M  5476   6544U  6552M  6552   6648M  6648   7000U  7008M
                                                  7008   7061M  7061   7204U  7212M  7212   7763U  7771M  7771   9170U
                                                  9178M  9178  11101U 11109M 11109  12402U 12410M 12410  14484U 14492M
                                                 14492  14751U 14759M 14759  14806M 14806  14847M 14847
 @VMGFLG       1 0000000A FFFFFFC6     R    2482  2486   2491
 @VMGLEN       4 00000000 FFFFFFC6     A    2477  5493M  6569M  6665M  7018M  7078M  7229M  7788M  9195M 11114M 12427M
                                                 14509M 14776M 14823M 14864M
 @VMGONEP     64 0000000A FFFFFFC6         2491  7236M  7795M 14783M
 @VMGPOOL      2 00000008 FFFFFFC6     H    2479  5494M  6570M  6666M  7019M  7079M  7230M  7789M  9196M 11115M 12428M
                                                 14510M 14777M 14824M 14865M
 @WSFLG        1 0000000C FFFFFFBF     R    2695  2699
 @XITDATA      4 00000000 FFFFFFAD     J    3306 19737U
 @XITDO       32 00000000 FFFFFFB1     J    3087 32020U 32028M 32028  32184U 32192M 32192  32343U 32351M 32351
 @XITDSA       4 00000000 FFFFFFAD     A    3299 19745
 @XITMASK      5 00000000 FFFFFFAF     J    3170 18843U 18851M 18851
 @XITMREQ      1 00000004 FFFFFFAF     R    3132  3141   3151   3161
 @XITMSK       4 00000000 FFFFFFAF     A    3129 18857U
 @XITMSO       0 00000004 FFFFFFAF         3141 18870M
 @XITNEW       1 00000000 FFFFFFB3     J    3038 14667U 14675M 14691M 14707M 14723M
 @XITNFL       1 00000000 FFFFFFB3     R    3025  3029
 @XITPARM     16 00000010 FFFFFFB1     X    3080 32037U 32355M
 @XITRQID      4 00000000 FFFFFFB1     A    3076 32029M 32193M 32352M
 @XITTSK       4 00000004 FFFFFFB1     A    3077 32030M 32194M 32353M
 @XITTYPE      1 00000008 FFFFFFB1     X    3078 32031M 32195M 32354M
 ACINFO        1 00000000 00000023     T   32853 32853
 ACLOGON       1 00000000 00000018     T   16147 16147
 ACREATE       1 00000000 00000004     T    6398  6398  10853
 ADDSEG        4 000010B6 00000001     I   11700 10840  11711U 16143  20159  22452  24680  28782  32835
 ADDSEG2       2 000010AA 00000001     H   11695 11694
 ASB          68 00000000 FFFFFFEC     J    1467  5781U  5937U  6091U  6252U  9297U 11934U 12768U 13013U 13534U 14296U
                                                 14447U 15020U 15157U 15298U 15699U 15967U 16309U 17031U 18734U 20285U
                                                 21326U 22567U 24118U 24768U 25914U 26363U 27076U 27573U 28412U 28882U
                                                 30777U 31625U 31980U 32126U 32303U 32506U
 ASBGCFLG      1 00000014 FFFFFFEC     R    1437  1441
 ASBTCCB       4 00000030 FFFFFFEC     A    1454  5787   5943   6097   6258   9303M 11940  12774  13019  13540  14300
                                                 14451  14537M 15024  15161  15304  15705  15973  16315  17037  18740
                                                 20291  21332  22573  24124  24774  25920  26369  27082  27579  28418
                                                 28888  30783  31631  31986  32132  32309  32512
 ASLOCK        1 00000000 00000013     T   16135 16135  20172  22462  24689  28794
 ASSYSTSK      1 00000000 00000008     T   10828 10828
1TERMINAL (TERM00) (09:44) (22MAR04) Ordinary Symbol and Literal Cross Reference                                            Page  231
 ASULOCK       1 00000000 00000015     T   16138 16138  20174  22463  24690  28795
 ASYNIGNORE
               2 000009A0 00000001     H    9009  8837B  8870B
 BR           10 0000000A FFFFFFFF A   #    1136  5417M  5427U  5647M  5657U  5906M  5916U  6060M  6070U  6211M  6221U
                                                  6458M  6468U  7453M  7463U  8142M  8152U  9473M  9483U  9850M  9860U
                                                  9993M 10003U 10212M 10222U 10902M 10912U 11280M 11290U 11701M 11711U
                                                 11903M 11913U 12740M 12750U 12985M 12995U 13503M 13513U 14265M 14275U
                                                 14419M 14429U 14992M 15002U 15116M 15126U 15270M 15280U 15655M 15665U
                                                 15923M 15933U 16265M 16275U 16982M 16992U 18703M 18713U 19711M 19721U
                                                 20236M 20246U 21295M 21305U 22518M 22528U 24087M 24097U 24724M 24734U
                                                 25883M 25893U 26319M 26329U 27045M 27055U 27529M 27539U 28381M 28391U
                                                 28838M 28848U 30746M 30756U 31581M 31591U 31939M 31949U 32098M 32108U
                                                 32272M 32282U 32462M 32472U 32622M 32632U
 CBUFOK        4 00002BE0 00000001     I   23426 23088B 23193B 23320B
 CLOSED      128 00000038 FFFFFF9C         3983  7368
 CNTLEXF1      1 00000036 FFFFFF97     X    4564  4566   4567
 CNTLMDWD      2 00000036 FFFFFF97     H    4555 29972M 29973M
 CNTLNUML      4 00000034 FFFFFF97     A    4668  4669   4670  31390
 CNTLSNOP      1 00000021 FFFFFF97 A   U    4478  4479
 CNTLX         4 00003D0A 00000001     I   30745 30756U 32841
 CNTLX2        2 00003CFE 00000001     H   30740 30739
 CNTRL         4 0000381A 00000001     I   28837 20145  28848U
 CNTRL2        2 0000380E 00000001     H   28832 28831
 CPLAATTN      1 00000080 FFFFFF97 A   U    4432 19453  26100  31070
 CPLABRK       1 00000010 FFFFFF97 A   U    4435 19403
 CPLAIOE       1 00000040 FFFFFF97 A   U    4433 19428  26056  31048
 CPLAUST       1 00000020 FFFFFF97 A   U    4434 19378
 CPLBIA        1 00000020 FFFFFF97 A   U    4439 16039
 CPLBILT       1 00000040 FFFFFF97 A   U    4438 19353  26078
 CPLBLGF       1 00000080 FFFFFF97 A   U    4437 16072  19186  21443  21999  22017  24238  24256  26018  27196  27214
                                                 28532  28550  30869  31294
 CTEJECT       2 00003902 00000001     H   29070 29059B
 CTLDONE       2 00003CF4 00000001     H   30686 29463B 29585B 30259B 30666B 30681B
 CTLIPOST      4 00003CE4 00000001     I   30675 29054B 29476B 29623B 29667B 29723B 29793B 29814B 29833B 29867B 29894B
                                                 29914B 30298B 30318B 30338B 30372B 30486B 30558B 30620B
 CTLNLS        1 0000399C 00000001     X   29350 29247
 CTLSETI       1 00000002 FFFFFF97 A   U    4409 13636
 CTLSNSI       1 00000001 FFFFFF97 A   U    4408 13068
 CTLSPEC       4 00003CF0 00000001     I   30682 28925B 28945B 28964B 28965B 28972B 28973B 28974B 28976B 28977B 28978B
                                                 28983B 29007B
 CTLSTSK       2 00003CBC 00000001     H   30627 29348B 29680B 29736B 30160B
 CTLXBAD       2 00003DE6 00000001     H   30979 30917B 30937B 30947B 30948B 30951B 30952B 30953B 30954B 30955B 30956B
                                                 30958B 30964B 30965B 30966B 30967B 30968B 30969B 30970B 30971B 30972B
                                                 30974B
 CTLXDONE      2 00003F0A 00000001     H   31400 31057B 31079B 31091B
 CTLXLODN      2 00003F1E 00000001     H   31460 30891B 31311B
 CTLXWYL       2 00003E9C 00000001     H   31236 30957B 30959B 30960B 30961B 30962B 30963B 30973B
 CTLXXDN       4 00003F2E 00000001     I   31500 31161B 31230B
 CTLX00        2 00003E16 00000001     H   31000 30945B
 CTLX01        2 00003E16 00000001     H   31002 30946B
 CTLX04        2 00003E60 00000001     H   31098 30949B 31148B
 CTLX05        2 00003E7E 00000001     H   31168 30950B 31217B
 CTL00         2 000038D8 00000001     H   28994 28954B
 CTL01         2 000038FE 00000001     H   29064 28955B 29027B
 CTL02         2 000039DE 00000001     H   29356 28956B
 CTL03         2 00003A20 00000001     H   29482 28957B
 CTL04         2 00003A70 00000001     H   29629 28958B
 CTL05         2 00003A8A 00000001     H   29685 28959B
 CTL06         2 00003AA4 00000001     H   29741 28960B
1TERMINAL (TERM00) (09:44) (22MAR04) Ordinary Symbol and Literal Cross Reference                                            Page  232
 CTL07         2 00003AC0 00000001     H   29799 28961B
 CTL08         2 00003ACE 00000001     H   29819 28962B
 CTL09         2 00003ADC 00000001     H   29838 28963B
 CTL12         2 00003AF4 00000001     H   29873 28966B
 CTL13         2 00003B12 00000001     H   29905 28967B
 CTL21         2 00003BBE 00000001     H   30166 28975B
 CTL25         2 00003C0E 00000001     H   30304 28979B
 CTL26         2 00003C1C 00000001     H   30323 28980B
 CTL27         2 00003C2A 00000001     H   30343 28981B
 CTL30         2 00003C42 00000001     H   30378 28984B
 CTL31         2 00003C74 00000001     H   30491 28985B
 CTL32         2 00003C9C 00000001     H   30563 28986B
 CTTAB1        4 00003854 00000001     I   28954 28988
 CTTAB2        4 00003D6E 00000001     I   30945 30976
 CURSIB        4 00001436 00000001     I   12984 12995U 16150  20183  22465  24691  28798  32849
 CURSIB2       2 0000142A 00000001     H   12979 12978
 DISCPOST     16 00000038 FFFFFF9C         3998  7304   7317M
 DISPRD        1 00000000 00000016     T   16139 16139
 DISPSHLD      1 00000000 00000007     T   10827 10827
 DOCTLX        2 00003D52 00000001     I   30903 30820B
 EPAR         15 0000000F FFFFFFFF A   #    1196  5417   5497M  5498B  5552M  5553B  5589M  5590B  5647   5744M  5745B
                                                  5758M  5759B  5838M  5839B  5906   5994M  5995B  6060   6148M  6149B
                                                  6211   6340M  6341B  6458   6516M  6517B  6523M  6524B  6573M  6574B
                                                  6669M  6670B  6966M  6967B  7022M  7023B  7082M  7083B  7137M  7138B
                                                  7181M  7182B  7239M  7240B  7252M  7253B  7286M  7287B  7349M  7350B
                                                  7381M  7382B  7398M  7399B  7453   7645M  7646B  7701M  7702B  7798M
                                                  7799B  7940M  7941B  7978M  7979B  8074M  8075B  8142   8244M  8245B
                                                  8388M  8389B  8451M  8452B  8484M  8485B  8522M  8523B  8568M  8569B
                                                  8619M  8620B  8683M  8684B  8901M  8902B  8942M  8943B  8989M  8990B
                                                  9048M  9049B  9141M  9142B  9199M  9200B  9254M  9255B  9285M  9286B
                                                  9341M  9342B  9407M  9408B  9473   9638M  9639B  9696M  9697B  9726M
                                                  9727B  9786M  9787B  9850   9993  10157M 10158B 10212  10299M 10300B
                                                 10358M 10359B 10471M 10472B 10510M 10511B 10556M 10557B 10648M 10649B
                                                 10736M 10737B 10902  11118M 11119B 11280  11546M 11547B 11701  11903
                                                 12016M 12017B 12071M 12072B 12119M 12120B 12231M 12232B 12279M 12280B
                                                 12324M 12325B 12381M 12382B 12431M 12432B 12553M 12554B 12580M 12581B
                                                 12584M 12585B 12588M 12589B 12656M 12657B 12682M 12683B 12740  12801M
                                                 12802B 12906M 12907B 12912M 12913B 12916M 12917B 12935M 12936B 12985
                                                 13128M 13129B 13213M 13214B 13228M 13229B 13281M 13282B 13291M 13292B
                                                 13426M 13427B 13451M 13452B 13503  13691M 13692B 13752M 13753B 13812M
                                                 13813B 13879M 13880B 13886M 13887B 13946M 13947B 13990M 13991B 14013M
                                                 14014B 14124M 14125B 14153M 14154B 14205M 14206B 14265  14360M 14361B
                                                 14419  14513M 14514B 14642M 14643B 14678M 14679B 14694M 14695B 14710M
                                                 14711B 14726M 14727B 14786M 14787B 14827M 14828B 14868M 14869B 14933M
                                                 14934B 14992  15046M 15047B 15116  15270  15361M 15362B 15417M 15418B
                                                 15503M 15504B 15518M 15519B 15572M 15573B 15655  15758M 15759B 15843M
                                                 15844B 15923  16026M 16027B 16058M 16059B 16085M 16086B 16265  16386M
                                                 16387B 16465M 16466B 16495M 16496B 16610M 16611B 16658M 16659B 16699M
                                                 16700B 16800M 16801B 16844M 16845B 16886M 16887B 16982  17202M 17203B
                                                 17362M 17363B 17498M 17499B 17644M 17645B 17793M 17794B 18152M 18153B
                                                 18213M 18214B 18278M 18279B 18346M 18347B 18399M 18400B 18462M 18463B
                                                 18480M 18481B 18534M 18535B 18586M 18587B 18627M 18628B 18703  18826M
                                                 18827B 18873M 18874B 18916M 18917B 18980M 18981B 19024M 19025B 19073M
                                                 19074B 19081M 19082B 19200M 19201B 19225M 19226B 19300M 19301B 19319M
                                                 19320B 19340M 19341B 19504M 19505B 19567M 19568B 19622M 19623B 19629M
                                                 19630B 19657M 19658B 19711  19944M 19945B 20005M 20006B 20012M 20013B
                                                 20066M 20067B 20108M 20109B 20236  20434M 20435B 20561M 20562B 20691M
                                                 20692B 20821M 20822B 20882M 20883B 20931M 20932B 20998M 20999B 21058M
                                                 21059B 21075M 21076B 21126M 21127B 21170M 21171B 21231M 21232B 21295
1TERMINAL (TERM00) (09:44) (22MAR04) Ordinary Symbol and Literal Cross Reference                                            Page  233
                                                 21378M 21379B 21456M 21457B 21512M 21513B 21726M 21727B 21787M 21788B
                                                 21794M 21795B 21848M 21849B 21915M 21916B 22030M 22031B 22065M 22066B
                                                 22140M 22141B 22245M 22246B 22272M 22273B 22320M 22321B 22376M 22377B
                                                 22383M 22384B 22408M 22409B 22518  22763M 22764B 22867M 22868B 23173M
                                                 23174B 23264M 23265B 23401M 23402B 23534M 23535B 23595M 23596B 23655M
                                                 23656B 23722M 23723B 23770M 23771B 23823M 23824B 23833M 23834B 23882M
                                                 23883B 23932M 23933B 23976M 23977B 24013M 24014B 24087  24154M 24155B
                                                 24269M 24270B 24373M 24374B 24443M 24444B 24493M 24494B 24543M 24544B
                                                 24599M 24600B 24606M 24607B 24634M 24635B 24724  24944M 24945B 25164M
                                                 25165B 25225M 25226B 25289M 25290B 25466M 25467B 25538M 25539B 25633M
                                                 25634B 25658M 25659B 25723M 25724B 25771M 25772B 25808M 25809B 25883
                                                 25950M 25951B 26032M 26033B 26110M 26111B 26120M 26121B 26127M 26128B
                                                 26179M 26180B 26231M 26232B 26238M 26239B 26266M 26267B 26319  26521M
                                                 26522B 26670M 26671B 26731M 26732B 26777M 26778B 26830M 26831B 26840M
                                                 26841B 26889M 26890B 26933M 26934B 26970M 26971B 27045  27112M 27113B
                                                 27227M 27228B 27267M 27268B 27277M 27278B 27284M 27285B 27388M 27389B
                                                 27441M 27442B 27448M 27449B 27476M 27477B 27529  27731M 27732B 28006M
                                                 28007B 28067M 28068B 28113M 28114B 28166M 28167B 28176M 28177B 28225M
                                                 28226B 28269M 28270B 28306M 28307B 28381  28448M 28449B 28563M 28564B
                                                 28657M 28658B 28710M 28711B 28717M 28718B 28745M 28746B 28838  29168M
                                                 29169B 29229M 29230B 29279M 29280B 29286M 29287B 29340M 29341B 29450M
                                                 29451B 29572M 29573B 30030M 30031B 30091M 30092B 30098M 30099B 30152M
                                                 30153B 30246M 30247B 30660M 30661B 30675M 30676B 30746  30838M 30839B
                                                 30882M 30883B 31135M 31136B 31204M 31205B 31302M 31303B 31440M 31441B
                                                 31493M 31494B 31500M 31501B 31528M 31529B 31581  31753M 31754B 31814M
                                                 31815B 31821M 31822B 31875M 31876B 31939  32044M 32045B 32098  32198M
                                                 32199B 32272  32358M 32359B 32462  32558M 32559B 32622  32689M 32690B
 EXRADD        1 00000000 0000001C     T   20167 20167
 EXRDONE       1 00000000 00000021     T   20187 20187
 FMILASYN      1 00000050 FFFFFF97 A   U    4367  8318   8799
 FMILDUMP      1 00000031 FFFFFF97 A   U    4360  8752
 FMILINIT      1 00000021 FFFFFF97 A   U    4355  8648
 FMILREAD      1 00000042 FFFFFF97 A   U    4364 19115  19157
 FMILSOS       1 00000040 FFFFFF97 A   U    4362  8303   9075  14581
 FMILSTOP      1 00000030 FFFFFF97 A   U    4359  8707
 FMILWRIT      1 00000041 FFFFFF97 A   U    4363 21414  25989  31016
 FMILXCTL      1 00000047 FFFFFF97 A   U    4365 19103  21954  24193  27151  28487  31250
 FORVCMD       1 00000030 FFFFFF97     X    4453 21580M 23475M 26592M 27947M 29951M
 FORVCMDM      1 00000031 FFFFFF97     X    4461 21602M 23476M 26610M 29953M
 FORVCNTL      1 00000008 FFFFFF97 A   U    4459 29951
 FORVHDR       2 00000032 FFFFFF97     H    4481  4485   4493   4501   4506   4536   4553   4556   4559   4562   4569
 FORVREDT      1 00000080 FFFFFF97 A   U    4455 21580
 FORVRTXT      1 00000020 FFFFFF97 A   U    4457 23475
 FORVTEXT      1 00000038 FFFFFF97     U    4487  4509
 FORVWEDT      1 00000040 FFFFFF97 A   U    4456 26592
 FORVWTXT      1 00000010 FFFFFF97 A   U    4458 27947
 FQCB         20 00000000 FFFFFF9B     J    4043  7073   7094U  7105M  7105   7106M  9576U 12203U
 FQCBCNT       4 00000004 FFFFFF9B     A    4033  9581   9597  12377  12378M
 FQCBHEAD      4 0000000C FFFFFF9B     A    4035  9610M  9610   9640   9654M 12481M
 FQCBLOCK      4 00000008 FFFFFF9B     A    4034  7139M  9635   9693  12228  12321  12577
 FQCBTAIL      4 00000010 FFFFFF9B     A    4036  9666   9679M  9679  12467  12480M 12511M
 FQL           2 00001230 00000001     H   12211 12590B
 FREETBUF      4 00000FAA 00000001     I   11279 10841  11290U 16146  20184  22461  24692  28799  32850
 FULLQE       64 00000038 FFFFFF9C         3988  7335   9562M
 FWYLFL        1 00000031 FFFFFF97     X    4580 22202
 FWYLFNT       1 00000080 FFFFFF97 A   U    4581 22200
 FWYLHDR       2 00000032 FFFFFF97     H    4583  4587   4609   4627   4641   4657   4666
 FWYLRTNC      1 00000030 FFFFFF97     X    4577 24316  24349  27312  27335  28589  31387
 FWYLTEXT      1 00000038 FFFFFF97     U    4589  4613  22237
1TERMINAL (TERM00) (09:44) (22MAR04) Ordinary Symbol and Literal Cross Reference                                            Page  234
 GCTIME        8 00000000 FFFFFF8A     D   32440 32566M 32567
 GCWA          8 00000000 FFFFFF8A     J   32447 32488U
 GETCHGS       4 0000413E 00000001     I   32461 16151  20143  32472U
 GETCHGS2      2 00004132 00000001     H   32456 32455
 GETTBUF       4 00000ECA 00000001     I   10901 10299  10912U
 GETTBUF2      2 00000EBE 00000001     H   10896 10895
 GTCT         40 00000000 FFFFFF9E     J    3905  5488   5509U  5519M  5519   5520M  5720U  6510U  7505U  8194U  9528U
                                                  9902U 10045U 10254U 10954U 11345U
 GTCTLOCK      4 00000004 FFFFFF9E     A    3881  5554M  5741   5755   9251   9338
 GTCTMILC      4 00000020 FFFFFF9E     A    3894  6576M  7509   8198   9534   9906  10051  10260
 GTCTTBFC      4 00000010 FFFFFF9E     A    3887 11037  11047M 11419  11457  11465M
 GTCTTBFL      4 00000018 FFFFFF9E     A    3889 10961  11000M 11425  11434M
 GTCTTBSZ      2 00000008 FFFFFF9E     H    3885  5521M 11114  11203  11532
 GTCTTBTC      4 0000000C FFFFFF9E     A    3886 11160  11168M 11406  11587  11597M
 GTMILAS       4 00000024 FFFFFF9E     A    3898  5591M
 HALT          4 00003F56 00000001     I   31580 20146  31591U
 HALT2         2 00003F4A 00000001     H   31575 31574
 HIBAL         1 00000000 FFFFFFFF     J     700   716    729    742    755    768    781    794    807    820    833
                                                   846    859    872    885    898    911   1012   1024   1036   1048
                                                  1060   1072   1084   1096   1108   1120   1132   1144   1156   1168
                                                  1180   1192   1204
 ILCLOSE2      2 00000B62 00000001     H    9844  9843
 ILNOTFY2      2 00000BD2 00000001     H    9987  9986
 IOSDOIO       1 00000000 0000000B     T   10838 10838  16130
 IOSIDFRE      1 00000000 00000017     T   16141 16141
 IOSIDGET      1 00000000 0000000A     T   10835 10835  16128
 LKCRE         1 00000000 00000003     T    6395  6395  10834
 LKOB          1 00000000 00000005     T    6399  6399  10849  16133
 LKREL         1 00000000 00000006     T    6400  6400  10854  16134
 MAT         256 00000000 FFFFFFED     J    1409  5445U  5679U  6486U  6611U  7481U  8170U  9504U  9878U 10021U 10240U
                                                 10930U 11321U
 MATGTCT       4 00000024 FFFFFFED     A    1369  5555M  5685   6492   7487   8176   9510   9884  10027  10244  10936
                                                 11327
 MATPTR        4 00000200 FFFFFFED A   A    1356  5435   6476   7471   8160   9494   9868  10011  10230  10920  11311
 MATSKEY       1 000000E0 FFFFFFED     X    1389  5581  10507
 MATSNAME      8 000000D4 FFFFFFED     C    1387  6616
 MAXCNTL       1 00000021 00000001 A   U   28988 32832
 MFQE         12 00000000 FFFFFF98     J    4239  9650U  9767  12422  12443U 12454M 12454  12455M 12506U
 MFQEASB       4 00000008 FFFFFF98     A    4232  9723  12456M
 MFQENEXT      4 00000004 FFFFFF98     A    4231  9654  12510M
 MIB          16 00000000 FFFFFF9A     J    4073  9190   9214U  9224M  9224   9225M 14461U 14913
 MIBFQCB       4 0000000C FFFFFF9A     A    4066  9227M 14542
 MIBPATH       4 00000008 FFFFFF9A     A    4065  9226M 14541
 MIBTBUF       4 00000004 FFFFFF9A     A    4064  9228M 14546
 MILASYN       4 00001A3E 00000001     I   15922 10846  15933U
 MILASYN2      2 00001A32 00000001     H   15917 15916
 MILCB        57 00000000 FFFFFF9C     J    4012  6564   6586U  6596M  6596   6597M  7519U  8208U  9552U  9916U 10069U
                                                 10278U
 MILCFLG       1 00000038 FFFFFF9C     R    3979  3983   3988   3993   3998   4003  10159M
 MILCFQCB      4 00000034 FFFFFF9C     A    3973  7148M  9227   9566
 MILCIOCB      4 00000028 FFFFFF9C     A    3967  7183M  7636   7967  10147  10499
 MILCIOPA      4 0000002C FFFFFF9C     A    3968  7241M  7534   7826  10076  10363
 MILCLOSE      4 00000B6E 00000001     I    9849  7381   9860U
 MILCLTAB      4 00000008 FFFFFF9C     A    3956  7025M  8396   8843   9317
 MILCNTL       1 00000049 FFFFFF97 A   U    4346 13067  13332  13635  14058
 MILCPATH      4 00000030 FFFFFF9C     A    3969  7530M  7631   7969   9226  10146  10498
 MILFQE        4 00000AB6 00000001     I    9472  7349   9483U
 MILFQE2       2 00000AAA 00000001     H    9467  9466
 MILIAS        4 00001720 00000001     I   14418  6401  14429U
1TERMINAL (TERM00) (09:44) (22MAR04) Ordinary Symbol and Literal Cross Reference                                            Page  235
 MILIAS2       2 00001714 00000001     H   14413 14412
 MILIUSI       4 0000187A 00000001     I   14991  6402  15002U
 MILIUSI2      2 0000186E 00000001     H   14986 14985
 MILLGOF       4 000018F2 00000001     I   15269  6403  15280U
 MILLGOF2      2 000018E6 00000001     H   15264 15263
 MILMAXLN      2 00000004 FFFFFF9C     H    3955  6627M  6899M  6979   8336   8820   9096
 MILMNAM       8 00000014 FFFFFF9C     C    3961  6625M  6725   6754M  6766M  7591
 MILNOTFY      4 00000BDE 00000001     I    9992  7398   7701  10003U
 MILONAM       8 0000000C FFFFFF9C     C    3960  6616M  7590   7822
 MILOPEN       4 00000560 00000001     I    7452  7252   7463U
 MILOPEN2      2 00000554 00000001     H    7447  7446
 MILPASS       4 00000024 FFFFFF9C     C    3963  6626M  6802   6831M  6843M  7592
 MILREAD       4 00000734 00000001     I    8141  7286   8152U
 MILREAD2      2 00000728 00000001     H    8136  8135
 MILRECV       4 00000C48 00000001     I   10211  8244  10222U
 MILRECV2      2 00000C3C 00000001     H   10206 10205
 MILRX         4 0000137A 00000001     I   12739 12750U 16145  20171  22459  24687  28790  32845
 MILRX2        2 0000136E 00000001     H   12734 12733
 MILSX         4 00001178 00000001     I   11902 11913U 16144  20160  22453  24681  28784  32836
 MILSX2        2 0000116C 00000001     H   11897 11896
 MILSYSR       4 000019A0 00000001     I   15654 10843  15665U
 MILSYSR2      2 00001994 00000001     H   15649 15648
 MILTERM       4 00000320 00000001     I    6457  6397   6468U
 MILTERM2      2 00000314 00000001     H    6452  6451
 MILUINF       4 000018B2 00000001     I   15115  6404  15126U
 MILUINF2      2 000018A6 00000001     H   15110 15109
 MITMK1        1 00000000 FFFFFFAE     R    3205  3209   3214   3219   3224   3229   3234   3239   3244
 MITMK2        1 00000001 FFFFFFAE     R    3250  3254   3259   3264
 MMLOOP        2 00000506 00000001     H    7259  7400B
 MODACL        1 00000010 FFFFFF97 A   U    4375 18042  25054
 MODBSLOL      1 00000008 FFFFFF97 A   U    4383 18049  25061
 MODBUFMT      1 00000002 FFFFFF97 A   U    4385 18063  25075
 MODBUPLO      1 00000040 FFFFFF97 A   U    4380 18056  25068
 MODCDSPL      1 00000040 FFFFFF97 A   U    4389 18007  25047
 MODCSTIB      1 00000020 FFFFFF97 A   U    4390 18031
 MODCSTOB      1 00000001 FFFFFF97 A   U    4395 18093  25105
 MODDNPAU      1 00000080 FFFFFF97 A   U    4397 18070  25082
 MODDNPT       1 00000040 FFFFFF97 A   U    4398 17985  25025
 MOPEN         4 00000500 00000001     I    7252  7383B
 MTCB        132 00000000 FFFFFF99     J    4210 11958U 12792U 13037U 13558U 14310U 14504  14525U 14535M 14535  14536M
                                                 15034U 15171U 15322U 15723U 15991U 16371U 17055U 18758U 19817U 20309U
                                                 21350U 22591U 24142U 24792U 25938U 26387U 27100U 27597U 28436U 28906U
                                                 30801U 31649U 32004U 32150U 32327U 32530U
 MTCBATTN      4 0000003C FFFFFF99     A    4136 14680M 32029
 MTCBFLGS      1 00000028 FFFFFF99     R    4105  4109   4114   4119   4124   4129
 MTCBFQCB      4 00000014 FFFFFF99     A    4098 12193  14542M
 MTCBIOCP      4 00000038 FFFFFF99     A    4135 14696M 32352
 MTCBIOPA      4 00000020 FFFFFF99     A    4101 11965  13133  13610  14788M 15422  17834  19850  20721  21526  23426
                                                 24970  26543  27898  29071  29921  31677
 MTCBLGOF      4 00000044 FFFFFF99     A    4138 14728M 32193
 MTCBLINE      2 00000004 FFFFFF99     H    4095 13066  13634  14602M 15351  17879  19892  20766  21572  23471  25015
                                                 26588  27943  29113  29948  31701
 MTCBPATH      4 00000010 FFFFFF99     A    4097 12098  12258  14541M
 MTCBPDB       4 00000018 FFFFFF99     A    4099 13044  13588  14829M 15329  17855  19871  20742  21547  23447  24991
                                                 26564  27919  29092  29933  31656
 MTCBSIB       4 0000001C FFFFFF99     A    4100 13373  13565  14314  14870M 15189  18926  19528  21861  22281  24504
                                                 26140  27349  28618  29591  29630  29686  29742  30265  31099  31169
                                                 31401
 MTCBTBUF      4 0000002C FFFFFF99     A    4133 12805  12908M 12932M 12932  15767  15804M
1TERMINAL (TERM00) (09:44) (22MAR04) Ordinary Symbol and Literal Cross Reference                                            Page  236
 MTCBTIMO      4 00000040 FFFFFF99     A    4137 14712M 18899
 MTCBTKID      8 00000030 FFFFFF99     D    4134 12909M 15840
 MTCBWMW       4 00000024 FFFFFF99     A    4102 29875  29899M 29913  29972  29973
 MTCBWYLN      8 00000006 FFFFFF99     C    4096 14603M 21574  22054M 23473  24300M 26590  27245M 27945  28580M 29950
                                                 31319M
 MTFLFRED    128 00000028 FFFFFF99         4109 21590  21601M
 MTFLLGOF      8 00000028 FFFFFF99         4129 32163  32220M
 MTFLSLOW     64 00000028 FFFFFF99         4114 12881  12899M 18962M 21897M
 MTFLWATN     32 00000028 FFFFFF99         4119 21616  21628M 30608M
 MTFLWCME     16 00000028 FFFFFF99         4124 21648  21660M 30586M
 MT1ATSK       4 0000006C FFFFFF99     A    4153 16378M 32030  32194
 MT1CFLG       1 00000073 FFFFFF99     R    4161  4165   4170   4175   4180
 MT1CNTL       1 00000071 FFFFFF99     X    4156 28951M 29953  29966  30904  31346  31361  31376
 MT1CPUT       4 0000007C FFFFFF99     F    4188 15363  32567M
 MT1DIOCT      3 00000081 FFFFFF99     R    4203 15364  32570M
 MT1FCC      128 00000073 FFFFFF99         4165 25322  29806M 29825M 29855  30401M 30424M 30508
 MT1FCIO      16 00000073 FFFFFF99         4180 29347M 30159M 30817  30832M
 MT1FNWNL     64 00000073 FFFFFF99         4170 25576  30310M 30330M 30360  30451M 30474M 30534
 MT1FREWR     32 00000073 FFFFFF99         4175 20483M 20715M 21367
 MT1IACT       1 00000070 FFFFFF99     X    4154 16050  16052M 17833M 19498M 21195M 22266M 26115  26117M 27272  27274M
                                                 32040
 MT1IBLEN      2 00000060 FFFFFF99     H    4149 17222M 17881  19228  20473M 22068  22783M 23477  24370
 MT1IBLOC      4 0000005C FFFFFF99     A    4148 17221M 19227  20453M 22067  22782M 24369
 MT1PFLG       1 00000080 FFFFFF99     R    4191  4195   4200  16380M
 MT1PGM        8 00000074 FFFFFF99     C    4187 13637  16379M 17882  19894  20768  21575  23474  25017  26591  27946
                                                 29115  29952  31703
 MT1RKEY       1 00000072 FFFFFF99     X    4157 16392M 17184  17350  17486  17632  17781  19282  20416  20549  20679
                                                 22122  22745  22855  23161  23252  23389  24425  24932  26509  27719
                                                 29438  29554  30228
 MT1RQID       4 0000004C FFFFFF99     A    4143 16393M 32039  32355
 MT1RQTK       4 00000048 FFFFFF99     A    4142 16391M 32353
 MT1TIMER      4 00000068 FFFFFF99     A    4151 18918M 19036M 19036  19063  19070M 19070  19834M 19834  19846M 19846
 MT1TIMO       4 00000064 FFFFFF99     A    4150 17260M 18775M 18775  18910  19016M 19016
 MT1WR01       4 00000050 FFFFFF99     A    4144 16394M 19222M 19222  19336M 19474  21471M 21471  22038M 22038  22222M
                                                 22260M 22260  24277M 24277  24487M 27236M 27250M 28610M 29913M 30498M
                                                 30498  30520M 30546M 31390M
 MT1WR14       4 00000054 FFFFFF99     A    4145 16395M 22214M 24291M 24291  24496M
 MT1WR15       4 00000058 FFFFFF99     A    4146 16396M 19215M 19215  19316M 19361M 19386M 19411M 19436M 19461M 21464M
                                                 21464  22045M 22045  22187M 22187  24284M 24284  24351M 26047M 26047
                                                 26064M 26086M 26129M 27235M 27235  27299M 27299  27318M 27341M 28571M
                                                 28571  28591M 29053M 29053  29475M 29475  29622M 29622  29666M 29666
                                                 29722M 29722  29763M 29763  29780M 29813M 29813  29832M 29832  29845M
                                                 29845  29862M 29893M 29893  29912M 29912  30297M 30297  30317M 30317
                                                 30337M 30337  30350M 30350  30367M 30485M 30485  30557M 30557  30619M
                                                 30619  30890M 30890  31056M 31078M 31090M 31090  31160M 31160  31229M
                                                 31229  31310M 31310  31329M 31329  31389M
 MXRDONE       2 0000133C 00000001     H   12606 12139B 12326B
 M1ATTN        4 00003FF8 00000001     I   31938 16154  20182  22464  28796  31949U
 M1ATTN2       2 00003FEC 00000001     H   31933 31932
 M1IODONE      4 000040B4 00000001     I   32271 20185  22466  24693  28800  32282U 32844
 M1LOGOFF      4 00004054 00000001     I   32097 16155  20175  22460  24688  28791  32108U 32846
 M1LOGON       1 00000000 0000000F     T   10851 10851
 M1TDONE       2 00001D00 00000001     H   16902 16467B 16497B 16612B 16660B 16701B 16802B 16846B 16888B
 M1TERM        4 00001B46 00000001     I   16264 16259  16275U
 M1TSPEC       4 00001CFC 00000001     I   16896 16587B 16598B 16646B
 NEWINFO      32 00000038 FFFFFF9C         3993  7272   8228  10288M 10675M
 NEWSIB        4 0000153E 00000001     I   13502 13513U 32848
 NEWSIB2       2 00001532 00000001     H   13497 13496
 OPENED        8 00000038 FFFFFF9C         4003  7712
1TERMINAL (TERM00) (09:44) (22MAR04) Ordinary Symbol and Literal Cross Reference                                            Page  237
 PAGFIX        1 00000000 00000011     T   10857 10857  16129  20158  22451  24679  28781  32834
 PAGTPROT      1 00000000 00000024     T   32854 32854
 PAGUFIX       1 00000000 00000012     T   10859 10859  16140  20161  22454  24682  28785  32837
 PARMFINT      4 00000000 FFFFFFA6         3571  6864M
 PARMFSTR      0 00000000 FFFFFFA6         3561  6709M  6787M
 PARMIN        4 00000000 FFFFFFA6     J    3602  6432   6691U  6732   6739   6809   6816   6872   6879
 PARMKEYS      4 00000004 FFFFFFA6     A    3595  6710M  6711M  6788M  6865M
 PARMTYPE      1 00000000 FFFFFFA6     R    3552  3561   3571   3581   3591
 PDB          52 00000004 FFFFFF97     X    4441  6406   7783   7810U  7820M  7820   7918   8055   8284U 13054U 13065M
                                                 13065  13120  13191  13273  13313U 13598U 13609M 13609  13683  13730
                                                 13982  14034U 14566U 14818  15339U 15350M 15350  15409  15481  15564
                                                 17865U 17875M 17875  18144  18191  18526  19001U 19881U 19891M 19891
                                                 19936  19983  20058  20752U 20762M 20762  20813  20860  21162  21399U
                                                 21557U 21568M 21568  21718  21765  21840  21936U 23457U 23467M 23467
                                                 23526  23573  23968  24175U 25001U 25011M 25011  25156  25203  25763
                                                 25971U 26574U 26584M 26584  26662  26709  26925  27133U 27929U 27939M
                                                 27939  27998  28045  28261  28469U 29102U 29112M 29112  29160  29207
                                                 29332  29944M 29944  30022  30069  30144  30859U 31666U 31676M 31676
                                                 31745  31792  31867
 PDBBYT1       1 0000000E FFFFFF97     X    4286  4318
 PDBBYT2       1 0000000F FFFFFF97     X    4287  4324
 PDBCMD        1 00000006 FFFFFF97     X    4273  7821M  8303   8318   8648   8707   8752   8799   9075  13067M 13332
                                                 13635M 14058  14581  15352M 17880M 19103  19115M 19157  19893M 20767M
                                                 21414  21573M 21954  23472M 24193  25016M 25989  26589M 27151  27944M
                                                 28487  29114M 29949M 31016  31250  31702M
 PDBCMDFL      1 00000007 FFFFFF97     X    4274  4310   4310   4316
 PDBCMOD       1 0000000F FFFFFF97     X    4324 14111
 PDBCNO        1 00000007 FFFFFF97     X    4316 13068M 13636M
 PDBCPLA       1 0000000C FFFFFF97     X    4283 19380  19405  19430  19455  26058  26102  31050  31072
 PDBCPLB       1 0000000D FFFFFF97     X    4284  8939  19188  19355  21445  22001M 22019  24240M 24258  26020  26080
                                                 27198M 27216  28534M 28552  30871  31296M
 PDBCRET       1 0000000E FFFFFF97     X    4318 13345  14071
 PDBINCT       2 00000030 FFFFFF97     H    4304  4308   4308   4452   4576  17881M
 PDBLIN#       2 00000004 FFFFFF97     H    4272  4441   4441   8324   8808   9084   9315  13066M 13634M 14602  15351M
                                                 17879M 19892M 20766M 21572M 23471M 25015M 26588M 27943M 29113M 29948M
                                                 31701M
 PDBMODA       1 00000008 FFFFFF97     X    4277 18044M 25056M
 PDBMODB       1 00000009 FFFFFF97     X    4278 18051M 18058M 18065M 25063M 25070M 25077M
 PDBMODC       1 0000000A FFFFFF97     X    4279 18009M 18033M 18095M 25049M 25107M
 PDBMODD       1 0000000B FFFFFF97     X    4280 17987M 18072M 25027M 25084M
 PDBORV        8 00000030 FFFFFF97     X    4308 19116
 PDBOUTCT      2 0000002E FFFFFF97     H    4303 13641M 17920M 17973M 21066M 21576M 23481M 25649M 26617M 27953M 29118M
 PDBPC         2 00000034 FFFFFF97     H    4306 17971M 19327  19329  19481
 PDBRC         2 00000036 FFFFFF97     H    4307 19132M 19328
 PDBSINP       4 00000010 FFFFFF97     A    4289  4290
 PDBSTRT       4 00000000 FFFFFF97     F    4266  4311   4311
 PDBSUC        2 0000002C FFFFFF97     H    4302 19555  22308  24531  26167  27376  28645  31428
 PDBSYSNM      8 00000024 FFFFFF97     C    4300  7822M 14603  21574M 21988M 21988  22054  23473M 24227M 24227  24300
                                                 26590M 27185M 27185  27245  27945M 28521M 28521  28580  29950M 31284M
                                                 31284  31319
 PDBTEXT       1 00000038 FFFFFF97     C    4312  4441   4487   4589  13387  14145  19326  19480  24488
 PDBVCPU       4 0000001C FFFFFF97     F    4293 15363M
 PDBVDIO       3 00000021 FFFFFF97     X    4297 15364M
 PDBVINFO     16 00000014 FFFFFF97     X    4298 13637M 17882M 19894M 20768M 21575M 23474M 25017M 26591M 27946M 29115M
                                                 29952M 31703M
 PDBVPGM       8 00000014 FFFFFF97     C    4292  4298   4298
 PDBVRCTL      1 00000001 FFFFFF97 A   U    4309 19116
 PDBWC         2 00000032 FFFFFF97     H    4305 13639M 17922M 19131  19139M 19139  21064M 25647M 29116M
 PZABORT     128 0000021A FFFFFFEE         1308  5856M  6012M  6166M  6358M  7671M  7728M  8004M  8728M  8768M  9935M
1TERMINAL (TERM00) (09:44) (22MAR04) Ordinary Symbol and Literal Cross Reference                                            Page  238
                                                 10766M 11144M 11390M 11572M 11799M 12172M 12358M 12828M 13361M 15792M
                                                 16350M 19796M 22166M 24332M 24469M 30987M 32384M
 PZABR15       4 0000021C FFFFFFEE     A    1317  5857M  6013M  6167M  6359M  7672M  7729M  8005M  8729M  8769M  9936M
                                                 10767M 11145M 11391M 11573M 11800M 12173M 12359M 12829M 13362M 15793M
                                                 16351M 19797M 22167M 24333M 24470M 30988M 32385M
 PZABSM        1 0000021B FFFFFFEE     X    1316  5850M  6006M  6160M  6352M  7665M  7722M  7998M  8722M  8762M  9929M
                                                 10760M 11138M 11384M 11566M 11793M 12166M 12352M 12822M 13355M 15786M
                                                 16344M 19790M 22160M 24326M 24463M 30981M 32378M
 PZCURASB      4 00000208 FFFFFFEE     A    1293  5771   5927   6081   6242  11924  12456  12758  13003  13524  14286
                                                 14349  14437  15010  15147  15288  15689  15957  16299  17021  18724
                                                 20275  21316  22557  24108  24758  25904  26353  27066  27563  28402
                                                 28872  30767  31615  31970  32116  32293  32496  32555
 PZCURPID      8 00000208 FFFFFFEE     D    1292  7615   7966  10145  10497  12097  12257
 PZCURTSK      4 0000020C FFFFFFEE     A    1294 16378  16391
 PZERO       640 00000000 FFFFFFEE     J    1327  1338U 17185U 17351U 17487U 17633U 17782U 19283U 20417U 20550U 20680U
                                                 22123U 22746U 22856U 23162U 23253U 23390U 24426U 24933U 26510U 27720U
                                                 29439U 29555U 30229U
 PZLCPUA       4 00000210 FFFFFFEE     A    1295  5858   6014   6168   6360   7673   7730   8006   8730   8770   9937
                                                 10768  11146  11392  11574  11801  12174  12360  12830  13363  15794
                                                 16352  19798  22168  24334  24471  30989  32386
 PZMATP        4 00000200 FFFFFFEE     A    1290  5669   6601
 PZTERMFL      1 0000021A FFFFFFEE     R    1304  1308   1313
 RA            2 00000002 FFFFFFFF A   #    1028  6718M  6725M  6742   6795M  6802M  6819   6882   6896   6898M  6899
                                                  6979M  6980M  7038   7084M  7094U  7148   8486M  8508   8518   8565
                                                  8903M  8928   8938   8986  10515M 10574  10588  10702  10998M 11000
                                                 11037M 11044  11047M 11160M 11168M 11349M 11359U 11434  11752M 11815
                                                 11818  11829M 12193M 12203U 13044M 13054U 13638M 13639  14088M 14129M
                                                 14129  14155M 14207  15329M 15339U 15763M 15804  16584M 16584  16643M
                                                 16643  16676M 16676  16688M 16688  17921M 17923M 17924  18280M 18289M
                                                 18289  18401  18402  18909M 18909  18911M 18912M 18913  19326M 19327M
                                                 19337M 19480M 19481M 22237M 22238M 22668M 22672M 22674  22889M 22889
                                                 22891M 22903  22932  23081  23104  23311  24488M 24490M 27753M 27765
                                                 27782M 27782  27824  27883  27948  28995M 29004M 29004  29024  29041M
                                                 29041  29065M 29116  30167M
 RAR          14 0000000E FFFFFFFF A   #    1184  5498M  5553M  5590M  5616B  5745M  5759M  5839M  5875B  5995M  6031B
                                                  6149M  6185B  6341M  6382B  6517M  6524M  6574M  6670M  6967M  7023M
                                                  7083M  7138M  7182M  7240M  7253M  7287M  7350M  7382M  7399M  7422B
                                                  7646M  7702M  7799M  7941M  7979M  8075M  8111B  8245M  8389M  8452M
                                                  8485M  8523M  8569M  8620M  8684M  8902M  8943M  8990M  9049M  9142M
                                                  9200M  9255M  9286M  9342M  9408M  9441B  9639M  9697M  9727M  9787M
                                                  9819B  9964B 10158M 10181B 10300M 10359M 10472M 10511M 10557M 10649M
                                                 10737M 10809B 11119M 11228B 11547M 11647B 11871B 12017M 12072M 12120M
                                                 12232M 12280M 12325M 12382M 12432M 12554M 12581M 12585M 12589M 12657M
                                                 12683M 12705B 12802M 12907M 12913M 12917M 12936M 12954B 13129M 13214M
                                                 13229M 13282M 13292M 13427M 13452M 13469B 13692M 13753M 13813M 13880M
                                                 13887M 13947M 13991M 14014M 14125M 14154M 14206M 14234B 14361M 14388B
                                                 14514M 14643M 14679M 14695M 14711M 14727M 14787M 14828M 14869M 14934M
                                                 14961B 15047M 15069B 15243B 15362M 15418M 15504M 15519M 15573M 15601B
                                                 15759M 15844M 15870B 16027M 16059M 16086M 16112B 16387M 16466M 16496M
                                                 16611M 16659M 16700M 16801M 16845M 16887M 16929B 17203M 17363M 17499M
                                                 17645M 17794M 18153M 18214M 18279M 18347M 18400M 18463M 18481M 18535M
                                                 18587M 18628M 18671B 18827M 18874M 18917M 18981M 19025M 19074M 19082M
                                                 19201M 19226M 19301M 19320M 19341M 19505M 19568M 19623M 19630M 19658M
                                                 19680B 19945M 20006M 20013M 20067M 20109M 20131B 20435M 20562M 20692M
                                                 20822M 20883M 20932M 20999M 21059M 21076M 21127M 21171M 21232M 21265B
                                                 21379M 21457M 21513M 21727M 21788M 21795M 21849M 21916M 22031M 22066M
                                                 22141M 22246M 22273M 22321M 22377M 22384M 22409M 22436B 22764M 22868M
                                                 23174M 23265M 23402M 23535M 23596M 23656M 23723M 23771M 23824M 23834M
                                                 23883M 23933M 23977M 24014M 24057B 24155M 24270M 24374M 24444M 24494M
1TERMINAL (TERM00) (09:44) (22MAR04) Ordinary Symbol and Literal Cross Reference                                            Page  239
                                                 24544M 24600M 24607M 24635M 24657B 24945M 25165M 25226M 25290M 25467M
                                                 25539M 25634M 25659M 25724M 25772M 25809M 25852B 25951M 26033M 26111M
                                                 26121M 26128M 26180M 26232M 26239M 26267M 26289B 26522M 26671M 26732M
                                                 26778M 26831M 26841M 26890M 26934M 26971M 27014B 27113M 27228M 27268M
                                                 27278M 27285M 27389M 27442M 27449M 27477M 27499B 27732M 28007M 28068M
                                                 28114M 28167M 28177M 28226M 28270M 28307M 28350B 28449M 28564M 28658M
                                                 28711M 28718M 28746M 28768B 29169M 29230M 29280M 29287M 29341M 29451M
                                                 29573M 30031M 30092M 30099M 30153M 30247M 30661M 30676M 30715B 30839M
                                                 30883M 31136M 31205M 31303M 31441M 31494M 31501M 31529M 31551B 31754M
                                                 31815M 31822M 31876M 31908B 32045M 32067B 32199M 32241B 32359M 32412B
                                                 32559M 32592B 32690M 32815B
 RB            3 00000003 FFFFFFFF A   #    1040  6757M  6759   6834M  6836   7024M  7025   9581M  9597  10999M 11044M
                                                 11046M 11047  11167M 11168  11433M 11464M 11465  11594M 11596M 11597
                                                 11753M 11768M 11768  11822  11824  11830M 12121M 12136  12156  12281M
                                                 12296  12342  12467M 12468M 12468  12506U 13133M 13143U 15422M 15432U
                                                 16558M 16595M 16595  16604  16628M 16628  16634M 16634  16652  16693
                                                 16762M 16787M 16787  16794  16831M 16831  16837M 16837  16838  16875M
                                                 16875  16880  18910M 18913  19328M 19329M 19333  19335  22215M 22219
                                                 22221  22231M 22231  22669M 22671M 22673M 22674M 22686  22890M 22923
                                                 22947  22975  23018  23047  24489M 25294M 25294  25349M 25371M 25393M
                                                 25406M 25406  25544  27812M 27812  27830M 27842  27859M 27859  27890M
                                                 27949  29630M 29640U 29686M 29696U 29742M 29752U 29874M 29875  29899
                                                 32660M
 RCVLOOP       2 00000754 00000001     H    8219  8390B  8453B  9143B
 RDEDIT        4 000024C6 00000001     I   20235 20148  20246U
 RDEDITX       4 000026EC 00000001     I   21294 21305U 22456
 RDEDITX2      2 000026E0 00000001     H   21289 21288
 RDEDIT2       2 000024BA 00000001     H   20230 20229
 RDEDONE       2 000026D6 00000001     H   21246 20447B 20574B 20704B 21240B
 RDESPEC       4 000026D2 00000001     I   21242 20360B 20609B 20629B
 RDEXDONE      2 00002940 00000001     H   22340 21472B 22046B
 RDTDONE       2 00002092 00000001     H   18642 18636B
 RDTERM        4 00001D1C 00000001     I   16981 16992U 20149
 RDTERMX       4 000020A8 00000001     I   18702 18713U 20163
 RDTERMX2      2 0000209C 00000001     H   18697 18696
 RDTERM2       2 00001D10 00000001     H   16976 16975
 RDTEXT        4 000029DE 00000001     I   22517 20147  22528U
 RDTEXTX       4 00002D4A 00000001     I   24086 24097U 24684
 RDTEXTX2      2 00002D3E 00000001     H   24081 24080
 RDTEXT2       2 000029D2 00000001     H   22512 22511
 RDTSPEC       4 0000208E 00000001     I   18638 17106B 17127B 17240B 17254B 17294B 17397B 17435B 17675B 17694B 17716B
 RDTXDONE      2 000022C2 00000001     H   19524 19321B 19362B 19387B 19412B 19437B 19514B
 RDXDONE       2 00002D34 00000001     H   24028 22776B 22880B 23186B 23277B 23414B 24022B
 RDXSPEC       4 00002D30 00000001     I   24024 22642B 22662B 22689B 22799B 22906B 22926B 22996B 23314B 23339B
 REDTFATT     64 00000032 FFFFFF97         4497 21634M
 REDTFCME    128 00000032 FFFFFF97         4496 21666M
 REDTFL        1 00000032 FFFFFF97     X    4494  4496   4497
 REDTRSEN      1 00000004 FFFFFF97 A   U    4463 21602
 REDTTXTL      2 00000032 FFFFFF97     H    4610 22215
 REETBUF2      2 00000F9E 00000001     H   11274 11273
 REOLEN        2 00000004 FFFFFF8C     H   20214 20717M 21081
 REOLOC        4 00000000 FFFFFF8C     A   20213 20716M 21080
 RESUMAS       1 00000000 00000010     T   10855 10855
 RESUMTS       1 00000000 0000001A     T   16153 16153
 REWA          6 00000000 FFFFFF8C     J   20221 20269U 20319M 20319
 RJ            4 00000004 FFFFFFFF A   #    1052  6732M  6739M  6742   6809M  6816M  6819   6872M  6879M  6882   7826M
                                                  7836U  7859U  7968   9640M  9650U  9666  10961M 10971U 10989M 10989
                                                 11000M 11031M 11031  11156M 11206  11425M 11432  11434M 11749M 11750M
                                                 11751M 11751  11831M 11841M 11842M 11843  12805M 12806M 12806  12937
1TERMINAL (TERM00) (09:44) (22MAR04) Ordinary Symbol and Literal Cross Reference                                            Page  240
                                                 13293M 13303U 17093M 17221  17264M 17291M 17291  17441M 17442  17547M
                                                 17547  17736M 17737  18218M 18401M 18536M 19227M 19337M 20347M 20453
                                                 20486M 20487M 20487  20635M 20716  21080M 22067M 22238M 22629M 22668
                                                 22782  22787M 22796M 22796  23068M 23069  23110M 23201M 23284M 23345M
                                                 23724M 24369M 24490M 24822M 25328  25329M 25663M 26417M 27627M 29377M
                                                 29503M 32653M
 RK            5 00000005 FFFFFFFF A   #    1064  7800M  7810U  9201M  9214U  9303  10961M 11425M 11433  12018M 12099
                                                 12259  12679  13373M 13383U 13565M 13575U 14314M 14324U 14546M 14556U
                                                 15189M 15199U 17094M 17103M 17103  17124  17222  18219M 18228M 18228
                                                 18402M 18415M 18415  18537M 18546M 18546  19228M 19333  19335M 19336
                                                 20348M 20357M 20357  20456  20468M 20473  20580M 20589M 20589  20606M
                                                 20606  20626  20717  20941M 20941  21063M 21064  21065M 21066  21081M
                                                 22068M 22219  22221M 22222  22630M 22639M 22639  22659  22669  22783
                                                 23285M 23294M 23294  23336  23420M 23421  23725M 24370M 24484  24486M
                                                 24487  24489  24823M 24832M 24832  24853  24876M 24876  25239M 25239
                                                 25331M 25491M 25491  25544M 25635M 25647  25648M 25649  25664M 25673M
                                                 25673  26418M 26427M 26427  26447  26615  27628M 27637M 27637  27657
                                                 27951  32654M
 RM            8 00000008 FFFFFFFF A   #    1100  5435M  5445U  5669M  5679U  5685M  5702M  5702   5720U  6476M  6486U
                                                  6492M  6510U  7509M  7519U  8198M  8208U  9494M  9504U  9510M  9528U
                                                  9534M  9552U  9906M  9916U 10230M 10240U 10920M 10930U 10936M 10954U
                                                 11311M 11321U 11327M 11345U 13610M 13620U 14437M 14447U 15010M 15020U
                                                 15147M 15157U 17834M 17844U 18982M 18992U 19850M 19860U 20721M 20731U
                                                 21380M 21390U 21526M 21536U 23426M 23436U 24156M 24166U 24970M 24980U
                                                 25952M 25962U 26543M 26553U 27114M 27124U 27898M 27908U 28450M 28460U
                                                 29071M 29081U 29921M 30840M 30850U 31677M 31687U
 RN            9 00000009 FFFFFFFF A   #    1112  6575M  6576   6586U  7471M  7481U  7487M  7505U  8160M  8170U  8176M
                                                  8194U  9868M  9878U  9884M  9902U 10011M 10021U 10027M 10045U 10051M
                                                 10069U 10244M 10254U 10260M 10278U
 RS            1 00000001 FFFFFFFF A   #    1016  6601M  6611U  7526M  7529   7530   8324M  8336   8395M  8396M  8808M
                                                  8820   8842M  8843M  9084M  9096   9279M  9280M  9281   9315M  9316M
                                                  9317M 10594M 10595  10604M 10604  11203M 11204M 11205  11406M 11407M
                                                 11419  11457M 11465M 11587M 11594  11597M 11777M 11811  11815M 11816M
                                                 11817M 11818M 11822  11824M 11825  11829  11830  11840M 11841  11847M
                                                 11848M 11849  12376M 12377M 12378  12433M 12443U 12480  12481  12510
                                                 12511  13582M 13583M 13584  13640M 13641  15767M 15776M 15776  15813M
                                                 15813  16050M 16051M 16052  16558M 16567M 16567  16573M 16573  16604
                                                 16652  16693  16762M 16776M 16776  16793M 16793  16794  16820M 16820
                                                 16838  16862M 16862  16874M 16874  16880  17226M 17237M 17237  17251
                                                 17260  17382M 17394  17403  17415M 17415  17432  17663M 17672M 17672
                                                 17681  17682M 17691M 17691  17700M 17701  17713  17730M 17730  17887M
                                                 17914M 17914  17920  17925M 17926  17966M 17971  17972M 17973  18926M
                                                 18936U 19528M 19538U 21861M 21871U 22191M 22191  22209M 22214  22281M
                                                 22291U 22981M 22993  23002  23478M 23479M 23480M 23481  24349M 24351
                                                 24360M 24360  24495M 24496  24504M 24514U 25328M 26115M 26116M 26117
                                                 26140M 26150U 26616M 26617  27249M 27250  27259M 27259  27272M 27273M
                                                 27274  27349M 27359U 27791M 27800M 27800  27952M 27953  28589M 28591
                                                 28603  28609M 28610  28618M 28628U 28913M 28922M 28922  28942  28951
                                                 28952M 28953B 29117M 29118  29591M 29601U 30265M 30275U 30904M 30914M
                                                 30914  30934  30943M 30944B 31099M 31109U 31169M 31179U 31387M 31389
                                                 31401M 31411U 32040M 32041  32568M 32570  32684M 32685
 RTCAN         1 00000000 0000001F     T   20173 20173
 RTFLGS        1 0000000C FFFFFF8D     X   16960 17381M 18020
 RTNCCHGB      1 0000000C FFFFFF97 A   U    4622 27312
 RTNCERR       1 00000010 FFFFFF97 A   U    4623 27335
 RTNCFULL      1 0000000C FFFFFF97 A   U    4651 28808
 RTNCLKPP      1 00000064 FFFFFF97 A   U    4605 24316
 RTOLEN        2 00000008 FFFFFF8D     H   16958 17403M 17566M 17566  17701M 17887  17926M 18219  18537
 RTOLOC        4 00000000 FFFFFF8D     A   16956 17442M 17737M 17921  17924M 18218  18536
1TERMINAL (TERM00) (09:44) (22MAR04) Ordinary Symbol and Literal Cross Reference                                            Page  241
 RTSET         1 00000000 0000001E     T   20170 20170
 RTTO          4 0000230E 00000001     I   19710 19721U 20166
 RTTO2         2 00002302 00000001     H   19705 19704
 RTWA         13 00000000 FFFFFF8D     J   16967 17015U 17065M 17065
 RTWLEN        2 0000000A FFFFFF8D     H   16959 17559M 17559  17681M 17700  17959M 17959  18280
 RTXDONE       2 00002EAA 00000001     H   24563 24292B
 RTXTFNLP      1 00000080 FFFFFF97 A   U    4465 23476
 RTXTINT       1 00000020 FFFFFF97 A   U    4523 23057
 RTXTNOT       1 00000080 FFFFFF97 A   U    4521 22957
 RTXTNUM       1 00000040 FFFFFF97 A   U    4522 23028
 RTXTNUML      2 00000034 FFFFFF97     H    4643 24495
 RTXTRLEN      2 00000036 FFFFFF97     H    4508 23477M
 RTXTTXTL      2 00000032 FFFFFF97     H    4642 24484  24486
 RVR           0 00000000 FFFFFFFF A   #    1004  5488M  5499   5554   5591   6329M  6564M  6575   6660M  6671   6946M
                                                  7024   7073M  7084   7139   7183   7224M  7241   7655M  7655   7783M
                                                  7800   7918M  7988M  7988   8055M  8246   8486   8536M  8536   8903
                                                  8957M  8957   9190M  9201   9287   9767M 10159  10301  10345M 10444M
                                                 10515  10680M 10741M 10741  11128M 11128  11156  11206M 11556M 11556
                                                 12018  12063M 12121  12281  12422M 12433  12648M 12937M 13120M 13191M
                                                 13273M 13293  13683M 13730M 13787M 13804M 13840M 13857M 13921M 13938M
                                                 13982M 14015  14207M 14504M 14515  14680  14696  14712  14728  14771M
                                                 14788  14818M 14829  14859M 14870  14913M 15409M 15481M 15564M 16896M
                                                 17184M 17212M 17212  17333M 17350M 17372M 17372  17486M 17508M 17508
                                                 17615M 17632M 17654M 17654  17781M 17803M 17803  18144M 18191M 18360M
                                                 18377M 18526M 18635M 18635  18638M 18918  18982  19131M 19132  19282M
                                                 19310M 19310  19936M 19983M 20058M 20416M 20444M 20444  20532M 20549M
                                                 20571M 20571  20679M 20701M 20701  20813M 20860M 21019M 21036M 21162M
                                                 21239M 21239  21242M 21380  21718M 21765M 21840M 21917  22122M 22150M
                                                 22150  22745M 22773M 22773  22838M 22855M 22877M 22877  23144M 23161M
                                                 23183M 23183  23235M 23252M 23274M 23274  23389M 23411M 23411  23526M
                                                 23573M 23630M 23647M 23683M 23700M 23907M 23924M 23968M 24021M 24021
                                                 24024M 24156  24425M 24453M 24453  24932M 24954M 24954  25156M 25203M
                                                 25434M 25594M 25611M 25763M 25816M 25816  25819M 25952  26509M 26531M
                                                 26531  26662M 26709M 26925M 26978M 26978  26981M 27114  27719M 27741M
                                                 27741  27998M 28045M 28261M 28314M 28314  28317M 28450  29160M 29207M
                                                 29247M 29332M 29421M 29438M 29460M 29460  29537M 29554M 29582M 29582
                                                 30022M 30069M 30144M 30211M 30228M 30256M 30256  30665M 30665  30680M
                                                 30680  30682M 30840  31145M 31145  31214M 31214  31745M 31792M 31867M
                                                 32208M 32208  32368M 32368  32699M 32699  32719  32725M 32744  32750M
                                                 32774M 32794M 32794
 RX            6 00000006 FFFFFFFF A   #    1076  5771M  5781U  5787M  5804M  5804   5927M  5937U  5943M  5960M  5960
                                                  6081M  6091U  6097M  6114M  6114   6242M  6252U  6258M  6275M  6275
                                                  6671M  6681U  8399M  8400M  8400   8509   8846M  8847M  8847   8929
                                                  9287M  9297U  9318  10076M 10086U 10102U 10148  10363M 10373U 10396U
                                                 10500  11732M 11742U 11924M 11934U 11940M 11958U 12758M 12768U 12774M
                                                 12792U 13003M 13013U 13019M 13037U 13524M 13534U 13540M 13558U 14300M
                                                 14310U 14515M 14525U 14537  15175M 15185U 15288M 15298U 15304M 15322U
                                                 15689M 15699U 15705M 15723U 15957M 15967U 15973M 15991U 16299M 16309U
                                                 16315M 16371U 17021M 17031U 17037M 17055U 18724M 18734U 18740M 18758U
                                                 18817  19745M 19755U 19761M 19817U 20275M 20285U 20291M 20309U 21316M
                                                 21326U 21332M 21350U 22557M 22567U 22573M 22591U 24108M 24118U 24124M
                                                 24142U 24758M 24768U 24774M 24792U 25904M 25914U 25920M 25938U 26353M
                                                 26363U 26369M 26387U 27066M 27076U 27082M 27100U 27563M 27573U 27579M
                                                 27597U 28402M 28412U 28418M 28436U 28872M 28882U 28888M 28906U 30767M
                                                 30777U 30783M 30801U 31615M 31625U 31631M 31649U 31970M 31980U 31986M
                                                 32004U 32116M 32126U 32132M 32150U 32293M 32303U 32309M 32327U 32496M
                                                 32506U 32512M 32530U
 RXCLEN        2 00000004 FFFFFF8B     H   22494 23087M 23192M 23283M 23420  23421M 23478  23725
 RXCLOC        4 00000000 FFFFFF8B     A   22493 23069M 23724
1TERMINAL (TERM00) (09:44) (22MAR04) Ordinary Symbol and Literal Cross Reference                                            Page  242
 RXCODE        1 00000006 FFFFFF8B     X   22495 22932M 22959M 23030M 23059M 23630  23683  23907
 RXLRECL       1 00000007 FFFFFF8B     X   22496 23002M 23031M 23060M
 RXWA          8 00000000 FFFFFF8B     J   22503 22551U 22601M 22601
 RY            7 00000007 FFFFFFFF A   #    1088  5499M  5509U  5555   7534M  7544U  7568U  8246M  8270U  8519   9228
                                                  9566M  9576U 10301M 10311U 10653M 10653  10680  11965M 11975U 13588M
                                                 13598U 14015M 14025U 14286M 14296U 14451M 14461U 15024M 15034U 15161M
                                                 15171U 17855M 17865U 19871M 19881U 20742M 20752U 21547M 21557U 21917M
                                                 21927U 23447M 23457U 24991M 25001U 26564M 26574U 27919M 27929U 29092M
                                                 29102U 29933M 31656M 31666U
 R0            0 00000000 FFFFFFFF A   #     708  1338U  5416   5646   5905   6059   6210   6457   7039M  7039   7040M
                                                  7452   8141   9472   9849   9992  10211  10901  11279  11700  11902
                                                 12739  12984  13502  14264  14418  14991  15115  15269  15654  15922
                                                 16264  16981  18702  19710  20235  21294  22517  24086  24723  25882
                                                 26318  27044  27528  28380  28837  30745  31580  31938  32097  32271
                                                 32461  32563M 32564M 32565M 32566  32621
 R1            1 00000001 FFFFFFFF A   #     721  5614M  5873M  6029M  6183M  6380M  7420M  8109M  9439M  9817M  9962M
                                                 10179M 10807M 11226M 11645M 11869M 12703M 12952M 13467M 14232M 14386M
                                                 14959M 15067M 15241M 15599M 15868M 16110M 16927M 18669M 19678M 20129M
                                                 21263M 22434M 24055M 24655M 25850M 26287M 27012M 27497M 28348M 28766M
                                                 30713M 31549M 31906M 32065M 32239M 32410M 32590M 32813M
 R14          14 0000000E FFFFFFFF A   #     890  7033M  7038M  7040M
 R15          15 0000000F FFFFFFFF A   #     903  5416   5614M  5646   5857   5858M  5859M  5860M  5861M  5862M  5862
                                                  5873M  5905   6013   6014M  6015M  6016M  6017M  6018M  6018   6029M
                                                  6059   6167   6168M  6169M  6170M  6171M  6172M  6172   6183M  6210
                                                  6359   6360M  6361M  6362M  6363M  6364M  6364   6380M  6457   7420M
                                                  7452   7672   7673M  7674M  7675M  7676M  7677M  7677   7729   7730M
                                                  7731M  7732M  7733M  7734M  7734   8005   8006M  8007M  8008M  8009M
                                                  8010M  8010   8109M  8141   8729   8730M  8731M  8732M  8733M  8734M
                                                  8734   8769   8770M  8771M  8772M  8773M  8774M  8774   9439M  9472
                                                  9817M  9849   9936   9937M  9938M  9939M  9940M  9941M  9941   9962M
                                                  9992  10179M 10211  10767  10768M 10769M 10770M 10771M 10772M 10772
                                                 10807M 10901  11145  11146M 11147M 11148M 11149M 11150M 11150  11226M
                                                 11279  11391  11392M 11393M 11394M 11395M 11396M 11396  11573  11574M
                                                 11575M 11576M 11577M 11578M 11578  11645M 11700  11800  11801M 11802M
                                                 11803M 11804M 11805M 11805  11869M 11902  12173  12174M 12175M 12176M
                                                 12177M 12178M 12178  12359  12360M 12361M 12362M 12363M 12364M 12364
                                                 12703M 12739  12829  12830M 12831M 12832M 12833M 12834M 12834  12952M
                                                 12984  13362  13363M 13364M 13365M 13366M 13367M 13367  13467M 13502
                                                 14232M 14264  14386M 14418  14959M 14991  15067M 15115  15241M 15269
                                                 15599M 15654  15793  15794M 15795M 15796M 15797M 15798M 15798  15868M
                                                 15922  16110M 16264  16351  16352M 16353M 16354M 16355M 16356M 16356
                                                 16927M 16981  18669M 18702  19678M 19710  19797  19798M 19799M 19800M
                                                 19801M 19802M 19802  20129M 20235  21263M 21294  22167  22168M 22169M
                                                 22170M 22171M 22172M 22172  22434M 22517  24055M 24086  24333  24334M
                                                 24335M 24336M 24337M 24338M 24338  24470  24471M 24472M 24473M 24474M
                                                 24475M 24475  24655M 24723  25850M 25882  26287M 26318  27012M 27044
                                                 27497M 27528  28348M 28380  28766M 28837  30713M 30745  30988  30989M
                                                 30990M 30991M 30992M 30993M 30993  31549M 31580  31906M 31938  32065M
                                                 32097  32239M 32271  32385  32386M 32387M 32388M 32389M 32390M 32390
                                                 32410M 32461  32590M 32621  32813M
 SCOMPLEN      1 000000B8 00000001 A   U    3818  7224  12063  12648  14771
 SIB         254 00000000 FFFFFF96     X    5382 13383U 13387M 13575U 14145M 14324U 14859  15199U 18936U 19538U 21871U
                                                 22291U 24514U 26150U 27359U 28628U 29601U 29640U 29696U 29752U 30275U
                                                 31109U 31179U 31411U
 SIBACCT       5 00000070 FFFFFF96     C    4981  5144   5144  14350  14350
 SIBCRI        2 000000F0 FFFFFF96     H    5371  5376   5376
 SIBDO         4 000016C0 00000001     I   14264 13451  14124  14153  14275U
 SIBDO2        2 000016B4 00000001     H   14259 14258
 SIBFL         1 00000040 FFFFFF96     R    4719  4723   4728   4733   4738   4743
1TERMINAL (TERM00) (09:44) (22MAR04) Ordinary Symbol and Literal Cross Reference                                            Page  243
 SIBFLG        1 000000B4 FFFFFF96     R    5259  5263   5268   5273   5278   5283   5288   5293   5298
 SIBFLG2       1 000000B5 FFFFFF96     R    5304  5308   5313   5318
 SIBFL2        1 00000041 FFFFFF96     R    4749  4753   4758   4763   4768
 SIBFL3        1 00000042 FFFFFF96     R    4774  4778   4783   4788
 SIBFL4        1 00000043 FFFFFF96     R    4794  4798   4803   4808
 SIBFL5        1 00000044 FFFFFF96     R    4814  4818   4823   4828
 SIBFUPL     128 000000B4 FFFFFF96         5263 29654  29710  29773  31121M 31190M
 SIBHEI        2 000000D8 FFFFFF96     H    5359 30282
 SIBKAFL       1 0000007B FFFFFF96     R    5115  5119   5124   5129   5134   5139
 SIBKIFL       1 0000007A FFFFFF96     R    5070  5074   5079   5084   5089   5094   5099   5104   5109  14351
 SIBLCLCK      8 00000068 FFFFFF96     X    4979 14352
 SIBNO         2 00000004 FFFFFF96     H    4707 14357
 SIBOFLAG      1 000000D2 FFFFFF96     R    5329  5333   5338   5343   5348   5353
 SIBOPST       4 00000080 FFFFFF96     F    5149  5378   5378
 SIBOPT      126 00000080 FFFFFF96     X    5378 13638  13787  13804  13840  13857  13921  13938
 SIBPORT       8 00000010 FFFFFF96     C    4713  4833   4833
 SIBQFLG       1 000000A8 FFFFFF96     R    5178  5182
 SIBSFLG       1 00000077 FFFFFF96     R    4988  4992   4997   5002   5007   5012   5017
 SIBSTART      4 00000000 FFFFFF96     F    4705  4709   4709   5145   5145   5250   5250   5382   5382
 SIBSTAT       1 0000004B FFFFFF96     R    4925  4929   4934   4939   4944   4949   4954   4959
 SIBTABS      16 000000C2 FFFFFF96     X    5325 29607
 SIBTACF       1 00000078 FFFFFF96     R    5023  5027   5032   5037   5042   5047   5052   5057   5062
 SIBTFLAG      1 000000A6 FFFFFF96     R    5156  5160   5165   5170
 SIBTID        8 00000096 FFFFFF96     C    5152 15206
 SIBTINFO      2 00000049 FFFFFF96     X    4921 30280
 SIBTVIRT      5 00000048 FFFFFF96         4887 18950  21885
 SIBTYPE       1 00000048 FFFFFF96     R    4838  4847   4857   4867   4877   4887   4897   4907   4917
 SIBUC         2 00000080 FFFFFF96     H    5150 13583  13584M 19555  22308  24531  26167  27376  28645  31428
 SIBUFLG       1 000000AA FFFFFF96     R    5193  5197   5202   5207   5212   5217   5222   5227   5232
 SIBUFLG2      1 000000AB FFFFFF96     R    5238  5242   5247
 SIBVPGM       8 00000058 FFFFFF96     C    4971  4977   4977
 SIBWID        2 000000D4 FFFFFF96     H    5357 30281
 SIB1ST        4 00000048 FFFFFF96     F    4835  5380   5380
 SPR          13 0000000D FFFFFFFF A   #    1172  5416   5431   5432   5434M  5468U  5535U  5571U  5646   5661   5662
                                                  5664M  5735U  5905   5920   5921   5923M  6059   6074   6075   6077M
                                                  6210   6225   6226   6241M  6309U  6457   6472   6473   6475M  6544U
                                                  6926U  7000U  7120U  7164U  7204U  7452   7467   7468   7470M  7606U
                                                  7763U  7894U  7957U  8035U  8141   8156   8157   8159M  8363U  8473U
                                                  8499U  8556U  8594U  8890U  8919U  8977U  9023U  9170U  9245U  9268U
                                                  9332U  9382U  9472   9487   9488   9490M  9629U  9710U  9747U  9849
                                                  9864   9865   9867M  9992  10007  10008  10010M 10136U 10211  10226
                                                 10227  10229M 10325U 10431U 10488U 10529U 10623U 10901  10916  10917
                                                 10919M 11101U 11279  11294  11295  11310M 11519U 11700  11715  11716
                                                 11731M 11902  11917  11918  11920M 11999U 12032U 12088U 12222U 12248U
                                                 12315U 12402U 12536U 12571U 12617U 12670U 12739  12754  12755  12757M
                                                 12863U 12984  12999  13000  13002M 13090U 13168U 13243U 13401U 13502
                                                 13517  13518  13520M 13652U 13706U 13767U 13827U 13901U 14180U 14264
                                                 14279  14280  14282M 14340U 14418  14433  14434  14436M 14484U 14617U
                                                 14667U 14751U 14893U 14991  15006  15007  15009M 15115  15130  15131
                                                 15146M 15269  15284  15285  15287M 15378U 15457U 15533U 15654  15669
                                                 15670  15685M 15746U 15831U 15922  15937  15938  15953M 16014U 16264
                                                 16279  16280  16295M 16424U 16981  16996  16997  17017M 17144U 18113U
                                                 18167U 18247U 18308U 18495U 18607U 18702  18717  18718  18720M 18793U
                                                 18843U 18890U 19054U 19242U 19597U 19646U 19710  19725  19726  19741M
                                                 19905U 19959U 20027U 20097U 20235  20250  20251  20271M 20376U 20782U
                                                 20836U 20900U 20960U 21095U 21211U 21294  21309  21310  21312M 21487U
                                                 21687U 21741U 21809U 22082U 22351U 22397U 22517  22532  22533  22553M
                                                 22705U 23495U 23549U 23610U 23670U 23739U 23785U 23851U 23993U 24086
                                                 24101  24102  24104M 24385U 24574U 24623U 24723  24738  24739  24754M
1TERMINAL (TERM00) (09:44) (22MAR04) Ordinary Symbol and Literal Cross Reference                                            Page  244
                                                 24892U 25125U 25179U 25258U 25425U 25692U 25788U 25882  25897  25898
                                                 25900M 26206U 26255U 26318  26333  26334  26349M 26469U 26631U 26685U
                                                 26746U 26792U 26858U 26950U 27044  27059  27060  27062M 27416U 27465U
                                                 27528  27543  27544  27559M 27679U 27967U 28021U 28082U 28128U 28194U
                                                 28286U 28380  28395  28396  28398M 28685U 28734U 28837  28852  28853
                                                 28868M 29129U 29183U 29301U 29391U 29991U 30045U 30113U 30181U 30640U
                                                 30745  30760  30761  30763M 31468U 31517U 31580  31595  31596  31611M
                                                 31714U 31768U 31836U 31938  31953  31954  31969M 32020U 32097  32112
                                                 32113  32115M 32184U 32271  32286  32287  32289M 32343U 32461  32476
                                                 32477  32492M 32546U 32621  32636  32637  32652M 32674U
 SUSPEND       1 00000000 00000014     T   16137 16137
 SYSRDEL       1 00000000 0000000E     T   10845 10845  16152
 SYSRDO        1 00000000 0000000D     T   10844 10844
 SYSRNEW       1 00000000 0000000C     T   10842 10842
 TBUF         16 00000000 FFFFFF9D     J    3934  6406   8270U  8352   8422   8580   8836   8869   9001   9112   9368
                                                 10311U 10971U 11201M 11201  11202M 11359U 11374  11402M 13303U 14025U
                                                 14087  14556U 14597  16157  18992U 19173  21390U 21430  21927U 21970
                                                 24166U 24209  25962U 26005  27124U 27167  28460U 28503  30850U 31032
                                                 31266
 TBUFDATA      8 00000010 FFFFFF9D     D    3927  8284U 10345  10444  13313U 14034U 14566U 19001U 21399U 21936U 24175U
                                                 25971U 27133U 28469U 30859U
 TBUFLEN       2 0000000A FFFFFF9D     H    3926 10595M
 TBUFMAXL      2 00000008 FFFFFF9D     H    3925 10355  10454  10553  11205M
 TBUFNEXT      4 00000004 FFFFFF9D     A    3924 10998  11432M
 TCREATE       1 00000000 0000001B     T   20165 20165  22458  24686  28789  32843
 TERMINAL      1 00000000 00000001     J    1220  1217   1218   1222   1328   1410   1468   1502   1529   1558   1581
                                                  1604   1633   1652   1696   1721   1744   1767   1806   1829   1852
                                                  1875   1898   1920   1946   1969   1992   2015   2041   2076   2095
                                                  2140   2160   2180   2207   2226   2258   2293   2334   2359   2384
                                                  2409   2434   2459   2501   2522   2543   2573   2597   2660   2679
                                                  2709   2742   2769   2789   2809   2831   2852   2871   2891   2939
                                                  2962   3008   3039   3062   3088   3114   3171   3284   3307   3333
                                                  3434   3456   3484   3510   3539   3603   3653   3681   3704   3727
                                                  3768   3793   3816   3906   3935   4013   4044   4074   4211   4240
                                                  4678   5390
 TERMINAS      4 000000BA 00000001     I    5646  5641   5657U
 TERMINIT      4 00000022 00000001     I    5416  5411   5427U
 TERMINUI      4 0000015A 00000001     I    5905  5900   5916U
 TERMLGOF      4 000001D4 00000001     I    6059  6054   6070U
 TERM00        1 00000000 00000001     R    1229  1227
 TERUINF       4 0000024E 00000001     I    6210  6205   6221U
 TEXIT         1 00000000 00000020     T   20186 20186  22467  24694  28801  32851
 TIOUT        12 0000001C FFFFFF95     C    6436  6718   6795
 TIPARMS      40 00000000 FFFFFF95     J    6443  6660   6681U  6699M  6699   6946
 TITYPE        4 00000000 FFFFFF95     X    6432  6691U
 TMILBRK       1 00000050 FFFFFF97 A   U    4349 19893  31702
 TMILEOS       1 00000040 FFFFFF97 A   U    4335 15352
 TMILINIT      1 00000021 FFFFFF97 A   U    4329  7821
 TMILREAD      1 00000042 FFFFFF97 A   U    4339 17880
 TMILWRIT      1 00000041 FFFFFF97 A   U    4338 20767  25016  29114
 TMILXCTL      1 00000047 FFFFFF97 A   U    4344 21573  23472  26589  27944  29949
 TRCD2         4 00004224 00000001     A   32825 32824
 UPWT          4 00001396 00000001     I   12801 12918B
 VALBUF        4 000041A0 00000001     I   32621 20154  22448  24671  28780  32632U 32838
 VALBUF2       2 00004194 00000001     H   32616 32615
 VMFREE        1 00000000 00000009     T   10832 10832  16125
 VMGET         1 00000000 00000002     T    6393  6393  10829  16123
 WAR          12 0000000C FFFFFFFF A   #    1160  5431   5432M  5433   5434   5614   5615   5661   5662M  5663   5664
                                                  5873   5874   5920   5921M  5922   5923   6029   6030   6074   6075M
1TERMINAL (TERM00) (09:44) (22MAR04) Ordinary Symbol and Literal Cross Reference                                            Page  245
                                                  6076   6077   6183   6184   6225   6226M  6227   6237U  6241   6380
                                                  6381   6472   6473M  6474   6475   7420   7421   7467   7468M  7469
                                                  7470   8109   8110   8156   8157M  8158   8159   9439   9440   9487
                                                  9488M  9489   9490   9817   9818   9864   9865M  9866   9867   9962
                                                  9963  10007  10008M 10009  10010  10179  10180  10226  10227M 10228
                                                 10229  10807  10808  10916  10917M 10918  10919  11226  11227  11294
                                                 11295M 11296  11306U 11310  11645  11646  11715  11716M 11717  11727U
                                                 11731  11869  11870  11917  11918M 11919  11920  12703  12704  12754
                                                 12755M 12756  12757  12952  12953  12999  13000M 13001  13002  13467
                                                 13468  13517  13518M 13519  13520  14232  14233  14279  14280M 14281
                                                 14282  14386  14387  14433  14434M 14435  14436  14959  14960  15006
                                                 15007M 15008  15009  15067  15068  15130  15131M 15132  15142U 15146
                                                 15241  15242  15284  15285M 15286  15287  15599  15600  15669  15670M
                                                 15671  15681U 15685  15868  15869  15937  15938M 15939  15949U 15953
                                                 16110  16111  16279  16280M 16281  16291U 16295  16927  16928  16996
                                                 16997M 16998  17008U 17017  18669  18670  18717  18718M 18719  18720
                                                 19678  19679  19725  19726M 19727  19737U 19741  20129  20130  20250
                                                 20251M 20252  20262U 20271  21263  21264  21309  21310M 21311  21312
                                                 22434  22435  22532  22533M 22534  22544U 22553  24055  24056  24101
                                                 24102M 24103  24104  24655  24656  24738  24739M 24740  24750U 24754
                                                 25850  25851  25897  25898M 25899  25900  26287  26288  26333  26334M
                                                 26335  26345U 26349  27012  27013  27059  27060M 27061  27062  27497
                                                 27498  27543  27544M 27545  27555U 27559  28348  28349  28395  28396M
                                                 28397  28398  28766  28767  28852  28853M 28854  28864U 28868  30713
                                                 30714  30760  30761M 30762  30763  31549  31550  31595  31596M 31597
                                                 31607U 31611  31906  31907  31953  31954M 31955  31965U 31969  32065
                                                 32066  32112  32113M 32114  32115  32239  32240  32286  32287M 32288
                                                 32289  32410  32411  32476  32477M 32478  32488U 32492  32590  32591
                                                 32636  32637M 32638  32648U 32652  32813  32814
 WEDTATTN      2 00000036 FFFFFF97     H    4629 27249
 WEDTNTYP      1 00000004 FFFFFF97 A   U    4468 26610
 WEDTTXTL      2 00000032 FFFFFF97     H    4502 26615M
 WREDIT        4 00003282 00000001     I   26318 20151  26329U
 WREDITX       4 000033F4 00000001     I   27044 27055U 28803
 WREDITX2      2 000033E8 00000001     H   27039 27038
 WREDIT2       2 00003276 00000001     H   26313 26312
 WREDONE       2 000033DE 00000001     H   26985 26979B
 WRESPEC       4 000033DA 00000001     I   26981 26430B 26450B
 WREXDONE      2 000034C8 00000001     H   27408 27237B
 WRTDONE       2 00003178 00000001     H   25823 24957B 25817B
 WRTERM        4 00002F5E 00000001     I   24723 20152  24734U
 WRTERMX       4 0000318E 00000001     I   25882 25893U 28787
 WRTERMX2      2 00003182 00000001     H   25877 25876
 WRTERM2       2 00002F52 00000001     H   24718 24717
 WRTEXT        4 00003500 00000001     I   27528 20150  27539U
 WRTEXTX       4 000036B6 00000001     I   28380 28391U 28807
 WRTEXTX2      2 000036AA 00000001     H   28375 28374
 WRTEXT2       2 000034F4 00000001     H   27523 27522
 WRTSPEC       4 00003174 00000001     I   25819 24835B 24856B
 WRTXDONE      2 00003236 00000001     H   26139 26065B 26087B 26130B
 WRXDONE       2 000036A0 00000001     H   28321 28315B
 WRXSPEC       4 0000369C 00000001     I   28317 27640B 27660B 27768B 27785B 27803B 27845B 27862B
 WTXDONE       2 00003750 00000001     H   28677 28572B
 WTXTLREC      1 00000037 FFFFFF97     X    4549 27949M
 WTXTNUML      2 00000034 FFFFFF97     H    4538 27950M
 WTXTOPT       1 00000036 FFFFFF97     X    4539 27948M
 WTXTRCNT      2 00000036 FFFFFF97     H    4659 28609
 WTXTTXTL      2 00000032 FFFFFF97     H    4537 27951M
 WYLCNTL       2 00003B22 00000001     H   29920 28968B 28969B 28970B 28971B 28982B 29900B
1TERMINAL (TERM00) (09:44) (22MAR04) Ordinary Symbol and Literal Cross Reference                                            Page  246
 XITDO         1 00000000 00000022     T   32852 32852
 XITMASK       1 00000000 0000001D     T   20168 20168
 XITMRTC      32 00000000 FFFFFFAE         3219 18814M 18864M
 XITMSKD       4 00000000 FFFFFFAE     J    3283 18807U 18857U
 XITNEW        1 00000000 00000019     T   16149 16149
 XITSAREA     28 00000000 FFFFFFAC     J    3332 19755U
 XITSRPRM      4 00000000 FFFFFFAC     A    3322 19761
 XITTATTN      1 00000008 00000001 A   U    3186 32031
 XITTIOCN      1 00000009 00000001 A   U    3187 32354
 XITTLGO       1 00000006 00000001 A   U    3184 32195
 =A(-12)       4 00002484 00000001     A   20177 19361
 =A(-12)       4 000037B8 00000001     A   28793 26086
 =A(-4)        4 00002480 00000001     A   20176 19316  19436
 =A(-4)        4 000037B4 00000001     A   28792 26064  27318
 =A(-4)        4 0000427C 00000001     A   32847 31056
 =A(-8)        4 00002488 00000001     A   20178 19386
 =A(-8)        4 000037E4 00000001     A   28804 27341
 =A(#SCCNOTE)
               4 00000E4C 00000001     A   10856 10108
 =A(#SCCOPEN)
               4 00000DF4 00000001     A   10836  7574
 =A(#SCCRECV)
               4 00000E54 00000001     A   10858 10402
 =A(#SCCSEND)
               4 00000E00 00000001     A   10839  7865
 =A(#SCCSEND)
               4 00001AB0 00000001     A   16127 11986
 =A(#SCESBS)
               4 00000E60 00000001     A   10861 10588
 =A(#SCESFQ)
               4 00001AC4 00000001     A   16132 12156  12342
 =A(#SCESNP)
               4 00000E64 00000001     A   10862 10702
 =A(#SCESOK)
               4 00000E5C 00000001     A   10860 10574
 =A(#SCESOK)
               4 00001AC0 00000001     A   16131 12136  12296
 =A(ADDSEG)
               4 00000E04 00000001     A   10840  7940  10471
 =A(ADDSEG)
               4 00001AF0 00000001     A   16143 13213  13752  13879  15503
 =A(ADDSEG)
               4 0000243C 00000001     A   20159 18213  18346  18399  18462  20005
 =A(ADDSEG)
               4 00002988 00000001     A   22452 20882  20998  21058  21787
 =A(ADDSEG)
               4 00002F08 00000001     A   24680 23595  23722  23823
 =A(ADDSEG)
               4 0000378C 00000001     A   28782 25225  25466  25538  25633  26731  26830  28067  28166
 =A(ADDSEG)
               4 0000424C 00000001     A   32835 29229  29279  30091  31814
 =A(CNTRL)
               4 00002404 00000001     A   20145 16465
 =A(CURSIB)
               4 00001B0C 00000001     A   16150 15046
 =A(CURSIB)
               4 0000249C 00000001     A   20183 19567
 =A(CURSIB)
               4 000029BC 00000001     A   22465 22320
1TERMINAL (TERM00) (09:44) (22MAR04) Ordinary Symbol and Literal Cross Reference                                            Page  247
 =A(CURSIB)
               4 00002F34 00000001     A   24691 24543
 =A(CURSIB)
               4 000037CC 00000001     A   28798 26179  27388  28657
 =A(CURSIB)
               4 00004284 00000001     A   32849 31440
 =A(FREETBUF)
               4 00000E08 00000001     A   10841  8388   8451   8619   8683   9048   9141   9407  10648  10736
 =A(FREETBUF)
               4 00001AFC 00000001     A   16146 13426  14205  14642
 =A(FREETBUF)
               4 000024A0 00000001     A   20184 19622
 =A(FREETBUF)
               4 000029AC 00000001     A   22461 21512  22376
 =A(FREETBUF)
               4 00002F38 00000001     A   24692 24599
 =A(FREETBUF)
               4 000037D0 00000001     A   28799 26231  27441  28710
 =A(FREETBUF)
               4 00004288 00000001     A   32850 31493
 =A(GETCHGS)
               4 00001B10 00000001     A   16151 15361
 =A(GETCHGS)
               4 000023FC 00000001     A   20143 16386
 =A(HALT)      4 00002408 00000001     A   20146 16495
 =A(MAXCNTL)
               4 00004240 00000001     A   32832 28942  30934
 =A(MILASYN)
               4 00000E1C 00000001     A   10846  8930
 =A(MILIAS)
               4 00000300 00000001     A    6401  5838
 =A(MILIUSI)
               4 00000304 00000001     A    6402  5994
 =A(MILLGOF)
               4 00000308 00000001     A    6403  6148
 =A(MILRX)
               4 00001AF8 00000001     A   16145 13291  14013
 =A(MILRX)
               4 0000246C 00000001     A   20171 18980
 =A(MILRX)
               4 000029A4 00000001     A   22459 21378  21915
 =A(MILRX)
               4 00002F24 00000001     A   24687 24154
 =A(MILRX)
               4 000037AC 00000001     A   28790 25950  27112  28448
 =A(MILRX)
               4 00004274 00000001     A   32845 30838
 =A(MILSX)
               4 00001AF4 00000001     A   16144 13228  13886  15518
 =A(MILSX)
               4 00002440 00000001     A   20160 18480  20012
 =A(MILSX)
               4 0000298C 00000001     A   22453 21075  21794
 =A(MILSX)
               4 00002F0C 00000001     A   24681 23833
 =A(MILSX)
               4 00003794 00000001     A   28784 25658  26840  28176
 =A(MILSX)
               4 00004250 00000001     A   32836 29286  30098  31821
1TERMINAL (TERM00) (09:44) (22MAR04) Ordinary Symbol and Literal Cross Reference                                            Page  248
 =A(MILSYSR)
               4 00000E10 00000001     A   10843  8510
 =A(MILUINF)
               4 0000030C 00000001     A    6404  6340
 =A(M1ATTN)
               4 00001B1C 00000001     A   16154 16058
 =A(M1ATTN)
               4 00002498 00000001     A   20182 19504
 =A(M1ATTN)
               4 000029B8 00000001     A   22464 22272
 =A(M1ATTN)
               4 000037C4 00000001     A   28796 26127  27284
 =A(M1IODONE)
               4 000024A4 00000001     A   20185 19629
 =A(M1IODONE)
               4 000029C0 00000001     A   22466 22383
 =A(M1IODONE)
               4 00002F3C 00000001     A   24693 24606
 =A(M1IODONE)
               4 000037D4 00000001     A   28800 26238  27448  28717
 =A(M1IODONE)
               4 00004270 00000001     A   32844 30675  31500
 =A(M1LOGOFF)
               4 00001B20 00000001     A   16155 16085
 =A(M1LOGOFF)
               4 0000247C 00000001     A   20175 19200
 =A(M1LOGOFF)
               4 000029A8 00000001     A   22460 21456  22030
 =A(M1LOGOFF)
               4 00002F28 00000001     A   24688 24269
 =A(M1LOGOFF)
               4 000037B0 00000001     A   28791 26032  27227  28563
 =A(M1LOGOFF)
               4 00004278 00000001     A   32846 30882  31302
 =A(NEWSIB)
               4 00004280 00000001     A   32848 31135  31204
 =A(RDEDIT)
               4 00002410 00000001     A   20148 16658
 =A(RDTERM)
               4 00002414 00000001     A   20149 16699
 =A(RDTEXT)
               4 0000240C 00000001     A   20147 16610
 =A(RTNCFULL)
               4 000037F4 00000001     A   28808 28603
 =A(VALBUF)
               4 00002428 00000001     A   20154 17202  17362  17498  17644  17793  19300
 =A(VALBUF)
               4 00002978 00000001     A   22448 20434  20561  20691  22140
 =A(VALBUF)
               4 00002EE4 00000001     A   24671 22763  22867  23173  23264  23401  24443
 =A(VALBUF)
               4 00003784 00000001     A   28780 24944  26521  27731
 =A(VALBUF)
               4 00004258 00000001     A   32838 29450  29572  30246
 =A(WREDIT)
               4 0000241C 00000001     A   20151 16844
 =A(WRTERM)
               4 00002420 00000001     A   20152 16886
 =A(WRTEXT)
1TERMINAL (TERM00) (09:44) (22MAR04) Ordinary Symbol and Literal Cross Reference                                            Page  249
               4 00002418 00000001     A   20150 16800
 =A(X'80000000'+CNTLX)
               4 00004264 00000001     A   32841 30650
 =A(X'80000000'+MILTERM)
               4 000002F0 00000001     A    6397  5582
 =A(X'80000000'+RDEDITX)
               4 00002998 00000001     A   22456 21221
 =A(X'80000000'+RDTERMX)
               4 0000244C 00000001     A   20163 18617
 =A(X'80000000'+RDTEXTX)
               4 00002F18 00000001     A   24684 24003
 =A(X'80000000'+RTTO)
               4 00002458 00000001     A   20166 18816
 =A(X'80000000'+WREDITX)
               4 000037E0 00000001     A   28803 26960
 =A(X'80000000'+WRTERMX)
               4 000037A0 00000001     A   28787 25798
 =A(X'80000000'+WRTEXTX)
               4 000037F0 00000001     A   28807 28296
 =A(1)         4 00002EF4 00000001     A   24675 22947
 =A(10)        4 00002450 00000001     A   20164 18618
 =A(10)        4 0000299C 00000001     A   22457 21222
 =A(10)        4 00002F1C 00000001     A   24685 24004
 =A(10)        4 000037A4 00000001     A   28788 25799  26961  28297
 =A(10)        4 00004268 00000001     A   32842 30651
 =A(100)       4 00002EE8 00000001     A   24672 22891
 =A(1000000)
               4 00002464 00000001     A   20169 18911
 =A(2)         4 00002EF8 00000001     A   24676 22975
 =A(2)         4 000042A0 00000001     A   32856 32744
 =A(251)       4 00002434 00000001     A   20157 17713
 =A(251)       4 00002980 00000001     A   22450 20626
 =A(251)       4 000037DC 00000001     A   28802 26447
 =A(255)       4 00002EFC 00000001     A   24677 22993  23336
 =A(256)       4 0000297C 00000001     A   22449 20456  20468
 =A(256)       4 000037EC 00000001     A   28806 27842
 =A(3)         4 00002F00 00000001     A   24678 23018  23081  23104
 =A(3)         4 0000429C 00000001     A   32855 32719
 =A(4)         4 00002490 00000001     A   20180 19461
 =A(4)         4 00002EF0 00000001     A   24674 22923  23047  23311
 =A(4)         4 000037C8 00000001     A   28797 26129  27236  27824  27883
 =A(4)         4 0000425C 00000001     A   32839 29780  29862  30367  31078
 =A(4096)      4 00002EE0 00000001     A   24670 22686
 =A(6)         4 00002430 00000001     A   20156 17432
 =A(6)         4 00002EEC 00000001     A   24673 22903
 =A(6)         4 000037E8 00000001     A   28805 27765
 =A(6000)      4 0000242C 00000001     A   20155 17251
 =A(64*1024)
               4 00000DF8 00000001     A   10837  7593
 =A(66)        4 00004244 00000001     A   32833 29024
 =A(8)         4 0000248C 00000001     A   20179 19411
 =A(8192)      4 00002424 00000001     A   20153 17124  17394
 =A(8192)      4 00002ED8 00000001     A   24668 22659
 =A(8192)      4 00003780 00000001     A   28779 24853  27657
 =AL4(1)       4 00002494 00000001     R   20181 19474
 =C'FQCB'      4 00000DE8 00000001     C   10833  7106
 =C'GTCT'      4 000002E4 00000001     C    6394  5520
 =C'MFQE'      4 00001AD4 00000001     C   16136 12455
 =C'MILASYNLIN#'
1TERMINAL (TERM00) (09:44) (22MAR04) Ordinary Symbol and Literal Cross Reference                                            Page  250
              11 00000E8B 00000001     C   10871  8831   8864
 =C'MILASYNSYSR'
              11 00000E96 00000001     C   10872  8996
 =C'MILC'      4 00000DDC 00000001     C   10830  6597
 =C'MILCNTLX'
               8 00004228 00000001     C   32829 31027
 =C'MILCNTLXWYL'
              11 000042A4 00000001     C   32857 31261
 =C'MILGONE'
               7 00000EAA 00000001     C   10874  9925
 =C'MILIAS'
               6 00001B32 00000001     C   16161 14592
 =C'MILLOGONLIN#'
              12 00000E20 00000001     C   10847  9107
 =C'MILPDBCMD'
               9 00000EA1 00000001     C   10873  9363
 =C'MILSTOP'
               7 00000E84 00000001     C   10870  8718
 =C'MILSYNCLIN#'
              11 00000E72 00000001     C   10868  8347   8417
 =C'MILSYSR'
               7 00000E7D 00000001     C   10869  8575
 =C'MTCB'      4 00001B04 00000001     C   16148 14536
 =C'MTCB'      4 000023F8 00000001     C   20142 16334  19780
 =C'NEWSIB'
               6 00001B2A 00000001     C   16159 14082
 =C'RDEDITX'
               7 000029CB 00000001     C   22470 21965
 =C'RDEDITXW'
               8 00002970 00000001     C   22447 21425
 =C'RDTERMX'
               7 000024B3 00000001     C   20190 19168
 =C'RDTEXTX'
               7 00002F4A 00000001     C   24698 24204
 =C'TBUF'      4 00001AA4 00000001     C   16124 11202  11374
 =C'WREDITX'
               7 00003800 00000001     C   28811 27162
 =C'WRTERMX'
               7 000037F9 00000001     C   28810 26000
 =C'WRTEXTX'
               7 00003807 00000001     C   28812 28498
 =CL16'FQCBLOCK'
              16 00000DC0 00000001     C   10826  7134
 =CL16'GTCTLOCK'
              16 000002D0 00000001     C    6392  5549
 =CL4'MIB'
               4 00000E2C 00000001     C   10848  9225
 =CL4'PSUB'
               4 00000DE0 00000001     C   10831  6626
 =CL8' '       8 00000DA8 00000001     C   10823  6754   6831
 =CL8'MILLINES'
               8 00000DB8 00000001     C   10825  6865
 =CL8'MILNAME'
               8 00000DA0 00000001     C   10822  6711
 =CL8'MILPASS'
               8 00000DB0 00000001     C   10824  6788
 =CL8'MILTEN'
               8 00000D90 00000001     C   10820  6625
 =CL8'TERMINAL'
1TERMINAL (TERM00) (09:44) (22MAR04) Ordinary Symbol and Literal Cross Reference                                            Page  251
               8 00000D98 00000001     C   10821  6710
 =FL8'106667'
               8 00004230 00000001     G   32830 32564
 =V(ACINFO)
               4 00004294 00000001     V   32853 32558
 =V(ACLOGON)
               4 00001B00 00000001     V   16147 14360
 =V(ACREATE)
               4 000002F4 00000001     V    6398  5589
 =V(ACREATE)
               4 00000E40 00000001     V   10853  9285
 =V(ASLOCK)
               4 00001AD0 00000001     V   16135 12381  12801
 =V(ASLOCK)
               4 00002470 00000001     V   20172 19024  19225
 =V(ASLOCK)
               4 000029B0 00000001     V   22462 22065
 =V(ASLOCK)
               4 00002F2C 00000001     V   24689 24373
 =V(ASLOCK)
               4 000037BC 00000001     V   28794 26110  27267
 =V(ASSYSTSK)
               4 00000DD4 00000001     V   10828  6523
 =V(ASULOCK)
               4 00001ADC 00000001     V   16138 12584  12912  12935
 =V(ASULOCK)
               4 00002478 00000001     V   20174 19081  19319  19340
 =V(ASULOCK)
               4 000029B4 00000001     V   22463 22245
 =V(ASULOCK)
               4 00002F30 00000001     V   24690 24493
 =V(ASULOCK)
               4 000037C0 00000001     V   28795 26120  27277
 =V(DISPRD)
               4 00001AE0 00000001     V   16139 12588  12916
 =V(DISPSHLD)
               4 00000DD0 00000001     V   10827  6516
 =V(EXRADD)
               4 0000245C 00000001     V   20167 18826
 =V(EXRDONE)
               4 000024AC 00000001     V   20187 20108
 =V(IOSDOIO)
               4 00000DFC 00000001     V   10838  7645   7978  10157  10510
 =V(IOSDOIO)
               4 00001ABC 00000001     V   16130 12119  12279
 =V(IOSIDFRE)
               4 00001AE8 00000001     V   16141 12682
 =V(IOSIDGET)
               4 00000DF0 00000001     V   10835  7181
 =V(IOSIDGET)
               4 00001AB4 00000001     V   16128 12016
 =V(LKCRE)
               4 000002E8 00000001     V    6395  5552
 =V(LKCRE)
               4 00000DEC 00000001     V   10834  7137
 =V(LKOB)      4 000002F8 00000001     V    6399  5744
 =V(LKOB)      4 00000E30 00000001     V   10849  9254   9638
 =V(LKOB)      4 00001AC8 00000001     V   16133 12231
 =V(LKREL)
1TERMINAL (TERM00) (09:44) (22MAR04) Ordinary Symbol and Literal Cross Reference                                            Page  252
               4 000002FC 00000001     V    6400  5758
 =V(LKREL)
               4 00000E44 00000001     V   10854  9341   9696
 =V(LKREL)
               4 00001ACC 00000001     V   16134 12324  12580
 =V(M1LOGON)
               4 00000E38 00000001     V   10851  9279
 =V(PAGFIX)
               4 00000E50 00000001     V   10857 10358
 =V(PAGFIX)
               4 00001AB8 00000001     V   16129 12071  13128  13691  13812  15417
 =V(PAGFIX)
               4 00002438 00000001     V   20158 18152  18278  19944
 =V(PAGFIX)
               4 00002984 00000001     V   22451 20821  20931  21726
 =V(PAGFIX)
               4 00002F04 00000001     V   24679 23534  23655  23770
 =V(PAGFIX)
               4 00003788 00000001     V   28781 25164  25289  26670  26777  28006  28113
 =V(PAGFIX)
               4 00004248 00000001     V   32834 29168  30030  31753
 =V(PAGTPROT)
               4 00004298 00000001     V   32854 32689
 =V(PAGUFIX)
               4 00000E58 00000001     V   10859 10556
 =V(PAGUFIX)
               4 00001AE4 00000001     V   16140 12656  13281  13946  13990  15572
 =V(PAGUFIX)
               4 00002444 00000001     V   20161 18534  18586  20066
 =V(PAGUFIX)
               4 00002990 00000001     V   22454 21126  21170  21848
 =V(PAGUFIX)
               4 00002F10 00000001     V   24682 23882  23932  23976
 =V(PAGUFIX)
               4 00003798 00000001     V   28785 25723  25771  26889  26933  28225  28269
 =V(PAGUFIX)
               4 00004254 00000001     V   32837 29340  30152  31875
 =V(RESUMAS)
               4 00000E48 00000001     V   10855  9726
 =V(RESUMTS)
               4 00001B18 00000001     V   16153 15843
 =V(RTCAN)
               4 00002474 00000001     V   20173 19073
 =V(RTSET)
               4 00002468 00000001     V   20170 18916
 =V(SUSPEND)
               4 00001AD8 00000001     V   16137 12553  12906
 =V(SYSRDEL)
               4 00000E18 00000001     V   10845  8568   8989
 =V(SYSRDEL)
               4 00001B14 00000001     V   16152 15758  16026
 =V(SYSRDO)
               4 00000E14 00000001     V   10844  8522   8942
 =V(SYSRNEW)
               4 00000E0C 00000001     V   10842  8484   8901
 =V(TCREATE)
               4 00002454 00000001     V   20165 18627
 =V(TCREATE)
               4 000029A0 00000001     V   22458 21231
1TERMINAL (TERM00) (09:44) (22MAR04) Ordinary Symbol and Literal Cross Reference                                            Page  253
 =V(TCREATE)
               4 00002F20 00000001     V   24686 24013
 =V(TCREATE)
               4 000037A8 00000001     V   28789 25808  26970  28306
 =V(TCREATE)
               4 0000426C 00000001     V   32843 30660
 =V(TEXIT)
               4 000024A8 00000001     V   20186 19657
 =V(TEXIT)
               4 000029C4 00000001     V   22467 22408
 =V(TEXIT)
               4 00002F40 00000001     V   24694 24634
 =V(TEXIT)
               4 000037D8 00000001     V   28801 26266  27476  28745
 =V(TEXIT)
               4 0000428C 00000001     V   32851 31528
 =V(VMFREE)
               4 00000DE4 00000001     V   10832  6966   8074   9786
 =V(VMFREE)
               4 00001AA8 00000001     V   16125 11546  14933
 =V(VMGET)
               4 000002E0 00000001     V    6393  5497
 =V(VMGET)
               4 00000DD8 00000001     V   10829  6573   6669   7022   7082   7239   7798   9199
 =V(VMGET)
               4 00001AA0 00000001     V   16123 11118  12431  14513  14786  14827  14868
 =V(XITDO)
               4 00004290 00000001     V   32852 32044  32198  32358
 =V(XITMASK)
               4 00002460 00000001     V   20168 18873
 =V(XITNEW)
               4 00001B08 00000001     V   16149 14678  14694  14710  14726
 =X'070C0000'
               4 000002EC 00000001     X    6396  5580
 =X'070C0000'
               4 00000E34 00000001     X   10850  9277
 =X'070C0000'
               4 00002448 00000001     X   20162 18616  18815
 =X'070C0000'
               4 00002994 00000001     X   22455 21220
 =X'070C0000'
               4 00002F14 00000001     X   24683 24002
 =X'070C0000'
               4 0000379C 00000001     X   28786 25797  26959  28295
 =X'070C0000'
               4 00004260 00000001     X   32840 30649
 =X'15'        1 000024B2 00000001     X   20189 18360
 =X'15'        1 000029CA 00000001     X   22469 21019
 =X'15'        1 000037F8 00000001     X   28809 25594
 =X'15151515'
               4 00003790 00000001     X   28783 25434
 =X'7FFFF000'
               4 00001AAC 00000001     X   16126 11817
 =X'7FFFF000'
               4 00002EDC 00000001     X   24669 22672  22673
 =X'80000000'
               4 00000E3C 00000001     X   10852  9280
 =X'80000000'
               4 00001AEC 00000001     X   16142 12908
1TERMINAL (TERM00) (09:44) (22MAR04) Ordinary Symbol and Literal Cross Reference                                            Page  254
 =X'80000000'
               4 00002400 00000001     X   20144 16394  16395  16396
 =XL8'4E00000000000000'
               8 00004238 00000001     X   32831 32565
 =Y(L'TBUF)
               2 00001B26 00000001     Y   16157 11204
 =Y(10)        2 00002F46 00000001     Y   24696 23192
 =Y(1024)      2 00000E6A 00000001     Y   10864  6627
 =Y(16)        2 00002F48 00000001     Y   24697 23283
 =Y(27*256+0)
               2 00000E6C 00000001     Y   10865  6666   6963
 =Y(27*256+0)
               2 00001B38 00000001     Y   16162 14777  14824  14865
 =Y(31*256+0)
               2 00000E68 00000001     Y   10863  6570   7019   7230   7789   8071
 =Y(31*256+0)
               2 00001B30 00000001     Y   16160 14510
 =Y(32767)
               2 00000E6E 00000001     Y   10866  6896   6898
 =Y(4096)      2 00001B28 00000001     Y   16158 11816
 =Y(59*256+0)
               2 00000E70 00000001     Y   10867  7079   9196   9783
 =Y(59*256+0)
               2 00001B24 00000001     Y   16156 11115  11543  12428  14930
 =Y(6)         2 000024B0 00000001     Y   20188 17923  17925  17972
 =Y(6)         2 000029C8 00000001     Y   22468 21576
 =Y(6)         2 00002F44 00000001     Y   24695 23087
 =Y(63*256+0)
               2 00000310 00000001     Y    6405  5494
 =Y(8192+L'PDB+L'TBUF)
               2 00000312 00000001     Y    6406  5521

1TERMINAL (TERM00) (09:44) (22MAR04) Macro and Copy Code Source Summary                                                     Page  255
- Con Source                                        Volume    Members                        HLASM R4.0  2004/03/22 09.44
0     PRIMARY INPUT                                           ADDSG    CSECT    DROP     END      EX       FIX
                                                              FREEB    LTORG    POP      PRINT    PUSH     START
                                                              UNFIX    USING    VALBUF
   L2 WYL.GG.ORV.MACLIB                             SYSB02    $LKPARM  ABORT    ACALL    ACCTPARM ASB      DISPPARM
                                                              GETPARM2 HEADER   IORPARM  IOSPARM  LCALL    LKCRE    LKOB
                                                              LKREL    LOCKPARM MAT      MODULE   ORVSNAP  PAGEPARM
                                                              PARMPARM PEND     PMOV     PROC     PSET     PZERO    REG
                                                              SCOMPARM SPLEVEL  SYSCTL   TERMPARM TIMEPARM VCALL
                                                              VMFREE   VMGET    VMIPARM  VMPARM   XITPARM  XTRCDATA
   L3 WYL.GG.SYS.MACLIB                             SYSB05    $BC      $BFLKUP  $BV      $CCLKUP  $CRS     $CSS     $L
                                                              $LA      $LBLAD   $LEXP    $LOR     $REL     $RGLKUP
                                                              $USLKUP  AUSING   BEGIN    CEIL     CLEAR    CSECT    DATA
                                                              DECR     DEFCC    DEX      DIAG     DROP     ELSE     END
                                                              EX       EXIT     FLAG     GEN      HIBAL    IDENT    IF
                                                              INCR     LABEL    LC       LOOP     LT       LTORG    NEXT
                                                              POP      PRINT    PUSH     RECORD   REGS     SET
                                                              START    STF      ST3      UNTIL    USING    WHILE    WITH
                                                              ZOT
   L4 SYS3.IS.MACLIB                                SYSB05    FORVCMDS FWYLRTNS PDB      SIB

1         (TERM00) (09:44) (22MAR04) General Purpose Register Cross Reference                                               Page  256
- Register  References (M=modified, B=branch, U=USING, D=DROP, N=index)                      HLASM R4.0  2004/03/22 09.44
0    0(0)      991U   992D  1338U  5416   5488M  5493   5499   5554   5591   5646   5905   6059   6210   6329M  6334
              6457   6564M  6569   6575   6660M  6665   6671   6946M  6951   7024   7040M  7073M  7078   7084   7139
              7183   7224M  7229   7241   7452   7655M  7655   7783M  7788   7800   7918M  7923   7988M  7988   8055M
              8060   8141   8246   8347M  8417M  8486   8536M  8536   8575M  8718M  8831M  8864M  8903   8957M  8957
              8996M  9107M  9190M  9195   9201   9287   9363M  9472   9767M  9772   9849   9925M  9992  10159  10211
             10301  10345M 10350  10444M 10449  10515  10680M 10741M 10741  10901  11128M 11128  11156  11206M 11279
             11556M 11556  11700  11902  12018  12063M 12068  12121  12281  12422M 12427  12433  12648M 12653  12739
             12937M 12984  13120M 13125  13191M 13196  13273M 13278  13293  13502  13683M 13688  13730M 13735  13787M
             13792  13804M 13809  13840M 13845  13857M 13862  13921M 13926  13938M 13943  13982M 13987  14015  14082M
             14207M 14264  14418  14504M 14509  14515  14592M 14680  14696  14712  14728  14771M 14776  14788  14818M
             14823  14829  14859M 14864  14870  14913M 14918  14991  15115  15269  15409M 15414  15481M 15486  15564M
             15569  15654  15922  16264  16896M 16981  17181D 17183M 17183  17184M 17190  17212M 17212  17333M 17338
             17347D 17349M 17349  17350M 17356  17372M 17372  17483D 17485M 17485  17486M 17492  17508M 17508  17615M
             17620  17629D 17631M 17631  17632M 17638  17654M 17654  17778D 17780M 17780  17781M 17787  17803M 17803
             18144M 18149  18191M 18196  18360M 18365  18377M 18382  18526M 18531  18635M 18635  18638M 18702  18918
             18982  19131M 19132  19168M 19279D 19281M 19281  19282M 19283U 19288  19310M 19310  19710  19936M 19941
             19983M 19988  20058M 20063  20235  20413D 20415M 20415  20416M 20422  20444M 20444  20532M 20537  20546D
             20548M 20548  20549M 20555  20571M 20571  20676D 20678M 20678  20679M 20685  20701M 20701  20813M 20818
             20860M 20865  21019M 21024  21036M 21041  21162M 21167  21239M 21239  21242M 21294  21380  21425M 21718M
             21723  21765M 21770  21840M 21845  21917  21965M 22119D 22121M 22121  22122M 22128  22150M 22150  22517
             22742D 22744M 22744  22745M 22751  22773M 22773  22838M 22843  22852D 22854M 22854  22855M 22861  22877M
             22877  23144M 23149  23158D 23160M 23160  23161M 23167  23183M 23183  23235M 23240  23249D 23251M 23251
             23252M 23258  23274M 23274  23386D 23388M 23388  23389M 23395  23411M 23411  23526M 23531  23573M 23578
             23630M 23635  23647M 23652  23683M 23688  23700M 23705  23907M 23912  23924M 23929  23968M 23973  24021M
             24021  24024M 24086  24156  24204M 24422D 24424M 24424  24425M 24431  24453M 24453  24723  24929D 24931M
             24931  24932M 24938  24954M 24954  25156M 25161  25203M 25208  25434M 25439  25594M 25599  25611M 25616
             25763M 25768  25816M 25816  25819M 25882  25952  26000M 26318  26506D 26508M 26508  26509M 26515  26531M
             26531  26662M 26667  26709M 26714  26925M 26930  26978M 26978  26981M 27044  27114  27162M 27528  27716D
             27718M 27718  27719M 27725  27741M 27741  27998M 28003  28045M 28050  28261M 28266  28314M 28314  28317M
             28380  28450  28498M 28837  29160M 29165  29207M 29212  29247M 29252  29332M 29337  29421M 29426  29435D
             29437M 29437  29438M 29444  29460M 29460  29537M 29542  29551D 29553M 29553  29554M 29560  29582M 29582
             30022M 30027  30069M 30074  30144M 30149  30211M 30216  30225D 30227M 30227  30228M 30234  30256M 30256
             30665M 30665  30680M 30680  30682M 30745  30840  31027M 31145M 31145  31214M 31214  31261M 31580  31745M
             31750  31792M 31797  31867M 31872  31938  32097  32208M 32208  32271  32368M 32368  32461  32621  32699M
             32699  32719  32725M 32744  32750M 32774M 32794M 32794
     1(1)      987U  5416   5614M  5646   5873M  5905   6029M  6059   6183M  6210   6380M  6457   6601M  6611U  6623U
              7039M  7039   7040M  7420M  7452   7526M  7530   8109M  8141   8324M  8336   8395M  8396M  8808M  8820
              8842M  8843M  9084M  9096   9279M  9280M  9281   9315M  9316M  9317M  9439M  9472   9817M  9849   9962M
              9992  10179M 10211  10594M 10595  10604M 10604  10807M 10901  11203M 11204M 11205  11226M 11279  11406M
             11407M 11419  11457M 11465M 11587M 11594  11597M 11645M 11700  11777M 11811  11815M 11816M 11817M 11818M
             11822  11824M 11825  11829  11830  11840M 11841  11847M 11848M 11849  11869M 11902  12376M 12377M 12378
             12433M 12443U 12463U 12480  12481  12510  12511  12703M 12739  12952M 12984  13467M 13502  13582M 13583M
             13584  13640M 13641  14232M 14264  14386M 14418  14959M 14991  15067M 15115  15241M 15269  15599M 15654
             15767M 15776M 15776  15813M 15813  15868M 15922  16050M 16051M 16052  16110M 16264  16558M 16567M 16567
             16573M 16573  16604  16652  16693  16762M 16776M 16776  16793M 16793  16794  16820M 16820  16838  16862M
             16862  16874M 16874  16880  16927M 16981  17226M 17237M 17237  17251  17260  17382M 17394  17403  17415M
             17415  17432  17474  17663M 17672M 17672  17681  17682M 17691M 17691  17700M 17701  17713  17730M 17730
             17769  17887M 17914M 17914  17920  17925M 17926  17966M 17971  17972M 17973  18669M 18702  18926M 18936U
             18973U 19528M 19538U 19579U 19678M 19710  20129M 20235  21263M 21294  21861M 21871U 21908U 22191M 22191
             22209M 22214  22281M 22291U 22332U 22434M 22517  22981M 22993  23002  23478M 23479M 23480M 23481  24055M
             24086  24346D 24348M 24348  24349M 24350U 24351  24360M 24360  24495M 24496  24504M 24514U 24555U 24655M
             24723  25328M 25850M 25882  26115M 26116M 26117  26140M 26150U 26191U 26287M 26318  26616M 26617  27012M
             27044  27249M 27250  27259M 27259  27272M 27273M 27274  27349M 27359U 27400U 27497M 27528  27791M 27800M
             27800  27952M 27953  28348M 28380  28586D 28588M 28588  28589M 28590U 28591  28603  28609M 28610  28618M
             28628U 28669U 28766M 28837  28913M 28922M 28922  28942  28951  28952M 28953N 29117M 29118  29591M 29601U
1         (TERM00) (09:44) (22MAR04) General Purpose Register Cross Reference                                               Page  257
             29614U 30265M 30275U 30289U 30713M 30745  30901D 30903M 30903  30904M 30905U 30914M 30914  30934  30943M
             30944N 31099M 31109U 31128U 31169M 31179U 31197U 31384D 31386M 31386  31387M 31388U 31389  31401M 31411U
             31452U 31549M 31580  31906M 31938  32040M 32041  32065M 32097  32239M 32271  32410M 32461  32568M 32570
             32590M 32621  32684M 32685  32813M
     2(2)      983U  5416   5614M  5646   5873M  5905   6029M  6059   6183M  6210   6380M  6457   6718M  6795M  6896
              6898M  6899   6979M  6980M  7018   7038   7084M  7094U  7146U  7148   7420M  7452   8109M  8141   8486M
              8508   8518   8903M  8928   8938   9439M  9472   9817M  9849   9962M  9992  10179M 10211  10515M 10574
             10588  10702  10807M 10901  10998M 11000  11037M 11044  11047M 11160M 11168M 11226M 11279  11349M 11359U
             11434  11542  11627U 11645M 11700  11752M 11815  11818  11829M 11869M 11902  12193M 12203U 12597U 12703M
             12739  12952M 12984  13044M 13054U 13075U 13108  13179  13261  13467M 13502  13638M 13639  14088M 14129M
             14129  14155M 14207  14232M 14264  14386M 14418  14959M 14991  15067M 15115  15241M 15269  15329M 15339U
             15397  15469  15552  15580U 15599M 15654  15763M 15804  15868M 15922  16110M 16264  16558M 16584M 16584
             16604  16643M 16643  16652  16676M 16676  16688M 16688  16693  16762M 16794  16838  16880  16927M 16981
             17921M 17923M 17924  18280M 18289M 18289  18329  18401  18402  18669M 18702  18909M 18909  18911M 18912M
             18913  19326M 19327M 19337M 19480M 19481M 19678M 19710  20129M 20235  21263M 21294  22237M 22238M 22434M
             22517  22668M 22672M 22674  22889M 22889  22891M 22903  22932  23081  23104  23311  24055M 24086  24488M
             24490M 24655M 24723  25850M 25882  26287M 26318  27012M 27044  27497M 27528  27753M 27765  27782M 27782
             27824  27883  27948  28348M 28380  28766M 28837  28995M 29004M 29004  29024  29041M 29041  29065M 29116
             29262  30167M 30199  30713M 30745  31549M 31580  31906M 31938  32065M 32097  32239M 32271  32410M 32461
             32590M 32621  32813M
     3(3)      979U  5416   5614M  5646   5873M  5905   6029M  6059   6183M  6210   6380M  6457   6725M  6757M  6759
              6802M  6834M  6836   7024M  7025   7420M  7452   8109M  8141   9439M  9472   9581M  9597   9817M  9849
              9962M  9992  10179M 10211  10807M 10901  10999M 11000  11044M 11046M 11047  11167M 11168  11226M 11279
             11433M 11434  11464M 11465  11594M 11596M 11597  11645M 11700  11753M 11768M 11768  11822  11824  11830M
             11869M 11902  12121M 12136  12156  12281M 12296  12342  12467M 12468M 12468  12506U 12517U 12703M 12739
             12952M 12984  13133M 13143U 13207  13221U 13467M 13502  14232M 14264  14386M 14418  14959M 14991  15067M
             15115  15241M 15269  15422M 15432U 15497  15511U 15599M 15654  15868M 15922  16110M 16264  16558M 16595M
             16595  16604  16628M 16628  16634M 16634  16652  16693  16762M 16787M 16787  16794  16831M 16831  16837M
             16837  16838  16875M 16875  16880  16927M 16981  18669M 18702  18910M 18911M 18912M 18913  19328M 19329M
             19333  19335  19337M 19678M 19710  20129M 20235  21263M 21294  22215M 22219  22221  22231M 22231  22238M
             22434M 22517  22669M 22671M 22673M 22674M 22686  22890M 22891M 22923  22947  22975  23018  23047  24055M
             24086  24489M 24490M 24655M 24723  25294M 25294  25349M 25371M 25393M 25406M 25406  25449  25544  25850M
             25882  26287M 26318  27012M 27044  27497M 27528  27812M 27812  27830M 27842  27859M 27859  27890M 27949
             28348M 28380  28766M 28837  29630M 29640U 29678U 29686M 29696U 29734U 29742M 29752U 29791U 29874M 29875
             29899  30713M 30745  31549M 31580  31906M 31938  32065M 32097  32239M 32271  32410M 32461  32590M 32621
             32657D 32659M 32659  32660M 32661U 32813M
     4(4)      975U  5416   5614M  5646   5873M  5905   6029M  6059   6183M  6210   6380M  6457   6732M  6809M  6872M
              7420M  7452   7826M  7836U  7856U  7859U  7876U  7879U  7934   7968   8086U  8109M  8141   9439M  9472
              9640M  9650U  9666   9782   9793U  9817M  9849   9962M  9992  10179M 10211  10807M 10901  10961M 10989M
             10989  11000M 11031M 11031  11156M 11206  11226M 11279  11425M 11432  11434M 11645M 11700  11749M 11750M
             11751M 11751N 11831M 11841M 11842M 11843  11869M 11902  12703M 12739  12805M 12806M 12806  12937  12952M
             12984  13293M 13303U 13420  13439U 13467M 13502  14232M 14264  14386M 14418  14959M 14991  15067M 15115
             15241M 15269  15599M 15654  15868M 15922  16110M 16264  16927M 16981  17093M 17162  17221  17264M 17291M
             17291  17321  17441M 17442  17464  17547M 17547  17603  17736M 17737  17759  18218M 18265  18319  18401M
             18435  18536M 18573  18669M 18702  19227M 19260  19337M 19678M 19710  20129M 20235  20347M 20394  20453
             20486M 20487M 20487  20520  20635M 20657  20716  20918  20971  21080M 21113  21263M 21294  22067M 22100
             22238M 22434M 22517  22629M 22668  22723  22782  22787M 22796M 22796  22826  23068M 23069  23110M 23132
             23201M 23223  23284M 23345M 23367  23724M 23757  23796  23869  24055M 24086  24369M 24403  24490M 24655M
             24723  24822M 24910  25276  25328  25329M 25511  25663M 25710  25850M 25882  26287M 26318  26417M 26487
             26764  26803  26876  27012M 27044  27497M 27528  27627M 27697  28100  28139  28212  28348M 28380  28766M
             28837  29377M 29409  29503M 29525  30713M 30745  31549M 31580  31906M 31938  32065M 32097  32239M 32271
             32410M 32461  32590M 32621  32653M 32813M
     5(5)      971U  5416   5614M  5646   5873M  5905   6029M  6059   6183M  6210   6380M  6457   6739M  6816M  6879M
              7420M  7452   7800M  7810U  7906   8070   8091U  8109M  8141   9201M  9214U  9303   9351U  9439M  9472
              9817M  9849   9962M  9992  10179M 10211  10807M 10901  10961M 11000M 11226M 11279  11425M 11433  11434M
             11645M 11700  11869M 11902  12018M 12099  12259  12679  12703M 12739  12952M 12984  13373M 13383U 13433U
             13467M 13502  13565M 13575U 14219U 14232M 14264  14314M 14324U 14368U 14386M 14418  14546M 14556U 14636
             14650U 14959M 14991  15067M 15115  15189M 15199U 15213U 15241M 15269  15599M 15654  15868M 15922  16110M
             16264  16927M 16981  17094M 17103M 17103  17124  17172  17222  18219M 18228M 18228  18275  18402M 18415M
1         (TERM00) (09:44) (22MAR04) General Purpose Register Cross Reference                                               Page  258
             18415  18445  18537M 18546M 18546  18583  18669M 18702  19228M 19270  19333  19335M 19336  19337M 19678M
             19710  20129M 20235  20348M 20357M 20357  20404  20456  20468M 20473  20580M 20589M 20589  20606M 20606
             20626  20667  20717  20928  20941M 20941  20981  21063M 21064  21065M 21066  21081M 21123  21263M 21294
             22068M 22110  22219  22221M 22222  22238M 22434M 22517  22630M 22639M 22639  22659  22669N 22733  22783
             23285M 23294M 23294  23336  23377  23420M 23421  23725M 23767  23806  23879  24055M 24086  24370M 24413
             24484  24486M 24487  24489  24490M 24655M 24723  24823M 24832M 24832  24853  24876M 24876  24920  25239M
             25239  25286  25331M 25491M 25491  25521  25544M 25635M 25647  25648M 25649  25664M 25673M 25673  25720
             25850M 25882  26287M 26318  26418M 26427M 26427  26447  26497  26615  26774  26813  26886  27012M 27044
             27497M 27528  27628M 27637M 27637  27657  27707  27951  28110  28149  28222  28348M 28380  28766M 28837
             30713M 30745  31549M 31580  31906M 31938  32065M 32097  32239M 32271  32410M 32461  32590M 32621  32654M
             32813M
     6(6)      967U  5416   5614M  5646   5771M  5781U  5787M  5794U  5804M  5804   5873M  5905   5927M  5937U  5943M
              5950U  5960M  5960   6029M  6059   6081M  6091U  6097M  6104U  6114M  6114   6183M  6210   6242M  6252U
              6258M  6265U  6275M  6275   6380M  6457   6671M  6681U  6962   6974U  7420M  7452   8109M  8141   8399M
              8400M  8400   8509   8846M  8847M  8847   8929   9287M  9297U  9310U  9318   9439M  9472   9817M  9849
              9962M  9992  10076M 10086U 10099U 10102U 10119U 10122U 10148  10166U 10179M 10211  10363M 10373U 10393U
             10396U 10413U 10416U 10465  10500  10784U 10807M 10901  11226M 11279  11645M 11700  11732M 11742U 11856U
             11869M 11902  11924M 11934U 11940M 11947U 11958U 12695U 12703M 12739  12758M 12768U 12774M 12781U 12792U
             12944U 12952M 12984  13003M 13013U 13019M 13026U 13037U 13459U 13467M 13502  13524M 13534U 13540M 13547U
             13558U 14224U 14232M 14264  14300M 14310U 14373U 14386M 14418  14515M 14525U 14537  14941U 14959M 14991
             15067M 15115  15175M 15185U 15218U 15241M 15269  15288M 15298U 15304M 15311U 15322U 15591U 15599M 15654
             15689M 15699U 15705M 15712U 15723U 15855U 15868M 15922  15957M 15967U 15973M 15980U 15991U 16097U 16110M
             16264  16299M 16309U 16315M 16322U 16371U 16914U 16927M 16981  17021M 17031U 17037M 17044U 17055U 18656U
             18669M 18702  18724M 18734U 18740M 18747U 18758U 18817  19670U 19678M 19710  19745M 19755U 19761M 19768U
             19817U 20116U 20129M 20235  20275M 20285U 20291M 20298U 20309U 21250U 21263M 21294  21316M 21326U 21332M
             21339U 21350U 22426U 22434M 22517  22557M 22567U 22573M 22580U 22591U 24042U 24055M 24086  24108M 24118U
             24124M 24131U 24142U 24647U 24655M 24723  24758M 24768U 24774M 24781U 24792U 25837U 25850M 25882  25904M
             25914U 25920M 25927U 25938U 26279U 26287M 26318  26353M 26363U 26369M 26376U 26387U 26999U 27012M 27044
             27066M 27076U 27082M 27089U 27100U 27489U 27497M 27528  27563M 27573U 27579M 27586U 27597U 28335U 28348M
             28380  28402M 28412U 28418M 28425U 28436U 28758U 28766M 28837  28872M 28882U 28888M 28895U 28906U 30700U
             30713M 30745  30767M 30777U 30783M 30790U 30801U 31541U 31549M 31580  31615M 31625U 31631M 31638U 31649U
             31893U 31906M 31938  31970M 31980U 31986M 31993U 32004U 32052U 32065M 32097  32116M 32126U 32132M 32139U
             32150U 32231U 32239M 32271  32293M 32303U 32309M 32316U 32327U 32402U 32410M 32461  32496M 32506U 32512M
             32519U 32530U 32577U 32590M 32621  32813M
     7(7)      963U  5416   5499M  5509U  5555   5601U  5614M  5646   5873M  5905   6029M  6059   6183M  6210   6380M
              6457   7420M  7452   7534M  7544U  7565U  7568U  7585U  7588U  7626   7689U  8109M  8141   8246M  8270U
              8382   8445   8519   8613   8677   9042   9135   9228   9401   9415U  9439M  9472   9566M  9576U  9804U
              9817M  9849   9962M  9992  10179M 10211  10301M 10311U 10548  10642  10653M 10653  10680  10730  10789U
             10807M 10901  11226M 11279  11645M 11700  11869M 11902  11965M 11975U 12051  12110  12270  12636  12690U
             12703M 12739  12952M 12984  13467M 13502  13588M 13598U 13671  13718  13970  14003U 14015M 14025U 14199
             14214U 14232M 14264  14286M 14296U 14378U 14386M 14418  14451M 14461U 14929  14946U 14959M 14991  15024M
             15034U 15054U 15067M 15115  15161M 15171U 15223U 15241M 15269  15599M 15654  15868M 15922  16110M 16264
             16927M 16981  17855M 17865U 18132  18179  18514  18646U 18669M 18702  19678M 19710  19871M 19881U 19924
             19971  20046  20073U 20129M 20235  20742M 20752U 20801  20848  21150  21177U 21263M 21294  21547M 21557U
             21706  21753  21828  21856U 21917M 21927U 22370  22416U 22434M 22517  23447M 23457U 23514  23561  23956
             24032U 24055M 24086  24655M 24723  24991M 25001U 25144  25191  25751  25827U 25850M 25882  26287M 26318
             26564M 26574U 26650  26697  26913  26989U 27012M 27044  27497M 27528  27919M 27929U 27986  28033  28249
             28325U 28348M 28380  28766M 28837  29092M 29102U 29148  29195  29320  29933M 30010  30057  30132  30690U
             30713M 30745  31549M 31580  31656M 31666U 31733  31780  31855  31888U 31906M 31938  32065M 32097  32239M
             32271  32410M 32461  32590M 32621  32813M
     8(8)      959U  5416   5435M  5445U  5606U  5614M  5646   5669M  5679U  5685M  5692U  5702M  5702   5720U  5766U
              5873M  5905   6029M  6059   6183M  6210   6380M  6457   6476M  6486U  6492M  6499U  6510U  7412U  7420M
              7452   7509M  7519U  8096U  8109M  8141   8198M  8208U  9426U  9439M  9472   9494M  9504U  9510M  9517U
              9528U  9534M  9541U  9552U  9809U  9817M  9849   9906M  9916U  9949U  9962M  9992  10179M 10211  10230M
             10240U 10799U 10807M 10901  10920M 10930U 10936M 10943U 10954U 11218U 11226M 11279  11311M 11321U 11327M
             11334U 11345U 11632U 11645M 11700  11869M 11902  12703M 12739  12952M 12984  13467M 13502  13610M 13620U
             13746  13873  13997U 14232M 14264  14386M 14418  14437M 14447U 14951U 14959M 14991  15010M 15020U 15059U
             15067M 15115  15147M 15157U 15228U 15241M 15269  15599M 15654  15868M 15922  16110M 16264  16927M 16981
             17834M 17844U 18207  18340  18393  18456  18651U 18669M 18702  18982M 18992U 19616  19665U 19678M 19710
1         (TERM00) (09:44) (22MAR04) General Purpose Register Cross Reference                                               Page  259
             19850M 19860U 19999  20078U 20129M 20235  20721M 20731U 20876  20992  21052  21182U 21263M 21294  21380M
             21390U 21506  21519U 21526M 21536U 21781  22421U 22434M 22517  23426M 23436U 23589  23716  23817  24037U
             24055M 24086  24156M 24166U 24593  24642U 24655M 24723  24970M 24980U 25219  25460  25532  25627  25832U
             25850M 25882  25952M 25962U 26225  26274U 26287M 26318  26543M 26553U 26725  26824  26994U 27012M 27044
             27114M 27124U 27435  27484U 27497M 27528  27898M 27908U 28061  28160  28330U 28348M 28380  28450M 28460U
             28704  28753U 28766M 28837  29071M 29081U 29223  29273  29921M 30085  30695U 30713M 30745  30840M 30850U
             31487  31536U 31549M 31580  31677M 31687U 31808  31883U 31906M 31938  32065M 32097  32239M 32271  32410M
             32461  32590M 32621  32813M
     9(9)      955U  5416   5614M  5646   5873M  5905   6029M  6059   6183M  6210   6380M  6457   6575M  6576   6586U
              7407U  7420M  7452   7471M  7481U  7487M  7494U  7505U  8101U  8109M  8141   8160M  8170U  8176M  8183U
              8194U  9431U  9439M  9472   9817M  9849   9868M  9878U  9884M  9891U  9902U  9954U  9962M  9992  10011M
             10021U 10027M 10034U 10045U 10051M 10058U 10069U 10171U 10179M 10211  10244M 10254U 10260M 10267U 10278U
             10794U 10807M 10901  11226M 11279  11645M 11700  11869M 11902  12703M 12739  12952M 12984  13467M 13502
             14232M 14264  14386M 14418  14959M 14991  15067M 15115  15241M 15269  15599M 15654  15868M 15922  16110M
             16264  16927M 16981  18669M 18702  19678M 19710  20129M 20235  21263M 21294  22434M 22517  24055M 24086
             24655M 24723  25850M 25882  26287M 26318  27012M 27044  27497M 27528  28348M 28380  28766M 28837  30713M
             30745  31549M 31580  31906M 31938  32065M 32097  32239M 32271  32410M 32461  32590M 32621  32813M
    10(A)      951U  5416   5417M  5427U  5611U  5614M  5646   5647M  5657U  5870U  5873M  5905   5906M  5916U  6026U
              6029M  6059   6060M  6070U  6180U  6183M  6210   6211M  6221U  6377U  6380M  6457   6458M  6468U  7417U
              7420M  7452   7453M  7463U  8106U  8109M  8141   8142M  8152U  9436U  9439M  9472   9473M  9483U  9814U
              9817M  9849   9850M  9860U  9959U  9962M  9992   9993M 10003U 10176U 10179M 10211  10212M 10222U 10804U
             10807M 10901  10902M 10912U 11223U 11226M 11279  11280M 11290U 11642U 11645M 11700  11701M 11711U 11866U
             11869M 11902  11903M 11913U 12700U 12703M 12739  12740M 12750U 12949U 12952M 12984  12985M 12995U 13464U
             13467M 13502  13503M 13513U 14229U 14232M 14264  14265M 14275U 14383U 14386M 14418  14419M 14429U 14956U
             14959M 14991  14992M 15002U 15064U 15067M 15115  15116M 15126U 15238U 15241M 15269  15270M 15280U 15596U
             15599M 15654  15655M 15665U 15865U 15868M 15922  15923M 15933U 16107U 16110M 16264  16265M 16275U 16924U
             16927M 16981  16982M 16992U 18666U 18669M 18702  18703M 18713U 19675U 19678M 19710  19711M 19721U 20126U
             20129M 20235  20236M 20246U 21260U 21263M 21294  21295M 21305U 22431U 22434M 22517  22518M 22528U 24052U
             24055M 24086  24087M 24097U 24652U 24655M 24723  24724M 24734U 25847U 25850M 25882  25883M 25893U 26284U
             26287M 26318  26319M 26329U 27009U 27012M 27044  27045M 27055U 27494U 27497M 27528  27529M 27539U 28345U
             28348M 28380  28381M 28391U 28763U 28766M 28837  28838M 28848U 30710U 30713M 30745  30746M 30756U 31546U
             31549M 31580  31581M 31591U 31903U 31906M 31938  31939M 31949U 32062U 32065M 32097  32098M 32108U 32236U
             32239M 32271  32272M 32282U 32407U 32410M 32461  32462M 32472U 32587U 32590M 32621  32622M 32632U 32810U
             32813M
    11(B)      947U  5416   5614M  5646   5873M  5905   6029M  6059   6183M  6210   6380M  6457   7420M  7452   8109M
              8141   9439M  9472   9817M  9849   9962M  9992  10179M 10211  10807M 10901  11226M 11279  11645M 11700
             11869M 11902  12703M 12739  12952M 12984  13467M 13502  14232M 14264  14386M 14418  14959M 14991  15067M
             15115  15241M 15269  15599M 15654  15868M 15922  16110M 16264  16927M 16981  18669M 18702  19678M 19710
             20129M 20235  21263M 21294  22434M 22517  24055M 24086  24655M 24723  25850M 25882  26287M 26318  27012M
             27044  27497M 27528  28348M 28380  28766M 28837  30713M 30745  31549M 31580  31906M 31938  32065M 32097
             32239M 32271  32410M 32461  32590M 32621  32813M
    12(C)      943U  5416   5431   5432M  5433   5434   5614M  5614   5615   5646   5661   5662M  5663   5664   5873M
              5873   5874   5905   5920   5921M  5922   5923   6029M  6029   6030   6059   6074   6075M  6076   6077
              6183M  6183   6184   6210   6225   6226M  6227   6237U  6241   6372U  6380M  6380   6381   6457   6472
              6473M  6474   6475   7420M  7420   7421   7452   7467   7468M  7469   7470   8109M  8109   8110   8141
              8156   8157M  8158   8159   9439M  9439   9440   9472   9487   9488M  9489   9490   9817M  9817   9818
              9849   9864   9865M  9866   9867   9962M  9962   9963   9992  10007  10008M 10009  10010  10179M 10179
             10180  10211  10226  10227M 10228  10229  10807M 10807  10808  10901  10916  10917M 10918  10919  11226M
             11226  11227  11279  11294  11295M 11296  11306U 11310  11637U 11645M 11645  11646  11700  11715  11716M
             11717  11727U 11731  11861U 11869M 11869  11870  11902  11917  11918M 11919  11920  12703M 12703  12704
             12739  12754  12755M 12756  12757  12952M 12952  12953  12984  12999  13000M 13001  13002  13467M 13467
             13468  13502  13517  13518M 13519  13520  14232M 14232  14233  14264  14279  14280M 14281  14282  14386M
             14386  14387  14418  14433  14434M 14435  14436  14959M 14959  14960  14991  15006  15007M 15008  15009
             15067M 15067  15068  15115  15130  15131M 15132  15142U 15146  15233U 15241M 15241  15242  15269  15284
             15285M 15286  15287  15599M 15599  15600  15654  15669  15670M 15671  15681U 15685  15860U 15868M 15868
             15869  15922  15937  15938M 15939  15949U 15953  16102U 16110M 16110  16111  16264  16279  16280M 16281
             16291U 16295  16919U 16927M 16927  16928  16981  16996  16997M 16998  17008U 17017  18661U 18669M 18669
             18670  18702  18717  18718M 18719  18720  19678M 19678  19679  19710  19725  19726M 19727  19737U 19741
             20121U 20129M 20129  20130  20235  20250  20251M 20252  20262U 20271  21255U 21263M 21263  21264  21294
1         (TERM00) (09:44) (22MAR04) General Purpose Register Cross Reference                                               Page  260
             21309  21310M 21311  21312  22434M 22434  22435  22517  22532  22533M 22534  22544U 22553  24047U 24055M
             24055  24056  24086  24101  24102M 24103  24104  24655M 24655  24656  24723  24738  24739M 24740  24750U
             24754  25842U 25850M 25850  25851  25882  25897  25898M 25899  25900  26287M 26287  26288  26318  26333
             26334M 26335  26345U 26349  27004U 27012M 27012  27013  27044  27059  27060M 27061  27062  27497M 27497
             27498  27528  27543  27544M 27545  27555U 27559  28340U 28348M 28348  28349  28380  28395  28396M 28397
             28398  28766M 28766  28767  28837  28852  28853M 28854  28864U 28868  30705U 30713M 30713  30714  30745
             30760  30761M 30762  30763  31549M 31549  31550  31580  31595  31596M 31597  31607U 31611  31898U 31906M
             31906  31907  31938  31953  31954M 31955  31965U 31969  32057U 32065M 32065  32066  32097  32112  32113M
             32114  32115  32239M 32239  32240  32271  32286  32287M 32288  32289  32410M 32410  32411  32461  32476
             32477M 32478  32488U 32492  32582U 32590M 32590  32591  32621  32636  32637M 32638  32648U 32652  32805U
             32813M 32813  32814
    13(D)      939U  5416   5416   5431   5432   5434M  5468U  5532U  5535U  5568U  5571U  5614M  5622U  5646   5646
              5661   5662   5664M  5735U  5873M  5881U  5905   5905   5920   5921   5923M  6029M  6059   6059   6074
              6075   6077M  6183M  6210   6210   6225   6226   6241M  6309U  6380M  6388U  6457   6457   6472   6473
              6475M  6544U  6923U  6926U  6997U  7000U  7117U  7120U  7161U  7164U  7201U  7204U  7420M  7428U  7452
              7452   7467   7468   7470M  7606U  7760U  7763U  7891U  7894U  7954U  7957U  8032U  8035U  8109M  8117U
              8141   8141   8156   8157   8159M  8363U  8470U  8473U  8496U  8499U  8553U  8556U  8591U  8594U  8887U
              8890U  8916U  8919U  8974U  8977U  9020U  9023U  9167U  9170U  9242U  9245U  9265U  9268U  9329U  9332U
              9379U  9382U  9439M  9447U  9472   9472   9487   9488   9490M  9629U  9707U  9710U  9744U  9747U  9817M
              9825U  9849   9849   9864   9865   9867M  9962M  9992   9992  10007  10008  10010M 10136U 10179M 10187U
             10211  10211  10226  10227  10229M 10325U 10428U 10431U 10485U 10488U 10526U 10529U 10620U 10623U 10807M
             10815U 10901  10901  10916  10917  10919M 11101U 11226M 11234U 11279  11279  11294  11295  11310M 11519U
             11645M 11653U 11700  11700  11715  11716  11731M 11869M 11902  11902  11917  11918  11920M 11999U 12029U
             12032U 12085U 12088U 12219U 12222U 12245U 12248U 12312U 12315U 12399U 12402U 12533U 12536U 12568U 12571U
             12614U 12617U 12667U 12670U 12703M 12711U 12739  12739  12754  12755  12757M 12863U 12952M 12960U 12984
             12984  12999  13000  13002M 13090U 13165U 13168U 13240U 13243U 13398U 13401U 13467M 13475U 13502  13502
             13517  13518  13520M 13652U 13703U 13706U 13764U 13767U 13824U 13827U 13898U 13901U 14177U 14180U 14232M
             14240U 14264  14264  14279  14280  14282M 14340U 14386M 14394U 14418  14418  14433  14434  14436M 14484U
             14614U 14617U 14664U 14667U 14748U 14751U 14890U 14893U 14959M 14967U 14991  14991  15006  15007  15009M
             15067M 15115  15115  15130  15131  15146M 15241M 15269  15269  15284  15285  15287M 15378U 15454U 15457U
             15530U 15533U 15599M 15607U 15654  15654  15669  15670  15685M 15746U 15828U 15831U 15868M 15876U 15922
             15922  15937  15938  15953M 16014U 16110M 16118U 16264  16264  16279  16280  16295M 16424U 16927M 16935U
             16981  16981  16996  16997  17017M 17144U 18110U 18113U 18164U 18167U 18244U 18247U 18305U 18308U 18492U
             18495U 18604U 18607U 18669M 18677U 18702  18702  18717  18718  18720M 18793U 18840U 18843U 18887U 18890U
             19051U 19054U 19239U 19242U 19594U 19597U 19643U 19646U 19678M 19686U 19710  19710  19725  19726  19741M
             19905U 19956U 19959U 20024U 20027U 20094U 20097U 20129M 20137U 20235  20235  20250  20251  20271M 20376U
             20779U 20782U 20833U 20836U 20897U 20900U 20957U 20960U 21092U 21095U 21208U 21211U 21263M 21271U 21294
             21294  21309  21310  21312M 21487U 21684U 21687U 21738U 21741U 21806U 21809U 22079U 22082U 22348U 22351U
             22394U 22397U 22434M 22442U 22517  22517  22532  22533  22553M 22705U 23492U 23495U 23546U 23549U 23607U
             23610U 23667U 23670U 23736U 23739U 23782U 23785U 23848U 23851U 23990U 23993U 24055M 24063U 24086  24086
             24101  24102  24104M 24385U 24571U 24574U 24620U 24623U 24655M 24663U 24723  24723  24738  24739  24754M
             24892U 25122U 25125U 25176U 25179U 25255U 25258U 25422U 25425U 25689U 25692U 25785U 25788U 25850M 25858U
             25882  25882  25897  25898  25900M 26206U 26252U 26255U 26287M 26295U 26318  26318  26333  26334  26349M
             26469U 26628U 26631U 26682U 26685U 26743U 26746U 26789U 26792U 26855U 26858U 26947U 26950U 27012M 27020U
             27044  27044  27059  27060  27062M 27416U 27462U 27465U 27497M 27505U 27528  27528  27543  27544  27559M
             27679U 27964U 27967U 28018U 28021U 28079U 28082U 28125U 28128U 28191U 28194U 28283U 28286U 28348M 28356U
             28380  28380  28395  28396  28398M 28685U 28731U 28734U 28766M 28774U 28837  28837  28852  28853  28868M
             29129U 29180U 29183U 29298U 29301U 29388U 29391U 29988U 29991U 30042U 30045U 30110U 30113U 30178U 30181U
             30637U 30640U 30713M 30721U 30745  30745  30760  30761  30763M 31468U 31514U 31517U 31549M 31557U 31580
             31580  31595  31596  31611M 31714U 31765U 31768U 31833U 31836U 31906M 31914U 31938  31938  31953  31954
             31969M 32020U 32065M 32073U 32097  32097  32112  32113  32115M 32184U 32239M 32247U 32271  32271  32286
             32287  32289M 32343U 32410M 32418U 32461  32461  32476  32477  32492M 32546U 32590M 32598U 32621  32621
             32636  32637  32652M 32674U 32813M 32821U
    14(E)      935U  5416   5498M  5553M  5590M  5614M  5616B  5646   5745M  5759M  5839M  5873M  5875B  5905   5995M
              6029M  6031B  6059   6149M  6183M  6185B  6210   6341M  6380M  6382B  6457   6517M  6524M  6574M  6670M
              6967M  7023M  7033M  7040M  7083M  7138M  7182M  7240M  7253M  7287M  7350M  7382M  7399M  7420M  7422B
              7452   7646M  7702M  7799M  7941M  7979M  8075M  8109M  8111B  8141   8245M  8389M  8452M  8485M  8523M
              8569M  8620M  8684M  8902M  8943M  8990M  9049M  9142M  9200M  9255M  9286M  9342M  9408M  9439M  9441B
              9472   9639M  9697M  9727M  9787M  9817M  9819B  9849   9962M  9964B  9992  10158M 10179M 10181B 10211
1         (TERM00) (09:44) (22MAR04) General Purpose Register Cross Reference                                               Page  261
             10300M 10359M 10472M 10511M 10557M 10649M 10737M 10807M 10809B 10901  11119M 11226M 11228B 11279  11547M
             11645M 11647B 11700  11869M 11871B 11902  12017M 12072M 12120M 12232M 12280M 12325M 12382M 12432M 12554M
             12581M 12585M 12589M 12657M 12683M 12703M 12705B 12739  12802M 12907M 12913M 12917M 12936M 12952M 12954B
             12984  13129M 13214M 13229M 13282M 13292M 13427M 13452M 13467M 13469B 13502  13692M 13753M 13813M 13880M
             13887M 13947M 13991M 14014M 14125M 14154M 14206M 14232M 14234B 14264  14361M 14386M 14388B 14418  14514M
             14643M 14679M 14695M 14711M 14727M 14787M 14828M 14869M 14934M 14959M 14961B 14991  15047M 15067M 15069B
             15115  15241M 15243B 15269  15362M 15418M 15504M 15519M 15573M 15599M 15601B 15654  15759M 15844M 15868M
             15870B 15922  16027M 16059M 16086M 16110M 16112B 16264  16387M 16466M 16496M 16611M 16659M 16700M 16801M
             16845M 16887M 16927M 16929B 16981  17203M 17363M 17499M 17645M 17794M 18153M 18214M 18279M 18347M 18400M
             18463M 18481M 18535M 18587M 18628M 18669M 18671B 18702  18827M 18874M 18917M 18981M 19025M 19074M 19082M
             19201M 19226M 19301M 19320M 19341M 19505M 19568M 19623M 19630M 19658M 19678M 19680B 19710  19945M 20006M
             20013M 20067M 20109M 20129M 20131B 20235  20435M 20562M 20692M 20822M 20883M 20932M 20999M 21059M 21076M
             21127M 21171M 21232M 21263M 21265B 21294  21379M 21457M 21513M 21727M 21788M 21795M 21849M 21916M 22031M
             22066M 22141M 22246M 22273M 22321M 22377M 22384M 22409M 22434M 22436B 22517  22764M 22868M 23174M 23265M
             23402M 23535M 23596M 23656M 23723M 23771M 23824M 23834M 23883M 23933M 23977M 24014M 24055M 24057B 24086
             24155M 24270M 24374M 24444M 24494M 24544M 24600M 24607M 24635M 24655M 24657B 24723  24945M 25165M 25226M
             25290M 25467M 25539M 25634M 25659M 25724M 25772M 25809M 25850M 25852B 25882  25951M 26033M 26111M 26121M
             26128M 26180M 26232M 26239M 26267M 26287M 26289B 26318  26522M 26671M 26732M 26778M 26831M 26841M 26890M
             26934M 26971M 27012M 27014B 27044  27113M 27228M 27268M 27278M 27285M 27389M 27442M 27449M 27477M 27497M
             27499B 27528  27732M 28007M 28068M 28114M 28167M 28177M 28226M 28270M 28307M 28348M 28350B 28380  28449M
             28564M 28658M 28711M 28718M 28746M 28766M 28768B 28837  29169M 29230M 29280M 29287M 29341M 29451M 29573M
             30031M 30092M 30099M 30153M 30247M 30661M 30676M 30713M 30715B 30745  30839M 30883M 31136M 31205M 31303M
             31441M 31494M 31501M 31529M 31549M 31551B 31580  31754M 31815M 31822M 31876M 31906M 31908B 31938  32045M
             32065M 32067B 32097  32199M 32239M 32241B 32271  32359M 32410M 32412B 32461  32559M 32590M 32592B 32621
             32690M 32813M 32815B
    15(F)      931U  5416   5417   5497M  5498B  5552M  5553B  5589M  5590B  5614M  5646   5647   5744M  5745B  5758M
              5759B  5838M  5839B  5857   5858M  5859M  5860M  5861M  5861   5862M  5862   5873M  5905   5906   5994M
              5995B  6013   6014M  6015M  6016M  6017M  6017   6018M  6018   6029M  6059   6060   6148M  6149B  6167
              6168M  6169M  6170M  6171M  6171   6172M  6172   6183M  6210   6211   6340M  6341B  6359   6360M  6361M
              6362M  6363M  6363   6364M  6364   6380M  6457   6458   6516M  6517B  6523M  6524B  6573M  6574B  6669M
              6670B  6966M  6967B  7022M  7023B  7038M  7040M  7082M  7083B  7137M  7138B  7181M  7182B  7239M  7240B
              7252M  7253B  7286M  7287B  7349M  7350B  7381M  7382B  7398M  7399B  7420M  7452   7453   7645M  7646B
              7672   7673M  7674M  7675M  7676M  7676   7677M  7677   7701M  7702B  7729   7730M  7731M  7732M  7733M
              7733   7734M  7734   7798M  7799B  7940M  7941B  7978M  7979B  8005   8006M  8007M  8008M  8009M  8009
              8010M  8010   8074M  8075B  8109M  8141   8142   8244M  8245B  8388M  8389B  8451M  8452B  8484M  8485B
              8522M  8523B  8568M  8569B  8619M  8620B  8683M  8684B  8729   8730M  8731M  8732M  8733M  8733   8734M
              8734   8769   8770M  8771M  8772M  8773M  8773   8774M  8774   8901M  8902B  8942M  8943B  8989M  8990B
              9048M  9049B  9141M  9142B  9199M  9200B  9254M  9255B  9285M  9286B  9341M  9342B  9407M  9408B  9439M
              9472   9473   9638M  9639B  9696M  9697B  9726M  9727B  9786M  9787B  9817M  9849   9850   9936   9937M
              9938M  9939M  9940M  9940   9941M  9941   9962M  9992   9993  10157M 10158B 10179M 10211  10212  10299M
             10300B 10358M 10359B 10471M 10472B 10510M 10511B 10556M 10557B 10648M 10649B 10736M 10737B 10767  10768M
             10769M 10770M 10771M 10771  10772M 10772  10807M 10901  10902  11118M 11119B 11145  11146M 11147M 11148M
             11149M 11149  11150M 11150  11226M 11279  11280  11391  11392M 11393M 11394M 11395M 11395  11396M 11396
             11546M 11547B 11573  11574M 11575M 11576M 11577M 11577  11578M 11578  11645M 11700  11701  11800  11801M
             11802M 11803M 11804M 11804  11805M 11805  11869M 11902  11903  12016M 12017B 12071M 12072B 12119M 12120B
             12173  12174M 12175M 12176M 12177M 12177  12178M 12178  12231M 12232B 12279M 12280B 12324M 12325B 12359
             12360M 12361M 12362M 12363M 12363  12364M 12364  12381M 12382B 12431M 12432B 12553M 12554B 12580M 12581B
             12584M 12585B 12588M 12589B 12656M 12657B 12682M 12683B 12703M 12739  12740  12801M 12802B 12829  12830M
             12831M 12832M 12833M 12833  12834M 12834  12906M 12907B 12912M 12913B 12916M 12917B 12935M 12936B 12952M
             12984  12985  13128M 13129B 13213M 13214B 13228M 13229B 13281M 13282B 13291M 13292B 13362  13363M 13364M
             13365M 13366M 13366  13367M 13367  13426M 13427B 13451M 13452B 13467M 13502  13503  13691M 13692B 13752M
             13753B 13812M 13813B 13879M 13880B 13886M 13887B 13946M 13947B 13990M 13991B 14013M 14014B 14124M 14125B
             14153M 14154B 14205M 14206B 14232M 14264  14265  14360M 14361B 14386M 14418  14419  14513M 14514B 14642M
             14643B 14678M 14679B 14694M 14695B 14710M 14711B 14726M 14727B 14786M 14787B 14827M 14828B 14868M 14869B
             14933M 14934B 14959M 14991  14992  15046M 15047B 15067M 15115  15116  15241M 15269  15270  15361M 15362B
             15417M 15418B 15503M 15504B 15518M 15519B 15572M 15573B 15599M 15654  15655  15758M 15759B 15793  15794M
             15795M 15796M 15797M 15797  15798M 15798  15843M 15844B 15868M 15922  15923  16026M 16027B 16058M 16059B
             16085M 16086B 16110M 16264  16265  16351  16352M 16353M 16354M 16355M 16355  16356M 16356  16386M 16387B
             16465M 16466B 16495M 16496B 16610M 16611B 16658M 16659B 16699M 16700B 16800M 16801B 16844M 16845B 16886M
1         (TERM00) (09:44) (22MAR04) General Purpose Register Cross Reference                                               Page  262
             16887B 16927M 16981  16982  17202M 17203B 17362M 17363B 17498M 17499B 17644M 17645B 17793M 17794B 18152M
             18153B 18213M 18214B 18278M 18279B 18346M 18347B 18399M 18400B 18462M 18463B 18480M 18481B 18534M 18535B
             18586M 18587B 18627M 18628B 18669M 18702  18703  18826M 18827B 18873M 18874B 18916M 18917B 18980M 18981B
             19024M 19025B 19073M 19074B 19081M 19082B 19200M 19201B 19225M 19226B 19300M 19301B 19319M 19320B 19340M
             19341B 19504M 19505B 19567M 19568B 19622M 19623B 19629M 19630B 19657M 19658B 19678M 19710  19711  19797
             19798M 19799M 19800M 19801M 19801  19802M 19802  19944M 19945B 20005M 20006B 20012M 20013B 20066M 20067B
             20108M 20109B 20129M 20235  20236  20434M 20435B 20561M 20562B 20691M 20692B 20821M 20822B 20882M 20883B
             20931M 20932B 20998M 20999B 21058M 21059B 21075M 21076B 21126M 21127B 21170M 21171B 21231M 21232B 21263M
             21294  21295  21378M 21379B 21456M 21457B 21512M 21513B 21726M 21727B 21787M 21788B 21794M 21795B 21848M
             21849B 21915M 21916B 22030M 22031B 22065M 22066B 22140M 22141B 22167  22168M 22169M 22170M 22171M 22171
             22172M 22172  22245M 22246B 22272M 22273B 22320M 22321B 22376M 22377B 22383M 22384B 22408M 22409B 22434M
             22517  22518  22763M 22764B 22867M 22868B 23173M 23174B 23264M 23265B 23401M 23402B 23534M 23535B 23595M
             23596B 23655M 23656B 23722M 23723B 23770M 23771B 23823M 23824B 23833M 23834B 23882M 23883B 23932M 23933B
             23976M 23977B 24013M 24014B 24055M 24086  24087  24154M 24155B 24269M 24270B 24333  24334M 24335M 24336M
             24337M 24337  24338M 24338  24373M 24374B 24443M 24444B 24470  24471M 24472M 24473M 24474M 24474  24475M
             24475  24493M 24494B 24543M 24544B 24599M 24600B 24606M 24607B 24634M 24635B 24655M 24723  24724  24944M
             24945B 25164M 25165B 25225M 25226B 25289M 25290B 25466M 25467B 25538M 25539B 25633M 25634B 25658M 25659B
             25723M 25724B 25771M 25772B 25808M 25809B 25850M 25882  25883  25950M 25951B 26032M 26033B 26110M 26111B
             26120M 26121B 26127M 26128B 26179M 26180B 26231M 26232B 26238M 26239B 26266M 26267B 26287M 26318  26319
             26521M 26522B 26670M 26671B 26731M 26732B 26777M 26778B 26830M 26831B 26840M 26841B 26889M 26890B 26933M
             26934B 26970M 26971B 27012M 27044  27045  27112M 27113B 27227M 27228B 27267M 27268B 27277M 27278B 27284M
             27285B 27388M 27389B 27441M 27442B 27448M 27449B 27476M 27477B 27497M 27528  27529  27731M 27732B 28006M
             28007B 28067M 28068B 28113M 28114B 28166M 28167B 28176M 28177B 28225M 28226B 28269M 28270B 28306M 28307B
             28348M 28380  28381  28448M 28449B 28563M 28564B 28657M 28658B 28710M 28711B 28717M 28718B 28745M 28746B
             28766M 28837  28838  29168M 29169B 29229M 29230B 29279M 29280B 29286M 29287B 29340M 29341B 29450M 29451B
             29572M 29573B 30030M 30031B 30091M 30092B 30098M 30099B 30152M 30153B 30246M 30247B 30660M 30661B 30675M
             30676B 30713M 30745  30746  30838M 30839B 30882M 30883B 30988  30989M 30990M 30991M 30992M 30992  30993M
             30993  31135M 31136B 31204M 31205B 31302M 31303B 31440M 31441B 31493M 31494B 31500M 31501B 31528M 31529B
             31549M 31580  31581  31753M 31754B 31814M 31815B 31821M 31822B 31875M 31876B 31906M 31938  31939  32044M
             32045B 32065M 32097  32098  32198M 32199B 32239M 32271  32272  32358M 32359B 32385  32386M 32387M 32388M
             32389M 32389  32390M 32390  32410M 32461  32462  32558M 32559B 32590M 32621  32622  32689M 32690B 32813M

1TERMINAL (TERM00) (09:44) (22MAR04) Diagnostic Cross Reference and Assembler Summary                                       Page  263
-                                                                                            HLASM R4.0  2004/03/22 09.44
0     No Statements Flagged in this Assembly
 HIGH LEVEL ASSEMBLER, 5696-234, RELEASE 4.0, PTF UQ57391
0SYSTEM: OS/390 02.10.00            JOBNAME: PJG#TERM    STEPNAME: ASM        PROCSTEP: (NOPROC)
0Datasets Allocated for this Assembly
  Con DDname   Dataset Name                                 Volume  Member
   P1 SYSIN    SYS04082.T094449.RA000.PJG#TERM.INPUT.H01    SCR101
   L1 SYSLIB   SYS3.DUMMYMAC                                SYSB02
   L2          WYL.GG.ORV.MACLIB                            SYSB02
   L3          WYL.GG.SYS.MACLIB                            SYSB05
   L4          SYS3.IS.MACLIB                               SYSB05
      SYSLIN   WYL.GG.PJG.OBJ                               SYSB05  TERMINAL
      SYSPRINT SYS04082.T094449.RA000.PJG#TERM.PRINT.H01    SCR101
      SYSTERM  GG$PJG.PJG#TERM.JOB05964.D0000103.?

    7812K allocated to Buffer Pool,         4013K would be required for this to be an In-Storage Assembly
    4452 Primary Input Records Read         6225 Library Records Read                  0 Work File Reads
       0 ASMAOPT Records Read              18780 Primary Print Records Written         0 Work File Writes
     377 Punch Records Written                 0 ADATA Records Written
0Assembly Start Time: 09.44.51 Stop Time: 09.45.07 Processor Time: 00.00.06.6490
 Return Code 000
