1                        J E S 2  J O B  L O G  --  S Y S T E M  S Y S B  --  N O D E  R L G
0
 09.42.48 JOB05954 ---- MONDAY,    22 MAR 2004 ----
 09.42.48 JOB05954  ICH70001I GG$PJG   LAST ACCESS AT 09:42:41 ON MONDAY, MARCH 22, 2004
 09.42.48 JOB05954  $HASP373 PJG#PAGE STARTED - INIT 3    - CLASS E - SYS SYSB
 09.42.48 JOB05954  ***  HCMD      STEP $$QUIET
 09.42.48 JOB05954  PURGE * Q=OUTPUT MULTIPLE
 09.42.48 JOB05954  JOB PJG#PAGE NOT IN OUTPUT QUEUE
 09.42.49 JOB05954  PJG#PAGE.$$QUIET .         RC=0008 TapeIO=0000 DiskIO=0000 CPU=  .01s Elapsed=68.71s
 09.42.50 JOB05954  PJG#PAGE.$CND    .         RC=Zero TapeIO=0000 DiskIO=0003 CPU=  .01s Elapsed=70.41s
 09.42.51 JOB05954  PJG#PAGE.$UNP    .         RC=Zero TapeIO=0000 DiskIO=0150 CPU=  .11s Elapsed=70.62s
 09.43.28 JOB05954  PJG#PAGE.ASM     .         RC=Zero TapeIO=0000 DiskIO=1330 CPU=17.83s Elapsed=71.35s
 09.43.33 JOB05954  PJG#PAGE.$EDIT   .         RC=Zero TapeIO=0000 DiskIO=0845 CPU= 3.15s Elapsed= 8.26s
 09.43.33 JOB05954  PJG#PAGE Ended.  Name=Module: PAGESERV               Total CPU=21.11s Elapsed=68.71s
 09.43.33 JOB05954
 09.43.33 JOB05954  Execution charges   Priority=Standard   Block=Day
 09.43.33 JOB05954
 09.43.33 JOB05954  CPU Usage         392.43         $243.30   Standard Processing Unit Equivalent
 09.43.33 JOB05954                                   =======
 09.43.33 JOB05954                                   $243.30   Total Job execution charge
 09.43.33 JOB05954
 09.43.33 JOB05954  See back separator page for print charges
 09.43.33 JOB05954
 09.43.33 JOB05954  $HASP395 PJG#PAGE ENDED  ASM=0
1        1 //PJG#PAGE JOB PJG$GG,'Module: PAGESERV',TIME=1,MSGCLASS=C              JOB05954
           /*JOBPARM HOLD=OUTPUT,LINES=50,CHARS=TN15,NOTIFY=YES
         2 //       EXEC PURGEOLD
         3 XXPURGEOLD PROC
           XX*
           XX* This proc is maintained by Jim Stosick
           XX*
         4 XX$$QUIET  EXEC PGM=HCMDX,PARM='PURGE * Q=OUTPUT MULTIPLE',
           XX         ACCT=(PURGEOLD,SYS3)
         5 //$CND   EXEC PGM=BILBO,REGION=512K,PARM='RECS=100'
         6 //STEPLIB  DD DSN=WYL.GG.ORV.LINKLIB,DISP=SHR
         7 //SYSPRINT DD SYSOUT=$
         8 //SYSUT1   DD DSN=WYL.GG.PJG.OBJ,DISP=OLD
         9 //SYSUT2   DD DSN=WYL.GG.PJG.OBJ,DISP=OLD
        10 //SYSIN    DD DUMMY
        11 //$UNP   EXEC PGM=WUNPRESS,PARM='NUM'
        12 //SYSPRINT DD SYSOUT=$
        13 //SYSUT1   DD DSN=WYL.GG.ORV.SOURCE(PAGESERV),DISP=SHR
        14 //SYSUT2   DD DSN=&&INPUT,DISP=(,PASS),UNIT=SYSDA,
           //            SPACE=(TRK,(25,25),RLSE),DCB=CARD
        15 //ASM    EXEC PGM=ASMA90,REGION=8M,COND=(0,NE,$UNP),
           //            PARM=('SYSPARM(PAGESERV),TERM,LANG(EN),OBJ',
           //          'LC(32500),XREF(SHORT),NODECK,NORLD,NODX,NOUS')
           //*STEPLIB  DD DSN=SYS1.SASMMOD1,DISP=SHR
        16 //SYSLIB   DD DSN=SYS3.DUMMYMAC,DISP=SHR,DCB=BLKSIZE=27920
        17 //         DD DSN=WYL.GG.ORV.MACLIB,DISP=SHR
        18 //         DD DSN=WYL.GG.SYS.MACLIB,DISP=SHR
        19 //SYSUT1   DD DSN=&&SYSUT1,UNIT=VIO,DISP=(,DELETE),
           //            SPACE=(4088,(500,250),,CONTIG,ROUND)
        20 //SYSTERM  DD SYSOUT=$
        21 //SYSPRINT DD DSN=&&PRINT,UNIT=SYSDA,DISP=(,PASS),
           //            SPACE=(6650,(250,250),RLSE),
           //            DCB=(BLKSIZE=6650,LRECL=133,RECFM=FB)
        22 //SYSLIN   DD DSN=WYL.GG.PJG.OBJ(PAGESERV),DISP=OLD
        23 //SYSUDUMP DD SYSOUT=A
        24 //SYSIN    DD DSN=&&INPUT,DISP=(OLD,DELETE)
        25 //$EDIT  EXEC PGM=ASMEDIT,REGION=1M,
           //            COND=EVEN,PARM='STMT,DATA'
        26 //STEPLIB  DD DSN=WYL.GG.SYS.LINKLIB,DISP=SHR
        27 //ASMOUT   DD DSN=&&PRINT,DISP=(OLD,DELETE)
        28 //SYSPRINT DD SYSOUT=A
        29 //SYSUDUMP DD SYSOUT=A
1 STMT NO. MESSAGE
         2 IEFC001I PROCEDURE PURGEOLD WAS EXPANDED USING SYSTEM LIBRARY SYS3.BETAPROC
        14 IGD01010I STORCLAS= TEMP STORGROUP =
        14 IGD01010I STORGRP=VIO ASSIGNED.
        19 IGD01010I STORCLAS= TEMP STORGROUP =
        19 IGD01010I STORGRP=VIO ASSIGNED.
        21 IGD01010I STORCLAS= TEMP STORGROUP =
        21 IGD01010I STORGRP=VIO ASSIGNED.
 ICH70001I GG$PJG   LAST ACCESS AT 09:42:41 ON MONDAY, MARCH 22, 2004
 IEF142I PJG#PAGE $$QUIET - STEP WAS EXECUTED - COND CODE 0008
 *********************************************************************************
 *   PJG#PAGE/$$QUIET /                    Return Code      0008                 *
 *   Region used      260K (16K user + 244K system)                              *
 *   Extended region  9352K (4K user + 9348K system)                             *
 *                                                                               *
 *   Paging              In      Out                                             *
 *   Private <-> Aux      0        0       CPU time (TCB)   00:00:00.01          *
 *   Private <-> Exp      0        0       CPU time (SRB)   00:00:00.00          *
 *   VIO                  0        0       Elapsed time    920:45:04.25          *
 *   Common               0      ---                                             *
 *                                                                               *
 *                                                                               *
 *   CPU Usage          0.18         $0.11  Standard Processing Unit Equivalent  *
 *                                   $0.11  Total Step execution charge          *
 *                                                                               *
 *    I/O count  DDname   Type Addr           I/O count  DDname   Type Addr      *
 *                         *** No I/O for this step ***                          *
 *********************************************************************************
 IEF373I STEP/$$QUIET /START 2004082.0942
 IEF374I STEP/$$QUIET /STOP  2004082.0942 CPU    0MIN 00.01SEC SRB    0MIN 00.00SEC VIRT    16K SYS   244K EXT       4K SYS    9348K
 IEF236I ALLOC. FOR PJG#PAGE $CND
 IEF237I 0401 ALLOCATED TO STEPLIB
 IEF237I JES2 ALLOCATED TO SYSPRINT
 IEF237I 04DC ALLOCATED TO SYSUT1
 IEF237I 04DC ALLOCATED TO SYSUT2
 IEF237I DMY  ALLOCATED TO SYSIN
 IEF142I PJG#PAGE $CND - STEP WAS EXECUTED - COND CODE 0000
 IEF285I   WYL.GG.ORV.LINKLIB                           KEPT
 IEF285I   VOL SER NOS= SYSB01.
 IEF285I   GG$PJG.PJG#PAGE.JOB05954.D0000101.?          SYSOUT
 IEF285I   WYL.GG.PJG.OBJ                               KEPT
 IEF285I   VOL SER NOS= SYSB05.
 IEF285I   WYL.GG.PJG.OBJ                               KEPT
 IEF285I   VOL SER NOS= SYSB05.
 *********************************************************************************
 *   PJG#PAGE/$CND    /                    Return Code      Zero                 *
 *   Region used      280K (16K user + 264K system)                              *
 *   Extended region  9392K (4K user + 9388K system)                             *
 *                                                                               *
 *   Paging              In      Out                                             *
 *   Private <-> Aux      0        0       CPU time (TCB)   00:00:00.01          *
 *   Private <-> Exp      0        0       CPU time (SRB)   00:00:00.00          *
 *   VIO                  0        0       Elapsed time    920:45:02.55          *
 *   Common               0      ---                                             *
 *                                                                               *
 *                                                                               *
 *   CPU Usage          0.18         $0.11  Standard Processing Unit Equivalent  *
 *                                   $0.11  Total Step execution charge          *
 *                                                                               *
 *    I/O count  DDname   Type Addr           I/O count  DDname   Type Addr      *
 *            3  STEPLIB  Disk 0401                   0  SYSPRINT      ----      *
 *            0  SYSUT1   Disk 04DC                   0  SYSUT2   Disk 04DC      *
 *            0  SYSIN         ----                                              *
 *********************************************************************************
 IEF373I STEP/$CND    /START 2004082.0942
 IEF374I STEP/$CND    /STOP  2004082.0942 CPU    0MIN 00.01SEC SRB    0MIN 00.00SEC VIRT    16K SYS   264K EXT       4K SYS    9388K
 IEF236I ALLOC. FOR PJG#PAGE $UNP
 IEF237I JES2 ALLOCATED TO SYSPRINT
 IEF237I 0402 ALLOCATED TO SYSUT1
 IGD101I SMS ALLOCATED TO DDNAME (SYSUT2  )
         DSN (SYS04082.T094248.RA000.PJG#PAGE.INPUT.H01   )
         STORCLAS (TEMP) MGMTCLAS (        ) DATACLAS (        )
         VOL SER NOS= SCR100
 IEF142I PJG#PAGE $UNP - STEP WAS EXECUTED - COND CODE 0000
 IEF285I   GG$PJG.PJG#PAGE.JOB05954.D0000102.?          SYSOUT
 IEF285I   WYL.GG.ORV.SOURCE                            KEPT
 IEF285I   VOL SER NOS= SYSB02.
 IGD106I SYS04082.T094248.RA000.PJG#PAGE.INPUT.H01    PASSED,    DDNAME=SYSUT2
 *********************************************************************************
 *   PJG#PAGE/$UNP    /                    Return Code      Zero                 *
 *   Region used      380K (108K user + 272K system)                             *
 *   Extended region  9468K (4K user + 9464K system)                             *
 *                                                                               *
 *   Paging              In      Out                                             *
 *   Private <-> Aux      0        0       CPU time (TCB)   00:00:00.10          *
 *   Private <-> Exp      0        0       CPU time (SRB)   00:00:00.01          *
 *   VIO                  0        0       Elapsed time    920:45:02.34          *
 *   Common               0      ---                                             *
 *                                                                               *
 *                                                                               *
 *   CPU Usage          1.87         $1.15  Standard Processing Unit Equivalent  *
 *                                   $1.15  Total Step execution charge          *
 *                                                                               *
 *    I/O count  DDname   Type Addr           I/O count  DDname   Type Addr      *
 *            0  SYSPRINT      ----                  13  SYSUT1   Disk 0402      *
 *          137  SYSUT2   Disk 038B                                              *
 *********************************************************************************
 IEF373I STEP/$UNP    /START 2004082.0942
 IEF374I STEP/$UNP    /STOP  2004082.0942 CPU    0MIN 00.10SEC SRB    0MIN 00.01SEC VIRT   108K SYS   272K EXT       4K SYS    9464K
 IEF236I ALLOC. FOR PJG#PAGE ASM
 IEF237I 0402 ALLOCATED TO SYSLIB
 IEF237I 0402 ALLOCATED TO
 IEF237I 04DC ALLOCATED TO
 IGD101I SMS ALLOCATED TO DDNAME (SYSUT1  )
         DSN (SYS04082.T094248.RA000.PJG#PAGE.SYSUT1.H01  )
         STORCLAS (TEMP) MGMTCLAS (        ) DATACLAS (        )
         VOL SER NOS= VIO
 IEF237I JES2 ALLOCATED TO SYSTERM
 IGD101I SMS ALLOCATED TO DDNAME (SYSPRINT)
         DSN (SYS04082.T094248.RA000.PJG#PAGE.PRINT.H01   )
         STORCLAS (TEMP) MGMTCLAS (        ) DATACLAS (        )
         VOL SER NOS= SCR100
 IEF237I 04DC ALLOCATED TO SYSLIN
 IEF237I JES2 ALLOCATED TO SYSUDUMP
 IGD103I SMS ALLOCATED TO DDNAME SYSIN
 IEF142I PJG#PAGE ASM - STEP WAS EXECUTED - COND CODE 0000
 IEF285I   SYS3.DUMMYMAC                                KEPT
 IEF285I   VOL SER NOS= SYSB02.
 IEF285I   WYL.GG.ORV.MACLIB                            KEPT
 IEF285I   VOL SER NOS= SYSB02.
 IEF285I   WYL.GG.SYS.MACLIB                            KEPT
 IEF285I   VOL SER NOS= SYSB05.
 IGD105I SYS04082.T094248.RA000.PJG#PAGE.SYSUT1.H01   DELETED,   DDNAME=SYSUT1
 IEF285I   GG$PJG.PJG#PAGE.JOB05954.D0000103.?          SYSOUT
 IGD106I SYS04082.T094248.RA000.PJG#PAGE.PRINT.H01    PASSED,    DDNAME=SYSPRINT
 IEF285I   WYL.GG.PJG.OBJ                               KEPT
 IEF285I   VOL SER NOS= SYSB05.
 IEF285I   GG$PJG.PJG#PAGE.JOB05954.D0000104.?          SYSOUT
 IGD105I SYS04082.T094248.RA000.PJG#PAGE.INPUT.H01    DELETED,   DDNAME=SYSIN
 *********************************************************************************
 *   PJG#PAGE/ASM     /                    Return Code      Zero                 *
 *   Region used      8480K (8192K user + 288K system)                           *
 *   Extended region  9968K (412K user + 9556K system)                           *
 *                                                                               *
 *   Paging              In      Out                                             *
 *   Private <-> Aux      0        0       CPU time (TCB)   00:00:17.75          *
 *   Private <-> Exp      0        0       CPU time (SRB)   00:00:00.08          *
 *   VIO                  0        0       Elapsed time    920:45:01.61          *
 *   Common               0      ---                                             *
 *                                                                               *
 *                                                                               *
 *   CPU Usage        332.81       $206.34  Standard Processing Unit Equivalent  *
 *                                 $206.34  Total Step execution charge          *
 *                                                                               *
 *    I/O count  DDname   Type Addr           I/O count  DDname   Type Addr      *
 *          163  SYSLIB   Disk 0402                   0  SYSLIB   Disk 0402      *
 *          164  SYSLIB   Disk 04DC                 746  SYSUT1   VIO  ----      *
 *            0  SYSTERM       ----                 842  SYSPRINT Disk 038B      *
 *           23  SYSLIN   Disk 04DC                   0  SYSUDUMP      ----      *
 *          138  SYSIN    Disk 038B                                              *
 *********************************************************************************
 IEF373I STEP/ASM     /START 2004082.0942
 IEF374I STEP/ASM     /STOP  2004082.0943 CPU    0MIN 17.75SEC SRB    0MIN 00.08SEC VIRT  8192K SYS   288K EXT     412K SYS    9556K
 IEF236I ALLOC. FOR PJG#PAGE $EDIT
 IEF237I 0402 ALLOCATED TO STEPLIB
 IGD103I SMS ALLOCATED TO DDNAME ASMOUT
 IEF237I JES2 ALLOCATED TO SYSPRINT
 IEF237I JES2 ALLOCATED TO SYSUDUMP
 IEF142I PJG#PAGE $EDIT - STEP WAS EXECUTED - COND CODE 0000
 IEF285I   WYL.GG.SYS.LINKLIB                           KEPT
 IEF285I   VOL SER NOS= SYSB02.
 IGD105I SYS04082.T094248.RA000.PJG#PAGE.PRINT.H01    DELETED,   DDNAME=ASMOUT
 IEF285I   GG$PJG.PJG#PAGE.JOB05954.D0000105.?          SYSOUT
 IEF285I   GG$PJG.PJG#PAGE.JOB05954.D0000106.?          SYSOUT
 *********************************************************************************
 *   PJG#PAGE/$EDIT   /                    Return Code      Zero                 *
 *   Region used      388K (116K user + 272K system)                             *
 *   Extended region  9472K (4K user + 9468K system)                             *
 *                                                                               *
 *   Paging              In      Out                                             *
 *   Private <-> Aux      0        0       CPU time (TCB)   00:00:03.06          *
 *   Private <-> Exp      0        0       CPU time (SRB)   00:00:00.09          *
 *   VIO                  0        0       Elapsed time    920:44:24.70          *
 *   Common               0      ---                                             *
 *                                                                               *
 *                                                                               *
 *   CPU Usage         57.37        $35.56  Standard Processing Unit Equivalent  *
 *                                  $35.56  Total Step execution charge          *
 *                                                                               *
 *    I/O count  DDname   Type Addr           I/O count  DDname   Type Addr      *
 *            2  STEPLIB  Disk 0402                 843  ASMOUT   Disk 038B      *
 *            0  SYSPRINT      ----                   0  SYSUDUMP      ----      *
 *********************************************************************************
 IEF373I STEP/$EDIT   /START 2004082.0943
 IEF374I STEP/$EDIT   /STOP  2004082.0943 CPU    0MIN 03.06SEC SRB    0MIN 00.09SEC VIRT   116K SYS   272K EXT       4K SYS    9468K
 *********************************************************************************
 *                                                                               *
 *                      S t a n f o r d   U n i v e r s i t y                    *
 *                                                                               *
 *                              *** Job Summary ***                              *
 *                                                                               *
 *   System Id      SYSB                   Input time     09:38:24  Mar 22, 2004 *
 *                                                                               *
 *   System Release SP6.1.0                Start time     09:42:48  Mar 22, 2004 *
 *                                                                               *
 *   Job name       PJG#PAGE               Stop  time     00:00:00  Mar 22, 2004 *
 *                                                                               *
 *   Account        PJG$GG                 Elapsed time  920:45:04.25            *
 *                                                                               *
 *   User Name      Module: PAGESERV       CPU time       00:00:20.93            *
 *                                                                               *
 *   Job class      E                      SRB Time       00:00:00.18            *
 *                                                                               *
 *********************************************************************************
 IEF375I  JOB/PJG#PAGE/START 2004082.0942
 IEF376I  JOB/PJG#PAGE/STOP  2004082.0943 CPU    0MIN 20.93SEC SRB    0MIN 00.18SEC
1Data set successfully converted from EDIT to FB format
1Assembler Done PAGESERV No Statements Flagged
1         High Level Assembler Option Summary                   (PTF UQ57391)                                               Page    1
-                                                                                            HLASM R4.0  2004/03/22 09.42
0  No Overriding ASMAOPT Parameters
   Overriding Parameters-  SYSPARM(PAGESERV),TERM,LANG(EN),OBJ,LC(32500),XREF(SHORT),NODECK,NORLD,NODX,NOUS
   No Process Statements


   Options for this Assembly
0  NOADATA
     ALIGN
   NOASA
     BATCH
     CODEPAGE(047C)
   NOCOMPAT
   NODBCS
 3 NODECK
 3 NODXREF
     ESD
   NOEXIT
     FLAG(0,ALIGN,CONT,NOIMPLEN,NOPAGE0,PUSH,RECORD,NOSUBSTR,USING0)
   NOFOLD
   NOGOFF
   NOINFO
 3   LANGUAGE(EN)
   NOLIBMAC
 3   LINECOUNT(32500)
     LIST(121)
     MXREF(SOURCE)
 3   OBJECT
     OPTABLE(UNI,NOLIST)
   NOPCONTROL
   NOPESTOP
   NOPROFILE
   NORA2
   NORENT
 3 NORLD
     RXREF
     SIZE(MAX)
 3   SYSPARM(PAGESERV)
 3   TERM(WIDE)
   NOTEST
     THREAD
   NOTRANSLATE
 3 NOUSING
 3   XREF(SHORT)

   No Overriding DD Names

1PAGESERV External Symbol Dictionary                                                                                        Page    2
-Symbol   Type   Id     Address  Length     LD ID  Flags Alias-of                            HLASM R4.0  2004/03/22 09.42
0PAGESERV  SD 00000001 00000000 0000A6E0             06
 PAGE00    LD          00000000           00000001
 PAGFAULT  LD          00000022           00000001
 VIRTABL4  LD          00000658           00000001
 PAGRV     LD          0000078C           00000001
 RESPT4    LD          00000818           00000001
 RESOLVE4  LD          00000956           00000001
 PAGIN4    LD          00000B3C           00000001
 PAGOUT4   LD          00000CA4           00000001
 IOSDOIO   ER 00000002
 PAGTERM   LD          00000E82           00000001
 PAGPRC4   LD          00001164           00000001
 PAGPWC4   LD          0000140A           00000001
 DISPPIOC  ER 00000003
 SIGNALAS  ER 00000004
 IOSTIME   ER 00000005
 PAGOSWAP  LD          00001698           00000001
 AKEROOM4  LD          00001866           00000001
 AGESWAP4  LD          000018D2           00000001
 SETSWAP4  LD          00001B0E           00000001
 ADDSWAP4  LD          00001D7C           00000001
 SWAPOUT4  LD          00001F64           00000001
 PAGOSEND  LD          00002094           00000001
 PAGSWADV  LD          000023A6           00000001
 DISPSHLD  ER 00000006
 ASSYSTSK  ER 00000007
 AWAITAS   ER 00000008
 DISPSIOC  ER 00000009
 PAGISWAP  LD          000024B2           00000001
 SWAPIN4   LD          000029C2           00000001
 AGISEND4  LD          00002AEE           00000001
 WAPIDON4  LD          00002C8C           00000001
 WAPILOG4  LD          000031DC           00000001
 SIFRAME4  LD          00003324           00000001
 SICBS4    LD          000034D8           00000001
 ALIDASN4  LD          00003588           00000001
 VALDASN4  LD          00003670           00000001
 PAGWSMAN  LD          0000374A           00000001
 DISPPTLB  ER 0000000A
 PAGFIX    LD          00003C68           00000001
 PAGUFIX   LD          00003D94           00000001
 PAGSFIX   LD          00003EB4           00000001
 PAGUSFIX  LD          00003FEA           00000001
 QFIX4     LD          000040DC           00000001
 QUFIX4    LD          00004194           00000001
 PAGPROT   LD          0000426E           00000001
 AGPROT24  LD          000042A4           00000001
 AGUPROT4  LD          0000436A           00000001
 PAGUPROT  LD          0000443C           00000001
 PAGTPTP   LD          00004488           00000001
 PAGTPROT  LD          000044CA           00000001
 PROTRAN4  LD          00004500           00000001
 PAGDEF    LD          00004838           00000001
 PAGUDEF   LD          00004A54           00000001
 PAGSEGD   LD          00004D38           00000001
1PAGESERV External Symbol Dictionary                                                                                        Page    3
 PAGUREF   LD          0000510E           00000001
 PAGHASH   LD          000053D4           00000001
 PAGPIOA   LD          00005538           00000001
 VMGET     ER 0000000B
 PAGASC1   LD          000055CE           00000001
 PAGASC2   LD          00005620           00000001
 PAGAST1   LD          00005968           00000001
 PAGAST2   LD          00005A58           00000001
 RAMTERM4  LD          00005C5E           00000001
 CPLOCK    ER 0000000C
 CPULOCK   ER 0000000D
 LKDEL     ER 0000000E
 VMFREE    ER 0000000F
 RAMEGET4  LD          00005F92           00000001
 RAMEREL4  LD          000064D6           00000001
 XPGET4    LD          00006646           00000001
 SWPGET4   LD          00006776           00000001
 XPREL4    LD          0000686A           00000001
 SWPREL4   LD          0000694C           00000001
 BLKDSID4  LD          00006A0A           00000001
 BMALLOC4  LD          00006AD6           00000001
 BMFREE4   LD          00006D10           00000001
 ASNGET4   LD          00006E42           00000001
 ASNFREE4  LD          00007010           00000001
 CELLGET4  LD          00007154           00000001
 ELLFREE4  LD          000071F8           00000001
 CELLALL4  LD          0000728A           00000001
 ELLDALL4  LD          00007390           00000001
 IOSIDGET  ER 00000010
 PAGWAIT4  LD          00007452           00000001
 AKELOOK4  LD          000075A0           00000001
 RESWAKE4  LD          00007692           00000001
 PCBINIT4  LD          0000775A           00000001
 AGSGINI4  LD          0000782A           00000001
 AGPGINI4  LD          00007888           00000001
 ASNINIT4  LD          000078DA           00000001
 PAGASTI4  LD          000079DE           00000001
 PAGINTV   LD          00007A6A           00000001
 PAGSMF    LD          00007E40           00000001
 LKCRE     ER 00000011
 PFINIT4   LD          00008054           00000001
 VMDEFSET  ER 00000012
 PAGINIT   LD          00008834           00000001
 OCKDUMM4  LD          000090EA           00000001
 NITRESL4  LD          000092BE           00000001
 PAGINIT2  LD          000093FC           00000001
 IOSIDFRE  ER 00000013
 LKOB      ER 00000014
 LKREL     ER 00000015
 ACREATE   ER 00000016
 PAGOPEN4  LD          00009546           00000001
 SEGINIT   ER 00000017
 SEG       ER 00000018
 SEGHEX    ER 00000019
 SEGCLR    ER 0000001A
 SWPOPEN4  LD          00009D9A           00000001
 TRCD4     LD          0000A608           00000001

1PAGESERV MP-ORVYL Real Memory / Paging Manager Services                                                                    Page    4
0Loc    Object Code    Addr1 Addr2  Stmt Lv Lineno    Source Statement                    (Asmedit 3.3)  HLASM R4.0  2004/03/22 09.42
+___    ______ ____    _____ _____  ____ __ ______    ______ _________
0                                      2       2.              COPY  HEADER
                                       3             =*********************************************************************
                                       4             =*                                                                   *
                                       5             =*                                                                   *
                                       6             =*                          M P - O R V Y L                          *
                                       7             =*                                                                   *
                                       8             =*       ORVYL - Release 5.0 - Class I - Stanford Proprietary        *
                                       9             =*                                                                   *
                                      10             =*                                                                   *
                                      11             =*********************************************************************
-
-                                     13             =         SPLEVEL SET=2
                                      16             =         HIBAL ASSOC=YES
-
                                     998             =*
                                     999             =* REGISTER CONVENTIONS (USE ONLY THE SYMBOLS)
                                    1000             =*
                                    1001             =*                     CLASS  USAGE
                                    1002             =*                     -----  -----------------------------
                                    1003             =RVR      REG   0        1    RETURN VALUE REGISTER
                                    1015             =RS       REG   1        *    SCRATCH
                                    1027             =RA       REG   2        *    SCRATCH
                                    1039             =RB       REG   3        *    SCRATCH
                                    1051             =RJ       REG   4        *    SCRATCH
                                    1063             =RK       REG   5        *    SCRATCH
                                    1075             =RX       REG   6        *    SCRATCH
                                    1087             =RY       REG   7        *    SCRATCH
                                    1099             =RM       REG   8        *    SCRATCH
                                    1111             =RN       REG   9        *    SCRATCH (In Guest)
                                    1123             =RTCBR    REG   9        -    POINTER TO THE RTCB (In Host)
                                    1135             =BR       REG   10       -    FIRST BASE REGISTER
                                    1147             =BRR      REG   11       -    SECOND BASE REGISTER
                                    1159             =WAR      REG   12       -    WORK AREA POINTER
                                    1171             =SPR      REG   13       -    STACK TOP POINTER
                                    1183             =RAR      REG   14       1    RETURN ADDRESS REGISTER
                                    1195             =EPAR     REG   15       1    ENTRY POINT ADDRESS
                                    1207             =*
                                    1208             =*      CLASS   MEANING
                                    1209             =*      -----   --------------------------------------------------
                                    1210             =*        *     Register may be freely used for scratch
                                    1211             =*        -     Register may not be used
                                    1212             =*        1     Available but may change on subroutine calls
                                    1213             =*
1PAGESERV MP-ORVYL Real Memory / Paging Manager Services                                                                    Page    5
0D-Loc  Object Code    Addr1 Addr2  Stmt Lv Lineno    Source Statement           (Hibal 5, Asmedit 3.3)  HLASM R4.0  2004/03/22 09.42
+_____  ______ ____    _____ _____  ____ __ ______    ______ _________
0                                   1215       3.     RPCB     REG   RY                      For addressing the PCB
                                    1227       4.     RPAG     REG   RX                      For addressing the PAGSERV CB
                                    1239       5.     RCPCB    REG   RK                      For addressing the common PCB
0                                   1252       7.              COPY  VSWAP                   Do virtual swaps?
                                    1253             =         GBLB  &VSWAP
                                    1254             =&VSWAP   SETB  1
0                                   1256       9.              COPY  VLEN                    Virtual len swaps?
                                    1257             =         GBLB  &VLEN
                                    1258             =&VLEN    SETB  1                       Variable len swap ds's
0                                   1260      11.              DEFCC VAOK,8                  Virtual addr OK (LRA)
                                    1261      12.              DEFCC SEGI,4                  Segment table entry invalid
                                    1262      13.              DEFCC PAGI,2                  Page table entry invalid
                                    1263      14.              DEFCC SPLI,1                  Segment/Page tbl len invalid
                                    1264      15.              DEFCC VAXI,6                  Virtual addr translation
                                    1265      16.     *                                      Either page/segment invalid
0                                   1267      18.              DEFCC NOREF,8                 Frame not referenced/changed
                                    1268      19.              DEFCC OCHG,4                  Frame changed
                                    1269      20.              DEFCC OREF,2                  Frame referenced
                                    1270      21.              DEFCC REFCH,1                 Frame referenced & changed
                                    1271      22.              DEFCC REF,3                   Frame referenced
                                    1272      23.              DEFCC CHG,5                   Frame changed
0000000                00000 0A6E0  1274      25.     PAGESERV MODULE TRCNUM=4
                                    1284             +*
                                    1285    02-IDENT +         ENTRY PAGE00
                                    1286             +
 000000 14D7C1C7C5F0F06B            1287    02-IDENT +PAGE00   DC    AL1(20),C'PAGE00,22MAR04,09:42'
                                    1288             +*
1PAGESERV (PAGE00) (09:42) (22MAR04) MP-ORVYL Real Memory / Paging Manager Services                                         Page    6
0Loc    Object Code    Addr1 Addr2  Stmt Lv Lineno    Source Statement           (Hibal 5, Asmedit 3.3)  HLASM R4.0  2004/03/22 09.42
+___    ______ ____    _____ _____  ____ __ ______    ______ _________
0                                   1291      27.     *  Notes on muliple faults in one AS:
                                    1292      28.     *    Need a PCB extension per task
                                    1293      29.     *    PIO completion must be signaled with a PID, not just an ASB
                                    1294      30.     *    Page fault resolve notes:
                                    1295      31.     *     BEFORE any routines that could wait (and release the local
                                    1296      32.     *        PAGING lock) the page fault routines must:
                                    1297      33.     *      set the real address of the frame in PGAD
                                    1298      34.     *        any subsequent faults seeing "fault handled" will use this
                                    1299      35.     *        real address to find the waiting PCB and queue itself up
                                    1300      36.     *      short term fixes for page table should be incremented
                                    1301      37.     *        if not incremented, then the page table could be trimmed
                                    1302      38.     *        from the working set if no pages were set as active in it
                                    1303      39.     *      flag set for page fault handled
                                    1304      40.     *  PAGESERV:
                                    1305      41.     *    PTLB considerations
                                    1306      42.     *     If a segment table is swapped out, and is then reused as
                                    1307      43.     *     a segment table for another address space on a CPU which
                                    1308      44.     *     hasn't purged its TLB, the DAT process could be in error.
                                    1309      45.     *  Optimizations:
                                    1310      46.     *    Could PAGWAIT use cell ECB for some waits & be task based?
                                    1311      47.     *    SWAP on pages
1PAGESERV (PAGE00) (09:42) (22MAR04) MP-ORVYL Real Memory / Paging Manager Services                                         Page    7
0Loc    Object Code    Addr1 Addr2  Stmt Lv Lineno    Source Statement           (Hibal 5, Asmedit 3.3)  HLASM R4.0  2004/03/22 09.42
+___    ______ ____    _____ _____  ____ __ ______    ______ _________
0                                   1313      49.     *                     PAGE/SEGMENT FAULT NOTES
                                    1314      50.     *
                                    1315      51.     *   When a page I/O is in progress, the page table entry is marked
                                    1316      52.     * as "in I/O", using one of the available software flags in the
                                    1317      53.     * page table entry (PGTFIO).
                                    1318      54.     *   When a segment I/O is in progress, the shadow segment table is
                                    1319      55.     * marked as "in I/O" using the SSTFIO flag.
                                    1320      56.     *   Page tables also have virtual addresses, and the page table entry
                                    1321      57.     * for a page table's virtual address is marked to show that this
                                    1322      58.     * is a page table page (PGTFPGT).
                                    1323      59.     *   If a page fault occurs on a page that is "in I/O", the page
                                    1324      60.     * table entry contains the frame address of the I/O.  The faulting
                                    1325      61.     * process should look in the page frame table for the I/O control
                                    1326      62.     * block, and queue itself up as a waiting process.
                                    1327      63.     *   Page faults on pages not "in I/O" are handled differently for
                                    1328      64.     * normal pages and page table pages.  For non page table pages
                                    1329      65.     * the shadow page table holds the external block number, the
                                    1330      66.     * page in is requested, and the page table entry is marked as
                                    1331      67.     * "in I/O".
                                    1332      68.     *   Page faults on page table pages (not "in I/O") have
                                    1333      69.     * to deal with fixing up segment table entries as well as page
                                    1334      70.     * table entries.  Because of this, when a page table is not
                                    1335      71.     * in main store, the frame address is set to the segment number
                                    1336      72.     * that this page table represents.  For example, the page table for
                                    1337      73.     * segment 5 will have a page table entry like X'005004xx'.  This
                                    1338      74.     * indicates an invalid page, but the software flag that says it's
                                    1339      75.     * a page table page indicates that the frame address is
                                    1340      76.     * significant.
                                    1341      77.     *   When a page table is not in core, the segment table entry is set
                                    1342      78.     * to the virtual address of the page table.  A segment fault uses
                                    1343      79.     * this address to set the page table entry as "in I/O", as well
                                    1344      80.     * as setting the
                                    1345      81.     *
                                    1346      82.     *                        SWAP flags and Frame counts
                                    1347      83.     *
                                    1348      84.     *  Each PCB has flags that indicate the swap in/out status of
                                    1349      85.     *  an address space, and whether it's frames have been reused
                                    1350      86.     *  after a swap out.
                                    1351      87.     *
                                    1352      88.     *    PCBFSOUT  indicates that the address space is considered
                                    1353      89.     *              swapped out by the dispatcher (and not requested
                                    1354      90.     *              to be brought back in)
                                    1355      91.     *    PCBFISOUT indicates that the address space is considered out
                                    1356      92.     *              by the paging/swapping manager
                                    1357      93.     *    PCBFRSIN  indicates that a swap-in was requested before
                                    1358      94.     *              the swap-out I/O completed, and the request
                                    1359      95.     *              will be handled at the swap-out I/O completion.
                                    1360      96.     *
                                    1361      97.     *    MATPAGFN  This number is managed by PAGESERV and looked at
                                    1362      98.     *              by DISPATCH.  The number is computed absolutely
                                    1363      99.     *              when an address space is sent out by the dispatcher
                                    1364     100.     *              (PAGOSWAP), and when a swap out segment finishes
                                    1365     101.     *              it's I/O (PAGOSEND).  Otherwise the MATPAGFN number
                                    1366     102.     *              is simply computed as a difference between its
                                    1367     103.     *              old value and a specific delta.
                                    1368     104.     *
1PAGESERV (PAGE00) (09:42) (22MAR04) MP-ORVYL Real Memory / Paging Manager Services                                         Page    8
0Loc    Object Code    Addr1 Addr2  Stmt Lv Lineno    Source Statement           (Hibal 5, Asmedit 3.3)  HLASM R4.0  2004/03/22 09.42
+___    ______ ____    _____ _____  ____ __ ______    ______ _________
0                                   1369     105.     *                        PAGESERV LOCK NOTES
                                    1370     106.     * 1) Local address space lock
                                    1371     107.     *    Location: PCBLOCK
                                    1372     108.     *    Prio:     This lock is usually the first to be obtained when
                                    1373     109.     *              doing management of an address space's real memory.
                                    1374     110.     *              If the global lock is to be held too, this lock must
                                    1375     111.     *              be obtained first.
                                    1376     112.     *    Use:      This lock serializes the manipulation of all segment
                                    1377     113.     *              and page tables (hardware and shadow) for the
                                    1378     114.     *              local section of this address space, and the
                                    1379     115.     *              manipulation of page frame table entries (PFTEs)
                                    1380     116.     *              that are linked on this PCB as used frames.
                                    1381     117.     *              Flags and other entries in the PCB are also
                                    1382     118.     *              serialized by this lock.  The exception is the flag
                                    1383     119.     *              for frames of a swapped address space.  This flag is
                                    1384     120.     *              governed by the Frames lock.
                                    1385     121.     * 2) Common address space lock
                                    1386     122.     *    Location: PCBLOCK in ASB pointed to by PAGCASB
                                    1387     123.     *    Prio:     If a local lock is to be held too, the local lock must
                                    1388     124.     *              be obtained first.
                                    1389     125.     *    Use:      This lock serializes the manipulation of all segment
                                    1390     126.     *              and page tables (hardware and shadow) for the common
                                    1391     127.     *              section of all address spaces, the manipulation of
                                    1392     128.     *              fields within the common PCB, and the manipulation of
                                    1393     129.     *              page frame table entries (PFTEs) that are linked on
                                    1394     130.     *              the ASB as used frames.
                                    1395     131.     * 3) Free frames lock
                                    1396     132.     *    Location: PAGFRAL
                                    1397     133.     *    Prio:     If this lock is to be held concurrently with another
                                    1398     134.     *              AS lock, the other AS lock must be held first, unless
                                    1399     135.     *              the AS lock is obtained for an AS being swapped in.
                                    1400     136.     *    Use:      This lock serializes the manipulation of the free
                                    1401     137.     *              frames pool.
                                    1402     138.     * 4) Swap control lock
                                    1403     139.     *    Location: PAGSWAPL
                                    1404     140.     *    Prio:     If this lock is to be held concurrently with another
                                    1405     141.     *              AS lock, the other AS lock must be held first.
                                    1406     142.     *    Use:      This lock serializes the manipulation of swapped out
                                    1407     143.     *              address spaces, and whether or not they own frames.
                                    1408     144.     *              This lock governs the swap flags in a
                                    1409     145.     *              PCB (PCBSFLG). This lock is used for manipulating the
                                    1410     146.     *              queues of swapped out address spaces and the frame
                                    1411     147.     *              counts represented by those queues.
                                    1412     148.     * 5) ASN maniuplation lock
                                    1413     149.     *    Location: PAGASNL
                                    1414     150.     *    Prio:     If this lock is to be held concurrently with another
                                    1415     151.     *              PAGESERV lock (PCBLOCK or otherwise) the other lock
                                    1416     152.     *              must be held first.
                                    1417     153.     *    Use:      This lock serializes the manipulation the ASN tables.
1PAGESERV (PAGE00) (09:42) (22MAR04) PAGESERV - Local macros                                                                Page    9
0Loc    Object Code    Addr1 Addr2  Stmt Lv Lineno    Source Statement           (Hibal 5, Asmedit 3.3)  HLASM R4.0  2004/03/22 09.42
+___    ______ ____    _____ _____  ____ __ ______    ______ _________
0                                   1419     155.              COPY  LISTPARM
                                    1420             =*   A list header block is used to control access to a chain
                                    1421             =* of resources.  All elements which are to be linked together on
                                    1422             =* these doubly linked circular lists must have the elements
                                    1423             =* first word be space for a forward list pointer, and the second
                                    1424             =* word space for a backward list pointer.
 000000                00000 0000C  1425             =LHEAD    RECORD BEGIN                  List descriptor
                                    1433  1          =           LHEAD PFX=LH
 000000                             1434  1 01-LHEAD +LHFP       DS    A                       Forward pointer
 000004                             1435  1 01-LHEAD +LHBP       DS    A                       Backward pointer
 000008                             1436  1 01-LHEAD +LHCNT      DS    A                       Number of elements in list
 00000C                0000C 0000C  1437             =         END   ,
0000000                00000 00008  1447             =LELEM    RECORD BEGIN                  Common start of list items
                                    1455  1          =           LELEM PFX=L
 000000                             1456  1 01-LELEM +LFP        DS    A                       Forward pointer
 000004                             1457  1 01-LELEM +LBP        DS    A                       Backward pointer
 000008                00008 00008  1458             =         END   ,
0000000                00000 00010  1468             =@LADD    RECORD BEGIN                  Add items to a list
 000000                             1476  1          =@LAHEAD    DS    A                       Header block of list
 000004                             1477  1          =@LA1ST     DS    A                       First item being added
 000008                             1478  1          =@LALAST    DS    A                       Last item being added
 00000C                             1479  1          =@LACNT     DS    A                       Number of items being added
 000010                00010 00010  1480             =         END   ,
0000000                00000 00010  1490             =@LREM    RECORD BEGIN                  Remove items from a list
 000000                             1498  1          =@LRHEAD    DS    A                       Header block of list
 000004                             1499  1          =@LR1ST     DS    A                       First item being removed
 000008                             1500  1          =@LRCNT     DS    A                       Number of items being removed
                                    1501  1          =* -- Return Parms --
 00000C                             1502  1          =@LRLAST    DS    A                       Last item removed
 000010                00010 00010  1503             =         END   ,
1PAGESERV (PAGE00) (09:42) (22MAR04) PAGESERV - Local macros                                                                Page   10
0Loc    Object Code    Addr1 Addr2  Stmt Lv Lineno    Source Statement           (Hibal 5, Asmedit 3.3)  HLASM R4.0  2004/03/22 09.42
+___    ______ ____    _____ _____  ____ __ ______    ______ _________
0                                   1513     157.              COPY  LSTMAC
                                    1514             =         PRINT OFF
                                    1558             =*********************************************************************
                                    1559             =*   Add elements to a list
                                    1560             =*
                                    1561             =*   Input
                                    1562             =*
                                    1563             =* &L  LADD     &HEAD,&FIRST,&FLAST,&FCOUNT,&WR=,&WR2=RAR,&WR3=EPAR
                                    1564             =*     &HEAD    is a pointer the head of the list (defop = LA)
                                    1565             =*     &FIRST   first element to be added to the list
                                    1566             =*     &FLAST   last element to be added (if not specified, assuming
                                    1567             =*              only one)
                                    1568             =*     &FCOUNT  count of elements being added (shouldn't be specified
                                    1569             =*              for only one add)
                                    1570             =*     &WR
                                    1571             =*     &WR2     Registers for scratch
                                    1572             =*     &WR3
                                    1573             =*
                                    1574             =*   Output
                                    1575             =*
                                    1576             =*     No parameter registers are modified
                                    1577             =*
                                    1578             =*********************************************************************
                                    1579             =         PRINT OFF
-
0                                   1674             =*********************************************************************
                                    1675             =*   Remove elements from a list
                                    1676             =*
                                    1677             =*   Input
                                    1678             =*
                                    1679             =* &L  LREM     &HEAD,&FFIRST,&FCOUNT,&LAST=,&WR=,&WR2=RAR,&WR3=EPAR
                                    1680             =*
                                    1681             =*     &HEAD    is a pointer the head of the list (defop = LA)
                                    1682             =*     &FFIRST  first element to be removed from the list (if not
                                    1683             =*              specified then take the first on the list)
                                    1684             =*     &LAST    last element removed (must be specified for multiple
                                    1685             =*              removes, must not be specified for single remove)
                                    1686             =*     &FCOUNT  count of elements to be removed (shouldn't be
                                    1687             =*              specified for single remove)
                                    1688             =*     &WR
                                    1689             =*     &WR2     Registers for scratch
                                    1690             =*     &WR3
                                    1691             =*
                                    1692             =*   Output
                                    1693             =*
                                    1694             =*     RVR      contains the address of the first element on the list
                                    1695             =*     No parameter registers are modified
                                    1696             =*
                                    1697             =*********************************************************************
                                    1698             =         PRINT OFF
-
1PAGESERV (PAGE00) (09:42) (22MAR04) PAGESERV - Local macros                                                                Page   11
0Loc    Object Code    Addr1 Addr2  Stmt Lv Lineno    Source Statement           (Hibal 5, Asmedit 3.3)  HLASM R4.0  2004/03/22 09.42
+___    ______ ____    _____ _____  ____ __ ______    ______ _________
0                                   1840             =*********************************************************************
                                    1841             =*   Remove all elements from a list
                                    1842             =*
                                    1843             =*   Input
                                    1844             =*
                                    1845             =* &L  LREMALL  &HEAD,&COUNT=,&LAST=,&WR=
                                    1846             =*
                                    1847             =*     &HEAD    is a pointer the head of the list (defop = LA)
                                    1848             =*     &LAST    returns last element removed (must be specified)
                                    1849             =*     &COUNT   returns count of elements in list
                                    1850             =*
                                    1851             =*     &WR      Register for scratch
                                    1852             =*
                                    1853             =*   Output
                                    1854             =*
                                    1855             =*     RVR      contains the address of the first element on the list
                                    1856             =*
                                    1857             =*     No parameter registers are modified
                                    1858             =*
                                    1859             =*********************************************************************
                                    1860             =         PRINT OFF
1PAGESERV (PAGE00) (09:42) (22MAR04) PAGESERV - Local macros                                                                Page   12
0Loc    Object Code    Addr1 Addr2  Stmt Lv Lineno    Source Statement           (Hibal 5, Asmedit 3.3)  HLASM R4.0  2004/03/22 09.42
+___    ______ ____    _____ _____  ____ __ ______    ______ _________
0                                   1947             =*********************************************************************
                                    1948             =*   Move an element to the end of a list
                                    1949             =*
                                    1950             =*   Input
                                    1951             =*
                                    1952             =* &L  LLRU     &HEAD,&ELEM,&WR=,&WR2=RAR,&WR3=EPAR
                                    1953             =*
                                    1954             =*     &HEAD    is a pointer the head of the list (defop = LA)
                                    1955             =*     &ELEM    element to be put at the end of the list
                                    1956             =*     &WR
                                    1957             =*     &WR2     Registers for scratch
                                    1958             =*     &WR3
                                    1959             =*
                                    1960             =*   Output
                                    1961             =*
                                    1962             =*     No parameter registers are modified
                                    1963             =*
                                    1964             =*********************************************************************
                                    1965             =         PRINT OFF
0                                   2053             =         MACRO
                                    2054             =         LSTCHK &HEAD
                                    2055             =         MEXIT
                                    2056             =         PSET  @LSTCHK,CLEAR=NO
                                    2057             =        $LA    EPAR,&HEAD
                                    2058             =         ST    EPAR,@LCHEAD
                                    2059             =         ACALL LSTCHK
                                    2060             =         MEND
1PAGESERV (PAGE00) (09:42) (22MAR04) PAGESERV - Local macros                                                                Page   13
0Loc    Object Code    Addr1 Addr2  Stmt Lv Lineno    Source Statement           (Hibal 5, Asmedit 3.3)  HLASM R4.0  2004/03/22 09.42
+___    ______ ____    _____ _____  ____ __ ______    ______ _________
0                                   2062     159.              MACRO
                                    2063     160.     &L       LKOB  &LOCK
                                    2064     161.     .*
                                    2065     162.     .* AUTOMATE THE CALLING SEQUENCE FOR LOCKOB
                                    2066     163.     .*
                                    2067     164.     &L       PSET  @LOCKS,CLEAR=NO
                                    2068     165.              PMOV  @LOCKID,&LOCK
                                    2069     166.              ACALL PAGLKOB
                                    2070     167.              MEND
0                                   2072     169.              MACRO
                                    2073     170.     &L       LKREL &LOCK
                                    2074     171.     .*
                                    2075     172.     .* AUTOMATE THE CALLING SEQUENCE FOR LOCKRL
                                    2076     173.     .*
                                    2077     174.     &L       PSET  @LOCKS,CLEAR=NO
                                    2078     175.              PMOV  @LOCKID,&LOCK
                                    2079     176.              ACALL PAGLKREL
                                    2080     177.              MEND
0                                   2082     179.              MACRO
                                    2083     180.     &L       SLKOB &LOCK,&PSWM             Get spin lock - disabling
                                    2084     181.     &L       STNSM &PSWM,DISABLE           Only leave DAT on
                                    2085     182.              LKOB  &LOCK
                                    2086     183.              MEND
0                                   2088     185.              MACRO
                                    2089     186.     &L       SLKRL &LOCK,&PSWM             Release spin lock - reenable
                                    2090     187.     &L       LKREL &LOCK
                                    2091     188.              SSM   &PSWM
                                    2092     189.              MEND
0                                   2094     191.              MACRO
                                    2095     192.     &L       PAGNTRY &TYPE,&MASK,&FLG
                                    2096     193.              GBLC  &$PROC
                                    2097     194.              LCLC  &SYNC
                                    2098     195.              AIF   ('&TYPE' EQ 'SYNC').OK,('&TYPE' EQ 'ASYNC').OK
                                    2099     196.              MNOTE 8,'&TYPE is invalid, must be ASYNC or SYNC'
                                    2100     197.     .OK      ANOP  ,
                                    2101     198.              MNOTE *,'Disable, get PCB lock, and save lock flags'
                                    2102     199.              AIF   ('&TYPE' EQ 'ASYNC').NOTSYNC
                                    2103     200.     &SYNC    SETC  '*PCBFSYNC'
                                    2104     201.     .NOTSYNC ANOP  ,
                                    2105     202.     &L       SLKOB PCBLOCK,&MASK           Get local lock
                                    2106     203.              MVC   &FLG,PCBLOCKF           | save old flags
                                    2107     204.              SET   (PCBFLCL&SYNC,EQ)
                                    2108     205.              IF    PCBFGBLC,'SET (PCBFGBL&SYNC,EQ)' this IS global AS
                                    2109     206.              MEND  ,
0                                   2111     208.              MACRO
                                    2112     209.     &L       PAGXIT &TYPE,&MASK,&FLG,&CPCB=,&WR=
                                    2113     210.              GBLB  &$OK
                                    2114     211.              GBLA  &$REG#
                                    2115     212.              LCLA  &USREG
                                    2116     213.              LCLB  &SYNC
                                    2117     214.              LCLC  &COMPCB                 Common PCB register
1PAGESERV (PAGE00) (09:42) (22MAR04) PAGESERV - Local macros                                                                Page   14
0Loc    Object Code    Addr1 Addr2  Stmt Lv Lineno    Source Statement           (Hibal 5, Asmedit 3.3)  HLASM R4.0  2004/03/22 09.42
+___    ______ ____    _____ _____  ____ __ ______    ______ _________
0                                   2118     215.              AIF   ('&TYPE' EQ 'SYNC').OK,('&TYPE' EQ 'ASYNC').OK
                                    2119     216.              MNOTE 8,'&TYPE is invalid, must be ASYNC or SYNC'
                                    2120     217.     .OK      ANOP  ,
                                    2121     218.              AIF   ('&TYPE' NE 'SYNC').AFLG
                                    2122     219.     &SYNC    SETB  1
                                    2123     220.     .AFLG    ANOP
                                    2124     221.     .*
                                    2125     222.              MNOTE *,'Restore old lock flags, free PCB lock, and enable'
                                    2126     223.     &COMPCB  SETC  '&CPCB'
                                    2127     224.     &L       DS    0H
                                    2128     225.              IC    &WR,PCBLOCKF
                                    2129     226.              MVC   PCBLOCKF,&FLG           Restore previous locks
                                    2130     227.              STC   &WR,&FLG
                                    2131     228.              IF    &FLG..PCBFGBL,BEGIN     Global lock held?
                                    2132     229.     .*
                                    2133     230.     .*  Get global PCB addressability
                                    2134     231.     .*
                                    2135     232.              AIF   ('&COMPCB' NE '').INREGAS
                                    2136     233.              L     RCPCB,PAGCASB
                                    2137     234.              WITH  (ASB,RCPCB),'L RCPCB,ASBPAGB'
                                    2138     235.     &COMPCB  SETC  'RCPCB'
                                    2139     236.     .*
                                    2140     237.     .*  Only use a WITH statement if the PCB does not have an active
                                    2141     238.     .*  using, or the using is with a register other than the one
                                    2142     239.     .*  specified
                                    2143     240.     .*
                                    2144     241.     .INREGAS $USLKUP ASBPCB
                                    2145     242.              AIF   (NOT &$OK).USEAS
                                    2146     243.     &USREG   SETA  &$REG#
                                    2147     244.              $RGLKUP &COMPCB
                                    2148     245.              AIF   (NOT &$OK).USEAS
                                    2149     246.              AIF   (&USREG NE &$REG#).USEAS
                                    2150     247.              LKREL PCBLOCK
                                    2151     248.              AGO   .NOUSEAS
                                    2152     249.     .USEAS   WITH  (ASBPCB,&COMPCB),'LKREL PCBLOCK' Free lock
                                    2153     250.     .NOUSEAS ANOP  ,
                                    2154     251.              END   ,                       OF Global lock held?
                                    2155     252.              IF    &FLG..PCBFLCL,BEGIN     Local lock held?
                                    2156     253.              LKREL PCBLOCK                 Free lock
                                    2157     254.              END   ,                       OF Local lock held?
                                    2158     255.              SSM   &MASK                   Reset the system mask - enable
                                    2159     256.              MEND  ,
0                                   2161     258.              MACRO
                                    2162     259.     &L       PAGAD &REG,&BEGIN             Get addr to PAG ctl block
                                    2163     260.              USING PZERO,R0
                                    2164     261.     &L       L     &REG,PZMATP
                                    2165     262.              DROP  R0
                                    2166     263.              WITH  (MAT,&REG),'L &REG,MATPAGCB'
                                    2167     264.              AIF   ('&BEGIN' NE 'BEGIN').NOBLK
                                    2168     265.              WITH  (PAGCB,&REG),BEGIN
                                    2169     266.              MEXIT ,
                                    2170     267.     .NOBLK   WITH  (PAGCB,&REG)
                                    2171     268.              MEND
0                                   2173     270.              MACRO
1PAGESERV (PAGE00) (09:42) (22MAR04) PAGESERV - Local macros                                                                Page   15
0Loc    Object Code    Addr1 Addr2  Stmt Lv Lineno    Source Statement           (Hibal 5, Asmedit 3.3)  HLASM R4.0  2004/03/22 09.42
+___    ______ ____    _____ _____  ____ __ ______    ______ _________
0                                   2174     271.     &L       PAGPRC &RA,&PCB,&PCBC,&IOCB
                                    2175     272.     &L       PSET  @PAGPIOC
                                    2176     273.              PMOV  @PCRA,&RA               Real frame address
                                    2177     274.              PMOV  @PCPCB,&PCB             PCB that owns frame
                                    2178     275.              PMOV  @PCPCBC,&PCBC           PCB in control
                                    2179     276.              AIF   ('&IOCB' EQ '').NOIOCB
                                    2180     277.              PMOV  @PCIOCB,&IOCB           I/O Control block
                                    2181     278.     .NOIOCB  ANOP  ,
                                    2182     279.              ACALL PAGPRC
                                    2183     280.              MEND  ,
0                                   2185     282.              MACRO
                                    2186     283.     &L       VIRTABL &VA,&PCB
                                    2187     284.     &L       PSET  @VIRTABL
                                    2188     285.              PMOV  @VPVA,&VA
                                    2189     286.              PMOV  @VPPCB,&PCB
                                    2190     287.              ACALL VIRTABL
                                    2191     288.              MEND
0                                   2193     290.              MACRO
                                    2194     291.     &L       RTOV  &ADDR                   Real to Virtual
                                    2195     292.     &L       LABEL ,
                                    2196     293.              PSET  @PAGRV
                                    2197     294.              PMOV  @PAGRVAD,&ADDR          Real address
                                    2198     295.              ACALL PAGRV
                                    2199     296.              MEND
0                                   2201     298.              MACRO
                                    2202     299.     &L       QSFIX &FRAME,&PFTE=           Short term fix
                                    2203     300.     &L       LABEL ,
                                    2204     301.             $L     EPAR,&FRAME
                                    2205     302.              SRL   EPAR,L'PAGPAGM
                                    2206     303.              SLL   EPAR,PFTLOG
                                    2207     304.              AL    EPAR,PAGPFTO
                                    2208     305.              WITH  (PFTE,EPAR),BEGIN
                                    2209     306.              INCR  RAR,PFTSFIX
                                    2210     307.              END   ,
                                    2211     308.              MEND
0                                   2213     310.              MACRO
                                    2214     311.     &L       QUSFIX &FRAME                 Short term un-fix
                                    2215     312.     &L       LABEL ,
                                    2216     313.             $L     EPAR,&FRAME
                                    2217     314.              SRL   EPAR,L'PAGPAGM
                                    2218     315.              SLL   EPAR,PFTLOG
                                    2219     316.              AL    EPAR,PAGPFTO
                                    2220     317.              WITH  (PFTE,EPAR),BEGIN
                                    2221     318.              LH    RAR,PFTSFIX
                                    2222     319.              DECR  RAR
                                    2223     320.              FLOOR RAR,0
                                    2224     321.              STH   RAR,PFTSFIX
                                    2225     322.              END   ,
                                    2226     323.              MEND
0                                   2228     325.              MACRO ,
                                    2229     326.     &L       PAGWT &QHEAD,&LOCK,&PCB
1PAGESERV (PAGE00) (09:42) (22MAR04) PAGESERV - Local macros                                                                Page   16
0Loc    Object Code    Addr1 Addr2  Stmt Lv Lineno    Source Statement           (Hibal 5, Asmedit 3.3)  HLASM R4.0  2004/03/22 09.42
+___    ______ ____    _____ _____  ____ __ ______    ______ _________
0                                   2230     327.     &L       PSET  @PAGWAIT
                                    2231     328.              AIF   ('&QHEAD' EQ '').NOQ
                                    2232     329.              PMOV  @WTHEAD,&QHEAD,OP=LA
                                    2233     330.     .NOQ     ANOP  ,
                                    2234     331.              AIF   ('&LOCK' EQ '').NOSLOK  No specific lock
                                    2235     332.              PMOV  @WTLOCK,&LOCK
                                    2236     333.     .NOSLOK  ANOP  ,
                                    2237     334.              PMOV  @WTPCB,&PCB
                                    2238     335.              ACALL PAGWAIT
                                    2239     336.              MEND  ,
0                                   2241     338.              MACRO
                                    2242     339.     &L       CELLGET &FAMT,&TYPE=
                                    2243     340.     .*  If &WAIT has the value YES/NO, then the wait flag will be
                                    2244     341.     .*  set or not for allocation.  If the value of &WAIT is anything
                                    2245     342.     .*  other than YES/NO, then that value is treated as a flag which
                                    2246     343.     .*  determines whether the wait parameter is set.
                                    2247     344.              LCLC  &T,&AMT
                                    2248     345.              AIF   ('&TYPE' NE 'PAGE').CHKSWP
                                    2249     346.     &T       SETC  'LA:PAGPGCEL'
                                    2250     347.              AGO   .DOCALL
                                    2251     348.     .CHKSWP  AIF   ('&TYPE' NE 'SWAP').CHKFILE
                                    2252     349.     &T       SETC  'LA:PAGSWCEL'
                                    2253     350.              AGO   .DOCALL
                                    2254     351.     .CHKFILE MNOTE 8,'TYPE=&TYPE is invalid'
                                    2255     352.              MEXIT ,
                                    2256     353.     .DOCALL  ANOP  ,
                                    2257     354.     &AMT     SETC  '&FAMT'
                                    2258     355.              AIF   ('&AMT' NE '').DEF
                                    2259     356.     &AMT     SETC  'LA:1'
                                    2260     357.     .DEF     ANOP  ,
                                    2261     358.     &L       PSET  @CELLGET
                                    2262     359.              PMOV  @CGTYP,&T
                                    2263     360.              PMOV  @CGAMT,&AMT
                                    2264     361.              ACALL CELLGET
                                    2265     362.              MEND
0                                   2267     364.              MACRO
                                    2268     365.     &L       CELLFREE &ITEMF,&FITEML,&FCNT,&TYPE=
                                    2269     366.              LCLC  &T,&ITEML,&CNT
                                    2270     367.              AIF   ('&TYPE' NE 'PAGE').CHKSWP
                                    2271     368.     &T       SETC  'LA:PAGPGCEL'
                                    2272     369.              AGO   .DOCALL
                                    2273     370.     .CHKSWP  AIF   ('&TYPE' NE 'SWAP').CHKFILE
                                    2274     371.     &T       SETC  'LA:PAGSWCEL'
                                    2275     372.              AGO   .DOCALL
                                    2276     373.     .CHKFILE MNOTE 8,'TYPE=&TYPE is invalid'
                                    2277     374.              MEXIT ,
                                    2278     375.     .DOCALL  ANOP  ,
                                    2279     376.     &ITEML   SETC  '&FITEML'
                                    2280     377.     &CNT     SETC  '&FCNT'
                                    2281     378.              AIF   ('&FITEML' NE '').MULT
                                    2282     379.     &ITEML   SETC  '&ITEMF'                There is only one
                                    2283     380.     &CNT     SETC  'LA:1'                  |
                                    2284     381.              AGO   .NOCHK
                                    2285     382.     .MULT    ANOP  ,
1PAGESERV (PAGE00) (09:42) (22MAR04) PAGESERV - Local macros                                                                Page   17
0Loc    Object Code    Addr1 Addr2  Stmt Lv Lineno    Source Statement           (Hibal 5, Asmedit 3.3)  HLASM R4.0  2004/03/22 09.42
+___    ______ ____    _____ _____  ____ __ ______    ______ _________
0                                   2286     383.              AIF   ('&CNT' NE '').MULTOK
                                    2287     384.              MNOTE 8,'CNT must be specified for plural additions'
                                    2288     385.     .MULTOK  ANOP  ,
                                    2289     386.     .NOCHK   ANOP  ,
                                    2290     387.     &L       PSET  @CELLFREE
                                    2291     388.              PMOV  @CFTYP,&T
                                    2292     389.              PMOV  @CFLOC,&ITEMF
                                    2293     390.              PMOV  @CFLAST,&ITEML
                                    2294     391.              PMOV  @CFAMT,&CNT
                                    2295     392.              ACALL CELLFREE
                                    2296     393.              MEND
0                                   2298     395.              MACRO
                                    2299     396.     &L       XPGET &PCB                    External page mgr
                                    2300     397.     &L       PSET  @XPGET
                                    2301     398.              AIF   ('&PCB' EQ '').NOPCB
                                    2302     399.              PMOV  @XPPCB,&PCB
                                    2303     400.     .NOPCB   ANOP  ,
                                    2304     401.              ACALL XPGET
                                    2305     402.              MEND
0                                   2307     404.              MACRO
                                    2308     405.     &L       XPREL &ADD
                                    2309     406.     &L       PSET  @XPREL
                                    2310     407.              PMOV  @XPRLBLK,&ADD
                                    2311     408.              ACALL XPREL
                                    2312     409.              MEND
0                                   2314     411.              MACRO
                                    2315     412.     &L       BLKDSID &BLK
                                    2316     413.              PSET  @BLKDSID
                                    2317     414.              PMOV  @BLKNUM,&BLK
                                    2318     415.              ACALL BLKDSID
                                    2319     416.              MEND  ,
0                                   2321     418.              MACRO
                                    2322     419.     &L       FRAMEGET &PCBC,&PCB,&FLCL,&CNT=LA:1,&TYPE=UNFIX
                                    2323     420.              AIF   ('&TYPE' EQ 'UNFIX').OK,('&TYPE' EQ 'FIX').OK
                                    2324     421.              AIF   ('&TYPE' EQ 'PT').OK,('&TYPE' EQ 'LOCAL').OK
                                    2325     422.              MNOTE 8,'Invalid page allocation type'
                                    2326     423.              MEXIT ,
                                    2327     424.     .OK      ANOP  ,
                                    2328     425.     &L       PSET  @FRAMGET
                                    2329     426.              PMOV  @FRAPCBC,&PCBC          PCB in control
                                    2330     427.              PMOV  @FRANUM,&CNT            Number of frames
                                    2331     428.              AIF   ('&TYPE' NE 'UNFIX').NOUFIX
                                    2332     429.              PMOV  @FRAPCB,&PCB,REG=EPAR   PCB to own frame
                                    2333     430.              WITH  (ASBPCB,EPAR),'PMOV @FRALIST,LA:PCBUFLH'
                                    2334     431.              AGO   .CALL
                                    2335     432.     .NOUFIX  ANOP  ,
                                    2336     433.              AIF   ('&TYPE' NE 'FIX').NOFIX
                                    2337     434.              SET   @FRAFIX                 Get a fixed frame
                                    2338     435.              PMOV  @FRAPCB,&PCB,REG=EPAR   PCB to own frame
                                    2339     436.              WITH  (ASBPCB,EPAR),'PMOV @FRALIST,LA:PCBLFLH'
                                    2340     437.              AGO   .CALL
                                    2341     438.     .NOFIX   AIF   ('&TYPE' NE 'PT').NOPT
1PAGESERV (PAGE00) (09:42) (22MAR04) PAGESERV - Local macros                                                                Page   18
0Loc    Object Code    Addr1 Addr2  Stmt Lv Lineno    Source Statement           (Hibal 5, Asmedit 3.3)  HLASM R4.0  2004/03/22 09.42
+___    ______ ____    _____ _____  ____ __ ______    ______ _________
0                                   2342     439.              SET   @FRAFPT                 Get a page table frame
                                    2343     440.              PMOV  @FRAPCB,&PCB,REG=EPAR   PCB to own frame
                                    2344     441.              WITH  (ASBPCB,EPAR),'PMOV @FRALIST,LA:PCBPFLH'
                                    2345     442.              AGO   .CALL
                                    2346     443.     .NOPT    ANOP  ,
                                    2347     444.              AIF   ('&TYPE' NE 'LOCAL').NOLOCL
                                    2348     445.              SET   @FRAFLCL
                                    2349     446.              PMOV  @FRAPCB,&PCB            PCB to own frame
                                    2350     447.              PMOV  @FRALIST,&FLCL
                                    2351     448.              AGO   .CALL
                                    2352     449.     .NOLCL   ANOP  ,
                                    2353     450.     .CALL    ACALL FRAMEGET
                                    2354     451.              MEND
0                                   2356     453.              MACRO
                                    2357     454.     &L       FRAMEREL &FRA1ST
                                    2358     455.     &L       PSET  @FRAMREL
                                    2359     456.              PMOV  @FRARFRA,&FRA1ST        1st frame being rel
                                    2360     457.              ACALL FRAMEREL
                                    2361     458.              MEND
0                                   2363     460.              MACRO
                                    2364     461.     &L       DATOFF &LOC
                                    2365     462.     &L       STNSM &LOC,X'FF'-PAGDAT
                                    2366     463.              MEND
0                                   2368     465.              MACRO
                                    2369     466.     &L       DATON &LOC
                                    2370     467.     &L       SSM   &LOC
                                    2371     468.              MEND
1PAGESERV (PAGE00) (09:42) (22MAR04) PAGESERV - Local macros                                                                Page   19
0Loc    Object Code    Addr1 Addr2  Stmt Lv Lineno    Source Statement           (Hibal 5, Asmedit 3.3)  HLASM R4.0  2004/03/22 09.42
+___    ______ ____    _____ _____  ____ __ ______    ______ _________
0                                   2373     470.              MACRO
                                    2374     471.              VPPARM &PFX=
                                    2375     472.              DS    0A
                                    2377     474.              MNOTE *,'-- Return parms --'
                                    2378     475.     &PFX.FLG FLAG  (&PFX.FOK,0,EQ)         Both seg & page in table len
                                    2379     476.              FLAG  (&PFX.FSLI,X'80',EQ)    Over segment length
                                    2380     477.              FLAG  (&PFX.FPLI,X'40',EQ)    Over page length
                                    2381     478.              FLAG  (&PFX.FSEI,X'20',EQ)    Segment entry invalid
                                    2382     479.              FLAG  (&PFX.FPEI,X'10',EQ)    Page entry invalid
                                    2383     480.                DS  3X                      - Available -
                                    2384     481.     &PFX.SGTE  DS  A                       Segment table engtry
                                    2385     482.     &PFX.SSTE  DS  A                       Shadow-seg table entry
                                    2386     483.     &PFX.PGTE  DS  A                       Page table entry
                                    2387     484.     &PFX.SPTE  DS  A                       Shadow-pag table entry
                                    2388     485.     &PFX.FPCB  DS  A                       PCB that would own frame
                                    2389     486.     &PFX.PARM EQU  &PFX.FLG,*-&PFX.FLG
                                    2391     488.              MEND  ,
1PAGESERV (PAGE00) (09:42) (22MAR04) PAGESERV - Interface parms for external routines                                       Page   20
0Loc    Object Code    Addr1 Addr2  Stmt Lv Lineno    Source Statement           (Hibal 5, Asmedit 3.3)  HLASM R4.0  2004/03/22 09.42
+___    ______ ____    _____ _____  ____ __ ______    ______ _________
0                                   2393     490.              COPY  VMPARM
                                    2394             =*******************************************************************
                                    2395             =*                                                                 *
                                    2396             =*    Memory parms for inside the virtual machine.                 *
                                    2397             =*                                                                 *
                                    2398             =*******************************************************************
-000000                00000 0000B  2400             =@VMGET   RECORD BEGIN        Parm area for getting virtual memory
 000000                             2408  1          =@VMGLEN    DS    A             Amount of memory needed
 000004                             2409  1          =@VMGDAT    DS    A             More data. Address or maxlen.
 000008                             2410  1          =@VMGPOOL   DS    H             Pool/Subpool to get the memory from
 00000A 00                          2411  1          =@VMGFLG    FLAG  ,
 @VMGFLG.@VMGPAGE  80 ONES          2415  1          =           FLAG  @VMGPAGE      Page Aligned
 @VMGFLG.@VMGONEP  40 ONES          2420  1          =           FLAG  @VMGONEP      Don't cross page boundary
 00000B                0000B 0000B  2425             =         END   ,
-000000                00000 0000A  2435             =@VMFREE  RECORD BEGIN        Used for VMFREE and VMCHECK
 000000                             2443  1          =@VMFLOC    DS    A             Location of the storage to free
 000004                             2444  1          =@VMFLEN    DS    A             Amount to free
 000008                             2445  1          =@VMFPOOL   DS    H             Pool/Subpool where the storage lives
 00000A                0000A 0000A  2446             =         END   ,
-000000                00000 00009  2456             =@VMINFO  RECORD BEGIN        Returns User address limits/hash val
 000000                             2464  1          =@VMIUST    DS    A             Start of the user address space
 000004                             2465  1          =@VMIULEN   DS    A             Length of the user address space
 000008                             2466  1          =@VMITRSH   DS    X             Trash value
 000009                00009 00009  2467             =         END   ,
1PAGESERV (PAGE00) (09:42) (22MAR04) PAGESERV - Interface parms for external routines                                       Page   21
0Loc    Object Code    Addr1 Addr2  Stmt Lv Lineno    Source Statement           (Hibal 5, Asmedit 3.3)  HLASM R4.0  2004/03/22 09.42
+___    ______ ____    _____ _____  ____ __ ______    ______ _________
0                                   2477     492.              COPY  DISPPARM
                                    2478             =*****************************************************************
                                    2479             =*                                                               *
                                    2480             =*  DISPPARM -- Parameters for the dispatcher global routines.   *
                                    2481             =*                                                               *
                                    2482             =*****************************************************************
-                                   2484             =*
                                    2485             =* Routines to indicate completion of a page or swap I/O
                                    2486             =*
 000000                00000 00004  2487             =@DISPPIOC RECORD BEGIN                 Page I/O completion parms
 000000                             2495  1          =@DPIOASB   DS    A                       ASB of completing I/O
 000004                00004 00004  2496             =         END   ,
0000000                00000 00004  2506             =@DISPSIOC RECORD BEGIN                 Swap I/O completion parms
 000000                             2514  1          =@DSIOASB   DS    A                       ASB of completing I/O
 000004                00004 00004  2515             =         END   ,
-                                   2525             =*
                                    2526             =* SUSPEND parameters
                                    2527             =*
0000000                00000 00009  2529             =@SUSPEND RECORD BEGIN
 000000                             2537  1          =@SUSPCTL   DS    0D            ID of the Control level suspended
 000000                             2538  1          =@SUSPID    DS    A             ID of the task/address space suspended
 000004                             2539  1          =@SUSPLC    DS    A             For tasks: Level of control suspended
 000008 00                          2540  1          =@SUSPFLG   FLAG  ,
 @SUSPFLG.@SUSPLNG 80 ONES          2544  1          =           FLAG  @SUSPLNG      This will be of long duration
 @SUSPFLG.@SUSPAS  40 ONES          2549  1          =           FLAG  @SUSPAS       Suspend the entire address space
 @SUSPFLG.@SUSPPLC 20 ONES          2554  1          =           FLAG  @SUSPPLC      Suspend previous level of control
 000009                00009 00009  2559             =         END   ,
-                                   2569             =*
                                    2570             =* RESUMAS/RESUMTS parameters
                                    2571             =*
0000000                00000 00008  2573             =@RESUME  RECORD BEGIN
 000000                             2581  1          =@RESCTL    DS    0D            ID of the unit of work to be resumed
 000000                             2582  1          =@RESUNIT   DS    A             Address of the ASB/task Id to resume
 000004                             2583  1          =@RESLC     DS    A             Level of control in a task
 000008                00008 00008  2584             =         END   ,
-                                   2594             =*
                                    2595             =* DISPSHLD/DISPSREL parmameters
                                    2596             =*
0000000                00000 00004  2598             =@DISPSWP RECORD BEGIN
 000000                             2606  1          =@DISPSAS   DS    A             Address of the ASB being manipulated
 000004                00004 00004  2607             =         END   ,
-                                   2617             =*
1PAGESERV (PAGE00) (09:42) (22MAR04) PAGESERV - Interface parms for external routines                                       Page   22
0Loc    Object Code    Addr1 Addr2  Stmt Lv Lineno    Source Statement           (Hibal 5, Asmedit 3.3)  HLASM R4.0  2004/03/22 09.42
+___    ______ ____    _____ _____  ____ __ ______    ______ _________
0                                   2618             =* ACREATE parameters
                                    2619             =*
0000000                00000 00008  2621             =@ACREATE RECORD BEGIN
 000000                             2629  1          =@ACRPSW    DS    D             Instruction address for task
 000008                00008 00008  2630             =         END   ,
-                                   2640             =*
                                    2641             =* TCREATE parameters
                                    2642             =*
0000000                00000 00015  2644             =@TCREATE RECORD BEGIN
 000000                             2652  1          =@TCRPSW    DS    D             Initial PSW for the task
 000008                             2653  1          =@TCRPARM   DS    2A            Parameter for the task
 000010                             2654  1          =@TCRPRIO   DS    A             Adjustment to priority from Current task
 000014 00                          2655  1          =@TCRFLAG   FLAG  ,             Task creation flags
 @TCRFLAG.@TCRFSTK 80 ONES          2659  1          =           FLAG  @TCRFSTK        Task entered with a stack
 @TCRFLAG.@TCRFPAB 40 ONES          2664  1          =           FLAG  @TCRFPABS       Prio is absolute
 000015                00015 00015  2669             =         END   ,
-                                   2679             =*
                                    2680             =* TREMOVE parameters
                                    2681             =*
0000000                00000 00004  2683             =@TREMOVE RECORD BEGIN
 000000                             2691  1          =@TREID     DS    A             ID of the task to be removed
 000004                00004 00004  2692             =         END   ,
-                                   2702             =*
                                    2703             =* TENTRY Parameters  (on entry to a created task)
                                    2704             =*
0000000                00000 00008  2706             =@TENTRY  RECORD BEGIN
 000000                             2714  1          =@TEPARM    DS    2A            Entry parm for the task
 000008                00008 00008  2715             =         END   ,
-                                   2725             =*
                                    2726             =* TEXIT parameters
                                    2727             =*
0000000                00000 00004  2729             =@TEXIT   RECORD BEGIN
 000000                             2737  1          =           DS    A             Not used
 000004                00004 00004  2738             =         END   ,
-                                   2748             =*
                                    2749             =* SYSRNEW -- Get a new SYSR ID
                                    2750             =*
0000000                00000 00004  2752             =@SYSRNEW RECORD BEGIN
 000000                             2760  1          =           DS    A             Not used
 000004                00004 00004  2761             =         END   ,
1PAGESERV (PAGE00) (09:42) (22MAR04) PAGESERV - Interface parms for external routines                                       Page   23
0Loc    Object Code    Addr1 Addr2  Stmt Lv Lineno    Source Statement           (Hibal 5, Asmedit 3.3)  HLASM R4.0  2004/03/22 09.42
+___    ______ ____    _____ _____  ____ __ ______    ______ _________
0                                   2771             =*
                                    2772             =* SYSRDEL -- Delete a previous SYSR ID
                                    2773             =*
 000000                00000 00004  2774             =@SYSRDEL RECORD BEGIN
 000000                             2782  1          =@SYSRDID   DS    A             Id of the SYSR
 000004                00004 00004  2783             =         END   ,
-                                   2793             =*
                                    2794             =* SYSRDO -- Schedule a system routine to run in another address space
                                    2795             =*
0000000                00000 0001C  2797             =@SYSRDO  RECORD BEGIN
 000000                             2805  1          =@SYSRID    DS    A             Id from SYSRNEW
 000004                             2806  1          =@SYSRASB   DS    A             ASB of the Address space where it goes
 000008                             2807  1          =@SYSRLOC   DS    A             Location of the system routine
 00000C                             2808  1          =@SYSRPRM   DS    4A            Parameters for the routine
 00001C                0001C 0001C  2809             =         END   ,
-                                   2819             =*
                                    2820             =* SYSRTN -- Parameter passed to a system routine
                                    2821             =*
0000000                00000 00010  2823             =@SYSRTN  RECORD BEGIN
 000000                             2831  1          =@SYSPARS   DS    4A            Parameters
 000010                00010 00010  2832             =         END   ,
-                                   2842             =*
                                    2843             =* PERSET -- Set the Per registers
                                    2844             =*
0000000                00000 0000C  2846             =@PERSET  RECORD BEGIN
 000000                             2854  1          =@PERSDAT   DS    3F            3 Registers (corresponds to CRs 9-11)
 00000C                0000C 0000C  2855             =         END   ,
-                                   2865             =*
                                    2866             =* MONSET -- Set the MON masks
                                    2867             =*
0000000                00000 00002  2869             =@MONSET  RECORD BEGIN
 000000                             2877  1          =@MONSDAT   DS    H             Monitor Class Mask
 000002                00002 00002  2878             =         END   ,
-                                   2888             =*
                                    2889             =* DSPSTAT -- Return Dispatcher Statistics
                                    2890             =*
0000000                00000 00020  2892             =@DSPSTAT RECORD BEGIN
 000000                             2900  1          =@DSPSST    DS    D             TOD clock when system started
 000008                             2901  1          =@DSPSCHG   DS    D             Total CPU time charged (TOD)
 000010                             2902  1          =@DSPSDSP   DS    D             Dispatch CPU time (TOD)
 000018                             2903  1          =@DSPSIOS   DS    D             I/O Service time (TOD)
1PAGESERV (PAGE00) (09:42) (22MAR04) PAGESERV - Interface parms for external routines                                       Page   24
0Loc    Object Code    Addr1 Addr2  Stmt Lv Lineno    Source Statement           (Hibal 5, Asmedit 3.3)  HLASM R4.0  2004/03/22 09.42
+___    ______ ____    _____ _____  ____ __ ______    ______ _________
0000020                00020 00020  2904             =         END   ,
1PAGESERV (PAGE00) (09:42) (22MAR04) PAGESERV - Interface parms for external routines                                       Page   25
0Loc    Object Code    Addr1 Addr2  Stmt Lv Lineno    Source Statement           (Hibal 5, Asmedit 3.3)  HLASM R4.0  2004/03/22 09.42
+___    ______ ____    _____ _____  ____ __ ______    ______ _________
0                                   2914     494.              COPY  SIGPARM                 Signal/Await parameters
                                    2915             =*
                                    2916             =*  AWAIT/AWAITAS parameters
                                    2917             =*    For task based calls, the ECB is a double word.
                                    2918             =*    For address space based calls, the ECB is a word.
                                    2919             =*
 000000                00000 00005  2920             =@AWAIT   RECORD BEGIN
 000000                             2928  1          =@AWTECB    DS    A                       Address of ECB
 000004 00                          2929  1          =@AWTFLG    FLAG  ,
 @AWTFLG.@AWTLONG  80 ONES          2933  1          =           FLAG  @AWTLONG                Long term wait
 000005                00005 00005  2938             =         END   ,
0                                   2948             =*
                                    2949             =*  SIGNAL/SIGNALAS parameters
                                    2950             =*    For task based calls, the ECB and post code is a double word.
                                    2951             =*    For address space based calls, the ECB and post code is a word.
                                    2952             =*
 000000                00000 00014  2953             =@SIGNAL  RECORD BEGIN
 000000                             2961  1          =@SGCODE    DS    D                       Post code
 000008                             2962  1          =@SGECB     DS    A                       Address of ECB
                                    2963  1          =*  -- Parms for task signal --
                                    2964  1          =*    Zero ASB means post in this AS
                                    2965  1          =*    @PSSRID is only used for cross AS posts
 00000C                             2966  1          =@SGASB     DS    A                       ASB to be posted
 000010                             2967  1          =@SGSRID    DS    A                       System routine ID for cross
                                    2968  1          =*                                          AS posting
 000014                00014 00014  2969             =         END   ,
1PAGESERV (PAGE00) (09:42) (22MAR04) PAGESERV - Interface parms for external routines                                       Page   26
0Loc    Object Code    Addr1 Addr2  Stmt Lv Lineno    Source Statement           (Hibal 5, Asmedit 3.3)  HLASM R4.0  2004/03/22 09.42
+___    ______ ____    _____ _____  ____ __ ______    ______ _________
0                                   2979     496.              COPY  LOCKPARM
                                    2980             =*******************************************************************
                                    2981             =*                                                                 *
                                    2982             =*    LOCKPARM - Lock routine calling parms                        *
                                    2983             =*                                                                 *
                                    2984             =*******************************************************************
0000000                00000 00011  2986             =@LOCKCRE RECORD BEGIN
 000000                             2994  1          =@LOCKNAM   DS    CL16          Name of the lock
 000010 00                          2995  1          =@LOCKFL    FLAG  ,
 @LOCKFL.@LFSPIN   80 ONES          2999  1          =           FLAG  @LFSPIN       Spin type lock
 000011                00011 00011  3004             =         END   ,
                                    3013             =*
 000000                00000 00004  3014             =@LOCKS   RECORD BEGIN
 000000                             3022  1          =@LOCKID    DS    A             Lock id
 000004                00004 00004  3023             =         END   ,
1PAGESERV (PAGE00) (09:42) (22MAR04) PAGESERV - Interface parms for external routines                                       Page   27
0Loc    Object Code    Addr1 Addr2  Stmt Lv Lineno    Source Statement           (Hibal 5, Asmedit 3.3)  HLASM R4.0  2004/03/22 09.42
+___    ______ ____    _____ _____  ____ __ ______    ______ _________
0                                   3033     498.              COPY  IOSPARM                 IO Supervisor routine parms
 000000                00000 0001E  3034             =@IOSDOIO RECORD BEGIN
 000000                             3042  1          =@IOSCHID   DS    A                       Subchannel ID
 000004                             3043  1          =@IOSID     DS    A                       I/O ID
 000008                             3044  1          =@IOSPID    DS    D                       Process ID
 000010                             3045  1          =@IOSCP     DS    A                       Channel program addr (VA)
 000014                             3046  1          =@IOSXID    DS    A                       Exit ID/Fast path rtn addr
 000018                             3047  1          =@IOSXPAR   DS    A                       Ending parameter
 00001C                             3048  1          =@IOSKEY    DS    X                       Key for I/O
 00001D 00                          3049  1          =@IOSF1     FLAG  ,
 @IOSF1.@IOSFSYNC  80 ONES          3053  1          =           FLAG  @IOSFSYNC               Do I/O synchronous
 @IOSF1.@IOSFAS    40 ONES          3058  1          =           FLAG  @IOSFAS                 | do AS waits for this I/O
 @IOSF1.@IOSFAST   20 ONES          3063  1          =           FLAG  @IOSFAST                Fast path I/O
 00001E                0001E 0001E  3068             =         END   ,
-000000                00000 00008  3078             =@IOTERM  RECORD BEGIN                  I/O termination routine parms
 000000                             3086  1          =@IOTPARM   DS    A                       Termination routine parameter
 000004                             3087  1          =@IOTEND    DS    A                       Ending status of operation
 000008                00008 00008  3088             =         END   ,
-000000                00000 00010  3098             =@IOSTIME RECORD BEGIN
 000000                             3106  1          =@IOSTID    DS    A                       I/O ID
 000008                             3107  1          =@IOSIOTIME   DS  D                       Time of this I/O
 000010                00010 00010  3108             =         END   ,
-000000                00000 00001  3118             =@IOSIDGET RECORD BEGIN
 000000 00                          3126  1          =@IOSIDF     FLAG   ,
 @IOSIDF.@IOSFWAIT 80 ONES          3130  1          =            FLAG   @IOSFWAIT             If need be, wait for id
 000001                00001 00001  3135             =          END    ,
-000000                00000 00004  3145             =@IOSIDFRE RECORD BEGIN
 000000                             3153  1          =@IOSFID     DS   A                       ID being freed
 000004                00004 00004  3154             =          END  ,
1PAGESERV (PAGE00) (09:42) (22MAR04) PAGESERV - Interface parms for external routines                                       Page   28
0Loc    Object Code    Addr1 Addr2  Stmt Lv Lineno    Source Statement           (Hibal 5, Asmedit 3.3)  HLASM R4.0  2004/03/22 09.42
+___    ______ ____    _____ _____  ____ __ ______    ______ _________
0                                   3164             =         COPY  IORPARM
                                    3165             =*******************************************************************
                                    3166             =*                                                                 *
                                    3167             =*     @IORPARM - ORVYL I/O request parameters                     *
                                    3168             =*                                                                 *
                                    3169             =*******************************************************************
0000000                00000 00014  3171             =@IORB    RECORD BEGIN
 000000                             3179  1          =@IORRQID   DS    A                       Request ID
 000004                             3180  1          =@IOROFF    DS    A                       Offset (guest real to MVS)
 000008                             3181  1          =@IORPARM   DS    A                       Pointer to user parm list
 00000C                             3182  1          =@IORSCH    DS    A                       Subchannel (device ID)
 000010                             3183  1          =@IORKEY    DS    X                       Channel program protect key
 000011                             3184  1          =@IORCC     DS    X                       Condition code (returned)
 000012                             3185  1          =           DS    2X                      Reserved
 000014                00014 00014  3186             =         END   ,
-
                                    3196             =*******************************************************************
                                    3197             =*                                                                 *
                                    3198             =*     @IOUPARM - I/O Device id allocate request parameters        *
                                    3199             =*                                                                 *
                                    3200             =*******************************************************************
0000000                00000 00004  3202             =@IOUPARM RECORD BEGIN
 000000                             3210  1          =@IOUDEVT   DS    A
                                    3211  1          =*
                                    3212  1          =*  Device types
                                    3213  1          =*
                                    3214  1          =#IOUPAGE   EQU   4                       | paging
                                    3215  1          =#IOUSWAP   EQU   8                       | swap
                                    3216  1          =#IOUFILE   EQU   12                      | file
                                    3217  1          =#IOUSCOM   EQU   16                      | path
                                    3218  1          =#IOUJES    EQU   20                      | JES
                                    3219  1          =#IOUHSP    EQU   24                      | Standard hiperspace
                                    3220  1          =#IOUESO    EQU   28                      | Cached hiperspace
 000004                00004 00004  3221             =         END   ,
1PAGESERV (PAGE00) (09:42) (22MAR04) PAGESERV - Interface parms for external routines                                       Page   29
0Loc    Object Code    Addr1 Addr2  Stmt Lv Lineno    Source Statement           (Hibal 5, Asmedit 3.3)  HLASM R4.0  2004/03/22 09.42
+___    ______ ____    _____ _____  ____ __ ______    ______ _________
0                                   3231     500.              COPY  DSALPARM                Dynamic alloc parms
                                    3232             =*******************************************************************
                                    3233             =*                                                                 *
                                    3234             =*    @DSDALLO - Parameters for dynamic allocation routine         *
                                    3235             =*                                                                 *
                                    3236             =*******************************************************************
0000000                00000 00004  3238             =@DSDALLO RECORD BEGIN
 000000                             3246  1          =@DSDPARM   DS    A                       Pointer to @DSALLO parm area
 000004                00004 00004  3247             =         END   ,
-
                                    3257             =*******************************************************************
                                    3258             =*                                                                 *
                                    3259             =*    @DSALLO  - Data set allocation parameters                    *
                                    3260             =*                                                                 *
                                    3261             =*******************************************************************
0000000                00000 00060  3263             =@DSALLO  RECORD BEGIN
 000000                             3271  1          =@DSDSID    DS    A                       Device id
 000004                             3272  1          =@DSDSN     DS    CL44                    Data set name
 000030                             3273  1          =@DSMEM     DS    CL8                     Memeber name or GDG
 000038                             3274  1          =@DSDDN     DS    CL8                     DD name
 000040                             3275  1          =@DSVOL     DS    CL6                     Volume id
 000046                             3276  1          =@DSRTN     DS    H                       Return code from SVC 99
 000048                             3277  1          =@DSERR     DS    H                       Error code from SVC 99
 00004A                             3278  1          =@DSRSN     DS    H                       Reason code from SVC 99
                                    3279  1          =
 00004C 00                          3280  1          =@DSFLAG    FLAG  ,
 @DSFLAG.@DSSHR    80 ONES          3284  1          =           FLAG  @DSSHR                  Data set enqueued share
 @DSFLAG.@DSNEW    40 ONES          3289  1          =           FLAG  @DSNEW                  Data set is new
 @DSFLAG.@DSNOCAT  20 ONES          3294  1          =           FLAG  @DSNOCAT                Do not catalog new data set
 @DSFLAG.@DSGDG    10 ONES          3299  1          =           FLAG  @DSGDG                  Data set needs PROTO.DSCB
                                    3304  1          =*
                                    3305  1          =*  Disk Allocation Information - used only if new data set
                                    3306  1          =*
 00004D 00                          3307  1          =@DSALCF    FLAG  ,                       Allocation flags
 @DSALCF.@DSACYL   80 ONES          3311  1          =           FLAG  @DSACYL                 Cylinder allocation
 @DSALCF.@DSABLK   40 ONES          3316  1          =           FLAG  @DSABLK                 Average block allocation
 @DSALCF.@DSACNTG  20 ONES          3321  1          =           FLAG  @DSACNTG                Contiguous allocation
 @DSALCF.@DSARLSE  10 ONES          3326  1          =           FLAG  @DSARLSE                Release unused space at close
 @DSALCF.@DSARND   08 ONES          3331  1          =           FLAG  @DSARND                 Round up to cylinders
                                    3336  1          =
 000050                             3337  1          =@DSABL     DS    A                       Average block length
 000054                             3338  1          =@DSPTQ     DS    A                       Primary allocation quantity
 000058                             3339  1          =@DSSTQ     DS    A                       Secondary allocation quantity
 00005C                             3340  1          =@DSDBQ     DS    A                       Directory blocks
 000060                00060 00060  3341             =         END   ,
1PAGESERV (PAGE00) (09:42) (22MAR04) PAGESERV - Interface parms for external routines                                       Page   30
0Loc    Object Code    Addr1 Addr2  Stmt Lv Lineno    Source Statement           (Hibal 5, Asmedit 3.3)  HLASM R4.0  2004/03/22 09.42
+___    ______ ____    _____ _____  ____ __ ______    ______ _________
0                                   3351     502.              COPY  PFINFO                  Open parameters
                                    3352             =*******************************************************************
                                    3353             =*                                                                 *
                                    3354             =*    PFINFO - ORVYL Page and File System Description              *
                                    3355             =*                                                                 *
                                    3356             =*******************************************************************
0000000                00000 00020  3358             =#PFINFO  RECORD BEGIN
                                    3366  1          =*
                                    3367  1          =*  Disk Information
                                    3368  1          =*
 000000                             3369  1          =#PFIBKS    DS    A                       Number of blocks
 000004                             3370  1          =#PFIBTK    DS    A                       Blocks per track
 000008                             3371  1          =#PFITCY    DS    A                       Tracks per cylinder
 00000C                             3372  1          =           DS    CL6                     Available
 000012 00                          3373  1          =#PFISPF    FLAG  ,                       Space flags
 #PFISPF.#PFOCYL   80 ONES          3377  1          =           FLAG  #PFOCYL                 Cylinder allocation
 #PFISPF.#PFOCNTG  40 ONES          3382  1          =           FLAG  #PFOCNTG                Single extent
                                    3387  1          =*
                                    3388  1          =*  DCB Information
                                    3389  1          =*
 000013 00                          3390  1          =#PFIDSO    FLAG  ,                       Data set organization
 #PFIDSO.#PFODSQ   40 ONES          3394  1          =           FLAG  (#PFODSQ,X'40')         Sequential
 #PFIDSO.#PFODPO   02 ONES          3403  1          =           FLAG  (#PFODPO,X'02')         Partitioned
 #PFIDSO.#PFODIR   20 ONES          3412  1          =           FLAG  (#PFODIR,X'20')         Direct
                                    3421  1          =
 000014 00                          3422  1          =#PFIRFM    FLAG  ,                       Record Format
 #PFIRFM.#PFORF    80 ONES          3426  1          =           FLAG  (#PFORF,X'80')          Fixed
 #PFIRFM.#PFORV    40 ONES          3435  1          =           FLAG  (#PFORV,X'40')          Variable
 #PFIRFM.#PFORN    C0 ONES          3444  1          =           FLAG  (#PFORN,X'C0')          Undefined
 #PFIRFM.#PFORB    10 ONES          3453  1          =           FLAG  (#PFORB,X'10')          Blocked
                                    3462  1          =
 000015                             3463  1          =#PFIKEY    DS    X                       Key length
 000018                             3464  1          =#PFILRC    DS    A                       Record length
 00001C                             3465  1          =#PFIBLK    DS    A                       Block size
 000020                00020 00020  3466             =         END   ,
1PAGESERV (PAGE00) (09:42) (22MAR04) PAGESERV - Interface parms for external routines                                       Page   31
0Loc    Object Code    Addr1 Addr2  Stmt Lv Lineno    Source Statement           (Hibal 5, Asmedit 3.3)  HLASM R4.0  2004/03/22 09.42
+___    ______ ____    _____ _____  ____ __ ______    ______ _________
0                                   3476     504.              COPY  PARMPARM
                                    3477             =*********************************************************************
                                    3478             =*                                                                   *
                                    3479             =*          Parameters to obtain initialization parameters           *
                                    3480             =*                                                                   *
                                    3481             =*********************************************************************
0000000                00000 00010  3483             =@PARMDO  RECORD BEGIN
 000000                             3491  1          =@PARILOC   DS    A                       Input location
 000004                             3492  1          =@PARILEN   DS    A                       | length
 000008                             3493  1          =@PAROLOC   DS    A                       Output location
 00000C                             3494  1          =@PAROLEN   DS    A                       | length
 000010                00010 00010  3495             =         END   ,
0000000                00000 00004  3505             =PARMIN   RECORD BEGIN
 000000 00                          3513  1          =PARMTYPE   FLAG  ,
 PARMTYPE.PARMFSTR 00 EQ            3517  1          =           FLAG  (PARMFSTR,0,EQ)         Return a string
 PARMTYPE.PARMFINT 04 EQ            3527  1          =           FLAG  (PARMFINT,4,EQ)         Return an integer
 PARMTYPE.PARMFYN  08 EQ            3537  1          =           FLAG  (PARMFYN,8,EQ)          Return Yea or Nay
 PARMTYPE.PARMFFLT 0C EQ            3547  1          =           FLAG  (PARMFFLT,12,EQ)        Return a floating point
 000001                             3557  1          =           DS    3X                      - Available -
 000004                             3558  1          =PARMKEYS   DS    0A                      Start of 8 byte keys
 000004                00004 00004  3559             =         END   ,
1PAGESERV (PAGE00) (09:42) (22MAR04) PAGESERV - Interface parms for external routines                                       Page   32
0Loc    Object Code    Addr1 Addr2  Stmt Lv Lineno    Source Statement           (Hibal 5, Asmedit 3.3)  HLASM R4.0  2004/03/22 09.42
+___    ______ ____    _____ _____  ____ __ ______    ______ _________
0                                   3569     506.              COPY  SEGPARM
 000000                00000 0000D  3570             =@SEG     RECORD BEGIN        Used for SEG,T,B,TB,EOR,EOB
 000000                             3578  1          =@SEGCB     DS    A             Address of the seg control block
 000004                             3579  1          =@SEGLOC    DS    A             Location of the text segment to be added
 000008                             3580  1          =@SEGLEN    DS    A             Length of the text segment to be added
 00000C 00                          3581  1          =@SEGTYPE   FLAG  ,
 @SEGTYPE.@SEGB    80 ONES          3585  1          =           FLAG  @SEGB         Add a blank after the segment
 @SEGTYPE.@SEGT    40 ONES          3590  1          =           FLAG  @SEGT         Trim trailing blanks from the segment
 @SEGTYPE.@SEGTB   C0 NZ            3595  1          =           FLAG  (@SEGTB,@SEGB+@SEGT)    Trim trailing, and add 1 blank
 @SEGTYPE.@SEGMK   20 ONES          3606  1          =           FLAG  @SEGMK        Mark the buffer after this segment
 @SEGTYPE.@SEGEOR  10 ONES          3611  1          =           FLAG  @SEGEOR       This is the end of a logical record
 @SEGTYPE.@SEGEOB  08 ONES          3616  1          =           FLAG  @SEGEOB       This is the last segment for the buffer
 00000D                0000D 0000D  3621             =         END   ,
-000000                00000 0000E  3631             =@SEGINIT RECORD BEGIN
 000000                             3639  1          =@SEGICB    DS    A
 000004                             3640  1          =@SEGIRTN   DS    A             Address of the processing routine
 000008                             3641  1          =@SEGILOC   DS    A             Location of the buffer
 00000C                             3642  1          =@SEGILEN   DS    Y             Length of the buffer
 00000E                0000E 0000E  3643             =         END   ,
-000000                00000 00008  3653             =@SEGCOL  RECORD BEGIN
 000000                             3661  1          =@SEGCCB    DS    A             Address of the control block
 000004                             3662  1          =@SEGCNUM   DS    A             Column number to go to
 000008                00008 00008  3663             =         END   ,
-000000                00000 00018  3673             =@SEGCORE RECORD BEGIN
 000000                             3681  1          =@SEGXCB    DS    A             Control block address
 000004                             3682  1          =@SEGXLOC   DS    A             Location of the core (MVS VA)
 000008                             3683  1          =@SEGXLEN   DS    A             Length of the core to dump
 00000C                             3684  1          =@SEGXSPA   DS    X             # blank lines between each dump line
 00000D 00                          3685  1          =@SEGXFLG   FLAG  ,
 @SEGXFLG.@SEGXF16 80 ONES          3689  1          =           FLAG  @SEGXF16      16 Bytes per line  (32 bytes per line)
 @SEGXFLG.@SEGXFAL 40 ONES          3694  1          =           FLAG  @SEGXFAL      Alpha (EBCDIC)     (no EBCDIC)
 @SEGXFLG.@SEGXFOF 20 ONES          3699  1          =           FLAG  @SEGXFOF      Print offsets      (Print Addresses)
 @SEGXFLG.@SEGXFID 10 ONES          3704  1          =           FLAG  @SEGXFID      Print the id       (Dont print it)
 @SEGXFLG.@SEGXFRL 08 ONES          3709  1          =           FLAG  @SEGXFRL      Print repeat lines (Print summary)
 000010                             3714  1          =@SEGXOFF   DS    A             Address to be 0 offset
 000014                             3715  1          =@SEGXID    DS    CL4           Control block id
 000018                00018 00018  3716             =         END   ,
-000000                00000 00004  3726             =@SEGRTN  RECORD BEGIN                  Parameters to pass to proc rtn
 000000                             3734  1          =@SEGRCB    DS    A                       Address of control block
 000004                00004 00004  3735             =         END   ,
-000000                00000 00008  3745             =@SEGSTK  RECORD BEGIN
 000000                             3753  1          =@SEGSCB    DS    A                       Address of seg control block
 000004                             3754  1          =@SEGSST    DS    A                       Start of stack (from RTCB)
 000008                00008 00008  3755             =         END   ,
1PAGESERV (PAGE00) (09:42) (22MAR04) PAGESERV - Interface parms for external routines                                       Page   33
0Loc    Object Code    Addr1 Addr2  Stmt Lv Lineno    Source Statement           (Hibal 5, Asmedit 3.3)  HLASM R4.0  2004/03/22 09.42
+___    ______ ____    _____ _____  ____ __ ______    ______ _________
0
0                                   3765     508.              COPY  SEGCBD
 000000                00000 00028  3766             =SEGCBD   RECORD BEGIN
                                    3774  1          =*
                                    3775  1          =* LAYOUT OF THE SEG CONTROL BLOCK
                                    3776  1          =*
 000000                             3777  1          =SEGADD     DS     A                 LOCATION OF BUFFER
 000004                             3778  1          =SEGWRT     DS     A                 LOCATION OF PROC ROUTINE
 000008                             3779  1          =SEGBLEN    DS     Y                 LENGTH OF BUFFER
 00000A                             3780  1          =SEGCNT     DS     H                 COUNT OF CHARS IN BUFFER
 00000C                             3781  1          =SEGMCNT    DS     H                 COUNT AT LAST MARK
 00000E                             3782  1          =SEGRCNT    DS     H                 COUNT AT LAST RECORD
 000010 00                          3783  1          =SEGFLG1    FLAG   ,                 State flags for processing rtn
 SEGFLG1.SEGFINIT  00 EQ            3787  1          =           FLAG   (SEGFINIT,0,EQ)   INITIALIZATION CALL
 SEGFLG1.SEGFEOR   01 EQ            3797  1          =           FLAG   (SEGFEOR,1,EQ)    SEGEndOfRecord CALL
 SEGFLG1.SEGFEOB   02 EQ            3807  1          =           FLAG   (SEGFEOB,2,EQ)    SEGEndOfBuffer CALL
 SEGFLG1.SEGFOVER  03 EQ            3817  1          =           FLAG   (SEGFOVER,3,EQ)   BUFFER OVERFLOW
 000011                             3827  1          =SEGFLG2    DS     X                 USER FLAGS
 000014                             3828  1          =SEGUSER    DS     5A                USER WORK
 000028                00028 00028  3829             =         END
1PAGESERV (PAGE00) (09:42) (22MAR04) PAGESERV - Interface parms for external routines                                       Page   34
0Loc    Object Code    Addr1 Addr2  Stmt Lv Lineno    Source Statement           (Hibal 5, Asmedit 3.3)  HLASM R4.0  2004/03/22 09.42
+___    ______ ____    _____ _____  ____ __ ______    ______ _________
0                                   3839     510.              COPY  PAGEPARM                PAGESERV's global interface
                                    3840             =*
                                    3841             =*  Page fault return codes
                                    3842             =*
                                    3843             =@PFRINP  EQU   0                       Fault in progress
                                    3844             =@PFRADDR EQU   4                       Addressing exception
                                    3845             =@PFROK   EQU   8                       Fault resolved
                                    3846             =@PFRWAIT EQU   12                      Must wait for some resource
0000000                00000 00005  3848             =@PAGSWAP RECORD BEGIN
 000000                             3856  1          =@SWASB     DS    A                       Address of ASB being swapped
                                    3857  1          =* -- Return parameters --
 000004 00                          3858  1          =@SWFLG     FLAG  ,
 @SWFLG.@SWFINP    00 EQ            3862  1          =           FLAG  (@SWFINP,0,EQ)          Swap in progress
 @SWFLG.@SWFOK     04 EQ            3872  1          =           FLAG  (@SWFOK,4,EQ)           Swap done now
 @SWFLG.@SWFWAIT   08 EQ            3882  1          =           FLAG  (@SWFWAIT,8,EQ)         Must wait for some resource
 000005                00005 00005  3892             =         END   ,
0000000                00000 00004  3902             =@PAGSWADV RECORD BEGIN                 Give swap advice
 000000                             3910  1          =@ADVASB    DS    A                       ASB of advice
 000004                00004 00004  3911             =         END   ,
0000000                00000 0000D  3921             =@PAGWSMA RECORD BEGIN                  Working Set management
 000000                             3929  1          =@WSASB     DS    A                       ASB of AS to be managed
 000004                             3930  1          =@WSINT     DS    A                       Number of elapsed intervals
 000008                             3931  1          =@WSLIMIT   DS    A                       Maximum number of frames
 00000C 00                          3932  1          =@WSFLG     FLAG  ,
 @WSFLG.@WSFGLOB   80 ONES          3936  1          =           FLAG  @WSFGLOB                Manage Global AS
 00000D                0000D 0000D  3941             =         END   ,
0000000                00000 0000A  3951             =@PAGDEF  RECORD BEGIN                  Define a page
 000000                             3959  1          =@PDADDR    DS    A                       Page VA
 000004                             3960  1          =@PDLEN     DS    A                       Length of definition (bytes)
 000008                             3961  1          =@PDKEY     DS    X                       Storage key (+ key protect)
                                    3962  1          =* @PDHASH  DS    X                       Hash value for page
 000009 00                          3963  1          =@PDF1      FLAG  @PDFGLOB                In global memory
 @PDF1.@PDFGLOB    80 ONES
 @PDF1.@PDFPROT    40 ONES          3969  1          =           FLAG  @PDFPROT                Page table protection
 00000A                0000A 0000A  3974             =         END   ,
0000000                00000 0000A  3984             =@PAGSEGD RECORD BEGIN                  Define a segment
 000000                             3992  1          =@SDADDR    DS    A                       Segment address
 000004                             3993  1          =@SDLEN     DS    A                       Length of definition (bytes)
 000008                             3994  1          =@SDHASH    DS    X                       Hash value for segment
 000009 00                          3995  1          =@SDF1      FLAG  @SDFGLOB                In global memory
 @SDF1.@SDFGLOB    80 ONES
 00000A                0000A 0000A  4001             =         END   ,
0000000                00000 00008  4011             =@PAGASC1 RECORD BEGIN
 000000                             4019  1          =@ASCASB    DS    A                       ASB for AS being created
 000004                             4020  1          =@ASCWSLM   DS    A                       Maximum size of working set
 000008                00008 00008  4021             =         END   ,
0000000                00000 00005  4031             =@PAGASC2 RECORD BEGIN                  Address space creation
 000000                             4039  1          =@ASCVA     DS    A                       Virtual address of 1st PT
 000004                             4040  1          =@ASCKEY    DS    X                       Storage key (+ key protect)
1PAGESERV (PAGE00) (09:42) (22MAR04) PAGESERV - Interface parms for external routines                                       Page   35
0Loc    Object Code    Addr1 Addr2  Stmt Lv Lineno    Source Statement           (Hibal 5, Asmedit 3.3)  HLASM R4.0  2004/03/22 09.42
+___    ______ ____    _____ _____  ____ __ ______    ______ _________
0000005                00005 00005  4041             =         END   ,
0000000                00000 00009  4051             =@PAGE    RECORD BEGIN                  General paging routine parms
 000000                             4059  1          =@PAGLOC    DS    A                       Virtual address
 000004                             4060  1          =@PAGLEN    DS    A                       Length (in bytes)
 000008                             4061  1          =@PAGKEY    DS    X                       Key - where required
                                    4062  1          =@PAGHASH   EQU   @PAGKEY                 Hash - where required
 000009                00009 00009  4063             =         END   ,
0000000                00000 00008  4073             =@PAGRV   RECORD BEGIN                  Real to virtual translation
 000000                             4081  1          =@PAGRVAD   DS    A                       Real addr to be translated
                                    4082  1          =* -- Return parms --
 000004                             4083  1          =@PAGRVASB   DS   A                       Address space block
 000008                00008 00008  4084             =         END   ,
0000000                00000 00004  4094             =@PAGINTV RECORD BEGIN                  Paging management interval
 000000                             4102  1          =@PAGINT    DS    A                       Number of intervals in cycle
 000004                00004 00004  4103             =         END   ,
0000000                00000 00008  4113             =@PAGINIT RECORD BEGIN                  Global initialization
 000000                             4121  1          =@PAGIASB   DS    A                       Global ASB address
 000004                             4122  1          =@PAGIMEG   DS    A                       Maximum number of bytes in VA
 000008                00008 00008  4123             =         END   ,
1PAGESERV (PAGE00) (09:42) (22MAR04) PAGESERV - Global DSECTs                                                               Page   36
0Loc    Object Code    Addr1 Addr2  Stmt Lv Lineno    Source Statement           (Hibal 5, Asmedit 3.3)  HLASM R4.0  2004/03/22 09.42
+___    ______ ____    _____ _____  ____ __ ______    ______ _________
0                                   4133     512.              COPY  PZERO
 000000                00000 00280  4134             =PZERO    RECORD BEGIN
                                    4142  1          =*
                                    4143  1          =* Real Page 0.  Each CPU has its own copy of this area.
                                    4144  1          =*
-                                   4146  1          =****************************************************************
                                    4147  1          =*               Fields Fixed by the Architecture               *
                                    4148  1          =*               ********************************               *
                                    4149  1          =*                                                              *
 000000                             4150  1          =PZRSNPSW   DS    D             Restart new PSW                 *
 000008                             4151  1          =PZRSOPSW   DS    D             Restart old PSW                 *
 000010                             4152  1          =           DS    D                                             *
 000018                             4153  1          =PZEXOPSW   DS    D             External old PSW                *
 000020                             4154  1          =PZSVOPSW   DS    D             Supervisor old PSW              *
 000028                             4155  1          =PZPIOPSW   DS    D             Program old PSW                 *
 000030                             4156  1          =PZMCOPSW   DS    D             Machine check old PSW           *
 000038                             4157  1          =PZIOOPSW   DS    D             I/O old PSW                     *
 000040                             4158  1          =           DS    3D                                            *
 000058                             4159  1          =PZEXNPSW   DS    D             External new PSW                *
 000060                             4160  1          =PZSVNPSW   DS    D             Supervisor new PSW              *
 000068                             4161  1          =PZPINPSW   DS    D             Program new PSW                 *
 000070                             4162  1          =PZMCNPSW   DS    D             Machine check new PSW           *
 000078                             4163  1          =PZIONPSW   DS    D             I/O new PSW                     *
 000080                             4164  1          =           DS    F                                             *
 000084                             4165  1          =PZEXCPU    DS    H             CPU address for EXT int         *
 000086                             4166  1          =PZEXIC     DS    H             External interrupt code         *
 000088                             4167  1          =PZSVILC    DS    H             Supervisor call ILC             *
 00008A                             4168  1          =PZSVIC     DS    H             Supervisor interrupt code       *
 00008C                             4169  1          =PZPIILC    DS    H             Program ILC                     *
 00008E                             4170  1          =PZPIIC     DS    H             Program interrupt code          *
 000090                             4171  1          =PZTREXA    DS    A             Translation exception address   *
 000094                             4172  1          =PZMONCL    DS    H             Monitor Class number            *
 000096                             4173  1          =PZPERCD    DS    H             PER code                        *
 000098                             4174  1          =PZPERA     DS    A             PER Address                     *
 00009C                             4175  1          =PZMONCD    DS    A             Monitor Code                    *
 0000A0                             4176  1          =           DS    3D                                            *
 0000B8                             4177  1          =PZIOSID    DS    A             I/O subsystem ID word           *
 0000BC                             4178  1          =PZIOPRM    DS    A             I/O Parameter                   *
 0000C0                             4179  1          =PZIOSCS    DS    A             I/O subchannel ending status    *
 0000C4                             4180  1          =           DS    A                                             *
 0000C8                             4181  1          =           DS    39D                                           *
                                    4182  1          =*                                                              *
                                    4183  1          =*            ***************************************           *
                                    4184  1          =*            End of Fields fixed by the architecture           *
                                    4185  1          =****************************************************************
1PAGESERV (PAGE00) (09:42) (22MAR04) PAGESERV - Global DSECTs                                                               Page   37
0D-Loc  Object Code    Addr1 Addr2  Stmt Lv Lineno    Source Statement           (Hibal 5, Asmedit 3.3)  HLASM R4.0  2004/03/22 09.42
+_____  ______ ____    _____ _____  ____ __ ______    ______ _________
0                                   4187  1          =*
                                    4188  1          =* Fields of general interest
                                    4189  1          =*
 000200                             4190  1          =PZMATP     DS    A             Address of the MAT
 000204                             4191  1          =           DS    A             ** Reserved **
 000208                             4192  1          =PZCURPID   DS    0D            Unique ID of the current process
 000208                             4193  1          =PZCURASB   DS    A             Addr of ASB for current Address space
 00020C                             4194  1          =PZCURTSK   DS    A             ID of current task in the Address space
 000210                             4195  1          =PZLCPUA    DS    A             Logical CPU address
 000214                             4196  1          =PZCPUMSK   DS    A             CPU address mask bit
 000218                             4197  1          =PZPSWM     DS    X             PSW mask for disabling
 000219                             4198  1          =           DS    X             ** Reserved **
                                    4199  1          =*
                                    4200  1          =* Termination/Trace information
                                    4201  1          =*
 00021A 00                          4202  1          =PZTERMFL   FLAG  ,             Termination flags
 PZTERMFL.PZABORT  80 ONES          4206  1          =           FLAG  PZABORT         ABORT macro issued
 PZTERMFL.PZATERM  40 ONES          4211  1          =           FLAG  PZATERM         Start termination processing
 00021B                             4216  1          =PZABSM     DS    X             Save area for system mask in ABORT
 00021C                             4217  1          =PZABR15    DS    A             Save area for R15 in an ABORT
 000220                             4218  1          =PZTZOFF    DS    D             Time zone offset
 000228                             4219  1          =           DS    22A           ** Reserved **
                                    4220  1          =*         DS    24A           ** Reserved **
 000280                00280 00280  4221             =         END   ,
1PAGESERV (PAGE00) (09:42) (22MAR04) PAGESERV - Global DSECTs                                                               Page   38
0Loc    Object Code    Addr1 Addr2  Stmt Lv Lineno    Source Statement           (Hibal 5, Asmedit 3.3)  HLASM R4.0  2004/03/22 09.42
+___    ______ ____    _____ _____  ____ __ ______    ______ _________
0                                   4231     514.              COPY  MAT
                                    4232             =*****************************************************************
                                    4233             =*                                                               *
                                    4234             =*        *** M A S T E R   A D D R E S S   T A B L E ***        *
                                    4235             =*                                                               *
                                    4236             =*****************************************************************
-000000                00000 00100  4238             =MAT      RECORD BEGIN
                                    4246  1          =MATPTR     EQU   X'200',4,C'A' Address of the MAT in PZERO
 000000 D4C1E340                    4247  1          =           DC    CL4'MAT'      Control block ID
                                    4248  1          =*
                                    4249  1          =* Addresses of global control blocks
                                    4250  1          =*
 000004                             4251  1          =MATVMCB    DS    A             Virtual memory control block
 000008                             4252  1          =MATDCT     DS    A             Dispatcher control table
 00000C                             4253  1          =MATPAGCB   DS    A             Real memory control block
 000010                             4254  1          =MATM1CT    DS    A             CT for Mode 1 users
 000014                             4255  1          =MATLCT     DS    A             Lock manager control table
 000018                             4256  1          =MATQCT     DS    A             Queue manager control table
 00001C                             4257  1          =MATIOCB    DS    A             I/O Manager control block
 000020                             4258  1          =MATSBWB    DS    A             System buffer wait blocks
 000024                             4259  1          =MATGTCT    DS    A             Terminal global control table
 000028                             4260  1          =MATFILCB   DS    A             File master control table
 00002C                             4261  1          =MATJESCB   DS    A             JES master control table
 000030                             4262  1          =MATSYSCB   DS    A             System task control table
 000034                             4263  1          =MATACCT    DS    A             Accounting control table
 000038                             4264  1          =MATGRCT    DS    A             General Resource control table
 00003C                             4265  1          =MATGNCT    DS    A             Global Network Control table
 000040                             4266  1          =MATTECB    DS    D             Termination wait ECB
 000048                             4267  1          =           DS    25A           Reserved
                                    4268  1          =*
                                    4269  1          =* Control Block Chains
                                    4270  1          =*
 0000AC                             4271  1          =MATASBS    DS    A             Pointer to chain of ASBs
 0000B0                             4272  1          =MATASBL    DS    A             Id of suspend lock for ASB chain
 0000B4                             4273  1          =           DS    8A            **  RESERVED
                                    4274  1          =*
                                    4275  1          =* Control information
                                    4276  1          =*
 0000D4                             4277  1          =MATSNAME   DS    CL8           System Name
 0000DC                             4278  1          =MATPAGFN   DS    A             Current value of the Paging function
 0000E0                             4279  1          =MATSKEY    DS    X             SYSTEM storage key (in high 4 bits)
 0000E1                             4280  1          =MATUKEY    DS    X             USER storage key
                                    4281= 1          =
                                    4282= 1          =             Information about the Kernel
                                    4283= 1          =
 0000E4                             4284  1          =MATKSTRT   DS    A             Starting address of the Kernel
 0000E8                             4285  1          =MATKMAP    DS    A             Address of the Kernel map
 0000EC                             4286  1          =MATKMAPL   DS    A             Length of the Kernel map
                                    4287= 1          =
                                    4288= 1          =             Failsoft information.
                                    4289= 1          =
 0000F0                             4290  1          =MATNCLPE   DS    F             Number of CLP errors
 0000F4                             4291  1          =MATNFAIL   DS    F             Number of failsofts
 0000F8                             4292  1          =           DS    2A            Reserved
1PAGESERV (PAGE00) (09:42) (22MAR04) PAGESERV - Global DSECTs                                                               Page   39
0Loc    Object Code    Addr1 Addr2  Stmt Lv Lineno    Source Statement           (Hibal 5, Asmedit 3.3)  HLASM R4.0  2004/03/22 09.42
+___    ______ ____    _____ _____  ____ __ ______    ______ _________
0000100                00100 00100  4293             =         END
1PAGESERV (PAGE00) (09:42) (22MAR04) PAGESERV - Global DSECTs                                                               Page   40
0Loc    Object Code    Addr1 Addr2  Stmt Lv Lineno    Source Statement           (Hibal 5, Asmedit 3.3)  HLASM R4.0  2004/03/22 09.42
+___    ______ ____    _____ _____  ____ __ ______    ______ _________
0                                   4303     516.              COPY  ASB
 000000                00000 00044  4304             =ASB      RECORD BEGIN
 000000 C1E2C240                    4312  1          =ASBID      DC    CL4'ASB'
 000004                             4313  1          =ASBNEXT    DS    A                       Next ASB in system
                                    4314  1          =*
                                    4315  1          =*  Load Address Space Parameters area
                                    4316  1          =*
 000008                             4317  1          =ASBLASP    DS    0D                      Load Addr Space Parms
 000008                             4318  1          =ASBPKM     DS    H                       Program Key Mask
 00000A                             4319  1          =ASBSASN    DS    H                       Secondary ASN
 00000C                             4320  1          =ASBAX      DS    H                       Authorization index
 00000E                             4321  1          =ASBPASN    DS    H                       Primary ASN
                                    4322  1          =ASBLPARM   EQU   3                       LASP parameter
                                    4323  1          =
 000010                             4324  1          =ASBSASB    DS    A                       Address of secondary ASB
 000014 00                          4325  1          =ASBGCFLG   FLAG  ,
 ASBGCFLG.ASBFGBLC 80 ONES          4329  1          =           FLAG  ASBFGBLC                This is ASB for global/common
 000015                             4334  1          =           DS    3X                      - Available -
                                    4335  1          =*
                                    4336  1          =*  Related control blocks
                                    4337  1          =*
 000018                             4338  1          =ASBVSCT    DS    A                       VSCT for the Address space
 00001C                             4339  1          =ASBASDB    DS    A                       AS dispatching block
 000020                             4340  1          =ASBPAGB    DS    A                       AS paging block
 000024                             4341  1          =ASBIOB     DS    A                       AS I/O block
 000028                             4342  1          =ASBENQ     DS    A                       AS Enqueue table
 00002C                             4343  1          =ASBM1SCP   DS    A                       Mode 1 SCP
 000030                             4344  1          =ASBTCCB    DS    A                       Terminal Control block
 000034                             4345  1          =ASBAIB     DS    A                       Accouting information
 000038                             4346  1          =ASBASFB    DS    A                       File services control block
 00003C                             4347  1          =ASBMSTR    DS    A                       AS Master Control block
 000040                             4348  1          =ASBNET     DS    A                       Local Network Control Block
                                    4349  1          =*ASBLW    DS    A     ** Temp RESMAN ** Lock waiting for
                                    4350  1          =*ASBLH    DS    A     ** Temp RESMAN ** Lock held
 000044                00044 00044  4351             =         END   ,
1PAGESERV (PAGE00) (09:42) (22MAR04) PAGESERV - Global DSECTs                                                               Page   41
0Loc    Object Code    Addr1 Addr2  Stmt Lv Lineno    Source Statement           (Hibal 5, Asmedit 3.3)  HLASM R4.0  2004/03/22 09.42
+___    ______ ____    _____ _____  ____ __ ______    ______ _________
0                                   4361     518.              COPY  SMFPFX                  SMF record prefix
 000000                00000 00018  4362             =SMFPFX   RECORD BEGIN
                                    4370  1          =SMFNUM     EQU   183                     SMF number for us
                                    4371  1          =
 000000                             4372  1          =           DS    8X                      - Available -
 000008                             4373  1          =SMFSYSTM   DS    CL8                     Subsystem name
 000010                             4374  1          =SMFCAT     DS    CL4                     Record category
 000014                             4375  1          =SMFNSEG    DS    A                       Number of data segments
 000018                00018 00018  4376             =         END   ,
-                                   4386     520.              COPY  SMFPAGE                 SMF paging record
 000000                00000 00058  4387             =SMFPAGE  RECORD BEGIN
 000000                             4395  1          =SMFPPFX    DS    XL(L'SMFPFX)
 000018                             4396  1          =SMFPGLOC   DS    A                       Offset of general section
 00001C                             4397  1          =SMFPLOC    DS    A                       Offset to paging section
 000020                             4398  1          =SMFSLOC    DS    A                       Offset to swapping section
                                    4399  1          =*
                                    4400  1          =*  General section
                                    4401  1          =*
 000024                             4402  1          =SMFPGLEN   DS    A                       Length of this record
 000028                             4403  1          =SMFPTIME   DS    A                       Interval of this record
 00002C                             4404  1          =SMFFRAME   DS    A                       Frame count
 000030                             4405  1          =SMFXPAGE   DS    A                       External frames alloc
 000034                             4406  1          =SMFXPMX    DS    A                       Maximum External frames alloc
 000038                             4407  1          =SMFXPT     DS    A                       Total external frames
                                    4408  1          =SMFPGEN    EQU   SMFPGLEN,*-SMFPGLEN,C'X'
                                    4409  1          =*
                                    4410  1          =*  Paging section
                                    4411  1          =*
 00003C                             4412  1          =SMFPLEN    DS    A                       Length of paging section
 000040                             4413  1          =SMFPGDAT   DS    2A                      # I/Os, 2 middle bytes of TOD
                                    4414  1          =SMFPPAGE   EQU   SMFPLEN,*-SMFPLEN,C'X'
                                    4415  1          =*
                                    4416  1          =*  Swapping section
                                    4417  1          =*
 000048                             4418  1          =SMFSLEN    DS    A                       Length of swapping section
 00004C                             4419  1          =SMFSCNT    DS    A                       Number of frames swapped
 000050                             4420  1          =SMFSWDAT   DS    2A                      # I/Os, 2 middle bytes of TOD
                                    4421  1          =SMFPSWAP   EQU   SMFSLEN,*-SMFSLEN,C'X'
 000058                00058 00058  4422             =         END   ,
1PAGESERV (PAGE00) (09:42) (22MAR04) PAGESERV - Local DSECTs                                                                Page   42
0Loc    Object Code    Addr1 Addr2  Stmt Lv Lineno    Source Statement           (Hibal 5, Asmedit 3.3)  HLASM R4.0  2004/03/22 09.42
+___    ______ ____    _____ _____  ____ __ ______    ______ _________
0                                   4432     522.              COPY  PAGCB
                                    4433             =*
                                    4434             =*  This DSECT is copied only for INTERNAL monitor programs.
                                    4435             =*  Otherwise it is a private area
                                    4436             =*
 000000                00000 00020  4437             =PAGCEL   RECORD BEGIN
 000000                             4445  1          =PAGCELHD    DS   A                       Head of list of cells
 000004                             4446  1          =PAGCELAMT   DS   A                       Number of free cells
 000008                             4447  1          =PAGCELID    DS   CL4                     ID type
                                    4448  1          =*  PCBs waiting for free cells
                                    4449  1          =PAGCELAS    LHEAD PFX=PAGCEL             ASBs waiting for free cells
                                    4450  1 01-LHEAD +PAGCELAS   EQU   *,12,C'N'
 00000C                             4451  1 01-LHEAD +PAGCELFP   DS    A                       Forward pointer
 000010                             4452  1 01-LHEAD +PAGCELBP   DS    A                       Backward pointer
 000014                             4453  1 01-LHEAD +PAGCELCNT   DS   A                       Number of elements in list
 000018                             4454  1          =PAGCELXTR   DS   A                       Extra cells available
 00001C                             4455  1          =PAGCELLEN   DS   H                       Length of this cell type
 00001E                             4456  1          =PAGCELBIT   DS   X                       Wait/post resource bit
 00001F                             4457  1          =            DS   X                       - Available -
 000020                             4458  1          =PAGCELNXT   DS   0A                      Next cell pool
 000020                00020 00020  4459             =         END   ,
1PAGESERV (PAGE00) (09:42) (22MAR04) PAGESERV - Local DSECTs                                                                Page   43
0Loc    Object Code    Addr1 Addr2  Stmt Lv Lineno    Source Statement           (Hibal 5, Asmedit 3.3)  HLASM R4.0  2004/03/22 09.42
+___    ______ ____    _____ _____  ____ __ ______    ______ _________
0000000                00000 002B4  4469             =PAGCB    RECORD BEGIN                  Real/External Mem Mgmgt Ctrl
 000000 D7C1C7C3C2404040            4477  1          =PAGCBID    DC    CL8'PAGCB'              Self identifying tag
 000008                             4478  1          =PAGSTPTR   DS    A                       Pointer to stats block
 00000C                             4479  1          =           DS    3A                      - Available -
                                    4480  1          =*
                                    4481  1          =*  Common memory management
                                    4482  1          =*
 000018                             4483  1          =PAGCASB    DS    A                       Common memory AS block
 00001C                             4484  1          =           DS    4A                      - Available -
-                                   4486  1          =*
                                    4487  1          =*  Routine addresses
                                    4488  1          =*
 00002C                             4489  1          =PAGLKOB    DS    A                       Lock obtain addr
 000030                             4490  1          =PAGLKREL   DS    A                       Lock release addr
 000034                             4491  1          =PAGRESLV   DS    A                       Address of internal resolve
 000038                             4492  1          =           DS    A                       - Available -
1PAGESERV (PAGE00) (09:42) (22MAR04) PAGESERV - Local DSECTs                                                                Page   44
0D-Loc  Object Code    Addr1 Addr2  Stmt Lv Lineno    Source Statement           (Hibal 5, Asmedit 3.3)  HLASM R4.0  2004/03/22 09.42
+_____  ______ ____    _____ _____  ____ __ ______    ______ _________
0                                   4494  1          =*
                                    4495  1          =* Frame management
                                    4496  1          =*
 00003C                             4497  1          =PAGFRAL    DS    A                       Free frame lock word
 000040                             4498  1          =PAGSWAPL   DS    A                       Swap lock word
 000044                             4499  1          =PAGPFTO    DS    A                       Page Frame Table Origin (VA)
 000048                             4500  1          =PAGFRAN    DS    A                       Number of frames in machine
 00004C                             4501  1          =           DS    A                       - Available -
 000050                             4502  1          =PAGFIXCNT   DS   A                       Number of frames for paging
                                    4503  1          =PAGUFHD    LHEAD PFX=PAGUF               NON HOST-FIXED FRAMES
                                    4504  1 01-LHEAD +PAGUFHD    EQU   *,12,C'N'
 000054                             4505  1 01-LHEAD +PAGUFFP    DS    A                       Forward pointer
 000058                             4506  1 01-LHEAD +PAGUFBP    DS    A                       Backward pointer
 00005C                             4507  1 01-LHEAD +PAGUFCNT   DS    A                       Number of elements in list
                                    4508  1          =
 000060                             4509  1          =PAGFTCNT   DS    A                  (CS) Total free frames (FCNT+FRC)
                                    4510  1          =PAGFHEAD   LHEAD PFX=PAGF                AVAIL FRAME LIST
                                    4511  1 01-LHEAD +PAGFHEAD   EQU   *,12,C'N'
 000064                             4512  1 01-LHEAD +PAGFFP     DS    A                       Forward pointer
 000068                             4513  1 01-LHEAD +PAGFBP     DS    A                       Backward pointer
 00006C                             4514  1 01-LHEAD +PAGFCNT    DS    A                       Number of elements in list
                                    4515  1          =
                                    4516  1          =PAGLASB    LHEAD PFX=PAGL                LOGICALLY SWAPPED ASBS
                                    4517  1 01-LHEAD +PAGLASB    EQU   *,12,C'N'
 000070                             4518  1 01-LHEAD +PAGLFP     DS    A                       Forward pointer
 000074                             4519  1 01-LHEAD +PAGLBP     DS    A                       Backward pointer
 000078                             4520  1 01-LHEAD +PAGLCNT    DS    A                       Number of elements in list
                                    4521  1          =PAGLIP     LHEAD PFX=PAGLI               LOGICALLY OUT - IN PROGRESS
                                    4522  1 01-LHEAD +PAGLIP     EQU   *,12,C'N'
 00007C                             4523  1 01-LHEAD +PAGLIFP    DS    A                       Forward pointer
 000080                             4524  1 01-LHEAD +PAGLIBP    DS    A                       Backward pointer
 000084                             4525  1 01-LHEAD +PAGLICNT   DS    A                       Number of elements in list
 000088                             4526  1          =PAGFLS     DS    A                       | frame count
                                    4527  1          =PAGRSCB    LHEAD PFX=PAGR                SWAPPED, NOT-RECLAIMED SWAPS
                                    4528  1 01-LHEAD +PAGRSCB    EQU   *,12,C'N'
 00008C                             4529  1 01-LHEAD +PAGRFP     DS    A                       Forward pointer
 000090                             4530  1 01-LHEAD +PAGRBP     DS    A                       Backward pointer
 000094                             4531  1 01-LHEAD +PAGRCNT    DS    A                       Number of elements in list
 000098                             4532  1          =PAGFRC     DS    A                       | frame count
                                    4533  1          =
                                    4534  1          =PAGFWT     LHEAD PFX=PAGFW               PCBS WAITING FOR FRAMES
                                    4535  1 01-LHEAD +PAGFWT     EQU   *,12,C'N'
 00009C                             4536  1 01-LHEAD +PAGFWFP    DS    A                       Forward pointer
 0000A0                             4537  1 01-LHEAD +PAGFWBP    DS    A                       Backward pointer
 0000A4                             4538  1 01-LHEAD +PAGFWCNT   DS    A                       Number of elements in list
                                    4539  1          =*  This next field is incremented when a "notified" address space
                                    4540  1          =*  has its frames taken, or when an address space which has its
                                    4541  1          =*  frames taken is "notified".  This field is decremented when
                                    4542  1          =*  frames are allocated for an address space as it is being
                                    4543  1          =*  prepared for swap in.
 0000A8                             4544  1          =PAGFWSI    DS    A                       Frames waiting swap-in
 0000AC                             4545  1          =PAGFSOIP   DS    A                       Frames w/ swap-out in progress
 0000B0                             4546  1          =PAGASIN    DS    A                  (CS) Number of ASBs swapped in
 0000B4                             4547  1          =PAGFRES    DS    A                  (CS) Number of 'reserved' frames
                                    4548  1          =
 0000B8                             4549  1          =PAGMEG     DS    A                       Number of Meg in address space
1PAGESERV (PAGE00) (09:42) (22MAR04) PAGESERV - Local DSECTs                                                                Page   45
0D-Loc  Object Code    Addr1 Addr2  Stmt Lv Lineno    Source Statement           (Hibal 5, Asmedit 3.3)  HLASM R4.0  2004/03/22 09.42
+_____  ______ ____    _____ _____  ____ __ ______    ______ _________
00000BC                             4550  1          =PAGSEGP    DS    H                       Number of pages for segment
                                    4551  1          =*                                        and shadow-segment tables
 0000BE                             4552  1          =PAGSEGL    DS    H                       Length of hardware seg table
 0000C0 00                          4553  1          =PAGFWAIT   FLAG  ,
 PAGFWAIT.PAGFWFRA 80 ONES          4557  1          =           FLAG  PAGFWFRA                Frame waiters to resume
 PAGFWAIT.PAGFWXP  40 ONES          4562  1          =           FLAG  PAGFWXP                 eXternal frame waiters to res
 PAGFWAIT.PAGFWIOP 20 ONES          4567  1          =           FLAG  PAGFWIOP                Page I/O cell waiters to res
 PAGFWAIT.PAGFWIOS 10 ONES          4572  1          =           FLAG  PAGFWIOS                Swap I/O cell waiters to res
 PAGFWAIT.PAGFWASN 08 ONES          4577  1          =           FLAG  PAGFWASN                ASN waiters to resume
 0000C1                             4582  1          =PAGSKEY    DS    X                       Storage key for paging reads
 0000C2                             4583  1          =           DS    2X                      - Available -
 0000C4                             4584  1          =           DS    A                       - Available -
                                    4585= 1          =
                                    4586= 1          =             Long term frame management.
                                    4587= 1          =
 0000C8                             4588  1          =PAGMINFR   DS    A                   Minimum suggested frame use
 0000CC                             4589  1          =PAGMAXFR   DS    A                   Maximum suggested frame use
 0000D0                             4590  1          =           DS    A                   Reserved
 0000D4                             4591  1          =PAGSRHI    DS    E                       Swap rate high (float)
 0000D8                             4592  1          =PAGSRLO    DS    E                       Swap rate low  (float)
 0000DC                             4593  1          =PAGSRAVG   DS    E                       Exp avg of swap rate (float)
 0000E0                             4594  1          =PAGSRATE   DS    E                       Exponential avg parm (float)
 0000E4                             4595  1          =PAGSRMHI   DS    E                       High Swap rate multiplier
 0000E8                             4596  1          =PAGSRMLO   DS    E                       Low  Swap rate multiplier
 0000EC                             4597  1          =PAGSRTHR   DS    A                       Long term freeing threshold
 0000F0                             4598  1          =PAGLTRT    DS    D                       Real time at last interval
 0000F8                             4599  1          =PAGLTST    DS    D                       Swap time at last interval
 000100                             4600  1          =PAGLTCNT   DS    A                       Frames swapped at last interval
 000104                             4601  1          =PAGLTADJ   DS    A                  (CS) Frames to long term get/free
                                    4602  1          =*
                                    4603  1          =*  Reserved frame calculations
                                    4604  1          =*
 000108                             4605  1          =PAGRESM    DS    E                       Slope
 00010C                             4606  1          =PAGRESX0   DS    E                       X-offset
 000110                             4607  1          =PAGRESB    DS    E                       Intercept
 000114                             4608  1          =PAGRESMX   DS    H                       Max
 000116                             4609  1          =PAGRESMN   DS    H                       Min
 000118                             4610  1          =PAGRESAMT   DS   A                       Actual reserve amount
 00011C                             4611  1          =           DS    A                       - Available -
                                    4612  1          =*
                                    4613  1          =*  Working set management
                                    4614  1          =*
 000120                             4615  1          =PAGMNHST   DS    A                       Minimum history val
 000124                             4616  1          =PAGGMHST   DS    A                       Global minimum history val
 000128                             4617  1          =           DS    A                       - Available -
                                    4618  1          =*
                                    4619  1          =*  Swap management
                                    4620  1          =*
 00012C                             4621  1          =PAGSWECB   DS    A                       ECB for swap address space
 000130                             4622  1          =           DS    2A                      - Available -
-                                   4624  1          =*
                                    4625  1          =*  Paging I/O control-block cell management
                                    4626  1          =*
 000138                             4627  1          =PAGCELLK   DS    A                       Lock ID for page/swap cells
1PAGESERV (PAGE00) (09:42) (22MAR04) PAGESERV - Local DSECTs                                                                Page   46
0D-Loc  Object Code    Addr1 Addr2  Stmt Lv Lineno    Source Statement           (Hibal 5, Asmedit 3.3)  HLASM R4.0  2004/03/22 09.42
+_____  ______ ____    _____ _____  ____ __ ______    ______ _________
0                                   4628  1          =PAGCEL1    EQU   PAGPGCEL
 00013C                             4629  1          =PAGPGCEL   DS    XL(L'PAGCEL)            Paging cell mgmt
                                    4630  1          =*
                                    4631  1          =*  Swapping I/O control-block cell management
                                    4632  1          =*
 00015C                             4633  1          =PAGSWCEL   DS    XL(L'PAGCEL)            Swapping cell mgmt
 00017C                             4634  1          =PAGSWXL    DS    H                       Length of frame extent
 00017E                             4635  1          =PAGSWXTL   DS    H                       Total swap extent length
 000180                             4636  1          =PAGSWXN    DS    H                       Number of frames in extent
 000182                             4637  1          =PAGSWAVG   DS    H                       Average working set size
 000184                             4638  1          =           DS    H                       - Available -
                                    4639  1          =*
                                    4640  1          =* ASN management
                                    4641  1          =*
 000188                             4642  1          =PAGASNL    DS    A                       Lock for ASN manipulation
 00018C                             4643  1          =PAGATO     DS    A                       Authority table origin (RA)
 000190                             4644  1          =PAGATL     DS    H                       Authority table length
 000192                             4645  1          =           DS    H                       - Available -
                                    4646  1          =PAGASNW    LHEAD PFX=PAGASN              Addr spaces waiting for ASN
                                    4647  1 01-LHEAD +PAGASNW    EQU   *,12,C'N'
 000194                             4648  1 01-LHEAD +PAGASNFP   DS    A                       Forward pointer
 000198                             4649  1 01-LHEAD +PAGASNBP   DS    A                       Backward pointer
 00019C                             4650  1 01-LHEAD +PAGASNCNT   DS   A                       Number of elements in list
 0001A0                             4651  1          =PAGAFTO    DS    A                       ASN First Table Origin (VA)
 0001A4                             4652  1          =PAG1ASN    DS    H                       First available ASN
 0001A6                             4653  1          =PAGTASN    DS    H                       Total number of ASNs
 0001A8                             4654  1          =PAGAVASN   DS    A                       | number available
 0001AC 00                          4655  1          =PAGASNF    FLAG  ,
 PAGASNF.PAGFASNL  80 ONES          4659  1          =           FLAG  PAGFASNL                ASN table being updated -
 0001AD                             4664  1          =           DS    3X                      - Available -
 0001B0                             4665  1          =           DS    A                       - Available -
-                                   4667  1          =*
                                    4668  1          =*  External paging frame management
                                    4669  1          =*
 0001B4                             4670  1          =PAGXPDS    DS    A                       Data set group descriptor
 0001B8                             4671  1          =PAGXPL     DS    A                       | lock word
 0001BC                             4672  1          =PAGXPCUR   DS    A                       | current in round robin alloc
 0001C0                             4673  1          =PAGXPN     DS    H                       | number of DSs in set
 0001C2 00                          4674  1          =PAGXPFLG   FLAG  ,
 PAGXPFLG.PAGXFURE 80 ONES          4678  1          =           FLAG  PAGXFUREL               Ext frame rel when we do a
                                    4683  1          =*                                        "free contents"
 PAGXPFLG.PAGXF1DE 40 ONES          4684  1          =           FLAG  PAGXF1DEF               Page defined in one place
                                    4689  1          =*                                        only - subset of PAGXFUREL
 0001C3                             4690  1          =           DS    X                       - Available -
 0001C4                             4691  1          =PAGXPRCNT   DS   A                       No. of resource elments avail
                                    4692  1          =*  PCBs waiting for external page frames
                                    4693  1          =PAGXPWT    LHEAD PFX=PAGXP
                                    4694  1 01-LHEAD +PAGXPWT    EQU   *,12,C'N'
 0001C8                             4695  1 01-LHEAD +PAGXPFP    DS    A                       Forward pointer
 0001CC                             4696  1 01-LHEAD +PAGXPBP    DS    A                       Backward pointer
 0001D0                             4697  1 01-LHEAD +PAGXPCNT   DS    A                       Number of elements in list
-                                   4699  1          =*
1PAGESERV (PAGE00) (09:42) (22MAR04) PAGESERV - Local DSECTs                                                                Page   47
0D-Loc  Object Code    Addr1 Addr2  Stmt Lv Lineno    Source Statement           (Hibal 5, Asmedit 3.3)  HLASM R4.0  2004/03/22 09.42
+_____  ______ ____    _____ _____  ____ __ ______    ______ _________
0                                   4700  1          =*  External swapping frame management
                                    4701  1          =*
 0001D4                             4702  1          =PAGXSDS    DS    A                       Data set group descriptor
 0001D8                             4703  1          =PAGXSL     DS    A                       | lock word
 0001DC                             4704  1          =PAGXSCUR   DS    A                       | current in round robin alloc
 0001E0                             4705  1          =PAGXSN     DS    H                       | number of DSs in set
 0001E2                             4706  1          =           DS    H                       - Available -
 0001E4                             4707  1          =PAGXSRCNT   DS   A                       No. of resource elments avail
-                                         1
00001E8                             4709  1          =           DS    4A                      - Available -
                                    4710  1          =*
                                    4711  1          =*  Measurement & Statistics
                                    4712  1          =*
 0001F8                             4713  1          =PAGSTATS   DS    0D                      Statistics Start
 0001F8                             4714  1          =PTRXPN     DS    A                       Pointers - # paging ds
 0001FC                             4715  1          =PTRXPDS    DS    A                       | 1st page ds descriptor
 000200                             4716  1          =PTRXPRCNT   DS   A                       | alloc external page count
 000204                             4717  1          =PTRXSN     DS    A                       | # swapping ds
 000208                             4718  1          =PTRXSDS    DS    A                       | 1st swap ds descriptor
 00020C                             4719  1          =PTRXSRCNT   DS   A                       | alloc external swap count
 000210                             4720  1          =PTRFRAN    DS    A                       | real frame count
 000214                             4721  1          =PTRASIN    DS    A                       | address spaces swapped in
 000218                             4722  1          =PTRLOUT    DS    A                       | logically swapped ASs
 00021C                             4723  1          =PTRFRAME   DS    A                       | fame count pointers
 000220                             4724  1          =           DS    3A                      - Available -
 000230                             4725  1          =PAGMTIME   DS    D                       Store clock @ last interval
                                    4726  1          =
 000238                             4727  1          =PAGMXPMX   DS    A                       Max ext frames ever alloc
 00023C                             4728  1          =PAGMXPG    DS    A                       Total num of external pages
 000240                             4729  1          =PAGMXSMX   DS    A                       Max ext swap frames ever alloc
 000244                             4730  1          =PAGMXSW    DS    A                       Total num of external swap
 000248                             4731  1          =PAGMASMX   DS    A                       Max logged on
 00024C                             4732  1          =           DS    3A                      - Available -
                                    4733  1          =
 000258                             4734  1          =PAGMSORN   DS    A                       Number of swap-out requests
 00025C                             4735  1          =PAGMSOVN   DS    A                       Number of virtual swap-outs
 000260                             4736  1          =PAGMSON    DS    A                       Number of swap-outs
 000264                             4737  1          =PAGMSOF    DS    A                       Frames swapped out
 000268                             4738  1          =PAGMSOTM   DS    D                       Total swap-out time
 000270                             4739  1          =PAGMSIRN   DS    A                       Number of swap-in requests
 000274                             4740  1          =PAGMSIVN   DS    A                       Number of virtual swap-ins
 000278                             4741  1          =PAGMSIN    DS    A                       Number of swap-ins
 00027C                             4742  1          =PAGMSIF    DS    A                       Frames swapped in
 000280                             4743  1          =PAGMSITM   DS    D                       Total swap-in time
 000288                             4744  1          =PAGMSMAX   DS    A                       Biggest swap
 00028C                             4745  1          =PAGMSOVR   DS    A                       Number of swaps over extent
 000290                             4746  1          =PAGMPON    DS    A                       Number of page-outs
 000294                             4747  1          =PAGMPIN    DS    A                       Number of page-ins
 000298                             4748  1          =PAGMPOT    DS    D                       Total page-out time
 0002A0                             4749  1          =PAGMPIT    DS    D                       Total page-in time
 0002A8                             4750  1          =PAGMFSO    DS    A            ** TEMP ** Failed swap-outs
 0002AC                             4751  1          =           DS    2A                      - Available -
                                    4752  1          =
1PAGESERV (PAGE00) (09:42) (22MAR04) PAGESERV - Local DSECTs                                                                Page   48
0D-Loc  Object Code    Addr1 Addr2  Stmt Lv Lineno    Source Statement           (Hibal 5, Asmedit 3.3)  HLASM R4.0  2004/03/22 09.42
+_____  ______ ____    _____ _____  ____ __ ______    ______ _________
0                                   4753  1          =PAGSTAT    EQU   PAGSTATS,*-PAGSTATS,C'R'
                                    4754  1          =
                                    4755  1          =PAGPAGEL   EQU   4096                    Length of a page
                                    4756  1          =DISABLE    EQU   X'04'                   Only DAT is left on
                                    4757  1          =PAGDAT     EQU   DISABLE                 |
                                    4758  1          =*
                                    4759  1          =*  The length of these EQUs is the number of bits to shift to right
                                    4760  1          =*  align the value
                                    4761  1          =*
                                    4762  1          =PAGPAGM    EQU   X'7FFFF000',12          Page/Frame mask
                                    4763  1          =PAGOFFM    EQU   X'00000FFF',0           Page offset mask
                                    4764  1          =PAGSGNM    EQU   X'7FF00000',20          Segment number mask
                                    4765  1          =PAGPGNM    EQU   X'000FF000',12          Page number mask
                                    4766  1          =PAGAFXM    EQU   X'0000FFC0',6           AFX mask for ASN
                                    4767  1          =PAGASXM    EQU   X'0000003F',0           ASX mask for ASN
                                    4768  1          =PAGSTOM    EQU   X'7FFFF000',12          Segment table origin mask
                                    4769  1          =PAGSTLM    EQU   X'0000007F',0           Segment table length mask
                                    4770  1          =PAGKEYM    EQU   X'000000F8'             Clear ref/change bits of key
                                    4771  1          =
                                    4772  1          =PAGHINIT   EQU   X'8000'                 History Initialization
                                    4773  1          =PAGKREF    EQU   X'F8'                   Storage key reference mask
                                    4774  1          =PAGKRB     EQU   X'04'                   | reference bit in key
                                    4775  1          =PAGKCHG    EQU   X'02'                   | change bit in key
 0002B4                002B4 002B4  4776             =         END   ,                       OF Real/External Mem Mgmt Ctrl
1PAGESERV (PAGE00) (09:42) (22MAR04) PAGESERV - Local DSECTs                                                                Page   49
0Loc    Object Code    Addr1 Addr2  Stmt Lv Lineno    Source Statement           (Hibal 5, Asmedit 3.3)  HLASM R4.0  2004/03/22 09.42
+___    ______ ____    _____ _____  ____ __ ______    ______ _________
0                                   4786     524.              COPY  ASBPCB
                                    4787             =*
                                    4788             =*  This DSECT is copied only for INTERNAL monitor programs.
                                    4789             =*  Otherwise it is a private area
                                    4790             =*
 000000                00000 000B8  4791             =ASBPCB   RECORD BEGIN                  Address Space Block - Paging
                                    4799  1          =PCBCHAIN   LELEM PFX=PCBPC               Link for PCBs on swap chain
                                    4800  1 01-LELEM +PCBCHAIN   EQU   *,8,C'N'
 000000                             4801  1 01-LELEM +PCBPCFP    DS    A                       Forward pointer
 000004                             4802  1 01-LELEM +PCBPCBP    DS    A                       Backward pointer
 000008 D7C3C240                    4803  1          =ASBPCBID   DC    CL4'PCB'
 00000C                             4804  1          =PCBASB     DS    A                       Pointer to ASB
 000010                             4805  1          =PCBVA      DS    A                       Virtual addr of this PCB
 000014                             4806  1          =PCBRA      DS    A                       Real addr of this PCB
 000018                             4807  1          =PCBLOCK    DS    A                       Lock for this AS
 00001C                             4808  1          =PCBPSTO    DS    A                       Primary Seg Table Origin (VA)
 000020                             4809  1          =PCBPASN    DS    H                       Primary ASN
                                    4810  1          =*
                                    4811  1          =*  This flag byte is governed by the local PCB lock (PCBLOCK)
                                    4812  1          =*
 000022 00                          4813  1          =PCBSF1     FLAG  ,                       State flags
 PCBSF1.PCBFGBLC   80 ONES          4817  1          =           FLAG  PCBFGBLC                This is for Global/Common
 PCBSF1.PCBFTERM   40 ONES          4822  1          =           FLAG  PCBFTERM                Don't change page frames
 PCBSF1.PCBFSOUT   20 ONES          4827  1          =           FLAG  PCBFSOUT                AS swapped out (DISPATCH)
                                    4832  1          =*
                                    4833  1          =*  This flag byte is governed by the swap lock (PAGSWAPL)
                                    4834  1          =*
 000023 00                          4835  1          =PCBSFLG    FLAG  ,                       Frame resource Flags
 PCBSFLG.PCBFISOUT 80 ONES          4839  1          =           FLAG  PCBFISOUT               AS swapped out (PAGESERV)
 PCBSFLG.PCBFLOUT  40 ONES          4844  1          =           FLAG  PCBFLOUT                Swap out is logical
 PCBSFLG.PCBFLIP   20 ONES          4849  1          =           FLAG  PCBFLIP                 Logical, but in progress
 PCBSFLG.PCBFRSIN  10 ONES          4854  1          =           FLAG  PCBFRSIN                Swap-in requested
 PCBSFLG.PCBFNOTE  08 ONES          4859  1          =           FLAG  PCBFNOTE                Swap-in notified (not req yet)
                                    4864  1          =
 000024                             4865  1          =           DS    0A                      Flags in own word for CS
                                    4866  1          =*
                                    4867  1          =*  This flag byte is CS (compare and swap) controlled.  It may
                                    4868  1          =*  be set/cleared with either the PAGFRAL or local PCBLOCK held
                                    4869  1          =*
 000024 00                          4870  1          =PCBCSFLG   FLAG  ,                       Compare/swap flag
 000025                             4874  1          =PCBPSTL    DS    X                       Primary Segment Table Length
 000026                             4875  1          =           DS    H                       - Available -
 000028                             4876  1          =PCBWSHIST   DS   A                       Minimum WS history value
 00002C                             4877  1          =PCBFLIMIT   DS   A                       Upper frame limit for work set
                                    4878  1          =*
                                    4879  1          =*  Frames lists
                                    4880  1          =*
                                    4881  1          =PCBUFLH    LHEAD PFX=PCBF                Page Frame lists - user frames
                                    4882  1 01-LHEAD +PCBUFLH    EQU   *,12,C'N'
 000030                             4883  1 01-LHEAD +PCBFFP     DS    A                       Forward pointer
 000034                             4884  1 01-LHEAD +PCBFBP     DS    A                       Backward pointer
 000038                             4885  1 01-LHEAD +PCBFCNT    DS    A                       Number of elements in list
                                    4886  1          =PCBPFLH    LHEAD PFX=PCBPF               | page table frames
                                    4887  1 01-LHEAD +PCBPFLH    EQU   *,12,C'N'
 00003C                             4888  1 01-LHEAD +PCBPFFP    DS    A                       Forward pointer
 000040                             4889  1 01-LHEAD +PCBPFBP    DS    A                       Backward pointer
1PAGESERV (PAGE00) (09:42) (22MAR04) PAGESERV - Local DSECTs                                                                Page   50
0Loc    Object Code    Addr1 Addr2  Stmt Lv Lineno    Source Statement           (Hibal 5, Asmedit 3.3)  HLASM R4.0  2004/03/22 09.42
+___    ______ ____    _____ _____  ____ __ ______    ______ _________
0000044                             4890  1 01-LHEAD +PCBPFCNT   DS    A                       Number of elements in list
                                    4891  1          =PCBSFLH    LHEAD PFX=PCBSF               |  & segment table frames
                                    4892  1 01-LHEAD +PCBSFLH    EQU   *,12,C'N'
 000048                             4893  1 01-LHEAD +PCBSFFP    DS    A                       Forward pointer
 00004C                             4894  1 01-LHEAD +PCBSFBP    DS    A                       Backward pointer
 000050                             4895  1 01-LHEAD +PCBSFCNT   DS    A                       Number of elements in list
                                    4896  1          =PCBLFLH    LHEAD PFX=PCBLF               |   & locked frames
                                    4897  1 01-LHEAD +PCBLFLH    EQU   *,12,C'N'
 000054                             4898  1 01-LHEAD +PCBLFFP    DS    A                       Forward pointer
 000058                             4899  1 01-LHEAD +PCBLFBP    DS    A                       Backward pointer
 00005C                             4900  1 01-LHEAD +PCBLFCNT   DS    A                       Number of elements in list
                                    4901  1          =PCBSTM     EQU   X'7FFFF000'             Segment table mask
                                    4902  1          =*
                                    4903  1          =*  Swapping control
                                    4904  1          =*
 000060                             4905  1          =PCBSWCB    DS    A                       Master Swap Control block
 000064                             4906  1          =PCBSWCNT   DS    H                       Total frames swapped
 000066                             4907  1          =PCBSWPCT   DS    H                       Number of page tables swapped
 000068                             4908  1          =PCBSWCBN   DS    H                       Number of swap control blocks
 00006A                             4909  1          =PCBSWFS    DS    H                       Stolen frames count
                                    4910  1          =PCBSWIN    LHEAD PFX=PCBSI               Swap control blocks - in core
                                    4911  1 01-LHEAD +PCBSWIN    EQU   *,12,C'N'
 00006C                             4912  1 01-LHEAD +PCBSIFP    DS    A                       Forward pointer
 000070                             4913  1 01-LHEAD +PCBSIBP    DS    A                       Backward pointer
 000074                             4914  1 01-LHEAD +PCBSICNT   DS    A                       Number of elements in list
                                    4915  1          =*
                                    4916  1          =*    PCB page-write control.  The address space termination routine
                                    4917  1          =*  will wait on this ECB if there are page-write I/Os in progress.
                                    4918  1          =*
 000078                             4919  1          =PCBWECB    DS    D                       Termination ECB
 000080                             4920  1          =PCBWPEND   DS    A                       Page write completions pending
 000084                             4921  1          =PCBWCNT    DS    A                       Page write I/Os outstanding
 000088                             4922  1          =PCBPFOUT   DS    A                       Page faults outstanding
 00008C                             4923  1          =PCBMPFR    DS    A                       Number of paging reads
 000090                             4924  1          =PCBMPFW    DS    A                       | writes
 000094                             4925  1          =PCBMSWR    DS    A                       | swapping reads
 000098                             4926  1          =PCBMSWW    DS    A                       | writes
                                    4927  1          =* -- These fields will have to be moved if we can have simultaneous
                                    4928  1          =* -- page faults under the same ASB control.
 0000A0                             4929  1          =           DS    0D
 0000A0                             4930  1          =PCBWAIT    DS    A                       PCBs waiting on same event
 0000A4                             4931  1          =PCBAMT     DS    A                       | amount waiting for (if app)
 0000A8                             4932  1          =PCBECB     DS    D                       Posting block for this PCB
 0000B0                             4933  1          =PCBFOPCB   DS    A                       PCB that owns frames
 0000B4 00                          4934  1          =PCBWCODE   FLAG  ,
 PCBWCODE.PCBFREAD 01 EQ            4938  1          =           FLAG  (PCBFREAD,1,EQ)         Waiting for read
 PCBWCODE.PCBFREL  02 EQ            4948  1          =           FLAG  (PCBFREL,2,EQ)          Waiting to release frame
 0000B5                             4958  1          =PCBPSWM    DS    X                       PSW mask
 0000B6 00                          4959  1          =PCBLOCKF   FLAG  ,
 PCBLOCKF.PCBFGBL  80 ONES          4963  1          =           FLAG  PCBFGBL                 Global lock held
 PCBLOCKF.PCBFLCL  40 ONES          4968  1          =           FLAG  PCBFLCL                 Local lock held
 PCBLOCKF.PCBFSYNC 20 ONES          4973  1          =           FLAG  PCBFSYNC                Do operations synchronously
 0000B7                             4978  1          =           DS    X                       - Available -
 0000B8                000B8 000B8  4979             =         END   ,
1PAGESERV (PAGE00) (09:42) (22MAR04) PAGESERV - Local DSECTs                                                                Page   51
0Loc    Object Code    Addr1 Addr2  Stmt Lv Lineno    Source Statement           (Hibal 5, Asmedit 3.3)  HLASM R4.0  2004/03/22 09.42
+___    ______ ____    _____ _____  ____ __ ______    ______ _________
0                                   4989     526.     *        COPY  PFTE
 000000                00000 00020  4990     527.     PFTE     RECORD BEGIN                  Page Frame Table Entry
                                    4998  1  528.     PFTL       LELEM PFX=PFT
                                    4999  1 01-LELEM +PFTL       EQU   *,8,C'N'
 000000                             5000  1 01-LELEM +PFTFP      DS    A                       Forward pointer
 000004                             5001  1 01-LELEM +PFTBP      DS    A                       Backward pointer
 000008                             5002  1  529.     PFTVA      DS    A                       Current/recent virt addr
 00000C                             5003  1  530.     PFTASB     DS    A                       ASB of current/recent owner
 000010                             5004  1  531.     PFTIOCB    DS    A                       Ctl blk for frames paging IO
 000014                             5005  1  532.     PFTSEG     DS    H                       Segment for PT page
                                    5006  1  533.     PFTSEGM    EQU   X'000003FF'             | mask for seg number
 000016                             5007  1  534.     PFTHIST    DS    H                       Working set history
 000018                             5008  1  535.     PFTFIX     DS    H                       Number of page fixes for frame
 00001A                             5009  1  536.     PFTSFIX    DS    H                       Short term fixes for frame
 00001C                             5010  1  537.     PFTQ       DS    X                       Queue that frame is on
 00001D 00                          5011  1  538.     PFTFLG     FLAG  ,
 PFTFLG.PFTFPGT    80 ONES          5015  1  539.                FLAG  PFTFPGT                 Frame is for a page table
 PFTFLG.PFTFPWR    40 ONES          5020  1  540.                FLAG  PFTFPWR                 Page IO is a write
 PFTFLG.PFTFUFIX   20 ONES          5025  1  541.                FLAG  PFTFUFIX                Unfix frame on IO complete
 PFTFLG.PFTFREL    10 ONES          5030  1  542.                FLAG  PFTFREL                 Release frame on IO complete
 00001E                             5035  1  543.                DS    X                       - Available -
                                    5036  1  544.
                                    5037  1  545.            Flags that stay permanent across frame allocation
                                    5038  1  546.
 00001F 00                          5039  1  547.     PFTFLG2    FLAG  ,
 PFTFLG2.PFTPAGING 80 ONES          5043  1  548.                FLAG  PFTPAGING               Frame is OK for paging
 000020                             5048  1  549.     PFTNXT     DS    0X                      Next page frame entry
 000020                             5049  1  550.     PFTLOG     RECLOG ,                      Logarithm of entry length
                                    5054  1 01-RECLO +PFTLOG     EQU   5,,C'N'
 000020                00020 00020  5055     551.              END   ,
1PAGESERV (PAGE00) (09:42) (22MAR04) PAGESERV - Local DSECTs                                                                Page   52
0Loc    Object Code    Addr1 Addr2  Stmt Lv Lineno    Source Statement           (Hibal 5, Asmedit 3.3)  HLASM R4.0  2004/03/22 09.42
+___    ______ ____    _____ _____  ____ __ ______    ______ _________
0                                   5065     553.     *        COPY  AFTE
 000000                00000 00004  5066     554.     AFTE     RECORD BEGIN                  ASN First Table Entry
 000000                             5074  1  555.     AFTASTO    DS    A
 AFTASTO.AFTFINV   80 ONES          5075  1  556.                FLAG  (AFTFINV,AFTASTO.X'80') This table unavailable
                                    5084  1  557.     AFTASTM    EQU   X'7FFFFFF0'             ASTO mask
 000004                             5085  1  558.     AFTNXT     DS    0A                      Next entry
 000004                             5086  1  559.     AFTLOG     RECLOG ,
                                    5091  1 01-RECLO +AFTLOG     EQU   2,,C'N'
 000004                00004 00004  5092     560.              END   ,                       OF ASN First Table Entry
0                                   5102     562.     *        COPY  ASTE
 000000                00000 00010  5103     563.     ASTE     RECORD BEGIN                  ASN Second Table Entry
 000000                             5111  1  564.     ASTATO     DS    A                       Authority Table Origin
 ASTATO.ASTFINV    80 ONES          5112  1  565.                FLAG  (ASTFINV,ASTATO.X'80')  This address space unavailable
 000004                             5121  1  566.     ASTAX      DS    H                       Authority Index
 000006                             5122  1  567.     ASTATL     DS    H                       Authority Table Length
 000008                             5123  1  568.     ASTSTD     DS    A                       Segment Table Descriptor
 ASTSTD.ASTFSSE    80 ONES          5124  1  569.                FLAG  (ASTFSSE,ASTSTD.X'80')  Space Switch Event control
                                    5133  1  570.     ASTSTO     EQU   X'7FFFF000'             Segment Table Origin mask
                                    5134  1  571.     ASTSTL     EQU   X'0000007F'             Segment Table Length mask
 00000C                             5135  1  572.     ASTLTD     DS    A                       Linkage Table Descriptor
 ASTLTD.ASTFSLC    80 ONES          5136  1  573.                FLAG  (ASTFSLC,ASTLTD.X'80')  Subsys Linkage Control
                                    5145  1  574.     ASTLTO     EQU   X'7FFFFF80'             Linkage Table Origin mask
                                    5146  1  575.     ASTLTL     EQU   X'0000007F'             Linkage Table Length mask
 000010                             5147  1  576.     ASTNXT     DS    0A                      Next entry
 000010                             5148  1  577.     ASTLOG     RECLOG ,
                                    5153  1 01-RECLO +ASTLOG     EQU   4,,C'N'
 000010                00010 00010  5154     578.              END   ,                       OF ASN Second Table Entry
1PAGESERV (PAGE00) (09:42) (22MAR04) PAGESERV - Local DSECTs                                                                Page   53
0Loc    Object Code    Addr1 Addr2  Stmt Lv Lineno    Source Statement           (Hibal 5, Asmedit 3.3)  HLASM R4.0  2004/03/22 09.42
+___    ______ ____    _____ _____  ____ __ ______    ______ _________
0                                   5164     580.     *        COPY  SGTE
 000000                00000 00004  5165     581.     SGTE     RECORD BEGIN                  Segment Table Entry
 000000                             5173  1  582.     SGTAD      DS    0A,AL3                  High 24 bits of real address
 000003 00                          5174  1  583.     SGTPTLEN   FLAG  ,                       Flags + page table length
 SGTPTLEN.SGTFINV  20 ONES          5178  1  584.                FLAG  (SGTFINV,X'20')         Segment is invalid
 SGTPTLEN.SGTFCOMM 10 ONES          5187  1  585.                FLAG  (SGTFCOMM,X'10')        Segment is common
                                    5196  1  586.     SGTADMSK   EQU   X'7FFFFFC0',6           Page table address mask
                                    5197  1  587.     SGTFLMSK   EQU   X'0000003F'             Mask for all flags
                                    5198  1  588.     SGTFLIMSK   EQU  X'0000001F'             All flags except invalid
                                    5199  1  589.     SGPTLMSK   EQU   X'0000000F'             Page table length mask
 000004                             5200  1  590.     SGTNXT     DS    0X                      Next segment table entry
 000004                             5201  1  591.     SGTLOG     RECLOG ,                      Logarithm of entry length
                                    5206  1 01-RECLO +SGTLOG     EQU   2,,C'N'
 000004                00004 00004  5207     592.              END   ,
0                                   5217     594.     *        COPY  SSTE
 000000                00000 00008  5218     595.     SSTE     RECORD BEGIN                  Shadow Segment Table Entry
 000000                             5226  1  596.     SSXSLOT    DS    A                       External segment slot number
 000004                             5227  1  597.     SSKEY      DS    X                       Access key
 000005                             5228  1  598.     SSTNUM     DS    X                       Number of valid pages in PT
 000006 00                          5229  1  599.     SSTFLG1    FLAG  ,
 SSTFLG1.SSTFDEF   80 ONES          5233  1  600.                FLAG  SSTFDEF                 This is a defined segment
 SSTFLG1.SSTFCOMM  40 ONES          5238  1  601.                FLAG  SSTFCOMM                This is a common segment
 SSTFLG1.SSTFIO    20 ONES          5243  1  602.                FLAG  SSTFIO                  This seg fault dealt with
 SSTFLG1.SSTFSWAP  10 ONES          5248  1  603.                FLAG  SSTFSWAP                This seg table in swapped set
 000007                             5253  1  604.     SSINIT     DS    X                       Hash value for segment
 000008                             5254  1  605.     SSTNXT     DS    0X                      Next shadow segment table entry
 000008                             5255  1  606.     SSTLOG     RECLOG ,                      Logarithm of entry length
                                    5260  1 01-RECLO +SSTLOG     EQU   3,,C'N'
 000008                00008 00008  5261     607.              END   ,                       OF Shadow Segment Table Entry
1PAGESERV (PAGE00) (09:42) (22MAR04) PAGESERV - Local DSECTs                                                                Page   54
0Loc    Object Code    Addr1 Addr2  Stmt Lv Lineno    Source Statement           (Hibal 5, Asmedit 3.3)  HLASM R4.0  2004/03/22 09.42
+___    ______ ____    _____ _____  ____ __ ______    ______ _________
0                                   5271     609.     *        COPY  PGTE
 000000                00000 00004  5272     610.     PGTE     RECORD BEGIN                  Page Table Entry
 000000                             5280  1  611.     PGAD       DS    0A,H                    High 15 bits of real address
                                    5281  1  612.     PGTADMSK   EQU   X'7FFFF000',12          Page frame address mask
                                    5282  1  613.     PGTFLMSK   EQU   X'000006FF'             PGTE flag mask
 000002 00                          5283  1  614.     PGTFLG1    FLAG  ,
 PGTFLG1.PGTFINV   04 ONES          5287  1  615.                FLAG  (PGTFINV,X'04')         Page is invalid
 PGTFLG1.PGTFPROT  02 ONES          5296  1  616.                FLAG  (PGTFPROT,X'02')        Page is protected
                                    5305  1  617.     PGTAIMSK   EQU   PGTFLMSK-(256*L'PGTFINV)         clear addr & invalid
 000003 00                          5306  1  618.     PGTFLG2    FLAG  ,
 PGTFLG2.PGTFDEF   80 ONES          5310  1  619.                FLAG  PGTFDEF                 Page has been defined
 PGTFLG2.PGTFREF   40 ONES          5315  1  620.                FLAG  PGTFREF                 Page has been referenced once
 PGTFLG2.PGTFCOMM  20 ONES          5320  1  621.                FLAG  PGTFCOMM                Page is in common segment
 PGTFLG2.PGTFPGT   10 ONES          5325  1  622.                FLAG  PGTFPGT                 Page table page
 PGTFLG2.PGTFIO    08 ONES          5330  1  623.                FLAG  PGTFIO                  Page fault dealt with
 PGTFLG2.PGTFXDEF  04 ONES          5335  1  624.                FLAG  PGTFXDEF                External page defined
 PGTFLG2.PGTFXSWAP 02 ONES          5340  1  625.                FLAG  PGTFXSWAP               External page in swap set
 000004                             5345  1  626.     PGTNXT     DS    0X                      Next page table entry
 000004                             5346  1  627.     PGTLOG     RECLOG ,                      Logarithm of entry length
                                    5351  1 01-RECLO +PGTLOG     EQU   2,,C'N'
 000004                00004 00004  5352     628.              END   ,                       OF Page Table Entry
0                                   5362     630.     *        COPY  SPTE
 000000                00000 00008  5363     631.     SPTE     RECORD BEGIN                  Shadow Page Table Entry
 000000                             5371  1  632.     SPXSLOT    DS    A                       External page slot number
 000004                             5372  1  633.     SPHIST     DS    X                       Reference history
 000005                             5373  1  634.     SPKEY      DS    X                       Access key
 SPKEY.SPFPROT     10 ONES          5374  1  635.                FLAG  (SPFPROT,SPKEY.X'10')   | Fetch protection bit
                                    5383  1  636.     * SPINIT   DS    X                       Page initialization value
 000006                             5384  1  637.                DS    2X                      - Available -
 000008                             5385  1  638.     SPTNXT     DS    0X                      Next shadow page table entry
 000008                             5386  1  639.     SPTLOG     RECLOG ,                      Logarithm of entry length
                                    5391  1 01-RECLO +SPTLOG     EQU   3,,C'N'
 000008                00008 00008  5392     640.              END   ,                       OF Shadow Page Table Entry
0                                   5402     642.     *        COPY  PAGTABLE
 000000                00000 01000  5403     643.     PAGTABLE RECORD BEGIN                  Page/Shadow Page Table
 000000                             5411  1  644.     PGT        DS    256XL(L'PGTE)           Hardware Page Table
                                    5412  1  645.     PGTL       EQU   *-PAGTABLE              | len of hardware sect
 000400                             5413  1  646.     SPGT       DS    256XL(L'SPTE)           Shadow Page Table
 000C00                00C00 01000  5414  1  647.                ORG   PGT+4096                - Use a whole page -
 001000                01000 01000  5415     648.              END   ,                       OF Page/Shadow Page Table
1PAGESERV (PAGE00) (09:42) (22MAR04) PAGESERV - Local DSECTs                                                                Page   55
0Loc    Object Code    Addr1 Addr2  Stmt Lv Lineno    Source Statement           (Hibal 5, Asmedit 3.3)  HLASM R4.0  2004/03/22 09.42
+___    ______ ____    _____ _____  ____ __ ______    ______ _________
0                                   5425     650.              COPY  PIOPARM                 Host paging parameters
                                    5426             =*******************************************************************
                                    5427             =*                                                                 *
                                    5428             =*    PIOPARM - ORVYL Page System I/O request parameters           *
                                    5429             =*                                                                 *
                                    5430             =*******************************************************************
0                                   5432             =*
                                    5433             =* Prefix for every request
                                    5434             =*
 000000                00000 00004  5435             =#PIOCOM  RECORD BEGIN
 000000                             5443  1          =#PIOCMD    DS    A
                                    5444  1          =*
                                    5445  1          =* Page Device I/O command codes
                                    5446  1          =*
                                    5447  1          =#PCOPEN    EQU   4                       Open action code
                                    5448  1          =#PCCLOSE   EQU   8                       Close I/O code
                                    5449  1          =#PCREAD    EQU   12                      Read I/O code
                                    5450  1          =#PCWRITE   EQU   16                      Write I/O code
                                    5451  1          =#PCRESET   EQU   20                      Device reset code
 000004                00004 00004  5452             =         END   ,
-                                   5462             =*
                                    5463             =* Page Device Open request
                                    5464             =*
 000000                00000 0000C  5465             =#PIOOPEN RECORD BEGIN
 000000                             5473  1          =#PIOOCMD   DS    XL(L'#PIOCOM)
 000004                             5474  1          =#PIOALLO   DS    A                       Data set allocation info
 000008                             5475  1          =#PIOINFO   DS    A                       Data set info return area
 00000C                0000C 0000C  5476             =         END   ,
-                                   5486             =*
                                    5487             =* Page Device Close request
                                    5488             =*
 000000                00000 00004  5489             =#PICLOSE RECORD BEGIN
 000000                             5497  1          =#PIOCCMD   DS    XL(L'#PIOCOM)
 000004                00004 00004  5498             =         END   ,
-                                   5508             =*
                                    5509             =* Page Device Read/Write request
                                    5510             =*
 000000                00000 0000C  5511             =#PIODO   RECORD BEGIN
 000000                             5519  1          =#PIODCMD   DS    XL(L'#PIOCOM)
 000004                             5520  1          =#PIOBLK    DS    A                       Block number
 000008                             5521  1          =#PIOLOC    DS    A                       Page location (Guest real)
 00000C                0000C 0000C  5522             =         END   ,
-                                   5532             =*
                                    5533             =* Page Device Reset request
                                    5534             =*
 000000                00000 00004  5535             =#PIRESET RECORD BEGIN
 000000                             5543  1          =#PIOTCMD   DS    XL(L'#PIOCOM)
1PAGESERV (PAGE00) (09:42) (22MAR04) PAGESERV - Local DSECTs                                                                Page   56
0Loc    Object Code    Addr1 Addr2  Stmt Lv Lineno    Source Statement           (Hibal 5, Asmedit 3.3)  HLASM R4.0  2004/03/22 09.42
+___    ______ ____    _____ _____  ____ __ ______    ______ _________
0000004                00004 00004  5544             =         END   ,
 000000                00000 00018  5553     651.     PSCPFX   RECORD BEGIN                  Page/Swap cell prefix
 000000                             5561  1  652.     PSCFP      DS    A                       Pointer to next cell
 000004                             5562  1  653.     PSCBP      DS    A                         and pointer backwards
 000008 D7C7C9D6                    5563  1  654.     PSCID      DC    CL4'PGIO'               Control block ID
 00000C                             5564  1  655.     PSCIO      DS    A                       I/O Supervisor ID
 000010                             5565  1  656.     PSCDEV     DS    A                       Device descriptor
 000014                             5566  1  657.     PSCASB     DS    A                       ASB
 000018                00018 00018  5567     658.              END   ,
                                    5576     659.     *
 000000                00000 00030  5577     660.     PGDPAGE  RECORD BEGIN                  Paging work descriptor
 000000                             5585  1  661.     PGDPGPFX   DS    XL(L'PSCPFX)
 000018                             5586  1  662.     PGDPGWT    DS    A                       Waiting tasks
 00001C                             5587  1  663.     PGDPGVA    DS    A                       Virtual addr of page
 000020 00                          5588  1  664.     PGDPGFLG   FLAG  ,
 PGDPGFLG.PGDFPGT  80 ONES          5592  1  665.                FLAG  PGDFPGT                 I/O is for page table
 000021                             5597  1  666.     PGDIOF     DS    X                   ddf IO finished flag (TS)
 000022                             5598  1  667.     PGDPGSEG   DS    H                       Segment number of PT page
 000024                             5599  1  668.     PGDPIO     DS    0A,(L'#PIODO)X          @PIO Parm control block
 000030                             5600  1  669.                DS    0D
 000030                00030 00030  5601     670.              END   ,
1PAGESERV (PAGE00) (09:42) (22MAR04) PAGESERV - Local DSECTs                                                                Page   57
0Loc    Object Code    Addr1 Addr2  Stmt Lv Lineno    Source Statement           (Hibal 5, Asmedit 3.3)  HLASM R4.0  2004/03/22 09.42
+___    ______ ____    _____ _____  ____ __ ______    ______ _________
0                                   5611     672.              COPY  SWAPPARM                Host swapping parameters
                                    5612             =*******************************************************************
                                    5613             =*                                                                 *
                                    5614             =*    SWAPPARM - ORVYL Swap System I/O request parameters           *
                                    5615             =*                                                                 *
                                    5616             =*******************************************************************
0                                   5618             =*
                                    5619             =* Prefix for every request
                                    5620             =*
 000000                00000 00004  5621             =#SWAPCOM RECORD BEGIN
 000000                             5629  1          =#SWAPCMD   DS    A
                                    5630  1          =*
                                    5631  1          =* Swap Device I/O command codes
                                    5632  1          =*
                                    5633  1          =#SWCOPEN   EQU   4                       Open action code
                                    5634  1          =#SWCCLOS   EQU   8                       Close I/O code
                                    5635  1          =#SWCREAD   EQU   12                      Read I/O code
                                    5636  1          =#SWCWRIT   EQU   16                      Write I/O code
                                    5637  1          =#SWCRSET   EQU   20                      Reset I/O code
 000004                00004 00004  5638             =         END   ,
-                                   5648             =*
                                    5649             =* Swap Device Open request
                                    5650             =*
 000000                00000 0000C  5651             =#SWPOPEN RECORD BEGIN
 000000                             5659  1          =#SWPOCMD   DS    XL(L'#SWAPCOM)
 000004                             5660  1          =#SWPALLO   DS    A                       Data set allocation info
 000008                             5661  1          =#SWPINFO   DS    A                       Data set info return area
 00000C                0000C 0000C  5662             =         END   ,
-                                   5672             =*
                                    5673             =* Swap Device Close request
                                    5674             =*
 000000                00000 00004  5675             =#SWPCLOS RECORD BEGIN
 000000                             5683  1          =#SWPCCMD   DS    XL(L'#SWAPCOM)
 000004                00004 00004  5684             =         END   ,
-                                   5694             =*
                                    5695             =* Swap Device Read/Write request
                                    5696             =*
 000000                00000 0000E  5697             =#SWPDO   RECORD BEGIN
 000000                             5705  1          =#SWPDCMD   DS    XL(L'#SWAPCOM)
 000004                             5706  1          =#SWPBLK    DS    A                       Starting block number
 000008                             5707  1          =#SWPLIST   DS    A                       Pointer to page list
 00000C                             5708  1          =#SWPCNT    DS    H                       Total number of pages
 00000E                0000E 0000E  5709             =         END   ,
-                                   5719             =*
                                    5720             =* Swap Device Reset request
                                    5721             =*
 000000                00000 00004  5722             =#SWPRSET RECORD BEGIN
1PAGESERV (PAGE00) (09:42) (22MAR04) PAGESERV - Local DSECTs                                                                Page   58
0Loc    Object Code    Addr1 Addr2  Stmt Lv Lineno    Source Statement           (Hibal 5, Asmedit 3.3)  HLASM R4.0  2004/03/22 09.42
+___    ______ ____    _____ _____  ____ __ ______    ______ _________
0000000                             5730  1          =#SWPRCMD   DS    XL(L'#SWAPCOM)
 000004                00004 00004  5731             =         END   ,
1PAGESERV (PAGE00) (09:42) (22MAR04) PAGESERV - Local DSECTs                                                                Page   59
0Loc    Object Code    Addr1 Addr2  Stmt Lv Lineno    Source Statement           (Hibal 5, Asmedit 3.3)  HLASM R4.0  2004/03/22 09.42
+___    ______ ____    _____ _____  ____ __ ______    ______ _________
0                                   5741     674.
                                    5742     675.          A swapping control block is made up of nested DSECTS
                                    5743     676.          - The lowest level is made up of the lists of real, and virtual
                                    5744     677.            addresses, and segment numbers, history etc.
                                    5745     678.          - The next level is an extent, one or more of which describe an
                                    5746     679.            address space's working set.
                                    5747     680.          - The highest level contains internal work areas and the swap
                                    5748     681.            parameters required for the external swap request.
                                    5749     682.
 000000                00000 00004  5750     683.     PGDSLIST RECORD BEGIN                  Element Real addr for swap
 000000                             5758  1  684.     PGDSLAD    DS    A                       Address
 PGDSLAD.PGDSLAX   80 ONES          5759  1  685.                FLAG  (PGDSLAX,PGDSLAD.X'80') | last in list
 000004                             5768  1  686.     PGDSLNXT   DS    0X
 000004                             5769  1  687.     PGDSLLOG   RECLOG ,                      Logarithm of record length
                                    5774  1 01-RECLO +PGDSLLOG   EQU   2,,C'N'
 000004                00004 00004  5775     688.              END   ,
0000000                00000 00008  5785     690.     PGDSVLST RECORD BEGIN                  Virtual addr list for swap
 000000                             5793  1  691.     PGDSVA     DS    A                       Address
 000004                             5794  1  692.     PGDSFKEY   DS    X                       Storage key
 000005                             5795  1  693.     PGDSFHST   DS    X                       History byte
 000006                             5796  1  694.     PGDSFFIX   DS    H                       Short fix count
                                    5797  1  695.     PGDSFPTF   EQU   PGDSFHST,L'PGDSFHST     PT short fixes
                                    5798  1  696.     PGDSFSEG   EQU   PGDSFFIX,L'PGDSFFIX     Segment number for PT
 PGDSFSEG.PGDFNOF  80 ONES          5799  1  697.                FLAG (PGDFNOF,PGDSFSEG.X'80') No short fixes for PT
 000008                             5808  1  698.     PGDSVNXT   DS    0X
 000008                             5809  1  699.     PGDSVLOG   RECLOG ,                      Logarithm of record length
                                    5814  1 01-RECLO +PGDSVLOG   EQU   3,,C'N'
 000008                00008 00008  5815     700.              END   ,
-
0                                   5825     702.
                                    5826     703.          Swapping control block base
                                    5827     704.
 000000                00000 00040  5828     705.     PGDSWAP  RECORD BEGIN                  Swapping work descriptor
 000000                             5836  1  706.     PGDSWPFX   DS    XL(L'PSCPFX)
 000018                             5837  1  707.     PGDSWLNK   DS    A                       Next swap control block
                                    5838  1  708.     PGDSWFRA   LHEAD PFX=PGDSW               Frames for this CB
                                    5839  1 01-LHEAD +PGDSWFRA   EQU   *,12,C'N'
 00001C                             5840  1 01-LHEAD +PGDSWFP    DS    A                       Forward pointer
 000020                             5841  1 01-LHEAD +PGDSWBP    DS    A                       Backward pointer
 000024                             5842  1 01-LHEAD +PGDSWCNT   DS    A                       Number of elements in list
 000028 00                          5843  1  709.     PGDSWPF    FLAG  ,
 PGDSWPF.PGDSFLOUT 80 ONES          5847  1  710.                FLAG  PGDSFLOUT               Logically out
 PGDSWPF.PGDSFFALL 40 ONES          5852  1  711.                FLAG  PGDSFFALLO              Frames allocated
 PGDSWPF.PGDSFSINP 20 ONES          5857  1  712.                FLAG  PGDSFSINP               Swap in progress
 PGDSWPF.PGDSFDAT  10 ONES          5862  1  713.                FLAG  PGDSFDAT                Update DAT tables for CB
 PGDSWPF.PGDSFSGT  08 ONES          5867  1  714.                FLAG  PGDSFSGT                Seg table in this segment
                                    5872  1  715.     PGDSFLGS   EQU   PGDSWPF,*-PGDSWPF,C'A'  Flags for swap CB
 000029                             5873  1  716.                DS    X                       - Available -
 00002A                             5874  1  717.                DS    H                       - Available -
 00002C                             5875  1  718.                DS    0A
 00002C                             5876  1  719.     PGDSWP     DS    (L'#SWPDO)X             @SWPIO Parm control block
 00003C                             5877  1  720.     PGDSWNXT   DS    A                       Next extent (if ~ zero)
1PAGESERV (PAGE00) (09:42) (22MAR04) PAGESERV - Local DSECTs                                                                Page   60
0Loc    Object Code    Addr1 Addr2  Stmt Lv Lineno    Source Statement           (Hibal 5, Asmedit 3.3)  HLASM R4.0  2004/03/22 09.42
+___    ______ ____    _____ _____  ____ __ ______    ______ _________
0000040                             5878  1  721.     PGDSWEXT   DS    0A
                                    5879  1  722.     PGDSWNUM   EQU   40,,C'N'                Default # of addr per extent
 000040                00040 00040  5880     723.              END   ,
1PAGESERV (PAGE00) (09:42) (22MAR04) PAGESERV - Local DSECTs                                                                Page   61
0Loc    Object Code    Addr1 Addr2  Stmt Lv Lineno    Source Statement           (Hibal 5, Asmedit 3.3)  HLASM R4.0  2004/03/22 09.42
+___    ______ ____    _____ _____  ____ __ ______    ______ _________
0000000                00000 00090  5890     725.     PGDDAL   RECORD BEGIN                  DASD allocate/open
 000000                             5898  1  726.     DALCP      DS    0A                      Channel programs
 000000                             5899  1  727.     DALPDAT    DS    XL(L'#PIOOPEN)          Paging open cp
 00000C                0000C 00000  5900  1  728.                ORG   DALCP
 000000                             5901  1  729.     DALPRSET   DS    XL(L'#PIRESET)          Paging reset cp
 000004                00004 00000  5902  1  730.                ORG   DALCP
 000000                             5903  1  731.     DALSDAT    DS    XL(L'#SWPOPEN)          Swapping open cp
 00000C                0000C 00000  5904  1  732.                ORG   DALCP
 000000                             5905  1  733.     DALSRSET   DS    XL(L'#SWPRSET)          Swapping reset cp
 000004                00004 0000C  5906  1  734.                ORG   ,
 00000C                             5907  1  735.                DS    0A
 00000C                             5908  1  736.     DALAINFO   DS    XL(L'@DSALLO)           Allocation info
 00006C                             5909  1  737.                DS    0A
 00006C                             5910  1  738.     DALOINFO   DS    XL(L'#PFINFO)           Open info
 000090                             5911  1  739.                DS    0D
 000090                00090 00090  5912     740.              END   ,
1PAGESERV (PAGE00) (09:42) (22MAR04) PAGESERV - Local DSECTs                                                                Page   62
0Loc    Object Code    Addr1 Addr2  Stmt Lv Lineno    Source Statement           (Hibal 5, Asmedit 3.3)  HLASM R4.0  2004/03/22 09.42
+___    ______ ____    _____ _____  ____ __ ______    ______ _________
0                                   5922     742.
                                    5923     743.           The bitmaps indicate a reserved paging slot or swapping set by
                                    5924     744.          a 0 bit, and a free slot by a 1 bit.
                                    5925     745.
 000000                00000 00038  5926     746.     DSDES    RECORD BEGIN                  Data set descriptor
 000000                             5934  1  747.     DSAID      DS    A                       Alpha ID
 000004                             5935  1  748.     DSLOC      DS    A                       Starting address of bitmap
 000008                             5936  1  749.     DSLEN      DS    A                       Length of bitmap (in bytes)
 00000C                             5937  1  750.     DSCOUNT    DS    A                       Number of bits in map
 000010                             5938  1  751.     DSAVAIL    DS    A                       Available bits left
 000014                             5939  1  752.     DSCHID     DS    A                       Channel ID for resource
 000018                             5940  1  753.     DSOFFSET   DS    A                       Logical bit 0's physical #
 00001C                             5941  1  754.     DSCHAIN    DS    A                       Next data set descriptor
                                    5942  1  755.
                                    5943  1  756.            Statistics
                                    5944  1  757.
 000020                             5945  1  758.     DSINCNT    DS    A                       Number of reads from device
 000024                             5946  1  759.     DSOUTCNT   DS    A                       Number of writes to device
 000028                             5947  1  760.     DSINTIME   DS    D                       Total read time for device
 000030                             5948  1  761.     DSOUTTIME   DS   D                       Total write time for device
 000038                             5949  1  762.     DSNEXT     DS    0A
 000038                00038 00038  5950     763.              END   ,
                                    5959     764.     *
                                    5960     765.     RADD     REG   RVR                     Bit address register
                                    5972     766.     RLOC     REG   RA                      Bitmap location register
                                    5984     767.     RLEN     REG   RB                      Remaining bitmap length reg
                                    5996     768.     RCNT     REG   RJ                      Count of bit shifts
                                    6008     769.     RWANT    REG   RK                      Number of bits wanted
                                    6020     770.     RMAPL    REG   RAR
                                    6032     771.     RMAP     REG   EPAR                    Current segment of bitmap
                                    6044     772.              REGCH (RAR,R14),(EPAR,R15)
1PAGESERV (PAGE00) (09:42) (22MAR04) PAGESERV - Local routine calling parameters                                            Page   63
0Loc    Object Code    Addr1 Addr2  Stmt Lv Lineno    Source Statement           (Hibal 5, Asmedit 3.3)  HLASM R4.0  2004/03/22 09.42
+___    ______ ____    _____ _____  ____ __ ______    ______ _________
0000000                00000 00011  6046     774.     @BMALLOC RECORD BEGIN
 000000                             6054  1  775.     @BMACB     DS    A                       Address of bitmap control blk
 000004                             6055  1  776.     @BMAADD    DS    A                       Start address
 000008                             6056  1  777.     @BMANUM    DS    A                       Number of units desired
 00000C                             6057  1  778.     @BMALEFT   DS    A                       Bits on left
 000010 00                          6058  1  779.     @BMAFLG    FLAG  @BMAOK                  Allocation went OK
 @BMAFLG.@BMAOK    80 ONES
 000011                00011 00011  6064     780.              END   ,
0000000                00000 0000D  6074     782.     @BMFREE  RECORD BEGIN
 000000                             6082  1  783.     @BMFCB     DS    A                       Address of bitmap control blk
 000004                             6083  1  784.     @BMFADD    DS    A                       Start address
 000008                             6084  1  785.     @BMFNUM    DS    A                       Number of units to free
 00000C 00                          6085  1  786.     @BMFFLG    FLAG  @BMFOK                  Release went OK
 @BMFFLG.@BMFOK    80 ONES
 00000D                0000D 0000D  6091     787.              END   ,
0000000                00000 00014  6101     789.     @ASNGET  RECORD BEGIN
 000000                             6109  1  790.     @AGSASTE   DS    0XL(L'ASTE)
 000000                             6110  1  791.     @AGATO     DS    A                       Authority Table Origin
 @AGATO.@AGFINV    80 ONES          6111  1  792.                FLAG  (@AGFINV,@AGATO.X'80')  This address space unavailable
 000004                             6120  1  793.     @AGAX      DS    H                       Authority Index
 000006                             6121  1  794.     @AGATL     DS    H                       Authority Table Length
 000008                             6122  1  795.     @AGSTD     DS    A                       Segment Table Descriptor
 @AGSTD.@AGFSSE    80 ONES          6123  1  796.                FLAG  (@AGFSSE,@AGSTD.X'80')  Space Switch Event control
 00000C                             6132  1  797.     @AGLTD     DS    A                       Linkage Table Descriptor
 000010                             6133  1  798.     @AGPCB     DS    A                       PCB Address
 000014                00014 00014  6134     799.              END   ,
0000000                00000 00019  6144     801.     @FRAMGET RECORD BEGIN                  Frame allocation
 000000                             6152  1  802.     @FRAPCBC   DS    A                       PCB in control
 000004                             6153  1  803.     @FRAPCB    DS    A                       PCB to own frame
 000008                             6154  1  804.     @FRANUM    DS    A                       Number of frames
 00000C                             6155  1  805.     @FRALIST   DS    A                       Local list addr (if spec)
 000010 00                          6156  1  806.     @FRATYPE   FLAG  ,
 @FRATYPE.@FRAFUFI 00 EQ            6160  1  807.                FLAG  (@FRAFUFIX,0,EQ)        Unfixed frame
 @FRATYPE.@FRAFIX  01 EQ            6170  1  808.                FLAG  (@FRAFIX,1,EQ)          Fixed frame
 @FRATYPE.@FRAFPT  02 EQ            6180  1  809.                FLAG  (@FRAFPT,2,EQ)          Page table frame
 @FRATYPE.@FRAFLCL 03 EQ            6190  1  810.                FLAG  (@FRAFLCL,3,EQ)         Local frame list (not PCB)
                                    6200  1  811.     * -- FRAMEGET Return parameters --
 000014                             6201  1  812.     @FRA1ST    DS    A                       First frame in list
 000018 00                          6202  1  813.     @FRFLG     FLAG  @FRAOK                  Allocation OK
 @FRFLG.@FRAOK     80 ONES
 @FRFLG.@FRAROOM   40 ONES          6208  1  814.                FLAG  @FRAROOM                Need to make more room
 000019                00019 00019  6213     815.              END   ,
0000000                00000 00008  6223     817.     @FRAMREL RECORD BEGIN                  Frame deallocation
 000000                             6231  1  818.     @FRARPCB   DS    A                       PCB for unit of work
 000004                             6232  1  819.     @FRARFRA   DS    A                       Frame to release (0=first)
 000008                00008 00008  6233     820.              END   ,
0000000                00000 00011  6243     822.     @XPGET   RECORD BEGIN                  Allocate external frames
 000000                             6251  1  823.     @XPCNT     DS    A                       Number of blocks requested
 000004                             6252  1  824.     @XPPCB     DS    A                       PCB in control
                                    6253  1  825.     * -- Return parameters --
 000008                             6254  1  826.     @XPRBLK    DS    A                       Relative block in DS
1PAGESERV (PAGE00) (09:42) (22MAR04) PAGESERV - Local routine calling parameters                                            Page   64
0Loc    Object Code    Addr1 Addr2  Stmt Lv Lineno    Source Statement           (Hibal 5, Asmedit 3.3)  HLASM R4.0  2004/03/22 09.42
+___    ______ ____    _____ _____  ____ __ ______    ______ _________
000000C                             6255  1  827.     @XPDSDES   DS    A                       Data set descriptor of alloc
 000010 00                          6256  1  828.     @XPFLG     FLAG  @XPOK                   Successful - for swapping
 @XPFLG.@XPOK      80 ONES
 000011                00011 00011  6262     829.              END   ,
1PAGESERV (PAGE00) (09:42) (22MAR04) PAGESERV - Local routine calling parameters                                            Page   65
0Loc    Object Code    Addr1 Addr2  Stmt Lv Lineno    Source Statement           (Hibal 5, Asmedit 3.3)  HLASM R4.0  2004/03/22 09.42
+___    ______ ____    _____ _____  ____ __ ______    ______ _________
0000000                00000 0000C  6272     831.     @CELLGET RECORD BEGIN
 000000                             6280  1  832.     @CGTYP     DS    A                       Address of cell type pool
 000004                             6281  1  833.     @CGAMT     DS    A                       Number of cells desired
                                    6282  1  834.     *  -- Return parameters --
 000008                             6283  1  835.     @CGLAST    DS    A                       Addr of last cell alloc
 00000C                0000C 0000C  6284     836.              END   ,
0000000                00000 00010  6294     838.     @CELLFREE RECORD BEGIN
 000000                             6302  1  839.     @CFTYP     DS    A                       Address of cell type pool
 000004                             6303  1  840.     @CFLOC     DS    A                       Addr of first cell
 000008                             6304  1  841.     @CFLAST    DS    A                       Addr of last cell alloc
 00000C                             6305  1  842.     @CFAMT     DS    A                       Number of cells being released
 000010                00010 00010  6306     843.              END   ,
0000000                00000 0000D  6316     845.     @RESWAKE RECORD BEGIN
 000000                             6324  1  846.     @RESFREE   DS    A                       Number of units available
 000004                             6325  1  847.     @RESWAIT   DS    A                       List address of waiting PCBs
 000008                             6326  1  848.     @RESLOCK   DS    A                       Lock controlling resource
 00000C 00                          6327  1  849.     @RESF      FLAG  ,
 @RESF.@RESFLKRL   80 ONES          6331  1  850.                FLAG  @RESFLKRL               Lock was released
 00000D                0000D 0000D  6336     851.              END   ,
1PAGESERV (PAGE00) (09:42) (22MAR04) PAGESERV - Local routine calling parameters                                            Page   66
0Loc    Object Code    Addr1 Addr2  Stmt Lv Lineno    Source Statement           (Hibal 5, Asmedit 3.3)  HLASM R4.0  2004/03/22 09.42
+___    ______ ____    _____ _____  ____ __ ______    ______ _________
0000000                00000 00020  6346     853.     @VIRTABL RECORD BEGIN                  Virtual addr to table entries
 000000                             6354  1  854.     @VPVA      DS    A                       Virtual addr
 000004                             6355  1  855.     @VPPCB     DS    A                       PCB in control for this event
                                    6356  1  856.                VPPARM PFX=@VP
 000008                             6357  1 01-02375 +           DS    0A
 000008 00                          6359  1 01-02377 +*,-- Return parms --
 @VPFLG.@VPFOK     00 EQ
 @VPFLG.@VPFSLI    80 EQ
 @VPFLG.@VPFPLI    40 EQ
 @VPFLG.@VPFSEI    20 EQ
 @VPFLG.@VPFPEI    10 EQ
 000009                             6411  1 01-02383 +             DS  3X                      - Available -
 00000C                             6412  1 01-02384 +@VPSGTE      DS  A                       Segment table engtry
 000010                             6413  1 01-02385 +@VPSSTE      DS  A                       Shadow-seg table entry
 000014                             6414  1 01-02386 +@VPPGTE      DS  A                       Page table entry
 000018                             6415  1 01-02387 +@VPSPTE      DS  A                       Shadow-pag table entry
 00001C                             6416  1 01-02388 +@VPFPCB      DS  A                       PCB that would own frame
                                    6417  1 01-02389 +@VPPARM     EQU  @VPFLG,*-@VPFLG
 000020                00020 00020  6419     857.              END   ,
-000000                00000 0000A  6429     859.     @RESOLVE RECORD BEGIN                  Resolve Page/Segment
 000000                             6437  1  860.     @PRVA      DS    A                       Virtual addr to bring in
 000004                             6438  1  861.     @PRPCB     DS    A                       PCB in control of request
 000008                             6439  1  862.     @PRPSWM    DS    X                       PSW mask
                                    6440  1  863.     * -- Return Parms --
 000009 00                          6441  1  864.     @PRRESCD   FLAG  ,
 @PRRESCD.@PRROK   00 EQ            6445  1  865.                FLAG  (@PRROK,0,EQ)           Fault resolved
 @PRRESCD.@PRRADDR 01 EQ            6455  1  866.                FLAG  (@PRRADDR,1,EQ)         Addressing exception
 00000A                0000A 0000A  6465     867.              END   ,
0000000                00000 00015  6475     869.     @RESPT   RECORD BEGIN
 000000                             6483  1  870.     @PTVA      DS    A                       Virtual address - PT maps it
 000004                             6484  1  871.     @PTPCB     DS    A                       PCB of address
 000008                             6485  1  872.     @PTPSWM    DS    X                       PSW mask to restore to
                                    6486  1  873.     * -- Return parameters --
 00000C                             6487  1  874.     @PTPGTE    DS    A                       Page table entry addr
 000010                             6488  1  875.     @PTSPTE    DS    A                       Shadow page table entry addr
 000014 00                          6489  1  876.     @PTRC      FLAG  ,
 @PTRC.@PTFOK      00 EQ            6493  1  877.                FLAG  (@PTFOK,0,EQ)           PT in core now
 @PTRC.@PTFADDR    01 EQ            6503  1  878.                FLAG  (@PTFADDR,1,EQ)         Addressing exception
 000015                00015 00015  6513     879.              END   ,
1PAGESERV (PAGE00) (09:42) (22MAR04) PAGESERV - Local routine calling parameters                                            Page   67
0Loc    Object Code    Addr1 Addr2  Stmt Lv Lineno    Source Statement           (Hibal 5, Asmedit 3.3)  HLASM R4.0  2004/03/22 09.42
+___    ______ ____    _____ _____  ____ __ ______    ______ _________
0000000                00000 0001D  6523     881.     @PAGIN   RECORD BEGIN
 000000                             6531  1  882.     @PGISLOT   DS    A                       Slot number for paging
 000004                             6532  1  883.     @PGIRA     DS    A                       Real address
 000008                             6533  1  884.     @PGIVA     DS    A                       Virtual address
 00000C                             6534  1  885.     @PGIPCBC   DS    A                       PCB in control
 000010                             6535  1  886.     @PGIPCB    DS    A                       PCB to own the frame
 000014                             6536  1  887.     @PGISEG    DS    A                       Segment addr if it's a PT
 000018                             6537  1  888.     @PGIPGD    DS    A                   ddf PGDPAGE addr (returned)
 00001C 00                          6538  1  889.     @PGFLG     FLAG  ,
 @PGFLG.@PGIFPT    80 ONES          6542  1  890.                FLAG  @PGIFPT                 It's a page table
 @PGFLG.@PGIUFIX   40 ONES          6547  1  891.                FLAG  @PGIUFIX                Unfix on IO completion
                                    6552  1  892.     * -- Return Parm --
 @PGFLG.@PGINOK    20 ONES          6553  1  893.                FLAG  @PGINOK                 Page in started
 00001D                0001D 0001D  6558     894.              END   ,
0000000                00000 0000D  6568     896.     @PAGOUT  RECORD BEGIN
 000000                             6576  1  897.     @PGOSLOT   DS    A                       Slot number for paging
 000004                             6577  1  898.     @PGORA     DS    A                       Real address
 000008                             6578  1  899.     @PGOPGD    DS    A                   ddf PGDPAGE addr (returned)
 00000C 00                          6579  1  900.     @PGOFLG    FLAG  ,
 @PGOFLG.@PGOUFIX  80 ONES          6583  1  901.                FLAG  @PGOUFIX                Unfix on IO completion
 @PGOFLG.@PGOREL   40 ONES          6588  1  902.                FLAG  @PGOREL                 Free on IO completion
                                    6593  1  903.     * -- Return Parm --
 @PGOFLG.@PGOOK    20 ONES          6594  1  904.                FLAG  @PGOOK                  Page out started
 00000D                0000D 0000D  6599     905.              END   ,
1PAGESERV (PAGE00) (09:42) (22MAR04) PAGESERV - Local routine calling parameters                                            Page   68
0Loc    Object Code    Addr1 Addr2  Stmt Lv Lineno    Source Statement           (Hibal 5, Asmedit 3.3)  HLASM R4.0  2004/03/22 09.42
+___    ______ ____    _____ _____  ____ __ ______    ______ _________
0000000                00000 00001  6609     907.     #LCLLOCK RECORD BEGIN
 000000                             6617  1  908.     #LCLPSWM   DS    X                       Byte for PSW mask on disable
 000001                00001 00001  6618     909.              END   ,
0000000                00000 00002  6628     911.     #PAGE    RECORD BEGIN
 000000                             6636  1  912.     #PAGFLGS   DS    X                       Lock flags
 000001                             6637  1  913.     #PAGPSWM   DS    X                       PSW mask for disabling
 000002                00002 00002  6638     914.              END   ,
0000000                00000 00005  6648     916.     @SETSWAP RECORD BEGIN
 000000                             6656  1  917.     @SSPCB     DS    A                       Address of paging ctl block
 000004 00                          6657  1  918.     @SSFLAG    FLAG  ,
 000005                00005 00005  6661     919.              END   ,
0                                   6671     921.              AGO   .NOLSTCHK
                                    6672     944.     .NOLSTCHK ANOP ,
1PAGESERV (PAGE00) (09:42) (22MAR04) PAGESERV - Local routine calling parameters                                            Page   69
0Loc    Object Code    Addr1 Addr2  Stmt Lv Lineno    Source Statement           (Hibal 5, Asmedit 3.3)  HLASM R4.0  2004/03/22 09.42
+___    ______ ____    _____ _____  ____ __ ______    ______ _________
0000000                00000 00010  6674     946.     @PAGPIOC RECORD BEGIN                  Page I/O completion
 000000                             6682  1  947.     @PCRA      DS    A                       Real address
 000004                             6683  1  948.     @PCPCB     DS    A                       PCB that owns frame
 000008                             6684  1  949.     @PCPCBC    DS    A                       PCB in control of I/O
 00000C                             6685  1  950.     @PCIOCB    DS    A                       Paging ctl block - real I/O
 000010                00010 00010  6686     951.              END   ,
1PAGESERV (PAGE00) (09:42) (22MAR04) Page/Segment fault handling routine                                                    Page   70
0Loc    Object Code    Addr1 Addr2  Stmt Lv Lineno    Source Statement           (Hibal 5, Asmedit 3.3)  HLASM R4.0  2004/03/22 09.42
+___    ______ ____    _____ _____  ____ __ ______    ______ _________
0                                   6696     953.     *NEST,1
                                    6697     954.
                                    6698     955.
                                    6699     956.       Handle page/segment faults
                                    6700     957.
                                    6701     958.        Input - Hardware areas in PZERO and the PZCURASB
                                    6702     959.
                                    6703     960.       Output - RVR indicates the status of the operation
                                    6704     961.
                                    6705     962.

0000000                00000 00024  6707     964.     #PAGFLT  RECORD BEGIN
 000000                             6715  1  965.     #PFPGD     DS    A                   ddf PGD save
 000004                             6716  1  966.     #PFVA      DS    A                       Fault address
 #PFVA.#PFF2ND     80 ONES          6717  1  967.                FLAG  (#PFF2ND,#PFVA.X'80')   Secondary fault
 000008 00                          6726  1  968.     #PFRC      FLAG  ,
 #PFRC.#PFRINP     00 EQ            6730  1  969.                FLAG  (#PFRINP,@PFRINP,EQ)
 #PFRC.#PFRADDR    04 EQ            6740  1  970.                FLAG  (#PFRADDR,@PFRADDR,EQ)
 #PFRC.#PFROK      08 EQ            6750  1  971.                FLAG  (#PFROK,@PFROK,EQ)
 #PFRC.#PFRWAIT    0C EQ            6760  1  972.                FLAG  (#PFRWAIT,@PFRWAIT,EQ)
 000009                             6770  1  973.     #PFPSWM    DS    X                       PSW mask for disabling
 00000A                             6771  1  974.     #PFLKFLG   DS    X                       Lock flags for this PCB
 00000B 00                          6772  1  975.     #PFACFLG   FLAG  ,                       Action flags
 #PFACFLG.#PFFROOM 80 ONES          6776  1  976.                FLAG  #PFFROOM                Call makeroom w/out locks held
                                    6781  1  977.                VPPARM PFX=#PF
 00000C                             6782  1 01-02375 +           DS    0A
 00000C 00                          6784  1 01-02377 +*,-- Return parms --
 #PFFLG.#PFFOK     00 EQ
 #PFFLG.#PFFSLI    80 EQ
 #PFFLG.#PFFPLI    40 EQ
 #PFFLG.#PFFSEI    20 EQ
 #PFFLG.#PFFPEI    10 EQ
 00000D                             6836  1 01-02383 +             DS  3X                      - Available -
 000010                             6837  1 01-02384 +#PFSGTE      DS  A                       Segment table engtry
 000014                             6838  1 01-02385 +#PFSSTE      DS  A                       Shadow-seg table entry
 000018                             6839  1 01-02386 +#PFPGTE      DS  A                       Page table entry
 00001C                             6840  1 01-02387 +#PFSPTE      DS  A                       Shadow-pag table entry
 000020                             6841  1 01-02388 +#PFFPCB      DS  A                       PCB that would own frame
                                    6842  1 01-02389 +#PFPARM     EQU  #PFFLG,*-#PFFLG
 000024                00024 00024  6844     978.              END   ,
0000016                             6854     980.     PAGFAULT PROC  ,#PAGFLT,SCOPE=GLOBAL   Page/segment faults
 000016 D7C1C7C6C1E4D3E3            6860             +
 00001E 0000/0028                   6861             +
 000022 900F D004/18AF       00004  6863             +
 USING  PAGFAULT,R10
 000028 50D0 C000/18CD       00000  6878             +
 00002E 9680 C000      00000        6880             +
 USING  #PAGFLT-72,R12
 000032 41D0 C070            00070  6894             +
 000036 5860 0200            00200  6895     981.              PAGAD RPAG                    |
 USING  PZERO,R0
 DROP   PZERO,R0
 USING  MAT,R6
 00003A 5860 600C            0000C  6929             +
1PAGESERV (PAGE00) (09:42) (22MAR04) Page/Segment fault handling routine                                                    Page   71
0Current Usings:  (PAGCB,R6) (PAGFAULT,R10) (#PAGFLT-72,R12)
0Loc    Object Code    Addr1 Addr2  Stmt Lv Lineno    Source Statement           (Hibal 5, Asmedit 3.3)  HLASM R4.0  2004/03/22 09.42
+___    ______ ____    _____ _____  ____ __ ______    ______ _________
0DROP   MAT,R6
 USING  PAGCB,R6
 00003E 9200 C053      0000B        6951     982.              CLEAR #PFACFLG
 000042                             6958     983.              CLEAR #PFPGD              ddf
 000042 D703 C048 C048 00000 00000  6964             +
                                    6965     984.
                                    6966     985.          Get translation exception address, and then get locks
                                    6967     986.
 USING  PZERO,R0                    6968     987.              USING PZERO,R0                Address space block addr
 000048 5870 0208            00208  6977     988.              L     RPCB,PZCURASB           |
 00004C 5820 0090            00090  6978     989.              L     RA,PZTREXA              Translation exception address
 000050 5420 ADE6            00E08  6979     990.              N     RA,=X'FFFFF000'         | page align
 000054 5020 C04C            00004  6980     991.              ST    RA,#PFVA                |
 DROP   PZERO,R0                    6981     992.              DROP  R0                      |
 USING  ASB,R7                      6989     993.              WITH  (ASB,RPCB),BEGIN        ASB addr
                                    7003  1  994.     *  Can't handle 2ndary faults for now.  We will need to wait proper
                                    7004  1  995.     * unit of work for asynchronous operations: the unit of work in
                                    7005  1  996.     * control, not necessarily the current ASB
 000058 9180 C04C      00004        7006  1  997.                IF    #PFF2ND,'ABORT PAGFLT2' Secondary space fault
 00005C 47E0 A06E            00090  7016  1          +
 USING  PZERO,R0
 000060 AC04 021B      0021B        7034  2          +
 000064 9680 021A      0021A        7040  2          +
 000068 50F0 021C            0021C  7041  2          +
 00006C 58F0 0210            00210  7042  2          +
 000070 89F0 0010            00010  7043  2          +
 000074 88F0 0010            00010  7044  2          +
 000078 41F0 F000            00000  7045  2          +
 00007C AEFF 0006            00006  7046  2          +
 000080 D7C1C7C6D3E3F240            7047  1          +
 DROP   PZERO,R0
 000090 5870 7020            00020  7060  1  998.                L     RPCB,ASBPAGB            Paging block
 DROP   ASB,R7                      7061     999.              END   ,                       |
 USING  ASBPCB,R7                   7069    1000.              WITH  (ASBPCB,RPCB)           |
 000094 AC04 C051      00009        7082    1001.              PAGNTRY ASYNC,#PFPSWM,#PFLKFLG
 USING  @LOCKS-72,R13
 000098 D203 D048 7018 00000 00018  7102             +
 00009E 58F0 602C/0DEF       0002C  7108             +
 0000A4 D200 C052 70B6 0000A 000B6  7110             +
 0000AA 9240 70B6      000B6        7117             +
 0000AE 9180 7022      00022        7127             +
 0000B2 47E0 A098            000BA  7128             +
 0000B6 9280 70B6      000B6        7140             +
 0000BA 5840 7088/1244       00088  7145    1002.              IF    ('LT RJ,PCBPFOUT',NZ),'ABORT MULPF'
 0000C0 4780 A0D2            000F4  7156             +
 USING  PZERO,R0
 0000C4 AC04 021B      0021B        7174  1          +
 0000C8 9680 021A      0021A        7180  1          +
 0000CC 50F0 021C            0021C  7181  1          +
 0000D0 58F0 0210            00210  7182  1          +
 0000D4 89F0 0010            00010  7183  1          +
 0000D8 88F0 0010            00010  7184  1          +
 0000DC 41F0 F000            00000  7185  1          +
 0000E0 AEFF 0006            00006  7186  1          +
1PAGESERV (PAGE00) (09:42) (22MAR04) Page/Segment fault handling routine                                                    Page   72
0Current Usings:  (PAGCB,R6) (ASBPCB,R7) (PAGFAULT,R10) (#PAGFLT-72,R12) (@LOCKS-72,R13)
0Loc    Object Code    Addr1 Addr2  Stmt Lv Lineno    Source Statement           (Hibal 5, Asmedit 3.3)  HLASM R4.0  2004/03/22 09.42
+___    ______ ____    _____ _____  ____ __ ______    ______ _________
00000E4 D4E4D3D7C6404040            7187             +
 DROP   PZERO,R0
                                    7200    1003.
                                    7201    1004.          Trim this Address space if it is over the working set size
                                    7202    1005.          limit
                                    7203    1006.
 0000F4 5840 702C/1244       0002C  7204    1007.              IF    ('LT RJ,PCBFLIMIT',POS),BEGIN    Limit total size
 0000FA 47D0 A0FE            00120  7215             +
 0000FE 5830 7038            00038  7220  1 1008.                L     RB,PCBFCNT              Add frames together
 000102 5E30 7044            00044  7221  1 1009.                AL    RB,PCBPFCNT             | page tables
 000106 5E30 705C            0005C  7222  1 1010.                AL    RB,PCBLFCNT             | long term fixed
 00010A 1934/4750 A0FE       00120  7223  1 1011.                IF    (RB,GE,RJ),BEGIN        Trim needed
 DROP   @LOCKS-72,R13               7238  2 1012.                  PSET  @PAGWSMA
 USING  @PAGWSMA-72,R13
 000110 D70C D048 D048 00000 00000  7258  2          +
 000116 5040 D050            00008  7259  2 1013.                  PMOV  @WSLIMIT,(RJ)
 00011A 58F0 ADEA/0DEF       00E0C  7269  2 1014.                  ACALL PAGWSMAN
 000120                             7276  1 1015.                END   ,                       OF Trim needed
 000120                             7280    1016.              END   ,                       Limit total size
                                    7284    1017.
 000120                             7285    1018.     PAGPFVAL BEGIN ,                       Valid entrys
 000120 9208 C050      00008        7290  1 1019.                SET   #PFROK                  Assume OK to start
                                    7296  1 1020.
                                    7297  1 1021.            Break down the virtual address of the fault, and check for
                                    7298  1 1022.            errors that are from seg/page lengths
                                    7299  1 1023.
 DROP   @PAGWSMA-72,R13             7300  1 1024.                VIRTABL (RA),(RPCB)           Page/Seg table ptrs
 USING  @VIRTABL-72,R13
 000124 D71F D048 D048 00000 00000  7321  1          +
 00012A 5020 D048            00000  7331  1          +
 00012E 5070 D04C            00004  7341  1          +
 000132 58F0 ADEE/0DEF       00E10  7347  1          +
 000138                             7349  1 1025.                PMOV  #PFPARM,@VPPARM         | save return parms
 000138 D217 C054 D050 0000C 00008  7353  1          +
 00013E 9580 C054      0000C        7354  1 1026.                IF    (#PFFSLI,OR,#PFFPLI),BEGIN       Over segment/page len
 000142 4780 A12C            0014E  7368  1          +
 000146 9540 C054      0000C        7377  1          +
 00014A 4770 A134            00156  7378  1          +
 00014E 9204 C050      00008        7383  2 1027.                  SET   #PFRADDR                | indicate protection
 000152 47F0 A582            005A4  7389  2 1028.                  EXIT  PAGPFVAL                |
 000156                             7392  1 1029.                END   ,                       OF Over segment/page lengths
1PAGESERV (PAGE00) (09:42) (22MAR04) Page fault handling routine                                                            Page   73
0Current Usings:  (PAGCB,R6) (ASBPCB,R7) (PAGFAULT,R10) (#PAGFLT-72,R12) (@VIRTABL-72,R13)
0Loc    Object Code    Addr1 Addr2  Stmt Lv Lineno    Source Statement           (Hibal 5, Asmedit 3.3)  HLASM R4.0  2004/03/22 09.42
+___    ______ ____    _____ _____  ____ __ ______    ______ _________
0                                   7397  1 1031.
                                    7398  1 1032.
                                    7399  1 1033.      Handle page fault
                                    7400  1 1034.
                                          1
0000156 9510 C054      0000C        7401  1 1035.                IF    #PFFPEI,BEGIN           Page fault
 00015A 4770 A388            003AA  7411  1          +
 00015E 5850 C060            00018  7416  2 1036.                  L     RK,#PFPGTE              Page table entry address
 USING  PGTE,R5                     7417  2 1037.                  WITH  (PGTE,RK),BEGIN         |
 000162 5840 C064            0001C  7431  3 1038.                    L     RJ,#PFSPTE              Shadow page table entry addr
 USING  SPTE,R4                     7432  3 1039.                    WITH  (SPTE,RJ),BEGIN         |
                                    7446  4 1040.
                                    7447  4 1041.                  Addressing error - page not defined
                                    7448  4 1042.
 000166 9180 5003      00003        7449  4 1043.                      IF    ~PGTFDEF,BEGIN          Page hasn't been defined
 00016A 4710 A154            00176  7459  4          +
 00016E 9204 C050      00008        7464  5 1044.                        SET   #PFRADDR
 000172 47F0 A582            005A4  7470  5 1045.                        EXIT  PAGPFVAL
 000176                             7473  4 1046.                      END   ,                       OF Page hasn't been defined
                                    7477  4 1047.
                                    7478  4 1048.                  I/O isn't in progress, so we have work to do other than just
                                    7479  4 1049.                  wait for completion
                                    7480  4 1050.
 000176 9108 5003      00003        7481  4 1051.                      IF    ~PGTFIO,BEGIN           Must handle page fault
 00017A 4710 A316            00338  7491  4          +
 DROP   @VIRTABL-72,R13             7496  5 1052.                        FRAMEGET (RPCB),#PFFPCB,TYPE=FIX
 USING  @FRAMGET-72,R13
 00017E D718 D048 D048 00000 00000  7517  5          +
 000184 5070 D048            00000  7527  5          +
 000188 4100 0001            00001  7539  5          +
 00018C 5000 D050            00008  7544  5          +
 000190 9201 D058      00010        7550  5          +
 000194 58F0 C068            00020  7560  5          +
 000198 50F0 D04C            00004  7565  5          +
 USING  ASBPCB,R15
 00019C 4100 F054            00054  7592  6          +
 0001A0 5000 D054            0000C  7597  5          +
 DROP   ASBPCB,R15
 0001A4 58F0 ADF2/0DEF       00E14  7611  5          +
 0001AA 9140 D060      00018        7613  5 1053.                        IF    @FRAROOM,'SET #PFFROOM'
 0001AE 47E0 A194            001B6  7623  5          +
 0001B2 9680 C053      0000B        7634  5          +
 0001B6 9180 D060      00018        7639  5 1054.                        IF    ~@FRAOK,BEGIN           Frame not avail
 0001BA 4710 A1A4            001C6  7649  5          +
 0001BE 920C C050      00008        7654  6 1055.                          SET   #PFRWAIT                |
 0001C2 47F0 A582            005A4  7660  6 1056.                          EXIT  PAGPFVAL                |
 0001C6                             7663  5 1057.                        END   ,                       OF Frame not avail
 0001C6 1830                        7667  5 1058.                        LR    RB,RVR                  Real address
                                    7668  5 1059.
                                    7669  5 1060.                        PUSH  USING
1PAGESERV (PAGE00) (09:42) (22MAR04) Page fault handling routine                                                            Page   74
0Current Usings:  (SPTE,R4) (PGTE,R5) (PAGCB,R6) (ASBPCB,R7) (PAGFAULT,R10) (#PAGFLT-72,R12) (@FRAMGET-72,R13)
0Loc    Object Code    Addr1 Addr2  Stmt Lv Lineno    Source Statement           (Hibal 5, Asmedit 3.3)  HLASM R4.0  2004/03/22 09.42
+___    ______ ____    _____ _____  ____ __ ______    ______ _________
0                                   7670  5 1061.
                                    7671  5 1062.                    This isn't the first reference, so we need to read the page
                                    7672  5 1063.                    in from external store.
                                    7673  5 1064.
 0001C8 9140 5003      00003        7674  5 1065.                        IF    PGTFREF,BEGIN           Page is referenced, get it ...
 0001CC 47E0 A260            00282  7684  5          +
                                    7689  6 1066.
 DROP   @FRAMGET-72,R13             7690  6 1067.                          PSET  @PAGIN                  Page in the page
 USING  @PAGIN-72,R13
 0001D0 D71C D048 D048 00000 00000  7710  6          +
 0001D6                             7711  6 1068.                          PMOV  @PGISLOT,SPXSLOT        | external slot
 0001D6 D203 D048 4000 00000 00000  7715  6          +
 0001DC 5030 D04C            00004  7716  6 1069.                          PMOV  @PGIRA,(RB)             | real addr
 0001E0                             7726  6 1070.                          PMOV  @PGIVA,#PFVA            | virtual addr
 0001E0 D203 D050 C04C 00008 00004  7730  6          +
 0001E6 5070 D054            0000C  7731  6 1071.                          PMOV  @PGIPCBC,(RPCB)         | PCB in control
 0001EA 9640 D064      0001C        7741  6 1072.                          SET   @PGIUFIX                | unfix on completion
 0001EE 9110 5003      00003        7747  6 1073.                          IF    PGTFPGT,BEGIN           Page fault on page table page
 0001F2 47E0 A1DE            00200  7757  6          +
 0001F6 9680 D064      0001C        7762  7 1074.                            SET   @PGIFPT
 0001FA                             7768  7 1075.                            PMOV  @PGISEG,PGAD            VA with segment of PT
 0001FA D203 D05C 5000 00014 00000  7772  7          +
 000200                             7773  6 1076.                          END   ,                       OF Page fault on page table...
 000200 41F0 AB26/0DEF       00B48  7777  6 1077.                          LCALL PAGIN
 000206 9120 D064      0001C        7786  6 1078.                          IF    ~@PGINOK,BEGIN          Couldn't do it
 00020A 4710 A1F4            00216  7796  6          +
 00020E 920C C050      00008        7801  7 1079.                            SET   #PFRWAIT                must wait
 000212 47F0 A582            005A4  7807  7 1080.                            EXIT  PAGPFVAL
 000216                             7810  6 1081.                          END   ,                       OF Couldn't do it
 000216 D203 C048 D060 00000 00018  7814  6 1082.                          MVC   #PFPGD,@PGIPGD      ddf Save address
                                    7815  6 1083.
                                    7816  6 1084.                        Set seg in I/O if its a page table (page table holds the
                                    7817  6 1085.                      segment number)
                                    7818  6 1086.
 00021C 9110 5003      00003        7819  6 1087.                          IF    PGTFPGT,BEGIN           It's a page table page
 000220 47E0 A236            00258  7829  6          +
 000224 5880 5000            00000  7834  7 1088.                            L     RM,PGAD                 Set real addr, "in I/O"
 000228 8880 0014            00014  7835  7 1089.                            SRL   RM,L'PAGSGNM            |
 00022C 1828                        7836  7 1090.                            LR    RA,RM                   | shadow
 00022E 8920 0003            00003  7837  7 1091.                            SLL   RA,SSTLOG               | |
 000232 4A20 60BE            000BE  7838  7 1092.                            AH    RA,PAGSEGL              | |
 000236 8980 0002            00002  7839  7 1093.                            SLL   RM,SGTLOG               |
 00023A 58F0 C068            00020  7840  7 1094.                            L     EPAR,#PFFPCB            |
 USING  OWN.ASBPCB,R15              7841  7 1095.                            WITH  (ASBPCB,EPAR),LABEL=OWN,BEGIN    Owning PCB addr
 00023E 5E80 F01C            0001C  7850  8 1096.                              AL    RM,OWN.PCBPSTO          | seg
 000242 5E20 F01C            0001C  7851  8 1097.                              AL    RA,OWN.PCBPSTO          | shadow seg
 DROP   OWN.ASBPCB,R15              7852  7 1098.                            END   ,                                OF Owning PCB addr
 USING  SGTE,R8                     7863  7 1099.                            WITH  (SGTE,RM),BEGIN         Set real addr in seg
 000246 5800 8000            00000  7877  8 1100.                              L     RVR,SGTAD               |
 00024A 5400 ADF6            00E18  7878  8 1101.                              N     RVR,=A(SGTFLMSK)        |
 00024E 1603                        7879  8 1102.                              OR    RVR,RB                  |
 000250 5000 8000            00000  7880  8 1103.                              ST    RVR,SGTAD
 DROP   SGTE,R8                     7881  7 1104.                            END   ,                       OF Set real addr in seg
 USING  SSTE,R2                     7889  7 1105.                            WITH  (SSTE,RA),BEGIN         Set as "in I/O"
1PAGESERV (PAGE00) (09:42) (22MAR04) Page fault handling routine                                                            Page   75
0Current Usings:  (SSTE,R2) (SPTE,R4) (PGTE,R5) (PAGCB,R6) (ASBPCB,R7) (PAGFAULT,R10) (#PAGFLT-72,R12) (@PAGIN-72,R13)
0Loc    Object Code    Addr1 Addr2  Stmt Lv Lineno    Source Statement           (Hibal 5, Asmedit 3.3)  HLASM R4.0  2004/03/22 09.42
+___    ______ ____    _____ _____  ____ __ ______    ______ _________
0000254 9620 2006      00006        7903  8 1106.                              SET   SSTFIO                  |
 DROP   SSTE,R2                     7909  7 1107.                            END   ,                       OF Set "in I/O" in shadow seg
 000258                             7917  6 1108.                          END   ,                       OF It's a page table page
                                    7921  6 1109.
                                    7922  6 1110.                      Put frame real address in page table, mark as "in I/O"
                                    7923  6 1111.
 000258 5430 ADFA            00E1C  7924  6 1112.                          N     RB,=A(PAGPAGM)          Set page's real address
 00025C 58F0 5000            00000  7925  6 1113.                          L     EPAR,PGAD               |
 000260 54F0 ADFE            00E20  7926  6 1114.                          N     EPAR,=A(PGTFLMSK)       |
 000264 16F3                        7927  6 1115.                          OR    EPAR,RB                 |
 000266 50F0 5000            00000  7928  6 1116.                          ST    EPAR,PGAD               |
 00026A 9608 5003      00003        7929  6 1117.                          SET   PGTFIO                  | in I/O
 00026E 58F0 7088            00088  7935  6 1118.                          L     EPAR,PCBPFOUT
 000272                             7936  6 1119.                          LOOP  BEGIN                   One more PF
 000272 41E0 F001            00001  7942  7 1120.                            LA    RAR,@EPAR+1
 000276 BAFE 7088            00088  7943  7 1121.                            CS    EPAR,RAR,PCBPFOUT
 00027A 4770 A250            00272  7944  6 1122.                          UNTIL (EQUAL),END             OF One more PF
 00027E 9200 C050      00008        7963  6 1123.                          SET   #PFRINP                 | in progress
 000282                             7969  5 1124.                        END   ,                       OF Page is ref, get it ...
 DROP   @PAGIN-72,R13               7973  5 1125.                        POP   USING
 USING  @FRAMGET-72,R13
                                    8016  5 1126.
                                    8017  5 1127.                    This is the first reference to the page, so we just
                                    8018  5 1128.                    initialize it to its proper value
                                    8019  5 1129.
 000282 A264           00282 001CE  8020  5 1130.                        ELSE  BEGIN                   Page isn't referenced
 000282 47F0 A2F6            00318  8025  5          +
                                    8031  6 1131.     *  RB is the frame real address
 000286 5820 D05C            00014  8032  6 1132.                          L     RA,@FRA1ST              Frame table entry
 USING  PFTE,R2                     8033  6 1133.                          WITH  (PFTE,RA),BEGIN         |
                                    8047  7 1134.
                                    8048  7 1135.                        If the external frame isn't allocated, we need to get one
                                    8049  7 1136.                        now.
                                    8050  7 1137.
 00028A 9104 5003      00003        8051  7 1138.                            IF    (NOT,(PGTFXDEF,OR,PAGXF1DEF)),BEGIN      Alloc ext
 00028E 4710 A29C            002BE  8067  7          +
 000292 9140 61C2      001C2        8076  7          +
 000296 4710 A29C            002BE  8077  7          +
 DROP   @FRAMGET-72,R13             8082  8 1139.                              XPGET ,
 USING  @XPGET-72,R13
 00029A D710 D048 D048 00000 00000  8103  8          +
 0002A0 58F0 AE02/0DEF       00E24  8109  8          +
 0002A6 9180 D058      00010        8111  8 1140.                              IF    ~@XPOK,BEGIN            Couldn't alloc ext frame
 0002AA 4710 A294            002B6  8121  8          +
 0002AE 920C C050      00008        8126  9 1141.                                SET   #PFRWAIT                Must wait
 0002B2 47F0 A582            005A4  8132  9 1142.                                EXIT  PAGPFVAL
 0002B6                             8135  8 1143.                              END   ,                       OF Couldn't alloc ext frame
 0002B6 5000 4000            00000  8139  8 1144.                              ST    RVR,SPXSLOT
 0002BA 9604 5003      00003        8140  8 1145.                              SET   PGTFXDEF                External frame now allocated
 0002BE                             8146  7 1146.                            END   ,                       OF Allocate external frame
 0002BE D203 2008 C04C 00008 00004  8150  7 1147.                            MVC   PFTVA,#PFVA             |
 0002C4 9620 201D      0001D        8151  7 1148.                            SET   PFTFUFIX                | unfix on completion
 DROP   PFTE,R2                     8157  6 1149.                          END   ,                       OF Frame table entry
 0002C8 1883                        8165  6 1150.                          LR    RM,RB                   Save real addr
1PAGESERV (PAGE00) (09:42) (22MAR04) Page fault handling routine                                                            Page   76
0Current Usings:  (SPTE,R4) (PGTE,R5) (PAGCB,R6) (ASBPCB,R7) (PAGFAULT,R10) (#PAGFLT-72,R12) (@XPGET-72,R13)
0Loc    Object Code    Addr1 Addr2  Stmt Lv Lineno    Source Statement           (Hibal 5, Asmedit 3.3)  HLASM R4.0  2004/03/22 09.42
+___    ______ ____    _____ _____  ____ __ ______    ______ _________
00002CA 4890 AE52            00E74  8166  6 1151.                          LH    RN,=Y(PAGPAGEL)         | len to init
                                    8167  6 1152.                          REGCH (RVR,R0),(RS,R1)        |
 0002CE 58F0 C05C            00014  8168  6 1153.                          L     EPAR,#PFSSTE
 USING  SSTE,R15                    8169  6 1154.                          WITH  (SSTE,EPAR),BEGIN
 0002D2 1F11/BF18 F007       00007  8183  7 1155.                            LCM   RS,B'1000',SSINIT       | Initialization value
 DROP   SSTE,R15                    8188  6 1156.                          END   ,
 0002D8 58F0 7014            00014  8196  6 1157.                          L     EPAR,PCBRA
 USING  REAL.ASBPCB,R15             8197  6 1158.                          WITH  (ASBPCB,EPAR),LABEL=REAL,BEGIN   Real addr of PCB
 0002DC ACFB 70B5      000B5        8206  7 1159.                            DATOFF PCBPSWM
 0002E0 0E80                        8208  7 1160.                            MVCL  RM,RVR                  | init page
 0002E2 8000 F0B5      000B5        8209  7 1161.                            DATON REAL.PCBPSWM
 DROP   REAL.ASBPCB,R15             8211  6 1162.                          END   ,                       OF Real addr of PCB
 0002E6 94F7 5003      00003        8222  6 1163.                          CLEAR PGTFIO                  Through handling page fault
 0002EA 9640 5003      00003        8229  6 1164.                          SET   PGTFREF                 | Set as referenced now
 DROP   @XPGET-72,R13               8235  6 1165.                          PAGPRC (RB),#PFFPCB,LA:ASBPCB | and page "read" complete
 USING  @PAGPIOC-72,R13
 0002EE D70F D048 D048 00000 00000  8256  6          +
 0002F4 5030 D048            00000  8266  6          +
 0002F8 D203 D04C C068 00004 00020  8271  6          +
 0002FE 5070 D050            00008  8282  6          +
 000302 58F0 AE06/0DEF       00E28  8288  6          +
 000308 B229 0083                   8290  6 1166.                          ISKE  RM,RB                   Set change bit in key
 00030C 5680 AE0A            00E2C  8291  6 1167.                          O     RM,=A(PAGKCHG)          |
 000310 B22B 0083                   8292  6 1168.                          SSKE  RM,RB                   |
 000314 9208 C050      00008        8293  6 1169.                          SET   #PFROK                  |
 000318                             8299  5 1170.                        END   ,                       OF Page isn't referenced
                                    8303  5 1171.
                                    8304  5 1172.                    For any page that is now valid we now put one more short
                                    8305  5 1173.                    term fix on the page table for this page.  This keeps
                                    8306  5 1174.                    this page table in core while pages in it are defined.
                                    8307  5 1175.
 000318 5830 C058            00010  8308  5 1176.                        L     RB,#PFSGTE              One more page in segment
 USING  SGTE,R3                     8309  5 1177.                        WITH  (SGTE,RB),BEGIN         SGTE addr
 00031C 58F0 3000            00000  8323  6 1178.                          QSFIX SGTAD                   |
 000320 88F0 000C            0000C  8329  6          +
 000324 89F0 0005            00005  8330  6          +
 000328 5EF0 6044            00044  8331  6          +
 USING  PFTE,R15
 00032C 41E0 0001            00001  8349  7          +
 000330 4AE0 F01A            0001A  8350  7          +
 000334 40E0 F01A            0001A  8351  6          +
 DROP   PFTE,R15
 DROP   SGTE,R3                     8360  5 1179.                        END   ,                       OF SGTE addr
 000338                             8368  4 1180.                      END   ,                       OF Must handle page fault
                                    8372  4 1181.
                                    8373  4 1182.                  The page in question is currently "in I/O".  We need to wait
                                    8374  4 1183.                  for that I/O to complete before we can continue
                                    8375  4 1184.
 000338 A31A           00338 0017C  8376  4 1185.                      ELSE  BEGIN                   Wait for page to come in
 000338 47F0 A388            003AA  8381  4          +
 00033C 5830 5000            00000  8387  5 1186.                        L     RB,PGAD                 Page Frame points to Wait PCB
 000340 5430 AE0E            00E30  8388  5 1187.                        N     RB,=A(PGTADMSK)         |
 000344 8830 0007            00007  8389  5 1188.                        SRL   RB,L'PAGPAGM-PFTLOG     |
 000348 5E30 6044            00044  8390  5 1189.                        AL    RB,PAGPFTO              |
1PAGESERV (PAGE00) (09:42) (22MAR04) Page fault handling routine                                                            Page   77
0Current Usings:  (SPTE,R4) (PGTE,R5) (PAGCB,R6) (ASBPCB,R7) (PAGFAULT,R10) (#PAGFLT-72,R12) (@PAGPIOC-72,R13)
0Loc    Object Code    Addr1 Addr2  Stmt Lv Lineno    Source Statement           (Hibal 5, Asmedit 3.3)  HLASM R4.0  2004/03/22 09.42
+___    ______ ____    _____ _____  ____ __ ______    ______ _________
000034C 5830 3010            00010  8391  5 1190.                        WITH  (PFTE,RB),'L RB,PFTIOCB'
 USING  PFTE,R3
 DROP   PFTE,R3
 000350 1233/4770 A364       00386  8415  5 1191.                        IF    (RB,ZERO),'ABORT PAGPGWT'
 000356 AC04 021B      0021B        8442  6          +
 USING  PZERO,R0
 00035A 9680 021A      0021A        8448  6          +
 00035E 50F0 021C            0021C  8449  6          +
 000362 58F0 0210            00210  8450  6          +
 000366 89F0 0010            00010  8451  6          +
 00036A 88F0 0010            00010  8452  6          +
 00036E 41F0 F000            00000  8453  6          +
 000372 AEFF 0006            00006  8454  6          +
 000376 D7C1C7D7C7E6E340            8455  5          +
 DROP   PZERO,R0
                                    8468  5 1192.
                                    8469  5 1193.                    Add to wait list - putting ourselves at head
                                    8470  5 1194.
 USING  PGDPAGE,R3                  8471  5 1195.                        WITH  (PGDPAGE,RB),BEGIN
 000386 5840 3018            00018  8485  6 1196.                          L     RJ,PGDPGWT              | save old waiting PCB
 00038A 5070 3018            00018  8486  6 1197.                          ST    RPCB,PGDPGWT            | point at this PCB
 DROP   PGDPAGE,R3                  8487  5 1198.                        END   ,                       |
 00038E 5040 70A0            000A0  8495  5 1199.                        ST    RJ,PCBWAIT              |
 000392 58F0 7088            00088  8496  5 1200.                        L     EPAR,PCBPFOUT
 000396                             8497  5 1201.                        LOOP  BEGIN                   One more PF
 000396 41E0 F001            00001  8503  6 1202.                          LA    RAR,@EPAR+1
 00039A BAFE 7088            00088  8504  6 1203.                          CS    EPAR,RAR,PCBPFOUT
 00039E 4770 A374            00396  8505  5 1204.                        UNTIL (EQUAL),END             OF One more PF
 0003A2 9201 70B4      000B4        8524  5 1205.                        SET   PCBFREAD                Waiting on a page read
 0003A6 9200 C050      00008        8530  5 1206.                        SET   #PFRINP                 Handling in progress
 0003AA                             8536  4 1207.                      END   ,                       OF Wait for page to come in
 DROP   SPTE,R4                     8540  3 1208.                    END   ,                       OF Shadow pg table entry addr
 DROP   PGTE,R5                     8548  2 1209.                  END   ,                       OF Page table entry address
 0003AA                             8556  1 1210.                END   ,                       OF Page fault
1PAGESERV (PAGE00) (09:42) (22MAR04) Segment fault handling routine                                                         Page   78
0Current Usings:  (PAGCB,R6) (ASBPCB,R7) (PAGFAULT,R10) (#PAGFLT-72,R12) (@PAGPIOC-72,R13)
0Loc    Object Code    Addr1 Addr2  Stmt Lv Lineno    Source Statement           (Hibal 5, Asmedit 3.3)  HLASM R4.0  2004/03/22 09.42
+___    ______ ____    _____ _____  ____ __ ______    ______ _________
0                                   8561  1 1212.
                                    8562  1 1213.
                                    8563  1 1214.      Handle segment fault
                                    8564  1 1215.
                                          1
00003AA A38C           003AA 0015C  8565  1 1216.                ELSEIF #PFFSEI,BEGIN          Segment Fault
 0003AA 47F0 A582            005A4  8571  1          +
 0003AE 9520 C054      0000C        8583  1          +
 0003B2 4770 A582            005A4  8584  1          +
 0003B6 5850 C05C            00014  8589  2 1217.                  L     RK,#PFSSTE              Shadow seg table addr
 USING  SSTE,R5                     8590  2 1218.                  WITH  (SSTE,RK),BEGIN         |
                                    8604  3 1219.
                                    8605  3 1220.                It's an error if this isn't a defined segment
                                    8606  3 1221.
 0003BA 9180 5006      00006        8607  3 1222.                    IF    ~SSTFDEF,BEGIN          Addressing exception
 0003BE 4710 A3A8            003CA  8617  3          +
 0003C2 9204 C050      00008        8622  4 1223.                      SET   #PFRADDR                |
 0003C6 47F0 A582            005A4  8628  4 1224.                      EXIT  PAGPFVAL                | leave
 0003CA                             8631  3 1225.                    END   ,                       OF Addressing exception
 0003CA 5840 C058            00010  8635  3 1226.                    L     RJ,#PFSGTE              Segment table addr
 USING  SGTE,R4                     8636  3 1227.                    WITH  (SGTE,RJ),BEGIN         |
                                    8650  4 1228.
                                    8651  4 1229.                  If the segment table is not "in I/O" we need to bring it in
                                    8652  4 1230.
 0003CE 9120 5006      00006        8653  4 1231.     CHAINSEG         IF    ~SSTFIO,BEGIN           Must deal w/ fault
 0003D2 4710 A510            00532  8664  4          +
                                    8669  5 1232.     *  Page frame in
 0003D6 5810 4000            00000  8670  5 1233.                        L     RS,SGTAD                This is VA when seg is out
 0003DA 5410 ADFA            00E1C  8671  5 1234.                        N     RS,=A(PAGPAGM)          |
                                    8672  5 1235.
                                    8673  5 1236.                      If the LRA indicates page invalid then the virtual
                                    8674  5 1237.                    address lives in another page table, and that page table
                                    8675  5 1238.                    entry needs to be marked as in Page-I/O.
                                    8676  5 1239.                      If a LRA on the virtual address of this page table
                                    8677  5 1240.                    indicates segment invalid, then this page table's virtual addr
                                    8678  5 1241.                    is in another segment that is out.  If this page table
                                    8679  5 1242.                    translates its own virtual address, no further work
                                    8680  5 1243.                    needs to be done.  Otherwise, that other page table must be
                                    8681  5 1244.                    brought in.  - daisy chain to the proper page.
                                    8682  5 1245.
 0003DE B130 1000            00000  8683  5 1246.                        LRA   RB,@RS
 0003E2 47B0 A400            00422  8684  5 1247.                        IF    SEGI,BEGIN              PT's VA in invalid seg
 DROP   @PAGPIOC-72,R13             8695  6 1248.                          RTOV  (RB)
 USING  @PAGRV-72,R13
 0003E6 D707 D048 D048 00000 00000  8717  6          +
 0003EC 5030 D048            00000  8727  6          +
 0003F0 58F0 AE12/0DEF       00E34  8733  6          +
 0003F6 1904/4780 A400       00422  8735  6 1249.                          IF    (RVR,EQ,RJ),EXIT        This PT maps its own VA
 0003FC 1840                        8753  6 1250.                          LR    RJ,RVR                  Seg entry VA
 0003FE 1850                        8754  6 1251.                          LR    RK,RVR                  Shadow Seg entry VA
 000400 1810                        8755  6 1252.                          LR    RS,RVR                  |
1PAGESERV (PAGE00) (09:42) (22MAR04) Segment fault handling routine                                                         Page   79
0Current Usings:  (SGTE,R4) (SSTE,R5) (PAGCB,R6) (ASBPCB,R7) (PAGFAULT,R10) (#PAGFLT-72,R12) (@PAGRV-72,R13)
0Loc    Object Code    Addr1 Addr2  Stmt Lv Lineno    Source Statement           (Hibal 5, Asmedit 3.3)  HLASM R4.0  2004/03/22 09.42
+___    ______ ____    _____ _____  ____ __ ______    ______ _________
0                                   8756  6 1253.
                                    8757  6 1254.                         NB: Assumes that a hardware segment table is at most 4K
                                    8758  6 1255.
 000402 5410 ADFA            00E1C  8759  6 1256.                          N     RS,=A(PAGPAGM)          |
 000406 5450 AE16            00E38  8760  6 1257.                          N     RK,=A(PAGOFFM)          |
 00040A 1825                        8761  6 1258.                          LR    RA,RK                   | VA in this segment
 00040C 8920 0012            00012  8762  6 1259.                          SLL   RA,L'PAGSGNM-SGTLOG     | |
 000410 5020 C04C            00004  8763  6 1260.                          ST    RA,#PFVA                | |
 000414 8950 0001            00001  8764  6 1261.                          SLL   RK,SSTLOG-SGTLOG        |
 000418 4A50 60BE            000BE  8765  6 1262.                          AH    RK,PAGSEGL              |
 00041C 1E51                        8766  6 1263.                          ALR   RK,RS                   |
 00041E 47F0 A3AC            003CE  8767  6 1264.                          B     CHAINSEG                Chain loop
 000422                             8768  5 1265.                        END   ,                       OF PT's VA in invalid seg
 000422 A404           00422 003E4  8772  5 1266.                        ELSEIF (NOT,PAGI),SFABORT     Error if VA in, or length bad
 000422 47F0 A408            0042A  8778  5          +
 000426 47D0 A606            00628  8791  5          +
                                    8797  5 1267.
                                    8798  5 1268.                    Allocate a frame for this I/O
                                    8799  5 1269.
 DROP   @PAGRV-72,R13               8800  5 1270.                        FRAMEGET (RPCB),#PFFPCB,TYPE=FIX
 USING  @FRAMGET-72,R13
 00042A D718 D048 D048 00000 00000  8821  5          +
 000430 5070 D048            00000  8831  5          +
 000434 4100 0001            00001  8843  5          +
 000438 5000 D050            00008  8848  5          +
 00043C 9201 D058      00010        8854  5          +
 000440 58F0 C068            00020  8864  5          +
 000444 50F0 D04C            00004  8869  5          +
 USING  ASBPCB,R15
 000448 4100 F054            00054  8896  6          +
 00044C 5000 D054            0000C  8901  5          +
 DROP   ASBPCB,R15
 000450 58F0 ADF2/0DEF       00E14  8915  5          +
 000456 9140 D060      00018        8917  5 1271.                        IF    @FRAROOM,'SET #PFFROOM'
 00045A 47E0 A440            00462  8927  5          +
 00045E 9680 C053      0000B        8938  5          +
 000462 9180 D060      00018        8943  5 1272.                        IF    ~@FRAOK,BEGIN
 000466 4710 A450            00472  8953  5          +
 00046A 920C C050      00008        8958  6 1273.                          SET   #PFRWAIT
 00046E 47F0 A582            005A4  8964  6 1274.                          EXIT  PAGPFVAL
 000472                             8967  5 1275.                        END   ,
                                    8971  5 1276.
                                    8972  5 1277.                    Try to start up the I/O to bring in the segment table
                                    8973  5 1278.
 000472 5400 AE1A            00E3C  8974  5 1279.                        N     RVR,=A(SGTADMSK)        Save real addr
 000476 1830                        8975  5 1280.                        LR    RB,RVR                  |
 DROP   @FRAMGET-72,R13             8976  5 1281.                        PSET  @PAGIN                  Bring page in
 USING  @PAGIN-72,R13
 000478 D71C D048 D048 00000 00000  8996  5          +
 00047E                             8997  5 1282.                        PMOV  @PGISLOT,SSXSLOT        | external slot number
 00047E D203 D048 5000 00000 00000  9001  5          +
 000484 5030 D04C            00004  9002  5 1283.                        PMOV  @PGIRA,(RB)             | real addr
 000488 5410 ADFA            00E1C  9012  5 1284.                        N     RS,=A(PAGPAGM)          |
 00048C 5010 D050            00008  9013  5 1285.                        PMOV  @PGIVA,(RS)             | virtual addr
1PAGESERV (PAGE00) (09:42) (22MAR04) Segment fault handling routine                                                         Page   80
0Current Usings:  (SGTE,R4) (SSTE,R5) (PAGCB,R6) (ASBPCB,R7) (PAGFAULT,R10) (#PAGFLT-72,R12) (@PAGIN-72,R13)
0Loc    Object Code    Addr1 Addr2  Stmt Lv Lineno    Source Statement           (Hibal 5, Asmedit 3.3)  HLASM R4.0  2004/03/22 09.42
+___    ______ ____    _____ _____  ____ __ ______    ______ _________
0000490 5070 D054            0000C  9023  5 1286.                        PMOV  @PGIPCBC,LA:ASBPCB      | PCB in control
 000494 96C0 D064      0001C        9034  5 1287.                        SET   @PGIUFIX*@PGIFPT        | it is a page table - unfix
 000498                             9043  5 1288.                        PMOV  @PGISEG,#PFVA           | VA in this segment
 000498 D203 D05C C04C 00014 00004  9047  5          +
 00049E 41F0 AB26/0DEF       00B48  9048  5 1289.                        LCALL PAGIN                   |
 0004A4 9120 D064      0001C        9057  5 1290.                        IF    ~@PGINOK,BEGIN          Can't do it
 0004A8 4710 A492            004B4  9067  5          +
 0004AC 920C C050      00008        9072  6 1291.                          SET   #PFRWAIT
 0004B0 47F0 A582            005A4  9078  6 1292.                          EXIT  PAGPFVAL
 0004B4                             9081  5 1293.                        END   ,                       OF Can't do it
 0004B4 D203 C048 D060 00000 00018  9085  5 1294.                        MVC   #PFPGD,@PGIPGD      ddf Save address
                                    9086  5 1295.
                                    9087  5 1296.
                                    9088  5 1297.         Set the real address of this page table in the entry for this
                                    9089  5 1298.       this virtual address.  Also set the entry as "in I/O".
                                    9090  5 1299.         This is not necessary if this page table maps its own
                                    9091  5 1300.       virtual address.
                                    9092  5 1301.
                                          5
00004BA B120 1000            00000  9093  5 1302.                        LRA   RA,@RS                  RS is the VA of this PT
 0004BE 47D0 A4BE            004E0  9094  5 1303.                        IF    PAGI,BEGIN              Represented in another PT
 0004C2 5880 7014            00014  9105  6 1304.                          L     RM,PCBRA
 USING  REAL.ASBPCB,R8              9106  6 1305.                          WITH  (ASBPCB,RM),LABEL=REAL
 0004C6 ACFB 70B5      000B5        9114  6 1306.                          DATOFF PCBPSWM
 USING  PGTE,R2                     9116  6 1307.                          WITH  (PGTE,RA),BEGIN         Page table addr
 0004CA 58F0 2000            00000  9130  7 1308.                            L     EPAR,PGAD
 0004CE 54F0 ADFE            00E20  9131  7 1309.                            N     EPAR,=A(PGTFLMSK)
 0004D2 16F3                        9132  7 1310.                            OR    EPAR,RB
 0004D4 50F0 2000            00000  9133  7 1311.                            ST    EPAR,PGAD
 0004D8 9608 2003      00003        9134  7 1312.                            SET   PGTFIO                  Fault being handled
 DROP   PGTE,R2                     9140  6 1313.                          END   ,                       OF Page table addr
 0004DC 8000 80B5      000B5        9148  6 1314.                          DATON REAL.PCBPSWM
 DROP   REAL.ASBPCB,R8              9150  5 1315.                        END   ,                       OF Represented in another PT
                                    9162  5 1316.
                                    9163  5 1317.
                                    9164  5 1318.       Put the real address in the segment table, and mark the shadow
                                    9165  5 1319.       segment table as "in I/O"
                                    9166  5 1320.
                                          5
00004E0 5820 4000            00000  9167  5 1321.                        L     RA,SGTAD                Put real addr in segment tbl
 0004E4 5420 ADF6            00E18  9168  5 1322.                        N     RA,=A(SGTFLMSK)         |
 0004E8 1623                        9169  5 1323.                        OR    RA,RB                   |
 0004EA 5020 4000            00000  9170  5 1324.                        ST    RA,SGTAD                |
 0004EE 9620 5006      00006        9171  5 1325.                        SET   SSTFIO                  Dealing with fault
                                    9177  5 1326.
                                    9178  5 1327.                    Put another short fix on the page table that references this
                                    9179  5 1328.                    virtual address.  RS has the VA of this page table.
                                    9180  5 1329.
 0004F2 8810 0014            00014  9181  5 1330.                        SRL   RS,L'PAGSGNM            One more short fix
 0004F6 8910 0002            00002  9182  5 1331.                        SLL   RS,SGTLOG               | seg table addr
 0004FA 58F0 C068            00020  9183  5 1332.                        L     EPAR,#PFFPCB
 0004FE 5E10 F01C            0001C  9184  5 1333.                        WITH  (ASBPCB,EPAR),'AL RS,PCBPSTO'
1PAGESERV (PAGE00) (09:42) (22MAR04) Segment fault handling routine                                                         Page   81
0Current Usings:  (SGTE,R4) (SSTE,R5) (PAGCB,R6) (ASBPCB,R7) (PAGFAULT,R10) (#PAGFLT-72,R12) (@PAGIN-72,R13)
0Loc    Object Code    Addr1 Addr2  Stmt Lv Lineno    Source Statement           (Hibal 5, Asmedit 3.3)  HLASM R4.0  2004/03/22 09.42
+___    ______ ____    _____ _____  ____ __ ______    ______ _________
0USING  ASBPCB,R15
 DROP   ASBPCB,R15
 DROP   SGTE,R4                     9208  5 1334.                        WITH  (SGTE,RS),BEGIN         |  which gives page table RA
 USING  SGTE,R1
 000502 58F0 1000            00000  9230  6 1335.                          QSFIX SGTAD                   |
 000506 88F0 000C            0000C  9236  6          +
 00050A 89F0 0005            00005  9237  6          +
 00050E 5EF0 6044            00044  9238  6          +
 USING  PFTE,R15
 000512 41E0 0001            00001  9256  7          +
 000516 4AE0 F01A            0001A  9257  7          +
 00051A 40E0 F01A            0001A  9258  6          +
 DROP   PFTE,R15
 USING  SGTE,R4                     9267  5 1336.                        END   ,                       | OF SGTE addr
 DROP   SGTE,R1
 00051E 58F0 7088            00088  9284  5 1337.                        L     EPAR,PCBPFOUT
 000522                             9285  5 1338.                        LOOP  BEGIN                   One more PF
 000522 41E0 F001            00001  9291  6 1339.                          LA    RAR,@EPAR+1
 000526 BAFE 7088            00088  9292  6 1340.                          CS    EPAR,RAR,PCBPFOUT
 00052A 4770 A500            00522  9293  5 1341.                        UNTIL (EQUAL),END             OF One more PF
 00052E 9200 C050      00008        9312  5 1342.                        SET   #PFRINP                 In progress
 000532                             9318  4 1343.                      END   ,                       OF Must deal w/ fault
                                    9322  4 1344.
                                    9323  4 1345.                  The segment table I/O is already in progress, and so we need
                                    9324  4 1346.                  to set up to wait for the I/O to complete
                                    9325  4 1347.
 000532 A514           00532 003D4  9326  4 1348.                      ELSE  BEGIN                   Segment fault dealt with
 000532 47F0 A582            005A4  9331  4          +
 000536 5830 4000            00000  9337  5 1349.                        L     RB,SGTAD                Page Frame points to Wait PCB
 00053A 8830 000C            0000C  9338  5 1350.                        SRL   RB,L'PAGPAGM            |
 00053E 8930 0005            00005  9339  5 1351.                        SLL   RB,PFTLOG               |
 000542 5E30 6044            00044  9340  5 1352.                        AL    RB,PAGPFTO              |
 000546 5830 3010            00010  9341  5 1353.                        WITH  (PFTE,RB),'L RB,PFTIOCB'
 USING  PFTE,R3
 DROP   PFTE,R3
 00054A 1233/4770 A55E       00580  9365  5 1354.                        IF    (RB,ZERO),'ABORT PAGSGWT'
 000550 AC04 021B      0021B        9392  6          +
 USING  PZERO,R0
 000554 9680 021A      0021A        9398  6          +
 000558 50F0 021C            0021C  9399  6          +
 00055C 58F0 0210            00210  9400  6          +
 000560 89F0 0010            00010  9401  6          +
 000564 88F0 0010            00010  9402  6          +
 000568 41F0 F000            00000  9403  6          +
 00056C AEFF 0006            00006  9404  6          +
 000570 D7C1C7E2C7E6E340            9405  5          +
 DROP   PZERO,R0
 USING  PGDPAGE,R3                  9418  5 1355.                        WITH  (PGDPAGE,RB),BEGIN      Add to wait list
 000580 5840 3018            00018  9432  6 1356.                          L     RJ,PGDPGWT              | save old waiting PCB
 000584 5070 3018            00018  9433  6 1357.                          ST    RPCB,PGDPGWT            | point at this PCB
 DROP   PGDPAGE,R3                  9434  5 1358.                        END   ,                       |
 000588 5040 70A0            000A0  9442  5 1359.                        ST    RJ,PCBWAIT              |
 00058C 58F0 7088            00088  9443  5 1360.                        L     EPAR,PCBPFOUT
 000590                             9444  5 1361.                        LOOP  BEGIN                   One more PF
1PAGESERV (PAGE00) (09:42) (22MAR04) Segment fault handling routine                                                         Page   82
0Current Usings:  (SGTE,R4) (SSTE,R5) (PAGCB,R6) (ASBPCB,R7) (PAGFAULT,R10) (#PAGFLT-72,R12) (@PAGIN-72,R13)
0Loc    Object Code    Addr1 Addr2  Stmt Lv Lineno    Source Statement           (Hibal 5, Asmedit 3.3)  HLASM R4.0  2004/03/22 09.42
+___    ______ ____    _____ _____  ____ __ ______    ______ _________
0000590 41E0 F001            00001  9450  6 1362.                          LA    RAR,@EPAR+1
 000594 BAFE 7088            00088  9451  6 1363.                          CS    EPAR,RAR,PCBPFOUT
 000598 4770 A56E            00590  9452  5 1364.                        UNTIL (EQUAL),END             OF One more PF
 00059C 9201 70B4      000B4        9471  5 1365.                        SET   PCBFREAD                Waiting on a page read
 0005A0 9200 C050      00008        9477  5 1366.                        SET   #PFRINP                 Handling in progress
 0005A4                             9483  4 1367.                      END   ,                       OF Segment fault dealt with
 DROP   SGTE,R4                     9487  3 1368.                    END   ,                       OF Segment table addr
 DROP   SSTE,R5                     9495  2 1369.                  END   ,                       OF Shadow segment table addr
 0005A4                             9503  1 1370.                END   ,                       OF Segment Fault
 0005A4                             9507    1371.              END   ,                       OF Valid entry code
 0005A4 4310 70B6            000B6  9511    1372.              PAGXIT ASYNC,#PFPSWM,#PFLKFLG,WR=RS
 0005A8 D200 70B6 C052 000B6 0000A  9515             +
 0005AE 4210 C052            0000A  9516             +
 0005B2 9180 C052      0000A        9526             +
 0005B6 47E0 A5AC            005CE  9527             +
 0005BA 5850 6018            00018  9532  1          +
 USING  ASB,R5
 0005BE 5850 5020            00020  9548  1          +
 DROP   ASB,R5
 DROP   ASBPCB,R7
 USING  ASBPCB,R5
 DROP   @PAGIN-72,R13
 USING  @LOCKS-72,R13
 0005C2 D203 D048 5018 00000 00018  9601  2          +
 0005C8 58F0 6030/0DEF       00030  9607             +
 USING  ASBPCB,R7
 DROP   ASBPCB,R5
 0005CE 9140 C052      0000A        9639             +
 0005D2 47E0 A5C0            005E2  9640             +
 0005D6 D203 D048 7018 00000 00018  9654  1          +
 0005DC 58F0 6030/0DEF       00030  9660             +
 0005E2 8000 C051      00009        9666             +
                                    9667    1373.
                                    9668    1374.          If we need to, call the page io termination routine when
                                    9669    1375.          all locks are freed
                                    9670    1376.
 0005E6 58F0 C048/12FF       00000  9671    1377.              IF    ('LT R15,#PFPGD',NZ),BEGIN ddf
 0005EC 4780 A5E8            0060A  9682             +
 0005F0 9300 F021      00021        9687  1 1378.                WITH  (PGDPAGE,R15),'TS PGDIOF' ddf IO already done?
 USING  PGDPAGE,R15
 DROP   PGDPAGE,R15
 0005F4 4780 A5E8            0060A  9711  1 1379.                IF    NZ,BEGIN            ddf Yes, that sure was fast!
 DROP   @LOCKS-72,R13               9722  2 1380.                  PSET  @IOTERM             ddf
 USING  @IOTERM-72,R13
 0005F8 D707 D048 D048 00000 00000  9742  2          +
 0005FE                             9743  2 1381.                  PMOV  @IOTPARM,#PFPGD     ddf PCB in control
 0005FE D203 D048 C048 00000 00000  9747  2          +
 000604 58F0 AE1E/0DEF       00E40  9748  2 1382.                  ACALL PAGTERM             ddf Do page IO termination now
 00060A                             9755  1 1383.                END   ,                   ddf
 00060A                             9759    1384.              END   ,                   ddf
1PAGESERV (PAGE00) (09:42) (22MAR04) Segment fault handling routine                                                         Page   83
0Current Usings:  (PAGCB,R6) (ASBPCB,R7) (PAGFAULT,R10) (#PAGFLT-72,R12) (@IOTERM-72,R13)
0Loc    Object Code    Addr1 Addr2  Stmt Lv Lineno    Source Statement           (Hibal 5, Asmedit 3.3)  HLASM R4.0  2004/03/22 09.42
+___    ______ ____    _____ _____  ____ __ ______    ______ _________
0                                   9763    1385.
                                    9764    1386.          If we need to, call the make-room routine when all locks are freed
                                    9765    1387.
 00060A 9180 C053      0000B        9766    1388.              IF    #PFFROOM,BEGIN
 00060E 47E0 A5F6            00618  9776             +
 000612 58F0 AE22/0DEF       00E44  9781  1 1389.                ACALL MAKEROOM
 000618                             9788    1390.              END   ,
 000618 1F00/4300 C050       00008  9792    1391.              LC    RVR,#PFRC               Indicate return status
 00061E 981F C008            00008  9797    1392.              PEND  ,
 DROP   ASBPCB,R7
 DROP   PAGCB,R6
 DROP   #PAGFLT-72,R12
 DROP   PAGFAULT,R10
 000622 9680 C000/0B0E 00000        9822             +
 DROP   @IOTERM-72,R13
0000628 AC04 021B      0021B        9832    1394.     SFABORT  ABORT SEGFBAD                 Error on segment fault
 USING  PZERO,R0
 00062C 9680 021A      0021A        9851             +
 000630 50F0 021C            0021C  9852             +
 000634 58F0 0210            00210  9853             +
 000638 89F0 0010            00010  9854             +
 00063C 88F0 0010            00010  9855             +
 000640 41F0 F000            00000  9856             +
 000644 AEFF 0006            00006  9857             +
 000648 E2C5C7C6C2C1C440            9858             +
 DROP   PZERO,R0
                                    9867    1395.     *NEST,2
1PAGESERV (PAGE00) (09:42) (22MAR04) Compute virtual table entry addresses                                                  Page   84
0Loc    Object Code    Addr1 Addr2  Stmt Lv Lineno    Source Statement           (Hibal 5, Asmedit 3.3)  HLASM R4.0  2004/03/22 09.42
+___    ______ ____    _____ _____  ____ __ ______    ______ _________
0                                   9869    1397.
                                    9870    1398.
                                    9871    1399.       Computes virtual segment/shadow-segment table
                                    9872    1400.        entry addresses and page/shadow-page table entry
                                    9873    1401.        addresses for a given virtual address and ASB
                                    9874    1402.       If the segment table is invalid, then the page/shadow-page table
                                    9875    1403.        entry addresses are not provided.
                                    9876    1404.
                                    9877    1405.        Input - @VIRTABL
                                    9878    1406.
                                    9879    1407.       Output - @VIRTABL
                                    9880    1408.           The stack area contains the virtual table addresses for
                                    9881    1409.         the given virtual address.  Flags indicate whether or not
                                    9882    1410.         the segment and page table entries are valid, and which
                                    9883    1411.         address space locks have been obtained.
                                    9884    1412.
                                    9885    1413.

0000658                             9887    1415.     VIRTABL  PROC  @VIRTABL                Virtual addr to table entries
 000658 E5C9D9E3C1C2D340            9894             +
 000660 0020/0000                   9895             +
 000664 900F D004/18AF       00004  9897             +
 USING  VIRTABL,R10
 00066A 50D0 C000/18CD       00000  9912             +
 000670 9680 C000      00000        9914             +
 USING  @VIRTABL-72,R12
 000674 41D0 C068            00068  9928             +
 000678 5880 0200            00200  9929    1416.              PAGAD RM                      |
 USING  PZERO,R0
 DROP   PZERO,R0
 USING  MAT,R8
 00067C 5880 800C            0000C  9963             +
 DROP   MAT,R8
 USING  PAGCB,R8
 000680 5870 C04C            00004  9985    1417.              L     RY,@VPPCB               Paging control block addr
 USING  ASBPCB,R7                   9986    1418.              WITH  (ASBPCB,RY),BEGIN       |
 000684 5070 C064            0001C 10000  1 1419.                ST    RY,@VPFPCB              | defaults as frame owner too
 000688 5840 701C            0001C 10001  1 1420.                L     RJ,PCBPSTO              Segment table origin
 00068C 1F11/4310 7025       00025 10002  1 1421.                LC    RS,PCBPSTL              | last entry
 000692 8910 0004            00004 10009  1 1422.                SLL   RS,4                    |  *16
 000696 4110 100F            0000F 10010  1 1423.                LA    RS,@RS+16-1             |
 00069A 5440 A7E4            00E48 10011  1 1424.                N     RJ,=A(PCBSTM)           Clean up segment start
 00069E 1854                       10012  1 1425.                LR    RK,RJ                   |  save for shadow offset
 DROP   ASBPCB,R7                  10013    1426.              END   ,                       OF Paging control block addr
                                   10021    1427.
                                   10022    1428.          Get segment table entry/page table address
                                   10023    1429.
 0006A0                            10024    1430.     VPVALID  BEGIN ,                       Address is valid
 0006A0 5820 C048            00000 10029  1 1431.                L     RA,@VPVA                Address dissecting
 0006A4 5420 A7B8            00E1C 10030  1 1432.                N     RA,=A(PAGPAGM)          | remove high bit/offset
 0006A8 1B33                       10031  1 1433.                CLEAR (RB)
 0006AA 8C20 0014            00014 10035  1 1434.                SRDL  RA,L'PAGSGNM            | RA = seg number
 0006AE 8830 0018            00018 10036  1 1435.                SRL   RB,24                   | RB = pg number
 0006B2 1862                       10037  1 1436.                LR    RX,RA                   Use RX as seg table index
 0006B4 8960 0002            00002 10038  1 1437.                SLL   RX,SGTLOG               | seg table offset (4 bytes ea)
1PAGESERV (PAGE00) (09:42) (22MAR04) Compute virtual table entry addresses                                                  Page   85
0Current Usings:  (PAGCB,R8) (VIRTABL,R10) (@VIRTABL-72,R12)
0Loc    Object Code    Addr1 Addr2  Stmt Lv Lineno    Source Statement           (Hibal 5, Asmedit 3.3)  HLASM R4.0  2004/03/22 09.42
+___    ______ ____    _____ _____  ____ __ ______    ______ _________
00006B8 4146 4000            00000 10039  1 1438.                LA    RJ,@RJ(RX)              |
 0006BC 5040 C054            0000C 10040  1 1439.                ST    RJ,@VPSGTE              | seg table entry addr
 0006C0 8960 0001            00001 10041  1 1440.                SLL   RX,SSTLOG-SGTLOG        Shadow table offset
 0006C4 4A50 80BE            000BE 10042  1 1441.                AH    RK,PAGSEGL              Shadow seg table entry addr
 0006C8 4156 5000            00000 10043  1 1442.                LA    RK,@RK(RX)              |
 0006CC 5050 C058            00010 10044  1 1443.                ST    RK,@VPSSTE              |
 0006D0 9280 C050      00008       10045  1 1444.                SET   @VPFSLI                 Assume segment over length
 0006D4 1921/4720 A112       00776 10051  1 1445.                IF    (RA,GT,RS),EXIT,VPVALID | and exit if so
 USING  SGTE,R4                    10069  1 1446.                WITH  (SGTE,RJ),BEGIN         Segment table entry addr
 0006DA 9110 4003      00003       10083  2 1447.                  IF    SGTFCOMM,BEGIN          Need global lock
 0006DE 47E0 A0A6            0070A 10093  2          +
 0006E2 5870 C04C            00004 10098  3 1448.                    L     RY,@VPPCB               PCB addr
 USING  ASBPCB,R7                  10099  3 1449.                    WITH  (ASBPCB,RY),BEGIN       |
 0006E6 5860 8018            00018 10113  4 1450.                      L     RX,PAGCASB              |
 0006EA 5860 6020            00020 10114  4 1451.                      WITH  (ASB,RX),'L RX,ASBPAGB' |
 USING  ASB,R6
 DROP   ASB,R6
 0006EE 5060 C064            0001C 10138  4 1452.                      ST    RX,@VPFPCB              Common PCB = new frame's owner
 0006F2 9180 70B6      000B6       10139  4 1453.                      IF    ~PCBFGBL,BEGIN          Check for global lock
 0006F6 4710 A0A6            0070A 10149  4          +
 USING  COMM.ASBPCB,R6             10154  5 1454.                        WITH  (ASBPCB,RX),LABEL=COMM  | Common PCB addr
 USING  @LOCKS-72,R13              10162  5 1455.                        LKOB  COMM.PCBLOCK            | get global lock
 0006FA D203 D048 6018 00000 00018 10178  5          +
 000700 58F0 802C/0DEF       0002C 10184  5          +
 000706 9680 70B6      000B6       10186  5 1456.                        SET   PCBFGBL                 |  and set as held
 DROP   COMM.ASBPCB,R6             10192  4 1457.                      END   ,                       OF Check for global lock
 DROP   ASBPCB,R7                  10204  3 1458.                    END   ,                       OF PCB addr
 00070A                            10212  2 1459.                  END   ,                       OF Need global lock
 00070A 9220 C050      00008       10216  2 1460.                  SET   @VPFSEI                 Assume seg entry invalid
 00070E 9120 4003      00003       10222  2 1461.                  IF    SGTFINV,EXIT,VPVALID    | and exit if so
 000712 4710 A112            00776 10234  2          +
 000716 5840 4000            00000 10240  2 1462.                  L     RJ,SGTAD                Page table addr
 DROP   SGTE,R4                    10241  1 1463.                END   ,                       OF Segment table entry addr
 00071A 1854                       10249  1 1464.                LR    RK,RJ                   | length
 00071C 5450 A7E8            00E4C 10250  1 1465.                N     RK,=A(SGPTLMSK)         | |
 000720 8950 0004            00004 10251  1 1466.                SLL   RK,4                    | |
 000724 4150 500F            0000F 10252  1 1467.                LA    RK,@RK+16-1             | | last entry
 000728 5440 A7D8            00E3C 10253  1 1468.                N     RJ,=A(SGTADMSK)         |
 00072C 9240 C050      00008       10254  1 1469.                SET   @VPFPLI                 Assume page tbl len invalid
 000730 1935/4720 A112       00776 10260  1 1470.                IF    (RB,GT,RK),EXIT,VPVALID | and exit if so
                                   10278  1 1471.
                                   10279  1 1472.            Get page table entry addr
                                   10280  1 1473.
 DROP   @LOCKS-72,R13              10281  1 1474.                RTOV  (RJ)                    Convert real addr to virt
 USING  @PAGRV-72,R13
 000736 D707 D048 D048 00000 00000 10303  1          +
 00073C 5040 D048            00000 10313  1          +
 000740 58F0 A7D0/0DEF       00E34 10319  1          +
 000746 1860                       10321  1 1475.                LR    RX,RVR                  |
 000748 4170 6400            00400 10322  1 1476.                WITH  (PAGTABLE,RX),'LA RY,SPGT '      Shadow Page table add
 USING  PAGTABLE,R6
 DROP   PAGTABLE,R6
 00074C 1823                       10346  1 1477.                LR    RA,RB                   | entry
 00074E 8930 0003            00003 10347  1 1478.                SLL   RB,SPTLOG               |
1PAGESERV (PAGE00) (09:42) (22MAR04) Compute virtual table entry addresses                                                  Page   86
0Current Usings:  (PAGCB,R8) (VIRTABL,R10) (@VIRTABL-72,R12) (@PAGRV-72,R13)
0Loc    Object Code    Addr1 Addr2  Stmt Lv Lineno    Source Statement           (Hibal 5, Asmedit 3.3)  HLASM R4.0  2004/03/22 09.42
+___    ______ ____    _____ _____  ____ __ ______    ______ _________
0000752 4173 7000            00000 10348  1 1479.                LA    RY,@RY(RB)              |
 000756 5070 C060            00018 10349  1 1480.                ST    RY,@VPSPTE              | shadow addr
 00075A 8920 0002            00002 10350  1 1481.                SLL   RA,PGTLOG               Page table entry address
 00075E 4162 6000            00000 10351  1 1482.                LA    RX,@RX(RA)              |
 000762 5060 C05C            00014 10352  1 1483.                ST    RX,@VPPGTE              |
 USING  PGTE,R6                    10353  1 1484.                WITH  (PGTE,RX),BEGIN         |
 000766 9210 C050      00008       10367  2 1485.                  SET   @VPFPEI                 Assume entry invalid
 00076A 9104 6002      00002       10373  2 1486.                  IF    PGTFINV,EXIT,VPVALID    | and exit if so
 00076E 4710 A112            00776 10385  2          +
 000772 9200 C050      00008       10391  2 1487.                  SET   @VPFOK                  Everything went OK
 DROP   PGTE,R6                    10397  1 1488.                END   ,                       OF Page table entry addr
 000776                            10405    1489.              END   ,                       OF Address is valid
 000776 981F C008            00008 10409    1490.              PEND  ,
 DROP   PAGCB,R8
 DROP   @VIRTABL-72,R12
 DROP   VIRTABL,R10
 00077A 9680 C000/0B0E 00000       10429             +
 DROP   @PAGRV-72,R13
1PAGESERV (PAGE00) (09:42) (22MAR04) Real address to Virtual address                                                        Page   87
0Loc    Object Code    Addr1 Addr2  Stmt Lv Lineno    Source Statement           (Hibal 5, Asmedit 3.3)  HLASM R4.0  2004/03/22 09.42
+___    ______ ____    _____ _____  ____ __ ______    ______ _________
0                                  10439    1492.
                                   10440    1493.
                                   10441    1494.       Returns the virtual address/ASN when passed a real address
                                   10442    1495.        Input - @PAGRV
                                   10443    1496.
                                   10444    1497.       Output - RVR
                                   10445    1498.         RVR contains the virtual address for the given real address
                                   10446    1499.
                                   10447    1500.

0000780                            10449    1502.     PAGRV    PROC  @PAGRV,SCOPE=GLOBAL     Real to virtual addresses
 000780 D7C1C7D9E5404040           10455             +
 000788 0008/0000                  10456             +
 00078C 900F D004/18AF       00004 10458             +
 USING  PAGRV,R10
 000792 50D0 C000/18CD       00000 10473             +
 000798 9680 C000      00000       10475             +
 USING  @PAGRV-72,R12
 00079C 41D0 C050            00050 10489             +
 0007A0 5880 0200            00200 10490    1503.              PAGAD RM
 USING  PZERO,R0
 DROP   PZERO,R0
 USING  MAT,R8
 0007A4 5880 800C            0000C 10524             +
 DROP   MAT,R8
 USING  PAGCB,R8
 0007A8 5820 8044            00044 10546    1504.              L     RA,PAGPFTO              Page frame table origin
 0007AC 5830 C048            00000 10547    1505.              L     RB,@PAGRVAD             Compute frame table index
 0007B0 1843                       10548    1506.              LR    RJ,RB                   | save offset
 0007B2 5440 A6AC            00E38 10549    1507.              N     RJ,=A(PAGOFFM)          | |
 0007B6 5430 A690            00E1C 10550    1508.              N     RB,=A(PAGPAGM)          |
 0007BA 8830 000C            0000C 10551    1509.              SRL   RB,L'PAGPAGM            | frame number
 0007BE 5930 8048            00048 10552    1510.              IF    (RB,GE,PAGFRAN),BEGIN
 0007C2 4750 A06A            007F6 10564             +
 0007C6 AC04 021B      0021B       10569  1 1511.                ABORT PAGFRAN                 not a valid frame number
 USING  PZERO,R0
 0007CA 9680 021A      0021A       10587  1          +
 0007CE 50F0 021C            0021C 10588  1          +
 0007D2 58F0 0210            00210 10589  1          +
 0007D6 89F0 0010            00010 10590  1          +
 0007DA 88F0 0010            00010 10591  1          +
 0007DE 41F0 F000            00000 10592  1          +
 0007E2 AEFF 0006            00006 10593  1          +
 0007E6 D7C1C7C6D9C1D540           10594  1          +
 DROP   PZERO,R0
 0007F6                            10603    1512.              END   ,
 0007F6 8930 0005            00005 10607    1513.              SLL   RB,PFTLOG               | frame number index
 0007FA 4123 2000            00000 10608    1514.              LA    RA,@RA(RB)              |
 USING  PFTE,R2                    10609    1515.              WITH  (PFTE,RA),BEGIN         Page Frame Table Entry addr
 0007FE D203 C04C 200C 00004 0000C 10623  1 1516.                MVC   @PAGRVASB,PFTASB        Current/Recent ASB
 000804 5800 2008            00008 10624  1 1517.                L     RVR,PFTVA               Current/Recent Virtual addr
 000808 5400 A690            00E1C 10625  1 1518.                N     RVR,=A(PAGPAGM)         |
 00080C 1604                       10626  1 1519.                OR    RVR,RJ                  | and put back offset
 DROP   PFTE,R2                    10627    1520.              END   ,                       OF Page Frame Table Entry addr
 00080E 981F C008            00008 10635    1521.              PEND  ,
1PAGESERV (PAGE00) (09:42) (22MAR04) Real address to Virtual address                                                        Page   88
0Loc    Object Code    Addr1 Addr2  Stmt Lv Lineno    Source Statement           (Hibal 5, Asmedit 3.3)  HLASM R4.0  2004/03/22 09.42
+___    ______ ____    _____ _____  ____ __ ______    ______ _________
0DROP   PAGCB,R8
 DROP   @PAGRV-72,R12
 DROP   PAGRV,R10
 000812 9680 C000/0B0E 00000       10655             +
1PAGESERV (PAGE00) (09:42) (22MAR04) Internal page table resolve                                                            Page   89
0Loc    Object Code    Addr1 Addr2  Stmt Lv Lineno    Source Statement           (Hibal 5, Asmedit 3.3)  HLASM R4.0  2004/03/22 09.42
+___    ______ ____    _____ _____  ____ __ ______    ______ _________
0                                  10662    1523.     *NEST,1
                                   10663    1524.
                                   10664    1525.
                                   10665    1526.       Resolve paged out page tables
                                   10666    1527.         This routine brings in the page table for a given address, but
                                   10667    1528.       doesn't bring in the actual page.  The page table is locked in
                                   10668    1529.       main store.
                                   10669    1530.         The virtual addresses of the page and shadow page table
                                   10670    1531.       addresses are set
                                   10671    1532.         Only for synchronous routines
                                   10672    1533.
                                   10673    1534.        Input - @RESPT
                                   10674    1535.
                                   10675    1536.       Output - @RESPT
                                   10676    1537.                   RVR = contents of @PTRC
                                   10677    1538.                     0 = page table now in core
                                   10678    1539.
                                   10679    1540.

0000818                            10681    1542.     RESPT    PROC  @RESPT                  Resolve page/segment out
 000818 D9C5E2D7E3404040           10688             +
 000820 0018/0000                  10689             +
 000824 900F D004/18AF       00004 10691             +
 USING  RESPT,R10
 00082A 50D0 C000/18CD       00000 10706             +
 000830 9680 C000      00000       10708             +
 USING  @RESPT-72,R12
 000834 41D0 C060            00060 10722             +
 000838 5860 0200            00200 10723    1543.              PAGAD RPAG                    |
 USING  PZERO,R0
 DROP   PZERO,R0
 USING  MAT,R6
 00083C 5860 600C            0000C 10757             +
 DROP   MAT,R6
 USING  PAGCB,R6
 000840 5870 C04C            00004 10779    1544.              L     RPCB,@PTPCB             Get PCB address
 USING  ASBPCB,R7                  10780    1545.              WITH  (ASBPCB,RPCB)           |
 000844 9200 C05C      00014       10793    1546.              SET   @PTFOK                  Assume OK to start
 000848                            10799    1547.     PAGPTVAL BEGIN ,                       Bring in PT
 USING  @VIRTABL-72,R13            10804  1 1548.                VIRTABL @PTVA,LA:ASBPCB
 000848 D71F D048 D048 00000 00000 10822  1          +
 00084E D203 D048 C048 00000 00000 10827  1          +
 000854 5070 D04C            00004 10838  1          +
 000858 58F0 A5EC/0DEF       00E10 10844  1          +
 00085E 9580 D050      00008       10846  1 1549.                IF    (@VPFSLI,OR,@VPFPLI),BEGIN       Addr exception - len
 000862 4780 A04A            0086E 10860  1          +
 000866 9540 D050      00008       10869  1          +
 00086A 4770 A052            00876 10870  1          +
 00086E 9201 C05C      00014       10875  2 1550.                  SET   @PTFADDR                Set addressing exception
 000872 47F0 A0F2            00916 10881  2 1551.                  EXIT  PAGPTVAL
 000876                            10884  1 1552.                END   ,                       OF Addr exception - len
                                   10888  1 1553.
                                   10889  1 1554.
                                   10890  1 1555.
                                   10891  1 1556.       Segment invalid set - try to read in PT
1PAGESERV (PAGE00) (09:42) (22MAR04) Internal page table resolve                                                            Page   90
0Current Usings:  (PAGCB,R6) (ASBPCB,R7) (RESPT,R10) (@RESPT-72,R12) (@VIRTABL-72,R13)
0Loc    Object Code    Addr1 Addr2  Stmt Lv Lineno    Source Statement           (Hibal 5, Asmedit 3.3)  HLASM R4.0  2004/03/22 09.42
+___    ______ ____    _____ _____  ____ __ ______    ______ _________
0                                  10892  1 1557.
                                   10893  1 1558.
                                          1
0000876 D207 C054 D05C 0000C 00014 10894  1 1559.                MVC   @PTPGTE(8),@VPPGTE      Set page table addrs
 00087C 9889 D054            0000C 10895  1 1560.                LM    RM,RN,@VPSGTE
 USING  SSTE,R9                    10896  1 1561.                WITH  (SSTE,RN),BEGIN         SSTE addr
 USING  SGTE,R8                    10910  2 1562.                  WITH  (SGTE,RM)
                                   10923  2 1563.
 000880 9520 D050      00008       10924  2 1564.                  IF    @VPFSEI,BEGIN           Need to bring in PT
 000884 4770 A0DA            008FE 10934  2          +
 000888 9180 9006      00006       10939  3 1565.                    IF    ~SSTFDEF,BEGIN          Undefined seg addr exception
 00088C 4710 A074            00898 10949  3          +
 000890 9201 C05C      00014       10954  4 1566.                      SET   @PTFADDR
 000894 47F0 A0F2            00916 10960  4 1567.                      EXIT  PAGPTVAL
 000898                            10963  3 1568.                    END   ,                       OF Undef seg addr exception
                                   10967  3 1569.
                                   10968  3 1570.                Get PT's virtual addr
                                   10969  3 1571.
 000898 5820 8000            00000 10970  3 1572.                    L     RA,SGTAD                This is VA if not in I/O
 00089C 5420 A618            00E3C 10971  3 1573.                    N     RA,=A(SGTADMSK)         |
 0008A0 9120 9006      00006       10972  3 1574.                    IF    SSTFIO,BEGIN            PT in I/O - get VA from PFTE
 0008A4 47E0 A096            008BA 10982  3          +
 0008A8 1832                       10987  4 1575.                      LR    RB,RA
 0008AA 8830 0007            00007 10988  4 1576.                      SRL   RB,L'PAGPAGM-PFTLOG
 0008AE 5E30 6044            00044 10989  4 1577.                      AL    RB,PAGPFTO
 USING  PFTE,R3                    10990  4 1578.                      WITH  (PFTE,RB),BEGIN         PFTE addr
 0008B2 5820 3008            00008 11004  5 1579.                        L     RA,PFTVA
 DROP   PFTE,R3                    11005  4 1580.                      END   ,                       OF PFTE addr
 0008B6 5420 A5F8            00E1C 11013  4 1581.                      N     RA,=A(PAGPAGM)
 0008BA                            11014  3 1582.                    END   ,                       OF PT in I/O - get VA from PFTE
                                   11018  3 1583.
 DROP   @VIRTABL-72,R13            11019  3 1584.                    PSET  @RESOLVE                Bring in PT
 USING  @RESOLVE-72,R13
 0008BA D709 D048 D048 00000 00000 11039  3          +
 0008C0 5020 D048            00000 11040  3 1585.                    PMOV  @PRVA,(RA)              |
 0008C4 5070 D04C            00004 11050  3 1586.                    PMOV  @PRPCB,LA:ASBPCB        |
 0008C8                            11061  3 1587.                    PMOV  @PRPSWM,@PTPSWM         |
 0008C8 D200 D050 C050 00008 00008 11065  3          +
 0008CE 58F0 6034/0DEF       00034 11066  3 1588.                    ACALL PAGRESLV                |
 0008D4 9500 D051      00009       11073  3 1589.                    IF    ~@PRROK,PAGPTABO
 0008D8 4770 A102            00926 11085  3          +
                                   11091  3 1590.
 0008DC 5840 C048            00000 11092  3 1591.                    L     RJ,@PTVA                Page/shadow page addrs
 0008E0 5440 A62C            00E50 11093  3 1592.                    N     RJ,=A(PAGPGNM)          |
 0008E4 8840 000C            0000C 11094  3 1593.                    SRL   RJ,L'PAGPAGM            |
 0008E8 1854                       11095  3 1594.                    LR    RK,RJ                   | shadow
 0008EA 8950 0003            00003 11096  3 1595.                    SLL   RK,SPTLOG               | |
 0008EE 4150 5400            00400 11097  3 1596.                    LA    RK,@RK+PGTL             | |
 0008F2 1E52                       11098  3 1597.                    ALR   RK,RA                   | |
 0008F4 8940 0002            00002 11099  3 1598.                    SLL   RJ,PGTLOG               |
 0008F8 1E42                       11100  3 1599.                    ALR   RJ,RA                   |
 0008FA 9045 C054            0000C 11101  3 1600.                    STM   RJ,RK,@PTPGTE           | save tbl ptrs
 0008FE                            11102  2 1601.                  END   ,                       OF Need to bring in PT
1PAGESERV (PAGE00) (09:42) (22MAR04) Internal page table resolve                                                            Page   91
0Current Usings:  (PAGCB,R6) (ASBPCB,R7) (SGTE,R8) (SSTE,R9) (RESPT,R10) (@RESPT-72,R12) (@RESOLVE-72,R13)
0Loc    Object Code    Addr1 Addr2  Stmt Lv Lineno    Source Statement           (Hibal 5, Asmedit 3.3)  HLASM R4.0  2004/03/22 09.42
+___    ______ ____    _____ _____  ____ __ ______    ______ _________
0                                  11106  2 1602.
                                   11107  2 1603.
                                   11108  2 1604.       Page table is in - fix it
                                   11109  2 1605.
                                          2
00008FE 5830 8000            00000 11110  2 1606.                  L     RB,SGTAD                PT real addr
 000902 5430 A618            00E3C 11111  2 1607.                  N     RB,=A(SGTADMSK)         |
 DROP   @RESOLVE-72,R13            11112  2 1608.                  PSET  @QFIX                   Fix PT page
 USING  @QFIX-72,R13
 000906 D703 D048 D048 00000 00000 11132  2          +
 00090C 5030 D048            00000 11133  2 1609.                  PMOV  @QFIXRA,(RB)            |
 000910 58F0 A630/0DEF       00E54 11143  2 1610.                  ACALL QFIX                    |
 DROP   SGTE,R8                    11150  1 1611.                END   ,                       OF SSTE addr
 DROP   SSTE,R9
 000916                            11163    1612.              END   ,                       OF Bring in PT
 000916 1F00/4300 C05C       00014 11167    1613.              LC    RVR,@PTRC               Set return code
 00091C 981F C008            00008 11172    1614.              PEND  ,
 DROP   ASBPCB,R7
 DROP   PAGCB,R6
 DROP   @RESPT-72,R12
 DROP   RESPT,R10
 000920 9680 C000/0B0E 00000       11197             +
 DROP   @QFIX-72,R13
0000926 AC04 021B      0021B       11207    1616.     PAGPTABO ABORT PAGPTERR                Addr error on PT
 USING  PZERO,R0
 00092A 9680 021A      0021A       11226             +
 00092E 50F0 021C            0021C 11227             +
 000932 58F0 0210            00210 11228             +
 000936 89F0 0010            00010 11229             +
 00093A 88F0 0010            00010 11230             +
 00093E 41F0 F000            00000 11231             +
 000942 AEFF 0006            00006 11232             +
 000946 D7C1C7D7E3C5D9D9           11233             +
 DROP   PZERO,R0
                                   11242    1617.     *NEST,2
1PAGESERV (PAGE00) (09:42) (22MAR04) Internal segment/page resolve                                                          Page   92
0Loc    Object Code    Addr1 Addr2  Stmt Lv Lineno    Source Statement           (Hibal 5, Asmedit 3.3)  HLASM R4.0  2004/03/22 09.42
+___    ______ ____    _____ _____  ____ __ ______    ______ _________
0                                  11244    1619.     *NEST,1
                                   11245    1620.
                                   11246    1621.
                                   11247    1622.       Resolve paged out segments/pages
                                   11248    1623.         Only for synchronous routines
                                   11249    1624.
                                   11250    1625.        Input - @RESOLVE
                                   11251    1626.
                                   11252    1627.       Output - @RESOLVE
                                   11253    1628.                  If @PRROK then RVR = frame real address
                                   11254    1629.
                                   11255    1630.

0000000                00000 00002 11257    1632.     #RESOLVE RECORD BEGIN
 000000                            11265  1 1633.     #RESPSWM   DS    X                       Old PSW mask
 000001 00                         11266  1 1634.     #RESWTF    FLAG  ,                       PCB lock flags - waiting
 #RESWTF.#RESFGBL  80 ONES         11270  1 1635.                FLAG  (#RESFGBL,PCBFGBL)      Global lock held
 #RESWTF.#RESFLCL  40 ONES         11278  1 1636.                FLAG  (#RESFLCL,PCBFLCL)      Local lock held
 000002                00002 00002 11286    1637.              END   ,
0000956                            11296    1639.     RESOLVE  PROC  @RESOLVE,#RESOLVE       Resolve page/segment out
 000956 D9C5E2D6D3E5C540           11303             +
 00095E 0010/0008                  11304             +
 000962 900F D004/18AF       00004 11306             +
 USING  RESOLVE,R10
 000968 50D0 C000/18CD       00000 11321             +
 00096E 9680 C000      00000       11323             +
 USING  @RESOLVE-72,R12
 AUSING (#RESOLVE,@RESOLVE+16)
 000972 41D0 C060            00060 11342             +
 000976 5860 0200            00200 11343    1640.              PAGAD RPAG                    |
 USING  PZERO,R0
 DROP   PZERO,R0
 USING  MAT,R6
 00097A 5860 600C            0000C 11377             +
 DROP   MAT,R6
 USING  PAGCB,R6
 00097E 5870 C04C            00004 11399    1641.              L     RPCB,@PRPCB             Get PCB address
 USING  ASBPCB,R7                  11400    1642.              WITH  (ASBPCB,RPCB)           |
 000982 9200 C051      00009       11413    1643.              SET   @PRROK                  Assume ok to start
 000986 5820 C048            00000 11419    1644.              L     RA,@PRVA                Get virtual addr to resolve
 00098A 9180 70B6      000B6       11420    1645.              IF    ~PCBFGBL,BEGIN          Might need global lock
 00098E 4710 A05E            009C0 11430             +
 000992 1832                       11435  1 1646.                LR    RB,RA                   | segment offset
 000994 8830 0014            00014 11436  1 1647.                SRL   RB,L'PAGSGNM            |
 000998 8930 0002            00002 11437  1 1648.                SLL   RB,SGTLOG               |
 00099C 5E30 701C            0001C 11438  1 1649.                AL    RB,PCBPSTO              |
 USING  SGTE,R3                    11439  1 1650.                WITH  (SGTE,RB)               |
 0009A0 9110 3003      00003       11452  1 1651.                IF    SGTFCOMM,BEGIN          Do need common lock
 0009A4 47E0 A05E            009C0 11462  1          +
 0009A8 5850 6018            00018 11467  2 1652.                  L     RCPCB,PAGCASB
 0009AC 5850 5020            00020 11468  2 1653.                  WITH  (ASB,RCPCB),'L RCPCB,ASBPAGB'
 USING  ASB,R5
 DROP   ASB,R5
 USING  COMM.ASBPCB,R5             11492  2 1654.                  WITH  (ASBPCB,RCPCB),LABEL=COMM
1PAGESERV (PAGE00) (09:42) (22MAR04) Internal segment/page resolve                                                          Page   93
0Current Usings:  (SGTE,R3) (COMM.ASBPCB,R5) (PAGCB,R6) (ASBPCB,R7) (RESOLVE,R10) (@RESOLVE-72,R12) (@LOCKS-72,R13)
0Loc    Object Code    Addr1 Addr2  Stmt Lv Lineno    Source Statement           (Hibal 5, Asmedit 3.3)  HLASM R4.0  2004/03/22 09.42
+___    ______ ____    _____ _____  ____ __ ______    ______ _________
0USING  @LOCKS-72,R13              11500  2 1655.                  LKOB  COMM.PCBLOCK            Get global lock
 0009B0 D203 D048 5018 00000 00018 11516  2          +
 0009B6 58F0 602C/0DEF       0002C 11522  2          +
 0009BC 9680 70B6      000B6       11524  2 1656.                  SET   PCBFGBL                 Set as held
 DROP   COMM.ASBPCB,R5             11530  1 1657.                END   ,                       OF DO need common lock
 DROP   SGTE,R3                    11542    1658.              END   ,                       OF Might need global lock
 0009C0 B100 2000            00000 11551    1659.              LRA   RVR,@RA                 |
                                   11552    1660.
                                   11553    1661.          If page is not in - bring it in
                                   11554    1662.
 0009C4 4780 A1A0            00B02 11555    1663.              IF    (NOT,VAOK),BEGIN        Page not in - bring it in
 0009C8                            11568  1 1664.                LOOP  BEGIN                   Bring in Page
                                   11574  2 1665.
                                   11575  2 1666.              Check for segment/page length error
                                   11576  2 1667.
 0009C8 47E0 A072            009D4 11577  2 1668.                  IF    SPLI,BEGIN              Page/Seg len error
 0009CC 9201 C051      00009       11588  3 1669.                    SET   @PRRADDR
 0009D0 47F0 A1A0            00B02 11594  3 1670.                    EXIT  RESOLVE
 0009D4                            11597  2 1671.                  END   ,                       OF Page/Seg len error
 DROP   @LOCKS-72,R13              11601  2 1672.                  VIRTABL @PRVA,(RPCB)          Page/Seg table ptrs
 USING  @VIRTABL-72,R13
 0009D4 D71F D048 D048 00000 00000 11622  2          +
 0009DA D203 D048 C048 00000 00000 11627  2          +
 0009E0 5070 D04C            00004 11637  2          +
 0009E4 58F0 A4AE/0DEF       00E10 11643  2          +
 0009EA 9201 C051      00009       11645  2 1673.                  SET   @PRRADDR                Assume addr error
                                   11651  2 1674.
                                   11652  2 1675.              Check for defined page
                                   11653  2 1676.
 0009EE 9580 D050      00008       11654  2 1677.                  IF    (@VPFSLI,OR,@VPFPLI),EXIT,RESOLVE
 0009F2 4780 A1A0            00B02 11668  2          +
 0009F6 9540 D050      00008       11677  2          +
 0009FA 4780 A1A0            00B02 11680  2          +
 0009FE 9510 D050      00008       11686  2 1678.                  IF    @VPFPEI,BEGIN           Page entry invalid
 000A02 4770 A0B0            00A12 11696  2          +
 000A06 5840 D05C            00014 11701  3 1679.                    L     RJ,@VPPGTE
 USING  PGTE,R4                    11702  3 1680.                    WITH  (PGTE,RJ)
 000A0A 9180 4003      00003       11715  3 1681.                    IF    ~PGTFDEF,EXIT,RESOLVE
 000A0E 47E0 A1A0            00B02 11727  3          +
 DROP   PGTE,R4                    11733  2 1682.                  END   ,                       OF Page entry invalid
                                   11742  2 1683.
                                   11743  2 1684.              Check for defined segment
                                   11744  2 1685.
 000A12 A0B4           00A12 00A04 11745  2 1686.                  ELSEIF @VPFSEI,BEGIN          Segment entry invalid
 000A12 47F0 A0C8            00A2A 11751  2          +
 000A16 9520 D050      00008       11763  2          +
 000A1A 4770 A0C8            00A2A 11764  2          +
 000A1E 5840 D058            00010 11769  3 1687.                    L     RJ,@VPSSTE
 USING  SSTE,R4                    11770  3 1688.                    WITH  (SSTE,RJ)
 000A22 9180 4006      00006       11783  3 1689.                    IF    ~SSTFDEF,EXIT,RESOLVE
 000A26 47E0 A1A0            00B02 11795  3          +
 DROP   SSTE,R4                    11801  2 1690.                  END   ,                       OF Segment entry invalid
1PAGESERV (PAGE00) (09:42) (22MAR04) Internal segment/page resolve                                                          Page   94
0Current Usings:  (PAGCB,R6) (ASBPCB,R7) (RESOLVE,R10) (@RESOLVE-72,R12) (@VIRTABL-72,R13)
0Loc    Object Code    Addr1 Addr2  Stmt Lv Lineno    Source Statement           (Hibal 5, Asmedit 3.3)  HLASM R4.0  2004/03/22 09.42
+___    ______ ____    _____ _____  ____ __ ______    ______ _________
0                                  11810  2 1691.
                                   11811  2 1692.              If VAOK is returned from VIRTABL, but not through LRA, its an
                                   11812  2 1693.              error.
                                   11813  2 1694.
 000A2A A0CC           00A2A 00A1C 11814  2 1695.                  ELSE  BEGIN
 000A2A 47F0 A0FC            00A5E 11819  2          +
 000A2E AC04 021B      0021B       11825  3 1696.                    ABORT PAGRESOLVE
 USING  PZERO,R0
 000A32 9680 021A      0021A       11843  3          +
 000A36 50F0 021C            0021C 11844  3          +
 000A3A 58F0 0210            00210 11845  3          +
 000A3E 89F0 0010            00010 11846  3          +
 000A42 88F0 0010            00010 11847  3          +
 000A46 41F0 F000            00000 11848  3          +
 000A4A AEFF 0006            00006 11849  3          +
 000A4E D7C1C7D9C5E2D6D3           11850  3          +
 DROP   PZERO,R0
 000A5E                            11859  2 1697.                  END   ,
                                   11863  2 1698.
                                   11864  2 1699.                Not an addressing error - so reference frame to bring it it
                                   11865  2 1700.              We must free the spin locks so we can page fault
                                   11866  2 1701.
 000A5E 9200 C051      00009       11867  2 1702.                  SET   @PRROK                  Assume OK
                                   11873  2 1703.
 000A62 D200 C059 70B6 00001 000B6 11874  2 1704.                  MVC   #RESWTF,PCBLOCKF        Save lock flags
 000A68 1B88/1B99                  11875  2 1705.                  CLEAR (RM),(RN)               Zero count of locks held
 000A6C 9180 70B6      000B6       11881  2 1706.                  IF    PCBFGBL,BEGIN           Global lock held
 000A70 47E0 A130            00A92 11891  2          +
 000A74 5810 6018            00018 11896  3 1707.                    L     RS,PAGCASB
 000A78 5810 1020            00020 11897  3 1708.                    WITH  (ASB,RS),'L RS,ASBPAGB'
 USING  ASB,R1
 DROP   ASB,R1
 000A7C                            11921  3 1709.                    LOOP  BEGIN
 USING  GBL.ASBPCB,R1              11927  4 1710.                      WITH  (ASBPCB,RS),LABEL=GBL
 000A7C 4180 8001            00001 11935  4 1711.                      LA    RM,@RM+1
 DROP   @VIRTABL-72,R13            11936  4 1712.                      LKREL GBL.PCBLOCK
 USING  @LOCKS-72,R13
 000A80 D203 D048 1018 00000 00018 11955  4          +
 000A86 58F0 6030/0DEF       00030 11961  4          +
 000A8C 1200/4770 A11A       00A7C 11963  3 1713.                    UNTIL (RVR,ZERO),END
 DROP   GBL.ASBPCB,R1              11993  2 1714.                  END   ,                       Of global lock held
                                   11997  2 1715.
 000A92 9140 70B6      000B6       11998  2 1716.                  IF    PCBFLCL,BEGIN           Local lock held
 000A96 47E0 A14E            00AB0 12008  2          +
 000A9A                            12013  3 1717.                    LOOP  BEGIN
 000A9A 4190 9001            00001 12019  4 1718.                      LA    RN,@RN+1
 000A9E                            12020  4 1719.                      LKREL PCBLOCK
 000A9E D203 D048 7018 00000 00018 12029  4          +
 000AA4 58F0 6030/0DEF       00030 12035  4          +
 000AAA 1200/4770 A138       00A9A 12037  3 1720.                    UNTIL (RVR,ZERO),END
 000AB0                            12059  2 1721.                  END   ,                       OF Local lock held
 000AB0 AD00 C058      00000       12063  2 1722.                  STOSM #RESPSWM,0
 000AB4 8000 C050      00008       12064  2 1723.                  SSM   @PRPSWM
                                   12065  2 1724.
1PAGESERV (PAGE00) (09:42) (22MAR04) Internal segment/page resolve                                                          Page   95
0Current Usings:  (PAGCB,R6) (ASBPCB,R7) (RESOLVE,R10) (@RESOLVE-72,R12) (@LOCKS-72,R13)
0Loc    Object Code    Addr1 Addr2  Stmt Lv Lineno    Source Statement           (Hibal 5, Asmedit 3.3)  HLASM R4.0  2004/03/22 09.42
+___    ______ ____    _____ _____  ____ __ ______    ______ _________
0                                  12066  2 1725.
                                   12067  2 1726.
                                   12068  2 1727.       Reference the frame to bring it in
                                   12069  2 1728.
                                   12070  2 1729.
                                          2
0000AB8 9500 2000      00000       12071  2 1730.                  CLI   @RA,0
                                   12072  2 1731.
 000ABC 8000 C058      00000       12073  2 1732.                  SSM   #RESPSWM
 000AC0 9140 C059      00001       12074  2 1733.                  IF    #RESFLCL,BEGIN          Get local lock again
 000AC4 47E0 A176            00AD8 12084  2          +
 000AC8                            12089  3 1734.                    LOOP  BEGIN
 000AC8                            12095  4 1735.                      LKOB  PCBLOCK                 |
 000AC8 D203 D048 7018 00000 00018 12104  4          +
 000ACE 58F0 602C/0DEF       0002C 12110  4          +
 000AD4 4690 A166            00AC8 12112  3 1736.                    UNTIL (BCT,RN),END
 000AD8                            12122  2 1737.                  END   ,                       OF Get local lock again
 000AD8 9180 C059      00001       12126  2 1738.                  IF    #RESFGBL,BEGIN          Get global lock again
 000ADC 47E0 A18E            00AF0 12136  2          +
 USING  GBL.ASBPCB,R1              12141  3 1739.                    WITH  (ASBPCB,RS),LABEL=GBL   |
 000AE0                            12149  3 1740.                    LOOP  BEGIN
 000AE0                            12155  4 1741.                      LKOB  GBL.PCBLOCK             |
 000AE0 D203 D048 1018 00000 00018 12164  4          +
 000AE6 58F0 602C/0DEF       0002C 12170  4          +
 000AEC 4680 A17E            00AE0 12172  3 1742.                    UNTIL (BCT,RM),END
 DROP   GBL.ASBPCB,R1              12182  2 1743.                  END   ,                       OF Get global lock again
 000AF0 D200 70B6 C059 000B6 00001 12194  2 1744.                  MVC   PCBLOCKF,#RESWTF        Reset locks-held flags
 000AF6 9620 70B6      000B6       12195  2 1745.                  SET   PCBFSYNC
                                   12201  2 1746.
 000AFA B100 2000            00000 12202  2 1747.                  LRA   RVR,@RA
 000AFE 4770 A066            009C8 12203  1 1748.                UNTIL VAOK,END                OF Bring in Page
 000B02                            12222    1749.              END   ,                       OF Page not in - bring it in
 000B02 981F C008            00008 12226    1750.              PEND  ,
 DROP   ASBPCB,R7
 DROP   PAGCB,R6
 DROP   @RESOLVE-72,R12
 DROP   RESOLVE,R10
 000B06 9680 C000/0B0E 00000       12251             +
 DROP   @LOCKS-72,R13
0000B0C AC04 021B      0021B       12261    1752.     SRABORT  ABORT SRABORT                 Segment resolve error
 USING  PZERO,R0
 000B10 9680 021A      0021A       12280             +
 000B14 50F0 021C            0021C 12281             +
 000B18 58F0 0210            00210 12282             +
 000B1C 89F0 0010            00010 12283             +
 000B20 88F0 0010            00010 12284             +
 000B24 41F0 F000            00000 12285             +
 000B28 AEFF 0006            00006 12286             +
 000B2C E2D9C1C2D6D9E340           12287             +
 DROP   PZERO,R0
                                   12296    1753.     *NEST,2
1PAGESERV (PAGE00) (09:42) (22MAR04) Page in a page                                                                         Page   96
0Loc    Object Code    Addr1 Addr2  Stmt Lv Lineno    Source Statement           (Hibal 5, Asmedit 3.3)  HLASM R4.0  2004/03/22 09.42
+___    ______ ____    _____ _____  ____ __ ______    ______ _________
0                                  12298    1755.
                                   12299    1756.
                                   12300    1757.       Allocate a frame and read into it.
                                   12301    1758.
                                   12302    1759.        Input - @PAGIN
                                   12303    1760.
                                   12304    1761.       Output - For asynchronous operations
                                   12305    1762.                  IF @PGINOK the page-in was started and
                                   12306    1763.                   RVR contains the real address of the new page
                                   12307    1764.                  ELSE
                                   12308    1765.                   It was not possible to start the operation
                                   12309    1766.
                                   12310    1767.

0000B3C                            12312    1769.     PAGIN    PROC  @PAGIN
 000B3C D7C1C7C9D5404040           12319             +
 000B44 0020/0000                  12320             +
 000B48 900F D004/18AF       00004 12322             +
 USING  PAGIN,R10
 000B4E 50D0 C000/18CD       00000 12337             +
 000B54 9680 C000      00000       12339             +
 USING  @PAGIN-72,R12
 000B58 41D0 C068            00068 12353             +
                                   12354    1770.     *        CLEAR @PGINOK                 Set page-in not ok to start
 000B5C 5860 0200            00200 12355    1771.              PAGAD RPAG
 USING  PZERO,R0
 DROP   PZERO,R0
 USING  MAT,R6
 000B60 5860 600C            0000C 12389             +
 DROP   MAT,R6
 USING  PAGCB,R6
 000B64 5870 C054            0000C 12411    1772.              L     RPCB,@PGIPCBC           PCB in control
 USING  ASBPCB,R7                  12412    1773.              WITH  (ASBPCB,RPCB)
 000B68 5820 C04C            00004 12425    1774.              L     RA,@PGIRA               Frame real address
 000B6C 1832                       12426    1775.              LR    RB,RA                   Frame table entry addr
 000B6E 8830 000C            0000C 12427    1776.              SRL   RB,L'PAGPAGM            |
 000B72 8930 0005            00005 12428    1777.              SLL   RB,PFTLOG               |
 000B76 5E30 6044            00044 12429    1778.              AL    RB,PAGPFTO              |
 USING  PFTE,R3                    12430    1779.              WITH  (PFTE,RB),BEGIN         Set up Page frame table
                                   12444  1 1780.
                                   12445  1 1781.            Get control block memory
                                   12446  1 1782.
 USING  @CELLGET-72,R13            12447  1 1783.                CELLGET TYPE=PAGE
 000B7A D70B D048 D048 00000 00000 12465  1          +
 000B80 4100 613C            0013C 12477  1          +
 000B84 5000 D048            00000 12482  1          +
 000B88 4100 0001            00001 12494  1          +
 000B8C 5000 D04C            00004 12499  1          +
 000B90 58F0 A310/0DEF       00E58 12505  1          +
 000B96 1200/4770 A068       00BB0 12507  1 1784.                IF    (RVR,ZERO),BEGIN        | only on async ops
 DROP   @CELLGET-72,R13            12521  2 1785.                  FRAMEREL LA:PFTE              |  remove from fixed list
 USING  @FRAMREL-72,R13
 000B9C D707 D048 D048 00000 00000 12542  2          +
 000BA2 5030 D04C            00004 12553  2          +
 000BA6 58F0 A314/0DEF       00E5C 12559  2          +
1PAGESERV (PAGE00) (09:42) (22MAR04) Page in a page                                                                         Page   97
0Current Usings:  (PFTE,R3) (PAGCB,R6) (ASBPCB,R7) (PAGIN,R10) (@PAGIN-72,R12) (@FRAMREL-72,R13)
0Loc    Object Code    Addr1 Addr2  Stmt Lv Lineno    Source Statement           (Hibal 5, Asmedit 3.3)  HLASM R4.0  2004/03/22 09.42
+___    ______ ____    _____ _____  ____ __ ______    ______ _________
0000BAC 47F0 A122            00C6A 12561  2 1786.                  EXIT  PAGIN                   |
 000BB0                            12564  1 1787.                END   ,                       OF No Memory
                                   12568  1 1788.
                                   12569  1 1789.            Fill in the page-frame-table entry.  Fill in the new
                                   12570  1 1790.            virtual address, and point at the I/O control block
                                   12571  1 1791.            for this frame's I/O.  ...
                                   12572  1 1792.
 000BB0 1880                       12573  1 1793.                LR    RM,RVR                  I/O cell addr - from CELLGET
 000BB2 5080 C060            00018 12574  1 1794.                ST    RM,@PGIPGD          ddf Return address to caller
 USING  PGDPAGE,R8                 12575  1 1795.                WITH  (PGDPAGE,RM),BEGIN      I/O cb addr
 AUSING (PSCPFX,PGDPGPFX)          12589  2 1796.                  WITH  (PSCPFX,PGDPGPFX)
 000BB6 5080 3010            00010 12596  2 1797.                  PMOV  PFTIOCB,LA:PGDPAGE      |
 000BBA                            12607  2 1798.                  PMOV  PSCASB,PCBASB           | ASB in control of I/O
 000BBA D203 8014 700C 00014 0000C 12611  2          +
 000BC0                            12612  2 1799.                  CLEAR PGDPGWT                 | no one else waiting yet
 000BC0 D703 8018 8018 00018 00018 12618  2          +
 000BC6 9200 8021      00021       12619  2 1800.                  CLEAR PGDIOF              ddf | clear io finished flag
 DROP   PGDPAGE,R8                 12626  1 1801.                END   ,                       OF I/O cb addr
 000BCA D203 3008 C050 00008 00008 12634  1 1802.                MVC   PFTVA,@PGIVA            | Virt Addr
 000BD0 9180 C064      0001C       12635  1 1803.                IF    @PGIFPT,BEGIN           | Page table page
 000BD4 47E0 A0A0            00BE8 12645  1          +
 000BD8 9680 301D      0001D       12650  2 1804.                  SET   PFTFPGT                 |
 000BDC 5840 C05C            00014 12656  2 1805.                  L     RJ,@PGISEG              |
 000BE0 8840 0014            00014 12657  2 1806.                  SRL   RJ,L'PAGSGNM            |
 000BE4 4040 3014            00014 12658  2 1807.                  STH   RJ,PFTSEG               |
 000BE8                            12659  1 1808.                END   ,                       | OF Page table page
 000BE8 9140 C064      0001C       12663  1 1809.                IF    @PGIUFIX,'SET PFTFUFIX' | Unfix on IO completion
 000BEC 47E0 A0AC            00BF4 12673  1          +
 000BF0 9620 301D      0001D       12684  1          +
 DROP   PFTE,R3                    12689    1810.              END   ,                       OF Frame table entry addr
                                   12697    1811.
                                   12698    1812.          Set up the I/O control block, and call the I/O supervisor to
                                   12699    1813.          get this one going.
                                   12700    1814.
 USING  PGDPAGE,R8                 12701    1815.              WITH  (PGDPAGE,RM),BEGIN      I/O cb addr
 AUSING (PSCPFX,PGDPGPFX)          12715  1 1816.                WITH  (PSCPFX,PGDPGPFX)
 USING  PZERO,R0                   12722  1 1817.                USING PZERO,R0
 AUSING (#PIODO,PGDPIO)            12731  1 1818.                WITH  (#PIODO,PGDPIO)         Fill in parms
 000BF4                            12738  1 1819.                PMOV  #PIODCMD,=A(#PCREAD)    | action code
 000BF4 D203 8024 A318 00000 00E60 12742  1          +
 000BFA 5020 802C            00008 12743  1 1820.                PMOV  #PIOLOC,(RA)            | real address
 000BFE 4140 00F0            000F0 12753  1 1821.                LA    RJ,CPAGIOKEY            Set key for IO
 000C02 B22B 0042                  12754  1 1822.                SSKE  RJ,RA                   |
 DROP   @FRAMREL-72,R13            12755  1 1823.                BLKDSID @PGISLOT              Get DSID/block no from slot #
 USING  @BLKDSID-72,R13
 000C06 D70F D048 D048 00000 00000 12776  1          +
 000C0C D203 D048 C048 00000 00000 12781  1          +
 000C12 58F0 A31C/0DEF       00E64 12787  1          +
 000C18                            12789  1 1824.                PMOV  #PIOBLK,@BLKRNUM        | block number
 000C18 D203 8028 D050 00004 00008 12793  1          +
 000C1E                            12794  1 1825.                PMOV  PSCDEV,@BLKBCB          |
 000C1E D203 8010 D054 00010 0000C 12798  1          +
 000C24 5850 D04C            00004 12799  1 1826.                L     RK,@BLKID               | DSID
 DROP   @BLKDSID-72,R13            12800  1 1827.                PSET  @IOSDOIO                Call IO Supervisor
1PAGESERV (PAGE00) (09:42) (22MAR04) Page in a page                                                                         Page   98
0Current Usings:  (PZERO,R0) (PAGCB,R6) (ASBPCB,R7) (PGDPAGE,R8) (PAGIN,R10) (@PAGIN-72,R12) (@IOSDOIO-72,R13)
0Loc    Object Code    Addr1 Addr2  Stmt Lv Lineno    Source Statement           (Hibal 5, Asmedit 3.3)  HLASM R4.0  2004/03/22 09.42
+___    ______ ____    _____ _____  ____ __ ______    ______ _________
0USING  @IOSDOIO-72,R13
 000C28 D71D D048 D048 00000 00000 12820  1          +
 000C2E 5050 D048            00000 12821  1 1828.                PMOV  @IOSCHID,(RK)           |
 000C32                            12831  1 1829.                PMOV  @IOSID,PSCIO            | I/O supervisor ID
 000C32 D203 D04C 800C 00004 0000C 12835  1          +
 000C38                            12836  1 1830.                PMOV  @IOSPID,PZCURPID        |
 000C38 D207 D050 0208 00008 00208 12840  1          +
 000C3E 4100 8024            00000 12841  1 1831.                PMOV  @IOSCP,LA:#PIODO        |
 000C42 5000 D058            00010 12857  1          +
 000C46 4100 A33A            00E82 12858  1 1832.                PMOV  @IOSXID,LA:PAGTERM      | return addr
 000C4A 5000 D05C            00014 12874  1          +
 000C4E 5080 D060            00018 12875  1 1833.                PMOV  @IOSXPAR,LA:PGDPAGE     |
 000C52 4100 00F0            000F0 12886  1 1834.                PMOV  @IOSKEY,LA:CPAGIOKEY    | key of I/O
 000C56 4200 D064            0001C 12902  1          +
 000C5A 9620 D065      0001D       12903  1 1835.                SET   @IOSFAST                | fast path I/O
 000C5E 58F0 A320/0DEF       00E68 12909  1 1836.                VCALL IOSDOIO                 |
 DROP   PZERO,R0                   12913  1 1837.                DROP  R0
 DROP   PGDPAGE,R8                 12921    1838.              END   ,                       OF I/O cell addr - from CELLGET
 000C64 9620 C064      0001C       12929    1839.              SET   @PGINOK                 Page-In Started
 000C68 1802                       12935    1840.              LR    RVR,RA                  | real addr
 000C6A 981F C008            00008 12936    1841.              PEND  ,
 DROP   ASBPCB,R7
 DROP   PAGCB,R6
 DROP   @PAGIN-72,R12
 DROP   PAGIN,R10
 000C6E 9680 C000/0B0E 00000       12961             +
 DROP   @IOSDOIO-72,R13
0000C74 AC04 021B      0021B       12971    1843.     PAGIERR  ABORT PAGIERR
 USING  PZERO,R0
 000C78 9680 021A      0021A       12990             +
 000C7C 50F0 021C            0021C 12991             +
 000C80 58F0 0210            00210 12992             +
 000C84 89F0 0010            00010 12993             +
 000C88 88F0 0010            00010 12994             +
 000C8C 41F0 F000            00000 12995             +
 000C90 AEFF 0006            00006 12996             +
 000C94 D7C1C7C9C5D9D940           12997             +
 DROP   PZERO,R0
1PAGESERV (PAGE00) (09:42) (22MAR04) Page out a page                                                                        Page   99
0Loc    Object Code    Addr1 Addr2  Stmt Lv Lineno    Source Statement           (Hibal 5, Asmedit 3.3)  HLASM R4.0  2004/03/22 09.42
+___    ______ ____    _____ _____  ____ __ ______    ______ _________
0                                  13007    1845.
                                   13008    1846.
                                   13009    1847.       Page out a page.
                                   13010    1848.
                                   13011    1849.        Input - @PAGOUT
                                   13012    1850.
                                   13013    1851.       Output -  IF @PGOOK the page-out was started
                                   13014    1852.                 ELSE
                                   13015    1853.                  It was not possible to start the operation
                                   13016    1854.
                                   13017    1855.

0000CA4                            13019    1857.     PAGOUT   PROC  @PAGOUT
 000CA4 D7C1C7D6E4E34040           13026             +
 000CAC 0010/0000                  13027             +
 000CB0 900F D004/18AF       00004 13029             +
 USING  PAGOUT,R10
 000CB6 50D0 C000/18CD       00000 13044             +
 000CBC 9680 C000      00000       13046             +
 USING  @PAGOUT-72,R12
 000CC0 41D0 C058            00058 13060             +
                                   13061    1858.     *        CLEAR @PGOOK                  Set page out not ok to start
 000CC4 5860 0200            00200 13062    1859.              PAGAD RPAG
 USING  PZERO,R0
 DROP   PZERO,R0
 USING  MAT,R6
 000CC8 5860 600C            0000C 13096             +
 DROP   MAT,R6
 USING  PAGCB,R6
                                   13118    1860.
                                   13119    1861.          Allocate a paging I/O cell
                                   13120    1862.
 USING  @CELLGET-72,R13            13121    1863.              CELLGET TYPE=PAGE             Get cell
 000CCC D70B D048 D048 00000 00000 13139             +
 000CD2 4100 613C            0013C 13151             +
 000CD6 5000 D048            00000 13156             +
 000CDA 4100 0001            00001 13168             +
 000CDE 5000 D04C            00004 13173             +
 000CE2 58F0 A1A8/0DEF       00E58 13179             +
 000CE8 1200/4780 A11A       00DCA 13181    1864.              IF    (RVR,ZERO),EXIT,PAGOUT  | none available
                                   13198    1865.
                                   13199    1866.          Set up page frame entry for I/O completion
                                   13200    1867.
 000CEE 1830                       13201    1868.              LR    RB,RVR                  Cell address
 000CF0 5030 C050            00008 13202    1869.              ST    RB,@PGOPGD          ddf Return addr to caller
 USING  PGDPAGE,R3                 13203    1870.              WITH  (PGDPAGE,RB),BEGIN      |
 AUSING (PSCPFX,PGDPGPFX)          13217  1 1871.                WITH  (PSCPFX,PGDPGPFX)
 000CF4 5820 C04C            00004 13224  1 1872.                L     RA,@PGORA               Get RA and frame tbl addr
 000CF8 5420 A16C            00E1C 13225  1 1873.                N     RA,=A(PAGPAGM)          |
 000CFC 1852                       13226  1 1874.                LR    RK,RA                   |
 000CFE 8850 0007            00007 13227  1 1875.                SRL   RK,L'PAGPAGM-PFTLOG     | entry offset in table
 000D02 5E50 6044            00044 13228  1 1876.                AL    RK,PAGPFTO              |
 USING  PFTE,R5                    13229  1 1877.                WITH  (PFTE,RK),BEGIN         |
 000D06 5870 500C            0000C 13243  2 1878.                  L     RPCB,PFTASB
 000D0A 5030 5010            00010 13244  2 1879.                  PMOV  PFTIOCB,LA:PGDPAGE      I/O control block for frame
1PAGESERV (PAGE00) (09:42) (22MAR04) Page out a page                                                                        Page  100
0Current Usings:  (PGDPAGE,R3) (PFTE,R5) (PAGCB,R6) (PAGOUT,R10) (@PAGOUT-72,R12) (@CELLGET-72,R13)
0Loc    Object Code    Addr1 Addr2  Stmt Lv Lineno    Source Statement           (Hibal 5, Asmedit 3.3)  HLASM R4.0  2004/03/22 09.42
+___    ______ ____    _____ _____  ____ __ ______    ______ _________
0000D0E 5070 3014            00014 13255  2 1880.                  PMOV  PSCASB,(RPCB)           | ASB in control of I/O
 000D12                            13265  2 1881.                  CLEAR PGDPGWT                 | no one else waiting yet
 000D12 D703 3018 3018 00018 00018 13271  2          +
 000D18 9200 3021      00021       13272  2 1882.                  CLEAR PGDIOF              ddf | clear io finished flag
 000D1C 9180 C054      0000C       13279  2 1883.                  IF    @PGOUFIX,'SET PFTFUFIX' | Unfix on IO completion
 000D20 47E0 A078            00D28 13289  2          +
 000D24 9620 501D      0001D       13300  2          +
 000D28 9140 C054      0000C       13305  2 1884.                  IF    @PGOREL,'SET PFTFREL'   | Release on IO completion
 000D2C 47E0 A084            00D34 13315  2          +
 000D30 9610 501D      0001D       13326  2          +
 DROP   PFTE,R5                    13331  1 1885.                END   ,                       OF Frame table entry addr
 000D34 5870 7020            00020 13339  1 1886.                WITH  (ASB,RPCB),'L RPCB,ASBPAGB'
 USING  ASB,R7
 DROP   ASB,R7
 USING  ASBPCB,R7                  13363  1 1887.                WITH  (ASBPCB,RPCB),BEGIN
 000D38 4110 0001            00001 13377  2 1888.                  INCR  RS,PCBWCNT              Another page write outstanding
 000D3C 5E10 7084            00084 13381  2          +
 000D40 5010 7084            00084 13382  2          +
 DROP   ASBPCB,R7                  13383  1 1889.                END   ,
                                   13391  1 1890.
                                   13392  1 1891.            Fix the frame, and clear the ref/change bits
                                   13393  1 1892.
 DROP   @CELLGET-72,R13            13394  1 1893.                PSET  @QFIX                   Quickly fix this page
 USING  @QFIX-72,R13
 000D44 D703 D048 D048 00000 00000 13414  1          +
 000D4A 5020 D048            00000 13415  1 1894.                PMOV  @QFIXRA,(RA)            |
 000D4E 58F0 A1A4/0DEF       00E54 13425  1 1895.                ACALL QFIX                    |
 000D54 B229 0042                  13432  1 1896.                ISKE  RJ,RA                   Clear ref/change bits
 000D58 5440 A1BC            00E6C 13433  1 1897.                N     RJ,=A(PAGKEYM)          |
 000D5C B22B 0042                  13434  1 1898.                SSKE  RJ,RA                   |
 USING  PZERO,R0                   13435  1 1899.                USING PZERO,R0
                                   13444  1 1900.
                                   13445  1 1901.            Set up the "channel program" and call the I/O supervisor to
                                   13446  1 1902.            get this I/O going
                                   13447  1 1903.
 AUSING (#PIODO,PGDPIO)            13448  1 1904.                WITH  (#PIODO,PGDPIO)         Fill in parms
 000D60                            13455  1 1905.                PMOV  #PIODCMD,=A(#PCWRITE)   | action code
 000D60 D203 3024 A1C0 00000 00E70 13459  1          +
 000D66 5020 302C            00008 13460  1 1906.                PMOV  #PIOLOC,(RA)            | real address
 DROP   @QFIX-72,R13               13470  1 1907.                BLKDSID @PGOSLOT              Get DSID/block no from slot #
 USING  @BLKDSID-72,R13
 000D6A D70F D048 D048 00000 00000 13491  1          +
 000D70 D203 D048 C048 00000 00000 13496  1          +
 000D76 58F0 A1B4/0DEF       00E64 13502  1          +
 000D7C                            13504  1 1908.                PMOV  #PIOBLK,@BLKRNUM        | block number
 000D7C D203 3028 D050 00004 00008 13508  1          +
 000D82 5850 D04C            00004 13509  1 1909.                L     RK,@BLKID               | DSID
 000D86                            13510  1 1910.                PMOV  PSCDEV,@BLKBCB          | data set control block
 000D86 D203 3010 D054 00010 0000C 13514  1          +
 DROP   @BLKDSID-72,R13            13515  1 1911.                PSET  @IOSDOIO                Call IO Supervisor
 USING  @IOSDOIO-72,R13
 000D8C D71D D048 D048 00000 00000 13535  1          +
 000D92 5050 D048            00000 13536  1 1912.                PMOV  @IOSCHID,(RK)           |
 000D96                            13546  1 1913.                PMOV  @IOSID,PSCIO            | I/O supervisor ID
1PAGESERV (PAGE00) (09:42) (22MAR04) Page out a page                                                                        Page  101
0Current Usings:  (PZERO,R0) (PGDPAGE,R3) (PAGCB,R6) (PAGOUT,R10) (@PAGOUT-72,R12) (@IOSDOIO-72,R13)
0Loc    Object Code    Addr1 Addr2  Stmt Lv Lineno    Source Statement           (Hibal 5, Asmedit 3.3)  HLASM R4.0  2004/03/22 09.42
+___    ______ ____    _____ _____  ____ __ ______    ______ _________
0000D96 D203 D04C 300C 00004 0000C 13550  1          +
 000D9C                            13551  1 1914.                PMOV  @IOSPID,PZCURPID        |
 000D9C D207 D050 0208 00008 00208 13555  1          +
 000DA2 4100 3024            00000 13556  1 1915.                PMOV  @IOSCP,LA:#PIODO        |
 000DA6 5000 D058            00010 13572  1          +
 000DAA 4100 A1D2            00E82 13573  1 1916.                PMOV  @IOSXID,LA:PAGTERM      | return addr
 000DAE 5000 D05C            00014 13589  1          +
 000DB2 5030 D060            00018 13590  1 1917.                PMOV  @IOSXPAR,LA:PGDPAGE     |
 000DB6 1B00/4200 D064       0001C 13601  1 1918.                PMOV  @IOSKEY,LA:0            | write in key 0
 000DBC 9620 D065      0001D       13615  1 1919.                SET   @IOSFAST                | fast path I/O
 000DC0 58F0 A1B8/0DEF       00E68 13621  1 1920.                VCALL IOSDOIO                 |
 DROP   PGDPAGE,R3                 13625    1921.              END   ,                       OF PGDPAGE address
 000DC6 9620 C054      0000C       13633    1922.              SET   @PGOOK                  Page-Out Started
 000DCA 981F C008            00008 13639    1923.              PEND  ,
 DROP   PAGCB,R6
 DROP   @PAGOUT-72,R12
 DROP   PAGOUT,R10
 000DCE 9680 C000/0B0E 00000       13659             +
 DROP   @IOSDOIO-72,R13
0000DD4 AC04 021B      0021B       13669    1925.     PAGOERR  ABORT PAGOERR                 Page-out I/O error
 000DD8 9680 021A      0021A       13679             +
 000DDC 50F0 021C            0021C 13680             +
 000DE0 58F0 0210            00210 13681             +
 000DE4 89F0 0010            00010 13682             +
 000DE8 88F0 0010            00010 13683             +
 000DEC 41F0 F000            00000 13684             +
 000DF0 AEFF 0006            00006 13685             +
 000DF4 D7C1C7D6C5D9D940           13686             +
1PAGESERV (PAGE00) (09:42) (22MAR04) MP-ORVYL Real Memory / Paging Manager Services                                         Page  102
0Current Usings:  (PZERO,R0)
0Loc    Object Code    Addr1 Addr2  Stmt Lv Lineno    Source Statement           (Hibal 5, Asmedit 3.3)  HLASM R4.0  2004/03/22 09.42
+___    ______ ____    _____ _____  ____ __ ______    ______ _________
0000E08                            13688    1927.              LTORG ,
 000E08 FFFFF000                   13690                             =X'FFFFF000'
 000E0C 0000374A                   13691                             =A(PAGWSMAN)
 000E10 00000664                   13692                             =A(VIRTABL)
 000E14 00005F9E                   13693                             =A(FRAMEGET)
 000E18 0000003F                   13694                             =A(SGTFLMSK)
 000E1C 7FFFF000                   13695                             =A(PAGPAGM)
 000E20 000006FF                   13696                             =A(PGTFLMSK)
 000E24 00006652                   13697                             =A(XPGET)
 000E28 00001170                   13698                             =A(PAGPRC)
 000E2C 00000002                   13699                             =A(PAGKCHG)
 000E30 7FFFF000                   13700                             =A(PGTADMSK)
 000E34 0000078C                   13701                             =A(PAGRV)
 000E38 00000FFF                   13702                             =A(PAGOFFM)
 000E3C 7FFFFFC0                   13703                             =A(SGTADMSK)
 000E40 00000E82                   13704                             =A(PAGTERM)
 000E44 00001872                   13705                             =A(MAKEROOM)
 000E48 7FFFF000                   13706                             =A(PCBSTM)
 000E4C 0000000F                   13707                             =A(SGPTLMSK)
 000E50 000FF000                   13708                             =A(PAGPGNM)
 000E54 000040E8                   13709                             =A(QFIX)
 000E58 00007160                   13710                             =A(CELLGET)
 000E5C 000064E2                   13711                             =A(FRAMEREL)
 000E60 0000000C                   13712                             =A(#PCREAD)
 000E64 00006A16                   13713                             =A(BLKDSID)
 000E68 00000000                   13714                             =V(IOSDOIO)
 000E6C 000000F8                   13715                             =A(PAGKEYM)
 000E70 00000010                   13716                             =A(#PCWRITE)
 000E74 1000           00E76 0A6E0 13717                             =Y(PAGPAGEL)
1PAGESERV (PAGE00) (09:42) (22MAR04) Page I/O termination                                                                   Page  103
0Current Usings:  (PZERO,R0)
0Loc    Object Code    Addr1 Addr2  Stmt Lv Lineno    Source Statement           (Hibal 5, Asmedit 3.3)  HLASM R4.0  2004/03/22 09.42
+___    ______ ____    _____ _____  ____ __ ______    ______ _________
0                                  13722    1929.
                                   13723    1930.
                                   13724    1931.       Page I/O termination
                                   13725    1932.
                                   13726    1933.        Input - @IOTERM
                                   13727    1934.            The PGDPAGE control block contains the PCB address that is
                                   13728    1935.          in control of the I/O.  The owner of the frame in I/O is
                                   13729    1936.          determined from the frame table entry.
                                   13730    1937.
                                   13731    1938.       Output - NONE
                                   13732    1939.
                                   13733    1940.

0000000                00000 00003 13735    1942.     #PAGTERM RECORD BEGIN
 000000                            13743  1 1943.     #PTPSWM    DS    X                       PSW mask for disabling
 000001                            13744  1 1944.     #PTLKFLG   DS    X                       Lock flags this PCB
 000002 00                         13745  1 1945.     #PTFLAG    FLAG  ,
 #PTFLAG.#PTFCRL   80 ONES         13749  1 1946.                FLAG  #PTFCRL                 Release I/O cell
 000003                00003 00003 13754    1947.              END   ,
0000E76                            13764    1949.     PAGTERM  PROC  @IOTERM,#PAGTERM,SCOPE=GLOBAL
 000E76 D7C1C7E3C5D9D440           13770             +
 000E7E 0008/0008                  13771             +
 000E82 900F D004/18AF       00004 13773             +
 USING  PAGTERM,R10
 000E88 50D0 C000/18CD       00000 13788             +
 000E8E 9680 C000      00000       13790             +
 USING  @IOTERM-72,R12
 AUSING (#PAGTERM,@IOTERM+8)
 000E92 41D0 C058            00058 13809             +
 000E96 5860 0200            00200 13810    1950.              PAGAD RPAG
 DROP   PZERO,R0
 USING  MAT,R6
 000E9A 5860 600C            0000C 13837             +
 DROP   MAT,R6
 USING  PAGCB,R6
 000E9E 9680 C052      00002       13859    1951.              SET   #PTFCRL                 Release I/O cell by default
 000EA2 5840 C04C/1244       00004 13865    1952.              IF    ('LT RJ,@IOTEND',NZ),PGTABORT
 000EA8 4770 A2B2            01134 13878             +
 000EAC 5840 C048            00000 13884    1953.              L     RJ,@IOTPARM             Get control block addr
 USING  PGDPAGE,R4                 13885    1954.              WITH  (PGDPAGE,RJ)
 000EB0 9300 4021      00021       13898    1955.              TS    PGDIOF              ddf Ready for IO termination yet?
 000EB4 4780 A2A8            0112A 13899    1956.              IF    Z,EXIT              ddf No, this routine will be
                                   13913    1957.     *                                  ddf called again when ready.
 AUSING (PSCPFX,PGDPGPFX)          13914    1958.              WITH  (PSCPFX,PGDPGPFX)
 AUSING (#PIODO,PGDPIO)            13921    1959.              WITH  (#PIODO,PGDPIO)
 000EB8 5870 4014            00014 13928    1960.              L     RPCB,PSCASB             PCB address in control
 000EBC 5870 7020            00020 13929    1961.              WITH  (ASB,RPCB),'L RPCB,ASBPAGB'
 USING  ASB,R7
 DROP   ASB,R7
 USING  ASBPCB,R7                  13953    1962.              WITH  (ASBPCB,RPCB)
                                   13966    1963.     *
                                   13967    1964.     *  Get needed locks
1PAGESERV (PAGE00) (09:42) (22MAR04) Page I/O termination                                                                   Page  104
0Current Usings:  (PGDPAGE,R4) (PAGCB,R6) (ASBPCB,R7) (PAGTERM,R10) (@IOTERM-72,R12)
0Loc    Object Code    Addr1 Addr2  Stmt Lv Lineno    Source Statement           (Hibal 5, Asmedit 3.3)  HLASM R4.0  2004/03/22 09.42
+___    ______ ____    _____ _____  ____ __ ______    ______ _________
0                                  13968    1965.     *   We need the local address space lock, and if this I/O is
                                   13969    1966.     *   for a global frame, we need the global address space lock.
                                   13970    1967.     *
                                   13971    1968.     *  NB - This logic would need to change if one address space could
                                   13972    1969.     *    fault in a secondary address space.  Currently the only
                                   13973    1970.     *    other address space one can fault in is the global address
                                   13974    1971.     *    space.
 000EC0 AC04 C050      00000       13975    1972.              PAGNTRY ASYNC,#PTPSWM,#PTLKFLG
 USING  @LOCKS-72,R13
 000EC4 D203 D048 7018 00000 00018 13995             +
 000ECA 58F0 602C/0DEF       0002C 14001             +
 000ED0 D200 C051 70B6 00001 000B6 14003             +
 000ED6 9240 70B6      000B6       14010             +
 000EDA 9180 7022      00022       14020             +
 000EDE 47E0 A064            00EE6 14021             +
 000EE2 9280 70B6      000B6       14033             +
                                   14038    1973.              REGCH (RCPCB,RK)
 000EE6 5830 402C            00008 14039    1974.              L     RB,#PIOLOC              Frame address
 000EEA 8830 0007            00007 14040    1975.              SRL   RB,L'PAGPAGM-PFTLOG     |
 000EEE 5E30 6044            00044 14041    1976.              AL    RB,PAGPFTO              |
                                   14042    1977.
                                   14043    1978.          Check for the global address space, and get the global lock
                                   14044    1979.          if we need it
                                   14045    1980.
 USING  PFTE,R3                    14046    1981.              WITH  (PFTE,RB),BEGIN         |
 000EF2 5850 300C            0000C 14060  1 1982.                L     RCPCB,PFTASB
 000EF6 5850 5020            00020 14061  1 1983.                WITH  (ASB,RCPCB),'L RCPCB,ASBPAGB'
 USING  ASB,R5
 DROP   ASB,R5
 USING  COMM.ASBPCB,R5             14085  1 1984.                WITH  (ASBPCB,RCPCB),LABEL=COMM,BEGIN
 000EFA 9180 5022      00022       14094  2 1985.                  IF    (COMM:PCBFGBLC,AND,~PCBFGBL),BEGIN       Get global lock
 000EFE 47E0 A098            00F1A 14106  2          +
 000F02 9180 70B6      000B6       14117  2          +
 000F06 4710 A098            00F1A 14118  2          +
 000F0A                            14123  3 1986.                    LKOB  COMM.PCBLOCK            |
 000F0A D203 D048 5018 00000 00018 14132  3          +
 000F10 58F0 602C/0DEF       0002C 14138  3          +
 000F16 9680 70B6      000B6       14140  3 1987.                    SET   PCBFGBL                 |
 000F1A                            14146  2 1988.                  END   ,                       OF Get global lock
 DROP   COMM.ASBPCB,R5             14150  1 1989.                END   ,                       OF frame owner PCB addr
                                   14161  1 1990.
                                   14162  1 1991.            Set up to call write or read completion routines.  Do general
                                   14163  1 1992.            stuff first.
                                   14164  1 1993.
 DROP   @LOCKS-72,R13              14165  1 1994.                PSET  @PAGPIOC
 USING  @PAGPIOC-72,R13
 000F1A D70F D048 D048 00000 00000 14185  1          +
 000F20                            14186  1 1995.                PMOV  @PCRA,#PIOLOC
 000F20 D203 D048 402C 00000 00008 14190  1          +
 000F26 5050 D04C            00004 14191  1 1996.                PMOV  @PCPCB,(RCPCB)          PCB that owns frame
 000F2A 5040 D054            0000C 14201  1 1997.                PMOV  @PCIOCB,LA:PGDPAGE      I/O control block
 000F2E 5070 D050            00008 14212  1 1998.                PMOV  @PCPCBC,LA:ASBPCB       PCB in control of I/O
1PAGESERV (PAGE00) (09:42) (22MAR04) Page I/O termination                                                                   Page  105
0Current Usings:  (PFTE,R3) (PGDPAGE,R4) (PAGCB,R6) (ASBPCB,R7) (PAGTERM,R10) (@IOTERM-72,R12) (@PAGPIOC-72,R13)
0Loc    Object Code    Addr1 Addr2  Stmt Lv Lineno    Source Statement           (Hibal 5, Asmedit 3.3)  HLASM R4.0  2004/03/22 09.42
+___    ______ ____    _____ _____  ____ __ ______    ______ _________
0                                  14223  1 1999.
                                   14224  1 2000.            I/O command was a read, so call read completion routine
                                   14225  1 2001.
 000F32                            14226  1 2002.                IF    (#PIODCMD,EQ,=A(#PCREAD)),BEGIN  Read completion
 000F32 D503 A7BE 4024 01640 00000 14237  1          +
 000F38 4770 A10A            00F8C 14238  1          +
 000F3C 41F0 A2EE/0DEF       01170 14243  2 2003.                  LCALL PAGPRC
 000F42 58F0 7088            00088 14252  2 2004.                  L     EPAR,PCBPFOUT
 000F46                            14253  2 2005.                  LOOP  BEGIN                   One less PF
 000F46 18EF                       14259  3 2006.                    LR    RAR,EPAR
 000F48 06E0                       14260  3 2007.                    DECR  RAR
 000F4A BAFE 7088            00088 14262  3 2008.                    CS    EPAR,RAR,PCBPFOUT
 000F4E 4770 A0C4            00F46 14263  2 2009.                  UNTIL (EQUAL),END             OF One less PF
 000F52 12EE/4780 A106       00F88 14282  2 2010.                  IF    (RAR,NZ),'ABORT MULPFEND'
 000F58 AC04 021B      0021B       14309  3          +
 USING  PZERO,R0
 000F5C 9680 021A      0021A       14315  3          +
 000F60 50F0 021C            0021C 14316  3          +
 000F64 58F0 0210            00210 14317  3          +
 000F68 89F0 0010            00010 14318  3          +
 000F6C 88F0 0010            00010 14319  3          +
 000F70 41F0 F000            00000 14320  3          +
 000F74 AEFF 0006            00006 14321  3          +
 000F78 D4E4D3D7C6C5D5C4           14322  2          +
 DROP   PZERO,R0
 000F88 5820 700C            0000C 14335  2 2011.                  L     RA,PCBASB               AS to notify about
 000F8C                            14336  1 2012.                END   ,                       OF Read completion
                                   14340  1 2013.
                                   14341  1 2014.            I/O command was a write, so call the page write completion routine
                                   14342  1 2015.
 000F8C A10E           00F8C 00F3A 14343  1 2016.                ELSE  BEGIN                   Write completion
 000F8C 47F0 A14C            00FCE 14348  1          +
 000F90 D203 401C 3008 0001C 00008 14354  2 2017.                  MVC   PGDPGVA,PFTVA           Save virtual address
 000F96 947F 4020      00020       14355  2 2018.                  CLEAR PGDFPGT
 000F9A 9180 301D      0001D       14362  2 2019.                  IF    PFTFPGT,BEGIN
 000F9E 47E0 A12A            00FAC 14372  2          +
 000FA2 9680 4020      00020       14377  3 2020.                    SET   PGDFPGT                   and page table flag
 000FA6 D201 4022 3014 00022 00014 14383  3 2021.                    MVC   PGDPGSEG,PFTSEG             and segment of PT
 000FAC                            14384  2 2022.                  END   ,
 000FAC 9180 7023      00023       14388  2 2023.                  IF    PCBFISOUT,BEGIN         AS swapped out
 000FB0 47E0 A140            00FC2 14398  2          +
 000FB4 D203 4000 7080 00000 00080 14403  3 2024.                    MVC   PSCFP,PCBWPEND          Queue up this I/O
 000FBA 5040 7080            00080 14404  3 2025.                    PMOV  PCBWPEND,LA:PGDPAGE
 000FBE 947F C052      00002       14415  3 2026.                    CLEAR #PTFCRL                 Don't release I/O cell
 000FC2                            14422  2 2027.                  END   ,                       OF AS swapped out
 000FC2 A144           00FC2 00FB2 14426  2 2028.                  ELSE  BEGIN
 000FC2 47F0 A14A            00FCC 14431  2          +
 000FC6 41F0 A594/0DEF       01416 14437  3 2029.                    LCALL PAGPWC                  |
 000FCC                            14446  2 2030.                  END   ,
 000FCC 1B22                       14450  2 2031.                  CLEAR RA                      No notify
 000FCE                            14454  1 2032.                END   ,                       OF Write completion
1PAGESERV (PAGE00) (09:42) (22MAR04) Page I/O termination                                                                   Page  106
0Current Usings:  (PFTE,R3) (PGDPAGE,R4) (PAGCB,R6) (ASBPCB,R7) (PAGTERM,R10) (@IOTERM-72,R12) (@PAGPIOC-72,R13)
0Loc    Object Code    Addr1 Addr2  Stmt Lv Lineno    Source Statement           (Hibal 5, Asmedit 3.3)  HLASM R4.0  2004/03/22 09.42
+___    ______ ____    _____ _____  ____ __ ______    ______ _________
0                                  14458  1 2033.
                                   14459  1 2034.             If we are supposed to release or unfix this frame at I/O
                                   14460  1 2035.            completion, do it.
                                   14461  1 2036.             If a frame is to be released, don't unfix it first, just
                                   14462  1 2037.            relase it.  This needs to be done this way so that the lists
                                   14463  1 2038.            of unfixed frames in the PCB do not change while a swap is in
                                   14464  1 2039.            progress.  The long term fixed frames are allowed to change
                                   14465  1 2040.            during this time however.
                                   14466  1 2041.
 000FCE 9110 301D      0001D       14467  1 2042.                IF    PFTFREL,BEGIN           Release frame
 000FD2 47E0 A168            00FEA 14477  1          +
 000FD6 94CF 301D      0001D       14482  2 2043.                  CLEAR PFTFREL*PFTFUFIX        |
 DROP   @PAGPIOC-72,R13            14492  2 2044.                  FRAMEREL LA:PFTE              |
 USING  @FRAMREL-72,R13
 000FDA D707 D048 D048 00000 00000 14513  2          +
 000FE0 5030 D04C            00004 14524  2          +
 000FE4 58F0 A7C2/0DEF       01644 14530  2          +
 000FEA                            14532  1 2045.                END   ,                       OF Release frame
 000FEA A16C           00FEA 00FD4 14536  1 2046.                ELSEIF PFTFUFIX,BEGIN         Unfix the frame
 000FEA 47F0 A18A            0100C 14542  1          +
 000FEE 9120 301D      0001D       14554  1          +
 000FF2 47E0 A18A            0100C 14555  1          +
 DROP   @FRAMREL-72,R13            14560  2 2047.                  PSET  @QUFIX                  |
 USING  @QUFIX-72,R13
 000FF6 D703 D048 D048 00000 00000 14580  2          +
 000FFC                            14581  2 2048.                  PMOV  @QUFRA,#PIOLOC          | frame table entry addr
 000FFC D203 D048 402C 00000 00008 14585  2          +
 001002 58F0 A7C6/0DEF       01648 14586  2 2049.                  ACALL QUFIX                   |
 001008 94DF 301D      0001D       14593  2 2050.                  CLEAR PFTFUFIX                |
 00100C                            14600  1 2051.                END   ,                       OF Unfix the frame
 DROP   PFTE,R3                    14604    2052.              END   ,                       OF PFTE addr
                                   14612    2053.
                                   14613    2054.          Free up locks for this AS
                                   14614    2055.
 00100C 4310 70B6            000B6 14615    2056.              PAGXIT ASYNC,#PTPSWM,#PTLKFLG,WR=RS ,CPCB=RCPCB
 001010 D200 70B6 C051 000B6 00001 14619             +
 001016 4210 C051            00001 14620             +
 00101A 9180 C051      00001       14630             +
 00101E 47E0 A1B4            01036 14631             +
 001022 5850 6018            00018 14636  1          +
 USING  ASB,R5
 001026 5850 5020            00020 14652  1          +
 DROP   ASB,R5
 DROP   ASBPCB,R7
 USING  ASBPCB,R5
 DROP   @QUFIX-72,R13
 USING  @LOCKS-72,R13
 00102A D203 D048 5018 00000 00018 14705  2          +
 001030 58F0 6030/0DEF       00030 14711             +
 USING  ASBPCB,R7
 DROP   ASBPCB,R5
 001036 9140 C051      00001       14743             +
 00103A 47E0 A1C8            0104A 14744             +
 00103E D203 D048 7018 00000 00018 14758  1          +
1PAGESERV (PAGE00) (09:42) (22MAR04) Page I/O termination                                                                   Page  107
0Current Usings:  (PGDPAGE,R4) (PAGCB,R6) (ASBPCB,R7) (PAGTERM,R10) (@IOTERM-72,R12) (@LOCKS-72,R13)
0Loc    Object Code    Addr1 Addr2  Stmt Lv Lineno    Source Statement           (Hibal 5, Asmedit 3.3)  HLASM R4.0  2004/03/22 09.42
+___    ______ ____    _____ _____  ____ __ ______    ______ _________
0001044 58F0 6030/0DEF       00030 14764             +
 00104A 8000 C050      00000       14770             +
                                   14771    2057.
                                   14772    2058.          Now that the locks are released, we can make our requests
                                   14773    2059.          of the dispatcher to start up waiting tasks.
                                   14774    2060.
 00104E 1222/4780 A1E2       01064 14775    2061.              IF    (RA,NZ),BEGIN           Do notify
 DROP   @LOCKS-72,R13              14789  1 2062.                PSET  @DISPPIOC
 USING  @DISPPIOC-72,R13
 001054 D703 D048 D048 00000 00000 14809  1          +
 00105A 5020 D048            00000 14810  1 2063.                PMOV  @DPIOASB,(RA)
 00105E 58F0 A7CA/0DEF       0164C 14820  1 2064.                VCALL DISPPIOC
 001064                            14824    2065.              END   ,                       OF Do notify
                                   14828    2066.
                                   14829    2067.          Notify all PCBs that are waiting for this I/O that it is
                                   14830    2068.          complete.
                                   14831    2069.
 001064 5820 4018            00018 14832    2070.              L     RA,PGDPGWT              Process any waiting ASs
 001068                            14833    2071.              CLEAR PGDPGWT                 | clear for next time
 001068 D703 4018 4018 00018 00018 14839             +
 00106E 1222/4780 A27C       010FE 14840    2072.              WHILE (RA,~ZERO),BEGIN
 USING  WAIT.ASBPCB,R2             14856  1 2073.                WITH  (ASBPCB,RA),LABEL=WAIT
 001074 5830 20A0            000A0 14864  1 2074.                L     RB,WAIT.PCBWAIT         Get next waiting PCB
                                   14865  1 2075.
 001078 9501 20B4      000B4       14866  1 2076.                IF    WAIT:PCBFREAD,BEGIN     Wait is because of a read
 00107C 4770 A256            010D8 14876  1          +
                                   14881  2 2077.
                                   14882  2 2078.              This PCB is waiting because of a page read request,
                                   14883  2 2079.              so we need to notify the dispatcher to wake it up.
                                   14884  2 2080.
 001080 58F0 2088            00088 14885  2 2081.                  L     EPAR,WAIT.PCBPFOUT
 001084                            14886  2 2082.                  LOOP  BEGIN                   One less PF
 001084 18EF                       14892  3 2083.                    LR    RAR,EPAR
 001086 06E0                       14893  3 2084.                    DECR  RAR
 001088 BAFE 2088            00088 14895  3 2085.                    CS    EPAR,RAR,WAIT.PCBPFOUT
 00108C 4770 A202            01084 14896  2 2086.                  UNTIL (EQUAL),END             OF One less PF
 001090 12EE/4780 A244       010C6 14915  2 2087.                  IF    (RAR,NZ),'ABORT MULPFEND2'
 001096 AC04 021B      0021B       14942  3          +
 USING  PZERO,R0
 00109A 9680 021A      0021A       14948  3          +
 00109E 50F0 021C            0021C 14949  3          +
 0010A2 58F0 0210            00210 14950  3          +
 0010A6 89F0 0010            00010 14951  3          +
 0010AA 88F0 0010            00010 14952  3          +
 0010AE 41F0 F000            00000 14953  3          +
 0010B2 AEFF 0006            00006 14954  3          +
 0010B6 D4E4D3D7C6C5D5C4           14955  2          +
 DROP   PZERO,R0
 0010C6                            14968  2 2088.                  PSET  @DISPPIOC               Call I/O completion
 0010C6 D703 D048 D048 00000 00000 14978  2          +
 0010CC                            14979  2 2089.                  PMOV  @DPIOASB,WAIT.PCBASB    |
 0010CC D203 D048 200C 00000 0000C 14983  2          +
 0010D2 58F0 A7CA/0DEF       0164C 14984  2 2090.                  VCALL DISPPIOC                |
 0010D8                            14988  1 2091.                END   ,                       OF Wait is because of a read
1PAGESERV (PAGE00) (09:42) (22MAR04) Page I/O termination                                                                   Page  108
0Current Usings:  (WAIT.ASBPCB,R2) (PGDPAGE,R4) (PAGCB,R6) (ASBPCB,R7) (PAGTERM,R10) (@IOTERM-72,R12) (@DISPPIOC-72,R13)
0Loc    Object Code    Addr1 Addr2  Stmt Lv Lineno    Source Statement           (Hibal 5, Asmedit 3.3)  HLASM R4.0  2004/03/22 09.42
+___    ______ ____    _____ _____  ____ __ ______    ______ _________
0                                  14992  1 2092.
                                   14993  1 2093.            This PCB is waiting for the I/O to complete and the frame to
                                   14994  1 2094.            be released.
                                   14995  1 2095.
 0010D8 A25A           010D8 0107E 14996  1 2096.                ELSEIF WAIT:PCBFREL,BEGIN     Wait for frame to be released
 0010D8 47F0 A276            010F8 15002  1          +
 0010DC 9502 20B4      000B4       15014  1          +
 0010E0 4770 A276            010F8 15015  1          +
 DROP   @DISPPIOC-72,R13           15020  2 2097.                  SIGNL WAIT.PCBECB,TYPE=AS
 USING  @SIGNAL-72,R13
 0010E4 D713 D048 D048 00000 00000 15041  2          +
 0010EA 4100 20A8            000A8 15053  2          +
 0010EE 5000 D050            00008 15058  2          +
 0010F2 58F0 A7CE/0DEF       01650 15061  2          +
 0010F8                            15063  1 2098.                END   ,                       OF Wait for frame to be released
 0010F8 1823                       15067  1 2099.                LR    RA,RB                   Advance pointer
 0010FA 47F0 A1EC            0106E 15068    2100.              END   ,                       OF Process any waiting ASs
 DROP   WAIT.ASBPCB,R2
                                   15081    2101.
                                   15082    2102.          Free up IO cell
                                   15083    2103.
 0010FE 9180 C052      00002       15084    2104.              IF    #PTFCRL,BEGIN           Release I/O cell
 001102 47E0 A2A8            0112A 15094             +
 DROP   @SIGNAL-72,R13             15099  1 2105.                CELLFREE LA:PGDPAGE,TYPE=PAGE
 USING  @CELLFREE-72,R13
 001106 D70F D048 D048 00000 00000 15120  1          +
 00110C 4100 613C            0013C 15132  1          +
 001110 5000 D048            00000 15137  1          +
 001114 5040 D04C            00004 15148  1          +
 001118 5040 D050            00008 15159  1          +
 00111C 4100 0001            00001 15171  1          +
 001120 5000 D054            0000C 15176  1          +
 001124 58F0 A7D2/0DEF       01654 15182  1          +
 00112A                            15184    2106.              END   ,
 00112A 981F C008            00008 15188    2107.              PEND  ,
 DROP   ASBPCB,R7
 DROP   PGDPAGE,R4
 DROP   PAGCB,R6
 DROP   @IOTERM-72,R12
 DROP   PAGTERM,R10
 00112E 9680 C000/0B0E 00000       15218             +
 DROP   @CELLFREE-72,R13
0001134 AC04 021B      0021B       15228    2109.     PGTABORT ABORT PGTABORT                Page I/O error
 USING  PZERO,R0
 001138 9680 021A      0021A       15247             +
 00113C 50F0 021C            0021C 15248             +
 001140 58F0 0210            00210 15249             +
 001144 89F0 0010            00010 15250             +
 001148 88F0 0010            00010 15251             +
 00114C 41F0 F000            00000 15252             +
 001150 AEFF 0006            00006 15253             +
 001154 D7C7E3C1C2D6D9E3           15254             +
 DROP   PZERO,R0
1PAGESERV (PAGE00) (09:42) (22MAR04) Page read complete                                                                     Page  109
0Loc    Object Code    Addr1 Addr2  Stmt Lv Lineno    Source Statement           (Hibal 5, Asmedit 3.3)  HLASM R4.0  2004/03/22 09.42
+___    ______ ____    _____ _____  ____ __ ______    ______ _________
0                                  15264    2111.
                                   15265    2112.
                                   15266    2113.      Page read I/O comlete
                                   15267    2114.        May Run off of dispatcher stack.
                                   15268    2115.
                                   15269    2116.        Input - @PAGPIOC
                                   15270    2117.                If @PCIOCB is non zero, I/O statistics are gathered
                                   15271    2118.                  Appropriate address space locks must be held before
                                   15272    2119.                entry to routine.
                                   15273    2120.
                                   15274    2121.       Output - @PAGPIOC
                                   15275    2122.
                                   15276    2123.

0001164                            15278    2125.     PAGPRC   PROC  @PAGPIOC                Page read complete
 001164 D7C1C7D7D9C34040           15285             +
 00116C 0010/0000                  15286             +
 001170 900F D004/18AF       00004 15288             +
 USING  PAGPRC,R10
 001176 50D0 C000/18CD       00000 15303             +
 00117C 9680 C000      00000       15305             +
 USING  @PAGPIOC-72,R12
 001180 41D0 C058            00058 15319             +
 001184 5860 0200            00200 15320    2126.              PAGAD RPAG                    Get addr to PAGCB
 USING  PZERO,R0
 DROP   PZERO,R0
 USING  MAT,R6
 001188 5860 600C            0000C 15354             +
 DROP   MAT,R6
 USING  PAGCB,R6
                                   15376    2127.
                                   15377    2128.          Gather stats
                                   15378    2129.
 00118C 5840 C054            0000C 15379    2130.              L     RJ,@PCIOCB
 001190 1244/4780 A0BE       0122E 15380    2131.              IF    (RJ,NZ),BEGIN           Gather Stats
 USING  PGDPAGE,R4                 15394  1 2132.                WITH  (PGDPAGE,RJ)
 AUSING (PSCPFX,PGDPGPFX)          15407  1 2133.                WITH  (PSCPFX,PGDPGPFX)
 USING  @IOSTIME-72,R13            15414  1 2134.                PSET  @IOSTIME
 001196 D70F D048 D048 00000 00000 15431  1          +
 00119C                            15432  1 2135.                PMOV  @IOSTID,PSCIO
 00119C D203 D048 400C 00000 0000C 15436  1          +
 0011A2 58F0 A4E8/0DEF       01658 15437  1 2136.                VCALL IOSTIME
                                   15441  1 2137.
 0011A8 4110 0001            00001 15442  1 2138.                INCR  RS,PAGMPIN              One more page in
 0011AC 5E10 6294            00294 15446  1          +
 0011B0 5010 6294            00294 15447  1          +
 0011B4 9889 D050            00008 15448  1 2139.                LM    RM,RN,@IOSIOTIME        Total time
 0011B8 9823 62A0            002A0 15449  1 2140.                LM    RA,RB,PAGMPIT           |
 0011BC 1E93/47C0 A056       011C6 15450  1 2141.                ADLR  RM,RA                   |
 0011C2 5E80 A4EC/1E82       0165C 15465  1          +
 0011C8 9089 62A0            002A0 15471  1 2142.                STM   RM,RN,PAGMPIT           |
                                   15472  1 2143.
 0011CC 5850 4010            00010 15473  1 2144.                L     RK,PSCDEV
 USING  DSDES,R5                   15474  1 2145.                WITH  (DSDES,RK)
 0011D0                            15487  1 2146.                IF    (DSAID,NE,=CL4'BMCB'),'ABORT BADBMID'
1PAGESERV (PAGE00) (09:42) (22MAR04) Page read complete                                                                     Page  110
0Current Usings:  (PGDPAGE,R4) (DSDES,R5) (PAGCB,R6) (PAGPRC,R10) (@PAGPIOC-72,R12) (@IOSTIME-72,R13)
0Loc    Object Code    Addr1 Addr2  Stmt Lv Lineno    Source Statement           (Hibal 5, Asmedit 3.3)  HLASM R4.0  2004/03/22 09.42
+___    ______ ____    _____ _____  ____ __ ______    ______ _________
00011D0 D503 A4F0 5000 01660 00000 15498  1          +
 0011D6 4780 A09A            0120A 15499  1          +
 USING  PZERO,R0
 0011DA AC04 021B      0021B       15517  2          +
 0011DE 9680 021A      0021A       15523  2          +
 0011E2 50F0 021C            0021C 15524  2          +
 0011E6 58F0 0210            00210 15525  2          +
 0011EA 89F0 0010            00010 15526  2          +
 0011EE 88F0 0010            00010 15527  2          +
 0011F2 41F0 F000            00000 15528  2          +
 0011F6 AEFF 0006            00006 15529  2          +
 0011FA C2C1C4C2D4C9C440           15530  1          +
 DROP   PZERO,R0
 00120A 4110 0001            00001 15543  1 2147.                INCR  RS,DSINCNT              Another page in this device
 00120E 5E10 5020            00020 15547  1          +
 001212 5010 5020            00020 15548  1          +
 001216 9889 D050            00008 15549  1 2148.                LM    RM,RN,@IOSIOTIME        Total time
 00121A 9823 5028            00028 15550  1 2149.                LM    RA,RB,DSINTIME          |
 00121E 1E93/47C0 A0B8       01228 15551  1 2150.                ADLR  RM,RA                   |
 001224 5E80 A4EC/1E82       0165C 15566  1          +
 00122A 9089 5028            00028 15572  1 2151.                STM   RM,RN,DSINTIME          |
 DROP   DSDES,R5                   15573    2152.              END   ,                       OF Gather Stats
 DROP   PGDPAGE,R4
                                   15587    2153.
                                   15588    2154.          Get addressability to the page-frame-table entry, (also clearing
                                   15589    2155.          the I/O control block address)
                                   15590    2156.
 00122E 5840 C048            00000 15591    2157.              L     RJ,@PCRA                Real addr of frame
 001232 1854                       15592    2158.              LR    RK,RJ                   Get frame table addr
 001234 8850 000C            0000C 15593    2159.              SRL   RK,L'PAGPAGM            |
 001238 8950 0005            00005 15594    2160.              SLL   RK,PFTLOG               |
 00123C 5E50 6044            00044 15595    2161.              AL    RK,PAGPFTO              |
 USING  PFTE,R5                    15596    2162.              WITH  (PFTE,RK)               |
 001240                            15609    2163.              CLEAR PFTIOCB                 | disconnect frame from I/O
 001240 D703 5010 5010 00010 00010 15615             +
 001246 5870 C04C            00004 15616    2164.              L     RPCB,@PCPCB             Address of PCB that owns frame
 USING  ASBPCB,R7                  15617    2165.              WITH  (ASBPCB,RPCB)           |
 00124A 5820 701C            0001C 15630    2166.              L     RA,PCBPSTO              Seg tbl origin
 00124E B120 2000            00000 15631    2167.              LRA   RA,@RA                  |
 001252 5870 C050            00008 15632    2168.              L     RPCB,@PCPCBC            Addr of PCB in control of I/O
 001256 5880 7014            00014 15633    2169.              L     RM,PCBRA                Real PCB addr
 USING  REAL.ASBPCB,R8             15634    2170.              WITH  (ASBPCB,RM),LABEL=REAL  |
                                   15642    2171.
                                   15643    2172.          This frame isn't being released, so fix up all the translation
                                   15644    2173.          tables for this real address.
                                   15645    2174.
 00125A 9110 501D      0001D       15646    2175.              IF    ~PFTFREL,BEGIN          Don't release the frame
 00125E 4710 A1DE            0134E 15656             +
                                   15661  1 2176.
                                   15662  1 2177.
                                   15663  1 2178.       Page table coming in
                                   15664  1 2179.
                                          1
1PAGESERV (PAGE00) (09:42) (22MAR04) Page read complete                                                                     Page  111
0Current Usings:  (PFTE,R5) (PAGCB,R6) (ASBPCB,R7) (REAL.ASBPCB,R8) (PAGPRC,R10) (@PAGPIOC-72,R12) (@IOSTIME-72,R13)
0Loc    Object Code    Addr1 Addr2  Stmt Lv Lineno    Source Statement           (Hibal 5, Asmedit 3.3)  HLASM R4.0  2004/03/22 09.42
+___    ______ ____    _____ _____  ____ __ ______    ______ _________
0001262 9180 501D      0001D       15665  1 2180.                IF    PFTFPGT,BEGIN           Page table coming in
 001266 47E0 A146            012B6 15675  1          +
                                   15680  2 2181.
                                   15681  2 2182.              Get addressability to the segment table entry
                                   15682  2 2183.
 00126A 4810 5014            00014 15683  2 2184.                  LH    RS,PFTSEG               Get seg table addresses
 00126E 1831                       15684  2 2185.                  LR    RB,RS                   |
 001270 8910 0002            00002 15685  2 2186.                  SLL   RS,SGTLOG               |
 001274 1E12                       15686  2 2187.                  ALR   RS,RA                   |
 001276 8930 0003            00003 15687  2 2188.                  SLL   RB,SSTLOG               | shadow seg addr
 00127A 4A30 60BE            000BE 15688  2 2189.                  AH    RB,PAGSEGL              |
 00127E 1E32                       15689  2 2190.                  ALR   RB,RA                   |
 001280 ACFB 70B5      000B5       15690  2 2191.                  DATOFF PCBPSWM                |
                                   15692  2 2192.
                                   15693  2 2193.              Segment is no longer invalid, and it's no longer in I/O either
                                   15694  2 2194.
 USING  SGTE,R1                    15695  2 2195.                  WITH  (SGTE,RS),BEGIN         Clear invalid segment
 001284 9120 1003      00003       15709  3 2196.                    IF    ~SGTFINV,PEABORT        | Should be invalid segment
 001288 47E0 A26A            013DA 15721  3          +
 00128C 94DF 1003      00003       15727  3 2197.                    CLEAR SGTFINV
 DROP   SGTE,R1                    15734  2 2198.                  END   ,                       OF Clear invalid segment
 USING  SSTE,R3                    15742  2 2199.                  WITH  (SSTE,RB),BEGIN         Clear segment fault flag
 001290 94DF 3006      00006       15756  3 2200.                    CLEAR SSTFIO                  |
 DROP   SSTE,R3                    15763  2 2201.                  END   ,                       |
 001294 8000 80B5      000B5       15771  2 2202.                  DATON REAL.PCBPSWM            DAT-On
                                   15773  2 2203.
                                   15774  2 2204.              Frame-table-entry flags may require us to unfix the frame
                                   15775  2 2205.
 001298 9120 501D      0001D       15776  2 2206.                  IF    PFTFUFIX,BEGIN          Unfix the frame
 00129C 47E0 A146            012B6 15786  2          +
 DROP   @IOSTIME-72,R13            15791  3 2207.                    PSET  @QUFIX                  |
 USING  @QUFIX-72,R13
 0012A0 D703 D048 D048 00000 00000 15811  3          +
 0012A6                            15812  3 2208.                    PMOV  @QUFRA,@PCRA            | frame addr
 0012A6 D203 D048 C048 00000 00000 15816  3          +
 0012AC 58F0 A4D8/0DEF       01648 15817  3 2209.                    ACALL QUFIX                   |
 0012B2 94DF 501D      0001D       15824  3 2210.                    CLEAR PFTFUFIX                |
 0012B6                            15831  2 2211.                  END   ,                       OF Unfix the frame
 0012B6                            15835  1 2212.                END   ,                       OF Page table coming in
                                   15839  1 2213.
                                   15840  1 2214.
                                   15841  1 2215.       Mark page table entry as valid
                                   15842  1 2216.
                                          1
00012B6 58F0 5008            00008 15843  1 2217.                L     EPAR,PFTVA
 0012BA B1B0 6000            00000 15844  1 2218.                LRA   BRR,PAGCB
 USING  PREAL.PAGCB,R11            15845  1 2219.                WITH  (PAGCB,BRR),LABEL=PREAL,BEGIN    Page CB real addr
 0012BE ACFB 70B5      000B5       15854  2 2220.                  DATOFF PCBPSWM                |
1PAGESERV (PAGE00) (09:42) (22MAR04) Page read complete                                                                     Page  112
0Current Usings:  (PFTE,R5) (PAGCB,R6) (ASBPCB,R7) (REAL.ASBPCB,R8) (PAGPRC,R10) (PREAL.PAGCB,R11) (@PAGPIOC-72,R12) (@QUFIX-72,R13)
0Loc    Object Code    Addr1 Addr2  Stmt Lv Lineno    Source Statement           (Hibal 5, Asmedit 3.3)  HLASM R4.0  2004/03/22 09.42
+___    ______ ____    _____ _____  ____ __ ______    ______ _________
0                                  15856  2 2221.
                                   15857  2 2222.              Compute table entry addresses (page table and shadow)
                                   15858  2 2223.
 0012C2 183F                       15859  2 2224.                  LR    RB,EPAR                 Compute table entries
 0012C4 8830 0014            00014 15860  2 2225.                  SRL   RB,L'PAGSGNM            |
 0012C8 8930 0002            00002 15861  2 2226.                  SLL   RB,SGTLOG               |
 0012CC 1E32                       15862  2 2227.                  ALR   RB,RA                   |
 0012CE 5810 3000            00000 15863  2 2228.                  WITH  (SGTE,RB),'L RS,SGTAD'  | Page table address
 USING  SGTE,R3
 DROP   SGTE,R3
 0012D2 5410 A4F4            01664 15887  2 2229.                  N     RS,=A(SGTADMSK)         |
 0012D6 183F                       15888  2 2230.                  LR    RB,EPAR                 | VA
 0012D8 5430 A4F8            01668 15889  2 2231.                  N     RB,=A(PAGPGNM)          |
 0012DC 1823                       15890  2 2232.                  LR    RA,RB                   |
 0012DE 8830 0009            00009 15891  2 2233.                  SRL   RB,L'PAGPGNM-SPTLOG     |
 0012E2 8820 000A            0000A 15892  2 2234.                  SRL   RA,L'PAGPGNM-PGTLOG     |
 0012E6 1E21                       15893  2 2235.                  ALR   RA,RS                   | page table entry
 0012E8 1E31                       15894  2 2236.                  ALR   RB,RS                   | shadow page addr
 0012EA 4130 3400            00400 15895  2 2237.                  LA    RB,@RB+PGTL             |
                                   15896  2 2238.
                                   15897  2 2239.              Fix up page table/shadow page table w/ real addresses
                                   15898  2 2240.
 USING  PGTE,R2                    15899  2 2241.                  WITH  (PGTE,RA),BEGIN
 0012EE 5800 2000            00000 15913  3 2242.                    L     RVR,PGAD                Contents of page table entry
 0012F2 5400 A4FC            0166C 15914  3 2243.                    N     RVR,=A(PGTAIMSK-L'PGTFIO)    not in I/O, fault handled
 0012F6 1604                       15915  3 2244.                    OR    RVR,RJ                  | this is RA + flags
 0012F8 5000 2000            00000 15916  3 2245.                    ST    RVR,PGAD                |
                                   15917  3 2246.
                                   15918  3 2247.                Set the key for the new page
                                   15919  3 2248.
 USING  SPTE,R3                    15920  3 2249.                    WITH  (SPTE,RB)               Shadow page table entry
 0012FC 4300 3005            00005 15933  3 2250.                    IC    RVR,SPKEY               Set storage key
 001300 5400 A500            01670 15934  3 2251.                    N     RVR,=A(PAGKREF)         | no reference bits
 001304 4200 3005            00005 15935  3 2252.                    STC   RVR,SPKEY               |
 001308 B22B 0004                  15936  3 2253.                    SSKE  RVR,RJ                  | RJ is Real Addr
                                   15937  3 2254.
                                   15938  3 2255.                If the cards are right, we're supposed to release this
                                   15939  3 2256.                external frame.  We don't do this however for the external
                                   15940  3 2257.                frames of page tables because the external frame number is in
                                   15941  3 2258.                both the page table and the segment table...
                                   15942  3 2259.                just too darn complex!
                                   15943  3 2260.
                                   15944  3 2261.   C                IF    (PGTFXDEF,AND,          Release external frame
 00130C 9104 2003      00003              3 2262.                          (~PGTFPGT,AND,PREAL:PAGXF1DEF)),BEGIN
 001310 47E0 A1D6            01346 15956  3          +
 001314 9110 2003      00003       15969  3          +
 001318 4710 A1D6            01346 15970  3          +
 00131C 9140 B1C2      001C2       15981  3          +
 001320 47E0 A1D6            01346 15982  3          +
 001324 94FB 2003      00003       15987  4 2263.                      CLEAR PGTFXDEF                Not defined any more
 001328 5810 3000            00000 15994  4 2264.                      L     RS,SPXSLOT              Get external frame number
 00132C                            15995  4 2265.                      CLEAR SPXSLOT
 00132C D703 3000 3000 00000 00000 16001  4          +
 001332 8000 80B5      000B5       16002  4 2266.                      DATON REAL.PCBPSWM
1PAGESERV (PAGE00) (09:42) (22MAR04) Page read complete                                                                     Page  113
0Current Usings:  (PGTE,R2) (SPTE,R3) (PFTE,R5) (PAGCB,R6) (ASBPCB,R7) (REAL.ASBPCB,R8) (PAGPRC,R10) (PREAL.PAGCB,R11) (@PAGPIOC-72,R12) (@XPREL-72,R13
 )
0Loc    Object Code    Addr1 Addr2  Stmt Lv Lineno    Source Statement           (Hibal 5, Asmedit 3.3)  HLASM R4.0  2004/03/22 09.42
+___    ______ ____    _____ _____  ____ __ ______    ______ _________
0DROP   @QUFIX-72,R13              16004  4 2267.                      XPREL (RS)                    Release external frame
 USING  @XPREL-72,R13
 001336 D70B D048 D048 00000 00000 16025  4          +
 00133C 5010 D048            00000 16035  4          +
 001340 58F0 A504/0DEF       01674 16041  4          +
 001346                            16043  3 2268.                    END   ,                       OF Release external frame
 001346 A1DA           01346 01312 16047  3 2269.                    ELSE  BEGIN
 00131A A1DA/A1DA      0131C 01322 16052  3          +
 001346 47F0 A1DE            0134E 16056  3          +
 00134A 8000 80B5      000B5       16062  4 2270.                      DATON REAL.PCBPSWM            DAT-On
 00134E                            16064  3 2271.                    END   ,
 DROP   SPTE,R3                    16068  2 2272.                  END   ,                       OF Page table entry addr
 DROP   PGTE,R2
 DROP   PREAL.PAGCB,R11            16081  1 2273.                END   ,                       OF Page CB real addr
 00134E                            16092    2274.              END   ,                       OF Don't release the frame
                                   16096    2275.
                                   16097    2276.          For the case where a frame is marked to be released as soon
                                   16098    2277.          as the I/O completes we do the following...
                                   16099    2278.
 00134E A1E2           0134E 01260 16100    2279.              ELSE  BEGIN                   This frame is being released
 00134E 47F0 A236            013A6 16105             +
 001352 58F0 5008            00008 16111  1 2280.                L     EPAR,PFTVA
 001356 ACFB 70B5      000B5       16112  1 2281.                DATOFF PCBPSWM                |
                                   16114  1 2282.
                                   16115  1 2283.            Compute page table entry address
                                   16116  1 2284.
 00135A 183F                       16117  1 2285.                LR    RB,EPAR                 Compute table entries
 00135C 8830 0014            00014 16118  1 2286.                SRL   RB,L'PAGSGNM            |
 001360 8930 0002            00002 16119  1 2287.                SLL   RB,SGTLOG               |
 001364 1E32                       16120  1 2288.                ALR   RB,RA                   |
 001366 5810 3000            00000 16121  1 2289.                WITH  (SGTE,RB),'L RS,SGTAD'  | Page table address
 USING  SGTE,R3
 DROP   SGTE,R3
 00136A 5410 A4F4            01664 16145  1 2290.                N     RS,=A(SGTADMSK)         |
 00136E 182F                       16146  1 2291.                LR    RA,EPAR                 | VA
 001370 5420 A4F8            01668 16147  1 2292.                N     RA,=A(PAGPGNM)          |
 001374 8820 000A            0000A 16148  1 2293.                SRL   RA,L'PAGPGNM-PGTLOG     |
 001378 1E21                       16149  1 2294.                ALR   RA,RS                   | page table entry
                                   16150  1 2295.
                                   16151  1 2296.            Clear flag for I/O in progress
                                   16152  1 2297.
 USING  PGTE,R2                    16153  1 2298.                WITH  (PGTE,RA),BEGIN
 00137A 94F7 2003      00003       16167  2 2299.                  CLEAR PGTFIO                  No longer in I/O
 DROP   PGTE,R2                    16174  1 2300.                END   ,
                                   16182  1 2301.
                                   16183  1 2302.            A released page is one less valid page in the segment, which
                                   16184  1 2303.            results in one less short term fix for the page table frame.
                                   16185  1 2304.
 00137E 18F1/88F0 000C       0000C 16186  1 2305.                QUSFIX (RS)                   Real address of PT
 001384 89F0 0005            00005 16193  1          +
 001388 5EF0 6044            00044 16194  1          +
 USING  PFTE,R15
 00138C 48E0 F01A/06E0       0001A 16209  2          +
1PAGESERV (PAGE00) (09:42) (22MAR04) Page read complete                                                                     Page  114
0Current Usings:  (PFTE,R5) (PAGCB,R6) (ASBPCB,R7) (REAL.ASBPCB,R8) (PAGPRC,R10) (@PAGPIOC-72,R12) (@XPREL-72,R13) (PFTE,R15)
0Loc    Object Code    Addr1 Addr2  Stmt Lv Lineno    Source Statement           (Hibal 5, Asmedit 3.3)  HLASM R4.0  2004/03/22 09.42
+___    ______ ____    _____ _____  ____ __ ______    ______ _________
0001392 59E0 A508            01678 16214  2          +
 001396 47B0 A22E            0139E 16221  2          +
 00139A 58E0 A508            01678 16226  2          +
 00139E 40E0 F01A            0001A 16231  1          +
 DROP   PFTE,R15
 0013A2 8000 80B5      000B5       16240  1 2306.                DATON REAL.PCBPSWM
 0013A6                            16242    2307.              END   ,                       OF This frame is being released
                                   16246    2308.     **
                                   16247    2309.     *  If we are supposed to unfix this frame at I/O completion, do it
                                   16248    2310.     **
 0013A6 9120 501D      0001D       16249    2311.              IF    PFTFUFIX,BEGIN          Unfix the frame
 0013AA 47E0 A254            013C4 16259             +
 DROP   @XPREL-72,R13              16264  1 2312.                PSET  @QUFIX                  |
 USING  @QUFIX-72,R13
 0013AE D703 D048 D048 00000 00000 16284  1          +
 0013B4                            16285  1 2313.                PMOV  @QUFRA,@PCRA            | frame table entry addr
 0013B4 D203 D048 C048 00000 00000 16289  1          +
 0013BA 58F0 A4D8/0DEF       01648 16290  1 2314.                ACALL QUFIX                   |
 0013C0 94DF 501D      0001D       16297  1 2315.                CLEAR PFTFUFIX                |
 0013C4                            16304    2316.              END   ,                       OF Unfix the frame
                                   16308    2317.
                                   16309    2318.          Update accounting
                                   16310    2319.
 0013C4 4110 0001            00001 16311    2320.              INCR  RS,PCBMPFR              Page frame reads
 0013C8 5E10 708C            0008C 16315             +
 0013CC 5010 708C            0008C 16316             +
 0013D0 981F C008            00008 16317    2321.              PEND  ,
 DROP   REAL.ASBPCB,R8
 DROP   ASBPCB,R7
 DROP   PFTE,R5
 DROP   PAGCB,R6
 DROP   @PAGPIOC-72,R12
 DROP   PAGPRC,R10
 0013D4 9680 C000/0B0E 00000       16355             +
 DROP   @QUFIX-72,R13
00013DA AC04 021B      0021B       16365    2323.     PEABORT  ABORT PAGPIOR                 PT coming in already valid
 USING  PZERO,R0
 0013DE 9680 021A      0021A       16384             +
 0013E2 50F0 021C            0021C 16385             +
 0013E6 58F0 0210            00210 16386             +
 0013EA 89F0 0010            00010 16387             +
 0013EE 88F0 0010            00010 16388             +
 0013F2 41F0 F000            00000 16389             +
 0013F6 AEFF 0006            00006 16390             +
 0013FA D7C1C7D7C9D6D940           16391             +
 DROP   PZERO,R0
1PAGESERV (PAGE00) (09:42) (22MAR04) Page write complete                                                                    Page  115
0Loc    Object Code    Addr1 Addr2  Stmt Lv Lineno    Source Statement           (Hibal 5, Asmedit 3.3)  HLASM R4.0  2004/03/22 09.42
+___    ______ ____    _____ _____  ____ __ ______    ______ _________
0                                  16401    2325.
                                   16402    2326.
                                   16403    2327.      Page write I/O comlete
                                   16404    2328.        May run off of dispatcher stack.
                                   16405    2329.
                                   16406    2330.        Input - @PAGPIOC
                                   16407    2331.                If @PCIOCB is non zero, I/O statistics are gathered
                                   16408    2332.                  Appropriate address space locks must be held before
                                   16409    2333.                entry to routine.
                                   16410    2334.
                                   16411    2335.       Output - @PAGPIOC
                                   16412    2336.
                                   16413    2337.

0000000                00000 00004 16415    2339.     #PAGPWC  RECORD BEGIN
 000000                            16423  1 2340.     #PWCKEY    DS    A                       Area to save PSW key
 000004                00004 00004 16424    2341.              END   ,
000140A                            16434    2343.     PAGPWC   PROC  @PAGPIOC,#PAGPWC        Page write complete
 00140A D7C1C7D7E6C34040           16441             +
 001412 0010/0008                  16442             +
 001416 900F D004/18AF       00004 16444             +
 USING  PAGPWC,R10
 00141C 50D0 C000/18CD       00000 16459             +
 001422 9680 C000      00000       16461             +
 USING  @PAGPIOC-72,R12
 AUSING (#PAGPWC,@PAGPIOC+16)
 001426 41D0 C060            00060 16480             +
 00142A 5860 0200            00200 16481    2344.              PAGAD RPAG                    Get addr to PAGCB
 USING  PZERO,R0
 DROP   PZERO,R0
 USING  MAT,R6
 00142E 5860 600C            0000C 16515             +
 DROP   MAT,R6
 USING  PAGCB,R6
                                   16537    2345.
                                   16538    2346.          Gather stats
                                   16539    2347.
 001432 5850 C054            0000C 16540    2348.              L     RK,@PCIOCB
 USING  PGDPAGE,R5                 16541    2349.              WITH  (PGDPAGE,RK)            Gather Stats
 AUSING (PSCPFX,PGDPGPFX)          16554    2350.              WITH  (PSCPFX,PGDPGPFX)
 USING  @IOSTIME-72,R13            16561    2351.              PSET  @IOSTIME
 001436 D70F D048 D048 00000 00000 16578             +
 00143C                            16579    2352.              PMOV  @IOSTID,PSCIO
 00143C D203 D048 500C 00000 0000C 16583             +
 001442 58F0 A242/0DEF       01658 16584    2353.              VCALL IOSTIME
                                   16588    2354.
 001448 4110 0001            00001 16589    2355.              INCR  RS,PAGMPON              One more page out
 00144C 5E10 6290            00290 16593             +
 001450 5010 6290            00290 16594             +
 001454 9889 D050            00008 16595    2356.              LM    RM,RN,@IOSIOTIME        Total time
 001458 9823 6298            00298 16596    2357.              LM    RA,RB,PAGMPOT           |
 00145C 1E93/47C0 A050       01466 16597    2358.              ADLR  RM,RA                   |
 001462 5E80 A246/1E82       0165C 16612             +
 001468 9089 6298            00298 16618    2359.              STM   RM,RN,PAGMPOT           |
1PAGESERV (PAGE00) (09:42) (22MAR04) Page write complete                                                                    Page  116
0Current Usings:  (PGDPAGE,R5) (PAGCB,R6) (PAGPWC,R10) (@PAGPIOC-72,R12) (@IOSTIME-72,R13)
0Loc    Object Code    Addr1 Addr2  Stmt Lv Lineno    Source Statement           (Hibal 5, Asmedit 3.3)  HLASM R4.0  2004/03/22 09.42
+___    ______ ____    _____ _____  ____ __ ______    ______ _________
0                                  16619    2360.
 00146C 5840 5010            00010 16620    2361.              L     RJ,PSCDEV
 USING  DSDES,R4                   16621    2362.              WITH  (DSDES,RJ)
 001470                            16634    2363.              IF    (DSAID,NE,=CL4'BMCB'),'ABORT BADBMID'
 001470 D503 A24A 4000 01660 00000 16645             +
 001476 4780 A094            014AA 16646             +
 USING  PZERO,R0
 00147A AC04 021B      0021B       16664  1          +
 00147E 9680 021A      0021A       16670  1          +
 001482 50F0 021C            0021C 16671  1          +
 001486 58F0 0210            00210 16672  1          +
 00148A 89F0 0010            00010 16673  1          +
 00148E 88F0 0010            00010 16674  1          +
 001492 41F0 F000            00000 16675  1          +
 001496 AEFF 0006            00006 16676  1          +
 00149A C2C1C4C2D4C9C440           16677             +
 DROP   PZERO,R0
 0014AA 4110 0001            00001 16690    2364.              INCR  RS,DSOUTCNT             Another page out this device
 0014AE 5E10 4024            00024 16694             +
 0014B2 5010 4024            00024 16695             +
 0014B6 9889 D050            00008 16696    2365.              LM    RM,RN,@IOSIOTIME        Total time
 0014BA 9823 4030            00030 16697    2366.              LM    RA,RB,DSOUTTIME         |
 0014BE 1E93/47C0 A0B2       014C8 16698    2367.              ADLR  RM,RA                   |
 0014C4 5E80 A246/1E82       0165C 16713             +
 0014CA 9089 4030            00030 16719    2368.              STM   RM,RN,DSOUTTIME         |
                                   16720    2369.
 0014CE 5870 C04C            00004 16721    2370.              L     RPCB,@PCPCB             Address of PCB that owns frame
 USING  ASBPCB,R7                  16722    2371.              WITH  (ASBPCB,RPCB)           |
                                   16735    2372.              REGCH (RA,R2)
 0014D2 B20B 0000                  16736    2373.              IPK   ,                       Save off the old key
 0014D6 5020 C058            00000 16737    2374.              ST    RA,#PWCKEY
 0014DA B20A 0000      00000       16738    2375.              SPKA  0                         and get into key 0
 0014DE 5820 701C            0001C 16739    2376.              L     RA,PCBPSTO              Seg tbl origin
 0014E2 B120 2000            00000 16740    2377.              LRA   RA,@RA                  |
 0014E6 5880 7014            00014 16741    2378.              L     RM,PCBRA                | and it's real addr
 USING  REAL.ASBPCB,R8             16742    2379.              WITH  (ASBPCB,RM),LABEL=REAL  |
                                   16750    2380.
                                   16751    2381.
                                   16752    2382.       Page table written
                                   16753    2383.

00014EA 9180 5020      00020       16754    2384.              IF    PGDFPGT,BEGIN           Page table gone out
 0014EE 47E0 A164            0157A 16764             +
                                   16769  1 2385.
                                   16770  1 2386.              Work with this page table's own virtual address
                                   16771  1 2387.            Now that the page table I/O is complete, store the segment
                                   16772  1 2388.            number that this page table maps as this VAs frame
                                   16773  1 2389.
 0014F2 4840 5022            00022 16774  1 2390.                LH    RJ,PGDPGSEG
 0014F6 8940 0014            00014 16775  1 2391.                SLL   RJ,L'PAGSGNM
1PAGESERV (PAGE00) (09:42) (22MAR04) Page write complete                                                                    Page  117
0Current Usings:  (DSDES,R4) (PGDPAGE,R5) (PAGCB,R6) (ASBPCB,R7) (REAL.ASBPCB,R8) (PAGPWC,R10) (@PAGPIOC-72,R12) (@IOSTIME-72,R13)
0Loc    Object Code    Addr1 Addr2  Stmt Lv Lineno    Source Statement           (Hibal 5, Asmedit 3.3)  HLASM R4.0  2004/03/22 09.42
+___    ______ ____    _____ _____  ____ __ ______    ______ _________
0                                  16776  1 2392.
                                   16777  1 2393.            Get the page table entry for this page table's virtual addr
                                   16778  1 2394.
 0014FA 5830 501C            0001C 16779  1 2395.                L     RB,PGDPGVA              Get page table entry
 0014FE 1803                       16780  1 2396.                LR    RVR,RB                  |
 001500 8830 0014            00014 16781  1 2397.                SRL   RB,L'PAGSGNM            |
 001504 8930 0002            00002 16782  1 2398.                SLL   RB,SGTLOG               |
 001508 1E32                       16783  1 2399.                ALR   RB,RA                   |
 00150A ACFB 70B5      000B5       16784  1 2400.                DATOFF PCBPSWM                |
 USING  SGTE,R3                    16786  1 2401.                WITH  (SGTE,RB),BEGIN         |
 00150E 9120 3003      00003       16800  2 2402.                  IF    SGTFINV,PWCPTI          | PTs own VA must be valid seg
 001512 4710 A1F6            0160C 16812  2          +
 001516 5830 3000            00000 16818  2 2403.                  L     RB,SGTAD                |
 DROP   SGTE,R3                    16819  1 2404.                END   ,                       | OF SGTE addr
 00151A 5430 A24E            01664 16827  1 2405.                N     RB,=A(SGTADMSK)         |
 00151E 5400 A252            01668 16828  1 2406.                N     RVR,=A(PAGPGNM)         |
 001522 8800 000A            0000A 16829  1 2407.                SRL   RVR,L'PAGPGNM-PGTLOG    |
 001526 1E30                       16830  1 2408.                ALR   RB,RVR                  |
 USING  PGTE,R3                    16831  1 2409.                WITH  (PGTE,RB),BEGIN         | PGTE addr
 001528 9104 3002      00002       16845  2 2410.                  IF    ~PGTFINV,PWCPTI         PTs own VA must be invalid page
 00152C 47E0 A1F6            0160C 16857  2          +
 001530 5800 3000            00000 16863  2 2411.                  L     RVR,PGAD                | set segment number as frame
 001534 5400 A266            0167C 16864  2 2412.                  N     RVR,=A(PGTFLMSK)        | | save flags
 001538 1604                       16865  2 2413.                  OR    RVR,RJ                  | |
 00153A 5000 3000            00000 16866  2 2414.                  ST    RVR,PGAD                | |
 DROP   PGTE,R3                    16867  1 2415.                END   ,                       OF PGTE addr
 00153E 8000 80B5      000B5       16875  1 2416.                DATON REAL.PCBPSWM
                                   16877  1 2417.
                                   16878  1 2418.
                                   16879  1 2419.         Set segment table entry with the virtual address of the
                                   16880  1 2420.       page table.
                                   16881  1 2421.         Clear segment fault in progress
                                   16882  1 2422.
                                          1
0001542 4840 5022            00022 16883  1 2423.                LH    RJ,PGDPGSEG             Get seg/shadow seg table addrs
 001546 1834                       16884  1 2424.                LR    RB,RJ                   | seg
 001548 8930 0002            00002 16885  1 2425.                SLL   RB,SGTLOG               | |
 00154C 1E32                       16886  1 2426.                ALR   RB,RA                   | |
 00154E 8940 0003            00003 16887  1 2427.                SLL   RJ,SSTLOG               | shadow
 001552 4A40 60BE            000BE 16888  1 2428.                AH    RJ,PAGSEGL              | |
 001556 1E42                       16889  1 2429.                ALR   RJ,RA                   | |
 001558 5890 501C            0001C 16890  1 2430.                L     RN,PGDPGVA              | VA of PT
 00155C 5490 A26A            01680 16891  1 2431.                N     RN,=A(PAGPAGM)          | |
 001560 ACFB 70B5      000B5       16892  1 2432.                DATOFF PCBPSWM                DAT-Off
 USING  SGTE,R3                    16894  1 2433.                WITH  (SGTE,RB),BEGIN         SGTE addr (real)
 001564 5800 3000            00000 16908  2 2434.                  L     RVR,SGTAD               Put PTs VA in segment table
 001568 5400 A26E            01684 16909  2 2435.                  N     RVR,=A(SGTFLMSK)        |
 00156C 1609                       16910  2 2436.                  OR    RVR,RN                  |
 00156E 5000 3000            00000 16911  2 2437.                  ST    RVR,SGTAD               |
 DROP   SGTE,R3                    16912  1 2438.                END   ,                       OF SGTE addr (real)
 DROP   DSDES,R4                   16920  1 2439.                WITH  (SSTE,RJ),BEGIN         Clear segment "in I/O"
 USING  SSTE,R4
 001572 94DF 4006      00006       16937  2 2440.                  CLEAR SSTFIO                  |
1PAGESERV (PAGE00) (09:42) (22MAR04) Page write complete                                                                    Page  118
0Current Usings:  (DSDES,R4) (PGDPAGE,R5) (PAGCB,R6) (ASBPCB,R7) (REAL.ASBPCB,R8) (PAGPWC,R10) (@PAGPIOC-72,R12) (@IOSTIME-72,R13)
0Loc    Object Code    Addr1 Addr2  Stmt Lv Lineno    Source Statement           (Hibal 5, Asmedit 3.3)  HLASM R4.0  2004/03/22 09.42
+___    ______ ____    _____ _____  ____ __ ______    ______ _________
0DROP   SSTE,R4                    16944  1 2441.                END   ,                       |
 USING  DSDES,R4
 001576 8000 80B5      000B5       16959  1 2442.                DATON REAL.PCBPSWM            DAT-On
 00157A                            16961    2443.              END   ,                       OF Page table gone out
                                   16965    2444.
                                   16966    2445.
                                   16967    2446.       Page written out
                                   16968    2447.

000157A 5840 501C            0001C 16969    2448.              L     RJ,PGDPGVA
 00157E ACFB 70B5      000B5       16970    2449.              DATOFF PCBPSWM                DAT-Off
 001582 1834                       16972    2450.              LR    RB,RJ                   Compute table entries
 001584 5430 A272            01688 16973    2451.              N     RB,=A(PAGSGNM)          |
 001588 8830 0012            00012 16974    2452.              SRL   RB,L'PAGSGNM-SGTLOG     |
 00158C 1E32                       16975    2453.              ALR   RB,RA                   |
 00158E 5810 3000            00000 16976    2454.              WITH  (SGTE,RB),'L RS,SGTAD'  | Page table address
 USING  SGTE,R3
 DROP   SGTE,R3
 001592 5410 A24E            01664 17000    2455.              N     RS,=A(SGTADMSK)         |
 001596 1824                       17001    2456.              LR    RA,RJ                   |
 001598 5420 A252            01668 17002    2457.              N     RA,=A(PAGPGNM)          |
 00159C 8820 000A            0000A 17003    2458.              SRL   RA,L'PAGPGNM-PGTLOG     |
 0015A0 1E21                       17004    2459.              ALR   RA,RS                   | page table entry addr
                                   17005    2460.
                                   17006    2461.          Fix up page table/shadow page table
                                   17007    2462.
 USING  PGTE,R2                    17008    2463.              WITH  (PGTE,RA),BEGIN         |
 0015A2 94F7 2003      00003       17022  1 2464.                CLEAR PGTFIO                  Page write done
 DROP   PGTE,R2                    17029    2465.              END   ,                       OF Page table entry addr
 0015A6 8000 80B5      000B5       17037    2466.              DATON REAL.PCBPSWM
                                   17039    2467.
                                   17040    2468.          Now go back to the old key which we were called in
                                   17041    2469.
 0015AA 5820 C058            00000 17042    2470.              L     RA,#PWCKEY
 0015AE B20A 2000      00000       17043    2471.              SPKA  @RA
                                   17044    2472.
                                   17045    2473.          A stolen page is one less valid page in the segment, which
                                   17046    2474.          results in one less short term fix for the page table frame.
                                   17047    2475.
 0015B2 18F1/88F0 000C       0000C 17048    2476.              QUSFIX (RS)
 0015B8 89F0 0005            00005 17055             +
 0015BC 5EF0 6044            00044 17056             +
 USING  PFTE,R15
 0015C0 48E0 F01A/06E0       0001A 17071  1          +
 0015C6 59E0 A262            01678 17076  1          +
 0015CA 47B0 A1BC            015D2 17083  1          +
 0015CE 58E0 A262            01678 17088  1          +
 0015D2 40E0 F01A            0001A 17093             +
 DROP   PFTE,R15
1PAGESERV (PAGE00) (09:42) (22MAR04) Page write complete                                                                    Page  119
0Current Usings:  (DSDES,R4) (PGDPAGE,R5) (PAGCB,R6) (ASBPCB,R7) (REAL.ASBPCB,R8) (PAGPWC,R10) (@PAGPIOC-72,R12) (@IOSTIME-72,R13)
0Loc    Object Code    Addr1 Addr2  Stmt Lv Lineno    Source Statement           (Hibal 5, Asmedit 3.3)  HLASM R4.0  2004/03/22 09.42
+___    ______ ____    _____ _____  ____ __ ______    ______ _________
0                                  17102    2477.
                                   17103    2478.          When an address space terminates, it may have to wait for frame
                                   17104    2479.          writes to complete.
                                   17105    2480.            If we're terminating this address space and this is the last
                                   17106    2481.          page write outstanding, then signal the waiting level of control
                                   17107    2482.          to finish the termination
                                   17108    2483.
 0015D6 5810 7084/0610       00084 17109    2484.              DECR  RS,PCBWCNT              One less I/O outstanding
 0015DC 5010 7084            00084 17113             +
 0015E0 1211/4720 A1EC       01602 17114    2485.              IF    ((RS,NPOS),AND,PCBFTERM),BEGIN
 0015E6 9140 7022      00022       17136             +
 0015EA 47E0 A1EC            01602 17137             +
 DROP   @IOSTIME-72,R13            17142  1 2486.                SIGNL PCBWECB,TYPE=AS
 USING  @SIGNAL-72,R13
 0015EE D713 D048 D048 00000 00000 17163  1          +
 0015F4 4100 7078            00078 17175  1          +
 0015F8 5000 D050            00008 17180  1          +
 0015FC 58F0 A23A/0DEF       01650 17183  1          +
 001602                            17185    2487.              END   ,
 001602 981F C008            00008 17189    2488.              PEND  ,
 DROP   REAL.ASBPCB,R8
 DROP   ASBPCB,R7
 DROP   DSDES,R4
 DROP   PGDPAGE,R5
 DROP   PAGCB,R6
 DROP   @PAGPIOC-72,R12
 DROP   PAGPWC,R10
 001606 9680 C000/0B0E 00000       17232             +
 DROP   @SIGNAL-72,R13
000160C AC04 021B      0021B       17242    2490.     PWCPTI   ABORT PAGPWC
 USING  PZERO,R0
 001610 9680 021A      0021A       17261             +
 001614 50F0 021C            0021C 17262             +
 001618 58F0 0210            00210 17263             +
 00161C 89F0 0010            00010 17264             +
 001620 88F0 0010            00010 17265             +
 001624 41F0 F000            00000 17266             +
 001628 AEFF 0006            00006 17267             +
 00162C D7C1C7D7E6C34040           17268             +
 DROP   PZERO,R0
1PAGESERV (PAGE00) (09:42) (22MAR04) MP-ORVYL Real Memory / Paging Manager Services                                         Page  120
0Loc    Object Code    Addr1 Addr2  Stmt Lv Lineno    Source Statement           (Hibal 5, Asmedit 3.3)  HLASM R4.0  2004/03/22 09.42
+___    ______ ____    _____ _____  ____ __ ______    ______ _________
0001640                            17278    2492.              LTORG ,
 001640 0000000C                   17280                             =A(#PCREAD)
 001644 000064E2                   17281                             =A(FRAMEREL)
 001648 000041A0                   17282                             =A(QUFIX)
 00164C 00000000                   17283                             =V(DISPPIOC)
 001650 00000000                   17284                             =V(SIGNALAS)
 001654 00007204                   17285                             =A(CELLFREE)
 001658 00000000                   17286                             =V(IOSTIME)
 00165C 00000001                   17287                             =A(1)
 001660 C2D4C3C2                   17288                             =CL4'BMCB'
 001664 7FFFFFC0                   17289                             =A(SGTADMSK)
 001668 000FF000                   17290                             =A(PAGPGNM)
 00166C 000002F7                   17291                             =A(PGTAIMSK-L'PGTFIO)
 001670 000000F8                   17292                             =A(PAGKREF)
 001674 00006876                   17293                             =A(XPREL)
 001678 00000000                   17294                             =A(0)
 00167C 000006FF                   17295                             =A(PGTFLMSK)
 001680 7FFFF000                   17296                             =A(PAGPAGM)
 001684 0000003F                   17297                             =A(SGTFLMSK)
 001688 7FF00000       0168C 0A6E0 17298                             =A(PAGSGNM)
1PAGESERV (PAGE00) (09:42) (22MAR04) Swap an address space out                                                              Page  121
0Loc    Object Code    Addr1 Addr2  Stmt Lv Lineno    Source Statement           (Hibal 5, Asmedit 3.3)  HLASM R4.0  2004/03/22 09.42
+___    ______ ____    _____ _____  ____ __ ______    ______ _________
0                                  17303    2494.
                                   17304    2495.
                                   17305    2496.        Notify that address space is ready to be send out of main
                                   17306    2497.      store
                                   17307    2498.
                                   17308    2499.        Input - @PAGSWAP
                                   17309    2500.
                                   17310    2501.       Output - @PAGSWAP
                                   17311    2502.                 RVR indicates the state of the swap-out
                                   17312    2503.
                                   17313    2504.

0000000                00000 00002 17314    2505.     #OSWAP   RECORD BEGIN
 000000                            17322  1 2506.     #OSPSWM    DS    X                       PSW mask for disabling
 000001                            17323  1 2507.     #OSLKFLG   DS    X                       Save area for AS lock flags
 000002                00002 00002 17324    2508.              END   ,
000168C                            17334    2510.     PAGOSWAP PROC  @PAGSWAP,#OSWAP,SCOPE=GLOBAL     Swap an address space
 00168C D7C1C7D6E2E6C1D7           17340             +
 001694 0008/0008                  17341             +
 001698 900F D004/18AF       00004 17343             +
 USING  PAGOSWAP,R10
 00169E 50D0 C000/18CD       00000 17358             +
 0016A4 9680 C000      00000       17360             +
 USING  @PAGSWAP-72,R12
 AUSING (#OSWAP,@PAGSWAP+8)
 0016A8 41D0 C058            00058 17379             +
 0016AC 5860 0200            00200 17380    2511.              PAGAD RPAG
 USING  PZERO,R0
 DROP   PZERO,R0
 USING  MAT,R6
 0016B0 5860 600C            0000C 17414             +
 DROP   MAT,R6
 USING  PAGCB,R6
 0016B4                            17436    2512.              CLEAR #OSWAP
 0016B4 D701 C050 C050 00000 00000 17442             +
 0016BA 5870 C048            00000 17443    2513.              L     RPCB,@SWASB             Address space block addr
 USING  ASB,R7                     17444    2514.              WITH  (ASB,RPCB),BEGIN        |
 0016BE                            17458  1 2515.                IF    (ASBPASN,ZERO),'ABORT SWAP0INIT'
 0016BE D601 700E 700E 0000E 0000E 17468  1          +
 0016C4 4770 A060            016F8 17469  1          +
 USING  PZERO,R0
 0016C8 AC04 021B      0021B       17487  2          +
 0016CC 9680 021A      0021A       17493  2          +
 0016D0 50F0 021C            0021C 17494  2          +
 0016D4 58F0 0210            00210 17495  2          +
 0016D8 89F0 0010            00010 17496  2          +
 0016DC 88F0 0010            00010 17497  2          +
 0016E0 41F0 F000            00000 17498  2          +
 0016E4 AEFF 0006            00006 17499  2          +
 0016E8 E2E6C1D7F0C9D5C9           17500  1          +
 DROP   PZERO,R0
 0016F8 5870 7020            00020 17513  1 2516.                L     RPCB,ASBPAGB            |
 DROP   ASB,R7                     17514    2517.              END   ,                       |
 USING  ASBPCB,R7                  17522    2518.              WITH  (ASBPCB,RPCB)           |
1PAGESERV (PAGE00) (09:42) (22MAR04) Swap an address space out                                                              Page  122
0Current Usings:  (PAGCB,R6) (ASBPCB,R7) (PAGOSWAP,R10) (@PAGSWAP-72,R12) (@LOCKS-72,R13)
0Loc    Object Code    Addr1 Addr2  Stmt Lv Lineno    Source Statement           (Hibal 5, Asmedit 3.3)  HLASM R4.0  2004/03/22 09.42
+___    ______ ____    _____ _____  ____ __ ______    ______ _________
00016FC AC04 C050      00000       17535    2519.              PAGNTRY ASYNC,#OSPSWM,#OSLKFLG
 USING  @LOCKS-72,R13
 001700 D203 D048 7018 00000 00018 17555             +
 001706 58F0 602C/0DEF       0002C 17561             +
 00170C D200 C051 70B6 00001 000B6 17563             +
 001712 9240 70B6      000B6       17570             +
 001716 9180 7022      00022       17580             +
 00171A 47E0 A08A            01722 17581             +
 00171E 9280 70B6      000B6       17593             +
 001722 9120 7022      00022       17598    2520.              IF    PCBFSOUT,'ABORT PAGSWINV'        Already swapped out
 001726 47E0 A0C2            0175A 17608             +
 USING  PZERO,R0
 00172A AC04 021B      0021B       17626  1          +
 00172E 9680 021A      0021A       17632  1          +
 001732 50F0 021C            0021C 17633  1          +
 001736 58F0 0210            00210 17634  1          +
 00173A 89F0 0010            00010 17635  1          +
 00173E 88F0 0010            00010 17636  1          +
 001742 41F0 F000            00000 17637  1          +
 001746 AEFF 0006            00006 17638  1          +
 00174A D7C1C7E2E6C9D5E5           17639             +
 DROP   PZERO,R0
                                   17652    2521.
                                   17653    2522.          This will be a logical swap, so tell the dispatcher we're done,
                                   17654    2523.          and set the address space as out, logically, and with its
                                   17655    2524.          frames still in allocated
                                   17656    2525.
 00175A 9204 C04C      00004       17657    2526.              SET   @SWFOK                  Set as done - logically
 00175E 9620 7022      00022       17663    2527.              SET   PCBFSOUT                Now it is swapped out
 001762 9680 7023      00023       17669    2528.              SET   PCBFISOUT
                                   17675    2529.
                                   17676    2530.          Count frames in this swap set
                                   17677    2531.
 001766 4880 60BC            000BC 17678    2532.              LH    RM,PAGSEGP              Complete number of swap frames
 00176A 5E80 7038            00038 17679    2533.              AL    RM,PCBFCNT              | + non fixed frames
 00176E 5E80 7044            00044 17680    2534.              AL    RM,PCBPFCNT             |  + page table frames
 001772 4080 7064            00064 17681    2535.              STH   RM,PCBSWCNT
 001776                            17682    2536.              CLEAR PCBSWFS                 No frames stolen yet
 001776 D701 706A 706A 0006A 0006A 17688             +
                                   17689    2537.
                                   17690    2538.          One more swap out - requested and virtual
                                   17691    2539.
 00177C 4110 0001            00001 17692    2540.              INCR  RS,PAGMSORN             | one more swap requested
 001780 5E10 6258            00258 17696             +
 001784 5010 6258            00258 17697             +
 001788 4110 0001            00001 17698    2541.              INCR  RS,PAGMSOVN
 00178C 5E10 625C            0025C 17702             +
 001790 5010 625C            0025C 17703             +
                                   17704    2542.
                                   17705    2543.          One less user in memory
                                   17706    2544.
 001794 5820 60B0            000B0 17707    2545.              L     RA,PAGASIN
 001798                            17708    2546.              LOOP  BEGIN
 001798 1832                       17714  1 2547.                LR    RB,RA
1PAGESERV (PAGE00) (09:42) (22MAR04) Swap an address space out                                                              Page  123
0Current Usings:  (PAGCB,R6) (ASBPCB,R7) (PAGOSWAP,R10) (@PAGSWAP-72,R12) (@LOCKS-72,R13)
0Loc    Object Code    Addr1 Addr2  Stmt Lv Lineno    Source Statement           (Hibal 5, Asmedit 3.3)  HLASM R4.0  2004/03/22 09.42
+___    ______ ____    _____ _____  ____ __ ______    ______ _________
000179A 0630                       17715  1 2548.                DECR  RB
 00179C BA23 60B0            000B0 17717  1 2549.                CS    RA,RB,PAGASIN
 0017A0 4770 A100            01798 17718    2550.              UNTIL EQUAL,END
                                   17737    2551.
                                   17738    2552.          Set this up as a logical swap
                                   17739    2553.
 0017A4                            17740    2554.              LKOB  PAGSWAPL                Get swap resource lock
 0017A4 D203 D048 6040 00000 00040 17749             +
 0017AA 58F0 602C/0DEF       0002C 17755             +
 0017B0 9640 7023      00023       17757    2555.              SET   PCBFLOUT                Logically out
                                   17763    2556.
                                   17764    2557.          Add to list of logical swaps
                                   17765    2558.
 0017B4 4110 6070            00070 17766    2559.              LADD  PAGLASB,LA:ASBPCB,WR=RS Add to logical swaps
 0017B8 41E0 0001            00001 17797             +
 0017BC 5EE0 1008            00008 17798             +
 0017C0 50E0 1008            00008 17799             +
 0017C4 58E0 1004            00004 17806             +
 0017C8 5070 1004            00004 17812             +
 0017CC 5010 7000            00000 17813             +
 0017D0 50E0 7004            00004 17819             +
 0017D4 5070 E000            00000 17820             +
 0017D8 5840 6088            00088 17822    2560.              L     RJ,PAGFLS               |  and more logical frames
 0017DC 1E48                       17823    2561.              ALR   RJ,RM                   |
 0017DE 5040 6088            00088 17824    2562.              ST    RJ,PAGFLS               |
                                   17825    2563.
                                   17826    2564.          Compute paging function number - adding these frames
                                   17827    2565.
 0017E2 5820 6060            00060 17828    2566.              L     RA,PAGFTCNT             Compute paging funcion number
 0017E6 5830 60B0            000B0 17829    2567.              L     RB,PAGASIN              | reserved/address space
 0017EA 5930 ADC0            02458 17830    2568.              CEIL  RB,PFRESLIM             |  (up to a
 0017EE 47D0 A15E            017F6 17839             +
 0017F2 5830 ADC0            02458 17844             +
 0017F6 1F23                       17849    2569.              SLR   RA,RB                   |    limit)
 0017F8 5F20 60B4            000B4 17850    2570.              SL    RA,PAGFRES              |  this many "reserved"
 0017FC 1E24                       17851    2571.              ALR   RA,RJ                   |   and this many logical
 0017FE 58F0 0200            00200 17852    2572.              L     EPAR,MATPTR             |
 001802 5020 F0DC            000DC 17853    2573.              WITH  (MAT,EPAR),'ST RA,MATPAGFN'
 USING  MAT,R15
 DROP   MAT,R15
 001806                            17877    2574.              LKREL PAGSWAPL
 001806 D203 D048 6040 00000 00040 17886             +
 00180C 58F0 6030/0DEF       00030 17892             +
 001812 4310 70B6            000B6 17894    2575.              PAGXIT ASYNC,#OSPSWM,#OSLKFLG,WR=RS
 001816 D200 70B6 C051 000B6 00001 17898             +
 00181C 4210 C051            00001 17899             +
 001820 9180 C051      00001       17909             +
 001824 47E0 A1A4            0183C 17910             +
 001828 5850 6018            00018 17915  1          +
 USING  ASB,R5
 00182C 5850 5020            00020 17931  1          +
 DROP   ASB,R5
 DROP   ASBPCB,R7
 USING  ASBPCB,R5
1PAGESERV (PAGE00) (09:42) (22MAR04) Swap an address space out                                                              Page  124
0Current Usings:  (ASBPCB,R5) (PAGCB,R6) (PAGOSWAP,R10) (@PAGSWAP-72,R12) (@LOCKS-72,R13)
0Loc    Object Code    Addr1 Addr2  Stmt Lv Lineno    Source Statement           (Hibal 5, Asmedit 3.3)  HLASM R4.0  2004/03/22 09.42
+___    ______ ____    _____ _____  ____ __ ______    ______ _________
0001830 D203 D048 5018 00000 00018 17974  2          +
 001836 58F0 6030/0DEF       00030 17980             +
 USING  ASBPCB,R7
 DROP   ASBPCB,R5
 00183C 9140 C051      00001       18012             +
 001840 47E0 A1B8            01850 18013             +
 001844 D203 D048 7018 00000 00018 18027  1          +
 00184A 58F0 6030/0DEF       00030 18033             +
 001850 8000 C050      00000       18039             +
                                   18040    2576.
                                   18041    2577.          If we're low on frames, post the swap address space
                                   18042    2578.          Low is when we have more frames waiting to come in than
                                   18043    2579.          we have room in main store.
                                   18044    2580.
 001854 58F0 ADC4/0DEF       0245C 18045    2581.              ACALL MAKEROOM
 00185A 1808                       18052    2582.              LR    RVR,RM                  Return working set size
 00185C 981F C008            00008 18053    2583.              PEND  ,
 DROP   ASBPCB,R7
 DROP   PAGCB,R6
 DROP   @PAGSWAP-72,R12
 DROP   PAGOSWAP,R10
 001860 9680 C000/0B0E 00000       18078             +
 DROP   @LOCKS-72,R13
1PAGESERV (PAGE00) (09:42) (22MAR04) Make room routine - post swap address space                                            Page  125
0Loc    Object Code    Addr1 Addr2  Stmt Lv Lineno    Source Statement           (Hibal 5, Asmedit 3.3)  HLASM R4.0  2004/03/22 09.42
+___    ______ ____    _____ _____  ____ __ ______    ______ _________
0                                  18088    2585.
                                   18089    2586.
                                   18090    2587.       Make room.  If we're tight it means swapping someone out
                                   18091    2588.
                                   18092    2589.        Input -  None
                                   18093    2590.
                                   18094    2591.       Output -  None
                                   18095    2592.
                                   18096    2593.

0001866                            18098    2595.     MAKEROOM PROC  ,                       Paging room - post swap AS
 001866 D4C1D2C5D9D6D6D4           18105             +
 00186E 0000/0000                  18106             +
 001872 900F D004/18AF       00004 18108             +
 USING  MAKEROOM,R10
 001878 50D0 C000/18CD       00000 18123             +
 00187E 9680 C000      00000       18125             +
 001882 41D0 C048            00048 18126             +
 001886 5860 0200            00200 18127    2596.              PAGAD RPAG
 USING  PZERO,R0
 DROP   PZERO,R0
 USING  MAT,R6
 00188A 5860 600C            0000C 18161             +
 DROP   MAT,R6
 USING  PAGCB,R6
                                   18183    2597.
                                   18184    2598.          The items which contribute to the number of frames we need:
                                   18185    2599.          1) The current swap-in rate x for which there is a function
                                   18186    2600.             f(x) which determines the reserved frame count for this
                                   18187    2601.             level of activity. (PAGRESAMT)
                                   18188    2602.          2) Frames waiting to be swapped in (minus the number of frames
                                   18189    2603.             currently being swapped out)
                                   18190    2604.
 00188E 5850 6118            00118 18191    2605.              L     RK,PAGRESAMT            Reserve due to swap-in rate
 001892 5E50 60B4            000B4 18192    2606.              AL    RK,PAGFRES                plus other reserved frames
                                   18193    2607.
                                   18194    2608.          Pick the number of frames we need to swap in other waiting ASs
                                   18195    2609.
 001896 5890 60A8            000A8 18196    2610.              L     RN,PAGFWSI              Number we need to swap in
 00189A 5B90 60AC            000AC 18197    2611.              S     RN,PAGFSOIP             | + swap-out in progress
                                   18198    2612.
                                   18199    2613.          Compute the number of extra frames we need
                                   18200    2614.
 00189E 1E95                       18201    2615.              ALR   RN,RK                   Total frames needed
 0018A0 5B90 6060            00060 18202    2616.              S     RN,PAGFTCNT
                                   18203    2617.
                                   18204    2618.          If we need frames and there are logically swapped address
                                   18205    2619.          spaces, post the swap address space
                                   18206    2620.
 0018A4 1299/47D0 A056       018C8 18207    2621.              IF    ((RN,POS),AND,('LT RS,PAGLCNT',NZ)),BEGIN
 0018AA 5810 6078/1211       00078 18229             +
 0018B0 4780 A056            018C8 18231             +
 USING  @SIGNAL-72,R13             18236  1 2622.                SIGNL PAGSWECB,TYPE=AS        Post the Swap AS
 0018B4 D713 D048 D048 00000 00000 18254  1          +
 0018BA 4100 612C            0012C 18266  1          +
1PAGESERV (PAGE00) (09:42) (22MAR04) Make room routine - post swap address space                                            Page  126
0Current Usings:  (PAGCB,R6) (MAKEROOM,R10) (@SIGNAL-72,R13)
0Loc    Object Code    Addr1 Addr2  Stmt Lv Lineno    Source Statement           (Hibal 5, Asmedit 3.3)  HLASM R4.0  2004/03/22 09.42
+___    ______ ____    _____ _____  ____ __ ______    ______ _________
00018BE 5000 D050            00008 18271  1          +
 0018C2 58F0 ABEE/0DEF       02460 18274  1          +
 0018C8                            18276    2623.              END   ,
 0018C8 981F C008            00008 18280    2624.              PEND
 DROP   PAGCB,R6
 DROP   MAKEROOM,R10
 0018CC 9680 C000/0B0E 00000       18295             +
 DROP   @SIGNAL-72,R13
1PAGESERV (PAGE00) (09:42) (22MAR04) Swap address space - swap out logically swapped ASs                                    Page  127
0Loc    Object Code    Addr1 Addr2  Stmt Lv Lineno    Source Statement           (Hibal 5, Asmedit 3.3)  HLASM R4.0  2004/03/22 09.42
+___    ______ ____    _____ _____  ____ __ ______    ______ _________
0                                  18305    2626.     *NEST,1
                                   18306    2627.
                                   18307    2628.
                                   18308    2629.       Swap out address spaces if we're tight on room
                                   18309    2630.
                                   18310    2631.        Input - NONE
                                   18311    2632.
                                   18312    2633.       Output - NONE
                                   18313    2634.
                                   18314    2635.

0000000                00000 00002 18315    2636.     #PAGESWAP RECORD BEGIN
 000000                            18323  1 2637.     #PSSSF     DS    X                       Flag for Set Swap RC
 000001                            18324  1 2638.     #PSPSWM    DS    X                       PSW mask for disabling
 000002                00002 00002 18325    2639.              END   ,
00018D2                            18335    2641.     PAGESWAP PROC  ,#PAGESWAP              Swap-Address space routine
 0018D2 D7C1C7C5E2E6C1D7           18342             +
 0018DA 0000/0008                  18343             +
 0018DE 900F D004/18AF       00004 18345             +
 USING  PAGESWAP,R10
 0018E4 50D0 C000/18CD       00000 18360             +
 0018EA 9680 C000      00000       18362             +
 USING  #PAGESWAP-72,R12
 0018EE 41D0 C050            00050 18376             +
 0018F2 5860 0200            00200 18377    2642.              PAGAD RPAG
 USING  PZERO,R0
 DROP   PZERO,R0
 USING  MAT,R6
 0018F6 5860 600C            0000C 18411             +
 DROP   MAT,R6
 USING  PAGCB,R6
                                   18433    2643.
                                   18434    2644.          Set address space as non-swappable
                                   18435    2645.
 USING  @DISPSWP-72,R13            18436    2646.              PSET  @DISPSWP
 0018FA D703 D048 D048 00000 00000 18453             +
 001900 58F0 AB86/0DEF       02464 18454    2647.              VCALL DISPSHLD
                                   18458    2648.
                                   18459    2649.          Give this address space system-AS priority
                                   18460    2650.
 001906 58F0 AB8A/0DEF       02468 18461    2651.              VCALL ASSYSTSK
                                   18465    2652.
 00190C                            18466    2653.     PSWAIT   LOOP  BEGIN                   Main processing loop
                                   18473  1 2654.
                                   18474  1 2655.            Call the routine to wake up those who were waiting for a
                                   18475  1 2656.            resource
                                   18476  1 2657.
 00190C 58F0 AB8E/0DEF       0246C 18477  1 2658.                ACALL WAKELOOK
                                   18484  1 2659.
                                   18485  1 2660.            Wait for work
                                   18486  1 2661.
 DROP   @DISPSWP-72,R13            18487  1 2662.                AWAIT PAGSWECB,TYPE=AS
 USING  @AWAIT-72,R13
 001912 D704 D048 D048 00000 00000 18508  1          +
1PAGESERV (PAGE00) (09:42) (22MAR04) Swap address space - swap out logically swapped ASs                                    Page  128
0Current Usings:  (PAGCB,R6) (PAGESWAP,R10) (#PAGESWAP-72,R12) (@AWAIT-72,R13)
0Loc    Object Code    Addr1 Addr2  Stmt Lv Lineno    Source Statement           (Hibal 5, Asmedit 3.3)  HLASM R4.0  2004/03/22 09.42
+___    ______ ____    _____ _____  ____ __ ______    ______ _________
0001918 4100 612C            0012C 18520  1          +
 00191C 5000 D048            00000 18525  1          +
 001920 58F0 AB92/0DEF       02470 18528  1          +
                                   18530  1 2663.
                                   18531  1 2664.             The items which contribute to the number of frames we need:
                                   18532  1 2665.             1) The current swap-in rate x for which there is a function
                                   18533  1 2666.                f(x) which determines the reserved frame count for this
                                   18534  1 2667.                level of activity. (PAGRESAMT)
                                   18535  1 2668.             2) Frames waiting to be swapped in (minus the number of frames
                                   18536  1 2669.                currently being swapped out)
                                   18537  1 2670.
 001926 5850 6118            00118 18538  1 2671.                L     RK,PAGRESAMT            Reserve due to swap-in rate
 00192A 5E50 60B4            000B4 18539  1 2672.                AL    RK,PAGFRES                plus other reserved frames
                                   18540  1 2673.
                                   18541  1 2674.            Pick the number of frames we need to swap in other waiting ASs
                                   18542  1 2675.
 00192E 5890 60A8            000A8 18543  1 2676.                L     RN,PAGFWSI              Number we need to swap in
 001932 5B90 60AC            000AC 18544  1 2677.                S     RN,PAGFSOIP             | + swap-out in progress
                                   18545  1 2678.
                                   18546  1 2679.            Compute the number of extra frames we need
                                   18547  1 2680.
 001936 1E95                       18548  1 2681.                ALR   RN,RK                   Total frames needed
 001938 5B90 6060            00060 18549  1 2682.                S     RN,PAGFTCNT
 00193C 1299/47D0 A02E       0190C 18550  1 2683.                IF    (RN,NPOS),NEXT          Wait some more...
                                   18567  1 2684.     *
 001942 AC04 C049      00001       18568  1 2685.                SLKOB PAGSWAPL,#PSPSWM
 DROP   @AWAIT-72,R13
 USING  @LOCKS-72,R13
 001946 D203 D048 6040 00000 00040 18589  1          +
 00194C 58F0 602C/0DEF       0002C 18595  1          +
 001952 1299/47D0 A212       01AF0 18597  1 2686.     PSLOOP     WHILE (RN,POS),BEGIN          Send out until enough frames
                                   18614  2 2687.
                                   18615  2 2688.              Start sending out the Address spaces already in progress
                                   18616  2 2689.
 001958                            18617  2 2690.                  IF    (PAGLICNT,NZ),BEGIN     There are ASs in-progress
 001958 D603 6084 6084 00084 00084 18627  2          +
 00195E 4780 A09A            01978 18628  2          +
 DROP   @LOCKS-72,R13              18633  3 2691.                    PSET  @SWAPOUT
 USING  @SWAPOUT-72,R13
 001962 D703 D048 D048 00000 00000 18653  3          +
 001968 5090 D048            00000 18654  3 2692.                    PMOV  @SOAMT,(RN)
 00196C 41F0 A692/0DEF       01F70 18664  3 2693.                    LCALL SWAPOUT
 001972 1B90                       18673  3 2694.                    SR    RN,RVR                  Fewer needed
 001974 47D0 A212            01AF0 18674  3 2695.                    IF    NPOS,EXIT,PSLOOP
 001978                            18688  2 2696.                  END   ,                       OF There are ASs in-progress
                                   18692  2 2697.
                                   18693  2 2698.              We still need more room, so take from Logically swapped
                                   18694  2 2699.
 001978                            18695  2 2700.                  IF    (PAGLCNT,ZERO),EXIT,PSLOOP
 001978 D603 6078 6078 00078 00078 18705  2          +
 00197E 4780 A212            01AF0 18708  2          +
 001982 41E0 6070/1B00       00070 18714  2 2701.                  LREM  PAGLASB,WR=RS
 001988 58F0 E008            00008 18746  3          +
 00198C 4110 0001/1BF1       00001 18754  3          +
1PAGESERV (PAGE00) (09:42) (22MAR04) Swap address space - swap out logically swapped ASs                                    Page  129
0Current Usings:  (PAGCB,R6) (PAGESWAP,R10) (#PAGESWAP-72,R12) (@SWAPOUT-72,R13)
0Loc    Object Code    Addr1 Addr2  Stmt Lv Lineno    Source Statement           (Hibal 5, Asmedit 3.3)  HLASM R4.0  2004/03/22 09.42
+___    ______ ____    _____ _____  ____ __ ______    ______ _________
0001992 4740 A0CE            019AC 18765  3          +
 001996 50F0 E008            00008 18771  3          +
 00199A 58F0 E000/180F       00000 18778  3          +
 0019A0 58F0 F000            00000 18780  3          +
 0019A4 50E0 F004            00004 18781  3          +
 0019A8 50F0 E000            00000 18782  2          +
 0019AC 1870                       18787  2 2702.                  LR    RPCB,RVR
 USING  ASBPCB,R7                  18788  2 2703.                  WITH  (ASBPCB,RPCB)
 0019AE 9620 7023      00023       18801  2 2704.                  SET   PCBFLIP                 This AS is in progress
                                   18807  2 2705.
                                   18808  2 2706.              Try to prepare this AS for swapping out
                                   18809  2 2707.
 DROP   @SWAPOUT-72,R13            18810  2 2708.                  SLKRL PAGSWAPL,#PSPSWM
 USING  @LOCKS-72,R13
 0019B2 D203 D048 6040 00000 00040 18830  2          +
 0019B8 58F0 6030/0DEF       00030 18836  2          +
 0019BE 8000 C049      00001       18838  2          +
 DROP   @LOCKS-72,R13              18839  2 2709.                  PSET  @SETSWAP
 USING  @SETSWAP-72,R13
 0019C2 D704 D048 D048 00000 00000 18859  2          +
 0019C8 5070 D048            00000 18860  2 2710.                  PMOV  @SSPCB,LA:ASBPCB
 0019CC 41F0 A23C/0DEF       01B1A 18871  2 2711.                  LCALL SETSWAP
 0019D2                            18880  2 2712.                  PMOV  #PSSSF,@SSFLAG          Save RC from SetSwap
 0019D2 D200 C048 D04C 00000 00004 18884  2          +
 0019D8 AC04 C049      00001       18885  2 2713.                  SLKOB PAGSWAPL,#PSPSWM
 DROP   @SETSWAP-72,R13
 USING  @LOCKS-72,R13
 0019DC D203 D048 6040 00000 00040 18906  2          +
 0019E2 58F0 602C/0DEF       0002C 18912  2          +
                                   18914  2 2714.
                                   18915  2 2715.
                                   18916  2 2716.       Swap in not requested
                                   18917  2 2717.
                                          2
00019E8 9110 7023      00023       18918  2 2718.                  IF    ~PCBFRSIN,BEGIN         Swap in not requested
 0019EC 4710 A1A0            01A7E 18928  2          +
 0019F0 9504 C048      00000       18933  3 2719.                    IF    #PSSSF.@SWFOK,BEGIN     Swap setup OK
 0019F4 4770 A154            01A32 18943  3          +
 0019F8 94BF 7023      00023       18948  4 2720.                      CLEAR PCBFLOUT                Not logically swapped anymore
 0019FC 4110 607C            0007C 18955  4 2721.                      LADD  PAGLIP,LA:ASBPCB,WR=RS  One more AS in-progress
 001A00 41E0 0001            00001 18986  4          +
 001A04 5EE0 1008            00008 18987  4          +
 001A08 50E0 1008            00008 18988  4          +
 001A0C 58E0 1004            00004 18995  4          +
 001A10 5070 1004            00004 19001  4          +
 001A14 5010 7000            00000 19002  4          +
 001A18 50E0 7004            00004 19008  4          +
 001A1C 5070 E000            00000 19009  4          +
 DROP   @LOCKS-72,R13              19011  4 2722.                      PSET  @NVLDASN                Invalidate the ASN
 USING  @NVLDASN-72,R13
 001A20 D704 D048 D048 00000 00000 19031  4          +
 001A26                            19032  4 2723.                      PMOV  @IAASB,PCBASB           |
 001A26 D203 D048 700C 00000 0000C 19036  4          +
1PAGESERV (PAGE00) (09:42) (22MAR04) Swap address space - swap out logically swapped ASs                                    Page  130
0Current Usings:  (PAGCB,R6) (ASBPCB,R7) (PAGESWAP,R10) (#PAGESWAP-72,R12) (@NVLDASN-72,R13)
0Loc    Object Code    Addr1 Addr2  Stmt Lv Lineno    Source Statement           (Hibal 5, Asmedit 3.3)  HLASM R4.0  2004/03/22 09.42
+___    ______ ____    _____ _____  ____ __ ______    ______ _________
0001A2C 58F0 AB96/0DEF       02474 19037  4 2724.                      ACALL NVALDASN                |
 001A32                            19044  3 2725.                    END   ,                       OF Swap setup OK
                                   19048  3 2726.
                                   19049  3 2727.                Couldn't prepare this AS, so we queue it back up as logically
                                   19050  3 2728.                swapped and then we're done.
                                   19051  3 2729.
 001A32 A158           01A32 019F6 19052  3 2730.                    ELSE  BEGIN                   Couldn't set up swap
 001A32 47F0 A1A0            01A7E 19057  3          +
 001A36 94DF 7023      00023       19063  4 2731.                      CLEAR PCBFLIP                 Not in-progress anymore
 001A3A 4110 0001            00001 19070  4 2732.                      INCR  RS,PAGMFSO              Count failed swap-outs
 001A3E 5E10 62A8            002A8 19074  4          +
 001A42 5010 62A8            002A8 19075  4          +
 001A46 4110 6070            00070 19076  4 2733.                      LADD  PAGLASB,LA:ASBPCB,WR=RS
 001A4A 41E0 0001            00001 19107  4          +
 001A4E 5EE0 1008            00008 19108  4          +
 001A52 50E0 1008            00008 19109  4          +
 001A56 58E0 1004            00004 19116  4          +
 001A5A 5070 1004            00004 19122  4          +
 001A5E 5010 7000            00000 19123  4          +
 001A62 50E0 7004            00004 19129  4          +
 001A66 5070 E000            00000 19130  4          +
 DROP   @NVLDASN-72,R13            19132  4 2734.                      SLKRL PAGSWAPL,#PSPSWM
 USING  @LOCKS-72,R13
 001A6A D203 D048 6040 00000 00040 19152  4          +
 001A70 58F0 6030/0DEF       00030 19158  4          +
 001A76 8000 C049      00001       19160  4          +
 001A7A 47F0 A02E            0190C 19161  4 2735.                      NEXT  PSWAIT
 001A7E                            19164  3 2736.                    END   ,                       OF Couldn't set up swap
 001A7E                            19168  2 2737.                  END   ,                       OF Swap in not requested
                                   19172  2 2738.
                                   19173  2 2739.
                                   19174  2 2740.       Swap-in requested
                                   19175  2 2741.
                                          2
0001A7E A1A4           01A7E 019EE 19176  2 2742.                  ELSE  BEGIN                   Swap in requested
 001A7E 47F0 A20E            01AEC 19181  2          +
                                   19187  3 2743.
                                   19188  3 2744.                While we were trying to set up for a swap out, there was a
                                   19189  3 2745.                moment when we didn't hold the swap lock and this
                                   19190  3 2746.                address space was marked as being in transition between
                                   19191  3 2747.                logically swapped, and in-progress.  If this address space
                                   19192  3 2748.                was requested to be brought back into core during that time,
                                   19193  3 2749.                we need to do it now.
                                   19194  3 2750.
 001A82 5810 6088            00088 19195  3 2751.                    L     RS,PAGFLS               Fewer logically
 001A86 4B10 7064            00064 19196  3 2752.                    SH    RS,PCBSWCNT               swapped
 001A8A 5010 6088            00088 19197  3 2753.                    ST    RS,PAGFLS                   frames
 001A8E 58F0 0200            00200 19198  3 2754.                    L     EPAR,MATPTR             Update
 USING  MAT,R15                    19199  3 2755.                    WITH  (MAT,EPAR),BEGIN          paging
 001A92 5810 F0DC            000DC 19213  4 2756.                      L     RS,MATPAGFN                 function
 001A96 4B10 7064            00064 19214  4 2757.                      SH    RS,PCBSWCNT                   number
 001A9A 5010 F0DC            000DC 19215  4 2758.                      ST    RS,MATPAGFN
 DROP   MAT,R15                    19216  3 2759.                    END   ,                       OF Update paging function num
1PAGESERV (PAGE00) (09:42) (22MAR04) Swap address space - swap out logically swapped ASs                                    Page  131
0Current Usings:  (PAGCB,R6) (ASBPCB,R7) (PAGESWAP,R10) (#PAGESWAP-72,R12) (@LOCKS-72,R13)
0Loc    Object Code    Addr1 Addr2  Stmt Lv Lineno    Source Statement           (Hibal 5, Asmedit 3.3)  HLASM R4.0  2004/03/22 09.42
+___    ______ ____    _____ _____  ____ __ ______    ______ _________
0001A9E                            19224  3 2760.                    SLKRL PAGSWAPL,#PSPSWM
 001A9E D203 D048 6040 00000 00040 19234  3          +
 001AA4 58F0 6030/0DEF       00030 19240  3          +
 001AAA 8000 C049      00001       19242  3          +
                                   19243  3 2761.
                                   19244  3 2762.                Now we have released the swap lock, and can request services
                                   19245  3 2763.                of the dispatcher again.  We will notify it of any address
                                   19246  3 2764.                spaces that are now considered "back in"
                                   19247  3 2765.
                                   19248  3 2766.                Do work to bring AS back in
                                   19249  3 2767.
 DROP   @LOCKS-72,R13              19250  3 2768.                    PSET  @SWDONE                 Bring in this logical one
 USING  @SWDONE-72,R13
 001AAE D703 D048 D048 00000 00000 19270  3          +
 001AB4 5070 D048            00000 19271  3 2769.                    PMOV  @SWDPCB,LA:ASBPCB       |
 001AB8 58F0 AB9A/0DEF       02478 19282  3 2770.                    ACALL SWAPILOG
                                   19289  3 2771.
                                   19290  3 2772.                Notify the dispatcher that this AS is now in core again
                                   19291  3 2773.
 DROP   @SWDONE-72,R13             19292  3 2774.                    PSET  @DISPSIOC
 USING  @DISPSIOC-72,R13
 001ABE D703 D048 D048 00000 00000 19312  3          +
 001AC4                            19313  3 2775.                    PMOV  @DSIOASB,PCBASB
 001AC4 D203 D048 700C 00000 0000C 19317  3          +
 001ACA 58F0 AB9E/0DEF       0247C 19318  3 2776.                    VCALL DISPSIOC
 001AD0 9504 C048      00000       19322  3 2777.                    IF    ~#PSSSF.@SWFOK,'NEXT PSWAIT'
 001AD4 4780 A1FE            01ADC 19332  3          +
 001AD8 47F0 A02E            0190C 19340  3          +
 001ADC AC04 C049      00001       19345  3 2778.                    SLKOB PAGSWAPL,#PSPSWM
 DROP   @DISPSIOC-72,R13
 USING  @LOCKS-72,R13
 001AE0 D203 D048 6040 00000 00040 19366  3          +
 001AE6 58F0 602C/0DEF       0002C 19372  3          +
 001AEC                            19374  2 2779.                  END   ,                       OF Swap in requested
 001AEC 47F0 A074            01952 19378  1 2780.                END   ,                       OF Send out until enough frames
 DROP   ASBPCB,R7
 001AF0                            19388  1 2781.                SLKRL PAGSWAPL,#PSPSWM
 001AF0 D203 D048 6040 00000 00040 19398  1          +
 001AF6 58F0 6030/0DEF       00030 19404  1          +
 001AFC 8000 C049      00001       19406  1          +
 001B00 47F0 A02E            0190C 19407    2782.              END   ,                       OF Main processing loop
 001B04 981F C008            00008 19412    2783.              PEND  ,
 DROP   PAGCB,R6
 DROP   #PAGESWAP-72,R12
 DROP   PAGESWAP,R10
 001B08 9680 C000/0B0E 00000       19432             +
 DROP   @LOCKS-72,R13
                                   19441    2784.     *NEST,2
1PAGESERV (PAGE00) (09:42) (22MAR04) Set up an address space to be swapped                                                  Page  132
0Loc    Object Code    Addr1 Addr2  Stmt Lv Lineno    Source Statement           (Hibal 5, Asmedit 3.3)  HLASM R4.0  2004/03/22 09.42
+___    ______ ____    _____ _____  ____ __ ______    ______ _________
0                                  19443    2786.
                                   19444    2787.
                                   19445    2788.
                                   19446    2789.                  Set up an address space to be swapped
                                   19447    2790.       Swap frames are put into the swap control block in a specific
                                   19448    2791.       order.  Segment table frame(s), then page table frames, then
                                   19449    2792.       other non-fixed frames.
                                   19450    2793.
                                   19451    2794.        Input -    @SETSWAP
                                   19452    2795.
                                   19453    2796.       Output -    @SSFLAG indicates success or failure of setup
                                   19454    2797.
                                   19455    2798.

0000000                00000 00016 19456    2799.     #SSWAP   RECORD BEGIN                  Local work for PAGSWAP
 000000                            19464  1 2800.     #SSDBAD    DS    A                       Descriptor block addr
 000004                            19465  1 2801.     #SSSLNXT   DS    A                       Next slot in descriptor block
 000008                            19466  1 2802.     #SSSLNXV   DS    A                       | and aux block
 00000C                            19467  1 2803.     #SSNXDB    DS    A                       Next descriptor block
                                   19468  1 2804.     #ADPARM    EQU   #SSDBAD,*-#SSDBAD
 000010                            19469  1 2805.     #SSCLAST   DS    A                       Last I/O cell address
 000014                            19470  1 2806.     #SSPSWM    DS    X                       PSW mask for disabling
 000015                            19471  1 2807.     #SSLKFLG   DS    X                       Locks for this PCB
 000016                00016 00016 19472    2808.              END   ,
0                                  19482    2810.              REGCH (RPCB,RY),(RPAG,RX),(RCPCB,RK)
 001B0E                            19483    2811.     SETSWAP  PROC  @SETSWAP,#SSWAP ,SCOPE=GLOBAL    Swap an address space
 001B0E E2C5E3E2E6C1D740           19490             +
 001B16 0008/0018                  19491             +
 001B1A 900F D004/18AF       00004 19493             +
 USING  SETSWAP,R10
 001B20 50D0 C000/18CD       00000 19508             +
 001B26 9680 C000      00000       19510             +
 USING  @SETSWAP-72,R12
 AUSING (#SSWAP,@SETSWAP+8)
 001B2A 41D0 C068            00068 19529             +
 001B2E 5860 0200            00200 19530    2812.              PAGAD RPAG
 USING  PZERO,R0
 DROP   PZERO,R0
 USING  MAT,R6
 001B32 5860 600C            0000C 19564             +
 DROP   MAT,R6
 USING  PAGCB,R6
 001B36                            19586    2813.              CLEAR #SSWAP
 001B36 D715 C050 C050 00000 00000 19592             +
 001B3C 5870 C048            00000 19593    2814.              L     RPCB,@SSPCB             Address space block addr
 USING  ASBPCB,R7                  19594    2815.              WITH  (ASBPCB,RPCB)           |
 001B40 9204 C04C      00004       19607    2816.              SET   @SSFLAG.@SWFOK          Swap setup OK
 001B44                            19613    2817.     PAGSWVAL BEGIN ,                       Set as swap in progress
1PAGESERV (PAGE00) (09:42) (22MAR04) Set up an address space to be swapped                                                  Page  133
0Current Usings:  (PAGCB,R6) (ASBPCB,R7) (SETSWAP,R10) (@SETSWAP-72,R12)
0Loc    Object Code    Addr1 Addr2  Stmt Lv Lineno    Source Statement           (Hibal 5, Asmedit 3.3)  HLASM R4.0  2004/03/22 09.42
+___    ______ ____    _____ _____  ____ __ ______    ______ _________
0                                  19618  1 2818.
                                   19619  1 2819.            First we must allocate swap control blocks and external frames
                                   19620  1 2820.            for the I/O.
                                   19621  1 2821.            Here we figure out how many swap control blocks we need.
                                   19622  1 2822.
 001B44 4810 7064            00064 19623  1 2823.                PMOV  (RS),PCBSWCNT           Size of working set
 001B48 4850 6180            00180 19630  1 2824.                LH    RK,PAGSWXN              Compute # swap CBs
 001B4C 1E15                       19631  1 2825.                ALR   RS,RK                   |
 001B4E 0610                       19632  1 2826.                DECR  RS                      |
 001B50 1B00                       19634  1 2827.                CLEAR RVR                     |
 001B52 1D05                       19638  1 2828.                DR    RVR,RK                  |
 001B54 4010 7068            00068 19639  1 2829.                PMOV  PCBSWCBN,(RS)           Number of cells
 USING  @CELLGET-72,R13            19649  1 2830.                CELLGET (RS),TYPE=SWAP        Get swap CB
 001B58 D70B D048 D048 00000 00000 19667  1          +
 001B5E 4100 615C            0015C 19679  1          +
 001B62 5000 D048            00000 19684  1          +
 001B66 5010 D04C            00004 19694  1          +
 001B6A 58F0 A966/0DEF       02480 19700  1          +
                                   19702  1 2831.
                                   19703  1 2832.            Control block allocation failed.  Return unsuccessfully.
                                   19704  1 2833.
 001B70 1290/4770 A064       01B7E 19705  1 2834.                IF    ('LTR RN,RVR',Z),BEGIN  | No control blocks avail
 001B76 9208 C04C      00004       19718  2 2835.                  SET   @SSFLAG.@SWFWAIT        |  we'll have to wait on this
 001B7A 47F0 A228            01D42 19724  2 2836.                  EXIT  PAGSWVAL                |
 001B7E                            19727  1 2837.                END   ,                       OF Get swap CB
 USING  PGDSWAP,R9                 19731  1 2838.                WITH  (PGDSWAP,RN)            Swap descriptor addr
 AUSING (PSCPFX,PGDSWPFX)          19744  1 2839.                WITH  (PSCPFX,PGDSWPFX)
 AUSING (#SWPDO,PGDSWP)            19751  1 2840.                WITH  (#SWPDO,PGDSWP)
                                   19758  1 2841.
                                   19759  1 2842.            Setup master swap control block for AS
                                   19760  1 2843.
 001B7E 5090 7060            00060 19761  1 2844.                PMOV  PCBSWCB,LA:PGDSWAP      Save PCB's swap CB addr
 001B82                            19772  1 2845.                PMOV  #SSCLAST,@CGLAST         and last cell address
 001B82 D203 C060 D050 00010 00008 19776  1          +
 001B88                            19777  1 2846.                PMOV  PCBSWPCT,PCBPFCNT         num of page table frames
 001B88 D201 7066 7046 00066 00046 19781  1          +
                                   19782  1 2847.
                                   19783  1 2848.
                                   19784  1 2849.       Initialize the control blocks
                                   19785  1 2850.
                                          1
0001B8E 5810 C060            00010 19786  1 2851.                L     RS,#SSCLAST
 USING  LAST.PGDSWAP,R1            19787  1 2852.                WITH  (PGDSWAP,RS),LABEL=LAST,BEGIN
 AUSING (LSTPFX.PSCPFX,LAST.PGDSWP 19796  2 2853.                  WITH  (PSCPFX,LAST.PGDSWPFX),LABEL=LSTPFX
 001B92                            19803  2 2854.                  CLEAR LSTPFX.PSCFP            No forward link on last
 001B92 D703 1000 1000 00000 00000 19809  2          +
 DROP   LAST.PGDSWAP,R1            19810  1 2855.                END   ,
                                   19821  1 2856.
                                   19822  1 2857.            Add all control blocks to local list
                                   19823  1 2858.
 001B98 4820 7068            00068 19824  1 2859.                PMOV  (RA),PCBSWCBN           Number of CBs
 001B9C                            19831  1 2860.                LOOP  BEGIN                   Link all CBs
 001B9C 5840 9000            00000 19837  2 2861.                  L     RJ,PSCFP                Forward link
1PAGESERV (PAGE00) (09:42) (22MAR04) Set up an address space to be swapped                                                  Page  134
0Current Usings:  (PAGCB,R6) (ASBPCB,R7) (PGDSWAP,R9) (SETSWAP,R10) (@SETSWAP-72,R12) (@CELLGET-72,R13)
0Loc    Object Code    Addr1 Addr2  Stmt Lv Lineno    Source Statement           (Hibal 5, Asmedit 3.3)  HLASM R4.0  2004/03/22 09.42
+___    ______ ____    _____ _____  ____ __ ______    ______ _________
0001BA0 5040 9018            00018 19838  2 2862.                  ST    RJ,PGDSWLNK
 001BA4 4110 706C            0006C 19839  2 2863.                  LADD  PCBSWIN,LA:PGDSWAP,WR=RS
 001BA8 41E0 0001            00001 19870  2          +
 001BAC 5EE0 1008            00008 19871  2          +
 001BB0 50E0 1008            00008 19872  2          +
 001BB4 58E0 1004            00004 19879  2          +
 001BB8 5090 1004            00004 19885  2          +
 001BBC 5010 9000            00000 19886  2          +
 001BC0 50E0 9004            00004 19892  2          +
 001BC4 5090 E000            00000 19893  2          +
 001BC8 1894                       19895  2 2864.                  LR    RN,RJ
 001BCA 4620 A082            01B9C 19896  1 2865.                UNTIL (BCT,RA),END
                                   19906  1 2866.
                                   19907  1 2867.            Get external page frames
                                   19908  1 2868.
 001BCE 5890 7060            00060 19909  1 2869.                L     RN,PCBSWCB              First CB
 001BD2 4820 7068            00068 19910  1 2870.                PMOV  (RA),PCBSWCBN             Number of CBs
 001BD6 4840 7064            00064 19917  1 2871.                PMOV  (RJ),PCBSWCNT               and number of frames
 001BDA                            19924  1 2872.                LOOP  BEGIN                   Fill in all CBs
 DROP   @CELLGET-72,R13            19930  2 2873.                  PSET  @XPGET                  Get pages
 USING  @XPGET-72,R13
 001BDA D710 D048 D048 00000 00000 19950  2          +
 001BE0 4100 0001            00001 19951  2 2874.                  PMOV  @XPCNT,LA:1             | number of swap groups
 001BE4 5000 D048            00000 19967  2          +
 001BE8 58F0 A96A/0DEF       02484 19968  2 2875.                  ACALL SWPGET                  |
 001BEE 9180 D058      00010       19975  2 2876.                  IF    ~@XPOK,DOSXPF           Block allocation failed
 001BF2 47E0 A13E            01C58 19987  2          +
 001BF6 5000 9030            00004 19993  2 2877.                  ST    RVR,#SWPBLK             Start block of swap set
 001BFA                            19994  2 2878.                  PMOV  PSCDEV,@XPDSDES           and device descriptor
 001BFA D203 9010 D054 00010 0000C 19998  2          +
 001C00 4850 6180            00180 19999  2 2879.                  LH    RK,PAGSWXN              Frames in this extent
 001C04 1945/47B0 A0F2       01C0C 20000  2 2880.                  STMIN RJ,RK                   |
 001C0A 1854                       20006  2          +
 001C0C 4050 9038            0000C 20007  2 2881.                  STH   RK,#SWPCNT              |
 001C10 D203 9014 700C 00014 0000C 20008  2 2882.                  MVC   PSCASB,PCBASB           Setup -  ASB in control
 001C16 92C0 9028      00028       20009  2 2883.                  SET   (PGDSFLOUT+PGDSFFALLO,EQ)
 001C1A D203 902C A96E 00000 02488 20019  2 2884.                  MVC   #SWPDCMD,=A(#SWCWRIT)   Action code
 001C20 B110 903C            0003C 20020  2 2885.                  LRA   RS,PGDSWNXT             Store extent RA in cb
 001C24 5010 9034            00008 20021  2 2886.                  ST    RS,#SWPLIST             |
 USING  LHEAD,R1                   20022  2 2887.                  WITH  (LHEAD,RS),BEGIN        Set up page frame list
 001C28 4110 901C            0001C 20036  3 2888.                    LA    RS,PGDSWFRA
 001C2C 5010 1000            00000 20037  3 2889.                    ST    RS,LHFP                 |
 001C30 5010 1004            00004 20038  3 2890.                    ST    RS,LHBP                 |
 001C34                            20039  3 2891.                    CLEAR LHCNT                   |
 001C34 D703 1008 1008 00008 00008 20045  3          +
 DROP   LHEAD,R1                   20046  2 2892.                  END   ,                       OF Set up page frame list
                                   20054  2 2893.                  REGCH (RS,R1),(RVR,R0),(RAR,R14),(EPAR,R15)
 001C3A 48F0 617E            0017E 20055  2 2894.                  LH    EPAR,PAGSWXTL           Clear channel pgm area
 001C3E 41F0 F004            00004 20056  2 2895.                  LA    EPAR,@EPAR+L'PGDSWNXT   |
 001C42 41E0 903C            0003C 20057  2 2896.                  LA    RAR,PGDSWNXT            |
 001C46 1B11                       20058  2 2897.                  CLEAR RS                      |
 001C48 0EE0                       20062  2 2898.                  MVCL  RAR,RVR                 |
1PAGESERV (PAGE00) (09:42) (22MAR04) Set up an address space to be swapped                                                  Page  135
0Current Usings:  (PAGCB,R6) (ASBPCB,R7) (PGDSWAP,R9) (SETSWAP,R10) (@SETSWAP-72,R12) (@XPGET-72,R13)
0Loc    Object Code    Addr1 Addr2  Stmt Lv Lineno    Source Statement           (Hibal 5, Asmedit 3.3)  HLASM R4.0  2004/03/22 09.42
+___    ______ ____    _____ _____  ____ __ ______    ______ _________
0                                  20063  2 2899.
                                   20064  2 2900.              Link to next CB
                                   20065  2 2901.
 001C4A 1B45                       20066  2 2902.                  SR    RJ,RK                   Blocks to go
 001C4C 5890 9018            00018 20067  2 2903.                  L     RN,PGDSWLNK             Next CB
 001C50 4620 A0C0            01BDA 20068  1 2904.                UNTIL (BCT,RA),END            OF Fill in all CBs
 001C54 47F0 A1C6            01CE0 20078  1 2905.                IF    FALSE,BEGIN             Branch around error code
 001C58                            20089  2 2906.     DOSXPF       LABEL ,
 001C58 5830 7074/1B00       00074 20091  2 2907.                  LREMALL PCBSWIN,LAST=(RN),COUNT=(RB),WR=RS
 001C5E 1233/4780 A162       01C7C 20120  2          +
 001C64 5000 7074            00074 20126  3          +
 001C68 5800 706C            0006C 20134  3          +
 001C6C 5890 7070            00070 20142  3          +
 001C70 4110 706C            0006C 20152  3          +
 001C74 5010 1000            00000 20153  3          +
 001C78 5010 1004            00004 20154  2          +
 001C7C 1890                       20159  2 2908.                  LR    RN,RVR                  Start w/ first swap CB
 001C7E 1322                       20160  2 2909.                  LCR   RA,RA                     and those w/ ext frames
 001C80 1A23                       20161  2 2910.                  AR    RA,RB
 001C82                            20162  2 2911.                  LOOP  BEGIN                   Free things up
 001C82 1222/47D0 A18E       01CA8 20168  3 2912.                    IF    (RA,POS),BEGIN          External frame to free
                                   20182  4 2913.
                                   20183  4 2914.                  Free external swap group
                                   20184  4 2915.
 DROP   @XPGET-72,R13              20185  4 2916.                      PSET  @XPREL
 USING  @XPREL-72,R13
 001C88 D70B D048 D048 00000 00000 20205  4          +
 001C8E                            20206  4 2917.                      PMOV  @XPRLBLK,#SWPBLK        External block number
 001C8E D203 D048 9030 00000 00004 20210  4          +
 001C94 4100 0001            00001 20211  4 2918.                      PMOV  @XPRNUM,LA:1            Free 1 cluster at a time
 001C98 5000 D04C            00004 20227  4          +
 001C9C                            20228  4 2919.                      PMOV  @XPRCB,PSCDEV           Device ID
 001C9C D203 D050 9010 00008 00010 20232  4          +
 001CA2 58F0 A972/0DEF       0248C 20233  4 2920.                      ACALL SWPREL
 001CA8                            20240  3 2921.                    END   ,                       OF External frame to free
                                   20244  3 2922.
                                   20245  3 2923.                Free I/O cell
                                   20246  3 2924.
 001CA8 5880 9000            00000 20247  3 2925.                    L     RM,PSCFP                Link to next CB
 DROP   @XPREL-72,R13              20248  3 2926.                    CELLFREE LA:PGDSWAP,TYPE=SWAP
 USING  @CELLFREE-72,R13
 001CAC D70F D048 D048 00000 00000 20269  3          +
 001CB2 4100 615C            0015C 20281  3          +
 001CB6 5000 D048            00000 20286  3          +
 001CBA 5090 D04C            00004 20297  3          +
 001CBE 5090 D050            00008 20308  3          +
 001CC2 4100 0001            00001 20320  3          +
 001CC6 5000 D054            0000C 20325  3          +
 001CCA 58F0 A976/0DEF       02490 20331  3          +
 001CD0 1898                       20333  3 2927.                    LR    RN,RM
 001CD2 0620                       20334  3 2928.                    DECR  RA
 001CD4 4630 A168            01C82 20336  2 2929.                  UNTIL (BCT,RB),END            OF Free things up
 001CD8 9208 C04C      00004       20346  2 2930.                  SET   @SSFLAG.@SWFWAIT        Must wait and try again
 001CDC 47F0 A228            01D42 20352  2 2931.                  EXIT  PAGSWVAL                |
1PAGESERV (PAGE00) (09:42) (22MAR04) Set up an address space to be swapped                                                  Page  136
0Current Usings:  (PAGCB,R6) (ASBPCB,R7) (PGDSWAP,R9) (SETSWAP,R10) (@SETSWAP-72,R12) (@CELLFREE-72,R13)
0Loc    Object Code    Addr1 Addr2  Stmt Lv Lineno    Source Statement           (Hibal 5, Asmedit 3.3)  HLASM R4.0  2004/03/22 09.42
+___    ______ ____    _____ _____  ____ __ ______    ______ _________
0001CE0                            20355  1 2932.                END   ,                       OF Branch around error code
                                   20359  1 2933.
                                   20360  1 2934.            Count largest working set
                                   20361  1 2935.
 001CE0 4810 7064            00064 20362  1 2936.                PMOV  (RS),PCBSWCNT           Track largest swap
 001CE4 5910 6288            00288 20369  1 2937.                STMAX RS,PAGMSMAX             |
 001CE8 47D0 A1D6            01CF0 20374  1          +
 001CEC 5010 6288            00288 20375  1          +
                                   20376  1 2938.
 001CF0 5890 7060            00060 20377  1 2939.                L     RN,PCBSWCB              Back to master CB
 001CF4 9608 9028      00028       20378  1 2940.                SET   PGDSFSGT                This CB contains Seg tbl
                                   20384  1 2941.
                                   20385  1 2942.            Set up stack area to add frames to swap control blocks
                                   20386  1 2943.
 001CF8 5090 C050            00000 20387  1 2944.                PMOV  #SSDBAD,LA:PGDSWAP      First extent addr
 001CFC 4120 9040            00040 20398  1 2945.                LA    RA,PGDSWEXT             First elements in swap list
 001D00 4830 617C            0017C 20399  1 2946.                LH    RB,PAGSWXL              |
 001D04 4132 3000            00000 20400  1 2947.                LA    RB,@RB(RA)              | and virtual addresses
 001D08 9023 C054            00004 20401  1 2948.                STM   RA,RB,#SSSLNXT          |
                                   20402  1 2949.
1PAGESERV (PAGE00) (09:42) (22MAR04) Set up an address space to be swapped                                                  Page  137
0Current Usings:  (PAGCB,R6) (ASBPCB,R7) (PGDSWAP,R9) (SETSWAP,R10) (@SETSWAP-72,R12) (@CELLFREE-72,R13)
0Loc    Object Code    Addr1 Addr2  Stmt Lv Lineno    Source Statement           (Hibal 5, Asmedit 3.3)  HLASM R4.0  2004/03/22 09.42
+___    ______ ____    _____ _____  ____ __ ______    ______ _________
0                                  20404  1 2951.
                                   20405  1 2952.
                                   20406  1 2953.       Set up swap out control block - this means adding frame pointers
                                   20407  1 2954.         Add segment table frame(s), then page table frames, then the
                                   20408  1 2955.         unfixed frames to the swapped frames list.
                                   20409  1 2956.
                                          1
0001D0C 4120 000C            0000C 20410  1 2957.                LA    RA,L'LHEAD              Increment
 001D10 1322                       20411  1 2958.                LCR   RA,RA                   | negative
 001D12 4130 702F            0002F 20412  1 2959.                LA    RB,PCBUFLH-1            Unfixed frames list - last
 001D16 4140 7048            00048 20413  1 2960.                LA    RJ,PCBSFLH              Segment frames list - first
 USING  LHEAD,R4                   20414  1 2961.                WITH  (LHEAD,RJ),BEGIN
 DROP   @CELLFREE-72,R13           20428  2 2962.     SWADLOOP     PSET  @ADDSWAP
 USING  @ADDSWAP-72,R13
 001D1A D707 D048 D048 00000 00000 20449  2          +
 001D20 5040 D048            00000 20450  2 2963.                  PMOV  @ASLHEAD,LA:LHEAD
 001D24 4100 C050            00000 20461  2 2964.                  PMOV  @ASPARM,LA:#ADPARM
 001D28 5000 D04C            00004 20477  2          +
 001D2C 41F0 A26E/0DEF       01D88 20478  2 2965.                  LCALL ADDSWAP
 001D32 8642 A200            01D1A 20487  2 2966.                  BXH   RJ,RA,SWADLOOP
 DROP   LHEAD,R4                   20488  1 2967.                END   ,
                                   20496  1 2968.
                                   20497  1 2969.            Now mark the last frame entry as the end of the list
                                   20498  1 2970.
 001D36 5810 C054            00004 20499  1 2971.                L     RS,#SSSLNXT             Mark last frame addr as last
 001D3A 4B10 A98A            024A4 20500  1 2972.                SH    RS,=Y(L'PGDSLIST)       | this is now the last
 001D3E 9680 1000      00000       20501  1 2973.                WITH  (PGDSLIST,RS),'SET PGDSLAX'
 USING  PGDSLIST,R1
 DROP   PGDSLIST,R1
 DROP   PGDSWAP,R9                 20530    2974.              END   ,                       OF Setting swap in progress
 001D42 981F C008            00008 20539    2975.              PEND  ,
 DROP   ASBPCB,R7
 DROP   PAGCB,R6
 DROP   @SETSWAP-72,R12
 DROP   SETSWAP,R10
 001D46 9680 C000/0B0E 00000       20564             +
 DROP   @ADDSWAP-72,R13
0001D4C AC04 021B      0021B       20574    2977.     PAGOSOUT ABORT PAGSWINV                Already swapped out
 USING  PZERO,R0
 001D50 9680 021A      0021A       20593             +
 001D54 50F0 021C            0021C 20594             +
 001D58 58F0 0210            00210 20595             +
 001D5C 89F0 0010            00010 20596             +
 001D60 88F0 0010            00010 20597             +
 001D64 41F0 F000            00000 20598             +
 001D68 AEFF 0006            00006 20599             +
 001D6C D7C1C7E2E6C9D5E5           20600             +
 DROP   PZERO,R0
1PAGESERV (PAGE00) (09:42) (22MAR04) Add frames to swapping descriptor block                                                Page  138
0Loc    Object Code    Addr1 Addr2  Stmt Lv Lineno    Source Statement           (Hibal 5, Asmedit 3.3)  HLASM R4.0  2004/03/22 09.42
+___    ______ ____    _____ _____  ____ __ ______    ______ _________
0                                  20610    2979.
                                   20611    2980.
                                   20612    2981.       Add frames' real address to a swapping IO descriptor block
                                   20613    2982.
                                   20614    2983.        Input - @ADDSWAP
                                   20615    2984.
                                   20616    2985.       Output - @ADDSWAP
                                   20617    2986.
                                   20618    2987.

0000000                00000 00008 20619    2988.     @ADDSWAP RECORD BEGIN                  Add frame to swapping ctl blk
 000000                            20627  1 2989.     @ASLHEAD   DS    A                       Address of frame list
 000004                            20628  1 2990.     @ASPARM    DS    A                       Pointer to work area
 000008                00008 00008 20629    2991.              END   ,
0                                  20639    2993.              REGCH (RPAG,RX)
 001D7C                            20640    2994.     ADDSWAP  PROC  @ADDSWAP                Add frame to swapping ctl blk
 001D7C C1C4C4E2E6C1D740           20647             +
 001D84 0008/0000                  20648             +
 001D88 900F D004/18AF       00004 20650             +
 USING  ADDSWAP,R10
 001D8E 50D0 C000/18CD       00000 20665             +
 001D94 9680 C000      00000       20667             +
 USING  @ADDSWAP-72,R12
 001D98 41D0 C050            00050 20681             +
 001D9C 5880 C04C            00004 20682    2995.              L     RM,@ASPARM              Addr to caller's work area
 USING  #ADPARM,R8                 20683    2996.              WITH  (#ADPARM,RM)            |
 001DA0 5870 8000            00000 20696    2997.              L     RY,#SSDBAD              This extent addr
 USING  PGDSWAP,R7                 20697    2998.              WITH  (PGDSWAP,RY)            |
 001DA4 5860 0200            00200 20710    2999.              PAGAD RPAG
 USING  PZERO,R0
 DROP   PZERO,R0
 USING  MAT,R6
 001DA8 5860 600C            0000C 20744             +
 DROP   MAT,R6
 USING  PAGCB,R6
 001DAC 5890 C048            00000 20766    3000.              L     RN,@ASLHEAD             Frame list to be added
 USING  LHEAD,R9                   20767    3001.              WITH  (LHEAD,RN),BEGIN        Head of list
 001DB0 5810 9008            00008 20781  1 3002.                L     RS,LHCNT
 001DB4 1211/4780 A1A2       01F2A 20782  1 3003.                IF    (RS,ZERO),EXIT,ADDSWAP  No frames on this list
                                   20799  1 3004.
                                   20800  1 3005.            Move frames to swap CB list
                                   20801  1 3006.
 001DBA 4830 6180            00180 20802  1 3007.                LH    RB,PAGSWXN              Room in control block
 001DBE 5B30 7024            00024 20803  1 3008.                S     RB,PGDSWCNT
 001DC2 1913/47B0 A042       01DCA 20804  1 3009.                STMIN RS,RB                   MIN(room in CB, # in list)
 001DC8 1831                       20810  1          +
 001DCA 1B00/58F0 9008       00008 20811  1 3010.                LREM  LHEAD,,LAST=(RK),(RB),WR=RA
 001DD0 1223/47D0 A072       01DFA 20845  2          +
 001DD6 1BF2/4740 A072       01DFA 20861  2          +
 001DDC 50F0 9008            00008 20876  2          +
 001DE0 58F0 9000/180F       00000 20883  2          +
 001DE6 58F0 F000            00000 20891  2          +
 001DEA 4620 A05E            01DE6 20897  2          +
 001DEE 5850 F004            00004 20904  2          +
1PAGESERV (PAGE00) (09:42) (22MAR04) Add frames to swapping descriptor block                                                Page  139
0Current Usings:  (PAGCB,R6) (PGDSWAP,R7) (#ADPARM,R8) (LHEAD,R9) (ADDSWAP,R10) (@ADDSWAP-72,R12)
0Loc    Object Code    Addr1 Addr2  Stmt Lv Lineno    Source Statement           (Hibal 5, Asmedit 3.3)  HLASM R4.0  2004/03/22 09.42
+___    ______ ____    _____ _____  ____ __ ______    ______ _________
0001DF2 5090 F004            00004 20905  2          +
 001DF6 50F0 9000            00000 20906  1          +
 DROP   LHEAD,R9                   20911    3011.              END   ,                       OF Head of list
 001DFA 1890                       20919    3012.              LR    RN,RVR
 001DFC 4120 701C/18E3       0001C 20920    3013.              LADD  PGDSWFRA,(RN),(RK),(RB),WR=RA
 001E02 5EE0 2008            00008 20947             +
 001E06 50E0 2008            00008 20948             +
 001E0A 58E0 2004            00004 20955             +
 001E0E 5050 2004            00004 20960             +
 001E12 5020 5000            00000 20961             +
 001E16 50E0 9004            00004 20966             +
 001E1A 5090 E000            00000 20967             +
 001E1E 9845 8004            00004 20969    3014.              LM    RJ,RK,#SSSLNXT          Next element this extent list
 001E22 41B0 7040            00040 20970    3015.              LA    BRR,PGDSWEXT            | and one past last
 001E26 4AB0 617C            0017C 20971    3016.              AH    BRR,PAGSWXL             |
                                   20972    3017.
                                   20973    3018.          Add all frames in this list to the swap set
                                   20974    3019.
 001E2A                            20975    3020.              LOOP  BEGIN                   Add all elements on this list
 USING  PFTE,R9                    20981  1 3021.                WITH  (PFTE,RN)
                                   20994  1 3022.
                                   20995  1 3023.            Link to the next extent if we need more room
                                   20996  1 3024.
 001E2A 194B/4750 A130       01EB8 20997  1 3025.                IF    (RJ,GE,BRR),BEGIN       Need a new extent
 001E30 1827                       21012  2 3026.                  LR    RA,RY                   Save old extent addr
 USING  OLD.PGDSWAP,R2             21013  2 3027.                  WITH  (PGDSWAP,RA),LABEL=OLD  |
 AUSING (PSCPFX,PGDSWPFX)          21021  2 3028.                  WITH  (PSCPFX,PGDSWPFX)
                                   21028  2 3029.
                                   21029  2 3030.                NB - This code uses the fact that swap-extent cells are
                                   21030  2 3031.              are linked together after a call to CELLGET.
                                   21031  2 3032.
 001E32 5870 7000            00000 21032  2 3033.                  L     RY,PSCFP                New extent (must be there)
 001E36 1277/4780 A1AC       01F34 21033  2 3034.                  IF    (RY,ZERO),ASABORT
 001E3C 5070 8000            00000 21050  2 3035.                  ST    RY,#SSDBAD                and set it as current
                                   21051  2 3036.
                                   21052  2 3037.              Move frames to swap CB list
                                   21053  2 3038.
 001E40 5890 C048            00000 21054  2 3039.                  L     RN,@ASLHEAD
 DROP   PFTE,R9                    21055  2 3040.                  WITH  (LHEAD,RN),BEGIN        Addr to head of frame list
 USING  LHEAD,R9
 001E44 5820 9008            00008 21072  3 3041.                    L     RA,LHCNT
 001E48 4830 6180            00180 21073  3 3042.                    LH    RB,PAGSWXN              Room in control block
 001E4C 5B30 7024            00024 21074  3 3043.                    S     RB,PGDSWCNT
 001E50 1923/47B0 A0D0       01E58 21075  3 3044.                    STMIN RA,RB                   MIN(room in CB, # in list)
 001E56 1832                       21081  3          +
 001E58 1B00/58F0 9008       00008 21082  3 3045.                    LREM  LHEAD,,LAST=(RK),(RB),WR=RA
 001E5E 1223/47D0 A100       01E88 21116  4          +
 001E64 1BF2/4740 A100       01E88 21132  4          +
 001E6A 50F0 9008            00008 21147  4          +
 001E6E 58F0 9000/180F       00000 21154  4          +
 001E74 58F0 F000            00000 21162  4          +
 001E78 4620 A0EC            01E74 21168  4          +
 001E7C 5850 F004            00004 21175  4          +
 001E80 5090 F004            00004 21176  4          +
1PAGESERV (PAGE00) (09:42) (22MAR04) Add frames to swapping descriptor block                                                Page  140
0Current Usings:  (OLD.PGDSWAP,R2) (PAGCB,R6) (PGDSWAP,R7) (#ADPARM,R8) (LHEAD,R9) (ADDSWAP,R10) (@ADDSWAP-72,R12)
0Loc    Object Code    Addr1 Addr2  Stmt Lv Lineno    Source Statement           (Hibal 5, Asmedit 3.3)  HLASM R4.0  2004/03/22 09.42
+___    ______ ____    _____ _____  ____ __ ______    ______ _________
0001E84 50F0 9000            00000 21177  3          +
 DROP   LHEAD,R9                   21182  2 3046.                  END   ,                       OF Addr to head of frame list
 USING  PFTE,R9
 001E88 1890                       21197  2 3047.                  LR    RN,RVR
 001E8A 4120 701C/18E3       0001C 21198  2 3048.                  LADD  PGDSWFRA,(RN),(RK),(RB),WR=RA
 001E90 5EE0 2008            00008 21225  2          +
 001E94 50E0 2008            00008 21226  2          +
 001E98 58E0 2004            00004 21233  2          +
 001E9C 5050 2004            00004 21238  2          +
 001EA0 5020 5000            00000 21239  2          +
 001EA4 50E0 9004            00004 21244  2          +
 001EA8 5090 E000            00000 21245  2          +
 001EAC 4140 7040            00040 21247  2 3049.                  LA    RJ,PGDSWEXT             Next element
 001EB0 4850 617C            0017C 21248  2 3050.                  LH    RK,PAGSWXL              |
 001EB4 1E54                       21249  2 3051.                  ALR   RK,RJ                   |
 001EB6 18B5                       21250  2 3052.                  LR    BRR,RK                  | one past last frame ptr
 DROP   OLD.PGDSWAP,R2             21251  1 3053.                END   ,                       OF Need a new extent
 USING  PGDSLIST,R4                21263  1 3054.                WITH  (PGDSLIST,RJ),BEGIN     Real addresses
 USING  PGDSVLST,R5                21277  2 3055.                  WITH  (PGDSVLST,RK)           Virtual addresses +
 001EB8 1829                       21290  2 3056.                  LR    RA,RN                   Frame addr
 001EBA 5F20 6044            00044 21291  2 3057.                  SL    RA,PAGPFTO              |
 001EBE 8920 0007            00007 21292  2 3058.                  SLL   RA,L'PAGPAGM-PFTLOG     |
 001EC2 5020 4000            00000 21293  2 3059.                  ST    RA,PGDSLAD              |
 001EC6 D203 5000 9008 00000 00008 21294  2 3060.                  MVC   PGDSVA,PFTVA            Virtual address
 001ECC B229 0032                  21295  2 3061.                  ISKE  RB,RA                   Set Key
 001ED0 4230 5004            00004 21296  2 3062.                  STC   RB,PGDSFKEY             |
 001ED4 9180 901D      0001D       21297  2 3063.                  IF    PFTFPGT,BEGIN           Page table frame
 001ED8 47E0 A16E            01EF6 21307  2          +
 001EDC D201 5006 9014 00006 00014 21312  3 3064.                    MVC   PGDSFSEG,PFTSEG         |
 001EE2 4830 901A            0001A 21313  3 3065.                    LH    RB,PFTSFIX              | short term fixes
 001EE6 1233/4770 A168       01EF0 21314  3 3066.                    IF    (RB,ZERO),'SET PGDFNOF' |  there are none
 001EEC 9680 5006      00006       21334  3          +
 001EF0 0630                       21339  3 3067.                    DECR  RB                      |
 001EF2 4230 5005            00005 21341  3 3068.                    STC   RB,PGDSFPTF             |   set number of fixes-1
 001EF6 A172           01EF6 01EDA 21342  2 3069.                  END   ELSE,BEGIN              Non page-table frame
 001EF6 47F0 A17E            01F06 21351  2          +
 001EFA D200 5005 9016 00005 00016 21357  3 3070.                    MVC   PGDSFHST(1),PFTHIST
 001F00 D201 5006 901A 00006 0001A 21358  3 3071.                    MVC   PGDSFFIX,PFTSFIX
 001F06                            21359  2 3072.                  END   ,                       OF Non page-table frame
 001F06 1834                       21363  2 3073.                  LR    RB,RJ
 001F08 5890 9000            00000 21364  2 3074.                  L     RN,PFTFP                Next frame in list
 001F0C 4140 4004            00004 21365  2 3075.                  LA    RJ,PGDSLNXT             Next element addr in list
 001F10 4150 5008            00008 21366  2 3076.                  LA    RK,PGDSVNXT             |
 001F14 194B/4750 A196       01F1E 21367  2 3077.                  IF    (RJ,GE,BRR),BEGIN       That was the last in list
 USING  PREV.PGDSLIST,R3           21382  3 3078.                    WITH  (PGDSLIST,RB),LABEL=PREV
 001F1A 9680 3000      00000       21390  3 3079.                    SET   PREV:PGDSLAX
 DROP   PREV.PGDSLIST,R3           21396  2 3080.                  END   ,                       OF This is the last in list
 DROP   PGDSVLST,R5                21408  1 3081.                END   ,                       OF Next swap frame address
 DROP   PGDSLIST,R4
 001F1E 4610 A0A2            01E2A 21421    3082.              UNTIL (BCT,RS),END            OF Add all elements on list
 DROP   PFTE,R9
 001F22 5070 8000            00000 21436    3083.              ST    RY,#SSDBAD              Descriptor block addr
 001F26 9045 8004            00004 21437    3084.              STM   RJ,RK,#SSSLNXT          |
 001F2A 981F C008            00008 21438    3085.              PEND  ,
1PAGESERV (PAGE00) (09:42) (22MAR04) Add frames to swapping descriptor block                                                Page  141
0Loc    Object Code    Addr1 Addr2  Stmt Lv Lineno    Source Statement           (Hibal 5, Asmedit 3.3)  HLASM R4.0  2004/03/22 09.42
+___    ______ ____    _____ _____  ____ __ ______    ______ _________
0DROP   PAGCB,R6
 DROP   PGDSWAP,R7
 DROP   #ADPARM,R8
 DROP   @ADDSWAP-72,R12
 DROP   ADDSWAP,R10
 001F2E 9680 C000/0B0E 00000       21468             +
 001F34 AC04 021B      0021B       21474    3086.     ASABORT  ABORT PAGADSWP                CB not in memory/invalid
 USING  PZERO,R0
 001F38 9680 021A      0021A       21493             +
 001F3C 50F0 021C            0021C 21494             +
 001F40 58F0 0210            00210 21495             +
 001F44 89F0 0010            00010 21496             +
 001F48 88F0 0010            00010 21497             +
 001F4C 41F0 F000            00000 21498             +
 001F50 AEFF 0006            00006 21499             +
 001F54 D7C1C7C1C4E2E6D7           21500             +
 DROP   PZERO,R0
1PAGESERV (PAGE00) (09:42) (22MAR04) Do Swap out I/Os                                                                       Page  142
0Loc    Object Code    Addr1 Addr2  Stmt Lv Lineno    Source Statement           (Hibal 5, Asmedit 3.3)  HLASM R4.0  2004/03/22 09.42
+___    ______ ____    _____ _____  ____ __ ______    ______ _________
0                                  21510    3088.
                                   21511    3089.
                                   21512    3090.       Start up swap out I/Os for an address space
                                   21513    3091.
                                   21514    3092.        Input -    @SWAPOUT
                                   21515    3093.
                                   21516    3094.       Output -    RVR contains number of frames swapped
                                   21517    3095.
                                   21518    3096.

0000000                00000 00004 21520    3098.     @SWAPOUT RECORD BEGIN
 000000                            21528  1 3099.     @SOAMT     DS    A
 000004                00004 00004 21529    3100.              END   ,
0001F64                            21539    3102.     SWAPOUT  PROC  @SWAPOUT
 001F64 E2E6C1D7D6E4E340           21546             +
 001F6C 0008/0000                  21547             +
 001F70 900F D004/18AF       00004 21549             +
 USING  SWAPOUT,R10
 001F76 50D0 C000/18CD       00000 21564             +
 001F7C 9680 C000      00000       21566             +
 USING  @SWAPOUT-72,R12
 001F80 41D0 C050            00050 21580             +
 001F84 5860 0200            00200 21581    3103.              PAGAD RPAG
 USING  PZERO,R0
 DROP   PZERO,R0
 USING  MAT,R6
 001F88 5860 600C            0000C 21615             +
 DROP   MAT,R6
 USING  PAGCB,R6
 001F8C 1B88                       21637    3104.              CLEAR RM                      Count of frames sent out
 001F8E                            21641    3105.     DOSLOOP  WHILE (PAGLICNT,NZ),BEGIN     Loop through all LIP ASs
 001F8E D603 6084 6084 00084 00084 21654             +
 001F94 4780 A0F8            02068 21655             +
 001F98 5870 607C            0007C 21660  1 3106.                L     RPCB,PAGLIFP            First In-Progress AS
 USING  ASBPCB,R7                  21661  1 3107.                WITH  (ASBPCB,RPCB)
 001F9C                            21674  1 3108.                WHILE (PCBSICNT,NZ),BEGIN     Loop through swap CBs
 001F9C D603 7074 7074 00074 00074 21686  1          +
 001FA2 4780 A0F4            02064 21687  1          +
 001FA6 41E0 706C/1B00       0006C 21692  2 3109.                  LREM  PCBSWIN,WR=RS           Get first swap CB
 001FAC 58F0 E008            00008 21724  3          +
 001FB0 4110 0001/1BF1       00001 21732  3          +
 001FB6 4740 A060            01FD0 21743  3          +
 001FBA 50F0 E008            00008 21749  3          +
 001FBE 58F0 E000/180F       00000 21756  3          +
 001FC4 58F0 F000            00000 21758  3          +
 001FC8 50E0 F004            00004 21759  3          +
 001FCC 50F0 E000            00000 21760  2          +
 001FD0 1890                       21765  2 3110.                  LR    RN,RVR
 001FD2                            21766  2 3111.                  IF    (PCBSICNT,Z),BEGIN      AS No longer In-Progress
 001FD2 D603 7074 7074 00074 00074 21776  2          +
 001FD8 4770 A09C            0200C 21777  2          +
 001FDC 41E0 607C/1B00       0007C 21782  3 3112.                    LREM  PAGLIP,LA:ASBPCB,WR=RS
 001FE2 58F0 E008            00008 21817  4          +
 001FE6 4110 0001/1BF1       00001 21825  4          +
1PAGESERV (PAGE00) (09:42) (22MAR04) Do Swap out I/Os                                                                       Page  143
0Current Usings:  (PAGCB,R6) (ASBPCB,R7) (SWAPOUT,R10) (@SWAPOUT-72,R12)
0Loc    Object Code    Addr1 Addr2  Stmt Lv Lineno    Source Statement           (Hibal 5, Asmedit 3.3)  HLASM R4.0  2004/03/22 09.42
+___    ______ ____    _____ _____  ____ __ ______    ______ _________
0001FEC 4740 A098            02008 21836  4          +
 001FF0 50F0 E008/18F7       00008 21842  4          +
 001FF6 180F/58E0 F004       00004 21849  4          +
 001FFC 58F0 F000            00000 21857  4          +
 002000 50E0 F004            00004 21858  4          +
 002004 50F0 E000            00000 21859  3          +
 002008 94DF 7023      00023       21864  3 3113.                    CLEAR PCBFLIP                 Not In-Progress
 00200C                            21871  2 3114.                  END   ,                       OF AS No longer In-Progress
                                   21875  2 3115.
                                   21876  2 3116.
                                   21877  2 3117.       Do the SWAP I/O
                                   21878  2 3118.
                                          2
0USING  PGDSWAP,R9                 21879  2 3119.                  WITH  (PGDSWAP,RN)
 AUSING (PSCPFX,PGDSWPFX)          21892  2 3120.                  WITH  (PSCPFX,PGDSWPFX)
 AUSING (#SWPDO,PGDSWP)            21899  2 3121.                  WITH  (#SWPDO,PGDSWP)
 00200C 4A80 9038            0000C 21906  2 3122.                  AH    RM,#SWPCNT              Count of swap frames
 002010 947F 9028      00028       21907  2 3123.                  CLEAR PGDSFLOUT               Not logically swapped anymore
 002014 9620 9028      00028       21914  2 3124.                  SET   PGDSFSINP
 002018 5820 9010            00010 21920  2 3125.                  L     RA,PSCDEV
 00201C 5820 2014            00014 21921  2 3126.                  WITH  (DSDES,RA),'L RA,DSCHID'         channel ID
 USING  DSDES,R2
 DROP   DSDES,R2
 USING  @IOSDOIO-72,R13            21945  2 3127.                  PSET  @IOSDOIO                Call IO Supervisor
 002020 D71D D048 D048 00000 00000 21962  2          +
 002026 5020 D048            00000 21963  2 3128.                  PMOV  @IOSCHID,(RA)           | channel ID
 00202A                            21973  2 3129.                  PMOV  @IOSID,PSCIO            | I/O supervisor ID
 00202A D203 D04C 900C 00004 0000C 21977  2          +
 002030                            21978  2 3130.                  PMOV  @IOSPID,PCBASB,LEFTADJ=YES
 002030 D203 D050 700C 00008 0000C 21982  2          +
 002036 4100 902C            00000 21983  2 3131.                  PMOV  @IOSCP,LA:#SWPDO        |
 00203A 5000 D058            00010 21999  2          +
 00203E 4100 A124            02094 22000  2 3132.                  PMOV  @IOSXID,LA:PAGOSEND     | completion addr
 002042 5000 D05C            00014 22016  2          +
 002046 5090 D060            00018 22017  2 3133.                  PMOV  @IOSXPAR,LA:PGDSWAP     |
 00204A 9200 D064      0001C       22028  2 3134.                  MVI   @IOSKEY,0               | key of I/O
 00204E 9620 D065      0001D       22029  2 3135.                  SET   @IOSFAST                | fast path I/O
 002052 58F0 A524/0DEF       02494 22035  2 3136.                  VCALL IOSDOIO                 |
 002058 5980 C048            00000 22039  2 3137.                  IF    (RM,GE,@SOAMT),EXIT,DOSLOOP
 00205C 47A0 A0F8            02068 22053  2          +
 002060 47F0 A02C            01F9C 22059  1 3138.                END   ,                       OF Loop through swap CBs
 DROP   PGDSWAP,R9
 002064 47F0 A01E            01F8E 22069    3139.              END   ,                       OF Loop through all LIP ASs
 DROP   ASBPCB,R7
                                   22079    3140.
                                   22080    3141.          Frames written out aren't logically swapped, so decrement that
                                   22081    3142.          frame count.
                                   22082    3143.
 002068 5890 6088            00088 22083    3144.              L     RN,PAGFLS               Fewer logically swapped
 00206C 1F98                       22084    3145.              SLR   RN,RM
 00206E 5090 6088            00088 22085    3146.              ST    RN,PAGFLS
 002072 5890 60AC            000AC 22086    3147.              L     RN,PAGFSOIP             More in progress - out
 002076 1E98                       22087    3148.              ALR   RN,RM
1PAGESERV (PAGE00) (09:42) (22MAR04) Do Swap out I/Os                                                                       Page  144
0Current Usings:  (PAGCB,R6) (SWAPOUT,R10) (@SWAPOUT-72,R12) (@IOSDOIO-72,R13)
0Loc    Object Code    Addr1 Addr2  Stmt Lv Lineno    Source Statement           (Hibal 5, Asmedit 3.3)  HLASM R4.0  2004/03/22 09.42
+___    ______ ____    _____ _____  ____ __ ______    ______ _________
0002078 5090 60AC            000AC 22088    3149.              ST    RN,PAGFSOIP
 00207C 1808                       22089    3150.              LR    RVR,RM                  Return count of frames written
 00207E 981F C008            00008 22090    3151.              PEND  ,
 DROP   PAGCB,R6
 DROP   @SWAPOUT-72,R12
 DROP   SWAPOUT,R10
 002082 9680 C000/0B0E 00000       22110             +
 DROP   @IOSDOIO-72,R13
1PAGESERV (PAGE00) (09:42) (22MAR04) Swap-out I/O completion routine                                                        Page  145
0Loc    Object Code    Addr1 Addr2  Stmt Lv Lineno    Source Statement           (Hibal 5, Asmedit 3.3)  HLASM R4.0  2004/03/22 09.42
+___    ______ ____    _____ _____  ____ __ ______    ______ _________
0                                  22120    3153.
                                   22121    3154.
                                   22122    3155.       Swap out IO completion routine
                                   22123    3156.
                                   22124    3157.        Input - @IOTERM
                                   22125    3158.
                                   22126    3159.       Output -
                                   22127    3160.
                                   22128    3161.

0000000                00000 00003 22130    3163.     #OSEND   RECORD BEGIN
 000000                            22138  1 3164.     #OSEPSWM   DS    X                       PSW mask for disabling
 000001                            22139  1 3165.     #OSELKF    DS    X                       Locks for this PSW
 000002 00                         22140  1 3166.     #OSEFLAG   FLAG  ,
 #OSEFLAG.#OSEDISP 80 ONES         22144  1 3167.                FLAG  #OSEDISP                Notify dispatcher of completion
 000003                00003 00003 22149    3168.              END   ,
0002088                            22159    3170.     PAGOSEND PROC  @IOTERM,#OSEND,SCOPE=GLOBAL
 002088 D7C1C7D6E2C5D5C4           22165             +
 002090 0008/0008                  22166             +
 002094 900F D004/18AF       00004 22168             +
 USING  PAGOSEND,R10
 00209A 50D0 C000/18CD       00000 22183             +
 0020A0 9680 C000      00000       22185             +
 USING  @IOTERM-72,R12
 AUSING (#OSEND,@IOTERM+8)
 0020A4 41D0 C058            00058 22204             +
 0020A8 5860 0200            00200 22205    3171.              PAGAD RPAG
 USING  PZERO,R0
 DROP   PZERO,R0
 USING  MAT,R6
 0020AC 5860 600C            0000C 22239             +
 DROP   MAT,R6
 USING  PAGCB,R6
 0020B0 9200 C052      00002       22261    3172.              CLEAR #OSEFLAG
 0020B4 5850 C04C/1255       00004 22268    3173.              IF    ('LT RK,@IOTEND',NZ),BEGIN
 0020BA 4780 A064            020F8 22279             +
 0020BE 83000012                   22284  1 3174.                ORVSNAP @IOTEND,4
 0020C2 10040000C04C               22288  1          +
 0020C8 AC04 021B      0021B       22289  1 3175.                ABORT PAGSWOUT
 USING  PZERO,R0
 0020CC 9680 021A      0021A       22307  1          +
 0020D0 50F0 021C            0021C 22308  1          +
 0020D4 58F0 0210            00210 22309  1          +
 0020D8 89F0 0010            00010 22310  1          +
 0020DC 88F0 0010            00010 22311  1          +
 0020E0 41F0 F000            00000 22312  1          +
 0020E4 AEFF 0006            00006 22313  1          +
 0020E8 D7C1C7E2E6D6E4E3           22314  1          +
 DROP   PZERO,R0
 0020F8                            22323    3176.              END
 0020F8 5850 C048            00000 22327    3177.              L     RK,@IOTPARM             Addr to control block
 USING  PGDSWAP,R5                 22328    3178.              WITH  (PGDSWAP,RK),BEGIN      |
 AUSING (PSCPFX,PGDSWPFX)          22342  1 3179.                WITH  (PSCPFX,PGDSWPFX)
 0020FC 5870 5014            00014 22349  1 3180.                L     RPCB,PSCASB             Lock AS
1PAGESERV (PAGE00) (09:42) (22MAR04) Swap-out I/O completion routine                                                        Page  146
0Current Usings:  (PGDSWAP,R5) (PAGCB,R6) (PAGOSEND,R10) (@IOTERM-72,R12)
0Loc    Object Code    Addr1 Addr2  Stmt Lv Lineno    Source Statement           (Hibal 5, Asmedit 3.3)  HLASM R4.0  2004/03/22 09.42
+___    ______ ____    _____ _____  ____ __ ______    ______ _________
0002100 5870 7020            00020 22350  1 3181.                WITH  (ASB,RPCB),'L RPCB,ASBPAGB'
 USING  ASB,R7
 DROP   ASB,R7
 USING  ASBPCB,R7                  22374  1 3182.                WITH  (ASBPCB,RPCB)
 002104 AC04 C050      00000       22387  1 3183.                PAGNTRY ASYNC,#OSEPSWM,#OSELKF
 USING  @LOCKS-72,R13
 002108 D203 D048 7018 00000 00018 22407  1          +
 00210E 58F0 602C/0DEF       0002C 22413  1          +
 002114 D200 C051 70B6 00001 000B6 22415  1          +
 00211A 9240 70B6      000B6       22422  1          +
 00211E 9180 7022      00022       22432  1          +
 002122 47E0 A096            0212A 22433  1          +
 002126 9280 70B6      000B6       22445  1          +
1PAGESERV (PAGE00) (09:42) (22MAR04) Swap-out I/O completion routine                                                        Page  147
0Current Usings:  (PGDSWAP,R5) (PAGCB,R6) (ASBPCB,R7) (PAGOSEND,R10) (@IOTERM-72,R12) (@LOCKS-72,R13)
0Loc    Object Code    Addr1 Addr2  Stmt Lv Lineno    Source Statement           (Hibal 5, Asmedit 3.3)  HLASM R4.0  2004/03/22 09.42
+___    ______ ____    _____ _____  ____ __ ______    ______ _________
0                                  22451  1 3185.
                                   22452  1 3186.            Gather stats
                                   22453  1 3187.
 DROP   @LOCKS-72,R13              22454  1 3188.                PSET  @IOSTIME
 USING  @IOSTIME-72,R13
 00212A D70F D048 D048 00000 00000 22474  1          +
 002130                            22475  1 3189.                PMOV  @IOSTID,PSCIO
 002130 D203 D048 500C 00000 0000C 22479  1          +
 002136 58F0 A404/0DEF       02498 22480  1 3190.                VCALL IOSTIME
                                   22484  1 3191.
 00213C 4110 0001            00001 22485  1 3192.                INCR  RS,PAGMSON              One more swap out
 002140 5E10 6260            00260 22489  1          +
 002144 5010 6260            00260 22490  1          +
 002148 9889 D050            00008 22491  1 3193.                LM    RM,RN,@IOSIOTIME        Total time
 00214C 9823 6268            00268 22492  1 3194.                LM    RA,RB,PAGMSOTM          |
 002150 1E93/47C0 A0C6       0215A 22493  1 3195.                ADLR  RM,RA                   |
 002156 5E80 A408/1E82       0249C 22508  1          +
 00215C 9089 6268            00268 22514  1 3196.                STM   RM,RN,PAGMSOTM          |
                                   22515  1 3197.
 002160 5840 5010            00010 22516  1 3198.                L     RJ,PSCDEV
 USING  DSDES,R4                   22517  1 3199.                WITH  (DSDES,RJ),BEGIN        DSDES addr
 002164                            22531  2 3200.                  IF    (DSAID,NE,=CL4'BMCB'),'ABORT BADBMID'
 002164 D503 A40C 4000 024A0 00000 22542  2          +
 00216A 4780 A10A            0219E 22543  2          +
 USING  PZERO,R0
 00216E AC04 021B      0021B       22561  3          +
 002172 9680 021A      0021A       22567  3          +
 002176 50F0 021C            0021C 22568  3          +
 00217A 58F0 0210            00210 22569  3          +
 00217E 89F0 0010            00010 22570  3          +
 002182 88F0 0010            00010 22571  3          +
 002186 41F0 F000            00000 22572  3          +
 00218A AEFF 0006            00006 22573  3          +
 00218E C2C1C4C2D4C9C440           22574  2          +
 DROP   PZERO,R0
 00219E 4110 0001            00001 22587  2 3201.                  INCR  RS,DSOUTCNT             Another swap out this device
 0021A2 5E10 4024            00024 22591  2          +
 0021A6 5010 4024            00024 22592  2          +
 0021AA 9889 D050            00008 22593  2 3202.                  LM    RM,RN,@IOSIOTIME        Total time
 0021AE 9823 4030            00030 22594  2 3203.                  LM    RA,RB,DSOUTTIME         |
 0021B2 1E93/47C0 A128       021BC 22595  2 3204.                  ADLR  RM,RA                   |
 0021B8 5E80 A408/1E82       0249C 22610  2          +
 0021BE 9089 4030            00030 22616  2 3205.                  STM   RM,RN,DSOUTTIME         |
 DROP   DSDES,R4                   22617  1 3206.                END   ,                       OF DSDES addr
                                   22625  1 3207.
 AUSING (#SWPDO,PGDSWP)            22626  1 3208.                WITH  (#SWPDO,PGDSWP),BEGIN
 0021C2 4810 5038            0000C 22636  2 3209.                  LH    RS,#SWPCNT              Track largest swap
 0021C6 5910 6288            00288 22637  2 3210.                  STMAX RS,PAGMSMAX             |
 0021CA 47D0 A13E            021D2 22642  2          +
 0021CE 5010 6288            00288 22643  2          +
 0021D2 4910 6180            00180 22644  2 3211.                  IF    (RS,GT,PAGSWXN),BEGIN   Count number over 1 extent
 0021D6 47D0 A152            021E6 22656  2          +
 0021DA 4180 0001            00001 22661  3 3212.                    INCR  RM,PAGMSOVR             |
 0021DE 5E80 628C            0028C 22665  3          +
1PAGESERV (PAGE00) (09:42) (22MAR04) Swap-out I/O completion routine                                                        Page  148
0Current Usings:  (PGDSWAP,R5) (PAGCB,R6) (ASBPCB,R7) (PAGOSEND,R10) (@IOTERM-72,R12) (@IOSTIME-72,R13)
0Loc    Object Code    Addr1 Addr2  Stmt Lv Lineno    Source Statement           (Hibal 5, Asmedit 3.3)  HLASM R4.0  2004/03/22 09.42
+___    ______ ____    _____ _____  ____ __ ______    ______ _________
00021E2 5080 628C            0028C 22666  3          +
 0021E6                            22667  2 3213.                  END   ,                       |
                                   22671  1 3214.                END   ,
 AUSING (#SWPDO,PGDSWP)            22674  1 3215.                WITH  (#SWPDO,PGDSWP),BEGIN
 0021E6 4810 5038            0000C 22684  2 3216.                  LH    RS,#SWPCNT              Count frames swapped out
 0021EA 5E10 6264            00264 22685  2 3217.                  AL    RS,PAGMSOF              |
 0021EE 5010 6264            00264 22686  2 3218.                  ST    RS,PAGMSOF              |
                                   22687  1 3219.                END   ,
                                   22690  1 3220.
                                   22691  1 3221.
                                   22692  1 3222.       Swap-write completion
                                   22693  1 3223.
                                          1
0                                  22695  1 3225.
                                   22696  1 3226.            Swap is complete - set state flags
                                   22697  1 3227.              If the swap was originally a logical swap, the dispatcher
                                   22698  1 3228.              isn't expecting a notification of completion, because from
                                   22699  1 3229.              it's standpoint the swap is already done.
                                   22700  1 3230.
 DROP   @IOSTIME-72,R13            22701  1 3231.                LKOB  PAGSWAPL
 USING  @LOCKS-72,R13
 0021F2 D203 D048 6040 00000 00040 22720  1          +
 0021F8 58F0 602C/0DEF       0002C 22726  1          +
 0021FE 94DF 5028      00028       22728  1 3232.                CLEAR PGDSFSINP               Swap no longer in progress
 002202 947F C052      00002       22735  1 3233.                CLEAR #OSEDISP                Don't notify dispatcher
 002206 5810 60AC            000AC 22742  1 3234.                L     RS,PAGFSOIP             Decr frames in-progress
 00220A 4B10 5038            0000C 22743  1 3235.                SH    RS,#SWPCNT              |
 00220E 5010 60AC            000AC 22744  1 3236.                ST    RS,PAGFSOIP             |
 002212 9110 7023      00023       22745  1 3237.                IF    PCBFRSIN,BEGIN          Swap in requested
 002216 47E0 A1E8            0227C 22755  1          +
                                   22760  2 3238.
                                   22761  2 3239.               Swap in requested - frames still there so do it quick like
                                   22762  2 3240.              Decrement amount of available frames
                                   22763  2 3241.
 AUSING (#SWPDO,PGDSWP)            22764  2 3242.                  WITH  (#SWPDO,PGDSWP)
 00221A 58F0 0200            00200 22771  2 3243.                  L     EPAR,MATPTR
 USING  MAT,R15                    22772  2 3244.                  WITH  (MAT,EPAR),BEGIN        Decr avail frames
 00221E 5810 F0DC            000DC 22786  3 3245.                    L     RS,MATPAGFN
 002222 4B10 5038            0000C 22787  3 3246.                    SH    RS,#SWPCNT
 002226 5010 F0DC            000DC 22788  3 3247.                    ST    RS,MATPAGFN
 DROP   MAT,R15                    22789  2 3248.                  END   ,                       OF Decr avail frames
 00222A 4110 706C            0006C 22797  2 3249.                  LADD  PCBSWIN,LA:PGDSWAP,WR=RS
 00222E 41E0 0001            00001 22828  2          +
 002232 5EE0 1008            00008 22829  2          +
 002236 50E0 1008            00008 22830  2          +
 00223A 58E0 1004            00004 22837  2          +
 00223E 5050 1004            00004 22843  2          +
 002242 5010 5000            00000 22844  2          +
 002246 50E0 5004            00004 22850  2          +
 00224A 5050 E000            00000 22851  2          +
 00224E 4820 7068            00068 22853  2 3250.                  LH    RA,PCBSWCBN
 002252 5830 7074            00074 22854  2 3251.                  L     RB,PCBSICNT
 002256                            22855  2 3252.                  LKREL PAGSWAPL
1PAGESERV (PAGE00) (09:42) (22MAR04) Swap-out I/O completion routine                                                        Page  149
0Current Usings:  (PGDSWAP,R5) (PAGCB,R6) (ASBPCB,R7) (PAGOSEND,R10) (@IOTERM-72,R12) (@LOCKS-72,R13)
0Loc    Object Code    Addr1 Addr2  Stmt Lv Lineno    Source Statement           (Hibal 5, Asmedit 3.3)  HLASM R4.0  2004/03/22 09.42
+___    ______ ____    _____ _____  ____ __ ______    ______ _________
0002256 D203 D048 6040 00000 00040 22864  2          +
 00225C 58F0 6030/0DEF       00030 22870  2          +
 002262 1923/4770 A1E8       0227C 22872  2 3253.                  IF    (RA,EQ,RB),BEGIN        All segments are in ...
 002268 9680 C052      00002       22887  3 3254.                    SET   #OSEDISP                Notify dispatcher
 DROP   @LOCKS-72,R13              22893  3 3255.                    PSET  @SWDONE
 USING  @SWDONE-72,R13
 00226C D703 D048 D048 00000 00000 22913  3          +
 002272 5070 D048            00000 22914  3 3256.                    PMOV  @SWDPCB,LA:ASBPCB
 002276 41F0 AC04/0DEF       02C98 22925  3 3257.                    LCALL SWAPIDONE
 00227C                            22934  2 3258.                  END   ,                       OF All segments are in ...
 00227C                            22938  1 3259.                END   ,                       OF Swap in requested
 00227C A1EC           0227C 02218 22942  1 3260.                ELSE  BEGIN                   Swap in not requested
 00227C 47F0 A2A0            02334 22947  1          +
                                   22953  2 3261.
                                   22954  2 3262.              Update frame counts
                                   22955  2 3263.
 AUSING (#SWPDO,PGDSWP)            22956  2 3264.                  WITH  (#SWPDO,PGDSWP)
 002280 5820 6060            00060 22963  2 3265.                  L     RA,PAGFTCNT             Update available frame count
 002284                            22964  2 3266.                  LOOP  BEGIN                   |
 002284 1812                       22970  3 3267.                    LR    RS,RA                   |
 002286 4A10 5038            0000C 22971  3 3268.                    AH    RS,#SWPCNT              |
 00228A BA21 6060            00060 22972  3 3269.                    CS    RA,RS,PAGFTCNT          |
 00228E 4770 A1F0            02284 22973  2 3270.                  UNTIL EQUAL,END               |
 002292 58F0 0200            00200 22992  2 3271.                  L     EPAR,MATPTR             Update paging function
 USING  MAT,R15                    22993  2 3272.                  WITH  (MAT,EPAR),BEGIN        |
 002296 5820 60B0            000B0 23007  3 3273.                    L     RA,PAGASIN              | save 1 frame/AS in core
 00229A 5920 A3C4            02458 23008  3 3274.                    CEIL  RA,PFRESLIM             |  up to a point
 00229E 47D0 A212            022A6 23017  3          +
 0022A2 5820 A3C4            02458 23022  3          +
 0022A6 1F12                       23027  3 3275.                    SLR   RS,RA                   |
 0022A8 5F10 60B4            000B4 23028  3 3276.                    SL    RS,PAGFRES              |  and reserved amt
 0022AC 5E10 6088            00088 23029  3 3277.                    AL    RS,PAGFLS               |   plus logical swap frames
 0022B0 5010 F0DC            000DC 23030  3 3278.                    ST    RS,MATPAGFN             |
 DROP   MAT,R15                    23031  2 3279.                  END   ,                       OF Update paging function
                                   23039  2 3280.
                                   23040  2 3281.              Add to list of swap control segments with unreclaimed frames
                                   23041  2 3282.
 0022B4 5810 6098            00098 23042  2 3283.                  L     RS,PAGFRC               Count number of frames
 0022B8 4A10 5038            0000C 23043  2 3284.                  AH    RS,#SWPCNT              |
 0022BC 5010 6098            00098 23044  2 3285.                  ST    RS,PAGFRC               |
 0022C0 4110 608C            0008C 23045  2 3286.                  LADD  PAGRSCB,LA:PGDSWAP,WR=RS
 0022C4 41E0 0001            00001 23076  2          +
 0022C8 5EE0 1008            00008 23077  2          +
 0022CC 50E0 1008            00008 23078  2          +
 0022D0 58E0 1004            00004 23085  2          +
 0022D4 5050 1004            00004 23091  2          +
 0022D8 5010 5000            00000 23092  2          +
 0022DC 50E0 5004            00004 23098  2          +
 0022E0 5050 E000            00000 23099  2          +
 DROP   @SWDONE-72,R13             23101  2 3287.                  LKREL PAGSWAPL
 USING  @LOCKS-72,R13
 0022E4 D203 D048 6040 00000 00040 23120  2          +
 0022EA 58F0 6030/0DEF       00030 23126  2          +
1PAGESERV (PAGE00) (09:42) (22MAR04) Swap-out I/O completion routine                                                        Page  150
0Current Usings:  (PGDSWAP,R5) (PAGCB,R6) (ASBPCB,R7) (PAGOSEND,R10) (@IOTERM-72,R12) (@LOCKS-72,R13)
0Loc    Object Code    Addr1 Addr2  Stmt Lv Lineno    Source Statement           (Hibal 5, Asmedit 3.3)  HLASM R4.0  2004/03/22 09.42
+___    ______ ____    _____ _____  ____ __ ______    ______ _________
0                                  23128  2 3288.
                                   23129  2 3289.              Wake up any waiting for frames
                                   23130  2 3290.
 0022F0                            23131  2 3291.                  LKOB  PAGFRAL
 0022F0 D203 D048 603C 00000 0003C 23140  2          +
 0022F6 58F0 602C/0DEF       0002C 23146  2          +
 0022FC 5810 6060/1211       00060 23148  2 3292.                  IF    (('LT RS,PAGFTCNT',NZ),AND,(PAGFWCNT,NZ)),BEGIN
 002302 4780 A294            02328 23161  2          +
 002306 D603 60A4 60A4 000A4 000A4 23173  2          +
 00230C 4780 A294            02328 23174  2          +
 002310 58F0 60C0            000C0 23179  3 3293.                    SET   PAGFWFRA,MODE=LOCKED,REF=PAGFWAIT
 002314 4110 0080            00080 23186  3          +
 002318 8910 0018/180F       00018 23187  3          +
 00231E 1601/BAF0 60C0       000C0 23189  3          +
 002324 4770 A288            0231C 23192  3          +
 002328                            23193  2 3294.                  END   ,                       OF Notify any waiting
 002328                            23197  2 3295.                  LKREL PAGFRAL
 002328 D203 D048 603C 00000 0003C 23206  2          +
 00232E 58F0 6030/0DEF       00030 23212  2          +
 002334                            23214  1 3296.                END   ,                       OF Swap in not requested
 002334 4310 70B6            000B6 23218  1 3297.                PAGXIT ASYNC,#OSEPSWM,#OSELKF,WR=RS
 002338 D200 70B6 C051 000B6 00001 23222  1          +
 00233E 4210 C051            00001 23223  1          +
 002342 9180 C051      00001       23233  1          +
 002346 47E0 A2CA            0235E 23234  1          +
 00234A 5850 6018            00018 23239  2          +
 DROP   PGDSWAP,R5
 USING  ASB,R5
 00234E 5850 5020            00020 23258  2          +
 DROP   ASB,R5
 USING  PGDSWAP,R5
 DROP   PGDSWAP,R5
 DROP   ASBPCB,R7
 USING  ASBPCB,R5
 002352 D203 D048 5018 00000 00018 23311  3          +
 002358 58F0 6030/0DEF       00030 23317  1          +
 USING  ASBPCB,R7
 DROP   ASBPCB,R5
 USING  PGDSWAP,R5
 00235E 9140 C051      00001       23356  1          +
 002362 47E0 A2DE            02372 23357  1          +
 002366 D203 D048 7018 00000 00018 23371  2          +
 00236C 58F0 6030/0DEF       00030 23377  1          +
 002372 8000 C050      00000       23383  1          +
 DROP   ASBPCB,R7                  23384    3298.              END   ,                       OF Addr to PGDSWAP
 DROP   PGDSWAP,R5
                                   23397    3299.
                                   23398    3300.          Invalidate ASN
                                   23399    3301.
 USING  ASBPCB,R7                  23400    3302.              WITH  (ASBPCB,RPCB),BEGIN
1PAGESERV (PAGE00) (09:42) (22MAR04) Swap-out I/O completion routine                                                        Page  151
0Current Usings:  (PAGCB,R6) (ASBPCB,R7) (PAGOSEND,R10) (@IOTERM-72,R12) (@LOCKS-72,R13)
0Loc    Object Code    Addr1 Addr2  Stmt Lv Lineno    Source Statement           (Hibal 5, Asmedit 3.3)  HLASM R4.0  2004/03/22 09.42
+___    ______ ____    _____ _____  ____ __ ______    ______ _________
0                                  23414  1 3303.
                                   23415  1 3304.            Notify dispatcher
                                   23416  1 3305.
 002376 9180 C052      00002       23417  1 3306.                IF    #OSEDISP,BEGIN          Notify dispatcher
 00237A 47E0 A2FC            02390 23427  1          +
                                   23432  2 3307.
                                   23433  2 3308.              Tell dispatcher swap is done
                                   23434  2 3309.
 DROP   @LOCKS-72,R13              23435  2 3310.                  PSET  @DISPSIOC
 USING  @DISPSIOC-72,R13
 00237E D703 D048 D048 00000 00000 23455  2          +
 002384                            23456  2 3311.                  PMOV  @DSIOASB,PCBASB
 002384 D203 D048 700C 00000 0000C 23460  2          +
 00238A 58F0 A3E8/0DEF       0247C 23461  2 3312.                  VCALL DISPSIOC
 002390                            23465  1 3313.                END   ,                       OF Notify dispatcher
 DROP   ASBPCB,R7                  23469    3314.              END   ,                       OF ASBPCB addr
 002390 981F C008            00008 23477    3315.              PEND  ,
 DROP   PAGCB,R6
 DROP   @IOTERM-72,R12
 DROP   PAGOSEND,R10
 002394 9680 C000/0B0E 00000       23497             +
 DROP   @DISPSIOC-72,R13
1PAGESERV (PAGE00) (09:42) (22MAR04) Advice for swapping                                                                    Page  152
0Loc    Object Code    Addr1 Addr2  Stmt Lv Lineno    Source Statement           (Hibal 5, Asmedit 3.3)  HLASM R4.0  2004/03/22 09.42
+___    ______ ____    _____ _____  ____ __ ______    ______ _________
0                                  23507    3317.
                                   23508    3318.
                                   23509    3319.       Make room (from logically swapped address spaces) for an
                                   23510    3320.       address space that is now eligible to come in
                                   23511    3321.
                                   23512    3322.       Input - @PAGSWADV
                                   23513    3323.
                                   23514    3324.      Output - None
                                   23515    3325.
                                   23516    3326.

000239A                            23518    3328.     PAGSWADV PROC  @PAGSWADV,#LCLLOCK,SCOPE=GLOBAL
 00239A D7C1C7E2E6C1C4E5           23524             +
 0023A2 0008/0008                  23525             +
 0023A6 900F D004/18AF       00004 23527             +
 USING  PAGSWADV,R10
 0023AC 50D0 C000/18CD       00000 23542             +
 0023B2 9680 C000      00000       23544             +
 USING  @PAGSWADV-72,R12
 AUSING (#LCLLOCK,@PAGSWADV+8)
 0023B6 41D0 C058            00058 23563             +
 0023BA 5860 0200            00200 23564    3329.              PAGAD RPAG
 USING  PZERO,R0
 DROP   PZERO,R0
 USING  MAT,R6
 0023BE 5860 600C            0000C 23598             +
 DROP   MAT,R6
 USING  PAGCB,R6
 0023C2 AC04 C050      00000       23620    3330.              SLKOB PAGSWAPL,#LCLPSWM
 USING  @LOCKS-72,R13
 0023C6 D203 D048 6040 00000 00040 23638             +
 0023CC 58F0 602C/0DEF       0002C 23644             +
                                   23646    3331.
                                   23647    3332.          If this AS isn't out, or if it has already been notified
                                   23648    3333.          it is an error
                                   23649    3334.
 0023D2 5870 C048            00000 23650    3335.              L     RPCB,@ADVASB
 0023D6 5870 7020            00020 23651    3336.              WITH  (ASB,RPCB),'L RPCB,ASBPAGB'
 USING  ASB,R7
 DROP   ASB,R7
 USING  ASBPCB,R7                  23675    3337.              WITH  (ASBPCB,RPCB)
 0023DA 9120 7022      00022       23688    3338.              IF    (~PCBFSOUT,OR,PCBFNOTE),BADADV
 0023DE 47E0 A080            02426 23702             +
 0023E2 9108 7023      00023       23711             +
 0023E6 4710 A080            02426 23714             +
 0023EA 9608 7023      00023       23720    3339.              SET   PCBFNOTE
                                   23726    3340.
                                   23727    3341.          If this AS has has it's frames stolen, update the frames
                                   23728    3342.          waiting to come in, and if need be send someone else out to
                                   23729    3343.          make room.
                                   23730    3344.
 0023EE 4840 706A            0006A 23731    3345.              LH    RJ,PCBSWFS              Number of stolen frames
 0023F2 1244/4780 A05A       02400 23732    3346.              IF    (RJ,NZ),BEGIN           More frames waiting swap-in
 0023F8 5E40 60A8            000A8 23746  1 3347.                AL    RJ,PAGFWSI
 0023FC 5040 60A8            000A8 23747  1 3348.                ST    RJ,PAGFWSI
1PAGESERV (PAGE00) (09:42) (22MAR04) Advice for swapping                                                                    Page  153
0Current Usings:  (PAGCB,R6) (ASBPCB,R7) (PAGSWADV,R10) (@PAGSWADV-72,R12) (@LOCKS-72,R13)
0Loc    Object Code    Addr1 Addr2  Stmt Lv Lineno    Source Statement           (Hibal 5, Asmedit 3.3)  HLASM R4.0  2004/03/22 09.42
+___    ______ ____    _____ _____  ____ __ ______    ______ _________
0002400                            23748    3349.              END   ,                       OF More frames waiting swap-in
 002400                            23752    3350.              SLKRL PAGSWAPL,#LCLPSWM       Release swap lock
 002400 D203 D048 6040 00000 00040 23762             +
 002406 58F0 6030/0DEF       00030 23768             +
 00240C 8000 C050      00000       23770             +
                                   23771    3351.
                                   23772    3352.          See if we need to send anyone else out to make room for this
                                   23773    3353.          pending arrival
                                   23774    3354.
 002410 1244/4780 A076       0241C 23775    3355.              IF    (RJ,NZ),BEGIN           AS was out
 002416 58F0 A0B6/0DEF       0245C 23789  1 3356.                ACALL MAKEROOM
 00241C                            23796    3357.              END   ,                       OF AS was out
 00241C 981F C008            00008 23800    3358.              PEND  ,
 DROP   ASBPCB,R7
 DROP   PAGCB,R6
 DROP   @PAGSWADV-72,R12
 DROP   PAGSWADV,R10
 002420 9680 C000/0B0E 00000       23825             +
 DROP   @LOCKS-72,R13
 002426 AC04 021B      0021B       23834    3359.     BADADV   ABORT PAGBADADVICE            Bad swap advice - not out or
 USING  PZERO,R0
 00242A 9680 021A      0021A       23853             +
 00242E 50F0 021C            0021C 23854             +
 002432 58F0 0210            00210 23855             +
 002436 89F0 0010            00010 23856             +
 00243A 88F0 0010            00010 23857             +
 00243E 41F0 F000            00000 23858             +
 002442 AEFF 0006            00006 23859             +
 002446 D7C1C7C2C1C4C1C4           23860             +
 DROP   PZERO,R0
                                   23869    3360.     *                                      already notified
1PAGESERV (PAGE00) (09:42) (22MAR04) MP-ORVYL Real Memory / Paging Manager Services                                         Page  154
0Loc    Object Code    Addr1 Addr2  Stmt Lv Lineno    Source Statement           (Hibal 5, Asmedit 3.3)  HLASM R4.0  2004/03/22 09.42
+___    ______ ____    _____ _____  ____ __ ______    ______ _________
0002458                            23871    3362.              LTORG ,
 002458 00000028                   23873                             =A(PFRESLIM)
 00245C 00001872                   23874                             =A(MAKEROOM)
 002460 00000000                   23875                             =V(SIGNALAS)
 002464 00000000                   23876                             =V(DISPSHLD)
 002468 00000000                   23877                             =V(ASSYSTSK)
 00246C 000075AC                   23878                             =A(WAKELOOK)
 002470 00000000                   23879                             =V(AWAITAS)
 002474 0000367C                   23880                             =A(NVALDASN)
 002478 000031E8                   23881                             =A(SWAPILOG)
 00247C 00000000                   23882                             =V(DISPSIOC)
 002480 00007160                   23883                             =A(CELLGET)
 002484 00006782                   23884                             =A(SWPGET)
 002488 00000010                   23885                             =A(#SWCWRIT)
 00248C 00006958                   23886                             =A(SWPREL)
 002490 00007204                   23887                             =A(CELLFREE)
 002494 00000000                   23888                             =V(IOSDOIO)
 002498 00000000                   23889                             =V(IOSTIME)
 00249C 00000001                   23890                             =A(1)
 0024A0 C2D4C3C2                   23891                             =CL4'BMCB'
 0024A4 0004           024A6 0A6E0 23892                             =Y(L'PGDSLIST)
1PAGESERV (PAGE00) (09:42) (22MAR04) Request to swap an address space in                                                    Page  155
0Loc    Object Code    Addr1 Addr2  Stmt Lv Lineno    Source Statement           (Hibal 5, Asmedit 3.3)  HLASM R4.0  2004/03/22 09.42
+___    ______ ____    _____ _____  ____ __ ______    ______ _________
0                                  23897    3364.     *NEST,1
                                   23898    3365.
                                   23899    3366.
                                   23900    3367.       Request to swap an address space in
                                   23901    3368.
                                   23902    3369.        Input - @PAGSWAP
                                   23903    3370.
                                   23904    3371.       Output - @PAGSWAP
                                   23905    3372.
                                   23906    3373.

0000000                00000 0001E 23907    3374.     #ISWAP   RECORD BEGIN
                                   23915  1 3375.     #ISCB      LHEAD PFX=#ISC                Swap CB queue
                                   23916  1 01-LHEAD +#ISCB      EQU   *,12,C'N'
 000000                            23917  1 01-LHEAD +#ISCFP     DS    A                       Forward pointer
 000004                            23918  1 01-LHEAD +#ISCBP     DS    A                       Backward pointer
 000008                            23919  1 01-LHEAD +#ISCCNT    DS    A                       Number of elements in list
                                   23920  1 3376.     #ISFRAME   LHEAD PFX=#ISF                Frame allocation Q
                                   23921  1 01-LHEAD +#ISFRAME   EQU   *,12,C'N'
 00000C                            23922  1 01-LHEAD +#ISFFP     DS    A                       Forward pointer
 000010                            23923  1 01-LHEAD +#ISFBP     DS    A                       Backward pointer
 000014                            23924  1 01-LHEAD +#ISFCNT    DS    A                       Number of elements in list
 000018                            23925  1 3377.     #ISREC     DS    A                       Reclaimed frame count
 00001C                            23926  1 3378.     #ISPSWM    DS    X                       PSW mask for disabling
 00001D                            23927  1 3379.     #ISLKFLG   DS    X                       Locks for this PCB
 00001E                0001E 0001E 23928    3380.              END   ,
00024A6                            23938    3382.     PAGISWAP PROC  @PAGSWAP,#ISWAP,SCOPE=GLOBAL     Swap address space in
 0024A6 D7C1C7C9E2E6C1D7           23944             +
 0024AE 0008/0020                  23945             +
 0024B2 900F D004/18AF       00004 23947             +
 USING  PAGISWAP,R10
 0024B8 50D0 C000/18CD       00000 23962             +
 0024BE 9680 C000      00000       23964             +
 USING  @PAGSWAP-72,R12
 AUSING (#ISWAP,@PAGSWAP+8)
 0024C2 41D0 C070            00070 23983             +
 0024C6 5860 0200            00200 23984    3383.              PAGAD RPAG
 USING  PZERO,R0
 DROP   PZERO,R0
 USING  MAT,R6
 0024CA 5860 600C            0000C 24018             +
 DROP   MAT,R6
 USING  PAGCB,R6
 0024CE 5870 C048            00000 24040    3384.              L     RPCB,@SWASB             Get PCB addr
 0024D2 5870 7020            00020 24041    3385.              WITH  (ASB,RPCB),'L RPCB,ASBPAGB'
 USING  ASB,R7
 DROP   ASB,R7
 USING  ASBPCB,R7                  24065    3386.              WITH  (ASBPCB,RPCB)
 0024D6 AC04 C06C      0001C       24078    3387.              PAGNTRY ASYNC,#ISPSWM,#ISLKFLG
 USING  @LOCKS-72,R13
 0024DA D203 D048 7018 00000 00018 24098             +
 0024E0 58F0 602C/0DEF       0002C 24104             +
 0024E6 D200 C06D 70B6 0001D 000B6 24106             +
 0024EC 9240 70B6      000B6       24113             +
1PAGESERV (PAGE00) (09:42) (22MAR04) Request to swap an address space in                                                    Page  156
0Current Usings:  (PAGCB,R6) (ASBPCB,R7) (PAGISWAP,R10) (@PAGSWAP-72,R12) (@LOCKS-72,R13)
0Loc    Object Code    Addr1 Addr2  Stmt Lv Lineno    Source Statement           (Hibal 5, Asmedit 3.3)  HLASM R4.0  2004/03/22 09.42
+___    ______ ____    _____ _____  ____ __ ______    ______ _________
00024F0 9180 7022      00022       24123             +
 0024F4 47E0 A04A            024FC 24124             +
 0024F8 9280 70B6      000B6       24136             +
                                   24141    3388.
 0024FC 9200 C04C      00004       24142    3389.              SET   @SWFINP                 Pre set as in progress
 002500 4110 0001            00001 24148    3390.              INCR  RS,PAGMSIRN             | one more swap in requested
 002504 5E10 6270            00270 24152             +
 002508 5010 6270            00270 24153             +
 00250C                            24154    3391.     SWIVAL   BEGIN ,                       Swap-In OK
                                   24159  1 3392.
                                   24160  1 3393.            The frames of swapped out address spaces are controlled by the
                                   24161  1 3394.            PAGSWAPL lock, and so therefore is the state of a swapped out
                                   24162  1 3395.            address space.  (logically swapped, un-reclaimed frames etc)
                                   24163  1 3396.            So we hold the lock when we decide if this AS is in or out.
                                   24164  1 3397.
 00250C                            24165  1 3398.                LKOB  PAGSWAPL
 00250C D203 D048 6040 00000 00040 24174  1          +
 002512 58F0 602C/0DEF       0002C 24180  1          +
                                   24182  1 3399.
                                   24183  1 3400.            If the address space isn't currently swapped out it is an error.
                                   24184  1 3401.            If we weren't previously notified by the dispatcher that this
                                   24185  1 3402.            address space would be coming back in, then that is an error too.
                                   24186  1 3403.
 002518 9120 7022      00022       24187  1 3404.                IF    (NOT,(PCBFSOUT,AND,PCBFNOTE)),PAGISK
 00251C 47E0 A4E0            02992 24201  1          +
 002520 9108 7023      00023       24212  1          +
 002524 47E0 A4E0            02992 24215  1          +
                                   24221  1 3405.
                                   24222  1 3406.            Address space is no longer considered "out"
                                   24223  1 3407.
 002528 94DF 7022      00022       24224  1 3408.                CLEAR PCBFSOUT
                                   24231  1 3409.
                                   24232  1 3410.
                                   24233  1 3411.       Logical swap out
                                   24234  1 3412.
                                          1
000252C 9140 7023      00023       24235  1 3413.                IF    PCBFLOUT,BEGIN          Swap out was logical
 002530 47E0 A10A            025BC 24245  1          +
                                   24250  2 3414.
                                   24251  2 3415.              If the logically-swapped bit and the logical-in-progress bit
                                   24252  2 3416.              are both on, then this AS is in transition.  We simply
                                   24253  2 3417.              mark it as requested-for-swap-in, and it will be brought in
                                   24254  2 3418.              later.
                                   24255  2 3419.
 002534 9120 7023      00023       24256  2 3420.                  IF    PCBFLIP,BEGIN           In state transition
 002538 47E0 A09E            02550 24266  2          +
 00253C 9610 7023      00023       24271  3 3421.                    SET   PCBFRSIN                Set requested-for-swap-in
 002540                            24277  3 3422.                    LKREL PAGSWAPL
 002540 D203 D048 6040 00000 00040 24286  3          +
 002546 58F0 6030/0DEF       00030 24292  3          +
 00254C 9200 C04C      00004       24294  3 3423.                    SET   @SWFINP                 Return swap-in-progress
 002550                            24300  2 3424.                  END   ,                       OF In state transition
 002550 A0A2           02550 0253A 24304  2 3425.                  ELSE  BEGIN                   Only logically swapped
1PAGESERV (PAGE00) (09:42) (22MAR04) Request to swap an address space in                                                    Page  157
0Current Usings:  (PAGCB,R6) (ASBPCB,R7) (PAGISWAP,R10) (@PAGSWAP-72,R12) (@LOCKS-72,R13)
0Loc    Object Code    Addr1 Addr2  Stmt Lv Lineno    Source Statement           (Hibal 5, Asmedit 3.3)  HLASM R4.0  2004/03/22 09.42
+___    ______ ____    _____ _____  ____ __ ______    ______ _________
0002550 47F0 A10A            025BC 24309  2          +
 002554 41E0 6070/1B00       00070 24315  3 3426.                    LREM  PAGLASB,LA:ASBPCB,WR=RS
 00255A 58F0 E008            00008 24350  4          +
 00255E 4110 0001/1BF1       00001 24358  4          +
 002564 4740 A0CE            02580 24369  4          +
 002568 50F0 E008/18F7       00008 24375  4          +
 00256E 180F/58E0 F004       00004 24382  4          +
 002574 58F0 F000            00000 24390  4          +
 002578 50E0 F004            00004 24391  4          +
 00257C 50F0 E000            00000 24392  3          +
 002580 5810 6088            00088 24397  3 3427.                    L     RS,PAGFLS               Fewer logically
 002584 4B10 7064            00064 24398  3 3428.                    SH    RS,PCBSWCNT               swapped
 002588 5010 6088            00088 24399  3 3429.                    ST    RS,PAGFLS                   frames
 00258C 58F0 0200            00200 24400  3 3430.                    L     EPAR,MATPTR             Update paging function num
 USING  MAT,R15                    24401  3 3431.                    WITH  (MAT,EPAR),BEGIN        |
 002590 5810 F0DC            000DC 24415  4 3432.                      L     RS,MATPAGFN             |
 002594 4B10 7064            00064 24416  4 3433.                      SH    RS,PCBSWCNT             |
 002598 5010 F0DC            000DC 24417  4 3434.                      ST    RS,MATPAGFN             |
 DROP   MAT,R15                    24418  3 3435.                    END   ,                       OF Update paging function num
 00259C                            24426  3 3436.                    LKREL PAGSWAPL
 00259C D203 D048 6040 00000 00040 24435  3          +
 0025A2 58F0 6030/0DEF       00030 24441  3          +
 DROP   @LOCKS-72,R13              24443  3 3437.                    PSET  @SWDONE                 Call swap completion rtn
 USING  @SWDONE-72,R13
 0025A8 D703 D048 D048 00000 00000 24463  3          +
 0025AE 5070 D048            00000 24464  3 3438.                    PMOV  @SWDPCB,LA:ASBPCB       |
 0025B2 41F0 AD36/0DEF       031E8 24475  3 3439.                    LCALL SWAPILOG                |
 0025B8 9204 C04C      00004       24484  3 3440.                    SET   @SWFOK                  Swap done
 0025BC                            24490  2 3441.                  END   ,                       OF Only logically swapped
 0025BC                            24494  1 3442.                END   ,                       OF Swap out was logical
                                   24498  1 3443.
                                   24499  1 3444.
                                   24500  1 3445.       Swap out is not logical
                                   24501  1 3446.
                                          1
00025BC A10E           025BC 02532 24502  1 3447.                ELSE  BEGIN                   Swap out not logical
 0025BC 47F0 A48E            02940 24507  1          +
 USING  LHEAD,R3                   24513  2 3448.                  WITH  (LHEAD,RB),BEGIN        Init list heads
 0025C0 4130 C050            00000 24527  3 3449.                    LA    RB,#ISCB                Local control block list
 0025C4 5030 3000            00000 24528  3 3450.                    ST    RB,LHFP
 0025C8 5030 3004            00004 24529  3 3451.                    ST    RB,LHBP
 0025CC                            24530  3 3452.                    CLEAR LHCNT
 0025CC D703 3008 3008 00008 00008 24536  3          +
 0025D2 4130 C05C            0000C 24537  3 3453.                    LA    RB,#ISFRAME             Local frame list
 0025D6 5030 3000            00000 24538  3 3454.                    ST    RB,LHFP
 0025DA 5030 3004            00004 24539  3 3455.                    ST    RB,LHBP
 0025DE                            24540  3 3456.                    CLEAR LHCNT
 0025DE D703 3008 3008 00008 00008 24546  3          +
 DROP   LHEAD,R3                   24547  2 3457.                  END   ,                       OF Init list heads
1PAGESERV (PAGE00) (09:42) (22MAR04) Request to swap an address space in                                                    Page  158
0Current Usings:  (PAGCB,R6) (ASBPCB,R7) (PAGISWAP,R10) (@PAGSWAP-72,R12) (@SWDONE-72,R13)
0Loc    Object Code    Addr1 Addr2  Stmt Lv Lineno    Source Statement           (Hibal 5, Asmedit 3.3)  HLASM R4.0  2004/03/22 09.42
+___    ______ ____    _____ _____  ____ __ ______    ______ _________
0                                  24555  2 3458.
                                   24556  2 3459.              Reclaim frames that have been swapped but haven't been stolen yet
                                   24557  2 3460.
 0025E4 5880 7060            00060 24558  2 3461.                  L     RM,PCBSWCB              Swap control block
 0025E8 4890 7068            00068 24559  2 3462.                  LH    RN,PCBSWCBN              and number of CBs
 0025EC 1B44                       24560  2 3463.                  CLEAR RJ                        and frames represented
 0025EE                            24564  2 3464.                  LOOP  BEGIN                   Reclaim loop
 USING  PGDSWAP,R8                 24570  3 3465.                    WITH  (PGDSWAP,RM)            Swap CB addr
 AUSING (PSCPFX,PGDSWPFX)          24583  3 3466.                    WITH  (PSCPFX,PGDSWPFX)
 AUSING (#SWPDO,PGDSWP)            24590  3 3467.                    WITH  (#SWPDO,PGDSWP)
 0025EE 9180 8028      00028       24597  3 3468.                    IF    (~PGDSFLOUT,AND,PGDSFFALLO),BEGIN Out & not reclaimed
 0025F2 4710 A1A8            0265A 24609  3          +
 0025F6 9140 8028      00028       24620  3          +
 0025FA 47E0 A1A8            0265A 24621  3          +
 0025FE 9120 8028      00028       24626  4 3469.                      IF    ~PGDSFSINP,BEGIN        Not in-progress
 002602 4710 A1A8            0265A 24636  4          +
 002606 41E0 608C/1B00       0008C 24641  5 3470.                        LREM  PAGRSCB,LA:PGDSWAP,WR=RS
 00260C 58F0 E008            00008 24676  6          +
 002610 4110 0001/1BF1       00001 24684  6          +
 002616 4740 A180            02632 24695  6          +
 00261A 50F0 E008/18F8       00008 24701  6          +
 002620 180F/58E0 F004       00004 24708  6          +
 002626 58F0 F000            00000 24716  6          +
 00262A 50E0 F004            00004 24717  6          +
 00262E 50F0 E000            00000 24718  5          +
 002632 4110 C050            00000 24723  5 3471.                        LADD  #ISCB,LA:PGDSWAP,WR=RS
 002636 41E0 0001            00001 24754  5          +
 00263A 5EE0 1008            00008 24755  5          +
 00263E 50E0 1008            00008 24756  5          +
 002642 58E0 1004            00004 24763  5          +
 002646 5080 1004            00004 24769  5          +
 00264A 5010 8000            00000 24770  5          +
 00264E 50E0 8004            00004 24776  5          +
 002652 5080 E000            00000 24777  5          +
 002656 4A40 8038            0000C 24779  5 3472.                        AH    RJ,#SWPCNT
 00265A                            24780  4 3473.                      END   ,                       OF Not in-progress
 00265A                            24784  3 3474.                    END   ,                       OF Out & not reclaimed
 00265A 5880 8018            00018 24788  3 3475.                    L     RM,PGDSWLNK             Next swap control block
 00265E 4690 A13C            025EE 24789  2 3476.                  UNTIL (BCT,RN),END            OF Reclaim loop
 DROP   PGDSWAP,R8
                                   24804  2 3477.
                                   24805  2 3478.              Adjust available frames count
                                   24806  2 3479.
 002662 5040 C068            00018 24807  2 3480.                  ST    RJ,#ISREC               Reclaimed frame cnt
 002666 5880 6098            00098 24808  2 3481.                  L     RM,PAGFRC
 00266A 1F84                       24809  2 3482.                  SLR   RM,RJ
 00266C 5080 6098            00098 24810  2 3483.                  ST    RM,PAGFRC
 002670 5880 6060            00060 24811  2 3484.                  L     RM,PAGFTCNT
 002674                            24812  2 3485.                  LOOP  BEGIN
 002674 1898                       24818  3 3486.                    LR    RN,RM
 002676 1F94                       24819  3 3487.                    SLR   RN,RJ
 002678 BA89 6060            00060 24820  3 3488.                    CS    RM,RN,PAGFTCNT
 00267C 4770 A1C2            02674 24821  2 3489.                  UNTIL EQUAL,END
1PAGESERV (PAGE00) (09:42) (22MAR04) Request to swap an address space in                                                    Page  159
0Current Usings:  (PAGCB,R6) (ASBPCB,R7) (PAGISWAP,R10) (@PAGSWAP-72,R12) (@SWDONE-72,R13)
0Loc    Object Code    Addr1 Addr2  Stmt Lv Lineno    Source Statement           (Hibal 5, Asmedit 3.3)  HLASM R4.0  2004/03/22 09.42
+___    ______ ____    _____ _____  ____ __ ______    ______ _________
0                                  24840  2 3490.
                                   24841  2 3491.              Take off of logical-in-progress queue, as if all was ok
                                   24842  2 3492.
 002680 9120 7023      00023       24843  2 3493.                  IF    PCBFLIP,BEGIN
 002684 47E0 A202            026B4 24853  2          +
 002688 41E0 607C/1B00       0007C 24858  3 3494.                    LREM  PAGLIP,LA:ASBPCB,WR=RS
 00268E 58F0 E008            00008 24893  4          +
 002692 4110 0001/1BF1       00001 24901  4          +
 002698 4740 A202            026B4 24912  4          +
 00269C 50F0 E008/18F7       00008 24918  4          +
 0026A2 180F/58E0 F004       00004 24925  4          +
 0026A8 58F0 F000            00000 24933  4          +
 0026AC 50E0 F004            00004 24934  4          +
 0026B0 50F0 E000            00000 24935  3          +
 0026B4                            24940  2 3495.                  END   ,
                                   24944  2 3496.
                                   24945  2 3497.              Get the frames we need, adding them to a local list
                                   24946  2 3498.              (not on the PCB frame list just yet)
                                   24947  2 3499.
 0026B4 4820 706A            0006A 24948  2 3500.                  LH    RA,PCBSWFS
 0026B8 1222/47D0 A320       027D2 24949  2 3501.                  IF    (RA,POS),BEGIN          Need more frames
 0026BE 5890 60A8            000A8 24963  3 3502.                    L     RN,PAGFWSI              Fewer frames
 0026C2 1B92                       24964  3 3503.                    SR    RN,RA                     waiting for
 0026C4 5090 60A8            000A8 24965  3 3504.                    ST    RN,PAGFWSI                  swap in
 DROP   @SWDONE-72,R13             24966  3 3505.                    LKREL PAGSWAPL
 USING  @LOCKS-72,R13
 0026C8 D203 D048 6040 00000 00040 24985  3          +
 0026CE 58F0 6030/0DEF       00030 24991  3          +
 DROP   @LOCKS-72,R13              24993  3 3506.                    FRAMEGET LA:ASBPCB,LA:ASBPCB,CNT=(RA),TYPE=LOCAL,LA:#ISFRAME
 USING  @FRAMGET-72,R13
 0026D4 D718 D048 D048 00000 00000 25014  3          +
 0026DA 5070 D048            00000 25025  3          +
 0026DE 5020 D050            00008 25035  3          +
 0026E2 9203 D058      00010       25041  3          +
 0026E6 5070 D04C            00004 25052  3          +
 0026EA 4100 C05C            0000C 25064  3          +
 0026EE 5000 D054            0000C 25069  3          +
 0026F2 58F0 AE1E/0DEF       032D0 25075  3          +
                                   25077  3 3507.
                                   25078  3 3508.                Frames not available - return reclaimed swap segments and exit
                                   25079  3 3509.
 0026F8 9180 D060      00018       25080  3 3510.                    IF    ~@FRAOK,BEGIN           Not enough frames avail
 0026FC 4710 A314            027C6 25090  3          +
 DROP   @FRAMGET-72,R13            25095  4 3511.                      LKOB  PAGSWAPL
 USING  @LOCKS-72,R13
 002700 D203 D048 6040 00000 00040 25114  4          +
 002706 58F0 602C/0DEF       0002C 25120  4          +
 00270C 9120 7023      00023       25122  4 3512.                      IF    PCBFLIP,BEGIN           Add back to in-progress Q
 002710 47E0 A286            02738 25132  4          +
 002714 4110 607C            0007C 25137  5 3513.                        LADD  PAGLIP,LA:ASBPCB,WR=RS
 002718 41E0 0001            00001 25168  5          +
 00271C 5EE0 1008            00008 25169  5          +
 002720 50E0 1008            00008 25170  5          +
 002724 58E0 1004            00004 25177  5          +
1PAGESERV (PAGE00) (09:42) (22MAR04) Request to swap an address space in                                                    Page  160
0Current Usings:  (PAGCB,R6) (ASBPCB,R7) (PAGISWAP,R10) (@PAGSWAP-72,R12) (@LOCKS-72,R13)
0Loc    Object Code    Addr1 Addr2  Stmt Lv Lineno    Source Statement           (Hibal 5, Asmedit 3.3)  HLASM R4.0  2004/03/22 09.42
+___    ______ ____    _____ _____  ____ __ ______    ______ _________
0002728 5070 1004            00004 25183  5          +
 00272C 5010 7000            00000 25184  5          +
 002730 50E0 7004            00004 25190  5          +
 002734 5070 E000            00000 25191  5          +
 002738                            25193  4 3514.                      END   ,                       OF Add back to in-progress Q
 002738 5890 60A8            000A8 25197  4 3515.                      L     RN,PAGFWSI              More frames
 00273C 4A90 706A            0006A 25198  4 3516.                      AH    RN,PCBSWFS                waiting for
 002740 5090 60A8            000A8 25199  4 3517.                      ST    RN,PAGFWSI                  swap in
 002744 5890 C058/1B00       00008 25200  4 3518.                      LREMALL #ISCB,LAST=(RB),COUNT=(RN),WR=RS
 00274A 1299/4780 A2B6       02768 25229  4          +
 002750 5000 C058            00008 25235  5          +
 002754 5800 C050            00000 25243  5          +
 002758 5830 C054            00004 25251  5          +
 00275C 4110 C050            00000 25261  5          +
 002760 5010 1000            00000 25262  5          +
 002764 5010 1004            00004 25263  4          +
 002768 1220/4780 A2FC       027AE 25268  4 3519.                      IF    ('LTR RA,RVR',NZ),BEGIN Segments to return
 00276E 4110 608C/18E9       0008C 25281  5 3520.                        LADD  PAGRSCB,(RA),(RB),(RN),WR=RS
 002774 5EE0 1008            00008 25308  5          +
 002778 50E0 1008            00008 25309  5          +
 00277C 58E0 1004            00004 25316  5          +
 002780 5030 1004            00004 25321  5          +
 002784 5010 3000            00000 25322  5          +
 002788 50E0 2004            00004 25327  5          +
 00278C 5020 E000            00000 25328  5          +
                                   25330  5 3521.
                                   25331  5 3522.                    Re-Adjust available frames count
                                   25332  5 3523.
 002790 5840 C068            00018 25333  5 3524.                        L     RJ,#ISREC               Reclaimed frame cnt
 002794 5880 6098            00098 25334  5 3525.                        L     RM,PAGFRC
 002798 1E84                       25335  5 3526.                        ALR   RM,RJ
 00279A 5080 6098            00098 25336  5 3527.                        ST    RM,PAGFRC
 00279E 5880 6060            00060 25337  5 3528.                        L     RM,PAGFTCNT
 0027A2                            25338  5 3529.                        LOOP  BEGIN
 0027A2 1898                       25344  6 3530.                          LR    RN,RM
 0027A4 1E94                       25345  6 3531.                          ALR   RN,RJ
 0027A6 BA89 6060            00060 25346  6 3532.                          CS    RM,RN,PAGFTCNT
 0027AA 4770 A2F0            027A2 25347  5 3533.                        UNTIL EQUAL,END
 0027AE                            25366  4 3534.                      END   ,                       OF Segments to return
 0027AE 9208 C04C      00004       25370  4 3535.                      SET   @SWFWAIT                Say we must wait to swap
 0027B2 9620 7022      00022       25376  4 3536.                      SET   PCBFSOUT                  and AS is still out
 0027B6                            25382  4 3537.                      LKREL PAGSWAPL
 0027B6 D203 D048 6040 00000 00040 25391  4          +
 0027BC 58F0 6030/0DEF       00030 25397  4          +
 0027C2 47F0 A48E            02940 25399  4 3538.                      EXIT  SWIVAL
 0027C6                            25402  3 3539.                    END   ,                       OF Not enough frames avail
 0027C6                            25406  3 3540.                    LKOB  PAGSWAPL
 0027C6 D203 D048 6040 00000 00040 25415  3          +
 0027CC 58F0 602C/0DEF       0002C 25421  3          +
 0027D2                            25423  2 3541.                  END   ,                       OF Need more frames
1PAGESERV (PAGE00) (09:42) (22MAR04) Request to swap an address space in                                                    Page  161
0Current Usings:  (PAGCB,R6) (ASBPCB,R7) (PAGISWAP,R10) (@PAGSWAP-72,R12) (@LOCKS-72,R13)
0Loc    Object Code    Addr1 Addr2  Stmt Lv Lineno    Source Statement           (Hibal 5, Asmedit 3.3)  HLASM R4.0  2004/03/22 09.42
+___    ______ ____    _____ _____  ____ __ ______    ______ _________
0                                  25427  2 3542.
                                   25428  2 3543.              Make note that a swap in has been requested
                                   25429  2 3544.
 0027D2 9610 7023      00023       25430  2 3545.                  SET   PCBFRSIN
 0027D6 94DF 7023      00023       25436  2 3546.                  CLEAR PCBFLIP                 PCB not logical in-progress
                                   25443  2 3547.
                                   25444  2 3548.              Move non-reclaimed segments to local PCB list
                                   25445  2 3549.
 0027DA 5890 C058/1B00       00008 25446  2 3550.                  LREMALL #ISCB,LAST=(RB),COUNT=(RN),WR=RS
 0027E0 1299/4780 A34C       027FE 25475  2          +
 0027E6 5000 C058            00008 25481  3          +
 0027EA 5800 C050            00000 25489  3          +
 0027EE 5830 C054            00004 25497  3          +
 0027F2 4110 C050            00000 25507  3          +
 0027F6 5010 1000            00000 25508  3          +
 0027FA 5010 1004            00004 25509  2          +
 0027FE 1220/4780 A374       02826 25514  2 3551.                  IF    ('LTR RA,RVR',NZ),BEGIN Segments to return
 002804 4110 706C/18E9       0006C 25527  3 3552.                    LADD  PCBSWIN,(RA),(RB),(RN),WR=RS
 00280A 5EE0 1008            00008 25554  3          +
 00280E 50E0 1008            00008 25555  3          +
 002812 58E0 1004            00004 25562  3          +
 002816 5030 1004            00004 25567  3          +
 00281A 5010 3000            00000 25568  3          +
 00281E 50E0 2004            00004 25573  3          +
 002822 5020 E000            00000 25574  3          +
 002826                            25576  2 3553.                  END   ,                       OF Segments to return
                                   25580  2 3554.
                                   25581  2 3555.              Read frames that have been stolen, and account for frames
                                   25582  2 3556.
 002826 5880 7060            00060 25583  2 3557.                  L     RM,PCBSWCB              Swap control block
 00282A 4890 7068            00068 25584  2 3558.                  LH    RN,PCBSWCBN              and number of CBs
 00282E 1B44                       25585  2 3559.                  CLEAR RJ                        logical frames taken back
 002830                            25589  2 3560.                  LOOP  BEGIN                   Reclaim loop
 USING  PGDSWAP,R8                 25595  3 3561.                    WITH  (PGDSWAP,RM)            Swap CB addr
 AUSING (PSCPFX,PGDSWPFX)          25608  3 3562.                    WITH  (PSCPFX,PGDSWPFX)
 AUSING (#SWPDO,PGDSWP)            25615  3 3563.                    WITH  (#SWPDO,PGDSWP)
 002830 9180 8028      00028       25622  3 3564.                    IF    PGDSFLOUT,BEGIN         Segment is logically out
 002834 47E0 A38A            0283C 25632  3          +
 002838 4A40 8038            0000C 25637  4 3565.                      AH    RJ,#SWPCNT
 00283C                            25638  3 3566.                    END   ,                       OF Segment is logically out
                                   25642  3 3567.
                                   25643  3 3568.                Read in segments that are really gone
                                   25644  3 3569.
 00283C A38E           0283C 02836 25645  3 3570.                    ELSEIF ~PGDSFFALLO,BEGIN      No frames left
 00283C 47F0 A436            028E8 25651  3          +
 002840 9140 8028      00028       25663  3          +
 002844 4710 A436            028E8 25664  3          +
 002848 4850 8038            0000C 25669  4 3571.                      LH    RK,#SWPCNT
 00284C 41E0 C05C/1B00       0000C 25670  4 3572.                      LREM  #ISFRAME,,LAST=(RB),(RK),WR=RS
 002852 58F0 E008/1215       00008 25706  5          +
 002858 47D0 A3CE/1BF1       02880 25718  5          +
 00285E 4740 A3CE            02880 25734  5          +
 002862 50F0 E008            00008 25740  5          +
 002866 58F0 E000/180F       00000 25747  5          +
1PAGESERV (PAGE00) (09:42) (22MAR04) Request to swap an address space in                                                    Page  162
0Current Usings:  (PAGCB,R6) (ASBPCB,R7) (PGDSWAP,R8) (PAGISWAP,R10) (@PAGSWAP-72,R12) (@LOCKS-72,R13)
0Loc    Object Code    Addr1 Addr2  Stmt Lv Lineno    Source Statement           (Hibal 5, Asmedit 3.3)  HLASM R4.0  2004/03/22 09.42
+___    ______ ____    _____ _____  ____ __ ______    ______ _________
000286C 58F0 F000            00000 25755  5          +
 002870 4610 A3BA            0286C 25761  5          +
 002874 5830 F004            00004 25768  5          +
 002878 50E0 F004            00004 25769  5          +
 00287C 50F0 E000            00000 25770  4          +
 002880 1220                       25775  4 3573.                      LTR   RA,RVR
 002882 4770 A404            028B6 25776  4 3574.                      IF    ZERO,'ABORT PAGISFRAME'
 USING  PZERO,R0
 002886 AC04 021B      0021B       25800  5          +
 00288A 9680 021A      0021A       25806  5          +
 00288E 50F0 021C            0021C 25807  5          +
 002892 58F0 0210            00210 25808  5          +
 002896 89F0 0010            00010 25809  5          +
 00289A 88F0 0010            00010 25810  5          +
 00289E 41F0 F000            00000 25811  5          +
 0028A2 AEFF 0006            00006 25812  5          +
 0028A6 D7C1C7C9E2C6D9C1           25813  4          +
 DROP   PZERO,R0
 0028B6 4110 801C/18E5       0001C 25826  4 3575.                      LADD  PGDSWFRA,(RA),(RB),(RK),WR=RS
 0028BC 5EE0 1008            00008 25853  4          +
 0028C0 50E0 1008            00008 25854  4          +
 0028C4 58E0 1004            00004 25861  4          +
 0028C8 5030 1004            00004 25866  4          +
 0028CC 5010 3000            00000 25867  4          +
 0028D0 50E0 2004            00004 25872  4          +
 0028D4 5020 E000            00000 25873  4          +
 DROP   @LOCKS-72,R13              25875  4 3576.                      PSET  @SWAPIN
 USING  @SWAPIN-72,R13
 0028D8 D703 D048 D048 00000 00000 25895  4          +
 0028DE 5080 D048            00000 25896  4 3577.                      PMOV  @SWICB,LA:PGDSWAP
 0028E2 41F0 A51C/0DEF       029CE 25907  4 3578.                      LCALL SWAPIN
 0028E8                            25916  3 3579.                    END   ,                       OF No frames left
 0028E8 5880 8018            00018 25920  3 3580.                    L     RM,PGDSWLNK             Next swap control block
 0028EC 4690 A37E            02830 25921  2 3581.                  UNTIL (BCT,RN),END            OF Reclaim loop
 DROP   PGDSWAP,R8
                                   25936  2 3582.
                                   25937  2 3583.              Adjust frame counts for this swap in
                                   25938  2 3584.
 0028F0 5880 6088            00088 25939  2 3585.                  L     RM,PAGFLS               Logically swapped frames
 0028F4 1F84                       25940  2 3586.                  SLR   RM,RJ
 0028F6 5080 6088            00088 25941  2 3587.                  ST    RM,PAGFLS
 0028FA 5E40 C068            00018 25942  2 3588.                  AL    RJ,#ISREC               Total of frames taken
 0028FE 5890 0200            00200 25943  2 3589.                  L     RN,MATPTR
 USING  MAT,R9                     25944  2 3590.                  WITH  (MAT,RN),BEGIN          Addr to MAT
 002902 5880 90DC            000DC 25958  3 3591.                    L     RM,MATPAGFN             Paging function number
 002906 1F84                       25959  3 3592.                    SLR   RM,RJ
 002908 5080 90DC            000DC 25960  3 3593.                    ST    RM,MATPAGFN
 DROP   MAT,R9                     25961  2 3594.                  END   ,                       OF Addr to MAT
 DROP   @SWAPIN-72,R13             25969  2 3595.                  LKREL PAGSWAPL
 USING  @LOCKS-72,R13
 00290C D203 D048 6040 00000 00040 25988  2          +
 002912 58F0 6030/0DEF       00030 25994  2          +
1PAGESERV (PAGE00) (09:42) (22MAR04) Request to swap an address space in                                                    Page  163
0Current Usings:  (PAGCB,R6) (ASBPCB,R7) (PAGISWAP,R10) (@PAGSWAP-72,R12) (@LOCKS-72,R13)
0Loc    Object Code    Addr1 Addr2  Stmt Lv Lineno    Source Statement           (Hibal 5, Asmedit 3.3)  HLASM R4.0  2004/03/22 09.42
+___    ______ ____    _____ _____  ____ __ ______    ______ _________
0                                  25996  2 3596.
                                   25997  2 3597.              If all of the swap CBs are on the local swapped-in Q, we're
                                   25998  2 3598.              done.
                                   25999  2 3599.
 002918 4890 7068            00068 26000  2 3600.                  LH    RN,PCBSWCBN
 00291C 5990 7074            00074 26001  2 3601.                  IF    (RN,EQ,PCBSICNT),BEGIN  All ready to go
 002920 4770 A486            02938 26013  2          +
 DROP   @LOCKS-72,R13              26018  3 3602.                    PSET  @SWDONE
 USING  @SWDONE-72,R13
 002924 D703 D048 D048 00000 00000 26038  3          +
 00292A 5070 D048            00000 26039  3 3603.                    PMOV  @SWDPCB,LA:ASBPCB
 00292E 41F0 A7E6/0DEF       02C98 26050  3 3604.                    LCALL SWAPIDONE
 002934 9204 C04C      00004       26059  3 3605.                    SET   @SWFOK                  Ready to go
 002938                            26065  2 3606.                  END   ,                       OF All ready to go
                                   26069  2 3607.
                                   26070  2 3608.              Not quite ready yet.  Say the swap is in progress.
                                   26071  2 3609.
 002938 A48A           02938 02922 26072  2 3610.                  ELSE  BEGIN                   Swap is in progress
 002938 47F0 A48E            02940 26077  2          +
 00293C 9200 C04C      00004       26083  3 3611.                    SET   @SWFINP
 002940                            26089  2 3612.                  END   ,                       OF Swap is in progress
 002940                            26093  1 3613.                END   ,                       OF Swap out not logical
 002940                            26097    3614.              END   ,                       OF Swap-In OK
 002940 4310 70B6            000B6 26101    3615.              PAGXIT ASYNC,#ISPSWM,#ISLKFLG,WR=RS
 002944 D200 70B6 C06D 000B6 0001D 26105             +
 00294A 4210 C06D            0001D 26106             +
 00294E 9180 C06D      0001D       26116             +
 002952 47E0 A4B8            0296A 26117             +
 002956 5850 6018            00018 26122  1          +
 USING  ASB,R5
 00295A 5850 5020            00020 26138  1          +
 DROP   ASB,R5
 DROP   ASBPCB,R7
 USING  ASBPCB,R5
 DROP   @SWDONE-72,R13
 USING  @LOCKS-72,R13
 00295E D203 D048 5018 00000 00018 26191  2          +
 002964 58F0 6030/0DEF       00030 26197             +
 USING  ASBPCB,R7
 DROP   ASBPCB,R5
 00296A 9140 C06D      0001D       26229             +
 00296E 47E0 A4CC            0297E 26230             +
 002972 D203 D048 7018 00000 00018 26244  1          +
 002978 58F0 6030/0DEF       00030 26250             +
 00297E 8000 C06C      0001C       26256             +
                                   26257    3616.
                                   26258    3617.          Call the make-room routine when all locks are freed
                                   26259    3618.
 002982 58F0 AE22/0DEF       032D4 26260    3619.              ACALL MAKEROOM
 002988 981F C008            00008 26267    3620.              PEND  ,
 DROP   ASBPCB,R7
 DROP   PAGCB,R6
 DROP   @PAGSWAP-72,R12
 DROP   PAGISWAP,R10
1PAGESERV (PAGE00) (09:42) (22MAR04) Request to swap an address space in                                                    Page  164
0Loc    Object Code    Addr1 Addr2  Stmt Lv Lineno    Source Statement           (Hibal 5, Asmedit 3.3)  HLASM R4.0  2004/03/22 09.42
+___    ______ ____    _____ _____  ____ __ ______    ______ _________
000298C 9680 C000/0B0E 00000       26292             +
 DROP   @LOCKS-72,R13
                                   26301    3621.     *NEST,2
 002992 AC04 021B      0021B       26302    3622.     PAGISK   ABORT PAGISWAP                Swapping in before swapped out
 USING  PZERO,R0
 002996 9680 021A      0021A       26321             +
 00299A 50F0 021C            0021C 26322             +
 00299E 58F0 0210            00210 26323             +
 0029A2 89F0 0010            00010 26324             +
 0029A6 88F0 0010            00010 26325             +
 0029AA 41F0 F000            00000 26326             +
 0029AE AEFF 0006            00006 26327             +
 0029B2 D7C1C7C9E2E6C1D7           26328             +
 DROP   PZERO,R0
1PAGESERV (PAGE00) (09:42) (22MAR04) Do I/O to swap in segment                                                              Page  165
0Loc    Object Code    Addr1 Addr2  Stmt Lv Lineno    Source Statement           (Hibal 5, Asmedit 3.3)  HLASM R4.0  2004/03/22 09.42
+___    ______ ____    _____ _____  ____ __ ______    ______ _________
0                                  26338    3624.
                                   26339    3625.
                                   26340    3626.        Do the I/O to swap in a segment that has been swapped out
                                   26341    3627.
                                   26342    3628.        Input -    @SWICB
                                   26343    3629.
                                   26344    3630.       Output -
                                   26345    3631.
                                   26346    3632.

0000000                00000 00004 26347    3633.     @SWAPIN  RECORD BEGIN
 000000                            26355  1 3634.     @SWICB     DS    A                       Address of Swap CB
 000004                00004 00004 26356    3635.              END   ,
00029C2                            26366    3637.     SWAPIN   PROC  @SWAPIN
 0029C2 E2E6C1D7C9D54040           26373             +
 0029CA 0008/0000                  26374             +
 0029CE 900F D004/18AF       00004 26376             +
 USING  SWAPIN,R10
 0029D4 50D0 C000/18CD       00000 26391             +
 0029DA 9680 C000      00000       26393             +
 USING  @SWAPIN-72,R12
 0029DE 41D0 C050            00050 26407             +
 0029E2 5860 0200            00200 26408    3638.              PAGAD RPAG
 USING  PZERO,R0
 DROP   PZERO,R0
 USING  MAT,R6
 0029E6 5860 600C            0000C 26442             +
 DROP   MAT,R6
 USING  PAGCB,R6
 0029EA 5880 C048            00000 26464    3639.              L     RM,@SWICB
 USING  PGDSWAP,R8                 26465    3640.              WITH  (PGDSWAP,RM)
 AUSING (PSCPFX,PGDSWPFX)          26478    3641.              WITH  (PSCPFX,PGDSWPFX)
 AUSING (#SWPDO,PGDSWP)            26485    3642.              WITH  (#SWPDO,PGDSWP)
 0029EE 5870 8014            00014 26492    3643.              L     RPCB,PSCASB
 USING  ASB,R7                     26493    3644.              WITH  (ASB,RPCB)
                                   26506    3645.
                                   26507    3646.          Put frame pointers in swap control blocks
                                   26508    3647.
 0029F2 4890 8038            0000C 26509    3648.              LH    RN,#SWPCNT              Number of frames
 0029F6 5850 801C            0001C 26510    3649.              L     RK,PGDSWFP              First frame
 0029FA 4120 8040            00040 26511    3650.              LA    RA,PGDSWEXT
 0029FE                            26512    3651.              LOOP  BEGIN                   Put frame pointers in extents
 USING  PFTE,R5                    26518  1 3652.                WITH  (PFTE,RK)
 USING  PGDSLIST,R2                26531  1 3653.                WITH  (PGDSLIST,RA)
                                   26544  1 3654.
                                   26545  1 3655.            Put frame pointers in this swap control block extent,
                                   26546  1 3656.            and set the keys of the page frames for I/O read
                                   26547  1 3657.
 0029FE 18E5                       26548  1 3658.               $LA    RAR,PFTE                Compute real addr
 002A00 5FE0 6044            00044 26555  1 3659.                SL    RAR,PAGPFTO             |
 002A04 89E0 0007            00007 26556  1 3660.                SLL   RAR,L'PAGPAGM-PFTLOG    |
 002A08 50E0 2000            00000 26557  1 3661.                ST    RAR,PGDSLAD             Save real addr
 002A0C 41F0 00F0            000F0 26558  1 3662.                LA    EPAR,CPAGIOKEY          Set Key
 002A10 B22B 00FE                  26559  1 3663.                SSKE  EPAR,RAR                |
1PAGESERV (PAGE00) (09:42) (22MAR04) Do I/O to swap in segment                                                              Page  166
0Current Usings:  (PGDSLIST,R2) (PFTE,R5) (PAGCB,R6) (ASB,R7) (PGDSWAP,R8) (SWAPIN,R10) (@SWAPIN-72,R12)
0Loc    Object Code    Addr1 Addr2  Stmt Lv Lineno    Source Statement           (Hibal 5, Asmedit 3.3)  HLASM R4.0  2004/03/22 09.42
+___    ______ ____    _____ _____  ____ __ ______    ______ _________
0002A14 5850 5000            00000 26560  1 3664.                L     RK,PFTFP
 002A18 4120 2004            00004 26561  1 3665.                LA    RA,PGDSLNXT
 002A1C 4690 A030            029FE 26562    3666.              UNTIL (BCT,RN),END            OF Put frame pointers in extents
 DROP   PGDSLIST,R2
 DROP   PFTE,R5
 002A20 4B20 A94E            0331C 26582    3667.              SH    RA,=Y(L'PGDSLIST)
 002A24 9680 2000      00000       26583    3668.              WITH  (PGDSLIST,RA),'SET PGDSLAX'      Set as last frame
 USING  PGDSLIST,R2
 DROP   PGDSLIST,R2
1PAGESERV (PAGE00) (09:42) (22MAR04) Do I/O to swap in segment                                                              Page  167
0Current Usings:  (PAGCB,R6) (ASB,R7) (PGDSWAP,R8) (SWAPIN,R10) (@SWAPIN-72,R12)
0Loc    Object Code    Addr1 Addr2  Stmt Lv Lineno    Source Statement           (Hibal 5, Asmedit 3.3)  HLASM R4.0  2004/03/22 09.42
+___    ______ ____    _____ _____  ____ __ ______    ______ _________
0                                  26613    3670.
                                   26614    3671.          DO THE SWAP IO
                                   26615    3672.
 002A28 9620 8028      00028       26616    3673.              SET   PGDSFSINP               Swap in progress
 002A2C 5820 8010            00010 26622    3674.              L     RA,PSCDEV               Get swap data set ID
 USING  DSDES,R2                   26623    3675.              WITH  (DSDES,RA),BEGIN
 002A30                            26637  1 3676.                IF    (DSAID,NE,=CL4'BMCB'),'ABORT BADBMID'
 002A30 D503 A90A 2000 032D8 00000 26648  1          +
 002A36 4780 A09C            02A6A 26649  1          +
 USING  PZERO,R0
 002A3A AC04 021B      0021B       26667  2          +
 002A3E 9680 021A      0021A       26673  2          +
 002A42 50F0 021C            0021C 26674  2          +
 002A46 58F0 0210            00210 26675  2          +
 002A4A 89F0 0010            00010 26676  2          +
 002A4E 88F0 0010            00010 26677  2          +
 002A52 41F0 F000            00000 26678  2          +
 002A56 AEFF 0006            00006 26679  2          +
 002A5A C2C1C4C2D4C9C440           26680  1          +
 DROP   PZERO,R0
 002A6A 5820 2014            00014 26693  1 3677.                L     RA,DSCHID
 DROP   DSDES,R2                   26694    3678.              END   ,
                                   26702    3679.
                                   26703    3680.          Set parameters to do Swap-In I/O
                                   26704    3681.
 002A6E                            26705    3682.              PMOV  #SWPDCMD,=A(#SWCREAD)
 002A6E D203 802C A90E 00000 032DC 26709             +
 USING  PZERO,R0                   26710    3683.              USING PZERO,R0
 USING  @IOSDOIO-72,R13            26719    3684.              PSET  @IOSDOIO                Call IO Supervisor
 002A74 D71D D048 D048 00000 00000 26736             +
 002A7A 5020 D048            00000 26737    3685.              PMOV  @IOSCHID,(RA)           | channel ID
 002A7E 4100 802C            00000 26747    3686.              PMOV  @IOSCP,LA:#SWPDO        |
 002A82 5000 D058            00010 26763             +
 002A86                            26764    3687.              PMOV  @IOSID,PSCIO            | I/O supervisor ID
 002A86 D203 D04C 800C 00004 0000C 26768             +
 002A8C 5070 D050            00008 26769    3688.              PMOV  @IOSPID,LA:ASB,LEFTADJ=YES
 002A90 4100 A12C            02AFA 26780    3689.              PMOV  @IOSXID,LA:PAGISEND     | return addr
 002A94 5000 D05C            00014 26796             +
 002A98 5080 D060            00018 26797    3690.              PMOV  @IOSXPAR,LA:PGDSWAP     |
 002A9C 4100 00F0            000F0 26808    3691.              PMOV  @IOSKEY,LA:CPAGIOKEY    | key of I/O
 002AA0 4200 D064            0001C 26824             +
 002AA4 9620 D065      0001D       26825    3692.              SET   @IOSFAST                | fast path I/O
 002AA8 58F0 A912/0DEF       032E0 26831    3693.              VCALL IOSDOIO                 |
 DROP   PZERO,R0                   26835    3694.              DROP  R0
 002AAE 1200/4770 A0F0       02ABE 26843    3695.              IF    (RVR,NZ),PAGISK2
 002AB4 981F C008            00008 26860    3696.              PEND  ,
 DROP   ASB,R7
 DROP   PGDSWAP,R8
 DROP   PAGCB,R6
 DROP   @SWAPIN-72,R12
 DROP   SWAPIN,R10
 002AB8 9680 C000/0B0E 00000       26890             +
 DROP   @IOSDOIO-72,R13
                                   26899    3697.
1PAGESERV (PAGE00) (09:42) (22MAR04) Do I/O to swap in segment                                                              Page  168
0Current Usings:  (PZERO,R0)
0Loc    Object Code    Addr1 Addr2  Stmt Lv Lineno    Source Statement           (Hibal 5, Asmedit 3.3)  HLASM R4.0  2004/03/22 09.42
+___    ______ ____    _____ _____  ____ __ ______    ______ _________
0002ABE AC04 021B      0021B       26900    3698.     PAGISK2  ABORT PAGISIO                 I/O invalid
 USING  PZERO,R0
 002AC2 9680 021A      0021A       26919             +
 002AC6 50F0 021C            0021C 26920             +
 002ACA 58F0 0210            00210 26921             +
 002ACE 89F0 0010            00010 26922             +
 002AD2 88F0 0010            00010 26923             +
 002AD6 41F0 F000            00000 26924             +
 002ADA AEFF 0006            00006 26925             +
 002ADE D7C1C7C9E2C9D640           26926             +
 DROP   PZERO,R0
1PAGESERV (PAGE00) (09:42) (22MAR04) Swap-in I/O completion routine                                                         Page  169
0Loc    Object Code    Addr1 Addr2  Stmt Lv Lineno    Source Statement           (Hibal 5, Asmedit 3.3)  HLASM R4.0  2004/03/22 09.42
+___    ______ ____    _____ _____  ____ __ ______    ______ _________
0                                  26936    3700.
                                   26937    3701.
                                   26938    3702.       Swap in IO completion routine
                                   26939    3703.
                                   26940    3704.        Input - @IOTERM
                                   26941    3705.
                                   26942    3706.       Output -
                                   26943    3707.
                                   26944    3708.

0002AEE                            26946    3710.     PAGISEND PROC  @IOTERM,#PAGE           Swap in IO completion
 002AEE D7C1C7C9E2C5D5C4           26953             +
 002AF6 0008/0008                  26954             +
 002AFA 900F D004/18AF       00004 26956             +
 USING  PAGISEND,R10
 002B00 50D0 C000/18CD       00000 26971             +
 002B06 9680 C000      00000       26973             +
 USING  @IOTERM-72,R12
 AUSING (#PAGE,@IOTERM+8)
 002B0A 41D0 C058            00058 26992             +
 002B0E 5820 C04C/1222       00004 26993    3711.              IF    ('LT RA,@IOTEND',NZ),'ABORT PAGSWIN'
 002B14 4780 A04E            02B48 27004             +
 USING  PZERO,R0
 002B18 AC04 021B      0021B       27022  1          +
 002B1C 9680 021A      0021A       27028  1          +
 002B20 50F0 021C            0021C 27029  1          +
 002B24 58F0 0210            00210 27030  1          +
 002B28 89F0 0010            00010 27031  1          +
 002B2C 88F0 0010            00010 27032  1          +
 002B30 41F0 F000            00000 27033  1          +
 002B34 AEFF 0006            00006 27034  1          +
 002B38 D7C1C7E2E6C9D540           27035             +
 DROP   PZERO,R0
 002B48 5860 0200            00200 27048    3712.              PAGAD RPAG
 USING  PZERO,R0
 DROP   PZERO,R0
 USING  MAT,R6
 002B4C 5860 600C            0000C 27082             +
 DROP   MAT,R6
 USING  PAGCB,R6
 002B50 5850 C048            00000 27104    3713.              L     RK,@IOTPARM
 USING  PGDSWAP,R5                 27105    3714.              WITH  (PGDSWAP,RK),BEGIN      Addr to swap CB
 AUSING (PSCPFX,PGDSWPFX)          27119  1 3715.                WITH  (PSCPFX,PGDSWPFX)
 002B54 5870 5014            00014 27126  1 3716.                L     RPCB,PSCASB
 002B58 5870 7020            00020 27127  1 3717.                WITH  (ASB,RPCB),'L RPCB,ASBPAGB'
 USING  ASB,R7
 DROP   ASB,R7
 USING  ASBPCB,R7                  27151  1 3718.                WITH  (ASBPCB,RPCB)
                                   27164  1 3719.
                                   27165  1 3720.            Gather stats
                                   27166  1 3721.
 USING  @IOSTIME-72,R13            27167  1 3722.                PSET  @IOSTIME
 002B5C D70F D048 D048 00000 00000 27184  1          +
 002B62                            27185  1 3723.                PMOV  @IOSTID,PSCIO
 002B62 D203 D048 500C 00000 0000C 27189  1          +
1PAGESERV (PAGE00) (09:42) (22MAR04) Swap-in I/O completion routine                                                         Page  170
0Current Usings:  (PGDSWAP,R5) (PAGCB,R6) (ASBPCB,R7) (PAGISEND,R10) (@IOTERM-72,R12) (@IOSTIME-72,R13)
0Loc    Object Code    Addr1 Addr2  Stmt Lv Lineno    Source Statement           (Hibal 5, Asmedit 3.3)  HLASM R4.0  2004/03/22 09.42
+___    ______ ____    _____ _____  ____ __ ______    ______ _________
0002B68 58F0 A7EA/0DEF       032E4 27190  1 3724.                VCALL IOSTIME
                                   27194  1 3725.
 002B6E 4110 0001            00001 27195  1 3726.                INCR  RS,PAGMSIN              One more swap in
 002B72 5E10 6278            00278 27199  1          +
 002B76 5010 6278            00278 27200  1          +
 002B7A 9889 D050            00008 27201  1 3727.                LM    RM,RN,@IOSIOTIME        Total time
                                   27202  1 3728.                REGCH (RVR,R0),(RS,R1)
 002B7E 9801 6280            00280 27203  1 3729.                LM    RVR,RS,PAGMSITM         |
 002B82 1E91/47C0 A092       02B8C 27204  1 3730.                ADLR  RM,RVR                  |
 002B88 5E80 A7EE/1E80       032E8 27219  1          +
 002B8E 9089 6280            00280 27225  1 3731.                STM   RM,RN,PAGMSITM          |
                                   27226  1 3732.
 002B92 5840 5010            00010 27227  1 3733.                L     RJ,PSCDEV
 USING  DSDES,R4                   27228  1 3734.                WITH  (DSDES,RJ),BEGIN        DSDES addr
 002B96                            27242  2 3735.                  IF    (DSAID,NE,=CL4'BMCB'),'ABORT BADBMID'
 002B96 D503 A7DE 4000 032D8 00000 27253  2          +
 002B9C 4780 A0D6            02BD0 27254  2          +
 USING  PZERO,R0
 002BA0 AC04 021B      0021B       27272  3          +
 002BA4 9680 021A      0021A       27278  3          +
 002BA8 50F0 021C            0021C 27279  3          +
 002BAC 58F0 0210            00210 27280  3          +
 002BB0 89F0 0010            00010 27281  3          +
 002BB4 88F0 0010            00010 27282  3          +
 002BB8 41F0 F000            00000 27283  3          +
 002BBC AEFF 0006            00006 27284  3          +
 002BC0 C2C1C4C2D4C9C440           27285  2          +
 DROP   PZERO,R0
 002BD0 4110 0001            00001 27298  2 3736.                  INCR  RS,DSINCNT              Another swap in this device
 002BD4 5E10 4020            00020 27302  2          +
 002BD8 5010 4020            00020 27303  2          +
 002BDC 9889 D050            00008 27304  2 3737.                  LM    RM,RN,@IOSIOTIME        Total time
                                   27305  2 3738.                  REGCH (RVR,R0),(RS,R1)
 002BE0 9801 4028            00028 27306  2 3739.                  LM    RVR,RS,DSINTIME         |
 002BE4 1E91/47C0 A0F4       02BEE 27307  2 3740.                  ADLR  RM,RVR                  |
 002BEA 5E80 A7EE/1E80       032E8 27322  2          +
 002BF0 9089 4028            00028 27328  2 3741.                  STM   RM,RN,DSINTIME          |
 DROP   DSDES,R4                   27329  1 3742.                END   ,                       OF DSDES addr
                                   27337  1 3743.
 AUSING (#SWPDO,PGDSWP)            27338  1 3744.                WITH  (#SWPDO,PGDSWP),BEGIN
 002BF4 4810 5038            0000C 27348  2 3745.                  LH    RS,#SWPCNT              Count frames swapped in
 002BF8 5E10 627C            0027C 27349  2 3746.                  AL    RS,PAGMSIF              |
 002BFC 5010 627C            0027C 27350  2 3747.                  ST    RS,PAGMSIF              |
                                   27351  1 3748.                END   ,
                                   27354  1 3749.
                                   27355  1 3750.            Add swap CB to Paging control block
                                   27356  1 3751.
 002C00 AC04 C051      00001       27357  1 3752.                SLKOB PAGSWAPL,#PAGPSWM
 DROP   @IOSTIME-72,R13
 USING  @LOCKS-72,R13
 002C04 D203 D048 6040 00000 00040 27378  1          +
 002C0A 58F0 602C/0DEF       0002C 27384  1          +
 002C10 94DF 5028      00028       27386  1 3753.                CLEAR PGDSFSINP               No longer in progress
 002C14 4110 706C            0006C 27393  1 3754.                LADD  PCBSWIN,LA:PGDSWAP,WR=RS
1PAGESERV (PAGE00) (09:42) (22MAR04) Swap-in I/O completion routine                                                         Page  171
0Current Usings:  (PGDSWAP,R5) (PAGCB,R6) (ASBPCB,R7) (PAGISEND,R10) (@IOTERM-72,R12) (@LOCKS-72,R13)
0Loc    Object Code    Addr1 Addr2  Stmt Lv Lineno    Source Statement           (Hibal 5, Asmedit 3.3)  HLASM R4.0  2004/03/22 09.42
+___    ______ ____    _____ _____  ____ __ ______    ______ _________
0002C18 41E0 0001            00001 27424  1          +
 002C1C 5EE0 1008            00008 27425  1          +
 002C20 50E0 1008            00008 27426  1          +
 002C24 58E0 1004            00004 27433  1          +
 002C28 5050 1004            00004 27439  1          +
 002C2C 5010 5000            00000 27440  1          +
 002C30 50E0 5004            00004 27446  1          +
 002C34 5050 E000            00000 27447  1          +
 002C38 1B22                       27449  1 3755.                CLEAR RA
 002C3A 4830 7068            00068 27453  1 3756.                LH    RB,PCBSWCBN             Are all CBs in core?
 002C3E 5930 7074            00074 27454  1 3757.                IF    (RB,EQ,PCBSICNT),'LA RA,1'
 002C42 4770 A150            02C4A 27466  1          +
 002C46 4120 0001            00001 27472  1          +
 002C4A                            27477  1 3758.                SLKRL PAGSWAPL,#PAGPSWM
 002C4A D203 D048 6040 00000 00040 27487  1          +
 002C50 58F0 6030/0DEF       00030 27493  1          +
 002C56 8000 C051      00001       27495  1          +
 002C5A 1222/4780 A188       02C82 27496  1 3759.                IF    (RA,NZ),BEGIN           Call swap completed rtn
 DROP   @LOCKS-72,R13              27510  2 3760.                  PSET  @SWDONE
 USING  @SWDONE-72,R13
 002C60 D703 D048 D048 00000 00000 27530  2          +
 002C66 5070 D048            00000 27531  2 3761.                  PMOV  @SWDPCB,LA:ASBPCB
 002C6A 41F0 A19E/0DEF       02C98 27542  2 3762.                  LCALL SWAPIDONE
                                   27551  2 3763.
                                   27552  2 3764.              Notify the dispatcher that this AS is now in core again
                                   27553  2 3765.
 DROP   @SWDONE-72,R13             27554  2 3766.                  PSET  @DISPSIOC
 USING  @DISPSIOC-72,R13
 002C70 D703 D048 D048 00000 00000 27574  2          +
 002C76                            27575  2 3767.                  PMOV  @DSIOASB,PCBASB
 002C76 D203 D048 700C 00000 0000C 27579  2          +
 002C7C 58F0 A7F2/0DEF       032EC 27580  2 3768.                  VCALL DISPSIOC
 002C82                            27584  1 3769.                END   ,                       OF Call swap completed rtn
 DROP   ASBPCB,R7                  27588    3770.              END   ,                       OF Addr to Swap CB
 DROP   PGDSWAP,R5
 002C82 981F C008            00008 27601    3771.              PEND  ,
 DROP   PAGCB,R6
 DROP   @IOTERM-72,R12
 DROP   PAGISEND,R10
 002C86 9680 C000/0B0E 00000       27621             +
 DROP   @DISPSIOC-72,R13
1PAGESERV (PAGE00) (09:42) (22MAR04) Swap In I/Os completed                                                                 Page  172
0Loc    Object Code    Addr1 Addr2  Stmt Lv Lineno    Source Statement           (Hibal 5, Asmedit 3.3)  HLASM R4.0  2004/03/22 09.42
+___    ______ ____    _____ _____  ____ __ ______    ______ _________
0                                  27631    3773.     *NEST,1
                                   27632    3774.
                                   27633    3775.
                                   27634    3776.       Swap in I/Os all completed
                                   27635    3777.
                                   27636    3778.        Input - @SWDONE
                                   27637    3779.
                                   27638    3780.       Output -
                                   27639    3781.
                                   27640    3782.

0000000                00000 0002A 27642    3784.     #ISEND   RECORD BEGIN
 000000                            27650  1 3785.     #ISEVA     DS    A                       Virtual addr of work
 000004                            27651  1 3786.     #ISERA     DS    A                       | and real addr
 000008                            27652  1 3787.     #ISEEXT    DS    A                       Start of this swap des extent
 00000C                            27653  1 3788.     #ISENXT    DS    A                       Next address in swap des
 000010                            27654  1 3789.     #ISEPAGF   DS    2A                      First of page table frames
 000018                            27655  1 3790.     #ISEPAGX   DS    A                       | page extent of swap cntl blk
 00001C                            27656  1 3791.     #ISECNT    DS    A                       Loop counter
 000020                            27657  1 3792.     #ISELASP   DS    D                       Old LASP parameters
 000028                            27658  1 3793.     #ISEPSWM   DS    X                       PSW mask for disabling
 000029                            27659  1 3794.     #ISEASLK   DS    X                       Save AS lock flags
 00002A                0002A 0002A 27660    3795.              END   ,
0000000                00000 00004 27670    3797.     @SWDONE  RECORD BEGIN
 000000                            27678  1 3798.     @SWDPCB    DS    A                       ASBPCB address
 000004                00004 00004 27679    3799.              END   ,
0002C8C                            27689    3801.     SWAPIDONE PROC @SWDONE,#ISEND          Swap in IO completion
 002C8C E2E6C1D7C9C4D6D5           27696             +
 002C94 0008/0030                  27697             +
 002C98 900F D004/18AF       00004 27699             +
 USING  SWAPIDONE,R10
 002C9E 50D0 C000/18CD       00000 27714             +
 002CA4 9680 C000      00000       27716             +
 USING  @SWDONE-72,R12
 AUSING (#ISEND,@SWDONE+8)
 002CA8 41D0 C080            00080 27735             +
 002CAC 5860 0200            00200 27736    3802.              PAGAD RPAG
 USING  PZERO,R0
 DROP   PZERO,R0
 USING  MAT,R6
 002CB0 5860 600C            0000C 27770             +
 DROP   MAT,R6
 USING  PAGCB,R6
                                   27792    3803.
                                   27793    3804.          One more user in memory
                                   27794    3805.
 002CB4 5820 60B0            000B0 27795    3806.              L     RA,PAGASIN
 002CB8                            27796    3807.              LOOP  BEGIN
 002CB8 4130 2001            00001 27802  1 3808.                LA    RB,@RA+1
 002CBC BA23 60B0            000B0 27803  1 3809.                CS    RA,RB,PAGASIN
 002CC0 4770 A020            02CB8 27804    3810.              UNTIL EQUAL,END
                                   27823    3811.
 002CC4 5870 C048            00000 27824    3812.              L     RPCB,@SWDPCB            Addr to control block
1PAGESERV (PAGE00) (09:42) (22MAR04) Swap In I/Os completed                                                                 Page  173
0Current Usings:  (PGDSWAP,R5) (PAGCB,R6) (SWAPIDONE,R10) (@SWDONE-72,R12)
0Loc    Object Code    Addr1 Addr2  Stmt Lv Lineno    Source Statement           (Hibal 5, Asmedit 3.3)  HLASM R4.0  2004/03/22 09.42
+___    ______ ____    _____ _____  ____ __ ______    ______ _________
0USING  PGDSWAP,R5                 27825    3813.              WITH  (PGDSWAP,RK),BEGIN      PGDSWAP addr
 AUSING (PSCPFX,PGDSWPFX)          27839  1 3814.                WITH  (PSCPFX,PGDSWPFX)
 USING  ASBPCB,R7                  27846  1 3815.                WITH  (ASBPCB,RPCB)
 002CC8 5850 7060            00060 27859  1 3816.                L     RK,PCBSWCB
 002CCC 5050 C058            00008 27860  1 3817.                PMOV  #ISEEXT,LA:PGDSWAP
 002CD0 4130 5040            00040 27871  1 3818.                LA    RB,PGDSWEXT
                                   27872  1 3819.
                                   27873  1 3820.            Get paging lock for this AS
                                   27874  1 3821.
 002CD4 AC04 C078      00028       27875  1 3822.                PAGNTRY ASYNC,#ISEPSWM,#ISEASLK
 USING  @LOCKS-72,R13
 002CD8 D203 D048 7018 00000 00018 27895  1          +
 002CDE 58F0 602C/0DEF       0002C 27901  1          +
 002CE4 D200 C079 70B6 00029 000B6 27903  1          +
 002CEA 9240 70B6      000B6       27910  1          +
 002CEE 9180 7022      00022       27920  1          +
 002CF2 47E0 A062            02CFA 27921  1          +
 002CF6 9280 70B6      000B6       27933  1          +
1PAGESERV (PAGE00) (09:42) (22MAR04) Swap In I/Os completed                                                                 Page  174
0Current Usings:  (PGDSWAP,R5) (PAGCB,R6) (ASBPCB,R7) (SWAPIDONE,R10) (@SWDONE-72,R12) (@LOCKS-72,R13)
0Loc    Object Code    Addr1 Addr2  Stmt Lv Lineno    Source Statement           (Hibal 5, Asmedit 3.3)  HLASM R4.0  2004/03/22 09.42
+___    ______ ____    _____ _____  ____ __ ______    ______ _________
0                                  27939  1 3824.
                                   27940  1 3825.            Not in progress, request for swap in completed, notification
                                   27941  1 3826.            taken care of
                                   27942  1 3827.
 002CFA 9427 7023      00023       27943  1 3828.                CLEAR PCBFLOUT+PCBFISOUT+PCBFRSIN+PCBFNOTE
 002CFE 9110 5028      00028       27962  1 3829.                IF    PGDSFDAT,BEGIN          We need to update seg tbl
 002D02 47E0 A128            02DC0 27972  1          +
                                   27977  2 3830.
                                   27978  2 3831.              Validate segment table's virtual addresses, and set keys.
                                   27979  2 3832.                Get start of page frame table
                                   27980  2 3833.
 002D06 5880 701C            0001C 27981  2 3834.                  L     RM,PCBPSTO              VA of Segment Table Origin
 002D0A 5840 6018            00018 27982  2 3835.                  L     RJ,PAGCASB              | common ASB addr
 002D0E 5840 4020            00020 27983  2 3836.                  WITH  (ASB,RJ),'L RJ,ASBPAGB' |
 USING  ASB,R4
 DROP   ASB,R4
                                   28007  2 3837.
                                   28008  2 3838.              Get global lock
                                   28009  2 3839.
 USING  COMM.ASBPCB,R4             28010  2 3840.                  WITH  (ASBPCB,RJ),LABEL=COMM,BEGIN
 002D12 9180 70B6      000B6       28019  3 3841.                    IF    ~PCBFGBL,BEGIN          Get global lock
 002D16 4710 A092            02D2A 28029  3          +
 002D1A                            28034  4 3842.                      LKOB  COMM.PCBLOCK            | |
 002D1A D203 D048 4018 00000 00018 28043  4          +
 002D20 58F0 602C/0DEF       0002C 28049  4          +
 002D26 9680 70B6      000B6       28051  4 3843.                      SET   PCBFGBL                 |
 002D2A                            28057  3 3844.                    END   ,                       OF Get global lock
 002D2A 5890 4014            00014 28061  3 3845.                    L     RN,COMM.PCBRA           |
 USING  REAL.ASBPCB,R9             28062  3 3846.                    WITH  (ASBPCB,RN),LABEL=REAL
                                   28070  3 3847.
 002D2E 4120 5040            00040 28071  3 3848.                    LA    RA,PGDSWEXT             First slot
 002D32 1832                       28072  3 3849.                    LR    RB,RA                   |
 002D34 4A30 617C            0017C 28073  3 3850.                    AH    RB,PAGSWXL              | and virt slot
 002D38 48B0 60BC            000BC 28074  3 3851.                    LH    BRR,PAGSEGP             | num of pages in seg tables
 002D3C 50B0 C06C            0001C 28075  3 3852.                    ST    BRR,#ISECNT             | |
 002D40                            28076  3 3853.                    LOOP  BEGIN
 USING  PGDSLIST,R2                28082  4 3854.                      WITH  (PGDSLIST,RA)           Real addresses
 USING  PGDSVLST,R3                28095  4 3855.                      WITH  (PGDSVLST,RB)           Virtual addresses +
 002D40 B1E0 8000            00000 28108  4 3856.                      LRA   RAR,@RM
 002D44 47D0 A4F0            03188 28109  4 3857.                      IF    ~PAGI,SEKAPSEG          Invalid page entry expected
 002D48 58B0 2000            00000 28123  4 3858.                      L     BRR,PGDSLAD             Real address
 002D4C 54B0 A658            032F0 28124  4 3859.                      N     BRR,=A(PAGSTOM)         |
                                   28125  4 3860.
                                   28126  4 3861.                  Fix seg table's VA tables in DAT-OFF
                                   28127  4 3862.
 002D50 ACFB 40B5      000B5       28128  4 3863.                      DATOFF COMM.PCBPSWM
 USING  PGTE,R14                   28130  4 3864.                      WITH  (PGTE,RAR),BEGIN        |
 002D54 9680 E003      00003       28144  5 3865.                        SET   PGTFDEF                 | Set as defined again
 002D58 5800 E000            00000 28150  5 3866.                        L     RVR,PGAD                |
 002D5C 5400 A65C            032F4 28151  5 3867.                        N     RVR,=A(PGTAIMSK)        | Clear RA & invalid
 002D60 160B                       28152  5 3868.                        OR    RVR,BRR                 | |
 002D62 5000 E000            00000 28153  5 3869.                        ST    RVR,PGAD                |
 DROP   PGTE,R14                   28154  4 3870.                      END   ,                       OF Validate seg table's addr
 002D66 8000 90B5      000B5       28162  4 3871.                      DATON REAL.PCBPSWM
1PAGESERV (PAGE00) (09:42) (22MAR04) Swap In I/Os completed                                                                 Page  175
0Current Usings:  (PGDSLIST,R2) (PGDSVLST,R3) (COMM.ASBPCB,R4) (PGDSWAP,R5) (PAGCB,R6) (ASBPCB,R7) (REAL.ASBPCB,R9) (SWAPIDONE,R10) (@SWDONE-72,R12) (
 @LOCKS-72,R13)
0Loc    Object Code    Addr1 Addr2  Stmt Lv Lineno    Source Statement           (Hibal 5, Asmedit 3.3)  HLASM R4.0  2004/03/22 09.42
+___    ______ ____    _____ _____  ____ __ ______    ______ _________
0002D6A 4300 3004            00004 28164  4 3872.                      IC    RVR,PGDSFKEY            Set seg table's storage key
 002D6E B22B 000B                  28165  4 3873.                      SSKE  RVR,BRR                 |
 002D72 88B0 0007            00007 28166  4 3874.                      SRL   BRR,L'PAGPAGM-PFTLOG    Put VA in frame table entry
 002D76 5EB0 6044            00044 28167  4 3875.                      AL    BRR,PAGPFTO             | + page frame table offset
 USING  PFTE,R11                   28168  4 3876.                      WITH  (PFTE,BRR),BEGIN        |
 002D7A D203 B008 3000 00008 00000 28182  5 3877.                        MVC   PFTVA,PGDSVA            | virtual addr + flags
 002D80 D203 B00C 400C 0000C 0000C 28183  5 3878.                        MVC   PFTASB,COMM.PCBASB      | and ASB
 002D86 D201 B018 A686 00018 0331E 28184  5 3879.                        MVC   PFTFIX,=Y(1)            | set fix count to 1
 002D8C 9248 B01C      0001C       28185  5 3880.                        MVI   PFTQ,PCBSFLH-ASBPCB     | set Q id
 DROP   PFTE,R11                   28186  4 3881.                      END   ,                       OF Put VA in frame table entry
                                   28194  4 3882.
 002D90 4120 2004            00004 28195  4 3883.                      LA    RA,PGDSLNXT             Next swap frame addr
 002D94 4130 3008            00008 28196  4 3884.                      LA    RB,PGDSVNXT             | and virtual list
 002D98 4A80 A688            03320 28197  4 3885.                      AH    RM,=Y(PAGPAGEL)         Next page of segment tbls (VA)
 002D9C 58F0 C06C            0001C 28198  4 3886.                      L     EPAR,#ISECNT            Check loop count
 002DA0 46F0 A110            02DA8 28199  4 3887.                      BCT   EPAR,SELOOP
 002DA4 47F0 A118            02DB0 28200  4 3888.                      EXIT
 002DA8 50F0 C06C            0001C 28203  4 3889.     SELOOP           ST    EPAR,#ISECNT
 002DAC 47F0 A0A8            02D40 28204  3 3890.                    END   ,                       | and loop ...
 DROP   PGDSVLST,R3
 DROP   PGDSLIST,R2
 002DB0 947F 70B6      000B6       28219  3 3891.                    CLEAR PCBFGBL                 |
 002DB4                            28226  3 3892.                    LKREL COMM.PCBLOCK            |
 002DB4 D203 D048 4018 00000 00018 28235  3          +
 002DBA 58F0 6030/0DEF       00030 28241  3          +
 DROP   REAL.ASBPCB,R9             28243  2 3893.                  END   ,                       OF WITH (COMM.PCB,RJ)
 DROP   COMM.ASBPCB,R4
 002DC0                            28262  1 3894.                END   ,                       OF We need to update seg tbl
                                   28266  1 3895.
                                   28267  1 3896.            Even if we don't update the segment table entries, we need to
                                   28268  1 3897.            update the pointers to point the portion of the swap control
                                   28269  1 3898.            blocks that contain page table information
                                   28270  1 3899.
 002DC0 A12C           02DC0 02D04 28271  1 3900.                ELSE  BEGIN                   Point at page tbl frames
 002DC0 47F0 A146            02DDE 28276  1          +
 002DC4 4120 5040            00040 28282  2 3901.                  LA    RA,PGDSWEXT
 002DC8 1832                       28283  2 3902.                  LR    RB,RA
 002DCA 4A30 617C            0017C 28284  2 3903.                  AH    RB,PAGSWXL
 002DCE 4810 60BC            000BC 28285  2 3904.                  LH    RS,PAGSEGP
 002DD2 8910 0002            00002 28286  2 3905.                  SLL   RS,PGDSLLOG
 002DD6 1E21                       28287  2 3906.                  ALR   RA,RS                   1st pg tbl frame slot
 002DD8 8910 0001            00001 28288  2 3907.                  SLL   RS,PGDSVLOG-PGDSLLOG
 002DDC 1E31                       28289  2 3908.                  ALR   RB,RS
 002DDE                            28290  1 3909.                END   ,                       OF Point at page tbl frames
                                   28294  1 3910.
                                   28295  1 3911.            Set up the first page table pointers
                                   28296  1 3912.
 002DDE B120 2000            00000 28297  1 3913.                LRA   RA,@RA
 002DE2 B130 3000            00000 28298  1 3914.                LRA   RB,@RB
 002DE6 9023 C060            00010 28299  1 3915.                STM   RA,RB,#ISEPAGF
                                   28300  1 3916.
 002DEA B634 C070            00020 28301  1 3917.                STCTL 3,4,#ISELASP            Save old AS parameters
                                   28302  1 3918.
1PAGESERV (PAGE00) (09:42) (22MAR04) Swap In I/Os completed                                                                 Page  176
0Current Usings:  (PGDSWAP,R5) (PAGCB,R6) (ASBPCB,R7) (SWAPIDONE,R10) (@SWDONE-72,R12) (@VALDASN-72,R13)
0Loc    Object Code    Addr1 Addr2  Stmt Lv Lineno    Source Statement           (Hibal 5, Asmedit 3.3)  HLASM R4.0  2004/03/22 09.42
+___    ______ ____    _____ _____  ____ __ ______    ______ _________
0DROP   @LOCKS-72,R13              28303  1 3919.                PSET  @VALDASN                Validate and establish new AS
 USING  @VALDASN-72,R13
 002DEE D70D D048 D048 00000 00000 28323  1          +
 002DF4 5890 700C            0000C 28324  1 3920.                L     RN,PCBASB               | set LASP parms
 USING  ASB,R9                     28325  1 3921.                WITH  (ASB,RN),BEGIN          |
 002DF8 D207 D048 9008 00000 00008 28339  2 3922.                  MVC   @VALASP,ASBLASP         |
 DROP   ASB,R9                     28340  1 3923.                END   ,                       |
 002DFE 5890 701C            0001C 28348  1 3924.                L     RN,PCBPSTO              | Segment table real addr
 002E02 B190 9000            00000 28349  1 3925.                LRA   RN,@RN                  | |
 002E06 5090 D050            00008 28350  1 3926.                PMOV  @VAPSTO,(RN)            | |
 002E0A                            28360  1 3927.                PMOV  @VALPARM,=X'04'         | insist on doing translation
 002E0A D200 D054 A68A 0000C 03322 28364  1          +
 002E10 41F0 A8FC/0DEF       03594 28365  1 3928.                LCALL VALIDASN                |
 002E16 4110 0001            00001 28374  1 3929.                INCR  RS,PAGMSIVN             One more "virtual" swap I/O
 002E1A 5E10 6274            00274 28378  1          +
 002E1E 5010 6274            00274 28379  1          +
1PAGESERV (PAGE00) (09:42) (22MAR04) Swap In I/Os completed                                                                 Page  177
0Current Usings:  (PGDSWAP,R5) (PAGCB,R6) (ASBPCB,R7) (SWAPIDONE,R10) (@SWDONE-72,R12) (@VALDASN-72,R13)
0Loc    Object Code    Addr1 Addr2  Stmt Lv Lineno    Source Statement           (Hibal 5, Asmedit 3.3)  HLASM R4.0  2004/03/22 09.42
+___    ______ ____    _____ _____  ____ __ ______    ______ _________
0                                  28381  1 3931.
                                   28382  1 3932.
                                   28383  1 3933.       Validate page table addresses
                                   28384  1 3934.
                                          1
0002E22 5850 C058            00008 28385  1 3935.                L     RK,#ISEEXT              Current swap control extent
 002E26 B1B0 5000            00000 28386  1 3936.                LRA   BRR,0(,RK)              |
 002E2A 50B0 C068            00018 28387  1 3937.                ST    BRR,#ISEPAGX            | extent of first page table
 002E2E 9823 C060            00010 28388  1 3938.                LM    RA,RB,#ISEPAGF
 002E32 4880 7066            00066 28389  1 3939.                LH    RM,PCBSWPCT             | and number of pages swapped
                                   28390  1 3940.
 002E36 5890 701C            0001C 28391  1 3941.                L     RN,PCBPSTO              Get real addr of seg tbl
 002E3A B190 9000            00000 28392  1 3942.                LRA   RN,@RN                  |
 002E3E 5810 7014            00014 28393  1 3943.                L     RS,PCBRA                Go into DAT-OFF
 002E42 B160 6000            00000 28394  1 3944.                LRA   RPAG,PAGCB              |
 002E46 ACFB 70B5      000B5       28395  1 3945.                DATOFF PCBPSWM                |
 002E4A 1871                       28397  1 3946.                LR    RPCB,RS                 |
 002E4C 1288/4780 A216       02EAE 28398  1 3947.                IF    (RM,NZ),BEGIN           PTs to fix up
 002E52                            28412  2 3948.     SESEGV       LOOP  BEGIN                   Set PT real addresses
 USING  BASE.PGDSWAP,R11           28419  3 3949.                    WITH  (PGDSWAP,BRR),LABEL=BASE
 USING  PGDSLIST,R2                28427  3 3950.                    WITH  (PGDSLIST,RA)           Real addresses
 USING  PGDSVLST,R3                28440  3 3951.                    WITH  (PGDSVLST,RB)           Virtual addresses +
 002E52 12BB/4780 A4F8       03190 28453  3 3952.                    IF    (BRR,ZERO),SEKAPEXT     Ran out of extents
 002E58 9110 B028      00028       28470  3 3953.                    IF    BASE:PGDSFDAT,BEGIN     Need update of DAT tables
 002E5C 47E0 A1EC            02E84 28480  3          +
 002E60 4840 3006            00006 28485  4 3954.                      LH    RJ,PGDSFSEG             Segment of this PT
 002E64 5440 A660            032F8 28486  4 3955.                      N     RJ,=X'000007FF'         |  hardware max
 002E68 8940 0002            00002 28487  4 3956.                      SLL   RJ,SGTLOG               | segment entry offset
 002E6C 1E49                       28488  4 3957.                      ALR   RJ,RN                   |
 USING  SGTE,R4                    28489  4 3958.                      WITH  (SGTE,RJ)               |
 002E6E 5800 4000            00000 28502  4 3959.                      L     RVR,SGTAD               Put in new RA of page table
 002E72 5400 A664            032FC 28503  4 3960.                      N     RVR,=A(SGPTLMSK)        | length mask
 002E76 5810 2000            00000 28504  4 3961.                      L     RS,PGDSLAD              | frame RA
 002E7A 1601                       28505  4 3962.                      OR    RVR,RS                  | put it in
 002E7C 5000 4000            00000 28506  4 3963.                      ST    RVR,SGTAD               |
                                   28507  4 3964.     *  NB - We set the segment as invalid now, so later a LRA on
                                   28508  4 3965.     *       the page table's virtual address will give us this
                                   28509  4 3966.     *       entry and real addr for the page table.  At that time
                                   28510  4 3967.     *       the segment table entry will will be set as valid.
 002E80 9620 4003      00003       28511  4 3968.                      SET   SGTFINV                 |
 DROP   SGTE,R4                    28517  3 3969.                    END   ,                       OF Need update of DAT tables
                                   28526  3 3970.
 002E84 9180 2000      00000       28527  3 3971.                    IF    PGDSLAX,BEGIN           Last swap addr in this extent
 002E88 47E0 A206            02E9E 28537  3          +
 002E8C 58B0 B018            00018 28542  4 3972.                      L     BRR,BASE.PGDSWLNK       Get next extent address
 002E90 B1B0 B000            00000 28543  4 3973.                      LRA   BRR,BASE.PGDSWAP        |
 002E94 4120 B040            00040 28544  4 3974.                      LA    RA,BASE.PGDSWEXT        |
 002E98 4830 617C            0017C 28545  4 3975.                      LH    RB,PAGSWXL              |
 002E9C 1E32                       28546  4 3976.                      ALR   RB,RA                   |
 002E9E                            28547  3 3977.                    END   ,                       OF Last swap addr in this ext
 002E9E A20A           02E9E 02E8A 28551  3 3978.                    ELSE  BEGIN                   Get next addr in this extent
 002E9E 47F0 A212            02EAA 28556  3          +
 002EA2 4120 2004            00004 28562  4 3979.                      LA    RA,PGDSLNXT             Addr of next swap frame addr
1PAGESERV (PAGE00) (09:42) (22MAR04) Swap In I/Os completed                                                                 Page  178
0Current Usings:  (PGDSLIST,R2) (PGDSVLST,R3) (PGDSWAP,R5) (PAGCB,R6) (ASBPCB,R7) (SWAPIDONE,R10) (BASE.PGDSWAP,R11) (@SWDONE-72,R12) (@VALDASN-72,R13)
0Loc    Object Code    Addr1 Addr2  Stmt Lv Lineno    Source Statement           (Hibal 5, Asmedit 3.3)  HLASM R4.0  2004/03/22 09.42
+___    ______ ____    _____ _____  ____ __ ______    ______ _________
0002EA6 4130 3008            00008 28563  4 3980.                      LA    RB,PGDSVNXT             |
 002EAA                            28564  3 3981.                    END   ,                       OF Get next addr in this ext
                                   28568  3 3982.
 002EAA 4680 A1BA            02E52 28569  2 3983.                  UNTIL (BCT,RM),END            OF Set PT real addresses
 DROP   PGDSVLST,R3
 DROP   PGDSLIST,R2
 DROP   BASE.PGDSWAP,R11
 002EAE                            28597  1 3984.                END   ,                       OF PTs to fix up
1PAGESERV (PAGE00) (09:42) (22MAR04) Swap In I/Os completed                                                                 Page  179
0Current Usings:  (PGDSWAP,R5) (PAGCB,R6) (ASBPCB,R7) (SWAPIDONE,R10) (@SWDONE-72,R12) (@VALDASN-72,R13)
0Loc    Object Code    Addr1 Addr2  Stmt Lv Lineno    Source Statement           (Hibal 5, Asmedit 3.3)  HLASM R4.0  2004/03/22 09.42
+___    ______ ____    _____ _____  ____ __ ______    ______ _________
0                                  28602  1 3986.
                                   28603  1 3987.
                                   28604  1 3988.
                                   28605  1 3989.       Validate page addresses and set keys
                                   28606  1 3990.
                                   28607  1 3991.
                                          1
0002EAE 5880 7010            00010 28608  1 3992.                L     RM,PCBVA                Addr to PAGCB
 002EB2 8000 70B5      000B5       28609  1 3993.                DATON PCBPSWM                 |
 002EB6 5860 0200            00200 28611  1 3994.                PAGAD RPAG,BEGIN              |
 USING  PZERO,R0
 DROP   PZERO,R0
 DROP   PAGCB,R6
 USING  MAT,R6
 002EBA 5860 600C            0000C 28648  1          +
 DROP   MAT,R6
 USING  PAGCB,R6
 AUSING (#SWPDO,PGDSWP)            28671  2 3995.                  WITH  (#SWPDO,PGDSWP)
 USING  ASBPCB,R8                  28678  2 3996.                  WITH  (ASBPCB,RM),BEGIN
 002EBE 4810 8064            00064 28692  3 3997.                    LH    RS,PCBSWCNT             Number of non seg/page tbls
 002EC2 4B10 8066            00066 28693  3 3998.                    SH    RS,PCBSWPCT             |
 DROP   ASBPCB,R8                  28694  2 3999.                  END   ,
 002EC6 4B10 60BC            000BC 28702  2 4000.                  SH    RS,PAGSEGP              |
 002ECA B160 6000            00000 28703  2 4001.                  LRA   RPAG,0(,RPAG)           |
 USING  ASBPCB,R8                  28704  2 4002.                  WITH  (ASBPCB,RM),BEGIN       Back to DAT-OFF
 002ECE ACFB 80B5      000B5       28718  3 4003.                    DATOFF PCBPSWM                |
 DROP   ASBPCB,R8                  28720  2 4004.                  END   ,                       OF Back to DAT-OFF
0002ED2 1211/4780 A2F6       02F8E 28729  2 4006.                  IF    (RS,NZ),BEGIN           Pages to fix up
 002ED8                            28743  3 4007.                    LOOP  BEGIN                   Set page real addresses
 USING  BASE.PGDSWAP,R11           28749  4 4008.                      WITH  (PGDSWAP,BRR),LABEL=BASE
 USING  PGDSLIST,R2                28757  4 4009.                      WITH  (PGDSLIST,RA)           Real addresses
 USING  PGDSVLST,R3                28770  4 4010.                      WITH  (PGDSVLST,RB)           Virtual addresses +
 002ED8 12BB/4780 A4F8       03190 28783  4 4011.                      IF    (BRR,ZERO),SEKAPEXT     Ran out of extents
 002EDE 9110 B028      00028       28800  4 4012.                      IF    BASE:PGDSFDAT,BEGIN     Need update of DAT tables
 002EE2 47E0 A2CC            02F64 28810  4          +
 002EE6 5880 3000            00000 28815  5 4013.                        L     RM,PGDSVA
                                   28816  5 4014.     *  NB - The load real address on this VA will return the segment
                                   28817  5 4015.     *       table entry for this VA's segment (since the seg table
                                   28818  5 4016.     *       entry is still marked invalid.)
 002EEA B140 8000            00000 28819  5 4017.                        LRA   RJ,0(,RM)
 002EEE 4740 A270            02F08 28820  5 4018.                        IF    ~SEGI,BEGIN             If not a seg fault
 002EF2 1848                       28831  6 4019.                          LR    RJ,RM                   Get seg table entry
 002EF4 8840 0014            00014 28832  6 4020.                          SRL   RJ,L'PAGSGNM            |
 002EF8 8940 0002            00002 28833  6 4021.                          SLL   RJ,SGTLOG               |
 002EFC 5E40 701C            0001C 28834  6 4022.                          AL    RJ,PCBPSTO              | start of seg
 002F00 B140 4000            00000 28835  6 4023.                          LRA   RJ,@RJ                  |
 002F04 4770 A508            031A0 28836  6 4024.                          IF    ~VAOK,SEKAPPAG          Seg table should be def
 002F08                            28850  5 4025.                        END   ,                       OF If not a seg fault
 002F08 5840 4000            00000 28854  5 4026.                        L     RJ,@RJ                  Page table address
 002F0C 5440 A668            03300 28855  5 4027.                        N     RJ,=A(SGTADMSK)         |
 002F10 5480 A66C            03304 28856  5 4028.                        N     RM,=A(PAGPGNM)          Page table entry (page num)
 002F14 8880 000A            0000A 28857  5 4029.                        SRL   RM,L'PAGPAGM-PGTLOG     | index
1PAGESERV (PAGE00) (09:42) (22MAR04) Swap In I/Os completed                                                                 Page  180
0Current Usings:  (PGDSLIST,R2) (PGDSVLST,R3) (PGDSWAP,R5) (PAGCB,R6) (ASBPCB,R7) (SWAPIDONE,R10) (BASE.PGDSWAP,R11) (@SWDONE-72,R12) (@VALDASN-72,R13)
0Loc    Object Code    Addr1 Addr2  Stmt Lv Lineno    Source Statement           (Hibal 5, Asmedit 3.3)  HLASM R4.0  2004/03/22 09.42
+___    ______ ____    _____ _____  ____ __ ______    ______ _________
0002F18 1E84                       28858  5 4030.                        ALR   RM,RJ                   |
 USING  PGTE,R8                    28859  5 4031.                        WITH  (PGTE,RM),BEGIN         |
 002F1A 5800 2000            00000 28873  6 4032.                          L     RVR,PGDSLAD             Real address
 002F1E 5400 A670            03308 28874  6 4033.                          N     RVR,=A(PAGPAGM)         |
 002F22 58F0 8000            00000 28875  6 4034.                          L     EPAR,PGAD               Clear out old RA
 002F26 54F0 A65C            032F4 28876  6 4035.                          N     EPAR,=A(PGTAIMSK)       |
 002F2A 16F0                       28877  6 4036.                          OR    EPAR,RVR                | and put in new RA
 002F2C 50F0 8000            00000 28878  6 4037.                          ST    EPAR,PGAD               |
 DROP   PGTE,R8                    28879  5 4038.                        END   ,                       OF Page table entry addr
 002F30 4300 3004            00004 28887  5 4039.                        IC    RVR,PGDSFKEY            Set storage key
 002F34 B22B 000F                  28888  5 4040.                        SSKE  RVR,EPAR                |
                                   28889  5 4041.     *  NB - The next 2 instructions clear the low bits of the address
                                   28890  5 4042.     *       while computing the offset.
 002F38 88F0 000C            0000C 28891  5 4043.                        SRL   EPAR,L'PAGPAGM          Set up page frame table entry
 002F3C 89F0 0005            00005 28892  5 4044.                        SLL   EPAR,PFTLOG             | frame num * len of entries
 002F40 5EF0 6044            00044 28893  5 4045.                        AL    EPAR,PAGPFTO            |
 002F44 B1F0 F000            00000 28894  5 4046.                        LRA   EPAR,@EPAR              |
 USING  PFTE,R15                   28895  5 4047.                        WITH  (PFTE,EPAR),BEGIN       |
 002F48 D203 F008 3000 00008 00000 28909  6 4048.                          MVC   PFTVA,PGDSVA            | set VA and flags
 002F4E D203 F00C 700C 0000C 0000C 28910  6 4049.                          MVC   PFTASB,PCBASB           |  and ASB
 002F54 D200 F016 3005 00016 00005 28911  6 4050.                          MVC   PFTHIST(1),PGDSFHST     | move in one byte of history
 002F5A D201 F01A 3006 0001A 00006 28912  6 4051.                          MVC   PFTSFIX,PGDSFFIX        |  and short fix count
 002F60 9230 F01C      0001C       28913  6 4052.                          MVI   PFTQ,PCBUFLH-ASBPCB     |   and Q of this frame
 DROP   PFTE,R15                   28914  5 4053.                        END   ,                       OF Set up page frame table ...
 002F64                            28922  4 4054.                      END   ,                       OF Need update of DAT tables
 002F64 9180 2000      00000       28926  4 4055.                      IF    PGDSLAX,BEGIN           Last swap addr in this extent
 002F68 47E0 A2E6            02F7E 28936  4          +
 002F6C 58B0 B018            00018 28941  5 4056.                        L     BRR,BASE.PGDSWLNK       Get next extent address
 002F70 B1B0 B000            00000 28942  5 4057.                        LRA   BRR,BASE.PGDSWAP        |
 002F74 4120 B040            00040 28943  5 4058.                        LA    RA,BASE.PGDSWEXT        |
 002F78 4830 617C            0017C 28944  5 4059.                        LH    RB,PAGSWXL              |
 002F7C 1E32                       28945  5 4060.                        ALR   RB,RA                   |
 002F7E                            28946  4 4061.                      END   ,                       OF Last swap addr in this ext
 002F7E A2EA           02F7E 02F6A 28950  4 4062.                      ELSE  BEGIN                   Get next addr in this extent
 002F7E 47F0 A2F2            02F8A 28955  4          +
 002F82 4120 2004            00004 28961  5 4063.                        LA    RA,PGDSLNXT             Addr of next swap frame addr
 002F86 4130 3008            00008 28962  5 4064.                        LA    RB,PGDSVNXT             |
 002F8A                            28963  4 4065.                      END   ,                       OF Get next addr in this ext
 002F8A 4610 A240            02ED8 28967  3 4066.                    UNTIL (BCT,RS),END            OF Set page real addresses
 DROP   PGDSVLST,R3
 DROP   PGDSLIST,R2
 DROP   BASE.PGDSWAP,R11
 002F8E                            28995  2 4067.                  END   ,                       OF Pages to fix up
1PAGESERV (PAGE00) (09:42) (22MAR04) Swap In I/Os completed                                                                 Page  181
0Current Usings:  (PGDSWAP,R5) (PAGCB,R6) (ASBPCB,R7) (SWAPIDONE,R10) (@SWDONE-72,R12) (@VALDASN-72,R13)
0Loc    Object Code    Addr1 Addr2  Stmt Lv Lineno    Source Statement           (Hibal 5, Asmedit 3.3)  HLASM R4.0  2004/03/22 09.42
+___    ______ ____    _____ _____  ____ __ ______    ______ _________
0                                  29000  2 4069.
                                   29001  2 4070.
                                   29002  2 4071.
                                   29003  2 4072.       Fix up entries for the virtual addresses of the page tables
                                   29004  2 4073.
                                   29005  2 4074.
                                          2
0002F8E 4810 7066            00066 29006  2 4075.                  LH    RS,PCBSWPCT             Number of page tables
 002F92 5880 7010            00010 29007  2 4076.                  L     RM,PCBVA                Go into DAT-ON briefly
 002F96 8000 70B5      000B5       29008  2 4077.                  DATON PCBPSWM                 |
 002F9A 9823 C060            00010 29010  2 4078.                  LM    RA,RB,#ISEPAGF          First of page table frames
 002F9E 58B0 C068            00018 29011  2 4079.                  L     BRR,#ISEPAGX            |
 USING  ASBPCB,R8                  29012  2 4080.                  WITH  (ASBPCB,RM),BEGIN       Back into DAT-OFF
 002FA2 ACFB 80B5      000B5       29026  3 4081.                    DATOFF PCBPSWM                |
 DROP   ASBPCB,R8                  29028  2 4082.                  END   ,                       |
 002FA6 1211/4780 A418       030B0 29036  2 4083.                  IF    (RS,NZ),BEGIN           Fix up PTs
 002FAC                            29050  3 4084.                    LOOP  BEGIN                   Validate PT addresses
 USING  BASE.PGDSWAP,R11           29056  4 4085.                      WITH  (PGDSWAP,BRR),LABEL=BASE
 USING  PGDSLIST,R2                29064  4 4086.                      WITH  (PGDSLIST,RA)           Real addresses
 USING  PGDSVLST,R3                29077  4 4087.                      WITH  (PGDSVLST,RB)           Virtual addresses +
 002FAC 12BB/4780 A4F8       03190 29090  4 4088.                      IF    (BRR,ZERO),SEKAPEXT     Ran out of extents
 002FB2 9110 B028      00028       29107  4 4089.                      IF    BASE:PGDSFDAT,BEGIN     Need update of DAT tables
 002FB6 47E0 A3EE            03086 29117  4          +
 002FBA 4880 3006            00006 29122  5 4090.                        LH    RM,PGDSFSEG
 002FBE 5480 A660            032F8 29123  5 4091.                        N     RM,=X'000007FF'         | hardware limit
                                   29124  5 4092.
                                   29125  5 4093.                    NB - The load real address on this VA will return the segment
                                   29126  5 4094.                         table entry for this VA's segment (since the seg table
                                   29127  5 4095.                         entry is still marked invalid.)
                                   29128  5 4096.
 002FC2 8980 0014            00014 29129  5 4097.                        SLL   RM,L'PAGSGNM            | seg number to address
 002FC6 B140 8000            00000 29130  5 4098.                        LRA   RJ,0(,RM)
 002FCA 4740 A34C            02FE4 29131  5 4099.                        IF    ~SEGI,BEGIN             If not a seg fault
 002FCE 1848                       29142  6 4100.                          LR    RJ,RM                   Get seg table entry
 002FD0 8840 0014            00014 29143  6 4101.                          SRL   RJ,L'PAGSGNM            |
 002FD4 8940 0002            00002 29144  6 4102.                          SLL   RJ,SGTLOG               |
 002FD8 5E40 701C            0001C 29145  6 4103.                          AL    RJ,PCBPSTO              | start of seg
 002FDC B140 4000            00000 29146  6 4104.                          LRA   RJ,@RJ                  |
 002FE0 4770 A508            031A0 29147  6 4105.                          IF    ~VAOK,SEKAPPAG          Seg table should be def
 002FE4                            29161  5 4106.                        END   ,                       OF If not a seg fault
 USING  SGTE,R4                    29165  5 4107.                        WITH  (SGTE,RJ),BEGIN         Get page table RA from seg
 002FE4 94DF 4003      00003       29179  6 4108.                          CLEAR SGTFINV                 |
 002FE8 5840 4000            00000 29186  6 4109.                          L     RJ,SGTAD                |
 002FEC 5440 A670            03308 29187  6 4110.                          N     RJ,=A(PAGPAGM)          | align on page bndry
 DROP   SGTE,R4                    29188  5 4111.                        END   ,                       OF Get page table RA from seg
 002FF0 58F0 701C            0001C 29196  5 4112.                        L     EPAR,PCBPSTO            Get virtual addr tables
 002FF4 B1F0 F000            00000 29197  5 4113.                        LRA   EPAR,@EPAR              | seg table start
 002FF8 4770 A510            031A8 29198  5 4114.                        IF    ~VAOK,SEKAPPGT          | |
 002FFC 5880 3000            00000 29212  5 4115.                        L     RM,PGDSVA               | seg table entry
 003000 5480 A674            0330C 29213  5 4116.                        N     RM,=A(PAGSGNM)          |
 003004 8880 0012            00012 29214  5 4117.                        SRL   RM,L'PAGSGNM-SGTLOG     |
 003008 1E8F                       29215  5 4118.                        ALR   RM,EPAR                 |
 00300A 5880 8000            00000 29216  5 4119.                        WITH  (SGTE,RM),'L RM,SGTAD'  | page table entry
1PAGESERV (PAGE00) (09:42) (22MAR04) Swap In I/Os completed                                                                 Page  182
0Current Usings:  (PGDSLIST,R2) (PGDSVLST,R3) (PGDSWAP,R5) (PAGCB,R6) (ASBPCB,R7) (SWAPIDONE,R10) (BASE.PGDSWAP,R11) (@SWDONE-72,R12) (@VALDASN-72,R13)
0Loc    Object Code    Addr1 Addr2  Stmt Lv Lineno    Source Statement           (Hibal 5, Asmedit 3.3)  HLASM R4.0  2004/03/22 09.42
+___    ______ ____    _____ _____  ____ __ ______    ______ _________
0USING  SGTE,R8
 DROP   SGTE,R8
 00300E 5480 A668            03300 29240  5 4120.                        N     RM,=A(SGTADMSK)         |
 003012 58F0 3000            00000 29241  5 4121.                        L     EPAR,PGDSVA             |
 003016 54F0 A66C            03304 29242  5 4122.                        N     EPAR,=A(PAGPGNM)        |
 00301A 88F0 000A            0000A 29243  5 4123.                        SRL   EPAR,L'PAGPGNM-PGTLOG   |
 00301E 1E8F                       29244  5 4124.                        ALR   RM,EPAR                 |
 USING  PGTE,R8                    29245  5 4125.                        WITH  (PGTE,RM),BEGIN         Validate address
 003020 5800 2000            00000 29259  6 4126.                          L     RVR,PGDSLAD             Real address
 003024 5400 A678            03310 29260  6 4127.                          N     RVR,=A(PGTADMSK)        | masked for PGTE
 003028 58F0 8000            00000 29261  6 4128.                          L     EPAR,PGAD               Clear out old RA
 00302C 54F0 A65C            032F4 29262  6 4129.                          N     EPAR,=A(PGTAIMSK)       |
 003030 16F0                       29263  6 4130.                          OR    EPAR,RVR                | and put in new RA
 003032 50F0 8000            00000 29264  6 4131.                          ST    EPAR,PGAD               |
 DROP   PGTE,R8                    29265  5 4132.                        END   ,                       OF Page table entry addr
 003036 4300 3004            00004 29273  5 4133.                        IC    RVR,PGDSFKEY            Set storage key
 00303A B22B 000F                  29274  5 4134.                        SSKE  RVR,EPAR                |
 00303E 88F0 000C            0000C 29275  5 4135.                        SRL   EPAR,L'PAGPAGM          Set up page frame table entry
 003042 89F0 0005            00005 29276  5 4136.                        SLL   EPAR,PFTLOG             | frame num * len of entries
 003046 5EF0 6044            00044 29277  5 4137.                        AL    EPAR,PAGPFTO            |
 00304A B1F0 F000            00000 29278  5 4138.                        LRA   EPAR,@EPAR              |
 USING  PFTE,R15                   29279  5 4139.                        WITH  (PFTE,EPAR),BEGIN       |
 00304E D203 F008 3000 00008 00000 29293  6 4140.                          MVC   PFTVA,PGDSVA            Get VA
 003054 4800 3006            00006 29294  6 4141.                          LH    RVR,PGDSFSEG            | segment number
 003058 5400 A660            032F8 29295  6 4142.                          N     RVR,=X'000007FF'        |  hardware max
 00305C 4000 F014            00014 29296  6 4143.                          STH   RVR,PFTSEG              |
 003060 D203 F00C 700C 0000C 0000C 29297  6 4144.                          MVC   PFTASB,PCBASB           |  and ASB
 003066 1F00/4300 3005       00005 29298  6 4145.                          LC    RVR,PGDSFPTF            | PT short term fixes
 00306C 5E00 A650            032E8 29303  6 4146.                          INCR  RVR                     |  one more -> 1..256
 003070 9180 3006      00006       29306  6 4147.                          IF    PGDFNOF,'CLEAR RVR'     |   no fixes
 003074 47E0 A3E2/1B00       0307A 29316  6          +
 00307A 4000 F01A            0001A 29330  6 4148.                          STH   RVR,PFTSFIX             |
 00307E 9680 F01D      0001D       29331  6 4149.                          SET   PFTFPGT                 | It's a page table page
 003082 923C F01C      0001C       29337  6 4150.                          MVI   PFTQ,PCBPFLH-ASBPCB     |  and it's on page table Q
 DROP   PFTE,R15                   29338  5 4151.                        END   ,                       OF Set up page frame table ...
 003086                            29346  4 4152.                      END   ,                       OF Need update of DAT tables
 003086 9180 2000      00000       29350  4 4153.                      IF    PGDSLAX,BEGIN           Last swap addr in this extent
 00308A 47E0 A408            030A0 29360  4          +
 00308E 58B0 B018            00018 29365  5 4154.                        L     BRR,BASE.PGDSWLNK       Get next extent address
 003092 B1B0 B000            00000 29366  5 4155.                        LRA   BRR,BASE.PGDSWAP        |
 003096 4120 B040            00040 29367  5 4156.                        LA    RA,BASE.PGDSWEXT        |
 00309A 4830 617C            0017C 29368  5 4157.                        LH    RB,PAGSWXL              |
 00309E 1E32                       29369  5 4158.                        ALR   RB,RA                   |
 0030A0                            29370  4 4159.                      END   ,                       OF Last swap addr in this ext
 0030A0 A40C           030A0 0308C 29374  4 4160.                      ELSE  BEGIN                   Get next addr in this extent
 0030A0 47F0 A414            030AC 29379  4          +
 0030A4 4120 2004            00004 29385  5 4161.                        LA    RA,PGDSLNXT             Addr of next swap frame addr
 0030A8 4130 3008            00008 29386  5 4162.                        LA    RB,PGDSVNXT             |
 0030AC                            29387  4 4163.                      END   ,                       OF Get next addr in this ext
 0030AC 4610 A314            02FAC 29391  3 4164.                    UNTIL (BCT,RS),END            OF Validate PT addresses
 DROP   PGDSVLST,R3
 DROP   PGDSLIST,R2
 DROP   BASE.PGDSWAP,R11
 0030B0                            29419  2 4165.                  END   ,                       OF Fix up PTs
1PAGESERV (PAGE00) (09:42) (22MAR04) Swap In I/Os completed                                                                 Page  183
0Current Usings:  (PGDSWAP,R5) (PAGCB,R6) (ASBPCB,R7) (SWAPIDONE,R10) (@SWDONE-72,R12) (@VALDASN-72,R13)
0Loc    Object Code    Addr1 Addr2  Stmt Lv Lineno    Source Statement           (Hibal 5, Asmedit 3.3)  HLASM R4.0  2004/03/22 09.42
+___    ______ ____    _____ _____  ____ __ ______    ______ _________
0                                  29423  1 4166.                END   ,                       OF Addr to PAGCB
                                   29426  1 4167.
                                   29427  1 4168.            Back to DAT-ON
                                   29428  1 4169.
 0030B0 5810 7010            00010 29429  1 4170.                L     RS,PCBVA                Back to DAT-ON
 0030B4 8000 70B5      000B5       29430  1 4171.                DATON PCBPSWM                 |
 0030B8 1871                       29432  1 4172.                LR    RPCB,RS                 | PCB's VA
                                   29433  1 4173.
 0030BA 5860 0200            00200 29434  1 4174.                PAGAD RPAG
 USING  PZERO,R0
 DROP   PZERO,R0
 DROP   PAGCB,R6
 USING  MAT,R6
 0030BE 5860 600C            0000C 29471  1          +
 DROP   MAT,R6
 USING  PAGCB,R6
 DROP   ASBPCB,R7                  29491    4175.              END   ,                       OF PGDSWAP addr
 DROP   PGDSWAP,R5
                                   29504    4176.              WITH  (PAGCB,RPAG)
 USING  ASBPCB,R7                  29508    4177.              WITH  (ASBPCB,RPCB)
                                   29521    4178.
                                   29522    4179.          Put frame lists back on PCB anchors
                                   29523    4180.
 DROP   @VALDASN-72,R13            29524    4181.              PSET  @SIFRAME
 USING  @SIFRAME-72,R13
 0030C2 D703 D048 D048 00000 00000 29544             +
 0030C8 5070 D048            00000 29545    4182.              PMOV  @SIFPCB,LA:ASBPCB
 0030CC 41F0 A698/0DEF       03330 29556    4183.              LCALL SIFRAME
                                   29565    4184.
                                   29566    4185.          Handle page writes that completed while we were swapped out
                                   29567    4186.
 0030D2 5820 7080            00080 29568    4187.              L     RA,PCBWPEND
 0030D6 1222/4780 A48E       03126 29569    4188.              IF    (RA,NZ),BEGIN           Frame writes to handle
 0030DC                            29583  1 4189.                CLEAR PCBWPEND
 0030DC D703 7080 7080 00080 00080 29589  1          +
 0030E2                            29590  1 4190.                LOOP  BEGIN                   Loop through frames
 USING  PGDPAGE,R2                 29596  2 4191.                  WITH  (PGDPAGE,RA)
 AUSING (PSCPFX,PGDPGPFX)          29609  2 4192.                  WITH  (PSCPFX,PGDPGPFX)
 AUSING (#PIODO,PGDPIO)            29616  2 4193.                  WITH  (#PIODO,PGDPIO)
 DROP   @SIFRAME-72,R13            29623  2 4194.                  PSET  @PAGPIOC
 USING  @PAGPIOC-72,R13
 0030E2 D70F D048 D048 00000 00000 29643  2          +
 0030E8 5020 D054            0000C 29644  2 4195.                  PMOV  @PCIOCB,LA:PGDPAGE      I/O control block addr
 0030EC 5070 D04C            00004 29655  2 4196.                  PMOV  @PCPCB,LA:ASBPCB          and PCB addr
 0030F0 58F0 A67C/0DEF       03314 29666  2 4197.                  ACALL PAGPWC
                                   29673  2 4198.
                                   29674  2 4199.              Free the paging I/O control block
                                   29675  2 4200.
 0030F6 5830 2000            00000 29676  2 4201.                  L     RB,PSCFP                Get next CB on list
 DROP   @PAGPIOC-72,R13            29677  2 4202.                  CELLFREE LA:PGDPAGE,TYPE=PAGE Free CB
 USING  @CELLFREE-72,R13
 0030FA D70F D048 D048 00000 00000 29698  2          +
 003100 4100 613C            0013C 29710  2          +
 003104 5000 D048            00000 29715  2          +
1PAGESERV (PAGE00) (09:42) (22MAR04) Swap In I/Os completed                                                                 Page  184
0Current Usings:  (PGDPAGE,R2) (PAGCB,R6) (ASBPCB,R7) (SWAPIDONE,R10) (@SWDONE-72,R12) (@CELLFREE-72,R13)
0Loc    Object Code    Addr1 Addr2  Stmt Lv Lineno    Source Statement           (Hibal 5, Asmedit 3.3)  HLASM R4.0  2004/03/22 09.42
+___    ______ ____    _____ _____  ____ __ ______    ______ _________
0003108 5020 D04C            00004 29726  2          +
 00310C 5020 D050            00008 29737  2          +
 003110 4100 0001            00001 29749  2          +
 003114 5000 D054            0000C 29754  2          +
 003118 58F0 A680/0DEF       03318 29760  2          +
 00311E 1823                       29762  2 4203.                  LR    RA,RB
 003120 1222/4770 A44A       030E2 29763  1 4204.                UNTIL (RA,ZERO),END           OF Loop through frames
 DROP   PGDPAGE,R2                 29790    4205.              END   ,                       OF Frame writes to handle
                                   29794    4206.
                                   29795    4207.          Free control blocks and external frames
                                   29796    4208.
 DROP   @CELLFREE-72,R13           29797    4209.              PSET  @SICBS
 USING  @SICBS-72,R13
 003126 D703 D048 D048 00000 00000 29817             +
 00312C 5070 D048            00000 29818    4210.              PMOV  @SICBPCB,LA:ASBPCB
 003130 41F0 A84C/0DEF       034E4 29829    4211.              LCALL SICBS
                                   29838    4212.
                                   29839    4213.          Back to old AS
                                   29840    4214.
 003136 E500 C070 0003 00020 00003 29841    4215.              LASP  #ISELASP,CPAGLASP
 00313C 4310 70B6            000B6 29842    4216.              PAGXIT ASYNC,#ISEPSWM,#ISEASLK,WR=RS
 003140 D200 70B6 C079 000B6 00029 29846             +
 003146 4210 C079            00029 29847             +
 00314A 9180 C079      00029       29857             +
 00314E 47E0 A4CE            03166 29858             +
 003152 5850 6018            00018 29863  1          +
 USING  ASB,R5
 003156 5850 5020            00020 29879  1          +
 DROP   ASB,R5
 DROP   ASBPCB,R7
 USING  ASBPCB,R5
 DROP   @SICBS-72,R13
 USING  @LOCKS-72,R13
 00315A D203 D048 5018 00000 00018 29932  2          +
 003160 58F0 6030/0DEF       00030 29938             +
 USING  ASBPCB,R7
 DROP   ASBPCB,R5
 003166 9140 C079      00029       29970             +
 00316A 47E0 A4E2            0317A 29971             +
 00316E D203 D048 7018 00000 00018 29985  1          +
 003174 58F0 6030/0DEF       00030 29991             +
 00317A 8000 C078      00028       29997             +
 00317E 981F C008            00008 29998    4217.              PEND  ,
 DROP   ASBPCB,R7
 DROP   PAGCB,R6
 DROP   @SWDONE-72,R12
 DROP   SWAPIDONE,R10
 003182 9680 C000/0B0E 00000       30023             +
 DROP   @LOCKS-72,R13
0USING  SWAPIDONE,R10              30033    4219.              WITH  (SWAPIDONE,BR),BEGIN
 003188 4100 0000            00000 30047  1 4220.     SEKAPSEG   LA    RVR,0                   Segment VA lookup
 00318C 47F0 A514            031AC 30048  1 4221.                B     SEKAP0
 003190 4100 0001            00001 30049  1 4222.     SEKAPEXT   LA    RVR,1                   Ran out of extents
1PAGESERV (PAGE00) (09:42) (22MAR04) Swap In I/Os completed                                                                 Page  185
0Current Usings:  (SWAPIDONE,R10)
0Loc    Object Code    Addr1 Addr2  Stmt Lv Lineno    Source Statement           (Hibal 5, Asmedit 3.3)  HLASM R4.0  2004/03/22 09.42
+___    ______ ____    _____ _____  ____ __ ______    ______ _________
0003194 47F0 A514            031AC 30050  1 4223.                B     SEKAP0
 003198 4100 0002            00002 30051  1 4224.     SEKAPASB   LA    RVR,2                   Error in validating ASB
 00319C 47F0 A514            031AC 30052  1 4225.                B     SEKAP0
 0031A0 4100 0003            00003 30053  1 4226.     SEKAPPAG   LA    RVR,3                   Should get Segment fault here
 0031A4 47F0 A514            031AC 30054  1 4227.                B     SEKAP0
 0031A8 4100 0004            00004 30055  1 4228.     SEKAPPGT   LA    RVR,4                   Error w/ page table VA
 0031AC AC04 021B      0021B       30056  1 4229.     SEKAP0     ABORT PAGISEND
 USING  PZERO,R0
 0031B0 9680 021A      0021A       30075  1          +
 0031B4 50F0 021C            0021C 30076  1          +
 0031B8 58F0 0210            00210 30077  1          +
 0031BC 89F0 0010            00010 30078  1          +
 0031C0 88F0 0010            00010 30079  1          +
 0031C4 41F0 F000            00000 30080  1          +
 0031C8 AEFF 0006            00006 30081  1          +
 0031CC D7C1C7C9E2C5D5C4           30082  1          +
 DROP   PZERO,R0
 DROP   SWAPIDONE,R10              30091    4230.              END   ,
                                   30099    4231.     *NEST,2
1PAGESERV (PAGE00) (09:42) (22MAR04) Logical swap in completed                                                              Page  186
0Loc    Object Code    Addr1 Addr2  Stmt Lv Lineno    Source Statement           (Hibal 5, Asmedit 3.3)  HLASM R4.0  2004/03/22 09.42
+___    ______ ____    _____ _____  ____ __ ______    ______ _________
0                                  30101    4233.
                                   30102    4234.
                                   30103    4235.       Logical swap in routine
                                   30104    4236.
                                   30105    4237.        Input -  @SWAPILO
                                   30106    4238.
                                   30107    4239.       Output -  None
                                   30108    4240.
                                   30109    4241.

0000000                00000 00001 30111    4243.     #SWAPILO RECORD BEGIN
 000000                            30119  1 4244.     #SILPSWM   DS    X                       PSW mask for disabling
 000001                00001 00001 30120    4245.              END   ,
00031DC                            30130    4247.     SWAPILOG PROC  @SWDONE,#SWAPILO        Logical swap in completion
 0031DC E2E6C1D7C9D3D6C7           30137             +
 0031E4 0008/0008                  30138             +
 0031E8 900F D004/18AF       00004 30140             +
 USING  SWAPILOG,R10
 0031EE 50D0 C000/18CD       00000 30155             +
 0031F4 9680 C000      00000       30157             +
 USING  @SWDONE-72,R12
 AUSING (#SWAPILO,@SWDONE+8)
 0031F8 41D0 C058            00058 30176             +
 0031FC 5860 0200            00200 30177    4248.              PAGAD RPAG
 USING  PZERO,R0
 DROP   PZERO,R0
 USING  MAT,R6
 003200 5860 600C            0000C 30211             +
 DROP   MAT,R6
 USING  PAGCB,R6
 003204 5870 C048            00000 30233    4249.              L     RPCB,@SWDPCB
 USING  ASBPCB,R7                  30234    4250.              WITH  (ASBPCB,RPCB)
                                   30247    4251.
                                   30248    4252.          One more address space in core - reserve another frame
                                   30249    4253.          and count another virtual swap-in
                                   30250    4254.
 003208 5820 60B0            000B0 30251    4255.              L     RA,PAGASIN
 00320C                            30252    4256.              LOOP  BEGIN
 00320C 4130 2001            00001 30258  1 4257.                LA    RB,@RA+1
 003210 BA23 60B0            000B0 30259  1 4258.                CS    RA,RB,PAGASIN
 003214 4770 A024            0320C 30260    4259.              UNTIL EQUAL,END
 003218 4110 0001            00001 30279    4260.              INCR  RS,PAGMSIVN             One more virtual swap-in
 00321C 5E10 6274            00274 30283             +
 003220 5010 6274            00274 30284             +
 003224 AC04 C050      00000       30285    4261.              SLKOB PCBLOCK,#SILPSWM
 USING  @LOCKS-72,R13
 003228 D203 D048 7018 00000 00018 30303             +
 00322E 58F0 602C/0DEF       0002C 30309             +
                                   30311    4262.
                                   30312    4263.          Set the state of this PCB
                                   30313    4264.
 003234 9427 7023      00023       30314    4265.              CLEAR PCBFISOUT+PCBFRSIN+PCBFNOTE+PCBFLOUT
1PAGESERV (PAGE00) (09:42) (22MAR04) Logical swap in completed                                                              Page  187
0Current Usings:  (PAGCB,R6) (ASBPCB,R7) (SWAPILOG,R10) (@SWDONE-72,R12) (@LOCKS-72,R13)
0Loc    Object Code    Addr1 Addr2  Stmt Lv Lineno    Source Statement           (Hibal 5, Asmedit 3.3)  HLASM R4.0  2004/03/22 09.42
+___    ______ ____    _____ _____  ____ __ ______    ______ _________
0                                  30333    4266.
                                   30334    4267.          Handle page writes that completed while we were swapped out
                                   30335    4268.
 003238 5820 7080            00080 30336    4269.              L     RA,PCBWPEND
 00323C 1222/4780 A0A4       0328C 30337    4270.              IF    (RA,NZ),BEGIN           Frame writes to handle
 003242                            30351  1 4271.                CLEAR PCBWPEND
 003242 D703 7080 7080 00080 00080 30357  1          +
 003248                            30358  1 4272.                LOOP  BEGIN                   Loop through frames
 USING  PGDPAGE,R2                 30364  2 4273.                  WITH  (PGDPAGE,RA)
 AUSING (PSCPFX,PGDPGPFX)          30377  2 4274.                  WITH  (PSCPFX,PGDPGPFX)
 AUSING (#PIODO,PGDPIO)            30384  2 4275.                  WITH  (#PIODO,PGDPIO)
 DROP   @LOCKS-72,R13              30391  2 4276.                  PSET  @PAGPIOC
 USING  @PAGPIOC-72,R13
 003248 D70F D048 D048 00000 00000 30411  2          +
 00324E 5020 D054            0000C 30412  2 4277.                  PMOV  @PCIOCB,LA:PGDPAGE      I/O control block addr
 003252 5070 D04C            00004 30423  2 4278.                  PMOV  @PCPCB,LA:ASBPCB          and PCB addr
 003256 58F0 A12C/0DEF       03314 30434  2 4279.                  ACALL PAGPWC
                                   30441  2 4280.
                                   30442  2 4281.              Free the I/O control block
                                   30443  2 4282.
 00325C 5830 2000            00000 30444  2 4283.                  L     RB,PSCFP                Get next CB on list
 DROP   @PAGPIOC-72,R13            30445  2 4284.                  CELLFREE LA:PGDPAGE,TYPE=PAGE Free CB
 USING  @CELLFREE-72,R13
 003260 D70F D048 D048 00000 00000 30466  2          +
 003266 4100 613C            0013C 30478  2          +
 00326A 5000 D048            00000 30483  2          +
 00326E 5020 D04C            00004 30494  2          +
 003272 5020 D050            00008 30505  2          +
 003276 4100 0001            00001 30517  2          +
 00327A 5000 D054            0000C 30522  2          +
 00327E 58F0 A130/0DEF       03318 30528  2          +
 003284 1823                       30530  2 4285.                  LR    RA,RB
 003286 1222/4770 A060       03248 30531  1 4286.                UNTIL (RA,ZERO),END           OF Loop through frames
 DROP   PGDPAGE,R2                 30558    4287.              END   ,                       OF Frame writes to handle
                                   30562    4288.
                                   30563    4289.          Put frames lists back on PCB headers
                                   30564    4290.
 00328C 5820 7074/1222       00074 30565    4291.              IF    ('LT RA,PCBSICNT',NZ),BEGIN      Frame lists to manage
 003292 4780 A0CE            032B6 30576             +
 DROP   @CELLFREE-72,R13           30581  1 4292.                PSET  @SIFRAME
 USING  @SIFRAME-72,R13
 003296 D703 D048 D048 00000 00000 30601  1          +
 00329C 5070 D048            00000 30602  1 4293.                PMOV  @SIFPCB,LA:ASBPCB
 0032A0 41F0 A148/0DEF       03330 30613  1 4294.                LCALL SIFRAME
                                   30622  1 4295.
                                   30623  1 4296.            Release swap control blocks and external frames
                                   30624  1 4297.
 DROP   @SIFRAME-72,R13            30625  1 4298.                PSET  @SICBS
 USING  @SICBS-72,R13
 0032A6 D703 D048 D048 00000 00000 30645  1          +
 0032AC 5070 D048            00000 30646  1 4299.                PMOV  @SICBPCB,LA:ASBPCB
 0032B0 41F0 A2FC/0DEF       034E4 30657  1 4300.                LCALL SICBS
 0032B6                            30666    4301.              END   ,                       OF Frame lists to manage
 DROP   @SICBS-72,R13              30670    4302.              SLKRL PCBLOCK,#SILPSWM
1PAGESERV (PAGE00) (09:42) (22MAR04) Logical swap in completed                                                              Page  188
0Current Usings:  (PAGCB,R6) (ASBPCB,R7) (SWAPILOG,R10) (@SWDONE-72,R12) (@LOCKS-72,R13)
0Loc    Object Code    Addr1 Addr2  Stmt Lv Lineno    Source Statement           (Hibal 5, Asmedit 3.3)  HLASM R4.0  2004/03/22 09.42
+___    ______ ____    _____ _____  ____ __ ______    ______ _________
0USING  @LOCKS-72,R13
 0032B6 D203 D048 7018 00000 00018 30690             +
 0032BC 58F0 6030/0DEF       00030 30696             +
 0032C2 8000 C050      00000       30698             +
 0032C6 981F C008            00008 30699    4303.              PEND  ,
 DROP   ASBPCB,R7
 DROP   PAGCB,R6
 DROP   @SWDONE-72,R12
 DROP   SWAPILOG,R10
 0032CA 9680 C000/0B0E 00000       30724             +
 DROP   @LOCKS-72,R13
1PAGESERV (PAGE00) (09:42) (22MAR04) MP-ORVYL Real Memory / Paging Manager Services                                         Page  189
0Loc    Object Code    Addr1 Addr2  Stmt Lv Lineno    Source Statement           (Hibal 5, Asmedit 3.3)  HLASM R4.0  2004/03/22 09.42
+___    ______ ____    _____ _____  ____ __ ______    ______ _________
00032D0                            30734    4305.              LTORG ,
 0032D0 00005F9E                   30736                             =A(FRAMEGET)
 0032D4 00001872                   30737                             =A(MAKEROOM)
 0032D8 C2D4C3C2                   30738                             =CL4'BMCB'
 0032DC 0000000C                   30739                             =A(#SWCREAD)
 0032E0 00000000                   30740                             =V(IOSDOIO)
 0032E4 00000000                   30741                             =V(IOSTIME)
 0032E8 00000001                   30742                             =A(1)
 0032EC 00000000                   30743                             =V(DISPSIOC)
 0032F0 7FFFF000                   30744                             =A(PAGSTOM)
 0032F4 000002FF                   30745                             =A(PGTAIMSK)
 0032F8 000007FF                   30746                             =X'000007FF'
 0032FC 0000000F                   30747                             =A(SGPTLMSK)
 003300 7FFFFFC0                   30748                             =A(SGTADMSK)
 003304 000FF000                   30749                             =A(PAGPGNM)
 003308 7FFFF000                   30750                             =A(PAGPAGM)
 00330C 7FF00000                   30751                             =A(PAGSGNM)
 003310 7FFFF000                   30752                             =A(PGTADMSK)
 003314 00001416                   30753                             =A(PAGPWC)
 003318 00007204                   30754                             =A(CELLFREE)
 00331C 0004                       30755                             =Y(L'PGDSLIST)
 00331E 0001                       30756                             =Y(1)
 003320 1000                       30757                             =Y(PAGPAGEL)
 003322 04             03323 0A6E0 30758                             =X'04'
1PAGESERV (PAGE00) (09:42) (22MAR04) Move frame lists from swap control blocks                                              Page  190
0Loc    Object Code    Addr1 Addr2  Stmt Lv Lineno    Source Statement           (Hibal 5, Asmedit 3.3)  HLASM R4.0  2004/03/22 09.42
+___    ______ ____    _____ _____  ____ __ ______    ______ _________
0                                  30763    4307.
                                   30764    4308.
                                   30765    4309.       Move frame lists from swap control blocks
                                   30766    4310.
                                   30767    4311.        Input - @SIFRAME
                                   30768    4312.                  Local PCB lock held on entry
                                   30769    4313.
                                   30770    4314.       Output - None
                                   30771    4315.
                                   30772    4316.

0000000                00000 00004 30773    4317.     @SIFRAME RECORD BEGIN
 000000                            30781  1 4318.     @SIFPCB    DS    A
 000004                00004 00004 30782    4319.              END   ,
0003324                            30792    4321.     SIFRAME  PROC  @SIFRAME
 003324 E2C9C6D9C1D4C540           30799             +
 00332C 0008/0000                  30800             +
 003330 900F D004/18AF       00004 30802             +
 USING  SIFRAME,R10
 003336 50D0 C000/18CD       00000 30817             +
 00333C 9680 C000      00000       30819             +
 USING  @SIFRAME-72,R12
 003340 41D0 C050            00050 30833             +
 003344 5860 0200            00200 30834    4322.              PAGAD RPAG
 USING  PZERO,R0
 DROP   PZERO,R0
 USING  MAT,R6
 003348 5860 600C            0000C 30868             +
 DROP   MAT,R6
 USING  PAGCB,R6
 00334C 5870 C048            00000 30890    4323.              L     RPCB,@SIFPCB
 USING  ASBPCB,R7                  30891    4324.              WITH  (ASBPCB,RPCB)
 003350 5850 7060            00060 30904    4325.              L     RK,PCBSWCB
 USING  PGDSWAP,R5                 30905    4326.              WITH  (PGDSWAP,RK)
                                   30918    4327.
                                   30919    4328.          Move first frames to segment table frame list
                                   30920    4329.
 003354 4840 60BC            000BC 30921    4330.              LH    RJ,PAGSEGP
 003358 41E0 501C/1B00       0001C 30922    4331.              LREM  PGDSWFRA,,LAST=(RB),(RJ),WR=RS
 00335E 58F0 E008/1214       00008 30958  1          +
 003364 47D0 A05C/1BF1       0338C 30970  1          +
 00336A 4740 A05C            0338C 30986  1          +
 00336E 50F0 E008            00008 30992  1          +
 003372 58F0 E000/180F       00000 30999  1          +
 003378 58F0 F000            00000 31007  1          +
 00337C 4610 A048            03378 31013  1          +
 003380 5830 F004            00004 31020  1          +
 003384 50E0 F004            00004 31021  1          +
 003388 50F0 E000            00000 31022             +
 00338C 1820                       31027    4332.              LR    RA,RVR
 00338E 4110 7048/18E4       00048 31028    4333.              LADD  PCBSFLH,(RA),(RB),(RJ),WR=RS
 003394 5EE0 1008            00008 31055             +
 003398 50E0 1008            00008 31056             +
 00339C 58E0 1004            00004 31063             +
1PAGESERV (PAGE00) (09:42) (22MAR04) Move frame lists from swap control blocks                                              Page  191
0Current Usings:  (PGDSWAP,R5) (PAGCB,R6) (ASBPCB,R7) (SIFRAME,R10) (@SIFRAME-72,R12)
0Loc    Object Code    Addr1 Addr2  Stmt Lv Lineno    Source Statement           (Hibal 5, Asmedit 3.3)  HLASM R4.0  2004/03/22 09.42
+___    ______ ____    _____ _____  ____ __ ______    ______ _________
00033A0 5030 1004            00004 31068             +
 0033A4 5010 3000            00000 31069             +
 0033A8 50E0 2004            00004 31074             +
 0033AC 5020 E000            00000 31075             +
                                   31077    4334.
                                   31078    4335.          Put next frames from swap control blocks on page table lists
                                   31079    4336.
 0033B0 4880 7066            00066 31080    4337.              LH    RM,PCBSWPCT
 0033B4 1288/4780 A13A       0346A 31081    4338.              WHILE (RM,NZ),BEGIN           Page table frame loop
 0033BA 1898                       31097  1 4339.                LR    RN,RM
 0033BC 5830 5024            00024 31098  1 4340.                L     RB,PGDSWCNT
 0033C0 1233/4770 A0D4       03404 31099  1 4341.                IF    (RB,ZERO),BEGIN         Link to next extent
 0033C6 5850 5018            00018 31113  2 4342.                  L     RK,PGDSWLNK
 0033CA 1255/4770 A0D0       03400 31114  2 4343.                  IF    (RK,ZERO),'ABORT SWAP_PGM'
 0033D0 AC04 021B      0021B       31141  3          +
 USING  PZERO,R0
 0033D4 9680 021A      0021A       31147  3          +
 0033D8 50F0 021C            0021C 31148  3          +
 0033DC 58F0 0210            00210 31149  3          +
 0033E0 89F0 0010            00010 31150  3          +
 0033E4 88F0 0010            00010 31151  3          +
 0033E8 41F0 F000            00000 31152  3          +
 0033EC AEFF 0006            00006 31153  3          +
 0033F0 E2E6C1D76DD7C7D4           31154  2          +
 DROP   PZERO,R0
 003400 5830 5024            00024 31167  2 4344.                  L     RB,PGDSWCNT
 003404                            31168  1 4345.                END   ,                       OF Link to next extent
 003404 1939/47B0 A0DC       0340C 31172  1 4346.                STMIN RB,RN
 00340A 1893                       31178  1          +
 00340C 41E0 501C/1B00       0001C 31179  1 4347.                LREM  PGDSWFRA,,LAST=(RB),(RN),WR=RS
 003412 58F0 E008/1219       00008 31215  2          +
 003418 47D0 A110/1BF1       03440 31227  2          +
 00341E 4740 A110            03440 31243  2          +
 003422 50F0 E008            00008 31249  2          +
 003426 58F0 E000/180F       00000 31256  2          +
 00342C 58F0 F000            00000 31264  2          +
 003430 4610 A0FC            0342C 31270  2          +
 003434 5830 F004            00004 31277  2          +
 003438 50E0 F004            00004 31278  2          +
 00343C 50F0 E000            00000 31279  1          +
 003440 1820                       31284  1 4348.                LR    RA,RVR
 003442 4110 703C/18E9       0003C 31285  1 4349.                LADD  PCBPFLH,(RA),(RB),(RN),WR=RS
 003448 5EE0 1008            00008 31312  1          +
 00344C 50E0 1008            00008 31313  1          +
 003450 58E0 1004            00004 31320  1          +
 003454 5030 1004            00004 31325  1          +
 003458 5010 3000            00000 31326  1          +
 00345C 50E0 2004            00004 31331  1          +
 003460 5020 E000            00000 31332  1          +
 003464 1B89                       31334  1 4350.                SR    RM,RN
 003466 47F0 A084            033B4 31335    4351.              END   ,                       OF Page table frame loop
1PAGESERV (PAGE00) (09:42) (22MAR04) Move frame lists from swap control blocks                                              Page  192
0Current Usings:  (PGDSWAP,R5) (PAGCB,R6) (ASBPCB,R7) (SIFRAME,R10) (@SIFRAME-72,R12)
0Loc    Object Code    Addr1 Addr2  Stmt Lv Lineno    Source Statement           (Hibal 5, Asmedit 3.3)  HLASM R4.0  2004/03/22 09.42
+___    ______ ____    _____ _____  ____ __ ______    ______ _________
0                                  31340    4352.
                                   31341    4353.          Put remainder of frames on PCB's unfixed frames list
                                   31342    4354.
 00346A                            31343    4355.     SDUFLOOP LOOP  BEGIN                   Unfixed frame loop
 00346A 5890 5024            00024 31350  1 4356.                L     RN,PGDSWCNT
 00346E 1299/4770 A152       03482 31351  1 4357.                IF    (RN,ZERO),BEGIN         Link to next extent
 003474 5850 5018            00018 31365  2 4358.                  L     RK,PGDSWLNK
 003478 1255/4780 A19E       034CE 31366  2 4359.                  IF    (RK,ZERO),EXIT,SDUFLOOP No more extents
 00347E 5890 5024            00024 31383  2 4360.                  L     RN,PGDSWCNT
 003482                            31384  1 4361.                END   ,                       OF Link to next extent
 003482 5890 5024/1B00       00024 31388  1 4362.                LREMALL PGDSWFRA,LAST=(RB),COUNT=(RN),WR=RS
 003488 1299/4780 A176       034A6 31417  1          +
 00348E 5000 5024            00024 31423  2          +
 003492 5800 501C            0001C 31431  2          +
 003496 5830 5020            00020 31439  2          +
 00349A 4110 501C            0001C 31449  2          +
 00349E 5010 1000            00000 31450  2          +
 0034A2 5010 1004            00004 31451  1          +
 0034A6 1820                       31456  1 4363.                LR    RA,RVR
 0034A8 4110 7030/18E9       00030 31457  1 4364.                LADD  PCBUFLH,(RA),(RB),(RN),WR=RS
 0034AE 5EE0 1008            00008 31484  1          +
 0034B2 50E0 1008            00008 31485  1          +
 0034B6 58E0 1004            00004 31492  1          +
 0034BA 5030 1004            00004 31497  1          +
 0034BE 5010 3000            00000 31498  1          +
 0034C2 50E0 2004            00004 31503  1          +
 0034C6 5020 E000            00000 31504  1          +
 0034CA 47F0 A13A            0346A 31506    4365.              END   ,                       OF Unfixed frame loop
 0034CE 981F C008            00008 31511    4366.              PEND  ,
 DROP   PGDSWAP,R5
 DROP   ASBPCB,R7
 DROP   PAGCB,R6
 DROP   @SIFRAME-72,R12
 DROP   SIFRAME,R10
 0034D2 9680 C000/0B0E 00000       31541             +
1PAGESERV (PAGE00) (09:42) (22MAR04) Free swap control blocks and external frames                                           Page  193
0Loc    Object Code    Addr1 Addr2  Stmt Lv Lineno    Source Statement           (Hibal 5, Asmedit 3.3)  HLASM R4.0  2004/03/22 09.42
+___    ______ ____    _____ _____  ____ __ ______    ______ _________
0                                  31548    4368.
                                   31549    4369.
                                   31550    4370.       Free swap control blocks and external frames
                                   31551    4371.
                                   31552    4372.        Input - @SICBS
                                   31553    4373.
                                   31554    4374.       Output - None
                                   31555    4375.
                                   31556    4376.

0000000                00000 00004 31557    4377.     @SICBS   RECORD BEGIN
 000000                            31565  1 4378.     @SICBPCB   DS    A
 000004                00004 00004 31566    4379.              END   ,
00034D8                            31576    4381.     SICBS    PROC  @SICBS
 0034D8 E2C9C3C2E2404040           31583             +
 0034E0 0008/0000                  31584             +
 0034E4 900F D004/18AF       00004 31586             +
 USING  SICBS,R10
 0034EA 50D0 C000/18CD       00000 31601             +
 0034F0 9680 C000      00000       31603             +
 USING  @SICBS-72,R12
 0034F4 41D0 C050            00050 31617             +
 0034F8 5860 0200            00200 31618    4382.              PAGAD RPAG
 USING  PZERO,R0
 DROP   PZERO,R0
 USING  MAT,R6
 0034FC 5860 600C            0000C 31652             +
 DROP   MAT,R6
 USING  PAGCB,R6
 003500 5870 C048            00000 31674    4383.              L     RPCB,@SICBPCB
 USING  ASBPCB,R7                  31675    4384.              WITH  (ASBPCB,RPCB)
                                   31688    4385.
                                   31689    4386.          Free control blocks and external frames
                                   31690    4387.
 003504 5820 7074/1B00       00074 31691    4388.              LREMALL PCBSWIN,,LAST=(RJ),COUNT=(RA),WR=RS
 00350A 1222/4780 A044       03528 31720             +
 003510 5000 7074            00074 31726  1          +
 003514 5800 706C            0006C 31734  1          +
 003518 5840 7070            00070 31742  1          +
 00351C 4110 706C            0006C 31752  1          +
 003520 5010 1000            00000 31753  1          +
 003524 5010 1004            00004 31754             +
 003528 5830 7060            00060 31759    4389.              L     RB,PCBSWCB              Control block addr
 00352C 4820 7068            00068 31760    4390.              PMOV  (RA),PCBSWCBN           Number of swap CBs
 003530                            31767    4391.              LOOP  BEGIN                   Loop through CBs
 USING  PGDSWAP,R3                 31773  1 4392.                WITH  (PGDSWAP,RB)
 AUSING (PSCPFX,PGDSWPFX)          31786  1 4393.                WITH  (PSCPFX,PGDSWPFX)
 AUSING (#SWPDO,PGDSWP)            31793  1 4394.                WITH  (#SWPDO,PGDSWP)
 USING  @XPREL-72,R13              31800  1 4395.                PSET  @XPREL                  Release external frames
 003530 D70B D048 D048 00000 00000 31817  1          +
 003536                            31818  1 4396.                PMOV  @XPRLBLK,#SWPBLK        | relative block
 003536 D203 D048 3030 00000 00004 31822  1          +
 00353C 4100 0001            00001 31823  1 4397.                PMOV  @XPRNUM,LA:1            |  number of clusters
 003540 5000 D04C            00004 31839  1          +
1PAGESERV (PAGE00) (09:42) (22MAR04) Free swap control blocks and external frames                                           Page  194
0Current Usings:  (PGDSWAP,R3) (PAGCB,R6) (ASBPCB,R7) (SICBS,R10) (@SICBS-72,R12) (@XPREL-72,R13)
0Loc    Object Code    Addr1 Addr2  Stmt Lv Lineno    Source Statement           (Hibal 5, Asmedit 3.3)  HLASM R4.0  2004/03/22 09.42
+___    ______ ____    _____ _____  ____ __ ______    ______ _________
0003544                            31840  1 4398.                PMOV  @XPRCB,PSCDEV           |
 003544 D203 D050 3010 00008 00010 31844  1          +
 00354A 58F0 A71C/0DEF       03C00 31845  1 4399.                ACALL SWPREL                  |
 003550 5840 3018            00018 31852  1 4400.                L     RJ,PGDSWLNK             Next extent
 DROP   @XPREL-72,R13              31853  1 4401.                CELLFREE LA:PGDSWAP,TYPE=SWAP
 USING  @CELLFREE-72,R13
 003554 D70F D048 D048 00000 00000 31874  1          +
 00355A 4100 615C            0015C 31886  1          +
 00355E 5000 D048            00000 31891  1          +
 003562 5030 D04C            00004 31902  1          +
 003566 5030 D050            00008 31913  1          +
 00356A 4100 0001            00001 31925  1          +
 00356E 5000 D054            0000C 31930  1          +
 003572 58F0 A720/0DEF       03C04 31936  1          +
 003578 1834                       31938  1 4402.                LR    RB,RJ
 00357A 4620 A04C            03530 31939    4403.              UNTIL (BCT,RA),END            OF Loop through CBs
 DROP   PGDSWAP,R3
 00357E 981F C008            00008 31954    4404.              PEND  ,
 DROP   ASBPCB,R7
 DROP   PAGCB,R6
 DROP   @SICBS-72,R12
 DROP   SICBS,R10
 003582 9680 C000/0B0E 00000       31979             +
 DROP   @CELLFREE-72,R13
1PAGESERV (PAGE00) (09:42) (22MAR04) Validate an ASN                                                                        Page  195
0Loc    Object Code    Addr1 Addr2  Stmt Lv Lineno    Source Statement           (Hibal 5, Asmedit 3.3)  HLASM R4.0  2004/03/22 09.42
+___    ______ ____    _____ _____  ____ __ ______    ______ _________
0                                  31989    4406.
                                   31990    4407.
                                   31991    4408.       Sets an Address Space as valid and establishes it.
                                   31992    4409.
                                   31993    4410.       Input - @VALDASN
                                   31994    4411.
                                   31995    4412.       Output - @VAOK, RVR
                                   31996    4413.         IF @VAOK:
                                   31997    4414.           ASN first table entry was valid and ASN entry was validated
                                   31998    4415.           RVR contains the Segment Table Descriptor (STD)
                                   31999    4416.           Address space established
                                   32000    4417.         IF ~@ASNOK
                                   32001    4418.           Couldn't establish this address space
                                   32002    4419.             or
                                   32003    4420.           ASN second table was invalid - ASN entry not validated
                                   32004    4421.
                                   32005    4422.

0000000                00000 0000E 32007    4424.     @VALDASN RECORD BEGIN                  Sets ASN as valid
 000000                            32015  1 4425.     @VALASP    DS    0D                      LASP information
 000000                            32016  1 4426.     @VAPKM     DS    H                       |
 000002                            32017  1 4427.     @VASASN    DS    H                       |
 000004                            32018  1 4428.     @VAAX      DS    H                       |
 000006                            32019  1 4429.     @VAPASN    DS    H                       |
 000008                            32020  1 4430.     @VAPSTO    DS    A                       Seg table origin this ASB (RA)
 00000C                            32021  1 4431.     @VALPARM   DS    X                       LASP parm to be ORd in
 00000D 00                         32022  1 4432.     @VAF1      FLAG  @VAOK                   |
 @VAF1.@VAOK       80 ONES
 00000E                0000E 0000E 32028    4433.              END   ,
0003588                            32038    4435.     VALIDASN PROC  @VALDASN,#LCLLOCK       Validate ASN entry
 003588 E5C1D3C9C4C1E2D5           32045             +
 003590 0010/0008                  32046             +
 003594 900F D004/18AF       00004 32048             +
 USING  VALIDASN,R10
 00359A 50D0 C000/18CD       00000 32063             +
 0035A0 9680 C000      00000       32065             +
 USING  @VALDASN-72,R12
 AUSING (#LCLLOCK,@VALDASN+16)
 0035A4 41D0 C060            00060 32084             +
                                   32085    4436.     *        CLEAR @VAOK                   Should be cleared to start
 0035A8 5860 0200            00200 32086    4437.              PAGAD RPAG
 USING  PZERO,R0
 DROP   PZERO,R0
 USING  MAT,R6
 0035AC 5860 600C            0000C 32120             +
 DROP   MAT,R6
 USING  PAGCB,R6
 0035B0 4820 C04E            00006 32142    4438.              LH    RA,@VAPASN              ASN to work from (AFX)
 0035B4 1832                       32143    4439.              LR    RB,RA                   | used for ASX
 0035B6 5420 A674            03C08 32144    4440.              N     RA,=A(PAGAFXM)          First table entry calc
 0035BA 8820 0004            00004 32145    4441.              SRL   RA,L'PAGAFXM-AFTLOG     | index*4 is offset from AFTO
 0035BE 5E20 61A0            001A0 32146    4442.              AL    RA,PAGAFTO              |
1PAGESERV (PAGE00) (09:42) (22MAR04) Validate an ASN                                                                        Page  196
0Current Usings:  (PAGCB,R6) (VALIDASN,R10) (@VALDASN-72,R12)
0Loc    Object Code    Addr1 Addr2  Stmt Lv Lineno    Source Statement           (Hibal 5, Asmedit 3.3)  HLASM R4.0  2004/03/22 09.42
+___    ______ ____    _____ _____  ____ __ ______    ______ _________
0                                  32147    4443.
                                   32148    4444.          Get ASN lock
                                   32149    4445.
 0035C2 AC04 C058      00000       32150    4446.              SLKOB PAGASNL,#LCLPSWM
 USING  @LOCKS-72,R13
 0035C6 D203 D048 6188 00000 00188 32168             +
 0035CC 58F0 602C/0DEF       0002C 32174             +
 USING  AFTE,R2                    32176    4447.              WITH  (AFTE,RA),BEGIN         |
 0035D2 5820 2000            00000 32190  1 4448.                L     RA,AFTASTO              Second table origin
 DROP   AFTE,R2                    32191    4449.              END   ,                       OF First table entry calc
 0035D6 1222/4740 A0AC       03640 32199    4450.              IF    (RA,NEG),VALIDKAP       Error - 2nd table unavailable
 0035DC 5420 A678            03C0C 32216    4451.              N     RA,=A(AFTASTM)          | mask em out
 DROP   @LOCKS-72,R13              32217    4452.              RTOV  (RA)                    | to virtual (ret in RVR)
 USING  @PAGRV-72,R13
 0035E0 D707 D048 D048 00000 00000 32239             +
 0035E6 5020 D048            00000 32249             +
 0035EA 58F0 A67C/0DEF       03C10 32255             +
 0035F0 5430 A680            03C14 32257    4453.              N     RB,=A(PAGASXM)          Second table entry calc
 0035F4 8930 0004            00004 32258    4454.              SLL   RB,ASTLOG               | index*16 is offset from ASTO
 0035F8 1E30                       32259    4455.              ALR   RB,RVR                  |
 USING  ASTE,R3                    32260    4456.              WITH  (ASTE,RB),BEGIN         |
 0035FA 5800 3008            00008 32274  1 4457.                L     RVR,ASTSTD              Set seg table RA
 0035FE 5400 A684            03C18 32275  1 4458.                N     RVR,=A(ASTSTL)          | save old length
 003602 5600 C050            00008 32276  1 4459.                O     RVR,@VAPSTO             | new RA
 003606 5000 3008            00008 32277  1 4460.                ST    RVR,ASTSTD              |
 00360A 947F 3000      00000       32278  1 4461.                CLEAR ASTFINV                 Now it's valid
 DROP   ASTE,R3                    32285    4462.              END   ,
                                   32293    4463.
                                   32294    4464.          Release ASN lock
                                   32295    4465.
 DROP   @PAGRV-72,R13              32296    4466.              SLKRL PAGASNL,#LCLPSWM
 USING  @LOCKS-72,R13
 00360E D203 D048 6188 00000 00188 32316             +
 003614 58F0 6030/0DEF       00030 32322             +
 00361A 8000 C058      00000       32324             +
                                   32325    4467.
                                   32326    4468.          Load address space parameters (local AS)
                                   32327    4469.
 00361E 1F11/4310 C054       0000C 32328    4470.              LC    RS,@VALPARM
 003624 5610 A688            03C1C 32335    4471.              O     RS,=A(ASBLPARM)
 003628 E500 C048 1000 00000 00000 32336    4472.              LASP  @VALASP,0(RS)
 00362E 4770 A0AC            03640 32337    4473.              IF    NZ,VALIDKAP
 003632 9680 C055      0000D       32351    4474.              SET   @VAOK                   Available AS
 003636 981F C008            00008 32357    4475.              PEND  ,
 DROP   PAGCB,R6
 DROP   @VALDASN-72,R12
 DROP   VALIDASN,R10
 00363A 9680 C000/0B0E 00000       32377             +
 DROP   @LOCKS-72,R13
 003640 AC04 021B      0021B       32386    4476.     VALIDKAP ABORT VALIDASN                Not valid LASP
 USING  PZERO,R0
 003644 9680 021A      0021A       32405             +
 003648 50F0 021C            0021C 32406             +
 00364C 58F0 0210            00210 32407             +
1PAGESERV (PAGE00) (09:42) (22MAR04) Validate an ASN                                                                        Page  197
0Current Usings:  (PZERO,R0)
0Loc    Object Code    Addr1 Addr2  Stmt Lv Lineno    Source Statement           (Hibal 5, Asmedit 3.3)  HLASM R4.0  2004/03/22 09.42
+___    ______ ____    _____ _____  ____ __ ______    ______ _________
0003650 89F0 0010            00010 32408             +
 003654 88F0 0010            00010 32409             +
 003658 41F0 F000            00000 32410             +
 00365C AEFF 0006            00006 32411             +
 003660 E5C1D3C9C4C1E2D5           32412             +
 DROP   PZERO,R0
1PAGESERV (PAGE00) (09:42) (22MAR04) Invalidate an ASN                                                                      Page  198
0Loc    Object Code    Addr1 Addr2  Stmt Lv Lineno    Source Statement           (Hibal 5, Asmedit 3.3)  HLASM R4.0  2004/03/22 09.42
+___    ______ ____    _____ _____  ____ __ ______    ______ _________
0                                  32422    4478.
                                   32423    4479.
                                   32424    4480.       Sets an Address Space as invalid.
                                   32425    4481.
                                   32426    4482.       Input - @NVLDASN
                                   32427    4483.
                                   32428    4484.       Output - @IAOK, RVR
                                   32429    4485.         IF @IAOK:
                                   32430    4486.           RVR contains the Segment Table Descriptor (STD) of the now
                                   32431    4487.           invalidated ASN entry
                                   32432    4488.         IF ~@IAOK
                                   32433    4489.           Either the ASN first or second table entry was already
                                   32434    4490.           marked as invalid
                                   32435    4491.
                                   32436    4492.

0000000                00000 00005 32437    4493.     @NVLDASN RECORD BEGIN                  Sets ASN as invalid
 000000                            32445  1 4494.     @IAASB     DS    A                       Address Space Block addr
 000004 00                         32446  1 4495.     @IAF1      FLAG  @IAOK
 @IAF1.@IAOK       80 ONES
 000005                00005 00005 32452    4496.              END   ,
0003670                            32462    4498.     NVALDASN PROC  @NVLDASN                Invalidate ASN entry
 003670 D5E5C1D3C4C1E2D5           32469             +
 003678 0008/0000                  32470             +
 00367C 900F D004/18AF       00004 32472             +
 USING  NVALDASN,R10
 003682 50D0 C000/18CD       00000 32487             +
 003688 9680 C000      00000       32489             +
 USING  @NVLDASN-72,R12
 00368C 41D0 C050            00050 32503             +
                                   32504    4499.     *        CLEAR @IAOK                   Should be cleared to start
 003690 5860 0200            00200 32505    4500.              PAGAD RPAG
 USING  PZERO,R0
 DROP   PZERO,R0
 USING  MAT,R6
 003694 5860 600C            0000C 32539             +
 DROP   MAT,R6
 USING  PAGCB,R6
 003698 5870 C048            00000 32561    4501.              L     RPCB,@IAASB             ASB addressability
 USING  ASB,R7                     32562    4502.              WITH  (ASB,RPCB)              |
 00369C 4820 700E            0000E 32575    4503.              LH    RA,ASBPASN              ASN to work from (AFX)
 0036A0 1222/4770 A05A       036D6 32576    4504.              IF    (RA,ZERO),'ABORT ASN0INVALID'
 0036A6 AC04 021B      0021B       32603  1          +
 USING  PZERO,R0
 0036AA 9680 021A      0021A       32609  1          +
 0036AE 50F0 021C            0021C 32610  1          +
 0036B2 58F0 0210            00210 32611  1          +
 0036B6 89F0 0010            00010 32612  1          +
 0036BA 88F0 0010            00010 32613  1          +
 0036BE 41F0 F000            00000 32614  1          +
 0036C2 AEFF 0006            00006 32615  1          +
 0036C6 C1E2D5F0C9D5E5C1           32616             +
 DROP   PZERO,R0
 0036D6 1832                       32629    4505.              LR    RB,RA                   | used for ASX
1PAGESERV (PAGE00) (09:42) (22MAR04) Invalidate an ASN                                                                      Page  199
0Current Usings:  (PAGCB,R6) (ASB,R7) (NVALDASN,R10) (@NVLDASN-72,R12)
0Loc    Object Code    Addr1 Addr2  Stmt Lv Lineno    Source Statement           (Hibal 5, Asmedit 3.3)  HLASM R4.0  2004/03/22 09.42
+___    ______ ____    _____ _____  ____ __ ______    ______ _________
00036D8 5420 A58C            03C08 32630    4506.              N     RA,=A(PAGAFXM)          First table entry calc
 0036DC 8820 0004            00004 32631    4507.              SRL   RA,L'PAGAFXM-AFTLOG     | index*4 is offset from AFTO
 0036E0 5E20 61A0            001A0 32632    4508.              AL    RA,PAGAFTO              |
                                   32633    4509.
                                   32634    4510.          Get ASN lock
                                   32635    4511.
 USING  @LOCKS-72,R13              32636    4512.              LKOB  PAGASNL
 0036E4 D203 D048 6188 00000 00188 32652             +
 0036EA 58F0 602C/0DEF       0002C 32658             +
 0036F0                            32660    4513.     NVASNOK  BEGIN ,                       ASN is currently OK
 USING  AFTE,R2                    32665  1 4514.                WITH  (AFTE,RA),BEGIN         |
 0036F0 5820 2000            00000 32679  2 4515.                  L     RA,AFTASTO              Second table origin
 DROP   AFTE,R2                    32680  1 4516.                END   ,                       OF First table entry calc
 0036F4 1222/4740 A0A8       03724 32688  1 4517.                IF    (RA,NEG),EXIT,NVASNOK   EXIT - 2nd table unavailable
 0036FA 5420 A590            03C0C 32705  1 4518.                N     RA,=A(AFTASTM)          | mask em out
 DROP   @LOCKS-72,R13              32706  1 4519.                RTOV  (RA)                    | to virtual (ret in RVR)
 USING  @PAGRV-72,R13
 0036FE D707 D048 D048 00000 00000 32728  1          +
 003704 5020 D048            00000 32738  1          +
 003708 58F0 A594/0DEF       03C10 32744  1          +
 00370E 5430 A598            03C14 32746  1 4520.                N     RB,=A(PAGASXM)          Second table entry calc
 003712 8930 0004            00004 32747  1 4521.                SLL   RB,4                    | index*16 is offset from ASTO
 003716 1E30                       32748  1 4522.                ALR   RB,RVR                  |
 USING  ASTE,R3                    32749  1 4523.                WITH  (ASTE,RB),BEGIN         |
 003718 9180 3000      00000       32763  2 4524.                  IF    ASTFINV,EXIT,NVASNOK    EXIT - 2nd table entry unavail
 00371C 4710 A0A8            03724 32775  2          +
 003720 9680 3000      00000       32781  2 4525.                  SET   ASTFINV                 Now it's invalid
 DROP   ASTE,R3                    32787  1 4526.                END   ,
 003724                            32795    4527.              END   ,                       OF ASN is currently OK
                                   32799    4528.
                                   32800    4529.          Release ASN lock
                                   32801    4530.
 DROP   @PAGRV-72,R13              32802    4531.              LKREL PAGASNL
 USING  @LOCKS-72,R13
 003724 D203 D048 6188 00000 00188 32821             +
 00372A 58F0 6030/0DEF       00030 32827             +
 003730 9680 C04C      00004       32829    4532.              SET   @IAOK                   Available AS
 003734 981F C008            00008 32835    4533.              PEND  ,
 DROP   ASB,R7
 DROP   PAGCB,R6
 DROP   @NVLDASN-72,R12
 DROP   NVALDASN,R10
 003738 9680 C000/0B0E 00000       32860             +
 DROP   @LOCKS-72,R13
1PAGESERV (PAGE00) (09:42) (22MAR04) Do working set management for an address space                                         Page  200
0Loc    Object Code    Addr1 Addr2  Stmt Lv Lineno    Source Statement           (Hibal 5, Asmedit 3.3)  HLASM R4.0  2004/03/22 09.42
+___    ______ ____    _____ _____  ____ __ ______    ______ _________
0                                  32870    4535.     *NEST,1
                                   32871    4536.
                                   32872    4537.
                                   32873    4538.       Do working set management for an address space
                                   32874    4539.
                                   32875    4540.       Input - @PAGWSMA
                                   32876    4541.
                                   32877    4542.      Output - @PAGWSMA
                                   32878    4543.
                                   32879    4544.

0000000                00000 00017 32881    4546.     #PAGWSMA RECORD BEGIN
 000000                            32889  1 4547.     #WSPGD     DS    A                   ddf PGD save
 000004                            32890  1 4548.     #WSINT     DS    A                       Number of intervals passed
 000008                            32891  1 4549.     #WSNXTF    DS    A                       Next frame table ptr
 00000C                            32892  1 4550.     #WSFLIST   DS    A                       Current frame-list head
 000010                            32893  1 4551.     #WSNEED    DS    A                       Number needed to trim
 000014 00                         32894  1 4552.     #WSFLAG    FLAG  ,
 #WSFLAG.#WSFTRIM  80 ONES         32898  1 4553.                FLAG  #WSFTRIM
                                   32903  1 4554.     #WSFREF    EQU   X'04'                   ISKE ref bit
                                   32904  1 4555.     #WSFREFL   EQU   5                       Ref bit is 5 from the MSB
 000015                            32905  1 4556.     #WSPSWM    DS    X                       PSW mask for disabling
 000016                            32906  1 4557.     #WSLKFLG   DS    X                       Locks for this PCB
 000017                00017 00017 32907    4558.              END   ,
-00373E                            32918    4561.     PAGWSMAN PROC  @PAGWSMA,#PAGWSMA,SCOPE=GLOBAL
 00373E D7C1C7E6E2D4C1D5           32924             +
 003746 0010/0018                  32925             +
 00374A 900F D004/18AF       00004 32927             +
 USING  PAGWSMAN,R10
 003750 50D0 C000/18CD       00000 32942             +
 003756 9680 C000      00000       32944             +
 USING  @PAGWSMA-72,R12
 AUSING (#PAGWSMA,@PAGWSMA+16)
 00375A 41D0 C070            00070 32963             +
 00375E 5860 0200            00200 32964    4562.              PAGAD RPAG
 USING  PZERO,R0
 DROP   PZERO,R0
 USING  MAT,R6
 003762 5860 600C            0000C 32998             +
 DROP   MAT,R6
 USING  PAGCB,R6
 003766                            33020    4563.              CLEAR #PAGWSMA
 003766 D716 C058 C058 00000 00000 33026             +
 USING  PZERO,R0                   33027    4564.              USING PZERO,R0
 00376C 5830 0208            00208 33036    4565.              L     RB,PZCURASB             ASB to manage
 DROP   PZERO,R0                   33037    4566.              DROP  R0
 003770 5870 3020            00020 33045    4567.              WITH  (ASB,RB),'L RPCB,ASBPAGB'
 USING  ASB,R3
 DROP   ASB,R3
 USING  ASBPCB,R7                  33069    4568.              WITH  (ASBPCB,RPCB)
 003774 AC04 C06D      00015       33082    4569.              PAGNTRY ASYNC,#WSPSWM,#WSLKFLG
 USING  @LOCKS-72,R13
 003778 D203 D048 7018 00000 00018 33102             +
1PAGESERV (PAGE00) (09:42) (22MAR04) Do working set management for an address space                                         Page  201
0Current Usings:  (PAGCB,R6) (ASBPCB,R7) (PAGWSMAN,R10) (@PAGWSMA-72,R12) (@LOCKS-72,R13)
0Loc    Object Code    Addr1 Addr2  Stmt Lv Lineno    Source Statement           (Hibal 5, Asmedit 3.3)  HLASM R4.0  2004/03/22 09.42
+___    ______ ____    _____ _____  ____ __ ______    ______ _________
000377E 58F0 602C/0DEF       0002C 33108             +
 003784 D200 C06E 70B6 00016 000B6 33110             +
 00378A 9240 70B6      000B6       33117             +
 00378E 9180 7022      00022       33127             +
 003792 47E0 A050            0379A 33128             +
 003796 9280 70B6      000B6       33140             +
                                   33145    4570.
                                   33146    4571.          If this is a request to manage global frames then we need
                                   33147    4572.          to get the global address space lock
                                   33148    4573.
 00379A 9180 C054      0000C       33149    4574.              IF    (@WSFGLOB,AND,~PCBFGBL),BEGIN    Manage global frames
 00379E 47E0 A07A            037C4 33161             +
 0037A2 9180 70B6      000B6       33172             +
 0037A6 4710 A07A            037C4 33173             +
 0037AA 5840 6018            00018 33178  1 4575.                L     RJ,PAGCASB
 0037AE 5840 4020            00020 33179  1 4576.                WITH  (ASB,RJ),'L RJ,ASBPAGB'
 USING  ASB,R4
 DROP   ASB,R4
 USING  COMM.ASBPCB,R4             33203  1 4577.                WITH  (ASBPCB,RJ,),LABEL=COMM
 0037B2                            33211  1 4578.                LKOB  COMM.PCBLOCK
 0037B2 D203 D048 4018 00000 00018 33220  1          +
 0037B8 58F0 602C/0DEF       0002C 33226  1          +
 0037BE 9680 70B6      000B6       33228  1 4579.                SET   PCBFGBL
                                   33234  1 4580.     *  Set global PCB as current
 0037C2 1874                       33235  1 4581.                LR    RPCB,RJ
 DROP   COMM.ASBPCB,R4             33236    4582.              END   ,                       OF Manage global frames
 0037C4                            33248    4583.     WSLOCK   BEGIN ,                       Locked access code
 0037C4 9140 7022      00022       33253  1 4584.                IF    PCBFTERM,EXIT           No frame mgmt - terminating
 0037C8 4710 A3FE            03B48 33265  1          +
                                   33271  1 4585.
                                   33272  1 4586.            Set up the upper limit of frames an address space can have, and
                                   33273  1 4587.            set up the history value for trimming.  The history value
                                   33274  1 4588.            determines how old a frame can be before it is tossed from the
                                   33275  1 4589.            working set.
                                   33276  1 4590.
 0037CC 5830 C050            00008 33277  1 4591.                L     RB,@WSLIMIT             Max frame limit
 0037D0 5030 702C            0002C 33278  1 4592.                ST    RB,PCBFLIMIT            Set our limit
 0037D4 5850 C04C            00004 33279  1 4593.                L     RK,@WSINT               Num of time intervals elapsed
 0037D8 5950 A4D6            03C20 33280  1 4594.                FLOOR RK,0
 0037DC 47B0 A09A            037E4 33289  1          +
 0037E0 5850 A4D6            03C20 33294  1          +
 0037E4 5950 A4DA            03C24 33299  1 4595.                CEIL  RK,63                   |
 0037E8 47D0 A0A6            037F0 33308  1          +
 0037EC 5850 A4DA            03C24 33313  1          +
 0037F0 5050 C05C            00004 33318  1 4596.                ST    RK,#WSINT               |
 0037F4 1255/47D0 A0C4       0380E 33319  1 4597.                IF    (RK,POS),BEGIN          Intervals passed
 0037FA D203 7028 6120 00028 00120 33333  2 4598.                  MVC   PCBWSHIST,PAGMNHST      Set new minimum history
 003800 9180 C054      0000C       33334  2 4599.                  IF    @WSFGLOB,'MVC PCBWSHIST,PAGGMHST'        For global
 003804 47E0 A0C4            0380E 33344  2          +
 003808 D203 7028 6124 00028 00124 33350  2          +
 00380E                            33355  1 4600.                END   ,                       |
 00380E A0C8           0380E 037F8 33359  1 4601.                ELSE  BEGIN                   No intervals passed
 00380E 47F0 A0F0            0383A 33364  1          +
1PAGESERV (PAGE00) (09:42) (22MAR04) Do working set management for an address space                                         Page  202
0Current Usings:  (PAGCB,R6) (ASBPCB,R7) (PAGWSMAN,R10) (@PAGWSMA-72,R12) (@LOCKS-72,R13)
0Loc    Object Code    Addr1 Addr2  Stmt Lv Lineno    Source Statement           (Hibal 5, Asmedit 3.3)  HLASM R4.0  2004/03/22 09.42
+___    ______ ____    _____ _____  ____ __ ______    ______ _________
0                                  33370  2 4602.
                                   33371  2 4603.              Since no intervals have passed since the last call, if there
                                   33372  2 4604.              is nothing to trim, scram.  (The global address space
                                   33373  2 4605.              doesn't have a trim-limit.)
                                   33374  2 4606.              If there is something to trim, make a note of it.
                                   33375  2 4607.
                                   33376  2 4608.   C              IF    (@WSFGLOB,OR,
 003812 9180 C054      0000C              2 4609.                        (RB,ZERO)),EXIT,WSLOCK
 003816 4710 A3FE/1233       03B48 33390  2          +
 00381C 4780 A3FE            03B48 33401  2          +
 003820 5820 7038            00038 33407  2 4610.                  L     RA,PCBFCNT              Add frames together
 003824 5E20 7044            00044 33408  2 4611.                  AL    RA,PCBPFCNT             | page tables
 003828 5E20 705C            0005C 33409  2 4612.                  AL    RA,PCBLFCNT             | long term fixed
 00382C 1B23                       33410  2 4613.                  SR    RA,RB
 00382E 47D0 A3FE            03B48 33411  2 4614.                  IF    NPOS,EXIT,WSLOCK        We're under the limit
 003832 5020 C068            00010 33425  2 4615.                  ST    RA,#WSNEED
 003836 9680 C06C      00014       33426  2 4616.                  SET   #WSFTRIM
 00383A                            33432  1 4617.                END   ,                       OF No intervals passed
                                   33436  1 4618.
                                   33437  1 4619.            Make sure we stay under maximum
                                   33438  1 4620.
 00383A                            33439  1 4621.     WSLIMIT    LOOP  BEGIN                   Stay under maximum
                                   33446  2 4622.
                                   33447  2 4623.              Manage unfixed frames, then the page table frames
                                   33448  2 4624.
 00383A 4120 7030            00030 33449  2 4625.                  LA    RA,PCBUFLH
 00383E                            33450  2 4626.                  LOOP  BEGIN
 USING  LHEAD,R2                   33456  3 4627.                    WITH  (LHEAD,RA),BEGIN        List head addr
 00383E 5020 C064            0000C 33470  4 4628.                      ST    RA,#WSFLIST
 003842 5810 2008            00008 33471  4 4629.                      L     RS,LHCNT                Manage all frames in list
 003846 5820 2000            00000 33472  4 4630.                      L     RA,LHFP                 | 1st frame
 DROP   LHEAD,R2                   33473  3 4631.                    END   ,                       OF List head addr
 00384A 1211/47D0 A3AE       03AF8 33481  3 4632.                    IF    (RS,POS),BEGIN          Process non-empty list
 003850                            33495  4 4633.                      LOOP  BEGIN                   |
 USING  PFTE,R2                    33501  5 4634.                        WITH  (PFTE,RA)
                                   33514  5 4635.
                                   33515  5 4636.                    Point to next unfixed frame.  After the I/O has started, the
                                   33516  5 4637.                    next frame points to a fixed frame, because the frame is now
                                   33517  5 4638.                    fixed for I/O.
                                   33518  5 4639.
 003850 D203 C060 2000 00008 00000 33519  5 4640.                        MVC   #WSNXTF,PFTFP           Next unfixed frame
                                   33520  5 4641.
                                   33521  5 4642.                    Perform working set history calculations for frame
                                   33522  5 4643.
 003856 1F44/BF4C 2016       00016 33523  5 4644.                        LCM   RJ,B'1100',PFTHIST      Get old history
 00385C 9180 C06C      00014       33528  5 4645.                        IF    ~#WSFTRIM,BEGIN         Calculate new history
 003860 4710 A13C            03886 33538  5          +
 003864 5850 C05C            00004 33543  6 4646.                          L     RK,#WSINT               Number of intervals
 003868 8840 5000            00000 33544  6 4647.                          SRL   RJ,@RK                  Shift history!
 00386C 1832                       33545  6 4648.                          LR    RB,RA                   Get change counts
 00386E 5F30 6044            00044 33546  6 4649.                          SL    RB,PAGPFTO              |
 003872 8930 0007            00007 33547  6 4650.                          SLL   RB,L'PAGPAGM-PFTLOG     | frame address
 003876 B22A 0003                  33548  6 4651.                          RRBE  R0,RB                   |
 00387A 47C0 A138            03882 33549  6 4652.                          IF    REF,'O RJ,=X"80000000"' |
1PAGESERV (PAGE00) (09:42) (22MAR04) Do working set management for an address space                                         Page  203
0Current Usings:  (PFTE,R2) (PAGCB,R6) (ASBPCB,R7) (PAGWSMAN,R10) (@PAGWSMA-72,R12) (@LOCKS-72,R13)
0Loc    Object Code    Addr1 Addr2  Stmt Lv Lineno    Source Statement           (Hibal 5, Asmedit 3.3)  HLASM R4.0  2004/03/22 09.42
+___    ______ ____    _____ _____  ____ __ ______    ______ _________
000387E 5640 A4DE            03C28 33561  6          +
 003882 BE4C 2016            00016 33566  6 4653.                          STCM  RJ,B'1100',PFTHIST      |
 003886                            33567  5 4654.                        END   ,                       OF Calculate new history
 003886 A140           03886 03862 33571  5 4655.                        ELSEIF (RJ,POS),BEGIN         Check last interval reference
 003886 47F0 A166/1244       038B0 33577  5          +
 00388C 47D0 A166            038B0 33589  5          +
 003890 1832                       33594  6 4656.                          LR    RB,RA                   Get reference value
 003892 5F30 6044            00044 33595  6 4657.                          SL    RB,PAGPFTO              |
 003896 8930 0007            00007 33596  6 4658.                          SLL   RB,L'PAGPAGM-PFTLOG     |
 00389A B229 0003                  33597  6 4659.                          ISKE  RVR,RB                  |
 00389E 8900 001D            0001D 33598  6 4660.                          SLL   RVR,#WSFREFL+24         |
 0038A2 1200/47B0 A166       038B0 33599  6 4661.                          IF    (RVR,NEG),BEGIN         Was referenced
 0038A8 5640 A4DE            03C28 33613  7 4662.                            O     RJ,=X'80000000'         | set it
 0038AC BE4C 2016            00016 33614  7 4663.                            STCM  RJ,B'1100',PFTHIST      |
 0038B0                            33615  6 4664.                          END   ,                       OF Was referenced
 0038B0                            33619  5 4665.                        END   ,
 0038B0 8840 0010            00010 33623  5 4666.                        SRL   RJ,16                   Move history to lower halfword
                                   33624  5 4667.
                                   33625  5 4668.                    We can trim any non-short fixed frames that have a sufficiently
                                   33626  5 4669.                    under-utilized refrence history
                                   33627  5 4670.
                                   33628  5 4671.   C WSTRIM             IF    (('LTH RB,PFTSFIX',ZERO),AND,    Eligible for trimming
 0038B4 4830 201A/1233       0001A        5 4672.                              ((RJ,LT,PCBWSHIST),OR,PFTFPGT)),BEGIN
 0038BA 4770 A3A6            03AF0 33642  5          +
 0038BE 5940 7028            00028 33657  5          +
 0038C2 4740 A184            038CE 33660  5          +
 0038C6 9180 201D      0001D       33669  5          +
 0038CA 47E0 A3A6            03AF0 33670  5          +
 0038CE 5840 2008            00008 33675  6 4673.                          L     RJ,PFTVA                Get seg table addr
 0038D2 5440 A4E2            03C2C 33676  6 4674.                          N     RJ,=A(PAGSGNM)          |
 0038D6 8840 0012            00012 33677  6 4675.                          SRL   RJ,L'PAGSGNM-SGTLOG     |
 0038DA 5E40 701C            0001C 33678  6 4676.                          AL    RJ,PCBPSTO              |
 0038DE 5840 4000            00000 33679  6 4677.                          WITH  (SGTE,RJ),'L RJ,SGTAD'  |
 USING  SGTE,R4
 DROP   SGTE,R4
 0038E2 5800 2008            00008 33703  6 4678.                          L     RVR,PFTVA               Invalidate page table entry
 0038E6 B221 0040                  33704  6 4679.                          IPTE  RJ,RVR                  |
                                   33705  6 4680.
                                   33706  6 4681.                        If the frame has been changed, write it out.  We can only check
                                   33707  6 4682.                      this for sure after the IPTE.
                                   33708  6 4683.                        Actually... if we're only letting a frame be defined in one
                                   33709  6 4684.                      place at a time (in memory, on external page, or on external
                                   33710  6 4685.                      swap, we have to write ALL of our trims.
                                   33711  6 4686.
 0038EA 1832                       33712  6 4687.                          LR    RB,RA                   Check for changed
 0038EC 5F30 6044            00044 33713  6 4688.                          SL    RB,PAGPFTO              |
 0038F0 8930 0007            00007 33714  6 4689.                          SLL   RB,L'PAGPAGM-PFTLOG     |
 0038F4 B22A 0003                  33715  6 4690.                          RRBE  R0,RB                   |
 0038F8 4750 A1BA            03904 33716  6 4691.                          IF    (CHG,OR,PAGXF1DEF),BEGIN         Write out page
 0038FC 9140 61C2      001C2       33735  6          +
 003900 47E0 A2C4            03A0E 33736  6          +
1PAGESERV (PAGE00) (09:42) (22MAR04) Do working set management for an address space                                         Page  204
0Current Usings:  (PFTE,R2) (PAGCB,R6) (ASBPCB,R7) (PAGWSMAN,R10) (@PAGWSMA-72,R12) (@LOCKS-72,R13)
0Loc    Object Code    Addr1 Addr2  Stmt Lv Lineno    Source Statement           (Hibal 5, Asmedit 3.3)  HLASM R4.0  2004/03/22 09.42
+___    ______ ____    _____ _____  ____ __ ______    ______ _________
0                                  33741  7 4692.
                                   33742  7 4693.                        Set the page table entry as "in I/O"
                                   33743  7 4694.
 003904 5440 A4E6            03C30 33744  7 4695.                            N     RJ,=A(SGTADMSK)         Page table start
 003908 5880 2008            00008 33745  7 4696.                            L     RM,PFTVA                | compute entry
 00390C 5480 A4EA            03C34 33746  7 4697.                            N     RM,=A(PAGPGNM)          |
 003910 1898                       33747  7 4698.                            LR    RN,RM                   |
 003912 8880 000A            0000A 33748  7 4699.                            SRL   RM,L'PAGPGNM-PGTLOG     |
 003916 1E84                       33749  7 4700.                            ALR   RM,RJ                   |
 003918 58B0 7014            00014 33750  7 4701.                            L     BRR,PCBRA               | DAT-Off
 00391C ACFB 70B5      000B5       33751  7 4702.                            DATOFF PCBPSWM                |
 003920                            33753  7 4703.                            BEGIN ,
 USING  PGTE,R8                    33757  8 4704.                              WITH  (PGTE,RM)
 003920 9608 8003      00003       33770  8 4705.                              SET   PGTFIO
                                   33776  8 4706.
                                   33777  8 4707.                          Get the external slot number from the shadow page table
                                   33778  8 4708.
 003924 8890 0009            00009 33779  8 4709.                              SRL   RN,L'PAGPGNM-SPTLOG     Shadow page table entry
 003928 4190 9400            00400 33780  8 4710.                              LA    RN,@RN+PGTL             |
 00392C 1E94                       33781  8 4711.                              ALR   RN,RJ                   |
 USING  SPTE,R9                    33782  8 4712.                              WITH  (SPTE,RN)
 00392E 5850 9000            00000 33795  8 4713.                              L     RK,SPXSLOT
 003932 9104 8003      00003       33796  8 4714.                              IF    ~PGTFXDEF,BEGIN         Need to allocate ext frame
 003936 4710 A22A            03974 33806  8          +
 00393A 8000 B0B5      000B5       33811  9 4715.                                WITH  (ASBPCB,BRR),'DATON PCBPSWM'
 USING  ASBPCB,R11
 DROP   ASBPCB,R11
 DROP   @LOCKS-72,R13              33836  9 4716.                                XPGET ,
 USING  @XPGET-72,R13
 00393E D710 D048 D048 00000 00000 33857  9          +
 003944 58F0 A4EE/0DEF       03C38 33863  9          +
 00394A 9180 D058      00010       33865  9 4717.                                IF    ~@XPOK,BEGIN            Alloc of ext page failed
 00394E 4710 A21C            03966 33875  9          +
 003952 ACFB 70B5      000B5       33880 10 4718.                                  DATOFF PCBPSWM
                                   33882 10 4719.                                  WITH  (PGTE,RM),BEGIN         PGTE addr
 003956 94FB 8002      00002       33889 11 4720.                                    CLEAR PGTFINV                 | not invalid
 00395A 94F7 8003      00003       33896 11 4721.                                    CLEAR PGTFIO                  | and not in I/O
                                   33903 10 4722.                                  END   ,                       OF PGTE addr
 00395E 8000 B0B5      000B5       33906 10 4723.                                  WITH  (ASBPCB,BRR),'DATON PCBPSWM'
 USING  ASBPCB,R11
 DROP   ASBPCB,R11
 003962 47F0 A3A6            03AF0 33931 10 4724.                                  EXIT  WSTRIM
 003966                            33934  9 4725.                                END   ,                       OF Alloc of ext page failed
 003966 1850                       33938  9 4726.                                LR    RK,RVR
 003968 ACFB 70B5      000B5       33939  9 4727.                                DATOFF PCBPSWM
                                   33941  9 4728.                                WITH  (PGTE,RM),BEGIN         PGTE addr
 00396C 9604 8003      00003       33948 10 4729.                                  SET   PGTFXDEF                External page defined
                                   33954 10 4730.                                  WITH  (SPTE,RN)
 003970 5050 9000            00000 33958 10 4731.                                  ST    RK,SPXSLOT
                                   33959  9 4732.                                END   ,                       OF PGTE addr
 003974                            33962  8 4733.                              END   ,                       OF Need to allocate ext frame
 DROP   SPTE,R9                    33966  7 4734.                            END   ,
 DROP   PGTE,R8
 003974 8000 B0B5      000B5       33980  7 4735.                            WITH  (ASBPCB,BRR),'DATON PCBPSWM'
1PAGESERV (PAGE00) (09:42) (22MAR04) Do working set management for an address space                                         Page  205
0Current Usings:  (PFTE,R2) (PAGCB,R6) (ASBPCB,R7) (PAGWSMAN,R10) (@PAGWSMA-72,R12) (@XPGET-72,R13)
0Loc    Object Code    Addr1 Addr2  Stmt Lv Lineno    Source Statement           (Hibal 5, Asmedit 3.3)  HLASM R4.0  2004/03/22 09.42
+___    ______ ____    _____ _____  ____ __ ______    ______ _________
0USING  ASBPCB,R11
 DROP   ASBPCB,R11
                                   34005  7 4736.
                                   34006  7 4737.                        Write out this frame
                                   34007  7 4738.
 DROP   @XPGET-72,R13              34008  7 4739.                            PSET  @PAGOUT
 USING  @PAGOUT-72,R13
 003978 D70C D048 D048 00000 00000 34028  7          +
 00397E 5050 D048            00000 34029  7 4740.                            PMOV  @PGOSLOT,(RK)
 003982 5030 D04C            00004 34039  7 4741.                            PMOV  @PGORA,(RB)
 003986 96C0 D054      0000C       34049  7 4742.                            SET   @PGOUFIX*@PGOREL        Unfix and release on complete
 00398A 58F0 A4F2/0DEF       03C3C 34058  7 4743.                            ACALL PAGOUT
 003990 9120 D054      0000C       34065  7 4744.                            IF    @PGOOK,BEGIN        ddf Could do page out
 003994 47E0 A254            0399E 34075  7          +
 003998 D203 C058 D050 00000 00008 34080  8 4745.                              MVC   #WSPGD,@PGOPGD      ddf Save PGD address
 00399E                            34081  7 4746.                            END   ,                   ddf
 00399E A258           0399E 03996 34085  7 4747.                            ELSE  BEGIN               ddf Couldn't do page out
 00399E 47F0 A26C            039B6 34090  7          +
                                   34096  8 4748.     *
                                   34097  8 4749.     *ddf     IF    ~@PGOOK,BEGIN           Couldn't do page out
 0039A2 ACFB 70B5      000B5       34098  8 4750.                              DATOFF PCBPSWM
 USING  PGTE,R8                    34100  8 4751.                              WITH  (PGTE,RM),BEGIN         PGTE addr
 0039A6 94FB 8002      00002       34114  9 4752.                                CLEAR PGTFINV                 | not invalid
 0039AA 94F7 8003      00003       34121  9 4753.                                CLEAR PGTFIO                  | and not in I/O
 DROP   PGTE,R8                    34128  8 4754.                              END   ,                       OF PGTE addr
 0039AE 8000 B0B5      000B5       34136  8 4755.                              WITH  (ASBPCB,BRR),'DATON PCBPSWM'
 USING  ASBPCB,R11
 DROP   ASBPCB,R11
 0039B2 47F0 A3A6            03AF0 34161  8 4756.                              EXIT  WSTRIM
 0039B6                            34164  7 4757.                            END   ,                       OF Couldn't do page out
 0039B6 9180 201D      0001D       34168  7 4758.                            IF    PFTFPGT,BEGIN           Page table written out
 0039BA 47E0 A29C            039E6 34178  7          +
 0039BE 4840 2014            00014 34183  8 4759.                              LH    RJ,PFTSEG               Set invalid segment
 0039C2 1834                       34184  8 4760.                              LR    RB,RJ                   | set "in I/O" in shadow
 0039C4 8930 0003            00003 34185  8 4761.                              SLL   RB,SSTLOG               | |
 0039C8 4A30 60BE            000BE 34186  8 4762.                              AH    RB,PAGSEGL              | |
 0039CC 5E30 701C            0001C 34187  8 4763.                              AL    RB,PCBPSTO              | |
 USING  SSTE,R3                    34188  8 4764.                              WITH  (SSTE,RB),BEGIN         | |
 0039D0 9620 3006      00006       34202  9 4765.                                SET   SSTFIO                  | |
 DROP   SSTE,R3                    34208  8 4766.                              END   ,                       | |
 0039D4 8940 0002            00002 34216  8 4767.                              SLL   RJ,SGTLOG               |
 0039D8 5E40 701C            0001C 34217  8 4768.                              AL    RJ,PCBPSTO              |
 USING  SGTE,R4                    34218  8 4769.                              WITH  (SGTE,RJ),BEGIN         | SGTE addr
 0039DC 9620 4003      00003       34232  9 4770.                                SET   SGTFINV                 |
 0039E0 58F0 A4F6/0DEF       03C40 34238  9 4771.                                VCALL DISPPTLB                |
 DROP   SGTE,R4                    34242  8 4772.                              END   ,                       | OF SGTE addr
 0039E6                            34250  7 4773.                            END   ,                       |
 0039E6 58F0 C058/12FF       00000 34254  7 4774.                            IF    ('LT R15,#WSPGD',NZ),BEGIN ddf
 0039EC 4780 A2C4            03A0E 34265  7          +
 0039F0 9300 F021      00021       34270  8 4775.                              WITH  (PGDPAGE,R15),'TS PGDIOF' ddf IO already done?
 USING  PGDPAGE,R15
 DROP   PGDPAGE,R15
 0039F4 4780 A2BE            03A08 34294  8 4776.                              IF    NZ,BEGIN            ddf Yes, that sure was fast!
 DROP   @PAGOUT-72,R13             34305  9 4777.                                PSET  @IOTERM             ddf
1PAGESERV (PAGE00) (09:42) (22MAR04) Do working set management for an address space                                         Page  206
0Current Usings:  (PFTE,R2) (PAGCB,R6) (ASBPCB,R7) (PAGWSMAN,R10) (@PAGWSMA-72,R12) (@IOTERM-72,R13)
0Loc    Object Code    Addr1 Addr2  Stmt Lv Lineno    Source Statement           (Hibal 5, Asmedit 3.3)  HLASM R4.0  2004/03/22 09.42
+___    ______ ____    _____ _____  ____ __ ______    ______ _________
0USING  @IOTERM-72,R13
 0039F8 D707 D048 D048 00000 00000 34325  9          +
 0039FE 50F0 D048            00000 34326  9 4778.                                PMOV  @IOTPARM,(R15)      ddf PCB in control
 003A02 58F0 A4FA/0DEF       03C44 34336  9 4779.                                ACALL PAGTERM             ddf Do page IO termination now
 003A08                            34343  8 4780.                              END   ,                   ddf
 003A08                            34347  8 4781.                              CLEAR #WSPGD              ddf
 003A08 D703 C058 C058 00000 00000 34353  8          +
 003A0E                            34354  7 4782.                            END   ,                   ddf
 003A0E                            34358  6 4783.                          END   ,                       OF Write out page
1PAGESERV (PAGE00) (09:42) (22MAR04) Do working set management for an address space                                         Page  207
0Current Usings:  (PFTE,R2) (PAGCB,R6) (ASBPCB,R7) (PAGWSMAN,R10) (@PAGWSMA-72,R12) (@IOTERM-72,R13)
0Loc    Object Code    Addr1 Addr2  Stmt Lv Lineno    Source Statement           (Hibal 5, Asmedit 3.3)  HLASM R4.0  2004/03/22 09.42
+___    ______ ____    _____ _____  ____ __ ______    ______ _________
0003A0E A2C8           03A0E 03902 34363  6 4785.                          ELSE  BEGIN                   Release unchanged frame
 003A0E 47F0 A38E            03AD8 34368  6          +
                                   34374  7 4786.
                                   34375  7 4787.
                                   34376  7 4788.         Frame is not changed, so release it.  If it is a page table
                                   34377  7 4789.       frame, set the segment entry to the virtual address, and set
                                   34378  7 4790.       the page table entry to the segment number.
                                   34379  7 4791.
                                          7
0003A12 9180 201D      0001D       34380  7 4792.                            IF    PFTFPGT,BEGIN           Page table frame
 003A16 47E0 A34E            03A98 34390  7          +
 003A1A 5850 2008            00008 34395  8 4793.                              L     RK,PFTVA                Virtual address
 003A1E 5450 A4FE            03C48 34396  8 4794.                              N     RK,=A(PAGPAGM)          | page align
                                   34397  8 4795.
                                   34398  8 4796.                          Set seg table with PTs VA
                                   34399  8 4797.
 003A22 4840 2014            00014 34400  8 4798.                              LH    RJ,PFTSEG               Segment table addr
 003A26 8940 0002            00002 34401  8 4799.                              SLL   RJ,SGTLOG               |
 003A2A 5E40 701C            0001C 34402  8 4800.                              AL    RJ,PCBPSTO              |
 USING  SGTE,R4                    34403  8 4801.                              WITH  (SGTE,RJ),BEGIN         |
 003A2E 9620 4003      00003       34417  9 4802.                                SET   SGTFINV                 Invalidate segment
 003A32 58F0 A4F6/0DEF       03C40 34423  9 4803.                                VCALL DISPPTLB                |
 003A38 5800 4000            00000 34427  9 4804.                                L     RVR,SGTAD               Set seg entry w/ VA
 003A3C 5400 A502            03C4C 34428  9 4805.                                N     RVR,=A(SGTFLMSK)        |
 003A40 1605                       34429  9 4806.                                OR    RVR,RK                  | VA
 003A42 5000 4000            00000 34430  9 4807.                                ST    RVR,SGTAD               |
 DROP   SGTE,R4                    34431  8 4808.                              END   ,                       OF SGTE addr
                                   34439  8 4809.
                                   34440  8 4810.                          Set page table with segment number
                                   34441  8 4811.
 003A46 1845                       34442  8 4812.                              LR    RJ,RK                   Copy VA => page tbl entry
 003A48 8840 0014            00014 34443  8 4813.                              SRL   RJ,L'PAGSGNM            |
 003A4C 4940 2014            00014 34444  8 4814.                              IF    ('CH RJ,PFTSEG',NE),BEGIN        Doesn't map own addr
 003A50 4780 A34E            03A98 34452  8          +
 003A54 8940 0002            00002 34457  9 4815.                                SLL   RJ,SGTLOG
 003A58 5E40 701C            0001C 34458  9 4816.                                AL    RJ,PCBPSTO
 USING  SGTE,R4                    34459  9 4817.                                WITH  (SGTE,RJ),BEGIN         SGTE addr
 003A5C 9120 4003      00003       34473 10 4818.                                  IF    SGTFINV,WSSTI
 003A60 4710 A452            03B9C 34485 10          +
 003A64 5840 4000            00000 34491 10 4819.                                  L     RJ,SGTAD
 DROP   SGTE,R4                    34492  9 4820.                                END   ,                       OF SGTE addr
 003A68 5440 A4E6            03C30 34500  9 4821.                                N     RJ,=A(SGTADMSK)         Page table entry - start
 003A6C 5450 A4EA            03C34 34501  9 4822.                                N     RK,=A(PAGPGNM)          | page number
 003A70 8850 000A            0000A 34502  9 4823.                                SRL   RK,L'PAGPGNM-PGTLOG     |
 003A74 1E54                       34503  9 4824.                                ALR   RK,RJ                   | page table entry RA
 003A76 5880 7014            00014 34504  9 4825.                                L     RM,PCBRA
 USING  REAL.ASBPCB,R8             34505  9 4826.                                WITH  (ASBPCB,RM),LABEL=REAL
 003A7A 4830 2014            00014 34513  9 4827.                                LH    RB,PFTSEG               Get segment number for PT
 003A7E 8930 0014            00014 34514  9 4828.                                SLL   RB,L'PAGSGNM            |
 003A82 ACFB 70B5      000B5       34515  9 4829.                                DATOFF PCBPSWM
 USING  PGTE,R5                    34517  9 4830.                                WITH  (PGTE,RK),BEGIN         PGTE addr
 003A86 5800 5000            00000 34531 10 4831.                                  L     RVR,PGAD
 003A8A 5400 A506            03C50 34532 10 4832.                                  N     RVR,=A(PGTFLMSK)
1PAGESERV (PAGE00) (09:42) (22MAR04) Do working set management for an address space                                         Page  208
0Current Usings:  (PFTE,R2) (PGTE,R5) (PAGCB,R6) (ASBPCB,R7) (REAL.ASBPCB,R8) (PAGWSMAN,R10) (@PAGWSMA-72,R12) (@IOTERM-72,R13)
0Loc    Object Code    Addr1 Addr2  Stmt Lv Lineno    Source Statement           (Hibal 5, Asmedit 3.3)  HLASM R4.0  2004/03/22 09.42
+___    ______ ____    _____ _____  ____ __ ______    ______ _________
0003A8E 1603                       34533 10 4833.                                  OR    RVR,RB
 003A90 5000 5000            00000 34534 10 4834.                                  ST    RVR,PGAD
 DROP   PGTE,R5                    34535  9 4835.                                END   ,                       OF PGTE addr
 003A94 8000 80B5      000B5       34543  9 4836.                                DATON REAL.PCBPSWM
 DROP   REAL.ASBPCB,R8             34545  8 4837.                              END   ,                       OF Doesn't map own addr
 003A98                            34557  7 4838.                            END   ,                       OF Page table frame
                                   34561  7 4839.
                                   34562  7 4840.                        One less short term fix for PT frame
                                   34563  7 4841.
 003A98 5850 2008            00008 34564  7 4842.                            L     RK,PFTVA                One less short fix - PT
 003A9C B150 5000            00000 34565  7 4843.                            LRA   RK,@RK                  |
 003AA0 47D0 A482            03BCC 34566  7 4844.                            IF    ~PAGI,WSPTI             | just made invalid
 003AA4 18F5/88F0 000C       0000C 34580  7 4845.                            QUSFIX (RK)                   |
 003AAA 89F0 0005            00005 34587  7          +
 003AAE 5EF0 6044            00044 34588  7          +
 USING  PFTE,R15
 003AB2 48E0 F01A/06E0       0001A 34603  8          +
 003AB8 59E0 A4D6            03C20 34608  8          +
 003ABC 47B0 A37A            03AC4 34615  8          +
 003AC0 58E0 A4D6            03C20 34620  8          +
 003AC4 40E0 F01A            0001A 34625  7          +
 DROP   PFTE,R15
                                   34634  7 4846.
 DROP   @IOTERM-72,R13             34635  7 4847.                            FRAMEREL LA:PFTE              |
 USING  @FRAMREL-72,R13
 003AC8 D707 D048 D048 00000 00000 34656  7          +
 003ACE 5020 D04C            00004 34667  7          +
 003AD2 58F0 A50A/0DEF       03C54 34673  7          +
 003AD8                            34675  6 4848.                          END   ,                       OF Release unchanged frame
 003AD8 9180 C06C      00014       34679  6 4849.                          IF    #WSFTRIM,BEGIN          Have we trimmed enough?
 003ADC 47E0 A3A6            03AF0 34689  6          +
 003AE0 5820 C068/0620       00010 34694  7 4850.                            DECR  RA,#WSNEED
 003AE6 5020 C068            00010 34698  7          +
 003AEA 1222/4780 A3FE       03B48 34699  7 4851.                            IF    (RA,ZERO),EXIT,WSLIMIT
 003AF0                            34716  6 4852.                          END   ,                       OF Have we trimmed enough?
 003AF0                            34720  5 4853.                        END   ,                       OF Eligible for trimming
 003AF0 5820 C060            00008 34724  5 4854.                        L     RA,#WSNXTF              Next unfixed frame
 003AF4 4610 A106            03850 34725  4 4855.                      UNTIL (BCT,RS),END            OF Manage all frames in list
 DROP   PFTE,R2
 003AF8                            34740  3 4856.                    END   ,                       OF Process non-empty list
                                   34744  3 4857.
                                   34745  3 4858.                Move onto the next frame list
                                   34746  3 4859.
 003AF8 5820 C064            0000C 34747  3 4860.                    L     RA,#WSFLIST
 003AFC 4120 200C            0000C 34748  3 4861.                    LA    RA,@RA+L'LHEAD
 003B00 4110 703C            0003C 34749  3 4862.                    LA    RS,PCBPFLH
 003B04 1921/47D0 A0F4       0383E 34750  2 4863.                  UNTIL (RA,GT,RS),END          OF manage normal then page tbl
                                   34773  2 4864.
                                   34774  2 4865.              Check to see if we are under maximum
                                   34775  2 4866.
 003B0A 5820 7038            00038 34776  2 4867.                  L     RA,PCBFCNT              Number of frames we have
 003B0E 5E20 7044            00044 34777  2 4868.                  AL    RA,PCBPFCNT             | PT frames
 003B12 5E20 705C            0005C 34778  2 4869.                  AL    RA,PCBLFCNT             | long term fixed
 003B16 5830 C050/1233       00008 34779  2 4870.                  IF    ('LT RB,@WSLIMIT',ZERO),EXIT
1PAGESERV (PAGE00) (09:42) (22MAR04) Do working set management for an address space                                         Page  209
0Current Usings:  (PAGCB,R6) (ASBPCB,R7) (PAGWSMAN,R10) (@PAGWSMA-72,R12) (@FRAMREL-72,R13)
0Loc    Object Code    Addr1 Addr2  Stmt Lv Lineno    Source Statement           (Hibal 5, Asmedit 3.3)  HLASM R4.0  2004/03/22 09.42
+___    ______ ____    _____ _____  ____ __ ______    ______ _________
0003B1C 4780 A3FE            03B48 34792  2          +
 003B20 1F23                       34798  2 4871.                  SLR   RA,RB                   |
 003B22 1222/47D0 A3FE       03B48 34799  2 4872.                  IF    (RA,NPOS),EXIT          We are OK
 003B28 5020 C068            00010 34816  2 4873.                  ST    RA,#WSNEED
 003B2C 9680 C06C      00014       34817  2 4874.                  SET   #WSFTRIM
 003B30 5830 7028            00028 34823  2 4875.                  L     RB,PCBWSHIST            Use smaller work set window
 003B34 8930 0001            00001 34824  2 4876.                  SLL   RB,1                    |
                                   34825  2 4877.     * after 8 cycles through the list we can't do any more
 003B38 5930 A50E            03C58 34826  2 4878.                  IF    (RB,GT,=A(PAGMXHST)),EXIT,WSLIMIT can't trim more
 003B3C 4720 A3FE            03B48 34839  2          +
 003B40 5030 7028            00028 34845  2 4879.                  ST    RB,PCBWSHIST            |
                                   34846  2 4880.
 003B44 47F0 A0F0            0383A 34847  1 4881.                END   ,                       OF Stay under maximum
 003B48                            34852    4882.              END   ,                       OF Locked access code
 USING  PZERO,R0                   34856    4883.              USING PZERO,R0                Go back to PCB in control
 003B48 5870 0208            00208 34865    4884.              L     RPCB,PZCURASB
 003B4C 5870 7020            00020 34866    4885.              WITH  (ASB,RPCB),'L RPCB,ASBPAGB'
 DROP   ASBPCB,R7
 USING  ASB,R7
 DROP   ASB,R7
 USING  ASBPCB,R7
 DROP   PZERO,R0                   34900    4886.              DROP  R0
 003B50 4310 70B6            000B6 34908    4887.              PAGXIT ASYNC,#WSPSWM,#WSLKFLG,WR=RS
 003B54 D200 70B6 C06E 000B6 00016 34912             +
 003B5A 4210 C06E            00016 34913             +
 003B5E 9180 C06E      00016       34923             +
 003B62 47E0 A430            03B7A 34924             +
 003B66 5850 6018            00018 34929  1          +
 USING  ASB,R5
 003B6A 5850 5020            00020 34945  1          +
 DROP   ASB,R5
 DROP   ASBPCB,R7
 USING  ASBPCB,R5
 DROP   @FRAMREL-72,R13
 USING  @LOCKS-72,R13
 003B6E D203 D048 5018 00000 00018 34998  2          +
 003B74 58F0 6030/0DEF       00030 35004             +
 USING  ASBPCB,R7
 DROP   ASBPCB,R5
 003B7A 9140 C06E      00016       35036             +
 003B7E 47E0 A444            03B8E 35037             +
 003B82 D203 D048 7018 00000 00018 35051  1          +
 003B88 58F0 6030/0DEF       00030 35057             +
 003B8E 8000 C06D      00015       35063             +
 003B92 981F C008            00008 35064    4888.              PEND  ,
 DROP   ASBPCB,R7
 DROP   PAGCB,R6
 DROP   @PAGWSMA-72,R12
 DROP   PAGWSMAN,R10
 003B96 9680 C000/0B0E 00000       35089             +
 DROP   @LOCKS-72,R13
                                   35098    4889.     *NEST,2
0003B9C AC04 021B      0021B       35100    4891.     WSSTI    ABORT PAGWSSTI                Seg invalid - shouldn't be
1PAGESERV (PAGE00) (09:42) (22MAR04) Do working set management for an address space                                         Page  210
0Current Usings:  (PZERO,R0)
0Loc    Object Code    Addr1 Addr2  Stmt Lv Lineno    Source Statement           (Hibal 5, Asmedit 3.3)  HLASM R4.0  2004/03/22 09.42
+___    ______ ____    _____ _____  ____ __ ______    ______ _________
0USING  PZERO,R0
 003BA0 9680 021A      0021A       35119             +
 003BA4 50F0 021C            0021C 35120             +
 003BA8 58F0 0210            00210 35121             +
 003BAC 89F0 0010            00010 35122             +
 003BB0 88F0 0010            00010 35123             +
 003BB4 41F0 F000            00000 35124             +
 003BB8 AEFF 0006            00006 35125             +
 003BBC D7C1C7E6E2E2E3C9           35126             +
 DROP   PZERO,R0
0003BCC AC04 021B      0021B       35136    4893.     WSPTI    ABORT PAGWSPTI                Should be page-invalid
 USING  PZERO,R0
 003BD0 9680 021A      0021A       35155             +
 003BD4 50F0 021C            0021C 35156             +
 003BD8 58F0 0210            00210 35157             +
 003BDC 89F0 0010            00010 35158             +
 003BE0 88F0 0010            00010 35159             +
 003BE4 41F0 F000            00000 35160             +
 003BE8 AEFF 0006            00006 35161             +
 003BEC D7C1C7E6E2D7E3C9           35162             +
 DROP   PZERO,R0
1PAGESERV (PAGE00) (09:42) (22MAR04) MP-ORVYL Real Memory / Paging Manager Services                                         Page  211
0Loc    Object Code    Addr1 Addr2  Stmt Lv Lineno    Source Statement           (Hibal 5, Asmedit 3.3)  HLASM R4.0  2004/03/22 09.42
+___    ______ ____    _____ _____  ____ __ ______    ______ _________
0003C00                            35172    4895.              LTORG ,
 003C00 00006958                   35174                             =A(SWPREL)
 003C04 00007204                   35175                             =A(CELLFREE)
 003C08 0000FFC0                   35176                             =A(PAGAFXM)
 003C0C 7FFFFFF0                   35177                             =A(AFTASTM)
 003C10 0000078C                   35178                             =A(PAGRV)
 003C14 0000003F                   35179                             =A(PAGASXM)
 003C18 0000007F                   35180                             =A(ASTSTL)
 003C1C 00000003                   35181                             =A(ASBLPARM)
 003C20 00000000                   35182                             =A(0)
 003C24 0000003F                   35183                             =A(63)
 003C28 80000000                   35184                             =X'80000000'
 003C2C 7FF00000                   35185                             =A(PAGSGNM)
 003C30 7FFFFFC0                   35186                             =A(SGTADMSK)
 003C34 000FF000                   35187                             =A(PAGPGNM)
 003C38 00006652                   35188                             =A(XPGET)
 003C3C 00000CB0                   35189                             =A(PAGOUT)
 003C40 00000000                   35190                             =V(DISPPTLB)
 003C44 00000E82                   35191                             =A(PAGTERM)
 003C48 7FFFF000                   35192                             =A(PAGPAGM)
 003C4C 0000003F                   35193                             =A(SGTFLMSK)
 003C50 000006FF                   35194                             =A(PGTFLMSK)
 003C54 000064E2                   35195                             =A(FRAMEREL)
 003C58 00010000       03C5C 0A6E0 35196                             =A(PAGMXHST)
1PAGESERV (PAGE00) (09:42) (22MAR04) Fix frames in main store                                                               Page  212
0Loc    Object Code    Addr1 Addr2  Stmt Lv Lineno    Source Statement           (Hibal 5, Asmedit 3.3)  HLASM R4.0  2004/03/22 09.42
+___    ______ ____    _____ _____  ____ __ ______    ______ _________
0                                  35201    4897.
                                   35202    4898.
                                   35203    4899.       Fix a range of virtual addresses in main store
                                   35204    4900.
                                   35205    4901.       Input - @PAGE
                                   35206    4902.
                                   35207    4903.      Output - NONE
                                   35208    4904.
                                   35209    4905.

0@PAGLOC.@PAG2ND   80 ONES         35210    4906.              FLAG  (@PAG2ND,@PAGLOC.X'80') 2ndary space address
0003C5C                            35220    4908.     PAGFIX   PROC  @PAGE,#PAGE,SCOPE=GLOBAL         Fix frames
 003C5C D7C1C7C6C9E74040           35226             +
 003C64 0010/0008                  35227             +
 003C68 900F D004/18AF       00004 35229             +
 USING  PAGFIX,R10
 003C6E 50D0 C000/18CD       00000 35244             +
 003C74 9680 C000      00000       35246             +
 USING  @PAGE-72,R12
 AUSING (#PAGE,@PAGE+16)
 003C78 41D0 C060            00060 35265             +
 003C7C 5860 0200            00200 35266    4909.              PAGAD RPAG
 USING  PZERO,R0
 DROP   PZERO,R0
 USING  MAT,R6
 003C80 5860 600C            0000C 35300             +
 DROP   MAT,R6
 USING  PAGCB,R6
 USING  PZERO,R0                   35322    4910.              USING PZERO,R0
 003C84 5870 0208            00208 35331    4911.              L     RPCB,PZCURASB           Get PCB address
 DROP   PZERO,R0                   35332    4912.              DROP  R0
 003C88 5870 7020            00020 35340    4913.              WITH  (ASB,RPCB),'L RPCB,ASBPAGB'
 USING  ASB,R7
 DROP   ASB,R7
 USING  ASBPCB,R7                  35364    4914.              WITH  (ASBPCB,RPCB)
 003C8C 5820 C048            00000 35377    4915.              L     RA,@PAGLOC              Starting page
 003C90 1832                       35378    4916.              LR    RB,RA                   Ending page
 003C92 5E30 C04C            00004 35379    4917.              AL    RB,@PAGLEN              |
 003C96 0630                       35380    4918.              DECR  RB                      |
 003C98 5810 AB78            047E0 35382    4919.              L     RS,=A(PAGPAGM)          |
 003C9C 1421                       35383    4920.              NR    RA,RS                   |
 003C9E 1431                       35384    4921.              NR    RB,RS                   |
 003CA0 1F32                       35385    4922.              SLR   RB,RA                   Number of pages
 003CA2 8830 000C            0000C 35386    4923.              SRL   RB,L'PAGPAGM            |
 003CA6 5E30 AB7C            047E4 35387    4924.              INCR  RB                      |
                                   35390    4925.     *        IF    @PAG2ND,BEGIN           Secondary space fix
                                   35391    4926.     *        ABORT PAGFIX2                 Can't do now
                                   35392    4927.     *        O     RA,=X'80000000'
                                   35393    4928.     *        END   ,                       OF Secondary space fix
0                                  35395    4930.
                                   35396    4931.
                                   35397    4932.       Get lock
                                   35398    4933.
1PAGESERV (PAGE00) (09:42) (22MAR04) Fix frames in main store                                                               Page  213
0Current Usings:  (PAGCB,R6) (ASBPCB,R7) (PAGFIX,R10) (@PAGE-72,R12)
0Loc    Object Code    Addr1 Addr2  Stmt Lv Lineno    Source Statement           (Hibal 5, Asmedit 3.3)  HLASM R4.0  2004/03/22 09.42
+___    ______ ____    _____ _____  ____ __ ______    ______ _________
0
0003CAA AC04 C059      00001       35399    4934.              PAGNTRY SYNC,#PAGPSWM,#PAGFLGS
 USING  @LOCKS-72,R13
 003CAE D203 D048 7018 00000 00018 35419             +
 003CB4 58F0 602C/0DEF       0002C 35425             +
 003CBA D200 C058 70B6 00000 000B6 35427             +
 003CC0 9260 70B6      000B6       35437             +
 003CC4 9180 7022      00022       35447             +
 003CC8 47E0 A068            03CD0 35448             +
 003CCC 92A0 70B6      000B6       35463             +
 003CD0                            35468    4935.              LOOP  BEGIN                   Fix pages
 DROP   @LOCKS-72,R13              35474  1 4936.                PSET  @RESOLVE                Bring in page
 USING  @RESOLVE-72,R13
 003CD0 D709 D048 D048 00000 00000 35494  1          +
 003CD6 5020 D048            00000 35495  1 4937.                PMOV  @PRVA,(RA)              |
 003CDA 5070 D04C            00004 35505  1 4938.                PMOV  @PRPCB,LA:ASBPCB        |
 003CDE                            35516  1 4939.                PMOV  @PRPSWM,#PAGPSWM        |
 003CDE D200 D050 C059 00008 00001 35520  1          +
 003CE4 58F0 6034/0DEF       00034 35521  1 4940.                ACALL PAGRESLV                |
 003CEA 9500 D051      00009       35528  1 4941.                IF    ~@PRROK,PFABORT         |
 003CEE 4770 A0F0            03D58 35540  1          +
 003CF2 1840                       35546  1 4942.                LR    RJ,RVR                  Fix this frame (RVR = real ad)
 DROP   @RESOLVE-72,R13            35547  1 4943.                PSET  @QFIX                   |
 USING  @QFIX-72,R13
 003CF4 D703 D048 D048 00000 00000 35567  1          +
 003CFA 5040 D048            00000 35568  1 4944.                PMOV  @QFIXRA,(RJ)            |
 003CFE 58F0 AB80/0DEF       047E8 35578  1 4945.                ACALL QFIX                    |
                                   35585  1 4946.
 003D04 5E20 AB84            047EC 35586  1 4947.                AL    RA,=A(PAGPAGEL)         Next page ...
 003D08 4630 A068            03CD0 35587    4948.              UNTIL (BCT,RB),END            OF Fix pages
 003D0C 4310 70B6            000B6 35597    4949.              PAGXIT SYNC,#PAGPSWM,#PAGFLGS,WR=RS
 003D10 D200 70B6 C058 000B6 00000 35601             +
 003D16 4210 C058            00000 35602             +
 003D1A 9180 C058      00000       35612             +
 003D1E 47E0 A0CE            03D36 35613             +
 003D22 5850 6018            00018 35618  1          +
 USING  ASB,R5
 003D26 5850 5020            00020 35634  1          +
 DROP   ASB,R5
 DROP   ASBPCB,R7
 USING  ASBPCB,R5
 DROP   @QFIX-72,R13
 USING  @LOCKS-72,R13
 003D2A D203 D048 5018 00000 00018 35687  2          +
 003D30 58F0 6030/0DEF       00030 35693             +
 USING  ASBPCB,R7
 DROP   ASBPCB,R5
 003D36 9140 C058      00000       35725             +
 003D3A 47E0 A0E2            03D4A 35726             +
 003D3E D203 D048 7018 00000 00018 35740  1          +
 003D44 58F0 6030/0DEF       00030 35746             +
 003D4A 8000 C059      00001       35752             +
 003D4E 981F C008            00008 35753    4950.              PEND  ,
1PAGESERV (PAGE00) (09:42) (22MAR04) Fix frames in main store                                                               Page  214
0Current Usings:  (@LOCKS-72,R13)
0Loc    Object Code    Addr1 Addr2  Stmt Lv Lineno    Source Statement           (Hibal 5, Asmedit 3.3)  HLASM R4.0  2004/03/22 09.42
+___    ______ ____    _____ _____  ____ __ ______    ______ _________
0DROP   ASBPCB,R7
 DROP   PAGCB,R6
 DROP   @PAGE-72,R12
 DROP   PAGFIX,R10
 003D52 9680 C000/0B0E 00000       35778             +
 DROP   @LOCKS-72,R13
0003D58 AC04 021B      0021B       35788    4952.     PFABORT  ABORT PAGFIX                  Pages not defined
 USING  PZERO,R0
 003D5C 9680 021A      0021A       35807             +
 003D60 50F0 021C            0021C 35808             +
 003D64 58F0 0210            00210 35809             +
 003D68 89F0 0010            00010 35810             +
 003D6C 88F0 0010            00010 35811             +
 003D70 41F0 F000            00000 35812             +
 003D74 AEFF 0006            00006 35813             +
 003D78 D7C1C7C6C9E74040           35814             +
 DROP   PZERO,R0
1PAGESERV (PAGE00) (09:42) (22MAR04) Unfix a frame in main store                                                            Page  215
0Loc    Object Code    Addr1 Addr2  Stmt Lv Lineno    Source Statement           (Hibal 5, Asmedit 3.3)  HLASM R4.0  2004/03/22 09.42
+___    ______ ____    _____ _____  ____ __ ______    ______ _________
0                                  35824    4954.
                                   35825    4955.
                                   35826    4956.       Unfix a range of virtual addresses in main store
                                   35827    4957.
                                   35828    4958.       Input - @PAGE
                                   35829    4959.
                                   35830    4960.      Output - RVR =  0 if all went OK
                                   35831    4961.               RVR <> 0 if one of the pages was out.
                                   35832    4962.                 RVR = the virtual address of the frame that was out
                                   35833    4963.
                                   35834    4964.

0003D88                            35836    4966.     PAGUFIX  PROC  @PAGE,#PAGE,SCOPE=GLOBAL         Unfix frames
 003D88 D7C1C7E4C6C9E740           35842             +
 003D90 0010/0008                  35843             +
 003D94 900F D004/18AF       00004 35845             +
 USING  PAGUFIX,R10
 003D9A 50D0 C000/18CD       00000 35860             +
 003DA0 9680 C000      00000       35862             +
 USING  @PAGE-72,R12
 AUSING (#PAGE,@PAGE+16)
 003DA4 41D0 C060            00060 35881             +
 003DA8 5860 0200            00200 35882    4967.              PAGAD RPAG
 USING  PZERO,R0
 DROP   PZERO,R0
 USING  MAT,R6
 003DAC 5860 600C            0000C 35916             +
 DROP   MAT,R6
 USING  PAGCB,R6
 USING  PZERO,R0                   35938    4968.              USING PZERO,R0
 003DB0 5870 0208            00208 35947    4969.              L     RPCB,PZCURASB           Get PCB address
 DROP   PZERO,R0                   35948    4970.              DROP  R0
 003DB4 5870 7020            00020 35956    4971.              WITH  (ASB,RPCB),'L RPCB,ASBPAGB'
 USING  ASB,R7
 DROP   ASB,R7
 USING  ASBPCB,R7                  35980    4972.              WITH  (ASBPCB,RPCB)
 003DB8 5820 C048            00000 35993    4973.              L     RA,@PAGLOC              Starting page
 003DBC 1832                       35994    4974.              LR    RB,RA                   Ending page
 003DBE 5E30 C04C            00004 35995    4975.              AL    RB,@PAGLEN              |
 003DC2 0630                       35996    4976.              DECR  RB                      |
 003DC4 5810 AA4C            047E0 35998    4977.              L     RS,=A(PAGPAGM)          |
 003DC8 1421                       35999    4978.              NR    RA,RS                   |
 003DCA 1431                       36000    4979.              NR    RB,RS                   |
 003DCC 1F32                       36001    4980.              SLR   RB,RA                   Number of pages
 003DCE 8830 000C            0000C 36002    4981.              SRL   RB,L'PAGPAGM            |
 003DD2 5E30 AA50            047E4 36003    4982.              INCR  RB                      |
                                   36006    4983.     *        IF    @PAG2ND,BEGIN           Secondary space fix
                                   36007    4984.     *        ABORT PAGFIX2                 Can't do now
                                   36008    4985.     *        O     RA,=X'80000000'
                                   36009    4986.     *        END   ,                       OF Secondary space fix
0                                  36011    4988.
                                   36012    4989.
                                   36013    4990.       Get lock
                                   36014    4991.
1PAGESERV (PAGE00) (09:42) (22MAR04) Unfix a frame in main store                                                            Page  216
0Current Usings:  (PAGCB,R6) (ASBPCB,R7) (PAGUFIX,R10) (@PAGE-72,R12)
0Loc    Object Code    Addr1 Addr2  Stmt Lv Lineno    Source Statement           (Hibal 5, Asmedit 3.3)  HLASM R4.0  2004/03/22 09.42
+___    ______ ____    _____ _____  ____ __ ______    ______ _________
0
0003DD6 AC04 C059      00001       36015    4992.              PAGNTRY SYNC,#PAGPSWM,#PAGFLGS
 USING  @LOCKS-72,R13
 003DDA D203 D048 7018 00000 00018 36035             +
 003DE0 58F0 602C/0DEF       0002C 36041             +
 003DE6 D200 C058 70B6 00000 000B6 36043             +
 003DEC 9260 70B6      000B6       36053             +
 003DF0 9180 7022      00022       36063             +
 003DF4 47E0 A068            03DFC 36064             +
 003DF8 92A0 70B6      000B6       36079             +
 003DFC 1B55                       36084    4993.              CLEAR RK                      Set as OK
 003DFE                            36088    4994.     PAGUFOK  LOOP  BEGIN                   Unfix pages
 003DFE B140 2000            00000 36095  1 4995.                LRA   RJ,@RA
 003E02 4780 A078/1852       03E0C 36096  1 4996.                IF    ~VAOK,'LR RK,RA; EXIT PAGUFOK'
 003E08 47F0 A0C6            03E5A 36111  1          +
 003E0C 9180 70B6      000B6       36116  1 4997.                IF    ~PCBFGBL,BEGIN          Don't have global lock
 003E10 4710 A0AE            03E42 36126  1          +
 003E14 1884                       36131  2 4998.                  LR    RM,RJ
 003E16 8880 000C            0000C 36132  2 4999.                  SRL   RM,L'PAGPAGM
 003E1A 8980 0005            00005 36133  2 5000.                  SLL   RM,PFTLOG
 003E1E 5E80 6044            00044 36134  2 5001.                  AL    RM,PAGPFTO
 USING  PFTE,R8                    36135  2 5002.                  WITH  (PFTE,RM),BEGIN         PFTE addr
 003E22 5890 800C            0000C 36149  3 5003.                    L     RN,PFTASB
 003E26 5890 9020            00020 36150  3 5004.                    WITH  (ASB,RN),'L RN,ASBPAGB'
 USING  ASB,R9
 DROP   ASB,R9
 USING  COMM.ASBPCB,R9             36174  3 5005.                    WITH  (ASBPCB,RN),LABEL=COMM
 003E2A 9180 9022      00022       36182  3 5006.                    IF    COMM:PCBFGBLC,BEGIN     This is global memory
 003E2E 47E0 A0AE            03E42 36192  3          +
 003E32                            36197  4 5007.                      LKOB  COMM.PCBLOCK            Get global lock
 003E32 D203 D048 9018 00000 00018 36206  4          +
 003E38 58F0 602C/0DEF       0002C 36212  4          +
 003E3E 9680 70B6      000B6       36214  4 5008.                      SET   PCBFGBL                 | set as held
 003E42                            36220  3 5009.                    END   ,                       OF This is global memory
 DROP   COMM.ASBPCB,R9             36224  2 5010.                  END   ,                       OF PFTE addr
 DROP   PFTE,R8
 003E42                            36240  1 5011.                END   ,                       OF Don't have global lock
 DROP   @LOCKS-72,R13              36244  1 5012.                PSET  @QUFIX                  | frame table entry
 USING  @QUFIX-72,R13
 003E42 D703 D048 D048 00000 00000 36264  1          +
 003E48 5040 D048            00000 36265  1 5013.                PMOV  @QUFRA,(RJ)             |
 003E4C 58F0 AA5C/0DEF       047F0 36275  1 5014.                ACALL QUFIX                   |
 003E52 5E20 AA58            047EC 36282  1 5015.                AL    RA,=A(PAGPAGEL)         Next page ...
 003E56 4630 A06A            03DFE 36283    5016.              UNTIL (BCT,RB),END            OF Unfix pages
 003E5A 4310 70B6            000B6 36293    5017.              PAGXIT SYNC,#PAGPSWM,#PAGFLGS,WR=RS
 003E5E D200 70B6 C058 000B6 00000 36297             +
 003E64 4210 C058            00000 36298             +
 003E68 9180 C058      00000       36308             +
 003E6C 47E0 A0F0            03E84 36309             +
 003E70 5850 6018            00018 36314  1          +
 USING  ASB,R5
 003E74 5850 5020            00020 36330  1          +
 DROP   ASB,R5
1PAGESERV (PAGE00) (09:42) (22MAR04) Unfix a frame in main store                                                            Page  217
0Current Usings:  (ASBPCB,R5) (PAGCB,R6) (PAGUFIX,R10) (@PAGE-72,R12) (@LOCKS-72,R13)
0Loc    Object Code    Addr1 Addr2  Stmt Lv Lineno    Source Statement           (Hibal 5, Asmedit 3.3)  HLASM R4.0  2004/03/22 09.42
+___    ______ ____    _____ _____  ____ __ ______    ______ _________
0DROP   ASBPCB,R7
 USING  ASBPCB,R5
 DROP   @QUFIX-72,R13
 USING  @LOCKS-72,R13
 003E78 D203 D048 5018 00000 00018 36383  2          +
 003E7E 58F0 6030/0DEF       00030 36389             +
 USING  ASBPCB,R7
 DROP   ASBPCB,R5
 003E84 9140 C058      00000       36421             +
 003E88 47E0 A104            03E98 36422             +
 003E8C D203 D048 7018 00000 00018 36436  1          +
 003E92 58F0 6030/0DEF       00030 36442             +
 003E98 8000 C059      00001       36448             +
 003E9C 1805                       36449    5018.              LR    RVR,RK                  0 = all OK
 003E9E 981F C008            00008 36450    5019.              PEND  ,
 DROP   ASBPCB,R7
 DROP   PAGCB,R6
 DROP   @PAGE-72,R12
 DROP   PAGUFIX,R10
 003EA2 9680 C000/0B0E 00000       36475             +
 DROP   @LOCKS-72,R13
1PAGESERV (PAGE00) (09:42) (22MAR04) Short-term fix frames in main store                                                    Page  218
0Loc    Object Code    Addr1 Addr2  Stmt Lv Lineno    Source Statement           (Hibal 5, Asmedit 3.3)  HLASM R4.0  2004/03/22 09.42
+___    ______ ____    _____ _____  ____ __ ______    ______ _________
0                                  36486    5022.
                                   36487    5023.
                                   36488    5024.       Short term fix a range of virtual addresses in main store
                                   36489    5025.
                                   36490    5026.       Input - @PAGE
                                   36491    5027.
                                   36492    5028.      Output - NONE
                                   36493    5029.
                                   36494    5030.

0003EA8                            36495    5031.     PAGSFIX  PROC  @PAGE,#PAGE,SCOPE=GLOBAL         Short term fix
 003EA8 D7C1C7E2C6C9E740           36501             +
 003EB0 0010/0008                  36502             +
 003EB4 900F D004/18AF       00004 36504             +
 USING  PAGSFIX,R10
 003EBA 50D0 C000/18CD       00000 36519             +
 003EC0 9680 C000      00000       36521             +
 USING  @PAGE-72,R12
 AUSING (#PAGE,@PAGE+16)
 003EC4 41D0 C060            00060 36540             +
 003EC8 5860 0200            00200 36541    5032.              PAGAD RPAG
 USING  PZERO,R0
 DROP   PZERO,R0
 USING  MAT,R6
 003ECC 5860 600C            0000C 36575             +
 DROP   MAT,R6
 USING  PAGCB,R6
 USING  PZERO,R0                   36597    5033.              USING PZERO,R0
 003ED0 5870 0208            00208 36606    5034.              L     RPCB,PZCURASB           Get PCB address
 DROP   PZERO,R0                   36607    5035.              DROP  R0
 003ED4 5870 7020            00020 36615    5036.              WITH  (ASB,RPCB),'L RPCB,ASBPAGB'
 USING  ASB,R7
 DROP   ASB,R7
 USING  ASBPCB,R7                  36639    5037.              WITH  (ASBPCB,RPCB)
 003ED8 5820 C048            00000 36652    5038.              L     RA,@PAGLOC              Starting page
 003EDC 1832                       36653    5039.              LR    RB,RA                   Ending page
 003EDE 5E30 C04C            00004 36654    5040.              AL    RB,@PAGLEN              |
 003EE2 0630                       36655    5041.              DECR  RB                      |
 003EE4 5810 A92C            047E0 36657    5042.              L     RS,=A(PAGPAGM)          |
 003EE8 1421                       36658    5043.              NR    RA,RS                   |
 003EEA 1431                       36659    5044.              NR    RB,RS                   |
 003EEC 1F32                       36660    5045.              SLR   RB,RA                   Number of pages
 003EEE 8830 000C            0000C 36661    5046.              SRL   RB,L'PAGPAGM            |
 003EF2 5E30 A930            047E4 36662    5047.              INCR  RB                      |
                                   36665    5048.     *        IF    @PAG2ND,BEGIN           Secondary space fix
                                   36666    5049.     *        ABORT PAGSFIX2                Can't do now
                                   36667    5050.     *        O     RA,=X'80000000'
                                   36668    5051.     *        END   ,                       OF Secondary space fix
 003EF6 AC04 C059      00001       36669    5052.              PAGNTRY SYNC,#PAGPSWM,#PAGFLGS
 USING  @LOCKS-72,R13
 003EFA D203 D048 7018 00000 00018 36689             +
 003F00 58F0 602C/0DEF       0002C 36695             +
 003F06 D200 C058 70B6 00000 000B6 36697             +
 003F0C 9260 70B6      000B6       36707             +
 003F10 9180 7022      00022       36717             +
1PAGESERV (PAGE00) (09:42) (22MAR04) Short-term fix frames in main store                                                    Page  219
0Current Usings:  (PAGCB,R6) (ASBPCB,R7) (PAGSFIX,R10) (@PAGE-72,R12) (@LOCKS-72,R13)
0Loc    Object Code    Addr1 Addr2  Stmt Lv Lineno    Source Statement           (Hibal 5, Asmedit 3.3)  HLASM R4.0  2004/03/22 09.42
+___    ______ ____    _____ _____  ____ __ ______    ______ _________
0003F14 47E0 A068            03F1C 36718             +
 003F18 92A0 70B6      000B6       36733             +
 003F1C                            36738    5053.              LOOP  BEGIN                   Fix pages
 DROP   @LOCKS-72,R13              36744  1 5054.                PSET  @RESOLVE                Bring in page
 USING  @RESOLVE-72,R13
 003F1C D709 D048 D048 00000 00000 36764  1          +
 003F22 5020 D048            00000 36765  1 5055.                PMOV  @PRVA,(RA)              |
 003F26 5070 D04C            00004 36775  1 5056.                PMOV  @PRPCB,LA:ASBPCB        |
 003F2A                            36786  1 5057.                PMOV  @PRPSWM,#PAGPSWM        |
 003F2A D200 D050 C059 00008 00001 36790  1          +
 003F30 58F0 6034/0DEF       00034 36791  1 5058.                ACALL PAGRESLV                |
 003F36 9500 D051      00009       36798  1 5059.                IF    ~@PRROK,PFSABORT        |
 003F3A 4770 A0FA            03FAE 36810  1          +
 003F3E 1840                       36816  1 5060.                LR    RJ,RVR                  Fix this frame (RVR = real ad)
 003F40 18F4/88F0 000C       0000C 36817  1 5061.                QSFIX (RJ)                    |
 003F46 89F0 0005            00005 36824  1          +
 003F4A 5EF0 6044            00044 36825  1          +
 USING  PFTE,R15
 003F4E 41E0 0001            00001 36843  2          +
 003F52 4AE0 F01A            0001A 36844  2          +
 003F56 40E0 F01A            0001A 36845  1          +
 DROP   PFTE,R15
                                   36854  1 5062.
 003F5A 5E20 A938            047EC 36855  1 5063.                AL    RA,=A(PAGPAGEL)         Next page ...
 003F5E 4630 A068            03F1C 36856    5064.              UNTIL (BCT,RB),END            OF Fix pages
 003F62 4310 70B6            000B6 36866    5065.              PAGXIT SYNC,#PAGPSWM,#PAGFLGS,WR=RS
 003F66 D200 70B6 C058 000B6 00000 36870             +
 003F6C 4210 C058            00000 36871             +
 003F70 9180 C058      00000       36881             +
 003F74 47E0 A0D8            03F8C 36882             +
 003F78 5850 6018            00018 36887  1          +
 USING  ASB,R5
 003F7C 5850 5020            00020 36903  1          +
 DROP   ASB,R5
 DROP   ASBPCB,R7
 USING  ASBPCB,R5
 DROP   @RESOLVE-72,R13
 USING  @LOCKS-72,R13
 003F80 D203 D048 5018 00000 00018 36956  2          +
 003F86 58F0 6030/0DEF       00030 36962             +
 USING  ASBPCB,R7
 DROP   ASBPCB,R5
 003F8C 9140 C058      00000       36994             +
 003F90 47E0 A0EC            03FA0 36995             +
 003F94 D203 D048 7018 00000 00018 37009  1          +
 003F9A 58F0 6030/0DEF       00030 37015             +
 003FA0 8000 C059      00001       37021             +
 003FA4 981F C008            00008 37022    5066.              PEND  ,
 DROP   ASBPCB,R7
 DROP   PAGCB,R6
 DROP   @PAGE-72,R12
 DROP   PAGSFIX,R10
 003FA8 9680 C000/0B0E 00000       37047             +
 DROP   @LOCKS-72,R13
1PAGESERV (PAGE00) (09:42) (22MAR04) Short-term fix frames in main store                                                    Page  220
0Current Usings:  (PZERO,R0)
0Loc    Object Code    Addr1 Addr2  Stmt Lv Lineno    Source Statement           (Hibal 5, Asmedit 3.3)  HLASM R4.0  2004/03/22 09.42
+___    ______ ____    _____ _____  ____ __ ______    ______ _________
0003FAE AC04 021B      0021B       37057    5068.     PFSABORT ABORT PAGFIX                  Pages not defined
 USING  PZERO,R0
 003FB2 9680 021A      0021A       37076             +
 003FB6 50F0 021C            0021C 37077             +
 003FBA 58F0 0210            00210 37078             +
 003FBE 89F0 0010            00010 37079             +
 003FC2 88F0 0010            00010 37080             +
 003FC6 41F0 F000            00000 37081             +
 003FCA AEFF 0006            00006 37082             +
 003FCE D7C1C7C6C9E74040           37083             +
 DROP   PZERO,R0
1PAGESERV (PAGE00) (09:42) (22MAR04) Unfix a short term fixed frame                                                         Page  221
0Loc    Object Code    Addr1 Addr2  Stmt Lv Lineno    Source Statement           (Hibal 5, Asmedit 3.3)  HLASM R4.0  2004/03/22 09.42
+___    ______ ____    _____ _____  ____ __ ______    ______ _________
0                                  37093    5070.
                                   37094    5071.
                                   37095    5072.       Unfix a range of virtual addresses - short term fixed
                                   37096    5073.
                                   37097    5074.       Input - @PAGE
                                   37098    5075.
                                   37099    5076.      Output - RVR =  0 if all went OK
                                   37100    5077.               RVR <> 0 if one of the pages was out.
                                   37101    5078.                 RVR = the virtual address of the frame that was out
                                   37102    5079.
                                   37103    5080.

0003FDE                            37105    5082.     PAGUSFIX PROC  @PAGE,#PAGE,SCOPE=GLOBAL         Unfix frames
 003FDE D7C1C7E4E2C6C9E7           37111             +
 003FE6 0010/0008                  37112             +
 003FEA 900F D004/18AF       00004 37114             +
 USING  PAGUSFIX,R10
 003FF0 50D0 C000/18CD       00000 37129             +
 003FF6 9680 C000      00000       37131             +
 USING  @PAGE-72,R12
 AUSING (#PAGE,@PAGE+16)
 003FFA 41D0 C060            00060 37150             +
 003FFE 5860 0200            00200 37151    5083.              PAGAD RPAG
 USING  PZERO,R0
 DROP   PZERO,R0
 USING  MAT,R6
 004002 5860 600C            0000C 37185             +
 DROP   MAT,R6
 USING  PAGCB,R6
 USING  PZERO,R0                   37207    5084.              USING PZERO,R0
 004006 5870 0208            00208 37216    5085.              L     RPCB,PZCURASB           Get PCB address
 DROP   PZERO,R0                   37217    5086.              DROP  R0
 00400A 5870 7020            00020 37225    5087.              WITH  (ASB,RPCB),'L RPCB,ASBPAGB'
 USING  ASB,R7
 DROP   ASB,R7
 USING  ASBPCB,R7                  37249    5088.              WITH  (ASBPCB,RPCB)
 00400E 5820 C048            00000 37262    5089.              L     RA,@PAGLOC              Starting page
 004012 1832                       37263    5090.              LR    RB,RA                   Ending page
 004014 5E30 C04C            00004 37264    5091.              AL    RB,@PAGLEN              |
 004018 0630                       37265    5092.              DECR  RB                      |
 00401A 5810 A7F6            047E0 37267    5093.              L     RS,=A(PAGPAGM)          |
 00401E 1421                       37268    5094.              NR    RA,RS                   |
 004020 1431                       37269    5095.              NR    RB,RS                   |
 004022 1F32                       37270    5096.              SLR   RB,RA                   Number of pages
 004024 8830 000C            0000C 37271    5097.              SRL   RB,L'PAGPAGM            |
 004028 5E30 A7FA            047E4 37272    5098.              INCR  RB                      |
                                   37275    5099.     *        IF    @PAG2ND,BEGIN           Secondary space fix
                                   37276    5100.     *        ABORT PAGFIX2                 Can't do now
                                   37277    5101.     *        O     RA,=X'80000000'
                                   37278    5102.     *        END   ,                       OF Secondary space fix
0                                  37280    5104.
                                   37281    5105.
                                   37282    5106.       Get lock
                                   37283    5107.
1PAGESERV (PAGE00) (09:42) (22MAR04) Unfix a short term fixed frame                                                         Page  222
0Current Usings:  (PAGCB,R6) (ASBPCB,R7) (PAGUSFIX,R10) (@PAGE-72,R12)
0Loc    Object Code    Addr1 Addr2  Stmt Lv Lineno    Source Statement           (Hibal 5, Asmedit 3.3)  HLASM R4.0  2004/03/22 09.42
+___    ______ ____    _____ _____  ____ __ ______    ______ _________
0
000402C AC04 C059      00001       37284    5108.              PAGNTRY SYNC,#PAGPSWM,#PAGFLGS
 USING  @LOCKS-72,R13
 004030 D203 D048 7018 00000 00018 37304             +
 004036 58F0 602C/0DEF       0002C 37310             +
 00403C D200 C058 70B6 00000 000B6 37312             +
 004042 9260 70B6      000B6       37322             +
 004046 9180 7022      00022       37332             +
 00404A 47E0 A068            04052 37333             +
 00404E 92A0 70B6      000B6       37348             +
 004052 1B55                       37353    5109.              CLEAR RK                      Set as OK
 004054                            37357    5110.     PAGUSFOK LOOP  BEGIN                   Unfix pages
 004054 B140 2000            00000 37364  1 5111.                LRA   RJ,@RA
 004058 4780 A078/1852       04062 37365  1 5112.                IF    ~VAOK,'LR RK,RA; EXIT PAGUSFOK'
 00405E 47F0 A0A4            0408E 37380  1          +
 004062 18F4/88F0 000C       0000C 37385  1 5113.                QUSFIX (RJ)
 004068 89F0 0005            00005 37392  1          +
 00406C 5EF0 6044            00044 37393  1          +
 USING  PFTE,R15
 004070 48E0 F01A/06E0       0001A 37408  2          +
 004076 59E0 A80A            047F4 37413  2          +
 00407A 47B0 A098            04082 37420  2          +
 00407E 58E0 A80A            047F4 37425  2          +
 004082 40E0 F01A            0001A 37430  1          +
 DROP   PFTE,R15
 004086 5E20 A802            047EC 37439  1 5114.                AL    RA,=A(PAGPAGEL)         Next page ...
 00408A 4630 A06A            04054 37440    5115.              UNTIL (BCT,RB),END            OF Unfix pages
 00408E 4310 70B6            000B6 37450    5116.              PAGXIT SYNC,#PAGPSWM,#PAGFLGS,WR=RS
 004092 D200 70B6 C058 000B6 00000 37454             +
 004098 4210 C058            00000 37455             +
 00409C 9180 C058      00000       37465             +
 0040A0 47E0 A0CE            040B8 37466             +
 0040A4 5850 6018            00018 37471  1          +
 USING  ASB,R5
 0040A8 5850 5020            00020 37487  1          +
 DROP   ASB,R5
 DROP   ASBPCB,R7
 USING  ASBPCB,R5
 0040AC D203 D048 5018 00000 00018 37530  2          +
 0040B2 58F0 6030/0DEF       00030 37536             +
 USING  ASBPCB,R7
 DROP   ASBPCB,R5
 0040B8 9140 C058      00000       37568             +
 0040BC 47E0 A0E2            040CC 37569             +
 0040C0 D203 D048 7018 00000 00018 37583  1          +
 0040C6 58F0 6030/0DEF       00030 37589             +
 0040CC 8000 C059      00001       37595             +
 0040D0 1805                       37596    5117.              LR    RVR,RK                  0 = all OK
 0040D2 981F C008            00008 37597    5118.              PEND  ,
 DROP   ASBPCB,R7
 DROP   PAGCB,R6
 DROP   @PAGE-72,R12
 DROP   PAGUSFIX,R10
1PAGESERV (PAGE00) (09:42) (22MAR04) Unfix a short term fixed frame                                                         Page  223
0Loc    Object Code    Addr1 Addr2  Stmt Lv Lineno    Source Statement           (Hibal 5, Asmedit 3.3)  HLASM R4.0  2004/03/22 09.42
+___    ______ ____    _____ _____  ____ __ ______    ______ _________
00040D6 9680 C000/0B0E 00000       37622             +
 DROP   @LOCKS-72,R13
1PAGESERV (PAGE00) (09:42) (22MAR04) Quickly fix a page in main store                                                       Page  224
0Loc    Object Code    Addr1 Addr2  Stmt Lv Lineno    Source Statement           (Hibal 5, Asmedit 3.3)  HLASM R4.0  2004/03/22 09.42
+___    ______ ____    _____ _____  ____ __ ______    ______ _________
0                                  37632    5120.
                                   37633    5121.
                                   37634    5122.         Quickly fix a page in main store - page MUST be currently in
                                   37635    5123.       main store.
                                   37636    5124.
                                   37637    5125.        Input - @QFIX
                                   37638    5126.
                                   37639    5127.       Output - NONE
                                   37640    5128.
                                   37641    5129.

0000000                00000 00004 37642    5130.     @QFIX    RECORD BEGIN
 000000                            37650  1 5131.     @QFIXRA    DS    A                       Real addr of frame to fix
 000004                00004 00004 37651    5132.              END   ,
00040DC                            37661    5134.     QFIX     PROC  @QFIX                   Quickly fix a frame in core
 0040DC D8C6C9E740404040           37668             +
 0040E4 0008/0000                  37669             +
 0040E8 900F D004/18AF       00004 37671             +
 USING  QFIX,R10
 0040EE 50D0 C000/18CD       00000 37686             +
 0040F4 9680 C000      00000       37688             +
 USING  @QFIX-72,R12
 0040F8 41D0 C050            00050 37702             +
 0040FC 5860 0200            00200 37703    5135.              PAGAD RPAG
 USING  PZERO,R0
 DROP   PZERO,R0
 USING  MAT,R6
 004100 5860 600C            0000C 37737             +
 DROP   MAT,R6
 USING  PAGCB,R6
 004104 5820 C048            00000 37759    5136.              L     RA,@QFIXRA              Get page frame table addr
 004108 8820 000C            0000C 37760    5137.              SRL   RA,L'PAGPAGM            |
 00410C 8920 0005            00005 37761    5138.              SLL   RA,PFTLOG               |
 004110 5E20 6044            00044 37762    5139.              AL    RA,PAGPFTO              |
 USING  PFTE,R2                    37763    5140.              WITH  (PFTE,RA),BEGIN         Page frame table addr
 004114 4110 0001            00001 37777  1 5141.                INCR  RS,PFTFIX               | one more fix
 004118 4A10 2018            00018 37781  1          +
 00411C 4010 2018            00018 37782  1          +
 004120 5910 A6FC            047E4 37783  1 5142.                IF    (RS,EQ,1),BEGIN         First fix - change lists
 004124 4770 A0A2            0418A 37795  1          +
 004128 5870 200C            0000C 37800  2 5143.                  L     RPCB,PFTASB             |
 00412C 5870 7020            00020 37801  2 5144.                  WITH  (ASB,RPCB),'L RPCB,ASBPAGB'
 USING  ASB,R7
 DROP   ASB,R7
 USING  ASBPCB,R7                  37825  2 5145.                  WITH  (ASBPCB,RPCB)           |
 004130 1F33/4330 201C       0001C 37838  2 5146.                  LC    RB,PFTQ                 Remove from current list
 004136 4133 7000            00000 37845  2 5147.                  LA    RB,ASBPCB(RB)           |
 00413A 1B00/58F0 3008       00008 37846  2 5148.                  LREM  (RB),LA:PFTE,WR=RS      |
 004140 4110 0001/1BF1       00001 37884  3          +
 004146 4740 A07A            04162 37895  3          +
 00414A 50F0 3008/18F2       00008 37901  3          +
 004150 180F/58E0 F004       00004 37908  3          +
 004156 58F0 F000            00000 37916  3          +
 00415A 50E0 F004            00004 37917  3          +
1PAGESERV (PAGE00) (09:42) (22MAR04) Quickly fix a page in main store                                                       Page  225
0Current Usings:  (PFTE,R2) (PAGCB,R6) (ASBPCB,R7) (QFIX,R10) (@QFIX-72,R12)
0Loc    Object Code    Addr1 Addr2  Stmt Lv Lineno    Source Statement           (Hibal 5, Asmedit 3.3)  HLASM R4.0  2004/03/22 09.42
+___    ______ ____    _____ _____  ____ __ ______    ______ _________
000415E 50F0 E000            00000 37918  2          +
 004162 4110 7054            00054 37923  2 5149.                  LADD  PCBLFLH,LA:PFTE,WR=RS   |
 004166 41E0 0001            00001 37954  2          +
 00416A 5EE0 1008            00008 37955  2          +
 00416E 50E0 1008            00008 37956  2          +
 004172 58E0 1004            00004 37963  2          +
 004176 5020 1004            00004 37969  2          +
 00417A 5010 2000            00000 37970  2          +
 00417E 50E0 2004            00004 37976  2          +
 004182 5020 E000            00000 37977  2          +
 004186 9254 201C      0001C       37979  2 5150.                  MVI   PFTQ,PCBLFLH-ASBPCB     | set new Q id
 DROP   ASBPCB,R7                  37980  1 5151.                END   ,                       OF First fix - change lists
 DROP   PFTE,R2                    37989    5152.              END   ,                       OF Page frame table addr
 00418A 981F C008            00008 37997    5153.              PEND  ,
 DROP   PAGCB,R6
 DROP   @QFIX-72,R12
 DROP   QFIX,R10
 00418E 9680 C000/0B0E 00000       38017             +
1PAGESERV (PAGE00) (09:42) (22MAR04) Quickly unfix a frame in main store                                                    Page  226
0Loc    Object Code    Addr1 Addr2  Stmt Lv Lineno    Source Statement           (Hibal 5, Asmedit 3.3)  HLASM R4.0  2004/03/22 09.42
+___    ______ ____    _____ _____  ____ __ ______    ______ _________
0                                  38024    5155.
                                   38025    5156.
                                   38026    5157.       Quickly unfix a fixed page
                                   38027    5158.
                                   38028    5159.        Input - @QUFIX
                                   38029    5160.
                                   38030    5161.       Output - NONE
                                   38031    5162.
                                   38032    5163.

0000000                00000 00004 38034    5165.     @QUFIX   RECORD BEGIN                  Unfix frame in core
 000000                            38042  1 5166.     @QUFRA     DS    A                       Frame real addr
 000004                00004 00004 38043    5167.              END   ,
0004194                            38053    5169.     QUFIX    PROC  @QUFIX
 004194 D8E4C6C9E7404040           38060             +
 00419C 0008/0000                  38061             +
 0041A0 900F D004/18AF       00004 38063             +
 USING  QUFIX,R10
 0041A6 50D0 C000/18CD       00000 38078             +
 0041AC 9680 C000      00000       38080             +
 USING  @QUFIX-72,R12
 0041B0 41D0 C050            00050 38094             +
 0041B4 5860 0200            00200 38095    5170.              PAGAD RPAG
 USING  PZERO,R0
 DROP   PZERO,R0
 USING  MAT,R6
 0041B8 5860 600C            0000C 38129             +
 DROP   MAT,R6
 USING  PAGCB,R6
 0041BC 5850 C048            00000 38151    5171.              L     RK,@QUFRA               RA => Frame table entry
 0041C0 8850 000C            0000C 38152    5172.              SRL   RK,L'PAGPAGM            |
 0041C4 8950 0005            00005 38153    5173.              SLL   RK,PFTLOG               |
 0041C8 5E50 6044            00044 38154    5174.              AL    RK,PAGPFTO              |
 USING  PFTE,R5                    38155    5175.              WITH  (PFTE,RK)               |
 0041CC 5870 500C            0000C 38168    5176.              L     RPCB,PFTASB             PCB that owns frame
 0041D0 5870 7020            00020 38169    5177.              WITH  (ASB,RPCB),'L RPCB,ASBPAGB'
 USING  ASB,R7
 DROP   ASB,R7
 USING  ASBPCB,R7                  38193    5178.              WITH  (ASBPCB,RPCB)           |
 0041D4 4820 5018            00018 38206    5179.              LH    RA,PFTFIX               | one less fix
 0041D8 0620                       38207    5180.              DECR  RA                      |
 0041DA 5920 A654            047F4 38209    5181.              FLOOR RA,0                    |
 0041DE 47B0 A046            041E6 38218             +
 0041E2 5820 A654            047F4 38223             +
 0041E6 4020 5018            00018 38228    5182.              STH   RA,PFTFIX               |
 0041EA 1222/4770 A0B8       04258 38229    5183.              IF    (RA,ZERO),BEGIN         | totally unfixed
 0041F0 1F33/4330 501C       0001C 38243  1 5184.                LC    RB,PFTQ                 |
 0041F6 41E3 7000/1B00       00000 38250  1 5185.                LREM  ASBPCB(RB),LA:PFTE,WR=RS
 0041FC 58F0 E008            00008 38285  2          +
 004200 4110 0001/1BF1       00001 38293  2          +
 004206 4740 A082            04222 38304  2          +
 00420A 50F0 E008/18F5       00008 38310  2          +
 004210 180F/58E0 F004       00004 38317  2          +
 004216 58F0 F000            00000 38325  2          +
1PAGESERV (PAGE00) (09:42) (22MAR04) Quickly unfix a frame in main store                                                    Page  227
0Current Usings:  (PFTE,R5) (PAGCB,R6) (ASBPCB,R7) (QUFIX,R10) (@QUFIX-72,R12)
0Loc    Object Code    Addr1 Addr2  Stmt Lv Lineno    Source Statement           (Hibal 5, Asmedit 3.3)  HLASM R4.0  2004/03/22 09.42
+___    ______ ____    _____ _____  ____ __ ______    ______ _________
000421A 50E0 F004            00004 38326  2          +
 00421E 50F0 E000            00000 38327  1          +
 004222 4140 7030            00030 38332  1 5186.                LA    RJ,PCBUFLH              Add to normal frames list
 004226 9180 501D      0001D       38333  1 5187.                IF    PFTFPGT,'LA RJ,PCBPFLH' | or page table frames
 00422A 47E0 A092            04232 38343  1          +
 00422E 4140 703C            0003C 38349  1          +
 004232 41E0 0001            00001 38354  1 5188.                LADD  (RJ),LA:PFTE,WR=RS      |
 004236 5EE0 4008            00008 38381  1          +
 00423A 50E0 4008            00008 38382  1          +
 00423E 58E0 4004            00004 38389  1          +
 004242 5050 4004            00004 38395  1          +
 004246 5040 5000            00000 38396  1          +
 00424A 50E0 5004            00004 38402  1          +
 00424E 5050 E000            00000 38403  1          +
 004252 1B47                       38405  1 5189.                SR    RJ,RPCB                 | put in Q id
 004254 4240 501C            0001C 38406  1 5190.                STC   RJ,PFTQ                 |
 004258                            38407    5191.              END   ,                       | OF totally unfixed
 004258 981F C008            00008 38411    5192.              PEND  ,
 DROP   ASBPCB,R7
 DROP   PFTE,R5
 DROP   PAGCB,R6
 DROP   @QUFIX-72,R12
 DROP   QUFIX,R10
 00425C 9680 C000/0B0E 00000       38441             +
1PAGESERV (PAGE00) (09:42) (22MAR04) Set page table protection on range                                                     Page  228
0Loc    Object Code    Addr1 Addr2  Stmt Lv Lineno    Source Statement           (Hibal 5, Asmedit 3.3)  HLASM R4.0  2004/03/22 09.42
+___    ______ ____    _____ _____  ____ __ ______    ______ _________
0                                  38448    5194.
                                   38449    5195.
                                   38450    5196.       Set page table protection on range of virtual addresses
                                   38451    5197.
                                   38452    5198.        Input - @PAGE
                                   38453    5199.
                                   38454    5200.       Output - RVR =  0 all pages were defined, and now are protected
                                   38455    5201.                RVR <> 0 a page not defined in range.
                                   38456    5202.                  RVR = address of undefined page, and the remainder
                                   38457    5203.                        of the pages in the range are not protected
                                   38458    5204.
                                   38459    5205.

0004262                            38461    5207.     PAGPROT  PROC  @PAGE,SCOPE=GLOBAL
 004262 D7C1C7D7D9D6E340           38467             +
 00426A 0010/0000                  38468             +
 00426E 900F D004/18AF       00004 38470             +
 USING  PAGPROT,R10
 004274 50D0 C000/18CD       00000 38485             +
 00427A 9680 C000      00000       38487             +
 USING  @PAGE-72,R12
 00427E 41D0 C058            00058 38501             +
 USING  $PAGE-72,R13               38502    5208.              PSET  $PAGE                   Call general rtn w/ code
 004282 D70C D048 D048 00000 00000 38519             +
 004288 D207 D048 C048 00000 00000 38520    5209.              MVC   $PAGLOC(8),@PAGLOC
 00428E D203 D050 A58A 00008 047F8 38521    5210.              MVC   $PAGCODE,=A($VPPROT)
 004294 41F0 A29E/0DEF       0450C 38522    5211.              LCALL VPROTRAN                protection on range
 00429A 981F C008            00008 38531    5212.              PEND  ,
 DROP   @PAGE-72,R12
 DROP   PAGPROT,R10
 00429E 9680 C000/0B0E 00000       38546             +
 DROP   $PAGE-72,R13
1PAGESERV (PAGE00) (09:42) (22MAR04) Set page table protection on range                                                     Page  229
0Loc    Object Code    Addr1 Addr2  Stmt Lv Lineno    Source Statement           (Hibal 5, Asmedit 3.3)  HLASM R4.0  2004/03/22 09.42
+___    ______ ____    _____ _____  ____ __ ______    ______ _________
00042A4                            38556    5214.     PAGPROT2 PROC  @PAGE
 0042A4 D7C1C7D7D9D6E3F2           38563             +
 0042AC 0010/0000                  38564             +
 0042B0 900F D004/18AF       00004 38566             +
 USING  PAGPROT2,R10
 0042B6 50D0 C000/18CD       00000 38581             +
 0042BC 9680 C000      00000       38583             +
 USING  @PAGE-72,R12
 0042C0 41D0 C058            00058 38597             +
 0042C4 5860 0200            00200 38598    5215.              PAGAD RPAG
 USING  PZERO,R0
 DROP   PZERO,R0
 USING  MAT,R6
 0042C8 5860 600C            0000C 38632             +
 DROP   MAT,R6
 USING  PAGCB,R6
 0042CC 5870 6018            00018 38654    5216.              L     RPCB,PAGCASB
 0042D0 5870 7020            00020 38655    5217.              WITH  (ASB,RPCB),'L RPCB,ASBPAGB'
 USING  ASB,R7
 DROP   ASB,R7
 USING  ASBPCB,R7                  38679    5218.              WITH  (ASBPCB,RPCB)
 0042D4 5840 701C            0001C 38692    5219.              L     RJ,PCBPSTO
 0042D8 B140 4000            00000 38693    5220.              LRA   RJ,@RJ
 0042DC 4780 A060            04310 38694    5221.              IF    NZ,'ABORT BADSEGTEST'
 USING  PZERO,R0
 0042E0 AC04 021B      0021B       38718  1          +
 0042E4 9680 021A      0021A       38724  1          +
 0042E8 50F0 021C            0021C 38725  1          +
 0042EC 58F0 0210            00210 38726  1          +
 0042F0 89F0 0010            00010 38727  1          +
 0042F4 88F0 0010            00010 38728  1          +
 0042F8 41F0 F000            00000 38729  1          +
 0042FC AEFF 0006            00006 38730  1          +
 004300 C2C1C4E2C5C7E3C5           38731             +
 DROP   PZERO,R0
 USING  @PAGRV-72,R13              38744    5222.              RTOV  (RJ)
 004310 D707 D048 D048 00000 00000 38763             +
 004316 5040 D048            00000 38773             +
 00431A 58F0 A54C/0DEF       047FC 38779             +
 004320 1840                       38781    5223.              LR    RJ,RVR                  Seg table VA
 004322 5820 C048            00000 38782    5224.              L     RA,@PAGLOC
 004326 1832                       38783    5225.              LR    RB,RA
 004328 5420 A550            04800 38784    5226.              N     RA,=A(PAGSGNM)
 00432C 8820 0012            00012 38785    5227.              SRL   RA,L'PAGSGNM-SGTLOG
 004330 1E24                       38786    5228.              ALR   RA,RJ
 USING  SGTE,R2                    38787    5229.              WITH  (SGTE,RA),BEGIN
 004332 5820 2000            00000 38801  1 5230.                L     RA,SGTAD
 DROP   SGTE,R2                    38802    5231.              END   ,
 004336 5420 A554            04804 38810    5232.              N     RA,=A(SGTADMSK)
 00433A                            38811    5233.              RTOV  (RA)
 00433A D707 D048 D048 00000 00000 38823             +
 004340 5020 D048            00000 38833             +
 004344 58F0 A54C/0DEF       047FC 38839             +
 00434A 1820                       38841    5234.              LR    RA,RVR                  Page table VA
 00434C 5430 A558            04808 38842    5235.              N     RB,=A(PAGPGNM)
 004350 8830 000A            0000A 38843    5236.              SRL   RB,L'PAGPGNM-PGTLOG
1PAGESERV (PAGE00) (09:42) (22MAR04) Set page table protection on range                                                     Page  230
0Current Usings:  (PAGCB,R6) (ASBPCB,R7) (PAGPROT2,R10) (@PAGE-72,R12) (@PAGRV-72,R13)
0Loc    Object Code    Addr1 Addr2  Stmt Lv Lineno    Source Statement           (Hibal 5, Asmedit 3.3)  HLASM R4.0  2004/03/22 09.42
+___    ______ ____    _____ _____  ____ __ ______    ______ _________
0004354 1E32                       38844    5237.              ALR   RB,RA
 USING  PGTE,R3                    38845    5238.              WITH  (PGTE,RB),BEGIN
 004356 9602 3002      00002       38859  1 5239.                SET   PGTFPROT
 DROP   PGTE,R3                    38865    5240.              END   ,
 00435A 58F0 A55C/0DEF       0480C 38873    5241.              VCALL DISPPTLB
 004360 981F C008            00008 38877    5242.              PEND  ,
 DROP   ASBPCB,R7
 DROP   PAGCB,R6
 DROP   @PAGE-72,R12
 DROP   PAGPROT2,R10
 004364 9680 C000/0B0E 00000       38902             +
 DROP   @PAGRV-72,R13
1PAGESERV (PAGE00) (09:42) (22MAR04) Set page table protection on range                                                     Page  231
0Loc    Object Code    Addr1 Addr2  Stmt Lv Lineno    Source Statement           (Hibal 5, Asmedit 3.3)  HLASM R4.0  2004/03/22 09.42
+___    ______ ____    _____ _____  ____ __ ______    ______ _________
000436A                            38912    5244.     PAGUPROT2 PROC  @PAGE
 00436A D7C1C7E4D7D9D6E3           38919             +
 004372 0010/0000                  38920             +
 004376 900F D004/18AF       00004 38922             +
 USING  PAGUPROT2,R10
 00437C 50D0 C000/18CD       00000 38937             +
 004382 9680 C000      00000       38939             +
 USING  @PAGE-72,R12
 004386 41D0 C058            00058 38953             +
 00438A 5860 0200            00200 38954    5245.              PAGAD RPAG
 USING  PZERO,R0
 DROP   PZERO,R0
 USING  MAT,R6
 00438E 5860 600C            0000C 38988             +
 DROP   MAT,R6
 USING  PAGCB,R6
 004392 5870 6018            00018 39010    5246.              L     RPCB,PAGCASB
 004396 5870 7020            00020 39011    5247.              WITH  (ASB,RPCB),'L RPCB,ASBPAGB'
 USING  ASB,R7
 DROP   ASB,R7
 USING  ASBPCB,R7                  39035    5248.              WITH  (ASBPCB,RPCB)
 00439A 5840 701C            0001C 39048    5249.              L     RJ,PCBPSTO
 00439E B140 4000            00000 39049    5250.              LRA   RJ,@RJ
 0043A2 4780 A060            043D6 39050    5251.              IF    NZ,'ABORT BADSEGTEST'
 USING  PZERO,R0
 0043A6 AC04 021B      0021B       39074  1          +
 0043AA 9680 021A      0021A       39080  1          +
 0043AE 50F0 021C            0021C 39081  1          +
 0043B2 58F0 0210            00210 39082  1          +
 0043B6 89F0 0010            00010 39083  1          +
 0043BA 88F0 0010            00010 39084  1          +
 0043BE 41F0 F000            00000 39085  1          +
 0043C2 AEFF 0006            00006 39086  1          +
 0043C6 C2C1C4E2C5C7E3C5           39087             +
 DROP   PZERO,R0
 USING  @PAGRV-72,R13              39100    5252.              RTOV  (RJ)
 0043D6 D707 D048 D048 00000 00000 39119             +
 0043DC 5040 D048            00000 39129             +
 0043E0 58F0 A486/0DEF       047FC 39135             +
 0043E6 1840                       39137    5253.              LR    RJ,RVR                  Seg table VA
 0043E8 5820 C048            00000 39138    5254.              L     RA,@PAGLOC
 0043EC 1832                       39139    5255.              LR    RB,RA
 0043EE 5420 A48A            04800 39140    5256.              N     RA,=A(PAGSGNM)
 0043F2 8820 0012            00012 39141    5257.              SRL   RA,L'PAGSGNM-SGTLOG
 0043F6 1E24                       39142    5258.              ALR   RA,RJ
 USING  SGTE,R2                    39143    5259.              WITH  (SGTE,RA),BEGIN
 0043F8 5820 2000            00000 39157  1 5260.                L     RA,SGTAD
 DROP   SGTE,R2                    39158    5261.              END   ,
 0043FC 5420 A48E            04804 39166    5262.              N     RA,=A(SGTADMSK)
 004400                            39167    5263.              RTOV  (RA)
 004400 D707 D048 D048 00000 00000 39179             +
 004406 5020 D048            00000 39189             +
 00440A 58F0 A486/0DEF       047FC 39195             +
 004410 1820                       39197    5264.              LR    RA,RVR                  Page table VA
 004412 5430 A492            04808 39198    5265.              N     RB,=A(PAGPGNM)
 004416 8830 000A            0000A 39199    5266.              SRL   RB,L'PAGPGNM-PGTLOG
1PAGESERV (PAGE00) (09:42) (22MAR04) Set page table protection on range                                                     Page  232
0Current Usings:  (PAGCB,R6) (ASBPCB,R7) (PAGUPROT2,R10) (@PAGE-72,R12) (@PAGRV-72,R13)
0Loc    Object Code    Addr1 Addr2  Stmt Lv Lineno    Source Statement           (Hibal 5, Asmedit 3.3)  HLASM R4.0  2004/03/22 09.42
+___    ______ ____    _____ _____  ____ __ ______    ______ _________
000441A 1E32                       39200    5267.              ALR   RB,RA
 USING  PGTE,R3                    39201    5268.              WITH  (PGTE,RB),BEGIN
 00441C 94FD 3002      00002       39215  1 5269.                CLEAR PGTFPROT
 DROP   PGTE,R3                    39222    5270.              END   ,
 004420 58F0 A496/0DEF       0480C 39230    5271.              VCALL DISPPTLB
 004426 981F C008            00008 39234    5272.              PEND  ,
 DROP   ASBPCB,R7
 DROP   PAGCB,R6
 DROP   @PAGE-72,R12
 DROP   PAGUPROT2,R10
 00442A 9680 C000/0B0E 00000       39259             +
 DROP   @PAGRV-72,R13
1PAGESERV (PAGE00) (09:42) (22MAR04) Clear page table protection on range                                                   Page  233
0Loc    Object Code    Addr1 Addr2  Stmt Lv Lineno    Source Statement           (Hibal 5, Asmedit 3.3)  HLASM R4.0  2004/03/22 09.42
+___    ______ ____    _____ _____  ____ __ ______    ______ _________
0                                  39269    5274.
                                   39270    5275.
                                   39271    5276.       Clear page table protection on range of virtual addresses
                                   39272    5277.
                                   39273    5278.        Input - @PAGE
                                   39274    5279.
                                   39275    5280.       Output - RVR =  0 all pages were defined, now are unprotected
                                   39276    5281.                RVR <> 0 a page not defined in range.
                                   39277    5282.                  RVR = address of undefined page, and the remainder
                                   39278    5283.                        of the pages in the range are not protected
                                   39279    5284.
                                   39280    5285.

0004430                            39282    5287.     PAGUPROT PROC  @PAGE,SCOPE=GLOBAL
 004430 D7C1C7E4D7D9D6E3           39288             +
 004438 0010/0000                  39289             +
 00443C 900F D004/18AF       00004 39291             +
 USING  PAGUPROT,R10
 004442 50D0 C000/18CD       00000 39306             +
 004448 9680 C000      00000       39308             +
 USING  @PAGE-72,R12
 00444C 41D0 C058            00058 39322             +
 USING  $PAGE-72,R13               39323    5288.              PSET  $PAGE                   Call general rtn w/ code
 004450 D70C D048 D048 00000 00000 39340             +
 004456 D207 D048 C048 00000 00000 39341    5289.              MVC   $PAGLOC(8),@PAGLOC
 00445C D203 D050 A3D4 00008 04810 39342    5290.              MVC   $PAGCODE,=A($VPUPROT)
 004462 41F0 A0D0/0DEF       0450C 39343    5291.              LCALL VPROTRAN                clear protection on range
 004468 1820                       39352    5292.              LR    RA,RVR                  Save RC
 00446A 58F0 A3D0/0DEF       0480C 39353    5293.              VCALL DISPPTLB
 004470 1802                       39357    5294.              LR    RVR,RA
 004472 981F C008            00008 39358    5295.              PEND  ,
 DROP   @PAGE-72,R12
 DROP   PAGUPROT,R10
 004476 9680 C000/0B0E 00000       39373             +
 DROP   $PAGE-72,R13
1PAGESERV (PAGE00) (09:42) (22MAR04) Test page table protection on range                                                    Page  234
0Loc    Object Code    Addr1 Addr2  Stmt Lv Lineno    Source Statement           (Hibal 5, Asmedit 3.3)  HLASM R4.0  2004/03/22 09.42
+___    ______ ____    _____ _____  ____ __ ______    ______ _________
0                                  39383    5297.
                                   39384    5298.
                                   39385    5299.       Test page table protection on range
                                   39386    5300.
                                   39387    5301.        Input - @PAGE
                                   39388    5302.
                                   39389    5303.       Output - RVR =  0 at least one page was unprotected/undefined
                                   39390    5304.                    <> 0 all pages in range were protected
                                   39391    5305.
                                   39392    5306.

000447C                            39394    5308.     PAGTPTP  PROC  @PAGE,SCOPE=GLOBAL      Test page table protection
 00447C D7C1C7E3D7E3D740           39400             +
 004484 0010/0000                  39401             +
 004488 900F D004/18AF       00004 39403             +
 USING  PAGTPTP,R10
 00448E 50D0 C000/18CD       00000 39418             +
 004494 9680 C000      00000       39420             +
 USING  @PAGE-72,R12
 004498 41D0 C058            00058 39434             +
 USING  $PAGE-72,R13               39435    5309.              PSET  $PAGE                   Call general rtn w/ code
 00449C D70C D048 D048 00000 00000 39452             +
 0044A2 D207 D048 C048 00000 00000 39453    5310.              MVC   $PAGLOC(8),@PAGLOC
 0044A8 D203 D050 A38C 00008 04814 39454    5311.              MVC   $PAGCODE,=A($VPTACC)
 0044AE 41F0 A084/0DEF       0450C 39455    5312.              LCALL VPROTRAN                test protection on range
 0044B4 981F C008            00008 39464    5313.              PEND  ,
 DROP   @PAGE-72,R12
 DROP   PAGTPTP,R10
 0044B8 9680 C000/0B0E 00000       39479             +
 DROP   $PAGE-72,R13
1PAGESERV (PAGE00) (09:42) (22MAR04) Test protection on range                                                               Page  235
0Loc    Object Code    Addr1 Addr2  Stmt Lv Lineno    Source Statement           (Hibal 5, Asmedit 3.3)  HLASM R4.0  2004/03/22 09.42
+___    ______ ____    _____ _____  ____ __ ______    ______ _________
0                                  39489    5315.
                                   39490    5316.
                                   39491    5317.       Test protection on range
                                   39492    5318.
                                   39493    5319.        Input - @PAGE
                                   39494    5320.
                                   39495    5321.       Output - RVR =  0 can store and fetch range
                                   39496    5322.                    =  1 fetch only
                                   39497    5323.                    =  2 no fetching or storing
                                   39498    5324.                    =  3 addressing exception
                                   39499    5325.
                                   39500    5326.

00044BE                            39502    5328.     PAGTPROT PROC  @PAGE,SCOPE=GLOBAL
 0044BE D7C1C7E3D7D9D6E3           39508             +
 0044C6 0010/0000                  39509             +
 0044CA 900F D004/18AF       00004 39511             +
 USING  PAGTPROT,R10
 0044D0 50D0 C000/18CD       00000 39526             +
 0044D6 9680 C000      00000       39528             +
 USING  @PAGE-72,R12
 0044DA 41D0 C058            00058 39542             +
 USING  $PAGE-72,R13               39543    5329.              PSET  $PAGE                   Call general rtn w/ code
 0044DE D70C D048 D048 00000 00000 39560             +
 0044E4 D208 D048 C048 00000 00000 39561    5330.              MVC   $PAGLOC(9),@PAGLOC
 0044EA D203 D050 A34E 00008 04818 39562    5331.              MVC   $PAGCODE,=A($VPTPROT)
 0044F0 41F0 A042/0DEF       0450C 39563    5332.              LCALL VPROTRAN                test protection on range
 0044F6 981F C008            00008 39572    5333.              PEND  ,
 DROP   @PAGE-72,R12
 DROP   PAGTPROT,R10
 0044FA 9680 C000/0B0E 00000       39587             +
 DROP   $PAGE-72,R13
1PAGESERV (PAGE00) (09:42) (22MAR04) General protection routine                                                             Page  236
0Loc    Object Code    Addr1 Addr2  Stmt Lv Lineno    Source Statement           (Hibal 5, Asmedit 3.3)  HLASM R4.0  2004/03/22 09.42
+___    ______ ____    _____ _____  ____ __ ______    ______ _________
0                                  39597    5335.
                                   39598    5336.
                                   39599    5337.       Do page protection actions
                                   39600    5338.
                                   39601    5339.        Input - $PAGE
                                   39602    5340.
                                   39603    5341.       Output - RVR depends on function type
                                   39604    5342.
                                   39605    5343.

0000000                00000 0000D 39606    5344.     $PAGE    RECORD BEGIN
 000000                            39614  1 5345.     $PAGLOC    DS    A                       Virtual Location
 000004                            39615  1 5346.     $PAGLEN    DS    A                       Virtual Length
 000008                            39616  1 5347.     $PAGCODE   DS    A                       Request code
 00000C                            39617  1 5348.     $PAGKEY    DS    X
                                   39618  1 5349.     $VPPROT    EQU   4                       Protect range
                                   39619  1 5350.     $VPUPROT   EQU   8                       Unprotect a range
                                   39620  1 5351.     $VPTACC    EQU   12                      Test protection on range
                                   39621  1 5352.     $VPTPROT   EQU   16                      Test access
                                   39622  1 5353.
                                   39623  1 5354.            Definitions for $VPTPROT call returns
                                   39624  1 5355.
                                   39625  1 5356.     $VPSTORE   EQU   0                       Fetch & store allowed
                                   39626  1 5357.     $VPFETCH   EQU   1                       Fetch allowed
                                   39627  1 5358.     $VPNOACC   EQU   2                       No access allowed
                                   39628  1 5359.     $VPUNDEF   EQU   3                       Undefined address
 00000D                0000D 0000D 39629    5360.              END   ,
0000000                00000 0001C 39639    5362.     #VPROTRA RECORD BEGIN
 000000                            39647  1 5363.     #VPFLGS    DS    X
 000001                            39648  1 5364.     #VPPSWM    DS    X                       PSW mask for disabling
                                   39649  1 5365.                VPPARM PFX=#VP
 000004                            39650  1 01-02375 +           DS    0A
 000004 00                         39652  1 01-02377 +*,-- Return parms --
 #VPFLG.#VPFOK     00 EQ
 #VPFLG.#VPFSLI    80 EQ
 #VPFLG.#VPFPLI    40 EQ
 #VPFLG.#VPFSEI    20 EQ
 #VPFLG.#VPFPEI    10 EQ
 000005                            39704  1 01-02383 +             DS  3X                      - Available -
 000008                            39705  1 01-02384 +#VPSGTE      DS  A                       Segment table engtry
 00000C                            39706  1 01-02385 +#VPSSTE      DS  A                       Shadow-seg table entry
 000010                            39707  1 01-02386 +#VPPGTE      DS  A                       Page table entry
 000014                            39708  1 01-02387 +#VPSPTE      DS  A                       Shadow-pag table entry
 000018                            39709  1 01-02388 +#VPFPCB      DS  A                       PCB that would own frame
                                   39710  1 01-02389 +#VPPARM     EQU  #VPFLG,*-#VPFLG
 00001C                0001C 0001C 39712    5366.              END   ,
0004500                            39722    5368.     VPROTRAN PROC  $PAGE,#VPROTRA
 004500 E5D7D9D6E3D9C1D5           39729             +
 004508 0010/0020                  39730             +
 00450C 900F D004/18AF       00004 39732             +
 USING  VPROTRAN,R10
 004512 50D0 C000/18CD       00000 39747             +
 004518 9680 C000      00000       39749             +
1PAGESERV (PAGE00) (09:42) (22MAR04) General protection routine                                                             Page  237
0Current Usings:  (VPROTRAN,R10) ($PAGE-72,R12)
0Loc    Object Code    Addr1 Addr2  Stmt Lv Lineno    Source Statement           (Hibal 5, Asmedit 3.3)  HLASM R4.0  2004/03/22 09.42
+___    ______ ____    _____ _____  ____ __ ______    ______ _________
0USING  $PAGE-72,R12
 AUSING (#VPROTRA,$PAGE+16)
 00451C 41D0 C078            00078 39768             +
 004520 5860 0200            00200 39769    5369.              PAGAD RPAG
 USING  PZERO,R0
 DROP   PZERO,R0
 USING  MAT,R6
 004524 5860 600C            0000C 39803             +
 DROP   MAT,R6
 USING  PAGCB,R6
 USING  PZERO,R0                   39825    5370.              USING PZERO,R0                Address of current PCB
 004528 5870 0208            00208 39834    5371.              L     RPCB,PZCURASB           |
 DROP   PZERO,R0                   39835    5372.              DROP  R0                      |
 00452C 5870 7020            00020 39843    5373.              WITH  (ASB,RPCB),'L RPCB,ASBPAGB'
 USING  ASB,R7
 DROP   ASB,R7
 USING  ASBPCB,R7                  39867    5374.              WITH  (ASBPCB,RPCB)           |
 004530 5820 C048            00000 39880    5375.              L     RA,$PAGLOC              Page/number of pages
 004534 5810 C04C            00004 39881    5376.              L     RS,$PAGLEN              |
 004538 1E12                       39882    5377.              ALR   RS,RA                   |
 00453A 0610                       39883    5378.              DECR  RS                      |
 00453C 1222/4740 A05A       04566 39885    5379.              IF    ((RA,NEG),OR,(RS,LT,RA)),VPERR
 004542 1912/4740 A05A       04566 39907             +
 004548 8810 000C            0000C 39916    5380.              SRL   RS,L'PAGPAGM            | last page number
 00454C 8820 000C            0000C 39917    5381.              SRL   RA,L'PAGPAGM            | 1st page number
 004550 5830 60B8            000B8 39918    5382.              L     RB,PAGMEG               | last page in AS
 004554 8930 0008            00008 39919    5383.              SLL   RB,L'PAGSGNM-L'PAGPGNM  | |
 004558 0630                       39920    5384.              DECR  RB                      | |
                                   39922    5385.
 00455A 1913/4720 A05A       04566 39923    5386.              IF    ((RS,GT,RB),OR,(RA,GT,RB)),BEGIN Error in range
 004560 1923/47D0 A082       0458E 39946             +
 004566                            39952  1 5387.     VPERR      LABEL ,
 004566 5830 C050            00008 39954  1 5388.                L     RB,$PAGCODE
 00456A 47F3 A05E            0456A 39955  1 5389.     VPERTAB    B     VPERTAB(RB)
 00456E 47F0 A07C            04588 39956  1 5390.                B     VPEPROT
 004572 47F0 A07C            04588 39957  1 5391.                B     VPEUPROT
 004576 47F0 A076            04582 39958  1 5392.                B     VPETACC
                                   39959  1 5393.     *        B     VPETPROT
 00457A                            39960  1 5394.     VPETPROT   LABEL ,
 00457A 4100 0003            00003 39962  1 5395.                LA    RVR,$VPUNDEF            Undefined addr/len
 00457E 47F0 A29A            047A6 39963  1 5396.                EXIT  VPROTRAN
0004582 1B00                       39967  1 5398.     VPETACC    CLEAR RVR                     At least one undefined
 004584 47F0 A29A            047A6 39972  1 5399.                EXIT  VPROTRAN
0004588                            39976  1 5401.     VPEPROT    LABEL
 004588 1802                       39978  1 5402.     VPEUPROT   LR    RVR,RA                  Address of undefined
 00458A 47F0 A29A            047A6 39979  1 5403.                EXIT  VPROTRAN
 00458E                            39982    5404.              END   ,                       OF Error in range
                                   39986    5405.
 00458E 1F12                       39987    5406.              SLR   RS,RA                   |
 004590 5E10 A2D8            047E4 39988    5407.              INCR  RS                      | number of pages
 004594 8920 000C            0000C 39991    5408.              SLL   RA,L'PAGPAGM            | 1st page address
1PAGESERV (PAGE00) (09:42) (22MAR04) General protection routine                                                             Page  238
0Current Usings:  (PAGCB,R6) (ASBPCB,R7) (VPROTRAN,R10) ($PAGE-72,R12)
0Loc    Object Code    Addr1 Addr2  Stmt Lv Lineno    Source Statement           (Hibal 5, Asmedit 3.3)  HLASM R4.0  2004/03/22 09.42
+___    ______ ____    _____ _____  ____ __ ______    ______ _________
0                                  39992    5409.
                                   39993    5410.          Get locks
                                   39994    5411.
 004598 AC04 C059      00001       39995    5412.              PAGNTRY SYNC,#VPPSWM,#VPFLGS  Get flags - set up entry
 USING  @LOCKS-72,R13
 00459C D203 D048 7018 00000 00018 40015             +
 0045A2 58F0 602C/0DEF       0002C 40021             +
 0045A8 D200 C058 70B6 00000 000B6 40023             +
 0045AE 9260 70B6      000B6       40033             +
 0045B2 9180 7022      00022       40043             +
 0045B6 47E0 A0B2            045BE 40044             +
 0045BA 92A0 70B6      000B6       40059             +
 0045BE 5840 701C            0001C 40064    5413.              L     RJ,PCBPSTO              Check for seg table in core
 0045C2 B140 4000            00000 40065    5414.              LRA   RJ,@RJ                  |
 0045C6 4770 A2A4            047B0 40066    5415.              IF    ~VAOK,VPABORT           | seg table not in
 DROP   @LOCKS-72,R13              40080    5416.              PSET  @RESPT                  Bring in PT for VA
 USING  @RESPT-72,R13
 0045CA D714 D048 D048 00000 00000 40100             +
 0045D0 5020 D048            00000 40101    5417.              PMOV  @PTVA,(RA)              |
 0045D4 5070 D04C            00004 40111    5418.              PMOV  @PTPCB,LA:ASBPCB        |
 0045D8                            40122    5419.              PMOV  @PTPSWM,#VPPSWM         |
 0045D8 D200 D050 C059 00008 00001 40126             +
 0045DE 58F0 A310/0DEF       0481C 40127    5420.              ACALL RESPT                   |
 0045E4 9845 D054            0000C 40134    5421.              LM    RJ,RK,@PTPGTE           Page/shadow page addr
                                   40135    5422.
                                   40136    5423.          In this loop, RA is the page address to be protected, and RS is
                                   40137    5424.          the number of consecutive pages to protect
                                   40138    5425.
 0045E8 1B88                       40139    5426.              CLEAR RM                      Preset return
 0045EA                            40143    5427.     VPSEG    BEGIN ,                       Valid segments
 0045EA                            40148  1 5428.     VPLOOP     LOOP  BEGIN                   Loop through virtual addrs
 USING  PGTE,R4                    40155  2 5429.                  WITH  (PGTE,RJ)
 USING  SPTE,R5                    40168  2 5430.                  WITH  (SPTE,RK)
 0045EA 1200/4780 A0F8       04604 40181  2 5431.                  IF    (RVR,NZ),BEGIN          Addr exception
 0045F0 1882                       40195  3 5432.                    LR    RM,RA                   | address of undef page
 0045F2                            40196  3 5433.                    IF    ($PAGCODE,EQ,$VPTPROT),BEGIN     Test access call
 0045F2 D503 A314 C050 04820 00008 40208  3          +
 0045F8 4770 A0F4            04600 40209  3          +
 0045FC 4180 0003            00003 40214  4 5434.                      LA    RM,$VPUNDEF
 004600                            40215  3 5435.                    END   ,                       OF Test access call
 004600 47F0 A256            04762 40219  3 5436.                    EXIT  VPSEG                   |
 004604                            40222  2 5437.                  END   ,                       OF Addr exception
 004604 5830 C050            00008 40226  2 5438.                  L     RB,$PAGCODE
 004608 47F3 A0FC            04608 40227  2 5439.     VPTAB        B     VPTAB(RB)
 00460C 47F0 A1D6            046E2 40228  2 5440.                  B     VPPROT
 004610 47F0 A1C0            046CC 40229  2 5441.                  B     VPUPROT
 004614 47F0 A1A2            046AE 40230  2 5442.                  B     VPTACC
                                   40231  2 5443.     *        B     VPTPROT
 004618                            40232  2 5444.     VPTPROT      LABEL ,
 004618 9180 4003      00003       40234  2 5445.                  IF    ~PGTFDEF,BEGIN          Undefined page
 00461C 4710 A11C            04628 40244  2          +
 004620 4180 0003            00003 40249  3 5446.                    LA    RM,$VPUNDEF
 004624 47F0 A242            0474E 40250  3 5447.                    EXIT  VPLOOP
 004628                            40253  2 5448.                  END   ,                       OF Undefined page
1PAGESERV (PAGE00) (09:42) (22MAR04) General protection routine                                                             Page  239
0Current Usings:  (PGTE,R4) (SPTE,R5) (PAGCB,R6) (ASBPCB,R7) (VPROTRAN,R10) ($PAGE-72,R12) (@RESPT-72,R13)
0Loc    Object Code    Addr1 Addr2  Stmt Lv Lineno    Source Statement           (Hibal 5, Asmedit 3.3)  HLASM R4.0  2004/03/22 09.42
+___    ______ ____    _____ _____  ____ __ ______    ______ _________
0004628 9104 4002      00002       40257  2 5449.                  IF    ~PGTFINV,BEGIN          If frame is in
 00462C 4710 A14C            04658 40267  2          +
 004630 5890 4000            00000 40272  3 5450.                    L     RN,PGAD                 Real addr of this addr
 004634 5490 A318            04824 40273  3 5451.                    N     RN,=A(PGTADMSK)         |
 004638 4770 A14C            04658 40274  3 5452.                    IF    (ZERO),BEGIN            Check low address protection
 00463C 1F33/4330 C054       0000C 40285  4 5453.                      LC    RB,$PAGKEY
 004642 E501 2000 3000 00000 00000 40292  4 5454.                      TPROT @RA,@RB                 CC => integer 0..3
 004648 B222 0030                  40293  4 5455.                      IPM   RB                      |
 00464C 8830 001C            0001C 40294  4 5456.                      SRL   RB,28                   |
 004650 1938/47D0 A14C       04658 40295  4 5457.                      STMAX RB,RM
 004656 1883                       40301  4          +
 004658                            40302  3 5458.                    END   ,                       OF Check low addr protection
 004658                            40306  2 5459.                  END   ,                       OF If frame is in
                                   40310  2 5460.
 004658 9102 4002      00002       40311  2 5461.                  IF    PGTFPROT,BEGIN          Check page table protection
 00465C 47E0 A160            0466C 40321  2          +
 004660 4130 0001            00001 40326  3 5462.                    LA    RB,$VPFETCH             |
 004664 1938/47D0 A160       0466C 40327  3 5463.                    STMAX RB,RM                   |
 00466A 1883                       40333  3          +
 00466C                            40334  2 5464.                  END   ,                       OF Check page table protection
                                   40338  2 5465.
 00466C 1FFF/43F0 C054       0000C 40339  2 5466.                  LC    EPAR,$PAGKEY            |
 004672 54F0 A31C            04828 40346  2 5467.                  N     EPAR,=X'000000F0'       |
 004676 4780 A19E            046AA 40347  2 5468.                  IF    ~ZERO,BEGIN             Bypass for key of 0
 00467A 1F00/4300 5005       00005 40358  3 5469.                    LC    RVR,SPKEY               |
 004680 5400 A31C            04828 40363  3 5470.                    N     RVR,=X'000000F0'        | keys
 004684 190F/4780 A19E       046AA 40364  3 5471.                    IF    (RVR,NE,EPAR),BEGIN     Key mismatch
 00468A 4130 0001            00001 40379  4 5472.                      LA    RB,$VPFETCH             Limit to fetch
 00468E 1938/47D0 A18A       04696 40380  4 5473.                      STMAX RB,RM
 004694 1883                       40386  4          +
 004696 9110 5005      00005       40387  4 5474.                      IF    SPFPROT,BEGIN           Fetch protection
 00469A 47E0 A19E            046AA 40397  4          +
 00469E 4130 0002            00002 40402  5 5475.                        LA    RB,$VPNOACC             No access
 0046A2 1938/47D0 A19E       046AA 40403  5 5476.                        STMAX RB,RM
 0046A8 1883                       40409  5          +
 0046AA                            40410  4 5477.                      END   ,                       OF Fetch protection
 0046AA                            40414  3 5478.                    END   ,                       OF Key mismatch
 0046AA                            40418  2 5479.                  END   ,                       OF Bypass for key of 0
 0046AA 47F0 A1E8            046F4 40422  2 5480.                  B     VPNXT
-0046AE                            40424  2 5482.     VPTACC       LABEL ,
 0046AE 9180 4003      00003       40426  2 5483.                  IF    (~PGTFDEF,OR,~PGTFPROT),BEGIN
 0046B2 47E0 A1B2            046BE 40440  2          +
 0046B6 9102 4002      00002       40449  2          +
 0046BA 4710 A1B8            046C4 40450  2          +
 0046BE 1B88                       40455  3 5484.                    CLEAR RM                      At least 1 undef/unprotect
 0046C0 47F0 A242            0474E 40459  3 5485.                    EXIT  VPLOOP                  |
 0046C4                            40462  2 5486.                  END   ,
 0046C4 4180 0004            00004 40466  2 5487.                  LA    RM,4                    Another protected page
 0046C8 47F0 A1E8            046F4 40467  2 5488.                  B     VPNXT
-0046CC                            40469  2 5490.     VPUPROT      LABEL ,
1PAGESERV (PAGE00) (09:42) (22MAR04) General protection routine                                                             Page  240
0Current Usings:  (PGTE,R4) (SPTE,R5) (PAGCB,R6) (ASBPCB,R7) (VPROTRAN,R10) ($PAGE-72,R12) (@RESPT-72,R13)
0Loc    Object Code    Addr1 Addr2  Stmt Lv Lineno    Source Statement           (Hibal 5, Asmedit 3.3)  HLASM R4.0  2004/03/22 09.42
+___    ______ ____    _____ _____  ____ __ ______    ______ _________
0                                  40471  2 5491.
                                   40472  2 5492.              If the page is defined, clear page protection
                                   40473  2 5493.
 0046CC 9180 4003      00003       40474  2 5494.                  IF    ~PGTFDEF,BEGIN          Undefined page
 0046D0 4710 A1CE            046DA 40484  2          +
 0046D4 1882                       40489  3 5495.                    LR    RM,RA                   | address of undefined
 0046D6 47F0 A242            0474E 40490  3 5496.                    EXIT  VPLOOP                  |
 0046DA                            40493  2 5497.                  END   ,                       OF Undefined page
 0046DA 94FD 4002      00002       40497  2 5498.                  CLEAR PGTFPROT                Clear page protection
 0046DE 47F0 A1E8            046F4 40504  2 5499.                  B     VPNXT
-0046E2                            40506  2 5501.     VPPROT       LABEL ,
                                   40508  2 5502.
                                   40509  2 5503.              If the page is defined, set the protection bit
                                   40510  2 5504.
 0046E2 9180 4003      00003       40511  2 5505.                  IF    ~PGTFDEF,BEGIN          Undefined page
 0046E6 4710 A1E4            046F0 40521  2          +
 0046EA 1882                       40526  3 5506.                    LR    RM,RA                   | address of undefined
 0046EC 47F0 A242            0474E 40527  3 5507.                    EXIT  VPLOOP                  |
 0046F0                            40530  2 5508.                  END   ,                       OF Undefined page
 0046F0 9602 4002      00002       40534  2 5509.                  SET   PGTFPROT                Set page as protected
-0046F4                            40541  2 5511.     VPNXT        LABEL ,
                                   40543  2 5512.
                                   40544  2 5513.              Get the addresses of the page table entries, using a short cut
                                   40545  2 5514.              if it's in the same segment.
                                   40546  2 5515.
 0046F4 5910 A2D8            047E4 40547  2 5516.                  IF    (RS,GT,1),BEGIN         More to come
 0046F8 47D0 A23E            0474A 40559  2          +
 0046FC 5E20 A2E0            047EC 40564  3 5517.                    AL    RA,=A(PAGPAGEL)         Is next in another segment?
 004700 1832                       40565  3 5518.                    LR    RB,RA                   |
 004702 5430 A2FC            04808 40566  3 5519.                    N     RB,=A(PAGPGNM)          | (if page num 0, next seg)
 004706 4780 A208            04714 40567  3 5520.                    IF    NZ,BEGIN                Same segment
 00470A 4140 4004            00004 40578  4 5521.                      LA    RJ,PGTNXT               |
 00470E 4150 5008            00008 40579  4 5522.                      LA    RK,SPTNXT               |
 004712 1B00                       40580  4 5523.                      CLEAR RVR                     | (not addr error)
 004714                            40584  3 5524.                    END   ,                       OF Same segment
 004714 A20C           04714 04708 40588  3 5525.                    ELSE  BEGIN                   Different segment
 004714 47F0 A23E            0474A 40593  3          +
 004718 B130 4000            00000 40599  4 5526.                      LRA   RB,PGTE                 Unfix last PT
 DROP   @RESPT-72,R13              40600  4 5527.                      PSET  @QUFIX                  |
 USING  @QUFIX-72,R13
 00471C D703 D048 D048 00000 00000 40620  4          +
 004722 5030 D048            00000 40621  4 5528.                      PMOV  @QUFRA,(RB)             |
 004726 58F0 A2E4/0DEF       047F0 40631  4 5529.                      ACALL QUFIX                   |
                                   40638  4 5530.
 DROP   @QUFIX-72,R13              40639  4 5531.                      PSET  @RESPT                  Bring in PT
 USING  @RESPT-72,R13
 00472C D714 D048 D048 00000 00000 40659  4          +
 004732 5020 D048            00000 40660  4 5532.                      PMOV  @PTVA,(RA)              |
 004736 5070 D04C            00004 40670  4 5533.                      PMOV  @PTPCB,LA:ASBPCB        |
 00473A                            40681  4 5534.                      PMOV  @PTPSWM,#VPPSWM         |
1PAGESERV (PAGE00) (09:42) (22MAR04) General protection routine                                                             Page  241
0Current Usings:  (PGTE,R4) (SPTE,R5) (PAGCB,R6) (ASBPCB,R7) (VPROTRAN,R10) ($PAGE-72,R12) (@RESPT-72,R13)
0Loc    Object Code    Addr1 Addr2  Stmt Lv Lineno    Source Statement           (Hibal 5, Asmedit 3.3)  HLASM R4.0  2004/03/22 09.42
+___    ______ ____    _____ _____  ____ __ ______    ______ _________
000473A D200 D050 C059 00008 00001 40685  4          +
 004740 58F0 A310/0DEF       0481C 40686  4 5535.                      ACALL RESPT                   |
 004746 9845 D054            0000C 40693  4 5536.                      LM    RJ,RK,@PTPGTE
 00474A                            40694  3 5537.                    END   ,                       OF Different segment
 00474A                            40698  2 5538.                  END   ,                       OF More to come
 00474A 4610 A0DE            045EA 40702  1 5539.                UNTIL (BCT,RS),END            OF Loop through virtual addrs
 DROP   SPTE,R5
 DROP   PGTE,R4
 00474E B130 4000            00000 40722  1 5540.                LRA   RB,@RJ                  Unfix last PT
 DROP   @RESPT-72,R13              40723  1 5541.                PSET  @QUFIX                  |
 USING  @QUFIX-72,R13
 004752 D703 D048 D048 00000 00000 40743  1          +
 004758 5030 D048            00000 40744  1 5542.                PMOV  @QUFRA,(RB)             |
 00475C 58F0 A2E4/0DEF       047F0 40754  1 5543.                ACALL QUFIX                   |
 004762                            40761    5544.              END   ,                       Valid segments
 004762 4310 70B6            000B6 40765    5545.              PAGXIT SYNC,#VPPSWM,#VPFLGS,WR=RS
 004766 D200 70B6 C058 000B6 00000 40769             +
 00476C 4210 C058            00000 40770             +
 004770 9180 C058      00000       40780             +
 004774 47E0 A280            0478C 40781             +
 004778 5850 6018            00018 40786  1          +
 USING  ASB,R5
 00477C 5850 5020            00020 40802  1          +
 DROP   ASB,R5
 DROP   ASBPCB,R7
 USING  ASBPCB,R5
 DROP   @QUFIX-72,R13
 USING  @LOCKS-72,R13
 004780 D203 D048 5018 00000 00018 40855  2          +
 004786 58F0 6030/0DEF       00030 40861             +
 USING  ASBPCB,R7
 DROP   ASBPCB,R5
 00478C 9140 C058      00000       40893             +
 004790 47E0 A294            047A0 40894             +
 004794 D203 D048 7018 00000 00018 40908  1          +
 00479A 58F0 6030/0DEF       00030 40914             +
 0047A0 8000 C059      00001       40920             +
 0047A4 1808                       40921    5546.              LR    RVR,RM                  RVR = completion code
 0047A6 981F C008            00008 40922    5547.              PEND  ,
 DROP   ASBPCB,R7
 DROP   PAGCB,R6
 DROP   $PAGE-72,R12
 DROP   VPROTRAN,R10
 0047AA 9680 C000/0B0E 00000       40947             +
 DROP   @LOCKS-72,R13
00047B0 AC04 021B      0021B       40957    5549.     VPABORT  ABORT PAGPROT                 Page protection error
 USING  PZERO,R0
 0047B4 9680 021A      0021A       40976             +
 0047B8 50F0 021C            0021C 40977             +
 0047BC 58F0 0210            00210 40978             +
 0047C0 89F0 0010            00010 40979             +
 0047C4 88F0 0010            00010 40980             +
 0047C8 41F0 F000            00000 40981             +
1PAGESERV (PAGE00) (09:42) (22MAR04) General protection routine                                                             Page  242
0Current Usings:  (PZERO,R0)
0Loc    Object Code    Addr1 Addr2  Stmt Lv Lineno    Source Statement           (Hibal 5, Asmedit 3.3)  HLASM R4.0  2004/03/22 09.42
+___    ______ ____    _____ _____  ____ __ ______    ______ _________
00047CC AEFF 0006            00006 40982             +
 0047D0 D7C1C7D7D9D6E340           40983             +
 DROP   PZERO,R0
1PAGESERV (PAGE00) (09:42) (22MAR04) MP-ORVYL Real Memory / Paging Manager Services                                         Page  243
0Loc    Object Code    Addr1 Addr2  Stmt Lv Lineno    Source Statement           (Hibal 5, Asmedit 3.3)  HLASM R4.0  2004/03/22 09.42
+___    ______ ____    _____ _____  ____ __ ______    ______ _________
00047E0                            40993    5551.              LTORG ,
 0047E0 7FFFF000                   40995                             =A(PAGPAGM)
 0047E4 00000001                   40996                             =A(1)
 0047E8 000040E8                   40997                             =A(QFIX)
 0047EC 00001000                   40998                             =A(PAGPAGEL)
 0047F0 000041A0                   40999                             =A(QUFIX)
 0047F4 00000000                   41000                             =A(0)
 0047F8 00000004                   41001                             =A($VPPROT)
 0047FC 0000078C                   41002                             =A(PAGRV)
 004800 7FF00000                   41003                             =A(PAGSGNM)
 004804 7FFFFFC0                   41004                             =A(SGTADMSK)
 004808 000FF000                   41005                             =A(PAGPGNM)
 00480C 00000000                   41006                             =V(DISPPTLB)
 004810 00000008                   41007                             =A($VPUPROT)
 004814 0000000C                   41008                             =A($VPTACC)
 004818 00000010                   41009                             =A($VPTPROT)
 00481C 00000824                   41010                             =A(RESPT)
 004820 00000010                   41011                             =AL4($VPTPROT)
 004824 7FFFF000                   41012                             =A(PGTADMSK)
 004828 000000F0       0482C 0A6E0 41013                             =X'000000F0'
1PAGESERV (PAGE00) (09:42) (22MAR04) Define pages                                                                           Page  244
0Loc    Object Code    Addr1 Addr2  Stmt Lv Lineno    Source Statement           (Hibal 5, Asmedit 3.3)  HLASM R4.0  2004/03/22 09.42
+___    ______ ____    _____ _____  ____ __ ______    ______ _________
0                                  41018    5553.
                                   41019    5554.
                                   41020    5555.       Define pages
                                   41021    5556.
                                   41022    5557.        Input - @PAGDEF
                                   41023    5558.                For global definitions
                                   41024    5559.                  The common ASB is obtained from the PAGCB
                                   41025    5560.                For local definitions
                                   41026    5561.                  PZCURASB defines the AS which is in control and
                                   41027    5562.                  which will have this page defined
                                   41028    5563.
                                   41029    5564.       Output - NONE
                                   41030    5565.
                                   41031    5566.

0000000                00000 00002 41033    5568.     #PAGDEF  RECORD BEGIN
 000000                            41041  1 5569.     #PDFLGS    DS    X                       Current flags held on entry
 000001                            41042  1 5570.     #PDPSWM    DS    X                       PSW mask for disabling
 000002                00002 00002 41043    5571.              END   ,
000482C                            41053    5573.     PAGDEF   PROC  @PAGDEF,#PAGDEF,SCOPE=GLOBAL     Define pages
 00482C D7C1C7C4C5C64040           41059             +
 004834 0010/0008                  41060             +
 004838 900F D004/18AF       00004 41062             +
 USING  PAGDEF,R10
 00483E 50D0 C000/18CD       00000 41077             +
 004844 9680 C000      00000       41079             +
 USING  @PAGDEF-72,R12
 AUSING (#PAGDEF,@PAGDEF+16)
 004848 41D0 C060            00060 41098             +
 00484C 5860 0200            00200 41099    5574.              PAGAD RPAG
 USING  PZERO,R0
 DROP   PZERO,R0
 USING  MAT,R6
 004850 5860 600C            0000C 41133             +
 DROP   MAT,R6
 USING  PAGCB,R6
 USING  PZERO,R0                   41155    5575.              USING PZERO,R0                Address of current PCB
 004854 5870 0208            00208 41164    5576.              L     RPCB,PZCURASB           |
 DROP   PZERO,R0                   41165    5577.              DROP  R0                      |
 004858 5870 7020            00020 41173    5578.              WITH  (ASB,RPCB),'L RPCB,ASBPAGB'
 USING  ASB,R7
 DROP   ASB,R7
 USING  ASBPCB,R7                  41197    5579.              WITH  (ASBPCB,RPCB)           |
 00485C 5820 C048            00000 41210    5580.              L     RA,@PDADDR              Page/number of pages
 004860 5810 C04C            00004 41211    5581.              L     RS,@PDLEN               |
 004864 1E12                       41212    5582.              ALR   RS,RA                   |
 004866 0610                       41213    5583.              DECR  RS                      |
 004868 8810 000C            0000C 41215    5584.              SRL   RS,L'PAGPAGM            | last page number
 00486C 8820 000C            0000C 41216    5585.              SRL   RA,L'PAGPAGM            | 1st page number
 004870 5830 60B8            000B8 41217    5586.              L     RB,PAGMEG               | last page in AS
 004874 8930 0008            00008 41218    5587.              SLL   RB,L'PAGSGNM-L'PAGPGNM  | |
 004878 0630                       41219    5588.              DECR  RB                      | |
 00487A 1913/4720 A1E0       04A18 41221    5589.              IF    ((RS,GT,RB),OR,(RA,GT,RB)),PDABORT
 004880 1923/4720 A1E0       04A18 41244             +
1PAGESERV (PAGE00) (09:42) (22MAR04) Define pages                                                                           Page  245
0Current Usings:  (PAGCB,R6) (ASBPCB,R7) (PAGDEF,R10) (@PAGDEF-72,R12)
0Loc    Object Code    Addr1 Addr2  Stmt Lv Lineno    Source Statement           (Hibal 5, Asmedit 3.3)  HLASM R4.0  2004/03/22 09.42
+___    ______ ____    _____ _____  ____ __ ______    ______ _________
0004886 1F12                       41253    5590.              SLR   RS,RA                   |
 004888 5E10 AD30            05568 41254    5591.              INCR  RS                      | number of segments
 00488C 8920 000C            0000C 41257    5592.              SLL   RA,L'PAGPAGM            | 1st page address
 004890 AC04 C059      00001       41258    5593.              PAGNTRY SYNC,#PDPSWM,#PDFLGS  Get flags - set up entry
 USING  @LOCKS-72,R13
 004894 D203 D048 7018 00000 00018 41278             +
 00489A 58F0 602C/0DEF       0002C 41284             +
 0048A0 D200 C058 70B6 00000 000B6 41286             +
 0048A6 9260 70B6      000B6       41296             +
 0048AA 9180 7022      00022       41306             +
 0048AE 47E0 A07E            048B6 41307             +
 0048B2 92A0 70B6      000B6       41322             +
 0048B6 9180 C051      00009       41327    5594.              IF    (@PDFGLOB,AND,~PCBFGBL),BEGIN    Get global lock
 0048BA 47E0 A0A6            048DE 41339             +
 0048BE 9180 70B6      000B6       41350             +
 0048C2 4710 A0A6            048DE 41351             +
 0048C6 5850 6018            00018 41356  1 5595.                L     RCPCB,PAGCASB
 0048CA 5850 5020            00020 41357  1 5596.                WITH  (ASB,RCPCB),'L RCPCB,ASBPAGB'
 USING  ASB,R5
 DROP   ASB,R5
 USING  COMM.ASBPCB,R5             41381  1 5597.                WITH  (ASBPCB,RCPCB),LABEL=COMM
 0048CE                            41389  1 5598.                LKOB  COMM.PCBLOCK
 0048CE D203 D048 5018 00000 00018 41398  1          +
 0048D4 58F0 602C/0DEF       0002C 41404  1          +
 0048DA 9680 70B6      000B6       41406  1 5599.                SET   PCBFGBL
 DROP   COMM.ASBPCB,R5             41412    5600.              END   ,                       OF Get global lock
 0048DE 5880 701C            0001C 41424    5601.              L     RM,PCBPSTO              Check for seg table in core
 0048E2 B180 8000            00000 41425    5602.              LRA   RM,@RM                  |
 0048E6 4770 A1E0            04A18 41426    5603.              IF    ~VAOK,PDABORT           | seg table not in
 DROP   @LOCKS-72,R13              41440    5604.              PSET  @RESPT                  Bring in PT
 USING  @RESPT-72,R13
 0048EA D714 D048 D048 00000 00000 41460             +
 0048F0 5020 D048            00000 41461    5605.              PMOV  @PTVA,(RA)              |
 0048F4 5070 D04C            00004 41471    5606.              PMOV  @PTPCB,LA:ASBPCB        |
 0048F8                            41482    5607.              PMOV  @PTPSWM,#PDPSWM         |
 0048F8 D200 D050 C059 00008 00001 41486             +
 0048FE 58F0 AD34/0DEF       0556C 41487    5608.              ACALL RESPT                   |
 004904 9889 D054            0000C 41494    5609.              LM    RM,RN,@PTPGTE           |
                                   41495    5610.
                                   41496    5611.          In this loop, RA is the page address to be defined, and RS is
                                   41497    5612.          the number of consecutive pages to define.  RM and RN are
                                   41498    5613.          addresses of the page/shadow page table entries.
                                   41499    5614.
 004908                            41500    5615.              LOOP  BEGIN                   Define pages
 004908 1200/4770 A1E0       04A18 41506  1 5616.                IF    (RVR,NZ),PDABORT        Addr error on PT
 USING  PGTE,R8                    41523  1 5617.                WITH  (PGTE,RM)
 USING  SPTE,R9                    41536  1 5618.                WITH  (SPTE,RN)
 00490E 1832                       41549  1 5619.                LR    RB,RA                   Segment addr
 004910 8830 0014            00014 41550  1 5620.                SRL   RB,L'PAGSGNM            |
 004914 8930 0002            00002 41551  1 5621.                SLL   RB,SGTLOG               |
 004918 5E30 701C            0001C 41552  1 5622.                AL    RB,PCBPSTO              |
 USING  SGTE,R3                    41553  1 5623.                WITH  (SGTE,RB),BEGIN         |
                                   41567  2 5624.   C              IF    ((@PDFGLOB,AND,~SGTFCOMM),OR,
 00491C 9180 C051      00009              2 5625.                        (~@PDFGLOB,AND,SGTFCOMM)),PDABORT
1PAGESERV (PAGE00) (09:42) (22MAR04) Define pages                                                                           Page  246
0Current Usings:  (SGTE,R3) (PAGCB,R6) (ASBPCB,R7) (PGTE,R8) (SPTE,R9) (PAGDEF,R10) (@PAGDEF-72,R12) (@RESPT-72,R13)
0Loc    Object Code    Addr1 Addr2  Stmt Lv Lineno    Source Statement           (Hibal 5, Asmedit 3.3)  HLASM R4.0  2004/03/22 09.42
+___    ______ ____    _____ _____  ____ __ ______    ______ _________
0004920 47E0 A0F4            0492C 41581  2          +
 004924 9110 3003      00003       41592  2          +
 004928 47E0 A1E0            04A18 41595  2          +
 00492C 9180 C051      00009       41606  2          +
 004930 4710 A104            0493C 41607  2          +
 004934 9110 3003      00003       41618  2          +
 004938 4710 A1E0            04A18 41621  2          +
 DROP   SGTE,R3                    41627  1 5626.                END   ,
                                   41635  1 5627.
                                   41636  1 5628.            Define the page attributes, and if not previously defined, get
                                   41637  1 5629.            an external frame for the page.
                                   41638  1 5630.
0                                  41640  1 5632.     *        MVC   SPINIT,@PDHASH          |
 00493C D200 9005 C050 00005 00008 41641  1 5633.                MVC   SPKEY,@PDKEY            |
 004942 9140 C051      00009       41642  1 5634.                IF    @PDFPROT,'SET PGTFPROT' |
 004946 47E0 A116            0494E 41652  1          +
 00494A 9602 8002      00002       41663  1          +
 00494E 9180 C051      00009       41668  1 5635.                IF    @PDFGLOB,'SET PGTFCOMM' |
 004952 47E0 A122            0495A 41678  1          +
 004956 9620 8003      00003       41689  1          +
 00495A 9680 8003      00003       41694  1 5636.                SET   PGTFDEF                 |
                                   41700  1 5637.
                                   41701  1 5638.            Get the addresses of the page table entries, using a short cut
                                   41702  1 5639.            if it's in the same segment.
                                   41703  1 5640.
 00495E 5910 AD30            05568 41704  1 5641.                IF    (RS,GT,1),BEGIN         More to come
 004962 47D0 A17C            049B4 41716  1          +
 004966 5E20 AD38            05570 41721  2 5642.                  AL    RA,=A(PAGPAGEL)         Is next in another segment?
 00496A 1832                       41722  2 5643.                  LR    RB,RA                   |
 00496C 5430 AD3C            05574 41723  2 5644.                  N     RB,=A(PAGPGNM)          | (0 page num = new segment)
 004970 4780 A146            0497E 41724  2 5645.                  IF    NZ,BEGIN                Same segment
 004974 4180 8004            00004 41735  3 5646.                    LA    RM,PGTNXT               |
 004978 4190 9008            00008 41736  3 5647.                    LA    RN,SPTNXT               |
 00497C 1B00                       41737  3 5648.                    CLEAR RVR                     | (no addr error on PT)
 00497E                            41741  2 5649.                  END   ,                       OF Same segment
 00497E A14A           0497E 04972 41745  2 5650.                  ELSE  BEGIN                   Different segment
 00497E 47F0 A17C            049B4 41750  2          +
 004982 B130 8000            00000 41756  3 5651.                    LRA   RB,PGTE                 Unfix last PT
 DROP   @RESPT-72,R13              41757  3 5652.                    PSET  @QUFIX                  |
 USING  @QUFIX-72,R13
 004986 D703 D048 D048 00000 00000 41777  3          +
 00498C 5030 D048            00000 41778  3 5653.                    PMOV  @QUFRA,(RB)             |
 004990 58F0 AD40/0DEF       05578 41788  3 5654.                    ACALL QUFIX                   |
                                   41795  3 5655.
 DROP   @QUFIX-72,R13              41796  3 5656.                    PSET  @RESPT                  Bring in PT
 USING  @RESPT-72,R13
 004996 D714 D048 D048 00000 00000 41816  3          +
 00499C 5020 D048            00000 41817  3 5657.                    PMOV  @PTVA,(RA)              |
 0049A0 5070 D04C            00004 41827  3 5658.                    PMOV  @PTPCB,LA:ASBPCB        |
 0049A4                            41838  3 5659.                    PMOV  @PTPSWM,#PDPSWM         |
 0049A4 D200 D050 C059 00008 00001 41842  3          +
 0049AA 58F0 AD34/0DEF       0556C 41843  3 5660.                    ACALL RESPT                   |
 0049B0 9889 D054            0000C 41850  3 5661.                    LM    RM,RN,@PTPGTE           | get page/shadow entry addrs
1PAGESERV (PAGE00) (09:42) (22MAR04) Define pages                                                                           Page  247
0Current Usings:  (PAGCB,R6) (ASBPCB,R7) (PGTE,R8) (SPTE,R9) (PAGDEF,R10) (@PAGDEF-72,R12) (@RESPT-72,R13)
0Loc    Object Code    Addr1 Addr2  Stmt Lv Lineno    Source Statement           (Hibal 5, Asmedit 3.3)  HLASM R4.0  2004/03/22 09.42
+___    ______ ____    _____ _____  ____ __ ______    ______ _________
00049B4                            41851  2 5662.                  END   ,                       OF Different segment
 0049B4                            41855  1 5663.                END   ,                       OF More to come
 0049B4 4610 A0D0            04908 41859    5664.              UNTIL (BCT,RS),END            OF Define pages
 DROP   SPTE,R9
 DROP   PGTE,R8
 0049B8 B130 8000            00000 41879    5665.              LRA   RB,@RM                  Unfix last PT
 DROP   @RESPT-72,R13              41880    5666.              PSET  @QUFIX                  |
 USING  @QUFIX-72,R13
 0049BC D703 D048 D048 00000 00000 41900             +
 0049C2 5030 D048            00000 41901    5667.              PMOV  @QUFRA,(RB)             |
 0049C6 58F0 AD40/0DEF       05578 41911    5668.              ACALL QUFIX                   |
 0049CC 4310 70B6            000B6 41918    5669.              PAGXIT SYNC,#PDPSWM,#PDFLGS,WR=RS
 0049D0 D200 70B6 C058 000B6 00000 41922             +
 0049D6 4210 C058            00000 41923             +
 0049DA 9180 C058      00000       41933             +
 0049DE 47E0 A1BE            049F6 41934             +
 0049E2 5850 6018            00018 41939  1          +
 USING  ASB,R5
 0049E6 5850 5020            00020 41955  1          +
 DROP   ASB,R5
 DROP   ASBPCB,R7
 USING  ASBPCB,R5
 DROP   @QUFIX-72,R13
 USING  @LOCKS-72,R13
 0049EA D203 D048 5018 00000 00018 42008  2          +
 0049F0 58F0 6030/0DEF       00030 42014             +
 USING  ASBPCB,R7
 DROP   ASBPCB,R5
 0049F6 9140 C058      00000       42046             +
 0049FA 47E0 A1D2            04A0A 42047             +
 0049FE D203 D048 7018 00000 00018 42061  1          +
 004A04 58F0 6030/0DEF       00030 42067             +
 004A0A 8000 C059      00001       42073             +
 004A0E 981F C008            00008 42074    5670.              PEND  ,
 DROP   ASBPCB,R7
 DROP   PAGCB,R6
 DROP   @PAGDEF-72,R12
 DROP   PAGDEF,R10
 004A12 9680 C000/0B0E 00000       42099             +
 DROP   @LOCKS-72,R13
 004A18 AC04 021B      0021B       42108    5671.     PDABORT  ABORT PAGDEFN                 Page define error
 USING  PZERO,R0
 004A1C 9680 021A      0021A       42127             +
 004A20 50F0 021C            0021C 42128             +
 004A24 58F0 0210            00210 42129             +
 004A28 89F0 0010            00010 42130             +
 004A2C 88F0 0010            00010 42131             +
 004A30 41F0 F000            00000 42132             +
 004A34 AEFF 0006            00006 42133             +
 004A38 D7C1C7C4C5C6D540           42134             +
 DROP   PZERO,R0
1PAGESERV (PAGE00) (09:42) (22MAR04) Undefine a page                                                                        Page  248
0Loc    Object Code    Addr1 Addr2  Stmt Lv Lineno    Source Statement           (Hibal 5, Asmedit 3.3)  HLASM R4.0  2004/03/22 09.42
+___    ______ ____    _____ _____  ____ __ ______    ______ _________
0                                  42144    5673.     *NEST,1
                                   42145    5674.
                                   42146    5675.
                                   42147    5676.       Undefine a page
                                   42148    5677.
                                   42149    5678.        Input - @PAGE
                                   42150    5679.
                                   42151    5680.       Output - RVR =  0  Range of pages is now undefined
                                   42152    5681.                RVR <> 0  At least one page was undefined, had a
                                   42153    5682.                          long-term fix on it, or did not match the
                                   42154    5683.                          Local/Global flag of the ASB.
                                   42155    5684.                            In this case RVR contains the address of
                                   42156    5685.                          the page which could not be undefined. The
                                   42157    5686.                          rest of the pages in the range are ignored.
                                   42158    5687.
                                   42159    5688.

0000000                00000 00002 42161    5690.     #PAGUDEF RECORD BEGIN
 000000                            42169  1 5691.     #PUDFLGS   DS    X                       Flags
 000001                            42170  1 5692.     #PUDPSWM   DS    X                       PSW mask for diabling
 000002                00002 00002 42171    5693.              END   ,
0004A48                            42181    5695.     PAGUDEF  PROC  @PAGE,#PAGUDEF,SCOPE=GLOBAL
 004A48 D7C1C7E4C4C5C640           42187             +
 004A50 0010/0008                  42188             +
 004A54 900F D004/18AF       00004 42190             +
 USING  PAGUDEF,R10
 004A5A 50D0 C000/18CD       00000 42205             +
 004A60 9680 C000      00000       42207             +
 USING  @PAGE-72,R12
 AUSING (#PAGUDEF,@PAGE+16)
 004A64 41D0 C060            00060 42226             +
 004A68 5860 0200            00200 42227    5696.              PAGAD RPAG
 USING  PZERO,R0
 DROP   PZERO,R0
 USING  MAT,R6
 004A6C 5860 600C            0000C 42261             +
 DROP   MAT,R6
 USING  PAGCB,R6
 USING  PZERO,R0                   42283    5697.              USING PZERO,R0                Address of current PCB
 004A70 5870 0208            00208 42292    5698.              L     RPCB,PZCURASB           |
 DROP   PZERO,R0                   42293    5699.              DROP  R0                      |
 004A74 5870 7020            00020 42301    5700.              WITH  (ASB,RPCB),'L RPCB,ASBPAGB'
 USING  ASB,R7
 DROP   ASB,R7
 USING  ASBPCB,R7                  42325    5701.              WITH  (ASBPCB,RPCB)           |
 004A78 5820 C048            00000 42338    5702.              L     RA,@PAGLOC              Page/number of pages
 004A7C 5810 C04C            00004 42339    5703.              L     RS,@PAGLEN              |
 004A80 1E12                       42340    5704.              ALR   RS,RA                   |
 004A82 0610                       42341    5705.              DECR  RS                      |
 004A84 8810 000C            0000C 42343    5706.              SRL   RS,L'PAGPAGM            | last page number
 004A88 8820 000C            0000C 42344    5707.              SRL   RA,L'PAGPAGM            | 1st page number
 004A8C 5830 60B8            000B8 42345    5708.              L     RB,PAGMEG               | last page in AS
 004A90 8930 0008            00008 42346    5709.              SLL   RB,L'PAGSGNM-L'PAGPGNM  | |
 004A94 0630                       42347    5710.              DECR  RB                      | |
1PAGESERV (PAGE00) (09:42) (22MAR04) Undefine a page                                                                        Page  249
0Current Usings:  (PAGCB,R6) (ASBPCB,R7) (PAGUDEF,R10) (@PAGE-72,R12)
0Loc    Object Code    Addr1 Addr2  Stmt Lv Lineno    Source Statement           (Hibal 5, Asmedit 3.3)  HLASM R4.0  2004/03/22 09.42
+___    ______ ____    _____ _____  ____ __ ______    ______ _________
0004A96 1913/4720 A2A8       04CFC 42349    5711.              IF    ((RS,GT,RB),OR,(RA,GT,RB)),PUDABORT
 004A9C 1923/4720 A2A8       04CFC 42372             +
 004AA2 1F12                       42381    5712.              SLR   RS,RA                   |
 004AA4 5E10 AB14            05568 42382    5713.              INCR  RS                      | number of segments
 004AA8 8920 000C            0000C 42385    5714.              SLL   RA,L'PAGPAGM            | 1st page address
                                   42386    5715.
                                   42387    5716.          Get locks
                                   42388    5717.
 004AAC AC04 C059      00001       42389    5718.              PAGNTRY SYNC,#PUDPSWM,#PUDFLGS
 USING  @LOCKS-72,R13
 004AB0 D203 D048 7018 00000 00018 42409             +
 004AB6 58F0 602C/0DEF       0002C 42415             +
 004ABC D200 C058 70B6 00000 000B6 42417             +
 004AC2 9260 70B6      000B6       42427             +
 004AC6 9180 7022      00022       42437             +
 004ACA 47E0 A07E            04AD2 42438             +
 004ACE 92A0 70B6      000B6       42453             +
 004AD2 5840 701C            0001C 42458    5719.              L     RJ,PCBPSTO              Check for seg table in core
 004AD6 B140 4000            00000 42459    5720.              LRA   RJ,@RJ                  |
 004ADA 4770 A2A8            04CFC 42460    5721.              IF    ~VAOK,PUDABORT          | seg table not in
 DROP   @LOCKS-72,R13              42474    5722.              PSET  @RESPT                  Bring in PT
 USING  @RESPT-72,R13
 004ADE D714 D048 D048 00000 00000 42494             +
 004AE4 5020 D048            00000 42495    5723.              PMOV  @PTVA,(RA)              |
 004AE8 5070 D04C            00004 42505    5724.              PMOV  @PTPCB,LA:ASBPCB        |
 004AEC                            42516    5725.              PMOV  @PTPSWM,#PUDPSWM        |
 004AEC D200 D050 C059 00008 00001 42520             +
 004AF2 58F0 AB18/0DEF       0556C 42521    5726.              ACALL RESPT                   |
 004AF8 9845 D054            0000C 42528    5727.              LM    RJ,RK,@PTPGTE           |
                                   42529    5728.
                                   42530    5729.          In this loop, RA is the page address to be undefined, and RS is
                                   42531    5730.          the number of consecutive pages to undefine. RJ and RK are
                                   42532    5731.          the addresses of the page/shadow page table entries.
                                   42533    5732.
 004AFC 1B88                       42534    5733.              CLEAR RM                      Preset return
 004AFE                            42538    5734.     PUDPTVAL BEGIN ,                       Current PT valid
 004AFE                            42543  1 5735.     PUDLOOP    LOOP  BEGIN                   Loop through virtual addrs
                                   42550  2 5736.
                                   42551  2 5737.              If the page table is not defined, quit this loop, returning
                                   42552  2 5738.              the address of the first page represented by this page table
                                   42553  2 5739.
 004AFE 1200/4780 A0B6       04B0A 42554  2 5740.                  IF    (RVR,NZ),BEGIN          Addr exception for PT
 004B04 1882                       42568  3 5741.                    LR    RM,RA                   | address of undef page
 004B06 47F0 A25A            04CAE 42569  3 5742.                    EXIT  PUDPTVAL                |
 004B0A                            42572  2 5743.                  END   ,                       OF Addr exception for PT
 USING  PGTE,R4                    42576  2 5744.                  WITH  (PGTE,RJ)
 USING  SPTE,R5                    42589  2 5745.                  WITH  (SPTE,RK)
 004B0A 9120 4003      00003       42602  2 5746.                  IF    (PGTFCOMM,AND,~PCBFGBL),BEGIN    Need global lock
 004B0E 47E0 A0DE            04B32 42614  2          +
 004B12 9180 70B6      000B6       42625  2          +
 004B16 4710 A0DE            04B32 42626  2          +
 004B1A 58F0 6018            00018 42631  3 5747.                    L     EPAR,PAGCASB
 004B1E 58F0 F020            00020 42632  3 5748.                    WITH  (ASB,EPAR),'L EPAR,ASBPAGB'
 USING  ASB,R15
1PAGESERV (PAGE00) (09:42) (22MAR04) Undefine a page                                                                        Page  250
0Current Usings:  (PGTE,R4) (SPTE,R5) (PAGCB,R6) (ASBPCB,R7) (PAGUDEF,R10) (@PAGE-72,R12) (@RESPT-72,R13)
0Loc    Object Code    Addr1 Addr2  Stmt Lv Lineno    Source Statement           (Hibal 5, Asmedit 3.3)  HLASM R4.0  2004/03/22 09.42
+___    ______ ____    _____ _____  ____ __ ______    ______ _________
0DROP   ASB,R15
 USING  COMM.ASBPCB,R15            42656  3 5749.                    WITH  (ASBPCB,EPAR),LABEL=COMM
 DROP   @RESPT-72,R13              42664  3 5750.                    LKOB  COMM.PCBLOCK
 USING  @LOCKS-72,R13
 004B22 D203 D048 F018 00000 00018 42683  3          +
 004B28 58F0 602C/0DEF       0002C 42689  3          +
 004B2E 9680 70B6      000B6       42691  3 5751.                    SET   PCBFGBL                 Global lock held
 DROP   COMM.ASBPCB,R15            42697  2 5752.                  END   ,                       OF Need global lock
 004B32                            42709  2 5753.     PUDACT       BEGIN ,                       Do appropriate undefine action
                                   42714  3 5754.
                                   42715  3 5755.                For undefined pages, return address of undefined page
                                   42716  3 5756.
 004B32 9180 4003      00003       42717  3 5757.                    IF    ~PGTFDEF,BEGIN
 004B36 4710 A0EC            04B40 42727  3          +
 004B3A 1882                       42732  4 5758.                      LR    RM,RA
 004B3C 47F0 A246            04C9A 42733  4 5759.                      EXIT  PUDLOOP
 004B40                            42736  3 5760.                    END   ,
                                   42740  3 5761.
                                   42741  3 5762.                  If the page is a page table page, skip it.  It will have to
                                   42742  3 5763.                become undefined through a SEGUDEF call.
                                   42743  3 5764.
 004B40 9110 4003      00003       42744  3 5765.                    IF    PGTFPGT,EXIT,PUDACT
 004B44 4710 A1EC            04C40 42756  3          +
                                   42762  3 5766.
                                   42763  3 5767.                If page is in main store, check for fixes, invalidate and free
                                   42764  3 5768.
 004B48 9104 4002      00002       42765  3 5769.     PUDAGAIN       IF    (~PGTFINV),BEGIN        Page valid
 004B4C 4710 A1C6            04C1A 42776  3          +
 004B50 5830 4000            00000 42781  4 5770.                      L     RB,PGAD                 Get frame addr
 004B54 8830 000C            0000C 42782  4 5771.                      SRL   RB,L'PAGPAGM            |
 004B58 8930 0005            00005 42783  4 5772.                      SLL   RB,PFTLOG               |
 004B5C 5E30 6044            00044 42784  4 5773.                      AL    RB,PAGPFTO              |
 USING  PFTE,R3                    42785  4 5774.                      WITH  (PFTE,RB),BEGIN         Frame table addr
                                   42799  5 5775.
                                   42800  5 5776.                    If page I/O is in progress, then mark the frame for release
                                   42801  5 5777.                    when the I/O completes
                                   42802  5 5778.
 004B60 9108 4003      00003       42803  5 5779.                        IF    PGTFIO,BEGIN            Page I/O in progress
 004B64 47E0 A176            04BCA 42813  5          +
 004B68 9610 301D      0001D       42818  6 5780.                          SET   PFTFREL                 Release frame @ I/O complete
 004B6C 9202 70B4      000B4       42824  6 5781.                          SET   PCBFREL                 We're waiting for release
                                   42830  6 5782.
                                   42831  6 5783.                      Put ourselves on the list waiting for this I/O to complete
                                   42832  6 5784.
 004B70 5830 3010            00010 42833  6 5785.                          L     RB,PFTIOCB
 004B74 1233/4770 A156       04BAA 42834  6 5786.                          IF    (RB,ZERO),'ABORT PAGUDEFWAIT'
 004B7A AC04 021B      0021B       42861  7          +
 USING  PZERO,R0
 004B7E 9680 021A      0021A       42867  7          +
 004B82 50F0 021C            0021C 42868  7          +
 004B86 58F0 0210            00210 42869  7          +
 004B8A 89F0 0010            00010 42870  7          +
 004B8E 88F0 0010            00010 42871  7          +
 004B92 41F0 F000            00000 42872  7          +
1PAGESERV (PAGE00) (09:42) (22MAR04) Undefine a page                                                                        Page  251
0Current Usings:  (PZERO,R0) (PFTE,R3) (PGTE,R4) (SPTE,R5) (PAGCB,R6) (ASBPCB,R7) (PAGUDEF,R10) (@PAGE-72,R12) (@LOCKS-72,R13)
0Loc    Object Code    Addr1 Addr2  Stmt Lv Lineno    Source Statement           (Hibal 5, Asmedit 3.3)  HLASM R4.0  2004/03/22 09.42
+___    ______ ____    _____ _____  ____ __ ______    ______ _________
0004B96 AEFF 0006            00006 42873  7          +
 004B9A D7C1C7E4C4C5C6E6           42874  6          +
 DROP   PZERO,R0
 DROP   PFTE,R3                    42887  6 5787.                          WITH  (PGDPAGE,RB)
 USING  PGDPAGE,R3
 004BAA 5890 3018            00018 42903  6 5788.                          L     RN,PGDPGWT              Get old head of chain
 004BAE 5070 3018            00018 42904  6 5789.                          PMOV  PGDPGWT,LA:ASBPCB        put ourselves there
 004BB2 5090 70A0            000A0 42915  6 5790.                          ST    RN,PCBWAIT                and point to old head
 DROP   @LOCKS-72,R13              42916  6 5791.                          PAGWT ,,LA:ASBPCB             -- Wait --
 USING  @PAGWAIT-72,R13
 004BB6 D70B D048 D048 00000 00000 42937  6          +
 004BBC 5070 D050            00008 42948  6          +
 004BC0 58F0 AB28/0DEF       0557C 42954  6          +
 004BC6 47F0 A0F4            04B48 42956  6 5792.                          B     PUDAGAIN
 DROP   PGDPAGE,R3                 42957  5 5793.                        END   ,                       OF Page I/O in progress
 USING  PFTE,R3
                                   42973  5 5794.
                                   42974  5 5795.                    Page I/O not in progress, release it if we can
                                   42975  5 5796.
 004BCA 4890 3018/1299       00018 42976  5 5797.                        IF    ('LTH RN,PFTFIX',NZ),BEGIN       Page is fixed
 004BD0 4780 A186            04BDA 42987  5          +
 004BD4 1882                       42992  6 5798.                          LR    RM,RA                   Addr of bad page
 004BD6 47F0 A246            04C9A 42993  6 5799.                          EXIT  PUDLOOP
 004BDA                            42996  5 5800.                        END   ,                       OF Page is fixed
                                   43000  5 5801.
                                   43001  5 5802.                    Invalidate page
                                   43002  5 5803.
 004BDA B190 4000            00000 43003  5 5804.                        LRA   RN,PGTE                 Invalidate page (PT real addr)
 004BDE 5490 AB2C            05580 43004  5 5805.                        N     RN,=A(PAGPAGM)          |
 004BE2 B221 0092                  43005  5 5806.                        IPTE  RN,RA                   |
                                   43006  5 5807.
 DROP   @PAGWAIT-72,R13            43007  5 5808.                        FRAMEREL LA:PFTE
 USING  @FRAMREL-72,R13
 004BE6 D707 D048 D048 00000 00000 43028  5          +
 004BEC 5030 D04C            00004 43039  5          +
 004BF0 58F0 AB30/0DEF       05584 43045  5          +
                                   43047  5 5809.
                                   43048  5 5810.                    One less valid page is one less short term fix on the page table.
                                   43049  5 5811.
 004BF6 18F9/88F0 000C       0000C 43050  5 5812.                        QUSFIX (RN)                   One unfix of page
 004BFC 89F0 0005            00005 43057  5          +
 004C00 5EF0 6044            00044 43058  5          +
 USING  PFTE,R15
 004C04 48E0 F01A/06E0       0001A 43073  6          +
 004C0A 59E0 AB34            05588 43078  6          +
 004C0E 47B0 A1C2            04C16 43085  6          +
 004C12 58E0 AB34            05588 43090  6          +
 004C16 40E0 F01A            0001A 43095  5          +
 DROP   PFTE,R15
 DROP   PFTE,R3                    43104  4 5813.                      END   ,                       OF Frame table addr
 004C1A                            43112  3 5814.                    END   ,                       OF Page is valid
1PAGESERV (PAGE00) (09:42) (22MAR04) Undefine a page                                                                        Page  252
0Current Usings:  (PGTE,R4) (SPTE,R5) (PAGCB,R6) (ASBPCB,R7) (PAGUDEF,R10) (@PAGE-72,R12) (@FRAMREL-72,R13)
0Loc    Object Code    Addr1 Addr2  Stmt Lv Lineno    Source Statement           (Hibal 5, Asmedit 3.3)  HLASM R4.0  2004/03/22 09.42
+___    ______ ____    _____ _____  ____ __ ______    ______ _________
0                                  43116  3 5815.
                                   43117  3 5816.                Release external frame if it's still there
                                   43118  3 5817.
 004C1A 9104 4003      00003       43119  3 5818.                    IF    PGTFXDEF,BEGIN
 004C1E 47E0 A1E0            04C34 43129  3          +
 DROP   @FRAMREL-72,R13            43134  4 5819.                      XPREL SPXSLOT
 USING  @XPREL-72,R13
 004C22 D70B D048 D048 00000 00000 43155  4          +
 004C28 D203 D048 5000 00000 00000 43160  4          +
 004C2E 58F0 AB38/0DEF       0558C 43166  4          +
 004C34                            43168  3 5820.                    END   ,
                                   43172  3 5821.
                                   43173  3 5822.                Reset page table entries
                                   43174  3 5823.
 004C34 D203 4000 AB3C 00000 05590 43175  3 5824.                    MVC   PGAD,=A(256*L'PGTFINV)  Clears flags too!
 004C3A                            43176  3 5825.                    CLEAR SPTE
 004C3A D707 5000 5000 00000 00000 43182  3          +
 004C40                            43183  2 5826.                  END   ,                       OF Do appropriate undefine act
                                   43187  2 5827.
                                   43188  2 5828.              Get the addresses of the page table entries, using a short cut
                                   43189  2 5829.              if it's in the same segment.
                                   43190  2 5830.
 004C40 5910 AB14            05568 43191  2 5831.                  IF    (RS,GT,1),BEGIN         More to come
 004C44 47D0 A242            04C96 43203  2          +
 004C48 5E20 AB1C            05570 43208  3 5832.                    AL    RA,=A(PAGPAGEL)         Is next in another segment?
 004C4C 1832                       43209  3 5833.                    LR    RB,RA                   |
 004C4E 5430 AB20            05574 43210  3 5834.                    N     RB,=A(PAGPGNM)          | (0 page num = new segment)
 004C52 4780 A20C            04C60 43211  3 5835.                    IF    NZ,BEGIN                Same segment
 004C56 4140 4004            00004 43222  4 5836.                      LA    RJ,PGTNXT               |
 004C5A 4150 5008            00008 43223  4 5837.                      LA    RK,SPTNXT               |
 004C5E 1B00                       43224  4 5838.                      CLEAR RVR                     | (no addr error on PT)
 004C60                            43228  3 5839.                    END   ,                       OF Same segment
 004C60 A210           04C60 04C54 43232  3 5840.                    ELSE  BEGIN                   Different segment
 004C60 47F0 A242            04C96 43237  3          +
 004C64 B130 4000            00000 43243  4 5841.                      LRA   RB,PGTE                 Unfix last PT
 DROP   @XPREL-72,R13              43244  4 5842.                      PSET  @QUFIX                  |
 USING  @QUFIX-72,R13
 004C68 D703 D048 D048 00000 00000 43264  4          +
 004C6E 5030 D048            00000 43265  4 5843.                      PMOV  @QUFRA,(RB)             |
 004C72 58F0 AB24/0DEF       05578 43275  4 5844.                      ACALL QUFIX                   |
                                   43282  4 5845.
 DROP   @QUFIX-72,R13              43283  4 5846.                      PSET  @RESPT                  Bring in PT
 USING  @RESPT-72,R13
 004C78 D714 D048 D048 00000 00000 43303  4          +
 004C7E 5020 D048            00000 43304  4 5847.                      PMOV  @PTVA,(RA)              |
 004C82 5070 D04C            00004 43314  4 5848.                      PMOV  @PTPCB,LA:ASBPCB        |
 004C86                            43325  4 5849.                      PMOV  @PTPSWM,#PUDPSWM        |
 004C86 D200 D050 C059 00008 00001 43329  4          +
 004C8C 58F0 AB18/0DEF       0556C 43330  4 5850.                      ACALL RESPT                   |
 004C92 9845 D054            0000C 43337  4 5851.                      LM    RJ,RK,@PTPGTE           | get page/shadow entry addrs
 004C96                            43338  3 5852.                    END   ,                       OF Different segment
 004C96                            43342  2 5853.                  END   ,                       OF More to come
 004C96 4610 A0AA            04AFE 43346  1 5854.                UNTIL (BCT,RS),END            OF Define pages
 DROP   SPTE,R5
1PAGESERV (PAGE00) (09:42) (22MAR04) Undefine a page                                                                        Page  253
0Current Usings:  (PAGCB,R6) (ASBPCB,R7) (PAGUDEF,R10) (@PAGE-72,R12) (@RESPT-72,R13)
0Loc    Object Code    Addr1 Addr2  Stmt Lv Lineno    Source Statement           (Hibal 5, Asmedit 3.3)  HLASM R4.0  2004/03/22 09.42
+___    ______ ____    _____ _____  ____ __ ______    ______ _________
0DROP   PGTE,R4
 004C9A B130 4000            00000 43366  1 5855.                LRA   RB,@RJ                  Unfix last PT
 DROP   @RESPT-72,R13              43367  1 5856.                PSET  @QUFIX                  |
 USING  @QUFIX-72,R13
 004C9E D703 D048 D048 00000 00000 43387  1          +
 004CA4 5030 D048            00000 43388  1 5857.                PMOV  @QUFRA,(RB)             |
 004CA8 58F0 AB24/0DEF       05578 43398  1 5858.                ACALL QUFIX                   |
 004CAE                            43405    5859.              END   ,                       OF Current PT valid
 004CAE 4310 70B6            000B6 43409    5860.              PAGXIT SYNC,#PUDPSWM,#PUDFLGS,WR=RS
 004CB2 D200 70B6 C058 000B6 00000 43413             +
 004CB8 4210 C058            00000 43414             +
 004CBC 9180 C058      00000       43424             +
 004CC0 47E0 A284            04CD8 43425             +
 004CC4 5850 6018            00018 43430  1          +
 USING  ASB,R5
 004CC8 5850 5020            00020 43446  1          +
 DROP   ASB,R5
 DROP   ASBPCB,R7
 USING  ASBPCB,R5
 DROP   @QUFIX-72,R13
 USING  @LOCKS-72,R13
 004CCC D203 D048 5018 00000 00018 43499  2          +
 004CD2 58F0 6030/0DEF       00030 43505             +
 USING  ASBPCB,R7
 DROP   ASBPCB,R5
 004CD8 9140 C058      00000       43537             +
 004CDC 47E0 A298            04CEC 43538             +
 004CE0 D203 D048 7018 00000 00018 43552  1          +
 004CE6 58F0 6030/0DEF       00030 43558             +
 004CEC 8000 C059      00001       43564             +
 004CF0 1808                       43565    5861.              LR    RVR,RM                  RVR = completion code
 004CF2 981F C008            00008 43566    5862.              PEND  ,
 DROP   ASBPCB,R7
 DROP   PAGCB,R6
 DROP   @PAGE-72,R12
 DROP   PAGUDEF,R10
 004CF6 9680 C000/0B0E 00000       43591             +
 DROP   @LOCKS-72,R13
0004CFC AC04 021B      0021B       43601    5864.     PUDABORT ABORT PAGUDEF
 USING  PZERO,R0
 004D00 9680 021A      0021A       43620             +
 004D04 50F0 021C            0021C 43621             +
 004D08 58F0 0210            00210 43622             +
 004D0C 89F0 0010            00010 43623             +
 004D10 88F0 0010            00010 43624             +
 004D14 41F0 F000            00000 43625             +
 004D18 AEFF 0006            00006 43626             +
 004D1C D7C1C7E4C4C5C640           43627             +
 DROP   PZERO,R0
                                   43636    5865.     *NEST,2
1PAGESERV (PAGE00) (09:42) (22MAR04) Define a segment                                                                       Page  254
0Loc    Object Code    Addr1 Addr2  Stmt Lv Lineno    Source Statement           (Hibal 5, Asmedit 3.3)  HLASM R4.0  2004/03/22 09.42
+___    ______ ____    _____ _____  ____ __ ______    ______ _________
0                                  43638    5867.
                                   43639    5868.
                                   43640    5869.       Define a segment
                                   43641    5870.
                                   43642    5871.        Input - @PAGSEGD
                                   43643    5872.                For global definitions
                                   43644    5873.                  The common ASB is obtained from the PAGCB
                                   43645    5874.                For local definitions
                                   43646    5875.                  PZCURASB defines the AS which is in control and
                                   43647    5876.                  which will have this page defined
                                   43648    5877.
                                   43649    5878.       Output - NONE
                                   43650    5879.
                                   43651    5880.

0000000                00000 00003 43652    5881.     #PAGSEGD RECORD BEGIN
 000000                            43660  1 5882.     #SDFLGS    DS    X                       Flags for locks held on entry
 000001                            43661  1 5883.     #SDPSWM    DS    X                       PSW mask for disabling
 000002 00                         43662  1 5884.     #SDACFLG   FLAG  ,
 #SDACFLG.#SDFROOM 80 ONES         43666  1 5885.                FLAG  #SDFROOM                Call make-room routine
 000003                00003 00003 43671    5886.              END   ,
0004D2C                            43681    5888.     PAGSEGD  PROC  @PAGSEGD,#PAGSEGD,SCOPE=GLOBAL   Define a segment
 004D2C D7C1C7E2C5C7C440           43687             +
 004D34 0010/0008                  43688             +
 004D38 900F D004/18AF       00004 43690             +
 USING  PAGSEGD,R10
 004D3E 50D0 C000/18CD       00000 43705             +
 004D44 9680 C000      00000       43707             +
 USING  @PAGSEGD-72,R12
 AUSING (#PAGSEGD,@PAGSEGD+16)
 004D48 41D0 C060            00060 43726             +
 004D4C 9200 C05A      00002       43727    5889.              CLEAR #SDACFLG
 004D50 5860 0200            00200 43734    5890.              PAGAD RPAG
 USING  PZERO,R0
 DROP   PZERO,R0
 USING  MAT,R6
 004D54 5860 600C            0000C 43768             +
 DROP   MAT,R6
 USING  PAGCB,R6
 USING  PZERO,R0                   43790    5891.              USING PZERO,R0                Address of current PCB
 004D58 5870 0208            00208 43799    5892.              L     RPCB,PZCURASB           |
 DROP   PZERO,R0                   43800    5893.              DROP  R0                      |
 004D5C 5870 7020            00020 43808    5894.              WITH  (ASB,RPCB),'L RPCB,ASBPAGB'
 USING  ASB,R7
 DROP   ASB,R7
 USING  ASBPCB,R7                  43832    5895.              WITH  (ASBPCB,RPCB)           |
 004D60 18B7                       43845    5896.              LR    BRR,RPCB                PCB that owns the frames
 USING  OWN.ASBPCB,R11             43846    5897.              WITH  (ASBPCB,BRR),LABEL=OWN  |
 004D62 AC04 C059      00001       43854    5898.              PAGNTRY SYNC,#SDPSWM,#SDFLGS  Synchronous entry
 USING  @LOCKS-72,R13
 004D66 D203 D048 7018 00000 00018 43874             +
 004D6C 58F0 602C/0DEF       0002C 43880             +
 004D72 D200 C058 70B6 00000 000B6 43882             +
 004D78 9260 70B6      000B6       43892             +
1PAGESERV (PAGE00) (09:42) (22MAR04) Define a segment                                                                       Page  255
0Current Usings:  (PAGCB,R6) (ASBPCB,R7) (PAGSEGD,R10) (OWN.ASBPCB,R11) (@PAGSEGD-72,R12) (@LOCKS-72,R13)
0Loc    Object Code    Addr1 Addr2  Stmt Lv Lineno    Source Statement           (Hibal 5, Asmedit 3.3)  HLASM R4.0  2004/03/22 09.42
+___    ______ ____    _____ _____  ____ __ ______    ______ _________
0004D7C 9180 7022      00022       43902             +
 004D80 47E0 A050            04D88 43903             +
 004D84 92A0 70B6      000B6       43918             +
 004D88 9180 C051      00009       43923    5899.              IF    (@SDFGLOB,AND,~PCBFGBL),BEGIN    Get global lock
 004D8C 47E0 A078            04DB0 43935             +
 004D90 9180 70B6      000B6       43946             +
 004D94 4710 A078            04DB0 43947             +
 004D98 5850 6018            00018 43952  1 5900.                L     RK,PAGCASB
 004D9C 58B0 5020            00020 43953  1 5901.                WITH  (ASB,RK),'L BRR,ASBPAGB'
 USING  ASB,R5
 DROP   ASB,R5
 004DA0                            43977  1 5902.                LKOB  OWN.PCBLOCK
 004DA0 D203 D048 B018 00000 00018 43986  1          +
 004DA6 58F0 602C/0DEF       0002C 43992  1          +
 004DAC 9680 70B6      000B6       43994  1 5903.                SET   PCBFGBL
 004DB0                            44000    5904.              END   ,                       OF Get global lock
 004DB0 5820 C048            00000 44004    5905.              L     RA,@SDADDR              Segment/number of segments
 004DB4 5810 C04C            00004 44005    5906.              L     RS,@SDLEN               |
 004DB8 1E12                       44006    5907.              ALR   RS,RA                   |
 004DBA 0610                       44007    5908.              DECR  RS                      |
 004DBC 5410 A85C            05594 44009    5909.              N     RS,=A(PAGSGNM)          |
 004DC0 5420 A85C            05594 44010    5910.              N     RA,=A(PAGSGNM)          |
 004DC4 5830 60B8            000B8 44011    5911.              L     RB,PAGMEG               |
 004DC8 0630                       44012    5912.              DECR  RB                      | 0..n
 004DCA 8810 0014            00014 44014    5913.              SRL   RS,L'PAGSGNM            | last segment number
 004DCE 1913/47D0 A09E       04DD6 44015    5914.              CEIL  RS,RB                   | |
 004DD4 1813                       44020             +
 004DD6 8820 0014            00014 44021    5915.              SRL   RA,L'PAGSGNM            | 1st segment number
 004DDA 1921/47D0 A0AA       04DE2 44022    5916.              CEIL  RA,RS                   | | no bigger than last
 004DE0 1821                       44027             +
 004DE2 1F12                       44028    5917.              SLR   RS,RA                   |
 004DE4 5E10 A830            05568 44029    5918.              INCR  RS                      | number of segments
 004DE8 5E30 A830            05568 44032    5919.              INCR  RB                      Shadow segment entry
 004DEC 8930 0002            00002 44035    5920.              SLL   RB,SGTLOG               | shadow start
 004DF0 1842                       44036    5921.              LR    RJ,RA                   | offset in shadow
 004DF2 8940 0003            00003 44037    5922.              SLL   RJ,SSTLOG               | |
 004DF6 1E34                       44038    5923.              ALR   RB,RJ                   |
 004DF8 5840 701C            0001C 44039    5924.              L     RJ,PCBPSTO              |
 004DFC 1E34                       44040    5925.              ALR   RB,RJ                   |
 004DFE 8920 0002            00002 44041    5926.              SLL   RA,SGTLOG               Segment entry
 004E02 1E24                       44042    5927.              ALR   RA,RJ                   |
 004E04 B140 4000            00000 44043    5928.              LRA   RJ,@RJ                  Check for seg table in core
 004E08 4770 A39A            050D2 44044    5929.              IF    ~VAOK,SDABORT           | seg table not in
 004E0C                            44058    5930.              LOOP  BEGIN                   Mark all segments as defined
 USING  SGTE,R2                    44064  1 5931.                WITH  (SGTE,RA)
 USING  SSTE,R3                    44077  1 5932.                WITH  (SSTE,RB)
                                   44090  1 5933.   C            IF    (SSTFDEF,AND,((@SDFGLOB,AND,~SGTFCOMM),OR,
 004E0C 9180 3006      00006              1 5934.                      (~@SDFGLOB,AND,SGTFCOMM))),SDABORT
 004E10 47E0 A0FC            04E34 44102  1          +
 004E14 9180 C051      00009       44117  1          +
 004E18 47E0 A0EC            04E24 44118  1          +
 004E1C 9110 2003      00003       44129  1          +
 004E20 47E0 A39A            050D2 44132  1          +
 004E24 9180 C051      00009       44143  1          +
1PAGESERV (PAGE00) (09:42) (22MAR04) Define a segment                                                                       Page  256
0Current Usings:  (SGTE,R2) (SSTE,R3) (PAGCB,R6) (ASBPCB,R7) (PAGSEGD,R10) (OWN.ASBPCB,R11) (@PAGSEGD-72,R12) (@LOCKS-72,R13)
0Loc    Object Code    Addr1 Addr2  Stmt Lv Lineno    Source Statement           (Hibal 5, Asmedit 3.3)  HLASM R4.0  2004/03/22 09.42
+___    ______ ____    _____ _____  ____ __ ______    ______ _________
0004E28 4710 A0FC            04E34 44144  1          +
 004E2C 9110 2003      00003       44155  1          +
 004E30 4710 A39A            050D2 44158  1          +
                                   44164  1 5935.
                                   44165  1 5936.            Define non-defined segments
                                   44166  1 5937.
 004E34 9180 3006      00006       44167  1 5938.                IF    ~SSTFDEF,BEGIN
 004E38 4710 A32E            05066 44177  1          +
 004E3C 4340 70B6            000B6 44182  2 5939.                  PAGXIT SYNC,#SDPSWM,#SDFLGS,WR=RJ ,CPCB=BRR
 004E40 D200 70B6 C058 000B6 00000 44186  2          +
 004E46 4240 C058            00000 44187  2          +
 004E4A 9180 C058      00000       44197  2          +
 004E4E 47E0 A12E            04E66 44198  2          +
 004E52 5850 6018            00018 44203  3          +
 USING  ASB,R5
 004E56 5850 5020            00020 44219  3          +
 DROP   ASB,R5
 DROP   ASBPCB,R7
 USING  ASBPCB,R5
 004E5A D203 D048 5018 00000 00018 44262  4          +
 004E60 58F0 6030/0DEF       00030 44268  2          +
 USING  ASBPCB,R7
 DROP   ASBPCB,R5
 004E66 9140 C058      00000       44300  2          +
 004E6A 47E0 A142            04E7A 44301  2          +
 004E6E D203 D048 7018 00000 00018 44315  3          +
 004E74 58F0 6030/0DEF       00030 44321  2          +
 004E7A 8000 C059      00001       44327  2          +
 004E7E 9180 C051      00009       44328  2 5940.                  IF    ~@SDFGLOB,BEGIN
 004E82 4710 A16C            04EA4 44338  2          +
 DROP   @LOCKS-72,R13              44343  3 5941.                    VMGET LH:=Y(L'PAGTABLE),LOC=LOCSYS,PAGE=YES
 USING  @VMGET-72,R13
 004E86 D70A D048 D048 00000 00000 44370  3          +
 004E8C 4800 A884            055BC 44377  3          +
 004E90 5000 D048            00000 44382  3          +
 004E94 D201 D050 A886 00008 055BE 44383  3          +
 004E9A 9680 D052      0000A       44389  3          +
 004E9E 58F0 A860/0DEF       05598 44392  3          +
 004EA4                            44394  2 5942.                  END   ,
 004EA4 A170           04EA4 04E84 44398  2 5943.                  ELSE  BEGIN
 004EA4 47F0 A18E            04EC6 44403  2          +
 004EA8                            44409  3 5944.                    VMGET LH:=Y(L'PAGTABLE),LOC=GLOBHI,FIX=YES,PAGE=YES
 004EA8 D70A D048 D048 00000 00000 44426  3          +
 004EAE 4800 A884            055BC 44433  3          +
 004EB2 5000 D048            00000 44438  3          +
 004EB6 D201 D050 A888 00008 055C0 44439  3          +
 004EBC 9680 D052      0000A       44445  3          +
 004EC0 58F0 A860/0DEF       05598 44448  3          +
 004EC6                            44450  2 5945.                  END   ,
 004EC6 1840                       44454  2 5946.                  LR    RJ,RVR                  |
 004EC8 5440 A848            05580 44455  2 5947.                  N     RJ,=A(PAGPAGM)          |
 004ECC AC04 C059      00001       44456  2 5948.                  PAGNTRY SYNC,#SDPSWM,#SDFLGS  |
 DROP   @VMGET-72,R13
 USING  @LOCKS-72,R13
1PAGESERV (PAGE00) (09:42) (22MAR04) Define a segment                                                                       Page  257
0Current Usings:  (SGTE,R2) (SSTE,R3) (PAGCB,R6) (ASBPCB,R7) (PAGSEGD,R10) (OWN.ASBPCB,R11) (@PAGSEGD-72,R12) (@LOCKS-72,R13)
0Loc    Object Code    Addr1 Addr2  Stmt Lv Lineno    Source Statement           (Hibal 5, Asmedit 3.3)  HLASM R4.0  2004/03/22 09.42
+___    ______ ____    _____ _____  ____ __ ______    ______ _________
0004ED0 D203 D048 7018 00000 00018 44479  2          +
 004ED6 58F0 602C/0DEF       0002C 44485  2          +
 004EDC D200 C058 70B6 00000 000B6 44487  2          +
 004EE2 9260 70B6      000B6       44497  2          +
 004EE6 9180 7022      00022       44507  2          +
 004EEA 47E0 A1BA            04EF2 44508  2          +
 004EEE 92A0 70B6      000B6       44523  2          +
 004EF2 9180 C051      00009       44528  2 5949.                  IF    (@SDFGLOB,AND,~PCBFGBL),BEGIN    Get global lock
 004EF6 47E0 A1DA            04F12 44540  2          +
 004EFA 9180 70B6      000B6       44551  2          +
 004EFE 4710 A1DA            04F12 44552  2          +
 004F02                            44557  3 5950.                    LKOB  OWN.PCBLOCK
 004F02 D203 D048 B018 00000 00018 44566  3          +
 004F08 58F0 602C/0DEF       0002C 44572  3          +
 004F0E 9680 70B6      000B6       44574  3 5951.                    SET   PCBFGBL
 004F12                            44580  2 5952.                  END   ,                       OF Get global lock
 004F12 9180 C051      00009       44584  2 5953.                  IF    ~@SDFGLOB,BEGIN         Local page table
 004F16 4710 A28C            04FC4 44594  2          +
                                   44599  3 5954.
                                   44600  3 5955.
                                   44601  3 5956.         For local page table, we must allocate an external frame, a
                                   44602  3 5957.       real frame, and set the page table's virtual address as valid.
                                   44603  3 5958.
                                          3
0DROP   @LOCKS-72,R13              44604  3 5959.                    XPGET LA:OWN.ASBPCB
 USING  @XPGET-72,R13
 004F1A D710 D048 D048 00000 00000 44625  3          +
 004F20 50B0 D04C            00004 44636  3          +
 004F24 58F0 A864/0DEF       0559C 44642  3          +
 004F2A 1890                       44644  3 5960.                    LR    RN,RVR                  External frame address
 DROP   @XPGET-72,R13              44645  3 5961.                    FRAMEGET (RPCB),LA:OWN.ASBPCB,TYPE=PT
 USING  @FRAMGET-72,R13
 004F2C D718 D048 D048 00000 00000 44666  3          +
 004F32 5070 D048            00000 44676  3          +
 004F36 4100 0001            00001 44688  3          +
 004F3A 5000 D050            00008 44693  3          +
 004F3E 9202 D058      00010       44699  3          +
 004F42 50B0 D04C/18FB       00004 44710  3          +
 USING  ASBPCB,R15
 004F48 4100 F03C            0003C 44742  4          +
 004F4C 5000 D054            0000C 44747  3          +
 DROP   ASBPCB,R15
 004F50 58F0 A868/0DEF       055A0 44761  3          +
 004F56 9140 D060      00018       44763  3 5962.                    IF    @FRAROOM,'SET #SDFROOM' Make note to call make-room
 004F5A 47E0 A22A            04F62 44773  3          +
 004F5E 9680 C05A      00002       44784  3          +
 004F62 1850                       44789  3 5963.                    LR       RK,RVR               Frame addr
 DROP   @FRAMGET-72,R13            44790  3 5964.                    PSET  @RESPT                  Bring in PT for this VA
 USING  @RESPT-72,R13
 004F64 D714 D048 D048 00000 00000 44810  3          +
 004F6A 5040 D048            00000 44811  3 5965.                    PMOV  @PTVA,(RJ)              |
 004F6E 5070 D04C            00004 44821  3 5966.                    PMOV  @PTPCB,LA:ASBPCB        |
 004F72                            44832  3 5967.                    PMOV  @PTPSWM,#SDPSWM         |
1PAGESERV (PAGE00) (09:42) (22MAR04) Define a segment                                                                       Page  258
0Current Usings:  (SGTE,R2) (SSTE,R3) (PAGCB,R6) (ASBPCB,R7) (PAGSEGD,R10) (OWN.ASBPCB,R11) (@PAGSEGD-72,R12) (@RESPT-72,R13)
0Loc    Object Code    Addr1 Addr2  Stmt Lv Lineno    Source Statement           (Hibal 5, Asmedit 3.3)  HLASM R4.0  2004/03/22 09.42
+___    ______ ____    _____ _____  ____ __ ______    ______ _________
0004F72 D200 D050 C059 00008 00001 44836  3          +
 004F78 58F0 A834/0DEF       0556C 44837  3 5968.                    ACALL RESPT
 004F7E 1200/4770 A39A       050D2 44844  3 5969.                    IF    (RVR,NZ),SDABORT
 004F84 5880 D058            00010 44861  3 5970.                    L     RM,@PTSPTE
 USING  SPTE,R8                    44862  3 5971.                    WITH  (SPTE,RM),BEGIN
 004F88 5090 8000            00000 44876  4 5972.                      ST    RN,SPXSLOT              Save external address
 DROP   SPTE,R8                    44877  3 5973.                    END   ,
 004F8C 5880 D054            0000C 44885  3 5974.                    L     RM,@PTPGTE
 USING  PGTE,R8                    44886  3 5975.                    WITH  (PGTE,RM),BEGIN
 004F90 5800 8000            00000 44900  4 5976.                      L     RVR,PGAD                Page no longer invalid
 004F94 5400 A86C            055A4 44901  4 5977.                      N     RVR,=A(PGTAIMSK)        |
 004F98 1605                       44902  4 5978.                      OR    RVR,RK                  | this is RA + flags
 004F9A 5000 8000            00000 44903  4 5979.                      ST    RVR,PGAD                |
 004F9E 9644 8003      00003       44904  4 5980.                      SET   PGTFREF+PGTFXDEF        | now a referenced page
 DROP   PGTE,R8                    44913  3 5981.                    END   ,                       OF Page table entry addr
                                   44921  3 5982.
                                   44922  3 5983.                One more short term fix for page table that maps this VA
                                   44923  3 5984.
 004FA2 B150 8000            00000 44924  3 5985.                    LRA   RK,@RM                  Real addr of PT
 004FA6 18F5/88F0 000C       0000C 44925  3 5986.                    QSFIX (RK)                    |
 004FAC 89F0 0005            00005 44932  3          +
 004FB0 5EF0 6044            00044 44933  3          +
 USING  PFTE,R15
 004FB4 41E0 0001            00001 44951  4          +
 004FB8 4AE0 F01A            0001A 44952  4          +
 004FBC 40E0 F01A            0001A 44953  3          +
 DROP   PFTE,R15
 004FC0 9889 D054            0000C 44962  3 5987.                    LM    RM,RN,@PTPGTE
 004FC4                            44963  2 5988.                  END   ,                       OF Local page table
 004FC4 A290           04FC4 04F18 44967  2 5989.                  ELSE  BEGIN                   Global page table
 004FC4 47F0 A2B0            04FE8 44972  2          +
                                   44978  3 5990.
                                   44979  3 5991.                Get page table entries for a global page table
                                   44980  3 5992.
 DROP   @RESPT-72,R13              44981  3 5993.                    VIRTABL (RJ),(RPCB)
 USING  @VIRTABL-72,R13
 004FC8 D71F D048 D048 00000 00000 45002  3          +
 004FCE 5040 D048            00000 45012  3          +
 004FD2 5070 D04C            00004 45022  3          +
 004FD6 58F0 A870/0DEF       055A8 45028  3          +
 004FDC 9500 D050      00008       45030  3 5994.                    IF    ~@VPFOK,SDABORT
 004FE0 4770 A39A            050D2 45042  3          +
 004FE4 9889 D05C            00014 45048  3 5995.                    LM    RM,RN,@VPPGTE
 004FE8                            45049  2 5996.                  END   ,                       OF Global page table
                                   45053  2 5997.
                                   45054  2 5998.
                                   45055  2 5999.         For both global and local page tables the external pages
                                   45056  2 6000.       addresses must be set, and it must be indicated that
                                   45057  2 6001.       the virtual addresses of the page table is for a page table.
                                   45058  2 6002.         Then the page table is initialized to all undefined pages.
                                   45059  2 6003.
                                          2
0USING  PGTE,R8                    45060  2 6004.                  WITH  (PGTE,RM)
1PAGESERV (PAGE00) (09:42) (22MAR04) Define a segment                                                                       Page  259
0Current Usings:  (SGTE,R2) (SSTE,R3) (PAGCB,R6) (ASBPCB,R7) (PGTE,R8) (SPTE,R9) (PAGSEGD,R10) (OWN.ASBPCB,R11) (@PAGSEGD-72,R12) (@VIRTABL-72,R13)
0Loc    Object Code    Addr1 Addr2  Stmt Lv Lineno    Source Statement           (Hibal 5, Asmedit 3.3)  HLASM R4.0  2004/03/22 09.42
+___    ______ ____    _____ _____  ____ __ ______    ______ _________
0USING  SPTE,R9                    45073  2 6005.                  WITH  (SPTE,RN)
                                   45086  2 6006.
                                   45087  2 6007.              Move in matching fields from shadow page to shadow segment tables
                                   45088  2 6008.
 004FE8 9610 8003      00003       45089  2 6009.                  SET   PGTFPGT
 004FEC D203 3000 9000 00000 00000 45095  2 6010.                  MVC   SSXSLOT,SPXSLOT
 004FF2 D200 3004 9005 00004 00005 45096  2 6011.                  MVC   SSKEY,SPKEY
                                   45097  2 6012.
                                   45098  2 6013.              Init page table and put real address in segment table
                                   45099  2 6014.
 DROP   @VIRTABL-72,R13            45100  2 6015.                  PSET  @PAGPGIN                Do init
 USING  @PAGPGIN-72,R13
 004FF8 D703 D048 D048 00000 00000 45120  2          +
 004FFE 5040 D048            00000 45121  2 6016.                  PMOV  @PIVA,(RJ)              |
 005002 58F0 A874/0DEF       055AC 45131  2 6017.                  ACALL PAGPGINI                |
 005008 B150 4000            00000 45138  2 6018.                  LRA   RK,@RJ                  Set seg table address
 00500C 5650 A878            055B0 45139  2 6019.                  O     RK,=A((256/16)-1)       | + full length
 005010 5050 2000            00000 45140  2 6020.                  ST    RK,SGTAD                |
 005014 9180 C051      00009       45141  2 6021.                  IF    @SDFGLOB,BEGIN          Global/common segment
 005018 47E0 A2EC            05024 45151  2          +
 00501C 9610 2003      00003       45156  3 6022.                    SET   SGTFCOMM
 005020 9640 3006      00006       45162  3 6023.                    SET   SSTFCOMM
 005024                            45168  2 6024.                  END   ,                       OF Global/common segment
 005024 9680 3006      00006       45172  2 6025.                  SET   SSTFDEF                 Defined segment
                                   45178  2 6026.
                                   45179  2 6027.              Indicate that this is a page table in the frame table
                                   45180  2 6028.
 005028 8850 000C            0000C 45181  2 6029.                  SRL   RK,L'PAGPAGM            Compute page frame entry addr
 00502C 8950 0005            00005 45182  2 6030.                  SLL   RK,PFTLOG               |
 005030 5E50 6044            00044 45183  2 6031.                  AL    RK,PAGPFTO              |
 USING  PFTE,R5                    45184  2 6032.                  WITH  (PFTE,RK),BEGIN         |
 005034 9680 501D      0001D       45198  3 6033.                    SET   PFTFPGT                 It's a page table
 005038 5040 5008            00008 45204  3 6034.                    ST    RJ,PFTVA                Set the virtual addr of frame
 00503C 18F2                       45205  3 6035.                    LR    EPAR,RA                 Convert seg offset to seg #
 00503E 5FF0 701C            0001C 45206  3 6036.                    SL    EPAR,PCBPSTO            |
 005042 88F0 0002            00002 45207  3 6037.                    SRL   EPAR,SGTLOG             |
 005046 40F0 5014            00014 45208  3 6038.                    STH   EPAR,PFTSEG             |
                                   45209  3 6039.
                                   45210  3 6040.                Unfix page table for local segment
                                   45211  3 6041.
 00504A 9180 C051      00009       45212  3 6042.                    IF    ~@SDFGLOB,BEGIN         Local segment
 00504E 4710 A32E            05066 45222  3          +
 005052 B150 8000            00000 45227  4 6043.                      LRA   RK,PGTE                 Unfix page table for this VA
 DROP   @PAGPGIN-72,R13            45228  4 6044.                      PSET  @QUFIX                  |
 USING  @QUFIX-72,R13
 005056 D703 D048 D048 00000 00000 45248  4          +
 00505C 5050 D048            00000 45249  4 6045.                      PMOV  @QUFRA,(RK)             |
 005060 58F0 A840/0DEF       05578 45259  4 6046.                      ACALL QUFIX                   |
 005066                            45266  3 6047.                    END   ,                       OF Local segment
 DROP   PFTE,R5                    45270  2 6048.                  END   ,                       OF PFTE addr
 DROP   SPTE,R9                    45278  1 6049.                END   ,                       OF Define undefined
 DROP   PGTE,R8
 005066 D200 3007 C050 00007 00008 45292  1 6050.                MVC   SSINIT,@SDHASH          Set hash byte for segment
 00506C 4120 2004            00004 45293  1 6051.                LA    RA,SGTNXT               Next segment table entry
1PAGESERV (PAGE00) (09:42) (22MAR04) Define a segment                                                                       Page  260
0Current Usings:  (SGTE,R2) (SSTE,R3) (PAGCB,R6) (ASBPCB,R7) (PAGSEGD,R10) (OWN.ASBPCB,R11) (@PAGSEGD-72,R12) (@QUFIX-72,R13)
0Loc    Object Code    Addr1 Addr2  Stmt Lv Lineno    Source Statement           (Hibal 5, Asmedit 3.3)  HLASM R4.0  2004/03/22 09.42
+___    ______ ____    _____ _____  ____ __ ______    ______ _________
0005070 4130 3008            00008 45294  1 6052.                LA    RB,SSTNXT               | and shadow
 005074 4610 A0D4            04E0C 45295    6053.              UNTIL (BCT,RS),END            OF Mark all segs as defined
 DROP   SSTE,R3
 DROP   SGTE,R2
 005078 4310 70B6            000B6 45315    6054.              PAGXIT SYNC,#SDPSWM,#SDFLGS,WR=RS
 00507C D200 70B6 C058 000B6 00000 45319             +
 005082 4210 C058            00000 45320             +
 005086 9180 C058      00000       45330             +
 00508A 47E0 A36A            050A2 45331             +
 00508E 5850 6018            00018 45336  1          +
 USING  ASB,R5
 005092 5850 5020            00020 45352  1          +
 DROP   ASB,R5
 DROP   ASBPCB,R7
 USING  ASBPCB,R5
 DROP   @QUFIX-72,R13
 USING  @LOCKS-72,R13
 005096 D203 D048 5018 00000 00018 45405  2          +
 00509C 58F0 6030/0DEF       00030 45411             +
 USING  ASBPCB,R7
 DROP   ASBPCB,R5
 0050A2 9140 C058      00000       45443             +
 0050A6 47E0 A37E            050B6 45444             +
 0050AA D203 D048 7018 00000 00018 45458  1          +
 0050B0 58F0 6030/0DEF       00030 45464             +
 0050B6 8000 C059      00001       45470             +
                                   45471    6055.
                                   45472    6056.          If we need to, call the make-room routine when all locks are freed
                                   45473    6057.
 0050BA 9180 C05A      00002       45474    6058.              IF    #SDFROOM,BEGIN
 0050BE 47E0 A390            050C8 45484             +
 0050C2 58F0 A87C/0DEF       055B4 45489  1 6059.                ACALL MAKEROOM
 0050C8                            45496    6060.              END   ,
 0050C8 981F C008            00008 45500    6061.              PEND  ,
 DROP   OWN.ASBPCB,R11
 DROP   ASBPCB,R7
 DROP   PAGCB,R6
 DROP   @PAGSEGD-72,R12
 DROP   PAGSEGD,R10
 0050CC 9680 C000/0B0E 00000       45533             +
 DROP   @LOCKS-72,R13
 0050D2 AC04 021B      0021B       45542    6062.     SDABORT  ABORT PAGSEGD                 Seg define error
 USING  PZERO,R0
 0050D6 9680 021A      0021A       45561             +
 0050DA 50F0 021C            0021C 45562             +
 0050DE 58F0 0210            00210 45563             +
 0050E2 89F0 0010            00010 45564             +
 0050E6 88F0 0010            00010 45565             +
 0050EA 41F0 F000            00000 45566             +
 0050EE AEFF 0006            00006 45567             +
 0050F2 D7C1C7E2C5C7C440           45568             +
 DROP   PZERO,R0
1PAGESERV (PAGE00) (09:42) (22MAR04) Un-Reference a page                                                                    Page  261
0Loc    Object Code    Addr1 Addr2  Stmt Lv Lineno    Source Statement           (Hibal 5, Asmedit 3.3)  HLASM R4.0  2004/03/22 09.42
+___    ______ ____    _____ _____  ____ __ ______    ______ _________
0                                  45578    6064.     *NEST,1
                                   45579    6065.
                                   45580    6066.
                                   45581    6067.       Un-Reference a page
                                   45582    6068.
                                   45583    6069.        Input - @PAGE
                                   45584    6070.
                                   45585    6071.       Output - RVR =  0  Range of pages is now un-referenced
                                   45586    6072.                RVR <> 0  At least one page was undefined, had a
                                   45587    6073.                          long-term fix on it, or did not match the
                                   45588    6074.                          Local/Global flag of the ASB.
                                   45589    6075.                            In this case RVR contains the address of
                                   45590    6076.                          the page which could not be unreferenced.
                                   45591    6077.                          The rest of the pages in the range are
                                   45592    6078.                          ignored.
                                   45593    6079.
                                   45594    6080.

0000000                00000 00002 45596    6082.     #PAGUREF RECORD BEGIN
 000000                            45604  1 6083.     #PURFLGS   DS    X                       Flags
 000001                            45605  1 6084.     #PURPSWM   DS    X                       PSW mask for diabling
 000002                00002 00002 45606    6085.              END   ,
0005102                            45616    6087.     PAGUREF  PROC  @PAGE,#PAGUREF,SCOPE=GLOBAL
 005102 D7C1C7E4D9C5C640           45622             +
 00510A 0010/0008                  45623             +
 00510E 900F D004/18AF       00004 45625             +
 USING  PAGUREF,R10
 005114 50D0 C000/18CD       00000 45640             +
 00511A 9680 C000      00000       45642             +
 USING  @PAGE-72,R12
 AUSING (#PAGUREF,@PAGE+16)
 00511E 41D0 C060            00060 45661             +
 005122 5860 0200            00200 45662    6088.              PAGAD RPAG
 USING  PZERO,R0
 DROP   PZERO,R0
 USING  MAT,R6
 005126 5860 600C            0000C 45696             +
 DROP   MAT,R6
 USING  PAGCB,R6
 USING  PZERO,R0                   45718    6089.              USING PZERO,R0                Address of current PCB
 00512A 5870 0208            00208 45727    6090.              L     RPCB,PZCURASB           |
 DROP   PZERO,R0                   45728    6091.              DROP  R0                      |
 00512E 5870 7020            00020 45736    6092.              WITH  (ASB,RPCB),'L RPCB,ASBPAGB'
 USING  ASB,R7
 DROP   ASB,R7
 USING  ASBPCB,R7                  45760    6093.              WITH  (ASBPCB,RPCB)           |
 005132 5820 C048            00000 45773    6094.              L     RA,@PAGLOC              Page/number of pages
 005136 5810 C04C            00004 45774    6095.              L     RS,@PAGLEN              |
 00513A 1E12                       45775    6096.              ALR   RS,RA                   |
 00513C 0610                       45776    6097.              DECR  RS                      |
 00513E 8810 000C            0000C 45778    6098.              SRL   RS,L'PAGPAGM            | last page number
 005142 8820 000C            0000C 45779    6099.              SRL   RA,L'PAGPAGM            | 1st page number
 005146 5830 60B8            000B8 45780    6100.              L     RB,PAGMEG               | last page in AS
 00514A 8930 0008            00008 45781    6101.              SLL   RB,L'PAGSGNM-L'PAGPGNM  | |
1PAGESERV (PAGE00) (09:42) (22MAR04) Un-Reference a page                                                                    Page  262
0Current Usings:  (PAGCB,R6) (ASBPCB,R7) (PAGUREF,R10) (@PAGE-72,R12)
0Loc    Object Code    Addr1 Addr2  Stmt Lv Lineno    Source Statement           (Hibal 5, Asmedit 3.3)  HLASM R4.0  2004/03/22 09.42
+___    ______ ____    _____ _____  ____ __ ______    ______ _________
000514E 0630                       45782    6102.              DECR  RB                      | |
 005150 1913/4720 A28A       05398 45784    6103.              IF    ((RS,GT,RB),OR,(RA,GT,RB)),PURABORT
 005156 1923/4720 A28A       05398 45807             +
 00515C 1F12                       45816    6104.              SLR   RS,RA                   |
 00515E 5E10 A45A            05568 45817    6105.              INCR  RS                      | number of segments
 005162 8920 000C            0000C 45820    6106.              SLL   RA,L'PAGPAGM            | 1st page address
                                   45821    6107.
                                   45822    6108.          Get locks
                                   45823    6109.
 005166 AC04 C059      00001       45824    6110.              PAGNTRY SYNC,#PURPSWM,#PURFLGS
 USING  @LOCKS-72,R13
 00516A D203 D048 7018 00000 00018 45844             +
 005170 58F0 602C/0DEF       0002C 45850             +
 005176 D200 C058 70B6 00000 000B6 45852             +
 00517C 9260 70B6      000B6       45862             +
 005180 9180 7022      00022       45872             +
 005184 47E0 A07E            0518C 45873             +
 005188 92A0 70B6      000B6       45888             +
 00518C 5840 701C            0001C 45893    6111.              L     RJ,PCBPSTO              Check for seg table in core
 005190 B140 4000            00000 45894    6112.              LRA   RJ,@RJ                  |
 005194 4770 A28A            05398 45895    6113.              IF    ~VAOK,PURABORT          | seg table not in
 DROP   @LOCKS-72,R13              45909    6114.              PSET  @RESPT                  Bring in PT
 USING  @RESPT-72,R13
 005198 D714 D048 D048 00000 00000 45929             +
 00519E 5020 D048            00000 45930    6115.              PMOV  @PTVA,(RA)              |
 0051A2 5070 D04C            00004 45940    6116.              PMOV  @PTPCB,LA:ASBPCB        |
 0051A6                            45951    6117.              PMOV  @PTPSWM,#PURPSWM        |
 0051A6 D200 D050 C059 00008 00001 45955             +
 0051AC 58F0 A45E/0DEF       0556C 45956    6118.              ACALL RESPT                   |
 0051B2 9845 D054            0000C 45963    6119.              LM    RJ,RK,@PTPGTE           |
                                   45964    6120.
                                   45965    6121.          In this loop, RA is the page address to be undefined, and RS is
                                   45966    6122.          the number of consecutive pages to undefine. RJ and RK are
                                   45967    6123.          the addresses of the page/shadow page table entries.
                                   45968    6124.
 0051B6 1B88                       45969    6125.              CLEAR RM                      Preset return
 0051B8                            45973    6126.     PURPTVAL BEGIN ,                       Current PT valid
 0051B8                            45978  1 6127.     PURLOOP    LOOP  BEGIN                   Loop through virtual addrs
                                   45985  2 6128.
                                   45986  2 6129.              If the page table is not defined, quit this loop, returning
                                   45987  2 6130.              the address of the first page represented by this page table
                                   45988  2 6131.
 0051B8 1200/4780 A0B6       051C4 45989  2 6132.                  IF    (RVR,NZ),BEGIN          Addr exception for PT
 0051BE 1882                       46003  3 6133.                    LR    RM,RA                   | address of undef page
 0051C0 47F0 A23C            0534A 46004  3 6134.                    EXIT  PURPTVAL                |
 0051C4                            46007  2 6135.                  END   ,                       OF Addr exception for PT
 USING  PGTE,R4                    46011  2 6136.                  WITH  (PGTE,RJ)
 USING  SPTE,R5                    46024  2 6137.                  WITH  (SPTE,RK)
 0051C4                            46037  2 6138.     PURACT       BEGIN ,                       Do appropriate undefine action
1PAGESERV (PAGE00) (09:42) (22MAR04) Un-Reference a page                                                                    Page  263
0Current Usings:  (PGTE,R4) (SPTE,R5) (PAGCB,R6) (ASBPCB,R7) (PAGUREF,R10) (@PAGE-72,R12) (@RESPT-72,R13)
0Loc    Object Code    Addr1 Addr2  Stmt Lv Lineno    Source Statement           (Hibal 5, Asmedit 3.3)  HLASM R4.0  2004/03/22 09.42
+___    ______ ____    _____ _____  ____ __ ______    ______ _________
0                                  46042  3 6139.
                                   46043  3 6140.                For undefined pages, return address of undefined page
                                   46044  3 6141.
 0051C4 9180 4003      00003       46045  3 6142.                    IF    ~PGTFDEF,BEGIN
 0051C8 4710 A0C4            051D2 46055  3          +
 0051CC 1882                       46060  4 6143.                      LR    RM,RA
 0051CE 47F0 A228            05336 46061  4 6144.                      EXIT  PURLOOP
 0051D2                            46064  3 6145.                    END   ,
                                   46068  3 6146.
                                   46069  3 6147.                  If the page is a page table page, skip it.  It will have to
                                   46070  3 6148.                become undefined through a SEGUDEF call.
                                   46071  3 6149.
 0051D2 9110 4003      00003       46072  3 6150.                    IF    PGTFPGT,EXIT,PURACT
 0051D6 4710 A1CE            052DC 46084  3          +
                                   46090  3 6151.
                                   46091  3 6152.                If page is in main store, check for fixes, invalidate and free
                                   46092  3 6153.
 0051DA 9104 4002      00002       46093  3 6154.     PURAGAIN       IF    (~PGTFINV),BEGIN        Page valid
 0051DE 4710 A19E            052AC 46104  3          +
 0051E2 5830 4000            00000 46109  4 6155.                      L     RB,PGAD                 Get frame addr
 0051E6 8830 000C            0000C 46110  4 6156.                      SRL   RB,L'PAGPAGM            |
 0051EA 8930 0005            00005 46111  4 6157.                      SLL   RB,PFTLOG               |
 0051EE 5E30 6044            00044 46112  4 6158.                      AL    RB,PAGPFTO              |
 USING  PFTE,R3                    46113  4 6159.                      WITH  (PFTE,RB),BEGIN         Frame table addr
                                   46127  5 6160.
                                   46128  5 6161.                    If page I/O is in progress, then mark the frame for release
                                   46129  5 6162.                    when the I/O completes
                                   46130  5 6163.
 0051F2 9108 4003      00003       46131  5 6164.                        IF    PGTFIO,BEGIN            Page I/O in progress
 0051F6 47E0 A14E            0525C 46141  5          +
 0051FA 9610 301D      0001D       46146  6 6165.                          SET   PFTFREL                 Release frame @ I/O complete
 0051FE 9202 70B4      000B4       46152  6 6166.                          SET   PCBFREL                 We're waiting for release
                                   46158  6 6167.
                                   46159  6 6168.                      Put ourselves on the list waiting for this I/O to complete
                                   46160  6 6169.
 005202 5830 3010            00010 46161  6 6170.                          L     RB,PFTIOCB
 005206 1233/4770 A12E       0523C 46162  6 6171.                          IF    (RB,ZERO),'ABORT PAGUREFWAIT'
 00520C AC04 021B      0021B       46189  7          +
 USING  PZERO,R0
 005210 9680 021A      0021A       46195  7          +
 005214 50F0 021C            0021C 46196  7          +
 005218 58F0 0210            00210 46197  7          +
 00521C 89F0 0010            00010 46198  7          +
 005220 88F0 0010            00010 46199  7          +
 005224 41F0 F000            00000 46200  7          +
 005228 AEFF 0006            00006 46201  7          +
 00522C D7C1C7E4D9C5C6E6           46202  6          +
 DROP   PZERO,R0
 DROP   PFTE,R3                    46215  6 6172.                          WITH  (PGDPAGE,RB)
 USING  PGDPAGE,R3
 00523C 5890 3018            00018 46231  6 6173.                          L     RN,PGDPGWT              Get old head of chain
 005240 5070 3018            00018 46232  6 6174.                          PMOV  PGDPGWT,LA:ASBPCB        put ourselves there
 005244 5090 70A0            000A0 46243  6 6175.                          ST    RN,PCBWAIT                and point to old head
 DROP   @RESPT-72,R13              46244  6 6176.                          PAGWT ,,LA:ASBPCB             -- Wait --
1PAGESERV (PAGE00) (09:42) (22MAR04) Un-Reference a page                                                                    Page  264
0Current Usings:  (PGDPAGE,R3) (PGTE,R4) (SPTE,R5) (PAGCB,R6) (ASBPCB,R7) (PAGUREF,R10) (@PAGE-72,R12) (@PAGWAIT-72,R13)
0Loc    Object Code    Addr1 Addr2  Stmt Lv Lineno    Source Statement           (Hibal 5, Asmedit 3.3)  HLASM R4.0  2004/03/22 09.42
+___    ______ ____    _____ _____  ____ __ ______    ______ _________
0USING  @PAGWAIT-72,R13
 005248 D70B D048 D048 00000 00000 46265  6          +
 00524E 5070 D050            00008 46276  6          +
 005252 58F0 A46E/0DEF       0557C 46282  6          +
 005258 47F0 A0CC            051DA 46284  6 6177.                          B     PURAGAIN
 DROP   PGDPAGE,R3                 46285  5 6178.                        END   ,                       OF Page I/O in progress
 USING  PFTE,R3
                                   46301  5 6179.
                                   46302  5 6180.                    Page I/O not in progress, release it if we can
                                   46303  5 6181.
 00525C 4890 3018/1299       00018 46304  5 6182.                        IF    ('LTH RN,PFTFIX',NZ),BEGIN       Page is fixed
 005262 4780 A15E            0526C 46315  5          +
 005266 1882                       46320  6 6183.                          LR    RM,RA                   Addr of bad page
 005268 47F0 A228            05336 46321  6 6184.                          EXIT  PURLOOP
 00526C                            46324  5 6185.                        END   ,                       OF Page is fixed
                                   46328  5 6186.
                                   46329  5 6187.                    Invalidate page
                                   46330  5 6188.
 00526C B190 4000            00000 46331  5 6189.                        LRA   RN,PGTE                 Invalidate page (PT real addr)
 005270 5490 A472            05580 46332  5 6190.                        N     RN,=A(PAGPAGM)          |
 005274 B221 0092                  46333  5 6191.                        IPTE  RN,RA                   |
                                   46334  5 6192.
 DROP   @PAGWAIT-72,R13            46335  5 6193.                        FRAMEREL LA:PFTE
 USING  @FRAMREL-72,R13
 005278 D707 D048 D048 00000 00000 46356  5          +
 00527E 5030 D04C            00004 46367  5          +
 005282 58F0 A476/0DEF       05584 46373  5          +
                                   46375  5 6194.
                                   46376  5 6195.                    One less valid page is one less short term fix on the page table.
                                   46377  5 6196.
 005288 18F9/88F0 000C       0000C 46378  5 6197.                        QUSFIX (RN)                   One unfix of page
 00528E 89F0 0005            00005 46385  5          +
 005292 5EF0 6044            00044 46386  5          +
 USING  PFTE,R15
 005296 48E0 F01A/06E0       0001A 46401  6          +
 00529C 59E0 A47A            05588 46406  6          +
 0052A0 47B0 A19A            052A8 46413  6          +
 0052A4 58E0 A47A            05588 46418  6          +
 0052A8 40E0 F01A            0001A 46423  5          +
 DROP   PFTE,R15
 DROP   PFTE,R3                    46432  4 6198.                      END   ,                       OF Frame table addr
 0052AC                            46440  3 6199.                    END   ,                       OF Page is valid
                                   46444  3 6200.
                                   46445  3 6201.                Set as not referenced
                                   46446  3 6202.
 0052AC 94BF 4003      00003       46447  3 6203.                    CLEAR PGTFREF
                                   46454  3 6204.
                                   46455  3 6205.                If we are releasing external frames on "un-reference" operations,
                                   46456  3 6206.                do it here.  Clear flag and release external core
                                   46457  3 6207.
 0052B0 9180 61C2      001C2       46458  3 6208.                    IF    (PAGXFUREL,AND,PGTFXDEF),BEGIN   Do free of ext frame
 0052B4 47E0 A1CE            052DC 46470  3          +
 0052B8 9104 4003      00003       46481  3          +
 0052BC 47E0 A1CE            052DC 46482  3          +
1PAGESERV (PAGE00) (09:42) (22MAR04) Un-Reference a page                                                                    Page  265
0Current Usings:  (PGTE,R4) (SPTE,R5) (PAGCB,R6) (ASBPCB,R7) (PAGUREF,R10) (@PAGE-72,R12) (@FRAMREL-72,R13)
0Loc    Object Code    Addr1 Addr2  Stmt Lv Lineno    Source Statement           (Hibal 5, Asmedit 3.3)  HLASM R4.0  2004/03/22 09.42
+___    ______ ____    _____ _____  ____ __ ______    ______ _________
00052C0 94FB 4003      00003       46487  4 6209.                      CLEAR PGTFXDEF                External page not defined
 DROP   @FRAMREL-72,R13            46494  4 6210.                      XPREL SPXSLOT                 Free external slot
 USING  @XPREL-72,R13
 0052C4 D70B D048 D048 00000 00000 46515  4          +
 0052CA D203 D048 5000 00000 00000 46520  4          +
 0052D0 58F0 A47E/0DEF       0558C 46526  4          +
 0052D6                            46528  4 6211.                      CLEAR SPXSLOT                 |
 0052D6 D703 5000 5000 00000 00000 46534  4          +
 0052DC                            46535  3 6212.                    END   ,                       OF Do free of ext frame
 0052DC                            46539  2 6213.                  END   ,                       OF Do appropriate undefine act
                                   46543  2 6214.
                                   46544  2 6215.              Get the addresses of the page table entries, using a short cut
                                   46545  2 6216.              if it's in the same segment.
                                   46546  2 6217.
 0052DC 5910 A45A            05568 46547  2 6218.                  IF    (RS,GT,1),BEGIN         More to come
 0052E0 47D0 A224            05332 46559  2          +
 0052E4 5E20 A462            05570 46564  3 6219.                    AL    RA,=A(PAGPAGEL)         Is next in another segment?
 0052E8 1832                       46565  3 6220.                    LR    RB,RA                   |
 0052EA 5430 A466            05574 46566  3 6221.                    N     RB,=A(PAGPGNM)          | (0 page num = new segment)
 0052EE 4780 A1EE            052FC 46567  3 6222.                    IF    NZ,BEGIN                Same segment
 0052F2 4140 4004            00004 46578  4 6223.                      LA    RJ,PGTNXT               |
 0052F6 4150 5008            00008 46579  4 6224.                      LA    RK,SPTNXT               |
 0052FA 1B00                       46580  4 6225.                      CLEAR RVR                     | (no addr error on PT)
 0052FC                            46584  3 6226.                    END   ,                       OF Same segment
 0052FC A1F2           052FC 052F0 46588  3 6227.                    ELSE  BEGIN                   Different segment
 0052FC 47F0 A224            05332 46593  3          +
 005300 B130 4000            00000 46599  4 6228.                      LRA   RB,PGTE                 Unfix last PT
 DROP   @XPREL-72,R13              46600  4 6229.                      PSET  @QUFIX                  |
 USING  @QUFIX-72,R13
 005304 D703 D048 D048 00000 00000 46620  4          +
 00530A 5030 D048            00000 46621  4 6230.                      PMOV  @QUFRA,(RB)             |
 00530E 58F0 A46A/0DEF       05578 46631  4 6231.                      ACALL QUFIX                   |
                                   46638  4 6232.
 DROP   @QUFIX-72,R13              46639  4 6233.                      PSET  @RESPT                  Bring in PT
 USING  @RESPT-72,R13
 005314 D714 D048 D048 00000 00000 46659  4          +
 00531A 5020 D048            00000 46660  4 6234.                      PMOV  @PTVA,(RA)              |
 00531E 5070 D04C            00004 46670  4 6235.                      PMOV  @PTPCB,LA:ASBPCB        |
 005322                            46681  4 6236.                      PMOV  @PTPSWM,#PURPSWM        |
 005322 D200 D050 C059 00008 00001 46685  4          +
 005328 58F0 A45E/0DEF       0556C 46686  4 6237.                      ACALL RESPT                   |
 00532E 9845 D054            0000C 46693  4 6238.                      LM    RJ,RK,@PTPGTE           | get page/shadow entry addrs
 005332                            46694  3 6239.                    END   ,                       OF Different segment
 005332                            46698  2 6240.                  END   ,                       OF More to come
 005332 4610 A0AA            051B8 46702  1 6241.                UNTIL (BCT,RS),END            OF Define pages
 DROP   SPTE,R5
 DROP   PGTE,R4
 005336 B130 4000            00000 46722  1 6242.                LRA   RB,@RJ                  Unfix last PT
 DROP   @RESPT-72,R13              46723  1 6243.                PSET  @QUFIX                  |
 USING  @QUFIX-72,R13
 00533A D703 D048 D048 00000 00000 46743  1          +
 005340 5030 D048            00000 46744  1 6244.                PMOV  @QUFRA,(RB)             |
 005344 58F0 A46A/0DEF       05578 46754  1 6245.                ACALL QUFIX                   |
 00534A                            46761    6246.              END   ,                       OF Current PT valid
1PAGESERV (PAGE00) (09:42) (22MAR04) Un-Reference a page                                                                    Page  266
0Current Usings:  (PAGCB,R6) (ASBPCB,R7) (PAGUREF,R10) (@PAGE-72,R12) (@QUFIX-72,R13)
0Loc    Object Code    Addr1 Addr2  Stmt Lv Lineno    Source Statement           (Hibal 5, Asmedit 3.3)  HLASM R4.0  2004/03/22 09.42
+___    ______ ____    _____ _____  ____ __ ______    ______ _________
000534A 4310 70B6            000B6 46765    6247.              PAGXIT SYNC,#PURPSWM,#PURFLGS,WR=RS
 00534E D200 70B6 C058 000B6 00000 46769             +
 005354 4210 C058            00000 46770             +
 005358 9180 C058      00000       46780             +
 00535C 47E0 A266            05374 46781             +
 005360 5850 6018            00018 46786  1          +
 USING  ASB,R5
 005364 5850 5020            00020 46802  1          +
 DROP   ASB,R5
 DROP   ASBPCB,R7
 USING  ASBPCB,R5
 DROP   @QUFIX-72,R13
 USING  @LOCKS-72,R13
 005368 D203 D048 5018 00000 00018 46855  2          +
 00536E 58F0 6030/0DEF       00030 46861             +
 USING  ASBPCB,R7
 DROP   ASBPCB,R5
 005374 9140 C058      00000       46893             +
 005378 47E0 A27A            05388 46894             +
 00537C D203 D048 7018 00000 00018 46908  1          +
 005382 58F0 6030/0DEF       00030 46914             +
 005388 8000 C059      00001       46920             +
 00538C 1808                       46921    6248.              LR    RVR,RM                  RVR = completion code
 00538E 981F C008            00008 46922    6249.              PEND  ,
 DROP   ASBPCB,R7
 DROP   PAGCB,R6
 DROP   @PAGE-72,R12
 DROP   PAGUREF,R10
 005392 9680 C000/0B0E 00000       46947             +
 DROP   @LOCKS-72,R13
0005398 AC04 021B      0021B       46957    6251.     PURABORT ABORT PAGUREF
 USING  PZERO,R0
 00539C 9680 021A      0021A       46976             +
 0053A0 50F0 021C            0021C 46977             +
 0053A4 58F0 0210            00210 46978             +
 0053A8 89F0 0010            00010 46979             +
 0053AC 88F0 0010            00010 46980             +
 0053B0 41F0 F000            00000 46981             +
 0053B4 AEFF 0006            00006 46982             +
 0053B8 D7C1C7E4D9C5C640           46983             +
 DROP   PZERO,R0
                                   46992    6252.     *NEST,2
1PAGESERV (PAGE00) (09:42) (22MAR04) Set page hash value for a segment                                                      Page  267
0Loc    Object Code    Addr1 Addr2  Stmt Lv Lineno    Source Statement           (Hibal 5, Asmedit 3.3)  HLASM R4.0  2004/03/22 09.42
+___    ______ ____    _____ _____  ____ __ ______    ______ _________
0                                  46994    6254.
                                   46995    6255.
                                   46996    6256.       Set page hash value for a segment
                                   46997    6257.
                                   46998    6258.        Input - @PAGE
                                   46999    6259.
                                   47000    6260.       Output - RVR =  0  Range of segments now have new hash value
                                   47001    6261.                RVR <> 0  At least one segment was undefined, or not
                                   47002    6262.                          local.
                                   47003    6263.                            In this case RVR contains the address of
                                   47004    6264.                          the segment in error, and the
                                   47005    6265.                          rest of the segments in the range are
                                   47006    6266.                          ignored.
                                   47007    6267.
                                   47008    6268.

0000000                00000 00002 47010    6270.     #PAGHASH RECORD BEGIN
 000000                            47018  1 6271.     #PHFLGS    DS    X                       Flags
 000001                            47019  1 6272.     #PHPSWM    DS    X                       PSW mask for disabling
 000002                00002 00002 47020    6273.              END   ,
00053C8                            47030    6275.     PAGHASH  PROC  @PAGE,#PAGHASH,SCOPE=GLOBAL      Set seg hash value
 0053C8 D7C1C7C8C1E2C840           47036             +
 0053D0 0010/0008                  47037             +
 0053D4 900F D004/18AF       00004 47039             +
 USING  PAGHASH,R10
 0053DA 50D0 C000/18CD       00000 47054             +
 0053E0 9680 C000      00000       47056             +
 USING  @PAGE-72,R12
 AUSING (#PAGHASH,@PAGE+16)
 0053E4 41D0 C060            00060 47075             +
 0053E8 5860 0200            00200 47076    6276.              PAGAD RPAG
 USING  PZERO,R0
 DROP   PZERO,R0
 USING  MAT,R6
 0053EC 5860 600C            0000C 47110             +
 DROP   MAT,R6
 USING  PAGCB,R6
 USING  PZERO,R0                   47132    6277.              USING PZERO,R0                Address of current PCB
 0053F0 5870 0208            00208 47141    6278.              L     RPCB,PZCURASB           |
 DROP   PZERO,R0                   47142    6279.              DROP  R0                      |
 0053F4 5870 7020            00020 47150    6280.              WITH  (ASB,RPCB),'L RPCB,ASBPAGB'
 USING  ASB,R7
 DROP   ASB,R7
 USING  ASBPCB,R7                  47174    6281.              WITH  (ASBPCB,RPCB)           |
 0053F8 AC04 C059      00001       47187    6282.              PAGNTRY SYNC,#PHPSWM,#PHFLGS  Synchronous entry
 USING  @LOCKS-72,R13
 0053FC D203 D048 7018 00000 00018 47207             +
 005402 58F0 602C/0DEF       0002C 47213             +
 005408 D200 C058 70B6 00000 000B6 47215             +
 00540E 9260 70B6      000B6       47225             +
 005412 9180 7022      00022       47235             +
 005416 47E0 A04A            0541E 47236             +
 00541A 92A0 70B6      000B6       47251             +
 00541E 5820 C048            00000 47256    6283.              L     RA,@PAGLOC              Segment/number of segments
1PAGESERV (PAGE00) (09:42) (22MAR04) Set page hash value for a segment                                                      Page  268
0Current Usings:  (PAGCB,R6) (ASBPCB,R7) (PAGHASH,R10) (@PAGE-72,R12) (@LOCKS-72,R13)
0Loc    Object Code    Addr1 Addr2  Stmt Lv Lineno    Source Statement           (Hibal 5, Asmedit 3.3)  HLASM R4.0  2004/03/22 09.42
+___    ______ ____    _____ _____  ____ __ ______    ______ _________
0005422 5810 C04C            00004 47257    6284.              L     RS,@PAGLEN              |
 005426 1E12                       47258    6285.              ALR   RS,RA                   |
 005428 0610                       47259    6286.              DECR  RS                      |
 00542A 5410 A1C0            05594 47261    6287.              N     RS,=A(PAGSGNM)          |
 00542E 5420 A1C0            05594 47262    6288.              N     RA,=A(PAGSGNM)          |
 005432 5830 60B8            000B8 47263    6289.              L     RB,PAGMEG               |
 005436 0630                       47264    6290.              DECR  RB                      | 0..n
 005438 8810 0014            00014 47266    6291.              SRL   RS,L'PAGSGNM            | last segment number
 00543C 1913/47D0 A070       05444 47267    6292.              CEIL  RS,RB                   | |
 005442 1813                       47272             +
 005444 8820 0014            00014 47273    6293.              SRL   RA,L'PAGSGNM            | 1st segment number
 005448 1921/47D0 A07C       05450 47274    6294.              CEIL  RA,RS                   | | no bigger than last
 00544E 1821                       47279             +
 005450 1F12                       47280    6295.              SLR   RS,RA                   |
 005452 5E10 A194            05568 47281    6296.              INCR  RS                      | number of segments
 005456 5E30 A194            05568 47284    6297.              INCR  RB                      Shadow segment entry
 00545A 8930 0002            00002 47287    6298.              SLL   RB,SGTLOG               | shadow start
 00545E 1842                       47288    6299.              LR    RJ,RA                   | offset in shadow
 005460 8940 0003            00003 47289    6300.              SLL   RJ,SSTLOG               | |
 005464 1E34                       47290    6301.              ALR   RB,RJ                   |
 005466 5840 701C            0001C 47291    6302.              L     RJ,PCBPSTO              |
 00546A 1E34                       47292    6303.              ALR   RB,RJ                   |
 00546C 1852                       47293    6304.              LR    RK,RA                   Segment addr
 00546E 8950 0014            00014 47294    6305.              SLL   RK,L'PAGSGNM            |
 005472 8920 0002            00002 47295    6306.              SLL   RA,SGTLOG               Segment entry
 005476 1E24                       47296    6307.              ALR   RA,RJ                   |
 005478 B140 4000            00000 47297    6308.              LRA   RJ,@RJ                  Check for seg table in core
 00547C 4770 A128            054FC 47298    6309.              IF    ~VAOK,SHABORT           | seg table not in
 005480 1B88                       47312    6310.              CLEAR RM                      Pre-set return
 005482                            47316    6311.     SHLOOP   LOOP  BEGIN                   Set hash for all segments
 USING  SGTE,R2                    47323  1 6312.                WITH  (SGTE,RA)
 USING  SSTE,R3                    47336  1 6313.                WITH  (SSTE,RB)
 005482 9180 3006      00006       47349  1 6314.                IF    (~SSTFDEF,OR,SGTFCOMM),BEGIN
 005486 47E0 A0BE            05492 47363  1          +
 00548A 9110 2003      00003       47372  1          +
 00548E 47E0 A0C4            05498 47373  1          +
 005492 1885                       47378  2 6315.                  LR    RM,RK                   Return segment addr
 005494 47F0 A0DA            054AE 47379  2 6316.                  EXIT  SHLOOP
 005498                            47382  1 6317.                END   ,
 005498 D200 3007 C050 00007 00008 47386  1 6318.                MVC   SSINIT,@PAGHASH         Set hash byte for segment
 00549E 5E50 A1E4            055B8 47387  1 6319.                AL    RK,=X'00100000'         Set next segment VA
 0054A2 4120 2004            00004 47388  1 6320.                LA    RA,SGTNXT               Next segment table entry
 0054A6 4130 3008            00008 47389  1 6321.                LA    RB,SSTNXT               | and shadow
 0054AA 4610 A0AE            05482 47390    6322.              UNTIL (BCT,RS),END            OF Set hash for all segments
 DROP   SSTE,R3
 DROP   SGTE,R2
 0054AE 4310 70B6            000B6 47410    6323.              PAGXIT SYNC,#PHPSWM,#PHFLGS,WR=RS
 0054B2 D200 70B6 C058 000B6 00000 47414             +
 0054B8 4210 C058            00000 47415             +
 0054BC 9180 C058      00000       47425             +
 0054C0 47E0 A104            054D8 47426             +
 0054C4 5850 6018            00018 47431  1          +
 USING  ASB,R5
 0054C8 5850 5020            00020 47447  1          +
1PAGESERV (PAGE00) (09:42) (22MAR04) Set page hash value for a segment                                                      Page  269
0Current Usings:  (ASBPCB,R5) (PAGCB,R6) (PAGHASH,R10) (@PAGE-72,R12) (@LOCKS-72,R13)
0Loc    Object Code    Addr1 Addr2  Stmt Lv Lineno    Source Statement           (Hibal 5, Asmedit 3.3)  HLASM R4.0  2004/03/22 09.42
+___    ______ ____    _____ _____  ____ __ ______    ______ _________
0DROP   ASB,R5
 DROP   ASBPCB,R7
 USING  ASBPCB,R5
 0054CC D203 D048 5018 00000 00018 47490  2          +
 0054D2 58F0 6030/0DEF       00030 47496             +
 USING  ASBPCB,R7
 DROP   ASBPCB,R5
 0054D8 9140 C058      00000       47528             +
 0054DC 47E0 A118            054EC 47529             +
 0054E0 D203 D048 7018 00000 00018 47543  1          +
 0054E6 58F0 6030/0DEF       00030 47549             +
 0054EC 8000 C059      00001       47555             +
 0054F0 1808                       47556    6324.              LR    RVR,RM                  Set RC
 0054F2 981F C008            00008 47557    6325.              PEND  ,
 DROP   ASBPCB,R7
 DROP   PAGCB,R6
 DROP   @PAGE-72,R12
 DROP   PAGHASH,R10
 0054F6 9680 C000/0B0E 00000       47582             +
 DROP   @LOCKS-72,R13
 0054FC AC04 021B      0021B       47591    6326.     SHABORT  ABORT PAGHASHAS               AS not in
 USING  PZERO,R0
 005500 9680 021A      0021A       47610             +
 005504 50F0 021C            0021C 47611             +
 005508 58F0 0210            00210 47612             +
 00550C 89F0 0010            00010 47613             +
 005510 88F0 0010            00010 47614             +
 005514 41F0 F000            00000 47615             +
 005518 AEFF 0006            00006 47616             +
 00551C D7C1C7C8C1E2C8C1           47617             +
 DROP   PZERO,R0
