1FILEMAN  (FILEMA) (09:39) (22MAR04) ORVYL'S File Manager                                                                   Page  248
0Current Usings:  (PZERO,R0)
0Loc    Object Code    Addr1 Addr2  Stmt Lv Lineno    Source Statement           (Hibal 5, Asmedit 3.3)  HLASM R4.0  2004/03/22 09.39
+___    ______ ____    _____ _____  ____ __ ______    ______ _________
0                                  45231    5662.     *---------------------------------------------------------------------*
                                   45232    5663.     *  FMANINIT - Initalize file system
                                   45233    5664.     *
                                   45234    5665.     *   Inputs - FSB pointer
                                   45235    5666.     *
                                   45236    5667.     *   Output - None
                                   45237    5668.     *---------------------------------------------------------------------*
 00631A                            45238    5669.     FMANINIT PROC  @FMFSB,SCOPE=GLOBAL
 00631A C6D4C1D5C9D5C9E3           45244             +
 006322 0008/0000                  45245             +
 006326 900F D004/18AF       00004 45247             +
 USING  FMANINIT,R10
 00632C 50D0 C000/18CD       00000 45262             +
 006332 9680 C000      00000       45264             +
 USING  @FMFSB-72,R12
 006336 41D0 C050            00050 45278             +
 00633A 5830 C048            00000 45279    5670.              L     RB,@FMFSBP
 USING  FSB,R3                     45280    5671.              WITH  (FSB,RB)
                                   45293    5672.     *
                                   45294    5673.     * Allocate attached files hash table
                                   45295    5674.     *
 00633E 5850 A1C2            064E8 45296    5675.              L     RK,=A(AHFBLEN)
 USING  @VMGET-72,R13              45297    5676.              VMGET (RK),LOC=GLOBHI,FIX=YES,PAGE=YES
 006342 D70A D048 D048 00000 00000 45321             +
 006348 5050 D048            00000 45331             +
 00634C D201 D050 A1E2 00008 06508 45332             +
 006352 9680 D052      0000A       45338             +
 006356 58F0 A1C6/0DEF       064EC 45341             +
 00635C 1240/4770 A06C       06392 45343    5677.              IF    ('LTR RJ,RVR',Z),'ABORT NOAHFBMEM'
 006362 AC04 021B      0021B       45360  1          +
 006366 9680 021A      0021A       45366  1          +
 00636A 50F0 021C            0021C 45367  1          +
 00636E 58F0 0210            00210 45368  1          +
 006372 89F0 0010            00010 45369  1          +
 006376 88F0 0010            00010 45370  1          +
 00637A 41F0 F000            00000 45371  1          +
 00637E AEFF 0006            00006 45372  1          +
 006382 D5D6C1C8C6C2D4C5           45373             +
 006392 5040 303C            0003C 45378    5678.              ST    RJ,FSBAHFB          Set pointer
 006396 1B99                       45379    5679.              CLEAR RN
 006398 0E48                       45383    5680.              MVCL  RJ,RM               Clear
 00639A 5840 303C            0003C 45384    5681.              L     RJ,FSBAHFB          Set pointer
 USING  AHFB,R4                    45385    5682.              WITH  (AHFB,RJ),BEGIN
 00639E D203 4000 A1CA 00000 064F0 45399  1 5683.                MVC   AHFBID,=C'AHFB'     Set block id
 0063A4 5030 4008            00008 45400  1 5684.                ST    RB,AHFBFSB          Set back pointer to FSB
 DROP   @VMGET-72,R13              45401  1 5685.                GRCRE CID=(RJ)            Create a general resource
 USING  @GRES-72,R13
 0063A8 D708 D048 D048 00000 00000 45422  1          +
 0063AE 5040 D048            00000 45432  1          +
 0063B2 58F0 A1CE/0DEF       064F4 45435  1          +
 0063B8 5000 4004            00004 45437  1 5686.                ST    RVR,AHFBGRID        Set resource id
 0063BC 5850 A1D2            064F8 45438  1 5687.                L     RK,=A(AHFBCNT)      Count of hash lists
 0063C0                            45439  1 5688.                LOOP  BEGIN
 0063C0 4180 4010            00010 45445  2 5689.                  LA    RM,AHFBLFP
1FILEMAN  (FILEMA) (09:39) (22MAR04) ORVYL'S File Manager                                                                   Page  249
0Current Usings:  (PZERO,R0) (FSB,R3) (AHFB,R4) (FMANINIT,R10) (@FMFSB-72,R12) (@GRES-72,R13)
0Loc    Object Code    Addr1 Addr2  Stmt Lv Lineno    Source Statement           (Hibal 5, Asmedit 3.3)  HLASM R4.0  2004/03/22 09.39
+___    ______ ____    _____ _____  ____ __ ______    ______ _________
00063C4 5080 4010            00010 45446  2 5690.                  ST    RM,AHFBLFP          Init
 0063C8 5080 4014            00014 45447  2 5691.                  ST    RM,AHFBLBP
 0063CC 4140 400C            0000C 45448  2 5692.                  LA    RJ,AHFB+L'AHFBL     Increment pointer
 0063D0 4650 A09A            063C0 45449  1 5693.                UNTIL (BCT,RK),END
 DROP   AHFB,R4                    45459    5694.              END   ,                   End with
00063D4 981F C008            00008 45468    5696.              PEND  ,
 DROP   FSB,R3
 DROP   @FMFSB-72,R12
 DROP   FMANINIT,R10
 0063D8 9680 C000/0B0E 00000       45488             +
 DROP   @GRES-72,R13
1FILEMAN  (FILEMA) (09:39) (22MAR04) ORVYL'S File Manager                                                                   Page  250
0Current Usings:  (PZERO,R0)
0Loc    Object Code    Addr1 Addr2  Stmt Lv Lineno    Source Statement           (Hibal 5, Asmedit 3.3)  HLASM R4.0  2004/03/22 09.39
+___    ______ ____    _____ _____  ____ __ ______    ______ _________
0                                  45498    5698.     *---------------------------------------------------------------------*
                                   45499    5699.     *  FMANTERM - Terminate file services
                                   45500    5700.     *               o Set each file system to unavailable
                                   45501    5701.     *               o Wait while the file activity finishes
                                   45502    5702.     *               o Deactivate bitmap processing (give all buffered
                                   45503    5703.     *                 blocks numbers back to the system)
                                   45504    5704.     *
                                   45505    5705.     *   Inputs - None
                                   45506    5706.     *
                                   45507    5707.     *   Output - None
                                   45508    5708.     *---------------------------------------------------------------------*
 0063DE                            45509    5709.     FMANTERM PROC  SCOPE=GLOBAL
 0063DE C6D4C1D5E3C5D9D4           45515             +
 0063E6 0000/0000                  45516             +
 0063EA 900F D004/18AF       00004 45518             +
 USING  FMANTERM,R10
 0063F0 50D0 C000/18CD       00000 45533             +
 0063F6 9680 C000      00000       45535             +
 0063FA 41D0 C048            00048 45536             +
 0063FE 5870 0200            00200 45537    5710.              ADFCB ,
 USING  MAT,R7
 006402 5870 7028            00028 45554             +
 DROP   MAT,R7
 USING  FILECB,R7
 006406 5830 7008            00008 45576    5711.              L     RB,FILEFFSB         Point to first FSB
 USING  FSB,R3                     45577    5712.              WITH  (FSB,RB)
 00640A 1233/4780 A032       0641C 45590    5713.              WHILE (RB,NZ),BEGIN
 006410 9690 3009      00009       45606  1 5714.                SET   FSBANAVL+FSBCLOSE   Set to not available
 006414 5830 3004            00004 45615  1 5715.                L     RB,FSBCHAIN         Point to next one
 006418 47F0 A020            0640A 45616    5716.              END   ,
 00641C 4100 0032            00032 45621    5717.              LA    R0,50               50 * 0.1 = 5 seconds
 006420 58F0 A112/0DEF       064FC 45622    5718.              VCALL M1GOWAIT            Wait for things to finish
0006426 5830 7008            00008 45627    5720.              L     RB,FILEFFSB         Point to first FSB
 USING  @FMFSB-72,R13              45628    5721.              PSET  @FMFSB
 00642A D704 D048 D048 00000 00000 45645             +
 006430 1233/4780 A05E       06448 45646    5722.              WHILE (RB,NZ),BEGIN
 006436 5030 D048            00000 45662  1 5723.                PMOV  @FMFSBP,LA:FSB
 00643A 58F0 A116/0DEF       06500 45673  1 5724.                VCALL FBITDEA             Deactivate bitmap processing
 006440 5830 3004            00004 45677  1 5725.                L     RB,FSBCHAIN         Point to next one
 006444 47F0 A046            06430 45678    5726.              END   ,
0006448 981F C008            00008 45684    5728.              PEND  ,
 DROP   FSB,R3
 DROP   FILECB,R7
 DROP   FMANTERM,R10
 00644C 9680 C000/0B0E 00000       45704             +
 DROP   @FMFSB-72,R13
1FILEMAN  (FILEMA) (09:39) (22MAR04) ORVYL'S File Manager                                                                   Page  251
0Current Usings:  (PZERO,R0)
0Loc    Object Code    Addr1 Addr2  Stmt Lv Lineno    Source Statement           (Hibal 5, Asmedit 3.3)  HLASM R4.0  2004/03/22 09.39
+___    ______ ____    _____ _____  ____ __ ______    ______ _________
0006458                            45714    5730.              LTORG ,
 006458 00000001                   45716                             =A(1)
 00645C 00000294                   45717                             =A(IXRNT#)
 006460 00000003                   45718                             =A(L'IXRNT)
 006464 00000000                   45719                             =V(SBUFREE)
 006468 00005EA4                   45720                             =A(FMIXRGET)
 00646C 00005F38                   45721                             =A(FMIXRPUT)
 006470 00000000                   45722                             =V(SBUFGET)
 006474 00000000                   45723                             =V(FBITREL)
 006478 00005DAC                   45724                             =A(FMDELIXR)
 00647C 00000000                   45725                             =V(FDOIODO)
 006480 00000000                   45726                             =V(FBITGET)
 006484 40404040                   45727                             =CL4' '
 006488 00000000                   45728                             =V(ACAINFO)
 00648C 5C5C5C40C6899385           45729                             =CL(L'@FMFINAM)'*** File being detached ***'
 0064B8 5C5C5C40E2E3C1E3           45730                             =CL(L'@FMFINAM)'*** STATUS in progress ***'
 0064E4 D6D9E54B                   45731                             =C'ORV.'
 0064E8 00001000                   45732                             =A(AHFBLEN)
 0064EC 00000000                   45733                             =V(VMGET)
 0064F0 C1C8C6C2                   45734                             =C'AHFB'
 0064F4 00000000                   45735                             =V(GRCRE)
 0064F8 00000151                   45736                             =A(AHFBCNT)
 0064FC 00000000                   45737                             =V(M1GOWAIT)
 006500 00000000                   45738                             =V(FBITDEA)
 006504 0003                       45739                             =Y(L'IXRNT)
 006506 0294                       45740                             =Y(IXRNT#)
 006508 3F00           0650A 06510 45741                             =Y(63*256+0)
 006510                06510 06510 45745    5731.              END   .

1FILEMAN  (FILEMA) (09:39) (22MAR04) Ordinary Symbol and Literal Cross Reference                                            Page  252
-Symbol   Length   Value     Id    R Type   Defn References                                  HLASM R4.0  2004/03/22 09.39
0$$$@R0        1 00000000 FFFFFFFE     J     714  1010
 $$$@R1        1 00000000 FFFFFFFD     J     727  1022
 $$$@R10       1 00000000 FFFFFFF4     J     844  1142
 $$$@R11       1 00000000 FFFFFFF3     J     857  1154
 $$$@R12       1 00000000 FFFFFFF2     J     870  1166
 $$$@R13       1 00000000 FFFFFFF1     J     883  1178
 $$$@R14       1 00000000 FFFFFFF0     J     896  1190
 $$$@R15       1 00000000 FFFFFFEF     J     909  1202
 $$$@R2        1 00000000 FFFFFFFC     J     740  1034
 $$$@R3        1 00000000 FFFFFFFB     J     753  1046
 $$$@R4        1 00000000 FFFFFFFA     J     766  1058
 $$$@R5        1 00000000 FFFFFFF9     J     779  1070
 $$$@R6        1 00000000 FFFFFFF8     J     792  1082
 $$$@R7        1 00000000 FFFFFFF7     J     805  1094
 $$$@R8        1 00000000 FFFFFFF6     J     818  1106
 $$$@R9        1 00000000 FFFFFFF5     J     831  1118   1130
 $$$C1FILEMAN
               1 00000E82 00000001     J   12610 12612
 $$$C10FILEMAN
               1 00003D9A 00000001     J   30494 30496
 $$$C11FILEMAN
               1 00004674 00000001     J   33553 33555  34138  34509  34814  36345
 $$$C12FILEMAN
               1 0000515C 00000001     J   38213 38215  38487  39088
 $$$C13FILEMAN
               1 000056EE 00000001     J   40218 40220  40247  40291  42747
 $$$C14FILEMAN
               1 0000650A 00000001     J   45742 45744
 $$$C15FILEMAN
               1 00006510 00000001     J   45748 45750
 $$$C2FILEMAN
               1 00000F28 00000001     J   12870 12872  12904
 $$$C3FILEMAN
               1 00001070 00000001     J   13446 13448
 $$$C4FILEMAN
               1 00001382 00000001     J   14479 14481
 $$$C5FILEMAN
               1 00001520 00000001     J   15104 15106  15147
 $$$C6FILEMAN
               1 00001C3D 00000001     J   17685 17687
 $$$C7FILEMAN
               1 00001EBE 00000001     J   18603 18605
 $$$C8FILEMAN
               1 0000243E 00000001     J   20859 20861  20900
 $$$C9FILEMAN
               1 000032D4 00000001     J   26271 26273  26304
 $$$D0FILEMAN
               1 00000E5C 00000001     J    1220  7179   8846
 $$$D11FILEMAN
               1 00005156 00000001     J   33554 34498
 $$$D12FILEMAN
               1 000056DB 00000001     J   38214 38475
 $$$R#BLKDEL
               1 00000000 FFFFFF78     J   40252 40290  40290
 $$$R#CHKACC
1FILEMAN  (FILEMA) (09:39) (22MAR04) Ordinary Symbol and Literal Cross Reference                                            Page  253
               1 00000000 FFFFFF7A     J   39073 39087  39087
 $$$R#FATCH
               1 00000000 FFFFFF82     J    9360  9381   9381
 $$$R#FMANFDT
               1 00000000 FFFFFF7B     J   36331 36344  36344
 $$$R#ICONT
               1 00000000 FFFFFF7F     J   20872 20899  20899
 $$$R#REAWK
               1 00000000 FFFFFF81     J   12883 12903  12903
 $$$R#STATWK
               1 00000000 FFFFFF7E     J   26284 26303  26303
 $$$R#WRIWK
               1 00000000 FFFFFF80     J   15110 15146  15146
 $$$R@ACAINFO
               1 00000000 FFFFFFAE     J    4951  4968   4968
 $$$R@ACINFO
               1 00000000 FFFFFFAD     J    4978  4997   4997
 $$$R@ACLOGON
               1 00000000 FFFFFFAF     J    4924  4941   4941
 $$$R@ACPINFO
               1 00000000 FFFFFFAC     J    5006  5020   5020
 $$$R@ACREATE
               1 00000000 FFFFFFA5     J    5193  5206   5206
 $$$R@ACSPINF
               1 00000000 FFFFFFAB     J    5029  5043   5043
 $$$R@AWAIT
               1 00000000 FFFFFFB4     J    4770  4792   4792
 $$$R@BLKDEL
               1 00000000 FFFFFF79     J   40231 40246  40246
 $$$R@CHKACC
               1 00000000 FFFFFF83     J    7034  7051   7051
 $$$R@CHKMEM
               1 00000000 FFFFFF84     J    6992  7016   7016
 $$$R@DELIXR
               1 00000000 FFFFFF77     J   42732 42746  42746
 $$$R@DISPPIOC
               1 00000000 FFFFFFAA     J    5059  5072   5072
 $$$R@DISPSIOC
               1 00000000 FFFFFFA9     J    5078  5091   5091
 $$$R@DISPSWP
               1 00000000 FFFFFFA6     J    5170  5183   5183
 $$$R@DSPSTAT
               1 00000000 FFFFFF9A     J    5464  5480   5480
 $$$R@EXRADD
               1 00000000 FFFFFF98     J    5700  5730   5730
 $$$R@EXRDEL
               1 00000000 FFFFFF97     J    5740  5753   5753
 $$$R@EXRDONE
               1 00000000 FFFFFF96     J    5763  5799   5799
 $$$R@FCACMOD
               1 00000000 FFFFFFCA     J    4099  4114   4114
 $$$R@FCAINFO
               1 00000000 FFFFFFCD     J    4020  4037   4037
 $$$R@FCALIS
               1 00000000 FFFFFFCB     J    4076  4093   4093
 $$$R@FCASACC
               1 00000000 FFFFFFD1     J    3885  3913   3913
 $$$R@FCAVALI
               1 00000000 FFFFFFD2     J    3865  3879   3879
1FILEMAN  (FILEMA) (09:39) (22MAR04) Ordinary Symbol and Literal Cross Reference                                            Page  254
 $$$R@FCDLETE
               1 00000000 FFFFFFC7     J    4163  4177   4177
 $$$R@FCEPUB
               1 00000000 FFFFFFCE     J    3999  4014   4014
 $$$R@FCFINFO
               1 00000000 FFFFFFD3     J    3844  3859   3859
 $$$R@FCFLIS
               1 00000000 FFFFFFCC     J    4043  4070   4070
 $$$R@FCGPERM
               1 00000000 FFFFFFCF     J    3952  3993   3993
 $$$R@FCNIXR
               1 00000000 FFFFFFD4     J    3807  3838   3838
 $$$R@FCPERM
               1 00000000 FFFFFFD5     J    3767  3801   3801
 $$$R@FCRNAME
               1 00000000 FFFFFFC8     J    4142  4157   4157
 $$$R@FCS111
               1 00000000 FFFFFFC9     J    4120  4136   4136
 $$$R@FCUINFO
               1 00000000 FFFFFFC6     J    4183  4278   4278
 $$$R@FCXTND
               1 00000000 FFFFFFD0     J    3919  3946   3946
 $$$R@FDOIODO
               1 00000000 FFFFFFD8     J    3666  3717   3717
 $$$R@FILEBLKI
               1 00000000 FFFFFFDD     J    3483  3527   3527
 $$$R@FILEHALT
               1 00000000 FFFFFFDB     J    3599  3612   3612
 $$$R@FMFINFO
               1 00000000 FFFFFFDC     J    3538  3589   3589
 $$$R@FMFSB
               1 00000000 FFFFFFD9     J    3638  3660   3660
 $$$R@FMIXRAD
               1 00000000 FFFFFFD6     J    3744  3761   3761
 $$$R@FMRQFB
               1 00000000 FFFFFFDA     J    3618  3631   3631
 $$$R@FSADDV
               1 00000000 FFFFFFD7     J    3723  3737   3737
 $$$R@GRES
               1 00000000 FFFFFF99     J    5492  5528   5528
 $$$R@HASH
               1 00000000 FFFFFF8C     J    6209  6233   6233
 $$$R@IXRGEPU
               1 00000000 FFFFFF85     J    6971  6986   6986
 $$$R@LADD
               1 00000000 FFFFFFE8     J    1764  1780   1780
 $$$R@LOCKCRE
               1 00000000 FFFFFFC5     J    4292  4314   4314
 $$$R@LOCKS
               1 00000000 FFFFFFC4     J    4320  4333   4333
 $$$R@LREM
               1 00000000 FFFFFFE7     J    1786  1803   1803
 $$$R@MONSET
               1 00000000 FFFFFF9B     J    5441  5454   5454
 $$$R@M1FILE
               1 00000000 FFFFFFDF     J    3309  3444   3444
 $$$R@M1FPOST
               1 00000000 FFFFFFDE     J    3455  3472   3472
 $$$R@PAGASC1
1FILEMAN  (FILEMA) (09:39) (22MAR04) Ordinary Symbol and Literal Cross Reference                                            Page  255
               1 00000000 FFFFFFBE     J    4511  4525   4525
 $$$R@PAGASC2
               1 00000000 FFFFFFBD     J    4531  4545   4545
 $$$R@PAGDEF
               1 00000000 FFFFFFC0     J    4451  4478   4478
 $$$R@PAGE
               1 00000000 FFFFFFBC     J    4551  4567   4567
 $$$R@PAGINIT
               1 00000000 FFFFFFB9     J    4613  4627   4627
 $$$R@PAGINTV
               1 00000000 FFFFFFBA     J    4594  4607   4607
 $$$R@PAGRV
               1 00000000 FFFFFFBB     J    4573  4588   4588
 $$$R@PAGSEGD
               1 00000000 FFFFFFBF     J    4484  4505   4505
 $$$R@PAGSWADV
               1 00000000 FFFFFFC2     J    4402  4415   4415
 $$$R@PAGSWAP
               1 00000000 FFFFFFC3     J    4348  4396   4396
 $$$R@PAGWSMA
               1 00000000 FFFFFFC1     J    4421  4445   4445
 $$$R@PERSET
               1 00000000 FFFFFF9C     J    5418  5431   5431
 $$$R@QUE      1 00000000 FFFFFFEC     J    1479  1494   1494
 $$$R@RELRQFB
               1 00000000 FFFFFF7C     J   34800 34813  34813
 $$$R@RESUME
               1 00000000 FFFFFFA7     J    5145  5160   5160
 $$$R@SBFREE
               1 00000000 FFFFFFB6     J    4718  4732   4732
 $$$R@SBGET
               1 00000000 FFFFFFB7     J    4692  4707   4707
 $$$R@SBINIT
               1 00000000 FFFFFFB8     J    4646  4681   4681
 $$$R@SETFNAM
               1 00000000 FFFFFF7D     J   34123 34137  34137
 $$$R@SIGNAL
               1 00000000 FFFFFFB3     J    4803  4823   4823
 $$$R@SUSPEND
               1 00000000 FFFFFFA8     J    5101  5135   5135
 $$$R@SYSRDEL
               1 00000000 FFFFFF9F     J    5346  5359   5359
 $$$R@SYSRDO
               1 00000000 FFFFFF9E     J    5369  5385   5385
 $$$R@SYSRNEW
               1 00000000 FFFFFFA0     J    5324  5337   5337
 $$$R@SYSRTN
               1 00000000 FFFFFF9D     J    5395  5408   5408
 $$$R@TCREATE
               1 00000000 FFFFFFA4     J    5216  5245   5245
 $$$R@TENTRY
               1 00000000 FFFFFFA2     J    5278  5291   5291
 $$$R@TEXIT
               1 00000000 FFFFFFA1     J    5301  5314   5314
 $$$R@TREMOVE
               1 00000000 FFFFFFA3     J    5255  5268   5268
 $$$R@VMFREE
               1 00000000 FFFFFFB1     J    4871  4886   4886
 $$$R@VMGET
1FILEMAN  (FILEMA) (09:39) (22MAR04) Ordinary Symbol and Literal Cross Reference                                            Page  256
               1 00000000 FFFFFFB2     J    4836  4865   4865
 $$$R@VMINFO
               1 00000000 FFFFFFB0     J    4892  4907   4907
 $$$R@XITDATA
               1 00000000 FFFFFF8F     J    6085  6098   6098
 $$$R@XITDEL
               1 00000000 FFFFFF94     J    5840  5853   5853
 $$$R@XITDO
               1 00000000 FFFFFF93     J    5862  5879   5879
 $$$R@XITGPST
               1 00000000 FFFFFF92     J    5890  5905   5905
 $$$R@XITMASK
               1 00000000 FFFFFF91     J    5915  5962   5962
 $$$R@XITNEW
               1 00000000 FFFFFF95     J    5809  5830   5830
 $$$RAHFB      1 00000000 FFFFFF8B     J    6243  6273   6273
 $$$RASB       1 00000000 FFFFFFE3     J    2923  2974   2974
 $$$RASFB      1 00000000 FFFFFF89     J    6338  6376   6376
 $$$RATFB      1 00000000 FFFFFF8A     J    6281  6329   6329
 $$$RFBHDR
               1 00000000 FFFFFFE5     J    2601  2637   2637
 $$$RFDEL      1 00000000 FFFFFF86     J    6927  6958   6958
 $$$RFILECB
               1 00000000 FFFFFFE6     J    2452  2594   2594
 $$$RFSB       1 00000000 FFFFFFE4     J    2644  2916   2916
 $$$RLELEM
               1 00000000 FFFFFFE9     J    1743  1758   1758
 $$$RLHEAD
               1 00000000 FFFFFFEA     J    1721  1737   1737
 $$$RMAT       1 00000000 FFFFFFED     J    1348  1407   1407
 $$$RNTRY      1 00000000 FFFFFFE2     J    2981  3193   3193
 $$$RNTRYPR
               1 00000000 FFFFFFE0     J    3221  3287   3287
 $$$RNTRYXTND
               1 00000000 FFFFFFE1     J    3199  3215   3215
 $$$RPZERO
               1 00000000 FFFFFFEE     J    1235  1326   1326
 $$$RRQFB      1 00000000 FFFFFF87     J    6891  6908   6908
 $$$RRQWB      1 00000000 FFFFFF88     J    6405  6883   6883
 $$$RSBWAIT
               1 00000000 FFFFFFB5     J    4738  4758   4758
 $$$RSLDUMMY
               1 00000000 FFFFFFEB     J    1693  1709   1709
 $$$RXITMSKD
               1 00000000 FFFFFF90     J    5988  6075   6075
 $$$RXITSAREA
               1 00000000 FFFFFF8E     J    6108  6124   6124
 $$$TR$0       4 00000E5C 00000001     A    7183  7177   7183
 $$$TR$1       4 00000E70 00000001     A    8850  8844   8850
 $$$TR$2       4 000056DC 00000001     A   38479 38473  38479
 $$$100E       2 00000494 00000001     H    8652  8646
 $$$100F       2 000004B8 00000001     H    8699  8648B
 $$$1000F      2 00005418 00000001     H   39293 39277B
 $$$1000S      2 00005406 00000001     H   39260 39289B
 $$$1005B      4 000054F6 00000001     I   39485 39498
 $$$1005F      2 000054FE 00000001     H   39495 39485B 39497
 $$$1005T      2 000054FA 00000001     H   39488 39476B
 $$$1007E      2 00005502 00000001     H   39505 39499
 $$$1007F      2 0000555A 00000001     H   39659 39501B
1FILEMAN  (FILEMA) (09:39) (22MAR04) Ordinary Symbol and Literal Cross Reference                                            Page  257
 $$$1008F      2 0000555A 00000001     H   39655 39542B
 $$$1009B      4 0000552C 00000001     I   39559 39573
 $$$1009F      2 00005534 00000001     H   39569 39559B 39572
 $$$101S       2 000004A4 00000001     H    8670  8688B
 $$$1010B      4 0000553C 00000001     I   39591 39605
 $$$1010E      2 00005538 00000001     H   39580 39574
 $$$1010F      2 00005544 00000001     H   39601 39576B 39591B 39604
 $$$1012B      4 0000554C 00000001     I   39621 39634
 $$$1012E      2 00005548 00000001     H   39612 39606
 $$$1012F      2 00005554 00000001     H   39631 39608B 39621B 39633
 $$$1014E      2 00005558 00000001     H   39641 39635
 $$$1014F      2 0000555A 00000001     H   39651 39637B
 $$$1015F      2 00005564 00000001     H   39679 39669B
 $$$1016F      2 00005674 00000001     H   40180 40053B 40161B
 $$$1017F      2 0000559C 00000001     H   39775 39765B
 $$$1018B      4 000055A2 00000001     I   39788 39817
 $$$1018F      2 000055AE 00000001     H   39814 39788B 39816
 $$$1020E      2 000055B2 00000001     H   39824 39818
 $$$1020F      2 000055D0 00000001     H   39901 39820B
 $$$1023F      2 00005638 00000001     H   40061 39916B
 $$$1024B      4 000055E6 00000001     I   39931 39989
 $$$1024F      2 0000560C 00000001     H   39986 39931B 39988
 $$$1025E      2 00005610 00000001     H   39996 39990
 $$$1025F      2 0000562E 00000001     H   40035 39992B
 $$$1026F      2 00005638 00000001     H   40057 40045B
 $$$1027B      4 00005640 00000001     I   40074 40108
 $$$1027F      2 00005656 00000001     H   40105 40074B 40107
 $$$1028F      2 00005654 00000001     H   40100 40090B
 $$$1029E      2 0000565A 00000001     H   40115 40109
 $$$1029F      2 0000565E 00000001     H   40122 40111B
 $$$1030B      4 0000565E 00000001     I   40129 40141
 $$$1030F      2 00005666 00000001     H   40138 40129B 40140
 $$$1031E      2 0000566A 00000001     H   40148 40142
 $$$1031F      2 0000566C 00000001     H   40158 40144B
 $$$1032F      2 00005D96 00000001     H   42705 41859B
 $$$1033B      4 00005724 00000001     I   40418 41150
 $$$1033F      2 0000590C 00000001     H   41145 40418B 41149
 $$$1036B      4 0000574A 00000001     I   40488 40533
 $$$1036F      2 0000575E 00000001     H   40530 40488B 40532
 $$$1037F      2 0000575A 00000001     H   40520 40505B
 $$$1038E      2 00005762 00000001     H   40540 40534
 $$$1038F      2 00005766 00000001     H   40547 40536B
 $$$1039B      4 0000576A 00000001     I   40560 40657
 $$$1039F      2 0000579A 00000001     H   40654 40560B 40656
 $$$1040F      2 0000577A 00000001     H   40592 40577B
 $$$1041B      4 0000577E 00000001     I   40603 40631
 $$$1041F      2 00005792 00000001     H   40628 40603B 40630
 $$$1042E      2 00005796 00000001     H   40638 40632
 $$$1042F      2 0000579A 00000001     H   40650 40634B
 $$$1043E      2 0000579E 00000001     H   40664 40658
 $$$1043F      2 000057A2 00000001     H   40671 40660B
 $$$1044S      2 000057BE 00000001     H   40690 40990B
 $$$1045B      4 000057C0 00000001     I   40701 40715
 $$$1045F      2 000057CE 00000001     H   40712 40701B 40714
 $$$1046E      2 000057D2 00000001     H   40722 40716
 $$$1046F      2 000057D6 00000001     H   40729 40718B
 $$$1047B      4 000057EA 00000001     I   40745 40764
 $$$1047F      2 000057F8 00000001     H   40761 40745B 40763
 $$$1048E      2 000057FC 00000001     H   40771 40765
1FILEMAN  (FILEMA) (09:39) (22MAR04) Ordinary Symbol and Literal Cross Reference                                            Page  258
 $$$1048F      2 00005808 00000001     H   40780 40767B
 $$$1049F      2 00005818 00000001     H   40806 40791B
 $$$1050F      2 0000589C 00000001     H   40964 40816B
 $$$1051F      2 0000588C 00000001     H   40939 40840B
 $$$1052F      2 00005872 00000001     H   40916 40863B 40882B 40901B
 $$$1052S      2 00005848 00000001     H   40850 40915B
 $$$1056F      2 00005898 00000001     H   40959 40949B
 $$$1059F      2 0000590C 00000001     H   41141 41006B
 $$$106B       4 0000052C 00000001     I    8905  8919
 $$$106F       2 00000536 00000001     H    8914  8893B  8905B  8916
 $$$1060B      4 000058B8 00000001     I   41022 41035
 $$$1060F      2 000058BE 00000001     H   41032 41022B 41034
 $$$1061E      2 000058C2 00000001     H   41042 41036
 $$$1061F      2 000058C6 00000001     H   41049 41038B
 $$$1062F      2 000058F6 00000001     H   41125 41070B 41089B 41112B
 $$$1062S      2 000058C8 00000001     H   41055 41124B
 $$$1066B      4 00005914 00000001     I   41166 41567
 $$$1066E      2 00005910 00000001     H   41157 41151
 $$$1066F      2 00005A6E 00000001     H   41563 41153B 41166B 41566
 $$$1069B      4 0000592E 00000001     I   41209 41231
 $$$1069F      2 00005948 00000001     H   41228 41209B 41230
 $$$107B       4 00000524 00000001     I    8893  8917
 $$$1070E      2 0000594C 00000001     H   41238 41232
 $$$1070F      2 00005952 00000001     H   41245 41234B
 $$$1072B      4 00005968 00000001     I   41284 41304
 $$$1072F      2 0000597C 00000001     H   41301 41284B 41303
 $$$1073E      2 00005980 00000001     H   41311 41305
 $$$1073F      2 00005986 00000001     H   41318 41307B
 $$$1074S      2 000059A6 00000001     H   41337 41554B
 $$$1075B      4 000059B2 00000001     I   41352 41366
 $$$1075F      2 000059BE 00000001     H   41363 41352B 41365
 $$$1076E      2 000059C2 00000001     H   41373 41367
 $$$1076F      2 000059CA 00000001     H   41386 41369B
 $$$1077B      4 000059D0 00000001     I   41398 41416
 $$$1077F      2 000059D8 00000001     H   41413 41398B 41415
 $$$1078E      2 000059DC 00000001     H   41423 41417
 $$$1078F      2 00005A5E 00000001     H   41530 41419B
 $$$1079F      2 00005A5E 00000001     H   41526 41444B
 $$$108E       2 0000053A 00000001     H    8926  8918   8920
 $$$108F       2 00000548 00000001     H    8946  8922B
 $$$1080B      4 000059FE 00000001     I   41460 41496
 $$$1080F      2 00005A2A 00000001     H   41493 41460B 41495
 $$$1081E      2 00005A2E 00000001     H   41503 41497
 $$$1081F      2 00005A32 00000001     H   41510 41499B
 $$$1084E      2 00005A72 00000001     H   41574 41568
 $$$1084F      2 00005AE8 00000001     H   41727 41570B
 $$$1086F      2 00005A94 00000001     H   41630 41610B
 $$$1088F      2 00005AB2 00000001     H   41684 41664B
 $$$109F       2 0000057A 00000001     H    9048  8961B
 $$$1090F      2 00005B0A 00000001     H   41779 41739B
 $$$1092F      2 00005B42 00000001     H   41855 41822B
 $$$1093B      4 00005B56 00000001     I   41876 41899
 $$$1093F      2 00005B66 00000001     H   41896 41876B 41898
 $$$1094E      2 00005B6A 00000001     H   41906 41900
 $$$1094F      2 00005BB2 00000001     H   41994 41902B
 $$$1095F      2 00005B80 00000001     H   41944 41928B
 $$$1095S      2 00005B6E 00000001     H   41913 41940B
 $$$1098F      2 00005BAA 00000001     H   41988 41972B
 $$$1098S      2 00005B98 00000001     H   41957 41984B
1FILEMAN  (FILEMA) (09:39) (22MAR04) Ordinary Symbol and Literal Cross Reference                                            Page  259
 $$$110B       4 0000055C 00000001     I    8977  9024
 $$$110F       2 00000570 00000001     H    9021  8977B  9023
 $$$1101F      2 00005C30 00000001     H   42127 42006B
 $$$1102F      2 00005C30 00000001     H   42123 42044B
 $$$1103F      2 00005C9C 00000001     H   42279 42239B
 $$$1104S      2 00005CAA 00000001     H   42295 42357B
 $$$1105B      4 00005CB0 00000001     I   42308 42331
 $$$1105F      2 00005CC8 00000001     H   42328 42308B 42330
 $$$1106E      2 00005CCC 00000001     H   42338 42332
 $$$1106F      2 00005CD0 00000001     H   42350 42334B
 $$$1108F      2 00005D4E 00000001     H   42517 42372B
 $$$1109F      2 00005CF4 00000001     H   42398 42387B
 $$$111E       2 00000574 00000001     H    9031  9025
 $$$111F       2 0000057A 00000001     H    9044  9027B
 $$$1110F      2 00005D16 00000001     H   42447 42431B
 $$$1110S      2 00005D04 00000001     H   42416 42443B
 $$$1113F      2 00005D4E 00000001     H   42513 42458B
 $$$1114F      2 00005D46 00000001     H   42506 42490B
 $$$1114S      2 00005D34 00000001     H   42475 42502B
 $$$1117F      2 00005D70 00000001     H   42583 42532B
 $$$1118F      2 00005D94 00000001     H   42658 42600B
 $$$1119F      2 00005E8E 00000001     H   43200 43056B
 $$$112F       2 000005B0 00000001     H    9163  9153B
 $$$1120F      2 00005E28 00000001     H   42984 42838B
 $$$1121S      2 00005DD8 00000001     H   42853 42935B
 $$$1122F      2 00005E06 00000001     H   42928 42866B
 $$$1124F      2 00005E4A 00000001     H   43048 43003B
 $$$1125B      4 00005E5E 00000001     I   43092 43105
 $$$1125F      2 00005E66 00000001     H   43102 43092B 43104
 $$$1126E      2 00005E6A 00000001     H   43112 43106
 $$$1126F      2 00005E6E 00000001     H   43119 43108B
 $$$1127S      2 00005E6E 00000001     H   43124 43162B
 $$$1128F      2 00005E84 00000001     H   43155 43137B
 $$$113S       2 000005E4 00000001     H    9242  9260B
 $$$1131F      2 00005EF6 00000001     H   43347 43321B
 $$$1133F      2 00005F8E 00000001     H   43568 43542B
 $$$1134B      4 00005FB6 00000001     I   43650 43664
 $$$1134F      2 00005FBE 00000001     H   43660 43650B 43663
 $$$1135B      4 00005FC6 00000001     I   43680 43694
 $$$1135E      2 00005FC2 00000001     H   43671 43665
 $$$1135F      2 00005FCE 00000001     H   43690 43667B 43680B 43693
 $$$1137E      2 00005FD2 00000001     H   43701 43695
 $$$1137F      2 00005FDE 00000001     H   43720 43697B 43710B
 $$$1139F      2 00006094 00000001     H   44073 43886B
 $$$1140F      2 00006034 00000001     H   43890 43878B
 $$$1142B      4 000060F4 00000001     I   44248 44294
 $$$1142F      2 00006122 00000001     H   44291 44248B 44293
 $$$1143E      2 00006126 00000001     H   44301 44295
 $$$1143F      2 0000612A 00000001     H   44308 44297B
 $$$1144S      2 0000613E 00000001     H   44329 44360B
 $$$1147F      2 000061CA 00000001     H   44566 44522B
 $$$1149F      2 0000620A 00000001     H   44690 44674B
 $$$1151B      4 0000623A 00000001     I   44836 44849
 $$$1151F      2 00006244 00000001     H   44845 44836B 44848
 $$$1152B      4 0000624C 00000001     I   44865 44877
 $$$1152E      2 00006248 00000001     H   44856 44850
 $$$1152F      2 00006256 00000001     H   44874 44852B 44865B 44876
 $$$1154E      2 0000625A 00000001     H   44884 44878
 $$$1154F      2 0000630E 00000001     H   45180 44880B
1FILEMAN  (FILEMA) (09:39) (22MAR04) Ordinary Symbol and Literal Cross Reference                                            Page  260
 $$$1155F      2 00006276 00000001     H   44914 44899B
 $$$1156F      2 00006282 00000001     H   44940 44925B
 $$$1157F      2 0000628E 00000001     H   44966 44951B
 $$$1158B      4 00006292 00000001     I   44977 44996
 $$$1158F      2 0000629A 00000001     H   44992 44977B 44995
 $$$1159E      2 0000629E 00000001     H   45003 44997
 $$$1159F      2 000062AA 00000001     H   45027 44999B 45012B
 $$$116F       2 00000AE0 00000001     H   11284 11131B
 $$$1161F      2 000062B6 00000001     H   45053 45038B
 $$$1162B      4 000062C6 00000001     I   45066 45079
 $$$1162F      2 000062D0 00000001     H   45076 45066B 45078
 $$$1163E      2 000062D4 00000001     H   45086 45080
 $$$1163F      2 0000630E 00000001     H   45176 45082B
 $$$1165F      2 00006392 00000001     H   45377 45351B
 $$$1166S      2 000063C0 00000001     H   45443 45454B
 $$$1169F      2 0000641C 00000001     H   45620 45601B
 $$$1169S      2 0000640A 00000001     H   45595 45619B
 $$$117B       4 00000682 00000001     I    9539 10011
 $$$117F       2 000007C6 00000001     H   10007  9539B 10010
 $$$1171F      2 00006448 00000001     H   45682 45657B
 $$$1171S      2 00006430 00000001     H   45651 45681B
 $$$120F       2 000006C4 00000001     H    9666  9656B
 $$$121F       2 000006F6 00000001     H    9725  9699B
 $$$121S       2 000006DE 00000001     H    9686  9722B
 $$$125F       2 0000074C 00000001     H    9831  9738B
 $$$126F       2 0000074C 00000001     H    9827  9801B
 $$$127S       2 0000077A 00000001     H    9854  9874B
 $$$130F       2 0000079E 00000001     H    9923  9900B
 $$$130S       2 00000790 00000001     H    9886  9920B
 $$$134S       2 000007A2 00000001     H    9932  9952B
 $$$137F       2 000007C6 00000001     H   10001  9978B
 $$$137S       2 000007B8 00000001     H    9964  9998B
 $$$141E       2 000007CA 00000001     H   10018 10012
 $$$141F       2 00000A58 00000001     H   11115 10014B
 $$$143F       2 0000085C 00000001     H   10279 10248B 10268B
 $$$143S       2 00000844 00000001     H   10241 10278B
 $$$146B       4 0000085E 00000001     I   10291 10308
 $$$146F       2 0000086E 00000001     H   10305 10291B 10307
 $$$147E       2 00000872 00000001     H   10315 10309
 $$$147F       2 00000958 00000001     H   10614 10311B
 $$$148F       2 00000892 00000001     H   10370 10344B
 $$$148S       2 0000087A 00000001     H   10331 10367B
 $$$152F       2 000008E8 00000001     H   10476 10383B
 $$$153F       2 000008E8 00000001     H   10472 10446B
 $$$154S       2 00000972 00000001     H   10644 10664B
 $$$157F       2 00000996 00000001     H   10713 10690B
 $$$157S       2 00000988 00000001     H   10676 10710B
 $$$161S       2 0000099A 00000001     H   10722 10742B
 $$$164F       2 000009BE 00000001     H   10791 10768B
 $$$164S       2 000009B0 00000001     H   10754 10788B
 $$$168F       2 00000A16 00000001     H   10968 10804B
 $$$169S       2 000009CA 00000001     H   10815 10835B
 $$$172F       2 000009EE 00000001     H   10884 10861B
 $$$172S       2 000009E0 00000001     H   10847 10881B
 $$$176S       2 000009F2 00000001     H   10893 10913B
 $$$179F       2 00000A16 00000001     H   10962 10939B
 $$$179S       2 00000A08 00000001     H   10925 10959B
 $$$183F       2 00000A58 00000001     H   11096 10998B
 $$$183S       2 00000A1E 00000001     H   10991 11095B
1FILEMAN  (FILEMA) (09:39) (22MAR04) Ordinary Symbol and Literal Cross Reference                                            Page  261
 $$$185F       2 00000A50 00000001     H   11090 11015B
 $$$186F       2 00000A50 00000001     H   11086 11040B
 $$$189F       2 00000A7C 00000001     H   11162 11146B
 $$$190F       2 00000A96 00000001     H   11197 11175B 11187B
 $$$192F       2 00000D64 00000001     H   12448 12391B
 $$$193B       4 00000B16 00000001     I   11385 11596
 $$$193F       2 00000B86 00000001     H   11592 11385B 11595
 $$$196S       2 00000B62 00000001     H   11512 11532B
 $$$199F       2 00000B86 00000001     H   11581 11558B
 $$$199S       2 00000B78 00000001     H   11544 11578B
 $$$203E       2 00000B8A 00000001     H   11603 11597
 $$$203F       2 00000D26 00000001     H   12374 11599B
 $$$204F       2 00000BAC 00000001     H   11672 11657B
 $$$205F       2 00000BB8 00000001     H   11698 11683B
 $$$206F       2 00000BCC 00000001     H   11738 11711B 11723B
 $$$208F       2 00000BE2 00000001     H   11781 11754B 11766B
 $$$210F       2 00000BEE 00000001     H   11808 11793B
 $$$211B       4 00000BF2 00000001     I   11819 11835
 $$$211F       2 00000BFC 00000001     H   11832 11819B 11834
 $$$212E       2 00000C00 00000001     H   11842 11836
 $$$212F       2 00000C06 00000001     H   11852 11838B
 $$$215F       2 00000C48 00000001     H   11925 11908B
 $$$218F       2 00000C98 00000001     H   12092 11940B 11952B 12062B
 $$$220F       2 00000C68 00000001     H   11986 11969B
 $$$222F       2 00000C80 00000001     H   12030 12001B 12013B
 $$$225F       2 00000C90 00000001     H   12065 12045B
 $$$230F       2 00000CC8 00000001     H   12152 12137B
 $$$231B       4 00000CCC 00000001     I   12163 12181
 $$$231F       2 00000CD4 00000001     H   12178 12163B 12180
 $$$232E       2 00000CD8 00000001     H   12188 12182
 $$$232F       2 00000CDC 00000001     H   12200 12184B
 $$$235F       2 00000D04 00000001     H   12275 12260B
 $$$236F       2 00000D26 00000001     H   12370 12286B
 $$$237S       2 00000D18 00000001     H   12336 12356B
 $$$241F       2 00000D9A 00000001     H   12535 12520B
 $$$242F       2 00000F0E 00000001     H   12856 12705B 12734B
 $$$243F       2 00000EC2 00000001     H   12709 12689B
 $$$245B       4 00000ECA 00000001     I   12727 12742
 $$$245F       2 00000ED2 00000001     H   12738 12727B 12741
 $$$246B       4 00000ED8 00000001     I   12757 12777
 $$$246E       2 00000ED6 00000001     H   12749 12743
 $$$246F       2 00000EEC 00000001     H   12774 12745B 12757B 12776
 $$$248E       2 00000EF0 00000001     H   12784 12778
 $$$248F       2 00000F0E 00000001     H   12836 12780B
 $$$249B       4 00000EF8 00000001     I   12797 12810
 $$$249F       2 00000F02 00000001     H   12807 12797B 12809
 $$$250E       2 00000F06 00000001     H   12817 12811
 $$$250F       2 00000F0E 00000001     H   12832 12813B
 $$$252F       2 00000F92 00000001     H   13108 12996B 13008B
 $$$254F       2 00000F7E 00000001     H   13075 13060B
 $$$258S       2 00000FB0 00000001     H   13159 13423B
 $$$261B       4 0000101C 00000001     I   13331 13385
 $$$261F       2 00001030 00000001     H   13382 13331B 13384
 $$$262B       4 00001024 00000001     I   13348 13364
 $$$262F       2 0000102A 00000001     H   13361 13348B 13363
 $$$263E       2 0000102E 00000001     H   13371 13365
 $$$263F       2 00001030 00000001     H   13378 13367B
 $$$264E       2 00001034 00000001     H   13392 13386
 $$$264F       2 00001038 00000001     H   13402 13388B
1FILEMAN  (FILEMA) (09:39) (22MAR04) Ordinary Symbol and Literal Cross Reference                                            Page  262
 $$$267F       2 000011B2 00000001     H   13890 13826B
 $$$267S       2 000010A6 00000001     H   13503 13889B
 $$$268B       4 000010AC 00000001     I   13517 13546
 $$$268F       2 000010B8 00000001     H   13543 13517B 13545
 $$$270E       2 000010BC 00000001     H   13553 13547
 $$$270F       2 00001166 00000001     H   13804 13549B
 $$$272B       4 000010F8 00000001     I   13647 13666
 $$$272F       2 00001102 00000001     H   13663 13647B 13665
 $$$273E       2 00001106 00000001     H   13673 13667
 $$$273F       2 00001128 00000001     H   13726 13669B
 $$$274B       4 00001110 00000001     I   13688 13707
 $$$274F       2 0000111A 00000001     H   13704 13688B 13706
 $$$275E       2 0000111E 00000001     H   13714 13708
 $$$275F       2 00001128 00000001     H   13722 13710B
 $$$278F       2 000011AE 00000001     H   13885 13844B
 $$$280B       4 000011DC 00000001     I   13931 14047
 $$$280F       2 00001248 00000001     H   14044 13931B 14046
 $$$281S       2 000011FE 00000001     H   13953 14020B
 $$$283F       2 00001230 00000001     H   14024 13986B
 $$$285E       2 0000124C 00000001     H   14054 14048
 $$$285F       2 00001258 00000001     H   14080 14050B
 $$$287S       2 00001268 00000001     H   14091 14179B
 $$$288F       2 0000127C 00000001     H   14135 14105B
 $$$290F       2 000012A2 00000001     H   14183 14147B
 $$$293B       4 000012EE 00000001     I   14289 14308
 $$$293F       2 000012F8 00000001     H   14305 14289B 14307
 $$$294E       2 000012FC 00000001     H   14315 14309
 $$$294F       2 0000131E 00000001     H   14368 14311B
 $$$295B       4 00001306 00000001     I   14330 14349
 $$$295F       2 00001310 00000001     H   14346 14330B 14348
 $$$296E       2 00001314 00000001     H   14356 14350
 $$$296F       2 0000131E 00000001     H   14364 14352B
 $$$299F       2 000013FE 00000001     H   14644 14585B 14598B
 $$$301S       2 00001412 00000001     H   14678 14725B
 $$$302F       2 00001428 00000001     H   14705 14692B
 $$$305F       2 000014EA 00000001     H   15084 14919B 14948B
 $$$306F       2 00001496 00000001     H   14923 14855B 14890B 14902B
 $$$308F       2 00001482 00000001     H   14905 14874B
 $$$312B       4 0000149E 00000001     I   14941 14956
 $$$312F       2 000014A6 00000001     H   14952 14941B 14955
 $$$313B       4 000014AC 00000001     I   14971 14991
 $$$313E       2 000014AA 00000001     H   14963 14957
 $$$313F       2 000014C0 00000001     H   14988 14959B 14971B 14990
 $$$315E       2 000014C4 00000001     H   14998 14992
 $$$315F       2 000014EA 00000001     H   15064 14994B
 $$$316B       4 000014D4 00000001     I   15025 15038
 $$$316F       2 000014DE 00000001     H   15035 15025B 15037
 $$$316T       2 000014D8 00000001     H   15028 15015B
 $$$318E       2 000014E2 00000001     H   15045 15039
 $$$318F       2 000014EA 00000001     H   15060 15041B
 $$$320F       2 0000158E 00000001     H   15364 15246B 15258B
 $$$322F       2 0000157A 00000001     H   15331 15316B
 $$$326S       2 000015C8 00000001     H   15449 15715B
 $$$327F       2 000015F6 00000001     H   15532 15463B
 $$$329B       4 0000161E 00000001     I   15618 15632
 $$$329F       2 00001628 00000001     H   15629 15618B 15631
 $$$330E       2 0000162C 00000001     H   15639 15633
 $$$330F       2 00001632 00000001     H   15650 15635B
 $$$334B       4 00001692 00000001     I   15798 15810
1FILEMAN  (FILEMA) (09:39) (22MAR04) Ordinary Symbol and Literal Cross Reference                                            Page  263
 $$$334F       2 00001698 00000001     H   15807 15798B 15809
 $$$335E       2 0000169C 00000001     H   15817 15811
 $$$335F       2 000016AE 00000001     H   15831 15813B
 $$$336F       2 000016D0 00000001     H   15871 15853B
 $$$338F       2 000016FA 00000001     H   15963 15886B
 $$$340B       4 000016E2 00000001     I   15903 15937
 $$$340F       2 000016F0 00000001     H   15933 15903B 15936
 $$$342E       2 000016F4 00000001     H   15944 15938
 $$$342F       2 000016FA 00000001     H   15957 15940B
 $$$344F       2 000018A4 00000001     H   16528 16439B
 $$$344S       2 000016FA 00000001     H   15969 16527B
 $$$345F       2 0000179A 00000001     H   16183 15983B
 $$$346B       4 0000171C 00000001     I   16017 16032
 $$$346F       2 00001726 00000001     H   16026 16004B 16017B 16029
 $$$347B       4 00001712 00000001     I   16004 16030
 $$$348E       2 0000172A 00000001     H   16039 16031  16033
 $$$348F       2 0000173A 00000001     H   16060 16035B 16051B
 $$$350F       2 0000174A 00000001     H   16084 16074B
 $$$351F       2 00001764 00000001     H   16117 16107B
 $$$351T       2 0000175E 00000001     H   16110 16096B
 $$$353F       2 00001774 00000001     H   16135 16125B
 $$$354F       2 0000179A 00000001     H   16179 16164B
 $$$355F       2 000017C8 00000001     H   16265 16196B
 $$$357B       4 000017D0 00000001     I   16280 16299
 $$$357F       2 000017DA 00000001     H   16296 16280B 16298
 $$$358E       2 000017DE 00000001     H   16306 16300
 $$$358F       2 000017EC 00000001     H   16315 16302B
 $$$361F       2 000018A0 00000001     H   16523 16469B
 $$$362F       2 0000187A 00000001     H   16501 16484B
 $$$363F       2 000018F0 00000001     H   16659 16570B 16582B
 $$$366B       4 000018D8 00000001     I   16599 16633
 $$$366F       2 000018E6 00000001     H   16629 16599B 16632
 $$$368E       2 000018EA 00000001     H   16640 16634
 $$$368F       2 000018F0 00000001     H   16653 16636B
 $$$370F       2 0000191A 00000001     H   16728 16689B
 $$$370T       2 00001902 00000001     H   16692 16676B
 $$$372B       4 0000193E 00000001     I   16753 16956
 $$$372F       2 000019C8 00000001     H   16952 16753B 16955
 $$$373F       2 000019A2 00000001     H   16882 16773B
 $$$376F       2 000019A2 00000001     H   16878 16819B
 $$$379F       2 000019C8 00000001     H   16947 16898B 16911B
 $$$383B       4 000019D2 00000001     I   16975 17091
 $$$383E       2 000019CC 00000001     H   16963 16957
 $$$383F       2 00001A56 00000001     H   17088 16959B 16975B 17090
 $$$385F       2 00001A4E 00000001     H   17082 17042B
 $$$386E       2 00001A5A 00000001     H   17098 17092
 $$$386F       2 00001A5C 00000001     H   17108 17094B
 $$$387F       2 00001A7C 00000001     H   17151 17133B
 $$$389F       2 00001C08 00000001     H   17663 17575B
 $$$389S       2 00001A7C 00000001     H   17159 17662B
 $$$390F       2 00001B02 00000001     H   17319 17173B
 $$$391F       2 00001ABC 00000001     H   17233 17224B
 $$$391T       2 00001AB6 00000001     H   17227 17211B
 $$$393F       2 00001ACC 00000001     H   17257 17247B
 $$$394B       4 00001ACE 00000001     I   17267 17284
 $$$394F       2 00001ADE 00000001     H   17281 17267B 17283
 $$$395E       2 00001AE2 00000001     H   17291 17285
 $$$395F       2 00001B02 00000001     H   17315 17287B
 $$$396B       4 00001B0A 00000001     I   17334 17353
1FILEMAN  (FILEMA) (09:39) (22MAR04) Ordinary Symbol and Literal Cross Reference                                            Page  264
 $$$396F       2 00001B14 00000001     H   17350 17334B 17352
 $$$397E       2 00001B18 00000001     H   17360 17354
 $$$397F       2 00001B26 00000001     H   17369 17356B
 $$$398F       2 00001B54 00000001     H   17451 17382B
 $$$402F       2 00001C04 00000001     H   17658 17607B
 $$$403F       2 00001BEA 00000001     H   17639 17622B
 $$$404B       4 00001C80 00000001     I   17811 17925
 $$$404F       2 00001CF2 00000001     H   17922 17811B 17924
 $$$405F       2 00001CD2 00000001     H   17871 17861B
 $$$406F       2 00001CE2 00000001     H   17894 17884B
 $$$407F       2 00001CF2 00000001     H   17918 17908B
 $$$408E       2 00001CF6 00000001     H   17932 17926
 $$$408F       2 00001D04 00000001     H   17945 17928B
 $$$409B       4 00001D0E 00000001     I   17961 18035
 $$$409F       2 00001D34 00000001     H   18032 17961B 18034
 $$$411E       2 00001D38 00000001     H   18042 18036
 $$$411F       2 00001D70 00000001     H   18174 18038B
 $$$412S       2 00001D48 00000001     H   18090 18110B
 $$$415F       2 00001D6C 00000001     H   18159 18136B
 $$$415S       2 00001D5E 00000001     H   18122 18156B
 $$$421F       2 00001E1E 00000001     H   18385 18329B
 $$$421T       2 00001DEC 00000001     H   18332 18319B
 $$$423F       2 00001E0E 00000001     H   18360 18350B
 $$$424F       2 00001E1E 00000001     H   18381 18371B
 $$$425F       2 00001E48 00000001     H   18458 18399B 18412B
 $$$427S       2 00001E5C 00000001     H   18492 18526B
 $$$428F       2 00001E72 00000001     H   18519 18506B
 $$$430F       2 000023C6 00000001     H   20818 19484B 19829B 20105B 20713B 20721B 20729B 20737B 20745B 20752B 20766B
 $$$434F       2 00001F1A 00000001     H   18769 18743B
 $$$436B       4 00001F24 00000001     I   18787 18821
 $$$436F       2 00001F38 00000001     H   18817 18787B 18820
 $$$438E       2 00001F3C 00000001     H   18828 18822
 $$$438F       2 00001F46 00000001     H   18844 18824B
 $$$441B       4 00001F54 00000001     I   18884 18918
 $$$441F       2 00001F68 00000001     H   18914 18884B 18917
 $$$443E       2 00001F6C 00000001     H   18925 18919
 $$$443F       2 00001F76 00000001     H   18941 18921B
 $$$445F       2 00001F90 00000001     H   18997 18970B
 $$$445T       2 00001F88 00000001     H   18973 18959B
 $$$450F       2 00001FA0 00000001     H   19027 19010B
 $$$452B       4 00001FA8 00000001     I   19044 19078
 $$$452F       2 00001FBC 00000001     H   19074 19044B 19077
 $$$454B       4 00001FC4 00000001     I   19094 19127
 $$$454E       2 00001FC0 00000001     H   19085 19079
 $$$454F       2 00001FD6 00000001     H   19124 19081B 19094B 19126
 $$$457E       2 00001FDA 00000001     H   19134 19128
 $$$457F       2 00001FE4 00000001     H   19159 19130B
 $$$459F       2 00002002 00000001     H   19204 19176B 19188B
 $$$461F       2 00002024 00000001     H   19247 19222B 19234B
 $$$463F       2 00002048 00000001     H   19287 19264B 19276B
 $$$467B       4 00002066 00000001     I   19343 19600
 $$$467F       2 000020F6 00000001     H   19597 19343B 19599
 $$$47F        2 000004BC 00000001     H    8731  7487B
 $$$473F       2 000020B8 00000001     H   19488 19476B
 $$$477E       2 000020FA 00000001     H   19607 19601
 $$$477F       2 0000211E 00000001     H   19695 19603B
 $$$478F       2 0000210A 00000001     H   19649 19622B
 $$$48F        2 0000004E 00000001     H    7173  7150B
 $$$485B       4 00002130 00000001     I   19729 19898
1FILEMAN  (FILEMA) (09:39) (22MAR04) Ordinary Symbol and Literal Cross Reference                                            Page  265
 $$$485F       2 00002196 00000001     H   19895 19729B 19897
 $$$489F       2 00002166 00000001     H   19833 19821B
 $$$491E       2 0000219A 00000001     H   19905 19899
 $$$491F       2 000021AA 00000001     H   19942 19901B
 $$$492F       2 000021AA 00000001     H   19936 19919B
 $$$496F       2 000021C6 00000001     H   19995 19978B
 $$$498F       2 0000220A 00000001     H   20113 20013B
 $$$50F        2 0000006A 00000001     H    7263  7247B
 $$$500F       2 0000220A 00000001     H   20109 20097B
 $$$501F       2 0000222E 00000001     H   20190 20131B
 $$$505F       2 0000222E 00000001     H   20184 20167B
 $$$509F       2 0000225E 00000001     H   20290 20231B
 $$$51F        2 0000008A 00000001     H    7321  7295B
 $$$51S        2 00000072 00000001     H    7282  7318B
 $$$513F       2 0000225E 00000001     H   20284 20267B
 $$$515F       2 00002282 00000001     H   20367 20308B
 $$$519F       2 00002282 00000001     H   20361 20344B
 $$$523F       2 000022BA 00000001     H   20484 20425B
 $$$527F       2 000022BA 00000001     H   20478 20461B
 $$$529F       2 000022D8 00000001     H   20521 20505B
 $$$530B       4 000022DC 00000001     I   20532 20586
 $$$530F       2 00002300 00000001     H   20583 20532B 20585
 $$$531F       2 000022FC 00000001     H   20578 20548B
 $$$532F       2 000022F8 00000001     H   20573 20563B
 $$$533E       2 00002304 00000001     H   20593 20587
 $$$533F       2 0000230A 00000001     H   20599 20589B
 $$$540F       2 00003172 00000001     H   26197 21044B
 $$$541F       2 000024D2 00000001     H   21124 21115B
 $$$542F       2 00002518 00000001     H   21301 21132B
 $$$543B       4 000024DE 00000001     I   21147 21209
 $$$543F       2 000024FC 00000001     H   21206 21147B 21208
 $$$544E       2 00002500 00000001     H   21216 21210
 $$$544F       2 00002518 00000001     H   21297 21212B
 $$$545S       2 0000250C 00000001     H   21262 21280B
 $$$549B       4 0000253A 00000001     I   21343 21378
 $$$549F       2 00002558 00000001     H   21375 21343B 21377
 $$$55F        2 000000E0 00000001     H    7424  7334B
 $$$550F       2 00002556 00000001     H   21370 21358B
 $$$551E       2 0000255C 00000001     H   21385 21379
 $$$551F       2 00002596 00000001     H   21475 21381B
 $$$552B       4 00002560 00000001     I   21397 21439
 $$$552F       2 0000258A 00000001     H   21436 21397B 21438
 $$$554E       2 0000258E 00000001     H   21446 21440
 $$$554F       2 00002596 00000001     H   21471 21442B
 $$$558B       4 000025C2 00000001     I   21532 21549
 $$$558F       2 000025CC 00000001     H   21546 21532B 21548
 $$$559E       2 000025D0 00000001     H   21556 21550
 $$$559F       2 0000260A 00000001     H   21621 21552B
 $$$56F        2 000000E0 00000001     H    7420  7394B
 $$$560B       4 000025D4 00000001     I   21568 21599
 $$$560F       2 00002600 00000001     H   21596 21568B 21598
 $$$561E       2 00002604 00000001     H   21606 21600
 $$$561F       2 0000260A 00000001     H   21617 21602B
 $$$563B       4 00002628 00000001     I   21658 21675
 $$$563F       2 00002632 00000001     H   21672 21658B 21674
 $$$564E       2 00002636 00000001     H   21682 21676
 $$$564F       2 00002670 00000001     H   21747 21678B
 $$$565B       4 0000263A 00000001     I   21694 21725
 $$$565F       2 00002666 00000001     H   21722 21694B 21724
1FILEMAN  (FILEMA) (09:39) (22MAR04) Ordinary Symbol and Literal Cross Reference                                            Page  266
 $$$566E       2 0000266A 00000001     H   21732 21726
 $$$566F       2 00002670 00000001     H   21743 21728B
 $$$567B       4 0000269A 00000001     I   21797 22350
 $$$567F       2 0000280E 00000001     H   22347 21797B 22349
 $$$569F       2 00002738 00000001     H   22080 22053B
 $$$57B        4 000000F8 00000001     I    7449  7767
 $$$57F        2 000001E4 00000001     H    7764  7449B  7766
 $$$571B       4 00002780 00000001     I   22197 22287
 $$$571F       2 000027D6 00000001     H   22283 22197B 22286
 $$$572F       2 000027D6 00000001     H   22279 22216B
 $$$573S       2 000027A6 00000001     H   22231 22270B
 $$$574F       2 000027CA 00000001     H   22263 22244B
 $$$576E       2 000027DA 00000001     H   22294 22288
 $$$576F       2 0000280E 00000001     H   22343 22290B 22303B
 $$$578S       2 000027EC 00000001     H   22318 22334B
 $$$58F        2 0000011A 00000001     H    7491  7466B  7478B
 $$$580E       2 00002812 00000001     H   22357 22351
 $$$580F       2 00002970 00000001     H   22949 22353B
 $$$582B       4 00002848 00000001     I   22478 22498
 $$$582F       2 0000285A 00000001     H   22495 22478B 22497
 $$$582T       2 0000284C 00000001     H   22481 22468B
 $$$584E       2 0000285E 00000001     H   22505 22499
 $$$584F       2 00002866 00000001     H   22512 22501B
 $$$585F       2 000028A4 00000001     H   22650 22624B
 $$$585S       2 0000288C 00000001     H   22611 22647B
 $$$589F       2 000028FA 00000001     H   22756 22663B
 $$$590F       2 000028FA 00000001     H   22752 22726B
 $$$591F       2 00002922 00000001     H   22807 22792B
 $$$592F       2 0000292E 00000001     H   22833 22818B
 $$$593S       2 00002936 00000001     H   22842 22860B
 $$$596F       2 00002970 00000001     H   22935 22874B
 $$$597B       4 0000297A 00000001     I   22978 23101
 $$$597F       2 000029BA 00000001     H   23098 22978B 23100
 $$$599E       2 000029BE 00000001     H   23108 23102
 $$$599F       2 000029F8 00000001     H   23193 23104B
 $$$60F        2 00000136 00000001     H    7539  7513B
 $$$60S        2 0000011E 00000001     H    7500  7536B
 $$$600F       2 000029EE 00000001     H   23184 23169B
 $$$601F       2 00002A52 00000001     H   23342 23327B
 $$$601T       2 00002A4E 00000001     H   23330 23317B
 $$$603F       2 00002A76 00000001     H   23375 23356B
 $$$604F       2 00002A9C 00000001     H   23449 23434B
 $$$606F       2 00002AEE 00000001     H   23607 23592B
 $$$608F       2 00002B42 00000001     H   23762 23747B
 $$$610F       2 00002B90 00000001     H   23916 23901B
 $$$612F       2 00002BDE 00000001     H   24070 24055B
 $$$614B       4 00002C2C 00000001     I   24198 24222
 $$$614F       2 00002C40 00000001     H   24217 24186B 24198B 24219
 $$$615B       4 00002C24 00000001     I   24186 24220
 $$$616E       2 00002C44 00000001     H   24229 24221  24223
 $$$616F       2 00002C70 00000001     H   24303 24225B
 $$$617B       4 00002C4C 00000001     I   24242 24255
 $$$617F       2 00002C54 00000001     H   24251 24242B 24254
 $$$618B       4 00002C5C 00000001     I   24271 24286
 $$$618E       2 00002C58 00000001     H   24262 24256
 $$$618F       2 00002C68 00000001     H   24283 24258B 24271B 24285
 $$$620E       2 00002C6C 00000001     H   24293 24287
 $$$620F       2 00002C70 00000001     H   24299 24289B
 $$$623F       2 00002CB0 00000001     H   24421 24411B
1FILEMAN  (FILEMA) (09:39) (22MAR04) Ordinary Symbol and Literal Cross Reference                                            Page  267
 $$$623T       2 00002CA8 00000001     H   24414 24401B
 $$$625F       2 00002D1C 00000001     H   24629 24430B
 $$$626B       4 00002CBA 00000001     I   24441 24561
 $$$626F       2 00002CFC 00000001     H   24558 24441B 24560
 $$$627F       2 00002CFC 00000001     H   24554 24507B
 $$$628E       2 00002D00 00000001     H   24568 24562
 $$$628F       2 00002D1C 00000001     H   24625 24564B
 $$$629B       4 00002D5A 00000001     I   24706 24720
 $$$629F       2 00002D62 00000001     H   24715 24694B 24706B 24717
 $$$630B       4 00002D52 00000001     I   24694 24718
 $$$631E       2 00002D66 00000001     H   24727 24719  24721
 $$$631F       2 00002D6A 00000001     H   24733 24723B
 $$$632B       4 00002D7A 00000001     I   24749 24902
 $$$632F       2 00002DFE 00000001     H   24898 24749B 24901
 $$$633F       2 00002DFE 00000001     H   24894 24769B
 $$$634F       2 00002DFE 00000001     H   24890 24791B
 $$$635B       4 00002DB4 00000001     I   24813 24825
 $$$635F       2 00002DBC 00000001     H   24822 24813B 24824
 $$$636E       2 00002DC0 00000001     H   24832 24826
 $$$636F       2 00002DC6 00000001     H   24842 24828B
 $$$637S       2 00002DDA 00000001     H   24863 24882B
 $$$639B       4 00002E06 00000001     I   24918 25065
 $$$639E       2 00002E02 00000001     H   24909 24903
 $$$639F       2 00002E78 00000001     H   25062 24905B 24918B 25064
 $$$64F        2 0000018C 00000001     H    7635  7552B
 $$$641S       2 00002E1E 00000001     H   24938 25053B
 $$$642F       2 00002E32 00000001     H   24961 24949B
 $$$643B       4 00002E3A 00000001     I   24974 24987
 $$$643F       2 00002E46 00000001     H   24984 24974B 24986
 $$$644E       2 00002E4A 00000001     H   24994 24988
 $$$644F       2 00002E4E 00000001     H   25004 24990B
 $$$645S       2 00002E56 00000001     H   25014 25027B
 $$$649E       2 00002E7C 00000001     H   25072 25066
 $$$649F       2 00002F88 00000001     H   25357 25068B
 $$$65F        2 0000018C 00000001     H    7631  7605B
 $$$650F       2 00002F80 00000001     H   25351 25085B
 $$$651B       4 00002E8A 00000001     I   25100 25310
 $$$651F       2 00002F50 00000001     H   25307 25100B 25309
 $$$652S       2 00002E9A 00000001     H   25123 25287B
 $$$653F       2 00002F2C 00000001     H   25277 25140B
 $$$654B       4 00002EB6 00000001     I   25158 25170
 $$$654F       2 00002EBC 00000001     H   25167 25158B 25169
 $$$655E       2 00002EC0 00000001     H   25177 25171
 $$$655F       2 00002ED4 00000001     H   25188 25173B
 $$$656F       2 00002F18 00000001     H   25234 25206B
 $$$657B       4 00002F1A 00000001     I   25244 25259
 $$$657F       2 00002F20 00000001     H   25256 25244B 25258
 $$$658E       2 00002F24 00000001     H   25266 25260
 $$$658F       2 00002F2C 00000001     H   25273 25262B
 $$$66B        4 000001CC 00000001     I    7726  7747
 $$$66F        2 000001DA 00000001     H    7742  7713B  7726B  7744
 $$$660E       2 00002F54 00000001     H   25317 25311
 $$$660F       2 00002F80 00000001     H   25347 25313B
 $$$661B       4 00002FB2 00000001     I   25429 25479
 $$$661F       2 00002FCE 00000001     H   25475 25429B 25478
 $$$662E       2 00002FD2 00000001     H   25486 25480
 $$$662F       2 0000301A 00000001     H   25602 25482B 25495B
 $$$664F       2 0000301A 00000001     H   25598 25543B
 $$$665S       2 00003000 00000001     H   25553 25590B
1FILEMAN  (FILEMA) (09:39) (22MAR04) Ordinary Symbol and Literal Cross Reference                                            Page  268
 $$$666F       2 00003012 00000001     H   25583 25570B
 $$$668F       2 000030C0 00000001     H   25848 25705B 25717B
 $$$67B        4 000001C2 00000001     I    7713  7745
 $$$670F       2 000030A6 00000001     H   25797 25782B
 $$$671F       2 000030B0 00000001     H   25822 25807B
 $$$673F       2 00003140 00000001     H   26071 26012B 26025B
 $$$675S       2 00003154 00000001     H   26105 26139B
 $$$676F       2 0000316A 00000001     H   26132 26119B
 $$$678F       2 00003D1A 00000001     H   30452 26616B 26719B 26988B 27074B 27370B 27476B 27661B 27849B 28032B 28194B
                                                 28287B 28352B 28540B 28692B 29091B 29177B 29376B 29465B 29533B 29686B
                                                 29803B 29999B 30138B 30194B
 $$$679B       4 00003310 00000001     I   26443 26455
 $$$679F       2 00003318 00000001     H   26452 26443B 26454
 $$$68E        2 000001DE 00000001     H    7754  7746   7748
 $$$68F        2 000001E4 00000001     H    7760  7750B
 $$$680E       2 0000331C 00000001     H   26462 26456
 $$$680F       2 00003324 00000001     H   26486 26458B
 $$$685F       2 00003372 00000001     H   26620 26608B
 $$$686B       4 00003382 00000001     I   26634 26647
 $$$686F       2 0000338C 00000001     H   26644 26634B 26646
 $$$687E       2 00003390 00000001     H   26654 26648
 $$$687F       2 000033C4 00000001     H   26729 26650B
 $$$688F       2 000033BA 00000001     H   26723 26711B
 $$$69E        2 000001E8 00000001     H    7774  7768
 $$$69F        2 0000025C 00000001     H    7861  7770B
 $$$694F       2 0000347E 00000001     H   26992 26980B
 $$$695B       4 0000348E 00000001     I   27006 27212
 $$$695F       2 00003508 00000001     H   27209 27006B 27211
 $$$696F       2 000034BC 00000001     H   27078 27066B
 $$$697B       4 000034CC 00000001     I   27100 27112
 $$$697F       2 000034D6 00000001     H   27109 27100B 27111
 $$$697T       2 000034D0 00000001     H   27103 27092B
 $$$699E       2 000034DA 00000001     H   27119 27113
 $$$699F       2 00003508 00000001     H   27205 27115B
 $$$70F        2 00000228 00000001     H    7826  7800B
 $$$70T        2 000001F8 00000001     H    7803  7790B
 $$$701E       2 0000350C 00000001     H   27219 27213
 $$$701F       2 00003512 00000001     H   27226 27215B
 $$$704F       2 00003572 00000001     H   27374 27362B
 $$$705B       4 00003578 00000001     I   27386 27404
 $$$705F       2 00003586 00000001     H   27401 27386B 27403
 $$$706E       2 0000358A 00000001     H   27411 27405
 $$$706F       2 000035CC 00000001     H   27515 27407B
 $$$707F       2 000035B4 00000001     H   27480 27468B
 $$$708F       2 000035CC 00000001     H   27511 27496B
 $$$710B       4 000035FC 00000001     I   27583 27674
 $$$710F       2 00003634 00000001     H   27671 27583B 27673
 $$$711F       2 0000362A 00000001     H   27665 27653B
 $$$712E       2 00003638 00000001     H   27681 27675
 $$$712F       2 0000363E 00000001     H   27688 27677B
 $$$716F       2 000036A4 00000001     H   27853 27841B
 $$$718F       2 000036DC 00000001     H   27956 27928B
 $$$72F        2 0000026A 00000001     H    7890  7875B
 $$$720F       2 00003706 00000001     H   28036 28024B
 $$$723F       2 0000377A 00000001     H   28198 28186B
 $$$724F       2 000037B4 00000001     H   28296 28214B
 $$$725F       2 000037AE 00000001     H   28291 28279B
 $$$726F       2 000037E0 00000001     H   28356 28344B
 $$$729F       2 00003824 00000001     H   28471 28461B
1FILEMAN  (FILEMA) (09:39) (22MAR04) Ordinary Symbol and Literal Cross Reference                                            Page  269
 $$$73F        2 00000286 00000001     H    7925  7910B
 $$$730F       2 00003854 00000001     H   28544 28532B
 $$$732B       4 00003870 00000001     I   28601 28620
 $$$732F       2 0000387A 00000001     H   28617 28601B 28619
 $$$733E       2 0000387E 00000001     H   28627 28621
 $$$733F       2 000038E6 00000001     H   28783 28623B
 $$$734F       2 000038A8 00000001     H   28696 28684B
 $$$738B       4 000038F8 00000001     I   28811 28841
 $$$738F       2 00003904 00000001     H   28837 28811B 28840
 $$$74F        2 00000292 00000001     H    7951  7936B
 $$$740B       4 0000390C 00000001     I   28859 28889
 $$$740E       2 00003908 00000001     H   28848 28842
 $$$740F       2 00003918 00000001     H   28885 28844B 28859B 28888
 $$$743B       4 00003920 00000001     I   28907 28937
 $$$743E       2 0000391C 00000001     H   28896 28890
 $$$743F       2 0000392C 00000001     H   28933 28892B 28907B 28936
 $$$746B       4 00003934 00000001     I   28955 28984
 $$$746E       2 00003930 00000001     H   28944 28938
 $$$746F       2 00003940 00000001     H   28981 28940B 28955B 28983
 $$$75F        2 0000029E 00000001     H    7977  7962B
 $$$751F       2 00003980 00000001     H   29095 29083B
 $$$753F       2 000039BA 00000001     H   29181 29169B
 $$$758F       2 00003A36 00000001     H   29380 29368B
 $$$76F        2 000002EA 00000001     H    8020  8004B
 $$$760F       2 00003A80 00000001     H   29469 29457B
 $$$761F       2 00003AAA 00000001     H   29537 29525B
 $$$764F       2 00003B26 00000001     H   29690 29678B
 $$$767F       2 00003B82 00000001     H   29807 29795B
 $$$77F        2 00000306 00000001     H    8068  8032B
 $$$771B       4 00003BD0 00000001     I   29926 30061
 $$$771F       2 00003C1C 00000001     H   30058 29926B 30060
 $$$772F       2 00003BFC 00000001     H   30003 29991B
 $$$773F       2 00003C16 00000001     H   30037 30021B
 $$$773S       2 00003C04 00000001     H   30010 30033B
 $$$777E       2 00003C20 00000001     H   30068 30062
 $$$777F       2 00003C3E 00000001     H   30129 30064B
 $$$778F       2 00003C38 00000001     H   30108 30092B
 $$$778S       2 00003C28 00000001     H   30076 30104B
 $$$78F        2 00000306 00000001     H    8064  8048B
 $$$782F       2 00003CB2 00000001     H   30235 30220B
 $$$783F       2 00003CC0 00000001     H   30264 30249B
 $$$784F       2 00003CEA 00000001     H   30336 30278B
 $$$785F       2 00003CEA 00000001     H   30332 30294B
 $$$787F       2 00003D00 00000001     H   30375 30358B
 $$$789F       2 00003D0E 00000001     H   30406 30389B
 $$$79F        2 0000031E 00000001     H    8098  8081B
 $$$791F       2 000044D6 00000001     H   33443 30681B 30734B 30898B 31035B 31189B 31325B 31347B 31542B 31754B 31850B
                                                 31888B 31931B 32008B 32061B 32389B 32523B 32561B 32709B 33043B 33102B
                                                 33160B 33286B 33376B 33408B
 $$$792F       2 00003DD2 00000001     H   30592 30583B
 $$$793F       2 00003E0A 00000001     H   30673 30658B
 $$$794F       2 00003E76 00000001     H   30845 30798B
 $$$796F       2 00003E76 00000001     H   30841 30815B 30827B
 $$$798F       2 00003E82 00000001     H   30871 30856B
 $$$799F       2 00003E98 00000001     H   30895 30886B
 $$$80F        2 0000033A 00000001     H    8146  8110B
 $$$800F       2 00003ED6 00000001     H   30999 30984B
 $$$800T       2 00003ED2 00000001     H   30987 30974B
 $$$802F       2 00003EFA 00000001     H   31032 31014B
1FILEMAN  (FILEMA) (09:39) (22MAR04) Ordinary Symbol and Literal Cross Reference                                            Page  270
 $$$803F       2 00003F2E 00000001     H   31138 31089B
 $$$805F       2 00003F2E 00000001     H   31134 31106B 31121B
 $$$807F       2 00003F58 00000001     H   31186 31153B
 $$$808F       2 00003F52 00000001     H   31181 31171B
 $$$809F       2 00003F84 00000001     H   31265 31250B
 $$$81F        2 0000033A 00000001     H    8142  8126B
 $$$810F       2 00003F90 00000001     H   31291 31276B
 $$$811F       2 00003FAA 00000001     H   31321 31311B
 $$$812F       2 00003FC0 00000001     H   31351 31339B
 $$$813F       2 00003FE8 00000001     H   31414 31399B
 $$$814F       2 00003FF4 00000001     H   31440 31425B
 $$$815F       2 0000401E 00000001     H   31539 31455B
 $$$816S       2 00004010 00000001     H   31505 31525B
 $$$819F       2 00004056 00000001     H   31620 31605B
 $$$82F        2 0000038A 00000001     H    8295  8161B
 $$$820F       2 00004062 00000001     H   31646 31631B
 $$$821F       2 00004090 00000001     H   31751 31667B
 $$$822S       2 00004082 00000001     H   31717 31737B
 $$$825B       4 000040A8 00000001     I   31805 31818
 $$$825F       2 000040B0 00000001     H   31815 31805B 31817
 $$$826E       2 000040B4 00000001     H   31825 31819
 $$$826F       2 000040B8 00000001     H   31832 31821B
 $$$827F       2 0000413E 00000001     H   32005 31996B
 $$$828F       2 000041D2 00000001     H   32277 32246B 32266B
 $$$828S       2 000041BA 00000001     H   32239 32276B
 $$$83F        2 0000037A 00000001     H    8249  8202B
 $$$83T        2 0000035C 00000001     H    8205  8180B  8192B
 $$$831B       4 000041D4 00000001     I   32288 32301
 $$$831F       2 000041DC 00000001     H   32298 32288B 32300
 $$$832E       2 000041E0 00000001     H   32308 32302
 $$$832F       2 000041F6 00000001     H   32354 32304B
 $$$833B       4 0000427E 00000001     I   32537 32582
 $$$833F       2 000042A8 00000001     H   32578 32537B 32581
 $$$834F       2 0000429C 00000001     H   32565 32553B
 $$$835B       4 000042B0 00000001     I   32600 32628
 $$$835E       2 000042AC 00000001     H   32589 32583
 $$$835F       2 000042CA 00000001     H   32624 32585B 32600B 32627
 $$$837B       4 000042D2 00000001     I   32646 32666
 $$$837E       2 000042CE 00000001     H   32635 32629
 $$$837F       2 000042DE 00000001     H   32662 32631B 32646B 32665
 $$$839E       2 000042E2 00000001     H   32673 32667
 $$$839F       2 000042F2 00000001     H   32699 32669B 32684B
 $$$841F       2 00004344 00000001     H   32823 32806B
 $$$841S       2 00004336 00000001     H   32795 32819B
 $$$844B       4 0000449E 00000001     I   33341 33353
 $$$844F       2 000044A8 00000001     H   33350 33341B 33352
 $$$845E       2 000044AC 00000001     H   33360 33354
 $$$845F       2 000044B6 00000001     H   33373 33356B
 $$$846F       2 000044CE 00000001     H   33404 33394B
 $$$848F       2 00004744 00000001     H   33922 33888B 33895B 33902B
 $$$849F       2 000046DE 00000001     H   33739 33698B
 $$$856F       2 0000470E 00000001     H   33841 33826B
 $$$859F       2 0000479C 00000001     H   34074 33995B
 $$$86B        4 0000039E 00000001     I    8324  8339
 $$$86F        2 000003AC 00000001     H    8334  8312B  8324B  8336
 $$$860F       2 000049BE 00000001     H   34779 34293B 34563B 34671B
 $$$863F       2 00004814 00000001     H   34297 34285B
 $$$864B       4 0000481A 00000001     I   34310 34375
 $$$864F       2 00004844 00000001     H   34372 34310B 34374
1FILEMAN  (FILEMA) (09:39) (22MAR04) Ordinary Symbol and Literal Cross Reference                                            Page  271
 $$$868E       2 00004848 00000001     H   34382 34376
 $$$868F       2 00004874 00000001     H   34440 34378B
 $$$869B       4 0000485C 00000001     I   34395 34407
 $$$869F       2 00004864 00000001     H   34404 34395B 34406
 $$$87B        4 00000396 00000001     I    8312  8337
 $$$870E       2 00004868 00000001     H   34414 34408
 $$$870F       2 00004874 00000001     H   34436 34410B
 $$$871F       2 00004874 00000001     H   34432 34423B
 $$$872F       2 0000488A 00000001     H   34468 34455B
 $$$872S       2 0000487A 00000001     H   34450 34467B
 $$$875        6 00005156 00000001     I   34504 34496X
 $$$876        6 00005156 00000001     I   34503 34504  34504
 $$$877F       2 000048CA 00000001     H   34567 34555B
 $$$878F       2 000048E2 00000001     H   34604 34593B
 $$$878S       2 000048D6 00000001     H   34590 34603B
 $$$88E        2 000003B0 00000001     H    8346  8338   8340
 $$$88F        2 000003BE 00000001     H    8366  8342B
 $$$880F       2 000048F0 00000001     H   34634 34619B
 $$$881F       2 000048FE 00000001     H   34663 34648B
 $$$883F       2 00004CFE 00000001     H   36317 34919B
 $$$885F       2 00004CA2 00000001     H   36116 34943B
 $$$886F       2 00004A2A 00000001     H   35035 34999B
 $$$887F       2 00004A46 00000001     H   35076 35047B
 $$$888B       4 00004A4A 00000001     I   35088 35515
 $$$888F       2 00004B52 00000001     H   35511 35088B 35514
 $$$889S       2 00004A52 00000001     H   35099 35118B
 $$$89F        2 000003CE 00000001     H    8391  8381B
 $$$892S       2 00004A62 00000001     H   35130 35149B
 $$$895F       2 00004B52 00000001     H   35507 35167B
 $$$896F       2 00004A9C 00000001     H   35272 35246B
 $$$896S       2 00004A84 00000001     H   35233 35269B
 $$$90F        2 000003DE 00000001     H    8414  8404B
 $$$900F       2 00004AF2 00000001     H   35378 35285B
 $$$901F       2 00004AF2 00000001     H   35374 35348B
 $$$902S       2 00004B12 00000001     H   35398 35416B
 $$$905F       2 00004B4C 00000001     H   35491 35430B
 $$$906E       2 00004B56 00000001     H   35522 35516
 $$$906F       2 00004C48 00000001     H   35975 35518B
 $$$907S       2 00004B5A 00000001     H   35530 35549B
 $$$91F        2 000003EE 00000001     H    8437  8427B
 $$$910S       2 00004B6A 00000001     H   35561 35580B
 $$$913B       4 00004BA8 00000001     I   35673 35709
 $$$913F       2 00004BC0 00000001     H   35706 35673B 35708
 $$$914E       2 00004BC4 00000001     H   35716 35710
 $$$914F       2 00004C48 00000001     H   35961 35712B
 $$$915F       2 00004BEC 00000001     H   35794 35767B
 $$$917S       2 00004C02 00000001     H   35822 35841B
 $$$92F        2 000003FE 00000001     H    8460  8450B
 $$$920S       2 00004C12 00000001     H   35853 35872B
 $$$923F       2 00004C48 00000001     H   35957 35890B 35902B
 $$$925F       2 00004CA2 00000001     H   36107 35986B
 $$$926F       2 00004C7C 00000001     H   36062 36002B
 $$$927S       2 00004C90 00000001     H   36079 36097B
 $$$93B        4 0000041A 00000001     I    8480  8570
 $$$93F        2 0000044E 00000001     H    8566  8480B  8569
 $$$930F       2 00004CD6 00000001     H   36237 36210B
 $$$932S       2 00004CEA 00000001     H   36254 36272B
 $$$936S       2 00004D4E 00000001     H   36476 36494B
 $$$939F       2 00004E18 00000001     H   36910 36568B
1FILEMAN  (FILEMA) (09:39) (22MAR04) Ordinary Symbol and Literal Cross Reference                                            Page  272
 $$$939T       2 00004D74 00000001     H   36571 36558B
 $$$94S        2 0000043A 00000001     H    8537  8555B
 $$$941B       4 00004D7C 00000001     I   36584 36642
 $$$941F       2 00004D94 00000001     H   36639 36584B 36641
 $$$942E       2 00004D98 00000001     H   36649 36643
 $$$942F       2 00004E02 00000001     H   36865 36645B
 $$$943F       2 00004E02 00000001     H   36861 36717B
 $$$944S       2 00004DC8 00000001     H   36726 36853B
 $$$946F       2 00004E38 00000001     H   36968 36922B
 $$$947S       2 00004E3C 00000001     H   36976 36995B
 $$$951S       2 00004E9C 00000001     H   37203 37221B
 $$$954S       2 00004EF8 00000001     H   37394 37412B
 $$$957S       2 00004F08 00000001     H   37425 37444B
 $$$961S       2 00004F64 00000001     H   37625 38038B
 $$$962B       4 00004F6A 00000001     I   37640 37662
 $$$962F       2 00004F84 00000001     H   37659 37640B 37661
 $$$963E       2 00004F88 00000001     H   37669 37663
 $$$963F       2 00005068 00000001     H   38034 37665B
 $$$964F       2 00004FA4 00000001     H   37717 37691B
 $$$964S       2 00004F8C 00000001     H   37678 37714B
 $$$968B       4 00004FA6 00000001     I   37730 37815
 $$$968F       2 00004FE6 00000001     H   37812 37730B 37814
 $$$969S       2 00004FAE 00000001     H   37741 37761B
 $$$97B        4 00000454 00000001     I    8585  8645
 $$$97E        2 00000452 00000001     H    8577  8571
 $$$97F        2 00000490 00000001     H    8642  8573B  8585B  8644
 $$$973E       2 00004FEA 00000001     H   37822 37816
 $$$973F       2 00005068 00000001     H   38030 37818B
 $$$974F       2 00005006 00000001     H   37870 37844B
 $$$974S       2 00004FEE 00000001     H   37831 37867B
 $$$978B       4 00005008 00000001     I   37883 37958
 $$$978F       2 00005048 00000001     H   37955 37883B 37957
 $$$979S       2 00005010 00000001     H   37894 37914B
 $$$983E       2 0000504C 00000001     H   37965 37959
 $$$983F       2 00005068 00000001     H   38026 37961B
 $$$986F       2 000051CC 00000001     H   38336 38310B
 $$$987F       2 00005318 00000001     H   38974 38535B 38643B 38662B 38784B
 $$$990F       2 00005254 00000001     H   38606 38553B
 $$$991F       2 0000526A 00000001     H   38647 38632B
 $$$993F       2 00005294 00000001     H   38722 38680B
 $$$994F       2 000052B4 00000001     H   38769 38734B
 $$$997F       2 00005482 00000001     H   39385 39319B 39326B 39333B
 $$$998F       2 000053AA 00000001     H   39157 39145B
 $FILEIO9      2 000004C6 00000001     H    8755  8754
 #BLKDBLF      4 00000000 FFFFFF78     F   40258 41297M 41314M 41319
 #BLKDBLK      4 00000014 FFFFFF78     F   40263 40685M 41471M 42118M 42524  42579M 42579
 #BLKDBLL      4 00000004 FFFFFF78     F   40259 41224M 41241M 41320
 #BLKDBUD      4 00000010 FFFFFF78     A   40262 41821M 41821  41847  42231  42275M 42286  42588
 #BLKDBUF      4 0000000C FFFFFF78     A   40261 40725M 40802M 40802  41045  41576M 41723M 41723  41738M 41738  41771
                                                 42086  42205  42224M 42362  42448  42507
 #BLKDCNT      4 00000008 FFFFFF78     F   40260 40676M 40738  40750  40757M 40757  40773  40775M 40987M 40987  41325M
                                                 41341  41359M 41382M 41382  41551M 41551
 #BLKDD1B     64 0000001C FFFFFF78        40276 40646M 41005
 #BLKDD2B     32 0000001C FFFFFF78        40281 40526M 40602  40624M 40839  40935M
 #BLKDEL      29 00000000 FFFFFF78     J   40290 40338U 40405M 40405
 #BLKDFLG      1 0000001C FFFFFF78     R   40267 40271  40276  40281
 #BLKDMIS    128 0000001C FFFFFF78        40271 40516M 40588M 41219M 41294M 41409M 41626M 41680M 41789  42346M
 #BLKDRET      4 00000018 FFFFFF78     A   40264 41863M 42130
 #CHKACC       3 00000000 FFFFFF7A     J   39087 39134U
1FILEMAN  (FILEMA) (09:39) (22MAR04) Ordinary Symbol and Literal Cross Reference                                            Page  273
 #CHKACFG      2 00000001 FFFFFF7A     C   39080 39181M 39182M 39188  39196
 #CHKACFI      1 00000000 FFFFFF7A     X   39079 39240M 39274
 #FATCH        1 00000000 FFFFFF82     J    9381  9422U  9526M
 #FATCHF       1 00000000 FFFFFF82     R    9368  9372
 #FATCHFN    128 00000000 FFFFFF82         9372 10610M 10803
 #FMANFDB     21 00000000 FFFFFF7B     X   36337 36459M 36514U
 #FMANFDT     21 00000000 FFFFFF7B     J   36344 36401U
 #ICONBLK      4 00000010 FFFFFF7F     A   20882 24380M 24512  24665  24673  24870  24955  25180  25401  25632
 #ICONBU1      4 00000000 FFFFFF7F     A   20878 22490M 22490  25218  25292  25522  25898M 26073
 #ICONBU2      4 00000004 FFFFFF7F     A   20879 22275M 22339M 25148M
 #ICONBU3      4 00000008 FFFFFF7F     A   20880 24680M
 #ICONBU4      4 0000000C FFFFFF7F     A   20881 25184M
 #ICONCNT      4 00000014 FFFFFF7F     A   20883 24168M 24315  24326  24422  24513  24666  25406  25633
 #ICONFLG      1 00000018 FFFFFF7F     R   20886 20890
 #ICONSET    128 00000018 FFFFFF7F        20890 25205  25216M
 #ICONT       25 00000000 FFFFFF7F     J   20899 20940U 21015M 21015
 #REABCNT      4 00000018 FFFFFF81     A   12895 13431M 13797  13799  13800M 14441  14443  14444M 14570
 #REAIXE       4 00000010 FFFFFF81     A   12893 14083M 14104
 #REAIXR       4 00000004 FFFFFF81     A   12890 13494M 14030  14039M 14056M
 #REALCNT      4 0000001C FFFFFF81     A   12896 13477M 13634  13659M 13659  13700M 13700  13716  13718M 13823M 13823
                                                 13915M 14276  14301M 14301  14342M 14342  14358  14360M 14455M 14455
 #REANBLK      4 00000014 FFFFFF81     A   12894 13430M 13476M 13810  13811M 13914M 14011  14012M 14175  14176M 14273
                                                 14274M 14571
 #REASIX       4 00000000 FFFFFF81     A   12889 13937M 14646
 #REASIXE      4 0000000C FFFFFF81     A   12892 13939M 13966
 #REAUSE       4 00000008 FFFFFF81     A   12891 13206  13226M 13318  13596  13616M 14230  14250M
 #REAWK       32 00000000 FFFFFF81     J   12903 12943U 12982M 12982
 #STATACC      6 00000000 FFFFFF7E     C   26293 29567  29575M
 #STATDFF      4 00000002 FFFFFF7E     C   26295 29540M
 #STATGRP      2 00000000 FFFFFF7E     C   26294 29539M
 #STATNAM     40 00000004 FFFFFF7E     C   26291 27122M
 #STATORV      4 00000000 FFFFFF7E     C   26290 26292  27121M 27155
 #STATWK      44 00000000 FFFFFF7E     J   26303 26353U
 #WRIBASR      4 00000020 FFFFFF80     A   15138 17798M 17946
 #WRIBAS2      4 00000024 FFFFFF80     A   15139 18044M 18170
 #WRIBCNT      4 0000000C FFFFFF80     A   15119 16398  16401  16402M 17535  17537  17538M 18334
 #WRICBLK      4 00000014 FFFFFF80     A   15121 15779M 16085  16113  16118  16131  16451  16452M 16732M 17587  17588M
                                                 18335
 #WRIFIXR     64 0000001D FFFFFF80        15135 16175M 16483  16495M 17183M 17621  17633M 18271M 18288M 18349
 #WRIFLG       1 0000001D FFFFFF80     R   15126 15130  15135
 #WRIFSIX    128 0000001D FFFFFF80        15130 16153M 16988M 17298M 17821M 18266M 18283M 18370
 #WRIIXR       4 00000004 FFFFFF80     A   15117 15827M 16512  16517M 16549M 16758M 16845  17187  17595  17634  17799
                                                 17934  18355
 #WRIIXRN      3 0000001A FFFFFF80     C   15123 15787M 16022  16050  16056  16073  16080  16456  16458M 16508M 16508
                                                 16740M 16834M 16834  16910M 16910  16921  17115  17208  17229  17246
                                                 17253  17592  17594M 17653M 17653
 #WRILCNT      4 00000010 FFFFFF80     A   15120 15777M 16267  16292M 16292  16309  16311M 16436M 16436  16730M 17321
                                                 17346M 17346  17363  17365M 17572M 17572
 #WRISIX       4 00000000 FFFFFF80     A   15116 15775M 16724M 16758  16759M 16982  17299  17833  18376  18460
 #WRISIXN      2 00000018 FFFFFF80     H   15122 16738M 17645  17646M 17860  17867  17890  17907  17914
 #WRIUSE       4 00000008 FFFFFF80     A   15118 15396M 15441  16358  16396  17494  17533
 #WRIWK       40 00000000 FFFFFF80     J   15146 15193U 15232M 15232
 @ACAASB       4 00000000 FFFFFFAE     A    4957 44555M
 @ACAINFO     24 00000000 FFFFFFAE     J    4968 44536U 44544M 44544
 @ACAUID       8 00000004 FFFFFFAE     C    4958 44560  44562
 @ACAUPR       4 0000000C FFFFFFAE     A    4959  4960
 @ACREATE      8 00000000 FFFFFFA5     J    5206 38110U 38118M 38118
 @ACRPSW       8 00000000 FFFFFFA5     D    5199 38119M 38136M 38145M
 @AWAIT        5 00000000 FFFFFFB4     J    4792 37980U 37988M 37988
1FILEMAN  (FILEMA) (09:39) (22MAR04) Ordinary Symbol and Literal Cross Reference                                            Page  274
 @AWTECB       4 00000000 FFFFFFB4     A    4776 38005M
 @AWTFLG       1 00000004 FFFFFFB4     R    4779  4783
 @AWTLONG    128 00000004 FFFFFFB4         4783 38011M
 @BLKDADR      4 00000004 FFFFFF79     A   40238 21093M 40369  41479  41511  41864  41945  41989
 @BLKDCNT      4 00000008 FFFFFF79     F   40239 21120  40827  40828M 41518  41519M 41692M
 @BLKDEL      12 00000000 FFFFFF79     J   40246 21063U 21071M 21071  40331U 40338U
 @BLKDRQW      4 00000000 FFFFFF79     A   40237 21082M 40341
 @CHKACC      10 00000000 FFFFFF83     J    7051 19849U 19857M 19857  26743U 26751M 26751  26793M 26793  26864M 26864
                                                 27240U 27248M 27248  27529U 27537M 27537  27702U 27710M 27710  28052U
                                                 28060M 28060  28712U 28720M 28720  29554U 29562M 29562  34525U 34533M
                                                 34533  39127U 39134U
 @CHKACCD      1 00000006 FFFFFF83     C    7043 39152M 39158
 @CHKACCG      2 00000004 FFFFFF83     C    7042 39151M 39173  39181
 @CHKACCN      6 00000004 FFFFFF83     C    7041 19862M 19870  26756M 26764  26798M 26806  26869M 26877  27253M 27261
                                                 27542M 27550  27715M 27723  28065M 28073  28725M 28733  29567M 29575
                                                 34538M 34546  39138  39150  39151
 @CHKACCU      3 00000007 FFFFFF83     C    7044 39153M 39176
 @CHKAFSB      4 00000000 FFFFFF83     A    7040 19871  26765  26807  26878  27262  27551  27724  28074  28734  29576
                                                 34547  39311M
 @CHKMEM       8 00000000 FFFFFF84     J    7016 13260U 13268M 13268  13740U 13748M 13748  14383U 14391M 14391  15481U
                                                 15489M 15489  16214U 16222M 16222  17400U 17408M 17408  19436U 19444M
                                                 19444  19769U 19777M 19777  20051U 20059M 20059  26556U 26564M 26564
                                                 26667M 26667  26934U 26942M 26942  27022M 27022  27316U 27324M 27324
                                                 27424M 27424  27601U 27609M 27609  27801U 27809M 27809  27972U 27980M
                                                 27980  28140U 28148M 28148  28230M 28230  28312M 28312  28486U 28494M
                                                 28494  28640M 28640  29038U 29046M 29046  29137M 29137  29322U 29330M
                                                 29330  29419M 29419  29481M 29481  29632U 29640M 29640  29757M 29757
                                                 29942M 29942  34245U 34253M 34253  39453U 39946U 39954M 39954  40009M
                                                 40009
 @CMEMFL       1 00000007 FFFFFF84     R    7003  7007
 @CMEMKEY      1 00000006 FFFFFF84     X    7000 13283M 13763M 14406M 15504M 16237M 17423M 19459M 19804M 20074M 26591M
                                                 26694M 26957M 27049M 27339M 27451M 27636M 27824M 28007M 28163M 28262M
                                                 28327M 28509M 28667M 29066M 29152M 29345M 29434M 29508M 29655M 29772M
                                                 29974M 34268M 39525  39969M 40024M
 @CMEMLEN      2 00000004 FFFFFF84     H    6999 13278M 13758M 14401M 15499M 16232M 17418M 19454M 19799M 20069M 26586M
                                                 26689M 26952M 27044M 27334M 27446M 27631M 27819M 28002M 28158M 28257M
                                                 28322M 28504M 28662M 29061M 29147M 29340M 29429M 29503M 29650M 29767M
                                                 29969M 34263M 39462  39527  39964M 40019M
 @CMEMLOC      4 00000000 FFFFFF84     A    6998 13273M 13753M 14396M 15494M 16227M 17413M 19449M 19782M 20064M 26569M
                                                 26672M 26947M 27027M 27329M 27429M 27614M 27814M 27985M 28153M 28240M
                                                 28317M 28499M 28645M 29051M 29142M 29335M 29424M 29486M 29645M 29762M
                                                 29952M 34258M 39461  39526  39959M 40014M
 @CMEMWRT    128 00000007 FFFFFF84         7007 13289M 13769M 14412M 20080M 26963M 27345M 28169M 28515M 29351M 29440M
                                                 29661M 29778M 39620  39975M
 @DELIXR       8 00000000 FFFFFF77     J   42746 36598U 36606M 36606  36675M 36675  36810U 36818M 36818  37312U 37320M
                                                 37320  42617U 42625M 42625  42787U
 @EXRAFLG      1 00000014 FFFFFF98     R    5712  5716   5721
 @EXRDCD       1 00000000 FFFFFF96     R    5771  5780   5790
 @FCACCNT      6 00000008 FFFFFFCA     C    4107 18002M 21188M 22549M 24483M 24607M 31794M 31880M 31918M 32048M
 @FCACFSB      4 00000000 FFFFFFCA     A    4105 17997M 21183M 22544M 24478M 24602M 31789M 31875M 31913M 32043M
 @FCACMOD     14 00000000 FFFFFFCA     J    4114 17978U 17986M 17986  21164U 21172M 21172  22525U 22533M 22533  24459U
                                                 24467M 24467  24583U 24591M 24591  31770U 31778M 31778  31864M 31864
                                                 31902M 31902  32024U 32032M 32032
 @FCACSPA      4 00000004 FFFFFFCA     F    4106 18007M 21198M 22559M 24493M 24617M 31842M 31923M 32053M
 @FCAIABK      4 00000010 FFFFFFCD     A    4029 31158
 @FCAIACC      6 00000004 FFFFFFCD     C    4027 31075M
 @FCAIFSB      4 00000000 FFFFFFCD     A    4026 31070M
 @FCAINFO     24 00000000 FFFFFFCD     J    4037 31051U 31059M 31059
 @FCAIUBK      4 00000014 FFFFFFCD     A    4030 31182
1FILEMAN  (FILEMA) (09:39) (22MAR04) Ordinary Symbol and Literal Cross Reference                                            Page  275
 @FCAIUSE      6 0000000A FFFFFFCD     C    4028 31130M
 @FCALCNT      4 0000000C FFFFFFCB     A    4085 32001
 @FCALFSB      4 00000000 FFFFFFCB     A    4082 31966M
 @FCALIS      22 00000000 FFFFFFCB     J    4093 31947U 31955M 31955
 @FCALLEN      4 00000008 FFFFFFCB     A    4084 31976M
 @FCALLOC      4 00000004 FFFFFFCB     A    4083 31971M
 @FCALNAM      6 00000010 FFFFFFCB     C    4086 31981M
 @FCASACC     58 00000000 FFFFFFD1     J    3913 23122U 23130M 23130
 @FCASFLG      1 00000039 FFFFFFD1     R    3900  3904
 @FCASFM     128 00000039 FFFFFFD1         3904 23180M
 @FCASFSB      4 00000000 FFFFFFD1     A    3891 23141M
 @FCASNAM     40 00000010 FFFFFFD1     C    3896 23156M
 @FCASPRI      1 00000038 FFFFFFD1     X    3897 23158M
 @FCASUSE      6 0000000A FFFFFFD1     C    3893 23151M
 @FCASUSR      6 00000004 FFFFFFD1     C    3892 23146M
 @FCDLETE     44 00000000 FFFFFFC7     J    4177 22371U 22379M 22379  32322U 32330M 32330
 @FCDLFSB      4 00000000 FFFFFFC7     A    4169 22390M 32341M
 @FCDLNAM     40 00000004 FFFFFFC7     C    4170 22395M 32346M
 @FCEPACC      6 00000004 FFFFFFCE     C    4006 30721M
 @FCEPFSB      4 00000000 FFFFFFCE     A    4005 30716M
 @FCEPPUB      1 0000000A FFFFFFCE     X    4007 30726M
 @FCEPUB      11 00000000 FFFFFFCE     J    4014 30697U 30705M 30705
 @FCFFSB       4 00000000 FFFFFFD3     A    3850 23489M 23647M 23802M 23956M 24110M
 @FCFINF      21 0000002C FFFFFFD3     C    3852 23504U 23662U 23817U 23971U 24125U
 @FCFINFO     65 00000000 FFFFFFD3     J    3859 23470U 23478M 23478  23628U 23636M 23636  23783U 23791M 23791  23937U
                                                 23945M 23945  24091U 24099M 24099
 @FCFLCLP    128 00000010 FFFFFFCC         4059 30867M
 @FCFLCNT      4 0000000C FFFFFFCC     A    4052 30891
 @FCFLFLG      1 00000010 FFFFFFCC     R    4055  4059
 @FCFLFSB      4 00000000 FFFFFFCC     A    4049 30769M
 @FCFLIS      63 00000000 FFFFFFCC     J    4070 30750U 30758M 30758
 @FCFLLEN      4 00000008 FFFFFFCC     A    4051 30779M
 @FCFLLOC      4 00000004 FFFFFFCC     A    4050 30774M
 @FCFLNAM     40 00000017 FFFFFFCC     C    4063 30784M
 @FCFLUSE      6 00000011 FFFFFFCC     C    4062 30837M
 @FCFNAM      40 00000004 FFFFFFD3     C    3851 23494M 23652M 23807M 23961M 24115M
 @FCGPACC      6 00000019 FFFFFFCF     C    3985 30953M
 @FCGPCNT      4 0000000C FFFFFFCF     A    3961 23361  31019
 @FCGPERM     71 00000000 FFFFFFCF     J    3993 23262U 23270M 23270  30914U 30922M 30922
 @FCGPFA      64 00000010 FFFFFFCF         3973 30959M
 @FCGPFF     128 00000010 FFFFFFCF         3968 23302M
 @FCGPFLG      1 00000010 FFFFFFCF     R    3964  3968   3973   3978
 @FCGPFM      32 00000010 FFFFFFCF         3978 23338M 30995M
 @FCGPFSB      4 00000000 FFFFFFCF     A    3958 23281M 30933M
 @FCGPLEN      4 00000008 FFFFFFCF     A    3960 23291M 30943M
 @FCGPLOC      4 00000004 FFFFFFCF     A    3959 23286M 30938M
 @FCGPMS       1 00000012 FFFFFFCF     X    3982 23370
 @FCGPNAM     40 0000001F FFFFFFCF     C    3986 23296M
 @FCGPPP       1 00000011 FFFFFFCF     X    3981 23367  31025
 @FCGPUSE      6 00000013 FFFFFFCF     C    3984 30948M
 @FCNACC       6 0000000D FFFFFFD4     C    3830 31239M 31388M 31594M
 @FCNBLKC      4 00000004 FFFFFFD4     A    3814 31229M 31317  31378M 31584M
 @FCNFHYB     64 0000000C FFFFFFD4         3827 31652M
 @FCNFLAG      1 0000000C FFFFFFD4     R    3818  3822   3827
 @FCNFMAG    128 0000000C FFFFFFD4         3822 31261M 31287M 31410M 31436M 31616M 31642M
 @FCNFSB       4 00000000 FFFFFFD4     A    3813 31224M 31373M 31574M
 @FCNIXR      59 00000000 FFFFFFD4     J    3838 31205U 31213M 31213  31362M 31362  31563M 31563
 @FCNNAME     40 00000013 FFFFFFD4     C    3831 31234M 31383M 31589M
 @FCPACC       6 0000000D FFFFFFD5     C    3790 11646M
1FILEMAN  (FILEMA) (09:39) (22MAR04) Ordinary Symbol and Literal Cross Reference                                            Page  276
 @FCPBLK       4 00000004 FFFFFFD5     A    3774 11893
 @FCPBLKC      4 00000008 FFFFFFD5     A    3775 11894
 @FCPCODE      1 0000003D FFFFFFD5     X    3794 11892
 @FCPERM      62 00000000 FFFFFFD5     J    3801 11617U 11625M 11625  35919U 35927M 35927
 @FCPFLAG      1 0000000C FFFFFFD5     R    3778  3782   3787
 @FCPFLGO      1 0000003B FFFFFFD5     X    3792 11891  12094
 @FCPFMAG    128 0000000C FFFFFFD5         3782 11668M 11694M 35949M
 @FCPFNAX     64 0000000C FFFFFFD5         3787 11734M 11777M 11804M
 @FCPFSB       4 00000000 FFFFFFD5     A    3773 11636M 35938M
 @FCPNAME     40 00000013 FFFFFFD5     C    3791 11641M 35943M
 @FCPPERM      1 0000003C FFFFFFD5     X    3793 11889
 @FCRNAME     77 00000000 FFFFFFC8     J    4157 21814U 21822M 21822
 @FCRNAM1     40 00000004 FFFFFFC8     C    4149 21834M
 @FCRNAM2     33 0000002C FFFFFFC8     C    4150 21839M
 @FCRNFSB      4 00000000 FFFFFFC8     A    4148 21833M
 @FCS1FSB      4 00000000 FFFFFFC9     A    4126 33137M
 @FCS1LEN      4 00000008 FFFFFFC9     A    4128 33147M
 @FCS1LOC      4 00000004 FFFFFFC9     A    4127 33142M
 @FCS1NAM     40 0000000C FFFFFFC9     C    4129 33152M
 @FCS111      52 00000000 FFFFFFC9     J    4136 33118U 33126M 33126
 @FCUIBLK      4 00000030 FFFFFFC6     F    4192 25401M 33088M
 @FCUICLO     16 00000039 FFFFFFC6         4249 23912M
 @FCUICLP     32 00000039 FFFFFFC6         4244 23889M
 @FCUICNT      4 00000034 FFFFFFC6     F    4193 25406M
 @FCUIFLG      1 00000038 FFFFFFC6     R    4196  4200   4205   4210   4215   4220   4225
 @FCUIFL2      1 00000039 FFFFFFC6     R    4230  4234   4239   4244   4249   4254   4259   4264   4269
 @FCUIFRM     64 00000038 FFFFFFC6         4205 23603M
 @FCUIFSB      4 00000000 FFFFFFC6     A    4189 23014M 23228M 23411M 23565M 23724M 23878M 24032M 25391M 33078M
 @FCUIHYB      2 00000039 FFFFFFC6         4264 25412M
 @FCUINAM     40 00000004 FFFFFFC6     C    4190 23019M 23233M 23416M 23570M 23729M 23883M 24037M 25396M 33083M
 @FCUINCL    128 00000039 FFFFFFC6         4234 23735M
 @FCUINCO     64 00000039 FFFFFFC6         4239 23758M
 @FCUINEW      1 00000039 FFFFFFC6         4269 33094M
 @FCUINF       4 0000002C FFFFFFC6     C    4191 23021M 23235M 23575M
 @FCUINFO     58 00000000 FFFFFFC6     J    4278 22995U 23003M 23003  23209U 23217M 23217  23392U 23400M 23400  23546U
                                                 23554M 23554  23705U 23713M 23713  23859U 23867M 23867  24013U 24021M
                                                 24021  25372U 25380M 25380  33059U 33067M 33067
 @FCUIOWN     32 00000038 FFFFFFC6         4210 23027M
 @FCUIPUB     16 00000038 FFFFFFC6         4215 23241M
 @FCUISHO      4 00000038 FFFFFFC6         4225 23445M
 @FCUISHR      8 00000038 FFFFFFC6         4220 23422M
 @FCUISPI      8 00000039 FFFFFFC6         4254 24043M
 @FCUISPO      4 00000039 FFFFFFC6         4259 24066M
 @FCUIUIN    128 00000038 FFFFFFC6         4200 23581M
 @FCXFLG       1 00000017 FFFFFFD0     R    3933  3937
 @FCXFM      128 00000017 FFFFFFD0         3937 30669M
 @FCXFSB       4 00000000 FFFFFFD0     A    3925 30627M
 @FCXPRI       1 00000016 FFFFFFD0     X    3930 30647M
 @FCXTND      24 00000000 FFFFFFD0     J    3946 30608U 30616M 30616
 @FCXUSE       6 00000010 FFFFFFD0     C    3928 30642M
 @FCXUSO       6 0000000A FFFFFFD0     C    3927 30637M
 @FCXUSR       6 00000004 FFFFFFD0     C    3926 30632M
 @FDOBLK       4 00000004 FFFFFFD8     A    3673 13221M 13591M 14225M 15671M 16353M 17489M 32440M 32948M 33211M 43382M
                                                 43603M
 @FDODATA      4 00000008 FFFFFFD8     A    3674 13206M 13226  13596M 13615  14230M 14249  15575M 16358M 17494M 32459
                                                 32473  32958M 33230  33236  43387M 43403  43614M
 @FDODATL      2 0000000C FFFFFFD8     H    3675 13211M 13245  13601M 13646  13675  13687  14235M 14288  14317  14329
                                                 15661M 16368M 16400  17504M 32445M 32460  32969M 33216M 33231  43392M
                                                 43631M
1FILEMAN  (FILEMA) (09:39) (22MAR04) Ordinary Symbol and Literal Cross Reference                                            Page  277
 @FDOFLAG      1 0000000F FFFFFFD8     R    3679  3683   3688   3693   3698   3703   3708
 @FDOFR      128 0000000F FFFFFFD8         3683 13200  13200  13201M 13609  13609  13610M 14243  14243  14244M 32453
                                                 32453  32454M 33224  33224  33225M 43398M
 @FDOFSB       4 00000000 FFFFFFD8     A    3672 13192M 13586M 14220M 15565M 16348M 17484M 32424M 32932M 33195M 43377M
                                                 43598M
 @FDOFUSE     32 0000000F FFFFFFD8         3693 13200  13200  13609  13609  14243  14243  15600  15600  16393  16393
                                                 17529  17529
 @FDOFW       64 0000000F FFFFFFD8         3688 15600  15600  15601M 16393  16393  16394M 17529  17529  17530M 32988
                                                 32988  32989M 43637M
 @FDOIODO     16 00000000 FFFFFFD8     J    3717 13173U 13181M 13181  13567U 13575M 13575  14201U 14209M 14209  15546U
                                                 15554M 15554  16329U 16337M 16337  17465U 17473M 17473  32405U 32413M
                                                 32413  32913U 32921M 32921  33176U 33184M 33184  43358U 43366M 43366
                                                 43579U 43587M 43587
 @FDOS106     16 0000000F FFFFFFD8         3698 32453  32453  32988  32988
 @FDOS115      8 0000000F FFFFFFD8         3703 33224  33224
 @FDOTYPE      1 0000000E FFFFFFD8     X    3676 15592M 16385M 17521M 32470  32980M 43730M
 @FHRQID       4 00000000 FFFFFFDB     A    3605 38469  38531
 @FILEHALT
               4 00000000 FFFFFFDB     J    3612 38464U
 @FILFLAG      1 00000024 FFFFFFDD     R    3499  3503   3508   3513   3518
 @FMFIATT      8 00000009 FFFFFFDC         3574 45049M
 @FMFIBLK      4 00000004 FFFFFFDC     A    3546 45072M 45131M
 @FMFIDID      4 00000000 FFFFFFDC     A    3544 44834
 @FMFIFLG      1 00000009 FFFFFFDC     R    3550  3554   3559   3564   3569   3574   3579
 @FMFIHYB      4 00000009 FFFFFFDC         3579 44988M
 @FMFINAM     44 0000000A FFFFFFDC     C    3582 44841M 44870M 44887M 44888M 45729  45730
 @FMFINFO     54 00000000 FFFFFFDC     J    3589 44761U
 @FMFINIX     16 00000009 FFFFFFDC         3569 45023M
 @FMFIPRI      1 00000008 FFFFFFDC     X    3547 45054M 45055M
 @FMFIRSV     64 00000009 FFFFFFDC         3559 44936M
 @FMFISHR    128 00000009 FFFFFFDC         3554 44910M
 @FMFITMP     32 00000009 FFFFFFDC         3564 44962M
 @FMFSB        5 00000000 FFFFFFD9     J    3660 18187U 18195M 18195  24339U 24347M 24347  24526U 24534M 24534  25448U
                                                 25456M 25456  25510M 25510  32725U 32733M 32733  32768M 32768  33308U
                                                 33316M 33316  36939U 36947M 36947  42549U 42557M 42557  43020U 43028M
                                                 43028  43070M 43070  43845U 43853M 43853  45274U 45637U 45645M 45645
 @FMFSBF       1 00000004 FFFFFFD9     R    3647  3651
 @FMFSBP       4 00000000 FFFFFFD9     A    3644 18206M 24358M 24545M 25467M 25521M 32744M 32779M 33327M 36958M 42568M
                                                 43039M 43081M 43864M 45279  45672M
 @FMIXBLK      4 0000002C FFFFFFD6     F    3752 11465  24665M 43891M 43938  44235
 @FMIXCNT      4 00000030 FFFFFFD6     F    3753 24666M 44236
 @FMIXEXT      4 00000034 FFFFFFD6     F    3754 44247M 44247  44287
 @FMIXFSB      4 00000000 FFFFFFD6     A    3750 11421M 24663M 43821  44134
 @FMIXNAM     40 00000004 FFFFFFD6     C    3751 11422M 24664M 43937  44323
 @FMIXRAD     56 00000000 FFFFFFD6     J    3761 11402U 11410M 11410  24644U 24652M 24652  43816U 44129U
 @GRCANAS     32 00000008 FFFFFF99         5518 38709M 38756M
 @GRCID        4 00000000 FFFFFF99     A    5499 10521M 10548M 45432M
 @GRES         9 00000000 FFFFFF99     J    5528 10204U 10212M 10212  10503U 10511M 10511  10538M 10538  10627M 10627
                                                 12113U 12121M 12121  13036U 13044M 13044  14616U 14624M 14624  15286U
                                                 15294M 15294  18430U 18438M 18438  21959U 21967M 21967  22177M 22177
                                                 25734U 25742M 25742  26043U 26051M 26051  32190U 32198M 32198  32369U
                                                 32377M 32377  33796U 33804M 33804  34041U 34049M 34049  35014U 35022M
                                                 35022  35063M 35063  35627U 35635M 35635  35693M 35693  35806M 35806
                                                 36020U 36028M 36028  36049M 36049  38695U 38703M 38703  38750M 38750
                                                 38814M 38814  38847M 38847  38888M 38888  38921M 38921  45414U 45422M
                                                 45422
 @GREXCL      64 00000008 FFFFFF99         5513 10229M 12196M 15305M 21984M 25818M 32215M 33815M 35652M 38831M 38905M
 @GRFLAG       1 00000008 FFFFFF99     R    5504  5508   5513   5518
 @GRID         4 00000004 FFFFFF99     A    5500 10217M 10632M 12126M 13049M 14629M 15299M 18443M 21972M 22182M 25763M
1FILEMAN  (FILEMA) (09:39) (22MAR04) Ordinary Symbol and Literal Cross Reference                                            Page  278
                                                 26056M 32203M 32382M 33809M 34054M 35027M 35068M 35640M 35698M 35811M
                                                 36033M 36054M 38714M 38761M 38819M 38857M 38893M 38931M
 @GRWAIT     128 00000008 FFFFFF99         5508 10223M 12148M 13071M 15327M 21978M 25793M 32209M 33837M 35646M 38825M
                                                 38899M
 @HASH        13 00000000 FFFFFF8C     J    6233 10104U 10112M 10112  21873U 21881M 21881  32091U 32099M 32099
 @HSHBLNK    128 0000000C FFFFFF8C         6224 10169M 21938M 32156M
 @HSHFL        1 0000000C FFFFFF8C     R    6220  6224
 @HSHLEN       4 00000004 FFFFFF8C     A    6216 10146M 21915M 32133M
 @HSHSTR       4 00000000 FFFFFF8C     A    6215 10129M 21898M 32116M
 @HSHVAL       4 00000008 FFFFFF8C     A    6217 10163M 21932M 32150M
 @IXRDADR      4 00000004 FFFFFF77     A   42739 36628M 36697M 36840M 37341M 42647M 42806  42980
 @IXRDFSB      4 00000000 FFFFFF77     A   42738 36617M 36686M 36829M 37331M 42636M 42792
 @IXRGADR      4 00000008 FFFFFF85     A    6979 14526M 14544  17732M 17775M 17793  25897  25944M 25952  25988M 36783M
                                                 37275  42086M 42099  42167M 42205M 42223  42909M 42922  43387  43403M
                                                 43516  43993M 44233M 45130
 @IXRGBNO      4 00000004 FFFFFF85     F    6978 14536M 17785M 25889M 25934M 36772M 37267M 42091M 42215M 42914M 43320M
                                                 43320  43382  44262M 45122M
 @IXRGEPU     12 00000000 FFFFFF85     J    6986 14497U 14505M 14505  17703U 17711M 17711  17754M 17754  25865U 25873M
                                                 25873  25913M 25913  25967M 25967  36743U 36751M 36751  37238U 37246M
                                                 37246  42062U 42070M 42070  42145M 42145  42189M 42189  42880U 42888M
                                                 42888  43256U 43497U 43963U 43971M 43971  44203U 44211M 44211  45098U
                                                 45106M 45106
 @IXRGFSB      4 00000000 FFFFFF85     A    6977 14516M 17722M 17765M 25884M 25924M 25978M 36762M 37257M 42081M 42156M
                                                 42200M 42899M 43261  43502  43982M 44222M 45117M
 @LOCKFL       1 00000010 FFFFFFC5     R    4301  4305
 @M1FATCH      4 00000028 FFFFFFDF         3365  7465   7787
 @M1FCLP     128 00000025 FFFFFFDF         3336  7909
 @M1FDVID      4 00000020 FFFFFFDF     A    3326  7148   7447   8701M
 @M1FILE      41 00000000 FFFFFFDF     J    3444  7112U
 @M1FILID      1 00000024 FFFFFFDF     X    3328  7897
 @M1FLAG       1 00000025 FFFFFFDF     R    3332  3336   3341   3346   7134
 @M1FM31      32 00000025 FFFFFFDF         3346  7961
 @M1FPKEY      1 00000026 FFFFFFDF     X    3350  7988
 @M1FPOST     16 00000000 FFFFFFDE     J    3472  9136U
 @M1FPRIV      1 00000027 FFFFFFDF     X    3352  7989
 @M1FPRQI      4 00000000 FFFFFFDE     A    3461  9142M  9159M
 @M1FPR01      4 0000000C FFFFFFDE     A    3465  9168M
 @M1FPR14      4 00000004 FFFFFFDE     A    3463  9173M
 @M1FPR15      4 00000008 FFFFFFDE     A    3464  9178M
 @M1FREDV      1 00000080 FFFFFFDE A   U    3462  9159
 @M1FREG      16 00000000 FFFFFFDF     U    3319  7979
 @M1FRQID      4 0000001C FFFFFFDF     A    3325  7891
 @M1FR00       4 00000008 FFFFFFDF     A    3317  8433M
 @M1FR01       4 0000000C FFFFFFDF     A    3318  8456M
 @M1FR14       4 00000000 FFFFFFDF     A    3315  3319   3319   7133   8387M
 @M1FR15       4 00000004 FFFFFFDF     A    3316  7484M  8410M
 @M1FSPI      64 00000025 FFFFFFDF         3341  7935
 @M1FSTAT     20 00000028 FFFFFFDF         3405  7477   7799
 @M1FTYPE      1 00000028 FFFFFFDF     R    3356  3365   3375   3385   3395   3405   3415   3425   3435   7990
 @M1FWR01      4 00000018 FFFFFFDF     A    3323  8466M
 @M1FWR14      4 00000010 FFFFFFDF     A    3321  8464M
 @M1FWR15      4 00000014 FFFFFFDF     A    3322  8465M
 @PAGE         9 00000000 FFFFFFBC     J    4567 39516U 39524M 39524
 @PAGKEY       1 00000008 FFFFFFBC     X    4559  4560  39525M
 @PAGLEN       4 00000004 FFFFFFBC     A    4558 39528M
 @PAGLOC       4 00000000 FFFFFFBC     A    4557 39526M
 @PDF1         1 00000009 FFFFFFC0     R    4463  4464   4469
 @RELRQFB      4 00000000 FFFFFF7C     J   34813  8498U  8506M  8506   8991U  8999M  8999  34853U
 @RELRQFP      4 00000000 FFFFFF7C     A   34806  8517M  9010M 34858
1FILEMAN  (FILEMA) (09:39) (22MAR04) Ordinary Symbol and Literal Cross Reference                                            Page  279
 @RK           0 00000000 FFFFFFF9     @    1071 24212
 @RM           0 00000000 FFFFFFF6     @    1107 14680  14706  18494  18520  26107  26133
 @RN           0 00000000 FFFFFFF5     @    1119 24166  30012  34454
 @RS           0 00000000 FFFFFFFD     @    1023 28292  39240
 @RX           0 00000000 FFFFFFF8     @    1083 34309  34334  34335  34442  34503  34675  34677  34680  34682  34687
                                                 34689  34692  34694  34717  34721  34723  34725  34727  34729  34733
                                                 34735  34737  34739  34741  34743  34747  39337  39339  39343  39345
                                                 39347  39349  39351  39353  39357
 @R0           0 00000000 FFFFFFFE     @     715   991U
 @R1           0 00000000 FFFFFFFD     @     728   987U  7271U 18068U 18168U 28790U 30312U 38384U 39034M 39035  39189U
                                                 44582U 44702U
 @R10          0 00000000 FFFFFFF4     @     845   951U  8729U  9320U 11282U 12446U 12557U 12854U 14766U 15082U 18574U
                                                 20816U 26195U 30450U 33441U 33626U 33920U 34100U 34777U 36315U 37054U
                                                 37503U 38052U 38156U 38404U 38972U 39047U 39383U 39692U 40178U 42703U
                                                 43198U 43439U 43758U 44071U 44434U 44587U 44707U 45217U 45484U 45700U
 @R11          0 00000000 FFFFFFF3     @     858   947U 30445U
 @R12          0 00000000 FFFFFFF2     @     871   943U  8724U  9315U 11277U 14761U 18569U 26190U 30440U 34772U 36310U
                                                 37049U 37498U 38967U 39378U 39687U 42698U 43193U 43434U 43753U 44066U
                                                 44429U 45212U 45479U
 @R13          0 00000000 FFFFFFF1     @     884   939U  8495U  8600U  8740U  9060U  9087U  9193U  9277U  9328U  9759U
                                                 10029U 10101U 10201U 10404U 10500U 11293U 11614U 12110U 12457U 13170U
                                                 13257U 13564U 13737U 14198U 14380U 14494U 14613U 14657U 14777U 15375U
                                                 15478U 15543U 16211U 16326U 16703U 17397U 17462U 17700U 17975U 18184U
                                                 18427U 18471U 18585U 19506U 19766U 19846U 20048U 20827U 21161U 21811U
                                                 21870U 21956U 22368U 22522U 22684U 22889U 22992U 23119U 23206U 23259U
                                                 23389U 23467U 23543U 23625U 23702U 23780U 23856U 23934U 24010U 24088U
                                                 24336U 24456U 24523U 24580U 24641U 25369U 25445U 25731U 25862U 26040U
                                                 26084U 26206U 26740U 26931U 27132U 27237U 27313U 27526U 27598U 27699U
                                                 27798U 27863U 27969U 28049U 28137U 28366U 28483U 28709U 29035U 29191U
                                                 29319U 29551U 29629U 30461U 30694U 30747U 30911U 31048U 31202U 31767U
                                                 31944U 32021U 32088U 32187U 32319U 32366U 32402U 32483U 32722U 32874U
                                                 32910U 33003U 33056U 33115U 33173U 33246U 33305U 33452U 33931U 34111U
                                                 34522U 34788U 35306U 35445U 35624U 35916U 36017U 36326U 36740U 36807U
                                                 36875U 36936U 37011U 37062U 37309U 37358U 37460U 37511U 37776U 37977U
                                                 38060U 38167U 38415U 38983U 39703U 40189U 42059U 42253U 42546U 42614U
                                                 42714U 42949U 43017U 43209U 43450U 43769U 43901U 43960U 44012U 44082U
                                                 44200U 44375U 44445U 44598U 45141U 45228U 45411U 45495U 45711U
 @R14          0 00000000 FFFFFFF0     @     897   935U  7856U  7898U 18771  19835  22446U 23368U 25640U 25770U 26489
                                                 26622  26725  27089  27099  27105  27122  27482  27667  29382M 29383M
                                                 29539  29593M 29594M 31026U 32471U 32797
 @R15          0 00000000 FFFFFFEF     @     910   931U 16457  17593  18678U 23075U 28038  28698  30305U 30343U 31551
                                                 39197U
 @R2           0 00000000 FFFFFFFC     @     741   983U  8709U  8831U  9305U 11272U 12441U 12552U 12849U 14756U 15077U
                                                 18564U 20811U 26185U 30435U 33436U 33621U 33915U 34095U 34767U 38143U
                                                 38603U 40173U 42693U
 @R3           0 00000000 FFFFFFFB     @     754   979U 11267U 12436U 12844U 14751U 15072U 18559U 20806U 26180U 30430U
                                                 33431U 34762U 36295U 37039U 37488U 38952U 39368U 39895U 42688U 43188U
                                                 43429U 43748U 44061U 44424U 45207U 45474U 45690U
 @R4           0 00000000 FFFFFFFA     @     767   975U  8714U  9300U 11112U 22961U 33426U 35972U 38399U 38947U 44577U
                                                 44697U 45202U 45465U
 @R5           0 00000000 FFFFFFF9     @     780   971U  8719U  9310U 11107U 22941U 33421U 35504U 35967U 37483U 38957U
                                                 45197U
 @R6           0 00000000 FFFFFFF8     @     793   967U 11257U 12431U 13105U 14746U 15361U 18554U 26175U 33416U 33910U
                                                 34029U 36300U 37034U 37298U 38962U 42683U 43183U 43419U 43743U 44419U
                                                 45192U
 @R7           0 00000000 FFFFFFF7     @     806   963U  9505U 11252U 11491U 11589U 12315U 12367U 22588U 22946U 26408U
                                                 30425U 31484U 31536U 31696U 31748U 34972U 35196U 35216U 36113U 36429U
                                                 37044U 37142U 37493U 37582U 38047U 39224U 39373U 45561U 45695U
 @R8           0 00000000 FFFFFFF6     @     819   959U 11262U 21241U 21292U 22956U 32847U 36141U 36290U 44056U
1FILEMAN  (FILEMA) (09:39) (22MAR04) Ordinary Symbol and Literal Cross Reference                                            Page  280
 @R9           0 00000000 FFFFFFF5     @     832   955U  8244U  8290U  8354U  8840U  8934U 11102U 22087U 22164U 28105U
                                                 28426U 29002U 29814U 29854U 36305U 36507U 43424U
 @SBFADR       4 00000004 FFFFFFB6     A    4725 14680M 14691M 14691  18494M 18505M 18505  26107M 26118M 26118  32509M
                                                 33029M 33272M 36902M 37384M 41771M 41847M 42975M 44039M 44402M 45168M
 @SBFPOO       4 00000000 FFFFFFB6     A    4724 14673M 18487M 26100M 32499M 33019M 33262M 36891M 37374M 41766M 41842M
                                                 42965M 44028M 44391M 45157M
 @SBFREE       8 00000000 FFFFFFB6     J    4732 14660U 14668M 14668  18474U 18482M 18482  26087U 26095M 26095  32486U
                                                 32494M 32494  33006U 33014M 33014  33249U 33257M 33257  36878U 36886M
                                                 36886  37361U 37369M 37369  41753U 41761M 41761  41837M 41837  42952U
                                                 42960M 42960  44015U 44023M 44023  44378U 44386M 44386  45144U 45152M
                                                 45152
 @SBGADR       4 00000004 FFFFFFB7     A    4699 15396  16724  32895  32900  42274  43922  44176
 @SBGET       12 00000000 FFFFFFB7     J    4707 15378U 15386M 15386  16706U 16714M 16714  32877U 32885M 32885  42256U
                                                 42264M 42264  43904U 43912M 43912  44158U 44166M 44166
 @SBGPOO       4 00000000 FFFFFFB7     A    4698 15391M 16719M 32890M 42269M 43917M 44171M
 @SBIFLG       1 00000008 FFFFFFB8     R    4656  4661   4667   4672
 @SDF1         1 00000009 FFFFFFBF     R    4495  4496
 @SETFNA       4 00000000 FFFFFF7D     A   34129  9603M 10045M 19522M 27160M 27879M 28382M 29207M 34196  34258
 @SETFNAM      8 00000000 FFFFFF7D     J   34137  9578U  9586M  9586  10032U 10040M 10040  19509U 19517M 19517  27135U
                                                 27143M 27143  27866U 27874M 27874  28369U 28377M 28377  29194U 29202M
                                                 29202  34177U
 @SETFNL       4 00000004 FFFFFF7D     A   34130  9620M 10050M 19527M 27177M 27884M 28387M 29212M 34206  34263
 @SGASB        4 0000000C FFFFFFB3     A    4814 22922M 35478M
 @SGECB        4 00000008 FFFFFFB3     A    4810 22917M 35473M
 @SGSRID       4 00000010 FFFFFFB3     A    4815 22927M 35483M
 @SIGNAL      20 00000000 FFFFFFB3     J    4823 22892U 22900M 22900  35448U 35456M 35456
 @SUSPFLG      1 00000008 FFFFFFA8     R    5112  5116   5121   5126
 @SWFLG        1 00000004 FFFFFFC3     R    4358  4367   4377   4387
 @SYSRNEW      4 00000000 FFFFFFA0     J    5337 37607U 37615M 37615
 @TCREATE     21 00000000 FFFFFFA4     J    5245  8603U  8611M  8611  37779U 37787M 37787  37930M 37930
 @TCRFLAG      1 00000014 FFFFFFA4     R    5227  5231   5236
 @TCRFSTK    128 00000014 FFFFFFA4         5231  8630M 37804M 37947M
 @TCRPARM      4 00000008 FFFFFFA4     A    5223  8612M  8613M 37788M 37931M
 @TCRPRIO      4 00000010 FFFFFFA4     A    5224  8615M 37789M 37932M
 @TCRPSW       8 00000000 FFFFFFA4     D    5222  8616M  8617M  8624M 37790M 37791M 37798M 37933M 37934M 37941M
 @TENTRY       8 00000000 FFFFFFA2     J    5291  8787U 36394U 36401U 37112U
 @TEPARM       4 00000000 FFFFFFA2     A    5284  8794   8808   8874  36444  37183
 @TEXIT        4 00000000 FFFFFFA1     J    5314  9280U  9288M  9288  37014U 37022M 37022  37463U 37471M 37471
 @VMGET       11 00000000 FFFFFFB2     J    4865  7355U  7363M  7363   7574M  7574   9762U  9770M  9770  10407U 10415M
                                                 10415  22687U 22695M 22695  35309U 35317M 35317  38271U 38279M 38279
                                                 45313U 45321M 45321
 @VMGFLG       1 0000000A FFFFFFB2     R    4847  4851   4856
 @VMGLEN       4 00000000 FFFFFFB2     A    4842  7380M  7591M  9787M 10432M 22712M 35334M 38296M 45331M
 @VMGPAGE    128 0000000A FFFFFFB2         4851 45338M
 @VMGPOOL      2 00000008 FFFFFFB2     H    4844  7381M  7592M  9788M 10433M 22713M 35335M 38297M 45332M
 @WSFLG        1 0000000C FFFFFFC1     R    4432  4436
 @XITDEL       4 00000000 FFFFFF94     J    5853  9196U  9204M  9204
 @XITDID       4 00000000 FFFFFF94     A    5846  9214M
 @XITDO       32 00000000 FFFFFF93     J    5879  9090U  9098M  9098
 @XITMREQ      1 00000004 FFFFFF91     R    5924  5933   5943   5953
 @XITNEW       1 00000000 FFFFFF95     J    5830  9063U  9071M
 @XITNFL       1 00000000 FFFFFF95     R    5817  5821
 @XITPARM     16 00000010 FFFFFF93     X    5872  9136U
 @XITRQID      4 00000000 FFFFFF93     A    5868  9108M
 @XITTSK       4 00000004 FFFFFF93     A    5869  9113M
 @XITTYPE      1 00000008 FFFFFF93     X    5870  9130M
 ACAINFO       1 00000000 0000003B     T   45728 45728
 ACREATE       1 00000000 00000034     T   38207 38207
 AHFB       4060 00000000 FFFFFF8B     J    6273 10087U 21772U 32075U 35596U 38873U 45394U 45448
1FILEMAN  (FILEMA) (09:39) (22MAR04) Ordinary Symbol and Literal Cross Reference                                            Page  281
 AHFBCNT       1 00000151 FFFFFF8B A   U    6255  6266  10158  21927  32145  45736
 AHFBFSB       4 00000008 FFFFFF8B     A    6252 45400M
 AHFBGRID      4 00000004 FFFFFF8B     A    6251 10217  10632  21972  22182  32203  32382  35640  35698  35811  38893
                                                 45437M
 AHFBID        4 00000000 FFFFFF8B     C    6250 45399M
 AHFBL        12 00000010 FFFFFF8B     N    6262  6266  10176  10186U 12608  21999U 22091  22102U 26269  32163  32173U
                                                 33552  35610U 45448
 AHFBLBP       4 00000014 FFFFFF8B     A    6264 45447M
 AHFBLEN       1 00001000 FFFFFF8B A   U    6256 45732
 AHFBLFP       4 00000010 FFFFFF8B     A    6263 10235  32220  45445  45446M
 ASB          68 00000000 FFFFFFE3     J    2974  7231U 36128U 38371U 44494U 44646U
 ASBASFB       4 00000038 FFFFFFE3     A    2963  7246M  7246   7264  36134  38377M 44520  44672
 ASBGCFLG      1 00000014 FFFFFFE3     R    2944  2948
 ASFB         48 00000000 FFFFFF89     J    6376  7203U  9230U  9464U 28585U 36152U 38291  38346U 38356M 38356  44507U
                                                 44659U
 ASFBFQ        8 00000010 FFFFFF89     D    6352  7495   7522M 36248  36258M
 ASFBFQFP      4 00000010 FFFFFF89     A    6353 36257  36257
 ASFBFW        8 00000008 FFFFFF89     D    6348  7277   7304M  8531   8541M  8664   8674M  9236   9246M
 ASFBFWFP      4 00000008 FFFFFF89     A    6349  8540   8540   8673   8673   9245   9245
 ASFBID        4 00000000 FFFFFF89     C    6344 38357M
 ASFBPACC      6 0000002A FFFFFF89     C    6369  7725M  7725   7731  28613M 28613  28779M 44686M 44686
 ASFBPAGR      2 0000002A FFFFFF89     C    6366  6369   6369
 ASFBRQ       12 00000018 FFFFFF89     N    6356  7668  10985  36175  38358
 ASFBRQBP      4 0000001C FFFFFF89     A    6358 38360M
 ASFBRQFP      4 00000018 FFFFFF89     A    6357 10971  38359M
 ASFBSACC      6 00000024 FFFFFF89     C    6364  7756
 ASFBSADO      1 00000026 FFFFFF89     C    6362 44561M
 ASFBSAGR      2 00000024 FFFFFF89     C    6361  6364   6364  44560M
 ASFBSAUS      3 00000027 FFFFFF89     C    6363 44562M
 ATFB         80 00000000 FFFFFF8A     J    6329  7839U  9477U  9782   9842M  9842  10427  10484M 10484  11370U 13023U
                                                 15273U 21781U 22427U 23062U 25627U 25753U 32230U 33783U 34010U 34881U
                                                 36069M 36069  36074  36082M 38499U 43284U 44788U
 ATFBAGRI      4 0000001C FFFFFF8A     A    6319 10526M 12126  36001M 36001  36033  38733M 38733  38761
 ATFBATL       4 00000018 FFFFFF8A     A    6317 10486M 21989  22092M 35600
 ATFBBLKC      4 00000014 FFFFFF8A     A    6315  7847  12099M 25633M 45072
 ATFBCNT       2 0000000E FFFFFF8A     H    6312  9846M 10300  10301M 10488M 12259  35659  35661M 35672M 35672
 ATFBFBLK      4 00000010 FFFFFF8A     A    6314  7846  11466M 12097M 25632M 35166M 35166  35389  35498M 35498  45122
 ATFBFLAG      1 0000000D FFFFFF8A     R    6299  6303   6308
 ATFBFP        4 00000000 FFFFFF8A     A    6288  9843M 10274  32272
 ATFBFRES    128 0000000D FFFFFF8A         6303 33875M 34022M
 ATFBFSB       4 00000024 FFFFFF8A     A    6321  7845   9847M 10489M 34987  38780  45088
 ATFBFTIM     64 0000000D FFFFFF8A         6308 12271M 35889
 ATFBID        4 00000008 FFFFFF8A     C    6291  9844M 10485M 36070M
 ATFBMASK      1 0000000C FFFFFF8A     R    6295  7849  11392M 12095M 23068M 45055
 ATFBNAME     40 00000028 FFFFFF8A     C    6322  7844   9845M 10265  10487M 12235  22089M 22439M 22439  32263  35943
                                                 44888  44888
 ATFBRGRI      4 00000020 FFFFFF8A     A    6320 10553M 13049  15299  25763  33809  36054  38679M 38679  38714
 AWAIT         1 00000000 00000033     T   38205 38205
 BL            2 00000002 FFFFFFE4 A   N    2667  2669   2669   2995   2997   3006
 BR           10 0000000A FFFFFFFF A   #    1136  7086M  7096U  8761M  8771U  9396M  9406U 11314M 11324U 12478M 12488U
                                                 12632M 12642U 12917M 12927U 14798M 14808U 15167M 15177U 18625M 18635U
                                                 20914M 20924U 26317M 26329U 30517M 30527U 33575M 33585U 33655M 33665U
                                                 33952M 33962U 34151M 34161U 34827M 34837U 36368M 36378U 37086M 37096U
                                                 37536M 37546U 38080M 38090U 38237M 38247U 38438M 38448U 39004M 39014U
                                                 39101M 39111U 39427M 39437U 39724M 39734U 40305M 40315U 42761M 42771U
                                                 43230M 43240U 43471M 43481U 43790M 43800U 44103M 44113U 44466M 44476U
                                                 44618M 44628U 44735M 44745U 45248M 45258U 45519M 45529U
 BRR          11 0000000B FFFFFFFF A   #    1148 26318M 26319M 26319  26337U
 CFSBFLSZ      1 00000028 FFFFFFE4 A   U    2660  3751   3791   3831   3851   3896   3986   4063   4129   4149   4170
1FILEMAN  (FILEMA) (09:39) (22MAR04) Ordinary Symbol and Literal Cross Reference                                            Page  282
                                                  4190   6322  27039
 CFSBMXNT      1 00000129 FFFFFFE4 A   U    2665  2989   2989
 CFSBNMSZ      1 00000021 FFFFFFE4 A   U    2662  2991   4150
 CHKACABC      2 00005448 00000001     H   39342 39174B 39177B 39338B
 CHKACABE      2 00005478 00000001     H   39356 39340B 39346B 39350B
 CHKACC        4 0000537C 00000001     I   39100 20846  30470  38179  39111U
 CHKACC9       2 00005370 00000001     H   39095 39094
 CHKACERR      2 00005428 00000001     H   39322 39167B 39344B 39348B 39352B 39354B
 CHKACER2      2 00005430 00000001     H   39329 39305B
 CHKAC123      2 00005438 00000001     H   39336 39175B 39178B 39179B
 CHKAIDTR      1 000053CB 00000001     U   39393 39182  39394  39396  39398  39400
 CHKMEM        4 000054D2 00000001     I   39426 13444  14476  17677  20844  30469  38176  39437U 40211
 CHKMEM9       2 000054C6 00000001     H   39421 39420
 CNTAMXL       1 00000108 FFFFFFE2 A   U    2987  2989
 CNTAMXSZ      1 00000005 FFFFFFE2 A   U    2990  3003
 CNTFMXL       1 00000129 FFFFFFE2 A   U    2988  2989
 CTBITRCT      8 00000150 FFFFFFE4     D    2863  2873
 CTCACHCT      8 000001A0 FFFFFFE4     D    2892  2902
 CTCATRCT      8 00000148 FFFFFFE4     D    2862  2872
 CTFILAPM      4 00000138 FFFFFFE4     F    2850  9880   9906M
 CTFILATM      4 00000128 FFFFFFE4     F    2846 10841  10867M
 CTFILATP      4 00000134 FFFFFFE4     F    2849  9849   9860M  9881  35094  35104M
 CTFILATT      4 00000124 FFFFFFE4     F    2845 10810  10821M 10842  35817  35827M
 CTFILAUM      4 00000130 FFFFFFE4     F    2848 10670  10696M
 CTFILAUS      4 0000012C FFFFFFE4     F    2847 10639  10650M 10671  35525  35535M
 CTIXRRCT      8 00000158 FFFFFFE4     D    2864  2874
 CTMASRCT      8 00000140 FFFFFFE4     D    2861  2871
 CTOTHRCT      8 00000168 FFFFFFE4     D    2866  2876
 CTREADCT      8 00000140 FFFFFFE4     D    2860  2871   2872   2873   2874   2875   2876   2900   2905   2905   2906
                                                  2906
 CTUSERCT      8 00000160 FFFFFFE4     D    2865  2875
 CTWRITCT      8 00000170 FFFFFFE4     D    2880  2901
 DATE          1 00000000 00000038     T   40201 40201
 DISPSHLD      1 00000000 00000031     T   38195 38195
 EPAR         15 0000000F FFFFFFFF A   #    1196  7086   7258M  7259B  7384M  7385B  7595M  7596B  8361M  8362B  8523M
                                                  8524B  8633M  8634B  8761   8941M  8942B  9016M  9017B  9074M  9075B
                                                  9181M  9182B  9217M  9218B  9291M  9292B  9396   9626M  9627B  9676M
                                                  9677B  9791M  9792B 10056M 10057B 10172M 10173B 10232M 10233B 10436M
                                                 10437B 10524M 10525B 10551M 10552B 10635M 10636B 11314  11428M 11429B
                                                 11827M 11828B 11847M 11848B 12203M 12204B 12478  12632  12716M 12717B
                                                 12917  13078M 13079B 13224M 13225B 13295M 13296B 13613M 13614B 13775M
                                                 13776B 14247M 14248B 14418M 14419B 14542M 14543B 14632M 14633B 14700M
                                                 14701B 14798  14930M 14931B 15167  15334M 15335B 15394M 15395B 15510M
                                                 15511B 15676M 15677B 16243M 16244B 16406M 16407B 16722M 16723B 17429M
                                                 17430B 17542M 17543B 17738M 17739B 17791M 17792B 18010M 18011B 18209M
                                                 18210B 18446M 18447B 18514M 18515B 18625  19465M 19466B 19533M 19534B
                                                 19810M 19811B 19868M 19869B 20086M 20087B 20914  21040M 21041B 21099M
                                                 21100B 21201M 21202B 21842M 21843B 21941M 21942B 21987M 21988B 22185M
                                                 22186B 22398M 22399B 22562M 22563B 22716M 22717B 22930M 22931B 23030M
                                                 23031B 23187M 23188B 23244M 23245B 23345M 23346B 23452M 23453B 23497M
                                                 23498B 23610M 23611B 23655M 23656B 23765M 23766B 23810M 23811B 23919M
                                                 23920B 23964M 23965B 24073M 24074B 24118M 24119B 24361M 24362B 24496M
                                                 24497B 24548M 24549B 24620M 24621B 24669M 24670B 25415M 25416B 25470M
                                                 25471B 25531M 25532B 25578M 25579B 25825M 25826B 25895M 25896B 25950M
                                                 25951B 25994M 25995B 26059M 26060B 26127M 26128B 26317  26318  26597M
                                                 26598B 26700M 26701B 26762M 26763B 26804M 26805B 26875M 26876B 26969M
                                                 26970B 27055M 27056B 27183M 27184B 27259M 27260B 27351M 27352B 27457M
                                                 27458B 27548M 27549B 27642M 27643B 27721M 27722B 27830M 27831B 27890M
                                                 27891B 28013M 28014B 28071M 28072B 28175M 28176B 28268M 28269B 28333M
1FILEMAN  (FILEMA) (09:39) (22MAR04) Ordinary Symbol and Literal Cross Reference                                            Page  283
                                                 28334B 28393M 28394B 28521M 28522B 28673M 28674B 28731M 28732B 29072M
                                                 29073B 29158M 29159B 29218M 29219B 29357M 29358B 29446M 29447B 29514M
                                                 29515B 29573M 29574B 29667M 29668B 29784M 29785B 29980M 29981B 30517
                                                 30676M 30677B 30729M 30730B 30874M 30875B 31002M 31003B 31141M 31142B
                                                 31294M 31295B 31443M 31444B 31655M 31656B 31845M 31846B 31883M 31884B
                                                 31926M 31927B 31984M 31985B 32056M 32057B 32159M 32160B 32218M 32219B
                                                 32349M 32350B 32385M 32386B 32457M 32458B 32512M 32513B 32747M 32748B
                                                 32756M 32757B 32782M 32783B 32855M 32856B 32859M 32860B 32893M 32894B
                                                 32992M 32993B 33032M 33033B 33097M 33098B 33155M 33156B 33228M 33229B
                                                 33275M 33276B 33330M 33331B 33383M 33384B 33575  33655  33844M 33845B
                                                 33952  34057M 34058B 34151  34274M 34275B 34544M 34545B 34827  35030M
                                                 35031B 35071M 35072B 35338M 35339B 35486M 35487B 35655M 35656B 35701M
                                                 35702B 35814M 35815B 35952M 35953B 36036M 36037B 36057M 36058B 36368
                                                 36634M 36635B 36703M 36704B 36789M 36790B 36846M 36847B 36905M 36906B
                                                 36963M 36964B 37025M 37026B 37086  37273M 37274B 37347M 37348B 37387M
                                                 37388B 37474M 37475B 37536  37556M 37557B 37618M 37619B 37648M 37649B
                                                 37807M 37808B 37950M 37951B 38014M 38015B 38080  38148M 38149B 38237
                                                 38300M 38301B 38391M 38392B 38438  38639M 38640B 38717M 38718B 38764M
                                                 38765B 38834M 38835B 38860M 38861B 38908M 38909B 38934M 38935B 39004
                                                 39025M 39026B 39101  39427  39531M 39532B 39724  39981M 39982B 40030M
                                                 40031B 40305  41774M 41775B 41850M 41851B 42097M 42098B 42173M 42174B
                                                 42221M 42222B 42272M 42273B 42571M 42572B 42653M 42654B 42761  42920M
                                                 42921B 42978M 42979B 43043M 43044B 43150M 43151B 43230  43401M 43402B
                                                 43471  43734M 43735B 43790  43867M 43868B 43920M 43921B 43999M 44000B
                                                 44042M 44043B 44103  44174M 44175B 44268M 44269B 44278M 44279B 44338M
                                                 44339B 44405M 44406B 44466  44558M 44559B 44618  44735  45128M 45129B
                                                 45171M 45172B 45248  45341M 45342B 45435M 45436B 45519  45624M 45625B
                                                 45675M 45676B
 ETFNAME9      2 000047B6 00000001     H   34145 34144
 ETTEMPN9      2 00005322 00000001     H   38998 38997
 F                        00000001 A   U   20997 24734  24735  24736  24754  24755  24927  24956  24962  25032  25189
                                                 25190  25230  25303  25326  25328  25336  25338  25341  25352
 FAC           1 00000008 00000001 A   U    1431  3276
 FAO           1 00000002 00000001 A   U    1429  3043   3126   3166   3267
 FBHDR        20 00000000 FFFFFFE5     J    2637  2629
 FBHTBICA      1 000000C0 FFFFFFE5 A   U    2622  2623
 FBHTBIT       1 00000040 FFFFFFE5 A   U    2615  2622
 FBHTCAT       1 00000080 FFFFFFE5 A   U    2614  2622
 FBHTIXR       1 00000008 FFFFFFE5 A   U    2617  2621  43639
 FBHTIXRT      1 0000001E FFFFFFE5 A   U    2621  2623
 FBHTMIXR      1 00000002 FFFFFFE5 A   U    2619  2621  43716
 FBHTSIXR      1 00000004 FFFFFFE5 A   U    2618  2621  43686
 FBHTUSER      1 00000001 FFFFFFE5 A   U    2620 15587  16380  17516
 FBHTZIXR      1 00000010 FFFFFFE5 A   U    2616  2621  43656
 FBITACT       1 00000000 0000002A     T   33542 33542
 FBITDEA       1 00000000 0000002C     T   33544 33544  45738
 FBITGCON      1 00000000 0000001B     T   26255 26255  33550
 FBITGET       1 00000000 00000012     T   18593 18593  45726
 FBITRCON      1 00000000 0000001C     T   26257 26257  38193
 FBITREL       1 00000000 0000001E     T   26259 26259  45723
 FCATAADD      1 00000000 00000025     T   33528 33528
 FCATADEL      1 00000000 00000026     T   33529 33529
 FCATAINF      1 00000000 00000022     T   33520 33520
 FCATALIS      1 00000000 00000028     T   33531 33531
 FCATASAC      1 00000000 00000018     T   26252 26252
 FCATDLET      1 00000000 00000015     T   26246 26246  33535
 FCATEPUB      1 00000000 00000020     T   33517 33517
 FCATFINF      1 00000000 0000001A     T   26254 26254
 FCATFLIS      1 00000000 00000021     T   33518 33518
1FILEMAN  (FILEMA) (09:39) (22MAR04) Ordinary Symbol and Literal Cross Reference                                            Page  284
 FCATGPRM      1 00000000 00000019     T   26253 26253  33519
 FCATGSPA      1 00000000 00000011     T   18592 18592  26256
 FCATMSPA      1 00000000 00000027     T   33530 33530
 FCATNIXE      1 00000000 00000023     T   33522 33522
 FCATNIXR      1 00000000 00000024     T   33525 33525
 FCATNPRM      1 00000000 0000000D     T   12602 12602
 FCATOPRM      1 00000000 0000000C     T   12601 12601  38184
 FCATPSPA      1 00000000 00000013     T   26239 26239
 FCATRNAM      1 00000000 00000014     T   26241 26241
 FCATS111      1 00000000 0000002F     T   33549 33549
 FCATUINF      1 00000000 00000017     T   26250 26250  33548
 FCATUSPA      1 00000000 00000029     T   33532 33532
 FCATXTND      1 00000000 0000001F     T   33516 33516
 FDEL         21 00000000 FFFFFF86     J    6958 22707  22766U 22777M 22777  22837  22845M 35181U 35329  35386M 35386
                                                 35393  35401M 36337  36454U 36459  36466M 36466  36471  36479M 36514U
                                                 37179U 37193M 37193  37198  37206M
 FDELB         4 0000000C FFFFFF86     F    6936 22780M 35389M 36573  36664M 36959  37185
 FDELC         4 00000010 FFFFFF86     F    6937 22781M 36705  36960
 FDELF         4 00000008 FFFFFF86     A    6935 22779M 35388M 36542  37184
 FDELFH       64 00000014 FFFFFF86         6949 22829M 36567
 FDELFLG       1 00000014 FFFFFF86     R    6940  6944   6949
 FDELFN      128 00000014 FFFFFF86         6944 22803M 36555  36583  36921
 FDELID        4 00000004 FFFFFF86     C    6934 22778M 35387M 36467M 37194M
 FDOIODO       1 00000000 0000000E     T   13443 13443  14475  17678  33537  45725
 FILBFLAG      1 00000014 FFFFFFE6     R    2468  2472   2477
 FILEATFB      8 00000040 FFFFFFE6     D    2497  9681   9708M 10326  10353M 36073  36083M
 FILEATFBFP
               4 00000040 FFFFFFE6     A    2498 36082  36082
 FILECB      344 00000000 FFFFFFE6     J    2594  9516U 11502U 12326U 18079U 21252U 22599U 26419U 31495U 31707U 34983U
                                                 35219U 36440U 37153U 37593U 39235U 45572U
 FILECRE       4 00000130 FFFFFFE6     A    2586 12331  12342M 31500  31511M 31712  31723M
 FILEDASB      4 00000120 FFFFFFE6     A    2580 22922  35478  37597M
 FILEDB        8 00000108 FFFFFFE6     D    2569 22606  22633M 35228  35255M 36470  36480M 37197  37207M
 FILEDBFP      4 00000108 FFFFFFE6     A    2570 36479  36479  37206  37206
 FILEDCNT      4 00000128 FFFFFFE6     A    2582 36971  36981M 37420  37430M 37639  37736  37747M 37889  37900M
 FILEDCN2      2 0000012C FFFFFFE6     H    2583 37654  37655M
 FILEDECB      8 00000100 FFFFFFE6     D    2567 22912  35468  38000
 FILEDF        8 00000118 FFFFFFE6     D    2577 22836  22846M 37826  37853M
 FILEDFFP      4 00000118 FFFFFFE6     A    2578 22845  22845
 FILEDSYR      4 00000124 FFFFFFE6     A    2581 22927  35483  37620M
 FILEDT        8 00000110 FFFFFFE6     D    2573 35392  35402M 37673  37700M
 FILEDTFP      4 00000110 FFFFFFE6     A    2574 35401  35401
 FILEDTS       1 0000012E FFFFFFE6     X    2584 22867M 35423M 38022M
 FILEFFSB      4 00000008 FFFFFFE6     A    2460 30004  30070  39241  45576  45627
 FILEFSBC      4 0000000C FFFFFFE6     A    2461 29696  30005  30071  39242
 FILEFSGT      4 00000010 FFFFFFE6     A    2462 29691  39239
 FILEHALT      4 00005208 00000001     I   38437 38432  38448U
 FILEMA        1 00000000 00000001     R    1228  1226
 FILEMAN       1 00000000 00000001     J    1219  1216   1217   1221   1327   1408   1495   1710   1738   1759   1781
                                                  1804   2595   2638   2917   2975   3194   3216   3288   3445   3473
                                                  3528   3590   3613   3632   3661   3718   3738   3762   3802   3839
                                                  3860   3880   3914   3947   3994   4015   4038   4071   4094   4115
                                                  4137   4158   4178   4279   4315   4334   4397   4416   4446   4479
                                                  4506   4526   4546   4568   4589   4608   4628   4682   4708   4733
                                                  4759   4793   4824   4866   4887   4908   4942   4969   4998   5021
                                                  5044   5073   5092   5136   5161   5184   5207   5246   5269   5292
                                                  5315   5338   5360   5386   5409   5432   5455   5481   5529   5731
                                                  5754   5800   5831   5854   5880   5906   5963   6076   6099   6125
                                                  7066   7191   8858   9382
1FILEMAN  (FILEMA) (09:39) (22MAR04) Ordinary Symbol and Literal Cross Reference                                            Page  285
 FILTEMPF      4 00000034 FFFFFFE6     A    2490  9655M  9655   9662
 FMANFDT       4 00004D14 00000001     I   36367 36378U 38204
 FMANFDT9      2 00004D08 00000001     H   36362 36361
 FMANFINF      4 00006220 00000001     I   44734 44729  44745U
 FMANINIT      4 00006326 00000001     I   45247 45242  45258U
 FMANTDEL      4 00004F2C 00000001     I   37535 37530  37546U 38206
 FMANTDIN      4 00005078 00000001     I   38079 38074  38090U
 FMANTDT       4 00004E60 00000001     I   37085 37096U 38201
 FMANTDT9      2 00004E54 00000001     H   37080 37079
 FMANTERM      4 000063EA 00000001     I   45518 45513  45529U
 FMASFINI      4 00005168 00000001     I   38236 12571  38247U
 FMBLKDEX      2 00005B20 00000001     H   41810 41802B 41807B
 FMBLKDE2      2 00005B48 00000001     H   41862 41520B
 FMBLKDE4      2 00005C3E 00000001     H   42134 40829B 40928B 40955B 41137B 41506B 41715B 42128B
 FMBLKDE5      2 00005C54 00000001     H   42178 40708B 40911B 41120B 41431B
 FMBLKDE6      2 00005C78 00000001     H   42228 40781B 41434B 41691B
 FMBLKDE8      2 00005D50 00000001     H   42521 41522B 42129B
 FMBLKDE9      2 00005D72 00000001     H   42587 40960B 41521B 41716B
 FMBLKD12      2 00005B18 00000001     H   41805 40450B 40470B 41191B 41266B 41592B 41646B 41704B 41792B
 FMCLSUDO      4 000061E2 00000001     I   44617 44612  44628U
 FMDELBLK      4 000056FA 00000001     I   40304 26237  40315U
 FMDELIXR      4 00005DAC 00000001     I   42760 38189  42771U 45724
 FMHYINIT      4 000060AA 00000001     I   44102 44097  44113U
 FMHYINIT      1 00000000 0000001D     T   26258 26258
 FMIXRADD      4 00005FFE 00000001     I   43789 12600  43784  43800U
 FMIXRDE4      2 00005E50 00000001     H   43059 42924B 42992B
 FMIXRGET      4 00005EA4 00000001     I   43229 15094  18590  26264  38191  43240U 45720
 FMIXRPUT      4 00005F38 00000001     I   43470 18589  26265  43481U 45721
 FMRANGE       4 0000557A 00000001     I   39723 12867  15101  39734U
 FMRANGES      2 00005670 00000001     H   40164 39805B 39840B 39860B
 FMRANGE9      2 0000556E 00000001     H   39718 39717
 FMSETSOU      4 00006188 00000001     I   44465 40195  44476U
 FPA           1 00000002 00000001 A   N    1421  1427   1428   1429   1436   1439  14871  18967  33725
 FPALL         1 0000000F 00000001 A   U    1432 11390  11391  11392  12078  26251
 FPE           1 00000008 00000001 A   N    1423  1431   1432   1438  19745
 FPFIXR        1 00000010 00000001 A   N    1418  6170
 FPMIXR        1 00000080 00000001 A   N    1415  6143
 FPN           1 00000000 00000001 A   N    1419  1433
 FPR           1 00000001 00000001 A   N    1420  1426   1427   1428   1435   1439  12686
 FPS           1 00000010 00000001 A   N    1424  1430  11905
 FPSIXR        1 00000040 00000001 A   N    1416  6152
 FPW           1 00000004 00000001 A   N    1422  1427   1437   1439  14852  15883  16567  16770  16895  18983  19356
                                                 19635  19742  19955  20144  20203  20244  20321  20438  20612  33695
 FPZIXR        1 00000020 00000001 A   N    1417  6161
 FRO           1 00000001 00000001 A   U    1426  3016   3099   3148   3240
 FRP           1 00000003 00000001 A   U    1428  3034   3117   3175   3258
 FRW           1 00000007 00000001 A   U    1427  1432   3025   3108   3157   3249
 FSB         480 00000000 FFFFFFE4     J    2916  9449U 11355U 12673U 12971U 14839U 15221U 18666U 20968U 26380U 30558U
                                                 34578U 34894U 36525U 37166U 38799U 39252U 39882U 40365U 42802U 43271U
                                                 43512U 43831U 44144U 44775U 45289U 45586U
 FSBAFLGS      1 00000009 FFFFFFE4     R    2684  2688   2693   2698   2703   2708   2713
 FSBAHFB       4 0000003C FFFFFFE4     A    2770 10077  21944  32065  35586  38863  45378M 45384
 FSBANAVL    128 00000009 FFFFFFE4         2688 11145  12796  15012  18725  28921  28969  30400  32658M 32694M 45613
                                                 45613  45614M
 FSBARO       64 00000009 FFFFFFE4         2693 11174  15024  18757  28825  28873  30369  32573M 32610M
 FSBBALST      1 000000AC FFFFFFE4     X    2796  2815
 FSBBITSB      4 000000D4 FFFFFFE4     A    2820 19683
 FSBCATSB      4 00000044 FFFFFFE4     A    2775 19662
 FSBCGRI       4 00000028 FFFFFFE4     A    2765 38819
1FILEMAN  (FILEMA) (09:39) (22MAR04) Ordinary Symbol and Literal Cross Reference                                            Page  286
 FSBCHAIN      4 00000004 FFFFFFE4     A    2678 30027  30098  39283  45615  45677
 FSBCLOSE     16 00000009 FFFFFFE4         2703 45613  45613
 FSBDSZ        2 000000AC FFFFFFE4     Y    2797 13211  13347  13601  13687  14235  14329  15604  16279  16308  16395
                                                 17333  17362  17532  17826  20489  28460  28467  29016  32445  32896
                                                 33216  39888  42280  43392  44281
 FSBFCACT      8 000001A0 FFFFFFE4     D    2891  2904   2904
 FSBFIOCT      8 00000140 FFFFFFE4     D    2859  2887   2887   2900   2901   2902
 FSBID         1 00000008 FFFFFFE4     X    2680 29382  29382  29383M 29593  29593  29594M 30089  39274
 FSBNAME       8 00000018 FFFFFFE4     C    2760 29383  29383  29594  29594  29964  30012  32788  32789  32790  32790
 FSBOFLGS      1 0000000B FFFFFFE4     R    2739  2743   2748   2753
 FSBONIXR    128 0000000B FFFFFFE4         2743 31338
 FSBOWNER      6 00000020 FFFFFFE4     C    2761 30219  34618
 FSBRBT        4 0000002C FFFFFFE4     A    2766 14673  15391  16719  18487  26100  32499  32890  33019  33262  36891
                                                 37374  41766  41842  42269  42965  43917  44028  44171  44391  45157
 FSBSFLGS      1 0000000A FFFFFFE4     R    2719  2723   2728   2733
 FSBTBLK       4 000000E0 FFFFFFE4     A    2823 28562  29113  29250  29833  29873
 FSHR          1 00000010 00000001 A   U    1430  3135
 GRCAN         1 00000000 00000036     T   40197 40197
 GRCRE         1 00000000 0000000A     T   12594 12594  45735
 GRDEL         1 00000000 00000030     T   38185 38185
 GRGET         1 00000000 00000009     T   12593 12593  13442  17675  26243  33534  38171  40198
 GRREL         1 00000000 0000000B     T   12595 12595  15099  18600  26244  33536  38174  40199
 GRSZ          1 00000006 00000001 A   U    2383  3790   3830   3872   3892   3893   3894   3926   3927   3928   3984
                                                  3985   4006   4027   4028   4062   4086   4107
 H                        00000001 A   U   21005 25181  25193  25268
 HASHIT        1 00000000 00000008     T   12592 12592  26242  33533
 HIBAL         1 00000000 FFFFFFFF     J     700   716    729    742    755    768    781    794    807    820    833
                                                   846    859    872    885    898    911   1012   1024   1036   1048
                                                  1060   1072   1084   1096   1108   1120   1132   1144   1156   1168
                                                  1180   1192   1204
 IXR        2048 00000000 FFFFFF8D     U    6134  6189   6193   6193  13462U 13470U 13495  13496  13497  13833  13849
                                                 13879  13881  13938  13946  14017  14040  14082  14085  14170  14268
                                                 15746U 15754U 15762U 15834  15837  16446  16518  16519  16760  16843
                                                 17077  17083  17117  17582  17596  17640  20981U 20989U 20997U 21005U
                                                 21365  21404  21430  21477  21576  21583  21702  21709  22204  22255
                                                 22264  22321  24756  24867  24956  24962  25018  25032  25145  25181
                                                 25268  25278  25352  25584  36538U 37285U 40379U 40387U 40395U 40730
                                                 40731  41332  41433  41531  41690  41934  41949  42314  42351  42437
                                                 42467  42816U 42824U 42929  43156  43297U 43305U 43526U 43626  43932U
                                                 44186U 44280  44821U
 IXRDSECT      1 00000000 FFFFFF8D     J    6129  6234   6274   6330   6377   6884   6909   6959   6987   7017   7052
 IXRECNO       3 00000001 FFFFFF8D     X    6176 13855  16990M 17063M 17064  17832M 24754M 24754  24872M 25528  36656
                                                 36663M 36663  36797M 36797  42117  42991  43541M 43541  43603  43938M
                                                 44332M
 IXRFIXR      16 00000000 FFFFFF8D         6172 44321M 44351M
 IXRHIRC       3 0000003B FFFFFF8D     X    6181 16073  16080M 16617  16866  16935  17028M 17028  17246  17253M 21717
                                                 21739  25009M 25190  25300  25334  40879M 40879  40923  41589  41663
                                                 41674  42027M 42027  42101M 42101  42405M 42405  42509M
 IXRHIRF       3 00000041 FFFFFF8D     X    6184 15921  16118  16131M 21668  24779  24848  24927M 25303M 25338M 40435
                                                 40619M 40619  40926M
 IXRHIXR       2 000007FE FFFFFF8D     H    6198 16798  17007M 17007  17907  17914M 21699  24276  25293  41208  41220
                                                 41263  41892M 41892  41990M 42005M 42005
 IXRIXNT#      1 00000292 FFFFFF8D A   U    6194  6195  13938  22222  25114  25548  41908  41946  41949  41950  42848
                                                 43098
 IXRLWRC       3 00000038 FFFFFF8D     X    6180 16016M 16016  16022M 16050  16056M 17023M 17023  17208  17229M 21591
                                                 21613  25189M 25189  25190M 25227  25324  25326M 25336M 41067M 41067
                                                 41132  41609  41620  41643  42022M 42022  42100M 42100  42410M 42410
                                                 42466M
 IXRLWRF       3 0000003E FFFFFF8D     X    6183 16085  16113M 21542  24801  25230M 25328M 40429  40614M 40614  41135M
1FILEMAN  (FILEMA) (09:39) (22MAR04) Ordinary Symbol and Literal Cross Reference                                            Page  287
 IXRLWXR       2 000007FC FFFFFF8D     H    6197 17002M 17002  17860  17867M 17890M 21573  25219  41188  41283  41295
                                                 41887M 41887  41948M
 IXRMIXR     128 00000000 FFFFFF8D         6145 17015  17015  43709  43949M
 IXRMXNT#      1 0006A068 FFFFFF8D A   U    6195 20841  40212
 IXRNAME      44 00000004 FFFFFF8D     C    6177 17834M 17834  22203M 22258M 22324M 43936M 43936M 43937  43937M 44322M
                                                 44322M 44323  44323M
 IXRNIXR       2 000007FA FFFFFF8D     H    6196 16997M 16997  17069  17070M 17845  17846M 17883  41482  41484M 42032M
                                                 42032
 IXRNRCS       4 00000030 FFFFFF8D     A    6178 15902M 15902  16106M 16106  16140  16141M 16598M 16598  17041M 17041
                                                 17192  17193M 17223  17304  17305M 21319M 21319  21513M 21513  21639M
                                                 21639  21755  24417  24729  24734M 24768M 24768  25084M 25084  40821
                                                 40823M 41459M 41459  41512  41514M 41710  41875M 41875  42392  42394M
                                                 45131
 IXRNT         3 00000044 FFFFFF8D     X    6187  6189   6190   6194  13496  13516M 13516  13591  13833  13938  13985M
                                                 13985  14017  14036  14040  14082  14146M 14146  14170  14225  14268
                                                 14478  15834  15865M 15865  15982M 15982  15990M 16003M 16003  16353
                                                 16446  16519  16818M 16818  16851  17064M 17145M 17145  17172M 17172
                                                 17186M 17489  17582  17596  17640  17683  17810M 17810  17824M 17832
                                                 17940  21415M 21415  21429  21488M 21488  21582  21708  22243M 22243
                                                 22254  22264  25017M 25018  25130  25191  25192  25193  25278  25339
                                                 25340  25341  25560  25584  26267  40730  40898M 40898  41086M 41086
                                                 41397M 41397  41430  41470  41478M 41478  41531  41925M 41925  41934
                                                 41949  41949  41969M 41969  42043M 42043  42091  42102  42103  42104
                                                 42307M 42307  42313M 42313  42314  42321M 42321  42351  42428M 42428
                                                 42437  42467  42467  42487M 42487  42599M 42599  42865M 42865  42914
                                                 42929  43136M 43136  43147  43156  45718  45739
 IXRNT#        1 00000294 FFFFFF8D A   U    6189  6190   6194   6195  13496  14009  14082  14474  15834  16519  17596
                                                 17680  17681  17684  20858  24166  24212  25192  25340  26240  26268
                                                 31551  33527  40216  40730  41221  41339  42103  42411  42463  42467
                                                 42468  43115  45717  45740
 IXRPREF      68 00000000 FFFFFF8D     U    6186  6189  16989M 16989
 IXRRRCS       4 00000034 FFFFFF8D     A    6179 16146  16147M 17060M 17060  17075  17076M 17276  17277M 17310  17311M
                                                 17839  17840M 21053  21125  21756  22491  24416  24735  24736M 24755M
                                                 24755  37291  40824  40826M 41487  41489M 41515  41517M 41714M 42109
                                                 42111M 43943M 44271  44272M 44304M 44346M 44346
 IXRSIXR      64 00000000 FFFFFF8D         6154 13930  16581  16673  16752  17015  17015  21396  21567  21693  22215
                                                 24270  25099  25542  41165  42017M 42837  43091  43679
 IXRSTART      4 00000000 FFFFFF8D     F    6133  6134   6186   6186
 IXRSTATE      1 00000000 FFFFFF8D     R    6137  6145   6154   6163   6172  17016M 17053M
 IXRZIXR      32 00000000 FFFFFF8D         6163 24241  40417  42386  43649  44315M
 J                        00000001 A   U   40395 42313  42314  42599  42599
 KWRIFADM      1 00000002 FFFFFF8D A   U    6390 33483  33484  33485
 KWRIFAPR      1 00000040 FFFFFF8D A   U    6385 12057  19619  20128  20228  20305  20422  30795  31086  33483  33484
                                                 33485
 KWRIFSPR      1 00000020 FFFFFF8D A   U    6386 28768  33483  33484  33485  33487  33488  33489  33491  33492  33493
                                                 33494  33498  33499
 L                        00000001 A   U   11025 11039  11045  11055  11073
 LBP           4 00000004 FFFFFFE9     A    1751  7698M 10602M 22073  22075M 22155M 35787  35789M 36230  36232M
 LELEM         8 00000000 FFFFFFE9     J    1758  7692M  7698M  7699M 10596M 10602M 10603M 22073  22074  22075M 22076M
                                                 22149M 22155M 22156M 35787  35788  35789M 35790M 36230  36231  36232M
                                                 36233M
 LFP           4 00000000 FFFFFFE9     A    1750  7692M  7699M 10596M 10603M 22074  22076M 22149M 22156M 35788  35790M
                                                 36231  36233M
 LHBP          4 00000004 FFFFFFEA     A    1729  7685   7691M 10589  10595M 22142  22148M
 LHCNT         4 00000008 FFFFFFEA     A    1730  7677   7678M 10581  10582M 22034  22059M 22134  22135M 35748  35773M
                                                 36191  36216M
 LHEAD        12 00000000 FFFFFFEA     J    1737  7677   7678M  7685   7691M 10581  10582M 10589  10595M 22034  22059M
                                                 22134  22135M 22142  22148M 35748  35773M 36191  36216M
 M                        00000001 A   U   15762 16003  16003  16016  16016  16022  16050  16056  16073  16080  16851
1FILEMAN  (FILEMA) (09:39) (22MAR04) Ordinary Symbol and Literal Cross Reference                                            Page  288
                                                 17192  17193  17208  17223  17229  17246  17253  17276  17277  17304
                                                 17305  17310  17311  17596  17834  17839  17840  17845  17846  17860
                                                 17867  17883  17890  17907  17914
 MASFINI9      2 0000515C 00000001     H   38231 38230
 MAT         256 00000000 FFFFFFED     J    1407  9492U 11478U 12302U 18055U 21228U 22575U 26395U 31471U 31683U 32834U
                                                 34959U 35199U 36416U 37129U 37569U 38130U 39211U 45548U
 MATFILCB      4 00000028 FFFFFFED     A    1368  9498  11484  12308  18061  21234  22581  26401  31477  31689  34965
                                                 35205  36422  37135  37575  39217  45554
 MATPTR        4 00000200 FFFFFFED A   A    1354  9482  11468  12292  18045  21218  22565  26385  31461  31673  32824
                                                 34949  35186  36406  37119  37559  38120  39201  45538
 MATSKEY       1 000000E0 FFFFFFED     X    1387 38136
 MATSNAME      8 000000D4 FFFFFFED     C    1385 32840
 MDELBLK9      2 000056EE 00000001     H   40299 40298
 MDELIXR9      2 00005DA0 00000001     H   42755 42754
 MITMK1        1 00000000 FFFFFF90     R    5997  6001   6006   6011   6016   6021   6026   6031   6036
 MITMK2        1 00000001 FFFFFF90     R    6042  6046   6051   6056
 MIXRGET9      2 00005E98 00000001     H   43224 43223
 MIXRPUT9      2 00005F2C 00000001     H   43465 43464
 MSETSOU9      2 0000617C 00000001     H   44460 44459
 M1AMSK        1 00FFFFFF 00000001 A   U    2380  2381
 M1CANWAI      1 00000000 00000035     T   40196 40196
 M1FAT_12      2 00000ACE 00000001     H   11233 11158B 11193B
 M1FATAV       2 00000A6A 00000001     H   11134  9668B 10076B
 M1FATCH       4 00000658 00000001     I    9395  9332   9406U
 M1FATCHE      2 00000AD8 00000001     H   11238 11203B 11208B 11213B 11218B 11230B 11235B
 M1FATCH9      2 0000064C 00000001     H    9390  9389
 M1FATRVR      2 00000A98 00000001     H   11201  9639B 10069B
 M1FATR04      2 00000AA0 00000001     H   11206 11058B
 M1FATR08      2 00000AAA 00000001     H   11211 11082B
 M1FATR12      2 00000AB4 00000001     H   11216 11076B
 M1FATW16      2 00000ABE 00000001     H   11221  9556B
 M1FCDOIO      2 000023BE 00000001     H   20789 19030B 19160B 19206B 19248B 19288B 19696B 19943B
 M1FCEM04      2 00002368 00000001     H   20716 19308B 20635B
 M1FCEM08      2 00002376 00000001     H   20724 19400B 19420B 19588B
 M1FCEM12      2 00002384 00000001     H   20732 18728B 18760B
 M1FCERVR      2 0000235C 00000001     H   20708 19546B 19886B
 M1FCER04      2 00002392 00000001     H   20740 19567B 19933B 19992B 20181B 20281B 20358B 20475B
 M1FCEW00      2 00002334 00000001     H   20682 19120B 19200B 19243B 19283B 19292B 20408B 20491B 20600B
 M1FCEW08      2 0000233E 00000001     H   20693 18988B 19361B 19640B 19665B 19686B 19750B 19960B 20149B 20208B 20249B
                                                 20326B 20443B 20617B
 M1FCEW12      2 00002348 00000001     H   20698 19114B 20402B
 M1FCEW28      2 00002352 00000001     H   20703 20384B
 M1FCIOTP      1 000023D0 00000001     R   20829 18677
 M1FCNOIO      2 000023A8 00000001     H   20755 20690B 20695B 20700B 20705B
 M1FCONT       4 00001ECA 00000001     I   18624  9335  18635U
 M1FCONT9      2 00001EBE 00000001     H   18619 18618
 M1FCSPEC      2 000023A0 00000001     H   20748 18696B 18709B 18808B 18841B 18862B 18905B 18938B 19024B 19065B 19150B
                                                 19326B 19380B 19712B 20032B 20654B 20673B 20782B
 M1FCTEMP      2 000023B6 00000001     H   20769 19998B 20114B 20191B 20214B 20291B 20368B 20485B 20679B 26221  26223
                                                 26225  26227  26230
 M1FC00        2 00001F50 00000001     H   18870 26208
 M1FC01        2 00001F50 00000001     H   18873 26209
 M1FC02        2 00001F20 00000001     H   18775 26210
 M1FC03        2 00001FA4 00000001     H   19033 26211
 M1FC04        2 00001FE8 00000001     H   19163 26212
 M1FC05        2 00002006 00000001     H   19209 26213
 M1FC06        2 00002028 00000001     H   19251 26214
 M1FC07        2 0000204C 00000001     H   19291 26215
 M1FC08        2 00002050 00000001     H   19295 26216
1FILEMAN  (FILEMA) (09:39) (22MAR04) Ordinary Symbol and Literal Cross Reference                                            Page  289
 M1FC09        2 00002122 00000001     H   19699 26217
 M1FC10        2 000021AE 00000001     H   19946 26218
 M1FC11        2 000021CA 00000001     H   20001 26219
 M1FC12        2 0000220E 00000001     H   20117 26220
 M1FC14        2 00002232 00000001     H   20194 26222
 M1FC16        2 0000223E 00000001     H   20217 26224
 M1FC18        2 00002262 00000001     H   20294 26226
 M1FC20        2 00002286 00000001     H   20371 26228
 M1FC21        2 0000229A 00000001     H   20411 26229
 M1FC23        2 000022BE 00000001     H   20488 26231
 M1FC24        2 000022CA 00000001     H   20494 26232
 M1FC25        2 0000230E 00000001     H   20603 26233
 M1FDTCH       4 00000D7A 00000001     I   12477  9337  12488U
 M1FDTCH9      2 00000D6E 00000001     H   12472 12471
 M1FILE        4 00000022 00000001     I    7085  7080   7096U
 M1FILEIO      4 000004D2 00000001     I    8760  8771U 12580
 M1FREAD       4 00000E8E 00000001     I   12631  9333  12642U
 M1FREAD9      2 00000E82 00000001     H   12626 12625
 M1FRLSE       4 0000475A 00000001     I   33951  9339  33962U
 M1FRLSE9      2 0000474E 00000001     H   33946 33945
 M1FRSRV       4 00004680 00000001     I   33574  9338  33585U
 M1FRSRV9      2 00004674 00000001     H   33569 33568
 M1FSBACC      2 00003C5E 00000001     H   30151 28985
 M1FSBADC      2 00003C72 00000001     H   30161 30120B 30372B 30403B
 M1FSBAD8      2 00003C68 00000001     H   30156 30049B
 M1FSBA44      2 00003C54 00000001     H   30146 26843B 28828B 28876B 28924B 28972B
 M1FSERRX      2 00003C8E 00000001     H   30184 30143B 30148B 30153B 30158B 30163B
 M1FSERVR      2 00003C4C 00000001     H   30141 26775B 26822B 26888B 27196B 27272B 27561B 27734B 27903B 28084B 28406B
                                                 28749B 29231B 29586B
 M1FSEXIT      2 00003CA0 00000001     H   30205 30181B 30202B
 M1FSEX00      2 00003C9A 00000001     H   30197 26849B 26895B 27279B 27568B 27741B 27910B 28091B 28297B 28412B 28571B
                                                 28987B 29122B 29259B 29842B 29882B 29910B
 M1FSFSB       2 00003BCC 00000001     H   29913 28106B 28427B 28800B 29003B 29308B 29815B 29855B
 M1FSIOTP      1 000045C2 00000001     R   33503 30342
 M1FSPEC       2 00003C44 00000001     H   30134 26477B 26506B 26519B 26536B 26913B 27297B 27763B 27782B 27947B 28121B
                                                 28443B 28565B 28773B 29019B 29116B 29253B 29277B 29301B 29402B 29613B
                                                 29720B 29740B 29836B 29876B 29898B 30323B
 M1FSTAT       4 000032E0 00000001     I   26316  9336  26329U 26337U
 M1FSTAT9      2 000032D4 00000001     H   26311 26310
 M1FSWE00      2 00003C7C 00000001     H   30166 28792B 29384B 29595B 29697B
 M1FS00        2 00003348 00000001     H   26545 33454
 M1FS01        2 0000341E 00000001     H   26852 33455
 M1FS02        2 00003448 00000001     H   26898 33456
 M1FS02A       2 00003452 00000001     H   26920 29283B
 M1FS03        2 0000353C 00000001     H   27282 33457
 M1FS04        2 000035F6 00000001     H   27571 33458
 M1FS05        2 00003668 00000001     H   27744 33459
 M1FS06        2 00003668 00000001     H   27746 33460
 M1FS07        2 00003668 00000001     H   27748 33461
 M1FS100       2 000036CA 00000001     H   27913 33462
 M1FS101       2 000036DC 00000001     H   27958 33463
 M1FS102       2 000036CA 00000001     H   27915 33464
 M1FS103       2 0000373A 00000001     H   28094 33465
 M1FS104       2 000036CA 00000001     H   27917 33466
 M1FS105       2 000037B8 00000001     H   28300 33467
 M1FS106       2 00003802 00000001     H   28415 33468
 M1FS107       2 00003866 00000001     H   28574 33469
 M1FS108       2 000038EA 00000001     H   28795 33470
 M1FS109       2 00003944 00000001     H   28990 33471
1FILEMAN  (FILEMA) (09:39) (22MAR04) Ordinary Symbol and Literal Cross Reference                                            Page  290
 M1FS110       2 00003992 00000001     H   29125 33472
 M1FS111       2 000039EA 00000001     H   29262 33473
 M1FS112       2 000039F8 00000001     H   29286 33474
 M1FS113       2 00003A4A 00000001     H   29387 33475
 M1FS114       2 00003AF0 00000001     H   29598 33476
 M1FS115       2 00003B42 00000001     H   29700 33477
 M1FS116       2 00003B9E 00000001     H   29845 33478
 M1FS117       2 00003BBA 00000001     H   29885 33479
 M1FWRIT       4 0000144A 00000001     I   14797  9334  14808U
 M1FWRIT9      2 0000143E 00000001     H   14792 14791
 M1GOSTAT      1 00000000 0000002E     T   33546 33546
 M1GOWAIT      1 00000000 0000002B     T   33543 33543  38198  45737
 M1IAT_04      2 00000D34 00000001     H   12394 11459B 11882B 12216B
 M1IATCH       4 00000AF6 00000001     I   11313  9342  11324U
 M1IATCHE      2 00000D60 00000001     H   12418 12396B 12401B 12406B 12411B
 M1IATCH9      2 00000AEA 00000001     H   11308 11307
 M1IATRVR      2 00000D5C 00000001     H   12414 11441B 11864B
 M1IATR04      2 00000D3E 00000001     H   12399 11983B 12027B 12083B
 M1IATR16      2 00000D48 00000001     H   12404 12238B
 M1IATR32      2 00000D52 00000001     H   12409 11922B
 M1ICERVR      2 00003036 00000001     H   25646 21303B 21855B 22411B 23043B 23189B 23246B 23376B 23454B 23612B 23767B
                                                 23921B 24075B
 M1ICEXIT      2 00003116 00000001     H   25999 25648B 25659B 25664B 25669B 25674B 25679B
 M1ICEX00      2 0000303E 00000001     H   25651 21497B 21623B 21749B 21757B 22963B 23094B 23530B 23689B 23843B 23997B
                                                 24151B 25643B
 M1ICEX04      2 00003048 00000001     H   25662 25838B
 M1ICEX12      2 00003052 00000001     H   25667 21322B 21418B 21462B 21491B 21516B 21642B 23521B 23680B 23834B 23988B
                                                 24142B 24318B
 M1ICEX16      2 0000305C 00000001     H   25672 24550B
 M1ICEX20      2 00003066 00000001     H   25677 24374B
 M1ICGIXR      2 000030C2 00000001     H   25852 21052B 21308B 21502B 21628B 21754B 22202B 22483B 24231B
 M1ICGIX2      2 000030E2 00000001     H   25902 21366B 21431B 21584B 21710B 22256B 22322B 24678B 24868B 24957B 25146B
                                                 25182B
 M1ICONT       4 0000244A 00000001     I   20913  9345  20924U
 M1ICONT9      2 0000243E 00000001     H   20908 20907
 M1ICPIXR      2 00003100 00000001     H   25956 22205B 22259B 22325B 24757B 24873B 25033B 25269B 25353B
 M1ICRESV      2 0000307A 00000001     H   25692 25684B
 M1ICSRES      2 00003078 00000001     H   25686 21307B 21501B 21627B 21753B 24170B
 M1ICXRES      2 00003070 00000001     H   25682 21051B 21761B
 M1IC00        2 00002476 00000001     H   21023 26208
 M1IC01        2 0000249A 00000001     H   21047 26209
 M1IC02        2 000024A0 00000001     H   21050 26210
 M1IC03        2 0000251E 00000001     H   21306 26211
 M1IC04        2 000025AC 00000001     H   21500 26212
 M1IC05        2 00002612 00000001     H   21626 26213
 M1IC06        2 00002678 00000001     H   21752 26214
 M1IC08        2 00002690 00000001     H   21760 26216
 M1IC09        2 00002974 00000001     H   22966 26217
 M1IC10        2 000029F8 00000001     H   23196 26218
 M1IC11        2 00002A1E 00000001     H   23249 26219
 M1IC12        2 00002A7A 00000001     H   23379 26220
 M1IC13        2 00002AA6 00000001     H   23457 26221
 M1IC14        2 00002AC8 00000001     H   23533 26222
 M1IC15        2 00002AF8 00000001     H   23615 26223
 M1IC16        2 00002B20 00000001     H   23692 26224
 M1IC17        2 00002B4C 00000001     H   23770 26225
 M1IC18        2 00002B6E 00000001     H   23846 26226
 M1IC19        2 00002B9A 00000001     H   23924 26227
 M1IC21        2 00002BBC 00000001     H   24000 26229
1FILEMAN  (FILEMA) (09:39) (22MAR04) Ordinary Symbol and Literal Cross Reference                                            Page  291
 M1IC22        2 00002BE8 00000001     H   24078 26230
 M1IC25        2 00002C0A 00000001     H   24154 26233
 M1IREAD       4 00000F34 00000001     I   12916  9343  12927U
 M1IREADE      2 000013C8 00000001     H   14568 13439B 13899B 14471B 14550B 14555B 14560B 14565B
 M1IREADH      2 00001070 00000001     H   13451 13140B
 M1IREADX      2 000011BC 00000001     H   13903 13122B
 M1IREAD2      2 000011FE 00000001     H   13951 14131B
 M1IREAD4      2 00001268 00000001     H   14089 14458B
 M1IREAD6      2 00001382 00000001     H   14484 13492B 13880B 13910B 14037B
 M1IREAD9      2 00000F28 00000001     H   12911 12910
 M1IREE_4      2 000013A0 00000001     H   14548 13238B 13308B 13628B 13788B 14262B 14431B
 M1IREE04      2 000013AA 00000001     H   14553 13094B
 M1IREE12      2 000013BE 00000001     H   14563 13534B 13873B 13969B 14003B 14071B 14121B 14164B
 M1IRSRV       4 000046B2 00000001     I   33654  9348  33665U
 M1IRSRV9      2 000046A6 00000001     H   33649 33648
 M1IRS00       2 00004726 00000001     H   33878 33755B 33767B
 M1IRS04       2 00004730 00000001     H   33891 33858B
 M1IRS08       2 0000473A 00000001     H   33898 33717B 33730B
 M1ISTAT       4 00003DA6 00000001     I   30516  9346  30527U
 M1ISTAT9      2 00003D9A 00000001     H   30511 30510
 M1IS00        2 00003DDC 00000001     H   30598 33454
 M1IS01        2 00003E18 00000001     H   30684 33455
 M1IS02        2 00003E3C 00000001     H   30737 33456
 M1IS03        2 00003E9C 00000001     H   30901 33457
 M1IS04        2 00003EFE 00000001     H   31038 33458
 M1IS05        2 00003F5C 00000001     H   31192 33459
 M1IS06        2 00003FAE 00000001     H   31328 33460
 M1IS07        2 00004022 00000001     H   31545 33461
 M1IS100       2 00004094 00000001     H   31757 33462
 M1IS101       2 000040CA 00000001     H   31853 33463
 M1IS102       2 000040E8 00000001     H   31891 33464
 M1IS103       2 0000410C 00000001     H   31934 33465
 M1IS104       2 00004142 00000001     H   32011 33466
 M1IS105       2 00004166 00000001     H   32064 33467
 M1IS106       2 00004210 00000001     H   32392 33468
 M1IS108       2 00004278 00000001     H   32526 33470
 M1IS108A      2 000042FC 00000001     H   32712 32566B 32651B
 M1IS108D      2 0000430E 00000001     H   32752 32612B 32695B
 M1IS108J      2 0000434E 00000001     H   32852 32574B 32611B
 M1IS108N      2 0000432A 00000001     H   32787 32542B 32613B
 M1IS109       2 0000435C 00000001     H   32864 33471
 M1IS110       2 000043D6 00000001     H   33046 33472
 M1IS111       2 000043FE 00000001     H   33105 33473
 M1IS115       2 00004428 00000001     H   33163 33477
 M1IS116       2 00004486 00000001     H   33289 33478
 M1IS117       2 000044BA 00000001     H   33379 33479
 M1IWRE_4      2 00001D88 00000001     H   18231 15523B 15689B 16256B 16419B 17442B 17555B
 M1IWRE04      2 00001D92 00000001     H   18236 15350B
 M1IWRE08      2 00001D9C 00000001     H   18241 15924B 15954B 16620B 16650B 16801B 16837B 16869B 16938B
 M1IWRE12      2 00001DB6 00000001     H   18276 15868B 17148B 18254B
 M1IWRE16      2 00001DC8 00000001     H   18293 18023B
 M1IWRE20      2 00001DD2 00000001     H   18298 18222B
 M1IWRIT       4 0000152C 00000001     I   15166  9344  15177U 26236
 M1IWRITE      2 00001DDC 00000001     H   18303 15732B 16537B 17672B 18233B 18238B 18273B 18290B 18295B 18300B
 M1IWRITH      2 00001668 00000001     H   15735 15428B
 M1IWRITX      2 000018AE 00000001     H   16540 15410B
 M1IWRIT5      2 00001C3E 00000001     H   17690 16497B 17078B 17635B 18356B 18377B
 M1IWRIT6      2 00001C54 00000001     H   17743 15772B 15825B 16515B 16547B 16852B 17941B
 M1IWRIT7      2 00001C72 00000001     H   17797 16883B 17084B 17654B
1FILEMAN  (FILEMA) (09:39) (22MAR04) Ordinary Symbol and Literal Cross Reference                                            Page  292
 M1IWRIT8      2 00001D0A 00000001     H   17950 15988B 17061B 17184B 17822B
 M1IWRIT9      2 00001520 00000001     H   15161 15160
 M1TIME        1 00000000 00000037     T   40200 40200
 NTFCLP      128 00000010 FFFFFFE2         3063 23985
 NTFCODE       1 00000010 FFFFFFE2     R    3059  3063   3068   3073   3078   3083   3088
 NTFFLGO       1 00000012 FFFFFFE2     R    3142  3150   3159   3168   3177
 NTFFLGP       1 00000011 FFFFFFE2     R    3093  3101   3110   3119   3128   3137
 NTFLNMSZ      1 0000001F FFFFFFE2     X    3183  3852
 NTFLOC        3 0000000A FFFFFFE2     X    3055  3852  23504U 23662U 23817U 23971U 24125U
 NTFNOCLP     32 00000010 FFFFFFE2         3073 23831
 NTFPSHR      16 00000011 FFFFFFE2         3137 23518
 NTFSFORM     64 00000010 FFFFFFE2         3068 23677
 NTFSPI        8 00000010 FFFFFFE2         3083 24139
 NTFUINFO      4 0000001B FFFFFFE2     X    3182  4191  23667
 NTGFLG        1 00000019 FFFFFFE2     R    3010  3018   3027   3036   3045
 NTPFLG        1 00000006 FFFFFFE0     R    3234  3242   3251   3260   3269   3278
 NTRYGR       26 00000000 FFFFFFE2     R    3049 30481
 NTRYPR        7 00000000 FFFFFFE0     J    3287 20848  30475
 NTRYSTRT      1 00000000 FFFFFFE2     X    2993  3049   3049   3185   3185
 NTRYVAR       1 0000000A FFFFFFE2     X    2999  3051
 NTRYXST       1 00000000 FFFFFFE1     X    3205  3207
 OL            2 00000002 FFFFFFE4 A   N    2668  2669   2669   2994   2996   2998   3007   3206
 PAGTPROT      1 00000000 0000003A     T   40205 40205
 PGESZ         1 00001000 00000001 A   U    2379  2381
 PZABORT     128 0000021A FFFFFFEE         1307  7409M  7620M  7815M  9816M 10461M 22741M 35363M 38325M 43336M 43557M
                                                 45366M
 PZABR15       4 0000021C FFFFFFEE     A    1316  7410M  7621M  7816M  9817M 10462M 22742M 35364M 38326M 43337M 43558M
                                                 45367M
 PZABSM        1 0000021B FFFFFFEE     X    1315  7403M  7614M  7809M  9810M 10455M 22735M 35357M 38319M 43330M 43551M
                                                 45360M
 PZCURASB      4 00000208 FFFFFFEE     A    1292  7174   7221   8833  36118  37597  38361  38470  44484  44636
 PZCURTSK      4 0000020C FFFFFFEE     A    1293  8590
 PZERO       640 00000000 FFFFFFEE     J    1326  1336U
 PZLCPUA       4 00000210 FFFFFFEE     A    1294  7411   7622   7817   9818  10463  22743  35365  38327  43338  43559
                                                 45368
 PZTERMFL      1 0000021A FFFFFFEE     R    1303  1307   1312
 RA            2 00000002 FFFFFFFF A   #    1028  7216U  7427M  8297   8613   8870U  8874M  9436U 11014  11341U 12505U
                                                 12659U 12957U 14825U 15207U 18652U 20954U 26367U 30544U 33602U 33682U
                                                 33979U 34191U 38120M 38130U 38551M 38552M 38552  38567U 39751U 40341M
                                                 40351U
 RAR          14 0000000E FFFFFFFF A   #    1184  7259M  7385M  7596M  8362M  8524M  8634M  8734B  8942M  9017M  9075M
                                                  9182M  9218M  9292M  9627M  9677M  9792M 10057M 10173M 10233M 10437M
                                                 10525M 10552M 10636M 11287B 11429M 11828M 11848M 12204M 12451B 12562B
                                                 12717M 12859B 13079M 13225M 13296M 13614M 13776M 14248M 14419M 14543M
                                                 14633M 14701M 14771B 14931M 15087B 15335M 15395M 15511M 15677M 16244M
                                                 16407M 16723M 17430M 17543M 17739M 17792M 18011M 18210M 18447M 18515M
                                                 18579B 19466M 19534M 19811M 19869M 20087M 20821B 21041M 21100M 21202M
                                                 21843M 21942M 21988M 22186M 22399M 22563M 22717M 22931M 23031M 23188M
                                                 23245M 23346M 23453M 23498M 23611M 23656M 23766M 23811M 23920M 23965M
                                                 24074M 24119M 24362M 24497M 24549M 24621M 24670M 25416M 25471M 25532M
                                                 25579M 25826M 25896M 25951M 25995M 26060M 26128M 26200B 26598M 26701M
                                                 26763M 26805M 26876M 26970M 27056M 27184M 27260M 27352M 27458M 27549M
                                                 27643M 27722M 27831M 27891M 28014M 28072M 28176M 28269M 28334M 28394M
                                                 28522M 28674M 28732M 29073M 29159M 29219M 29358M 29447M 29515M 29574M
                                                 29668M 29785M 29981M 30455B 30677M 30730M 30875M 31003M 31142M 31295M
                                                 31444M 31656M 31846M 31884M 31927M 31985M 32057M 32160M 32219M 32350M
                                                 32386M 32458M 32513M 32748M 32757M 32783M 32856M 32860M 32894M 32993M
                                                 33033M 33098M 33156M 33229M 33276M 33331M 33384M 33446B 33631B 33845M
                                                 33925B 34058M 34105B 34275M 34545M 34782B 35031M 35072M 35339M 35487M
1FILEMAN  (FILEMA) (09:39) (22MAR04) Ordinary Symbol and Literal Cross Reference                                            Page  293
                                                 35656M 35702M 35815M 35953M 36037M 36058M 36320B 36635M 36704M 36790M
                                                 36847M 36906M 36964M 37026M 37274M 37348M 37388M 37475M 37557M 37619M
                                                 37649M 37808M 37951M 38015M 38149M 38161B 38301M 38392M 38409B 38640M
                                                 38718M 38765M 38835M 38861M 38909M 38935M 38977B 39026M 39052B 39388B
                                                 39532M 39697B 39982M 40031M 40183B 41775M 41851M 42098M 42174M 42222M
                                                 42273M 42572M 42654M 42708B 42921M 42979M 43044M 43151M 43203B 43402M
                                                 43444B 43735M 43763B 43868M 43921M 44000M 44043M 44076B 44175M 44269M
                                                 44279M 44339M 44406M 44439B 44559M 44592B 44712B 45129M 45172M 45222B
                                                 45342M 45436M 45489B 45625M 45676M 45705B
 RB            3 00000003 FFFFFFFF A   #    1040  9449U  9667M 10075M 11345M 11355U 12663M 12673U 12961M 12971U 14829M
                                                 14839U 15211M 15221U 18656M 18666U 19871M 20958M 20968U 22779  26380U
                                                 26765M 26781  26807M 26878M 26894  27262M 27278  27551M 27567  27724M
                                                 27740  27909M 28074M 28090  28734M 29237M 29576M 30004M 30027M 30070M
                                                 30098M 30130  30206M 30548M 30558U 34547M 34568  34578U 34894U 34987M
                                                 35388  36525U 36542M 37166U 37184M 38780M 38781M 38781  38799U 39241M
                                                 39252U 39283M 39311  39872M 39882U 40355M 40365U 42792M 42802U 43261M
                                                 43271U 43502M 43512U 43821M 43831U 44134M 44144U 44775U 45088M 45279M
                                                 45289U 45400  45576M 45586U 45600M 45600  45615M 45627M 45656M 45656
                                                 45677M
 RELRQFB       4 000049D4 00000001     I   34826 12578  34837U
 RELRQFB9      2 000049C8 00000001     H   34821 34820
 RJ            4 00000004 FFFFFFFF A   #    1052  7203U  7264M  7436   9220M  9230U 10077M 10087U 13319M 13320M 13405M
                                                 13615M 13616  13798M 14249M 14250  14442M 15441M 15603  15833M 16163
                                                 16496  16518M 16843M 16844M 17187M 17299M 17534M 17535M 17536M 17595M
                                                 17833M 21772U 21944M 24206M 24206  24211M 24211  24213M 24679M 25163
                                                 32065M 32075U 35586M 35596U 38309M 38346U 38377  38863M 38873U 40845M
                                                 40860M 40860  40908M 40909  40917M 40924M 40926  41050M 41097M 41109
                                                 41118  41126M 41133M 41135  42231M 42232M 42232  42274M 42275  42285M
                                                 42286M 42314M 42588M 42848M 44507U 44520M 44521M 44521  44659U 44672M
                                                 44673M 44673  44788U 44886M 45350M 45378  45383M 45384M 45394U 45448M
 RK            5 00000005 FFFFFFFF A   #    1064  7127U  7148M  7149M  7149   7447M  7448M  7448   7636M  8298   8528M
                                                  8528   8612   8701   8794M  8804U 10174M 10175M 10176M 10176  10186U
                                                 10247  10290  10486  13245M 13330  13347  13374  13394M 13403  13404
                                                 13634M 13646  13675M 13717  13794  13795  14276M 14288  14317M 14359
                                                 14438  14439  15834M 16468  16519M 17321M 17333  17362M 17364  17531
                                                 21943M 22090M 22091  22491M 22507M 22766U 22770M 24207M 24212M 24247M
                                                 24276M 24279M 24295M 24315  24980M 24996M 25005  25118M 25118  25163M
                                                 25183M 25252M 25252  32161M 32162M 32163M 32163  32173U 32245  32287
                                                 35181U 35379M 35600M 35610U 37179U 37183M 38512U 38531M 38532M 38532
                                                 40815M 40815  40822  40825  40827M 40828  41443M 41443  41513  41516
                                                 41518M 41519  41692  41701M 41701  42280M 42290M 42290  42324M 42371M
                                                 42371  42393  42847M 42847  42923M 44801U 44834M 44835M 44835  45296M
                                                 45438M
 RM            8 00000008 FFFFFFFF A   #    1100  9454M  9464U 13146M 13330  13357M 13357  13374M 13394  13398M 13398
                                                 13420M 13420  13482M 13482  13483M 13484M 13497  13943M 13943  13944M
                                                 13947  14646M 14706M 15435M 15617  15623M 15641  15642  15646M 15646
                                                 15712M 15712  15784M 15784  15785M 15787  15835  16736M 16736  16737M
                                                 16740  18460M 18520M 21218M 21228U 21234M 21252U 21332M 21332  21348M
                                                 21371  21402M 21432  21781U 21945M 22308M 22320  22328M 24164M 24164
                                                 24167M 24852M 24852  24853M 24858M 24865  24869  24876M 24933M 24933
                                                 24948M 24948  24954  25036M 25113M 25113  25157M 25157  25179  25243M
                                                 25243  25281M 26073M 26133M 32546  32620  32824M 32834U 32840M 36118M
                                                 36128U 36134M 36152U 36656M 36664  36730M 40684M 40685  40700M 40700
                                                 40707  40790M 40790  40845  40948M 40948  40967M 41012M 41021M 41021
                                                 41050  41175M 41175  41176M 41221M 41223  41250M 41250  41251M 41320M
                                                 41323M 41324M 41325  41329M 41329  41330M 41340  41432M 41433  41535M
                                                 41535  41577M 41589  41609  41620M 41688  41689M 41690  43922M 43932U
                                                 44235M 44287M 44332  44354M 45383M 45445M 45446  45447
 RN            9 00000009 FFFFFFFF A   #    1112  8159M  8160M  8160   8227U  8259U  8353M  8355M  8355   8361   8485M
1FILEMAN  (FILEMA) (09:39) (22MAR04) Ordinary Symbol and Literal Cross Reference                                            Page  294
                                                  8562   8661M  8695   8808M  8818U  8933M  8935M  8935   8941  10971M
                                                 10981U 10997  11091M 13150M 13150  13320  13403M 13431  13475M 13476
                                                 13485M 13491  13496M 13843  13913M 13914  13945M 13946  13947M 14010
                                                 14016M 14016  14068  14084M 14085  14130M 14130  14647M 14708M 14722M
                                                 14722  15439M 15439  15606  15624M 15642M 15724  15778M 15779  15797M
                                                 15797  15823  16511M 16513  16731M 16732  16738  16741M 16760  17083
                                                 18461M 21101M 21302  21328M 21357M 21357  21363M 21364  21371M 21403M
                                                 21404  21432M 21459  21476M 21477  21542M 21574M 21585M 21592M 21613M
                                                 21622  21668M 21700M 21711M 21718M 21739M 21748  21989M 21999U 22091M
                                                 22092  22102U 22222M 22309M 24165M 24166M 24168  24848M 24856M 24857M
                                                 24929M 24973  24979M 24996  25000M 25000  25050M 25050  25114M 25548M
                                                 26074M 28104M 28425M 28799M 29001M 29307M 29813M 29853M 29925  30089
                                                 32542M 32543M 32566M 32574M 32611M 32612M 32613M 32617M 32617  32651M
                                                 32695M 32749B 32784B 32849B 32861B 32900M 34442M 34444M 34461M 34491M
                                                 34494M 34496  34858M 34868U 36444M 36454U 36705M 36707M 36716M 36716
                                                 40683M 40731  40750M 40776M 40971M 40971  41171M 41188  41208  41220M
                                                 41222M 41223M 41224  41246M 41263  41283  41295M 41296M 41297  41319M
                                                 41324  41331M 41332  41357M 41375M 41631M 41643  41663  41674M 41687M
                                                 41688M 41801M 41801  41806M 41856  43098M 43115M 43284U 44236M 44270
                                                 44304  45382M 45382
 RQACCNA       6 000000A4 FFFFFF88     C    6872 19794  19835M 19862  19870M 23146  26581  26622M 26798  26806M 26840
                                                 30632
 RQACCNB       6 000000AA FFFFFF88     C    6873 26640M 26684  26725M 26756  26764M 26840  27391M 27441  27482M 27495
                                                 27542  27550M 27626  27667M 27684M 27715  27723M 30637  30953  31075
                                                 31120
 RQACLP       16 00000006 FFFFFF88         6498  7712   7921M  8189   8323   8904  11710  11980  12024  20504  20562
                                                 30855  34708
 RQADET        2 00000006 FFFFFF88         6513 34916  34930M
 RQADONE     128 00000006 FFFFFF88         6483 11055  12388M 45037
 RQAFLG        1 00000006 FFFFFF88     R    6479  6483   6488   6493   6498   6503   6508   6513
 RQAFLG2       1 00000007 FFFFFF88     R    6519  6523   6528   6533   6538   6543
 RQAGRH        4 00000010 FFFFFF88     A    6553 12222M 35046M 35046  35068
 RQAHALT       4 00000006 FFFFFF88         6508  8177   8269M  8311   8892  11456  11879  35901  38576M 38620M
 RQAMAG       64 00000007 FFFFFF88         6528  7886M 11656  11951  19930  19989  20178  20278  20355  20472  23168
                                                 23326  30231M 30293  30657  30814  30983  31105  31249  31398  31604
                                                 34630M
 RQAOWN      128 00000007 FFFFFF88         6523 11682  11939  19918  19977  20166  20266  20343  20460  23314  27397M
                                                 27507M 30260M 30826  30971  31275  31424  31630  34659M
 RQAPERM       1 00000004 FFFFFF88     X    6418  7848  11390M 11889M 11890  11907  19747  19957  20146  20246  20323
                                                 20440  20614  45054
 RQARES       32 00000007 FFFFFF88         6533 13007  14584  15257  18398  25716  26011  33764  33869M 34070M 44924
 RQASFB        4 0000006C FFFFFF88     A    6855  7436M  9220   9454  28575
 RQASHR       32 00000006 FFFFFF88         6493 11073  12174M 12995  15245  19305  20632  25704  33752  44898
 RQASPI        8 00000006 FFFFFF88         6503  7947M 12012
 RQASTAT      16 00000007 FFFFFF88         6538 12519  26429M 44864
 RQAS117       8 00000007 FFFFFF88         6543 29909M 38631
 RQATFB        4 00000018 FFFFFF88     A    6555  7166   7829   8283M  8283   8832   9833M 10615M 11039  11039  11360
                                                 13013  15263  21945  22417  23051  25617  25743  33773  34000  34941
                                                 38590M 38590  38658  44886
 RQATMP       64 00000006 FFFFFF88         6488  9567M 11384  17960  19323  19709  20779  21146  35087  44950
 RQATT         4 00000004 FFFFFF88     A    6417  6557   6557
 RQATTF       24 00000004 FFFFFF88     C    6557  6901   7160U  7827M  8468   8966  11025U 34904U 38613U 44810U
 RQBLKC        4 00000060 FFFFFF88     A    6852  7847M 11894M 12098  13860  18792  18889  19049  19111  19239  19281
                                                 19282  20537  22309  22507  22781  24207  24247  24711  24923  24929
                                                 25435  40079  41109
 RQCCLP      128 00000005 FFFFFF88         6430 11968
 RQCHYBR       4 00000005 FFFFFF88         6473 13137  14899  15425  18328  18786  18883  19021  19043  19187  19233
                                                 19275  20381  20547  21342  21531  21657  22302  22477  22817  24197
                                                 24410  24705  24748  25428  25616M 40089  44976
1FILEMAN  (FILEMA) (09:39) (22MAR04) Ordinary Symbol and Literal Cross Reference                                            Page  295
 RQCNIXR      16 00000005 FFFFFF88         6454 13119  14887  15407  18316  19009  19093  19175  19221  19263  20399
                                                 20531  22196  22465  22791  24185  24398  24693  24917  25494  25610M
                                                 33714  40073  45011  45065
 RQCODE        1 00000005 FFFFFF88     R    6423  6430   6438   6446   6454   6462   6473  11892M
 RQCONT       16 0000001C FFFFFF88         6603  8031  15852  17132  18251
 RQCSPI        8 00000005 FFFFFF88         6462 12000
 RQDTCH       24 0000001C FFFFFF88         6623  8201
 RQFACC        6 00000008 FFFFFF88     C    6549  7731M  7756M  7874  11646  11753  23151  26640  26869  26877M 27222
                                                 27391  27495  27684  28698M 28725  28733M 28779  30219  30248  30642
                                                 30721  30837  30948  31120  31130  31239  31388  31594  34385  34618
                                                 34647
 RQFB         40 00000000 FFFFFF87     J    6908  7127U  7586   7643M  7643   8804U 10981U 34868U 36244M 36244  36249
                                                 36257M 38512U 44801U
 RQFBASV      24 00000010 FFFFFF87     C    6901  7160U  7827   8468M  8966M 11025U 34904U 38613U 44810U
 RQFBFP        4 00000000 FFFFFF87     A    6897 11091
 RQFBID        4 00000008 FFFFFF87     C    6899  7644M 36245M
 RQFBLK        4 0000005C FFFFFF88     A    6851  7846M 11465M 11466  11893M 12096  13153  13429  13485  13859  13909
                                                 15443  15722  15771  15824  16514  16546  16990  19662  19683  21363
                                                 22308  22508  24866  24928  25434  25889  40706  40910  41119
 RQFBRQWB      4 0000000C FFFFFF87     A    6900  8159   8297M  8660M  8660   9040M  9040  11014  38551  38597M 38597
 RQFIID        4 00000064 FFFFFF88     A    6853  7899M 11045  11117  30417
 RQFORM       16 0000001E FFFFFF88         6719 23591
 RQFSB         4 00000024 FFFFFF88     A    6767  7845M  9662M  9667   9847  10075  10489  11345  12663  12961  14829
                                                 15211  18656  20958  26781M 26894M 27278M 27567M 27740M 27909  28090M
                                                 29237  30130M 30206  30548  34568M 39872  40355
 RQIBLK        4 00000030 FFFFFF88     C    6804 13152  13475  13913  15442  15778  15891  16587  16731  16779  21024M
                                                 28104  28425  28550  29001  29101  29250  29813  29821  32430  32938
                                                 33088  33201  39902
 RQICBLK       4 00000034 FFFFFF88     C    6798 18859  18902  18935  19062  19111  19147  20650  21024  21025  21048
                                                 21328  24165  40447  40559  40576  40667  41246  41314  41577
 RQICBL2       4 00000030 FFFFFF88     C    6799 18805  18838  18859  21048M 40467  40487  40504  40543  41171  41241
                                                 41631
 RQICINF       4 00000034 FFFFFF88     C    6800 23020  23049  23157  23234  23433M 23433  23575  23746M 23746  23900M
                                                 23900  24054M 24054
 RQICLEN       4 00000030 FFFFFF88     C    6797 19377M 19377  19397  19417  19454  19527  20012M 20012  20029  20069
                                                 23291
 RQICLOC       4 00000034 FFFFFF88     C    6796 19342M 19342  19449  19522  20064  21796M 21796  23286
 RQICON        4 0000003C FFFFFF88     C    6795 18671  18956M 18956  21017  21114
 RQICUSA       4 00000030 FFFFFF88     C    6801 19728M 19728  19782  19834  22977M 22977
 RQIDAT        4 0000003C FFFFFF88     C    6806 13273  13319  13753  13796  14396  14440  15494  15605  16227  16397
                                                 17413  17534  21027M 28499  28799  29051  29762  32462  32897  33233
                                                 39771M 39959  40014
 RQIFILE       4 0000003C FFFFFF88     C    6809  9538M  9538  10045
 RQIFLEN       4 00000034 FFFFFF88     C    6810 10050
 RQIFLG        1 0000001E FFFFFF88     R    6651  6655   6660   6665   6670   6679   6687   6695   6703   6711   6719
                                                  6727
 RQIF00       32 0000001E FFFFFF88         6665  8091M
 RQIF01       16 0000001E FFFFFF88         6670  8136M
 RQIF14      128 0000001E FFFFFF88         6655  8014M
 RQIF15       64 0000001E FFFFFF88         6660  8058M
 RQILEN        4 00000034 FFFFFF88     C    6805 13146  13278  13477  13758  13915  14401  15435  15462M 15462  15499
                                                 15777  16195M 16195  16232  16730  17381M 17381  17418  21034M 21034
                                                 28428  28472M 28504  29004  29705  29767  32463  32898  32959  32970
                                                 33234  39786  39915M 39915  39964  40019
 RQIREG       16 00000030 FFFFFF88     C    6776  7979M
 RQIR00        4 00000038 FFFFFF88     A    6774  6779   6779   8079   8093M
 RQIR01        4 0000003C FFFFFF88     A    6775  6780   6783   6783   6785   6785   6787   6787   6791   6791   6792
                                                  6792   6795   6795   6806   6806   6809   6809   8124   8138M
 RQIR14        4 00000030 FFFFFF88     A    6772  6776   6776   6782   6782   6786   6786   6790   6790   6797   6797
1FILEMAN  (FILEMA) (09:39) (22MAR04) Ordinary Symbol and Literal Cross Reference                                            Page  296
                                                  6799   6799   6801   6801   6804   6804   8002   8016M  8824
 RQIR15        4 00000034 FFFFFF88     A    6773  6781   6781   6784   6784   6788   6788   6789   6789   6796   6796
                                                  6798   6798   6800   6800   6805   6805   6810   6810   8046   8060M
 RQISACC       4 0000003C FFFFFF88     C    6787 27985  28037  28600M 28600  28645  28697
 RQISBLK       4 00000030 FFFFFF88     C    6790 27760  27779M 27779  31229  31378  31550
 RQISFIL       4 00000030 FFFFFF88     C    6786 27005M 27005  27027  27079  28204  29307
 RQISLEN       4 00000034 FFFFFF88     C    6784 26910  26952  27294  27334  27819  27884  28118  28158  28322  28387
                                                 29147  29212  29274  29298  29340  29399  29429  29610  29650  29694
                                                 30779  30943  31976  33147
 RQISLOC       4 0000003C FFFFFF88     C    6783 26947  27329  27814  27879  28153  28317  28382  29142  29207  29335
                                                 29381  29424  29592  29645  29693  30774  30938  31971  33142
 RQISPAC       4 00000034 FFFFFF88     C    6788 27944  31828  31923  32053
 RQISPRM       1 0000003F FFFFFF88     C    6780 30647  30726
 RQISTAT       4 00000038 FFFFFF88     C    6779 26430  30265  30570
 RQISTYP       4 00000034 FFFFFF88     C    6789 28801  32527
 RQISUSA       4 00000034 FFFFFF88     C    6781 26569  26621
 RQISUSB       4 00000030 FFFFFF88     C    6782 26633M 26633  26672  26724  27385M 27385  27429  27481  29486  29538
 RQISUSE       4 0000003C FFFFFF88     C    6785 27582M 27582  27614  27666
 RQIS116       4 0000003C FFFFFF88     C    6791 29853  29861  33295
 RQIS117       4 0000003C FFFFFF88     C    6792 29888  33380
 RQLBLK        4 00000070 FFFFFF88     A    6856 16688  16974  21025M 39903M 40063
 RQMPERM       1 0000001F FFFFFF88     R    6741  7848M  7849M 11391M 11890M 11891M 12080  12688  14854  14873  15885
                                                 16569  16772  16897  18969  18985  19358  19637  20205  33697  33727
 RQNACC        6 0000007C FFFFFF88     C    6863 18002  21188  22549  24483  24607  27105M 27222M 27253  27261M 27997
                                                 28038M 28065  28073M 28252  28292M 28657  30248  31794  31880  31918
                                                 31981  32048  34385M 34538  34546M 34647
 RQNAME       44 00000078 FFFFFF88     C    6860  6868   6868   6869  10124  10141  19489  19496M 19496  19585  20842
                                                 21893  21910  26993M 26994  26994M 26994  27172  32111  32128  38175
 RQNAMS       40 0000007C FFFFFF88     C    6862  7844M  9845  10265  10487  11422  11641  12235  22089  22203  22203
                                                 22258  22258  22324  22324  22395  23019  23156  23233  23296  23416
                                                 23494  23570  23652  23729  23807  23883  23961  24037  24115  24664
                                                 25396  30784  31234  31383  31589  32263  32346  33083  33152
 RQNAM2       33 00000083 FFFFFF88     C    6869  9669M  9670  21839  34489M 34490  34490M 34490  34503M 34583  38209
 RQNAX       128 0000001E FFFFFF88         6679 11722  11765
 RQND1         1 0000007E FFFFFF88     C    6865 34344
 RQND2         1 00000082 FFFFFF88     C    6867 34360  34386M
 RQNGRP        2 0000007C FFFFFF88     C    6864 34677M
 RQNORV        4 00000078 FFFFFF88     C    6861  7828M 34384M
 RQNPFX       11 00000078 FFFFFF88     C    6868  6869  19564  34334M 34335  38178  38208
 RQNUSE        3 0000007F FFFFFF88     C    6866 34689M
 RQOLD        64 0000001E FFFFFF88         6703  9553  11186  11818  12044  12285
 RQPKEY        1 00000021 FFFFFF88     X    6764  7988M 13283  13763  14406  15504  16237  17423  19459  19804  20074
                                                 26591  26694  26957  27049  27339  27451  27636  27824  28007  28163
                                                 28262  28327  28509  28667  29066  29152  29345  29434  29508  29655
                                                 29772  29974  34268  39969  40024
 RQPRIV        1 0000001D FFFFFF88     X    6647  7738M  7989M 12059  19621  20130  20230  20307  20424  28770  30311
                                                 30797  31088
 RQRABK        4 0000004C FFFFFF88     C    6829 31158M 31170  31177M
 RQRARO        4 0000004C FFFFFF88     C    6833 11157M 11157  11192M
 RQRBIB        4 00000040 FFFFFF88     C    6826 21756M
 RQRBLK        4 00000040 FFFFFF88     C    6823 14571M 15723M 18339M
 RQRCBK        4 0000004C FFFFFF88     C    6828 21120M 21622M 21748M 31317M
 RQREAD        8 0000001C FFFFFF88         6583 39802  39930
 RQRETC        4 00000044 FFFFFF88     C    6831 11128M 11128  11202M 11207M 11212M 11217M 11228M 11228  11234M 12382M
                                                 12382  12395M 12400M 12405M 12410M 12415M 12542M 12542  12701M 12701
                                                 12769M 12769  12803M 12826M 12826  13438M 13438  13898M 13898  14470M
                                                 14470  14549M 14554M 14559M 14564M 14915M 14915  14983M 14983  15031M
                                                 15054M 15054  15731M 15731  16536M 16536  17671M 17671  18232M 18237M
                                                 18272M 18289M 18294M 18299M 20709M 20717M 20725M 20733M 20741M 20763M
1FILEMAN  (FILEMA) (09:39) (22MAR04) Ordinary Symbol and Literal Cross Reference                                            Page  297
                                                 20763  20796M 20796  25647M 25658M 25658  25663M 25668M 25673M 25678M
                                                 30142M 30147M 30152M 30157M 30162M 30416M 30416  30678M 30731M 30876M
                                                 31004M 31143M 31296M 31310  31344M 31445M 31657M 31847M 31885M 31928M
                                                 31986M 32058M 32355M 32520M 32520  32558M 32706M 32706  33040M 33040
                                                 33099M 33157M 33283M 33283  33346M 33369M 33369  33405M 33612M 33612
                                                 33885M 33885  33892M 33899M 34082M 34082
 RQRFCNT       4 0000004C FFFFFF88     C    6822 30891M 32001M
 RQRFID        4 00000048 FFFFFF88     C    6832 11045M 11117M 30417M
 RQRFLG        1 00000020 FFFFFF88     R    6746  6750   6755   6760
 RQRFORM       4 0000004C FFFFFF88     C    6834 23667M
 RQRFRE      128 00000020 FFFFFF88         6750  8479   8976   9152  11244M 12424M 12531M 22453M 30179M 30190M 30568M
 RQRGRH        4 00000014 FFFFFF88     A    6554 13080M 13091M 13091  14597M 14597  14629  14640M 14640  15336M 15347M
                                                 15347  18411M 18411  18443  18454M 18454  25844M 26024M 26024  26056
                                                 26067M 26067  33846M 33994M 33994  34054  34065M 34065  34998M 34998
                                                 35027
 RQRLEN        4 0000004C FFFFFF88     C    6824 14570M 15724M 18334M 29696M 33232M
 RQRM31       64 00000020 FFFFFF88         6755  7973M 39764
 RQRPCNT       4 00000040 FFFFFF88     C    6821 23361M 31019M
 RQRPRIV       4 0000004C FFFFFF88     C    6820 23371M 31028M
 RQRQID        4 00000068 FFFFFF88     A    6854  7891M  9142
 RQRR00        4 00000048 FFFFFF88     A    6815  6832   6832   7981M  8094M  8426   8433   8878M
 RQRR01        4 0000004C FFFFFF88     A    6816  6819   6819   6820   6820   6822   6822   6824   6824   6825   6825
                                                  6827   6827   6828   6828   6829   6829   6833   6833   6834   6834
                                                  7982M  8449   8456   8879M  9168
 RQRR14        4 00000040 FFFFFF88     A    6813  6817   6817   6821   6821   6823   6823   6826   6826   6830   6830
                                                  7984M  8380   8387   8876M  9173
 RQRR15        4 00000044 FFFFFF88     A    6814  6831   6831   7983M  8330M  8403   8410   8877M  8910M  9178
 RQRS116       4 0000004C FFFFFF88     C    6827 33362M
 RQRTYPE       4 0000004C FFFFFF88     C    6819 32461M 32472M
 RQRUBK        4 00000040 FFFFFF88     C    6830 31182M
 RQRUSB        4 0000004C FFFFFF88     C    6825 21755M
 RQR1ST       32 00000020 FFFFFF88         6760 10322M 11792
 RQSDEF       64 0000001E FFFFFF88         6727 27927  31804
 RQSHR        16 0000001E FFFFFF88         6695 11919  12162
 RQSKIP       64 0000001E FFFFFF88         6711 13531  14000  14161
 RQSTAT       20 0000001C FFFFFF88         6613  8109
 RQTSK         4 00000074 FFFFFF88     A    6857  8590M  9113
 RQTYPE        1 0000001C FFFFFF88     R    6564  6573   6583   6593   6603   6613   6623   6633   6643   7990M  8353
                                                  8830   8933
 RQVARI       44 000000A4 FFFFFF88     C    6871  6874  21026
 RQWAIT       32 0000001E FFFFFF88         6687 12136  13059  15315  25781  33825
 RQWB        208 00000000 FFFFFF88     J    6883  7216U  7375   7434M  7434   8217   8217   8227U  8237   8237   8259U
                                                  8532   8540M  8665   8673M  8818U  8870U  9237   9245M  9436U 11341U
                                                 12505U 12659U 12957U 14825U 15207U 18652U 20954U 26367U 30544U 33602U
                                                 33682U 33979U 34191U 38567U 39751U 40351U
 RQWBIB        4 00000050 FFFFFF88     C    6843 19282M
 RQWBID        4 00000000 FFFFFF88     C    6412  7435M
 RQWBRQFB      4 00000028 FFFFFF88     A    6768  8276M  8276   8298M  8960M  8960  38583M 38583
 RQWCBK        4 00000058 FFFFFF88     C    6844 19199M 19199  19242M
 RQWDSZ        4 00000058 FFFFFF88     C    6846 20490M
 RQWHFSZ       4 00000058 FFFFFF88     C    6847 20579M 20595M
 RQWHIXR       4 00000050 FFFFFF88     C    6848 20517M 20517  20569M
 RQWKNAME     44 000000A4 FFFFFF88     C    6875 19489M 19564  19585  21834
 RQWRETC       4 00000054 FFFFFF88     C    6845 11229M 12694M 12762M 14908M 14976M 20689M 20689  20694M 20699M 20704M
                                                 30173M 30173  34087M 34087
 RQWR01        4 00000058 FFFFFF88     A    6840  6842   6842   6844   6844   6846   6846   6847   6847   7985M  8466
 RQWR14        4 00000050 FFFFFF88     A    6838  6843   6843   6848   6848   7987M  8464
 RQWR15        4 00000054 FFFFFF88     A    6839  6845   6845   7986M  8465
 RQWUSB        4 00000058 FFFFFF88     C    6842 19281M
1FILEMAN  (FILEMA) (09:39) (22MAR04) Ordinary Symbol and Literal Cross Reference                                            Page  298
 RS            1 00000001 FFFFFFFF A   #    1016  7221M  7231U  7277M  7303   7495M  7521   8002M  8003M  8003   8015M
                                                  8015   8016   8046M  8047M  8047   8059M  8059   8060   8079M  8080M
                                                  8080   8092M  8092   8093   8094   8124M  8125M  8125   8137M  8137
                                                  8138   8539M  8614M  8615   8672M  9244M  9668M  9670M  9681M  9707
                                                 10076M 10299M 10300M 10301  10326M 10352  11198B 13492M 13795M 13880M
                                                 13910M 14037M 14439M 14545B 15604M 15617  15623  15624  15625  15772M
                                                 15825M 15988M 16395M 16497M 16515M 16547M 16852M 16883M 17061M 17078M
                                                 17084M 17184M 17532M 17635M 17654M 17740B 17794B 17798  17822M 17826M
                                                 17941M 17946M 17947B 18044  18045M 18055U 18061M 18079U 18170M 18228B
                                                 18356M 18377M 21017M 21018M 21019M 21019  21020B 21051M 21052M 21053M
                                                 21125M 21265  21307M 21308M 21366M 21431M 21501M 21502M 21584M 21627M
                                                 21628M 21710M 21753M 21754M 21761M 22202M 22205M 22256M 22259M 22322M
                                                 22325M 22483M 22606M 22632  22844M 24170M 24231M 24386M 24386  24416M
                                                 24417M 24423  24446  24512M 24570M 24678M 24757M 24868M 24873M 24957M
                                                 25033M 25146M 25182M 25194M 25269M 25342M 25353M 25434M 25849B 25899B
                                                 25953B 25996B 28106M 28204M 28213M 28213  28427M 28550M 28562  28575M
                                                 28585U 28800M 29003M 29004M 29016  29101M 29113  29308M 29692M 29815M
                                                 29821M 29833  29855M 29861M 29873  30131B 30311M 30320M 34388M 34400M
                                                 34416M 34428M 34584M 34599M 34676B 34683B 34688B 34695B 34751B 35228M
                                                 35254  35400M 35659M 35660M 35661  36081M 36256M 36478M 36959M 37205M
                                                 37291M 37397  37673M 37699  37826M 37852  38361M 38371U 39174M 39175M
                                                 39177M 39178M 39179M 39188M 39190M 39198M 39239M 39361B 39527M 39528
                                                 40708M 40781M 40829M 40911M 40928M 40955M 40960M 41120M 41137M 41431M
                                                 41434M 41506M 41520M 41521M 41522M 41691M 41715M 41716M 41863  42128M
                                                 42129M 42130M 42131B 42175B 42225B 42518B 42584B 42659B 42924M 42992M
                                                 43167B 44484M 44494U 44636M 44646U
 RTNTAB        4 00000604 00000001     A    9331  8355
 RTNTABC       4 0000317C 00000001     A   26208 20839  21019
 RTNTABCM      4 00003244 00000001     A   26233 20840
 RTNTABI       4 00000628 00000001     A    9341  8935
 RTNTABS       4 000044E0 00000001     A   33454 26488  30466  30466  30467  30493  30493  30594  33501  33501  33551
                                                 33551
 RTNTABSM      4 000045A8 00000001     A   33479 30468
 RTNTABSX      4 00004520 00000001     A   33462 30466  30493  33501  33551
 RVR           0 00000000 FFFFFFFF A   #    1004  7277M  7292M  7292   7301   7304M  7333M  7333   7375M  7393M  7393
                                                  7427   7483M  7495M  7510M  7510   7519   7522M  7551M  7551   7586M
                                                  7604M  7604   7636   8329M  8485   8532M  8541   8562M  8584M  8584
                                                  8638M  8638   8661   8665M  8674   8695M  9076   9125M  9237M  9246
                                                  9598M  9615M  9636M  9636   9681M  9696M  9696   9705   9708M  9737M
                                                  9737   9782M  9800M  9800   9832  10066M 10066  10124M 10141M 10158M
                                                 10174  10326M 10341M 10341  10350  10353M 10382M 10382  10427M 10445M
                                                 10445  10477  10526  10553  11121M 11121  11202  11245M 11438M 11438
                                                 11861M 11861  12213M 12213  12222  12415  12543M 12702M 12726M 12726
                                                 12756M 12756  12770M 12786M 12828M 12828  13080  13235M 13235  13305M
                                                 13305  13625M 13625  13785M 13785  13796M 13797M 13798M 14259M 14259
                                                 14428M 14428  14440M 14441M 14442M 14916M 14940M 14940  14970M 14970
                                                 14984M 15000M 15056M 15056  15336  15520M 15520  15587M 15603M 15672M
                                                 15686M 15686  15990  16253M 16253  16380M 16396M 16399M 16416M 16416
                                                 17063  17186  17439M 17439  17516M 17533M 17536M 17552M 17552  17824
                                                 17825M 17831M 18020M 18020  18219M 18219  19475M 19475  19543M 19543
                                                 19794M 19820M 19820  19872M 19872  19883  20096M 20096  20709  20710M
                                                 20718M 20726M 20734M 20742M 20749M 20756M 20798M 20798  21101  21302M
                                                 21852M 21852  21893M 21910M 21927M 21943  22027M 22027  22066M 22408M
                                                 22408  22606M 22621M 22621  22630  22633M 22662M 22662  22707M 22725M
                                                 22725  22770  22837M 22846  22912M 23040M 23040  23355M 23355  24326M
                                                 24371M 24371  24380  24422M 24423  24446M 24506M 24506  24513M 24570
                                                 25193M 25195M 25341M 25343M 25435M 25528M 25560M 25569M 25569  25647
                                                 25835M 25835  25844  26581M 26607M 26607  26684M 26710M 26710  26766M
                                                 26766  26808M 26808  26819  26879M 26879  26979M 26979  27039M 27065M
1FILEMAN  (FILEMA) (09:39) (22MAR04) Ordinary Symbol and Literal Cross Reference                                            Page  299
                                                 27065  27155M 27172M 27193M 27193  27263M 27263  27361M 27361  27441M
                                                 27467M 27467  27552M 27552  27626M 27652M 27652  27725M 27725  27840M
                                                 27840  27900M 27900  27997M 28023M 28023  28075M 28075  28185M 28185
                                                 28252M 28278M 28278  28343M 28343  28403M 28403  28531M 28531  28657M
                                                 28683M 28683  28735M 28735  28746  29082M 29082  29168M 29168  29228M
                                                 29228  29367M 29367  29456M 29456  29498M 29524M 29524  29577M 29577
                                                 29677M 29677  29691M 29695M 29794M 29794  29964M 29990M 29990  30135M
                                                 30142  30180M 30191M 30201M 30201  30678  30731  30876  30885M 30885
                                                 31004  31013M 31013  31143  31152M 31152  31296  31445  31454M 31454
                                                 31657  31666M 31666  31847  31885  31928  31986  31995M 31995  32058
                                                 32111M 32128M 32145M 32161  32294M 32355  33099  33157  33295M 33340M
                                                 33340  33362  33380M 33393M 33393  33400M 33405  33614M 33614  33846
                                                 33855M 33855  34088M 34284M 34284  34548M 34548  34668M 34668  34755M
                                                 35228M 35243M 35243  35252  35255M 35284M 35284  35329M 35347M 35347
                                                 35379  35393M 35402  35468M 35741M 35741  35780M 36074M 36083  36184M
                                                 36184  36223M 36249M 36258  36283M 36283  36471M 36480  36960M 37198M
                                                 37207  37620  37673M 37688M 37688  37697  37700M 37826M 37841M 37841
                                                 37850  37853M 38000M 38291M 38309  38520M 38520  38940M 38940  39316M
                                                 39316  39323M 39330M 39491M 39541M 39541  39558  39565M 39590  39597M
                                                 39627M 39647M 39647  39668M 39668  39675M 40044M 40044  40134M 40154M
                                                 40154  40165M 41856M 42524M 42525M 42525  43040M 43053M 43053  43147M
                                                 43626M 43877M 43877  43883M 43891  44048M 44048  44411M 44411  44570M
                                                 44570  45185M 45185  45350  45437
 RX            6 00000006 FFFFFFFF A   #    1076  9076M  9477U  9832M  9833  10235M 10247  10274M 10290  10477M 10615
                                                 11360M 11370U 13013M 13023U 13462U 13493M 13494  13497M 13833M 13843
                                                 13881M 13911M 13936  14038M 14039  14056  14085M 14104  14170M 14268M
                                                 15263M 15273U 15746U 15803M 15826M 15827  15833  15837M 16446M 16468
                                                 16516M 16517  16548M 16549  16759  16853M 17117M 17582M 17606  17799M
                                                 17825  20981U 22221  22226M 22226  22257M 22275  22313M 22313  22323M
                                                 22339  22508M 22780  24962M 25018M 25105  25109M 25109  25147M 25522M
                                                 25584M 25897M 25898  32220M 32230U 32245  32272M 32287  33773M 33783U
                                                 34000M 34010U 34196M 34335M 34583M 34682M 34694M 34747M 34881U 34941M
                                                 34942M 34942  35681M 35681  35985M 35985  36538U 36573M 37185M 37275M
                                                 37285U 38499U 38658M 38659M 38659  39022M 39029  39173M 39176M 39357M
                                                 40369M 40379U 40423  40725  40731M 40732  40927M 40954M 41028M 41045M
                                                 41136M 41433M 41479M 41511M 41576  41690M 41864M 41934M 41945M 41949M
                                                 41978M 41989M 42049  42099M 42119M 42223M 42224  42351M 42362M 42437M
                                                 42448M 42467M 42496M 42507M 42806M 42816U 42843  42922M 42923  42980M
                                                 43156M 43297U 43516M 43526U 44176M 44186U 44821U 45130M
 RY            7 00000007 FFFFFFFF A   #    1088  9482M  9492U  9498M  9516U 11468M 11478U 11484M 11502U 12292M 12302U
                                                 12308M 12326U 13152M 13153M 13317M 13429M 13430  13495M 13919M 13919
                                                 13936M 13937  13946M 13966  14017M 14040M 14118M 14118  15442M 15443M
                                                 15697M 15722M 15723  15774M 15775  15803  16163  16760M 16982M 17083M
                                                 17104M 17104  17266M 17266  17640M 21404M 21477M 21573M 21574  21575M
                                                 21576M 21576  21699M 21700  21701M 21702M 21702  22221M 22264M 22565M
                                                 22575U 22581M 22599U 24928M 25017  25021M 25105M 25217  25218M 25220M
                                                 25278M 25292M 26385M 26395U 26401M 26419U 31461M 31471U 31477M 31495U
                                                 31673M 31683U 31689M 31707U 34206M 34207M 34207  34226  34325  34336M
                                                 34442  34463M 34480  34491  34678M 34690M 34749M 34750M 34750  34949M
                                                 34959U 34965M 34983U 35186M 35199U 35205M 36406M 36416U 36422M 36440U
                                                 37119M 37129U 37135M 37153U 37559M 37569U 37575M 37593U 39027M 39036
                                                 39201M 39211U 39217M 39235U 39359M 39360M 39360  40423M 40927  40954
                                                 41028  41136  41332M 41531M 42049M 42119  42843M 42929M 42991M 43002M
                                                 43002  43040  45538M 45548U 45554M 45572U
 R0            0 00000000 FFFFFFFF A   #     708  1336U  7085   8760   9395  11313  12477  12631  12916  14797  15166
                                                 18624  20913  26316  30005M 30046M 30046  30071M 30117M 30117  30516
                                                 32462M 32464M 32546  32620  32753M 32788M 32897M 32899M 33233M 33235M
                                                 33574  33654  33951  34150  34826  36367  37085  37535  37645M 37729M
                                                 37729  37788  37882M 37882  37931  38079  38236  38437  38469M 38473
1FILEMAN  (FILEMA) (09:39) (22MAR04) Ordinary Symbol and Literal Cross Reference                                            Page  300
                                                 38481  39003  39027  39028M 39036M 39100  39242M 39302M 39302  39426
                                                 39723  39888M 39897  40304  42102M 42106M 42760  43229  43470  43789
                                                 44102  44280M 44286M 44465  44617  44734  45247  45518  45621M
 R1            1 00000001 FFFFFFFF A   #     721  7133M  8732M  8824M 11285M 12449M 12560M 12857M 14769M 15085M 18577M
                                                 20819M 26198M 30453M 32463M 32789M 32898M 33234M 33444M 33629M 33923M
                                                 34103M 34780M 36318M 38159M 38407M 38470M 38473  38481  38975M 39022
                                                 39028  39029M 39035M 39050M 39386M 39695M 40181M 42103M 42105  42706M
                                                 43201M 43442M 43761M 44074M 44281M 44437M 44590M 44710M 45220M 45487M
                                                 45703M
 R14          14 0000000E FFFFFFFF A   #     890  7133M  7177   7185   7301M  7302M  7302   7304   7519M  7520M  7520
                                                  7522   7829M  7839U  7897M  7899   8531M  8541M  8664M  8674M  8824M
                                                  8844   8852   9236M  9246M  9705M  9706M  9706   9708   9849M  9856
                                                  9860M  9880M  9897   9906M  9927M  9934   9938M  9958M  9975   9984M
                                                 10350M 10351M 10351  10353  10639M 10646  10650M 10670M 10687  10696M
                                                 10717M 10724  10728M 10748M 10765  10774M 10810M 10817  10821M 10841M
                                                 10858  10867M 10888M 10895  10899M 10919M 10936  10945M 11507M 11514
                                                 11518M 11538M 11555  11564M 12331M 12338  12342M 13318M 13405M 13490M
                                                 13490  13493  13716M 13717M 13718  13794M 13799M 13800  13809M 13810M
                                                 13811  13849M 13859M 13860M 13870  13879M 13908M 13908  13911  13938M
                                                 13939  14009M 14010M 14011M 14012  14030M 14038  14082M 14083  14174M
                                                 14175M 14176  14272M 14273M 14274  14358M 14359M 14360  14438M 14443M
                                                 14444  14544M 15605M 15606M 15672M 15770M 15770  15774  15822M 15822
                                                 15826  15835M 15836M 15837  16139M 16140M 16141  16145M 16146M 16147
                                                 16309M 16310M 16311  16397M 16398M 16399M 16400M 16401M 16402  16496M
                                                 16512M 16516  16545M 16545  16548  16785M 16785  16786M 16845M 16853
                                                 17068M 17069M 17070  17074M 17075M 17076  17077M 17191M 17192M 17193
                                                 17275M 17276M 17277  17303M 17304M 17305  17309M 17310M 17311  17363M
                                                 17364M 17365  17531M 17537M 17538  17634M 17644M 17645M 17646  17793M
                                                 17831M 17838M 17839M 17840  17844M 17845M 17846  17934M 18085M 18092
                                                 18096M 18116M 18133  18142M 18355M 18376M 18671M 18677  18679M 18680M
                                                 18693  18706  18771M 18772B 18792M 18793M 18805  18889M 18890M 18902
                                                 19049M 19050M 19062  19239M 19241M 19242  19834M 20489M 20490  20537M
                                                 20569  20574M 20579  21026M 21027  21257M 21264  21266M 21364M 21429M
                                                 21582M 21591M 21592  21708M 21717M 21718  22254M 22320M 22417M 22427U
                                                 22630M 22631M 22631  22633  22836M 22846M 23020M 23021  23049M 23050M
                                                 23068  23157M 23158  23234M 23235  23367M 23369M 23370M 23371  24673M
                                                 24711M 24729M 24734  24735M 24736  24837M 24837  24838M 24865M 24866M
                                                 24869M 24870M 24872  24923M 24925M 24927  24954M 24955M 25130M 25139M
                                                 25139  25179M 25180M 25191M 25195M 25219M 25221M 25228M 25230  25293M
                                                 25294M 25301M 25303  25324M 25326  25328  25334M 25336  25338  25339M
                                                 25343M 25617M 25627U 25743M 25753U 26430M 26442  26448M 26474  26487M
                                                 26488M 26488  26503  26516  26621M 26724M 27079M 27481M 27666M 29381M
                                                 29538M 29592M 29693M 29695M 30265M 30277  30283M 30304  30342  30570M
                                                 30582  30588M 30593M 30594M 30594  30595B 31025M 31027M 31028  31500M
                                                 31507  31511M 31549M 31549  31552M 31712M 31719  31723M 31811M 31828M
                                                 32459M 32464M 32470M 32472  32473M 32790M 32813M 32895M 32899M 33230M
                                                 33235M 33236M 35094M 35101  35104M 35125M 35132  35135M 35252M 35253M
                                                 35253  35255  35392M 35402M 35525M 35532  35535M 35556M 35563  35566M
                                                 35817M 35824  35827M 35848M 35855  35858M 36073M 36083M 36248M 36258M
                                                 36470M 36480M 36971M 36978  36981M 37197M 37207M 37389M 37396  37398M
                                                 37420M 37427  37430M 37653M 37654M 37655  37697M 37698M 37698  37700
                                                 37736M 37743  37747M 37850M 37851M 37851  37853  37889M 37896  37900M
                                                 39150M 39153  39461M 39473M 39473  39869M 39869  39897M 40079M 40096M
                                                 40101  40435M 40447  40487  40504  40543M 40674M 40675M 40676  40680M
                                                 40680  40681M 40682M 40683  40736M 40736  40737M 40773M 40774M 40775
                                                 40821M 40822M 40823  40824M 40825M 40826  41341M 41351  41358M 41359
                                                 41375  41482M 41483M 41484  41487M 41488M 41489  41512M 41513M 41514
                                                 41515M 41516M 41517  41908M 41947  41950M 41952M 41990  42104M 42106M
                                                 42109M 42110M 42111  42117M 42118  42285M 42411M 42457M 42457  42464
1FILEMAN  (FILEMA) (09:39) (22MAR04) Ordinary Symbol and Literal Cross Reference                                            Page  301
                                                 42468M 42470M 42509  44270M 44271M 44272  44286M
 R15          15 0000000F FFFFFFFF A   #     903  7085   7303M  7410   7411M  7412M  7413M  7414M  7415M  7415   7521M
                                                  7621   7622M  7623M  7624M  7625M  7626M  7626   7816   7817M  7818M
                                                  7819M  7820M  7821M  7821   7980M  7981   7982   7983   7984   7985
                                                  7986   7987   8531M  8539   8664M  8672   8732M  8760   9236M  9244
                                                  9395   9707M  9817   9818M  9819M  9820M  9821M  9822M  9822   9856M
                                                  9859M  9860   9881M  9897   9906   9934M  9937M  9938   9959M  9975
                                                  9984  10352M 10462  10463M 10464M 10465M 10466M 10467M 10467  10646M
                                                 10649M 10650  10671M 10687  10696  10724M 10727M 10728  10749M 10765
                                                 10774  10817M 10820M 10821  10842M 10858  10867  10895M 10898M 10899
                                                 10920M 10936  10945  10985M 10997  11285M 11313  11514M 11517M 11518
                                                 11539M 11555  11564  12094M 12095  12096M 12097  12098M 12099  12338M
                                                 12341M 12342  12449M 12477  12560M 12631  12857M 12916  13404M 13491M
                                                 13855M 13858M 13870  13909M 14036M 14769M 14797  15085M 15166  15625M
                                                 15641M 15771M 15823M 15824M 15891M 15909M 15921  15951M 15951  16267M
                                                 16279  16308M 16310  16450M 16451M 16452  16456M 16457M 16458  16513M
                                                 16514M 16546M 16587M 16605M 16617  16647M 16647  16779M 16781M 16798
                                                 16851M 16921M 16923M 16935  17115M 17116M 17117  17586M 17587M 17588
                                                 17592M 17593M 17594  17596M 17606  17830M 17830  17940M 18092M 18095M
                                                 18096  18117M 18133  18142  18335M 18338M 18339  18577M 18624  18677M
                                                 18742M 18742  20650M 20651M 20651  20670  20819M 20913  21264M 21265M
                                                 21266  21365M 21430M 21583M 21709M 22204M 22255M 22257  22321M 22323
                                                 22632M 22742  22743M 22744M 22745M 22746M 22747M 22747  22836M 22844
                                                 23051M 23062U 24677M 24677  24679  24680  24756M 24779M 24790  24801M
                                                 24812  24818M 24857  24858  24867M 24956M 25005M 25007M 25009  25032M
                                                 25145M 25147  25148  25181M 25183  25184  25192M 25194  25217M 25220
                                                 25227M 25228  25268M 25300M 25301  25340M 25342  25352M 25683M 25690M
                                                 25690  25806M 25806  25952M 26198M 26316  26489M 26533M 26533  26542B
                                                 28037M 28428M 28440  28460  28467M 28472  28697M 28801M 28810M 28810
                                                 28858  28906  28954  29694M 29705M 29717  29737  29888M 29889M 29889
                                                 30304M 30320  30342M 30357  30388M 30388  30453M 30516  31507M 31510M
                                                 31511  31550M 31551M 31719M 31722M 31723  32430M 32460M 32461  32527M
                                                 32536M 32536  32599  32645  32683  32896M 32938M 32959M 32970M 33201M
                                                 33231M 33232  33444M 33574  33629M 33654  33923M 33951  34103M 34150
                                                 34780M 34826  35101M 35103M 35104  35132M 35134M 35135  35254M 35364
                                                 35365M 35366M 35367M 35368M 35369M 35369  35392M 35400  35532M 35534M
                                                 35535  35563M 35565M 35566  35824M 35826M 35827  35855M 35857M 35858
                                                 36073M 36081  36248M 36256  36318M 36367  36470M 36478  36978M 36980M
                                                 36981  37085  37197M 37205  37396M 37397M 37398  37427M 37429M 37430
                                                 37535  37699M 37743M 37746M 37747  37852M 37896M 37899M 37900  38079
                                                 38159M 38236  38326  38327M 38328M 38329M 38330M 38331M 38331  38358M
                                                 38359  38360  38407M 38437  38975M 39003  39050M 39100  39196M 39198
                                                 39386M 39426  39462M 39484M 39484  39695M 39723  39786M 39787M 39787
                                                 39837  39857  39871M 39902M 39903  40063M 40101  40118  40181M 40304
                                                 40429M 40467  40559  40576  40667M 40675  40684  40706M 40707M 40730M
                                                 40732M 40738  40774  40776  40909M 40910M 40923M 40924  41118M 41119M
                                                 41132M 41133  41339M 41340M 41351  41357  41358  41430M 41470M 41471
                                                 41710M 41713M 41714  41946M 41947M 41948  42105M 42284M 42284  42392M
                                                 42393M 42394  42463M 42464M 42466  42706M 42760  43201M 43229  43337
                                                 43338M 43339M 43340M 43341M 43342M 43342  43442M 43470  43558  43559M
                                                 43560M 43561M 43562M 43563M 43563  43639M 43656M 43686M 43716M 43761M
                                                 43789  44074M 44102  44285M 44285  44437M 44465  44590M 44617  44710M
                                                 44734  45220M 45247  45367  45368M 45369M 45370M 45371M 45372M 45372
                                                 45487M 45518  45703M
 R2            2 00000002 FFFFFFFF A   #     734  7134M  8830M
 R3            3 00000003 FFFFFFFF A   #     747  7138M  7138   7166M  8832M
 R4            4 00000004 FFFFFFFF A   #     760  7174M  7177   7185   8833M  8844   8852
 S                        00000001 A   U   13470 13849  13855  13879  13881  13938  13946  13985  13985  14017  14036
                                                 14040
1FILEMAN  (FILEMA) (09:39) (22MAR04) Ordinary Symbol and Literal Cross Reference                                            Page  302
 S                        00000001 A   U   15754 16085  16106  16106  16113  16118  16131  16140  16141  16146  16147
                                                 16818  16818  16843  16989  16990  16997  16997  17002  17002  17007
                                                 17007  17016  17023  17023  17028  17028  17064  17069  17070  17075
                                                 17076  17083  17640  17810  17810  17824  17832  17940
 S                        00000001 A   U   20989 21415  21415  21429  21488  21488  21582  21708  22243  22243  22254
                                                 22264  25130  25219  25278  25293
 S                        00000001 A   U   40387 40429  40435  40614  40614  40619  40619  40821  40823  40824  40826
                                                 40926  41135  41397  41397  41430  41470  41478  41478  41531  42091
                                                 42100  42101  42102  42109  42111
 S                        00000001 A   U   42824 42865  42865  42914  42929
 SBUFGET       1 00000000 00000010     T   17676 17676  33547  45722
 SBUFREE       1 00000000 0000000F     T   15100 15100  18601  26266  33538  38192  45719
 SETFNABC      2 00004980 00000001     H   34732 34584B 34728B
 SETFNAME      4 000047C2 00000001     I   34150 12588  20845  30474  34161U
 SETFNCHE      2 000049B0 00000001     H   34746 34718B 34722B 34724B 34726B 34730B 34736B 34740B
 SETFNCHR      2 00004948 00000001     H   34698 34599B
 SETFNCH1      2 00004958 00000001     H   34720 34711B
 SETFNERR      2 000049BA 00000001     H   34754 34210B 34229B 34328B 34347B 34363B 34483B 34679B 34681B 34691B 34693B
                                                 34734B 34738B 34742B 34744B
 SETFNGRP      2 00004904 00000001     H   34674 34388B 34428B
 SETFNUSE      2 00004926 00000001     H   34686 34400B 34416B
 SETTEMPN      4 0000532E 00000001     I   39003 12589  39014U
 SIGNAL        1 00000000 00000016     T   26249 26249  38183
 SPR          13 0000000D FFFFFFFF A   #    1172  7085   7100   7101   7116M  7355U  8498U  8603U  8760   8775   8776
                                                  8791M  8991U  9063U  9090U  9196U  9280U  9395   9410   9411   9426M
                                                  9578U  9762U 10032U 10104U 10204U 10407U 10503U 11313  11328  11329
                                                 11331M 11402U 11617U 12113U 12477  12492  12493  12495M 12631  12646
                                                 12647  12649M 12916  12931  12932  12947M 13036U 13173U 13260U 13567U
                                                 13740U 14201U 14383U 14497U 14616U 14660U 14797  14812  14813  14815M
                                                 15166  15181  15182  15197M 15286U 15378U 15481U 15546U 16214U 16329U
                                                 16706U 17400U 17465U 17703U 17978U 18187U 18430U 18474U 18624  18639
                                                 18640  18642M 19436U 19509U 19769U 19849U 20051U 20913  20928  20929
                                                 20944M 21063U 21164U 21814U 21873U 21959U 22371U 22525U 22687U 22892U
                                                 22995U 23122U 23209U 23262U 23392U 23470U 23546U 23628U 23705U 23783U
                                                 23859U 23937U 24013U 24091U 24339U 24459U 24526U 24583U 24644U 25372U
                                                 25448U 25734U 25865U 26043U 26087U 26316  26341  26342  26357M 26556U
                                                 26743U 26934U 27135U 27240U 27316U 27529U 27601U 27702U 27801U 27866U
                                                 27972U 28052U 28140U 28369U 28486U 28712U 29038U 29194U 29322U 29554U
                                                 29632U 30516  30531  30532  30534M 30608U 30697U 30750U 30914U 31051U
                                                 31205U 31770U 31947U 32024U 32091U 32190U 32322U 32369U 32405U 32486U
                                                 32725U 32877U 32913U 33006U 33059U 33118U 33176U 33249U 33308U 33574
                                                 33589  33590  33592M 33654  33669  33670  33672M 33796U 33951  33966
                                                 33967  33969M 34041U 34150  34165  34166  34181M 34245U 34525U 34826
                                                 34841  34842  34857M 35014U 35309U 35448U 35627U 35919U 36020U 36367
                                                 36382  36383  36403M 36598U 36743U 36810U 36878U 36939U 37014U 37085
                                                 37100  37101  37116M 37238U 37312U 37361U 37463U 37535  37550  37551
                                                 37553M 37607U 37779U 37980U 38079  38094  38095  38097M 38110U 38236
                                                 38251  38252  38254M 38271U 38437  38452  38453  38468M 38695U 39003
                                                 39018  39019  39021M 39100  39115  39116  39136M 39426  39441  39442
                                                 39457M 39516U 39723  39738  39739  39741M 39946U 40304  40319  40320
                                                 40340M 41753U 42062U 42256U 42549U 42617U 42760  42775  42776  42791M
                                                 42880U 42952U 43020U 43229  43244  43245  43260M 43358U 43470  43485
                                                 43486  43501M 43579U 43789  43804  43805  43820M 43845U 43904U 43963U
                                                 44015U 44102  44117  44118  44133M 44158U 44203U 44378U 44465  44480
                                                 44481  44483M 44536U 44617  44632  44633  44635M 44734  44749  44750
                                                 44765M 45098U 45144U 45247  45262  45263  45278M 45313U 45414U 45518
                                                 45533  45534  45536M 45637U
 STATFS        1 00000000 0000002D     T   33545 33545
 STATP         1 000045B0 00000001     R   33483 33501
1FILEMAN  (FILEMA) (09:39) (22MAR04) Ordinary Symbol and Literal Cross Reference                                            Page  303
 STATPRIV      1 000045A8 00000001     U   33501 30304
 SYSRNEW       1 00000000 00000032     T   38196 38196
 TCREATE       1 00000000 00000003     T   12581 12581  38202
 TEXIT         1 00000000 00000007     T   12586 12586  38194
 TIME          1 00000000 00000039     T   40202 40202
 TTBITRCT      8 00000060 FFFFFFE6     D    2513  2523
 TTCACHCT      8 000000B0 FFFFFFE6     D    2540  2552
 TTCATRCT      8 00000058 FFFFFFE6     D    2512  2522
 TTFILAPM      4 000000F4 FFFFFFE6     F    2561  9958   9984M
 TTFILATM      4 000000E4 FFFFFFE6     F    2557 10919  10945M
 TTFILATP      4 000000F0 FFFFFFE6     F    2560  9927   9938M  9959  35125  35135M
 TTFILATT      4 000000E0 FFFFFFE6     F    2556 10888  10899M 10920  35848  35858M
 TTFILAUM      4 000000EC FFFFFFE6     F    2559 10748  10774M
 TTFILAUS      4 000000E8 FFFFFFE6     F    2558 10717  10728M 10749  35556  35566M
 TTFILECT    144 00000050 FFFFFFE6     U    2547  2550   2551   2552
 TTFILTBK      4 000000F8 FFFFFFE6     F    2562 11507  11518M 11539  18085  18096M 18117  21257  21266M 37389  37398M
 TTFILTBM      4 000000FC FFFFFFE6     F    2563 11538  11564M 18116  18142M
 TTIXRRCT      8 00000068 FFFFFFE6     D    2514  2524
 TTMASRCT      8 00000050 FFFFFFE6     D    2511  2521
 TTOTHRCT      8 00000078 FFFFFFE6     D    2516  2526
 TTREADCT      8 00000050 FFFFFFE6     D    2510  2521   2522   2523   2524   2525   2526   2547   2547   2548   2548
                                                  2550
 TTUSERCT      8 00000070 FFFFFFE6     D    2515  2525
 TTWRITCT      8 00000080 FFFFFFE6     D    2530  2551
 VMGET         1 00000000 00000002     T   12572 12572  26247  38181  40193  45733
 WAR          12 0000000C FFFFFFFF A   #    1160  7100   7101M  7102   7112U  7116   8732   8733   8775   8776M  8777
                                                  8787U  8791   9410   9411M  9412   9422U  9426  11285  11286  11328
                                                 11329M 11330  11331  12449  12450  12492  12493M 12494  12495  12560
                                                 12561  12646  12647M 12648  12649  12857  12858  12931  12932M 12933
                                                 12943U 12947  14769  14770  14812  14813M 14814  14815  15085  15086
                                                 15181  15182M 15183  15193U 15197  18577  18578  18639  18640M 18641
                                                 18642  20819  20820  20928  20929M 20930  20940U 20944  26198  26199
                                                 26341  26342M 26343  26353U 26357  30453  30454  30531  30532M 30533
                                                 30534  33444  33445  33589  33590M 33591  33592  33629  33630  33669
                                                 33670M 33671  33672  33923  33924  33966  33967M 33968  33969  34103
                                                 34104  34165  34166M 34167  34177U 34181  34780  34781  34841  34842M
                                                 34843  34853U 34857  36318  36319  36382  36383M 36384  36394U 36403
                                                 37100  37101M 37102  37112U 37116  37550  37551M 37552  37553  38094
                                                 38095M 38096  38097  38159  38160  38251  38252M 38253  38254  38407
                                                 38408  38452  38453M 38454  38464U 38468  38975  38976  39018  39019M
                                                 39020  39021  39050  39051  39115  39116M 39117  39127U 39136  39386
                                                 39387  39441  39442M 39443  39453U 39457  39695  39696  39738  39739M
                                                 39740  39741  40181  40182  40319  40320M 40321  40331U 40340  42706
                                                 42707  42775  42776M 42777  42787U 42791  43201  43202  43244  43245M
                                                 43246  43256U 43260  43442  43443  43485  43486M 43487  43497U 43501
                                                 43761  43762  43804  43805M 43806  43816U 43820  44074  44075  44117
                                                 44118M 44119  44129U 44133  44437  44438  44480  44481M 44482  44483
                                                 44590  44591  44632  44633M 44634  44635  44710  44711  44749  44750M
                                                 44751  44761U 44765  45220  45221  45262  45263M 45264  45274U 45278
                                                 45487  45488  45533  45534M 45535  45536  45703  45704
 XITDEL        1 00000000 00000006     T   12585 12585
 XITDO         1 00000000 00000005     T   12584 12584
 XITNEW        1 00000000 00000004     T   12583 12583
 XITTIOCN      1 00000009 00000001 A   U    5979  9125
 =A((RTNTABSX-RTNTABS)/(L'RTNTABS*2))
               4 00003D2C 00000001     A   30466 26474
 =A(-10)       4 00005128 00000001     A   38199 37789
 =A(-5)        4 00005138 00000001     A   38203 37932
 =A(-8)        4 00002410 00000001     A   20847 19883
1FILEMAN  (FILEMA) (09:39) (22MAR04) Ordinary Symbol and Literal Cross Reference                                            Page  304
 =A(-8)        4 00003D40 00000001     A   30471 26819  28746
 =A(AHFBCNT)
               4 000064F8 00000001     A   45736 45438
 =A(AHFBLEN)
               4 000064E8 00000001     A   45732 45296
 =A(CHKACC)
               4 0000240C 00000001     A   20846 19868
 =A(CHKACC)
               4 00003D3C 00000001     A   30470 26762  26804  26875  27259  27548  27721  28071  28731  29573
 =A(CHKACC)
               4 000050D8 00000001     A   38179 34544
 =A(CHKMEM)
               4 00001068 00000001     A   13444 13295
 =A(CHKMEM)
               4 00001378 00000001     A   14476 13775  14418
 =A(CHKMEM)
               4 00001C20 00000001     A   17677 15510  16243  17429
 =A(CHKMEM)
               4 00002404 00000001     A   20844 19465  19810  20086
 =A(CHKMEM)
               4 00003D38 00000001     A   30469 26597  26700  26969  27055  27351  27457  27642  27830  28013  28175
                                                 28268  28333  28521  28673  29072  29158  29357  29446  29514  29667
                                                 29784  29980
 =A(CHKMEM)
               4 000050CC 00000001     A   38176 34274
 =A(CHKMEM)
               4 000056C8 00000001     A   40211 39981  40030
 =A(FMANFDT)
               4 0000513C 00000001     A   38204 37934
 =A(FMANTDT)
               4 00005130 00000001     A   38201 37791
 =A(FMASFINI)
               4 00000DC8 00000001     A   12571  7258
 =A(FMDELBLK)
               4 00003254 00000001     A   26237 21099
 =A(FMDELIXR)
               4 00005100 00000001     A   38189 36634  36703  36846  37347
 =A(FMDELIXR)
               4 00006478 00000001     A   45724 42653
 =A(FMIXRADD)
               4 00000E3C 00000001     A   12600 11428
 =A(FMIXRGET)
               4 000014F8 00000001     A   15094 14542
 =A(FMIXRGET)
               4 00001E8C 00000001     A   18590 17791
 =A(FMIXRGET)
               4 000032C0 00000001     A   26264 25895  25950
 =A(FMIXRGET)
               4 00005108 00000001     A   38191 36789  37273
 =A(FMIXRGET)
               4 00006468 00000001     A   45720 42097  42221  42920  44268  45128
 =A(FMIXRPUT)
               4 00001E88 00000001     A   18589 17738
 =A(FMIXRPUT)
               4 000032C4 00000001     A   26265 25994
 =A(FMIXRPUT)
               4 0000646C 00000001     A   45721 42173  43999  44278  44338
 =A(FMRANGE)
               4 00000F1C 00000001     A   12867 12716
1FILEMAN  (FILEMA) (09:39) (22MAR04) Ordinary Symbol and Literal Cross Reference                                            Page  305
 =A(FMRANGE)
               4 00001514 00000001     A   15101 14930
 =A(FMSETSOU)
               4 00005688 00000001     A   40195 38391
 =A(FPALL)
               4 0000328C 00000001     A   26251 23050
 =A(IXRMXNT#)
               4 000023F8 00000001     A   20841 18838  18935  19147  20595
 =A(IXRMXNT#)
               4 000056CC 00000001     A   40212 40118
 =A(IXRNT#)
               4 00001370 00000001     A   14474 13483  13944  14068
 =A(IXRNT#)
               4 00001C2C 00000001     A   17680 15785  16737  16786
 =A(IXRNT#)
               4 00003260 00000001     A   26240 21348  21402  21459  24167  24213  24790  24812  24838  24853  24973
                                                 24979  24980
 =A(IXRNT#)
               4 00004610 00000001     A   33527 31552
 =A(IXRNT#)
               4 0000645C 00000001     A   45717 40681  41176  41251  41330
 =A(L'IXRNT)
               4 00006460 00000001     A   45718 40737
 =A(L'NTRYGR)
               4 00003D68 00000001     A   30481 29274
 =A(L'NTRYPR)
               4 00002414 00000001     A   20848 20029
 =A(L'NTRYPR)
               4 00003D50 00000001     A   30475 27294
 =A(L'RQNAME)
               4 000023FC 00000001     A   20842 19397
 =A(L'RQNAME)
               4 000050C8 00000001     A   38175 34226
 =A(L'RQNPFX)
               4 000050D4 00000001     A   38178 34325
 =A(M1FILEIO)
               4 00000DEC 00000001     A   12580  8617
 =A(M1IWRIT)
               4 00003250 00000001     A   26236 21040
 =A(RELRQFB)
               4 00000DE4 00000001     A   12578  8523   9016
 =A(RTNTABC)
               4 000023F0 00000001     A   20839 18680  18693
 =A(RTNTABCM)
               4 000023F4 00000001     A   20840 18706
 =A(RTNTABS)
               4 00003D30 00000001     A   30467 26503
 =A(RTNTABSM)
               4 00003D34 00000001     A   30468 26516
 =A(SETFNAME)
               4 00000E0C 00000001     A   12588  9626  10056
 =A(SETFNAME)
               4 00002408 00000001     A   20845 19533
 =A(SETFNAME)
               4 00003D4C 00000001     A   30474 27183  27890  28393  29218
 =A(SETTEMPN)
               4 00000E10 00000001     A   12589  9676
 =A(X'80000000'+FMANTDEL)
               4 00005144 00000001     A   38206 38145
1FILEMAN  (FILEMA) (09:39) (22MAR04) Ordinary Symbol and Literal Cross Reference                                            Page  306
 =A(1)         4 00000E18 00000001     A   12591  9859   9937  10649  10727  10820  10898  11517  12341
 =A(1)         4 0000106C 00000001     A   13445 13317
 =A(1)         4 0000137C 00000001     A   14477 13858
 =A(1)         4 00001C28 00000001     A   17679 15697  16511
 =A(1)         4 00001E90 00000001     A   18591 18007  18095  18338
 =A(1)         4 00002400 00000001     A   20843 19417
 =A(1)         4 00003274 00000001     A   26245 22328  24279  24856  24876  25021  25036  25281
 =A(1)         4 0000460C 00000001     A   33526 31510  31722
 =A(1)         4 00005104 00000001     A   38190 36730  37746  37899
 =A(1)         4 00006458 00000001     A   45716 40674  40967  41097  41323  41687  41713  42324  44354
 =A(100)       4 00003D28 00000001     A   30465 26442  30277
 =A(100)       4 000045E0 00000001     A   33515 30582
 =A(12)        4 00003D64 00000001     A   30480 28954
 =A(12)        4 00004648 00000001     A   33541 32683
 =A(14)        4 00003D58 00000001     A   30477 28118
 =A(16700000)
               4 00002418 00000001     A   20849 20670
 =A(2)         4 00003D94 00000001     A   30492 30357
 =A(2)         4 000056B8 00000001     A   40207 39590
 =A(255)       4 00003D7C 00000001     A   30486 29925
 =A(3)         4 000056B4 00000001     A   40206 39558
 =A(32)        4 00003D78 00000001     A   30485 29737
 =A(36*26)
               4 00003D74 00000001     A   30484 29610  29692
 =A(4)         4 00003D5C 00000001     A   30478 28440  28858  29717
 =A(4)         4 00004640 00000001     A   33539 32599
 =A(4)         4 000056C0 00000001     A   40209 39837
 =A(56)        4 00003D44 00000001     A   30472 26910
 =A(8)         4 00003D60 00000001     A   30479 28906
 =A(8)         4 00004644 00000001     A   33540 32645
 =A(8192)      4 000056C4 00000001     A   40210 39857
 =A(9)         4 00003D6C 00000001     A   30482 29298  29399
 =AL2(1)       2 00000E5A 00000001     R   12609 12259
 =AL3(IXRNT#-1)
               3 00001C3A 00000001     R   17684 16866
 =AL4(IXRNT#)
               4 00001C30 00000001     R   17681 16688  16974
 =AL4(1)       4 00001C34 00000001     R   17682 17223
 =AL4(16)      4 00005120 00000001     R   38197 37639
 =AL4(2)       4 00003258 00000001     R   26238 21114
 =C'.DFF'      4 00003D70 00000001     C   30483 29540
 =C'aTFB'      4 000050F4 00000001     C   38186 36070
 =C'fDEL'      4 000050FC 00000001     C   38188 36467  37194
 =C'rQFB'      4 000050F8 00000001     C   38187 36245
 =C'AHFB'      4 000064F0 00000001     C   45734 45399
 =C'ASFB'      4 00005684 00000001     C   40194 38357
 =C'FILD'      4 00003280 00000001     C   26248 22778
 =C'GG.ORV'
               6 00000E4E 00000001     C   12605  7874  11753
 =C'NOT_CLP_DET_HALT'
              16 00000DB0 00000001     C   12569  8212
 =C'ORV.'      4 00003D48 00000001     C   30473 27121
 =C'ORV.'      4 000064E4 00000001     C   45731 44887
 =C'RQFB'      4 00000DD8 00000001     C   12575  7644
 =C'RQWB'      4 00000DD0 00000001     C   12573  7435
 =C'TEMP'      4 00000E08 00000001     C   12587  9598
 =C'TMPD'      4 000050E4 00000001     C   38182 35387
 =CL(L'@FMFINAM)'*** File being detached ***'
              44 0000648C 00000001     C   45729 44841
1FILEMAN  (FILEMA) (09:39) (22MAR04) Ordinary Symbol and Literal Cross Reference                                            Page  307
 =CL(L'@FMFINAM)'*** STATUS in progress ***'
              44 000064B8 00000001     C   45730 44870
 =CL4' '       4 00006484 00000001     C   45727 43936  44322
 =CL4'ATFB'
               4 00000E14 00000001     C   12590  9844  10485
 =CL4'ORV.'
               4 00000DDC 00000001     C   12576  7828
 =CL4'ORV.'
               4 000050D0 00000001     C   38177 34309  34384
 =CL8'TempFile'
               8 00000DC0 00000001     C   12570  9843
 =F'-12'       4 00000DD4 00000001     F   12574  7484   8330  11234
 =F'-12'       4 00000F24 00000001     F   12869 12803
 =F'-12'       4 0000151C 00000001     F   15103 15031
 =F'-12'       4 00002430 00000001     F   20855 20733
 =F'-12'       4 00003D90 00000001     F   30491 30162
 =F'-12'       4 000056AC 00000001     F   40204 39330
 =F'-4'        4 00000DF4 00000001     F   12582  8910  12395
 =F'-4'        4 000014FC 00000001     F   15095 14549
 =F'-4'        4 00001E9C 00000001     F   18594 18232
 =F'-4'        4 00002428 00000001     F   20853 20717
 =F'-8'        4 0000242C 00000001     F   20854 20725
 =F'-8'        4 00003D8C 00000001     F   30490 30157
 =F'-8'        4 000050DC 00000001     F   38180 34755
 =F'-8'        4 000056A8 00000001     F   40203 39323
 =F'12'        4 00000E34 00000001     F   12598 11217
 =F'12'        4 00000F20 00000001     F   12868 12762
 =F'12'        4 00001508 00000001     F   15098 14564
 =F'12'        4 00001EA8 00000001     F   18597 18289
 =F'12'        4 00002420 00000001     F   20851 20699
 =F'12'        4 000032B4 00000001     F   26261 25668
 =F'12'        4 00003D88 00000001     F   30489 30152
 =F'16'        4 00000E38 00000001     F   12599 11229  12405
 =F'16'        4 00001EAC 00000001     F   18598 18294
 =F'16'        4 000032B8 00000001     F   26262 25673
 =F'20'        4 00001EB0 00000001     F   18599 18299
 =F'20'        4 000032BC 00000001     F   26263 25678
 =F'24'        4 00001518 00000001     F   15102 14976
 =F'28'        4 00002424 00000001     F   20852 20704
 =F'28'        4 00004604 00000001     F   33524 31344
 =F'32'        4 00000E48 00000001     F   12603 12410
 =F'4'         4 00000E2C 00000001     F   12596 11192  11207  12400
 =F'4'         4 00001500 00000001     F   15096 14554
 =F'4'         4 00001EA0 00000001     F   18595 18237
 =F'4'         4 00002434 00000001     F   20856 20741
 =F'4'         4 000032B0 00000001     F   26260 25663
 =F'4'         4 00003D84 00000001     F   30488 30147
 =F'4'         4 00004600 00000001     F   33523 31310  32558  33346
 =F'4'         4 000050BC 00000001     F   38172 33892
 =F'8'         4 00000E30 00000001     F   12597 11212
 =F'8'         4 00000F18 00000001     F   12866 12694
 =F'8'         4 00001504 00000001     F   15097 14559  14908
 =F'8'         4 00001EA4 00000001     F   18596 18272
 =F'8'         4 0000241C 00000001     F   20850 20694
 =F'8'         4 000050C0 00000001     F   38173 33899
 =H'1'         2 00001EBC 00000001     H   18602 17883
 =V(ACAINFO)
               4 00006488 00000001     V   45728 44558
 =V(ACREATE)
1FILEMAN  (FILEMA) (09:39) (22MAR04) Ordinary Symbol and Literal Cross Reference                                            Page  308
               4 00005148 00000001     V   38207 38148
 =V(AWAIT)
               4 00005140 00000001     V   38205 38014
 =V(DATE)      4 000056A0 00000001     V   40201 39032
 =V(DISPSHLD)
               4 00005118 00000001     V   38195 37556
 =V(FBITACT)
               4 0000464C 00000001     V   33542 32747
 =V(FBITDEA)
               4 00004654 00000001     V   33544 32782
 =V(FBITDEA)
               4 00006500 00000001     V   45738 45675
 =V(FBITGCON)
               4 0000329C 00000001     V   26255 24361
 =V(FBITGCON)
               4 0000466C 00000001     V   33550 33330
 =V(FBITGET)
               4 00001E98 00000001     V   18593 18209
 =V(FBITGET)
               4 00006480 00000001     V   45726 43867
 =V(FBITRCON)
               4 000032A4 00000001     V   26257 24548  25470
 =V(FBITRCON)
               4 00005110 00000001     V   38193 36963
 =V(FBITREL)
               4 000032AC 00000001     V   26259 25531  25578
 =V(FBITREL)
               4 00006474 00000001     V   45723 42571  43043  43150
 =V(FCATAADD)
               4 00004614 00000001     V   33528 31845
 =V(FCATADEL)
               4 00004618 00000001     V   33529 31883
 =V(FCATAINF)
               4 000045F4 00000001     V   33520 31141
 =V(FCATALIS)
               4 00004620 00000001     V   33531 31984
 =V(FCATASAC)
               4 00003290 00000001     V   26252 23187
 =V(FCATDLET)
               4 00003278 00000001     V   26246 22398
 =V(FCATDLET)
               4 00004630 00000001     V   33535 32349
 =V(FCATEPUB)
               4 000045E8 00000001     V   33517 30729
 =V(FCATFINF)
               4 00003298 00000001     V   26254 23497  23655  23810  23964  24118
 =V(FCATFLIS)
               4 000045EC 00000001     V   33518 30874
 =V(FCATGPRM)
               4 00003294 00000001     V   26253 23345
 =V(FCATGPRM)
               4 000045F0 00000001     V   33519 31002
 =V(FCATGSPA)
               4 00001E94 00000001     V   18592 18010
 =V(FCATGSPA)
               4 000032A0 00000001     V   26256 24496
 =V(FCATMSPA)
               4 0000461C 00000001     V   33530 31926
 =V(FCATNIXE)
1FILEMAN  (FILEMA) (09:39) (22MAR04) Ordinary Symbol and Literal Cross Reference                                            Page  309
               4 000045FC 00000001     V   33522 31294
 =V(FCATNIXR)
               4 00004608 00000001     V   33525 31443  31655
 =V(FCATNPRM)
               4 00000E44 00000001     V   12602 11847
 =V(FCATOPRM)
               4 00000E40 00000001     V   12601 11827
 =V(FCATOPRM)
               4 000050EC 00000001     V   38184 35952
 =V(FCATPSPA)
               4 0000325C 00000001     V   26239 21201  22562  24620
 =V(FCATRNAM)
               4 00003264 00000001     V   26241 21842
 =V(FCATS111)
               4 00004668 00000001     V   33549 33155
 =V(FCATUINF)
               4 00003288 00000001     V   26250 23030  23244  23452  23610  23765  23919  24073  25415
 =V(FCATUINF)
               4 00004664 00000001     V   33548 33097
 =V(FCATUSPA)
               4 00004624 00000001     V   33532 32056
 =V(FCATXTND)
               4 000045E4 00000001     V   33516 30676
 =V(FDOIODO)
               4 00001064 00000001     V   13443 13224
 =V(FDOIODO)
               4 00001374 00000001     V   14475 13613  14247
 =V(FDOIODO)
               4 00001C24 00000001     V   17678 15676  16406  17542
 =V(FDOIODO)
               4 00004638 00000001     V   33537 32457  32992  33228
 =V(FDOIODO)
               4 0000647C 00000001     V   45725 43401  43734
 =V(FMHYINIT)
               4 000032A8 00000001     V   26258 24669
 =V(GRCAN)
               4 00005690 00000001     V   40197 38717  38764
 =V(GRCRE)
               4 00000E24 00000001     V   12594 10524  10551
 =V(GRCRE)
               4 000064F4 00000001     V   45735 45435
 =V(GRDEL)
               4 000050F0 00000001     V   38185 36036  36057
 =V(GRGET)
               4 00000E20 00000001     V   12593 10232  12203
 =V(GRGET)
               4 00001060 00000001     V   13442 13078
 =V(GRGET)
               4 00001C18 00000001     V   17675 15334
 =V(GRGET)
               4 0000326C 00000001     V   26243 21987  25825
 =V(GRGET)
               4 0000462C 00000001     V   33534 32218
 =V(GRGET)
               4 000050B8 00000001     V   38171 33844  35655
 =V(GRGET)
               4 00005694 00000001     V   40198 38834  38908
 =V(GRREL)
               4 00000E28 00000001     V   12595 10635
1FILEMAN  (FILEMA) (09:39) (22MAR04) Ordinary Symbol and Literal Cross Reference                                            Page  310
 =V(GRREL)
               4 0000150C 00000001     V   15099 14632
 =V(GRREL)
               4 00001EB4 00000001     V   18600 18446
 =V(GRREL)
               4 00003270 00000001     V   26244 22185  26059
 =V(GRREL)
               4 00004634 00000001     V   33536 32385
 =V(GRREL)
               4 000050C4 00000001     V   38174 34057  35030  35071  35701  35814
 =V(GRREL)
               4 00005698 00000001     V   40199 38860  38934
 =V(HASHIT)
               4 00000E1C 00000001     V   12592 10172
 =V(HASHIT)
               4 00003268 00000001     V   26242 21941
 =V(HASHIT)
               4 00004628 00000001     V   33533 32159
 =V(M1CANWAI)
               4 0000568C 00000001     V   40196 38639
 =V(M1GOSTAT)
               4 0000465C 00000001     V   33546 32859
 =V(M1GOWAIT)
               4 00004650 00000001     V   33543 32756  33383
 =V(M1GOWAIT)
               4 00005124 00000001     V   38198 37648
 =V(M1GOWAIT)
               4 000064FC 00000001     V   45737 45624
 =V(M1TIME)
               4 0000569C 00000001     V   40200 39025
 =V(PAGTPROT)
               4 000056B0 00000001     V   40205 39531
 =V(SBUFGET)
               4 00001C1C 00000001     V   17676 15394  16722
 =V(SBUFGET)
               4 00004660 00000001     V   33547 32893
 =V(SBUFGET)
               4 00006470 00000001     V   45722 42272  43920  44174
 =V(SBUFREE)
               4 00001510 00000001     V   15100 14700
 =V(SBUFREE)
               4 00001EB8 00000001     V   18601 18514
 =V(SBUFREE)
               4 000032C8 00000001     V   26266 26127
 =V(SBUFREE)
               4 0000463C 00000001     V   33538 32512  33032  33275
 =V(SBUFREE)
               4 0000510C 00000001     V   38192 36905  37387
 =V(SBUFREE)
               4 00006464 00000001     V   45719 41774  41850  42978  44042  44405  45171
 =V(SIGNAL)
               4 00003284 00000001     V   26249 22930
 =V(SIGNAL)
               4 000050E8 00000001     V   38183 35486
 =V(STATFS)
               4 00004658 00000001     V   33545 32855
 =V(SYSRNEW)
               4 0000511C 00000001     V   38196 37618
 =V(TCREATE)
1FILEMAN  (FILEMA) (09:39) (22MAR04) Ordinary Symbol and Literal Cross Reference                                            Page  311
               4 00000DF0 00000001     V   12581  8633
 =V(TCREATE)
               4 00005134 00000001     V   38202 37807  37950
 =V(TEXIT)
               4 00000E04 00000001     V   12586  9291
 =V(TEXIT)
               4 00005114 00000001     V   38194 37025  37474
 =V(TIME)      4 000056A4 00000001     V   40202 39039
 =V(VMGET)
               4 00000DCC 00000001     V   12572  7384   7595   9791  10436
 =V(VMGET)
               4 0000327C 00000001     V   26247 22716
 =V(VMGET)
               4 000050E0 00000001     V   38181 35338
 =V(VMGET)
               4 00005680 00000001     V   40193 38300
 =V(VMGET)
               4 000064EC 00000001     V   45733 45341
 =V(XITDEL)
               4 00000E00 00000001     V   12585  9217
 =V(XITDO)
               4 00000DFC 00000001     V   12584  9181
 =V(XITNEW)
               4 00000DF8 00000001     V   12583  9074
 =X'00FFFFFF'
               4 00003D54 00000001     X   30476 27760  27944
 =X'00FFFFFF'
               4 000045F8 00000001     X   33521 31170  31811
 =X'00FFFFFF'
               4 000056BC 00000001     X   40208 39771
 =X'070C0000'
               4 00000DE8 00000001     X   12579  8616
 =X'070C0000'
               4 0000512C 00000001     X   38200 37790  37933  38119
 =X'80'        1 000056DA 00000001     X   40217 39675
 =X'80000000'
               4 00000DE0 00000001     X   12577  7980   8380   8403   8426   8449   8876   8877   8878   8879
 =X'80000006'
               4 00002438 00000001     X   20857 20749
 =X'80000006'
               4 00003D80 00000001     X   30487 30135
 =X'80000006'
               4 000056D0 00000001     X   40213 40165
 =Y(IXRNT#)
               2 0000243C 00000001     Y   20858 18793  18890  19050  20574
 =Y(IXRNT#)
               2 000032CE 00000001     Y   26268 21585  21711  25221  25294
 =Y(IXRNT#)
               2 000056D8 00000001     Y   40216 40096
 =Y(IXRNT#)
               2 00006506 00000001     Y   45740 40917  41126  41222  41296
 =Y(L'AHFBL)
               2 00000E58 00000001     Y   12608 10175
 =Y(L'AHFBL)
               2 000032D0 00000001     Y   26269 22090
 =Y(L'AHFBL)
               2 00004672 00000001     Y   33552 32162
 =Y(L'IXRNT)
               2 00001380 00000001     Y   14478 13484  13945  14084
1FILEMAN  (FILEMA) (09:39) (22MAR04) Ordinary Symbol and Literal Cross Reference                                            Page  312
 =Y(L'IXRNT)
               2 00001C38 00000001     Y   17683 15836  16741  16844  17116
 =Y(L'IXRNT)
               2 000032CC 00000001     Y   26267 21403  21476  21575  21701
 =Y(L'IXRNT)
               2 00006504 00000001     Y   45739 40682  41331  41432  41689  41978  42496
 =Y(L'RQNAM2)
               2 0000514E 00000001     Y   38209 34480
 =Y(L'RQNPFX)
               2 0000514C 00000001     Y   38208 34336
 =Y(1)         2 00000E56 00000001     Y   12607  9846  10488
 =Y(100-((RTNTABSX-RTNTABS)/(L'RTNTABS*2)))
               2 00003D98 00000001     Y   30493 26448  30283
 =Y(100-((RTNTABSX-RTNTABS)/(L'RTNTABS*2)))
               2 00004670 00000001     Y   33551 30588
 =Y(26+10)
               2 000056D6 00000001     Y   40215 39190
 =Y(27*256+0)
               2 00000E4C 00000001     Y   12604  7381   7592
 =Y(27*256+0)
               2 000056D4 00000001     Y   40214 38297
 =Y(4)         2 00005150 00000001     Y   38210 34678
 =Y(5)         2 00005152 00000001     Y   38211 34690
 =Y(59*256+0)
               2 00000E54 00000001     Y   12606  9788  10433
 =Y(59*256+0)
               2 000032D2 00000001     Y   26270 22713
 =Y(59*256+0)
               2 00005154 00000001     Y   38212 35335
 =Y(63*256+0)
               2 00006508 00000001     Y   45741 45332

1FILEMAN  (FILEMA) (09:39) (22MAR04) Macro and Copy Code Source Summary                                                     Page  313
- Con Source                                        Volume    Members                        HLASM R4.0  2004/03/22 09.39
0     PRIMARY INPUT                                           $RL      ADFCB    CHKACC   CHKMEM   CSECT    DROP     END
                                                              ERRCODE  EX       GRCAN    GRCRE    GRDEL    GRGET
                                                              GRREL    GRX2S    LADD     LLRU     LREM     LREMALL
                                                              LSTCHK   LTORG    POP      PRINT    PUSH     Q_PSH
                                                              Q_QUE    Q_REM    QHEAD    SAVAIL   SHEAD    SPOP
                                                              SPUSH    START    USING
   L2 WYL.GG.ORV.MACLIB                             SYSB02    $LKPARM  ABORT    ACALL    ACCTPARM ASB      ATFB
                                                              AWAIT    DECRS    DISPPARM FBHDR    FCATPARM FILCONST
                                                              FILECB   FILEPARM FPC      FSB      GRPARM   HASHPARM
                                                              HEADER   INCRS    IXR      KWREC    LELEM    LHEAD
                                                              LISTPARM LOCKPARM LSTMAC   MAT      MODULE   NTRY
                                                              ORVSNAP  PAGEPARM PEND     PMOV     PROC     PSET
                                                              PZERO    QLISTMAC REG      SBPARM   SIGNL    SIGPARM
                                                              SLISTMAC SPLEVEL  SYSCTL   VCALL    VMGET    VMPARM
                                                              XITPARM  XTRC
   L3 WYL.GG.SYS.MACLIB                             SYSB05    $BC      $BFLKUP  $BV      $CCLKUP  $CRS     $CSS     $L
                                                              $LA      $LBLAD   $LEXP    $LOR     $REL     $RGLKUP
                                                              $USLKUP  AUSING   BEGIN    CLEAR    CSECT    DATA     DECR
                                                              DEFCC    DEX      DIAG     DROP     ELSE     ELSEIF   END
                                                              EX       EXIT     FLAG     GEN      HIBAL    IDENT    IF
                                                              INCR     LABEL    LC       LCM      LOOP     LT
                                                              LTORG    L3       NEXT     POP      PRINT    PUSH
                                                              RECORD   REGS     SET      START    STF      ST3
                                                              UNTIL    USING    WHILE    WITH
   L4 WYL.GG.ORV.BC.MACLIB                          SYSB02    XCALL

1         (FILEMA) (09:39) (22MAR04) General Purpose Register Cross Reference                                               Page  314
- Register  References (M=modified, B=branch, U=USING, D=DROP, N=index)                      HLASM R4.0  2004/03/22 09.39
0    0(0)      991U   992D  1336U  7085   7133M  7177   7277M  7292M  7292   7301   7304M  7333M  7333   7375M  7380
              7393M  7393   7427   7483M  7495M  7510M  7510   7519   7522M  7551M  7551   7586M  7591   7604M  7604
              7636   8212M  8329M  8485   8532M  8541   8562M  8584M  8584   8638M  8638   8661   8665M  8674   8695M
              8760   8824M  8844   9076   9125M  9130   9237M  9246   9395   9598M  9603   9615M  9620   9636M  9636
              9681M  9696M  9696   9705   9708M  9737M  9737   9782M  9787   9800M  9800   9832  10066M 10066  10124M
             10129  10141M 10146  10158M 10163  10174  10326M 10341M 10341  10350  10353M 10382M 10382  10427M 10432
             10445M 10445  10477  10526  10553  11121M 11121  11202  11245M 11313  11438M 11438  11861M 11861  12213M
             12213  12222  12415  12477  12543M 12631  12702M 12726M 12726  12756M 12756  12770M 12786M 12828M 12828
             12916  13080  13235M 13235  13305M 13305  13625M 13625  13785M 13785  13796M 13797M 13798M 14259M 14259
             14428M 14428  14440M 14441M 14442M 14797  14916M 14940M 14940  14970M 14970  14984M 15000M 15056M 15056
             15166  15336  15520M 15520  15587M 15592  15603M 15672M 15686M 15686  15990  16253M 16253  16380M 16385
             16396M 16399M 16416M 16416  17063  17186  17439M 17439  17516M 17521  17533M 17536M 17552M 17552  17824
             17825M 17831M 18020M 18020  18219M 18219  18624  19475M 19475  19543M 19543  19794M 19799  19820M 19820
             19872M 19872  19883  20096M 20096  20709  20710M 20718M 20726M 20734M 20742M 20749M 20756M 20798M 20798
             20913  21101  21302M 21852M 21852  21893M 21898  21910M 21915  21927M 21932  21943  22027M 22027  22066M
             22408M 22408  22606M 22621M 22621  22630  22633M 22662M 22662  22707M 22712  22725M 22725  22770  22837M
             22846  22912M 22917  23040M 23040  23355M 23355  24326M 24371M 24371  24380  24422M 24423  24446M 24493
             24506M 24506  24513M 24570  25193M 25195M 25341M 25343M 25435M 25527M 25527  25528M 25559M 25559  25560M
             25569M 25569  25647  25835M 25835  25844  26316  26581M 26586  26607M 26607  26684M 26689  26710M 26710
             26766M 26766  26808M 26808  26819  26879M 26879  26979M 26979  27039M 27044  27065M 27065  27155M 27160
             27172M 27177  27193M 27193  27263M 27263  27361M 27361  27441M 27446  27467M 27467  27552M 27552  27626M
             27631  27652M 27652  27725M 27725  27840M 27840  27900M 27900  27997M 28002  28023M 28023  28075M 28075
             28185M 28185  28252M 28257  28278M 28278  28343M 28343  28403M 28403  28531M 28531  28657M 28662  28683M
             28683  28735M 28735  28746  29082M 29082  29168M 29168  29228M 29228  29367M 29367  29456M 29456  29498M
             29503  29524M 29524  29577M 29577  29677M 29677  29691M 29695M 29794M 29794  29964M 29969  29990M 29990
             30005M 30033M 30046M 30046  30071M 30104M 30117M 30117  30135M 30142  30180M 30191M 30201M 30201  30516
             30678  30731  30876  30885M 30885  31004  31013M 31013  31143  31152M 31152  31296  31445  31454M 31454
             31657  31666M 31666  31847  31885  31928  31986  31995M 31995  32058  32111M 32116  32128M 32133  32145M
             32150  32161  32294M 32355  32462M 32464M 32753M 32788M 32897M 32899M 33099  33157  33233M 33235M 33294M
             33294  33295M 33340M 33340  33362  33380M 33393M 33393  33400M 33405  33574  33614M 33614  33654  33846
             33855M 33855  33951  34088M 34150  34284M 34284  34548M 34548  34668M 34668  34755M 34826  35228M 35243M
             35243  35252  35255M 35284M 35284  35329M 35334  35347M 35347  35379  35393M 35402  35468M 35473  35741M
             35741  35780M 36074M 36083  36184M 36184  36223M 36249M 36258  36283M 36283  36367  36471M 36480  36960M
             37085  37198M 37207  37535  37620  37645M 37673M 37688M 37688  37697  37700M 37729M 37729  37788  37826M
             37841M 37841  37850  37853M 37882M 37882  37931  38000M 38005  38079  38236  38291M 38296  38309  38437
             38469M 38473  38520M 38520  38857  38931  38940M 38940  39003  39027  39028M 39036M 39100  39242M 39289M
             39302M 39302  39316M 39316  39323M 39330M 39426  39491M 39541M 39541  39558  39565M 39590  39597M 39627M
             39647M 39647  39668M 39668  39675M 39723  39888M 39897  40044M 40044  40134M 40154M 40154  40165M 40304
             41856M 42102M 42106M 42524M 42525M 42525  42760  43040M 43053M 43053  43146M 43146  43147M 43229  43470
             43626M 43631  43789  43877M 43877  43883M 43891  44048M 44048  44102  44280M 44286M 44411M 44411  44465
             44570M 44570  44617  44734  45185M 45185  45247  45350  45437  45518  45621M
     1(1)      987U  7085   7133M  7177   7221M  7231U  7271U  7277M  7303N  7304M  7495M  7521N  7522M  7668M  7677
              7678   7685   7691   7692   8002M  8003M  8003   8015M  8015   8016   8046M  8047M  8047   8059M  8059
              8060   8079M  8080M  8080   8092M  8092   8093   8094   8124M  8125M  8125   8137M  8137   8138   8539M
              8541   8614M  8615   8672M  8674   8732M  8760   8824M  8844   9244M  9246   9395   9668M  9670M  9681M
              9707N  9708M 10076M 10299M 10300M 10301  10326M 10352N 10353M 11198B 11285M 11313  12449M 12477  12560M
             12631  12857M 12916  13492M 13795M 13798M 13880M 13910M 14037M 14439M 14442M 14545B 14769M 14797  15085M
             15166  15604M 15617  15623  15624  15625  15672M 15772M 15825M 15988M 16395M 16399M 16497M 16515M 16547M
             16852M 16883M 17061M 17078M 17084M 17184M 17532M 17536M 17635M 17654M 17740B 17794B 17798  17822M 17826M
             17831M 17941M 17946M 17947B 18044  18045M 18055U 18061M 18068U 18079U 18168U 18170M 18228B 18356M 18377M
             18577M 18624  20819M 20913  21017M 21018M 21019M 21019N 21020B 21051M 21052M 21053M 21125M 21198  21265
             21307M 21308M 21366M 21431M 21501M 21502M 21584M 21627M 21628M 21710M 21753M 21754M 21761M 22042M 22044
             22202M 22205M 22256M 22259M 22322M 22325M 22483M 22606M 22632N 22633M 22844M 22846  24170M 24231M 24386M
             24386  24416M 24417M 24423  24446  24512M 24570M 24617  24678M 24757M 24868M 24873M 24957M 25033M 25146M
             25182M 25194M 25195M 25269M 25342M 25343M 25353M 25434M 25849B 25899B 25953B 25996B 26198M 26316  28106M
1         (FILEMA) (09:39) (22MAR04) General Purpose Register Cross Reference                                               Page  315
             28203M 28203  28204M 28213M 28213  28240  28427M 28549M 28549  28550M 28562  28575M 28585U 28790U 28800M
             29003M 29004M 29016  29061  29100M 29100  29101M 29113  29308M 29692M 29695M 29815M 29820M 29820  29821M
             29833  29855M 29860M 29860  29861M 29873  30131B 30308D 30310M 30310  30311M 30312U 30320M 30453M 30516
             32463M 32464M 32789M 32819M 32898M 32899M 33234M 33235M 33444M 33574  33629M 33654  33923M 33951  34103M
             34150  34388M 34400M 34416M 34428M 34584M 34599M 34676B 34683B 34688B 34695B 34751B 34780M 34826  35228M
             35254N 35255M 35400M 35402  35659M 35660M 35661  35756M 35758  36081M 36083  36199M 36201  36256M 36258
             36318M 36367  36478M 36480  36959M 37085  37205M 37207  37291M 37397  37535  37673M 37699N 37700M 37826M
             37852N 37853M 38079  38159M 38236  38361M 38371U 38384U 38407M 38437  38470M 38473  38975M 39003  39022
             39028  39029M 39035M 39050M 39100  39174M 39175M 39177M 39178M 39179M 39185D 39187M 39187  39188M 39189U
             39190M 39198M 39239M 39361B 39386M 39426  39527M 39528  39695M 39723  40181M 40304  40708M 40781M 40829M
             40911M 40928M 40955M 40960M 41120M 41137M 41431M 41434M 41506M 41520M 41521M 41522M 41691M 41715M 41716M
             41863  42103M 42105  42106M 42128M 42129M 42130M 42131B 42175B 42225B 42518B 42584B 42659B 42706M 42760
             42924M 42992M 43167B 43201M 43229  43442M 43470  43761M 43789  44074M 44102  44281M 44286M 44437M 44465
             44484M 44494U 44555  44582U 44590M 44617  44636M 44646U 44702U 44710M 44734  45220M 45247  45487M 45518
             45703M
     2(2)      983U  7085   7134M  7177   7216U  7427M  8297   8613   8709U  8732M  8760   8827D  8829M  8829   8830M
              8831U  8844   8870U  8874M  9305U  9395   9436U 11014  11272U 11285M 11313  11341U 12441U 12449M 12477
             12505U 12552U 12560M 12631  12659U 12849U 12857M 12916  12957U 14756U 14769M 14797  14825U 15077U 15085M
             15166  15207U 18564U 18577M 18624  18652U 20811U 20819M 20913  20954U 21082  26185U 26198M 26316  26367U
             30435U 30453M 30516  30544U 33436U 33444M 33574  33602U 33621U 33629M 33654  33682U 33915U 33923M 33951
             33979U 34095U 34103M 34150  34191U 34767U 34780M 34826  36318M 36367  37085  37535  38079  38120M 38130U
             38143U 38159M 38236  38407M 38437  38551M 38552M 38552  38567U 38603U 38975M 39003  39050M 39100  39386M
             39426  39695M 39723  39751U 40173U 40181M 40304  40341M 40351U 42693U 42706M 42760  43201M 43229  43442M
             43470  43761M 43789  44074M 44102  44437M 44465  44590M 44617  44710M 44734  45220M 45247  45487M 45518
             45703M
     3(3)      979U  7085   7138M  7138   7166M  7177   8732M  8760   8832M  8844   9395   9449U  9667M 10075M 11267U
             11285M 11313  11345M 11355U 11421  11636  12436U 12449M 12477  12560M 12631  12663M 12673U 12844U 12857M
             12916  12961M 12971U 13192  13586  14220  14516  14751U 14769M 14797  14829M 14839U 15072U 15085M 15166
             15211M 15221U 15565  16348  17484  17722  17765  17997  18206  18559U 18577M 18624  18656M 18666U 19871M
             20806U 20819M 20913  20958M 20968U 21183  21833  22390  22544  22779  23014  23141  23228  23281  23411
             23489  23565  23647  23724  23802  23878  23956  24032  24110  24358  24478  24545  24602  24663  25391
             25467  25521  25884  25924  25978  26180U 26198M 26316  26380U 26765M 26781  26807M 26878M 26894  27262M
             27278  27551M 27567  27724M 27740  27909M 28074M 28090  28734M 29237M 29576M 30004M 30027M 30070M 30098M
             30130  30206M 30430U 30453M 30516  30548M 30558U 30627  30716  30769  30933  31070  31224  31373  31574
             31789  31875  31913  31966  32043  32341  32424  32744  32779  32932  33078  33137  33195  33327  33431U
             33444M 33574  33629M 33654  33923M 33951  34103M 34150  34547M 34568  34578U 34762U 34780M 34826  34894U
             34987M 35388  35938  36295U 36318M 36367  36525U 36542M 36617  36686  36762  36829  36958  37039U 37085
             37166U 37184M 37257  37331  37488U 37535  38079  38159M 38236  38407M 38437  38780M 38781M 38781  38799U
             38952U 38975M 39003  39050M 39100  39241M 39252U 39283M 39311  39368U 39386M 39426  39695M 39723  39872M
             39882U 39895U 40181M 40304  40355M 40365U 42081  42156  42200  42568  42636  42688U 42706M 42760  42792M
             42802U 42899  43039  43081  43188U 43201M 43229  43261M 43271U 43377  43429U 43442M 43470  43502M 43512U
             43598  43748U 43761M 43789  43821M 43831U 43864  43982  44061U 44074M 44102  44134M 44144U 44222  44424U
             44437M 44465  44590M 44617  44710M 44734  44775U 45088M 45117  45207U 45220M 45247  45279M 45289U 45400
             45474U 45487M 45518  45576M 45586U 45600M 45600  45615M 45627M 45656M 45656  45672  45677M 45690U 45703M
     4(4)      975U  7085   7174M  7177   7203U  7264M  7436   8714U  8732M  8760   8833M  8844   9220M  9230U  9300U
              9395  10077M 10087U 11112U 11285M 11313  12449M 12477  12560M 12631  12857M 12916  13319M 13320M 13405M
             13615M 13616  13798M 14249M 14250  14442M 14769M 14797  15085M 15166  15441M 15575  15603  15762U 15833M
             16163  16496  16518M 16843M 16844M 17187M 17299M 17534M 17535M 17536M 17595M 17833M 18577M 18624  20819M
             20913  20997U 21772U 21944M 22961U 24206M 24206  24211M 24211  24213M 24679M 25163  26198M 26316  30453M
             30516  32065M 32075U 33426U 33444M 33574  33629M 33654  33923M 33951  34103M 34150  34780M 34826  35586M
             35596U 35972U 36318M 36367  37085  37535  38079  38159M 38236  38309M 38346U 38377  38399U 38407M 38437
             38863M 38873U 38947U 38975M 39003  39050M 39100  39386M 39426  39695M 39723  40181M 40304  40395U 40845M
             40860M 40860  40908M 40909  40917M 40924M 40926  41050M 41097M 41109  41118  41126M 41133M 41135  42231M
             42232M 42232  42274M 42275  42285M 42286M 42314M 42588M 42647  42706M 42760  42848M 42935M 43201M 43229
             43442M 43470  43761M 43789  44074M 44102  44437M 44465  44507U 44520M 44521M 44521  44577U 44590M 44617
             44659U 44672M 44673M 44673  44697U 44710M 44734  44788U 44886M 45202U 45220M 45247  45350M 45378  45383M
             45384M 45394U 45432  45448M 45465U 45487M 45518  45703M
     5(5)      971U  7085   7127U  7148M  7149M  7149   7447M  7448M  7448   7636M  7691   7692   7698   7699   8298
              8517   8528M  8528   8612   8701   8719U  8732M  8760   8794M  8804U  9010   9310U  9395  10174M 10175M
1         (FILEMA) (09:39) (22MAR04) General Purpose Register Cross Reference                                               Page  316
             10176M 10176N 10186U 10247  10290  10486  10581  10582  10589  10595  10596  11107U 11285M 11313  12449M
             12477  12560M 12631  12857M 12916  13245M 13330  13347  13374  13394M 13403  13404  13405M 13634M 13646
             13675M 13717  13794  13795  13798M 14276M 14288  14317M 14359  14438  14439  14442M 14769M 14797  15085M
             15166  15834M 16468  16519M 17321M 17333  17362M 17364  17504  17531  17536M 18577M 18624  20819M 20913
             21005U 21943M 22090M 22091N 22491M 22507M 22559  22766U 22770M 22941U 24207M 24212M 24213M 24247M 24276M
             24279M 24295M 24315  24980M 24996M 25005  25027M 25118M 25118  25163M 25183M 25252M 25252  26198M 26316
             30453M 30516  32161M 32162M 32163M 32163N 32173U 32245  32287  33421U 33444M 33574  33629M 33654  33923M
             33951  34103M 34150  34780M 34826  35181U 35379M 35504U 35600M 35610U 35748  35773  35967U 36318M 36367
             37085  37179U 37183M 37483U 37535  38079  38159M 38236  38407M 38437  38512U 38531M 38532M 38532  38957U
             38975M 39003  39050M 39100  39386M 39426  39695M 39723  40181M 40304  40815M 40815  40822  40825  40827M
             40828  41443M 41443  41513  41516  41518M 41519  41692  41701M 41701  42280M 42285M 42290M 42290  42324M
             42371M 42371  42393  42706M 42760  42847M 42847  42909  42923M 42975  43201M 43229  43442M 43470  43761M
             43789  44074M 44102  44437M 44465  44590M 44617  44710M 44734  44801U 44834M 44835M 44835  45197U 45220M
             45247  45296M 45331  45383M 45438M 45454M 45487M 45518  45703M
     6(6)      967U  7085   8732M  8760   9076M  9108   9214   9395   9477U  9832M  9833  10235M 10247  10274M 10290
             10477M 10521  10548  10595  10596  10602  10603  10615  11257U 11285M 11313  11360M 11370U 12431U 12449M
             12477  12560M 12631  12857M 12916  13013M 13023U 13105U 13462U 13493M 13494  13497M 13833M 13843  13881M
             13911M 13936  14038M 14039  14056  14085M 14104  14170M 14268M 14746U 14769M 14797  15085M 15166  15263M
             15273U 15361U 15746U 15803M 15826M 15827  15833  15837M 16446M 16468  16516M 16517  16548M 16549  16759
             16853M 17117M 17582M 17606  17799M 17825  18554U 18577M 18624  20819M 20913  20981U 21093  22221  22226M
             22226  22257M 22275  22313M 22313  22323M 22339  22508M 22780  24962M 25018M 25105  25109M 25109  25147M
             25522M 25584M 25897M 25898  26175U 26198M 26316  30453M 30516  32220M 32230U 32245  32272M 32287  33416U
             33444M 33574  33629M 33654  33773M 33783U 33910U 33923M 33951  34000M 34010U 34029U 34103M 34150  34196M
             34335M 34583M 34682M 34694M 34747M 34780M 34826  34881U 34941M 34942M 34942  35681M 35681  35779  35985M
             35985  36300U 36318M 36367  36538U 36573M 36628  36697  36783  36840  36902  37034U 37085  37185M 37267
             37275M 37285U 37298U 37341  37384  37535  38079  38159M 38236  38407M 38437  38499U 38658M 38659M 38659
             38962U 38975M 39003  39022M 39029  39050M 39100  39173M 39176M 39357M 39386M 39426  39695M 39723  40181M
             40304  40369M 40379U 40423  40725  40731M 40732  40927M 40954M 41028M 41045M 41136M 41433M 41479M 41511M
             41576  41690M 41864M 41934M 41945M 41949M 41978M 41989M 42049  42099M 42119M 42167  42223M 42224  42351M
             42362M 42437M 42448M 42467M 42496M 42507M 42683U 42706M 42760  42806M 42816U 42843  42922M 42923  42980M
             43156M 43183U 43201M 43229  43297U 43419U 43442M 43470  43516M 43526U 43614  43743U 43761M 43789  44074M
             44102  44176M 44186U 44233  44402  44419U 44437M 44465  44590M 44617  44710M 44734  44821U 45130M 45168
             45192U 45220M 45247  45487M 45518  45703M
     7(7)      963U  7085   8732M  8760   9395   9482M  9492U  9498M  9505U  9516U 11252U 11285M 11313  11468M 11478U
             11484M 11491U 11502U 11589U 12292M 12302U 12308M 12315U 12326U 12367U 12449M 12477  12560M 12631  12857M
             12916  13152M 13153M 13221  13317M 13429M 13430  13470U 13495M 13919M 13919  13936M 13937  13946M 13966
             14017M 14040M 14118M 14118  14769M 14797  15085M 15166  15442M 15443M 15671  15697M 15722M 15723  15754U
             15774M 15775  15803  16163  16760M 16982M 17083M 17104M 17104  17266M 17266  17640M 18577M 18624  20819M
             20913  20989U 21404M 21477M 21573M 21574  21575M 21576M 21576N 21699M 21700  21701M 21702M 21702N 22221M
             22264M 22565M 22575U 22581M 22588U 22599U 22946U 24928M 25017  25021M 25105M 25217  25218M 25220M 25278M
             25292M 26198M 26316  26385M 26395U 26401M 26408U 26419U 30425U 30453M 30516  31461M 31471U 31477M 31484U
             31495U 31536U 31673M 31683U 31689M 31696U 31707U 31748U 33444M 33574  33629M 33654  33923M 33951  34103M
             34150  34206M 34207M 34207  34226  34325  34336M 34442N 34463M 34480  34491  34678M 34690M 34749M 34750M
             34750  34780M 34826  34949M 34959U 34965M 34972U 34983U 35186M 35196U 35199U 35205M 35216U 35219U 36113U
             36318M 36367  36406M 36416U 36422M 36429U 36440U 37044U 37085  37119M 37129U 37135M 37142U 37153U 37493U
             37535  37559M 37569U 37575M 37582U 37593U 38047U 38079  38159M 38236  38407M 38437  38975M 39003  39027M
             39036  39050M 39100  39201M 39211U 39217M 39224U 39235U 39359M 39360M 39360  39373U 39386M 39426  39695M
             39723  40181M 40304  40387U 40423M 40927  40954  41028  41136  41332M 41531M 42049M 42119  42706M 42760
             42824U 42843M 42929M 42990M 42990  42991M 43002M 43002  43040  43201M 43229  43442M 43470  43761M 43789
             44074M 44102  44437M 44465  44590M 44617  44710M 44734  45220M 45247  45487M 45518  45538M 45548U 45554M
             45561U 45572U 45695U 45703M
     8(8)      959U  7085   8732M  8760   9395   9454M  9464U 11262U 11285M 11313  12449M 12477  12560M 12631  12857M
             12916  13146M 13330  13357M 13357  13374M 13394  13398M 13398  13420M 13420  13482M 13482  13483M 13484M
             13497N 13943M 13943  13944M 13947  14646M 14706M 14769M 14797  15085M 15166  15435M 15617  15623M 15641
             15642  15646M 15646  15712M 15712  15784M 15784  15785M 15787  15835  16736M 16736  16737M 16740  18460M
             18520M 18577M 18624  20819M 20913  21218M 21228U 21234M 21241U 21252U 21292U 21332M 21332  21348M 21371
             21402M 21432  21781U 21945M 22065  22148  22149  22155  22156  22308M 22320  22328M 22956U 24164M 24164
             24167M 24852M 24852  24853M 24858M 24865  24869  24876M 24933M 24933  24948M 24948  24954  25036M 25113M
             25113  25157M 25157  25179  25243M 25243  25281M 26073M 26133M 26198M 26316  30453M 30516  32824M 32834U
1         (FILEMA) (09:39) (22MAR04) General Purpose Register Cross Reference                                               Page  317
             32840M 32847U 33444M 33574  33629M 33654  33923M 33951  34103M 34150  34780M 34826  36118M 36128U 36134M
             36141U 36152U 36290U 36318M 36367  36655M 36655  36656M 36664  36730M 36772  37085  37535  38079  38159M
             38236  38407M 38437  38975M 39003  39050M 39100  39386M 39426  39695M 39723  40181M 40304  40684M 40685
             40700M 40700  40707  40790M 40790  40845  40948M 40948  40967M 41012M 41021M 41021  41050  41175M 41175
             41176M 41221M 41223  41250M 41250  41251M 41320M 41323M 41324M 41325  41329M 41329  41330M 41340  41432M
             41433N 41535M 41535  41577M 41589  41609  41619M 41619  41620M 41688  41689M 41690N 42706M 42760  43201M
             43229  43305U 43442M 43470  43761M 43789  43922M 43932U 43993  44039  44056U 44074M 44102  44235M 44262
             44287M 44332  44354M 44437M 44465  44590M 44617  44710M 44734  45220M 45247  45383M 45445M 45446  45447
             45487M 45518  45703M
     9(9)      955U  7085   8159M  8160M  8160   8227U  8244U  8259U  8290U  8350D  8352M  8352   8353M  8354U  8355M
              8355N  8361   8485M  8562   8661M  8695   8732M  8760   8808M  8818U  8840U  8930D  8932M  8932   8933M
              8934U  8935M  8935N  8941   9395  10971M 10981U 10997  11091M 11102U 11285M 11313  12449M 12477  12560M
             12631  12857M 12916  13150M 13150  13320  13403M 13431  13475M 13476  13483M 13485M 13491  13496M 13843
             13913M 13914  13944M 13945M 13946N 13947M 14010  14016M 14016  14068  14084M 14085N 14130M 14130  14647M
             14708M 14722M 14722  14769M 14797  15085M 15166  15439M 15439  15606  15624M 15642M 15724  15778M 15779
             15785M 15797M 15797  15823  16511M 16513  16731M 16732  16737M 16738  16741M 16760N 17083N 18461M 18526M
             18577M 18624  20819M 20913  21101M 21302  21328M 21348M 21357M 21357  21363M 21364  21371M 21402M 21403M
             21404N 21432M 21459  21476M 21477N 21541M 21541  21542M 21574M 21585M 21592M 21612M 21612  21613M 21622
             21667M 21667  21668M 21700M 21711M 21718M 21738M 21738  21739M 21748  21989M 21999U 22034  22059  22087U
             22091M 22092  22102U 22134  22135  22142  22148  22149  22164U 22222M 22270M 22309M 22334M 24165M 24166M
             24167M 24168  24847M 24847  24848M 24853M 24856M 24857M 24882M 24929M 24973  24979M 24996  25000M 25000
             25050M 25050  25114M 25287M 25548M 25590M 26074M 26139M 26198M 26316  28101D 28103M 28103  28104M 28105U
             28422D 28424M 28424  28425M 28426U 28799M 28998D 29000M 29000  29001M 29002U 29307M 29810D 29812M 29812
             29813M 29814U 29850D 29852M 29852  29853M 29854U 29925  29952  30089  30453M 30516  32542M 32543M 32566M
             32574M 32611M 32612M 32613M 32617M 32617  32651M 32695M 32749B 32784B 32849B 32861B 32900M 32958  33029
             33444M 33574  33629M 33654  33923M 33951  34103M 34150  34442M 34444M 34461M 34491M 34494M 34496  34780M
             34826  34858M 34868U 36222  36305U 36318M 36367  36444M 36454U 36507U 36705M 36707M 36716M 36716  36853M
             37085  37535  38079  38159M 38236  38407M 38437  38975M 39003  39050M 39100  39386M 39426  39695M 39723
             40181M 40304  40683M 40731N 40750M 40776M 40971M 40971  41171M 41176M 41188  41208  41220M 41222M 41223M
             41224  41246M 41251M 41263  41283  41295M 41296M 41297  41319M 41324  41330M 41331M 41332N 41357M 41375M
             41631M 41643  41663  41673M 41673  41674M 41687M 41688M 41801M 41801  41806M 41856  42357M 42706M 42760
             43098M 43115M 43162M 43201M 43229  43284U 43424U 43442M 43470  43761M 43789  44074M 44102  44236M 44270
             44304  44360M 44437M 44465  44590M 44617  44710M 44734  45220M 45247  45382M 45382  45383M 45487M 45518
             45703M
    10(A)      951U  7085   7086M  7096U  8729U  8732M  8760   8761M  8771U  9320U  9395   9396M  9406U 11282U 11285M
             11313  11314M 11324U 12446U 12449M 12477  12478M 12488U 12557U 12560M 12631  12632M 12642U 12854U 12857M
             12916  12917M 12927U 14766U 14769M 14797  14798M 14808U 15082U 15085M 15166  15167M 15177U 18574U 18577M
             18624  18625M 18635U 20816U 20819M 20913  20914M 20924U 26195U 26198M 26316  26317M 26329U 30450U 30453M
             30516  30517M 30527U 33441U 33444M 33574  33575M 33585U 33626U 33629M 33654  33655M 33665U 33920U 33923M
             33951  33952M 33962U 34100U 34103M 34150  34151M 34161U 34777U 34780M 34826  34827M 34837U 36315U 36318M
             36367  36368M 36378U 37054U 37085  37086M 37096U 37503U 37535  37536M 37546U 38052U 38079  38080M 38090U
             38156U 38159M 38236  38237M 38247U 38404U 38407M 38437  38438M 38448U 38972U 38975M 39003  39004M 39014U
             39047U 39050M 39100  39101M 39111U 39383U 39386M 39426  39427M 39437U 39692U 39695M 39723  39724M 39734U
             40178U 40181M 40304  40305M 40315U 42703U 42706M 42760  42761M 42771U 43198U 43201M 43229  43230M 43240U
             43439U 43442M 43470  43471M 43481U 43758U 43761M 43789  43790M 43800U 44071U 44074M 44102  44103M 44113U
             44434U 44437M 44465  44466M 44476U 44587U 44590M 44617  44618M 44628U 44707U 44710M 44734  44735M 44745U
             45217U 45220M 45247  45248M 45258U 45484U 45487M 45518  45519M 45529U 45700U 45703M
    11(B)      947U  7085   8732M  8760   9395  11285M 11313  12449M 12477  12560M 12631  12857M 12916  14769M 14797
             15085M 15166  18577M 18624  20819M 20913  26198M 26316  26318M 26319M 26319  26337U 30445U 30453M 30516
             33444M 33574  33629M 33654  33923M 33951  34103M 34150  34780M 34826  36318M 36367  37085  37535  38079
             38159M 38236  38407M 38437  38975M 39003  39050M 39100  39386M 39426  39695M 39723  40181M 40304  42706M
             42760  43201M 43229  43442M 43470  43761M 43789  44074M 44102  44437M 44465  44590M 44617  44710M 44734
             45220M 45247  45487M 45518  45703M
    12(C)      943U  7085   7100   7101M  7102   7112U  7116   8724U  8732M  8732   8733   8760   8775   8776M  8777
              8787U  8791   9315U  9395   9410   9411M  9412   9422U  9426  11277U 11285M 11285  11286  11313  11328
             11329M 11330  11331  12449M 12449  12450  12477  12492  12493M 12494  12495  12560M 12560  12561  12631
             12646  12647M 12648  12649  12857M 12857  12858  12916  12931  12932M 12933  12943U 12947  14761U 14769M
             14769  14770  14797  14812  14813M 14814  14815  15085M 15085  15086  15166  15181  15182M 15183  15193U
             15197  18569U 18577M 18577  18578  18624  18639  18640M 18641  18642  20819M 20819  20820  20913  20928
1         (FILEMA) (09:39) (22MAR04) General Purpose Register Cross Reference                                               Page  318
             20929M 20930  20940U 20944  26190U 26198M 26198  26199  26316  26341  26342M 26343  26353U 26357  30440U
             30453M 30453  30454  30516  30531  30532M 30533  30534  33444M 33444  33445  33574  33589  33590M 33591
             33592  33629M 33629  33630  33654  33669  33670M 33671  33672  33923M 33923  33924  33951  33966  33967M
             33968  33969  34103M 34103  34104  34150  34165  34166M 34167  34177U 34181  34772U 34780M 34780  34781
             34826  34841  34842M 34843  34853U 34857  36310U 36318M 36318  36319  36367  36382  36383M 36384  36394U
             36403  37049U 37085  37100  37101M 37102  37112U 37116  37498U 37535  37550  37551M 37552  37553  38079
             38094  38095M 38096  38097  38159M 38159  38160  38236  38251  38252M 38253  38254  38407M 38407  38408
             38437  38452  38453M 38454  38464U 38468  38967U 38975M 38975  38976  39003  39018  39019M 39020  39021
             39050M 39050  39051  39100  39115  39116M 39117  39127U 39136  39378U 39386M 39386  39387  39426  39441
             39442M 39443  39453U 39457  39687U 39695M 39695  39696  39723  39738  39739M 39740  39741  40181M 40181
             40182  40304  40319  40320M 40321  40331U 40340  42698U 42706M 42706  42707  42760  42775  42776M 42777
             42787U 42791  43193U 43201M 43201  43202  43229  43244  43245M 43246  43256U 43260  43434U 43442M 43442
             43443  43470  43485  43486M 43487  43497U 43501  43753U 43761M 43761  43762  43789  43804  43805M 43806
             43816U 43820  44066U 44074M 44074  44075  44102  44117  44118M 44119  44129U 44133  44429U 44437M 44437
             44438  44465  44480  44481M 44482  44483  44590M 44590  44591  44617  44632  44633M 44634  44635  44710M
             44710  44711  44734  44749  44750M 44751  44761U 44765  45212U 45220M 45220  45221  45247  45262  45263M
             45264  45274U 45278  45479U 45487M 45487  45488  45518  45533  45534M 45535  45536  45703M 45703  45704
    13(D)      939U  7085   7085   7100   7101   7116M  7355U  8495U  8498U  8600U  8603U  8732M  8740U  8760   8760
              8775   8776   8791M  8991U  9060U  9063U  9087U  9090U  9193U  9196U  9277U  9280U  9328U  9395   9395
              9410   9411   9426M  9578U  9759U  9762U 10029U 10032U 10101U 10104U 10201U 10204U 10404U 10407U 10500U
             10503U 11285M 11293U 11313  11313  11328  11329  11331M 11402U 11614U 11617U 12110U 12113U 12449M 12457U
             12477  12477  12492  12493  12495M 12560M 12631  12631  12646  12647  12649M 12857M 12916  12916  12931
             12932  12947M 13036U 13170U 13173U 13257U 13260U 13564U 13567U 13737U 13740U 14198U 14201U 14380U 14383U
             14494U 14497U 14613U 14616U 14657U 14660U 14769M 14777U 14797  14797  14812  14813  14815M 15085M 15166
             15166  15181  15182  15197M 15286U 15375U 15378U 15478U 15481U 15543U 15546U 16211U 16214U 16326U 16329U
             16703U 16706U 17397U 17400U 17462U 17465U 17700U 17703U 17975U 17978U 18184U 18187U 18427U 18430U 18471U
             18474U 18577M 18585U 18624  18624  18639  18640  18642M 19436U 19506U 19509U 19766U 19769U 19846U 19849U
             20048U 20051U 20819M 20827U 20913  20913  20928  20929  20944M 21063U 21161U 21164U 21811U 21814U 21870U
             21873U 21956U 21959U 22368U 22371U 22522U 22525U 22684U 22687U 22889U 22892U 22992U 22995U 23119U 23122U
             23206U 23209U 23259U 23262U 23389U 23392U 23467U 23470U 23543U 23546U 23625U 23628U 23702U 23705U 23780U
             23783U 23856U 23859U 23934U 23937U 24010U 24013U 24088U 24091U 24336U 24339U 24456U 24459U 24523U 24526U
             24580U 24583U 24641U 24644U 25369U 25372U 25445U 25448U 25731U 25734U 25862U 25865U 26040U 26043U 26084U
             26087U 26198M 26206U 26316  26316  26341  26342  26357M 26556U 26740U 26743U 26931U 26934U 27132U 27135U
             27237U 27240U 27313U 27316U 27526U 27529U 27598U 27601U 27699U 27702U 27798U 27801U 27863U 27866U 27969U
             27972U 28049U 28052U 28137U 28140U 28366U 28369U 28483U 28486U 28709U 28712U 29035U 29038U 29191U 29194U
             29319U 29322U 29551U 29554U 29629U 29632U 30453M 30461U 30516  30516  30531  30532  30534M 30608U 30694U
             30697U 30747U 30750U 30911U 30914U 31048U 31051U 31202U 31205U 31767U 31770U 31944U 31947U 32021U 32024U
             32088U 32091U 32187U 32190U 32319U 32322U 32366U 32369U 32402U 32405U 32483U 32486U 32722U 32725U 32874U
             32877U 32910U 32913U 33003U 33006U 33056U 33059U 33115U 33118U 33173U 33176U 33246U 33249U 33305U 33308U
             33444M 33452U 33574  33574  33589  33590  33592M 33629M 33654  33654  33669  33670  33672M 33796U 33923M
             33931U 33951  33951  33966  33967  33969M 34041U 34103M 34111U 34150  34150  34165  34166  34181M 34245U
             34522U 34525U 34780M 34788U 34826  34826  34841  34842  34857M 35014U 35306U 35309U 35445U 35448U 35624U
             35627U 35916U 35919U 36017U 36020U 36318M 36326U 36367  36367  36382  36383  36403M 36598U 36740U 36743U
             36807U 36810U 36875U 36878U 36936U 36939U 37011U 37014U 37062U 37085  37085  37100  37101  37116M 37238U
             37309U 37312U 37358U 37361U 37460U 37463U 37511U 37535  37535  37550  37551  37553M 37607U 37776U 37779U
             37977U 37980U 38060U 38079  38079  38094  38095  38097M 38110U 38159M 38167U 38236  38236  38251  38252
             38254M 38271U 38407M 38415U 38437  38437  38452  38453  38468M 38695U 38975M 38983U 39003  39003  39018
             39019  39021M 39050M 39100  39100  39115  39116  39136M 39386M 39426  39426  39441  39442  39457M 39516U
             39695M 39703U 39723  39723  39738  39739  39741M 39946U 40181M 40189U 40304  40304  40319  40320  40340M
             41753U 42059U 42062U 42253U 42256U 42546U 42549U 42614U 42617U 42706M 42714U 42760  42760  42775  42776
             42791M 42880U 42949U 42952U 43017U 43020U 43201M 43209U 43229  43229  43244  43245  43260M 43358U 43442M
             43450U 43470  43470  43485  43486  43501M 43579U 43761M 43769U 43789  43789  43804  43805  43820M 43845U
             43901U 43904U 43960U 43963U 44012U 44015U 44074M 44082U 44102  44102  44117  44118  44133M 44158U 44200U
             44203U 44375U 44378U 44437M 44445U 44465  44465  44480  44481  44483M 44536U 44590M 44598U 44617  44617
             44632  44633  44635M 44710M 44734  44734  44749  44750  44765M 45098U 45141U 45144U 45220M 45228U 45247
             45247  45262  45263  45278M 45313U 45411U 45414U 45487M 45495U 45518  45518  45533  45534  45536M 45637U
             45703M 45711U
    14(E)      935U  7085   7133M  7177   7259M  7301M  7302M  7302N  7304   7385M  7519M  7520M  7520N  7522   7596M
              7676M  7677M  7678   7685M  7698   7699   7829M  7839U  7856U  7894D  7896M  7896   7897M  7898U  7899
1         (FILEMA) (09:39) (22MAR04) General Purpose Register Cross Reference                                               Page  319
              8362M  8524M  8531M  8541M  8634M  8664M  8674M  8732M  8734B  8760   8824M  8844   8942M  9017M  9075M
              9182M  9218M  9236M  9246M  9292M  9395   9627M  9677M  9705M  9706M  9706N  9708   9792M  9849M  9856
              9860M  9880M  9897   9906M  9927M  9934   9938M  9958M  9975   9984M 10057M 10173M 10233M 10350M 10351M
             10351N 10353  10437M 10525M 10552M 10580M 10581M 10582  10589M 10602  10603  10636M 10639M 10646  10650M
             10670M 10687  10696M 10717M 10724  10728M 10748M 10765  10774M 10810M 10817  10821M 10841M 10858  10867M
             10888M 10895  10899M 10919M 10936  10945M 11285M 11287B 11313  11429M 11507M 11514  11518M 11538M 11555
             11564M 11828M 11848M 12204M 12331M 12338  12342M 12449M 12451B 12477  12560M 12562B 12631  12717M 12857M
             12859B 12916  13079M 13225M 13296M 13318M 13405M 13490M 13490  13493  13614M 13716M 13717M 13718  13776M
             13794M 13799M 13800  13809M 13810M 13811  13849M 13859M 13860M 13870  13879M 13908M 13908  13911  13938M
             13939  14009M 14010M 14011M 14012  14030M 14038  14082M 14083  14174M 14175M 14176  14248M 14272M 14273M
             14274  14358M 14359M 14360  14419M 14438M 14443M 14444  14526  14543M 14544M 14633M 14701M 14769M 14771B
             14797  14931M 15085M 15087B 15166  15335M 15395M 15511M 15605M 15606M 15672M 15677M 15770M 15770  15774
             15822M 15822  15826  15835M 15836M 15837N 16139M 16140M 16141  16145M 16146M 16147  16244M 16309M 16310M
             16311  16397M 16398M 16399M 16400M 16401M 16402  16407M 16496M 16512M 16516  16545M 16545  16548  16723M
             16785M 16785  16786M 16845M 16853  17068M 17069M 17070  17074M 17075M 17076  17077M 17191M 17192M 17193
             17275M 17276M 17277  17303M 17304M 17305  17309M 17310M 17311  17363M 17364M 17365  17430M 17531M 17537M
             17538  17543M 17634M 17644M 17645M 17646  17732  17739M 17775  17792M 17793M 17831M 17838M 17839M 17840
             17844M 17845M 17846  17934M 18011M 18085M 18092  18096M 18116M 18133  18142M 18210M 18355M 18376M 18447M
             18515M 18577M 18579B 18624  18671M 18677N 18679M 18680M 18693  18706  18771M 18772B 18792M 18793M 18805
             18889M 18890M 18902  19049M 19050M 19062  19239M 19241M 19242  19466M 19534M 19811M 19834M 19869M 20087M
             20489M 20490  20537M 20569  20574M 20579  20819M 20821B 20913  21026M 21027  21041M 21100M 21202M 21257M
             21264  21266M 21364M 21428M 21428  21429M 21581M 21581  21582M 21590M 21590  21591M 21592  21707M 21707
             21708M 21716M 21716  21717M 21718  21843M 21942M 21988M 22073M 22075  22076  22133M 22134M 22135  22142M
             22155  22156  22186M 22253M 22253  22254M 22320M 22399M 22417M 22427U 22446U 22563M 22630M 22631M 22631N
             22633  22717M 22836M 22846M 22931M 23020M 23021  23031M 23049M 23050M 23068  23157M 23158  23188M 23234M
             23235  23245M 23346M 23364D 23366M 23366  23367M 23369M 23370M 23371  23453M 23498M 23611M 23656M 23766M
             23811M 23920M 23965M 24074M 24119M 24362M 24497M 24549M 24621M 24670M 24673M 24711M 24729M 24734  24735M
             24736  24837M 24837  24838M 24865M 24866M 24869M 24870M 24872  24923M 24925M 24927  24954M 24955M 25129M
             25129  25130M 25139M 25139  25179M 25180M 25191M 25195M 25219M 25221M 25228M 25230  25293M 25294M 25301M
             25303  25323M 25323  25324M 25326  25328  25333M 25333  25334M 25336  25338  25339M 25343M 25416M 25471M
             25532M 25579M 25617M 25743M 25826M 25896M 25934  25951M 25995M 26060M 26128M 26198M 26200B 26316  26430M
             26442  26448M 26474  26487M 26488M 26488N 26503  26516  26598M 26621M 26701M 26724M 26763M 26805M 26876M
             26970M 27056M 27079M 27184M 27260M 27352M 27458M 27481M 27549M 27643M 27666M 27722M 27831M 27891M 28014M
             28072M 28176M 28269M 28334M 28394M 28522M 28674M 28732M 29073M 29159M 29219M 29358M 29381M 29447M 29515M
             29538M 29574M 29592M 29668M 29693M 29695M 29785M 29981M 30265M 30277  30283M 30304N 30342N 30453M 30455B
             30516  30570M 30582  30588M 30593M 30594M 30594N 30595B 30677M 30730M 30875M 31003M 31022D 31024M 31024
             31025M 31026U 31027M 31028  31142M 31295M 31444M 31500M 31507  31511M 31549M 31549  31552M 31656M 31712M
             31719  31723M 31811M 31828M 31842  31846M 31884M 31927M 31985M 32057M 32160M 32219M 32350M 32386M 32458M
             32459M 32464M 32467D 32469M 32469  32470M 32471U 32472  32473M 32509  32513M 32748M 32757M 32783M 32790M
             32813M 32856M 32860M 32894M 32895M 32899M 32993M 33033M 33098M 33156M 33229M 33230M 33235M 33236M 33272
             33276M 33331M 33384M 33444M 33446B 33574  33629M 33631B 33654  33845M 33923M 33925B 33951  34058M 34103M
             34105B 34150  34275M 34545M 34780M 34782B 34826  35031M 35072M 35094M 35101  35104M 35125M 35132  35135M
             35252M 35253M 35253N 35255  35339M 35392M 35402M 35487M 35525M 35532  35535M 35556M 35563  35566M 35656M
             35702M 35787M 35789  35790  35815M 35817M 35824  35827M 35848M 35855  35858M 35953M 36037M 36058M 36073M
             36083M 36175M 36191  36216  36230M 36232  36233  36248M 36258M 36318M 36320B 36367  36470M 36480M 36635M
             36704M 36790M 36847M 36906M 36964M 36971M 36978  36981M 37026M 37085  37197M 37207M 37274M 37348M 37388M
             37389M 37396  37398M 37420M 37427  37430M 37475M 37535  37557M 37619M 37649M 37653M 37654M 37655  37697M
             37698M 37698N 37700  37736M 37743  37747M 37808M 37850M 37851M 37851N 37853  37889M 37896  37900M 37951M
             38015M 38079  38149M 38159M 38161B 38236  38301M 38392M 38407M 38409B 38437  38640M 38718M 38765M 38835M
             38861M 38909M 38935M 38975M 38977B 39003  39026M 39032M 39033M 39033B 39039M 39040M 39040B 39050M 39052B
             39100  39150M 39153  39386M 39388B 39426  39461M 39473M 39473  39532M 39695M 39697B 39723  39869M 39869
             39897M 39982M 40031M 40079M 40096M 40101  40181M 40183B 40304  40434M 40434  40435M 40447  40487  40504
             40543M 40674M 40675M 40676  40680M 40680  40681M 40682M 40683  40736M 40736  40737M 40773M 40774M 40775
             40821M 40822M 40823  40824M 40825M 40826  41341M 41351  41358M 41359  41375  41482M 41483M 41484  41487M
             41488M 41489  41512M 41513M 41514  41515M 41516M 41517  41775M 41851M 41908M 41940M 41947  41950M 41952M
             41984M 41990  42098M 42104M 42106M 42109M 42110M 42111  42116M 42116  42117M 42118  42174M 42222M 42273M
             42285M 42411M 42443M 42457M 42457  42464  42468M 42470M 42502M 42509  42572M 42654M 42706M 42708B 42760
             42921M 42979M 43044M 43151M 43201M 43203B 43229  43402M 43442M 43444B 43470  43735M 43761M 43763B 43789
             43868M 43921M 44000M 44043M 44074M 44076B 44102  44175M 44269M 44270M 44271M 44272  44279M 44286M 44339M
1         (FILEMA) (09:39) (22MAR04) General Purpose Register Cross Reference                                               Page  320
             44406M 44437M 44439B 44465  44559M 44590M 44592B 44617  44710M 44712B 44734  45129M 45172M 45220M 45222B
             45247  45342M 45436M 45487M 45489B 45518  45625M 45676M 45703M 45705B
    15(F)      931U  7085   7086   7133M  7177   7258M  7259B  7303M  7304   7384M  7385B  7410   7411M  7412M  7413M
              7414M  7414   7415M  7415   7521M  7522   7595M  7596B  7621   7622M  7623M  7624M  7625M  7625   7626M
              7626   7816   7817M  7818M  7819M  7820M  7820   7821M  7821   7980M  7981   7982   7983   7984   7985
              7986   7987   8361M  8362B  8523M  8524B  8531M  8539N  8541M  8633M  8634B  8664M  8672N  8674M  8732M
              8760   8761   8824M  8844   8941M  8942B  9016M  9017B  9074M  9075B  9181M  9182B  9217M  9218B  9236M
              9244N  9246M  9291M  9292B  9395   9396   9626M  9627B  9676M  9677B  9707M  9708   9791M  9792B  9817
              9818M  9819M  9820M  9821M  9821   9822M  9822   9856M  9859M  9860   9881M  9897   9906   9934M  9937M
              9938   9959M  9975   9984  10056M 10057B 10172M 10173B 10232M 10233B 10352M 10353  10436M 10437B 10462
             10463M 10464M 10465M 10466M 10466  10467M 10467  10524M 10525B 10551M 10552B 10635M 10636B 10646M 10649M
             10650  10671M 10687  10696  10724M 10727M 10728  10749M 10765  10774  10817M 10820M 10821  10842M 10858
             10867  10895M 10898M 10899  10920M 10936  10945  10985M 10997  11285M 11313  11314  11428M 11429B 11514M
             11517M 11518  11539M 11555  11564  11827M 11828B 11847M 11848B 12094M 12095  12096M 12097  12098M 12099
             12203M 12204B 12338M 12341M 12342  12449M 12477  12478  12560M 12631  12632  12716M 12717B 12857M 12916
             12917  13078M 13079B 13224M 13225B 13295M 13296B 13404M 13405M 13491M 13613M 13614B 13775M 13776B 13854M
             13854  13855M 13858M 13870  13909M 14035M 14035  14036M 14247M 14248B 14418M 14419B 14536  14542M 14543B
             14632M 14633B 14700M 14701B 14769M 14797  14798  14930M 14931B 15085M 15166  15167  15334M 15335B 15394M
             15395B 15510M 15511B 15625M 15641M 15661  15672M 15676M 15677B 15771M 15823M 15824M 15891M 15909M 15921
             15951M 15951  16243M 16244B 16267M 16279  16308M 16310  16368  16399M 16406M 16407B 16450M 16451M 16452
             16456M 16457M 16458  16513M 16514M 16546M 16587M 16605M 16617  16647M 16647  16722M 16723B 16779M 16781M
             16786M 16798  16850M 16850  16851M 16920M 16920  16921M 16923M 16935  17114M 17114  17115M 17116M 17117N
             17429M 17430B 17542M 17543B 17586M 17587M 17588  17592M 17593M 17594  17596M 17606  17738M 17739B 17785
             17791M 17792B 17830M 17830  17831M 17939M 17939  17940M 18010M 18011B 18092M 18095M 18096  18117M 18133
             18142  18209M 18210B 18335M 18338M 18339  18446M 18447B 18514M 18515B 18577M 18624  18625  18674D 18676M
             18676  18677M 18678U 18742M 18742  19465M 19466B 19533M 19534B 19810M 19811B 19868M 19869B 20086M 20087B
             20650M 20651M 20651  20670  20819M 20913  20914  21040M 21041B 21099M 21100B 21201M 21202B 21264M 21265M
             21266  21365M 21430M 21583M 21709M 21842M 21843B 21941M 21942B 21987M 21988B 22034M 22044M 22059  22065M
             22066  22073  22074M 22074  22075  22076  22185M 22186B 22204M 22255M 22257  22321M 22323  22398M 22399B
             22562M 22563B 22632M 22633  22716M 22717B 22742  22743M 22744M 22745M 22746M 22746  22747M 22747  22836M
             22844N 22846M 22930M 22931B 23030M 23031B 23051M 23062U 23075U 23187M 23188B 23244M 23245B 23345M 23346B
             23452M 23453B 23497M 23498B 23610M 23611B 23655M 23656B 23765M 23766B 23810M 23811B 23919M 23920B 23964M
             23965B 24073M 24074B 24118M 24119B 24361M 24362B 24496M 24497B 24548M 24549B 24620M 24621B 24669M 24670B
             24677M 24677  24679  24680  24756M 24778M 24778  24779M 24790  24800M 24800  24801M 24812  24818M 24838M
             24857  24858  24867M 24956M 25005M 25007M 25009  25032M 25145M 25147  25148  25181M 25183  25184  25192M
             25194  25195M 25217M 25220  25226M 25226  25227M 25228  25268M 25299M 25299  25300M 25301  25340M 25342
             25343M 25352M 25415M 25416B 25470M 25471B 25531M 25532B 25578M 25579B 25683M 25690M 25690  25806M 25806
             25825M 25826B 25895M 25896B 25944  25950M 25951B 25952M 25988  25994M 25995B 26059M 26060B 26127M 26128B
             26198M 26316  26317  26318  26489M 26533M 26533  26542B 26597M 26598B 26700M 26701B 26762M 26763B 26804M
             26805B 26875M 26876B 26969M 26970B 27055M 27056B 27183M 27184B 27259M 27260B 27351M 27352B 27457M 27458B
             27548M 27549B 27642M 27643B 27721M 27722B 27830M 27831B 27890M 27891B 28013M 28014B 28037M 28071M 28072B
             28175M 28176B 28268M 28269B 28333M 28334B 28393M 28394B 28428M 28440  28460  28467M 28472  28521M 28522B
             28673M 28674B 28697M 28731M 28732B 28801M 28810M 28810  28858  28906  28954  29072M 29073B 29158M 29159B
             29218M 29219B 29357M 29358B 29446M 29447B 29514M 29515B 29573M 29574B 29667M 29668B 29694M 29695M 29705M
             29717  29737  29784M 29785B 29888M 29889M 29889  29980M 29981B 30301D 30303M 30303  30304M 30305U 30320
             30339D 30341M 30341  30342M 30343U 30357  30388M 30388  30453M 30516  30517  30676M 30677B 30729M 30730B
             30874M 30875B 31002M 31003B 31141M 31142B 31294M 31295B 31443M 31444B 31507M 31510M 31511  31550M 31551M
             31552M 31584  31655M 31656B 31719M 31722M 31723  31845M 31846B 31883M 31884B 31926M 31927B 31984M 31985B
             32056M 32057B 32159M 32160B 32218M 32219B 32349M 32350B 32385M 32386B 32429M 32429  32430M 32440  32457M
             32458B 32460M 32461  32464M 32512M 32513B 32527M 32536M 32536  32599  32645  32683  32747M 32748B 32756M
             32757B 32782M 32783B 32855M 32856B 32859M 32860B 32893M 32894B 32896M 32899M 32937M 32937  32938M 32948
             32959M 32969  32970M 32980  32992M 32993B 33032M 33033B 33097M 33098B 33155M 33156B 33200M 33200  33201M
             33211  33228M 33229B 33231M 33232  33235M 33275M 33276B 33330M 33331B 33383M 33384B 33444M 33574  33575
             33629M 33654  33655  33844M 33845B 33923M 33951  33952  34057M 34058B 34103M 34150  34151  34274M 34275B
             34544M 34545B 34780M 34826  34827  35030M 35031B 35071M 35072B 35101M 35103M 35104  35132M 35134M 35135
             35254M 35255  35338M 35339B 35364  35365M 35366M 35367M 35368M 35368  35369M 35369  35392M 35400N 35402M
             35486M 35487B 35532M 35534M 35535  35563M 35565M 35566  35655M 35656B 35701M 35702B 35748M 35758M 35773
             35779M 35780  35787  35788M 35788  35789  35790  35814M 35815B 35824M 35826M 35827  35855M 35857M 35858
             35952M 35953B 36036M 36037B 36057M 36058B 36073M 36081N 36083M 36191M 36201M 36216  36222M 36223  36230
1         (FILEMA) (09:39) (22MAR04) General Purpose Register Cross Reference                                               Page  321
             36231M 36231  36232  36233  36248M 36256N 36258M 36318M 36367  36368  36470M 36478N 36480M 36634M 36635B
             36703M 36704B 36789M 36790B 36846M 36847B 36905M 36906B 36963M 36964B 36978M 36980M 36981  37025M 37026B
             37085  37086  37197M 37205N 37207M 37273M 37274B 37347M 37348B 37387M 37388B 37396M 37397M 37398  37427M
             37429M 37430  37474M 37475B 37535  37536  37556M 37557B 37618M 37619B 37648M 37649B 37699M 37700  37743M
             37746M 37747  37807M 37808B 37852M 37853  37896M 37899M 37900  37950M 37951B 38014M 38015B 38079  38080
             38148M 38149B 38159M 38236  38237  38300M 38301B 38326  38327M 38328M 38329M 38330M 38330  38331M 38331
             38358M 38359  38360  38391M 38392B 38407M 38437  38438  38639M 38640B 38717M 38718B 38764M 38765B 38834M
             38835B 38860M 38861B 38908M 38909B 38934M 38935B 38975M 39003  39004  39025M 39026B 39050M 39100  39101
             39193D 39195M 39195  39196M 39197U 39198  39386M 39426  39427  39462M 39484M 39484  39531M 39532B 39695M
             39723  39724  39786M 39787M 39787  39837  39857  39871M 39897M 39902M 39903  39981M 39982B 40030M 40031B
             40063M 40101  40118  40181M 40304  40305  40428M 40428  40429M 40467  40559  40576  40667M 40675  40681M
             40684  40706M 40707M 40730M 40732M 40737M 40738  40774  40776  40909M 40910M 40922M 40922  40923M 40924
             41118M 41119M 41131M 41131  41132M 41133  41339M 41340M 41351  41357  41358  41429M 41429  41430M 41469M
             41469  41470M 41471  41710M 41713M 41714  41774M 41775B 41850M 41851B 41946M 41947M 41948  42097M 42098B
             42105M 42106M 42173M 42174B 42215  42221M 42222B 42272M 42273B 42284M 42284  42285M 42392M 42393M 42394
             42463M 42464M 42466  42571M 42572B 42653M 42654B 42706M 42760  42761  42920M 42921B 42978M 42979B 43043M
             43044B 43150M 43151B 43201M 43229  43230  43337  43338M 43339M 43340M 43341M 43341  43342M 43342  43401M
             43402B 43442M 43470  43471  43558  43559M 43560M 43561M 43562M 43562  43563M 43563  43639M 43656M 43686M
             43716M 43730  43734M 43735B 43761M 43789  43790  43867M 43868B 43920M 43921B 43999M 44000B 44042M 44043B
             44074M 44102  44103  44174M 44175B 44268M 44269B 44278M 44279B 44285M 44285  44286M 44338M 44339B 44405M
             44406B 44437M 44465  44466  44558M 44559B 44590M 44617  44618  44710M 44734  44735  45128M 45129B 45171M
             45172B 45220M 45247  45248  45341M 45342B 45367  45368M 45369M 45370M 45371M 45371  45372M 45372  45435M
             45436B 45487M 45518  45519  45624M 45625B 45675M 45676B 45703M

1FILEMAN  (FILEMA) (09:39) (22MAR04) Diagnostic Cross Reference and Assembler Summary                                       Page  322
-                                                                                            HLASM R4.0  2004/03/22 09.39
0     No Statements Flagged in this Assembly
 HIGH LEVEL ASSEMBLER, 5696-234, RELEASE 4.0, PTF UQ57391
0SYSTEM: OS/390 02.10.00            JOBNAME: PJG#FMAN    STEPNAME: ASM        PROCSTEP: (NOPROC)
0Datasets Allocated for this Assembly
  Con DDname   Dataset Name                                 Volume  Member
   P1 SYSIN    SYS04082.T093917.RA000.PJG#FMAN.INPUT.H01    SCR100
   L1 SYSLIB   SYS3.DUMMYMAC                                SYSB02
   L2          WYL.GG.ORV.MACLIB                            SYSB02
   L3          WYL.GG.SYS.MACLIB                            SYSB05
   L4          WYL.GG.ORV.BC.MACLIB                         SYSB02
      SYSLIN   WYL.GG.PJG.OBJ                               SYSB05  FILEMAN
      SYSPRINT SYS04082.T093917.RA000.PJG#FMAN.PRINT.H01    SCR101
      SYSTERM  GG$PJG.PJG#FMAN.JOB05934.D0000103.?

    7812K allocated to Buffer Pool,         5493K would be required for this to be an In-Storage Assembly
    5731 Primary Input Records Read         7177 Library Records Read                  0 Work File Reads
       0 ASMAOPT Records Read              25424 Primary Print Records Written         0 Work File Writes
     731 Punch Records Written                 0 ADATA Records Written
0Assembly Start Time: 09.39.19 Stop Time: 09.39.33 Processor Time: 00.00.09.1033
 Return Code 000
