1FILEVCAT (FILEVC) (09:45) (22MAR04) Ordinary Symbol and Literal Cross Reference                                            Page  228
 =A(NTRYCHG)
               4 00001BB4 00000001     A   12549  8874   9154   9944  10496  10707  10853
 =A(NTRYCHG)
               4 0000467C 00000001     A   25968 22877  24436  24892  25036  25153  25300
 =A(NTRYDEL)
               4 00000880 00000001     A    5929  5499
 =A(NTRYDEL)
               4 00001060 00000001     A    8343  7240
 =A(NTRYDEL)
               4 00004698 00000001     A   25975 25685
 =A(NTRYIAFT)
               4 0000087C 00000001     A    5928  5410
 =A(NTRYIAFT)
               4 00001068 00000001     A    8345  7440
 =A(NTRYIAFT)
               4 000046A0 00000001     A   25977 25905
 =A(NTRYINS)
               4 00000878 00000001     A    5927  5388
 =A(NTRYINS)
               4 00001064 00000001     A    8344  7279
 =A(NTRYINS)
               4 0000469C 00000001     A   25976 25744
 =A(NTRYLAFT)
               4 00000874 00000001     A    5926  5279
 =A(NTRYLOOK)
               4 00000870 00000001     A    5925  5257
 =A(NTRYLOOK)
               4 0000105C 00000001     A    8342  7095
 =A(NTRYMOV)
               4 00002D78 00000001     A   17853 15018  16001  16516  16529  17036  17111  17175  17308  17336  17353
 =A(NTRYMOV)
               4 00003778 00000001     A   20860 18374  18402  18419  18754  18785  18805  19190  19222  19239  19667
                                                 19695  19712
 =A(PARNTRY)
               4 00002D7C 00000001     A   17854 15886  16911
 =A(PARNTRY)
               4 00003770 00000001     A   20858 17931
 =A(RELNODE)
               4 00001BBC 00000001     A   12551 10970  11569
 =A(RELNODE)
               4 00002D80 00000001     A   17855 16579  16610  17421
 =A(RELNODE)
               4 00004680 00000001     A   25969 23150  23260  23959  25404
 =A(VIOFREE)
               4 00000860 00000001     A    5921  3801   3894   4078   4084   4257   4320   4356   4527   4600   4776
 =A(VIOLOCK)
               4 0000085C 00000001     A    5920  3786   3878   4255
 =A(VIOLOCK)
               4 0000465C 00000001     A   25960 22275
 =A(1)         4 00000BA0 00000001     A    6894  5955
 =A(1)         4 00001BC4 00000001     A   12553 12192
 =A(1)         4 00002D70 00000001     A   17851 14750  16063  17686
 =A(1)         4 00003774 00000001     A   20859 18003  20456  20709
 =A(2)         4 00002D68 00000001     A   17849 14671
 =A(256)       4 00001BC0 00000001     A   12552 12128  12140
 =A(256)       4 00003784 00000001     A   20863 20645  20657
 =A(3)         4 00002D6C 00000001     A   17850 14708
 =A(8*2-2)
               4 00000850 00000001     A    5917  3700
1FILEVCAT (FILEVC) (09:45) (22MAR04) Ordinary Symbol and Literal Cross Reference                                            Page  229
 =AL2(1)       2 00001078 00000001     R    8349  7197
 =AL2(1)       2 00001BCC 00000001     R   12556 12413
 =AL2(1)       2 00002D8C 00000001     R   17860 16317  16730
 =AL2(1)       2 0000378C 00000001     R   20866 19809
 =AL2(2)       2 00002D84 00000001     R   17856 14168
 =C' ORVYL File System Updates Frozen!!'
              35 000046A8 00000001     C   25980 22132
 =C'ORV.'      4 00001070 00000001     C    8347  8157
 =V(FMTDATE)
               4 00001074 00000001     V    8348  8233   8255
 =V(SETREAD1)
               4 00000864 00000001     V    5922  3924   4372   4637
 =V(SETWRIT1)
               4 00000868 00000001     V    5923  4170   4823   4894
 =V(VKAPUT)
               4 00000858 00000001     V    5919  3727   3905   3971   3994   4056   4101   4248   4313   4415   4438
                                                  4611   4686   4709   4768   4793
 =V(VKAPUT)
               4 00000BAC 00000001     V    6897  6123   6568   6836   6872   6889
 =V(VKAPUT)
               4 00001F8C 00000001     V   14012 13077
 =V(VKAPUT)
               4 00002D64 00000001     V   17848 14231  16290  17158  17287
 =V(VKAPUT)
               4 00003780 00000001     V   20862 20182  20285
 =V(VKAPUT)
               4 00004658 00000001     V   25959 22004  22222  22292  22329  22384  22568  23009  23401  24193  24638
                                                 25508  25617  25950
 =Y((L'DATEDSCT+3)/4*4)
               2 0000107C 00000001     Y    8351  8285
 =Y((L'VWTOMSG1+3)/4*4)
               2 000046A4 00000001     Y   25978 22147
 =Y(CNTAMXSZ)
               2 00000BC4 00000001     Y    6903  6415
 =Y(CNTAMXSZ)
               2 00001BCA 00000001     Y   12555  9858
 =Y(L'CHKDSTK)
               2 0000088A 00000001     Y    5932  5611   5677   5756   5783   5849   5870
 =Y(L'CHKDSTK)
               2 00000BC6 00000001     Y    6904  6529   6655
 =Y(L'CHKDSTK)
               2 0000107A 00000001     Y    8350  7906
 =Y(L'NTRYFL)
               2 0000378A 00000001     Y   20865 18914
 =Y(L'NTRYGR-1)
               2 00003788 00000001     Y   20864 18897
 =Y(1*4)       2 00000888 00000001     Y    5931  4008   4203   4266   4331   4452   4661   4723   4856   4926   5660
                                                  5838
 =Y(1*4)       2 00000BC8 00000001     Y    6905  6757
 =Y(1*4)       2 00001F9C 00000001     Y   14016 12773  12913  13058  13173  13613
 =Y(1*4)       2 00003790 00000001     Y   20868 20339  20852
 =Y(1*4)       2 00003A9C 00000001     Y   21947 21043  21494  21902
 =Y(2*4)       2 00000BCA 00000001     Y    6906  6849
 =Y(2*4)       2 00001BC8 00000001     Y   12554  8696   9331   9655  10149  11287  12534
 =Y(2*4)       2 00001F9E 00000001     Y   14017 13473  14000
 =Y(2*4)       2 00002D8E 00000001     Y   17861 17833
 =Y(2*4)       2 0000378E 00000001     Y   20867 20028
 =Y(2*4)       2 000046A6 00000001     Y   25979 22214
 =Y(2)         2 00002D8A 00000001     Y   17859 14720  14723  15400
1FILEVCAT (FILEVC) (09:45) (22MAR04) Ordinary Symbol and Literal Cross Reference                                            Page  230
 =Y(3)         2 00002D86 00000001     Y   17857 14679  14680
 =Y(6)         2 00002D88 00000001     Y   17858 14718  14719
 =Y(8)         2 00003A9E 00000001     Y   21948 21617
 =4AL1(NIL)
               1 0000086C 00000001     R    5924  4355   5593   5703   5876
 =4AL1(NIL)
               1 00000BA8 00000001     R    6896  6086   6105   6114   6175   6322   6325   6553   6679   6744   6745
                                                  6746
 =4AL1(NIL)
               1 0000106C 00000001     R    8346  7634   7810
 =4AL1(NIL)
               1 00001BB0 00000001     R   12548  8423   8478   9207   9270   9377   9408   9599   9817   9818   9835
                                                 10038  10098  10234  10293  10802  11028  11046  11074  11134  11475
                                                 11506  11707  11746  11953  12052
 =4AL1(NIL)
               1 00001F84 00000001     R   14010 12796  13144  13401  13505
 =4AL1(NIL)
               1 00002D60 00000001     R   17847 14185  14216  14245  14322  14432  14512  14980  16348  17046  17439
                                                 17591  17802  17803  17804
 =4AL1(NIL)
               1 0000377C 00000001     R   20861 18537  18655  19426  19444  19522  19548  20173  20276  20458  20612
                                                 20804
 =4AL1(NIL)
               1 00004664 00000001     R   25962 22343  22410  22809  23070  23199  23899  24035  24480  24936  25344

1FILEVCAT (FILEVC) (09:45) (22MAR04) Macro and Copy Code Source Summary                                                     Page  231
- Con Source                                        Volume    Members                        HLASM R4.0  2004/03/22 09.45
0     PRIMARY INPUT                                           ALLOC    BLKL     BUGNTRY  CATENT   CHKPREC  CHKPUSH
                                                              COMIO    CSECT    DDREAD   DDWRITE  DIRENT   DIREST
                                                              DIRSAV   DLOKBUF  DREAD    DRELBUF  DROP     DSKCHN
                                                              DSKFREE  DSKINIT  DWRITE   END      ERRCODE  EX
                                                              GETBLOCK GETNODE  IWRITE   LKINCORE LRUBUF   LTORG
                                                              NTRYCHG  NTRYMOV  POP      PRINT    PUSH     REGCH
                                                              RELNODE  START    TOCOM    TRESTKAD USING
   L2 WYL.GG.SYS.MACLIB                             SYSB05    $BC      $BFLKUP  $BV      $CCLKUP  $CRS     $CSS     $L
                                                              $LA      $LBLAD   $LEXP    $LOR     $REL     $RGLKUP
                                                              $USLKUP  ACALL    BASE     BEGIN    CEIL     CLEAR
                                                              CSECT    DATA     DECR     DEFCC    DEX      DROP     ELSE
                                                              ELSEIF   END      EX       FLAG     FLOOR    GEN
                                                              HIBAL    IDENT    IF       INCR     LABEL    LC
                                                              LCALL    LOOP     LTORG    L4       POP      PRINT    PUSH
                                                              RECORD   REG      REGS     SET      START    UNTIL
                                                              USING    VCALL    WHILE    WITH     ZOT
   L3 WYL.GG.ORV.MACLIB.VCATBAT                     SYSB02    ABORT    MODULE   VCATNOTE XTRC     XTRCDATA
   L4 WYL.GG.ORV.MACLIB                             SYSB02    CATCODE  CATRQBL  CHKPNT   DSKBLK   FBHDR    FILCONST FPC
                                                              FSB      GENCAT   NODE     NTRY     PZERO
   L5 WYL.GG.ORV.BC.MACLIB                          SYSB02    VPOP     VPUSH    XCALL

1         (FILEVC) (09:45) (22MAR04) General Purpose Register Cross Reference                                               Page  232
- Register  References (M=modified, B=branch, U=USING, D=DROP, N=index)                      HLASM R4.0  2004/03/22 09.45
0    0(0)      999U  1000D  3883   3919M  3920   3922M  3946M  3947M  3985   4092   4111   4164M  4165   4167M  4192M
              4193M  4366M  4367M  4368   4370M  4394M  4395M  4429   4481   4589   4619   4635M  4662M  4700   4784
              4803   4820M  4845M  4846M  4874M  4874   4888M  4889   4891M  4916M  4917M  4960   4989   5025M  5076
              5608M  5772M  5859M  6039   6134M  6197M  6419M  6419   6420M  6421   6587M  6988   7051M  7073M  7113
              7114M  7116M  7274M  7338M  7359   7381M  7392M  7413M  7429M  7437M  7536M  7628M  7629M  7633M  7651M
              7690M  7694M  7700M  7732M  7804M  7805M  7809M  7827M  7866M  7870M  7876M  7926M  8225M  8247M  8457M
              8458M  8477M  8495M  8558M  8579M  8608M  8687M  8689M  8851M  8914M  8954M  9068   9092   9105   9217M
              9237M  9295M  9452   9487M  9526   9650M  9652M  9765   9788M  9788   9816  10054M 10074M 10114M 10268M
             10325M 10418M 10479M 10481M 10486M 10486  10690M 10703M 10703  10821M 10821  10963M 10999M 11062M 11090M
             11110M 11150M 11213M 11242M 11251M 11396M 11396  11414M 11414  11417  11425M 11524M 11562M 11777  11838M
             11890M 12089M 12090M 12094M 12125M 12170  12211  12239M 12288M 12353M 12370M 12480  12672M 12697M 12714M
             12719  12720M 12723  12774M 12812M 12837M 12854M 12859  12860M 12863  12914M 12982M 12999M 13004  13005M
             13008  13059M 13163M 13243  13302M 13319M 13385  13465M 13521M 13530M 13546M 14109M 14144M 14186M 14214M
             14274  14287M 14379M 14477M 14543M 14636M 14653M 14677  14679M 14681M 14683M 14716  14718M 14721M 14722M
             14723M 14772M 14789M 14809  14847M 14891  14938  14955M 15002  15004  15420M 15432M 15444M 15684M 15820M
             15874  16070M 16085M 16100M 16120M 16132M 16144M 16156M 16228M 16230M 16230  16572M 16603M 16670M 16687M
             16797  16859M 16871M 16883M 17044M 17079  17080  17414M 17476M 17491M 17515M 17527M 17539M 17551M 17619M
             17638M 17668M 17698M 17725M 17741M 17768M 17809M 17938M 17940M 17977M 17977  17984M 17984  17985M 17994M
             17994  18024M 18041M 18049  18051  18289M 18291M 18301  18339  18536M 18549M 18611  19101M 19102  19103
             19426M 19427  19458M 19536M 19548  19582  19749M 19766M 19876  20433M 20434M 20434  20447  20453M 20524M
             20525M 20526  20527M 20528M 20529  20576M 20577M 20578  20579M 20580M 20581  20590M 20642M 20687  20728
             20747M 20751M 20835M 20836M 20948M 20949  20956M 21024  21026M 21027  21123M 21123  21148M 21148  21154M
             21155M 21167  21213  21242  21277  21320M 21320  21321M 21322M 21334  21382  21404  21410  21460  21474
             21541M 21542M 21554M 21554  21566  21614  21724  21776  21883M 21884  22133M 22134M 22134  22298M 22300M
             22420M 22461M 22529  22600M 22652M 22659M 22681M 22708M 22725M 22793  22849M 22861  22863M 22873M 22873
             22897M 22914M 22971M 23032M 23083M 23100M 23143M 23179M 23209M 23253M 23290M 23318M 23336M 23360M 23413M
             23454M 23469M 23485M 23500M 23527M 23542M 23568M 23594M 23609M 23621M 23636M 23648M 23663M 23727M 23753M
             23768M 23780M 23795M 23810M 23830M 23909M 23952M 24007M 24045M 24086M 24154  24225M 24277M 24284M 24306M
             24370M 24420  24422M 24432M 24432  24456M 24490M 24531M 24599  24670M 24722M 24729M 24751M 24826M 24876
             24878M 24888M 24888  24912M 24947M 25003M 25003  25032M 25032  25056M 25073M 25137M 25149M 25149  25173M
             25206M 25288M 25288  25296M 25296  25320M 25354M 25397M 25434M 25456M 25458M 25477M 25538M 25558M 25651M
             25728M 25803M 25824  25846M 25857M 25878M 25894M 25902M
     1(1)      995U  5054M  5055M  5058M  5060   5576U  5617   5682M  5683M  5683N  5684M  5685   5766M  5767   5787M
              5788M  5788N  5874M  5875M  5875N  5905U  5945M  5955M  5981   5991M  5992   6322M  6459M  6665M  6666M
              6667M  6668   6691M  6692M  6693   6854   6858M  7114   7115M  7116M  7307U  7320U  7369U  7388U  7391M
              7392M  7396M  7550M  7613   7627M  7627   7628M  7632M  7633M  7693M  7694M  7699M  7746M  7789   7803M
              7803   7804M  7808M  7809M  7869M  7870M  7875M  8031U  8075M  8098   8229M  8229   8235   8236   8237
              8251M  8251   8257   8258   8259   8337U  8456M  8456   8457M  8476M  8477M  8534M  8552U  8576U  8578M
              8579M  8584M  8602U  8624U  8657M  8675D  8677M  8677   8678M  8679U  8680M  8680   8685   8686   8687M
              8688M  8827M  8845U  8867U  8931M  8948M  8953   8954M  8995M  9013U  9121U  9453   9527   9540M  9541M
              9551U  9564U  9649M  9649   9650M  9651M  9811U  9889U 10480M 10481M 10482M 10548M 10558U 10563M 10634U
             10675M 10685U 10698U 10817M 10967M 11416  11566M 11635M 11652M 11682  11778  11823N 11887M 11888M 11889
             11890M 11985M 12002M 12010  12012  12091M 12092M 12093  12094M 12145M 12146M 12156  12163  12169M 12170M
             12241M 12283  12285M 12286  12287  12288M 12335M 12336M 12337  12439  12480  12506  12680M 12719M 12729M
             12820M 12859M 12869M 12965M 13004M 13014M 13141  13174M 13227N 13328M 13370N 14187M 14197U 14215  14238M
             14273M 14342  14431M 14432  14463M 14464M 14465M 14601U 14637M 14654M 14678  14717  14720M 14722  14892
             14939  14954M 14955  14965U 14986  14987M 14999U 15003M 15004M 15005  15012M 15013M 15030M 15040U 15053U
             15152U 15165U 15184U 15189M 15197U 15258U 15271U 15582M 15583M 15601U 15623U 15718M 15719M 15737U 15759U
             15875  15920M 15930U 15990  15995M 15996M 16009U 16207M 16223M 16230M 16238U 16251  16360M 16361  16433M
             16507  16510M 16511M 16523M 16524M 16576M 16607M 16654M 16756  16797  16823  16955M 16957M 17001M 17002
             17004M 17030M 17031M 17043M 17044  17073M 17080M 17081  17105M 17106M 17165M 17166  17169M 17170M 17238M
             17240  17243M 17244  17294M 17295  17302M 17303M 17330M 17331M 17347M 17348M 17401M 17403M 17418M 17581U
             17895U 17956M 17972M 17977M 17978M 17979M 17980M 17985M 18003M 18049  18051M 18052  18134M 18153M 18179
             18314M 18335  18337M 18338  18350M 18352M 18353M 18356M 18364M 18365  18368M 18369M 18396M 18397M 18413M
             18414M 18521M 18536  18549  18568M 18611M 18616  18618  18652M 18653  18704M 18721M 18726M 18727M 18727N
1         (FILEVC) (09:45) (22MAR04) General Purpose Register Cross Reference                                               Page  233
             18728  18734M 18736M 18739M 18748M 18749M 18774M 18775M 18776  18779M 18780M 18793M 18794  18799M 18800M
             18852M 18853M 18854  19006M 19061M 19099  19103M 19104  19146M 19147  19175M 19184M 19185M 19210M 19211M
             19212  19213  19216M 19217M 19233M 19234M 19336M 19425M 19459  19460M 19477M 19478  19537  19538M 19581M
             19588  19639M 19640  19646M 19648M 19649M 19652M 19661M 19662M 19689M 19690M 19706M 19707M 19733M 19835
             19876  19902  20038U 20103M 20119M 20520U 20535U 20591M 20592M 20592  20595  20611M 20612  20624N 20662M
             20663M 20673  20680  20686M 20687M 20750M 20751M 20803M 20804  20816N 20834M 20836M 20947M 20947  20948M
             21091  21134M 21134  21253M 21283  21412M 21413M 21540  21543M 21566  21614M 21615M 21627  21683M 21684M
             21694  21723M 21724M 21734  21885M 22115M 22126U 22141U 22297M 22300M 22530  22583N 22649M 22650M 22651
             22652M 22721M 22763N 22833M 22843U 22856U 23147M 23257M 23956M 24155  24208N 24274M 24275M 24276  24277M
             24354M 24364U 24377U 24600  24653N 24719M 24720M 24721  24722M 24810M 24820U 24833U 24999M 25121M 25131U
             25144U 25284M 25401M 25457M 25458M 25772U 25785U 25834U 25853U 25856M 25857M 25861M
     2(2)      991U  3646U  3688   3801M  3848M  3894M  3900   3918   3948M  4083M  4084M  4163   4194M  4256M  4257M
              4258   4321M  4322   4352M  4357   4396M  4487M  4527M  4574M  4600M  4606   4628   4663M  4775M  4776M
              4813   4847M  4875M  4887   4918M  4986M  5004   5024M  5075   5592   5615   5679M  5780   5813M  5867
              5946M  5981   5990M  5991   6142   6205   6540   6595   6666   6692   7059   7117M  7596   7610   7659
              7779   7835   7934   8096M  8230   8252   8503   8905M  9193M  9451   9492   9525   9570   9576   9892M
              9979M 10333  10648M 10905M 11004  11250  11529  11566  11776  12286M 12304  12317M 12729  12869  13014
             13328  14292  14384  14482  14548  14890  14937  15873  16053M 16058M 17442M 17458M 17594M 19367M 19384M
             19389M 19398M 19398  19438  19457M 19516  19535M 19583M 19589  20963N 20999N 21017N 21022N 21023N 21024N
             21091M 21185N 21203N 21348N 21372N 21411N 21430N 21431N 21432N 21450N 21462  21463M 21463N 21469  21476M
             21477M 21540M 21645N 21684N 21751N 21769N 21774N 21775N 21776N 21782N 21798N 21799N 21817N 21822N 21823N
             21824N 21834N 21835N 21851N 21852N 21870N 21876N 21877N 21878N 22259M 22274M 22288  22295  22298  22528
             22689  22712M 22721  23147  23257  23371  23421  23576  23735  23956  24153  24314  24598  24759  24955
             25081  25214  25401
     3(3)      987U  3810M  3810   3849M  3900   4353M  4357   4536M  4536   4575M  4606   4970M  4970   4987M  5004
              5036M  5036   5048   5054   5567U  5614   5618   5680M  5681M  5681N  5686   5785M  5786M  5786N  5814M
              5815M  5815N  5872M  5873M  5873N  5898U  6143M  6144M  6144N  6154U  6167U  6206M  6207M  6207N  6215U
              6305M  6311U  6320U  6459   6461M  6539   6580U  6596M  6597M  6597N  6665   6691   7118M  7119M  7119N
              7340M  7550   7551M  7552M  7577U  7613M  7630   7660M  7746   7747M  7748M  7789M  7806   7836M  7950U
              8022U  8075   8076M  8077M  8330U  8373U  8459   8504M  8505M  8549U  8571U  8599U  8619U  8842U  8862U
              9010U  9116U  9341U  9396U  9455M  9456M  9456N  9529M  9530M  9530N  9572M  9573M  9573N  9574M  9575
              9587U  9900M  9901M  9901N  9911U  9929U 10228U 10241U 10295M 10296M 10306U 10311M 10319U 10334M 10335M
             10335N 10345U 10365M 10375U 10378U 10395U 10398U 10411U 10423M 10424M 10424N 10434U 10444M 10451U 10462U
             10477U 10487  10512M 10513M 10523U 10646U 10941M 10942M 10952U 10993U 11012M 11013M 11013N 11023U 11035U
             11460M 11470U 11537M 11538M 11538N 11548U 11551U 11597U 11600U 11612U 11796M 11806U 11819U 11823M 11833U
             11845U 11937M 11947U 11960U 12237M 12239  12298U 12311U 12324M 12325M 12325N 12333U 12544U 13227M 13237U
             13250U 13370M 13380U 13459U 14054U 14120M 14121M 14121N 14154M 14155M 14155N 14299M 14300M 14300N 14391M
             14392M 14392N 14461M 14462M 14489M 14490M 14490N 14555M 14556M 14556N 14619M 14620M 14948M 14949M 15006M
             15007M 15028M 15029M 15329M 15330M 15366M 15367M 15598U 15618U 15734U 15754U 15892M 15893M 16015M 16016M
             16190M 16191M 16302M 16303M 16363M 16364M 16434M 16435M 16531M 16532M 16595M 16596M 16626M 16627M 16913M
             16914M 16960M 16961M 17038M 17039M 17041M 17042M 17132M 17133M 17183M 17184M 17246M 17247M 17360M 17361M
             17406M 17407M 17463M 17464M 17466M 17467M 17817M 17818M 17818N 17843U 17886U 18053M 18054M 18073M 18074M
             18340M 18341M 18342  18362M 18363M 18519M 18520M 18686M 18687M 18791M 18792M 18860M 18861M 19105M 19106M
             19334M 19335M 19427M 19458  19459M 19477  19536  19537M 19581  19582M 19590  19600U 19603U 19620U 19623U
             19637M 19638M 19731M 19732M 19923M 19924M 19951M 19952M 19983M 19984M 20045U 20063U 20124M 20125M 20126M
             20136U 20139U 20189M 20224  20226M 20292  20331U 20334U 20347U 20879U 20962M 21023  21184M 21347M 21430M
             21450  21475M 21475  21476M 21644M 21683  21775  21781  21817  21825  21925U 22260M 22288  22479M 22489U
             22501U 22537M 22547U 22581U 22583M 22594U 22607U 22763M 22773U 22831U 22941M 22942M 22942N 22952U 22965U
             23053M 23054M 23054N 23064U 23077U 23121M 23122M 23122N 23132U 23172U 23231M 23232M 23232N 23242U 23282U
             23930M 23931M 23931N 23941U 23981U 24104M 24114U 24126U 24162M 24172U 24206U 24208M 24219U 24232U 24549M
             24559U 24571U 24607M 24617U 24651U 24653M 24664U 24677U 24969M 24970M 24970N 24980U 24990M 24997U 25004
             25375M 25376M 25376N 25386U 25426U 25805M
     4(4)      983U  3819M  3820M  3821   3829M  3830M  3831   3850M  3900M  3915M  3916M  3917   4160M  4161M  4162
              4354M  4357M  4362M  4363M  4364   4545M  4546M  4547   4555M  4556M  4557   4576M  4606M  4625M  4626M
              4627   4810M  4811M  4812   4884M  4885M  4886   4966M  4988M  5004M  5048   5055   5585U  5610M  5611M
              5612M  5612N  5676M  5677M  5678M  5678N  5730M  5731M  5732   5744   5756M  5757M  5757N  5782M  5783M
              5784M  5784N  5848M  5849M  5850M  5850N  5869M  5870M  5871M  5871N  5912U  6373D  6375M  6375   6376M
              6377U  6380M  6382   6410D  6412M  6412   6413M  6414U  6415M  6421   6493U  6503M  6504M  6505   6517
              6529M  6530M  6530N  6549U  6619U  6629M  6630M  6631   6643   6655M  6656M  6656N  6675U  6854M  6858
1         (FILEVC) (09:45) (22MAR04) General Purpose Register Cross Reference                                               Page  234
              7313M  7343D  7345M  7345   7346M  7347U  7348N  7376D  7378M  7378   7379M  7380U  7381N  7590U  7607U
              7678M  7679   7689M  7690N  7691M  7692   7773U  7786U  7854M  7855   7865M  7866N  7867M  7868   7905M
              7906M  7907M  7907N  7917U  7941U  8098M  8108U  8278U  8523M  8524   8557M  8558N  8559M  8560   8686M
              8689   9067M  9068M  9080   9575M  9576M  9577   9853D  9855M  9855   9856M  9857U  9858M  9859   9862M
              9864   9920M  9921M  9922  10469M 10488  10598D 10600M 10600  10601M 10602U 10607M 10609  10666M 11231D
             11233M 11233  11234M 11235U 11236  11968M 12010  12012M 12021M 12082M 12082  12090  12119M 12119  12125
             12128  12140M 12156  12163M 12168  12173M 12175  12192M 12211M 12336  13549M 13550M 13551  13563  13586
             13735M 13736M 13737  13749  13773  13856M 13857M 13858  13870  13894  14185M 14186  14214  14215M 14244
             14273  14274M 14276  14280M 14281M 14282  14368  14372M 14373M 14374  14470M 14471M 14472  14536M 14537M
             14538  14863M 14864M 14865  14910M 14911M 14912  14986M 15003  15055M 15056M 15104U 15110M 15117U 15128U
             15141U 15199M 15200M 15210U 15216M 15223U 15234U 15247U 15408M 15409M 15410  15499M 15500M 15501  15543M
             15544M 15545  15581M 15607M 15625  15717M 15743M 15761  15846M 15847M 15848  16043M 16044M 16045  16060M
             16063M 16064M 16065  16849M 16850M 16851  17045M 17046  17066  17072  17073N 17239M 17241  17242  17243N
             17248M 17249M 17275  17502M 17503M 17504M 17505  17683M 17686M 17687M 17688  18135M 18145  18151  18152
             18153N 18290M 18291  18313  18314N 18336  18337N 18501M 18511  18517  18518  18550M 18560  18566  18567
             18568N 19007M 19008  19033  19060  19061N 19062M 19071M 19071  19089  19316M 19326  19332  19333  19456M
             19457  19460N 19534M 19535  19538N 20418M 20428U 20457M 20484U 20490M 20499M 20499  20595M 20642  20645
             20657M 20673  20680M 20685  20690M 20692  20709M 20728M 20888U 20961M 20962  20963M 20975  20989  20999
             21011  21025M 21183M 21184  21185M 21197  21253  21283M 21346M 21347  21348M 21360  21412  21462M 21477
             21643M 21644  21645M 21657  21671  21717  21734  21751  21763  21777M 21792  21825M 21833  21870  21885
             21932U 22261M 22288M 22790M 22791M 22792  24395M 24412M 24420  24422  24793M 24794M 24795  24851M 24868M
             24876  24878  24987M 24988M 24989  25247M 25248M 25249  25778M 25808D 25810M 25810  25811M 25812U 25813N
             25841D 25843M 25843  25844M 25845U 25846N
     5(5)      979U  3628U
     6(6)      975U  3662   3688M  3700   3702M  3702N  3703M  3704B  6844   6850M  6860M  6937M  6947U  7499M  7509U
              7512U  8038M  8048U  8051U  8380   8385M  8395U  8398U  8697M  8735   8740M  8750U  8753U  9332M  9354
              9359M  9369U  9372U  9656M  9694   9699M  9709U  9712U 10150M 10184  10189M 10199U 10202U 11288M 11326
             11331M 11341U 11344U 12535M 12601  12606M 12616U 12619U 13474M 13640  13645M 13655U 13658U 14001M 14060
             14065M 14075U 14078U 17834M 17901  17906M 17916U 17919U 20029M 20069  20073M 20083U 20086U 20340M 20374
             20378M 20388U 20391U 20853M 20914  20918M 20928U 20931U 21044M 21072  21076M 21086U 21089U 21495M 21521
             21525M 21535U 21538U 21903M 21962  21967M 21977U 21980U 22215M 22243M 22253U 22256U
     7(7)      971U  3658   3669M  3679U  5087   5090M  5095   5098M  5099   5100M  6852M
     8(8)      967U  3637U  3659   3666M  4875   5091M  5094   5103M  6853M  6862M 22299  25456
     9(9)      963U  3663   3727M  3728M  3728B  3744   3753M  3800M  3893M  3905M  3906M  3906B  3926M  3971M  3972M
              3972B  3994M  3995M  3995B  4009M  4011B  4027   4035M  4056M  4057M  4057B  4101M  4102M  4102B  4172M
              4204M  4206B  4218   4227M  4248M  4249M  4249B  4267M  4269B  4283   4292M  4313M  4314M  4314B  4332M
              4334B  4350   4374M  4415M  4416M  4416B  4438M  4439M  4439B  4453M  4455B  4467   4499M  4526M  4599M
              4611M  4612M  4612B  4639M  4686M  4687M  4687B  4709M  4710M  4710B  4724M  4726B  4738   4747M  4768M
              4769M  4769B  4793M  4794M  4794B  4825M  4857M  4859B  4869   4896M  4927M  4929B  5011B  5081B  5088
              5092M  5101M  5104B  5149M  5237M  5257M  5258M  5258B  5276M  5279M  5280M  5280B  5350M  5368M  5388M
              5389M  5389B  5407M  5410M  5411M  5411B  5467M  5485M  5499M  5500M  5500B  5590   5661M  5666M  5666B
              5673   5778M  5839M  5842B  5865M  5993B  6015   6123M  6124M  6124B  6140M  6203M  6256M  6257M  6257B
              6568M  6569M  6569B  6593M  6758M  6760B  6784M  6785M  6785B  6836M  6837M  6837B  6845   6851M  6856B
              6859M  6863B  6872M  6873M  6873B  6889M  6890M  6890B  6974M  7010M  7019M  7057M  7075M  7095M  7096M
              7096B  7235M  7240M  7241M  7241B  7276M  7279M  7280M  7280B  7440M  7441M  7441B  7466M  7538M  7554M
              7657M  7710M  7734M  7750M  7833M  7886M  7888M  7932M  7944M  8054M  8063M  8079M  8291M  8293M  8381
              8501M  8698M  8703B  8736   8874M  8875M  8875B  9154M  9155M  9155B  9198M  9223M  9243M  9301M  9317M
              9333M  9335B  9355   9435M  9436M  9436B  9490M  9509M  9510M  9510B  9657M  9662B  9695   9944M  9945M
              9945B 10036M 10060M 10080M 10120M 10136M 10151M 10153B 10185  10270M 10331M 10420M 10496M 10497M 10497B
             10707M 10708M 10708B 10853M 10854M 10854B 10970M 10971M 10971B 11002M 11044M 11068M 11096M 11116M 11156M
             11172M 11248M 11263M 11274M 11289M 11291B 11327  11427M 11527M 11569M 11570M 11570B 11760M 11761M 11761B
             11786M 12536M 12538B 12602  12678M 12736M 12737M 12737B 12818M 12876M 12877M 12877B 12939M 12940M 12940B
             13021M 13022M 13022B 13077M 13078M 13078B 13169M 13270M 13271M 13271B 13335M 13336M 13336B 13475M 13477B
             13496  13527M 13543M 13544M 13544B 13614M 13616B 13641  13664M 13665M 13665B 14002M 14004B 14061  14111M
             14146M 14231M 14232M 14232B 14290M 14382M 14480M 14546M 14856M 14874M 14875M 14875B 14899M 14921M 14922M
             14922B 14946M 15018M 15019M 15019B 15402M 15414M 15426M 15438M 15450M 15462M 15686M 15822M 15857M 15858M
             15858B 15882M 15886M 15887M 15887B 16001M 16002M 16002B 16047M 16079M 16094M 16109M 16114M 16126M 16138M
             16150M 16162M 16174M 16290M 16291M 16291B 16516M 16517M 16517B 16529M 16530M 16530B 16579M 16580M 16580B
             16610M 16611M 16611B 16865M 16877M 16889M 16911M 16912M 16912B 17036M 17037M 17037B 17111M 17112M 17112B
1         (FILEVC) (09:45) (22MAR04) General Purpose Register Cross Reference                                               Page  235
             17158M 17159M 17159B 17175M 17176M 17176B 17287M 17288M 17288B 17308M 17309M 17309B 17336M 17337M 17337B
             17353M 17354M 17354B 17421M 17422M 17422B 17471M 17485M 17500M 17509M 17521M 17533M 17545M 17557M 17569M
             17587M 17628M 17647M 17677M 17692M 17704M 17731M 17747M 17774M 17790M 17815M 17835M 17837B 17902  17931M
             17932M 17932B 18374M 18375M 18375B 18402M 18403M 18403B 18419M 18420M 18420B 18754M 18755M 18755B 18785M
             18786M 18786B 18805M 18806M 18806B 19190M 19191M 19191B 19222M 19223M 19223B 19239M 19240M 19240B 19667M
             19668M 19668B 19695M 19696M 19696B 19712M 19713M 19713B 20030M 20032B 20182M 20183M 20183B 20285M 20286M
             20286B 20341B 20855B 21046B 21497B 21905B 21963  22004M 22005M 22005B 22040M 22216M 22218B 22222M 22223M
             22223B 22292M 22293M 22293B 22329M 22330M 22330B 22384M 22385M 22385B 22426M 22467M 22468M 22468B 22512M
             22513M 22513B 22568M 22569M 22569B 22665M 22687M 22715M 22716M 22716B 22728M 22729M 22729B 22877M 22878M
             22878B 22903M 22920M 22977M 23009M 23010M 23010B 23038M 23089M 23106M 23150M 23151M 23151B 23185M 23215M
             23260M 23261M 23261B 23296M 23321M 23339M 23369M 23374M 23375M 23375B 23390M 23391M 23391B 23401M 23402M
             23402B 23419M 23463M 23475M 23494M 23506M 23536M 23548M 23574M 23603M 23615M 23630M 23642M 23657M 23669M
             23733M 23762M 23774M 23789M 23801M 23816M 23836M 23915M 23959M 23960M 23960B 24013M 24051M 24092M 24093M
             24093B 24137M 24138M 24138B 24193M 24194M 24194B 24290M 24312M 24436M 24437M 24437B 24462M 24496M 24537M
             24538M 24538B 24582M 24583M 24583B 24638M 24639M 24639B 24735M 24757M 24892M 24893M 24893B 24918M 24953M
             25036M 25037M 25037B 25062M 25079M 25153M 25154M 25154B 25179M 25212M 25300M 25301M 25301B 25326M 25360M
             25404M 25405M 25405B 25440M 25469M 25479M 25508M 25509M 25509B 25571M 25572M 25572B 25586M 25617M 25618M
             25618B 25670M 25671M 25671B 25685M 25686M 25686B 25730M 25744M 25745M 25745B 25905M 25906M 25906B 25935M
             25950M 25951M 25951B
    10(A)      959U  3619U
    11(B)      955U
    12(C)      951U
    13(D)      947U  3662   3663   3664M  3664   3744   3745M  3745   4008M  4009   4027   4028M  4028   4203M  4204
              4218   4219M  4219   4266M  4267   4283   4284M  4284   4331M  4332   4350   4351M  4351   4452M  4453
              4467   4468M  4468   4619   4620M  4620   4661M  4662   4723M  4724   4738   4739M  4739   4856M  4857
              4869   4870M  4870   4926M  4927   5087   5088   5089M  5089   5099M  5100   5101   5590   5591M  5591
              5660M  5661   5673   5674M  5674   5838M  5839   6015   6016M  6016   6757M  6758   6849M  6850   6851
              8093   8094M  8096   8097M  8097   8285M  8286   8287M  8380   8381   8382M  8382   8696M  8697   8698
              8735   8736   8737M  8737   9331M  9332   9333   9354   9355   9356M  9356   9655M  9656   9657   9694
              9695   9696M  9696  10149M 10150  10151  10184  10185  10186M 10186  11287M 11288  11289  11326  11327
             11328M 11328  12534M 12535  12536  12601  12602  12603M 12603  12723  12724M 12724  12773M 12774  12863
             12864M 12864  12913M 12914  13008  13009M 13009  13058M 13059  13141  13142M 13142  13173M 13174  13473M
             13474  13475  13496  13497M 13497  13613M 13614  13640  13641  13642M 13642  14000M 14001  14002  14060
             14061  14062M 14062  17833M 17834  17835  17901  17902  17903M 17903  20028M 20029  20030  20069  20070M
             20070  20339M 20340  20374  20375M 20375  20852M 20853  20914  20915M 20915  21043M 21044  21072  21073M
             21073  21494M 21495  21521  21522M 21522  21902M 21903  21962  21963  21964M 21964  22090  22091M 22115
             22116M 22116  22147M 22149  22150M 22214M 22215  22216
    14(E)      943U  3924M  3953M  3954M  3954N  4108M  4109M  4109N  4170M  4372M  4397M  4398M  4398N  4637M  4668M
              4669M  4669N  4800M  4801M  4801N  4823M  4877M  4878M  4878N  4894M  4948M  4948   5005M  5010M  5010
              5092B  5165M  5165   5210M  5250M  5344M  5381M  5461M  5527M  5751M  6524M  6650M  6968M  6995M  7032M
              7088M  7112M  7116M  7322M  7332U  7348M  7355U  7358   7392M  7397M  7407U  7420U  7621M  7628M  7630M
              7633M  7661M  7662M  7662N  7672U  7680M  7687U  7694M  7702M  7797M  7804M  7806M  7809M  7837M  7838M
              7838N  7848U  7856M  7863U  7870M  7878M  8164D  8166M  8166   8167M  8168U  8171M  8173   8233M  8234M
              8234B  8255M  8256M  8256B  8434M  8450M  8457M  8459M  8477M  8506M  8507M  8507N  8517U  8525M  8532U
              8579M  8687M  8818M  8912M  8913M  8913N  8954M  8990M  9035M  9036   9053M  9054   9057D  9059M  9059
              9060M  9061U  9062M  9067   9092   9099M  9140M  9432M  9432   9506M  9506   9610M  9643M  9650M  9732M
              9733   9750M  9751   9754D  9756M  9756   9757M  9758U  9759M  9764M  9764   9765M  9777   9795M  9938M
              9938  10255M 10441M 10442M 10443  10470M 10481M 10488M 10492M 10492  10603M 10604  10665M 10756M 10757M
             10758  10781M 10781  10839M 11370M 11370  11415M 11415  11419  11753M 11885M 11886M 11890M 11967M 12021
             12042M 12042N 12089  12092  12094M 12146  12202  12240M 12288M 12354M 12371M 12439  12506  12629M 12629
             13118  13205  13512M 13694  13971  14122M 14123  14421M 14422M 14423  14424M 14425M 14426  14585M 14586M
             14587  14588M 14589M 14590  14659M 14671  14708  14750  14840M 14841M 14842  14871M 14871  14918M 14918
             15008M 15009  15073M 15090M 15109M 15110N 15331M 15368M 15399  15854M 15854  15987M 15988M 15989  16381M
             16398M 16403M 16406  16407N 16452M 16469M 16474M 16477  16478  16671M 16688M 16756  16823  16931M 16948M
             16953M 16954  16955N 16978M 16995M 17000M 17001N 17040M 17066  17072M 17100M 17101M 17102  17201M 17218M
             17223M 17232M 17232  17242M 17245  17249  17378M 17395M 17400M 17401N 17454M 17455M 17456  17465M 17468M
             17469  17937M 17938  17985  18055M 18056  18075M 18087  18108M 18109  18126M 18127  18133M 18152M 18162M
             18162  18180M 18181  18198M 18215M 18220M 18221M 18234M 18234  18289  18313M 18328M 18328  18455  18461
             18500M 18518M 18530M 18530  18567M 18577M 18577  18619M 18620  18621  18862M 18874  18880  18881M 18897M
1         (FILEVC) (09:45) (22MAR04) General Purpose Register Cross Reference                                               Page  236
             18914M 18929  18936M 19008M 19018M 19018  19089M 19123M 19140M 19145M 19146N 19270  19276  19315M 19333M
             19345M 19345  19516  19750M 19767M 19835  19902  19925M 19953M 19985M 20000  20417M 20417  20456M 20477
             20610M 20663  20719  20748M 20751M 20802M 20833  20836M 20897U 20941M 20948M 20950M 20951  20952  20953
             20955M 20975  21017  21022  21025  21110M 21203M 21213  21230  21254  21431M 21432  21444  21469M 21476M
             21490M 21573M 21578M 21579M 21591  21602M 21602  21609M 21615  21634M 21657  21694  21701M 21723  21741M
             21769  21774  21777  21781M 21782M 21792  21798M 21799  21811  21835M 21845  21851M 21852  21864  21875M
             21898M 21939U 22299M 22300M 22505M 22647M 22648M 22652M 22824M 22824  22872M 22872  24130M 24272M 24273M
             24277M 24345M 24431M 24431  24575M 24717M 24718M 24722M 24809M 24809  24887M 24887  25020M 25031M 25031
             25112M 25148M 25148  25275M 25295M 25295  25454M 25458M 25787M 25797U 25813M 25820U 25823  25857M 25862M
             25872U 25885U
    15(F)      939U  3779M  3779   3871M  3871   4004M  4004   4010M  4010   4071M  4071   4168M  4199M  4199   4205M
              4205   4262M  4262   4268M  4268   4327M  4327   4333M  4333   4448M  4448   4454M  4454   4629M  4631M
              4632M  4633   4719M  4719   4725M  4725   4815M  4816M  4817M  4818   4821M  4852M  4852   4858M  4858
              4892M  4922M  4922   4928M  4928   5185M  5185   5209M  5249M  5343M  5380M  5460M  5526M  5614M  5615M
              5616   5617M  5618M  5619   5665M  5665   5685M  5686M  5687   5750M  5776M  5776   5818M  5819M  5820
              5840M  5841M  5841   5863M  5863   6138M  6138   6187M  6201M  6201   6460M  6461N  6523M  6539M  6540M
              6541M  6542   6591M  6591   6605M  6605   6607M  6649M  6721M  6721   6759M  6759   6776   6800M  6825
              6855M  6855   6967M  6994M  7031M  7055M  7055   7087M  7113M  7115   7116M  7133M  7134M  7134N  7144U
              7228U  7339M  7358M  7359M  7391   7392M  7424D  7426M  7426   7427M  7428U  7429   7432D  7434M  7434
              7435M  7436U  7437   7598M  7599M  7600   7626M  7628M  7631M  7632   7633M  7655M  7655   7677M  7679M
              7691   7693   7694M  7706M  7706   7802M  7804M  7807M  7808   7809M  7831M  7831   7853M  7855M  7867
              7869   7870M  7882M  7882   7930M  7930   7955M  7972M  8230M  8252M  8283M  8283   8299M  8316M  8433M
              8455M  8457M  8475M  8476   8477M  8499M  8499   8522M  8524M  8559   8578   8579M  8685M  8687M  8702M
              8702   8763M  8763   8780M  8780   8801M  8802M  8812U  8825U  8953M  8954M  8989M  9034M  9036M  9052M
              9054M  9080   9098M  9123M  9124M  9134U  9147U  9221M  9221   9241M  9241   9299M  9299   9327M  9327
              9334M  9334   9488M  9609M  9648M  9650M  9661M  9661   9731M  9733M  9749M  9751M  9777   9794M  9933M
              9934M  9934N 10058M 10058  10078M 10078  10118M 10118  10145M 10145  10152M 10152  10254M 10329M 10329
             10468M 10469  10480  10481M 10487M 10649M 10650M 10650N 10660U 10673U 10738M 10739M 10739N 10749U 10815U
             10822M 10823M 10833U 10846U 10960M 11000M 11066M 11066  11094M 11094  11114M 11114  11154M 11154  11246M
             11246  11283M 11283  11290M 11290  11418  11525M 11559M 11729M 11746M 11863M 11880M 11886  11888  11889M
             11890M 12027M 12037U 12058M 12064M 12071U 12091  12093M 12094M 12145  12168M 12169  12202  12258M 12275M
             12283  12285  12287M 12288M 12530M 12530  12537M 12537  12643M 12643  12672  12676M 12676  12759  12765M
             12783M 12783  12816M 12816  12899  12905M 12923M 12923  13044  13050M 13068M 13068  13167M 13167  13358
             13364M 13386M 13396U 13409U 13469M 13469  13476M 13476  13511M 13525M 13525  13609M 13609  13615M 13615
             13677M 13996M 13996  14003M 14003  14288M 14342M 14343M 14353U 14366U 14380M 14478M 14544M 14677M 14678M
             14680M 14681  14716M 14717M 14719M 14721  14854M 15014M 15015M 15046M 15190M 15424M 15424  15436M 15436
             15448M 15448  15935M 15936M 15946U 15952M 15959U 15970U 15976M 15983U 15997M 15998M 16077M 16092M 16107M
             16124M 16124  16136M 16136  16148M 16148  16160M 16160  16404M 16405  16407M 16417U 16423M 16430U 16475M
             16476  16478M 16488U 16494M 16501U 16512M 16513M 16525M 16526M 16569M 16600M 16863M 16863  16875M 16875
             16887M 16887  16956M 17003M 17032M 17033M 17107M 17108M 17171M 17172M 17304M 17305M 17332M 17333M 17349M
             17350M 17402M 17411M 17483M 17498M 17519M 17519  17531M 17531  17543M 17543  17555M 17555  17626M 17645M
             17675M 17702M 17702  17729M 17729  17745M 17745  17772M 17772  17799M 17800M 17801  17813M 17813  17829M
             17829  17836M 17836  18109M 18110M 18127M 18128M 18145  18151M 18179M 18181M 18221  18240M 18241M 18251U
             18257M 18264U 18266M 18301  18351M 18355M 18370M 18371M 18398M 18399M 18415M 18416M 18461M 18478M 18495M
             18511  18517M 18560  18566M 18618M 18620M 18622  18735M 18738M 18750M 18751M 18781M 18782M 18801M 18802M
             18880M 18898M 18915M 18929  18936  18941M 18942M 18952U 18958M 18965U 18978  19005M 19033  19060M 19148M
             19158U 19164M 19171U 19174M 19186M 19187M 19218M 19219M 19235M 19236M 19276M 19293M 19310M 19326  19332M
             19438  19647M 19651M 19663M 19664M 19691M 19692M 19708M 19709M 20024M 20024  20031M 20031  20571U 20588U
             20593M 20605U 20624M 20630M 20637U 20662  20685M 20686  20719  20749M 20750  20751M 20786M 20787M 20797U
             20816M 20822M 20829U 20833M 20834  20836M 20848M 20848  20854M 20854  20946M 20948M 21031M 21031  21045M
             21045  21109M 21132M 21132  21173M 21182M 21182  21230  21242  21254M 21277  21299M 21340M 21366M 21372M
             21382  21404  21410M 21411  21413  21459M 21460M 21461  21474M 21476M 21487M 21487  21496M 21496  21578
             21591  21616M 21617M 21627  21822M 21823M 21824  21833M 21834M 21845  21875  21876M 21877M 21878  21895M
             21895  21904M 21904  21909M 21913M 21917M 22211M 22211  22217M 22217  22296M 22297  22300M 22304D 22306M
             22306  22307M 22308U 22320  22345N 22424M 22424  22509M 22625M 22642M 22648  22650  22651M 22652M 22663M
             22663  22685M 22685  22751  22757M 22794M 22804U 22817U 22820M 22901M 22901  22918M 22918  22975M 22975
             23036M 23036  23087M 23087  23104M 23104  23140M 23183M 23183  23213M 23213  23250M 23294M 23294  23319M
             23337M 23367M 23417M 23417  23461M 23473M 23473  23492M 23504M 23504  23534M 23546M 23546  23572M 23572
             23601M 23613M 23613  23628M 23640M 23640  23655M 23667M 23667  23690M 23700U 23712U 23731M 23731  23760M
1         (FILEVC) (09:45) (22MAR04) General Purpose Register Cross Reference                                               Page  237
             23772M 23772  23787M 23799M 23799  23814M 23814  23834M 23834  23856M 23866U 23878U 23913M 23913  23949M
             24011M 24011  24049M 24049  24134M 24250M 24267M 24273  24275  24276M 24277M 24288M 24288  24310M 24310
             24328M 24329M 24329N 24339U 24352U 24460M 24460  24494M 24494  24579M 24695M 24712M 24718  24720  24721M
             24722M 24733M 24733  24755M 24755  24773M 24774M 24774N 24784U 24802U 24804M 24805M 24805N 24916M 24916
             24951M 24951  25004M 25014U 25027U 25060M 25060  25077M 25077  25095M 25096M 25096N 25106U 25119U 25177M
             25177  25210M 25210  25228M 25229M 25229N 25239U 25256U 25258M 25259M 25259N 25269U 25282U 25324M 25324
             25358M 25358  25394M 25438M 25438  25455M 25457  25458M 25483D 25485M 25485  25486M 25487U 25499  25515N
             25592D 25594M 25594  25595M 25596U 25608  25624N 25804M 25823M 25824M 25856  25857M 25889D 25891M 25891
             25892M 25893U 25894  25897D 25899M 25899  25900M 25901U 25902  25943M 25943

1FILEVCAT (FILEVC) (09:45) (22MAR04) Diagnostic Cross Reference and Assembler Summary                                       Page  238
-                                                                                            HLASM R4.0  2004/03/22 09.45
0     No Statements Flagged in this Assembly
 HIGH LEVEL ASSEMBLER, 5696-234, RELEASE 4.0, PTF UQ57391
0SYSTEM: OS/390 02.10.00            JOBNAME: PJG#VCAT    STEPNAME: ASM        PROCSTEP: (NOPROC)
0Datasets Allocated for this Assembly
  Con DDname   Dataset Name                                 Volume  Member
   P1 SYSIN    SYS04082.T094553.RA000.PJG#VCAT.INPUT.H01    SCR100
   L1 SYSLIB   SYS3.DUMMYMAC                                SYSB02
   L2          WYL.GG.SYS.MACLIB                            SYSB05
   L3          WYL.GG.ORV.MACLIB.VCATBAT                    SYSB02
   L4          WYL.GG.ORV.MACLIB                            SYSB02
   L5          WYL.GG.ORV.BC.MACLIB                         SYSB02
   L6          SYS3.IS.MACLIB                               SYSB05
      SYSLIN   WYL.GG.PJG.OBJ                               SYSB05  VCAT
      SYSPRINT SYS04082.T094553.RA000.PJG#VCAT.PRINT.H01    SCR100
      SYSTERM  GG$PJG.PJG#VCAT.JOB05971.D0000103.?

    7812K allocated to Buffer Pool,         3265K would be required for this to be an In-Storage Assembly
    5214 Primary Input Records Read         4077 Library Records Read                  0 Work File Reads
       0 ASMAOPT Records Read              16837 Primary Print Records Written         0 Work File Writes
     508 Punch Records Written                 0 ADATA Records Written
0Assembly Start Time: 09.45.56 Stop Time: 09.46.06 Processor Time: 00.00.04.9799
 Return Code 000
