1                        J E S 2  J O B  L O G  --  S Y S T E M  S Y S B  --  N O D E  R L G
0
 09.45.24 JOB05969 ---- MONDAY,    22 MAR 2004 ----
 09.45.24 JOB05969  ICH70001I GG$PJG   LAST ACCESS AT 09:45:21 ON MONDAY, MARCH 22, 2004
 09.45.24 JOB05969  $HASP373 PJG#VAMT STARTED - INIT 2    - CLASS E - SYS SYSB
 09.45.24 JOB05969  ***  HCMD      STEP $$QUIET
 09.45.24 JOB05969  PURGE * Q=OUTPUT MULTIPLE
 09.45.24 JOB05969  JOB PJG#VAMT NOT IN OUTPUT QUEUE
 09.45.25 JOB05969  PJG#VAMT.$$QUIET .         RC=0008 TapeIO=0000 DiskIO=0000 CPU=  .01s Elapsed=24.26s
 09.45.25 JOB05969  PJG#VAMT.$CND    .         RC=Zero TapeIO=0000 DiskIO=0002 CPU=  .01s Elapsed=25.30s
 09.45.25 JOB05969  PJG#VAMT.$UNP    .         RC=Zero TapeIO=0000 DiskIO=0034 CPU=  .06s Elapsed=25.41s
 09.45.30 JOB05969  PJG#VAMT.ASM     .         RC=Zero TapeIO=0000 DiskIO=0598 CPU= 2.55s Elapsed=25.66s
 09.45.31 JOB05969  PJG#VAMT.$EDIT   .         RC=Zero TapeIO=0000 DiskIO=0150 CPU=  .62s Elapsed=30.15s
 09.45.31 JOB05969  PJG#VAMT Ended.  Name=Module: VAMT                   Total CPU= 3.25s Elapsed=24.26s
 09.45.31 JOB05969
 09.45.31 JOB05969  Execution charges   Priority=Standard   Block=Day
 09.45.31 JOB05969
 09.45.31 JOB05969  CPU Usage          59.25          $36.73   Standard Processing Unit Equivalent
 09.45.31 JOB05969                                   =======
 09.45.31 JOB05969                                    $36.73   Total Job execution charge
 09.45.31 JOB05969
 09.45.31 JOB05969  See back separator page for print charges
 09.45.31 JOB05969
 09.45.31 JOB05969  $HASP395 PJG#VAMT ENDED  ASM=0
1        1 //PJG#VAMT JOB PJG$GG,'Module: VAMT',TIME=1,MSGCLASS=C                  JOB05969
           /*JOBPARM HOLD=OUTPUT,LINES=50,CHARS=TN15,NOTIFY=YES
         2 //       EXEC PURGEOLD
         3 XXPURGEOLD PROC
           XX*
           XX* This proc is maintained by Jim Stosick
           XX*
         4 XX$$QUIET  EXEC PGM=HCMDX,PARM='PURGE * Q=OUTPUT MULTIPLE',
           XX         ACCT=(PURGEOLD,SYS3)
         5 //$CND   EXEC PGM=BILBO,REGION=512K,PARM='RECS=100'
         6 //STEPLIB  DD DSN=WYL.GG.ORV.LINKLIB,DISP=SHR
         7 //SYSPRINT DD SYSOUT=$
         8 //SYSUT1   DD DSN=WYL.GG.PJG.OBJ,DISP=OLD
         9 //SYSUT2   DD DSN=WYL.GG.PJG.OBJ,DISP=OLD
        10 //SYSIN    DD DUMMY
        11 //$UNP   EXEC PGM=WUNPRESS,PARM='NUM'
        12 //SYSPRINT DD SYSOUT=$
        13 //SYSUT1   DD DSN=WYL.GG.ORV.SOURCE.FILEUTIL(VAMT),DISP=SHR
        14 //SYSUT2   DD DSN=&&INPUT,DISP=(,PASS),UNIT=SYSDA,
           //            SPACE=(TRK,(25,25),RLSE),DCB=CARD
        15 //ASM    EXEC PGM=ASMA90,REGION=8M,COND=(0,NE,$UNP),
           //            PARM=('SYSPARM(VAMT),TERM,LANG(EN),OBJ',
           //          'LC(32500),XREF(SHORT),NODECK,NORLD,NODX,NOUS')
           //*STEPLIB  DD DSN=SYS1.SASMMOD1,DISP=SHR
        16 //SYSLIB   DD DSN=SYS3.DUMMYMAC,DISP=SHR,DCB=BLKSIZE=27920
        17 //         DD DSN=WYL.GG.SYS.MACLIB,DISP=SHR
        18 //         DD DSN=WYL.GG.ORV.BC.MACLIB,DISP=SHR
        19 //         DD DSN=SYS3.IS.MACLIB,DISP=SHR
        20 //         DD DSN=SYS3.MACLIB,DISP=SHR
        21 //         DD DSN=SYS1.MACLIB,DISP=SHR
        22 //SYSUT1   DD DSN=&&SYSUT1,UNIT=VIO,DISP=(,DELETE),
           //            SPACE=(4088,(500,250),,CONTIG,ROUND)
        23 //SYSTERM  DD SYSOUT=$
        24 //SYSPRINT DD DSN=&&PRINT,UNIT=SYSDA,DISP=(,PASS),
           //            SPACE=(6650,(250,250),RLSE),
           //            DCB=(BLKSIZE=6650,LRECL=133,RECFM=FB)
        25 //SYSLIN   DD DSN=WYL.GG.PJG.OBJ(VAMT),DISP=OLD
        26 //SYSUDUMP DD SYSOUT=A
        27 //SYSIN    DD DSN=&&INPUT,DISP=(OLD,DELETE)
        28 //$EDIT  EXEC PGM=ASMEDIT,REGION=1M,
           //            COND=EVEN,PARM='STMT,DATA'
        29 //STEPLIB  DD DSN=WYL.GG.SYS.LINKLIB,DISP=SHR
        30 //ASMOUT   DD DSN=&&PRINT,DISP=(OLD,DELETE)
        31 //SYSPRINT DD SYSOUT=A
        32 //SYSUDUMP DD SYSOUT=A
1 STMT NO. MESSAGE
         2 IEFC001I PROCEDURE PURGEOLD WAS EXPANDED USING SYSTEM LIBRARY SYS3.BETAPROC
        14 IGD01010I STORCLAS= TEMP STORGROUP =
        14 IGD01010I STORGRP=VIO ASSIGNED.
        22 IGD01010I STORCLAS= TEMP STORGROUP =
        22 IGD01010I STORGRP=VIO ASSIGNED.
        24 IGD01010I STORCLAS= TEMP STORGROUP =
        24 IGD01010I STORGRP=VIO ASSIGNED.
 ICH70001I GG$PJG   LAST ACCESS AT 09:45:21 ON MONDAY, MARCH 22, 2004
 IEF142I PJG#VAMT $$QUIET - STEP WAS EXECUTED - COND CODE 0008
 *********************************************************************************
 *   PJG#VAMT/$$QUIET /                    Return Code      0008                 *
 *   Region used      260K (16K user + 244K system)                              *
 *   Extended region  9352K (4K user + 9348K system)                             *
 *                                                                               *
 *   Paging              In      Out                                             *
 *   Private <-> Aux      0        0       CPU time (TCB)   00:00:00.01          *
 *   Private <-> Exp      0        0       CPU time (SRB)   00:00:00.00          *
 *   VIO                  0        0       Elapsed time    920:42:28.70          *
 *   Common               0      ---                                             *
 *                                                                               *
 *                                                                               *
 *   CPU Usage          0.18         $0.11  Standard Processing Unit Equivalent  *
 *                                   $0.11  Total Step execution charge          *
 *                                                                               *
 *    I/O count  DDname   Type Addr           I/O count  DDname   Type Addr      *
 *                         *** No I/O for this step ***                          *
 *********************************************************************************
 IEF373I STEP/$$QUIET /START 2004082.0945
 IEF374I STEP/$$QUIET /STOP  2004082.0945 CPU    0MIN 00.01SEC SRB    0MIN 00.00SEC VIRT    16K SYS   244K EXT       4K SYS    9348K
 IEF236I ALLOC. FOR PJG#VAMT $CND
 IEF237I 0401 ALLOCATED TO STEPLIB
 IEF237I JES2 ALLOCATED TO SYSPRINT
 IEF237I 04DC ALLOCATED TO SYSUT1
 IEF237I 04DC ALLOCATED TO SYSUT2
 IEF237I DMY  ALLOCATED TO SYSIN
 IEF142I PJG#VAMT $CND - STEP WAS EXECUTED - COND CODE 0000
 IEF285I   WYL.GG.ORV.LINKLIB                           KEPT
 IEF285I   VOL SER NOS= SYSB01.
 IEF285I   GG$PJG.PJG#VAMT.JOB05969.D0000101.?          SYSOUT
 IEF285I   WYL.GG.PJG.OBJ                               KEPT
 IEF285I   VOL SER NOS= SYSB05.
 IEF285I   WYL.GG.PJG.OBJ                               KEPT
 IEF285I   VOL SER NOS= SYSB05.
 *********************************************************************************
 *   PJG#VAMT/$CND    /                    Return Code      Zero                 *
 *   Region used      280K (16K user + 264K system)                              *
 *   Extended region  9392K (4K user + 9388K system)                             *
 *                                                                               *
 *   Paging              In      Out                                             *
 *   Private <-> Aux      0        0       CPU time (TCB)   00:00:00.01          *
 *   Private <-> Exp      0        0       CPU time (SRB)   00:00:00.00          *
 *   VIO                  0        0       Elapsed time    920:42:27.66          *
 *   Common               0      ---                                             *
 *                                                                               *
 *                                                                               *
 *   CPU Usage          0.18         $0.11  Standard Processing Unit Equivalent  *
 *                                   $0.11  Total Step execution charge          *
 *                                                                               *
 *    I/O count  DDname   Type Addr           I/O count  DDname   Type Addr      *
 *            2  STEPLIB  Disk 0401                   0  SYSPRINT      ----      *
 *            0  SYSUT1   Disk 04DC                   0  SYSUT2   Disk 04DC      *
 *            0  SYSIN         ----                                              *
 *********************************************************************************
 IEF373I STEP/$CND    /START 2004082.0945
 IEF374I STEP/$CND    /STOP  2004082.0945 CPU    0MIN 00.01SEC SRB    0MIN 00.00SEC VIRT    16K SYS   264K EXT       4K SYS    9388K
 IEF236I ALLOC. FOR PJG#VAMT $UNP
 IEF237I JES2 ALLOCATED TO SYSPRINT
 IEF237I 0402 ALLOCATED TO SYSUT1
 IGD101I SMS ALLOCATED TO DDNAME (SYSUT2  )
         DSN (SYS04082.T094524.RA000.PJG#VAMT.INPUT.H01   )
         STORCLAS (TEMP) MGMTCLAS (        ) DATACLAS (        )
         VOL SER NOS= SCR101
 IEF142I PJG#VAMT $UNP - STEP WAS EXECUTED - COND CODE 0000
 IEF285I   GG$PJG.PJG#VAMT.JOB05969.D0000102.?          SYSOUT
 IEF285I   WYL.GG.ORV.SOURCE.FILEUTIL                   KEPT
 IEF285I   VOL SER NOS= SYSB02.
 IGD106I SYS04082.T094524.RA000.PJG#VAMT.INPUT.H01    PASSED,    DDNAME=SYSUT2
 *********************************************************************************
 *   PJG#VAMT/$UNP    /                    Return Code      Zero                 *
 *   Region used      388K (108K user + 280K system)                             *
 *   Extended region  9468K (4K user + 9464K system)                             *
 *                                                                               *
 *   Paging              In      Out                                             *
 *   Private <-> Aux      0        0       CPU time (TCB)   00:00:00.06          *
 *   Private <-> Exp      0        0       CPU time (SRB)   00:00:00.00          *
 *   VIO                  0        0       Elapsed time    920:42:27.55          *
 *   Common               0      ---                                             *
 *                                                                               *
 *                                                                               *
 *   CPU Usage          1.12         $0.69  Standard Processing Unit Equivalent  *
 *                                   $0.69  Total Step execution charge          *
 *                                                                               *
 *    I/O count  DDname   Type Addr           I/O count  DDname   Type Addr      *
 *            0  SYSPRINT      ----                   4  SYSUT1   Disk 0402      *
 *           30  SYSUT2   Disk 04E3                                              *
 *********************************************************************************
 IEF373I STEP/$UNP    /START 2004082.0945
 IEF374I STEP/$UNP    /STOP  2004082.0945 CPU    0MIN 00.06SEC SRB    0MIN 00.00SEC VIRT   108K SYS   280K EXT       4K SYS    9464K
 IEF236I ALLOC. FOR PJG#VAMT ASM
 IEF237I 0402 ALLOCATED TO SYSLIB
 IEF237I 04DC ALLOCATED TO
 IEF237I 0402 ALLOCATED TO
 IEF237I 04DC ALLOCATED TO
 IEF237I 0402 ALLOCATED TO
 IEF237I 04A0 ALLOCATED TO
 IGD101I SMS ALLOCATED TO DDNAME (SYSUT1  )
         DSN (SYS04082.T094524.RA000.PJG#VAMT.SYSUT1.H01  )
         STORCLAS (TEMP) MGMTCLAS (        ) DATACLAS (        )
         VOL SER NOS= VIO
 IEF237I JES2 ALLOCATED TO SYSTERM
 IGD101I SMS ALLOCATED TO DDNAME (SYSPRINT)
         DSN (SYS04082.T094524.RA000.PJG#VAMT.PRINT.H01   )
         STORCLAS (TEMP) MGMTCLAS (        ) DATACLAS (        )
         VOL SER NOS= SCR101
 IEF237I 04DC ALLOCATED TO SYSLIN
 IEF237I JES2 ALLOCATED TO SYSUDUMP
 IGD103I SMS ALLOCATED TO DDNAME SYSIN
 IEF142I PJG#VAMT ASM - STEP WAS EXECUTED - COND CODE 0000
 IEF285I   SYS3.DUMMYMAC                                KEPT
 IEF285I   VOL SER NOS= SYSB02.
 IEF285I   WYL.GG.SYS.MACLIB                            KEPT
 IEF285I   VOL SER NOS= SYSB05.
 IEF285I   WYL.GG.ORV.BC.MACLIB                         KEPT
 IEF285I   VOL SER NOS= SYSB02.
 IEF285I   SYS3.IS.MACLIB                               KEPT
 IEF285I   VOL SER NOS= SYSB05.
 IEF285I   SYS3.MACLIB                                  KEPT
 IEF285I   VOL SER NOS= SYSB02.
 IEF285I   SYS1.MACLIB                                  KEPT
 IEF285I   VOL SER NOS= MVSBR9.
 IGD105I SYS04082.T094524.RA000.PJG#VAMT.SYSUT1.H01   DELETED,   DDNAME=SYSUT1
 IEF285I   GG$PJG.PJG#VAMT.JOB05969.D0000103.?          SYSOUT
 IGD106I SYS04082.T094524.RA000.PJG#VAMT.PRINT.H01    PASSED,    DDNAME=SYSPRINT
 IEF285I   WYL.GG.PJG.OBJ                               KEPT
 IEF285I   VOL SER NOS= SYSB05.
 IEF285I   GG$PJG.PJG#VAMT.JOB05969.D0000104.?          SYSOUT
 IGD105I SYS04082.T094524.RA000.PJG#VAMT.INPUT.H01    DELETED,   DDNAME=SYSIN
 *********************************************************************************
 *   PJG#VAMT/ASM     /                    Return Code      Zero                 *
 *   Region used      8484K (8192K user + 292K system)                           *
 *   Extended region  9952K (412K user + 9540K system)                           *
 *                                                                               *
 *   Paging              In      Out                                             *
 *   Private <-> Aux      0        0       CPU time (TCB)   00:00:02.48          *
 *   Private <-> Exp      0        0       CPU time (SRB)   00:00:00.07          *
 *   VIO                  0        0       Elapsed time    920:42:27.30          *
 *   Common               0      ---                                             *
 *                                                                               *
 *                                                                               *
 *   CPU Usage         46.50        $28.83  Standard Processing Unit Equivalent  *
 *                                  $28.83  Total Step execution charge          *
 *                                                                               *
 *    I/O count  DDname   Type Addr           I/O count  DDname   Type Addr      *
 *           62  SYSLIB   Disk 0402                 147  SYSLIB   Disk 04DC      *
 *            0  SYSLIB   Disk 0402                   0  SYSLIB   Disk 04DC      *
 *            0  SYSLIB   Disk 0402                 205  SYSLIB   Disk 04A0      *
 *            0  SYSUT1   VIO  ----                   0  SYSTERM       ----      *
 *          147  SYSPRINT Disk 04E3                   6  SYSLIN   Disk 04DC      *
 *            0  SYSUDUMP      ----                  31  SYSIN    Disk 04E3      *
 *********************************************************************************
 IEF373I STEP/ASM     /START 2004082.0945
 IEF374I STEP/ASM     /STOP  2004082.0945 CPU    0MIN 02.48SEC SRB    0MIN 00.07SEC VIRT  8192K SYS   292K EXT     412K SYS    9540K
 IEF236I ALLOC. FOR PJG#VAMT $EDIT
 IEF237I 0402 ALLOCATED TO STEPLIB
 IGD103I SMS ALLOCATED TO DDNAME ASMOUT
 IEF237I JES2 ALLOCATED TO SYSPRINT
 IEF237I JES2 ALLOCATED TO SYSUDUMP
 IEF142I PJG#VAMT $EDIT - STEP WAS EXECUTED - COND CODE 0000
 IEF285I   WYL.GG.SYS.LINKLIB                           KEPT
 IEF285I   VOL SER NOS= SYSB02.
 IGD105I SYS04082.T094524.RA000.PJG#VAMT.PRINT.H01    DELETED,   DDNAME=ASMOUT
 IEF285I   GG$PJG.PJG#VAMT.JOB05969.D0000105.?          SYSOUT
 IEF285I   GG$PJG.PJG#VAMT.JOB05969.D0000106.?          SYSOUT
 *********************************************************************************
 *   PJG#VAMT/$EDIT   /                    Return Code      Zero                 *
 *   Region used      388K (116K user + 272K system)                             *
 *   Extended region  9472K (4K user + 9468K system)                             *
 *                                                                               *
 *   Paging              In      Out                                             *
 *   Private <-> Aux      0        0       CPU time (TCB)   00:00:00.60          *
 *   Private <-> Exp      0        0       CPU time (SRB)   00:00:00.02          *
 *   VIO                  0        0       Elapsed time    920:42:22.81          *
 *   Common               0      ---                                             *
 *                                                                               *
 *                                                                               *
 *   CPU Usage         11.25         $6.97  Standard Processing Unit Equivalent  *
 *                                   $6.97  Total Step execution charge          *
 *                                                                               *
 *    I/O count  DDname   Type Addr           I/O count  DDname   Type Addr      *
 *            2  STEPLIB  Disk 0402                 148  ASMOUT   Disk 04E3      *
 *            0  SYSPRINT      ----                   0  SYSUDUMP      ----      *
 *********************************************************************************
 IEF373I STEP/$EDIT   /START 2004082.0945
 IEF374I STEP/$EDIT   /STOP  2004082.0945 CPU    0MIN 00.60SEC SRB    0MIN 00.02SEC VIRT   116K SYS   272K EXT       4K SYS    9468K
 *********************************************************************************
 *                                                                               *
 *                      S t a n f o r d   U n i v e r s i t y                    *
 *                                                                               *
 *                              *** Job Summary ***                              *
 *                                                                               *
 *   System Id      SYSB                   Input time     09:38:30  Mar 22, 2004 *
 *                                                                               *
 *   System Release SP6.1.0                Start time     09:45:24  Mar 22, 2004 *
 *                                                                               *
 *   Job name       PJG#VAMT               Stop  time     00:00:00  Mar 22, 2004 *
 *                                                                               *
 *   Account        PJG$GG                 Elapsed time  920:42:28.70            *
 *                                                                               *
 *   User Name      Module: VAMT           CPU time       00:00:03.16            *
 *                                                                               *
 *   Job class      E                      SRB Time       00:00:00.09            *
 *                                                                               *
 *********************************************************************************
 IEF375I  JOB/PJG#VAMT/START 2004082.0945
 IEF376I  JOB/PJG#VAMT/STOP  2004082.0945 CPU    0MIN 03.16SEC SRB    0MIN 00.09SEC
1Data set successfully converted from EDIT to FB format
1Assembler Done VAMT No Statements Flagged
1         High Level Assembler Option Summary                   (PTF UQ57391)                                               Page    1
-                                                                                            HLASM R4.0  2004/03/22 09.45
0  No Overriding ASMAOPT Parameters
   Overriding Parameters-  SYSPARM(VAMT),TERM,LANG(EN),OBJ,LC(32500),XREF(SHORT),NODECK,NORLD,NODX,NOUS
   No Process Statements


   Options for this Assembly
0  NOADATA
     ALIGN
   NOASA
     BATCH
     CODEPAGE(047C)
   NOCOMPAT
   NODBCS
 3 NODECK
 3 NODXREF
     ESD
   NOEXIT
     FLAG(0,ALIGN,CONT,NOIMPLEN,NOPAGE0,PUSH,RECORD,NOSUBSTR,USING0)
   NOFOLD
   NOGOFF
   NOINFO
 3   LANGUAGE(EN)
   NOLIBMAC
 3   LINECOUNT(32500)
     LIST(121)
     MXREF(SOURCE)
 3   OBJECT
     OPTABLE(UNI,NOLIST)
   NOPCONTROL
   NOPESTOP
   NOPROFILE
   NORA2
   NORENT
 3 NORLD
     RXREF
     SIZE(MAX)
 3   SYSPARM(VAMT)
 3   TERM(WIDE)
   NOTEST
     THREAD
   NOTRANSLATE
 3 NOUSING
 3   XREF(SHORT)

   No Overriding DD Names

1VAMT     External Symbol Dictionary                                                                                        Page    2
-Symbol   Type   Id     Address  Length     LD ID  Flags Alias-of                            HLASM R4.0  2004/03/22 09.45
0VAMT      SD 00000001 00000000 00002638             00
 VAMT02    LD          00000000           00000001
 VSEG      ER 00000002
 VWRITE    ER 00000003
 TRACE     ER 00000004
 M1BTD     ER 00000005
 VAMTASK   LD          00000E66           00000001
 M1BTX     ER 00000006
 TRACE     LD          00001798           00000001
 VSEG      LD          000024B4           00000001
 VWRITE    LD          00002504           00000001

1VAMT     VAM/370 - ORVYL File System Batch Interface                                                                       Page    3
0Loc    Object Code    Addr1 Addr2  Stmt Lv Lineno    Source Statement                    (Asmedit 3.3)  HLASM R4.0  2004/03/22 09.45
+___    ______ ____    _____ _____  ____ __ ______    ______ _________
0                                      2       2.     *******************************************************************
                                       3       3.     *                                                                 *
                                       4       4.     *     ORVYL/370 - Release IV - Class I - Stanford Proprietary     *
                                       5       5.     *                                                                 *
                                       6       6.     *******************************************************************
                                       7       7.              ¿þþþþþþþþþþþþþþþþþþþþþþþþþþþþþþþþþþþþþþþþþþþþþþþþþþþþþþþþþþþÜ
                                       8       8.              Ÿ  Be carfeul to ONLY use the conversion routines that use  Ÿ
                                       9       9.              Ÿ    the OLD (M1) Orvyl linkage conventions.                Ÿ
                                      10      10.              Ÿ                                             10/91, Niz    Ÿ
                                      11      11.              ¾þþþþþþþþþþþþþþþþþþþþþþþþþþþþþþþþþþþþþþþþþþþþþþþþþþþþþþþþþþþ»
                                      12      12.              MACRO
                                      13      13.     &L       BTD   &LOC,&LEN,&WORD,&SW,&COMMAS=NO
                                      14      14.              LCLC  &CM
                                      15      15.              AIF   ('&COMMAS' NE 'YES').NOCM
                                      16      16.     &CM      SETC  'C'
                                      17      17.     .NOCM    ANOP
                                      18      18.     &L       SYSLR 15,&WORD,OP=L
                                      19      19.              SYSLR 0,&LEN,TYPE=&SW
                                      20      20.              SYSLR 1,&LOC
                                      21      21.              XCALL  M1BTD&CM
                                      22      22.              MEND
                                      23      23.
                                      24      24.              MACRO
                                      25      25.     &L       BTX   &LOC,&LEN,&WORD
                                      26      26.     &L       SYSLR 15,&WORD,OP=L
                                      27      27.              SYSLR 0,&LEN
                                      28      28.              SYSLR 1,&LOC
                                      29      29.              XCALL M1BTX
                                      30      30.              MEND
                                      31      31.     þþþþ
                                      32      32.              HIBAL ,
-                                   1014      34.              SPLEVEL SET=1
-                                   1018      36.
 000000                00000 02638  1019      37.     VAMT     CSECT
                                    1023      38.              IDENT 02
                                    1026             +
                                    1027    01-IDENT +         ENTRY VAMT02
                                    1028             +
 000000 14E5C1D4E3F0F26B            1029    01-IDENT +VAMT02   DC    AL1(20),C'VAMT02,22MAR04,09:45'
                                    1030             +*
-                                   1033      40.              COPY  ORVDEFN
                                    1034             =         SYSDEFN  ,
                                    1035             =         GBLB  &PROTECT
                                    1036             =         GBLC  &MODULE
                                    1037      41.     &MODULE  SETC  'VAMT'
-
                                    1039      43.   C          REGS  ,,SR,TR,QR,RR,(PR,BRR),BR,WAR,RAR,CTR,
                                              44.                    (VPR,VDTR),(VCHR,RQR)
1VAMT     (VAMT02) (09:45) (22MAR04) VAM/370 - ORVYL File System Batch Interface                                            Page    4
0Current Usings:  (VDT,R11)
0Loc    Object Code    Addr1 Addr2  Stmt Lv Lineno    Source Statement           (Hibal 5, Asmedit 3.3)  HLASM R4.0  2004/03/22 09.45
+___    ______ ____    _____ _____  ____ __ ______    ______ _________
0USING  VDT,R11                     1226      46.              USING VDT,VDTR                ##
 USING  CT,R10                      1235      47.              USING CT,CTR                  ##
1VAMT     (VAMT02) (09:45) (22MAR04) VAM/370 - ORVYL File System Batch Interface                                            Page    5
0Current Usings:  (CT,R10) (VDT,R11)
0Loc    Object Code    Addr1 Addr2  Stmt Lv Lineno    Source Statement           (Hibal 5, Asmedit 3.3)  HLASM R4.0  2004/03/22 09.45
+___    ______ ____    _____ _____  ____ __ ______    ______ _________
0                                   1245      49.              MACRO
                                    1246      50.     &L       PRYNT &L1,&L2,&L3
                                    1247      51.              AIF   ('&L1' NE 'PAGE').NOPAGE
                                    1248      52.     &L       MVI   PRYNBUF+4,C'1' .          PAGE EJECT
                                    1249      53.              PRYNT &L2,&L3
                                    1250      54.              MEXIT
                                    1251      55.     .NOPAGE  AIF   ('&L1' NE 'SKIP').NOSKIP
                                    1252      56.     &L       MVI   PRYNBUF+4,C'0' .          SKIP LINE
                                    1253      57.              PRYNT &L2,&L3
                                    1254      58.              MEXIT
                                    1255      59.     .NOSKIP  ANOP
                                    1256      60.              AIF   ('&L1' EQ '').NOSEG
                                    1257      61.     &L       VWRITE &L1,&L2
                                    1258      62.              MEXIT
                                    1259      63.     .NOSEG   ANOP
                                    1260      64.     &L       VWRITE
                                    1261      65.              MEND
-
                                    1263      67.              MACRO
                                    1264      68.     &L       VAMTRACE &P1,&P2,&P3,&P4,&P5,&P6,&TYPE=,&SAVE=,&CODE=SVC
                                    1265      69.              LCLA  &C
                                    1266      70.              AIF   ('&CODE' EQ 'TRACE').TRACE
                                    1267      71.     &C       SETA  X'20'
                                    1268      72.              AIF   ('&CODE' EQ 'SVC').DOTRACE
                                    1269      73.              MNOTE 8,'"&CODE" :INVALID TRACE CODE'
                                    1270      74.              MEXIT
                                    1271      75.     .DOTRACE ANOP
                                    1272      76.     &L       MVI   CTTRTYP,&C              SET TRACE CODE
                                    1273      77.              VTRACE &P1,&P2,&P3,&P4,&P5,&P6,TYPE=&TYPE,SAVE=&SAVE
                                    1274      78.              MEXIT
                                    1275      79.     .TRACE   ANOP
                                    1276      80.     &L       VTRACE &P1,&P2,&P3,&P4,&P5,&P6,TYPE=&TYPE,SAVE=&SAVE
                                    1277      81.              MEND
1VAMT     (VAMT02) (09:45) (22MAR04) VAM/370 - ORVYL File System Batch Interface                                            Page    6
0Current Usings:  (CT,R10) (VDT,R11)
0Loc    Object Code    Addr1 Addr2  Stmt Lv Lineno    Source Statement           (Hibal 5, Asmedit 3.3)  HLASM R4.0  2004/03/22 09.45
+___    ______ ____    _____ _____  ____ __ ______    ______ _________
0                                   1280      84.     *        VAM DEVICE TABLE
                                    1281      85.     *
 000000                00000 0004C  1282      86.     VDT      RECORD BEGIN
                                    1290  1   87.
 000000 00                          1291  1   88.     VDTFL      FLAG  ,
 VDTFL.VDTFA       80 ONES          1295  1   89.                FLAG  VDTFA
 VDTFL.VDTFVFS     40 ONES          1300  1   90.                FLAG  VDTFVFS
 VDTFL.VDTFMW      20 ONES          1305  1   91.                FLAG  VDTFMW
 VDTFL.VDTFR1      10 ONES          1310  1   92.                FLAG  VDTFR1
 VDTFL.VDTFR14     08 ONES          1315  1   93.                FLAG  VDTFR14
 VDTFL.VDTFR15     04 ONES          1320  1   94.                FLAG  VDTFR15
 VDTFL.VDTFMSH     02 ONES          1325  1   95.                FLAG  VDTFMSH
 VDTFL.VDTFRSRV    01 ONES          1330  1   96.                FLAG  VDTFRSRV
                                    1335  1   97.
 000001 00                          1336  1   98.     VDTMFL     FLAG  ,
 VDTMFL.VDTFTEMP   80 ONES          1340  1   99.                FLAG  VDTFTEMP
 VDTMFL.VDTFWD     40 ONES          1345  1  100.                FLAG  VDTFWD
 VDTMFL.VDTFPOST   20 ONES          1350  1  101.                FLAG  VDTFPOST
 VDTMFL.VDTFEWX    10 ONES          1355  1  102.                FLAG  VDTFEWX
 VDTMFL.VDTFFIDT   08 ONES          1360  1  103.                FLAG  VDTFFIDT
 VDTMFL.VDTLNGRD   04 ONES          1365  1  104.                FLAG  VDTLNGRD
                                    1370  1  105.
 000002                             1371  1  106.     VDTXFL     DS    X
                                    1372  1  107.
 000003                             1373  1  108.     VDTCLASS   DS    X                       DEVICE CLASS
                                    1374  1  109.
                                    1375  1  110.     VDTENQC    EQU   5                       ENQ/DEQ CLASS
                                    1376  1  111.     VDTFILEC   EQU   2                       FILE CLASS
                                    1377  1  112.     VDTTERMC   EQU   1                       TERMINAL CLASS
                                    1378  1  113.
 000004                             1379  1  114.     VDTDN      DS    X                       DEVICE NUMBER
 000005                             1380  1  115.     VDTID      DS    X                       DEVICE ID
 000008                             1381  1  116.     VDTOID     DS    A                       ORVYL DEVICE ID
 00000C                             1382  1  117.     VDTR1      DS    F
 000010                             1383  1  118.     VDTR14     DS    F
 000014                             1384  1  119.     VDTR15     DS    F
 000018                             1385  1  120.     VDTAXEP    DS    A                       ATTN. EXIT ENTRY POINT
 00001C                             1386  1  121.     VDTWXEP    DS    A                       WAIT EXIT ENTRY POINT
 000020                             1387  1  122.     VDTNAME    DS    CL44                    DEVICE/FILE NAME
 00004C                             1388  1  123.     VDTNEXT    DS    0F
 00004C                0004C 0004C  1389     124.              END   ,
1VAMT     (VAMT02) (09:45) (22MAR04) VAM/370 - ORVYL File System Batch Interface                                            Page    7
0Current Usings:  (CT,R10) (VDT,R11)
0Loc    Object Code    Addr1 Addr2  Stmt Lv Lineno    Source Statement           (Hibal 5, Asmedit 3.3)  HLASM R4.0  2004/03/22 09.45
+___    ______ ____    _____ _____  ____ __ ______    ______ _________
0                                   1399     126.     *    VAM'S CT
                                    1400     127.     *
 000000                00000 05130  1401     128.     CT       RECORD BEGIN
 000000                             1409  1  129.     CTID       DS    8CL4
 000020                             1410  1  130.     CTCORE     DS    A                       BASE ADDRESS FOR VAMTASK DXD
 000024                             1411  1  131.     CTINFOP    DS    A                       POINTER TO VAMINFO BLOCK
 000028                             1412  1  132.     CTVCHEAD   DS    A                       COMMUNICATIONS HEADER AREA
 00002C                             1413  1  133.     CTPATHB    DS    A                       PATH CONTROL BLOCK
 000030                             1414  1  134.     CTPATHM    DS    A                       MILTEN PATH CONTROL BLOCK
 000034                             1415  1  135.     CTRQST     DS    A                       MILTEN COMMUNICATIONS HEADER
 000038                             1416  1  136.     TIMEINT    DS    A                       TIMER INTERVAL AREA
 00003C                             1417  1  137.     TIMEECB    DS    A                       TIMER ECB AREA
 000040                             1418  1  138.     CTPECB     DS    A                       ADDR OF VAMPATH ECB
 000044                             1419  1  139.     CTMECB     DS    A                       ADDR OF MILTEN PATH ECB
 000048                             1420  1  140.     CTSVCCNT   DS    F                       VAM "SVC" CALLS
 00004C                             1421  1  141.     CTXACTS    DS    F                       SUZAN TRANSACTIONS
 000050                             1422  1  142.     CTTRP      DS    4F                      TRACE PARMS
 000060                             1423  1  143.     CTTRACE    DS    A                       TRACE TABLE POINTER
                                    1424  1  144.     CTTRSAVE   VSA   0,15
 000064                             1425  1 01-VSA   +CTTRSAVE   DS    (15+1-(0)+16*((0)/(15+1))/((0)/(15+1)))F
 0000A4                             1426  1  145.     CTTRSAV9   DS    F
 0000A8                             1427  1  146.     CTBPSW     DS    D                       BURY PSEUDO PSW
 0000B0                             1428  1  147.     CTBGPRS    DS    16F                     BURY GPRS.
 0000F0                             1429  1  148.     CTBSTAE    DS    A                       STAE WORK AREA POINTER
 0000F4                             1430  1  149.     CTVDTS     DS    A                       POINTER TO VAM DEVICE TABLES
                                    1431  1  150.     CTNVDTS    EQU   220,,C'N'               NUMBER OF DEVICE TABLES
 0000F8                             1432  1  151.     USER14     DS    F
 0000FC                             1433  1  152.     USER15     DS    F
 000100                             1434  1  153.     USER0      DS    F
 000104                             1435  1  154.     USER1      DS    F
 000108                             1436  1  155.     CTTEMP     DS    4D                      TEMP. WORK SPACE
                                    1437  1  156.     CLWTEMP    EQU   CTTEMP                  FOR MACRO CALLS (SEGHX, ETC)
                                    1438  1  157.     CTPROMPT   EQU   CTTEMP,8                TEMPORARY STORAGE OF PROMPT
                                    1439  1  158.
 000128                             1440  1  159.     SVA        DS    40F
 0001C8 00000000                    1441  1  160.     DUMPADD    DC    A(0)                    VIRTUAL ADDRESS OF CORE DUMPED
 0001CC 00000000                    1442  1  161.     DUMPEND    DC    A(0)
                                    1443  1  162.
 0001D0 0000000000000000            1444  1  163.     PRCPREV    DC    32X'00'
                                    1445  1  164.
 0001F0                             1446  1  165.     CTJOBNAM   DS    CL8                     NAME OF USER JOB
                                    1447  1  166.     PRYNBUFL   EQU   133
 0001F8                             1448  1  167.     PRYNBUF    DS    2H                      PRINT BUFFER
 0001FC                             1449  1  168.                DS    CL(PRYNBUFL)
                                    1450  1  169.
 000281 4040404040404040            1451  1  170.     PDMPBUF    DC    CL9' '
 00028A                             1452  1  171.     DUMPBUF    DS    CL(PRYNBUFL)
                                    1453  1  172.
 00030F                             1454  1  173.     CTUSER     DS    CL3                     USER INITIALS
 000312                             1455  1  174.     CT$        DS    C
 000313                             1456  1  175.     CTGRP      DS    2CL2                    GROUP, SUBGROUP
 000317                             1457  1  176.     CTERMID    DS    CL3                     TERMINAL ID (ANN)
 00031A                             1458  1  177.     CTUNAME    DS    CL16                    USER NAME FIELD
                                    1459  1  178.     CTUINFO    EQU   CTUSER,*-CTUSER         USER INFORMATION FROM SENSE 8
1VAMT     (VAMT02) (09:45) (22MAR04) VAM/370 - ORVYL File System Batch Interface                                            Page    8
0Current Usings:  (CT,R10) (VDT,R11)
0Loc    Object Code    Addr1 Addr2  Stmt Lv Lineno    Source Statement           (Hibal 5, Asmedit 3.3)  HLASM R4.0  2004/03/22 09.45
+___    ______ ____    _____ _____  ____ __ ______    ______ _________
000032A                             1460  1  179.     CTPRIVS    DS    CL2                     ACCOUNT FOR PRIVS.(IFL, AFL)
                                    1461  1  180.
 00032C 00                          1462  1  181.     CTFLAGS    FLAG  ,                       MISC. FLAGS
 CTFLAGS.CTPRIVAM  80 ONES          1466  1  182.                FLAG  CTPRIVAM                USER HAS PRIVATE COPY OF OVAM
 CTFLAGS.CTKAPUT   40 ONES          1471  1  183.                FLAG  CTKAPUT                 SYSKAPUT DD CARD PRESENT
 CTFLAGS.CTVAMACT  20 ONES          1476  1  184.                FLAG  CTVAMACT                VAM IS ACTIVE (FOR STAE EXIT)
 CTFLAGS.CTVIRT    10 ONES          1481  1  185.                FLAG  CTVIRT                  VAM IS IN VIRTUAL TERM MODE
                                    1486  1  186.
 00032D                             1487  1  187.     CTTRTYP    DS    X                       TRACE TYPE CODE
                                    1488  1  188.           ¿þþþþþþþþþþþþþþþþþþþþþþþþþþþþþþþþþþþþþþþþþþþþþþþÜ
                                    1489  1  189.           Ÿ  STIMER EXIT ROUTINE (REFRESHED DURING INIT)  Ÿ
                                    1490  1  190.           ¾þþþþþþþþþþþþþþþþþþþþþþþþþþþþþþþþþþþþþþþþþþþþþþþ»
 00032E                             1491  1  191.     TIMEXIT    DS    0H
                                    1492  1  192.                SAVE  (14,12)
 00032E                             1493  1 01-SAVE  +           DS    0H
 00032E 90EC D00C            0000C  1494  1 01-SAVE  +           STM   14,12,12(13)                      SAVE REGISTERS
 000332 18AF                        1495  1  193.                LR    CTR,R15             MOVE ENTRY ADDRESS
 000334 41F0 032E            0032E  1496  1  194.                LA    R15,TIMEXIT-CT      OFFSET INTO CT AREA
 000338 1FAF                        1497  1  195.                SLR   CTR,R15             RECOMPUTE BASE REGISTER
 00033A 5810 A03C            0003C  1498  1  196.                L     R1,TIMEECB              RETRIEVE ECB ADDRESS
                                    1499  1  197.                POST  (R1)                    START GOING AGAIN
                                    1500  1          +*        MACDATE  07/02/90                                     @YA32157
 00033E 1B00                        1502  1 01-POST  +           SR    0,0                    . SET POST CODE              @D1A
 000340 4110 1000            00000  1503  1 01-POST  +           LA    1,0(0,R1)              . LOAD ECB, CLEAR HI BYTE    @D1A
 000344 0A02                        1504  1 01-POST  +           SVC   2                      . ISSUE THE POST SVC         @D1A
                                    1505  1  198.                RETURN (14,12)                 AND RETURN TO OS
 000346 98EC D00C            0000C  1506  1 01-RETUR +           LM    14,12,12(13)                      RESTORE THE REGISTERS
 00034A 07FE                        1507  1 01-RETUR +           BR    14                                RETURN
                                    1508  1  199.     þþþþ
 00034C                             1509  1  200.     CTSVA      DS    200F                    SAVE AREA STACK
1VAMT     (VAMT02) (09:45) (22MAR04) VAM/370 - ORVYL File System Batch Interface                                            Page    9
0Current Usings:  (CT,R10) (VDT,R11)
0D-Loc  Object Code    Addr1 Addr2  Stmt Lv Lineno    Source Statement           (Hibal 5, Asmedit 3.3)  HLASM R4.0  2004/03/22 09.45
+_____  ______ ____    _____ _____  ____ __ ______    ______ _________
0                                   1511  1  202.     *
                                    1512  1  203.     *    DEFINE THE TRACE TABLE
                                    1513  1  204.     *
 000670                             1514  1  205.     TRACTBL    DS    0D
                                    1515  1  206.     TRACENTS   EQU   24                      TRACE ENTRY SIZE
                                    1516  1  207.     TRTRACE    EQU   X'40'                   TRACE TRACE CODE (VTRACE CALL)
                                    1517  1  208.     TRSVC      EQU   X'20'                   "SVC" TRACE
                                    1518  1  209.     TRKAPUT    EQU   X'50'                   KAPUT TRACE CODE
                                    1519  1  210.     TRABEND    EQU   X'60'                   ABEND TRACE CODE
 000670                             1520  1  211.     TRACSTRT   DS    A(TRACTBLS)             START OF TRACE TABLE
 000674                             1521  1  212.     TRACNEXT   DS    A(TRACTBLS)             NEXT ENTRY TO USE
 000678                             1522  1  213.     TRACEND    DS    A(TRACTBLS-TRACENTS)    END OF TRACE
 000680                             1523  1  214.     TRACTBLS   DS    0D                      START OF TRACE TABLE
 000680                             1524  1  215.                DS    100XL(TRACENTS)
 000FE0                             1525  1  216.     TRACTBLE   DS    0D                      END OF TRACE TABLE
                                    1526  1  217.
 000FE0                             1527  1  218.     VBDT       DS    (CTNVDTS)XL(L'VDT)
 005130                05130 05130  1528     219.              END   ,
1VAMT     (VAMT02) (09:45) (22MAR04) VAM/370 - ORVYL File System Batch Interface                                            Page   10
0Current Usings:  (CT,R10) (VDT,R11)
0Loc    Object Code    Addr1 Addr2  Stmt Lv Lineno    Source Statement           (Hibal 5, Asmedit 3.3)  HLASM R4.0  2004/03/22 09.45
+___    ______ ____    _____ _____  ____ __ ______    ______ _________
0000000                00000 0005C  1538     221.     MTR      RECORD BEGIN
                                    1546  1  222.     *
                                    1547  1  223.     * TRACE TABLE FORMATTING BUFFER
                                    1548  1  224.     *
 000000                             1549  1  225.     MTRCNTL    DS    2H
 000004                             1550  1  226.     MTRB       DS    C
 000005                             1551  1  227.     MTRTYPE    DS    CL5
 00000A                             1552  1  228.                DS    CL2
 00000C                             1553  1  229.     MTRNAME    DS    CL8
 000014                             1554  1  230.                DS    CL2
 000016                             1555  1  231.     MTRIC      DS    CL3
 000019                             1556  1  232.                DS    CL2
 00001B                             1557  1  233.     MTRLH      DS    CL8
 000023                             1558  1  234.                DS    C
 000024                             1559  1  235.     MTRRH      DS    CL8
 00002C                             1560  1  236.                DS    CL3
 00002F                             1561  1  237.     MTR14      DS    CL8
 000037                             1562  1  238.                DS    CL2
 000039                             1563  1  239.     MTR15      DS    CL8
 000041                             1564  1  240.                DS    CL2
 000043                             1565  1  241.     MTR0       DS    CL8
 00004B                             1566  1  242.                DS    CL2
 00004D                             1567  1  243.     MTR1       DS    CL8
 000055                             1568  1  244.                DS    CL2
 000057                             1569  1  245.     MTRCODE    DS    CL5                     DDR OR DSR CODE
                                    1570  1  246.     MTRL       EQU   *-MTRB
 00005C                0005C 0005C  1571     247.              END   ,
1VAMT     (VAMT02) (09:45) (22MAR04) VAM/370 - ORVYL File System Batch Interface                                            Page   11
0Current Usings:  (CT,R10) (VDT,R11)
0Loc    Object Code    Addr1 Addr2  Stmt Lv Lineno    Source Statement           (Hibal 5, Asmedit 3.3)  HLASM R4.0  2004/03/22 09.45
+___    ______ ____    _____ _____  ____ __ ______    ______ _________
0                                   1581     249.     *   VAM COMMUNICATIONS HEADER
                                    1582     250.     *
 000000                00000 00058  1583     251.     VBCH     DSECT
 000000                             1584     252.     VCHEAD   DS    0D
                                    1585     253.              COPY  VCHEAD
 000000                             1586             =VCHSTART DS    0F
 000000                             1587             =VCTRAN   DS    X                       TRANSACTION CODE
 000001                             1588             =VCCODE   DS    X                       TRANSACTION SUBCODE
                                    1589             =
 000002 00                          1590             =VCFLAGS  FLAG  ,                       SVC FLAGS
 VCFLAGS.VCFWAIT   80 ONES          1594             =         FLAG  VCFWAIT                 MODE=WAIT (R0 COMPLEMENTED)
 VCFLAGS.VCFNR1    40 ONES          1599             =         FLAG  VCFNR1                  R1 COMPLEMENTED
 VCFLAGS.VCFNR15   20 ONES          1604             =         FLAG  VCFNR15                 R15 COMPLEMENTED
 VCFLAGS.VCFNR14   10 ONES          1609             =         FLAG  VCFNR14                 R14 COMPLEMENTED
                                    1614             =
 000003 00                          1615             =VCRFLAGS FLAG  ,                       RETURN FLAGS
 VCRFLAGS.VCRR15Z  80 ONES          1619             =         FLAG  VCRR15Z                 R15 ZERO ON SVC
 VCRFLAGS.VCRSPEC  40 ONES          1624             =         FLAG  VCRSPEC                 SPEC ON SVC
                                    1629             =
 000004                             1630             =VCJOBNAM DS    CL8                     BATCH JOB NAME
 00000C                             1631             =VCJOBACC DS    CL6                     ACCOUNT OF BATCH JOB
 000012                             1632             =VCPRIVS  DS    CL2                     PRIVS. OF BATCH JOB (IFL, AFL)
 000014                             1633             =VCDEVID  DS    F                       DEVICE IDENTIFIER
 000018                             1634             =VCPARM1  DS    F
 00001C                             1635             =VCPARM2  DS    F
 000020                             1636             =VCRETCOD DS    F                       RETURN CODE
 000024                             1637             =VCDATAL  DS    H                       LENGTH OF VARIABLE DATA
 000028                             1638             =VCOMEND  DS    0D
                                    1639             =VCHLEN   EQU   *-VCHSTART
0000028                00028 00028  1641             =         ORG   VCOMEND
 000028                             1642             =VCDATA   DS    0X                      VARIABLE LENGTH DATA FIELD
 000028                00028 00028  1643             =         ORG   VCOMEND
 000028                             1644             =VCFNAME  DS    CL44                    FILE NAME (FOR ATTACH OR STATUS)
                                    1645             =VCFNLEN  EQU   *-VCOMEND
 000054                00054 00028  1646             =         ORG   VCOMEND
 000028                             1647             =VCACC1   DS    CL6                     ACCOUNT FIELDS (FOR CONTROL
 00002E                             1648             =VCACC2   DS    CL6                      OR STATUS CALLS)
                                    1649             =VCACCLEN EQU   *-VCOMEND
 000034                00034 00054  1650             =         ORG
 000058                             1651             =VCEND    DS    0D
1VAMT     (VAMT02) (09:45) (22MAR04) VAM/370 - ORVYL File System Batch Interface                                            Page   12
0Current Usings:  (CT,R10) (VDT,R11)
0D-Loc  Object Code    Addr1 Addr2  Stmt Lv Lineno    Source Statement           (Hibal 5, Asmedit 3.3)  HLASM R4.0  2004/03/22 09.45
+_____  ______ ____    _____ _____  ____ __ ______    ______ _________
0                                   1653     255.     *        USER PARAMETER INFORMATION
                                    1654     256.     *        AND POINTERS
                                    1655     257.     *
 000000                00000 0005C  1656     258.     VAMINFO  RECORD BEGIN
                                    1664  1  259.                VAMINFO
 000000 00000000                    1665  1 01-VAMIN +VAMADDR    DC    A(0)                    VAMTASK ADDRESS
 000004 00000000                    1666  1 01-VAMIN +VAMCT      DC    A(0)                    VAMTASK'S CT POINTER HERE
 000008                             1667  1 01-VAMIN +VAMCORE    DS    2F                      GETMAIN RETURN AREA
 000010 0000000000000000            1668  1 01-VAMIN +GPRS       DC    16F'0'
 000050                00050 00010  1669  1 01-VAMIN +           ORG   GPRS
 000010                             1670  1 01-VAMIN +VAMCODE    DS    F                       VAM TRANSACTION CODE
 000014                             1671  1 01-VAMIN +PARMS      DS    A                       R1 HAS POINTER TO INPUT PARMS
 000018                00018 00048  1672  1 01-VAMIN +           ORG   GPRS+(14*4)
 000048                             1673  1 01-VAMIN +RETURN     DS    A                       RETURN ON R14
 00004C                0004C 00050  1674  1 01-VAMIN +           ORG
 000050                             1676  1 02-STAE  +           DS    0F
 000050 00                          1677  1 02-STAE  +STAELIST   DC    AL1(0)      .        FLAGS FOR TCB,
                                    1678  1          +*                                   PURGE AND ASYNCH
 000051 000000                      1679  1 02-STAE  +           DC    AL3(*-*)   .         STAE EXIT ROUTINE ADDR.
 000054 00000000                    1680  1 02-STAE  +           DC    A(0) .                   PARM. LIST ADDR. NOT SPECIFIED
 000058 00000000                    1681  1 02-STAE  +           DC    A(0) .                  TCB NOT SPECIFIED
 00005C                0005C 0005C  1682     260.              END   ,
-
                                    1692     262.              USING CT,CTR                  ##
1VAMT     (VAMT02) (09:45) (22MAR04) VAM/370 - ORVYL File System Batch Interface                                            Page   13
0Current Usings:  (CT,R10) (VDT,R11)
0D-Loc  Object Code    Addr1 Addr2  Stmt Lv Lineno    Source Statement           (Hibal 5, Asmedit 3.3)  HLASM R4.0  2004/03/22 09.45
+_____  ______ ____    _____ _____  ____ __ ______    ______ _________
0                                   1695     264.     *   PATH CONTROL BLOCK
                                    1696     265.     *
 000000                00000 00068  1697     266.     VAMPATH  DSECT
                                    1698     267.              PATH
 000000                             1699    01-PATH  +PATH     DC    0F'0'
 000000 00000000                    1701    02-DEFIN +PATHMGC  DC    AL4(0)
 000004 00000000                    1703    02-DEFIN +PATHDJNM DC    AL4(0)
 000008 0000000000000000            1705    02-DEFIN +PATHMY   DC    XL8'0'
 000010 FFFFFFFFFFFFFFFF            1707    02-DEFIN +PATHYOU  DC    XL8'FFFFFFFFFFFFFFFF'
 000018 00000000                    1709    02-DEFIN +PATHECB  DC    AL4(0)
 00001C                0001C 00018  1710    01-PATH  +         ORG   *-4
 000018 00                          1712    02-DEFIN +PATHMFL  DC    AL1(0*X'80'+0*X'40'+0*X'20')
                                    1713             +
                                    1714    01-PATH  +PATHVER2  EQU  X'80'         CALLER IS USING VERSION 2
                                    1715    01-PATH  +PATHMCTL  EQU  X'40'         CALLER ASKS TERMINATION CONTROL
                                    1716    01-PATH  +PATHMNAM  EQU  X'20'         CALLER PROVIDES CALLEE NAME
                                    1717    01-PATH  +PATHMDP1  EQU  X'10'         DUPLICATE TAGS FOUND: MY=PCBO, YOU=PCBA
                                    1718    01-PATH  +PATHMDP2  EQU  X'08'         DUPLICATE TAGS FOUND: MY=PCBA, YOU=PCBO
                                    1719             +
 000019                00019 0001C  1720    01-PATH  +         ORG   ,
 00001C 00000000                    1722    02-DEFIN +PATHBUF  DC    AL4(0)
 000020 00000000                    1724    02-DEFIN +PATHECBF DC    AL4(0)
                                    1725             +
                                    1726    01-PATH  +PATHFCLS  EQU   X'80'         I AM POSTED BECAUSE HE CLOSED
                                    1727    01-PATH  +PATHFFQE  EQU   X'40'         I AM POSTED BECAUSE HIS FULL Q EMPTIED
                                    1728    01-PATH  +PATHFNI   EQU   X'20'         I AM POSTED BECAUSE NEW INFO IN MY Q
                                    1729    01-PATH  +PATHFDP   EQU   X'10'         I AM POSTED AT HIS DISCRETION
                                    1730    01-PATH  +PATHFOPN  EQU   X'08'         I AM POSTED BECAUSE HE OPENED
                                    1731    01-PATH  +PATHFCLC  EQU   X'04'         I AM POSTED BECAUSE MY CLOSE IS COMPLETE
                                    1732             +
 000024 00000000                    1734    02-DEFIN +PATHPASS DC    XL4'0'
                                    1735             +
                                    1736    01-PATH  +PATHSIZE  EQU  *-PATH        LENGTH OF PATH BLOCK
1VAMT     (VAMT02) (09:45) (22MAR04) VAM/370 - ORVYL File System Batch Interface                                            Page   14
0Current Usings:  (CT,R10) (VDT,R11)
0D-Loc  Object Code    Addr1 Addr2  Stmt Lv Lineno    Source Statement           (Hibal 5, Asmedit 3.3)  HLASM R4.0  2004/03/22 09.45
+_____  ______ ____    _____ _____  ____ __ ______    ______ _________
0                                   1738     269.     *
                                    1739     270.     *  PATH CONTROL BLOCK EXTENSION FOR VAM
                                    1740     271.     *
 000028                             1741     272.     VPECB    DS    F
 00002C                             1742     273.     VPFLAGS  DS    X
                                    1743     274.
 00002D 00                          1744     275.     VPMFL    FLAG  ,                       MORE FLAGS
                                    1748     276.
 VPMFL.VPFNWAIT    80 ONES          1749     277.              FLAG  VPFNWAIT                NO WAIT AFTER SEND
 VPMFL.VPFWUMR     40 ONES          1754     278.              FLAG  VPFWUMR                 WAIT UNTIL MESSAGE RECEIVED
 VPMFL.VPFIRST     20 ONES          1759     279.              FLAG  VPFIRST                 FIRST TRANSACTION
 VPMFL.VPFCLOS     10 ONES          1764     280.              FLAG  VPFCLOS                 MILTEN CLOSE EXPECTED
                                    1769     281.
 000030                             1770     282.     VPRETLOC DS    4F                      RETRIEVE LOCATE RETURN AREA
 000040                00040 00030  1771     283.              ORG   VPRETLOC
 000030                             1772     284.     VPRADDR1 DS    F
 000034                             1773     285.     VPRLEN1  DS    F
 000038                             1774     286.     VPRADDR2 DS    F
 00003C                             1775     287.     VPRLEN2  DS    F
 000040                00040 00040  1776     288.              ORG
 000040                             1777     289.     VPRDW    DS    F
 000044                00044 00040  1778     290.              ORG   VPRDW
 000040                             1779     291.     VPRDLEN  DS    H
 000042                             1780     292.     VPRDUFL  DS    X
 000043                             1781     293.     VPRDSFL  DS    X
 000044                00044 00044  1782     294.              ORG
 000044                             1783     295.     VPDATAR  DS    F                       ADDRESS FOR DATA RETURNED
 000048                             1784     296.     VPPCWS   DS    4D
                                    1785     297.     VPLEN    EQU   *-PATH
1VAMT     (VAMT02) (09:45) (22MAR04) VAM/370 - ORVYL File System Batch Interface                                            Page   15
0Current Usings:  (CT,R10) (VDT,R11)
0D-Loc  Object Code    Addr1 Addr2  Stmt Lv Lineno    Source Statement           (Hibal 5, Asmedit 3.3)  HLASM R4.0  2004/03/22 09.45
+_____  ______ ____    _____ _____  ____ __ ______    ______ _________
0                                   1787     299.     *   PATH COMMAND WORD DSECT
                                    1788     300.     *
 000000                00000 00008  1789     301.     PCWD     DSECT
                                    1790     302.              PCW
                                    1791             +*  PATH COMMAND WORD                    OPERAND REQUIRED FOR:
                                    1792             +*                                  SNDD  RETMX,RETX  POST  STAT  OTHER
                                    1793             +*                               --------------------------------------
 000000                             1794    01-PCW   +PCW      DC    0F'0'
 000000                             1795    01-PCW   +PCWCMD   DS    0AL1     COMMAND       *        *       -     *     *
 000000 00000000                    1796    01-PCW   +PCWADDR  DC    AL4(0)   ADDRESS       *        *       -     -     *
 000004 0000                        1797    01-PCW   +PCWLEN   DC    AL2(0)   LENGTH        *        *       -     -     -
 000006 00                          1798    01-PCW   +PCWFLG   DC    AL1(0)   FLAGS         *        -       -     -     -
 000007 00                          1799    01-PCW   +         DC    AL1(0)   RESRVD
                                    1800             +*                               --------------------------------------
                                    1801    01-PCW   +PCWSIZE  EQU   *-PCW
                                    1802             +*
                                    1803             +*  COMMAND MNEMONICS                       MEANING OF OPERANDS:
                                    1804             +*                                      PCWADDR       PCWLEN    PCWFLG
                                    1805             +*                                    ----------------------------------
                                    1806    01-PCW   +CMDSNDX  EQU   X'01'   SEND           TRANSACTION      --        --
                                    1807             +*                      TRANSACTION    ADDRESS
                                    1808             +*
                                    1809    01-PCW   +CMDSNDD  EQU   X'02'   SEND           DATA ADDRESS  DATA       CHAIN
                                    1810             +*                      DATA                         LENGTH     FLAGS
                                    1811             +*
                                    1812    01-PCW   +CMDRETLF EQU   X'03'   LOCATE-FREE    ADDRESS OF       --        --
                                    1813             +*                      RETRIEVE       4 WORD AREA
                                    1814             +*
                                    1815    01-PCW   +CMDRETL  EQU   X'04'   LOCATE         ADDRESS OF       --        --
                                    1816             +*                      RETRIEVE       4 WORD AREA
                                    1817             +*
                                    1818    01-PCW   +CMDRETMX EQU   X'05'   RETRIEVE       ADDRESS OF    LENGTH OF    --
                                    1819             +*                      MULTIPLE       RECEIVE AREA  RECEIVE AREA
                                    1820             +*
                                    1821    01-PCW   +CMDRETX  EQU   X'06'   RETRIEVE       ADDRESS OF    LENGTH OF    --
                                    1822             +*                      SINGLE         RECEIVE AREA  RECEIVE AREA
                                    1823             +*
                                    1824    01-PCW   +CMDFREEX EQU   X'07'   FREE           RDW ADDRESS      --        --
                                    1825             +*                      TRANSACTION
                                    1826             +*
                                    1827    01-PCW   +CMDECB   EQU   X'08'   ECB FOR        ECB ADDRESS      --        --
                                    1828             +*                      POST (SVS)
                                    1829             +*
                                    1830    01-PCW   +CMDPOST  EQU   X'09'   POST HIM            --          --        --
                                    1831             +
                                    1832    01-PCW   +CMDSTAT  EQU   X'0A'   STATISTICS     ADDRESS OF       --        --
                                    1833             +*                      (SVS)          RECEIVE AREA
                                    1834             +*
                                    1835    01-PCW   +CMDPART  EQU   X'0B'   PARTNER INFO   ADDRESS OF    LENGTH OF    --
                                    1836             +*                      (MVS)          RECEIVE AREA  RECEIVE AREA
                                    1837             +*                                     --------------------------------
                                    1838    01-PCW   +CMDMAX   EQU   CMDPART
                                    1839             +*
                                    1840             +*  MASKS WHICH MAY BE ORED WITH PCWCMD:
1VAMT     (VAMT02) (09:45) (22MAR04) VAM/370 - ORVYL File System Batch Interface                                            Page   16
0Current Usings:  (CT,R10) (VDT,R11)
0D-Loc  Object Code    Addr1 Addr2  Stmt Lv Lineno    Source Statement           (Hibal 5, Asmedit 3.3)  HLASM R4.0  2004/03/22 09.45
+_____  ______ ____    _____ _____  ____ __ ______    ______ _________
0                                   1841             +*
                                    1842    01-PCW   +CMDEND   EQU   X'80'         END OF PCWLIST
                                    1843    01-PCW   +CMDSKIP  EQU   X'10'         DATA SKIP (FOR RETX, RETMX ONLY)
                                    1844    01-PCW   +CMDCLOS  EQU   X'C0'         CLOSE ME AFTER THIS COMMAND
                                    1845    01-PCW   +CMDCLOSC EQU   X'A0'         CLOSE MY CONTROLLEE AFTER THIS COMMAND
                                    1846             +*
                                    1847             +*  RETURN CODES
                                    1848             +*
                                    1849    01-PCW   +RCBDCMD  EQU   4             BAD COMMAND RETURN CODE.
                                    1850    01-PCW   +RCBADPID EQU   8             BAD PATHID ON CMD CALL
                                    1851    01-PCW   +RCSNDOVF EQU   12            OVERFLOW ON SEND COMMAND(S)
                                    1852    01-PCW   +RCNOPART EQU   16            PARTNER ISN'T THERE
                                    1853    01-PCW   +RCDCHNER EQU   20            DATACHAIN PAST SEND COMMANDS
                                    1854    01-PCW   +RCMOFLO  EQU   24            RETRIEVE-MOVE BUFFER TOO SMALL.
                                    1855    01-PCW   +RCFREXBD EQU   28            FREEX RECEIVED WITH NO LOCATE OUT
-
-000000                00000 00004  1857     304.     RDWD     DSECT
                                    1858     305.              RDW
 000000                             1859    01-RDW   +RDW      DS    0F                  Start of RDW
 000000                             1860    01-RDW   +RDWSZ    DS    H                   Length
 000002                             1861    01-RDW   +RDWUFL   DS    X                   User flags
                                    1862    01-RDW   +RDWONLY  EQU   X'00'  [Unused]     - Only segment
                                    1863    01-RDW   +RDWFRST  EQU   X'01'  [Unused]     - First of >1 segments
                                    1864    01-RDW   +RDWLAST  EQU   X'02'  [Unused]     - Last of >1 segments
                                    1865    01-RDW   +RDWMIDL  EQU   X'03'  [Unused]     - Middle of >1 segments
                                    1866             +
 000003                             1867    01-RDW   +RDWSFL   DS    X                   SVC flags
                                    1868    01-RDW   +RDWSFREE EQU   X'80'               - Located, cmdfreex freed it
                                    1869    01-RDW   +RDWSPAD  EQU   X'40'  [Unused]     - Padded to halfword multiple
                                    1870    01-RDW   +RDWSEOF  EQU   X'20'               - End of file, this controllee
                                    1871             +
                                    1872    01-RDW   +RDWSIZE  EQU   *-RDW               Size of RDW
1VAMT     (VAMT02) (09:45) (22MAR04) VAM/370 - ORVYL File System Batch Interface                                            Page   17
0Current Usings:  (CT,R10) (VDT,R11)
0D-Loc  Object Code    Addr1 Addr2  Stmt Lv Lineno    Source Statement           (Hibal 5, Asmedit 3.3)  HLASM R4.0  2004/03/22 09.45
+_____  ______ ____    _____ _____  ____ __ ______    ______ _________
0000000                00000 00114  1874     307.     RQST     DSECT
 000000                             1875     308.     RQSTRDWL DS    H
 000002                             1876     309.              DS    H
                                    1877     310.              RQST
 000004                             1878    01-RQST  +RQSTSRCE  DS    H
 000006                             1879    01-RQST  +RQSTDEST  DS    H
 000008                             1880    01-RQST  +RQSTCMD   DS    X
 000009                             1881    01-RQST  +RQSTMODE  DS    0XL3
 000009                             1882    01-RQST  +RQSTCMFL  DS    X
 00000A                             1883    01-RQST  +RQSTMODB  DS    X
 00000B                             1884    01-RQST  +RQSTMODC  DS    X
 00000C                             1885    01-RQST  +RQSTCPLN  DS    0XL2
 00000C                             1886    01-RQST  +RQSTCPLA  DS    X
 00000D                             1887    01-RQST  +RQSTCPLB  DS    X
 00000E                             1888    01-RQST  +RQSTOUCT  DS    H
 000010                             1889    01-RQST  +RQSTINCT  DS    H
                                    1890    01-RQST  +RQSTHDR   EQU   RQSTSRCE,*-RQSTSRCE,C'X'
                                    1891    01-RQST  +RQSTTEXT  EQU   *,4096
 000012                             1892     311.     RQSTBUFF DS    CL256
 000114                             1893     312.              DS    0F
                                    1894     313.     RQSTSIZE EQU   *-RQST                  LENGTH OF RQST
                                    1895     314.
                                    1896     315.     RQSTHEAD EQU   RQSTTEXT-RQST           LENGTH OF MY HEADER
1VAMT     (VAMT02) (09:45) (22MAR04) VAM/370 - ORVYL File System Batch Interface                                            Page   18
0Current Usings:  (CT,R10) (VDT,R11)
0D-Loc  Object Code    Addr1 Addr2  Stmt Lv Lineno    Source Statement           (Hibal 5, Asmedit 3.3)  HLASM R4.0  2004/03/22 09.45
+_____  ______ ____    _____ _____  ____ __ ______    ______ _________
0                                   1898     317.              PDB   TYPE=(CODES,FLAGS)
                                    1899             +*
                                    1900             +*  PDB command codes:
                                    1901             +*
                                    1902             +*  global (to MILTEN)...
                                    1903    01-PDB   +TMILINIT EQU   33                  Subsystem init -- PDBCMDFL flags:
                                    1904    01-PDB   +INITFPRV EQU   X'80'               - Priv'd subsystem
                                    1905    01-PDB   +TMILMW   EQU   34                  not implemented
                                    1906    01-PDB   +TMILSTAT EQU   35                  not implemented
                                    1907             +*
                                    1908             +*  Line-related, synchronous commands (to MILTEN)...
                                    1909    01-PDB   +TMILEOS  EQU   64                  End-of-session -- PDBCMDFL flags:
                                    1910    01-PDB   +EOSALL   EQU   X'40'               - logoff this subsys and send alo
                                    1911    01-PDB   +EOSXCTL  EQU   X'20'               - logoff this subsys and xctl
                                    1912    01-PDB   +TMILWRIT EQU   65                  Terminal write
                                    1913    01-PDB   +TMILREAD EQU   66                  Terminal read
                                    1914    01-PDB   +TMILWTO  EQU   67                  MILTEN write-to-operator
                                    1915    01-PDB   +TMILSENS EQU   68                  Not implemented
                                    1916    01-PDB   +TMILNOP  EQU   69                  Check and respond
                                    1917    01-PDB   +MILAWR   EQU   70                  Asynchronous write
                                    1918    01-PDB   +TMILXCTL EQU   71                  Send text to another subsys
                                    1919    01-PDB   +TMILACCT EQU   72                  Session accounting data
                                    1920    01-PDB   +MILCNTL  EQU   73                  Control (PDBCMDFL has number)
                                    1921    01-PDB   +MILSOF   EQU   74                  Force logoff of user subsys's
                                    1922             +*  Line-related, asynchronous commands to MILTEN...
                                    1923    01-PDB   +TMILBRK  EQU   80                  Halt previous read
                                    1924             +*
                                    1925             +*  Command codes returned from MILTEN to subsystem...
                                    1926             +*
                                    1927             +*  Global, with (or as) response...
                                    1928    01-PDB   +FMILECHO EQU   32                  Not implemented
                                    1929    01-PDB   +FMILINIT EQU   33                  Subsystem initialization
                                    1930    01-PDB   +FMILSTAT EQU   35                  Not implemented
                                    1931    01-PDB   +FMILERR  EQU   36                  Prev. cmd was bad
                                    1932             +*  Global, asynchronous commands from MILTEN...
                                    1933    01-PDB   +FMILSTOP EQU   48                  Normal subsystem shutdown request
                                    1934    01-PDB   +FMILDUMP EQU   49                  Abend-with-dump request
                                    1935             +*  Line-related, synchronous responses or commands from MILTEN...
                                    1936    01-PDB   +FMILSOS  EQU   64                  Start-of-session (line logon)
                                    1937    01-PDB   +FMILWRIT EQU   65                  Response to tmilwrit
                                    1938    01-PDB   +FMILREAD EQU   66                  Response to tmilread
                                    1939    01-PDB   +FMILXCTL EQU   71                  Response to tmilxctl
                                    1940             +*  Line-related asynchronous commands from MILTEN...
                                    1941    01-PDB   +FMILASYN EQU   80                  Asynchronous status in cpl flags
                                    1942    01-PDB   +FMILLGFI EQU   81                  Not implemented
                                    1943             +*
                                    1944             +*  PDB mode flags (to MILTEN)
                                    1945             +*
                                    1946    01-PDB   +MODARSV1 EQU   X'80'               - Reserved
                                    1947    01-PDB   +MODAFMIL EQU   X'40'               - Fake MILTEN in TXCTL (for WYLBUR)
                                    1948    01-PDB   +MODANMSG EQU   X'20'               - Reject (don't allow) messages
                                    1949    01-PDB   +MODACL   EQU   X'10'               - Clean (don't interleave msgs)
                                    1950    01-PDB   +MODABUF  EQU   X'08'               - Buffered I/O (rtns mult lines)
                                    1951    01-PDB   +MODADRAT EQU   X'04'               - Disallow attn on read
1VAMT     (VAMT02) (09:45) (22MAR04) VAM/370 - ORVYL File System Batch Interface                                            Page   19
0Current Usings:  (CT,R10) (VDT,R11)
0D-Loc  Object Code    Addr1 Addr2  Stmt Lv Lineno    Source Statement           (Hibal 5, Asmedit 3.3)  HLASM R4.0  2004/03/22 09.45
+_____  ______ ____    _____ _____  ____ __ ______    ______ _________
0                                   1952             +
                                    1953    01-PDB   +MODBUPPR EQU   X'80'               - Use upper-case-only (read)
                                    1954    01-PDB   +MODBUPLO EQU   X'40'               - Use uplow (read)
                                    1955    01-PDB   +MODBDWAT EQU   X'20'               - Disallow attn on write
                                    1956    01-PDB   +MODBNNLA EQU   X'10'               - No stars or NL on read attn
                                    1957    01-PDB   +MODBSLOL EQU   X'08'               - Slow list (no tabs used on write)
                                    1958    01-PDB   +MODBNLF  EQU   X'04'               - No LF on read carriage-return
                                    1959    01-PDB   +MODBUFMT EQU   X'02'               - Unformatted (don't cvt <...>)
                                    1960    01-PDB   +MODBFOR  EQU   X'01'               - Force I/O (override quiet)
                                    1961             +
                                    1962    01-PDB   +MODCNCRS EQU   X'80'               - Don't re-position cursor (VTAM)
                                    1963    01-PDB   +MODCDSPL EQU   X'40'               - Display mode I/O
                                    1964    01-PDB   +MODCSTIB EQU   X'20'               - Suppress trailing input blanks
                                    1965    01-PDB   +MODCFSR  EQU   X'10'               - Full screen read
                                    1966    01-PDB   +MODCFSRU EQU   X'08'               - Full screen read unsolicited
                                    1967    01-PDB   +MODCNECH EQU   X'04'               - No echo
                                    1968    01-PDB   +MODCIMED EQU   X'02'               - Immediate mode (display I/O)
                                    1969    01-PDB   +MODCSTOB EQU   X'01'               - Suppress trailing output blanks
                                    1970             +
                                    1971    01-PDB   +MODDNPAU EQU   X'80'               - Don't stop at end of page
                                    1972    01-PDB   +MODDNPT  EQU   X'40'               - No read text allowed at p/p
                                    1973    01-PDB   +MODDTRAN EQU   X'20'               - Transparent I/O
                                    1974    01-PDB   +MODDNMOD EQU   X'10'               - Nomodel
                                    1975    01-PDB   +MODDNFLT EQU   X'08'               - No ctrl char filtering
                                    1976    01-PDB   +MODDXON  EQU   X'04'               - Send XON char for read
                                    1977    01-PDB   +MODDRUND EQU   X'02'               - Count rundown mode for read
                                    1978    01-PDB   +MODDNTYP EQU   X'01'               - No read typeahead
                                    1979             +*
                                    1980             +*  PDB control numbers (to MILTEN)
                                    1981             +*
                                    1982    01-PDB   +CTLSNSI  EQU   1                   - Sense session info
                                    1983    01-PDB   +CTLSETI  EQU   2                   - Set   session info
                                    1984    01-PDB   +CTLSNSP  EQU   3                   - Sense port info
                                    1985    01-PDB   +CTLSNSF  EQU   4                   - Sense front-end info
                                    1986    01-PDB   +CTLSNSD  EQU   5                   - Sense device dependent info
                                    1987    01-PDB   +CTLSNSS  EQU   6                   - Sense subsystem info
                                    1988    01-PDB   +CTLSNSA  EQU   7                   - Sense accounting info
                                    1989    01-PDB   +CTLSNSM  EQU   8                   - Sense MILTEN info
                                    1990    01-PDB   +CTLSNST  EQU   9                   - Sense symbol type
                                    1991    01-PDB   +CTLSNSMD EQU   10                  - Sense MILTEN device trace
                                    1992    01-PDB   +CTLMAX   EQU   10
                                    1993             +
                                    1994    01-PDB   +CTLPSETS EQU   101                 - Set session           (Priv'd)
                                    1995    01-PDB   +CTLPSETO EQU   102                 - Set session options   (Priv'd)
                                    1996    01-PDB   +CTLPKILL EQU   103                 - Kill session          (Priv'd)
                                    1997    01-PDB   +CTLPSETP EQU   104                 - Set port              (Priv'd)
                                    1998    01-PDB   +CTLPSETF EQU   105                 - Set front-end         (Priv'd)
                                    1999    01-PDB   +CTLPSETD EQU   106                 - Set device dependent  (Priv'd)
                                    2000    01-PDB   +CTLPSETA EQU   107                 - Set accounting info   (Priv'd)
                                    2001    01-PDB   +CTLPDIE  EQU   108                 - MILTEN shutdown       (Priv'd)
                                    2002    01-PDB   +CTLPMAX  EQU   108
                                    2003             +*
                                    2004             +*  PDB completion flags (from MILTEN)
                                    2005             +*
1VAMT     (VAMT02) (09:45) (22MAR04) VAM/370 - ORVYL File System Batch Interface                                            Page   20
0Current Usings:  (CT,R10) (VDT,R11)
0D-Loc  Object Code    Addr1 Addr2  Stmt Lv Lineno    Source Statement           (Hibal 5, Asmedit 3.3)  HLASM R4.0  2004/03/22 09.45
+_____  ______ ____    _____ _____  ____ __ ______    ______ _________
0                                   2006    01-PDB   +CPLAATTN EQU   X'80'               - Attn on read/write
                                    2007    01-PDB   +CPLAIOE  EQU   X'40'               - I/O error on read
                                    2008    01-PDB   +CPLAUST  EQU   X'20'               - Unset tab(s) on input
                                    2009    01-PDB   +CPLABRK  EQU   X'10'               - Read killed by break
                                    2010             +
                                    2011    01-PDB   +CPLBLGF  EQU   X'80'               - Terminal is logging off
                                    2012    01-PDB   +CPLBILT  EQU   X'40'               - Terminal can't do that
                                    2013    01-PDB   +CPLBIA   EQU   X'20'               - Idle attention (asynchronous)
                                    2014             +
1VAMT     (VAMT02) (09:45) (22MAR04) VAM/370 - ORVYL File System Batch Interface                                            Page   21
0Current Usings:  (CT,R10) (VDT,R11)
0D-Loc  Object Code    Addr1 Addr2  Stmt Lv Lineno    Source Statement           (Hibal 5, Asmedit 3.3)  HLASM R4.0  2004/03/22 09.45
+_____  ______ ____    _____ _____  ____ __ ______    ______ _________
0                                   2016     319.              DCBD  DEVD=DA,DSORG=QS
                                    2017             +*                       DCB SYMBOLIC DEFINITION FOR
                                    2018             +*                       QSAM
 000000                00000 00060  2019    01-DCBD  +IHADCB   DSECT ,              DCBPTR                           @ZA05613
                                    2020             +*
                                    2021             +***********************************************************************
                                    2023             +*
                                    2024             +*$MAC(DCBD):
                                    2025             +*
                                    2026             +*  STATUS - OS/390 DFSMS 3.10                                      @LBC
                                    2027             +*
                                    2028             +***********************************************************************
                                    2029    01-DCBD  +DCBBIT0  EQU   128                                             @ZA05613
                                    2030    01-DCBD  +DCBBIT1  EQU   64                                              @ZA05613
                                    2031    01-DCBD  +DCBBIT2  EQU   32                                              @ZA05613
                                    2032    01-DCBD  +DCBBIT3  EQU   16                                              @ZA05613
                                    2033    01-DCBD  +DCBBIT4  EQU   8                                               @ZA05613
                                    2034    01-DCBD  +DCBBIT5  EQU   4                                               @ZA05613
                                    2035    01-DCBD  +DCBBIT6  EQU   2                                               @ZA05613
                                    2036    01-DCBD  +DCBBIT7  EQU   1                                               @ZA05613
                                    2037             +***********************************************************************
                                    2038             +***********************************************************************
                                    2039             +*                       DEVICE INTERFACES
                                    2040             +***********************************************************************
                                    2041             +***********************************************************************
                                    2042             +*                       DIRECT ACCESS DEVICES
                                    2043             +***********************************************************************
 000000                             2044    01-DCBD  +DCBDCBE  DS    A              DCBE ADDRESS ASSOCIATED WITH THIS    @L5A
                                    2045             +*                             DCB IF A DCBE EXISTS. A DCBE EXISTS  @L5A
                                    2046             +*                             IF BOTH DCBH0 AND DCBH1 ARE SET ON.  @L5A
                                    2047             +*                             (DSORG=PS OR PO)                     @L5A
 000004                00004 00000  2048    01-DCBD  +         ORG   DCBDCBE                                             @L5A
 000000                             2049    01-DCBD  +DCBRELAD DS    CL4        --- PARTITIONED ORGANIZATION DATA SET -
                                    2050             +*                             ADDRESS (IN THE FORM TTRN) OF MEMBER
                                    2051             +*                             CURRENTLY USED (UNLESS A DCBE EXISTS
                                    2052             +*                             IN WHICH CASE THIS OFFSET POINTS TO  @L5A
                                    2053             +*                             THE DCBE, SEE DCBDCBE).              @L5A
                                    2054             +*                             IF A DCBE EXISTS, THE TTRN IS STORED @L5A
                                    2055             +*                             IN THE DCBE (DCBERELA). HIERARCHY    @L5A
                                    2056             +*                             BITS DEFINE THE EXISTANCE OF A DCBE. @L5A
                                    2057             +*                         --- SEQUENTIAL DATA SET - ADDRESS OF     @L5A
                                    2058             +*                             DCBE IF ONE EXISTS.                  @L5A
 000004                             2059    01-DCBD  +DCBKEYCN DS    FL1            KEYED BLOCK OVERHEAD CONSTANT
 000005                             2060    01-DCBD  +DCBFDAD  DS    CL8            FULL DISK ADDRESS IN THE FORM OF MBBCCHHR
                                    2061             +*                             OF RECORD THAT WAS JUST READ OR WRITTEN
 00000D                0000D 0000C  2062    01-DCBD  +         ORG   DCBFDAD+7
 00000C                             2063    01-DCBD  +DCBDVTBL DS    0A             SAME AS DCBDVTBA BELOW
 00000C                             2064    01-DCBD  +         DS    X              LAST BYTE OF DCBFDAD
 00000D                             2065    01-DCBD  +DCBDVTBA DS    AL3            ADDRESS OF ENTRY IN I/O DEVICE
                                    2066             +*                             CHARACTERISTICS TABLE FOR DEVICE BEING
                                    2067             +*                             USED
 000010                             2068    01-DCBD  +         DS    FL1            DCBKEYLE - KEY LENGTH OF DATA SET
 000011                             2069    01-DCBD  +         DS    C              DCBDEVT - DEVICE TYPE
                                    2070             +*   FOR MASKS FOR ISAM DIRECT ACCESS, SEE DCBOVDEV IN ISAM SECTION
1VAMT     (VAMT02) (09:45) (22MAR04) VAM/370 - ORVYL File System Batch Interface                                            Page   22
0Current Usings:  (CT,R10) (VDT,R11)
0D-Loc  Object Code    Addr1 Addr2  Stmt Lv Lineno    Source Statement           (Hibal 5, Asmedit 3.3)  HLASM R4.0  2004/03/22 09.45
+_____  ______ ____    _____ _____  ____ __ ______    ______ _________
0                                   2071    01-DCBD  +DCBDV311 EQU   X'21'          2311 DISK STORAGE                @ZA46311
                                    2072    01-DCBD  +DCBDV301 EQU   X'22'          2301 PARALLEL DRUM
                                    2073    01-DCBD  +DCBDV303 EQU   X'23'          2303 SERIAL DRUM
                                    2074    01-DCBD  +DCBDV345 EQU   X'24'          9345 DISK STORAGE FACILITY(NO LONGER @11C
                                    2075             +*                             FOR 2302 DISK STORAGE)               @11A
                                    2076    01-DCBD  +DCBDV321 EQU   X'25'          2321 DATA CELL STORAGE           @ZA46311
                                    2077    01-DCBD  +DCBD1305 EQU   X'26'          2305 DRUM MODEL-1                @ZA46311
                                    2078    01-DCBD  +DCBDV305 EQU   X'27'          2305 DRUM MODEL-2                @ZA46311
                                    2079    01-DCBD  +DCBDV314 EQU   X'28'          2314/2319 DISK STORAGE FACILITY  @ZA46311
                                    2080    01-DCBD  +DCBDV330 EQU   X'29'          3330 DISK STORAGE FACILITY       @ZA46311
                                    2081             +*                             3330 MODEL-1                     @ZA46311
                                    2082             +*                             3330 MODEL-2                     @ZA46311
                                    2083             +*                             3333 MODEL-1                     @ZA46311
                                    2084    01-DCBD  +DCBDV340 EQU   X'2A'          3340/3344 DISK STORAGE FACILITY  @ZA46311
                                    2085    01-DCBD  +DCBDV350 EQU   X'2B'          3350 DISK STORAGE FACILITY       @ZA46311
                                    2086             +*                             MODELS A2, B2, AND C2            @ZA46311
                                    2087    01-DCBD  +DCBDV375 EQU   X'2C'          3375 DISK STORAGE FACILITY           @01A
                                    2088    01-DCBD  +DCBDV331 EQU   X'2D'          3330 MODEL-11 OR 3333 MODEL-11   @ZA46311
                                    2089             +*                             DISK STORAGE FACILITY            @ZA46311
                                    2090    01-DCBD  +DCBDV380 EQU   X'2E'          3380 DISK STORAGE FACILITY           @01A
                                    2091    01-DCBD  +DCBDV390 EQU   X'2F'          3390 DISK STORAGE FACILITY           @08A
 000012                             2092    01-DCBD  +DCBTRBAL DS    H              CODE INDICATING CAPACITY REMAINING ON
                                    2093             +*                             CURRENT TRACK AFTER A WRITE OPERATION.
                                    2094             +*                             VALID WHEN DCBOFLWR IS ON. FIELD IS
                                    2095             +*                             USED BY TRKCALC.                     @L5C
                                    2096             +***********************************************************************
                                    2097             +*                       ACCESS METHOD COMMON INTERFACE
                                    2098             +***********************************************************************
 000014                00014 00010  2099    01-DCBD  +         ORG   IHADCB+16
 000010                             2100    01-DCBD  +DCBRELB  DS    0F             SAME AS DCBREL BELOW
 000010                             2101    01-DCBD  +DCBKEYLE DS    FL1            KEY LENGTH OF DATA SET
 000011                             2102    01-DCBD  +DCBDEVT  DS    0C             DEVICE TYPE
                                    2103    01-DCBD  +DCBDVTRM EQU   X'4F'          TERMINAL.  (DD CONTAINS TERM=TS)
 000011                             2104    01-DCBD  +DCBREL   DS    FL3            NUMBER OF RELATIVE TRACKS OR BLOCKS IN
                                    2105             +*                             THIS DATA SET (BDAM)
 000014                             2106    01-DCBD  +DCBBUFCB DS    0A             ADDRESS OF BUFFER POOL CONTROL BLOCK
 000014                             2107    01-DCBD  +DCBBUFNO DS    FL1            NUMBER OF BUFFERS REQUIRED FOR THIS DATA
                                    2108             +*                             SET.  MAY RANGE FROM 0 TO 255.  IF
                                    2109             +*                             UNBLOCKED SPANNED RECORDS ARE USED,
                                    2110             +*                             NUMBER OF SEGMENT WORK AREAS REQUIRED
                                    2111             +*                             FOR THIS DATA SET.
 000015                             2112    01-DCBD  +DCBBUFCA DS    AL3            ADDRESS OF BUFFER POOL CONTROL BLOCK
 000018                             2113    01-DCBD  +DCBBUFL  DS    H              LENGTH OF BUFFER.  MAY RANGE FROM 0 TO
                                    2114             +*                             32,760.                              @L5C
 00001A                             2115    01-DCBD  +DCBDSORG DS    0BL2           DATA SET ORGANIZATION BEING USED
 00001A                             2116    01-DCBD  +DCBDSRG1 DS    BL1            FIRST BYTE OF DCBDSORG
                                    2117    01-DCBD  +DCBDSGIS EQU   DCBBIT0        IS - INDEXED SEQUENTIAL ORGANIZATION
                                    2118    01-DCBD  +DCBDSGPS EQU   DCBBIT1        PS - PHYSICAL SEQUENTIAL ORGANIZATION
                                    2119    01-DCBD  +DCBDSGDA EQU   DCBBIT2        DA - DIRECT ORGANIZATION
                                    2120    01-DCBD  +DCBDSGCX EQU   DCBBIT3        CX - BTAM OR QTAM LINE GROUP
                                    2121    01-DCBD  +DCBDSGPO EQU   DCBBIT6        PO - PARTITIONED ORGANIZATION
                                    2122    01-DCBD  +DCBDSGU  EQU   DCBBIT7        U  - UNMOVABLE, THE DATA CONTAINS
                                    2123             +*                                  LOCATION DEPENDENT INFORMATION
 00001B                             2124    01-DCBD  +DCBDSRG2 DS    BL1            SECOND BYTE OF DCBDSORG
1VAMT     (VAMT02) (09:45) (22MAR04) VAM/370 - ORVYL File System Batch Interface                                            Page   23
0Current Usings:  (CT,R10) (VDT,R11)
0D-Loc  Object Code    Addr1 Addr2  Stmt Lv Lineno    Source Statement           (Hibal 5, Asmedit 3.3)  HLASM R4.0  2004/03/22 09.45
+_____  ______ ____    _____ _____  ____ __ ______    ______ _________
0                                   2125    01-DCBD  +DCBDSGGS EQU   DCBBIT0        GS - GRAPHICS ORGANIZATION
                                    2126    01-DCBD  +DCBDSGTX EQU   DCBBIT1        TX - TCAM LINE GROUP
                                    2127    01-DCBD  +DCBDSGTQ EQU   DCBBIT2        TQ - TCAM MESSAGE QUEUE
                                    2128    01-DCBD  +DCBACBM  EQU   DCBBIT4        ALWAYS 0 IN DCB. ALWAYS 1 IN ACB     @L5C
                                    2129    01-DCBD  +DCBDSGTR EQU   DCBBIT5        TR - TCAM 3705
 00001C                             2130    01-DCBD  +DCBIOBAD DS    0A             ADDRESS OF IOB WHEN CHAINED SCHEDULING IS
                                    2131             +*                             USED OR FOR 1419/1275
 00001C                             2132    01-DCBD  +DCBICQE  DS    0A             ADDRESS OF ICQE
 00001C                             2133    01-DCBD  +DCBODEB  DS    0A             ADDRESS OF OLD DEB
 00001C                             2134    01-DCBD  +DCBLNP   DS    0FL1           3525 PRINTER LINE POSITION COUNTER
                                    2135             +*                                                                  @07D
 00001C                             2136    01-DCBD  +DCBQSLM  DS    BL1            QSAM LOCATE MODE LOGICAL RECORD INTERFACE
                                    2137             +*                             INDICATOR BYTE FOR UPDAT PROCESSING OF
                                    2138             +*                             SPANNED RECORDS
                                    2139    01-DCBD  +DCB1DVDS EQU   DCBBIT0        ONLY ONE DEVICE IS ALLOCATED TO THIS
                                    2140             +*                             DATA SET
                                    2141    01-DCBD  +DCBUPDCM EQU   DCBBIT1        UPDATE COMPLETE, FREE OLD DEB
                                    2142    01-DCBD  +DCBUPDBT EQU   DCBBIT2+DCBBIT3   UPDATE BITS
                                    2143    01-DCBD  +DCBUPDT  EQU   DCBBIT2        UPDATE TO TAKE PLACE
                                    2144    01-DCBD  +DCBNUPD  EQU   DCBBIT2+DCBBIT3   NO UPDATE TO TAKE PLACE
                                    2145    01-DCBD  +DCBSVDEB EQU   DCBBIT3        OLD DEB ADDRESS MUST BE SAVED
 00001D                             2146    01-DCBD  +DCBIOBAA DS    0AL3           SAME AS DCBIOBAD ABOVE
 00001D                             2147    01-DCBD  +DCBICQEA DS    0AL3           SAME AS DCBICQE ABOVE
 00001D                             2148    01-DCBD  +DCBODEBA DS    AL3            ADDRESS OF OLD DEB
 000020                00020 0001C  2149    01-DCBD  +         ORG   IHADCB+28
 00001C                             2150    01-DCBD  +DCBSVCXL DS    0A             SAME AS DCBSVCXA BELOW
 00001C                             2151    01-DCBD  +         DS    X              RESERVED
 00001D                             2152    01-DCBD  +DCBSVCXA DS    AL3            POINTER TO EXIT LIST OF JES
                                    2153             +*                             C.I. INTERFACE CONTROL SVC
                                    2154             +***********************************************************************
                                    2155             +*                       FOUNDATION EXTENSION
                                    2156             +***********************************************************************
 000020                             2157    01-DCBD  +DCBEODAD DS    0A             SAME AS DCBEODA BELOW
 000020                             2158    01-DCBD  +DCBHIARC DS    0BL1           HIERARCHY BITS
 000020                             2159    01-DCBD  +DCBBFTEK DS    0BL1           BUFFERING TECHNIQUE BITS
 000020                             2160    01-DCBD  +DCBBFALN DS    BL1            BUFFER ALIGNMENT BITS
                                    2161    01-DCBD  +DCBH1    EQU   DCBBIT0        HIERARCHY 1 MAIN STORAGE IF BIT5 IS ZERO.
                                    2162             +*                             DCBE EXISTS IF BIT5 IS ON.           @L5A
                                    2163             +*              INTERPRETATION OF BITS DCBH1 AND DCBH0:             @L5A
                                    2164             +*                 DCBH1 DCBH0                                      @L5A
                                    2165             +*                   0     0   -  NO HIARCHY,  NO DCBE.             @L5A
                                    2166             +*                   1     0   -  HIARCHY=1,   NO DCBE.             @L5A
                                    2167             +*                   0     1   -  HIARCHY=0,   NO DCBE.             @L5A
                                    2168             +*                   1     1   -  NO HIARCHY,  DCBE EXISTS, POINTED @L5A
                                    2169             +*                                             TO BY DCBDCBE        @L5A
                                    2170    01-DCBD  +DCBBFT   EQU   DCBBIT1+DCBBIT2+DCBBIT3 BUFFERING TECHNIQUE
                                    2171    01-DCBD  +DCBBFTA  EQU   DCBBIT1+DCBBIT2   QSAM LOCATE MODE PROCESSING OF SPANNED
                                    2172             +*                             RECORDS - OPEN IS TO CONSTRUCT A RECORD
                                    2173             +*                             AREA IF IT AUTOMATICALLY CONSTRUCTS
                                    2174             +*                             BUFFERS
                                    2175    01-DCBD  +DCBBFTR  EQU   DCBBIT2        FOR BSAM CREATE BDAM PROCESSING OF
                                    2176             +*                             UNBLOCKED SPANNED RECORDS - SOFTWARE
                                    2177             +*                             TRACK OVERFLOW.  FOR BSAM INPUT
                                    2178             +*                             PROCESSING OF UNBLOCKED SPANNED RECORDS
1VAMT     (VAMT02) (09:45) (22MAR04) VAM/370 - ORVYL File System Batch Interface                                            Page   24
0Current Usings:  (CT,R10) (VDT,R11)
0D-Loc  Object Code    Addr1 Addr2  Stmt Lv Lineno    Source Statement           (Hibal 5, Asmedit 3.3)  HLASM R4.0  2004/03/22 09.45
+_____  ______ ____    _____ _____  ____ __ ______    ______ _________
0                                   2179             +*                             WITH KEYS - RECORD OFFSET PROCESSING.
                                    2180    01-DCBD  +DCBBFTS  EQU   DCBBIT1        SIMPLE BUFFERING - BIT 3 IS ZERO
                                    2181    01-DCBD  +DCBBFTKR EQU   DCBBIT2        UNBLOCKED SPANNED RECORDS - SOFTWARE
                                    2182             +*                             TRACK OVERFLOW (BDAM)
                                    2183    01-DCBD  +DCBBFTE  EQU   DCBBIT3        EXCHANGE BUFFERING - BIT 1 IS ZERO
                                    2184    01-DCBD  +DCBBFTKD EQU   DCBBIT4        DYNAMIC BUFFERING (BTAM)
                                    2185    01-DCBD  +DCBBFTK  EQU   DCBBIT4        LRECL  IN 'K' UNITS FOR XLRI         @L2A
                                    2186    01-DCBD  +DCBBXLRI EQU   DCBBIT1+DCBBIT2+DCBBIT4   EXTENDED LOGICAL RECORD   @L2A
                                    2187             +*                                      INTERFACE MODE FOR SPANNED  @L2A
                                    2188             +*                                      RECORDS GREATER THAN 32K -  @L2A
                                    2189             +*                                      ALL RECORDS TRANSFERRED TO  @L2A
                                    2190             +*                                      OR FROM THE RECORD AREA.    @L2A
                                    2191    01-DCBD  +DCBH0    EQU   DCBBIT5        HIERARCHY 0 MAIN STORAGE IF BIT0 IS ZERO
                                    2192             +*                             DCBE EXISTS IF BIT0 IS ON. SEE DCBH1 @L5A
                                    2193    01-DCBD  +DCBBFA   EQU   DCBBIT6+DCBBIT7   BUFFER ALIGNMENT
                                    2194    01-DCBD  +DCBBFAD  EQU   DCBBIT6        DOUBLEWORD BOUNDARY
                                    2195    01-DCBD  +DCBBFAF1 EQU   DCBBIT7        FULLWORD NOT A DOUBLEWORD BOUNDARY,
                                    2196             +*                             CODED IN DCB MACRO INSTRUCTION
                                    2197    01-DCBD  +DCBBFAF2 EQU   DCBBIT6+DCBBIT7   FULLWORD NOT A DOUBLEWORD BOUNDARY,
                                    2198             +*                             CODED IN DCB MACRO INSTRUCTION
 000021                             2199    01-DCBD  +DCBEODA  DS    AL3            ADDRESS OF A USER-PROVIDED ROUTINE TO
                                    2200             +*                             HANDLE END-OF-DATA CONDITIONS
 000024                             2201    01-DCBD  +DCBEXLST DS    0A             ADDRESS OF USER-PROVIDED LIST OF EXITS
 000024                             2202    01-DCBD  +DCBRECFM DS    BL1            RECORD FORMAT
                                    2203    01-DCBD  +DCBRECLA EQU   DCBBIT0+DCBBIT1+DCBBIT2 RECORD LENGTH INDICATOR - ASCII
                                    2204    01-DCBD  +DCBRECD  EQU   DCBBIT2        ASCII VARIABLE RECORD LENGTH
                                    2205    01-DCBD  +DCBRECL  EQU   DCBBIT0+DCBBIT1   RECORD LENGTH INDICATOR
                                    2206    01-DCBD  +DCBRECF  EQU   DCBBIT0        FIXED RECORD LENGTH
                                    2207    01-DCBD  +DCBRECV  EQU   DCBBIT1        VARIABLE RECORD LENGTH
                                    2208    01-DCBD  +DCBRECU  EQU   DCBBIT0+DCBBIT1   UNDEFINED RECORD LENGTH
                                    2209    01-DCBD  +DCBRECTO EQU   DCBBIT2        TRACK OVERFLOW
                                    2210    01-DCBD  +DCBRECBR EQU   DCBBIT3        BLOCKED RECORDS
                                    2211    01-DCBD  +DCBRECSB EQU   DCBBIT4        FOR FIXED LENGTH RECORD FORMAT - STANDARD
                                    2212             +*                             BLOCKS.  FOR VARIABLE LENGTH RECORD
                                    2213             +*                             FORMAT - SPANNED RECORDS
                                    2214    01-DCBD  +DCBRECCC EQU   DCBBIT5+DCBBIT6   CONTROL CHARACTER INDICATOR
                                    2215    01-DCBD  +DCBRECCA EQU   DCBBIT5        ASA CONTROL CHARACTER
                                    2216    01-DCBD  +DCBRECCM EQU   DCBBIT6        MACHINE CONTROL CHARACTER
                                    2217    01-DCBD  +DCBRECC  EQU   X'00'          NO CONTROL CHARACTER
                                    2218    01-DCBD  +DCBRECKL EQU   DCBBIT7        KEY LENGTH (KEYLEN) WAS SPECIFIED IN DCB
                                    2219             +*                             MACRO INSTRUCTION
 000025                             2220    01-DCBD  +DCBEXLSA DS    AL3            ADDRESS OF USER-PROVIDED LIST OF EXITS
                                    2221             +***********************************************************************
                                    2222             +*                       FOUNDATION BEFORE OPEN
                                    2223             +***********************************************************************
 000028                00028 00028  2224    01-DCBD  +         ORG   IHADCB+40
 000028                             2225    01-DCBD  +DCBDDNAM DS    CL8            NAME ON THE DD STATEMENT WHICH DEFINES
                                    2226             +*                             THE DATA SET ASSOCIATED WITH THIS DCB
 000030                             2227    01-DCBD  +DCBOFLGS DS    BL1            FLAGS USED BY OPEN ROUTINE
                                    2228    01-DCBD  +DCBOFLWR EQU   DCBBIT0        IF ZERO, LAST I/O OPERATION WAS READ OR
                                    2229             +*                             POINT.  IF ONE, LAST I/O OPERATION WAS
                                    2230             +*                             WRITE.
                                    2231    01-DCBD  +DCBOFIOD EQU   DCBBIT0        DATA SET IS BEING OPENED FOR INPUT OR
                                    2232             +*                             OUTPUT (BDAM)
1VAMT     (VAMT02) (09:45) (22MAR04) VAM/370 - ORVYL File System Batch Interface                                            Page   25
0Current Usings:  (CT,R10) (VDT,R11)
0D-Loc  Object Code    Addr1 Addr2  Stmt Lv Lineno    Source Statement           (Hibal 5, Asmedit 3.3)  HLASM R4.0  2004/03/22 09.45
+_____  ______ ____    _____ _____  ____ __ ______    ______ _________
0                                   2233    01-DCBD  +DCBOFLRB EQU   DCBBIT1        LAST I/O OPERATION WAS IN READ BACKWARD
                                    2234             +*                             MODE
                                    2235    01-DCBD  +DCBOFEOV EQU   DCBBIT2        SET TO 1 BY EOV WHEN IT CALLS CLOSE
                                    2236             +*                             ROUTINE FOR CONCATENATION OF DATA SETS
                                    2237             +*                             WITH UNLIKE ATTRIBUTES
                                    2238    01-DCBD  +DCBOFOPN EQU   DCBBIT3        AN OPEN HAS BEEN SUCCESSFULLY COMPLETED
                                    2239    01-DCBD  +DCBOFPPC EQU   DCBBIT4        SET TO 1 BY PROBLEM PROGRAM TO INDICATE A
                                    2240             +*                             CONCATENATION OF UNLIKE ATTRIBUTES
                                    2241    01-DCBD  +DCBOFTM  EQU   DCBBIT5        TAPE MARK HAS BEEN READ
                                    2242    01-DCBD  +DCBOFUEX EQU   DCBBIT6        SET TO 0 BY AN I/O SUPPORT FUNCTION WHEN
                                    2243             +*                             THAT FUNCTION TAKES A USER EXIT. SET TO 1
                                    2244             +*                             ON RETURN FROM USER EXIT TO THE I/O
                                    2245             +*                             SUPPORT FUNCTION WHICH TOOK THE EXIT.
                                    2246    01-DCBD  +DCBOLOCK EQU   DCBOFUEX       SAME USE AS DCBOFUEX                 @LAA
                                    2247    01-DCBD  +DCBOFIOF EQU   DCBBIT7        SET TO 1 BY AN I/O SUPPORT FUNCTION IF
                                    2248             +*                             DCB IS TO BE PROCESSED BY THAT FUNCTION
                                    2249    01-DCBD  +DCBOBUSY EQU   DCBOFIOF       SAME USE AS DCBOFIOF                 @LAA
 000031                             2250    01-DCBD  +DCBIFLG  DS    BL1            FLAGS USED BY IOS IN COMMUNICATING ERROR
                                    2251             +*                             CONDITIONS AND IN DETERMINING CORRECTIVE
                                    2252             +*                             PROCEDURES
                                    2253    01-DCBD  +DCBIBEC  EQU   DCBBIT0+DCBBIT1   ERROR CORRECTION INDICATOR
                                    2254    01-DCBD  +DCBIFNEP EQU   X'00'          NOT IN ERROR PROCEDURE
                                    2255    01-DCBD  +DCBEX    EQU   DCBBIT1        ERROR CORRECTION OR IOS PAGE FIX IN
                                    2256             +*                             PROCESS
                                    2257    01-DCBD  +DCBIFPEC EQU   DCBBIT0+DCBBIT1   PERMANENT ERROR CORRECTION
                                    2258    01-DCBD  +DCBIBPCT EQU   DCBBIT2+DCBBIT3   PRINTER CARRIAGE TAPE PUNCH INDICATOR
                                    2259    01-DCBD  +DCBIFC9  EQU   DCBBIT2        CHANNEL 9 PRINTER CARRIAGE TAPE PUNCH
                                    2260             +*                             SENSED
                                    2261    01-DCBD  +DCBIFC12 EQU   DCBBIT3        CHANNEL 12 PRINTER CARRIAGE TAPE PUNCH
                                    2262             +*                             SENSED
                                    2263    01-DCBD  +DCBIBIOE EQU   DCBBIT4+DCBBIT5   IOS ERROR ROUTINE USE INDICATOR
                                    2264    01-DCBD  +DCBIFER  EQU   X'00'          ALWAYS USE I/O SUPERVISOR ERROR ROUTINE
                                    2265    01-DCBD  +DCBIFNE1 EQU   DCBBIT5        NEVER USE I/O SUPERVISOR ERROR ROUTINE
                                    2266    01-DCBD  +DCBIFTIM EQU   DCBBIT5        TEST IOS MASK (IMSK) FOR ERROR PROCEDURE
                                    2267             +*                             (BTAM)
                                    2268    01-DCBD  +DCBIFNE2 EQU   DCBBIT4        NEVER USE I/O SUPERVISOR ERROR ROUTINE
                                    2269    01-DCBD  +DCBIFNE3 EQU   DCBBIT4+DCBBIT5   NEVER USE I/O SUPERVISOR ERROR ROUTINE
 000032                             2270    01-DCBD  +DCBMACR  DS    0BL2           MACRO INSTRUCTION REFERENCE
 000032                             2271    01-DCBD  +DCBMACR1 DS    BL1            FIRST BYTE OF DCBMACR
                                    2272    01-DCBD  +DCBMRECP EQU   DCBBIT0        EXECUTE CHANNEL PROGRAM (EXCP) ---
                                    2273             +*                             ALWAYS ZERO (BSAM, QSAM, BPAM, BISAM,
                                    2274             +*                             QISAM, BDAM) --- RESERVED (QTAM, BTAM)
                                    2275    01-DCBD  +DCBMRFE  EQU   DCBBIT1        FOUNDATION EXTENSION IS PRESENT (EXCP)
                                    2276    01-DCBD  +DCBMRGET EQU   DCBBIT1        GET (QSAM, QISAM, TCAM)
                                    2277    01-DCBD  +DCBMRPTQ EQU   DCBBIT1        PUT FOR MESSAGE GROUP (QTAM) ---
                                    2278             +*                             ALWAYS ZERO (BSAM, BPAM, BISAM, BDAM) ---
                                    2279             +*                             RESERVED (BTAM)
                                    2280    01-DCBD  +DCBMRAPG EQU   DCBBIT2        APPENDAGES ARE REQUIRED (EXCP)
                                    2281    01-DCBD  +DCBMRRD  EQU   DCBBIT2        READ (BSAM, BPAM, BISAM, BDAM, BTAM)
                                    2282    01-DCBD  +DCBMRWRQ EQU   DCBBIT2        WRITE FOR LINE GROUP (QTAM) ---
                                    2283             +*                             ALWAYS ZERO (QSAM, QISAM)
                                    2284    01-DCBD  +DCBMRCI  EQU   DCBBIT3        COMMON INTERFACE (EXCP)
                                    2285    01-DCBD  +DCBMRMVG EQU   DCBBIT3        MOVE MODE OF GET (QSAM, QISAM)
                                    2286    01-DCBD  +DCBMRRDK EQU   DCBBIT3        KEY SEGMENT WITH READ (BDAM) ---
1VAMT     (VAMT02) (09:45) (22MAR04) VAM/370 - ORVYL File System Batch Interface                                            Page   26
0Current Usings:  (CT,R10) (VDT,R11)
0D-Loc  Object Code    Addr1 Addr2  Stmt Lv Lineno    Source Statement           (Hibal 5, Asmedit 3.3)  HLASM R4.0  2004/03/22 09.45
+_____  ______ ____    _____ _____  ____ __ ______    ______ _________
0                                   2287             +*                             ALWAYS ZERO (BISAM) ---
                                    2288             +*                             RESERVED (BSAM, BPAM, QTAM, BTAM)
                                    2289    01-DCBD  +DCBMRLCG EQU   DCBBIT4        LOCATE MODE OF GET (QSAM, QISAM)
                                    2290    01-DCBD  +DCBMRRDI EQU   DCBBIT4        ID ARGUMENT WITH READ (BDAM) ---
                                    2291             +*                             ALWAYS ZERO (BISAM) ---
                                    2292             +*                             RESERVED (EXCP, BSAM, BPAM, QTAM, BTAM)
                                    2293    01-DCBD  +DCBMRABC EQU   DCBBIT5        USER'S PROGRAM MAINTAINS ACCURATE BLOCK
                                    2294             +*                             COUNT (EXCP)
                                    2295    01-DCBD  +DCBMRPT1 EQU   DCBBIT5        POINT (WHICH IMPLIES NOTE) (BSAM, BPAM)
                                    2296    01-DCBD  +DCBMRSBG EQU   DCBBIT5        SUBSTITUTE MODE OF GET (QSAM)
                                    2297    01-DCBD  +DCBMRDBF EQU   DCBBIT5        DYNAMIC BUFFERING (BISAM, BDAM) ---
                                    2298             +*                             ALWAYS ZERO (QISAM) ---
                                    2299             +*                             RESERVED (QTAM, BTAM)
                                    2300    01-DCBD  +DCBPGFXA EQU   DCBBIT6        PAGE FIX APPENDAGE IS SPECIFIED (EXCP)
                                    2301    01-DCBD  +DCBMRCRL EQU   DCBBIT6        CNTRL (BSAM, QSAM)
                                    2302    01-DCBD  +DCBMRCHK EQU   DCBBIT6        CHECK (BISAM)
                                    2303    01-DCBD  +DCBMRRDX EQU   DCBBIT6        READ EXCLUSIVE (BDAM) ---
                                    2304             +*                             RESERVED (BPAM, QISAM, QTAM, BTAM)
                                    2305    01-DCBD  +DCBMRDMG EQU   DCBBIT7        DATA MODE OF GET (QSAM)
                                    2306    01-DCBD  +DCBMRCK  EQU   DCBBIT7        CHECK (BDAM) --- RESERVED (EXCP, BSAM,
                                    2307             +*                             BPAM, BISAM, QISAM, QTAM, BTAM)
 000033                             2308    01-DCBD  +DCBMACR2 DS    BL1            SECOND BYTE OF DCBMACR
                                    2309    01-DCBD  +DCBMRSTL EQU   DCBBIT0        SETL (QISAM) --- ALWAYS ZERO (BSAM, QSAM,
                                    2310             +*                             BPAM, BISAM, BDAM) ---
                                    2311             +*                             RESERVED (EXCP, QTAM, BTAM)
                                    2312    01-DCBD  +DCBMRPUT EQU   DCBBIT1        PUT (QSAM, TCAM) - PUT OR PUTX (QISAM)
                                    2313    01-DCBD  +DCBMRGTQ EQU   DCBBIT1        GET FOR MESSAGE GROUP (QTAM) ---
                                    2314             +*                             ALWAYS ZERO (BSAM, BPAM, BISAM, BDAM) ---
                                    2315             +*                             RESERVED (EXCP, BTAM)
                                    2316    01-DCBD  +DCBMRWRT EQU   DCBBIT2        WRITE (BSAM, BPAM, BISAM, BDAM, BTAM)
                                    2317    01-DCBD  +DCBMRRDQ EQU   DCBBIT2        READ FOR LINE GROUP (QTAM) ---
                                    2318             +*                             ALWAYS ZERO (QSAM, QISAM) ---
                                    2319             +*                             RESERVED (EXCP)
                                    2320    01-DCBD  +DCBMRMVP EQU   DCBBIT3        MOVE MODE OF PUT (QSAM, QISAM)
                                    2321    01-DCBD  +DCBMRWRK EQU   DCBBIT3        KEY SEGMENT WITH WRITE (BDAM) ---
                                    2322             +*                             ALWAYS ZERO (BISAM) ---
                                    2323             +*                             RESERVED (EXCP, BSAM, BPAM, QTAM, BTAM)
                                    2324    01-DCBD  +DCBMR5WD EQU   DCBBIT4        FIVE-WORD DEVICE INTERFACE (EXCP)
                                    2325    01-DCBD  +DCBMRLDM EQU   DCBBIT4        LOAD MODE BSAM (CREATE BDAM DATA SET)
                                    2326             +*                             (BSAM)
                                    2327    01-DCBD  +DCBMRLCP EQU   DCBBIT4        LOCATE MODE OF PUT (QSAM, QISAM)
                                    2328    01-DCBD  +DCBMRIDW EQU   DCBBIT4        ID ARGUMENT WITH WRITE (BDAM) ---
                                    2329             +*                             ALWAYS ZERO (BISAM) ---
                                    2330             +*                             RESERVED (BPAM, QTAM, BTAM)
                                    2331    01-DCBD  +DCBMR4WD EQU   DCBBIT5        FOUR-WORD DEVICE INTERFACE (EXCP)
                                    2332    01-DCBD  +DCBMRPT2 EQU   DCBBIT5        POINT (WHICH IMPLIES NOTE) (BSAM, BPAM)
                                    2333    01-DCBD  +DCBMRTMD EQU   DCBBIT5        SUBSTITUTE MODE (QSAM)
                                    2334    01-DCBD  +DCBMRUIP EQU   DCBBIT5        UPDATE IN PLACE (PUTX) (QISAM) ---
                                    2335             +*                             ALWAYS ZERO (BISAM) ---
                                    2336             +*                             RESERVED (BDAM, QTAM, BTAM)
                                    2337    01-DCBD  +DCBMR3WD EQU   DCBBIT6        THREE-WORD DEVICE INTERFACE (EXCP)
                                    2338    01-DCBD  +DCBMRCTL EQU   DCBBIT6        CNTRL (BSAM, QSAM)
                                    2339    01-DCBD  +DCBMRSTK EQU   DCBBIT6        SETL BY KEY (QISAM)
                                    2340    01-DCBD  +DCBMRAWR EQU   DCBBIT6        ADD TYPE OF WRITE (BDAM) ---
1VAMT     (VAMT02) (09:45) (22MAR04) VAM/370 - ORVYL File System Batch Interface                                            Page   27
0Current Usings:  (CT,R10) (VDT,R11)
0D-Loc  Object Code    Addr1 Addr2  Stmt Lv Lineno    Source Statement           (Hibal 5, Asmedit 3.3)  HLASM R4.0  2004/03/22 09.45
+_____  ______ ____    _____ _____  ____ __ ______    ______ _________
0                                   2341             +*                             ALWAYS ZERO (BISAM) ---
                                    2342             +*                             RESERVED (BPAM, QTAM, BTAM)
                                    2343    01-DCBD  +DCBMR1WD EQU   DCBBIT7        ONE-WORD DEVICE INTERFACE (EXCP)
                                    2344    01-DCBD  +DCBMRSWA EQU   DCBBIT7        USER'S PROGRAM HAS PROVIDED A SEGMENT
                                    2345             +*                             WORK AREA POOL (BSAM CREATE BDAM, BDAM)
                                    2346    01-DCBD  +DCBMRDMD EQU   DCBBIT7        DATA MODE (QSAM)
                                    2347    01-DCBD  +DCBMRSTI EQU   DCBBIT7        SETL BY ID (QISAM) ---
                                    2348             +*                             ALWAYS ZERO (BISAM) ---
                                    2349             +*                             RESERVED (BPAM, QTAM, BTAM)
                                    2350             +*        AIF   (NOT &DSORGXE).C8A8                                 @L1A
                                    2351    01-DCBD  +DCBLNGXE EQU   *-IHADCB       LENGTH OF DCB FOR EXCP WITH          @L1A
                                    2352             +*                             EXTENSION INTERFACE                  @L1A
                                    2353             +***********************************************************************
                                    2354             +*                       FOUNDATION AFTER OPEN
                                    2355             +***********************************************************************
 000034                00034 00028  2356    01-DCBD  +         ORG   IHADCB+40
 000028                             2357    01-DCBD  +DCBTIOT  DS    AL2            OFFSET FROM TIOT ORIGIN TO TIOELNGH FIELD
                                    2358             +*                             IN TIOT ENTRY FOR DD STATEMENT ASSOCIATED
                                    2359             +*                             WITH THIS DCB
 00002A                             2360    01-DCBD  +DCBMACRF DS    0BL2           SAME AS DCBMACR BEFORE OPEN
 00002A                             2361    01-DCBD  +DCBMACF1 DS    BL1            FIRST BYTE OF DCBMACRF
 00002B                             2362    01-DCBD  +DCBMACF2 DS    BL1            SECOND BYTE OF DCBMACRF
 00002C                             2363    01-DCBD  +DCBDEBAD DS    0A             ADDRESS OF ASSOCIATED DEB
 00002C                             2364    01-DCBD  +DCBIFLGS DS    BL1            SAME AS DCBIFLG BEFORE OPEN
                                    2365    01-DCBD  +DCBIFEC  EQU   DCBBIT0+DCBBIT1   ERROR CORRECTION INDICATOR
                                    2366    01-DCBD  +DCBIFPCT EQU   DCBBIT2+DCBBIT3   PRINTER CARRIAGE TAPE PUNCH INDICATOR
                                    2367    01-DCBD  +DCBIFIOE EQU   DCBBIT4+DCBBIT5   IOS ERROR ROUTINE USE INDICATOR
                                    2368    01-DCBD  +DCBIFLDT EQU   DCBBIT6        POSSIBLE LOST DATA CONDITION     @42480LP
                                    2369             +*                             SUCH AS FOR A PRINTER            @42480LP
 00002D                             2370    01-DCBD  +DCBDEBA  DS    AL3            ADDRESS OF ASSOCIATED DEB
 000030                00030 00030  2371    01-DCBD  +         ORG   IHADCB+48
 000030                             2372    01-DCBD  +DCBGET   DS    0A             ADDRESS OF GET MODULE
 000030                             2373    01-DCBD  +DCBPUT   DS    0A             ADDRESS OF PUT MODULE            @ZA11086
 000030                             2374    01-DCBD  +DCBOFLG1 DS    BL1            SAME AS DCBOFLGS BEFORE OPEN     @ZA14562
 000031                             2375    01-DCBD  +DCBGETA  DS    0AL3           ADDRESS OF GET MODULE            @ZA11086
 000031                             2376    01-DCBD  +DCBPUTA  DS    AL3            ADDRESS OF PUT MODULE            @ZA11086
                                    2377             +***********************************************************************
                                    2378             +*                       QSAM-BSAM-BPAM COMMON INTERFACE
                                    2379             +***********************************************************************
 000034                00034 00034  2380    01-DCBD  +         ORG   IHADCB+52
 000034                             2381    01-DCBD  +DCBGERR  DS    0A             ADDRESS OF SYNCHRONIZING ROUTINE FOR GET
 000034                             2382    01-DCBD  +DCBPERR  DS    0A             ADDRESS OF SYNCHRONIZING ROUTINE FOR PUT
 000034                             2383    01-DCBD  +DCBCHECK DS    0A             ADDRESS OF CHECK MODULE
 000034                             2384    01-DCBD  +DCBOPTCD DS    BL1            OPTION CODES
                                    2385    01-DCBD  +DCBOPTW  EQU   DCBBIT0        WRITE VALIDITY CHECK (DASD)
                                    2386             +*                             (BSAM, BPAM, QSAM, ISAM, BDAM)
                                    2387    01-DCBD  +DCBOPTU  EQU   DCBBIT1        ALLOW DATA CHECK CAUSED BY INVALID
                                    2388             +*                             CHARACTER (1403 PRINTER WITH UCS FEATURE)
                                    2389             +*                             (BSAM, QSAM)
                                    2390             +*                             MSS WINDOW PROCESSING REQUESTED  @ZA37313
                                    2391             +*                             (BSAM, QSAM)                     @ZA37313
                                    2392    01-DCBD  +DCBOPTC  EQU   DCBBIT2        CHAINED SCHEDULING
                                    2393             +*                             (BSAM, BPAM, QSAM)
                                    2394    01-DCBD  +DCBOPTH  EQU   DCBBIT3        1287/1288 OPTICAL READER - HOPPER EMPTY
1VAMT     (VAMT02) (09:45) (22MAR04) VAM/370 - ORVYL File System Batch Interface                                            Page   28
0Current Usings:  (CT,R10) (VDT,R11)
0D-Loc  Object Code    Addr1 Addr2  Stmt Lv Lineno    Source Statement           (Hibal 5, Asmedit 3.3)  HLASM R4.0  2004/03/22 09.45
+_____  ______ ____    _____ _____  ____ __ ______    ______ _________
0                                   2395             +*                             EXIT (BSAM, BPAM)
                                    2396    01-DCBD  +DCBOPTO  EQU   DCBBIT3        1285/1287 OPTICAL READER - ON-LINE
                                    2397             +*                             CORRECTION (QSAM)
                                    2398    01-DCBD  +DCBBCKPT EQU   DCBBIT3        CHANNEL-END APPENDAGE IS TO BYPASS DOS
                                    2399             +*                             EMBEDDED CHECKPOINT RECORDS ON TAPE
                                    2400             +*                             (BSAM, QSAM)
                                    2401    01-DCBD  +DCBOPTQ  EQU   DCBBIT4        TRANSLATION TO OR FROM ASCII
                                    2402             +*                             (BSAM, BPAM, QSAM)
                                    2403    01-DCBD  +DCBOPTZ  EQU   DCBBIT5        MAGNETIC TAPE DEVICES - USE REDUCED ERROR
                                    2404             +*                             RECOVERY PROCEDURE (EXCP, BSAM, BPAM,
                                    2405             +*                             QSAM)
                                    2406    01-DCBD  +DCBSRCHD EQU   DCBBIT5        USE SEARCH DIRECT, INSTEAD OF SEARCH
                                    2407             +*                             PREVIOUS, ON RECORD POSITION SENSING
                                    2408             +*                             DEVICE  (EXCP, BSAM, BPAM, QSAM)
                                    2409    01-DCBD  +DCBOPTT  EQU   DCBBIT6        USER TOTALING (BSAM, QSAM)
                                    2410             +*
                                    2411             +*
                                    2412    01-DCBD  +DCBOPTJ  EQU   DCBBIT7        3800 PRINTER, OPTCD=J; (DYNAMIC  @Z40MSRZ
                                    2413             +*                             SELECT OF TRANSLATE TABLES)      @Z40MSRZ
 000035                             2414    01-DCBD  +DCBGERRA DS    0AL3           ADDRESS OF SYNCHRONIZING ROUTINE FOR GET
 000035                             2415    01-DCBD  +DCBPERRA DS    0AL3           ADDRESS OF SYNCHRONIZING ROUTINE FOR PUT
 000035                             2416    01-DCBD  +DCBCHCKA DS    AL3            ADDRESS OF CHECK MODULE
 000038                             2417    01-DCBD  +DCBSYNAD DS    0A             ADDRESS OF USER-PROVIDED SYNAD ROUTINE
 000038                             2418    01-DCBD  +DCBIOBL  DS    FL1            IOB LENGTH IN DOUBLE WORDS
 000039                             2419    01-DCBD  +DCBSYNA  DS    AL3            ADDRESS OF USER-PROVIDED SYNAD ROUTINE
 00003C                             2420    01-DCBD  +DCBFLAG1 DS    0BL1           TCAM APPLICATION PROGRAM FLAGS
                                    2421             +*                             (BSAM, BPAM, QSAM)
 00003C                             2422    01-DCBD  +DCBCIND1 DS    BL1            CONDITION INDICATORS
                                    2423    01-DCBD  +DCBCNTOV EQU   DCBBIT0        DIRECT ACCESS - TRACK OVERFLOW IN USE
                                    2424             +*                             (BSAM, BPAM, QSAM)
                                    2425             +*                             2540 CARD PUNCH - DATA SET WAS OPENED BUT
                                    2426             +*                             NO DATA WAS WRITTEN (QSAM)
                                    2427    01-DCBD  +DCBSTQCK EQU   DCBBIT0        STOP EQUAL QUICK WAS SPECIFIED FOR
                                    2428             +*                             APPLICATION PROG. DCBS (TCAM)
                                    2429    01-DCBD  +DCBSTFLS EQU   DCBBIT1        STOP EQUAL FLUSH WAS SPECIFIED FOR
                                    2430             +*                             APPLICATION PROG. DCBS (TCAM)
                                    2431    01-DCBD  +DCBCNSRD EQU   DCBBIT1        SEARCH DIRECT (BSAM, BPAM, QSAM)
                                    2432    01-DCBD  +DCBCNEVB EQU   DCBBIT2        END OF VOLUME - USED BY EOB ROUTINES
                                    2433             +*                             (BSAM, BPAM, QSAM)
                                    2434    01-DCBD  +DCBCNEVA EQU   DCBBIT3        END OF VOLUME - USED BY CHANNEL-END
                                    2435             +*                             APPENDAGE ROUTINES (BSAM, BPAM, QSAM)
                                    2436    01-DCBD  +DCBCNCI  EQU   DCBBIT4        SAM-SI COMPATABILITY INTERFACE (CI)
                                    2437             +*                             PROCESSING HAS BEEN PERFORMED (BSAM,
                                    2438             +*                             QSAM)                                @04A
                                    2439    01-DCBD  +DCBCNBRM EQU   DCBBIT5        BLOCKED RECORD BIT MODIFIED (BSAM,BPAM,
                                    2440             +*                             QSAM)
                                    2441    01-DCBD  +DCBCBNDF EQU   DCBBIT6 -      OPEN DEFAULTED BUFNO (QSAM)          @L7A
                                    2442    01-DCBD  +DCBCNEXB EQU   DCBBIT7        EXCHANGE BUFFERING SUPPORTED (QSAM)
                                    2443    01-DCBD  +DCBCDWDO EQU   DCBBIT7        INTERNAL USE ONLY, DCBOFFSW IS       @LBA
                                    2444             +*                               DOUBLE-WORD OFFSET                 @LBA
 00003D                             2445    01-DCBD  +DCBCIND2 DS    BL1            CONDITION INDICATORS
                                    2446    01-DCBD  +DCBCNSTO EQU   DCBBIT0        PARTITIONED DATA SET - STOW HAS BEEN
                                    2447             +*                             PERFORMED (BSAM, BPAM, QSAM)
                                    2448             +*                             SEQUENTIAL DATA SET - UPDATE (BSAM, BPAM)
1VAMT     (VAMT02) (09:45) (22MAR04) VAM/370 - ORVYL File System Batch Interface                                            Page   29
0Current Usings:  (CT,R10) (VDT,R11)
0D-Loc  Object Code    Addr1 Addr2  Stmt Lv Lineno    Source Statement           (Hibal 5, Asmedit 3.3)  HLASM R4.0  2004/03/22 09.45
+_____  ______ ____    _____ _____  ____ __ ______    ______ _________
0                                   2449    01-DCBD  +DCBCNWR0 EQU   DCBBIT1        DIRECT ORGANIZATION DATA SET - LAST I/O
                                    2450             +*                             WAS A WRITE RECORD ZERO
                                    2451             +*                             (BSAM, BPAM, QSAM)
                                    2452             +*                             SEQUENTIAL DATA SET - UPDATE EOF IS
                                    2453             +*                             INDICATED (BSAM, BPAM)
                                    2454    01-DCBD  +DCBCNCLO EQU   DCBBIT2        CLOSE IN PROCESS (QSAM)
                                    2455    01-DCBD  +DCBCNIOE EQU   DCBBIT3        PERMANENT I/O ERROR (BSAM, BPAM, QSAM)
                                    2456    01-DCBD  +DCBCNBFP EQU   DCBBIT4        OPEN ACQUIRED BUFFER POOL
                                    2457             +*                             (BSAM, BPAM, QSAM)
                                    2458    01-DCBD  +DCBCNCHS EQU   DCBBIT5        CHAINED SCHEDULING BEING SUPPORTED
                                    2459             +*                             (BSAM, BPAM, QSAM)
                                    2460    01-DCBD  +DCBCNFEO EQU   DCBBIT6        FEOV BIT (BSAM, BPAM, QSAM)
                                    2461    01-DCBD  +DCBCNQSM EQU   DCBBIT7        ALWAYS ZERO (BSAM, BPAM)
                                    2462             +*                             THIS IS A QSAM DCB (QSAM)
 00003E                             2463    01-DCBD  +DCBBLKSI DS    H              MAXIMUM BLOCK SIZE
 000040                             2464    01-DCBD  +DCBWCPO  DS    AL1            OFFSET OF WRITE CHANNEL PROGRAM FROM THE
                                    2465             +*                             START OF IOB
 000041                             2466    01-DCBD  +DCBWCPL  DS    FL1            LENGTH OF WRITE CHANNEL PROGRAM
 000042                             2467    01-DCBD  +DCBOFFSR DS    AL1            OFFSET OF READ CCW FROM BSAM/BPAM PREFIX
                                    2468             +*                             OF IOB
 000043                             2469    01-DCBD  +DCBOFFSW DS    AL1            OFFSET OF WRITE CCW FROM BSAM/BPAM PREFIX
                                    2470             +*                             OF IOB
 000044                             2471    01-DCBD  +DCBIOBA  DS    A              FOR NORMAL SCHEDULING, ADDRESS OF QSAM OR
                                    2472             +*                             BSAM/BPAM PREFIX OF IOB.  FOR CHAINED
                                    2473             +*                             SCHEDULING, ADDRESS OF ICB.  FOR
                                    2474             +*                             1419/1275, ADDRESS OF MAGNETIC INTERRUPT
                                    2475             +*                             CONTROL BLOCK (MICB) CURRENTLY BEING
                                    2476             +*                             PROCESSED BY READ ROUTINE.  FOR TSO
                                    2477             +*                             TERMINAL DATA SET OPENED FOR INPUT AND
                                    2478             +*                             FORMAT U, SIMULATED LOW-ORDER FOUR BYTES
                                    2479             +*                             OF IOBCSW
 000048                00048 00044  2480    01-DCBD  +         ORG   IHADCB+68                                           @L4A
 000044                             2481    01-DCBD  +         DS    X                                                   @L4A
 000045                             2482    01-DCBD  +DCBIOBB  DS    AL3            SAME AS DCBIOBA ABOVE                @L4A
 000048                00048 00044  2483    01-DCBD  +         ORG   IHADCB+68
 000044                             2484    01-DCBD  +DCBCICB  DS    0A             SAME AS DCBCICBA BELOW
 000044                             2485    01-DCBD  +         DS    X              INTERNAL ACCESS METHOD USE
 000045                             2486    01-DCBD  +DCBCICBA DS    AL3            POINTER TO JES C.I.
                                    2487             +*                             CONTROL BLOCK (CICB)
 000048                00048 00050  2488    01-DCBD  +         ORG   IHADCB+80
 000050                             2489    01-DCBD  +DCBDIRCT DS    0H             NUMBER OF BYTES USED IN LAST DIRECTORY
                                    2490             +*                             BLOCK (RANGE 0-254)  (BSAM, BPAM)
 000050                             2491    01-DCBD  +DCBQSWS  DS    0BL1           FLAG BYTE
                                    2492    01-DCBD  +DCBPOPEN EQU   DCBBIT5        QSAM PARALLEL INPUT PROCESSING
 000050                             2493    01-DCBD  +DCBUSASI DS    B              FLAG BYTE FOR ASCII TAPES
                                    2494    01-DCBD  +DCBBLBP  EQU   DCBBIT1        BLOCK PREFIX IS FOUR BYTE FIELD
                                    2495             +*                             CONTAINING BLOCK LENGTH IN UNPACKED
                                    2496             +*                             DECIMAL (SPECIFIED BY BUFFER=L).
                                    2497    01-DCBD  +DCBQADFS EQU   DCBBIT2+DCBBIT3+DCBBIT4 USED TO PERFORM SEQUENCE
                                    2498             +*                             CHECKING WITH MULTIPLE FUNCTION SUPPORT
                                    2499             +*                             FOR 3525 (BSAM, QSAM)
                                    2500    01-DCBD  +DCBQADF1 EQU   DCBBIT2        FIRST BIT OF DCBQADFS
                                    2501    01-DCBD  +DCBQADF2 EQU   DCBBIT3        SECOND BIT OF DCBQADFS
                                    2502    01-DCBD  +DCBQADF3 EQU   DCBBIT4        THIRD BIT OF DCBQADFS
1VAMT     (VAMT02) (09:45) (22MAR04) VAM/370 - ORVYL File System Batch Interface                                            Page   30
0Current Usings:  (CT,R10) (VDT,R11)
0D-Loc  Object Code    Addr1 Addr2  Stmt Lv Lineno    Source Statement           (Hibal 5, Asmedit 3.3)  HLASM R4.0  2004/03/22 09.45
+_____  ______ ____    _____ _____  ____ __ ______    ______ _________
0                                   2503    01-DCBD  +DCB3525A EQU   DCBBIT6        DCB IS 3525 - ASSOCIATED DATA
                                    2504             +*                             SETS EXIST
                                    2505    01-DCBD  +DCBQSTRU EQU   DCBBIT7        TRUNC ENTRY POINT ENTERED (QSAM)
 000051                             2506    01-DCBD  +DCBBUFOF DS    0FL1           BLOCK PREFIX LENGTH (0-99), SPECIFIED BY
                                    2507             +*                             BUFOFF=N OR BUFOFF=L
 000051                             2508    01-DCBD  +DCBDIRCQ DS    FL1            NUMBER OF BYTES USED IN LAST DIRECTORY
                                    2509             +*                             BLOCK (RANGE 0-254)  (QSAM)
                                    2510             +***********************************************************************
                                    2511             +*                       QSAM INTERFACE
                                    2512             +***********************************************************************
 000052                00052 00048  2513    01-DCBD  +         ORG   IHADCB+72
 000048                             2514    01-DCBD  +DCBLCCW  DS    0A             FOR EXCHANGE BUFFERING, ADDRESS OF LAST
                                    2515             +*                             CCW IN LIST
 000048                             2516    01-DCBD  +DCBEOBAD DS    A              FOR SIMPLE BUFFERING, ADDRESS OF LAST
                                    2517             +*                             BYTE OF CURRENT BUFFER
 00004C                             2518    01-DCBD  +DCBCCCW  DS    0A             FOR EXCHANGE BUFFERING, ADDRESS OF
                                    2519             +*                             CURRENT OR NEXT CCW
 00004C                             2520    01-DCBD  +DCBRECAD DS    0A             ADDRESS OF CURRENT OR NEXT LOGICAL RECORD
 00004C                             2521    01-DCBD  +         DS    XL1 -          DCBRECBT DELETED                     @L7C
 00004D                             2522    01-DCBD  +DCBRECA  DS    AL3            ADDRESS OF CURRENT OR NEXT LOGICAL RECORD
 000050                             2523    01-DCBD  +         DS    B              DCBQSWS - FLAG BYTE
 000051                             2524    01-DCBD  +         DS    FL1            DCBDIRCQ - NUMBER OF BYTES USED IN LAST
                                    2525             +*                             DIRECTORY BLOCK (RANGE 0-254)
 000052                             2526    01-DCBD  +DCBLRECL DS    H              LOGICAL RECORD LENGTH
 000054                             2527    01-DCBD  +DCBCNTRL DS    0A             ADDRESS OF CNTRL MODULE
 000054                             2528    01-DCBD  +DCBEROPT DS    BL1            ERROR OPTION
                                    2529    01-DCBD  +DCBERACC EQU   DCBBIT0        ACCEPT PERMANENT ERROR
                                    2530    01-DCBD  +DCBERSKP EQU   DCBBIT1        SKIP PERMANENT ERROR
                                    2531    01-DCBD  +DCBERABE EQU   DCBBIT2        ABNORMAL END OF TASK
                                    2532    01-DCBD  +DCBERBAM EQU   DCBBIT7        OPEN TURNED OFF BFTEK=A              @05A
 000055                             2533    01-DCBD  +DCBCNTRA DS    AL3            ADDRESS OF CNTRL MODULE
 000058                             2534    01-DCBD  +         DS    XL2            RESERVED
 00005A                             2535    01-DCBD  +DCBPRECL DS    H              FORMAT F RECORDS: BLOCK LENGTH
                                    2536             +*                             FORMAT U RECORDS: MAXIMUM BLOCK LENGTH
                                    2537             +*                             FORMAT V RECORDS:
                                    2538             +*                               UNSPANNED RECORDS: MAXIMUM BLOCK LENGTH
                                    2539             +*                               SPANNED RECORDS:
                                    2540             +*                                 PUT, NOT DATA MODE:
                                    2541             +*                                   MAXIMUM BOLCK LENGTH
                                    2542             +*                                 PUT, DATA MODE:
                                    2543             +*                                   DATA LENGTH
                                    2544             +*                                 GET:
                                    2545             +*                                   SEGMENT CONTROL CODE OF PREVIOUS
                                    2546             +*                                   SEGMENT
 00005C                             2547    01-DCBD  +DCBEOB   DS    A              ADDRESS OF END OF BLOCK MODULE
                                    2548    01-DCBD  +DCBLNGQS EQU   *-IHADCB       LENGTH OF DCB WITH QSAM INTERFACE    @L1A
                                    2549    01-DCBD  +DCBLNGPS EQU   *-IHADCB       LENGTH OF DCB WITH BSAM INTERFACE    @L1A
1VAMT     (VAMT02) (09:45) (22MAR04) VAM/370 - ORVYL File System Batch Interface                                            Page   31
0Current Usings:  (CT,R10) (VDT,R11)
0D-Loc  Object Code    Addr1 Addr2  Stmt Lv Lineno    Source Statement           (Hibal 5, Asmedit 3.3)  HLASM R4.0  2004/03/22 09.45
+_____  ______ ____    _____ _____  ____ __ ______    ______ _________
0                                   2552     322.     ********************************************************************
                                    2553     323.     *
                                    2554     324.     *     VAMENTER - ENTRY POINT FOR VAM "SVC" CALLS
                                    2555     325.     *
                                    2556     326.     ********************************************************************
0000015                00000 02638  2558     328.     VAMT     CSECT
 000015 00/0D70                     2560     329.     VAMENTER BASE  BR                      ##
 USING  *,R7
 000018 1841                        2574     330.              LR    QR,R1
 USING  VAMINFO,R4                  2575     331.              USING VAMINFO,QR              ##
 00001A 58A0 4004            00004  2584     332.              L     CTR,VAMCT               RESTORE CTR
 00001E 41D0 A34C            0034C  2585     333.              LA    R13,CTSVA
 000022 9620 A32C      0032C        2586     334.              SET   CTVAMACT                INDICATE VAM ACTIVE
 000026 5040 A024            00024  2592     335.              ST    QR,CTINFOP              SAVE THE INFO POINTER
 00002A 58C0 A028            00028  2593     336.              L     VCHR,CTVCHEAD           SET UP COMM. HEADER
 USING  VCHEAD,R12                  2594     337.              USING VCHEAD,VCHR             ##
 00002E                             2603     338.              CLEAR (VCHEAD,VCHLEN)         ZAP THE HEADER
 00002E D727 C000 C000 00000 00000  2609             +
 000034 4120 0001            00001  2610     339.              INCR  SR,CTSVCCNT             COUNT TOTAL VAM CALLS
 000038 5E20 A048            00048  2614             +
 00003C 5020 A048            00048  2615             +
 000040 5820 4014            00014  2616     340.              L     SR,PARMS
 000044 98E1 2000            00000  2617     341.              LM    R14,R1,@SR              RESTORE PARM REGS.
 000048 90E1 A0F8            000F8  2618     342.              STM   R14,R1,USER14           PRESET FOR RETURN
 00004C                             2619     343.              CLEAR USER15                  PREPARE FOR THE BEST
 00004C D703 A0FC A0FC 000FC 000FC  2625             +
 000052 12EE                        2626     344.              LTR   R14,R14
 000054 47B0 7046            0005E  2627     345.              BNM   POSR14
 000058 10EE                        2628     346.              LPR   R14,R14
 00005A 9610 C002      00002        2629     347.              SET   VCFNR14
 00005E 12FF                        2635     348.     POSR14   LTR   R15,R15
 000060 47B0 7052            0006A  2636     349.              BNM   POSR15
 000064 10FF                        2637     350.              LPR   R15,R15
 000066 9620 C002      00002        2638     351.              SET   VCFNR15
 00006A 1211                        2644     352.     POSR15   LTR   R1,R1
 00006C 47B0 705E            00076  2645     353.              BNM   POSR1
 000070 1011                        2646     354.              LPR   R1,R1
 000072 9640 C002      00002        2647     355.              SET   VCFNR1
 000076 1200                        2653     356.     POSR1    LTR   R0,R0
 000078 47B0 706E            00086  2654     357.              BNM   POSR0
 00007C 1000                        2655     358.              LPR   R0,R0
 00007E 9680 C002      00002        2656     359.              SET   VCFWAIT
 000082 5000 A100            00100  2662     360.              ST    R0,USER0                SAVE POSITIVE ID
1VAMT     (VAMT02) (09:45) (22MAR04) VAM/370 - ORVYL File System Batch Interface                                            Page   32
0Current Usings:  (VAMINFO,R4) (*,R7) (CT,R10) (VDT,R11) (VCHEAD,R12)
0Loc    Object Code    Addr1 Addr2  Stmt Lv Lineno    Source Statement           (Hibal 5, Asmedit 3.3)  HLASM R4.0  2004/03/22 09.45
+___    ______ ____    _____ _____  ____ __ ______    ______ _________
0000086 5820 4010/1222       00010  2664     362.     POSR0    LT    SR,VAMCODE              WHAT ARE WE GOING TO DO?
 00008C 4740 711A            00132  2668     363.              BM    ILLCODE                 NOTHING WITH A NEGATIVE CODE
 000090 5920 7DB8            00DD0  2669     364.              C     SR,=A(VTAHIGH)          OR ONE THAT'S TOO BIG
 000094 4720 711A            00132  2670     365.              BH    ILLCODE
 000098 1832                        2671     366.              LR    TR,SR
 00009A 8830 0002            00002  2672     367.              SRL   TR,2                    AND WE WANT A MULTIPLE OF 4
 00009E 8930 0002            00002  2673     368.              SLL   TR,2
 0000A2 1923                        2674     369.              CR    SR,TR
 0000A4 4770 711A            00132  2675     370.              BNE   ILLCODE
 DROP   VAMINFO,R4                  2676     371.              DROP  QR                      ##
 0000A8 4220 C000            00000  2683     372.              STC   SR,VCTRAN               SAVE TRANSACTION CODE
                                    2685     374.              GENVAM SR
 0000AC 47F2 7098            000B0  2704    01-GENVA +         B     *+4(SR)
 0000B0 47F0 718A            001A2  2706    02-GENLI +         B     VTAATTAC .              ATTACH DEVICE (249)
 0000B4 47F0 7C88            00CA0  2708    02-GENLI +         B     VTACOMMA .              PASS ORV/WYL/MIL COMMAND (254)
 0000B8 47F0 729E            002B6  2710    02-GENLI +         B     VTACONTR .              CONTROL DEVICE (245)
 0000BC 47F0 7484            0049C  2712    02-GENLI +         B     VTADETAC .              DETACH DEVICE (248)
 0000C0 47F0 7CE8            00D00  2714    02-GENLI +         B     VTAEXIT .               TERMINATE USER PROGRAM (253)
 0000C4 47F0 7CF2            00D0A  2716    02-GENLI +         B     VTAPANIC .              TERMINATE WITH ERROR CODE (252)
 0000C8 47F0 7C9A            00CB2  2718    02-GENLI +         B     VTAPAUSE .              TEMP SESSION INTERRUPT (255)
 0000CC 47F0 74DC            004F4  2720    02-GENLI +         B     VTAREAD .               READ FROM DEVICE (247)
 0000D0 47F0 75C8            005E0  2722    02-GENLI +         B     VTARELEA .              RELEASE EXCLUSIVE CONTROL (243)
 0000D4 47F0 7606            0061E  2724    02-GENLI +         B     VTARESER .              REQUEST EXCLUSIVE CONTROL (244)
 0000D8 47F0 7AF4            00B0C  2726    02-GENLI +         B     VTASENSE .              SENSE INFORMATION (250)
 0000DC 47F0 7B36            00B4E  2728    02-GENLI +         B     VTASET .                SET VARIOUS FIELDS (251)
 0000E0 47F0 76A4            006BC  2730    02-GENLI +         B     VTASTATU .              GLOBAL STATUS INFORMATION (241)
 0000E4 47F0 79A0            009B8  2732    02-GENLI +         B     VTAWAIT .               WAIT FOR COMPLETION (242)
 0000E8 47F0 7BAE            00BC6  2734    02-GENLI +         B     VTAWRITE .              WRITE TO DEVICE (246)
 0000EC 47F0 7CAC            00CC4  2736    02-GENLI +         B     VTAMILCO .              SEND COMMANDS TO MILTEN (238)
 0000F0 47F0 7116            0012E  2738    02-GENLI +         B     VTASERVI .              OS/FILE SERVICES  (240)
 0000F4 47F0 7A26            00A3E  2740    02-GENLI +         B     VTAENQUE .              ENQUEUE/DEQUEUE (239)
                                    2742    02-GENLI +VTAHIGH  EQU   68 .                    HIGHEST LEGAL VAM CODE
1VAMT     (VAMT02) (09:45) (22MAR04) VAM/370 - ORVYL File System Batch Interface                                            Page   33
0Current Usings:  (*,R7) (CT,R10) (VDT,R11) (VCHEAD,R12)
0Loc    Object Code    Addr1 Addr2  Stmt Lv Lineno    Source Statement           (Hibal 5, Asmedit 3.3)  HLASM R4.0  2004/03/22 09.45
+___    ______ ____    _____ _____  ____ __ ______    ______ _________
0                                   2745     377.     *
                                    2746     378.     *        SPECIFICATION EXCEPTION
                                    2747     379.     *
 0000F8                             2748     380.     SPEC     DS    0H
 0000F8 4100 0006            00006  2749     381.              LA    0,6                     SET SPEC EXCEPTION
 0000FC 47F0 70F8            00110  2750     382.              B     ABEND
                                    2751     383.     *
                                    2752     384.     *        MISSING WAIT
                                    2753     385.     *
 000100 4100 0010            00010  2754     386.     MISSWAIT LA    0,16                    MISSING WAIT CODE
 000104 47F0 70F8            00110  2755     387.              B     ABEND
                                    2756     388.     *
                                    2757     389.     *     NO FILE SYSTEM
                                    2758     390.     *
 000108 4100 03E7            003E7  2759     391.     VFSDEAD  LA    0,999
 00010C 47F0 70F8            00110  2760     392.              B     ABEND
                                    2761     393.     *
                                    2762     394.     *        ABEND THE POOR MISGUIDED SOUL
                                    2763     395.     *
 000110                             2764     396.     ABEND    DS    0H
 000110 94DF A32C      0032C        2765     397.              CLEAR CTVAMACT                INDICATE NO VAM DUMP
 000114 5840 A024            00024  2772     398.              L     QR,CTINFOP              GET VAMINFO POINTER
 USING  VAMINFO,R4                  2773     399.              USING VAMINFO,QR              ##
 000118 4120 4010            00010  2782     400.              LA    SR,GPRS                 POINT AT MOST GPRS
 00011C 5830 4014            00014  2783     401.              L     TR,PARMS                 AND USER PARAMETERS
 DROP   VAMINFO,R4                  2784     402.              DROP  QR                      ##
 000120 1810/4100 00C0       000C0  2791     403.              ABEND (0),DUMP,STEP
 000126 8900 0018/1610       00018  2797             +
 00012C 0A0D                        2799             +
0                                   2801     405.     *
                                    2802     406.     *        CLP ONLY SERVICES
                                    2803     407.     *
 00012E                             2804     408.     VTASERVI DS    0H
 00012E                             2805     409.     VTAHALT  DS    0H
 00012E                             2806     410.     VTACLPSE DS    0H
 00012E 47F0 711A            00132  2807     411.              B     ILLCODE
-
                                    2809     413.     *
                                    2810     414.     *        BAD ENTRY CODE
                                    2811     415.     *
 000132                             2812     416.     ILLCODE  DS    0H
 000132 4110 7D98            00DB0  2813     417.              VSEG  'ILLEGAL VAM CODE'
 000136 4100 0010            00010  2817             +
 00013A 5890 7DBC/0D99       00DD4  2820             +
 000140 5890 7DC0/0D99       00DD8  2822     418.              VWRITE  ,
 000146 4100 0F00            00F00  2827     419.              LA    R0,X'F00'               ABEND CODE 'ILLEGAL SVC'
 00014A 47F0 70F8            00110  2828     420.              B     ABEND                   BYE
1VAMT     (VAMT02) (09:45) (22MAR04) VAM/370 - ORVYL File System Batch Interface                                            Page   34
0Current Usings:  (*,R7) (CT,R10) (VDT,R11) (VCHEAD,R12)
0Loc    Object Code    Addr1 Addr2  Stmt Lv Lineno    Source Statement           (Hibal 5, Asmedit 3.3)  HLASM R4.0  2004/03/22 09.45
+___    ______ ____    _____ _____  ____ __ ______    ______ _________
0                                   2830     422.     *     SVC RETURN
                                    2831     423.     *
                                    2832     424.     *        RETURN TO USER
                                    2833     425.     *        PROPER REGS ARE IN USER14 -> USER1
                                    2834     426.     *
 00014E                             2835     427.     SVCRTN   DS    0H
 00014E 90E1 A050            00050  2836     428.              VTRACE SVCRTN,USER14,USER15,USER0,USER1
 000152 D203 A050 A0F8 00050 000F8  2838             +
 000158 D203 A054 A0FC 00054 000FC  2839             +
 00015E D203 A058 A100 00058 00100  2840             +
 000164 D203 A05C A104 0005C 00104  2841             +
 00016A 5090 A0A4            000A4  2842             +
 00016E 5890 7DC4/0D99       00DDC  2845             +
 000174 E2E5C3D9E3D54040            2847             +
 00017C 5890 A0A4            000A4  2848             +
 000180 5820 A024            00024  2849     429.              L     SR,CTINFOP              GET VAMINFO POINTER
 000184 94DF A32C      0032C        2850     430.              CLEAR CTVAMACT                VAM NOT ACTIVE
 USING  VAMINFO,R2                  2857     431.              USING VAMINFO,SR              ##
 000188 5810 2014            00014  2866     432.              L     R1,PARMS                GET POINTER TO USER REGS.
 00018C 58E0 2048            00048  2867     433.              L     R14,RETURN              RESTORE RETURN REGISTER
 000190 D20F 1000 A0F8 00000 000F8  2868     434.              MVC   @R1(16),USER14          SET RETURN REGS.
 000196 58F0 A0FC/12FF       000FC  2869     435.              LT    R15,USER15              SET CONDITION CODE
 00019C 982D 2018            00018  2873     436.              LM    SR,R13,GPRS+(SR*4)      RESTORE 2 -> 13
 0001A0 07FE                        2874     437.              BR    R14                     BYE, BYE
 DROP   VAMINFO,R2                  2875     438.              DROP  SR                      ##
1VAMT     (VAMT02) (09:45) (22MAR04) VAM/370 - ORVYL File System Batch Interface                                            Page   35
0Current Usings:  (*,R7) (CT,R10) (VDT,R11) (VCHEAD,R12)
0Loc    Object Code    Addr1 Addr2  Stmt Lv Lineno    Source Statement           (Hibal 5, Asmedit 3.3)  HLASM R4.0  2004/03/22 09.45
+___    ______ ____    _____ _____  ____ __ ______    ______ _________
0                                   2883     440.     *        ATTACH A DEVICE
                                    2884     441.     *
                                    2885     442.     *        TERMINAL (R0 =1)              RETURN OK, DON'T SEND ACROSS
                                    2886     443.     *
                                    2887     444.     *
                                    2888     445.     *        FILE     (R0 =2)              VCPARM1 := R0
                                    2889     446.     *          TEMPORARY (R1 =R15 =0)      VCDATAL := 0
                                    2890     447.     *
                                    2891     448.     *          PERMANENT                   VCFNAME := B1
                                    2892     449.     *                                      VCDATAL := L'VCFNAME
                                    2893     450.     *
 0001A2                             2894     451.     VTAATTAC DS    0H
 0001A2 9220 A32D      0032D        2895     452.              VAMTRACE ATTACH
 0001A6 90E1 A050            00050  2898             +
 0001AA 5090 A0A4            000A4  2899             +
 0001AE 5890 7DC4/0D99       00DDC  2902             +
 0001B4 C1E3E3C1C3C84040            2904             +
 0001BC 5890 A0A4            000A4  2905             +
 0001C0 5010 A104            00104  2906     453.              ST    R1,USER1                SAVE COMPLEMENTED VERSION
 0001C4 5000 C018            00018  2907     454.     ATPOSR1  ST    R0,VCPARM1              SET DEVICE CLASS
 0001C8 4900 7DE8            00E00  2908     455.              CH    R0,=Y(VDTTERMC)         CHECK CLASS CODE
 0001CC 4780 7276            0028E  2909     456.              BE    ATCHTERM                ATTACH MASTER TERMINAL
 0001D0 4740 70E0            000F8  2910     457.              BL    SPEC                    0 OR NEGATIVE CLASS NG
 0001D4 4900 7DEA            00E02  2911     458.              CH    R0,=Y(VDTFILEC)         MAKE SURE IT'S A FILE
 0001D8 4720 70E0            000F8  2912     459.              BH    SPEC                    SORRY, BUSTER
 0001DC 9240 C028      00028        2913     460.              MVI   VCFNAME,C' '            BLANK FILE NAME FIELD
 0001E0 D22A C029 C028 00029 00028  2914     461.              MVC   VCFNAME+1(L'VCFNAME-1),VCFNAME
 0001E6 49F0 7DEC            00E04  2915     462.              CH    R15,=Y(L'VCFNAME)       NAME TOO BIG?
 0001EA 4720 70E0            000F8  2916     463.              BH    SPEC                    YEP
 0001EE 50F0 C01C            0001C  2917     464.              ST    R15,VCPARM2             SAVE LENGTH
 0001F2 122F                        2918     465.              LTR   SR,R15                  IS IT ZERO?
 0001F4 4780 71EE            00206  2919     466.              BZ    ATCHCOMM                ZERO LENGTH FOR TEMP FILE
 0001F8 0620/4420 725A       00272  2920     467.              DEX   SR,ATCHMVC              MOVE IT IN
 0001FE D201 C024 7DEC 00024 00E04  2925     468.              MVC   VCDATAL,=Y(L'VCFNAME)   SET LENGTH FIELD
 000204 1B11                        2926     469.              CLEAR R1                      NO DATA FROM USER AREA
 000206 5890 7DC8/0D99       00DE0  2930     470.     ATCHCOMM ACALL SENDXACT                CALL OVAM
 00020C 5800 C014            00014  2934     471.              L     R0,VCDEVID              GET DEVICE ID OVAM SENT
 000210 9180 C003      00003        2935     472.              IF    ~VCRR15Z,ATBADRET       BAD RETURN FROM ATTACH
 000214 47E0 7260            00278  2947             +
 000218 5000 A100            00100  2953     473.              ST    R0,USER0                SEND BACK THE ID
 00021C 4D90 7D6A            00D82  2954     474.              LCALL GETVDT                  LOAD VDTR
 000220 9180 B000      00000        2956     475.              IF    ~VDTFA,ATVDTOK          SHOULDN'T BE ATTACHED
 000224 47E0 7226            0023E  2968             +
 000228 90E1 A050            00050  2974     476.              VKAPUT VDTATCH                TOO BAD IF IT IS
 00022C 5090 A0A4            000A4  2977             +
 000230 5890 7DC4/0D99       00DDC  2980             +
 000236 40E5C4E3C1E3C3C8            2982             +
 00023E                             2983     477.     ATVDTOK  CLEAR VDT                     CLEAR IT OUT
 00023E D74B B000 B000 00000 00000  2990             +
 000244 9202 B003      00003        2991     478.              MVI   VDTCLASS,VDTFILEC       SET FILE
 000248 9680 B000      00000        2992     479.              SET   VDTFA                   SET ATTACHED
 00024C 9620 B001      00001        2998     480.              SET   VDTFPOST                SET POST FLAG
 000250 D203 B014 C020 00014 00020  3004     481.              MVC   VDTR15,VCRETCOD         SET WAIT RETURN CODE
 000256 9604 B000      00000        3005     482.              SET   VDTFR15                 SET RETURN 15
1VAMT     (VAMT02) (09:45) (22MAR04) VAM/370 - ORVYL File System Batch Interface                                            Page   36
0Current Usings:  (*,R7) (CT,R10) (VDT,R11) (VCHEAD,R12)
0Loc    Object Code    Addr1 Addr2  Stmt Lv Lineno    Source Statement           (Hibal 5, Asmedit 3.3)  HLASM R4.0  2004/03/22 09.45
+___    ______ ____    _____ _____  ____ __ ______    ______ _________
000025A D22B B020 C028 00020 00028  3011     483.              MVC   VDTNAME,VCFNAME
 000260 5820 C020/1222       00020  3012     484.              LT    SR,VCRETCOD             GOOD ATTACH
 000266 4780 7136            0014E  3016     485.              BZ    SVCRTN                  YEP
 00026A 9608 B001      00001        3017     486.              SET   VDTFFIDT                TAKE IT AWAY
 00026E 47F0 7136            0014E  3023     487.              B     SVCRTN                  GO BACK TO USER
0000272 D200 C028 1000 00028 00000  3025     489.     ATCHMVC  MVC   VCFNAME(0),0(R1)        GET FILE NAME FROM USER
-
 000278 5820 C020/1222       00020  3027     491.     ATBADRET LT    SR,VCRETCOD             GET ATTACH RETURN CODE
 00027E 4740 726E            00286  3031     492.              BM    ATNOID                  NO ID ON MINUS RETURNS
 000282 5000 A100            00100  3032     493.              ST    R0,USER0                SAVE THE ID
 000286 5020 A0FC            000FC  3033     494.     ATNOID   ST    SR,USER15               GIVE HIM THE BAD NEWS
 00028A 47F0 7136            0014E  3034     495.              B     SVCRTN                  AND RETURN
-                                   3037     498.     *
                                    3038     499.     *        ATTACH THE MASTER TERMINAL
                                    3039     500.     *
 00028E 1211                        3040     501.     ATCHTERM LTR   R1,R1                   MUST BE ZERO
 000290 4770 70E0            000F8  3041     502.              BNZ   SPEC
 000294 58B0 A0F4            000F4  3042     503.              L     VDTR,CTVDTS             MASTER TERM IS FIRST ONE
 000298 9620 B001      00001        3043     504.              SET   VDTFPOST                SET POSTED
 00029C 9640 B001      00001        3049     505.              SET   VDTFWD                  WAIT IS OPTIONAL
 0002A0 9604 B000      00000        3055     506.              SET   VDTFR15                 RETURN 15 (=0)
 0002A4 94F7 B000      00000        3061     507.              CLEAR VDTFR14                 NO 14
 0002A8 94EF B000      00000        3068     508.              CLEAR VDTFR1                  OR 1
 0002AC                             3075     509.              CLEAR VDTR15
 0002AC D703 B014 B014 00014 00014  3081             +
 0002B2 47F0 7136            0014E  3082     510.              B     SVCRTN
1VAMT     (VAMT02) (09:45) (22MAR04) VAM/370 - ORVYL File System Batch Interface                                            Page   37
0Current Usings:  (*,R7) (CT,R10) (VDT,R11) (VCHEAD,R12)
0Loc    Object Code    Addr1 Addr2  Stmt Lv Lineno    Source Statement           (Hibal 5, Asmedit 3.3)  HLASM R4.0  2004/03/22 09.45
+___    ______ ____    _____ _____  ____ __ ______    ______ _________
0                                   3084     512.     *        CONTROL
                                    3085     513.     *
 0002B6                             3086     514.     VTACONTR DS    0H
 0002B6 9220 A32D      0032D        3087     515.              VAMTRACE CONTROL
 0002BA 90E1 A050            00050  3090             +
 0002BE 5090 A0A4            000A4  3091             +
 0002C2 5890 7DC4/0D99       00DDC  3094             +
 0002C8 C3D6D5E3D9D6D340            3096             +
 0002D0 5890 A0A4            000A4  3097             +
 0002D4 1821                        3098     516.              LR    SR,R1                   COPY TO MASH
 0002D6 4920 7DEE            00E06  3099     517.              CH    SR,=Y((NFILCD-FFILCD-4)/4) TOO BIG?
 0002DA 4720 70E0            000F8  3100     518.              BH    SPEC                    YEP
 0002DE 4D90 7D26            00D3E  3101     519.              LCALL SETVDT
 0002E2 9502 B003      00003        3103     520.              CLI   VDTCLASS,VDTFILEC       IS IT A FILE?
 0002E6 4770 70E0            000F8  3104     521.              BNE   SPEC                    DON'T KNOW NOTHING ELSE YET
 0002EA 5000 C014            00014  3105     522.              ST    R0,VCDEVID              SAVE DEVICE
 0002EE 4210 C001            00001  3106     523.              STC   R1,VCCODE               SAVE CONTROL CODE
 0002F2 1B11                        3107     524.              CLEAR R1                      MOST CONTROLS HAVE NO DATA
                                    3112     526.              GENCONT SR
 0002F4 8920 0002            00002  3113    01-GENCO +         SLL   SR,2                    MULT. BY 4
 0002F8 47F2 72E4            002FC  3114    01-GENCO +         B     *+4(SR)                 BLIP OFF
 0002FC 47F0 734C            00364  3115    01-GENCO +FFILCD   B     CREATR               0  CREATE BLOCK
 000300 47F0 734C            00364  3116    01-GENCO +         B     DELETR               1  DELETE BLOCK
 000304 47F0 7370            00388  3117    01-GENCO +         B     DELTRS               2  DELETE RANGE OF BLOCKS
 000308 47F0 734C            00364  3118    01-GENCO +         B     TESTRR               3  TEST EXISTENCE OF BLOCK
 00030C 47F0 7392            003AA  3119    01-GENCO +         B     SNFSRC               4  SENSE FIRST BLOCK NUMBER
 000310 47F0 7392            003AA  3120    01-GENCO +         B     SNLSRC               5  SENSE LAST BLOCK NUMBER
 000314 47F0 73AC            003C4  3121    01-GENCO +         B     SNNMRC               6  SENSE NUMBER OF BLOCKS
 000318 47F0 7360            00378  3122    01-GENCO +         B     WRFLNX               7  UPDATE FILE INDEX (FORCE IXR)
 00031C 47F0 73D0            003E8  3123    01-GENCO +         B     RENAME               8  RENAME/ERASE FILE
 000320 47F0 7410            00428  3124    01-GENCO +         B     GRPACC               9  EXTEND ACCESS TO ACCOUNT
 000324 47F0 734C            00364  3125    01-GENCO +         B     PUBACC              10  EXTEND ACCESS TO PUBLIC
 000328 47F0 7436            0044E  3126    01-GENCO +         B     SNPRIV              11  SENSE FILEMASK, PRIVILEGES
 00032C 47F0 734C            00364  3127    01-GENCO +         B     SETATT              12  SET SHARE/NOSHARE MODE
 000330 47F0 7360            00378  3128    01-GENCO +         B     SENATT              13  SENSE SHARE/NOSHARE MODE
 000334 47F0 746A            00482  3129    01-GENCO +         B     SETUIN              14  SET FD USER INFO FIELD
 000338 47F0 7392            003AA  3130    01-GENCO +         B     SENUIN              15  SENSE FD USER INFO FIELD
 00033C 47F0 734C            00364  3131    01-GENCO +         B     SETCLP              16  SET CLP/NOCLP
 000340 47F0 7360            00378  3132    01-GENCO +         B     SENCLP              17  SENSE CLP/NOCLP
 000344 47F0 734C            00364  3133    01-GENCO +         B     SETCLPO             18  SET CLP ONLY
 000348 47F0 734C            00364  3134    01-GENCO +         B     SENCLPO             19  SENSE CLP ONLY
 00034C 47F0 734C            00364  3135    01-GENCO +         B     SENTYPE             20  SENSE FILE TYPE
 000350 47F0 734C            00364  3136    01-GENCO +         B     SETSPI              21  SET SPIRES/NOSPIRES
 000354 47F0 7360            00378  3137    01-GENCO +         B     SENSPI              22  SENSE SPIRES ONLY
 000358 47F0 7392            003AA  3138    01-GENCO +         B     SENBKS              23  SENSE File Blocksize
 00035C 47F0 7392            003AA  3139    01-GENCO +         B     SENMAX              24  SENSE MAX NUMBER OF USER BLOCKS
 000360 47F0 734C            00364  3140    01-GENCO +         B     CONVHYBR            25  CONVERT TO HYBRID FILE
 000364                             3141    01-GENCO +NFILCD   DS    0H
1VAMT     (VAMT02) (09:45) (22MAR04) VAM/370 - ORVYL File System Batch Interface                                            Page   38
0Current Usings:  (*,R7) (CT,R10) (VDT,R11) (VCHEAD,R12)
0Loc    Object Code    Addr1 Addr2  Stmt Lv Lineno    Source Statement           (Hibal 5, Asmedit 3.3)  HLASM R4.0  2004/03/22 09.45
+___    ______ ____    _____ _____  ____ __ ______    ______ _________
0                                   3144     529.     *     CONTROLS - ONE PARM, ONLY R15 RETURNED
                                    3145     530.     *
                                    3146     531.     *        CREATE BLOCK
                                    3147     532.     *        DELETE BLOCK
                                    3148     533.     *        TEST FOR EXISTENCE OF BLOCK
                                    3149     534.     *        EXTEND ACCESS TO PUBLIC
                                    3150     535.     *        SET SHARE/NOSHARE MODE
                                    3151     536.     *        SET CLP/NOCLP
                                    3152     537.     *        CONVERT TO HYBRID FILE TYPE
                                    3153     538.     *
 000364                             3154     539.     CREATR   DS    0H          CONTROL  0
 000364                             3155     540.     DELETR   DS    0H          CONTROL  1
 000364                             3156     541.     TESTRR   DS    0H          CONTROL  3
 000364                             3157     542.     PUBACC   DS    0H          CONTROL 10
 000364                             3158     543.     SETATT   DS    0H          CONTROL 12
 000364                             3159     544.     SETCLP   DS    0H          CONTROL 16
 000364                             3160     545.     SETCLPO  DS    0H          CONTROL 18
 000364                             3161     546.     SENCLPO  DS    0H          CONTROL 19
 000364                             3162     547.     SENTYPE  DS    0H          CONTROL 20
 000364                             3163     548.     SETSPI   DS    0H          CONTROL 21
 000364                             3164     549.     CONVHYBR DS    0H          CONTROL 25
 000364 9160 C002      00002        3165     550.              IF    (VCFNR1+VCFNR15,NZ),SPEC
 000368 4770 70E0            000F8  3182             +
 00036C 50F0 C018            00018  3188     551.              ST    R15,VCPARM1
 000370 4D90 7634            0064C  3189     552.              LCALL RWCXACT
 000374 47F0 7136            0014E  3191     553.              B     SVCRTN
-
                                    3193     555.     *
                                    3194     556.     *   CONTROL - NO PARMS, ONLY R15 RETURNED
                                    3195     557.     *
                                    3196     558.     *        UPDATE FILE INDEX (FORCE IXR)
                                    3197     559.     *        SENSE SHARE ONLY
                                    3198     560.     *        SENSE CLP/NOCLP
                                    3199     561.     *
 000378                             3200     562.     WRFLNX   DS    0H          CONTROL  7
 000378                             3201     563.     SENATT   DS    0H          CONTROL 13
 000378                             3202     564.     SENCLP   DS    0H          CONTROL 17
 000378                             3203     565.     SENSPI   DS    0H          CONTROL 22
 000378 9140 C002      00002        3204     566.              IF    VCFNR1,SPEC
 00037C 4710 70E0            000F8  3216             +
 000380 4D90 7634            0064C  3222     567.              LCALL RWCXACT
 000384 47F0 7136            0014E  3224     568.              B     SVCRTN
1VAMT     (VAMT02) (09:45) (22MAR04) VAM/370 - ORVYL File System Batch Interface                                            Page   39
0Current Usings:  (*,R7) (CT,R10) (VDT,R11) (VCHEAD,R12)
0Loc    Object Code    Addr1 Addr2  Stmt Lv Lineno    Source Statement           (Hibal 5, Asmedit 3.3)  HLASM R4.0  2004/03/22 09.45
+___    ______ ____    _____ _____  ____ __ ______    ______ _________
0                                   3226     570.     *        DELETE A RANGE OF BLOCKS
                                    3227     571.     *
 000388                             3228     572.     DELTRS   DS    0H          CONTROL  2
 000388 9170 C002      00002        3229     573.              IF    (VCFNR1+VCFNR15+VCFNR14,NZ),SPEC
 00038C 4770 70E0            000F8  3250             +
 000390 50F0 C018            00018  3256     574.              ST    R15,VCPARM1             FIRST BLOCK TO DELETE
 000394 50E0 C01C            0001C  3257     575.              ST    R14,VCPARM2             LAST BLOCK TO DELETE
 000398 4D90 7634            0064C  3258     576.              LCALL RWCXACT
 00039C D203 B00C C018 0000C 00018  3260     577.              MVC   VDTR1,VCPARM1           NUMBER OF BLOCKS DELETED
 0003A2 9610 B000      00000        3261     578.              SET   VDTFR1                  MARK IT
 0003A6 47F0 7136            0014E  3267     579.              B     SVCRTN
-
                                    3269     581.     *
                                    3270     582.     *   CONTROL - ONE PARM RETURNED IN R1
                                    3271     583.     *
                                    3272     584.     *        SENSE FIRST BLOCK IN FILE
                                    3273     585.     *        SENSE LAST BLOCK IN FILE
                                    3274     586.     *        SENSE USER INFORMATION FIELD
                                    3275     587.     *        SENSE BLOCK SIZE
                                    3276     588.     *        SENSE MAXIMUM NUMBER OF USER BLOCKS
                                    3277     589.     *
 0003AA                             3278     590.     SNFSRC   DS    0H          CONTROL  4
 0003AA                             3279     591.     SNLSRC   DS    0H          CONTROL  5
 0003AA                             3280     592.     SENUIN   DS    0H          CONTROL 15
 0003AA                             3281     593.     SENBKS   DS    0H          CONTROL 23
 0003AA                             3282     594.     SENMAX   DS    0H          CONTROL 24
 0003AA 9140 C002      00002        3283     595.              IF    VCFNR1,SPEC
 0003AE 4710 70E0            000F8  3295             +
 0003B2 4D90 7634            0064C  3301     596.              LCALL RWCXACT
 0003B6 D203 B00C C018 0000C 00018  3303     597.              MVC   VDTR1,VCPARM1           RETURN BLOCK NUMBER
 0003BC 9610 B000      00000        3304     598.              SET   VDTFR1                  MARK IT
 0003C0 47F0 7136            0014E  3310     599.              B     SVCRTN
1VAMT     (VAMT02) (09:45) (22MAR04) VAM/370 - ORVYL File System Batch Interface                                            Page   40
0Current Usings:  (*,R7) (CT,R10) (VDT,R11) (VCHEAD,R12)
0Loc    Object Code    Addr1 Addr2  Stmt Lv Lineno    Source Statement           (Hibal 5, Asmedit 3.3)  HLASM R4.0  2004/03/22 09.45
+___    ______ ____    _____ _____  ____ __ ______    ______ _________
0                                   3312     601.     *        SENSE NUMBER OF BLOCKS IN FILE
                                    3313     602.     *
 0003C4                             3314     603.     SNNMRC   DS    0H          CONTROL  6
 0003C4 9140 C002      00002        3315     604.              IF    VCFNR1,SPEC
 0003C8 4710 70E0            000F8  3327             +
 0003CC 4D90 7634            0064C  3333     605.              LCALL RWCXACT
 0003D0 D203 B00C C018 0000C 00018  3335     606.              MVC   VDTR1,VCPARM1           USER BLOCKS IN FILE
 0003D6 9610 B000      00000        3336     607.              SET   VDTFR1
 0003DA D203 B010 C01C 00010 0001C  3342     608.              MVC   VDTR14,VCPARM2          BILLABLE BLOCKS
 0003E0 9608 B000      00000        3343     609.              SET   VDTFR14
 0003E4 47F0 7136            0014E  3349     610.              B     SVCRTN
-
                                    3351     612.     *
                                    3352     613.     *        RENAME/ERASE FILE
                                    3353     614.     *
 0003E8                             3354     615.     RENAME   DS    0H          CONTROL  8
 0003E8 9170 C002      00002        3355     616.              IF    (VCFNR1+VCFNR15+VCFNR14,NZ),SPEC
 0003EC 4770 70E0            000F8  3376             +
 0003F0 12FF                        3382     617.              LTR   R15,R15                 RENAME OR ERASE?
 0003F2 4780 7404            0041C  3383     618.              BZ    RNERASE                 IF NO NAME, THEN ERASE
 0003F6 122E                        3384     619.              LTR   SR,R14                  LENGTH MUST BE NON-ZERO
 0003F8 4780 70E0            000F8  3385     620.              BZ    SPEC
 0003FC 49E0 7DEC            00E04  3386     621.              CH    R14,=Y(L'VCFNAME)       AND UNDER MAX.
 000400 4720 70E0            000F8  3387     622.              BH    SPEC
 000404 50E0 C018            00018  3388     623.              ST    R14,VCPARM1             SEND USER LENGTH
 000408 0620/4420 7E42       00E5A  3389     624.              DEX   SR,'MVC  VCFNAME(0),@R15'    MOVE IN NEW NAME
 000E59 00                                1          +
 000E5A D200 C028 F000 00028 00000  3400             +
 00040E D201 C024 7DF0 00024 00E08  3408     625.              MVC   VCDATAL,=Y(VCFNLEN)     SET DATA LENGTH
 000414 4D90 7634            0064C  3409     626.              LCALL RWCXACT
 000418 47F0 7136            0014E  3411     627.              B     SVCRTN
000041C 4D90 7634            0064C  3413     629.     RNERASE  LCALL RWCXACT
 000420 9608 B001      00001        3415     630.              SET   VDTFFIDT                SET TO RELEASE DEVICE
 000424 47F0 7136            0014E  3421     631.              B     SVCRTN
1VAMT     (VAMT02) (09:45) (22MAR04) VAM/370 - ORVYL File System Batch Interface                                            Page   41
0Current Usings:  (*,R7) (CT,R10) (VDT,R11) (VCHEAD,R12)
0Loc    Object Code    Addr1 Addr2  Stmt Lv Lineno    Source Statement           (Hibal 5, Asmedit 3.3)  HLASM R4.0  2004/03/22 09.45
+___    ______ ____    _____ _____  ____ __ ______    ______ _________
0                                   3423     633.     *     EXTEND   ACCESS PRIIVILEGES TO AN ACCOUNT
                                    3424     634.     *
 000428                             3425     635.     GRPACC   DS    0H          CONTROL  9
 000428 9170 C002      00002        3426     636.              IF    (VCFNR1+VCFNR15+VCFNR14,NZ),SPEC
 00042C 4770 70E0            000F8  3447             +
 000430 50F0 C018            00018  3453     637.              ST    R15,VCPARM1             PRIVILEGES EXTENDED
 000434 12EE                        3454     638.              LTR   R14,R14                 ANY EXTENDEE ACCOUNT
 000436 4780 742E            00446  3455     639.              BZ    GANOUSE                 NO, NO USER SPECIFIED
 00043A D205 C028 E000 00028 00000  3456     640.              MVC   VCACC1,@R14             MOVE IN ACCOUNT
 000440 D201 C024 7DF2 00024 00E0A  3457     641.              MVC   VCDATAL,=Y(VCACCLEN)    AND LENGTH
 000446 4D90 7634            0064C  3458     642.     GANOUSE  LCALL RWCXACT
 00044A 47F0 7136            0014E  3460     643.              B     SVCRTN
-
                                    3462     645.     *
                                    3463     646.     *    SENSE FILE MASK, PUBLIC PRIVILEGES, PRIVILEGED ACCOUNTS
                                    3464     647.     *
 00044E                             3465     648.     SNPRIV   DS    0H          CONTROL 11
 00044E 9170 C002      00002        3466     649.              IF    (VCFNR1+VCFNR15+VCFNR14,NZ),SPEC
 000452 4770 70E0            000F8  3487             +
 000456 111F                        3493     650.              LNR   R1,R15                  NEGATIVE FOR RECEIVE
 000458 4780 744E            00466  3494     651.              BZ    SPNOMEMS                JUST FILEMASK, PUBLIC
 00045C 12EE                        3495     652.              LTR   R14,R14
 00045E 4780 70E0            000F8  3496     653.              BZ    SPEC                    MUST HAVE NON-ZERO LENGTH
 000462 50E0 C018            00018  3497     654.              ST    R14,VCPARM1             SAVE LENGTH REQUESTED
 000466 4D90 7634            0064C  3498     655.     SPNOMEMS LCALL RWCXACT
 00046A D203 B00C C018 0000C 00018  3500     656.              MVC   VDTR1,VCPARM1           NUM. OF ACCOUNTS RETURNED
 000470 9610 B000      00000        3501     657.              SET   VDTFR1
 000474 D203 B010 C01C 00010 0001C  3507     658.              MVC   VDTR14,VCPARM2
 00047A 9608 B000      00000        3508     659.              SET   VDTFR14
 00047E 47F0 7136            0014E  3514     660.              B     SVCRTN
1VAMT     (VAMT02) (09:45) (22MAR04) VAM/370 - ORVYL File System Batch Interface                                            Page   42
0Current Usings:  (*,R7) (CT,R10) (VDT,R11) (VCHEAD,R12)
0Loc    Object Code    Addr1 Addr2  Stmt Lv Lineno    Source Statement           (Hibal 5, Asmedit 3.3)  HLASM R4.0  2004/03/22 09.45
+___    ______ ____    _____ _____  ____ __ ______    ______ _________
0                                   3516     662.     *    SET FD USER INFO FIELD
                                    3517     663.     *
 000482                             3518     664.     SETUIN   DS    0H          CONTROL 14
 000482 9120 C002      00002        3519     665.              IF    ~VCFNR15,SUPOS          USER INFO CAN BE NEG.
 000486 47E0 7478            00490  3531             +
 00048A 13FF                        3537     666.              LCR   R15,R15                 RE-COMPLEMENT
 00048C 94DF C002      00002        3538     667.              CLEAR VCFNR15
 000490 50F0 C018            00018  3545     668.     SUPOS    ST    R15,VCPARM1             SEND IT
 000494 4D90 7634            0064C  3546     669.              LCALL RWCXACT
 000498 47F0 7136            0014E  3548     670.              B     SVCRTN
1VAMT     (VAMT02) (09:45) (22MAR04) VAM/370 - ORVYL File System Batch Interface                                            Page   43
0Current Usings:  (*,R7) (CT,R10) (VDT,R11) (VCHEAD,R12)
0Loc    Object Code    Addr1 Addr2  Stmt Lv Lineno    Source Statement           (Hibal 5, Asmedit 3.3)  HLASM R4.0  2004/03/22 09.45
+___    ______ ____    _____ _____  ____ __ ______    ______ _________
0                                   3550     672.     *        DETACH A DEVICE
                                    3551     673.     *
 00049C                             3552     674.     VTADETAC DS    0H
 00049C 9220 A32D      0032D        3553     675.              VAMTRACE DETACH
 0004A0 90E1 A050            00050  3556             +
 0004A4 5090 A0A4            000A4  3557             +
 0004A8 5890 7DC4/0D99       00DDC  3560             +
 0004AE C4C5E3C1C3C84040            3562             +
 0004B6 5890 A0A4            000A4  3563             +
 0004BA 9120 C002      00002        3564     676.              IF    ~VCFNR15,SKIPCOMP
 0004BE 47E0 74AC            004C4  3576             +
 0004C2 13FF                        3582     677.              LCR   R15,R15
 0004C4 50F0 A0FC            000FC  3583     678.     SKIPCOMP ST    R15,USER15              NO REGS CHANGED BY DETACH
 0004C8 5000 C014            00014  3584     679.              ST    R0,VCDEVID              SEND DEVICE ID
 0004CC 4D90 7D26            00D3E  3585     680.              LCALL SETVDT
 0004D0 1B11                        3587     681.              CLEAR R1
 0004D2 5890 7DC8/0D99       00DE0  3591     682.              ACALL SENDXACT
 0004D8 9140 C003      00003        3595     683.              IF    VCRSPEC,SPEC
 0004DC 4710 70E0            000F8  3607             +
 0004E0 9608 B001      00001        3613     684.              SET   VDTFFIDT                RELEASE VDT AT WAIT
 0004E4 9620 B001      00001        3619     685.              SET   VDTFPOST                SET POST FLAG
 0004E8 94BF B001      00001        3625     686.              CLEAR VDTFWD                  CLEAR WAIT DONE
 0004EC 94E3 B000      00000        3632     687.              CLEAR VDTFR1+VDTFR15+VDTFR14  NO REGS. RETURNED
 0004F0 47F0 7136            0014E  3646     688.              B     SVCRTN
1VAMT     (VAMT02) (09:45) (22MAR04) VAM/370 - ORVYL File System Batch Interface                                            Page   44
0Current Usings:  (*,R7) (CT,R10) (VDT,R11) (VCHEAD,R12)
0Loc    Object Code    Addr1 Addr2  Stmt Lv Lineno    Source Statement           (Hibal 5, Asmedit 3.3)  HLASM R4.0  2004/03/22 09.45
+___    ______ ____    _____ _____  ____ __ ______    ______ _________
0                                   3648     690.     *   READ
                                    3649     691.     *
                                    3650     692.     *        VCPARM1 := R15 (LENGTH TO READ)
                                    3651     693.     *        VCPARM2 := R14 (BLOCK NUMBER)
                                    3652     694.     *
 0004F4                             3653     695.     VTAREAD  DS    0H
 0004F4 9220 A32D      0032D        3654     696.              VAMTRACE READ
 0004F8 90E1 A050            00050  3657             +
 0004FC 5090 A0A4            000A4  3658             +
 000500 5890 7DC4/0D99       00DDC  3661             +
 000506 D9C5C1C440404040            3663             +
 00050E 5890 A0A4            000A4  3664             +
 000512 4D90 7D26            00D3E  3665     697.              LCALL SETVDT
 000516 94FB B001      00001        3667     698.              CLEAR VDTLNGRD                CLEAR LONG READ
 00051A 9502 B003      00003        3674     699.              CLI   VDTCLASS,VDTFILEC       FILE I/O
 00051E 4770 70E0            000F8  3675     700.              BNE   SPEC                    HAS TO BE RIGHT NOW
 000522 9150 C002      00002        3676     701.              IF    (VCFNR1+VCFNR14,NZ),SPEC     NO READ TEXT,NZ), ETC.
 000526 4770 70E0            000F8  3693             +
 00052A 12FF                        3699     702.              LTR   R15,R15                 LENGTH MUST BE NON-ZERO
 00052C 4780 70E0            000F8  3700     703.              BZ    SPEC
 000530 49F0 7DF4            00E0C  3701     704.              CH    R15,=Y(8*1024)          AND LESS THAN 8K
 000534 4720 70E0            000F8  3702     705.              BH    SPEC
 000538 49F0 7DF6            00E0E  3703     706.              CH    R15,=Y(4*1024)          MORE THAN 4K?
 00053C 47D0 757E            00596  3704     707.              BNH   SHRTREAD                NOPE, GO AHEAD
 000540 4BF0 7DF6            00E0E  3705     708.              SH    R15,=Y(4*1024)          FIND EXCESS OVER 4K
 000544 50F0 D000            00000  3706     709.              ST    R15,@R13                SAVE
 000548 48F0 7DF6            00E0E  3707     710.              LH    R15,=Y(4*1024)          GET FIRST TIME LENGTH
 00054C 50F0 C018            00018  3708     711.              ST    R15,VCPARM1             SEND IT ALONG
 000550 1AF1                        3709     712.              AR    R15,R1                  GET SECOND TIME ADDRESS
 000552 50F0 D004            00004  3710     713.              ST    R15,@R13+4              SAVE
 000556 41D0 D008            00008  3711     714.              VPUSH ,,2*4                   PUSH THE STACK
 00055A                             3713     715.              CLEAR VCDATAL                 NO DATA SENT
 00055A D701 C024 C024 00024 00024  3719             +
 000560 5000 C014            00014  3720     716.              ST    R0,VCDEVID              DEVICE IDENTIFIER
 000564 50E0 C01C            0001C  3721     717.              ST    R14,VCPARM2             RECORD NUMBER TO START
 000568 1311                        3722     718.              LCR   R1,R1                   DATA RECIEVED
 00056A 4D90 7634            0064C  3723     719.              LCALL RWCXACT                 GET FIRST INSTALLMENT
 00056E 4BD0 7DF8            00E10  3725     720.              VPOP  ,,2*4                   GET MY DATA BACK
 000572 4820 C024            00024  3727     721.              LH    SR,VCDATAL              HOW MUCH DID WE GET?
 000576 4920 7DF6            00E0E  3728     722.              CH    SR,=Y(4*1024)           EXACTLY 4K?
 00057A 4770 75A2            005BA  3729     723.              BNE   READRET                 NO, ALL DONE
 00057E 94DF B001      00001        3730     724.              CLEAR VDTFPOST                CLEAR POST FLAG
 000582 9604 B001      00001        3737     725.              SET   VDTLNGRD                SET LONG READ
 000586 58F0 D000            00000  3743     726.              L     R15,@R13                GET SECOND LENGTH
 00058A 5810 D004            00004  3744     727.              L     R1,@R13+4               GET SECOND ADDRESS
 00058E 58E0 C018            00018  3745     728.              L     R14,VCPARM1             GET NEXT BLOCK TO READ
 000592 5800 C014            00014  3746     729.              L     R0,VCDEVID              GET DEVICE ID
 000596                             3747     730.     SHRTREAD DS    0H
 000596 50F0 C018            00018  3748     731.              ST    R15,VCPARM1             SAVE LENGTH
 00059A                             3749     732.              CLEAR VCDATAL                 SET DATA LENGTH ZERO
 00059A D701 C024 C024 00024 00024  3755             +
 0005A0 5000 C014            00014  3756     733.              ST    R0,VCDEVID
 0005A4 50E0 C01C            0001C  3757     734.              ST    R14,VCPARM2             SEND BLOCK NUMBER
 0005A8 9110 C002      00002        3758     735.              IF    ~VCFNR14,RDSEND
1VAMT     (VAMT02) (09:45) (22MAR04) VAM/370 - ORVYL File System Batch Interface                                            Page   45
0Current Usings:  (*,R7) (CT,R10) (VDT,R11) (VCHEAD,R12)
0Loc    Object Code    Addr1 Addr2  Stmt Lv Lineno    Source Statement           (Hibal 5, Asmedit 3.3)  HLASM R4.0  2004/03/22 09.45
+___    ______ ____    _____ _____  ____ __ ______    ______ _________
00005AC 47E0 759C            005B4  3770             +
 0005B0 50E0 A0F8            000F8  3776     736.              ST    R14,USER14              SAVE COMPLEMENTED R14
 0005B4 1311                        3777     737.     RDSEND   LCR   R1,R1                   RECEIVE ADDRESS
 0005B6 4D90 7634            0064C  3778     738.              LCALL RWCXACT                 GET THE GOODS
 0005BA 4820 C024            00024  3780     739.     READRET  LH    SR,VCDATAL              HOW MUCH DID HE GET?
 0005BE 9104 B001      00001        3781     740.              IF    VDTLNGRD,'AH  R15,=Y(4*1024)'    ADD FIRST TIME LENGTH
 0005C2 47E0 75B2            005CA  3791             +
 0005C6 4AF0 7DF6            00E0E  3797             +
 0005CA 5020 B00C            0000C  3802     741.              ST    SR,VDTR1                SAVE FOR WAIT
 0005CE 9610 B000      00000        3803     742.              SET   VDTFR1
 0005D2 D203 B010 C018 00010 00018  3809     743.              MVC   VDTR14,VCPARM1          NEXT BLOCK TO READ
 0005D8 9608 B000      00000        3810     744.              SET   VDTFR14
 0005DC 47F0 7136            0014E  3816     745.              B     SVCRTN                  BACK TO THE USER
1VAMT     (VAMT02) (09:45) (22MAR04) VAM/370 - ORVYL File System Batch Interface                                            Page   46
0Current Usings:  (*,R7) (CT,R10) (VDT,R11) (VCHEAD,R12)
0Loc    Object Code    Addr1 Addr2  Stmt Lv Lineno    Source Statement           (Hibal 5, Asmedit 3.3)  HLASM R4.0  2004/03/22 09.45
+___    ______ ____    _____ _____  ____ __ ______    ______ _________
0                                   3818     747.     *        RELEASE EXCLUSIVE CONTROL
                                    3819     748.     *
 0005E0                             3820     749.     VTARELEA DS    0H
 0005E0 9220 A32D      0032D        3821     750.              VAMTRACE RELEASE
 0005E4 90E1 A050            00050  3824             +
 0005E8 5090 A0A4            000A4  3825             +
 0005EC 5890 7DC4/0D99       00DDC  3828             +
 0005F2 D9C5D3C5C1E2C540            3830             +
 0005FA 5890 A0A4            000A4  3831             +
 0005FE 9180 C002      00002        3832     751.              IF    VCFWAIT,SPEC            NO NEGATIVE ID'S ALLOWED
 000602 4710 70E0            000F8  3844             +
 000606 4D90 7D26            00D3E  3850     752.     RESRELCM LCALL SETVDT                  GET VDT
 00060A 5000 C014            00014  3852     753.              ST    R0,VCDEVID              SEND DEVICE ID
 00060E                             3853     754.              CLEAR VCDATAL                 NO DATA
 00060E D701 C024 C024 00024 00024  3859             +
 000614 1B11                        3860     755.              CLEAR R1                      SENT OR RECEIVED
 000616 4D90 7634            0064C  3864     756.              LCALL RWCXACT                 SHIP IT
 00061A 47F0 7136            0014E  3866     757.              B     SVCRTN
-
-                                   3868     759.     *
                                    3869     760.     *        RESERVE A DEVICE EXCLUSIVELY
                                    3870     761.     *
 00061E                             3871     762.     VTARESER DS    0H
 00061E 9220 A32D      0032D        3872     763.              VAMTRACE RESERVE
 000622 90E1 A050            00050  3875             +
 000626 5090 A0A4            000A4  3876             +
 00062A 5890 7DC4/0D99       00DDC  3879             +
 000630 D9C5E2C5D9E5C540            3881             +
 000638 5890 A0A4            000A4  3882             +
 00063C 9180 C002      00002        3883     764.              IF    ~VCFWAIT,RESRELCM
 000640 47E0 75EE            00606  3895             +
 000644 5000 A100            00100  3901     765.              ST    R0,USER0                SAVE POSITIVE ID
 000648 47F0 75EE            00606  3902     766.              B     RESRELCM                SHIP IT
1VAMT     (VAMT02) (09:45) (22MAR04) VAM/370 - ORVYL File System Batch Interface                                            Page   47
0Current Usings:  (*,R7) (CT,R10) (VDT,R11) (VCHEAD,R12)
0Loc    Object Code    Addr1 Addr2  Stmt Lv Lineno    Source Statement           (Hibal 5, Asmedit 3.3)  HLASM R4.0  2004/03/22 09.45
+___    ______ ____    _____ _____  ____ __ ______    ______ _________
0                                   3904     768.     *   COMMON TRANSACTION SUBROUTINE FOR READ, WRITE, CONTROL,
                                    3905     769.     *    RESERVE, RELEASE - SEND TRANSACTION AND CHECK COMMON
                                    3906     770.     *    RETURNS.
                                    3907     771.     *
 00064C 9089 D000/188D       00000  3908     772.     RWCXACT  VSAVE WAR,RAR,*               SAVE RETURN REG
 000652 41D0 D008            00008  3911             +
 000656 5890 7DC8/0D99       00DE0  3912     773.              ACALL SENDXACT                SHIP THE GOODS TO OVAM
 00065C 9140 C003      00003        3916     774.              IF    VCRSPEC,SPEC            DID A BADO
 000660 4710 70E0            000F8  3928             +
 000664 9180 C003      00003        3934     775.              IF    VCRR15Z,RWCSVCOK        SO FAR, SO GOOD
 000668 4710 765E            00676  3946             +
 00066C D203 A0FC C020 000FC 00020  3952     776.              MVC   USER15,VCRETCOD         GIVE HIM THE BAD NEWS
 000672 47F0 7136            0014E  3953     777.              B     SVCRTN
 000676 9620 B001      00001        3954     778.     RWCSVCOK SET   VDTFPOST                POST THE REQUEST COMPLETE
 00067A 94BF B001      00001        3961     779.              CLEAR VDTFWD                  CLEAR WAIT DONE FLAG
 00067E 5810 C020            00020  3968     780.              L     R1,VCRETCOD
 000682 5010 B014            00014  3969     781.              ST    R1,VDTR15               SAVE THE RETURN
 000686 9604 B000      00000        3970     782.              SET   VDTFR15                 AND MARK IT
 00068A 94E7 B000      00000        3976     783.              CLEAR VDTFR1+VDTFR14          CLEAR RETURNS FLAGS
 00068E 1211                        3986     784.              LTR   R1,R1                   WAS IT OK?
 000690 4780 769C            006B4  3987     785.              BZ    RWCEXIT                 SURE IS
 000694 4910 7DFA            00E12  3988     786.              CH    R1,=Y(12)               SOMETIMES A TWELVE IS OK
 000698 4770 7136            0014E  3989     787.              BNE   SVCRTN
 00069C 9502 C001      00001        3990     788.              CLI   VCCODE,2                LIKE CONTROL 2
 0006A0 4780 769C            006B4  3991     789.              BE    RWCEXIT
 0006A4 950F C001      00001        3992     790.              CLI   VCCODE,15               AND CONTROL 15
 0006A8 4780 769C            006B4  3993     791.              BE    RWCEXIT
 0006AC 9514 C001      00001        3994     792.              CLI   VCCODE,20               AND CONTROL 20
 0006B0 4770 7136            0014E  3995     793.              BNE   SVCRTN
 0006B4 18D8/9889 D000       00000  3996     794.     RWCEXIT  VEXIT WAR,RAR                 HURRAH
 0006BA 07F9                        4000             +
1VAMT     (VAMT02) (09:45) (22MAR04) VAM/370 - ORVYL File System Batch Interface                                            Page   48
0Current Usings:  (*,R7) (CT,R10) (VDT,R11) (VCHEAD,R12)
0Loc    Object Code    Addr1 Addr2  Stmt Lv Lineno    Source Statement           (Hibal 5, Asmedit 3.3)  HLASM R4.0  2004/03/22 09.45
+___    ______ ____    _____ _____  ____ __ ______    ______ _________
0                                   4002     796.     *        STATUS FUNCTION
                                    4003     797.     *
 0006BC                             4004     798.     VTASTATU DS    0H
 0006BC 9220 A32D      0032D        4005     799.              VAMTRACE STATUS
 0006C0 90E1 A050            00050  4008             +
 0006C4 5090 A0A4            000A4  4009             +
 0006C8 5890 7DC4/0D99       00DDC  4012             +
 0006CE E2E3C1E3E4E24040            4014             +
 0006D6 5890 A0A4            000A4  4015             +
 0006DA 9180 C002      00002        4016     800.              IF    VCFWAIT,SPEC            NO MODES ON STATUS'S
 0006DE 4710 70E0            000F8  4028             +
 0006E2 1820                        4034     801.              LR    SR,R0                   A COPY OF CODE TO DIDDLE
 0006E4 4920 7DFC            00E14  4035     802.              CH    SR,=Y(PRIVSTAT)         IS IT A PRIVILIGED ONE?
 0006E8 4740 76E8            00700  4036     803.              BL    STATOK                  NO
 0006EC 4B20 7DFE            00E16  4037     804.              SH    SR,=Y(100)              SHIFT DOWN
 0006F0 4740 70E0            000F8  4038     805.              BM    SPEC
 0006F4 4122 0008            00008  4039     806.              LA    SR,PRIVSTAT(SR)         AND BUMP UP
 0006F8 4920 7E00            00E18  4040     807.              CH    SR,=Y(HISTATUS)         TOO BIG?
 0006FC 4720 70E0            000F8  4041     808.              BH    SPEC                    YEP
 000700 4200 C001            00001  4042     809.     STATOK   STC   R0,VCCODE               SAVE STATUS CODE
                                    4044     811.              GENSTAT SR
 000704 8920 0002            00002  4045    01-GENST +         SLL   SR,2                    MULT. BY 4
 000708 47F2 76F4            0070C  4046    01-GENST +         B     *+4(SR)                 AND BLAST OFF
 00070C                             4047    01-GENST +FSTATUS  DS    0H
 00070C 47F0 7744            0075C  4048    01-GENST +         B     ACCGRP               0  EXTEND FILE ACCESS TO ACCOUNT
 000710 47F0 7776            0078E  4049    01-GENST +         B     ACCPUB               1  EXTEND FILE ACCESS TO PUBLIC
 000714 47F0 77AE            007C6  4050    01-GENST +         B     SNFILE               2  SENSE FILES
 000718 47F0 77EC            00804  4051    01-GENST +         B     SNGMEM               3  SENSE GROUP MEMBERS
 00071C 47F0 7828            00840  4052    01-GENST +         B     SNFSPAC              4  SENSE SPACE FOR ACCOUNT
 000720 47F0 70E0            000F8  4053    01-GENST +         B     USERSPAC             5  USER SET ACCOUNT ENTRY
 000724 47F0 78D4            008EC  4054    01-GENST +         B     CRTNIXR              6  CREATE NON-IXR'ED FILE
 000728 47F0 78D4            008EC  4055    01-GENST +         B     CRTHYBR              7  CREATE HYBRID FILE
 00072C                             4056    01-GENST +PSTATUS  DS    0H                      START OF PRIVILEGED REQUESTS
 00072C 47F0 7860            00878  4057    01-GENST +         B     SETGRP             100  ENTER ACCOUNT IN FILE SYSTEM
 000730 47F0 787C            00894  4058    01-GENST +         B     DELGRP             101  REMOVE ACCOUNT FROM FILE SYS.
 000734 47F0 7860            00878  4059    01-GENST +         B     STGRSP             102  RESET ACCOUNT'S MAX SPACE
 000738 47F0 7894            008AC  4060    01-GENST +         B     SNGRPS             103  SENSE ACCOUNTS, SPACE
 00073C 47F0 7860            00878  4061    01-GENST +         B     SETSPU             104  RESET FILE SPACE USED
 000740                             4062    01-GENST +ASTATUS  DS    0H                      END OF ACCOUNTS PRIVS.
 000740 47F0 78DA            008F2  4063    01-GENST +         B     DELFILFD           105  DELETE FILE DIRECTORY FILE ENTRY
 000744 47F0 70E0            000F8  4064    01-GENST +         B     RDABSB             106  READ BLOCK BY ABS. BLOCK NO.
 000748 47F0 7786            0079E  4065    01-GENST +         B     SETPUSER           107  SET PSEUDO USER FOR FILE I/O
 00074C 47F0 7906            0091E  4066    01-GENST +         B     SETMODE            108  SET READ ONLY MODE
 000750 47F0 70E0            000F8  4067    01-GENST +         B     WRABSB             109  WRITE BLOCK BY ABS. BLOCK NO.
 000754 47F0 70E0            000F8  4068    01-GENST +         B     SETCACHE           110  SET BITMAP CACHE SIZE
 000758 47F0 70E0            000F8  4069    01-GENST +         B     IXRTST             111  TEST IXR MGMT ROUTINES
 00075C                             4070    01-GENST +NSTATUS  DS    0H
0                                   4072    01-GENST +PRIVSTAT EQU   (PSTATUS-FSTATUS)/4     START OF PRIVILIGED STATUS'S
                                    4073    01-GENST +HISTATUS EQU   ((NSTATUS-FSTATUS)/4)-1 HIGHEST LEGAL STATUS
                                    4075     813.     *     THESE STATUS'S ARE NOT YET IMPLEMENTED
                                    4076     814.     *
                                    4077     815.     RDABSB   EQU   SPEC
                                    4078     816.     USERSPAC EQU   SPEC          STATUS 5
1VAMT     (VAMT02) (09:45) (22MAR04) VAM/370 - ORVYL File System Batch Interface                                            Page   49
0Current Usings:  (*,R7) (CT,R10) (VDT,R11) (VCHEAD,R12)
0Loc    Object Code    Addr1 Addr2  Stmt Lv Lineno    Source Statement           (Hibal 5, Asmedit 3.3)  HLASM R4.0  2004/03/22 09.45
+___    ______ ____    _____ _____  ____ __ ______    ______ _________
0                                   4079     817.     WRABSB   EQU   SPEC
                                    4080     818.     SETCACHE EQU   SPEC
                                    4081     819.     IXRTST   EQU   SPEC
1VAMT     (VAMT02) (09:45) (22MAR04) VAM/370 - ORVYL File System Batch Interface                                            Page   50
0Current Usings:  (*,R7) (CT,R10) (VDT,R11) (VCHEAD,R12)
0Loc    Object Code    Addr1 Addr2  Stmt Lv Lineno    Source Statement           (Hibal 5, Asmedit 3.3)  HLASM R4.0  2004/03/22 09.45
+___    ______ ____    _____ _____  ____ __ ______    ______ _________
0                                   4083     821.     *    PERMIT ACCESS TO ANOTHER ACCOUNT
                                    4084     822.     *
 00075C                             4085     823.     ACCGRP   DS    0H           STATUS  0
 00075C 9170 C002      00002        4086     824.              IF    (VCFNR1+VCFNR15+VCFNR14,NZ),SPEC
 000760 4770 70E0            000F8  4107             +
 000764 5010 C018            00018  4113     825.              ST    R1,VCPARM1              SEND PRIVS.
 000768 D205 C028 F000 00028 00000  4114     826.              MVC   VCACC1,@R15             SEND THE RECEIVING ACCOUNT
 00076E 9240 C02E      0002E        4115     827.              MVI   VCACC2,C' '             BLANK EXTENDER
 000772 D204 C02F C02E 0002F 0002E  4116     828.              MVC   VCACC2+1(L'VCACC2-1),VCACC2
 000778 12EE                        4117     829.              LTR   R14,R14                 WAS ONE SPECIFIED?
 00077A 4780 776C            00784  4118     830.              BZ    NOACC2
 00077E D205 C02E E000 0002E 00000  4119     831.              MVC   VCACC2,@R14
 000784 D201 C024 7DF2 00024 00E0A  4120     832.     NOACC2   MVC   VCDATAL,=Y(VCACCLEN)    SET LENGTH
 00078A 47F0 7922            0093A  4121     833.              B     STATNDAT
-
                                    4123     835.     *
                                    4124     836.     *   PERMIT ACCESS TO PUBLIC
                                    4125     837.     *
 00078E                             4126     838.     ACCPUB   DS    0H           STATUS  1
 00078E 9140 C002      00002        4127     839.              IF    VCFNR1,SPEC
 000792 4710 70E0            000F8  4139             +
 000796 5010 C018            00018  4145     840.              ST    R1,VCPARM1              SEND PRIVS
 00079A 47F0 7922            0093A  4146     841.              B     STATNDAT
0                                   4148     843.     *
                                    4149     844.     * SET PSUEDO/USER
                                    4150     845.     *
 00079E                             4151     846.     SETPUSER LABEL ,
 00079E 9170 C002      00002        4153     847.              IF    (VCFNR1+VCFNR15+VCFNR14,NZ),SPEC
 0007A2 4770 70E0            000F8  4174             +
 0007A6 50F0 C018            00018  4180     848.              ST    R15,VCPARM1             SAVE PRIV BYTE
 0007AA D205 C028 7E02 00028 00E1A  4181     849.              MVC   VCACC1,=CL6' '          BLANK OUT ACCOUNT
 0007B0 D201 C024 7E08 00024 00E20  4182     850.              MVC   VCDATAL,=Y(6)           SET LENGTH
 0007B6 1211/4780 77AA       007C2  4183     851.              IF    (R1,NZ),BEGIN           SET OPERATION
 0007BC D205 C028 1000 00028 00000  4197  1  852.                MVC   VCACC1,@R1              SET ACCOUNT
 0007C2                             4198     853.              END   ,
 0007C2 47F0 7922            0093A  4202     854.              B     STATNDAT                SEND TO VAM NOW
1VAMT     (VAMT02) (09:45) (22MAR04) VAM/370 - ORVYL File System Batch Interface                                            Page   51
0Current Usings:  (*,R7) (CT,R10) (VDT,R11) (VCHEAD,R12)
0Loc    Object Code    Addr1 Addr2  Stmt Lv Lineno    Source Statement           (Hibal 5, Asmedit 3.3)  HLASM R4.0  2004/03/22 09.45
+___    ______ ____    _____ _____  ____ __ ______    ______ _________
0                                   4204     856.     *    SENSE FILES FOR AN ACCOUNT
                                    4205     857.     *
 0007C6                             4206     858.     SNFILE   DS    0H           STATUS  2
 0007C6 9170 C002      00002        4207     859.              IF    (VCFNR1+VCFNR15+VCFNR14,NZ),SPEC
 0007CA 4770 70E0            000F8  4228             +
 0007CE                             4234     860.              CLEAR VCDATAL
 0007CE D701 C024 C024 00024 00024  4240             +
 0007D4 12EE                        4241     861.              LTR   R14,R14                 ANY FILE NAME?
 0007D6 4780 77CE            007E6  4242     862.              BZ    SFNOFNAM                NOPE
 0007DA D22B C028 E000 00028 00000  4243     863.              MVC   VCFNAME,@R14
 0007E0 D201 C024 7DF0 00024 00E08  4244     864.              MVC   VCDATAL,=Y(VCFNLEN)
 0007E6 12FF                        4245     865.     SFNOFNAM LTR   R15,R15                 ANY RETURN AREA?
 0007E8 4780 70E0            000F8  4246     866.              BZ    SPEC                    NONE, NO GOOD
 0007EC 50F0 C018            00018  4247     867.              ST    R15,VCPARM1             SEND IT ALONG
 0007F0 1311                        4248     868.              LCR   R1,R1                   SET TO RECEIVE
 0007F2 4D90 7928            00940  4249     869.              LCALL STATXACT                SHIP IT
 0007F6 D203 B00C C018 0000C 00018  4251     870.              MVC   VDTR1,VCPARM1           NUMBER OF NAMES RETURNED
 0007FC 9610 B000      00000        4252     871.              SET   VDTFR1                  SET IT
 000800 47F0 7136            0014E  4258     872.              B     SVCRTN
-
                                    4260     874.     *
                                    4261     875.     *    SENSE ACCOUNT UNIT MEMBERS
                                    4262     876.     *
 000804                             4263     877.     SNGMEM   DS    0H           STATUS  3
 000804 9170 C002      00002        4264     878.              IF    (VCFNR1+VCFNR15+VCFNR14,NZ),SPEC
 000808 4770 70E0            000F8  4285             +
 00080C 50F0 C018            00018  4291     879.              ST    R15,VCPARM1             LENGTH OF RETURN AREA
 000810 12EE                        4292     880.              LTR   R14,R14                 ANY ACCOUNT?
 000812 4780 780A            00822  4293     881.              BZ    SNGMSEND                NO, ASSUME SIGNED ON USER
 000816 D205 C028 E000 00028 00000  4294     882.              MVC   VCACC1,@R14             BRING IT IN
 00081C D201 C024 7DF2 00024 00E0A  4295     883.              MVC   VCDATAL,=Y(VCACCLEN)     SET LENGTH
 000822 1311                        4296     884.     SNGMSEND LCR   R1,R1                   SET FOR RECEIVING
 000824 4D90 7928            00940  4297     885.              LCALL STATXACT
 000828 D203 B00C C018 0000C 00018  4299     886.              MVC   VDTR1,VCPARM1           SET PUBLIC PRIVS.
 00082E 9610 B000      00000        4300     887.              SET   VDTFR1                  FLAG IT
 000832 D203 B010 C01C 00010 0001C  4306     888.              MVC   VDTR14,VCPARM2          NUMBER OF MEMBERS RETURNED
 000838 9608 B000      00000        4307     889.              SET   VDTFR14                 SET IT
 00083C 47F0 7136            0014E  4313     890.              B     SVCRTN
1VAMT     (VAMT02) (09:45) (22MAR04) VAM/370 - ORVYL File System Batch Interface                                            Page   52
0Current Usings:  (*,R7) (CT,R10) (VDT,R11) (VCHEAD,R12)
0Loc    Object Code    Addr1 Addr2  Stmt Lv Lineno    Source Statement           (Hibal 5, Asmedit 3.3)  HLASM R4.0  2004/03/22 09.45
+___    ______ ____    _____ _____  ____ __ ______    ______ _________
0                                   4315     892.     *    SENSE CURRENT SPACE STATUS FOR ACCOUNT
                                    4316     893.     *
 000840                             4317     894.     SNFSPAC  DS    0H           STATUS  4
 000840 9140 C002      00002        4318     895.              IF    VCFNR1,SPEC
 000844 4710 70E0            000F8  4330             +
 000848 1211                        4336     896.              LTR   R1,R1                   ANY ACCOUNT SPECIFIED?
 00084A 4780 7842            0085A  4337     897.              BZ    SSNOACC                 NOPE
 00084E D205 C028 1000 00028 00000  4338     898.              MVC   VCACC1,@R1              SET IT
 000854 D201 C024 7DF2 00024 00E0A  4339     899.              MVC   VCDATAL,=Y(VCACCLEN)    AND LENGTH
 00085A 1B11                        4340     900.     SSNOACC  CLEAR R1                      NO DATA
 00085C 4D90 7928            00940  4345     901.              LCALL STATXACT                SHIP
 000860 D203 B00C C018 0000C 00018  4347     902.              MVC   VDTR1,VCPARM1           SET BLOCKS USED
 000866 9610 B000      00000        4348     903.              SET   VDTFR1
 00086A D203 B010 C01C 00010 0001C  4354     904.              MVC   VDTR14,VCPARM2          SET BLOCKS ALLOWED
 000870 9608 B000      00000        4355     905.              SET   VDTFR14
 000874 47F0 7136            0014E  4361     906.              B     SVCRTN
-
                                    4363     908.     *
                                    4364     909.     *    ADD AN ACCOUNT TO THE FILE SYSTEM
                                    4365     910.     *    RESET AN ACCOUNT'S BLOCK LIMIT
                                    4366     911.     *    RESET BLOCKS USED FOR AN ACCOUNT
                                    4367     912.     *
 000878                             4368     913.     SETGRP   DS    0H          STATUS 100
 000878                             4369     914.     STGRSP   DS    0H          STATUS 102
 000878                             4370     915.     SETSPU   DS    0H          STATUS 104
 000878 9160 C002      00002        4371     916.              IF    VCFNR1*VCFNR15,SPEC
 00087C 4710 70E0            000F8  4386             +
 000880 D205 C028 1000 00028 00000  4392     917.              MVC   VCACC1,@R1              SET ACCOUNT
 000886 50F0 C018            00018  4393     918.              ST    R15,VCPARM1             SET BLOCK LIMIT
 00088A D201 C024 7DF2 00024 00E0A  4394     919.              MVC   VCDATAL,=Y(VCACCLEN)
 000890 47F0 7922            0093A  4395     920.              B     STATNDAT
-
                                    4397     922.     *
                                    4398     923.     *    DROP AN ACCOUNT FROM THE FILE SYSTEM
                                    4399     924.     *
 000894                             4400     925.     DELGRP   DS    0H          STATUS 101
 000894 9140 C002      00002        4401     926.              IF    VCFNR1,SPEC
 000898 4710 70E0            000F8  4413             +
 00089C D205 C028 1000 00028 00000  4419     927.              MVC   VCACC1,@R1              SET "DELETEE"
 0008A2 D201 C024 7DF2 00024 00E0A  4420     928.              MVC   VCDATAL,=Y(VCACCLEN)
 0008A8 47F0 7922            0093A  4421     929.              B     STATNDAT
1VAMT     (VAMT02) (09:45) (22MAR04) VAM/370 - ORVYL File System Batch Interface                                            Page   53
0Current Usings:  (*,R7) (CT,R10) (VDT,R11) (VCHEAD,R12)
0Loc    Object Code    Addr1 Addr2  Stmt Lv Lineno    Source Statement           (Hibal 5, Asmedit 3.3)  HLASM R4.0  2004/03/22 09.45
+___    ______ ____    _____ _____  ____ __ ______    ______ _________
0                                   4423     931.     *    REPORT ON ACCOUNTS IN FILE SYSTEM
                                    4424     932.     *
 0008AC                             4425     933.     SNGRPS   DS    0H          STATUS 103
 0008AC 9170 C002      00002        4426     934.              IF    (VCFNR1+VCFNR15+VCFNR14,NZ),SPEC
 0008B0 4770 70E0            000F8  4447             +
 0008B4 12FF                        4453     935.              LTR   R15,R15                 ZERO RETURN LENGTH?
 0008B6 4780 70E0            000F8  4454     936.              BZ    SPEC                    THAT'S NOT ENOUGH
 0008BA 50F0 C018            00018  4455     937.              ST    R15,VCPARM1             SEND LENGTH
 0008BE 50E0 C01C            0001C  4456     938.              ST    R14,VCPARM2             FILE SYSTEM ID
 0008C2 41E0 E000            00000  4457     939.              LA    R14,@R14                CLEAR ID
 0008C6 12EE                        4458     940.              LTR   R14,R14                 ANY STARTING ACCOUNT?
 0008C8 4780 78C0            008D8  4459     941.              BZ    SNGNOACC                NOPE
 0008CC D205 C028 E000 00028 00000  4460     942.              MVC   VCACC1,@R14
 0008D2 D201 C024 7DF2 00024 00E0A  4461     943.              MVC   VCDATAL,=Y(VCACCLEN)
 0008D8 1311                        4462     944.     SNGNOACC LCR   R1,R1                   RECEIVE DATA
 0008DA 4D90 7928            00940  4463     945.              LCALL STATXACT                SHIP
 0008DE D203 B00C C018 0000C 00018  4465     946.              MVC   VDTR1,VCPARM1           NO. OF ACCOUNTS RETURNED
 0008E4 9610 B000      00000        4466     947.              SET   VDTFR1
 0008E8 47F0 7136            0014E  4472     948.              B     SVCRTN
-                                   4474     950.     *
                                    4475     951.     *    CREATE NON-IXR FILE
                                    4476     952.     *    CREATE HYBRID FILE
                                    4477     953.     *
 0008EC                             4478     954.     CRTNIXR  DS    0H          STATUS   6
 0008EC                             4479     955.     CRTHYBR  DS    0H          STATUS   7
 0008EC 12EE/47D0 70E0       000F8  4480     956.              IF    (R14,NP),SPEC
-                                   4498     958.     *
                                    4499     959.     *    DELETE FD FILE ENTRY
                                    4500     960.     *
 0008F2                             4501     961.     DELFILFD DS    0H          STATUS 105
 0008F2 9170 C002      00002        4502     962.              IF    (VCFNR1+VCFNR15+VCFNR14,NZ),SPEC
 0008F6 4770 70E0            000F8  4523             +
 0008FA 50E0 C018            00018  4529     963.              ST    R14,VCPARM1             BLOCKS TO SUBTRACT
 0008FE 122F                        4530     964.              LTR   SR,R15                  LENGTH OF FILE NAME
 000900 4780 70E0            000F8  4531     965.              BZ    SPEC                    GOTTA HAVE SOMETHING
 000904 9240 C028      00028        4532     966.              MVI   VCFNAME,C' '            BLANK FILE NAME
 000908 D22A C029 C028 00029 00028  4533     967.              MVC   VCFNAME+1(L'VCFNAME-1),VCFNAME
 00090E 0620/4420 725A       00272  4534     968.              DEX   SR,ATCHMVC              BRING IT IN
 000914 D201 C024 7DF0 00024 00E08  4539     969.              MVC   VCDATAL,=Y(VCFNLEN)
 00091A 47F0 7922            0093A  4540     970.              B     STATNDAT
-                                   4542     972.     *
                                    4543     973.     *   SET FILE SYSTEM MODE
                                    4544     974.     *
 00091E                             4545     975.     SETMODE  LABEL ,            STATUS 108
 00091E 9170 C002      00002        4547     976.              IF    VCFNR1+VCFNR15+VCFNR14,SPEC   NO COMPLEMENTS PLEASE
 000922 4770 70E0            000F8  4566             +
 000926 D207 C028 1000 00028 00000  4572     977.              MVC   VCFNAME(8),@R1          SET FILE SYSTEM ID
 00092C D201 C024 7E0A 00024 00E22  4573     978.              MVC   VCDATAL,=Y(8)
1VAMT     (VAMT02) (09:45) (22MAR04) VAM/370 - ORVYL File System Batch Interface                                            Page   54
0Current Usings:  (*,R7) (CT,R10) (VDT,R11) (VCHEAD,R12)
0Loc    Object Code    Addr1 Addr2  Stmt Lv Lineno    Source Statement           (Hibal 5, Asmedit 3.3)  HLASM R4.0  2004/03/22 09.45
+___    ______ ____    _____ _____  ____ __ ______    ______ _________
0000932 50F0 C018            00018  4574     979.              ST    R15,VCPARM1             SAVE ACTION CODE
 000936 47F0 7922            0093A  4575     980.              B     STATNDAT                SNED IT ALONG
1VAMT     (VAMT02) (09:45) (22MAR04) VAM/370 - ORVYL File System Batch Interface                                            Page   55
0Current Usings:  (*,R7) (CT,R10) (VDT,R11) (VCHEAD,R12)
0Loc    Object Code    Addr1 Addr2  Stmt Lv Lineno    Source Statement           (Hibal 5, Asmedit 3.3)  HLASM R4.0  2004/03/22 09.45
+___    ______ ____    _____ _____  ____ __ ______    ______ _________
0                                   4577     982.     *    STATXACT - CALL SENDXACT, CHECK COMMON RETURNS
                                    4578     983.     *
                                    4579     984.     *     STATNDT IS FOR STATUS CALLS WHICH SEND AND RECEIVE NO
                                    4580     985.     *      DATA AND RETURN ONLY R15
                                    4581     986.     *
 00093A                             4582     987.     STATNDAT DS    0H
 00093A 1B11                        4583     988.              CLEAR R1
 00093C 4190 7136            0014E  4587     989.              LA    RAR,SVCRTN              GO STRAIGHT TO USER
 000940 9089 D000/188D       00000  4588     990.     STATXACT VSAVE WAR,RAR,*
 000946 41D0 D008            00008  4591             +
 00094A 5890 7DC8/0D99       00DE0  4592     991.              ACALL SENDXACT
 000950 9140 C003      00003        4596     992.              IF    VCRSPEC,SPEC            NOT GOOD AT ALL
 000954 4710 70E0            000F8  4608             +
 000958 9180 C003      00003        4614     993.              IF    VCRR15Z,SXSVCOK         BETTER
 00095C 4710 7952            0096A  4626             +
 000960 D203 A0FC C020 000FC 00020  4632     994.              MVC   USER15,VCRETCOD         TOO BAD, BUSTER
 000966 47F0 7136            0014E  4633     995.              B     SVCRTN
 00096A 5800 C014            00014  4634     996.     SXSVCOK  L     R0,VCDEVID              GET ONE-TIME ID
 00096E 4D90 7D6A            00D82  4635     997.              LCALL GETVDT
 000972 9180 B000      00000        4637     998.              IF    ~VDTFA,SXVDTOK          HOPE IT'S NOT ATTACHED ALREADY
 000976 47E0 7978            00990  4649             +
 00097A 90E1 A050            00050  4655     999.              VKAPUT VDTATCH
 00097E 5090 A0A4            000A4  4658             +
 000982 5890 7DC4/0D99       00DDC  4661             +
 000988 40E5C4E3C1E3C3C8            4663             +
 000990 5000 A100            00100  4664    1000.     SXVDTOK  ST    R0,USER0                RETURN ID
 000994                             4665    1001.              CLEAR (VDTFL,3)               CLEAR FLAGS
 000994 D702 B000 B000 00000 00000  4671             +
 00099A 9684 B000      00000        4672    1002.              SET   VDTFA+VDTFR15           SET ATTACHED, RETURN R15
 00099E 9628 B001      00001        4681    1003.              SET   VDTFPOST+VDTFFIDT       SET POSTED, FREE AT WAIT
 0009A2 5810 C020            00020  4690    1004.              L     R1,VCRETCOD
 0009A6 5010 B014            00014  4691    1005.              ST    R1,VDTR15               SET RETURN FROM WAIT
 0009AA 1211                        4692    1006.              LTR   R1,R1                   IS IT OK?
 0009AC 4770 7136            0014E  4693    1007.              BNZ   SVCRTN                  TOO BAD
 0009B0 18D8/9889 D000       00000  4694    1008.              VEXIT WAR,RAR                 WON ONE
 0009B6 07F9                        4698             +
1VAMT     (VAMT02) (09:45) (22MAR04) VAM/370 - ORVYL File System Batch Interface                                            Page   56
0Current Usings:  (*,R7) (CT,R10) (VDT,R11) (VCHEAD,R12)
0Loc    Object Code    Addr1 Addr2  Stmt Lv Lineno    Source Statement           (Hibal 5, Asmedit 3.3)  HLASM R4.0  2004/03/22 09.45
+___    ______ ____    _____ _____  ____ __ ______    ______ _________
0                                   4700    1010.     *        WAIT FOR COMPLETION OF OPERATION
                                    4701    1011.     *
 0009B8                             4702    1012.     VTAWAIT  DS    0H
 0009B8 9220 A32D      0032D        4703    1013.              VAMTRACE WAIT
 0009BC 90E1 A050            00050  4706             +
 0009C0 5090 A0A4            000A4  4707             +
 0009C4 5890 7DC4/0D99       00DDC  4710             +
 0009CA E6C1C9E340404040            4712             +
 0009D2 5890 A0A4            000A4  4713             +
 0009D6 4D90 7D6A            00D82  4714    1014.              LCALL GETVDT
 0009DA 9180 B000      00000        4716    1015.              IF    ~VDTFA,SPEC             HAS TO BE ATTACHED
 0009DE 47E0 70E0            000F8  4728             +
 0009E2 9120 B001      00001        4734    1016.              IF    ~VDTFPOST,NOTPOSTD
 0009E6 47E0 7A10            00A28  4746             +
 0009EA 9640 B001      00001        4752    1017.              SET   VDTFWD
 0009EE 9104 B000      00000        4758    1018.              IF    ~VDTFR15,WANOTR15
 0009F2 47E0 79E4            009FC  4770             +
 0009F6 D203 A0FC B014 000FC 00014  4776    1019.              MVC  USER15,VDTR15
 0009FC 9108 B000      00000        4777    1020.     WANOTR15 IF    ~VDTFR14,WANOTR14
 000A00 47E0 79F2            00A0A  4790             +
 000A04 D203 A0F8 B010 000F8 00010  4796    1021.              MVC   USER14,VDTR14
 000A0A 9110 B000      00000        4797    1022.     WANOTR14 IF    ~VDTFR1,WANOTR1
 000A0E 47E0 7A00            00A18  4810             +
 000A12 D203 A104 B00C 00104 0000C  4816    1023.              MVC   USER1,VDTR1
 000A18 9108 B001      00001        4817    1024.     WANOTR1  IF    ~VDTFFIDT,SVCRTN
 000A1C 47E0 7136            0014E  4830             +
 000A20 947F B000      00000        4836    1025.              CLEAR VDTFA                   SET NOT ATTACHED
 000A24 47F0 7136            0014E  4843    1026.              B     SVCRTN
0000A28 90E1 A050            00050  4845    1028.     NOTPOSTD VKAPUT NOPOST
 000A2C 5090 A0A4            000A4  4849             +
 000A30 5890 7DC4/0D99       00DDC  4852             +
 000A36 40D5D6D7D6E2E340            4854             +
1VAMT     (VAMT02) (09:45) (22MAR04) VAM/370 - ORVYL File System Batch Interface                                            Page   57
0Current Usings:  (*,R7) (CT,R10) (VDT,R11) (VCHEAD,R12)
0Loc    Object Code    Addr1 Addr2  Stmt Lv Lineno    Source Statement           (Hibal 5, Asmedit 3.3)  HLASM R4.0  2004/03/22 09.45
+___    ______ ____    _____ _____  ____ __ ______    ______ _________
0                                   4856    1030.     *  ENQUEUE/DEQUEUE
                                    4857    1031.     *
 000A3E                             4858    1032.     VTAENQUE LABEL ,
 000A3E 9220 A32D      0032D        4860    1033.              VAMTRACE ENQUEUE
 000A42 90E1 A050            00050  4863             +
 000A46 5090 A0A4            000A4  4864             +
 000A4A 5890 7DC4/0D99       00DDC  4867             +
 000A50 C5D5D8E4C5E4C540            4869             +
 000A58 5890 A0A4            000A4  4870             +
 000A5C 5010 A104            00104  4871    1034.              ST    R1,USER1                SAVE COMPLEMENTED VERSION
 000A60 4900 7E0C            00E24  4872    1035.              CH    R0,=Y(VDTENQC)          CHECK CLASS CODE
 000A64 4770 70E0            000F8  4873    1036.              BNE   SPEC                    INVALID CLASS
 000A68 4200 C001            00001  4874    1037.              STC   R0,VCCODE               SET DEVICE CLASS
 000A6C 9240 C028      00028        4875    1038.              MVI   VCFNAME,C' '            BLANK FILE NAME FIELD
 000A70 D22A C029 C028 00029 00028  4876    1039.              MVC   VCFNAME+1(L'VCFNAME-1),VCFNAME
 000A76 49F0 7E0E            00E26  4877    1040.              CH    R15,=Y(L'VCFNAME-4)     NAME TOO BIG?
 000A7A 4720 70E0            000F8  4878    1041.              BH    SPEC                    YEP
 000A7E 122F                        4879    1042.              LTR   SR,R15                  TOO LITTLE?
 000A80 4780 70E0            000F8  4880    1043.              BZ    SPEC                    YEP
 000A84 50F0 C01C            0001C  4881    1044.              ST    R15,VCPARM2             SAVE LENGTH
 000A88 50E0 C018            00018  4882    1045.              ST    R14,VCPARM1             SAVE REQUEST CODE
 000A8C 0620/4420 725A       00272  4883    1046.              DEX   SR,ATCHMVC              MOVE IT IN
 000A92 D201 C024 7DEC 00024 00E04  4888    1047.              MVC   VCDATAL,=Y(L'VCFNAME)   SET LENGTH FIELD
 000A98 1B11                        4889    1048.              CLEAR R1                      NO DATA FROM USER AREA
 000A9A 5890 7DC8/0D99       00DE0  4893    1049.              ACALL SENDXACT                CALL OVAM
 000AA0 5800 C014            00014  4897    1050.              L     R0,VCDEVID              GET DEVICE ID OVAM SENT
 000AA4 9180 C003      00003        4898    1051.              IF    ~VCRR15Z,BEGIN          BAD RETURN FROM ENQ/DEQ
 000AA8 4710 7AAA            00AC2  4908             +
 000AAC 5820 C020/1222       00020  4913  1 1052.                LT    SR,VCRETCOD             GET RETURN CODE
 000AB2 47D0 7AA2            00ABA  4917  1 1053.                IF    P,'ST  R0,USER0'        SAVE THE ID
 000AB6 5000 A100            00100  4929  1          +
 000ABA 5020 A0FC            000FC  4934  1 1054.                ST    SR,USER15               GIVE HIM THE BAD NEWS
 000ABE 47F0 7136            0014E  4935  1 1055.                B     SVCRTN                  AND RETURN
 000AC2                             4936    1056.              END   ,
 000AC2 5000 A100            00100  4940    1057.              ST    R0,USER0                SEND BACK THE ID
 000AC6 4D90 7D6A            00D82  4941    1058.              LCALL GETVDT                  LOAD VDTR
 000ACA 9180 B000      00000        4943    1059.              IF    VDTFA,'VKAPUT VDTATCH'    SHOULDN'T BE ATTACHED
 000ACE 47E0 7AD0            00AE8  4953             +
 000AD2 90E1 A050            00050  4961  1          +
 000AD6 5090 A0A4            000A4  4962  1          +
 000ADA 5890 7DC4/0D99       00DDC  4965  1          +
 000AE0 40E5C4E3C1E3C3C8            4967             +
 000AE8                             4972    1060.              CLEAR VDT                     CLEAR IT OUT
 000AE8 D74B B000 B000 00000 00000  4978             +
 000AEE 9205 B003      00003        4979    1061.              MVI   VDTCLASS,VDTENQC        SET ENQ/DEQ
 000AF2 9684 B000      00000        4980    1062.              SET   VDTFA+VDTFR15           SET ATTACHED, RETURN R15
 000AF6 9628 B001      00001        4989    1063.              SET   VDTFPOST+VDTFFIDT       SET POSTED, FREE AT WAIT
 000AFA D22B B020 C028 00020 00028  4998    1064.              MVC   VDTNAME,VCFNAME
 000B00 5810 C020            00020  4999    1065.              L     R1,VCRETCOD
 000B04 5010 B014            00014  5000    1066.              ST    R1,VDTR15               SET RETURN FROM WAIT
 000B08 47F0 7136            0014E  5001    1067.              B     SVCRTN                  GO BACK TO USER
1VAMT     (VAMT02) (09:45) (22MAR04) VAM/370 - ORVYL File System Batch Interface                                            Page   58
0Current Usings:  (*,R7) (CT,R10) (VDT,R11) (VCHEAD,R12)
0Loc    Object Code    Addr1 Addr2  Stmt Lv Lineno    Source Statement           (Hibal 5, Asmedit 3.3)  HLASM R4.0  2004/03/22 09.45
+___    ______ ____    _____ _____  ____ __ ______    ______ _________
0                                   5003    1069.     *    SENSE OPERATIONS
                                    5004    1070.     *
 000B0C                             5005    1071.     VTASENSE DS    0H
 000B0C 5900 7DCC            00DE4  5006    1072.              C     R0,=A(8)                SENSE NAME AND ACCOUNT?
 000B10 4770 7B0A            00B22  5007    1073.              BNE   VTASONAM                TRY SENSE 28
 000B14 D21A 1000 A30F 00000 0030F  5008    1074.              MVC   @R1(L'CTUINFO),CTUINFO  MOVE IN INFORMATION
 000B1A 50F0 A0FC            000FC  5009    1075.              ST    R15,USER15              RESTORE R15
 000B1E 47F0 7136            0014E  5010    1076.              B     SVCRTN
0000B22                             5012    1078.     VTASONAM LABEL ,
 000B22 5900 7DD0            00DE8  5014    1079.              IF    (R0,NE,28),NOSENSE      ONLY SENSES ALLOWED
 000B26 4770 7CBE            00CD6  5028             +
 000B2A 4200 C001            00001  5034    1080.              STC   R0,VCCODE               SAVE SENSE CODE
 000B2E D201 C024 7E0A 00024 00E22  5035    1081.              MVC   VCDATAL,=Y(8)           SET RETURNED DATA LENGTH
 000B34 1311                        5036    1082.              LCR   R1,R1                   SET TO RECEIVE DATA
 000B36 5890 7DC8/0D99       00DE0  5037    1083.              ACALL SENDXACT                SEND REQ
 000B3C                             5041    1084.              CLEAR USER15                  ASSUME GOOD
 000B3C D703 A0FC A0FC 000FC 000FC  5047             +
 000B42 9180 C003      00003        5048    1085.              IF    ~VCRR15Z,SPEC           WHOOPS
 000B46 47E0 70E0            000F8  5060             +
 000B4A 47F0 7136            0014E  5066    1086.              B     SVCRTN                  -- RETURN
1VAMT     (VAMT02) (09:45) (22MAR04) VAM/370 - ORVYL File System Batch Interface                                            Page   59
0Current Usings:  (*,R7) (CT,R10) (VDT,R11) (VCHEAD,R12)
0Loc    Object Code    Addr1 Addr2  Stmt Lv Lineno    Source Statement           (Hibal 5, Asmedit 3.3)  HLASM R4.0  2004/03/22 09.45
+___    ______ ____    _____ _____  ____ __ ______    ______ _________
0                                   5068    1088.     *   SETS - ONLY ENQUEUE, DEQUEUE (SET 21, 22) ARE IMPLEMENTED
                                    5069    1089.     *
 000B4E                             5070    1090.     VTASET   DS    0H
 000B4E 4200 C001            00001  5071    1091.              STC   R0,VCCODE               SET SENSE SUBCODE
 000B52 5900 7DD4            00DEC  5072    1092.              IF    (R0,EQ,21),ENQUEUE
 000B56 4780 7B4E            00B66  5086             +
 000B5A 5900 7DD8            00DF0  5092    1093.              IF    (R0,EQ,22),DEQUEUE
 000B5E 4780 7B88            00BA0  5106             +
 000B62 47F0 70E0            000F8  5112    1094.              B     SPEC                    DON'T HAVE THAT ONE
0000B66 91C0 C002      00002        5114    1096.     ENQUEUE  IF    (VCFWAIT+VCFNR1,NZ),SPEC     MODE ONLY ON R15
 000B6A 4770 70E0            000F8  5132             +
 000B6E 59F0 7DDC            00DF4  5138    1097.              IF    (R15,GT,128),SPEC       ENQUEUE STRING LIMIT
 000B72 4720 70E0            000F8  5152             +
 000B76 40F0 C024            00024  5158    1098.              STH   R15,VCDATAL             SAVE LENGTH
 000B7A 06F0/44F0 7E48       00E60  5159    1099.              DEX   R15,'MVC  VCDATA(0),@R1'
 000E60 D200 C028 1000 00028 00000  5170             +
 000B80 1B11                        5178    1100.              CLEAR R1                      NO DATA EITHER WAY
 000B82 5890 7DC8/0D99       00DE0  5182    1101.              ACALL SENDXACT
 000B88 9140 C003      00003        5186    1102.              IF    VCRSPEC,SPEC            SOMEONE BLEW IT
 000B8C 4710 70E0            000F8  5198             +
 000B90 D203 A0FC C020 000FC 00020  5204    1103.              MVC   USER15,VCRETCOD
 000B96 D203 A104 C018 00104 00018  5205    1104.              MVC   USER1,VCPARM1
 000B9C 47F0 7136            0014E  5206    1105.              B     SVCRTN                  ALL DONE
-000BA0 91C0 C002      00002        5208    1107.     DEQUEUE  IF    (VCFWAIT+VCFNR1,NZ),SPEC     NO MODES
 000BA4 4770 70E0            000F8  5226             +
 000BA8 5010 C018            00018  5232    1108.              ST    R1,VCPARM1
 000BAC                             5233    1109.              CLEAR VCDATAL                 NO DATA
 000BAC D701 C024 C024 00024 00024  5239             +
 000BB2 1B11                        5240    1110.              CLEAR R1
 000BB4 5890 7DC8/0D99       00DE0  5244    1111.              ACALL SENDXACT                DO IT
 000BBA 9140 C003      00003        5248    1112.              IF    VCRSPEC,SPEC
 000BBE 4710 70E0            000F8  5260             +
 000BC2 47F0 7136            0014E  5266    1113.              B     SVCRTN
1VAMT     (VAMT02) (09:45) (22MAR04) VAM/370 - ORVYL File System Batch Interface                                            Page   60
0Current Usings:  (*,R7) (CT,R10) (VDT,R11) (VCHEAD,R12)
0Loc    Object Code    Addr1 Addr2  Stmt Lv Lineno    Source Statement           (Hibal 5, Asmedit 3.3)  HLASM R4.0  2004/03/22 09.45
+___    ______ ____    _____ _____  ____ __ ______    ______ _________
0                                   5268    1115.     *        WRITE DATA
                                    5269    1116.     *
 000BC6                             5270    1117.     VTAWRITE DS    0H
 000BC6 9220 A32D      0032D        5271    1118.              VAMTRACE WRITE
 000BCA 90E1 A050            00050  5274             +
 000BCE 5090 A0A4            000A4  5275             +
 000BD2 5890 7DC4/0D99       00DDC  5278             +
 000BD8 E6D9C9E3C5404040            5280             +
 000BE0 5890 A0A4            000A4  5281             +
 000BE4 4D90 7D26            00D3E  5282    1119.              LCALL SETVDT                  GET DEVICE TABLE
 000BE8 9170 C002      00002        5284    1120.              IF    (VCFNR1+VCFNR15+VCFNR14,NZ),SPEC
 000BEC 4770 70E0            000F8  5305             +
                                    5311    1121.     * Zero is now ok! gg.dff
                                    5312    1121.1    *         LTR   R15,R15                 NON-ZERO LENGTH
                                    5313    1122.     *         BZ    SPEC
 000BF0 49F0 7DF4            00E0C  5314    1123.              CH    R15,=Y(8*1024)          OVER 8K?
 000BF4 4720 70E0            000F8  5315    1124.              BH    SPEC                    YEP, CAN'T DO THAT
 000BF8 9501 B003      00003        5316    1125.              CLI   VDTCLASS,VDTTERMC       A TERMINAL?
 000BFC 4780 7C60            00C78  5317    1126.              BE    WRITERM                 YEP
 000C00 9502 B003      00003        5318    1127.              CLI   VDTCLASS,VDTFILEC       A FILE?
 000C04 4770 70E0            000F8  5319    1128.              BNE   SPEC                    NO, YOU GOT TROUBLES
 000C08 49F0 7DF6            00E0E  5320    1129.              CH    R15,=Y(4*1024)          MORE THAN 4K?
 000C0C 47D0 7C38            00C50  5321    1130.              BNH   SHRTWRIT                NO, SKIP THIS STUFF
 000C10 4BF0 7DF6            00E0E  5322    1131.              SH    R15,=Y(4*1024)          GET EXCESS LENGTH
 000C14 50F0 D000            00000  5323    1132.              ST    R15,@R13                SAVE
 000C18 1821                        5324    1133.              LR    SR,R1                   GET NEXT ADDRESS
 000C1A 4A20 7DF6            00E0E  5325    1134.              AH    SR,=Y(4*1024)
 000C1E 5020 D004            00004  5326    1135.              ST    SR,@R13+4               SAVE
 000C22 41D0 D008            00008  5327    1136.              VPUSH ,,2*4
 000C26 D201 C024 7DF6 00024 00E0E  5329    1137.              MVC   VCDATAL,=Y(4*1024)      SET FIRST LENGTH
 000C2C 5000 C014            00014  5330    1138.              ST    R0,VCDEVID              SAVE DEVICE IDENTIFIER
 000C30 50E0 C018            00018  5331    1139.              ST    R14,VCPARM1             SAVE RECORD NUMBER
 000C34 4D90 7634            0064C  5332    1140.              LCALL RWCXACT                 SEND THE GOODS
 000C38 94DF B001      00001        5334    1141.              CLEAR VDTFPOST                CLEAR POST FLAG
 000C3C 4BD0 7DF8            00E10  5341    1142.              VPOP  ,,2*4
 000C40 58F0 D000            00000  5343    1143.              L     R15,@R13                GET SECOND LENGTH
 000C44 5810 D004            00004  5344    1144.              L     R1,@R13+4               GET SECOND ADDRESS
 000C48 58E0 C01C            0001C  5345    1145.              L     R14,VCPARM2             GET NEXT BLOCK TO WRITE
 000C4C 5800 C014            00014  5346    1146.              L     R0,VCDEVID              GET DEVICE ID
 000C50                             5347    1147.     SHRTWRIT DS    0H
 000C50 40F0 C024            00024  5348    1148.              STH   R15,VCDATAL             SAVE LENGTH
 000C54 5000 C014            00014  5349    1149.              ST    R0,VCDEVID              SAVE DEVICE ID
 000C58 50E0 C018            00018  5350    1150.              ST    R14,VCPARM1             SAVE BLOCK NUMBER
 000C5C 4D90 7634            0064C  5351    1151.              LCALL RWCXACT                 SEND THE GOODIES
 000C60 D203 B00C C018 0000C 00018  5353    1152.              MVC   VDTR1,VCPARM1           SAVE LENGTH WRITTEN
 000C66 9610 B000      00000        5354    1153.              SET   VDTFR1
 000C6A D203 B010 C01C 00010 0001C  5360    1154.              MVC   VDTR14,VCPARM2          SAVE NEXT BLOCK NUMBER
 000C70 9608 B000      00000        5361    1155.              SET   VDTFR14
 000C74 47F0 7136            0014E  5367    1156.              B     SVCRTN
1VAMT     (VAMT02) (09:45) (22MAR04) VAM/370 - ORVYL File System Batch Interface                                            Page   61
0Current Usings:  (*,R7) (CT,R10) (VDT,R11) (VCHEAD,R12)
0Loc    Object Code    Addr1 Addr2  Stmt Lv Lineno    Source Statement           (Hibal 5, Asmedit 3.3)  HLASM R4.0  2004/03/22 09.45
+___    ______ ____    _____ _____  ____ __ ______    ______ _________
0                                   5369    1158.     *
                                    5370    1159.     *    WRITE TO THE LOG INSTEAD OF THE TERMINAL
                                    5371    1160.     *
 000C78                             5372    1161.     WRITERM  DS    0H
 000C78 180F/5890 7DBC       00DD4  5373    1162.              VSEG  (R1),(R15)              SEG MESSAGE
 000C7E 0D99                        5388             +
 000C80 5890 7DC0/0D99       00DD8  5389    1163.              VWRITE  ,
 000C86 9620 B001      00001        5394    1164.              SET   VDTFPOST                OPERATION COMPLETE
 000C8A 94BF B001      00001        5400    1165.              CLEAR VDTFWD                  WAIT NOT DONE
 000C8E                             5407    1166.              CLEAR VDTR15                  GOOD RETURN
 000C8E D703 B014 B014 00014 00014  5413             +
 000C94 9604 B000      00000        5414    1167.              SET   VDTFR15                 RETURN R15
 000C98 94E7 B000      00000        5420    1168.              CLEAR VDTFR1+VDTFR14          NOTHING ELSE
 000C9C 47F0 7136            0014E  5430    1169.              B     SVCRTN
1VAMT     (VAMT02) (09:45) (22MAR04) VAM/370 - ORVYL File System Batch Interface                                            Page   62
0Current Usings:  (*,R7) (CT,R10) (VDT,R11) (VCHEAD,R12)
0Loc    Object Code    Addr1 Addr2  Stmt Lv Lineno    Source Statement           (Hibal 5, Asmedit 3.3)  HLASM R4.0  2004/03/22 09.45
+___    ______ ____    _____ _____  ____ __ ______    ______ _________
0                                   5432    1171.     *        MISC. OPERATIONS NOT YET IMPLEMENTED
                                    5433    1172.     *
 000CA0                             5434    1173.     VTACOMMA DS    0H
 000CA0 4110 7E30            00E48  5435    1174.              VSEG  'COMMAND'
 000CA4 4100 0007            00007  5439             +
 000CA8 5890 7DBC/0D99       00DD4  5442             +
 000CAE 47F0 7CD0            00CE8  5444    1175.              B     NOTIMP
 000CB2                             5445    1176.     VTAPAUSE DS    0H
 000CB2 4110 7E37            00E4F  5446    1177.              VSEG  'PAUSE'
 000CB6 4100 0005            00005  5450             +
 000CBA 5890 7DBC/0D99       00DD4  5453             +
 000CC0 47F0 7CD0            00CE8  5455    1178.              B     NOTIMP
 000CC4                             5456    1179.     VTAMILCO DS    0H
 000CC4 4110 7E10            00E28  5457    1180.              VSEG  'MILCOM'
 000CC8 4100 0006            00006  5461             +
 000CCC 5890 7DBC/0D99       00DD4  5464             +
 000CD2 47F0 7CD0            00CE8  5466    1181.              B     NOTIMP
 000CD6                             5467    1182.     NOSENSE  DS    0H
 000CD6 4110 7E3C            00E54  5468    1183.              VSEG  'SENSE'
 000CDA 4100 0005            00005  5472             +
 000CDE 5890 7DBC/0D99       00DD4  5475             +
 000CE4 47F0 7CD0            00CE8  5477    1184.              B     NOTIMP
                                    5478    1185.
 000CE8                             5479    1186.     NOTIMP   DS    0H
 000CE8 4110 7DA8            00DC0  5480    1187.              VSEG  ' NOT IMPLEMENTED'
 000CEC 4100 0010            00010  5484             +
 000CF0 5890 7DBC/0D99       00DD4  5487             +
 000CF6 5890 7DC0/0D99       00DD8  5489    1188.              VWRITE  ,
 000CFC 47F0 7136            0014E  5494    1189.              B     SVCRTN                  NOTHING TO WORRY ABOUT
1VAMT     (VAMT02) (09:45) (22MAR04) VAM/370 - ORVYL File System Batch Interface                                            Page   63
0Current Usings:  (*,R7) (CT,R10) (VDT,R11) (VCHEAD,R12)
0Loc    Object Code    Addr1 Addr2  Stmt Lv Lineno    Source Statement           (Hibal 5, Asmedit 3.3)  HLASM R4.0  2004/03/22 09.45
+___    ______ ____    _____ _____  ____ __ ______    ______ _________
0                                   5496    1191.     *
                                    5497    1192.     *    EXIT TO OS
                                    5498    1193.     *
 000D00                             5499    1194.     VTAEXIT  DS    0H
 000D00 5890 7DE0/0D99       00DF8  5500    1195.              ACALL VAMEXIT
 000D06 47F0 7136            0014E  5504    1196.              B     SVCRTN
-
                                    5506    1198.     *
                                    5507    1199.     *    USER PANIC
                                    5508    1200.     *
 000D0A                             5509    1201.     VTAPANIC DS    0H
 000D0A 1820                        5510    1202.              LR    SR,R0                   MOVE PANIC CODE
 000D0C 4110 7E16            00E2E  5511    1203.              VSEG  'VAM USER PANIC, CODE= '
 000D10 4100 0016            00016  5515             +
 000D14 5890 7DBC/0D99       00DD4  5518             +
 000D1A 18F2/4100 0006       00006  5520    1204.              BTD   CTTEMP,6,(SR)           CONVERT TO DECIMAL
 000D20 4110 A108            00108  5539             +
 000D24 58E0 7DE4/0DEE       00DFC  5542             +
 000D2A 5890 7DBC/0D99       00DD4  5544    1205.              VSEG  (1),(0)
 000D30 5890 7DC0/0D99       00DD8  5561    1206.              VWRITE  ,
 000D36 4100 00C8            000C8  5566    1207.              LA    R0,200                  ABEND CODE
 000D3A 47F0 70F8            00110  5567    1208.              B     ABEND                    AND CAN HIM
1VAMT     (VAMT02) (09:45) (22MAR04) VAM/370 - ORVYL File System Batch Interface                                            Page   64
0Current Usings:  (*,R7) (CT,R10) (VDT,R11) (VCHEAD,R12)
0Loc    Object Code    Addr1 Addr2  Stmt Lv Lineno    Source Statement           (Hibal 5, Asmedit 3.3)  HLASM R4.0  2004/03/22 09.45
+___    ______ ____    _____ _____  ____ __ ______    ______ _________
0                                   5569    1210.     *   SETVDT - FIND DEVICE TABLE AND CHECK FOR ATTACH, POST
                                    5570    1211.     *
 000D3E                             5571    1212.     SETVDT   DS    0H
 000D3E 9089 D000/188D       00000  5572    1213.              VSAVE WAR,RAR,*
 000D44 41D0 D008            00008  5575             +
 000D48 4D90 7D6A            00D82  5576    1214.              LCALL GETVDT
 000D4C 9180 B000      00000        5578    1215.              IF    ~VDTFA,SPEC
 000D50 47E0 70E0            000F8  5590             +
 000D54 9140 B001      00001        5596    1216.              IF    ~VDTFWD,MISSWAIT
 000D58 47E0 70E8            00100  5608             +
 000D5C 9120 B001      00001        5614    1217.              IF    VDTFPOST,SVDTRET
 000D60 4710 7D62            00D7A  5626             +
 000D64 90E1 A050            00050  5632    1218.              VKAPUT                        NOPOST
 000D68 5090 A0A4            000A4  5635             +
 000D6C 5890 7DC4/0D99       00DDC  5638             +
 000D72 40D5D6D7D6E2E340            5640             +
 000D7A 18D8/9889 D000       00000  5641    1219.     SVDTRET  VEXIT WAR,RAR
 000D80 07F9                        5645             +
-
-                                   5647    1221.     *
                                    5648    1222.     *   GETVDT - FIND DEVICE TABLE
                                    5649    1223.     *
 000D82                             5650    1224.     GETVDT   DS    0H
 000D82 9089 D000/188D       00000  5651    1225.              VSAVE WAR,RAR,*
 000D88 41D0 D008            00008  5654             +
 000D8C 1200                        5655    1226.              LTR   R0,R0                   MUST BE POSITIVE
 000D8E 47D0 70E0            000F8  5656    1227.              BNP   SPEC
 000D92 4900 7E2C            00E44  5657    1228.              CH    R0,=Y(CTNVDTS)          AND LESS THAN MAX
 000D96 4720 70E0            000F8  5658    1229.              BH    SPEC
 000D9A 18B0                        5659    1230.              LR    VDTR,R0
 000D9C 06B0                        5660    1231.              DECR  VDTR
 000D9E 4CB0 7E2E            00E46  5662    1232.              MH    VDTR,=Y(L'VDT)
 000DA2 5AB0 A0F4            000F4  5663    1233.              A     VDTR,CTVDTS             ADD BASE
 000DA6 18D8/9889 D000       00000  5664    1234.              VEXIT WAR,RAR
 000DAC 07F9                        5668             +
-
-DROP   VDT,R11                     5670    1236.              DROP  R11,R12                 ##
 DROP   VCHEAD,R12
1VAMT     (VAMT02) (09:45) (22MAR04) VAM/370 - ORVYL File System Batch Interface                                            Page   65
0Current Usings:  (*,R7) (CT,R10)
0Loc    Object Code    Addr1 Addr2  Stmt Lv Lineno    Source Statement           (Hibal 5, Asmedit 3.3)  HLASM R4.0  2004/03/22 09.45
+___    ______ ____    _____ _____  ____ __ ______    ______ _________
0                                   5684    1238.     *        CONSTANTS
                                    5685    1239.     *
 000DB0                             5686    1240.              LTORG
 000DB0 C9D3D3C5C7C1D340            5688                             =C'ILLEGAL VAM CODE'
 000DC0 40D5D6E340C9D4D7            5689                             =C' NOT IMPLEMENTED'
 000DD0 00000044                    5690                             =A(VTAHIGH)
 000DD4 00000000                    5691                             =V(VSEG)
 000DD8 00000000                    5692                             =V(VWRITE)
 000DDC 00000000                    5693                             =V(TRACE)
 000DE0 00001A1E                    5694                             =A(SENDXACT)
 000DE4 00000008                    5695                             =A(8)
 000DE8 0000001C                    5696                             =A(28)
 000DEC 00000015                    5697                             =A(21)
 000DF0 00000016                    5698                             =A(22)
 000DF4 00000080                    5699                             =A(128)
 000DF8 0000181E                    5700                             =A(VAMEXIT)
 000DFC 00000000                    5701                             =V(M1BTD)
 000E00 0001                        5702                             =Y(VDTTERMC)
 000E02 0002                        5703                             =Y(VDTFILEC)
 000E04 002C                        5704                             =Y(L'VCFNAME)
 000E06 0019                        5705                             =Y((NFILCD-FFILCD-4)/4)
 000E08 002C                        5706                             =Y(VCFNLEN)
 000E0A 000C                        5707                             =Y(VCACCLEN)
 000E0C 2000                        5708                             =Y(8*1024)
 000E0E 1000                        5709                             =Y(4*1024)
 000E10 0008                        5710                             =Y((2*4+3)/4*4)
 000E12 000C                        5711                             =Y(12)
 000E14 0008                        5712                             =Y(PRIVSTAT)
 000E16 0064                        5713                             =Y(100)
 000E18 0013                        5714                             =Y(HISTATUS)
 000E1A 404040404040                5715                             =CL6' '
 000E20 0006                        5716                             =Y(6)
 000E22 0008                        5717                             =Y(8)
 000E24 0005                        5718                             =Y(VDTENQC)
 000E26 0028                        5719                             =Y(L'VCFNAME-4)
 000E28 D4C9D3C3D6D4                5720                             =C'MILCOM'
 000E2E E5C1D440E4E2C5D9            5721                             =C'VAM USER PANIC, CODE= '
 000E44 00DC                        5722                             =Y(CTNVDTS)
 000E46 004C                        5723                             =Y(L'VDT)
 000E48 C3D6D4D4C1D5C4              5724                             =C'COMMAND'
 000E4F D7C1E4E2C5                  5725                             =C'PAUSE'
 000E54 E2C5D5E2C5     00E66 02638  5726                             =C'SENSE'
1VAMT     (VAMT02) (09:45) (22MAR04) VAM/370 - ORVYL File System Batch Interface                                            Page   66
0Current Usings:  (*,R7) (CT,R10)
0Loc    Object Code    Addr1 Addr2  Stmt Lv Lineno    Source Statement           (Hibal 5, Asmedit 3.3)  HLASM R4.0  2004/03/22 09.45
+___    ______ ____    _____ _____  ____ __ ______    ______ _________
0                                   5732    1243.     ********************************************************************
                                    5733    1244.     *
                                    5734    1245.     *    VAMTASK INITIALIZATION ENTRY POINT
                                    5735    1246.     *
                                    5736    1247.     *        VAMTASK IS ENTERED HERE ON THE FIRST "SVC" CALL, AND DOES
                                    5737    1248.     *        ANY NECESSARY INITIALIZATION, THEN MODIFIES THE ADDRESS IN
                                    5738    1249.     *        THE VAMINFO CONTROL BLOCK TO POINT TO VAMENTER FOR
                                    5739    1250.     *        SUBSEQUENT CALLS.  THE REGISTERS ARE RESTORED AND VAMENTER
                                    5740    1251.     *        IS CALLED AS IF ENTERED DIRECTLY FROM THE USER PROGRAM.
                                    5741    1252.     *
                                    5742    1253.     ********************************************************************
0                                   5744    1255.              ENTRY VAMTASK
 000E66 0D70                        5745    1256.     VAMTASK  BASE  BR                      ##
 DROP   *,R7
 USING  *,R7
 000E68 1861                        5762    1257.              LR    PR,R1                   SAVE VAMINFO POINTER
 USING  VAMINFO,R6                  5763    1258.              USING VAMINFO,PR              ##
 000E6A 5830 76C0            01528  5772    1259.              L     TR,VAMCOREL             HOW MUCH DO WE NEED?
 000E6E 4130 301F            0001F  5773    1260.              LA    TR,@TR+31               ROUND UP
 000E72 5430 7848            016B0  5774    1261.              N     TR,=F'-32'               TO MULTIPLE OF 32
 000E76 1803                        5775    1262.              LR    R0,TR
 000E78 4510 7014/0A0A       00E7C  5776    1263.              GETMAIN R,LV=(0)              TRY AND GET IT
 000E7E 18A1                        5780    1264.              LR    CTR,R1                  CT STARTS THINGS OFF
 000E80 50A0 6004            00004  5781    1265.              ST    CTR,VAMCT
 000E84 1821                        5782    1266.              LR    SR,R1                   SET UP REGS FOR CLEAR CORE
 000E86 1B55                        5783    1267.              CLEAR RR
 000E88 0E24                        5787    1268.              MVCL  SR,QR
                                    5788    1269.
 000E8A 5A10 784C            016B4  5789    1270.              A     R1,=A(L'CT)             GET FREE CORE START
 000E8E 5010 A020            00020  5790    1271.              ST    R1,CTCORE               SAVE BASE ADDRESS
 000E92 5060 A024            00024  5791    1272.              ST    PR,CTINFOP              SAVE POINTER TO VAMINFO
 000E96 D203 A000 7850 00000 016B8  5792    1273.              MVC   CTID,=CL4'CTCT'         SET UP THE ID FOR THE DUMP
 000E9C D21B A004 A000 00004 00000  5793    1274.              MVC   CTID+4(7*4),CTID
 000EA2 41D0 A34C            0034C  5794    1275.              LA    R13,CTSVA               START SAVE STACK
 000EA6 9620 A32C      0032C        5795    1276.              SET   CTVAMACT                INDICATE VAM ACTIVE
                                    5801    1277.         ¿þþþþþþþþþþþþþþþþþþþþþþþþþþþÜ
                                    5802    1278.         Ÿ  MOVE IN TIMER EXIT CODE  Ÿ
                                    5803    1279.         ¾þþþþþþþþþþþþþþþþþþþþþþþþþþþ»
 000EAA 5810 7854            016BC  5804    1280.              L     R1,=A(MOVETXIT)
 000EAE D21D A32E 1000 0032E 00000  5805    1281.              MVC   TIMEXIT(L'MOVETXIT),@R1
1VAMT     (VAMT02) (09:45) (22MAR04) VAM/370 - ORVYL File System Batch Interface                                            Page   67
0Current Usings:  (VAMINFO,R6) (*,R7) (CT,R10)
0Loc    Object Code    Addr1 Addr2  Stmt Lv Lineno    Source Statement           (Hibal 5, Asmedit 3.3)  HLASM R4.0  2004/03/22 09.45
+___    ______ ____    _____ _____  ____ __ ______    ______ _________
0                                   5807    1283.     *
                                    5808    1284.     *  INITIALIZE PRINT DATA SET
                                    5809    1285.     *
 000EB4 D204 A1F8 78E8 001F8 01750  5810    1286.              MVC   PRYNBUF(5),=X'0001000040'   INITIALIZE PRINT BUFFER
 000EBA D283 A1FD A1FC 001FD 001FC  5811    1287.              MVC   PRYNBUF+5(PRYNBUFL-1),PRYNBUF+4
 000EC0 4110 76B6            0151E  5812    1288.              DEVTYPE SYSKNAME,CTTEMP       SYSKAPUT DD CARD PRESENT?
 000EC4 4100 A108/0A18       00108  5815             +
 000ECA 12FF/4770 7082       00EEA  5817    1289.              IF    (R15,ZERO),BEGIN        DO, WE HAVE SYSKAPUT?
 000ED0 4510 7070/8F         00ED8  5831  1 1290.                OPEN  (PRYNTER,(OUTPUT))
 000ED5 0025D4/0A13                 5835  1          +
 000EDA 5810 7858            016C0  5837  1 1291.                L     R1,=A(PRYNTER)          DCB ADDRESS
 000EDE 9110 1030      00030        5838  1 1292.                WITH  (IHADCB,R1),'TM  DCBOFLGS,DCBOFOPN'
 USING  IHADCB,R1
 DROP   IHADCB,R1
 000EE2 4780 7082            00EEA  5862  1 1293.                IF    Z,EXIT                  DATA SET NOT OPENED
 000EE6 9640 A32C      0032C        5876  1 1294.                SET   CTKAPUT                 YES, WE HAVE SYSKAPUT
 000EEA                             5882    1295.              END   ,
                                    5886    1296.     *
                                    5887    1297.     *    GET ACCOUNT JOB AND PROGRAMMER NAME INFORMATION FROM HASP
                                    5888    1298.     *
 000EEA 4100 0004            00004  5889    1299.              HASPSERV JOBNAME,CTTEMP       GET JOB NAME
 000EEE 4110 A108/1BFF       00108  5903             +
 000EF4 0AFE                        5908             +
 000EF6 12FF/4780 70A4       00F0C  5909    1300.              IF    (R15,NZ),'ABEND  2,DUMP,STEP '    SORRY
 000EFC 4110 0002            00002  5928  1          +
 000F00 4100 00C0            000C0  5929  1          +
 000F04 8900 0018/1610       00018  5930  1          +
 000F0A 0A0D                        5932             +
 000F0C D207 A1F0 A108 001F0 00108  5937    1301.              MVC   CTJOBNAM,CTTEMP
 000F12 1B00/4110 A108       00108  5938    1302.              HASPSERV JOBACCT,CTTEMP       GET JOB ACOUNT AND PRIVS.
 000F18 1BFF/0AFE                   5953             +
 000F1C 12FF/4780 70CA       00F32  5955    1303.              IF    (R15,NZ),'ABEND  4,DUMP,STEP '    SORRY
 000F22 4110 0004            00004  5974  1          +
 000F26 4100 00C0            000C0  5975  1          +
 000F2A 8900 0018/1610       00018  5976  1          +
 000F30 0A0D                        5978             +
 000F32 D202 A30F A108 0030F 00108  5983    1304.              MVC   CTUSER,CTTEMP           PUT THINGS IN PROPER PLACES
 000F38 925B A312      00312        5984    1305.              MVI   CT$,C'$'
 000F3C D203 A313 A10B 00313 0010B  5985    1306.              MVC   CTGRP(4),CTTEMP+3       GROUP AND SUB-GROUP
 000F42 D201 A32A A10F 0032A 0010F  5986    1307.              MVC   CTPRIVS,CTTEMP+3+4      SET PRIVS. OF ACCOUNT
 000F48 4100 0001            00001  5987    1308.              HASPSERV JOBINFO,CTTEMP       GET PROG. NAME FROM JOBCARD
 000F4C 4110 A108/1BFF       00108  6001             +
 000F52 0AFE                        6006             +
 000F54 12FF/4780 7102       00F6A  6007    1309.              IF    (R15,NZ),'ABEND  6,DUMP,STEP '    SORRY
 000F5A 4110 0006            00006  6026  1          +
 000F5E 4100 00C0            000C0  6027  1          +
 000F62 8900 0018/1610       00018  6028  1          +
 000F68 0A0D                        6030             +
 000F6A D603 A108 785C 00108 016C4  6035    1310.              OC    CTTEMP(4),=C'0000'      FIX JOB NUMBER
 000F70 9240 A31A      0031A        6036    1311.              MVI   CTUNAME,C' '            BLANK FILL USER NAME
 000F74 D20E A31B A31A 0031B 0031A  6037    1312.              MVC   CTUNAME+1(L'CTUNAME-1),CTUNAME
 000F7A D60F A31A A108 0031A 00108  6038    1313.              OC    CTUNAME,CTTEMP          TRUNCATE PROBABLY
 000F80 D202 A317 78ED 00317 01755  6039    1314.              MVC   CTERMID,=C'VAM'         PHONY
                                    6040    1315.     *
1VAMT     (VAMT02) (09:45) (22MAR04) VAM/370 - ORVYL File System Batch Interface                                            Page   68
0Current Usings:  (VAMINFO,R6) (*,R7) (CT,R10)
0Loc    Object Code    Addr1 Addr2  Stmt Lv Lineno    Source Statement           (Hibal 5, Asmedit 3.3)  HLASM R4.0  2004/03/22 09.45
+___    ______ ____    _____ _____  ____ __ ______    ______ _________
0                                   6041    1316.     *    SEND "STARTING" MESSAGE
                                    6042    1317.     *
 000F86 4110 7860            016C8  6043    1318.              VSEG  'VAM HAS BEEN ENTERED'
 000F8A 4100 0014            00014  6047             +
 000F8E 5890 7874/0D99       016DC  6050             +
 000F94 5890 7878/0D99       016E0  6052    1319.              VWRITE  ,
                                    6057    1320.     *
                                    6058    1321.     *    INITIALIZE TRACE TABLE
                                    6059    1322.     *
 000F9A 5820 787C            016E4  6060    1323.              L     SR,=A(TRACTBL-CT)       GET TRACE TABLE OFFSET
 000F9E 1A2A                        6061    1324.              AR    SR,CTR                  TRACE TABLE START
 000FA0 5020 A060            00060  6062    1325.              ST    SR,CTTRACE              SAVE IT
 USING  TRACTBL,R2                  6063    1326.              USING TRACTBL,SR              ##
 000FA4 4130 2010            00680  6072    1327.              LA    TR,TRACTBLS             START OF TRACE TABLE
 000FA8 5030 2000            00670  6073    1328.              ST    TR,TRACSTRT             SAVE IT
 000FAC 5030 2004            00674  6074    1329.              ST    TR,TRACNEXT             START AT THE TOP
 000FB0 5830 7880            016E8  6075    1330.              L     TR,=A(TRACTBLE-TRACTBL-TRACENTS) LENGTH LESS ONE ENTRY
 000FB4 1A32                        6076    1331.              AR    TR,SR                   PLUS THE BASE ADDRESS
 000FB6 5030 2008            00678  6077    1332.              ST    TR,TRACEND              MARKS THE END
 DROP   TRACTBL,R2                  6078    1333.              DROP  SR                      ##
                                    6085    1334.     *
                                    6086    1335.     *    INITIALIZE DEVICE TABLES
                                    6087    1336.     *
 000FBA 5840 7884            016EC  6088    1337.              L     QR,=A(VBDT-CT)          OFFSET IN DXD
 000FBE 1A4A                        6089    1338.              AR    QR,CTR                  PLUS BASE ADDRESS
 000FC0 5040 A0F4            000F4  6090    1339.              ST    QR,CTVDTS               SAVE
 000FC4 4120 00DC            000DC  6091    1340.              LA    SR,CTNVDTS
 000FC8 4130 0001            00001  6092    1341.              LA    TR,1
 USING  VDT,R4                      6093    1342.              USING VDT,QR                  ##
 000FCC 4230 4005            00005  6102    1343.     IVDTL    STC   TR,VDTID                SAVE ID NO.
 000FD0 4130 3001            00001  6103    1344.              LA    TR,@TR+1                BUMP ID NO.
 000FD4 4140 404C            0004C  6104    1345.              LA    QR,VDTNEXT              NEXT VDT
 000FD8 4620 7164            00FCC  6105    1346.              BCT   SR,IVDTL                LOOP
 000FDC 5840 A0F4            000F4  6106    1347.              L     QR,CTVDTS               INITIALIZE MASTER TERMINAL
 000FE0 9684 4000      00000        6107    1348.              SET   VDTFA+VDTFR15           SET ATTACHED AND RETURN 15
 000FE4 9640 4001      00001        6116    1349.              SET   VDTFWD                  SET WAIT DONE
 000FE8                             6122    1350.              CLEAR VDTR15
 000FE8 D703 4014 4014 00014 00014  6128             +
 000FEE 9201 4003      00003        6129    1351.              MVI   VDTCLASS,VDTTERMC       SET CLASS = TERMINAL
 DROP   VDT,R4                      6130    1352.              DROP  QR                      ##
                                    6137    1353.     *
                                    6138    1354.     *  INITIALIZE STAE EXIT
                                    6139    1355.     *
 000FF2 5820 7888            016F0  6140    1356.              L     SR,=A(STAEXIT)
 000FF6 4110 6050            00050  6141    1357.              STAE  (SR),PARAM=(CTR),MF=(E,STAELIST)
 000FFA D702 1001 1001 00001 00001  6144             +
 001000 4122 0000            00000  6145             +
 001004 5621 0000            00000  6146             +
 001008 5021 0000            00000  6147             +
 00100C 50A1 0004/1B00       00004  6148             +
 001012 0A3C                        6150             +
 001014 12FF/4770 71E6       0104E  6151    1358.              IF    (R15,NZ),BADSTAE        WHAT WENT WRONG?
 00101A 4110 76AE            01516  6168    1359.              DEVTYPE PRIVNAME,CTTEMP       DOES HE HAS HIS OWN OVAM?
 00101E 4100 A108/0A18       00108  6171             +
1VAMT     (VAMT02) (09:45) (22MAR04) VAM/370 - ORVYL File System Batch Interface                                            Page   69
0Current Usings:  (VAMINFO,R6) (*,R7) (CT,R10)
0Loc    Object Code    Addr1 Addr2  Stmt Lv Lineno    Source Statement           (Hibal 5, Asmedit 3.3)  HLASM R4.0  2004/03/22 09.45
+___    ______ ____    _____ _____  ____ __ ______    ______ _________
0001024 12FF/4780 71CA       01032  6173    1360.              IF    (R15,ZERO),IPRIV        YES, SET PRIVATE BIT
 00102A 9610 A32C      0032C        6190    1361.              SET   CTVIRT                  NOTE THAT WE'RE A JOB
 00102E 4D90 7E8A            01CF2  6196    1362.              LCALL INITMIL                 OPEN MILTEN PATH
 001032 9680 A32C      0032C        6198    1363.     IPRIV    SET   CTPRIVAM
 001036 4D90 7A40            018A8  6205    1364.              LCALL INITCOMM                OPEN COMMUNICATIONS
                                    6207    1365.     *
                                    6208    1366.     *  INITIALIZATION COMPLETE ENTER VAMTASK
                                    6209    1367.     *
 00103A 1816                        6210    1368.              LR    R1,PR
 DROP   VAMINFO,R6                  6211    1369.              DROP  PR                      ##
 USING  VAMINFO,R1                  6218    1370.              USING VAMINFO,R1              ##
 00103C 58F0 788C            016F4  6227    1371.              L     R15,=A(VAMENTER)
 001040 50F0 1000            00000  6228    1372.              ST    R15,VAMADDR             SET NEW ENTRY
 001044 5800 1010            00010  6229    1373.              L     R0,GPRS
 001048 982E 1018            00018  6230    1374.              LM    SR,R14,GPRS+(SR*4)
 00104C 07FF                        6231    1375.              BR    R15
 DROP   VAMINFO,R1                  6232    1376.              DROP  R1                      ##
-00104E 4110 0065            00065  6240    1378.     BADSTAE  ABEND  101,DUMP,STEP
 001052 4100 00C0            000C0  6245             +
 001056 8900 0018/1610       00018  6246             +
 00105C 0A0D                        6248             +
                                    6249    1379.
 DROP   CT,R10                      6250    1380.              DROP  ,                       ##
 DROP   *,R7
1VAMT     (VAMT02) (09:45) (22MAR04) VAM/370 - ORVYL File System Batch Interface                                            Page   70
0Loc    Object Code    Addr1 Addr2  Stmt Lv Lineno    Source Statement           (Hibal 5, Asmedit 3.3)  HLASM R4.0  2004/03/22 09.45
+___    ______ ____    _____ _____  ____ __ ______    ______ _________
0                                   6290    1382.     *
                                    6291    1383.     *    STAE EXIT
                                    6292    1384.     *
 USING  *,R15                       6293    1385.              USING *,R15                   ##
 00105E 4900 F6BE            0171C  6303    1386.     STAEXIT  CH    R0,=H'12'               ENOUGH CORE?
 001062 4770 F00A/18A2       01068  6304    1387.              IF    E,'LR  CTR,R2'          IF NOT PARM IN R2
 001068 F00E           01068 01064  6321    1388.              ELSE  'L  CTR,@R1'            ELSE PARM FIRST WORK AREA WORD
 001068 47F0 F012            01070  6326             +
 00106C 58A0 1000            00000  6333             +
 USING  CT,R10                      6338    1389.              USING CT,CTR                  ##
 001070 9120 A32C      0032C        6347    1390.              IF    ~CTVAMACT,'CLEAR R15;BR  R14'   RETURN TO ABEND
 001074 4710 F01E/1BFF       0107C  6357             +
 00107A 07FE                        6367             +
                                    6372    1391.     *
                                    6373    1392.     *  VAM WAS ACTIVE GIVE SOME INSIDE INFO
                                    6374    1393.     *
 00107C 90DE A128            00128  6375    1394.              STM   R13,R14,SVA             SAVE RETURN ADDRESSES
 001080 41D0 A130            00130  6376    1395.              LA    R13,SVA+8               SET UP SAVE STACK
 001084 4900 F6BE            0171C  6377    1396.              CH    R0,=H'12'               ENOUGH CORE?
 001088 4780 F080            010DE  6378    1397.              IF    NE,BEGIN                IF SO.
 00108C 5010 A0F0            000F0  6389  1 1398.                ST    R1,CTBSTAE              SAVE STAE WA POINTER
 001090 D207 A0A8 1010 000A8 00010  6390  1 1399.                MVC   CTBPSW,@R1+16           PSW AT ABEND
 001096 5820 1004            00004  6391  1 1400.                L     SR,@R1+4                ABEND CODE
 00109A 8820 000C            0000C  6392  1 1401.                SRL   SR,12                   GET SYSTEM CODE
 00109E BE23 A0AB            000AB  6393  1 1402.                STCM  SR,3,CTBPSW+3
 0010A2 D23F A0B0 1018 000B0 00018  6394  1 1403.                MVC   CTBGPRS(16*4),@R1+24    GPRS AT ABEND
                                    6395  1 1404.     *        FREEMAIN R,LV=104,A=(1),SP=0  GET RID OF STAE WORK AREA
 0010A8 9660 A0AB      000AB        6396  1 1405.                OI    CTBPSW+3,TRABEND        SET ABEND
 0010AC 5840 A060            00060  6397  1 1406.                L     QR,CTTRACE              GET TRACE TABLE
 USING  TRACTBL,R4                  6398  1 1407.                USING TRACTBL,QR              ##
 0010B0 5830 4004            00674  6407  1 1408.                L     TR,TRACNEXT
 0010B4 D207 3000 A0A8 00000 000A8  6408  1 1409.                MVC   @TR(8),CTBPSW           TRACE PSW
 0010BA D207 3008 A0E8 00008 000E8  6409  1 1410.                MVC   @TR+8(8),CTBGPRS+(14*4) MOVE IN R14,R15
 0010C0 D207 3010 A0B0 00010 000B0  6410  1 1411.                MVC   @TR+16(8),CTBGPRS        AND R0,R1
 0010C6 4120 3018            00018  6411  1 1412.                LA    SR,@TR+TRACENTS         FIND NEXT ENTRY
 0010CA 5520 4008            00678  6412  1 1413.                CL    SR,TRACEND              PAST THE END?
 0010CE 4740 F07C            010DA  6413  1 1414.                IF    NL,BEGIN                NOPE
 0010D2 5820 4000            00670  6424  2 1415.                  L     SR,TRACSTRT             GET BEGINING
 0010D6 92FF 4000      00670        6425  2 1416.                  MVI   TRACSTRT,X'FF'          SET WRAP
 0010DA                             6426  1 1417.                END   ,
 0010DA 5020 4004            00674  6430  1 1418.                ST    SR,TRACNEXT
 0010DE F084           010DE 0108A  6431    1419.              END   ELSE,BEGIN
 0010DE 47F0 F08C            010EA  6440             +
 0010E2 8810 000C            0000C  6446  1 1420.                SRL   R1,12                   GET SYSTEM CODE
 0010E6 BE13 A0AB            000AB  6447  1 1421.                STCM  R1,3,CTBPSW+3
 0010EA                             6448    1422.              END   ,
 DROP   TRACTBL,R4                  6452    1423.              DROP  QR,R15                  ##
 DROP   *,R15
1VAMT     (VAMT02) (09:45) (22MAR04) VAM/370 - UNDERTAKER                                                                   Page   71
0Current Usings:  (CT,R10)
0Loc    Object Code    Addr1 Addr2  Stmt Lv Lineno    Source Statement           (Hibal 5, Asmedit 3.3)  HLASM R4.0  2004/03/22 09.45
+___    ______ ____    _____ _____  ____ __ ______    ______ _________
0                                   6466    1425.     *
                                    6467    1426.     *  PRINT SOME USEFUL INFO
                                    6468    1427.     *
 0010EA 0D70                        6469    1428.     BURY     BASE  BR                      ##
 USING  *,R7
 0010EC 4110 0001/0A2E       00001  6483    1429.              TTIMER CANCEL                 CANCEL ANY TIME SET
 0010F2 4100 0004/0A3C       00004  6487    1430.              STAE  0                       CANCEL
 0010F8 9140 A32C      0032C        6491    1431.              IF    ~CTKAPUT,STAEND         NO SYSKAPUT CARD
 0010FC 47E0 722A            01316  6503             +
 001100 9240 A28A      0028A        6509    1432.              MVI   DUMPBUF,C' '            BLANK
 001104 D283 A28B A28A 0028B 0028A  6510    1433.              MVC   DUMPBUF+1(L'DUMPBUF-1),DUMPBUF  BUFFER
 00110A 925C A2E1      002E1        6511    1434.              MVI   DUMPBUF+87,C'*'         SET DELIMITERS
 00110E 925C A302      00302        6512    1435.              MVI   DUMPBUF+120,C'*'
 001112 9240 A281      00281        6513    1436.              MVI   PDMPBUF,C' '            BLANK
 001116 D207 A282 A281 00282 00281  6514    1437.              MVC   PDMPBUF+1(L'PDMPBUF-1),PDMPBUF  BUFFER
 00111C 5890 75F4/0D99       016E0  6515    1438.              VWRITE ,                      FLUSH ANY EXISTING DATA
 001122 4110 75A4            01690  6520    1439.              VSEG  'GREETINGS FROM VAM, JOB '
 001126 4100 0018            00018  6524             +
 00112A 5890 75F0/0D99       016DC  6527             +
 001130 92F1 A1FC      001FC        6529    1440.              PRYNT PAGE,CTJOBNAM,8
 001134 4110 A1F0            001F0  6542             +
 001138 4100 0008            00008  6549             +
 00113C 5890 75F0/0D99       016DC  6552             +
 001142 5890 75F4/0D99       016E0  6556             +
 001148 58F0 A048            00048  6558    1441.              SEGDC 8,CTSVCCNT
 00114C 4100 0008            00008  6571             +
 001150 4110 A108            00108  6578             +
 001154 58E0 760C/0DEE       016F8  6581             +
 00115A 5890 75F0/0D99       016DC  6598             +
 001160 92F0 A1FC      001FC        6600    1442.              PRYNT SKIP,' VAM CALLS'
 001164 4110 7632            0171E  6607             +
 001168 4100 000A            0000A  6608             +
 00116C 5890 75F0/0D99       016DC  6611             +
 001172 5890 75F4/0D99       016E0  6615             +
 001178 58F0 A04C            0004C  6617    1443.              SEGDC 8,CTXACTS
 00117C 4100 0008            00008  6630             +
 001180 4110 A108            00108  6637             +
 001184 58E0 760C/0DEE       016F8  6640             +
 00118A 5890 75F0/0D99       016DC  6657             +
 001190 92F0 A1FC      001FC        6659    1444.              PRYNT SKIP,' SUZAN CALLS'
 001194 4110 7610            016FC  6666             +
 001198 4100 000C            0000C  6667             +
 00119C 5890 75F0/0D99       016DC  6670             +
 0011A2 5890 75F4/0D99       016E0  6674             +
 0011A8 4120 A0A8            000A8  6676    1445.              LA    SR,CTBPSW               GET PSW,REG POINTERS
 0011AC 4110 761C            01708  6677    1446.              VSEG  'PSW='
 0011B0 4100 0004            00004  6681             +
 0011B4 5890 75F0/0D99       016DC  6684             +
 0011BA 58F0 2000            00000  6686    1447.              SEGHX 8,@SR              CONVERT PSW
 0011BE 4100 0008            00008  6699             +
 0011C2 4110 A108            00108  6706             +
 0011C6 58E0 7620/0DEE       0170C  6709             +
 0011CC 5890 75F0/0D99       016DC  6726             +
 0011D2 4110 766C            01758  6728    1448.              VSEG  ' '
1VAMT     (VAMT02) (09:45) (22MAR04) VAM/370 - UNDERTAKER                                                                   Page   72
0Current Usings:  (*,R7) (CT,R10)
0Loc    Object Code    Addr1 Addr2  Stmt Lv Lineno    Source Statement           (Hibal 5, Asmedit 3.3)  HLASM R4.0  2004/03/22 09.45
+___    ______ ____    _____ _____  ____ __ ______    ______ _________
00011D6 4100 0001            00001  6732             +
 0011DA 5890 75F0/0D99       016DC  6735             +
 0011E0 58F0 2004            00004  6737    1449.              SEGHX 8,@SR+4
 0011E4 4100 0008            00008  6750             +
 0011E8 4110 A108            00108  6757             +
 0011EC 58E0 7620/0DEE       0170C  6760             +
 0011F2 5890 75F0/0D99       016DC  6777             +
 0011F8 92F0 A1FC      001FC        6779    1450.              PRYNT SKIP
 0011FC 5890 75F4/0D99       016E0  6785             +
 001202 4120 2008            00008  6787    1451.              LA    SR,@SR+8
 001206 92F0 A1FC      001FC        6788    1452.              PRYNT SKIP,'GENERAL PURPOSE REGISTERS'
 00120A 4110 766D            01759  6795             +
 00120E 4100 0019            00019  6796             +
 001212 5890 75F0/0D99       016DC  6799             +
 001218 5890 75F4/0D99       016E0  6803             +
 00121E 1B33                        6805    1453.              CLEAR TR
 001220 18F3/4100 0002       00002  6809    1454.     GPRLOOP  SEGDC 2,(TR)             CONVERT GPR NUMBER
 001226 4110 A108            00108  6829             +
 00122A 58E0 760C/0DEE       016F8  6832             +
 001230 5890 75F0/0D99       016DC  6849             +
 001236 4110 766C            01758  6851    1455.              VSEG  ' '
 00123A 4100 0001            00001  6855             +
 00123E 5890 75F0/0D99       016DC  6858             +
 001244 58F0 2000            00000  6860    1456.              SEGHX 8,@SR
 001248 4100 0008            00008  6873             +
 00124C 4110 A108            00108  6880             +
 001250 58E0 7620/0DEE       0170C  6883             +
 001256 5890 75F0/0D99       016DC  6900             +
 00125C 5890 75F4/0D99       016E0  6902    1457.              PRYNT
 001262 4120 2004            00004  6908    1458.              LA    SR,@SR+4
 001266 4130 3001            00001  6909    1459.              LA    TR,@TR+1
 00126A 5530 7624            01710  6910    1460.              CL    TR,=A(16)
 00126E 4740 7134            01220  6911    1461.              BL    GPRLOOP
1VAMT     (VAMT02) (09:45) (22MAR04) VAM/370 - UNDERTAKER                                                                   Page   73
0Current Usings:  (*,R7) (CT,R10)
0Loc    Object Code    Addr1 Addr2  Stmt Lv Lineno    Source Statement           (Hibal 5, Asmedit 3.3)  HLASM R4.0  2004/03/22 09.45
+___    ______ ____    _____ _____  ____ __ ______    ______ _________
0                                   6913    1463.     *
                                    6914    1464.     * TRACE TABLE
                                    6915    1465.     *
 001272 92F1 A1FC      001FC        6916    1466.              PRYNT PAGE,'TRACE TABLE'
 001276 4110 7686            01772  6923             +
 00127A 4100 000B            0000B  6924             +
 00127E 5890 75F0/0D99       016DC  6927             +
 001284 5890 75F4/0D99       016E0  6931             +
 00128A 92F0 A1FC      001FC        6933    1467.              PRYNT SKIP
 00128E 5890 75F4/0D99       016E0  6939             +
 001294 4160 A1F8            001F8  6941    1468.              LA    PR,PRYNBUF
 USING  MTR,R6                      6942    1469.              USING MTR,PR                  ##
 001298 9240 6004      00004        6951    1470.              MVI   MTRB,C' '               BLANK OUT
 00129C D256 6005 6004 00005 00004  6952    1471.              MVC   MTRB+1(MTRL-1),MTRB      TRACE BUFFER
 0012A2 5840 A060            00060  6953    1472.              L     QR,CTTRACE
 0012A6 9500 4000      00000        6954    1473.              CLI   @QR,0                   OVERFLOW?
 0012AA 4780 71CE            012BA  6955    1474.              BE    LHTR                    BR IF NOT
 0012AE 5820 4004            00004  6956    1475.              L     SR,@QR+4                PRYNT 2ND HALF
 0012B2 5830 4008            00008  6957    1476.              L     TR,@QR+8
 0012B6 4550 7246            01332  6958    1477.              BAL   RR,PRTR
 0012BA 5820 4000            00000  6959    1478.     LHTR     L     SR,@QR                  PRYNT OTHER HALF
 0012BE 5830 4004            00004  6960    1479.              L     TR,@QR+4
 0012C2 4550 7246            01332  6961    1480.              BAL   RR,PRTR
 0012C6 5820 4000            00000  6962    1481.              L     SR,@QR                  START OF TRACE TABLE
 0012CA 4120 2000            00000  6963    1482.              LA    SR,0(,SR)               CLEAN UP
 0012CE 5830 4008            00008  6964    1483.              L     TR,@QR+8                END OF TRACE TABLE
 0012D2 4130 3000            00000  6965    1484.              LA    TR,0(,TR)
 0012D6 1B32                        6966    1485.              SR    TR,SR                   LENGTH OF TRACE
 0012D8 1BFF                        6967    1486.              CLEAR R15                     ZERO FOR FILL
 0012DA 0E2E                        6971    1487.              MVCL  SR,R14                  ZAP IT
1VAMT     (VAMT02) (09:45) (22MAR04) VAM/370 - UNDERTAKER                                                                   Page   74
0Current Usings:  (MTR,R6) (*,R7) (CT,R10)
0Loc    Object Code    Addr1 Addr2  Stmt Lv Lineno    Source Statement           (Hibal 5, Asmedit 3.3)  HLASM R4.0  2004/03/22 09.45
+___    ______ ____    _____ _____  ____ __ ______    ______ _________
0                                   6973    1489.     *  PRINT MISCELLANEOUS CORE AREAS
                                    6974    1490.     *
 0012DC 92F1 A1FC      001FC        6975    1491.              PRYNT PAGE,'VAM WORK AREA'
 0012E0 4110 7691            0177D  6982             +
 0012E4 4100 000D            0000D  6983             +
 0012E8 5890 75F0/0D99       016DC  6986             +
 0012EE 5890 75F4/0D99       016E0  6990             +
 0012F4 181A                        6992    1492.              LR    R1,CTR                  FIRST
 0012F6 5800 743C            01528  6993    1493.              L     R0,VAMCOREL              PRINT
 0012FA 1BFF                        6994    1494.              CLEAR R15                       THE
 0012FC D203 A281 7628 00281 01714  6998    1495.              MVC   PDMPBUF(4),=CL4'VWA'       VAM WORK AREA
 001302 4D90 732C            01418  6999    1496.              LCALL PRCORE
                                    7001    1497.
 001306 1B00                        7002    1498.              CLEAR R0                      CLOSE
 001308 0600                        7006    1499.              BCTR  R0,R0                    OUT
 00130A 5890 75F0/0D99       016DC  7007    1500.              VSEG  (1),(0)                   SYSKAPUT
 001310 5890 75F4/0D99       016E0  7024    1501.              VWRITE ,
                                    7029    1502.
 001316                             7030    1503.     STAEND   LABEL ,
 001316 5810 A0F0/1211       000F0  7032    1504.              LT    R1,CTBSTAE              GET STAE WA POINTER
 00131C 4780 723C            01328  7036    1505.              IF    NZ,BEGIN                STAE ENTRY
 001320 1BFF                        7047  1 1506.                CLEAR R15                     DUMP THANK YOU
 001322 98DE A128            00128  7051  1 1507.                LM    R13,R14,SVA             RETRIEVE RETURN ADDRESSES
 001326 07FE                        7052  1 1508.                BR    R14                     RETURN TO ABEND PROCESSING
 001328 7240           01328 0131E  7053    1509.              END   ELSE,'ACALL  VAMQUIT'   KAPUT ENTRY
 001328 47F0 7246            01332  7062             +
 00132C 5890 762C/0D99       01718  7071             +
1VAMT     (VAMT02) (09:45) (22MAR04) VAM/370 - UNDERTAKER                                                                   Page   75
0Current Usings:  (MTR,R6) (*,R7) (CT,R10)
0Loc    Object Code    Addr1 Addr2  Stmt Lv Lineno    Source Statement           (Hibal 5, Asmedit 3.3)  HLASM R4.0  2004/03/22 09.45
+___    ______ ____    _____ _____  ____ __ ______    ______ _________
0                                   7078    1511.     *  PRYNT TRACE
                                    7079    1512.     *
 001332 4120 2000            00000  7080    1513.     PRTR     LA    SR,@SR
 001336 4130 3000            00000  7081    1514.              LA    TR,@TR
 00133A 1923                        7082    1515.              CR    SR,TR
 00133C 07B5                        7083    1516.              BNLR  RR
 00133E D201 6000 763C 00000 01728  7084    1517.              MVC   MTRCNTL,=Y(MTRL)         SET MESSAGE LENGTH
 001344 1F11/4310 2003       00003  7085    1518.              LC    R1,@SR+3                 GET TYPE
 00134A 8810 0004            00004  7092    1519.              SRL   R1,4
 00134E 4C10 763E            0172A  7093    1520.              MH    R1,=H'5'
 001352 4111 744B            01537  7094    1521.              LA    R1,TRTYPES(R1)
 001356 D204 6005 1000 00005 00000  7095    1522.              MVC   MTRTYPE(5),@R1
 00135C 58F0 2000            00000  7096    1523.              BTX   MTRLH,8,@SR
 001360 4100 0008            00008  7108             +
 001364 4110 601B            0001B  7115             +
 001368 58E0 7620/0DEE       0170C  7118             +
 00136E 58F0 2004            00004  7120    1524.              BTX   MTRRH,8,@SR+4
 001372 4100 0008            00008  7132             +
 001376 4110 6024            00024  7139             +
 00137A 58E0 7620/0DEE       0170C  7142             +
 001380 D200 6016 6022 00016 00022  7144    1525.              MVC   MTRIC(1),MTRLH+7      INTERRUPTION CODE
 001386 D201 6017 6024 00017 00024  7145    1526.              MVC   MTRIC+1(2),MTRRH
 00138C 5810 2004            00004  7146    1527.     TRDO     L     R1,@SR+4
 001390 4110 1000            00000  7147    1528.              LA    R1,@R1
 001394 D207 600C 1000 0000C 00000  7148    1529.              MVC   MTRNAME(8),@R1
 00139A D504 6005 769E 00005 0178A  7149    1530.              CLC   MTRTYPE,=C'ABEND'       ABEND TRACE?
 0013A0 4770 72BE            013AA  7150    1531.              IF    EQ,' MVC  MTRNAME,=CL8" "'   BLANK OUT THE GARBAGE
 0013A4 D207 600C 75BC 0000C 016A8  7162             +
 0013AA D202 601E 76A3 0001E 0178F  7167    1532.              MVC   MTRLH+3(3),=C'...'
 0013B0 D201 6021 7640 00021 0172C  7168    1533.     NTR      MVC   MTRLH+6(2),=C'..'
 0013B6 D201 6024 7640 00024 0172C  7169    1534.              MVC   MTRRH(2),=C'..'
 0013BC 58F0 2008            00008  7170    1535.              BTX   MTR14,8,@SR+8
 0013C0 4100 0008            00008  7182             +
 0013C4 4110 602F            0002F  7189             +
 0013C8 58E0 7620/0DEE       0170C  7192             +
 0013CE 58F0 200C            0000C  7194    1536.              BTX   MTR15,8,@SR+12
 0013D2 4100 0008            00008  7206             +
 0013D6 4110 6039            00039  7213             +
 0013DA 58E0 7620/0DEE       0170C  7216             +
 0013E0 58F0 2010            00010  7218    1537.              BTX   MTR0,8,@SR+16
 0013E4 4100 0008            00008  7230             +
 0013E8 4110 6043            00043  7237             +
 0013EC 58E0 7620/0DEE       0170C  7240             +
 0013F2 58F0 2014            00014  7242    1538.              BTX   MTR1,8,@SR+20
 0013F6 4100 0008            00008  7254             +
 0013FA 4110 604D            0004D  7261             +
 0013FE 58E0 7620/0DEE       0170C  7264             +
 001404 D204 6057 76A6 00057 01792  7266    1539.              MVC   MTRCODE,=CL5' '
 00140A 5890 75F4/0D99       016E0  7267    1540.              VWRITE ,
 001410 4120 2018            00018  7272    1541.              LA    SR,@SR+24
 001414 47F0 7246            01332  7273    1542.              B     PRTR
1VAMT     (VAMT02) (09:45) (22MAR04) VAM/370 - UNDERTAKER                                                                   Page   76
0Current Usings:  (MTR,R6) (*,R7) (CT,R10)
0Loc    Object Code    Addr1 Addr2  Stmt Lv Lineno    Source Statement           (Hibal 5, Asmedit 3.3)  HLASM R4.0  2004/03/22 09.45
+___    ______ ____    _____ _____  ____ __ ______    ______ _________
0                                   7275    1544.     *  PRINT CORE
                                    7276    1545.     *
 001418 9029 D000/188D       00000  7277    1546.     PRCORE   VENTER SR,RAR,*,LOCAL
 00141E 41D0 D020/0D70       00020  7281             +
 DROP   *,R7                        7299    1547.     PRCOREX  EQU   *-2                     PRPAGE ENTRY
 USING  *,R7
 001424 50F0 A1C8            001C8  7300    1548.              ST    R15,DUMPADD             LOGICAL ADDRESS
 001428 1E0F                        7301    1549.              ALR   R0,R15                  LOGICAL END
 00142A 5000 A1CC            001CC  7302    1550.              ST    R0,DUMPEND
 00142E 1831                        7303    1551.              LR    TR,R1                   PHYSICAL START
 001430 47F0 701A            0143E  7304    1552.              B     PRCGO                   HOP IN
                                    7305    1553.
 001434 D51F A1D0 3000 001D0 00000  7306    1554.     PRCLOOP  CLC   PRCPREV(32),@TR         SAME?
 00143A 4780 70BA            014DE  7307    1555.              BE    PRCRPT                  YES
 00143E D21F A1D0 3000 001D0 00000  7308    1556.     PRCGO    MVC   PRCPREV(32),@TR         SET CURRENT
 001444 58F0 A1C8            001C8  7309    1557.              BTX   DUMPBUF+1,6,L:DUMPADD   SET ADDRESS
 001448 4100 0006            00006  7321             +
 00144C 4110 A28B            0028B  7328             +
 001450 58E0 72E8/0DEE       0170C  7331             +
 001456 4120 A294            00294  7333    1558.              LA    SR,DUMPBUF+10
 00145A 4140 0004            00004  7334    1559.              LA    QR,4
 00145E 58F0 3000            00000  7335    1560.     PRCFORM  BTX   @SR,8,@TR             FORMAT
 001462 4100 0008            00008  7347             +
 001466 4110 2000            00000  7354             +
 00146A 58E0 72E8/0DEE       0170C  7357             +
 001470 4120 2009            00009  7359    1561.              LA    SR,@SR+9                FIRST
 001474 4130 3004            00004  7360    1562.              LA    TR,@TR+4                HALF
 001478 4640 703A            0145E  7361    1563.              BCT   QR,PRCFORM
 00147C 4120 A2BB            002BB  7362    1564.              LA    SR,DUMPBUF+49
 001480 4140 0004            00004  7363    1565.              LA    QR,4
 001484 58F0 3000            00000  7364    1566.     PRCFORMX BTX   @SR,8,@TR             FORMAT
 001488 4100 0008            00008  7376             +
 00148C 4110 2000            00000  7383             +
 001490 58E0 72E8/0DEE       0170C  7386             +
 001496 4120 2009            00009  7388    1567.              LA    SR,@SR+9                SECOND
 00149A 4130 3004            00004  7389    1568.              LA    TR,@TR+4                HALF
 00149E 4640 7060            01484  7390    1569.              BCT   QR,PRCFORMX
 0014A2 D21F A2E2 A1D0 002E2 001D0  7391    1570.              MVC   DUMPBUF+88(32),PRCPREV
 0014A8 DC1F A2E2 7168 002E2 0158C  7392    1571.              TR    DUMPBUF+88(32),EBCDIC
 0014AE 4110 A281            00281  7393    1572.              PRYNT PDMPBUF,133
 0014B2 4100 0085            00085  7411             +
 0014B6 5890 72B8/0D99       016DC  7414             +
 0014BC 5890 72BC/0D99       016E0  7418             +
 0014C2 4120 0020            00020  7420    1573.              LA    SR,32                   INCREMENT
 0014C6 5E20 A1C8            001C8  7421    1574.              AL    SR,DUMPADD
 0014CA 5020 A1C8            001C8  7422    1575.              ST    SR,DUMPADD
 0014CE 5920 A1CC            001CC  7423    1576.              C     SR,DUMPEND
 0014D2 4740 7010            01434  7424    1577.              BL    PRCLOOP                 NOT YET
 0014D6 18D8/9829 D000       00000  7425    1578.     PRCBYE   VEXIT SR,RAR
 0014DC 07F9                        7429             +
-0014DE 4110 730A            0172E  7431    1580.     PRCRPT   PRYNT '          **** REPEAT LINE(S) ****'
 0014E2 4100 0022            00022  7437             +
1VAMT     (VAMT02) (09:45) (22MAR04) VAM/370 - UNDERTAKER                                                                   Page   77
0Current Usings:  (MTR,R6) (*,R7) (CT,R10)
0Loc    Object Code    Addr1 Addr2  Stmt Lv Lineno    Source Statement           (Hibal 5, Asmedit 3.3)  HLASM R4.0  2004/03/22 09.45
+___    ______ ____    _____ _____  ____ __ ______    ______ _________
00014E6 5890 72B8/0D99       016DC  7440             +
 0014EC 5890 72BC/0D99       016E0  7444             +
 0014F2 4120 0020            00020  7446    1581.     PRCRLOOP LA    SR,32                   INCREMENT
 0014F6 1E32                        7447    1582.              ALR   TR,SR
 0014F8 5E20 A1C8            001C8  7448    1583.              AL    SR,DUMPADD
 0014FC 5020 A1C8            001C8  7449    1584.              ST    SR,DUMPADD
 001500 5520 A1CC            001CC  7450    1585.              CL    SR,DUMPEND              DONE?
 001504 47B0 70B2            014D6  7451    1586.              BNL   PRCBYE                  YES
 001508 D51F A1D0 3000 001D0 00000  7452    1587.              CLC   PRCPREV(32),@TR         SAME?
 00150E 4770 701A            0143E  7453    1588.              BNE   PRCGO                   NO
 001512 47F0 70CE            014F2  7454    1589.              B     PRCRLOOP                YES
1VAMT     (VAMT02) (09:45) (22MAR04) VAM/370 - UNDERTAKER                                                                   Page   78
0Current Usings:  (MTR,R6) (*,R7) (CT,R10)
0Loc    Object Code    Addr1 Addr2  Stmt Lv Lineno    Source Statement           (Hibal 5, Asmedit 3.3)  HLASM R4.0  2004/03/22 09.45
+___    ______ ____    _____ _____  ____ __ ______    ______ _________
0                                   7456    1591.     *  CONSTANTS
                                    7457    1592.     *
 001516 D7D9C9E5C1E3C540            7458    1593.     PRIVNAME DC    CL8'PRIVATE'            DDNAME FOR PRIVATE OVAM
 00151E E2E8E2D2C1D7E4E3            7459    1594.     SYSKNAME DC    CL8'SYSKAPUT'           FOR DEVTYPE
 001526 0000
 001528 00005930                    7460    1595.     VAMCOREL DC    A(L'CT+2*1024)          HOW MUCH CORE WE NEED
 00152C 4020202020202120            7461    1596.     ED7D2    DC    C' ',5X'20',X'2120',C'.',2X'20'
                                    7462    1597.
 001537 C961D64040                  7463    1598.     TRTYPES  DC    C'I/O  '
 00153C C5E7E34040                  7464    1599.              DC    C'EXT  '
 001541 E2E5C34040                  7465    1600.              DC    C'SVC  '
 001546 D7C9404040                  7466    1601.              DC    C'PI   '
 00154B E3D9C1C3C5                  7467    1602.              DC    C'TRACE'
 001550 D2C1D7E4E3                  7468    1603.              DC    C'KAPUT'
 001555 C1C2C5D5C4                  7469    1604.              DC    C'ABEND'
 00155A 6F6F6F40406F6F6F            7470    1605.              DC    10C'???  '
                                    7471    1606.
 00158C                             7472    1607.     EBCDIC   DS    0H
 00158C 4B4B4B4B4B4B4B4B            7473    1608.              DC    64C'.'
 0015CC 40                          7474    1609.              DC    C' '
 0015CD 4B4B4B4B4B4B4B4B            7475    1610.              DC    10C'.'
 0015D7 4B4C4D4E4F                  7476    1611.              DC    C'.<(+|'
 0015DC 80                          7477    1612.              DC    X'80'
 0015DD 4B4B4B4B4B4B4B4B            7478    1613.              DC    10C'.'
 0015E7 5B5C5D5E5F6061              7479    1614.              DC    C'$*);~-/'
 0015EE 4B4B4B4B4B4B4B4B            7480    1615.              DC    9C'.'
 0015F7 6B6C6D6E6F                  7481    1616.              DC    C',%_>?'
 0015FC 4B4B4B4B4B4B4B4B            7482    1617.              DC    10C'.'
 001606 7A7B7C                      7483    1618.              DC    C':#@'
 001609 7D                          7484    1619.              DC    X'7D'
 00160A 7E7F                        7485    1620.              DC    C'="'
 00160C 4B                          7486    1621.              DC    C'.'
 00160D C1C2C3C4C5C6C7C8            7487    1622.              DC    C'ABCDEFGHI'
 001616 4B4B4B4B4B4B4B              7488    1623.              DC    7C'.'
 00161D D1D2D3D4D5D6D7D8            7489    1624.              DC    C'JKLMNOPQR'
 001626 4B4B4B4B4B4B4B4B            7490    1625.              DC    8C'.'
 00162E E2E3E4E5E6E7E8E9            7491    1626.              DC    C'STUVWXYZ'
 001636 4B4B4B4B4B4B4B4B            7492    1627.              DC    23C'.'
 00164D C1C2C3C4C5C6C7C8            7493    1628.              DC    C'ABCDEFGHI'
 001656 4B4B4B4B4B4B4B              7494    1629.              DC    7C'.'
 00165D D1D2D3D4D5D6D7D8            7495    1630.              DC    C'JKLMNOPQR'
 001666 4B4B4B4B4B4B4B4B            7496    1631.              DC    8C'.'
 00166E E2E3E4E5E6E7E8E9            7497    1632.              DC    C'STUVWXYZ'
 001676 4B4B4B4B4B4B                7498    1633.              DC    6C'.'
 00167C F0F1F2F3F4F5F6F7            7499    1634.              DC    C'0123456789'
 001686 4B4B4B4B4B4B                7500    1635.              DC    6C'.'
                                    7501    1636.
 001690                             7502    1637.              LTORG
 001690 C7D9C5C5E3C9D5C7            7504                             =C'GREETINGS FROM VAM, JOB '
 0016A8 4040404040404040            7505                             =CL8' '
 0016B0 FFFFFFE0                    7506                             =F'-32'
 0016B4 00005130                    7507                             =A(L'CT)
 0016B8 C3E3C3E3                    7508                             =CL4'CTCT'
 0016BC 0000229E                    7509                             =A(MOVETXIT)
1VAMT     (VAMT02) (09:45) (22MAR04) VAM/370 - UNDERTAKER                                                                   Page   79
0Current Usings:  (MTR,R6) (*,R7) (CT,R10)
0Loc    Object Code    Addr1 Addr2  Stmt Lv Lineno    Source Statement           (Hibal 5, Asmedit 3.3)  HLASM R4.0  2004/03/22 09.45
+___    ______ ____    _____ _____  ____ __ ______    ______ _________
00016C0 000025D4                    7510                             =A(PRYNTER)
 0016C4 F0F0F0F0                    7511                             =C'0000'
 0016C8 E5C1D440C8C1E240            7512                             =C'VAM HAS BEEN ENTERED'
 0016DC 00000000                    7513                             =V(VSEG)
 0016E0 00000000                    7514                             =V(VWRITE)
 0016E4 00000670                    7515                             =A(TRACTBL-CT)
 0016E8 00000958                    7516                             =A(TRACTBLE-TRACTBL-TRACENTS)
 0016EC 00000FE0                    7517                             =A(VBDT-CT)
 0016F0 0000105E                    7518                             =A(STAEXIT)
 0016F4 00000016                    7519                             =A(VAMENTER)
 0016F8 00000000                    7520                             =V(M1BTD)
 0016FC 40E2E4E9C1D540C3            7521                             =C' SUZAN CALLS'
 001708 D7E2E67E                    7522                             =C'PSW='
 00170C 00000000                    7523                             =V(M1BTX)
 001710 00000010                    7524                             =A(16)
 001714 E5E6C140                    7525                             =CL4'VWA'
 001718 000022BC                    7526                             =A(VAMQUIT)
 00171C 000C                        7527                             =H'12'
 00171E 40E5C1D440C3C1D3            7528                             =C' VAM CALLS'
 001728 0058                        7529                             =Y(MTRL)
 00172A 0005                        7530                             =H'5'
 00172C 4B4B                        7531                             =C'..'
 00172E 4040404040404040            7532                             =C'          **** REPEAT LINE(S) ****'
 001750 0001000040                  7533                             =X'0001000040'
 001755 E5C1D4                      7534                             =C'VAM'
 001758 40                          7535                             =C' '
 001759 C7C5D5C5D9C1D340            7536                             =C'GENERAL PURPOSE REGISTERS'
 001772 E3D9C1C3C540E3C1            7537                             =C'TRACE TABLE'
 00177D E5C1D440E6D6D9D2            7538                             =C'VAM WORK AREA'
 00178A C1C2C5D5C4                  7539                             =C'ABEND'
 00178F 4B4B4B                      7540                             =C'...'
 001792 4040404040     01797 02638  7541                             =CL5' '
1VAMT     (VAMT02) (09:45) (22MAR04) VAM/370 - TRACE ROUTINE                                                                Page   80
0Current Usings:  (MTR,R6) (*,R7) (CT,R10)
0Loc    Object Code    Addr1 Addr2  Stmt Lv Lineno    Source Statement           (Hibal 5, Asmedit 3.3)  HLASM R4.0  2004/03/22 09.45
+___    ______ ____    _____ _____  ____ __ ______    ______ _________
0                                   7546    1639.     *    TRACING ROUTINE
                                    7547    1640.     *
                                    7548    1641.              ENTRY TRACE
 001798                             7549    1642.     TRACE    DS    0H
 001798 900F A064            00064  7550    1643.              STM   R0,R15,CTTRSAVE
 00179C 0D70                        7551    1644.              BASE  BR                      ##
 DROP   *,R7
 USING  *,R7
 00179E 5840 A060            00060  7568    1645.              L     QR,CTTRACE              ADDRESS OF TRACE TABLE
 USING  TRACTBL,R4                  7569    1646.              USING TRACTBL,QR              ##
 0017A2 5830 4004            00674  7578    1647.              L     TR,TRACNEXT             ENTRY TO USE
 0017A6 5090 3004            00004  7579    1648.              ST    RAR,@TR+4               SAVE POINTER TO TRACE NAME
 0017AA 1F22/4320 A32D       0032D  7580    1649.              LC    SR,CTTRTYP              SAVE TRACE TYPE
 0017B0 5020 3000            00000  7587    1650.              ST    SR,@TR
 0017B4 9240 A32D      0032D        7588    1651.              MVI   CTTRTYP,TRTRACE         RESET TO DEFAULT
 0017B8 D20F 3008 A050 00008 00050  7589    1652.              MVC   @TR+8(16),CTTRP         SAVE TRACE INFO
 0017BE 4120 3018            00018  7590    1653.              LA    SR,@TR+TRACENTS         NEXT ENTRY ADDRESS
 0017C2 5520 4008            00678  7591    1654.              CL    SR,TRACEND              WRAP?
 0017C6 4740 7034            017D2  7592    1655.              BL    TRACE1                  NO
 0017CA 5820 4000            00670  7593    1656.              L     SR,TRACSTRT             BACK TO THE BEGINNING
 0017CE 92FF 4000      00670        7594    1657.              MVI   TRACSTRT,X'FF'          MARK WRAP
 0017D2 5020 4004            00674  7595    1658.     TRACE1   ST    SR,TRACNEXT             SAVE ENTRY POINTER
 0017D6 9540 9000      00000        7596    1659.              CLI   @RAR,C' '               VKAPUT?
 0017DA 4780 704E            017EC  7597    1660.              BE    KAPUT                   YES, TOO BAD
 0017DE 98AF A08C            0008C  7598    1661.              LM    CTR,R15,CTTRSAVE+(CTR*4)
 0017E2 4190 9008            00008  7599    1662.              LA    RAR,@RAR+8              JUMP OVER TRACE NAME
 0017E6 9807 A064            00064  7600    1663.              LM    R0,BR,CTTRSAVE          RESTORE REGS.
 0017EA 07F9                        7601    1664.              BR    RAR                     RETURN
-
 0017EC                             7603    1666.     KAPUT    DS    0H
 0017EC 9250 3003      00003        7604    1667.              MVI   @TR+3,TRKAPUT           INSERT KAPUT CODE
 0017F0 900F A0B0            000B0  7605    1668.              STM   R0,R15,CTBGPRS          SAVE BURY GPRS.
 0017F4 D23F A0B0 A064 000B0 00064  7606    1669.              MVC   CTBGPRS+R0*4((R15-R0+1)*4),CTTRSAVE
 0017FA D207 A0A8 3000 000A8 00000  7607    1670.              MVC   CTBPSW(8),@TR           AND PSEUDO PSW
 001800 9140 A32C      0032C        7608    1671.              IF    CTKAPUT,'ACALL BURY'
 001804 47E0 7070            0180E  7618             +
 001808 5890 7BE2/0D99       02380  7626             +
 00180E 4110 00C7            000C7  7632    1672.              ABEND 199,DUMP,STEP
 001812 4100 00C0            000C0  7637             +
 001816 8900 0018/1610       00018  7638             +
 00181C 0A0D                        7640             +
 DROP   TRACTBL,R4                  7641    1673.              DROP  QR                      ##
1VAMT     (VAMT02) (09:45) (22MAR04) VAM/370 - VAM USER EXIT ROUTINE                                                        Page   81
0Current Usings:  (MTR,R6) (*,R7) (CT,R10)
0Loc    Object Code    Addr1 Addr2  Stmt Lv Lineno    Source Statement           (Hibal 5, Asmedit 3.3)  HLASM R4.0  2004/03/22 09.45
+___    ______ ____    _____ _____  ____ __ ______    ______ _________
0                                   7649    1675.     *
                                    7650    1676.     *    VAM USER EXIT
                                    7651    1677.     *
 00181E 9029 D000/188D       00000  7652    1678.     VAMEXIT  VENTER SR,RAR,*,LOCAL
 001824 41D0 D020/0D70       00020  7656             +
 00182A 4110 7C02            0242C  7674    1679.              VSEG  'EXITING FROM VAM: '
 DROP   *,R7
 USING  *,R7
 00182E 4100 0012            00012  7678             +
 001832 5890 7B5A/0D99       02384  7681             +
 001838 58F0 A048            00048  7683    1680.              SEGDC 8,CTSVCCNT
 00183C 4100 0008            00008  7696             +
 001840 4110 A108            00108  7703             +
 001844 58E0 7B5E/0DEE       02388  7706             +
 00184A 5890 7B5A/0D99       02384  7723             +
 001850 92F0 A1FC      001FC        7725    1681.              PRYNT SKIP,' CALLS'
 001854 4110 7C14            0243E  7732             +
 001858 4100 0006            00006  7733             +
 00185C 5890 7B5A/0D99       02384  7736             +
 001862 5890 7B62/0D99       0238C  7740             +
 001868 4D90 7766            01F90  7742    1682.              LCALL CLOSMIL                 LOGOFF VIRTUAL TERMINAL
 00186C 1B00                        7744    1683.              CLEAR R0                      CLOSE
 00186E 0600                        7748    1684.              BCTR  R0,R0                    OUT
 001870 5890 7B5A/0D99       02384  7749    1685.              VSEG  (1),(0)                   SYSKAPUT
 001876 5890 7B62/0D99       0238C  7766    1686.              VWRITE ,
 00187C 4100 0004/0A3C       00004  7771    1687.              STAE  0                       CANCEL STAE
 001882 5820 A024            00024  7775    1688.              L     SR,CTINFOP              GET POINTER TO VAMINFO
 USING  VAMINFO,R2                  7776    1689.              USING VAMINFO,SR              ##
 001886 41F0 706C            01896  7785    1690.              LA    R15,VAMBEND             ABEND IF RE-ENTERED
 00188A 50F0 2000            00000  7786    1691.              ST   R15,VAMADDR              RESET ENTRY POINT
 00188E 18D8/9829 D000       00000  7787    1692.              VEXIT SR,RAR                   AND RETURN
 001894 07F9                        7791             +
                                    7792    1693.
 DROP   VAMINFO,R2                  7793    1694.              DROP  SR                      ##
-001896 0570                        7801    1696.     VAMBEND  BALR  BR,0
 DROP   *,R7                        7802    1697.              USING *,BR                    ##
 USING  *,R7
 001898 4110 0077            00077  7815    1698.              ABEND 119,DUMP,STEP           GO BELLY UP IF RE-ENTERED
 00189C 4100 00C0            000C0  7820             +
 0018A0 8900 0018/1610       00018  7821             +
 0018A6 0A0D                        7823             +
1VAMT     (VAMT02) (09:45) (22MAR04) VAM/370 - OVAM COMMUNICATION ROUTINES                                                  Page   82
0Current Usings:  (MTR,R6) (*,R7) (CT,R10)
0Loc    Object Code    Addr1 Addr2  Stmt Lv Lineno    Source Statement           (Hibal 5, Asmedit 3.3)  HLASM R4.0  2004/03/22 09.45
+___    ______ ____    _____ _____  ____ __ ______    ______ _________
0USING  VAMPATH,R11                 7825    1700.              USING VAMPATH,VPR             ##
 USING  VCHEAD,R12                  7834    1701.              USING VCHEAD,VCHR             ##
-
 0018A8 902B D000/188D       00000  7844    1703.     INITCOMM VENTER SR,VPR,*,LOCAL
 0018AE 41D0 D028/0D70       00028  7848             +
 0018B4 58B0 A020            00020  7866    1704.              L     VPR,CTCORE              GET FREE CORE BASE
 DROP   *,R7
 USING  *,R7
 0018B8 50B0 A02C            0002C  7867    1705.              ST    VPR,CTPATHB             SAVE AS PATH BLOCK
 0018BC 41C0 B068            00068  7868    1706.              LA    VCHR,VPLEN(,VPR)        COMM. HEADER NEXT
 0018C0 50C0 A028            00028  7869    1707.              ST    VCHR,CTVCHEAD           SAVE IT
 0018C4 4110 C058            00058  7870    1708.              LA    R1,VCEND                END OF THIS AREA
 0018C8 5010 A020            00020  7871    1709.              ST    R1,CTCORE               UPDATE FREE POINTER
 0018CC 4120 B028            00028  7872    1710.              LA    SR,VPECB                GET ECB ADDRESS
 0018D0 5020 A040            00040  7873    1711.              ST    SR,CTPECB               SAVE IN THE CT AS WELL
 0018D4 9110 A32C      0032C        7874    1712.              IF    ~CTVIRT,BEGIN           NEED TO SHORTEN ECB LIST
 0018D8 4710 702C            018E0  7884             +
 0018DC 9680 A040      00040        7889  1 1713.                SET   CTPECB.X'80'            AND MARK IT AS LAST
 0018E0                             7896    1714.              END   ,
 0018E0 5020 B018            00018  7900    1715.              ST    SR,PATHECB              AND SAVE IT
 0018E4 9220 B018      00018        7901    1716.              MVI   PATHECB,PATHMNAM        I SUPPLY THE NAMES
 0018E8 9180 A32C      0032C        7902    1717.              IF    CTPRIVAM,BEGIN         USER HAS HIS OWN OVAM
 0018EC 47E0 709C            01950  7912             +
                                    7917  1 1718.     *                                      SO GIVE HIM A PRIVATE PATH
 0018F0 D202 B008 7BD2 00008 02486  7918  1 1719.                MVC   PATHMY(3),=CL3'VAM'     VAM ID (THAT'S ME)
 0018F6 D202 B00B A30F 0000B 0030F  7919  1 1720.                MVC   PATHMY+3(3),CTUSER
 0018FC D201 B00E A313 0000E 00313  7920  1 1721.                MVC   PATHMY+6(2),CTGRP
 001902 D202 B010 7BD5 00010 02489  7921  1 1722.                MVC   PATHYOU(3),=CL3'OVA'    OVAM ID (THAT'S YOU)
 001908 D204 B013 B00B 00013 0000B  7922  1 1723.                MVC   PATHYOU+3(5),PATHMY+3
 00190E 9110 A32C      0032C        7923  1 1724.                IF    CTVIRT,BEGIN
 001912 47E0 7068            0191C  7933  1          +
 001916 D203 B024 A31A 00024 0031A  7938  2 1725.                  MVC   PATHPASS,CTUNAME        SET UNIQUE ID
 00191C 706C           0191C 01914  7939  1 1726.                END   ELSE,BEGIN
 00191C 47F0 709C            01950  7948  1          +
                                    7954  2 1727.     *
                                    7955  2 1728.     *  NOW CONCOCT A WIERD PASSWORD FROM THE USERS ACCOUNT
                                    7956  2 1729.     *
 001920 BF2F B00B            0000B  7957  2 1730.                  ICM   SR,15,PATHMY+3          LOAD FIRST FOUR BYTES
 001924 BF38 B00F            0000F  7958  2 1731.                  ICM   TR,8,PATHMY+7           LAST BYTE AT LEFT END
 001928 8930 0002            00002  7959  2 1732.                  SLL   TR,2                    STRIP TWO BITS
 00192C 5430 7ADC            02390  7960  2 1733.                  N     TR,=X'FC000000'         MASK LEAVING 6 BITS
 001930 8C20 0006            00006  7961  2 1734.                  SRDL  SR,6                    SHIFT IN BCD PARTS
 001934 8820 0002            00002  7962  2 1735.                  SRL   SR,2                    DROP HIGH ORDER PARTS
 001938 8C20 0006            00006  7963  2 1736.                  SRDL  SR,6
 00193C 8820 0002            00002  7964  2 1737.                  SRL   SR,2
 001940 8C20 0006            00006  7965  2 1738.                  SRDL  SR,6
 001944 8820 0002            00002  7966  2 1739.                  SRL   SR,2
 001948 8C20 0006            00006  7967  2 1740.                  SRDL  SR,6
 00194C 5030 B024            00024  7968  2 1741.                  ST    TR,PATHPASS             ALL DONE, SAVE IT
 001950                             7969  1 1742.                END   ,
 001950 70A0           01950 018EE  7973    1743.              END   ELSE,BEGIN            USE THE PUBLIC VAM
 001950 47F0 70B2            01966  7982             +
1VAMT     (VAMT02) (09:45) (22MAR04) VAM/370 - OVAM COMMUNICATION ROUTINES                                                  Page   83
0Current Usings:  (MTR,R6) (*,R7) (CT,R10) (VAMPATH,R11) (VCHEAD,R12)
0Loc    Object Code    Addr1 Addr2  Stmt Lv Lineno    Source Statement           (Hibal 5, Asmedit 3.3)  HLASM R4.0  2004/03/22 09.45
+___    ______ ____    _____ _____  ____ __ ______    ______ _________
0001954 D207 B008 7A4C 00008 02300  7988  1 1744.                MVC   PATHMY,=C'VAMBATCH'     SET MY NAME
 00195A D207 B010 7A54 00010 02308  7989  1 1745.                MVC   PATHYOU,=C'VAMORVYL'    SET OVAM'S NAME
 001960 D203 B024 7AE0 00024 02394  7990  1 1746.                MVC   PATHPASS,=C'VAMP'       SET PASSWORD
 001966                             7991    1747.              END   ,                       USE THE PUBLIC VAM
 001966 4120 B02C            0002C  7995    1748.              LA    SR,VPFLAGS              ADDRESS FOR POST CODES
 00196A 5020 B020            00020  7996    1749.              ST    SR,PATHECBF             SEND TO SUZAN
 00196E D203 B01C 7AE4 0001C 02398  7997    1750.              MVC   PATHBUF,=A(8*1024)      START WITH 8K
 001974                             7998    1751.              CLEAR VPECB                   CLEAR ECB
 001974 D703 B028 B028 00028 00028  8004             +
 00197A 4120 B000            00000  8005    1752.              LA    SR,PATH                 SET UP
 00197E 5020 A108            00108  8006    1753.              ST    SR,CTTEMP               PATH PARM. LIST
 001982 9280 A108      00108        8007    1754.              MVI   CTTEMP,X'80'            ONLY ONE ENTRY
 001986 4110 A108/1B00       00108  8008    1755.              SVCCOM INIT,CTTEMP            INITIALIZE THE PATH
 00198C 0AFB                        8018             +
 00198E 12FF                        8019    1756.              LTR   R15,R15                 CHECK RETURN CODE
 001990 4770 713E            019F2  8020    1757.              BNZ   INITERR                 OOPS
 001994 4110 B028            00028  8021    1758.              LA    R1,VPECB                ECB ADDRESS
 001998 5800 7AE8            0239C  8022    1759.              L     R0,=A(5*60*100)         WAIT PERIOD (5 MINUTES)
 00199C 4D90 79A8            0225C  8023    1760.              LCALL TIMEOUT                 WAIT FOR ACTION
 0019A0 9508 B02C      0002C        8025    1761.              CLI   VPFLAGS,PATHFOPN        DID HE POST OPEN?
 0019A4 4770 7154            01A08  8026    1762.              BNE   IPOSTERR                NOPE
 0019A8 4110 7AEC            023A0  8027    1763.              VWRITE  'OVAM HAS OPENED PATH'
 0019AC 4100 0014            00014  8032             +
 0019B0 5890 7AD0/0D99       02384  8035             +
 0019B6 5890 7AD8/0D99       0238C  8039             +
 0019BC 9620 B02D      0002D        8041    1764.              SET   VPFIRST                 SET FIRST TIME FLAG
 0019C0 90E1 A050            00050  8047    1765.              VTRACE PATHOPEN
 0019C4 5090 A0A4            000A4  8049             +
 0019C8 5890 7B00/0D99       023B4  8052             +
 0019CE D7C1E3C8D6D7C5D5            8054             +
 0019D6 5890 A0A4            000A4  8055             +
 0019DA 9200 B02C      0002C        8056    1766.              MVI   VPFLAGS,X'00'           CLEAR POST CODE
 0019DE 4120 0001            00001  8057    1767.              INCR  SR,CTXACTS              COUNT ONE TRANSACTION
 0019E2 5E20 A04C            0004C  8061             +
 0019E6 5020 A04C            0004C  8062             +
 0019EA 18D8/982B D000       00000  8063    1768.              VEXIT SR,VPR
 0019F0 07F9                        8067             +
-
 0019F2 90E1 A050            00050  8069    1770.     INITERR  VKAPUT INITERR
 0019F6 5090 A0A4            000A4  8073             +
 0019FA 5890 7B00/0D99       023B4  8076             +
 001A00 40C9D5C9E3C5D9D9            8078             +
 001A08 90E1 A050            00050  8079    1771.     IPOSTERR VKAPUT IPOSTER
 001A0C 5090 A0A4            000A4  8083             +
 001A10 5890 7B00/0D99       023B4  8086             +
 001A16 40C9D7D6E2E3C5D9            8088             +
1VAMT     (VAMT02) (09:45) (22MAR04) VAM/370 - OVAM COMMUNICATION ROUTINES                                                  Page   84
0Current Usings:  (MTR,R6) (*,R7) (CT,R10) (VAMPATH,R11) (VCHEAD,R12)
0Loc    Object Code    Addr1 Addr2  Stmt Lv Lineno    Source Statement           (Hibal 5, Asmedit 3.3)  HLASM R4.0  2004/03/22 09.45
+___    ______ ____    _____ _____  ____ __ ______    ______ _________
0                                   8090    1773.     *  SENDXACT - SEND TRANSACTIONS TO OVAM VIA SUZAN
                                    8091    1774.     *
                                    8092    1775.     *        INPUT:  COMMUNICATION HEADER ADDRESS IN VCHR, DATA ADDRESS
                                    8093    1776.     *                IN R1 (ZERO FOR NO DATA, NEGATIVE FOR DATA RETURN)
                                    8094    1777.     *
                                    8095    1778.     *        OUTPUT: COMMUNICATION HEADER ADDRESS IN VCHR, DATA (IF ANY)
                                    8096    1779.     *                IN RECIEVING AREA SPECIFIED
                                    8097    1780.     *
 001A1E 902B D000/188D       00000  8098    1781.     SENDXACT VENTER SR,VPR,*,LOCAL
 001A24 41D0 D028/0D70       00028  8102             +
 001A2A 58B0 A02C            0002C  8120    1782.              L     VPR,CTPATHB             GET PATH INFO BLOCK
 DROP   *,R7
 USING  *,R7
 001A2E 91FF B02C      0002C        8121    1783.              TM    VPFLAGS,X'FF'           WERE WE POSTED?
 001A32 4770 71E0            01C0A  8122    1784.              BNZ   PATHERR                 YEP, TROUBLE
 001A36 D207 C004 A1F0 00004 001F0  8123    1785.              MVC   VCJOBNAM,CTJOBNAM       SET JOB NAME
 001A3C D205 C00C A30F 0000C 0030F  8124    1786.              MVC   VCJOBACC,CTUSER         SET USER ACCOUNT
 001A42 D201 C012 A32A 00012 0032A  8125    1787.              MVC   VCPRIVS,CTPRIVS         SET USER PRIVS.
 001A48                             8126    1788.              CLEAR VPDATAR                 CLEAR DATA RETURN ADDRESS
 001A48 D703 B044 B044 00044 00044  8132             +
 001A4E 1321                        8133    1789.              LCR   SR,R1                   ANY DATA RETURN?
 001A50 47D0 7030            01A5A  8134    1790.              BNP   NORET                   NOPE
 001A54 5020 B044            00044  8135    1791.              ST    SR,VPDATAR              SAVE POSITIVE ADDRESS
 001A58 1B11                        8136    1792.              CLEAR R1                      SET NONE SENT
 001A5A 4120 0028            00028  8140    1793.     NORET    LA    SR,VCHLEN               DEFAULT LENGTH
 001A5E 4830 C024            00024  8141    1794.              LH    TR,VCDATAL              ANY EXTRA?
 001A62 1211                        8142    1795.              LTR   R1,R1                   SENDING REAL DATA?
 001A64 4720 7040            01A6A  8143    1796.              BP    REALDATA                YEP
 001A68 1A23                        8144    1797.              AR    SR,TR                   BUMP HEADER LENGTH
 001A6A 4150 B048            00048  8145    1798.     REALDATA LA    RR,VPPCWS               PCW BUILDING AREA
 USING  PCWD,R5                     8146    1799.              USING PCWD,RR                 ##
 001A6E                             8155    1800.              CLEAR (PCW,PCWSIZE)           CLEAR OUT THE PCW
 001A6E D707 5000 5000 00000 00000  8161             +
 001A74 50C0 5000            00000  8162    1801.              ST    VCHR,PCWADDR            SET ADDRESS OF HEADER
 001A78 9202 5000      00000        8163    1802.              MVI   PCWCMD,CMDSNDD          SET SEND DATA
 001A7C 4020 5004            00004  8164    1803.              STH   SR,PCWLEN               HEADER LENGTH
 001A80 1211                        8165    1804.              LTR   R1,R1                   REAL DATA?
 001A82 4720 7068            01A92  8166    1805.              BP    TWINS                   NEED ANOTHER PCW
 001A86 9680 5000      00000        8167    1806.              OI    PCWCMD,CMDEND           END OF CHAIN
 001A8A 9200 5006      00006        8168    1807.              MVI   PCWFLG,RDWONLY          SET ONLY SEGMENT
 001A8E 47F0 7086            01AB0  8169    1808.              B     SENDCALL                SEND HEADER
 001A92 9201 5006      00006        8170    1809.     TWINS    MVI   PCWFLG,RDWFRST          SET FIRST OF TWO
 001A96 4150 5008            00008  8171    1810.              LA    RR,PCWSIZE(,RR)         BUMP TO SECOND
 001A9A                             8172    1811.              CLEAR (PCW,PCWSIZE)           CLEAR OUT THE PCW
 001A9A D707 5000 5000 00000 00000  8178             +
 001AA0 5010 5000            00000  8179    1812.              ST    R1,PCWADDR              SET DATA ADDRESS
 001AA4 9282 5000      00000        8180    1813.              MVI   PCWCMD,CMDSNDD+CMDEND
 001AA8 4030 5004            00004  8181    1814.              STH   TR,PCWLEN               SET DATA LENGTH
 001AAC 9202 5006      00006        8182    1815.              MVI   PCWFLG,RDWLAST          SET LAST OF TWO
 001AB0 90E1 A050            00050  8183    1816.     SENDCALL VTRACE SENDXACT,VCHSTART,VCDATAL-2
 001AB4 D203 A050 C000 00050 00000  8186             +
 001ABA D20B A054 C022 00054 00022  8187             +
 001AC0 5090 A0A4            000A4  8188             +
 001AC4 5890 798A/0D99       023B4  8191             +
1VAMT     (VAMT02) (09:45) (22MAR04) VAM/370 - OVAM COMMUNICATION ROUTINES                                                  Page   85
0Current Usings:  (PCWD,R5) (MTR,R6) (*,R7) (CT,R10) (VAMPATH,R11) (VCHEAD,R12)
0Loc    Object Code    Addr1 Addr2  Stmt Lv Lineno    Source Statement           (Hibal 5, Asmedit 3.3)  HLASM R4.0  2004/03/22 09.45
+___    ______ ____    _____ _____  ____ __ ______    ______ _________
0001ACA E2C5D5C4E7C1C3E3            8193             +
 001AD2 5890 A0A4            000A4  8194             +
 001AD6 9200 B02C      0002C        8195    1817.              MVI   VPFLAGS,X'00'           CLEAR POST FLAGS
 001ADA                             8196    1818.              CLEAR VPECB                   CLEAR ECB
 001ADA D703 B028 B028 00028 00028  8202             +
 001AE0 4110 B048            00048  8203    1819.              SVCCOM PATHMGC,VPPCWS         SEND THE GOODS
 001AE4 5800 B000/0AFB       00000  8213             +
 001AEA 12FF                        8215    1820.              LTR   R15,R15                 OK SEND?
 001AEC 4770 7180            01BAA  8216    1821.              BNZ   SENDERR                 CHECK FOR FULL BUFFER
 001AF0 4100 0001            00001  8217    1822.     SXWAIT   WAIT  ECBLIST=CTPECB
 001AF4 4110 A040/1311       00040  8222             +
 001AFA 0A01                        8224             +
 001AFC 5820 A044            00044  8225    1823.              L     SR,CTMECB               GET MILTEN ECB PTR
 001B00 9140 2000      00000        8226    1824.              IF    @SR.X'40',BEGIN         POSTED
 001B04 47E0 70E8            01B12  8237             +
 001B08                             8242  1 1825.                CLEAR (@SR,4)                 CLEAR THE ECB
 001B08 D703 2000 2000 00000 00000  8248  1          +
 001B0E 4D90 74B6            01EE0  8249  1 1826.                LCALL MILCHK                  PROCESS POST
 001B12                             8251    1827.              END   ,
 001B12 5820 A040            00040  8255    1828.              L     SR,CTPECB               GET PATH ECB
 001B16 9140 2000      00000        8256    1829.              IF    ~@SR.X'40',SXWAIT       NOT POSTED YET...KEEP TRYING
 001B1A 47E0 70C6            01AF0  8269             +
 001B1E 9520 B02C      0002C        8275    1830.              CLI   VPFLAGS,PATHFNI         NEW INFO?
 001B22 4770 71E0            01C0A  8276    1831.              BNE   PATHERR                 SOMETHING DIFFERENT
 001B26 4150 B048            00048  8277    1832.              LA    RR,VPPCWS               GET SET FOR RETRIEVE
 001B2A                             8278    1833.              CLEAR (PCW,PCWSIZE)           CLEAR OUT THE PCW
 001B2A D707 5000 5000 00000 00000  8284             +
 001B30 4120 B030            00030  8285    1834.              LA    SR,VPRETLOC             GET PARM AREA
 001B34 5020 5000            00000  8286    1835.              ST    SR,PCWADDR              SET ADDRESS
 001B38 9284 5000      00000        8287    1836.              MVI   PCWCMD,CMDRETL+CMDEND
 001B3C                             8288    1837.              CLEAR VPECB                   CLEAR ECB
 001B3C D703 B028 B028 00028 00028  8294             +
 001B42 9200 B02C      0002C        8295    1838.              CLEAR VPFLAGS                 AND FLAGS
 001B46 4110 B048            00048  8302    1839.              SVCCOM PATHMGC,VPPCWS
 001B4A 5800 B000/0AFB       00000  8312             +
 001B50 12FF                        8314    1840.              LTR   R15,R15                 GOOD COMMAND>
 001B52 4770 7214            01C3E  8315    1841.              BNZ   RETERR                  BLOW
 001B56 D203 5000 B030 00000 00030  8316    1842.              MVC   PCWADDR,VPRADDR1        SET FREE ADDRESS
 001B5C 9287 5000      00000        8317    1843.              MVI   PCWCMD,CMDFREEX+CMDEND  SET FREE XAC
 001B60 4110 B040            00040  8318    1844.              LA    R1,VPRDW                GET THE RDW FIRST
 001B64 4100 0004            00004  8319    1845.              LA    R0,RDWSIZE
 001B68 4D90 723E            01C68  8320    1846.              LCALL SUZMVIN
 001B6C 181C                        8322    1847.              LR    R1,VCHR                 NEXT THE HEADER
 001B6E 4100 0028            00028  8323    1848.              LA    R0,VCHLEN
 001B72 4D90 723E            01C68  8324    1849.              LCALL SUZMVIN
 001B76 5810 B044/1211       00044  8326    1850.              LT    R1,VPDATAR              ANY DATA RETURN?
 001B7C 4780 715E            01B88  8330    1851.              BZ    XACTEXIT
 001B80 4800 C024            00024  8331    1852.              LH    R0,VCDATAL
 001B84 4D90 723E            01C68  8332    1853.              LCALL SUZMVIN
 001B88 4110 B048            00048  8334    1854.     XACTEXIT SVCCOM PATHMGC,VPPCWS         FREE LAST XACT
 001B8C 5800 B000/0AFB       00000  8344             +
 001B92 12FF                        8346    1855.              LTR   R15,R15
 001B94 4770 71FE            01C28  8347    1856.              BNZ   FREERR                  BAD ONE
 001B98                             8348    1857.              CLEAR VPECB                   CLEAR ECB
1VAMT     (VAMT02) (09:45) (22MAR04) VAM/370 - OVAM COMMUNICATION ROUTINES                                                  Page   86
0Current Usings:  (PCWD,R5) (MTR,R6) (*,R7) (CT,R10) (VAMPATH,R11) (VCHEAD,R12)
0Loc    Object Code    Addr1 Addr2  Stmt Lv Lineno    Source Statement           (Hibal 5, Asmedit 3.3)  HLASM R4.0  2004/03/22 09.45
+___    ______ ____    _____ _____  ____ __ ______    ______ _________
0001B98 D703 B028 B028 00028 00028  8354             +
 001B9E 9200 B02C      0002C        8355    1858.              CLEAR VPFLAGS
 001BA2 18D8/982B D000       00000  8362    1859.              VEXIT SR,VPR
 001BA8 07F9                        8366             +
                                    8367    1860.
 001BAA 49F0 7A1A            02444  8368    1861.     SENDERR  CH    R15,=Y(RCSNDOVF)        BUFFER FULL?
 001BAE 4770 71C2            01BEC  8369    1862.              BNE   BADSEND                 NO, MUST BE BAD
 001BB2 9200 B02C      0002C        8370    1863.              MVI   VPFLAGS,X'00'
 001BB6                             8371    1864.              CLEAR VPECB                   CLEAR ECB
 001BB6 D703 B028 B028 00028 00028  8377             +
 001BBC 4100 0001            00001  8378    1865.              WAIT  ECB=VPECB
 001BC0 4110 B028/0A01       00028  8383             +
 001BC6 9540 B02C      0002C        8385    1866.              CLI   VPFLAGS,PATHFFQE        READY FOR MORE?
 001BCA 4780 7086            01AB0  8386    1867.              BE    SENDCALL                YES
 001BCE 9180 B02C      0002C        8387    1868.              TM    VPFLAGS,PATHFCLS        CLOSED?
 001BD2 4710 722A            01C54  8388    1869.              BO    ORVDIED                 TELL THE MAN
 001BD6 90E1 A050            00050  8389    1870.              VKAPUT FULLQUE
 001BDA 5090 A0A4            000A4  8392             +
 001BDE 5890 798A/0D99       023B4  8395             +
 001BE4 40C6E4D3D3D8E4C5            8397             +
 001BEC 49F0 7A1C            02446  8398    1871.     BADSEND  CH    R15,=Y(RCNOPART)        PATH GONE?
 001BF0 4780 722A            01C54  8399    1872.              BE    ORVDIED                 NO DUMP IF SO
 001BF4 90E1 A050            00050  8400    1873.              VKAPUT SENDERR
 001BF8 5090 A0A4            000A4  8403             +
 001BFC 5890 798A/0D99       023B4  8406             +
 001C02 40E2C5D5C4C5D9D9            8408             +
 001C0A                             8409    1874.     PATHERR  DS    0H
 001C0A 9180 B02C      0002C        8410    1875.              TM    VPFLAGS,PATHFCLS        CLOSED?
 001C0E 4710 722A            01C54  8411    1876.              BO    ORVDIED                 TELL THE MAN
 001C12 90E1 A050            00050  8412    1877.              VKAPUT PATHERR
 001C16 5090 A0A4            000A4  8415             +
 001C1A 5890 798A/0D99       023B4  8418             +
 001C20 40D7C1E3C8C5D9D9            8420             +
 001C28 90E1 A050            00050  8421    1878.     FREERR   VKAPUT FREERR
 001C2C 5090 A0A4            000A4  8425             +
 001C30 5890 798A/0D99       023B4  8428             +
 001C36 40C6D9C5C5D9D940            8430             +
 001C3E 90E1 A050            00050  8431    1879.     RETERR   VKAPUT RETERR
 001C42 5090 A0A4            000A4  8435             +
 001C46 5890 798A/0D99       023B4  8438             +
 001C4C 40D9C5E3C5D9D940            8440             +
-001C54 4110 798E            023B8  8442    1881.     ORVDIED  VSEG  'SOMEONE (OVAM, ORVYL, WYLBUR OR MILTEN) DIED'
 001C58 4100 002C            0002C  8446             +
 001C5C 5890 795A/0D99       02384  8449             +
 001C62 5890 79BA/0D99       023E4  8451    1882.              ACALL VAMQUIT
1VAMT     (VAMT02) (09:45) (22MAR04) VAM/370 - OVAM COMMUNICATION ROUTINES                                                  Page   87
0Current Usings:  (PCWD,R5) (MTR,R6) (*,R7) (CT,R10) (VAMPATH,R11) (VCHEAD,R12)
0Loc    Object Code    Addr1 Addr2  Stmt Lv Lineno    Source Statement           (Hibal 5, Asmedit 3.3)  HLASM R4.0  2004/03/22 09.45
+___    ______ ____    _____ _____  ____ __ ______    ______ _________
0                                   8456    1884.     *   SUZMVIN - MOVE IN RETRIEVED SUZAN DATA
                                    8457    1885.     *
                                    8458    1886.     *             R1 = LOCATION, R0 = LENGTH
                                    8459    1887.     *
 001C68 902B D000/188D       00000  8460    1888.     SUZMVIN  VENTER SR,VPR,*,LOCAL
 001C6E 41D0 D028/0D70       00028  8464             +
 001C74 58B0 A02C            0002C  8482    1889.              L     VPR,CTPATHB
 DROP   *,R7
 USING  *,R7
 001C78 9823 B030            00030  8483    1890.              LM    SR,TR,VPRADDR1          GET FIRST PART
 001C7C 1903                        8484    1891.              CR    R0,TR                   ENOUGH IN FIRST?
 001C7E 47D0 704E            01CC2  8485    1892.              BNH   EASYMOVE
 001C82 1840                        8486    1893.              LR    QR,R0                   SAVE LENGTH
 001C84 1861                        8487    1894.              LR    PR,R1                   AND ADDRESS
 001C86 1213                        8488    1895.              LTR   R1,TR                   ANY AT ALL?
 001C88 47D0 702A            01C9E  8489    1896.              BNP   NOFIRST
 001C8C 18E2                        8490    1897.              LR    R14,SR                  SET SOURCE ADDRESS
 001C8E 18F1                        8491    1898.              LR    R15,R1                   AND SOURCE LENGTH
 001C90 1806                        8492    1899.              LR    R0,PR                   TARGET ADDRESS
 001C92 0E0E                        8493    1900.              MVCL  R0,R14                  MOVE IT IN
 001C94                             8494    1901.              CLEAR VPRLEN1
 001C94 D703 B034 B034 00034 00034  8500             +
 001C9A 1B43                        8501    1902.              SR    QR,TR                   REDUCE AMOUNT
 001C9C 1A63                        8502    1903.              AR    PR,TR                   INCREASE ADDRESS
 001C9E 9823 B038            00038  8503    1904.     NOFIRST  LM    SR,TR,VPRADDR2
 001CA2 1943                        8504    1905.              CR    QR,TR                   ENOUGH LEFT?
 001CA4 4720 7068            01CDC  8505    1906.              BH    BADLEN                  TOO BAD
 001CA8 1814                        8506    1907.              LR    R1,QR                   TARGET LENGTH
 001CAA 18F4                        8507    1908.              LR    R15,QR                   AND SOURCE LENGTH
 001CAC 1806                        8508    1909.              LR    R0,PR                   TARGET ADDRESS
 001CAE 18E2                        8509    1910.              LR    R14,SR                   AND SOURCE ADDRESS
 001CB0 0E0E                        8510    1911.              MVCL  R0,R14                  MOVE IT IN
 001CB2 1A24                        8511    1912.              AR    SR,QR                   BUMP ADDRESS
 001CB4 1B34                        8512    1913.              SR    TR,QR                   REDUCE LENGTH LEFT
 001CB6 9023 B038            00038  8513    1914.              STM   SR,TR,VPRADDR2
 001CBA 18D8/982B D000       00000  8514    1915.              VEXIT SR,VPR
 001CC0 07F9                        8518             +
0001CC2 18E2                        8520    1917.     EASYMOVE LR    R14,SR                  SET SOURCE ADDRESS
 001CC4 18F0                        8521    1918.              LR    R15,R0                   AND SOURCE LENGTH
 001CC6 1A20                        8522    1919.              AR    SR,R0                   BUMP AVAIL ADDRESS
 001CC8 1B30                        8523    1920.              SR    TR,R0                   REDUCE AVAIL LENGTH
 001CCA 9023 B030            00030  8524    1921.              STM   SR,TR,VPRADDR1
 001CCE 1801                        8525    1922.              LR    R0,R1                   TARGET ADDRESS
 001CD0 181F                        8526    1923.              LR    R1,R15                   AND TARGET LENGTH
 001CD2 0E0E                        8527    1924.              MVCL  R0,R14                  MOVE IT IN
 001CD4 18D8/982B D000       00000  8528    1925.              VEXIT SR,VPR
 001CDA 07F9                        8532             +
 001CDC 90E1 A050            00050  8533    1926.     BADLEN   VKAPUT BADLEN
 001CE0 5090 A0A4            000A4  8537             +
 001CE4 5890 7740/0D99       023B4  8540             +
 001CEA 40C2C1C4D3C5D540            8542             +
1VAMT     (VAMT02) (09:45) (22MAR04) VAM/370 - MILTEN COMMUNICATION ROUTINES                                                Page   88
0Current Usings:  (PCWD,R5) (MTR,R6) (*,R7) (CT,R10) (VAMPATH,R11) (VCHEAD,R12)
0Loc    Object Code    Addr1 Addr2  Stmt Lv Lineno    Source Statement           (Hibal 5, Asmedit 3.3)  HLASM R4.0  2004/03/22 09.45
+___    ______ ____    _____ _____  ____ __ ______    ______ _________
0                                   8544    1928.              USING VAMPATH,VPR             ##
 DROP   VCHEAD,R12                  8546    1929.              USING RQST,RQR                ##
 USING  RQST,R12
-
 001CF2 902B D000/188D       00000  8559    1931.     INITMIL  VENTER SR,VPR,*,LOCAL
 001CF8 41D0 D028/0D70       00028  8563             +
 001CFE 58B0 A020            00020  8581    1932.              L     VPR,CTCORE              CURRENT FREE CORE ADDRESS
 DROP   *,R7
 USING  *,R7
 001D02 50B0 A030            00030  8582    1933.              ST    VPR,CTPATHM             IS MILTEN PATH
 001D06 41C0 B068            00068  8583    1934.              LA    RQR,VPLEN(,VPR)         FOLLOWED BY RQST
 001D0A 50C0 A034            00034  8584    1935.              ST    RQR,CTRQST
 001D0E 4120 C114            00114  8585    1936.              LA    SR,RQSTSIZE(,RQR)       FOLLOWED BY
 001D12 5020 A020            00020  8586    1937.              ST    SR,CTCORE                MORE FREE CORE
 001D16 4120 B028            00028  8587    1938.              LA    SR,VPECB                ECB ADDRESS
 001D1A 5020 A044            00044  8588    1939.              ST    SR,CTMECB               SAVE IN THE ECB LIST
 001D1E 9680 A044      00044        8589    1940.              SET   CTMECB.X'80'            MARK END OF ECB LIST
 001D22 5020 B018            00018  8596    1941.              ST    SR,PATHECB              TO PATH CONTROL BLCOK
 001D26 D207 B008 7612 00008 02310  8597    1942.              MVC   PATHMY,=CL8'VAMPATH'    MY NAME
 001D2C D207 B010 761A 00010 02318  8598    1943.              MVC   PATHYOU,=CL8'MILTEN'    MY FRIENDS NAME
 001D32 D203 B024 7622 00024 02320  8599    1944.              MVC   PATHPASS,=CL8'PVFE'     SAY THIS AND WIN $50
 001D38 D203 B01C 76EA 0001C 023E8  8600    1945.              MVC   PATHBUF,=A((RQSTSIZE+16)/8*8) LENGTH IN DBLEWORDS
 001D3E 4120 B02C            0002C  8601    1946.              LA    SR,VPFLAGS              FLAG BYTE FOR SUZAN
 001D42 5020 B020            00020  8602    1947.              ST    SR,PATHECBF
 001D46                             8603    1948.              CLEAR VPECB                   CLEAR ECB
 001D46 D703 B028 B028 00028 00028  8609             +
 001D4C 9220 B018      00018        8610    1949.              MVI   PATHECB,PATHMNAM        I SUPPLY THE NAMES
 001D50 4120 B000            00000  8611    1950.              LA    SR,PATH                 SET UP
 001D54 5020 A108            00108  8612    1951.              ST    SR,CTTEMP               PATH PARM. LIST
 001D58 9280 A108      00108        8613    1952.              MVI   CTTEMP,X'80'            ONLY ONE ENTRY
 001D5C 4110 A108/1B00       00108  8614    1953.              SVCCOM INIT,CTTEMP            INITIALIZE THE PATH
 001D62 0AFB                        8624             +
 001D64 12FF                        8625    1954.              LTR   R15,R15                 CHECK RETURN CODE
 001D66 4770 711C            01E1A  8626    1955.              BNZ   IMINERR                 OOPS
 001D6A 4110 B028            00028  8627    1956.              LA    R1,VPECB                ECB ADDRESS
 001D6E 5800 769E            0239C  8628    1957.              L     R0,=A(5*60*100)         WAIT PERIOD (5 MINUTES)
 001D72 4D90 755E            0225C  8629    1958.              LCALL TIMEOUT                 WAIT FOR ACTION
 001D76 9508 B02C      0002C        8631    1959.              CLI   VPFLAGS,PATHFOPN        DID HE POST OPEN?
 001D7A 4770 71CE            01ECC  8632    1960.              BNE   IMPOSERR                NOPE
 001D7E 1B11                        8633    1961.              CLEAR R1                      NO TEXT
 001D80 9221 C008      00008        8637    1962.              MVI   RQSTCMD,TMILINIT        MILTEN INITIALIZATION
 001D84 4D90 738C            0208A  8638    1963.     IMLOOP   LCALL MILSEND                  TO MILTEN
 001D88 4D90 7422            02120  8640    1964.              LCALL MILGET                  PRINT IT
 001D8C 9542 C008      00008        8642    1965.              CLI   RQSTCMD,FMILREAD        CONVERSE?
 001D90 4780 70A2            01DA0  8643    1966.              BE    IMMILOK                 THATS WHAT WE WANTED
 001D94 1B11                        8644    1967.              CLEAR R1                      NO TEXT
 001D96                             8648    1968.              CLEAR (RQST,RQSTHEAD)         CLEAR THE RQST
 001D96 D711 C000 C000 00000 00000  8654             +
 001D9C 47F0 7086            01D84  8655    1969.              B     IMLOOP                  WAIT FOR READ
1VAMT     (VAMT02) (09:45) (22MAR04) VAM/370 - MILTEN COMMUNICATION ROUTINES                                                Page   89
0Current Usings:  (PCWD,R5) (MTR,R6) (*,R7) (CT,R10) (VAMPATH,R11) (RQST,R12)
0Loc    Object Code    Addr1 Addr2  Stmt Lv Lineno    Source Statement           (Hibal 5, Asmedit 3.3)  HLASM R4.0  2004/03/22 09.45
+___    ______ ____    _____ _____  ____ __ ______    ______ _________
0                                   8657    1971.     *  MILTEN INITIALIZATION COMPLETE CHECK FOR WYLBUR
                                    8658    1972.     *
 001DA0                             8659    1973.     IMMILOK  DS    0H
 001DA0                             8660    1974.     IMWYLOK  DS    0H
 001DA0 4D90 7138            01E36  8661    1975.              LCALL CALLORV                 TRY TO ATTRACT ORVYL
 001DA4 4780 70F6            01DF4  8663    1976.              BZ    IMEXIT                  ALLS WELL
 001DA8 4D90 7422            02120  8664    1977.              LCALL MILGET                  PRINT IT
 001DAC 9542 C008      00008        8666    1978.              CLI   RQSTCMD,FMILREAD        CONVERSE?
 001DB0 4770 7102            01E00  8667    1979.              BNE   IMCONFUS                ERROR IF NOT
 001DB4 4110 76EE            023EC  8668    1980.              VWRITE 'ORVYL NOT ACTIVE - WAITING 5 MINUTES'
 001DB8 4100 0024            00024  8673             +
 001DBC 5890 7686/0D99       02384  8676             +
 001DC2 5890 768E/0D99       0238C  8680             +
 001DC8                             8682    1981.              CLEAR VPECB                   CLEAR ECB
 001DC8 D703 B028 B028 00028 00028  8688             +
 001DCE 4110 B028            00028  8689    1982.              LA    R1,VPECB                ECB ADDRESS
 001DD2 5800 769E            0239C  8690    1983.              L     R0,=A(5*60*100)         WAIT PERIOD (5 MINUTES)
 001DD6 4D90 755E            0225C  8691    1984.              LCALL TIMEOUT                 WAIT FOR ACTION
 001DDA 4D90 7138            01E36  8693    1985.              LCALL CALLORV                 TRY TO ATTRACT ORVYL
 001DDE 4780 70F6            01DF4  8695    1986.              BZ    IMEXIT                  ALLS WELL
 001DE2 4110 774A            02448  8696    1987.              VSEG  'ORVYL STILL NOT ACTIVE'
 001DE6 4100 0016            00016  8700             +
 001DEA 5890 7686/0D99       02384  8703             +
 001DF0 47F0 71DC            01EDA  8705    1988.              B     IMQUIT                  PACK IT IN
                                    8706    1989.
 001DF4 9640 B02D      0002D        8707    1990.     IMEXIT   SET   VPFWUMR                 NEXT MESSAGE IS INIT COMP
 001DF8 18D8/982B D000       00000  8714    1991.              VEXIT SR,VPR
 001DFE 07F9                        8718             +
-
-001E00 90E1 A050            00050  8720    1993.     IMCONFUS VKAPUT IMCONFU,(RAR)
 001E04 5090 A050            00050  8724             +
 001E08 5090 A0A4            000A4  8725             +
 001E0C 5890 76B6/0D99       023B4  8728             +
 001E12 40C9D4C3D6D5C6E4            8730             +
 001E1A 90E1 A050            00050  8731    1994.     IMINERR  VKAPUT IMINERR,CTTEMP,*
 001E1E D203 A050 A108 00050 00108  8735             +
 001E24 5090 A0A4            000A4  8736             +
 001E28 5890 76B6/0D99       023B4  8739             +
 001E2E 40C9D4C9D5C5D9D9            8741             +
1VAMT     (VAMT02) (09:45) (22MAR04) VAM/370 - MILTEN COMMUNICATION ROUTINES                                                Page   90
0Current Usings:  (PCWD,R5) (MTR,R6) (*,R7) (CT,R10) (VAMPATH,R11) (RQST,R12)
0Loc    Object Code    Addr1 Addr2  Stmt Lv Lineno    Source Statement           (Hibal 5, Asmedit 3.3)  HLASM R4.0  2004/03/22 09.45
+___    ______ ____    _____ _____  ____ __ ______    ______ _________
0                                   8743    1996.     *  SEND COMMAND TO ORVYL
                                    8744    1997.     *
 001E36                             8745    1998.     CALLORV  DS    0H
 001E36 1859                        8746    1999.              LR    RR,RAR                  SAVE RETURN
 001E38                             8747    2000.              CLEAR (RQST,RQSTHEAD)         CLEAR THE RQST
 001E38 D711 C000 C000 00000 00000  8753             +
 001E3E 4110 7712            02410  8754    2001.              VSEG  ' => '
 001E42 4100 0004            00004  8758             +
 001E46 5890 7686/0D99       02384  8761             +
 001E4C 4110 778E            0248C  8763    2002.              VSEG  'CALL OVAM'
 001E50 4100 0009            00009  8767             +
 001E54 5890 7686/0D99       02384  8770             +
 001E5A D208 C012 1000 00012 00000  8772    2003.              MVC   RQSTTEXT(9),0(R1)       COPY TO RQST
 001E60 5890 768E/0D99       0238C  8773    2004.              VWRITE  ,
 001E66 4110 0009            00009  8778    2005.              LA    R1,9                    LENGTH
 001E6A 9110 A32C      0032C        8779    2006.              IF    CTVIRT,BEGIN
 001E6E 47E0 7188            01E86  8789             +
 001E72 D204 C01B 7797 0001B 02495  8794  1 2007.                MVC   RQSTTEXT+9(5),=C' (ID ' PATH PASSWORD OF
 001E78 D203 C020 A31A 00020 0031A  8795  1 2008.                MVC   RQSTTEXT+14(4),CTUNAME   JOB NUMBER ASSURES A
 001E7E 925D C024      00024        8796  1 2009.                MVI   RQSTTEXT+18,C')'          UNIQUE CONNECTION
 001E82 4110 0013            00013  8797  1 2010.                LA    R1,19                   LENGTH OF WHOLE REQUEST
 001E86                             8798    2011.              END   ,
 001E86 4D90 738C            0208A  8802    2012.              LCALL MILSEND                  TO ORVYL
 001E8A 4D90 7422            02120  8804    2013.     COAGAIN  LCALL MILGET                  PRINT IT
 001E8E 9541 C008      00008        8806    2014.              CLI   RQSTCMD,FMILWRIT        WRITE?
 001E92 0775                        8807    2015.              BNER  RR                      RETURN ERROR IF NOT
 001E94                             8808    2016.              CLEAR VPECB                   CLEAR ECB
 001E94 D703 B028 B028 00028 00028  8814             +
 001E9A 4110 B028            00028  8815    2017.              LA    R1,VPECB                ECB ADDRESS
 001E9E 5800 7716            02414  8816    2018.              L     R0,=A(2*100)            WAIT PERIOD (2 SECONDS)
 001EA2 4D90 755E            0225C  8817    2019.              LCALL TIMEOUT                 WAIT FOR ACTION
 001EA6 1B11                        8819    2020.              CLEAR R1                      SAY OK
 001EA8                             8823    2021.              CLEAR (RQST,RQSTHEAD)         CLEAR THE RQST
 001EA8 D711 C000 C000 00000 00000  8829             +
 001EAE 9680 B02D      0002D        8830    2022.              SET   VPFNWAIT                NO WAIT AFTER SEND
 001EB2 4D90 738C            0208A  8836    2023.              LCALL MILSEND                 SEND WRITE RECIEVED
 001EB6 4110 B028            00028  8838    2024.              LA    R1,VPECB                ECB ADDRESS
 001EBA 5800 771A            02418  8839    2025.              L     R0,=A(5*100)            WAIT PERIOD (5 SECONDS)
 001EBE 4D90 755E            0225C  8840    2026.              LCALL TIMEOUT                 WAIT FOR ACTION
 001EC2 9500 B02C      0002C        8842    2027.              CLI   VPFLAGS,0               SHOULD BE NO NEWS
 001EC6 0785                        8843    2028.              BER   RR                      RETURN OK
 001EC8 47F0 718C            01E8A  8844    2029.              B     COAGAIN                 LOOP UNTILL NO MORE
 001ECC 4110 762A            02328  8845    2030.     IMPOSERR VSEG  'NO RESPONSE FROM MILTEN FOR FIVE MINUTES'
 001ED0 4100 0028            00028  8849             +
 001ED4 5890 7686/0D99       02384  8852             +
 001EDA 5890 76E6/0D99       023E4  8854    2031.     IMQUIT   ACALL VAMQUIT
1VAMT     (VAMT02) (09:45) (22MAR04) VAM/370 - MILTEN COMMUNICATION ROUTINES                                                Page   91
0Current Usings:  (PCWD,R5) (MTR,R6) (*,R7) (CT,R10) (VAMPATH,R11) (RQST,R12)
0Loc    Object Code    Addr1 Addr2  Stmt Lv Lineno    Source Statement           (Hibal 5, Asmedit 3.3)  HLASM R4.0  2004/03/22 09.45
+___    ______ ____    _____ _____  ____ __ ______    ______ _________
0                                   8859    2033.     *  CHECK MILTEN PATH
                                    8860    2034.     *
 001EE0 900F D000/188D       00000  8861    2035.     MILCHK   VENTER R0,R15,*,LOCAL
 001EE6 41D0 D040/0D70       00040  8865             +
 001EEC 58B0 A030            00030  8883    2036.              L     VPR,CTPATHM             GET MILTEN PATH POINTER
 DROP   *,R7
 USING  *,R7
 001EF0 12BB                        8884    2037.              LTR   VPR,VPR                 IS THERE ONE?
 001EF2 4780 7088            01F74  8885    2038.              BZ    MCEXIT                  DONE IF NOT
 001EF6 9500 B02C      0002C        8886    2039.              CLI   VPFLAGS,0               POSTED?
 001EFA 4770 7034            01F20  8887    2040.              BNE   MCOUT                   DO OUTPUTTING IF SO
 001EFE 9140 B02D      0002D        8888    2041.              IF    ~VPFWUMR,MCEXIT         DONE IF NOT WAITING FOR MESS
 001F02 47E0 7088            01F74  8900             +
 001F06                             8906    2042.              CLEAR VPECB                   CLEAR ECB
 001F06 D703 B028 B028 00028 00028  8912             +
 001F0C 4110 B028            00028  8913    2043.              LA    R1,VPECB                ECB
 001F10 5800 7530            0241C  8914    2044.              L     R0,=A(2*60*100)         TWO MINUTES
 001F14 4D90 7370            0225C  8915    2045.              LCALL TIMEOUT                 WAIT FOR COMPLETION
 001F18 9500 B02C      0002C        8917    2046.              CLI   VPFLAGS,0               ANY ACTION?
 001F1C 4780 7090            01F7C  8918    2047.              BE    MCBAD                   NONE
 001F20 94BF B02D      0002D        8919    2048.     MCOUT    CLEAR VPFWUMR                 CLEAR
 001F24 9120 B02C      0002C        8927    2049.              TM    VPFLAGS,PATHFNI         NEWS?
 001F28 4780 7068            01F54  8928    2050.              BZ    MCMIL                   CHECK ON MILTEN
 001F2C 58C0 A034            00034  8929    2051.              L     RQR,CTRQST              RQST POINTER
 001F30 4D90 7234            02120  8930    2052.              LCALL MILGET                  GET IT
 001F34 9541 C008      00008        8932    2053.              CLI   RQSTCMD,FMILWRIT        WRITE?
 001F38 4770 7090            01F7C  8933    2054.              BNE   MCBAD                   ERROR IF NOT
 001F3C 1B11                        8934    2055.              CLEAR R1                      SAY OK
 001F3E                             8938    2056.              CLEAR (RQST,RQSTHEAD)         CLEAR THE RQST
 001F3E D711 C000 C000 00000 00000  8944             +
 001F44 9680 B02D      0002D        8945    2057.              SET   VPFNWAIT                NO WAIT AFTER SEND
 001F48 4D90 719E            0208A  8951    2058.              LCALL MILSEND                 SEND WRITE RECIEVED
 001F4C 9500 B02C      0002C        8953    2059.              CLI   VPFLAGS,0               SHOULD BE NO NEWS
 001F50 4780 7088            01F74  8954    2060.              BE    MCEXIT                  DONE IF OK
 001F54 9180 B02C      0002C        8955    2061.     MCMIL    TM    VPFLAGS,PATHFCLS        MILTEN GONE?
 001F58 9200 B02C      0002C        8956    2062.              MVI   VPFLAGS,0               TIDY
 001F5C 4780 7088            01F74  8957    2063.              BZ    MCEXIT                  ALLS WELL
 001F60 4110 75AE            0249A  8958    2064.              VSEG  'MILTEN DIED'           TATTLE TALE
 001F64 4100 000B            0000B  8962             +
 001F68 5890 7498/0D99       02384  8965             +
 001F6E 5890 74F8/0D99       023E4  8967    2065.              ACALL VAMQUIT                 AND POUT
 001F74 18D8/980F D000       00000  8971    2066.     MCEXIT   VEXIT R0,R15
 001F7A 07F9                        8975             +
 001F7C 4110 7464            02350  8976    2067.     MCBAD    VSEG  'OVAM RESPONSE ERROR - OVAM, ORVYL OR WYLBUR DIED'
 001F80 4100 0030            00030  8980             +
 001F84 5890 7498/0D99       02384  8983             +
 001F8A 5890 74F8/0D99       023E4  8985    2068.              ACALL VAMQUIT                 AND POUT
1VAMT     (VAMT02) (09:45) (22MAR04) VAM/370 - MILTEN COMMUNICATION ROUTINES                                                Page   92
0Current Usings:  (PCWD,R5) (MTR,R6) (*,R7) (CT,R10) (VAMPATH,R11) (RQST,R12)
0Loc    Object Code    Addr1 Addr2  Stmt Lv Lineno    Source Statement           (Hibal 5, Asmedit 3.3)  HLASM R4.0  2004/03/22 09.45
+___    ______ ____    _____ _____  ____ __ ______    ______ _________
0                                   8990    2070.     *  CLOSE MILTEN PATH
                                    8991    2071.     *
 001F90 900F D000/188D       00000  8992    2072.     CLOSMIL  VENTER R0,R15,*,LOCAL
 001F96 41D0 D040/0D70       00040  8996             +
 001F9C 58B0 A030            00030  9014    2073.              L     VPR,CTPATHM             GET MILTEN PATH POINTER
 DROP   *,R7
 USING  *,R7
 001FA0 12BB                        9015    2074.              LTR   VPR,VPR                 IS THERE ONE?
 001FA2 4780 70BA            02056  9016    2075.              BZ    CMEXIT                  DONE IF NOT
 001FA6 4110 7474            02410  9017    2076.              VSEG  ' => '
 001FAA 4100 0004            00004  9021             +
 001FAE 5890 73E8/0D99       02384  9024             +
 001FB4 4110 74C2            0245E  9026    2077.              VWRITE '<ATTN>'               PSUEDO COMMAND
 001FB8 4100 0006            00006  9031             +
 001FBC 5890 73E8/0D99       02384  9034             +
 001FC2 5890 73F0/0D99       0238C  9038             +
 001FC8 58C0 A034            00034  9040    2078.              L     RQR,CTRQST              RQST POINTER
 001FCC                             9041    2079.              CLEAR (RQST,RQSTHEAD)         CLEAR THE RQST
 001FCC D711 C000 C000 00000 00000  9047             +
 001FD2 9250 C008      00008        9048    2080.              MVI   RQSTCMD,FMILASYN        SET ASYNCHRONOUS COMMAND
 001FD6 9220 C00D      0000D        9049    2081.              MVI   RQSTCPLB,CPLBIA          WITH IDLE ATTENTION
 001FDA 1B11                        9050    2082.              CLEAR R1                      NO DATA
 001FDC 4D90 70EE            0208A  9054    2083.              LCALL MILSEND                 TO MILTEN
 001FE0 9120 B02C      0002C        9056    2084.              TM    VPFLAGS,PATHFNI         NEW INFO?
                                    9057    2085.     *        BZ    MILIAER                 ERROR IF NOT
 001FE4 4780 70BA            02056  9058    2086.              BZ    CMEXIT     **TEMP** UNTIL MILTEN FIXED 10/85
 001FE8 4D90 7184            02120  9059    2087.              LCALL MILGET                  GO GET NEW INFO
 001FEC 9542 C008      00008        9061    2088.              CLI   RQSTCMD,FMILREAD        WAS LAST REQUEST A READ?
 001FF0 4770 70D8            02074  9062    2089.              BNE   MILCONVX                ERROR IF NOT
 001FF4                             9063    2090.     CMRETRY  CLEAR (RQST,RQSTHEAD)         CLEAR THE RQST
 001FF4 D711 C000 C000 00000 00000  9070             +
 001FFA 4110 7474            02410  9071    2091.              VSEG  ' => '
 001FFE 4100 0004            00004  9075             +
 002002 5890 73E8/0D99       02384  9078             +
 002008 4110 74C8            02464  9080    2092.              VSEG  'LOGOFF CLR'            MILTEN COMMAND
 00200C 4100 000A            0000A  9084             +
 002010 5890 73E8/0D99       02384  9087             +
 002016 D209 C012 1000 00012 00000  9089    2093.              MVC   RQSTTEXT(10),0(R1)       TO RQST
 00201C 5890 73F0/0D99       0238C  9090    2094.              VWRITE  ,
 002022 9610 B02D      0002D        9095    2095.              SET   VPFCLOS                 SET CLOSE EXPECTED
 002026 4110 000A            0000A  9101    2096.              LA    R1,10                   LENGTH
 00202A 4D90 70EE            0208A  9102    2097.     CMLOOP   LCALL MILSEND                 TO MILTEN
 00202E 9120 B02C      0002C        9104    2098.              TM    VPFLAGS,PATHFNI         NEW INFO?
 002032 4780 70BA            02056  9105    2099.              BZ    CMEXIT                  QUIT IF NOT
 002036 4D90 7184            02120  9106    2100.              LCALL MILGET                  GET DATA
 00203A 9542 C008      00008        9108    2101.              CLI   RQSTCMD,FMILREAD        WAS LAST REQUEST A READ?
 00203E 4780 7058            01FF4  9109    2102.              BE    CMRETRY                 RESEND LOGOFF IF SO
 002042                             9110    2103.              CLEAR (RQST,RQSTHEAD)         CLEAR THE RQST
 002042 D711 C000 C000 00000 00000  9116             +
 002048 1B11                        9117    2104.              CLEAR R1                      NO TEXT
 00204A 9180 B02C      0002C        9121    2105.              TM    VPFLAGS,PATHFCLS        PATH CLOSED NOW?
 00204E 4710 70BA            02056  9122    2106.              BO    CMEXIT                  DONE IF SO
 002052 47F0 708E            0202A  9123    2107.              B     CMLOOP                  LOOP TO GET ALL DATA
                                    9124    2108.
1VAMT     (VAMT02) (09:45) (22MAR04) VAM/370 - MILTEN COMMUNICATION ROUTINES                                                Page   93
0Current Usings:  (PCWD,R5) (MTR,R6) (*,R7) (CT,R10) (VAMPATH,R11) (RQST,R12)
0Loc    Object Code    Addr1 Addr2  Stmt Lv Lineno    Source Statement           (Hibal 5, Asmedit 3.3)  HLASM R4.0  2004/03/22 09.45
+___    ______ ____    _____ _____  ____ __ ______    ______ _________
0002056 18D8/980F D000       00000  9125    2109.     CMEXIT   VEXIT R0,R15
 00205C 07F9                        9129             +
                                    9130    2110.
 00205E 90E1 A050            00050  9131    2111.     MILIAER  VKAPUT MILIAER
 002062 5090 A0A4            000A4  9135             +
 002066 5890 7418/0D99       023B4  9138             +
 00206C 40D4C9D3C9C1C5D9            9140             +
                                    9141    2112.
 002074 90E1 A050            00050  9142    2113.     MILCONVX VKAPUT MILCONV
 002078 5090 A0A4            000A4  9146             +
 00207C 5890 7418/0D99       023B4  9149             +
 002082 40D4C9D3C3D6D5E5            9151             +
1VAMT     (VAMT02) (09:45) (22MAR04) VAM/370 - MILTEN COMMUNICATION ROUTINES                                                Page   94
0Current Usings:  (PCWD,R5) (MTR,R6) (*,R7) (CT,R10) (VAMPATH,R11) (RQST,R12)
0Loc    Object Code    Addr1 Addr2  Stmt Lv Lineno    Source Statement           (Hibal 5, Asmedit 3.3)  HLASM R4.0  2004/03/22 09.45
+___    ______ ____    _____ _____  ____ __ ______    ______ _________
0                                   9153    2115.     *  SEND BUFFER TO MILTEN
                                    9154    2116.     *
 00208A 9029 D000/188D       00000  9155    2117.     MILSEND  VENTER SR,RAR,*,LOCAL
 002090 41D0 D020/0D70       00020  9159             +
 002096 4150 B048            00048  9177    2118.              LA    RR,VPPCWS               PCWS
 DROP   *,R7
 USING  *,R7
                                    9178    2119.              USING PCWD,RR                 ##
 00209A                             9180    2120.              CLEAR (PCW,PCWSIZE)           CLEAR OUT THE PCW
 00209A D707 5000 5000 00000 00000  9186             +
 0020A0 50C0 5000            00000  9187    2121.              ST    RQR,PCWADDR             SET RQST POINTER
 0020A4 9281 5000      00000        9188    2122.              MVI   PCWCMD,CMDSNDX+CMDEND   SEND TRANSACTION COMMAND
 0020A8 4010 C00E            0000E  9189    2123.              STH   R1,RQSTOUCT             SET DATA LENGTH
 0020AC 4110 1012            00012  9190    2124.              LA    R1,RQSTHEAD(,R1)        TOTAL SIZE
 0020B0 4010 C000            00000  9191    2125.              STH   R1,RQSTRDWL              TO REMOTE RDW
 0020B4                             9192    2126.              CLEAR VPECB                   CLEAR ECB
 0020B4 D703 B028 B028 00028 00028  9198             +
 0020BA 9200 B02C      0002C        9199    2127.              MVI   VPFLAGS,0               CLEAR STATUS FLAGS
 0020BE 4110 B048            00048  9200    2128.              SVCCOM PATHMGC,VPPCWS         SEND IT
 0020C2 5800 B000/0AFB       00000  9210             +
 0020C8 12FF                        9212    2129.              LTR   R15,R15                 GET THROUGH OK?
 0020CA 4770 7058            020EE  9213    2130.              BNZ   MSERR                   ERROR IF NOT
 0020CE 9180 B02D      0002D        9214    2131.              IF    VPFNWAIT,MSEXIT         BRANCH IF NO WAIT
 0020D2 4710 704C            020E2  9226             +
 0020D6 4110 B028            00028  9232    2132.              LA    R1,VPECB                ECB
 0020DA 5800 738A            02420  9233    2133.              L     R0,=A(1*60*100)         ONE MINUTE
 0020DE 4D90 71C6            0225C  9234    2134.              LCALL TIMEOUT                 WAIT FOR COMPLETION
 0020E2 947F B02D      0002D        9236    2135.     MSEXIT   CLEAR VPFNWAIT                CLEAR
 0020E6 18D8/9829 D000       00000  9244    2136.              VEXIT SR,RAR                  RETURN
 0020EC 07F9                        9248             +
-
 0020EE 49F0 73B0            02446  9250    2138.     MSERR    CH    R15,=Y(RCNOPART)        WERE WE ABANDONDED?
 0020F2 4770 7074            0210A  9251    2139.              BNE   MSKAPUT                 NO
 0020F6 4110 7404            0249A  9252    2140.              VSEG  'MILTEN DIED'           TATTLE TALE
 0020FA 4100 000B            0000B  9256             +
 0020FE 5890 72EE/0D99       02384  9259             +
 002104 5890 734E/0D99       023E4  9261    2141.              ACALL VAMQUIT                 AND POUT
                                    9265    2142.
 00210A 90E1 A050            00050  9266    2143.     MSKAPUT  VKAPUT MSERROR
 00210E 5090 A0A4            000A4  9270             +
 002112 5890 731E/0D99       023B4  9273             +
 002118 40D4E2C5D9D9D6D9            9275             +
1VAMT     (VAMT02) (09:45) (22MAR04) VAM/370 - MILTEN COMMUNICATION ROUTINES                                                Page   95
0Current Usings:  (PCWD,R5) (MTR,R6) (*,R7) (CT,R10) (VAMPATH,R11) (RQST,R12)
0Loc    Object Code    Addr1 Addr2  Stmt Lv Lineno    Source Statement           (Hibal 5, Asmedit 3.3)  HLASM R4.0  2004/03/22 09.45
+___    ______ ____    _____ _____  ____ __ ______    ______ _________
0                                   9277    2145.     *  OBTAIN AND FORMAT A MILTEN BUFFER
                                    9278    2146.     *
 002120 9029 D000/188D       00000  9279    2147.     MILGET   VENTER SR,RAR,*,LOCAL
 002126 41D0 D020/0D70       00020  9283             +
 00212C 4150 B048            00048  9301    2148.              LA    RR,VPPCWS               PCW AREA
 DROP   *,R7
 USING  *,R7
 002130                             9302    2149.              CLEAR (PCW,PCWSIZE)           CLEAR OUT THE PCW
 002130 D707 5000 5000 00000 00000  9308             +
 002136 50C0 5000            00000  9309    2150.              ST    RQR,PCWADDR             SET RQST ADDRESS
 00213A 9286 5000      00000        9310    2151.              MVI   PCWCMD,CMDRETX+CMDEND   RETRIEVE TRANSACTION COMMAN
 00213E 4110 0114            00114  9311    2152.              LA    R1,RQSTSIZE             TOTAL LENGTH
 002142 4010 5004            00004  9312    2153.              STH   R1,PCWLEN                FOR SUZAN
 002146 4110 B048            00048  9313    2154.              SVCCOM PATHMGC,VPPCWS         GET IT
 00214A 5800 B000/0AFB       00000  9323             +
 002150 9524 C008      00008        9325    2155.              CLI   RQSTCMD,FMILERR         MILTEN RCOM ERROR?
 002154 4780 7048            02174  9326    2156.              BE    MGICK                   ICK
 002158 4D90 70A4            021D0  9327    2157.              LCALL SEGMSG                  LIST IT
 00215C 9180 B02C      0002C        9329    2158.              TM    VPFLAGS,PATHFCLS        PATH CLOSED NOW?
 002160 4780 7040            0216C  9330    2159.              BZ    MGEXIT                  OK IF NOT
 002164 9110 B02D      0002D        9331    2160.              IF    ~VPFCLOS,MGCLOSED       MILTEN CLOSED PATH
 002168 47E0 7092            021BE  9343             +
 00216C 18D8/9829 D000       00000  9349    2161.     MGEXIT   VEXIT SR,RAR                  AND RETURN
 002172 07F9                        9353             +
 002174 4110 7342            0246E  9354    2162.     MGICK    VSEG  'VAM/MILTEN ERROR: '
 002178 4100 0012            00012  9358             +
 00217C 5890 7258/0D99       02384  9361             +
 002182 4110 C00A            0000A  9363    2163.              VSEG  RQSTMODB,8             SEND RCOM ERROR
 002186 4100 0008            00008  9379             +
 00218A 5890 7258/0D99       02384  9382             +
 002190 4110 7354            02480  9384    2164.              VSEG  '  '
 002194 4100 0002            00002  9388             +
 002198 5890 7258/0D99       02384  9391             +
 00219E 18F9                        9393    2165.              LR    R15,RAR                 INCLUDE
 0021A0 5BF0 72F8            02424  9394    2166.              S     R15,=A(VAMT)             LOCATION
 0021A4 4100 0008            00008  9395    2167.              SEGHX 8,(R15)                   OF CALLER
 0021A8 4110 A108            00108  9414             +
 0021AC 58E0 72FC/0DEE       02428  9417             +
 0021B2 5890 7258/0D99       02384  9434             +
 0021B8 5890 72B8/0D99       023E4  9436    2168.     MGQUIT   ACALL VAMQUIT                 AND QUIT
 0021BE 4110 736E            0249A  9440    2169.     MGCLOSED VSEG  'MILTEN DIED'
 0021C2 4100 000B            0000B  9444             +
 0021C6 5890 7258/0D99       02384  9447             +
 0021CC 47F0 708C            021B8  9449    2170.              B     MGQUIT
0DROP   PCWD,R5                     9451    2172.              DROP  RR                      ##
1VAMT     (VAMT02) (09:45) (22MAR04) VAM/370 - MILTEN COMMUNICATION ROUTINES                                                Page   96
0Current Usings:  (MTR,R6) (*,R7) (CT,R10) (VAMPATH,R11) (RQST,R12)
0Loc    Object Code    Addr1 Addr2  Stmt Lv Lineno    Source Statement           (Hibal 5, Asmedit 3.3)  HLASM R4.0  2004/03/22 09.45
+___    ______ ____    _____ _____  ____ __ ______    ______ _________
0                                   9459    2174.     *  WRITE MESSAGES SENT FROM MILTEN/WYLBUR/ORVYL/OVAM
                                    9460    2175.     *
 0021D0 9029 D000/188D       00000  9461    2176.     SEGMSG   VENTER SR,RAR,*,LOCAL
 0021D6 41D0 D020/0D70       00020  9465             +
 0021DC 4820 C00E            0000E  9483    2177.              LH    SR,RQSTOUCT             GET COUNT TO DISPLAY
 DROP   *,R7
 USING  *,R7
 0021E0 4130 C012            00012  9484    2178.              LA    TR,RQSTTEXT             POINT AT TEXT AREA
 0021E4 9542 C008      00008        9485    2179.              CLI   RQSTCMD,FMILREAD        CONVERSE?
 0021E8 4770 7018            021F4  9486    2180.              BNE   SMTEST                  CHECK LENGTH IF SO
 0021EC 4B20 72A6            02482  9487    2181.              SH    SR,=Y(4)                ADJUST LENGTH
 0021F0 4130 C016            00016  9488    2182.              LA    TR,RQSTTEXT+4            AND  TEXT AREA
 0021F4 1222                        9489    2183.     SMTEST   LTR   SR,SR                   ANY?
 0021F6 4780 7078            02254  9490    2184.              BZ    SMEXIT                  DONE IF NOT
 0021FA 1B55                        9491    2185.              CLEAR RR                      COUNT
 0021FC 1813                        9495    2186.              LR    R1,TR                    AND AREA
 0021FE 9515 3000      00000        9496    2187.     SMCHK    CLI   0(TR),X'15'             NEWLINE?
 002202 4770 7048            02224  9497    2188.              BNE   SMNEXT                  NO
 002206 1255                        9498    2189.              LTR   RR,RR                   ANY?
 002208 4780 7040            0221C  9499    2190.              BZ    SMNULL                  CONTINUE ON IF NOT
 00220C 1805/5890 71A8       02384  9500    2191.              VSEG  (1),(RR)                SEG
 002212 0D99                        9516             +
 002214 5890 71B0/0D99       0238C  9517    2192.              VWRITE ,                       AND SEND
 00221A 1B55                        9522    2193.              CLEAR RR                      COUNTER
 00221C 4110 3001            00001  9526    2194.     SMNULL   LA    R1,1(,TR)                AND POINTER
 002220 47F0 704C            02228  9527    2195.              B     SMGO                    SKIP LENGTH INCR
 002224 4150 5001            00001  9528    2196.     SMNEXT   LA    RR,1(,RR)               INCREMENT LENGTH
 002228 4130 3001            00001  9529    2197.     SMGO     LA    TR,1(,TR)               INCREMENT POINTER
 00222C 4620 7022            021FE  9530    2198.              BCT   SR,SMCHK                DO  ALL
 002230 4B50 72A8            02484  9531    2199.              SH    RR,=Y(1)                ANY LAST TEXT?
 002234 47D0 7078            02254  9532    2200.              BNP   SMEXIT                  NO
 002238 9542 C008      00008        9533    2201.              CLI   RQSTCMD,FMILREAD        CONVERSE?
 00223C 4770 706A            02246  9534    2202.              BNE   SMLAST                  GO SEND LAST PART IF NOT
 002240 D207 A108 1000 00108 00000  9535    2203.              MVC   CTPROMPT,@R1            SAVE PROMPT
 002246 1805/5890 71A8       02384  9536    2204.     SMLAST   VWRITE (1),(RR)               LIST IT
 00224C 0D99/5890 71B0       0238C  9554             +
 002252 0D99                        9558             +
                                    9559    2205.
 002254 18D8/9829 D000       00000  9560    2206.     SMEXIT   VEXIT SR,RAR
 00225A 07F9                        9564             +
1VAMT     (VAMT02) (09:45) (22MAR04) VAM/370 - MILTEN COMMUNICATION ROUTINES                                                Page   97
0Current Usings:  (MTR,R6) (*,R7) (CT,R10) (VAMPATH,R11) (RQST,R12)
0Loc    Object Code    Addr1 Addr2  Stmt Lv Lineno    Source Statement           (Hibal 5, Asmedit 3.3)  HLASM R4.0  2004/03/22 09.45
+___    ______ ____    _____ _____  ____ __ ______    ______ _________
0                                   9566    2208.     *  SET REAL TIME INTERVAL AND WAIT
                                    9567    2209.     *
 00225C 9029 D000/188D       00000  9568    2210.     TIMEOUT  VENTER SR,RAR,*,LOCAL
 002262 41D0 D020/0D70       00020  9572             +
 002268 5000 A038            00038  9590    2211.              ST    R0,TIMEINT
 DROP   *,R7
 USING  *,R7
 00226C 1821                        9591    2212.              LR    SR,R1
 00226E 5010 A03C            0003C  9592    2213.              ST    R1,TIMEECB
 002272 4110 A038            00038  9593    2214.              STIMER REAL,TIMEXIT,BINTVL=TIMEINT   SET TIMER
 002276 4100 A32E            0032E  9599             +
 00227A 41E0 0013            00013  9600             +
 00227E 89E0 0018/160E       00018  9601             +
 002284 0A2F                        9603             +
 002286 4100 0001            00001  9604    2215.              WAIT  ECB=(SR)                LET'S WAIT FOR A WHILE
 00228A 4110 2000/0A01       00000  9608             +
 002290 4110 0001/0A2E       00001  9610    2216.              TTIMER CANCEL                 KILL TIMER INTERVAL
 002296 18D8/9829 D000       00000  9614    2217.              VEXIT SR,RAR                  RETURN
 00229C 07F9                        9618             +
-
                                    9620    2219.     *    TIMER EXIT ROUTINE (MODEL - MOVED INTO CT AREA  **PJG 11/06/92**
                                    9621    2220.     *
 00229E                             9622    2221.     TIMEXITX DS    0H
 00229E 90EC D00C            0000C  9623    2222.              SAVE  (14,12)
 0022A2 18AF                        9626    2223.              LR    CTR,R15             MOVE ENTRY ADDRESS
 0022A4 41F0 032E            0032E  9627    2224.              LA    R15,TIMEXIT-CT      OFFSET INTO CT AREA
 0022A8 1FAF                        9628    2225.              SLR   CTR,R15             RECOMPUTE BASE REGISTER
 0022AA 5810 A03C            0003C  9629    2226.              L     R1,TIMEECB              RETRIEVE ECB ADDRESS
 0022AE 1B00/4110 1000       00000  9630    2227.              POST  (R1)                    START GOING AGAIN
 0022B4 0A02                        9635             +
 0022B6 98EC D00C/07FE       0000C  9636    2228.              RETURN (14,12)                 AND RETURN TO OS
                                    9639    2229.     MOVETXIT EQU   TIMEXITX,*-TIMEXITX     GENERATE ADDRESS AND LENGTH
1VAMT     (VAMT02) (09:45) (22MAR04) VAM/370 - MILTEN COMMUNICATION ROUTINES                                                Page   98
0Current Usings:  (MTR,R6) (*,R7) (CT,R10) (VAMPATH,R11) (RQST,R12)
0Loc    Object Code    Addr1 Addr2  Stmt Lv Lineno    Source Statement           (Hibal 5, Asmedit 3.3)  HLASM R4.0  2004/03/22 09.45
+___    ______ ____    _____ _____  ____ __ ______    ______ _________
0                                   9641    2231.     *  RETURN DIRECTLY TO VS (DO NOT PASS GO..)
                                    9642    2232.     *
 0022BC 9029 D000/188D       00000  9643    2233.     VAMQUIT  VENTER SR,RAR,*,LOCAL
 0022C2 41D0 D020/0D70       00020  9647             +
 0022C8 1819                        9665    2234.              LR    R1,RAR
 DROP   *,R7
 USING  *,R7
 0022CA 5B10 715C            02424  9666    2235.              S     R1,=A(VAMT)
 0022CE 4110 71DD            024A5  9667    2236.              VWRITE ' - VAM QUITTING'
 0022D2 4100 000F            0000F  9672             +
 0022D6 5890 70BC/0D99       02384  9675             +
 0022DC 5890 70C4/0D99       0238C  9679             +
 0022E2 1B00                        9681    2237.              CLEAR R0                      CLOSE
 0022E4 0600                        9685    2238.              BCTR  R0,R0                    OUT
 0022E6 5890 70BC/0D99       02384  9686    2239.              VSEG  (1),(0)                   SYSKAPUT
 0022EC 5890 70C4/0D99       0238C  9703    2240.              VWRITE ,
 0022F2 4100 0004/0A3C       00004  9708    2241.              STAE  0                       CANCEL STAE
 0022F8 41F0 0008            00008  9712    2242.              LA    R15,8                   SET RETURN CODE
 0022FC 0A03                        9713    2243.              SVC   3                       AND JUMP RIGHT IN
                                    9714    2244.     *
                                    9715    2245.     *   THERE IS NO MORE
                                    9716    2246.     *
1VAMT     (VAMT02) (09:45) (22MAR04) VAM/370 - MILTEN COMMUNICATION ROUTINES                                                Page   99
0Current Usings:  (MTR,R6) (*,R7) (CT,R10) (VAMPATH,R11) (RQST,R12)
0Loc    Object Code    Addr1 Addr2  Stmt Lv Lineno    Source Statement           (Hibal 5, Asmedit 3.3)  HLASM R4.0  2004/03/22 09.45
+___    ______ ____    _____ _____  ____ __ ______    ______ _________
0                                   9718    2248.     *  CONSTANTS
                                    9719    2249.     *
 002300                             9720    2250.              LTORG
 002300 E5C1D4C2C1E3C3C8            9722                             =C'VAMBATCH'
 002308 E5C1D4D6D9E5E8D3            9723                             =C'VAMORVYL'
 002310 E5C1D4D7C1E3C840            9724                             =CL8'VAMPATH'
 002318 D4C9D3E3C5D54040            9725                             =CL8'MILTEN'
 002320 D7E5C6C540404040            9726                             =CL8'PVFE'
 002328 D5D640D9C5E2D7D6            9727                             =C'NO RESPONSE FROM MILTEN FOR FIVE MINUTES'
 002350 D6E5C1D440D9C5E2            9728                             =C'OVAM RESPONSE ERROR - OVAM, ORVYL OR WYLBUR DIED'
 002380 000010EA                    9729                             =A(BURY)
 002384 00000000                    9730                             =V(VSEG)
 002388 00000000                    9731                             =V(M1BTD)
 00238C 00000000                    9732                             =V(VWRITE)
 002390 FC000000                    9733                             =X'FC000000'
 002394 E5C1D4D7                    9734                             =C'VAMP'
 002398 00002000                    9735                             =A(8*1024)
 00239C 00007530                    9736                             =A(5*60*100)
 0023A0 D6E5C1D440C8C1E2            9737                             =C'OVAM HAS OPENED PATH'
 0023B4 00000000                    9738                             =V(TRACE)
 0023B8 E2D6D4C5D6D5C540            9739                             =C'SOMEONE (OVAM, ORVYL, WYLBUR OR MILTEN) DIED'
 0023E4 000022BC                    9740                             =A(VAMQUIT)
 0023E8 00000120                    9741                             =A((RQSTSIZE+16)/8*8)
 0023EC D6D9E5E8D340D5D6            9742                             =C'ORVYL NOT ACTIVE - WAITING 5 MINUTES'
 002410 407E6E40                    9743                             =C' => '
 002414 000000C8                    9744                             =A(2*100)
 002418 000001F4                    9745                             =A(5*100)
 00241C 00002EE0                    9746                             =A(2*60*100)
 002420 00001770                    9747                             =A(1*60*100)
 002424 00000000                    9748                             =A(VAMT)
 002428 00000000                    9749                             =V(M1BTX)
 00242C C5E7C9E3C9D5C740            9750                             =C'EXITING FROM VAM: '
 00243E 40C3C1D3D3E2                9751                             =C' CALLS'
 002444 000C                        9752                             =Y(RCSNDOVF)
 002446 0010                        9753                             =Y(RCNOPART)
 002448 D6D9E5E8D340E2E3            9754                             =C'ORVYL STILL NOT ACTIVE'
 00245E 4CC1E3E3D56E                9755                             =C'<ATTN>'
 002464 D3D6C7D6C6C640C3            9756                             =C'LOGOFF CLR'
 00246E E5C1D461D4C9D3E3            9757                             =C'VAM/MILTEN ERROR: '
 002480 4040                        9758                             =C'  '
 002482 0004                        9759                             =Y(4)
 002484 0001                        9760                             =Y(1)
 002486 E5C1D4                      9761                             =CL3'VAM'
 002489 D6E5C1                      9762                             =CL3'OVA'
 00248C C3C1D3D340D6E5C1            9763                             =C'CALL OVAM'
 002495 404DC9C440                  9764                             =C' (ID '
 00249A D4C9D3E3C5D540C4            9765                             =C'MILTEN DIED'
 0024A5 406040E5C1D440D8            9766                             =C' - VAM QUITTING'
1VAMT     (VAMT02) (09:45) (22MAR04) VAM/370 - MILTEN COMMUNICATION ROUTINES                                                Page  100
0Current Usings:  (MTR,R6) (*,R7) (CT,R10) (VAMPATH,R11) (RQST,R12)
0Loc    Object Code    Addr1 Addr2  Stmt Lv Lineno    Source Statement           (Hibal 5, Asmedit 3.3)  HLASM R4.0  2004/03/22 09.45
+___    ______ ____    _____ _____  ____ __ ______    ______ _________
0                                   9771    2252.     *  ADD SEGMENT TO OUTPUT BUFFER
                                    9772    2253.     *
 0024B4 9009 D000/188D       00000  9773    2254.     VSEG     VENTER R0,RAR,*
 0024BA 41D0 D028/0D70       00028  9778             +
 0024C0 1230/4720 700A       024CA  9796    2255.              IF    ('LTR  TR,R0',NP),'MVI  PRYNBUF,X"FF"'
 DROP   *,R7
 USING  *,R7
 0024C6 92FF A1F8      001F8        9810             +
 0024CA 700E           024CA 024C4  9815    2256.              ELSE  BEGIN
 0024CA 47F0 703C            024FC  9820             +
 0024CE 4120 0085            00085  9826  1 2257.                LA    SR,PRYNBUFL             COMPUTE REMAINING LENGTH
 0024D2 4B20 A1F8            001F8  9827  1 2258.                SH    SR,PRYNBUF
 0024D6 47D0 703C            024FC  9828  1 2259.                IF    NP,EXIT
 0024DA 1B23                        9842  1 2260.                SR    SR,TR
 0024DC 47B0 7024            024E4  9843  1 2261.                IF    M,BEGIN
 0024E0 1A32                        9854  2 2262.                  AR    TR,SR
 0024E2 1B22                        9855  2 2263.                  CLEAR SR
 0024E4                             9859  1 2264.                END   ,
 0024E4 4150 A1FC            001FC  9863  1 2265.                LA    RR,PRYNBUF+4            COMPUT MOVE ADDR
 0024E8 4A50 A1F8            001F8  9864  1 2266.                AH    RR,PRYNBUF
 0024EC 0630/4430 710C       025CC  9865  1 2267.                DEX   TR,'MVC  @RR(0),@R1'    MOVE SEG TO BUFFER
 0025CB 00                                2          +
 0025CC D200 5000 1000 00000 00000  9876  1          +
 0024F2 4130 0085            00085  9884  1 2268.                LA    TR,PRYNBUFL             COMPUTE NEW LENGTH
 0024F6 1B32                        9885  1 2269.                SR    TR,SR
 0024F8 4030 A1F8            001F8  9886  1 2270.                STH   TR,PRYNBUF
 0024FC                             9887    2271.              END   ,
 0024FC 18D8/9809 D000       00000  9891    2272.              VEXIT R0,RAR
 002502 07F9                        9895             +
1VAMT     (VAMT02) (09:45) (22MAR04) VAM/370 - MILTEN COMMUNICATION ROUTINES                                                Page  101
0Current Usings:  (MTR,R6) (*,R7) (CT,R10) (VAMPATH,R11) (RQST,R12)
0Loc    Object Code    Addr1 Addr2  Stmt Lv Lineno    Source Statement           (Hibal 5, Asmedit 3.3)  HLASM R4.0  2004/03/22 09.45
+___    ______ ____    _____ _____  ____ __ ______    ______ _________
0                                   9897    2274.     *  PRINT THE BUFFER
                                    9898    2275.     *
 002504 9029 D000/188D       00000  9899    2276.     VWRITE   VENTER SR,RAR,*
 00250A 41D0 D020/0D70       00020  9904             +
 002510 4820 A1F8            001F8  9922    2277.              LH    SR,PRYNBUF              LEN OF OUTPUT LINE
 DROP   *,R7
 USING  *,R7
 002514 1222/4720 701E       0252E  9923    2278.              IF    (SR,NP),BEGIN
 00251A 9140 A32C      0032C        9937  1 2279.                IF    ~CTKAPUT,EXIT           DONE IF NO SYSKAPUT
 00251E 47E0 701E            0252E  9949  1          +
 002522 0700/4510 701C       0252C  9955  1 2280.                CLOSE (PRYNTER,),TYPE=T       CLEAR BUFFERS
 002528 80/0025D4/0A17              9958  1          +
 00252E 7022           0252E 02518  9961    2281.              END   ELSE,BEGIN
 00252E 47F0 7080            02590  9970             +
 002532 4120 2004            00004  9976  1 2282.                LA    SR,@SR+4                INCREMENT LENGTH
 002536 4110 70C4            025D4  9977  1 2283.                LA    R1,PRYNTER              DCB
 00253A 4920 1052            00052  9978  1 2284.                WITH  (IHADCB,R1),'CEIL  SR,DCBLRECL'    CHECK RECORD SIZE
 USING  IHADCB,R1
 00253E 47D0 7036            02546  9997  2          +
 002542 4820 1052            00052  9998  1          +
 DROP   IHADCB,R1
 002546 4020 A1F8            001F8 10007  1 2285.                STH   SR,PRYNBUF               FOR RDW
 00254A 9140 A32C      0032C       10008  1 2286.                IF    ~CTKAPUT,BEGIN          WRITE HASP LOG IF NO SYSKAPUT
 00254E 4710 706C            0257C 10018  1          +
 002552 4100 000D            0000D 10023  2 2287.                  HASPSERV WTL,PRYNBUF          LOG THE MESSAGE
 002556 4110 A1F8/1BFF       001F8 10037  2          +
 00255C 0AFE                       10042  2          +
 00255E 12FF/4780 706C       0257C 10043  2 2288.                  IF    (R15,NZ),BEGIN
 002564 92A0 A1FA      001FA       10057  3 2289.                    MVI   PRYNBUF+2,X'A0'         SET HARDCOPY ONLY
 002568 4810 A1F8            001F8 10058  3 2290.                    LH    R1,PRYNBUF
 00256C 4111 A1F8            001F8 10059  3 2291.                    LA    R1,PRYNBUF(R1)          END OF MESSAGE
 002570 D203 1000 70B0 00000 025C0 10060  3 2292.                    MVC   @R1(4),=X'04000020'     SET DESC=4, ROUT=11
 002576 4110 A1F8/0A23       001F8 10061  3 2293.                    WTO   MF=(E,PRYNBUF)
 00257C                            10065  2 2294.                  END   ,
 00257C 7070           0257C 02550 10069  1 2295.                END   ELSE,BEGIN              WRITE TO SYSOUT
 00257C 47F0 7080            02590 10078  1          +
 002580 4110 70C4            025D4 10084  2 2296.                  PUT   PRYNTER,PRYNBUF         WRITE THE BUFFER
 002584 4100 A1F8/1FFF       001F8 10087  2          +
 00258A BFF7 1031/05EF       00031 10089  2          +
 002590                            10091  1 2297.                END   ,
 002590                            10095    2298.              END   ,
 002590 D204 A1F8 70B6 001F8 025C6 10099    2299.              MVC   PRYNBUF(5),=X'0001000040' RESET BUFFER CONTROL
 002596 D283 A1FD A1FC 001FD 001FC 10100    2300.              MVC   PRYNBUF+5(PRYNBUFL-1),PRYNBUF+4
 00259C 18D8/9829 D000       00000 10101    2301.              VEXIT SR,RAR
 0025A2 07F9                       10105             +
-
-DROP   RQST,R12                   10107    2303.              DROP  ,
 DROP   VAMPATH,R11
 DROP   CT,R10
 DROP   *,R7
1VAMT     (VAMT02) (09:45) (22MAR04) VAM/370 - MILTEN COMMUNICATION ROUTINES                                                Page  102
0Loc    Object Code    Addr1 Addr2  Stmt Lv Lineno    Source Statement           (Hibal 5, Asmedit 3.3)  HLASM R4.0  2004/03/22 09.45
+___    ______ ____    _____ _____  ____ __ ______    ______ _________
0DROP   MTR,R6
1VAMT     (VAMT02) (09:45) (22MAR04) VAM/370 - MILTEN COMMUNICATION ROUTINES                                                Page  103
0Loc    Object Code    Addr1 Addr2  Stmt Lv Lineno    Source Statement           (Hibal 5, Asmedit 3.3)  HLASM R4.0  2004/03/22 09.45
+___    ______ ____    _____ _____  ____ __ ______    ______ _________
0                                  10156    2305.     *
                                   10157    2306.     *  CHECK SYSKAPUT DCB
                                   10158    2307.     *
 0025A4                            10159    2308.     CHKAPUT  LABEL ,
 USING  *,R15                      10161    2309.              USING *,R15                   ##
 USING  IHADCB,R1                  10171    2310.              USING IHADCB,R1               ##
 0025A4 4800 103E            0003E 10180    2311.              LH    R0,DCBBLKSI             WAS BLOCK SIZE SPECIFIED?
 0025A8 1200/4770 F016       025BA 10181    2312.              IF    (R0,Z),BEGIN            NO
 0025AE 4800 1052            00052 10195  1 2313.                LH    R0,DCBLRECL             GET LRECL
 0025B2 4A00 F020            025C4 10196  1 2314.                AH    R0,=Y(4)                ADD IN BDW
 0025B6 4000 103E            0003E 10197  1 2315.                STH   R0,DCBBLKSI             AND SET
 0025BA                            10198    2316.              END   ,
 0025BA 07FE                       10202    2317.              BR    R14
-DROP   IHADCB,R1                  10204    2319.              DROP  R1,R15                  ##
 DROP   *,R15
1VAMT     (VAMT02) (09:45) (22MAR04) VAM/370 - MILTEN COMMUNICATION ROUTINES                                                Page  104
0Loc    Object Code    Addr1 Addr2  Stmt Lv Lineno    Source Statement           (Hibal 5, Asmedit 3.3)  HLASM R4.0  2004/03/22 09.45
+___    ______ ____    _____ _____  ____ __ ______    ______ _________
0                                  10218    2321.     *  CONSTANTS
                                   10219    2322.     *
 0025BC                            10220    2323.              DS    0F
 0025BC 850025A4                   10221    2324.     DCBEXIT  DC    X'85',AL3(CHKAPUT)
 0025C0                            10222    2325.              LTORG
 0025C0 04000020                   10224                             =X'04000020'
 0025C4 0004                       10225                             =Y(4)
 0025C6 0001000040     025D2 02638 10226                             =X'0001000040'
1VAMT     (VAMT02) (09:45) (22MAR04) VAM/370 - MILTEN COMMUNICATION ROUTINES                                                Page  105
0Loc    Object Code    Addr1 Addr2  Stmt Lv Lineno    Source Statement           (Hibal 5, Asmedit 3.3)  HLASM R4.0  2004/03/22 09.45
+___    ______ ____    _____ _____  ____ __ ______    ______ _________
0                                  10232    2328.   C PRYNTER  DCB   DDNAME=SYSKAPUT,MACRF=(PM),DSORG=PS,LRECL=PRYNBUFL+4,
                                            2329.                    RECFM=VBA,EXLST=DCBEXIT
0                                  10235             +*                       DATA CONTROL BLOCK
                                   10236             +*
 0025D2 0000                                         +
 0025D4                            10237    01-DCB   +PRYNTER  DC    0F'0'          ORIGIN ON WORD BOUNDARY
                                   10238             +*                       DIRECT ACCESS DEVICE INTERFACE
 0025D4 0000000000000000           10239    01-DCB   +         DC    BL16'0'        FDAD, DVTBL
 0025E4 00000000                   10240    01-DCB   +         DC    A(0)           KEYLEN, DEVT, TRBAL
                                   10241             +*                       COMMON ACCESS METHOD INTERFACE
 0025E8 00                         10242    01-DCB   +         DC    AL1(0)         BUFNO, NUMBER OF BUFFERS
 0025E9 000001                     10243    01-DCB   +         DC    AL3(1)         BUFCB, BUFFER POOL CONTROL BLOCK
 0025EC 0000                       10244    01-DCB   +         DC    AL2(0)         BUFL, BUFFER LENGTH
 0025EE 4000                       10245    01-DCB   +         DC    BL2'0100000000000000' DSORG, DATA SET ORGANIZATION
 0025F0 00000001                   10246    01-DCB   +         DC    A(1)           IOBAD FOR EXCP OR RESERVED
                                   10247             +*                       FOUNDATION EXTENSION
 0025F4 00                         10248    01-DCB   +         DC    BL1'00000000'  BFTEK, BFALN, DCBE INDICATORS
 0025F5 000001                     10249    01-DCB   +         DC    AL3(1)         EODAD (END OF DATA ROUTINE ADDRESS)
 0025F8 54                         10250    01-DCB   +         DC    BL1'01010100'  RECFM (RECORD FORMAT)
 0025F9 0025BC                     10251    01-DCB   +         DC    AL3(DCBEXIT)   EXLST (EXIT LIST ADDRESS)
                                   10252             +*                       FOUNDATION BLOCK
 0025FC E2E8E2D2C1D7E4E3           10253    01-DCB   +         DC    CL8'SYSKAPUT'  DDNAME
 002604 02                         10254    01-DCB   +         DC    BL1'00000010'  OFLGS (OPEN FLAGS)
 002605 00                         10255    01-DCB   +         DC    BL1'00000000'  IFLGS (IOS FLAGS)
 002606 0050                       10256    01-DCB   +         DC    BL2'0000000001010000' MACR (MACRO FORMAT)
                                   10257             +*                       BSAM-BPAM-QSAM INTERFACE
 002608 00                         10258    01-DCB   +         DC    BL1'00000000'  OPTCD, OPTION CODES
 002609 000001                     10259    01-DCB   +         DC    AL3(1)         CHECK OR INTERNAL QSAM SYNCHRONIZING RTN.
 00260C 00000001                   10260    01-DCB   +         DC    A(1)           SYNAD, SYNCHRONOUS ERROR RTN. (3 BYTES)
 002610 0000                       10261    01-DCB   +         DC    H'0'           INTERNAL ACCESS METHOD FLAGS
 002612 0000                       10262    01-DCB   +         DC    AL2(0)         BLKSIZE, BLOCK SIZE
 002614 00000000                   10263    01-DCB   +         DC    F'0'           INTERNAL ACCESS METHOD FLAGS
 002618 00000001                   10264    01-DCB   +         DC    A(1)           INTERNAL ACCESS METHOD USE
                                   10265             +*                            QSAM INTERFACE
 00261C 00000001                   10266    01-DCB   +         DC    A(1)           EOBAD
 002620 00000001                   10267    01-DCB   +         DC    A(1)           RECAD
 002624 0000                       10268    01-DCB   +         DC    H'0'           QSWS (FLAGS) AND EITHER DIRCT OR BUFOFF
 002626 0089                       10269    01-DCB  C+         DC    AL2(PRYNBUFL+4)
                                                     +                              LRECL
 002628 00                         10270    01-DCB   +         DC    BL1'00000000'  EROPT, ERROR OPTION
 002629 000001                     10271    01-DCB   +         DC    AL3(1)         CNTRL
 00262C 00000000                   10272    01-DCB   +         DC    H'0,0'         RESERVED AND PRECL
 002630 00000001                   10273    01-DCB   +         DC    A(1)           EOB, INTERNAL ACCESS METHOD FIELD
 002638                02638 02638 10275    2331.              END   .

1VAMT     (VAMT02) (09:45) (22MAR04) Ordinary Symbol and Literal Cross Reference                                            Page  106
-Symbol   Length   Value     Id    R Type   Defn References                                  HLASM R4.0  2004/03/22 09.45
0$$$@R10       1 00000000 FFFFFFF4     J     860  1168
 $$$@R11       1 00000000 FFFFFFF3     J     873  1181   1193
 $$$@R12       1 00000000 FFFFFFF2     J     886  1206   1218
 $$$@R2        1 00000000 FFFFFFFC     J     756  1052
 $$$@R3        1 00000000 FFFFFFFB     J     769  1065
 $$$@R4        1 00000000 FFFFFFFA     J     782  1078
 $$$@R5        1 00000000 FFFFFFF9     J     795  1091
 $$$@R6        1 00000000 FFFFFFF8     J     808  1104   1116
 $$$@R7        1 00000000 FFFFFFF7     J     821  1129
 $$$@R8        1 00000000 FFFFFFF6     J     834  1142
 $$$@R9        1 00000000 FFFFFFF5     J     847  1155
 $$$C1VAMT
               1 00000E66 00000001     J    5727  5729
 $$$C2VAMT
               1 00001797 00000001     J    7542  7544
 $$$C3VAMT
               1 000024B4 00000001     J    9767  9769   9882
 $$$C4VAMT
               1 000025D2 00000001     J   10227 10229
 $$$C5VAMT
               1 00002638 00000001     J   10278 10280
 $$$D0VAMT
               1 00000E59 00000001     J    1021  3395   5165
 $$$D3VAMT
               1 000025CB 00000001     J    9768  9871
 $$$RCT        1 00000000 FFFFFFED     J    1403  1534   1534
 $$$RMTR       1 00000000 FFFFFFEC     J    1540  1577   1577
 $$$RVAMINFO
               1 00000000 FFFFFFEA     J    1658  1688   1688
 $$$RVDT       1 00000000 FFFFFFEE     J    1284  1395   1395
 $$$0B         1 00000018 00000001     X    2565  2572U
 $$$100E       2 00001954 00000001     H    7986  7980
 $$$100F       2 00001966 00000001     H    7994  7982B
 $$$101B       1 00001A2A 00000001     X    8108  8118U
 $$$104F       2 00001B12 00000001     H    8254  8237B
 $$$11         6 00000E5A 00000001     I    3401  3393X
 $$$110B       1 00001C74 00000001     X    8470  8480U
 $$$111B       1 00001CFE 00000001     X    8569  8579U
 $$$115F       2 00001E86 00000001     H    8801  8789B
 $$$117B       1 00001EEC 00000001     X    8871  8881U
 $$$12         6 00000E5A 00000001     I    3400  3401   3401
 $$$120B       1 00001F9C 00000001     X    9002  9012U
 $$$124B       1 00002096 00000001     X    9165  9175U
 $$$127B       1 0000212C 00000001     X    9289  9299U
 $$$130B       1 000021DC 00000001     X    9471  9481U
 $$$131B       1 00002268 00000001     X    9578  9588U
 $$$132B       1 000022C8 00000001     X    9653  9663U
 $$$133B       1 000024C0 00000001     X    9784  9794U
 $$$134B       4 000024C2 00000001     I    9804  9817
 $$$134F       2 000024CA 00000001     H    9814  9804B  9816
 $$$135E       2 000024CE 00000001     H    9824  9818
 $$$135F       2 000024FC 00000001     H    9890  9820B  9836B
 $$$137F       2 000024E4 00000001     H    9862  9849B
 $$$138        6 000025CC 00000001     I    9877  9869X
 $$$139        6 000025CC 00000001     I    9876  9877   9877
1VAMT     (VAMT02) (09:45) (22MAR04) Ordinary Symbol and Literal Cross Reference                                            Page  107
 $$$140B       1 00002510 00000001     X    9910  9920U
 $$$141B       4 00002516 00000001     I    9932  9967
 $$$141F       2 0000252E 00000001     H    9964  9932B  9949B  9966
 $$$143E       2 00002532 00000001     H    9974  9968
 $$$143F       2 00002590 00000001     H   10098  9970B
 $$$144B       4 0000254E 00000001     I   10018 10075
 $$$144F       2 0000257C 00000001     H   10072 10018B 10074
 $$$145F       2 0000257C 00000001     H   10068 10052B
 $$$146E       2 00002580 00000001     H   10082 10076
 $$$146F       2 00002590 00000001     H   10094 10078B
 $$$147B       1 000025A4 00000001     X   10162 10169U
 $$$148F       2 000025BA 00000001     H   10201 10190B
 $$$20F        2 000005CA 00000001     H    3801  3791B
 $$$29F        2 000007C2 00000001     H    4201  4192B
 $$$51F        2 00000AC2 00000001     H    4939  4908B
 $$$52F        2 00000ABA 00000001     H    4933  4923B
 $$$53F        2 00000AE8 00000001     H    4971  4953B
 $$$60         6 00000E60 00000001     I    5171  5163X
 $$$61         6 00000E60 00000001     I    5170  5171   5171
 $$$69B        1 00000E68 00000001     X    5750  5760U
 $$$70F        2 00000EEA 00000001     H    5885  5826B  5870B
 $$$72F        2 00000F0C 00000001     H    5936  5918B
 $$$73F        2 00000F32 00000001     H    5982  5964B
 $$$74F        2 00000F6A 00000001     H    6034  6016B
 $$$77B        1 0000105E 00000001     X    6294  6301U
 $$$78B        4 00001062 00000001     I    6310  6323
 $$$78F        2 00001068 00000001     H    6320  6310B  6322
 $$$79E        2 0000106C 00000001     H    6330  6324
 $$$79F        2 00001070 00000001     H    6337  6326B
 $$$80F        2 0000107C 00000001     H    6371  6357B
 $$$81B        4 00001088 00000001     I    6384  6437
 $$$81F        2 000010DE 00000001     H    6434  6384B  6436
 $$$82F        2 000010DA 00000001     H    6429  6419B
 $$$83E        2 000010E2 00000001     H    6444  6438
 $$$83F        2 000010EA 00000001     H    6451  6440B
 $$$84B        1 000010EC 00000001     X    6474  6481U
 $$$86B        4 0000131C 00000001     I    7042  7059
 $$$86F        2 00001328 00000001     H    7056  7042B  7058
 $$$87E        2 0000132C 00000001     H    7066  7060
 $$$87F        2 00001332 00000001     H    7076  7062B
 $$$88F        2 000013AA 00000001     H    7166  7156B
 $$$89B        1 00001424 00000001     X    7287  7297U
 $$$90B        1 0000179E 00000001     X    7556  7566U
 $$$91F        2 0000180E 00000001     H    7631  7618B
 $$$92B        1 0000182A 00000001     X    7662  7672U
 $$$93B        1 00001898 00000001     X    7803  7813U
 $$$94B        1 000018B4 00000001     X    7854  7864U
 $$$95F        2 000018E0 00000001     H    7899  7884B
 $$$97B        4 000018EC 00000001     I    7912  7979
 $$$97F        2 00001950 00000001     H    7976  7912B  7978
 $$$98B        4 00001912 00000001     I    7933  7945
 $$$98F        2 0000191C 00000001     H    7942  7933B  7944
 $$$99E        2 00001920 00000001     H    7952  7946
 $$$99F        2 00001950 00000001     H    7972  7948B
 @QR           0 00000000 FFFFFFFA     @    1079  6954   6956   6957   6959   6960   6962   6964
 @RAR          0 00000000 FFFFFFF5     @    1156  7596   7599
 @RR           0 00000000 FFFFFFF9     @    1092  9876M
 @R0           0 00000000 FFFFFFFE     @     731  1007U
 @R1           0 00000000 FFFFFFFD     @     744  1003U  2868M  4197   4338   4392   4419   4572   5008M  5170   5805
1VAMT     (VAMT02) (09:45) (22MAR04) Ordinary Symbol and Literal Cross Reference                                            Page  108
                                                  5860U  6237U  6333   6390   6391   6394   7091U  7095   7147   7148
                                                  9535   9876  10005U 10060M 10209U
 @R10          0 00000000 FFFFFFF4     @     861   967U  6264U 10127U
 @R11          0 00000000 FFFFFFF3     @     874   963U  5675U 10122U
 @R12          0 00000000 FFFFFFF2     @     887   959U  5681U  8553U 10117U
 @R13          0 00000000 FFFFFFF1     @     900   955U  3706M  3710M  3743   3744   5323M  5326M  5343   5344
 @R14          0 00000000 FFFFFFF0     @     913   951U  3456   4119   4243   4294   4457   4460
 @R15          0 00000000 FFFFFFEF     @     926   947U  3400   4114   6463U 10215U
 @R2           0 00000000 FFFFFFFC     @     757   999U  2880U  6083U  7586U  7798U
 @R3           0 00000000 FFFFFFFB     @     770   995U
 @R4           0 00000000 FFFFFFFA     @     783   991U  2681U  2789U  6135U  6457U  7646U
 @R5           0 00000000 FFFFFFF9     @     796   987U  9456U
 @R6           0 00000000 FFFFFFF8     @     809   983U  6216U 10141U
 @R7           0 00000000 FFFFFFF7     @     822   979U  5757U  6273U  7294U  7563U  7669U  7810U  7861U  8115U  8477U
                                                  8576U  8878U  9009U  9172U  9296U  9478U  9585U  9660U  9791U  9917U
                                                 10136U
 @R8           0 00000000 FFFFFFF6     @     835   975U
 @R9           0 00000000 FFFFFFF5     @     848   971U
 @SR           0 00000000 FFFFFFFC     @    1053  2617   6692   6743   6787   6866   6908   7080   7090   7101   7125
                                                  7146   7175   7199   7223   7247   7272   7354   7359   7383   7388
                                                  8236   8248M  8248   8266   9976
 @TR           0 00000000 FFFFFFFB     @    1066  5773   6103   6408M  6409M  6410M  6411   6909   7081   7306   7308
                                                  7340   7360   7369   7389   7452   7579M  7587M  7589M  7590   7604M
                                                  7607
 ABEND         2 00000110 00000001     H    2764  2750B  2755B  2760B  2828B  5567B
 ACCGRP        2 0000075C 00000001     H    4085  4048B
 ACCPUB        2 0000078E 00000001     H    4126  4049B
 ATBADRET      4 00000278 00000001     I    3029  2947B
 ATCHCOMM      4 00000206 00000001     I    2932  2919B
 ATCHMVC       6 00000272 00000001     I    3025  2924X  4538X  4887X
 ATCHTERM      2 0000028E 00000001     I    3040  2909B
 ATNOID        4 00000286 00000001     I    3033  3031B
 ATVDTOK       2 0000023E 00000001     H    2985  2968B
 BADLEN        2 00001CDC 00000001     H    8535  8505B
 BADSEND       4 00001BEC 00000001     I    8398  8369B
 BADSTAE       2 0000104E 00000001     H    6241  6162B
 BR            7 00000007 00000001 A   #    1123  7600M  7801M  7813U
 BURY          2 000010EA 00000001     I    6471  9729
 CALLORV       2 00001E36 00000001     H    8745  8662B  8694B
 CHKAPUT       2 000025A4 00000001     H   10160 10221
 CLOSMIL       4 00001F90 00000001     I    8994  7743B
 CLWTEMP       8 00000108 FFFFFFED     U    1437  6578   6637   6706   6757   6829   6880   7703   9414
 CMDEND        1 00000080 FFFFFFE8 A   U    1842  8167   8180   8287   8317   9188   9310
 CMDFREEX      1 00000007 FFFFFFE8 A   U    1824  8317
 CMDPART       1 0000000B FFFFFFE8 A   U    1835  1838
 CMDRETL       1 00000004 FFFFFFE8 A   U    1815  8287
 CMDRETX       1 00000006 FFFFFFE8 A   U    1821  9310
 CMDSNDD       1 00000002 FFFFFFE8 A   U    1809  8163   8180
 CMDSNDX       1 00000001 FFFFFFE8 A   U    1806  9188
 CMEXIT        2 00002056 00000001     I    9127  9016B  9058B  9105B  9122B
 CMLOOP        4 0000202A 00000001     I    9103  9123B
 CMRETRY       2 00001FF4 00000001     H    9065  9109B
 COAGAIN       4 00001E8A 00000001     I    8805  8844B
 CONVHYBR      2 00000364 00000001     H    3164  3140B
 CPLBIA        1 00000020 FFFFFFE6 A   U    2013  9049
 CREATR        2 00000364 00000001     H    3154  3115B
 CRTHYBR       2 000008EC 00000001     H    4479  4055B
 CRTNIXR       2 000008EC 00000001     H    4478  4054B
 CT        20784 00000000 FFFFFFED     J    1534  1242U  1496   6345U  7460   7507   7515   7517   9627
1VAMT     (VAMT02) (09:45) (22MAR04) Ordinary Symbol and Literal Cross Reference                                            Page  109
 CT$           1 00000312 FFFFFFED     C    1455  5984M
 CTBGPRS       4 000000B0 FFFFFFED     F    1428  6394M  6409   6410   7605M  7606M
 CTBPSW        8 000000A8 FFFFFFED     D    1427  6390M  6393M  6396M  6408   6447M  6676   7607M
 CTBSTAE       4 000000F0 FFFFFFED     A    1429  6389M  7034
 CTCORE        4 00000020 FFFFFFED     A    1410  5790M  7866   7871M  8581   8586M
 CTERMID       3 00000317 FFFFFFED     C    1457  6039M
 CTFLAGS       1 0000032C FFFFFFED     R    1464  1468   1473   1478   1483
 CTGRP         2 00000313 FFFFFFED     C    1456  5985M  7920
 CTID          4 00000000 FFFFFFED     C    1409  5792M  5793M  5793
 CTINFOP       4 00000024 FFFFFFED     A    1411  2592M  2772   2849   5791M  7775
 CTJOBNAM      8 000001F0 FFFFFFED     C    1446  5937M  6542   8123
 CTKAPUT      64 0000032C FFFFFFED         1473  5881M  6500   7617   9946  10017
 CTMECB        4 00000044 FFFFFFED     A    1419  8225   8588M  8595M
 CTNVDTS       1 000000DC FFFFFFED A   N    1431  1527   5722   6091
 CTPATHB       4 0000002C FFFFFFED     A    1413  7867M  8120   8482
 CTPATHM       4 00000030 FFFFFFED     A    1414  8582M  8883   9014
 CTPECB        4 00000040 FFFFFFED     A    1418  7873M  7895M  8222   8255
 CTPRIVAM    128 0000032C FFFFFFED         1468  6204M  7911
 CTPRIVS       2 0000032A FFFFFFED     C    1460  5986M  8125
 CTPROMPT      8 00000108 FFFFFFED     U    1438  9535M
 CTR          10 0000000A 00000001 A   #    1162  1242U  1495M  1497M  2584M  5780M  5781   6061   6089   6148   6316M
                                                  6333M  6345U  6992   7598M  7598   9626M  9628M
 CTRQST        4 00000034 FFFFFFED     A    1415  8584M  8929   9040
 CTSVA         4 0000034C FFFFFFED     F    1509  2585   5794
 CTSVCCNT      4 00000048 FFFFFFED     F    1420  2614   2615M  6564   7689
 CTTEMP        8 00000108 FFFFFFED     D    1436  1437   1438   5539   5815   5903   5937   5949   5983   5985   5986
                                                  6001   6035M  6038   6171   8006M  8007M  8013   8612M  8613M  8619
                                                  8735
 CTTRACE       4 00000060 FFFFFFED     A    1423  6062M  6397   6953   7568
 CTTRP         4 00000050 FFFFFFED     F    1422  2837M  2838M  2839M  2840M  2841M  2898M  2976M  3090M  3556M  3657M
                                                  3824M  3875M  4008M  4657M  4706M  4848M  4863M  4961M  5274M  5634M
                                                  7589   8048M  8072M  8082M  8185M  8186M  8187M  8391M  8402M  8414M
                                                  8424M  8434M  8536M  8723M  8724M  8734M  8735M  9134M  9145M  9269M
 CTTRSAVE      4 00000064 FFFFFFED     F    1425  7550M  7598   7600   7606
 CTTRSAV9      4 000000A4 FFFFFFED     F    1426  2842M  2848   2899M  2905   2977M  3091M  3097   3557M  3563   3658M
                                                  3664   3825M  3831   3876M  3882   4009M  4015   4658M  4707M  4713
                                                  4849M  4864M  4870   4962M  5275M  5281   5635M  8049M  8055   8073M
                                                  8083M  8188M  8194   8392M  8403M  8415M  8425M  8435M  8537M  8725M
                                                  8736M  9135M  9146M  9270M
 CTTRTYP       1 0000032D FFFFFFED     X    1487  2896M  3088M  3554M  3655M  3822M  3873M  4006M  4704M  4861M  5272M
                                                  7585   7588M
 CTUINFO      27 0000030F FFFFFFED     U    1459  5008   5008
 CTUNAME      16 0000031A FFFFFFED     C    1458  6036M  6037   6037M  6037   6038M  7938   8795
 CTUSER        3 0000030F FFFFFFED     C    1454  1459   1459   5983M  7919   8124
 CTVAMACT     32 0000032C FFFFFFED         1478  2591M  2771M  2856M  5800M  6356
 CTVCHEAD      4 00000028 FFFFFFED     A    1412  2593   7869M
 CTVDTS        4 000000F4 FFFFFFED     A    1430  3042   5663   6090M  6106
 CTVIRT       16 0000032C FFFFFFED         1483  6195M  7883   7932   8788
 CTXACTS       4 0000004C FFFFFFED     F    1421  6623   8061   8062M
 DCBBIT0       1 00000080 FFFFFFE5 A   U    2029  2117   2125   2139   2161   2203   2205   2206   2208   2228   2231
                                                  2253   2257   2272   2309   2365   2385   2423   2427   2446   2529
 DCBBIT1       1 00000040 FFFFFFE5 A   U    2030  2118   2126   2141   2170   2171   2180   2186   2203   2205   2207
                                                  2208   2233   2253   2255   2257   2275   2276   2277   2312   2313
                                                  2365   2387   2429   2431   2449   2494   2530
 DCBBIT2       1 00000020 FFFFFFE5 A   U    2031  2119   2127   2142   2143   2144   2170   2171   2175   2181   2186
                                                  2203   2204   2209   2235   2258   2259   2280   2281   2282   2316
                                                  2317   2366   2392   2432   2454   2497   2500   2531
 DCBBIT3       1 00000010 FFFFFFE5 A   U    2032  2120   2142   2144   2145   2170   2183   2210   2238   2258   2261
                                                  2284   2285   2286   2320   2321   2366   2394   2396   2398   2434
1VAMT     (VAMT02) (09:45) (22MAR04) Ordinary Symbol and Literal Cross Reference                                            Page  110
                                                  2455   2497   2501
 DCBBIT4       1 00000008 FFFFFFE5 A   U    2033  2128   2184   2185   2186   2211   2239   2263   2268   2269   2289
                                                  2290   2324   2325   2327   2328   2367   2401   2436   2456   2497
                                                  2502
 DCBBIT5       1 00000004 FFFFFFE5 A   U    2034  2129   2191   2214   2215   2241   2263   2265   2266   2269   2293
                                                  2295   2296   2297   2331   2332   2333   2334   2367   2403   2406
                                                  2439   2458   2492
 DCBBIT6       1 00000002 FFFFFFE5 A   U    2035  2121   2193   2194   2197   2214   2216   2242   2300   2301   2302
                                                  2303   2337   2338   2339   2340   2368   2409   2441   2460   2503
 DCBBIT7       1 00000001 FFFFFFE5 A   U    2036  2122   2193   2195   2197   2218   2247   2305   2306   2343   2344
                                                  2346   2347   2412   2442   2443   2461   2505   2532
 DCBBLKSI      2 0000003E FFFFFFE5     H    2463 10180  10197M
 DCBDCBE       4 00000000 FFFFFFE5     A    2044  2048
 DCBEXIT       1 000025BC 00000001     X   10221 10251
 DCBFDAD       8 00000005 FFFFFFE5     C    2060  2062
 DCBLRECL      2 00000052 FFFFFFE5     H    2526  9996   9998  10195
 DCBOFIOF      1 00000001 FFFFFFE5 A   U    2247  2249
 DCBOFLGS      1 00000030 FFFFFFE5     B    2227  5853
 DCBOFOPN      1 00000010 FFFFFFE5 A   U    2238  5853
 DCBOFUEX      1 00000002 FFFFFFE5 A   U    2242  2246
 DELETR        2 00000364 00000001     H    3155  3116B
 DELFILFD      2 000008F2 00000001     H    4501  4063B
 DELGRP        2 00000894 00000001     H    4400  4058B
 DELTRS        2 00000388 00000001     H    3228  3117B
 DEQUEUE       2 00000BA0 00000001     H    5210  5106B
 DUMPADD       4 000001C8 FFFFFFED     A    1441  7300M  7314   7421   7422M  7448   7449M
 DUMPBUF     133 0000028A FFFFFFED     C    1452  6509M  6510   6510M  6510   6511M  6512M  7328   7333   7362   7391M
                                                  7392M
 DUMPEND       4 000001CC FFFFFFED     A    1442  7302M  7423   7450
 EASYMOVE      2 00001CC2 00000001     I    8520  8485B
 EBCDIC        2 0000158C 00000001     H    7472  7392
 ENQUEUE       2 00000B66 00000001     H    5116  5086B
 FFILCD        4 000002FC 00000001     I    3115  5705
 FMILASYN      1 00000050 FFFFFFE6 A   U    1941  9048
 FMILERR       1 00000024 FFFFFFE6 A   U    1931  9325
 FMILREAD      1 00000042 FFFFFFE6 A   U    1938  8642   8666   9061   9108   9485   9533
 FMILWRIT      1 00000041 FFFFFFE6 A   U    1937  8806   8932
 FREERR        2 00001C28 00000001     H    8423  8347B
 FSTATUS       2 0000070C 00000001     H    4047  4072   4073
 GANOUSE       4 00000446 00000001     I    3459  3455B
 GETVDT        2 00000D82 00000001     H    5650  2955B  4636B  4715B  4942B  5577B
 GPRLOOP       2 00001220 00000001     I    6815  6911B
 GPRS          4 00000010 FFFFFFEA     F    1668  1669   1672   2782   2873   6229   6230
 GRPACC        2 00000428 00000001     H    3425  3124B
 HIBAL         1 00000000 FFFFFFFF     J     716   732    745    758    771    784    797    810    823    836    849
                                                   862    875    888    901    914    927
 HISTATUS      2 00000013 00000001 A   U    4073  5714
 IHADCB        1 00000000 FFFFFFE5     J    2019  2099   2149   2224   2351   2356   2371   2380   2480   2483   2488
                                                  2513   2548   2549   5847U  9987U 10178U
 ILLCODE       2 00000132 00000001     H    2812  2668B  2670B  2675B  2807B
 IMCONFUS      2 00001E00 00000001     H    8722  8667B
 IMEXIT        2 00001DF4 00000001     H    8709  8663B  8695B
 IMINERR       2 00001E1A 00000001     H    8733  8626B
 IMLOOP        4 00001D84 00000001     I    8639  8655B
 IMMILOK       2 00001DA0 00000001     H    8659  8643B
 IMPOSERR      4 00001ECC 00000001     I    8848  8632B
 IMQUIT        4 00001EDA 00000001     I    8856  8705B
 INITCOMM      4 000018A8 00000001     I    7846  6206B
 INITERR       2 000019F2 00000001     H    8071  8020B
1VAMT     (VAMT02) (09:45) (22MAR04) Ordinary Symbol and Literal Cross Reference                                            Page  111
 INITMIL       4 00001CF2 00000001     I    8561  6197B
 IPOSTERR      2 00001A08 00000001     H    8081  8026B
 IPRIV         2 00001032 00000001     H    6200  6184B
 IVDTL         4 00000FCC 00000001     I    6102  6105B
 IXRTST        2 000000F8 00000001     U    4081  4069B
 KAPUT         2 000017EC 00000001     H    7603  7597B
 LHTR          4 000012BA 00000001     I    6959  6955B
 MCBAD         4 00001F7C 00000001     I    8979  8918B  8933B
 MCEXIT        2 00001F74 00000001     I    8973  8885B  8900B  8954B  8957B
 MCMIL         4 00001F54 00000001     I    8955  8928B
 MCOUT         2 00001F20 00000001     H    8921  8887B
 MGCLOSED      4 000021BE 00000001     I    9443  9343B
 MGEXIT        2 0000216C 00000001     I    9351  9330B
 MGICK         4 00002174 00000001     I    9357  9326B
 MGQUIT        4 000021B8 00000001     I    9438  9449B
 MILCHK        4 00001EE0 00000001     I    8863  8250B
 MILCONVX      2 00002074 00000001     H    9144  9062B
 MILGET        4 00002120 00000001     I    9281  8641B  8665B  8805B  8931B  9060B  9107B
 MILSEND       4 0000208A 00000001     I    9157  8639B  8803B  8837B  8952B  9055B  9103B
 MISSWAIT      4 00000100 00000001     I    2754  5608B
 MOVETXIT     30 0000229E 00000001     U    9639  5805   7509
 MSERR         4 000020EE 00000001     I    9250  9213B
 MSEXIT        2 000020E2 00000001     H    9238  9226B
 MSKAPUT       2 0000210A 00000001     H    9268  9251B
 MTR          92 00000000 FFFFFFEC     J    1577  6949U
 MTRB          1 00000004 FFFFFFEC     C    1550  1570   6951M  6952M  6952
 MTRCNTL       2 00000000 FFFFFFEC     H    1549  7084M
 MTRCODE       5 00000057 FFFFFFEC     C    1569  7266M
 MTRIC         3 00000016 FFFFFFEC     C    1555  7144M  7145M
 MTRL          1 00000058 FFFFFFEC A   U    1570  6952   7529
 MTRLH         8 0000001B FFFFFFEC     C    1557  7115   7144   7167M  7168M
 MTRNAME       8 0000000C FFFFFFEC     C    1553  7148M  7162M
 MTRRH         8 00000024 FFFFFFEC     C    1559  7139   7145   7169M
 MTRTYPE       5 00000005 FFFFFFEC     C    1551  7095M  7149
 MTR0          8 00000043 FFFFFFEC     C    1565  7237
 MTR1          8 0000004D FFFFFFEC     C    1567  7261
 MTR14         8 0000002F FFFFFFEC     C    1561  7189
 MTR15         8 00000039 FFFFFFEC     C    1563  7213
 M1BTD         1 00000000 00000005     T    5701  5701   7520   9731
 M1BTX         1 00000000 00000006     T    7523  7523   9749
 NFILCD        2 00000364 00000001     H    3141  5705
 NOACC2        6 00000784 00000001     I    4120  4118B
 NOFIRST       4 00001C9E 00000001     I    8503  8489B
 NORET         4 00001A5A 00000001     I    8140  8134B
 NOSENSE       2 00000CD6 00000001     H    5467  5028B
 NOTIMP        2 00000CE8 00000001     H    5479  5444B  5455B  5466B  5477B
 NOTPOSTD      2 00000A28 00000001     H    4847  4746B
 NSTATUS       2 0000075C 00000001     H    4070  4073
 ORVDIED       4 00001C54 00000001     I    8445  8388B  8399B  8411B
 PARMS         4 00000014 FFFFFFEA     A    1671  2616   2783   2866
 PATH          4 00000000 FFFFFFE9     F    1699  1736   1785   8005   8611
 PATHBUF       4 0000001C FFFFFFE9     R    1722  7997M  8600M
 PATHECB       4 00000018 FFFFFFE9     R    1709  7900M  7901M  8596M  8610M
 PATHECBF      4 00000020 FFFFFFE9     R    1724  7996M  8602M
 PATHERR       2 00001C0A 00000001     H    8409  8122B  8276B
 PATHFCLS      1 00000080 FFFFFFE9 A   U    1726  8387   8410   8955   9121   9329
 PATHFFQE      1 00000040 FFFFFFE9 A   U    1727  8385
 PATHFNI       1 00000020 FFFFFFE9 A   U    1728  8275   8927   9056   9104
 PATHFOPN      1 00000008 FFFFFFE9 A   U    1730  8025   8631
1VAMT     (VAMT02) (09:45) (22MAR04) Ordinary Symbol and Literal Cross Reference                                            Page  112
 PATHMGC       4 00000000 FFFFFFE9     R    1701  8213   8312   8344   9210   9323
 PATHMNAM      1 00000020 FFFFFFE9 A   U    1716  7901   8610
 PATHMY        8 00000008 FFFFFFE9     X    1705  7918M  7919M  7920M  7922   7957   7958   7988M  8597M
 PATHPASS      4 00000024 FFFFFFE9     X    1734  7938M  7968M  7990M  8599M
 PATHYOU       8 00000010 FFFFFFE9     X    1707  7921M  7922M  7989M  8598M
 PCW           4 00000000 FFFFFFE8     F    1794  1801   8161M  8161   8178M  8178   8284M  8284   9186M  9186   9308M
                                                  9308
 PCWADDR       4 00000000 FFFFFFE8     R    1796  8162M  8179M  8286M  8316M  9187M  9309M
 PCWCMD        1 00000000 FFFFFFE8     R    1795  8163M  8167M  8180M  8287M  8317M  9188M  9310M
 PCWD          1 00000000 FFFFFFE8     J    1789  8153U
 PCWFLG        1 00000006 FFFFFFE8     R    1798  8168M  8170M  8182M
 PCWLEN        2 00000004 FFFFFFE8     R    1797  8164M  8181M  9312M
 PCWSIZE       1 00000008 FFFFFFE8 A   U    1801  8160   8171   8177   8283   9185   9307
 PDMPBUF       9 00000281 FFFFFFED     C    1451  6513M  6514   6514M  6514   6998M  7404
 POSR0         4 00000086 00000001     I    2666  2654B
 POSR1         2 00000076 00000001     I    2653  2645B
 POSR14        2 0000005E 00000001     I    2635  2627B
 POSR15        2 0000006A 00000001     I    2644  2636B
 PR            6 00000006 00000001 A   #    1098  5762M  5770U  5791   6210   6941M  6949U  8487M  8492   8502M  8508
 PRCBYE        2 000014D6 00000001     I    7427  7451B
 PRCFORM       4 0000145E 00000001     I    7340  7361B
 PRCFORMX      4 00001484 00000001     I    7369  7390B
 PRCGO         6 0000143E 00000001     I    7308  7304B  7453B
 PRCLOOP       6 00001434 00000001     I    7306  7424B
 PRCORE        4 00001418 00000001     I    7279  7000B
 PRCPREV       1 000001D0 FFFFFFED     X    1444  7306   7308M  7391   7452
 PRCRLOOP      4 000014F2 00000001     I    7446  7454B
 PRCRPT        4 000014DE 00000001     I    7436  7307B
 PRIVNAME      8 00001516 00000001     C    7458  6170
 PRIVSTAT      2 00000008 00000001 A   U    4072  4039   5712
 PRTR          4 00001332 00000001     I    7080  6958B  6961B  7273B
 PRYNBUF       2 000001F8 FFFFFFED     H    1448  5810M  5811M  5811   6530M  6601M  6660M  6780M  6789M  6917M  6934M
                                                  6941   6976M  7726M  9810M  9827   9863   9864   9886M  9922  10007M
                                                 10037  10057M 10058  10059  10063  10087  10099M 10100M 10100
 PRYNBUFL      1 00000085 FFFFFFED A   U    1447  1449   1452   5811   9826   9884  10100  10269
 PRYNTER       4 000025D4 00000001     F   10237  5835   7510   9959   9977  10086
 PSTATUS       2 0000072C 00000001     H    4056  4072
 PUBACC        2 00000364 00000001     H    3157  3125B
 QR            4 00000004 00000001 A   #    1072  2574M  2582U  2592   2772M  2780U  5787M  6088M  6089M  6090   6100U
                                                  6104M  6106M  6397M  6405U  6953M  7334M  7361M  7363M  7390M  7568M
                                                  7576U  8486M  8501M  8504   8506   8507   8511   8512
 RAR           9 00000009 00000001 A   #    1149  2820M  2821M  2821B  2825M  2826M  2826B  2845M  2846M  2846B  2902M
                                                  2903M  2903B  2932M  2933M  2933B  2955M  2980M  2981M  2981B  3094M
                                                  3095M  3095B  3102M  3190M  3223M  3259M  3302M  3334M  3410M  3414M
                                                  3459M  3499M  3547M  3560M  3561M  3561B  3586M  3593M  3594M  3594B
                                                  3661M  3662M  3662B  3666M  3724M  3779M  3828M  3829M  3829B  3851M
                                                  3865M  3879M  3880M  3880B  3909   3911   3911   3911   3914M  3915M
                                                  3915B  3999M  4012M  4013M  4013B  4250M  4298M  4346M  4464M  4587M
                                                  4589   4591   4591   4591   4594M  4595M  4595B  4636M  4661M  4662M
                                                  4662B  4697M  4710M  4711M  4711B  4715M  4852M  4853M  4853B  4867M
                                                  4868M  4868B  4895M  4896M  4896B  4942M  4965M  4966M  4966B  5039M
                                                  5040M  5040B  5184M  5185M  5185B  5246M  5247M  5247B  5278M  5279M
                                                  5279B  5283M  5333M  5352M  5387M  5388M  5388B  5392M  5393M  5393B
                                                  5442M  5443M  5443B  5453M  5454M  5454B  5464M  5465M  5465B  5475M
                                                  5476M  5476B  5487M  5488M  5488B  5492M  5493M  5493B  5502M  5503M
                                                  5503B  5518M  5519M  5519B  5559M  5560M  5560B  5564M  5565M  5565B
                                                  5573   5575   5575   5575   5577M  5638M  5639M  5639B  5644M  5652
                                                  5654   5654   5654   5667M  6050M  6051M  6051B  6055M  6056M  6056B
                                                  6197M  6206M  6518M  6519M  6519B  6527M  6528M  6528B  6552M  6553M
1VAMT     (VAMT02) (09:45) (22MAR04) Ordinary Symbol and Literal Cross Reference                                            Page  113
                                                  6553B  6556M  6557M  6557B  6598M  6599M  6599B  6611M  6612M  6612B
                                                  6615M  6616M  6616B  6657M  6658M  6658B  6670M  6671M  6671B  6674M
                                                  6675M  6675B  6684M  6685M  6685B  6726M  6727M  6727B  6735M  6736M
                                                  6736B  6777M  6778M  6778B  6785M  6786M  6786B  6799M  6800M  6800B
                                                  6803M  6804M  6804B  6849M  6850M  6850B  6858M  6859M  6859B  6900M
                                                  6901M  6901B  6906M  6907M  6907B  6927M  6928M  6928B  6931M  6932M
                                                  6932B  6939M  6940M  6940B  6986M  6987M  6987B  6990M  6991M  6991B
                                                  7000M  7022M  7023M  7023B  7027M  7028M  7028B  7071M  7072M  7072B
                                                  7270M  7271M  7271B  7279   7281   7281   7281   7414M  7415M  7415B
                                                  7418M  7419M  7419B  7428M  7440M  7441M  7441B  7444M  7445M  7445B
                                                  7579   7599M  7601B  7626M  7627M  7627B  7654   7656   7656   7656
                                                  7681M  7682M  7682B  7723M  7724M  7724B  7736M  7737M  7737B  7740M
                                                  7741M  7741B  7743M  7764M  7765M  7765B  7769M  7770M  7770B  7790M
                                                  8024M  8035M  8036M  8036B  8039M  8040M  8040B  8052M  8053M  8053B
                                                  8076M  8077M  8077B  8086M  8087M  8087B  8191M  8192M  8192B  8250M
                                                  8321M  8325M  8333M  8395M  8396M  8396B  8406M  8407M  8407B  8418M
                                                  8419M  8419B  8428M  8429M  8429B  8438M  8439M  8439B  8449M  8450M
                                                  8450B  8453M  8454M  8454B  8540M  8541M  8541B  8630M  8639M  8641M
                                                  8662M  8665M  8676M  8677M  8677B  8680M  8681M  8681B  8692M  8694M
                                                  8703M  8704M  8704B  8724   8728M  8729M  8729B  8739M  8740M  8740B
                                                  8746   8761M  8762M  8762B  8770M  8771M  8771B  8776M  8777M  8777B
                                                  8803M  8805M  8818M  8837M  8841M  8852M  8853M  8853B  8856M  8857M
                                                  8857B  8916M  8931M  8952M  8965M  8966M  8966B  8969M  8970M  8970B
                                                  8983M  8984M  8984B  8987M  8988M  8988B  9024M  9025M  9025B  9034M
                                                  9035M  9035B  9038M  9039M  9039B  9055M  9060M  9078M  9079M  9079B
                                                  9087M  9088M  9088B  9093M  9094M  9094B  9103M  9107M  9138M  9139M
                                                  9139B  9149M  9150M  9150B  9157   9159   9159   9159   9235M  9247M
                                                  9259M  9260M  9260B  9263M  9264M  9264B  9273M  9274M  9274B  9281
                                                  9283   9283   9283   9328M  9352M  9361M  9362M  9362B  9382M  9383M
                                                  9383B  9391M  9392M  9392B  9393   9434M  9435M  9435B  9438M  9439M
                                                  9439B  9447M  9448M  9448B  9463   9465   9465   9465   9515M  9516M
                                                  9516B  9520M  9521M  9521B  9553M  9554M  9554B  9557M  9558M  9558B
                                                  9563M  9570   9572   9572   9572   9617M  9645   9647   9647   9647
                                                  9665   9675M  9676M  9676B  9679M  9680M  9680B  9701M  9702M  9702B
                                                  9706M  9707M  9707B  9776   9778   9778   9778   9894M  9902   9904
                                                  9904   9904  10104M
 RCNOPART      1 00000010 FFFFFFE8 A   U    1852  9753
 RCSNDOVF      1 0000000C FFFFFFE8 A   U    1851  9752
 RDABSB        2 000000F8 00000001     U    4077  4064B
 RDSEND        2 000005B4 00000001     I    3777  3770B
 RDW           4 00000000 FFFFFFE7     F    1859  1872
 RDWFRST       1 00000001 FFFFFFE7 A   U    1863  8170
 RDWLAST       1 00000002 FFFFFFE7 A   U    1864  8182
 RDWONLY       1 00000000 FFFFFFE7 A   U    1862  8168
 RDWSIZE       1 00000004 FFFFFFE7 A   U    1872  8319
 READRET       4 000005BA 00000001     I    3780  3729B
 REALDATA      4 00001A6A 00000001     I    8145  8143B
 RENAME        2 000003E8 00000001     H    3354  3123B
 RESRELCM      4 00000606 00000001     I    3851  3895B  3902B
 RETERR        2 00001C3E 00000001     H    8433  8315B
 RETURN        4 00000048 FFFFFFEA     A    1673  2867
 RNERASE       4 0000041C 00000001     I    3414  3383B
 RQR          12 0000000C 00000001 A   #    1212  8556U  8583M  8584   8585   8929M  9040M  9187   9309
 RQST          1 00000000 FFFFFFE6     J    1874  1894   1896   8556U  8654M  8654   8753M  8753   8829M  8829   8944M
                                                  8944   9047M  9047   9070M  9070   9116M  9116
 RQSTCMD       1 00000008 FFFFFFE6     X    1880  8637M  8642   8666   8806   8932   9048M  9061   9108   9325   9485
                                                  9533
 RQSTCPLB      1 0000000D FFFFFFE6     X    1887  9049M
 RQSTHEAD   4096 00000012 FFFFFFE6 A   U    1896  8653   8752   8828   8943   9046   9069   9115   9190
1VAMT     (VAMT02) (09:45) (22MAR04) Ordinary Symbol and Literal Cross Reference                                            Page  114
 RQSTMODB      1 0000000A FFFFFFE6     X    1883  9372
 RQSTOUCT      2 0000000E FFFFFFE6     H    1888  9189M  9483
 RQSTRDWL      2 00000000 FFFFFFE6     H    1875  9191M
 RQSTSIZE      1 00000114 FFFFFFE6 A   U    1894  8585   9311   9741
 RQSTSRCE      2 00000004 FFFFFFE6     H    1878  1890   1890
 RQSTTEXT   4096 00000012 FFFFFFE6     U    1891  1896   8772M  8794M  8795M  8796M  9089M  9484   9488
 RR            5 00000005 00000001 A   #    1085  5786M  5786   6958M  6961M  7083B  8145M  8153U  8171M  8171   8277M
                                                  8746M  8807B  8843B  9177M  9301M  9494M  9494   9498M  9498   9512
                                                  9525M  9525   9528M  9528   9531M  9550   9863M  9864M
 RWCEXIT       2 000006B4 00000001     I    3998  3987B  3991B  3993B
 RWCSVCOK      2 00000676 00000001     H    3956  3946B
 RWCXACT       4 0000064C 00000001     I    3909  3190B  3223B  3259B  3302B  3334B  3410B  3414B  3459B  3499B  3547B
                                                  3724B  3779B  3865B  5333B  5352B
 R0            0 00000000 FFFFFFFF A   #     724  2653M  2653   2655M  2655   2662   2827M  2907   2908   2911   2934M
                                                  2953   3032   3105   3584   3720   3746M  3756   3852   3901   4034
                                                  4042   4634M  4664   4872   4874   4897M  4929   4940   5006   5025
                                                  5034   5071   5083   5103   5330   5346M  5349   5510   5566M  5655M
                                                  5655   5657   5659   5775M  6229M  6303   6377   6993M  7005M  7005
                                                  7006M  7006B  7301M  7302   7550   7600M  7605   7606   7606M  7747M
                                                  7747   7748M  7748B  8022M  8319M  8323M  8331M  8484   8486   8492M
                                                  8493M  8508M  8510M  8521   8522   8523   8525M  8527M  8628M  8690M
                                                  8816M  8839M  8863   8865   8865   8865   8914M  8974M  8994   8996
                                                  8996   8996   9128M  9233M  9590   9684M  9684   9685M  9685B  9776
                                                  9778   9778   9778   9803   9894M 10180M 10189M 10189  10195M 10196M
                                                 10197
 R1            1 00000001 FFFFFFFF A   #     737  1498M  1503   2574   2617M  2618   2644M  2644   2646M  2646   2866M
                                                  2906   2929M  2929   3025   3040M  3040   3098   3106   3110M  3110
                                                  3493M  3590M  3590   3709   3722M  3722   3744M  3777M  3777   3863M
                                                  3863   3968M  3969   3986M  3986   3988   4113   4145   4191M  4191
                                                  4248M  4248   4296M  4296   4336M  4336   4344M  4344   4462M  4462
                                                  4586M  4586   4690M  4691   4692M  4692   4871   4892M  4892   4999M
                                                  5000   5036M  5036   5181M  5181   5232   5243M  5243   5324   5344M
                                                  5762   5780   5782   5789M  5790   5804M  5837M  5847U  6210M  6225U
                                                  6389   6446M  6447   6992M  7034M  7035M  7035   7090M  7092M  7093M
                                                  7094M  7094   7146M  7147M  7303   7870M  7871   8021M  8133   8139M
                                                  8139   8142M  8142   8165M  8165   8179   8318M  8322M  8328M  8329M
                                                  8329   8487   8488M  8491   8506M  8525   8526M  8627M  8636M  8636
                                                  8647M  8647   8689M  8772   8778M  8797M  8815M  8822M  8822   8838M
                                                  8913M  8937M  8937   9053M  9053   9089   9101M  9120M  9120   9189
                                                  9190M  9190   9191   9232M  9311M  9312   9495M  9526M  9591   9592
                                                  9629M  9634   9665M  9666M  9977M  9987U 10058M 10059M 10059  10178U
 R13          13 0000000D FFFFFFFF A   #     893  2585M  2873M  5794M  6375   6376M  7051M
 R14          14 0000000E FFFFFFFF A   #     906  2617M  2618   2626M  2626   2628M  2628   2867M  2874B  3257   3384
                                                  3386   3388   3454M  3454   3495M  3495   3497   3721   3745M  3757
                                                  3776   4117M  4117   4241M  4241   4292M  4292   4456   4457M  4458M
                                                  4458   4488M  4488   4529   4882   5331   5345M  5350   6230M  6367B
                                                  6375   6971M  7051M  7052B  8490M  8493M  8509M  8510M  8520M  8527M
                                                 10202B
 R15          15 0000000F FFFFFFFF A   #     919  1495   1496M  1497   2635M  2635   2637M  2637   2871M  2872M  2872
                                                  2915   2917   2918   3188   3256   3382M  3382   3453   3493   3537M
                                                  3537   3545   3582M  3582   3583   3699M  3699   3701   3703   3705M
                                                  3706   3707M  3708   3709M  3710   3743M  3748   3797M  4180   4245M
                                                  4245   4247   4291   4393   4453M  4453   4455   4530   4574   4877
                                                  4879   4881   5009   5149   5158   5161M  5163   5314   5320   5322M
                                                  5323   5343M  5348   5384   5825M  5825   5917M  5917   5963M  5963
                                                  6015M  6015   6159M  6159   6181M  6181   6227M  6228   6231B  6301U
                                                  6366M  6366   6970M  6970   6997M  6997   7050M  7050   7300   7301
                                                  7550   7598M  7605   7606   7785M  7786   8019M  8019   8215M  8215
                                                  8314M  8314   8346M  8346   8368   8398   8491M  8507M  8521M  8526
1VAMT     (VAMT02) (09:45) (22MAR04) Ordinary Symbol and Literal Cross Reference                                            Page  115
                                                  8625M  8625   8863   8865   8865   8865   8974M  8994   8996   8996
                                                  8996   9128M  9212M  9212   9250   9393M  9394M  9626   9627M  9628
                                                  9712M 10051M 10051  10169U
 R2            2 00000002 FFFFFFFF A   #     750  6316
 SEGMSG        4 000021D0 00000001     I    9463  9328B
 SENATT        2 00000378 00000001     H    3201  3128B
 SENBKS        2 000003AA 00000001     H    3281  3138B
 SENCLP        2 00000378 00000001     H    3202  3132B
 SENCLPO       2 00000364 00000001     H    3161  3134B
 SENDCALL      2 00001AB0 00000001     H    8184  8169B  8386B
 SENDERR       4 00001BAA 00000001     I    8368  8216B
 SENDXACT      4 00001A1E 00000001     I    8100  5694
 SENMAX        2 000003AA 00000001     H    3282  3139B
 SENSPI        2 00000378 00000001     H    3203  3137B
 SENTYPE       2 00000364 00000001     H    3162  3135B
 SENUIN        2 000003AA 00000001     H    3280  3130B
 SETATT        2 00000364 00000001     H    3158  3127B
 SETCACHE      2 000000F8 00000001     U    4080  4068B
 SETCLP        2 00000364 00000001     H    3159  3131B
 SETCLPO       2 00000364 00000001     H    3160  3133B
 SETGRP        2 00000878 00000001     H    4368  4057B
 SETMODE       2 0000091E 00000001     H    4546  4066B
 SETPUSER      2 0000079E 00000001     H    4152  4065B
 SETSPI        2 00000364 00000001     H    3163  3136B
 SETSPU        2 00000878 00000001     H    4370  4061B
 SETUIN        2 00000482 00000001     H    3518  3129B
 SETVDT        2 00000D3E 00000001     H    5571  3102B  3586B  3666B  3851B  5283B
 SFNOFNAM      2 000007E6 00000001     I    4245  4242B
 SHRTREAD      2 00000596 00000001     H    3747  3704B
 SHRTWRIT      2 00000C50 00000001     H    5347  5321B
 SKIPCOMP      4 000004C4 00000001     I    3583  3576B
 SMCHK         4 000021FE 00000001     I    9496  9530B
 SMEXIT        2 00002254 00000001     I    9562  9490B  9532B
 SMGO          4 00002228 00000001     I    9529  9527B
 SMLAST        2 00002246 00000001     H    9545  9534B
 SMNEXT        4 00002224 00000001     I    9528  9497B
 SMNULL        4 0000221C 00000001     I    9526  9499B
 SMTEST        2 000021F4 00000001     I    9489  9486B
 SNFILE        2 000007C6 00000001     H    4206  4050B
 SNFSPAC       2 00000840 00000001     H    4317  4052B
 SNFSRC        2 000003AA 00000001     H    3278  3119B
 SNGMEM        2 00000804 00000001     H    4263  4051B
 SNGMSEND      2 00000822 00000001     I    4296  4293B
 SNGNOACC      2 000008D8 00000001     I    4462  4459B
 SNGRPS        2 000008AC 00000001     H    4425  4060B
 SNLSRC        2 000003AA 00000001     H    3279  3120B
 SNNMRC        2 000003C4 00000001     H    3314  3121B
 SNPRIV        2 0000044E 00000001     H    3465  3126B
 SPEC          2 000000F8 00000001     H    2748  2910B  2912B  2916B  3041B  3100B  3104B  3182B  3216B  3250B  3295B
                                                  3327B  3376B  3385B  3387B  3447B  3487B  3496B  3607B  3675B  3693B
                                                  3700B  3702B  3844B  3928B  4028B  4038B  4041B  4077   4078   4079
                                                  4080   4081   4107B  4139B  4174B  4228B  4246B  4285B  4330B  4386B
                                                  4413B  4447B  4454B  4491B  4523B  4531B  4566B  4608B  4728B  4873B
                                                  4878B  4880B  5060B  5112B  5132B  5152B  5198B  5226B  5260B  5305B
                                                  5315B  5319B  5590B  5656B  5658B
 SPNOMEMS      4 00000466 00000001     I    3499  3494B
 SR            2 00000002 00000001 A   #    1046  2613M  2614M  2615   2616M  2666M  2667M  2667   2669   2671   2674
                                                  2683   2704B  2782M  2849M  2864U  2873M  2873   2918M  2922M  2924
                                                  3014M  3015M  3015   3029M  3030M  3030   3033   3098M  3099   3113M
1VAMT     (VAMT02) (09:45) (22MAR04) Ordinary Symbol and Literal Cross Reference                                            Page  116
                                                  3114B  3384M  3391M  3393   3727M  3728   3780M  3802   4034M  4035
                                                  4037M  4039M  4039   4040   4045M  4046B  4530M  4536M  4538   4879M
                                                  4885M  4887   4915M  4916M  4916   4934   5324M  5325M  5326   5510M
                                                  5525   5782M  5787M  6060M  6061M  6062   6070U  6076   6091M  6105M
                                                  6140M  6145M  6145   6146M  6147   6230M  6230   6391M  6392M  6393
                                                  6411M  6412   6424M  6430   6676M  6787M  6908M  6956M  6959M  6962M
                                                  6963M  6963   6966   6971M  7080M  7082   7272M  7279   7281   7281
                                                  7281   7333M  7359M  7362M  7388M  7420M  7421M  7422   7423   7428M
                                                  7446M  7447   7448M  7449   7450   7585M  7587   7590M  7591   7593M
                                                  7595   7654   7656   7656   7656   7775M  7783U  7790M  7846   7848
                                                  7848   7848   7872M  7873   7900   7957M  7961M  7962M  7963M  7964M
                                                  7965M  7966M  7967M  7995M  7996   8005M  8006   8060M  8061M  8062
                                                  8066M  8100   8102   8102   8102   8133M  8135   8140M  8144M  8164
                                                  8225M  8255M  8285M  8286   8365M  8462   8464   8464   8464   8483M
                                                  8490   8503M  8509   8511M  8513   8517M  8520   8522M  8524   8531M
                                                  8561   8563   8563   8563   8585M  8586   8587M  8588   8596   8601M
                                                  8602   8611M  8612   8717M  9157   9159   9159   9159   9247M  9281
                                                  9283   9283   9283   9352M  9463   9465   9465   9465   9483M  9487M
                                                  9489M  9489   9530M  9563M  9570   9572   9572   9572   9591M  9608
                                                  9617M  9645   9647   9647   9647   9826M  9827M  9842M  9854   9858M
                                                  9858   9885   9902   9904   9904   9904   9922M  9931M  9931   9976M
                                                  9996   9998M 10007  10104M
 SSNOACC       2 0000085A 00000001     H    4342  4337B
 STAELIST      1 00000050 FFFFFFEA     R    1677  6143
 STAEND        2 00001316 00000001     H    7031  6503B
 STAEXIT       4 0000105E 00000001     I    6303  7518
 STATNDAT      2 0000093A 00000001     H    4582  4121B  4146B  4202B  4395B  4421B  4540B  4575B
 STATOK        4 00000700 00000001     I    4042  4036B
 STATXACT      4 00000940 00000001     I    4589  4250B  4298B  4346B  4464B
 STGRSP        2 00000878 00000001     H    4369  4059B
 SUPOS         4 00000490 00000001     I    3545  3531B
 SUZMVIN       4 00001C68 00000001     I    8462  8321B  8325B  8333B
 SVA           4 00000128 FFFFFFED     F    1440  6375M  6376   7051
 SVCRTN        2 0000014E 00000001     H    2835  3016B  3023B  3034B  3082B  3191B  3224B  3267B  3310B  3349B  3411B
                                                  3421B  3460B  3514B  3548B  3646B  3816B  3866B  3953B  3989B  3995B
                                                  4258B  4313B  4361B  4472B  4587   4633B  4693B  4830B  4843B  4935B
                                                  5001B  5010B  5066B  5206B  5266B  5367B  5430B  5494B  5504B
 SVDTRET       2 00000D7A 00000001     I    5643  5626B
 SXSVCOK       4 0000096A 00000001     I    4634  4626B
 SXVDTOK       4 00000990 00000001     I    4664  4649B
 SXWAIT        4 00001AF0 00000001     I    8220  8269B
 SYSKNAME      8 0000151E 00000001     C    7459  5814
 TESTRR        2 00000364 00000001     H    3156  3118B
 TIMEECB       4 0000003C FFFFFFED     A    1417  1498   9592M  9629
 TIMEINT       4 00000038 FFFFFFED     A    1416  9590M  9598
 TIMEOUT       4 0000225C 00000001     I    9570  8024B  8630B  8692B  8818B  8841B  8916B  9235B
 TIMEXIT       2 0000032E FFFFFFED     H    1491  1496   5805M  9599   9627
 TIMEXITX      2 0000229E 00000001     H    9622  9639   9639
 TMILINIT      1 00000021 FFFFFFE6 A   U    1903  8637
 TR            3 00000003 00000001 A   #    1059  2671M  2672M  2673M  2674   2783M  5772M  5773M  5774M  5775   6072M
                                                  6073   6074   6075M  6076M  6077   6092M  6102   6103M  6407M  6808M
                                                  6808   6815   6909M  6910   6957M  6960M  6964M  6965M  6965   6966M
                                                  7081M  7082   7303M  7360M  7389M  7447M  7578M  7958M  7959M  7960M
                                                  7968   8141M  8144   8181   8483M  8484   8488   8501   8502   8503M
                                                  8504   8512M  8513   8523M  8524   9484M  9488M  9495   9496   9526
                                                  9529M  9529   9803M  9842   9854M  9867M  9869   9884M  9885M  9886
 TRABEND       1 00000060 FFFFFFED A   U    1519  6396
 TRACE         2 00001798 00000001     H    7549  7548
 TRACE         1 00000000 00000004     T    5693  5693   9738
1VAMT     (VAMT02) (09:45) (22MAR04) Ordinary Symbol and Literal Cross Reference                                            Page  117
 TRACEND       4 00000678 FFFFFFED     A    1522  6077M  6412   7591
 TRACENTS      1 00000018 FFFFFFED A   U    1515  1522   1524   6411   7516   7590
 TRACE1        4 000017D2 00000001     I    7595  7592B
 TRACNEXT      4 00000674 FFFFFFED     A    1521  6074M  6407   6430M  7578   7595M
 TRACSTRT      4 00000670 FFFFFFED     A    1520  6073M  6424   6425M  7593   7594M
 TRACTBL       8 00000670 FFFFFFED     D    1514  6070U  6405U  7515   7516   7576U
 TRACTBLE      8 00000FE0 FFFFFFED     D    1525  7516
 TRACTBLS      8 00000680 FFFFFFED     D    1523  1520   1521   1522   6072
 TRKAPUT       1 00000050 FFFFFFED A   U    1518  7604
 TRTRACE       1 00000040 FFFFFFED A   U    1516  7588
 TRTYPES       5 00001537 00000001     C    7463  7094
 TWINS         4 00001A92 00000001     I    8170  8166B
 USERSPAC      2 000000F8 00000001     U    4078  4053B
 USER0         4 00000100 FFFFFFED     F    1434  2662M  2840   2953M  3032M  3901M  4664M  4929M  4940M
 USER1         4 00000104 FFFFFFED     F    1435  2841   2906M  4816M  4871M  5205M
 USER14        4 000000F8 FFFFFFED     F    1432  2618M  2838   2868   3776M  4796M
 USER15        4 000000FC FFFFFFED     F    1433  2625M  2625   2839   2871   3033M  3583M  3952M  4632M  4776M  4934M
                                                  5009M  5047M  5047   5204M
 VAMADDR       4 00000000 FFFFFFEA     A    1665  6228M  7786M
 VAMBEND       2 00001896 00000001     I    7801  7785
 VAMCODE       4 00000010 FFFFFFEA     F    1670  2666
 VAMCOREL      4 00001528 00000001     A    7460  5772   6993
 VAMCT         4 00000004 FFFFFFEA     A    1666  2584   5781M
 VAMENTER      2 00000016 00000001     I    2562  7519
 VAMEXIT       4 0000181E 00000001     I    7654  5700
 VAMINFO      92 00000000 FFFFFFEA     J    1688  2582U  2780U  2864U  5770U  6225U  7783U
 VAMPATH       1 00000000 FFFFFFE9     J    1697  7832U
 VAMQUIT       4 000022BC 00000001     I    9645  7526   9740
 VAMT          1 00000000 00000001     J    1020  1022   1054   1067   1080   1093   1106   1118   1131   1144   1157
                                                  1170   1183   1195   1208   1220   1396   1535   1578   2559   3406
                                                  5176   9748
 VAMTASK       2 00000E66 00000001     I    5747  5744
 VAMT02        1 00000000 00000001     R    1029  1027
 VBCH          1 00000000 FFFFFFEB     J    1583  1689
 VBDT         76 00000FE0 FFFFFFED     X    1527  7517
 VCACCLEN      1 0000000C FFFFFFEB A   U    1649  5707
 VCACC1        6 00000028 FFFFFFEB     C    1647  3456M  4114M  4181M  4197M  4294M  4338M  4392M  4419M  4460M
 VCACC2        6 0000002E FFFFFFEB     C    1648  4115M  4116   4116M  4116   4119M
 VCCODE        1 00000001 FFFFFFEB     X    1588  3106M  3990   3992   3994   4042M  4874M  5034M  5071M
 VCDATA        1 00000028 FFFFFFEB     X    1642  5170M
 VCDATAL       2 00000024 FFFFFFEB     H    1637  2925M  3408M  3457M  3719M  3719   3727   3755M  3755   3780   3859M
                                                  3859   4120M  4182M  4240M  4240   4244M  4295M  4339M  4394M  4420M
                                                  4461M  4539M  4573M  4888M  5035M  5158M  5239M  5239   5329M  5348M
                                                  8141   8187   8331
 VCDEVID       4 00000014 FFFFFFEB     F    1633  2934   3105M  3584M  3720M  3746   3756M  3852M  4634   4897   5330M
                                                  5346   5349M
 VCEND         8 00000058 FFFFFFEB     D    1651  7870
 VCFLAGS       1 00000002 FFFFFFEB     R    1592  1596   1601   1606   1611
 VCFNAME      44 00000028 FFFFFFEB     C    1644  2913M  2914   2914M  2914   3011   3025M  3400M  4243M  4532M  4533
                                                  4533M  4533   4572M  4875M  4876   4876M  4876   4998   5704   5719
 VCFNLEN       1 0000002C FFFFFFEB A   U    1645  5706
 VCFNR1       64 00000002 FFFFFFEB         1601  2652M  3178   3178   3179   3213   3244   3244   3245   3245   3247
                                                  3292   3324   3370   3370   3371   3371   3373   3441   3441   3442
                                                  3442   3444   3481   3481   3482   3482   3484   3689   3689   3690
                                                  4101   4101   4102   4102   4104   4136   4168   4168   4169   4169
                                                  4171   4222   4222   4223   4223   4225   4279   4279   4280   4280
                                                  4282   4327   4382   4382   4383   4410   4441   4441   4442   4442
                                                  4444   4517   4517   4518   4518   4520   4560   4560   4561   4561
                                                  4563   5128   5128   5222   5222   5299   5299   5300   5300   5302
1VAMT     (VAMT02) (09:45) (22MAR04) Ordinary Symbol and Literal Cross Reference                                            Page  118
 VCFNR14      16 00000002 FFFFFFEB         1611  2634M  3245   3245   3246   3246   3371   3371   3372   3372   3442
                                                  3442   3443   3443   3482   3482   3483   3483   3689   3689   3767
                                                  4102   4102   4103   4103   4169   4169   4170   4170   4223   4223
                                                  4224   4224   4280   4280   4281   4281   4442   4442   4443   4443
                                                  4518   4518   4519   4519   4561   4561   4562   4562   5300   5300
                                                  5301   5301
 VCFNR15      32 00000002 FFFFFFEB         1606  2643M  3178   3178   3244   3244   3246   3246   3370   3370   3372
                                                  3372   3441   3441   3443   3443   3481   3481   3483   3483   3528
                                                  3544M  3573   4101   4101   4103   4103   4168   4168   4170   4170
                                                  4222   4222   4224   4224   4279   4279   4281   4281   4382   4382
                                                  4441   4441   4443   4443   4517   4517   4519   4519   4560   4560
                                                  4562   4562   5299   5299   5301   5301
 VCFWAIT     128 00000002 FFFFFFEB         1596  2661M  3841   3892   4025   5128   5128   5129   5222   5222   5223
 VCHEAD        8 00000000 FFFFFFEB     D    1584  2601U  2609M  2609   7841U
 VCHLEN        1 00000028 FFFFFFEB A   U    1639  2608   8140   8323
 VCHR         12 0000000C 00000001 A   #    1200  2593M  2601U  7841U  7868M  7869   8162   8322
 VCHSTART      4 00000000 FFFFFFEB     F    1586  1639   8186
 VCJOBACC      6 0000000C FFFFFFEB     C    1631  8124M
 VCJOBNAM      8 00000004 FFFFFFEB     C    1630  8123M
 VCOMEND       8 00000028 FFFFFFEB     D    1638  1641   1643   1645   1646   1649
 VCPARM1       4 00000018 FFFFFFEB     F    1634  2907M  3188M  3256M  3260   3303   3335   3388M  3453M  3497M  3500
                                                  3545M  3708M  3745   3748M  3809   4113M  4145M  4180M  4247M  4251
                                                  4291M  4299   4347   4393M  4455M  4465   4529M  4574M  4882M  5205
                                                  5232M  5331M  5350M  5353
 VCPARM2       4 0000001C FFFFFFEB     F    1635  2917M  3257M  3342   3507   3721M  3757M  4306   4354   4456M  4881M
                                                  5345   5360
 VCPRIVS       2 00000012 FFFFFFEB     C    1632  8125M
 VCRETCOD      4 00000020 FFFFFFEB     F    1636  3004   3014   3029   3952   3968   4632   4690   4915   4999   5204
 VCRFLAGS      1 00000003 FFFFFFEB     R    1617  1621   1626
 VCRR15Z     128 00000003 FFFFFFEB         1621  2944   3943   4623   4907   5057
 VCRSPEC      64 00000003 FFFFFFEB         1626  3604   3925   4605   5195   5257
 VCTRAN        1 00000000 FFFFFFEB     X    1587  2683M
 VDT          76 00000000 FFFFFFEE     J    1395  1233U  1527   2990M  2990   4978M  4978   5723   6100U
 VDTCLASS      1 00000003 FFFFFFEE     X    1373  2991M  3103   3674   4979M  5316   5318   6129M
 VDTENQC       1 00000005 FFFFFFEE A   U    1375  4979   5718
 VDTFA       128 00000000 FFFFFFEE         1297  2965   2997M  4646   4679   4679   4680M  4725   4842M  4952   4987
                                                  4987   4988M  5587   6114   6114   6115M
 VDTFFIDT      8 00000001 FFFFFFEE         1362  3022M  3420M  3618M  4688   4688   4827   4996   4996
 VDTFILEC      1 00000002 FFFFFFEE A   U    1376  2991   3103   3674   5318   5703
 VDTFL         1 00000000 FFFFFFEE     R    1293  1297   1302   1307   1312   1317   1322   1327   1332   4671M  4671
 VDTFPOST     32 00000001 FFFFFFEE         1352  3003M  3048M  3624M  3736M  3960M  4688   4688   4689M  4743   4996
                                                  4996   4997M  5340M  5399M  5623
 VDTFR1       16 00000000 FFFFFFEE         1312  3074M  3266M  3309M  3341M  3506M  3642   3642   3643   3643   3645M
                                                  3808M  3984   3984   3985M  4257M  4305M  4353M  4471M  4807   5359M
                                                  5428   5428   5429M
 VDTFR14       8 00000000 FFFFFFEE         1317  3067M  3348M  3513M  3643   3643   3644   3644   3815M  3984   3984
                                                  4312M  4360M  4787   5366M  5428   5428
 VDTFR15       4 00000000 FFFFFFEE         1322  3010M  3060M  3642   3642   3644   3644   3975M  4679   4679   4767
                                                  4987   4987   5419M  6114   6114
 VDTFWD       64 00000001 FFFFFFEE         1347  3054M  3631M  3967M  4757M  5406M  5605   6121M
 VDTID         1 00000005 FFFFFFEE     X    1380  6102M
 VDTLNGRD      4 00000001 FFFFFFEE         1367  3673M  3742M  3790
 VDTMFL        1 00000001 FFFFFFEE     R    1338  1342   1347   1352   1357   1362   1367
 VDTNAME      44 00000020 FFFFFFEE     C    1387  3011M  4998M
 VDTNEXT       4 0000004C FFFFFFEE     F    1388  6104
 VDTR         11 0000000B 00000001 A   #    1187  1233U  3042M  5659M  5661M  5662M  5663M
 VDTR1         4 0000000C FFFFFFEE     F    1382  3260M  3303M  3335M  3500M  3802M  4251M  4299M  4347M  4465M  4816
                                                  5353M
 VDTR14        4 00000010 FFFFFFEE     F    1383  3342M  3507M  3809M  4306M  4354M  4796   5360M
1VAMT     (VAMT02) (09:45) (22MAR04) Ordinary Symbol and Literal Cross Reference                                            Page  119
 VDTR15        4 00000014 FFFFFFEE     F    1384  3004M  3081M  3081   3969M  4691M  4776   5000M  5413M  5413   6128M
                                                  6128
 VDTTERMC      1 00000001 FFFFFFEE A   U    1377  5316   5702   6129
 VPDATAR       4 00000044 FFFFFFE9     F    1783  8132M  8132   8135M  8328
 VPECB         4 00000028 FFFFFFE9     F    1741  7872   8004M  8004   8021   8202M  8202   8294M  8294   8354M  8354
                                                  8377M  8377   8383   8587   8609M  8609   8627   8688M  8688   8689
                                                  8814M  8814   8815   8838   8912M  8912   8913   9198M  9198   9232
 VPFCLOS      16 0000002D FFFFFFE9         1766  9100M  9340
 VPFIRST      32 0000002D FFFFFFE9         1761  8046M
 VPFLAGS       1 0000002C FFFFFFE9     X    1742  7995   8025   8056M  8121   8195M  8275   8301M  8361M  8370M  8385
                                                  8387   8410   8601   8631   8842   8886   8917   8927   8953   8955
                                                  8956M  9056   9104   9121   9199M  9329
 VPFNWAIT    128 0000002D FFFFFFE9         1751  8835M  8950M  9223   9243M
 VPFWUMR      64 0000002D FFFFFFE9         1756  8713M  8897   8926M
 VPLEN         1 00000068 FFFFFFE9 A   U    1785  7868   8583
 VPMFL         1 0000002D FFFFFFE9     R    1746  1751   1756   1761   1766
 VPPCWS        8 00000048 FFFFFFE9     D    1784  8145   8208   8277   8307   8339   9177   9205   9301   9318
 VPR          11 0000000B 00000001 A   #    1175  7832U  7846   7848   7848   7848   7866M  7867   7868   8066M  8100
                                                  8102   8102   8102   8120M  8365M  8462   8464   8464   8464   8482M
                                                  8517M  8531M  8561   8563   8563   8563   8581M  8582   8583   8717M
                                                  8883M  8884M  8884   9014M  9015M  9015
 VPRADDR1      4 00000030 FFFFFFE9     F    1772  8316   8483   8524M
 VPRADDR2      4 00000038 FFFFFFE9     F    1774  8503   8513M
 VPRDW         4 00000040 FFFFFFE9     F    1777  1778   8318
 VPRETLOC      4 00000030 FFFFFFE9     F    1770  1771   8285
 VPRLEN1       4 00000034 FFFFFFE9     F    1773  8500M  8500
 VSEG          4 000024B4 00000001     I    9776  9774
 VSEG          1 00000000 00000002     T    5691  5691   7513   9730
 VTAATTAC      2 000001A2 00000001     H    2894  2706B
 VTACOMMA      2 00000CA0 00000001     H    5434  2708B
 VTACONTR      2 000002B6 00000001     H    3086  2710B
 VTADETAC      2 0000049C 00000001     H    3552  2712B
 VTAENQUE      2 00000A3E 00000001     H    4859  2740B
 VTAEXIT       2 00000D00 00000001     H    5499  2714B
 VTAHIGH       1 00000044 00000001 A   U    2742  5690
 VTAMILCO      2 00000CC4 00000001     H    5456  2736B
 VTAPANIC      2 00000D0A 00000001     H    5509  2716B
 VTAPAUSE      2 00000CB2 00000001     H    5445  2718B
 VTAREAD       2 000004F4 00000001     H    3653  2720B
 VTARELEA      2 000005E0 00000001     H    3820  2722B
 VTARESER      2 0000061E 00000001     H    3871  2724B
 VTASENSE      2 00000B0C 00000001     H    5005  2726B
 VTASERVI      2 0000012E 00000001     H    2804  2738B
 VTASET        2 00000B4E 00000001     H    5070  2728B
 VTASONAM      2 00000B22 00000001     H    5013  5007B
 VTASTATU      2 000006BC 00000001     H    4004  2730B
 VTAWAIT       2 000009B8 00000001     H    4702  2732B
 VTAWRITE      2 00000BC6 00000001     H    5270  2734B
 VWRITE        4 00002504 00000001     I    9902  9900
 VWRITE        1 00000000 00000003     T    5692  5692   7514   9732
 WANOTR1       2 00000A18 00000001     H    4819  4810B
 WANOTR14      2 00000A0A 00000001     H    4799  4790B
 WANOTR15      2 000009FC 00000001     H    4779  4770B
 WAR           8 00000008 00000001 A   #    1136  3909   3911   3911   3911   3999M  4589   4591   4591   4591   4697M
                                                  5573   5575   5575   5575   5644M  5652   5654   5654   5654   5667M
 WRABSB        2 000000F8 00000001     U    4079  4067B
 WRFLNX        2 00000378 00000001     H    3200  3122B
 WRITERM       2 00000C78 00000001     H    5372  5317B
 XACTEXIT      4 00001B88 00000001     I    8339  8330B
1VAMT     (VAMT02) (09:45) (22MAR04) Ordinary Symbol and Literal Cross Reference                                            Page  120
 =A((RQSTSIZE+16)/8*8)
               4 000023E8 00000001     A    9741  8600
 =A(BURY)      4 00002380 00000001     A    9729  7626
 =A(L'CT)      4 000016B4 00000001     A    7507  5789
 =A(MOVETXIT)
               4 000016BC 00000001     A    7509  5804
 =A(PRYNTER)
               4 000016C0 00000001     A    7510  5837
 =A(SENDXACT)
               4 00000DE0 00000001     A    5694  2932   3593   3914   4594   4895   5039   5184   5246
 =A(STAEXIT)
               4 000016F0 00000001     A    7518  6140
 =A(TRACTBL-CT)
               4 000016E4 00000001     A    7515  6060
 =A(TRACTBLE-TRACTBL-TRACENTS)
               4 000016E8 00000001     A    7516  6075
 =A(VAMENTER)
               4 000016F4 00000001     A    7519  6227
 =A(VAMEXIT)
               4 00000DF8 00000001     A    5700  5502
 =A(VAMQUIT)
               4 00001718 00000001     A    7526  7071
 =A(VAMQUIT)
               4 000023E4 00000001     A    9740  8453   8856   8969   8987   9263   9438
 =A(VAMT)      4 00002424 00000001     A    9748  9394   9666
 =A(VBDT-CT)
               4 000016EC 00000001     A    7517  6088
 =A(VTAHIGH)
               4 00000DD0 00000001     A    5690  2669
 =A(1*60*100)
               4 00002420 00000001     A    9747  9233
 =A(128)       4 00000DF4 00000001     A    5699  5149
 =A(16)        4 00001710 00000001     A    7524  6910
 =A(2*100)
               4 00002414 00000001     A    9744  8816
 =A(2*60*100)
               4 0000241C 00000001     A    9746  8914
 =A(21)        4 00000DEC 00000001     A    5697  5083
 =A(22)        4 00000DF0 00000001     A    5698  5103
 =A(28)        4 00000DE8 00000001     A    5696  5025
 =A(5*100)
               4 00002418 00000001     A    9745  8839
 =A(5*60*100)
               4 0000239C 00000001     A    9736  8022   8628   8690
 =A(8*1024)
               4 00002398 00000001     A    9735  7997
 =A(8)         4 00000DE4 00000001     A    5695  5006
 =C'          **** REPEAT LINE(S) ****'
              34 0000172E 00000001     C    7532  7436
 =C'  '        2 00002480 00000001     C    9758  9387
 =C' (ID '
               5 00002495 00000001     C    9764  8794
 =C' - VAM QUITTING'
              15 000024A5 00000001     C    9766  9671
 =C' '         1 00001758 00000001     C    7535  6731   6854
 =C' => '      4 00002410 00000001     C    9743  8757   9020   9074
 =C' CALLS'
               6 0000243E 00000001     C    9751  7732
 =C' NOT IMPLEMENTED'
1VAMT     (VAMT02) (09:45) (22MAR04) Ordinary Symbol and Literal Cross Reference                                            Page  121
              16 00000DC0 00000001     C    5689  5483
 =C' SUZAN CALLS'
              12 000016FC 00000001     C    7521  6666
 =C' VAM CALLS'
              10 0000171E 00000001     C    7528  6607
 =C'...'       3 0000178F 00000001     C    7540  7167
 =C'..'        2 0000172C 00000001     C    7531  7168   7169
 =C'<ATTN>'
               6 0000245E 00000001     C    9755  9030
 =C'ABEND'
               5 0000178A 00000001     C    7539  7149
 =C'CALL OVAM'
               9 0000248C 00000001     C    9763  8766
 =C'COMMAND'
               7 00000E48 00000001     C    5724  5438
 =C'EXITING FROM VAM: '
              18 0000242C 00000001     C    9750  7677
 =C'GENERAL PURPOSE REGISTERS'
              25 00001759 00000001     C    7536  6795
 =C'GREETINGS FROM VAM, JOB '
              24 00001690 00000001     C    7504  6523
 =C'ILLEGAL VAM CODE'
              16 00000DB0 00000001     C    5688  2816
 =C'LOGOFF CLR'
              10 00002464 00000001     C    9756  9083
 =C'MILCOM'
               6 00000E28 00000001     C    5720  5460
 =C'MILTEN DIED'
              11 0000249A 00000001     C    9765  8961   9255   9443
 =C'NO RESPONSE FROM MILTEN FOR FIVE MINUTES'
              40 00002328 00000001     C    9727  8848
 =C'ORVYL NOT ACTIVE - WAITING 5 MINUTES'
              36 000023EC 00000001     C    9742  8672
 =C'ORVYL STILL NOT ACTIVE'
              22 00002448 00000001     C    9754  8699
 =C'OVAM HAS OPENED PATH'
              20 000023A0 00000001     C    9737  8031
 =C'OVAM RESPONSE ERROR - OVAM, ORVYL OR WYLBUR DIED'
              48 00002350 00000001     C    9728  8979
 =C'PAUSE'
               5 00000E4F 00000001     C    5725  5449
 =C'PSW='      4 00001708 00000001     C    7522  6680
 =C'SENSE'
               5 00000E54 00000001     C    5726  5471
 =C'SOMEONE (OVAM, ORVYL, WYLBUR OR MILTEN) DIED'
              44 000023B8 00000001     C    9739  8445
 =C'TRACE TABLE'
              11 00001772 00000001     C    7537  6923
 =C'VAM HAS BEEN ENTERED'
              20 000016C8 00000001     C    7512  6046
 =C'VAM USER PANIC, CODE= '
              22 00000E2E 00000001     C    5721  5514
 =C'VAM WORK AREA'
              13 0000177D 00000001     C    7538  6982
 =C'VAM/MILTEN ERROR: '
              18 0000246E 00000001     C    9757  9357
 =C'VAM'       3 00001755 00000001     C    7534  6039
 =C'VAMBATCH'
               8 00002300 00000001     C    9722  7988
1VAMT     (VAMT02) (09:45) (22MAR04) Ordinary Symbol and Literal Cross Reference                                            Page  122
 =C'VAMORVYL'
               8 00002308 00000001     C    9723  7989
 =C'VAMP'      4 00002394 00000001     C    9734  7990
 =C'0000'      4 000016C4 00000001     C    7511  6035
 =CL3'OVA'
               3 00002489 00000001     C    9762  7921
 =CL3'VAM'
               3 00002486 00000001     C    9761  7918
 =CL4'CTCT'
               4 000016B8 00000001     C    7508  5792
 =CL4'VWA'
               4 00001714 00000001     C    7525  6998
 =CL5' '       5 00001792 00000001     C    7541  7266
 =CL6' '       6 00000E1A 00000001     C    5715  4181
 =CL8' '       8 000016A8 00000001     C    7505  7162
 =CL8'MILTEN'
               8 00002318 00000001     C    9725  8598
 =CL8'PVFE'
               8 00002320 00000001     C    9726  8599
 =CL8'VAMPATH'
               8 00002310 00000001     C    9724  8597
 =F'-32'       4 000016B0 00000001     F    7506  5774
 =H'12'        2 0000171C 00000001     H    7527  6303   6377
 =H'5'         2 0000172A 00000001     H    7530  7093
 =V(M1BTD)
               4 00000DFC 00000001     V    5701  5542
 =V(M1BTD)
               4 000016F8 00000001     V    7520  6581   6640   6832
 =V(M1BTD)
               4 00002388 00000001     V    9731  7706
 =V(M1BTX)
               4 0000170C 00000001     V    7523  6709   6760   6883   7118   7142   7192   7216   7240   7264   7331
                                                  7357   7386
 =V(M1BTX)
               4 00002428 00000001     V    9749  9417
 =V(TRACE)
               4 00000DDC 00000001     V    5693  2845   2902   2980   3094   3560   3661   3828   3879   4012   4661
                                                  4710   4852   4867   4965   5278   5638
 =V(TRACE)
               4 000023B4 00000001     V    9738  8052   8076   8086   8191   8395   8406   8418   8428   8438   8540
                                                  8728   8739   9138   9149   9273
 =V(VSEG)      4 00000DD4 00000001     V    5691  2820   5387   5442   5453   5464   5475   5487   5518   5559
 =V(VSEG)      4 000016DC 00000001     V    7513  6050   6527   6552   6598   6611   6657   6670   6684   6726   6735
                                                  6777   6799   6849   6858   6900   6927   6986   7022   7414   7440
 =V(VSEG)      4 00002384 00000001     V    9730  7681   7723   7736   7764   8035   8449   8676   8703   8761   8770
                                                  8852   8965   8983   9024   9034   9078   9087   9259   9361   9382
                                                  9391   9434   9447   9515   9553   9675   9701
 =V(VWRITE)
               4 00000DD8 00000001     V    5692  2825   5392   5492   5564
 =V(VWRITE)
               4 000016E0 00000001     V    7514  6055   6518   6556   6615   6674   6785   6803   6906   6931   6939
                                                  6990   7027   7270   7418   7444
 =V(VWRITE)
               4 0000238C 00000001     V    9732  7740   7769   8039   8680   8776   9038   9093   9520   9557   9679
                                                  9706
 =X'FC000000'
               4 00002390 00000001     X    9733  7960
 =X'0001000040'
               5 00001750 00000001     X    7533  5810
1VAMT     (VAMT02) (09:45) (22MAR04) Ordinary Symbol and Literal Cross Reference                                            Page  123
 =X'0001000040'
               5 000025C6 00000001     X   10226 10099
 =X'04000020'
               4 000025C0 00000001     X   10224 10060
 =Y((NFILCD-FFILCD-4)/4)
               2 00000E06 00000001     Y    5705  3099
 =Y((2*4+3)/4*4)
               2 00000E10 00000001     Y    5710  3726   5342
 =Y(CTNVDTS)
               2 00000E44 00000001     Y    5722  5657
 =Y(HISTATUS)
               2 00000E18 00000001     Y    5714  4040
 =Y(L'VCFNAME)
               2 00000E04 00000001     Y    5704  2915   2925   3386   4888
 =Y(L'VCFNAME-4)
               2 00000E26 00000001     Y    5719  4877
 =Y(L'VDT)
               2 00000E46 00000001     Y    5723  5662
 =Y(MTRL)      2 00001728 00000001     Y    7529  7084
 =Y(PRIVSTAT)
               2 00000E14 00000001     Y    5712  4035
 =Y(RCNOPART)
               2 00002446 00000001     Y    9753  8398   9250
 =Y(RCSNDOVF)
               2 00002444 00000001     Y    9752  8368
 =Y(VCACCLEN)
               2 00000E0A 00000001     Y    5707  3457   4120   4295   4339   4394   4420   4461
 =Y(VCFNLEN)
               2 00000E08 00000001     Y    5706  3408   4244   4539
 =Y(VDTENQC)
               2 00000E24 00000001     Y    5718  4872
 =Y(VDTFILEC)
               2 00000E02 00000001     Y    5703  2911
 =Y(VDTTERMC)
               2 00000E00 00000001     Y    5702  2908
 =Y(1)         2 00002484 00000001     Y    9760  9531
 =Y(100)       2 00000E16 00000001     Y    5713  4037
 =Y(12)        2 00000E12 00000001     Y    5711  3988
 =Y(4*1024)
               2 00000E0E 00000001     Y    5709  3703   3705   3707   3728   3797   5320   5322   5325   5329
 =Y(4)         2 00002482 00000001     Y    9759  9487
 =Y(4)         2 000025C4 00000001     Y   10225 10196
 =Y(6)         2 00000E20 00000001     Y    5716  4182
 =Y(8*1024)
               2 00000E0C 00000001     Y    5708  3701   5314
 =Y(8)         2 00000E22 00000001     Y    5717  4573   5035

1VAMT     (VAMT02) (09:45) (22MAR04) Macro and Copy Code Source Summary                                                     Page  124
- Con Source                                        Volume    Members                        HLASM R4.0  2004/03/22 09.45
0     PRIMARY INPUT                                           BTD      BTX      CSECT    DROP     END      EX
                                                              LTORG    POP      PRINT    PRYNT    PUSH     START
                                                              USING    VAMTRACE
   L2 WYL.GG.SYS.MACLIB                             SYSB05    $BC      $BFLKUP  $BV      $CCLKUP  $CRS     $L       $LA
                                                              $LBLAD   $LEXP    $LOR     $REL     $RGLKUP  $USLKUP
                                                              ACALL    BASE     BEGIN    CEIL     CLEAR    CSECT    DATA
                                                              DECR     DEFCC    DEX      DROP     ELSE     END      EX
                                                              FLAG     GEN      HIBAL    IDENT    IF       INCR
                                                              LABEL    LC       LCALL    LS       LT       LTORG    POP
                                                              PRINT    PUSH     RECORD   REG      REGS     SET
                                                              START    SYSLR    SYSQS    USING    VCALL    WITH
   L3 WYL.GG.ORV.BC.MACLIB                          SYSB02    GENCODE  GENCONT  GENLINE  GENSTAT  GENVAM   ORVDEFN  RQST
                                                              SEGDC    SEGHX    VAMINFO  VCHEAD   VENTER   VEXIT
                                                              VKAPUT   VPOP     VPUSH    VREST    VSA      VSAVE    VSEG
                                                              VTRACE   VWRITE   XCALL
   L4 SYS3.IS.MACLIB                                SYSB05    DEFINE   PDB      SYSDEFN
   L5 SYS3.MACLIB                                   SYSB02    HASPSERV PATH     PCW      RDW      SVCCOM
   L6 SYS1.MACLIB                                   MVSBR9    ABEND    CLOSE    DCB      DCBD     DEVTYPE  GETMAIN
                                                              IHBINNRA IHBINNRR IHB01    OPEN     POST     PUT
                                                              RETURN   SAVE     SPLEVEL  STAE     STIMER   STIMER7
                                                              SYSSTATE TTIMER   WAIT     WTO

1         (VAMT02) (09:45) (22MAR04) General Purpose Register Cross Reference                                               Page  125
- Register  References (M=modified, B=branch, U=USING, D=DROP, N=index)                      HLASM R4.0  2004/03/22 09.45
0    0(0)     1007U  1008D  1494   1502M  1502   1506M  2617M  2618   2653M  2653   2655M  2655   2662   2749M  2754M
              2759M  2795   2796M  2797M  2798   2817M  2827M  2837   2898   2907   2908   2911   2934M  2953   2976
              3032   3090   3105   3556   3584   3657   3720   3746M  3756   3824   3852   3875   3901   4008   4034
              4042   4634M  4657   4664   4706   4848   4863   4872   4874   4897M  4929   4940   4961   5006   5025
              5034   5071   5083   5103   5274   5330   5346M  5349   5384M  5439M  5450M  5461M  5472M  5484M  5510
              5515M  5532M  5566M  5634   5655M  5655   5657   5659   5775M  5815M  5896M  5929M  5930M  5931   5942M
              5942   5975M  5976M  5977   5994M  6027M  6028M  6029   6047M  6149M  6149   6171M  6229M  6245M  6246M
              6247   6303   6377   6489M  6524M  6549M  6571M  6608M  6630M  6667M  6681M  6699M  6732M  6750M  6796M
              6822M  6855M  6873M  6924M  6983M  6993M  7005M  7005   7006M  7108M  7132M  7182M  7206M  7230M  7254M
              7301M  7302   7321M  7347M  7376M  7411M  7437M  7550   7600M  7605   7637M  7638M  7639   7678M  7696M
              7733M  7747M  7747   7748M  7773M  7820M  7821M  7822   8017M  8017   8022M  8032M  8048   8072   8082
              8185   8213M  8220M  8312M  8319M  8323M  8331M  8344M  8381M  8391   8402   8414   8424   8434   8446M
              8484   8486   8492M  8493M  8508M  8510M  8521   8522   8523   8525M  8527M  8536   8623M  8623   8628M
              8673M  8690M  8700M  8723   8734   8758M  8767M  8816M  8839M  8849M  8863   8914M  8962M  8974M  8980M
              8994   9021M  9031M  9075M  9084M  9128M  9134   9145   9210M  9233M  9256M  9269   9323M  9358M  9379M
              9388M  9407M  9444M  9512M  9550M  9590   9599M  9602M  9607M  9625   9633M  9633   9637M  9672M  9684M
              9684   9685M  9710M  9776   9803   9894M 10030M 10087M 10180M 10189M 10189  10195M 10196M 10197
     1(1)     1003U  1494   1498M  1503M  1503   1506M  2574   2617M  2618   2644M  2644   2646M  2646   2795M  2798M
              2816M  2837   2866M  2898   2906   2929M  2929   2976   3025   3040M  3040   3090   3098   3106   3110M
              3110   3493M  3556   3590M  3590   3657   3709   3722M  3722   3744M  3777M  3777   3824   3863M  3863
              3875   3968M  3969   3986M  3986   3988   4008   4113   4145   4191M  4191   4248M  4248   4296M  4296
              4336M  4336   4344M  4344   4462M  4462   4586M  4586   4657   4690M  4691   4692M  4692   4706   4848
              4863   4871   4892M  4892   4961   4999M  5000   5036M  5036   5181M  5181   5232   5243M  5243   5274
              5324   5344M  5438M  5449M  5460M  5471M  5483M  5514M  5539M  5634   5762   5778M  5780   5782   5789M
              5790   5804M  5814M  5833M  5837M  5847U  5860U  5903M  5928M  5931M  5949M  5974M  5977M  6001M  6026M
              6029M  6046M  6143M  6144   6144   6146N  6147N  6148N  6170M  6210M  6225U  6237U  6244M  6247M  6389
              6446M  6447   6485M  6523M  6542M  6578M  6607M  6637M  6666M  6680M  6706M  6731M  6757M  6795M  6829M
              6854M  6880M  6923M  6982M  6992M  7034M  7035M  7035   7087D  7089M  7089   7090M  7091U  7092M  7093M
              7094M  7094N  7115M  7139M  7146M  7147M  7189M  7213M  7237M  7261M  7303   7328M  7354M  7383M  7404M
              7436M  7550   7600M  7605   7636M  7639M  7677M  7703M  7732M  7819M  7822M  7870M  7871   8013M  8021M
              8031M  8048   8072   8082   8133   8139M  8139   8142M  8142   8165M  8165   8179   8185   8208M  8222M
              8223M  8223   8307M  8318M  8322M  8328M  8329M  8329   8339M  8383M  8391   8402   8414   8424   8434
              8445M  8487   8488M  8491   8493M  8506M  8510M  8525   8526M  8527M  8536   8619M  8627M  8636M  8636
              8647M  8647   8672M  8689M  8699M  8723   8734   8757M  8766M  8772   8778M  8797M  8815M  8822M  8822
              8838M  8848M  8863   8913M  8937M  8937   8961M  8974M  8979M  8994   9020M  9030M  9053M  9053   9074M
              9083M  9089   9101M  9120M  9120   9128M  9134   9145   9189   9190M  9190   9191   9205M  9232M  9255M
              9269   9311M  9312   9318M  9357M  9372M  9387M  9414M  9443M  9495M  9526M  9591   9592   9598M  9608M
              9612M  9625   9629M  9634M  9634   9637M  9665M  9666M  9671M  9776   9894M  9957M  9977M  9987U 10005U
             10037M 10058M 10059M 10059N 10063M 10086M 10089  10178U 10209U
     2(2)      999U  1494   1506M  2613M  2614M  2615   2616M  2666M  2667M  2667   2669   2671   2674   2683   2704N
              2782M  2849M  2864U  2873M  2880U  2918M  2922M  2924   3014M  3015M  3015   3029M  3030M  3030   3033
              3098M  3099   3113M  3114N  3384M  3391M  3393   3727M  3728   3780M  3802   4034M  4035   4037M  4039M
              4039N  4040   4045M  4046N  4530M  4536M  4538   4879M  4885M  4887   4915M  4916M  4916   4934   5324M
              5325M  5326   5510M  5525   5782M  5787M  6060M  6061M  6062   6070U  6076   6083U  6091M  6105M  6140M
              6145M  6145N  6146M  6147   6230M  6316   6391M  6392M  6393   6411M  6412   6424M  6430   6676M  6787M
              6908M  6956M  6959M  6962M  6963M  6963   6966   6971M  7080M  7082   7272M  7279   7333M  7359M  7362M
              7388M  7420M  7421M  7422   7423   7428M  7446M  7447   7448M  7449   7450   7550   7582D  7584M  7584
              7585M  7586U  7587   7590M  7591   7593M  7595   7600M  7605   7654   7775M  7790M  7798U  7846   7872M
              7873   7900   7957M  7961M  7962M  7963M  7964M  7965M  7966M  7967M  7995M  7996   8005M  8006   8060M
              8061M  8062   8066M  8100   8133M  8135   8140M  8144M  8164   8225M  8255M  8285M  8286   8365M  8462
              8483M  8490   8503M  8509   8511M  8513   8517M  8520   8522M  8524   8531M  8561   8585M  8586   8587M
              8588   8596   8601M  8602   8611M  8612   8717M  8863   8974M  8994   9128M  9157   9247M  9281   9352M
              9463   9483M  9487M  9489M  9489   9530M  9563M  9570   9591M  9608   9617M  9625   9637M  9645   9776
              9826M  9827M  9842M  9854   9858M  9858   9885   9894M  9902   9922M  9931M  9931   9976M  9996   9998M
             10007  10104M
1         (VAMT02) (09:45) (22MAR04) General Purpose Register Cross Reference                                               Page  126
     3(3)      995U  1494   1506M  2671M  2672M  2673M  2674   2783M  2873M  5772M  5773M  5774M  5775   5787M  6072M
              6073   6074   6075M  6076M  6077   6092M  6102   6103M  6230M  6407M  6808M  6808   6815   6909M  6910
              6957M  6960M  6964M  6965M  6965   6966M  6971M  7081M  7082   7279   7303M  7360M  7389M  7428M  7447M
              7550   7578M  7600M  7605   7654   7790M  7846   7958M  7959M  7960M  7961M  7963M  7965M  7967M  7968
              8066M  8100   8141M  8144   8181   8365M  8462   8483M  8484   8488   8501   8502   8503M  8504   8512M
              8513   8517M  8523M  8524   8531M  8561   8717M  8863   8974M  8994   9128M  9157   9247M  9281   9352M
              9463   9484M  9488M  9495   9496   9526   9529M  9529   9563M  9570   9617M  9625   9637M  9645   9776
              9803M  9842   9854M  9867M  9869   9884M  9885M  9886   9894M  9902  10104M
     4(4)      991U  1494   1506M  2574M  2582U  2592   2681U  2772M  2780U  2789U  2873M  5787M  6088M  6089M  6090
              6100U  6104M  6106M  6135U  6230M  6397M  6405U  6457U  6953M  7279   7334M  7361M  7363M  7390M  7428M
              7550   7568M  7576U  7600M  7605   7646U  7654   7790M  7846   8066M  8100   8365M  8462   8486M  8501M
              8504   8506   8507   8511   8512   8517M  8531M  8561   8717M  8863   8974M  8994   9128M  9157   9247M
              9281   9352M  9463   9563M  9570   9617M  9625   9637M  9645   9776   9894M  9902  10104M
     5(5)      987U  1494   1506M  2873M  5786M  5786   5787M  6230M  6958M  6961M  7083B  7279   7428M  7550   7600M
              7605   7654   7790M  7846   8066M  8100   8145M  8153U  8171M  8171   8277M  8365M  8462   8517M  8531M
              8561   8717M  8746M  8807B  8843B  8863   8974M  8994   9128M  9157   9177M  9247M  9281   9301M  9352M
              9456U  9463   9494M  9494   9498M  9498   9512   9525M  9525   9528M  9528   9531M  9550   9563M  9570
              9617M  9625   9637M  9645   9776   9863M  9864M  9894M  9902  10104M
     6(6)      983U  1494   1506M  2873M  5762M  5770U  5791   6210   6216U  6230M  6941M  6949U  7279   7428M  7550
              7600M  7605   7654   7790M  7846   8066M  8100   8365M  8462   8487M  8492   8502M  8508   8517M  8531M
              8561   8717M  8863   8974M  8994   9128M  9157   9247M  9281   9352M  9463   9563M  9570   9617M  9625
              9637M  9645   9776   9894M  9902  10104M 10141U
     7(7)      979U  1494   1506M  2562M  2572U  2873M  5747M  5757U  5760U  6230M  6273U  6471M  6481U  7279   7284M
              7294U  7297U  7428M  7550   7553M  7563U  7566U  7600M  7605   7654   7659M  7669U  7672U  7790M  7801M
              7810U  7813U  7846   7851M  7861U  7864U  8066M  8100   8105M  8115U  8118U  8365M  8462   8467M  8477U
              8480U  8517M  8531M  8561   8566M  8576U  8579U  8717M  8863   8868M  8878U  8881U  8974M  8994   8999M
              9009U  9012U  9128M  9157   9162M  9172U  9175U  9247M  9281   9286M  9296U  9299U  9352M  9463   9468M
              9478U  9481U  9563M  9570   9575M  9585U  9588U  9617M  9625   9637M  9645   9650M  9660U  9663U  9776
              9781M  9791U  9794U  9894M  9902   9907M  9917U  9920U 10104M 10136U
     8(8)      975U  1494   1506M  2873M  3909   3910M  3998   3999M  4589   4590M  4696   4697M  5573   5574M  5643
              5644M  5652   5653M  5666   5667M  6230M  7279   7280M  7427   7428M  7550   7605   7654   7655M  7789
              7790M  7846   7847M  8065   8066M  8100   8101M  8364   8365M  8462   8463M  8516   8517M  8530   8531M
              8561   8562M  8716   8717M  8863   8864M  8973   8974M  8994   8995M  9127   9128M  9157   9158M  9246
              9247M  9281   9282M  9351   9352M  9463   9464M  9562   9563M  9570   9571M  9616   9617M  9625   9637M
              9645   9646M  9776   9777M  9893   9894M  9902   9903M 10103  10104M
     9(9)      971U  1494   1506M  2820M  2821M  2821B  2825M  2826M  2826B  2842   2845M  2846M  2846B  2848M  2873M
              2899   2902M  2903M  2903B  2905M  2932M  2933M  2933B  2955M  2977   2980M  2981M  2981B  3091   3094M
              3095M  3095B  3097M  3102M  3190M  3223M  3259M  3302M  3334M  3410M  3414M  3459M  3499M  3547M  3557
              3560M  3561M  3561B  3563M  3586M  3593M  3594M  3594B  3658   3661M  3662M  3662B  3664M  3666M  3724M
              3779M  3825   3828M  3829M  3829B  3831M  3851M  3865M  3876   3879M  3880M  3880B  3882M  3909   3914M
              3915M  3915B  3999M  4000B  4009   4012M  4013M  4013B  4015M  4250M  4298M  4346M  4464M  4587M  4589
              4594M  4595M  4595B  4636M  4658   4661M  4662M  4662B  4697M  4698B  4707   4710M  4711M  4711B  4713M
              4715M  4849   4852M  4853M  4853B  4864   4867M  4868M  4868B  4870M  4895M  4896M  4896B  4942M  4962
              4965M  4966M  4966B  5039M  5040M  5040B  5184M  5185M  5185B  5246M  5247M  5247B  5275   5278M  5279M
              5279B  5281M  5283M  5333M  5352M  5387M  5388M  5388B  5392M  5393M  5393B  5442M  5443M  5443B  5453M
              5454M  5454B  5464M  5465M  5465B  5475M  5476M  5476B  5487M  5488M  5488B  5492M  5493M  5493B  5502M
              5503M  5503B  5518M  5519M  5519B  5559M  5560M  5560B  5564M  5565M  5565B  5573   5577M  5635   5638M
              5639M  5639B  5644M  5645B  5652   5667M  5668B  6050M  6051M  6051B  6055M  6056M  6056B  6197M  6206M
              6230M  6518M  6519M  6519B  6527M  6528M  6528B  6552M  6553M  6553B  6556M  6557M  6557B  6598M  6599M
              6599B  6611M  6612M  6612B  6615M  6616M  6616B  6657M  6658M  6658B  6670M  6671M  6671B  6674M  6675M
              6675B  6684M  6685M  6685B  6726M  6727M  6727B  6735M  6736M  6736B  6777M  6778M  6778B  6785M  6786M
              6786B  6799M  6800M  6800B  6803M  6804M  6804B  6849M  6850M  6850B  6858M  6859M  6859B  6900M  6901M
              6901B  6906M  6907M  6907B  6927M  6928M  6928B  6931M  6932M  6932B  6939M  6940M  6940B  6986M  6987M
              6987B  6990M  6991M  6991B  7000M  7022M  7023M  7023B  7027M  7028M  7028B  7071M  7072M  7072B  7270M
              7271M  7271B  7279   7414M  7415M  7415B  7418M  7419M  7419B  7428M  7429B  7440M  7441M  7441B  7444M
              7445M  7445B  7550   7579   7599M  7601B  7605   7626M  7627M  7627B  7654   7681M  7682M  7682B  7723M
              7724M  7724B  7736M  7737M  7737B  7740M  7741M  7741B  7743M  7764M  7765M  7765B  7769M  7770M  7770B
              7790M  7791B  7846   8024M  8035M  8036M  8036B  8039M  8040M  8040B  8049   8052M  8053M  8053B  8055M
              8066M  8067B  8073   8076M  8077M  8077B  8083   8086M  8087M  8087B  8100   8188   8191M  8192M  8192B
1         (VAMT02) (09:45) (22MAR04) General Purpose Register Cross Reference                                               Page  127
              8194M  8250M  8321M  8325M  8333M  8365M  8366B  8392   8395M  8396M  8396B  8403   8406M  8407M  8407B
              8415   8418M  8419M  8419B  8425   8428M  8429M  8429B  8435   8438M  8439M  8439B  8449M  8450M  8450B
              8453M  8454M  8454B  8462   8517M  8518B  8531M  8532B  8537   8540M  8541M  8541B  8561   8630M  8639M
              8641M  8662M  8665M  8676M  8677M  8677B  8680M  8681M  8681B  8692M  8694M  8703M  8704M  8704B  8717M
              8718B  8724   8725   8728M  8729M  8729B  8736   8739M  8740M  8740B  8746   8761M  8762M  8762B  8770M
              8771M  8771B  8776M  8777M  8777B  8803M  8805M  8818M  8837M  8841M  8852M  8853M  8853B  8856M  8857M
              8857B  8863   8916M  8931M  8952M  8965M  8966M  8966B  8969M  8970M  8970B  8974M  8975B  8983M  8984M
              8984B  8987M  8988M  8988B  8994   9024M  9025M  9025B  9034M  9035M  9035B  9038M  9039M  9039B  9055M
              9060M  9078M  9079M  9079B  9087M  9088M  9088B  9093M  9094M  9094B  9103M  9107M  9128M  9129B  9135
              9138M  9139M  9139B  9146   9149M  9150M  9150B  9157   9235M  9247M  9248B  9259M  9260M  9260B  9263M
              9264M  9264B  9270   9273M  9274M  9274B  9281   9328M  9352M  9353B  9361M  9362M  9362B  9382M  9383M
              9383B  9391M  9392M  9392B  9393   9434M  9435M  9435B  9438M  9439M  9439B  9447M  9448M  9448B  9463
              9515M  9516M  9516B  9520M  9521M  9521B  9553M  9554M  9554B  9557M  9558M  9558B  9563M  9564B  9570
              9617M  9618B  9625   9637M  9645   9665   9675M  9676M  9676B  9679M  9680M  9680B  9701M  9702M  9702B
              9706M  9707M  9707B  9776   9894M  9895B  9902  10104M 10105B
    10(A)      967U  1242U  1494   1495M  1497M  1506M  2584M  2873M  5780M  5781   6061   6089   6148   6230M  6264U
              6316M  6333M  6345U  6992   7550   7598M  7605   7846   8066M  8100   8365M  8462   8517M  8531M  8561
              8717M  8863   8974M  8994   9128M  9625   9626M  9628M  9637M 10127U
    11(B)      963U  1233U  1494   1506M  2873M  3042M  5659M  5661M  5662M  5663M  5675U  6230M  7550   7598M  7605
              7832U  7846   7866M  7867   7868   8066M  8100   8120M  8365M  8462   8482M  8517M  8531M  8561   8581M
              8582   8583   8717M  8863   8883M  8884M  8884   8974M  8994   9014M  9015M  9015   9128M  9625   9637M
             10122U
    12(C)      959U  1494   1506M  2593M  2601U  2873M  5681U  6230M  7550   7598M  7605   7841U  7868M  7869   8162
              8322   8553U  8556U  8583M  8584   8585   8863   8929M  8974M  8994   9040M  9128M  9187   9309   9625
              9637M 10117U
    13(D)      955U  1494   1506   2585M  2873M  3712M  3712   3726M  3909   3910   3911M  3911   3998M  3999   4589
              4590   4591M  4591   4696M  4697   5328M  5328   5342M  5573   5574   5575M  5575   5643M  5644   5652
              5653   5654M  5654   5666M  5667   5794M  6230M  6375   6376M  7051M  7279   7280   7281M  7281   7427M
              7428   7550   7598M  7605   7654   7655   7656M  7656   7789M  7790   7846   7847   7848M  7848   8065M
              8066   8100   8101   8102M  8102   8364M  8365   8462   8463   8464M  8464   8516M  8517   8530M  8531
              8561   8562   8563M  8563   8716M  8717   8863   8863   8864   8865M  8865   8973M  8974M  8974   8994
              8994   8995   8996M  8996   9127M  9128M  9128   9157   9158   9159M  9159   9246M  9247   9281   9282
              9283M  9283   9351M  9352   9463   9464   9465M  9465   9562M  9563   9570   9571   9572M  9572   9616M
              9617   9625   9637   9645   9646   9647M  9647   9776   9777   9778M  9778   9893M  9894   9902   9903
              9904M  9904  10103M 10104
    14(E)      951U  1494   1506M  1507B  2617M  2618   2626M  2626   2628M  2628   2837   2867M  2874B  2898   2976
              3090   3257   3384   3386   3388   3454M  3454   3495M  3495   3497   3556   3657   3721   3745M  3757
              3776   3824   3875   4008   4117M  4117   4241M  4241   4292M  4292   4456   4457M  4458M  4458   4488M
              4488   4529   4657   4706   4848   4863   4882   4961   5274   5331   5345M  5350   5542M  5543M  5543B
              5634   6230M  6367B  6375   6581M  6582M  6582B  6640M  6641M  6641B  6709M  6710M  6710B  6760M  6761M
              6761B  6832M  6833M  6833B  6883M  6884M  6884B  6971M  7051M  7052B  7118M  7119M  7119B  7142M  7143M
              7143B  7192M  7193M  7193B  7216M  7217M  7217B  7240M  7241M  7241B  7264M  7265M  7265B  7331M  7332M
              7332B  7357M  7358M  7358B  7386M  7387M  7387B  7550   7598M  7605   7706M  7707M  7707B  8048   8072
              8082   8185   8391   8402   8414   8424   8434   8490M  8493M  8509M  8510M  8520M  8527M  8536   8723
              8734   8863   8974M  8994   9128M  9134   9145   9269   9417M  9418M  9418B  9600M  9601M  9602   9625
              9637M  9638B 10090M 10202B
    15(F)      947U  1494   1495   1496M  1497   1506M  2617M  2618   2635M  2635   2637M  2637   2837   2871M  2872M
              2872   2898   2915   2917   2918   2976   3090   3188   3256   3382M  3382   3453   3493   3537M  3537
              3545   3556   3582M  3582   3583   3657   3699M  3699   3701   3703   3705M  3706   3707M  3708   3709M
              3710   3743M  3748   3797M  3824   3875   4008   4180   4245M  4245   4247   4291   4393   4453M  4453
              4455   4530   4574   4657   4706   4848   4863   4877   4879   4881   4961   5009   5149   5158   5161M
              5163   5274   5314   5320   5322M  5323   5343M  5348   5384   5525M  5634   5825M  5825   5907M  5907
              5917M  5917   5953M  5953   5963M  5963   6005M  6005   6015M  6015   6159M  6159   6181M  6181   6227M
              6228   6231B  6301U  6366M  6366   6463U  6564M  6623M  6692M  6743M  6815M  6866M  6970M  6970   6971M
              6997M  6997   7050M  7050   7101M  7125M  7175M  7199M  7223M  7247M  7300   7301   7314M  7340M  7369M
              7550   7598M  7605   7689M  7785M  7786   8019M  8019   8048   8072   8082   8185   8215M  8215   8314M
              8314   8346M  8346   8368   8391   8398   8402   8414   8424   8434   8491M  8493M  8507M  8510M  8521M
              8526   8527M  8536   8625M  8625   8723   8734   8863   8974M  8994   9128M  9134   9145   9212M  9212
              9250   9269   9393M  9394M  9625   9626   9627M  9628   9637M  9712M 10041M 10041  10051M 10051  10088M
1         (VAMT02) (09:45) (22MAR04) General Purpose Register Cross Reference                                               Page  128
             10088  10089M 10090B 10169U 10215U

1VAMT     (VAMT02) (09:45) (22MAR04) Diagnostic Cross Reference and Assembler Summary                                       Page  129
-                                                                                            HLASM R4.0  2004/03/22 09.45
0     No Statements Flagged in this Assembly
 HIGH LEVEL ASSEMBLER, 5696-234, RELEASE 4.0, PTF UQ57391
0SYSTEM: OS/390 02.10.00            JOBNAME: PJG#VAMT    STEPNAME: ASM        PROCSTEP: (NOPROC)
0Datasets Allocated for this Assembly
  Con DDname   Dataset Name                                 Volume  Member
   P1 SYSIN    SYS04082.T094524.RA000.PJG#VAMT.INPUT.H01    SCR101
   L1 SYSLIB   SYS3.DUMMYMAC                                SYSB02
   L2          WYL.GG.SYS.MACLIB                            SYSB05
   L3          WYL.GG.ORV.BC.MACLIB                         SYSB02
   L4          SYS3.IS.MACLIB                               SYSB05
   L5          SYS3.MACLIB                                  SYSB02
   L6          SYS1.MACLIB                                  MVSBR9
      SYSLIN   WYL.GG.PJG.OBJ                               SYSB05  VAMT
      SYSPRINT SYS04082.T094524.RA000.PJG#VAMT.PRINT.H01    SCR101
      SYSTERM  GG$PJG.PJG#VAMT.JOB05969.D0000103.?

    7812K allocated to Buffer Pool,         2721K would be required for this to be an In-Storage Assembly
    2332 Primary Input Records Read        17173 Library Records Read                  0 Work File Reads
       0 ASMAOPT Records Read               7337 Primary Print Records Written         0 Work File Writes
     203 Punch Records Written                 0 ADATA Records Written
0Assembly Start Time: 09.45.25 Stop Time: 09.45.29 Processor Time: 00.00.02.4003
 Return Code 000
