1                        J E S 2  J O B  L O G  --  S Y S T E M  S Y S B  --  N O D E  R L G
0
 09.49.28 JOB06004 ---- MONDAY,    22 MAR 2004 ----
 09.49.28 JOB06004  ICH70001I GG$PJG   LAST ACCESS AT 09:49:24 ON MONDAY, MARCH 22, 2004
 09.49.28 JOB06004  $HASP373 PJG#VSD  STARTED - INIT 3    - CLASS E - SYS SYSB
 09.49.28 JOB06004  ***  HCMD      STEP $$QUIET
 09.49.28 JOB06004  PURGE * Q=OUTPUT MULTIPLE
 09.49.28 JOB06004  JOB PJG#VSD NOT IN OUTPUT QUEUE
 09.49.29 JOB06004  PJG#VSD .$$QUIET .         RC=0008 TapeIO=0000 DiskIO=0000 CPU=  .01s Elapsed=68.11s
 09.49.29 JOB06004  PJG#VSD .$CND    .         RC=Zero TapeIO=0000 DiskIO=0002 CPU=  .01s Elapsed=69.14s
 09.49.29 JOB06004  PJG#VSD .$UNP    .         RC=Zero TapeIO=0000 DiskIO=0023 CPU=  .05s Elapsed=69.25s
 09.49.32 JOB06004  PJG#VSD .ASM     .         RC=Zero TapeIO=0000 DiskIO=0367 CPU= 1.83s Elapsed=69.51s
 09.49.33 JOB06004  PJG#VSD .$EDIT   .         RC=Zero TapeIO=0000 DiskIO=0110 CPU=  .42s Elapsed=72.95s
 09.49.33 JOB06004  PJG#VSD  Ended.  Name=Module: VSD                    Total CPU= 2.32s Elapsed=68.11s
 09.49.33 JOB06004
 09.49.33 JOB06004  Execution charges   Priority=Standard   Block=Day
 09.49.33 JOB06004
 09.49.33 JOB06004  CPU Usage          42.56          $26.38   Standard Processing Unit Equivalent
 09.49.33 JOB06004                                   =======
 09.49.33 JOB06004                                    $26.38   Total Job execution charge
 09.49.33 JOB06004
 09.49.33 JOB06004  See back separator page for print charges
 09.49.33 JOB06004
 09.49.33 JOB06004  $HASP395 PJG#VSD  ENDED  ASM=0
1        1 //PJG#VSD  JOB PJG$GG,'Module: VSD',TIME=1,MSGCLASS=C                   JOB06004
           /*JOBPARM HOLD=OUTPUT,LINES=50,CHARS=TN15,NOTIFY=YES
         2 //       EXEC PURGEOLD
         3 XXPURGEOLD PROC
           XX*
           XX* This proc is maintained by Jim Stosick
           XX*
         4 XX$$QUIET  EXEC PGM=HCMDX,PARM='PURGE * Q=OUTPUT MULTIPLE',
           XX         ACCT=(PURGEOLD,SYS3)
         5 //$CND   EXEC PGM=BILBO,REGION=512K,PARM='RECS=100'
         6 //STEPLIB  DD DSN=WYL.GG.ORV.LINKLIB,DISP=SHR
         7 //SYSPRINT DD SYSOUT=$
         8 //SYSUT1   DD DSN=WYL.GG.PJG.OBJ,DISP=OLD
         9 //SYSUT2   DD DSN=WYL.GG.PJG.OBJ,DISP=OLD
        10 //SYSIN    DD DUMMY
        11 //$UNP   EXEC PGM=WUNPRESS,PARM='NUM'
        12 //SYSPRINT DD SYSOUT=$
        13 //SYSUT1   DD DSN=WYL.GG.ORV.SOURCE(VSD),DISP=SHR
        14 //SYSUT2   DD DSN=&&INPUT,DISP=(,PASS),UNIT=SYSDA,
           //            SPACE=(TRK,(25,25),RLSE),DCB=CARD
        15 //ASM    EXEC PGM=ASMA90,REGION=8M,COND=(0,NE,$UNP),
           //            PARM=('SYSPARM(VSD),TERM,LANG(EN),OBJ',
           //          'LC(32500),XREF(SHORT),NODECK,NORLD,NODX,NOUS')
           //*STEPLIB  DD DSN=SYS1.SASMMOD1,DISP=SHR
        16 //SYSLIB   DD DSN=SYS3.DUMMYMAC,DISP=SHR,DCB=BLKSIZE=27920
        17 //         DD DSN=WYL.GG.SYS.MACLIB,DISP=SHR
        18 //         DD DSN=WYL.GG.ORV.BC.MACLIB,DISP=SHR
        19 //         DD DSN=WYL.GG.ORV.MACLIB,DISP=SHR
        20 //         DD DSN=SYS3.ORVYL.UMACLIB,DISP=SHR
        21 //         DD DSN=SYS3.IS.MACLIB,DISP=SHR
        22 //SYSUT1   DD DSN=&&SYSUT1,UNIT=VIO,DISP=(,DELETE),
           //            SPACE=(4088,(500,250),,CONTIG,ROUND)
        23 //SYSTERM  DD SYSOUT=$
        24 //SYSPRINT DD DSN=&&PRINT,UNIT=SYSDA,DISP=(,PASS),
           //            SPACE=(6650,(250,250),RLSE),
           //            DCB=(BLKSIZE=6650,LRECL=133,RECFM=FB)
        25 //SYSLIN   DD DSN=WYL.GG.PJG.OBJ(VSD),DISP=OLD
        26 //SYSUDUMP DD SYSOUT=A
        27 //SYSIN    DD DSN=&&INPUT,DISP=(OLD,DELETE)
        28 //$EDIT  EXEC PGM=ASMEDIT,REGION=1M,
           //            COND=EVEN,PARM='STMT,DATA'
        29 //STEPLIB  DD DSN=WYL.GG.SYS.LINKLIB,DISP=SHR
        30 //ASMOUT   DD DSN=&&PRINT,DISP=(OLD,DELETE)
        31 //SYSPRINT DD SYSOUT=A
        32 //SYSUDUMP DD SYSOUT=A
1 STMT NO. MESSAGE
         2 IEFC001I PROCEDURE PURGEOLD WAS EXPANDED USING SYSTEM LIBRARY SYS3.BETAPROC
        14 IGD01010I STORCLAS= TEMP STORGROUP =
        14 IGD01010I STORGRP=VIO ASSIGNED.
        22 IGD01010I STORCLAS= TEMP STORGROUP =
        22 IGD01010I STORGRP=VIO ASSIGNED.
        24 IGD01010I STORCLAS= TEMP STORGROUP =
        24 IGD01010I STORGRP=VIO ASSIGNED.
 ICH70001I GG$PJG   LAST ACCESS AT 09:49:24 ON MONDAY, MARCH 22, 2004
 IEF142I PJG#VSD $$QUIET - STEP WAS EXECUTED - COND CODE 0008
 *********************************************************************************
 *   PJG#VSD /$$QUIET /                    Return Code      0008                 *
 *   Region used      260K (16K user + 244K system)                              *
 *   Extended region  9352K (4K user + 9348K system)                             *
 *                                                                               *
 *   Paging              In      Out                                             *
 *   Private <-> Aux      0        0       CPU time (TCB)   00:00:00.01          *
 *   Private <-> Exp      0        0       CPU time (SRB)   00:00:00.00          *
 *   VIO                  0        0       Elapsed time    920:38:24.85          *
 *   Common               0      ---                                             *
 *                                                                               *
 *                                                                               *
 *   CPU Usage          0.18         $0.11  Standard Processing Unit Equivalent  *
 *                                   $0.11  Total Step execution charge          *
 *                                                                               *
 *    I/O count  DDname   Type Addr           I/O count  DDname   Type Addr      *
 *                         *** No I/O for this step ***                          *
 *********************************************************************************
 IEF373I STEP/$$QUIET /START 2004082.0949
 IEF374I STEP/$$QUIET /STOP  2004082.0949 CPU    0MIN 00.01SEC SRB    0MIN 00.00SEC VIRT    16K SYS   244K EXT       4K SYS    9348K
 IEF236I ALLOC. FOR PJG#VSD $CND
 IEF237I 0401 ALLOCATED TO STEPLIB
 IEF237I JES2 ALLOCATED TO SYSPRINT
 IEF237I 04DC ALLOCATED TO SYSUT1
 IEF237I 04DC ALLOCATED TO SYSUT2
 IEF237I DMY  ALLOCATED TO SYSIN
 IEF142I PJG#VSD $CND - STEP WAS EXECUTED - COND CODE 0000
 IEF285I   WYL.GG.ORV.LINKLIB                           KEPT
 IEF285I   VOL SER NOS= SYSB01.
 IEF285I   GG$PJG.PJG#VSD.JOB06004.D0000101.?           SYSOUT
 IEF285I   WYL.GG.PJG.OBJ                               KEPT
 IEF285I   VOL SER NOS= SYSB05.
 IEF285I   WYL.GG.PJG.OBJ                               KEPT
 IEF285I   VOL SER NOS= SYSB05.
 *********************************************************************************
 *   PJG#VSD /$CND    /                    Return Code      Zero                 *
 *   Region used      280K (16K user + 264K system)                              *
 *   Extended region  9392K (4K user + 9388K system)                             *
 *                                                                               *
 *   Paging              In      Out                                             *
 *   Private <-> Aux      0        0       CPU time (TCB)   00:00:00.01          *
 *   Private <-> Exp      0        0       CPU time (SRB)   00:00:00.00          *
 *   VIO                  0        0       Elapsed time    920:38:23.82          *
 *   Common               0      ---                                             *
 *                                                                               *
 *                                                                               *
 *   CPU Usage          0.18         $0.11  Standard Processing Unit Equivalent  *
 *                                   $0.11  Total Step execution charge          *
 *                                                                               *
 *    I/O count  DDname   Type Addr           I/O count  DDname   Type Addr      *
 *            2  STEPLIB  Disk 0401                   0  SYSPRINT      ----      *
 *            0  SYSUT1   Disk 04DC                   0  SYSUT2   Disk 04DC      *
 *            0  SYSIN         ----                                              *
 *********************************************************************************
 IEF373I STEP/$CND    /START 2004082.0949
 IEF374I STEP/$CND    /STOP  2004082.0949 CPU    0MIN 00.01SEC SRB    0MIN 00.00SEC VIRT    16K SYS   264K EXT       4K SYS    9388K
 IEF236I ALLOC. FOR PJG#VSD $UNP
 IEF237I JES2 ALLOCATED TO SYSPRINT
 IEF237I 0402 ALLOCATED TO SYSUT1
 IGD101I SMS ALLOCATED TO DDNAME (SYSUT2  )
         DSN (SYS04082.T094928.RA000.PJG#VSD.INPUT.H01    )
         STORCLAS (TEMP) MGMTCLAS (        ) DATACLAS (        )
         VOL SER NOS= SCR100
 IEF142I PJG#VSD $UNP - STEP WAS EXECUTED - COND CODE 0000
 IEF285I   GG$PJG.PJG#VSD.JOB06004.D0000102.?           SYSOUT
 IEF285I   WYL.GG.ORV.SOURCE                            KEPT
 IEF285I   VOL SER NOS= SYSB02.
 IGD106I SYS04082.T094928.RA000.PJG#VSD.INPUT.H01     PASSED,    DDNAME=SYSUT2
 *********************************************************************************
 *   PJG#VSD /$UNP    /                    Return Code      Zero                 *
 *   Region used      388K (108K user + 280K system)                             *
 *   Extended region  9468K (4K user + 9464K system)                             *
 *                                                                               *
 *   Paging              In      Out                                             *
 *   Private <-> Aux      0        0       CPU time (TCB)   00:00:00.05          *
 *   Private <-> Exp      0        0       CPU time (SRB)   00:00:00.00          *
 *   VIO                  0        0       Elapsed time    920:38:23.71          *
 *   Common               0      ---                                             *
 *                                                                               *
 *                                                                               *
 *   CPU Usage          0.93         $0.57  Standard Processing Unit Equivalent  *
 *                                   $0.57  Total Step execution charge          *
 *                                                                               *
 *    I/O count  DDname   Type Addr           I/O count  DDname   Type Addr      *
 *            0  SYSPRINT      ----                   3  SYSUT1   Disk 0402      *
 *           20  SYSUT2   Disk 038B                                              *
 *********************************************************************************
 IEF373I STEP/$UNP    /START 2004082.0949
 IEF374I STEP/$UNP    /STOP  2004082.0949 CPU    0MIN 00.05SEC SRB    0MIN 00.00SEC VIRT   108K SYS   280K EXT       4K SYS    9464K
 IEF236I ALLOC. FOR PJG#VSD ASM
 IEF237I 0402 ALLOCATED TO SYSLIB
 IEF237I 04DC ALLOCATED TO
 IEF237I 0402 ALLOCATED TO
 IEF237I 0402 ALLOCATED TO
 IEF237I 0402 ALLOCATED TO
 IEF237I 04DC ALLOCATED TO
 IGD101I SMS ALLOCATED TO DDNAME (SYSUT1  )
         DSN (SYS04082.T094928.RA000.PJG#VSD.SYSUT1.H01   )
         STORCLAS (TEMP) MGMTCLAS (        ) DATACLAS (        )
         VOL SER NOS= VIO
 IEF237I JES2 ALLOCATED TO SYSTERM
 IGD101I SMS ALLOCATED TO DDNAME (SYSPRINT)
         DSN (SYS04082.T094928.RA000.PJG#VSD.PRINT.H01    )
         STORCLAS (TEMP) MGMTCLAS (        ) DATACLAS (        )
         VOL SER NOS= SCR100
 IEF237I 04DC ALLOCATED TO SYSLIN
 IEF237I JES2 ALLOCATED TO SYSUDUMP
 IGD103I SMS ALLOCATED TO DDNAME SYSIN
 IEF142I PJG#VSD ASM - STEP WAS EXECUTED - COND CODE 0000
 IEF285I   SYS3.DUMMYMAC                                KEPT
 IEF285I   VOL SER NOS= SYSB02.
 IEF285I   WYL.GG.SYS.MACLIB                            KEPT
 IEF285I   VOL SER NOS= SYSB05.
 IEF285I   WYL.GG.ORV.BC.MACLIB                         KEPT
 IEF285I   VOL SER NOS= SYSB02.
 IEF285I   WYL.GG.ORV.MACLIB                            KEPT
 IEF285I   VOL SER NOS= SYSB02.
 IEF285I   SYS3.ORVYL.UMACLIB                           KEPT
 IEF285I   VOL SER NOS= SYSB02.
 IEF285I   SYS3.IS.MACLIB                               KEPT
 IEF285I   VOL SER NOS= SYSB05.
 IGD105I SYS04082.T094928.RA000.PJG#VSD.SYSUT1.H01    DELETED,   DDNAME=SYSUT1
 IEF285I   GG$PJG.PJG#VSD.JOB06004.D0000103.?           SYSOUT
 IGD106I SYS04082.T094928.RA000.PJG#VSD.PRINT.H01     PASSED,    DDNAME=SYSPRINT
 IEF285I   WYL.GG.PJG.OBJ                               KEPT
 IEF285I   VOL SER NOS= SYSB05.
 IEF285I   GG$PJG.PJG#VSD.JOB06004.D0000104.?           SYSOUT
 IGD105I SYS04082.T094928.RA000.PJG#VSD.INPUT.H01     DELETED,   DDNAME=SYSIN
 *********************************************************************************
 *   PJG#VSD /ASM     /                    Return Code      Zero                 *
 *   Region used      8484K (8192K user + 292K system)                           *
 *   Extended region  9952K (412K user + 9540K system)                           *
 *                                                                               *
 *   Paging              In      Out                                             *
 *   Private <-> Aux      0        0       CPU time (TCB)   00:00:01.79          *
 *   Private <-> Exp      0        0       CPU time (SRB)   00:00:00.04          *
 *   VIO                  0        0       Elapsed time    920:38:23.45          *
 *   Common               0      ---                                             *
 *                                                                               *
 *                                                                               *
 *   CPU Usage         33.56        $20.80  Standard Processing Unit Equivalent  *
 *                                  $20.80  Total Step execution charge          *
 *                                                                               *
 *    I/O count  DDname   Type Addr           I/O count  DDname   Type Addr      *
 *           93  SYSLIB   Disk 0402                 141  SYSLIB   Disk 04DC      *
 *            0  SYSLIB   Disk 0402                   0  SYSLIB   Disk 0402      *
 *            0  SYSLIB   Disk 0402                   0  SYSLIB   Disk 04DC      *
 *            0  SYSUT1   VIO  ----                   0  SYSTERM       ----      *
 *          107  SYSPRINT Disk 038B                   5  SYSLIN   Disk 04DC      *
 *            0  SYSUDUMP      ----                  21  SYSIN    Disk 038B      *
 *********************************************************************************
 IEF373I STEP/ASM     /START 2004082.0949
 IEF374I STEP/ASM     /STOP  2004082.0949 CPU    0MIN 01.79SEC SRB    0MIN 00.04SEC VIRT  8192K SYS   292K EXT     412K SYS    9540K
 IEF236I ALLOC. FOR PJG#VSD $EDIT
 IEF237I 0402 ALLOCATED TO STEPLIB
 IGD103I SMS ALLOCATED TO DDNAME ASMOUT
 IEF237I JES2 ALLOCATED TO SYSPRINT
 IEF237I JES2 ALLOCATED TO SYSUDUMP
 IEF142I PJG#VSD $EDIT - STEP WAS EXECUTED - COND CODE 0000
 IEF285I   WYL.GG.SYS.LINKLIB                           KEPT
 IEF285I   VOL SER NOS= SYSB02.
 IGD105I SYS04082.T094928.RA000.PJG#VSD.PRINT.H01     DELETED,   DDNAME=ASMOUT
 IEF285I   GG$PJG.PJG#VSD.JOB06004.D0000105.?           SYSOUT
 IEF285I   GG$PJG.PJG#VSD.JOB06004.D0000106.?           SYSOUT
 *********************************************************************************
 *   PJG#VSD /$EDIT   /                    Return Code      Zero                 *
 *   Region used      388K (116K user + 272K system)                             *
 *   Extended region  9472K (4K user + 9468K system)                             *
 *                                                                               *
 *   Paging              In      Out                                             *
 *   Private <-> Aux      0        0       CPU time (TCB)   00:00:00.41          *
 *   Private <-> Exp      0        0       CPU time (SRB)   00:00:00.01          *
 *   VIO                  0        0       Elapsed time    920:38:20.01          *
 *   Common               0      ---                                             *
 *                                                                               *
 *                                                                               *
 *   CPU Usage          7.68         $4.76  Standard Processing Unit Equivalent  *
 *                                   $4.76  Total Step execution charge          *
 *                                                                               *
 *    I/O count  DDname   Type Addr           I/O count  DDname   Type Addr      *
 *            2  STEPLIB  Disk 0402                 108  ASMOUT   Disk 038B      *
 *            0  SYSPRINT      ----                   0  SYSUDUMP      ----      *
 *********************************************************************************
 IEF373I STEP/$EDIT   /START 2004082.0949
 IEF374I STEP/$EDIT   /STOP  2004082.0949 CPU    0MIN 00.41SEC SRB    0MIN 00.01SEC VIRT   116K SYS   272K EXT       4K SYS    9468K
 *********************************************************************************
 *                                                                               *
 *                      S t a n f o r d   U n i v e r s i t y                    *
 *                                                                               *
 *                              *** Job Summary ***                              *
 *                                                                               *
 *   System Id      SYSB                   Input time     09:38:41  Mar 22, 2004 *
 *                                                                               *
 *   System Release SP6.1.0                Start time     09:49:28  Mar 22, 2004 *
 *                                                                               *
 *   Job name       PJG#VSD                Stop  time     00:00:00  Mar 22, 2004 *
 *                                                                               *
 *   Account        PJG$GG                 Elapsed time  920:38:24.85            *
 *                                                                               *
 *   User Name      Module: VSD            CPU time       00:00:02.27            *
 *                                                                               *
 *   Job class      E                      SRB Time       00:00:00.05            *
 *                                                                               *
 *********************************************************************************
 IEF375I  JOB/PJG#VSD /START 2004082.0949
 IEF376I  JOB/PJG#VSD /STOP  2004082.0949 CPU    0MIN 02.27SEC SRB    0MIN 00.05SEC
1Data set successfully converted from EDIT to FB format
1Assembler Done VSD No Statements Flagged
1         High Level Assembler Option Summary                   (PTF UQ57391)                                               Page    1
-                                                                                            HLASM R4.0  2004/03/22 09.49
0  No Overriding ASMAOPT Parameters
   Overriding Parameters-  SYSPARM(VSD),TERM,LANG(EN),OBJ,LC(32500),XREF(SHORT),NODECK,NORLD,NODX,NOUS
   No Process Statements


   Options for this Assembly
0  NOADATA
     ALIGN
   NOASA
     BATCH
     CODEPAGE(047C)
   NOCOMPAT
   NODBCS
 3 NODECK
 3 NODXREF
     ESD
   NOEXIT
     FLAG(0,ALIGN,CONT,NOIMPLEN,NOPAGE0,PUSH,RECORD,NOSUBSTR,USING0)
   NOFOLD
   NOGOFF
   NOINFO
 3   LANGUAGE(EN)
   NOLIBMAC
 3   LINECOUNT(32500)
     LIST(121)
     MXREF(SOURCE)
 3   OBJECT
     OPTABLE(UNI,NOLIST)
   NOPCONTROL
   NOPESTOP
   NOPROFILE
   NORA2
   NORENT
 3 NORLD
     RXREF
     SIZE(MAX)
 3   SYSPARM(VSD)
 3   TERM(WIDE)
   NOTEST
     THREAD
   NOTRANSLATE
 3 NOUSING
 3   XREF(SHORT)

   No Overriding DD Names

1VSD      External Symbol Dictionary                                                                                        Page    2
-Symbol   Type   Id     Address  Length     LD ID  Flags Alias-of                            HLASM R4.0  2004/03/22 09.49
0VSD       SD 00000001 00000000 00001BF0             00
 VSD07     LD          00000000           00000001
 SHOW      LD          00000014           00000001
 BCDTBL    LD          00001654           00000001
 TYPEIT    ER 00000002
 VWRITE    ER 00000003
 VSEG      ER 00000004
 EVAL      ER 00000005
 BTD       ER 00000006
 BTX       ER 00000007
 SEGSECS   ER 00000008
 SCAN      ER 00000009
 VSEGLOC   ER 0000000A
 READCORE  ER 0000000B
 EVHEX     ER 0000000C
 SCTELL    ER 0000000D
 SCINIT    ER 0000000E
 LDSET     ER 0000000F
 LDNEXT    ER 00000010
 LDFIND    ER 00000011
 PROGRAMS  ER 00000012
 CLPSYSTM  ER 00000013
 CLPSYST2  ER 00000014
 FILES     ER 00000015
 FILESHOW  ER 00000016

1VSD      ORVYL'S SHOW AND DUMP COMMANDS                                                                                    Page    3
0Loc    Object Code    Addr1 Addr2  Stmt Lv Lineno    Source Statement                    (Asmedit 3.3)  HLASM R4.0  2004/03/22 09.49
+___    ______ ____    _____ _____  ____ __ ______    ______ _________
0                                      2       2.     ********************************************************************
                                       3       3.     *                                                                  *
                                       4       4.     *       ORVYL/370  RELEASE III - CLASS I - STANFORD PROPRIETARY    *
                                       5       5.     *                                                                  *
                                       6       6.     ********************************************************************
-
-                                      8       8.     * MODIFICATIONS
                                       9       9.     *
1VSD      ORVYL'S SHOW AND DUMP COMMANDS                                                                                    Page    4
0Loc    Object Code    Addr1 Addr2  Stmt Lv Lineno    Source Statement                    (Asmedit 3.3)  HLASM R4.0  2004/03/22 09.49
+___    ______ ____    _____ _____  ____ __ ______    ______ _________
0                                     11      11.              HIBAL
                                     992      12.
 000000                00000 01BF0   993      13.     VSD      CSECT
                                     997      14.              IDENT 07
                                    1000             +
                                    1001    01-IDENT +         ENTRY VSD07
                                    1002             +
 000000 13E5E2C4F0F76BF2            1003    01-IDENT +VSD07    DC    AL1(19),C'VSD07,22MAR04,09:49'
                                    1004             +*
-
0                                   1007      16.              COPY  ORVDEFN
                                    1008             =         SYSDEFN  ,
                                    1009             =         GBLB  &PROTECT
                                    1010             =         GBLC  &MODULE
                                    1011      17.     &MODULE  SETC  'VSD'
-
                                    1013      19.              REGS  ,,SR,TR,QR,RR,BRR,BR,WAR,RAR,CLWR,LCBR
1VSD      (VSD07) (09:49) (22MAR04) ORVYL'S SHOW AND DUMP COMMANDS                                                          Page    5
0Loc    Object Code    Addr1 Addr2  Stmt Lv Lineno    Source Statement           (Hibal 5, Asmedit 3.3)  HLASM R4.0  2004/03/22 09.49
+___    ______ ____    _____ _____  ____ __ ______    ______ _________
0                                   1151      21.              MACRO
                                    1152      22.     &L       BTD   &LOC,&LEN,&WORD,&SW,&COMMAS=NO
                                    1153      23.              LCLC  &CM
                                    1154      24.              AIF   ('&COMMAS' NE 'YES').NOCM
                                    1155      25.     &CM      SETC  'C'
                                    1156      26.     .NOCM    ANOP
                                    1157      27.     &L       SYSLR 15,&WORD,OP=L
                                    1158      28.              SYSLR 0,&LEN,TYPE=&SW
                                    1159      29.              SYSLR 1,&LOC
                                    1160      30.              XCALL BTD&CM
                                    1161      31.              MEND
                                    1162      32.
                                    1163      33.              MACRO
                                    1164      34.     &L       BTX   &LOC,&LEN,&WORD
                                    1165      35.     &L       SYSLR 15,&WORD,OP=L
                                    1166      36.              SYSLR 0,&LEN
                                    1167      37.              SYSLR 1,&LOC
                                    1168      38.              XCALL BTX
                                    1169      39.              MEND
                                    1170      40.
                                    1171      41.              MACRO
                                    1172      42.     &L       SYSONLY ,
                                    1173      43.     &L       LCALL SYSTEST
                                    1174      44.              MEND
                                    1175      45.
                                    1176      46.              MACRO
                                    1177      47.     &L       PRVBLOCK ,
                                    1178      48.     &L       LCALL PRVPTEST
                                    1179      49.              MEND
                                    1180      50.
                                    1181      51.              MACRO
                                    1182      52.     &L       EVAL  &DUMMY
                                    1183      53.     &L       LCALL EVAL
                                    1184      54.              MEND
                                    1185      55.
                                    1186      56.              MACRO
                                    1187      57.     &L       SEGDC &LEN,&WORD,&SW
                                    1188      58.     &L       SYSLR 15,&WORD,OP=L
                                    1189      59.              SYSLR 0,&LEN,TYPE=&SW
                                    1190      60.              LCALL SEGDC
                                    1191      61.              MEND
                                    1192      62.
                                    1193      63.              MACRO
                                    1194      64.     &L       SEGHX &LEN,&WORD
                                    1195      65.     &L       SYSLR 15,&WORD,OP=L
                                    1196      66.              SYSLR 0,&LEN
                                    1197      67.              LCALL SEGHX
                                    1198      68.              MEND
                                    1199      69.
                                    1200      70.              MACRO
                                    1201      71.     &L       SEGLC &WORD
                                    1202      72.     &L       SYSLR 15,&WORD,OP=L
                                    1203      73.              LCALL SEGLC
                                    1204      74.              MEND
1VSD      (VSD07) (09:49) (22MAR04) ORVYL'S SHOW AND DUMP COMMANDS                                                          Page    6
0Loc    Object Code    Addr1 Addr2  Stmt Lv Lineno    Source Statement           (Hibal 5, Asmedit 3.3)  HLASM R4.0  2004/03/22 09.49
+___    ______ ____    _____ _____  ____ __ ______    ______ _________
0                                   1207      77.              COPY  SCP
                                    1208             =*******************************************************************
                                    1209             =*                                                                 *
                                    1210             =*    SCP  -  Mode 1 Session Control Page                          *
                                    1211             =*                                                                 *
                                    1212             =*******************************************************************
0000000                00000 00294  1214             =SCP      RECORD BEGIN
 000000                             1222  1          =SCPID      DS    CL4'SCP'
                                    1223  1          =
 000008                             1224  1          =SCPPSW     DS    D                       RESUME PSW
 000010                             1225  1          =SCPGPRS    DS    16F                     RESUME GPRS
 000050                             1226  1          =SCPFPRS    DS    4D                      RESUME FPRS
                                    1227  1          =
 000070                             1228  1          =SCPXPSW    DS    D                       EXIT PSW
 000078                             1229  1          =SCPXGPRS   DS    16F                     EXIT GPRS
                                    1230  1          =
 0000B8                             1231  1          =SCPSBPSW   DS    D                       SESSION BREAK PSW
 0000C0                             1232  1          =SCPSBGPR   DS    16F                     SESSION BREAK GPRS
                                    1233  1          =
 000100                             1234  1          =SCPCLPSW   DS    D                       CLP ERROR PSW
 000108                             1235  1          =SCPCLPGP   DS    16F                     CLP ERROR GPRS
                                    1236  1          =
 000148                             1237  1          =SCPSVPSW   DS    D                       SVC ERROR PSW
 000150                             1238  1          =SCPSVGPR   DS    16F                     SVC ERROR GPRS
                                    1239  1          =
 000190                             1240  1          =SCPCTL8    DS    A                       CONTROL REGISTER 8 (MON CALL)
 000194                             1241  1          =SCPCTL9    DS    3A                      CONTROL REGISTERS 9-11 (PER)
                                    1242  1          =
 0001A0                             1243  1          =SCPPXA     DS    A                       PAGING EXCEPTION ADDR
 0001A4                             1244  1          =SCPIPSW    DS    A                       INTERRUPT PSW
 0001A8                             1245  1          =SCPPAN     DS    H                       PANIC CODE
                                    1246  1          =SCPPANSY   EQU   SCPPAN+1,1,C'X'         FOR ONE BYTE PANIC CODE
                                    1247  1          =
                                    1248  1          =PANOPER    EQU   1,,C'N'                 OPERATION ERROR
                                    1249  1          =PANPROT    EQU   4,,C'N'                 PROTECTION ERROR
                                    1250  1          =PANADDR    EQU   5,,C'N'                 ADDRESSING ERROR
                                    1251  1          =PANSPEC    EQU   6,,C'N'                 SPECIFICATION ERROR
                                    1252  1          =PANWAIT    EQU   16,,C'N'                MISSING WAIT ERROR
                                    1253  1          =
 0001AA                             1254  1          =SCPACCT    DS    C'GG.UUU'               SIGNED-ON ACCOUNT
                                    1255  1          =SCPUSER    EQU   SCPACCT+3,3,C'C'        SIGNED-ON USER
                                    1256  1          =SCPGROUP   EQU   SCPACCT,2,C'C'          SIGNED-ON GROUP
                                    1257  1          =*
                                    1258  1          =*SCPPACCT DS    C'GG.UUU'               PSEUDO ACCOUNT
                                    1259  1          =*SCPPUSER EQU   SCPPACCT+3,3,C'C'       PSEUDO USER
                                    1260  1          =*SCPPGRP  EQU   SCPPACCT,2,C'C'         PSEUDO GROUP
                                    1261  1          =*SCPPRIVS DS    X                       PSEUDO ACCOUNT PRIVS
 0001B0                             1262  1          =           DS    XL7                     SPARE
                                    1263  1          =
 0001B7                             1264  1          =SCPPRIV    DS    X                       ACCOUNT PRIVS
 0001B8                             1265  1          =SCPCLW     DS    A                       POINTER TO THE CLW
 0001BC                             1266  1          =SCPPCAT    DS    A                       PROGRAM CATALOG POINTER
1VSD      (VSD07) (09:49) (22MAR04) ORVYL'S SHOW AND DUMP COMMANDS                                                          Page    7
0D-Loc  Object Code    Addr1 Addr2  Stmt Lv Lineno    Source Statement           (Hibal 5, Asmedit 3.3)  HLASM R4.0  2004/03/22 09.49
+_____  ______ ____    _____ _____  ____ __ ______    ______ _________
00001C0                             1268  1          =SCPSID     DS    D                       SUSPEND ID
 0001C8                             1269  1          =SCPUCLK    DS    A                       USER CLOCK ID
 0001CC                             1270  1          =SCPUCXIT   DS    A                       USER CLOCK EXIT ID
 0001D0                             1271  1          =SCPCCLK    DS    A                       CLP CLOCK ID
 0001D4                             1272  1          =SCPCCXIT   DS    A                       CLP CLOCK EXIT ID
                                    1273  1          =
 0001D8                             1274  1          =SCPTXEP    DS    A                       TIMER EXIT ENTRY POINT
 0001DC                             1275  1          =SCPTXI     DS    A                       USER POINTER FOR TIMER EXIT
 0001E0                             1276  1          =SCPPXEP    DS    A                       PANIC EXIT ENTRY POINT
 0001E4                             1277  1          =SCPPXI     DS    A                       USER POINTER FOR PANIC EXIT
 0001E8                             1278  1          =SCPSXEP    DS    A                       SVC EXIT ENTRY POINT
 0001EC                             1279  1          =SCPSXI     DS    A                       USER POINTER FOR SVC EXIT
                                    1280  1          =
 0001F0                             1281  1          =SCPUMSIZ   DS    A                       ADDRESS SPACE LIMIT
 0001F4                             1282  1          =SCPRRSEG   DS    A                       LOW ADDR FOR RESERVE/RELEASE
 0001F8                             1283  1          =SCPRESRV   DS    H                       RESERVED (GETMAINED) PAGES
 0001FA                             1284  1          =SCPUNRSV   DS    H                       UNRESERVED PAGE COUNT
 0001FC                             1285  1          =SCPUMAP    DS    A                       USER MAP SIZE
                                    1286  1          =
 000200 00                          1287  1          =SCPFL      FLAG  ,                       FLAG BYTE
 SCPFL.SCPFERR     80 ONES          1291  1          =           FLAG  SCPFERR                 ERROR IN CLP
 SCPFL.SCPFPER     40 ONES          1296  1          =           FLAG  SCPFPER                 PER IS ACTIVE
 SCPFL.SCPFMON     20 ONES          1301  1          =           FLAG  SCPFMON                 MONITOR CALL IS ACTIVE
 SCPFL.SCPFPSEU    10 ONES          1306  1          =           FLAG  SCPFPSEU                PSUEDO USER SET
 SCPFL.SCPFSAM     08 ONES          1311  1          =           FLAG  SCPFSAM                 USER IS STAND-ALONE
 SCPFL.SCPFPRT     04 ONES          1316  1          =           FLAG  SCPFPRT                 USER PROGRAM "PROTECTED"
 SCPFL.SCPFTRU     02 ONES          1321  1          =           FLAG  SCPFTRU                 USER TRACE ACTIVE
 SCPFL.SCPFTRC     01 ONES          1326  1          =           FLAG  SCPFTRC                 CLP TRACE ACTIVE
                                    1331  1          =
 000201                             1332  1          =SCPKLUDG   DS    X     ***KLUDGE***      "KLUDGE" BYTE
 000202                             1333  1          =SCPTRASH   DS    X                       MEMORY CLEARING VALUE
 000203                             1334  1          =SCPJESR    DS    X                       NUMBER OF JES READERS IN USE
                                    1335  1          =
 000204                             1336  1          =SCPPER     DS    A                       PER INTERRUPT CODE,ADDRESS
 000208                             1337  1          =SCPMON     DS    A                       MONITOR INTERRUPT CODE,ADDRESS
                                    1338  1          =
 00020C                             1339  1          =SCPIDT     DS    A                       I/O ID TABLES
 000210                             1340  1          =SCPNIDT    DS    H                       NUMBER OF ID BLOCKS
 000212                             1341  1          =SCPQIDT    DS    H                       ENQ/DEQ ID TABLE
                                    1342  1          =
                                    1343  1          =SCPCWASZ   EQU   16,,C'N'                SIZE OF COMMON WORK AREA
 000214                             1344  1          =SCPCWA     DS    (SCPCWASZ)X
                                    1345  1          =
                                    1346  1          =CLWIBUFL   EQU   235                     LENGTH OF COMMAND BUFFER
 000224                             1347  1          =SCPCMDP    DS    A                       =>AL2(LEN),CL133'COMMAND'
 000228                             1348  1          =SCPPARMP   DS    A                       =>AL2(LEN),CL133'PARM'
 00022C                             1349  1          =SCPLCMDL   DS    H                       LENGTH OF LAST CMD
 00022E                             1350  1          =SCPLCMD    DS    CL40                    LAST COMMAND
                                    1351  1          =
 000256                             1352  1          =SCPNENQ    DS    H                       NUMBER OF ALLOWED ENQ'S
 000258                             1353  1          =SCPENQL    DS    A                       ENQUEUE ID TABLE ADDRESS
                                    1354  1          =
 00025C                             1355  1          =SCPTRACE   DS    A                       MODE 1 TRACE BUFFER CHAIN
1VSD      (VSD07) (09:49) (22MAR04) ORVYL'S SHOW AND DUMP COMMANDS                                                          Page    8
0D-Loc  Object Code    Addr1 Addr2  Stmt Lv Lineno    Source Statement           (Hibal 5, Asmedit 3.3)  HLASM R4.0  2004/03/22 09.49
+_____  ______ ____    _____ _____  ____ __ ______    ______ _________
0                                   1357  1          =*******************************************************************
                                    1358  1          =*                                                                 *
                                    1359  1          =*    SCB  -  Mode 1 Session Control Block                         *
                                    1360  1          =*                                                                 *
                                    1361  1          =*******************************************************************
0000260 00                          1363  1          =SCBWFL     FLAG  ,                       WAIT FLAGS
 SCBWFL.SCBFWAIT   80 ONES          1367  1          =           FLAG  SCBFWAIT                WAITING
                                    1372  1          =
 000261 00                          1373  1          =SCBCFL     FLAG  ,                       COMMON FLAGS
 SCBCFL.SCBCFALP   80 ONES          1377  1          =           FLAG  SCBCFALP                AUTO LOGOFF BEING PROCESSED
 SCBCFL.SCBCFCLA   40 ONES          1382  1          =           FLAG  SCBCFCLA                IDLE ATTN IN CLP
 SCBCFL.SCBCFAX    20 ONES          1387  1          =           FLAG  SCBCFAX                 BRANCH TO ATTENTION EXIT
 SCBCFL.SCBCFNMA   10 ONES          1392  1          =           FLAG  SCBCFNMA                SUPPRESS MULTIPLE ATTN BREAK
 SCBCFL.SCBFNESC   08 ONES          1397  1          =           FLAG  SCBFNESC                FORCE SESSION BREAK ON ATTN
                                    1402  1          =
 000262 00                          1403  1          =SCBFL      FLAG  ,                       FLAGS
 SCBFL.SCBFCLP     80 ONES          1407  1          =           FLAG  SCBFCLP                 CLP IN CONTROL
 SCBFL.SCBFSVC     40 ONES          1412  1          =           FLAG  SCBFSVC                 USER IS IN SVC PROCESSING
 SCBFL.SCBFNPUP    20 ONES          1417  1          =           FLAG  SCBFNPUP                NO PSW CC CHANGES
 SCBFL.SCBFASLK    10 ONES          1422  1          =           FLAG  SCBFASLK                ADDRESS SPACE LOCK HELD
 SCBFL.SCBFPCLP    08 ONES          1427  1          =           FLAG  SCBFPCLP                PSEUDO CLP
                                    1432  1          =
 000263 00                          1433  1          =SCBTFL     FLAG  ,                       TIMER FLAGS
 SCBTFL.SCBTUTR    80 ONES          1437  1          =           FLAG  SCBTUTR                 USER TIMER RUNNING
 SCBTFL.SCBTUCT    40 ONES          1442  1          =           FLAG  SCBTUCT                 USER TIMING CPU TIME
 SCBTFL.SCBTCPTR   20 ONES          1447  1          =           FLAG  SCBTCPTR                COMMAND TIMER RUNNING
 SCBTFL.SCBTCPCT   10 ONES          1452  1          =           FLAG  SCBTCPCT                COMMAND TIMING CPU TIME
 SCBTFL.SCBTCPQU   08 ONES          1457  1          =           FLAG  SCBTCPQU                "QUEUED" TIMER RUNNING
                                    1462  1          =
 000264 00                          1463  1          =SCBMB      FLAG  ,                       EXIT ENABLED FLAG
                                    1467  1          =*
                                    1468  1          =* FOLLOWING FLAGS USED FOR BOTH SCBMB AND SCBXFL
                                    1469  1          =*
 000265 00                          1470  1          =SCBXFL     FLAG   ,                      EXIT FLAGS
 SCBXFL.SCBXT      80 ONES          1474  1          =           FLAG  SCBXT                   TIMER EXIT
 SCBXFL.SCBXA      40 ONES          1479  1          =           FLAG  SCBXA                   ATTN EXIT
 SCBXFL.SCBXW      20 ONES          1484  1          =           FLAG  SCBXW                   WAIT EXIT
 SCBXFL.SCBXP      10 ONES          1489  1          =           FLAG  SCBXP                   PANIC EXIT
 SCBXFL.SCBXCPT    08 ONES          1494  1          =           FLAG  SCBXCPT                 CLP TIMER EXIT
 SCBXFL.SCBXALO    04 ONES          1499  1          =           FLAG  SCBXALO                 AUTO LOGOFF
 SCBXFL.SCBDEFMB   F0 NZ            1504  1          =           FLAG  (SCBDEFMB,SCBXT+SCBXA+SCBXW+SCBXP)  DEFAULT
                                    1524  1          =
 000268                             1525  1          =SCBSPB     DS    A                       SPB POINTER
 00026C                             1526  1          =SCBENQ     DS    A                       ENQUEUE ID
 000270                             1527  1          =SCPEPXIT   DS    A                       ENQUEUE POST EXIT ID
                                    1528  1          =
 000278                             1529  1          =           DS    D                       Available
 000280                             1530  1          =SCBPNAML   DS    H                       LENGTH OF THE PROGRAM NAME
 000282                             1531  1          =SCBPNAM    DS    CL8                     PROGRAM NAME
 00028A                             1532  1          =SCBUPRI    DS    X                       USER PRIORITY
                                    1533  1          =*
                                    1534  1          =* Shared symbol control
                                    1535  1          =*
 00028C                             1536  1          =SCBSSAB    DS    A                       POINTER TO SSAB CHAIN
                                    1537  1          =
1VSD      (VSD07) (09:49) (22MAR04) ORVYL'S SHOW AND DUMP COMMANDS                                                          Page    9
0D-Loc  Object Code    Addr1 Addr2  Stmt Lv Lineno    Source Statement           (Hibal 5, Asmedit 3.3)  HLASM R4.0  2004/03/22 09.49
+_____  ______ ____    _____ _____  ____ __ ______    ______ _________
0000290                             1538  1          =SCBWAITB   DS    A         WAIT BLOCK PTR (SEE M1GOWAIT IN M1SERV)
 000294                00294 00294  1539             =         END
1VSD      (VSD07) (09:49) (22MAR04) ORVYL'S SHOW AND DUMP COMMANDS                                                          Page   10
0Loc    Object Code    Addr1 Addr2  Stmt Lv Lineno    Source Statement           (Hibal 5, Asmedit 3.3)  HLASM R4.0  2004/03/22 09.49
+___    ______ ____    _____ _____  ____ __ ______    ______ _________
0                                   1549      79.              COPY  CLW
                                    1550             =*
                                    1551             =*                   COMMAND LANGUAGE WORK AREA
                                    1552             =*
                                    1553             =* ORGANIZATION:
                                    1554             =*
                                    1555             =*        COMMONLY USED CLP FLAGS, COMMAND BUFFERS AND OTHER CONTROL
                                    1556             =*        INFORMATION FOLLOW THE SESSION CONTROL PAGE INFORMATION.
                                    1557             =*        THE BALANCE OF THIS PAGE IS THE CLP SAVE AREA STACK.
                                    1558             =*
 000000                00000 00618  1559             =CLW      RECORD BEGIN
 000000                             1567  1          =CLWSTART   DS    0F
 000000                             1568  1          =CLWSCP     DS    A                       POINTER TO THE SCP
 000004                             1569  1          =           DS    5A                      AVAILABLE
 000018                             1570  1          =CLWUWST    DS    A                       STARTING LOC OF USER WORK AREA
 00001C                             1571  1          =CLWUPST    DS    A                       STARTING LOC OF USER PROGRAM
 000020                             1572  1          =CLWUPML    DS    A                       MAXIMUM LEN OF USER PROGRAM
 000024                             1573  1          =CLWUPRSV   DS    H                       USER PROGRAM RESERVE COUNT
 000026                             1574  1          =CLWUPURV   DS    H                       USER PROGRAM UN-RESERVE COUNT
 000028                             1575  1          =CLWIBUFN   DS    H                       LENGTH OF INPUT LINE
 00002A 606E40                      1576  1          =           DC    C'-> '
 00002D                             1577  1          =CLWIBUF    DS    CL235                   INPUT BUFFER
                                    1578  1          =
 000118                             1579  1          =CLWOBUF    DS    2H                      WRITE/PROMPT COUNTS
 00011C                             1580  1          =           DS    CL235                   OUTPUT BUFFER
                                    1581  1          =CLWOBUFL   EQU   *-CLWOBUF-4
                                    1582  1          =*                                      SESSION BREAK FLAGS:
 000207 00                          1583  1          =CLWFL      FLAG  ,                       ZEROED AT SESSION BREAK START
 CLWFL.CLWFTYPD    80 ONES          1587  1          =           FLAG  CLWFTYPD                CURRENT COMMAND WAS TYPED
 CLWFL.CLWFCMD     40 ONES          1592  1          =           FLAG  CLWFCMD                 PROCESSING COMMAND SVC
 CLWFL.CLWFWYL     20 ONES          1597  1          =           FLAG  CLWFWYL                 COMMAND HAS BEEN TO WYLBUR
                                    1602  1          =
 000208 00                          1603  1          =CLWFLG     FLAG  ,                       FLAGS
 CLWFLG.CLWFCERR   80 ONES          1607  1          =           FLAG  CLWFCERR                COMMAND ERROR: EXE BREAK
 CLWFLG.CLWFGPW    40 ONES          1612  1          =           FLAG  CLWFGPW                 GET-PUT WORK AREA ALLOCATED
 CLWFLG.CLWFTTRP   20 ONES          1617  1          =           FLAG  CLWFTTRP                TEMPORARY TRAP SET
 CLWFLG.CLWFTRAP   10 ONES          1622  1          =           FLAG  CLWFTRAP                TRAP IN PROGRESS
 CLWFLG.CLWFOSC    08 ONES          1627  1          =           FLAG  CLWFOSC                 READ/WRITE REAL (OS) CORE
 CLWFLG.CLWFQMSG   04 ONES          1632  1          =           FLAG  CLWFQMSG                "QUEUED" MESSAGE SENT
 CLWFLG.CLWFM31    02 ONES          1637  1          =           FLAG  CLWFM31                 PROGRAM IN 31 BIT MODE
                                    1642  1          =
 000209 00                          1643  1          =CLWPFL     FLAG  ,                       PROGRAM FLAGS
 CLWPFL.CLWPFSUP   80 ONES          1647  1          =           FLAG  CLWPFSUP                LINK AREA SET UP
 CLWPFL.CLWPFPL    40 ONES          1652  1          =           FLAG  CLWPFPL                 PROGRAM LOADING
 CLWPFL.CLWPFPIC   20 ONES          1657  1          =           FLAG  CLWPFPIC                PROGRAM ENTERED
 CLWPFL.CLWPFRUN   10 ONES          1662  1          =           FLAG  CLWPFRUN                EXECUTE PROGRAM
 CLWPFL.CLWPFPAU   08 ONES          1667  1          =           FLAG  CLWPFPAU                PAUSE BEFORE EXECUTION
 CLWPFL.CLWPFPRV   04 ONES          1672  1          =           FLAG  CLWPFPRV                PRIVATE PROGRAM
 CLWPFL.CLWPFPRT   02 ONES          1677  1          =           FLAG  CLWPFPRT                PROGRAM PROTECTED
 CLWPFL.CLWPFSHR   01 ONES          1682  1          =           FLAG  CLWPFSHR                SHARED PROGRAM LOADED
                                    1687  1          =
 00020A 00                          1688  1          =CLWMFL     FLAG  ,                       MISCELLANEOUS FLAGS
 CLWMFL.CLWMEVCN   80 ONES          1692  1          =           FLAG  CLWMEVCN                CONTINUE AFTER EVENTS
 CLWMFL.CLWMMNCN   40 ONES          1697  1          =           FLAG  CLWMMNCN                CONTINUE AFTER MONITORS
 CLWMFL.CLWMBSUC   20 ONES          1702  1          =           FLAG  CLWMBSUC                SIMULATED BRANCH SUCCESSFUL
 CLWMFL.CLWMNCST   10 ONES          1707  1          =           FLAG  CLWMNCST                SUPPRESS AUTOMATIC COST PRINT
1VSD      (VSD07) (09:49) (22MAR04) ORVYL'S SHOW AND DUMP COMMANDS                                                          Page   11
0Loc    Object Code    Addr1 Addr2  Stmt Lv Lineno    Source Statement           (Hibal 5, Asmedit 3.3)  HLASM R4.0  2004/03/22 09.49
+___    ______ ____    _____ _____  ____ __ ______    ______ _________
0CLWMFL.CLWMCLRP   08 ONES          1712  1          =           FLAG  CLWMCLRP                UNREC. CLR FOUND
 CLWMFL.CLWMNOL    04 ONES          1717  1          =           FLAG  CLWMNOL                 DON'T PRINT ON CONT. EVENTS
 CLWMFL.CLWMDSUP   02 ONES          1722  1          =           FLAG  CLWMDSUP                DUMP AREA SET UP
 CLWMFL.CLWMDUMP   01 ONES          1727  1          =           FLAG  CLWMDUMP                DUMP COMMAND BEING PROCESSED
                                    1732  1          =
 00020B 00                          1733  1          =CLWMONF    FLAG  ,                       PROGLOOK/MONITOR FLAGS
 CLWMONF.CLWFMWP   80 ONES          1737  1          =           FLAG  CLWFMWP                 MONITOR WORK PAGE EXISTS
 CLWMONF.CLWFPRGL  40 ONES          1742  1          =           FLAG  CLWFPRGL                PROGLOOK IN PROGRESS
 CLWMONF.CLWDOTIM  20 ONES          1747  1          =           FLAG  CLWDOTIM                SET TIMER AT RUN
 CLWMONF.CLWCPTIM  10 ONES          1752  1          =           FLAG  CLWCPTIM                SET CPU TIME TIMER
                                    1757  1          =
 00020C 00                          1758  1          =CLWSFL     FLAG  ,                       SESSION FLAGS
 CLWSFL.CLWSSAM    80 ONES          1762  1          =           FLAG  CLWSSAM                 STAND ALONE MODE
 CLWSFL.CLWSSP     40 ONES          1767  1          =           FLAG  CLWSSP                  SPECIAL PERSON
                                    1772  1          =
 00020D                             1773  1          =           DS    X
                                    1774  1          =
 00020E                             1775  1          =CLWEXSVC   DS    H                       EXIT SVC
 000210                             1776  1          =CLWPSVC    DS    H                       PAUSE/TRAP SVC
 000212                             1777  1          =CLWCSVC    DS    H                       COMMAND SVC
                                    1778  1          =
 000214                             1779  1          =CLWDSP     DS    X                       DISPATCHING PRIORITY
 000215                             1780  1          =CLWPFS     DS    X                       PARAMTER FLAG SAVE
 000218                             1781  1          =CLWPS      DS    3F                      PARAMETER SAVE
                                    1782  1          =
 000224                             1783  1          =CLWMLMOD   DS    F                       MILTEN MODE WORD
 000228                             1784  1          =CLWWLMOD   DS    F                       WYLBUR MODE WORD
                                    1785  1          =
 00022C                             1786  1          =CLWTIMER   DS    A                       TIMER VALUE TO BE SET AT RUN
 000230                             1787  1          =CLWTIMAX   DS    H                       MAX TIMER INTERVAL (IN .1 SEC)
 000232                             1788  1          =CLWTIVAL   DS    H                       CURRENT TIMER INTERVAL
 000234                             1789  1          =CLWTMAX    DS    H                       CPU TIME LIMIT
 000236                             1790  1          =CLWTIME    DS    H                       CURRENT CPU TIME
 000238                             1791  1          =CLWPELT    DS    A                       ELAPSED TIME
 00023C                             1792  1          =CLWPCVM    DS    A                       VM CHARGES
 000240                             1793  1          =CLWPIOS    DS    A                       I/O COUNTS
 000244                             1794  1          =CLWPCUSE   DS    A                       CPU TIME
                                    1795  1          =
 000248                             1796  1          =CLWPROGN   DS    CL8                     PROGRAM NAME
 000250                             1797  1          =CLWLNKP    DS    A                       LINK PAGE POINTER
 000254                             1798  1          =CLWGPWP    DS    A                       GET-PUT WORK PAGE POINTER
 000258                             1799  1          =CLWMONP    DS    A                       MONITOR/PROGLOOK PAGE
 00025C                             1800  1          =CLWSPB     DS    A                       SHARED PROGRAM BLOCK
 000260                             1801  1          =CLWDUMPB   DS    A                       POINTER TO DUMP BUFFER
                                    1802  1          =
 000264                             1803  1          =CLWPER     DS    A                       PER INFO
 000268                             1804  1          =CLWMON     DS    A                       MONITOR INFO
                                    1805  1          =
 00026C                             1806  1          =CLWEVCNT   DS    A                       NUMBER OF EVENTS TO EXECUTE
 000270                             1807  1          =CLWTRAPA   DS    A                       ADDR OF INST BEING TRAPPED
 000274                             1808  1          =CLWTRAPB   DS    A                       ADDR OF INST AFTER
 000278                             1809  1          =CLWTRAPI   DS    3H                      INSTRUCTION BEING TRAPPED
 00027E                             1810  1          =CLWTRAPJ   DS    H                       1ST HALFWORD OF INST AFTER
                                    1811  1          =
                                    1812  1          =CLWNTRAP   EQU   8,,C'N'                 NO. OF TRAPS
 000280                             1813  1          =CLWTRAPS   DS    (CLWNTRAP)XL5           TRAP TABLE
1VSD      (VSD07) (09:49) (22MAR04) ORVYL'S SHOW AND DUMP COMMANDS                                                          Page   12
0Loc    Object Code    Addr1 Addr2  Stmt Lv Lineno    Source Statement           (Hibal 5, Asmedit 3.3)  HLASM R4.0  2004/03/22 09.49
+___    ______ ____    _____ _____  ____ __ ______    ______ _________
00002A8                             1814  1          =CLWTTRAP   DS    XL5                     TEMPORARY TRAP
                                    1815  1          =*
                                    1816  1          =* KEYWORD FILE RECORD AREA
                                    1817  1          =*
 0002AD                             1818  1          =CLWKFL     DS    X                       KEYWORD FILE FLAGS
                                    1819  1          =
                                    1820  1          =CLWKFAC    EQU   X'80'                   PROGRAM AUTO CALL
                                    1821  1          =CLWKFMP    EQU   X'40'                   PROGRAM MANDATORY
                                    1822  1          =
 0002AE                             1823  1          =CLWKACC    DS    CL5                     ACCOUNT FOR PROGRAM SEARCH
 0002B3                             1824  1          =CLWKPROG   DS    CL8                     DEFAULT/MANDATORY PROGRAM
 0002BB                             1825  1          =CLWKMISC   DS    CL8                     MISCELLANEOUS FIELDS
                                    1826  1          =*
                                    1827  1          =*  SCANNER UTILITY AREA
                                    1828  1          =*
                                    1829  1          =           SCANCB PFX=CLWKW
 0002C4                             1830  1 01-SCANC +CLWKWCB    DS    0F
 0002C4                             1831  1 01-SCANC +CLWKWVAL   DS    A                       VALUE RETURNED
 0002C8                             1832  1 01-SCANC +CLWKWKW    DS    CL8                     CURRENT KEY WORD
 0002D0                             1833  1 01-SCANC +CLWKWLEN   DS    A                       LENGTH LEFT TO SCAN
 0002D4                             1834  1 01-SCANC +CLWKWLOC   DS    A                       NEXT THING TO SCAN
 0002D8                             1835  1 01-SCANC +CLWKWRA    DS    A                       RETURN ADDRESS
 0002DC                             1836  1 01-SCANC +CLWKWPRT   DS    A                       ROUTING TABLE ADDRESS
 0002E0                             1837  1 01-SCANC +CLWKWCLT   DS    A                       SCAN TYPE
                                    1838  1          +*                                      0 = NORMAL SCAN
                                    1839  1          +*                                      4 = EXPRESSION ISOLATION
                                    1840  1          +*                                      8 = EXPRESSION SCAN
                                    1841  1 01-SCANC +CLWKWCBL   EQU *-CLWKWCB
                                    1842  1          =
 0002E8                             1843  1          =CLWTEMP    DS    4D                      WORK AREA
                                    1844  1          =
 000308                             1845  1          =CLWDELTA   DS    F                       Wylbr line delta
 00030C                             1846  1          =           DS    F                       Spare
 000310                             1847  1          =CLWEVHST   DS    8D                      EVENT HISTORY
 000350                             1848  1          =CLWEVENT   DS    D                       LAST EVENT INFO
 000358                             1849  1          =CLWQRET    DS    3F                      QUICK RETURN FOR VSUB
                                    1850  1          =*                                      SAVE AREA FOR BRR,BR,WAR
                                    1851  1          =*
 000368                             1852  1          =CLWSBPSW   DS    D                       SESSION BREAK PSW
 000370                             1853  1          =CLWSBGPR   DS    16F                     SESSION BREAK GPRS
 0003B0                             1854  1          =CLWACCT    DS    C'GG.UUU'               USER ACCOUNT
                                    1855  1          =CLWUSER    EQU   CLWACCT+3,3,C'C'        USER
                                    1856  1          =CLWGROUP   EQU   CLWACCT,2,C'C'          GROUP
 0003B8                             1857  1          =CLWIDT     DS    A                       ADDRESS OF THE IDTS
 0003BC                             1858  1          =CLWNIDT    DS    H                       NUMBER OF IDTS
 0003C0                             1859  1          =           DS    0F                      START OF SAVE AREA
 0003C0                             1860  1          =CLWSVA     DS    XL600                   SAVE STACK
                                    1861  1          =CLWSVAEN   EQU   *-4,4,C'X'              LAST WORD OF THE STACK
 000618                00618 00618  1862             =         END   ,
1VSD      (VSD07) (09:49) (22MAR04) ORVYL'S SHOW AND DUMP COMMANDS                                                          Page   13
0Loc    Object Code    Addr1 Addr2  Stmt Lv Lineno    Source Statement           (Hibal 5, Asmedit 3.3)  HLASM R4.0  2004/03/22 09.49
+___    ______ ____    _____ _____  ____ __ ______    ______ _________
0                                   1872      81.              COPY  CSD
 000000                00000 00018  1873             =CSD      RECORD BEGIN
                                    1881  1          =*
                                    1882  1          =* CSD FORMAT
                                    1883  1          =*
 000000                             1884  1          =CSDSTART   DS    0F
 000000                             1885  1          =CSDLINK    DS    A                       ALPHABETICAL LINKING
 000004                             1886  1          =CSDNAME    DS    CL8                 NAME
 00000C                             1887  1          =CSDTYP     DS    XL1                     TYPE
                                    1888  1          =*
                                    1889  1          =* CESD TYPES ARE SAME AS ESD TYPES. FOR CHA/REP/DEL LIST USE FOLLOWING:
                                    1890  1          =CSDTCHA    EQU   X'F0',,C'N'             CHANGE SYMBOL
                                    1891  1          =CSDTREP    EQU   X'E0',,C'N'             REPLACE ESD
                                    1892  1          =CSDTDEL    EQU   X'D0',,C'N'             DELETE ESD
                                    1893  1          =
 00000D                0000D 0000C  1894  1          =           ORG   CSDTYP
 00000C                             1895  1          =CSDADDR    DS    A                   ADDRESS
 000010                             1896  1          =CSDLNG     DS    A                   SECTION LENGTH (SD,PC,CM)
 000014                             1897  1          =CSDREL     DS    A                   RELOC DELTA (SD,PC,CM)-WATCH CSDFL
                                    1898  1          =***
 000018                00018 00010  1899  1          =           ORG   CSDLNG
 000010                             1900  1          =CSDSDC     DS    A                   SD CHAIN (LD)
 000014 00                          1901  1          =CSDFL      FLAG  ,                       FLAGS
 CSDFL.CSDFPRCL    80 ONES          1905  1          =           FLAG  CSDFPRCL                PSEUDO REG CUM LENGTH
 CSDFL.CSDFDEF     40 ONES          1910  1          =           FLAG  CSDFDEF                 ENTRY IS DEFINED
 CSDFL.CSDFDUP     20 ONES          1915  1          =           FLAG  CSDFDUP                 DUPLICATE DEF
 CSDFL.CSDFCALL    10 ONES          1920  1          =           FLAG  CSDFCALL                OBTAINED BY AUTO LIBE CALL
 CSDFL.CSDFPAG     08 ONES          1925  1          =           FLAG  CSDFPAG                 SD ON PAGE BOUNDARY.
                                    1930  1          =
 000016                             1931  1          =CSDSDID    DS    H                   (LR) SDID OF CONTAINING CSECT
                                    1932  1          =
 000018                00018 00010  1933  1          =           ORG   CSDLNG
 000010                             1934  1          =CSDNAM2    DS    CL8                 SECOND NAME FOR CHA/REP
                                    1935  1          =***
 000018                00018 00018  1936  1          =           ORG
 000018                             1937  1          =CSDNXT     DS    0F
 000018                00018 00018  1938             =         END   ,
1VSD      (VSD07) (09:49) (22MAR04) ORVYL'S SHOW AND DUMP COMMANDS                                                          Page   14
0Loc    Object Code    Addr1 Addr2  Stmt Lv Lineno    Source Statement           (Hibal 5, Asmedit 3.3)  HLASM R4.0  2004/03/22 09.49
+___    ______ ____    _____ _____  ____ __ ______    ______ _________
0000000                00000 00100  1948      83.     LNKPAGE  RECORD BEGIN
                                    1956  1   84.                COPY  LCB
                                    1957  1          =*  LOADER CONTROL BLOCK
                                    1958  1          =*
                                    1959  1          =*        THE ITEMS MARKED (SET) MUST BE INITIALIZED BY THE CALLER
                                    1960  1          =*        BEFORE THE CALL TO LDINIT. THESE VALUES ARE NOT CHANGED BY
                                    1961  1          =*        THE LOADER. ALL OTHER  CELLS IN THE CONTROL BLOCK ARE SET
                                    1962  1          =*        AND MAINTAINED BY THE LOADER.
                                    1963  1          =*
 000000                             1964  1          =LCBSTART   DS    0F                      LOADER CONTROL BLOCK
 000000                             1965  1          =LCBCORE    DS    A                       START OF USER PROGRAM AREA (SET)
 000004                             1966  1          =LCBCLEN    DS    A                       LEN OF USER PROGRAM AREA (SET)
 000008                             1967  1          =LCBMAP     DS    A                       START OF MAP AREA (SET)
 00000C                             1968  1          =LCBMPLEN   DS    A                       LEN OF MAP AREA (SET)
 000010                             1969  1          =LCBRF      DS    A                       RELOCATION FACTOR (SET)
 000014                             1970  1          =LCBCI      DS    CL80                    CARD IMAGE (SET FOR EACH LDGO)
 000064                             1971  1          =LCBIDRFL   DS    AL4                     FLAGS FOR/FROM LOAD MODULE
 000068                00068 00064  1972  1          =           ORG   LCBIDRFL                OVERLAY FLAGS
 000064 00                          1973  1          =LCBXFL     FLAG  ,
 LCBXFL.LCBXFOSN   80 ONES          1977  1          =           FLAG  (LCBXFOSN,X'80')        USE OS ENTRY CONVENTIONS
 LCBXFL.LCBXFOS    40 ONES          1986  1          =           FLAG  (LCBXFOS,X'40')         INTERCEPT OS SVCS
 LCBXFL.LCBXFFRT   20 ONES          1995  1          =           FLAG  (LCBXFFRT,X'20')        LINK TO FORTRAN LIBRARY
 LCBXFL.LCBXFTST   10 ONES          2004  1          =           FLAG  (LCBXFTST,X'10')        TEST ATTRIBUTE
 LCBXFL.LCBXFURM   02 ONES          2013  1          =           FLAG  (LCBXFURM,X'02')        LINK TO URAM
                                    2022  1          =
 000065                             2023  1          =LCBYFL     DS    X
                                    2024  1          =
 000066                             2025  1          =LCBZFL     DS    X
                                    2026  1          =
 000067                             2027  1          =LCBWFL     DS    X
 000068                             2028  1          =LCBMCCW    DS    2A                      CCW FOR READING MODULE TEXT
 000070                             2029  1          =LCBEP      DS    A                       ENTRY POINT
 000074                             2030  1          =LCBMXC     DS    F                       MAX RETURN CODE SO FAR
 000078                             2031  1          =LCBLC      DS    F                       LOCATION COUNTER
 00007C 00                          2032  1          =LCBFL      FLAG  ,                       FLAGS FOR LOADER
 LCBFL.LCBUNDEF    80 ONES          2036  1          =           FLAG  (LCBUNDEF,X'80')        SEARCH IS FOR UNDEFINEDS
 LCBFL.LCBFATN     40 ONES          2045  1          =           FLAG  (LCBFATN,X'40')         ATTENTION ON ERROR MESSAGE
 LCBFL.LCBFPAGN    20 ONES          2054  1          =           FLAG  (LCBFPAGN,X'20')        NEXT MODULE GETS PAGE ALIGNMENT
 LCBFL.LCBFMI      08 ONES          2063  1          =           FLAG  (LCBFMI,X'08')          PROCESSING LOAD MODULE INPUT
 LCBFL.LCBFMO      04 ONES          2072  1          =           FLAG  (LCBFMO,X'04')          PRODUCING LOAD MODULE OUTPUR
 LCBFL.LCBFPAG     01 ONES          2081  1          =           FLAG  (LCBFPAG,X'01')         MODULE REQUIRES PAGE ALIGNMENT
 00007D                             2090  1          =LCBSEQ     DS    PL3                      SEQUENCE NO.
 000080                             2091  1          =LCBIDENT   DS    CL4                     MODULE IDENT
0                                   2093  1          =* CSD - CONSOLIDATED SYMBOL DIRECTORY
                                    2094  1          =*
 000084                             2095  1          =LCBCHF     DS    A                       L(FIRST FREE CSD ENTRY)
                                    2096  1          =LCBCSD     EQU   LCBMAP                  CSD TABLE ADDRESS
 000088                             2097  1          =LCBCSDH    DS    A                       HEAD  OF CSD CHAIN
 00008C                             2098  1          =LCBCSDLC   DS    A                       CSD LOCATION COUNTER
                                    2099  1          =*        .
                                    2100  1          =*        CSD AND RLD GROW TOWARDS EACH OTHER
                                    2101  1          =*        .
                                    2102  1          =* RLD - RELOCATION DICTIONARY
 000090                             2103  1          =LCBRLDLC   DS    A                       RLD LOCATION COUNTER
 000094                             2104  1          =LCBRHF     DS    A                       L(FIRST FREE RLD ENTRY)
1VSD      (VSD07) (09:49) (22MAR04) ORVYL'S SHOW AND DUMP COMMANDS                                                          Page   15
0Loc    Object Code    Addr1 Addr2  Stmt Lv Lineno    Source Statement           (Hibal 5, Asmedit 3.3)  HLASM R4.0  2004/03/22 09.49
+___    ______ ____    _____ _____  ____ __ ______    ______ _________
0000098                             2105  1          =LCBRLD     DS    A
0                                   2107  1          =* SD - CSECT (SD) ID TABLE
                                    2108  1          =*
 00009C                0009C 00098  2109  1          =           ORG   LCBRLD                  ... RLD AND SD TABLES MEET
 000098                             2110  1          =LCBSD      DS    A                       SD TABLE
 00009C                             2111  1          =LCBSDLC    DS    A                       SD TABLE ALLOCATOR
 0000A0                             2112  1          =LCBSDEND   DS    A                       SD TABLE LIMIT
0                                   2114  1          =* RNT - RENUMBERING TABLE
                                    2115  1          =*
 0000A4                000A4 000A0  2116  1          =           ORG   LCBSDEND                ... SD AND RNT TABLES MEET
 0000A0                             2117  1          =LCBRNT     DS    A                       RNT TABLE ADDRESS
 0000A4                             2118  1          =LCBNRNTE   DS    H                       NUMBER OF RNT ENTRIES
 0000A8                             2119  1          =LCBLSD     DS    A                       CSD POINTER (LENGTH ON END CARD)
 0000AC                             2120  1          =LCBCHRPH   DS    A                       CHANGE/REPLACE LIST HEAD
 0000B0                             2121  1          =LCBALIH    DS    A                       ALIAS CHAIN HEAD
 0000B4                             2122  1          =LCBSRCH    DS    2A                      SAVE AREA FOR CSD SCAN
 0000BC                             2123  1          =LCBMLEN    DS    A                       LENGTH OF LOAD MODULE
0                                   2125  1          =* MODULE OUTPUT CONTROL
                                    2126  1          =*
 0000C0                             2127  1          =LCBMOCSD   DS    A                       CSD POINTER/MODULE OUTPUT
 0000C4                             2128  1          =LCBMORNT   DS    A                       RNT POINTER/MODULE OUTPUT
 0000C8                             2129  1          =LCBMOLC    DS    A                       TEXT POINTER/MODULE OUTPUT
 0000CC                             2130  1          =LCBMOSD    DS    A                       SD POINTER/MODULE OUTPUT
 0000D0                             2131  1          =LCBMOMTB   DS    H                       MAX TEXT BLOCK/MODULE OUTPUT
 0000D2                             2132  1          =LCBMOID    DS    H                       CURRENT ESD ID/MODULE OUTPUT
 0000D4                             2133  1          =LCBMORLD   DS    A                       RLD POINTER/MODULE OUTPUT
 0000D8                             2134  1          =LCBMOCCW   DS    2A                      ADDR,LEN/MODULE TEXT OUTPUT
 0000E0                             2135  1          =LCBMOSID   DS    H                       ID OF SD FOR CURRENT LR'S
 0000E2 00                          2136  1          =LCBMFL     FLAG  ,                       MODULE I/O FLAGS
 LCBMFL.LCBMFCSD   80 ONES          2140  1          =           FLAG  LCBMFCSD                CSD OUTPUT FINISHED
 LCBMFL.LCBMFIDR   40 ONES          2145  1          =           FLAG  LCBMFIDR                IDR OUTPUT FINISHED
 LCBMFL.LCBMFTXT   20 ONES          2150  1          =           FLAG  LCBMFTXT                TEXT OUTPUT FINISHED
 LCBMFL.LCBMFCCW   10 ONES          2155  1          =           FLAG  LCBMFCCW                CCW DEFINED FOR TEXT OUTPUT
 LCBMFL.LCBMFRLD   08 ONES          2160  1          =           FLAG  LCBMFRLD                RLD OUTPUT FINISHED
 LCBMFL.LCBMFSDD   04 ONES          2165  1          =           FLAG  LCBMFSDD                ALL SD ESD'S OUTPUT
 0000E3                000E3 00100  2170  1          =           ORG   LCBSTART+256
 000100                             2171  1          =LCBEND     DS    0F
                                    2172  1          =LCB        EQU   LCBSTART,*-LCBSTART
 000100                00100 00100  2173      85.              END   ,
1VSD      (VSD07) (09:49) (22MAR04) ORVYL'S SHOW AND DUMP COMMANDS                                                          Page   16
0Loc    Object Code    Addr1 Addr2  Stmt Lv Lineno    Source Statement           (Hibal 5, Asmedit 3.3)  HLASM R4.0  2004/03/22 09.49
+___    ______ ____    _____ _____  ____ __ ______    ______ _________
0                                   2183      87.     *  WORK AREA
                                    2184      88.     *
 000000                00000 00078  2185      89.     WA       DSECT
 000000                             2186      90.              VSA   SR,R11
 000028                             2188      91.     WARAR    DS    F                       SAVED RETURN
 00002C                             2189      92.     WARR     DS    F                       SAVE LOCAL RETURN
 000030 00                          2190      93.     WAFL     FLAG  ,                       SHO FLAGS
 WAFL.WAFLSYS      01 ONES          2194      94.              FLAG  (WAFLSYS,X'01')
                                    2203      95.     * - SHO CORE FLAGS
 WAFL.WAFLMCH      80 ONES          2204      96.              FLAG  (WAFLMCH,X'80')
 WAFL.WAFLREP      40 ONES          2213      97.              FLAG  (WAFLREP,X'40')         SHOW CORE REPEAT
 WAFL.WAFLMFND     20 ONES          2222      98.              FLAG  (WAFLMFND,X'20')        MATCH FOUND AT LEAST ONCE
 WAFL.WAFLNOA      10 ONES          2231      99.              FLAG  (WAFLNOA,X'10')         NOADDRESS
 WAFL.WAFLNOH      08 ONES          2240     100.              FLAG  (WAFLNOH,X'08')         NOHEX
 WAFL.WAFLNOT      04 ONES          2249     101.              FLAG  (WAFLNOT,X'04')         NOTEXT
                                    2258     102.     * - SHO MAP FLAGS
 WAFL.WAFLUND      40 ONES          2259     103.              FLAG  (WAFLUND,X'40')         SHO MAP UNDEFINED
 WAFL.WAFLCOM      20 ONES          2268     104.              FLAG  (WAFLCOM,X'20')         SHO MAP COMMON
 WAFL.WAFLCSE      10 ONES          2277     105.              FLAG  (WAFLCSE,X'10')         SHO MAP CSECT
 WAFL.WAFLENT      08 ONES          2286     106.              FLAG  (WAFLENT,X'08')         SHO MAP ENTRY
 WAFL.WAFLDUM      04 ONES          2295     107.              FLAG  (WAFLDUM,X'04')         SHO MAP DUMMY
                                    2304     108.     * - SHO FORMATTED PSW FLAG
 WAFL.WAFLFMT      80 ONES          2305     109.              FLAG  (WAFLFMT,X'80')         FORMATED
                                    2314     110.
 000031                             2315     111.     WAMCHSZ  DS    X                       MATCH SIZE
                                    2316     112.
 000032                             2317     113.     WAKIFL   DS    X                       ACCOUNT PRIVILEGE FLAGS
                                    2318     114.              KWREC FLAGS
1VSD      (VSD07) (09:49) (22MAR04) ORVYL'S SHOW AND DUMP COMMANDS                                                          Page   17
0D-Loc  Object Code    Addr1 Addr2  Stmt Lv Lineno    Source Statement           (Hibal 5, Asmedit 3.3)  HLASM R4.0  2004/03/22 09.49
+_____  ______ ____    _____ _____  ____ __ ______    ______ _________
0000034                             2338     116.     WASCADDR DS    A                       SHO CORE ADDRESS
 000038                             2339     117.     WASCEND  DS    F
 00003C                             2340     118.     WASCLEN  DS    A                       SHO CORE LENGTH
 000040                             2341     119.     WAMCHLEN DS    A                       SAVE DURING MATCH SEARCH
 000048                             2342     120.              DS    0D
 000048                             2343     121.     AREA     DS    XL32
                                    2344     122.     AREA2    EQU   AREA+(L'AREA/2)
 000068                             2345     123.     MATAREA  DS    XL16
                                    2346     124.
 000078                00078 00048  2347     125.              ORG   AREA
 000048                             2348     126.     WAPER    DS    0F                      PER CONTROL INFO
 000048                             2349     127.     WAPERCD  DS    X
 000049                             2350     128.              DS    X
 00004A                             2351     129.     WAPERMSK DS    H
 00004C                             2352     130.     WAPERSTR DS    A                       START ADDRES
 000050                             2353     131.     WAPEREND DS    A                       END ADDRESS
 000054                00054 00048  2354     132.              ORG   AREA
 000048                             2355     133.     WACPUT   DS    F
 00004C                             2356     134.     WASVCT   DS    F
 000050                             2357     135.     WAIOT    DS    F
 000054                             2358     136.     WAVMC    DS    F
 000058                             2359     137.     WAORVST  DS    F
 00005C                             2360     138.     WAORVNOW DS    F
 000060                             2361     139.     WAORVCPU DS    F                       ORVYL CPU TIME CONSUMED
 000064                             2362     140.     WAPGEXCP DS    F
 000068                             2363     141.     WAFLEXCP DS    F
 00006C                0006C 00078  2364     142.              ORG
 000078                00078 00048  2365     143.              ORG   AREA                    FILE COUNTERS
 000048                             2366     144.     WAIXRWCT DS    F                       IXR WRITE COUNT
 00004C                             2367     145.     WAIXRRCT DS    F                        "  READ    "
 000050                             2368     146.     WAFUWCT  DS    F                       USER DATA WRITE COUNT
 000054                             2369     147.     WAFURCT  DS    F                         "   "   READ    "
 000058                00058 00034  2370     148.              ORG   WASCADDR
 000034                             2371     149.     WASPBADD DS    A                       POINTER (REAL) TO SPBS
 000038                             2372     150.     WASCBLEN DS    A                       LENGTH OF FULL SCB
 00003C                0003C 00078  2373     151.              ORG   ,
                                    2374     152.     WASIZE   EQU   *-WA
1VSD      (VSD07) (09:49) (22MAR04) ORVYL'S SHOW AND DUMP COMMANDS                                                          Page   18
0D-Loc  Object Code    Addr1 Addr2  Stmt Lv Lineno    Source Statement           (Hibal 5, Asmedit 3.3)  HLASM R4.0  2004/03/22 09.49
+_____  ______ ____    _____ _____  ____ __ ______    ______ _________
0000014                00000 01BF0  2377     155.     VSD     CSECT
                                    2379     156.     *
                                    2380     157.     *
 USING  CLW,R10                     2381     158.              USING CLW,CLWR                ##
 USING  WA,R8                       2390     159.              USING WA,WAR                  ##
                                    2399     160.     *  SHOW COMMAND
                                    2400     161.     *
 000014 902B D000/188D       00000  2401     162.     SHOW     VENTER SR,R11,WASIZE
 00001A 41D0 D078/0D70       00078  2406             +
 USING  *,R7                        2421     163.     BASE2    EQU   *+4094
 000020 4160 7FFE            0101E  2422     164.              LA    BRR,BASE2
 USING  BASE2,R6                    2423     165.              USING BASE2,BRR               ##
 000024                             2432     166.              CLEAR (WAFL,4)
 000024 D703 8030 8030 00030 00030  2438             +
 00002A 4100 0028/0AED       00028  2439     167.              CLPSERV PRIVTST               GET UPDATED PRIVS
 000030 5820 A000            00000  2448     168.              L     SR,CLWSCP               SCP POINTER
 USING  SCP,R2                      2449     169.              USING SCP,SR
 000034 9120 21B7      001B7        2458     170.              IF    ('TM  SCPPRIV,KWRIFSPR',O),'SET  WAFLSYS'
 000038 47E0 7020            00040  2466             +
 00003C 9601 8030      00030        2477             +
 000040 D200 8032 21B7 00032 001B7  2482     171.              MVC   WAKIFL,SCPPRIV          SAVE PRIVS
 DROP   SCP,R2                      2483     172.              DROP  SR
 000046 4D70 71CA            001EA  2490     173.              BAS   BR,SHOWSCAN
 DROP   *,R7                        2491     174.              USING BASE,BR                 ## BASE IS EXIT
 USING  BASE,R7
                                    2503     175.     BASE     EQU   *
                                    2504     176.     *  EXIT
 00004A 1BFF                        2505     177.              CLEAR R15                     SET OK RETURN
 00004C 94F7 A208      00208        2509     178.     SHRET    CLEAR CLWFOSC
 000050 18D8/982B D000       00000  2517     179.              VEXIT SR,R11,LTR
 000056 12FF/07F9                   2521             +
                                    2523     180.
 00005A 1000                        2524     181.     SCRET    LPR   R0,R0
 00005C 4780 709E            000E8  2525     182.              BZ    MISSING
 000060 4590 70DA            00124  2526     183.     ILLSTR   SEG   (1),(0)
 000064 4110 0000            00000  2541     184.              SEG   ': Invalid string'
 000068 4590 6736            01754  2543             +
 00006C 47F0 70BE            00108  2544     185.              B     ERROR
                                    2545     186.
 000070 4110 0011            00011  2546     187.     REQABORT SEG   'Request aborted'
 000074 4590 6736            01754  2548             +
 000078 47F0 70BE            00108  2549     188.              B     ERROR
                                    2550     189.
 00007C 9104 A209      00209        2551     190.     PRVPTEST IF    ~CLWPFPRV,@RAR           PRIVATE PROGRAM?
 000080 47E0 9000            00000  2564             +
 000084 9140 A20C      0020C        2570     191.              IF    CLWSSP,@RAR              SPECIAL GUY?
 000088 4710 9000            00000  2582             +
 00008C 4110 0021            00021  2588     192.              SEG   'Private program loaded, command blocked'
 000090 4590 6736            01754  2590             +
 000094 47F0 70BE            00108  2591     193.              B     ERROR
1VSD      (VSD07) (09:49) (22MAR04) ORVYL'S SHOW AND DUMP COMMANDS                                                          Page   19
0Current Usings:  (BASE2,R6) (BASE,R7) (WA,R8) (CLW,R10)
0Loc    Object Code    Addr1 Addr2  Stmt Lv Lineno    Source Statement           (Hibal 5, Asmedit 3.3)  HLASM R4.0  2004/03/22 09.49
+___    ______ ____    _____ _____  ____ __ ______    ______ _________
0000098                             2593     195.     GTEST    LABEL ,
 000098 95C7 A3B0/0789 003B0        2595     196.              IF    (CLWGROUP,EQ,'G'),RAR   INTERNAL ACCOUNT
 00009E 9110 8032      00032        2615     197.     OPRTEST  TM    WAKIFL,KWRIFOPR         OPERATOR PRIVILEGED?
 0000A2 0719                        2616     198.              BOR   RAR                     OK IF SO
                                    2617     199.
 0000A4 9101 8030/0719 00030        2618     200.     SYSTEST  IF    WAFLSYS,RAR
 0000AA 9140 A20C/0719 0020C        2637     201.              IF    CLWSSP,RAR
 0000B0                             2655     202.     PRIVCMD  LABEL ,
 0000B0 4120 A2CF            002CF  2657     203.              LA    SR,CLWKWKW+7            LAST BYTE OF KEYWORD
 0000B4 4130 0008            00008  2658     204.              LA    TR,L'CLWKWKW            LENGTH OF KEYWORD
 0000B8                             2659     205.     PRIVLOOK LABEL ,
 0000B8 9540 2000      00000        2661     206.              CLI   @SR,C' '                STILL BLANK
 0000BC 4770 707C            000C6  2662     207.              BNE   PRIVGOT                 NOPE -- REPORT INVALID
 0000C0 0620                        2663     208.              DECR  SR                      BACK OFF ADDRESS
 0000C2 4630 706E            000B8  2665     209.              BCT   TR,PRIVLOOK             KEEP LOOKING FOR LAST CHAR
 0000C6                             2666     210.     PRIVGOT  LABEL ,
 0000C6 4110 A2C8            002C8  2668     211.              LA    R1,CLWKWKW              ADDRESS OF KEYWORD
 0000CA 1803                        2669     212.              LR    R0,TR                   ACTUAL LENGTH
 0000CC 47F0 70AA            000F4  2670     213.              B     UNREC                   TELL THE BAD NEWS
                                    2671     214.
 0000D0 4110 0049            00049  2672     215.     ILLVAL   SEG   'Invalid value'
 0000D4 4590 6736            01754  2674             +
 0000D8 47F0 70BE            00108  2675     216.              B     ERROR
                                    2676     217.
 0000DC 4110 0057            00057  2677     218.     ILLINE   SEG   'Invalid line'
 0000E0 4590 6736            01754  2679             +
 0000E4 47F0 70BE            00108  2680     219.              B     ERROR
                                    2681     220.
 0000E8 4110 0064            00064  2682     221.     MISSING  SEG   'Missing operand'
 0000EC 4590 6736            01754  2684             +
 0000F0 47F0 70BE            00108  2685     222.              B     ERROR
                                    2686     223.     *
                                    2687     224.     *  UNRECOGNIZED NAME
                                    2688     225.     *
 0000F4                             2689     226.     UNREC    DS    0H
 0000F4 4590 70DA            00124  2690     227.              SEG   (1),(0)
 0000F8 4110 0074            00074  2704     228.              SEG   ': Invalid'
 0000FC 4590 6736            01754  2706             +
 000100 47F0 70BE            00108  2707     229.              B     ERROR
 000104 4590 70DA            00124  2708     230.     ERRORMSG SEG   (1),(0)                 SEG MESSAGE
 000108                             2723     231.     ERROR    DS    0H                      BE GRAMATICAL
 000108 5890 6762/0D99       01780  2724     232.              VCALL TYPEIT
 00010E 07F7                        2728     233.              BR    BR                      EXIT
                                    2729     234.
 000110                             2730     235.     WYLMIL   DS    0H
 000110 41F0 0004            00004  2731     236.              LA    R15,4                   SEND CODE
 000114 47F0 7002            0004C  2732     237.              B     SHRET                   SEND 'SHOW' ON TO MILTEN
                                    2733     238.
 000118 4590 70DA            00124  2734     239.     MSGEXIT  SEG   (1),(0)
 00011C 5890 6766/0D99       01784  2749     240.     WRITEXIT VWRITE
 000122 07F7                        2754     241.              BR    BR
                                    2755     242.
 000124 5090 D000            00000  2756     243.     SEG      VPUSH RAR,,*
 000128 41D0 D004            00004  2758             +
1VSD      (VSD07) (09:49) (22MAR04) ORVYL'S SHOW AND DUMP COMMANDS                                                          Page   20
0Current Usings:  (BASE2,R6) (BASE,R7) (WA,R8) (CLW,R10)
0Loc    Object Code    Addr1 Addr2  Stmt Lv Lineno    Source Statement           (Hibal 5, Asmedit 3.3)  HLASM R4.0  2004/03/22 09.49
+___    ______ ____    _____ _____  ____ __ ______    ______ _________
000012C 5890 676A/0D99       01788  2759     244.              VSEG  (1),(0)
 000132 4BD0 680A            01828  2776     245.              VPOP  RAR,,*
 000136 5890 D000            00000  2778             +
 00013A 07F9                        2779     246.              BR    RAR
1VSD      (VSD07) (09:49) (22MAR04) ORVYL'S SHOW AND DUMP COMMANDS                                                          Page   21
0Current Usings:  (BASE2,R6) (BASE,R7) (WA,R8) (CLW,R10)
0Loc    Object Code    Addr1 Addr2  Stmt Lv Lineno    Source Statement           (Hibal 5, Asmedit 3.3)  HLASM R4.0  2004/03/22 09.49
+___    ______ ____    _____ _____  ____ __ ______    ______ _________
0                                   2781     248.     *
 00013C 5090 D000            00000  2782     249.     SEGBLNK  VPUSH RAR,,*
 000140 41D0 D004            00004  2784             +
 000144 4110 007E            0007E  2785     250.              SEG   ' '
 000148 4590 6736            01754  2787             +
 00014C 4BD0 680A            01828  2788     251.              VPOP  RAR,,*
 000150 5890 D000            00000  2790             +
 000154 07F9                        2791     252.              BR    RAR
                                    2792     253.
 000156 9089 D000/188D       00000  2793     254.     EVAL     VSAVE WAR,RAR,*
 00015C 41D0 D008            00008  2796             +
 000160 5890 676E/0D99       0178C  2797     255.              VCALL EVAL
 000166 18D8/9889 D000       00000  2801     256.              VREST WAR,RAR                 RETURN IS IN RAR
 00016C 4740 70BE            00108  2804     257.              BM    ERROR
 000170 07F9                        2805     258.              BR    RAR
                                    2806     259.
 000172 5090 D000            00000  2807     260.     MSG      VPUSH RAR,,*                  SEG, WRITE, AND RETURN
 000176 41D0 D004            00004  2809             +
 00017A 4590 70DA            00124  2810     261.              SEG   (1),(0)
 00017E 47F0 7140            0018A  2824     262.              B     WRIT1
                                    2825     263.
 000182 5090 D000            00000  2826     264.     WRITE    VPUSH RAR,,*                  SAVE RETURN
 000186 41D0 D004            00004  2828             +
 00018A 5890 6766/0D99       01784  2829     265.     WRIT1    VWRITE ,
 000190 0777                        2834     266.              BNZR  BR                      ATTN OR ERROR
 000192 4BD0 680A            01828  2835     267.              VPOP RAR,,*
 000196 5890 D000            00000  2837             +
 00019A 07F9                        2838     268.              BR    RAR                     NO ERROR
                                    2839     269.
 00019C 909E D000            00000  2840     270.     SEGDC    VPUSH RAR,14,*
 0001A0 41D0 D018            00018  2842             +
 0001A4 4110 A2E8            002E8  2843     271.              BTD   CLWTEMP,(0),(15)
 0001A8 58E0 6772/0DEE       01790  2863             +
 0001AE 5890 676A/0D99       01788  2865     272.              VSEG  (1),(0)
 0001B4 4BD0 680C            0182A  2882     273.              VPOP  RAR,14,*
 0001B8 989E D000            00000  2884             +
 0001BC 07F9                        2885     274.              BR    RAR
1VSD      (VSD07) (09:49) (22MAR04) ORVYL'S SHOW AND DUMP COMMANDS                                                          Page   22
0Current Usings:  (BASE2,R6) (BASE,R7) (WA,R8) (CLW,R10)
0Loc    Object Code    Addr1 Addr2  Stmt Lv Lineno    Source Statement           (Hibal 5, Asmedit 3.3)  HLASM R4.0  2004/03/22 09.49
+___    ______ ____    _____ _____  ____ __ ______    ______ _________
0                                   2887     276.     *
 0001BE 4100 0008            00008  2888     277.     SEGLC    LA     R0,8
                                    2889     278.
 0001C2 909E D000            00000  2890     279.     SEGHX    VPUSH RAR,14,*
 0001C6 41D0 D018            00018  2892             +
 0001CA 4110 A2E8            002E8  2893     280.              BTX   CLWTEMP,(0),(15)
 0001CE 58E0 6776/0DEE       01794  2913             +
 0001D4 5890 676A/0D99       01788  2915     281.              VSEG  (1),(0)
 0001DA 4BD0 680C            0182A  2932     282.              VPOP  RAR,14,*
 0001DE 989E D000            00000  2934             +
 0001E2 07F9                        2935     283.              BR    RAR
                                    2936     284.
 0001E4 58F0 677A            01798  2937     285.     SEGSECS  L     R15,=V(SEGSECS)         TIME IN R1
 0001E8 07FF                        2938     286.              BR    R15                     RETURN IN RAR
1VSD      (VSD07) (09:49) (22MAR04) ORVYL'S SHOW AND DUMP COMMANDS                                                          Page   23
0Current Usings:  (BASE2,R6) (BASE,R7) (WA,R8) (CLW,R10)
0Loc    Object Code    Addr1 Addr2  Stmt Lv Lineno    Source Statement           (Hibal 5, Asmedit 3.3)  HLASM R4.0  2004/03/22 09.49
+___    ______ ____    _____ _____  ____ __ ______    ______ _________
0                                   2940     288.     * SCAN SHOW OPTION
                                    2941     289.     *
 0001EA 4110 71B2            001FC  2942     290.     SHOWSCAN SCAN KWSHOW,CLWKWCB
 0001EE 41F0 A2C4            002C4  2956             +
 0001F2 58E0 677E/0DEE       0179C  2959             +
 0001F8 47F0 7010            0005A  2961     291.              B     SCRET
                                    2962     292.     *  SHOW OPTION TABLE
                                    2963     293.     *
 0001FC                             2964     294.     KWSHOW   DS    0H
 0001FC                             2965     295.              SCKW  LIN,MILWYL              LINE V. LINK
 0001FC 02000422D3C9D5              2966             +
 000203                             2967     296.              SCKW  CORE,SHCORE,A
 000203 0B000998C3D6D9C5            2968             +
 00020B                             2969     297.              SCKW  OSCORE,SHOSC,A
 00020B 0D0009ACD6E2C3D6            2970             +
 000215                             2971     298.              SCKW  GPRS,SHGPRS,A
 000215 0B0006D0C7D7D9E2            2972             +
 00021D                             2973     299.              SCKW  FPRS,SHFPRS,A
 00021D 0B00087AC6D7D9E2            2974             +
 000225                             2975     300.              SCKW  PSW,SHPSW
 000225 02000548D7E2E6              2976             +
 00022C                             2977     301.              SCKW  SAVEGPRS,SHSGPRS
 00022C 0700076CE2C1E5C5            2978             +
 000238                             2979     302.              SCKW  SAVEGPR,SHSGPRS
 000238 0600076CE2C1E5C5            2980             +
 000243 0100076CE2C7                2981     303.              SCKW  SG,SHSGPRS
 000249                             2983     304.              SCKW  SAVEPSW,SHSPSW
 000249 060006A0E2C1E5C5            2984             +
 000254 010006A0E2D7                2985     305.              SCKW  SP,SHSPSW
 00025A                             2987     306.              SCKW  CLPGPRS,SHCLGPRS
 00025A 06000800C3D3D7C7            2988             +
 000265                             2989     307.              SCKW  CLPGPR,SHCLGPRS
 000265 05000800C3D3D7C7            2990             +
 00026F 01000800C3C7                2991     308.              SCKW  CG,SHCLGPRS
 000275                             2993     309.              SCKW  CLPPSW,SHCLPSW
 000275 050006BAC3D3D7D7            2994             +
 00027F 010006BAC3D7                2995     310.              SCKW  CP,SHCLPSW
 000285                             2997     311.              SCKW  ADDRESS,SHADDR,A
 000285 0E00108CC1C4C4D9            2998             +
 000290                             2999     312.              SCKW  OSADDR,SHOSCAD,A
 000290 0D001084D6E2C1C4            3000             +
 00029A                             3001     313.              SCKW  REGION,SHREGN,A
 00029A 0D00100AD9C5C7C9            3002             +
 0002A4                             3003     314.              SCKW  MAP,SHMAP
 0002A4 020010E0D4C1D7              3004             +
 0002AB                             3005     315.              SCKW  ALL,SHALL
 0002AB 020004C0C1D3D3              3006             +
 0002B2 0000108CC1                  3007     316.              SCKW  A,SHADDR
 0002B7 00000998C3                  3009     317.              SCKW  C,SHCORE
 0002BC 000006D0C7                  3011     318.              SCKW  G,SHGPRS
 0002C1 0000087AC6                  3013     319.              SCKW  F,SHFPRS
 0002C6 00000548D7                  3015     320.              SCKW  P,SHPSW
 0002CB                             3017     321.              SCKW  TIMER,SHTIMER
 0002CB 0400042EE3C9D4C5            3018             +
1VSD      (VSD07) (09:49) (22MAR04) ORVYL'S SHOW AND DUMP COMMANDS                                                          Page   24
0Current Usings:  (BASE2,R6) (BASE,R7) (WA,R8) (CLW,R10)
0Loc    Object Code    Addr1 Addr2  Stmt Lv Lineno    Source Statement           (Hibal 5, Asmedit 3.3)  HLASM R4.0  2004/03/22 09.49
+___    ______ ____    _____ _____  ____ __ ______    ______ _________
00002D4                             3019     322.              SCKW  TRAPS,SHTRAPS
 0002D4 040012FAE3D9C1D7            3020             +
 0002DD 010012FAE3E2                3021     323.              SCKW  TS,SHTRAPS
 0002E3                             3023     324.              SCKW  EVENTS,SHEVENT,A
 0002E3 0D00136AC5E5C5D5            3024             +
 0002ED                             3025     325.              SCKW  MONITOR,SHMONIT,A
 0002ED 0E00148CD4D6D5C9            3026             +
                                    3028     327.              VGPTAB SHKWRT
                                    3029     328.              VFSHTAB SHKWRT
 0002F8 0C0015EEC6C9D3C5            3031    02-SCKW  +         DC    AL1(12),AL3(SHFILES),CL5'FILES'
 000301 0D0015F6C1C3C3C5            3033    02-SCKW  +         DC    AL1(13),AL3(SHACCESS),CL6'ACCESS'
 00030B 0D0015FEC2D3D6C3            3035    02-SCKW  +         DC    AL1(13),AL3(SHBLOCKS),CL6'BLOCKS'
 000315 0A001606C3D3D7              3037    02-SCKW  +         DC    AL1(10),AL3(SHCLP),CL3'CLP'
 00031C 0F00160EC3D6D5E3            3039    02-SCKW  +         DC    AL1(15),AL3(SHCONTEN),CL8'CONTENTS'
 000328 0F001616C6C9D3C5            3041    02-SCKW  +         DC    AL1(15),AL3(SHFILEMA),CL8'FILEMASK'
 000334 0D00161EC6D6D9D4            3043    02-SCKW  +         DC    AL1(13),AL3(SHFORMAT),CL6'FORMAT'
 00033E 0E001626D7C5D9D4            3045    02-SCKW  +         DC    AL1(14),AL3(SHPERMIT),CL7'PERMITS'
 000349 0F00162ED7D9D6C7            3047    02-SCKW  +         DC    AL1(15),AL3(SHPROGRA),CL8'PROGRAMS'
 000355 0C001636E2C8C1D9            3049    02-SCKW  +         DC    AL1(12),AL3(SHSHARE),CL5'SHARE'
 00035E 0E00163EE2D7C9C6            3051    02-SCKW  +         DC    AL1(14),AL3(SHSPIFIL),CL7'SPIFILE'
                                    3052     329.              VPMTAB SHKWRT
 000369 0B001552D3C9D5D2            3054    02-SCKW  +         DC    AL1(11),AL3(SHLINK),CL4'LINK'
 000371 0C00155AC5D5E3D9            3056    02-SCKW  +         DC    AL1(12),AL3(SHENTRY),CL5'ENTRY'
                                    3057     330.              VSSVTAB SHKWRT
 00037A 0E00156AE5E5D6D3            3059    02-SCKW  +         DC    AL1(14),AL3(SHVVOLUM),CL7'VVOLUME'
 000385 0E001572E5D9C5C7            3061    02-SCKW  +         DC    AL1(14),AL3(SHVREGIO),CL7'VREGION'
 000390 0D00157AE5C7D9D6            3063    02-SCKW  +         DC    AL1(13),AL3(SHVGROUP),CL6'VGROUP'
 00039A 0C001582E5E3C9D4            3065    02-SCKW  +         DC    AL1(12),AL3(SHVTIME),CL5'VTIME'
 0003A3 0D00158AE5E4E2C5            3067    02-SCKW  +         DC    AL1(13),AL3(SHVUSERS),CL6'VUSERS'
 0003AD 0F001592E5E2C5E2            3069    02-SCKW  +         DC    AL1(15),AL3(SHVSESSI),CL8'VSESSION'
 0003B9 0B00159AE5E2E8E2            3071    02-SCKW  +         DC    AL1(11),AL3(SHVSYS),CL4'VSYS'
 0003C1 0F0015A2E5E5C5D9            3073    02-SCKW  +         DC    AL1(15),AL3(SHVVERSI),CL8'VVERSION'
 0003CD 0F0015AA6DE5E2E8            3075    02-SCKW  +         DC    AL1(15),AL3(SHVSYMBO),CL8'_VSYMBOLS'
                                    3076     331.              VSSWTAB SHKWRT
 0003D9 0C0015BAE5C9D5C6            3078    02-SCKW  +         DC    AL1(12),AL3(SHVINFO),CL5'VINFO'
 0003E2 0E0015C2E5C2D3D6            3080    02-SCKW  +         DC    AL1(14),AL3(SHVBLOCK),CL7'VBLOCKS'
 0003ED 0D0015CAE5C3C1C3            3082    02-SCKW  +         DC    AL1(13),AL3(SHVCACHE),CL6'VCACHE'
 0003F7 0D0015D2E5C6C9D3            3084    02-SCKW  +         DC    AL1(13),AL3(SHVFILES),CL6'VFILES'
 000401                             3086     333.              SCKW  ZOT,SHOZOT
 000401 0200151CE9D6E3              3087             +
 000408                             3088     334.              SCKW  FMSK,SHFILEMA,A
 000408 0B001616C6D4E2D2            3089             +
 000410 01000922C3E3                3090     335.              SCKW  CT,SHCT
 000416                             3092     336.              SCKW  SCP,SHSCP
 000416 02000960E2C3D7              3093             +
                                    3094     337.     *
                                    3095     338.     *  THIS SCKW GOES OFF TO VFST IN TEST CLP FOR SEVERAL COMMANDS
                                    3096     339.     *  IF THIS IS PRODUCTION CLP, THE ADCON IS RESOLVED IN VCLP WITH
                                    3097     340.     *  A NULL KEYWORD TABLE
                                    3098     341.     *
 00041D FF000422                    3099     342.              SCKW  ,MILWYL
1VSD      (VSD07) (09:49) (22MAR04) ORVYL'S SHOW AND DUMP COMMANDS                                                          Page   25
0Current Usings:  (BASE2,R6) (BASE,R7) (WA,R8) (CLW,R10)
0Loc    Object Code    Addr1 Addr2  Stmt Lv Lineno    Source Statement           (Hibal 5, Asmedit 3.3)  HLASM R4.0  2004/03/22 09.49
+___    ______ ____    _____ _____  ____ __ ______    ______ _________
0                                   3102     344.     *  SEND INVALID SHOW COMMAND TO MILTEN
                                    3103     345.     *
 000422                             3104     346.     MILWYL   DS    0H
 000422 41F0 0004            00004  3105     347.              LA    R15,4                   SEND CODE
 000426 94FE A20A      0020A        3106     348.              CLEAR CLWMDUMP                CLEAR DUMP FLAG
 00042A 47F0 7002            0004C  3113     349.              B     SHRET                   SEND ON TO MILTEN
1VSD      (VSD07) (09:49) (22MAR04) ORVYL'S SHOW AND DUMP COMMANDS                                                          Page   26
0Current Usings:  (BASE2,R6) (BASE,R7) (WA,R8) (CLW,R10)
0Loc    Object Code    Addr1 Addr2  Stmt Lv Lineno    Source Statement           (Hibal 5, Asmedit 3.3)  HLASM R4.0  2004/03/22 09.49
+___    ______ ____    _____ _____  ____ __ ______    ______ _________
0                                   3115     351.     *
                                    3116     352.     *        SHOW TIMER INTERVAL
                                    3117     353.     *
                                    3118     354.     *  FOR EXAMPLE:
                                    3119     355.     *  ORVYL TIMER INTERVAL = 1.00 SECONDS.  CPU USAGE LIMIT = 10.00  ...
                                    3120     356.     *
 00042E                             3121     357.     SHTIMER  DS    0H                 SHOW TIMER INTERVAL.
 00042E 4830 A232            00232  3122     358.              LH    TR,CLWTIVAL        GET CURRENT INTERVAL
 000432 1233                        3123     359.              LTR   TR,TR
 000434 4770 73F6            00440  3124     360.              IF    Z,BEGIN
 000438 4110 0080            00080  3135  1  361.                SEG   'No Orvyl timer interval set.  '
 00043C 4590 6736            01754  3137  1          +
 000440                             3138     362.              END
 000440 73FA           00440 00436  3142     363.              ELSE BEGIN
 000440 47F0 7430            0047A  3147             +
 000444 4110 009F            0009F  3153  1  364.                SEG   'Orvyl timer interval = '
 000448 4590 6736            01754  3155  1          +
 00044C 1B22                        3156  1  365.                CLEAR SR
 00044E 4830 A232            00232  3160  1  366.                LH    TR,CLWTIVAL        GET CURRENT INTERVAL
 000452 5D20 6782            017A0  3161  1  367.                D     SR,=F'10'
 000456 18F3/4100 0004       00004  3162  1  368.                SEGDC 4,(TR)
 00045C 4D90 7152            0019C  3176  1          +
 000460 4110 00B7            000B7  3177  1  369.                SEG   '.'
 000464 4590 6736            01754  3179  1          +
 000468 18F2/4100 0001       00001  3180  1  370.                SEGDC 1,(SR)
 00046E 4D90 7152            0019C  3194  1          +
 000472 4110 00B9            000B9  3195  1  371.                SEG   '0 seconds.  '
 000476 4590 6736            01754  3197  1          +
 00047A                             3198     372.              END
 00047A 4830 A234            00234  3202     373.              LH    TR,CLWTMAX         GET CPU USAGE LIMIT
 00047E 1233                        3203     374.              LTR   TR,TR
 000480 4780 7470            004BA  3204     375.              IF    NZ,BEGIN
 000484 4110 00C6            000C6  3215  1  376.                SEG   'CPU usage limit = '
 000488 4590 6736            01754  3217  1          +
 00048C 1B22                        3218  1  377.                CLEAR SR
 00048E 4830 A234            00234  3222  1  378.                LH    TR,CLWTMAX
 000492 5D20 6782            017A0  3223  1  379.                D     SR,=F'10'
 000496 18F3/4100 0004       00004  3224  1  380.                SEGDC 4,(TR)
 00049C 4D90 7152            0019C  3238  1          +
 0004A0 4110 00B7            000B7  3239  1  381.                SEG   '.'
 0004A4 4590 6736            01754  3241  1          +
 0004A8 18F2/4100 0001       00001  3242  1  382.                SEGDC 1,(SR)
 0004AE 4D90 7152            0019C  3256  1          +
 0004B2 4110 00D9            000D9  3257  1  383.                SEG   '0 seconds.'
 0004B6 4590 6736            01754  3259  1          +
 0004BA                             3260     384.              END
 0004BA 4D90 7138            00182  3264     385.              LCALL WRITE
 0004BE 07F7                        3266     386.              BR    BR                 DONE
1VSD      (VSD07) (09:49) (22MAR04) ORVYL'S SHOW AND DUMP COMMANDS                                                          Page   27
0Current Usings:  (BASE2,R6) (BASE,R7) (WA,R8) (CLW,R10)
0Loc    Object Code    Addr1 Addr2  Stmt Lv Lineno    Source Statement           (Hibal 5, Asmedit 3.3)  HLASM R4.0  2004/03/22 09.49
+___    ______ ____    _____ _____  ____ __ ______    ______ _________
0                                   3268     388.     *   SHOW ALL PROGRAM STATUS
                                    3269     389.     *
 0004C0                             3270     390.     SHALL    DS    0H
 0004C0 4D90 7032            0007C  3271     391.              PRVBLOCK
 0004C4 4D50 7500            0054A  3274     392.              BAS   RR,SHPDO                SHO PSW
 0004C8 4D90 7138            00182  3275     393.              LCALL WRITE
 0004CC 1B22                        3277     394.              CLEAR SR
 0004CE 4130 000F            0000F  3281     395.              LA    TR,15
 0004D2 4D50 76B8            00702  3282     396.              BAS   RR,SHGDO
 0004D6 4D90 7138            00182  3283     397.              LCALL WRITE
 0004DA 4D50 7658            006A2  3285     398.              BAS   RR,SHSPDO
 0004DE 4D90 7138            00182  3286     399.              LCALL WRITE
 0004E2 1B22                        3288     400.              CLEAR SR
 0004E4 4130 000F            0000F  3292     401.              LA    TR,15
 0004E8 4D50 7754            0079E  3293     402.              BAS   RR,SHSGDO
 0004EC 4D90 7138            00182  3294     403.              LCALL WRITE
 0004F0 1B22                        3296     404.              CLEAR SR
 0004F2 4130 0006            00006  3300     405.              LA    TR,6
 0004F6 4D50 7872            008BC  3301     406.              BAS   RR,SHFDO
 0004FA 4D90 7138            00182  3302     407.              LCALL WRITE
 0004FE 4D50 7E2A            00E74  3304     408.              BAS   RR,SHSTDO
 000502 91C0 A209      00209        3305     409.              IF    (CLWPFSUP+CLWPFPL,NO),'BR BR' GOT A PROGRAM LOADING?
 000506 4710 74C2/07F7       0050C  3320             +
 00050C 4D90 7138            00182  3331     410.              LCALL WRITE
 000510 58B0 A250            00250  3333     411.              L     LCBR,CLWLNKP
 USING  LCB,R11                     3334     412.              USING LCB,LCBR                 ##
 000514 9823 B000            00000  3343     413.              LM    SR,TR,LCBCORE            PROGRAM START,LEN
 000518 4D50 79D6            00A20  3344     414.              BAS   RR,SHCDO
 00051C 9120 A209      00209        3345     415.              IF    ~CLWPFPIC,DOMAP          WORK AREA SET UP, SKIP
 000520 47E0 74E8            00532  3357             +
 000524 4D90 7138            00182  3363     416.              LCALL WRITE
 000528 4100 0002/0AFA       00002  3365     417.              SENSE 2                       WORK AREA LIMITS
 00052E 1821                        3384     418.              LR    SR,R1                   START
 000530 183F                        3385     419.              LR    TR,R15                  LEN
 000532 4D50 79D6            00A20  3386     420.     DOMAP    BAS   RR,SHCDO
 000536 4D90 7138            00182  3387     421.              LCALL WRITE
 00053A 4D50 60C8            010E6  3389     422.              BAS   RR,SHMDO
 00053E 4D90 7138            00182  3390     423.              LCALL WRITE
 000542 4D50 62E2            01300  3392     424.              BAS   RR,SHTDO
 000546 07F7                        3393     425.              BR    BR
1VSD      (VSD07) (09:49) (22MAR04) ORVYL'S SHOW AND DUMP COMMANDS                                                          Page   28
0Current Usings:  (BASE2,R6) (BASE,R7) (WA,R8) (CLW,R10) (LCB,R11)
0Loc    Object Code    Addr1 Addr2  Stmt Lv Lineno    Source Statement           (Hibal 5, Asmedit 3.3)  HLASM R4.0  2004/03/22 09.49
+___    ______ ____    _____ _____  ____ __ ______    ______ _________
0                                   3395     427.     *  SHOW PSW
                                    3396     428.     *
 000548 1857                        3397     429.     SHPSW    LR    RR,BR
                                    3398     430.
 00054A 4D90 7032            0007C  3399     431.     SHPDO    PRVBLOCK
 00054E 4140 A368            00368  3402     432.              LA    QR,CLWSBPSW
 000552 4110 7626            00670  3403     433.     SHPDO1   SCAN  KWTBL,CLWKWCB
 000556 41F0 A2C4            002C4  3417             +
 00055A 58E0 677E/0DEE       0179C  3420             +
 000560 4110 00E4            000E4  3422     434.              SEG   'PSW = '
 000564 4590 6736            01754  3424             +
 000568 58F0 4000            00000  3425     435.              SEGHX 8,@QR
 00056C 4100 0008            00008  3437             +
 000570 4D90 7178            001C2  3439             +
 000574 4D90 70F2            0013C  3440     436.              LCALL SEGBLNK                 INSERT A BLANK
 000578 58F0 4004            00004  3442     437.              SEGHX 8,@QR+4
 00057C 4100 0008            00008  3454             +
 000580 4D90 7178            001C2  3456             +
 000584 4D90 70F2            0013C  3457     438.              LCALL SEGBLNK                 INSERT A BLANK
 000588 5810 4004            00004  3459     439.              L     R1,@QR+4
 00058C 9102 A208      00208        3460     440.              IF    CLWFM31,'N R1,=X"0FFFFFFF"'
 000590 47E0 754E            00598  3470             +
 000594 5410 6786            017A4  3476             +
 000598 7552           00598 00592  3481     441.              ELSE  'LA R1,@R1'             ELIMINATE SIGN BIT
 000598 47F0 7556            005A0  3486             +
 00059C 4110 1000            00000  3493             +
 0005A0 5890 678A/0D99       017A8  3498     442.              VCALL VSEGLOC
                                    3502     443.     *         VSEGLOC (1),MODE=COND
 0005A6 4D90 7138            00182  3503     444.              LCALL WRITE
 0005AA 9180 8030      00030        3505     445.              IF    WAFLFMT,BEGIN          FORMAT OPTION?
 0005AE 47E0 7624            0066E  3515             +
 0005B2 4110 00EB            000EB  3520  1  446.                SEG   'Int Code='
 0005B6 4590 6736            01754  3522  1          +
 0005BA 48F0 4000/1B00       00000  3523  1  447.                SEGDC 0,LH:@QR                SEG INTERRUPT CODE
 0005C0 4D90 7152            0019C  3533  1          +
 0005C4 4110 00F5            000F5  3534  1  448.                SEG   ', IL='
 0005C8 4590 6736            01754  3536  1          +
 0005CC 1F22/4320 4002       00002  3537  1  449.                LC    SR,@QR+2                INSTR LEN, CC & PROG MASK
 0005D2 8C20 0006            00006  3544  1  450.                SRDL  SR,6                    ISOLATE INSTRUCTION LEN
 0005D6 4112 763A            00684  3545  1  451.                LA    R1,ILTBL(SR)            CONVERT TO CHAR
 0005DA 4100 0001            00001  3546  1  452.                SEG   (1),1
 0005DE 4590 70DA            00124  3561  1          +
 0005E2 4110 00FB            000FB  3562  1  453.                SEG   ', CC='
 0005E6 4590 6736            01754  3564  1          +
 0005EA 1B22                        3565  1  454.                CLEAR SR
 0005EC 8D20 0002            00002  3569  1  455.                SLDL  SR,2                    ISOLATE CC
 0005F0 8920 0002            00002  3570  1  456.                SLL   SR,2                    MULT BY 4
 0005F4 4112 763E            00688  3571  1  457.                LA    R1,CCTBL(SR)            CONVERT TO STRING
 0005F8 4100 0003            00003  3572  1  458.                SEG   (1),3
 0005FC 4590 70DA            00124  3587  1          +
 000600 4110 0101            00101  3588  1  459.                SEG   ', PM='
 000604 4590 6736            01754  3590  1          +
 000608 1B22                        3591  1  460.                CLEAR SR
 00060A 8D20 0004            00004  3595  1  461.                SLDL  SR,4                    ISOLATE PROG MASK
1VSD      (VSD07) (09:49) (22MAR04) ORVYL'S SHOW AND DUMP COMMANDS                                                          Page   29
0Current Usings:  (BASE2,R6) (BASE,R7) (WA,R8) (CLW,R10) (LCB,R11)
0Loc    Object Code    Addr1 Addr2  Stmt Lv Lineno    Source Statement           (Hibal 5, Asmedit 3.3)  HLASM R4.0  2004/03/22 09.49
+___    ______ ____    _____ _____  ____ __ ______    ______ _________
000060E 5810 678E            017AC  3596  1  462.                L     R1,=C'FDES'             MASK BIT MEANINGS
 000612 4420 764E            00698  3597  1  463.                EX    SR,SHPSTCM              SAVE RELEVENT CHARACTERS
 000616 5810 6792            017B0  3599  1  464.                L     R1,=C'....'             PRESET DEFAULTS
 00061A 4420 7652            0069C  3600  1  465.                EX    SR,SHPICM               CREATE STRING (SR = MASK)
 00061E 5010 A2E8            002E8  3602  1  466.                ST    R1,CLWTEMP              STORE FOR SEG
 000622 4110 A2E8            002E8  3603  1  467.                SEG   CLWTEMP,4
 000626 4100 0004            00004  3619  1          +
 00062A 4590 70DA            00124  3620  1          +
 00062E 1F22/4320 4003       00003  3621  1  468.                LC    SR,@QR+3                ISOLATE EXITS
 000634 8820 0004            00004  3628  1  469.                SRL   SR,4
 000638 4130 000F            0000F  3629  1  470.                LA    TR,X'F'
 00063C 1723                        3630  1  471.                XR    SR,TR                   COMPLEMENT EXIT BITS
 00063E 4780 7620            0066A  3631  1  472.                IF    NZ,BEGIN               NO LITERAL IF ALL EXITS ON
 000642 4110 0107            00107  3642  2  473.                  SEG   ', Disabled exit='
 000646 4590 6736            01754  3644  2          +
 00064A 5810 6796            017B4  3645  2  474.                  L     R1,=C'TAWP'             MASK BIT MEANINGS
 00064E 4420 764E            00698  3646  2  475.                  EX    SR,SHPSTCM              SAVE RELEVENT CHARACTERS
 000652 5810 6792            017B0  3648  2  476.                  L     R1,=C'....'             PRESET DEFAULTS
 000656 4420 7652            0069C  3649  2  477.                  EX    SR,SHPICM               CREATE STRING (SR = MASK)
 00065A 5010 A2E8            002E8  3651  2  478.                  ST    R1,CLWTEMP              STORE FOR SEG
 00065E 4110 A2E8            002E8  3652  2  479.                  SEG   CLWTEMP,4
 000662 4100 0004            00004  3668  2          +
 000666 4590 70DA            00124  3669  2          +
 00066A                             3670  1  480.                END   ,
 00066A 4D90 7138            00182  3674  1  481.                LCALL WRITE
 00066E                             3676     482.              END   ,
 00066E 07F5                        3680     483.              BR    RR
                                    3681     484.
 000670                             3682     485.     KWTBL    SCKW  FORMAT,FMTRTN,A
 000670 0D00067EC6D6D9D4            3683             +
 00067A FF0000F4                    3684     486.              SCKW  ,UNREC
 00067E                             3686     487.     FMTRTN   DS    0H
 00067E 9680 8030      00030        3687     488.              SET   WAFLFMT
 000682 07FE                        3693     489.              SCRTN (15)
 000684 F0F2F4F6                    3700     490.     ILTBL    DC    C'0246'
 000688 C560E940D360D440            3701     491.     CCTBL    DC    C'E-Z L-M H-P O-O '
 000698 BE10 A2E8            002E8  3702     492.     SHPSTCM  STCM  R1,0,CLWTEMP            SAVE RELEVENT CHARS
 00069C BF10 A2E8            002E8  3703     493.     SHPICM   ICM   R1,0,CLWTEMP            PICK UP RELEVENT CHARS
1VSD      (VSD07) (09:49) (22MAR04) ORVYL'S SHOW AND DUMP COMMANDS                                                          Page   30
0Current Usings:  (BASE2,R6) (BASE,R7) (WA,R8) (CLW,R10) (LCB,R11)
0Loc    Object Code    Addr1 Addr2  Stmt Lv Lineno    Source Statement           (Hibal 5, Asmedit 3.3)  HLASM R4.0  2004/03/22 09.49
+___    ______ ____    _____ _____  ____ __ ______    ______ _________
0                                   3705     495.     *  SHOW SAVE PSW
                                    3706     496.     *
 0006A0 1857                        3707     497.     SHSPSW   LR    RR,BR
                                    3708     498.
 0006A2                             3709     499.     SHSPDO   DS    0H
 0006A2 4D90 7032            0007C  3710     500.              PRVBLOCK
 0006A6 4110 0118            00118  3713     501.              SEG   'Save '
 0006AA 4590 6736            01754  3715             +
 0006AE 5840 A000            00000  3716     502.              L     QR,CLWSCP               GET THE SCP ADDRESS
 0006B2 4140 4070            00070  3717     503.              WITH  (SCP,QR),'LA QR,SCPXPSW'
 USING  SCP,R4
 DROP   SCP,R4
 0006B6 47F0 7508            00552  3741     504.              B     SHPDO1
-
                                    3743     506.     *  SHOW CLP PSW
                                    3744     507.     *
 0006BA 1857                        3745     508.     SHCLPSW  LR    RR,BR
                                    3746     509.
 0006BC 4110 011E            0011E  3747     510.     SHCLPDO  SEG   'CLP '
 0006C0 4590 6736            01754  3749             +
 0006C4 5840 A000            00000  3750     511.              L     QR,CLWSCP               GET SCP ADDRESS
 0006C8 4140 4100            00100  3751     512.              WITH  (SCP,QR),'LA QR,SCPCLPSW'
 USING  SCP,R4
 DROP   SCP,R4
 0006CC 47F0 7508            00552  3775     513.              B     SHPDO1
1VSD      (VSD07) (09:49) (22MAR04) ORVYL'S SHOW AND DUMP COMMANDS                                                          Page   31
0Current Usings:  (BASE2,R6) (BASE,R7) (WA,R8) (CLW,R10) (LCB,R11)
0Loc    Object Code    Addr1 Addr2  Stmt Lv Lineno    Source Statement           (Hibal 5, Asmedit 3.3)  HLASM R4.0  2004/03/22 09.49
+___    ______ ____    _____ _____  ____ __ ______    ______ _________
0                                   3777     515.     *  SHOW GPRS
                                    3778     516.     *
 0006D0                             3779     517.     SHGPRS   DS    0H
 0006D0 4D90 7032            0007C  3780     518.              PRVBLOCK
 0006D4 1B22                        3783     519.              CLEAR SR
 0006D6 4130 000F            0000F  3787     520.              LA    TR,15
 0006DA 4D90 710C            00156  3788     521.              EVAL                          GET 1ST REG
 0006DE 4780 76B6            00700  3791     522.              BZ    SHGBOTH                 BR IF NULL
 0006E2 1820                        3792     523.              LR    SR,R0
 0006E4 5520 679A            017B8  3793     524.              CL    SR,=A(16)
 0006E8 47B0 7716            00760  3794     525.              BNL   ILLGPR
 0006EC 1832                        3795     526.              LR    TR,SR
 0006EE 4D90 710C            00156  3796     527.              EVAL                          2ND REG
 0006F2 4780 76B6            00700  3799     528.              BZ    SHGBOTH
 0006F6 1830                        3800     529.              LR    TR,R0
 0006F8 5500 679A            017B8  3801     530.              CL    R0,=A(16)
 0006FC 47B0 7716            00760  3802     531.              BNL   ILLGPR
 000700 1857                        3803     532.     SHGBOTH  LR    RR,BR
                                    3804     533.
 000702 4110 0123            00123  3805     534.     SHGDO    SEG   'GPR '
 000706 4590 6736            01754  3807             +
 00070A 18F2/4100 0002       00002  3808     535.              SEGDC 2,(SR)
 000710 4D90 7152            0019C  3822             +
 000714 4110 0128            00128  3823     536.              SEG   ' = '
 000718 4590 6736            01754  3825             +
 00071C 18F2                        3826     537.              LR    R15,SR
 00071E 89F0 0002            00002  3827     538.              SLL   R15,2
 000722 584F A370            00370  3828     539.              L     QR,CLWSBGPR(15)         GET REG VALUE
 000726 18F4/4100 0008       00008  3829     540.              SEGHX 8,(QR)                  E
 00072C 4D90 7178            001C2  3843             +
 000730 4D90 70F2            0013C  3844     541.              LCALL SEGBLNK                 INSERT A BLANK
 000734 4114 0000/1311       00000  3846     542.              VSEGLOC 0(QR),MODE=COND
 00073A 1211/4780 76FC       00746  3855             +
 000740 5890 678A/0D99       017A8  3859             +
 000746 4D90 7138            00182  3862     543.              LCALL WRITE
 00074A 1923/0785                   3864     544.              IF    (SR,EQ,TR),RR
 00074E 4120 2001            00001  3882     545.              LA    SR,@SR+1
 000752 5920 679A            017B8  3883     546.              IF    (SR,GE,16),'CLEAR SR'
 000756 4750 7712/1B22       0075C  3895             +
 00075C 47F0 76B8            00702  3909     547.              B     SHGDO
                                    3910     548.
 000760 4110 012C            0012C  3911     549.     ILLGPR   SEG   'Invalid GPR'
 000764 4590 6736            01754  3913             +
 000768 47F0 70BE            00108  3914     550.              B     ERROR
1VSD      (VSD07) (09:49) (22MAR04) ORVYL'S SHOW AND DUMP COMMANDS                                                          Page   32
0Current Usings:  (BASE2,R6) (BASE,R7) (WA,R8) (CLW,R10) (LCB,R11)
0Loc    Object Code    Addr1 Addr2  Stmt Lv Lineno    Source Statement           (Hibal 5, Asmedit 3.3)  HLASM R4.0  2004/03/22 09.49
+___    ______ ____    _____ _____  ____ __ ______    ______ _________
0                                   3916     552.     *  SHOW SAVE GPRS
                                    3917     553.     *
 00076C                             3918     554.     SHSGPRS  DS    0H
 00076C 4D90 7032            0007C  3919     555.              PRVBLOCK
 000770 1B22                        3922     556.              CLEAR SR                      SET DEFAULT VALUES
 000772 4130 000F            0000F  3926     557.              LA    TR,15
 000776 4D90 710C            00156  3927     558.              EVAL                          FIRST REG.
 00077A 4780 7752            0079C  3930     559.              BZ    SHSGBOTH
 00077E 5500 679E            017BC  3931     560.              CL    R0,=F'16'
 000782 47B0 7716            00760  3932     561.              BNL   ILLGPR
 000786 1820                        3933     562.              LR    SR,R0
 000788 1830                        3934     563.              LR    TR,R0
 00078A 4D90 710C            00156  3935     564.              EVAL                          SECOND REG.
 00078E 4780 7752            0079C  3938     565.              BZ    SHSGBOTH
 000792 5500 679E            017BC  3939     566.              CL    R0,=F'16'
 000796 47B0 7716            00760  3940     567.              BNL   ILLGPR
 00079A 1830                        3941     568.              LR    TR,R0
 00079C 1857                        3942     569.     SHSGBOTH LR    RR,BR
                                    3943     570.
 00079E 4110 0138            00138  3944     571.     SHSGDO   SEG   'Save GPR '
 0007A2 4590 6736            01754  3946             +
 0007A6 18F2/4100 0002       00002  3947     572.              SEGDC 2,(SR)
 0007AC 4D90 7152            0019C  3961             +
 0007B0 4110 0128            00128  3962     573.              SEG   ' = '
 0007B4 4590 6736            01754  3964             +
 0007B8 18F2                        3965     574.              LR    R15,SR
 0007BA 89F0 0002            00002  3966     575.              SLL   R15,2
 0007BE 5840 A000            00000  3967     576.              L     QR,CLWSCP               GET THE SCP ADDRESS
 0007C2 584F 4078            00078  3968     577.              WITH  (SCP,QR),'L QR,SCPXGPRS(R15)'
 USING  SCP,R4
 DROP   SCP,R4
 0007C6 18F4/4100 0008       00008  3992     578.              SEGHX 8,(QR)
 0007CC 4D90 7178            001C2  4006             +
 0007D0 4D90 70F2            0013C  4007     579.              LCALL SEGBLNK                 INSERT A BLANK
 0007D4 4114 0000/1311       00000  4009     580.              VSEGLOC 0(QR),MODE=COND
 0007DA 1211/4780 779C       007E6  4018             +
 0007E0 5890 678A/0D99       017A8  4022             +
 0007E6 4D90 7138            00182  4025     581.              LCALL WRITE
 0007EA 1923/0785                   4027     582.              IF    (SR,EQ,TR),RR
 0007EE 4120 2001            00001  4045     583.              LA    SR,@SR+1
 0007F2 5920 679A            017B8  4046     584.              IF    (SR,GE,16),'CLEAR SR'
 0007F6 4750 77B2/1B22       007FC  4058             +
 0007FC 47F0 7754            0079E  4072     585.              B     SHSGDO
1VSD      (VSD07) (09:49) (22MAR04) ORVYL'S SHOW AND DUMP COMMANDS                                                          Page   33
0Current Usings:  (BASE2,R6) (BASE,R7) (WA,R8) (CLW,R10) (LCB,R11)
0Loc    Object Code    Addr1 Addr2  Stmt Lv Lineno    Source Statement           (Hibal 5, Asmedit 3.3)  HLASM R4.0  2004/03/22 09.49
+___    ______ ____    _____ _____  ____ __ ______    ______ _________
0                                   4074     587.     *  SHOW CLP GPRS
                                    4075     588.     *
 000800 1B22                        4076     589.     SHCLGPRS CLEAR SR                      SET DEFAULT VALUES
 000802 4130 000F            0000F  4081     590.              LA    TR,15
 000806 4D90 710C            00156  4082     591.              EVAL                          FIRST REG.
 00080A 4780 77E2            0082C  4085     592.              BZ    SHCLGBTH
 00080E 5500 679E            017BC  4086     593.              CL    R0,=F'16'
 000812 47B0 7716            00760  4087     594.              BNL   ILLGPR
 000816 1820                        4088     595.              LR    SR,R0
 000818 1830                        4089     596.              LR    TR,R0
 00081A 4D90 710C            00156  4090     597.              EVAL                          SECOND REG.
 00081E 4780 77E2            0082C  4093     598.              BZ    SHCLGBTH
 000822 5500 679E            017BC  4094     599.              CL    R0,=F'16'
 000826 47B0 7716            00760  4095     600.              BNL   ILLGPR
 00082A 1830                        4096     601.              LR    TR,R0
 00082C 1857                        4097     602.     SHCLGBTH LR    RR,BR
                                    4098     603.
 00082E 4110 0142            00142  4099     604.     SHCLGDO  SEG   'CLP GPR '
 000832 4590 6736            01754  4101             +
 000836 18F2/4100 0002       00002  4102     605.              SEGDC 2,(SR)
 00083C 4D90 7152            0019C  4116             +
 000840 4110 0128            00128  4117     606.              SEG   ' = '
 000844 4590 6736            01754  4119             +
 000848 18F2                        4120     607.              LR    R15,SR
 00084A 89F0 0002            00002  4121     608.              SLL   R15,2
 00084E 5810 A000            00000  4122     609.              L     R1,CLWSCP
 000852 581F 1108            00108  4123     610.              WITH  (SCP,R1),'L R1,SCPCLPGP(R15)'
 USING  SCP,R1
 DROP   SCP,R1
 000856 18F1/4100 0008       00008  4147     611.              SEGHX 8,(R1)
 00085C 4D90 7178            001C2  4161             +
 000860 4D90 7138            00182  4162     612.              LCALL WRITE
 000864 1923/0785                   4164     613.              IF    (SR,EQ,TR),RR
 000868 4120 2001            00001  4182     614.              LA    SR,@SR+1
 00086C 5920 679A            017B8  4183     615.              IF    (SR,GE,16),'CLEAR SR'
 000870 4750 782C/1B22       00876  4195             +
 000876 47F0 77E4            0082E  4209     616.              B     SHCLGDO
1VSD      (VSD07) (09:49) (22MAR04) ORVYL'S SHOW AND DUMP COMMANDS                                                          Page   34
0Current Usings:  (BASE2,R6) (BASE,R7) (WA,R8) (CLW,R10) (LCB,R11)
0Loc    Object Code    Addr1 Addr2  Stmt Lv Lineno    Source Statement           (Hibal 5, Asmedit 3.3)  HLASM R4.0  2004/03/22 09.49
+___    ______ ____    _____ _____  ____ __ ______    ______ _________
0                                   4211     618.     *  SHOW FPRS
                                    4212     619.     *
 00087A                             4213     620.     SHFPRS   LABEL ,
 00087A 4D90 7032            0007C  4215     621.              PRVBLOCK
 00087E 1B22                        4218     622.              CLEAR SR
 000880 4130 0006            00006  4222     623.              LA    TR,6
 000884 4D90 710C            00156  4223     624.              EVAL                          GET 1ST REG
 000888 4780 7870            008BA  4226     625.              IF    NZ,BEGIN
 00088C 1820                        4237  1  626.                LR    SR,R0
 00088E 1830                        4238  1  627.                LR    TR,R0
 000890 5900 67A2            017C0  4239  1  628.                IF    (R0,GT,6),ILLFPR
 000894 4720 78CC            00916  4253  1          +
 000898 5400 67A6            017C4  4259  1  629.                IF    ('N  R0,=A(1)',NZ),ILLFPR
 00089C 4770 78CC            00916  4269  1          +
 0008A0 4D90 710C            00156  4275  1  630.                EVAL
 0008A4 4780 7870            008BA  4278  1  631.                IF    Z,EXIT
 0008A8 1830                        4292  1  632.                LR    TR,R0
 0008AA 5900 67A2            017C0  4293  1  633.                IF    (R0,GT,6),ILLFPR
 0008AE 4720 78CC            00916  4307  1          +
 0008B2 5400 67A6            017C4  4313  1  634.                IF    ('N  R0,=A(1)',NZ),ILLFPR
 0008B6 4770 78CC            00916  4323  1          +
 0008BA                             4329     635.              END   ,
 0008BA 1857                        4333     636.              LR    RR,BR
                                    4334     637.
 0008BC 4110 014B            0014B  4335     638.     SHFDO    SEG   'FPR  '
 0008C0 4590 6736            01754  4337             +
 0008C4 18F2/4100 0001       00001  4338     639.              SEGHX 1,(SR)
 0008CA 4D90 7178            001C2  4352             +
 0008CE 4110 0128            00128  4353     640.              SEG   ' = '
 0008D2 4590 6736            01754  4355             +
 0008D6 18F2                        4356     641.              LR    R15,SR
 0008D8 89F0 0004            00004  4357     642.              SLL   R15,4                   SHIFT INTO PROPER REG POS
 0008DC 44F0 6830            0184E  4358     643.              EX    R15,'STD 0,AREA'        STORE THE REGISTER
 00184D 00/6000 8048         00048                   +
 0008E0 58F0 8048            00048  4374     644.              SEGHX 8,AREA
 0008E4 4100 0008            00008  4386             +
 0008E8 4D90 7178            001C2  4388             +
 0008EC 4D90 70F2            0013C  4389     645.              LCALL SEGBLNK                 INSERT A BLANK
 0008F0 58F0 804C            0004C  4391     646.              SEGHX 8,AREA+4
 0008F4 4100 0008            00008  4403             +
 0008F8 4D90 7178            001C2  4405             +
 0008FC 4D90 7138            00182  4406     647.              LCALL WRITE
 000900 1923/0785                   4408     648.              IF    (SR,EQ,TR),RR
 000904 4120 2002            00002  4426     649.              LA    SR,@SR+2
 000908 5920 67A2            017C0  4427     650.              IF    (SR,GT,6),'CLEAR SR'
 00090C 47D0 78C8/1B22       00912  4439             +
 000912 47F0 7872            008BC  4453     651.              B     SHFDO
                                    4454     652.
 000916 4110 0151            00151  4455     653.     ILLFPR   SEG   'Invalid FPR'
 00091A 4590 6736            01754  4457             +
 00091E 47F0 70BE            00108  4458     654.              B     ERROR
1VSD      (VSD07) (09:49) (22MAR04) ORVYL'S SHOW AND DUMP COMMANDS                                                          Page   35
0Current Usings:  (BASE2,R6) (BASE,R7) (WA,R8) (CLW,R10) (LCB,R11)
0Loc    Object Code    Addr1 Addr2  Stmt Lv Lineno    Source Statement           (Hibal 5, Asmedit 3.3)  HLASM R4.0  2004/03/22 09.49
+___    ______ ____    _____ _____  ____ __ ______    ______ _________
0                                   4460     656.     *
                                    4461     657.     * SHOW ORVYL COMMUNICATION TABLE CONTENTS
                                    4462     658.     *
 000922                             4463     659.     SHCT     DS    0H
 000922 4D90 705A            000A4  4464     660.              SYSONLY ,
 000926 4D90 710C            00156  4467     661.              EVAL
 00092A 4720 78E6            00930  4470     662.              BP    SHCT1                   OFFSET?
 00092E 1B00                        4471     663.              CLEAR R0
 000930 1220                        4475     664.     SHCT1    LTR   SR,R0
 000932 0747                        4476     665.              BMR   BR
 000934 4100 003C/0AED       0003C  4477     666.              CLPSERV LOCCT                 SENSE CT ADDRESS
 00093A 1A21                        4486     667.              AR    SR,R1
 00093C 4130 0100            00100  4487     668.              LA    TR,256                  LENGTH OF THE CT
 000940 1A3F                        4488     669.              AR    TR,R15                  END OF THE CT
 000942 4D90 710C            00156  4489     670.              EVAL                          USER LENGTH?
 000946 4780 790A            00954  4492     671.              IF    NZER,BEGIN
 00094A 1A02                        4503  1  672.                AR    R0,SR                   COMPUTE END ADDRESS
 00094C 1903                        4504  1  673.                CR    R0,TR                   OK?
 00094E 4720 790A/1830       00954  4505  1  674.                IF    NPOS,'LR  TR,R0'
 000954                             4522     675.              END   ,
 000954 1802                        4526     676.              LR    R0,SR
 000956 1813                        4527     677.              LR    R1,TR
 000958 9604 8030      00030        4528     678.              SET   WAFLNOT                 TEXT IS USELESS
 00095C 47F0 7956            009A0  4534     679.              B     SHCB                     DO CORE DISPLAY
-                                   4536     681.     *
                                    4537     682.     *  SHOW SESSION CONTROL PAGE
                                    4538     683.     *
 000960                             4539     684.     SHSCP    DS    0H
 000960 4D90 705A            000A4  4540     685.              SYSONLY ,
 000964 4D90 710C            00156  4543     686.              EVAL
 000968 4720 7924/1B00       0096E  4546     687.              IF    NP,'CLEAR  R0'
 00096E 1220                        4566     688.              LTR   SR,R0
 000970 0747                        4567     689.              BMR   BR
 000972 5A20 A000            00000  4568     690.              A     SR,CLWSCP               GET OFFSET INTO SCP
 000976 5830 A000            00000  4569     691.              L     TR,CLWSCP
 00097A 5E30 67AA            017C8  4570     692.              AL    TR,=A(L'SCP)            DEFAULT LENGTH
 00097E 4D90 710C            00156  4571     693.              EVAL                          USER LENGTH?
 000982 4780 7946            00990  4574     694.              IF    NZER,BEGIN
 000986 1A02                        4585  1  695.                AR    R0,SR                   COMPUTE END ADDRESS
 000988 1903                        4586  1  696.                CR    R0,TR                   OK?
 00098A 4720 7946/1830       00990  4587  1  697.                IF    NH,'LR  TR,R0'
 000990                             4604     698.              END   ,
 000990 1802                        4608     699.              LR    R0,SR
 000992 1813                        4609     700.              LR    R1,TR
 000994 47F0 7956            009A0  4610     701.              B     SHCB                     DO CORE DISPLAY
1VSD      (VSD07) (09:49) (22MAR04) ORVYL'S SHOW AND DUMP COMMANDS                                                          Page   36
0Current Usings:  (BASE2,R6) (BASE,R7) (WA,R8) (CLW,R10) (LCB,R11)
0Loc    Object Code    Addr1 Addr2  Stmt Lv Lineno    Source Statement           (Hibal 5, Asmedit 3.3)  HLASM R4.0  2004/03/22 09.49
+___    ______ ____    _____ _____  ____ __ ______    ______ _________
0                                   4612     703.     *  SHOW CORE
                                    4613     704.     *
 000998                             4614     705.     SHCORE   DS    0H
 000998 4D90 7032            0007C  4615     706.              PRVBLOCK
 00099C 47F0 7966            009B0  4618     707.              B     SHCORE1
 0009A0 5000 8034            00034  4619     708.     SHCB     ST    R0,WASCADDR             SHO CONTROL BLOCK
 0009A4 5010 803C            0003C  4620     709.              ST    R1,WASCLEN
 0009A8 47F0 79B0            009FA  4621     710.              B     SHCORE2
                                    4622     711.
 0009AC 9608 A208      00208        4623     712.     SHOSC    SET   CLWFOSC
 0009B0                             4630     713.     SHCORE1  DS    0H
 0009B0 4D90 710C            00156  4631     714.              EVAL                          GET ADDR
 0009B4 4780 7E28            00E72  4634     715.              BZ    SHSTAT                  BR IF NULL
 0009B8 9108 A208      00208        4635     716.              IF    CLWFOSC,BEGIN
 0009BC 47E0 797A            009C4  4645             +
 0009C0 5400 67AE            017CC  4650  1  717.                N     R0,=XL4'7FFFFFFF'
 0009C4                             4651     718.              END   ,
 0009C4 797E           009C4 009BE  4655     719.              ELSE  BEGIN
 0009C4 47F0 798E            009D8  4660             +
 0009C8 5400 67B2            017D0  4666  1  720.                N     R0,=XL4'1FFFFFFF'
 0009CC 9140 A20C      0020C        4667  1  721.                IF    ~CLWSSP,BEGIN
 0009D0 4710 798E            009D8  4677  1          +
 0009D4 5400 67B6            017D4  4682  2  722.                  N     R0,=XL4'00FFFFFF'
 0009D8                             4683  1  723.                END   ,
 0009D8                             4687     724.              END   ,
 0009D8 5000 8034            00034  4691     725.              ST    R0,WASCADDR             SET ADDR
 0009DC D203 803C 67BA 0003C 017D8  4692     726.              MVC   WASCLEN,=A(256)         DEFAULT LENGTH
 0009E2 D203 8040 67BE 00040 017DC  4693     727.              MVC   WAMCHLEN,=X'01000000'   MATCH MAX
 0009E8 4110 7D3A            00D84  4694     728.     SCSCANON SCAN  SCTBL,CLWKWCB           SCAN SHOW CORE OPTIONS
 0009EC 41F0 A2C4            002C4  4708             +
 0009F0 58E0 677E/0DEE       0179C  4711             +
 0009F6 4740 7016            00060  4713     729.              BM    ILLSTR
 0009FA 9108 A208      00208        4714     730.     SHCORE2  IF    ~CLWFOSC,SHCNPRIV       PRIVILEGED CORE?
 0009FE 47E0 79BC            00A06  4727             +
 000A02 4D90 704E            00098  4733     731.              BAS   RAR,GTEST               CHECK HIM OUT
 000A06 5810 8034            00034  4734     732.     SHCNPRIV L     R1,WASCADDR
 000A0A 41F0 0001            00001  4735     733.              LA    R15,1                   TEST LENGTH
 000A0E 4100 8048            00048  4736     734.              LA    R0,AREA
 000A12 5890 67C2/0D99       017E0  4737     735.              VCALL READCORE
 000A18 55F0 67C6            017E4  4741     736.              CL    R15,=F'12'              OK?
 000A1C 4780 7D2E            00D78  4742     737.              BE    ILLADDR                 BR IF NOT
                                    4743     738.
 000A20 9180 8030      00030        4744     739.     SHCDO    IF    WAFLMCH,'L  R1,WAMCHLEN'   MATCHING
 000A24 47E0 79E2            00A2C  4755             +
 000A28 5810 8040            00040  4761             +
 000A2C 79E6           00A2C 00A26  4766     740.              ELSE  BEGIN
 000A2C 47F0 79F4            00A3E  4771             +
 000A30 5810 803C            0003C  4777  1  741.                L     R1,WASCLEN
 000A34 1211/4740 79F4       00A3E  4778  1  742.                IF    (R1,NM),'CLEAR  WAFLREP'
 000A3A 94BF 8030      00030        4799  1          +
 000A3E                             4804     743.              END   ,
 000A3E 1211/47B0 79FC       00A46  4808     744.              IF    (R1,M),'LCR  R1,R1'    TEST END ADDRESS (NEG=>LENGTH)
 000A44 1311                        4823             +
                                    4828     745.
1VSD      (VSD07) (09:49) (22MAR04) ORVYL'S SHOW AND DUMP COMMANDS                                                          Page   37
0Current Usings:  (BASE2,R6) (BASE,R7) (WA,R8) (CLW,R10) (LCB,R11)
0Loc    Object Code    Addr1 Addr2  Stmt Lv Lineno    Source Statement           (Hibal 5, Asmedit 3.3)  HLASM R4.0  2004/03/22 09.49
+___    ______ ____    _____ _____  ____ __ ______    ______ _________
0000A46 5E10 8034            00034  4829     746.     SHCDO3   AL    R1,WASCADDR             NOW AN END ADDRESS
 000A4A 5010 8038            00038  4830     747.              ST    R1,WASCEND
 000A4E 5810 8034            00034  4831     748.     SHCDO1   L     R1,WASCADDR             PAST END?
 000A52 5910 8038            00038  4832     749.              C     R1,WASCEND
 000A56 4740 7A2C            00A76  4833     750.              IF    NL,BEGIN               NO
 000A5A 9140 8030      00030        4844  1  751.                IF    ~WAFLREP,'BR BR'        REPEAT?
 000A5E 4710 7A1A/07F7       00A64  4854  1          +
 000A64 9180 8030      00030        4865  1  752.                IF    WAFLMCH,'BR BR'
 000A68 47E0 7A24/07F7       00A6E  4875  1          +
 000A6E 9680 8030      00030        4886  1  753.                SET   WAFLMCH
 000A72 47F0 79D6            00A20  4892  1  754.                B     SHCDO
 000A76                             4893     755.              END   ,
 000A76 5410 67CA            017E8  4897     756.              N     R1,=XL4'7FFFFFF0'       TO 16 BYTE BOUNDARY
 000A7A 41F0 0010            00010  4898     757.              LA    R15,16
 000A7E 4100 8048            00048  4899     758.              LA    R0,AREA
 000A82 5890 67C2/0D99       017E0  4900     759.              VCALL READCORE
 000A88 47FF 7A42            00A8C  4904     760.              B     *+4(R15)                BR ON CODE
 000A8C 47F0 7A52            00A9C  4905     761.              B     SHCKEEP
 000A90 47F0 7A52            00A9C  4906     762.              B     SHCKEEP
 000A94 47F0 7CA2            00CEC  4907     763.              B     SHCNONE
 000A98 47F0 7E12            00E5C  4908     764.              B     SHCEXIT
                                    4909     765.     *
                                    4910     766.     *  PROCESS KEPT CORE
                                    4911     767.     *
 000A9C                             4912     768.     SHCKEEP  DS    0H
 000A9C 5830 8034            00034  4913     769.              L     TR,WASCADDR             REQUESTED ADDRESS TO SHOW
 000AA0 9180 8030      00030        4914     770.              IF    WAFLMCH,SHCMCH          SEARCH FOR MATCH
 000AA4 4710 7C08            00C52  4926             +
 000AA8 1841                        4932     771.              LR    QR,R1                   SAVE ADDR OF CORE FETCHED
 000AAA 1531                        4933     772.              CLR   TR,R1                   SAME AS REQUESTED ADDR?
 000AAC 4770 7A70            00ABA  4934     773.              BNE   SHCKNS                  NOT SAME
 000AB0 D50B 8048 804C 00048 0004C  4935     774.              CLC   AREA(12),AREA+4         ALL WORDS SAME?
 000AB6 4780 7B6C            00BB6  4936     775.              BE    SHCKS                   BR IF SO
 000ABA                             4937     776.     SHCKNS   DS    0H
 000ABA 9110 8030      00030        4938     777.              IF    ~WAFLNOA,BEGIN          ADDRESS
 000ABE 4710 7A86            00AD0  4948             +
 000AC2 18F3/4D90 7174       001BE  4953  1  778.                SEGLC (TR)
 000AC8 4110 015D            0015D  4961  1  779.                SEG   '  '
 000ACC 4590 6736            01754  4963  1          +
 000AD0                             4964     780.              END   ,
 000AD0 9108 8030      00030        4968     781.              IF    ~WAFLNOH,BEGIN          NOHEX
 000AD4 4710 7ACA            00B14  4978             +
 000AD8 58F0 8048            00048  4983  1  782.                BTX   CLWTEMP,8,AREA          DATA
 000ADC 4100 0008            00008  4995  1          +
 000AE0 4110 A2E8            002E8  5002  1          +
 000AE4 58E0 6776/0DEE       01794  5005  1          +
 000AEA 58F0 804C            0004C  5007  1  783.                BTX   CLWTEMP+8,(0),AREA+4
 000AEE 4110 A2F0            002F0  5024  1          +
 000AF2 58E0 6776/0DEE       01794  5027  1          +
 000AF8 58F0 8050            00050  5029  1  784.                BTX   CLWTEMP+16,(0),AREA+8
 000AFC 4110 A2F8            002F8  5046  1          +
 000B00 58E0 6776/0DEE       01794  5049  1          +
 000B06 58F0 8054            00054  5051  1  785.                BTX   CLWTEMP+24,(0),AREA+12
 000B0A 4110 A300            00300  5068  1          +
1VSD      (VSD07) (09:49) (22MAR04) ORVYL'S SHOW AND DUMP COMMANDS                                                          Page   38
0Current Usings:  (BASE2,R6) (BASE,R7) (WA,R8) (CLW,R10) (LCB,R11)
0Loc    Object Code    Addr1 Addr2  Stmt Lv Lineno    Source Statement           (Hibal 5, Asmedit 3.3)  HLASM R4.0  2004/03/22 09.49
+___    ______ ____    _____ _____  ____ __ ______    ______ _________
0000B0E 58E0 6776/0DEE       01794  5071  1          +
 000B14                             5073     786.              END   ,
 000B14 DC0F 8048 6636 00048 01654  5077     787.              TR    AREA(16),BCDTBL         TRANSLATE FOR BCD
 000B1A 1B34                        5078     788.              SR    TR,QR                   REQUEST ADDR-FETCH ADDRESS
 000B1C 4780 7AF4            00B3E  5079     789.              BZ    SHCNB                   FETCH=REQUEST: NO BLANKING
 000B20 9240 A2E8      002E8        5080     790.              MVI   CLWTEMP,C' '            BUT BLANK
 000B24 924B 8048      00048        5081     791.              MVI   AREA,C'.'               UNWANTED INFO
 000B28 4630 7AE6            00B30  5082     792.              BCT   TR,SHCBL2               JUMP IF BLANKING >1
 000B2C 47F0 7AF0            00B3A  5083     793.              B     SHCBL1                  BLANK ONLY 1
 000B30 0630/4430 6834       01852  5084     794.     SHCBL2   DEX   TR,'MVC  AREA+1(0),AREA'
 001852 D200 8049 8048 00049 00048  5095             +
 000B36 4133 3002            00002  5103     795.              LA    TR,@TR+2(TR)
 000B3A 4430 683A            01858  5104     796.     SHCBL1   EX    TR,'MVC  CLWTEMP+1(0),CLWTEMP'
 001858 D200 A2E9 A2E8 002E9 002E8  5112             +
 000B3E 9108 8030      00030        5120     797.     SHCNB    IF    ~WAFLNOH,BEGIN          NOHEX
 000B42 4710 7B38            00B82  5131             +
 000B46 4110 A2E8            002E8  5136  1  798.                SEG   CLWTEMP,8               PUT DATA IN BUFFER
 000B4A 4100 0008            00008  5152  1          +
 000B4E 4590 70DA            00124  5153  1          +
 000B52 4D90 70F2            0013C  5154  1  799.                LCALL SEGBLNK                 INSERT A BLANK
 000B56 4110 A2F0            002F0  5156  1  800.                SEG   CLWTEMP+8,8
 000B5A 4100 0008            00008  5172  1          +
 000B5E 4590 70DA            00124  5173  1          +
 000B62 4D90 70F2            0013C  5174  1  801.                LCALL SEGBLNK                 INSERT A BLANK
 000B66 4110 A2F8            002F8  5176  1  802.                SEG   CLWTEMP+16,8
 000B6A 4100 0008            00008  5192  1          +
 000B6E 4590 70DA            00124  5193  1          +
 000B72 4D90 70F2            0013C  5194  1  803.                LCALL SEGBLNK                 INSERT A BLANK
 000B76 4110 A300            00300  5196  1  804.                SEG   CLWTEMP+24,8
 000B7A 4100 0008            00008  5212  1          +
 000B7E 4590 70DA            00124  5213  1          +
 000B82                             5214     805.              END   ,
 000B82 9104 8030      00030        5218     806.              IF    ~WAFLNOT,BEGIN          NOTEXT
 000B86 4710 7B5C            00BA6  5228             +
 000B8A 4110 0160            00160  5233  1  807.                SEG   ' |'
 000B8E 4590 6736            01754  5235  1          +
 000B92 4110 8048            00048  5236  1  808.                SEG   AREA,16
 000B96 4100 0010            00010  5252  1          +
 000B9A 4590 70DA            00124  5253  1          +
 000B9E 4110 0163            00163  5254  1  809.                SEG   '|'
 000BA2 4590 6736            01754  5256  1          +
 000BA6                             5257     810.              END   ,
 000BA6 4D90 7138            00182  5261     811.              LCALL WRITE
 000BAA 5E40 679A            017B8  5263     812.              AL    QR,=A(16)               NEXT ADDRESS
 000BAE 5040 8034            00034  5264     813.              ST    QR,WASCADDR
 000BB2 47F0 7A04            00A4E  5265     814.              B     SHCDO1
                                    5266     815.     *
                                    5267     816.     *  SEARCH FOR EQUAL WORDS
                                    5268     817.     *        - 1=TR=FETCH=REQUEST
                                    5269     818.     *
 000BB6 41F0 0010            00010  5270     819.     SHCKS    LA    R15,16
 000BBA 1A1F                        5271     820.              AR    R1,R15                  NEXT CHUNK
 000BBC 5510 8038            00038  5272     821.              CL    R1,WASCEND
 000BC0 47B0 7BA2            00BEC  5273     822.              BNL   SHCKS1
1VSD      (VSD07) (09:49) (22MAR04) ORVYL'S SHOW AND DUMP COMMANDS                                                          Page   39
0Current Usings:  (BASE2,R6) (BASE,R7) (WA,R8) (CLW,R10) (LCB,R11)
0Loc    Object Code    Addr1 Addr2  Stmt Lv Lineno    Source Statement           (Hibal 5, Asmedit 3.3)  HLASM R4.0  2004/03/22 09.49
+___    ______ ____    _____ _____  ____ __ ______    ______ _________
0000BC4 4100 8058            00058  5274     823.              LA    R0,AREA2
 000BC8 58E0 A000            00000  5275     824.              L     R14,CLWSCP
 USING  SCP,R14                     5276     825.              WITH  (SCP,R14),BEGIN
 000BCC 9140 E261      00261        5290  1  826.                IF    SCBCFCLA,REQABORT       ATTN
 000BD0 4710 7026            00070  5302  1          +
 DROP   SCP,R14                     5308     827.              END   ,
 000BD4 5890 67C2/0D99       017E0  5316     828.              VCALL READCORE
 000BDA 55F0 67CE            017EC  5320     829.              CL    R15,=F'4'
 000BDE 4720 7BA2            00BEC  5321     830.              BH    SHCKS1
 000BE2 D50F 8048 8058 00048 00058  5322     831.              CLC   AREA(16),AREA2          EQUAL?
 000BE8 4780 7B6C            00BB6  5323     832.              BE    SHCKS                   BR IF SO
 000BEC 5010 8034            00034  5324     833.     SHCKS1   ST    R1,WASCADDR
 000BF0 1B13                        5325     834.              SR    R1,TR                   EQUAL WORDS LENGTH
 000BF2 5510 679E            017BC  5326     835.              CL    R1,=F'16'
 000BF6 47D0 7A70            00ABA  5327     836.              BNH   SHCKNS
                                    5328     837.
 000BFA 1821                        5329     838.              LR    SR,R1                   SAVE COUNT
 000BFC 18F3/4D90 7174       001BE  5330     839.              SEGLC (TR)                    LOCATION
 000C02 4110 0165            00165  5338     840.              SEG   '   '
 000C06 4590 6736            01754  5340             +
 000C0A 18F2/4100 0006       00006  5341     841.              SEGHX 6,(SR)
 000C10 4D90 7178            001C2  5355             +
 000C14 4110 0169            00169  5356     842.              SEG   ' Bytes all contain '
 000C18 4590 6736            01754  5358             +
 000C1C 58F0 8048            00048  5359     843.              SEGHX 8,AREA
 000C20 4100 0008            00008  5371             +
 000C24 4D90 7178            001C2  5373             +
 000C28 DC03 8048 6636 00048 01654  5374     844.              TR    AREA(4),BCDTBL
 000C2E 4110 017D            0017D  5375     845.              SEG   '  |'
 000C32 4590 6736            01754  5377             +
 000C36 4110 8048            00048  5378     846.              SEG   AREA,4
 000C3A 4100 0004            00004  5394             +
 000C3E 4590 70DA            00124  5395             +
 000C42 4110 0163            00163  5396     847.              SEG   '|'
 000C46 4590 6736            01754  5398             +
 000C4A 4D90 7138            00182  5399     848.              LCALL WRITE
 000C4E 47F0 7A04            00A4E  5401     849.              B     SHCDO1
                                    5402     850.     *
                                    5403     851.     *  SEARCH FOR MATCH
                                    5404     852.     *        - 1=FETCH
                                    5405     853.     *        - TR=REQUEST
                                    5406     854.     *
 000C52 18F3                        5407     855.     SHCMCH   LR    R15,TR
 000C54 5820 8038            00038  5408     856.              L     SR,WASCEND
 000C58 1B23                        5409     857.              SR    SR,TR                   LENGTH
 000C5A 1BF1                        5410     858.              SR    R15,R1                  OFFSET INTO FIRST CHUNK
 000C5C 41FF 8058            00058  5411     859.              LA    R15,AREA2(R15)
 000C60 D20F 8058 8048 00058 00048  5412     860.              MVC   AREA2(16),AREA
 000C66 4140 8068            00068  5413     861.              LA    QR,AREA2+16
 000C6A 1FEE/43E0 8031       00031  5414     862.              LC    R14,WAMCHSZ             MATCH LENGTH - 1
 000C70 1B4E                        5421     863.              SR    QR,R14                  MATCH SCAN STOPPER
 000C72 47F0 7C44            00C8E  5422     864.              B     SHCMCH2                 JUMP INTO SEARCH
                                    5423     865.
 000C76 43E0 8031            00031  5424     866.     SHCMCH1  IC    R14,WAMCHSZ
1VSD      (VSD07) (09:49) (22MAR04) ORVYL'S SHOW AND DUMP COMMANDS                                                          Page   40
0Current Usings:  (BASE2,R6) (BASE,R7) (WA,R8) (CLW,R10) (LCB,R11)
0Loc    Object Code    Addr1 Addr2  Stmt Lv Lineno    Source Statement           (Hibal 5, Asmedit 3.3)  HLASM R4.0  2004/03/22 09.49
+___    ______ ____    _____ _____  ____ __ ______    ______ _________
0000C7A 44E0 6840            0185E  5425     867.              EX    R14,'CLC  @R15(*-*),MATAREA'
 00185E D500 F000 8068 00000 00068  5433             +
 000C7E 4780 7C7E            00CC8  5441     868.              BE    SHCMCH3
 000C82 41F0 F001            00001  5442     869.              LA    R15,@R15+1
 000C86 4620 7C44            00C8E  5443     870.              BCT   SR,SHCMCH2
 000C8A 47F0 7E12            00E5C  5444     871.              B     SHCEXIT
 000C8E 19F4                        5445     872.     SHCMCH2  CR    R15,QR                  TIME FOR NEXT BUFFER?
 000C90 4740 7C2C            00C76  5446     873.              BL    SHCMCH1
 000C94 D20F 8048 8058 00048 00058  5447     874.              MVC   AREA(16),AREA2
 000C9A 41F0 0010            00010  5448     875.              LA    R15,16                  FETCH LENGTH
 000C9E 1A1F                        5449     876.              AR    R1,R15                  NEXT ADDRESS
 000CA0 4100 8058            00058  5450     877.              LA    R0,AREA2
 000CA4 58E0 A000            00000  5451     878.              L     R14,CLWSCP
 USING  SCP,R14                     5452     879.              WITH  (SCP,R14),BEGIN
 000CA8 9140 E261      00261        5466  1  880.                IF    SCBCFCLA,SRCHABRT       ATTN
 000CAC 4710 7D1A            00D64  5478  1          +
 DROP   SCP,R14                     5484     881.              END   ,
 000CB0 5890 67C2/0D99       017E0  5492     882.              VCALL READCORE
 000CB6 55F0 67CE            017EC  5496     883.              CL    R15,=F'4'
 000CBA 4720 7C96            00CE0  5497     884.              BH    SHCMCH4
 000CBE 18F4                        5498     885.              LR    R15,QR                  COPY STOPPER
 000CC0 5BF0 679A            017B8  5499     886.              S     R15,=A(16)              COMPARE START
 000CC4 47F0 7C2C            00C76  5500     887.              B     SHCMCH1
0                                   5502     889.     * MATCH FOUND
 000CC8                             5503     890.     SHCMCH3  DS    0H
 000CC8 94DF 8030      00030        5504     891.              CLEAR WAFLMFND                INDICATE MATCH FOUND
 000CCC 947F 8030      00030        5511     892.              CLEAR WAFLMCH                 DO NORMAL SHOW FROM MATCH
 000CD0 4100 8058            00058  5518     893.              LA    R0,AREA2
 000CD4 1B10                        5519     894.              SR    R1,R0
 000CD6 1A1F                        5520     895.              AR    R1,R15                  ADDRESS OF BYTE MATCHING
 000CD8 5010 8034            00034  5521     896.     SHCMCH3A ST    R1,WASCADDR
 000CDC 47F0 79D6            00A20  5522     897.              B     SHCDO
                                    5523     898.
 000CE0 5510 8038            00038  5524     899.     SHCMCH4  CL    R1,WASCEND
 000CE4 4740 7C8E            00CD8  5525     900.              BL    SHCMCH3A
 000CE8 47F0 7E12            00E5C  5526     901.              B     SHCEXIT
                                    5527     902.     *
                                    5528     903.     *  PROCESS CORE NOT KEPT
                                    5529     904.     *
 000CEC 5410 67D2            017F0  5530     905.     SHCNONE  N     R1,=X'7FFFF000'
                                    5531     906.
 000CF0 5E10 67D6            017F4  5532     907.     SHCNGO   AL    R1,=A(4096)
 000CF4 5510 8038            00038  5533     908.              CL    R1,WASCEND
 000CF8 47B0 7CDA            00D24  5534     909.              BNL   SHCND0
 000CFC 58F0 A000            00000  5535     910.              L     R15,CLWSCP
 USING  SCP,R15                     5536     911.              WITH  (SCP,R15),BEGIN
 000D00 9140 F261      00261        5550  1  912.                IF    SCBCFCLA,SRCHABRT       ATTN
 000D04 4710 7D1A            00D64  5562  1          +
 DROP   SCP,R15                     5568     913.              END   ,
 000D08 1BFF                        5576     914.              CLEAR R15
 000D0A 5890 67C2/0D99       017E0  5580     915.              VCALL READCORE
 000D10 47FF 7CCA            00D14  5584     916.              B     *+4(R15)
 000D14 47F0 7CDE            00D28  5585     917.              B     SHCND
1VSD      (VSD07) (09:49) (22MAR04) ORVYL'S SHOW AND DUMP COMMANDS                                                          Page   41
0Current Usings:  (BASE2,R6) (BASE,R7) (WA,R8) (CLW,R10) (LCB,R11)
0Loc    Object Code    Addr1 Addr2  Stmt Lv Lineno    Source Statement           (Hibal 5, Asmedit 3.3)  HLASM R4.0  2004/03/22 09.49
+___    ______ ____    _____ _____  ____ __ ______    ______ _________
0000D18 47F0 7CDE            00D28  5586     918.              B     SHCND
 000D1C 47F0 7CA6            00CF0  5587     919.              B     SHCNGO
 000D20 47F0 7CDE            00D28  5588     920.              B     SHCND
0000D24 5810 8038            00038  5590     922.     SHCND0   L     R1,WASCEND
 000D28 5820 8034            00034  5591     923.     SHCND    L     SR,WASCADDR
 000D2C 5010 8034            00034  5592     924.              ST    R1,WASCADDR
 000D30 9180 8030      00030        5593     925.              IF    WAFLMCH,SHCDO1          TRYING TO MATCH
 000D34 4710 7A04            00A4E  5605             +
 000D38 18F2                        5611     926.              LR    R15,SR                  SAVE START
 000D3A 1B12                        5612     927.              SR    R1,SR                   LENGTH NOT KEPT
 000D3C 1821                        5613     928.              LR    SR,R1
 000D3E 4D90 7174            001BE  5614     929.              SEGLC (15)                    START ADDRESS
 000D42 4110 0165            00165  5622     930.              SEG   '   '
 000D46 4590 6736            01754  5624             +
 000D4A 18F2/4100 0006       00006  5625     931.              SEGHX 6,(SR)                  LENGTH
 000D50 4D90 7178            001C2  5639             +
 000D54 4110 0181            00181  5640     932.              SEG   ' Bytes not defined'
 000D58 4590 6736            01754  5642             +
 000D5C 4D90 7138            00182  5643     933.              LCALL WRITE
 000D60 47F0 7A04            00A4E  5645     934.              B     SHCDO1
                                    5646     935.
 000D64                             5647     936.     SRCHABRT DS    0H                      SEARCH WAS ABORTED BY ATTN
 000D64 1831                        5648     937.              LR    TR,R1                   SAVE LAST ADDRESS
 000D66 4110 0194            00194  5649     938.              SEG   'Search aborted at '    TELL USER
 000D6A 4590 6736            01754  5651             +
 000D6E 18F3/4D90 7174       001BE  5652     939.              SEGLC (TR)                      WHERE
 000D74 47F0 70BE            00108  5660     940.              B     ERROR
                                    5661     941.
 000D78 4110 01A7            001A7  5662     942.     ILLADDR  SEG   'Invalid address'
 000D7C 4590 6736            01754  5664             +
 000D80 47F0 70BE            00108  5665     943.              B     ERROR
                                    5666     944.
 000D84                             5667     945.     SCTBL    SCKW  MATCH,SCMATCH,A
 000D84 0C000DC0D4C1E3C3            5668             +
 000D8D 01000DE0E3D6                5669     946.              SCKW  TO,SCTO
 000D93                             5671     947.              SCKW  REPEAT,SCREP,A
 000D93 0D000DEED9C5D7C5            5672             +
 000D9D                             5673     948.              SCKW  NOADDRES,SCNOA,A
 000D9D 0F000E00D5D6C1C4            5674             +
 000DA9                             5675     949.              SCKW  NOHEX,SCNOH,A
 000DA9 0C000E06D5D6C8C5            5676             +
 000DB2                             5677     950.              SCKW  NOTEXT,SCNOT,A
 000DB2 0D000E0CD5D6E3C5            5678             +
 000DBC FF000E12                    5679     951.              SCKW  ,SCLEN
                                    5681     952.
 000DC0 4100 0010            00010  5682     953.     SCMATCH  LA    R0,16
 000DC4 4110 8068            00068  5683     954.              LA    R1,MATAREA
 000DC8 5890 67DA/0D99       017F8  5684     955.              VCALL EVHEX
 000DCE 4770 70BE            00108  5688     956.              BNZ   ERROR                   PRINT ERROR MESSAGE
 000DD2 96A0 8030      00030        5689     957.              SET   WAFLMCH+WAFLMFND        SET 'MATCH'
 000DD6 0600                        5698     958.              DECR  R0                      FIX LENGTH FOR EX
 000DD8 4200 8031            00031  5700     959.              STC   R0,WAMCHSZ              MATCH LENGTH
 000DDC 47F0 799E            009E8  5701     960.              B     SCSCANON
1VSD      (VSD07) (09:49) (22MAR04) ORVYL'S SHOW AND DUMP COMMANDS                                                          Page   42
0Current Usings:  (BASE2,R6) (BASE,R7) (WA,R8) (CLW,R10) (LCB,R11)
0Loc    Object Code    Addr1 Addr2  Stmt Lv Lineno    Source Statement           (Hibal 5, Asmedit 3.3)  HLASM R4.0  2004/03/22 09.49
+___    ______ ____    _____ _____  ____ __ ______    ______ _________
0                                   5702     961.
 000DE0 4D90 710C            00156  5703     962.     SCTO     EVAL                          GET END ADDRESS
 000DE4 4780 709E            000E8  5706     963.              BZ    MISSING
 000DE8 1820                        5707     964.              LR    SR,R0
 000DEA 47F0 7DFA            00E44  5708     965.              B     SCLEN1
                                    5709     966.
 000DEE 9640 8030      00030        5710     967.     SCREP    SET   WAFLREP                 SET REPEAT INDICATOR
 000DF2 4110 0010            00010  5717     968.              LA    R1,16
 000DF6 1311                        5718     969.              LCR   R1,R1
 000DF8 5010 803C            0003C  5719     970.              ST    R1,WASCLEN
 000DFC 47F0 799E            009E8  5720     971.              B     SCSCANON
                                    5721     972.
 000E00 9610 8030      00030        5722     973.     SCNOA    SET   WAFLNOA                 SET NO ADDRESS
 000E04 07FE                        5729     974.              SCRTN (15)
                                    5736     975.
 000E06 9608 8030      00030        5737     976.     SCNOH    SET   WAFLNOH                 NOHEX
 000E0A 07FE                        5744     977.              SCRTN (15)
                                    5751     978.
 000E0C 9604 8030      00030        5752     979.     SCNOT    SET   WAFLNOT                 NOTEXT
 000E10 07FE                        5759     980.              SCRTN (15)
                                    5766     981.
 000E12 9001 8050            00050  5767     982.     SCLEN    STM   R0,R1,AREA+8
 000E16 58E0 67DE/0DEE       017FC  5768     983.              SCTELL (15)                   OBTAIN CURRENT SCAN
 000E1C 9001 8048            00048  5778     984.              STM   R0,R1,AREA
 000E20 9801 8050            00050  5779     985.              LM    R0,R1,AREA+8
 000E24 58E0 67E2/0DEE       01800  5780     986.              SCINIT (1),(0),(15)           SET TO SCAN LENGTH
 000E2A 4D90 710C            00156  5800     987.              EVAL
 000E2E 1820                        5803     988.              LR    SR,R0
 000E30 4120 2000            00000  5804     989.              LA    SR,@SR
 000E34 1322                        5805     990.              LCR   SR,SR                     NEGATIVE FOR LENGTH
 000E36 9801 8048            00048  5806     991.              LM    R0,R1,AREA
 000E3A 41F0 A2C4            002C4  5807     992.              SCINIT (1),(0),CLWKWCB
 000E3E 58E0 67E2/0DEE       01800  5827             +
 000E44 9180 8030      00030        5829     993.     SCLEN1   IF    WAFLMCH,BEGIN          AFTER MATCH
 000E48 47E0 7E06            00E50  5840             +
 000E4C 5020 8040            00040  5845  1  994.                ST    SR,WAMCHLEN
 000E50 7E0A           00E50 00E4A  5846     995.              END   ELSE,BEGIN
 000E50 47F0 7E0E            00E58  5855             +
 000E54 5020 803C            0003C  5861  1  996.                ST    SR,WASCLEN
 000E58                             5862     997.              END   ,
 000E58 47F0 799E            009E8  5866     998.              B     SCSCANON
                                    5867     999.
 000E5C 9120 8030      00030        5868    1000.     SHCEXIT  IF    ~WAFLMFND,'BR BR'        STILL LOOKING FOR MATCH?
 000E60 4710 7E1C/07F7       00E66  5879             +
 000E66 4110 01B7            001B7  5890    1001.              SEG   'No match found'
 000E6A 4590 6736            01754  5892             +
 000E6E 47F0 70D2            0011C  5893    1002.              B     WRITEXIT
1VSD      (VSD07) (09:49) (22MAR04) ORVYL'S SHOW AND DUMP COMMANDS                                                          Page   43
0Current Usings:  (BASE2,R6) (BASE,R7) (WA,R8) (CLW,R10) (LCB,R11)
0Loc    Object Code    Addr1 Addr2  Stmt Lv Lineno    Source Statement           (Hibal 5, Asmedit 3.3)  HLASM R4.0  2004/03/22 09.49
+___    ______ ____    _____ _____  ____ __ ______    ______ _________
0                                   5895    1004.     *  SHOW SUMMARY OF CORE STATUS
                                    5896    1005.     *
 000E72 1857                        5897    1006.     SHSTAT   LR    RR,BR
                                    5898    1007.
 000E74                             5899    1008.     SHSTDO   DS    0H
 000E74 9108 A208      00208        5900    1009.              IF    CLWFOSC,MISSING         SPECIAL CORE?
 000E78 4710 709E            000E8  5912             +
 000E7C 5050 802C            0002C  5918    1010.              ST    RR,WARR
 000E80 9160 A209      00209        5919    1011.              IF    (CLWPFPL+CLWPFPIC,Z),NOPROG  ANY PROGRAM?
 000E84 4780 7FB2            00FFC  5936             +
 000E88 58B0 A250            00250  5942    1012.              L     LCBR,CLWLNKP
                                    5943    1013.              USING LCB,LCBR                ##
 000E8C 4110 01C6            001C6  5945    1014.              SEG   'Program area: '
 000E90 4590 6736            01754  5947             +
 000E94 58F0 B004            00004  5948    1015.              SEGHX 6,L:LCBCLEN
 000E98 4100 0006            00006  5960             +
 000E9C 4D90 7178            001C2  5962             +
 000EA0 4110 01D5            001D5  5963    1016.              SEG   ' Bytes reserved '
 000EA4 4590 6736            01754  5965             +
 000EA8 4D90 7138            00182  5966    1017.              LCALL WRITE
 000EAC 4110 01E6            001E6  5968    1018.              SEG   'Status:'
 000EB0 4590 6736            01754  5970             +
 000EB4 4D90 7138            00182  5971    1019.              LCALL WRITE
 000EB8 4110 015D            0015D  5973    1020.              SEG   '  '
 000EBC 4590 6736            01754  5975             +
 000EC0 58F0 B000            00000  5976    1021.              SEGHX 8,L:LCBCORE             START ADDRESS
 000EC4 4100 0008            00008  5988             +
 000EC8 4D90 7178            001C2  5990             +
 000ECC 4110 015D            0015D  5991    1022.              SEG   '  '
 000ED0 4590 6736            01754  5993             +
 000ED4 58F0 B004            00004  5994    1023.              SEGHX 6,L:LCBCLEN
 000ED8 4100 0006            00006  6006             +
 000EDC 4D90 7178            001C2  6008             +
 000EE0 4110 01EE            001EE  6009    1024.              SEG   ' Bytes defined'
 000EE4 4590 6736            01754  6011             +
 000EE8 4D90 7138            00182  6012    1025.              LCALL WRITE                   SHOW STATUS
 000EEC 9120 A209      00209        6014    1026.              IF    ~CLWPFPIC,SHSTEND        PROGRAM NOT EXECUTING
 000EF0 47E0 7F00            00F4A  6026             +
 000EF4 4D90 7138            00182  6032    1027.              LCALL WRITE
 000EF8 4110 01FD            001FD  6034    1028.              SEG   'Work area: '
 000EFC 4590 6736            01754  6036             +
 000F00 4100 0001/0AFA       00001  6037    1029.              SENSE 1                       GET WORK AREA NUMBERS
 000F06 1B1F                        6056    1030.              SR    R1,R15                  AMOUNT OF WORK SPACE RESERVED
 000F08 1821                        6057    1031.              LR    SR,R1                   SAVE AMOUNT
 000F0A 18F2/4100 0006       00006  6058    1032.              SEGHX 6,(SR)
 000F10 4D90 7178            001C2  6072             +
 000F14 4110 01D5            001D5  6073    1033.              SEG   ' Bytes reserved '
 000F18 4590 6736            01754  6075             +
 000F1C 4D90 7138            00182  6076    1034.              LCALL WRITE
 000F20 4100 0002/0AFA       00002  6078    1035.              SENSE 2                       GET START OF WORK
 000F26 182F                        6097    1036.              LR    SR,R15                  LENGTH OF THE WORK
 000F28 4D90 7F06            00F50  6098    1037.              LCALL SHSEG
 000F2C 4100 0001/0AFA       00001  6100    1038.              SENSE 1
 000F32 47D0 7F00            00F4A  6119    1039.              BNP   SHSTEND
1VSD      (VSD07) (09:49) (22MAR04) ORVYL'S SHOW AND DUMP COMMANDS                                                          Page   44
0Current Usings:  (BASE2,R6) (BASE,R7) (WA,R8) (CLW,R10) (LCB,R11)
0Loc    Object Code    Addr1 Addr2  Stmt Lv Lineno    Source Statement           (Hibal 5, Asmedit 3.3)  HLASM R4.0  2004/03/22 09.49
+___    ______ ____    _____ _____  ____ __ ______    ______ _________
0000F36 4100 0006            00006  6120    1040.              SEGHX 6,(15)
 000F3A 4D90 7178            001C2  6134             +
 000F3E 4110 0209            00209  6135    1041.              SEG   ' Bytes left to reserve'
 000F42 4590 6736            01754  6137             +
 000F46 4D90 7138            00182  6138    1042.              LCALL WRITE
 000F4A 5850 802C            0002C  6140    1043.     SHSTEND  L     RR,WARR
 000F4E 07F5                        6141    1044.              BR    RR
1VSD      (VSD07) (09:49) (22MAR04) ORVYL'S SHOW AND DUMP COMMANDS                                                          Page   45
0Current Usings:  (BASE2,R6) (BASE,R7) (WA,R8) (CLW,R10) (LCB,R11)
0Loc    Object Code    Addr1 Addr2  Stmt Lv Lineno    Source Statement           (Hibal 5, Asmedit 3.3)  HLASM R4.0  2004/03/22 09.49
+___    ______ ____    _____ _____  ____ __ ______    ______ _________
0000F50 1222                        6143    1046.     SHSEG    LTR   SR,SR                   CHECK LENGTH
 000F52 0789                        6144    1047.              BZR   RAR                     NOTHING TO REPORT
 000F54 1831                        6145    1048.              LR    TR,R1                   SAVE START ADDRESS
 000F56 5090 8028            00028  6146    1049.              ST    RAR,WARAR               SAVE RETURN
 000F5A 4110 01E6            001E6  6147    1050.              SEG   'Status:'
 000F5E 4590 6736            01754  6149             +
 000F62 4D90 7138            00182  6150    1051.              LCALL WRITE
 000F66 8A20 000C            0000C  6152    1052.              SRA   SR,12                   NUMBER OF RESERVED PAGES
                                    6153    1053.
 000F6A 5030 8034            00034  6154    1054.              ST    TR,WASCADDR             START OF STRING
 000F6E 1B00/1813/0AFA              6155    1055.              SENSE 0,(TR)                  FIRST PAGE TO SENSE
 000F74 0620                        6173    1056.              DECR  SR                      DEFINED
 000F76 185F                        6175    1057.              LR    RR,R15                  SAVE STATUS CODE
                                    6176    1058.     *                                      (0=DEF, 4=RES, 8=NEITHER)
 000F78 4110 015D            0015D  6177    1059.     SHSLP1   SEG   '  '
 000F7C 4590 6736            01754  6179             +
 000F80 18F3/4100 0008       00008  6180    1060.              SEGHX 8,(TR)                  START ADDRESS
 000F86 4D90 7178            001C2  6194             +
 000F8A 4110 015D            0015D  6195    1061.              SEG   '  '
 000F8E 4590 6736            01754  6197             +
                                    6198    1062.
 000F92 5A30 67D6            017F4  6199    1063.     SHSLP2   A     TR,=A(4096)
 000F96 1B00/1813/0AFA              6200    1064.              SENSE 0,(TR)
 000F9C 0620                        6218    1065.              DECR  SR
 000F9E 19F5/4770 7F60       00FAA  6220    1066.              IF    ((R15,EQ,RR),AND,(SR,NM)),SHSLP2  IF SAME KEEP ON
 000FA4 1222/47B0 7F48       00F92  6242             +
                                    6251    1067.     *
 000FAA 184F                        6252    1068.              LR    QR,R15                  SAVE NEXT STATUS
 000FAC 18F1                        6253    1069.              LR    R15,R1                  LAST PAGE TESTED
 000FAE 5BF0 8034            00034  6254    1070.              S     R15,WASCADDR            LENGTH OF COMMON PAGES
 000FB2 5010 8034            00034  6255    1071.              ST    R1,WASCADDR             START OF NEXT STRING
 000FB6 4100 0006            00006  6256    1072.              SEGHX 6,(15)                  PUT IN LENGTH
 000FBA 4D90 7178            001C2  6270             +
 000FBE 47F5 7F78            00FC2  6271    1073.              B     *+4(RR)                 JUMP ON STATUS CODE
 000FC2 47F0 7F8C            00FD6  6272    1074.              B     SHSEGDF                 DEFINED
 000FC6 47F0 7F98            00FE2  6273    1075.              B     SHSEGRS                 RESERVED
                                    6274    1076.     *                                      NOT RESERVED
 000FCA 4110 0220            00220  6275    1077.              SEG   ' Bytes not reserved'
 000FCE 4590 6736            01754  6277             +
 000FD2 47F0 7FA0            00FEA  6278    1078.              B     SHSEG9
 000FD6 4110 01EE            001EE  6279    1079.     SHSEGDF  SEG   ' Bytes defined'
 000FDA 4590 6736            01754  6281             +
 000FDE 47F0 7FA0            00FEA  6282    1080.              B     SHSEG9
 000FE2 4110 0234            00234  6283    1081.     SHSEGRS  SEG   ' Bytes reserved, not defined'
 000FE6 4590 6736            01754  6285             +
 000FEA 4D90 7138            00182  6286    1082.     SHSEG9   LCALL WRITE
 000FEE 1854                        6288    1083.              LR    RR,QR
 000FF0 1222/47B0 7F2E       00F78  6289    1084.              IF    (SR,NM),SHSLP1          END OF REGION?
 000FF6 5890 8028            00028  6306    1085.              L     RAR,WARAR
 000FFA 07F9                        6307    1086.              BR    RAR
                                    6308    1087.
 000FFC 4110 0251            00251  6309    1088.     NOPROG   SEG   'No program in core'
 001000 4590 6736            01754  6311             +
 001004 4D90 7138            00182  6312    1089.              LCALL WRITE
1VSD      (VSD07) (09:49) (22MAR04) ORVYL'S SHOW AND DUMP COMMANDS                                                          Page   46
0Current Usings:  (BASE2,R6) (BASE,R7) (WA,R8) (CLW,R10) (LCB,R11)
0Loc    Object Code    Addr1 Addr2  Stmt Lv Lineno    Source Statement           (Hibal 5, Asmedit 3.3)  HLASM R4.0  2004/03/22 09.49
+___    ______ ____    _____ _____  ____ __ ______    ______ _________
0001008 07F5                        6314    1090.              BR    RR                      EXIT
1VSD      (VSD07) (09:49) (22MAR04) ORVYL'S SHOW AND DUMP COMMANDS                                                          Page   47
0Current Usings:  (BASE2,R6) (BASE,R7) (WA,R8) (CLW,R10) (LCB,R11)
0Loc    Object Code    Addr1 Addr2  Stmt Lv Lineno    Source Statement           (Hibal 5, Asmedit 3.3)  HLASM R4.0  2004/03/22 09.49
+___    ______ ____    _____ _____  ____ __ ______    ______ _________
0                                   6316    1092.     *  SHOW REGION
                                    6317    1093.     *
 00100A                             6318    1094.     SHREGN   DS    0H
 00100A 4110 0264            00264  6319    1095.              SEG   ' Program region: '
 00100E 4590 6736            01754  6321             +
 001012 5820 A000            00000  6322    1096.              L     SR,CLWSCP
 USING  SCP,R2                      6323    1097.              WITH  (SCP,SR),BEGIN
 001016 4830 21F8            001F8  6337  1 1098.                LH    TR,SCPRESRV             RESERVE PAGE COUNT
 00101A 4A30 21FA            001FA  6338  1 1099.                AH    TR,SCPUNRSV             PLUS UNRESRRVED
 DROP   SCP,R2                      6339    1100.              END   ,
 00101E 18F3                        6347    1101.              LR    R15,TR
 001020 9160 A209      00209        6348    1102.              IF    CLWPFPL+CLWPFPIC,BEGIN PROGRAM LOADED
 001024 4780 6044            01062  6361             +
 001028 58B0 A250            00250  6366  1 1103.                L     LCBR,CLWLNKP
                                    6367  1 1104.                USING  LCB,LCBR               ##
 00102C 5820 B004            00004  6369  1 1105.                L     SR,LCBCLEN              USER PROGRAM LEN
 001030 8820 000C            0000C  6370  1 1106.                SRL   SR,12                   PAGES
 001034 9120 A209      00209        6371  1 1107.                IF    CLWPFPIC,'AR  R15,SR'   PLUS OTHERS
 001038 47E0 6020/1AF2       0103E  6381  1          +
 00103E 4D90 604A            01068  6392  1 1108.                LCALL SHPGF
 001042 4110 0276            00276  6394  1 1109.                SEG   ' Program area: '
 001046 4590 6736            01754  6396  1          +
 00104A 18F2                        6397  1 1110.                LR    R15,SR
 00104C 9120 A209      00209        6398  1 1111.                IF    CLWPFPIC,BEGIN          PROGRAM ENTERED?
 001050 47E0 6044            01062  6408  1          +
 001054 4D90 604A            01068  6413  2 1112.                  LCALL SHPGF                   YES - SHOW WORK REGION
 001058 4110 0286            00286  6415  2 1113.                  SEG   '    Work area: '
 00105C 4590 6736            01754  6417  2          +
 001060 18F3                        6418  2 1114.                  LR    R15,TR
 001062                             6419  1 1115.                END   ,
 001062                             6423    1116.              END   ,
 001062 4D90 604A            01068  6427    1117.              LCALL SHPGF
 001066 07F7                        6429    1118.              BR    BR
-
                                    6431    1120.
 001068 1859                        6432    1121.     SHPGF    LR    RR,RAR
 00106A 184F                        6433    1122.              LR    QR,R15                  SAVE FRAME COUNT
 00106C 89F0 0002            00002  6434    1123.              SLL   R15,2                   A PAGE FRAME IS 4K
 001070 1B00/4D90 7152       0019C  6435    1124.              SEGDC 0,(R15)                 NOTE SIZE IN K
 001076 4110 0296            00296  6446    1125.              SEG   'K'
 00107A 4590 6736            01754  6448             +
 00107E 4D90 7138            00182  6449    1126.              LCALL WRITE
 001082 07F5                        6451    1127.              BR    RR
1VSD      (VSD07) (09:49) (22MAR04) ORVYL'S SHOW AND DUMP COMMANDS                                                          Page   48
0Current Usings:  (BASE2,R6) (BASE,R7) (WA,R8) (CLW,R10) (LCB,R11)
0Loc    Object Code    Addr1 Addr2  Stmt Lv Lineno    Source Statement           (Hibal 5, Asmedit 3.3)  HLASM R4.0  2004/03/22 09.49
+___    ______ ____    _____ _____  ____ __ ______    ______ _________
0                                   6453    1129.     *  SHOW ADDRESS
                                    6454    1130.     *
 001084 9608 A208      00208        6455    1131.     SHOSCAD  SET   CLWFOSC
 001088 4D90 7054            0009E  6462    1132.              LCALL OPRTEST                 OPERATOR OR SYSTEM PRIVS
 00108C                             6464    1133.     SHADDR   DS    0H
                                    6465    1134.     *        PRVBLOCK ,
 00108C 4D90 710C            00156  6466    1135.              EVAL                          GET VALUE
 001090 1820                        6469    1136.              LR    SR,R0
 001092 18F2/1B00                   6470    1137.              SEGDC 0,(SR)                  CONVERT TO DECIMAL
 001096 4D90 7152            0019C  6481             +
 00109A 4110 0298            00298  6482    1138.              SEG   '   0'
 00109E 4590 6736            01754  6484             +
 0010A2 18F2/4100 0008       00008  6485    1139.              BTX   CLWTEMP,8,(SR)
 0010A8 4110 A2E8            002E8  6504             +
 0010AC 58E0 6776/0DEE       01794  6507             +
 0010B2 95F0 1000      00000        6509    1140.     ZSUP     CLI   @R1,C'0'
 0010B6 4770 60A4            010C2  6510    1141.              IF    EQ,BEGIN
 0010BA 4110 1001            00001  6521  1 1142.                LA    R1,@R1+1
 0010BE 4600 6094            010B2  6522  1 1143.                BCT   R0,ZSUP
 0010C2                             6523    1144.              END   ,
 0010C2 4590 70DA            00124  6527    1145.              SEG   (1),(0)
 0010C6 4D90 70F2            0013C  6541    1146.              LCALL SEGBLNK                 INSERT A BLANK
                                    6543    1147.     *        LR    R1,SR
                                    6544    1148.     *        VCALL VSEGLOC
 0010CA 4112 0000/1311       00000  6545    1149.              VSEGLOC 0(SR),MODE=COND
 0010D0 1211/4780 60BE       010DC  6554             +
 0010D6 5890 678A/0D99       017A8  6558             +
 0010DC 47F0 70D2            0011C  6561    1150.              B     WRITEXIT
1VSD      (VSD07) (09:49) (22MAR04) ORVYL'S SHOW AND DUMP COMMANDS                                                          Page   49
0Current Usings:  (BASE2,R6) (BASE,R7) (WA,R8) (CLW,R10) (LCB,R11)
0Loc    Object Code    Addr1 Addr2  Stmt Lv Lineno    Source Statement           (Hibal 5, Asmedit 3.3)  HLASM R4.0  2004/03/22 09.49
+___    ______ ____    _____ _____  ____ __ ______    ______ _________
0                                   6563    1152.     *  SHOW MAP
                                    6564    1153.     *
 0010E0                             6565    1154.     SHMAP    DS    0H
 0010E0 1857                        6566    1155.              LR    RR,BR
 0010E2 4D90 7032            0007C  6567    1156.              PRVBLOCK
                                    6570    1157.
 0010E6 9180 A209      00209        6571    1158.     SHMDO    IF    ~CLWPFSUP,NOPROG         LOADER NOT SET UP
 0010EA 47E0 7FB2            00FFC  6584             +
 0010EE 58B0 A250            00250  6590    1159.              L     LCBR,CLWLNKP
                                    6591    1160.              USING LCB,LCBR                ##
 0010F2 5890 67E6/0D99       01804  6593    1161.              VCALL LDSET                   SET UP SEARCH FOR UNDEFINEDS
 0010F8 4110 6218            01236  6597    1162.              SCAN  SHMPTBL,CLWKWCB         GET OPTIONS
 0010FC 41F0 A2C4            002C4  6611             +
 001100 58E0 677E/0DEE       0179C  6614             +
 001106 4740 7016            00060  6616    1163.              BM    ILLSTR
 00110A 917C 8030      00030        6617    1164.              IF    (WAFLUND+WAFLCOM+WAFLCSE+WAFLENT+WAFLDUM,NZ),SHM1
 00110E 4770 60F8            01116  6649             +
 001112 967C 8030      00030        6655    1165.              SET   WAFLUND+WAFLCOM+WAFLCSE+WAFLENT+WAFLDUM ALL
 001116                             6679    1166.     SHM1     DS    0H
 001116 4110 029D            0029D  6680    1167.              SEG   'Symbol    Addr/Type  Length'
 00111A 4590 6736            01754  6682             +
 00111E 4D90 7138            00182  6683    1168.              LCALL WRITE
 001122 5890 67EA/0D99       01808  6685    1169.     SHMLOOP  VCALL LDNEXT                  GET NEXT SYMBOL
 001128 0785                        6689    1170.              BZR   RR                      NO MORE
 00112A 1831                        6690    1171.              LR    TR,R1                   SAVE ADDR
 00112C 1840                        6691    1172.              LR    QR,R0                   AND LENGTH
 USING  CSDNAME,R15                 6692    1173.              USING CSDNAME,15              ##
 00112E 1F22/4320 F008       0000C  6701    1174.              LC    SR,CSDTYP
 DROP   CSDNAME,R15                 6708    1175.              DROP  R15                     ##
 001134 181F                        6715    1176.              LR    R1,R15                  CSDNAME
 001136 4100 0008            00008  6716    1177.              LA    R0,8                    CSDNAME LENGTH
 00113A 1A22                        6717    1178.              AR    SR,SR
 00113C 1A22                        6718    1179.              AR    SR,SR
 00113E 47F2 6124            01142  6719    1180.              B     *+4(SR)
 001142 47F0 6150            0116E  6720    1181.              B     SHMCSE                  CSECTS
 001146 47F0 6104            01122  6721    1182.              B     SHMLOOP                 LD
 00114A 47F0 6188            011A6  6722    1183.              B     SHMUND                  UNDEFINED
 00114E 47F0 61A0            011BE  6723    1184.              B     SHMENT                  ENTRY
 001152 47F0 61CA            011E8  6724    1185.              B     SHMPRI                  PRIVATE
 001156 47F0 61DE            011FC  6725    1186.              B     SHMCOM                  COMMON
 00115A 47F0 61F6            01214  6726    1187.              B     SHMDUM                  DUMMY
 00115E 47F0 6104            01122  6727    1188.              B     SHMLOOP                 NULL
 001162 47F0 6104            01122  6728    1189.              B     SHMLOOP                 ??
 001166 47F0 6104            01122  6729    1190.              B     SHMLOOP                 ??
 00116A 47F0 6188            011A6  6730    1191.              B     SHMUND                  UNDEFINED (WEAK)
000116E 9110 8030      00030        6732    1193.     SHMCSE   IF    ~WAFLCSE,SHMLOOP         NOT SHOW CSECTS
 001172 47E0 6104            01122  6745             +
 001176 4590 70DA            00124  6751    1194.              SEG   (1),(0)                 CSDNAME
 00117A 4110 0165            00165  6765    1195.     SHMNL    SEG   '   '                   SEG NAME AND LENGTH
 00117E 4590 6736            01754  6767             +
 001182 18F3/4100 0008       00008  6768    1196.              SEGHX 8,(TR)                  ADDR
 001188 4D90 7178            001C2  6782             +
 00118C 4110 015D            0015D  6783    1197.              SEG   '  '
1VSD      (VSD07) (09:49) (22MAR04) ORVYL'S SHOW AND DUMP COMMANDS                                                          Page   50
0Current Usings:  (BASE2,R6) (BASE,R7) (WA,R8) (CLW,R10) (LCB,R11)
0Loc    Object Code    Addr1 Addr2  Stmt Lv Lineno    Source Statement           (Hibal 5, Asmedit 3.3)  HLASM R4.0  2004/03/22 09.49
+___    ______ ____    _____ _____  ____ __ ______    ______ _________
0001190 4590 6736            01754  6785             +
 001194 18F4/4100 0006       00006  6786    1198.     SHML     SEGHX 6,(QR)
 00119A 4D90 7178            001C2  6800             +
 00119E 4D90 7138            00182  6801    1199.     SHMWRIT  LCALL WRITE
 0011A2 47F0 6104            01122  6803    1200.              B     SHMLOOP
                                    6804    1201.
 0011A6 9140 8030      00030        6805    1202.     SHMUND   IF    ~WAFLUND,SHMLOOP
 0011AA 47E0 6104            01122  6818             +
 0011AE 4590 70DA            00124  6824    1203.              SEG   (1),(0)                 CSDNAME
 0011B2 4110 02B9            002B9  6838    1204.              SEG   ' Undefined'
 0011B6 4590 6736            01754  6840             +
 0011BA 47F0 6180            0119E  6841    1205.              B     SHMWRIT
                                    6842    1206.
 0011BE 9108 8030      00030        6843    1207.     SHMENT   IF    ~WAFLENT,SHMLOOP
 0011C2 47E0 6104            01122  6856             +
 0011C6 4590 70DA            00124  6862    1208.              SEG   (1),(0)
 0011CA 4110 0165            00165  6876    1209.              SEG   '   '
 0011CE 4590 6736            01754  6878             +
 0011D2 18F3/4100 0008       00008  6879    1210.              SEGHX 8,(TR)
 0011D8 4D90 7178            001C2  6893             +
 0011DC 4110 02C4            002C4  6894    1211.              SEG   '  Entry'
 0011E0 4590 6736            01754  6896             +
 0011E4 47F0 6180            0119E  6897    1212.              B     SHMWRIT
                                    6898    1213.
 0011E8 9110 8030      00030        6899    1214.     SHMPRI   IF    ~WAFLCSE,SHMLOOP
 0011EC 47E0 6104            01122  6912             +
 0011F0 4110 02CC            002CC  6918    1215.              SEG   '$PRIVATE'
 0011F4 4590 6736            01754  6920             +
 0011F8 47F0 615C            0117A  6921    1216.              B     SHMNL
                                    6922    1217.
 0011FC 9120 8030      00030        6923    1218.     SHMCOM   IF    ~WAFLCOM,SHMLOOP
 001200 47E0 6104            01122  6936             +
 001204 4590 70DA            00124  6942    1219.              SEG   (1),(0)
 001208 4110 02D5            002D5  6956    1220.              SEG   '   Common  '
 00120C 4590 6736            01754  6958             +
 001210 47F0 6176            01194  6959    1221.              B     SHML
                                    6960    1222.
 001214 9104 8030      00030        6961    1223.     SHMDUM   IF    ~WAFLDUM,SHMLOOP
 001218 47E0 6104            01122  6974             +
 00121C D507 1000 675A 00000 01778  6980    1224.              CLC   @R1(8),=X'FFFFFFFFFFFFFFFF' CXD?
 001222 4780 6104            01122  6981    1225.              BE    SHMLOOP                 IGNORE
 001226 4590 70DA            00124  6982    1226.              SEG   (1),(0)
 00122A 4110 02E1            002E1  6996    1227.              SEG   '    Dummy  '
 00122E 4590 6736            01754  6998             +
 001232 47F0 6176            01194  6999    1228.              B     SHML
0                                   7001    1230.     * SHO MAP SCAN TABLE
                                    7002    1231.     *
 001236                             7003    1232.     SHMPTBL  SCKW  CSECTS,SHMKCSE,A
 001236 0D0012A0C3E2C5C3            7004             +
 001240                             7005    1233.              SCKW  UNDEFINE,SHMKUND,A
 001240 0F0012A6E4D5C4C5            7006             +
 00124C                             7007    1234.              SCKW  EXTRNS,SHMKUND,A
 00124C 0D0012A6C5E7E3D9            7008             +
1VSD      (VSD07) (09:49) (22MAR04) ORVYL'S SHOW AND DUMP COMMANDS                                                          Page   51
0Current Usings:  (BASE2,R6) (BASE,R7) (WA,R8) (CLW,R10) (LCB,R11)
0Loc    Object Code    Addr1 Addr2  Stmt Lv Lineno    Source Statement           (Hibal 5, Asmedit 3.3)  HLASM R4.0  2004/03/22 09.49
+___    ______ ____    _____ _____  ____ __ ______    ______ _________
0001256                             7009    1235.              SCKW  EXTERNAL,SHMKUND,A
 001256 0F0012A6C5E7E3C5            7010             +
 001262                             7011    1236.              SCKW  ENTRY,SHMKENT,A
 001262 0C0012ACC5D5E3D9            7012             +
 00126B                             7013    1237.              SCKW  ENTRIES,SHMKENT,A
 00126B 0E0012ACC5D5E3D9            7014             +
 001276                             7015    1238.              SCKW  COMMONS,SHMKCOM,A
 001276 0E0012B2C3D6D4D4            7016             +
 001281                             7017    1239.              SCKW  DUMMYS,SHMKDUM,A
 001281 0D0012B8C4E4D4D4            7018             +
 00128B                             7019    1240.              SCKW  AFTER,SHMKAFT,(A,P)
 00128B 8C0012BEC1C6E3C5            7020             +
 001294                             7021    1241.              SCKW  FROM,SHMKFRO,(A,P)
 001294 8B0012E2C6D9D6D4            7022             +
 00129C FF0000F4                    7023    1242.              SCKW  ,UNREC
1VSD      (VSD07) (09:49) (22MAR04) ORVYL'S SHOW AND DUMP COMMANDS                                                          Page   52
0Current Usings:  (BASE2,R6) (BASE,R7) (WA,R8) (CLW,R10) (LCB,R11)
0Loc    Object Code    Addr1 Addr2  Stmt Lv Lineno    Source Statement           (Hibal 5, Asmedit 3.3)  HLASM R4.0  2004/03/22 09.49
+___    ______ ____    _____ _____  ____ __ ______    ______ _________
0                                   7026    1244.     * SHO MAP KEYWORDS
                                    7027    1245.     *
 0012A0 9610 8030      00030        7028    1246.     SHMKCSE  SET   WAFLCSE
 0012A4 07FE                        7035    1247.              SCRTN (15)
                                    7042    1248.
 0012A6 9640 8030      00030        7043    1249.     SHMKUND  SET   WAFLUND
 0012AA 07FE                        7050    1250.              SCRTN (15)
                                    7057    1251.
 0012AC 9608 8030      00030        7058    1252.     SHMKENT  SET   WAFLENT
 0012B0 07FE                        7065    1253.              SCRTN (15)
                                    7072    1254.
 0012B2 9620 8030      00030        7073    1255.     SHMKCOM  SET   WAFLCOM
 0012B6 07FE                        7080    1256.              SCRTN (15)
                                    7087    1257.
 0012B8 9604 8030      00030        7088    1258.     SHMKDUM  SET   WAFLDUM
 0012BC 07FE                        7095    1259.              SCRTN (15)
                                    7102    1260.
 0012BE 4900 680E            0182C  7103    1261.     SHMKAFT  CH    R0,=Y(8)                CHECK LENGTH
 0012C2 4720 70AA            000F4  7104    1262.              BH    UNREC
 0012C6 9081 D000/188D       00000  7105    1263.     SHMFAFT1 VSAVE WAR,1,*
 0012CC 41D0 D028            00028  7108             +
 0012D0 4110 A2C8            002C8  7109    1264.              LA    R1,CLWKWKW              POINT TO NAME
 0012D4 5890 67EE/0D99       0180C  7110    1265.              VCALL LDFIND
 0012DA 18D8/9881 D000       00000  7114    1266.              VREST WAR,1
 0012E0 07FE                        7117    1267.              SCRTN (15)
                                    7124    1268.
 0012E2 4900 680E            0182C  7125    1269.     SHMKFRO  CH    R0,=Y(8)
 0012E6 4720 70AA            000F4  7126    1270.              BH    UNREC
 0012EA 1F22/4320 A2CF       002CF  7127    1271.              LC    SR,CLWKWKW+7            BACK UP NAME
 0012F0 0620                        7134    1272.              DECR  SR
 0012F2 4220 A2CF            002CF  7136    1273.              STC   SR,CLWKWKW+7
 0012F6 47F0 62A8            012C6  7137    1274.              B     SHMFAFT1
1VSD      (VSD07) (09:49) (22MAR04) ORVYL'S SHOW AND DUMP COMMANDS                                                          Page   53
0Current Usings:  (BASE2,R6) (BASE,R7) (WA,R8) (CLW,R10) (LCB,R11)
0Loc    Object Code    Addr1 Addr2  Stmt Lv Lineno    Source Statement           (Hibal 5, Asmedit 3.3)  HLASM R4.0  2004/03/22 09.49
+___    ______ ____    _____ _____  ____ __ ______    ______ _________
0                                   7139    1276.     *  SHOW TRAPS
                                    7140    1277.     *
 0012FA                             7141    1278.     SHTRAPS  DS    0H
 0012FA 4D90 7032            0007C  7142    1279.              PRVBLOCK
 0012FE 1857                        7145    1280.              LR    RR,BR
                                    7146    1281.
 001300                             7147    1282.     SHTDO    DS    0H
 001300 1B11                        7148    1283.              CLEAR R1                      SWITCH (NON-ZERO IF SEG  CALLED)
 001302 1B44                        7152    1284.              CLEAR QR                      TRAP INDEX
 001304 4120 A280            00280  7156    1285.              LA    SR,CLWTRAPS
 001308 4130 0008            00008  7157    1286.              LA    TR,CLWNTRAP
 00130C 4140 4001            00001  7158    1287.     SHTLOOP  LA    QR,@QR+1
 001310 D502 2000 6812 00000 01830  7159    1288.              CLC   @SR(3),=X'000000'      TRAP SET?
 001316 4780 6332            01350  7160    1289.              BE    SHTNX                   BR IF NOT
 00131A 18F4/4100 0001       00001  7161    1290.              SEGDC 1,(QR)
 001320 4D90 7152            0019C  7175             +
 001324 4D90 70F2            0013C  7176    1291.              LCALL SEGBLNK
 001328 9200 8048      00048        7178    1292.              MVI   AREA,0
 00132C D204 8049 2000 00049 00000  7179    1293.              MVC   AREA+1(5),@SR
 001332 5810 8048            00048  7180    1294.              VSEGLOC L:AREA                ADDRESS
 001336 5890 678A/0D99       017A8  7188             +
 00133C 4D90 70F2            0013C  7191    1295.              LCALL SEGBLNK
 001340 48F0 804C            0004C  7193    1296.              SEGHX 4,LH:AREA+4             INSTRUCTION IMAGE
 001344 4100 0004            00004  7204             +
 001348 4D90 7178            001C2  7206             +
 00134C 4D90 7138            00182  7207    1297.              LCALL WRITE
 001350 4120 2005            00005  7209    1298.     SHTNX    LA    SR,@SR+5
 001354 4630 62EE            0130C  7210    1299.              BCT   TR,SHTLOOP
 001358 1211                        7211    1300.              LTR   R1,R1
 00135A 0775                        7212    1301.              BNZR  RR
                                    7213    1302.
 00135C 4110 02ED            002ED  7214    1303.     SHTNT    SEG   'No traps set'
 001360 4590 6736            01754  7216             +
 001364 4D90 7138            00182  7217    1304.              LCALL WRITE
 001368 07F5                        7219    1305.              BR    RR
1VSD      (VSD07) (09:49) (22MAR04) ORVYL'S SHOW AND DUMP COMMANDS                                                          Page   54
0Current Usings:  (BASE2,R6) (BASE,R7) (WA,R8) (CLW,R10) (LCB,R11)
0Loc    Object Code    Addr1 Addr2  Stmt Lv Lineno    Source Statement           (Hibal 5, Asmedit 3.3)  HLASM R4.0  2004/03/22 09.49
+___    ______ ____    _____ _____  ____ __ ______    ______ _________
0                                   7221    1307.     * SHOW EVENT
                                    7222    1308.     *
 00136A                             7223    1309.     SHEVENT  DS    0H
 00136A 4D90 7032            0007C  7224    1310.              PRVBLOCK
 00136E 4100 0015            00015  7227    1311.              SENSE 21,WAPER
 001372 4110 8048/0AFA       00048  7241             +
 001378 91F0 8048      00048        7250    1312.              TM    WAPERCD,B'11110000'     ANY EVENTS?
 00137C 4780 6462            01480  7251    1313.              BZ    NOEVENTS
 001380 4110 02FA            002FA  7252    1314.              SEG   'Events set by '
 001384 4590 6736            01754  7254             +
 001388 4110 6815            01833  7255    1315.              SETMSG 'Command Processor'
 00138C 4100 0011            00011  7258             +
 001390 12FF                        7259    1316.              LTR   R15,R15
 001392 4780 6380            0139E  7260    1317.              IF    NZER,BEGIN             SET BY CLP
 001396 4110 6826            01844  7271  1 1318.                SETMSG 'program'
 00139A 4100 0007            00007  7274  1          +
 00139E                             7275    1319.              END   ,
 00139E 4590 70DA            00124  7279    1320.              SEG   (1),(0)
 0013A2 4110 6810            0182E  7293    1321.              LA    R1,=X'7A15'             COLON,<CR>
 0013A6 4100 0002            00002  7294    1322.              SEG   (1),2
 0013AA 4590 70DA            00124  7309             +
 0013AE 9140 8048      00048        7310    1323.              TM    WAPERCD,PEFETCH         FETCH?
 0013B2 47E0 63A0            013BE  7311    1324.              IF    ON,BEGIN
 0013B6 4110 0309            00309  7322  1 1325.                SEG   'Fetch, '
 0013BA 4590 6736            01754  7324  1          +
 0013BE                             7325    1326.              END   ,
 0013BE 9120 8048      00048        7329    1327.              TM    WAPERCD,PESTORE         STORE?
 0013C2 47E0 63B0            013CE  7330    1328.              IF    ON,BEGIN               YES
 0013C6 4110 0311            00311  7341  1 1329.                SEG   'Store, '
 0013CA 4590 6736            01754  7343  1          +
 0013CE                             7344    1330.              END   ,
 0013CE 9160 8048      00048        7348    1331.              TM    WAPERCD,PEFETCH+PESTORE RANGE MEANINGFUL?
 0013D2 4780 63EC            0140A  7349    1332.              IF    NZ,BEGIN               RYES
 0013D6 4110 0319            00319  7360  1 1333.                SEG   'Range=('
 0013DA 4590 6736            01754  7362  1          +
 0013DE 5810 804C            0004C  7363  1 1334.                L     R1,WAPERSTR             START ADDRESS
 0013E2 5890 678A/0D99       017A8  7364  1 1335.                VCALL VSEGLOC                 PUT IN PRETTY FORM
 0013E8 5910 8050            00050  7368  1 1336.                C     R1,WAPEREND             SAME AS END?
 0013EC 4780 63E4            01402  7369  1 1337.                IF    NE,BEGIN
 0013F0 4110 0321            00321  7380  2 1338.                  SEG   ','
 0013F4 4590 6736            01754  7382  2          +
 0013F8 5810 8050            00050  7383  2 1339.                  L     R1,WAPEREND
 0013FC 5890 678A/0D99       017A8  7384  2 1340.                  VCALL VSEGLOC
 001402                             7388  1 1341.                END   ,
 001402 4110 0323            00323  7392  1 1342.                SEG   '), '
 001406 4590 6736            01754  7394  1          +
 00140A                             7395    1343.              END   ,
 00140A 9180 8048      00048        7399    1344.              TM    WAPERCD,PEBRANCH
 00140E 47E0 63FC            0141A  7400    1345.              IF    ON,BEGIN
 001412 4110 0327            00327  7411  1 1346.                SEG   'Branch, '
 001416 4590 6736            01754  7413  1          +
 00141A                             7414    1347.              END   ,
 00141A 9110 8048      00048        7418    1348.              TM    WAPERCD,PEREG           REGISTERS?
 00141E 47E0 6452            01470  7419    1349.              IF    ON,BEGIN
1VSD      (VSD07) (09:49) (22MAR04) ORVYL'S SHOW AND DUMP COMMANDS                                                          Page   55
0Current Usings:  (BASE2,R6) (BASE,R7) (WA,R8) (CLW,R10) (LCB,R11)
0Loc    Object Code    Addr1 Addr2  Stmt Lv Lineno    Source Statement           (Hibal 5, Asmedit 3.3)  HLASM R4.0  2004/03/22 09.49
+___    ______ ____    _____ _____  ____ __ ______    ______ _________
0001422 4110 0330            00330  7430  1 1350.                SEG   'Register='
 001426 4590 6736            01754  7432  1          +
 00142A 5820 8048            00048  7433  1 1351.                L     SR,WAPER                REGISTER MASKS
 00142E 5420 67F2            01810  7434  1 1352.                N     SR,=X'0000FFFF'
 001432 1B33                        7435  1 1353.                CLEAR TR                      REG 0 COMES  FIRST
 001434 8920 000F            0000F  7439  1 1354.                SLL   SR,15                   NEX SHIFT MAY OVERFLOW
 001438 4110 682D            0184B  7440  1 1355.                SETMSG '('
 00143C 4100 0001            00001  7443  1          +
 001440                             7444  1 1356.     SHEVN2     DS    0H
 001440 8B20 0001            00001  7445  1 1357.                SLA   SR,1
 001444 4780 644A            01468  7446  1 1358.                IF    NZER,BEGIN
 001448 47E0 6442            01460  7457  2 1359.                  BNO   SHEVN3
 00144C 4590 70DA            00124  7458  2 1360.                  SEG   (1),(0)
 001450 18F3/1B00                   7472  2 1361.                  SEGDC 0,(TR)
 001454 4D90 7152            0019C  7483  2          +
 001458 4110 682E            0184C  7484  2 1362.                  SETMSG ','
 00145C 4100 0001            00001  7487  2          +
 001460                             7488  2 1363.     SHEVN3       DS    0H
 001460 4130 3001            00001  7489  2 1364.                  LA    TR,@TR+1
 001464 47F0 6422            01440  7490  2 1365.                  B     SHEVN2
                                    7491  2 1366.
 001468                             7492  1 1367.                END   ,
 001468 4110 033A            0033A  7496  1 1368.                SEG   ')  '
 00146C 4590 6736            01754  7498  1          +
 001470                             7499    1369.              END   ,
 001470 4810 A118            00118  7503    1370.              LH    R1,CLWOBUF
 001474 0610                        7504    1371.              DECR  R1
 001476 0610                        7506    1372.              DECR  R1
 001478 4010 A118            00118  7508    1373.              STH   R1,CLWOBUF              REMOVE ', '
 00147C 47F0 70D2            0011C  7509    1374.              B     WRITEXIT
0001480 4110 033E            0033E  7511    1376.     NOEVENTS SEG   'No events set'
 001484 4590 6736            01754  7513             +
 001488 47F0 70D2            0011C  7514    1377.              B     WRITEXIT
0                                   7516    1379.     PEFETCH  EQU   B'01000000'
                                    7517    1380.     PESTORE  EQU   B'00100000'
                                    7518    1381.     PEBRANCH EQU   B'10000000'
                                    7519    1382.     PEREG    EQU   B'00010000'
1VSD      (VSD07) (09:49) (22MAR04) ORVYL'S SHOW AND DUMP COMMANDS                                                          Page   56
0Current Usings:  (BASE2,R6) (BASE,R7) (WA,R8) (CLW,R10) (LCB,R11)
0Loc    Object Code    Addr1 Addr2  Stmt Lv Lineno    Source Statement           (Hibal 5, Asmedit 3.3)  HLASM R4.0  2004/03/22 09.49
+___    ______ ____    _____ _____  ____ __ ______    ______ _________
0                                   7521    1384.     *  SHOW MONITOR
                                    7522    1385.     *
 00148C                             7523    1386.     SHMONIT  DS    0H
 00148C 4D90 7032            0007C  7524    1387.              PRVBLOCK
 001490 4100 0016            00016  7527    1388.              SENSE 22,CLWTEMP
 001494 4110 A2E8/0AFA       002E8  7541             +
 00149A 5820 A2E8/1222       002E8  7550    1389.              LT    SR,CLWTEMP              ANYTHING SET?
 0014A0 4780 64F2            01510  7554    1390.              BZ    NOMONIT
 0014A4 4110 034C            0034C  7555    1391.              SEG   'Monitoring set by '
 0014A8 4590 6736            01754  7557             +
 0014AC 4110 6815            01833  7558    1392.              SETMSG 'Command Processor'
 0014B0 4100 0011            00011  7561             +
 0014B4 12FF                        7562    1393.              LTR   R15,R15                 SET BY CLP?
 0014B6 4780 64A4            014C2  7563    1394.              IF    NZER,BEGIN             NO
 0014BA 4110 6826            01844  7574  1 1395.                SETMSG 'program'
 0014BE 4100 0007            00007  7577  1          +
 0014C2                             7578    1396.              END   ,
 0014C2 4590 70DA            00124  7582    1397.              SEG   (1),(0)
 0014C6 4110 035F            0035F  7596    1398.              SEG   ': Classes='
 0014CA 4590 6736            01754  7598             +
 0014CE 1B33                        7599    1399.              CLEAR TR                      CLASS 0 FIRST
 0014D0 8920 000F            0000F  7603    1400.              SLL   SR,15                   TO TEST FOR OVERFLOW
 0014D4 4110 682D            0184B  7604    1401.              SETMSG '('                    PRESET CHARACTER
 0014D8 4100 0001            00001  7607             +
 0014DC                             7608    1402.     SHMON2   DS    0H
 0014DC 8B20 0001            00001  7609    1403.              SLA   SR,1                    TEST NEXT CLASS
 0014E0 4780 64E6            01504  7610    1404.              IF    NZER,BEGIN
 0014E4 47E0 64DE            014FC  7621  1 1405.                BNO   SHMON3                  NOT ON
 0014E8 4590 70DA            00124  7622  1 1406.                SEG   (1),(0)
 0014EC 18F3/1B00                   7636  1 1407.                SEGDC 0,(TR)                  WRITE CLASS
 0014F0 4D90 7152            0019C  7647  1          +
 0014F4 4110 682E            0184C  7648  1 1408.                SETMSG ','
 0014F8 4100 0001            00001  7651  1          +
 0014FC                             7652  1 1409.     SHMON3     DS    0H
 0014FC 4130 3001            00001  7653  1 1410.                LA    TR,@TR+1                NEXT CLASS
 001500 47F0 64BE            014DC  7654  1 1411.                B     SHMON2                  LOOP
 001504                             7655    1412.              END   ,
 001504 4110 036A            0036A  7659    1413.              SEG   ')'
 001508 4590 6736            01754  7661             +
 00150C 47F0 70D2            0011C  7662    1414.              B     WRITEXIT
-001510 4110 036C            0036C  7664    1416.     NOMONIT  SEG   'Monitoring not set'
 001514 4590 6736            01754  7666             +
 001518 47F0 70D2            0011C  7667    1417.              B     WRITEXIT
1VSD      (VSD07) (09:49) (22MAR04) ORVYL'S SHOW AND DUMP COMMANDS                                                          Page   57
0Current Usings:  (BASE2,R6) (BASE,R7) (WA,R8) (CLW,R10) (LCB,R11)
0Loc    Object Code    Addr1 Addr2  Stmt Lv Lineno    Source Statement           (Hibal 5, Asmedit 3.3)  HLASM R4.0  2004/03/22 09.49
+___    ______ ____    _____ _____  ____ __ ______    ______ _________
0                                   7669    1419.     *  SHOW ZOT CHARACTER (VALUE TO INITIALIZE CORE TO)
                                    7670    1420.     *
 00151C                             7671    1421.     SHOZOT   DS    0H
 00151C 4D90 7032            0007C  7672    1422.              PRVBLOCK
 001520 4100 0018/0AFA       00018  7675    1423.              SENSE 24                      GET ZOT BYTE
 001526 182F                        7694    1424.              LR    SR,R15                  SAVE IT
 001528 18F2/4100 0002       00002  7695    1425.              SEGHX 2,(SR)                  SEG IT HEX
 00152E 4D90 7178            001C2  7709             +
 001532 4110 037F            0037F  7710    1426.              SEG   '  '''
 001536 4590 6736            01754  7712             +
 00153A 4112 6636            01654  7713    1427.              SEG   BCDTBL(SR),1            SEG IT BCD
 00153E 4100 0001            00001  7729             +
 001542 4590 70DA            00124  7730             +
 001546 4110 0383            00383  7731    1428.              SEG   ''''
 00154A 4590 6736            01754  7733             +
 00154E 47F0 70D2            0011C  7734    1429.              B     WRITEXIT
1VSD      (VSD07) (09:49) (22MAR04) ORVYL'S SHOW AND DUMP COMMANDS                                                          Page   58
0Current Usings:  (BASE2,R6) (BASE,R7) (WA,R8) (CLW,R10) (LCB,R11)
0Loc    Object Code    Addr1 Addr2  Stmt Lv Lineno    Source Statement           (Hibal 5, Asmedit 3.3)  HLASM R4.0  2004/03/22 09.49
+___    ______ ____    _____ _____  ____ __ ______    ______ _________
0                                   7736    1431.     *
                                    7737    1432.     * PROGRAM SHOW OPTIONS
                                    7738    1433.     *
                                    7740    1435.              VPMTAB SHTAB,15
 001552 41F0 0028            00028  7741    01-VPMTA +SHLINK   LA 15,(11-1)*4
 001556 47F0 6540            0155E  7742    01-VPMTA +         B     $3697
 00155A 41F0 002C            0002C  7743    01-VPMTA +SHENTRY  LA 15,(12-1)*4
                                    7744    01-VPMTA +$3697    EQU   *
 00155E 5890 67F6/0D99       01814  7746    1437.              VCALL PROGRAMS
 001564 4770 73D8            00422  7750    1438.              BNZ   MILWYL                  PASS ON TO OTHERS
 001568 07F7                        7751    1439.              BR    BR
-
-
                                    7753    1441.     *
                                    7754    1442.     * ORVYL SYSTEM SHOW OPTIONS
                                    7755    1443.     *
                                    7757    1445.              VSSVTAB SHTAB,15
 00156A 41F0 004C            0004C  7758    01-VSSVT +SHVVOLUM LA 15,(20-1)*4
 00156E 47F0 6590            015AE  7759    01-VSSVT +         B     $3699
 001572 41F0 0050            00050  7760    01-VSSVT +SHVREGIO LA 15,(21-1)*4
 001576 47F0 6590            015AE  7761    01-VSSVT +         B     $3699
 00157A 41F0 0054            00054  7762    01-VSSVT +SHVGROUP LA 15,(22-1)*4
 00157E 47F0 6590            015AE  7763    01-VSSVT +         B     $3699
 001582 41F0 0058            00058  7764    01-VSSVT +SHVTIME  LA 15,(23-1)*4
 001586 47F0 6590            015AE  7765    01-VSSVT +         B     $3699
 00158A 41F0 005C            0005C  7766    01-VSSVT +SHVUSERS LA 15,(24-1)*4
 00158E 47F0 6590            015AE  7767    01-VSSVT +         B     $3699
 001592 41F0 0060            00060  7768    01-VSSVT +SHVSESSI LA 15,(25-1)*4
 001596 47F0 6590            015AE  7769    01-VSSVT +         B     $3699
 00159A 41F0 0064            00064  7770    01-VSSVT +SHVSYS   LA 15,(26-1)*4
 00159E 47F0 6590            015AE  7771    01-VSSVT +         B     $3699
 0015A2 41F0 0068            00068  7772    01-VSSVT +SHVVERSI LA 15,(27-1)*4
 0015A6 47F0 6590            015AE  7773    01-VSSVT +         B     $3699
 0015AA 41F0 006C            0006C  7774    01-VSSVT +SHVSYMBO LA 15,(28-1)*4
                                    7775    01-VSSVT +$3699    EQU   *
 0015AE 5890 67FA/0D99       01818  7777    1447.              VCALL CLPSYSTM
 0015B4 4770 73D8            00422  7781    1448.              BNZ   MILWYL                  PASS ON TO OTHERS
 0015B8 07F7                        7782    1449.              BR    BR
                                    7784    1451.              VSSWTAB SHTAB,15
 0015BA 41F0 0004            00004  7785    01-VSSWT +SHVINFO  LA 15,(2-1)*4
 0015BE 47F0 65B8            015D6  7786    01-VSSWT +         B     $3701
 0015C2 41F0 0008            00008  7787    01-VSSWT +SHVBLOCK LA 15,(3-1)*4
 0015C6 47F0 65B8            015D6  7788    01-VSSWT +         B     $3701
 0015CA 41F0 000C            0000C  7789    01-VSSWT +SHVCACHE LA 15,(4-1)*4
 0015CE 47F0 65B8            015D6  7790    01-VSSWT +         B     $3701
 0015D2 41F0 0010            00010  7791    01-VSSWT +SHVFILES LA 15,(5-1)*4
                                    7792    01-VSSWT +$3701    EQU   *
 0015D6 5890 67FE/0D99       0181C  7794    1453.              VCALL CLPSYST2
 0015DC 4770 73D8            00422  7798    1454.              BNZ   MILWYL                  PASS ON TO OTHERS
 0015E0 07F7                        7799    1455.              BR    BR
1VSD      (VSD07) (09:49) (22MAR04) ORVYL'S SHOW AND DUMP COMMANDS                                                          Page   59
0Current Usings:  (BASE2,R6) (BASE,R7) (WA,R8) (CLW,R10) (LCB,R11)
0Loc    Object Code    Addr1 Addr2  Stmt Lv Lineno    Source Statement           (Hibal 5, Asmedit 3.3)  HLASM R4.0  2004/03/22 09.49
+___    ______ ____    _____ _____  ____ __ ______    ______ _________
0                                   7801    1457.     *
                                    7802    1458.     * FILE SHOW OPTIONS
                                    7803    1459.     *
                                    7805    1461.              VGPTAB SHTAB,15
                                    7806    01-VGPTA +$3703    EQU   *
 0015E2 5890 6802/0D99       01820  7808    1463.              VCALL FILES
 0015E8 4770 73D8            00422  7812    1464.              BNZ   MILWYL                  PASS ON TO OTHERS
 0015EC 07F7                        7813    1465.              BR    BR
-
-
                                    7816    1468.              VFSHTAB SHTAB,15
 0015EE 41F0 0000            00000  7817    01-VFSHT +SHFILES  LA 15,(1-1)*4
 0015F2 47F0 6624            01642  7818    01-VFSHT +         B     $3705
 0015F6 41F0 0004            00004  7819    01-VFSHT +SHACCESS LA 15,(2-1)*4
 0015FA 47F0 6624            01642  7820    01-VFSHT +         B     $3705
 0015FE 41F0 0008            00008  7821    01-VFSHT +SHBLOCKS LA 15,(3-1)*4
 001602 47F0 6624            01642  7822    01-VFSHT +         B     $3705
 001606 41F0 000C            0000C  7823    01-VFSHT +SHCLP    LA 15,(4-1)*4
 00160A 47F0 6624            01642  7824    01-VFSHT +         B     $3705
 00160E 41F0 0010            00010  7825    01-VFSHT +SHCONTEN LA 15,(5-1)*4
 001612 47F0 6624            01642  7826    01-VFSHT +         B     $3705
 001616 41F0 0014            00014  7827    01-VFSHT +SHFILEMA LA 15,(6-1)*4
 00161A 47F0 6624            01642  7828    01-VFSHT +         B     $3705
 00161E 41F0 0018            00018  7829    01-VFSHT +SHFORMAT LA 15,(7-1)*4
 001622 47F0 6624            01642  7830    01-VFSHT +         B     $3705
 001626 41F0 001C            0001C  7831    01-VFSHT +SHPERMIT LA 15,(8-1)*4
 00162A 47F0 6624            01642  7832    01-VFSHT +         B     $3705
 00162E 41F0 0020            00020  7833    01-VFSHT +SHPROGRA LA 15,(9-1)*4
 001632 47F0 6624            01642  7834    01-VFSHT +         B     $3705
 001636 41F0 0024            00024  7835    01-VFSHT +SHSHARE  LA 15,(10-1)*4
 00163A 47F0 6624            01642  7836    01-VFSHT +         B     $3705
 00163E 41F0 0028            00028  7837    01-VFSHT +SHSPIFIL LA 15,(11-1)*4
                                    7838    01-VFSHT +$3705    EQU   *
 001642 5890 6806/0D99       01824  7840    1470.              VCALL FILESHOW
 001648 4770 73D8            00422  7844    1471.              BNZ   MILWYL                  PASS ON TO OTHERS
 00164C 07F7                        7845    1472.              BR    BR
1VSD      (VSD07) (09:49) (22MAR04) ORVYL'S SHOW AND DUMP COMMANDS                                                          Page   60
0Current Usings:  (BASE2,R6) (BASE,R7) (WA,R8) (CLW,R10) (LCB,R11)
0Loc    Object Code    Addr1 Addr2  Stmt Lv Lineno    Source Statement           (Hibal 5, Asmedit 3.3)  HLASM R4.0  2004/03/22 09.49
+___    ______ ____    _____ _____  ____ __ ______    ______ _________
0                                   7847    1474.     *  CONSTANTS
                                    7848    1475.     *
                                    7849    1476.     MICPERTU EQU   X'01A0AB'               MICROSECONDS PER TU
 00164E 0000
 001650 02710080                    7850    1477.     MICPERCS DC    A(MICPERTU*384)             "        PER CSEC
1VSD      (VSD07) (09:49) (22MAR04) ORVYL'S SHOW AND DUMP COMMANDS                                                          Page   61
0Current Usings:  (BASE2,R6) (BASE,R7) (WA,R8) (CLW,R10) (LCB,R11)
0Loc    Object Code    Addr1 Addr2  Stmt Lv Lineno    Source Statement           (Hibal 5, Asmedit 3.3)  HLASM R4.0  2004/03/22 09.49
+___    ______ ____    _____ _____  ____ __ ______    ______ _________
0                                   7852    1479.     *  BCD CONVERSION TABLE
                                    7853    1480.     *
                                    7854    1481.              ENTRY BCDTBL
 001654 4B4B4B4B4B4B4B4B            7855    1481.1    BCDTBL   DC    256C'.'
 001754                01754 01715  7856    1482.              ORG   BCDTBL+C'A'
 001715 C1C2C3C4C5C6C7C8            7857    1483.              DC    C'ABCDEFGHI'
 00171E                0171E 01725  7858    1484.              ORG   BCDTBL+C'J'
 001725 D1D2D3D4D5D6D7D8            7859    1485.              DC    C'JKLMNOPQR'
 00172E                0172E 01736  7860    1486.              ORG   BCDTBL+C'S'
 001736 E2E3E4E5E6E7E8E9            7861    1487.              DC    C'STUVWXYZ'
 00173E                0173E 016D5  7862    1488.              ORG   BCDTBL+X'81'
 0016D5 8182838485868788            7863    1489.              DC    X'818283848586878889'
 0016DE                016DE 016E5  7864    1490.              ORG   BCDTBL+X'91'
 0016E5 9192939495969798            7865    1491.              DC    X'919293949596979899'
 0016EE                016EE 016F6  7866    1492.              ORG   BCDTBL+X'A2'
 0016F6 A2A3A4A5A6A7A8A9            7867    1493.              DC    X'A2A3A4A5A6A7A8A9'
 0016FE                016FE 01744  7868    1494.              ORG   BCDTBL+C'0'
 001744 F0F1F2F3F4F5F6F7            7869    1495.              DC    C'0123456789'
 00174E                0174E 01694  7870    1496.              ORG   BCDTBL+C' '
 001694 40                          7871    1497.              DC    C' '
 001695                01695 016A0  7872    1498.              ORG   BCDTBL+C'<'
 0016A0 4C4D4E4F50                  7873    1499.              DC    C'<(+|&&'
 0016A5                016A5 016AE  7874    1500.              ORG   BCDTBL+C'!'
 0016AE 5A5B5C5D5E5F6061            7875    1501.              DC    C'!$*);~-/'
 0016B6                016B6 016BF  7876    1502.              ORG   BCDTBL+C','
 0016BF 6B6C6D6E6F                  7877    1503.              DC    C',%_>?'
 0016C4                016C4 016CE  7878    1504.              ORG   BCDTBL+C':'
 0016CE 7A7B7C7D7E7F                7879    1505.              DC    C':#@''="'
 0016D4                016D4 01754  7880    1506.              ORG
1VSD      (VSD07) (09:49) (22MAR04) ORVYL'S SHOW AND DUMP COMMANDS                                                          Page   62
0Current Usings:  (BASE2,R6) (BASE,R7) (WA,R8) (CLW,R10) (LCB,R11)
0Loc    Object Code    Addr1 Addr2  Stmt Lv Lineno    Source Statement           (Hibal 5, Asmedit 3.3)  HLASM R4.0  2004/03/22 09.49
+___    ______ ____    _____ _____  ____ __ ______    ______ _________
0
-
0001754 5090 D000            00000  7883    1509.              GENMSGS
 001758 41D0 D004/1F00       00004  7887             +
 00175E 4301 6846            01864  7892             +
 001762 4111 6847            01865  7893             +
 001766 5890 676A/0D99       01788  7909             +
 00176C 4BD0 680A            01828  7912             +
 001770 5890 D000/07F9       00000  7913             +
 001778 FFFFFFFFFFFFFFFF            7917                             =X'FFFFFFFFFFFFFFFF'
 001780 00000000                    7918                             =V(TYPEIT)
 001784 00000000                    7919                             =V(VWRITE)
 001788 00000000                    7920                             =V(VSEG)
 00178C 00000000                    7921                             =V(EVAL)
 001790 00000000                    7922                             =V(BTD)
 001794 00000000                    7923                             =V(BTX)
 001798 00000000                    7924                             =V(SEGSECS)
 00179C 00000000                    7925                             =V(SCAN)
 0017A0 0000000A                    7926                             =F'10'
 0017A4 0FFFFFFF                    7927                             =X'0FFFFFFF'
 0017A8 00000000                    7928                             =V(VSEGLOC)
 0017AC C6C4C5E2                    7929                             =C'FDES'
 0017B0 4B4B4B4B                    7930                             =C'....'
 0017B4 E3C1E6D7                    7931                             =C'TAWP'
 0017B8 00000010                    7932                             =A(16)
 0017BC 00000010                    7933                             =F'16'
 0017C0 00000006                    7934                             =A(6)
 0017C4 00000001                    7935                             =A(1)
 0017C8 00000294                    7936                             =A(L'SCP)
 0017CC 7FFFFFFF                    7937                             =XL4'7FFFFFFF'
 0017D0 1FFFFFFF                    7938                             =XL4'1FFFFFFF'
 0017D4 00FFFFFF                    7939                             =XL4'00FFFFFF'
 0017D8 00000100                    7940                             =A(256)
 0017DC 01000000                    7941                             =X'01000000'
 0017E0 00000000                    7942                             =V(READCORE)
 0017E4 0000000C                    7943                             =F'12'
 0017E8 7FFFFFF0                    7944                             =XL4'7FFFFFF0'
 0017EC 00000004                    7945                             =F'4'
 0017F0 7FFFF000                    7946                             =X'7FFFF000'
 0017F4 00001000                    7947                             =A(4096)
 0017F8 00000000                    7948                             =V(EVHEX)
 0017FC 00000000                    7949                             =V(SCTELL)
 001800 00000000                    7950                             =V(SCINIT)
 001804 00000000                    7951                             =V(LDSET)
 001808 00000000                    7952                             =V(LDNEXT)
 00180C 00000000                    7953                             =V(LDFIND)
 001810 0000FFFF                    7954                             =X'0000FFFF'
 001814 00000000                    7955                             =V(PROGRAMS)
 001818 00000000                    7956                             =V(CLPSYSTM)
 00181C 00000000                    7957                             =V(CLPSYST2)
 001820 00000000                    7958                             =V(FILES)
1VSD      (VSD07) (09:49) (22MAR04) ORVYL'S SHOW AND DUMP COMMANDS                                                          Page   63
0Current Usings:  (BASE2,R6) (BASE,R7) (WA,R8) (CLW,R10) (LCB,R11)
0Loc    Object Code    Addr1 Addr2  Stmt Lv Lineno    Source Statement           (Hibal 5, Asmedit 3.3)  HLASM R4.0  2004/03/22 09.49
+___    ______ ____    _____ _____  ____ __ ______    ______ _________
0001824 00000000                    7959                             =V(FILESHOW)
 001828 0004                        7960                             =Y(4)
 00182A 0018                        7961                             =Y((14+1-(RAR)+16*((RAR)/(14+1))/((RAR)/(14+1)))*4)
 00182C 0008                        7962                             =Y(8)
 00182E 7A15                        7963                             =X'7A15'
 001830 000000                      7964                             =X'000000'
 001833 C396949481958440            7965                             =C'Command Processor'
 001844 97999687998194              7966                             =C'program'
 00184B 4D                          7967                             =C'('
 00184C 6B             01864 01BF0  7968                             =C','
 DROP   WA,R8                       8145    1510.              DROP  WAR,BR,BRR              ##
 DROP   BASE,R7
 DROP   BASE2,R6
 001BF0                01BF0 01BF0  8164    1511.              END   .

1VSD      (VSD07) (09:49) (22MAR04) Ordinary Symbol and Literal Cross Reference                                             Page   64
-Symbol   Length   Value     Id    R Type   Defn References                                  HLASM R4.0  2004/03/22 09.49
0$$$@R10       1 00000000 FFFFFFF4     J     839 1130
 $$$@R11       1 00000000 FFFFFFF3     J     852 1143
 $$$@R2        1 00000000 FFFFFFFC     J     735 1026
 $$$@R3        1 00000000 FFFFFFFB     J     748 1039
 $$$@R4        1 00000000 FFFFFFFA     J     761 1052
 $$$@R5        1 00000000 FFFFFFF9     J     774 1065
 $$$@R6        1 00000000 FFFFFFF8     J     787 1078
 $$$@R7        1 00000000 FFFFFFF7     J     800 1091
 $$$@R8        1 00000000 FFFFFFF6     J     813 1104
 $$$@R9        1 00000000 FFFFFFF5     J     826 1117
 $$$C1VSD      1 00001864 00000001     J    7969 7971
 $$$C2VSD      1 00001BF0 00000001     J    8167 8169
 $$$D0VSD      1 0000184D 00000001     J     995 4361  5090  5107  5428
 $$$RCLW       1 00000000 FFFFFFED     J    1561 1868  1868
 $$$RCSD       1 00000000 FFFFFFEC     J    1875 1944  1944
 $$$RLNKPAGE
               1 00000000 FFFFFFEB     J    1950 2179  2179
 $$$RSCP       1 00000000 FFFFFFEE     J    1216 1545  1545
 $$$101F       2 00001062 00000001     H    6426 6361B
 $$$102F       2 0000103E 00000001     H    6391 6381B
 $$$103F       2 00001062 00000001     H    6422 6408B
 $$$104F       2 000010C2 00000001     H    6526 6516B
 $$$113F       2 0000139E 00000001     H    7278 7266B
 $$$114F       2 000013BE 00000001     H    7328 7317B
 $$$115F       2 000013CE 00000001     H    7347 7336B
 $$$116F       2 0000140A 00000001     H    7398 7355B
 $$$117F       2 00001402 00000001     H    7391 7375B
 $$$118F       2 0000141A 00000001     H    7417 7406B
 $$$119F       2 00001470 00000001     H    7502 7425B
 $$$120F       2 00001468 00000001     H    7495 7452B
 $$$121F       2 000014C2 00000001     H    7581 7569B
 $$$122F       2 00001504 00000001     H    7658 7616B
 $$$24B        1 00000020 00000001     X    2412 2419U
 $$$26F        2 00000040 00000001     H    2481 2466B
 $$$32B        4 00000434 00000001     I    3130 3144
 $$$32F        2 00000440 00000001     H    3141 3130B 3143
 $$$33E        2 00000444 00000001     H    3151 3145
 $$$33F        2 0000047A 00000001     H    3201 3147B
 $$$34F        2 000004BA 00000001     H    3263 3210B
 $$$35F        2 0000050C 00000001     H    3330 3320B
 $$$37B        4 00000590 00000001     I    3470 3483
 $$$37F        2 00000598 00000001     H    3480 3470B 3482
 $$$38E        2 0000059C 00000001     H    3490 3484
 $$$38F        2 000005A0 00000001     H    3497 3486B
 $$$39F        2 0000066E 00000001     H    3679 3515B
 $$$42F        2 0000066A 00000001     H    3673 3637B
 $$$46F        2 0000075C 00000001     H    3908 3895B
 $$$48F        2 000007FC 00000001     H    4071 4058B
 $$$50F        2 00000876 00000001     H    4208 4195B
 $$$51F        2 000008BA 00000001     H    4332 4232B 4286B
 $$$57         4 0000184E 00000001     I    4367 4359X
 $$$58         4 0000184E 00000001     I    4366 4367  4367
 $$$60F        2 00000912 00000001     H    4452 4439B
 $$$61F        2 00000954 00000001     H    4525 4498B
 $$$62F        2 00000954 00000001     H    4521 4511B
1VSD      (VSD07) (09:49) (22MAR04) Ordinary Symbol and Literal Cross Reference                                             Page   65
 $$$63F        2 0000096E 00000001     H    4565 4552B
 $$$64F        2 00000990 00000001     H    4607 4580B
 $$$65F        2 00000990 00000001     H    4603 4593B
 $$$66B        4 000009BC 00000001     I    4645 4657
 $$$66F        2 000009C4 00000001     H    4654 4645B 4656
 $$$67E        2 000009C8 00000001     H    4664 4658
 $$$67F        2 000009D8 00000001     H    4690 4660B
 $$$68F        2 000009D8 00000001     H    4686 4677B
 $$$70B        4 00000A24 00000001     I    4755 4768
 $$$70F        2 00000A2C 00000001     H    4765 4755B 4767
 $$$71E        2 00000A30 00000001     H    4775 4769
 $$$71F        2 00000A3E 00000001     H    4807 4771B
 $$$72F        2 00000A3E 00000001     H    4803 4787B
 $$$73F        2 00000A46 00000001     H    4827 4817B
 $$$74F        2 00000A76 00000001     H    4896 4839B
 $$$75F        2 00000A64 00000001     H    4864 4854B
 $$$76F        2 00000A6E 00000001     H    4885 4875B
 $$$78F        2 00000AD0 00000001     H    4967 4948B
 $$$79F        2 00000B14 00000001     H    5076 4978B
 $$$80         6 00001852 00000001     I    5096 5088X
 $$$81         6 00001852 00000001     I    5095 5096  5096
 $$$82         6 00001858 00000001     I    5113 5105X
 $$$83         6 00001858 00000001     I    5112 5113  5113
 $$$84F        2 00000B82 00000001     H    5217 5131B
 $$$85F        2 00000BA6 00000001     H    5260 5228B
 $$$87         6 0000185E 00000001     I    5434 5426X
 $$$88         6 0000185E 00000001     I    5433 5434  5434
 $$$92B        4 00000E48 00000001     I    5840 5852
 $$$92F        2 00000E50 00000001     H    5849 5840B 5851
 $$$93E        2 00000E54 00000001     H    5859 5853
 $$$93F        2 00000E58 00000001     H    5865 5855B
 $$$94F        2 00000E66 00000001     H    5889 5879B
 $$$98F        2 00000FAA 00000001     H    6248 6232B
 $3697         1 0000155E 00000001     U    7744 7742B
 $3699         1 000015AE 00000001     U    7775 7759B 7761B 7763B 7765B 7767B 7769B 7771B 7773B
 $3701         1 000015D6 00000001     U    7792 7786B 7788B 7790B
 $3705         1 00001642 00000001     U    7838 7818B 7820B 7822B 7824B 7826B 7828B 7830B 7832B 7834B 7836B
 #VSDA1M       1 00001864 00000001     R    7975 2542
 #VSDA1T      16 00001865 00000001     C    7976 7975
 #VSDA2M       1 00001875 00000001     R    7977 2547
 #VSDA2T      15 00001876 00000001     C    7978 7977
 #VSDA3M       1 00001885 00000001     R    7979 2589
 #VSDA3T      39 00001886 00000001     C    7980 7979
 #VSDA4M       1 000018AD 00000001     R    7981 2673
 #VSDA4T      13 000018AE 00000001     C    7982 7981
 #VSDA5M       1 000018BB 00000001     R    7983 2678
 #VSDA5T      12 000018BC 00000001     C    7984 7983
 #VSDA6M       1 000018C8 00000001     R    7985 2683
 #VSDA6T      15 000018C9 00000001     C    7986 7985
 #VSDA7M       1 000018D8 00000001     R    7987 2705
 #VSDA7T       9 000018D9 00000001     C    7988 7987
 #VSDA8M       1 000018E2 00000001     R    7989 2786
 #VSDA8T       1 000018E3 00000001     C    7990 7989
 #VSDA9M       1 000018E4 00000001     R    7991 3136
 #VSDA9T      30 000018E5 00000001     C    7992 7991
 #VSDB0M       1 00001903 00000001     R    7993 3154
 #VSDB0T      23 00001904 00000001     C    7994 7993
 #VSDB1M       1 0000191B 00000001     R    7995 3178  8001
 #VSDB1T       1 0000191C 00000001     C    7996 7995
1VSD      (VSD07) (09:49) (22MAR04) Ordinary Symbol and Literal Cross Reference                                             Page   66
 #VSDB2M       1 0000191D 00000001     R    7997 3196
 #VSDB2T      12 0000191E 00000001     C    7998 7997
 #VSDB3M       1 0000192A 00000001     R    7999 3216
 #VSDB3T      18 0000192B 00000001     C    8000 7999
 #VSDB4M       1 0000191B 00000001     U    8001 3240
 #VSDB5M       1 0000193D 00000001     R    8002 3258
 #VSDB5T      10 0000193E 00000001     C    8003 8002
 #VSDB6M       1 00001948 00000001     R    8004 3423
 #VSDB6T       6 00001949 00000001     C    8005 8004
 #VSDB7M       1 0000194F 00000001     R    8006 3521
 #VSDB7T       9 00001950 00000001     C    8007 8006
 #VSDB8M       1 00001959 00000001     R    8008 3535
 #VSDB8T       5 0000195A 00000001     C    8009 8008
 #VSDB9M       1 0000195F 00000001     R    8010 3563
 #VSDB9T       5 00001960 00000001     C    8011 8010
 #VSDC0M       1 00001965 00000001     R    8012 3589
 #VSDC0T       5 00001966 00000001     C    8013 8012
 #VSDC1M       1 0000196B 00000001     R    8014 3643
 #VSDC1T      16 0000196C 00000001     C    8015 8014
 #VSDC2M       1 0000197C 00000001     R    8016 3714
 #VSDC2T       5 0000197D 00000001     C    8017 8016
 #VSDC3M       1 00001982 00000001     R    8018 3748
 #VSDC3T       4 00001983 00000001     C    8019 8018
 #VSDC4M       1 00001987 00000001     R    8020 3806
 #VSDC4T       4 00001988 00000001     C    8021 8020
 #VSDC5M       1 0000198C 00000001     R    8022 3824  8028  8031  8034
 #VSDC5T       3 0000198D 00000001     C    8023 8022
 #VSDC6M       1 00001990 00000001     R    8024 3912
 #VSDC6T      11 00001991 00000001     C    8025 8024
 #VSDC7M       1 0000199C 00000001     R    8026 3945
 #VSDC7T       9 0000199D 00000001     C    8027 8026
 #VSDC8M       1 0000198C 00000001     U    8028 3963
 #VSDC9M       1 000019A6 00000001     R    8029 4100
 #VSDC9T       8 000019A7 00000001     C    8030 8029
 #VSDD0M       1 0000198C 00000001     U    8031 4118
 #VSDD1M       1 000019AF 00000001     R    8032 4336
 #VSDD1T       5 000019B0 00000001     C    8033 8032
 #VSDD2M       1 0000198C 00000001     U    8034 4354
 #VSDD3M       1 000019B5 00000001     R    8035 4456
 #VSDD3T      11 000019B6 00000001     C    8036 8035
 #VSDD4M       1 000019C1 00000001     R    8037 4962  8065  8066  8075  8076  8097
 #VSDD4T       2 000019C2 00000001     C    8038 8037
 #VSDD5M       1 000019C4 00000001     R    8039 5234
 #VSDD5T       2 000019C5 00000001     C    8040 8039
 #VSDD6M       1 000019C7 00000001     R    8041 5255  8049
 #VSDD6T       1 000019C8 00000001     C    8042 8041
 #VSDD7M       1 000019C9 00000001     R    8043 5339  8050  8096  8100
 #VSDD7T       3 000019CA 00000001     C    8044 8043
 #VSDD8M       1 000019CD 00000001     R    8045 5357
 #VSDD8T      19 000019CE 00000001     C    8046 8045
 #VSDD9M       1 000019E1 00000001     R    8047 5376
 #VSDD9T       3 000019E2 00000001     C    8048 8047
 #VSDE0M       1 000019C7 00000001     U    8049 5397
 #VSDE1M       1 000019C9 00000001     U    8050 5623
 #VSDE2M       1 000019E5 00000001     R    8051 5641
 #VSDE2T      18 000019E6 00000001     C    8052 8051
 #VSDE3M       1 000019F8 00000001     R    8053 5650
 #VSDE3T      18 000019F9 00000001     C    8054 8053
 #VSDE4M       1 00001A0B 00000001     R    8055 5663
1VSD      (VSD07) (09:49) (22MAR04) Ordinary Symbol and Literal Cross Reference                                             Page   67
 #VSDE4T      15 00001A0C 00000001     C    8056 8055
 #VSDE5M       1 00001A1B 00000001     R    8057 5891
 #VSDE5T      14 00001A1C 00000001     C    8058 8057
 #VSDE6M       1 00001A2A 00000001     R    8059 5946
 #VSDE6T      14 00001A2B 00000001     C    8060 8059
 #VSDE7M       1 00001A39 00000001     R    8061 5964  8071
 #VSDE7T      16 00001A3A 00000001     C    8062 8061
 #VSDE8M       1 00001A4A 00000001     R    8063 5969  8074
 #VSDE8T       7 00001A4B 00000001     C    8064 8063
 #VSDE9M       1 000019C1 00000001     U    8065 5974
 #VSDF0M       1 000019C1 00000001     U    8066 5992
 #VSDF1M       1 00001A52 00000001     R    8067 6010  8079
 #VSDF1T      14 00001A53 00000001     C    8068 8067
 #VSDF2M       1 00001A61 00000001     R    8069 6035
 #VSDF2T      11 00001A62 00000001     C    8070 8069
 #VSDF3M       1 00001A39 00000001     U    8071 6074
 #VSDF4M       1 00001A6D 00000001     R    8072 6136
 #VSDF4T      22 00001A6E 00000001     C    8073 8072
 #VSDF5M       1 00001A4A 00000001     U    8074 6148
 #VSDF6M       1 000019C1 00000001     U    8075 6178
 #VSDF7M       1 000019C1 00000001     U    8076 6196
 #VSDF8M       1 00001A84 00000001     R    8077 6276
 #VSDF8T      19 00001A85 00000001     C    8078 8077
 #VSDF9M       1 00001A52 00000001     U    8079 6280
 #VSDG0M       1 00001A98 00000001     R    8080 6284
 #VSDG0T      28 00001A99 00000001     C    8081 8080
 #VSDG1M       1 00001AB5 00000001     R    8082 6310
 #VSDG1T      18 00001AB6 00000001     C    8083 8082
 #VSDG2M       1 00001AC8 00000001     R    8084 6320
 #VSDG2T      17 00001AC9 00000001     C    8085 8084
 #VSDG3M       1 00001ADA 00000001     R    8086 6395
 #VSDG3T      15 00001ADB 00000001     C    8087 8086
 #VSDG4M       1 00001AEA 00000001     R    8088 6416
 #VSDG4T      15 00001AEB 00000001     C    8089 8088
 #VSDG5M       1 00001AFA 00000001     R    8090 6447
 #VSDG5T       1 00001AFB 00000001     C    8091 8090
 #VSDG6M       1 00001AFC 00000001     R    8092 6483
 #VSDG6T       4 00001AFD 00000001     C    8093 8092
 #VSDG7M       1 00001B01 00000001     R    8094 6681
 #VSDG7T      27 00001B02 00000001     C    8095 8094
 #VSDG8M       1 000019C9 00000001     U    8096 6766
 #VSDG9M       1 000019C1 00000001     U    8097 6784
 #VSDH0M       1 00001B1D 00000001     R    8098 6839
 #VSDH0T      10 00001B1E 00000001     C    8099 8098
 #VSDH1M       1 000019C9 00000001     U    8100 6877
 #VSDH2M       1 00001B28 00000001     R    8101 6895
 #VSDH2T       7 00001B29 00000001     C    8102 8101
 #VSDH3M       1 00001B30 00000001     R    8103 6919
 #VSDH3T       8 00001B31 00000001     C    8104 8103
 #VSDH4M       1 00001B39 00000001     R    8105 6957
 #VSDH4T      11 00001B3A 00000001     C    8106 8105
 #VSDH5M       1 00001B45 00000001     R    8107 6997
 #VSDH5T      11 00001B46 00000001     C    8108 8107
 #VSDH6M       1 00001B51 00000001     R    8109 7215
 #VSDH6T      12 00001B52 00000001     C    8110 8109
 #VSDH7M       1 00001B5E 00000001     R    8111 7253
 #VSDH7T      14 00001B5F 00000001     C    8112 8111
 #VSDH8M       1 00001B6D 00000001     R    8113 7323
 #VSDH8T       7 00001B6E 00000001     C    8114 8113
1VSD      (VSD07) (09:49) (22MAR04) Ordinary Symbol and Literal Cross Reference                                             Page   68
 #VSDH9M       1 00001B75 00000001     R    8115 7342
 #VSDH9T       7 00001B76 00000001     C    8116 8115
 #VSDI0M       1 00001B7D 00000001     R    8117 7361
 #VSDI0T       7 00001B7E 00000001     C    8118 8117
 #VSDI1M       1 00001B85 00000001     R    8119 7381
 #VSDI1T       1 00001B86 00000001     C    8120 8119
 #VSDI2M       1 00001B87 00000001     R    8121 7393
 #VSDI2T       3 00001B88 00000001     C    8122 8121
 #VSDI3M       1 00001B8B 00000001     R    8123 7412
 #VSDI3T       8 00001B8C 00000001     C    8124 8123
 #VSDI4M       1 00001B94 00000001     R    8125 7431
 #VSDI4T       9 00001B95 00000001     C    8126 8125
 #VSDI5M       1 00001B9E 00000001     R    8127 7497
 #VSDI5T       3 00001B9F 00000001     C    8128 8127
 #VSDI6M       1 00001BA2 00000001     R    8129 7512
 #VSDI6T      13 00001BA3 00000001     C    8130 8129
 #VSDI7M       1 00001BB0 00000001     R    8131 7556
 #VSDI7T      18 00001BB1 00000001     C    8132 8131
 #VSDI8M       1 00001BC3 00000001     R    8133 7597
 #VSDI8T      10 00001BC4 00000001     C    8134 8133
 #VSDI9M       1 00001BCE 00000001     R    8135 7660
 #VSDI9T       1 00001BCF 00000001     C    8136 8135
 #VSDJ0M       1 00001BD0 00000001     R    8137 7665
 #VSDJ0T      18 00001BD1 00000001     C    8138 8137
 #VSDJ1M       1 00001BE3 00000001     R    8139 7711
 #VSDJ1T       3 00001BE4 00000001     C    8140 8139
 #VSDJ2M       1 00001BE7 00000001     R    8141 7732
 #VSDJ2T       1 00001BE8 00000001     C    8142 8141
 @QR           0 00000000 FFFFFFFA     @    1053 3430  3447  3459  3527  3542  3626  7158
 @RAR          0 00000000 FFFFFFF5     @    1118 2564B 2582B
 @R0           0 00000000 FFFFFFFE     @     710  986U
 @R1           0 00000000 FFFFFFFD     @     723  982U 3493  4145U 6509  6521  6980
 @R10          0 00000000 FFFFFFF4     @     840  946U
 @R11          0 00000000 FFFFFFF3     @     853  942U
 @R12          0 00000000 FFFFFFF2     @     866  938U
 @R13          0 00000000 FFFFFFF1     @     879  934U
 @R14          0 00000000 FFFFFFF0     @     892  930U 5314U 5420U 5490U
 @R15          0 00000000 FFFFFFEF     @     905  926U 5433  5442  5574U 6713U
 @R2           0 00000000 FFFFFFFC     @     736  978U 2488U 3543U 3627U 6345U 6707U 7133U
 @R3           0 00000000 FFFFFFFB     @     749  974U
 @R4           0 00000000 FFFFFFFA     @     762  970U 3739U 3773U 3990U
 @R5           0 00000000 FFFFFFF9     @     775  966U
 @R6           0 00000000 FFFFFFF8     @     788  962U 8162U
 @R7           0 00000000 FFFFFFF7     @     801  958U 2498U 8156U
 @R8           0 00000000 FFFFFFF6     @     814  954U 8150U
 @R9           0 00000000 FFFFFFF5     @     827  950U
 @SR           0 00000000 FFFFFFFC     @    1027 2661  3882  4045  4182  4426  5804  7159  7179  7209
 @TR           0 00000000 FFFFFFFB     @    1040 5103  7489  7653
 AREA         32 00000048 FFFFFFEA     X    2343 2344  2344  2347  2354  2365  4366M 4379  4396  4736  4899  4935  4935
                                                 4988  5012  5034  5056  5077M 5081M 5095M 5095  5245  5322  5364  5374M
                                                 5387  5412  5447M 5767M 5778M 5779  5806  7178M 7179M 7185  7197
 AREA2        32 00000058 FFFFFFEA     U    2344 5274  5322  5411  5412M 5413  5447  5450  5518
 BASE          1 0000004A 00000001     U    2503 2501U
 BASE2         1 0000101E 00000001     U    2421 2422  2430U
 BCDTBL        1 00001654 00000001     C    7855 5077  5374  7722  7854  7856  7858  7860  7862  7864  7866  7868  7870
                                                 7872  7874  7876  7878
 BR            7 00000007 00000001 A   #    1085 2490M 2501U 2728B 2754B 2834B 3266B 3326B 3393B 3397  3707  3745  3803
                                                 3942  4097  4333  4476B 4567B 4860B 4881B 5885B 5897  6429B 6566  7145
                                                 7751B 7782B 7799B 7813B 7845B
1VSD      (VSD07) (09:49) (22MAR04) Ordinary Symbol and Literal Cross Reference                                             Page   69
 BRR           6 00000006 00000001 A   #    1072 2422M 2430U
 BTD           1 00000000 00000006     T    7922 7922
 BTX           1 00000000 00000007     T    7923 7923
 CCTBL        16 00000688 00000001     C    3701 3571
 CLPSYSTM      1 00000000 00000013     T    7956 7956
 CLPSYST2      1 00000000 00000014     T    7957 7957
 CLW        1560 00000000 FFFFFFED     J    1868 2388U
 CLWACCT       6 000003B0 FFFFFFED     C    1854 1855  1856
 CLWFL         1 00000207 FFFFFFED     R    1585 1589  1594  1599
 CLWFLG        1 00000208 FFFFFFED     R    1605 1609  1614  1619  1624  1629  1634  1639
 CLWFM31       2 00000208 FFFFFFED         1639 3469
 CLWFOSC       8 00000208 FFFFFFED         1629 2516M 4629M 4644  4724  5909  6461M
 CLWGROUP      2 000003B0 FFFFFFED     C    1856 2606
 CLWKWCB       4 000002C4 FFFFFFED     F    1830 1841  2956  3417  4708  5824  6611
 CLWKWKW       8 000002C8 FFFFFFED     C    1832 2657  2658  2668  7109  7132  7136M
 CLWLNKP       4 00000250 FFFFFFED     A    1797 3333  5942  6366  6590
 CLWMDUMP      1 0000020A FFFFFFED         1729 3112M
 CLWMFL        1 0000020A FFFFFFED     R    1690 1694  1699  1704  1709  1714  1719  1724  1729
 CLWMONF       1 0000020B FFFFFFED     R    1735 1739  1744  1749  1754
 CLWNTRAP      1 00000008 FFFFFFED A   N    1812 1813  7157
 CLWOBUF       2 00000118 FFFFFFED     H    1579 1581  7503  7508M
 CLWPFL        1 00000209 FFFFFFED     R    1645 1649  1654  1659  1664  1669  1674  1679  1684
 CLWPFPIC     32 00000209 FFFFFFED         1659 3354  5932  5932  6023  6359  6359  6380  6407
 CLWPFPL      64 00000209 FFFFFFED         1654 3318  3318  5932  5932  5933  6359  6359  6360
 CLWPFPRV      4 00000209 FFFFFFED         1674 2561
 CLWPFSUP    128 00000209 FFFFFFED         1649 3318  3318  3319  6581
 CLWR         10 0000000A 00000001 A   #    1124 2388U
 CLWSBGPR      4 00000370 FFFFFFED     F    1853 3828
 CLWSBPSW      8 00000368 FFFFFFED     D    1852 3402
 CLWSCP        4 00000000 FFFFFFED     A    1568 2448  3716  3750  3967  4122  4568  4569  5275  5451  5535  6322
 CLWSFL        1 0000020C FFFFFFED     R    1760 1764  1769
 CLWSSP       64 0000020C FFFFFFED         1769 2579  2646  4676
 CLWTEMP       8 000002E8 FFFFFFED     D    1843 2860  2910  3602M 3612  3651M 3661  3702M 3703  5002  5024  5046  5068
                                                 5080M 5112M 5112  5145  5165  5185  5205  6504  7541  7552
 CLWTIVAL      2 00000232 FFFFFFED     H    1788 3122  3160
 CLWTMAX       2 00000234 FFFFFFED     H    1789 3202  3222
 CLWTRAPS      5 00000280 FFFFFFED     X    1813 7156
 CSDFL         1 00000014 FFFFFFEC     R    1903 1907  1912  1917  1922  1927
 CSDLNG        4 00000010 FFFFFFEC     A    1896 1899  1933
 CSDNAME       8 00000004 FFFFFFEC     C    1886 6699U
 CSDTYP        1 0000000C FFFFFFEC     X    1887 1894  6706
 DOMAP         4 00000532 00000001     I    3386 3357B
 ERROR         2 00000108 00000001     H    2723 2544B 2549B 2591B 2675B 2680B 2685B 2707B 2804B 3914B 4458B 5660B 5665B
                                                 5688B
 EVAL          4 00000156 00000001     I    2794 3790B 3798B 3929B 3937B 4084B 4092B 4225B 4277B 4469B 4491B 4545B 4573B
                                                 4633B 5705B 5802B 6468B
 EVAL          1 00000000 00000005     T    7921 7921
 EVHEX         1 00000000 0000000C     T    7948 7948
 FILES         1 00000000 00000015     T    7958 7958
 FILESHOW      1 00000000 00000016     T    7959 7959
 FMTRTN        2 0000067E 00000001     H    3686 3683
 GTEST         2 00000098 00000001     H    2594 4733B
 HIBAL         1 00000000 FFFFFFFF     J     695  711   724   737   750   763   776   789   802   815   828   841   854
                                                  867   880   893   906
 ILLADDR       4 00000D78 00000001     I    5663 4742B
 ILLFPR        4 00000916 00000001     I    4456 4253B 4269B 4307B 4323B
 ILLGPR        4 00000760 00000001     I    3912 3794B 3802B 3932B 3940B 4087B 4095B
 ILLSTR        2 00000060 00000001     H    2534 4713B 6616B
 ILTBL         4 00000684 00000001     C    3700 3545
1VSD      (VSD07) (09:49) (22MAR04) Ordinary Symbol and Literal Cross Reference                                             Page   70
 KWRIFOPR      1 00000010 FFFFFFEA A   U    2325 2615
 KWRIFSPR      1 00000020 FFFFFFEA A   U    2324 2465
 KWSHOW        2 000001FC 00000001     H    2964 2949
 KWTBL         1 00000670 00000001     R    3683 3410
 LCB         256 00000000 FFFFFFEB     U    2172 3341U
 LCBCLEN       4 00000004 FFFFFFEB     A    1966 5953  5999  6369
 LCBCORE       4 00000000 FFFFFFEB     A    1965 3343  5981
 LCBFL         1 0000007C FFFFFFEB     R    2034 2042  2051  2060  2069  2078  2087
 LCBIDRFL      4 00000064 FFFFFFEB     R    1971 1972
 LCBMAP        4 00000008 FFFFFFEB     A    1967 2096
 LCBMFL        1 000000E2 FFFFFFEB     R    2138 2142  2147  2152  2157  2162  2167
 LCBR         11 0000000B 00000001 A   #    1137 3333M 3341U 5942M 6366M 6590M
 LCBRLD        4 00000098 FFFFFFEB     A    2105 2109
 LCBSDEND      4 000000A0 FFFFFFEB     A    2112 2116
 LCBSTART      4 00000000 FFFFFFEB     F    1964 2170  2172  2172
 LCBXFL        1 00000064 FFFFFFEB     R    1975 1983  1992  2001  2010  2019
 LDFIND        1 00000000 00000011     T    7953 7953
 LDNEXT        1 00000000 00000010     T    7952 7952
 LDSET         1 00000000 0000000F     T    7951 7951
 MATAREA      16 00000068 FFFFFFEA     X    2345 5433  5683
 MICPERTU      1 0001A0AB 00000001 A   U    7849 7850
 MILWYL        2 00000422 00000001     H    3104 2966  3100  7750B 7781B 7798B 7812B 7844B
 MISSING       4 000000E8 00000001     I    2683 2525B 5706B 5912B
 NOEVENTS      4 00001480 00000001     I    7512 7251B
 NOMONIT       4 00001510 00000001     I    7665 7554B
 NOPROG        4 00000FFC 00000001     I    6310 5936B 6584B
 OPRTEST       4 0000009E 00000001     I    2615 6463B
 PEBRANCH      1 00000080 00000001 A   U    7518 7399
 PEFETCH       1 00000040 00000001 A   U    7516 7310  7348
 PEREG         1 00000010 00000001 A   U    7519 7418
 PESTORE       1 00000020 00000001 A   U    7517 7329  7348
 PRIVGOT       2 000000C6 00000001     H    2667 2662B
 PRIVLOOK      2 000000B8 00000001     H    2660 2665B
 PROGRAMS      1 00000000 00000012     T    7955 7955
 PRVPTEST      2 0000007C 00000001     H    2553 3273B 3401B 3712B 3782B 3921B 4217B 4617B 6569B 7144B 7226B 7526B 7674B
 QR            4 00000004 00000001 A   #    1046 3402M 3716M 3726U 3732M 3750M 3760U 3766M 3828M 3834  3853  3967M 3977U
                                                 3983M 3997  4016  4932M 5078  5263M 5264  5413M 5421M 5445  5498  6252M
                                                 6288  6433M 6691M 6791  7155M 7155  7158M 7166
 RAR           9 00000009 00000001 A   #    1111 2540M 2543M 2548M 2590M 2609B 2616B 2631B 2649B 2674M 2679M 2684M 2703M
                                                 2706M 2722M 2726M 2727M 2727B 2748M 2752M 2753M 2753B 2757  2774M 2775M
                                                 2775B 2778M 2779B 2783  2787M 2790M 2791B 2794  2796  2796  2796  2799M
                                                 2800M 2800B 2803M 2805B 2808  2823M 2827  2832M 2833M 2833B 2837M 2838B
                                                 2841  2842  2842  2842  2880M 2881M 2881B 2884M 2885B 2891  2892  2892
                                                 2892  2930M 2931M 2931B 2934M 2935B 3137M 3155M 3176M 3179M 3194M 3197M
                                                 3217M 3238M 3241M 3256M 3259M 3265M 3273M 3276M 3284M 3287M 3295M 3303M
                                                 3332M 3364M 3388M 3391M 3401M 3424M 3439M 3441M 3456M 3458M 3500M 3501M
                                                 3501B 3504M 3522M 3533M 3536M 3561M 3564M 3587M 3590M 3620M 3644M 3669M
                                                 3675M 3712M 3715M 3749M 3782M 3790M 3798M 3807M 3822M 3825M 3843M 3845M
                                                 3859M 3860M 3860B 3863M 3913M 3921M 3929M 3937M 3946M 3961M 3964M 4006M
                                                 4008M 4022M 4023M 4023B 4026M 4084M 4092M 4101M 4116M 4119M 4161M 4163M
                                                 4217M 4225M 4277M 4337M 4352M 4355M 4388M 4390M 4405M 4407M 4457M 4466M
                                                 4469M 4491M 4542M 4545M 4573M 4617M 4633M 4733M 4739M 4740M 4740B 4902M
                                                 4903M 4903B 4960M 4963M 5153M 5155M 5173M 5175M 5193M 5195M 5213M 5235M
                                                 5253M 5256M 5262M 5318M 5319M 5319B 5337M 5340M 5355M 5358M 5373M 5377M
                                                 5395M 5398M 5400M 5494M 5495M 5495B 5582M 5583M 5583B 5621M 5624M 5639M
                                                 5642M 5644M 5651M 5659M 5664M 5686M 5687M 5687B 5705M 5802M 5892M 5947M
                                                 5962M 5965M 5967M 5970M 5972M 5975M 5990M 5993M 6008M 6011M 6013M 6033M
                                                 6036M 6072M 6075M 6077M 6099M 6134M 6137M 6139M 6144B 6146  6149M 6151M
                                                 6179M 6194M 6197M 6270M 6277M 6281M 6285M 6287M 6306M 6307B 6311M 6313M
1VSD      (VSD07) (09:49) (22MAR04) Ordinary Symbol and Literal Cross Reference                                             Page   71
                                                 6321M 6393M 6396M 6414M 6417M 6428M 6432  6445M 6448M 6450M 6463M 6468M
                                                 6481M 6484M 6540M 6542M 6558M 6559M 6559B 6569M 6595M 6596M 6596B 6682M
                                                 6684M 6687M 6688M 6688B 6764M 6767M 6782M 6785M 6800M 6802M 6837M 6840M
                                                 6875M 6878M 6893M 6896M 6920M 6955M 6958M 6995M 6998M 7112M 7113M 7113B
                                                 7144M 7175M 7177M 7188M 7189M 7189B 7192M 7206M 7208M 7216M 7218M 7226M
                                                 7254M 7292M 7309M 7324M 7343M 7362M 7366M 7367M 7367B 7382M 7386M 7387M
                                                 7387B 7394M 7413M 7432M 7471M 7483M 7498M 7513M 7526M 7557M 7595M 7598M
                                                 7635M 7647M 7661M 7666M 7674M 7709M 7712M 7730M 7733M 7748M 7749M 7749B
                                                 7779M 7780M 7780B 7796M 7797M 7797B 7810M 7811M 7811B 7842M 7843M 7843B
                                                 7886  7909M 7910M 7910B 7913M 7914B 7961  7961  7961
 READCORE      1 00000000 0000000B     T    7942 7942
 REQABORT      4 00000070 00000001     I    2547 5302B
 RR            5 00000005 00000001 A   #    1059 3274M 3282M 3285M 3293M 3301M 3304M 3344M 3386M 3389M 3392M 3397M 3680B
                                                 3707M 3745M 3803M 3876B 3942M 4039B 4097M 4176B 4333M 4420B 5897M 5918
                                                 6140M 6141B 6175M 6231  6271B 6288M 6314B 6432M 6451B 6566M 6689B 7145M
                                                 7212B 7219B
 R0            0 00000000 FFFFFFFF A   #     703 2524M 2524  2669M 2888M 3560M 3586M 3619M 3668M 3792  3800  3801  3931
                                                 3933  3934  3939  3941  4086  4088  4089  4094  4096  4237  4238  4250
                                                 4266M 4292  4304  4320M 4474M 4474  4475  4503M 4504  4517  4526M 4561M
                                                 4561  4566  4585M 4586  4599  4608M 4619  4650M 4666M 4682M 4691  4736M
                                                 4899M 5152M 5172M 5192M 5212M 5252M 5274M 5394M 5450M 5518M 5519  5682M
                                                 5699M 5700  5707  5767  5778  5779M 5803  5806M 6469  6522M 6691  6716M
                                                 7103  7125  7258M 7274M 7308M 7443M 7487M 7561M 7577M 7607M 7651M 7729M
                                                 7892M
 R1            1 00000001 FFFFFFFF A   #     716 2668M 3384  3459M 3476M 3493M 3545M 3571M 3596M 3599M 3602  3612M 3645M
                                                 3648M 3651  3661M 3702  3703M 4122M 4132U 4138M 4152  4486  4527M 4609M
                                                 4620  4734M 4761M 4777M 4786M 4786  4816M 4816  4823M 4823  4829M 4830
                                                 4831M 4832  4897M 4932  4933  5145M 5165M 5185M 5205M 5245M 5271M 5272
                                                 5324  5325M 5326  5329  5387M 5410  5449M 5519M 5520M 5521  5524  5530M
                                                 5532M 5533  5590M 5592  5612M 5613  5648  5683M 5717M 5718M 5718  5719
                                                 5767  5778  5779M 5806M 6056M 6057  6145  6253  6255  6521M 6690  6715M
                                                 7109M 7151M 7151  7211M 7211  7257M 7273M 7293M 7363M 7368  7383M 7442M
                                                 7486M 7503M 7505M 7507M 7508  7560M 7576M 7606M 7650M 7722M 7893M
 R11          11 0000000B FFFFFFFF A   #     846 2187  2187  2187  2404  2520M
 R14          14 0000000E FFFFFFFF A   #     885 5275M 5285U 5419M 5421  5424M 5426  5451M 5461U
 R15          15 0000000F FFFFFFFF A   #     898 2508M 2508  2731M 2937M 2938B 3105M 3385  3826M 3827M 3965M 3966M 3983
                                                 4120M 4121M 4138  4356M 4357M 4359  4488  4735M 4741  4898M 4904B 5270M
                                                 5271  5320  5407M 5410M 5411M 5411  5442M 5445  5448M 5449  5496  5498M
                                                 5499M 5520  5535M 5545U 5579M 5579  5584B 5611M 6056  6097  6175  6231
                                                 6252  6253M 6254M 6347M 6387M 6397M 6418M 6433  6434M 6715  7259M 7259
                                                 7562M 7562  7694
 SCAN          1 00000000 00000009     T    7925 7925
 SCBCFCLA     64 00000261 FFFFFFEE         1384 5299  5475  5559
 SCBCFL        1 00000261 FFFFFFEE     R    1375 1379  1384  1389  1394  1399
 SCBFL         1 00000262 FFFFFFEE     R    1405 1409  1414  1419  1424  1429
 SCBTFL        1 00000263 FFFFFFEE     R    1435 1439  1444  1449  1454  1459
 SCBWFL        1 00000260 FFFFFFEE     R    1365 1369
 SCBXA        64 00000265 FFFFFFEE         1481 1515  1515  1517  1517  1519  1519
 SCBXFL        1 00000265 FFFFFFEE     R    1472 1476  1481  1486  1491  1496  1501  1521
 SCBXP        16 00000265 FFFFFFEE         1491 1518  1518  1519  1519  1520  1520
 SCBXT       128 00000265 FFFFFFEE         1476 1515  1515  1516  1516  1518  1518
 SCBXW        32 00000265 FFFFFFEE         1486 1516  1516  1517  1517  1520  1520
 SCINIT        1 00000000 0000000E     T    7950 7950
 SCLEN         4 00000E12 00000001     I    5767 5680
 SCLEN1        2 00000E44 00000001     H    5831 5708B
 SCMATCH       4 00000DC0 00000001     I    5682 5668
 SCNOA         2 00000E00 00000001     H    5724 5674
 SCNOH         2 00000E06 00000001     H    5739 5676
 SCNOT         2 00000E0C 00000001     H    5754 5678
1VSD      (VSD07) (09:49) (22MAR04) Ordinary Symbol and Literal Cross Reference                                             Page   72
 SCP         660 00000000 FFFFFFEE     J    1545 2456U 3726U 3760U 3977U 4132U 5285U 5461U 5545U 6332U 7936
 SCPACCT       6 000001AA FFFFFFEE     C    1254 1255  1256
 SCPCLPGP      4 00000108 FFFFFFEE     F    1235 4138
 SCPCLPSW      8 00000100 FFFFFFEE     D    1234 3766
 SCPCWASZ      1 00000010 FFFFFFEE A   N    1343 1344
 SCPFL         1 00000200 FFFFFFEE     R    1289 1293  1298  1303  1308  1313  1318  1323  1328
 SCPPAN        2 000001A8 FFFFFFEE     H    1245 1246
 SCPPRIV       1 000001B7 FFFFFFEE     X    1264 2465  2482
 SCPRESRV      2 000001F8 FFFFFFEE     H    1283 6337
 SCPUNRSV      2 000001FA FFFFFFEE     H    1284 6338
 SCPXGPRS      4 00000078 FFFFFFEE     F    1229 3983
 SCPXPSW       8 00000070 FFFFFFEE     D    1228 3732
 SCREP         2 00000DEE 00000001     H    5712 5672
 SCRET         2 0000005A 00000001     I    2524 2961B
 SCSCANON      4 000009E8 00000001     I    4701 5701B 5720B 5866B
 SCTBL         1 00000D84 00000001     R    5668 4701
 SCTELL        1 00000000 0000000D     T    7949 7949
 SCTO          4 00000DE0 00000001     I    5705 5670
 SEG           4 00000124 00000001     I    2757 2540B 2703B 2722B 2748B 2823B 3561B 3587B 3620B 3669B 5153B 5173B 5193B
                                                 5213B 5253B 5395B 6540B 6764B 6837B 6875B 6955B 6995B 7292B 7309B 7471B
                                                 7595B 7635B 7730B
 SEGBLNK       4 0000013C 00000001     I    2783 3441B 3458B 3845B 4008B 4390B 5155B 5175B 5195B 6542B 7177B 7192B
 SEGDC         4 0000019C 00000001     I    2841 3176B 3194B 3238B 3256B 3533B 3822B 3961B 4116B 6445B 6481B 7175B 7483B
                                                 7647B
 SEGHX         4 000001C2 00000001     I    2891 3439B 3456B 3843B 4006B 4161B 4352B 4388B 4405B 5355B 5373B 5639B 5962B
                                                 5990B 6008B 6072B 6134B 6194B 6270B 6782B 6800B 6893B 7206B 7709B
 SEGLC         4 000001BE 00000001     I    2888 4960B 5337B 5621B 5659B
 SEGSECS       1 00000000 00000008     T    7924 7924
 SHACCESS      4 000015F6 00000001     I    7819 3033
 SHADDR        2 0000108C 00000001     H    6464 2998  3008
 SHALL         2 000004C0 00000001     H    3270 3006
 SHBLOCKS      4 000015FE 00000001     I    7821 3035
 SHCB          4 000009A0 00000001     I    4619 4534B 4610B
 SHCBL1        4 00000B3A 00000001     I    5105 5083B
 SHCBL2        2 00000B30 00000001     I    5086 5082B
 SHCDO         2 00000A20 00000001     H    4746 3344B 3386B 4892B 5522B
 SHCDO1        4 00000A4E 00000001     I    4831 5265B 5401B 5605B 5645B
 SHCEXIT       2 00000E5C 00000001     H    5870 4908B 5444B 5526B
 SHCKEEP       2 00000A9C 00000001     H    4912 4905B 4906B
 SHCKNS        2 00000ABA 00000001     H    4937 4934B 5327B
 SHCKS         4 00000BB6 00000001     I    5270 4936B 5323B
 SHCKS1        4 00000BEC 00000001     I    5324 5273B 5321B
 SHCLGBTH      2 0000082C 00000001     I    4097 4085B 4093B
 SHCLGDO       4 0000082E 00000001     I    4100 4209B
 SHCLGPRS      2 00000800 00000001     H    4078 2988  2990  2992
 SHCLP         4 00001606 00000001     I    7823 3037
 SHCLPSW       2 000006BA 00000001     I    3745 2994  2996
 SHCMCH        2 00000C52 00000001     I    5407 4926B
 SHCMCH1       4 00000C76 00000001     I    5424 5446B 5500B
 SHCMCH2       2 00000C8E 00000001     I    5445 5422B 5443B
 SHCMCH3       2 00000CC8 00000001     H    5503 5441B
 SHCMCH3A      4 00000CD8 00000001     I    5521 5525B
 SHCMCH4       4 00000CE0 00000001     I    5524 5497B
 SHCNB         2 00000B3E 00000001     H    5122 5079B
 SHCND         4 00000D28 00000001     I    5591 5585B 5586B 5588B
 SHCND0        4 00000D24 00000001     I    5590 5534B
 SHCNGO        4 00000CF0 00000001     I    5532 5587B
 SHCNONE       4 00000CEC 00000001     I    5530 4907B
 SHCNPRIV      4 00000A06 00000001     I    4734 4727B
1VSD      (VSD07) (09:49) (22MAR04) Ordinary Symbol and Literal Cross Reference                                             Page   73
 SHCONTEN      4 0000160E 00000001     I    7825 3039
 SHCORE        2 00000998 00000001     H    4614 2968  3010
 SHCORE1       2 000009B0 00000001     H    4630 4618B
 SHCORE2       2 000009FA 00000001     H    4716 4621B
 SHCT          2 00000922 00000001     H    4463 3091
 SHCT1         2 00000930 00000001     I    4475 4470B
 SHENTRY       4 0000155A 00000001     I    7743 3056
 SHEVENT       2 0000136A 00000001     H    7223 3024
 SHEVN2        2 00001440 00000001     H    7444 7490B
 SHEVN3        2 00001460 00000001     H    7488 7457B
 SHFDO         4 000008BC 00000001     I    4336 3301B 4453B
 SHFILEMA      4 00001616 00000001     I    7827 3041  3089
 SHFILES       4 000015EE 00000001     I    7817 3031
 SHFORMAT      4 0000161E 00000001     I    7829 3043
 SHFPRS        2 0000087A 00000001     H    4214 2974  3014
 SHGBOTH       2 00000700 00000001     I    3803 3791B 3799B
 SHGDO         4 00000702 00000001     I    3806 3282B 3909B
 SHGPRS        2 000006D0 00000001     H    3779 2972  3012
 SHLINK        4 00001552 00000001     I    7741 3054
 SHMAP         2 000010E0 00000001     H    6565 3004
 SHMCOM        2 000011FC 00000001     H    6925 6725B
 SHMCSE        2 0000116E 00000001     H    6734 6720B
 SHMDO         2 000010E6 00000001     H    6573 3389B
 SHMDUM        2 00001214 00000001     H    6963 6726B
 SHMENT        2 000011BE 00000001     H    6845 6723B
 SHMFAFT1      4 000012C6 00000001     I    7106 7137B
 SHMKAFT       4 000012BE 00000001     I    7103 7020
 SHMKCOM       2 000012B2 00000001     H    7075 7016
 SHMKCSE       2 000012A0 00000001     H    7030 7004
 SHMKDUM       2 000012B8 00000001     H    7090 7018
 SHMKENT       2 000012AC 00000001     H    7060 7012  7014
 SHMKFRO       4 000012E2 00000001     I    7125 7022
 SHMKUND       2 000012A6 00000001     H    7045 7006  7008  7010
 SHML          2 00001194 00000001     I    6791 6959B 6999B
 SHMLOOP       4 00001122 00000001     I    6687 6721B 6727B 6728B 6729B 6745B 6803B 6818B 6856B 6912B 6936B 6974B 6981B
 SHMNL         4 0000117A 00000001     I    6766 6921B
 SHMONIT       2 0000148C 00000001     H    7523 3026
 SHMON2        2 000014DC 00000001     H    7608 7654B
 SHMON3        2 000014FC 00000001     H    7652 7621B
 SHMPRI        2 000011E8 00000001     H    6901 6724B
 SHMPTBL       1 00001236 00000001     R    7004 6604
 SHMUND        2 000011A6 00000001     H    6807 6722B 6730B
 SHMWRIT       4 0000119E 00000001     I    6802 6841B 6897B
 SHM1          2 00001116 00000001     H    6679 6649B
 SHOSC         2 000009AC 00000001     H    4625 2970
 SHOSCAD       2 00001084 00000001     H    6457 3000
 SHOW          4 00000014 00000001     I    2404 2402
 SHOWSCAN      4 000001EA 00000001     I    2949 2490B
 SHOZOT        2 0000151C 00000001     H    7671 3087
 SHPDO         4 0000054A 00000001     I    3401 3274B
 SHPDO1        4 00000552 00000001     I    3410 3741B 3775B
 SHPERMIT      4 00001626 00000001     I    7831 3045
 SHPGF         2 00001068 00000001     I    6432 6393B 6414B 6428B
 SHPICM        4 0000069C 00000001     I    3703 3601X 3650X
 SHPROGRA      4 0000162E 00000001     I    7833 3047
 SHPSTCM       4 00000698 00000001     I    3702 3598X 3647X
 SHPSW         2 00000548 00000001     I    3397 2976  3016
 SHREGN        2 0000100A 00000001     H    6318 3002
 SHRET         2 0000004C 00000001     H    2511 2732B 3113B
1VSD      (VSD07) (09:49) (22MAR04) Ordinary Symbol and Literal Cross Reference                                             Page   74
 SHSCP         2 00000960 00000001     H    4539 3093
 SHSEG         2 00000F50 00000001     I    6143 6099B
 SHSEGDF       4 00000FD6 00000001     I    6280 6272B
 SHSEGRS       4 00000FE2 00000001     I    6284 6273B
 SHSEG9        4 00000FEA 00000001     I    6287 6278B 6282B
 SHSGBOTH      2 0000079C 00000001     I    3942 3930B 3938B
 SHSGDO        4 0000079E 00000001     I    3945 3293B 4072B
 SHSGPRS       2 0000076C 00000001     H    3918 2978  2980  2982
 SHSHARE       4 00001636 00000001     I    7835 3049
 SHSLP1        4 00000F78 00000001     I    6178 6300B
 SHSLP2        4 00000F92 00000001     I    6199 6245B
 SHSPDO        2 000006A2 00000001     H    3709 3285B
 SHSPIFIL      4 0000163E 00000001     I    7837 3051
 SHSPSW        2 000006A0 00000001     I    3707 2984  2986
 SHSTAT        2 00000E72 00000001     I    5897 4634B
 SHSTDO        2 00000E74 00000001     H    5899 3304B
 SHSTEND       4 00000F4A 00000001     I    6140 6026B 6119B
 SHTDO         2 00001300 00000001     H    7147 3392B
 SHTIMER       2 0000042E 00000001     H    3121 3018
 SHTLOOP       4 0000130C 00000001     I    7158 7210B
 SHTNX         4 00001350 00000001     I    7209 7160B
 SHTRAPS       2 000012FA 00000001     H    7141 3020  3022
 SHVBLOCK      4 000015C2 00000001     I    7787 3080
 SHVCACHE      4 000015CA 00000001     I    7789 3082
 SHVFILES      4 000015D2 00000001     I    7791 3084
 SHVGROUP      4 0000157A 00000001     I    7762 3063
 SHVINFO       4 000015BA 00000001     I    7785 3078
 SHVREGIO      4 00001572 00000001     I    7760 3061
 SHVSESSI      4 00001592 00000001     I    7768 3069
 SHVSYMBO      4 000015AA 00000001     I    7774 3075
 SHVSYS        4 0000159A 00000001     I    7770 3071
 SHVTIME       4 00001582 00000001     I    7764 3065
 SHVUSERS      4 0000158A 00000001     I    7766 3067
 SHVVERSI      4 000015A2 00000001     I    7772 3073
 SHVVOLUM      4 0000156A 00000001     I    7758 3059
 SR            2 00000002 00000001 A   #    1020 2187  2187  2187  2404  2448M 2456U 2520M 2657M 2664M 3159M 3159  3161M
                                                 3185  3221M 3221  3223M 3247  3280M 3280  3291M 3291  3299M 3299  3343M
                                                 3384M 3542M 3544M 3545  3568M 3568  3569M 3570M 3571  3594M 3594  3595M
                                                 3598  3601  3626M 3628M 3630M 3647  3650  3786M 3786  3792M 3793  3795
                                                 3813  3826  3873  3882M 3894  3904M 3904  3925M 3925  3933M 3952  3965
                                                 4036  4045M 4057  4067M 4067  4080M 4080  4088M 4107  4120  4173  4182M
                                                 4194  4204M 4204  4221M 4221  4237M 4343  4356  4417  4426M 4438  4448M
                                                 4448  4475M 4486M 4503  4526  4566M 4568M 4585  4608  5329M 5346  5408M
                                                 5409M 5443M 5591M 5611  5612  5613M 5630  5707M 5803M 5804M 5805M 5805
                                                 5845  5861  6057M 6063  6097M 6143M 6143  6152M 6174M 6219M 6242M 6242
                                                 6297M 6297  6322M 6332U 6369M 6370M 6387  6397  6469M 6475  6490  6552
                                                 6706M 6717M 6717  6718M 6718  6719B 7132M 7135M 7136  7156M 7209M 7433M
                                                 7434M 7439M 7445M 7552M 7553M 7553  7603M 7609M 7694M 7700  7722
 SRCHABRT      2 00000D64 00000001     H    5647 5478B 5562B
 SYSTEST       2 000000A4 00000001     H    2620 4466B 4542B
 TR            3 00000003 00000001 A   #    1033 2658M 2665M 2669  3122M 3123M 3123  3160M 3167  3202M 3203M 3203  3222M
                                                 3229  3281M 3292M 3300M 3343M 3385M 3629M 3630  3787M 3795M 3800M 3873
                                                 3926M 3934M 3941M 4036  4081M 4089M 4096M 4173  4222M 4238M 4292M 4417
                                                 4487M 4488M 4504  4517M 4527  4569M 4570M 4586  4599M 4609  4913M 4933
                                                 4958  5078M 5082M 5086M 5088  5103M 5103  5105  5325  5335  5407  5409
                                                 5648M 5657  6145M 6154  6164  6185  6199M 6209  6337M 6338M 6347  6418
                                                 6690M 6773  6884  7157M 7210M 7438M 7438  7477  7489M 7602M 7602  7641
                                                 7653M
 TYPEIT        1 00000000 00000002     T    7918 7918
1VSD      (VSD07) (09:49) (22MAR04) Ordinary Symbol and Literal Cross Reference                                             Page   75
 UNREC         2 000000F4 00000001     H    2689 2670B 3685  7024  7104B 7126B
 VSD           1 00000000 00000001     J     994  996  1028  1041  1054  1067  1080  1093  1106  1119  1132  1145  1546
                                                 1869  1945  2180  2378  4372  5101  5118  5439
 VSD#SEG       2 00001754 00000001     H    7884 2543B 2548B 2590B 2674B 2679B 2684B 2706B 2787B 3137B 3155B 3179B 3197B
                                                 3217B 3241B 3259B 3424B 3522B 3536B 3564B 3590B 3644B 3715B 3749B 3807B
                                                 3825B 3913B 3946B 3964B 4101B 4119B 4337B 4355B 4457B 4963B 5235B 5256B
                                                 5340B 5358B 5377B 5398B 5624B 5642B 5651B 5664B 5892B 5947B 5965B 5970B
                                                 5975B 5993B 6011B 6036B 6075B 6137B 6149B 6179B 6197B 6277B 6281B 6285B
                                                 6311B 6321B 6396B 6417B 6448B 6484B 6682B 6767B 6785B 6840B 6878B 6896B
                                                 6920B 6958B 6998B 7216B 7254B 7324B 7343B 7362B 7382B 7394B 7413B 7432B
                                                 7498B 7513B 7557B 7598B 7661B 7666B 7712B 7733B
 VSDMORG       1 00001864 00000001     U    7972 2542  2547  2589  2673  2678  2683  2705  2786  3136  3154  3178  3196
                                                 3216  3240  3258  3423  3521  3535  3563  3589  3643  3714  3748  3806
                                                 3824  3912  3945  3963  4100  4118  4336  4354  4456  4962  5234  5255
                                                 5339  5357  5376  5397  5623  5641  5650  5663  5891  5946  5964  5969
                                                 5974  5992  6010  6035  6074  6136  6148  6178  6196  6276  6280  6284
                                                 6310  6320  6395  6416  6447  6483  6681  6766  6784  6839  6877  6895
                                                 6919  6957  6997  7215  7253  7323  7342  7361  7381  7393  7412  7431
                                                 7497  7512  7556  7597  7660  7665  7711  7732  7892  7893
 VSD07         1 00000000 00000001     R    1003 1001
 VSEG          1 00000000 00000004     T    7920 7920
 VSEGLOC       1 00000000 0000000A     T    7928 7928
 VWRITE        1 00000000 00000003     T    7919 7919
 WA            1 00000000 FFFFFFEA     J    2185 2374  2397U
 WAFL          1 00000030 FFFFFFEA     R    2192 2200  2210  2219  2228  2237  2246  2255  2265  2274  2283  2292  2301
                                                 2311  2438M 2438
 WAFLCOM      32 00000030 FFFFFFEA         2274 6636  6636  6638  6638  6640  6640  6643  6643  6668  6668  6670  6670
                                                 6672  6672  6675  6675  6933  7079M
 WAFLCSE      16 00000030 FFFFFFEA         2283 6637  6637  6638  6638  6641  6641  6644  6644  6669  6669  6670  6670
                                                 6673  6673  6676  6676  6742  6909  7034M
 WAFLDUM       4 00000030 FFFFFFEA         2301 6642  6642  6643  6643  6644  6644  6645  6645  6674  6674  6675  6675
                                                 6676  6676  6677  6677  6971  7094M
 WAFLENT       8 00000030 FFFFFFEA         2292 6639  6639  6640  6640  6641  6641  6645  6645  6671  6671  6672  6672
                                                 6673  6673  6677  6677  6853  7064M
 WAFLFMT     128 00000030 FFFFFFEA         2311 3514  3692M
 WAFLMCH     128 00000030 FFFFFFEA         2210 4754  4874  4891M 4923  5517M 5602  5696  5696  5697M 5839
 WAFLMFND     32 00000030 FFFFFFEA         2228 5510M 5696  5696  5878
 WAFLNOA      16 00000030 FFFFFFEA         2237 4947  5728M
 WAFLNOH       8 00000030 FFFFFFEA         2246 4977  5130  5743M
 WAFLNOT       4 00000030 FFFFFFEA         2255 4533M 5227  5758M
 WAFLREP      64 00000030 FFFFFFEA         2219 4799M 4853  5716M
 WAFLSYS       1 00000030 FFFFFFEA         2200 2477M 2628
 WAFLUND      64 00000030 FFFFFFEA         2265 6636  6636  6637  6637  6639  6639  6642  6642  6646  6668  6668  6669
                                                 6669  6671  6671  6674  6674  6678M 6815  7049M
 WAKIFL        1 00000032 FFFFFFEA     X    2317 2482M 2615
 WAMCHLEN      4 00000040 FFFFFFEA     A    2341 4693M 4761  5845M
 WAMCHSZ       1 00000031 FFFFFFEA     X    2315 5419  5424  5700M
 WAPER         4 00000048 FFFFFFEA     F    2348 7241  7433
 WAPERCD       1 00000048 FFFFFFEA     X    2349 7250  7310  7329  7348  7399  7418
 WAPEREND      4 00000050 FFFFFFEA     A    2353 7368  7383
 WAPERSTR      4 0000004C FFFFFFEA     A    2352 7363
 WAR           8 00000008 00000001 A   #    1098 2397U 2794  2796  2796  2796  2803M 7106  7108  7108  7108  7116M
 WARAR         4 00000028 FFFFFFEA     F    2188 6146M 6306
 WARR          4 0000002C FFFFFFEA     F    2189 5918M 6140
 WASCADDR      4 00000034 FFFFFFEA     A    2338 2370  4619M 4691M 4734  4829  4831  4913  5264M 5324M 5521M 5591  5592M
                                                 6154M 6254  6255M
 WASCEND       4 00000038 FFFFFFEA     F    2339 4830M 4832  5272  5408  5524  5533  5590
 WASCLEN       4 0000003C FFFFFFEA     A    2340 4620M 4692M 4777  5719M 5861M
 WASIZE        1 00000078 FFFFFFEA A   U    2374 2406
1VSD      (VSD07) (09:49) (22MAR04) Ordinary Symbol and Literal Cross Reference                                             Page   76
 WRITE         4 00000182 00000001     I    2827 3265B 3276B 3284B 3287B 3295B 3303B 3332B 3364B 3388B 3391B 3504B 3675B
                                                 3863B 4026B 4163B 4407B 5262B 5400B 5644B 5967B 5972B 6013B 6033B 6077B
                                                 6139B 6151B 6287B 6313B 6450B 6684B 6802B 7208B 7218B
 WRITEXIT      4 0000011C 00000001     I    2752 5893B 6561B 7509B 7514B 7662B 7667B 7734B
 WRIT1         4 0000018A 00000001     I    2832 2824B
 ZSUP          4 000010B2 00000001     I    6509 6522B
 =A(L'SCP)
               4 000017C8 00000001     A    7936 4570
 =A(1)         4 000017C4 00000001     A    7935 4266  4320
 =A(16)        4 000017B8 00000001     A    7932 3793  3801  3894  4057  4194  5263  5499
 =A(256)       4 000017D8 00000001     A    7940 4692
 =A(4096)      4 000017F4 00000001     A    7947 5532  6199
 =A(6)         4 000017C0 00000001     A    7934 4250  4304  4438
 =C'....'      4 000017B0 00000001     C    7930 3599  3648
 =C'('         1 0000184B 00000001     C    7967 7442  7606
 =C','         1 0000184C 00000001     C    7968 7486  7650
 =C'program'
               7 00001844 00000001     C    7966 7273  7576
 =C'Command Processor'
              17 00001833 00000001     C    7965 7257  7560
 =C'FDES'      4 000017AC 00000001     C    7929 3596
 =C'TAWP'      4 000017B4 00000001     C    7931 3645
 =F'10'        4 000017A0 00000001     F    7926 3161  3223
 =F'12'        4 000017E4 00000001     F    7943 4741
 =F'16'        4 000017BC 00000001     F    7933 3931  3939  4086  4094  5326
 =F'4'         4 000017EC 00000001     F    7945 5320  5496
 =V(BTD)       4 00001790 00000001     V    7922 2863
 =V(BTX)       4 00001794 00000001     V    7923 2913  5005  5027  5049  5071  6507
 =V(CLPSYSTM)
               4 00001818 00000001     V    7956 7779
 =V(CLPSYST2)
               4 0000181C 00000001     V    7957 7796
 =V(EVAL)      4 0000178C 00000001     V    7921 2799
 =V(EVHEX)
               4 000017F8 00000001     V    7948 5686
 =V(FILES)
               4 00001820 00000001     V    7958 7810
 =V(FILESHOW)
               4 00001824 00000001     V    7959 7842
 =V(LDFIND)
               4 0000180C 00000001     V    7953 7112
 =V(LDNEXT)
               4 00001808 00000001     V    7952 6687
 =V(LDSET)
               4 00001804 00000001     V    7951 6595
 =V(PROGRAMS)
               4 00001814 00000001     V    7955 7748
 =V(READCORE)
               4 000017E0 00000001     V    7942 4739  4902  5318  5494  5582
 =V(SCAN)      4 0000179C 00000001     V    7925 2959  3420  4711  6614
 =V(SCINIT)
               4 00001800 00000001     V    7950 5798  5827
 =V(SCTELL)
               4 000017FC 00000001     V    7949 5776
 =V(SEGSECS)
               4 00001798 00000001     V    7924 2937
 =V(TYPEIT)
               4 00001780 00000001     V    7918 2726
 =V(VSEG)      4 00001788 00000001     V    7920 2774  2880  2930  7909
1VSD      (VSD07) (09:49) (22MAR04) Ordinary Symbol and Literal Cross Reference                                             Page   77
 =V(VSEGLOC)
               4 000017A8 00000001     V    7928 3500  3859  4022  6558  7188  7366  7386
 =V(VWRITE)
               4 00001784 00000001     V    7919 2752  2832
 =X'FFFFFFFFFFFFFFFF'
               8 00001778 00000001     X    7917 6980
 =X'0FFFFFFF'
               4 000017A4 00000001     X    7927 3476
 =X'0000FFFF'
               4 00001810 00000001     X    7954 7434
 =X'000000'
               3 00001830 00000001     X    7964 7159
 =X'01000000'
               4 000017DC 00000001     X    7941 4693
 =X'7A15'      2 0000182E 00000001     X    7963 7293
 =X'7FFFF000'
               4 000017F0 00000001     X    7946 5530
 =XL4'00FFFFFF'
               4 000017D4 00000001     X    7939 4682
 =XL4'1FFFFFFF'
               4 000017D0 00000001     X    7938 4666
 =XL4'7FFFFFFF'
               4 000017CC 00000001     X    7937 4650
 =XL4'7FFFFFF0'
               4 000017E8 00000001     X    7944 4897
 =Y((14+1-(RAR)+16*((RAR)/(14+1))/((RAR)/(14+1)))*4)
               2 0000182A 00000001     Y    7961 2883  2933
 =Y(4)         2 00001828 00000001     Y    7960 2777  2789  2836  7912
 =Y(8)         2 0000182C 00000001     Y    7962 7103  7125

1VSD      (VSD07) (09:49) (22MAR04) Macro and Copy Code Source Summary                                                      Page   78
- Con Source                                        Volume    Members                        HLASM R4.0  2004/03/22 09.49
0     PRIMARY INPUT                                           BTD      BTX      CSECT    DROP     END      EVAL     EX
                                                              LTORG    POP      PRINT    PRVBLOCK PUSH     SEGDC
                                                              SEGHX    SEGLC    START    SYSONLY  USING
   L2 WYL.GG.SYS.MACLIB                             SYSB05    $BC      $BFLKUP  $BV      $CCLKUP  $CRS     $CSS     $L
                                                              $LA      $LBLAD   $LEXP    $LOR     $REL     $RGLKUP
                                                              $USLKUP  BASE     BEGIN    CLEAR    CSECT    DATA     DECR
                                                              DEFCC    DEX      DROP     ELSE     END      EX       FLAG
                                                              GEN      HIBAL    IDENT    IF       LABEL    LC
                                                              LCALL    LS       LT       LTORG    POP      PRINT    PUSH
                                                              RECORD   REG      REGS     SET      SETMSG   START
                                                              SYSLR    SYSQS    USING    VCALL    WITH
   L3 WYL.GG.ORV.BC.MACLIB                          SYSB02    CLPSERV  CLW      CSD      GENMSGS  LCB      ORVDEFN  SCAN
                                                              SCANCB   SCINIT   SCKW     SCRTN    SCTELL   SEG
                                                              VENTER   VEXIT    VFSHTAB  VGPTAB   VPMTAB   VPOP
                                                              VPUSH    VREST    VSA      VSAVE    VSEG     VSEGLOC
                                                              VSSVTAB  VSSWTAB  VWRITE   XCALL
   L4 WYL.GG.ORV.MACLIB                             SYSB02    KWREC    SCP
   L5 SYS3.ORVYL.UMACLIB                            SYSB02    CALLSYS  SENSE    SYSKWT
   L6 SYS3.IS.MACLIB                                SYSB05    SYSDEFN

1         (VSD07) (09:49) (22MAR04) General Purpose Register Cross Reference                                                Page   79
- Register  References (M=modified, B=branch, U=USING, D=DROP, N=index)                      HLASM R4.0  2004/03/22 09.49
0    0(0)     986U  987D 2446M 2524M 2524  2669M 2888M 3174M 3192M 3236M 3254M 3372M 3437M 3454M 3531M 3531  3560M 3586M
             3619M 3668M 3792  3800  3801  3820M 3841M 3931  3933  3934  3939  3941  3959M 4004M 4086  4088  4089  4094
             4096  4114M 4159M 4237  4238  4250  4266M 4292  4304  4320M 4350M 4386M 4403M 4474M 4474  4475  4484M 4503M
             4504  4517  4526M 4561M 4561  4566  4585M 4586  4599  4608M 4619  4650M 4666M 4682M 4691  4736M 4899M 4995M
             5152M 5172M 5192M 5212M 5252M 5274M 5353M 5371M 5394M 5450M 5518M 5519  5637M 5682M 5699M 5700  5707  5767
             5778  5779M 5803  5806M 5960M 5988M 6006M 6044M 6070M 6085M 6107M 6132M 6159M 6159  6192M 6204M 6204  6268M
             6443M 6443  6469  6479M 6479  6497M 6522M 6691  6716M 6780M 6798M 6891M 7103  7106  7116M 7125  7173M 7204M
             7234M 7258M 7274M 7308M 7443M 7481M 7481  7487M 7534M 7561M 7577M 7607M 7645M 7645  7651M 7682M 7707M 7729M
             7891M 7891  7892M
     1(1)     982U 2542M 2547M 2589M 2668M 2673M 2678M 2683M 2705M 2786M 2860M 2910M 2949M 3136M 3154M 3178M 3196M 3216M
             3240M 3258M 3384  3410M 3423M 3459M 3476M 3493M 3521M 3535M 3545M 3563M 3571M 3589M 3596M 3599M 3602  3612M
             3643M 3645M 3648M 3651  3661M 3702  3703M 3714M 3748M 3806M 3824M 3853M 3854M 3854  3855M 3855  3912M 3945M
             3963M 4016M 4017M 4017  4018M 4018  4100M 4118M 4122M 4132U 4138M 4145U 4152  4336M 4354M 4456M 4486  4527M
             4609M 4620  4701M 4734M 4761M 4777M 4786M 4786  4816M 4816  4823M 4823  4829M 4830  4831M 4832  4897M 4932
             4933  4962M 5002M 5024M 5046M 5068M 5145M 5165M 5185M 5205M 5234M 5245M 5255M 5271M 5272  5324  5325M 5326
             5329  5339M 5357M 5376M 5387M 5397M 5410  5449M 5519M 5520M 5521  5524  5530M 5532M 5533  5590M 5592  5612M
             5613  5623M 5641M 5648  5650M 5663M 5683M 5717M 5718M 5718  5719  5767  5778  5779M 5806M 5891M 5946M 5964M
             5969M 5974M 5992M 6010M 6035M 6056M 6057  6074M 6136M 6145  6148M 6164M 6178M 6196M 6209M 6253  6255  6276M
             6280M 6284M 6310M 6320M 6395M 6416M 6447M 6483M 6504M 6521M 6552M 6553M 6553  6554M 6554  6604M 6681M 6690
             6715M 6766M 6784M 6839M 6877M 6895M 6919M 6957M 6997M 7106  7109M 7116M 7151M 7151  7185M 7211M 7211  7215M
             7241M 7253M 7257M 7273M 7293M 7323M 7342M 7361M 7363M 7368  7381M 7383M 7393M 7412M 7431M 7442M 7486M 7497M
             7503M 7505M 7507M 7508  7512M 7541M 7556M 7560M 7576M 7597M 7606M 7650M 7660M 7665M 7711M 7722M 7732M 7892N
             7893M 7893N
     2(2)     978U 2404  2448M 2520M 2657M 2664M 3159M 3159  3161M 3185  3221M 3221  3223M 3247  3280M 3280  3291M 3291
             3299M 3299  3343M 3384M 3539D 3541M 3541  3542M 3544M 3545N 3568M 3568  3569M 3570M 3571N 3594M 3594  3595M
             3598  3601  3623D 3625M 3625  3626M 3628M 3630M 3647  3650  3786M 3786  3792M 3793  3795  3813  3826  3873
             3882M 3894  3904M 3904  3925M 3925  3933M 3952  3965  4036  4045M 4057  4067M 4067  4080M 4080  4088M 4107
             4120  4173  4182M 4194  4204M 4204  4221M 4221  4237M 4343  4356  4417  4426M 4438  4448M 4448  4475M 4486M
             4503  4526  4566M 4568M 4585  4608  5329M 5346  5408M 5409M 5443M 5591M 5611  5612  5613M 5630  5707M 5803M
             5804M 5805M 5805  5845  5861  6057M 6063  6097M 6143M 6143  6152M 6174M 6219M 6242M 6242  6297M 6297  6322M
             6332U 6345U 6369M 6370M 6387  6397  6469M 6475  6490  6552N 6703D 6705M 6705  6706M 6707U 6717M 6717  6718M
             6718  6719N 7129D 7131M 7131  7132M 7133U 7135M 7136  7156M 7209M 7433M 7434M 7439M 7445M 7552M 7553M 7553
             7603M 7609M 7694M 7700  7722N
     3(3)     974U 2404  2520M 2658M 2665M 2669  3122M 3123M 3123  3160M 3161M 3167  3202M 3203M 3203  3222M 3223M 3229
             3281M 3292M 3300M 3343M 3385M 3544M 3569M 3595M 3629M 3630  3787M 3795M 3800M 3873  3926M 3934M 3941M 4036
             4081M 4089M 4096M 4173  4222M 4238M 4292M 4417  4487M 4488M 4504  4517M 4527  4569M 4570M 4586  4599M 4609
             4913M 4933  4958  5078M 5082M 5086M 5088  5103M 5103N 5105  5325  5335  5407  5409  5648M 5657  6145M 6154
             6164  6185  6199M 6209  6337M 6338M 6347  6418  6690M 6773  6884  7157M 7210M 7438M 7438  7477  7489M 7602M
             7602  7641  7653M
     4(4)     970U 2404  2520M 3402M 3716M 3726U 3732M 3739U 3750M 3760U 3766M 3773U 3828M 3834  3853N 3967M 3977U 3983M
             3990U 3997  4016N 4932M 5078  5263M 5264  5413M 5421M 5445  5498  6252M 6288  6433M 6691M 6791  7155M 7155
             7158M 7166
     5(5)     966U 2404  2520M 3274M 3282M 3285M 3293M 3301M 3304M 3344M 3386M 3389M 3392M 3397M 3680B 3707M 3745M 3803M
             3876B 3942M 4039B 4097M 4176B 4333M 4420B 5897M 5918  6140M 6141B 6175M 6231  6271N 6288M 6314B 6432M 6451B
             6566M 6689B 7145M 7212B 7219B
     6(6)     962U 2404  2422M 2430U 2520M 8162U
     7(7)     958U 2404  2409M 2419U 2490M 2498U 2501U 2520M 2728B 2754B 2834B 3266B 3326B 3393B 3397  3707  3745  3803
             3942  4097  4333  4476B 4567B 4860B 4881B 5885B 5897  6429B 6566  7145  7751B 7782B 7799B 7813B 7845B 8156U
     8(8)     954U 2397U 2404  2405M 2519  2520M 2794  2795M 2802  2803M 7106  7107M 7115  7116M 8150U
     9(9)     950U 2404  2520M 2522B 2540M 2543M 2548M 2590M 2609B 2616B 2631B 2649B 2674M 2679M 2684M 2703M 2706M 2722M
             2726M 2727M 2727B 2748M 2752M 2753M 2753B 2757  2774M 2775M 2775B 2778M 2779B 2783  2787M 2790M 2791B 2794
             2799M 2800M 2800B 2803M 2805B 2808  2823M 2827  2832M 2833M 2833B 2837M 2838B 2841  2880M 2881M 2881B 2884M
             2885B 2891  2930M 2931M 2931B 2934M 2935B 3137M 3155M 3176M 3179M 3194M 3197M 3217M 3238M 3241M 3256M 3259M
             3265M 3273M 3276M 3284M 3287M 3295M 3303M 3332M 3364M 3388M 3391M 3401M 3424M 3439M 3441M 3456M 3458M 3500M
             3501M 3501B 3504M 3522M 3533M 3536M 3561M 3564M 3587M 3590M 3620M 3644M 3669M 3675M 3712M 3715M 3749M 3782M
1         (VSD07) (09:49) (22MAR04) General Purpose Register Cross Reference                                                Page   80
             3790M 3798M 3807M 3822M 3825M 3843M 3845M 3859M 3860M 3860B 3863M 3913M 3921M 3929M 3937M 3946M 3961M 3964M
             4006M 4008M 4022M 4023M 4023B 4026M 4084M 4092M 4101M 4116M 4119M 4161M 4163M 4217M 4225M 4277M 4337M 4352M
             4355M 4388M 4390M 4405M 4407M 4457M 4466M 4469M 4491M 4542M 4545M 4573M 4617M 4633M 4733M 4739M 4740M 4740B
             4902M 4903M 4903B 4960M 4963M 5153M 5155M 5173M 5175M 5193M 5195M 5213M 5235M 5253M 5256M 5262M 5318M 5319M
             5319B 5337M 5340M 5355M 5358M 5373M 5377M 5395M 5398M 5400M 5494M 5495M 5495B 5582M 5583M 5583B 5621M 5624M
             5639M 5642M 5644M 5651M 5659M 5664M 5686M 5687M 5687B 5705M 5802M 5892M 5947M 5962M 5965M 5967M 5970M 5972M
             5975M 5990M 5993M 6008M 6011M 6013M 6033M 6036M 6072M 6075M 6077M 6099M 6134M 6137M 6139M 6144B 6146  6149M
             6151M 6179M 6194M 6197M 6270M 6277M 6281M 6285M 6287M 6306M 6307B 6311M 6313M 6321M 6393M 6396M 6414M 6417M
             6428M 6432  6445M 6448M 6450M 6463M 6468M 6481M 6484M 6540M 6542M 6558M 6559M 6559B 6569M 6595M 6596M 6596B
             6682M 6684M 6687M 6688M 6688B 6764M 6767M 6782M 6785M 6800M 6802M 6837M 6840M 6875M 6878M 6893M 6896M 6920M
             6955M 6958M 6995M 6998M 7106  7112M 7113M 7113B 7116M 7144M 7175M 7177M 7188M 7189M 7189B 7192M 7206M 7208M
             7216M 7218M 7226M 7254M 7292M 7309M 7324M 7343M 7362M 7366M 7367M 7367B 7382M 7386M 7387M 7387B 7394M 7413M
             7432M 7471M 7483M 7498M 7513M 7526M 7557M 7595M 7598M 7635M 7647M 7661M 7666M 7674M 7709M 7712M 7730M 7733M
             7748M 7749M 7749B 7779M 7780M 7780B 7796M 7797M 7797B 7810M 7811M 7811B 7842M 7843M 7843B 7886  7909M 7910M
             7910B 7913M 7914B
    10(A)     946U 2388U 2404  2520M 2841  2884M 2891  2934M 7106  7116M
    11(B)     942U 2404  2520M 2841  2884M 2891  2934M 3333M 3341U 5942M 6366M 6590M 7106  7116M
    12(C)     938U 2841  2884M 2891  2934M 7106  7116M
    13(D)     934U 2404  2405  2406M 2406  2519M 2520  2757  2758M 2758  2777M 2778  2783  2784M 2784  2789M 2790  2794
             2795  2796M 2796  2802M 2803  2808  2809M 2809  2827  2828M 2828  2836M 2837  2841  2841  2842M 2842  2883M
             2884M 2884  2891  2891  2892M 2892  2933M 2934M 2934  7106  7106  7107  7108M 7108  7115M 7116M 7116  7886
             7887M 7887  7912M 7913
    14(E)     930U 2841  2863M 2864M 2864B 2884M 2891  2913M 2914M 2914B 2934M 2959M 2960M 2960B 3420M 3421M 3421B 3699B
             4711M 4712M 4712B 5005M 5006M 5006B 5027M 5028M 5028B 5049M 5050M 5050B 5071M 5072M 5072B 5275M 5285U 5314U
             5416D 5418M 5418  5419M 5420U 5421  5424M 5426  5451M 5461U 5490U 5735B 5750B 5765B 5776M 5777M 5777B 5798M
             5799M 5799B 5827M 5828M 5828B 6507M 6508M 6508B 6614M 6615M 6615B 7041B 7056B 7071B 7086B 7101B 7106  7116M
             7123B
    15(F)     926U 2508M 2508  2521M 2521  2731M 2937M 2938B 2956M 3105M 3167M 3185M 3229M 3247M 3385  3417M 3430M 3447M
             3527M 3813M 3826M 3827M 3828N 3834M 3952M 3965M 3966M 3983N 3997M 4107M 4120M 4121M 4138N 4152M 4343M 4356M
             4357M 4359  4379M 4396M 4488  4708M 4735M 4741  4898M 4904N 4958M 4988M 5012M 5034M 5056M 5270M 5271  5320
             5335M 5346M 5364M 5407M 5410M 5411M 5411N 5442M 5445  5448M 5449  5496  5498M 5499M 5520  5535M 5545U 5574U
             5579M 5579  5584N 5611M 5630M 5657M 5824M 5953M 5981M 5999M 6056  6063M 6097  6175  6185M 6231  6252  6253M
             6254M 6347M 6387M 6397M 6418M 6433  6434M 6475M 6490M 6611M 6699U 6713U 6715  6773M 6791M 6884M 7106  7116M
             7166M 7197M 7259M 7259  7477M 7562M 7562  7641M 7694  7700M 7741M 7743M 7758M 7760M 7762M 7764M 7766M 7768M
             7770M 7772M 7774M 7785M 7787M 7789M 7791M 7817M 7819M 7821M 7823M 7825M 7827M 7829M 7831M 7833M 7835M 7837M

1VSD      (VSD07) (09:49) (22MAR04) Diagnostic Cross Reference and Assembler Summary                                        Page   81
-                                                                                            HLASM R4.0  2004/03/22 09.49
0     No Statements Flagged in this Assembly
 HIGH LEVEL ASSEMBLER, 5696-234, RELEASE 4.0, PTF UQ57391
0SYSTEM: OS/390 02.10.00            JOBNAME: PJG#VSD     STEPNAME: ASM        PROCSTEP: (NOPROC)
0Datasets Allocated for this Assembly
  Con DDname   Dataset Name                                 Volume  Member
   P1 SYSIN    SYS04082.T094928.RA000.PJG#VSD.INPUT.H01     SCR100
   L1 SYSLIB   SYS3.DUMMYMAC                                SYSB02
   L2          WYL.GG.SYS.MACLIB                            SYSB05
   L3          WYL.GG.ORV.BC.MACLIB                         SYSB02
   L4          WYL.GG.ORV.MACLIB                            SYSB02
   L5          SYS3.ORVYL.UMACLIB                           SYSB02
   L6          SYS3.IS.MACLIB                               SYSB05
      SYSLIN   WYL.GG.PJG.OBJ                               SYSB05  VSD
      SYSPRINT SYS04082.T094928.RA000.PJG#VSD.PRINT.H01     SCR100
      SYSTERM  GG$PJG.PJG#VSD.JOB06004.D0000103.?

    7812K allocated to Buffer Pool,         1261K would be required for this to be an In-Storage Assembly
    1512 Primary Input Records Read         4703 Library Records Read                  0 Work File Reads
       0 ASMAOPT Records Read               5315 Primary Print Records Written         0 Work File Writes
     175 Punch Records Written                 0 ADATA Records Written
0Assembly Start Time: 09.49.29 Stop Time: 09.49.32 Processor Time: 00.00.01.7075
 Return Code 000
