1                        J E S 2  J O B  L O G  --  S Y S T E M  S Y S B  --  N O D E  R L G
0
 09.49.04 JOB05997 ---- MONDAY,    22 MAR 2004 ----
 09.49.04 JOB05997  ICH70001I GG$PJG   LAST ACCESS AT 09:48:55 ON MONDAY, MARCH 22, 2004
 09.49.04 JOB05997  $HASP373 PJG#VPM  STARTED - INIT 2    - CLASS E - SYS SYSB
 09.49.04 JOB05997  ***  HCMD      STEP $$QUIET
 09.49.04 JOB05997  PURGE * Q=OUTPUT MULTIPLE
 09.49.04 JOB05997  JOB PJG#VPM NOT IN OUTPUT QUEUE
 09.49.05 JOB05997  PJG#VPM .$$QUIET .         RC=0008 TapeIO=0000 DiskIO=0000 CPU=  .01s Elapsed=44.01s
 09.49.05 JOB05997  PJG#VPM .$CND    .         RC=Zero TapeIO=0000 DiskIO=0002 CPU=  .01s Elapsed=45.05s
 09.49.05 JOB05997  PJG#VPM .$UNP    .         RC=Zero TapeIO=0000 DiskIO=0039 CPU=  .06s Elapsed=45.24s
 09.49.15 JOB05997  PJG#VPM .ASM     .         RC=Zero TapeIO=0000 DiskIO=0513 CPU= 3.40s Elapsed=45.59s
 09.49.17 JOB05997  PJG#VPM .$EDIT   .         RC=Zero TapeIO=0000 DiskIO=0200 CPU=  .78s Elapsed=55.47s
 09.49.17 JOB05997  PJG#VPM  Ended.  Name=Module: VPM                    Total CPU= 4.26s Elapsed=44.01s
 09.49.17 JOB05997
 09.49.17 JOB05997  Execution charges   Priority=Standard   Block=Day
 09.49.17 JOB05997
 09.49.17 JOB05997  CPU Usage          78.37          $48.58   Standard Processing Unit Equivalent
 09.49.17 JOB05997                                   =======
 09.49.17 JOB05997                                    $48.58   Total Job execution charge
 09.49.17 JOB05997
 09.49.17 JOB05997  See back separator page for print charges
 09.49.17 JOB05997
 09.49.17 JOB05997  $HASP395 PJG#VPM  ENDED  ASM=0
1        1 //PJG#VPM  JOB PJG$GG,'Module: VPM',TIME=1,MSGCLASS=C                   JOB05997
           /*JOBPARM HOLD=OUTPUT,LINES=50,CHARS=TN15,NOTIFY=YES
         2 //       EXEC PURGEOLD
         3 XXPURGEOLD PROC
           XX*
           XX* This proc is maintained by Jim Stosick
           XX*
         4 XX$$QUIET  EXEC PGM=HCMDX,PARM='PURGE * Q=OUTPUT MULTIPLE',
           XX         ACCT=(PURGEOLD,SYS3)
         5 //$CND   EXEC PGM=BILBO,REGION=512K,PARM='RECS=100'
         6 //STEPLIB  DD DSN=WYL.GG.ORV.LINKLIB,DISP=SHR
         7 //SYSPRINT DD SYSOUT=$
         8 //SYSUT1   DD DSN=WYL.GG.PJG.OBJ,DISP=OLD
         9 //SYSUT2   DD DSN=WYL.GG.PJG.OBJ,DISP=OLD
        10 //SYSIN    DD DUMMY
        11 //$UNP   EXEC PGM=WUNPRESS,PARM='NUM'
        12 //SYSPRINT DD SYSOUT=$
        13 //SYSUT1   DD DSN=WYL.GG.ORV.SOURCE(VPM),DISP=SHR
        14 //SYSUT2   DD DSN=&&INPUT,DISP=(,PASS),UNIT=SYSDA,
           //            SPACE=(TRK,(25,25),RLSE),DCB=CARD
        15 //ASM    EXEC PGM=ASMA90,REGION=8M,COND=(0,NE,$UNP),
           //            PARM=('SYSPARM(VPM),TERM,LANG(EN),OBJ',
           //          'LC(32500),XREF(SHORT),NODECK,NORLD,NODX,NOUS')
           //*STEPLIB  DD DSN=SYS1.SASMMOD1,DISP=SHR
        16 //SYSLIB   DD DSN=SYS3.DUMMYMAC,DISP=SHR,DCB=BLKSIZE=27920
        17 //         DD DSN=WYL.GG.SYS.MACLIB,DISP=SHR
        18 //         DD DSN=WYL.GG.ORV.BC.MACLIB,DISP=SHR
        19 //         DD DSN=WYL.GG.ORV.MACLIB,DISP=SHR
        20 //         DD DSN=SYS3.ORVYL.UMACLIB,DISP=SHR
        21 //         DD DSN=SYS3.IS.MACLIB,DISP=SHR
        22 //SYSUT1   DD DSN=&&SYSUT1,UNIT=VIO,DISP=(,DELETE),
           //            SPACE=(4088,(500,250),,CONTIG,ROUND)
        23 //SYSTERM  DD SYSOUT=$
        24 //SYSPRINT DD DSN=&&PRINT,UNIT=SYSDA,DISP=(,PASS),
           //            SPACE=(6650,(250,250),RLSE),
           //            DCB=(BLKSIZE=6650,LRECL=133,RECFM=FB)
        25 //SYSLIN   DD DSN=WYL.GG.PJG.OBJ(VPM),DISP=OLD
        26 //SYSUDUMP DD SYSOUT=A
        27 //SYSIN    DD DSN=&&INPUT,DISP=(OLD,DELETE)
        28 //$EDIT  EXEC PGM=ASMEDIT,REGION=1M,
           //            COND=EVEN,PARM='STMT,DATA'
        29 //STEPLIB  DD DSN=WYL.GG.SYS.LINKLIB,DISP=SHR
        30 //ASMOUT   DD DSN=&&PRINT,DISP=(OLD,DELETE)
        31 //SYSPRINT DD SYSOUT=A
        32 //SYSUDUMP DD SYSOUT=A
1 STMT NO. MESSAGE
         2 IEFC001I PROCEDURE PURGEOLD WAS EXPANDED USING SYSTEM LIBRARY SYS3.BETAPROC
        14 IGD01010I STORCLAS= TEMP STORGROUP =
        14 IGD01010I STORGRP=VIO ASSIGNED.
        22 IGD01010I STORCLAS= TEMP STORGROUP =
        22 IGD01010I STORGRP=VIO ASSIGNED.
        24 IGD01010I STORCLAS= TEMP STORGROUP =
        24 IGD01010I STORGRP=VIO ASSIGNED.
 ICH70001I GG$PJG   LAST ACCESS AT 09:48:55 ON MONDAY, MARCH 22, 2004
 IEF142I PJG#VPM $$QUIET - STEP WAS EXECUTED - COND CODE 0008
 *********************************************************************************
 *   PJG#VPM /$$QUIET /                    Return Code      0008                 *
 *   Region used      260K (16K user + 244K system)                              *
 *   Extended region  9352K (4K user + 9348K system)                             *
 *                                                                               *
 *   Paging              In      Out                                             *
 *   Private <-> Aux      0        0       CPU time (TCB)   00:00:00.01          *
 *   Private <-> Exp      0        0       CPU time (SRB)   00:00:00.00          *
 *   VIO                  0        0       Elapsed time    920:38:48.95          *
 *   Common               0      ---                                             *
 *                                                                               *
 *                                                                               *
 *   CPU Usage          0.18         $0.11  Standard Processing Unit Equivalent  *
 *                                   $0.11  Total Step execution charge          *
 *                                                                               *
 *    I/O count  DDname   Type Addr           I/O count  DDname   Type Addr      *
 *                         *** No I/O for this step ***                          *
 *********************************************************************************
 IEF373I STEP/$$QUIET /START 2004082.0949
 IEF374I STEP/$$QUIET /STOP  2004082.0949 CPU    0MIN 00.01SEC SRB    0MIN 00.00SEC VIRT    16K SYS   244K EXT       4K SYS    9348K
 IEF236I ALLOC. FOR PJG#VPM $CND
 IEF237I 0401 ALLOCATED TO STEPLIB
 IEF237I JES2 ALLOCATED TO SYSPRINT
 IEF237I 04DC ALLOCATED TO SYSUT1
 IEF237I 04DC ALLOCATED TO SYSUT2
 IEF237I DMY  ALLOCATED TO SYSIN
 IEF142I PJG#VPM $CND - STEP WAS EXECUTED - COND CODE 0000
 IEF285I   WYL.GG.ORV.LINKLIB                           KEPT
 IEF285I   VOL SER NOS= SYSB01.
 IEF285I   GG$PJG.PJG#VPM.JOB05997.D0000101.?           SYSOUT
 IEF285I   WYL.GG.PJG.OBJ                               KEPT
 IEF285I   VOL SER NOS= SYSB05.
 IEF285I   WYL.GG.PJG.OBJ                               KEPT
 IEF285I   VOL SER NOS= SYSB05.
 *********************************************************************************
 *   PJG#VPM /$CND    /                    Return Code      Zero                 *
 *   Region used      280K (16K user + 264K system)                              *
 *   Extended region  9392K (4K user + 9388K system)                             *
 *                                                                               *
 *   Paging              In      Out                                             *
 *   Private <-> Aux      0        0       CPU time (TCB)   00:00:00.01          *
 *   Private <-> Exp      0        0       CPU time (SRB)   00:00:00.00          *
 *   VIO                  0        0       Elapsed time    920:38:47.91          *
 *   Common               0      ---                                             *
 *                                                                               *
 *                                                                               *
 *   CPU Usage          0.18         $0.11  Standard Processing Unit Equivalent  *
 *                                   $0.11  Total Step execution charge          *
 *                                                                               *
 *    I/O count  DDname   Type Addr           I/O count  DDname   Type Addr      *
 *            2  STEPLIB  Disk 0401                   0  SYSPRINT      ----      *
 *            0  SYSUT1   Disk 04DC                   0  SYSUT2   Disk 04DC      *
 *            0  SYSIN         ----                                              *
 *********************************************************************************
 IEF373I STEP/$CND    /START 2004082.0949
 IEF374I STEP/$CND    /STOP  2004082.0949 CPU    0MIN 00.01SEC SRB    0MIN 00.00SEC VIRT    16K SYS   264K EXT       4K SYS    9388K
 IEF236I ALLOC. FOR PJG#VPM $UNP
 IEF237I JES2 ALLOCATED TO SYSPRINT
 IEF237I 0402 ALLOCATED TO SYSUT1
 IGD101I SMS ALLOCATED TO DDNAME (SYSUT2  )
         DSN (SYS04082.T094903.RA000.PJG#VPM.INPUT.H01    )
         STORCLAS (TEMP) MGMTCLAS (        ) DATACLAS (        )
         VOL SER NOS= SCR101
 IEF142I PJG#VPM $UNP - STEP WAS EXECUTED - COND CODE 0000
 IEF285I   GG$PJG.PJG#VPM.JOB05997.D0000102.?           SYSOUT
 IEF285I   WYL.GG.ORV.SOURCE                            KEPT
 IEF285I   VOL SER NOS= SYSB02.
 IGD106I SYS04082.T094903.RA000.PJG#VPM.INPUT.H01     PASSED,    DDNAME=SYSUT2
 *********************************************************************************
 *   PJG#VPM /$UNP    /                    Return Code      Zero                 *
 *   Region used      388K (108K user + 280K system)                             *
 *   Extended region  9468K (4K user + 9464K system)                             *
 *                                                                               *
 *   Paging              In      Out                                             *
 *   Private <-> Aux      0        0       CPU time (TCB)   00:00:00.06          *
 *   Private <-> Exp      0        0       CPU time (SRB)   00:00:00.00          *
 *   VIO                  0        0       Elapsed time    920:38:47.72          *
 *   Common               0      ---                                             *
 *                                                                               *
 *                                                                               *
 *   CPU Usage          1.12         $0.69  Standard Processing Unit Equivalent  *
 *                                   $0.69  Total Step execution charge          *
 *                                                                               *
 *    I/O count  DDname   Type Addr           I/O count  DDname   Type Addr      *
 *            0  SYSPRINT      ----                   4  SYSUT1   Disk 0402      *
 *           35  SYSUT2   Disk 04E3                                              *
 *********************************************************************************
 IEF373I STEP/$UNP    /START 2004082.0949
 IEF374I STEP/$UNP    /STOP  2004082.0949 CPU    0MIN 00.06SEC SRB    0MIN 00.00SEC VIRT   108K SYS   280K EXT       4K SYS    9464K
 IEF236I ALLOC. FOR PJG#VPM ASM
 IEF237I 0402 ALLOCATED TO SYSLIB
 IEF237I 04DC ALLOCATED TO
 IEF237I 0402 ALLOCATED TO
 IEF237I 0402 ALLOCATED TO
 IEF237I 0402 ALLOCATED TO
 IEF237I 04DC ALLOCATED TO
 IGD101I SMS ALLOCATED TO DDNAME (SYSUT1  )
         DSN (SYS04082.T094903.RA000.PJG#VPM.SYSUT1.H01   )
         STORCLAS (TEMP) MGMTCLAS (        ) DATACLAS (        )
         VOL SER NOS= VIO
 IEF237I JES2 ALLOCATED TO SYSTERM
 IGD101I SMS ALLOCATED TO DDNAME (SYSPRINT)
         DSN (SYS04082.T094903.RA000.PJG#VPM.PRINT.H01    )
         STORCLAS (TEMP) MGMTCLAS (        ) DATACLAS (        )
         VOL SER NOS= SCR101
 IEF237I 04DC ALLOCATED TO SYSLIN
 IEF237I JES2 ALLOCATED TO SYSUDUMP
 IGD103I SMS ALLOCATED TO DDNAME SYSIN
 IEF142I PJG#VPM ASM - STEP WAS EXECUTED - COND CODE 0000
 IEF285I   SYS3.DUMMYMAC                                KEPT
 IEF285I   VOL SER NOS= SYSB02.
 IEF285I   WYL.GG.SYS.MACLIB                            KEPT
 IEF285I   VOL SER NOS= SYSB05.
 IEF285I   WYL.GG.ORV.BC.MACLIB                         KEPT
 IEF285I   VOL SER NOS= SYSB02.
 IEF285I   WYL.GG.ORV.MACLIB                            KEPT
 IEF285I   VOL SER NOS= SYSB02.
 IEF285I   SYS3.ORVYL.UMACLIB                           KEPT
 IEF285I   VOL SER NOS= SYSB02.
 IEF285I   SYS3.IS.MACLIB                               KEPT
 IEF285I   VOL SER NOS= SYSB05.
 IGD105I SYS04082.T094903.RA000.PJG#VPM.SYSUT1.H01    DELETED,   DDNAME=SYSUT1
 IEF285I   GG$PJG.PJG#VPM.JOB05997.D0000103.?           SYSOUT
 IGD106I SYS04082.T094903.RA000.PJG#VPM.PRINT.H01     PASSED,    DDNAME=SYSPRINT
 IEF285I   WYL.GG.PJG.OBJ                               KEPT
 IEF285I   VOL SER NOS= SYSB05.
 IEF285I   GG$PJG.PJG#VPM.JOB05997.D0000104.?           SYSOUT
 IGD105I SYS04082.T094903.RA000.PJG#VPM.INPUT.H01     DELETED,   DDNAME=SYSIN
 *********************************************************************************
 *   PJG#VPM /ASM     /                    Return Code      Zero                 *
 *   Region used      8484K (8192K user + 292K system)                           *
 *   Extended region  9952K (412K user + 9540K system)                           *
 *                                                                               *
 *   Paging              In      Out                                             *
 *   Private <-> Aux      0        0       CPU time (TCB)   00:00:03.34          *
 *   Private <-> Exp      0        0       CPU time (SRB)   00:00:00.06          *
 *   VIO                  0        0       Elapsed time    920:38:47.37          *
 *   Common               0      ---                                             *
 *                                                                               *
 *                                                                               *
 *   CPU Usage         62.62        $38.82  Standard Processing Unit Equivalent  *
 *                                  $38.82  Total Step execution charge          *
 *                                                                               *
 *    I/O count  DDname   Type Addr           I/O count  DDname   Type Addr      *
 *          121  SYSLIB   Disk 0402                 151  SYSLIB   Disk 04DC      *
 *            0  SYSLIB   Disk 0402                   0  SYSLIB   Disk 0402      *
 *            0  SYSLIB   Disk 0402                   0  SYSLIB   Disk 04DC      *
 *            0  SYSUT1   VIO  ----                   0  SYSTERM       ----      *
 *          197  SYSPRINT Disk 04E3                   8  SYSLIN   Disk 04DC      *
 *            0  SYSUDUMP      ----                  36  SYSIN    Disk 04E3      *
 *********************************************************************************
 IEF373I STEP/ASM     /START 2004082.0949
 IEF374I STEP/ASM     /STOP  2004082.0949 CPU    0MIN 03.34SEC SRB    0MIN 00.06SEC VIRT  8192K SYS   292K EXT     412K SYS    9540K
 IEF236I ALLOC. FOR PJG#VPM $EDIT
 IEF237I 0402 ALLOCATED TO STEPLIB
 IGD103I SMS ALLOCATED TO DDNAME ASMOUT
 IEF237I JES2 ALLOCATED TO SYSPRINT
 IEF237I JES2 ALLOCATED TO SYSUDUMP
 IEF142I PJG#VPM $EDIT - STEP WAS EXECUTED - COND CODE 0000
 IEF285I   WYL.GG.SYS.LINKLIB                           KEPT
 IEF285I   VOL SER NOS= SYSB02.
 IGD105I SYS04082.T094903.RA000.PJG#VPM.PRINT.H01     DELETED,   DDNAME=ASMOUT
 IEF285I   GG$PJG.PJG#VPM.JOB05997.D0000105.?           SYSOUT
 IEF285I   GG$PJG.PJG#VPM.JOB05997.D0000106.?           SYSOUT
 *********************************************************************************
 *   PJG#VPM /$EDIT   /                    Return Code      Zero                 *
 *   Region used      388K (116K user + 272K system)                             *
 *   Extended region  9472K (4K user + 9468K system)                             *
 *                                                                               *
 *   Paging              In      Out                                             *
 *   Private <-> Aux      0        0       CPU time (TCB)   00:00:00.76          *
 *   Private <-> Exp      0        0       CPU time (SRB)   00:00:00.02          *
 *   VIO                  0        0       Elapsed time    920:38:37.49          *
 *   Common               0      ---                                             *
 *                                                                               *
 *                                                                               *
 *   CPU Usage         14.25         $8.83  Standard Processing Unit Equivalent  *
 *                                   $8.83  Total Step execution charge          *
 *                                                                               *
 *    I/O count  DDname   Type Addr           I/O count  DDname   Type Addr      *
 *            2  STEPLIB  Disk 0402                 198  ASMOUT   Disk 04E3      *
 *            0  SYSPRINT      ----                   0  SYSUDUMP      ----      *
 *********************************************************************************
 IEF373I STEP/$EDIT   /START 2004082.0949
 IEF374I STEP/$EDIT   /STOP  2004082.0949 CPU    0MIN 00.76SEC SRB    0MIN 00.02SEC VIRT   116K SYS   272K EXT       4K SYS    9468K
 *********************************************************************************
 *                                                                               *
 *                      S t a n f o r d   U n i v e r s i t y                    *
 *                                                                               *
 *                              *** Job Summary ***                              *
 *                                                                               *
 *   System Id      SYSB                   Input time     09:38:40  Mar 22, 2004 *
 *                                                                               *
 *   System Release SP6.1.0                Start time     09:49:04  Mar 22, 2004 *
 *                                                                               *
 *   Job name       PJG#VPM                Stop  time     00:00:00  Mar 22, 2004 *
 *                                                                               *
 *   Account        PJG$GG                 Elapsed time  920:38:48.95            *
 *                                                                               *
 *   User Name      Module: VPM            CPU time       00:00:04.18            *
 *                                                                               *
 *   Job class      E                      SRB Time       00:00:00.08            *
 *                                                                               *
 *********************************************************************************
 IEF375I  JOB/PJG#VPM /START 2004082.0949
 IEF376I  JOB/PJG#VPM /STOP  2004082.0949 CPU    0MIN 04.18SEC SRB    0MIN 00.08SEC
1Data set successfully converted from EDIT to FB format
1Assembler Done VPM No Statements Flagged
1         High Level Assembler Option Summary                   (PTF UQ57391)                                               Page    1
-                                                                                            HLASM R4.0  2004/03/22 09.49
0  No Overriding ASMAOPT Parameters
   Overriding Parameters-  SYSPARM(VPM),TERM,LANG(EN),OBJ,LC(32500),XREF(SHORT),NODECK,NORLD,NODX,NOUS
   No Process Statements


   Options for this Assembly
0  NOADATA
     ALIGN
   NOASA
     BATCH
     CODEPAGE(047C)
   NOCOMPAT
   NODBCS
 3 NODECK
 3 NODXREF
     ESD
   NOEXIT
     FLAG(0,ALIGN,CONT,NOIMPLEN,NOPAGE0,PUSH,RECORD,NOSUBSTR,USING0)
   NOFOLD
   NOGOFF
   NOINFO
 3   LANGUAGE(EN)
   NOLIBMAC
 3   LINECOUNT(32500)
     LIST(121)
     MXREF(SOURCE)
 3   OBJECT
     OPTABLE(UNI,NOLIST)
   NOPCONTROL
   NOPESTOP
   NOPROFILE
   NORA2
   NORENT
 3 NORLD
     RXREF
     SIZE(MAX)
 3   SYSPARM(VPM)
 3   TERM(WIDE)
   NOTEST
     THREAD
   NOTRANSLATE
 3 NOUSING
 3   XREF(SHORT)

   No Overriding DD Names

1VPM      External Symbol Dictionary                                                                                        Page    2
-Symbol   Type   Id     Address  Length     LD ID  Flags Alias-of                            HLASM R4.0  2004/03/22 09.49
0VPM       SD 00000001 00000000 00002F20             00
 VPM00     LD          00000000           00000001
 PROGRAMS  LD          00000014           00000001
 GETCLW    ER 00000002
 VSEG      ER 00000003
 TYPEIT    ER 00000004
 CLRLP     ER 00000005
 CLEANUP   ER 00000006
 FREECLW   ER 00000007
 PLCOFERR  ER 00000008
 SCAN      ER 00000009
 UNPRS     ER 0000000A
 POPLNKST  ER 0000000B
 GETLINE   ER 0000000C
 SCINIT    ER 0000000D
 CHKATTN   ER 0000000E
 LDGO      ER 0000000F
 VWRITE    ER 00000010
 LDALIAS   ER 00000011
 LDCHANGE  ER 00000012
 SCTELL    ER 00000013
 LDFIND    ER 00000014
 BTX       ER 00000015
 LDSET     ER 00000016
 LDNEXT    ER 00000017
 LDMOINIT  ER 00000018
 LDMOGO    ER 00000019
 LDPAGE    ER 0000001A
 DTB       ER 0000001B
 LDREPDEL  ER 0000001C
 XTB       ER 0000001D
 EVHEX     ER 0000001E
 SETPUB    ER 0000001F
 LDMIINIT  ER 00000020
 LDMIGO    ER 00000021
 LDFIX     ER 00000022
 READCORE  ER 00000023
 RITECORE  ER 00000024
 EVAL      ER 00000025
 VREAD     ER 00000026
 LDINIT    ER 00000027
 DQSCAN    ER 00000028
 FSUB#COM  ER 00000029
 KWFNOPT   ER 0000002A
 QUIET     ER 0000002B
 GOTNKWR   ER 0000002C
 OSOPTS    ER 0000002D
 LDMSG     LD          000028A0           00000001
 PLCOFERR  LD          00002936           00000001
 CLEANUP   LD          00002A1E           00000001
 CLRLP     LD          00002C7E           00000001
 GETLINE   LD          00002CC0           00000001
 POPLNKST  LD          00002E56           00000001
 BTR       ER 0000002E
 STOPMON   ER 0000002F
1VPM      External Symbol Dictionary                                                                                        Page    3
 CLRIDTS   ER 00000030
 CLRENQS   ER 00000031
 CLEANTRP  ER 00000032

1VPM      ORVYL'S PROGRAM MANAGER                                                                                           Page    4
0Loc    Object Code    Addr1 Addr2  Stmt Lv Lineno    Source Statement                    (Asmedit 3.3)  HLASM R4.0  2004/03/22 09.49
+___    ______ ____    _____ _____  ____ __ ______    ______ _________
0                                      2       2.     ********************************************************************
                                       3       3.     *                                                                  *
                                       4       4.     *       ORVYL/370  RELEASE III - CLASS I - STANFORD PROPRIETARY    *
                                       5       5.     *                                                                  *
                                       6       6.     ********************************************************************
-                                      8       8.              HIBAL ,
-                                    990      10.     * MODIFICATIONS
                                     991      11.     *
1VPM      ORVYL'S PROGRAM MANAGER                                                                                           Page    5
0D-Loc  Object Code    Addr1 Addr2  Stmt Lv Lineno    Source Statement           (Hibal 5, Asmedit 3.3)  HLASM R4.0  2004/03/22 09.49
+_____  ______ ____    _____ _____  ____ __ ______    ______ _________
0000000                00000 02F20   993      13.     VPM      CSECT ,
                                     997      14.              IDENT 00
                                    1000             +
                                    1001    01-IDENT +         ENTRY VPM00
                                    1002             +
 000000 13E5D7D4F0F06BF2            1003    01-IDENT +VPM00    DC    AL1(19),C'VPM00,22MAR04,09:49'
                                    1004             +*
-                                   1007      16.              COPY  ORVDEFN
                                    1008             =         SYSDEFN  ,
                                    1009             =         GBLB  &PROTECT
                                    1010             =         GBLC  &MODULE
                                    1011      17.     &MODULE  SETC  'VPM'
-
                                    1013      19.              REGS  ,,SR,TR,QR,FSUBR,BRR,BR,WAR,RAR,CLWR,LCBR,GPWR
1VPM      (VPM00) (09:49) (22MAR04) ORVYL'S PROGRAM MANAGER                                                                 Page    6
0Loc    Object Code    Addr1 Addr2  Stmt Lv Lineno    Source Statement           (Hibal 5, Asmedit 3.3)  HLASM R4.0  2004/03/22 09.49
+___    ______ ____    _____ _____  ____ __ ______    ______ _________
0                                   1164      21.              MACRO
                                    1165      22.     &L       BTX   &LOC,&LEN,&WORD
                                    1166      23.     &L       SYSLR 15,&WORD,OP=L
                                    1167      24.              SYSLR 0,&LEN
                                    1168      25.              SYSLR 1,&LOC
                                    1169      26.              XCALL BTX
                                    1170      27.              MEND
                                    1171      28.
                                    1172      29.              MACRO ,
                                    1173      30.     &LABEL   LSCAN &GETADC,&SAME       SO WE CAN PUT SCKWS AT END
                                    1174      31.     &LABEL   L     R1,=A(&GETADC)
                                    1175      32.              SCAN  (1),&SAME
                                    1176      33.              MEND
1VPM      (VPM00) (09:49) (22MAR04) ORVYL'S PROGRAM MANAGER                                                                 Page    7
0Loc    Object Code    Addr1 Addr2  Stmt Lv Lineno    Source Statement           (Hibal 5, Asmedit 3.3)  HLASM R4.0  2004/03/22 09.49
+___    ______ ____    _____ _____  ____ __ ______    ______ _________
0                                   1179      36.              COPY  WYLMDWD
                                    1180             =*
                                    1181             =*   EQUS FOR VALUES IN WYLBUR MODE WORD - LOW ORDER BYTE
                                    1182             =*
                                    1183             =WPREST   EQU   X'01',,C'N'              RETURN DATA IN PREST FORMAT
                                    1184             =WNFORM   EQU   X'02',,C'N'              INFORM OF WDS CHANGES (RE)
                                    1185             =WPRHBT   EQU   X'04',,C'N'              PROHIBIT WDS CHANGES (RE)
                                    1186             =WNNUMB   EQU   X'08',,C'N'              NUMBER COMMAND INVALID
                                    1187             =WNALGN   EQU   X'10',,C'N'              ALIGN,JUSTIFY,CENTER INVALID
                                    1188             =WSSBRK   EQU   X'20',,C'N'              PROHIBIT SESS BREAK WDS CHGS
1VPM      (VPM00) (09:49) (22MAR04) ORVYL'S PROGRAM MANAGER                                                                 Page    8
0Loc    Object Code    Addr1 Addr2  Stmt Lv Lineno    Source Statement           (Hibal 5, Asmedit 3.3)  HLASM R4.0  2004/03/22 09.49
+___    ______ ____    _____ _____  ____ __ ______    ______ _________
0                                   1190      38.              COPY  SCP
                                    1191             =*******************************************************************
                                    1192             =*                                                                 *
                                    1193             =*    SCP  -  Mode 1 Session Control Page                          *
                                    1194             =*                                                                 *
                                    1195             =*******************************************************************
0000000                00000 00294  1197             =SCP      RECORD BEGIN
 000000                             1205  1          =SCPID      DS    CL4'SCP'
                                    1206  1          =
 000008                             1207  1          =SCPPSW     DS    D                       RESUME PSW
 000010                             1208  1          =SCPGPRS    DS    16F                     RESUME GPRS
 000050                             1209  1          =SCPFPRS    DS    4D                      RESUME FPRS
                                    1210  1          =
 000070                             1211  1          =SCPXPSW    DS    D                       EXIT PSW
 000078                             1212  1          =SCPXGPRS   DS    16F                     EXIT GPRS
                                    1213  1          =
 0000B8                             1214  1          =SCPSBPSW   DS    D                       SESSION BREAK PSW
 0000C0                             1215  1          =SCPSBGPR   DS    16F                     SESSION BREAK GPRS
                                    1216  1          =
 000100                             1217  1          =SCPCLPSW   DS    D                       CLP ERROR PSW
 000108                             1218  1          =SCPCLPGP   DS    16F                     CLP ERROR GPRS
                                    1219  1          =
 000148                             1220  1          =SCPSVPSW   DS    D                       SVC ERROR PSW
 000150                             1221  1          =SCPSVGPR   DS    16F                     SVC ERROR GPRS
                                    1222  1          =
 000190                             1223  1          =SCPCTL8    DS    A                       CONTROL REGISTER 8 (MON CALL)
 000194                             1224  1          =SCPCTL9    DS    3A                      CONTROL REGISTERS 9-11 (PER)
                                    1225  1          =
 0001A0                             1226  1          =SCPPXA     DS    A                       PAGING EXCEPTION ADDR
 0001A4                             1227  1          =SCPIPSW    DS    A                       INTERRUPT PSW
 0001A8                             1228  1          =SCPPAN     DS    H                       PANIC CODE
                                    1229  1          =SCPPANSY   EQU   SCPPAN+1,1,C'X'         FOR ONE BYTE PANIC CODE
                                    1230  1          =
                                    1231  1          =PANOPER    EQU   1,,C'N'                 OPERATION ERROR
                                    1232  1          =PANPROT    EQU   4,,C'N'                 PROTECTION ERROR
                                    1233  1          =PANADDR    EQU   5,,C'N'                 ADDRESSING ERROR
                                    1234  1          =PANSPEC    EQU   6,,C'N'                 SPECIFICATION ERROR
                                    1235  1          =PANWAIT    EQU   16,,C'N'                MISSING WAIT ERROR
                                    1236  1          =
 0001AA                             1237  1          =SCPACCT    DS    C'GG.UUU'               SIGNED-ON ACCOUNT
                                    1238  1          =SCPUSER    EQU   SCPACCT+3,3,C'C'        SIGNED-ON USER
                                    1239  1          =SCPGROUP   EQU   SCPACCT,2,C'C'          SIGNED-ON GROUP
                                    1240  1          =*
                                    1241  1          =*SCPPACCT DS    C'GG.UUU'               PSEUDO ACCOUNT
                                    1242  1          =*SCPPUSER EQU   SCPPACCT+3,3,C'C'       PSEUDO USER
                                    1243  1          =*SCPPGRP  EQU   SCPPACCT,2,C'C'         PSEUDO GROUP
                                    1244  1          =*SCPPRIVS DS    X                       PSEUDO ACCOUNT PRIVS
 0001B0                             1245  1          =           DS    XL7                     SPARE
                                    1246  1          =
 0001B7                             1247  1          =SCPPRIV    DS    X                       ACCOUNT PRIVS
 0001B8                             1248  1          =SCPCLW     DS    A                       POINTER TO THE CLW
 0001BC                             1249  1          =SCPPCAT    DS    A                       PROGRAM CATALOG POINTER
1VPM      (VPM00) (09:49) (22MAR04) ORVYL'S PROGRAM MANAGER                                                                 Page    9
0D-Loc  Object Code    Addr1 Addr2  Stmt Lv Lineno    Source Statement           (Hibal 5, Asmedit 3.3)  HLASM R4.0  2004/03/22 09.49
+_____  ______ ____    _____ _____  ____ __ ______    ______ _________
00001C0                             1251  1          =SCPSID     DS    D                       SUSPEND ID
 0001C8                             1252  1          =SCPUCLK    DS    A                       USER CLOCK ID
 0001CC                             1253  1          =SCPUCXIT   DS    A                       USER CLOCK EXIT ID
 0001D0                             1254  1          =SCPCCLK    DS    A                       CLP CLOCK ID
 0001D4                             1255  1          =SCPCCXIT   DS    A                       CLP CLOCK EXIT ID
                                    1256  1          =
 0001D8                             1257  1          =SCPTXEP    DS    A                       TIMER EXIT ENTRY POINT
 0001DC                             1258  1          =SCPTXI     DS    A                       USER POINTER FOR TIMER EXIT
 0001E0                             1259  1          =SCPPXEP    DS    A                       PANIC EXIT ENTRY POINT
 0001E4                             1260  1          =SCPPXI     DS    A                       USER POINTER FOR PANIC EXIT
 0001E8                             1261  1          =SCPSXEP    DS    A                       SVC EXIT ENTRY POINT
 0001EC                             1262  1          =SCPSXI     DS    A                       USER POINTER FOR SVC EXIT
                                    1263  1          =
 0001F0                             1264  1          =SCPUMSIZ   DS    A                       ADDRESS SPACE LIMIT
 0001F4                             1265  1          =SCPRRSEG   DS    A                       LOW ADDR FOR RESERVE/RELEASE
 0001F8                             1266  1          =SCPRESRV   DS    H                       RESERVED (GETMAINED) PAGES
 0001FA                             1267  1          =SCPUNRSV   DS    H                       UNRESERVED PAGE COUNT
 0001FC                             1268  1          =SCPUMAP    DS    A                       USER MAP SIZE
                                    1269  1          =
 000200 00                          1270  1          =SCPFL      FLAG  ,                       FLAG BYTE
 SCPFL.SCPFERR     80 ONES          1274  1          =           FLAG  SCPFERR                 ERROR IN CLP
 SCPFL.SCPFPER     40 ONES          1279  1          =           FLAG  SCPFPER                 PER IS ACTIVE
 SCPFL.SCPFMON     20 ONES          1284  1          =           FLAG  SCPFMON                 MONITOR CALL IS ACTIVE
 SCPFL.SCPFPSEU    10 ONES          1289  1          =           FLAG  SCPFPSEU                PSUEDO USER SET
 SCPFL.SCPFSAM     08 ONES          1294  1          =           FLAG  SCPFSAM                 USER IS STAND-ALONE
 SCPFL.SCPFPRT     04 ONES          1299  1          =           FLAG  SCPFPRT                 USER PROGRAM "PROTECTED"
 SCPFL.SCPFTRU     02 ONES          1304  1          =           FLAG  SCPFTRU                 USER TRACE ACTIVE
 SCPFL.SCPFTRC     01 ONES          1309  1          =           FLAG  SCPFTRC                 CLP TRACE ACTIVE
                                    1314  1          =
 000201                             1315  1          =SCPKLUDG   DS    X     ***KLUDGE***      "KLUDGE" BYTE
 000202                             1316  1          =SCPTRASH   DS    X                       MEMORY CLEARING VALUE
 000203                             1317  1          =SCPJESR    DS    X                       NUMBER OF JES READERS IN USE
                                    1318  1          =
 000204                             1319  1          =SCPPER     DS    A                       PER INTERRUPT CODE,ADDRESS
 000208                             1320  1          =SCPMON     DS    A                       MONITOR INTERRUPT CODE,ADDRESS
                                    1321  1          =
 00020C                             1322  1          =SCPIDT     DS    A                       I/O ID TABLES
 000210                             1323  1          =SCPNIDT    DS    H                       NUMBER OF ID BLOCKS
 000212                             1324  1          =SCPQIDT    DS    H                       ENQ/DEQ ID TABLE
                                    1325  1          =
                                    1326  1          =SCPCWASZ   EQU   16,,C'N'                SIZE OF COMMON WORK AREA
 000214                             1327  1          =SCPCWA     DS    (SCPCWASZ)X
                                    1328  1          =
                                    1329  1          =CLWIBUFL   EQU   235                     LENGTH OF COMMAND BUFFER
 000224                             1330  1          =SCPCMDP    DS    A                       =>AL2(LEN),CL133'COMMAND'
 000228                             1331  1          =SCPPARMP   DS    A                       =>AL2(LEN),CL133'PARM'
 00022C                             1332  1          =SCPLCMDL   DS    H                       LENGTH OF LAST CMD
 00022E                             1333  1          =SCPLCMD    DS    CL40                    LAST COMMAND
                                    1334  1          =
 000256                             1335  1          =SCPNENQ    DS    H                       NUMBER OF ALLOWED ENQ'S
 000258                             1336  1          =SCPENQL    DS    A                       ENQUEUE ID TABLE ADDRESS
                                    1337  1          =
 00025C                             1338  1          =SCPTRACE   DS    A                       MODE 1 TRACE BUFFER CHAIN
1VPM      (VPM00) (09:49) (22MAR04) ORVYL'S PROGRAM MANAGER                                                                 Page   10
0D-Loc  Object Code    Addr1 Addr2  Stmt Lv Lineno    Source Statement           (Hibal 5, Asmedit 3.3)  HLASM R4.0  2004/03/22 09.49
+_____  ______ ____    _____ _____  ____ __ ______    ______ _________
0                                   1340  1          =*******************************************************************
                                    1341  1          =*                                                                 *
                                    1342  1          =*    SCB  -  Mode 1 Session Control Block                         *
                                    1343  1          =*                                                                 *
                                    1344  1          =*******************************************************************
0000260 00                          1346  1          =SCBWFL     FLAG  ,                       WAIT FLAGS
 SCBWFL.SCBFWAIT   80 ONES          1350  1          =           FLAG  SCBFWAIT                WAITING
                                    1355  1          =
 000261 00                          1356  1          =SCBCFL     FLAG  ,                       COMMON FLAGS
 SCBCFL.SCBCFALP   80 ONES          1360  1          =           FLAG  SCBCFALP                AUTO LOGOFF BEING PROCESSED
 SCBCFL.SCBCFCLA   40 ONES          1365  1          =           FLAG  SCBCFCLA                IDLE ATTN IN CLP
 SCBCFL.SCBCFAX    20 ONES          1370  1          =           FLAG  SCBCFAX                 BRANCH TO ATTENTION EXIT
 SCBCFL.SCBCFNMA   10 ONES          1375  1          =           FLAG  SCBCFNMA                SUPPRESS MULTIPLE ATTN BREAK
 SCBCFL.SCBFNESC   08 ONES          1380  1          =           FLAG  SCBFNESC                FORCE SESSION BREAK ON ATTN
                                    1385  1          =
 000262 00                          1386  1          =SCBFL      FLAG  ,                       FLAGS
 SCBFL.SCBFCLP     80 ONES          1390  1          =           FLAG  SCBFCLP                 CLP IN CONTROL
 SCBFL.SCBFSVC     40 ONES          1395  1          =           FLAG  SCBFSVC                 USER IS IN SVC PROCESSING
 SCBFL.SCBFNPUP    20 ONES          1400  1          =           FLAG  SCBFNPUP                NO PSW CC CHANGES
 SCBFL.SCBFASLK    10 ONES          1405  1          =           FLAG  SCBFASLK                ADDRESS SPACE LOCK HELD
 SCBFL.SCBFPCLP    08 ONES          1410  1          =           FLAG  SCBFPCLP                PSEUDO CLP
                                    1415  1          =
 000263 00                          1416  1          =SCBTFL     FLAG  ,                       TIMER FLAGS
 SCBTFL.SCBTUTR    80 ONES          1420  1          =           FLAG  SCBTUTR                 USER TIMER RUNNING
 SCBTFL.SCBTUCT    40 ONES          1425  1          =           FLAG  SCBTUCT                 USER TIMING CPU TIME
 SCBTFL.SCBTCPTR   20 ONES          1430  1          =           FLAG  SCBTCPTR                COMMAND TIMER RUNNING
 SCBTFL.SCBTCPCT   10 ONES          1435  1          =           FLAG  SCBTCPCT                COMMAND TIMING CPU TIME
 SCBTFL.SCBTCPQU   08 ONES          1440  1          =           FLAG  SCBTCPQU                "QUEUED" TIMER RUNNING
                                    1445  1          =
 000264 00                          1446  1          =SCBMB      FLAG  ,                       EXIT ENABLED FLAG
                                    1450  1          =*
                                    1451  1          =* FOLLOWING FLAGS USED FOR BOTH SCBMB AND SCBXFL
                                    1452  1          =*
 000265 00                          1453  1          =SCBXFL     FLAG   ,                      EXIT FLAGS
 SCBXFL.SCBXT      80 ONES          1457  1          =           FLAG  SCBXT                   TIMER EXIT
 SCBXFL.SCBXA      40 ONES          1462  1          =           FLAG  SCBXA                   ATTN EXIT
 SCBXFL.SCBXW      20 ONES          1467  1          =           FLAG  SCBXW                   WAIT EXIT
 SCBXFL.SCBXP      10 ONES          1472  1          =           FLAG  SCBXP                   PANIC EXIT
 SCBXFL.SCBXCPT    08 ONES          1477  1          =           FLAG  SCBXCPT                 CLP TIMER EXIT
 SCBXFL.SCBXALO    04 ONES          1482  1          =           FLAG  SCBXALO                 AUTO LOGOFF
 SCBXFL.SCBDEFMB   F0 NZ            1487  1          =           FLAG  (SCBDEFMB,SCBXT+SCBXA+SCBXW+SCBXP)  DEFAULT
                                    1507  1          =
 000268                             1508  1          =SCBSPB     DS    A                       SPB POINTER
 00026C                             1509  1          =SCBENQ     DS    A                       ENQUEUE ID
 000270                             1510  1          =SCPEPXIT   DS    A                       ENQUEUE POST EXIT ID
                                    1511  1          =
 000278                             1512  1          =           DS    D                       Available
 000280                             1513  1          =SCBPNAML   DS    H                       LENGTH OF THE PROGRAM NAME
 000282                             1514  1          =SCBPNAM    DS    CL8                     PROGRAM NAME
 00028A                             1515  1          =SCBUPRI    DS    X                       USER PRIORITY
                                    1516  1          =*
                                    1517  1          =* Shared symbol control
                                    1518  1          =*
 00028C                             1519  1          =SCBSSAB    DS    A                       POINTER TO SSAB CHAIN
                                    1520  1          =
1VPM      (VPM00) (09:49) (22MAR04) ORVYL'S PROGRAM MANAGER                                                                 Page   11
0D-Loc  Object Code    Addr1 Addr2  Stmt Lv Lineno    Source Statement           (Hibal 5, Asmedit 3.3)  HLASM R4.0  2004/03/22 09.49
+_____  ______ ____    _____ _____  ____ __ ______    ______ _________
0000290                             1521  1          =SCBWAITB   DS    A         WAIT BLOCK PTR (SEE M1GOWAIT IN M1SERV)
 000294                00294 00294  1522             =         END
1VPM      (VPM00) (09:49) (22MAR04) ORVYL'S PROGRAM MANAGER                                                                 Page   12
0Loc    Object Code    Addr1 Addr2  Stmt Lv Lineno    Source Statement           (Hibal 5, Asmedit 3.3)  HLASM R4.0  2004/03/22 09.49
+___    ______ ____    _____ _____  ____ __ ______    ______ _________
0                                   1532      40.              COPY  CLW
                                    1533             =*
                                    1534             =*                   COMMAND LANGUAGE WORK AREA
                                    1535             =*
                                    1536             =* ORGANIZATION:
                                    1537             =*
                                    1538             =*        COMMONLY USED CLP FLAGS, COMMAND BUFFERS AND OTHER CONTROL
                                    1539             =*        INFORMATION FOLLOW THE SESSION CONTROL PAGE INFORMATION.
                                    1540             =*        THE BALANCE OF THIS PAGE IS THE CLP SAVE AREA STACK.
                                    1541             =*
 000000                00000 00618  1542             =CLW      RECORD BEGIN
 000000                             1550  1          =CLWSTART   DS    0F
 000000                             1551  1          =CLWSCP     DS    A                       POINTER TO THE SCP
 000004                             1552  1          =           DS    5A                      AVAILABLE
 000018                             1553  1          =CLWUWST    DS    A                       STARTING LOC OF USER WORK AREA
 00001C                             1554  1          =CLWUPST    DS    A                       STARTING LOC OF USER PROGRAM
 000020                             1555  1          =CLWUPML    DS    A                       MAXIMUM LEN OF USER PROGRAM
 000024                             1556  1          =CLWUPRSV   DS    H                       USER PROGRAM RESERVE COUNT
 000026                             1557  1          =CLWUPURV   DS    H                       USER PROGRAM UN-RESERVE COUNT
 000028                             1558  1          =CLWIBUFN   DS    H                       LENGTH OF INPUT LINE
 00002A 606E40                      1559  1          =           DC    C'-> '
 00002D                             1560  1          =CLWIBUF    DS    CL235                   INPUT BUFFER
                                    1561  1          =
 000118                             1562  1          =CLWOBUF    DS    2H                      WRITE/PROMPT COUNTS
 00011C                             1563  1          =           DS    CL235                   OUTPUT BUFFER
                                    1564  1          =CLWOBUFL   EQU   *-CLWOBUF-4
                                    1565  1          =*                                      SESSION BREAK FLAGS:
 000207 00                          1566  1          =CLWFL      FLAG  ,                       ZEROED AT SESSION BREAK START
 CLWFL.CLWFTYPD    80 ONES          1570  1          =           FLAG  CLWFTYPD                CURRENT COMMAND WAS TYPED
 CLWFL.CLWFCMD     40 ONES          1575  1          =           FLAG  CLWFCMD                 PROCESSING COMMAND SVC
 CLWFL.CLWFWYL     20 ONES          1580  1          =           FLAG  CLWFWYL                 COMMAND HAS BEEN TO WYLBUR
                                    1585  1          =
 000208 00                          1586  1          =CLWFLG     FLAG  ,                       FLAGS
 CLWFLG.CLWFCERR   80 ONES          1590  1          =           FLAG  CLWFCERR                COMMAND ERROR: EXE BREAK
 CLWFLG.CLWFGPW    40 ONES          1595  1          =           FLAG  CLWFGPW                 GET-PUT WORK AREA ALLOCATED
 CLWFLG.CLWFTTRP   20 ONES          1600  1          =           FLAG  CLWFTTRP                TEMPORARY TRAP SET
 CLWFLG.CLWFTRAP   10 ONES          1605  1          =           FLAG  CLWFTRAP                TRAP IN PROGRESS
 CLWFLG.CLWFOSC    08 ONES          1610  1          =           FLAG  CLWFOSC                 READ/WRITE REAL (OS) CORE
 CLWFLG.CLWFQMSG   04 ONES          1615  1          =           FLAG  CLWFQMSG                "QUEUED" MESSAGE SENT
 CLWFLG.CLWFM31    02 ONES          1620  1          =           FLAG  CLWFM31                 PROGRAM IN 31 BIT MODE
                                    1625  1          =
 000209 00                          1626  1          =CLWPFL     FLAG  ,                       PROGRAM FLAGS
 CLWPFL.CLWPFSUP   80 ONES          1630  1          =           FLAG  CLWPFSUP                LINK AREA SET UP
 CLWPFL.CLWPFPL    40 ONES          1635  1          =           FLAG  CLWPFPL                 PROGRAM LOADING
 CLWPFL.CLWPFPIC   20 ONES          1640  1          =           FLAG  CLWPFPIC                PROGRAM ENTERED
 CLWPFL.CLWPFRUN   10 ONES          1645  1          =           FLAG  CLWPFRUN                EXECUTE PROGRAM
 CLWPFL.CLWPFPAU   08 ONES          1650  1          =           FLAG  CLWPFPAU                PAUSE BEFORE EXECUTION
 CLWPFL.CLWPFPRV   04 ONES          1655  1          =           FLAG  CLWPFPRV                PRIVATE PROGRAM
 CLWPFL.CLWPFPRT   02 ONES          1660  1          =           FLAG  CLWPFPRT                PROGRAM PROTECTED
 CLWPFL.CLWPFSHR   01 ONES          1665  1          =           FLAG  CLWPFSHR                SHARED PROGRAM LOADED
                                    1670  1          =
 00020A 00                          1671  1          =CLWMFL     FLAG  ,                       MISCELLANEOUS FLAGS
 CLWMFL.CLWMEVCN   80 ONES          1675  1          =           FLAG  CLWMEVCN                CONTINUE AFTER EVENTS
 CLWMFL.CLWMMNCN   40 ONES          1680  1          =           FLAG  CLWMMNCN                CONTINUE AFTER MONITORS
 CLWMFL.CLWMBSUC   20 ONES          1685  1          =           FLAG  CLWMBSUC                SIMULATED BRANCH SUCCESSFUL
 CLWMFL.CLWMNCST   10 ONES          1690  1          =           FLAG  CLWMNCST                SUPPRESS AUTOMATIC COST PRINT
1VPM      (VPM00) (09:49) (22MAR04) ORVYL'S PROGRAM MANAGER                                                                 Page   13
0Loc    Object Code    Addr1 Addr2  Stmt Lv Lineno    Source Statement           (Hibal 5, Asmedit 3.3)  HLASM R4.0  2004/03/22 09.49
+___    ______ ____    _____ _____  ____ __ ______    ______ _________
0CLWMFL.CLWMCLRP   08 ONES          1695  1          =           FLAG  CLWMCLRP                UNREC. CLR FOUND
 CLWMFL.CLWMNOL    04 ONES          1700  1          =           FLAG  CLWMNOL                 DON'T PRINT ON CONT. EVENTS
 CLWMFL.CLWMDSUP   02 ONES          1705  1          =           FLAG  CLWMDSUP                DUMP AREA SET UP
 CLWMFL.CLWMDUMP   01 ONES          1710  1          =           FLAG  CLWMDUMP                DUMP COMMAND BEING PROCESSED
                                    1715  1          =
 00020B 00                          1716  1          =CLWMONF    FLAG  ,                       PROGLOOK/MONITOR FLAGS
 CLWMONF.CLWFMWP   80 ONES          1720  1          =           FLAG  CLWFMWP                 MONITOR WORK PAGE EXISTS
 CLWMONF.CLWFPRGL  40 ONES          1725  1          =           FLAG  CLWFPRGL                PROGLOOK IN PROGRESS
 CLWMONF.CLWDOTIM  20 ONES          1730  1          =           FLAG  CLWDOTIM                SET TIMER AT RUN
 CLWMONF.CLWCPTIM  10 ONES          1735  1          =           FLAG  CLWCPTIM                SET CPU TIME TIMER
                                    1740  1          =
 00020C 00                          1741  1          =CLWSFL     FLAG  ,                       SESSION FLAGS
 CLWSFL.CLWSSAM    80 ONES          1745  1          =           FLAG  CLWSSAM                 STAND ALONE MODE
 CLWSFL.CLWSSP     40 ONES          1750  1          =           FLAG  CLWSSP                  SPECIAL PERSON
                                    1755  1          =
 00020D                             1756  1          =           DS    X
                                    1757  1          =
 00020E                             1758  1          =CLWEXSVC   DS    H                       EXIT SVC
 000210                             1759  1          =CLWPSVC    DS    H                       PAUSE/TRAP SVC
 000212                             1760  1          =CLWCSVC    DS    H                       COMMAND SVC
                                    1761  1          =
 000214                             1762  1          =CLWDSP     DS    X                       DISPATCHING PRIORITY
 000215                             1763  1          =CLWPFS     DS    X                       PARAMTER FLAG SAVE
 000218                             1764  1          =CLWPS      DS    3F                      PARAMETER SAVE
                                    1765  1          =
 000224                             1766  1          =CLWMLMOD   DS    F                       MILTEN MODE WORD
 000228                             1767  1          =CLWWLMOD   DS    F                       WYLBUR MODE WORD
                                    1768  1          =
 00022C                             1769  1          =CLWTIMER   DS    A                       TIMER VALUE TO BE SET AT RUN
 000230                             1770  1          =CLWTIMAX   DS    H                       MAX TIMER INTERVAL (IN .1 SEC)
 000232                             1771  1          =CLWTIVAL   DS    H                       CURRENT TIMER INTERVAL
 000234                             1772  1          =CLWTMAX    DS    H                       CPU TIME LIMIT
 000236                             1773  1          =CLWTIME    DS    H                       CURRENT CPU TIME
 000238                             1774  1          =CLWPELT    DS    A                       ELAPSED TIME
 00023C                             1775  1          =CLWPCVM    DS    A                       VM CHARGES
 000240                             1776  1          =CLWPIOS    DS    A                       I/O COUNTS
 000244                             1777  1          =CLWPCUSE   DS    A                       CPU TIME
                                    1778  1          =
 000248                             1779  1          =CLWPROGN   DS    CL8                     PROGRAM NAME
 000250                             1780  1          =CLWLNKP    DS    A                       LINK PAGE POINTER
 000254                             1781  1          =CLWGPWP    DS    A                       GET-PUT WORK PAGE POINTER
 000258                             1782  1          =CLWMONP    DS    A                       MONITOR/PROGLOOK PAGE
 00025C                             1783  1          =CLWSPB     DS    A                       SHARED PROGRAM BLOCK
 000260                             1784  1          =CLWDUMPB   DS    A                       POINTER TO DUMP BUFFER
                                    1785  1          =
 000264                             1786  1          =CLWPER     DS    A                       PER INFO
 000268                             1787  1          =CLWMON     DS    A                       MONITOR INFO
                                    1788  1          =
 00026C                             1789  1          =CLWEVCNT   DS    A                       NUMBER OF EVENTS TO EXECUTE
 000270                             1790  1          =CLWTRAPA   DS    A                       ADDR OF INST BEING TRAPPED
 000274                             1791  1          =CLWTRAPB   DS    A                       ADDR OF INST AFTER
 000278                             1792  1          =CLWTRAPI   DS    3H                      INSTRUCTION BEING TRAPPED
 00027E                             1793  1          =CLWTRAPJ   DS    H                       1ST HALFWORD OF INST AFTER
                                    1794  1          =
                                    1795  1          =CLWNTRAP   EQU   8,,C'N'                 NO. OF TRAPS
 000280                             1796  1          =CLWTRAPS   DS    (CLWNTRAP)XL5           TRAP TABLE
1VPM      (VPM00) (09:49) (22MAR04) ORVYL'S PROGRAM MANAGER                                                                 Page   14
0Loc    Object Code    Addr1 Addr2  Stmt Lv Lineno    Source Statement           (Hibal 5, Asmedit 3.3)  HLASM R4.0  2004/03/22 09.49
+___    ______ ____    _____ _____  ____ __ ______    ______ _________
00002A8                             1797  1          =CLWTTRAP   DS    XL5                     TEMPORARY TRAP
                                    1798  1          =*
                                    1799  1          =* KEYWORD FILE RECORD AREA
                                    1800  1          =*
 0002AD                             1801  1          =CLWKFL     DS    X                       KEYWORD FILE FLAGS
                                    1802  1          =
                                    1803  1          =CLWKFAC    EQU   X'80'                   PROGRAM AUTO CALL
                                    1804  1          =CLWKFMP    EQU   X'40'                   PROGRAM MANDATORY
                                    1805  1          =
 0002AE                             1806  1          =CLWKACC    DS    CL5                     ACCOUNT FOR PROGRAM SEARCH
 0002B3                             1807  1          =CLWKPROG   DS    CL8                     DEFAULT/MANDATORY PROGRAM
 0002BB                             1808  1          =CLWKMISC   DS    CL8                     MISCELLANEOUS FIELDS
                                    1809  1          =*
                                    1810  1          =*  SCANNER UTILITY AREA
                                    1811  1          =*
                                    1812  1          =           SCANCB PFX=CLWKW
 0002C4                             1813  1 01-SCANC +CLWKWCB    DS    0F
 0002C4                             1814  1 01-SCANC +CLWKWVAL   DS    A                       VALUE RETURNED
 0002C8                             1815  1 01-SCANC +CLWKWKW    DS    CL8                     CURRENT KEY WORD
 0002D0                             1816  1 01-SCANC +CLWKWLEN   DS    A                       LENGTH LEFT TO SCAN
 0002D4                             1817  1 01-SCANC +CLWKWLOC   DS    A                       NEXT THING TO SCAN
 0002D8                             1818  1 01-SCANC +CLWKWRA    DS    A                       RETURN ADDRESS
 0002DC                             1819  1 01-SCANC +CLWKWPRT   DS    A                       ROUTING TABLE ADDRESS
 0002E0                             1820  1 01-SCANC +CLWKWCLT   DS    A                       SCAN TYPE
                                    1821  1          +*                                      0 = NORMAL SCAN
                                    1822  1          +*                                      4 = EXPRESSION ISOLATION
                                    1823  1          +*                                      8 = EXPRESSION SCAN
                                    1824  1 01-SCANC +CLWKWCBL   EQU *-CLWKWCB
                                    1825  1          =
 0002E8                             1826  1          =CLWTEMP    DS    4D                      WORK AREA
                                    1827  1          =
 000308                             1828  1          =CLWDELTA   DS    F                       Wylbr line delta
 00030C                             1829  1          =           DS    F                       Spare
 000310                             1830  1          =CLWEVHST   DS    8D                      EVENT HISTORY
 000350                             1831  1          =CLWEVENT   DS    D                       LAST EVENT INFO
 000358                             1832  1          =CLWQRET    DS    3F                      QUICK RETURN FOR VSUB
                                    1833  1          =*                                      SAVE AREA FOR BRR,BR,WAR
                                    1834  1          =*
 000368                             1835  1          =CLWSBPSW   DS    D                       SESSION BREAK PSW
 000370                             1836  1          =CLWSBGPR   DS    16F                     SESSION BREAK GPRS
 0003B0                             1837  1          =CLWACCT    DS    C'GG.UUU'               USER ACCOUNT
                                    1838  1          =CLWUSER    EQU   CLWACCT+3,3,C'C'        USER
                                    1839  1          =CLWGROUP   EQU   CLWACCT,2,C'C'          GROUP
 0003B8                             1840  1          =CLWIDT     DS    A                       ADDRESS OF THE IDTS
 0003BC                             1841  1          =CLWNIDT    DS    H                       NUMBER OF IDTS
 0003C0                             1842  1          =           DS    0F                      START OF SAVE AREA
 0003C0                             1843  1          =CLWSVA     DS    XL600                   SAVE STACK
                                    1844  1          =CLWSVAEN   EQU   *-4,4,C'X'              LAST WORD OF THE STACK
 000618                00618 00618  1845             =         END   ,
1VPM      (VPM00) (09:49) (22MAR04) ORVYL'S PROGRAM MANAGER                                                                 Page   15
0Loc    Object Code    Addr1 Addr2  Stmt Lv Lineno    Source Statement           (Hibal 5, Asmedit 3.3)  HLASM R4.0  2004/03/22 09.49
+___    ______ ____    _____ _____  ____ __ ______    ______ _________
0                                   1855      42.              COPY  CSD
 000000                00000 00018  1856             =CSD      RECORD BEGIN
                                    1864  1          =*
                                    1865  1          =* CSD FORMAT
                                    1866  1          =*
 000000                             1867  1          =CSDSTART   DS    0F
 000000                             1868  1          =CSDLINK    DS    A                       ALPHABETICAL LINKING
 000004                             1869  1          =CSDNAME    DS    CL8                 NAME
 00000C                             1870  1          =CSDTYP     DS    XL1                     TYPE
                                    1871  1          =*
                                    1872  1          =* CESD TYPES ARE SAME AS ESD TYPES. FOR CHA/REP/DEL LIST USE FOLLOWING:
                                    1873  1          =CSDTCHA    EQU   X'F0',,C'N'             CHANGE SYMBOL
                                    1874  1          =CSDTREP    EQU   X'E0',,C'N'             REPLACE ESD
                                    1875  1          =CSDTDEL    EQU   X'D0',,C'N'             DELETE ESD
                                    1876  1          =
 00000D                0000D 0000C  1877  1          =           ORG   CSDTYP
 00000C                             1878  1          =CSDADDR    DS    A                   ADDRESS
 000010                             1879  1          =CSDLNG     DS    A                   SECTION LENGTH (SD,PC,CM)
 000014                             1880  1          =CSDREL     DS    A                   RELOC DELTA (SD,PC,CM)-WATCH CSDFL
                                    1881  1          =***
 000018                00018 00010  1882  1          =           ORG   CSDLNG
 000010                             1883  1          =CSDSDC     DS    A                   SD CHAIN (LD)
 000014 00                          1884  1          =CSDFL      FLAG  ,                       FLAGS
 CSDFL.CSDFPRCL    80 ONES          1888  1          =           FLAG  CSDFPRCL                PSEUDO REG CUM LENGTH
 CSDFL.CSDFDEF     40 ONES          1893  1          =           FLAG  CSDFDEF                 ENTRY IS DEFINED
 CSDFL.CSDFDUP     20 ONES          1898  1          =           FLAG  CSDFDUP                 DUPLICATE DEF
 CSDFL.CSDFCALL    10 ONES          1903  1          =           FLAG  CSDFCALL                OBTAINED BY AUTO LIBE CALL
 CSDFL.CSDFPAG     08 ONES          1908  1          =           FLAG  CSDFPAG                 SD ON PAGE BOUNDARY.
                                    1913  1          =
 000016                             1914  1          =CSDSDID    DS    H                   (LR) SDID OF CONTAINING CSECT
                                    1915  1          =
 000018                00018 00010  1916  1          =           ORG   CSDLNG
 000010                             1917  1          =CSDNAM2    DS    CL8                 SECOND NAME FOR CHA/REP
                                    1918  1          =***
 000018                00018 00018  1919  1          =           ORG
 000018                             1920  1          =CSDNXT     DS    0F
 000018                00018 00018  1921             =         END   ,
1VPM      (VPM00) (09:49) (22MAR04) ORVYL'S PROGRAM MANAGER                                                                 Page   16
0Loc    Object Code    Addr1 Addr2  Stmt Lv Lineno    Source Statement           (Hibal 5, Asmedit 3.3)  HLASM R4.0  2004/03/22 09.49
+___    ______ ____    _____ _____  ____ __ ______    ______ _________
0                                   1931      44.              COPY  GPW
                                    1932             =*
                                    1933             =* GET PUT WORK PAGE. ALLOCATED ON ENTRY TO VGP. DE-ALLOCATED ON EXIT
                                    1934             =*
 000000                00000 03000  1935             =GPWDSECT DSECT
 000000                             1936             =GPWSTART DS    0D
 000000 00                          1937             =GPWGFL   FLAG  ,                       GENERAL FLAGS
 GPWGFL.GPWFFREE   80 ONES          1941             =         FLAG  GPWFFREE                FREE CORE
 GPWGFL.GPWFALTF   40 ONES          1946             =         FLAG  GPWFALTF                PROCESS ALTERNATE FILE
 GPWGFL.GPWFALTA   20 ONES          1951             =         FLAG  GPWFALTA                PROCESS ALTERNATE ACCOUNT
 GPWGFL.GPWFARET   10 ONES          1956             =         FLAG  GPWFARET                TAKE ALTERNATE RETURN
 GPWGFL.GPWFPCAT   08 ONES          1961             =         FLAG  GPWFPCAT                PROCESSING PROGRAM CATALOG
                                    1966             =
 000001 00                          1967             =GPWPRFL  FLAG  ,                       PROCESSING FLAGS
 GPWPRFL.GPWFTRN   80 ONES          1971             =         FLAG  GPWFTRN                 SOME LINES TRUNCATED
 GPWPRFL.GPWFNOE   40 ONES          1976             =         FLAG  GPWFNOE                 NO ERROR IF FILE NOT FOUND (ATT)
 GPWPRFL.GPWFANW   20 ONES          1981             =         FLAG  GPWFANW                 ATTACH NEW IF FILE NOT FOUND
 GPWPRFL.GPWFNSF   10 ONES          1986             =         FLAG  GPWFNSF                 DO NOT SENSE USER INFO ON ATTACH
 GPWPRFL.GPWFNSKP  08 ONES          1991             =         FLAG  GPWFNSKP                READ WITH NO MODE = SKIP
 GPWPRFL.GPWFQIET  04 ONES          1996             =         FLAG  GPWFQIET                QUIET OPTION SET
 GPWPRFL.GPWOSFOK  02 ONES          2001             =         FLAG  GPWOSFOK                OS/FILES IMPLEMENTED FOR CMD
                                    2006             =
 000002 00                          2007             =GPWPRFL2 FLAG  ,                       MORE PROCESSING FLAGS
 GPWPRFL2.GPWSRCHC 80 ONES          2011             =         FLAG  GPWSRCHC                CONTINUE DIRECTORY SEARCH
 GPWPRFL2.GPWFFRST 40 ONES          2016             =         FLAG  GPWFFRST                FIRST PASS (FBAL)
 GPWPRFL2.GPWFRST  20 ONES          2021             =         FLAG  GPWFRST                 RESET BLOCKS (FBAL)
 GPWPRFL2.GPWFNIXR 10 ONES          2026             =         FLAG  GPWFNIXR                NON-IXR'ED FILE ATTACHED
 GPWPRFL2.GPWFHYBR 08 ONES          2031             =         FLAG  GPWFHYBR                HYBRID NON-IXR'ED FILE ATTACHED
                                    2036             =
 000003 00                          2037             =GPWKWFL  FLAG  ,                       KEYWORD SCAN FLAGS
 GPWKWFL.GPWFERS   80 ONES          2041             =         FLAG  (GPWFERS,X'80')         ERASE
 GPWKWFL.GPWFCLR   80 ONES          2050             =         FLAG  (GPWFCLR,X'80')         CLEAR TEXT (ON GET)
 GPWKWFL.GPWFAPP   40 ONES          2059             =         FLAG  (GPWFAPP,X'40')         APPEND
 GPWKWFL.GPWFMRG   40 ONES          2068             =         FLAG  (GPWFMRG,X'40')         MERGE
 GPWKWFL.GPWFCON   20 ONES          2077             =         FLAG  (GPWFCON,X'20')         CONTENTS
 GPWKWFL.GPWFCREF  20 ONES          2086             =         FLAG  (GPWFCREF,X'20')        CREATE BEING PROCESSED
 GPWKWFL.GPWFNCOM  10 ONES          2095             =         FLAG  (GPWFNCOM,X'10')        NO COMMENT
 GPWKWFL.GPWFELIB  10 ONES          2104             =         FLAG  (GPWFELIB,X'10')        LIBRARY (ON ERASE)
 GPWKWFL.GPWFPUB   08 ONES          2113             =         FLAG  (GPWFPUB,X'08')         PUBLIC SPECIFIED
 GPWKWFL.GPWFACC   04 ONES          2122             =         FLAG  (GPWFACC,X'04')         ACCOUNT SPECIFIED
 GPWKWFL.GPWFAACC  02 ONES          2131             =         FLAG  (GPWFAACC,X'02')        ALTERNATE ACCOUNT SPECIFIED
 GPWKWFL.GPWFRNUM  01 ONES          2140             =         FLAG  (GPWFRNUM,X'01')        RENUMBER (FOR GET)
 GPWKWFL.GPWFPMBR  01 ONES          2149             =         FLAG  (GPWFPMBR,X'01')        PUT LIBRARY MEMBER
                                    2158             =
 000004 00                          2159             =GPWSFFL  FLAG  ,                       SHOW FILES FLAGS
 GPWSFFL.GPWSFER   80 ONES          2163             =         FLAG  GPWSFER                 ERASE  (SHOW FILES)
 GPWSFFL.GPWSFDT   40 ONES          2168             =         FLAG  GPWSFDT                 DATED    "    "
 GPWSFFL.GPWSFLK   20 ONES          2173             =         FLAG  GPWSFLK                 LIKE     "    "
 GPWSFFL.GPWSFUNL  10 ONES          2178             =         FLAG  GPWSFUNL                UNLIKE   "    "
 GPWSFFL.GPWSFFRO  08 ONES          2183             =         FLAG  GPWSFFRO                FROM     "    "
 GPWSFFL.GPWSFATT  04 ONES          2188             =         FLAG  GPWSFATT                ATTACH   "    "
 GPWSFFL.GPWSFBLO  02 ONES          2193             =         FLAG  GPWSFBLO                BLOCKS   "    "
 GPWSFFL.GPWSFFMT  01 ONES          2198             =         FLAG  GPWSFFMT                FORMAT
1VPM      (VPM00) (09:49) (22MAR04) ORVYL'S PROGRAM MANAGER                                                                 Page   17
0D-Loc  Object Code    Addr1 Addr2  Stmt Lv Lineno    Source Statement           (Hibal 5, Asmedit 3.3)  HLASM R4.0  2004/03/22 09.49
+_____  ______ ____    _____ _____  ____ __ ______    ______ _________
0000005                             2204             =GPWPERM  DS    X                       PERMIT FLAGS
                                    2205             =GPWPRMRD EQU   GPWPERM,X'01',1         READ ONLY
                                    2206             =GPWPRMAP EQU   GPWPERM,X'02',1         APPEND ONLY
                                    2207             =GPWPRMRP EQU   GPWPERM,X'03',1         READ AND APPEND
                                    2208             =GPWPRMWR EQU   GPWPERM,X'07',1         WRITE
                                    2209             =GPWPRMEX EQU   GPWPERM,X'08',1         EXTEND
                                    2210             =
 000006 00                          2211             =GPWGPFL  FLAG  ,                       FLAGS FOR GET/PUT
 GPWGPFL.GPWGPFIN  80 ONES          2215             =         FLAG  GPWGPFIN                INTEGER
 GPWGPFL.GPWGPFV   40 ONES          2220             =         FLAG  GPWGPFV                 VARIABLE
 GPWGPFL.GPWGPFLR  20 ONES          2225             =         FLAG  GPWGPFLR                LRECL
 GPWGPFL.GPWGPFE   10 ONES          2230             =         FLAG  GPWGPFE                 EDIT
 GPWGPFL.GPWGPFSK  08 ONES          2235             =         FLAG  GPWGPFSK                SKIP COUNT
 GPWGPFL.GPWGPFBK  04 ONES          2240             =         FLAG  GPWGPFBK                BLOCKING FACTOR
 GPWGPFL.GPWGPFHX  02 ONES          2245             =         FLAG  GPWGPFHX                HEX
 GPWGPFL.GPWGPFN   01 ONES          2250             =         FLAG  GPWGPFN                 NUMBERED
                                    2255             =
 000007                             2256             =ACCT     DS    0C'UUU$GG'
 000007                             2257             =GPWACCT  DS    C'UUU$GG'               GROUP NAME
 00000D                             2258             =GPWAACCT DS    C'UUU$GG'               ALTERNATE GROUP NAME
 000013                             2259             =UUU      DS    0C'UUU'                 STANDARD USER PATTERN
 000013                             2260             =GG       DS    0C'GG'                  STANDARD GROUP PATTERN
                                    2261             =
 000013                             2262             =GPWSUSER DS    C'UUU'                   'SET' USER
 000016                             2263             =GPWSGRP  DS    C'GG'                    'SET' GROUP
                                    2264             =GPWSACCT EQU   GPWSUSER,*-GPWSUSER
                                    2265             =
 000018                             2266             =         DS    0F                      ALIGN WYLBUR INFO
 000018                             2267             =GPWOPT   DS    AL2(0)                  * READ TEXT OPTION
 00001A 0000                        2268             =GPWBLK   DC    AL2(0)                  W READ BLOCKING FACTOR
                                    2269             =GPWWBL   EQU   GPWBLK                  Y WRITE BUFFER LEN
 00001C                             2270             =GPWFWDS  DS    A(0)                    L FIRST LINE OF WDS
 000020                             2271             =GPWLWDS  DS    A(0)                    B LAST LINE OF WDS
 000024                             2272             =GPWFCOL  DS    AL2(0)                  U FIRST COLUMN (RANGE)
 000026                             2273             =GPWLCOL  DS    AL2(0)                  R LAST COLUMN (RANGE)
 000028                             2274             =GPWSLEN  DS    AL2(0)                  * STRING LEN (RANGE)
 00002A                             2275             =GPWSTR   DS    0CL44                   * STRING (RANGE)
                                    2276             =GPWMSGL  EQU   GPWFWDS,4,C'C'          LENGTH OF SAVED MESSAGE
                                    2277             =GPWMSGA  EQU   GPWLWDS,4               START OF SAVED MESSAGE
 00002A 0000
 00002C 00000000                    2278             =GPWSKIP  DC    A(0)                    SKIPING COUNT
 000030 00000000                    2279             =GPWLINCT DC    A(0)                    LINE COUNT
                                    2280             =
 000034 0000                        2281             =GPWLREC  DC    AL2(0)                  LRECL
 000036 0000                        2282             =GPWRBL   DC    AL2(0)                  READ BUFFER LEN
                                    2283             =GPWWBLK  EQU   GPWRBL                  WRITE BLOCKING FACTOR
1VPM      (VPM00) (09:49) (22MAR04) ORVYL'S PROGRAM MANAGER                                                                 Page   18
0D-Loc  Object Code    Addr1 Addr2  Stmt Lv Lineno    Source Statement           (Hibal 5, Asmedit 3.3)  HLASM R4.0  2004/03/22 09.49
+_____  ______ ____    _____ _____  ____ __ ______    ______ _________
0000038                             2285             =GPWBUFA  DS    A                       ADDRESS OF GENERAL BUFFER
 00003C                             2286             =GPWDATAD DS    A                       START OF DATA IN BLOCK
                                    2287             =MONBUFA  EQU   GPWBUFA,4,C'A'          ALTERNATE NAME FOR VPS
 000040                             2288             =GPWDIRAP DS    A                       POINTER TO FIRST DIRECTORY BLOCK
 000044                             2289             =GPWDIRAL DS    A                       LENGTH OF DIRECTORY AREA
 000048                             2290             =GPWDIRAE DS    A                       ADDR OF END OF LAST VALID DIRB
 00004C                             2291             =GPWARETA DS    A                       ALTERNATE RETURN ADDRESS
 000050                             2292             =GPWDIRLS DS    A                       LAST DIRECTORY ENTRY LOC
-000054                             2294             =PFX      DS    0C'ORV.GG.UUU.'        STANDARD FILENAME PREFIX
 000054                             2295             =GPWFFN   DS    C'ORV.'                 FULL FILE NAME
 000058                             2296             =GPWGRP   DS    C'GG'                    GROUP ON LAST FILE
 00005A                             2297             =GPWGDOT  DS    C'.'
 00005B                             2298             =GPWUSER  DS    C'UUU'                   USER FOR LAST FILE
 00005E                             2299             =GPWUDOT  DS    C'.'
 00005F                             2300             =GPWFN    DS    CL44                    FILE NAME (AS TYPED)
 00008B                             2301             =         DS    C                       SPACE FOR BLANK FOLLOWING NAME
1VPM      (VPM00) (09:49) (22MAR04) ORVYL'S PROGRAM MANAGER                                                                 Page   19
0D-Loc  Object Code    Addr1 Addr2  Stmt Lv Lineno    Source Statement           (Hibal 5, Asmedit 3.3)  HLASM R4.0  2004/03/22 09.49
+_____  ______ ____    _____ _____  ____ __ ______    ______ _________
0
                                    2304             =* GPW FILE CONTROL BLOCK
                                    2305             =*
 00008C                             2306             =GPWFILE  DS    0F                      FILE CONTROL BLOCK
                                    2307             =*
                                    2308             =*                            NOTE:  GPWPFFL AND GPWFID MUST
                                    2309             =*                                   REMAIN PAIRED FOR VPM
                                    2310             =*
 00008C 00                          2311             =GPWPFFL  FLAG  ,                       PRIMARY FILE FLAGS
 GPWPFFL.GPWFATT   80 ONES          2315             =         FLAG  GPWFATT                 FILE IS ATTACHED
 GPWPFFL.GPWFSHR   40 ONES          2320             =         FLAG  GPWFSHR                 ATTACH FILE SHARE
 GPWPFFL.GPWFNEW   20 ONES          2325             =         FLAG  GPWFNEW                 FILE IS NEW
 GPWPFFL.GPWFFMT   10 ONES          2330             =         FLAG  GPWFFMT                 USER INFO IS FORMAT
 GPWPFFL.GPWFVOSF  08 ONES          2335             =         FLAG  GPWFVOSF                FILE IS AN OS/FILE
 GPWPFFL.GPWOSFED  04 ONES          2340             =         FLAG  GPWOSFED                OS/FILE IS EDIT FORMAT
 GPWPFFL.GPWFFFN   02 ONES          2345             =         FLAG  GPWFFFN                 FULL FILENAME SPECIFIED
                                    2350             =
 00008D                             2351             =GPWFID   DS    X                       FILE ID NUMBER
 00008E                             2352             =GPWFNL   DS    X                       FILE NAME LENGTH
                                    2353             =*
                                    2354             =*        LIBRARY DATA AND FLAGS
                                    2355             =*
 00008F                             2356             =GPWLMNL  DS    AL1                     LIBRARY MEMBER NAME LENGTH
 000090                             2357             =GPWLMN   DS    CL8                     LIBRARY MEMBER NAME
 000098                             2358             =GPWLMN2  DS    CL8                     LIBRARY MEMBER NAME2 (ALIAS)
 0000A0                             2359             =GPWLMF1  DS    X                       LIB MEMBER
 0000A1                             2360             =GPWLMF2  DS    X                       DIRECTORY FLAGS
                                    2361             =GPWLMFLS EQU   GPWLMF1,*-GPWLMF1
 0000A4                             2362             =GPWLMFBN DS    A                       FIRST BLOCK # OF LIB MEMBER
 0000A8                             2363             =GPWLMBCT DS    A                       NUM OF BLOCKS IN LIB MEMBER
                                    2364             =GPWLMSPC EQU   GPWLMN,*-GPWLMN,C'X'    SPECIFIES LIB MBR.
                                    2365             =GPWLMFLD EQU   GPWLMF1,*-GPWLMF1       DESCRIPTORS OF LIB MBR.
 0000AC                             2366             =GPWLMLBN DS    A                       LAST BLOCK NUMBER OF LIB MEMBER
 0000B0                             2367             =GPWNXTAD DS    A                       ADDRESS OF NEXT ENTRY IN LIB DIR
                                    2368             =
 0000B4 00                          2369             =GPWLFLAG FLAG  ,                       LIBRARY FLAGS
 GPWLFLAG.GPWLREP  80 ONES          2373             =     FLAG  GPWLREP                     REPLACE PDS MEMBER
 GPWLFLAG.GPWLGOTD 40 ONES          2378             =     FLAG  GPWLGOTD                    GOT DIRECTORY BLK, SKIP READ
 GPWLFLAG.GPWLNEWD 20 ONES          2383             =     FLAG  GPWLNEWD                    NEW DIRECTORY, CREATE DIRE
 GPWLFLAG.GPWALIAS 10 ONES          2388             =     FLAG  GPWALIAS                    ALIAS USED FOR FSCALL, GPWLMN
 GPWLFLAG.GPWLNXTM 08 ONES          2393             =     FLAG  GPWLNXTM                    SCAN NEXT MEMBER IN DIR
 GPWLFLAG.GPWLLDMD 04 ONES          2398             =     FLAG  GPWLLDMD                    OS/LOAD MODULE PDS
 GPWLFLAG.GPWLLIST 02 ONES          2403             =     FLAG  GPWLLIST                    LIST OF MEMBERS IN INCLUDE, ETC
 GPWLFLAG.GPWLMORE 01 ONES          2408             =     FLAG  GPWLMORE                    UNUSED, MORE LIB FLAGS TO COME?
                                    2413             =*
                                    2414             =*  FILE INFO WORD
                                    2415             =*
 0000B8                             2416             =GPWUINFO DS    0F                      USER INFO FIELD
 0000B8                             2417             =GPWUIFMT DS    AL1                     FILE FORMAT
                                    2418             =GPWUILIB EQU   GPWUIFMT,X'80',1        LIBRARY
                                    2419             =GPWUILDF EQU   GPWUIFMT,X'40',1        LOADFILE
                                    2420             =GPWUIDA  EQU   GPWUIFMT,X'20',1        KEYED DIRECT ACCESS (URAM)
                                    2421             =GPWUIUND EQU   GPWUIFMT,X'10',1        UNDEFINED (URAM)
                                    2422             =GPWUIVBS EQU   GPWUIFMT,X'08',1        VAR. BLOCKED SPANNED  (URAM)
                                    2423             =GPWUIFLR EQU   GPWUIFMT,X'04',1        LRECL=
                                    2424             =GPWUIFN  EQU   GPWUIFMT,X'01',1        NUMBERED (LRECL ASSUMED)
1VPM      (VPM00) (09:49) (22MAR04) ORVYL'S PROGRAM MANAGER                                                                 Page   20
0D-Loc  Object Code    Addr1 Addr2  Stmt Lv Lineno    Source Statement           (Hibal 5, Asmedit 3.3)  HLASM R4.0  2004/03/22 09.49
+_____  ______ ____    _____ _____  ____ __ ______    ______ _________
0                                   2425             =GPWUIFI  EQU   GPWUIFMT,X'02',1        INTEGER (LRECL ASSUMED)
                                    2426             =GPWUIFE  EQU   GPWUIFMT,X'01',1        EDIT
                                    2427             =GPWUIFV  EQU   GPWUIFMT,X'02',1        VARIABLE
                                    2428             =GPWUIMSK EQU   GPWUIFMT,X'7F',1        FORMAT MASK
 0000B9                             2429             =         DS    AL1                     RESERVED
 0000BA                             2430             =GPWUILRC DS    AL2                     FILE LRECL
                                    2431             =
                                    2432             =GPWMAXBS EQU   X'02000'                MAXIMUM BLOCKSIZE, 8K
                                    2433             =
 0000BC                             2434             =GPWBLKSZ DS    AL2                     File Block Size
 0000C0                             2435             =GPWBN    DS    A                       NUMBER OF NEXT BLOCK
00000C4                             2437             =GPWFILN  DS    CL44
                                    2438             =GPWFGRP  EQU   GPWFILN+4,2,C'C'        GROUP
                                    2439             =GPWFUSR  EQU   GPWFILN+7,3,C'C'        USER
                                    2440             =GPWFNAM  EQU   GPWFILN+11,33,C'C'
 0000F0                000F0 000C4  2441             =         ORG   GPWFILN                 OVERLAP OSFPB
1VPM      (VPM00) (09:49) (22MAR04) ORVYL'S PROGRAM MANAGER                                                                 Page   21
0D-Loc  Object Code    Addr1 Addr2  Stmt Lv Lineno    Source Statement           (Hibal 5, Asmedit 3.3)  HLASM R4.0  2004/03/22 09.49
+_____  ______ ____    _____ _____  ____ __ ______    ______ _________
0                                   2443             =         COPY  OSFPB                   COPY IN FILE PARAMETER BLOCK
                                    2444             =*
                                    2445             =*  OS FILE PARAMETER BLOCK
                                    2446             =*
 0000C4                             2447             =OSFPBDS  DS    0F
 0000C4                             2448             =OSFDSN   DS    CL44                    DSNAME
 0000F0                             2449             =OSFMEM   DS    CL8                     MEMBER NAME
 0000F8                             2450             =OSFVOL   DS    CL6                     VOLUME ID
                                    2451             =
 0000FE 00                          2452             =OSFFDISP FLAG  ,                       DATA SET DISPOSITION FLAGS
 OSFFDISP.OSFNEW   C0 ONES          2456             =         FLAG  (OSFNEW,X'C0')          NEW DS
 OSFFDISP.OSFMOD   80 ONES          2465             =         FLAG  (OSFMOD,X'80')          MOD DS
 OSFFDISP.OSFOLD   40 ONES          2474             =         FLAG  (OSFOLD,X'40')          OLD DS
 OSFFDISP.OSFSHR   08 ONES          2483             =         FLAG  (OSFSHR,X'08')          SHARE (IMPLIES OLD)
 OSFFDISP.OSFIDSP  37 NZ            2492             =         FLAG  (OSFIDSP,X'37',NZ)      DISPOSITION RESERVED BITS
                                    2502             =
 0000FF 00                          2503             =OSFDSORG FLAG  ,                       DATA SET ORGANIZATION FLAGS
 OSFDSORG.OSFPS    40 ONES          2507             =         FLAG  (OSFPS,X'40')           SEQUENTIAL DATA SET
 OSFDSORG.OSFDA    20 ONES          2516             =         FLAG  (OSFDA,X'20')           DIRECT ACCESS DATA SET
 OSFDSORG.OSFPO    02 ONES          2525             =         FLAG  (OSFPO,X'02')           PARTITIONED DATA SET
 OSFDSORG.OSFIDSG  AD NZ            2534             =         FLAG  (OSFIDSG,X'AD',NZ)      DSORG RESERVED BITS
                                    2544             =
 000100 00                          2545             =OSFRECFM FLAG  ,                       DATA SET FORMAT FLAGS
 OSFRECFM.OSFRCFMU C0 ONES          2549             =         FLAG  (OSFRCFMU,X'C0')        RECFM=U
 OSFRECFM.OSFRCFMF 80 ONES          2558             =         FLAG  (OSFRCFMF,X'80')        RECFM=F
 OSFRECFM.OSFRCFMV 40 ONES          2567             =         FLAG  (OSFRCFMV,X'40')        RECFM=V
 OSFRECFM.OSFRCFMB 10 ONES          2576             =         FLAG  (OSFRCFMB,X'10')        RECFM=?B
 OSFRECFM.OSFRCFMS 08 ONES          2585             =         FLAG  (OSFRCFMS,X'08')        RECFM=?S
 OSFRECFM.OSFRCFMA 04 ONES          2594             =         FLAG  (OSFRCFMA,X'04')        RECFM=?A
 OSFRECFM.OSFRCFMM 02 ONES          2603             =         FLAG  (OSFRCFMM,X'02')        RECFM=?M
 OSFRECFM.OSFIRCFM 21 NZ            2612             =         FLAG  (OSFIRCFM,X'21',NZ)     RESERVED RECFM BITS
                                    2622             =
 000101                             2623             =OSFKEY   DS    X                       KEY LENGTH
 000102                             2624             =OSFLRECL DS    H                       LRECL
 000104                             2625             =OSFBLKSZ DS    H                       BLOCKSIZE
                                    2626             =
 000106 00                          2627             =OSFSPTYP FLAG  ,                       SPACE FLAGS
 OSFSPTYP.OSFSPCYL C0 ONES          2631             =         FLAG  (OSFSPCYL,X'C0')        CYLINDER ALLOCATION
 OSFSPTYP.OSFSPTRK 80 ONES          2640             =         FLAG  (OSFSPTRK,X'80')        TRACK ALLOCATION
 OSFSPTYP.OSFSPBLK 40 ONES          2649             =         FLAG  (OSFSPBLK,X'40')        BLOCK ALLOCATION
 OSFSPTYP.OSFSPCON 08 ONES          2658             =         FLAG  (OSFSPCON,X'08')        CONTIG
 OSFSPTYP.OSFSPMXG 04 ONES          2667             =         FLAG  (OSFSPMXG,X'04')        MAXIMUM CONTIG
 OSFSPTYP.OSFSPRND 01 ONES          2676             =         FLAG  (OSFSPRND,X'01')        ROUND
 OSFSPTYP.OSFISP   32 NZ            2685             =         FLAG  (OSFISP,X'32',NZ)       RESERVED SPACE BITS
                                    2695             =
 000107 00                          2696             =OSFFLAG  FLAG  ,                       MISCELLANY
 OSFFLAG.OSFSPRLS  20 ONES          2700             =         FLAG  (OSFSPRLS,X'20')        RLSE
 OSFFLAG.OSFIN     08 ONES          2709             =         FLAG  (OSFIN,X'08')           WILL READ DATA SET
 OSFFLAG.OSFOUT    04 ONES          2718             =         FLAG  (OSFOUT,X'04')          WILL WRITE DATA SET
 OSFFLAG.OSFUPD    02 ONES          2727             =         FLAG  (OSFUPD,X'02')          WILL UPDATE DATA SET
 OSFFLAG.OSFIFLG   D1 NZ            2736             =         FLAG  (OSFIFLG,X'D1',NZ)      RESERVED MISC BITS
                                    2746             =
 000108                             2747             =OSFSPQTY DS    F                       PRIMARY ALLOCATION QUANTITY
 00010C                             2748             =OSFSSQTY DS    F                       SECONDARY ALLOCATION QUANTITY
 000110                             2749             =OSFSDBLK DS    H                       NUMBER OF DIRECTORY BLOCKS
 000112                             2750             =OSFLIMCT DS    H                       LIMIT COUNT ON DA SEARCH
1VPM      (VPM00) (09:49) (22MAR04) ORVYL'S PROGRAM MANAGER                                                                 Page   22
0D-Loc  Object Code    Addr1 Addr2  Stmt Lv Lineno    Source Statement           (Hibal 5, Asmedit 3.3)  HLASM R4.0  2004/03/22 09.49
+_____  ______ ____    _____ _____  ____ __ ______    ______ _________
0                                   2751             =
 000114                             2752             =         DS    22X                     RESERVED
                                    2753             =
                                    2754             =OSFPB    EQU   OSFPBDS,*-OSFPBDS
 00012A                0012A 0012A  2755             =         ORG   ,
                                    2756             =GPWFCB   EQU   GPWFILE,*-GPWFILE,C'X'  LENGTH OF FILE BLOCK
1VPM      (VPM00) (09:49) (22MAR04) ORVYL'S PROGRAM MANAGER                                                                 Page   23
0D-Loc  Object Code    Addr1 Addr2  Stmt Lv Lineno    Source Statement           (Hibal 5, Asmedit 3.3)  HLASM R4.0  2004/03/22 09.49
+_____  ______ ____    _____ _____  ____ __ ______    ______ _________
0                                   2758             =* ALTERNATE FILE CONTROL BLOCK
                                    2759             =*
 00012C                             2760             =         DS    0F                      ALIGNMENT CHECK
 00012C                             2761             =GPWAFILE DS    0XL(L'GPWFCB)           ALTERNATE FILE CONTROL
 00012C                             2762             =GPWAFFL  DS    X                       ALTERNATE FILE FLAGS
 00012D                             2763             =GPWAFID  DS    X                       ALTERNATE FILE ID
 00012E                             2764             =GPWAFNL  DS    X                       ALTERNATE FILE NAME LEN
 00012F                             2765             =GPWALMNL DS    X                       ALTERNATE MEMBER LENGTH
 000130                             2766             =GPWALMN  DS    CL8                     ALTERNATE MEMBER NAME
 000138                             2767             =GPWALMN2 DS    CL8                     ALTERNAME MEMBER NAME2 (ALIAS)
 000140                             2768             =GPWALMF1 DS    X                       ALTERNATE MEMBER F1
 000141                             2769             =GPWALMF2 DS    X                       ALTERNATE MEMBER F2 FLGS
 000144                             2770             =GPWAMFBN DS    A                       ALTERNATE MEMBER FRST BLK
 000148                             2771             =GPWAMBCT DS    A                       ALTERNATE MEMBER # BLK'S
 00014C                             2772             =GPWAMLBN DS    A                       ALTERNATE MEMBER LST BLK
 000150                             2773             =GPWANXTA DS    A                       ALTERNATE NEXT ADDRESS
 000154                             2774             =GPWAFLG  DS    X                       ALTERNATE LIBRARY FLAGS
 000158                             2775             =GPWAUINF DS    A                       ALTERNATE FILE USER INFO
 00015C                             2776             =GPWABKSZ DS    AL2                     ALTERNATE File Block Size
 000160                             2777             =GPWABN   DS    A                       ALTERNATE FILE BLK #
 000164                             2778             =GPWAFN   DS    CL44                    ALTERNATE FILE NAME
 000190                00190 001CA  2779             =         ORG   GPWAFILE+L'GPWFCB
 0001CC                             2780             =GPWHCNT  DS    F                       COUNT OF HYBRID FILE BLOCKS
 0001D0                             2781             =GPWDELTA DS    F                       WYLBUR LINE NUMBER DELTA
                                    2782             =GPWWRK   EQU   GPWSTART,*-GPWSTART     CLEARED WORK AREA
-
                                    2784             =GPWTST   EQU   *                       1024 BYTE MAXIMUM LENGTH
 0001D4                001D4 00800  2785             =         ORG   GPWSTART+2*1024         PUT HEX BUFFER AT END
 000800                             2786             =         DC    0Y(*-GPWTST)            ASSEMBLY ERROR IF OVERFLOW
 000800                             2787             =GPWHXBUF DS    XL2048                  I/O BUFFER FOR HEX OPERATIONS
 001000                             2788             =GPWBUF   DS    XL8192                  GENERAL I/O BUFFER
                                    2789             =GPW      EQU   GPWSTART,*-GPWSTART,C'X'
1VPM      (VPM00) (09:49) (22MAR04) ORVYL'S PROGRAM MANAGER                                                                 Page   24
0D-Loc  Object Code    Addr1 Addr2  Stmt Lv Lineno    Source Statement           (Hibal 5, Asmedit 3.3)  HLASM R4.0  2004/03/22 09.49
+_____  ______ ____    _____ _____  ____ __ ______    ______ _________
0                                   2791      46.              COPY  PRGCAT
 000000                00000 0000C  2792             =PRGCAT   DSECT
 000000                             2793             =PCATPTR  DS    A                       POINTER TO START OF CATALOG
 000004                             2794             =PCATEND  DS    A                       POINTER TO END OF CATALOG
 000008                             2795             =PCATSTRT DS    F                       PROGRAM CATALOG STARTS HERE
-
                                    2797      48.              COPY  DENTRY
                                    2798             =* LIBRARY DIRECTORY ENTRY
                                    2799             =*
 000000                00000 00010  2800             =DENTRY   DSECT
 000000                             2801             =DNAME    DS    CL8
 000008                             2802             =DALINAM  DS    CL8                     MEMBER NAME IF ALIAS
                                    2803             =DALICD   EQU   C' '                    ALIAS IF HIGHER THAN THIS
                                    2804             =
 000010                00010 00008  2805             =         ORG   DALINAM
 000008                             2806             =DFLG1    DS    X
                                    2807             =*        EQU   X'80'                    DON'T USE
                                    2808             =*        EQU   X'40'                   DON'T USE
                                    2809             =DFL1SHR  EQU   X'20'                   PROGRAM IS SHARABLE
                                    2810             =DFL1REF  EQU   X'10'                   MODULE IS PROTECTED(REFRESHABLE)
                                    2811             =DFL1PRV  EQU   X'08'                   MODULE IS PRIVATE
                                    2812             =DFL1M31  EQU   X'04'                   START IN 31 BIT MODE
                                    2813             =DFL1PAG  EQU   X'01'                   MODULE REQUIRES PAGE ALIGNMENT
                                    2814             =
 000009                             2815             =DFLG2    DS    X
                                    2816             =DFLGS    EQU   DFLG1,*-DFLG1
 00000A                             2817             =DFBN     DS    AL3                     FIRST BLOCK NUMBER
 00000D                             2818             =DBCT     DS    AL3                     BLOCK COUNT
 000010                             2819             =DNEXT    DS    0F
                                    2820             =DFLD     EQU   DFLG1,*-DFLG1
                                    2821             =DENTSIZ  EQU   *-DENTRY
-
                                    2823      50.              COPY  DIRB
                                    2824             =*  LIBRARY DIRECTORY BLOCK
                                    2825             =*
 000000                00000 00800  2826             =DIRB     DSECT
 000000                             2827             =DIRBLINK DS    A                       BLOCK NUMBER OF NEXT DIRB
 000004                             2828             =DIRBBNUM DS    A                       NUMBER OF THIS DIRB
 000008                             2829             =         DS    2A                      ***RESERVED***
 000010                             2830             =DIRBDENT DS    127CL(DENTSIZ)          DIRECTORY ENTRIES
                                    2831             =DIRBLEN  EQU   *-DIRB                  LENGTH OF DIRB
1VPM      (VPM00) (09:49) (22MAR04) ORVYL'S PROGRAM MANAGER                                                                 Page   25
0D-Loc  Object Code    Addr1 Addr2  Stmt Lv Lineno    Source Statement           (Hibal 5, Asmedit 3.3)  HLASM R4.0  2004/03/22 09.49
+_____  ______ ____    _____ _____  ____ __ ______    ______ _________
0                                   2833      52.              COPY  SPB
                                    2834             =*******************************************************************
                                    2835             =*                                                                 *
                                    2836             =*    SPB - Shared Program Block                                   *
                                    2837             =*                                                                 *
                                    2838             =*******************************************************************
0000000                00000 00072  2840             =SPB      RECORD BEGIN
 000000                             2848  1          =SPBID      DS    CL4'SPB'
 000004                             2849  1          =SPBNEXT    DS    A                       SPB CHAIN
 000008                             2850  1          =SPBNAME    DS    CL8                 NAME OF SHARED PROGRAM
 000010                             2851  1          =SPBPROG    DS    CL8                 Progran name
 000018                             2852  1          =SPBFILE    DS    CL44                    FILE NAME
                                    2853  1          =
 000044 00                          2854  1          =SPBFL      FLAG  ,                       FLAGS
 SPBFL.SPBFSPI     80 ONES          2858  1          =           FLAG  SPBFSPI                 ACCESS TO SPIRES ONLY FILES
 SPBFL.SPBFPRT     40 ONES          2863  1          =           FLAG  SPBFPRT                 PAGES ARE PROTECTED
 SPBFL.SPBFAUTH    20 ONES          2868  1          =           FLAG  SPBFAUTH                PROGRAM IS AUTHORIZED
 SPBFL.SPBFPURGABL 10 ONES          2873  1          =           FLAG  SPBFPURGABLE        - Purge program if no users
 SPBFL.SPBFLHI     08 ONES          2878  1          =           FLAG  SPBFLHI                 LOAD PROGRAM ABOVE THE LINE
 SPBFL.SPBFM31     04 ONES          2883  1          =           FLAG  SPBFM31                 START IN 31 BIT MODE
 000045 00                          2888  1          =SPBFL2     FLAG  ,
 SPBFL2.SPBFLOAD   80 ONES          2892  1          =           FLAG  SPBFLOAD                PROGRAM BENG LOADED
 SPBFL2.SPBFMEM    40 ONES          2897  1          =           FLAG  SPBFMEM                 MEMORY ALLOC FOR PROGRAM
 SPBFL2.SPBFACTV   20 ONES          2902  1          =           FLAG  SPBFACTV                PROGRAM IS ACTIVE
 SPBFL2.SPBFCORPSE 10 ONES          2907  1          =           FLAG  SPBFCORPSE          - Result of a refresh
                                    2912  1          =
 000048                             2913  1          =SPBORGIN   DS    A                       START ADDRESS OF PROGRAM
 00004C                             2914  1          =SPBSIZE    DS    A                       LENGTH OF PROGRAM AREA
 000050                             2915  1          =SPBEP      DS    A                       ENTRY POINT
 000054                             2916  1          =SPBNU      DS    A                       NO. OF USERS SIGNED ON
 000058                             2917  1          =SPBSSB     DS    A                       Chain of shared symbols
 00005C                             2918  1          =SPBNREF    DS    A                       # users ref'ing symbols
 000060                             2919  1          =SPBRESRV   DS    H                       RESERVE REQUIREMENT
                                    2920  1          =
                                    2921  1          =SPBCWASZ   EQU   16,,C'N'                COMMON WORK AREA
 000062                             2922  1          =SPBCWA     DS    (SPBCWASZ)X
 000072                00072 00072  2923             =         END   ,
1VPM      (VPM00) (09:49) (22MAR04) ORVYL'S PROGRAM MANAGER                                                                 Page   26
0D-Loc  Object Code    Addr1 Addr2  Stmt Lv Lineno    Source Statement           (Hibal 5, Asmedit 3.3)  HLASM R4.0  2004/03/22 09.49
+_____  ______ ____    _____ _____  ____ __ ______    ______ _________
0000000                00000 01000  2933      54.     LNKPAGE  RECORD BEGIN
 000000                             2941  1   55.     LNKPSTRT   DS    0D
                                    2942  1   56.                COPY  LCB  FULLST=YES,DSECT=NO
                                    2943  1          =*  LOADER CONTROL BLOCK
                                    2944  1          =*
                                    2945  1          =*        THE ITEMS MARKED (SET) MUST BE INITIALIZED BY THE CALLER
                                    2946  1          =*        BEFORE THE CALL TO LDINIT. THESE VALUES ARE NOT CHANGED BY
                                    2947  1          =*        THE LOADER. ALL OTHER  CELLS IN THE CONTROL BLOCK ARE SET
                                    2948  1          =*        AND MAINTAINED BY THE LOADER.
                                    2949  1          =*
 000000                             2950  1          =LCBSTART   DS    0F                      LOADER CONTROL BLOCK
 000000                             2951  1          =LCBCORE    DS    A                       START OF USER PROGRAM AREA (SET)
 000004                             2952  1          =LCBCLEN    DS    A                       LEN OF USER PROGRAM AREA (SET)
 000008                             2953  1          =LCBMAP     DS    A                       START OF MAP AREA (SET)
 00000C                             2954  1          =LCBMPLEN   DS    A                       LEN OF MAP AREA (SET)
 000010                             2955  1          =LCBRF      DS    A                       RELOCATION FACTOR (SET)
 000014                             2956  1          =LCBCI      DS    CL80                    CARD IMAGE (SET FOR EACH LDGO)
 000064                             2957  1          =LCBIDRFL   DS    AL4                     FLAGS FOR/FROM LOAD MODULE
 000068                00068 00064  2958  1          =           ORG   LCBIDRFL                OVERLAY FLAGS
 000064 00                          2959  1          =LCBXFL     FLAG  ,
 LCBXFL.LCBXFOSN   80 ONES          2963  1          =           FLAG  (LCBXFOSN,X'80')        USE OS ENTRY CONVENTIONS
 LCBXFL.LCBXFOS    40 ONES          2972  1          =           FLAG  (LCBXFOS,X'40')         INTERCEPT OS SVCS
 LCBXFL.LCBXFFRT   20 ONES          2981  1          =           FLAG  (LCBXFFRT,X'20')        LINK TO FORTRAN LIBRARY
 LCBXFL.LCBXFTST   10 ONES          2990  1          =           FLAG  (LCBXFTST,X'10')        TEST ATTRIBUTE
 LCBXFL.LCBXFURM   02 ONES          2999  1          =           FLAG  (LCBXFURM,X'02')        LINK TO URAM
                                    3008  1          =
 000065                             3009  1          =LCBYFL     DS    X
                                    3010  1          =
 000066                             3011  1          =LCBZFL     DS    X
                                    3012  1          =
 000067                             3013  1          =LCBWFL     DS    X
 000068                             3014  1          =LCBMCCW    DS    2A                      CCW FOR READING MODULE TEXT
 000070                             3015  1          =LCBEP      DS    A                       ENTRY POINT
 000074                             3016  1          =LCBMXC     DS    F                       MAX RETURN CODE SO FAR
 000078                             3017  1          =LCBLC      DS    F                       LOCATION COUNTER
 00007C 00                          3018  1          =LCBFL      FLAG  ,                       FLAGS FOR LOADER
 LCBFL.LCBUNDEF    80 ONES          3022  1          =           FLAG  (LCBUNDEF,X'80')        SEARCH IS FOR UNDEFINEDS
 LCBFL.LCBFATN     40 ONES          3031  1          =           FLAG  (LCBFATN,X'40')         ATTENTION ON ERROR MESSAGE
 LCBFL.LCBFPAGN    20 ONES          3040  1          =           FLAG  (LCBFPAGN,X'20')        NEXT MODULE GETS PAGE ALIGNMENT
 LCBFL.LCBFMI      08 ONES          3049  1          =           FLAG  (LCBFMI,X'08')          PROCESSING LOAD MODULE INPUT
 LCBFL.LCBFMO      04 ONES          3058  1          =           FLAG  (LCBFMO,X'04')          PRODUCING LOAD MODULE OUTPUR
 LCBFL.LCBFPAG     01 ONES          3067  1          =           FLAG  (LCBFPAG,X'01')         MODULE REQUIRES PAGE ALIGNMENT
 00007D                             3076  1          =LCBSEQ     DS    PL3                      SEQUENCE NO.
 000080                             3077  1          =LCBIDENT   DS    CL4                     MODULE IDENT
0                                   3079  1          =* CSD - CONSOLIDATED SYMBOL DIRECTORY
                                    3080  1          =*
 000084                             3081  1          =LCBCHF     DS    A                       L(FIRST FREE CSD ENTRY)
                                    3082  1          =LCBCSD     EQU   LCBMAP                  CSD TABLE ADDRESS
 000088                             3083  1          =LCBCSDH    DS    A                       HEAD  OF CSD CHAIN
 00008C                             3084  1          =LCBCSDLC   DS    A                       CSD LOCATION COUNTER
                                    3085  1          =*        .
                                    3086  1          =*        CSD AND RLD GROW TOWARDS EACH OTHER
                                    3087  1          =*        .
                                    3088  1          =* RLD - RELOCATION DICTIONARY
 000090                             3089  1          =LCBRLDLC   DS    A                       RLD LOCATION COUNTER
1VPM      (VPM00) (09:49) (22MAR04) ORVYL'S PROGRAM MANAGER                                                                 Page   27
0D-Loc  Object Code    Addr1 Addr2  Stmt Lv Lineno    Source Statement           (Hibal 5, Asmedit 3.3)  HLASM R4.0  2004/03/22 09.49
+_____  ______ ____    _____ _____  ____ __ ______    ______ _________
0000094                             3090  1          =LCBRHF     DS    A                       L(FIRST FREE RLD ENTRY)
 000098                             3091  1          =LCBRLD     DS    A
0                                   3093  1          =* SD - CSECT (SD) ID TABLE
                                    3094  1          =*
 00009C                0009C 00098  3095  1          =           ORG   LCBRLD                  ... RLD AND SD TABLES MEET
 000098                             3096  1          =LCBSD      DS    A                       SD TABLE
 00009C                             3097  1          =LCBSDLC    DS    A                       SD TABLE ALLOCATOR
 0000A0                             3098  1          =LCBSDEND   DS    A                       SD TABLE LIMIT
0                                   3100  1          =* RNT - RENUMBERING TABLE
                                    3101  1          =*
 0000A4                000A4 000A0  3102  1          =           ORG   LCBSDEND                ... SD AND RNT TABLES MEET
 0000A0                             3103  1          =LCBRNT     DS    A                       RNT TABLE ADDRESS
 0000A4                             3104  1          =LCBNRNTE   DS    H                       NUMBER OF RNT ENTRIES
 0000A8                             3105  1          =LCBLSD     DS    A                       CSD POINTER (LENGTH ON END CARD)
 0000AC                             3106  1          =LCBCHRPH   DS    A                       CHANGE/REPLACE LIST HEAD
 0000B0                             3107  1          =LCBALIH    DS    A                       ALIAS CHAIN HEAD
 0000B4                             3108  1          =LCBSRCH    DS    2A                      SAVE AREA FOR CSD SCAN
 0000BC                             3109  1          =LCBMLEN    DS    A                       LENGTH OF LOAD MODULE
0                                   3111  1          =* MODULE OUTPUT CONTROL
                                    3112  1          =*
 0000C0                             3113  1          =LCBMOCSD   DS    A                       CSD POINTER/MODULE OUTPUT
 0000C4                             3114  1          =LCBMORNT   DS    A                       RNT POINTER/MODULE OUTPUT
 0000C8                             3115  1          =LCBMOLC    DS    A                       TEXT POINTER/MODULE OUTPUT
 0000CC                             3116  1          =LCBMOSD    DS    A                       SD POINTER/MODULE OUTPUT
 0000D0                             3117  1          =LCBMOMTB   DS    H                       MAX TEXT BLOCK/MODULE OUTPUT
 0000D2                             3118  1          =LCBMOID    DS    H                       CURRENT ESD ID/MODULE OUTPUT
 0000D4                             3119  1          =LCBMORLD   DS    A                       RLD POINTER/MODULE OUTPUT
 0000D8                             3120  1          =LCBMOCCW   DS    2A                      ADDR,LEN/MODULE TEXT OUTPUT
 0000E0                             3121  1          =LCBMOSID   DS    H                       ID OF SD FOR CURRENT LR'S
 0000E2 00                          3122  1          =LCBMFL     FLAG  ,                       MODULE I/O FLAGS
 LCBMFL.LCBMFCSD   80 ONES          3126  1          =           FLAG  LCBMFCSD                CSD OUTPUT FINISHED
 LCBMFL.LCBMFIDR   40 ONES          3131  1          =           FLAG  LCBMFIDR                IDR OUTPUT FINISHED
 LCBMFL.LCBMFTXT   20 ONES          3136  1          =           FLAG  LCBMFTXT                TEXT OUTPUT FINISHED
 LCBMFL.LCBMFCCW   10 ONES          3141  1          =           FLAG  LCBMFCCW                CCW DEFINED FOR TEXT OUTPUT
 LCBMFL.LCBMFRLD   08 ONES          3146  1          =           FLAG  LCBMFRLD                RLD OUTPUT FINISHED
 LCBMFL.LCBMFSDD   04 ONES          3151  1          =           FLAG  LCBMFSDD                ALL SD ESD'S OUTPUT
 0000E3                000E3 00100  3156  1          =           ORG   LCBSTART+256
 000100                             3157  1          =LCBEND     DS    0F
                                    3158  1          =LCB        EQU   LCBSTART,*-LCBSTART
1VPM      (VPM00) (09:49) (22MAR04) ORVYL'S PROGRAM MANAGER                                                                 Page   28
0D-Loc  Object Code    Addr1 Addr2  Stmt Lv Lineno    Source Statement           (Hibal 5, Asmedit 3.3)  HLASM R4.0  2004/03/22 09.49
+_____  ______ ____    _____ _____  ____ __ ______    ______ _________
0000100                             3160  1   58.     LNKANAM    DS    CL8                     ALIAS NAME
 000108                             3161  1   59.     LNKEP      DS    CL8                     NAME OF SPECIFIED ENTRY POINT
 000110                             3162  1   60.     LNKCOML    DS    H                       LENGTH OF CURRENT COMMAND
 000112                             3163  1   61.     LNKCOMAR   DS    CL3                     -> ARROW PRECEDING COMMAND PRINT
 000115                             3164  1   62.     LNKCOM     DS    CL133                   CURRENT CONTROL STATEMENT
                                    3165  1   63.
 00019A                             3166  1   64.     LNKLMN     DS    CL8                     LOAD MODULE NAME
 0001A2                             3167  1   65.     LNKFN      DS    CL44                    FILE NAME
                                    3168  1   66.     LNKENQ     EQU   LNKLMN,*-LNKLMN,C'X'    ENQUEUE ID
                                    3169  1   67.
 0001CE 00                          3170  1   68.     LNKFL      FLAG  ,                       LINK FLAG
 LNKFL.LNKFTYPD    20 ONES          3174  1   69.                FLAG  (LNKFTYPD,X'20')        CURRENT STATEMENT HAS BEEN TYPED
 LNKFL.LNKFSPNQ    10 ONES          3183  1   70.                FLAG  (LNKFSPNQ,X'10')        SPBID IS ENQUEUED
 LNKFL.LNKFEOM     08 ONES          3192  1   71.                FLAG  (LNKFEOM,X'08')         END OF MODULE REACHED
 LNKFL.LNKFREDO    04 ONES          3201  1   72.                FLAG  (LNKFREDO,X'04')        RE-PROCESS LAST COMMAND
 LNKFL.LNKFERR     02 ONES          3210  1   73.                FLAG  (LNKFERR,X'02')         ERROR IN LINK
 LNKFL.LNKFFREE    01 ONES          3219  1   74.                FLAG  (LNKFFREE,X'01')        FREE LINK CONTROL PAGE?
                                    3228  1   75.
 0001CF 00                          3229  1   76.     LNKPFL     FLAG  ,                       'PARM' FLAG
 LNKPFL.LNKPFLWN   80 ONES          3233  1   77.                FLAG  (LNKPFLWN,X'80')        'WARN' OPTION - PRINT ERR
 LNKPFL.LNKPFLET   40 ONES          3242  1   78.                FLAG  (LNKPFLET,X'40')        'LET' OPTION
 LNKPFL.LNKPFCAL   20 ONES          3251  1   79.                FLAG  (LNKPFCAL,X'20')        'CALL' OPTION
 LNKPFL.LNKPFLST   10 ONES          3260  1   80.                FLAG  (LNKPFLST,X'10')        'LIST' OPTION
 LNKPFL.LNKPFMAP   08 ONES          3269  1   81.                FLAG  (LNKPFMAP,X'08')        'MAP' OPTION
 LNKPFL.LNKPFREN   04 ONES          3278  1   82.                FLAG  (LNKPFREN,X'04')        REENTRANT - SHARABLE
 LNKPFL.LNKPFPRT   02 ONES          3287  1   83.                FLAG  (LNKPFPRT,X'02')        PROTECTED PROGRAM
 LNKPFL.LNKPFPRV   01 ONES          3296  1   84.                FLAG  (LNKPFPRV,X'01')        PRIVATE PROGRAM
                                    3305  1   85.
 0001D0 00                          3306  1   86.     LNKPFL2    FLAG  ,                       'PARM2' FLAG
 LNKPFL2.LNKPFM31  80 ONES          3310  1   87.                FLAG  (LNKPFM31,X'80')        'M31' OPTION - START 31 BIT
                                    3319  1   88.
 0001D4                             3320  1   89.     LNKZPTRS   DS    2A                      POINTERS TO ZAP CSECT
 0001DC                             3321  1   90.     LNKZBASE   DS    A                       ZAP BASE VALUE
 0001E0                             3322  1   91.     LNKCLW     DS    A                       ADDRESS OF CLW
                                    3323  1   92.     *
                                    3324  1   93.     *
                                    3325  1   94.     * CURRENT LINK STACK ENTRY
                                    3326  1   95.     *
 0001E4                             3327  1   96.     LSESTART   DS    0F
 0001E4                             3328  1   97.     LNKPFFL    DS    X                       GPW PROCESSING FLAGS
 0001E5                             3329  1   98.     LNKFID     DS    X                       GPW FILE ID
 0001E6 00                          3330  1   99.     LNKSFL     FLAG  ,                       STACK ENTRY FLAGS
 LNKSFL.LNKSFTER   80 ONES          3334  1  100.                FLAG  LNKSFTER                RETURN TO TERMINAL
 LNKSFL.LNKSFED    40 ONES          3339  1  101.                FLAG  LNKSFED                 EDIT/CARD SWITCH
 LNKSFL.LNKSFRRB   20 ONES          3344  1  102.                FLAG  LNKSFRRB                RE-READ BUFFER
                                    3349  1  103.
 0001E7                             3350  1  104.     LNKUSER    DS    CL(L'UUU)               USER FOR INCLUDES
 0001EA                             3351  1  105.     LNKGRP     DS    CL(L'GG)                GROUP FOR INCLUDES
                                    3352  1  106.     LNKACCT    EQU   LNKUSER,*-LNKUSER,C'X'
                                    3353  1  107.
 0001EC                             3354  1  108.     LNKBN      DS    A                       FILE BLOCK NUMBER
 0001F0                             3355  1  109.     LNKLN      DS    A                       LINE NUMBER
 0001F4                             3356  1  110.     LNKBO      DS    H                       BLOCK OFFSET
 0001F6                             3357  1  111.     LNKBL      DS    H                       BLOCK LENGTH
 0001F8                             3358  1  112.     LNKLMLBN   DS    A                       LST BLOCK OF LIB MEMBER
 0001FC                             3359  1  113.     LNKUINFO   DS    A                       USER INFO FIELD
1VPM      (VPM00) (09:49) (22MAR04) ORVYL'S PROGRAM MANAGER                                                                 Page   29
0D-Loc  Object Code    Addr1 Addr2  Stmt Lv Lineno    Source Statement           (Hibal 5, Asmedit 3.3)  HLASM R4.0  2004/03/22 09.49
+_____  ______ ____    _____ _____  ____ __ ______    ______ _________
0                                   3360  1  114.     LSE        EQU   LSESTART,*-LSESTART,C'X'
                                    3361  1  115.     *
                                    3362  1  116.     * LINK STACK
                                    3363  1  117.     *
 000200                             3364  1  118.     LNKSTACK   DS    14XL(L'LSE)             LINK STACK
 000388                             3365  1  119.     LNKSTKP    DS    A                       STACK POINTER
                                    3366  1  120.     *
                                    3367  1  121.     * SYSLMOD AND SYSLIB NAMES
                                    3368  1  122.     *
 00038C                             3369  1  123.     LNKSYSMD   DS    CL(L'GPWFCB)            LENGTH, NAME, ATTACH ID
 00042A                             3370  1  124.     LNKSYSLB   DS    8CL(L'GPWFCB)
 00091A                             3371  1  125.     LNKSYSCT   DS    H                       NUMBER OF SYSLIBS
                                    3372  1  126.     *
                                    3373  1  127.     *  CALLING COMMAND AND PARM
                                    3374  1  128.     *
 00091C                             3375  1  129.     LNKCLCMD   DS    0F,CL135                   PROGRAM CALLING COMMAND
 0009A4                             3376  1  130.     LNKCLPRM   DS    0F,CL135                PROGRAM CALLING PARM
 000A30                             3377  1  131.                DS    0D
                                    3378  1  132.     LNKTST     EQU   *                       TEST FOR PAGE OVERFLOW
 000A30                00A30 01000  3379  1  133.                ORG   LNKPSTRT+4096           FILL OUT TO PGE BNDRY
 001000                             3380  1  134.                DC    0Y(*-LNKTST)            TEST FOR OVERFLOW
 001000                01000 01000  3381     135.              END   ,
1VPM      (VPM00) (09:49) (22MAR04) ORVYL'S PROGRAM MANAGER                                                                 Page   30
0D-Loc  Object Code    Addr1 Addr2  Stmt Lv Lineno    Source Statement           (Hibal 5, Asmedit 3.3)  HLASM R4.0  2004/03/22 09.49
+_____  ______ ____    _____ _____  ____ __ ______    ______ _________
0000000                00000 0016C  3391     137.     WAPM     DSECT
                                    3392     138.              VSA   SR,R11                  SAVE AREA
 000000                             3393    01-VSA   +         DS    (R11+1-(SR)+16*((SR)/(R11+1))/((SR)/(R11+1)))F
 000028                             3394     139.     WAR15    DS    3F                      SAVE FOR R15,R0,R1
 000034 00                          3395     140.     WAFL     FLAG  ,
 WAFL.WAFLACT      80 ONES          3399     141.              FLAG  WAFLACT                 'ACTIVE'
 WAFL.WAFLEXIT     40 ONES          3404     142.              FLAG  WAFLEXIT                'EXIT' ON LINK
 WAFL.WAFLFILE     20 ONES          3409     143.              FLAG  WAFLFILE
 WAFL.WAFLLDFL     10 ONES          3414     144.              FLAG  WAFLLDFL                LOAD FILE PRIME
 WAFL.WAFLENT      08 ONES          3419     145.              FLAG  WAFLENT
 WAFL.WAFLLST      04 ONES          3424     146.              FLAG  WAFLLST
 WAFL.WAFLPUB      02 ONES          3429     147.              FLAG  WAFLPUB                 SEARCH PUBLIC LIBRARY
 WAFL.WAFLNOSH     01 ONES          3434     148.              FLAG  WAFLNOSH                NO SHARE ON CALL
                                    3439     149.
 000035 00                          3440     150.     WAFLG    FLAG  ,
 WAFLG.WAFLGPAU    80 ONES          3444     151.              FLAG  WAFLGPAU                PAUSE
 WAFLG.WAFLGERA    40 ONES          3449     152.              FLAG  WAFLGERA                MEMBER REPLACED, NO SAVED
 WAFLG.WAFLGDSZ    20 ONES          3454     153.              FLAG  WAFLGDSZ                DEFAULT MAP SIZE SUPPLIED
 WAFLG.WAFLNXMB    10 ONES          3459     154.              FLAG  WAFLNXMB                PROCESS MULT MEMBERS
 WAFLG.WAFLGLKF    08 ONES          3464     155.              FLAG  WAFLGLKF                PROCESS 'LINK FROM' FILE
 WAFLG.WAFLGSPI    04 ONES          3469     156.              FLAG  WAFLGSPI                SPIRES PROCESSOR
 WAFLG.WAFLGSPL    02 ONES          3474     157.              FLAG  WAFLGSPL                SHARED PROGRAM LOAD
                                    3479     158.
 000036 00                          3480     159.     WAGOFL   FLAG  ,                       GO OPTIONS FLAG
 WAGOFL.WAGONOL    80 ONES          3484     160.              FLAG  WAGONOL                 NOLIST OPTION
 WAGOFL.WAGOTO     40 ONES          3489     161.              FLAG  WAGOTO                  TO <ADDR> OPTION
 WAGOFL.WAGOTR     20 ONES          3494     162.              FLAG  WAGOTR                  TRAP <ADDR> OPTION
 WAGOFL.WAUTOSLB   10 ONES          3499     163.              FLAG  WAUTOSLB                SYSLIB BEING PROCESSED
 WAGOFL.WAUTOUXS   08 ONES          3504     164.              FLAG  WAUTOUXS                UNDEFINEDS EXIST
 WAGOFL.WAUTOFTM   04 ONES          3509     165.              FLAG  WAUTOFTM                PRIME SYSLIB FLAG
 WAGOFL.WAUTOPXT   02 ONES          3514     166.              FLAG  WAUTOPXT                PRINT EXTERNALS
 WAGOFL.WAUTOFMB   01 ONES          3519     167.              FLAG  WAUTOFMB                START SCAN AT LAST MEMBER
 WAGOFL.WAUTOXPS   20 ONES          3524     168.              FLAG  (WAUTOXPS,WAGOTR)       EXTRA PASS THRU SYSLIB
 000038                             3532     169.     WAGOTOAD DS    A                       GO TO ADDRESS
 00003C                             3533     170.     WAGOTRAP DS    A                       GO TRAP ADDRESS
 000040                             3534     171.     WAGOEVCT DS    A                       GO EVENT COUNT
 000044                             3535     172.     WAPARMP  DS    2A                      PARM POINTERS
 00004C                             3536     173.     WAMBLLN  DS    A                       MEMBER LIST LENGTH
 000050                             3537     174.     WAMBLNX  DS    A                       NEXT MEMBER LIST ADDRESS
 000054                             3538     175.     WALNKPFL DS    X                       COPY IN NEW PARMS
 000055                             3539     176.     WALNKPF2 DS    X                       COPY IN NEW PARMS
 000056                             3540     177.     WALCBXFL DS    X                       COPY IN NEW PARMS
 000057 00                          3541     178.     WAFNOFLG FLAG  ,                       'NO' PARM SWITCHES
 WAFNOFLG.WAFNOVRD 80 ONES          3545     179.              FLAG  WAFNOVRD                OVERRIDE FLAG
 WAFNOFLG.WAFNOWN  40 ONES          3550     180.              FLAG  WAFNOWN                 NOWARN ON LINK OR CALL
 WAFNOFLG.WAFNOSN  20 ONES          3555     181.              FLAG  WAFNOSN                 NOOSNT ON LINK
 WAFNOFLG.WAFNCAL  10 ONES          3560     182.              FLAG  WAFNCAL                 'NOCALL' ON LINK OR CALL
 000058                             3565     183.     WALCMPLN DS    F                       HOLD PARM MAP SIZE
 00005C                             3566     184.     WASLBNX  DS    H                       CURRENT SYSLIB COUNTER
 000060                             3567     185.     WAPMEND  DS    0F
 000060                             3568     186.     WACMDL   DS    H                       COMMAND LENGTH
 000062                             3569     187.     WACMD    DS    CL133                   COMMAND
 0000E7                             3570     188.     WAMBERS  DS    CL133                   INCLUDE MEMBER LIST
                                    3571     189.
 00016C                0016C 00038  3572     190.              ORG   WAGOTOAD
                                    3573     191.              SMFDATA ID=SMFI
1VPM      (VPM00) (09:49) (22MAR04) ORVYL'S PROGRAM MANAGER                                                                 Page   31
0D-Loc  Object Code    Addr1 Addr2  Stmt Lv Lineno    Source Statement           (Hibal 5, Asmedit 3.3)  HLASM R4.0  2004/03/22 09.49
+_____  ______ ____    _____ _____  ____ __ ______    ______ _________
0                                   3574             +*
                                    3575             +*  SMF DATA FIELDS FOR ORVYL SMF RECORDS
                                    3576             +*
 000038                             3577    01-SMFDA +SMFICBLK DS    F                       TIME BLOCK FOR ACCOUNTING
 00003C                             3578    01-SMFDA +SMFICCPU DS    F                       CPU TIME SINCE LAST RECORD
 000040                             3579    01-SMFDA +SMFICVM  DS    F                       VIRT. MEM. (PAGE-SEC)
 000044                             3580    01-SMFDA +SMFICIO  DS    F                       I/O COUNT
 000048                             3581    01-SMFDA +SMFICELT DS    F                       ELAPSED TIME (.01 SEC.)
 00004C                             3582    01-SMFDA +SMFIPROG DS    CL8                     PROGRAM NAME
                                    3583             +
                                    3584    01-SMFDA +SMFISTAT EQU   174                     SMF ID FOR ORVYL STATISTICS
                                    3585     192.     SMFILEN  EQU   *-SMFICCPU
 000054                00054 0016C  3586     193.              ORG   ,
                                    3587     194.     WAPMSIZ  EQU   *-WAPM
-                                   3589     196.
 000000                00000 0005A  3590     197.     WAPLC    DSECT
                                    3591     198.              VSA   R0,R10                  SAVE AREA
 000000                             3592    01-VSA   +         DS    (R10+1-(R0)+16*((R0)/(R10+1))/((R0)/(R10+1)))F
 00002C                             3593     199.     WADEVFL  DS    X
 00002D                             3594     200.     WADEVPR  DS    X
 00002E                             3595     201.     WADEVNM  DS    44X
                                    3596     202.     WADEVINF EQU   WADEVFL,*-WADEVFL,C'X'
                                    3597     203.     WAPLCSZ  EQU   *-WAPLC
1VPM      (VPM00) (09:49) (22MAR04) ORVYL'S PROGRAM MANAGER                                                                 Page   32
0D-Loc  Object Code    Addr1 Addr2  Stmt Lv Lineno    Source Statement           (Hibal 5, Asmedit 3.3)  HLASM R4.0  2004/03/22 09.49
+_____  ______ ____    _____ _____  ____ __ ______    ______ _________
0000014                00000 02F20  3600     206.     VPM      CSECT
 USING  CLW,R10                     3602     207.              USING CLW,CLWR                ##
 USING  WAPM,R8                     3611     208.              USING WAPM,WAR                ##
 USING  GPW,R12                     3620     209.              USING GPW,GPWR                ##
 000014 902B D000/188D       00000  3629     210.     PROGRAMS VENTER SR,R11,WAPMSIZ
 00001A 41D0 D16C/0D70       0016C  3634             +
 000020 4160 7FFE            00FFE  3649     211.              LA    BRR,4094(,BR)
 USING  *,R7
 USING  $$$69B-4+4094,R6            3650     212.              USING *-4+4094,BRR            ##
 000024 90F1 8028            00028  3660     213.              STM   R15,R1,WAR15            SAVE ENTRY INFO
 000028                             3661     214.              CLEAR (WAFL,WAPMEND-WAFL)     CLEAR WORK AREA
 000028 D72B 8034 8034 00034 00034  3667             +
 00002E D201 8060 A028 00060 00028  3668     215.              MVC   WACMDL,CLWIBUFN         SAVE COMMAND LENGTH
 000034 D2EA 8062 A02D 00062 0002D  3669     216.              MVC   WACMD(CLWIBUFL),CLWIBUF  AND COMMAND
 00003A 58B0 A250            00250  3670     217.              L     LCBR,CLWLNKP
 00003E 9180 A209      00209        3671     218.              IF    CLWPFSUP,LSUP           LINK SET UP
 000042 4710 7064            00084  3683             +
 000046 4110 0FFF            00FFF  3689     219.              GETCLW L'LNKPAGE-1,L'LNKPAGE-1 GET A PAGE FOR LINK
 00004A 41F0 0FFF            00FFF  3703             +
 00004E 5890 6DF2/0D99       01E10  3706             +
 000054 4780 7054            00074  3708     220.              BZ    PMSETUP                 CORE OBTAINED
 000058 4110 6F26            01F44  3709     221.              VSEG  'Not enough memory for Link'
 00005C 4100 001A            0001A  3713             +
 000060 5890 6DF6/0D99       01E14  3716             +
 000066 5890 6DFA/0D99       01E18  3718     222.              VCALL TYPEIT
 00006C 18D8/982B D000       00000  3722     223.              VEXIT SR,R11
 000072 07F9                        3726             +
                                    3727     224.
 000074 5010 A250            00250  3728     225.     PMSETUP  ST    R1,CLWLNKP              LINK PAGE POINTER
 000078 9680 A209      00209        3729     226.              SET   CLWPFSUP                MARK SETUP
 00007C 18B1                        3735     227.              LR    LCBR,R1
 USING  LNKPAGE,R11                 3736     228.              USING LNKPAGE,LCBR            ##
 00007E 5890 6DFE/0D99       01E1C  3745     229.              VCALL CLRLP                   CLEAR LINK PAGE
1VPM      (VPM00) (09:49) (22MAR04) ORVYL'S PROGRAM MANAGER                                                                 Page   33
0Current Usings:  ($$$69B-4+4094,R6) (*,R7) (WAPM,R8) (CLW,R10) (LNKPAGE,R11) (GPW,R12)
0Loc    Object Code    Addr1 Addr2  Stmt Lv Lineno    Source Statement           (Hibal 5, Asmedit 3.3)  HLASM R4.0  2004/03/22 09.49
+___    ______ ____    _____ _____  ____ __ ______    ______ _________
0                                   3750     231.     * LINK PAGE IS SET UP. PERFORM FILE CONTROL SETUP.
                                    3751     232.     * MAIN BASE REGISTER POINTS TO EXIT ROUTINE.
                                    3752     233.     *
 000084                             3753     234.     LSUP     LABEL ,
 000084 9867 6DD2            01DF0  3755     235.              LM    BRR,BR,=A(BASE+4096,BASE)
 DROP   *,R7                        3756     236.              USING BASE,BR,BRR             ##
 USING  BASE,R7
 DROP   $$$69B-4+4094,R6
 USING  BASE+4096,R6
 000088 9068 A358            00358  3779     237.              STM   BRR,WAR,CLWQRET         SET QUICK RETURN REGISTERS
 00008C 4D90 6D26/0000       01DBC  3780     238.              FSCALL FILSETUP
 000092 47F0 706C            00102  3784     239.              B     SETUPRTN
                                    3785     240.     BASE     EQU   *
                                    3786     241.     * EXIT BRANCH TABLE
 000096 47F0 7008            0009E  3787     242.              B     PMEXIT                  LEAVE PROGRAM MANAGER
 00009A 47F0 7040            000D6  3788     243.              B     TYPERR
                                    3789     244.     *
                                    3790     245.     *
                                    3791     246.     * EXIT FROM PROGRAM MANAGER. (BRANCH TO BASE REGISTER)
 00009E                             3792     247.     PMEXIT   LABEL ,
 00009E 4D90 6D06            01D9C  3794     248.              LCALL AMODE24                 RETURN TO 24 BIT MODE
 0000A2 58B0 A250            00250  3796     249.              L     LCBR,CLWLNKP            ENSURE VALID ADDRESS
 0000A6 4D90 67B4            0184A  3797     250.              LCALL CLRSTACK                DETACH ALL FILES
 0000AA 9111 B1CE      001CE        3799     251.              IF    (LNKFFREE+LNKFSPNQ,Z),PMEX1   DO CLEANUP?
 0000AE 4780 7032            000C8  3816             +
 0000B2 5890 6D8A/0D99       01E20  3822     252.              VCALL CLEANUP                 GET RID OF IT
 0000B8 181B/41F0 0FFF       00FFF  3826     253.              FREECLW (LCBR),L'LNKPAGE-1    FREE CORE
 0000BE 5890 6D8E/0D99       01E24  3841             +
 0000C4 947F A209      00209        3843     254.              CLEAR CLWPFSUP                CLEAR SETUP FLAG
 0000C8 18F2                        3850     255.     PMEX1    LR    R15,SR                  RETURN CODE
 0000CA 1803                        3851     256.              LR    R0,TR
 0000CC 18D8/982B D000       00000  3852     257.              VEXIT SR,R11,LTR
 0000D2 12FF/07F9                   3856             +
                                    3858     258.
 0000D6                             3859     259.     TYPERR   LABEL ,
 0000D6 4D90 6D06            01D9C  3861     260.              LCALL AMODE24                 RETURN TO 24 BIT MODE
 0000DA 58B0 A250            00250  3863     261.              L     LCBR,CLWLNKP            ENSURE VALID ADDRESS
 0000DE 9120 B1CE      001CE        3864     262.              IF    LNKFTYPD,TYP2           ALREADY TYPED
 0000E2 4710 705E            000F4  3876             +
 0000E6 9180 B1E6      001E6        3882     263.              IF    LNKSFTER,TYP2           FROM TERMINAL
 0000EA 4710 705E            000F4  3894             +
 0000EE 5890 6D92/0D99       01E28  3900     264.              VCALL PLCOFERR                WRITE CARD ID MESSAGE
 0000F4 5890 6D82/0D99       01E18  3904     265.     TYP2     VCALL TYPEIT                  WRITE ERROR MESSAGE
 0000FA 4D90 67B4            0184A  3908     266.              LCALL CLRSTACK                CLEAR STACK
 0000FE 47F0 6C12            01CA8  3910     267.              B     FILEXIT
1VPM      (VPM00) (09:49) (22MAR04) ORVYL'S PROGRAM MANAGER                                                                 Page   34
0Current Usings:  (BASE+4096,R6) (BASE,R7) (WAPM,R8) (CLW,R10) (LNKPAGE,R11) (GPW,R12)
0Loc    Object Code    Addr1 Addr2  Stmt Lv Lineno    Source Statement           (Hibal 5, Asmedit 3.3)  HLASM R4.0  2004/03/22 09.49
+___    ______ ____    _____ _____  ____ __ ______    ______ _________
0                                   3912     269.     * LINK PAGE AND FILE CONTROL IS SET. BRANCH ON ENTRY CODE TO PROCESS.
                                    3913     270.     *
 000102                             3914     271.     SETUPRTN LABEL ,                      SAVE KEY LEN
 000102 98F1 8028            00028  3916     272.              LM    R15,R1,WAR15
                                    3918     274.              VPMTAB PMTAB,15               BRANCH TABLE
 000106 47FF 7074            0010A  3919    01-VPMTA +         B     *+4(15)
 00010A 47F0 67A8            0183E  3920    01-VPMTA +         B     EXIT
 00010E 47F0 70A4            0013A  3921    01-VPMTA +         B     LINK
 000112 47F0 7822            008B8  3922    01-VPMTA +         B     UNLOAD
 000116 47F0 7822            008B8  3923    01-VPMTA +         B     RELOAD
 00011A 47F0 6004            0109A  3924    01-VPMTA +         B     CALL
 00011E 47F0 638C            01422  3925    01-VPMTA +         B     ENTER
 000122 47F0 664A            016E0  3926    01-VPMTA +         B     GO
 000126 47F0 663A            016D0  3927    01-VPMTA +         B     ATTN
 00012A 47F0 67FA            01890  3928    01-VPMTA +         B     PAUSE
 00012E 47F0 764A            006E0  3929    01-VPMTA +         B     SETENTRY
 000132 47F0 7822            008B8  3930    01-VPMTA +         B     SHLINK
 000136 47F0 75D0            00666  3931    01-VPMTA +         B     SHENTRY
1VPM      (VPM00) (09:49) (22MAR04) ORVYL'S PROGRAM MANAGER - LINK                                                          Page   35
0Current Usings:  (BASE+4096,R6) (BASE,R7) (WAPM,R8) (CLW,R10) (LNKPAGE,R11) (GPW,R12)
0Loc    Object Code    Addr1 Addr2  Stmt Lv Lineno    Source Statement           (Hibal 5, Asmedit 3.3)  HLASM R4.0  2004/03/22 09.49
+___    ______ ____    _____ _____  ____ __ ______    ______ _________
0                                   3934     277.     *
                                    3935     278.     * LINK COMMAND
                                    3936     279.     *
 00013A                             3937     280.     LINK     LABEL ,
 00013A 9602 C001      00001        3939     281.              SET   GPWOSFOK                SET OS/FILE POSSIBLE
 00013E 9140 A2AD      002AD        3945     282.              TM    CLWKFL,CLWKFMP          MANDATORY PROGRAM?
 000142 4710 6BC8            01C5E  3946     283.              BO    CHEAP                   NOT ALLOWED
 000146 9500 C08D      0008D        3947     284.              CLI   GPWFID,0                FILE ID CHECK
 00014A 4770 6BE6            01C7C  3948     285.              BNE   ILLSTR                  ERROR
 00014E 9680 8057      00057        3949     286.     LINK1    SET   WAFNOVRD                OVERRIDE PARM
 000152 5810 6D96            01E2C  3956     287.              LSCAN KWLINK,CLWKWCB          SCAN PAST LINK
 000156 41F0 A2C4            002C4  3970             +
 00015A 58E0 6D9A/0DEE       01E30  3973             +
 000160 4770 6BE6            01C7C  3975     288.              BNZ   ILLSTR                  ERROR
 000164 91A0 8034      00034        3976     289.              IF    (WAFLACT+WAFLFILE,Z),MISSING  SOURCE SPECIFIED?
 000168 4780 6BF6            01C8C  3993             +
 00016C 4D90 6954            019EA  3999     290.              LCALL CLRLINK                 CLEAR PROGRAM IF NECESSARY
 000170 D600 B064 8056 00064 00056  4001     291.              OC    LCBXFL,WALCBXFL         ADD IN NEW IDR FLAGS
 000176 D600 B1CF 8054 001CF 00054  4002     292.              OC    LNKPFL,WALNKPFL         ADD IN NEW LINK PROGRAM FLG
 00017C D600 B1D0 8055 001D0 00055  4003     293.              OC    LNKPFL2,WALNKPF2        ADD IN NEW LINK PROGRAM FLG
 000182 947F 8057      00057        4004     294.              CLEAR WAFNOVRD
 000186                             4011     295.              IF    (LCBMPLEN,ZERO),BEGIN
 000186 D603 B00C B00C 0000C 0000C  4021             +
 00018C 4770 7118            001AE  4022             +
 000190 D203 B00C 8058 0000C 00058  4027  1  296.                MVC   LCBMPLEN,WALCMPLN
 000196                             4028  1  297.                IF    (LCBMPLEN,ZERO),BEGIN
 000196 D603 B00C B00C 0000C 0000C  4038  1          +
 00019C 4770 7118            001AE  4039  1          +
 0001A0 58F0 A000            00000  4044  2  298.                  L     R15,CLWSCP              GET THE SCP ADDRESS
 USING  SCP,R15                     4045  2  299.                  WITH  (SCP,R15),'MVC  LCBMPLEN,SCPUMAP'    DEFAULT MAP
 0001A4 D203 B00C F1FC 0000C 001FC  4060  2          +
 DROP   SCP,R15
 0001AA 9620 8035      00035        4069  2  300.                  SET   WAFLGDSZ                SUPPLIED
 0001AE                             4075  1  301.                END  ,
 0001AE                             4079     302.              END   ,
 0001AE 47F0 71A4            0023A  4083     303.              B     PRIME
1VPM      (VPM00) (09:49) (22MAR04) ORVYL'S PROGRAM MANAGER - LINK                                                          Page   36
0Current Usings:  (BASE+4096,R6) (BASE,R7) (WAPM,R8) (CLW,R10) (LNKPAGE,R11) (GPW,R12)
0Loc    Object Code    Addr1 Addr2  Stmt Lv Lineno    Source Statement           (Hibal 5, Asmedit 3.3)  HLASM R4.0  2004/03/22 09.49
+___    ______ ____    _____ _____  ____ __ ______    ______ _________
0                                   4085     305.     * KEYWORD ROUTINES
                                    4086     306.     *
 0001B2                             4087     307.     SETACT   LABEL ,
 0001B2 91A0 8034      00034        4089     308.              IF    WAFLFILE+WAFLACT,UNREC  CONFLICT?
 0001B6 4770 6C02            01C98  4104             +
 0001BA 9680 8034      00034        4110     309.              SET   WAFLACT                 SET ACTIVE FILE
 0001BE 07FE                        4116     310.              SCRTN (15)
                                    4123     311.
 0001C0 4780 6BF6            01C8C  4124     312.     SETFIL   BZ    MISSING                 NO PARM
 0001C4 91A0 8034      00034        4125     313.              IF    WAFLACT+WAFLFILE,UNREC  CONFLICT?
 0001C8 4770 6C02            01C98  4140             +
 0001CC 9620 8034      00034        4146     314.              SET   WAFLFILE
 0001D0 4D90 6D26/0400       01DBC  4152     315.              IF    (' FSCALL GETMEMBR',NZER),' FSCALL GETNAME'
 0001D6 4780 714A            001E0  4163             +
 0001DA 4D90 6D26/0404       01DBC  4171             +
 0001E0 9608 8035      00035        4177     316.              SET   WAFLGLKF                LINK COMMAND INPUT
 0001E4 47F0 70B8            0014E  4183     317.              B     LINK1
                                    4184     318.
 0001E8 9640 8034      00034        4185     319.     SETEXIT  SET   WAFLEXIT
 0001EC 07FE                        4192     320.              SCRTN (15)
                                    4199     321.
 0001EE 9604 8034      00034        4200     322.     SETLIST  SET   WAFLLST                 LIST
 0001F2 07FE                        4207     323.              SCRTN (15)
                                    4214     324.
 0001F4 9608 8034      00034        4215     325.     SETENTER SET   WAFLENT                 ENTER AFTER LINK
 0001F8 07FE                        4222     326.              SCRTN (15)
                                    4229     327.
 0001FA 9680 8035      00035        4230     328.     SETPAU   SET   WAFLGPAU                SET PAUSE
 0001FE 07FE                        4237     329.              SCRTN (15)
                                    4244     330.
 000200 9601 8034      00034        4245     331.     SETNOSHA SET   WAFLNOSH                SET NOSHARE
 000204 07FE                        4252     332.              SCRTN (R15)
                                    4258     333.
 000206 957F 1000      00000        4259     334.     CALLPAR1 CLI   @R1,C'"'
 00020A 4780 7188            0021E  4260     335.              BE    CALLPARM
 00020E 957D 1000      00000        4261     336.              CLI   @R1,C''''
 000212 4780 7188            0021E  4262     337.              BE    CALLPARM
 000216 954D 1000      00000        4263     338.              CLI   @R1,C'('
 00021A 4770 6C02            01C98  4264     339.              BNE   UNREC
 00021E D607 8044 8044 00044 00044  4265     340.     CALLPARM OC    WAPARMP(8),WAPARMP      CHECK FOR PREVIOUS PARM
 000224 4770 7198            0022E  4266     341.              BNZ   DUPPARM
 000228 9001 8044            00044  4267     342.              STM   R0,R1,WAPARMP
 00022C 07FE                        4268     343.              SCRTN (15)
                                    4275     344.
 00022E 4110 0000            00000  4276     345.     DUPPARM  SEG   'Duplicate parm field'
 000232 4590 6D36            01DCC  4278             +
 000236 47F0 6C50            01CE6  4279     346.              B     ERROR
                                    4280     347.
1VPM      (VPM00) (09:49) (22MAR04) ORVYL'S PROGRAM MANAGER - LINK                                                          Page   37
0Current Usings:  (BASE+4096,R6) (BASE,R7) (WAPM,R8) (CLW,R10) (LNKPAGE,R11) (GPW,R12)
0Loc    Object Code    Addr1 Addr2  Stmt Lv Lineno    Source Statement           (Hibal 5, Asmedit 3.3)  HLASM R4.0  2004/03/22 09.49
+___    ______ ____    _____ _____  ____ __ ______    ______ _________
0                                   4282     349.     * STACK PREVIOUS LINK CONTROL SOURCE AND OPEN NEW SOURCE
                                    4283     350.     *
 00023A                             4284     351.     PRIME    LABEL ,
 00023A 4120 B388            00388  4286     352.              LA    SR,LNKSTKP              POINTER IS AT END OF STACK
 00023E 5920 B388            00388  4287     353.              C     SR,LNKSTKP
 000242 4780 6B68            01BFE  4288     354.              BE    LSTKOFLO                OVERFLOW
 000246 9620 B1E6      001E6        4289     355.              SET   LNKSFRRB                RE-READ BUFFER WHEN POPPED
 00024A D204 C013 B1E7 00013 001E7  4295     356.              MVC   GPWSACCT,LNKACCT        FROM LAST INCLUDE
 000250 5820 B388            00388  4296     357.              L     SR,LNKSTKP              LINK STACK POINTER
 000254 D21B 2000 B1E4 00000 001E4  4297     358.              MVC   @SR(L'LSE),LSE          PUSH
 00025A 9110 8036      00036        4298     359.              IF    WAUTOSLB,NXTMEMB        AUTOCALL PRIME
 00025E 4710 72BE            00354  4310             +
 000262 9120 8034      00034        4316     360.              IF    WAFLFILE,FILE           PRIME FILE
 000266 4710 721C            002B2  4328             +
-                                   4335     362.     * ACTIVE FILE PRIME
                                    4336     363.     *
 00026A                             4337     364.     ACTIVE   LABEL ,
 00026A 947F 8034      00034        4339     365.              CLEAR WAFLACT
 00026E 4D90 6D26/0860       01DBC  4346     366.              FSCALL SETPREST               TELL WYLBUR
 000274 D203 C01C B1F0 0001C 001F0  4350     367.              MVC   GPWFWDS,LNKLN           SET LINE NUMBER
 00027A D201 C034 6EC8 00034 01F5E  4351     368.              MVC   GPWLREC(2),=AL2(0)      LRECL
 000280 D201 C036 6ECA 00036 01F60  4352     369.              MVC   GPWRBL(2),=AL2(2048)    BUFF LEN
 000286 D203 C018 6D9E 00018 01E34  4353     370.              MVC   GPWOPT(4),=AL2(3,0)
 00028C 4D90 6D26/0C00       01DBC  4354     371.              FSCALL READWDS
 000292 4770 6C54            01CEA  4358     372.              BNZ   VOID                    VOID RANGE
 000296                             4359     373.              CLEAR LSE                     ZERO NEW STACK ENTRY
 000296 D71B B1E4 B1E4 001E4 001E4  4365             +
 00029C 9640 B1E6      001E6        4366     374.              SET   LNKSFED                 BUFF IN EDIT FORMAT
 0002A0 4010 B1F6            001F6  4372     375.              STH   R1,LNKBL                 BUFFER LENGTH
 0002A4 9201 B1E5      001E5        4373     376.              MVI   LNKFID,1                WYLBUR ID
 0002A8 D204 B1E7 C013 001E7 00013  4374     377.              MVC   LNKACCT,GPWSACCT
 0002AE 47F0 737C            00412  4375     378.              B     PRIMED                  PROCESS COMMANDS
1VPM      (VPM00) (09:49) (22MAR04) ORVYL'S PROGRAM MANAGER - LINK                                                          Page   38
0Current Usings:  (BASE+4096,R6) (BASE,R7) (WAPM,R8) (CLW,R10) (LNKPAGE,R11) (GPW,R12)
0Loc    Object Code    Addr1 Addr2  Stmt Lv Lineno    Source Statement           (Hibal 5, Asmedit 3.3)  HLASM R4.0  2004/03/22 09.49
+___    ______ ____    _____ _____  ____ __ ______    ______ _________
0                                   4377     380.     * FILE PRIME OF SEQUENTIAL SOURCE (SEQUENTIAL OR PDS MEMBER)
                                    4378     381.     *
 0002B2                             4379     382.     FILE     LABEL ,
 0002B2 94DF 8034      00034        4381     383.              CLEAR WAFLFILE
 0002B6 4D90 6D26/1408       01DBC  4388     384.              FSCALL ASMBLNAM               PUT NAME TOGETHER
 0002BC 4D90 6D26/000C       01DBC  4392     385.              FSCALL ATTOLD                 ATTACH FILE
 0002C2                             4396     386.              CLEAR GPWFILN,GPWFNL          DON'T LEAVE RESIDUAL AROUND
 0002C2 D72B C0C4 C0C4 000C4 000C4  4402             +
 0002C8 9200 C08E      0008E        4407             +
 0002CC 9110 C002      00002        4408     387.              IF    (GPWFNIXR,AND,~GPWFHYBR),NOTIXR
 0002D0 47E0 7246            002DC  4420             +
 0002D4 9108 C002      00002        4431             +
 0002D8 47E0 6B98            01C2E  4434             +
 0002DC 4D90 6D26/1420       01DBC  4440     388.              FSCALL CHKSPIRE               AVOID SPIRES FILES
 0002E2 9180 C0B8      000B8        4444     389.              IF    GPWUILIB,BEGIN         LIBRARY
 0002E6 47E0 727E            00314  4454             +
 0002EA 9108 8035      00035        4459  1  390.                IF    (WAFLGLKF,AND,GPWUILDF),NOTLKLD
 0002EE 47E0 7264            002FA  4471  1          +
 0002F2 9140 C0B8      000B8        4482  1          +
 0002F6 4710 7324            003BA  4485  1          +
 0002FA 9500 C08F      0008F        4491  1  391.                IF    ((GPWLMNL,EQ,0),AND,~GPWLNXTM),MEMNTSPC  NO MEM SPECFD
 0002FE 4770 7274            0030A  4506  1          +
 000302 9108 C0B4      000B4        4517  1          +
 000306 47E0 6C78            01D0E  4520  1          +
 00030A 4D90 6D26/100C       01DBC  4526  1  392.                FSCALL GETMEM                 INITIALIZE MEMBER FOR READ
 000310 4740 6C84            01D1A  4530  1  393.                IF    M,MEMNFND
 000314                             4544     394.              END   ,
 000314 7282           00314 002E8  4548     395.              ELSE  BEGIN                   ELSE NOT A LIBRARY
 000314 47F0 729E            00334  4553             +
 000318 9500 C08F      0008F        4559  1  396.                IF    (GPWLMNL,NE,0),NOTLIB
 00031C 4770 6CA8            01D3E  4574  1          +
 000320 9102 C0B4      000B4        4580  1  397.                IF    (GPWLLIST,OR,GPWLNXTM),NOTLIB
 000324 4710 6CA8            01D3E  4594  1          +
 000328 9108 C0B4      000B4        4603  1          +
 00032C 4710 6CA8            01D3E  4606  1          +
 000330 94F7 C001      00001        4612  1  398.                CLEAR GPWFNSKP                CLEAR SKIP MODE
 000334                             4619     399.              END   ,
                                    4623     400.     *  IF THE INPUT SOURCE IS NOT A LOADFILE THEN ALLOW ONLY
                                    4624     401.     *  CARD OR EDIT FORMAT.
 000334 9140 C0B8      000B8        4625     402.              IF    GPWUILDF,BEGIN
 000338 47E0 72BA            00350  4635             +
 00033C 9102 C0B4      000B4        4640  1  403.                IF    (GPWLLIST,OR,GPWLNXTM),NOTLKMB
 000340 4710 7330            003C6  4654  1          +
 000344 9108 C0B4      000B4        4663  1          +
 000348 4710 7330            003C6  4666  1          +
 00034C 47F0 733C            003D2  4672  1  404.                B     PRIMEDF
 000350                             4673     405.              END   ,
 000350 94F7 8035      00035        4677     406.              CLEAR WAFLGLKF
                                    4684     407.
 000354                             4685     408.     NXTMEMB  LABEL ,                      ACCESS NEXT LIBRARY MEMBER
 000354 4D90 6D26/0C08       01DBC  4687     409.              FSCALL READ                   GET A RECORD
 00035A 4770 6BB6            01C4C  4691     410.              BNZ   EMPTY
 00035E 1821                        4692     411.              LR    SR,R1                    BLOCK LEN
 000360 41F0 B115            00115  4693     412.              UNPRS LNKCOM,L:GPWDATAD  CHECK FIRST LINE FOR LEGAL EDIT
1VPM      (VPM00) (09:49) (22MAR04) ORVYL'S PROGRAM MANAGER - LINK                                                          Page   39
0Current Usings:  (BASE+4096,R6) (BASE,R7) (WAPM,R8) (CLW,R10) (LNKPAGE,R11) (GPW,R12)
0Loc    Object Code    Addr1 Addr2  Stmt Lv Lineno    Source Statement           (Hibal 5, Asmedit 3.3)  HLASM R4.0  2004/03/22 09.49
+___    ______ ____    _____ _____  ____ __ ______    ______ _________
0000364 5810 C03C            0003C  4705             +
 000368 5890 6DA2/0D99       01E38  4708             +
 00036E 4770 7308            0039E  4711     413.              BNZ   CARDCHK
 000372 5810 C03C            0003C  4712     414.              L     R1,GPWDATAD             RUN THROUGH FIRST BUFFER
 000376 18F2                        4713     415.              LR    R15,SR                  LENGTH OF BLOCK
 000378 4130 0005            00005  4714     416.              LA    TR,5
 00037C 1F44/4340 1004       00004  4715     417.     EDITCHK  LC    QR,@R1+4                TEST EDIT CONSISTENCY
 000382 1A43                        4722     418.              AR    QR,TR
 000384 1A14                        4723     419.              AR    R1,QR
 000386 1BF4                        4724     420.              SR    R15,QR
 000388 4720 72E6            0037C  4725     421.              BP    EDITCHK
 00038C 4740 7308            0039E  4726     422.              BM    CARDCHK
 000390                             4727     423.              CLEAR LSE                     ZERO NEW STACK ENTRY
 000390 D71B B1E4 B1E4 001E4 001E4  4733             +
 000396 9640 B1E6      001E6        4734     424.              SET   LNKSFED                 ASSUME EDIT
 00039A 47F0 733C            003D2  4740     425.              B     PRIMEDF                 FILE PRIMED
                                    4741     426.
 00039E 1B00                        4742     427.     CARDCHK  CLEAR R0                      TEST CARD CONSISTENCY
 0003A0 9620 C006      00006        4747     428.              SET   GPWGPFLR                FOR USE BY ERROR MSG ROUTINE
 0003A4 1812                        4753     429.              LR    R1,SR                    BLOCK LENGTH
 0003A6 5D00 6DA6            01E3C  4754     430.              D     R0,=A(80)               IS BLOCKSIZE MULTIPLE OF 80?
 0003AA 1200                        4755     431.              LTR   R0,R0                   TEST REMAINDER
 0003AC 4770 6CBA            01D50  4756     432.              BNZ   BADFORM                 OKAY
 0003B0                             4757     433.              CLEAR LSE                     ZERO NEW STACK ENTRY
 0003B0 D71B B1E4 B1E4 001E4 001E4  4763             +
 0003B6 47F0 733C            003D2  4764     434.              B     PRIMEDF                 FILE PRIMED
-                                   4766     436.
 0003BA 4110 0015            00015  4767     437.     NOTLKLD  SEG   'Cannot link from a loadfile'
 0003BE 4590 6D36            01DCC  4769             +
 0003C2 47F0 6C50            01CE6  4770     438.              B     ERROR
                                    4771     439.
 0003C6 4110 0031            00031  4772     440.     NOTLKMB  SEG   'Cannot include multiple programs'
 0003CA 4590 6D36            01DCC  4774             +
 0003CE 47F0 6C50            01CE6  4775     441.              B     ERROR
1VPM      (VPM00) (09:49) (22MAR04) ORVYL'S PROGRAM MANAGER - LINK                                                          Page   40
0Current Usings:  (BASE+4096,R6) (BASE,R7) (WAPM,R8) (CLW,R10) (LNKPAGE,R11) (GPW,R12)
0Loc    Object Code    Addr1 Addr2  Stmt Lv Lineno    Source Statement           (Hibal 5, Asmedit 3.3)  HLASM R4.0  2004/03/22 09.49
+___    ______ ____    _____ _____  ____ __ ______    ______ _________
0                                   4777     443.     * PERFORM LAST MINUTE PRIMING DETAILS.
                                    4778     444.     *
 0003D2                             4779     445.     PRIMEDF  LABEL ,
 0003D2 947F C08C      0008C        4781     446.              CLEAR GPWFATT                 NOT UNDER VGP CONTROL
 0003D6 D201 B1E4 C08C 001E4 0008C  4788     447.              MVC   LNKPFFL(2),GPWPFFL      PROCESSING AND FILE ID
 0003DC D203 B1EC C0C0 001EC 000C0  4789     448.              MVC   LNKBN,GPWBN             SAVE BLOCK #
 0003E2 D203 B1F8 C0AC 001F8 000AC  4790     449.              MVC   LNKLMLBN,GPWLMLBN       SAVE LAST BLOCK NUMBER
 0003E8 D203 B1FC C0B8 001FC 000B8  4791     450.              MVC   LNKUINFO,GPWUINFO       SAVE FORMAT DESCRIPTOR
 0003EE 9200 C08D      0008D        4792     451.              MVI   GPWFID,0
 0003F2 4020 B1F6            001F6  4793     452.              STH   SR,LNKBL
 0003F6 D202 B1E7 C05B 001E7 0005B  4794     453.              MVC   LNKUSER,GPWUSER
 0003FC D201 B1EA C058 001EA 00058  4795     454.              MVC   LNKGRP,GPWGRP
 000402 9110 8035      00035        4796     455.              IF    WAFLNXMB,BEGIN         IF MULTIPLE MEMBER
 000406 47E0 737C            00412  4806             +
 00040A 94EF 8035      00035        4811  1  456.                CLEAR    WAFLNXMB             BYPASS STACK PUSH
 00040E 47F0 73A6            0043C  4818  1  457.                B     LINKGO
 000412                             4819     458.              END   ,
 000412 5820 B388            00388  4823     459.     PRIMED   L     SR,LNKSTKP              LINK STACK POINTER
 000416 4120 201C            0001C  4824     460.              LA    SR,@SR+L'LSE            PUSH
 00041A 5020 B388            00388  4825     461.              ST    SR,LNKSTKP              NEW STACK TOP
                                    4826     462.     *
                                    4827     463.     * LOADFILE INPUT IS NOT REALLY STACKED IN THE SENSE THAT WE
                                    4828     464.     *   PUSH THE PREVIOUS STATE, BUT WE DON'T EXPECT LOADFILE INPUT
                                    4829     465.     *   TO GET STACKED FOR ANOTHER INPUT SOURCE
                                    4830     466.     *
                                    4831     467.     * THEREFORE IF WE ARE INPUTTING FROM A LOADFILE WE DO IT BELOW
                                    4832     468.     *   AND GET IT OVER WITH
                                    4833     469.     *
 00041E 9140 C0B8      000B8        4834     470.              IF    GPWUILDF,BEGIN
 000422 47E0 73A6            0043C  4844             +
 000426 D201 C08C B1E4 0008C 001E4  4849  1  471.                MVC   GPWPFFL(2),LNKPFFL      VERSION OF GETLINE REFRESH
 00042C 4D90 62D4            0136A  4850  1  472.                LCALL DOLOAD
 000430 4D90 6D26/0020       01DBC  4852  1  473.                FSCALL DETACH
 000436 5890 6DAA/0D99       01E40  4856  1  474.                VCALL POPLNKST
 00043C                             4860     475.              END   ,
1VPM      (VPM00) (09:49) (22MAR04) ORVYL'S PROGRAM MANAGER - LINK                                                          Page   41
0Current Usings:  (BASE+4096,R6) (BASE,R7) (WAPM,R8) (CLW,R10) (LNKPAGE,R11) (GPW,R12)
0Loc    Object Code    Addr1 Addr2  Stmt Lv Lineno    Source Statement           (Hibal 5, Asmedit 3.3)  HLASM R4.0  2004/03/22 09.49
+___    ______ ____    _____ _____  ____ __ ______    ______ _________
0                                   4865     477.     * CHECK FOR PARM BEFORE INITIALIZING LOADER
                                    4866     478.     *
 00043C 5890 6DAE/0D99       01E44  4867     479.     LINKGO   VCALL GETLINE
 000442 4740 7756            007EC  4871     480.              BM    INCLNEXT                INCLUDE NEXT MEMBER
 000446 4770 7FEC            01082  4872     481.              BNZ   LINKEOF
 00044A 9502 B115      00115        4873     482.              CLI   LNKCOM,X'02'            OBJECT CARD?
 00044E 4780 73D8            0046E  4874     483.              BE    NOPARM                  CAN'T BE A PARM
 000452 41F0 A2C4            002C4  4875     484.              SCINIT (1),(0),CLWKWCB
 000456 58E0 6DB2/0DEE       01E48  4895             +
 00045C 5810 6DB6            01E4C  4897     485.              LSCAN PARMCHK,CLWKWCB
 000460 41F0 A2C4            002C4  4911             +
 000464 58E0 6D9A/0DEE       01E30  4914             +
 00046A 4770 6BE6            01C7C  4916     486.              BNZ   ILLSTR
 00046E 9604 B1CE      001CE        4917     487.     NOPARM   SET   LNKFREDO
                                    4924     488.     *?       LCALL LOADING
 000472 47F0 73E0            00476  4925     489.              B     NEXT
1VPM      (VPM00) (09:49) (22MAR04) ORVYL'S PROGRAM MANAGER - LINK                                                          Page   42
0Current Usings:  (BASE+4096,R6) (BASE,R7) (WAPM,R8) (CLW,R10) (LNKPAGE,R11) (GPW,R12)
0Loc    Object Code    Addr1 Addr2  Stmt Lv Lineno    Source Statement           (Hibal 5, Asmedit 3.3)  HLASM R4.0  2004/03/22 09.49
+___    ______ ____    _____ _____  ____ __ ______    ______ _________
0                                   4927     491.     *
                                    4928     492.     * PROCESS LINK
                                    4929     493.     *
 000476                             4930     494.     NEXT     LABEL ,
 000476                             4932     495.     NEXT2    LABEL ,
 000476 9601 B1CE      001CE        4934     496.              SET   LNKFFREE                IN CASE OF CONTROL ERROR
 00047A 5890 6DBA/0D99       01E50  4940     497.              VCALL CHKATTN
 000480 4770 6C38            01CCE  4944     498.              IF    NZ,REQABORT             ATTENTION
 000484 9620 B1CE      001CE        4958     499.              SET   LNKFTYPD                NO LINE TO TYPE IF ERROR
 000488 5890 6DAE/0D99       01E44  4964     500.              VCALL GETLINE                 REMOVE LINE FROM BUFFER
 00048E 4740 7756            007EC  4968     501.              BM    INCLNEXT                INCLUDE NEXT MEMBER
 000492 4770 7FEC            01082  4969     502.              BNZ   LINKEOF                 RETURN TO COMMANDS
0                                   4971     504.     * PROCESS ENTIRE OBJECT MODULE
                                    4972     505.     *
 000496 4D90 69C6            01A5C  4973     506.              LCALL LOADING                 INITIALIZE, IF NECESSARY
 00049A 9502 B115      00115        4975     507.              CLI   LNKCOM,X'02'             IS  LINE AN OBJECT CARD?
 00049E 4770 7484            0051A  4976     508.              BNE   CONTROL                 CONTROL STATEMENT
 0004A2 D24F B014 B115 00014 00115  4977     509.     OBJLOOP  MVC   LCBCI(80),LNKCOM        MOVE CARD TO LCB
 0004A8 4D90 6CFA            01D90  4978     510.              LCALL AMODE31
 0004AC 5890 6DBE/0D99       01E54  4980     511.              VCALL LDGO                    LOAD IT
                                    4984     512.     * NOTE: LOADER RETURNS TO RAR+4 IF LAST CARD WAS AN 'END' CARD
00004B2 4780 7462            004F8  4986     514.              BZ    OBJNEXT                 NEXT CARD UNLESS ERROR
                                    4987     515.     * END CARD PROCESSING
 0004B6 4770 6C50            01CE6  4988     516.              BNZ   ERROR                   ERROR  ON EITHER RETURN
 0004BA 4D90 6D06            01D9C  4989     517.              LCALL AMODE24
 0004BE                             4991     518.              CLEAR (LNKZPTRS,8)            CLEAR ZAPNAME
 0004BE D707 B1D4 B1D4 001D4 001D4  4997             +
 0004C4 9110 B1CF      001CF        4998     519.              IF    (~LNKPFLST,AND,~WAFLLST),NEXT2  NO LIST PARM
 0004C8 4710 743E            004D4  5010             +
 0004CC 9104 8034      00034        5021             +
 0004D0 47E0 73E0            00476  5024             +
 0004D4 4110 0052            00052  5030     520.              SEG   'END...'
 0004D8 4590 6D36            01DCC  5032             +
 0004DC 4110 B049            00049  5033     521.              VWRITE LCBCI+53,80-53         USER DATA
 0004E0 4100 001B            0001B  5050             +
 0004E4 5890 6D7E/0D99       01E14  5053             +
 0004EA 5890 6DC2/0D99       01E58  5057             +
 0004F0 4780 73E0            00476  5059     522.              BZ    NEXT
 0004F4 47F0 6C38            01CCE  5060     523.              B     REQABORT
 0004F8                             5061     524.     OBJNEXT  LABEL ,                      MUST COMPLETE OBJECT DECK
 0004F8 4D90 6D06            01D9C  5063     525.              LCALL AMODE24
 0004FC 5890 6DAE/0D99       01E44  5065     526.              VCALL GETLINE
 000502 4770 7478            0050E  5069     527.              BNZ   OBJINCOM
 000506 9502 B115      00115        5070     528.              CLI   LNKCOM,X'02'            OBJECT CARD?
 00050A 4780 740C            004A2  5071     529.              BE    OBJLOOP                 YES
 00050E 4110 0059            00059  5072     530.     OBJINCOM SEG   'Object deck is incomplete'
 000512 4590 6D36            01DCC  5074             +
 000516 47F0 6C50            01CE6  5075     531.              B     ERROR
1VPM      (VPM00) (09:49) (22MAR04) ORVYL'S PROGRAM MANAGER - LINK                                                          Page   43
0Current Usings:  (BASE+4096,R6) (BASE,R7) (WAPM,R8) (CLW,R10) (LNKPAGE,R11) (GPW,R12)
0Loc    Object Code    Addr1 Addr2  Stmt Lv Lineno    Source Statement           (Hibal 5, Asmedit 3.3)  HLASM R4.0  2004/03/22 09.49
+___    ______ ____    _____ _____  ____ __ ______    ______ _________
0                                   5077     533.     * PROCESS CONTROL STATEMENT
 00051A 4110 B115            00115  5078     534.     CONTROL  SCINIT LNKCOM,LH:LNKCOML,CLWKWCB
 00051E 4800 B110            00110  5089             +
 000522 41F0 A2C4            002C4  5096             +
 000526 58E0 6DB2/0DEE       01E48  5099             +
 00052C 9110 8036      00036        5101     535.              IF    WAUTOSLB,INVSYSL
 000530 4710 7500            00596  5113             +
 000534 9102 C0B4      000B4        5119     536.              IF    (GPWLLIST,OR,GPWLNXTM),INCLNEST
 000538 4710 74F4            0058A  5133             +
 00053C 9108 C0B4      000B4        5142             +
 000540 4710 74F4            0058A  5145             +
 000544 9110 B1CF      001CF        5151     537.              IF    (~LNKPFLST,AND,~WAFLLST),CONTROL1       LIST?
 000548 4710 74BE            00554  5163             +
 00054C 9104 8034      00034        5174             +
 000550 47E0 74DE            00574  5177             +
 000554 D202 B112 6EDC 00112 01F72  5183     538.              MVC   LNKCOMAR(3),=C'-> '     PRINT ARROW BEFORE COMMAND
 00055A 18F0                        5184     539.              LR    R15,R0                  LENGTH
 00055C 41F0 F003            00003  5185     540.              LA    R15,@R15+3
 000560 9620 B1CE      001CE        5186     541.              SET   LNKFTYPD                USER HAS SEEN STATEMENT
 000564 4100 0001            00001  5192     542.              WRITE LA:1,LNKCOMAR,(15)
 000568 4110 B112/0AF6       00112  5204             +
 00056E 0AF2                        5216     543.              WAIT  (0)
 000570 4770 6C12            01CA8  5224     544.              BNZ   FILEXIT                 ATTN
 000574                             5225     545.     CONTROL1 LABEL ,
                                    5227     546.
 000574 5810 6DC6            01E5C  5228     547.              LSCAN COMMTBL,CLWKWCB         SCAN THE COMMAND
 000578 41F0 A2C4            002C4  5242             +
 00057C 58E0 6D9A/0DEE       01E30  5245             +
 000582 4770 6BE6            01C7C  5247     548.              BNZ   ILLSTR
 000586 47F0 73E0            00476  5248     549.              B     NEXT                    NULL LINE
                                    5249     550.
 00058A 4110 0073            00073  5250     551.     INCLNEST SEG   'Control statement invalid in multiple include'
 00058E 4590 6D36            01DCC  5252             +
 000592 47F0 6C50            01CE6  5253     552.              B     ERROR
                                    5254     553.
 000596 4110 00A1            000A1  5255     554.     INVSYSL  SEG   'Control statement invalid in SYSLIB'
 00059A 4590 6D36            01DCC  5257             +
 00059E 47F0 6C50            01CE6  5258     555.              B     ERROR
1VPM      (VPM00) (09:49) (22MAR04) ORVYL'S PROGRAM MANAGER - LINK                                                          Page   44
0Current Usings:  (BASE+4096,R6) (BASE,R7) (WAPM,R8) (CLW,R10) (LNKPAGE,R11) (GPW,R12)
0Loc    Object Code    Addr1 Addr2  Stmt Lv Lineno    Source Statement           (Hibal 5, Asmedit 3.3)  HLASM R4.0  2004/03/22 09.49
+___    ______ ____    _____ _____  ____ __ ______    ______ _________
0                                   5260     557.     *
                                    5261     558.     * CONTROL COMMAND IS TO BE IGNORED
                                    5262     559.     *
 0005A2                             5263     560.     IGNORE   LABEL ,
 0005A2 4590 6D0E            01DA4  5265     561.              SEG   (1),(0)
 0005A6 4110 00C5            000C5  5279     562.              SEG   ': Not supported'
 0005AA 4590 6D36            01DCC  5281             +
 0005AE 47F0 6C50            01CE6  5282     563.              B     ERROR
1VPM      (VPM00) (09:49) (22MAR04) ORVYL'S PROGRAM MANAGER - LINK                                                          Page   45
0Current Usings:  (BASE+4096,R6) (BASE,R7) (WAPM,R8) (CLW,R10) (LNKPAGE,R11) (GPW,R12)
0Loc    Object Code    Addr1 Addr2  Stmt Lv Lineno    Source Statement           (Hibal 5, Asmedit 3.3)  HLASM R4.0  2004/03/22 09.49
+___    ______ ____    _____ _____  ____ __ ______    ______ _________
0                                   5284     565.     *
                                    5285     566.     * MODULE ALIAS
                                    5286     567.     *
 0005B2                             5287     568.     ALIAS    LABEL ,
 0005B2 4D90 680A            018A0  5289     569.              LCALL GETSYMB                 SCAN OUT EXTERNAL NAME
 0005B6 4780 73E0            00476  5291     570.              BZ    NEXT
 0005BA 4D90 753C            005D2  5292     571.              LCALL CKALIAS                 MAKE SURE UNIQUE NAME
 0005BE D207 B014 1000 00014 00000  5294     572.              MVC   LCBCI(8),@R1
 0005C4 5890 6DCA/0D99       01E60  5295     573.              VCALL LDALIAS                 GIVE TO LOADER (R1=A(NAME))
 0005CA 4780 751C            005B2  5299     574.              BZ    ALIAS                   SCAN MORE
 0005CE 47F0 6C50            01CE6  5300     575.              B     ERROR
-
 0005D2                             5302     577.     CKALIAS  LABEL ,
 0005D2 5820 B0B0            000B0  5304     578.              L     SR,LCBALIH              START AT ALIAS HEAD
 0005D6 1222                        5305     579.     CKALIASL LTR   SR,SR                   END OF LIST?
 0005D8 0789                        5306     580.              BZR   RAR                     OK
 USING  CSD,R2                      5307     581.              USING CSD,SR                  ##
 0005DA D507 1000 2004 00000 00004  5316     582.              CLC   @R1(8),CSDNAME          NAMES MATCH?
 0005E0 4780 7556            005EC  5317     583.              BE    DUPNAME                 YES, BAD NEWS
 0005E4 5820 2000            00000  5318     584.              L     SR,CSDLINK              TRY NEXT
 0005E8 47F0 7540            005D6  5319     585.              B     CKALIASL
00005EC 4590 6D0E            01DA4  5321     587.     DUPNAME  SEG   (1),(0)                 WRITE NAME
 0005F0 4110 00D5            000D5  5336     588.              SEG   ': Name used more than once'
 0005F4 4590 6D36            01DCC  5338             +
 0005F8 47F0 6C50            01CE6  5339     589.              B     ERROR
1VPM      (VPM00) (09:49) (22MAR04) ORVYL'S PROGRAM MANAGER - LINK                                                          Page   46
0Current Usings:  (CSD,R2) (BASE+4096,R6) (BASE,R7) (WAPM,R8) (CLW,R10) (LNKPAGE,R11) (GPW,R12)
0Loc    Object Code    Addr1 Addr2  Stmt Lv Lineno    Source Statement           (Hibal 5, Asmedit 3.3)  HLASM R4.0  2004/03/22 09.49
+___    ______ ____    _____ _____  ____ __ ______    ______ _________
0                                   5341     591.     *
                                    5342     592.     * MODULE EXTERNAL SYMBOL CHANGE
                                    5343     593.     *
 0005FC                             5344     594.     CHANGE   LABEL ,
 0005FC 4D90 680A            018A0  5346     595.              LCALL GETSYMB                 SCAN OUT EXTERNAL SYMBOL
 000600 4780 73E0            00476  5348     596.              BZ    NEXT                    ALL DONE
 000604 D207 B014 1000 00014 00000  5349     597.              MVC   LCBCI(8),@R1            SAVE NAME
 00060A 4D90 6832            018C8  5350     598.              LCALL GETPSYM                 GET LEVEL-1 SYMBOL
 00060E 4780 6BF6            01C8C  5352     599.              BZ    MISSING                 REQUIRED ITEM
 000612 D207 B01C 1000 0001C 00000  5353     600.              MVC   LCBCI+8(8),@R1
 000618 5890 6DCE/0D99       01E64  5354     601.              VCALL LDCHANGE                GIVE TO LOADER
 00061E 4780 7566            005FC  5358     602.              BZ    CHANGE                  SCAN FOR MORE
 000622 47F0 6C50            01CE6  5359     603.              B     ERROR                   DONE
1VPM      (VPM00) (09:49) (22MAR04) ORVYL'S PROGRAM MANAGER - LINK                                                          Page   47
0Current Usings:  (CSD,R2) (BASE+4096,R6) (BASE,R7) (WAPM,R8) (CLW,R10) (LNKPAGE,R11) (GPW,R12)
0Loc    Object Code    Addr1 Addr2  Stmt Lv Lineno    Source Statement           (Hibal 5, Asmedit 3.3)  HLASM R4.0  2004/03/22 09.49
+___    ______ ____    _____ _____  ____ __ ______    ______ _________
0                                   5361     605.     *
                                    5362     606.     * COMMENT TO TERMINAL
                                    5363     607.     *
 000626 41F0 A2C4            002C4  5364     608.     COMMENT  SCTELL CLWKWCB
 00062A 58E0 6DD2/0DEE       01E68  5374             +
 000630 5890 6D7E/0D99       01E14  5376     609.              VWRITE (1),(0)
 000636 5890 6DC2/0D99       01E58  5396             +
 00063C 47F0 73E0            00476  5398     610.              B     NEXT
1VPM      (VPM00) (09:49) (22MAR04) ORVYL'S PROGRAM MANAGER - LINK                                                          Page   48
0Current Usings:  (CSD,R2) (BASE+4096,R6) (BASE,R7) (WAPM,R8) (CLW,R10) (LNKPAGE,R11) (GPW,R12)
0Loc    Object Code    Addr1 Addr2  Stmt Lv Lineno    Source Statement           (Hibal 5, Asmedit 3.3)  HLASM R4.0  2004/03/22 09.49
+___    ______ ____    _____ _____  ____ __ ______    ______ _________
0                                   5400     612.     *
                                    5401     613.     * ENTRY DEFINITION
                                    5402     614.     *
 000640                             5403     615.     ENTRY    LABEL ,
 000640 4D90 680A            018A0  5405     616.              LCALL GETSYMB
 000644 4780 6BF6            01C8C  5407     617.              BZ    MISSING
 000648 9500 B108      00108        5408     618.              CLI   LNKEP,0                 ENTRY DEFINED YET?
 00064C 4770 75C4            0065A  5409     619.              BNE   DBLEP                   CANT HAVE TWO
 000650 D207 B108 1000 00108 00000  5410     620.              MVC   LNKEP(8),@R1
 000656 47F0 73E0            00476  5411     621.              B     NEXT
                                    5412     622.
 00065A 4110 00F0            000F0  5413     623.     DBLEP    SEG   'Only one entry statement allowed'
 00065E 4590 6D36            01DCC  5415             +
 000662 47F0 6C50            01CE6  5416     624.              B     ERROR
-                                   5418     626.     * SHOW CURRENT ENTRY POINT
                                    5419     627.     *
 000666 4D90 6AAA            01B40  5420     628.     SHENTRY  LCALL LOADINGQ                LOADING?
 00066A 4110 0111            00111  5422     629.              SEG   'Entry: '
 00066E 4590 6D36            01DCC  5424             +
 000672 9500 B108      00108        5425     630.              CLI   LNKEP,0                 DEFINED BY USER?
 000676 4780 7604            0069A  5426     631.              BE    SHEN2
 00067A 4110 B108            00108  5427     632.              SEG   LNKEP,8
 00067E 4100 0008            00008  5443             +
 000682 4590 6D0E            01DA4  5444             +
 000686 5890 6DD6/0D99       01E6C  5445     633.              VCALL LDFIND                  LOOK UP NAME
 00068C 4780 7632            006C8  5449     634.              BZ    SHEN6                   UNDEFINED
 000690 1211                        5450     635.              LTR   R1,R1                   DEFINED
 000692 4740 7632            006C8  5451     636.              BM    SHEN6                   NO
 000696 47F0 760E            006A4  5452     637.              B     SHEN3
                                    5453     638.
 00069A 5810 B070/1211       00070  5454     639.     SHEN2    LT    R1,LCBEP                DEFINED IN OBJECT?
 0006A0 4740 7632            006C8  5458     640.              BM    SHEN6                   NO
 0006A4 18F1/4100 0007       00007  5459     641.     SHEN3    BTX   CLWTEMP,7,(1)
 0006AA 4110 A2E8            002E8  5479             +
 0006AE 58E0 6DDA/0DEE       01E70  5482             +
 0006B4 9240 A2E8      002E8        5484     642.              MVI   CLWTEMP,C' '
 0006B8 5890 6D7E/0D99       01E14  5485     643.              VWRITE (1),(0)
 0006BE 5890 6DC2/0D99       01E58  5505             +
 0006C4 47F0 6C12            01CA8  5507     644.              B     FILEXIT
                                    5508     645.
 0006C8 4110 6EDF            01F75  5509     646.     SHEN6    VWRITE 'UNDEFINED'
 0006CC 4100 0009            00009  5514             +
 0006D0 5890 6D7E/0D99       01E14  5517             +
 0006D6 5890 6DC2/0D99       01E58  5521             +
 0006DC 47F0 6C12            01CA8  5523     647.              B     FILEXIT
-                                   5525     649.     * SET ENTRY
                                    5526     650.     *
 0006E0 4D90 6AAA            01B40  5527     651.     SETENTRY LCALL LOADINGQ
 0006E4                             5529     652.              CLEAR LNKEP                   ZERO PREVIOUS
 0006E4 D707 B108 B108 00108 00108  5535             +
1VPM      (VPM00) (09:49) (22MAR04) ORVYL'S PROGRAM MANAGER - LINK                                                          Page   49
0Current Usings:  (CSD,R2) (BASE+4096,R6) (BASE,R7) (WAPM,R8) (CLW,R10) (LNKPAGE,R11) (GPW,R12)
0Loc    Object Code    Addr1 Addr2  Stmt Lv Lineno    Source Statement           (Hibal 5, Asmedit 3.3)  HLASM R4.0  2004/03/22 09.49
+___    ______ ____    _____ _____  ____ __ ______    ______ _________
00006EA 4D90 680A            018A0  5536     653.              LCALL GETSYMB                 GET A SYMBOL
 0006EE 4780 6BF6            01C8C  5538     654.              BZ    MISSING
 0006F2 D207 B108 1000 00108 00000  5539     655.              MVC   LNKEP(8),@R1
 0006F8 47F0 6C12            01CA8  5540     656.              B     FILEXIT
1VPM      (VPM00) (09:49) (22MAR04) ORVYL'S PROGRAM MANAGER - LINK                                                          Page   50
0Current Usings:  (CSD,R2) (BASE+4096,R6) (BASE,R7) (WAPM,R8) (CLW,R10) (LNKPAGE,R11) (GPW,R12)
0Loc    Object Code    Addr1 Addr2  Stmt Lv Lineno    Source Statement           (Hibal 5, Asmedit 3.3)  HLASM R4.0  2004/03/22 09.49
+___    ______ ____    _____ _____  ____ __ ______    ______ _________
0                                   5542     658.     *
                                    5543     659.     * EXPAND CSECT LENGTH
                                    5544     660.     *
                                    5545     661.     *        - VALID ONLY IF CSECTNAME IS LAST ALLOCATED AT THIS POINT.
                                    5546     662.     *
 0006FC                             5547     663.     EXPAND   LABEL ,
 0006FC 4D90 680A            018A0  5549     664.              LCALL GETSYMB
 000700 4780 6BF6            01C8C  5551     665.              BZ    MISSING
 000704 5890 6DD6/0D99       01E6C  5552     666.              VCALL LDFIND                  TO NAME FINDER
 00070A 4780 76D0            00766  5556     667.              BZ    NOTDEF                  MUST BE DEFINED ALREADY
 00070E 1211                        5557     668.              LTR   R1,R1
 000710 4740 76D0            00766  5558     669.              BM    NOTDEF
 000714 182F                        5559     670.              LR    SR,R15                  SAVE CSD POINTER
 DROP   CSD,R2                      5560     671.              USING CSDNAME,SR              ##
 USING  CSDNAME,R2
 000716 9140 2010      00014        5572     672.              IF    ~CSDFDEF,NOTDEF          REFERENCED BUT NOT DEFINED
 00071A 47E0 76D0            00766  5584             +
 00071E 5F10 B000            00000  5590     673.              SL    R1,LCBCORE              RELATIVE ADDRESS IN TEXT
 000722 1E10                        5591     674.              ALR   R1,0                    GET SD END
 000724 5910 B078            00078  5592     675.              C     R1,LCBLC                LATEST LOCATION COUNTER
 000728 4770 76C4            0075A  5593     676.              BNE   NOTLSTSD                NOT LAST SECTION (CAN'T EXPAND)
 00072C 4D90 68E4            0197A  5594     677.              LCALL GETPVAL                 GET PARENTHESIZED LENGTH
 000730 181F                        5596     678.              LR    R1,R15                  AVE EXPAND LENGTH
 000732 5EF0 B078            00078  5597     679.              AL    R15,LCBLC               NEW LC
 000736 59F0 B004            00004  5598     680.              C     R15,LCBCLEN
 00073A 4720 76B8            0074E  5599     681.              BH    EXLERR
 00073E 50F0 B078            00078  5600     682.              ST    R15,LCBLC
 000742 5E10 200C            00010  5601     683.              AL    R1,CSDLNG
 000746 5010 200C            00010  5602     684.              ST    R1,CSDLNG               UPDATE CSD
 00074A 47F0 73E0            00476  5603     685.              B     NEXT                    ONLY ONE SYMBOL ALLOWED
                                    5604     686.
 00074E 4110 0119            00119  5605     687.     EXLERR   SEG   'Attempt to expand beyond maximum program length'
 000752 4590 6D36            01DCC  5607             +
 000756 47F0 6C50            01CE6  5608     688.              B     ERROR
                                    5609     689.
 00075A 4110 0149            00149  5610     690.     NOTLSTSD SEG   'Program section not latest - not expandable'
 00075E 4590 6D36            01DCC  5612             +
 000762 47F0 6C50            01CE6  5613     691.              B     ERROR
                                    5614     692.
 000766 4110 0175            00175  5615     693.     NOTDEF   SEG   'Program section not defined'
 00076A 4590 6D36            01DCC  5617             +
 00076E 47F0 6C50            01CE6  5618     694.              B     ERROR
 DROP   CSDNAME,R2                  5619     695.              DROP  SR                      ##
1VPM      (VPM00) (09:49) (22MAR04) ORVYL'S PROGRAM MANAGER - LINK                                                          Page   51
0Current Usings:  (BASE+4096,R6) (BASE,R7) (WAPM,R8) (CLW,R10) (LNKPAGE,R11) (GPW,R12)
0Loc    Object Code    Addr1 Addr2  Stmt Lv Lineno    Source Statement           (Hibal 5, Asmedit 3.3)  HLASM R4.0  2004/03/22 09.49
+___    ______ ____    _____ _____  ____ __ ______    ______ _________
0                                   5627     697.     *
                                    5628     698.     * INCLUDE PROCESSOR
                                    5629     699.     *
 000772                             5630     700.     INCLUDE  LABEL ,
 000772 4D90 6D26/0004       01DBC  5632     701.              FSCALL FNINIT                 INITIALIZE FILE AREA
 000778 9602 C001      00001        5636     702.              SET   GPWOSFOK                SET OS/FILE POSSIBLE
 00077C 9200 C08F      0008F        5642     703.              MVI   GPWLMNL,0               CLEAR LIB NAME
 000780 9602 C0B4      000B4        5643     704.              SET  GPWLLIST                 ALLOW MEMBER LIST
 000784 4D90 6D26/0400       01DBC  5649     705.              IF    ('FSCALL GETMEMBR',NZ),'FSCALL GETNAME'
 00078A 4780 76FE            00794  5660             +
 00078E 4D90 6D26/0404       01DBC  5668             +
                                    5674     706.     * NOTE - GPWLLIST WILL BE CLEARED BY GETMEMBR UNLESS A MEMBER
                                    5675     707.     *        LIST IS PRESENT.  WE WILL KEEP THIS FLAG SET UNTIL THE
                                    5676     708.     *        LIST HAS BEEN PROCESSED.
 000794 9102 C0B4      000B4        5677     709.              IF    GPWLLIST,BEGIN          SAVE LIST
 000798 47E0 771C            007B2  5687             +
 00079C 9812 C0A4            000A4  5692  1  710.                LM    R1,R2,GPWLMFBN          LIST POINTERS
 0007A0 5010 804C            0004C  5693  1  711.                ST    R1,WAMBLLN              SAVE LENGTH
 0007A4 4130 80E7            000E7  5694  1  712.                LA    R3,WAMBERS
 0007A8 5030 8050            00050  5695  1  713.                ST    R3,WAMBLNX              NEW ADDRESS
 0007AC 0610/4410 6F10       01FA6  5696  1  714.                DEX   R1,'MVC  @R3(0),@R2'
 001FA6 D200 3000 2000 00000 00000  5707  1          +
 0007B2                             5715     715.              END   ,
 0007B2 5810 6DDE            01E74  5719     716.              LSCAN KWINCLUD,CLWKWCB        ANYTHING FOLLOWING?
 0007B6 41F0 A2C4            002C4  5733             +
 0007BA 58E0 6D9A/0DEE       01E30  5736             +
 0007C0 4770 6BE6            01C7C  5738     717.              BNZ   ILLSTR
                                    5739     718.
 0007C4 9620 8034      00034        5740     719.              SET   WAFLFILE
 0007C8 47F0 71A4            0023A  5746     720.              B     PRIME                   CHECK OUT FILE
                                    5747     721.     *
                                    5748     722.     * INCLUDE ALL MEMBERS FROM LIBRARY
 0007CC 9500 C08F      0008F        5749     723.     INCLPDS  IF    (GPWLMNL,NE,0),INCLOPER CONFLICTING OPTION
 0007D0 4770 774A            007E0  5765             +
 0007D4 9608 C0B4      000B4        5771     724.              SET   GPWLNXTM            ACCESS MEMBERS SEQUENTIALLY
 0007D8 D203 C0B0 6DE2 000B0 01E78  5777     725.              MVC   GPWNXTAD(4),=F'0'       START AT START OF LIB
 0007DE 07FE                        5778     726.              SCRTN (15)
                                    5785     727.
 0007E0 4110 0191            00191  5786     728.     INCLOPER SEG   'Conflict in include member option'
 0007E4 4590 6D36            01DCC  5788             +
 0007E8 47F0 6C50            01CE6  5789     729.              B     ERROR
1VPM      (VPM00) (09:49) (22MAR04) ORVYL'S PROGRAM MANAGER - LINK                                                          Page   52
0Current Usings:  (BASE+4096,R6) (BASE,R7) (WAPM,R8) (CLW,R10) (LNKPAGE,R11) (GPW,R12)
0Loc    Object Code    Addr1 Addr2  Stmt Lv Lineno    Source Statement           (Hibal 5, Asmedit 3.3)  HLASM R4.0  2004/03/22 09.49
+___    ______ ____    _____ _____  ____ __ ______    ______ _________
0                                   5791     731.     *
                                    5792     732.     * INCLUDE NEXT MEMBER FROM ATTACHED LIBRARY
                                    5793     733.     *
 0007EC                             5794     734.     INCLNEXT LABEL ,
 0007EC 9110 8036      00036        5796     735.              IF    WAUTOSLB,XTRSCAN1       FOR AUTOCALL
 0007F0 4710 7872            00908  5808             +
 0007F4 9102 C0B4      000B4        5814     736.              IF    GPWLLIST,BEGIN                     MEMBER LIST
 0007F8 47E0 7796            0082C  5824             +
 0007FC 9801 804C            0004C  5829  1  737.                LM    R0,R1,WAMBLLN           LEN / ADDRESS
 000800 4D90 6D26/0408       01DBC  5830  1  738.                FSCALL SCNMLIST               SCAN FOR NEXT
 000806 D207 804C C0A4 0004C 000A4  5834  1  739.                MVC   WAMBLLN(8),GPWLMFBN     NEW LIST POINTERS
 00080C 1200                        5835  1  740.                LTR   0,0                     ANYTHING LEFT?
 00080E 47D0 77B4            0084A  5836  1  741.                BNP   INCLDONE                NO, FINISH UP
 000812 4900 6ECC            01F62  5837  1  742.                CH    0,=Y(8)                 TOO LONG?
 000816 4720 6C9C            01D32  5838  1  743.                BH    INVALMEM                YES
 00081A 4200 C08F            0008F  5839  1  744.                STC   0,GPWLMNL               SAVE MEMBER NAME LENGTH
 00081E 1820                        5840  1  745.                LR    SR,0                    PUT LENGTH WHERE USEABLE
 000820 D207 C090 6D62 00090 01DF8  5841  1  746.                MVC   GPWLMN,=CL8' '          BLANK IT OUT
 000826 0620/4420 6F16       01FAC  5842  1  747.                DEX   SR,'OC  GPWLMN(0),@R1'  MOVE IT IN
 001FAC D600 C090 1000 00090 00000  5853  1          +
 00082C                             5861     748.              END   ,
                                    5865     749.     *
                                    5866     750.     *   SET UP NEXT MEMBER FOR READ
 00082C 9640 C0B4      000B4        5867     751.              SET   GPWLGOTD                GOT DIRECTORY
 000830 4D90 6D26/100C       01DBC  5873     752.              FSCALL GETMEM                 SET UP FOR READ  (W/GPWLNXTM)
 000836 4740 77AC            00842  5877     753.              IF    M,INCLDON
 00083A 9610 8035      00035        5891     754.              SET   WAFLNXMB
 00083E 47F0 72BE            00354  5897     755.              B     NXTMEMB                 PROCESS NEXT MEMBER
                                    5898     756.
 000842 9500 C08F      0008F        5899     757.     INCLDON  IF    (GPWLMNL,NE,0),MEMNFND
 000846 4770 6C84            01D1A  5915             +
 00084A                             5921     758.     INCLDONE LABEL ,                       MULTIPLE INCLUDE IS DONE
 00084A 94BF C0B4      000B4        5923     759.              CLEAR GPWLGOTD                CLEAR GOTTEN DIRECTORY
 00084E 4D90 6D26/0020       01DBC  5930     760.              FSCALL DETACH
 000854 5890 6DAA/0D99       01E40  5934     761.              VCALL POPLNKST
 00085A 47F0 73E0            00476  5938     762.              B     NEXT
1VPM      (VPM00) (09:49) (22MAR04) ORVYL'S PROGRAM MANAGER - LINK                                                          Page   53
0Current Usings:  (BASE+4096,R6) (BASE,R7) (WAPM,R8) (CLW,R10) (LNKPAGE,R11) (GPW,R12)
0Loc    Object Code    Addr1 Addr2  Stmt Lv Lineno    Source Statement           (Hibal 5, Asmedit 3.3)  HLASM R4.0  2004/03/22 09.49
+___    ______ ____    _____ _____  ____ __ ______    ______ _________
0                                   5940     764.     *
                                    5941     765.     * LIBRARY DEFINITION
                                    5942     766.     *
 00085E                             5943     767.     SYSLIB   LABEL ,
 00085E                             5945     768.     LIBRARY  LABEL ,
 00085E 9602 C001      00001        5947     769.              SET   GPWOSFOK                SET OS/FILE POSSIBLE
 000862 4D90 6D26/0004       01DBC  5953     770.              FSCALL FNINIT                 INITIALIZE FILENAME AREA
 000868 4D90 6D26/0404       01DBC  5957     771.              FSCALL GETNAME                SCAN FOR SYSLIB NAME
 00086E 5810 6DE6            01E7C  5961     772.              LSCAN LDFTBL,CLWKWCB
 000872 41F0 A2C4            002C4  5975             +
 000876 58E0 6D9A/0DEE       01E30  5978             +
 00087C 4770 6BE6            01C7C  5980     773.              BNZ   ILLSTR
 000880 4D90 6D26/1408       01DBC  5981     774.              FSCALL ASMBLNAM               PUT SYSLIB NAME TOGETHER
 000886 4820 B91A            0091A  5985     775.              LH    R2,LNKSYSCT             NUMBER OF SYSLIBS
 00088A 5920 6DEA            01E80  5986     776.              IF    (R2,GT,8),SYSLMXR       TOO MANY
 00088E 4720 7816            008AC  6000             +
 000892 4112 0001            00001  6006     777.              LA    R1,1(R2)                BUMP COUNT
 000896 4010 B91A            0091A  6007     778.              STH   R1,LNKSYSCT             AND SAVE
 00089A 4C20 6ECE            01F64  6008     779.              MH    R2,=AL2(L'GPWFCB)
 00089E 4122 B42A            0042A  6009     780.              LA    R2,LNKSYSLB(R2)
 0008A2 D29D 2000 C08C 00000 0008C  6010     781.              MVC   @R2(L'GPWFCB),GPWFILE   SAVE NAME
 0008A8 47F0 73E0            00476  6011     782.              B     NEXT
                                    6012     783.
 0008AC 4110 01B3            001B3  6013     784.     SYSLMXR  SEG   'Too many system libraries specified'
 0008B0 4590 6D36            01DCC  6015             +
 0008B4 47F0 6C50            01CE6  6016     785.              B     ERROR
1VPM      (VPM00) (09:49) (22MAR04) ORVYL'S PROGRAM MANAGER - LINK                                                          Page   54
0Current Usings:  (BASE+4096,R6) (BASE,R7) (WAPM,R8) (CLW,R10) (LNKPAGE,R11) (GPW,R12)
0Loc    Object Code    Addr1 Addr2  Stmt Lv Lineno    Source Statement           (Hibal 5, Asmedit 3.3)  HLASM R4.0  2004/03/22 09.49
+___    ______ ____    _____ _____  ____ __ ______    ______ _________
0                                   6018     787.     *
                                    6019     788.     * PROCESSES NOT YET HANDLED
                                    6020     789.     *
 0008B8                             6021     790.     SHLINK   LABEL ,
 0008B8                             6023     791.     UNLOAD   LABEL ,
 0008B8                             6025     792.     RELOAD   LABEL ,
 0008B8 47F0 6B58            01BEE  6027     793.              B     NOTYET                  *****LOAD FILE DEPENDENT*****
1VPM      (VPM00) (09:49) (22MAR04) ORVYL'S PROGRAM MANAGER - LINK                                                          Page   55
0Current Usings:  (BASE+4096,R6) (BASE,R7) (WAPM,R8) (CLW,R10) (LNKPAGE,R11) (GPW,R12)
0Loc    Object Code    Addr1 Addr2  Stmt Lv Lineno    Source Statement           (Hibal 5, Asmedit 3.3)  HLASM R4.0  2004/03/22 09.49
+___    ______ ____    _____ _____  ____ __ ______    ______ _________
0                                   6029     795.     * LOADFILE - (SYSLMOD) FILE FOR MODULE OUTPUT
                                    6030     796.     *
 0008BC                             6031     797.     LOADFILE LABEL ,
 0008BC 4D90 6D26/0004       01DBC  6033     798.              FSCALL FNINIT                 PREPARE NAME SCAN
 0008C2 4D90 6D26/0404       01DBC  6037     799.              FSCALL GETNAME
 0008C8 5810 6DE6            01E7C  6041     800.              LSCAN LDFTBL,CLWKWCB
 0008CC 41F0 A2C4            002C4  6055             +
 0008D0 58E0 6D9A/0DEE       01E30  6058             +
 0008D6 4770 6BE6            01C7C  6060     801.              BNZ   ILLSTR
 0008DA 4D90 6D26/1408       01DBC  6061     802.              FSCALL ASMBLNAM
 0008E0 D29D B38C C08C 0038C 0008C  6065     803.              MVC   LNKSYSMD(L'GPWFCB),GPWFILE  SAVE FCB FOR LATER
 0008E6 47F0 73E0            00476  6066     804.              B     NEXT
1VPM      (VPM00) (09:49) (22MAR04) ORVYL'S PROGRAM MANAGER - LINK                                                          Page   56
0Current Usings:  (BASE+4096,R6) (BASE,R7) (WAPM,R8) (CLW,R10) (LNKPAGE,R11) (GPW,R12)
0Loc    Object Code    Addr1 Addr2  Stmt Lv Lineno    Source Statement           (Hibal 5, Asmedit 3.3)  HLASM R4.0  2004/03/22 09.49
+___    ______ ____    _____ _____  ____ __ ______    ______ _________
0                                   6068     806.     *
                                    6069     807.     *  CHECK IF WE ARE TO INCLUDE MISSING UNDEFINED CSECTS
                                    6070     808.     *
 0008EA                             6071     809.     XTRESOLV LABEL ,
 0008EA 5090 D000            00000  6073     810.              VPUSH RAR,,*
 0008EE 41D0 D004            00004  6075             +
 0008F2 4810 B91A            0091A  6076     811.              LH    R1,LNKSYSCT             NUMBER OF SYSLIBS
 0008F6 5910 6DEE            01E84  6077     812.              IF    (R1,EQ,0),XTRSCXT       NO SYSLIB
 0008FA 4780 7A0E            00AA4  6091             +
 0008FE                             6097     813.     XTRSCANM CLEAR WASLBNX                 READY FOR FIRST SYSLIB
 0008FE D701 805C 805C 0005C 0005C  6104             +
                                    6105     814.
 000904                             6106     815.     XTRSCAN0 LABEL ,                       READY SCAN FOR UNDEF EXTERN
 000904 94EC 8036      00036        6108     816.              CLEAR WAUTOSLB+WAUTOPXT+WAUTOFMB NO SYSLIB ATTACHED
 000908 5890 6DF2/0D99       01E88  6122     817.     XTRSCAN1 VCALL LDSET                   RESTART SCAN
 00090E 94F7 8036      00036        6126     818.              CLEAR WAUTOUXS                NO UNDEFINEDS
 000912 4120 0002            00002  6133     819.     XTRSCAN2 LA    R2,2          'ESDTER'  EXTERN IDENTIFIER
 000916 5890 6DF6/0D99       01E8C  6134     820.     XTRSCAN3 VCALL LDNEXT                  GET NEXT
 00091C 12FF/4780 78F6       0098C  6138     821.              IF    (R15,NZER),BEGIN        EXTRACT ENTRY TYPE
 USING  CSDNAME,R15                 6152  1  822.                USING CSDNAME,R15             ##
 000922 1F00/4300 F008       0000C  6161  1  823.                LC    R0,CSDTYP
 000928 1902/4770 7880       00916  6166  1  824.                IF    (R0,NE,R2),XTRSCAN3
 00092E 9101 8036      00036        6184  1  825.                IF    WAUTOFMB,BEGIN          SCAN FOR REST
 000932 47E0 78BA            00950  6194  1          +
 000936 58E0 8050            00050  6199  2  826.                  L     R14,WAMBLNX             LAST LOADED
 USING  DENTRY,R14                  6200  2  827.                  USING DENTRY,R14              ##
 00093A                             6209  2  828.                  IF    (CSDNAME,LT,DNAME),BEGIN
 00093A D507 F000 E000 00004 00000  6221  2          +
 000940 47B0 78B6            0094C  6222  2          +
 000944 9608 8036      00036        6227  3  829.                    SET   WAUTOUXS                UNDEFINED EXISTS
 000948 47F0 7880            00916  6233  3  830.                    B     XTRSCAN3
 00094C                             6234  2  831.                  END   ,
 DROP   DENTRY,R14                  6238  2  832.                  DROP  R14                     ##
 00094C 94FE 8036      00036        6245  2  833.                  CLEAR WAUTOFMB
 000950                             6252  1  834.                END   ,
 DROP   CSDNAME,R15                 6256  1  835.                DROP  R15                     ##
 000950 9102 8036      00036        6263  1  836.                IF    WAUTOPXT,BEGIN          PRINT EXTERNALS
 000954 47E0 78F6            0098C  6273  1          +
 000958 5890 6DBA/0D99       01E50  6278  2  837.                  VCALL CHKATTN
 00095E 4770 7A06            00A9C  6282  2  838.                  IF    NZ,XTRSCAT             IF ATTENTION
 000962 181F/4100 0008       00008  6296  2  839.                  SEG   (R15),8                 PUT NAME IN BUFFER
 000968 4590 6D0E            01DA4  6311  2          +
 00096C 4110 01D7            001D7  6312  2  840.                  SEG   ' '
 000970 4590 6D36            01DCC  6314  2          +
 000974 0640                        6315  2  841.                  DECR  R4
 000976 5940 6DEE            01E84  6317  2  842.                  IF    (R4,EQ,0),BEGIN         PRINT LINE
 00097A 4770 78F2            00988  6329  2          +
 00097E 4140 0007            00007  6334  3  843.                    LA    R4,7
 000982 5890 6DC2/0D99       01E58  6335  3  844.                    VWRITE ,
 000988                             6340  2  845.                  END   ,
 000988 47F0 7880            00916  6344  2  846.                  B     XTRSCAN3
 00098C                             6345  1  847.                END   ,
 00098C                             6349     848.              END   ,
 00098C 78FA           0098C 00920  6353     849.              ELSE  BEGIN                   NONE LEFT
1VPM      (VPM00) (09:49) (22MAR04) ORVYL'S PROGRAM MANAGER - LINK                                                          Page   57
0Current Usings:  (BASE+4096,R6) (BASE,R7) (WAPM,R8) (CLW,R10) (LNKPAGE,R11) (GPW,R12)
0Loc    Object Code    Addr1 Addr2  Stmt Lv Lineno    Source Statement           (Hibal 5, Asmedit 3.3)  HLASM R4.0  2004/03/22 09.49
+___    ______ ____    _____ _____  ____ __ ______    ______ _________
000098C 47F0 793C            009D2  6358             +
 000990 9102 8036      00036        6364  1  850.                IF    WAUTOPXT,BEGIN          FINISHED PRINT
 000994 47E0 7914            009AA  6374  1          +
 000998 5940 6DFA            01E90  6379  2  851.                  IF    (R4,LT,7),' VWRITE ,'   OUTPUT LAST
 00099C 47B0 7910            009A6  6391  2          +
 0009A0 5890 6DC2/0D99       01E58  6400  2          +
 0009A6 47F0 7A0E            00AA4  6406  2  852.                  B     XTRSCXT
 0009AA                             6407  1  853.                END   ,
 0009AA 9110 8036      00036        6411  1  854.                IF    WAUTOSLB,BEGIN          SYSLIB ATTACHED
 0009AE 47E0 7930            009C6  6421  1          +
 0009B2 4D90 6D26/0020       01DBC  6426  2  855.                  FSCALL DETACH                 DETACH IT
 0009B8 9104 8036      00036        6430  2  856.                  IF ~WAUTOFTM,'VCALL POPLNKST'
 0009BC 4710 7930            009C6  6440  2          +
 0009C0 5890 6DAA/0D99       01E40  6448  2          +
 0009C6                             6454  1  857.                END   ,
 0009C6 9108 8036      00036        6458  1  858.                IF    ~WAUTOUXS,XTRSCXT       NO UNDEFINED
 0009CA 47E0 7A0E            00AA4  6470  1          +
 0009CE 47F0 786E            00904  6476  1  859.                B     XTRSCAN0                UNDEFINEDS STILL EXIST
 0009D2                             6477     860.              END   ,
 0009D2 D207 C090 F000 00090 00000  6481     861.              MVC   GPWLMN,@R15             SAVE FOR DIRECTORY SCAN
 0009D8 9110 8036      00036        6482     862.              IF    ~WAUTOSLB,BEGIN        NO SYSLIB ATTACHED
 0009DC 4710 79CC            00A62  6492             +
 0009E0 4820 805C            0005C  6497  1  863.                LH    R2,WASLBNX              NEXT SYSLIB COUNTER
 0009E4 4810 B91A            0091A  6498  1  864.                LH    R1,LNKSYSCT             NUMBER OF SYSLIBS
 0009E8 1921/4750 7990       00A26  6499  1  865.                IF    (R2,GE,R1),BEGIN        NO MORE SYSLIBS
 0009EE 9120 8036      00036        6514  2  866.                  IF    ~WAUTOXPS,BEGIN         ONE MORE PASS
 0009F2 4710 7968            009FE  6524  2          +
 0009F6 9620 8036      00036        6529  3  867.                    SET   WAUTOXPS
 0009FA 47F0 7868            008FE  6535  3  868.                    B     XTRSCANM
 0009FE                             6536  2  869.                  END   ,
 0009FE 9602 8036      00036        6540  2  870.                  SET   WAUTOPXT                PRINT EXTERNALS
 000A02 9180 B1CF      001CF        6546  2  871.                  IF    ~LNKPFLWN,XTRSCXT       NOWARN
 000A06 47E0 7A0E            00AA4  6558  2          +
 000A0A 4110 6DFE            01E94  6564  2  872.                  VWRITE 'THE FOLLOWING SYMBOLS ARE UNDEFINED:'
 000A0E 4100 0024            00024  6569  2          +
 000A12 5890 6D7E/0D99       01E14  6572  2          +
 000A18 5890 6DC2/0D99       01E58  6576  2          +
 000A1E 4140 0007            00007  6578  2  873.                  LA    R4,7
 000A22 47F0 7872            00908  6579  2  874.                  B     XTRSCAN1                GET NEXT UNDEFIMED
 000A26                             6580  1  875.                END   ,
                                    6584  1  876.     *
                                    6585  1  877.     *  ATTACH NEXT SYSLIB AND SCAN DIRECTORY FOR EXTERNAL
                                    6586  1  878.     *
 000A26 4112 0001            00001  6587  1  879.                  LA  R1,1(R2)              BUMP SYSLIB COUNT
 000A2A 4010 805C            0005C  6588  1  880.                  STH R1,WASLBNX
 000A2E 4C20 6ECE            01F64  6589  1  881.                  MH  R2,=AL2(L'GPWFCB)
 000A32 4122 B42A            0042A  6590  1  882.                  LA  R2,LNKSYSLB(R2)       LOC OF SYSLIB NAME
 000A36 D29D C08C 2000 0008C 00000  6591  1  883.                  MVC GPWFCB,@R2
 000A3C D207 C090 F000 00090 00000  6592  1  884.                  MVC GPWLMN,@R15           RESTORE VALUE AGAIN
 000A42 4D90 6D26/000C       01DBC  6593  1  885.                FSCALL ATTOLD                 ATTACH SYSLIB
 000A48 9110 C002      00002        6597  1  886.                IF    (GPWFNIXR,AND,~GPWFHYBR),NOTIXR
 000A4C 47E0 79C2            00A58  6609  1          +
 000A50 9108 C002      00002        6620  1          +
 000A54 47E0 6B98            01C2E  6623  1          +
1VPM      (VPM00) (09:49) (22MAR04) ORVYL'S PROGRAM MANAGER - LINK                                                          Page   58
0Current Usings:  (BASE+4096,R6) (BASE,R7) (WAPM,R8) (CLW,R10) (LNKPAGE,R11) (GPW,R12)
0Loc    Object Code    Addr1 Addr2  Stmt Lv Lineno    Source Statement           (Hibal 5, Asmedit 3.3)  HLASM R4.0  2004/03/22 09.49
+___    ______ ____    _____ _____  ____ __ ______    ______ _________
0000A58 4D90 6D26/1420       01DBC  6629  1  887.                FSCALL CHKSPIRE               AVOID SPIRES FILES
 000A5E 9614 8036      00036        6633  1  888.                  SET WAUTOSLB+WAUTOFTM     SET SYSLIB ATTACHED
                                    6642  1  889.     *$         FSCALL GETDIR         ONLY GET DIR THE FIRST TIME
 000A62                             6643     890.              END   ,
 000A62 9208 C08F      0008F        6647     891.              MVI   GPWLMNL,8
0000A66 4D90 6D26/100C       01DBC  6649     893.              FSCALL GETMEM                 READY PDS MEMBER FOR INPUT
 000A6C 47B0 79E2            00A78  6653     894.              IF    NEG,BEGIN              NOT FOUND
 000A70 9608 8036      00036        6664  1  895.                SET   WAUTOUXS                UNDEFINED STILL EXISTS
 000A74 47F0 787C            00912  6670  1  896.                B     XTRSCAN2                GET NEXT UNDEFINED
 000A78                             6671     897.              END   ,
                                    6675     898.     *
                                    6676     899.     *  SYMBOL FOUND IN DIRECTORY - INCLUDE THE MEMBER
                                    6677     900.     *
 000A78 94DF 8036      00036        6678     901.              CLEAR WAUTOXPS               RESOLVED MAY HAVE UNRESOLVEDS
                                    6685     902.     *                                      TAKE ANOTHER PASS THRU SYSLIBS
 000A7C 50E0 8050            00050  6686     903.              ST    R14,WAMBLNX             LAST MEMBER LOADED
 000A80 9104 8036      00036        6687     904.              IF    ~WAUTOFTM,BEGIN         ALREADY PRIMED
 000A84 4710 79FA            00A90  6697             +
 000A88 9610 8035      00035        6702  1  905.                  SET WAFLNXMB              MULTIPLE MEMBER
 000A8C 47F0 72BE            00354  6708  1  906.                  B   NXTMEMB
 000A90                             6709     907.              END   ,
 000A90 9601 8036      00036        6713     908.              SET   WAUTOFMB                MEMBER TO LOAD
 000A94 94FB 8036      00036        6719     909.              CLEAR WAUTOFTM                CLEAR FIRST TIME
 000A98 47F0 71A4            0023A  6726     910.              B     PRIME
                                    6727     911.     *
                                    6728     912.     *  FINISHED WITH ALL UNDEFINEDS
                                    6729     913.     *
 000A9C 5810 A000            00000  6730     914.     XTRSCAT  L     R1,CLWSCP
 USING  SCP,R1                      6731     915.              WITH  (SCP,R1),BEGIN
 000AA0 94BF 1261      00261        6745  1  916.                CLEAR SCBCFCLA                CLEAR ATTN
 DROP   SCP,R1                      6752     917.              END   ,
 000AA4                             6760     918.     XTRSCXT  LABEL ,
 000AA4 4BD0 6ED0            01F66  6762     919.              VPOP  RAR,,*
 000AA8 5890 D000            00000  6764             +
 000AAC 07F9                        6765     920.              BR    RAR
1VPM      (VPM00) (09:49) (22MAR04) ORVYL'S PROGRAM MANAGER - LINK                                                          Page   59
0Current Usings:  (BASE+4096,R6) (BASE,R7) (WAPM,R8) (CLW,R10) (LNKPAGE,R11) (GPW,R12)
0Loc    Object Code    Addr1 Addr2  Stmt Lv Lineno    Source Statement           (Hibal 5, Asmedit 3.3)  HLASM R4.0  2004/03/22 09.49
+___    ______ ____    _____ _____  ____ __ ______    ______ _________
0                                   6767     922.     *
                                    6768     923.     * NAME: END OF LOAD MODULE INDICATOR
                                    6769     924.     *
                                    6770     925.     * NOTE: IF LOADFILE HAS BEEN NOT BEEN DEFINED THEN 'PROGLIB' IS THE
                                    6771     926.     *        DEFAULT LOADFILE.
                                    6772     927.     *
 000AAE                             6773     928.     NAME     LABEL ,
 000AAE 4D90 6AAA            01B40  6775     929.              LCALL LOADINGQ                ANYTHING SUBSTANTIAL LOADED?
 000AB2 4D90 680A            018A0  6777     930.              LCALL GETSYMB                 MUST BE 8-CHAR SYMBOL
 000AB6 4780 6BF6            01C8C  6779     931.              BZ    MISSING                 NO MODULE NAME
 000ABA 4D90 753C            005D2  6780     932.              LCALL CKALIAS                 MAKE SURE NAME IS UNIQUE
 000ABE                             6782     933.              CLEAR GPWLMSPC                CLEAR ANY PREVIOUS PGM NAME
 000ABE D71B C090 C090 00090 00090  6788             +
 000AC4 947F C003      00003        6789     934.              CLEAR GPWFERS                 CLEAR ANY PREVIOUS ERASE
 000AC8 4200 C08F            0008F  6796     935.              STC   R0,GPWLMNL              STORE LENGTH OF NAME
 000ACC D207 C090 1000 00090 00000  6797     936.              MVC   GPWLMN,@R1             MEMBER NAME
                                    6798     937.
 000AD2 9500 B38E      0038E        6799     938.              CLI   LNKSYSMD+GPWFNL-GPWFILE,0     SYSLMOD NAMED?
 000AD6 4770 7A5E            00AF4  6800     939.              IF    E,BEGIN                 IF NOT --
 000ADA 4D90 6D26/0004       01DBC  6811  1  940.                FSCALL FNINIT
 000AE0 4110 6EE8            01F7E  6815  1  941.                SETMSG 'PROGLIB'              DEFAULT NAME
 000AE4 4100 0007            00007  6818  1          +
 000AE8 4D90 6D26/040C       01DBC  6819  1  942.                FSCALL GOTNAME                PROCESS AS SCANNED NAME
 000AEE 4D90 6D26/1408       01DBC  6823  1  943.                FSCALL ASMBLNAM
 000AF4                             6827     944.              END   ,
 000AF4 7A62           00AF4 00AD8  6831     945.              ELSE  BEGIN                   MOV SYSLMOD
 000AF4 47F0 7A6E            00B04  6836             +
 000AF8 D202 C08C B38C 0008C 0038C  6842  1  946.                MVC   GPWFCB(3),LNKSYSMD
 000AFE D22B C0C4 B3C4 000C4 003C4  6843  1  947.                MVC   GPWFILN(L'GPWFN),LNKSYSMD+GPWFILN-GPWFILE
 000B04                             6844     948.              END   ,
 000B04 94BF 8035      00035        6848     949.              CLEAR WAFLGERA                NO REPLACE
 000B08 1B11/41F0 A2C4       002C4  6855     950.              SCAN  0,CLWKWCB               ANY FOLLOWING TOKEN?
 000B0E 58E0 6D9A/0DEE       01E30  6869             +
 000B14 4740 6BE6            01C7C  6871     951.              BM    ILLSTR
 000B18 4780 7A9C            00B32  6872     952.              IF    NZER,BEGIN
 000B1C D502 1000 6EEF 00000 01F85  6883  1  953.                CLC   @R1(3),=C'(R)'          REPLACE?
 000B22 4770 6C02            01C98  6884  1  954.                BNE   UNREC                   NO
 000B26 4900 6ED2            01F68  6885  1  955.                CH    R0,=Y(3)
 000B2A 4770 6C02            01C98  6886  1  956.                BNE   UNREC
 000B2E 9640 8035      00035        6887  1  957.                SET   WAFLGERA                OK TO REPLACE MEMBER
 000B32                             6893     958.              END   ,
                                    6897     959.
 000B32 9120 B1CF      001CF        6898     960.              IF    LNKPFCAL,BEGIN        AUTOCALL
 000B36 47E0 7AB4            00B4A  6908             +
 000B3A D29D B38C C08C 0038C 0008C  6913  1  961.                  MVC LNKSYSMD,GPWFCB       SAVE SYSLIB
 000B40 4D90 7854            008EA  6914  1  962.                  LCALL XTRESOLV              PULL IN UNDEFINEDS
 000B44 D29D C08C B38C 0008C 0038C  6916  1  963.                  MVC GPWFCB,LNKSYSMD       RESET NAME
 000B4A                             6917     964.              END   ,
 000B4A 9620 C001      00001        6921     965.              SET   GPWFANW                 ATTACH NEW IF NECESSARY
 000B4E 4D90 6D26/0010       01DBC  6927     966.              FSCALL ATTOLDE                OLD IS PREFERABLE
 000B54 9120 C08C      0008C        6931     967.              IF    GPWFNEW,BEGIN                      NEW
 000B58 47E0 7AD8            00B6E  6941             +
 000B5C 96C0 C0B8      000B8        6946  1  968.                  SET GPWUILIB+GPWUILDF     LIBRARY-LOADFILE
 000B60 9620 C0B4      000B4        6955  1  969.                  SET GPWLNEWD               CREATE DIRECTORY PAGE
1VPM      (VPM00) (09:49) (22MAR04) ORVYL'S PROGRAM MANAGER - LINK                                                          Page   60
0Current Usings:  (BASE+4096,R6) (BASE,R7) (WAPM,R8) (CLW,R10) (LNKPAGE,R11) (GPW,R12)
0Loc    Object Code    Addr1 Addr2  Stmt Lv Lineno    Source Statement           (Hibal 5, Asmedit 3.3)  HLASM R4.0  2004/03/22 09.49
+___    ______ ____    _____ _____  ____ __ ______    ______ _________
0000B64 9610 C08C      0008C        6961  1  970.                  SET GPWFFMT
 000B68 4D90 6D26/0830       01DBC  6967  1  971.                  FSCALL SETUINFO
 000B6E                             6971     972.              END   ,
 000B6E 7ADC           00B6E 00B5A  6975     973.              ELSE  BEGIN
 000B6E 47F0 7AFA            00B90  6980             +
 000B72 9140 C0B8      000B8        6986  1  974.                IF    ~GPWUILDF,NOTLDF
 000B76 47E0 6B86            01C1C  6998  1          +
 000B7A 9110 C002      00002        7004  1  975.                IF    (GPWFNIXR,AND,~GPWFHYBR),NOTIXR
 000B7E 47E0 7AF4            00B8A  7016  1          +
 000B82 9108 C002      00002        7027  1          +
 000B86 47E0 6B98            01C2E  7030  1          +
 000B8A 4D90 6D26/1420       01DBC  7036  1  976.                FSCALL CHKSPIRE               AVOID SPIRES FILES
 000B90                             7040     977.              END   ,
0                                   7045     979.     *
                                    7046     980.     *   CHECK TO SEE IF MEMBER EXISTS
                                    7047     981.     *        FSCALL CHECKMEM
                                    7048     982.     *   IF IT EXISTS, AND IF OK TO ERASE, THEN ERASE MEMBER
                                    7049     983.     *
 000B90 5830 B0B0            000B0  7050     984.              L     TR,LCBALIH              START FOR ALIAS CHAIN
 000B94                             7051     985.              CLEAR (GPWLMFBN,L'GPWLMFBN+L'GPWLMBCT+L'GPWLMLBN)
 000B94 D70B C0A4 C0A4 000A4 000A4  7057             +
 000B9A D207 A2E8 C090 002E8 00090  7058     986.              MVC   CLWTEMP,GPWLMN          SAVE PROGRAM NAME
                                    7059     987.
 000BA0 4D90 6D26/1008       01DBC  7060     988.              FSCALL CHECKMEM               DOES MEMBER EXIST ??
 000BA6 47B0 7B18            00BAE  7064     989.              IF    M,' CLEAR WAFLGERA '    NO, MEMBER NOT ERASED
 000BAA 94BF 8035      00035        7082             +
 000BAE 7B1C           00BAE 00BA8  7087     990.              ELSE  BEGIN                   YES, ERASE MEMBER IF OK
 000BAE 47F0 7B36            00BCC  7092             +
 000BB2 9140 8035      00035        7098  1  991.                IF    ~WAFLGERA,BEGIN
 000BB6 4710 7B32            00BC8  7108  1          +
 000BBA 4D90 6D26/140C       01DBC  7113  2  992.                  FSCALL ASKMBERS               ASK OK TO ERASE
 000BC0 9180 C003      00003        7117  2  993.                  IF    ~GPWFERS,REQABORT
 000BC4 47E0 6C38            01CCE  7129  2          +
 000BC8                             7135  1  994.                END
 000BC8 9640 8035      00035        7139  1  995.                SET   WAFLGERA                ERASE
 000BCC                             7145     996.              END
 000BCC 9680 C0B4      000B4        7149     997.              SET   GPWLREP                 WE WILL REPLACE ON EOFMEM
                                    7155     998.     *$  NOTE  FOR ORVYL FILES WE NOW DO NOT ERASE OLD ALIAS
                                    7156     999.     *$    ALSO ALIAS THAT ARE ALIAS FOR OTHER PROGRAMS ARE NOT REPLACED
                                    7157    1000.     *$  NOTE FOR OS FILES ALL ALIAS ARE REPLACED, ALIAS SMALIAS
 000BD0 9640 C0B4      000B4        7158    1001.              SET   GPWLGOTD
0000BD4 4D90 6D26/1010       01DBC  7165    1003.              FSCALL PUTMEM                 INITIALIZE MEMBER FOR OUTPUT
 000BDA 4D90 6CFA            01D90  7169    1004.              LCALL AMODE31
 000BDE 5890 6E22/0D99       01EB8  7171    1005.              VCALL LDMOINIT                INITIALIZE FOR OUTPUT
 000BE4 4770 6C50            01CE6  7175    1006.              BNZ   ERROR                   ERROR
 000BE8 4D90 6D06            01D9C  7176    1007.              LCALL AMODE24
 000BEC 9101 B1CF      001CF        7178    1008.              IF    LNKPFPRV,BEGIN         IF PRIVATE
 000BF0 47E0 7B68            00BFE  7188             +
 000BF4 41F0 0001            00001  7193  1 1009.                LA    R15,1                   SET CLPONLY
 000BF8 4D90 6D26/0848       01DBC  7194  1 1010.                FSCALL SETLDF                  ACCESS TO FILE
 000BFE                             7198    1011.              END   ,
 000BFE 9500 B108      00108        7202    1012.              IF    (' CLI LNKEP,0',NE),BEGIN    ENTRY ON CONTROL?
1VPM      (VPM00) (09:49) (22MAR04) ORVYL'S PROGRAM MANAGER - LINK                                                          Page   61
0Current Usings:  (BASE+4096,R6) (BASE,R7) (WAPM,R8) (CLW,R10) (LNKPAGE,R11) (GPW,R12)
0Loc    Object Code    Addr1 Addr2  Stmt Lv Lineno    Source Statement           (Hibal 5, Asmedit 3.3)  HLASM R4.0  2004/03/22 09.49
+___    ______ ____    _____ _____  ____ __ ______    ______ _________
0000C02 4780 7B8E            00C24  7210             +
 000C06 4110 B108            00108  7215  1 1013.                LA    R1,LNKEP                POINT TO NAME
 000C0A 5890 6DD6/0D99       01E6C  7216  1 1014.                VCALL LDFIND                  ASK LOADER TO FIND NAME
 000C10 4780 6622            016B8  7220  1 1015.                BZ    UNDEFENT                NO
 000C14 1211                        7221  1 1016.                LTR   R1,R1
 000C16 4740 6622            016B8  7222  1 1017.                BM    UNDEFENT
 USING  CSDNAME,R15                 7223  1 1018.                USING CSDNAME,R15             ##
                                    7232  1 1019.     *         L     R1,CSDADDR
 000C1A 1F11/BF17 F009       0000D  7233  1 1020.                L3    R1,CSDADDR+1
 DROP   CSDNAME,R15                 7241  1 1021.                DROP R15                      ##
                                    7248  1 1022.     *         LA    R1,@R1
 000C20 5010 B070            00070  7249  1 1023.                ST    R1,LCBEP                ENTRY POINT
 000C24                             7250    1024.              END   ,
 000C24 D201 B0D0 6ED4 000D0 01F6A  7254    1025.              MVC   LCBMOMTB,=Y(4096)       MAX TEXT BLOCK
 000C2A 5810 C038            00038  7255    1026.     LDFLOOP  L     R1,GPWBUFA
 000C2E 4800 C0BC            000BC  7256    1027.              LH    R0,GPWBLKSZ
 000C32 9108 C08C      0008C        7257    1028.              IF    GPWFVOSF,' LH R0,OSFBLKSZ'
 000C36 47E0 7BA8            00C3E  7267             +
 000C3A 4800 C104            00104  7273             +
 000C3E 4D90 6CFA            01D90  7278    1029.              LCALL AMODE31
 000C42 5890 6E26/0D99       01EBC  7280    1030.              VCALL LDMOGO                  GET A BLOCK OF OUTPUT
 000C48 4780 7CE2            00D78  7284    1031.              BZ    LDFDATA                 NORMAL RETURN FOR OUTPUT
                                    7285    1032.     * RETURN +4 FOR END OF OUTPUT
 000C4C 4770 6C50            01CE6  7286    1033.              BNZ   ERROR                   ERROR
0                                   7288    1035.     * INSERT NAME IN DIRECTORY.
                                    7289    1036.     *
 000C50                             7290    1037.              CLEAR (GPWLMF1,2)             CLEAR FLAGS
 000C50 D701 C0A0 C0A0 000A0 000A0  7296             +
 000C56 9104 B1CF      001CF        7297    1038.              IF    LNKPFREN,' OI  GPWLMF1,DFL1SHR'   REENTRANT
 000C5A 47E0 7BCC            00C62  7307             +
 000C5E 9620 C0A0      000A0        7313             +
 000C62 9102 B1CF      001CF        7318    1039.              IF    LNKPFPRT,' OI  GPWLMF1,DFL1REF'   PROTECTED
 000C66 47E0 7BD8            00C6E  7328             +
 000C6A 9610 C0A0      000A0        7334             +
 000C6E 9101 B1CF      001CF        7339    1040.              IF    LNKPFPRV,' OI  GPWLMF1,DFL1PRV'   PRIVATE
 000C72 47E0 7BE4            00C7A  7349             +
 000C76 9608 C0A0      000A0        7355             +
 000C7A 9180 B1D0      001D0        7360    1041.              IF    LNKPFM31,' OI  GPWLMF1,DFL1M31'   31 BIT MODE
 000C7E 47E0 7BF0            00C86  7370             +
 000C82 9604 C0A0      000A0        7376             +
 000C86 9101 B07C      0007C        7381    1042.              IF    LCBFPAG,'  OI  GPWLMF1,DFL1PAG'   PAGE BOUNDARY
 000C8A 47E0 7BFC            00C92  7391             +
 000C8E 9601 C0A0      000A0        7397             +
 000C92 4D90 6D26/1014       01DBC  7402    1043.              FSCALL EOFMEM                 EOF PROCESSING ON PDS MEMBER
 000C98 D207 B100 C090 00100 00090  7406    1044.              MVC   LNKANAM,GPWLMN          SAVE MEMBER NAME
 000C9E 5820 B0B0/1222       000B0  7407    1045.              LT    SR,LCBALIH              ANY ALIASES?
 000CA4 4780 7C30            00CC6  7411    1046.              BZ    LDFLOO5                 NO MORE
 000CA8                             7412    1047.     LDFLOO4  LABEL ,
 USING  CSD,R2                      7414    1048.              USING CSD,SR                  ##
 000CA8 D207 C098 2004 00098 00004  7423    1049.              MVC   GPWLMN2(8),CSDNAME      NAME TO INSERT
 000CAE 9640 C0B4      000B4        7424    1050.              SET   GPWLGOTD
 000CB2 9680 C0B4      000B4        7430    1051.              SET   GPWLREP                 OS ONLY, REP ALIAS IF NEEDED
 000CB6 4D90 6D26/101C       01DBC  7436    1052.              FSCALL ADDALIAS               GO ADD ALIAS
1VPM      (VPM00) (09:49) (22MAR04) ORVYL'S PROGRAM MANAGER - LINK                                                          Page   62
0Current Usings:  (CSD,R2) (BASE+4096,R6) (BASE,R7) (WAPM,R8) (CLW,R10) (LNKPAGE,R11) (GPW,R12)
0Loc    Object Code    Addr1 Addr2  Stmt Lv Lineno    Source Statement           (Hibal 5, Asmedit 3.3)  HLASM R4.0  2004/03/22 09.49
+___    ______ ____    _____ _____  ____ __ ______    ______ _________
0000CBC 5820 2000/1222       00000  7440    1053.              LT    SR,CSDLINK              POINT TO NEXT
 000CC2 4770 7C12            00CA8  7444    1054.              BNZ   LDFLOO4                 IF ANY, GO BACK
 000CC6                             7445    1055.     LDFLOO5  LABEL ,
 DROP   CSD,R2                      7447    1056.              DROP  SR                      ##
 000CC6 5890 6D8A/0D99       01E20  7454    1057.              VCALL CLEANUP                 DISCARD PROGRAM
 000CCC 9104 C001      00001        7458    1058.              IF    GPWFQIET,LDFQIET
 000CD0 4710 7C6C            00D02  7470             +
 000CD4 4D90 6D26/0410       01DBC  7476    1059.              FSCALL SEGMEMB                MEMBER NAME
 000CDA 9140 8035      00035        7480    1060.              IF    WAFLGERA,BEGIN
 000CDE 47E0 7C54            00CEA  7490             +
 000CE2 4110 01D9            001D9  7495  1 1061.                SEG   'replaced in '
 000CE6 4590 6D36            01DCC  7497  1          +
 000CEA                             7498    1062.              END   ,
 000CEA 7C58           00CEA 00CE0  7502    1063.              ELSE  BEGIN
 000CEA 47F0 7C60            00CF6  7507             +
 000CEE 4110 01E6            001E6  7513  1 1064.                SEG   'saved in '
 000CF2 4590 6D36            01DCC  7515  1          +
 000CF6                             7516    1065.              END   ,
 000CF6 4D90 6D26/0414       01DBC  7520    1066.              FSCALL SEGNAME                WRITE LIB NAME
 000CFC 5890 6DC2/0D99       01E58  7524    1067.              VWRITE ,
 000D02                             7529    1068.     LDFQIET  LABEL ,
 000D02 D203 C0B0 6DE2 000B0 01E78  7531    1069.              MVC   GPWNXTAD(4),=F'0'       GET FIRST ALIAS
 000D08 9640 C0B4      000B4        7532    1070.              SET   GPWLGOTD
 000D0C 4D90 6D26/102C       01DBC  7538    1071.              FSCALL NXTALIAS
 000D12 4740 7CD4            00D6A  7542    1072.              BM    NAMEDONE                DONE IF NONE
 USING  DENTRY,R14                  7543    1073.              USING DENTRY,R14              ##
 000D16 D207 A2E8 E000 002E8 00000  7552    1074.              MVC   CLWTEMP,DNAME           SAVE AWAY ALIAS NAME
 DROP   DENTRY,R14                  7553    1075.              DROP  R14                     ##
 000D1C 9091 D000            00000  7560    1076.              VPUSH RAR,R1,*                SAVE REGS
 000D20 41D0 D024            00024  7562             +
 000D24 4110 6EF2            01F88  7563    1077.              VWRITE 'WITH ALIASES:'
 000D28 4100 000D            0000D  7568             +
 000D2C 5890 6D7E/0D99       01E14  7571             +
 000D32 5890 6DC2/0D99       01E58  7575             +
 000D38 41E0 A2E8            002E8  7577    1078.              LA    R14,CLWTEMP             FIRST ONE IS IN CLWTEMP
 000D3C                             7578    1079.     LDFLOO2  LABEL ,
 USING  DENTRY,R14                  7580    1080.              USING DENTRY,R14              ##
 000D3C 4110 E000            00000  7589    1081.              VWRITE DNAME,8                WRITE NAME
 000D40 4100 0008            00008  7606             +
 000D44 5890 6D7E/0D99       01E14  7609             +
 000D4A 5890 6DC2/0D99       01E58  7613             +
 DROP   DENTRY,R14                  7615    1082.              DROP  R14                     ##
 000D50 4BD0 6ED6            01F6C  7622    1083.              VPOP  RAR,R1,*                RESTORE REGS
 000D54 9891 D000            00000  7624             +
 000D58 4D90 6D26/102C       01DBC  7625    1084.              FSCALL NXTALIAS               GET NEXT ALIAS
 000D5E 9091 D000            00000  7629    1085.              VPUSH RAR,R1,*                SAVE REGS FOR RE-ENTRY
 000D62 41D0 D024            00024  7631             +
 000D66 4780 7CA6            00D3C  7632    1086.              BZ    LDFLOO2                 GO WRITE ALIAS
                                    7633    1087.
 000D6A 4D90 6D26/0020       01DBC  7634    1088.     NAMEDONE FSCALL DETACH                 DETACH LOADFILE
 000D70 9620 B1E6      001E6        7638    1089.              SET   LNKSFRRB                BUFFER CLOBBERED BY UNLOAD
 000D74 47F0 73E0            00476  7644    1090.              B     NEXT
0000D78                             7646    1092.     LDFDATA  LABEL ,
1VPM      (VPM00) (09:49) (22MAR04) ORVYL'S PROGRAM MANAGER - LINK                                                          Page   63
0Current Usings:  (BASE+4096,R6) (BASE,R7) (WAPM,R8) (CLW,R10) (LNKPAGE,R11) (GPW,R12)
0Loc    Object Code    Addr1 Addr2  Stmt Lv Lineno    Source Statement           (Hibal 5, Asmedit 3.3)  HLASM R4.0  2004/03/22 09.49
+___    ______ ____    _____ _____  ____ __ ______    ______ _________
0000D78 4D90 6D06            01D9C  7648    1093.              LCALL AMODE24
 000D7C 18F0                        7650    1094.              LR    R15,R0                  TEXT LENGTH
 000D7E 4D90 6D26/0C18       01DBC  7651    1095.              FSCALL WRITEGO
 000D84 4D90 6D26/081C       01DBC  7655    1096.              FSCALL FORCE
 000D8A 47F0 7B94            00C2A  7659    1097.              B     LDFLOOP
1VPM      (VPM00) (09:49) (22MAR04) ORVYL'S PROGRAM MANAGER - LINK                                                          Page   64
0Current Usings:  (BASE+4096,R6) (BASE,R7) (WAPM,R8) (CLW,R10) (LNKPAGE,R11) (GPW,R12)
0Loc    Object Code    Addr1 Addr2  Stmt Lv Lineno    Source Statement           (Hibal 5, Asmedit 3.3)  HLASM R4.0  2004/03/22 09.49
+___    ______ ____    _____ _____  ____ __ ______    ______ _________
0                                   7661    1099.     *
                                    7662    1100.     * PAGE : MODULES TO BE PLACED ON A PAGE BOUNDARY
                                    7663    1101.     *
 000D8E                             7664    1102.     PAGE     LABEL ,
 000D8E 4D90 680A            018A0  7666    1103.              LCALL GETSYMB                 PARSE CSECT NAME
 000D92 4780 7D1C            00DB2  7668    1104.              BZ    PAGE10                  NONAME: PAGE NEXT CSECT
 000D96 D207 B014 1000 00014 00000  7669    1105.     PAGE0    MVC   LCBCI(8),@R1
 000D9C 5890 6E2A/0D99       01EC0  7670    1106.              VCALL LDPAGE                  GIVE NAME TO LOADER
 000DA2 4770 6C50            01CE6  7674    1107.              BNZ   ERROR                   ERROR
 000DA6 4D90 680A            018A0  7675    1108.              LCALL GETSYMB                 MORE SYMBOLS?
 000DAA 4770 7D00            00D96  7677    1109.              BNZ   PAGE0                   PROCESS
 000DAE 47F0 73E0            00476  7678    1110.              B     NEXT                    NEXT PLEASE
                                    7679    1111.
 000DB2 D207 B014 6D62 00014 01DF8  7680    1112.     PAGE10   MVC   LCBCI(8),=CL8' '        CLEAR NAME
 000DB8 5890 6E2A/0D99       01EC0  7681    1113.              VCALL LDPAGE                  PASS TO LOADER
 000DBE 47F0 73E0            00476  7685    1114.              B     NEXT
1VPM      (VPM00) (09:49) (22MAR04) ORVYL'S PROGRAM MANAGER - LINK                                                          Page   65
0Current Usings:  (BASE+4096,R6) (BASE,R7) (WAPM,R8) (CLW,R10) (LNKPAGE,R11) (GPW,R12)
0Loc    Object Code    Addr1 Addr2  Stmt Lv Lineno    Source Statement           (Hibal 5, Asmedit 3.3)  HLASM R4.0  2004/03/22 09.49
+___    ______ ____    _____ _____  ____ __ ______    ______ _________
0                                   7687    1116.     *
                                    7688    1117.     * PARM : PARM MUST PRECEDE ALL OTHER INPUT
                                    7689    1118.     *
 000DC2                             7690    1119.     PARM     LABEL ,
 000DC2 9140 A209      00209        7692    1120.              IF    CLWPFPL,PARMERR         PARM MUST BE FIRST THING
 000DC6 4710 7D62            00DF8  7704             +
 000DCA 5810 6E2E            01EC4  7710    1121.              LSCAN PRMCRDKW,CLWKWCB
 000DCE 41F0 A2C4            002C4  7724             +
 000DD2 58E0 6D9A/0DEE       01E30  7727             +
 000DD8 4770 6BE6            01C7C  7729    1122.              BNZ   ILLSTR
 000DDC 9140 8057      00057        7730    1123.              IF    WAFNOWN,'CLEAR   LNKPFLWN'  'NOWARN' OVERRIDE
 000DE0 47E0 7D52            00DE8  7740             +
 000DE4 947F B1CF      001CF        7752             +
 000DE8 9110 8057      00057        7757    1124.              IF    WAFNCAL,'CLEAR   LNKPFCAL'   'NOCALL'OVERRIDE
 000DEC 47E0 7D5E            00DF4  7767             +
 000DF0 94DF B1CF      001CF        7779             +
 000DF4 47F0 73E0            00476  7784    1125.              B     NEXT
                                    7785    1126.
 000DF8                             7786    1127.     PARMERR  LABEL ,
 000DF8 4110 01F0            001F0  7788    1128.              SEG   'Parm found while loading program'
 000DFC 4590 6D36            01DCC  7790             +
 000E00 47F0 6C50            01CE6  7791    1129.              B     ERROR
                                    7792    1130.
 000E04 9640 B1CF      001CF        7793    1131.     PARMLET  SET   LNKPFLET
 000E08 47F0 7D9E            00E34  7800    1132.              B     PARMWARN
                                    7801    1133.
 000E0C 9110 8057      00057        7802    1134.     PARMCALL IF    ~WAFNCAL,BEGIN       SET CALL OPTION
 000E10 4710 7D86            00E1C  7813             +
 000E14 9620 B1CF      001CF        7818  1 1135.                  SET LNKPFCAL
 000E18 9620 8054      00054        7824  1 1136.                SET WALNKPFL.LNKPFCAL
 000E1C                             7830    1137.              END   ,
 000E1C 07FE                        7834    1138.              SCRTN (15)
                                    7841    1139.
 000E1E 94DF B1CF      001CF        7842    1140.     PARMNCAL CLEAR LNKPFCAL
 000E22 94DF 8054      00054        7850    1141.              CLEAR WALNKPFL.LNKPFCAL
 000E26 9180 8057      00057        7857    1142.              IF    WAFNOVRD,'SET   WAFNCAL'
 000E2A 47E0 7D9C            00E32  7867             +
 000E2E 9610 8057      00057        7878             +
 000E32 07FE                        7883    1143.              SCRTN (15)
                                    7890    1144.
 000E34 9140 8057      00057        7891    1145.     PARMWARN IF    ~WAFNOWN,BEGIN         PRINT ERROR MESSAGES
 000E38 4710 7DAE            00E44  7902             +
 000E3C 9680 B1CF      001CF        7907  1 1146.                  SET LNKPFLWN
 000E40 9680 8054      00054        7913  1 1147.                SET   WALNKPFL.LNKPFLWN
 000E44                             7919    1148.              END   ,
 000E44 07FE                        7923    1149.              SCRTN (15)
                                    7930    1150.
 000E46                             7931    1151.     PARMNOWN LABEL ,
 000E46 947F B1CF      001CF        7933    1152.              CLEAR LNKPFLWN            DON'T PRINT ERROR MESSAGES
 000E4A 947F 8054      00054        7940    1153.              CLEAR WALNKPFL.LNKPFLWN
 000E4E 9180 8057      00057        7947    1154.              IF    WAFNOVRD,'SET   WAFNOWN'
 000E52 47E0 7DC4            00E5A  7957             +
 000E56 9640 8057      00057        7968             +
 000E5A 07FE                        7973    1155.              SCRTN (15)
1VPM      (VPM00) (09:49) (22MAR04) ORVYL'S PROGRAM MANAGER - LINK                                                          Page   66
0Current Usings:  (BASE+4096,R6) (BASE,R7) (WAPM,R8) (CLW,R10) (LNKPAGE,R11) (GPW,R12)
0Loc    Object Code    Addr1 Addr2  Stmt Lv Lineno    Source Statement           (Hibal 5, Asmedit 3.3)  HLASM R4.0  2004/03/22 09.49
+___    ______ ____    _____ _____  ____ __ ______    ______ _________
0                                   7980    1156.
 000E5C 1831                        7981    1157.     PARMSIZE LR    TR,R1
 000E5E 1A30                        7982    1158.              AR    TR,0
 000E60 0630                        7983    1159.              DECR  TR                      POINT TO LAST CHAR
 000E62 4120 0001            00001  7985    1160.              LA    SR,1
 000E66 95D2 3000      00000        7986    1161.              CLI   @TR,C'K'
 000E6A 4770 7DDE            00E74  7987    1162.              BNE   PARMNOK
 000E6E 4120 0400            00400  7988    1163.              LA    SR,1024
 000E72 0600                        7989    1164.              DECR  R0                      REMOVE 'K'
 000E74 90EF D000            00000  7991    1165.     PARMNOK  VPUSH R14,R15,*               SAVE SCAN REGS
 000E78 41D0 D008            00008  7993             +
 000E7C 58E0 6E32/0DEE       01EC8  7994    1166.              XCALL DTB                     DECIMAL TO BINARY
 000E82 4770 6C02            01C98  7998    1167.              BNZ   UNREC                   BAD CHARACTER
 000E86 183F                        7999    1168.              LR    TR,R15                  MOVE RESULT
 000E88 1C22                        8000    1169.              MR    SR,SR                   TR <- SR TIMES TR (TRICKY)
 000E8A 58F0 A000            00000  8001    1170.              L     R15,CLWSCP              GET THE SCP ADDRESS
 000E8E 5930 F1FC            001FC  8002    1171.              WITH  (SCP,R15),'CEIL  TR,SCPUMAP'   LARGEST MAP SIZE
 USING  SCP,R15
 000E92 47D0 7E04            00E9A  8021  1          +
 000E96 5830 F1FC            001FC  8022             +
 DROP   SCP,R15
 000E9A 5030 8058            00058  8031    1172.              ST    TR,WALCMPLN
 000E9E 9120 8035      00035        8032    1173.              IF    (WAFLGDSZ,OR,(LCBMPLEN,ZERO)),' ST TR,LCBMPLEN'
 000EA2 4710 7E1A            00EB0  8046             +
 000EA6 D603 B00C B00C 0000C 0000C  8056             +
 000EAC 4770 7E1E            00EB4  8057             +
 000EB0 5030 B00C            0000C  8063             +
 000EB4 4BD0 6ED8            01F6E  8068    1174.              VPOP  R14,R15,*
 000EB8 98EF D000            00000  8070             +
 000EBC 07FE                        8071    1175.              SCRTN (15)
                                    8078    1176.
 000EBE 9610 B1CF      001CF        8079    1177.     PARMLIST SET   LNKPFLST
 000EC2 9610 8054      00054        8086    1178.              SET   WALNKPFL.LNKPFLST
 000EC6 07FE                        8092    1179.              SCRTN (15)
                                    8099    1180.
 000EC8 9608 B1CF      001CF        8100    1181.     PARMMAP  SET   LNKPFMAP
 000ECC 9608 8054      00054        8107    1182.              SET   WALNKPFL.LNKPFMAP
 000ED0 07FE                        8113    1183.              SCRTN (15)
                                    8120    1184.
 000ED2 9680 B064      00064        8121    1185.     PARMOSNT SET   LCBXFOSN                OS ENTRY CONVENTIONS
 000ED6 9680 8056      00056        8128    1186.              SET   WALCBXFL.LCBXFOSN
 000EDA 07FE                        8134    1187.              SCRTN (15)
                                    8141    1188.
 000EDC 947F B064      00064        8142    1189.     PARMNOSN CLEAR LCBXFOSN            NO  OS ENTRY CONVENTIONS
 000EE0 947F 8056      00056        8150    1190.              CLEAR WALCBXFL.LCBXFOSN
 000EE4 07FE                        8157    1191.              SCRTN (15)
                                    8164    1192.
 000EE6 9620 B064      00064        8165    1193.     PARMFORT SET   LCBXFFRT                FORTRAN PROGRAM
 000EEA 9620 8056      00056        8172    1194.              SET   WALCBXFL.LCBXFFRT
 000EEE 07FE                        8178    1195.              SCRTN (15)
                                    8185    1196.
 000EF0 9602 B064      00064        8186    1197.     PARMURAM SET   LCBXFURM                USE URAM
 000EF4 9602 8056      00056        8193    1198.              SET   WALCBXFL.LCBXFURM
 000EF8 07FE                        8199    1199.              SCRTN (15)
1VPM      (VPM00) (09:49) (22MAR04) ORVYL'S PROGRAM MANAGER - LINK                                                          Page   67
0Current Usings:  (BASE+4096,R6) (BASE,R7) (WAPM,R8) (CLW,R10) (LNKPAGE,R11) (GPW,R12)
0Loc    Object Code    Addr1 Addr2  Stmt Lv Lineno    Source Statement           (Hibal 5, Asmedit 3.3)  HLASM R4.0  2004/03/22 09.49
+___    ______ ____    _____ _____  ____ __ ______    ______ _________
0                                   8206    1200.
 000EFA 9602 B1CF      001CF        8207    1201.     PARMREFR SET   LNKPFPRT                REFRESHABLE - PROTECTED
 000EFE 9602 8054      00054        8214    1202.              SET   WALNKPFL.LNKPFPRT
 000F02 07FE                        8220    1203.              SCRTN (15)
                                    8227    1204.
 000F04 9604 B1CF      001CF        8228    1205.     PARMRENT SET   LNKPFREN                RENTRENT - SHARABLE
 000F08 9604 8054      00054        8235    1206.              SET   WALNKPFL.LNKPFREN
 000F0C 07FE                        8241    1207.              SCRTN (15)
                                    8248    1208.
 000F0E 9601 B1CF      001CF        8249    1209.     PARMPRIV SET   LNKPFPRV                PRIVATE PROGRAM
 000F12 9601 8054      00054        8256    1210.              SET   WALNKPFL.LNKPFPRV
 000F16 07FE                        8262    1211.              SCRTN (15)
                                    8269    1212.
 000F18 9680 B1D0      001D0        8270    1213.     PARMM31  SET   LNKPFM31                START IN 31 BIT MODE
 000F1C 9680 8055      00055        8277    1214.              SET   WALNKPF2.LNKPFM31
 000F20 07FE                        8283    1215.              SCRTN (15)
                                    8290    1216.
 000F22                             8291    1217.     PARMNOGO LABEL ,
 000F22 4110 0211            00211  8293    1218.              SEG   'Parm statement must precede other statements'
 000F26 4590 6D36            01DCC  8295             +
 000F2A 47F0 6C50            01CE6  8296    1219.              B     ERROR
1VPM      (VPM00) (09:49) (22MAR04) ORVYL'S PROGRAM MANAGER - LINK                                                          Page   68
0Current Usings:  (BASE+4096,R6) (BASE,R7) (WAPM,R8) (CLW,R10) (LNKPAGE,R11) (GPW,R12)
0Loc    Object Code    Addr1 Addr2  Stmt Lv Lineno    Source Statement           (Hibal 5, Asmedit 3.3)  HLASM R4.0  2004/03/22 09.49
+___    ______ ____    _____ _____  ____ __ ______    ______ _________
0                                   8298    1221.     * REPLACE CSECT
                                    8299    1222.     *
 000F2E                             8300    1223.     REPLACE  LABEL ,
 000F2E 4D90 680A            018A0  8302    1224.              LCALL GETSYMB                 SCAN OUT EXTERNAL SYMBOL
 000F32 4780 73E0            00476  8304    1225.              BZ    NEXT                    ALL DONE
 000F36 D207 B014 1000 00014 00000  8305    1226.              MVC   LCBCI(8),@R1            SAVE NAME
 000F3C D207 B01C 6D62 0001C 01DF8  8306    1227.              MVC   LCBCI+8(8),=CL8' '      ASSUME NO LEVEL-1 SYMBOL
 000F42 4D90 6832            018C8  8307    1228.              LCALL GETPSYM                 GET LEVEL-1 SYMBOL
 000F46 4780 7EBA            00F50  8309    1229.              BZ    REPNDEL                 REPLACE/NOT DELETE
 000F4A D207 B01C 1000 0001C 00000  8310    1230.              MVC   LCBCI+8(8),@R1          SET REPLACED NAME
 000F50 5890 6E36/0D99       01ECC  8311    1231.     REPNDEL  VCALL LDREPDEL                GIVE TO LOADER
 000F56 4780 7E98            00F2E  8315    1232.              BZ    REPLACE                 SCAN FOR MORE
 000F5A 47F0 6C50            01CE6  8316    1233.              B     ERROR
1VPM      (VPM00) (09:49) (22MAR04) ORVYL'S PROGRAM MANAGER - LINK                                                          Page   69
0Current Usings:  (BASE+4096,R6) (BASE,R7) (WAPM,R8) (CLW,R10) (LNKPAGE,R11) (GPW,R12)
0Loc    Object Code    Addr1 Addr2  Stmt Lv Lineno    Source Statement           (Hibal 5, Asmedit 3.3)  HLASM R4.0  2004/03/22 09.49
+___    ______ ____    _____ _____  ____ __ ______    ______ _________
0                                   8318    1235.     * SUPERZAP REPLACEMENTS
                                    8319    1236.     *
                                    8320    1237.     * ZAPNAME <CSECT-NAME>
                                    8321    1238.     *     - SPECIFIES NAME OF CSECT TO BE ZAPPED.
                                    8322    1239.     *
                                    8323    1240.     * ZAPBASE <HEX-STRING>
                                    8324    1241.     *     - SPECIFIES OFFSET SUBTRACTED FROM VER AND REP OFFSETS
                                    8325    1242.     *
                                    8326    1243.     * ZAPVER <OFFSET> <HEX-STRING>
                                    8327    1244.     *     - VERIFIES OLD DATA
                                    8328    1245.     *
                                    8329    1246.     * ZAPREP <OFFSET> <HEX-STRING>
                                    8330    1247.     *     - NEW DATA
                                    8331    1248.     *
 000F5E 4D90 6AAA            01B40  8332    1249.     ZAPNAME  LCALL LOADINGQ
 000F62 4D90 680A            018A0  8334    1250.              LCALL GETSYMB                 CSECTNAME
 000F66 4780 6BF6            01C8C  8336    1251.              BZ    MISSING                 NO CSECT NAME
 000F6A 5890 6DD6/0D99       01E6C  8337    1252.              VCALL LDFIND
 000F70 4780 7FC8            0105E  8341    1253.              BZ    ZPUNDEF                 NAME NOT DEFINED
 000F74 1211                        8342    1254.              LTR   R1,R1
 000F76 4740 7FC8            0105E  8343    1255.              BM    ZPUNDEF
 000F7A 1200                        8344    1256.              LTR   R0,R0                   DES NAME HAVE LENGTH?
 000F7C 4780 7FC8            0105E  8345    1257.              BZ    ZPUNDEF                 NO
 000F80 1B22                        8346    1258.              CLEAR SR                      ZERO ZAP BASE
 000F82 9002 B1D4            001D4  8350    1259.              STM   R0,SR,LNKZPTRS          LEN, LOC AND BASE OF CSECT
 000F86 47F0 73E0            00476  8351    1260.              B     NEXT
                                    8352    1261.
 000F8A 5830 B1D4/1233       001D4  8353    1262.     ZAPBASE  LT    TR,LNKZPTRS             CSECT DEFINED?
 000F90 4780 7FD4            0106A  8357    1263.              BZ    ZPNONAM                 NO
 000F94 1B11/41F0 A2C4       002C4  8358    1264.              SCAN  0,CLWKWCB               GET HEX STRING
 000F9A 58E0 6D9A/0DEE       01E30  8372             +
 000FA0 4740 6BE6            01C7C  8374    1265.              BM    ILLSTR
 000FA4 4780 6BF6            01C8C  8375    1266.              BZ    MISSING
 000FA8 58E0 6E3A/0DEE       01ED0  8376    1267.              XCALL XTB                     CONVERT DISPLACEMENT
 000FAE 1200                        8380    1268.              LTR   R0,R0                   OK?
 000FB0 4770 7FE0            01076  8381    1269.              BNZ   ZPILLOFF                NO, BAD OFFSET
 000FB4 50F0 B1DC            001DC  8382    1270.              ST    R15,LNKZBASE            SAVE FOR LATER
 000FB8 47F0 73E0            00476  8383    1271.              B     NEXT
                                    8384    1272.
 000FBC 4120 7F8A            01020  8385    1273.     ZAPVER   LA    SR,DOZAPVER             VERIFY SWITCH
 000FC0 47F0 7F32            00FC8  8386    1274.              B     ZAPCOM
                                    8387    1275.
 000FC4 4120 7F9E            01034  8388    1276.     ZAPREP   LA    SR,DOZAPREP             REPLACE SWITCH
                                    8389    1277.
 000FC8 9834 B1D4            001D4  8390    1278.     ZAPCOM   LM    TR,QR,LNKZPTRS          LEN,LOC OF CSECT
 000FCC 1233                        8391    1279.              LTR   TR,TR                   DEFINED?
 000FCE 4780 7FD4            0106A  8392    1280.              BZ    ZPNONAM
 000FD2 1B11/41F0 A2C4       002C4  8393    1281.              SCAN  0,CLWKWCB               NEXT TOKEN
 000FD8 58E0 6D9A/0DEE       01E30  8407             +
 000FDE 4740 6BE6            01C7C  8409    1282.              BM    ILLSTR
 000FE2 4780 6BF6            01C8C  8410    1283.              BZ    MISSING
 000FE6 58E0 6E3A/0DEE       01ED0  8411    1284.              XCALL XTB                     CONVERT OFFSET
 000FEC 1200                        8415    1285.              LTR   R0,R0                   CONVERT OK?
 000FEE 4770 7FE0            01076  8416    1286.              BNZ   ZPILLOFF                NO
1VPM      (VPM00) (09:49) (22MAR04) ORVYL'S PROGRAM MANAGER - LINK                                                          Page   70
0Current Usings:  (BASE+4096,R6) (BASE,R7) (WAPM,R8) (CLW,R10) (LNKPAGE,R11) (GPW,R12)
0Loc    Object Code    Addr1 Addr2  Stmt Lv Lineno    Source Statement           (Hibal 5, Asmedit 3.3)  HLASM R4.0  2004/03/22 09.49
+___    ______ ____    _____ _____  ____ __ ______    ______ _________
0000FF2 5BF0 B1DC            001DC  8417    1287.              S     R15,LNKZBASE            SUBTRACT BASE
 000FF6 15F3                        8418    1288.              CLR   R15,TR                  IS OFFSET OK?
 000FF8 47B0 7FE0            01076  8419    1289.              BNL   ZPILLOFF                NO
 000FFC 1E4F                        8420    1290.              ALR   QR,R15                  START OF VER/REP
 000FFE 1F3F                        8421    1291.              SLR   TR,R15                  SPACE FOR VER/REP IN CSECT
 001000 4100 0020            00020  8422    1292.              LA    R0,32                   MAX VER/REP LENGTH
 001004 181D/41D0 D020       00020  8423    1293.              VPUSH ,,32,PTR=R1             USE STACK FOR TEXT
 00100A 5890 6E3E/0D99       01ED4  8426    1294.              VCALL EVHEX
 001010 4740 6C50            01CE6  8430    1295.              BM    ERROR                   ERROR MESSAGE IN BUFFER
 001014 1503                        8431    1296.              CLR   R0,TR                   FIT IN CSECT?
 001016 4720 7FE0            01076  8432    1297.              BH    ZPILLOFF                NO
 00101A 1830                        8433    1298.              LR    TR,R0
 00101C 0630                        8434    1299.              DECR  TR                      LENGTH FOR MVC/CLC
 00101E 07F2                        8436    1300.              BR    SR                      DO VER OR REP
                                    8437    1301.
 001020 4430 6F1C            01FB2  8438    1302.     DOZAPVER EX    TR,'CLC  @QR(0),@R1'    COMPARE TEXT
 001FB2 D500 4000 1000 00000 00000  8446             +
 001024 4780 7FA2            01038  8454    1303.              BE    DOZAPRE1                VER OK
 001028 4110 023E            0023E  8455    1304.              SEG   'ZAP verify error'
 00102C 4590 6D36            01DCC  8457             +
 001030 47F0 6C50            01CE6  8458    1305.              B     ERROR
                                    8459    1306.
 001034 4430 6F22            01FB8  8460    1307.     DOZAPREP EX    TR,'MVC  @QR(0),@R1'    MOVE TEXT
 001FB8 D200 4000 1000 00000 00000  8468             +
 001038                             8476    1308.     DOZAPRE1 LABEL ,
 001038 18D1                        8478    1309.              VPOP  PTR=R1
 00103A 1B11/41F0 A2C4       002C4  8480    1310.              SCAN  0,CLWKWCB               ANYTHING LEFT OVER?
 001040 58E0 6D9A/0DEE       01E30  8494             +
 001046 4740 6BE6            01C7C  8496    1311.              BM    ILLSTR
 00104A 4780 73E0            00476  8497    1312.              BZ    NEXT
 00104E 4590 6D0E            01DA4  8498    1313.              SEG   (1),(0)
 001052 4110 024F            0024F  8512    1314.              SEG   ':Not processed'
 001056 4590 6D36            01DCC  8514             +
 00105A 47F0 6C50            01CE6  8515    1315.              B     ERROR
                                    8516    1316.
 00105E 4110 025E            0025E  8517    1317.     ZPUNDEF  SEG   'Name not a defined csect'
 001062 4590 6D36            01DCC  8519             +
 001066 47F0 6C50            01CE6  8520    1318.              B     ERROR
                                    8521    1319.
 00106A 4110 0277            00277  8522    1320.     ZPNONAM  SEG   'Missing ZAPNAME statement'
 00106E 4590 6D36            01DCC  8524             +
 001072 47F0 6C50            01CE6  8525    1321.              B     ERROR
                                    8526    1322.
 001076 4110 0291            00291  8527    1323.     ZPILLOFF SEG   'Invalid offset specified'
 00107A 4590 6D36            01DCC  8529             +
 00107E 47F0 6C50            01CE6  8530    1324.              B     ERROR
1VPM      (VPM00) (09:49) (22MAR04) ORVYL'S PROGRAM MANAGER - LINK                                                          Page   71
0Current Usings:  (BASE+4096,R6) (BASE,R7) (WAPM,R8) (CLW,R10) (LNKPAGE,R11) (GPW,R12)
0Loc    Object Code    Addr1 Addr2  Stmt Lv Lineno    Source Statement           (Hibal 5, Asmedit 3.3)  HLASM R4.0  2004/03/22 09.49
+___    ______ ____    _____ _____  ____ __ ______    ______ _________
0                                   8532    1326.     * LINK END OF FILE. ENTER?
                                    8533    1327.     *
 001082 9108 8034      00034        8534    1328.     LINKEOF  IF    WAFLENT,ENTER           ENTER
 001086 4710 638C            01422  8547             +
 00108A 9140 A209      00209        8553    1329.              IF    CLWPFPL,'CLEAR  LNKFFREE'  IF PROG, DON'T CLEAN UP
 00108E 47E0 6000            01096  8563             +
 001092 94FE B1CE      001CE        8575             +
 001096 47F0 6C12            01CA8  8580    1330.              B     FILEXIT
1VPM      (VPM00) (09:49) (22MAR04) ORVYL'S PROGRAM MANAGER - CALL                                                          Page   72
0Current Usings:  (BASE+4096,R6) (BASE,R7) (WAPM,R8) (CLW,R10) (LNKPAGE,R11) (GPW,R12)
0Loc    Object Code    Addr1 Addr2  Stmt Lv Lineno    Source Statement           (Hibal 5, Asmedit 3.3)  HLASM R4.0  2004/03/22 09.49
+___    ______ ____    _____ _____  ____ __ ______    ______ _________
0                                   8582    1332.     * CALL COMMAND
                                    8583    1333.     *
                                    8584    1334.     *                    USER UUU/GROUP GG
                                    8585    1335.     *        CALL <NAME> LIBRARY <FILENAME> CLEAR PAUSE <PARM>
                                    8586    1336.     *                         PUBLIC
                                    8587    1337.     *
 00109A                             8588    1338.     CALL     LABEL ,
 00109A 9602 C001      00001        8590    1339.              SET   GPWOSFOK                SET OS/FILE POSSIBLE
 00109E 4D90 680A            018A0  8596    1340.              LCALL GETSYMB                 PROGRAM NAME
 0010A2 4780 6BF6            01C8C  8598    1341.              BZ    MISSING                 NO PROGRAM NAME
 0010A6 9602 8034      00034        8599    1342.              SET   WAFLPUB                 SEARCH BOTH LIBRARIES
 0010AA D207 C090 1000 00090 00000  8605    1343.              MVC   GPWLMN,@R1
 0010B0 9140 A2AD      002AD        8606    1344.              TM    CLWKFL,CLWKFMP          MANDATORY PROGRAM?
 0010B4 4780 6030            010C6  8607    1345.              BZ    CALLOK                  NO
 0010B8 D507 A2B3 C090 002B3 00090  8608    1346.              CLC   CLWKPROG,GPWLMN         MATCH?
 0010BE 4770 6BC8            01C5E  8609    1347.              BNE   CHEAP                   NO
 0010C2 4DE0 61B4            0124A  8610    1348.              BAS   R14,CALLPUB             FORCE PUBLIC
 0010C6 5810 6E42            01ED8  8611    1349.     CALLOK   LSCAN KWCALL,CLWKWCB          SCAN REST OF COMMAND
 0010CA 41F0 A2C4            002C4  8625             +
 0010CE 58E0 6D9A/0DEE       01E30  8628             +
 0010D4 4770 6BE6            01C7C  8630    1350.              BNZ   ILLSTR
 0010D8 4D90 6966            019FC  8631    1351.              LCALL CLRCALL                 NEED CLEAN SLATE
 0010DC D200 B064 8056 00064 00056  8633    1352.              MVC   LCBXFL,WALCBXFL     MOVE IN SPECIFIED PARAMETERS
 0010E2 D200 B1CF 8054 001CF 00054  8634    1353.              MVC   LNKPFL,WALNKPFL
 0010E8 D200 B1D0 8055 001D0 00055  8635    1354.              MVC   LNKPFL2,WALNKPF2
 0010EE                             8636    1355.              IF    (LCBMPLEN,ZERO),BEGIN
 0010EE D603 B00C B00C 0000C 0000C  8646             +
 0010F4 4770 6080            01116  8647             +
 0010F8 D203 B00C 8058 0000C 00058  8652  1 1356.                MVC   LCBMPLEN,WALCMPLN
 0010FE                             8653  1 1357.                IF    (LCBMPLEN,ZERO),BEGIN
 0010FE D603 B00C B00C 0000C 0000C  8663  1          +
 001104 4770 6080            01116  8664  1          +
 001108 58F0 A000            00000  8669  2 1358.                  L     R15,CLWSCP              GET THE SCP ADDRESS
 USING  SCP,R15                     8670  2 1359.                  WITH  (SCP,R15),'MVC  LCBMPLEN,SCPUMAP'    DEFAULT MAP
 00110C D203 B00C F1FC 0000C 001FC  8685  2          +
 DROP   SCP,R15
 001112 9620 8035      00035        8694  2 1360.                  SET   WAFLGDSZ                SUPPLIED
 001116                             8700  1 1361.                END   ,
 001116                             8704    1362.              END   ,
-                                   8709    1364.     * FILE DIRECTORY SEARCH. SEARCH THE USERS DEFAULT LIBRARY AND
                                    8710    1365.     * THE PUBLIC LIBRARY UNLESS A PARTICULAR LIBRARY WAS SPECIFIED
                                    8711    1366.     * IN THE CALL COMMAND.
                                    8712    1367.     *
 001116 9540 C05B      0005B        8713    1368.              CLI   GPWUSER,C' '
 00111A 4770 6098            0112E  8714    1369.              IF    EQ,BEGIN
 00111E 9540 C058      00058        8725  1 1370.                CLI   GPWGRP,C' '             IF USER,GROUP OR FILE NAME
 001122 4770 6098            0112E  8726  1 1371.                IF    EQ,BEGIN                IS SPECIFIED, THEN
 001126 9500 C08E      0008E        8737  2 1372.                  CLI   GPWFNL,0
 00112A 4780 60AC            01142  8738  2 1373.                  BE    CALLOK2
 00112E                             8739  1 1374.                END   ,
 00112E                             8743    1375.              END   ,
 00112E 94FD 8034      00034        8747    1376.              CLEAR WAFLPUB                 DON'T SEARCH PUBLIC.
1VPM      (VPM00) (09:49) (22MAR04) ORVYL'S PROGRAM MANAGER - CALL                                                          Page   73
0Current Usings:  (BASE+4096,R6) (BASE,R7) (WAPM,R8) (CLW,R10) (LNKPAGE,R11) (GPW,R12)
0Loc    Object Code    Addr1 Addr2  Stmt Lv Lineno    Source Statement           (Hibal 5, Asmedit 3.3)  HLASM R4.0  2004/03/22 09.49
+___    ______ ____    _____ _____  ____ __ ______    ______ _________
0001132 9500 C08E      0008E        8754    1377.              CLI   GPWFNL,0                USE DEFAULT NAME?
 001136 4770 60BA            01150  8755    1378.              BNE   CALLOK3                 NO
 00113A 9108 C003      00003        8756    1379.              IF    GPWFPUB,PUBPROG         PUBLIC SPECIFIED?
 00113E 4710 6112            011A8  8768             +
 001142                             8774    1380.     CALLOK2  LABEL ,
 001142 4110 6EE8            01F7E  8776    1381.              SETMSG 'PROGLIB'              DEFAULT NAME
 001146 4100 0007            00007  8779             +
 00114A 4D90 6D26/040C       01DBC  8780    1382.              FSCALL GOTNAME
 001150                             8784    1383.     CALLOK3  LABEL ,
 001150 4D90 6D26/1408       01DBC  8786    1384.              FSCALL ASMBLNAM               PUT NAME TOGETHER
0                                   8791    1386.     * ATTACH FILE AND SEARCH DIRECTORY
 001156                             8792    1387.     CALATCH  LABEL ,
 001156 9640 C001      00001        8794    1388.              SET   GPWFNOE                 NO ERROR IF FILE NOT THERE
 00115A 4D90 6D26/000C       01DBC  8800    1389.              FSCALL ATTOLD                 ATTACH THE FILE
 001160 12FF                        8804    1390.              LTR   R15,R15                 CHECK RETURN
 001162 4770 6106            0119C  8805    1391.              BNZ   TRYPUB                  NO SUCH FILE
 001166 9110 C002      00002        8806    1392.              IF    (GPWFNIXR,AND,~GPWFHYBR),NOTIXR
 00116A 47E0 60E0            01176  8818             +
 00116E 9108 C002      00002        8829             +
 001172 47E0 6B98            01C2E  8832             +
 001176 4D90 6D26/1420       01DBC  8838    1393.              FSCALL CHKSPIRE               AVOID SPIRES FILES
 00117C 4D90 6D26/100C       01DBC  8842    1394.              FSCALL GETMEM                    INITIALIZE MEMBER FOR READ
 001182 9110 C0B4      000B4        8846    1395.              IF    GPWALIAS,' MVC LNKANAM(4),GPWLMN2'
 001186 47E0 60FA            01190  8856             +
 00118A D203 B100 C098 00100 00098  8862             +
                                    8867    1396.     * PROGRAM FOUND. LOAD IT.
 001190 12FF/4780 61BE       01254  8868    1397.              IF    (R15,Z),CALLLOAD        LOAD PROGRAM FOR CALL
0001196 4D90 6D26/0020       01DBC  8886    1399.     TRYPUBDT FSCALL DETACH                 DETACH PREVIOUS FILE
 00119C 9102 8034      00034        8890    1400.     TRYPUB   IF    ~WAFLPUB,PROGNF         TRY PUBLIC FILE?
 0011A0 47E0 6BAA            01C40  8903             +
 0011A4 94FD 8034      00034        8909    1401.              CLEAR WAFLPUB                 JUST ONE PEEK
 0011A8                             8916    1402.     PUBPROG  LABEL ,
 0011A8 9108 C08C      0008C        8918    1403.              IF    GPWFVOSF,PROGNF         NO PUB FOR OS FILE
 0011AC 4710 6BAA            01C40  8930             +
 0011B0 4D90 6D26/0C2C       01DBC  8936    1404.              FSCALL GETCAT                 ENQ ON PROGRAM CATALOG
 0011B6 1841                        8940    1405.              LR    QR,R1                   MOVE CAT POINTER
 USING  PRGCAT,R4                   8941    1406.              USING PRGCAT,QR               ##
 0011B8 9823 4000            00000  8950    1407.              LM    SR,TR,PCATPTR           SET UP CAT POINTERS
 0011BC 1923                        8951    1408.     SRCHCAT  CR    SR,TR                   ALL DONE?
 0011BE 47B0 6192            01228  8952    1409.              BNL   CATNF                   YES, PROG NOT FOUND
 0011C2 41F0 C800            00800  8953    1410.              UNPRS GPWHXBUF,@SR            UNPRESS LINE
 0011C6 4110 2000            00000  8967             +
 0011CA 5890 6DA2/0D99       01E38  8970             +
 0011D0 4770 6C6C            01D02  8973    1411.              BNZ   PCATERR                 ERROR IN CATALOG
 0011D4 1821                        8974    1412.              LR    SR,R1                   UPDATE POINTER
 0011D6 4110 C800            00800  8975    1413.              SCINIT GPWHXBUF,(0),CLWKWCB   SET UP TO SCAN
 0011DA 41F0 A2C4            002C4  8994             +
 0011DE 58E0 6DB2/0DEE       01E48  8997             +
 0011E4 1B11/41F0 A2C4       002C4  8999    1414.              SCAN  ,CLWKWCB                GET PROGRAM NAME
 0011EA 58E0 6D9A/0DEE       01E30  9013             +
 0011F0 D507 A2C8 C090 002C8 00090  9015    1415.              CLC   CLWKWKW,GPWLMN          MATCH?
 0011F6 4770 6126            011BC  9016    1416.              BNE   SRCHCAT                 NO, TRY NEXT
1VPM      (VPM00) (09:49) (22MAR04) ORVYL'S PROGRAM MANAGER - CALL                                                          Page   74
0Current Usings:  (PRGCAT,R4) (BASE+4096,R6) (BASE,R7) (WAPM,R8) (CLW,R10) (LNKPAGE,R11) (GPW,R12)
0Loc    Object Code    Addr1 Addr2  Stmt Lv Lineno    Source Statement           (Hibal 5, Asmedit 3.3)  HLASM R4.0  2004/03/22 09.49
+___    ______ ____    _____ _____  ____ __ ______    ______ _________
00011FA 4D90 6D26/0004       01DBC  9017    1417.              FSCALL FNINIT                 INITIALIZE FILE NAME
 001200 4D90 6D26/0404       01DBC  9021    1418.              FSCALL GETNAME                GET FILE NAME
 001206 5810 6E46            01EDC  9025    1419.              LSCAN CATSCKWS,CLWKWCB        SCAN FOR ALTERNATE NAME
 00120A 41F0 A2C4            002C4  9039             +
 00120E 58E0 6D9A/0DEE       01E30  9042             +
 001214 4770 6C6C            01D02  9044    1420.              BNZ   PCATERR                 CATALOG ERROR
 001218 4D90 6D26/1408       01DBC  9045    1421.              FSCALL ASMBLNAM               PUT NAME TOGETHER
 00121E 4D90 6D26/0C30       01DBC  9049    1422.              FSCALL RELCAT                 RELEASE CATALOG
 001224 47F0 60C0            01156  9053    1423.              B     CALATCH                 GO GET PROGRAM
 DROP   PRGCAT,R4                   9054    1424.              DROP  QR                      ##
-001228 4D90 6D26/0C30       01DBC  9062    1426.     CATNF    FSCALL RELCAT                 RELEASE CATALOG
 00122E 47F0 6BAA            01C40  9066    1427.              B     PROGNF                  PROGRAM WASN'T THERE
-
 001232 D207 C090 A2C8 00090 002C8  9068    1429.     CATNAME  MVC   GPWLMN,CLWKWKW          MOVE IN NAME
 001238 4200 C08F            0008F  9069    1430.              STC   R0,GPWLMNL               AND LENGTH
 00123C                             9070    1431.     CATNOPRT LABEL ,                       IGNORE NOPRINT
 00123C 07FE                        9072    1432.     CATCOMM  SCRTN (R15)                   RETURN TO SCAN
-00123E 9604 8035      00035        9079    1434.     CATSPIRE SET   WAFLGSPI                NOTE SPIRES PROCESSOR
 001242 07FE                        9086    1435.              SCRTN (R15)
-001244 9602 8035      00035        9093    1437.     CATSPL   SET   WAFLGSPL                SET SHARED PGM LOAD
 001248 07FE                        9100    1438.              SCRTN (R15)
-                                   9107    1440.     * SPECIAL KEYWORD ROUTINE FOR PUBLIC PROGRAM CALLING
 00124A 9608 C003      00003        9108    1441.     CALLPUB  SET   GPWFPUB                 SET PUBLIC SPECIFIED
 00124E 5810 6E4A            01EE0  9115    1442.              L     R1,=V(SETPUB)
 001252 07F1                        9116    1443.              BR    R1                      GO HANDLE NORMALLY
1VPM      (VPM00) (09:49) (22MAR04) ORVYL'S PROGRAM MANAGER - CALL                                                          Page   75
0Current Usings:  (BASE+4096,R6) (BASE,R7) (WAPM,R8) (CLW,R10) (LNKPAGE,R11) (GPW,R12)
0Loc    Object Code    Addr1 Addr2  Stmt Lv Lineno    Source Statement           (Hibal 5, Asmedit 3.3)  HLASM R4.0  2004/03/22 09.49
+___    ______ ____    _____ _____  ____ __ ______    ______ _________
0                                   9118    1445.     * LOAD A PROGRAM (SHAREABLE OR OTHERWISE) FOR THE CALL COMMAND
                                    9119    1446.     *
 001254                             9120    1447.     CALLLOAD LABEL ,
 001254 9108 C0A0      000A0        9122    1448.              IF    ('TM GPWLMF1,DFL1PRV',O),BEGIN  PROTECTED MEMBER?
 001258 47E0 61D6            0126C  9130             +
 00125C 4D90 6D26/084C       01DBC  9135  1 1449.                FSCALL SENLDF                 IN A PROTECTED LOADFILE?
 001262 12FF/4780 61D6       0126C  9139  1 1450.                IF    (R15,NZ),'SET CLWPFPRV' LET'S REMEMBER THAT.
 001268 9604 A209      00209        9159  1          +
 00126C                             9164    1451.              END   ,
                                    9168    1452.     *        IF    ('TM GPWLMF1,DFL1PRV',O),'SET  CLWPFPRV' PROTECT MEMORY
 00126C 9101 8034      00034        9169    1453.              IF    WAFLNOSH,CALLDOLD       NOSHARE SPECIFIED
 001270 4710 628C            01322  9181             +
 001274 9120 C0A0      000A0        9187    1454.              TM    GPWLMF1,DFL1SHR         SHAREABLE PROGRAM?
 001278 4780 628C            01322  9188    1455.              BZ    CALLDOLD                NO, DO THE LOADING
000127C 9200 B100      00100        9190    1457.              MVI   LNKANAM,0               IGNORE ALIAS NAME
 001280 D207 B19A C090 0019A 00090  9191    1458.              MVC   LNKLMN,GPWLMN           MODULE NAME
 001286 D22B B1A2 C054 001A2 00054  9192    1459.              MVC   LNKFN,GPWFFN            SOURCE FILENAME
 00128C 4110 6EFF            01F95  9193    1460.              SETMSG 'SPB LOADING STUFF'
 001290 4100 0011            00011  9196             +
 001294 4D90 6D26/0C24       01DBC  9197    1461.              FSCALL ENQ
 00129A 9610 B1CE      001CE        9201    1462.              SET   LNKFSPNQ                NOTE ENQUEUE
 00129E 41F0 B1A2            001A2  9207    1463.              CLPSERV ATTSPB,LNKLMN,LNKFN   GET AN SPB
 0012A2 4110 B19A            0019A  9221             +
 0012A6 4100 0014/0AED       00014  9228             +
 0012AC 12FF/4770 6282       01318  9230    1464.              IF    (R15,NZ),CALLLO8        NONE AVAILABLE
 0012B2 5010 A25C            0025C  9247    1465.              ST    R1,CLWSPB               SPB ADDRESS (MVS)
 0012B6 1821                        9248    1466.              LR    SR,R1
 USING  SPB,R2                      9249    1467.              USING SPB,SR                  ##
 0012B8 9601 A209      00209        9258    1468.              SET   CLWPFSHR                SHARED PROGRAM LOAD
 0012BC 1B11                        9264    1469.              CLEAR R1
 0012BE 4D90 6CFA            01D90  9268    1470.              LCALL AMODE31
 0012C2 9180 2045      00045        9270    1471.              IF    SPBFLOAD,'LA R1,1'      LOAD THE SHARED PROGRAM
 0012C6 47E0 6238            012CE  9280             +
 0012CA 4110 0001            00001  9286             +
 0012CE 4D90 6D06            01D9C  9291    1472.              LCALL AMODE24
 0012D2 1211/4770 628C       01322  9293    1473.              IF    (R1,NZ),CALLDOLD
0                                   9311    1475.     * SHARED PROGRAM ALREADY LOADED.
 0012D8 9620 A209      00209        9312    1476.              SET   CLWPFPIC
 0012DC 4D90 6D26/0C28       01DBC  9318    1477.              FSCALL DEQ                    DEQUEUE
 0012E2 94EF B1CE      001CE        9322    1478.              CLEAR LNKFSPNQ                RESET ENQUEUE MARKER
 0012E6 D203 B00C 6E4E 0000C 01EE4  9329    1479.              MVC   LCBMPLEN,=A(4096)       ONE PAGE MAP PLEASE
 0012EC 4D90 6A76            01B0C  9330    1480.              LCALL LOADSHRD                INIT MAP FOR SHARED PROG
 0012F0 4D90 6CFA            01D90  9332    1481.              LCALL AMODE31
 0012F4 4810 2060            00060  9334    1482.              LH    R1,SPBRESRV             CORE RESERVED FOR SHARED PROG
 0012F8 8910 000C            0000C  9335    1483.              SLL   R1,12                   IN BYTES
 0012FC 5800 2048            00048  9336    1484.              L     R0,SPBORGIN             SHARED PROGRAM ORIGIN
 001300 9001 B000            00000  9337    1485.              STM   R0,R1,LCBCORE           PROGRAM CORE POINTERS
                                    9338    1486.
 001304 D203 A36C 2050 0036C 00050  9339    1487.              MVC   CLWSBPSW+4(4),SPBEP     ENTRY POINT
 00130A 4D90 6D06            01D9C  9340    1488.              LCALL AMODE24
 00130E 4D90 6D26/0020       01DBC  9342    1489.              FSCALL DETACH                 DON'T NEED FILE NOW
 001314 47F0 64DC            01572  9346    1490.              B     ENTSHRD                 GO ENTER PROGRAM
1VPM      (VPM00) (09:49) (22MAR04) ORVYL'S PROGRAM MANAGER - CALL                                                          Page   76
0Current Usings:  (BASE+4096,R6) (BASE,R7) (WAPM,R8) (CLW,R10) (LNKPAGE,R11) (GPW,R12)
0Loc    Object Code    Addr1 Addr2  Stmt Lv Lineno    Source Statement           (Hibal 5, Asmedit 3.3)  HLASM R4.0  2004/03/22 09.49
+___    ______ ____    _____ _____  ____ __ ______    ______ _________
0DROP   SPB,R2                      9347    1491.              DROP  SR
0001318                             9355    1493.     CALLLO8  LABEL ,                       NO SHARED PROGRAM BLOCKS LE
 001318 4D90 6D26/0C28       01DBC  9357    1494.              FSCALL DEQ                    DEQUEUE SPBID
 00131E 94EF B1CE      001CE        9361    1495.              CLEAR LNKFSPNQ                RESET ENQUEUE MARKER
                                    9368    1496.     * LOAD NEW SHARED PROGRAM.
                                    9369    1497.     * OR LOAD UNSHARED PROGRAM (ALL THE SAME TO ME.)
                                    9370    1498.     *
 001322                             9371    1499.     CALLDOLD LABEL ,
 001322 9110 C0A0      000A0        9373    1500.              TM    GPWLMF1,DFL1REF         REFRESHABLE (PROTECTED)?
 001326 47E0 6298            0132E  9374    1501.              IF    ON,' SET  LNKPFPRT'     SET PROTECTED PROGRAM
 00132A 9602 B1CF      001CF        9391             +
 00132E 9104 C0A0      000A0        9396    1502.              TM    GPWLMF1,DFL1M31         31 BIT MODE?
 001332 47E0 62A4            0133A  9397    1503.              IF    ON,' SET  LNKPFM31'     SET
 001336 9680 B1D0      001D0        9414             +
 00133A 4D90 62D4            0136A  9419    1504.              LCALL DOLOAD                  POINTERS IN GPWLMN
 00133E 4D90 6D26/0020       01DBC  9421    1505.              FSCALL DETACH                 RELEASE FILE
 001344 9500 B100      00100        9425    1506.              CLI   LNKANAM,0               ALIAS NAME?
 001348 4780 638C            01422  9426    1507.              BE    ENTER                   NO; USE NORMAL ENTRY
 00134C 4110 B100            00100  9427    1508.              LA    R1,LNKANAM              LOOK UP NAME
 001350 5890 6DD6/0D99       01E6C  9428    1509.              VCALL LDFIND
 001356 4780 638C            01422  9432    1510.              BZ    ENTER                   NOT DEFINED
 00135A 1211                        9433    1511.              LTR   R1,R1                   IS ADDRESS DEFINED?
 00135C 4740 638C            01422  9434    1512.              BM    ENTER                   NO
 001360 D207 B108 B100 00108 00100  9435    1513.              MVC   LNKEP,LNKANAM
 001366 47F0 638C            01422  9436    1514.              B     ENTER                   PERFORM FIXUP
                                    9437    1515.     * LOAD A LOAD MODULE
                                    9438    1516.     *
                                    9439    1517.     *        - DIRECTORY ENTRY IS IN GPWLMN
                                    9440    1518.     *
 00136A 9029 D000            00000  9441    1519.     DOLOAD   VPUSH SR,RAR,*
 00136E 41D0 D020            00020  9443             +
 001372 4D90 69C6            01A5C  9444    1520.              LCALL LOADING
 001376 D203 C0C0 C0A4 000C0 000A4  9446    1521.              MVC   GPWBN,GPWLMFBN          FIRST BLOCK NUMBER
 00137C 5890 6E52/0D99       01EE8  9447    1522.              VCALL LDMIINIT                INITIALIZE MODULE INPUT
 001382 4770 6C50            01CE6  9451    1523.              BNZ   ERROR                   ERROR
 001386 94F7 B1CE      001CE        9452    1524.              CLEAR LNKFEOM
000138A 4D90 6CFA            01D90  9460    1526.              LCALL AMODE31
 00138E D503 C0C0 C0AC 000C0 000AC  9462    1527.     DLDLOOP  CLC   GPWBN,GPWLMLBN          PAST LAST BLOCK?
 001394 4720 6B74            01C0A  9463    1528.              BH    BADLDF                  DAMAGE
 001398 4D90 6D26/0C08       01DBC  9464    1529.              FSCALL READ                   GET A BLOCK
 00139E 1801                        9468    1530.              LR    R0,R1                   READ LENGTH
 0013A0 5810 C038            00038  9469    1531.              L     R1,GPWBUFA
 0013A4 5890 6E56/0D99       01EEC  9470    1532.     DLDGO    VCALL LDMIGO                  GIVE TO LOADER
 0013AA 4780 6336            013CC  9474    1533.              BZ    DLDREC                  PROCESS NEXT RECORD
 0013AE 4780 6344            013DA  9475    1534.              BZ    DLDTEXT                 READ IN TEXT
 0013B2 4780 6328            013BE  9476    1535.              BZ    DLDEXIT                 LAST RECORD
 0013B6 4780 6340            013D6  9477    1536.              BZ    DLDTXEOM                TEXT BLOCK IS LAST RECORD
 0013BA 4770 6C50            01CE6  9478    1537.              BNZ   ERROR                   LAST RECORD PROCESSED
 0013BE                             9479    1538.     DLDEXIT  LABEL ,
 0013BE 4D90 6D06            01D9C  9481    1539.              LCALL AMODE24
 0013C2 4BD0 6EDA            01F70  9483    1540.              VPOP  SR,RAR,*                RESTORE WORK REGS
 0013C6 9829 D000            00000  9485             +
1VPM      (VPM00) (09:49) (22MAR04) ORVYL'S PROGRAM MANAGER - CALL                                                          Page   77
0Current Usings:  (BASE+4096,R6) (BASE,R7) (WAPM,R8) (CLW,R10) (LNKPAGE,R11) (GPW,R12)
0Loc    Object Code    Addr1 Addr2  Stmt Lv Lineno    Source Statement           (Hibal 5, Asmedit 3.3)  HLASM R4.0  2004/03/22 09.49
+___    ______ ____    _____ _____  ____ __ ______    ______ _________
00013CA 07F9                        9486    1541.              BR    RAR
 0013CC 1200                        9487    1542.     DLDREC   LTR   R0,R0                   ANY RECORD REMAINING
 0013CE 4770 630E            013A4  9488    1543.              BNZ   DLDGO
 0013D2 47F0 62F8            0138E  9489    1544.              B     DLDLOOP
                                    9490    1545.
 0013D6 9608 B1CE      001CE        9491    1546.     DLDTXEOM SET   LNKFEOM                 END OF MODULE FLAGG
 0013DA                             9498    1547.     DLDTEXT  LABEL ,
 0013DA 1821                        9500    1548.              LR    SR,R1                   SAVE TEXT ADDRESS
 0013DC 1830                        9501    1549.              LR    TR,R0                   AND LENGTH
 0013DE 1812                        9502    1550.     DLDTEXT1 LR    R1,SR                   TEXT ADDRESS
 0013E0 1843                        9503    1551.              LR    QR,TR                   REMAINING LENGTH
 0013E2 5940 6E4E            01EE4  9504    1552.              CEIL  QR,=A(4096)
 0013E6 47D0 6358            013EE  9507             +
 0013EA 5840 6E4E            01EE4  9508             +
 0013EE 1B34                        9509    1553.              SR    TR,QR                   LENGTH AFTER READ
 0013F0 4124 2000            00000  9510    1554.              LA    SR,@SR(QR)              NEXT TEXT ADDRESS
 0013F4 18F4                        9511    1555.              LR    R15,QR                  PASS LENGTH TO READ ROUTINE
 0013F6 D503 C0C0 C0AC 000C0 000AC  9512    1556.              CLC   GPWBN,GPWLMLBN          PAST END OF MEMBER?
 0013FC 4720 6B74            01C0A  9513    1557.              BH    BADLDF
 001400 4D90 6D26/0C10       01DBC  9514    1558.              FSCALL READGO                 READ PROGRAM TEXT
 001406 4770 6B74            01C0A  9518    1559.              BNZ   BADLDF                  MISSING RECORD
 00140A 1914                        9519    1560.              CR    R1,QR                   COUNT COMPARE
 00140C 4770 6B74            01C0A  9520    1561.              BNE   BADLDF                  SHORT RECORD
 001410 1233                        9521    1562.              LTR   TR,TR                   ANY LENGTH LEFT?
 001412 4770 6348            013DE  9522    1563.              BNZ   DLDTEXT1                YES
 001416 9108 B1CE      001CE        9523    1564.              IF    LNKFEOM,DLDEXIT         EOM
 00141A 4710 6328            013BE  9535             +
 00141E 47F0 62F8            0138E  9541    1565.              B     DLDLOOP
1VPM      (VPM00) (09:49) (22MAR04) ORVYL'S PROGRAM MANAGER - ENTER                                                         Page   78
0Current Usings:  (BASE+4096,R6) (BASE,R7) (WAPM,R8) (CLW,R10) (LNKPAGE,R11) (GPW,R12)
0Loc    Object Code    Addr1 Addr2  Stmt Lv Lineno    Source Statement           (Hibal 5, Asmedit 3.3)  HLASM R4.0  2004/03/22 09.49
+___    ______ ____    _____ _____  ____ __ ______    ______ _________
0                                   9543    1567.     *
                                    9544    1568.     * ENTER: BEGIN PROGRAM EXECUTION
                                    9545    1569.     *
 001422                             9546    1570.     ENTER    LABEL ,
 001422 4D90 6AAA            01B40  9548    1571.              LCALL LOADINGQ
 001426 5810 6E5A            01EF0  9550    1572.              LSCAN KWENTER,CLWKWCB
 00142A 41F0 A2C4            002C4  9564             +
 00142E 58E0 6D9A/0DEE       01E30  9567             +
 001434 4770 6BE6            01C7C  9569    1573.              BNZ   ILLSTR
 001438 9120 B1CF      001CF        9570    1574.              IF    LNKPFCAL,'LCALL XTRESOLV'  PROCESS UNDEFINEDS
 00143C 47E0 63AE            01444  9580             +
 001440 4D90 7854            008EA  9587             +
 001444 4D90 6CFA            01D90  9592    1575.              LCALL AMODE31
 001448 D203 B010 B000 00010 00000  9594    1576.              MVC   LCBRF,LCBCORE           RELOCATE TO CURRENT LOCATION.
 00144E 5890 6E5E/0D99       01EF4  9595    1577.              VCALL LDFIX
 001454 4770 6C50            01CE6  9599    1578.              BNZ   ERROR                   ERROR
 001458 4D90 6D06            01D9C  9600    1579.              LCALL AMODE24
                                    9602    1580.     *         L     R1,LCBEP                DEFAULT ENTRY FROM OBJECT
                                    9603    1581.     *         AL    R1,LCBCORE
 00145C 5810 B000            00000  9604    1582.              L     R1,LCBCORE
 001460 58F0 B070/12FF       00070  9605    1583.              LT    R15,LCBEP
 001466 47D0 63D6/1E1F       0146C  9609    1584.              IF    P,'ALR R1,R15'          ENTRY POINT OTHER THAN START
 00146C 9500 B108      00108        9626    1585.              IF    ('CLI LNKEP,0',NE),BEGIN    ENTRY ON CONTROL?
 001470 4780 63F2            01488  9634             +
 001474 4110 B108            00108  9639  1 1586.                LA    R1,LNKEP                POINT TO NAME
 001478 5890 6DD6/0D99       01E6C  9640  1 1587.                VCALL LDFIND                  ASK LOADER TO FIND NAME
 00147E 4780 6622            016B8  9644  1 1588.                BZ    UNDEFENT                NO
 001482 1211/4740 6622       016B8  9645  1 1589.                IF    (R1,M),UNDEFENT
 001488                             9662    1590.              END   ,
 001488 5010 A36C            0036C  9666    1591.              ST    R1,CLWSBPSW+4           SET ENTRY ADDRESS
 00148C 5810 B078            00078  9667    1592.              L     R1,LCBLC                AMOUNT OF CORE USED
 001490 4110 1FFF            00FFF  9668    1593.              LA    R1,@R1+X'FFF'           ROUND UP TO PAGES
 001494 5410 6E62            01EF8  9669    1594.              N     R1,=X'7FFFF000'
 001498 58F0 B004            00004  9670    1595.              L     R15,LCBCLEN             ORIGINAL ALLOTMENT
 00149C 5010 B004            00004  9671    1596.              ST    R1,LCBCLEN
 0014A0 9101 A209      00209        9672    1597.              IF    ~CLWPFSHR,BEGIN
 0014A4 4710 6422            014B8  9682             +
 0014A8 1BF1/4780 6422       014B8  9687  1 1598.                IF    ('SR  R15,R1',Z),EXIT   NOTHING TO FREE
 0014AE 5E10 B000            00000  9703  1 1599.                AL    R1,LCBCORE              FIRST ADDRESS TO FREE
 0014B2 4100 000F/0AFB       0000F  9704  1 1600.                VSET  15,(1),(15)             FREE UNUSED CORE
 0014B8                             9728    1601.              END   ,
                                    9732    1602.
 0014B8 9102 B1CF      001CF        9733    1603.              IF    LNKPFPRT,BEGIN          PROTECTED?
 0014BC 47E0 6438            014CE  9743             +
 0014C0 4100 0013            00013  9748  1 1604.                VSET  19,L:LCBCORE,L:LCBLC    PROTECT THE PAGES
 0014C4 5810 B000            00000  9760  1          +
 0014C8 58F0 B078/0AFB       00078  9765  1          +
 0014CE                             9772    1605.              END   ,
 0014CE 9180 B1D0      001D0        9776    1606.              IF    LNKPFM31,BEGIN
 0014D2 47E0 6448            014DE  9786             +
 0014D6 9680 A36C      0036C        9791  1 1607.                OI    CLWSBPSW+4,X'80'        Set to 31 bit mode
 0014DA 9602 A208      00208        9792  1 1608.                SET   CLWFM31                 Indicate in work area
 0014DE                             9798    1609.              END   ,
 0014DE 644C           014DE 014D4  9802    1610.              ELSE  'CLEAR CLWFM31'
1VPM      (VPM00) (09:49) (22MAR04) ORVYL'S PROGRAM MANAGER - ENTER                                                         Page   79
0Current Usings:  (BASE+4096,R6) (BASE,R7) (WAPM,R8) (CLW,R10) (LNKPAGE,R11) (GPW,R12)
0Loc    Object Code    Addr1 Addr2  Stmt Lv Lineno    Source Statement           (Hibal 5, Asmedit 3.3)  HLASM R4.0  2004/03/22 09.49
+___    ______ ____    _____ _____  ____ __ ______    ______ _________
00014DE 47F0 6450            014E6  9807             +
 0014E2 94FD A208      00208        9820             +
1VPM      (VPM00) (09:49) (22MAR04) ORVYL'S PROGRAM MANAGER - ENTER                                                         Page   80
0Current Usings:  (BASE+4096,R6) (BASE,R7) (WAPM,R8) (CLW,R10) (LNKPAGE,R11) (GPW,R12)
0Loc    Object Code    Addr1 Addr2  Stmt Lv Lineno    Source Statement           (Hibal 5, Asmedit 3.3)  HLASM R4.0  2004/03/22 09.49
+___    ______ ____    _____ _____  ____ __ ______    ______ _________
0                                   9826    1612.     * IF SHAREABLE PROGRAM JUST ENTERED, PERFORM SPB UPDATE.
 0014E6 9101 A209      00209        9827    1613.              IF    CLWPFSHR,BEGIN         SHARED PROGRAM LOADED?
 0014EA 47E0 64AA            01540  9837             +
 0014EE 5820 A25C            0025C  9842  1 1614.                L     SR,CLWSPB               SPB POINTER
 USING  SPB,R2                      9843  1 1615.                WITH  (SPB,SR)
 0014F2 4D90 6CFA            01D90  9856  1 1616.                LCALL AMODE31
 0014F6 5810 B004            00004  9858  1 1617.                L     R1,LCBCLEN              LENGTH OF PROGRAM
                                    9859  1 1618.     *        ST    R1,SPBSIZE               TO SPB
 0014FA 8810 000C            0000C  9860  1 1619.                SRL   R1,12                   TO PAGES
 0014FE 4010 2060            00060  9861  1 1620.                STH   R1,SPBRESRV             RESERVE REQUIREMENT FOR SPB
 001502 9180 B1D0      001D0        9862  1 1621.                IF    LNKPFM31,'SET SPBFM31'  Make sure it is set in SPB
 001506 47E0 6478            0150E  9872  1          +
 00150A 9604 2044      00044        9883  1          +
 00150E 9104 2044      00044        9888  1 1622.                IF    SPBFM31,BEGIN
 001512 47E0 6488            0151E  9898  1          +
 001516 9680 A36C      0036C        9903  2 1623.                  OI    CLWSBPSW+4,X'80'        Set to 31 bit mode
 00151A 9602 A208      00208        9904  2 1624.                  SET   CLWFM31                 Indicate in work area
 00151E                             9910  1 1625.                END   ,
 00151E 648C           0151E 01514  9914  1 1626.                ELSE  'CLEAR CLWFM31'
 00151E 47F0 6490            01526  9919  1          +
 001522 94FD A208      00208        9932  1          +
 001526 D203 2050 A36C 00050 0036C  9937  1 1627.                MVC   SPBEP,CLWSBPSW+4        ENTRY POINT
 00152C 4D90 6D06            01D9C  9938  1 1628.                LCALL AMODE24
 001530 4100 005C/0AED       0005C  9940  1 1629.                CLPSERV ADJSPB                FIX UP THE SPB
 001536 4D90 6D26/0C28       01DBC  9949  1 1630.                FSCALL DEQ                    RELEASE ENQUEUE
 00153C 94EF B1CE      001CE        9953  1 1631.                CLEAR LNKFSPNQ                RESET ENQUEUE MARKER
 DROP   SPB,R2                      9960    1632.              END   ,
 001540 94BF A209      00209        9969    1633.              CLEAR CLWPFPL                 CLEAR LOADING FLAG
 001544 9620 A209      00209        9976    1634.              SET   CLWPFPIC                PROGRAM EXECUTING
 001548 58F0 B008            00008  9982    1635.              L     R15,LCBMAP              POINT TO MAP START
 00154C 5AF0 B00C            0000C  9983    1636.              A     R15,LCBMPLEN            END OF MAP
 001550 5810 B08C            0008C  9984    1637.              L     R1,LCBCSDLC             END OF USED MAP
 001554 4110 1FFF            00FFF  9985    1638.              LA    R1,@R1+X'FFF'           ROUND UP
 001558 5410 6E62            01EF8  9986    1639.              N     R1,=X'7FFFF000'          TO A PAGE
 00155C 1BF1                        9987    1640.              SR    R15,R1                  GET LENGTH TO FREE
 00155E 47D0 64DC            01572  9988    1641.              IF    POS,BEGIN              SKIP FREE IF NOTHING
 001562 1801                        9999  1 1642.                LR    R0,R1                   COMPUTE NEW
 001564 5B00 B008            00008 10000  1 1643.                S     R0,LCBMAP               MAP AREA LENGTH
 001568 5000 B00C            0000C 10001  1 1644.                ST    R0,LCBMPLEN             FOR LATER
 00156C 5890 6D8E/0D99       01E24 10002  1 1645.                FREECLW (1),(15)              FREE UNNEEDED AREA
 001572                            10017    1646.              END   ,
1VPM      (VPM00) (09:49) (22MAR04) ORVYL'S PROGRAM MANAGER - ENTER                                                         Page   81
0Current Usings:  (BASE+4096,R6) (BASE,R7) (WAPM,R8) (CLW,R10) (LNKPAGE,R11) (GPW,R12)
0Loc    Object Code    Addr1 Addr2  Stmt Lv Lineno    Source Statement           (Hibal 5, Asmedit 3.3)  HLASM R4.0  2004/03/22 09.49
+___    ______ ____    _____ _____  ____ __ ______    ______ _________
0                                  10022    1648.     * COMMON PROCESSING FOR ENTERING SHARED,NONSHARED PROGRAMS
 001572                            10023    1649.     ENTSHRD  LABEL ,                       ENTER SHARED PROGRAM
                                   10025    1650.     *
                                   10026    1651.     * FIGURE OUT WHERE THE WORK AREA BEGINS
                                   10027    1652.     *
 001572 9101 A209      00209       10028    1653.              IF    CLWPFSHR,BEGIN          SHARED PROGRAM
 001576 47E0 64EC            01582 10038             +
 00157A 5810 A01C            0001C 10043  1 1654.                L     R1,CLWUPST              USER PROGRAM LOC IS
 00157E 5010 A018            00018 10044  1 1655.                ST    R1,CLWUWST               START OF THE WORK AREA
 001582 64F0           01582 01578 10045    1656.              END   ELSE,BEGIN              NON-SHARED PROGRAM
 001582 47F0 64FC            01592 10054             +
 001586 5810 B004            00004 10060  1 1657.                L     R1,LCBCLEN              GET CORE LENGTH USED
 00158A 5E10 B000            00000 10061  1 1658.                AL    R1,LCBCORE              ADD TO THE START OF IT
 00158E 5010 A018            00018 10062  1 1659.                ST    R1,CLWUWST              SAVE THE STARTING LOCATION
 001592                            10063    1660.              END   ,
                                   10067    1661.     *
                                   10068    1662.     * UPDATE THE SCP CORE ALLOCATION CONTROL WORDS
                                   10069    1663.     *
 001592 58F0 A000            00000 10070    1664.              L     R15,CLWSCP
 USING  SCP,R15                    10071    1665.              WITH  (SCP,R15),BEGIN
 001596 D203 A024 F1F8 00024 001F8 10085  1 1666.                MVC   CLWUPRSV(4),SCPRESRV    SAVE RESERVE/UNRESERVE COUNTS
 00159C D203 F1F4 A018 001F4 00018 10086  1 1667.                MVC   SCPRRSEG,CLWUWST        NEW ALLOCATION AREA
 0015A2                            10087  1 1668.                CLEAR SCPRESRV                OUR RESERVED COUNT NOW ZERO
 0015A2 D701 F1F8 F1F8 001F8 001F8 10093  1          +
                                   10094  1 1669.     *         L     R1,CLWUPST
                                   10095  1 1670.     *         A     R1,CLWUPML              END OF ADDRESS SPACE
                                   10096  1 1671.     *         S     R1,CLWUWST              NUMBER OF BYTES
                                   10097  1 1672.     *         SRL   R1,12                   NUMBER OF PAGES
                                   10098  1 1673.     *         STMIN R1,SCPUNRSV             ADJUST NUMBER OF PAGES
 DROP   SCP,R15                    10099    1674.              END   ,
 0015A8 4D90 6B0A            01BA0 10107    1675.              LCALL PARMFIX                 GO GET ENTER COMMAND PARM
 0015AC 4100 0019/0AFA       00019 10109    1676.              SENSE 25                      GET A BIT MORE
 0015B2 50E0 A238            00238 10128    1677.              ST    R14,CLWPELT             SAVE ELAPSED TIME
 0015B6 50F0 A23C            0023C 10129    1678.              ST    R15,CLWPCVM              AND VM CHARGES
 0015BA 5000 A240            00240 10130    1679.              ST    R0,CLWPIOS              I/O COUNTS
 0015BE 5010 A244            00244 10131    1680.              ST    R1,CLWPCUSE             SAVE CPU TIME
 0015C2 D284 B91E 8062 0091E 00062 10132    1681.              MVC   LNKCLCMD+2(L'WACMD),WACMD  PUT COMMAND WHERE SENSE
 0015C8 4800 8060            00060 10133    1682.              LH    R0,WACMDL               CAN GET IT
 0015CC 4810 B9A4            009A4 10134    1683.              LH    R1,LNKCLPRM             PARM
 0015D0 9180 A207      00207       10135    1684.              IF    ~CLWFTYPD,BEGIN        IT WAS NOT TYPED
 0015D4 4710 6546            015DC 10145             +
 0015D8 1300                       10150  1 1685.                LCR   R0,R0
 0015DA 1311                       10151  1 1686.                LCR   R1,R1
 0015DC                            10152    1687.              END   ,
 0015DC 4000 B91C            0091C 10156    1688.              STH   R0,LNKCLCMD             CALL COMMAND
 0015E0 4010 B9A4            009A4 10157    1689.              STH   R1,LNKCLPRM
 0015E4 4100 B91C            0091C 10158    1690.              LA    R0,LNKCLCMD
 0015E8 58F0 A000            00000 10159    1691.              L     R15,CLWSCP
 USING  SCP,R15                    10160    1692.              WITH  (SCP,R15),BEGIN
 0015EC 5000 F224            00224 10174  1 1693.                ST    R0,SCPCMDP              STORE POINTER
 0015F0 4110 B9A4            009A4 10175  1 1694.                LA    R1,LNKCLPRM             PARM ADDR
 0015F4 5010 F228            00228 10176  1 1695.                ST    R1,SCPPARMP
 0015F8 D207 A248 C090 00248 00090 10177  1 1696.                MVC   CLWPROGN,GPWLMN         SET PROGRAM NAME
 0015FE 6800 6D6A            01E00 10178  1 1697.                LD    0,=D'0'                 CLEAR FPRS
1VPM      (VPM00) (09:49) (22MAR04) ORVYL'S PROGRAM MANAGER - ENTER                                                         Page   82
0Current Usings:  (BASE+4096,R6) (BASE,R7) (WAPM,R8) (CLW,R10) (LNKPAGE,R11) (GPW,R12) (SCP,R15)
0Loc    Object Code    Addr1 Addr2  Stmt Lv Lineno    Source Statement           (Hibal 5, Asmedit 3.3)  HLASM R4.0  2004/03/22 09.49
+___    ______ ____    _____ _____  ____ __ ______    ______ _________
0001602 2820                       10179  1 1698.                LDR   2,0
 001604 2840                       10180  1 1699.                LDR   4,0
 001606 2860                       10181  1 1700.                LDR   6,0
 001608                            10182  1 1701.                CLEAR (CLWSBGPR,64)           CLEAR GPRS
 001608 D73F A370 A370 00370 00370 10188  1          +
 00160E 96F0 A36B      0036B       10189  1 1702.                OI    CLWSBPSW+3,X'F0'        DEFAULT MASK
 DROP   SCP,R15                    10190    1703.              END   ,
 001612 9500 A248      00248       10198    1704.              CLI   CLWPROGN,0
 001616 4770 658A            01620 10199    1705.              IF    E,'MVC  CLWPROGN,=C"HOMEBREW"'
 00161A D207 A248 6D72 00248 01E08 10211             +
 001620 4100 0018            00018 10216    1706.              VSET  24,CLWPROGN,8           SET PROGRAM NAME
 001624 4110 A248            00248 10230             +
 001628 41F0 0008/0AFB       00008 10237             +
 00162E 9180 B064      00064       10244    1707.              IF    ~LCBXFOSN,ENTSHROK       OS TYPE ENTRY?
 001632 47E0 6606            0169C 10256             +
 001636 4100 0002/0AFA       00002 10262    1708.              SENSE 2                       SENSE ADDRESS SPACE LIMITS
 00163C 411F 1000            00000 10281    1709.              LA    R1,@R1(15)              END ADDRESS
 001640 48F0 6ED4            01F6A 10282    1710.              LH    R15,=Y(4096)            REQUEST A PAGE
 001644 1B1F                       10283    1711.              SR    R1,R15                  MAKE IT THE LAST
 001646 4100 0010/0AFB       00010 10284    1712.              VSET  16,(1),(15)
 00164C 4770 6C60            01CF6 10308    1713.              BNZ   NOCORE                  INSUFFICIENT MEMORY
 001650 5010 A3A8            003A8 10309    1714.              ST    R1,CLWSBGPR+R14*4       RETURN ADDRESS
 001654 D203 1000 661E 00000 016B4 10310    1715.              MVC   @R1(4),EXITSVC
 00165A 4110 1002            00002 10311    1716.              LA    R1,@R1+2                PARM ADDRESS
 00165E 4820 B9A4            009A4 10312    1717.              LH    SR,LNKCLPRM             ANY PARM?
 001662 1022                       10313    1718.              LPR   SR,SR
 001664 4780 65DE            01674 10314    1719.              IF    NZER,BEGIN
 001668 4020 1000            00000 10325  1 1720.                STH   SR,@R1                PARM LENGTH
 00166C 18E2                       10326  1 1721.                LR    R14,SR
 00166E 06E0/44E0 6F28       01FBE 10327  1 1722.                DEX   R14,'MVC  @R1+2(*-*),LNKCLPRM+2'
 001FBE D200 1002 B9A6 00002 009A6 10338  1          +
 001674                            10346    1723.              END   ,
 001674 4121 2005            00005 10350    1724.              LA    SR,@SR+5(R1)            BUMP 2 PLUS 3 FOR ROUNDING TO
 001678 5420 6E66            01EFC 10351    1725.              N     SR,=X'00FFFFFC'         FULL WORD BOUNDARY
 00167C 5010 2000            00000 10352    1726.              ST    R1,@SR                  PARM ADDRESS LIST
 001680 9280 2000      00000       10353    1727.              MVI   @SR,X'80'               END OF PARM LIST BIT
 001684 5020 A374            00374 10354    1728.              ST    SR,CLWSBGPR+R1*4        PARM POINTER
 001688 4110 2004            00004 10355    1729.              LA    R1,@SR+4                SAVE AREA
 00168C 5010 A3A4            003A4 10356    1730.              ST    R1,CLWSBGPR+R13*4
 001690                            10357    1731.              CLEAR (@R1,72)
 001690 D747 1000 1000 00000 00000 10363             +
 001696 D202 A3AD A36D 003AD 0036D 10364    1732.              MVC   CLWSBGPR+R15*4+1(3),CLWSBPSW+5 START ADDRESS
 00169C                            10365    1733.     ENTSHROK LABEL ,
 00169C 94FE B1CE      001CE       10367    1734.              CLEAR LNKFFREE                PROGRAM ENTERED OK.
 0016A0 9610 A209      00209       10374    1735.              SET   CLWPFRUN                SET TO CONTINUE PROGRAM
 0016A4 9180 8035      00035       10380    1736.              IF    ~WAFLGPAU,FILEXIT       PAUSE AFTER RELOCATION?
 0016A8 47E0 6C12            01CA8 10392             +
 0016AC 9608 A209      00209       10398    1737.              SET   CLWPFPAU                PAUSE
 0016B0 47F0 6C12            01CA8 10404    1738.              B     FILEXIT                 RETURN TO ENTER PROGRAM
00016B4 0AFD                       10406    1740.     EXITSVC  XIT   ,                       RETURN FOR OS LINKAGE
 0016B6 0000                       10409    1741.              DC    H'0'                    DEFUALT 'PARM'
00016B8 4110 B108            00108 10411    1743.     UNDEFENT SEG   LNKEP,8
1VPM      (VPM00) (09:49) (22MAR04) ORVYL'S PROGRAM MANAGER - ENTER                                                         Page   83
0Current Usings:  (BASE+4096,R6) (BASE,R7) (WAPM,R8) (CLW,R10) (LNKPAGE,R11) (GPW,R12)
0Loc    Object Code    Addr1 Addr2  Stmt Lv Lineno    Source Statement           (Hibal 5, Asmedit 3.3)  HLASM R4.0  2004/03/22 09.49
+___    ______ ____    _____ _____  ____ __ ______    ______ _________
00016BC 4100 0008            00008 10427             +
 0016C0 4590 6D0E            01DA4 10428             +
 0016C4 4110 02AA            002AA 10429    1744.              SEG   ': Entry undefined'
 0016C8 4590 6D36            01DCC 10431             +
 0016CC 47F0 6C50            01CE6 10432    1745.              B     ERROR
1VPM      (VPM00) (09:49) (22MAR04) ORVYL'S PROGRAM MANAGER - GO & ATTN                                                     Page   84
0Current Usings:  (BASE+4096,R6) (BASE,R7) (WAPM,R8) (CLW,R10) (LNKPAGE,R11) (GPW,R12)
0Loc    Object Code    Addr1 Addr2  Stmt Lv Lineno    Source Statement           (Hibal 5, Asmedit 3.3)  HLASM R4.0  2004/03/22 09.49
+___    ______ ____    _____ _____  ____ __ ______    ______ _________
0                                  10434    1747.     *
                                   10435    1748.     *
                                   10436    1749.     *  ATTN : ENTER MASTER TERMINAL ATTENTION ROUTINE
                                   10437    1750.     *
 0016D0                            10438    1751.     ATTN     LABEL ,
 0016D0 4D90 6AF0            01B86 10440    1752.              LCALL EXECQ
 0016D4 5810 A000            00000 10442    1753.              L     R1,CLWSCP
 USING  SCP,R1                     10443    1754.              WITH  (SCP,R1),BEGIN
 0016D8 9620 1261      00261       10457  1 1755.                SET   SCBCFAX                 ATTENTION AT SBRET
 DROP   SCP,R1                     10463    1756.              END   ,
 0016DC 47F0 664E            016E4 10471    1757.              B     GOSCAN
                                   10472    1758.     *
                                   10473    1759.     *  GO COMMAND
                                   10474    1760.     *
 0016E0                            10475    1761.     GO       LABEL ,
 0016E0 4D90 6AF0            01B86 10477    1762.              LCALL EXECQ
 0016E4 5810 6E6A            01F00 10479    1763.     GOSCAN   LSCAN KWGO,CLWKWCB            SCAN EVENTS, ETC.
 0016E8 41F0 A2C4            002C4 10493             +
 0016EC 58E0 6D9A/0DEE       01E30 10496             +
 0016F2 4770 6BE6            01C7C 10498    1764.              BNZ   ILLSTR
 0016F6 9120 8036      00036       10499    1765.              IF    WAGOTR,BEGIN           IF TRAP WAS GIVEN,
 0016FA 47E0 66AE            01744 10509             +
 0016FE D202 A2A8 803D 002A8 0003D 10514  1 1766.                MVC   CLWTTRAP(3),WAGOTRAP+1  SAVE ADDRESS
 001704 5810 803C            0003C 10515  1 1767.                L     R1,WAGOTRAP             LOC. TO READ
 001708 4100 A2AB            002AB 10516  1 1768.                LA    R0,CLWTTRAP+3           PLACE TO PUT IT
 00170C 41F0 0002            00002 10517  1 1769.                LA    R15,2                   GET TWO BYTES
 001710 5890 6E6E/0D99       01F04 10518  1 1770.                VCALL READCORE                WHAT WILL IT BE?
                                   10522  1 1771.
 001716 47FF 6684            0171A 10523  1 1772.                B     *+4(R15)
 00171A 47F0 675C            017F2 10524  1 1773.                B     GTILL
 00171E 47F0 6694            0172A 10525  1 1774.                B     GTOK
 001722 47F0 6774            0180A 10526  1 1775.                B     GTNONE
 001726 47F0 675C            017F2 10527  1 1776.                B     GTILL
                                   10528  1 1777.
 00172A                            10529  1 1778.     GTOK       LABEL ,
 00172A 950A A2AB      002AB       10531  1 1779.                CLI   CLWTTRAP+3,X'0A'        CAN'T TRAP AN SVC
 00172E 4780 6780            01816 10532  1 1780.                BE    GTSVC
 001732 4100 A210            00210 10533  1 1781.                LA    R0,CLWPSVC              GET TRAP SVC NUMBER
 001736 5810 803C            0003C 10534  1 1782.                L     R1,WAGOTRAP             GET ADDRESS BACK
 00173A 41F0 0002            00002 10535  1 1783.                LA    R15,2                   TWO BYTES
 00173E 5890 6E72/0D99       01F08 10536  1 1784.                VCALL RITECORE                STICK IT IN
 001744                            10540    1785.              END   ,
 001744 D203 A26C 8040 0026C 00040 10544    1786.              MVC   CLWEVCNT,WAGOEVCT       SET EVENT COUNT
 00174A 9180 8036      00036       10545    1787.              IF    WAGONOL,'SET CLWMNOL'    SET NOLIST, IF SPECIFIED
 00174E 47E0 66C0            01756 10555             +
 001752 9604 A20A      0020A       10566             +
 001756 9140 8036      00036       10571    1788.              IF    WAGOTO,BEGIN           IF 'TO' SPECIFIED,
 00175A 47E0 66D0            01766 10581             +
 00175E 5800 8038            00038 10586  1 1789.                L     R0,WAGOTOAD             SET ADDRESS
 001762 5000 A36C            0036C 10587  1 1790.                ST    R0,CLWSBPSW+4            IN RETURN PSW
 001766                            10588    1791.              END   ,
 001766 9610 A209      00209       10592    1792.              SET   CLWPFRUN                SET TO CONTINUE PROGRAM
 00176A 47F0 6C12            01CA8 10598    1793.              B     FILEXIT                 RETURN TO ENTER PROGRAM
                                   10599    1794.
1VPM      (VPM00) (09:49) (22MAR04) ORVYL'S PROGRAM MANAGER - GO & ATTN                                                     Page   85
0Current Usings:  (BASE+4096,R6) (BASE,R7) (WAPM,R8) (CLW,R10) (LNKPAGE,R11) (GPW,R12)
0Loc    Object Code    Addr1 Addr2  Stmt Lv Lineno    Source Statement           (Hibal 5, Asmedit 3.3)  HLASM R4.0  2004/03/22 09.49
+___    ______ ____    _____ _____  ____ __ ______    ______ _________
000176E 5810 A2C4            002C4 10600    1795.     GOEVENT  L     R1,CLWKWVAL
 001772 0610                       10601    1796.              DECR  R1
 001774 5010 8040            00040 10603    1797.              ST    R1,WAGOEVCT             SAVE EVENT COUNT
 001778 07FE                       10604    1798.              SCRTN (15)
                                   10611    1799.
 00177A D203 8040 6E76 00040 01F0C 10612    1800.     GOCON    MVC   WAGOEVCT,=X'7FFFFFFF'   NOT QUITE INFINITY
 001780 07FE                       10613    1801.              SCRTN (15)                    BUT CLOSE ENOUGH
                                   10620    1802.
 001782 9680 8036      00036       10621    1803.     GONOL    SET   WAGONOL                 SET NOLIST FLAG
 001786 07FE                       10628    1804.              SCRTN (15)                    ALL DONE WITH THAT ONE!!
                                   10635    1805.
 001788                            10636    1806.     GOTO     LABEL ,
 001788 9104 A209      00209       10638    1807.              IF    CLWPFPRV,GOPRIV         CAN'T TELL PRIV WHERE TO GO
 00178C 4710 679C            01832 10650             +
 001790 5890 6E7A/0D99       01F10 10656    1808.              VCALL EVAL                    GET LOCATION TO GO TO
 001796 4740 6C50            01CE6 10660    1809.              BM    ERROR                   NG
 00179A 4780 6BF6            01C8C 10661    1810.              BZ    MISSING                 GOT TO GO SOMEPLACE
 00179E 5000 8038            00038 10662    1811.              ST    R0,WAGOTOAD             SAVE GO TO ADDRESS
 0017A2 9640 8036      00036       10663    1812.              SET   WAGOTO                  SET 'TO' FOUND
 0017A6 47F0 664E            016E4 10669    1813.              B     GOSCAN                  TRY AGAIN
                                   10670    1814.
 0017AA                            10671    1815.     GOTRAP   LABEL ,
 0017AA 9104 A209      00209       10673    1816.              IF    CLWPFPRV,GOPRIV         CAN'T TRAP PRIV PROG
 0017AE 4710 679C            01832 10685             +
 0017B2 5890 6E7A/0D99       01F10 10691    1817.              VCALL EVAL                    GET LOC. FOR TRAP
 0017B8 4740 6C50            01CE6 10695    1818.              BM    ERROR                   SCREWY EXPRESSION
 0017BC 4780 6BF6            01C8C 10696    1819.              BZ    MISSING
 0017C0 5400 6E7E            01F14 10697    1820.              N     R0,=X'0FFFFFFF'
 0017C4 9140 A20C      0020C       10698    1821.              IF    ~CLWSSP,'N  R0,=X"00FFFFFF"'
 0017C8 4710 673A            017D0 10708             +
 0017CC 5400 6E82            01F18 10714             +
 0017D0 1200                       10719    1822.              LTR   R0,R0                   CAN'T TRAP THERE
 0017D2 4780 675C            017F2 10720    1823.              BZ    GTILL
 0017D6 5000 803C            0003C 10721    1824.              ST    R0,WAGOTRAP             SAVE TRAP ADDRESS
                                   10722    1825.     *         CLI   WAGOTRAP,0              TOO BIG?
                                   10723    1826.     *         BNE   GTILL                   YEP
 0017DA 91F0 803C      0003C       10724    1827.              TM    WAGOTRAP,X'F0'          TOO BIG?
 0017DE 4770 675C            017F2 10725    1828.              BNZ   GTILL                   YEP
 0017E2 9101 803F      0003F       10726    1829.              TM    WAGOTRAP+3,1            HAS TO BE EVEN
 0017E6 4710 6768            017FE 10727    1830.              BO    GTODD
 0017EA 9620 8036      00036       10728    1831.              SET   WAGOTR                  INDICATE TRAP SPECIFIED
 0017EE 47F0 664E            016E4 10734    1832.              B     GOSCAN                  CONTINUE SCANNING
                                   10735    1833.
 0017F2 4110 02BC            002BC 10736    1834.     GTILL    SEG   'Invalid address'
 0017F6 4590 6D36            01DCC 10738             +
 0017FA 47F0 678C            01822 10739    1835.              B     GTERROR
 0017FE 4110 02CC            002CC 10740    1836.     GTODD    SEG   'Odd address'
 001802 4590 6D36            01DCC 10742             +
 001806 47F0 678C            01822 10743    1837.              B     GTERROR
 00180A 4110 02D8            002D8 10744    1838.     GTNONE   SEG   'Memory not defined'
 00180E 4590 6D36            01DCC 10746             +
 001812 47F0 678C            01822 10747    1839.              B     GTERROR
 001816 4110 02EB            002EB 10748    1840.     GTSVC    SEG   'SVC may not be trapped'
 00181A 4590 6D36            01DCC 10750             +
1VPM      (VPM00) (09:49) (22MAR04) ORVYL'S PROGRAM MANAGER - GO & ATTN                                                     Page   86
0Current Usings:  (BASE+4096,R6) (BASE,R7) (WAPM,R8) (CLW,R10) (LNKPAGE,R11) (GPW,R12)
0Loc    Object Code    Addr1 Addr2  Stmt Lv Lineno    Source Statement           (Hibal 5, Asmedit 3.3)  HLASM R4.0  2004/03/22 09.49
+___    ______ ____    _____ _____  ____ __ ______    ______ _________
000181E 47F0 678C            01822 10751    1841.              B     GTERROR
 001822                            10752    1842.     GTERROR  CLEAR CLWTTRAP                CLEAR TEMP. TRAP SLOT
 001822 D704 A2A8 A2A8 002A8 002A8 10759             +
 001828                            10760    1843.              CLEAR CLWEVCNT
 001828 D703 A26C A26C 0026C 0026C 10766             +
 00182E 47F0 6C50            01CE6 10767    1844.              B     ERROR
 001832                            10768    1845.     GOPRIV   LABEL ,
 001832 4110 0302            00302 10770    1846.              SEG   'Private program loaded, GO option invalid'
 001836 4590 6D36            01DCC 10772             +
 00183A 47F0 6C50            01CE6 10773    1847.              B     ERROR
1VPM      (VPM00) (09:49) (22MAR04) ORVYL'S PROGRAM MANAGER - EXIT                                                          Page   87
0Current Usings:  (BASE+4096,R6) (BASE,R7) (WAPM,R8) (CLW,R10) (LNKPAGE,R11) (GPW,R12)
0Loc    Object Code    Addr1 Addr2  Stmt Lv Lineno    Source Statement           (Hibal 5, Asmedit 3.3)  HLASM R4.0  2004/03/22 09.49
+___    ______ ____    _____ _____  ____ __ ______    ______ _________
0                                  10775    1849.     *  CLEAN UP USER CORE
                                   10776    1850.     *              -CALLED FOR LOGON, LOGOFF, CLEAR CORE, AND THE
                                   10777    1851.     *               EXIT SVC
                                   10778    1852.     *
                                   10779    1853.     *              - HALTS ANY OUTSTANDING I/O AND DETACHES FILES
                                   10780    1854.     *              - DISCARDS ALL USER CORE
                                   10781    1855.     *              - RESETS ALL FLAGS, PSWS, REGISTERS, FPRS
 00183E                            10782    1856.     EXIT     LABEL ,
 00183E 94FD A208      00208       10784    1857.              CLEAR CLWFM31                 CLEAR MODE 31
 001842 9601 B1CE      001CE       10791    1858.              SET   LNKFFREE                FREE CORE
 001846 47F0 6C12            01CA8 10797    1859.              B     FILEXIT
1VPM      (VPM00) (09:49) (22MAR04) ORVYL'S PROGRAM MANAGER - EXIT                                                          Page   88
0Current Usings:  (BASE+4096,R6) (BASE,R7) (WAPM,R8) (CLW,R10) (LNKPAGE,R11) (GPW,R12)
0Loc    Object Code    Addr1 Addr2  Stmt Lv Lineno    Source Statement           (Hibal 5, Asmedit 3.3)  HLASM R4.0  2004/03/22 09.49
+___    ______ ____    _____ _____  ____ __ ______    ______ _________
0                                  10799    1861.              DROP  FSUBR                   ##
                                   10803    1862.     * CLEAR LINK STACK AND DETACH LINK FILES
                                   10804    1863.     *
 00184A 9029 D000/188D       00000 10805    1864.     CLRSTACK VSAVE SR,RAR,*
 001850 41D0 D020            00020 10808             +
 001854 9180 B1E6      001E6       10809    1865.     CLRSTK1  IF    LNKSFTER,CLRSTK5        STACK BOTTOM?
 001858 4710 67F2            01888 10822             +
 00185C 9501 B1E5      001E5       10828    1866.              CLI   LNKFID,1                ANY FILE TO DETACH?
 001860 47D0 67D8            0186E 10829    1867.              BNH   CLRSTK3
 001864 1F00/4300 B1E5       001E5 10830    1868.              DETACH IC:LNKFID
 00186A 0AF8                       10840             +
 00186C 0AF2                       10841    1869.              WAIT  (0)
 00186E 9200 B1E5      001E5       10849    1870.     CLRSTK3  MVI   LNKFID,0
 001872 5830 B388            00388 10850    1871.              L     TR,LNKSTKP
 001876 5B30 6E86            01F1C 10851    1872.              S     TR,=A(L'LSE)
 00187A D21B B1E4 3000 001E4 00000 10852    1873.              MVC   LSE,@TR
 001880 5030 B388            00388 10853    1874.              ST    TR,LNKSTKP
 001884 47F0 67BE            01854 10854    1875.              B     CLRSTK1
                                   10855    1876.
 001888 18D8/9829 D000       00000 10856    1877.     CLRSTK5  VEXIT SR,RAR
 00188E 07F9                       10860             +
1VPM      (VPM00) (09:49) (22MAR04) ORVYL'S PROGRAM MANAGER - PAUSE                                                         Page   89
0Current Usings:  (BASE+4096,R6) (BASE,R7) (WAPM,R8) (CLW,R10) (LNKPAGE,R11) (GPW,R12)
0Loc    Object Code    Addr1 Addr2  Stmt Lv Lineno    Source Statement           (Hibal 5, Asmedit 3.3)  HLASM R4.0  2004/03/22 09.49
+___    ______ ____    _____ _____  ____ __ ______    ______ _________
0                                  10862    1879.     *    PAUSE: SIMULATE PAUSE SVC FROM COMMAND
                                   10863    1880.     *
 001890                            10864    1881.     PAUSE    LABEL ,
 001890 4D90 6AF0            01B86 10866    1882.              LCALL EXECQ                   MUST HAVE PROGRAM
 001894 9608 A209      00209       10868    1883.              SET   CLWPFPAU                SET PAUSE BIT
 001898 943F A36A      0036A       10874    1884.              NI    CLWSBPSW+2,X'3F'        SET ILC TO 0
 00189C 47F0 6C12            01CA8 10875    1885.              B     FILEXIT                 ALL DONE
1VPM      (VPM00) (09:49) (22MAR04) ORVYL'S PROGRAM MANAGER - SCAN AND MSG ROUTINES                                         Page   90
0Current Usings:  (BASE+4096,R6) (BASE,R7) (WAPM,R8) (CLW,R10) (LNKPAGE,R11) (GPW,R12)
0Loc    Object Code    Addr1 Addr2  Stmt Lv Lineno    Source Statement           (Hibal 5, Asmedit 3.3)  HLASM R4.0  2004/03/22 09.49
+___    ______ ____    _____ _____  ____ __ ______    ______ _________
0                                  10878    1888.     * SCAN FOR VALID EXTERNAL SYMBOL
                                   10879    1889.     *        - ERROR IF TOO LONG OR INVALID CHARS FOUND
                                   10880    1890.     *        - RETURN CODE INDICATES LENGTH
                                   10881    1891.     *
 0018A0 9029 D000            00000 10882    1892.     GETSYMB  VPUSH SR,RAR,*
 0018A4 41D0 D020            00020 10884             +
 0018A8 1B11/41F0 A2C4       002C4 10885    1893.              SCAN  0,CLWKWCB               GET NEXT TOKEN
 0018AE 58E0 6D9A/0DEE       01E30 10899             +
 0018B4 4780 68B4            0194A 10901    1894.              BZ    SYMEXIT
 0018B8 4740 68C0            01956 10902    1895.              BM    ILLSYMB
 0018BC 4900 6ECC            01F62 10903    1896.              CH    R0,=Y(8)
 0018C0 4720 68C0            01956 10904    1897.              BH    ILLSYMB
 0018C4 47F0 6874            0190A 10905    1898.              B     CHKSYMB
-                                  10907    1900.     * SCAN FOR PARENTHESIZED EXTERNAL SYMBOL
                                   10908    1901.     *        - RESET SCAN IF XEXT TOKEN NOT IN PARENS
                                   10909    1902.     *        - RETURN SYMBOL OR END OF SCAN INDICATION
                                   10910    1903.     *
 0018C8 9029 D000            00000 10911    1904.     GETPSYM  VPUSH SR,RAR,*
 0018CC 41D0 D020            00020 10913             +
 0018D0 41F0 A2C4            002C4 10914    1905.              SCTELL CLWKWCB                GET CURRENT POINTERS
 0018D4 58E0 6DD2/0DEE       01E68 10924             +
 0018DA 1820                       10926    1906.              LR    SR,R0                   SAVE LEN
 0018DC 1831                       10927    1907.              LR    TR,R1                   AND LOC
 0018DE 1B11/41F0 A2C4       002C4 10928    1908.              SCAN  0,CLWKWCB               GET TOKEN
 0018E4 58E0 6D9A/0DEE       01E30 10942             +
 0018EA 4740 68C0            01956 10944    1909.              BM    ILLSYMB
 0018EE 4780 68B4            0194A 10945    1910.              BZ    SYMEXIT                 NOT THERE
 0018F2 954D 1000      00000       10946    1911.              CLI   @R1,C'('                LEFT PAREN?
 0018F6 4770 68D0            01966 10947    1912.              BNE   NOPAREN
 0018FA 4110 1001            00001 10948    1913.              LA    R1,@R1+1
 0018FE 0600                       10949    1914.              DECR  R0
 001900 0600                       10951    1915.              DECR  R0                      DELETE PAREN LENGTH
 001902 4900 6ECC            01F62 10953    1916.              CH    R0,=Y(8)
 001906 4720 68C0            01956 10954    1917.              BH    ILLSYMB
1VPM      (VPM00) (09:49) (22MAR04) ORVYL'S PROGRAM MANAGER - SCAN AND MSG ROUTINES                                         Page   91
0Current Usings:  (BASE+4096,R6) (BASE,R7) (WAPM,R8) (CLW,R10) (LNKPAGE,R11) (GPW,R12)
0Loc    Object Code    Addr1 Addr2  Stmt Lv Lineno    Source Statement           (Hibal 5, Asmedit 3.3)  HLASM R4.0  2004/03/22 09.49
+___    ______ ____    _____ _____  ____ __ ______    ______ _________
000190A 1821                       10956    1919.     CHKSYMB  LR    SR,R1
 00190C 1830                       10957    1920.              LR    TR,R0
 00190E 95C1 2000      00000       10958    1921.     CHKS1    CLI   @SR,C'A'
 001912 47B0 6898            0192E 10959    1922.              BNL   CHKSOK
 001916 957C 2000      00000       10960    1923.              CLI   @SR,C'@'                AT SIGN
 00191A 4780 6898            0192E 10961    1924.              BE    CHKSOK
 00191E 957B 2000      00000       10962    1925.              CLI   @SR,C'#'
 001922 4780 6898            0192E 10963    1926.              BE    CHKSOK
 001926 955B 2000      00000       10964    1927.              CLI   @SR,C'$'
 00192A 4770 68C0            01956 10965    1928.              BNE   ILLSYMB
 00192E 4120 2001            00001 10966    1929.     CHKSOK   LA    SR,@SR+1
 001932 4630 6878            0190E 10967    1930.              BCT   TR,CHKS1
 001936 D207 A2E8 1000 002E8 00000 10968    1931.              MVC   CLWTEMP(8),@R1          PASS NACK SYM IN TEMP
 00193C 4110 A2E8            002E8 10969    1932.              LA    R1,CLWTEMP
 001940 1821                       10970    1933.              LR    SR,R1
 001942 1A20                       10971    1934.              AR    SR,0                    END OF SYM
 001944 D207 2000 6D62 00000 01DF8 10972    1935.              MVC   @SR(8),=CL8' '          PUT BLANKS AT END
 00194A 4BD0 6EDA            01F70 10973    1936.     SYMEXIT  VPOP  SR,RAR,*
 00194E 9829 D000            00000 10975             +
 001952 1200                       10976    1937.              LTR   R0,R0
 001954 07F9                       10977    1938.              BR    RAR
                                   10978    1939.
 001956 4590 6D0E            01DA4 10979    1940.     ILLSYMB  SEG   (1),(0)
 00195A 4110 032C            0032C 10994    1941.              SEG   ': Invalid symbol'
 00195E 4590 6D36            01DCC 10996             +
 001962 47F0 6C50            01CE6 10997    1942.              B     ERROR
                                   10998    1943.
 001966 1813/1802                  10999    1944.     NOPAREN  SCINIT (TR),(SR),CLWKWCB
 00196A 41F0 A2C4            002C4 11016             +
 00196E 58E0 6DB2/0DEE       01E48 11019             +
 001974 1B00                       11021    1945.              CLEAR R0
 001976 47F0 68B4            0194A 11025    1946.              B     SYMEXIT
1VPM      (VPM00) (09:49) (22MAR04) ORVYL'S PROGRAM MANAGER - SCAN AND MSG ROUTINES                                         Page   92
0Current Usings:  (BASE+4096,R6) (BASE,R7) (WAPM,R8) (CLW,R10) (LNKPAGE,R11) (GPW,R12)
0Loc    Object Code    Addr1 Addr2  Stmt Lv Lineno    Source Statement           (Hibal 5, Asmedit 3.3)  HLASM R4.0  2004/03/22 09.49
+___    ______ ____    _____ _____  ____ __ ______    ______ _________
0                                  11027    1948.     * SCAN FOR PARENTHESIZED INTEGER VALUE (EXPAND STATEMENTS)
                                   11028    1949.     *        - ERROR UNLESS FOUND
                                   11029    1950.     *        - ERROR IF ANYTHING FOLLOWS
                                   11030    1951.     *
 00197A 9029 D000            00000 11031    1952.     GETPVAL  VPUSH SR,RAR,*
 00197E 41D0 D020            00020 11033             +
 001982 1B11/41F0 A2C4       002C4 11034    1953.              SCAN  0,CLWKWCB               GET NEXT TOKEN
 001988 58E0 6D9A/0DEE       01E30 11048             +
 00198E 4780 693A            019D0 11050    1954.              BZ    BADPV                   MISSING OPERAND
 001992 954D 1000      00000       11051    1955.              CLI   @R1,C'('                MUST BE PAREN STRING
 001996 4770 693A            019D0 11052    1956.              BNE   BADPV                   MISSING
 00199A 4120 1001            00001 11053    1957.              LA    SR,@R1+1                POINTER TO NUMBER
 00199E 1830                       11054    1958.              LR    TR,R0
 0019A0 0630                       11055    1959.              DECR  TR
 0019A2 0630                       11057    1960.              DECR  TR                      STRIP OFF PAREN COUNT
 0019A4 1B11/41F0 A2C4       002C4 11059    1961.              SCAN  0,CLWKWCB               ANYTHING LEFT IN COMMAND?
 0019AA 58E0 6D9A/0DEE       01E30 11073             +
 0019B0 4770 693A            019D0 11075    1962.              BNZ   BADPV
 0019B4 1812/1803                  11076    1963.              SCINIT (SR),(TR),CLWKWCB       RESET TO SCAN BETWEEN PARENS
 0019B8 41F0 A2C4            002C4 11093             +
 0019BC 58E0 6DB2/0DEE       01E48 11096             +
 0019C2 5810 6E8A            01F20 11098    1964.              LSCAN PVTBL,CLWKWCB           SCAN POS INTEGER
 0019C6 41F0 A2C4            002C4 11112             +
 0019CA 58E0 6D9A/0DEE       01E30 11115             +
 0019D0 4110 033D            0033D 11117    1965.     BADPV    SEG   'Missing or invalid parenthesized value'
 0019D4 4590 6D36            01DCC 11119             +
 0019D8 47F0 6C50            01CE6 11120    1966.              B     ERROR
                                   11121    1967.
 0019DC 58F0 A2C4            002C4 11122    1968.     GOTPV    L     R15,CLWKWVAL            GET VALUE
 0019E0 4BD0 6EDA            01F70 11123    1969.              VPOP  SR,RAR,*                 RETURN VAL IN 15
 0019E4 9829 D000            00000 11125             +
 0019E8 07F9                       11126    1970.              BR    RAR
1VPM      (VPM00) (09:49) (22MAR04) ORVYL'S PROGRAM MANAGER - SCAN AND MSG ROUTINES                                         Page   93
0Current Usings:  (BASE+4096,R6) (BASE,R7) (WAPM,R8) (CLW,R10) (LNKPAGE,R11) (GPW,R12)
0Loc    Object Code    Addr1 Addr2  Stmt Lv Lineno    Source Statement           (Hibal 5, Asmedit 3.3)  HLASM R4.0  2004/03/22 09.49
+___    ______ ____    _____ _____  ____ __ ______    ______ _________
0                                  11128    1972.     * REQUIRE CLEARED CORE FOR NEXT OPERATION
                                   11129    1973.     *
 0019EA 9120 A209      00209       11130    1974.     CLRLINK  IF    CLWPFPIC,CLRCALL1       PROGRAM ENTERED
 0019EE 4710 696C            01A02 11143             +
 0019F2 9140 8034/07E9 00034       11149    1975.              IF    ~WAFLEXIT,RAR           OPTIONAL EXIT REQUESTED?
 0019F8 47F0 69AA            01A40 11167    1976.              B     CLRCORE
                                   11168    1977.
 0019FC 9160 A209/0789 00209       11169    1978.     CLRCALL  IF    (CLWPFPL+CLWPFPIC,Z),RAR      FULL CLEAR REQUIRED
 001A02                            11193    1979.     CLRCALL1 LABEL ,
 001A02 9140 8034      00034       11195    1980.              IF    WAFLEXIT,CLRCORE        EXIT REQUESTED
 001A06 4710 69AA            01A40 11207             +
 001A0A 5090 D000            00000 11213    1981.              VPUSH RAR,,*                  SAVE RETURN
 001A0E 41D0 D004            00004 11215             +
 001A12 4110 0364            00364 11216    1982.              SEG   'OK to clear program'      ASK FIRST
 001A16 4590 6D36            01DCC 11218             +
 001A1A 5890 6E8E/0D99       01F24 11219    1983.              VREAD ,                       GET THE ANSWER
 001A20 4770 6C38            01CCE 11224    1984.              BNZ   REQABORT                HIT ATTN
 001A24 41F0 A2C4            002C4 11225    1985.              SCINIT (1),(0),CLWKWCB        SET UP TO SCAN RESPONSE
 001A28 58E0 6DB2/0DEE       01E48 11245             +
 001A2E 5810 6E92            01F28 11247    1986.              LSCAN YESOKTBL,CLWKWCB        CHECK IT OUT
 001A32 41F0 A2C4            002C4 11261             +
 001A36 58E0 6D9A/0DEE       01E30 11264             +
 001A3C 47F0 6C38            01CCE 11266    1987.              B     REQABORT                INVALID REPLY
                                   11267    1988.
 001A40 5090 D000            00000 11268    1989.     CLRCORE  VPUSH RAR,,*
 001A44 41D0 D004            00004 11270             +
 001A48 5890 6D8A/0D99       01E20 11271    1990.     CLRCOR1  VCALL CLEANUP                 TIDY THINGS UP
 001A4E 4BD0 6ED0            01F66 11275    1991.              VPOP  RAR,,*                  RESTORE RETURN
 001A52 5890 D000            00000 11277             +
 001A56 58F0 6D86            01E1C 11278    1992.              L     R15,=V(CLRLP)
 001A5A 07FF                       11279    1993.              BR    R15                     REINITIALIZE LINK PAGE
                                   11280    1994.     *                                      WILL RETURN TO CALLER
1VPM      (VPM00) (09:49) (22MAR04) ORVYL'S PROGRAM MANAGER - SCAN AND MSG ROUTINES                                         Page   94
0Current Usings:  (BASE+4096,R6) (BASE,R7) (WAPM,R8) (CLW,R10) (LNKPAGE,R11) (GPW,R12)
0Loc    Object Code    Addr1 Addr2  Stmt Lv Lineno    Source Statement           (Hibal 5, Asmedit 3.3)  HLASM R4.0  2004/03/22 09.49
+___    ______ ____    _____ _____  ____ __ ______    ______ _________
0                                  11282    1996.     * INITIALIZE LOADER IF NOT ALREADY AND MARK LOADING FLAG
                                   11283    1997.     *
 001A5C                            11284    1998.     LOADING  LABEL ,
 001A5C 9102 B1CE      001CE       11286    1999.              IF    LNKFERR,LDBLOCK         BLOCKED?
 001A60 4710 6AD8            01B6E 11298             +
 001A64 9140 A209      00209       11304    2000.              IF    CLWPFPL,PARMFIX         LOADING?
 001A68 4710 6B0A            01BA0 11316             +
 001A6C 9120 A209      00209       11322    2001.              IF    CLWPFPIC,RUNNING        EXECUTING?
 001A70 4710 6AE4            01B7A 11334             +
 001A74 9640 A209      00209       11340    2002.              SET   CLWPFPL                 SET PROGRAM LOADING.
 001A78 5090 D000            00000 11346    2003.              VPUSH RAR,,*
 001A7C 41D0 D004            00004 11348             +
 001A80 5810 B00C            0000C 11349    2004.              GETCLW L:LCBMPLEN,L:LCBMPLEN  REQUEST MAP CORE
 001A84 58F0 B00C            0000C 11359             +
 001A88 5890 6D7A/0D99       01E10 11362             +
 001A8E 4770 6C60            01CF6 11364    2005.              BNZ   NOCORE                  SORRY
 001A92 5010 B008            00008 11365    2006.              ST    R1,LCBMAP               STARTING ADDRESS
 001A96 5890 6E96/0D99       01F2C 11366    2007.              VCALL LDINIT
 001A9C 4770 6C50            01CE6 11370    2008.              BNZ   ERROR                   ERROR
 001AA0 4BD0 6ED0            01F66 11371    2009.              VPOP  RAR,,*
 001AA4 5890 D000            00000 11373             +
 001AA8 9101 A209      00209       11374    2010.              IF    ~CLWPFSHR,BEGIN         NOT A SHARED PROGRAM
 001AAC 4710 6A42            01AD8 11384             +
 001AB0 5810 6E9A            01F30 11389  1 2011.                L     R1,=A(8192+4096)        GET AT LEAST THREE PAGES
 001AB4 4100 000E/1BFF       0000E 11390  1 2012.                VSET  14,(1),0                GET ALL CORE FOR LOAD
 001ABA 0AFB                       11411  1          +
 001ABC 4770 6C60            01CF6 11413  1 2013.                BNZ   NOCORE                  NO PROGRAM CORE
 001AC0 5010 B000            00000 11414  1 2014.                ST    R1,LCBCORE
 001AC4 5B00 6E9E            01F34 11415  1 2015.                S     R0,=A(8192)             GIVE BACK 8K
 001AC8 5000 B004            00004 11416  1 2016.                ST    R0,LCBCLEN
 001ACC 1A10                       11417  1 2017.                AR    R1,0                    END OF CORE TO KEEP
 001ACE 58F0 6E9E            01F34 11418  1 2018.                L     R15,=A(8192)
 001AD2 4100 000F/0AFB       0000F 11419  1 2019.                VSET  15,(1),(15)
 001AD8 6A46           01AD8 01AAE 11443    2020.              END   ELSE,BEGIN
 001AD8 47F0 6A72            01B08 11452             +
 001ADC 5090 D000            00000 11458  1 2021.                VPUSH RAR,,*
 001AE0 41D0 D004            00004 11460  1          +
 001AE4 4D90 6CFA            01D90 11461  1 2022.                LCALL AMODE31
 001AE8 5810 A25C            0025C 11463  1 2023.                L     R1,CLWSPB               SPB POINTER
 USING  SPB,R1                     11464  1 2024.                WITH  (SPB,R1)
 001AEC 58F0 1048            00048 11477  1 2025.                L     R15,SPBORGIN            LOADING POINT
 001AF0 50F0 B000            00000 11478  1 2026.                ST    R15,LCBCORE             FOR LOADER
 001AF4 58F0 104C            0004C 11479  1 2027.                L     R15,SPBSIZE             LENGTH OF AREA
 001AF8 50F0 B004            00004 11480  1 2028.                ST    R15,LCBCLEN              ALSO FOR LOADER
 001AFC 4D90 6D06            01D9C 11481  1 2029.                LCALL AMODE24
 001B00 4BD0 6ED0            01F66 11483  1 2030.                VPOP  RAR,,*
 001B04 5890 D000            00000 11485  1          +
 DROP   SPB,R1                     11486    2031.              END   ,
 001B08 47F0 6B0A            01BA0 11495    2032.              B     PARMFIX
0                                  11497    2034.     * SPECIAL CALL TO PREPARE DUMMY MAP FOR SHARED PROGRAM
                                   11498    2035.     *
 001B0C 5090 D000            00000 11499    2036.     LOADSHRD VPUSH RAR,,*
 001B10 41D0 D004            00004 11501             +
1VPM      (VPM00) (09:49) (22MAR04) ORVYL'S PROGRAM MANAGER - SCAN AND MSG ROUTINES                                         Page   95
0Current Usings:  (BASE+4096,R6) (BASE,R7) (WAPM,R8) (CLW,R10) (LNKPAGE,R11) (GPW,R12)
0Loc    Object Code    Addr1 Addr2  Stmt Lv Lineno    Source Statement           (Hibal 5, Asmedit 3.3)  HLASM R4.0  2004/03/22 09.49
+___    ______ ____    _____ _____  ____ __ ______    ______ _________
0001B14 5810 B00C            0000C 11502    2037.              GETCLW L:LCBMPLEN,L:LCBMPLEN  REQUEST MAP CORE
 001B18 58F0 B00C            0000C 11512             +
 001B1C 5890 6D7A/0D99       01E10 11515             +
 001B22 4770 6C60            01CF6 11517    2038.              BNZ   NOCORE                  SORRY
 001B26 5010 B008            00008 11518    2039.              ST    R1,LCBMAP               STARTING ADDRESS
 001B2A 5890 6E96/0D99       01F2C 11519    2040.              VCALL LDINIT
 001B30 4770 6C50            01CE6 11523    2041.              BNZ   ERROR                   ERROR
 001B34 4BD0 6ED0            01F66 11524    2042.              VPOP  RAR,,*
 001B38 5890 D000            00000 11526             +
 001B3C 47F0 6B0A            01BA0 11527    2043.              B     PARMFIX
-
                                   11529    2045.     * TEST FOR PROGRAM LOADED
                                   11530    2046.     *
 001B40 9102 B1CE      001CE       11531    2047.     LOADINGQ IF    LNKFERR,LDBLOCK         BLOCKED?
 001B44 4710 6AD8            01B6E 11544             +
 001B48 9140 A209      00209       11550    2048.              IF    CLWPFPL,BEGIN          LOADING?
 001B4C 47E0 6AC4            01B5A 11560             +
 001B50 D603 B078 B078 00078 00078 11565  1 2049.                  OC  LCBLC,LCBLC           ANY TEXT LOADED?
 001B56 4770 6B0A            01BA0 11566  1 2050.                  BNZ PARMFIX               YES
 001B5A                            11567    2051.              END   ,
 001B5A 9120 A209      00209       11571    2052.              IF    CLWPFPIC,RUNNING
 001B5E 4710 6AE4            01B7A 11583             +
 001B62 4110 0378            00378 11589    2053.     NOPROG   SEG   'No program loaded'
 001B66 4590 6D36            01DCC 11591             +
 001B6A 47F0 6C50            01CE6 11592    2054.              B     ERROR
                                   11593    2055.
 001B6E 4110 038A            0038A 11594    2056.     LDBLOCK  SEG   'Loader blocked by errors'
 001B72 4590 6D36            01DCC 11596             +
 001B76 47F0 6C50            01CE6 11597    2057.              B     ERROR
                                   11598    2058.
 001B7A 4110 03A3            003A3 11599    2059.     RUNNING  SEG   'Program in execution'
 001B7E 4590 6D36            01DCC 11601             +
 001B82 47F0 6C50            01CE6 11602    2060.              B     ERROR
                                   11603    2061.     * IS PROGRAM EXECUTING?
                                   11604    2062.     *
 001B86 9120 A209/0719 00209       11605    2063.     EXECQ    IF    CLWPFPIC,RAR
 001B8C 9140 A209      00209       11624    2064.              IF    ~CLWPFPL,NOPROG         HOW ABOUT LOADED?
 001B90 47E0 6ACC            01B62 11636             +
 001B94 4110 03B8            003B8 11642    2065.              SEG   'Program not entered'
 001B98 4590 6D36            01DCC 11644             +
 001B9C 47F0 6C50            01CE6 11645    2066.              B     ERROR
1VPM      (VPM00) (09:49) (22MAR04) ORVYL'S PROGRAM MANAGER - SCAN AND MSG ROUTINES                                         Page   96
0Current Usings:  (BASE+4096,R6) (BASE,R7) (WAPM,R8) (CLW,R10) (LNKPAGE,R11) (GPW,R12)
0Loc    Object Code    Addr1 Addr2  Stmt Lv Lineno    Source Statement           (Hibal 5, Asmedit 3.3)  HLASM R4.0  2004/03/22 09.49
+___    ______ ____    _____ _____  ____ __ ______    ______ _________
0                                  11647    2068.     * PROGRAM ENTRY COMMAND RECEIVED. IS THERE A PARM?
                                   11648    2069.     *
 001BA0                            11649    2070.     PARMFIX  LABEL ,
 001BA0 9801 8044            00044 11651    2071.              LM    R0,R1,WAPARMP           GET PARM POINTERS
 001BA4 1200                       11652    2072.              LTR   R0,R0                   ANY?
 001BA6 0789                       11653    2073.              BZR   RAR                     NONE
 001BA8 957D 1000      00000       11654    2074.              CLI   @R1,C''''               QUOTED STRING?
 001BAC 4780 6B36            01BCC 11655    2075.              BE    QUOTPARM                YES
 001BB0 957F 1000      00000       11656    2076.              CLI   @R1,C'"'
 001BB4 4780 6B36            01BCC 11657    2077.              BE    QUOTPARM                YES
 001BB8 954D 1000      00000       11658    2078.              CLI   @R1,C'('                PAREN STRING?
 001BBC 4770 6B46            01BDC 11659    2079.              BNE   PARMOV                  SIMPLE PARM
 001BC0 4110 1001            00001 11660    2080.              LA    R1,@R1+1                PARENED PARM
 001BC4 0600                       11661    2081.              DECR  R0
 001BC6 0600                       11663    2082.              DECR  R0                      REMOVE PARENS
 001BC8 47F0 6B46            01BDC 11665    2083.              B     PARMOV                  PUT IT AWAY
                                   11666    2084.
 001BCC                            11667    2085.     QUOTPARM LABEL ,
 001BCC D284 B91C 1000 0091C 00000 11669    2086.              MVC   LNKCLCMD(133),@R1       MOVE TO TEMP
 001BD2 4110 B91C            0091C 11670    2087.              LA    R1,LNKCLCMD
 001BD6 58E0 6EA2/0DEE       01F38 11671    2088.              XCALL DQSCAN                  REMOVE QUOTES
 001BDC D284 B9A6 1000 009A6 00000 11675    2089.     PARMOV   MVC   LNKCLPRM+2(133),@R1
 001BE2 4000 B9A4            009A4 11676    2090.              STH   R0,LNKCLPRM             LENGTH
 001BE6                            11677    2091.              CLEAR WAPARMP                 RESET PARM POINTER
 001BE6 D703 8044 8044 00044 00044 11683             +
 001BEC 07F9                       11684    2092.              BR    RAR
1VPM      (VPM00) (09:49) (22MAR04) ORVYL'S PROGRAM MANAGER - SCAN AND MSG ROUTINES                                         Page   97
0Current Usings:  (BASE+4096,R6) (BASE,R7) (WAPM,R8) (CLW,R10) (LNKPAGE,R11) (GPW,R12)
0Loc    Object Code    Addr1 Addr2  Stmt Lv Lineno    Source Statement           (Hibal 5, Asmedit 3.3)  HLASM R4.0  2004/03/22 09.49
+___    ______ ____    _____ _____  ____ __ ______    ______ _________
0001BEE 4590 6D0E            01DA4 11686    2094.     NOTYET   SEG   (1),(0)                 PRINT KEYWORD
 001BF2 4110 03CC            003CC 11701    2095.              SEG   ': Function not available'
 001BF6 4590 6D36            01DCC 11703             +
 001BFA 47F0 6C50            01CE6 11704    2096.              B     ERROR                   RETURN
1VPM      (VPM00) (09:49) (22MAR04) ORVYL'S PROGRAM MANAGER - SCAN AND MSG ROUTINES                                         Page   98
0Current Usings:  (BASE+4096,R6) (BASE,R7) (WAPM,R8) (CLW,R10) (LNKPAGE,R11) (GPW,R12)
0Loc    Object Code    Addr1 Addr2  Stmt Lv Lineno    Source Statement           (Hibal 5, Asmedit 3.3)  HLASM R4.0  2004/03/22 09.49
+___    ______ ____    _____ _____  ____ __ ______    ______ _________
0                                  11706    2098.     * FATAL ERROR MESSAGES
                                   11707    2099.     *
 001BFE 4110 03E5            003E5 11708    2100.     LSTKOFLO SEG   'Include stack overflow'
 001C02 4590 6D36            01DCC 11710             +
 001C06 47F0 6C50            01CE6 11711    2101.              B     ERROR
                                   11712    2102.
 001C0A 4D90 6D26/0414       01DBC 11713    2103.     BADLDF   FSCALL SEGNAME
 001C10 4110 03FC            003FC 11717    2104.              SEG   'has been damaged'
 001C14 4590 6D36            01DCC 11719             +
 001C18 47F0 6C50            01CE6 11720    2105.              B     ERROR
                                   11721    2106.
 001C1C 4D90 6D26/0414       01DBC 11722    2107.     NOTLDF   FSCALL SEGNAME
 001C22 4110 040D            0040D 11726    2108.              SEG   'is not a loadfile'
 001C26 4590 6D36            01DCC 11728             +
 001C2A 47F0 6C50            01CE6 11729    2109.              B     ERROR
                                   11730    2110.
 001C2E 4D90 6D26/0414       01DBC 11731    2111.     NOTIXR   FSCALL SEGNAME
 001C34 4110 041F            0041F 11735    2112.              SEG   'is a non-ixr file'
 001C38 4590 6D36            01DCC 11737             +
 001C3C 47F0 6C50            01CE6 11738    2113.              B     ERROR
                                   11739    2114.
 001C40 4110 0431            00431 11740    2115.     PROGNF   SEG   'Program not found'
 001C44 4590 6D36            01DCC 11742             +
 001C48 47F0 6C50            01CE6 11743    2116.              B     ERROR
-                                  11745    2118.
 001C4C 4D90 6D26/0414       01DBC 11746    2119.     EMPTY    FSCALL SEGNAME
 001C52 4110 0443            00443 11750    2120.              SEG   'has no contents'
 001C56 4590 6D36            01DCC 11752             +
 001C5A 47F0 6C50            01CE6 11753    2121.              B     ERROR
                                   11754    2122.
 001C5E 4110 0453            00453 11755    2123.     CHEAP    SEG   'Program usage restricted to '
 001C62 4590 6D36            01DCC 11757             +
 001C66 4110 A2B3            002B3 11758    2124.              SEG   CLWKPROG,8
 001C6A 4100 0008            00008 11774             +
 001C6E 4590 6D0E            01DA4 11775             +
 001C72 47F0 6C50            01CE6 11776    2125.              B     ERROR
1VPM      (VPM00) (09:49) (22MAR04) ORVYL'S PROGRAM MANAGER - SCAN AND MSG ROUTINES                                         Page   99
0Current Usings:  (BASE+4096,R6) (BASE,R7) (WAPM,R8) (CLW,R10) (LNKPAGE,R11) (GPW,R12)
0Loc    Object Code    Addr1 Addr2  Stmt Lv Lineno    Source Statement           (Hibal 5, Asmedit 3.3)  HLASM R4.0  2004/03/22 09.49
+___    ______ ____    _____ _____  ____ __ ______    ______ _________
0DROP   BASE,R7                    11778    2127.              DROP  BR,BRR,FSUBR,WAR        ##
 DROP   BASE+4096,R6
 DROP   WAPM,R8
1VPM      (VPM00) (09:49) (22MAR04) ORVYL'S PROGRAM MANAGER - SCAN AND MSG ROUTINES                                         Page  100
0Current Usings:  (CLW,R10) (LNKPAGE,R11) (GPW,R12)
0Loc    Object Code    Addr1 Addr2  Stmt Lv Lineno    Source Statement           (Hibal 5, Asmedit 3.3)  HLASM R4.0  2004/03/22 09.49
+___    ______ ____    _____ _____  ____ __ ______    ______ _________
0
1VPM      (VPM00) (09:49) (22MAR04) ORVYL'S PROGRAM MANAGER - SCAN AND MSG ROUTINES                                         Page  101
0Current Usings:  (CLW,R10) (LNKPAGE,R11) (GPW,R12)
0Loc    Object Code    Addr1 Addr2  Stmt Lv Lineno    Source Statement           (Hibal 5, Asmedit 3.3)  HLASM R4.0  2004/03/22 09.49
+___    ______ ____    _____ _____  ____ __ ______    ______ _________
0USING  BASE,R7                    11803    2131.              USING BASE,BR,BRR             ##
 USING  BASE+4096,R6
 001C76 1000                       11820    2132.     SCRET    LPR   0,0
 001C78 4780 6BF6            01C8C 11821    2133.              BZ    MISSING
                                   11822    2134.
 001C7C 4590 6D0E            01DA4 11823    2135.     ILLSTR   SEG   (1),(0)
 001C80 4110 0470            00470 11838    2136.              SEG   ': Invalid string'
 001C84 4590 6D36            01DCC 11840             +
 001C88 47F0 7004            00004 11841    2137.              B     4(,BR)                  ERROR RETURN
                                   11842    2138.
 001C8C 4110 0481            00481 11843    2139.     MISSING  SEG   'Operand missing'
 001C90 4590 6D36            01DCC 11845             +
 001C94 47F0 7004            00004 11846    2140.              B     4(,BR)                  ERROR RETURN
                                   11847    2141.
 001C98 4590 6D0E            01DA4 11848    2142.     UNREC    SEG   (1),(0)
 001C9C 4110 0491            00491 11863    2143.              SEG   ': Invalid'
 001CA0 4590 6D36            01DCC 11865             +
 001CA4 47F0 7004            00004 11866    2144.              B     4(,BR)                  ERROR RETURN
 001CA8                            11867    2145.     FILEXIT  LABEL ,
 001CA8 4D90 6D26/0898       01DBC 11869    2146.              FSCALL FILEXIT                DOES NOT RETURN HERE
                                   11873    2147.     *  SET MESSAGE, CLEAN UP AND LEAVE
                                   11874    2148.     *
 001CAE                            11875    2149.     MSGEXIT  LABEL ,
 001CAE 4590 6D0E            01DA4 11877    2150.              SEG   (1),(0)
 001CB2                            11891    2151.     WRITEXIT LABEL ,                       :::
 001CB2 5890 6DC2/0D99       01E58 11893    2152.              VWRITE ,                      SEND MESSAGE
 001CB8 47F0 6C12            01CA8 11898    2153.              B     FILEXIT                 RETURN
 001CBC                            11899    2154.     QIETEXIT LABEL ,                       :::
 001CBC 9104 C001      00001       11901    2155.              IF    ~GPWFQIET,WRITEXIT
 001CC0 47E0 6C1C            01CB2 11913             +
 001CC4                            11919    2156.              CLEAR (CLWOBUF,4)             QUIET!!
 001CC4 D703 A118 A118 00118 00118 11925             +
 001CCA 47F0 6C12            01CA8 11926    2157.              B     FILEXIT
                                   11927    2158.
 001CCE 4110 049B            0049B 11928    2159.     REQABORT SEG   'Request aborted'
 001CD2 4590 6D36            01DCC 11930             +
 001CD6 47F0 7004            00004 11931    2160.              B     4(,BR)
 001CDA 4110 04AB            004AB 11932    2161.     VFMSG    SEG   'in ORVYL File System'
 001CDE 4590 6D36            01DCC 11934             +
 001CE2 47F0 6C26            01CBC 11935    2162.              B     QIETEXIT
0001CE6                            11937    2164.     ERROR    LABEL ,
 001CE6 47F0 7004            00004 11939    2165.              B     4(,BR)
0001CEA                            11941    2167.     VOID     LABEL ,
 001CEA 4110 04C0            004C0 11943    2168.              SEG   'Void range'
 001CEE 4590 6D36            01DCC 11945             +
 001CF2 47F0 7004            00004 11946    2169.              B     4(,BR)
 001CF6 4110 04CB            004CB 11947    2170.     NOCORE   SEG   'Insufficient user memory to process command'
 001CFA 4590 6D36            01DCC 11949             +
 001CFE 47F0 7004            00004 11950    2171.              B     4(,BR)
0001D02                            11952    2173.     PCATERR  LABEL ,
 001D02 4110 04F7            004F7 11954    2174.              SEG   'Program catalog error'
1VPM      (VPM00) (09:49) (22MAR04) ORVYL'S PROGRAM MANAGER - SCAN AND MSG ROUTINES                                         Page  102
0Current Usings:  (BASE+4096,R6) (BASE,R7) (CLW,R10) (LNKPAGE,R11) (GPW,R12)
0Loc    Object Code    Addr1 Addr2  Stmt Lv Lineno    Source Statement           (Hibal 5, Asmedit 3.3)  HLASM R4.0  2004/03/22 09.49
+___    ______ ____    _____ _____  ____ __ ______    ______ _________
0001D06 4590 6D36            01DCC 11956             +
 001D0A 47F0 7004            00004 11957    2175.              B     4(,BR)
0001D0E                            11959    2177.     MEMNTSPC LABEL ,
 001D0E 4110 050D            0050D 11961    2178.              SEG   'Member not specified'
 001D12 4590 6D36            01DCC 11963             +
 001D16 47F0 7004            00004 11964    2179.              B     4(,BR)
0001D1A 4D90 6D26/0410       01DBC 11966    2181.     MEMNFND  FSCALL SEGMEMB                MEMBER NAME
 001D20 4110 0522            00522 11970    2182.              SEG   'not in '
 001D24 4590 6D36            01DCC 11972             +
 001D28 4D90 6D26/0414       01DBC 11973    2183.              FSCALL SEGNAME
 001D2E 47F0 7004            00004 11977    2184.              B     4(,BR)
 001D32 4110 052A            0052A 11978    2185.     INVALMEM SEG   'Invalid member name specified'
 001D36 4590 6D36            01DCC 11980             +
 001D3A 47F0 7004            00004 11981    2186.              B     4(,BR)
 001D3E                            11982    2187.     NOTLIB   LABEL ,
 001D3E 4D90 6D26/0414       01DBC 11984    2188.              FSCALL SEGNAME
 001D44 4110 0548            00548 11988    2189.              SEG   'is not a library'
 001D48 4590 6D36            01DCC 11990             +
 001D4C 47F0 7004            00004 11991    2190.              B     4(,BR)
0                                  11993    2192.
 001D50 4110 0559            00559 11994    2193.     BADFORM  SEG   'File not '
 001D54 4590 6D36            01DCC 11996             +
 001D58 9140 C006      00006       11997    2194.              IF    ~GPWGPFV,BADEDIT        FILE VARIABLE FORMAT?
 001D5C 47E0 6CD6            01D6C 12009             +
 001D60 4110 0563            00563 12015    2195.              SEG   'variable'
 001D64 4590 6D36            01DCC 12017             +
 001D68 47F0 6CEE            01D84 12018    2196.              B     BADFCOM
 001D6C 4110 056C            0056C 12019    2197.     BADEDIT  SEG   'edit'
 001D70 4590 6D36            01DCC 12021             +
 001D74 9620 C006      00006       12022    2198.              SET   GPWGPFLR                EDIT OR CARD?
 001D78 4780 6CEE            01D84 12028    2199.              BZ    BADFCOM
 001D7C 4110 0571            00571 12029    2200.              SEG   ' or card'
 001D80 4590 6D36            01DCC 12031             +
 001D84                            12032    2201.     BADFCOM  LABEL ,
 001D84 4110 057A            0057A 12034    2202.              SEG   ' format'
 001D88 4590 6D36            01DCC 12036             +
 001D8C 47F0 7004            00004 12037    2203.              B     4(,BR)
1VPM      (VPM00) (09:49) (22MAR04) ORVYL'S PROGRAM MANAGER - SCAN AND MSG ROUTINES                                         Page  103
0Current Usings:  (BASE+4096,R6) (BASE,R7) (CLW,R10) (LNKPAGE,R11) (GPW,R12)
0Loc    Object Code    Addr1 Addr2  Stmt Lv Lineno    Source Statement           (Hibal 5, Asmedit 3.3)  HLASM R4.0  2004/03/22 09.49
+___    ______ ____    _____ _____  ____ __ ______    ______ _________
0                                  12039    2205.
                                   12040    2206.
                                   12041    2207.       AMODE31 -- Routine to switch to 31-bit addressing mode.
                                   12042    2208.

0001D90                            12043    2209.     AMODE31  LABEL ,
 001D90 41F0 6D04            01D9A 12045    2210.              LA    R15,A31GO
 001D94 56F0 6EA6            01F3C 12046    2211.              O     R15,=A(X'80000000')  31 bit mode wanted
 001D98 0B0F                       12047    2212.              BSM   0,R15
 001D9A                            12048    2213.     A31GO    LABEL ,
 001D9A 07F9                       12050    2214.              BR    RAR
                                   12051    2215.
                                   12052    2216.
                                   12053    2217.       AMODE24 -- Routine to switch back to 24-bit addressing mode.
                                   12054    2218.

0001D9C                            12055    2219.     AMODE24  LABEL ,
 001D9C 41F0 6D0C            01DA2 12057    2220.              LA    R15,A24GO
 001DA0 0B0F                       12058    2221.              BSM   0,R15                Return to 24 bit mode
 001DA2                            12059    2222.     A24GO    LABEL ,
 001DA2 07F9                       12061    2223.              BR    RAR
                                   12062    2224.     *
                                   12063    2225.     *  SPACE-SAVING SEG  ROUTINE
                                   12064    2226.     *
                                   12065    2227.     *
 001DA4 5090 D000            00000 12066    2228.     SEG      VPUSH RAR,,*
 001DA8 41D0 D004            00004 12068             +
 001DAC 5890 6D7E/0D99       01E14 12069    2229.              VSEG  (1),(0)
 001DB2 4BD0 6ED0            01F66 12086    2230.              VPOP  RAR,,*
 001DB6 5890 D000            00000 12088             +
 001DBA 07F9                       12089    2231.              BR    RAR
 001DBC 9029 D000/188D       00000 12090    2232.              FSCALL GOSUB
 001DC2 41D0 D020            00020 12095             +
 001DC6 5860 6EAA/07F6       01F40 12096             +
 001DCC 5090 D000            00000 12098    2233.              GENMSGS ,
 001DD0 41D0 D004/1F00       00004 12102             +
 001DD6 4301 6F2E            01FC4 12107             +
 001DDA 4111 6F2F            01FC5 12108             +
 001DDE 5890 6D7E/0D99       01E14 12124             +
 001DE4 4BD0 6ED0            01F66 12127             +
 001DE8 5890 D000/07F9       00000 12128             +
 001DF0 0000109600000096           12132                             =A(BASE+4096,BASE)
 001DF8 4040404040404040           12133                             =CL8' '
 001E00 0000000000000000           12134                             =D'0'
 001E08 C8D6D4C5C2D9C5E6           12135                             =C'HOMEBREW'
 001E10 00000000                   12136                             =V(GETCLW)
 001E14 00000000                   12137                             =V(VSEG)
 001E18 00000000                   12138                             =V(TYPEIT)
 001E1C 00000000                   12139                             =V(CLRLP)
 001E20 00000000                   12140                             =V(CLEANUP)
 001E24 00000000                   12141                             =V(FREECLW)
 001E28 00000000                   12142                             =V(PLCOFERR)
1VPM      (VPM00) (09:49) (22MAR04) ORVYL'S PROGRAM MANAGER - SCAN AND MSG ROUTINES                                         Page  104
0Current Usings:  (BASE+4096,R6) (BASE,R7) (CLW,R10) (LNKPAGE,R11) (GPW,R12)
0Loc    Object Code    Addr1 Addr2  Stmt Lv Lineno    Source Statement           (Hibal 5, Asmedit 3.3)  HLASM R4.0  2004/03/22 09.49
+___    ______ ____    _____ _____  ____ __ ______    ______ _________
0001E2C 00002546                   12143                             =A(KWLINK)
 001E30 00000000                   12144                             =V(SCAN)
 001E34 00030000                   12145                             =AL2(3,0)
 001E38 00000000                   12146                             =V(UNPRS)
 001E3C 00000050                   12147                             =A(80)
 001E40 00000000                   12148                             =V(POPLNKST)
 001E44 00000000                   12149                             =V(GETLINE)
 001E48 00000000                   12150                             =V(SCINIT)
 001E4C 000025B3                   12151                             =A(PARMCHK)
 001E50 00000000                   12152                             =V(CHKATTN)
 001E54 00000000                   12153                             =V(LDGO)
 001E58 00000000                   12154                             =V(VWRITE)
 001E5C 000025BF                   12155                             =A(COMMTBL)
 001E60 00000000                   12156                             =V(LDALIAS)
 001E64 00000000                   12157                             =V(LDCHANGE)
 001E68 00000000                   12158                             =V(SCTELL)
 001E6C 00000000                   12159                             =V(LDFIND)
 001E70 00000000                   12160                             =V(BTX)
 001E74 000026B7                   12161                             =A(KWINCLUD)
 001E78 00000000                   12162                             =F'0'
 001E7C 000026D4                   12163                             =A(LDFTBL)
 001E80 00000008                   12164                             =A(8)
 001E84 00000000                   12165                             =A(0)
 001E88 00000000                   12166                             =V(LDSET)
 001E8C 00000000                   12167                             =V(LDNEXT)
 001E90 00000007                   12168                             =A(7)
 001E94 E3C8C540C6D6D3D3           12169                             =C'THE FOLLOWING SYMBOLS ARE UNDEFINED:'
 001EB8 00000000                   12170                             =V(LDMOINIT)
 001EBC 00000000                   12171                             =V(LDMOGO)
 001EC0 00000000                   12172                             =V(LDPAGE)
 001EC4 000027AE                   12173                             =A(PRMCRDKW)
 001EC8 00000000                   12174                             =V(DTB)
 001ECC 00000000                   12175                             =V(LDREPDEL)
 001ED0 00000000                   12176                             =V(XTB)
 001ED4 00000000                   12177                             =V(EVHEX)
 001ED8 000027ED                   12178                             =A(KWCALL)
 001EDC 000027B6                   12179                             =A(CATSCKWS)
 001EE0 00000000                   12180                             =V(SETPUB)
 001EE4 00001000                   12181                             =A(4096)
 001EE8 00000000                   12182                             =V(LDMIINIT)
 001EEC 00000000                   12183                             =V(LDMIGO)
 001EF0 0000282D                   12184                             =A(KWENTER)
 001EF4 00000000                   12185                             =V(LDFIX)
 001EF8 7FFFF000                   12186                             =X'7FFFF000'
 001EFC 00FFFFFC                   12187                             =X'00FFFFFC'
 001F00 00002868                   12188                             =A(KWGO)
 001F04 00000000                   12189                             =V(READCORE)
 001F08 00000000                   12190                             =V(RITECORE)
 001F0C 7FFFFFFF                   12191                             =X'7FFFFFFF'
 001F10 00000000                   12192                             =V(EVAL)
 001F14 0FFFFFFF                   12193                             =X'0FFFFFFF'
 001F18 00FFFFFF                   12194                             =X'00FFFFFF'
 001F1C 0000001C                   12195                             =A(L'LSE)
 001F20 00002870                   12196                             =A(PVTBL)
1VPM      (VPM00) (09:49) (22MAR04) ORVYL'S PROGRAM MANAGER - SCAN AND MSG ROUTINES                                         Page  105
0Current Usings:  (BASE+4096,R6) (BASE,R7) (CLW,R10) (LNKPAGE,R11) (GPW,R12)
0Loc    Object Code    Addr1 Addr2  Stmt Lv Lineno    Source Statement           (Hibal 5, Asmedit 3.3)  HLASM R4.0  2004/03/22 09.49
+___    ______ ____    _____ _____  ____ __ ______    ______ _________
0001F24 00000000                   12197                             =V(VREAD)
 001F28 00002879                   12198                             =A(YESOKTBL)
 001F2C 00000000                   12199                             =V(LDINIT)
 001F30 00003000                   12200                             =A(8192+4096)
 001F34 00002000                   12201                             =A(8192)
 001F38 00000000                   12202                             =V(DQSCAN)
 001F3C 80000000                   12203                             =A(X'80000000')
 001F40 00000000                   12204                             =V(FSUB#COM)
 001F44 D596A340859596A4           12205                             =C'Not enough memory for Link'
 001F5E 0000                       12206                             =AL2(0)
 001F60 0800                       12207                             =AL2(2048)
 001F62 0008                       12208                             =Y(8)
 001F64 009E                       12209                             =AL2(L'GPWFCB)
 001F66 0004                       12210                             =Y(4)
 001F68 0003                       12211                             =Y(3)
 001F6A 1000                       12212                             =Y(4096)
 001F6C 0024                       12213                             =Y((R1+1-(RAR)+16*((RAR)/(R1+1))/((RAR)/(R1+1)))*4)
 001F6E 0008                       12214                             =Y((R15+1-(R14)+16*((R14)/(R15+1))/((R14)/(R15+1)))*4)
 001F70 0020                       12215                             =Y((RAR+1-(SR)+16*((SR)/(RAR+1))/((SR)/(RAR+1)))*4)
 001F72 606E40                     12216                             =C'-> '
 001F75 E4D5C4C5C6C9D5C5           12217                             =C'UNDEFINED'
 001F7E D7D9D6C7D3C9C2             12218                             =C'PROGLIB'
 001F85 4DD95D                     12219                             =C'(R)'
 001F88 E6C9E3C840C1D3C9           12220                             =C'WITH ALIASES:'
 001F95 E2D7C240D3D6C1C4           12221                             =C'SPB LOADING STUFF'
1VPM      (VPM00) (09:49) (22MAR04) ORVYL'S PROGRAM MANAGER - SCAN AND MSG ROUTINES                                         Page  106
0Current Usings:  (BASE+4096,R6) (BASE,R7) (CLW,R10) (LNKPAGE,R11) (GPW,R12)
0Loc    Object Code    Addr1 Addr2  Stmt Lv Lineno    Source Statement           (Hibal 5, Asmedit 3.3)  HLASM R4.0  2004/03/22 09.49
+___    ______ ____    _____ _____  ____ __ ______    ______ _________
0                                  12359    2235.     *  SCAN TABLES
                                   12360    2236.     *
                                   12361    2237.     * LINK COMMAND KEYWORD TABLE AND KEYWORD ROUTINES
                                   12362    2238.     *
0                                  12364    2240.              EXTRN KWFNOPT
                                   12365    2241.              EXTRN QUIET
                                   12366    2242.              EXTRN GOTNKWR
                                   12367    2243.              EXTRN OSOPTS                  OS/FILE KEYWORD OPTIONS
0002546                            12369    2245.     KWLINK   SCKW  ACTIVE,SETACT,A
 002546 0D0001B2C1C3E3C9           12370             +
 002550                            12371    2246.              SCKW  FILE,SETFIL,A
 002550 0B0001C0C6C9D3C5           12372             +
 002558                            12373    2247.              SCKW  FROM,SETFIL,A          USE FILE
 002558 0B0001C0C6D9D6D4           12374             +
 002560                            12375    2248.              SCKW  LIST,SETLIST,A
 002560 0B0001EED3C9E2E3           12376             +
 002568                            12377    2249.              SCKW  QUIET,QUIET,A
 002568 0C000000D8E4C9C5           12378             +
 002571                            12379    2250.              SCKW  ENTER,SETENTER,A
 002571 0C0001F4C5D5E3C5           12380             +
 00257A                            12381    2251.              SCKW  CLR,SETEXIT
 00257A 020001E8C3D3D9             12382             +
 002581                            12383    2252.              SCKW  CLEAR,SETEXIT,A
 002581 0C0001E8C3D3C5C1           12384             +
 00258A                            12385    2253.              SCKW  EXIT,SETEXIT,A
 00258A 0B0001E8C5E7C9E3           12386             +
 002592 F80026DC                   12387    2254.              SCKW  ,PARMKW,PUSH
 002596 F8000000                   12389    2255.              SCKW  ,OSOPTS,PUSH
 00259A F8000000                   12391    2256.              SCKW  ,KWFNOPT,PUSH
                                   12393    2257.     *
                                   12394    2258.     * KEYWORD OPTIONS FOR ENTRY ON LINK, CALL, ENTER
                                   12395    2259.     *
 00259E                            12396    2260.     ENTRYOPT SCKW  PAUSE,SETPAU,A
 00259E 0C0001FAD7C1E4E2           12397             +
 0025A7                            12398    2261.              SCKW  PARM,CALLPARM,(A,P)
 0025A7 8B00021ED7C1D9D4           12399             +
 0025AF FF000206                   12400    2262.              SCKW  ,CALLPAR1               PAREN OR QUOTED PARM?
                                   12402    2263.
 0025B3                            12403    2264.     PARMCHK  SCKW  PARM,PARM
 0025B3 03000DC2D7C1D9D4           12404             +
 0025BB FF000000                   12405    2265.              SCKW  ,                       ANYTHING ELSE RETURNS
                                   12407    2266.
 0025BF                            12408    2267.     COMMTBL  SCKW  ALIAS,ALIAS
 0025BF 040005B2C1D3C9C1           12409             +
 0025C8                            12410    2268.              SCKW  CHANGE,CHANGE
 0025C8 050005FCC3C8C1D5           12411             +
 0025D2                            12412    2269.              SCKW  COMMENT,COMMENT
 0025D2 06000626C3D6D4D4           12413             +
 0025DD                            12414    2270.              SCKW  ENTRY,ENTRY
 0025DD 04000640C5D5E3D9           12415             +
 0025E6                            12416    2271.              SCKW  EXPAND,EXPAND
 0025E6 050006FCC5E7D7C1           12417             +
1VPM      (VPM00) (09:49) (22MAR04) ORVYL'S PROGRAM MANAGER - SCAN AND MSG ROUTINES                                         Page  107
0Current Usings:  (BASE+4096,R6) (BASE,R7) (CLW,R10) (LNKPAGE,R11) (GPW,R12)
0Loc    Object Code    Addr1 Addr2  Stmt Lv Lineno    Source Statement           (Hibal 5, Asmedit 3.3)  HLASM R4.0  2004/03/22 09.49
+___    ______ ____    _____ _____  ____ __ ______    ______ _________
00025F0                            12418    2272.              SCKW  HIARCHY,IGNORE
 0025F0 060005A2C8C9C1D9           12419             +
 0025FB                            12420    2273.              SCKW  IDENTIFY,IGNORE
 0025FB 070005A2C9C4C5D5           12421             +
 002607                            12422    2274.              SCKW  INCLUDE,INCLUDE
 002607 06000772C9D5C3D3           12423             +
 002612                            12424    2275.              SCKW  INSERT,IGNORE
 002612 050005A2C9D5E2C5           12425             +
 00261C                            12426    2276.              SCKW  LIBRARY,LIBRARY
 00261C 0600085ED3C9C2D9           12427             +
 002627                            12428    2277.              SCKW  LOADFILE,LOADFILE
 002627 070008BCD3D6C1C4           12429             +
 002633                            12430    2278.              SCKW  NAME,NAME
 002633 03000AAED5C1D4C5           12431             +
 00263B                            12432    2279.              SCKW  ORDER,IGNORE
 00263B 040005A2D6D9C4C5           12433             +
 002644                            12434    2280.              SCKW  OVERLAY,IGNORE
 002644 060005A2D6E5C5D9           12435             +
 00264F                            12436    2281.              SCKW  PAGE,PAGE
 00264F 03000D8ED7C1C7C5           12437             +
 002657                            12438    2282.              SCKW  PARM,PARMERR
 002657 03000DF8D7C1D9D4           12439             +
 00265F                            12440    2283.              SCKW  REPLACE,REPLACE
 00265F 06000F2ED9C5D7D3           12441             +
 00266A                            12442    2284.              SCKW  SETSSI,IGNORE
 00266A 050005A2E2C5E3E2           12443             +
 002674                            12444    2285.              SCKW  SYSLIB,SYSLIB
 002674 0500085EE2E8E2D3           12445             +
 00267E                            12446    2286.              SCKW  SYSLMOD,LOADFILE
 00267E 060008BCE2E8E2D3           12447             +
 002689                            12448    2287.              SCKW  ZAPNAME,ZAPNAME
 002689 06000F5EE9C1D7D5           12449             +
 002694                            12450    2288.              SCKW  ZAPVER,ZAPVER
 002694 05000FBCE9C1D7E5           12451             +
 00269E                            12452    2289.              SCKW  ZAPREP,ZAPREP
 00269E 05000FC4E9C1D7D9           12453             +
 0026A8                            12454    2290.              SCKW  ZAPBASE,ZAPBASE
 0026A8 06000F8AE9C1D7C2           12455             +
 0026B3 FF001C98                   12456    2291.              SCKW  ,UNREC
                                   12458    2292.     *
                                   12459    2293.     * INCLUDE / LOADFILE  SCAN TABLE
                                   12460    2294.     *
 0026B7                            12461    2295.     KWINCLUD SCKW  ALL,INCLPDS
 0026B7 020007CCC1D3D3             12462             +
 0026BE                            12463    2296.              SCKW  LIBRARY,INCLPDS,A
 0026BE 0E0007CCD3C9C2D9           12464             +
 0026C9                            12465    2297.              SCKW  PDS,INCLPDS
 0026C9 020007CCD7C4E2             12466             +
 0026D0 F8000000                   12467    2298.              SCKW  ,OSOPTS,PUSH
 0026D4 F8000000                   12469    2299.     LDFTBL   SCKW  ,KWFNOPT,PUSH
 0026D8 FF001C98                   12471    2300.              SCKW  ,UNREC
                                   12473    2301.     *
                                   12474    2302.     *  PARM SCAN TABLE
                                   12475    2303.     *
1VPM      (VPM00) (09:49) (22MAR04) ORVYL'S PROGRAM MANAGER - SCAN AND MSG ROUTINES                                         Page  108
0Current Usings:  (BASE+4096,R6) (BASE,R7) (CLW,R10) (LNKPAGE,R11) (GPW,R12)
0Loc    Object Code    Addr1 Addr2  Stmt Lv Lineno    Source Statement           (Hibal 5, Asmedit 3.3)  HLASM R4.0  2004/03/22 09.49
+___    ______ ____    _____ _____  ____ __ ______    ______ _________
00026DC                            12476    2304.     PARMKW   SCKW  LET,PARMLET
 0026DC 02000E04D3C5E3             12477             +
 0026E3                            12478    2305.              SCKW  NCALL,PARMNCAL,A
 0026E3 0C000E1ED5C3C1D3           12479             +
 0026EC                            12480    2306.              SCKW  NOCALL,PARMNCAL,A
 0026EC 0D000E1ED5D6C3C1           12481             +
 0026F6                            12482    2307.              SCKW  CALL,PARMCALL
 0026F6 03000E0CC3C1D3D3           12483             +
 0026FE                            12484    2308.              SCKW  AUTOCALL,PARMCALL,A
 0026FE 0F000E0CC1E4E3D6           12485             +
 00270A                            12486    2309.              SCKW  NOAUTOCA,PARMNCAL,A
 00270A 0F000E1ED5D6C1E4           12487             +
 002716                            12488    2310.              SCKW  SIZE,PARMSIZE,P
 002716 83000E5CE2C9E9C5           12489             +
 00271E                            12490    2311.              SCKW  LIST,PARMLIST
 00271E 03000EBED3C9E2E3           12491             +
 002726                            12492    2312.              SCKW  MAP,PARMMAP
 002726 02000EC8D4C1D7             12493             +
 00272D                            12494    2313.              SCKW  OSNT,PARMOSNT
 00272D 03000ED2D6E2D5E3           12495             +
 002735                            12496    2314.              SCKW  OSENTRY,PARMOSNT,A
 002735 0E000ED2D6E2C5D5           12497             +
 002740                            12498    2315.              SCKW  NOOSNT,PARMNOSN,A
 002740 0D000EDCD5D6D6E2           12499             +
 00274A                            12500    2316.              SCKW  NOOSENTR,PARMNOSN,A
 00274A 0F000EDCD5D6D6E2           12501             +
 002756                            12502    2317.              SCKW  REFR,PARMREFR
 002756 03000EFAD9C5C6D9           12503             +
 00275E                            12504    2318.              SCKW  FORTRAN,PARMFORT,A
 00275E 0E000EE6C6D6D9E3           12505             +
 002769                            12506    2319.              SCKW  URAM,PARMURAM
 002769 03000EF0E4D9C1D4           12507             +
 002771                            12508    2320.              SCKW  RENT,PARMRENT
 002771 03000F04D9C5D5E3           12509             +
 002779                            12510    2321.              SCKW  SHRD,PARMRENT
 002779 03000F04E2C8D9C4           12511             +
 002781                            12512    2322.              SCKW  PROT,PARMREFR
 002781 03000EFAD7D9D6E3           12513             +
 002789                            12514    2323.              SCKW  PRIV,PARMPRIV
 002789 03000F0ED7D9C9E5           12515             +
 002791                            12516    2324.              SCKW  WARN,PARMWARN
 002791 03000E34E6C1D9D5           12517             +
 002799                            12518    2325.              SCKW  NOWARN,PARMNOWN
 002799 05000E46D5D6E6C1           12519             +
 0027A3                            12520    2326.              SCKW  MODE31,PARMM31
 0027A3 05000F18D4D6C4C5           12521             +
 0027AD F9                         12522    2327.              SCKW  ,,POP
                                   12524    2328.
 0027AE F80026DC                   12525    2329.     PRMCRDKW SCKW  ,PARMKW,PUSH
 0027B2 FF001C98                   12527    2330.              SCKW  ,UNREC
                                   12529    2331.
 0027B6                            12530    2332.     CATSCKWS SCKW  NAME,CATNAME,(A,P)
 0027B6 8B001232D5C1D4C5           12531             +
 0027BE                            12532    2333.              SCKW  COMMENT,CATCOMM,(A,P)
1VPM      (VPM00) (09:49) (22MAR04) ORVYL'S PROGRAM MANAGER - SCAN AND MSG ROUTINES                                         Page  109
0Current Usings:  (BASE+4096,R6) (BASE,R7) (CLW,R10) (LNKPAGE,R11) (GPW,R12)
0Loc    Object Code    Addr1 Addr2  Stmt Lv Lineno    Source Statement           (Hibal 5, Asmedit 3.3)  HLASM R4.0  2004/03/22 09.49
+___    ______ ____    _____ _____  ____ __ ______    ______ _________
00027BE 8E00123CC3D6D4D4           12533             +
 0027C9                            12534    2334.              SCKW  NOPRINT,CATNOPRT,A
 0027C9 0E00123CD5D6D7D9           12535             +
 0027D4                            12536    2335.              SCKW  SPIRES,CATSPIRE,A
 0027D4 0D00123EE2D7C9D9           12537             +
 0027DE                            12538    2336.              SCKW  SPL,CATSPL
 0027DE 02001244E2D7D3             12539             +
 0027E5 F8000000                   12540    2337.              SCKW  ,KWFNOPT,PUSH
 0027E9 FF001D02                   12542    2338.              SCKW  ,PCATERR
                                   12544    2339.     *
                                   12545    2340.     * CALL KEYWORD TABLE
                                   12546    2341.     *
 0027ED                            12547    2342.     KWCALL   SCKW  PUBLIC,CALLPUB,A
 0027ED 0D00124AD7E4C2D3           12548             +
 0027F7 F8000000                   12549    2343.              SCKW  ,KWFNOPT,PUSH FILE NAME OPTIONS
 0027FB                            12551    2344.              SCKW  CLEAR,SETEXIT,A
 0027FB 0C0001E8C3D3C5C1           12552             +
 002804                            12553    2345.              SCKW  CLR,SETEXIT
 002804 020001E8C3D3D9             12554             +
 00280B                            12555    2346.              SCKW  EXIT,SETEXIT
 00280B 030001E8C5E7C9E3           12556             +
 002813                            12557    2347.              SCKW  NOSHARE,SETNOSHA,A
 002813 0E000200D5D6E2C8           12558             +
 00281E                            12559    2348.              SCKW  LIBRARY,GOTNKWR,(P,A)
 00281E 8E000000D3C9C2D9           12560             +
 002829 F800259E                   12561    2349.              SCKW  ,ENTRYOPT,PUSH          ENTRY OPTIONS
                                   12563    2350.
 00282D F8002835                   12564    2351.     KWENTER  SCKW  ,GOOPTS,PUSH
 002831 F800259E                   12566    2352.              SCKW  ,ENTRYOPT,PUSH
                                   12568    2353.
 002835                            12569    2354.     GOOPTS   SCKW  EVENTS,GOEVENT,(P,PI,A),X'FFFFFF'
 002835 BD00176EC5E5C5D5           12570             +
 00283F 00FFFFFF                   12571             +
 002843 01001788E3D6               12572    2355.              SCKW  TO,GOTO
 002849                            12574    2356.              SCKW  TRAP,GOTRAP,A
 002849 0B0017AAE3D9C1D7           12575             +
 002851                            12576    2357.              SCKW  NOLIST,GONOL,A
 002851 0D001782D5D6D3C9           12577             +
 00285B                            12578    2358.              SCKW  CONTINUE,GOCON,A
 00285B 0F00177AC3D6D5E3           12579             +
 002867 F9                         12580    2359.              SCKW  ,,POP
                                   12582    2360.
 002868 F8002835                   12583    2361.     KWGO     SCKW  ,GOOPTS,PUSH
 00286C FF001C98                   12585    2362.              SCKW  ,UNREC
                                   12587    2363.
 002870 200019DC40                 12588    2364.     PVTBL    SCKW  ,GOTPV,PI
 002875 FF0019D0                   12590    2365.              SCKW  ,BADPV
                                   12592    2366.
 002879                            12593    2367.     YESOKTBL SCKW  YES,CLRCOR1
 002879 02001A48E8C5E2             12594             +
 002880 01001A48D6D2               12595    2368.              SCKW  OK,CLRCOR1
 002886                            12597    2369.              SCKW  CLEAR,CLRCOR1,A
 002886 0C001A48C3D3C5C1           12598             +
 00288F                            12599    2370.              SCKW  CLR,CLRCOR1
1VPM      (VPM00) (09:49) (22MAR04) ORVYL'S PROGRAM MANAGER - SCAN AND MSG ROUTINES                                         Page  110
0Current Usings:  (BASE+4096,R6) (BASE,R7) (CLW,R10) (LNKPAGE,R11) (GPW,R12)
0Loc    Object Code    Addr1 Addr2  Stmt Lv Lineno    Source Statement           (Hibal 5, Asmedit 3.3)  HLASM R4.0  2004/03/22 09.49
+___    ______ ____    _____ _____  ____ __ ______    ______ _________
000288F 02001A48C3D3D9             12600             +
 002896 00001A48E8                 12601    2371.              SCKW  Y,CLRCOR1
 00289B FF001CCE                   12603    2372.              SCKW  ,REQABORT
 0028A0                028A0 02F20 12605    2373.              LTORG ,                   ##
1VPM      (VPM00) (09:49) (22MAR04) ORVYL'S PROGRAM MANAGER - SCAN AND MSG ROUTINES                                         Page  111
0Current Usings:  (BASE+4096,R6) (BASE,R7) (CLW,R10) (LNKPAGE,R11) (GPW,R12)
0Loc    Object Code    Addr1 Addr2  Stmt Lv Lineno    Source Statement           (Hibal 5, Asmedit 3.3)  HLASM R4.0  2004/03/22 09.49
+___    ______ ____    _____ _____  ____ __ ______    ______ _________
0                                  12611    2375.     * LOADERS ERROR MESSAGE ROUTINE
                                   12612    2376.     *
 0028A0 902E D000/188D       00000 12613    2377.     LDMSG    VENTER SR,R14,*
 0028A6 41D0 D034/0D70       00034 12618             +
 0028AC 5860 7604            02EB0 12636    2378.              L     BRR,=A(BASE+4096)
 DROP   BASE,R7
 USING  *,R7
                                   12637    2379.              USING BASE+4096,BRR          ##
 0028B0 5090 D000            00000 12639    2380.              VPUSH RAR,,*                 Save caller addressing mode
 0028B4 41D0 D004            00004 12641             +
 0028B8 4D90 6D06            01D9C 12642    2381.              LCALL AMODE24                Set to 24 bit mode
 0028BC 58A0 B1E0            001E0 12644    2382.              L     R10,LNKCLW
                                   12645    2383.              USING CLW,CLWR                ##
 0028C0 9140 B1CF      001CF       12647    2384.              IF    (~LNKPFLET,OR,(R15,GT,4)),BEGIN
 0028C4 47E0 7024            028D0 12661             +
 0028C8 59F0 7608            02EB4 12672             +
 0028CC 47D0 703C            028E8 12673             +
 0028D0 9602 B1CE      001CE       12678  1 2385.                SET   LNKFERR                 BLOCK FURTHER PROCESSING
 0028D4 59F0 B074            00074 12684  1 2386.                IF    (R15,GT,LCBMXC),' ST R15,LCBMXC '
 0028D8 47D0 7034            028E0 12696  1          +
 0028DC 50F0 B074            00074 12702  1          +
 0028E0 5890 760C/0D99       02EB8 12707  1 2387.                VSEG  (1),(0)
 0028E6 1B00                       12724  1 2388.                SR    R0,R0                   DON'T PRINT AGAIN
 0028E8                            12725    2389.              END   ,
 0028E8 7040           028E8 028CE 12729    2390.              ELSE  ' SR R15,R15 '          CLEAR RETURN CODE
 0028E8 47F0 7042/1BFF       028EE 12734             +
 0028EE 9140 B1CF      001CF       12746    2391.              IF    (~LNKPFLET,OR,LNKPFLWN),BEGIN  CHANGE FOR
 0028F2 47E0 7052            028FE 12760             +
 0028F6 9180 B1CF      001CF       12769             +
 0028FA 47E0 706A            02916 12770             +
 0028FE 5890 760C/0D99       02EB8 12775  1 2392.                VSEG  (1),(0)                 NOLET, NOWARN
 002904 12FF/4770 706A       02916 12792  1 2393.                IF    (R15,ZERO),BEGIN        FORCE OUT MSG NOW
 00290A 5890 7610/0D99       02EBC 12806  2 2394.                  VCALL PLCOFERR      IDENTIFY CARD CAUSING ERROR
 002910 5890 7614/0D99       02EC0 12810  2 2395.                  VCALL TYPEIT                  SO TYPE THE ERROR
 002916                            12814  1 2396.                END ,
 002916                            12818    2397.              END   ,
 002916 182F                       12822    2398.              LR    SR,R15                  Save return code
 002918 4BD0 7644            02EF0 12823    2399.              VPOP  RAR,,*                  Get caller addressing mode
 00291C 5890 D000            00000 12825             +
 002920 1299/47B0 707E       0292A 12826    2400.              IF    (RAR,M),'LCALL AMODE31'
 002926 4D90 6CFA            01D90 12842             +
 00292A 18F2                       12847    2401.              LR    R15,SR                  Restore return code
 00292C 18D8/982E D000       00000 12848    2402.              VEXIT SR,R14,*                RETURN CODE IN 15
 002932 12FF/07F9                  12852             +
1VPM      (VPM00) (09:49) (22MAR04) ORVYL'S PROGRAM MANAGER - SCAN AND MSG ROUTINES                                         Page  112
0Current Usings:  (BASE+4096,R6) (*,R7) (CLW,R10) (LNKPAGE,R11) (GPW,R12)
0Loc    Object Code    Addr1 Addr2  Stmt Lv Lineno    Source Statement           (Hibal 5, Asmedit 3.3)  HLASM R4.0  2004/03/22 09.49
+___    ______ ____    _____ _____  ____ __ ______    ______ _________
0                                  12855    2404.     *  FORMAT AN IDENTIFICATION OF THE CARD THAT CAUSED THE LOADER
                                   12856    2405.     *    ERROR INTO LNKCOMAR.
                                   12857    2406.     *
 002936 900A D000/188D       00000 12858    2407.     PLCOFERR VENTER R0,R10,WAPLCSZ
 00293C 41D0 D05C/0D70       0005C 12863             +
 DROP   *,R7                       12881    2408.              USING WAPLC,WAR
 USING  *,R7
 USING  WAPLC,R8
                                   12890    2409.              USING CLW,CLWR                ##
 002942 D202 B112 75BA 00112 02EFC 12892    2410.              MVC   LNKCOMAR(3),=C'-> '     PRINT ARROW BEFORE COMMAND
 002948 4830 B110            00110 12893    2411.              LH    TR,LNKCOML              LINK COMMAND LENGTH
 00294C 9502 B115      00115       12894    2412.              CLI   LNKCOM,X'02'            OBJECT CARD?
 002950 4770 7028            0296A 12895    2413.              BNE   TYP0
 002954 D202 B115 B116 00115 00116 12896    2414.              MVC   LNKCOM(3),LNKCOM+1      MOVE ESD,TXT...
 00295A D202 B118 75BD 00118 02EFF 12897    2415.              MVC   LNKCOM+3(3),=C'...'     SEPARATOR
 002960 D207 B11B B15D 0011B 0015D 12898    2416.              MVC   LNKCOM+6(8),LNKCOM+72   SEQUENCE FIELD
 002966 4130 000E            0000E 12899    2417.              LA    TR,3+3+8
 00296A 5930 7582            02EC4 12900    2418.     TYP0     IF    (TR,GT,67),'LA TR,67'   LEAVE ENOUGH ROOM FOR MESSAGE
 00296E 47D0 7034            02976 12913             +
 002972 4130 0043            00043 12919             +
 002976 4123 B115            00115 12924    2419.              LA    SR,LNKCOM(TR)
 00297A D207 2000 70D0 00000 02A12 12925    2420.              MVC   @SR(L'LINMSG),LINMSG
 002980 58F0 B1F0            001F0 12926    2421.              L     R15,LNKLN               LINE NUMBER
 002984 4100 0003            00003 12927    2422.              LA    R0,3                    MASK
 002988 4110 2008            00008 12928    2423.              LA    R1,@SR+L'LINMSG         TARGET
 00298C 58E0 7586/0DEE       02EC8 12929    2424.              XCALL BTR                     CONVERT
 002992 1A10                       12933    2425.              AR    R1,R0                   LAST POSITION
 002994 0610                       12934    2426.     TYPLOOP  DECR  R1                      LAST POSTION
 002996 95F0 1000      00000       12936    2427.              CLI   0(R1),C'0'              ZERO?
 00299A 4770 7062            029A4 12937    2428.              BNE   TYPNUM                  OK TO SEND IF NOT
 00299E 0600                       12938    2429.              DECR  R0                      MINUS ONE
 0029A0 47F0 7052            02994 12940    2430.              B     TYPLOOP                 KEEP GOING
 0029A4 1A20                       12941    2431.     TYPNUM   AR    SR,R0                   LENGTH DESIRED
 0029A6 1A30                       12942    2432.              AR    TR,R0
 0029A8 D203 2008 70D8 00008 02A1A 12943    2433.              MVC   @SR+L'LINMSG(L'LINMSGI),LINMSGI
 0029AE 9501 B1E5      001E5       12944    2434.              CLI   LNKFID,1                ACTIVE FILE?
 0029B2 4770 7082            029C4 12945    2435.              BNE   TYPFILE                 NO ITS A FILE
 0029B6 D20A 200C 75C0 0000C 02F02 12946    2436.              MVC   @SR+L'LINMSG+L'LINMSGI(11),=C'Active file'
 0029BC 4130 300B            0000B 12947    2437.              LA    TR,11+@TR
 0029C0 47F0 70B8            029FA 12948    2438.              B     PLCEXIT
 0029C4 1FEE/43E0 B1E5       001E5 12949    2439.     TYPFILE  CLPSERV DEVINFO,WADEVINF,L'WADEVINF,LC:LNKFID
 0029CA 41F0 002E            0002E 12967             +
 0029CE 4110 802C            0002C 12974             +
 0029D2 4100 0064/0AED       00064 12981             +
 0029D8 4120 200C            0000C 12983    2440.              LA    SR,@SR+L'LINMSG+L'LINMSGI
 0029DC D22B 2000 802E 00000 0002E 12984    2441.              MVC   @SR(44),WADEVNM         MOVE IN NAME
 0029E2 4100 002C            0002C 12985    2442.              LA    R0,44                   TOTAL SIZE
 0029E6 4110 202C            0002C 12986    2443.              LA    R1,@SR+44               LAST POSITION
 0029EA 9540 1000      00000       12987    2444.     TYPFLOOP CLI   @R1,C' '                BLANK?
 0029EE 4770 70B6            029F8 12988    2445.              BNE   TYPFLEN                 DONE IF NOT
 0029F2 0610                       12989    2446.              DECR  R1                      DECREMENT POSTION
 0029F4 4600 70A8            029EA 12991    2447.              BCT   R0,TYPFLOOP              AND LENGTH
 0029F8 1A30                       12992    2448.     TYPFLEN  AR    TR,R0                   TOTAL LENGTH (SORT OF)
 0029FA                            12993    2449.     PLCEXIT  LABEL ,
1VPM      (VPM00) (09:49) (22MAR04) ORVYL'S PROGRAM MANAGER - SCAN AND MSG ROUTINES                                         Page  113
0Current Usings:  (BASE+4096,R6) (*,R7) (WAPLC,R8) (CLW,R10) (LNKPAGE,R11) (GPW,R12)
0Loc    Object Code    Addr1 Addr2  Stmt Lv Lineno    Source Statement           (Hibal 5, Asmedit 3.3)  HLASM R4.0  2004/03/22 09.49
+___    ______ ____    _____ _____  ____ __ ______    ______ _________
00029FA 4100 0001            00001 12995    2450.              WRITE LA:1,LNKCOMAR,L'LINMSG+L'LINMSGI+3(TR)
 0029FE 4110 B112            00112 13007             +
 002A02 41F3 000F/0AF6       0000F 13014             +
 002A08 0AF2                       13021    2451.              WAIT  (0)
 002A0A 18D8/980A D000       00000 13029    2452.              VEXIT R0,R10                  ##
 002A10 07F9                       13033             +
                                   13034    2453.
 002A12 4060409389958540           13035    2454.     LINMSG   DC    C' - line '
 002A1A 40899540                   13036    2455.     LINMSGI  DC    C' in '
-
-DROP   *,R7                       13038    2457.              DROP  BR                      ##
 DROP   LNKPAGE,R11                13045    2458.              DROP  LCBR                    ##
1VPM      (VPM00) (09:49) (22MAR04) ORVYL'S PROGRAM CLEANUP ROUTINE                                                         Page  114
0Current Usings:  (BASE+4096,R6) (WAPLC,R8) (CLW,R10) (GPW,R12)
0Loc    Object Code    Addr1 Addr2  Stmt Lv Lineno    Source Statement           (Hibal 5, Asmedit 3.3)  HLASM R4.0  2004/03/22 09.49
+___    ______ ____    _____ _____  ____ __ ______    ______ _________
0                                  13053    2460.              USING BASE+4096,R6        ##  ##
 DROP   WAPLC,R8                   13055    2461.              USING WAPM,R8             ##  ##
 USING  WAPM,R8
                                   13067    2462.              USING CLW,CLWR                ##
 USING  LNKPAGE,R11                13069    2463.              USING LNKPAGE,R11         ##  ##
                                   13078    2464.              USING GPW,R12             ##  ##
                                   13080    2465.     *
                                   13081    2466.     * CLEAN UP LINK PROCESS AND USER CORE
                                   13082    2467.     *
 002A1E 9029 D000/188D       00000 13083    2468.     CLEANUP  VENTER SR,RAR,*
 002A24 41D0 D020/0D70       00020 13088             +
 USING  *,R7                       13103    2469.     *  IF PROGRAM WAS LOADED, CHECK FOR POSSIBLE PROGLOOKING
 002A2A 9160 A209      00209       13104    2470.              IF    CLWPFPL+CLWPFPIC,'VCALL STOPMON'
 002A2E 4780 700E            02A38 13117             +
 002A32 5890 74A2/0D99       02ECC 13125             +
                                   13131    2471.     *
                                   13132    2472.     * IF PROGRAM HAS BEEN ENTERED DETACH ALL FILES AND RESET ALL
                                   13133    2473.     * PROGRAM CONTROLLABLE FUNCTIONS.
                                   13134    2474.     *
 002A38 4110 0004            00004 13135    2475.              LA    R1,4                    Do only if user attached
 002A3C 5890 74A6/0D99       02ED0 13136    2476.              VCALL CLRIDTS
                                   13140    2477.     *
                                   13141    2478.     *  PROGRAM HAS BEEN ENTERED
                                   13142    2479.     *
 002A42 9120 A209      00209       13143    2480.              IF    ~CLWPFPIC,CLRPCORE      PROGRAM ENTERED?
 002A46 47E0 716A            02B94 13155             +
                                   13161    2481.     *
                                   13162    2482.     *  CLEAR ENQUEUE
                                   13163    2483.     *
 002A4A 5890 74AA/0D99       02ED4 13164    2484.              VCALL CLRENQS
                                   13168    2485.     *
                                   13169    2486.     *  RESET ALL PROGRAM CONTROLLABLE FUNCTIONS.
                                   13170    2487.     *
 002A50 4100 0003/1B11       00003 13171    2488.              VSET  3                       CLEAR TIMER
 002A56 0AFB                       13190             +
 002A58 4100 0005/1B11       00005 13192    2489.              VSET  5
 002A5E 0AFB                       13211             +
 002A60 4100 0006/1B11       00006 13213    2490.              VSET  6                       CLEAR SVC
 002A66 0AFB                       13232             +
 002A68 4100 0007/1B11       00007 13234    2491.              VSET  7                       CLEAR PANIC
 002A6E 0AFB                       13253             +
 002A70 4100 0096/1B11       00096 13255    2492.              VSET  150                     CLEAR PSUEDO USER IF SET
 002A76 0AFB                       13274             +
 002A78 920F A214      00214       13276    2493.              MVI   CLWDSP,15               PROIRITY
 002A7C 94BF A207      00207       13277    2494.              CLEAR CLWFCMD
 002A80 9200 A215      00215       13284    2495.              MVI   CLWPFS,0                CLEAR WAIT PARMS
 002A84 5810 A000            00000 13285    2496.              L     R1,CLWSCP
 USING  SCP,R1                     13286    2497.              WITH  (SCP,R1),BEGIN
 002A88 94EF 1261      00261       13300  1 2498.                CLEAR SCBCFNMA                RESET MULT ATTN SUPPRESS
 002A8C 9200 1201      00201       13307  1 2499.                CLEAR SCPKLUDG   **KLUDGE**   *** RESET RESERVE COUNT ***
 002A90                            13314  1 2500.                CLEAR (CLWSBPSW,72)
 002A90 D747 A368 A368 00368 00368 13320  1          +
 002A96                            13321  1 2501.                CLEAR (SCPXPSW,72)
 002A96 D747 1070 1070 00070 00070 13327  1          +
1VPM      (VPM00) (09:49) (22MAR04) ORVYL'S PROGRAM CLEANUP ROUTINE                                                         Page  115
0Current Usings:  (SCP,R1) (BASE+4096,R6) (*,R7) (WAPM,R8) (CLW,R10) (LNKPAGE,R11) (GPW,R12)
0Loc    Object Code    Addr1 Addr2  Stmt Lv Lineno    Source Statement           (Hibal 5, Asmedit 3.3)  HLASM R4.0  2004/03/22 09.49
+___    ______ ____    _____ _____  ____ __ ______    ______ _________
0002A9C 1B00                       13328  1 2502.                CLEAR R0
 002A9E 5000 11A0            001A0 13332  1 2503.                ST    R0,SCPPXA
 002AA2 5000 A228            00228 13333  1 2504.                ST    R0,CLWWLMOD             CLEAR USER WYLBUR MODE
 002AA6 5000 A224            00224 13334  1 2505.                ST    R0,CLWMLMOD             CLEAR MILTEN MODE WORD
 002AAA 5000 1224            00224 13335  1 2506.                ST    R0,SCPCMDP              CLEAR COMMAND POINTER
 002AAE 5000 1228            00228 13336  1 2507.                ST    R0,SCPPARMP             AND PARM POINTER
 DROP   SCP,R1                     13337    2508.              END   ,
 002AB2 9260 A228      00228       13345    2509.              MVI   CLWWLMOD,C'-'           BUT RESET WYLBUR PROMPT
 002AB6 4D90 6D26/085C       01DBC 13346    2510.              FSCALL RESETWMW               RESET MODE WORD
 002ABC 6800 747E            02EA8 13350    2511.              LD    0,=D'0'
 002AC0 2820                       13351    2512.              LDR   2,0
 002AC2 2840                       13352    2513.              LDR   4,0
 002AC4 2860                       13353    2514.              LDR   6,0
1VPM      (VPM00) (09:49) (22MAR04) ORVYL'S PROGRAM CLEANUP ROUTINE                                                         Page  116
0Current Usings:  (BASE+4096,R6) (*,R7) (WAPM,R8) (CLW,R10) (LNKPAGE,R11) (GPW,R12)
0Loc    Object Code    Addr1 Addr2  Stmt Lv Lineno    Source Statement           (Hibal 5, Asmedit 3.3)  HLASM R4.0  2004/03/22 09.49
+___    ______ ____    _____ _____  ____ __ ______    ______ _________
0                                  13355    2516.     *
                                   13356    2517.     *  FREE ALL WORK CORE
                                   13357    2518.     *
 002AC6                            13358    2519.              BEGIN
 002AC6 58F0 A000            00000 13362  1 2520.                L     R15,CLWSCP              SCP POINTER
 USING  SCP,R15                    13363  1 2521.                WITH  (SCP,R15)
 002ACA 9101 A209      00209       13376  1 2522.                IF    (~CLWPFSHR,AND,(SCPRRSEG,EQ,CLWUPST)),EXIT
 002ACE 4710 70B2            02ADC 13388  1          +
 002AD2 D503 F1F4 A01C 001F4 0001C 13402  1          +
 002AD8 4780 7116            02B40 13405  1          +
 DROP   SCP,R15                    13411  1 2523.                DROP  SCP
 002ADC 4100 0001/0AFA       00001 13419  1 2524.                SENSE 1                       GET RESERVED COUNT
 002AE2 1B1F                       13438  1 2525.                SR    R1,R15                  RESERVED=TITAL-UNRESERVED
 002AE4 4780 7106            02B30 13439  1 2526.                BZ    CLRWC2                  NO CORE RESERVED
 002AE8 1821                       13440  1 2527.                LR    SR,R1
 002AEA 8820 000C            0000C 13441  1 2528.                SRL   SR,12                   # PAGES TO FREE
                                   13442  1 2529.
 002AEE 5830 A018            00018 13443  1 2530.                L     TR,CLWUWST              START OF WORK AREA
 002AF2 5840 A01C            0001C 13444  1 2531.                L     QR,CLWUPST
 002AF6 5A40 A020            00020 13445  1 2532.                A     QR,CLWUPML              END OF ADDRESS SPACE
 002AFA 1B00/1813/0AFA             13446  1 2533.     CLRWC      SENSE 0,(TR)
 002B00 47FF 70DA            02B04 13464  1 2534.                B     *+4(R15)
 002B04 47F0 70EA            02B14 13465  1 2535.                B     CLRWC0                  DEFINED
 002B08 47F0 70F4            02B1E 13466  1 2536.                B     CLRWC1                  RESERVED BUT NOT DEFINED
 002B0C 4A30 74C8            02EF2 13467  1 2537.                AH    TR,=Y(4096)             NEXT PAGE
 002B10 47F0 70D0            02AFA 13468  1 2538.                B     CLRWC
                                   13469  1 2539.
 002B14 4100 0014            00014 13470  1 2540.     CLRWC0     VSET  20,(1),X'FFF'           INSURE UNPROTECTED PAGE
 002B18 41F0 0FFF/0AFB       00FFF 13489  1          +
 002B1E 4100 000F            0000F 13496  1 2541.     CLRWC1     VSET  15,(1),X'FFF'           RELEASE PAGE
 002B22 41F0 0FFF/0AFB       00FFF 13515  1          +
 002B28 4A30 74C8            02EF2 13522  1 2542.                AH    TR,=Y(4096)
 002B2C 4620 70D0            02AFA 13523  1 2543.                BCT   SR,CLRWC
 002B30                            13524  1 2544.     CLRWC2     LABEL ,                       WORK CORE RELEASED
 002B30 58F0 A000            00000 13526  1 2545.                L     R15,CLWSCP
 USING  SCP,R15                    13527  1 2546.                WITH  (SCP,R15),BEGIN
 002B34 D201 F1F8 A024 001F8 00024 13541  2 2547.                  MVC   SCPRESRV,CLWUPRSV
 002B3A D203 F1F4 A01C 001F4 0001C 13542  2 2548.                  MVC   SCPRRSEG,CLWUPST
 DROP   SCP,R15                    13543  1 2549.                END   ,
 002B40                            13551    2550.              END   ,
                                   13557    2551.
 002B40 4100 0019/0AFA       00019 13558    2552.              SENSE 25                      GET STATS
 002B46 5B10 A244            00244 13577    2553.              S     R1,CLWPCUSE             CPU TIME
 002B4A 5010 803C            0003C 13578    2554.              ST    R1,SMFICCPU
 002B4E 5B00 A240            00240 13579    2555.              S     R0,CLWPIOS              I/O COUNT
 002B52 5000 8044            00044 13580    2556.              ST    R0,SMFICIO
 002B56 5BF0 A23C            0023C 13581    2557.              S     R15,CLWPCVM             VM CHARGES
 002B5A 50F0 8040            00040 13582    2558.              ST    R15,SMFICVM
 002B5E 5BE0 A238            00238 13583    2559.              S     R14,CLWPELT
 002B62 8CE0 0020            00020 13584    2560.              SRDL  R14,32                  SHIFT UP
 002B66 5DE0 74AE            02ED8 13585    2561.              D     R14,=A(384)             TO .01 SECONDS
 002B6A 50F0 8048            00048 13586    2562.              ST    R15,SMFICELT
 002B6E D207 804C A248 0004C 00248 13587    2563.              MVC   SMFIPROG,CLWPROGN       PROGRAM NAME
 002B74 41E0 00AE            000AE 13588    2564.              CLPSERV PUTSMF,SMFICCPU,SMFILEN,SMFISTAT
1VPM      (VPM00) (09:49) (22MAR04) ORVYL'S PROGRAM CLEANUP ROUTINE                                                         Page  117
0Current Usings:  (BASE+4096,R6) (*,R7) (WAPM,R8) (CLW,R10) (LNKPAGE,R11) (GPW,R12)
0Loc    Object Code    Addr1 Addr2  Stmt Lv Lineno    Source Statement           (Hibal 5, Asmedit 3.3)  HLASM R4.0  2004/03/22 09.49
+___    ______ ____    _____ _____  ____ __ ______    ______ _________
0002B78 41F0 0018            00018 13602             +
 002B7C 4110 803C            0003C 13609             +
 002B80 4100 0054/0AED       00054 13616             +
 002B86 4100 0018            00018 13618    2565.              VSET  24,CLPPNAM,L'CLPPNAM    REPLACE CLP'S NAME
 002B8A 4110 7476            02EA0 13632             +
 002B8E 41F0 0005/0AFB       00005 13639             +
                                   13646    2566.
 002B94 9160 A209      00209       13647    2567.     CLRPCORE IF    (CLWPFPL+CLWPFPIC,Z),CUEXIT   LOADING OR EXECUTING?
 002B98 4780 724C            02C76 13665             +
 002B9C                            13671    2568.              CLEAR CLWEVCNT
 002B9C D703 A26C A26C 0026C 0026C 13677             +
 002BA2                            13678    2569.              CLEAR (CLWEVHST,64)
 002BA2 D73F A310 A310 00310 00310 13684             +
 002BA8 5890 74B2/0D99       02EDC 13685    2570.              VCALL CLEANTRP                CLEAR ALL TRAPS
 002BAE 4100 0011/1B11       00011 13689    2571.              VSET  17,0                    UNCONDITIONAL EVENT CLEAR
 002BB4 0AFB                       13708             +
 002BB6 4100 0012/1B11       00012 13710    2572.              VSET  18,0                    UNCONDITIONAL MONITOR CLEAR
 002BBC 0AFB                       13729             +
 002BBE 4100 007C/0AED       0007C 13731    2573.              CLPSERV CLRSSYM               Clear all symbol references
 002BC4 9101 A209      00209       13740    2574.              IF    ~CLWPFSHR,BEGIN          CLEARING SHARED PROGRAM?
 002BC8 4710 71CC            02BF6 13750             +
 002BCC 58F0 A000            00000 13755  1 2575.                L     R15,CLWSCP              GET SCP POINTER
 002BD0 48F0 F1F8/12FF       001F8 13756  1 2576.                WITH  (SCP,R15),'LTH R15,SCPRESRV'      CORE ALLOCATED
 USING  SCP,R15
 DROP   SCP,R15
 002BD6 4780 71CC            02BF6 13783  1 2577.                IF    NZ,BEGIN
 002BDA 4100 0014            00014 13794  2 2578.                  VSET  20,L:LCBCORE,L:LCBCLEN  UNPROTECT TO PAGES
 002BDE 5810 B000            00000 13806  2          +
 002BE2 58F0 B004/0AFB       00004 13811  2          +
 002BE8 4100 000F            0000F 13818  2 2579.                  VSET  15,L:LCBCORE,L:LCBCLEN  DISCARD PROGRAM CORE
 002BEC 5810 B000            00000 13830  2          +
 002BF0 58F0 B004/0AFB       00004 13835  2          +
 002BF6                            13842  1 2580.                END   ,
 002BF6 71D0           02BF6 02BCA 13846    2581.              END   ELSE,BEGIN
 002BF6 47F0 7206            02C30 13855             +
 002BFA 9140 A209      00209       13861  1 2582.                IF    CLWPFPL,BEGIN
 002BFE 47E0 71DC            02C06 13871  1          +
 002C02 47F0 7200            02C2A 13876  2 2583.                  B   DETSPB                    FREE UP SPB
 002C06                            13877  1 2584.                END   ,
 002C06 9110 B1CE      001CE       13881  1 2585.                IF    ~LNKFSPNQ,BEGIN         ENQUEUE SPB
 002C0A 4710 7200            02C2A 13891  1          +
 002C0E 4100 0016/1B11       00016 13896  2 2586.                  VSET  22                      CLEAR ANY USER ENQUEUE
 002C14 0AFB                       13915  2          +
 002C16 4110 74E3            02F0D 13917  2 2587.                  SETMSG 'SPB LOADING STUFF'
 002C1A 4100 0011            00011 13920  2          +
 002C1E 4100 0015/18F0       00015 13921  2 2588.                  VSET  21,(1),(0)              DO ENQUEUE
 002C24 0AFB                       13944  2          +
 002C26 9610 B1CE      001CE       13946  2 2589.                  SET   LNKFSPNQ                WE NOW HOLD THE LOCK
 002C2A                            13952  1 2590.                END   ,
 002C2A 4100 0018/0AED       00018 13956  1 2591.     DETSPB     CLPSERV DETSPB                DETACH FROM SPB
 002C30                            13966    2592.              END   ,
 002C30 94EF B1CE      001CE       13970    2593.              CLEAR LNKFSPNQ
 002C34 4100 0016/1B11       00016 13977    2594.              VSET  22                      DEQUEUE
 002C3A 0AFB                       13996             +
1VPM      (VPM00) (09:49) (22MAR04) ORVYL'S PROGRAM CLEANUP ROUTINE                                                         Page  118
0Current Usings:  (BASE+4096,R6) (*,R7) (WAPM,R8) (CLW,R10) (LNKPAGE,R11) (GPW,R12)
0Loc    Object Code    Addr1 Addr2  Stmt Lv Lineno    Source Statement           (Hibal 5, Asmedit 3.3)  HLASM R4.0  2004/03/22 09.49
+___    ______ ____    _____ _____  ____ __ ______    ______ _________
0002C3C                            13998    2595.              CLEAR LCBCORE
 002C3C D703 B000 B000 00000 00000 14004             +
 002C42 949A A209      00209       14005    2596.              CLEAR CLWPFPL+CLWPFPIC+CLWPFPRV+CLWPFSHR
 002C46 58F0 B00C/12FF       0000C 14024    2597.              LT    R15,LCBMPLEN            ANY MAP (NOT IF SHARED)
 002C4C 4780 723C            02C66 14028    2598.              IF    NZER,BEGIN             YES
 002C50 5810 B008/1211       00008 14039  1 2599.                LT    R1,LCBMAP               MAP ALLOCATED
 002C56 4780 723C            02C66 14043  1 2600.                IF    NZ,BEGIN                YES
 002C5A 5890 74B6/0D99       02EE0 14054  2 2601.                  FREECLW (1),(15)              DISCARD MAP
 002C60                            14069  2 2602.                  CLEAR LCBMAP
 002C60 D703 B008 B008 00008 00008 14075  2          +
 002C66                            14076  1 2603.                END  ,
 002C66                            14080    2604.              END   ,
 002C66 9601 B1CE      001CE       14084    2605.              SET   LNKFFREE                FREE LINK PAGE ON EXIT
 002C6A                            14090    2606.              CLEAR (LNKANAM,L'LNKANAM+L'LNKEP)         MISCELLANEOUS
 002C6A D70F B100 B100 00100 00100 14096             +
 002C70                            14097    2607.              CLEAR (LNKZPTRS,8+L'LNKZBASE)                   FIELDS
 002C70 D70B B1D4 B1D4 001D4 001D4 14103             +
 002C76 18D8/9829 D000       00000 14104    2608.     CUEXIT   VEXIT SR,RAR
 002C7C 07F9                       14108             +
1VPM      (VPM00) (09:49) (22MAR04) ORVYL'S PROGRAM CLEANUP ROUTINE                                                         Page  119
0Current Usings:  (BASE+4096,R6) (*,R7) (WAPM,R8) (CLW,R10) (LNKPAGE,R11) (GPW,R12)
0Loc    Object Code    Addr1 Addr2  Stmt Lv Lineno    Source Statement           (Hibal 5, Asmedit 3.3)  HLASM R4.0  2004/03/22 09.49
+___    ______ ____    _____ _____  ____ __ ______    ______ _________
0                                  14110    2610.     * ROUTINE TO CLEAR LINK PAGE
                                   14111    2611.     *        - THIS ROUTINE HAS NO BASE REGISTER
                                   14112    2612.     *        - ASSUMES THAT LCBR => LINK PAGE
                                   14113    2613.     *
                                   14114    2614.              ENTRY CLRLP
 002C7E 9023 D000            00000 14115    2615.     CLRLP    VPUSH SR,TR,*                 SAVE WORK REGISTERS
 002C82 41D0 D008            00008 14117             +
 002C86 180B                       14118    2616.              LR    R0,LCBR
 002C88 4110 0FFF            00FFF 14119    2617.              LA    R1,L'LNKPAGE-1
 002C8C 1B33                       14120    2618.              SR    TR,TR
 002C8E 0E02                       14121    2619.              MVCL  R0,SR
 002C90 0D30                       14122    2620.              BASR  TR,0
 USING  *,R3                       14123    2621.              USING *,TR                    FOR LITERAL ADDRESSING
 002C92 9621 B1CE      001CE       14133    2622.              SET   LNKFTYPD+LNKFFREE        ALLOW PARM CARD
 002C96 4120 B200            00200 14142    2623.              LA    SR,LNKSTACK
 002C9A 5020 B388            00388 14143    2624.              ST    SR,LNKSTKP              SET UP FIRST STACK ENTRY
 002C9E 9201 B1E5      001E5       14144    2625.              MVI   LNKFID,1                TERMINAL IS STACK BOTTOM
 002CA2 9680 B1E6      001E6       14145    2626.              SET   LNKSFTER
 002CA6 D202 B1E7 A3B3 001E7 003B3 14151    2627.              MVC   LNKUSER,CLWUSER
 002CAC D201 B1EA A3B0 001EA 003B0 14152    2628.              MVC   LNKGRP,CLWGROUP
 002CB2 50A0 B1E0            001E0 14153    2629.              ST    CLWR,LNKCLW
 002CB6 4BD0 3262            02EF4 14154    2630.              VPOP  SR,TR,*                 RESTORE
 002CBA 9823 D000            00000 14156             +
 002CBE 07F9                       14157    2631.              BR    RAR                     RETURN
 DROP   *,R3                       14158    2632.              DROP  TR                      ##
1VPM      (VPM00) (09:49) (22MAR04) ORVYL'S PROGRAM CLEANUP ROUTINE                                                         Page  120
0Current Usings:  (BASE+4096,R6) (*,R7) (WAPM,R8) (CLW,R10) (LNKPAGE,R11) (GPW,R12)
0Loc    Object Code    Addr1 Addr2  Stmt Lv Lineno    Source Statement           (Hibal 5, Asmedit 3.3)  HLASM R4.0  2004/03/22 09.49
+___    ______ ____    _____ _____  ____ __ ______    ______ _________
0                                  14166    2634.     *
                                   14167    2635.     * FETCH NEXT LINE
                                   14168    2636.     *
                                   14169    2637.              ENTRY GETLINE
 002CC0 9079 D000            00000 14170    2638.     GETLINE  VPUSH BR,RAR,*                SAVE BASE AND RETURN
 002CC4 41D0 D00C            0000C 14172             +
 002CC8 0D70                       14173    2639.              BASE  BR                      NEW ADDRESSABILITY
 DROP   *,R7
 USING  *,R7
 002CCA 9104 B1CE      001CE       14190    2640.              IF    LNKFREDO,GLGOT          RE-DO LAST STATEMENT?
 002CCE 4710 708A            02D54 14202             +
 002CD2 9120 B1E6      001E6       14208    2641.              IF    LNKSFRRB,GLREFRSH       RE-READ BUFFER?
 002CD6 4710 70DE            02DA8 14220             +
 002CDA 4820 B1F4            001F4 14226    2642.     GL1      LH    SR,LNKBO                BUFFER OFFSET
 002CDE 4920 B1F6            001F6 14227    2643.              CH    SR,LNKBL                BUFFER LENGTH
 002CE2 47B0 709C            02D66 14228    2644.              BNL   GLFNEW
                                   14229    2645.
 002CE6 5830 C03C            0003C 14230    2646.              L     TR,GPWDATAD             BUFFER START
 002CEA 9140 B1E6      001E6       14231    2647.              IF    LNKSFED,GLEDIT          EDIT?
 002CEE 4710 7062            02D2C 14243             +
 002CF2 1E32                       14249    2648.              ALR   TR,SR                   POINT TO TEXT
 002CF4 D24F B115 3000 00115 00000 14250    2649.              MVC   LNKCOM(80),@TR          MOVE IN LINE
 002CFA 4130 0050            00050 14251    2650.              LA    TR,80                   LENGTH
 002CFE 4110 B164            00164 14252    2651.              LA    R1,LNKCOM+79            LAST CHAR
 002D02 9540 1000      00000       14253    2652.     GL3      CLI   @R1,C' '                TRAILING BLANK?
 002D06 4770 7046            02D10 14254    2653.              BNE   GL4
 002D0A 0610                       14255    2654.              DECR  R1
 002D0C 4630 7038            02D02 14257    2655.              BCT   TR,GL3
 002D10 4030 B110            00110 14258    2656.     GL4      STH   TR,LNKCOML
 002D14 4120 2050            00050 14259    2657.              LA    SR,@SR+80
 002D18 4020 B1F4            001F4 14260    2658.              STH   SR,LNKBO                OFFSET OF NEXT LINE
 002D1C 4120 03E8            003E8 14261    2659.              LA    SR,1000                 UP LINE NUMBER FOR DIAGNOSTICS
 002D20 5A20 B1F0            001F0 14262    2660.              A     SR,LNKLN
 002D24 5020 B1F0            001F0 14263    2661.              ST    SR,LNKLN
                                   14264    2662.
 002D28 47F0 708A            02D54 14265    2663.              B     GLGOT
                                   14266    2664.
 002D2C 41F0 B115            00115 14267    2665.     GLEDIT   UNPRS LNKCOM,@TR(SR)
 002D30 4112 3000            00000 14281             +
 002D34 5890 721A/0D99       02EE4 14284             +
 002D3A 4770 6CBA            01D50 14287    2666.              BNZ   BADFORM
 002D3E 4000 B110            00110 14288    2667.              STH   R0,LNKCOML              LENGTH
 002D42 1B13                       14289    2668.              SR    R1,TR                   NEW BUFFER OFFSET
 002D44 4910 B1F6            001F6 14290    2669.              CH    R1,LNKBL                GOOD COMPARE WITH BUFF END?
 002D48 4720 6CBA            01D50 14291    2670.              BH    BADFORM                 NO
 002D4C 4010 B1F4            001F4 14292    2671.              STH   R1,LNKBO                NEW LINE OFFSET
 002D50 50E0 B1F0            001F0 14293    2672.              ST    R14,LNKLN               SAVE LINE NUMBER
 002D54 1BFF                       14294    2673.     GLGOT    CLEAR R15                     SET CC
 002D56 94DB B1CE      001CE       14299    2674.              CLEAR LNKFREDO+LNKFTYPD
 002D5A 4110 B115            00115 14309    2675.              LA    R1,LNKCOM
 002D5E 4800 B110            00110 14310    2676.              LH    R0,LNKCOML              STATEMENT ADDRESS AND LENGTH
 002D62 47F0 7180            02E4A 14311    2677.              B     GLEXIT
                                   14312    2678.
 002D66 9501 B1E5      001E5       14313    2679.     GLFNEW   CLI   LNKFID,1                IF ACTIVE FILE THEN READ FROM
1VPM      (VPM00) (09:49) (22MAR04) ORVYL'S PROGRAM CLEANUP ROUTINE                                                         Page  121
0Current Usings:  (BASE+4096,R6) (*,R7) (WAPM,R8) (CLW,R10) (LNKPAGE,R11) (GPW,R12)
0Loc    Object Code    Addr1 Addr2  Stmt Lv Lineno    Source Statement           (Hibal 5, Asmedit 3.3)  HLASM R4.0  2004/03/22 09.49
+___    ______ ____    _____ _____  ____ __ ______    ______ _________
0002D6A 4780 70FE            02DC8 14314    2680.              BE    GETAFBUF                CURRENT LINE NUMBER
 002D6E                            14315    2681.              CLEAR LNKBO
 002D6E D701 B1F4 B1F4 001F4 001F4 14321             +
 002D74 D201 C08C B1E4 0008C 001E4 14322    2682.     GLFREF   MVC   GPWPFFL(2),LNKPFFL      SET PROCESSING AND FILE ID
 002D7A D203 C0C0 B1EC 000C0 001EC 14323    2683.              MVC   GPWBN,LNKBN             BLOCK NUMBER
 002D80 94F7 C001      00001       14324    2684.              CLEAR GPWFNSKP                CLEAR SKIP MODE
 002D84 9180 C0B8      000B8       14331    2685.              IF    GPWUILIB,'SET GPWFNSKP'
 002D88 47E0 70C6            02D90 14341             +
 002D8C 9608 C001      00001       14352             +
 002D90 4D90 6D26/0C08       01DBC 14357    2686.              FSCALL READ                   GET ANOTHER BLOCK
 002D96 D203 B1EC C0C0 001EC 000C0 14361    2687.              MVC   LNKBN,GPWBN             SAVE BLOCK #
 002D9C 4770 7140            02E0A 14362    2688.              BNZ   GLFEOF                  END OF FILE
 002DA0 4010 B1F6            001F6 14363    2689.              STH   R1,LNKBL                BLOCK LENGTH
 002DA4 47F0 7010            02CDA 14364    2690.              B     GL1
                                   14365    2691.
 002DA8 94DF B1E6      001E6       14366    2692.     GLREFRSH CLEAR LNKSFRRB
 002DAC 9501 B1E5      001E5       14374    2693.              CLI   LNKFID,1
 002DB0 4780 70FE            02DC8 14375    2694.              BE    GETAFBUF                TERMINAL OR WYLBUR
 002DB4 5800 B1EC/0600       001EC 14376    2695.              DECR  R0,LNKBN                BACK UP TO PREVIOUS
 002DBA 5000 B1EC            001EC 14380             +
 002DBE 4D90 6D26/0C20       01DBC 14381    2696.              FSCALL BSPACE                 YEAH
 002DC4 47F0 70AA            02D74 14385    2697.              B     GLFREF                  GET THE FILE BLOCK
 002DC8 9180 B1E6      001E6       14386    2698.     GETAFBUF IF    LNKSFTER,GLGONE         RETURN TO TERMINAL?
 002DCC 4710 717C            02E46 14399             +
 002DD0 4120 0001            00001 14405    2699.              INCR  SR,LNKLN                GET NEXT LINE NUMBER
 002DD4 5E20 B1F0            001F0 14409             +
 002DD8 5020 B1F0            001F0 14410             +
 002DDC 5020 C01C            0001C 14411    2700.              ST    SR,GPWFWDS              FIRST LINE NUMBER
 002DE0 D201 C034 722C 00034 02EF6 14412    2701.              MVC   GPWLREC(2),=AL2(0)      LRECL
 002DE6 D201 C036 722E 00036 02EF8 14413    2702.              MVC   GPWRBL(2),=AL2(2048)    BUFF LEN
 002DEC D203 C018 721E 00018 02EE8 14414    2703.              MVC   GPWOPT(4),=AL2(3,0)
 002DF2 4D90 6D26/0C00       01DBC 14415    2704.              FSCALL READWDS
 002DF8 4770 716C            02E36 14419    2705.              BNZ   GLEOF                   END OF ACTIVE FILE
 002DFC 4010 B1F6            001F6 14420    2706.              STH   R1,LNKBL
 002E00                            14421    2707.              CLEAR LNKBO
 002E00 D701 B1F4 B1F4 001F4 001F4 14427             +
 002E06 47F0 7010            02CDA 14428    2708.              B     GL1
                                   14429    2709.
 002E0A                            14430    2710.     GLFEOF   LABEL ,            END OF FIL E - CHECK MULTIPLE
 002E0A 9110 8036      00036       14432    2711.              IF    WAUTOSLB,AUTOMEMS       OR
 002E0E 4710 7158            02E22 14444             +
 002E12 9102 C0B4      000B4       14450    2712.              IF    GPWLLIST,AUTOMEMS       OR
 002E16 4710 7158            02E22 14462             +
 002E1A 9108 C0B4      000B4       14468    2713.              IF    GPWLNXTM,BEGIN AUTOMEMS
 002E1E 47E0 7162            02E2C 14478             +
 002E22                            14483  1 2714.     AUTOMEMS     DS  0H                    AUTOCALL MEMBERS
 002E22 41F0 0004            00004 14484  1 2715.                  LA  R15,4                 SIGNIFY RETURN FOR
 002E26 13FF                       14485  1 2716.                  LCR R15,R15               MULTIPLE MEMBERS
 002E28 47F0 7180            02E4A 14486  1 2717.                  B   GLEXIT                DON'T POP STACK
 002E2C                            14487    2718.              END   ,
 002E2C 94BF C0B4      000B4       14491    2719.              CLEAR GPWLGOTD
 002E30 4D90 6D26/0020       01DBC 14498    2720.              FSCALL DETACH                 DETACH AFTER END OF FILE
 002E36                            14502    2721.     GLEOF    LABEL ,                       END OF FILE: POP STACK
 002E36 4D90 718C            02E56 14504    2722.              LCALL POPLNKST
1VPM      (VPM00) (09:49) (22MAR04) ORVYL'S PROGRAM CLEANUP ROUTINE                                                         Page  122
0Current Usings:  (BASE+4096,R6) (*,R7) (WAPM,R8) (CLW,R10) (LNKPAGE,R11) (GPW,R12)
0Loc    Object Code    Addr1 Addr2  Stmt Lv Lineno    Source Statement           (Hibal 5, Asmedit 3.3)  HLASM R4.0  2004/03/22 09.49
+___    ______ ____    _____ _____  ____ __ ______    ______ _________
0002E3A 9500 B1E5      001E5       14506    2723.              CLI   LNKFID,0                ANY ID?
 002E3E 4780 716C            02E36 14507    2724.              BE    GLEOF                   NO: SKIP ENTRY
 002E42 47F0 70DE            02DA8 14508    2725.              B     GLREFRSH                REFRESH BUFFER
                                   14509    2726.
 002E46 41F0 0004            00004 14510    2727.     GLGONE   LA    R15,4                   RETURN CODE
 002E4A 4BD0 7230            02EFA 14511    2728.     GLEXIT   VPOP  BR,RAR,*
 002E4E 9879 D000            00000 14513             +
 002E52 12FF                       14514    2729.              LTR   R15,R15                 SET CC
 002E54 07F9                       14515    2730.              BR    RAR
1VPM      (VPM00) (09:49) (22MAR04) ORVYL'S PROGRAM CLEANUP ROUTINE                                                         Page  123
0Current Usings:  (BASE+4096,R6) (*,R7) (WAPM,R8) (CLW,R10) (LNKPAGE,R11) (GPW,R12)
0Loc    Object Code    Addr1 Addr2  Stmt Lv Lineno    Source Statement           (Hibal 5, Asmedit 3.3)  HLASM R4.0  2004/03/22 09.49
+___    ______ ____    _____ _____  ____ __ ______    ______ _________
0                                  14517    2732.              ENTRY POPLNKST
 002E56                            14518    2733.     POPLNKST LABEL ,
 002E56 9079 D000            00000 14520    2734.              VPUSH BR,RAR,*
 002E5A 41D0 D00C            0000C 14522             +
 002E5E 0D70                       14523    2735.              BASE  BR                      NEW ADDRESSABILITY
 DROP   *,R7
 USING  *,R7
 002E60                            14540    2736.              CLEAR LNKCOML                 NO 'LAST' COMMAND
 002E60 D701 B110 B110 00110 00110 14546             +
 002E66 5820 B388            00388 14547    2737.              L     SR,LNKSTKP              GET POINTER
 002E6A 5F20 708C            02EEC 14548    2738.              SL    SR,=A(L'LSE)
 002E6E 5020 B388            00388 14549    2739.              ST    SR,LNKSTKP
 002E72 D21B B1E4 2000 001E4 00000 14550    2740.              MVC   LSE,@SR                 GET STACK TOP
 002E78 D201 C08C B1E4 0008C 001E4 14551    2741.              MVC   GPWPFFL(2),LNKPFFL      RESET PROCESSING AND FILEID
 002E7E D204 C013 B1E7 00013 001E7 14552    2742.              MVC   GPWSACCT,LNKACCT
 002E84 D203 C0C0 B1EC 000C0 001EC 14553    2743.              MVC   GPWBN,LNKBN
 002E8A D203 C0B8 B1FC 000B8 001FC 14554    2744.              MVC   GPWUINFO,LNKUINFO
 002E90 D203 C0AC B1F8 000AC 001F8 14555    2745.              MVC   GPWLMLBN,LNKLMLBN
 002E96 4BD0 709A            02EFA 14556    2746.              VPOP  BR,RAR,*
 002E9A 9879 D000            00000 14558             +
 002E9E 07F9                       14559    2747.              BR    RAR
1VPM      (VPM00) (09:49) (22MAR04) ORVYL'S PROGRAM CLEANUP ROUTINE                                                         Page  124
0Current Usings:  (BASE+4096,R6) (*,R7) (WAPM,R8) (CLW,R10) (LNKPAGE,R11) (GPW,R12)
0Loc    Object Code    Addr1 Addr2  Stmt Lv Lineno    Source Statement           (Hibal 5, Asmedit 3.3)  HLASM R4.0  2004/03/22 09.49
+___    ______ ____    _____ _____  ____ __ ______    ______ _________
0                                  14561    2749.     *
 002EA0 4040C3D3D7                 14562    2750.     CLPPNAM  DC    C'  CLP'
 002EA8                            14563    2751.              LTORG
 002EA8 0000000000000000           14565                             =D'0'
 002EB0 00001096                   14566                             =A(BASE+4096)
 002EB4 00000004                   14567                             =A(4)
 002EB8 00000000                   14568                             =V(VSEG)
 002EBC 00000000                   14569                             =V(PLCOFERR)
 002EC0 00000000                   14570                             =V(TYPEIT)
 002EC4 00000043                   14571                             =A(67)
 002EC8 00000000                   14572                             =V(BTR)
 002ECC 00000000                   14573                             =V(STOPMON)
 002ED0 00000000                   14574                             =V(CLRIDTS)
 002ED4 00000000                   14575                             =V(CLRENQS)
 002ED8 00000180                   14576                             =A(384)
 002EDC 00000000                   14577                             =V(CLEANTRP)
 002EE0 00000000                   14578                             =V(FREECLW)
 002EE4 00000000                   14579                             =V(UNPRS)
 002EE8 00030000                   14580                             =AL2(3,0)
 002EEC 0000001C                   14581                             =A(L'LSE)
 002EF0 0004                       14582                             =Y(4)
 002EF2 1000                       14583                             =Y(4096)
 002EF4 0008                       14584                             =Y((TR+1-(SR)+16*((SR)/(TR+1))/((SR)/(TR+1)))*4)
 002EF6 0000                       14585                             =AL2(0)
 002EF8 0800                       14586                             =AL2(2048)
 002EFA 000C                       14587                             =Y((RAR+1-(BR)+16*((BR)/(RAR+1))/((BR)/(RAR+1)))*4)
 002EFC 606E40                     14588                             =C'-> '
 002EFF 4B4B4B                     14589                             =C'...'
 002F02 C183A389A5854086           14590                             =C'Active file'
 002F0D E2D7C240D3D6C1C4           14591                             =C'SPB LOADING STUFF'
0002F20                02F20 02F20 14596    2753.              END   .

1VPM      (VPM00) (09:49) (22MAR04) Ordinary Symbol and Literal Cross Reference                                             Page  125
-Symbol   Length   Value     Id    R Type   Defn References                                  HLASM R4.0  2004/03/22 09.49
0$$$@R10       1 00000000 FFFFFFF4     J     836  1130
 $$$@R11       1 00000000 FFFFFFF3     J     849  1143
 $$$@R12       1 00000000 FFFFFFF2     J     862  1156
 $$$@R2        1 00000000 FFFFFFFC     J     732  1026
 $$$@R3        1 00000000 FFFFFFFB     J     745  1039
 $$$@R4        1 00000000 FFFFFFFA     J     758  1052
 $$$@R5        1 00000000 FFFFFFF9     J     771  1065
 $$$@R6        1 00000000 FFFFFFF8     J     784  1078
 $$$@R7        1 00000000 FFFFFFF7     J     797  1091
 $$$@R8        1 00000000 FFFFFFF6     J     810  1104
 $$$@R9        1 00000000 FFFFFFF5     J     823  1117
 $$$C1VPM      1 00001FC4 00000001     J   12222 12224
 $$$C2VPM      1 000028A0 00000001     J   12607 12609
 $$$C3VPM      1 00002F1E 00000001     J   14592 14594
 $$$C4VPM      1 00002F20 00000001     J   14599 14601
 $$$D0VPM      1 00001FA6 00000001     J     995  5702   5848   8441   8463  10333
 $$$RCLW       1 00000000 FFFFFFED     J    1544  1851   1851
 $$$RCSD       1 00000000 FFFFFFEC     J    1858  1927   1927
 $$$RLNKPAGE
               1 00000000 FFFFFFE6     J    2935  3387   3387
 $$$RSCP       1 00000000 FFFFFFEE     J    1199  1528   1528
 $$$RSPB       1 00000000 FFFFFFE7     J    2842  2929   2929
 $$$102F       2 000004D4 00000001     H    5027  5010B
 $$$107F       2 00000554 00000001     H    5180  5163B
 $$$110F       2 00000794 00000001     H    5673  5660B
 $$$111F       2 000007B2 00000001     H    5718  5687B
 $$$112        6 00001FA6 00000001     I    5708  5700X
 $$$113        6 00001FA6 00000001     I    5707  5708   5708
 $$$116F       2 0000082C 00000001     H    5864  5824B
 $$$117        6 00001FAC 00000001     I    5854  5846X
 $$$118        6 00001FAC 00000001     I    5853  5854   5854
 $$$123B       4 0000091E 00000001     I    6147  6355
 $$$123F       2 0000098C 00000001     H    6352  6147B  6354
 $$$125F       2 00000950 00000001     H    6255  6194B
 $$$126F       2 0000094C 00000001     H    6237  6222B
 $$$127F       2 0000098C 00000001     H    6348  6273B
 $$$129F       2 00000988 00000001     H    6343  6329B
 $$$130E       2 00000990 00000001     H    6362  6356
 $$$130F       2 000009D2 00000001     H    6480  6358B
 $$$131F       2 000009AA 00000001     H    6410  6374B
 $$$132F       2 000009A6 00000001     H    6405  6391B
 $$$133F       2 000009C6 00000001     H    6457  6421B
 $$$134F       2 000009C6 00000001     H    6453  6440B
 $$$136F       2 00000A62 00000001     H    6646  6492B
 $$$137F       2 00000A26 00000001     H    6583  6509B
 $$$138F       2 000009FE 00000001     H    6539  6524B
 $$$140F       2 00000A58 00000001     H    6626  6609B
 $$$142F       2 00000A78 00000001     H    6674  6659B
 $$$143F       2 00000A90 00000001     H    6712  6697B
 $$$144B       4 00000AD6 00000001     I    6806  6833
 $$$144F       2 00000AF4 00000001     H    6830  6806B  6832
 $$$145E       2 00000AF8 00000001     H    6840  6834
 $$$145F       2 00000B04 00000001     H    6847  6836B
 $$$146F       2 00000B32 00000001     H    6896  6878B
 $$$147F       2 00000B4A 00000001     H    6920  6908B
1VPM      (VPM00) (09:49) (22MAR04) Ordinary Symbol and Literal Cross Reference                                             Page  126
 $$$148B       4 00000B58 00000001     I    6941  6977
 $$$148F       2 00000B6E 00000001     H    6974  6941B  6976
 $$$149E       2 00000B72 00000001     H    6984  6978
 $$$149F       2 00000B90 00000001     H    7043  6980B
 $$$151F       2 00000B8A 00000001     H    7033  7016B
 $$$154B       4 00000BA6 00000001     I    7070  7089
 $$$154F       2 00000BAE 00000001     H    7086  7070B  7088
 $$$155E       2 00000BB2 00000001     H    7096  7090
 $$$155F       2 00000BCC 00000001     H    7148  7092B
 $$$156F       2 00000BC8 00000001     H    7138  7108B
 $$$158F       2 00000BFE 00000001     H    7201  7188B
 $$$159F       2 00000C24 00000001     H    7253  7210B
 $$$160F       2 00000C3E 00000001     H    7277  7267B
 $$$162F       2 00000C62 00000001     H    7317  7307B
 $$$163F       2 00000C6E 00000001     H    7338  7328B
 $$$164F       2 00000C7A 00000001     H    7359  7349B
 $$$165F       2 00000C86 00000001     H    7380  7370B
 $$$166F       2 00000C92 00000001     H    7401  7391B
 $$$168B       4 00000CDE 00000001     I    7490  7504
 $$$168F       2 00000CEA 00000001     H    7501  7490B  7503
 $$$169E       2 00000CEE 00000001     H    7511  7505
 $$$169F       2 00000CF6 00000001     H    7519  7507B
 $$$171F       2 00000DE8 00000001     H    7756  7740B
 $$$172F       2 00000DF4 00000001     H    7783  7767B
 $$$173F       2 00000E1C 00000001     H    7833  7813B
 $$$174F       2 00000E32 00000001     H    7882  7867B
 $$$175F       2 00000E44 00000001     H    7922  7902B
 $$$176F       2 00000E5A 00000001     H    7972  7957B
 $$$177F       2 00000EB4 00000001     H    8067  8057B
 $$$177T       2 00000EB0 00000001     H    8060  8046B
 $$$179        6 00001FB2 00000001     I    8447  8439X
 $$$180        6 00001FB2 00000001     I    8446  8447   8447
 $$$181        6 00001FB8 00000001     I    8469  8461X
 $$$182        6 00001FB8 00000001     I    8468  8469   8469
 $$$184F       2 00001096 00000001     H    8579  8563B
 $$$185F       2 00001116 00000001     H    8707  8647B
 $$$186F       2 00001116 00000001     H    8703  8664B
 $$$187F       2 0000112E 00000001     H    8746  8720B
 $$$188F       2 0000112E 00000001     H    8742  8732B
 $$$190F       2 00001176 00000001     H    8835  8818B
 $$$192F       2 00001190 00000001     H    8866  8856B
 $$$196F       2 0000126C 00000001     H    9167  9130B
 $$$197F       2 0000126C 00000001     H    9163  9148B
 $$$200F       2 000012CE 00000001     H    9290  9280B
 $$$202F       2 0000132E 00000001     H    9395  9380B
 $$$203F       2 0000133A 00000001     H    9418  9403B
 $$$205F       2 00001444 00000001     H    9591  9580B
 $$$206F       2 0000146C 00000001     H    9625  9615B
 $$$207F       2 00001488 00000001     H    9665  9634B
 $$$209F       2 000014B8 00000001     H    9731  9682B  9697B
 $$$211F       2 000014CE 00000001     H    9775  9743B
 $$$212B       4 000014D2 00000001     I    9786  9804
 $$$212F       2 000014DE 00000001     H    9801  9786B  9803
 $$$213E       2 000014E2 00000001     H    9811  9805
 $$$213F       2 000014E6 00000001     H    9824  9807B
 $$$214F       2 00001540 00000001     H    9968  9837B
 $$$215F       2 0000150E 00000001     H    9887  9872B
 $$$216B       4 00001512 00000001     I    9898  9916
 $$$216F       2 0000151E 00000001     H    9913  9898B  9915
1VPM      (VPM00) (09:49) (22MAR04) Ordinary Symbol and Literal Cross Reference                                             Page  127
 $$$217E       2 00001522 00000001     H    9923  9917
 $$$217F       2 00001526 00000001     H    9936  9919B
 $$$218F       2 00001572 00000001     H   10020  9994B
 $$$219B       4 00001576 00000001     I   10038 10051
 $$$219F       2 00001582 00000001     H   10048 10038B 10050
 $$$220E       2 00001586 00000001     H   10058 10052
 $$$220F       2 00001592 00000001     H   10066 10054B
 $$$221F       2 000015DC 00000001     H   10155 10145B
 $$$223F       2 00001620 00000001     H   10215 10205B
 $$$225F       2 00001674 00000001     H   10349 10320B
 $$$226        6 00001FBE 00000001     I   10339 10331X
 $$$227        6 00001FBE 00000001     I   10338 10339  10339
 $$$230F       2 00001744 00000001     H   10543 10509B
 $$$231F       2 00001756 00000001     H   10570 10555B
 $$$232F       2 00001766 00000001     H   10591 10581B
 $$$235F       2 000017D0 00000001     H   10718 10708B
 $$$244B       4 00001AAC 00000001     I   11384 11449
 $$$244F       2 00001AD8 00000001     H   11446 11384B 11448
 $$$245E       2 00001ADC 00000001     H   11456 11450
 $$$245F       2 00001B08 00000001     H   11494 11452B
 $$$247F       2 00001B5A 00000001     H   11570 11560B
 $$$254B       1 000028AC 00000001     X   12624 12634U
 $$$255B       4 000028CC 00000001     I   12673 12731
 $$$255F       2 000028E8 00000001     H   12728 12673B 12730
 $$$255T       2 000028D0 00000001     H   12676 12661B
 $$$257F       2 000028E0 00000001     H   12706 12696B
 $$$258E       2 000028EC 00000001     H   12738 12732
 $$$258F       2 000028EE 00000001     H   12745 12734B
 $$$259F       2 00002916 00000001     H   12821 12770B
 $$$259T       2 000028FE 00000001     H   12773 12760B
 $$$261F       2 00002916 00000001     H   12817 12801B
 $$$262F       2 0000292A 00000001     H   12846 12835B
 $$$263B       1 00002942 00000001     X   12869 12879U
 $$$264F       2 00002976 00000001     H   12923 12913B
 $$$265B       1 00002A2A 00000001     X   13094 13101U
 $$$266F       2 00002A38 00000001     H   13130 13117B
 $$$270F       2 00002B40 00000001     H   13556 13405B
 $$$271F       2 00002ADC 00000001     H   13408 13388B
 $$$275B       4 00002BC8 00000001     I   13750 13852
 $$$275F       2 00002BF6 00000001     H   13849 13750B 13851
 $$$276F       2 00002BF6 00000001     H   13845 13789B
 $$$277E       2 00002BFA 00000001     H   13859 13853
 $$$277F       2 00002C30 00000001     H   13969 13855B
 $$$278F       2 00002C06 00000001     H   13880 13871B
 $$$279F       2 00002C2A 00000001     H   13955 13891B
 $$$280F       2 00002C66 00000001     H   14083 14034B
 $$$281F       2 00002C66 00000001     H   14079 14049B
 $$$284B       1 00002C92 00000001     X   14124 14131U
 $$$285B       1 00002CCA 00000001     X   14178 14188U
 $$$289F       2 00002D90 00000001     H   14356 14341B
 $$$293F       2 00002E2C 00000001     H   14490 14478B
 $$$294B       1 00002E60 00000001     X   14528 14538U
 $$$68B        1 00000020 00000001     X    3640  3647U
 $$$69B        1 00000024 00000001     X    3651  3658U
 $$$76F        2 000001AE 00000001     H    4082  4022B
 $$$77F        2 000001AE 00000001     H    4078  4039B
 $$$80F        2 000001E0 00000001     H    4176  4163B
 $$$83F        2 000002DC 00000001     H    4437  4420B
 $$$85B        4 000002E6 00000001     I    4454  4550
1VPM      (VPM00) (09:49) (22MAR04) Ordinary Symbol and Literal Cross Reference                                             Page  128
 $$$85F        2 00000314 00000001     H    4547  4454B  4549
 $$$86F        2 000002FA 00000001     H    4488  4471B
 $$$88F        2 0000030A 00000001     H    4523  4506B
 $$$91E        2 00000318 00000001     H    4557  4551
 $$$91F        2 00000334 00000001     H    4622  4553B
 $$$95F        2 00000350 00000001     H    4676  4635B
 $$$98F        2 00000412 00000001     H    4822  4806B
 $$$99F        2 0000043C 00000001     H    4863  4844B
 #VPMA1M       1 00001FC4 00000001     R   12228  4277
 #VPMA1T      20 00001FC5 00000001     C   12229 12228
 #VPMA2M       1 00001FD9 00000001     R   12230  4768
 #VPMA2T      27 00001FDA 00000001     C   12231 12230
 #VPMA3M       1 00001FF5 00000001     R   12232  4773
 #VPMA3T      32 00001FF6 00000001     C   12233 12232
 #VPMA4M       1 00002016 00000001     R   12234  5031
 #VPMA4T       6 00002017 00000001     C   12235 12234
 #VPMA5M       1 0000201D 00000001     R   12236  5073
 #VPMA5T      25 0000201E 00000001     C   12237 12236
 #VPMA6M       1 00002037 00000001     R   12238  5251
 #VPMA6T      45 00002038 00000001     C   12239 12238
 #VPMA7M       1 00002065 00000001     R   12240  5256
 #VPMA7T      35 00002066 00000001     C   12241 12240
 #VPMA8M       1 00002089 00000001     R   12242  5280
 #VPMA8T      15 0000208A 00000001     C   12243 12242
 #VPMA9M       1 00002099 00000001     R   12244  5337
 #VPMA9T      26 0000209A 00000001     C   12245 12244
 #VPMB0M       1 000020B4 00000001     R   12246  5414
 #VPMB0T      32 000020B5 00000001     C   12247 12246
 #VPMB1M       1 000020D5 00000001     R   12248  5423
 #VPMB1T       7 000020D6 00000001     C   12249 12248
 #VPMB2M       1 000020DD 00000001     R   12250  5606
 #VPMB2T      47 000020DE 00000001     C   12251 12250
 #VPMB3M       1 0000210D 00000001     R   12252  5611
 #VPMB3T      43 0000210E 00000001     C   12253 12252
 #VPMB4M       1 00002139 00000001     R   12254  5616
 #VPMB4T      27 0000213A 00000001     C   12255 12254
 #VPMB5M       1 00002155 00000001     R   12256  5787
 #VPMB5T      33 00002156 00000001     C   12257 12256
 #VPMB6M       1 00002177 00000001     R   12258  6014
 #VPMB6T      35 00002178 00000001     C   12259 12258
 #VPMB7M       1 0000219B 00000001     R   12260  6313
 #VPMB7T       1 0000219C 00000001     C   12261 12260
 #VPMB8M       1 0000219D 00000001     R   12262  7496
 #VPMB8T      12 0000219E 00000001     C   12263 12262
 #VPMB9M       1 000021AA 00000001     R   12264  7514
 #VPMB9T       9 000021AB 00000001     C   12265 12264
 #VPMC0M       1 000021B4 00000001     R   12266  7789
 #VPMC0T      32 000021B5 00000001     C   12267 12266
 #VPMC1M       1 000021D5 00000001     R   12268  8294
 #VPMC1T      44 000021D6 00000001     C   12269 12268
 #VPMC2M       1 00002202 00000001     R   12270  8456
 #VPMC2T      16 00002203 00000001     C   12271 12270
 #VPMC3M       1 00002213 00000001     R   12272  8513
 #VPMC3T      14 00002214 00000001     C   12273 12272
 #VPMC4M       1 00002222 00000001     R   12274  8518
 #VPMC4T      24 00002223 00000001     C   12275 12274
 #VPMC5M       1 0000223B 00000001     R   12276  8523
 #VPMC5T      25 0000223C 00000001     C   12277 12276
 #VPMC6M       1 00002255 00000001     R   12278  8528
1VPM      (VPM00) (09:49) (22MAR04) Ordinary Symbol and Literal Cross Reference                                             Page  129
 #VPMC6T      24 00002256 00000001     C   12279 12278
 #VPMC7M       1 0000226E 00000001     R   12280 10430
 #VPMC7T      17 0000226F 00000001     C   12281 12280
 #VPMC8M       1 00002280 00000001     R   12282 10737
 #VPMC8T      15 00002281 00000001     C   12283 12282
 #VPMC9M       1 00002290 00000001     R   12284 10741
 #VPMC9T      11 00002291 00000001     C   12285 12284
 #VPMD0M       1 0000229C 00000001     R   12286 10745
 #VPMD0T      18 0000229D 00000001     C   12287 12286
 #VPMD1M       1 000022AF 00000001     R   12288 10749
 #VPMD1T      22 000022B0 00000001     C   12289 12288
 #VPMD2M       1 000022C6 00000001     R   12290 10771
 #VPMD2T      41 000022C7 00000001     C   12291 12290
 #VPMD3M       1 000022F0 00000001     R   12292 10995
 #VPMD3T      16 000022F1 00000001     C   12293 12292
 #VPMD4M       1 00002301 00000001     R   12294 11118
 #VPMD4T      38 00002302 00000001     C   12295 12294
 #VPMD5M       1 00002328 00000001     R   12296 11217
 #VPMD5T      19 00002329 00000001     C   12297 12296
 #VPMD6M       1 0000233C 00000001     R   12298 11590
 #VPMD6T      17 0000233D 00000001     C   12299 12298
 #VPMD7M       1 0000234E 00000001     R   12300 11595
 #VPMD7T      24 0000234F 00000001     C   12301 12300
 #VPMD8M       1 00002367 00000001     R   12302 11600
 #VPMD8T      20 00002368 00000001     C   12303 12302
 #VPMD9M       1 0000237C 00000001     R   12304 11643
 #VPMD9T      19 0000237D 00000001     C   12305 12304
 #VPME0M       1 00002390 00000001     R   12306 11702
 #VPME0T      24 00002391 00000001     C   12307 12306
 #VPME1M       1 000023A9 00000001     R   12308 11709
 #VPME1T      22 000023AA 00000001     C   12309 12308
 #VPME2M       1 000023C0 00000001     R   12310 11718
 #VPME2T      16 000023C1 00000001     C   12311 12310
 #VPME3M       1 000023D1 00000001     R   12312 11727
 #VPME3T      17 000023D2 00000001     C   12313 12312
 #VPME4M       1 000023E3 00000001     R   12314 11736
 #VPME4T      17 000023E4 00000001     C   12315 12314
 #VPME5M       1 000023F5 00000001     R   12316 11741
 #VPME5T      17 000023F6 00000001     C   12317 12316
 #VPME6M       1 00002407 00000001     R   12318 11751
 #VPME6T      15 00002408 00000001     C   12319 12318
 #VPME7M       1 00002417 00000001     R   12320 11756
 #VPME7T      28 00002418 00000001     C   12321 12320
 #VPME8M       1 00002434 00000001     R   12322 11839
 #VPME8T      16 00002435 00000001     C   12323 12322
 #VPME9M       1 00002445 00000001     R   12324 11844
 #VPME9T      15 00002446 00000001     C   12325 12324
 #VPMF0M       1 00002455 00000001     R   12326 11864
 #VPMF0T       9 00002456 00000001     C   12327 12326
 #VPMF1M       1 0000245F 00000001     R   12328 11929
 #VPMF1T      15 00002460 00000001     C   12329 12328
 #VPMF2M       1 0000246F 00000001     R   12330 11933
 #VPMF2T      20 00002470 00000001     C   12331 12330
 #VPMF3M       1 00002484 00000001     R   12332 11944
 #VPMF3T      10 00002485 00000001     C   12333 12332
 #VPMF4M       1 0000248F 00000001     R   12334 11948
 #VPMF4T      43 00002490 00000001     C   12335 12334
 #VPMF5M       1 000024BB 00000001     R   12336 11955
 #VPMF5T      21 000024BC 00000001     C   12337 12336
1VPM      (VPM00) (09:49) (22MAR04) Ordinary Symbol and Literal Cross Reference                                             Page  130
 #VPMF6M       1 000024D1 00000001     R   12338 11962
 #VPMF6T      20 000024D2 00000001     C   12339 12338
 #VPMF7M       1 000024E6 00000001     R   12340 11971
 #VPMF7T       7 000024E7 00000001     C   12341 12340
 #VPMF8M       1 000024EE 00000001     R   12342 11979
 #VPMF8T      29 000024EF 00000001     C   12343 12342
 #VPMF9M       1 0000250C 00000001     R   12344 11989
 #VPMF9T      16 0000250D 00000001     C   12345 12344
 #VPMG0M       1 0000251D 00000001     R   12346 11995
 #VPMG0T       9 0000251E 00000001     C   12347 12346
 #VPMG1M       1 00002527 00000001     R   12348 12016
 #VPMG1T       8 00002528 00000001     C   12349 12348
 #VPMG2M       1 00002530 00000001     R   12350 12020
 #VPMG2T       4 00002531 00000001     C   12351 12350
 #VPMG3M       1 00002535 00000001     R   12352 12030
 #VPMG3T       8 00002536 00000001     C   12353 12352
 #VPMG4M       1 0000253E 00000001     R   12354 12035
 #VPMG4T       7 0000253F 00000001     C   12355 12354
 @QR           0 00000000 FFFFFFFA     @    1053  8446   8468M
 @R0           0 00000000 FFFFFFFE     @     707   983U
 @R1           0 00000000 FFFFFFFD     @     720   979U  4259   4261   4263   4720   5294   5316   5349   5353   5410
                                                  5539   5853   6758U  6797   6883   7240U  7669   8305   8310   8446
                                                  8468   8605   9668   9985  10281  10310M 10311  10325M 10338M 10363M
                                                 10363  10469U 10946  10948  10968  11051  11053  11491U 11654  11656
                                                 11658  11660  11669  11675  12987  13343U 14253
 @R10          0 00000000 FFFFFFF4     @     837   943U
 @R11          0 00000000 FFFFFFF3     @     850   939U 13050U
 @R12          0 00000000 FFFFFFF2     @     863   935U
 @R13          0 00000000 FFFFFFF1     @     876   931U
 @R14          0 00000000 FFFFFFF0     @     889   927U  6243U  7558U  7620U 12960U
 @R15          0 00000000 FFFFFFEF     @     902   923U  4067U  5185   6261U  6481   6592   7246U  8029U  8692U 10105U
                                                 10196U 13417U 13549U 13781U
 @R2           0 00000000 FFFFFFFC     @     733   975U  5567U  5624U  5707   6010M  6591   7452U  9352U  9965U
 @R3           0 00000000 FFFFFFFB     @     746   971U  5707M 14163U
 @R4           0 00000000 FFFFFFFA     @     759   967U  4721U  9059U
 @R5           0 00000000 FFFFFFF9     @     772   963U
 @R6           0 00000000 FFFFFFF8     @     785   959U  3774U 11789U
 @R7           0 00000000 FFFFFFF7     @     798   955U  3763U 11783U 12631U 12876U 13043U 14185U 14535U
 @R8           0 00000000 FFFFFFF6     @     811   951U 11798U 13062U
 @R9           0 00000000 FFFFFFF5     @     824   947U
 @SR           0 00000000 FFFFFFFC     @    1027  4297M  4824   8967   9510  10350  10352M 10353M 10355  10958  10960
                                                 10962  10964  10966  10972M 12925M 12928  12943M 12946M 12983  12984M
                                                 12986  14259  14550
 @TR           0 00000000 FFFFFFFB     @    1040  7986  10852  12947  14250  14281
 ALIAS         2 000005B2 00000001     H    5288  5299B 12409
 AMODE24       2 00001D9C 00000001     H   12056  3795B  3862B  4990B  5064B  7177B  7649B  9292B  9341B  9482B  9601B
                                                  9939B 11482B 12643B
 AMODE31       2 00001D90 00000001     H   12044  4979B  7170B  7279B  9269B  9333B  9461B  9593B  9857B 11462B 12842B
 ATTN          2 000016D0 00000001     H   10439  3927B
 AUTOMEMS      2 00002E22 00000001     H   14483 14444B 14462B
 A24GO         2 00001DA2 00000001     H   12060 12057
 A31GO         2 00001D9A 00000001     H   12049 12045
 BADEDIT       4 00001D6C 00000001     I   12020 12009B
 BADFCOM       2 00001D84 00000001     H   12033 12018B 12028B
 BADFORM       4 00001D50 00000001     I   11995  4756B 14287B 14291B
 BADLDF        4 00001C0A 00000001     I   11715  9463B  9513B  9518B  9520B
 BADPV         4 000019D0 00000001     I   11118 11050B 11052B 11075B 12591
 BASE          1 00000096 00000001     U    3785  3766U  3777U 11810U 11818U 12132  12132  14566
 BR            7 00000007 00000001 A   #    1085  3649   3755M  3766U 11810U 11841B 11846B 11866B 11931B 11939B 11946B
1VPM      (VPM00) (09:49) (22MAR04) Ordinary Symbol and Literal Cross Reference                                             Page  131
                                                 11950B 11957B 11964B 11977B 11981B 11991B 12037B 14171  14172  14172
                                                 14172  14513M 14521  14522  14522  14522  14558M 14587  14587  14587
 BRR           6 00000006 00000001 A   #    1072  3649M  3658U  3755M  3777U  3779  11818U 12096M 12097B 12636M
 BTR           1 00000000 0000002E     T   14572 14572
 BTX           1 00000000 00000015     T   12160 12160
 CALATCH       2 00001156 00000001     H    8793  9053B
 CALL          2 0000109A 00000001     H    8589  3924B
 CALLDOLD      2 00001322 00000001     H    9372  9181B  9188B  9304B
 CALLLOAD      2 00001254 00000001     H    9121  8879B
 CALLLO8       2 00001318 00000001     H    9356  9241B
 CALLOK        4 000010C6 00000001     I    8612  8607B
 CALLOK2       2 00001142 00000001     H    8775  8738B
 CALLOK3       2 00001150 00000001     H    8785  8755B
 CALLPARM      6 0000021E 00000001     I    4265  4260B  4262B 12399
 CALLPAR1      4 00000206 00000001     I    4259 12401
 CALLPUB       2 0000124A 00000001     H    9110  8610B 12548
 CARDCHK       2 0000039E 00000001     H    4744  4711B  4726B
 CATCOMM       2 0000123C 00000001     I    9077 12533
 CATNAME       6 00001232 00000001     I    9068 12531
 CATNF         4 00001228 00000001     I    9064  8952B
 CATNOPRT      2 0000123C 00000001     H    9071 12535
 CATSCKWS      1 000027B6 00000001     R   12531 12179
 CATSPIRE      2 0000123E 00000001     H    9081 12537
 CATSPL        2 00001244 00000001     H    9095 12539
 CHANGE        2 000005FC 00000001     H    5345  5358B 12411
 CHEAP         4 00001C5E 00000001     I   11756  3946B  8609B
 CHKATTN       1 00000000 0000000E     T   12152 12152
 CHKSOK        4 0000192E 00000001     I   10966 10959B 10961B 10963B
 CHKSYMB       2 0000190A 00000001     I   10956 10905B
 CHKS1         4 0000190E 00000001     I   10958 10967B
 CKALIAS       2 000005D2 00000001     H    5303  5293B  6781B
 CKALIASL      2 000005D6 00000001     I    5305  5319B
 CLEANTRP      1 00000000 00000032     T   14577 14577
 CLEANUP       4 00002A1E 00000001     I   13086 13084
 CLEANUP       1 00000000 00000006     T   12140 12140
 CLPPNAM       5 00002EA0 00000001     C   14562 13632  13639
 CLRCALL       2 000019FC 00000001     H   11171  8632B
 CLRCALL1      2 00001A02 00000001     H   11194 11143B
 CLRCORE       4 00001A40 00000001     I   11269 11167B 11207B
 CLRCOR1       4 00001A48 00000001     I   11273 12594  12596  12598  12600  12602
 CLRENQS       1 00000000 00000031     T   14575 14575
 CLRIDTS       1 00000000 00000030     T   14574 14574
 CLRLINK       2 000019EA 00000001     H   11132  4000B
 CLRLP         4 00002C7E 00000001     I   14116 14114
 CLRLP         1 00000000 00000005     T   12139 12139
 CLRPCORE      2 00002B94 00000001     H   13649 13155B
 CLRSTACK      4 0000184A 00000001     I   10806  3798B  3909B
 CLRSTK1       2 00001854 00000001     H   10811 10854B
 CLRSTK3       4 0000186E 00000001     I   10849 10829B
 CLRSTK5       2 00001888 00000001     I   10858 10822B
 CLRWC         2 00002AFA 00000001     I   13450 13468B 13523B
 CLRWC0        4 00002B14 00000001     I   13477 13465B
 CLRWC1        4 00002B1E 00000001     I   13503 13466B
 CLRWC2        2 00002B30 00000001     H   13525 13439B
 CLW        1560 00000000 FFFFFFED     J    1851  3609U
 CLWACCT       6 000003B0 FFFFFFED     C    1837  1838   1839
 CLWDSP        1 00000214 FFFFFFED     X    1762 13276M
 CLWEVCNT      4 0000026C FFFFFFED     A    1789 10544M 10766M 10766  13677M 13677
 CLWEVHST      8 00000310 FFFFFFED     D    1830 13684M 13684
1VPM      (VPM00) (09:49) (22MAR04) Ordinary Symbol and Literal Cross Reference                                             Page  132
 CLWFCMD      64 00000207 FFFFFFED         1577 13283M
 CLWFL         1 00000207 FFFFFFED     R    1568  1572   1577   1582
 CLWFLG        1 00000208 FFFFFFED     R    1588  1592   1597   1602   1607   1612   1617   1622
 CLWFM31       2 00000208 FFFFFFED         1622  9797M  9820M  9909M  9932M 10790M
 CLWFTYPD    128 00000207 FFFFFFED         1572 10144
 CLWGROUP      2 000003B0 FFFFFFED     C    1839 14152
 CLWIBUF     235 0000002D FFFFFFED     C    1560  3669
 CLWIBUFL      1 000000EB FFFFFFEE A   U    1329  3669
 CLWIBUFN      2 00000028 FFFFFFED     H    1558  3668
 CLWKFL        1 000002AD FFFFFFED     X    1801  3945   8606
 CLWKFMP       1 00000040 FFFFFFED A   U    1804  3945   8606
 CLWKPROG      8 000002B3 FFFFFFED     C    1807  8608  11767
 CLWKWCB       4 000002C4 FFFFFFED     F    1813  1824   3970   4892   4911   5096   5242   5371   5733   5975   6055
                                                  6866   7724   8369   8404   8491   8625   8994   9010   9039   9564
                                                 10493  10896  10921  10939  11016  11045  11070  11093  11112  11242
                                                 11261
 CLWKWKW       8 000002C8 FFFFFFED     C    1815  9015   9068
 CLWKWVAL      4 000002C4 FFFFFFED     A    1814 10600  11122
 CLWLNKP       4 00000250 FFFFFFED     A    1780  3670   3728M  3796   3863
 CLWMFL        1 0000020A FFFFFFED     R    1673  1677   1682   1687   1692   1697   1702   1707   1712
 CLWMLMOD      4 00000224 FFFFFFED     F    1766 13334M
 CLWMNOL       4 0000020A FFFFFFED         1702 10566M
 CLWMONF       1 0000020B FFFFFFED     R    1718  1722   1727   1732   1737
 CLWNTRAP      1 00000008 FFFFFFED A   N    1795  1796
 CLWOBUF       2 00000118 FFFFFFED     H    1562  1564  11925M 11925
 CLWPCUSE      4 00000244 FFFFFFED     A    1777 10131M 13577
 CLWPCVM       4 0000023C FFFFFFED     A    1775 10129M 13581
 CLWPELT       4 00000238 FFFFFFED     A    1774 10128M 13583
 CLWPFL        1 00000209 FFFFFFED     R    1628  1632   1637   1642   1647   1652   1657   1662   1667
 CLWPFPAU      8 00000209 FFFFFFED         1652 10403M 10873M
 CLWPFPIC     32 00000209 FFFFFFED         1642  9317M  9981M 11140  11183  11183  11331  11580  11615  13115  13115
                                                 13152  13661  13661  14017  14017  14019  14019  14021  14021
 CLWPFPL      64 00000209 FFFFFFED         1637  7701   8562   9975M 11183  11183  11184  11313  11345M 11559  11633
                                                 13115  13115  13116  13661  13661  13662  13870  14017  14017  14018
                                                 14018  14020  14020  14023M
 CLWPFPRV      4 00000209 FFFFFFED         1657  9159M 10647  10682  14018  14018  14019  14019  14022  14022
 CLWPFRUN     16 00000209 FFFFFFED         1647 10379M 10597M
 CLWPFS        1 00000215 FFFFFFED     X    1763 13284M
 CLWPFSHR      1 00000209 FFFFFFED         1667  9263M  9681   9836  10037  11383  13387  13749  14020  14020  14021
                                                 14021  14022  14022
 CLWPFSUP    128 00000209 FFFFFFED         1632  3680   3734M  3849M
 CLWPIOS       4 00000240 FFFFFFED     A    1776 10130M 13579
 CLWPROGN      8 00000248 FFFFFFED     C    1779 10177M 10198  10211M 10230  13587
 CLWPSVC       2 00000210 FFFFFFED     H    1759 10533
 CLWQRET       4 00000358 FFFFFFED     F    1832  3779M
 CLWR         10 0000000A 00000001 A   #    1124  3609U 14153
 CLWSBGPR      4 00000370 FFFFFFED     F    1836 10188M 10188  10309M 10354M 10356M 10364M
 CLWSBPSW      8 00000368 FFFFFFED     D    1835  9339M  9666M  9791M  9903M  9937  10189M 10364  10587M 10874M 13320M
                                                 13320
 CLWSCP        4 00000000 FFFFFFED     A    1551  4044   6730   8001   8669  10070  10159  10442  13285  13362  13526
                                                 13755
 CLWSFL        1 0000020C FFFFFFED     R    1743  1747   1752
 CLWSPB        4 0000025C FFFFFFED     A    1783  9247M  9842  11463
 CLWSSP       64 0000020C FFFFFFED         1752 10707
 CLWTEMP       8 000002E8 FFFFFFED     D    1826  5479   5484M  7058M  7552M  7577  10968M 10969
 CLWTTRAP      5 000002A8 FFFFFFED     X    1797 10514M 10516  10531  10759M 10759
 CLWUPML       4 00000020 FFFFFFED     A    1555 13445
 CLWUPRSV      2 00000024 FFFFFFED     H    1556 10085M 13541
 CLWUPST       4 0000001C FFFFFFED     A    1554 10043  13402  13444  13542
1VPM      (VPM00) (09:49) (22MAR04) Ordinary Symbol and Literal Cross Reference                                             Page  133
 CLWUSER       3 000003B3 FFFFFFED     C    1838 14151
 CLWUWST       4 00000018 FFFFFFED     A    1553 10044M 10062M 10086  13443
 CLWWLMOD      4 00000228 FFFFFFED     F    1767 13333M 13345M
 COMMENT       4 00000626 00000001     I    5371 12413
 COMMTBL       1 000025BF 00000001     R   12409 12155
 CONTROL       4 0000051A 00000001     I    5085  4976B
 CONTROL1      2 00000574 00000001     H    5226  5177B
 CSD          24 00000000 FFFFFFEC     J    1927  5314U  7421U
 CSDADDR       4 0000000C FFFFFFEC     A    1878  7239
 CSDFDEF      64 00000014 FFFFFFEC         1895  5581
 CSDFL         1 00000014 FFFFFFEC     R    1886  1890   1895   1900   1905   1910
 CSDLINK       4 00000000 FFFFFFEC     A    1868  5318   7442
 CSDLNG        4 00000010 FFFFFFEC     A    1879  1882   1916   5601   5602M
 CSDNAME       8 00000004 FFFFFFEC     C    1869  5316   5570U  6159U  6221   7230U  7423
 CSDTYP        1 0000000C FFFFFFEC     X    1870  1877   6165
 CUEXIT        2 00002C76 00000001     I   14106 13665B
 DALINAM       8 00000008 FFFFFFE9     C    2802  2805
 DBLEP         4 0000065A 00000001     I    5414  5409B
 DENTRY        1 00000000 FFFFFFE9     J    2800  2821   6207U  7550U  7587U
 DENTSIZ       1 00000010 FFFFFFE9 A   U    2821  2830
 DETSPB        2 00002C2A 00000001     H   13957 13876B
 DFLG1         1 00000008 FFFFFFE9     X    2806  2816   2816   2820   2820
 DFL1M31       1 00000004 FFFFFFE9 A   U    2812  7376   9396
 DFL1PAG       1 00000001 FFFFFFE9 A   U    2813  7397
 DFL1PRV       1 00000008 FFFFFFE9 A   U    2811  7355   9129
 DFL1REF       1 00000010 FFFFFFE9 A   U    2810  7334   9373
 DFL1SHR       1 00000020 FFFFFFE9 A   U    2809  7313   9187
 DIRB          1 00000000 FFFFFFE8     J    2826  2831   2930   3388
 DLDEXIT       2 000013BE 00000001     H    9480  9476B  9535B
 DLDGO         4 000013A4 00000001     I    9472  9488B
 DLDLOOP       6 0000138E 00000001     I    9462  9489B  9541B
 DLDREC        2 000013CC 00000001     I    9487  9474B
 DLDTEXT       2 000013DA 00000001     H    9499  9475B
 DLDTEXT1      2 000013DE 00000001     I    9502  9522B
 DLDTXEOM      2 000013D6 00000001     H    9493  9477B
 DNAME         8 00000000 FFFFFFE9     C    2801  6221   7552   7599
 DOLOAD        4 0000136A 00000001     I    9442  4851B  9420B
 DOZAPREP      4 00001034 00000001     I    8461  8388
 DOZAPRE1      2 00001038 00000001     H    8477  8454B
 DOZAPVER      4 00001020 00000001     I    8439  8385
 DQSCAN        1 00000000 00000028     T   12202 12202
 DTB           1 00000000 0000001B     T   12174 12174
 DUPNAME       2 000005EC 00000001     H    5329  5317B
 DUPPARM       4 0000022E 00000001     I    4277  4266B
 EDITCHK       2 0000037C 00000001     I    4719  4725B
 EMPTY         4 00001C4C 00000001     I   11748  4691B
 ENTER         2 00001422 00000001     H    9547  3925B  8547B  9426B  9432B  9434B  9436B
 ENTRY         2 00000640 00000001     H    5404 12415
 ENTRYOPT      1 0000259E 00000001     R   12397 12562  12567
 ENTSHRD       2 00001572 00000001     H   10024  9346B
 ENTSHROK      2 0000169C 00000001     H   10366 10256B
 ERROR         2 00001CE6 00000001     H   11938  4279B  4770B  4775B  4988B  5075B  5253B  5258B  5282B  5300B  5339B
                                                  5359B  5416B  5608B  5613B  5618B  5789B  6016B  7175B  7286B  7674B
                                                  7791B  8296B  8316B  8430B  8458B  8515B  8520B  8525B  8530B  9451B
                                                  9478B  9599B 10432B 10660B 10695B 10767B 10773B 10997B 11120B 11370B
                                                 11523B 11592B 11597B 11602B 11645B 11704B 11711B 11720B 11729B 11738B
                                                 11743B 11753B 11776B
 EVAL          1 00000000 00000025     T   12192 12192
 EVHEX         1 00000000 0000001E     T   12177 12177
1VPM      (VPM00) (09:49) (22MAR04) Ordinary Symbol and Literal Cross Reference                                             Page  134
 EXECQ         2 00001B86 00000001     H   11607 10441B 10478B 10867B
 EXIT          2 0000183E 00000001     H   10783  3920B
 EXITSVC       2 000016B4 00000001     I   10408 10310
 EXLERR        4 0000074E 00000001     I    5606  5599B
 EXPAND        2 000006FC 00000001     H    5548 12417
 FILE          2 000002B2 00000001     H    4380  4328B
 FILEXIT       2 00001CA8 00000001     H   11868  3910B  5224B  5507B  5523B  5540B  8580B 10392B 10404B 10598B 10797B
                                                 10875B 11898B 11926B
 FREECLW       1 00000000 00000007     T   12141 12141  14578
 FSUB#COM      1 00000000 00000029     T   12204 12204
 GETAFBUF      2 00002DC8 00000001     H   14388 14314B 14375B
 GETCLW        1 00000000 00000002     T   12136 12136
 GETLINE       4 00002CC0 00000001     I   14171 14169
 GETLINE       1 00000000 0000000C     T   12149 12149
 GETPSYM       4 000018C8 00000001     I   10912  5351B  8308B
 GETPVAL       4 0000197A 00000001     I   11032  5595B
 GETSYMB       4 000018A0 00000001     I   10883  5290B  5347B  5406B  5537B  5550B  6778B  7667B  7676B  8303B  8335B
                                                  8597B
 GG            2 00000013 FFFFFFEB     C    2260  3351
 GLEDIT        4 00002D2C 00000001     I   14274 14243B
 GLEOF         2 00002E36 00000001     H   14503 14419B 14507B
 GLEXIT        4 00002E4A 00000001     I   14512 14311B 14486B
 GLFEOF        2 00002E0A 00000001     H   14431 14362B
 GLFNEW        4 00002D66 00000001     I   14313 14228B
 GLFREF        6 00002D74 00000001     I   14322 14385B
 GLGONE        4 00002E46 00000001     I   14510 14399B
 GLGOT         2 00002D54 00000001     H   14296 14202B 14265B
 GLREFRSH      2 00002DA8 00000001     H   14368 14220B 14508B
 GL1           4 00002CDA 00000001     I   14226 14364B 14428B
 GL3           4 00002D02 00000001     I   14253 14257B
 GL4           4 00002D10 00000001     I   14258 14254B
 GO            2 000016E0 00000001     H   10476  3926B
 GOCON         6 0000177A 00000001     I   10612 12579
 GOEVENT       4 0000176E 00000001     I   10600 12570
 GONOL         2 00001782 00000001     H   10623 12577
 GOOPTS        1 00002835 00000001     R   12570 12565  12584
 GOPRIV        2 00001832 00000001     H   10769 10650B 10685B
 GOSCAN        4 000016E4 00000001     I   10480 10471B 10669B 10734B
 GOSUB         2 00001DBC 00000001     H   12091  3782B  4161B  4171B  4348B  4356B  4390B  4394B  4442B  4528B  4689B
                                                  4854B  5634B  5658B  5668B  5832B  5875B  5932B  5955B  5959B  5983B
                                                  6035B  6039B  6063B  6428B  6595B  6631B  6651B  6813B  6821B  6825B
                                                  6929B  6969B  7038B  7062B  7115B  7167B  7196B  7404B  7438B  7478B
                                                  7522B  7540B  7627B  7636B  7653B  7657B  8782B  8788B  8802B  8840B
                                                  8844B  8888B  8938B  9019B  9023B  9047B  9051B  9064B  9137B  9199B
                                                  9320B  9344B  9359B  9423B  9466B  9516B  9951B 11715B 11724B 11733B
                                                 11748B 11871B 11968B 11975B 11986B 13348B 14359B 14383B 14417B 14500B
 GOTNKWR       1 00000000 0000002C     T   12366 12560
 GOTO          2 00001788 00000001     H   10637 12573
 GOTPV         4 000019DC 00000001     I   11122 12589
 GOTRAP        2 000017AA 00000001     H   10672 12575
 GPW       12288 00000000 FFFFFFEB     X    2789  3627U
 GPWAFILE    158 0000012C FFFFFFEB     X    2761  2779
 GPWALIAS     16 000000B4 FFFFFFEB         2390  8855
 GPWBLK        2 0000001A FFFFFFEB     R    2268  2269
 GPWBLKSZ      2 000000BC FFFFFFEB     R    2434  7256
 GPWBN         4 000000C0 FFFFFFEB     A    2435  4789   9446M  9462   9512  14323M 14361  14553M
 GPWBUFA       4 00000038 FFFFFFEB     A    2285  2287   7255   9469
 GPWDATAD      4 0000003C FFFFFFEB     A    2286  4705   4712  14230
 GPWFANW      32 00000001 FFFFFFEB         1983  6926M
1VPM      (VPM00) (09:49) (22MAR04) Ordinary Symbol and Literal Cross Reference                                             Page  135
 GPWFATT     128 0000008C FFFFFFEB         2317  4787M
 GPWFCB      158 0000008C FFFFFFEB     X    2756  2761   2779   3369   3370   6010   6065   6591M  6842M  6913   6916M
                                                 12209
 GPWFERS     128 00000003 FFFFFFEB         2047  6795M  7126
 GPWFFMT      16 0000008C FFFFFFEB         2332  6966M
 GPWFFN        4 00000054 FFFFFFEB     C    2295  9192
 GPWFHYBR      8 00000002 FFFFFFEB         2033  4431   6620   7027   8829
 GPWFID        1 0000008D FFFFFFEB     X    2351  3947   4792M
 GPWFILE       4 0000008C FFFFFFEB     F    2306  2756   2756   6010   6065   6799   6843
 GPWFILN      44 000000C4 FFFFFFEB     C    2437  2438   2439   2440   2441   4402M  4402   6843M  6843
 GPWFN        44 0000005F FFFFFFEB     C    2300  6843
 GPWFNEW      32 0000008C FFFFFFEB         2327  6940
 GPWFNIXR     16 00000002 FFFFFFEB         2028  4419   6608   7015   8817
 GPWFNL        1 0000008E FFFFFFEB     X    2352  4407M  6799   8737   8754
 GPWFNOE      64 00000001 FFFFFFEB         1978  8799M
 GPWFNSKP      8 00000001 FFFFFFEB         1993  4618M 14330M 14352M
 GPWFPUB       8 00000003 FFFFFFEB         2119  8765   9114M
 GPWFQIET      4 00000001 FFFFFFEB         1998  7467  11910
 GPWFVOSF      8 0000008C FFFFFFEB         2337  7266   8927
 GPWFWDS       4 0000001C FFFFFFEB     A    2270  2276   4350M 14411M
 GPWGFL        1 00000000 FFFFFFEB     R    1939  1943   1948   1953   1958   1963
 GPWGPFL       1 00000006 FFFFFFEB     R    2213  2217   2222   2227   2232   2237   2242   2247   2252
 GPWGPFLR     32 00000006 FFFFFFEB         2227  4752M 12027M
 GPWGPFV      64 00000006 FFFFFFEB         2222 12006
 GPWGRP        2 00000058 FFFFFFEB     C    2296  4795   8725
 GPWHXBUF   2048 00000800 FFFFFFEB     X    2787  8960   8982
 GPWKWFL       1 00000003 FFFFFFEB     R    2039  2047   2056   2065   2074   2083   2092   2101   2110   2119   2128
                                                  2137   2146   2155
 GPWLFLAG      1 000000B4 FFFFFFEB     R    2371  2375   2380   2385   2390   2395   2400   2405   2410
 GPWLGOTD     64 000000B4 FFFFFFEB         2380  5872M  5929M  7163M  7429M  7537M 14497M
 GPWLLIST      2 000000B4 FFFFFFEB         2405  4591   4651   5130   5648M  5686   5823  14459
 GPWLMBCT      4 000000A8 FFFFFFEB     A    2363  7056
 GPWLMFBN      4 000000A4 FFFFFFEB     A    2362  5692   5834   7056   7057M  7057   9446
 GPWLMF1       1 000000A0 FFFFFFEB     X    2359  2361   2361   2365   2365   7296M  7296   7313M  7334M  7355M  7376M
                                                  7397M  9129   9187   9373   9396
 GPWLMLBN      4 000000AC FFFFFFEB     A    2366  4790   7056   9462   9512  14555M
 GPWLMN        8 00000090 FFFFFFEB     C    2357  2364   2364   5841M  5853M  6481M  6592M  6797M  7058   7406   8605M
                                                  8608   9015   9068M  9191  10177
 GPWLMNL       1 0000008F FFFFFFEB     R    2356  4505   4571   5642M  5762   5839M  5912   6647M  6796M  9069M
 GPWLMN2       8 00000098 FFFFFFEB     C    2358  7423M  8862
 GPWLMSPC     28 00000090 FFFFFFEB     X    2364  6788M  6788
 GPWLNEWD     32 000000B4 FFFFFFEB         2385  6960M
 GPWLNXTM      8 000000B4 FFFFFFEB         2395  4517   4603   4663   5142   5776M 14477
 GPWLREC       2 00000034 FFFFFFEB     R    2281  4351M 14412M
 GPWLREP     128 000000B4 FFFFFFEB         2375  7154M  7435M
 GPWLWDS       4 00000020 FFFFFFEB     A    2271  2277
 GPWNXTAD      4 000000B0 FFFFFFEB     A    2367  5777M  7531M
 GPWOPT        2 00000018 FFFFFFEB     R    2267  4353M 14414M
 GPWOSFOK      2 00000001 FFFFFFEB         2003  3944M  5641M  5952M  8595M
 GPWPERM       1 00000005 FFFFFFEB     X    2204  2205   2206   2207   2208   2209
 GPWPFFL       1 0000008C FFFFFFEB     R    2313  2317   2322   2327   2332   2337   2342   2347   4788   4849M 14322M
                                                 14551M
 GPWPRFL       1 00000001 FFFFFFEB     R    1969  1973   1978   1983   1988   1993   1998   2003
 GPWPRFL2      1 00000002 FFFFFFEB     R    2009  2013   2018   2023   2028   2033
 GPWR         12 0000000C 00000001 A   #    1150  3627U
 GPWRBL        2 00000036 FFFFFFEB     R    2282  2283   4352M 14413M
 GPWSACCT      5 00000013 FFFFFFEB     U    2264  4295M  4374  14552M
 GPWSFFL       1 00000004 FFFFFFEB     R    2161  2165   2170   2175   2180   2185   2190   2195   2200
 GPWSTART      8 00000000 FFFFFFEB     D    1936  2782   2782   2785   2789   2789
1VPM      (VPM00) (09:49) (22MAR04) Ordinary Symbol and Literal Cross Reference                                             Page  136
 GPWSUSER      3 00000013 FFFFFFEB     C    2262  2264   2264
 GPWTST        1 000001D4 FFFFFFEB     U    2784  2786
 GPWUIFMT      1 000000B8 FFFFFFEB     R    2417  2418   2419   2420   2421   2422   2423   2424   2425   2426   2427
                                                  2428
 GPWUILDF     64 000000B8 FFFFFFEB         2419  4482   4634   4843   6953   6953   6995
 GPWUILIB    128 000000B8 FFFFFFEB         2418  4453   6953   6953   6954M 14340
 GPWUINFO      4 000000B8 FFFFFFEB     F    2416  4791  14554M
 GPWUSER       3 0000005B FFFFFFEB     C    2298  4794   8713
 GTERROR       2 00001822 00000001     H   10754 10739B 10743B 10747B 10751B
 GTILL         4 000017F2 00000001     I   10737 10524B 10527B 10720B 10725B
 GTNONE        4 0000180A 00000001     I   10745 10526B
 GTODD         4 000017FE 00000001     I   10741 10727B
 GTOK          2 0000172A 00000001     H   10530 10525B
 GTSVC         4 00001816 00000001     I   10749 10532B
 HIBAL         1 00000000 FFFFFFFF     J     692   708    721    734    747    760    773    786    799    812    825
                                                   838    851    864    877    890    903
 IGNORE        2 000005A2 00000001     H    5264 12419  12421  12425  12433  12435  12443
 ILLSTR        2 00001C7C 00000001     H   11831  3948B  3975B  4916B  5247B  5738B  5980B  6060B  6871B  7729B  8374B
                                                  8409B  8496B  8630B  9569B 10498B
 ILLSYMB       2 00001956 00000001     H   10987 10902B 10904B 10944B 10954B 10965B
 INCLDON       2 00000842 00000001     H    5901  5885B
 INCLDONE      2 0000084A 00000001     H    5922  5836B
 INCLNEST      4 0000058A 00000001     I    5251  5133B  5145B
 INCLNEXT      2 000007EC 00000001     H    5795  4871B  4968B
 INCLOPER      4 000007E0 00000001     I    5787  5765B
 INCLPDS       2 000007CC 00000001     H    5751 12462  12464  12466
 INCLUDE       2 00000772 00000001     H    5631 12423
 INVALMEM      4 00001D32 00000001     I   11979  5838B
 INVSYSL       4 00000596 00000001     I    5256  5113B
 KWCALL        1 000027ED 00000001     R   12548 12178
 KWENTER       1 0000282D 00000001     X   12565 12184
 KWFNOPT       1 00000000 0000002A     T   12364 12392  12470  12541  12550
 KWGO          1 00002868 00000001     X   12584 12188
 KWINCLUD      1 000026B7 00000001     R   12462 12161
 KWLINK        1 00002546 00000001     R   12370 12143
 LCBALIH       4 000000B0 FFFFFFE6     A    3107  5304   7050   7409
 LCBCI        80 00000014 FFFFFFE6     C    2956  4977M  5043   5294M  5349M  5353M  7669M  7680M  8305M  8306M  8310M
 LCBCLEN       4 00000004 FFFFFFE6     A    2952  5598   9670   9671M  9858  10060  11416M 11480M 13811  13835
 LCBCORE       4 00000000 FFFFFFE6     A    2951  5590   9337M  9594   9604   9703   9760  10061  11414M 11478M 13806
                                                 13830  14004M 14004
 LCBCSDLC      4 0000008C FFFFFFE6     A    3084  9984
 LCBEP         4 00000070 FFFFFFE6     A    3015  5456   7249M  9607
 LCBFL         1 0000007C FFFFFFE6     R    3020  3028   3037   3046   3055   3064   3073
 LCBFPAG       1 0000007C FFFFFFE6         3073  7390
 LCBIDRFL      4 00000064 FFFFFFE6     R    2957  2958
 LCBLC         4 00000078 FFFFFFE6     F    3017  5592   5597   5600M  9667   9765  11565M 11565
 LCBMAP        4 00000008 FFFFFFE6     A    2953  3082   9982  10000  11365M 11518M 14041  14075M 14075
 LCBMFL        1 000000E2 FFFFFFE6     R    3124  3128   3133   3138   3143   3148   3153
 LCBMOMTB      2 000000D0 FFFFFFE6     H    3117  7254M
 LCBMPLEN      4 0000000C FFFFFFE6     A    2954  4021M  4021   4027M  4038M  4038   4060M  8056M  8056   8063M  8646M
                                                  8646   8652M  8663M  8663   8685M  9329M  9983  10001M 11354  11359
                                                 11507  11512  14026
 LCBMXC        4 00000074 FFFFFFE6     F    3016 12695  12702M
 LCBR         11 0000000B 00000001 A   #    1137  3670M  3735M  3743U  3796M  3831   3863M 14118
 LCBRF         4 00000010 FFFFFFE6     A    2955  9594M
 LCBRLD        4 00000098 FFFFFFE6     A    3091  3095
 LCBSDEND      4 000000A0 FFFFFFE6     A    3098  3102
 LCBSTART      4 00000000 FFFFFFE6     F    2950  3156   3158   3158
 LCBXFFRT     32 00000064 FFFFFFE6         2987  8171M
1VPM      (VPM00) (09:49) (22MAR04) Ordinary Symbol and Literal Cross Reference                                             Page  137
 LCBXFL        1 00000064 FFFFFFE6     R    2961  2969   2978   2987   2996   3005   4001M  8633M
 LCBXFOSN    128 00000064 FFFFFFE6         2969  8127M  8149M 10253
 LCBXFURM      2 00000064 FFFFFFE6         3005  8192M
 LDALIAS       1 00000000 00000011     T   12156 12156
 LDBLOCK       4 00001B6E 00000001     I   11595 11298B 11544B
 LDCHANGE      1 00000000 00000012     T   12157 12157
 LDFDATA       2 00000D78 00000001     H    7647  7284B
 LDFIND        1 00000000 00000014     T   12159 12159
 LDFIX         1 00000000 00000022     T   12185 12185
 LDFLOOP       4 00000C2A 00000001     I    7255  7659B
 LDFLOO2       2 00000D3C 00000001     H    7579  7632B
 LDFLOO4       2 00000CA8 00000001     H    7413  7444B
 LDFLOO5       2 00000CC6 00000001     H    7446  7411B
 LDFQIET       2 00000D02 00000001     H    7530  7470B
 LDFTBL        1 000026D4 00000001     X   12470 12163
 LDGO          1 00000000 0000000F     T   12153 12153
 LDINIT        1 00000000 00000027     T   12199 12199
 LDMIGO        1 00000000 00000021     T   12183 12183
 LDMIINIT      1 00000000 00000020     T   12182 12182
 LDMOGO        1 00000000 00000019     T   12171 12171
 LDMOINIT      1 00000000 00000018     T   12170 12170
 LDMSG         4 000028A0 00000001     I   12616 12614
 LDNEXT        1 00000000 00000017     T   12167 12167
 LDPAGE        1 00000000 0000001A     T   12172 12172
 LDREPDEL      1 00000000 0000001C     T   12175 12175
 LDSET         1 00000000 00000016     T   12166 12166
 LIBRARY       2 0000085E 00000001     H    5946 12427
 LINK          2 0000013A 00000001     H    3938  3921B
 LINKEOF       2 00001082 00000001     H    8536  4872B  4969B
 LINKGO        4 0000043C 00000001     I    4869  4818B
 LINK1         2 0000014E 00000001     H    3951  4183B
 LINMSG        8 00002A12 00000001     C   13035 12925  12925  12928  12943M 12946M 12983  13014
 LINMSGI       4 00002A1A 00000001     C   13036 12943  12943  12946M 12983  13014
 LNKACCT       5 000001E7 FFFFFFE6     X    3352  4295   4374M 14552
 LNKANAM       8 00000100 FFFFFFE6     C    3160  7406M  8862M  9190M  9425   9427   9435  14095  14096M 14096
 LNKBL         2 000001F6 FFFFFFE6     H    3357  4372M  4793M 14227  14290  14363M 14420M
 LNKBN         4 000001EC FFFFFFE6     A    3354  4789M 14323  14361M 14378  14380M 14553
 LNKBO         2 000001F4 FFFFFFE6     H    3356 14226  14260M 14292M 14321M 14321  14427M 14427
 LNKCLCMD      4 0000091C FFFFFFE6     F    3375 10132M 10156M 10158  11669M 11670
 LNKCLPRM      4 000009A4 FFFFFFE6     F    3376 10134  10157M 10175  10312  10338  11675M 11676M
 LNKCLW        4 000001E0 FFFFFFE6     A    3322 12644  14153M
 LNKCOM      133 00000115 FFFFFFE6     C    3164  4700   4873   4975   4977   5070   5085  12894  12896M 12896  12897M
                                                 12898M 12898  12924  14250M 14252  14274  14309
 LNKCOMAR      3 00000112 FFFFFFE6     C    3163  5183M  5204  12892M 13007
 LNKCOML       2 00000110 FFFFFFE6     H    3162  5089  12893  14258M 14288M 14310  14546M 14546
 LNKEP         8 00000108 FFFFFFE6     C    3161  5408   5410M  5425   5436   5535M  5535   5539M  7209   7215   9435M
                                                  9633   9639  10420  14095
 LNKFEOM       8 000001CE FFFFFFE6         3198  9458M  9497M  9532
 LNKFERR       2 000001CE FFFFFFE6         3216 11295  11541  12683M
 LNKFFREE      1 000001CE FFFFFFE6         3225  3812   3812   3813   4939M  8575M 10373M 10796M 14089M 14140  14140
 LNKFID        1 000001E5 FFFFFFE6     X    3329  4373M 10828  10838  10849M 12944  12959  14144M 14313  14374  14506
 LNKFL         1 000001CE FFFFFFE6     R    3172  3180   3189   3198   3207   3216   3225
 LNKFN        44 000001A2 FFFFFFE6     C    3167  9192M  9214
 LNKFREDO      4 000001CE FFFFFFE6         3207  4923M 14199  14307  14307  14308M
 LNKFSPNQ     16 000001CE FFFFFFE6         3189  3812   3812   9206M  9328M  9367M  9959M 13890  13951M 13976M
 LNKFTYPD     32 000001CE FFFFFFE6         3180  3873   4963M  5191M 14140  14140  14141M 14307  14307
 LNKGRP        2 000001EA FFFFFFE6     C    3351  4795M 14152M
 LNKLMLBN      4 000001F8 FFFFFFE6     A    3358  4790M 14555
 LNKLMN        8 0000019A FFFFFFE6     C    3166  3168   3168   9191M  9221
1VPM      (VPM00) (09:49) (22MAR04) Ordinary Symbol and Literal Cross Reference                                             Page  138
 LNKLN         4 000001F0 FFFFFFE6     A    3355  4350  12926  14262  14263M 14293M 14409  14410M
 LNKPAGE    4096 00000000 FFFFFFE6     J    3387  3696   3703   3743U  3838  13076U 14119
 LNKPFCAL     32 000001CF FFFFFFE6         3257  6907   7779M  7823M  7849M  9579
 LNKPFFL       1 000001E4 FFFFFFE6     X    3328  4788M  4849  14322  14551
 LNKPFL        1 000001CF FFFFFFE6     R    3231  3239   3248   3257   3266   3275   3284   3293   3302   4002M  8634M
 LNKPFLET     64 000001CF FFFFFFE6         3248  7799M 12658  12757
 LNKPFLST     16 000001CF FFFFFFE6         3266  5009   5162   8085M
 LNKPFLWN    128 000001CF FFFFFFE6         3239  6555   7752M  7912M  7939M 12769
 LNKPFL2       1 000001D0 FFFFFFE6     R    3308  3316   4003M  8635M
 LNKPFMAP      8 000001CF FFFFFFE6         3275  8106M
 LNKPFM31    128 000001D0 FFFFFFE6         3316  7369   8276M  9414M  9785   9871
 LNKPFPRT      2 000001CF FFFFFFE6         3293  7327   8213M  9391M  9742
 LNKPFPRV      1 000001CF FFFFFFE6         3302  7187   7348   8255M
 LNKPFREN      4 000001CF FFFFFFE6         3284  7306   8234M
 LNKPSTRT      8 00000000 FFFFFFE6     D    2941  3379
 LNKSFED      64 000001E6 FFFFFFE6         3341  4371M  4739M 14240
 LNKSFL        1 000001E6 FFFFFFE6     R    3332  3336   3341   3346
 LNKSFRRB     32 000001E6 FFFFFFE6         3346  4294M  7643M 14217  14373M
 LNKSFTER    128 000001E6 FFFFFFE6         3336  3891  10819  14150M 14396
 LNKSTACK     28 00000200 FFFFFFE6     X    3364 14142
 LNKSTKP       4 00000388 FFFFFFE6     A    3365  4286   4287   4296   4823   4825M 10850  10853M 14143M 14547  14549M
 LNKSYSCT      2 0000091A FFFFFFE6     H    3371  5985   6007M  6076   6498
 LNKSYSLB    158 0000042A FFFFFFE6     C    3370  6009   6590
 LNKSYSMD    158 0000038C FFFFFFE6     C    3369  6065M  6799   6842   6843   6913M  6916
 LNKTST        1 00000A30 FFFFFFE6     U    3378  3380
 LNKUINFO      4 000001FC FFFFFFE6     A    3359  4791M 14554
 LNKUSER       3 000001E7 FFFFFFE6     C    3350  3352   3352   4794M 14151M
 LNKZBASE      4 000001DC FFFFFFE6     A    3321  8382M  8417  14102
 LNKZPTRS      4 000001D4 FFFFFFE6     A    3320  4997M  4997   8350M  8355   8390  14103M 14103
 LOADFILE      2 000008BC 00000001     H    6032 12429  12447
 LOADING       2 00001A5C 00000001     H   11285  4974B  9445B
 LOADINGQ      2 00001B40 00000001     H   11533  5421B  5528B  6776B  8333B  9549B
 LOADSHRD      4 00001B0C 00000001     I   11500  9331B
 LSE          28 000001E4 FFFFFFE6     X    3360  3364   4297   4297   4365M  4365   4733M  4733   4763M  4763   4824
                                                 10852M 12195  14550M 14581
 LSESTART      4 000001E4 FFFFFFE6     F    3327  3360   3360
 LSTKOFLO      4 00001BFE 00000001     I   11709  4288B
 LSUP          2 00000084 00000001     H    3754  3683B
 MEMNFND       4 00001D1A 00000001     I   11968  4538B  5915B
 MEMNTSPC      2 00001D0E 00000001     H   11960  4520B
 MISSING       4 00001C8C 00000001     I   11844  3993B  4124B  5352B  5407B  5538B  5551B  6779B  8336B  8375B  8410B
                                                  8598B 10661B 10696B 11821B
 NAME          2 00000AAE 00000001     H    6774 12431
 NAMEDONE      4 00000D6A 00000001     I    7636  7542B
 NEXT          2 00000476 00000001     H    4931  4925B  5059B  5248B  5291B  5348B  5398B  5411B  5603B  5938B  6011B
                                                  6066B  7644B  7678B  7685B  7784B  8304B  8351B  8383B  8497B
 NEXT2         2 00000476 00000001     H    4933  5024B
 NOCORE        4 00001CF6 00000001     I   11948 10308B 11364B 11413B 11517B
 NOPAREN       2 00001966 00000001     I   11004 10947B
 NOPARM        2 0000046E 00000001     H    4919  4874B
 NOPROG        4 00001B62 00000001     I   11590 11636B
 NOTDEF        4 00000766 00000001     I    5616  5556B  5558B  5584B
 NOTIXR        4 00001C2E 00000001     I   11733  4434B  6623B  7030B  8832B
 NOTLDF        4 00001C1C 00000001     I   11724  6998B
 NOTLIB        2 00001D3E 00000001     H   11983  4574B  4594B  4606B
 NOTLKLD       4 000003BA 00000001     I    4768  4485B
 NOTLKMB       4 000003C6 00000001     I    4773  4654B  4666B
 NOTLSTSD      4 0000075A 00000001     I    5611  5593B
 NOTYET        2 00001BEE 00000001     H   11694  6027B
1VPM      (VPM00) (09:49) (22MAR04) Ordinary Symbol and Literal Cross Reference                                             Page  139
 NXTMEMB       2 00000354 00000001     H    4686  4310B  5897B  6708B
 OBJINCOM      4 0000050E 00000001     I    5073  5069B
 OBJLOOP       6 000004A2 00000001     I    4977  5071B
 OBJNEXT       2 000004F8 00000001     H    5062  4986B
 OSFBLKSZ      2 00000104 FFFFFFEB     H    2625  7273
 OSFDSORG      1 000000FF FFFFFFEB     R    2505  2513   2522   2531   2541
 OSFFDISP      1 000000FE FFFFFFEB     R    2454  2462   2471   2480   2489   2499
 OSFFLAG       1 00000107 FFFFFFEB     R    2698  2706   2715   2724   2733   2743
 OSFPBDS       4 000000C4 FFFFFFEB     F    2447  2754   2754
 OSFRECFM      1 00000100 FFFFFFEB     R    2547  2555   2564   2573   2582   2591   2600   2609   2619
 OSFSPTYP      1 00000106 FFFFFFEB     R    2629  2637   2646   2655   2664   2673   2682   2692
 OSOPTS        1 00000000 0000002D     T   12367 12390  12468
 PAGE          2 00000D8E 00000001     H    7665 12437
 PAGE0         6 00000D96 00000001     I    7669  7677B
 PAGE10        6 00000DB2 00000001     I    7680  7668B
 PARM          2 00000DC2 00000001     H    7691 12404
 PARMCALL      2 00000E0C 00000001     H    7804 12483  12485
 PARMCHK       1 000025B3 00000001     R   12404 12151
 PARMERR       2 00000DF8 00000001     H    7787  7704B 12439
 PARMFIX       2 00001BA0 00000001     H   11650 10108B 11316B 11495B 11527B 11566B
 PARMFORT      2 00000EE6 00000001     H    8167 12505
 PARMKW        1 000026DC 00000001     R   12477 12388  12526
 PARMLET       2 00000E04 00000001     H    7795 12477
 PARMLIST      2 00000EBE 00000001     H    8081 12491
 PARMMAP       2 00000EC8 00000001     H    8102 12493
 PARMM31       2 00000F18 00000001     H    8272 12521
 PARMNCAL      2 00000E1E 00000001     H    7844 12479  12481  12487
 PARMNOK       4 00000E74 00000001     I    7992  7987B
 PARMNOSN      2 00000EDC 00000001     H    8144 12499  12501
 PARMNOWN      2 00000E46 00000001     H    7932 12519
 PARMOSNT      2 00000ED2 00000001     H    8123 12495  12497
 PARMOV        6 00001BDC 00000001     I   11675 11659B 11665B
 PARMPRIV      2 00000F0E 00000001     H    8251 12515
 PARMREFR      2 00000EFA 00000001     H    8209 12503  12513
 PARMRENT      2 00000F04 00000001     H    8230 12509  12511
 PARMSIZE      2 00000E5C 00000001     I    7981 12489
 PARMURAM      2 00000EF0 00000001     H    8188 12507
 PARMWARN      2 00000E34 00000001     H    7893  7800B 12517
 PAUSE         2 00001890 00000001     H   10865  3928B
 PCATERR       2 00001D02 00000001     H   11953  8973B  9044B 12543
 PCATPTR       4 00000000 FFFFFFEA     A    2793  8950
 PLCEXIT       2 000029FA 00000001     H   12994 12948B
 PLCOFERR      4 00002936 00000001     I   12861 12859
 PLCOFERR      1 00000000 00000008     T   12142 12142  14569
 PMEXIT        2 0000009E 00000001     H    3793  3787B
 PMEX1         2 000000C8 00000001     I    3850  3816B
 PMSETUP       4 00000074 00000001     I    3728  3708B
 POPLNKST      2 00002E56 00000001     H   14519 14505B 14517
 POPLNKST      1 00000000 0000000B     T   12148 12148
 PRGCAT        1 00000000 FFFFFFEA     J    2792  8948U
 PRIME         2 0000023A 00000001     H    4285  4083B  5746B  6726B
 PRIMED        4 00000412 00000001     I    4823  4375B
 PRIMEDF       2 000003D2 00000001     H    4780  4672B  4740B  4764B
 PRMCRDKW      1 000027AE 00000001     X   12526 12173
 PROGNF        4 00001C40 00000001     I   11741  8903B  8930B  9066B
 PROGRAMS      4 00000014 00000001     I    3632  3630
 PUBPROG       2 000011A8 00000001     H    8917  8768B
 PVTBL         1 00002870 00000001     R   12589 12196
 QIETEXIT      2 00001CBC 00000001     H   11900 11935B
1VPM      (VPM00) (09:49) (22MAR04) Ordinary Symbol and Literal Cross Reference                                             Page  140
 QR            4 00000004 00000001 A   #    1046  4720M  4722M  4723   4724   8390M  8420M  8940M  8948U  9503M  9506
                                                  9508M  9509   9510   9511   9519  13444M 13445M
 QUIET         1 00000000 0000002B     T   12365 12378
 QUOTPARM      2 00001BCC 00000001     H   11668 11655B 11657B
 RAR           9 00000009 00000001 A   #    1111  3706M  3707M  3707B  3716M  3717M  3717B  3720M  3721M  3721B  3747M
                                                  3748M  3748B  3782M  3795M  3798M  3824M  3825M  3825B  3841M  3842M
                                                  3842B  3862M  3902M  3903M  3903B  3906M  3907M  3907B  3909M  4000M
                                                  4161M  4171M  4278M  4348M  4356M  4390M  4394M  4442M  4528M  4689M
                                                  4708M  4709M  4709B  4769M  4774M  4851M  4854M  4858M  4859M  4859B
                                                  4869M  4870M  4870B  4942M  4943M  4943B  4966M  4967M  4967B  4974M
                                                  4979M  4982M  4983M  4983B  4990M  5032M  5053M  5054M  5054B  5057M
                                                  5058M  5058B  5064M  5067M  5068M  5068B  5074M  5252M  5257M  5278M
                                                  5281M  5290M  5293M  5297M  5298M  5298B  5306B  5335M  5338M  5347M
                                                  5351M  5356M  5357M  5357B  5392M  5393M  5393B  5396M  5397M  5397B
                                                  5406M  5415M  5421M  5424M  5444M  5447M  5448M  5448B  5501M  5502M
                                                  5502B  5505M  5506M  5506B  5517M  5518M  5518B  5521M  5522M  5522B
                                                  5528M  5537M  5550M  5554M  5555M  5555B  5595M  5607M  5612M  5617M
                                                  5634M  5658M  5668M  5788M  5832M  5875M  5932M  5936M  5937M  5937B
                                                  5955M  5959M  5983M  6015M  6035M  6039M  6063M  6074   6124M  6125M
                                                  6125B  6136M  6137M  6137B  6280M  6281M  6281B  6311M  6314M  6338M
                                                  6339M  6339B  6400M  6401M  6401B  6428M  6448M  6449M  6449B  6572M
                                                  6573M  6573B  6576M  6577M  6577B  6595M  6631M  6651M  6764M  6765B
                                                  6776M  6778M  6781M  6813M  6821M  6825M  6915M  6929M  6969M  7038M
                                                  7062M  7115M  7167M  7170M  7173M  7174M  7174B  7177M  7196M  7218M
                                                  7219M  7219B  7279M  7282M  7283M  7283B  7404M  7438M  7456M  7457M
                                                  7457B  7478M  7497M  7515M  7522M  7527M  7528M  7528B  7540M  7561
                                                  7562   7562   7562   7571M  7572M  7572B  7575M  7576M  7576B  7609M
                                                  7610M  7610B  7613M  7614M  7614B  7624M  7627M  7630   7631   7631
                                                  7631   7636M  7649M  7653M  7657M  7667M  7672M  7673M  7673B  7676M
                                                  7683M  7684M  7684B  7790M  8295M  8303M  8308M  8313M  8314M  8314B
                                                  8333M  8335M  8339M  8340M  8340B  8428M  8429M  8429B  8457M  8511M
                                                  8514M  8519M  8524M  8529M  8597M  8632M  8782M  8788M  8802M  8840M
                                                  8844M  8888M  8938M  8970M  8971M  8971B  9019M  9023M  9047M  9051M
                                                  9064M  9137M  9199M  9269M  9292M  9320M  9331M  9333M  9341M  9344M
                                                  9359M  9420M  9423M  9430M  9431M  9431B  9442   9443   9443   9443
                                                  9445M  9449M  9450M  9450B  9461M  9466M  9472M  9473M  9473B  9482M
                                                  9485M  9486B  9516M  9549M  9587M  9593M  9597M  9598M  9598B  9601M
                                                  9642M  9643M  9643B  9857M  9939M  9951M 10015M 10016M 10016B 10108M
                                                 10428M 10431M 10441M 10478M 10520M 10521M 10521B 10538M 10539M 10539B
                                                 10658M 10659M 10659B 10693M 10694M 10694B 10738M 10742M 10746M 10750M
                                                 10772M 10806  10808  10808  10808  10859M 10867M 10883  10884  10884
                                                 10884  10912  10913  10913  10913  10975M 10977B 10993M 10996M 11032
                                                 11033  11033  11033  11119M 11125M 11126B 11161B 11187B 11214  11218M
                                                 11222M 11223M 11223B 11269  11273M 11274M 11274B 11277M 11347  11362M
                                                 11363M 11363B 11368M 11369M 11369B 11373M 11459  11462M 11482M 11485M
                                                 11500  11515M 11516M 11516B 11521M 11522M 11522B 11526M 11591M 11596M
                                                 11601M 11618B 11644M 11653B 11684B 11700M 11703M 11710M 11715M 11719M
                                                 11724M 11728M 11733M 11737M 11742M 11748M 11752M 11757M 11775M 11837M
                                                 11840M 11845M 11862M 11865M 11871M 11890M 11896M 11897M 11897B 11930M
                                                 11934M 11945M 11949M 11956M 11963M 11968M 11972M 11975M 11980M 11986M
                                                 11990M 11996M 12017M 12021M 12031M 12036M 12050B 12061B 12067  12084M
                                                 12085M 12085B 12088M 12089B 12093  12095  12095  12095  12101  12124M
                                                 12125M 12125B 12128M 12129B 12213  12213  12213  12215  12215  12215
                                                 12640  12643M 12722M 12723M 12723B 12790M 12791M 12791B 12808M 12809M
                                                 12809B 12812M 12813M 12813B 12825M 12834M 12834  12842M 13086  13088
                                                 13088  13088  13125M 13126M 13126B 13138M 13139M 13139B 13166M 13167M
                                                 13167B 13348M 13687M 13688M 13688B 14067M 14068M 14068B 14107M 14157B
                                                 14171  14172  14172  14172  14284M 14285M 14285B 14359M 14383M 14417M
                                                 14500M 14505M 14513M 14515B 14521  14522  14522  14522  14558M 14559B
1VPM      (VPM00) (09:49) (22MAR04) Ordinary Symbol and Literal Cross Reference                                             Page  141
                                                 14587  14587  14587
 READCORE      1 00000000 00000023     T   12189 12189
 RELOAD        2 000008B8 00000001     H    6026  3923B
 REPLACE       2 00000F2E 00000001     H    8301  8315B 12441
 REPNDEL       4 00000F50 00000001     I    8313  8309B
 REQABORT      4 00001CCE 00000001     I   11929  4952B  5060B  7129B 11224B 11266B 12604
 RITECORE      1 00000000 00000024     T   12190 12190
 RUNNING       4 00001B7A 00000001     I   11600 11334B 11583B
 R0            0 00000000 FFFFFFFF A   #     700  3592   3592   3592   3851M  4267   4746M  4746   4754M  4755M  4755
                                                  5184   5443M  5829M  6165M  6175   6310M  6796   6818M  6885   7256M
                                                  7273M  7650   7990M  8344M  8344   8350   8380M  8380   8415M  8415
                                                  8422M  8431   8433   8779M  9069   9196M  9336M  9337   9468M  9487M
                                                  9487   9501   9999M 10000M 10001  10130  10133M 10150M 10150  10156
                                                 10158M 10174  10427M 10516M 10533M 10586M 10587  10662  10697M 10714M
                                                 10719M 10719  10721  10903  10926  10950M 10952M 10953  10957  10976M
                                                 10976  11024M 11024  11054  11415M 11416  11651M 11652M 11652  11662M
                                                 11664M 11676  11774M 12107M 12724M 12724  12861  12927M 12933  12939M
                                                 12941  12942  12985M 12991M 12992  13032M 13331M 13331  13332  13333
                                                 13334  13335  13336  13579M 13580  13920M 14118M 14121M 14288  14310M
                                                 14378M 14379M 14380
 R1            1 00000001 FFFFFFFF A   #     713  3660   3728   3735   3916M  3957M  4267   4372   4692   4712M  4723M
                                                  4753M  4898M  5229M  5436M  5450M  5450   5456M  5457M  5457   5557M
                                                  5557   5590M  5591M  5592   5596M  5601M  5602   5692M  5693   5698M
                                                  5700   5720M  5829M  5962M  6006M  6007   6042M  6076M  6088   6303M
                                                  6498M  6508   6587M  6588   6730M  6740U  6817M  7215M  7221M  7221
                                                  7239M  7249   7255M  7561   7562   7562   7562   7624M  7630   7631
                                                  7631   7631   7711M  7981   8342M  8342   8424M  8479   8612M  8778M
                                                  8940   8974   9026M  9115M  9116B  9195M  9247   9248   9267M  9267
                                                  9286M  9301M  9301   9334M  9335M  9337   9427M  9433M  9433   9468
                                                  9469M  9500   9502M  9519   9551M  9604M  9621M  9639M  9653M  9653
                                                  9666   9667M  9668M  9669M  9671   9694   9703M  9858M  9860M  9861
                                                  9984M  9985M  9986M  9987   9999  10043M 10044  10060M 10061M 10062
                                                 10131  10134M 10151M 10151  10157  10175M 10176  10281M 10283M 10309
                                                 10311M 10350  10352  10354M 10355M 10356  10420M 10442M 10452U 10480M
                                                 10515M 10534M 10600M 10602M 10603  10927  10948M 10956  10969M 10970
                                                 11099M 11248M 11365  11389M 11414  11417M 11463M 11473U 11518  11651M
                                                 11660M 11670M 11767M 12108M 12213  12213  12213  12928M 12933M 12935M
                                                 12936  12986M 12990M 13135M 13285M 13295U 13438M 13440  13577M 13578
                                                 13919M 14041M 14042M 14042  14119M 14252M 14256M 14289M 14290  14292
                                                 14309M 14363  14420
 R10          10 0000000A FFFFFFFF A   #     830  3592   3592   3592  12644M 12861  13032M
 R11          11 0000000B FFFFFFFF A   #     843  3393   3393   3393   3632   3725M  3855M 13076U
 R13          13 0000000D FFFFFFFF A   #     869 10356M
 R14          14 0000000E FFFFFFFF A   #     882  6199M  6207U  6686   7550U  7577M  7587U  7992   7993   7993   7993
                                                  8070M  8610M 10128  10309M 10326M 10329M 10331  12214  12214  12214
                                                 12616  12618  12618  12618  12851M 13583M 13584M 13585M 14293
 R15          15 0000000F FFFFFFFF A   #     895  3660   3850M  3916M  4044M  4054U  4713M  4724M  5184M  5185M  5559
                                                  5596   5597M  5598   5600   6146M  6146   6159U  6303   7193M  7230U
                                                  7650M  7992   7993   7993   7993   7999   8001M  8011U  8070M  8382
                                                  8417M  8418   8420   8421   8669M  8679U  8804M  8804   8876M  8876
                                                  9147M  9147   9238M  9238   9511M  9607M  9608M  9608   9621   9670M
                                                  9694M  9982M  9983M  9987M 10070M 10080U 10129  10159M 10169U 10282M
                                                 10283  10364M 10517M 10523B 10535M 11122M 11278M 11279B 11418M 11477M
                                                 11478  11479M 11480  12045M 12046M 12047B 12057M 12058B 12214  12214
                                                 12214  12672  12695  12702  12741M 12741  12800M 12800  12822  12847M
                                                 12926M 13362M 13372U 13438  13464B 13526M 13536U 13581M 13582  13586
                                                 13755M 13765U 13773M 13774M 13774  14026M 14027M 14027  14298M 14298
                                                 14484M 14485M 14485  14510M 14514M 14514
 R2            2 00000002 FFFFFFFF A   #     726  5692M  5985M  5997   6006   6008M  6009M  6009   6133M  6175   6497M
1VPM      (VPM00) (09:49) (22MAR04) Ordinary Symbol and Literal Cross Reference                                             Page  142
                                                  6508   6587   6589M  6590M  6590
 R3            3 00000003 FFFFFFFF A   #     739  5694M  5695
 R4            4 00000004 FFFFFFFF A   #     752  6316M  6328   6334M  6390   6578M
 R8            8 00000008 FFFFFFFF A   #     804 13065U
 SCAN          1 00000000 00000009     T   12144 12144
 SCBCFAX      32 00000261 FFFFFFEE         1372 10462M
 SCBCFCLA     64 00000261 FFFFFFEE         1367  6751M
 SCBCFL        1 00000261 FFFFFFEE     R    1358  1362   1367   1372   1377   1382
 SCBCFNMA     16 00000261 FFFFFFEE         1377 13306M
 SCBFL         1 00000262 FFFFFFEE     R    1388  1392   1397   1402   1407   1412
 SCBTFL        1 00000263 FFFFFFEE     R    1418  1422   1427   1432   1437   1442
 SCBWFL        1 00000260 FFFFFFEE     R    1348  1352
 SCBXA        64 00000265 FFFFFFEE         1464  1498   1498   1500   1500   1502   1502
 SCBXFL        1 00000265 FFFFFFEE     R    1455  1459   1464   1469   1474   1479   1484   1504
 SCBXP        16 00000265 FFFFFFEE         1474  1501   1501   1502   1502   1503   1503
 SCBXT       128 00000265 FFFFFFEE         1459  1498   1498   1499   1499   1501   1501
 SCBXW        32 00000265 FFFFFFEE         1469  1499   1499   1500   1500   1503   1503
 SCINIT        1 00000000 0000000D     T   12150 12150
 SCP         660 00000000 FFFFFFEE     J    1528  4054U  6740U  8011U  8679U 10080U 10169U 10452U 13295U 13372U 13536U
                                                 13765U
 SCPACCT       6 000001AA FFFFFFEE     C    1237  1238   1239
 SCPCMDP       4 00000224 FFFFFFEE     A    1330 10174M 13335M
 SCPCWASZ      1 00000010 FFFFFFEE A   N    1326  1327
 SCPFL         1 00000200 FFFFFFEE     R    1272  1276   1281   1286   1291   1296   1301   1306   1311
 SCPKLUDG      1 00000201 FFFFFFEE     X    1315 13313M
 SCPPAN        2 000001A8 FFFFFFEE     H    1228  1229
 SCPPARMP      4 00000228 FFFFFFEE     A    1331 10176M 13336M
 SCPPXA        4 000001A0 FFFFFFEE     A    1226 13332M
 SCPRESRV      2 000001F8 FFFFFFEE     H    1266 10085  10093M 10093  13541M 13773
 SCPRRSEG      4 000001F4 FFFFFFEE     A    1265 10086M 13402  13542M
 SCPUMAP       4 000001FC FFFFFFEE     A    1268  4060   8020   8022   8685
 SCPXPSW       8 00000070 FFFFFFEE     D    1211 13327M 13327
 SCTELL        1 00000000 00000013     T   12158 12158
 SEG           4 00001DA4 00000001     I   12067  5278B  5335B  5444B  6311B  8511B 10428B 10993B 11700B 11775B 11837B
                                                 11862B 11890B
 SETACT        2 000001B2 00000001     H    4088 12370
 SETENTER      2 000001F4 00000001     H    4217 12380
 SETENTRY      4 000006E0 00000001     I    5528  3929B
 SETEXIT       2 000001E8 00000001     H    4187 12382  12384  12386  12552  12554  12556
 SETFIL        4 000001C0 00000001     I    4124 12372  12374
 SETLIST       2 000001EE 00000001     H    4202 12376
 SETNOSHA      2 00000200 00000001     H    4247 12558
 SETPAU        2 000001FA 00000001     H    4232 12397
 SETPUB        1 00000000 0000001F     T   12180 12180
 SETUPRTN      2 00000102 00000001     H    3915  3784B
 SHENTRY       4 00000666 00000001     I    5421  3931B
 SHEN2         4 0000069A 00000001     I    5456  5426B
 SHEN3         2 000006A4 00000001     I    5465  5452B
 SHEN6         4 000006C8 00000001     I    5513  5449B  5451B  5458B
 SHLINK        2 000008B8 00000001     H    6022  3930B
 SMFICCPU      4 0000003C FFFFFFE5     F    3578  3585  13578M 13609
 SMFICELT      4 00000048 FFFFFFE5     F    3581 13586M
 SMFICIO       4 00000044 FFFFFFE5     F    3580 13580M
 SMFICVM       4 00000040 FFFFFFE5     F    3579 13582M
 SMFILEN       1 00000018 FFFFFFE5 A   U    3585 13602
 SMFIPROG      8 0000004C FFFFFFE5     C    3582 13587M
 SMFISTAT      1 000000AE FFFFFFE5 A   U    3584 13595
 SPB         114 00000000 FFFFFFE7     J    2929  9256U  9852U 11473U
 SPBCWASZ      1 00000010 FFFFFFE7 A   N    2921  2922
1VPM      (VPM00) (09:49) (22MAR04) Ordinary Symbol and Literal Cross Reference                                             Page  143
 SPBEP         4 00000050 FFFFFFE7     A    2915  9339   9937M
 SPBFL         1 00000044 FFFFFFE7     R    2856  2860   2865   2870   2875   2880   2885
 SPBFLOAD    128 00000045 FFFFFFE7         2894  9279
 SPBFL2        1 00000045 FFFFFFE7     R    2890  2894   2899   2904   2909
 SPBFM31       4 00000044 FFFFFFE7         2885  9883M  9897
 SPBORGIN      4 00000048 FFFFFFE7     A    2913  9336  11477
 SPBRESRV      2 00000060 FFFFFFE7     H    2919  9334   9861M
 SPBSIZE       4 0000004C FFFFFFE7     A    2914 11479
 SR            2 00000002 00000001 A   #    1020  3393   3393   3393   3632   3725M  3850   3855M  4286M  4287   4296M
                                                  4692M  4713   4753   4793   4823M  4824M  4825   5304M  5305M  5305
                                                  5314U  5318M  5559M  5570U  5840M  5844M  5846   7409M  7410M  7410
                                                  7421U  7442M  7443M  7443   7985M  7988M  8000M  8000   8349M  8349
                                                  8350   8385M  8388M  8436B  8950M  8951   8974M  9248M  9256U  9442
                                                  9443   9443   9443   9485M  9500M  9502   9510M  9842M  9852U 10312M
                                                 10313M 10313  10325  10326  10350M 10351M 10354  10806  10808  10808
                                                 10808  10859M 10883  10884  10884  10884  10912  10913  10913  10913
                                                 10926M 10956M 10966M 10970M 10971M 10975M 11009  11032  11033  11033
                                                 11033  11053M 11081  11125M 12093  12095  12095  12095  12215  12215
                                                 12215  12616  12618  12618  12618  12822M 12847  12851M 12924M 12941M
                                                 12983M 13086  13088  13088  13088  13440M 13441M 13523M 14107M 14116
                                                 14117  14117  14117  14121M 14142M 14143  14156M 14226M 14227  14249
                                                 14259M 14260  14261M 14262M 14263  14281  14408M 14409M 14410  14411
                                                 14547M 14548M 14549  14584  14584  14584
 SRCHCAT       2 000011BC 00000001     I    8951  9016B
 STOPMON       1 00000000 0000002F     T   14573 14573
 SYMEXIT       4 0000194A 00000001     I   10974 10901B 10945B 11025B
 SYSLIB        2 0000085E 00000001     H    5944 12445
 SYSLMXR       4 000008AC 00000001     I    6014  6000B
 TR            3 00000003 00000001 A   #    1033  3851   4714M  4722   7050M  7981M  7982M  7984M  7999M  8020   8022M
                                                  8031   8063   8355M  8356M  8356   8390M  8391M  8391   8418   8421M
                                                  8431   8433M  8435M  8439   8461   8950M  8951   9501M  9503   9509M
                                                  9521M  9521  10850M 10851M 10853  10927M 10957M 10967M 11004  11054M
                                                 11056M 11058M 11086  12893M 12899M 12912  12919M 12924  12942M 12947M
                                                 12992M 13014  13443M 13455  13467M 13522M 14116  14117  14117  14117
                                                 14120M 14120  14122M 14131U 14156M 14230M 14249M 14251M 14257M 14258
                                                 14289  14584  14584  14584
 TRYPUB        2 0000119C 00000001     H    8892  8805B
 TYPEIT        1 00000000 00000004     T   12138 12138  14570
 TYPERR        2 000000D6 00000001     H    3860  3788B
 TYPFILE       2 000029C4 00000001     H   12950 12945B
 TYPFLEN       2 000029F8 00000001     I   12992 12988B
 TYPFLOOP      4 000029EA 00000001     I   12987 12991B
 TYPLOOP       2 00002994 00000001     I   12935 12940B
 TYPNUM        2 000029A4 00000001     I   12941 12937B
 TYP0          2 0000296A 00000001     H   12902 12895B
 TYP2          4 000000F4 00000001     I    3906  3876B  3894B
 UNDEFENT      4 000016B8 00000001     I   10420  7220B  7222B  9644B  9656B
 UNLOAD        2 000008B8 00000001     H    6024  3922B
 UNPRS         1 00000000 0000000A     T   12146 12146  14579
 UNREC         2 00001C98 00000001     H   11856  4104B  4140B  4264B  6884B  6886B  7998B 12457  12472  12528  12586
 UUU           3 00000013 FFFFFFEB     C    2259  3350
 VOID          2 00001CEA 00000001     H   11942  4358B
 VPM           1 00000000 00000001     J     994   996   1028   1041   1054   1067   1080   1093   1106   1119   1132
                                                  1145   1158   1529   1852   1928   3601   5713   5859   8452   8474
                                                 10344
 VPM#SEG       2 00001DCC 00000001     H   12099  4278B  4769B  4774B  5032B  5074B  5252B  5257B  5281B  5338B  5415B
                                                  5424B  5607B  5612B  5617B  5788B  6015B  6314B  7497B  7515B  7790B
                                                  8295B  8457B  8514B  8519B  8524B  8529B 10431B 10738B 10742B 10746B
                                                 10750B 10772B 10996B 11119B 11218B 11591B 11596B 11601B 11644B 11703B
1VPM      (VPM00) (09:49) (22MAR04) Ordinary Symbol and Literal Cross Reference                                             Page  144
                                                 11710B 11719B 11728B 11737B 11742B 11752B 11757B 11840B 11845B 11865B
                                                 11930B 11934B 11945B 11949B 11956B 11963B 11972B 11980B 11990B 11996B
                                                 12017B 12021B 12031B 12036B
 VPMMORG       1 00001FC4 00000001     U   12225  4277   4768   4773   5031   5073   5251   5256   5280   5337   5414
                                                  5423   5606   5611   5616   5787   6014   6313   7496   7514   7789
                                                  8294   8456   8513   8518   8523   8528  10430  10737  10741  10745
                                                 10749  10771  10995  11118  11217  11590  11595  11600  11643  11702
                                                 11709  11718  11727  11736  11741  11751  11756  11839  11844  11864
                                                 11929  11933  11944  11948  11955  11962  11971  11979  11989  11995
                                                 12016  12020  12030  12035  12107  12108
 VPM00         1 00000000 00000001     R    1003  1001
 VREAD         1 00000000 00000026     T   12197 12197
 VSEG          1 00000000 00000003     T   12137 12137  14568
 VWRITE        1 00000000 00000010     T   12154 12154
 WACMD       133 00000062 FFFFFFE5     C    3569  3669M 10132  10132
 WACMDL        2 00000060 FFFFFFE5     H    3568  3668M 10133
 WADEVFL       1 0000002C FFFFFFE4     X    3593  3596   3596
 WADEVINF     46 0000002C FFFFFFE4     X    3596 12967  12974
 WADEVNM       1 0000002E FFFFFFE4     X    3595 12984
 WAFL          1 00000034 FFFFFFE5     R    3397  3401   3406   3411   3416   3421   3426   3431   3436   3666   3667M
                                                  3667
 WAFLACT     128 00000034 FFFFFFE5         3401  3989   3989   3990   4100   4100   4115M  4136   4136   4137   4345M
 WAFLENT       8 00000034 FFFFFFE5         3421  4221M  8544
 WAFLEXIT     64 00000034 FFFFFFE5         3406  4191M 11158  11204
 WAFLFILE     32 00000034 FFFFFFE5         3411  3989   3989   4100   4100   4101   4136   4136   4151M  4325   4387M
                                                  5745M
 WAFLG         1 00000035 FFFFFFE5     R    3442  3446   3451   3456   3461   3466   3471   3476
 WAFLGDSZ     32 00000035 FFFFFFE5         3456  4074M  8043   8699M
 WAFLGERA     64 00000035 FFFFFFE5         3451  6854M  6892M  7082M  7107   7144M  7489
 WAFLGLKF      8 00000035 FFFFFFE5         3466  4182M  4470   4683M
 WAFLGPAU    128 00000035 FFFFFFE5         3446  4236M 10389
 WAFLGSPI      4 00000035 FFFFFFE5         3471  9085M
 WAFLGSPL      2 00000035 FFFFFFE5         3476  9099M
 WAFLLST       4 00000034 FFFFFFE5         3426  4206M  5021   5174
 WAFLNOSH      1 00000034 FFFFFFE5         3436  4251M  9178
 WAFLNXMB     16 00000035 FFFFFFE5         3461  4805   4817M  5896M  6707M
 WAFLPUB       2 00000034 FFFFFFE5         3431  8604M  8753M  8900   8915M
 WAFNCAL      16 00000057 FFFFFFE5         3562  7766   7812   7878M
 WAFNOFLG      1 00000057 FFFFFFE5     R    3543  3547   3552   3557   3562
 WAFNOVRD    128 00000057 FFFFFFE5         3547  3955M  4010M  7866   7956
 WAFNOWN      64 00000057 FFFFFFE5         3552  7739   7901   7968M
 WAGOEVCT      4 00000040 FFFFFFE5     A    3534 10544  10603M 10612M
 WAGOFL        1 00000036 FFFFFFE5     R    3482  3486   3491   3496   3501   3506   3511   3516   3521   3529
 WAGONOL     128 00000036 FFFFFFE5         3486 10554  10627M
 WAGOTO       64 00000036 FFFFFFE5         3491 10580  10668M
 WAGOTOAD      4 00000038 FFFFFFE5     A    3532  3572  10586  10662M
 WAGOTR       32 00000036 FFFFFFE5         3496 10508  10733M
 WAGOTRAP      4 0000003C FFFFFFE5     A    3533 10514  10515  10534  10721M 10724  10726
 WALCBXFL      1 00000056 FFFFFFE5     X    3540  4001   8133M  8156M  8177M  8198M  8633
 WALCMPLN      4 00000058 FFFFFFE5     F    3565  4027   8031M  8652
 WALNKPFL      1 00000054 FFFFFFE5     X    3538  4002   7829M  7856M  7918M  7946M  8091M  8112M  8219M  8240M  8261M
                                                  8634
 WALNKPF2      1 00000055 FFFFFFE5     X    3539  4003   8282M  8635
 WAMBERS     133 000000E7 FFFFFFE5     C    3570  5694
 WAMBLLN       4 0000004C FFFFFFE5     A    3536  5693M  5829   5834M
 WAMBLNX       4 00000050 FFFFFFE5     A    3537  5695M  6199   6686M
 WAPARMP       4 00000044 FFFFFFE5     A    3535  4265M  4265   4267M 11651  11683M 11683
 WAPLC         1 00000000 FFFFFFE4     J    3590  3597  12888U
 WAPLCSZ       1 0000005A FFFFFFE4 A   U    3597 12863
1VPM      (VPM00) (09:49) (22MAR04) Ordinary Symbol and Literal Cross Reference                                             Page  145
 WAPM          1 00000000 FFFFFFE5     J    3391  3587   3618U 13065U
 WAPMEND       4 00000060 FFFFFFE5     F    3567  3666
 WAPMSIZ       1 0000016C FFFFFFE5 A   U    3587  3634
 WAR           8 00000008 00000001 A   #    1098  3618U  3779  12888U
 WAR15         4 00000028 FFFFFFE5     F    3394  3660M  3916
 WASLBNX       2 0000005C FFFFFFE5     H    3566  6104M  6104   6497   6588M
 WAUTOFMB      1 00000036 FFFFFFE5         3521  6119   6119   6120   6120   6193   6251M  6718M
 WAUTOFTM      4 00000036 FFFFFFE5         3511  6439   6640   6640   6696   6725M
 WAUTOPXT      2 00000036 FFFFFFE5         3516  6118   6118   6120   6120   6272   6373   6545M
 WAUTOSLB     16 00000036 FFFFFFE5         3501  4307   5110   5805   6118   6118   6119   6119   6121M  6420   6491
                                                  6640   6640   6641M 14441
 WAUTOUXS      8 00000036 FFFFFFE5         3506  6132M  6232M  6467   6669M
 WAUTOXPS     32 00000036 FFFFFFE5         3529  6523   6534M  6684M
 WRITEXIT      2 00001CB2 00000001     H   11892 11913B
 XTB           1 00000000 0000001D     T   12176 12176
 XTRESOLV      2 000008EA 00000001     H    6072  6915B  9587B
 XTRSCANM      2 000008FE 00000001     H    6099  6535B
 XTRSCAN0      2 00000904 00000001     H    6107  6476B
 XTRSCAN1      4 00000908 00000001     I    6124  5808B  6579B
 XTRSCAN2      4 00000912 00000001     I    6133  6670B
 XTRSCAN3      4 00000916 00000001     I    6136  6178B  6233B  6344B
 XTRSCAT       4 00000A9C 00000001     I    6730  6290B
 XTRSCXT       2 00000AA4 00000001     H    6761  6091B  6406B  6470B  6558B
 YESOKTBL      1 00002879 00000001     R   12594 12198
 ZAPBASE       4 00000F8A 00000001     I    8355 12455
 ZAPCOM        4 00000FC8 00000001     I    8390  8386B
 ZAPNAME       4 00000F5E 00000001     I    8333 12449
 ZAPREP        4 00000FC4 00000001     I    8388 12453
 ZAPVER        4 00000FBC 00000001     I    8385 12451
 ZPILLOFF      4 00001076 00000001     I    8528  8381B  8416B  8419B  8432B
 ZPNONAM       4 0000106A 00000001     I    8523  8357B  8392B
 ZPUNDEF       4 0000105E 00000001     I    8518  8341B  8343B  8345B
 =A(BASE+4096)
               4 00002EB0 00000001     A   14566 12636
 =A(BASE+4096,BASE)
               4 00001DF0 00000001     A   12132  3755
 =A(CATSCKWS)
               4 00001EDC 00000001     A   12179  9026
 =A(COMMTBL)
               4 00001E5C 00000001     A   12155  5229
 =A(KWCALL)
               4 00001ED8 00000001     A   12178  8612
 =A(KWENTER)
               4 00001EF0 00000001     A   12184  9551
 =A(KWGO)      4 00001F00 00000001     A   12188 10480
 =A(KWINCLUD)
               4 00001E74 00000001     A   12161  5720
 =A(KWLINK)
               4 00001E2C 00000001     A   12143  3957
 =A(L'LSE)
               4 00001F1C 00000001     A   12195 10851
 =A(L'LSE)
               4 00002EEC 00000001     A   14581 14548
 =A(LDFTBL)
               4 00001E7C 00000001     A   12163  5962   6042
 =A(PARMCHK)
               4 00001E4C 00000001     A   12151  4898
 =A(PRMCRDKW)
               4 00001EC4 00000001     A   12173  7711
1VPM      (VPM00) (09:49) (22MAR04) Ordinary Symbol and Literal Cross Reference                                             Page  146
 =A(PVTBL)
               4 00001F20 00000001     A   12196 11099
 =A(X'80000000')
               4 00001F3C 00000001     A   12203 12046
 =A(YESOKTBL)
               4 00001F28 00000001     A   12198 11248
 =A(0)         4 00001E84 00000001     A   12165  6088   6328
 =A(384)       4 00002ED8 00000001     A   14576 13585
 =A(4)         4 00002EB4 00000001     A   14567 12672
 =A(4096)      4 00001EE4 00000001     A   12181  9329   9506   9508
 =A(67)        4 00002EC4 00000001     A   14571 12912
 =A(7)         4 00001E90 00000001     A   12168  6390
 =A(8)         4 00001E80 00000001     A   12164  5997
 =A(80)        4 00001E3C 00000001     A   12147  4754
 =A(8192+4096)
               4 00001F30 00000001     A   12200 11389
 =A(8192)      4 00001F34 00000001     A   12201 11415  11418
 =AL2(L'GPWFCB)
               2 00001F64 00000001     R   12209  6008   6589
 =AL2(0)       2 00001F5E 00000001     R   12206  4351
 =AL2(0)       2 00002EF6 00000001     R   14585 14412
 =AL2(2048)
               2 00001F60 00000001     R   12207  4352
 =AL2(2048)
               2 00002EF8 00000001     R   14586 14413
 =AL2(3,0)
               2 00001E34 00000001     R   12145  4353
 =AL2(3,0)
               2 00002EE8 00000001     R   14580 14414
 =C'...'       3 00002EFF 00000001     C   14589 12897
 =C'(R)'       3 00001F85 00000001     C   12219  6883
 =C'-> '       3 00001F72 00000001     C   12216  5183
 =C'-> '       3 00002EFC 00000001     C   14588 12892
 =C'Active file'
              11 00002F02 00000001     C   14590 12946
 =C'HOMEBREW'
               8 00001E08 00000001     C   12135 10211
 =C'Not enough memory for Link'
              26 00001F44 00000001     C   12205  3712
 =C'PROGLIB'
               7 00001F7E 00000001     C   12218  6817   8778
 =C'SPB LOADING STUFF'
              17 00001F95 00000001     C   12221  9195
 =C'SPB LOADING STUFF'
              17 00002F0D 00000001     C   14591 13919
 =C'THE FOLLOWING SYMBOLS ARE UNDEFINED:'
              36 00001E94 00000001     C   12169  6568
 =C'UNDEFINED'
               9 00001F75 00000001     C   12217  5513
 =C'WITH ALIASES:'
              13 00001F88 00000001     C   12220  7567
 =CL8' '       8 00001DF8 00000001     C   12133  5841   7680   8306  10972
 =D'0'         8 00001E00 00000001     D   12134 10178
 =D'0'         8 00002EA8 00000001     D   14565 13350
 =F'0'         4 00001E78 00000001     F   12162  5777   7531
 =V(BTR)       4 00002EC8 00000001     V   14572 12931
 =V(BTX)       4 00001E70 00000001     V   12160  5482
 =V(CHKATTN)
               4 00001E50 00000001     V   12152  4942   6280
1VPM      (VPM00) (09:49) (22MAR04) Ordinary Symbol and Literal Cross Reference                                             Page  147
 =V(CLEANTRP)
               4 00002EDC 00000001     V   14577 13687
 =V(CLEANUP)
               4 00001E20 00000001     V   12140  3824   7456  11273
 =V(CLRENQS)
               4 00002ED4 00000001     V   14575 13166
 =V(CLRIDTS)
               4 00002ED0 00000001     V   14574 13138
 =V(CLRLP)
               4 00001E1C 00000001     V   12139  3747  11278
 =V(DQSCAN)
               4 00001F38 00000001     V   12202 11673
 =V(DTB)       4 00001EC8 00000001     V   12174  7996
 =V(EVAL)      4 00001F10 00000001     V   12192 10658  10693
 =V(EVHEX)
               4 00001ED4 00000001     V   12177  8428
 =V(FREECLW)
               4 00001E24 00000001     V   12141  3841  10015
 =V(FREECLW)
               4 00002EE0 00000001     V   14578 14067
 =V(FSUB#COM)
               4 00001F40 00000001     V   12204 12096
 =V(GETCLW)
               4 00001E10 00000001     V   12136  3706  11362  11515
 =V(GETLINE)
               4 00001E44 00000001     V   12149  4869   4966   5067
 =V(LDALIAS)
               4 00001E60 00000001     V   12156  5297
 =V(LDCHANGE)
               4 00001E64 00000001     V   12157  5356
 =V(LDFIND)
               4 00001E6C 00000001     V   12159  5447   5554   7218   8339   9430   9642
 =V(LDFIX)
               4 00001EF4 00000001     V   12185  9597
 =V(LDGO)      4 00001E54 00000001     V   12153  4982
 =V(LDINIT)
               4 00001F2C 00000001     V   12199 11368  11521
 =V(LDMIGO)
               4 00001EEC 00000001     V   12183  9472
 =V(LDMIINIT)
               4 00001EE8 00000001     V   12182  9449
 =V(LDMOGO)
               4 00001EBC 00000001     V   12171  7282
 =V(LDMOINIT)
               4 00001EB8 00000001     V   12170  7173
 =V(LDNEXT)
               4 00001E8C 00000001     V   12167  6136
 =V(LDPAGE)
               4 00001EC0 00000001     V   12172  7672   7683
 =V(LDREPDEL)
               4 00001ECC 00000001     V   12175  8313
 =V(LDSET)
               4 00001E88 00000001     V   12166  6124
 =V(PLCOFERR)
               4 00001E28 00000001     V   12142  3902
 =V(PLCOFERR)
               4 00002EBC 00000001     V   14569 12808
 =V(POPLNKST)
               4 00001E40 00000001     V   12148  4858   5936   6448
1VPM      (VPM00) (09:49) (22MAR04) Ordinary Symbol and Literal Cross Reference                                             Page  148
 =V(READCORE)
               4 00001F04 00000001     V   12189 10520
 =V(RITECORE)
               4 00001F08 00000001     V   12190 10538
 =V(SCAN)      4 00001E30 00000001     V   12144  3973   4914   5245   5736   5978   6058   6869   7727   8372   8407
                                                  8494   8628   9013   9042   9567  10496  10899  10942  11048  11073
                                                 11115  11264
 =V(SCINIT)
               4 00001E48 00000001     V   12150  4895   5099   8997  11019  11096  11245
 =V(SCTELL)
               4 00001E68 00000001     V   12158  5374  10924
 =V(SETPUB)
               4 00001EE0 00000001     V   12180  9115
 =V(STOPMON)
               4 00002ECC 00000001     V   14573 13125
 =V(TYPEIT)
               4 00001E18 00000001     V   12138  3720   3906
 =V(TYPEIT)
               4 00002EC0 00000001     V   14570 12812
 =V(UNPRS)
               4 00001E38 00000001     V   12146  4708   8970
 =V(UNPRS)
               4 00002EE4 00000001     V   14579 14284
 =V(VREAD)
               4 00001F24 00000001     V   12197 11222
 =V(VSEG)      4 00001E14 00000001     V   12137  3716   5053   5392   5501   5517   6572   7571   7609  12084  12124
 =V(VSEG)      4 00002EB8 00000001     V   14568 12722  12790
 =V(VWRITE)
               4 00001E58 00000001     V   12154  5057   5396   5505   5521   6338   6400   6576   7527   7575   7613
                                                 11896
 =V(XTB)       4 00001ED0 00000001     V   12176  8378   8413
 =X'0FFFFFFF'
               4 00001F14 00000001     X   12193 10697
 =X'00FFFFFC'
               4 00001EFC 00000001     X   12187 10351
 =X'00FFFFFF'
               4 00001F18 00000001     X   12194 10714
 =X'7FFFFFFF'
               4 00001F0C 00000001     X   12191 10612
 =X'7FFFF000'
               4 00001EF8 00000001     X   12186  9669   9986
 =Y((RAR+1-(BR)+16*((BR)/(RAR+1))/((BR)/(RAR+1)))*4)
               2 00002EFA 00000001     Y   14587 14512  14557
 =Y((RAR+1-(SR)+16*((SR)/(RAR+1))/((SR)/(RAR+1)))*4)
               2 00001F70 00000001     Y   12215  9484  10974  11124
 =Y((R1+1-(RAR)+16*((RAR)/(R1+1))/((RAR)/(R1+1)))*4)
               2 00001F6C 00000001     Y   12213  7623
 =Y((R15+1-(R14)+16*((R14)/(R15+1))/((R14)/(R15+1)))*4)
               2 00001F6E 00000001     Y   12214  8069
 =Y((TR+1-(SR)+16*((SR)/(TR+1))/((SR)/(TR+1)))*4)
               2 00002EF4 00000001     Y   14584 14155
 =Y(3)         2 00001F68 00000001     Y   12211  6885
 =Y(4)         2 00001F66 00000001     Y   12210  6763  11276  11372  11484  11525  12087  12127
 =Y(4)         2 00002EF0 00000001     Y   14582 12824
 =Y(4096)      2 00001F6A 00000001     Y   12212  7254  10282
 =Y(4096)      2 00002EF2 00000001     Y   14583 13467  13522
 =Y(8)         2 00001F62 00000001     Y   12208  5837  10903  10953

1VPM      (VPM00) (09:49) (22MAR04) Macro and Copy Code Source Summary                                                      Page  149
- Con Source                                        Volume    Members                        HLASM R4.0  2004/03/22 09.49
0     PRIMARY INPUT                                           BTX      CSECT    DROP     END      EX       LSCAN
                                                              LTORG    POP      PRINT    PUSH     START    USING
   L2 WYL.GG.SYS.MACLIB                             SYSB05    $BC      $BFLKUP  $BV      $CCLKUP  $CRS     $CSS     $L
                                                              $LA      $LBLAD   $LEXP    $LOR     $REL     $RGLKUP
                                                              $USLKUP  BASE     BEGIN    CEIL     CLEAR    CSECT    DATA
                                                              DECR     DEFCC    DEX      DROP     ELSE     END      EX
                                                              FLAG     GEN      HIBAL    IDENT    IF       INCR
                                                              LABEL    LC       LCALL    LCM      LS       LT       LTH
                                                              LTORG    L3       POP      PRINT    PUSH     RECORD   REG
                                                              REGS     SET      SETMSG   START    SYSLR    SYSQS
                                                              USING    VCALL    WITH
   L3 WYL.GG.ORV.BC.MACLIB                          SYSB02    CLPSERV  CLW      CSD      DENTRY   DIRB     FREECLW
                                                              FSCALL   GENMSGS  GETCLW   GPW      LCB      ORVDEFN
                                                              OSFPB    PRGCAT   SCAN     SCANCB   SCINIT   SCKW
                                                              SCRTN    SCTELL   SEG      SMFDATA  UNPRS    VENTER
                                                              VEXIT    VPMTAB   VPOP     VPUSH    VREAD    VREST    VSA
                                                              VSAVE    VSEG     VWRITE   WYLMDWD  XCALL
   L4 WYL.GG.ORV.MACLIB                             SYSB02    SCP      SPB
   L5 SYS3.ORVYL.UMACLIB                            SYSB02    CALLSYS  DETACH   SENSE    SYSKWT   VSET     WAIT
                                                              WRITE    XIT
   L6 SYS3.IS.MACLIB                                SYSB05    SYSDEFN

1         (VPM00) (09:49) (22MAR04) General Purpose Register Cross Reference                                                Page  150
- Register  References (M=modified, B=branch, U=USING, D=DROP, N=index)                      HLASM R4.0  2004/03/22 09.49
0    0(0)      983U   984D  3660   3713M  3851M  3916M  4267   4746M  4746   4754M  4755M  4755   5050M  5089M  5184
              5197M  5443M  5472M  5514M  5591   5829M  5835M  5835   5837   5839   5840   6164M  6164   6165M  6175
              6310M  6569M  6796   6818M  6885   7256M  7273M  7561   7568M  7606M  7624M  7630   7650   7982   7990M
              8344M  8344   8350   8380M  8380   8415M  8415   8422M  8431   8433   8779M  9069   9196M  9228M  9336M
              9337   9468M  9487M  9487   9501   9711M  9755M  9947M  9999M 10000M 10001  10116M 10130  10133M 10150M
             10150  10156  10158M 10174  10223M 10269M 10291M 10427M 10516M 10533M 10586M 10587  10662  10697M 10714M
             10719M 10719  10721  10837M 10837  10838M 10903  10926  10950M 10952M 10953  10957  10971  10976M 10976
             11009M 11024M 11024  11054  11086M 11397M 11415M 11416  11417  11426M 11651M 11652M 11652  11662M 11664M
             11676  11774M 11820M 11820  12106M 12106  12107M 12724M 12724  12861  12927M 12933  12939M 12941  12942
             12981M 12985M 12991M 12992  13000M 13032M 13178M 13199M 13220M 13241M 13262M 13331M 13331  13332  13333
             13334  13335  13336  13426M 13450M 13450  13477M 13503M 13565M 13579M 13580  13616M 13625M 13696M 13717M
             13738M 13801M 13825M 13903M 13920M 13928M 13939  13964M 13984M 14118M 14121M 14288  14310M 14378M 14379M
             14380
     1(1)      979U  3660   3696M  3712M  3728   3735   3831M  3916M  3957M  4267   4277M  4372   4692   4705M  4712M
              4723M  4753M  4754M  4768M  4773M  4898M  5031M  5043M  5073M  5085M  5204M  5229M  5251M  5256M  5280M
              5337M  5414M  5423M  5436M  5450M  5450   5456M  5457M  5457   5465   5479M  5513M  5557M  5557   5590M
              5591M  5592   5596M  5601M  5602   5606M  5611M  5616M  5692M  5693   5698M  5700   5720M  5787M  5829M
              5962M  6006M  6007   6014M  6042M  6076M  6088   6303M  6313M  6498M  6508   6568M  6587M  6588   6730M
              6740U  6758U  6817M  6859M  6859   7215M  7221M  7221   7236D  7238M  7238   7239M  7240U  7249   7255M
              7496M  7514M  7561   7567M  7599M  7624M  7630   7711M  7789M  7981   8294M  8342M  8342   8350   8362M
              8362   8397M  8397   8424M  8456M  8479   8484M  8484   8513M  8518M  8523M  8528M  8612M  8778M  8940
              8967M  8974   8982M  9003M  9003   9026M  9115M  9116B  9195M  9221M  9247   9248   9267M  9267   9286M
              9301M  9301   9334M  9335M  9337   9427M  9433M  9433   9468   9469M  9500   9502M  9519   9551M  9604M
              9621M  9639M  9653M  9653   9666   9667M  9668M  9669M  9671   9694   9703M  9760M  9858M  9860M  9861
              9984M  9985M  9986M  9987   9999  10043M 10044  10060M 10061M 10062  10131  10134M 10151M 10151  10157
             10175M 10176  10230M 10281M 10283M 10309  10311M 10350N 10352  10355M 10356  10420M 10430M 10442M 10452U
             10469U 10480M 10515M 10534M 10600M 10602M 10603  10737M 10741M 10745M 10749M 10771M 10889M 10889  10927
             10932M 10932  10948M 10956  10969M 10970  10995M 11004M 11038M 11038  11063M 11063  11081M 11099M 11118M
             11217M 11248M 11354M 11365  11389M 11414  11417M 11463M 11473U 11491U 11507M 11518  11590M 11595M 11600M
             11643M 11651M 11660M 11670M 11702M 11709M 11718M 11727M 11736M 11741M 11751M 11756M 11767M 11839M 11844M
             11864M 11929M 11933M 11944M 11948M 11955M 11962M 11971M 11979M 11989M 11995M 12016M 12020M 12030M 12035M
             12107N 12108M 12108N 12861  12928M 12933M 12935M 12936  12974M 12986M 12990M 13007M 13032M 13135M 13182M
             13182  13203M 13203  13224M 13224  13245M 13245  13266M 13266  13285M 13295U 13343U 13438M 13440  13455M
             13577M 13578  13609M 13632M 13700M 13700  13721M 13721  13806M 13830M 13907M 13907  13919M 13988M 13988
             14041M 14042M 14042  14119M 14121M 14252M 14256M 14281M 14289M 14290  14292  14309M 14363  14420
     2(2)      975U  3632   3725M  3850   3855M  4286M  4287   4296M  4692M  4713   4753   4793   4823M  4824M  4825
              5304M  5305M  5305   5314U  5318M  5559M  5567U  5570U  5624U  5692M  5840M  5844M  5846   5985M  5997
              6006N  6008M  6009M  6009N  6133M  6175   6497M  6508   6587N  6589M  6590M  6590N  7409M  7410M  7410
              7421U  7442M  7443M  7443   7452U  7985M  7988M  8000M  8000   8349M  8349   8350   8385M  8388M  8436B
              8950M  8951   8974M  9248M  9352U  9442   9485M  9500M  9502   9510M  9842M 10312M 10313M 10313  10325
             10326  10350M 10351M 10354  10806  10859M 10883  10912  10926M 10956M 10966M 10970M 10971M 10975M 11009
             11032  11053M 11081  11125M 12093  12616  12822M 12847  12851M 12861  12924M 12941M 12983M 13032M 13086
             13440M 13441M 13523M 14107M 14116  14121M 14142M 14143  14156M 14226M 14227  14249  14259M 14260  14261M
             14262M 14263  14281N 14408M 14409M 14410  14411  14547M 14548M 14549
     3(3)      971U  3632   3725M  3851   3855M  4714M  4722   5694M  5695   7050M  7981M  7982M  7984M  7999M  8000M
              8020   8022M  8031   8063   8355M  8356M  8356   8390M  8391M  8391   8418   8421M  8431   8433M  8435M
              8439   8461   8950M  8951   9442   9485M  9501M  9503   9509M  9521M  9521  10806  10850M 10851M 10853
             10859M 10883  10912  10927M 10957M 10967M 10975M 11004  11032  11054M 11056M 11058M 11086  11125M 12093
             12616  12851M 12861  12893M 12899M 12912  12919M 12924N 12942M 12947M 12992M 13014N 13032M 13086  13443M
             13455  13467M 13522M 14107M 14116  14120M 14120  14121M 14122M 14131U 14156M 14163U 14230M 14249M 14251M
             14257M 14258  14289
     4(4)      967U  3632   3725M  3855M  4717D  4719M  4719   4720M  4721U  4722M  4723   4724   6316M  6328   6334M
              6390   6578M  8390M  8420M  8940M  8948U  9059U  9442   9485M  9503M  9506   9508M  9509   9510N  9511
              9519  10806  10859M 10883  10912  10975M 11032  11125M 12093  12616  12851M 12861  13032M 13086  13444M
             13445M 14107M
1         (VPM00) (09:49) (22MAR04) General Purpose Register Cross Reference                                                Page  151
     5(5)      963U  3632   3725M  3855M  9442   9485M 10806  10859M 10883  10912  10975M 11032  11125M 12093  12616
             12851M 12861  13032M 13086  14107M
     6(6)      959U  3632   3649M  3658U  3725M  3755M  3779   3855M  9442   9485M 10806  10859M 10883  10912  10975M
             11032  11125M 11789U 11818U 12093  12096M 12097B 12616  12636M 12851M 12861  13032M 13086  14107M
     7(7)      955U  3632   3637M  3647U  3649   3725M  3755M  3763U  3766U  3779   3855M  9442   9485M 10806  10859M
             10883  10912  10975M 11032  11125M 11783U 11810U 11841  11846  11866  11931  11939  11946  11950  11957
             11964  11977  11981  11991  12037  12093  12616  12621M 12631U 12634U 12851M 12861  12866M 12876U 12879U
             13032M 13043U 13086  13091M 13101U 14107M 14171  14175M 14513M 14521  14525M 14558M
     8(8)      951U  3618U  3632   3633M  3724   3725M  3779   3854   3855M  9442   9485M 10806  10807M 10858  10859M
             10883  10912  10975M 11032  11125M 11798U 12093  12094M 12616  12617M 12850  12851M 12861  12862M 12888U
             13031  13032M 13062U 13065U 13086  13087M 14106  14107M 14171  14513M 14521  14558M
     9(9)      947U  3632   3706M  3707M  3707B  3716M  3717M  3717B  3720M  3721M  3721B  3725M  3726B  3747M  3748M
              3748B  3782M  3795M  3798M  3824M  3825M  3825B  3841M  3842M  3842B  3855M  3857B  3862M  3902M  3903M
              3903B  3906M  3907M  3907B  3909M  4000M  4161M  4171M  4278M  4348M  4356M  4390M  4394M  4442M  4528M
              4689M  4708M  4709M  4709B  4769M  4774M  4851M  4854M  4858M  4859M  4859B  4869M  4870M  4870B  4942M
              4943M  4943B  4966M  4967M  4967B  4974M  4979M  4982M  4983M  4983B  4990M  5032M  5053M  5054M  5054B
              5057M  5058M  5058B  5064M  5067M  5068M  5068B  5074M  5252M  5257M  5278M  5281M  5290M  5293M  5297M
              5298M  5298B  5306B  5335M  5338M  5347M  5351M  5356M  5357M  5357B  5392M  5393M  5393B  5396M  5397M
              5397B  5406M  5415M  5421M  5424M  5444M  5447M  5448M  5448B  5501M  5502M  5502B  5505M  5506M  5506B
              5517M  5518M  5518B  5521M  5522M  5522B  5528M  5537M  5550M  5554M  5555M  5555B  5595M  5607M  5612M
              5617M  5634M  5658M  5668M  5788M  5832M  5875M  5932M  5936M  5937M  5937B  5955M  5959M  5983M  6015M
              6035M  6039M  6063M  6074   6124M  6125M  6125B  6136M  6137M  6137B  6280M  6281M  6281B  6311M  6314M
              6338M  6339M  6339B  6400M  6401M  6401B  6428M  6448M  6449M  6449B  6572M  6573M  6573B  6576M  6577M
              6577B  6595M  6631M  6651M  6764M  6765B  6776M  6778M  6781M  6813M  6821M  6825M  6915M  6929M  6969M
              7038M  7062M  7115M  7167M  7170M  7173M  7174M  7174B  7177M  7196M  7218M  7219M  7219B  7279M  7282M
              7283M  7283B  7404M  7438M  7456M  7457M  7457B  7478M  7497M  7515M  7522M  7527M  7528M  7528B  7540M
              7561   7571M  7572M  7572B  7575M  7576M  7576B  7609M  7610M  7610B  7613M  7614M  7614B  7624M  7627M
              7630   7636M  7649M  7653M  7657M  7667M  7672M  7673M  7673B  7676M  7683M  7684M  7684B  7790M  8295M
              8303M  8308M  8313M  8314M  8314B  8333M  8335M  8339M  8340M  8340B  8428M  8429M  8429B  8457M  8511M
              8514M  8519M  8524M  8529M  8597M  8632M  8782M  8788M  8802M  8840M  8844M  8888M  8938M  8970M  8971M
              8971B  9019M  9023M  9047M  9051M  9064M  9137M  9199M  9269M  9292M  9320M  9331M  9333M  9341M  9344M
              9359M  9420M  9423M  9430M  9431M  9431B  9442   9445M  9449M  9450M  9450B  9461M  9466M  9472M  9473M
              9473B  9482M  9485M  9486B  9516M  9549M  9587M  9593M  9597M  9598M  9598B  9601M  9642M  9643M  9643B
              9857M  9939M  9951M 10015M 10016M 10016B 10108M 10428M 10431M 10441M 10478M 10520M 10521M 10521B 10538M
             10539M 10539B 10658M 10659M 10659B 10693M 10694M 10694B 10738M 10742M 10746M 10750M 10772M 10806  10859M
             10860B 10867M 10883  10912  10975M 10977B 10993M 10996M 11032  11119M 11125M 11126B 11161B 11187B 11214
             11218M 11222M 11223M 11223B 11269  11273M 11274M 11274B 11277M 11347  11362M 11363M 11363B 11368M 11369M
             11369B 11373M 11459  11462M 11482M 11485M 11500  11515M 11516M 11516B 11521M 11522M 11522B 11526M 11591M
             11596M 11601M 11618B 11644M 11653B 11684B 11700M 11703M 11710M 11715M 11719M 11724M 11728M 11733M 11737M
             11742M 11748M 11752M 11757M 11775M 11837M 11840M 11845M 11862M 11865M 11871M 11890M 11896M 11897M 11897B
             11930M 11934M 11945M 11949M 11956M 11963M 11968M 11972M 11975M 11980M 11986M 11990M 11996M 12017M 12021M
             12031M 12036M 12050B 12061B 12067  12084M 12085M 12085B 12088M 12089B 12093  12101  12124M 12125M 12125B
             12128M 12129B 12616  12640  12643M 12722M 12723M 12723B 12790M 12791M 12791B 12808M 12809M 12809B 12812M
             12813M 12813B 12825M 12834M 12834  12842M 12851M 12853B 12861  13032M 13033B 13086  13125M 13126M 13126B
             13138M 13139M 13139B 13166M 13167M 13167B 13348M 13687M 13688M 13688B 14067M 14068M 14068B 14107M 14108B
             14157B 14171  14284M 14285M 14285B 14359M 14383M 14417M 14500M 14505M 14513M 14515B 14521  14558M 14559B
    10(A)      943U  3609U  3632   3725M  3855M  7561   7624M  7630  12616  12644M 12851M 12861  13032M 14153
    11(B)      939U  3632   3670M  3725M  3735M  3743U  3796M  3831   3855M  3863M  7561   7624M  7630  12616  12851M
             13050U 13076U 14118
    12(C)      935U  3627U  7561   7624M  7630  12616  12851M
    13(D)      931U  3632   3633   3634M  3634   3724M  3725   3854M  3855   6074   6075M  6075   6763M  6764   7561
              7561   7562M  7562   7623M  7624M  7624   7630   7630   7631M  7631   7992   7993M  7993   8069M  8070
              8424   8425M  8425   8479M  9442   9443M  9443   9484M  9485  10806  10807  10808M 10808  10858M 10859
             10883  10884M 10884  10912  10913M 10913  10974M 10975  11032  11033M 11033  11124M 11125  11214  11215M
             11215  11269  11270M 11270  11276M 11277  11347  11348M 11348  11372M 11373  11459  11460M 11460  11484M
             11485  11500  11501M 11501  11525M 11526  12067  12068M 12068  12087M 12088  12093  12094  12095M 12095
             12101  12102M 12102  12127M 12128  12616  12616  12617  12618M 12618  12640  12641M 12641  12824M 12825
             12850M 12851M 12851  12861  12862  12863M 12863  13031M 13032  13086  13087  13088M 13088  14106M 14107
             14116  14117M 14117  14155M 14156  14171  14172M 14172  14512M 14513  14521  14522M 14522  14557M 14558
1         (VPM00) (09:49) (22MAR04) General Purpose Register Cross Reference                                                Page  152
    14(E)      927U  3973M  3974M  3974B  4122B  4198B  4213B  4228B  4243B  4257B  4274B  4895M  4896M  4896B  4914M
              4915M  4915B  5099M  5100M  5100B  5245M  5246M  5246B  5374M  5375M  5375B  5482M  5483M  5483B  5736M
              5737M  5737B  5784B  5978M  5979M  5979B  6058M  6059M  6059B  6199M  6207U  6243U  6686   6869M  6870M
              6870B  7550U  7558U  7561   7577M  7587U  7620U  7624M  7630   7727M  7728M  7728B  7840B  7889B  7929B
              7979B  7992   7996M  7997M  7997B  8070M  8077B  8098B  8119B  8140B  8163B  8184B  8205B  8226B  8247B
              8268B  8289B  8372M  8373M  8373B  8378M  8379M  8379B  8407M  8408M  8408B  8413M  8414M  8414B  8494M
              8495M  8495B  8610M  8628M  8629M  8629B  8997M  8998M  8998B  9013M  9014M  9014B  9042M  9043M  9043B
              9077B  9091B  9105B  9567M  9568M  9568B 10128  10326M 10329M 10331  10496M 10497M 10497B 10610B 10619B
             10634B 10899M 10900M 10900B 10924M 10925M 10925B 10942M 10943M 10943B 11019M 11020M 11020B 11048M 11049M
             11049B 11073M 11074M 11074B 11096M 11097M 11097B 11115M 11116M 11116B 11245M 11246M 11246B 11264M 11265M
             11265B 11673M 11674M 11674B 12616  12851M 12931M 12932M 12932B 12956D 12958M 12958  12959M 12960U 13583M
             13584M 13585M 13595M 14293
    15(F)      923U  3660   3703M  3838M  3850M  3856M  3856   3916M  3919N  3970M  4044M  4700M  4713M  4724M  4892M
              4911M  5096M  5184M  5185M  5242M  5371M  5465M  5559   5596   5597M  5598   5600   5733M  5975M  6055M
              6146M  6146   6159U  6261U  6303   6866M  7193M  7230U  7246U  7561   7624M  7630   7650M  7724M  7992
              7999   8001M  8011U  8029U  8070M  8369M  8382   8404M  8417M  8418   8420   8421   8491M  8625M  8669M
              8679U  8692U  8804M  8804   8876M  8876   8960M  8994M  9010M  9039M  9147M  9147   9214M  9238M  9238
              9511M  9564M  9607M  9608M  9608   9621   9670M  9694M  9765M  9982M  9983M  9987M 10070M 10080U 10105U
             10129  10159M 10169U 10196U 10237M 10281N 10282M 10283  10493M 10517M 10523N 10535M 10896M 10921M 10939M
             11016M 11045M 11070M 11093M 11112M 11122M 11242M 11261M 11278M 11279B 11359M 11406M 11406  11418M 11477M
             11478  11479M 11480  11512M 12045M 12046M 12047B 12057M 12058B 12672  12695  12702  12741M 12741  12800M
             12800  12822  12847M 12852M 12852  12926M 12967M 13014M 13362M 13372U 13417U 13438  13464N 13489M 13515M
             13526M 13536U 13549U 13581M 13582  13584M 13585M 13586  13602M 13639M 13755M 13765U 13773M 13774M 13774
             13781U 13811M 13835M 13939M 14026M 14027M 14027  14274M 14298M 14298  14484M 14485M 14485  14510M 14514M
             14514

1VPM      (VPM00) (09:49) (22MAR04) Diagnostic Cross Reference and Assembler Summary                                        Page  153
-                                                                                            HLASM R4.0  2004/03/22 09.49
0     No Statements Flagged in this Assembly
 HIGH LEVEL ASSEMBLER, 5696-234, RELEASE 4.0, PTF UQ57391
0SYSTEM: OS/390 02.10.00            JOBNAME: PJG#VPM     STEPNAME: ASM        PROCSTEP: (NOPROC)
0Datasets Allocated for this Assembly
  Con DDname   Dataset Name                                 Volume  Member
   P1 SYSIN    SYS04082.T094903.RA000.PJG#VPM.INPUT.H01     SCR101
   L1 SYSLIB   SYS3.DUMMYMAC                                SYSB02
   L2          WYL.GG.SYS.MACLIB                            SYSB05
   L3          WYL.GG.ORV.BC.MACLIB                         SYSB02
   L4          WYL.GG.ORV.MACLIB                            SYSB02
   L5          SYS3.ORVYL.UMACLIB                           SYSB02
   L6          SYS3.IS.MACLIB                               SYSB05
      SYSLIN   WYL.GG.PJG.OBJ                               SYSB05  VPM
      SYSPRINT SYS04082.T094903.RA000.PJG#VPM.PRINT.H01     SCR101
      SYSTERM  GG$PJG.PJG#VPM.JOB05997.D0000103.?

    7812K allocated to Buffer Pool,         1985K would be required for this to be an In-Storage Assembly
    2753 Primary Input Records Read         4960 Library Records Read                  0 Work File Reads
       0 ASMAOPT Records Read               9847 Primary Print Records Written         0 Work File Writes
     284 Punch Records Written                 0 ADATA Records Written
0Assembly Start Time: 09.49.06 Stop Time: 09.49.14 Processor Time: 00.00.03.2558
 Return Code 000
