1M1SERV   (M1SE00) (09:42) (22MAR04) ORVYL'S Mode 1 Set SVC                                                                 Page  298
0Current Usings:  (PZERO,R0) (SCP,R7) (SET14,R10)
0Loc    Object Code    Addr1 Addr2  Stmt Lv Lineno    Source Statement           (Hibal 5, Asmedit 3.3)  HLASM R4.0  2004/03/22 09.42
+___    ______ ____    _____ _____  ____ __ ______    ______ _________
0                                  42902    6315.     *
                                   42903    6316.     * Validate minimum and maximum values
                                   42904    6317.     *
 00542E A06A           0542E 05428 42905    6318.              ELSE  BEGIN
 00542E 47F0 A094            0545C 42910             +
 005432 4130 3FFF            00FFF 42916  1 6319.                LA    RB,@RB+4095             ROUND MAXIMUM UP
 005436 5430 A3B0            05778 42917  1 6320.                N     RB,=X'00FFF000'          TO 4K INCREMENT
 00543A 8830 000C            0000C 42918  1 6321.                SRL   RB,12                   TO PAGE COUNT
 00543E 1923/47D0 A088       05450 42919  1 6322.                IF    (RA,GT,RB),BEGIN        MIN GREATER THAN MAX
 005444 9206 71A9      001A9       42934  2 6323.                  MVI   SCPPANSY,PANSPEC        SET CODE FOR SPEC
 005448 9610 7265      00265       42935  2 6324.                  SET   SCBXP                   MARK USER FOR PANIC
 00544C 47F0 A106            054CE 42941  2 6325.                  EXIT  SET14
 005450                            42944  1 6326.                END   ,
 005450 4930 71FA            001FA 42948  1 6327.                CEIL  RB,SCPUNRSV             NEVER MORE THAN AVAILABLE
 005454 47D0 A094            0545C 42952  1          +
 005458 4830 71FA            001FA 42953  1          +
 00545C                            42954    6328.              END    ,
 00545C 1233/4770 A0A4       0546C 42958    6329.              IF    (RB,Z),BEGIN
 005462 D203 704C A3AC 0004C 05774 42972  1 6330.                MVC   SCPGPRS+15*4,=A(4)      NOT ENOUGH AVAILABLE
 005468 47F0 A106            054CE 42973  1 6331.                EXIT  SET14
 00546C                            42976    6332.              END   ,
                                   42980    6333.     *
                                   42981    6334.     *  Parameters ok - request the memory
                                   42982    6335.     *
 00546C 8920 000C            0000C 42983    6336.              SLL   RA,12                   BACK TO BYTES
 005470 8930 000C            0000C 42984    6337.              SLL   RB,12                   DITTO
 USING  @VMGET-72,R13              42985    6338.              VMGET (RA),MAX=(RB),LOC=LOCUSR,KEY=USER,PAGE=YES
 005474 D70A D048 D048 00000 00000 43009             +
 00547A 5020 D048            00000 43019             +
 00547E D201 D050 A42C 00008 057F4 43020             +
 005484 9680 D052      0000A       43026             +
 005488 5030 D04C            00004 43036             +
 00548C 58F0 A404/0DEF       057CC 43039             +
 005492 1220/4770 A0DA       054A2 43041    6339.              IF    ('LTR  RA,RVR',Z),BEGIN
 005498 D203 704C A3AC 0004C 05774 43054  1 6340.                MVC   SCPGPRS+15*4,=A(4)      NOT ENOUGH AVAILABLE
 00549E 47F0 A106            054CE 43055  1 6341.                EXIT  SET14
 0054A2                            43058    6342.              END   ,
                                   43062    6343.     * -->
                                   43063    6344.     *  Do stats here
 0054A2 5880 0200            00200 43064    6345.              L     RM,MATPTR
 0054A6 5880 8010            00010 43065    6346.              WITH  (MAT,RM),'L RM,MATM1CT'
 USING  MAT,R8
 DROP   MAT,R8
 0054AA 5880 8068            00068 43089    6347.              WITH  (M1CT,RM),'L RM,CTVMSTAT'
 USING  M1CT,R8
 DROP   M1CT,R8
 0054AE 58F0 D048            00000 43113    6348.              L     R15,@VMGLEN             --> len
 0054B2 1802                       43114    6349.              LR    R0,RA                   --> loc
 0054B4 4D90 A252            0561A 43115    6350.              BAS   RN,VMRTNLOG             -->
                                   43116    6351.     *
                                   43117    6352.     *  Set returns and fix up reserve counts
                                   43118    6353.     *
 0054B8 5020 7014            00014 43119    6354.              ST    RA,SCPGPRS+1*4          SET LOCATION
 0054BC D203 7010 D048 00010 00000 43120    6355.              MVC   SCPGPRS+0*4(4),@VMGLEN   ACTUAL LENGTH
1M1SERV   (M1SE00) (09:42) (22MAR04) ORVYL'S Mode 1 Set SVC                                                                 Page  299
0Current Usings:  (PZERO,R0) (SCP,R7) (SET14,R10) (@VMGET-72,R13)
0Loc    Object Code    Addr1 Addr2  Stmt Lv Lineno    Source Statement           (Hibal 5, Asmedit 3.3)  HLASM R4.0  2004/03/22 09.42
+___    ______ ____    _____ _____  ____ __ ______    ______ _________
00054C2 D203 704C A3A8 0004C 05770 43121    6356.              MVC   SCPGPRS+15*4,=A(0)      GOOD COMPLETION
 0054C8 58F0 A408/0DEF       057D0 43122    6357.              ACALL VMUPDAT
 0054CE 981F C008            00008 43129    6358.              PEND
 DROP   SCP,R7
 DROP   SET14,R10
 0054D2 9680 C000/0B0E 00000       43144             +
 DROP   @VMGET-72,R13
1M1SERV   (M1SE00) (09:42) (22MAR04) ORVYL'S Mode 1 Set SVC                                                                 Page  300
0Current Usings:  (PZERO,R0)
0Loc    Object Code    Addr1 Addr2  Stmt Lv Lineno    Source Statement           (Hibal 5, Asmedit 3.3)  HLASM R4.0  2004/03/22 09.42
+___    ______ ____    _____ _____  ____ __ ______    ______ _________
0                                  43154    6360.     *******************************************************************
                                   43155    6361.     *                                                                 *
                                   43156    6362.     *    SET 15 - Release memory                                      *
                                   43157    6363.     *                                                                 *
                                   43158    6364.     *                                                                 *
                                   43159    6365.     *     Input - RY Points to SCP                                    *
                                   43160    6366.     *                                                                 *
                                   43161    6367.     *    Output -                                                     *
                                   43162    6368.     *                                                                 *
                                   43163    6369.     *                                                                 *
                                   43164    6370.     *******************************************************************
-
 0054D8                            43166    6372.     SET15    PROC  ,SCOPE=LOCAL
 0054D8 E2C5E3F1F5404040           43173             +
 0054E0 0000/0000                  43174             +
 0054E4 900F D004/18AF       00004 43176             +
 USING  SET15,R10
 0054EA 50D0 C000/18CD       00000 43191             +
 0054F0 9680 C000      00000       43193             +
 0054F4 41D0 C048            00048 43194             +
 USING  SCP,R7                     43195    6373.              WITH  (SCP,RY)
                                   43208    6374.     *
                                   43209    6375.     *  Check parameters
                                   43210    6376.     *
 0054F8 5820 7014            00014 43211    6377.              L     RA,SCPGPRS+1*4          STARTING ADDRESS
 0054FC 9180 700C      0000C       43212    6378.              TM    SCPPSW+4,X'80'      31 bit mode?
 005500 4770 A024            05508 43213    6379.              IF    Z,'N RA,=X"00FFFFFF"'
 005504 5420 A288            0576C 43225             +
 005508 5920 71F4            001F4 43230    6380.              IF    (RA,LT,SCPRRSEG),BEGIN  CAN CALLER RESERVE/RELEASE?
 00550C 47B0 A038            0551C 43242             +
 005510 9206 71A9      001A9       43247  1 6381.                MVI   SCPPANSY,PANSPEC        SET CODE FOR SPEC
 005514 9610 7265      00265       43248  1 6382.                SET   SCBXP                   MARK USER FOR PANIC
 005518 47F0 A12C            05610 43254  1 6383.                EXIT  SET15
 00551C                            43257    6384.              END   ,
                                   43261    6385.     *
                                   43262    6386.     *  Check length
                                   43263    6387.     *
 00551C 5830 704C            0004C 43264    6388.              L     RB,SCPGPRS+15*4         LENGTH
 005520 1233                       43265    6389.              LTR   RB,RB
 005522 4770 A04C            05530 43266    6390.              IF    Z,BEGIN
 005526 D203 704C A28C 0004C 05770 43277  1 6391.                MVC   SCPGPRS+15*4,=A(0)      NULL REQUEST
 00552C 47F0 A12C            05610 43278  1 6392.                EXIT  SET15
 005530                            43281    6393.              END   ,
 005530 47B0 A05C            05540 43285    6394.              IF    M,BEGIN                 INVALID REQUEST
 005534 9206 71A9      001A9       43296  1 6395.                MVI   SCPPANSY,PANSPEC        SET CODE FOR SPEC
 005538 9610 7265      00265       43297  1 6396.                SET   SCBXP                   MARK USER FOR PANIC
 00553C 47F0 A12C            05610 43303  1 6397.                EXIT  SET15
 005540                            43306    6398.              END   ,
                                   43310    6399.     *
                                   43311    6400.     *  Do stats
                                   43312    6401.     *
 005540 5880 0200            00200 43313    6402.              L     RM,MATPTR
1M1SERV   (M1SE00) (09:42) (22MAR04) ORVYL'S Mode 1 Set SVC                                                                 Page  301
0Current Usings:  (PZERO,R0) (SCP,R7) (SET15,R10)
0Loc    Object Code    Addr1 Addr2  Stmt Lv Lineno    Source Statement           (Hibal 5, Asmedit 3.3)  HLASM R4.0  2004/03/22 09.42
+___    ______ ____    _____ _____  ____ __ ______    ______ _________
0005544 5880 8010            00010 43314    6403.              WITH  (MAT,RM),'L RM,MATM1CT'
 USING  MAT,R8
 DROP   MAT,R8
 005548 5880 8068            00068 43338    6404.              WITH  (M1CT,RM),'L RM,CTVMSTAT'
 USING  M1CT,R8
 DROP   M1CT,R8
 00554C 4180 8800            00800 43362    6405.              LA    RM,2048(,RM)
 005550 58F0 704C            0004C 43363    6406.              L     R15,SCPGPRS+15*4        --> length
 005554 1802                       43364    6407.              LR    R0,RA                   --> location
 005556 4D90 A136            0561A 43365    6408.              BAS   RN,VMRTNLOG             -->
                                   43366    6409.
 00555A 1A32                       43367    6410.              AR    RB,RA                   LAST ADDRESS+1
 00555C 5930 A2F0            057D4 43368    6411.              CEIL  RB,=A(X'01000000')
 005560 47D0 A084            05568 43371             +
 005564 5830 A2F0            057D4 43372             +
 005568 5420 A2F4            057D8 43373    6412.              N     RA,=XL4'FFF000'         ROUND TO PAGE BOUNDARY
 00556C 1843                       43374    6413.              LR    RJ,RB                   LENGTH
 00556E 0640                       43375    6414.              DECR  RJ                        last byte becomes
 005570 5440 A2F4            057D8 43377    6415.              N     RJ,=XL4'FFF000'             start of last page
 005574 5E40 A2F8            057DC 43378    6416.              AL    RJ,=XL4'001000'               start of last pg + 1 pg
 005578 1F42                       43379    6417.              SLR   RJ,RA                           and now for the length
                                   43380    6418.     *
                                   43381    6419.     *  CALL RELEASE MEMORY SERVICE
                                   43382    6420.     *
 USING  @VMFREE-72,R13             43383    6421.              VMFREE (RJ),A=(RA),LOC=LOCUSR,KEY=USER
 00557A D709 D048 D048 00000 00000 43407             +
 005580 5040 D04C            00004 43417             +
 005584 5020 D048            00000 43427             +
 005588 D201 D050 A310 00008 057F4 43428             +
 00558E 58F0 A274/0DEF       05758 43431             +
 005594 1200/4770 A0CE       055B2 43433    6422.              IF    (RVR,ZERO),BEGIN        One big free went ok
 00559A 8840 000C            0000C 43447  1 6423.                SRL   RJ,12                   Convert length to pages
 00559E 4800 71FA            001FA 43448  1 6424.                LH    R0,SCPUNRSV             Up Unreserved count
 0055A2 1E04                       43449  1 6425.                ALR   R0,RJ
 0055A4 4000 71FA            001FA 43450  1 6426.                STH   R0,SCPUNRSV
 0055A8 4800 71F8            001F8 43451  1 6427.                LH    R0,SCPRESRV             Lower Reserved Count
 0055AC 1F04                       43452  1 6428.                SLR   R0,RJ
 0055AE 4000 71F8            001F8 43453  1 6429.                STH   R0,SCPRESRV
 0055B2                            43454    6430.              END   ,
 0055B2 A0D2           055B2 05598 43458    6431.              ELSE  BEGIN                   One big free not ok
 0055B2 47F0 A126            0560A 43463             +
                                   43469  1 6432.     *
                                   43470  1 6433.     *  Now we must do the free piecemeal to see which page is really
                                   43471  1 6434.     *  not reserved.  Must act like old Orvyl you know.
                                   43472  1 6435.     *
 0055B6 1923/47B0 A126       0560A 43473  1 6436.                WHILE (RA,LT,RB),BEGIN        PARAMETER FOR PAGE CALL
 0055BC 5810 A2FC            057E0 43490  2 6437.                  L     RS,=A(4096)             LENGTH TO FREE
 0055C0                            43491  2 6438.                  VMFREE (RS),A=(RA),LOC=LOCUSR,KEY=USER
 0055C0 D709 D048 D048 00000 00000 43508  2          +
 0055C6 5010 D04C            00004 43518  2          +
 0055CA 5020 D048            00000 43528  2          +
 0055CE D201 D050 A310 00008 057F4 43529  2          +
 0055D4 58F0 A274/0DEF       05758 43532  2          +
 0055DA 1200/4780 A108       055EC 43534  2 6439.                  IF    (RVR,NZ),BEGIN          AREA NOT RESERVED
1M1SERV   (M1SE00) (09:42) (22MAR04) ORVYL'S Mode 1 Set SVC                                                                 Page  302
0Current Usings:  (PZERO,R0) (SCP,R7) (SET15,R10) (@VMFREE-72,R13)
0Loc    Object Code    Addr1 Addr2  Stmt Lv Lineno    Source Statement           (Hibal 5, Asmedit 3.3)  HLASM R4.0  2004/03/22 09.42
+___    ______ ____    _____ _____  ____ __ ______    ______ _________
00055E0 9206 71A9      001A9       43548  3 6440.                    MVI   SCPPANSY,PANSPEC        SET CODE FOR SPEC
 0055E4 9610 7265      00265       43549  3 6441.                    SET   SCBXP                   MARK USER FOR PANIC
 0055E8 47F0 A12C            05610 43555  3 6442.                    EXIT  SET15
 0055EC                            43558  2 6443.                  END   ,
 0055EC 4100 0001            00001 43562  2 6444.                  INCR  R0,SCPUNRSV             UP UNRESERVED COUNT
 0055F0 4A00 71FA            001FA 43566  2          +
 0055F4 4000 71FA            001FA 43567  2          +
 0055F8 4800 71F8/0600       001F8 43568  2 6445.                  DECR  R0,SCPRESRV             LOWER RESERVED COUNT
 0055FE 4000 71F8            001F8 43572  2          +
 005602 5A20 A2FC            057E0 43573  2 6446.                  A     RA,=A(4096)             NEXT PAGE
 005606 47F0 A0D2            055B6 43574  1 6447.                END
 00560A                            43579    6448.              END   ,                       OF One big free not ok
 00560A D203 704C A28C 0004C 05770 43583    6449.              MVC   SCPGPRS+15*4,=A(0)      GOOD COMPLETION
 005610 981F C008            00008 43584    6450.              PEND
 DROP   SCP,R7
 DROP   SET15,R10
 005614 9680 C000/0B0E 00000       43599             +
 DROP   @VMFREE-72,R13
1M1SERV   (M1SE00) (09:42) (22MAR04) ORVYL'S Mode 1 Set SVC                                                                 Page  303
0Current Usings:  (PZERO,R0)
0Loc    Object Code    Addr1 Addr2  Stmt Lv Lineno    Source Statement           (Hibal 5, Asmedit 3.3)  HLASM R4.0  2004/03/22 09.42
+___    ______ ____    _____ _____  ____ __ ______    ______ _________
0                                  43609    6452.     *  -->
                                   43610    6453.     *  Uses RJ & RK
                                   43611    6454.     *  RM points @ stat blk
                                   43612    6455.     *  RN is return addr ptr for this temp rtn
                                   43613    6456.     *  R15 is length of request
                                   43614    6457.     *  R0  is location of request
                                   43615    6458.     *
 00561A                            43616    6459.     VMRTNLOG LABEL ,                       -->
 00561A                            43618    6460.              BEGIN ,
 00561A 0D40                       43622  1 6461.                BASE  RJ
 USING  *,R4
 USING  SCP,R7                     43636  1 6462.                WITH  (SCP,RY)
 USING  VMSTAT,R8                  43649  1 6463.                WITH  (VMSTAT,RM)
                                   43662  1 6464.     *
                                   43663  1 6465.     *  Circular list of return addr, len, loc
                                   43664  1 6466.     *
 00561C 5850 8004            00004 43665  1 6467.                L     RK,VHRTNPTR             Offset to last slot
 005620 5950 41C8            057E4 43666  1 6468.                IF    (RK,GT,MXRTN),BEGIN     If it overflows, reset it
 005624 47D0 401E            0563A 43678  1          +
 005628 B205 8008      00008       43683  2 6469.                  STCK  VHSTCK
 00562C 4150 0001            00001 43684  2 6470.                  INCR  RK,VHRTNCNT
 005630 5E50 8000            00000 43688  2          +
 005634 5050 8000            00000 43689  2          +
 005638 1B55                       43690  2 6471.                  CLEAR RK
 00563A                            43694  1 6472.                END   ,
 00563A 41E5 8010            00010 43698  1 6473.                LA    R14,VHRTN(RK)
 00563E D203 E000 700C 00000 0000C 43699  1 6474.                MVC   @R14(4),SCPPSW+4        return addr
 005644 90F0 E004            00004 43700  1 6475.                STM   R15,R0,4(R14)           len, loc
 005648 4150 500C            0000C 43701  1 6476.                LA    RK,@RK+12
 00564C 5050 8004            00004 43702  1 6477.                ST    RK,VHRTNPTR             Reset offset
 005650 07F9                       43703  1 6478.                BR    RN                      Return from whence called
 DROP   VMSTAT,R8                  43704    6479.              END   ,
 DROP   SCP,R7
 DROP   *,R4                       43718    6480.              DROP  RJ                      -->
1M1SERV   (M1SE00) (09:42) (22MAR04) ORVYL'S Mode 1 Set SVC                                                                 Page  304
0Current Usings:  (PZERO,R0)
0Loc    Object Code    Addr1 Addr2  Stmt Lv Lineno    Source Statement           (Hibal 5, Asmedit 3.3)  HLASM R4.0  2004/03/22 09.42
+___    ______ ____    _____ _____  ____ __ ______    ______ _________
0                                  43726    6482.     *******************************************************************
                                   43727    6483.     *                                                                 *
                                   43728    6484.     *    SET 16 - Reserve memory at specific address                  *
                                   43729    6485.     *                                                                 *
                                   43730    6486.     *                                                                 *
                                   43731    6487.     *     Input - RY Points to SCP                                    *
                                   43732    6488.     *                                                                 *
                                   43733    6489.     *    Output -                                                     *
                                   43734    6490.     *                                                                 *
                                   43735    6491.     *                                                                 *
                                   43736    6492.     *******************************************************************
-
 005652                            43738    6494.     SET16    PROC  ,SCOPE=LOCAL
 005652 E2C5E3F1F6404040           43745             +
 00565A 0000/0000                  43746             +
 00565E 900F D004/18AF       00004 43748             +
 USING  SET16,R10
 005664 50D0 C000/18CD       00000 43763             +
 00566A 9680 C000      00000       43765             +
 00566E 41D0 C048            00048 43766             +
 USING  SCP,R7                     43767    6495.              WITH  (SCP,RY)
                                   43780    6496.     *
                                   43781    6497.     *  Check parameters
                                   43782    6498.     *
 005672 5820 7014            00014 43783    6499.              L     RA,SCPGPRS+1*4          ADDRESS
 005676 9180 700C      0000C       43784    6500.              TM    SCPPSW+4,X'80'      31 bit mode?
 00567A 4770 A024            05682 43785    6501.              IF    Z,'N RA,=X"00FFFFFF"'
 00567E 5420 A10E            0576C 43797             +
                                   43802    6502.     *
                                   43803    6503.     *  Invalid address
                                   43804    6504.     *
 005682 5920 71F4            001F4 43805    6505.              IF    (RA,LT,SCPRRSEG),BEGIN  INVALID LOCATION
 005686 47B0 A038            05696 43817             +
 00568A 9206 71A9      001A9       43822  1 6506.                MVI   SCPPANSY,PANSPEC        SET CODE FOR SPEC
 00568E 9610 7265      00265       43823  1 6507.                SET   SCBXP                   MARK USER FOR PANIC
 005692 47F0 A0BA            05718 43829  1 6508.                EXIT  SET16
 005696                            43832    6509.              END   ,
                                   43836    6510.     *
                                   43837    6511.     *  Invalid length
                                   43838    6512.     *
 005696 5830 704C            0004C 43839    6513.              L     RB,SCPGPRS+15*4         LENGTH
 00569A 1233/4720 A04E       056AC 43840    6514.              IF    (RB,NP),BEGIN
 0056A0 9206 71A9      001A9       43854  1 6515.                MVI   SCPPANSY,PANSPEC        SET CODE FOR SPEC
 0056A4 9610 7265      00265       43855  1 6516.                SET   SCBXP                   MARK USER FOR PANIC
 0056A8 47F0 A0BA            05718 43861  1 6517.                EXIT  SET16
 0056AC                            43864    6518.              END   ,
                                   43868    6519.     *
                                   43869    6520.     *  Check area boundaries
                                   43870    6521.     *
 0056AC 1A32                       43871    6522.              AR    RB,RA
 0056AE 0630                       43872    6523.              DECR  RB                      LAST BYTE OF AREA
 0056B0 5420 A17A            057D8 43874    6524.              N     RA,=XL4'FFF000'         ROUND TO PAGE BOUNDARY
1M1SERV   (M1SE00) (09:42) (22MAR04) ORVYL'S Mode 1 Set SVC                                                                 Page  305
0Current Usings:  (PZERO,R0) (SCP,R7) (SET16,R10)
0Loc    Object Code    Addr1 Addr2  Stmt Lv Lineno    Source Statement           (Hibal 5, Asmedit 3.3)  HLASM R4.0  2004/03/22 09.42
+___    ______ ____    _____ _____  ____ __ ______    ______ _________
00056B4 1B32                       43875    6525.              SR    RB,RA                   BYTE COUNT WANTED
 0056B6 4130 3FFF            00FFF 43876    6526.              LA    RB,@RB+4095             ROUND UP TO PAGES
 0056BA 8830 000C            0000C 43877    6527.              SRL   RB,12                   TO NUMBER OF 4K INCREMENTS
 0056BE 4930 71FA            001FA 43878    6528.              IF    (RB,GT,SCPUNRSV),BEGIN
 0056C2 47D0 A072            056D0 43890             +
 0056C6 D203 704C A116 0004C 05774 43895  1 6529.                MVC   SCPGPRS+15*4,=A(4)      GREATER THAN RESERVE LIMIT
 0056CC 47F0 A0BA            05718 43896  1 6530.                EXIT  SET16
 0056D0                            43899    6531.              END   ,
                                   43903    6532.     *
                                   43904    6533.     *  Request memory
                                   43905    6534.     *
 0056D0 8930 000C            0000C 43906    6535.              SLL   RB,12                   BACK TO BYTES
 USING  @VMGET-72,R13              43907    6536.              VMGET (RB),A=(RA),LOC=LOCUSR,KEY=USER,PAGE=YES
 0056D4 D70A D048 D048 00000 00000 43931             +
 0056DA 5030 D048            00000 43941             +
 0056DE D201 D050 A196 00008 057F4 43942             +
 0056E4 9680 D052      0000A       43948             +
 0056E8 5020 D04C            00004 43958             +
 0056EC 58F0 A18A/0DEF       057E8 43961             +
 0056F2 1200/4770 A0A4       05702 43963    6537.              IF    (RVR,Z),BEGIN
 0056F8 D203 704C A116 0004C 05774 43977  1 6538.                MVC   SCPGPRS+15*4,=A(4)      NOT AVAILABLE
 0056FE 47F0 A0BA            05718 43978  1 6539.                EXIT  SET16
 005702                            43981    6540.              END   ,
                                   43985    6541.     *
                                   43986    6542.     *  Set returns and fix up reserve counts
                                   43987    6543.     *
 005702 5020 7014            00014 43988    6544.              ST    RA,SCPGPRS+1*4          SET LOCATION
 005706 D203 7010 D048 00010 00000 43989    6545.              MVC   SCPGPRS+0*4(4),@VMGLEN   ACTUAL LENGTH
 00570C D203 704C A112 0004C 05770 43990    6546.              MVC   SCPGPRS+15*4,=A(0)      GOOD COMPLETION
 005712 58F0 A172/0DEF       057D0 43991    6547.              ACALL VMUPDAT
 005718 981F C008            00008 43998    6548.              PEND
 DROP   SCP,R7
 DROP   SET16,R10
 00571C 9680 C000/0B0E 00000       44013             +
 DROP   @VMGET-72,R13
1M1SERV   (M1SE00) (09:42) (22MAR04) ORVYL'S Mode 1 Set SVC                                                                 Page  306
0Current Usings:  (PZERO,R0)
0Loc    Object Code    Addr1 Addr2  Stmt Lv Lineno    Source Statement           (Hibal 5, Asmedit 3.3)  HLASM R4.0  2004/03/22 09.42
+___    ______ ____    _____ _____  ____ __ ______    ______ _________
0005728                            44023    6550.              LTORG
 005728 000000000001A0AB           44025                             =FL8'106667'
 005730 4E00000000000000           44026                             =XL8'4E00000000000000'
 005738 451A0AB000000000           44027                             =D'106667'
 005740 00000004                   44028                             =F'4'
 005744 00000000                   44029                             =V(LKOB)
 005748 00000000                   44030                             =V(VMGET)
 00574C E2E2C1C2                   44031                             =C'SSAB'
 005750 00000000                   44032                             =V(LKREL)
 005754 00000000                   44033                             =V(PAGUPROT)
 005758 00000000                   44034                             =V(VMFREE)
 00575C FFFFFFFF                   44035                             =F'-1'
 005760 0000001F                   44036                             =A(MAXPSET)
 005764 00000076                   44037                             =A(HSETBASE-MAXPSET-1)
 005768 00000025                   44038                             =A(MAXSET)
 00576C 00FFFFFF                   44039                             =X'00FFFFFF'
 005770 00000000                   44040                             =A(0)
 005774 00000004                   44041                             =A(4)
 005778 00FFF000                   44042                             =X'00FFF000'
 00577C 00004000                   44043                             =A(16*1024)
 005780 00000000                   44044                             =V(VMCHK)
 005784 00000001                   44045                             =A(1)
 005788 00000000                   44046                             =V(PAGUREF)
 00578C 00000000                   44047                             =V(CPCAN)
 005790 00000000                   44048                             =V(RTCAN)
 005794 00000000                   44049                             =V(RTSET)
 005798 00000000                   44050                             =V(CPSET)
 00579C 00000005                   44051                             =A(5)
 0057A0 00000006                   44052                             =A(6)
 0057A4 0000698A                   44053                             =A(SETEXIT)
 0057A8 00000008                   44054                             =A(8)
 0057AC 00000048                   44055                             =A(72)
 0057B0 00000000                   44056                             =V(PAGTPROT)
 0057B4 00000002                   44057                             =A(2)
 0057B8 0000003F                   44058                             =X'0000003F'
 0057BC 000006D0                   44059                             =A(UTRACE)
 0057C0 00006A76                   44060                             =A(PERCHECK)
 0057C4 0000213E                   44061                             =A(DOEXITS)
 0057C8 0000000F                   44062                             =A(15)
 0057CC 00000000                   44063                             =V(VMGETM)
 0057D0 00006A2C                   44064                             =A(VMUPDAT)
 0057D4 01000000                   44065                             =A(X'01000000')
 0057D8 00FFF000                   44066                             =XL4'FFF000'
 0057DC 00001000                   44067                             =XL4'001000'
 0057E0 00001000                   44068                             =A(4096)
 0057E4 000007E4                   44069                             =A(MXRTN)
 0057E8 00000000                   44070                             =V(VMGETS)
 0057EC 1B00                       44071                             =Y(27*256+0)
 0057EE 3000                       44072                             =Y(48*256+0)
 0057F0 2000                       44073                             =Y(32*256+0)
 0057F2 3A00                       44074                             =Y(58*256+0)
 0057F4 0000                       44075                             =Y(0*256+0)
 0057F6 0038                       44076                             =Y(L'IDT)
 0057F8 E2E2C2                     44077                             =C'SSB'
1M1SERV   (M1SE00) (09:42) (22MAR04) ORVYL'S Mode 1 Set SVC                                                                 Page  307
0Current Usings:  (PZERO,R0)
0Loc    Object Code    Addr1 Addr2  Stmt Lv Lineno    Source Statement           (Hibal 5, Asmedit 3.3)  HLASM R4.0  2004/03/22 09.42
+___    ______ ____    _____ _____  ____ __ ______    ______ _________
00057FB A2A282         058B8 07A90 44078                             =C'ssb'
1M1SERV   (M1SE00) (09:42) (22MAR04) ORVYL'S Mode 1 Set SVC                                                                 Page  308
0Current Usings:  (PZERO,R0)
0Loc    Object Code    Addr1 Addr2  Stmt Lv Lineno    Source Statement           (Hibal 5, Asmedit 3.3)  HLASM R4.0  2004/03/22 09.42
+___    ______ ____    _____ _____  ____ __ ______    ______ _________
0                                  44083    6552.     *******************************************************************
                                   44084    6553.     *                                                                 *
                                   44085    6554.     *    SET 17 - Set PER parameters                                  *
                                   44086    6555.     *                                                                 *
                                   44087    6556.     *                                                                 *
                                   44088    6557.     *     Input - RY Points to SCP                                    *
                                   44089    6558.     *                                                                 *
                                   44090    6559.     *    Output -                                                     *
                                   44091    6560.     *                                                                 *
                                   44092    6561.     *                                                                 *
                                   44093    6562.     *******************************************************************
-
 0058B8                            44095    6564.     SET17    PROC  ,SCOPE=LOCAL
 0058B8 E2C5E3F1F7404040           44102             +
 0058C0 0000/0000                  44103             +
 0058C4 900F D004/18AF       00004 44105             +
 USING  SET17,R10
 0058CA 50D0 C000/18CD       00000 44120             +
 0058D0 9680 C000      00000       44122             +
 0058D4 41D0 C048            00048 44123             +
 USING  SCP,R7                     44124    6565.              WITH  (SCP,RY)
 0058D8 5810 7014            00014 44137    6566.              L     RS,SCPGPRS+1*4          GET PER PARM POINTER
                                   44138    6567.     *
                                   44139    6568.     *  PER already set
                                   44140    6569.     *
 0058DC 91F0 7194      00194       44141    6570.              IF    (SCPCTL9.B'11110000',NZ),BEGIN   PER SET NOW
 0058E0 4780 A056            0591A 44154             +
 0058E4 9180 7262      00262       44159  1 6571.                IF    SCBFCLP,BEGIN           CLP IN CONTROL
 0058E8 47E0 A040            05904 44169  1          +
 0058EC 1211/4780 A040       05904 44174  2 6572.                  IF    (RS,Z),EXIT             UNCONDITIONAL CLEAR
 0058F2 9140 7200      00200       44191  2 6573.                  IF    ~SCPFPER,BEGIN
 0058F6 4710 A040            05904 44201  2          +
 0058FA D203 704C A36C 0004C 05C30 44206  3 6574.                    MVC   SCPGPRS+15*4,=A(4)      PER OWNED BY USER
 005900 47F0 A0F8            059BC 44207  3 6575.                    EXIT  SET17
 005904                            44210  2 6576.                  END   ,
 005904                            44214  1 6577.                END
 005904 A044           05904 058EA 44218  1 6578.                ELSE BEGIN
 005904 47F0 A056            0591A 44223  1          +
 005908 9140 7200      00200       44229  2 6579.                  IF    SCPFPER,BEGIN
 00590C 47E0 A056            0591A 44239  2          +
 005910 D203 704C A36C 0004C 05C30 44244  3 6580.                    MVC   SCPGPRS+15*4,=A(4)      PER OWNED BY CLP
 005916 47F0 A0F8            059BC 44245  3 6581.                    EXIT  SET17
 00591A                            44248  2 6582.                  END   ,
 00591A                            44252  1 6583.                END   ,
 00591A                            44256    6584.              END
                                   44260    6585.     *
                                   44261    6586.     *  OBTAIN CALLER SUPPLIED PER PARAMETERS
                                   44262    6587.     *
 00591A 1211/4780 A0B4       05978 44263    6588.              IF    (RS,NZ),BEGIN
 USING  @PAGE-72,R13               44277  1 6589.                PSET  @PAGE
 005920 D708 D048 D048 00000 00000 44294  1          +
 005926 5820 7014            00014 44295  1 6590.                L     RA,SCPGPRS+1*4          LOCATION
1M1SERV   (M1SE00) (09:42) (22MAR04) ORVYL'S Mode 1 Set SVC                                                                 Page  309
0Current Usings:  (PZERO,R0) (SCP,R7) (SET17,R10) (@PAGE-72,R13)
0Loc    Object Code    Addr1 Addr2  Stmt Lv Lineno    Source Statement           (Hibal 5, Asmedit 3.3)  HLASM R4.0  2004/03/22 09.42
+___    ______ ____    _____ _____  ____ __ ______    ______ _________
000592A 9180 700C      0000C       44296  1 6591.                TM    SCPPSW+4,X'80'      31 bit mode?
 00592E 4770 A072            05936 44297  1 6592.                IF    Z,'N RA,=X"00FFFFFF"'
 005932 5420 A370            05C34 44309  1          +
 005936 5020 D048            00000 44314  1 6593.                ST    RA,@PAGLOC              SET LOCATION
 00593A D203 D04C A374 00004 05C38 44315  1 6594.                MVC   @PAGLEN,=A(12)          LENGTH
 005940 D200 D050 7009 00008 00009 44316  1 6595.                MVC   @PAGKEY,SCPPSW+1        PSW KEY
 005946 94F0 D050      00008       44317  1 6596.                NI    @PAGKEY,X'F0'            KEY ONLY
 00594A 58F0 A378/0DEF       05C3C 44318  1 6597.                VCALL PAGTPROT                CHECK IT OUT
 005950 5900 A37C            05C40 44322  1 6598.                IF    (RVR,GE,2),BEGIN        NO GOOD
 005954 4750 A0A0            05964 44334  1          +
 005958 9206 71A9      001A9       44339  2 6599.                  MVI   SCPPANSY,PANSPEC        SET CODE FOR SPEC
 00595C 9610 7265      00265       44340  2 6600.                  SET   SCBXP                   MARK USER FOR PANIC
 005960 47F0 A0F8            059BC 44346  2 6601.                  EXIT  SET17
 005964                            44349  1 6602.                END   ,
 005964 D20B 7194 2000 00194 00000 44353  1 6603.                MVC   SCPCTL9(3*4),@RA        COPY USER CONTROL REGS
 00596A 4810 7196            00196 44354  1 6604.                LH    RS,SCPCTL9+2            TEST REG MASKS
 00596E 1211/4770 A0B4       05978 44355  1 6605.                IF    (RS,Z),'CLEAR SCPCTL9.B"00010000"'   CANCEL REG PER
 005974 94EF 7194      00194       44377  1          +
 005978                            44382    6606.              END   ,
                                   44386    6607.     *
                                   44387    6608.     *  Process clear request
                                   44388    6609.     *
 005978 A0B8           05978 0591E 44389    6610.              ELSE  'CLEAR (SCPCTL9,12)'            CLEAR CTL 9,10,11
 005978 47F0 A0BE            05982 44394             +
 00597C D70B 7194 7194 00194 00194 44407             +
                                   44412    6611.     *
                                   44413    6612.     *  Establish new PER parameters
                                   44414    6613.     *
 DROP   @PAGE-72,R13               44415    6614.              PSET  @PERSET
 USING  @PERSET-72,R13
 005982 D70B D048 D048 00000 00000 44435             +
 005988 D20B D048 7194 00000 00194 44436    6615.              MVC   @PERSDAT(3*4),SCPCTL9
 00598E 58F0 A380/0DEF       05C44 44437    6616.              VCALL PERSET
 005994 94BF 7200      00200       44441    6617.              CLEAR SCPFPER                 ASSUME PER CLEARED
 005998 91F0 7194      00194       44448    6618.              IF    (SCPCTL9.B'11110000',NZ),BEGIN
 00599C 4780 A0F2            059B6 44461             +
 0059A0 9180 7262      00262       44466  1 6619.                IF    SCBFCLP,'SET  SCPFPER'   CLP CONTROLS PER NOW
 0059A4 47E0 A0E8            059AC 44476  1          +
 0059A8 9640 7200      00200       44487  1          +
 0059AC A0EC           059AC 059A6 44492  1 6620.                ELSE  'ACALL PERCHECK'        SET UP PER
 0059AC 47F0 A0F2            059B6 44497  1          +
 0059B0 58F0 A384/0DEF       05C48 44509  1          +
 0059B6                            44515    6621.              END   ,
 0059B6 D203 704C A388 0004C 05C4C 44519    6622.              MVC   SCPGPRS+15*4,=A(0)      GOOD COMPLETION
 0059BC 981F C008            00008 44520    6623.              PEND
 DROP   SCP,R7
 DROP   SET17,R10
 0059C0 9680 C000/0B0E 00000       44535             +
 DROP   @PERSET-72,R13
1M1SERV   (M1SE00) (09:42) (22MAR04) ORVYL'S Mode 1 Set SVC                                                                 Page  310
0Current Usings:  (PZERO,R0)
0Loc    Object Code    Addr1 Addr2  Stmt Lv Lineno    Source Statement           (Hibal 5, Asmedit 3.3)  HLASM R4.0  2004/03/22 09.42
+___    ______ ____    _____ _____  ____ __ ______    ______ _________
0                                  44545    6625.     *******************************************************************
                                   44546    6626.     *                                                                 *
                                   44547    6627.     *    SET 18 - Set Monitor parameters                              *
                                   44548    6628.     *                                                                 *
                                   44549    6629.     *                                                                 *
                                   44550    6630.     *     Input - RY Points to SCP                                    *
                                   44551    6631.     *                                                                 *
                                   44552    6632.     *    Output -                                                     *
                                   44553    6633.     *                                                                 *
                                   44554    6634.     *                                                                 *
                                   44555    6635.     *******************************************************************
-
 0059C6                            44557    6637.     SET18    PROC  ,SCOPE=LOCAL
 0059C6 E2C5E3F1F8404040           44564             +
 0059CE 0000/0000                  44565             +
 0059D2 900F D004/18AF       00004 44567             +
 USING  SET18,R10
 0059D8 50D0 C000/18CD       00000 44582             +
 0059DE 9680 C000      00000       44584             +
 0059E2 41D0 C048            00048 44585             +
 USING  SCP,R7                     44586    6638.              WITH  (SCP,RY)
 0059E6 5810 7014            00014 44599    6639.              L     RS,SCPGPRS+1*4          GET PER PARM POINTER
                                   44600    6640.     *
                                   44601    6641.     *  Monitor already set
                                   44602    6642.     *
 0059EA 5820 7190/1222       00190 44603    6643.              IF    ('LT RA,SCPCTL8',NZ),BEGIN
 0059F0 4780 A058            05A2A 44614             +
 0059F4 9180 7262      00262       44619  1 6644.                IF    SCBFCLP,BEGIN           CLP IN CONTROL
 0059F8 47E0 A042            05A14 44629  1          +
 0059FC 1211/4780 A042       05A14 44634  2 6645.                  IF    (RS,Z),EXIT              UNCONDITIONAL CLEAR
 005A02 9120 7200      00200       44651  2 6646.                  IF    ~SCPFMON,BEGIN
 005A06 4710 A042            05A14 44661  2          +
 005A0A D203 704C A25E 0004C 05C30 44666  3 6647.                    MVC   SCPGPRS+15*4,=A(4)      MONITOR OWNED BY USER
 005A10 47F0 A0E2            05AB4 44667  3 6648.                    EXIT  SET18
 005A14                            44670  2 6649.                  END   ,
 005A14                            44674  1 6650.                END
 005A14 A046           05A14 059FA 44678  1 6651.                ELSE  BEGIN
 005A14 47F0 A058            05A2A 44683  1          +
 005A18 9120 7200      00200       44689  2 6652.                  IF    SCPFMON,BEGIN
 005A1C 47E0 A058            05A2A 44699  2          +
 005A20 D203 704C A25E 0004C 05C30 44704  3 6653.                    MVC   SCPGPRS+15*4,=A(4)      MONITOR OWNED BY CLP
 005A26 47F0 A0E2            05AB4 44705  3 6654.                    EXIT  SET18
 005A2A                            44708  2 6655.                  END   ,
 005A2A                            44712  1 6656.                END   ,
 005A2A                            44716    6657.              END
                                   44720    6658.     *
                                   44721    6659.     *  Process clear request
                                   44722    6660.     *
 005A2A 1211/4770 A062       05A34 44723    6661.              IF    (RS,Z),'STH  RS,SCPCTL8+2'   CLEAR MONITOR CONTROL
 005A30 4010 7192            00192 44738             +
                                   44743    6662.     *
                                   44744    6663.     *  Obtain caller supplied monitor parameters
1M1SERV   (M1SE00) (09:42) (22MAR04) ORVYL'S Mode 1 Set SVC                                                                 Page  311
0Current Usings:  (PZERO,R0) (SCP,R7) (SET18,R10)
0Loc    Object Code    Addr1 Addr2  Stmt Lv Lineno    Source Statement           (Hibal 5, Asmedit 3.3)  HLASM R4.0  2004/03/22 09.42
+___    ______ ____    _____ _____  ____ __ ______    ______ _________
0                                  44745    6664.     *
 005A34 A066           05A34 05A2E 44746    6665.              ELSE  BEGIN
 005A34 47F0 A0B0            05A82 44751             +
 USING  @PAGE-72,R13               44757  1 6666.                PSET  @PAGE
 005A38 D708 D048 D048 00000 00000 44774  1          +
 005A3E 5820 7014            00014 44775  1 6667.                L     RA,SCPGPRS+1*4          LOCATION
 005A42 9180 700C      0000C       44776  1 6668.                TM    SCPPSW+4,X'80'      31 bit mode?
 005A46 4770 A07C            05A4E 44777  1 6669.                IF    Z,'N RA,=X"00FFFFFF"'
 005A4A 5420 A262            05C34 44789  1          +
 005A4E 5020 D048            00000 44794  1 6670.                ST    RA,@PAGLOC              SET LOCATION
 005A52 D203 D04C A25E 00004 05C30 44795  1 6671.                MVC   @PAGLEN,=A(4)           LENGTH OF PARM AREA
 005A58 D200 D050 7009 00008 00009 44796  1 6672.                MVC   @PAGKEY,SCPPSW+1        PSW KEY
 005A5E 94F0 D050      00008       44797  1 6673.                NI    @PAGKEY,X'F0'            KEY ONLY
 005A62 58F0 A26A/0DEF       05C3C 44798  1 6674.                VCALL PAGTPROT                CHECK IT OUT
 005A68 5900 A26E            05C40 44802  1 6675.                IF    (RVR,GE,2),BEGIN          NO GOOD
 005A6C 4750 A0AA            05A7C 44814  1          +
 005A70 9206 71A9      001A9       44819  2 6676.                  MVI   SCPPANSY,PANSPEC        SET CODE FOR SPEC
 005A74 9610 7265      00265       44820  2 6677.                  SET   SCBXP                   MARK USER FOR PANIC
 005A78 47F0 A0E2            05AB4 44826  2 6678.                  EXIT  SET18
 005A7C                            44829  1 6679.                END   ,
 005A7C D201 7192 2002 00192 00002 44833  1 6680.                MVC   SCPCTL8+2(2),@RA+2      MOVE IN USER DATA
 005A82                            44834    6681.              END
                                   44838    6682.     *
                                   44839    6683.     *  SET NEW MONITOR INFORMATION
                                   44840    6684.     *
 DROP   @PAGE-72,R13               44841    6685.              PSET  @MONSET
 USING  @MONSET-72,R13
 005A82 D701 D048 D048 00000 00000 44861             +
 005A88 D201 D048 7192 00000 00192 44862    6686.              MVC   @MONSDAT,SCPCTL8+2
 005A8E 58F0 A27E/0DEF       05C50 44863    6687.              VCALL MONSET
 005A94 94DF 7200      00200       44867    6688.              CLEAR SCPFMON                 ASSUME WE JUST CLEARED IT
 005A98 48F0 7192            00192 44874    6689.              LH    R15,SCPCTL8+2           GET MONITOR MASK
 005A9C 12FF/4780 A0DC       05AAE 44875    6690.              IF    ((R15,NZ),AND,SCBFCLP),'SET  SCPFMON'    CLP IS OWNER
 005AA2 9180 7262      00262       44897             +
 005AA6 47E0 A0DC            05AAE 44898             +
 005AAA 9620 7200      00200       44909             +
 005AAE D203 704C A27A 0004C 05C4C 44914    6691.              MVC   SCPGPRS+15*4,=A(0)      GOOD COMPLETION
 005AB4 981F C008            00008 44915    6692.              PEND
 DROP   SCP,R7
 DROP   SET18,R10
 005AB8 9680 C000/0B0E 00000       44930             +
 DROP   @MONSET-72,R13
1M1SERV   (M1SE00) (09:42) (22MAR04) ORVYL'S Mode 1 Set SVC                                                                 Page  312
0Current Usings:  (PZERO,R0)
0Loc    Object Code    Addr1 Addr2  Stmt Lv Lineno    Source Statement           (Hibal 5, Asmedit 3.3)  HLASM R4.0  2004/03/22 09.42
+___    ______ ____    _____ _____  ____ __ ______    ______ _________
0                                  44940    6694.     *******************************************************************
                                   44941    6695.     *                                                                 *
                                   44942    6696.     *    SET 19 - Protect memory area                                 *
                                   44943    6697.     *                                                                 *
                                   44944    6698.     *                                                                 *
                                   44945    6699.     *     Input - RY Points to SCP                                    *
                                   44946    6700.     *                                                                 *
                                   44947    6701.     *    Output -                                                     *
                                   44948    6702.     *                                                                 *
                                   44949    6703.     *                                                                 *
                                   44950    6704.     *******************************************************************
-
 005ABE                            44952    6706.     SET19    PROC  ,SCOPE=LOCAL
 005ABE E2C5E3F1F9404040           44959             +
 005AC6 0000/0000                  44960             +
 005ACA 900F D004/18AF       00004 44962             +
 USING  SET19,R10
 005AD0 50D0 C000/18CD       00000 44977             +
 005AD6 9680 C000      00000       44979             +
 005ADA 41D0 C048            00048 44980             +
 USING  SCP,R7                     44981    6707.              WITH  (SCP,RY)
                                   44994    6708.     *
                                   44995    6709.     *  Check parameters
                                   44996    6710.     *
 005ADE 5820 7014            00014 44997    6711.              L     RA,SCPGPRS+1*4          STARTING ADDRESS
 005AE2 9180 700C      0000C       44998    6712.              TM    SCPPSW+4,X'80'      31 bit mode?
 005AE6 4770 A024            05AEE 44999    6713.              IF    Z,'N RA,=X"00FFFFFF"'
 005AEA 5420 A16A            05C34 45011             +
 005AEE 5830 704C            0004C 45016    6714.              L     RB,SCPGPRS+15*4         LENGTH
 005AF2 1233/4770 A038       05B02 45017    6715.              IF    (RB,Z),BEGIN
 005AF8 D203 704C A182 0004C 05C4C 45031  1 6716.                MVC   SCPGPRS+15*4,=A(0)      NULL REQUEST
 005AFE 47F0 A15C            05C26 45032  1 6717.                EXIT  SET19
 005B02                            45035    6718.              END   ,
 005B02 47B0 A048            05B12 45039    6719.              IF    M,BEGIN                 INVALID REQUEST
 005B06 9206 71A9      001A9       45050  1 6720.                MVI   SCPPANSY,PANSPEC        SET CODE FOR SPEC
 005B0A 9610 7265      00265       45051  1 6721.                SET   SCBXP                   MARK USER FOR PANIC
 005B0E 47F0 A15C            05C26 45057  1 6722.                EXIT  SET19
 005B12                            45060    6723.              END   ,
 005B12 41F2 3000            00000 45064    6724.              LA    R15,@RB(RA)             LAST ADDRESS+1
 005B16 5420 A18A            05C54 45065    6725.              N     RA,=X'7FFFF000'         ROUND TO PAGE BOUNDARY
                                   45066    6726.     *
                                   45067    6727.     *  DO SHARED PROGRAM PROTECTION
                                   45068    6728.     *
                                   45069    6729.              WITH  (SCP,RY)
 005B1A 5840 7268            00268 45073    6730.              L     RJ,SCBSPB               IS THERE AN SPB?
 005B1E 1244/4780 A0EA       05BB4 45074    6731.              IF    (RJ,NZ),BEGIN
 USING  SPB,R4                     45088  1 6732.                WITH  (SPB,RJ)
 005B24 9140 4044      00044       45101  1 6733.                IF    SPBFPRT,EXIT            PROTECTED PROGRAM
 005B28 4710 A0EA            05BB4 45113  1          +
 005B2C 5920 4048            00048 45119  1 6734.                IF    (RA,LT,SPBORGIN),EXIT   BEGINNING NOT IN RANGE
 005B30 4740 A0EA            05BB4 45133  1          +
 005B34 5810 404C            0004C 45139  1 6735.                L     RS,SPBSIZE              PROGRAM SIZE
1M1SERV   (M1SE00) (09:42) (22MAR04) ORVYL'S Mode 1 Set SVC                                                                 Page  313
0Current Usings:  (PZERO,R0) (SPB,R4) (SCP,R7) (SET19,R10)
0Loc    Object Code    Addr1 Addr2  Stmt Lv Lineno    Source Statement           (Hibal 5, Asmedit 3.3)  HLASM R4.0  2004/03/22 09.42
+___    ______ ____    _____ _____  ____ __ ______    ______ _________
0005B38 5A10 4048            00048 45140  1 6736.                A     RS,SPBORGIN             END OF PROGRAM AREA
 005B3C 19F1/4720 A0EA       05BB4 45141  1 6737.                IF    (R15,GT,RS),EXIT         ENDING NOT IN RANGE
                                   45159  1 6738.     *         IF    SPBFLHI,BEGIN
 005B42 9500 4048      00048       45160  1 6739.                IF    ('CLI SPBORGIN,0',NE),BEGIN
 005B46 4780 A09A            05B64 45168  1          +
 USING  @VMFREE-72,R13             45173  2 6740.                  VMCHK (RB),A=(RA),LOC=GLOBHI,TYPE=PROG,KEY=USER,FETP=NO
 005B4A D709 D048 D048 00000 00000 45197  2          +
 005B50 5030 D04C            00004 45207  2          +
 005B54 5020 D048            00000 45217  2          +
 005B58 D201 D050 A196 00008 05C60 45218  2          +
 005B5E 58F0 A18E/0DEF       05C58 45221  2          +
 005B64                            45223  1 6741.                END   ,
 005B64 A09E           05B64 05B48 45227  1 6742.                ELSE  BEGIN
 005B64 47F0 A0B8            05B82 45232  1          +
 005B68                            45238  2 6743.                  VMCHK (RB),A=(RA),LOC=GLOBLO,TYPE=PROG,KEY=USER   VALIDATE
 005B68 D709 D048 D048 00000 00000 45255  2          +
 005B6E 5030 D04C            00004 45265  2          +
 005B72 5020 D048            00000 45275  2          +
 005B76 D201 D050 A198 00008 05C62 45276  2          +
 005B7C 58F0 A18E/0DEF       05C58 45279  2          +
 005B82                            45281  1 6744.                END   ,
 005B82 1200/4780 A0CA       05B94 45285  1 6745.                IF    (RVR,NZ),BEGIN          INVALID ADDRESS
 005B88 9206 71A9      001A9       45299  2 6746.                  MVI   SCPPANSY,PANSPEC        SET CODE FOR SPEC
 005B8C 9610 7265      00265       45300  2 6747.                  SET   SCBXP                   MARK USER FOR PANIC
 005B90 47F0 A15C            05C26 45306  2 6748.                  EXIT  SET19
 005B94                            45309  1 6749.                END   ,
 DROP   @VMFREE-72,R13             45313  1 6750.                PSET  @PAGE,CLEAR=NO
 USING  @PAGE-72,R13
 005B94 5020 D048            00000 45327  1 6751.                ST    RA,@PAGLOC              SET ADDRESS
 005B98 5030 D04C            00004 45328  1 6752.                ST    RB,@PAGLEN               AND LENGTH
 005B9C 58F0 A192/0DEF       05C5C 45329  1 6753.                VCALL PAGPROT                 PROTECT THE PAGE
 005BA2 1200/4780 A0EA       05BB4 45333  1 6754.                IF    (RVR,NZ),BEGIN
 005BA8 9206 71A9      001A9       45347  2 6755.                  MVI   SCPPANSY,PANSPEC        SET CODE FOR SPEC
 005BAC 9610 7265      00265       45348  2 6756.                  SET   SCBXP                   MARK USER FOR PANIC
 005BB0 47F0 A15C            05C26 45354  2 6757.                  EXIT  SET19
 005BB4                            45357  1 6758.                END   ,
 DROP   SPB,R4                     45361    6759.              END
1M1SERV   (M1SE00) (09:42) (22MAR04) ORVYL'S Mode 1 Set SVC                                                                 Page  314
0Current Usings:  (PZERO,R0) (SCP,R7) (SET19,R10) (@PAGE-72,R13)
0Loc    Object Code    Addr1 Addr2  Stmt Lv Lineno    Source Statement           (Hibal 5, Asmedit 3.3)  HLASM R4.0  2004/03/22 09.42
+___    ______ ____    _____ _____  ____ __ ______    ______ _________
0                                  45371    6761.     *
                                   45372    6762.     *  DO USER PROGRAM/WORKSPACE PROTECTION
                                   45373    6763.     *
 005BB4 A0EE           05BB4 05B22 45374    6764.              ELSE  BEGIN
 005BB4 47F0 A156            05C20 45379             +
 005BB8 9104 7200      00200       45385  1 6765.                IF    SCPFPRT,BEGIN           USER PROGRAM PROTECTED
 005BBC 47E0 A10A            05BD4 45395  1          +
 005BC0 5920 71F4            001F4 45400  2 6766.                  IF    (RA,LT,SCPRRSEG),BEGIN  INVALID
 005BC4 47B0 A10A            05BD4 45412  2          +
 005BC8 9206 71A9      001A9       45417  3 6767.                    MVI   SCPPANSY,PANSPEC        SET CODE FOR SPEC
 005BCC 9610 7265      00265       45418  3 6768.                    SET   SCBXP                   MARK USER FOR PANIC
 005BD0 47F0 A15C            05C26 45424  3 6769.                    EXIT  SET19
 005BD4                            45427  2 6770.                  END   ,
 005BD4                            45431  1 6771.                END
 DROP   @PAGE-72,R13               45435  1 6772.                VMCHK (RB),A=(RA),LOC=LOCUSR,FETP=NO,TYPE=PROG    VALIDATE
 USING  @VMFREE-72,R13
 005BD4 D709 D048 D048 00000 00000 45462  1          +
 005BDA 5030 D04C            00004 45472  1          +
 005BDE 5020 D048            00000 45482  1          +
 005BE2 D201 D050 A19A 00008 05C64 45483  1          +
 005BE8 58F0 A18E/0DEF       05C58 45486  1          +
 005BEE 1200/4780 A136       05C00 45488  1 6773.                IF    (RVR,NZ),BEGIN          INVALID ADDRESS
 005BF4 9206 71A9      001A9       45502  2 6774.                  MVI   SCPPANSY,PANSPEC        SET CODE FOR SPEC
 005BF8 9610 7265      00265       45503  2 6775.                  SET   SCBXP                   MARK USER FOR PANIC
 005BFC 47F0 A15C            05C26 45509  2 6776.                  EXIT  SET19
 005C00                            45512  1 6777.                END   ,
 DROP   @VMFREE-72,R13             45516  1 6778.                PSET  @PAGE,CLEAR=NO
 USING  @PAGE-72,R13
 005C00 5020 D048            00000 45530  1 6779.                ST    RA,@PAGLOC              SET ADDRESS
 005C04 5030 D04C            00004 45531  1 6780.                ST    RB,@PAGLEN               AND LENGTH
 005C08 58F0 A192/0DEF       05C5C 45532  1 6781.                VCALL PAGPROT                 PROTECT THE PAGE
 005C0E 1200/4780 A156       05C20 45536  1 6782.                IF    (RVR,NZ),BEGIN
 005C14 9206 71A9      001A9       45550  2 6783.                  MVI   SCPPANSY,PANSPEC        SET CODE FOR SPEC
 005C18 9610 7265      00265       45551  2 6784.                  SET   SCBXP                   MARK USER FOR PANIC
 005C1C 47F0 A15C            05C26 45557  2 6785.                  EXIT  SET19
 005C20                            45560  1 6786.                END   ,
 005C20                            45564    6787.              END   ,
 005C20 D203 704C A182 0004C 05C4C 45568    6788.              MVC   SCPGPRS+15*4,=A(0)     Good return
 005C26 981F C008            00008 45569    6789.              PEND
 DROP   SCP,R7
 DROP   SET19,R10
 005C2A 9680 C000/0B0E 00000       45584             +
 DROP   @PAGE-72,R13
                                   45593    6790.
 005C30                            45594    6791.              LTORG
 005C30 00000004                   45596                             =A(4)
 005C34 00FFFFFF                   45597                             =X'00FFFFFF'
 005C38 0000000C                   45598                             =A(12)
 005C3C 00000000                   45599                             =V(PAGTPROT)
 005C40 00000002                   45600                             =A(2)
 005C44 00000000                   45601                             =V(PERSET)
 005C48 00006A76                   45602                             =A(PERCHECK)
 005C4C 00000000                   45603                             =A(0)
 005C50 00000000                   45604                             =V(MONSET)
1M1SERV   (M1SE00) (09:42) (22MAR04) ORVYL'S Mode 1 Set SVC                                                                 Page  315
0Current Usings:  (PZERO,R0)
0Loc    Object Code    Addr1 Addr2  Stmt Lv Lineno    Source Statement           (Hibal 5, Asmedit 3.3)  HLASM R4.0  2004/03/22 09.42
+___    ______ ____    _____ _____  ____ __ ______    ______ _________
0005C54 7FFFF000                   45605                             =X'7FFFF000'
 005C58 00000000                   45606                             =V(VMCHK)
 005C5C 00000000                   45607                             =V(PAGPROT)
 005C60 3000                       45608                             =Y(48*256+0)
 005C62 2000                       45609                             =Y(32*256+0)
 005C64 0000           05C66 07A90 45610                             =Y(0*256+0)
1M1SERV   (M1SE00) (09:42) (22MAR04) ORVYL'S Mode 1 Set SVC                                                                 Page  316
0Current Usings:  (PZERO,R0)
0Loc    Object Code    Addr1 Addr2  Stmt Lv Lineno    Source Statement           (Hibal 5, Asmedit 3.3)  HLASM R4.0  2004/03/22 09.42
+___    ______ ____    _____ _____  ____ __ ______    ______ _________
0                                  45615    6793.     *******************************************************************
                                   45616    6794.     *                                                                 *
                                   45617    6795.     *    SET 20 - Un-protect memory area                              *
                                   45618    6796.     *                                                                 *
                                   45619    6797.     *                                                                 *
                                   45620    6798.     *     Input - RY Points to SCP                                    *
                                   45621    6799.     *                                                                 *
                                   45622    6800.     *    Output -                                                     *
                                   45623    6801.     *                                                                 *
                                   45624    6802.     *                                                                 *
                                   45625    6803.     *******************************************************************
-
 005C66                            45627    6805.     SET20    PROC  ,SCOPE=LOCAL
 005C66 E2C5E3F2F0404040           45634             +
 005C6E 0000/0000                  45635             +
 005C72 900F D004/18AF       00004 45637             +
 USING  SET20,R10
 005C78 50D0 C000/18CD       00000 45652             +
 005C7E 9680 C000      00000       45654             +
 005C82 41D0 C048            00048 45655             +
 USING  SCP,R7                     45656    6806.              WITH  (SCP,RY)
                                   45669    6807.     *
                                   45670    6808.     *  Check parameters
                                   45671    6809.     *
 005C86 5820 7014            00014 45672    6810.              L     RA,SCPGPRS+1*4          STARTING ADDRESS
 005C8A 9180 700C      0000C       45673    6811.              TM    SCPPSW+4,X'80'      31 bit mode?
 005C8E 4770 A024            05C96 45674    6812.              IF    Z,'N RA,=X"00FFFFFF"'
 005C92 5420 AE7E            06AF0 45686             +
 005C96 5830 704C            0004C 45691    6813.              L     RB,SCPGPRS+15*4         LENGTH
 005C9A 1233/47B0 A03A       05CAC 45692    6814.              IF    (RB,M),BEGIN            INVALID REQUEST
 005CA0 9206 71A9      001A9       45706  1 6815.                MVI   SCPPANSY,PANSPEC        SET CODE FOR SPEC
 005CA4 9610 7265      00265       45707  1 6816.                SET   SCBXP                   MARK USER FOR PANIC
 005CA8 47F0 A15E            05DD0 45713  1 6817.                EXIT  SET20
 005CAC                            45716    6818.              END   ,
 005CAC 1233/4770 A04A       05CBC 45720    6819.              IF    (RB,Z),BEGIN            NULL REQUEST
 005CB2 D203 704C AE82 0004C 06AF4 45734  1 6820.                MVC   SCPGPRS+15*4,=A(0)      NULL REQUEST
 005CB8 47F0 A15E            05DD0 45735  1 6821.                EXIT  SET20
 005CBC                            45738    6822.              END   ,
 005CBC 41F3 2000            00000 45742    6823.              LA    R15,@RA(RB)              LAST ADDRESS+1
 005CC0 5420 AE86            06AF8 45743    6824.              N     RA,=X'7FFFF000'         ROUND TO PAGE BOUNDARY
                                   45744    6825.     *
                                   45745    6826.     *  DO SHARED PROGRAM UN-PROTECTION
                                   45746    6827.     *
 005CC4 5840 7268            00268 45747    6828.              L     RJ,SCBSPB               IS THERE AN SPB?
 005CC8 1244/4780 A0EC       05D5E 45748    6829.              IF    (RJ,NZ),BEGIN
 USING  SPB,R4                     45762  1 6830.                WITH  (SPB,RJ)
 005CCE 9140 4044      00044       45775  1 6831.                IF    SPBFPRT,EXIT            PROTECTED PROGRAM
 005CD2 4710 A0EC            05D5E 45787  1          +
 005CD6 5920 4048            00048 45793  1 6832.                IF    (RA,LT,SPBORGIN),EXIT   BEGINNING NOT IN RANGE
 005CDA 4740 A0EC            05D5E 45807  1          +
 005CDE 5810 404C            0004C 45813  1 6833.                L     RS,SPBSIZE              PROGRAM SIZE
 005CE2 5A10 4048            00048 45814  1 6834.                A     RS,SPBORGIN             END OF PROGRAM AREA
1M1SERV   (M1SE00) (09:42) (22MAR04) ORVYL'S Mode 1 Set SVC                                                                 Page  317
0Current Usings:  (PZERO,R0) (SPB,R4) (SCP,R7) (SET20,R10)
0Loc    Object Code    Addr1 Addr2  Stmt Lv Lineno    Source Statement           (Hibal 5, Asmedit 3.3)  HLASM R4.0  2004/03/22 09.42
+___    ______ ____    _____ _____  ____ __ ______    ______ _________
0005CE6 19F1/4720 A0EC       05D5E 45815  1 6835.                IF    (R15,GT,RS),EXIT        ENDING NOT IN RANGE
                                   45833  1 6836.     *         IF    SPBFLHI,BEGIN
 005CEC 9500 4048      00048       45834  1 6837.                IF    ('CLI SPBORGIN,0',NE),BEGIN
 005CF0 4780 A09C            05D0E 45842  1          +
 USING  @VMFREE-72,R13             45847  2 6838.                  VMCHK (RB),A=(RA),LOC=GLOBHI,TYPE=PROG,KEY=USER,FETP=NO
 005CF4 D709 D048 D048 00000 00000 45871  2          +
 005CFA 5030 D04C            00004 45881  2          +
 005CFE 5020 D048            00000 45891  2          +
 005D02 D201 D050 AF5E 00008 06BD0 45892  2          +
 005D08 58F0 AE8A/0DEF       06AFC 45895  2          +
 005D0E                            45897  1 6839.                END   ,
 005D0E A0A0           05D0E 05CF2 45901  1 6840.                ELSE  BEGIN
 005D0E 47F0 A0BA            05D2C 45906  1          +
 005D12                            45912  2 6841.                  VMCHK (RB),A=(RA),LOC=GLOBLO,TYPE=PROG,KEY=USER   VALIDATE
 005D12 D709 D048 D048 00000 00000 45929  2          +
 005D18 5030 D04C            00004 45939  2          +
 005D1C 5020 D048            00000 45949  2          +
 005D20 D201 D050 AF60 00008 06BD2 45950  2          +
 005D26 58F0 AE8A/0DEF       06AFC 45953  2          +
 005D2C                            45955  1 6842.                END   ,
 005D2C 1200/4780 A0CC       05D3E 45959  1 6843.                IF    (RVR,NZ),BEGIN          INVALID ADDRESS
 005D32 9206 71A9      001A9       45973  2 6844.                  MVI   SCPPANSY,PANSPEC        SET CODE FOR SPEC
 005D36 9610 7265      00265       45974  2 6845.                  SET   SCBXP                   MARK USER FOR PANIC
 005D3A 47F0 A15E            05DD0 45980  2 6846.                  EXIT  SET20
 005D3E                            45983  1 6847.                END   ,
 DROP   @VMFREE-72,R13             45987  1 6848.                PSET  @PAGE,CLEAR=NO
 USING  @PAGE-72,R13
 005D3E 5020 D048            00000 46001  1 6849.                ST    RA,@PAGLOC              SET ADDRESS
 005D42 5030 D04C            00004 46002  1 6850.                ST    RB,@PAGLEN               AND LENGTH
 005D46 58F0 AE8E/0DEF       06B00 46003  1 6851.                VCALL PAGUPROT                 UN-PROTECT THE PAGES
 005D4C 1200/4780 A0EC       05D5E 46007  1 6852.                IF    (RVR,NZ),BEGIN          INVALID ADDRESS
 005D52 9206 71A9      001A9       46021  2 6853.                  MVI   SCPPANSY,PANSPEC        SET CODE FOR SPEC
 005D56 9610 7265      00265       46022  2 6854.                  SET   SCBXP                   MARK USER FOR PANIC
 005D5A 47F0 A15E            05DD0 46028  2 6855.                  EXIT  SET20
 005D5E                            46031  1 6856.                END   ,
 DROP   SPB,R4                     46035    6857.              END   ,
1M1SERV   (M1SE00) (09:42) (22MAR04) ORVYL'S Mode 1 Set SVC                                                                 Page  318
0Current Usings:  (PZERO,R0) (SCP,R7) (SET20,R10) (@PAGE-72,R13)
0Loc    Object Code    Addr1 Addr2  Stmt Lv Lineno    Source Statement           (Hibal 5, Asmedit 3.3)  HLASM R4.0  2004/03/22 09.42
+___    ______ ____    _____ _____  ____ __ ______    ______ _________
0                                  46045    6859.     *
                                   46046    6860.     *  DO USER PROGRAM/WORKSPACE UN-PROTECTION
                                   46047    6861.     *
 005D5E A0F0           05D5E 05CCC 46048    6862.              ELSE  BEGIN
 005D5E 47F0 A158            05DCA 46053             +
 005D62 9104 7200      00200       46059  1 6863.                IF    SCPFPRT,BEGIN           USER PROGRAM PROTECTED
 005D66 47E0 A10C            05D7E 46069  1          +
 005D6A 5920 71F4            001F4 46074  2 6864.                  IF    (RA,LT,SCPRRSEG),BEGIN   INVALID
 005D6E 47B0 A10C            05D7E 46086  2          +
 005D72 9206 71A9      001A9       46091  3 6865.                    MVI   SCPPANSY,PANSPEC        SET CODE FOR SPEC
 005D76 9610 7265      00265       46092  3 6866.                    SET   SCBXP                   MARK USER FOR PANIC
 005D7A 47F0 A15E            05DD0 46098  3 6867.                    EXIT  SET20
 005D7E                            46101  2 6868.                  END   ,
 005D7E                            46105  1 6869.                END
 DROP   @PAGE-72,R13               46109  1 6870.                VMCHK (RB),A=(RA),LOC=LOCUSR,FETP=NO,TYPE=PROG    VALIDATE
 USING  @VMFREE-72,R13
 005D7E D709 D048 D048 00000 00000 46136  1          +
 005D84 5030 D04C            00004 46146  1          +
 005D88 5020 D048            00000 46156  1          +
 005D8C D201 D050 AF62 00008 06BD4 46157  1          +
 005D92 58F0 AE8A/0DEF       06AFC 46160  1          +
 005D98 1200/4780 A138       05DAA 46162  1 6871.                IF    (RVR,NZ),BEGIN          INVALID ADDRESS
 005D9E 9206 71A9      001A9       46176  2 6872.                  MVI   SCPPANSY,PANSPEC        SET CODE FOR SPEC
 005DA2 9610 7265      00265       46177  2 6873.                  SET   SCBXP                   MARK USER FOR PANIC
 005DA6 47F0 A15E            05DD0 46183  2 6874.                  EXIT  SET20
 005DAA                            46186  1 6875.                END   ,
 DROP   @VMFREE-72,R13             46190  1 6876.                PSET  @PAGE,CLEAR=NO
 USING  @PAGE-72,R13
 005DAA 5020 D048            00000 46204  1 6877.                ST    RA,@PAGLOC              SET ADDRESS
 005DAE 5030 D04C            00004 46205  1 6878.                ST    RB,@PAGLEN               AND LENGTH
 005DB2 58F0 AE8E/0DEF       06B00 46206  1 6879.                VCALL PAGUPROT                PROTECT THE PAGE
 005DB8 1200/4780 A158       05DCA 46210  1 6880.                IF    (RVR,NZ),BEGIN
 005DBE 9206 71A9      001A9       46224  2 6881.                  MVI   SCPPANSY,PANSPEC        SET CODE FOR SPEC
 005DC2 9610 7265      00265       46225  2 6882.                  SET   SCBXP                   MARK USER FOR PANIC
 005DC6 47F0 A15E            05DD0 46231  2 6883.                  EXIT  SET20
 005DCA                            46234  1 6884.                END   ,
 005DCA                            46238    6885.              END   ,
 005DCA D203 704C AE82 0004C 06AF4 46242    6886.              MVC   SCPGPRS+15*4,=A(0)      Good return
 005DD0 981F C008            00008 46243    6887.              PEND
 DROP   SCP,R7
 DROP   SET20,R10
 005DD4 9680 C000/0B0E 00000       46258             +
 DROP   @PAGE-72,R13
1M1SERV   (M1SE00) (09:42) (22MAR04) ORVYL'S Mode 1 Set SVC                                                                 Page  319
0Current Usings:  (PZERO,R0)
0Loc    Object Code    Addr1 Addr2  Stmt Lv Lineno    Source Statement           (Hibal 5, Asmedit 3.3)  HLASM R4.0  2004/03/22 09.42
+___    ______ ____    _____ _____  ____ __ ______    ______ _________
0                                  46268    6889.     *******************************************************************
                                   46269    6890.     *                                                                 *
                                   46270    6891.     *    S21WORK - SET 21 work area                                   *
                                   46271    6892.     *                                                                 *
                                   46272    6893.     *******************************************************************
0000000                00000 00081 46274    6895.     S21WORK  RECORD BEGIN
 000000                            46282  1 6896.     S21NAME    DS    CL128                   Enqueue resource name
 000080 00                         46283  1 6897.     S21OPTS    FLAG  ,
 S21OPTS.S21OTEST  80 ONES         46287  1 6898.                FLAG  S21OTEST                Test mode request
 000081                00081 00081 46292    6899.              END   ,
-
                                   46302    6901.     *******************************************************************
                                   46303    6902.     *                                                                 *
                                   46304    6903.     *    S21WAIT - SET 21 Wait element                                *
                                   46305    6904.     *                                                                 *
                                   46306    6905.     *******************************************************************
0000000                00000 0001D 46308    6907.     S21WAIT  RECORD BEGIN
 000000                            46316  1 6908.     S21WFP     DS    A                       Forward pointer
 000004                            46317  1 6909.     S21WBP     DS    A                       Back pointer
 000008                            46318  1 6910.     S21WID     DS    CL4'S21W'               Id
 00000C                            46319  1 6911.     S21ADDR    DS    A                       Address of SET 21 SVC
 000010                            46320  1 6912.     S21ASB     DS    A                       ASB pointer
 000014                            46321  1 6913.     S21SCP     DS    A                       SCP pointer
 000018                            46322  1 6914.     S21SYSR    DS    A                       SYSR Id
 00001C 00                         46323  1 6915.     S21FLAG    FLAG  ,
 S21FLAG.S21FPOST  80 ONES         46327  1 6916.                FLAG  S21FPOST                Element posted
 S21FLAG.S21FSYSD  40 ONES         46332  1 6917.                FLAG  S21FSYSD                SYSR deleted
 00001D                0001D 0001D 46337    6918.              END   ,
1M1SERV   (M1SE00) (09:42) (22MAR04) ORVYL'S Mode 1 Set SVC                                                                 Page  320
0Current Usings:  (PZERO,R0)
0Loc    Object Code    Addr1 Addr2  Stmt Lv Lineno    Source Statement           (Hibal 5, Asmedit 3.3)  HLASM R4.0  2004/03/22 09.42
+___    ______ ____    _____ _____  ____ __ ______    ______ _________
0                                  46347    6920.     *******************************************************************
                                   46348    6921.     *                                                                 *
                                   46349    6922.     *    SET 21 - Enqueue resource                                    *
                                   46350    6923.     *                                                                 *
                                   46351    6924.     *                                                                 *
                                   46352    6925.     *     Input - RY Points to SCP                                    *
                                   46353    6926.     *                                                                 *
                                   46354    6927.     *    Output -                                                     *
                                   46355    6928.     *                                                                 *
                                   46356    6929.     *                                                                 *
                                   46357    6930.     *******************************************************************
-
 005DDA                            46359    6932.     SET21    PROC  ,S21WORK,SCOPE=LOCAL
 005DDA E2C5E3F2F1404040           46366             +
 005DE2 0000/0088                  46367             +
 005DE6 900F D004/18AF       00004 46369             +
 USING  SET21,R10
 005DEC 50D0 C000/18CD       00000 46384             +
 005DF2 9680 C000      00000       46386             +
 USING  S21WORK-72,R12
 005DF6 41D0 C0D0            000D0 46400             +
 USING  SCP,R7                     46401    6933.              WITH  (SCP,RY)
 005DFA                            46414    6934.              CLEAR S21WORK
 005DFA D780 C048 C048 00000 00000 46420             +
                                   46421    6935.     *
                                   46422    6936.     *  Get resource name length
                                   46423    6937.     *
 005E00 5830 704C            0004C 46424    6938.              L     RB,SCPGPRS+15*4         CALLER PARM LENGTH
 005E04 1233/47B0 A02A       05E10 46425    6939.              IF    (RB,M),BEGIN
 005E0A 9680 C0C8      00080       46439  1 6940.                SET   S21OTEST                Note test mode
 005E0E 1033                       46445  1 6941.                LPR   RB,RB                   Make positive
 005E10                            46446    6942.              END   ,
                                   46450    6943.     *
                                   46451    6944.     *  Validate caller's parameters
                                   46452    6945.     *
                                   46453    6946.   C          IF    ((RB,NP),OR,            MUST BE POSITIVE
                                            6947.   C                (RB,GT,128),OR,          AND LESS THAN 128
 005E10 1233/47D0 A042       05E28          6948.                    ('LT  RS,SCBENQ',P)),BEGIN  AND NO OTHER ENQUEUES
 005E16 5930 AD1E            06B04 46477             +
 005E1A 4720 A042            05E28 46480             +
 005E1E 5810 726C/1211       0026C 46489             +
 005E24 47D0 A04E            05E34 46491             +
 005E28 9206 71A9      001A9       46496  1 6949.                MVI   SCPPANSY,PANSPEC        SET CODE FOR SPEC
 005E2C 9610 7265      00265       46497  1 6950.                SET   SCBXP                   MARK USER FOR PANIC
 005E30 47F0 A222            06008 46503  1 6951.                EXIT  SET21
 005E34                            46506    6952.              END   ,
                                   46510    6953.     *
                                   46511    6954.     *  Check area containing resource name
                                   46512    6955.     *
 USING  @PAGE-72,R13               46513    6956.              PSET  @PAGE
 005E34 D708 D048 D048 00000 00000 46530             +
 005E3A 5820 7014            00014 46531    6957.              L     RA,SCPGPRS+1*4          LOCATION
1M1SERV   (M1SE00) (09:42) (22MAR04) ORVYL'S Mode 1 Set SVC                                                                 Page  321
0Current Usings:  (PZERO,R0) (SCP,R7) (SET21,R10) (S21WORK-72,R12) (@PAGE-72,R13)
0Loc    Object Code    Addr1 Addr2  Stmt Lv Lineno    Source Statement           (Hibal 5, Asmedit 3.3)  HLASM R4.0  2004/03/22 09.42
+___    ______ ____    _____ _____  ____ __ ______    ______ _________
0005E3E 9180 700C      0000C       46532    6958.              TM    SCPPSW+4,X'80'      31 bit mode?
 005E42 4770 A064            05E4A 46533    6959.              IF    Z,'N RA,=X"00FFFFFF"'
 005E46 5420 AD0A            06AF0 46545             +
 005E4A 5020 D048            00000 46550    6960.              ST    RA,@PAGLOC              SET LOCATION
 005E4E 5030 D04C            00004 46551    6961.              ST    RB,@PAGLEN               LENGTH
 005E52 D200 D050 7009 00008 00009 46552    6962.              MVC   @PAGKEY,SCPPSW+1        PSW KEY
 005E58 94F0 D050      00008       46553    6963.              NI    @PAGKEY,X'F0'            KEY ONLY
 005E5C 58F0 AD22/0DEF       06B08 46554    6964.              VCALL PAGTPROT                CHECK IT OUT
 005E62 5900 AD26            06B0C 46558    6965.              IF    (RVR,GE,2),BEGIN         NO GOOD
 005E66 4750 A090            05E76 46570             +
 005E6A 9206 71A9      001A9       46575  1 6966.                MVI   SCPPANSY,PANSPEC        SET CODE FOR SPEC
 005E6E 9610 7265      00265       46576  1 6967.                SET   SCBXP                   MARK USER FOR PANIC
 005E72 47F0 A222            06008 46582  1 6968.                EXIT  SET21
 005E76                            46585    6969.              END   ,
                                   46589    6970.     *
                                   46590    6971.     *  Copy name to work area
                                   46591    6972.     *
 005E76 D27F C048 AD2A 00000 06B10 46592    6973.              MVC   S21NAME,=CL44' '        CLEAR
 005E7C 0630/4430 ADFE       06BE4 46593    6974.              DEX   RB,'MVC  S21NAME(0),@RA'   GET USER ENQ ID
 006BE3 00                                1          +
 006BE4 D200 C048 2000 00000 00000 46604             +
                                   46612    6975.     *
                                   46613    6976.     *  HASH PORTION OF ENQ NAME OVER 44 BYTES INTO A FOUR-BYTE VALUE
                                   46614    6977.     *
 005E82 5930 AD56            06B3C 46615    6978.              IF    (RB,GE,44),BEGIN
 005E86 4750 A0E0            05EC6 46627             +
 005E8A 41F0 3004            00004 46632  1 6979.                LA    R15,@RB+4
 005E8E 5BF0 AD5A            06B40 46633  1 6980.                S     R15,=A(40)              NUMBER OF BYTES OVER 40
 005E92 88F0 0002            00002 46634  1 6981.                SRL   R15,2                   NUMBER OF WORDS
 005E96 41E0 C070            00028 46635  1 6982.                LA    R14,S21NAME+40          POINTER
 005E9A 5830 AD5E            06B44 46636  1 6983.                L     RB,=X'00010000'
 005E9E                            46637  1 6984.                LOOP  BEGIN
 005E9E 5810 AD62            06B48 46643  2 6985.                  L     RS,=X'0F1E2D3C'         GET XOR KEY
 005EA2 5710 E000            00000 46644  2 6986.                  X     RS,@R14
 005EA6 1C21                       46645  2 6987.                  MR    RA,RS                   FACTOR IN RA
 005EA8 8C20 0010            00010 46646  2 6988.                  SRDL  RA,16                   SAVE MIDDLE BYTES
 005EAC 41E0 E004            00004 46647  2 6989.                  LA    R14,@R14+4              TO NEXT PORTION OF BUFFER
 005EB0 06F0                       46648  2 6990.                  DECR  R15
 005EB2 12FF/4770 A0B8       05E9E 46650  1 6991.                UNTIL (R15,Z),END
 005EB8 1233/4770 A0DC       05EC2 46672  1 6992.                IF    (RB,Z),'L  RB,=X"0F1E2D3C"'
 005EBE 5830 AD62            06B48 46687  1          +
 005EC2 5030 C070            00028 46692  1 6993.                ST    RB,S21NAME+40           ADD HASH VALUE TO STRING
 005EC6                            46693    6994.              END   ,
                                   46697    6995.     *
                                   46698    6996.     *  GET SET 21 LOCK
                                   46699    6997.     *
 005EC6 5820 0200            00200 46700    6998.              L     RA,MATPTR                MAT POINTER
 005ECA 5820 2010            00010 46701    6999.              WITH  (MAT,RA),'L  RA,MATM1CT'   CT POINTER
 USING  MAT,R2
 DROP   MAT,R2
 USING  M1CT,R2                    46725    7000.              WITH  (M1CT,RA),'LKOB  CTST21LK'   GET LOCK
 DROP   @PAGE-72,R13
 USING  @LOCKS-72,R13
 005ECE D203 D048 2018 00000 00018 46759  1          +
1M1SERV   (M1SE00) (09:42) (22MAR04) ORVYL'S Mode 1 Set SVC                                                                 Page  322
0Current Usings:  (PZERO,R0) (SCP,R7) (SET21,R10) (S21WORK-72,R12) (@LOCKS-72,R13)
0Loc    Object Code    Addr1 Addr2  Stmt Lv Lineno    Source Statement           (Hibal 5, Asmedit 3.3)  HLASM R4.0  2004/03/22 09.42
+___    ______ ____    _____ _____  ____ __ ______    ______ _________
0005ED4 58F0 AD66/0DEF       06B4C 46762             +
 DROP   M1CT,R2
                                   46772    7001.     *
                                   46773    7002.     *  Remove outstanding set 21 wait request
                                   46774    7003.     *
 005EDA 5810 726C/1211       0026C 46775    7004.              IF    ('LT  RS,SCBENQ',NEG),BEGIN
 005EE0 47B0 A10A            05EF0 46786             +
 005EE4 41F0 A368/0DEF       0614E 46791  1 7005.                LCALL S21CAN
 005EEA 1200/4770 A20E       05FF4 46800  1 7006.                IF    (RVR,NZ),SET21X         DELETE UNSUCCESSFUL
 005EF0                            46817    7007.              END   ,
                                   46821    7008.     *
                                   46822    7009.     *  Enqueue on name
                                   46823    7010.     *
 DROP   @LOCKS-72,R13              46824    7011.              PSET  @ENQUEUE
 USING  @ENQUEUE-72,R13
 005EF0 D738 D048 D048 00000 00000 46844             +
 005EF6 D22B D054 C048 0000C 00000 46845    7012.              MVC   @ENQRNM,S21NAME         RESOURCE NAME
 005EFC D207 D04C ACE2 00004 06AC8 46846    7013.              MVC   @ENQQNM,=CL8'SET21'     QUEUE NAME
 005F02 58F0 AD6A/0DEF       06B50 46847    7014.              VCALL ENQUEUE
 005F08 1200/4780 A132       05F18 46851    7015.              IF    (RVR,NZ),BEGIN
 005F0E 5000 726C            0026C 46865  1 7016.                ST    RVR,SCBENQ              THIS USER HAS ENQUEUE NOW
 005F12 D203 704C AD0E 0004C 06AF4 46866  1 7017.                MVC   SCPGPRS+15*4,=A(0)      GOOD RETURN
 005F18                            46867    7018.              END   ,
                                   46871    7019.     *
                                   46872    7020.     *  Resource not immediately available - done if mode test
                                   46873    7021.     *
 005F18 A136           05F18 05F0C 46874    7022.              ELSE  BEGIN
 005F18 47F0 A20E            05FF4 46879             +
 005F1C 9180 C0C8      00080       46885  1 7023.                IF    S21OTEST,'MVC  SCPGPRS+15*4,=A(4)'    MODE TEST
 005F20 47E0 A144            05F2A 46895  1          +
 005F24 D203 704C AD6E 0004C 06B54 46901  1          +
                                   46906  1 7024.     *
                                   46907  1 7025.     *  Caller will wait - back up PSW and mark for suspend
                                   46908  1 7026.     *
 005F2A A148           05F2A 05F22 46909  1 7027.                ELSE  BEGIN
 005F2A 47F0 A20E            05FF4 46914  1          +
 005F2E 48E0 71A6            001A6 46920  2 7028.                  LH    R14,SCPIPSW+2           GET CURRENT ILC
 005F32 88E0 000D            0000D 46921  2 7029.                  SRL   R14,8+6-1               ISOLATE
 005F36 54E0 AD72            06B58 46922  2 7030.                  N     R14,=X'00000006'         INSTRUCTION LENGTH
 005F3A 58F0 700C            0000C 46923  2 7031.                  L     R15,SCPPSW+4            GET CURRENT PSW ADDRESS
 005F3E 1FFE                       46924  2 7032.                  SLR   R15,R14                 BACK UP TO SVC INSTRUCTION
 005F40 50F0 700C            0000C 46925  2 7033.                  ST    R15,SCPPSW+4            RESET PSW
 005F44 943F 71A6      001A6       46926  2 7034.                  CLEAR SCPIPSW+2.X'C0'
 005F48 9680 7260      00260       46934  2 7035.                  SET   SCBFWAIT                MARK USER AS WAITING
 005F4C 9620 7262      00262       46940  2 7036.                  SET   SCBFNPUP                DON'T CHANGE PSW CC
                                   46946  2 7037.     *
                                   46947  2 7038.     *  Obtain memory for wait element
                                   46948  2 7039.     *
 DROP   @ENQUEUE-72,R13            46949  2 7040.                  VMGET L'S21WAIT,LOC=GLOBHI,FIX=YES  GET WAIT ELEMENT
 USING  @VMGET-72,R13
 005F50 D70A D048 D048 00000 00000 46976  2          +
 005F56 4100 001D            0001D 46988  2          +
 005F5A 5000 D048            00000 46993  2          +
 005F5E D201 D050 ADF0 00008 06BD6 46994  2          +
1M1SERV   (M1SE00) (09:42) (22MAR04) ORVYL'S Mode 1 Set SVC                                                                 Page  323
0Current Usings:  (PZERO,R0) (SCP,R7) (SET21,R10) (S21WORK-72,R12) (@VMGET-72,R13)
0Loc    Object Code    Addr1 Addr2  Stmt Lv Lineno    Source Statement           (Hibal 5, Asmedit 3.3)  HLASM R4.0  2004/03/22 09.42
+___    ______ ____    _____ _____  ____ __ ______    ______ _________
0005F64 58F0 AD76/0DEF       06B5C 46997  2          +
 005F6A 1230/4770 A1BA       05FA0 46999  2 7041.                  IF    ('LTR  RB,RVR',Z),'ABORT S21WAIT'
 005F70 AC04 021B      0021B       47016  3          +
 005F74 9680 021A      0021A       47022  3          +
 005F78 50F0 021C            0021C 47023  3          +
 005F7C 58F0 0210            00210 47024  3          +
 005F80 89F0 0010            00010 47025  3          +
 005F84 88F0 0010            00010 47026  3          +
 005F88 41F0 F000            00000 47027  3          +
 005F8C AEFF 0006            00006 47028  3          +
 005F90 E2F2F1E6C1C9E340           47029  2          +
 USING  S21WAIT,R3                 47034  2 7042.                  WITH  (S21WAIT,RB)
 005FA0                            47047  2 7043.                  CLEAR S21WAIT
 005FA0 D71C 3000 3000 00000 00000 47053  2          +
 005FA6 5030 726C            0026C 47054  2 7044.                  ST    RB,SCBENQ
 005FAA 9680 726C      0026C       47055  2 7045.                  SET   SCBENQ.X'80'            MARK AS WAIT ELEMENT
                                   47062  2 7046.     *
                                   47063  2 7047.     *  Build wait element
                                   47064  2 7048.     *
 005FAE D203 3008 AD7A 00008 06B60 47065  2 7049.                  MVC   S21WID,=CL4'S21W'       ID
 005FB4 D203 300C 700C 0000C 0000C 47066  2 7050.                  MVC   S21ADDR,SCPPSW+4        Location
 DROP   @VMGET-72,R13              47067  2 7051.                  PSET  @SYSRNEW
 USING  @SYSRNEW-72,R13
 005FBA D703 D048 D048 00000 00000 47087  2          +
 005FC0 58F0 AD7E/0DEF       06B64 47088  2 7052.                  VCALL SYSRNEW                 CREATE SYSR ID
 005FC6 5000 3018            00018 47092  2 7053.                  ST    RVR,S21SYSR
 005FCA 5070 3014            00014 47093  2 7054.                  ST    RY,S21SCP               SCP POINTER IS PARM
 005FCE D203 3010 0208 00010 00208 47094  2 7055.                  MVC   S21ASB,PZCURASB         INCLUDE ASB
                                   47095  2 7056.     *
                                   47096  2 7057.     *  Add wait element to SET 21 queue
                                   47097  2 7058.     *
 005FD4 5820 0200            00200 47098  2 7059.                  L     RA,MATPTR               MAT POINTER
 005FD8 5820 2010            00010 47099  2 7060.                  WITH  (MAT,RA),'L  RA,MATM1CT'   CT POINTER
 USING  MAT,R2
 DROP   MAT,R2
 USING  M1CT,R2                    47123  2 7061.                  WITH  (M1CT,RA),BEGIN
 005FDC 41F0 201C            0001C 47137  3 7062.                    LA    R15,CTST21QH            Head of queue
 005FE0 50F0 3000            00000 47138  3 7063.                    ST    R15,S21WFP               is forward pointer
 005FE4 58F0 2020            00020 47139  3 7064.                    L     R15,CTST21QT            Previous end element
 005FE8 5030 F000            00000 47140  3 7065.                    WITH  (S21WAIT,R15),'ST  RB,S21WFP'   Now points here
 USING  S21WAIT,R15
 DROP   S21WAIT,R15
 005FEC 50F0 3004            00004 47164  3 7066.                    ST    R15,S21WBP               and this points there
 005FF0 5030 2020            00020 47165  3 7067.                    ST    RB,CTST21QT              New queue tail
 DROP   M1CT,R2                    47166  2 7068.                  END   ,
 DROP   S21WAIT,R3                 47174  1 7069.                END   ,
 005FF4                            47183    7070.              END   ,
                                   47187    7071.     *
                                   47188    7072.     *  RELEASE THE SET 21 LOCK
                                   47189    7073.     *
 005FF4                            47190    7074.     SET21X   LABEL ,
 005FF4 5820 0200            00200 47192    7075.              L     RA,MATPTR                MAT POINTER
 005FF8 5820 2010            00010 47193    7076.              WITH  (MAT,RA),'L  RA,MATM1CT'   CT POINTER
 USING  MAT,R2
1M1SERV   (M1SE00) (09:42) (22MAR04) ORVYL'S Mode 1 Set SVC                                                                 Page  324
0Current Usings:  (PZERO,R0) (SCP,R7) (SET21,R10) (S21WORK-72,R12) (@SYSRNEW-72,R13)
0Loc    Object Code    Addr1 Addr2  Stmt Lv Lineno    Source Statement           (Hibal 5, Asmedit 3.3)  HLASM R4.0  2004/03/22 09.42
+___    ______ ____    _____ _____  ____ __ ______    ______ _________
0DROP   MAT,R2
 USING  M1CT,R2                    47217    7077.              WITH  (M1CT,RA),'LKREL  CTST21LK'   RELEASE THE LOCK
 DROP   @SYSRNEW-72,R13
 USING  @LOCKS-72,R13
 005FFC D203 D048 2018 00000 00018 47251  1          +
 006002 58F0 AD82/0DEF       06B68 47254             +
 DROP   M1CT,R2
 006008 981F C008            00008 47264    7078.              PEND
 DROP   SCP,R7
 DROP   S21WORK-72,R12
 DROP   SET21,R10
 00600C 9680 C000/0B0E 00000       47284             +
 DROP   @LOCKS-72,R13
1M1SERV   (M1SE00) (09:42) (22MAR04) ORVYL'S Mode 1 Set SVC                                                                 Page  325
0Current Usings:  (PZERO,R0)
0Loc    Object Code    Addr1 Addr2  Stmt Lv Lineno    Source Statement           (Hibal 5, Asmedit 3.3)  HLASM R4.0  2004/03/22 09.42
+___    ______ ____    _____ _____  ____ __ ______    ______ _________
0                                  47294    7080.     *******************************************************************
                                   47295    7081.     *                                                                 *
                                   47296    7082.     *    SET 22 - Dequeue resource                                    *
                                   47297    7083.     *                                                                 *
                                   47298    7084.     *                                                                 *
                                   47299    7085.     *     Input - RY Points to SCP                                    *
                                   47300    7086.     *                                                                 *
                                   47301    7087.     *    Output -                                                     *
                                   47302    7088.     *                                                                 *
                                   47303    7089.     *                                                                 *
                                   47304    7090.     *******************************************************************
-
 006012                            47306    7092.     SET22    PROC  ,SCOPE=LOCAL
 006012 E2C5E3F2F2404040           47313             +
 00601A 0000/0000                  47314             +
 00601E 900F D004/18AF       00004 47316             +
 USING  SET22,R10
 006024 50D0 C000/18CD       00000 47331             +
 00602A 9680 C000      00000       47333             +
 00602E 41D0 C048            00048 47334             +
 USING  SCP,R7                     47335    7093.              WITH  (SCP,RY)
                                   47348    7094.     *
                                   47349    7095.     *  User neither owns nor is waiting
                                   47350    7096.     *
 006032 5830 726C            0026C 47351    7097.              L     RB,SCBENQ               GET ENQUEUE VALUE
 006036 1233/4780 A0AA       060C8 47352    7098.              IF    (RB,Z),EXIT
                                   47369    7099.     *
                                   47370    7100.     *  GET CT POINTER
                                   47371    7101.     *
 00603C 5850 0200            00200 47372    7102.              L     RK,MATPTR                MAT POINTER
 006040 5850 5010            00010 47373    7103.              WITH  (MAT,RK),'L  RK,MATM1CT'   CT POINTER
 USING  MAT,R5
 DROP   MAT,R5
 USING  M1CT,R5                    47397    7104.              WITH  (M1CT,RK)
                                   47410    7105.     *
                                   47411    7106.     *  GET SET 21 LOCK
                                   47412    7107.     *
 USING  @LOCKS-72,R13              47413    7108.              LKOB  CTST21LK                GET LOCK
 006044 D203 D048 5018 00000 00018 47429             +
 00604A 58F0 AB2E/0DEF       06B4C 47432             +
                                   47434    7109.     *
                                   47435    7110.     *  USER OWNS THE RESOURCE - RELEASE IT
                                   47436    7111.     *
 006050 1233/47D0 A094       060B2 47437    7112.              IF    (RB,P),BEGIN
 006056                            47451  1 7113.                CLEAR SCBENQ                  RESET THE ENQ FIELD
 006056 D703 726C 726C 0026C 0026C 47457  1          +
 DROP   @LOCKS-72,R13              47458  1 7114.                PSET  @DEQUEUE
 USING  @DEQUEUE-72,R13
 00605C D738 D048 D048 00000 00000 47478  1          +
 006062 5030 D048            00000 47479  1 7115.                ST    RB,@DEQID               GIVE ENQUEUE ID
 006066 58F0 AB4E/0DEF       06B6C 47480  1 7116.                VCALL DEQUEUE
                                   47484  1 7117.     *
1M1SERV   (M1SE00) (09:42) (22MAR04) ORVYL'S Mode 1 Set SVC                                                                 Page  326
0Current Usings:  (PZERO,R0) (M1CT,R5) (SCP,R7) (SET22,R10) (@DEQUEUE-72,R13)
0Loc    Object Code    Addr1 Addr2  Stmt Lv Lineno    Source Statement           (Hibal 5, Asmedit 3.3)  HLASM R4.0  2004/03/22 09.42
+___    ______ ____    _____ _____  ____ __ ______    ______ _________
0                                  47485  1 7118.     *  THEN POST THOSE ON SET 21 WAIT QUEUE
                                   47486  1 7119.     *
 00606C 4120 501C            0001C 47487  1 7120.                LA    RA,CTST21QH             SET 21 WAIT QUEUE HEAD
 006070 5920 501C            0001C 47488  1 7121.                WHILE (RA,NE,CTST21QH),BEGIN
 006074 4780 A094            060B2 47502  1          +
 006078 5830 501C            0001C 47507  2 7122.                  L     RB,CTST21QH
 USING  S21WAIT,R3                 47508  2 7123.                  WITH  (S21WAIT,RB)
 00607C 98EF 3000            00000 47521  2 7124.                  LM    R14,R15,S21WFP          Get previous and next
 006080 50F0 E004            00004 47522  2 7125.                  WITH  (S21WAIT,R14),'ST  R15,S21WBP'
 USING  S21WAIT,R14
 DROP   S21WAIT,R14
 006084 50E0 F000            00000 47546  2 7126.                  WITH  (S21WAIT,R15),'ST  R14,S21WFP'
 USING  S21WAIT,R15
 DROP   S21WAIT,R15
 006088 9680 301C      0001C       47570  2 7127.                  SET   S21FPOST                MARK ELEMENT POSTED
 DROP   @DEQUEUE-72,R13            47576  2 7128.                  PSET  @SYSRDO
 USING  @SYSRDO-72,R13
 00608C D71B D048 D048 00000 00000 47596  2          +
 006092 D203 D048 3018 00000 00018 47597  2 7129.                  MVC   @SYSRID,S21SYSR         SET SYSR ID
 006098 D203 D04C 3010 00004 00010 47598  2 7130.                  MVC   @SYSRASB,S21ASB          ASB
 00609E D203 D050 AB52 00008 06B70 47599  2 7131.                  MVC   @SYSRLOC,=A(S21POST)     ROUTINE ADDRESS
 0060A4 5030 D054            0000C 47600  2 7132.                  ST    RB,@SYSRPRM              S21WAIT IS PARM
 0060A8 58F0 AB56/0DEF       06B74 47601  2 7133.                  VCALL SYSRDO                  START IT UP
 0060AE 47F0 A052            06070 47605  1 7134.                END   ,
 DROP   S21WAIT,R3
 0060B2                            47615    7135.              END   ,
                                   47619    7136.     *
                                   47620    7137.     *  REMOVE WAITING USER FROM WAIT QUEUE
                                   47621    7138.     *
 0060B2 A098           060B2 06054 47622    7139.              ELSE  'LCALL S21CAN'          TRY TO GET RID OF IT
 0060B2 47F0 A09E            060BC 47627             +
 0060B6 41F0 A130/0DEF       0614E 47641             +
                                   47647    7140.     *
                                   47648    7141.     *  RELEASE THE SET 21 LOCK
                                   47649    7142.     *
 DROP   @SYSRDO-72,R13             47650    7143.              LKREL CTST21LK                RELEASE THE LOCK
 USING  @LOCKS-72,R13
 0060BC D203 D048 5018 00000 00018 47669             +
 0060C2 58F0 AB4A/0DEF       06B68 47672             +
 0060C8 981F C008            00008 47674    7144.              PEND
 DROP   M1CT,R5
 DROP   SCP,R7
 DROP   SET22,R10
 0060CC 9680 C000/0B0E 00000       47694             +
 DROP   @LOCKS-72,R13
1M1SERV   (M1SE00) (09:42) (22MAR04) ORVYL'S Mode 1 Set SVC                                                                 Page  327
0Current Usings:  (PZERO,R0)
0Loc    Object Code    Addr1 Addr2  Stmt Lv Lineno    Source Statement           (Hibal 5, Asmedit 3.3)  HLASM R4.0  2004/03/22 09.42
+___    ______ ____    _____ _____  ____ __ ______    ______ _________
0                                  47704    7146.     *******************************************************************
                                   47705    7147.     *                                                                 *
                                   47706    7148.     *    S21POST - SET 21 Post SYSR routine                           *
                                   47707    7149.     *                                                                 *
                                   47708    7150.     *                                                                 *
                                   47709    7151.     *     Input - @SYSRTN                                             *
                                   47710    7152.     *                                                                 *
                                   47711    7153.     *    Output -                                                     *
                                   47712    7154.     *                                                                 *
                                   47713    7155.     *                                                                 *
                                   47714    7156.     *******************************************************************
-
 0060D2                            47716    7158.     S21POST  PROC  @SYSRTN,SCOPE=LOCAL
 0060D2 E2F2F1D7D6E2E340           47723             +
 0060DA 0010/0000                  47724             +
 0060DE 900F D004/18AF       00004 47726             +
 USING  S21POST,R10
 0060E4 50D0 C000/18CD       00000 47741             +
 0060EA 9680 C000      00000       47743             +
 USING  @SYSRTN-72,R12
 0060EE 41D0 C058            00058 47757             +
 0060F2 5830 C048            00000 47758    7159.              L     RB,@SYSPARS             S21 WAIT ELEMENT POINTER
 USING  S21WAIT,R3                 47759    7160.              WITH  (S21WAIT,RB)
 0060F6 5870 3014            00014 47772    7161.              L     RY,S21SCP               SCP POINTER
 USING  SCP,R7                     47773    7162.              WITH  (SCP,RY)
                                   47786    7163.     *
                                   47787    7164.     *  TASK IS STILL SUSPENDED - WAKE IT UP
                                   47788    7165.     *
 0060FA 9180 7260      00260       47789    7166.              IF    SCBFWAIT,BEGIN
 0060FE 47E0 A044            06122 47799             +
 006102                            47804  1 7167.                IF    (S21ADDR,NE,SCPPSW+4),EXIT   Not waiting for SET 21
 006102 D503 300C 700C 0000C 0000C 47816  1          +
 006108 4770 A044            06122 47819  1          +
 USING  @RESUME-72,R13             47825  1 7168.                PSET  @RESUME
 00610C D707 D048 D048 00000 00000 47842  1          +
 006112 D207 D048 71C0 00000 001C0 47843  1 7169.                MVC   @RESCTL,SCPSID          SET SUSPEND ID
 006118 58F0 AA9A/0DEF       06B78 47844  1 7170.                VCALL RESUMTS                 START THE TASK GOING
 00611E 947F 7260      00260       47848  1 7171.                CLEAR SCBFWAIT
 006122                            47855    7172.              END   ,
                                   47859    7173.     *
                                   47860    7174.     *  DELETE SYSR
                                   47861    7175.     *
 DROP   @RESUME-72,R13             47862    7176.              PSET  @SYSRDEL
 USING  @SYSRDEL-72,R13
 006122 D703 D048 D048 00000 00000 47882             +
 006128 D203 D048 3018 00000 00018 47883    7177.              MVC   @SYSRDID,S21SYSR
 00612E 58F0 AA9E/0DEF       06B7C 47884    7178.              VCALL SYSRDEL
 006134 9640 301C      0001C       47888    7179.              SET   S21FSYSD                Mark it deleted
 006138 981F C008            00008 47894    7180.              PEND
 DROP   SCP,R7
 DROP   S21WAIT,R3
 DROP   @SYSRTN-72,R12
1M1SERV   (M1SE00) (09:42) (22MAR04) ORVYL'S Mode 1 Set SVC                                                                 Page  328
0Current Usings:  (PZERO,R0) (@SYSRDEL-72,R13)
0Loc    Object Code    Addr1 Addr2  Stmt Lv Lineno    Source Statement           (Hibal 5, Asmedit 3.3)  HLASM R4.0  2004/03/22 09.42
+___    ______ ____    _____ _____  ____ __ ______    ______ _________
0DROP   S21POST,R10
 00613C 9680 C000/0B0E 00000       47919             +
 DROP   @SYSRDEL-72,R13
1M1SERV   (M1SE00) (09:42) (22MAR04) ORVYL'S Mode 1 Set SVC                                                                 Page  329
0Current Usings:  (PZERO,R0)
0Loc    Object Code    Addr1 Addr2  Stmt Lv Lineno    Source Statement           (Hibal 5, Asmedit 3.3)  HLASM R4.0  2004/03/22 09.42
+___    ______ ____    _____ _____  ____ __ ______    ______ _________
0                                  47929    7182.     *******************************************************************
                                   47930    7183.     *                                                                 *
                                   47931    7184.     *    S21CAN - SET 21 Cancel wait request routine                  *
                                   47932    7185.     *                                                                 *
                                   47933    7186.     *                                                                 *
                                   47934    7187.     *     Input - RY Points to SCP                                    *
                                   47935    7188.     *             SET 21 lock must be held                            *
                                   47936    7189.     *                                                                 *
                                   47937    7190.     *    Output -                                                     *
                                   47938    7191.     *                                                                 *
                                   47939    7192.     *                                                                 *
                                   47940    7193.     *******************************************************************
-
 006142                            47942    7195.     S21CAN   PROC  ,SCOPE=LOCAL
 006142 E2F2F1C3C1D54040           47949             +
 00614A 0000/0000                  47950             +
 00614E 900F D004/18AF       00004 47952             +
 USING  S21CAN,R10
 006154 50D0 C000/18CD       00000 47967             +
 00615A 9680 C000      00000       47969             +
 00615E 41D0 C048            00048 47970             +
 USING  SCP,R7                     47971    7196.              WITH  (SCP,RY)
 006162 5820 726C            0026C 47984    7197.              L     RA,SCBENQ               Element pointer
 006166 5420 AA32            06B80 47985    7198.              N     RA,=X'7FFFFFFF'
 USING  S21WAIT,R2                 47986    7199.              WITH  (S21WAIT,RA)
                                   47999    7200.     *
                                   48000    7201.     *  IF NOT YET POSTED REMOVE THIS USER FROM THE SET 21 WAIT QUEUE
                                   48001    7202.     *
 00616A 9180 201C      0001C       48002    7203.              IF    ~S21FPOST,BEGIN
 00616E 4710 A034            06182 48012             +
 006172 98EF 2000            00000 48017  1 7204.                LM    R14,R15,S21WFP          Get previous and next
 006176 50F0 E004            00004 48018  1 7205.                WITH  (S21WAIT,R14),'ST  R15,S21WBP'
 USING  S21WAIT,R14
 DROP   S21WAIT,R14
 00617A 50E0 F000            00000 48042  1 7206.                WITH  (S21WAIT,R15),'ST  R14,S21WFP'
 USING  S21WAIT,R15
 DROP   S21WAIT,R15
 00617E 9680 201C      0001C       48066  1 7207.                SET   S21FPOST                Note that it is removed
 006182                            48072    7208.              END
                                   48076    7209.     *
                                   48077    7210.     *  IF SYSR STILL ACTIVE TRY TO DELETE IT
                                   48078    7211.     *
 006182 9140 201C      0001C       48079    7212.              IF    ~S21FSYSD,BEGIN
 006186 4710 A076            061C4 48089             +
 USING  @SYSRDEL-72,R13            48094  1 7213.                PSET  @SYSRDEL
 00618A D703 D048 D048 00000 00000 48111  1          +
 006190 D203 D048 2018 00000 00018 48112  1 7214.                MVC   @SYSRDID,S21SYSR
 006196 58F0 AA2E/0DEF       06B7C 48113  1 7215.                VCALL SYSRDEL
                                   48117  1 7216.     *
                                   48118  1 7217.     *  IF THE SYSR COULDN'T BE DELETED CAUSE THIS USER TO RE-RUN
                                   48119  1 7218.     *
 00619C 1200/4780 A076       061C4 48120  1 7219.                IF    (RVR,NZ),BEGIN
1M1SERV   (M1SE00) (09:42) (22MAR04) ORVYL'S Mode 1 Set SVC                                                                 Page  330
0Current Usings:  (PZERO,R0) (S21WAIT,R2) (SCP,R7) (S21CAN,R10) (@SYSRDEL-72,R13)
0Loc    Object Code    Addr1 Addr2  Stmt Lv Lineno    Source Statement           (Hibal 5, Asmedit 3.3)  HLASM R4.0  2004/03/22 09.42
+___    ______ ____    _____ _____  ____ __ ______    ______ _________
00061A2 48E0 71A6            001A6 48134  2 7220.                  LH    R14,SCPIPSW+2           GET CURRENT ILC
 0061A6 88E0 000D            0000D 48135  2 7221.                  SRL   R14,8+6-1               ISOLATE
 0061AA 54E0 AA0A            06B58 48136  2 7222.                  N     R14,=X'00000006'         INSTRUCTION LENGTH
 0061AE 58F0 700C            0000C 48137  2 7223.                  L     R15,SCPPSW+4            GET CURRENT PSW ADDRESS
 0061B2 1FFE                       48138  2 7224.                  SLR   R15,R14                 BACK UP TO SVC INSTRUCTION
 0061B4 50F0 700C            0000C 48139  2 7225.                  ST    R15,SCPPSW+4            RESET PSW
 0061B8 943F 71A6      001A6       48140  2 7226.                  CLEAR SCPIPSW+2.X'C0'
 0061BC 9620 7262      00262       48148  2 7227.                  SET   SCBFNPUP                DON'T CHANGE PSW CC
 0061C0 47F0 A0D0            0621E 48154  2 7228.                  EXIT  S21CAN
 0061C4                            48157  1 7229.                END   ,
 0061C4                            48161    7230.              END   ,
                                   48165    7231.     *
                                   48166    7232.     *  Release the wait element
                                   48167    7233.     *
 DROP   @SYSRDEL-72,R13            48168    7234.              VMFREE L'S21WAIT,A=(RA),LOC=GLOBHI,FIX=YES
 USING  @VMFREE-72,R13
 0061C4 D709 D048 D048 00000 00000 48195             +
 0061CA 4100 001D            0001D 48207             +
 0061CE 5000 D04C            00004 48212             +
 0061D2 5020 D048            00000 48222             +
 0061D6 D201 D050 AA88 00008 06BD6 48223             +
 0061DC 58F0 AA36/0DEF       06B84 48226             +
 0061E2 1200/4780 A0CA       06218 48228    7235.              IF    (RVR,NZ),'ABORT S21FREE'
 0061E8 AC04 021B      0021B       48246  1          +
 0061EC 9680 021A      0021A       48252  1          +
 0061F0 50F0 021C            0021C 48253  1          +
 0061F4 58F0 0210            00210 48254  1          +
 0061F8 89F0 0010            00010 48255  1          +
 0061FC 88F0 0010            00010 48256  1          +
 006200 41F0 F000            00000 48257  1          +
 006204 AEFF 0006            00006 48258  1          +
 006208 E2F2F1C6D9C5C540           48259             +
 006218                            48264    7236.              CLEAR SCBENQ                  RESET THE ENQ FIELD
 006218 D703 726C 726C 0026C 0026C 48270             +
 00621E 981F C008            00008 48271    7237.              PEND
 DROP   S21WAIT,R2
 DROP   SCP,R7
 DROP   S21CAN,R10
 006222 9680 C000/0B0E 00000       48291             +
 DROP   @VMFREE-72,R13
1M1SERV   (M1SE00) (09:42) (22MAR04) ORVYL'S Mode 1 Set SVC                                                                 Page  331
0Current Usings:  (PZERO,R0)
0Loc    Object Code    Addr1 Addr2  Stmt Lv Lineno    Source Statement           (Hibal 5, Asmedit 3.3)  HLASM R4.0  2004/03/22 09.42
+___    ______ ____    _____ _____  ____ __ ______    ______ _________
0                                  48301    7239.     *******************************************************************
                                   48302    7240.     *                                                                 *
                                   48303    7241.     *    SET 23 - Set trash (memory clearing) byte                    *
                                   48304    7242.     *                                                                 *
                                   48305    7243.     *                                                                 *
                                   48306    7244.     *     Input - RY Points to SCP                                    *
                                   48307    7245.     *                                                                 *
                                   48308    7246.     *    Output -                                                     *
                                   48309    7247.     *                                                                 *
                                   48310    7248.     *                                                                 *
                                   48311    7249.     *******************************************************************
-
 006228                            48313    7251.     SET23    PROC  ,SCOPE=LOCAL
 006228 E2C5E3F2F3404040           48320             +
 006230 0000/0000                  48321             +
 006234 900F D004/18AF       00004 48323             +
 USING  SET23,R10
 00623A 50D0 C000/18CD       00000 48338             +
 006240 9680 C000      00000       48340             +
 006244 41D0 C048            00048 48341             +
 USING  SCP,R7                     48342    7252.              WITH  (SCP,RY)
 006248 5810 7014            00014 48355    7253.              L     RS,SCPGPRS+1*4
 00624C 4210 7202            00202 48356    7254.              STC   RS,SCPTRASH
 006250 D203 704C A8C0 0004C 06AF4 48357    7255.              MVC   SCPGPRS+15*4(4),=A(0)   SIMPLY DONE
                                   48358    7256.     *
                                   48359    7257.     *  Set user's hash value
                                   48360    7258.     *
 USING  @PAGE-72,R13               48361    7259.              PSET  @PAGE
 006256 D708 D048 D048 00000 00000 48378             +
 00625C                            48379    7260.              PMOV  @PAGLOC,SCPRRSEG        For the whole user area
 00625C D203 D048 71F4 00000 001F4 48383             +
 006262                            48384    7261.              PMOV  @PAGLEN,SCPUMSIZ
 006262 D203 D04C 71F0 00004 001F0 48388             +
 006268 4210 D050            00008 48389    7262.              PMOV  @PAGHASH,(RS)
 00626C 58F0 A954/0DEF       06B88 48399    7263.              VCALL PAGHASH
 006272 981F C008            00008 48403    7264.              PEND
 DROP   SCP,R7
 DROP   SET23,R10
 006276 9680 C000/0B0E 00000       48418             +
 DROP   @PAGE-72,R13
1M1SERV   (M1SE00) (09:42) (22MAR04) ORVYL'S Mode 1 Set SVC                                                                 Page  332
0Current Usings:  (PZERO,R0)
0Loc    Object Code    Addr1 Addr2  Stmt Lv Lineno    Source Statement           (Hibal 5, Asmedit 3.3)  HLASM R4.0  2004/03/22 09.42
+___    ______ ____    _____ _____  ____ __ ______    ______ _________
0                                  48428    7266.     *******************************************************************
                                   48429    7267.     *                                                                 *
                                   48430    7268.     *    SET 24 Program name translation table                        *
                                   48431    7269.     *                                                                 *
                                   48432    7270.     *******************************************************************
0006BEA                06BE3 07A90 48434    7272.              DATA  BEGIN
 006BEA 0101010101010101           48439  1 7273.     PNAMTAB    DC    256X'01'                DEFAULT IS ALL INVALID
 006CEA                06CEA 06CAB 48440  1 7274.                ORG   PNAMTAB+C'A'
 006CAB 0000000000000000           48441  1 7275.                DC    X'000000000000000000'   A-I
 006CB4                06CB4 06CBB 48442  1 7276.                ORG   PNAMTAB+C'J'
 006CBB 0000000000000000           48443  1 7277.                DC    X'000000000000000000'   J-R
 006CC4                06CC4 06CCC 48444  1 7278.                ORG   PNAMTAB+C'S'
 006CCC 0000000000000000           48445  1 7279.                DC    X'0000000000000000'     S-Z
 006CD4                06CD4 06CDA 48446  1 7280.                ORG   PNAMTAB+C'0'
 006CDA 0000000000000000           48447  1 7281.                DC    X'00000000000000000000' 0-9
 006CE4                06CE4 06C2A 48448  1 7282.                ORG   PNAMTAB+C' '
 006C2A 00                         48449  1 7283.                DC    X'00'                   BLANK
 006C2B                06C2B 06C6B 48450  1 7284.                ORG   PNAMTAB+C'a'
 006C6B 0000000000000000           48451  1 7285.                DC    X'000000000000000000'   a-i
 006C74                06C74 06C7B 48452  1 7286.                ORG   PNAMTAB+C'j'
 006C7B 0000000000000000           48453  1 7287.                DC    X'000000000000000000'   j-r
 006C84                06C84 06C8C 48454  1 7288.                ORG   PNAMTAB+C's'
 006C8C 0000000000000000           48455  1 7289.                DC    X'0000000000000000'     s-z
 006C94                06C94 06CEA 48456  1 7290.                ORG
 00627C                05C66 07A90 48457    7291.              END   ,
-
                                   48464    7293.     *******************************************************************
                                   48465    7294.     *                                                                 *
                                   48466    7295.     *    S24WORK - SET 24 work area                                   *
                                   48467    7296.     *                                                                 *
                                   48468    7297.     *******************************************************************
0000000                00000 00008 48470    7299.     S24WORK  RECORD BEGIN
 000000                            48478  1 7300.     S24NAME    DS    CL8                     PROGRAM NAME
 000008                00008 00008 48479    7301.              END   ,
1M1SERV   (M1SE00) (09:42) (22MAR04) ORVYL'S Mode 1 Set SVC                                                                 Page  333
0Current Usings:  (PZERO,R0)
0Loc    Object Code    Addr1 Addr2  Stmt Lv Lineno    Source Statement           (Hibal 5, Asmedit 3.3)  HLASM R4.0  2004/03/22 09.42
+___    ______ ____    _____ _____  ____ __ ______    ______ _________
0                                  48489    7303.     *******************************************************************
                                   48490    7304.     *                                                                 *
                                   48491    7305.     *    SET 24 - Set Program Name                                    *
                                   48492    7306.     *                                                                 *
                                   48493    7307.     *                                                                 *
                                   48494    7308.     *     Input - RY Points to SCP                                    *
                                   48495    7309.     *                                                                 *
                                   48496    7310.     *    Output -                                                     *
                                   48497    7311.     *                                                                 *
                                   48498    7312.     *                                                                 *
                                   48499    7313.     *******************************************************************
-
 00627C                            48501    7315.     SET24    PROC  ,S24WORK,SCOPE=LOCAL
 00627C E2C5E3F2F4404040           48508             +
 006284 0000/0008                  48509             +
 006288 900F D004/18AF       00004 48511             +
 USING  SET24,R10
 00628E 50D0 C000/18CD       00000 48526             +
 006294 9680 C000      00000       48528             +
 USING  S24WORK-72,R12
 006298 41D0 C050            00050 48542             +
 USING  SCP,R7                     48543    7316.              WITH  (SCP,RY)
 00629C 5830 704C            0004C 48556    7317.              L     RB,SCPGPRS+15*4         LENGTH
 0062A0 1233/4720 A02A       062B2 48557    7318.              IF    (RB,NP),BEGIN
 0062A6 9206 71A9      001A9       48571  1 7319.                MVI   SCPPANSY,PANSPEC        SET CODE FOR SPEC
 0062AA 9610 7265      00265       48572  1 7320.                SET   SCBXP                   MARK USER FOR PANIC
 0062AE 47F0 A0C0            06348 48578  1 7321.                EXIT  SET24
 0062B2                            48581    7322.              END   ,
 USING  @PAGE-72,R13               48585    7323.              PSET  @PAGE
 0062B2 D708 D048 D048 00000 00000 48602             +
 0062B8 5820 7014            00014 48603    7324.              L     RA,SCPGPRS+1*4          LOCATION
 0062BC 9180 700C      0000C       48604    7325.              TM    SCPPSW+4,X'80'      31 bit mode?
 0062C0 4770 A040            062C8 48605    7326.              IF    Z,'N RA,=X"00FFFFFF"'
 0062C4 5420 A868            06AF0 48617             +
 0062C8 5020 D048            00000 48622    7327.              ST    RA,@PAGLOC              SET LOCATION
 0062CC 5030 D04C            00004 48623    7328.              ST    RB,@PAGLEN               and LENGTH
 0062D0 D200 D050 7009 00008 00009 48624    7329.              MVC   @PAGKEY,SCPPSW+1        PSW KEY
 0062D6 94F0 D050      00008       48625    7330.              NI    @PAGKEY,X'F0'            KEY ONLY
 0062DA 58F0 A880/0DEF       06B08 48626    7331.              VCALL PAGTPROT                CHECK IT OUT
 0062E0 5900 A884            06B0C 48630    7332.              IF    (RVR,GE,2),BEGIN        NO GOOD
 0062E4 4750 A06C            062F4 48642             +
 0062E8 9206 71A9      001A9       48647  1 7333.                MVI   SCPPANSY,PANSPEC        SET CODE FOR SPEC
 0062EC 9610 7265      00265       48648  1 7334.                SET   SCBXP                   MARK USER FOR PANIC
 0062F0 47F0 A0C0            06348 48654  1 7335.                EXIT  SET24
 0062F4                            48657    7336.              END   ,
 0062F4 5930 A904            06B8C 48661    7337.              CEIL  RB,L'SCBPNAM            CAN'T MOVE MORE THAN THIS
 0062F8 47D0 A078            06300 48670             +
 0062FC 5830 A904            06B8C 48675             +
 006300 0630/4430 AA62       06CEA 48680    7338.              DEX   RB,'MVC  S24NAME(0),@RA'    GET THE DATA
 006CEA D200 C048 2000 00000 00000 48691             +
 006306 4430 AA68            06CF0 48699    7339.              EX    RB,'TRT S24NAME(0),PNAMTAB'     CHARS OK
 006CF0 DD00 C048 A962 00000 06BEA 48707             +
1M1SERV   (M1SE00) (09:42) (22MAR04) ORVYL'S Mode 1 Set SVC                                                                 Page  334
0Current Usings:  (PZERO,R0) (SCP,R7) (SET24,R10) (S24WORK-72,R12) (@PAGE-72,R13)
0Loc    Object Code    Addr1 Addr2  Stmt Lv Lineno    Source Statement           (Hibal 5, Asmedit 3.3)  HLASM R4.0  2004/03/22 09.42
+___    ______ ____    _____ _____  ____ __ ______    ______ _________
000630A 4780 A090            06318 48715    7340.              IF    NZ,BEGIN
 00630E D203 704C A8CC 0004C 06B54 48726  1 7341.                MVC   SCPGPRS+15*4(4),=A(4)   INVALID CHARS
 006314 47F0 A0C0            06348 48727  1 7342.                EXIT  SET24
 006318                            48730    7343.              END   ,
 006318 D207 7282 A848 00282 06AD0 48734    7344.              MVC   SCBPNAM,=CL(L'SCBPNAM)' '      FOR ALL CAPS
 00631E 4430 AA6E            06CF6 48735    7345.              EX    RB,'OC SCBPNAM(0),S24NAME'     MOVE IN THE NAME
 006CF6 D600 7282 C048 00282 00000 48743             +
 006322 5E30 A908            06B90 48751    7346.              INCR  RB
 006326 4030 7280            00280 48754    7347.              STH   RB,SCBPNAML             SAVE NAME LENGTH
 DROP   @PAGE-72,R13               48755    7348.              PSET  @ACPINFO                Set name globally
 USING  @ACPINFO-72,R13
 00632A D70B D048 D048 00000 00000 48775             +
 006330                            48776    7349.              PMOV  @ACPASB,PZCURASB        |
 006330 D203 D048 0208 00000 00208 48780             +
 006336                            48781    7350.              PMOV  @ACPPGNM,SCBPNAM        |
 006336 D207 D04C 7282 00004 00282 48785             +
 00633C 58F0 A90C/0DEF       06B94 48786    7351.              VCALL ACPINFO                 |
 006342 D203 704C A86C 0004C 06AF4 48790    7352.              MVC   SCPGPRS+15*4(4),=A(0)   ALL IS WELL
 006348 981F C008            00008 48791    7353.              PEND
 DROP   SCP,R7
 DROP   S24WORK-72,R12
 DROP   SET24,R10
 00634C 9680 C000/0B0E 00000       48811             +
 DROP   @ACPINFO-72,R13
1M1SERV   (M1SE00) (09:42) (22MAR04) ORVYL'S Mode 1 Set SVC                                                                 Page  335
0Current Usings:  (PZERO,R0)
0Loc    Object Code    Addr1 Addr2  Stmt Lv Lineno    Source Statement           (Hibal 5, Asmedit 3.3)  HLASM R4.0  2004/03/22 09.42
+___    ______ ____    _____ _____  ____ __ ______    ______ _________
0                                  48821    7355.
                                   48822    7356.
                                   48823    7357.         SET 29 - Suspend task for specified time interval
                                   48824    7358.
                                   48825    7359.          Macro format:
                                   48826    7360.              SET  29,time-interval (count of 0.1 second increments)
                                   48827    7361.                   (0) (1)
                                   48828    7362.
                                   48829    7363.              Returns in R15:
                                   48830    7364.                  0 = successful completion
                                   48831    7365.
                                   48832    7366.          Input - RY Points to SCP
                                   48833    7367.

0006352                            48834    7368.     SET29    PROC  ,
 006352 E2C5E3F2F9404040           48841             +
 00635A 0000/0000                  48842             +
 00635E 900F D004/18AF       00004 48844             +
 USING  SET29,R10
 006364 50D0 C000/18CD       00000 48859             +
 00636A 9680 C000      00000       48861             +
 00636E 41D0 C048            00048 48862             +
 USING  SCP,R7                     48863    7369.              WITH  (SCP,RY)
 006372 5800 7014/1200       00014 48876    7370.              LT    R0,SCPGPRS+1*4
 006378 47D0 A026            06384 48880    7371.              IF    (NP,OR,(R0,GT,100)),BEGIN Not more than 10 seconds
 00637C 5900 A83A            06B98 48901             +
 006380 47D0 A032            06390 48902             +
 006384 9206 71A9      001A9       48907  1 7372.                MVI   SCPPANSY,PANSPEC        SET CODE FOR SPEC
 006388 9610 7265      00265       48908  1 7373.                SET   SCBXP                   MARK USER FOR PANIC
 00638C 47F0 A03E            0639C 48914  1 7374.                EXIT  SET29
 006390                            48917    7375.              END   ,
 006390 58F0 A83E/0DEF       06B9C 48921    7376.              ACALL M1GOWAIT                GO WAIT
 006396 D203 704C A796 0004C 06AF4 48928    7377.              MVC   SCPGPRS+15*4(4),=A(0)   ALL IS WELL
 00639C 981F C008            00008 48929    7378.              PEND
 DROP   SCP,R7
 DROP   SET29,R10
 0063A0 9680 C000/0B0E 00000       48944             +
1M1SERV   (M1SE00) (09:42) (22MAR04) ORVYL'S Mode 1 Set SVC                                                                 Page  336
0Current Usings:  (PZERO,R0)
0Loc    Object Code    Addr1 Addr2  Stmt Lv Lineno    Source Statement           (Hibal 5, Asmedit 3.3)  HLASM R4.0  2004/03/22 09.42
+___    ______ ____    _____ _____  ____ __ ______    ______ _________
0                                  48951    7380.
                                   48952    7381.
                                   48953    7382.         SET 30 - Add new shared symbol entry.
                                   48954    7383.
                                   48955    7384.          Macro format:
                                   48956    7385.              SET  30,symbol-location,symbol-length,address
                                   48957    7386.                   (0) (1)            (15)          (14)
                                   48958    7387.
                                   48959    7388.              Returns in R15:
                                   48960    7389.                 -4 = not allowed (program not authorized)
                                   48961    7390.                  0 = successful completion
                                   48962    7391.                  4 = symbol already defined
                                   48963    7392.
                                   48964    7393.          Input - RY Points to SCP
                                   48965    7394.

0000000                00000 000C8 48966    7395.     S30WORK  RECORD BEGIN
 000000                            48974  1 7396.     S30NAME    DS    CL(L'SSBNAME)       Working symbol name
 0000C8                000C8 000C8 48975    7397.              END
                                   48984    7398.
 0063A6                            48985    7399.     SET30    PROC  ,S30WORK,SCOPE=LOCAL
 0063A6 E2C5E3F3F0404040           48992             +
 0063AE 0000/00C8                  48993             +
 0063B2 900F D004/18AF       00004 48995             +
 USING  SET30,R10
 0063B8 50D0 C000/18CD       00000 49010             +
 0063BE 9680 C000      00000       49012             +
 USING  S30WORK-72,R12
 0063C2 41D0 C110            00110 49026             +
 USING  SCP,R7                     49027    7400.              WITH  (SCP,RY)
                                   49040    7401.
 0063C6 5850 0200            00200 49041    7402.              L     RK,MATPTR               MAT POINTER
 0063CA 5850 5010            00010 49042    7403.              WITH  (MAT,RK),'L  RK,MATM1CT'   CT POINTER
 USING  MAT,R5
 DROP   MAT,R5
 USING  M1CT,R5                    49066    7404.              WITH  (M1CT,RK)
                                   49079    7405.
                                   49080    7406.                Check symbol location and length for validity.
                                   49081    7407.
 0063CE 5830 704C/1233       0004C 49082    7408.              LT    RB,SCPGPRS+15*4     Symbol length
 0063D4 4720 A032            063E4 49086    7409.              IF    NP,BEGIN            Incorrectly specified...
 0063D8 9206 71A9      001A9       49097  1 7410.                MVI   SCPPANSY,PANSPEC    Set code for spec
 0063DC 9610 7265      00265       49098  1 7411.                SET   SCBXP               Mark user for panic
 0063E0 47F0 A1AA            0655C 49104  1 7412.                EXIT  SET30               Scram
 0063E4                            49107    7413.              END
                                   49111    7414.
 USING  @PAGE-72,R13               49112    7415.              PSET  @PAGE
 0063E4 D708 D048 D048 00000 00000 49129             +
 0063EA 5820 7014            00014 49130    7416.              L     RA,SCPGPRS+1*4      Location
 0063EE 5020 D048            00000 49131    7417.              ST    RA,@PAGLOC              SET LOCATION
 0063F2 5030 D04C            00004 49132    7418.              ST    RB,@PAGLEN               and LENGTH
 0063F6 D200 D050 7009 00008 00009 49133    7419.              MVC   @PAGKEY,SCPPSW+1        PSW KEY
 0063FC 94F0 D050      00008       49134    7420.              NI    @PAGKEY,X'F0'            KEY ONLY
1M1SERV   (M1SE00) (09:42) (22MAR04) ORVYL'S Mode 1 Set SVC                                                                 Page  337
0Current Usings:  (PZERO,R0) (M1CT,R5) (SCP,R7) (SET30,R10) (S30WORK-72,R12) (@PAGE-72,R13)
0Loc    Object Code    Addr1 Addr2  Stmt Lv Lineno    Source Statement           (Hibal 5, Asmedit 3.3)  HLASM R4.0  2004/03/22 09.42
+___    ______ ____    _____ _____  ____ __ ______    ______ _________
0006400 58F0 A756/0DEF       06B08 49135    7421.              VCALL PAGTPROT                CHECK IT OUT
 006406 5900 A75A            06B0C 49139    7422.              IF    (RVR,GE,2),BEGIN        NO GOOD
 00640A 4750 A068            0641A 49151             +
 00640E 9206 71A9      001A9       49156  1 7423.                MVI   SCPPANSY,PANSPEC        SET CODE FOR SPEC
 006412 9610 7265      00265       49157  1 7424.                SET   SCBXP                   MARK USER FOR PANIC
 006416 47F0 A1AA            0655C 49163  1 7425.                EXIT  SET30
 00641A                            49166    7426.              END
                                   49170    7427.
                                   49171    7428.                Create symbol name in fixed blank padded work area.
                                   49172    7429.
 00641A 9240 C048      00000       49173    7430.              MVI   S30NAME,C' '
 00641E D2C6 C049 C048 00001 00000 49174    7431.              MVC   S30NAME+1(L'S30NAME-1),S30NAME  Pre-blank
 006424 5930 A7EE            06BA0 49175    7432.              CEIL  RB,L'S30NAME        Can't move more than this
 006428 47D0 A07E            06430 49184             +
 00642C 5830 A7EE            06BA0 49189             +
 006430 0630/4430 A94A       06CFC 49194    7433.              DEX   RB,'MVC S30NAME(0),@RA'  Get the symbol name
 006CFC D200 C048 2000 00000 00000 49205             +
                                   49213    7434.
                                   49214    7435.                Only allow authorized programs to do this.
                                   49215    7436.
 006436 5840 7268/1244       00268 49216    7437.              LT    RJ,SCBSPB               Get Current SPB
 USING  SPB,R4                     49220    7438.              WITH  (SPB,RJ)
 00643C 4780 A096            06448 49233    7439.              IF    (Z,OR,~SPBFAUTH),BEGIN
 006440 9120 4044      00044       49252             +
 006444 4710 A0A0            06452 49253             +
 006448 D203 704C A7F2 0004C 06BA4 49258  1 7440.                MVC   SCPGPRS+15*4(4),=F'-4'  Not allowed
 00644E 47F0 A1AA            0655C 49259  1 7441.                EXIT  SET30                   Scram
 006452                            49262    7442.              END
                                   49266    7443.
                                   49267    7444.                Make sure the symbol doesn't already exist.
                                   49268    7445.
 DROP   @PAGE-72,R13               49269    7446.              LKOB  CTSPBCLK                Lock up the SPB queue
 USING  @LOCKS-72,R13
 006452 D203 D048 5008 00000 00008 49288             +
 006458 58F0 A79A/0DEF       06B4C 49291             +
                                   49293    7447.
 00645E 5820 5004            00004 49294    7448.              L     RA,CTSPBS               Get first of the SPBs
 006462 1222/4780 A126       064D8 49295    7449.              WHILE (RA,NZ),BEGIN           Search SPB list
 DROP   SPB,R4                     49311  1 7450.                WITH  (SPB,RA)
 USING  SPB,R2
 006468 9110 2045      00045       49332  1 7451.                IF    ~SPBFCORPSE,BEGIN       Only look at real ones
 00646C 4710 A11E            064D0 49342  1          +
 006470 5830 2058            00058 49347  2 7452.                  L     RB,SPBSSB
 006474 1233/4780 A11E       064D0 49348  2 7453.                  WHILE (RB,NZ),BEGIN           Search SSB's
 USING  SSB,R3                     49364  3 7454.                    WITH  (SSB,RB)
 00647A                            49377  3 7455.                    FAIL  (SSB,NE,'SSB'),BADSSBQ  For safety sake
 00647A D502 A828 3000 06BDA 00000 49389  3          +
 006480 4780 A102            064B4 49390  3          +
 006484 AC04 021B      0021B       49398  4          +
 006488 9680 021A      0021A       49404  4          +
 00648C 50F0 021C            0021C 49405  4          +
 006490 58F0 0210            00210 49406  4          +
 006494 89F0 0010            00010 49407  4          +
 006498 88F0 0010            00010 49408  4          +
1M1SERV   (M1SE00) (09:42) (22MAR04) ORVYL'S Mode 1 Set SVC                                                                 Page  338
0Current Usings:  (PZERO,R0) (SPB,R2) (SSB,R3) (M1CT,R5) (SCP,R7) (SET30,R10) (S30WORK-72,R12) (@LOCKS-72,R13)
0Loc    Object Code    Addr1 Addr2  Stmt Lv Lineno    Source Statement           (Hibal 5, Asmedit 3.3)  HLASM R4.0  2004/03/22 09.42
+___    ______ ____    _____ _____  ____ __ ______    ______ _________
000649C 41F0 F000            00000 49409  4          +
 0064A0 AEFF 0006            00006 49410  4          +
 0064A4 C2C1C4E2E2C2D840           49411  3          +
 0064B4                            49416  3 7456.                    IF    (SSBNAME,EQ,S30NAME),BEGIN
 0064B4 D5C7 3010 C048 00010 00000 49428  3          +
 0064BA 4770 A116            064C8 49429  3          +
 0064BE D203 704C A7A2 0004C 06B54 49434  4 7457.                      MVC   SCPGPRS+15*4(4),=A(4)   RC=4, Already defined
 0064C4 47F0 A19E            06550 49435  4 7458.                      B     S30UEXIT                Unlock and return
 0064C8                            49436  3 7459.                    END
 0064C8 5830 3004            00004 49440  3 7460.                    L     RB,SSBNEXT              Point at the next one
 0064CC 47F0 A0C2            06474 49441  2 7461.                  END
 DROP   SSB,R3
 0064D0                            49451  1 7462.                END
 0064D0 5820 2004            00004 49455  1 7463.                L     RA,SPBNEXT              Point at the next SPB
 0064D4 47F0 A0B0            06462 49456    7464.              END
 USING  SPB,R4
 DROP   SPB,R2
                                   49475    7465.
                                   49476    7466.                We have looked everywhere for it and it has not been
                                   49477    7467.                found.  We are therefore justified in defineing the
                                   49478    7468.                damn thing.
                                   49479    7469.
                                   49480    7470.     *         VMGET L'SSB,LOC=GLOBLO,TYPE=DATA
 DROP   @LOCKS-72,R13              49481    7471.              VMGET L'SSB,LOC=GLOBHI,TYPE=PROG
 USING  @VMGET-72,R13
 0064D8 D70A D048 D048 00000 00000 49508             +
 0064DE 4100 00D8            000D8 49520             +
 0064E2 5000 D048            00000 49525             +
 0064E6 D201 D050 A826 00008 06BD8 49526             +
 0064EC 58F0 A7AA/0DEF       06B5C 49529             +
 0064F2 1230                       49531    7472.              LTR   RB,RVR                  Copy new data ptr
 0064F4 4770 A176            06528 49532    7473.              FAIL  Z,SSBMEM                Trouble
 0064F8 AC04 021B      0021B       49547  1          +
 0064FC 9680 021A      0021A       49553  1          +
 006500 50F0 021C            0021C 49554  1          +
 006504 58F0 0210            00210 49555  1          +
 006508 89F0 0010            00010 49556  1          +
 00650C 88F0 0010            00010 49557  1          +
 006510 41F0 F000            00000 49558  1          +
 006514 AEFF 0006            00006 49559  1          +
 006518 E2E2C2D4C5D44040           49560             +
 USING  SSB,R3                     49565    7474.              WITH  (SSB,RB)
 006528                            49578    7475.              CLEAR SSB
 006528 D7D7 3000 3000 00000 00000 49584             +
 00652E D203 3000 A7F6 00000 06BA8 49585    7476.              MVC   SSBID,=CL4'SSB'
 006534 D2C7 3010 C048 00010 00000 49586    7477.              MVC   SSBNAME,S30NAME         Save symbol name
 00653A D203 3008 7048 00008 00048 49587    7478.              MVC   SSBWORD,SCPGPRS+14*4    Save value
                                   49588    7479.
                                   49589    7480.                Add new symbol entry to the linked list.
                                   49590    7481.
 006540 D203 3004 4058 00004 00058 49591    7482.              MVC   SSBNEXT,SPBSSB          Point it to the list
 006546 5030 4058            00058 49592    7483.              ST    RB,SPBSSB               Then point at this one
1M1SERV   (M1SE00) (09:42) (22MAR04) ORVYL'S Mode 1 Set SVC                                                                 Page  339
0Current Usings:  (PZERO,R0) (SSB,R3) (SPB,R4) (M1CT,R5) (SCP,R7) (SET30,R10) (S30WORK-72,R12) (@VMGET-72,R13)
0Loc    Object Code    Addr1 Addr2  Stmt Lv Lineno    Source Statement           (Hibal 5, Asmedit 3.3)  HLASM R4.0  2004/03/22 09.42
+___    ______ ____    _____ _____  ____ __ ______    ______ _________
0                                  49593    7484.
                                   49594    7485.                Finish up.
                                   49595    7486.
 00654A D203 704C A7FA 0004C 06BAC 49596    7487.              MVC   SCPGPRS+15*4(4),=F'0'   RC=0  Successful completion
                                   49597    7488.
 DROP   @VMGET-72,R13              49598    7489.     S30UEXIT LKREL CTSPBCLK                Release queue search lock
 USING  @LOCKS-72,R13
 006550 D203 D048 5008 00000 00008 49618             +
 006556 58F0 A7B6/0DEF       06B68 49621             +
 00655C 981F C008            00008 49623    7490.              PEND
 DROP   SSB,R3
 DROP   SPB,R4
 DROP   M1CT,R5
 DROP   SCP,R7
 DROP   S30WORK-72,R12
 DROP   SET30,R10
 006560 9680 C000/0B0E 00000       49658             +
 DROP   @LOCKS-72,R13
1M1SERV   (M1SE00) (09:42) (22MAR04) ORVYL'S Mode 1 Set SVC                                                                 Page  340
0Current Usings:  (PZERO,R0)
0Loc    Object Code    Addr1 Addr2  Stmt Lv Lineno    Source Statement           (Hibal 5, Asmedit 3.3)  HLASM R4.0  2004/03/22 09.42
+___    ______ ____    _____ _____  ____ __ ______    ______ _________
0                                  49668    7492.
                                   49669    7493.
                                   49670    7494.         SET 31 - Delete existing shared symbol entry.
                                   49671    7495.
                                   49672    7496.          Macro format:
                                   49673    7497.              SET  29,symbol-location,symbol-length
                                   49674    7498.                   (0) (1)            (15)
                                   49675    7499.
                                   49676    7500.              Returns in R15:
                                   49677    7501.                 -4 = not allowed (program not authorized)
                                   49678    7502.                  0 = successful completion
                                   49679    7503.                  4 = symbol already defined
                                   49680    7504.
                                   49681    7505.          Input - RY Points to SCP
                                   49682    7506.

0000000                00000 000CC 49683    7507.     S31WORK  RECORD BEGIN
 000000                            49691  1 7508.     S31PREVP   DS    A                   Previous SSB ptr
 000004                            49692  1 7509.     S31NAME    DS    CL(L'SSBNAME)       Working symbol name
 0000CC                000CC 000CC 49693    7510.              END
                                   49702    7511.
 006566                            49703    7512.     SET31    PROC  ,S31WORK,SCOPE=LOCAL
 006566 E2C5E3F3F1404040           49710             +
 00656E 0000/00D0                  49711             +
 006572 900F D004/18AF       00004 49713             +
 USING  SET31,R10
 006578 50D0 C000/18CD       00000 49728             +
 00657E 9680 C000      00000       49730             +
 USING  S31WORK-72,R12
 006582 41D0 C118            00118 49744             +
 USING  SCP,R7                     49745    7513.              WITH  (SCP,RY)
                                   49758    7514.
 006586 5850 0200            00200 49759    7515.              L     RK,MATPTR               MAT POINTER
 00658A 5850 5010            00010 49760    7516.              WITH  (MAT,RK),'L  RK,MATM1CT'   CT POINTER
 USING  MAT,R5
 DROP   MAT,R5
 USING  M1CT,R5                    49784    7517.              WITH  (M1CT,RK)
                                   49797    7518.
                                   49798    7519.                Check symbol location and length for validity.
                                   49799    7520.
 00658E 5830 704C/1233       0004C 49800    7521.              LT    RB,SCPGPRS+15*4     Symbol length
 006594 4720 A032            065A4 49804    7522.              IF    NP,BEGIN            Incorrectly specified...
 006598 9206 71A9      001A9       49815  1 7523.                MVI   SCPPANSY,PANSPEC    Set code for spec
 00659C 9610 7265      00265       49816  1 7524.                SET   SCBXP               Mark user for panic
 0065A0 47F0 A0B2            06624 49822  1 7525.                EXIT  SET31               Scram
 0065A4                            49825    7526.              END
                                   49829    7527.
 USING  @PAGE-72,R13               49830    7528.              PSET  @PAGE
 0065A4 D708 D048 D048 00000 00000 49847             +
 0065AA 5820 7014            00014 49848    7529.              L     RA,SCPGPRS+1*4      Location
 0065AE 5020 D048            00000 49849    7530.              ST    RA,@PAGLOC              SET LOCATION
 0065B2 5030 D04C            00004 49850    7531.              ST    RB,@PAGLEN               and LENGTH
 0065B6 D200 D050 7009 00008 00009 49851    7532.              MVC   @PAGKEY,SCPPSW+1        PSW KEY
1M1SERV   (M1SE00) (09:42) (22MAR04) ORVYL'S Mode 1 Set SVC                                                                 Page  341
0Current Usings:  (PZERO,R0) (M1CT,R5) (SCP,R7) (SET31,R10) (S31WORK-72,R12) (@PAGE-72,R13)
0Loc    Object Code    Addr1 Addr2  Stmt Lv Lineno    Source Statement           (Hibal 5, Asmedit 3.3)  HLASM R4.0  2004/03/22 09.42
+___    ______ ____    _____ _____  ____ __ ______    ______ _________
00065BC 94F0 D050      00008       49852    7533.              NI    @PAGKEY,X'F0'            KEY ONLY
 0065C0 58F0 A596/0DEF       06B08 49853    7534.              VCALL PAGTPROT                CHECK IT OUT
 0065C6 5900 A59A            06B0C 49857    7535.              IF    (RVR,GE,2),BEGIN        NO GOOD
 0065CA 4750 A068            065DA 49869             +
 0065CE 9206 71A9      001A9       49874  1 7536.                MVI   SCPPANSY,PANSPEC        SET CODE FOR SPEC
 0065D2 9610 7265      00265       49875  1 7537.                SET   SCBXP                   MARK USER FOR PANIC
 0065D6 47F0 A0B2            06624 49881  1 7538.                EXIT  SET31
 0065DA                            49884    7539.              END
                                   49888    7540.
                                   49889    7541.                Create symbol name in fixed blank padded work area.
                                   49890    7542.
 0065DA 9240 C04C      00004       49891    7543.              MVI   S31NAME,C' '
 0065DE D2C6 C04D C04C 00005 00004 49892    7544.              MVC   S31NAME+1(L'S31NAME-1),S31NAME  Pre-blank
 0065E4 5930 A63E            06BB0 49893    7545.              CEIL  RB,L'S31NAME        Can't move more than this
 0065E8 47D0 A07E            065F0 49902             +
 0065EC 5830 A63E            06BB0 49907             +
 0065F0 0630/4430 A790       06D02 49912    7546.              DEX   RB,'MVC S31NAME(0),@RA'  Get the symbol name
 006D02 D200 C04C 2000 00004 00000 49923             +
                                   49931    7547.
                                   49932    7548.                Only allow authorized programs to do this.
                                   49933    7549.
 0065F6 1B22                       49934    7550.              CLEAR RA                  Assume not authorized
 0065F8 5830 7268/1233       00268 49938    7551.              IF    ('LT RB,SCBSPB',NZ),BEGIN
 0065FE 4780 A09C            0660E 49949             +
 USING  SPB,R3                     49954  1 7552.                WITH  (SPB,RB)
 006602 9120 3044      00044       49967  1 7553.                IF    SPBFAUTH,'LA RA,4'  Program is authorized
 006606 47E0 A09C            0660E 49977  1          +
 00660A 4120 0004            00004 49983  1          +
 DROP   SPB,R3                     49988    7554.              END
                                   49997    7555.
 00660E 1222/4770 A0AC       0661E 49998    7556.              IF    (RA,Z),BEGIN       Not authorized...
 006614 D203 704C A632 0004C 06BA4 50012  1 7557.                MVC   SCPGPRS+15*4(4),=F'-4'  Not allowed
 00661A 47F0 A0B2            06624 50013  1 7558.                EXIT  SET31               Scram
 00661E                            50016    7559.              END
                                   50020    7560.
                                   50021    7561.                      I M P O R T A N T   N O T E
                                   50022    7562.
                                   50023    7563.                The remainder is not implemented as defined. This entire
                                   50024    7564.                service should be removed.
                                   50025    7565.
 00661E D203 704C A63A 0004C 06BAC 50026    7566.              MVC   SCPGPRS+15*4(4),=F'0'  RC=0  Successful completion
 006624 981F C008            00008 50027    7567.              PEND
 DROP   M1CT,R5
 DROP   SCP,R7
 DROP   S31WORK-72,R12
 DROP   SET31,R10
 006628 9680 C000/0B0E 00000       50052             +
 DROP   @PAGE-72,R13
1M1SERV   (M1SE00) (09:42) (22MAR04) ORVYL'S Mode 1 Set SVC                                                                 Page  342
0Current Usings:  (PZERO,R0)
0Loc    Object Code    Addr1 Addr2  Stmt Lv Lineno    Source Statement           (Hibal 5, Asmedit 3.3)  HLASM R4.0  2004/03/22 09.42
+___    ______ ____    _____ _____  ____ __ ______    ______ _________
0                                  50062    7569.     *******************************************************************
                                   50063    7570.     *                                                                 *
                                   50064    7571.     *    SET 150 - Clear pseudo user                                  *
                                   50065    7572.     *                                                                 *
                                   50066    7573.     *                                                                 *
                                   50067    7574.     *     Input - RY Points to SCP                                    *
                                   50068    7575.     *                                                                 *
                                   50069    7576.     *    Output -                                                     *
                                   50070    7577.     *                                                                 *
                                   50071    7578.     *                                                                 *
                                   50072    7579.     *******************************************************************
-
 00662E                            50074    7581.     SET150   PROC  ,SCOPE=LOCAL
 00662E E2C5E3F1F5F04040           50081             +
 006636 0000/0000                  50082             +
 00663A 900F D004/18AF       00004 50084             +
 USING  SET150,R10
 006640 50D0 C000/18CD       00000 50099             +
 006646 9680 C000      00000       50101             +
 00664A 41D0 C048            00048 50102             +
 USING  SCP,R7                     50103    7582.              WITH  (SCP,RY)
                                   50116    7583.     *         CLEAR SCPFPSEU                CLEAR THE FLAG
                                   50117    7584.     *         CLEAR SCPPACCT                CLEAR THE ACCOUNT,
                                   50118    7585.     *         CLEAR SCPPRIVS                PRIVS. JUST FOR NEATNESS
 00664E 58F0 A57A/0DEF       06BB4 50119    7586.              VCALL FMCLSUDO                CLEAR PSEUDO USER
 006654 D203 704C A4BA 0004C 06AF4 50123    7587.              MVC   SCPGPRS+15*4,=A(0)      GOOD COMPLETION
 00665A 981F C008            00008 50124    7588.              PEND
 DROP   SCP,R7
 DROP   SET150,R10
 00665E 9680 C000/0B0E 00000       50139             +
1M1SERV   (M1SE00) (09:42) (22MAR04) ORVYL'S Mode 1 Set SVC                                                                 Page  343
0Current Usings:  (PZERO,R0)
0Loc    Object Code    Addr1 Addr2  Stmt Lv Lineno    Source Statement           (Hibal 5, Asmedit 3.3)  HLASM R4.0  2004/03/22 09.42
+___    ______ ____    _____ _____  ____ __ ______    ______ _________
0                                  50146    7590.     *******************************************************************
                                   50147    7591.     *                                                                 *
                                   50148    7592.     *    SET 151 - Ignore multiple attentions                         *
                                   50149    7593.     *                                                                 *
                                   50150    7594.     *                                                                 *
                                   50151    7595.     *     Input - RY Points to SCP                                    *
                                   50152    7596.     *                                                                 *
                                   50153    7597.     *    Output -                                                     *
                                   50154    7598.     *                                                                 *
                                   50155    7599.     *                                                                 *
                                   50156    7600.     *******************************************************************
-
 006664                            50158    7602.     SET151   PROC  ,SCOPE=LOCAL
 006664 E2C5E3F1F5F14040           50165             +
 00666C 0000/0000                  50166             +
 006670 900F D004/18AF       00004 50168             +
 USING  SET151,R10
 006676 50D0 C000/18CD       00000 50183             +
 00667C 9680 C000      00000       50185             +
 006680 41D0 C048            00048 50186             +
 USING  SCP,R7                     50187    7603.              WITH  (SCP,RY)
 006684 94EF 7261      00261       50200    7604.              CLEAR SCBCFNMA                DEFAULT IS ZERO
 006688                            50207    7605.              IF    (SCPGPRS+1*4,EQ,1873),'SET SCBCFNMA'  IF OK, SET IT
 006688 D503 A548 7014 06BB8 00014 50219             +
 00668E 4770 A026            06696 50220             +
 006692 9610 7261      00261       50231             +
 006696 D203 704C A484 0004C 06AF4 50236    7606.              MVC   SCPGPRS+15*4,=A(0)      GOOD COMPLETION
 00669C 981F C008            00008 50237    7607.              PEND
 DROP   SCP,R7
 DROP   SET151,R10
 0066A0 9680 C000/0B0E 00000       50252             +
1M1SERV   (M1SE00) (09:42) (22MAR04) ORVYL'S Mode 1 Set SVC                                                                 Page  344
0Current Usings:  (PZERO,R0)
0Loc    Object Code    Addr1 Addr2  Stmt Lv Lineno    Source Statement           (Hibal 5, Asmedit 3.3)  HLASM R4.0  2004/03/22 09.42
+___    ______ ____    _____ _____  ____ __ ______    ______ _________
0                                  50259    7609.     *******************************************************************
                                   50260    7610.     *                                                                 *
                                   50261    7611.     *    SET 152 - Set CLP real time (interval) timer                 *
                                   50262    7612.     *                                                                 *
                                   50263    7613.     *                                                                 *
                                   50264    7614.     *     Input - RY Points to SCP                                    *
                                   50265    7615.     *                                                                 *
                                   50266    7616.     *    Output -                                                     *
                                   50267    7617.     *                                                                 *
                                   50268    7618.     *                                                                 *
                                   50269    7619.     *******************************************************************
-
 0066A6                            50271    7621.     SET152   PROC  ,SETCLK,SCOPE=LOCAL
 0066A6 E2C5E3F1F5F24040           50278             +
 0066AE 0000/0008                  50279             +
 0066B2 900F D004/18AF       00004 50281             +
 USING  SET152,R10
 0066B8 50D0 C000/18CD       00000 50296             +
 0066BE 9680 C000      00000       50298             +
 USING  SETCLK-72,R12
 0066C2 41D0 C050            00050 50312             +
 USING  SCP,R7                     50313    7622.              WITH  (SCP,RY)
 0066C6 9180 7262      00262       50326    7623.              IF    ~SCBFCLP,BEGIN          MUST BE (REAL) CLP
 0066CA 4710 A028            066DA 50336             +
 0066CE 9206 71A9      001A9       50341  1 7624.                MVI   SCPPANSY,PANSPEC        SET CODE FOR SPEC
 0066D2 9610 7265      00265       50342  1 7625.                SET   SCBXP                   MARK USER FOR PANIC
 0066D6 47F0 A0D2            06784 50348  1 7626.                EXIT  SET152
 0066DA                            50351    7627.              END   ,
 0066DA 5830 7014            00014 50355    7628.              L     RB,SCPGPRS+1*4          SUPPLIED TIME VALUE
 0066DE 1B44                       50356    7629.              CLEAR RJ                      OLD INTERVAL
 0066E0 94F7 7265      00265       50360    7630.              CLEAR SCBXCPT                 CLP TIMER EXIT CANCEL
 0066E4 9130 7263      00263       50367    7631.              IF    SCBTCPTR+SCBTCPCT,BEGIN A TIMER NOW RUNNING
 0066E8 4780 A08C            0673E 50380             +
                                   50385  1 7632.     *
                                   50386  1 7633.     *  CPU TIMER IS NOW RUNNING
                                   50387  1 7634.     *
 0066EC 9110 7263      00263       50388  1 7635.                IF    SCBTCPCT,BEGIN          CURRENT TIMER IS CPU TIME
 0066F0 47E0 A058            0670A 50398  1          +
 USING  @CPCNCK-72,R13             50403  2 7636.                  PSET  @CPCNCK
 0066F4 D71F D048 D048 00000 00000 50420  2          +
 0066FA D203 D048 71D0 00000 001D0 50421  2 7637.                  MVC   @CPCID,SCPCCLK          CLOCK ID
 006700 58F0 A50A/0DEF       06BBC 50422  2 7638.                  VCALL CPCAN                   CAN IT
 006706 6800 D050            00008 50426  2 7639.                  LD    R0,@CPCCLK              PREVIOUS INTERVAL
 00670A                            50427  1 7640.                END   ,
                                   50431  1 7641.     *
                                   50432  1 7642.     *  REAL TIMER IS NOW RUNNING
                                   50433  1 7643.     *
 00670A A05C           0670A 066F2 50434  1 7644.                ELSE  BEGIN                   CURRENT TIMER IS REAL TIME
 00670A 47F0 A072            06724 50439  1          +
 DROP   @CPCNCK-72,R13             50445  2 7645.                  PSET  @RTCNCK
 USING  @RTCNCK-72,R13
 00670E D71F D048 D048 00000 00000 50465  2          +
1M1SERV   (M1SE00) (09:42) (22MAR04) ORVYL'S Mode 1 Set SVC                                                                 Page  345
0Current Usings:  (PZERO,R0) (SCP,R7) (SET152,R10) (SETCLK-72,R12) (@RTCNCK-72,R13)
0Loc    Object Code    Addr1 Addr2  Stmt Lv Lineno    Source Statement           (Hibal 5, Asmedit 3.3)  HLASM R4.0  2004/03/22 09.42
+___    ______ ____    _____ _____  ____ __ ______    ______ _________
0006714 D203 D048 71D0 00000 001D0 50466  2 7646.                  MVC   @RTCID,SCPCCLK          CLOCK ID
 00671A 58F0 A50E/0DEF       06BC0 50467  2 7647.                  VCALL RTCAN                   CAN IT
 006720 6800 D050            00008 50471  2 7648.                  LD    R0,@RTCCLK              PREVIOUS INTERVAL
 006724                            50472  1 7649.                END   ,
 006724 6D00 A426            06AD8 50476  1 7650.                DD    R0,=FL8'106667'          TO 26 USEC UNITS
 006728 6E00 A42E            06AE0 50477  1 7651.                AW    R0,=XL8'4E00000000000000'
 00672C 6000 C048            00000 50478  1 7652.                STD   R0,SWCLOCK
 006730 5840 C04C            00004 50479  1 7653.                L     RJ,SWCLOCK+4            PREVIOUS TIMER
 006734 94CF 7263      00263       50480  1 7654.                CLEAR SCBTCPTR+SCBTCPCT       NOTE
 006738                            50490  1 7655.                CLEAR SCPCCLK                  CANCELLED
 006738 D703 71D0 71D0 001D0 001D0 50496  1          +
 00673E                            50497    7656.              END   ,
                                   50501    7657.     *
                                   50502    7658.     *  NOW SET NEW TIMER IF SO REQUESTED
                                   50503    7659.     *
 00673E 1233/4780 A0CE       06780 50504    7660.              IF    (RB,NZ),BEGIN
 DROP   @RTCNCK-72,R13             50518  1 7661.                PSET  @RTSET
 USING  @RTSET-72,R13
 006744 D717 D048 D048 00000 00000 50538  1          +
 00674A D203 D048 A42E 00000 06AE0 50539  1 7662.                MVC   @RTSCLK(4),=XL8'4E00000000000000'
 006750 5030 D04C            00004 50540  1 7663.                ST    RB,@RTSCLK+4            NORMALIZED TIME VALUE
 006754 6800 D048            00000 50541  1 7664.                LD    R0,@RTSCLK
 006758 6C00 A436            06AE8 50542  1 7665.                MD    R0,=D'106667'            TO USEC UNITS
 00675C 6E00 A42E            06AE0 50543  1 7666.                AW    R0,=XL8'4E00000000000000'
 006760 6000 D048            00000 50544  1 7667.                STD   R0,@RTSCLK
 006764 9200 D048      00000       50545  1 7668.                MVI   @RTSCLK,0               REMOVE EXPONENT
 006768 9680 D050      00008       50546  1 7669.                SET   @RTSFINT                VALUE IS AN INTERVAL
 00676C D203 D054 71D4 0000C 001D4 50552  1 7670.                MVC   @RTSXIT,SCPCCXIT        SET EXIT ID
 006772 58F0 A512/0DEF       06BC4 50553  1 7671.                VCALL RTSET                   START THE CLOCK
 006778 5000 71D0            001D0 50557  1 7672.                ST    RVR,SCPCCLK             SAVE ID
 00677C 9620 7263      00263       50558  1 7673.                SET   SCBTCPTR
 006780                            50564    7674.              END
 006780 5040 704C            0004C 50568    7675.              ST    RJ,SCPGPRS+15*4         RETURN VALUE
 006784 981F C008            00008 50569    7676.              PEND
 DROP   SCP,R7
 DROP   SETCLK-72,R12
 DROP   SET152,R10
 006788 9680 C000/0B0E 00000       50589             +
 DROP   @RTSET-72,R13
1M1SERV   (M1SE00) (09:42) (22MAR04) ORVYL'S Mode 1 Set SVC                                                                 Page  346
0Current Usings:  (PZERO,R0)
0Loc    Object Code    Addr1 Addr2  Stmt Lv Lineno    Source Statement           (Hibal 5, Asmedit 3.3)  HLASM R4.0  2004/03/22 09.42
+___    ______ ____    _____ _____  ____ __ ______    ______ _________
0                                  50599    7678.     *******************************************************************
                                   50600    7679.     *                                                                 *
                                   50601    7680.     *    SET 153 - Set CLP compute time timer                         *
                                   50602    7681.     *                                                                 *
                                   50603    7682.     *                                                                 *
                                   50604    7683.     *     Input - RY Points to SCP                                    *
                                   50605    7684.     *                                                                 *
                                   50606    7685.     *    Output -                                                     *
                                   50607    7686.     *                                                                 *
                                   50608    7687.     *                                                                 *
                                   50609    7688.     *******************************************************************
-
 00678E                            50611    7690.     SET153   PROC  ,SETCLK,SCOPE=LOCAL
 00678E E2C5E3F1F5F34040           50618             +
 006796 0000/0008                  50619             +
 00679A 900F D004/18AF       00004 50621             +
 USING  SET153,R10
 0067A0 50D0 C000/18CD       00000 50636             +
 0067A6 9680 C000      00000       50638             +
 USING  SETCLK-72,R12
 0067AA 41D0 C050            00050 50652             +
 USING  SCP,R7                     50653    7691.              WITH  (SCP,RY)
 0067AE 9180 7262      00262       50666    7692.              IF    ~SCBFCLP,BEGIN          MUST BE (REAL) CLP
 0067B2 4710 A028            067C2 50676             +
 0067B6 9206 71A9      001A9       50681  1 7693.                MVI   SCPPANSY,PANSPEC        SET CODE FOR SPEC
 0067BA 9610 7265      00265       50682  1 7694.                SET   SCBXP                   MARK USER FOR PANIC
 0067BE 47F0 A0D2            0686C 50688  1 7695.                EXIT  SET153
 0067C2                            50691    7696.              END   ,
 0067C2 1B44                       50695    7697.              CLEAR RJ                      OLD INTERVAL
 0067C4 94F7 7265      00265       50699    7698.              CLEAR SCBXCPT                 CLP TIMER EXIT CANCEL
 0067C8 9138 7263      00263       50706    7699.              IF    SCBTCPTR+SCBTCPCT+SCBTCPQU,BEGIN  A TIMER NOW RUNNING
 0067CC 4780 A090            0682A 50723             +
                                   50728  1 7700.     *
                                   50729  1 7701.     *  CPU TIMER IS RUNNING
                                   50730  1 7702.     *
 0067D0 9110 7263      00263       50731  1 7703.                IF    SCBTCPCT,BEGIN           CURRENT TIMER IS CPU TIME
 0067D4 47E0 A054            067EE 50741  1          +
 USING  @CPCNCK-72,R13             50746  2 7704.                  PSET  @CPCNCK
 0067D8 D71F D048 D048 00000 00000 50763  2          +
 0067DE D203 D048 71D0 00000 001D0 50764  2 7705.                  MVC   @CPCID,SCPCCLK          CLOCK ID
 0067E4 58F0 A422/0DEF       06BBC 50765  2 7706.                  VCALL CPCAN                   CAN IT
 0067EA 6800 D050            00008 50769  2 7707.                  LD    R0,@CPCCLK              PREVIOUS INTERVAL
 0067EE                            50770  1 7708.                END   ,
                                   50774  1 7709.     *
                                   50775  1 7710.     *  REAL TIMER IS RUNNING
                                   50776  1 7711.     *
 0067EE A058           067EE 067D6 50777  1 7712.                ELSE  BEGIN                   CURRENT TIMER IS REAL TIME
 0067EE 47F0 A06E            06808 50782  1          +
 DROP   @CPCNCK-72,R13             50788  2 7713.                  PSET  @RTCNCK
 USING  @RTCNCK-72,R13
 0067F2 D71F D048 D048 00000 00000 50808  2          +
 0067F8 D203 D048 71D0 00000 001D0 50809  2 7714.                  MVC   @RTCID,SCPCCLK          CLOCK ID
1M1SERV   (M1SE00) (09:42) (22MAR04) ORVYL'S Mode 1 Set SVC                                                                 Page  347
0Current Usings:  (PZERO,R0) (SCP,R7) (SET153,R10) (SETCLK-72,R12) (@RTCNCK-72,R13)
0Loc    Object Code    Addr1 Addr2  Stmt Lv Lineno    Source Statement           (Hibal 5, Asmedit 3.3)  HLASM R4.0  2004/03/22 09.42
+___    ______ ____    _____ _____  ____ __ ______    ______ _________
00067FE 58F0 A426/0DEF       06BC0 50810  2 7715.                  VCALL RTCAN                   CAN IT
 006804 6800 D050            00008 50814  2 7716.                  LD    R0,@RTCCLK              PREVIOUS INTERVAL
 006808                            50815  1 7717.                END   ,
 006808 9108 7263      00263       50819  1 7718.                IF    ~SCBTCPQU,BEGIN          RETURN PREVIOUS TIMER
 00680C 4710 A086            06820 50829  1          +
 006810 6D00 A33E            06AD8 50834  2 7719.                  DD    R0,=FL8'106667'          TO 26 USEC UNITS
 006814 6E00 A346            06AE0 50835  2 7720.                  AW    R0,=XL8'4E00000000000000'
 006818 6000 C048            00000 50836  2 7721.                  STD   R0,SWCLOCK
 00681C 5840 C04C            00004 50837  2 7722.                  L     RJ,SWCLOCK+4            PREVIOUS TIMER
 006820                            50838  1 7723.                END
 006820 94C7 7263      00263       50842  1 7724.                CLEAR SCBTCPTR+SCBTCPCT+SCBTCPQU
 006824                            50856  1 7725.                CLEAR SCPCCLK                  CANCELLED
 006824 D703 71D0 71D0 001D0 001D0 50862  1          +
 00682A                            50863    7726.              END   ,
                                   50867    7727.     *
                                   50868    7728.     *  NOW SET NEW TIMER IF SO REQUESTED
                                   50869    7729.     *
 00682A 5830 7014            00014 50870    7730.              L     RB,SCPGPRS+1*4          SUPPLIED TIME VALUE
 00682E 1233/4780 A0D2       0686C 50871    7731.              IF    (RB,NZ),BEGIN
 DROP   @RTCNCK-72,R13             50885  1 7732.                PSET  @CPSET
 USING  @CPSET-72,R13
 006834 D713 D048 D048 00000 00000 50905  1          +
 00683A D203 D048 A346 00000 06AE0 50906  1 7733.                MVC   @CPSCLK(4),=XL8'4E00000000000000'
 006840 5030 D04C            00004 50907  1 7734.                ST    RB,@CPSCLK+4            NORMALIZED TIME VALUE
 006844 6800 D048            00000 50908  1 7735.                LD    R0,@CPSCLK
 006848 6C00 A34E            06AE8 50909  1 7736.                MD    R0,=D'106667'            TO USEC UNITS
 00684C 6E00 A346            06AE0 50910  1 7737.                AW    R0,=XL8'4E00000000000000'
 006850 6000 D048            00000 50911  1 7738.                STD   R0,@CPSCLK
 006854 9200 D048      00000       50912  1 7739.                MVI   @CPSCLK,0               REMOVE EXPONENT
 006858 D203 D050 71D4 00008 001D4 50913  1 7740.                MVC   @CPSXIT,SCPCCXIT        SET EXIT ID
 00685E 58F0 A42E/0DEF       06BC8 50914  1 7741.                VCALL CPSET                   START THE CLOCK
 006864 5000 71D0            001D0 50918  1 7742.                ST    RVR,SCPCCLK             SAVE ID
 006868 9630 7263      00263       50919  1 7743.                SET   SCBTCPTR+SCBTCPCT
 00686C                            50928    7744.              END
 00686C 981F C008            00008 50932    7745.              PEND
 DROP   SCP,R7
 DROP   SETCLK-72,R12
 DROP   SET153,R10
 006870 9680 C000/0B0E 00000       50952             +
 DROP   @CPSET-72,R13
1M1SERV   (M1SE00) (09:42) (22MAR04) ORVYL'S Mode 1 Set SVC                                                                 Page  348
0Current Usings:  (PZERO,R0)
0Loc    Object Code    Addr1 Addr2  Stmt Lv Lineno    Source Statement           (Hibal 5, Asmedit 3.3)  HLASM R4.0  2004/03/22 09.42
+___    ______ ____    _____ _____  ____ __ ______    ______ _________
0                                  50962    7747.     *******************************************************************
                                   50963    7748.     *                                                                 *
                                   50964    7749.     *    SET 154 - Write an SMF record                                *
                                   50965    7750.     *                                                                 *
                                   50966    7751.     *                                                                 *
                                   50967    7752.     *     Input - RY Points to SCP                                    *
                                   50968    7753.     *                                                                 *
                                   50969    7754.     *    Output -                                                     *
                                   50970    7755.     *                                                                 *
                                   50971    7756.     *                                                                 *
                                   50972    7757.     *******************************************************************
-
 006876                            50974    7759.     SET154   PROC  ,SCOPE=LOCAL
 006876 E2C5E3F1F5F44040           50981             +
 00687E 0000/0000                  50982             +
 006882 900F D004/18AF       00004 50984             +
 USING  SET154,R10
 006888 50D0 C000/18CD       00000 50999             +
 00688E 9680 C000      00000       51001             +
 006892 41D0 C048            00048 51002             +
 USING  SCP,R7                     51003    7760.              WITH  (SCP,RY)
                                   51016    7761.     *
                                   51017    7762.     *  Validate length
                                   51018    7763.     *
 006896 5830 704C            0004C 51019    7764.              L     RB,SCPGPRS+15*4        LENGTH
 00689A 1233/4720 A02A       068AC 51020    7765.              IF    (RB,NP),BEGIN          CHECK VALID
 0068A0 9206 71A9      001A9       51034  1 7766.                MVI   SCPPANSY,PANSPEC        SET CODE FOR SPEC
 0068A4 9610 7265      00265       51035  1 7767.                SET   SCBXP                   MARK USER FOR PANIC
 0068A8 47F0 A090            06912 51041  1 7768.                EXIT  SET154
 0068AC                            51044    7769.              END   ,
                                   51048    7770.     *
                                   51049    7771.     *  Validate caller's area
                                   51050    7772.     *
 0068AC 5820 7014            00014 51051    7773.              L     RA,SCPGPRS+1*4          LOCATION
 0068B0 9180 700C      0000C       51052    7774.              TM    SCPPSW+4,X'80'      31 bit mode?
 0068B4 4770 A03A            068BC 51053    7775.              IF    Z,'N RA,=X"00FFFFFF"'
 0068B8 5420 A26E            06AF0 51065             +
 USING  @PAGE-72,R13               51070    7776.              PSET  @PAGE
 0068BC D708 D048 D048 00000 00000 51087             +
 0068C2 5020 D048            00000 51088    7777.              ST    RA,@PAGLOC              SET LOCATION
 0068C6 5030 D04C            00004 51089    7778.              ST    RB,@PAGLEN              LENGTH
 0068CA D200 D050 7009 00008 00009 51090    7779.              MVC   @PAGKEY,SCPPSW+1        PSW KEY
 0068D0 94F0 D050      00008       51091    7780.              NI    @PAGKEY,X'F0'            KEY ONLY
 0068D4 58F0 A286/0DEF       06B08 51092    7781.              VCALL PAGTPROT               CHECK IT OUT
 0068DA 5900 A28A            06B0C 51096    7782.              IF    (RVR,GE,2),BEGIN          NO GOOD
 0068DE 4750 A06C            068EE 51108             +
 0068E2 9206 71A9      001A9       51113  1 7783.                MVI   SCPPANSY,PANSPEC        SET CODE FOR SPEC
 0068E6 9610 7265      00265       51114  1 7784.                SET   SCBXP                   MARK USER FOR PANIC
 0068EA 47F0 A090            06912 51120  1 7785.                EXIT  SET154
 0068EE                            51123    7786.              END   ,
                                   51127    7787.     *
                                   51128    7788.     *  Validate SMF number
1M1SERV   (M1SE00) (09:42) (22MAR04) ORVYL'S Mode 1 Set SVC                                                                 Page  349
0Current Usings:  (PZERO,R0) (SCP,R7) (SET154,R10) (@PAGE-72,R13)
0Loc    Object Code    Addr1 Addr2  Stmt Lv Lineno    Source Statement           (Hibal 5, Asmedit 3.3)  HLASM R4.0  2004/03/22 09.42
+___    ______ ____    _____ _____  ____ __ ______    ______ _________
0                                  51129    7789.     *
 0068EE 58E0 7048            00048 51130    7790.              L     R14,SCPGPRS+14*4        SMF NUMBER
 0068F2 12EE/4720 A082       06904 51131    7791.              IF    (R14,NP),BEGIN          NOT VALID
 0068F8 9206 71A9      001A9       51145  1 7792.                MVI   SCPPANSY,PANSPEC        SET CODE FOR SPEC
 0068FC 9610 7265      00265       51146  1 7793.                SET   SCBXP                   MARK USER FOR PANIC
 006900 47F0 A090            06912 51152  1 7794.                EXIT  SET154
 006904                            51155    7795.              END   ,
                                   51159    7796.     *         LA    TR,L'CTUSRSMF           CHECK
                                   51160    7797.     *         LA    SR,CTUSRSMF              USER
                                   51161    7798.     *SMFLOOP  EX    R14,'CLI  @SR,0'          SUPPLIED
                                   51162    7799.     *         BE    SMFOK                      NUMBER
                                   51163    7800.     *         INCR  SR                      NEXT
                                   51164    7801.     *         BCT   TR,SMFLOOP
                                   51165    7802.     *         B     SETSPEC                 NOT VALID
 006904 89E0 0018            00018 51166    7803.              SLL   R14,24
 006908 163E                       51167    7804.              OR    RB,R14
 00690A 8323000D                   51168    7805.              SYSCTL RA,RB,TYPE=SMF         GO WRITE SMF RECORD
 00690E 5020 704C            0004C 51171    7806.              ST    RA,SCPGPRS+15*4         RETURN CODE
 006912 981F C008            00008 51172    7807.              PEND
 DROP   SCP,R7
 DROP   SET154,R10
 006916 9680 C000/0B0E 00000       51187             +
 DROP   @PAGE-72,R13
1M1SERV   (M1SE00) (09:42) (22MAR04) ORVYL'S Mode 1 Set SVC                                                                 Page  350
0Current Usings:  (PZERO,R0)
0Loc    Object Code    Addr1 Addr2  Stmt Lv Lineno    Source Statement           (Hibal 5, Asmedit 3.3)  HLASM R4.0  2004/03/22 09.42
+___    ______ ____    _____ _____  ____ __ ______    ______ _________
0                                  51197    7809.     *******************************************************************
                                   51198    7810.     *                                                                 *
                                   51199    7811.     *    SET 155 - Set Program Key Mask                               *
                                   51200    7812.     *                                                                 *
                                   51201    7813.     *                                                                 *
                                   51202    7814.     *     Input - RY Points to SCP                                    *
                                   51203    7815.     *                                                                 *
                                   51204    7816.     *    Output -                                                     *
                                   51205    7817.     *                                                                 *
                                   51206    7818.     *                                                                 *
                                   51207    7819.     *******************************************************************
-
 00691C                            51209    7821.     SET155   PROC  ,SCOPE=LOCAL
 00691C E2C5E3F1F5F54040           51216             +
 006924 0000/0000                  51217             +
 006928 900F D004/18AF       00004 51219             +
 USING  SET155,R10
 00692E 50D0 C000/18CD       00000 51234             +
 006934 9680 C000      00000       51236             +
 006938 41D0 C048            00048 51237             +
 USING  SCP,R7                     51238    7822.              WITH  (SCP,RY)
 00693C                            51251    7823.              BEGIN
 00693C                            51255  1 7824.                IF    (SCPACCT,EQ,'GG.'),EXIT  Liberalized, 6/90, Niz
 00693C D502 A2B5 71AA 06BDD 001AA 51266  1          +
 006942 4780 A034            0695C 51269  1          +
 006946                            51275  1 7825.                IF    (SCPACCT,EQ,'GQ.'),EXIT  Liberalized, 6/90, Niz
 006946 D502 A2B8 71AA 06BE0 001AA 51286  1          +
 00694C 4780 A034            0695C 51289  1          +
 006950 9206 71A9      001A9       51295  1 7826.                MVI   SCPPANSY,PANSPEC        SET CODE FOR SPEC
 006954 9610 7265      00265       51296  1 7827.                SET   SCBXP                   MARK USER FOR PANIC
 006958 47F0 A04C            06974 51302  1 7828.                EXIT  SET155
 00695C                            51305    7829.              END   ,
 00695C 5860 0208            00208 51309    7830.              L     RX,PZCURASB             CURRENT ASB
 USING  ASB,R6                     51310    7831.              WITH  (ASB,RX)
 006960 4810 6008            00008 51323    7832.              LH    RS,ASBPKM               GET CURRENT MASK
 006964 D201 6008 7016 00008 00016 51324    7833.              MVC   ASBPKM,SCPGPRS+1*4+2    SET NEW MASK
 DROP   ASB,R6                     51325    7834.              DROP  ASB
 00696A 5010 7014            00014 51333    7835.              ST    RS,SCPGPRS+1*4          RETURN PREVIOUS MASK
 00696E D203 704C A1CC 0004C 06AF4 51334    7836.              MVC   SCPGPRS+15*4(4),=A(0)   ALL DONE
 006974 981F C008            00008 51335    7837.              PEND
 DROP   SCP,R7
 DROP   SET155,R10
 006978 9680 C000/0B0E 00000       51352             +
1M1SERV   (M1SE00) (09:42) (22MAR04) ORVYL'S Mode 1 Set SVC                                                                 Page  351
0Current Usings:  (PZERO,R0)
0Loc    Object Code    Addr1 Addr2  Stmt Lv Lineno    Source Statement           (Hibal 5, Asmedit 3.3)  HLASM R4.0  2004/03/22 09.42
+___    ______ ____    _____ _____  ____ __ ______    ______ _________
0                                  51359    7839.     *******************************************************************
                                   51360    7840.     *                                                                 *
                                   51361    7841.     *    @SETEXIT - Set parameters for user exit                      *
                                   51362    7842.     *                                                                 *
                                   51363    7843.     *******************************************************************
0000000                00000 00004 51365    7845.     @SETEXIT RECORD BEGIN
 000000                            51373  1 7846.     @SETEXL    DS    A                       Exit block address
 000004                00004 00004 51374    7847.              END   ,
1M1SERV   (M1SE00) (09:42) (22MAR04) ORVYL'S Mode 1 Set SVC                                                                 Page  352
0Current Usings:  (PZERO,R0)
0Loc    Object Code    Addr1 Addr2  Stmt Lv Lineno    Source Statement           (Hibal 5, Asmedit 3.3)  HLASM R4.0  2004/03/22 09.42
+___    ______ ____    _____ _____  ____ __ ______    ______ _________
0                                  51384    7849.     *******************************************************************
                                   51385    7850.     *                                                                 *
                                   51386    7851.     *    SETEXIT - Common processing for setting an exit              *
                                   51387    7852.     *                                                                 *
                                   51388    7853.     *                                                                 *
                                   51389    7854.     *     Input - RY Points to SCP                                    *
                                   51390    7855.     *                                                                 *
                                   51391    7856.     *    Output -                                                     *
                                   51392    7857.     *                                                                 *
                                   51393    7858.     *                                                                 *
                                   51394    7859.     *******************************************************************
-
 00697E                            51396    7861.     SETEXIT  PROC  @SETEXIT,SCOPE=LOCAL
 00697E E2C5E3C5E7C9E340           51403             +
 006986 0008/0000                  51404             +
 00698A 900F D004/18AF       00004 51406             +
 USING  SETEXIT,R10
 006990 50D0 C000/18CD       00000 51421             +
 006996 9680 C000      00000       51423             +
 USING  @SETEXIT-72,R12
 00699A 41D0 C050            00050 51437             +
 USING  SCP,R7                     51438    7862.              WITH  (SCP,RY)
                                   51451    7863.     *
                                   51452    7864.     *  Validate routine address
                                   51453    7865.     *
 00699E 5820 7014            00014 51454    7866.              L     RA,SCPGPRS+1*4          SUPPLIED ROUTINE ADDRESS
 0069A2 9180 700C      0000C       51455    7867.              TM    SCPPSW+4,X'80'          31 bit mode?
 0069A6 4770 A024            069AE 51456    7868.              IF    Z,'N RA,=X"00FFFFFF"'
 0069AA 5420 A166            06AF0 51468             +
 0069AE 1222/4780 A070       069FA 51473    7869.              IF    (RA,NZ),BEGIN
 USING  @PAGE-72,R13               51487  1 7870.                PSET  @PAGE
 0069B4 D708 D048 D048 00000 00000 51504  1          +
 0069BA 5020 D048            00000 51505  1 7871.                ST    RA,@PAGLOC              LOCATION
 0069BE D203 D04C A182 00004 06B0C 51506  1 7872.                MVC   @PAGLEN,=A(2)           MINIMUM ROUTINE LENGTH
 0069C4 D200 D050 7009 00008 00009 51507  1 7873.                MVC   @PAGKEY,SCPPSW+1        PSW KEY
 0069CA 94F0 D050      00008       51508  1 7874.                NI    @PAGKEY,X'F0'            KEY ONLY
 0069CE 58F0 A17E/0DEF       06B08 51509  1 7875.                VCALL PAGTPROT                CHECK IT OUT
 0069D4 5900 A182            06B0C 51513  1 7876.                IF    (RVR,GE,2),BEGIN         NO GOOD
 0069D8 4750 A05E            069E8 51525  1          +
 0069DC 9206 71A9      001A9       51530  2 7877.                  MVI   SCPPANSY,PANSPEC        SET CODE FOR SPEC
 0069E0 9610 7265      00265       51531  2 7878.                  SET   SCBXP                   MARK USER FOR PANIC
 0069E4 47F0 A08C            06A16 51537  2 7879.                  EXIT  SETEXIT
 0069E8                            51540  1 7880.                END   ,
 0069E8 1802                       51544  1 7881.                LR    R0,RA                   SUPPLIED ROUTINE ADDRESS
 0069EA 9180 700C      0000C       51545  1 7882.                TM    SCPPSW+4,X'80'          31 bit mode?
 0069EE 47E0 A06C            069F6 51546  1 7883.                IF    O,'O R0,=X"80000000"'   Set to 31 bit mode
 0069F2 5600 A242            06BCC 51558  1          +
 0069F6 5810 7048            00048 51563  1 7884.                L     R1,SCPGPRS+14*4          AND PARM
 0069FA                            51564    7885.              END
 0069FA A074           069FA 069B2 51568    7886.              ELSE  'CLEAR R0,R1'           CALLER IS DELETING EXIT
 0069FA 47F0 A078/1B00       06A02 51573             +
 006A00 1B11                       51585             +
1M1SERV   (M1SE00) (09:42) (22MAR04) ORVYL'S Mode 1 Set SVC                                                                 Page  353
0Current Usings:  (PZERO,R0) (SCP,R7) (SETEXIT,R10) (@SETEXIT-72,R12) (@PAGE-72,R13)
0Loc    Object Code    Addr1 Addr2  Stmt Lv Lineno    Source Statement           (Hibal 5, Asmedit 3.3)  HLASM R4.0  2004/03/22 09.42
+___    ______ ____    _____ _____  ____ __ ______    ______ _________
0                                  51590    7887.     *
                                   51591    7888.     *  Return previous exit info - then set new exit info
                                   51592    7889.     *
 006A02 5830 C048            00000 51593    7890.              L     RB,@SETEXL
 006A06 58F0 3000            00000 51594    7891.              L     R15,@RB                 PREVIOUS EXIT ADDRESS
 006A0A 58E0 3004            00004 51595    7892.              L     R14,@RB+4                AND PARM
 006A0E 90EF 7048            00048 51596    7893.              STM   R14,R15,SCPGPRS+14*4    RETURN PREVIOUS
 006A12 9001 3000            00000 51597    7894.              STM   R0,R1,@RB               SET NEW EXIT AND USER INFO
 006A16 981F C008            00008 51598    7895.              PEND
 DROP   SCP,R7
 DROP   @SETEXIT-72,R12
 DROP   SETEXIT,R10
 006A1A 9680 C000/0B0E 00000       51618             +
 DROP   @PAGE-72,R13
1M1SERV   (M1SE00) (09:42) (22MAR04) ORVYL'S Mode 1 Set SVC                                                                 Page  354
0Current Usings:  (PZERO,R0)
0Loc    Object Code    Addr1 Addr2  Stmt Lv Lineno    Source Statement           (Hibal 5, Asmedit 3.3)  HLASM R4.0  2004/03/22 09.42
+___    ______ ____    _____ _____  ____ __ ______    ______ _________
0                                  51628    7897.     *******************************************************************
                                   51629    7898.     *                                                                 *
                                   51630    7899.     *    VMUPDAT - Update memory reserve and unreserve counts         *
                                   51631    7900.     *                                                                 *
                                   51632    7901.     *                                                                 *
                                   51633    7902.     *     Input - RY Points to SCP                                    *
                                   51634    7903.     *                                                                 *
                                   51635    7904.     *    Output -                                                     *
                                   51636    7905.     *                                                                 *
                                   51637    7906.     *                                                                 *
                                   51638    7907.     *******************************************************************
-
 006A20                            51640    7909.     VMUPDAT  PROC  ,SCOPE=LOCAL
 006A20 E5D4E4D7C4C1E340           51647             +
 006A28 0000/0000                  51648             +
 006A2C 900F D004/18AF       00004 51650             +
 USING  VMUPDAT,R10
 006A32 50D0 C000/18CD       00000 51665             +
 006A38 9680 C000      00000       51667             +
 006A3C 41D0 C048            00048 51668             +
 USING  SCP,R7                     51669    7910.              WITH  (SCP,RY)
                                   51682    7911.     *
                                   51683    7912.     *  UPDATE RESERVE/UNRESERVE COUNTS
                                   51684    7913.     *
 006A40 5820 7014            00014 51685    7914.              L     RA,SCPGPRS+1*4          LOCATION IN R1
 006A44 5830 7010            00010 51686    7915.              L     RB,SCPGPRS+0*4          LENGTH IN R0
 006A48 8830 000C            0000C 51687    7916.              SRL   RB,12                   BACK TO 4K INCREMENTS
 006A4C 4810 71FA            001FA 51688    7917.              LH    RS,SCPUNRSV             ADJUST UNRESERVED COUNT
 006A50 1B13                       51689    7918.              SR    RS,RB
 006A52 4010 71FA            001FA 51690    7919.              STH   RS,SCPUNRSV
 006A56 4810 71F8            001F8 51691    7920.              LH    RS,SCPRESRV             ADJUST RESERVED COUNT
 006A5A 1A13                       51692    7921.              AR    RS,RB
 006A5C 4010 71F8            001F8 51693    7922.              STH   RS,SCPRESRV
                                   51694    7923.              AGO   .NOTRASH
                                   51695    7936.     .NOTRASH ANOP  ,
 006A60 981F C008            00008 51696    7937.              PEND
 DROP   SCP,R7
 DROP   VMUPDAT,R10
 006A64 9680 C000/0B0E 00000       51711             +
1M1SERV   (M1SE00) (09:42) (22MAR04) ORVYL'S Mode 1 Set SVC                                                                 Page  355
0Current Usings:  (PZERO,R0)
0Loc    Object Code    Addr1 Addr2  Stmt Lv Lineno    Source Statement           (Hibal 5, Asmedit 3.3)  HLASM R4.0  2004/03/22 09.42
+___    ______ ____    _____ _____  ____ __ ______    ______ _________
0                                  51718    7939.     *******************************************************************
                                   51719    7940.     *                                                                 *
                                   51720    7941.     *    PERCHECK - Set PSW PER flag                                  *
                                   51721    7942.     *                                                                 *
                                   51722    7943.     *                                                                 *
                                   51723    7944.     *     Input - RY Points to SCP                                    *
                                   51724    7945.     *                                                                 *
                                   51725    7946.     *    Output -                                                     *
                                   51726    7947.     *                                                                 *
                                   51727    7948.     *                                                                 *
                                   51728    7949.     *******************************************************************
-
 006A6A                            51730    7951.     PERCHECK PROC  ,SCOPE=LOCAL
 006A6A D7C5D9C3C8C5C3D2           51737             +
 006A72 0000/0000                  51738             +
 006A76 900F D004/18AF       00004 51740             +
 USING  PERCHECK,R10
 006A7C 50D0 C000/18CD       00000 51755             +
 006A82 9680 C000      00000       51757             +
 006A86 41D0 C048            00048 51758             +
 USING  SCP,R7                     51759    7952.              WITH  (SCP,RY)
 006A8A 94BF 7008      00008       51772    7953.              NI    SCPPSW,B'10111111'      ASSUME NO PER
 006A8E 91F0 7194      00194       51773    7954.              IF    (SCPCTL9.B'11110000',NZ),BEGIN   SOME EVENTS
 006A92 4780 A046            06ABC 51786             +
 006A96 9140 7200      00200       51791  1 7955.                IF    SCPFPER,'SET  SCPPSW.B"01000000"'   SET PER GOING
 006A9A 47E0 A02C            06AA2 51801  1          +
 006A9E 9640 7008      00008       51813  1          +
 006AA2 A030           06AA2 06A9C 51818  1 7956.                ELSE  BEGIN
 006AA2 47F0 A046            06ABC 51823  1          +
 006AA6 9110 7264      00264       51829  2 7957.                  IF    ~SCBMB.SCBXP,EXIT       USER PANIC DISABLED
 006AAA 47E0 A046            06ABC 51841  2          +
 006AAE 5810 71E0/1211       001E0 51847  2 7958.                  IF    ('LT  RS,SCPPXEP',Z),EXIT   NO PANIC ROUTINE
 006AB4 4780 A046            06ABC 51860  2          +
 006AB8 9640 7008      00008       51866  2 7959.                  SET   SCPPSW.B'01000000'      SET PER GOING
 006ABC                            51873  1 7960.                END
 006ABC                            51877    7961.              END   ,
 006ABC 981F C008            00008 51881    7962.              PEND
 DROP   SCP,R7
 DROP   PERCHECK,R10
 006AC0 9680 C000/0B0E 00000       51896             +
-
1M1SERV   (M1SE00) (09:42) (22MAR04) ORVYL'S Mode 1 Set SVC                                                                 Page  356
0Current Usings:  (PZERO,R0)
0Loc    Object Code    Addr1 Addr2  Stmt Lv Lineno    Source Statement           (Hibal 5, Asmedit 3.3)  HLASM R4.0  2004/03/22 09.42
+___    ______ ____    _____ _____  ____ __ ______    ______ _________
0006AC8                            51904    7965.              LTORG
 006AC8 E2C5E3F2F1404040           51906                             =CL8'SET21'
 006AD0 4040404040404040           51907                             =CL(L'SCBPNAM)' '
 006AD8 000000000001A0AB           51908                             =FL8'106667'
 006AE0 4E00000000000000           51909                             =XL8'4E00000000000000'
 006AE8 451A0AB000000000           51910                             =D'106667'
 006AF0 00FFFFFF                   51911                             =X'00FFFFFF'
 006AF4 00000000                   51912                             =A(0)
 006AF8 7FFFF000                   51913                             =X'7FFFF000'
 006AFC 00000000                   51914                             =V(VMCHK)
 006B00 00000000                   51915                             =V(PAGUPROT)
 006B04 00000080                   51916                             =A(128)
 006B08 00000000                   51917                             =V(PAGTPROT)
 006B0C 00000002                   51918                             =A(2)
 006B10 4040404040404040           51919                             =CL44' '
 006B3C 0000002C                   51920                             =A(44)
 006B40 00000028                   51921                             =A(40)
 006B44 00010000                   51922                             =X'00010000'
 006B48 0F1E2D3C                   51923                             =X'0F1E2D3C'
 006B4C 00000000                   51924                             =V(LKOB)
 006B50 00000000                   51925                             =V(ENQUEUE)
 006B54 00000004                   51926                             =A(4)
 006B58 00000006                   51927                             =X'00000006'
 006B5C 00000000                   51928                             =V(VMGET)
 006B60 E2F2F1E6                   51929                             =CL4'S21W'
 006B64 00000000                   51930                             =V(SYSRNEW)
 006B68 00000000                   51931                             =V(LKREL)
 006B6C 00000000                   51932                             =V(DEQUEUE)
 006B70 000060DE                   51933                             =A(S21POST)
 006B74 00000000                   51934                             =V(SYSRDO)
 006B78 00000000                   51935                             =V(RESUMTS)
 006B7C 00000000                   51936                             =V(SYSRDEL)
 006B80 7FFFFFFF                   51937                             =X'7FFFFFFF'
 006B84 00000000                   51938                             =V(VMFREE)
 006B88 00000000                   51939                             =V(PAGHASH)
 006B8C 00000008                   51940                             =A(L'SCBPNAM)
 006B90 00000001                   51941                             =A(1)
 006B94 00000000                   51942                             =V(ACPINFO)
 006B98 00000064                   51943                             =A(100)
 006B9C 00007430                   51944                             =A(M1GOWAIT)
 006BA0 000000C8                   51945                             =A(L'S30NAME)
 006BA4 FFFFFFFC                   51946                             =F'-4'
 006BA8 E2E2C240                   51947                             =CL4'SSB'
 006BAC 00000000                   51948                             =F'0'
 006BB0 000000C8                   51949                             =A(L'S31NAME)
 006BB4 00000000                   51950                             =V(FMCLSUDO)
 006BB8 00000751                   51951                             =AL4(1873)
 006BBC 00000000                   51952                             =V(CPCAN)
 006BC0 00000000                   51953                             =V(RTCAN)
 006BC4 00000000                   51954                             =V(RTSET)
 006BC8 00000000                   51955                             =V(CPSET)
 006BCC 80000000                   51956                             =X'80000000'
 006BD0 3000                       51957                             =Y(48*256+0)
 006BD2 2000                       51958                             =Y(32*256+0)
1M1SERV   (M1SE00) (09:42) (22MAR04) ORVYL'S Mode 1 Set SVC                                                                 Page  357
0Current Usings:  (PZERO,R0)
0Loc    Object Code    Addr1 Addr2  Stmt Lv Lineno    Source Statement           (Hibal 5, Asmedit 3.3)  HLASM R4.0  2004/03/22 09.42
+___    ______ ____    _____ _____  ____ __ ______    ______ _________
0006BD4 0000                       51959                             =Y(0*256+0)
 006BD6 3F00                       51960                             =Y(63*256+0)
 006BD8 3A00                       51961                             =Y(58*256+0)
 006BDA E2E2C2                     51962                             =C'SSB'
 006BDD C7C74B                     51963                             =C'GG.'
 006BE0 C7D84B         06D08 07A90 51964                             =C'GQ.'
1M1SERV   (M1SE00) (09:42) (22MAR04) ORVYL'S Mode 1 Enqueue/Dequeue SVC                                                     Page  358
0Current Usings:  (PZERO,R0)
0Loc    Object Code    Addr1 Addr2  Stmt Lv Lineno    Source Statement           (Hibal 5, Asmedit 3.3)  HLASM R4.0  2004/03/22 09.42
+___    ______ ____    _____ _____  ____ __ ______    ______ _________
0                                  51969    7967.     *******************************************************************
                                   51970    7968.     *                                                                 *
                                   51971    7969.     *   M1ENQPRM - Mode 1 Enqueue/Dequeue parameters                  *
                                   51972    7970.     *                                                                 *
                                   51973    7971.     *******************************************************************
0000000                00000 00041 51975    7973.     M1ENQPRM RECORD BEGIN
 000000                            51983  1 7974.     M1EQID     DS    A                       ENQUEUE ID
 000004                            51984  1 7975.     M1EQSLOT   DS    A                       SLOT ADDRESS
 000008                            51985  1 7976.     M1EQRQID   DS    A                       REQUEST ID
 00000C                            51986  1 7977.     M1EQEXID   DS    A                       EXIT ID
 000010                            51987  1 7978.     M1EQTASK   DS    A                       TASK ID
 000014                            51988  1 7979.     M1EQNAME   DS    CL44                    NAME
 000040 00                         51989  1 7980.     M1EQFL     FLAG  ,
 M1EQFL.M1EQWAIT   80 ONES         51993  1 7981.                FLAG  M1EQWAIT                WAIT MODE
 M1EQFL.M1EQSHR    40 ONES         51998  1 7982.                FLAG  M1EQSHR                 SHARE MODE
 000041                00041 00041 52003    7983.              END   ,
-
                                   52013    7985.     *******************************************************************
                                   52014    7986.     *                                                                 *
                                   52015    7987.     *   @M1EQHLT - Mode 1 Enqueue/Dequeue halt parameters             *
                                   52016    7988.     *                                                                 *
                                   52017    7989.     *******************************************************************
0000000                00000 00004 52019    7991.     @M1EQHLT RECORD BEGIN
 000000                            52027  1 7992.     @M1EHDEV   DS    A                       ENQUEUE ID
 000004                00004 00004 52028    7993.              END   ,
-
                                   52038    7995.     *
                                   52039    7996.     *  @M1EIOCP -- This area maps the parm area of the Enqueue
                                   52040    7997.     *              I/O complete exit.
                                   52041    7998.     *
0000000                00000 00010 52043    8000.     @M1EIOCP RECORD BEGIN
 000000                            52051  1 8001.     @M1EICRQ   DS    A             Request ID
 000004                            52052  1 8002.     @M1EIR01   DS    A             Value of R1 to be returned to user
 000008                            52053  1 8003.     @M1EIR14   DS    A             Value of R14 to be returned to user
 00000C                            52054  1 8004.     @M1EIR15   DS    A             Value of R15 to be returned to user
                                   52055  1 8005.
                                   52056  1 8006.     @M1EINRV   EQU   X'80'         Value should not be returned
 000010                00010 00010 52057    8007.              END   ,
1M1SERV   (M1SE00) (09:42) (22MAR04) ORVYL'S Mode 1 Enqueue/Dequeue SVC                                                     Page  359
0Current Usings:  (PZERO,R0)
0Loc    Object Code    Addr1 Addr2  Stmt Lv Lineno    Source Statement           (Hibal 5, Asmedit 3.3)  HLASM R4.0  2004/03/22 09.42
+___    ______ ____    _____ _____  ____ __ ______    ______ _________
0                                  52067    8009.     *******************************************************************
                                   52068    8010.     *                                                                 *
                                   52069    8011.     *   M1ENQTAB - Mode 1 Enqueue/Dequeue Translate table             *
                                   52070    8012.     *                                                                 *
                                   52071    8013.     *******************************************************************
0007951                07951 07A90 52073    8015.              DATA  BEGIN
 007951 0404040404040404           52078  1 8016.     M1ENQTAB   DC    256X'04'
 007A51                07A51 0799C 52079  1 8017.                ORG   M1ENQTAB+C'.'
 00799C 00                         52080  1 8018.                DC    X'00'
 00799D                0799D 07A12 52081  1 8019.                ORG   M1ENQTAB+C'A'
 007A12 0000000000000000           52082  1 8020.                DC    9X'00'
 007A1B                07A1B 07A22 52083  1 8021.                ORG   M1ENQTAB+C'J'
 007A22 0000000000000000           52084  1 8022.                DC    9X'00'
 007A2B                07A2B 07A33 52085  1 8023.                ORG   M1ENQTAB+C'S'
 007A33 0000000000000000           52086  1 8024.                DC    8X'00'
 007A3B                07A3B 07A41 52087  1 8025.                ORG   M1ENQTAB+C'0'
 007A41 0000000000000000           52088  1 8026.                DC    10X'00'
 007A4B                07A4B 07A51 52089  1 8027.                ORG   ,
-                                         1
                                   52091  1 8029.     *
                                   52092  1 8030.     *  REQUEUE RETURN CODE TRANSLATION
                                   52093  1 8031.     *
 007A51 000000                            1
 007A54 FFFFFFFC                   52094  1 8032.     REQTAB     DC    A(-4)                   REQUEUE CODE 4
 007A58 00000004                   52095  1 8033.                DC    A(4)                    REQUEUE CODE 8
 007A5C 00000008                   52096  1 8034.                DC    A(8)                    REQUEUE CODE 12
 006D08                06D08 07A90 52097    8035.              END   ,
1M1SERV   (M1SE00) (09:42) (22MAR04) ORVYL'S Mode 1 Enqueue/Dequeue SVC                                                     Page  360
0Current Usings:  (PZERO,R0)
0Loc    Object Code    Addr1 Addr2  Stmt Lv Lineno    Source Statement           (Hibal 5, Asmedit 3.3)  HLASM R4.0  2004/03/22 09.42
+___    ______ ____    _____ _____  ____ __ ______    ______ _________
0                                  52104    8037.     *******************************************************************
                                   52105    8038.     *                                                                 *
                                   52106    8039.     *    M1ENQ  - Mode 1 ENQUEUE/DEQUEUE SVC                          *
                                   52107    8040.     *                                                                 *
                                   52108    8041.     *                                                                 *
                                   52109    8042.     *     Input - RY Points to SCP                                    *
                                   52110    8043.     *                                                                 *
                                   52111    8044.     *    Output -                                                     *
                                   52112    8045.     *                                                                 *
                                   52113    8046.     *                                                                 *
                                   52114    8047.     *******************************************************************
-
 006D08                            52116    8049.     M1ENQ    PROC  ,SCOPE=LOCAL
 006D08 D4F1C5D5D8404040           52123             +
 006D10 0000/0000                  52124             +
 006D14 900F D004/18AF       00004 52126             +
 USING  M1ENQ,R10
 006D1A 50D0 C000/18CD       00000 52141             +
 006D20 9680 C000      00000       52143             +
 006D24 41D0 C048            00048 52144             +
 USING  SCP,R7                     52145    8050.              WITH  (SCP,RY)
 006D28 4860 7212            00212 52158    8051.              LH    RX,SCPQIDT              IDT NUMBER
 006D2C 0660                       52159    8052.              DECR  RX
 006D2E 4C60 AC24            07938 52161    8053.              MH    RX,=Y(L'IDT)
 006D32 5E60 720C            0020C 52162    8054.              AL    RX,SCPIDT               IDT VIRTUAL ADDDRESS
 USING  IDT,R6                     52163    8055.              WITH  (IDT,RX)
                                   52176    8056.     *
                                   52177    8057.     *  IDT IN USE - RETURN ERROR
                                   52178    8058.     *
 006D36 91C0 6004      00004       52179    8059.              IF    (IDTFA+IDTFACL,NZ),BEGIN
 006D3A 4780 A036            06D4A 52194             +
 006D3E 9210 71A9      001A9       52199  1 8060.                MVI   SCPPANSY,PANWAIT        RE-USING IDT
 006D42 9610 7265      00265       52200  1 8061.                SET   SCBXP                   ENTER PANIC EXIT
 006D46 47F0 A396            070AA 52206  1 8062.                EXIT  M1ENQ
 006D4A                            52209    8063.              END   ,
                                   52213    8064.     *
                                   52214    8065.     *  VALIDATE NAME LENGTH
                                   52215    8066.     *
 006D4A 5830 704C            0004C 52216    8067.              L     RB,SCPGPRS+15*4         USER SUPPLIED NAME LENGTH
 006D4E 1033/4780 A0B0       06DC4 52217    8068.              IF    ('LPR  RB,RB',NZ),BEGIN
 006D54 5930 AB54            07868 52230  1 8069.                IF    (RB,GT,L'M1EQNAME-4),BEGIN   NAME TOO LONG
 006D58 47D0 A054            06D68 52242  1          +
 006D5C 48F0 AC26            0793A 52247  2 8070.                  LH    R15,=Y(-8)
 006D60 50F0 704C            0004C 52248  2 8071.                  ST    R15,SCPGPRS+15*4        NAME ERROR CODE
 006D64 47F0 A396            070AA 52249  2 8072.                  EXIT  M1ENQ
 006D68                            52252  1 8073.                END   ,
1M1SERV   (M1SE00) (09:42) (22MAR04) ORVYL'S Mode 1 Enqueue/Dequeue SVC                                                     Page  361
0Current Usings:  (PZERO,R0) (IDT,R6) (SCP,R7) (M1ENQ,R10)
0Loc    Object Code    Addr1 Addr2  Stmt Lv Lineno    Source Statement           (Hibal 5, Asmedit 3.3)  HLASM R4.0  2004/03/22 09.42
+___    ______ ____    _____ _____  ____ __ ______    ______ _________
0                                  52257  1 8075.     *
                                   52258  1 8076.     *  Check user name area
                                   52259  1 8077.     *
 USING  @PAGE-72,R13               52260  1 8078.                PSET  @PAGE
 006D68 D708 D048 D048 00000 00000 52277  1          +
 006D6E 5820 7014            00014 52278  1 8079.                L     RA,SCPGPRS+1*4          LOCATION
 006D72 1022                       52279  1 8080.                LPR   RA,RA
 006D74 9180 700C      0000C       52280  1 8081.                TM    SCPPSW+4,X'80'      31 bit mode?
 006D78 4770 A06C            06D80 52281  1 8082.                IF    Z,'N RA,=X"00FFFFFF"'
 006D7C 5420 AB58            0786C 52293  1          +
 006D80 5020 D048            00000 52298  1 8083.                ST    RA,@PAGLOC               SET
 006D84 5030 D04C            00004 52299  1 8084.                ST    RB,@PAGLEN              LENGTH
 006D88 D200 D050 7009 00008 00009 52300  1 8085.                MVC   @PAGKEY,SCPPSW+1        PSW KEY
 006D8E 94F0 D050      00008       52301  1 8086.                NI    @PAGKEY,X'F0'            KEY ONLY
 006D92 58F0 AB5C/0DEF       07870 52302  1 8087.                VCALL PAGTPROT                CHECK IT OUT
 006D98 5900 AB60            07874 52306  1 8088.                IF    (RVR,GE,2),BEGIN        NO GOOD
 006D9C 4750 A098            06DAC 52318  1          +
 006DA0 9206 71A9      001A9       52323  2 8089.                  MVI   SCPPANSY,PANSPEC
 006DA4 9610 7265      00265       52324  2 8090.                  SET   SCBXP
 006DA8 47F0 A396            070AA 52330  2 8091.                  EXIT  M1ENQ
 006DAC                            52333  1 8092.                END   ,
                                   52337  1 8093.     *
                                   52338  1 8094.     *  CHECK NAME
                                   52339  1 8095.     *
 006DAC 1813                       52340  1 8096.                LR    RS,RB
 006DAE 0610/4410 AD4C       07A60 52341  1 8097.                DEX   RS,'TRT  @RA(0),M1ENQTAB'
 007A60 DD00 2000 AC3D 00000 07951 52352  1          +
 006DB4 4780 A0B0            06DC4 52360  1 8098.                IF    NZ,BEGIN                NO GOOD
 006DB8 48F0 AC26            0793A 52371  2 8099.                  LH    R15,=Y(-8)
 006DBC 50F0 704C            0004C 52372  2 8100.                  ST    R15,SCPGPRS+15*4        NAME ERROR CODE
 006DC0 47F0 A396            070AA 52373  2 8101.                  EXIT  M1ENQ
 006DC4                            52376  1 8102.                END   ,
 006DC4                            52380    8103.              END   ,
                                   52384    8104.     *
                                   52385    8105.     *  NAME NOT SUPPLIED - ONLY VALID FOR CLP DEQUEUES
                                   52386    8106.     *
 006DC4 A0B4           06DC4 06D52 52387    8107.              ELSE  BEGIN
 006DC4 47F0 A0D2            06DE6 52392             +
 006DC8 9180 7262      00262       52398  1 8108.                IF    (SCBFCLP,AND,('LT  R14,SCPGPRS+14*4',NZ)),EXIT
 006DCC 47E0 A0C6            06DDA 52410  1          +
 006DD0 58E0 7048/12EE       00048 52421  1          +
 006DD6 4770 A0D2            06DE6 52425  1          +
 006DDA 9206 71A9      001A9       52431  1 8109.                MVI   SCPPANSY,PANSPEC
 006DDE 9610 7265      00265       52432  1 8110.                SET   SCBXP
 006DE2 47F0 A396            070AA 52438  1 8111.                EXIT  M1ENQ
 006DE6                            52441    8112.              END   ,
                                   52445    8113.     *
                                   52446    8114.     *  PARAMETERS ARE OTAY SPANKY - INITIALIZE IDT
                                   52447    8115.     *
 006DE6 9180 7262      00262       52448    8116.              IF    SCBFCLP,'SET  IDTFACL'  MARK IN USE
 006DEA 47E0 A0DE            06DF2 52458             +
 006DEE 9640 6004      00004       52469             +
 006DF2 A0E2           06DF2 06DEC 52474    8117.              ELSE  'SET  IDTFA'
 006DF2 47F0 A0E6            06DFA 52479             +
1M1SERV   (M1SE00) (09:42) (22MAR04) ORVYL'S Mode 1 Enqueue/Dequeue SVC                                                     Page  362
0Current Usings:  (PZERO,R0) (IDT,R6) (SCP,R7) (M1ENQ,R10) (@PAGE-72,R13)
0Loc    Object Code    Addr1 Addr2  Stmt Lv Lineno    Source Statement           (Hibal 5, Asmedit 3.3)  HLASM R4.0  2004/03/22 09.42
+___    ______ ____    _____ _____  ____ __ ______    ______ _________
0006DF6 9680 6004      00004       52491             +
 006DFA 9205 6006      00006       52496    8118.              SET   IDTCENQ                 SET CLASS
 006DFE 9608 6005      00005       52502    8119.              SET   IDTFFIDT                FREE IDT AT POST
1M1SERV   (M1SE00) (09:42) (22MAR04) ORVYL'S Mode 1 Enqueue/Dequeue SVC                                                     Page  363
0Current Usings:  (PZERO,R0) (IDT,R6) (SCP,R7) (M1ENQ,R10) (@PAGE-72,R13)
0Loc    Object Code    Addr1 Addr2  Stmt Lv Lineno    Source Statement           (Hibal 5, Asmedit 3.3)  HLASM R4.0  2004/03/22 09.42
+___    ______ ____    _____ _____  ____ __ ______    ______ _________
0                                  52509    8121.     *
                                   52510    8122.     *  DETERMINE STATUS WITH TEST MODE ENQUEUE
                                   52511    8123.     *
 006E02 1233/4780 A116       06E2A 52512    8124.              IF    (RB,NZ),BEGIN
 DROP   @PAGE-72,R13               52526  1 8125.                PSET  @ENQUEUE
 USING  @ENQUEUE-72,R13
 006E08 D738 D048 D048 00000 00000 52546  1          +
 006E0E D207 D04C AB3C 00004 07850 52547  1 8126.                MVC   @ENQQNM,=CL8'ENQ/DEQ'   QUEUE NAME
 006E14 D22B D054 AB64 0000C 07878 52548  1 8127.                MVC   @ENQRNM,=CL44'ENQ.'     RESET NAME FIELD
 006E1A 0630/4430 AD52       07A66 52549  1 8128.                DEX   RB,'MVC  @ENQRNM+4(0),@RA'    RESOURCE NAME
 007A66 D200 D058 2000 00010 00000 52560  1          +
 006E20 9620 D080      00038       52568  1 8129.                SET   @ENQTEST
 006E24 58F0 AB90/0DEF       078A4 52574  1 8130.                VCALL ENQUEUE
 006E2A                            52578    8131.              END   ,
 006E2A A11A           06E2A 06E06 52582    8132.              ELSE  'L  RVR,SCPGPRS+1*4'    ENQUEUE ID
 006E2A 47F0 A11E            06E32 52587             +
 006E2E 5800 7014            00014 52594             +
                                   52599    8133.     *
                                   52600    8134.     *  DEQUEUE REQUEST - REMOVE ENTRY FROM SLOT TABLE
                                   52601    8135.     *
 006E32 58E0 7048/12EE       00048 52602    8136.              IF    ('LT  R14,SCPGPRS+14*4',P),BEGIN
 006E38 47D0 A1A8            06EBC 52613             +
 006E3C 1200/4780 A194       06EA8 52618  1 8137.                IF    (RVR,NZ),BEGIN
 006E42 4810 7256            00256 52632  2 8138.                  LH    RS,SCPNENQ              NUMBER OF ENQUEUE SLOTS
 006E46 5820 7258            00258 52633  2 8139.                  L     RA,SCPENQL              SLOT AREA
 006E4A                            52634  2 8140.                  LOOP  BEGIN
 006E4A 5900 2000            00000 52640  3 8141.                    IF    (RVR,EQ,@RA),EXIT       FOUND THE SLOT
 006E4E 4780 A17E            06E92 52654  3          +
 006E52 0610                       52660  3 8142.                    DECR  RS
 006E54 1211/4770 A176       06E8A 52662  3 8143.                    IF    (RS,Z),'ABORT ENQSLOT'
 006E5A AC04 021B      0021B       52680  4          +
 006E5E 9680 021A      0021A       52686  4          +
 006E62 50F0 021C            0021C 52687  4          +
 006E66 58F0 0210            00210 52688  4          +
 006E6A 89F0 0010            00010 52689  4          +
 006E6E 88F0 0010            00010 52690  4          +
 006E72 41F0 F000            00000 52691  4          +
 006E76 AEFF 0006            00006 52692  4          +
 006E7A C5D5D8E2D3D6E340           52693  3          +
 006E8A 4120 2004            00004 52698  3 8144.                    LA    RA,@RA+4                TO NEXT SLOT
 006E8E 47F0 A136            06E4A 52699  2 8145.                  END   ,                       DO THEM ALL
 006E92                            52704  2 8146.                  CLEAR (@RA,4)                 CLEAR THE SLOT
 006E92 D703 2000 2000 00000 00000 52710  2          +
                                   52711  2 8147.     *
                                   52712  2 8148.     *  WE HAVE ENQUEUE ID - CALL RESMAN DIRECTLY
                                   52713  2 8149.     *
 DROP   @ENQUEUE-72,R13            52714  2 8150.                  PSET  @DEQUEUE
 USING  @DEQUEUE-72,R13
 006E98 D738 D048 D048 00000 00000 52734  2          +
 006E9E 5000 D048            00000 52735  2 8151.                  ST    RVR,@DEQID              TO ID FIELD
 006EA2 58F0 AB94/0DEF       078A8 52736  2 8152.                  VCALL DEQUEUE
 006EA8                            52740  1 8153.                END   ,
 006EA8 A198           06EA8 06E40 52744  1 8154.                ELSE  'LA  RVR,4'             NOT OWNED TO DEQUEUE
 006EA8 47F0 A19C            06EB0 52749  1          +
1M1SERV   (M1SE00) (09:42) (22MAR04) ORVYL'S Mode 1 Enqueue/Dequeue SVC                                                     Page  364
0Current Usings:  (PZERO,R0) (IDT,R6) (SCP,R7) (M1ENQ,R10) (@DEQUEUE-72,R13)
0Loc    Object Code    Addr1 Addr2  Stmt Lv Lineno    Source Statement           (Hibal 5, Asmedit 3.3)  HLASM R4.0  2004/03/22 09.42
+___    ______ ____    _____ _____  ____ __ ______    ______ _________
0006EAC 4100 0004            00004 52756  1          +
                                   52761  1 8155.     *
                                   52762  1 8156.     *  SET DEQUEUE WAIT RETURNS
                                   52763  1 8157.     *
 006EB0 5000 6010            00010 52764  1 8158.                ST    RVR,IDTR15              RETURN CODE
 006EB4 9608 6004      00004       52765  1 8159.                SET   IDTFR15                 R15 HAS VALUE
 006EB8 9640 6005      00005       52771  1 8160.                SET   IDTFPOST                REQUEST COMPLETE
 006EBC                            52777    8161.              END   ,
1M1SERV   (M1SE00) (09:42) (22MAR04) ORVYL'S Mode 1 Enqueue/Dequeue SVC                                                     Page  365
0Current Usings:  (PZERO,R0) (IDT,R6) (SCP,R7) (M1ENQ,R10) (@DEQUEUE-72,R13)
0Loc    Object Code    Addr1 Addr2  Stmt Lv Lineno    Source Statement           (Hibal 5, Asmedit 3.3)  HLASM R4.0  2004/03/22 09.42
+___    ______ ____    _____ _____  ____ __ ______    ______ _________
0                                  52782    8163.     *
                                   52783    8164.     *  PROCESS MODE TEST WAIT RETURNS
                                   52784    8165.     *
 006EBC A1AC           06EBC 06E3A 52785    8166.              ELSEIF  ('LT  R15,SCPGPRS+15*4',M),BEGIN
 006EBC 47F0 A1DE            06EF2 52791             +
 006EC0 58F0 704C/12FF       0004C 52803             +
 006EC6 47B0 A1DE            06EF2 52805             +
 DROP   @DEQUEUE-72,R13            52810  1 8167.                PSET  @ENQUEUE,CLEAR=NO       FOR ADDRESSIBILITY ONLY
 USING  @ENQUEUE-72,R13
 006ECA 1200/4770 A1C0       06ED4 52824  1 8168.                IF    (RVR,Z),'LA  R15,8'     NOT OWNED
 006ED0 41F0 0008            00008 52839  1          +
 006ED4 A1C4           06ED4 06ECE 52844  1 8169.                ELSE  BEGIN
 006ED4 47F0 A1D2            06EE6 52849  1          +
 006ED8 1BFF                       52855  2 8170.                  CLEAR R15                     ASSUME OWNED EXCLUSIVELY
 006EDA 9180 D080      00038       52859  2 8171.                  IF    @ENQSHR,'LA  R15,4'     OWNED SHARED
 006EDE 47E0 A1D2            06EE6 52869  2          +
 006EE2 41F0 0004            00004 52875  2          +
 006EE6                            52880  1 8172.                END   ,
 006EE6 50F0 6010            00010 52884  1 8173.                ST    R15,IDTR15              RETURN CODE
 006EEA 9608 6004      00004       52885  1 8174.                SET   IDTFR15                 R15 HAS VALUE
 006EEE 9640 6005      00005       52891  1 8175.                SET   IDTFPOST                REQUEST COMPLETE
 006EF2                            52897    8176.              END   ,
                                   52901    8177.     *
                                   52902    8178.     *  ENQUEUE OR REQUEUE REQUEST
                                   52903    8179.     *
 006EF2 A1E2           06EF2 06EC8 52904    8180.     M1ELOOP  ELSE  BEGIN
 006EF2 47F0 A386            0709A 52909             +
                                   52916  1 8181.     *
                                   52917  1 8182.     *  RESOURCE NAME ALREADY ENQUEUED
                                   52918  1 8183.     *
 006EF6 1250/4780 A26C       06F80 52919  1 8184.                IF    ('LTR  RK,RVR',NZ),BEGIN
 006EFC 58F0 7014            00014 52932  2 8185.                  L     R15,SCPGPRS+1*4         REG 1 COMPLEMENTED IF SHARE
 006F00 9180 D080      00038       52933  2 8186.                  IF    ((@ENQSHR,AND,(R15,M)),OR,(~@ENQSHR,AND,(R15,NM))),BEGIN
 006F04 47E0 A1FA/12FF       06F0E 52947  2          +
 006F0A 4740 A208            06F1C 52960  2          +
 006F0E 9180 D080      00038       52971  2          +
 006F12 4710 A21C/12FF       06F30 52972  2          +
 006F18 4740 A21C            06F30 52983  2          +
 006F1C 41F0 0004            00004 52988  3 8187.                    LA    R15,4                   OWNED AS REQUESTED
 006F20 50F0 6010            00010 52989  3 8188.                    ST    R15,IDTR15               FOR WAIT
 006F24 9608 6004      00004       52990  3 8189.                    SET   IDTFR15
 006F28 9640 6005      00005       52996  3 8190.                    SET   IDTFPOST                REQUEST COMPLETE
 006F2C 47F0 A386            0709A 53002  3 8191.                    EXIT  M1ELOOP
 006F30                            53005  2 8192.                  END   ,
1M1SERV   (M1SE00) (09:42) (22MAR04) ORVYL'S Mode 1 Enqueue/Dequeue SVC                                                     Page  366
0Current Usings:  (PZERO,R0) (IDT,R6) (SCP,R7) (M1ENQ,R10) (@ENQUEUE-72,R13)
0Loc    Object Code    Addr1 Addr2  Stmt Lv Lineno    Source Statement           (Hibal 5, Asmedit 3.3)  HLASM R4.0  2004/03/22 09.42
+___    ______ ____    _____ _____  ____ __ ______    ______ _________
0                                  53010  2 8194.     *
                                   53011  2 8195.     *  FIND SLOT TABLE ENTRY
                                   53012  2 8196.     *
 006F30 4810 7256            00256 53013  2 8197.                  LH    RS,SCPNENQ              NUMBER OF ENQUEUE SLOTS
 006F34 5820 7258            00258 53014  2 8198.                  L     RA,SCPENQL              SLOT AREA
 006F38                            53015  2 8199.                  LOOP  BEGIN
 006F38 5950 2000            00000 53021  3 8200.                    IF    (RK,EQ,@RA),EXIT        FOUND THE SLOT
 006F3C 4780 A26C            06F80 53035  3          +
 006F40 0610                       53041  3 8201.                    DECR  RS
 006F42 1211/4770 A264       06F78 53043  3 8202.                    IF    (RS,Z),'ABORT EQSLTERR'
 006F48 AC04 021B      0021B       53061  4          +
 006F4C 9680 021A      0021A       53067  4          +
 006F50 50F0 021C            0021C 53068  4          +
 006F54 58F0 0210            00210 53069  4          +
 006F58 89F0 0010            00010 53070  4          +
 006F5C 88F0 0010            00010 53071  4          +
 006F60 41F0 F000            00000 53072  4          +
 006F64 AEFF 0006            00006 53073  4          +
 006F68 C5D8E2D3E3C5D9D9           53074  3          +
 006F78 4120 2004            00004 53079  3 8203.                    LA    RA,@RA+4                TO NEXT SLOT
 006F7C 47F0 A224            06F38 53080  2 8204.                  END   ,                       DO THEM ALL
 006F80                            53085  1 8205.                END   ,
                                   53089  1 8206.     *
                                   53090  1 8207.     *  NAME NOT YET IN TABLE - FIND AN AVAILABLE SLOT
                                   53091  1 8208.     *
 006F80 A270           06F80 06EFA 53092  1 8209.                ELSE  BEGIN
 006F80 47F0 A2A6            06FBA 53097  1          +
 006F84 4810 7256            00256 53103  2 8210.                  LH    RS,SCPNENQ              NUMBER OF ENQUEUE SLOTS
 006F88 5820 7258            00258 53104  2 8211.                  L     RA,SCPENQL              SLOT AREA
 006F8C                            53105  2 8212.                  LOOP  BEGIN
 006F8C 58F0 2000/12FF       00000 53111  3 8213.                    IF    ('LT  R15,@RA',Z),EXIT    FOUND A SLOT
 006F92 4780 A2A6            06FBA 53124  3          +
 006F96 0610                       53130  3 8214.                    DECR  RS
 006F98 4120 2004            00004 53132  3 8215.                    LA    RA,@RA+4                TO NEXT SLOT
 006F9C 1211/4720 A278       06F8C 53133  3 8216.                    IF    (RS,P),NEXT             DO THEM ALL
                                   53150  3 8217.     *
                                   53151  3 8218.     *  NO SLOT AVAILABLE - SET UP ERROR RETURN
                                   53152  3 8219.     *
 006FA2 4110 000C            0000C 53153  3 8220.                    LA    RS,12                   RETURN CODE
 006FA6 5010 6010            00010 53154  3 8221.                    ST    RS,IDTR15               TO IDT
 006FAA 9608 6004      00004       53155  3 8222.                    SET   IDTFR15
 006FAE 9640 6005      00005       53161  3 8223.                    SET   IDTFPOST                MARK POSTED
 006FB2 47F0 A386            0709A 53167  3 8224.                    EXIT  M1ELOOP                  AND EXIT
 006FB6 47F0 A278            06F8C 53170  2 8225.                  END   ,
 006FBA                            53175  1 8226.                END   ,
1M1SERV   (M1SE00) (09:42) (22MAR04) ORVYL'S Mode 1 Enqueue/Dequeue SVC                                                     Page  367
0Current Usings:  (PZERO,R0) (IDT,R6) (SCP,R7) (M1ENQ,R10) (@ENQUEUE-72,R13)
0Loc    Object Code    Addr1 Addr2  Stmt Lv Lineno    Source Statement           (Hibal 5, Asmedit 3.3)  HLASM R4.0  2004/03/22 09.42
+___    ______ ____    _____ _____  ____ __ ______    ______ _________
0                                  53180  1 8228.     *
                                   53181  1 8229.     *  SET UP ENQUEUE TASK PARAMETERS
                                   53182  1 8230.     *
 DROP   @ENQUEUE-72,R13            53183  1 8231.                VMGET L'M1ENQPRM,LOC=LOCSYS
 USING  @VMGET-72,R13
 006FBA D70A D048 D048 00000 00000 53210  1          +
 006FC0 4100 0041            00041 53222  1          +
 006FC4 5000 D048            00000 53227  1          +
 006FC8 D201 D050 AC28 00008 0793C 53228  1          +
 006FCE 58F0 AB98/0DEF       078AC 53231  1          +
 006FD4 1240/4770 A2F6       0700A 53233  1 8232.                IF    ('LTR  RJ,RVR',Z),'ABORT ENQMEM'
 006FDA AC04 021B      0021B       53250  2          +
 006FDE 9680 021A      0021A       53256  2          +
 006FE2 50F0 021C            0021C 53257  2          +
 006FE6 58F0 0210            00210 53258  2          +
 006FEA 89F0 0010            00010 53259  2          +
 006FEE 88F0 0010            00010 53260  2          +
 006FF2 41F0 F000            00000 53261  2          +
 006FF6 AEFF 0006            00006 53262  2          +
 006FFA C5D5D8D4C5D44040           53263  1          +
 USING  M1ENQPRM,R4                53268  1 8233.                WITH  (M1ENQPRM,RJ)
 00700A 5040 6024            00024 53281  1 8234.                ST    RJ,IDTDEVID             PARM AREA IS DEVICE ID
 00700E                            53282  1 8235.                CLEAR M1ENQPRM
 00700E D740 4000 4000 00000 00000 53288  1          +
 007014 5060 4008            00008 53289  1 8236.                ST    RX,M1EQRQID             IDT IS REQUEST ID
 007018 5020 4004            00004 53290  1 8237.                ST    RA,M1EQSLOT             SET SLOT LOCATION
 00701C D203 400C 7270 0000C 00270 53291  1 8238.                MVC   M1EQEXID,SCPEPXIT       SET EXIT ID
                                   53292  1 8239.     *
                                   53293  1 8240.     *  R0 COMPLEMENTED IF MODE WAIT
                                   53294  1 8241.     *
 007022 58F0 7010            00010 53295  1 8242.                L     R15,SCPGPRS+0*4         USER "DEVICE TYPE"
 007026 12FF/47B0 A31C       07030 53296  1 8243.                IF    (R15,M),'SET  M1EQWAIT'   SET WAIT MODE
 00702C 9680 4040      00040       53316  1          +
                                   53321  1 8244.     *
                                   53322  1 8245.     *  R1 COMPLEMENTED IF MODE SHARE
                                   53323  1 8246.     *
 007030 58E0 7014/12EE       00014 53324  1 8247.                IF    ('LT  R14,SCPGPRS+1*4',M),BEGIN   USER NAME LOCATION
 007036 47B0 A32C            07040 53335  1          +
 00703A 10EE                       53340  2 8248.                  LPR   R14,R14                 SET LOCATION VALUE POSITIVE
 00703C 9640 4040      00040       53341  2 8249.                  SET   M1EQSHR                 NOTE SHARE MODE
 007040                            53347  1 8250.                END   ,
 007040 9180 700C      0000C       53351  1 8251.                TM    SCPPSW+4,X'80'      31 bit mode?
 007044 4770 A338            0704C 53352  1 8252.                IF    Z,'N R14,=X"00FFFFFF"'
 007048 54E0 AB58            0786C 53364  1          +
1M1SERV   (M1SE00) (09:42) (22MAR04) ORVYL'S Mode 1 Enqueue/Dequeue SVC                                                     Page  368
0Current Usings:  (PZERO,R0) (M1ENQPRM,R4) (IDT,R6) (SCP,R7) (M1ENQ,R10) (@VMGET-72,R13)
0Loc    Object Code    Addr1 Addr2  Stmt Lv Lineno    Source Statement           (Hibal 5, Asmedit 3.3)  HLASM R4.0  2004/03/22 09.42
+___    ______ ____    _____ _____  ____ __ ______    ______ _________
0                                  53370  1 8254.     *
                                   53371  1 8255.     *  MOVE NAME TO WORK AREA
                                   53372  1 8256.     *
 00704C 1255/4770 A350       07064 53373  1 8257.                IF    (RK,Z),BEGIN
 007052 58F0 704C            0004C 53387  2 8258.                  L     R15,SCPGPRS+15*4        USER SUPPLIED NAME LENGTH
 007056 10FF                       53388  2 8259.                  LPR   R15,R15                 MAKE POSITIVE
 007058 D22B 4014 AB64 00014 07878 53389  2 8260.                  MVC   M1EQNAME,=CL44'ENQ.'    RESET NAME FIELD
 00705E 06F0/44F0 AD58       07A6C 53390  2 8261.                  DEX   R15,'MVC  M1EQNAME+4(0),@R14'    RESOURCE NAME
 007A6C D200 4018 E000 00018 00000 53401  2          +
 007064                            53409  1 8262.                END   ,
                                   53413  1 8263.     *
                                   53414  1 8264.     *  PROVIDE ENQUEUE ID FOR REQUEUE
                                   53415  1 8265.     *
 007064 A354           07064 07050 53416  1 8266.                ELSE  'ST  RK,M1EQID'
 007064 47F0 A358            0706C 53421  1          +
 007068 5050 4000            00000 53428  1          +
                                   53433  1 8267.     *
                                   53434  1 8268.     *  REQUEUE OR ENQUEUE RESOURCE AS REQUESTED
                                   53435  1 8269.     *
                                   53436  1 8270.                WITH  (M1ENQPRM,RJ)
 00706C D203 4010 020C 00010 0020C 53440  1 8271.                MVC   M1EQTASK,PZCURTSK       COPY TASK ID
 DROP   @VMGET-72,R13              53441  1 8272.                PSET  @TCREATE
 USING  @TCREATE-72,R13
 007072 D714 D048 D048 00000 00000 53461  1          +
 007078 5040 D050            00008 53462  1 8273.                ST    RJ,@TCRPARM             M1ENQPRM IS PARAMETER
 00707C 4110 0001            00001 53463  1 8274.                LA    RS,1                    TASK PRIORITY
 007080 5010 D058            00010 53464  1 8275.                ST    RS,@TCRPRIO              IS JUST ABOVE CALLER
 007084 D203 D048 AB9C 00000 078B0 53465  1 8276.                MVC   @TCRPSW(4),=X'070C0000'  SET PSW
 00708A D203 D04C ABA0 00004 078B4 53466  1 8277.                MVC   @TCRPSW+4(4),=A(M1ENQTSK+X'80000000')
 007090 9680 D05C      00014       53467  1 8278.                SET   @TCRFSTK                GIVE HIM A STACK
 007094 58F0 ABA4/0DEF       078B8 53473  1 8279.                VCALL TCREATE                 CREATE THE TASK
 DROP   M1ENQPRM,R4                53477    8280.              END   ,
                                   53486    8281.     *
                                   53487    8282.     *  SET SVC RETURNS
                                   53488    8283.     *
 00709A 1FFF/43F0 6007       00007 53489    8284.              LC    R15,IDTID               GET ID NUMBER
 0070A0 50F0 7010            00010 53496    8285.              ST    R15,SCPGPRS+0*4         SAVE ID NUMBER FOR USER
 0070A4 1BFF                       53497    8286.              CLEAR R15                     SET SVC RETURN
 0070A6 50F0 704C            0004C 53501    8287.              ST    R15,SCPGPRS+15*4         CODE
 0070AA 981F C008            00008 53502    8288.              PEND
 DROP   IDT,R6
 DROP   SCP,R7
 DROP   M1ENQ,R10
 0070AE 9680 C000/0B0E 00000       53522             +
 DROP   @TCREATE-72,R13
1M1SERV   (M1SE00) (09:42) (22MAR04) ORVYL'S Mode 1 Enqueue/Dequeue SVC                                                     Page  369
0Current Usings:  (PZERO,R0)
0Loc    Object Code    Addr1 Addr2  Stmt Lv Lineno    Source Statement           (Hibal 5, Asmedit 3.3)  HLASM R4.0  2004/03/22 09.42
+___    ______ ____    _____ _____  ____ __ ______    ______ _________
0                                  53532    8290.     *******************************************************************
                                   53533    8291.     *                                                                 *
                                   53534    8292.     *    M1ENQHLT - Mode 1 Enqueue/Dequeue halt processing            *
                                   53535    8293.     *                                                                 *
                                   53536    8294.     *                                                                 *
                                   53537    8295.     *     Input -  @M1EQHLT                                           *
                                   53538    8296.     *                                                                 *
                                   53539    8297.     *    Output -                                                     *
                                   53540    8298.     *                                                                 *
                                   53541    8299.     *                                                                 *
                                   53542    8300.     *******************************************************************
-
 0070B4                            53544    8302.     M1ENQHLT PROC  @M1EQHLT,SCOPE=LOCAL
 0070B4 D4F1C5D5D8C8D3E3           53551             +
 0070BC 0008/0000                  53552             +
 0070C0 900F D004/18AF       00004 53554             +
 USING  M1ENQHLT,R10
 0070C6 50D0 C000/18CD       00000 53569             +
 0070CC 9680 C000      00000       53571             +
 USING  @M1EQHLT-72,R12
 0070D0 41D0 C050            00050 53585             +
 0070D4 5840 C048            00000 53586    8303.              L     RJ,@M1EHDEV             M1ENQPRM IS DEVICE ID
 USING  M1ENQPRM,R4                53587    8304.              WITH  (M1ENQPRM,RJ)
 USING  @ENQHALT-72,R13            53600    8305.              PSET  @ENQHALT
 0070D8 D733 D048 D048 00000 00000 53617             +
 0070DE D207 D048 A790 00000 07850 53618    8306.              MVC   @EQHQNM,=CL8'ENQ/DEQ'   QUEUE NAME
 0070E4 D22B D050 4014 00008 00014 53619    8307.              MVC   @EQHRNM,M1EQNAME        RESOURCE NAME
 0070EA 58F0 A7FC/0DEF       078BC 53620    8308.              VCALL ENQHALT                 STOP THE MUSIC
 0070F0 981F C008            00008 53624    8309.              PEND
 DROP   M1ENQPRM,R4
 DROP   @M1EQHLT-72,R12
 DROP   M1ENQHLT,R10
 0070F4 9680 C000/0B0E 00000       53644             +
 DROP   @ENQHALT-72,R13
1M1SERV   (M1SE00) (09:42) (22MAR04) ORVYL'S Mode 1 Enqueue/Dequeue SVC                                                     Page  370
0Current Usings:  (PZERO,R0)
0Loc    Object Code    Addr1 Addr2  Stmt Lv Lineno    Source Statement           (Hibal 5, Asmedit 3.3)  HLASM R4.0  2004/03/22 09.42
+___    ______ ____    _____ _____  ____ __ ______    ______ _________
0                                  53654    8311.     *******************************************************************
                                   53655    8312.     *                                                                 *
                                   53656    8313.     *    M1ENQTSK - Mode 1 Enqueue/Dequeue wait task                  *
                                   53657    8314.     *                                                                 *
                                   53658    8315.     *                                                                 *
                                   53659    8316.     *     Input -  @TENTRY                                            *
                                   53660    8317.     *                                                                 *
                                   53661    8318.     *    Output -                                                     *
                                   53662    8319.     *                                                                 *
                                   53663    8320.     *                                                                 *
                                   53664    8321.     *******************************************************************
-
 0070FA                            53666    8323.     M1ENQTSK PROC  @TENTRY,SCOPE=LOCAL
 0070FA D4F1C5D5D8E3E2D2           53673             +
 007102 0008/0000                  53674             +
 007106 900F D004/18AF       00004 53676             +
 USING  M1ENQTSK,R10
 00710C 50D0 C000/18CD       00000 53691             +
 007112 9680 C000      00000       53693             +
 USING  @TENTRY-72,R12
 007116 41D0 C050            00050 53707             +
 00711A 5850 C048            00000 53708    8324.              L     RK,@TEPARM              PARM IS IDT POINTER
 USING  M1ENQPRM,R5                53709    8325.              WITH  (M1ENQPRM,RK)
                                   53722    8326.     *
                                   53723    8327.     *  IF ENQUEUE ID SUPPLIED ASSUME WE HAVE A REQUEUE
                                   53724    8328.     *
 00711E 5810 5000/1211       00000 53725    8329.              IF    ('LT  RS,M1EQID',NZ),BEGIN
 007124 4780 A054            0715A 53736             +
 USING  @REQUEUE-72,R13            53741  1 8330.                PSET  @REQUEUE
 007128 D738 D048 D048 00000 00000 53758  1          +
 00712E 5010 D048            00000 53759  1 8331.                ST    RS,@REQID               ENQID
 007132 9140 5040      00040       53760  1 8332.                IF    M1EQSHR,'SET  @REQSHR'   MARK SHARED
 007136 47E0 A038            0713E 53770  1          +
 00713A 9680 D080      00038       53781  1          +
 00713E 9180 5040      00040       53786  1 8333.                IF    M1EQWAIT,'SET  @REQSUSP'   MARK WAIT
 007142 47E0 A044            0714A 53796  1          +
 007146 9640 D080      00038       53807  1          +
 00714A 58F0 A7BA/0DEF       078C0 53812  1 8334.                VCALL REQUEUE
                                   53816  1 8335.     *
                                   53817  1 8336.     *  SET RETURNS
                                   53818  1 8337.     *
 007150 1220/4780 A054       0715A 53819  1 8338.                IF    ('LTR  RA,RVR',NZ),BEGIN    ERROR RETURN
 007156 5822 A94A            07A50 53832  2 8339.                  L     RA,REQTAB-4(RA)         GET USER RETURN CODE
 00715A                            53833  1 8340.                END   ,
 00715A                            53837    8341.              END   ,
1M1SERV   (M1SE00) (09:42) (22MAR04) ORVYL'S Mode 1 Enqueue/Dequeue SVC                                                     Page  371
0Current Usings:  (PZERO,R0) (M1ENQPRM,R5) (M1ENQTSK,R10) (@TENTRY-72,R12) (@REQUEUE-72,R13)
0Loc    Object Code    Addr1 Addr2  Stmt Lv Lineno    Source Statement           (Hibal 5, Asmedit 3.3)  HLASM R4.0  2004/03/22 09.42
+___    ______ ____    _____ _____  ____ __ ______    ______ _________
0                                  53842    8343.     *
                                   53843    8344.     *  WE HAVE AN ENQUEUE
                                   53844    8345.     *
 00715A A058           0715A 07126 53845    8346.              ELSE  BEGIN
 00715A 47F0 A0A0            071A6 53850             +
 DROP   @REQUEUE-72,R13            53856  1 8347.                PSET  @ENQUEUE
 USING  @ENQUEUE-72,R13
 00715E D738 D048 D048 00000 00000 53876  1          +
 007164 D207 D04C A74A 00004 07850 53877  1 8348.                MVC   @ENQQNM,=CL8'ENQ/DEQ'   QUEUE NAME
 00716A D22B D054 5014 0000C 00014 53878  1 8349.                MVC   @ENQRNM,M1EQNAME        RESOURCE NAME
 007170 9140 5040      00040       53879  1 8350.                IF    M1EQSHR,'SET  @ENQSHR'   MARK SHARED
 007174 47E0 A076            0717C 53889  1          +
 007178 9680 D080      00038       53900  1          +
 00717C 9180 5040      00040       53905  1 8351.                IF    M1EQWAIT,'SET  @ENQSUSP'   MARK WAIT
 007180 47E0 A082            07188 53915  1          +
 007184 9640 D080      00038       53926  1          +
 007188 58F0 A79E/0DEF       078A4 53931  1 8352.                VCALL ENQUEUE
                                   53935  1 8353.     *
                                   53936  1 8354.     *  SET RETURNS
                                   53937  1 8355.     *
 00718E 1200/4780 A098       0719E 53938  1 8356.                IF    (RVR,NZ),BEGIN          GOOD RETURN
 007194 5810 5004            00004 53952  2 8357.                  L     RS,M1EQSLOT             GET SLOT POINTER
 007198 5000 1000            00000 53953  2 8358.                  ST    RVR,@RS                 SAVE ENQ ID
 00719C 1B22                       53954  2 8359.                  CLEAR RA
 00719E                            53958  1 8360.                END   ,
 00719E A09C           0719E 07192 53962  1 8361.                ELSE  'LA  RA,8'              ERROR RETURN
 00719E 47F0 A0A0            071A6 53967  1          +
 0071A2 4120 0008            00008 53974  1          +
 0071A6                            53979    8362.              END   ,
1M1SERV   (M1SE00) (09:42) (22MAR04) ORVYL'S Mode 1 Enqueue/Dequeue SVC                                                     Page  372
0Current Usings:  (PZERO,R0) (M1ENQPRM,R5) (M1ENQTSK,R10) (@TENTRY-72,R12) (@ENQUEUE-72,R13)
0Loc    Object Code    Addr1 Addr2  Stmt Lv Lineno    Source Statement           (Hibal 5, Asmedit 3.3)  HLASM R4.0  2004/03/22 09.42
+___    ______ ____    _____ _____  ____ __ ______    ______ _________
0                                  53984    8364.     *
                                   53985    8365.     *  ENTER I/O POST
                                   53986    8366.     *
 DROP   @ENQUEUE-72,R13            53987    8367.              PSET  @XITDO
 USING  @XITDO-72,R13
 0071A6 D71F D048 D048 00000 00000 54007             +
 0071AC D203 D048 500C 00000 0000C 54008    8368.              MVC   @XITRQID,M1EQEXID       SET EXIT ID
 0071B2 D203 D04C 5010 00004 00010 54009    8369.              MVC   @XITTSK,M1EQTASK        COPY TASK ID
 0071B8 9209 D050      00008       54010    8370.              MVI   @XITTYPE,XITTIOCN       EXIT TYPE IS I/O
 AUSING (@M1EIOCP,@XITPARM)        54011    8371.              WITH  (@M1EIOCP,@XITPARM)
 0071BC D203 D058 5008 00000 00008 54018    8372.              MVC   @M1EICRQ,M1EQRQID       REQUEST ID
 0071C2 5020 D064            0000C 54019    8373.              ST    RA,@M1EIR15             RETURN CODE
 0071C6 D203 D05C A7BE 00004 078C4 54020    8374.              MVC   @M1EIR01,=X'80000000'   NO RETURN IN R1
 0071CC D203 D060 A7BE 00008 078C4 54021    8375.              MVC   @M1EIR14,=X'80000000'   NO RETURN IN R14
 0071D2 58F0 A7C2/0DEF       078C8 54022    8376.              VCALL XITDO
 DROP   @XITDO-72,R13              54026    8377.              VMFREE L'M1ENQPRM,A=(RK),LOC=LOCSYS
 USING  @VMFREE-72,R13
 0071D8 D709 D048 D048 00000 00000 54053             +
 0071DE 4100 0041            00041 54065             +
 0071E2 5000 D04C            00004 54070             +
 0071E6 5050 D048            00000 54080             +
 0071EA D201 D050 A836 00008 0793C 54081             +
 0071F0 58F0 A7C6/0DEF       078CC 54084             +
 0071F6 1200/4780 A126       0722C 54086    8378.              IF    (RVR,NZ),'ABORT FREEMEQP'
 0071FC AC04 021B      0021B       54104  1          +
 007200 9680 021A      0021A       54110  1          +
 007204 50F0 021C            0021C 54111  1          +
 007208 58F0 0210            00210 54112  1          +
 00720C 89F0 0010            00010 54113  1          +
 007210 88F0 0010            00010 54114  1          +
 007214 41F0 F000            00000 54115  1          +
 007218 AEFF 0006            00006 54116  1          +
 00721C C6D9C5C5D4C5D8D7           54117             +
1M1SERV   (M1SE00) (09:42) (22MAR04) ORVYL'S Mode 1 Enqueue/Dequeue SVC                                                     Page  373
0Current Usings:  (PZERO,R0) (M1ENQPRM,R5) (M1ENQTSK,R10) (@TENTRY-72,R12) (@VMFREE-72,R13)
0Loc    Object Code    Addr1 Addr2  Stmt Lv Lineno    Source Statement           (Hibal 5, Asmedit 3.3)  HLASM R4.0  2004/03/22 09.42
+___    ______ ____    _____ _____  ____ __ ______    ______ _________
0                                  54123    8380.     *
                                   54124    8381.     *  RETURN TO DISPATCHER
                                   54125    8382.     *
 DROP   @VMFREE-72,R13             54126    8383.              PSET  @TEXIT
 USING  @TEXIT-72,R13
 00722C D703 D048 D048 00000 00000 54146             +
 007232 58F0 A7CA/0DEF       078D0 54147    8384.              VCALL TEXIT                   RETURN TO DISPATCHER
 007238 981F C008            00008 54151    8385.              PEND
 DROP   M1ENQPRM,R5
 DROP   @TENTRY-72,R12
 DROP   M1ENQTSK,R10
 00723C 9680 C000/0B0E 00000       54171             +
 DROP   @TEXIT-72,R13
1M1SERV   (M1SE00) (09:42) (22MAR04) ORVYL'S Mode 1 Compatibility Routines                                                  Page  374
0Current Usings:  (PZERO,R0)
0Loc    Object Code    Addr1 Addr2  Stmt Lv Lineno    Source Statement           (Hibal 5, Asmedit 3.3)  HLASM R4.0  2004/03/22 09.42
+___    ______ ____    _____ _____  ____ __ ______    ______ _________
0                                  54181    8387.     *******************************************************************
                                   54182    8388.     *                                                                 *
                                   54183    8389.     *    @TOD -  Mode 1 Time conversion                               *
                                   54184    8390.     *                                                                 *
                                   54185    8391.     *******************************************************************
0000000                00000 00014 54187    8393.     @TOD     RECORD BEGIN
 000000                            54195  1 8394.     @TODCLK    DS    D                       STORE CLOCK VALUE
 000008                            54196  1 8395.     @TODTIM    DS    D                       TIME IN CLOCK UNITS
 000010                            54197  1 8396.     @TODDAT    DS    A                       DATE IN YYYYDDMM FORM
 000014                00014 00014 54198    8397.              END   ,
-
                                   54208    8399.     *******************************************************************
                                   54209    8400.     *                                                                 *
                                   54210    8401.     *    TODWRK - Time conversion work area                           *
                                   54211    8402.     *                                                                 *
                                   54212    8403.     *******************************************************************
0000000                00000 00010 54214    8405.     TODWRK   RECORD BEGIN
 000000                            54222  1 8406.     TWCVD      DS    D                       CONVERT TO BINARY AREA
 000008                            54223  1 8407.     TWCLK      DS    D                       STORE CLOCK AREA
 000010                00010 00010 54224    8408.              END   ,
-
                                   54234    8410.     *******************************************************************
                                   54235    8411.     *                                                                 *
                                   54236    8412.     *      Time conversion constants                                  *
                                   54237    8413.     *                                                                 *
                                   54238    8414.     *******************************************************************
0007A72                07951 07A90 54240    8416.              DATA  BEGIN
 007A72 001F001D001F001E           54245  1 8417.     DAYTAB     DC    H'31,29,31,30,31,30,31,31,30,31,30,31'
 007242                06D08 07A90 54246    8418.              END   ,
1M1SERV   (M1SE00) (09:42) (22MAR04) ORVYL'S Mode 1 Compatibility Routines                                                  Page  375
0Current Usings:  (PZERO,R0)
0Loc    Object Code    Addr1 Addr2  Stmt Lv Lineno    Source Statement           (Hibal 5, Asmedit 3.3)  HLASM R4.0  2004/03/22 09.42
+___    ______ ____    _____ _____  ____ __ ______    ______ _________
0                                  54253    8420.     *******************************************************************
                                   54254    8421.     *                                                                 *
                                   54255    8422.     *    SENSETD - Calculate time and date                            *
                                   54256    8423.     *                                                                 *
                                   54257    8424.     *                                                                 *
                                   54258    8425.     *     Input - @TODCLK                                             *
                                   54259    8426.     *                                                                 *
                                   54260    8427.     *                                                                 *
                                   54261    8428.     *    Output - @TODTIM  Time in clock units since midnight         *
                                   54262    8429.     *             @TODDAT  Date in "yyyymmdd" format                  *
                                   54263    8430.     *                                                                 *
                                   54264    8431.     *                                                                 *
                                   54265    8432.     *******************************************************************
-
 007242                            54267    8434.     SENSETD  PROC  @TOD,TODWRK,SCOPE=LOCAL
 007242 E2C5D5E2C5E3C440           54274             +
 00724A 0018/0010                  54275             +
 00724E 900F D004/18AF       00004 54277             +
 USING  SENSETD,R10
 007254 50D0 C000/18CD       00000 54292             +
 00725A 9680 C000      00000       54294             +
 USING  @TOD-72,R12
 AUSING (TODWRK,@TOD+24)
 00725E 41D0 C070            00070 54313             +
 007262 9823 C048            00000 54314    8435.              LM    RA,RB,@TODCLK           GET SUPPLIED CLOCK
 007266 1222/4770 A03C       0728A 54315    8436.              IF    ((RA,Z),AND,(RB,Z)),BEGIN
 00726C 1233/4770 A03C       0728A 54336             +
 007272 B205 C068      00008       54342  1 8437.                STCK  TWCLK                 GET CURRENT TIME
 007276 9823 C068            00008 54343  1 8438.                LM    RA,RB,TWCLK
 00727A 5E30 0224            00224 54344  1 8439.                ADL   RA,PZTZOFF            ADD TIME ZONE OFFSET
 00727E 47C0 A038            07286 54353  1          +
 007282 5E20 A686            078D4 54359  1          +
 007286 5E20 0220            00220 54364  1          +
 00728A                            54365    8440.              END   ,
                                   54369    8441.     *
                                   54370    8442.     *  FIRST COMPUTE TIME
                                   54371    8443.     *
 00728A 8C20 0012            00012 54372    8444.              SRDL  RA,12+6                 .000001*64 OF A SEC
 00728E 5D20 A68A            078D8 54373    8445.              D     RA,=A(1000000/64*60*60*24)  ONE DAY
 007292 4110 3001            00001 54374    8446.              LA    RS,@RB+1                NO. OF DAYS SINCE 1900
 007296 1832                       54375    8447.              LR    RB,RA                   .000001*64 SEC SINCE MIDNIGHT
 007298 1B22                       54376    8448.              CLEAR RA
 00729A 8D20 0012            00012 54380    8449.              SLDL  RA,12+6                 BACK TO CLOCK FORMAT
 00729E 9023 C050            00008 54381    8450.              STM   RA,RB,@TODTIM
1M1SERV   (M1SE00) (09:42) (22MAR04) ORVYL'S Mode 1 Compatibility Routines                                                  Page  376
0Current Usings:  (PZERO,R0) (SENSETD,R10) (@TOD-72,R12)
0Loc    Object Code    Addr1 Addr2  Stmt Lv Lineno    Source Statement           (Hibal 5, Asmedit 3.3)  HLASM R4.0  2004/03/22 09.42
+___    ______ ____    _____ _____  ____ __ ______    ______ _________
0                                  54383    8452.     *
                                   54384    8453.     *  THEN COMPUTE YEAR
                                   54385    8454.     *
 0072A2 1B22                       54386    8455.              CLEAR RA
 0072A4 1831                       54390    8456.              LR    RB,RS
 0072A6 5C20 A68E            078DC 54391    8457.              M     RA,=A(100)
 0072AA 5D20 A692            078E0 54392    8458.              D     RA,=A(36525)            DAYS/365.25 = YEARS
 0072AE 5A30 A696            078E4 54393    8459.              A     RB,=A(1900)             YEAR 19YY
 0072B2 4E30 C060            00000 54394    8460.              CVD   RB,TWCVD                 TO DECIMAL
 0072B6 5810 C064            00004 54395    8461.              L     RS,TWCVD+4              GET RESULT
 0072BA 8810 0004            00004 54396    8462.              SRL   RS,4                    REMOVE SIGN NIBBLE
 0072BE 4010 C058            00010 54397    8463.              STH   RS,@TODDAT              AND SET
                                   54398    8464.     *
                                   54399    8465.     *  NOW COMPUTE JULIAN DATE WITH LEAP YEAR FACTOR
                                   54400    8466.     *
 0072C2 1832                       54401    8467.              LR    RB,RA
 0072C4 1B22                       54402    8468.              CLEAR RA
 0072C6 5D20 A68E            078DC 54406    8469.              D     RA,=A(100)              DAYS IN THIS YEAR (REL ZERO)
 0072CA 5E30 A686            078D4 54407    8470.              INCR  RB                      FORM "DDD"
 0072CE 5930 A69A            078E8 54410    8471.              IF    (RB,GT,59),BEGIN
 0072D2 47D0 A09C            072EA 54422             +
 0072D6 9101 C059      00011       54427  1 8472.                IF    ((@TODDAT+1.X'01',Z),AND,(@TODDAT+1.X'12',NM)),EXIT
 0072DA 4770 A098            072E6 54442  1          +
 0072DE 9112 C059      00011       54456  1          +
 0072E2 47B0 A09C            072EA 54459  1          +
 0072E6 5E30 A686            078D4 54465  1 8473.                INCR  RB
 0072EA                            54468    8474.              END
                                   54472    8475.     *
                                   54473    8476.     *  NOW COMPUTE MONTH AND DATE
                                   54474    8477.     *
 0072EA 4110 A824            07A72 54475    8478.              LA    RS,DAYTAB               DAYS PER MONTH TABLE
 0072EE 41F0 000C            0000C 54476    8479.              LA    R15,12
 0072F2 1B22                       54477    8480.              CLEAR RA                      MONTH COUNTER
 0072F4                            54481    8481.              LOOP  BEGIN
 0072F4 5E20 A686            078D4 54487  1 8482.                INCR  RA                      BUMP MONTH
 0072F8 4930 1000            00000 54490  1 8483.                IF    ('CH  RB,@RS',LE),EXIT  FOUND THE MONTH
 0072FC 47C0 A0C2            07310 54500  1          +
 007300 4B30 1000            00000 54506  1 8484.                SH    RB,@RS                  TRY NEXT
 007304 4110 1002            00002 54507  1 8485.                LA    RS,@RS+2
 007308 06F0                       54508  1 8486.                DECR  R15
 00730A 12FF/4770 A0A6       072F4 54510    8487.              UNTIL (R15,Z),END
 007310 4E20 C060            00000 54532    8488.              CVD   RA,TWCVD                CONVERT MONTH
 007314 5810 C064            00004 54533    8489.              L     RS,TWCVD+4              GET RESULT
 007318 8810 0004            00004 54534    8490.              SRL   RS,4                    REMOVE SIGN NIBBLE
 00731C 4210 C05A            00012 54535    8491.              STC   RS,@TODDAT+2             AND SET
 007320 4E30 C060            00000 54536    8492.              CVD   RB,TWCVD                CONVERT DAY
 007324 5810 C064            00004 54537    8493.              L     RS,TWCVD+4              GET RESULT
 007328 8810 0004            00004 54538    8494.              SRL   RS,4                    REMOVE SIGN NIBBLE
 00732C 4210 C05B            00013 54539    8495.              STC   RS,@TODDAT+3             AND SET
 007330 981F C008            00008 54540    8496.              PEND
 DROP   @TOD-72,R12
 DROP   SENSETD,R10
 007334 9680 C000/0B0E 00000       54555             +
1M1SERV   (M1SE00) (09:42) (22MAR04) ORVYL'S Mode 1 Compatibility Routines                                                  Page  377
0Current Usings:  (PZERO,R0)
0Loc    Object Code    Addr1 Addr2  Stmt Lv Lineno    Source Statement           (Hibal 5, Asmedit 3.3)  HLASM R4.0  2004/03/22 09.42
+___    ______ ____    _____ _____  ____ __ ______    ______ _________
0                                  54562    8498.     *******************************************************************
                                   54563    8499.     *                                                                 *
                                   54564    8500.     *   SENSETD2 - Calculate time and date                            *
                                   54565    8501.     *                                                                 *
                                   54566    8502.     *                                                                 *
                                   54567    8503.     *     Input - @TODCLK                                             *
                                   54568    8504.     *                                                                 *
                                   54569    8505.     *                                                                 *
                                   54570    8506.     *    Output - @TODTIM  Time in .01 sec units since midnight       *
                                   54571    8507.     *             @TODDAT  Date in "00yydddf" packed decimal format   *
                                   54572    8508.     *                                                                 *
                                   54573    8509.     *                                                                 *
                                   54574    8510.     *******************************************************************
-
 00733A                            54576    8512.     SENSETD2 PROC  @TOD,TODWRK,SCOPE=LOCAL
 00733A E2C5D5E2C5E3C4F2           54583             +
 007342 0018/0010                  54584             +
 007346 900F D004/18AF       00004 54586             +
 USING  SENSETD2,R10
 00734C 50D0 C000/18CD       00000 54601             +
 007352 9680 C000      00000       54603             +
 USING  @TOD-72,R12
 AUSING (TODWRK,@TOD+24)
 007356 41D0 C070            00070 54622             +
 00735A 9823 C048            00000 54623    8513.              LM    RA,RB,@TODCLK           GET SUPPLIED CLOCK
 00735E 1222/4770 A03C       07382 54624    8514.              IF    ((RA,Z),AND,(RB,Z)),BEGIN
 007364 1233/4770 A03C       07382 54645             +
 00736A B205 C068      00008       54651  1 8515.                STCK  TWCLK                 GET CURRENT TIME
 00736E 9823 C068            00008 54652  1 8516.                LM    RA,RB,TWCLK
 007372 5E30 0224            00224 54653  1 8517.                ADL   RA,PZTZOFF            ADD TIME ZONE OFFSET
 007376 47C0 A038            0737E 54662  1          +
 00737A 5E20 A58E            078D4 54668  1          +
 00737E 5E20 0220            00220 54673  1          +
 007382                            54674    8518.              END   ,
                                   54678    8519.     *
                                   54679    8520.     *  FIRST COMPUTE TIME
                                   54680    8521.     *
 007382 8C20 0012            00012 54681    8522.              SRDL  RA,12+6                 .000001*64 OF A SEC
 007386 5D20 A592            078D8 54682    8523.              D     RA,=A(1000000/64*60*60*24)  ONE DAY
 00738A 4110 3001            00001 54683    8524.              LA    RS,@RB+1                NO. OF DAYS SINCE 1900
 00738E 1832                       54684    8525.              LR    RB,RA                   .000001*64 SEC SINCE MIDNIGHT
 007390 1B22                       54685    8526.              CLEAR RA
 007392 8D20 0006            00006 54689    8527.              SLDL  RA,6                    .000001 secs since midnight
 007396 5D20 A5A6            078EC 54690    8528.              D     RA,=A(10000)            Convert to .01 secs
 00739A 5030 C050            00008 54691    8529.              ST    RB,@TODTIM
1M1SERV   (M1SE00) (09:42) (22MAR04) ORVYL'S Mode 1 Compatibility Routines                                                  Page  378
0Current Usings:  (PZERO,R0) (SENSETD2,R10) (@TOD-72,R12)
0Loc    Object Code    Addr1 Addr2  Stmt Lv Lineno    Source Statement           (Hibal 5, Asmedit 3.3)  HLASM R4.0  2004/03/22 09.42
+___    ______ ____    _____ _____  ____ __ ______    ______ _________
0                                  54693    8531.     *
                                   54694    8532.     *  THEN COMPUTE YEAR
                                   54695    8533.     *
 00739E 1B22                       54696    8534.              CLEAR RA
 0073A0 1831                       54700    8535.              LR    RB,RS
 0073A2 5C20 A596            078DC 54701    8536.              M     RA,=A(100)
 0073A6 5D20 A59A            078E0 54702    8537.              D     RA,=A(36525)            DAYS/365.25 = YEARS
 0073AA 1813                       54703    8538.              LR    RS,RB                   YEAR
 0073AC 4C10 A5F8            0793E 54704    8539.              MH    RS,=H'1000'             Times 1000
                                   54705    8540.     *
                                   54706    8541.     *  NOW COMPUTE JULIAN DATE
                                   54707    8542.     *
 0073B0 1832                       54708    8543.              LR    RB,RA
 0073B2 1B22                       54709    8544.              CLEAR RA
 0073B4 5D20 A596            078DC 54713    8545.              D     RA,=A(100)              DAYS IN THIS YEAR (REL ZERO)
 0073B8 4111 3001            00001 54714    8546.              LA    RS,@RB+1(RS)            FORM "YYDDD"
 0073BC 4E10 C060            00000 54715    8547.              CVD   RS,TWCVD                CONVERT DAY TO DECIMAL
 0073C0 D203 C058 C064 00010 00004 54716    8548.              MVC   @TODDAT,TWCVD+4          AND SET
 0073C6 981F C008            00008 54717    8549.              PEND
 DROP   @TOD-72,R12
 DROP   SENSETD2,R10
 0073CA 9680 C000/0B0E 00000       54732             +
1M1SERV   (M1SE00) (09:42) (22MAR04) ORVYL'S Mode 1 Compatibility Routines                                                  Page  379
0Current Usings:  (PZERO,R0)
0Loc    Object Code    Addr1 Addr2  Stmt Lv Lineno    Source Statement           (Hibal 5, Asmedit 3.3)  HLASM R4.0  2004/03/22 09.42
+___    ______ ____    _____ _____  ____ __ ______    ______ _________
0                                  54739    8551.     *******************************************************************
                                   54740    8552.     *                                                                 *
                                   54741    8553.     *    M1TIME  - Mode 1 time/date routine for I/O SVCs              *
                                   54742    8554.     *                                                                 *
                                   54743    8555.     *                                                                 *
                                   54744    8556.     *     Input -                                                     *
                                   54745    8557.     *                                                                 *
                                   54746    8558.     *    Output -                                                     *
                                   54747    8559.     *                                                                 *
                                   54748    8560.     *                                                                 *
                                   54749    8561.     *******************************************************************
 0073D0                            54750    8562.     M1TIME   PROC  SCOPE=GLOBAL
 0073D0 D4F1E3C9D4C54040           54756             +
 0073D8 0000/0000                  54757             +
 0073DC 900F D004/18AF       00004 54759             +
 USING  M1TIME,R10
 0073E2 50D0 C000/18CD       00000 54774             +
 0073E8 9680 C000      00000       54776             +
 0073EC 41D0 C048            00048 54777             +
 USING  @TOD-72,R13                54778    8563.              PSET  @TOD
 0073F0 D713 D048 D048 00000 00000 54795             +
 0073F6 58F0 A514/0DEF       078F0 54796    8564.              ACALL SENSETD
 0073FC 9823 D050            00008 54803    8565.              LM    RA,RB,@TODTIM           TIME OF DAY
 007400 5D20 A518            078F4 54804    8566.              D     RA,=A(10000*4096)       TO .01 SEC UNITS
 007404 5920 A51C            078F8 54805    8567.              IF    (RA,GE,20480000),'INCR  RB'  ROUND
 007408 4750 A034            07410 54817             +
 00740C 5E30 A4F8            078D4 54825             +
 007410 1803                       54830    8568.              LR    R0,RB                   RETURN TIME OF DAY
 007412 5810 D058            00010 54831    8569.              L     RS,@TODDAT              GET DATE
 007416 5010 C008            00008 54832    8570.              ST    RS,@R12+8                AND RETURN
 00741A 981F C008            00008 54833    8571.              PEND
 DROP   M1TIME,R10
 00741E 9680 C000/0B0E 00000       54843             +
 DROP   @TOD-72,R13
1M1SERV   (M1SE00) (09:42) (22MAR04) ORVYL'S Mode 1 Compatibility Routines                                                  Page  380
0Current Usings:  (PZERO,R0)
0Loc    Object Code    Addr1 Addr2  Stmt Lv Lineno    Source Statement           (Hibal 5, Asmedit 3.3)  HLASM R4.0  2004/03/22 09.42
+___    ______ ____    _____ _____  ____ __ ______    ______ _________
0                                  54853    8573.     *******************************************************************
                                   54854    8574.     *                                                                 *
                                   54855    8575.     *    M1GOWAIT - Suspend this task for the specified number of     *
                                   54856    8576.     *               seconds                                           *
                                   54857    8577.     *                                                                 *
                                   54858    8578.     *     Input - R0 = number of 0.1 second intervals                 *
                                   54859    8579.     *                                                                 *
                                   54860    8580.     *    Output -                                                     *
                                   54861    8581.     *                                                                 *
                                   54862    8582.     *                                                                 *
                                   54863    8583.     *******************************************************************
 007424                            54864    8584.     M1GOWAIT PROC  SCOPE=GLOBAL
 007424 D4F1C7D6E6C1C9E3           54870             +
 00742C 0000/0000                  54871             +
 007430 900F D004/18AF       00004 54873             +
 USING  M1GOWAIT,R10
 007436 50D0 C000/18CD       00000 54888             +
 00743C 9680 C000      00000       54890             +
 007440 41D0 C048            00048 54891             +
 USING  SBWAIT,R7                  54892    8585.              WITH  (SBWAIT,RY)
 USING  SLDUM,R8                   54905    8586.              WITH  (SLDUM,RM)
 007444 5840 0208            00208 54918    8587.              L     RJ,PZCURASB         CURRENT ASB
 007448 5840 402C            0002C 54919    8588.              WITH  (ASB,RJ),'L RJ,ASBM1SCP' SCP POINTER
 USING  ASB,R4
 DROP   ASB,R4
 USING  SCP,R4                     54943    8589.              WITH  (SCP,RJ)
000744C 1200/4720 A026       07456 54957    8591.              IF    (R0,NP),'EXIT M1GOWAIT' Hope we're not late!
 007452 47F0 A1EA            0761A 54974             +
 007456 1890                       54979    8592.              LR    RN,R0               Save number of seconds
 007458 4100 0004            00004 54980    8593.              LA    R0,4                Can't do multiple times
 00745C 1244/4780 A040       07470 54981    8594.              IF    ((RJ,NZ),AND,(SCBWAITB,NZ)),'EXIT M1GOWAIT'
 007462 D603 4290 4290 00290 00290 55004             +
 007468 4780 A040            07470 55005             +
 00746C 47F0 A1EA            0761A 55013             +
0007470 5810 0200            00200 55019    8596.              L     RS,MATPTR           Get a wait block
 007474 5880 1020            00020 55020    8597.              WITH  (MAT,RS),'L RM,MATSBWB'
 USING  MAT,R1
 DROP   MAT,R1
                                   55044    8598.              SAVAIL HEAD=SLDUM,LEN=L'SBWAIT Get a wait block
 007478 9801 8000            00000 55047    02-08682 +         LM    RVR,RS,SLDUM        Get fwd and sequence number
 00747C                            55052    05-LABEL +$$$1078S DS    0H
 00747C 1200                       55062  1 05-$REL  +           LTR   RVR,RVR
 00747E 4780 A064            07494 55065  1 04-$BC   +           BC    8,$$$1078F
 007482                            55068  1 05-LABEL +$$$1079F   DS    0H
 007482 18E0                       55071  1 02-08685 +           LR    R14,RVR             Point to first item
 007484 58EE 0000            00000 55072  1 02-08686 +           L     R14,0(R14)          Get fwd pointer
 007488 41F1 0001            00001 55073  1 02-08687 +           LA    R15,1(RS)           Increment sequence
 00748C BB0E 8000            00000 55074    02-08688 +         CDS   RVR,R14,SLDUM       Remove item from list
 007490 4770 A04C            0747C 55088    06-$BC   +         BC    7,$$$1078S
 007494 1200/4770 A0BA       074EA 55091    07-LABEL +$$$1078F DS    0H
 USING  @VMGET-72,R13              55110  1 02-VMGET +*,                                     Storage from pool 59
 00749A D70A D048 D048 00000 00000 55133  1          +
1M1SERV   (M1SE00) (09:42) (22MAR04) ORVYL'S Mode 1 Compatibility Routines                                                  Page  381
0Current Usings:  (PZERO,R0) (SCP,R4) (SBWAIT,R7) (SLDUM,R8) (M1GOWAIT,R10) (@VMGET-72,R13)
0Loc    Object Code    Addr1 Addr2  Stmt Lv Lineno    Source Statement           (Hibal 5, Asmedit 3.3)  HLASM R4.0  2004/03/22 09.42
+___    ______ ____    _____ _____  ____ __ ______    ______ _________
00074A0 4100 0020            00020 55145  1          +
 0074A4 5000 D048            00000 55150  1          +
 0074A8 D201 D050 A510 00008 07940 55151  1          +
 0074AE 58F0 A47C/0DEF       078AC 55154  1          +
 0074B4 1200/4770 A0BA       074EA 55163  1          +
 0074BA AC04 021B      0021B       55173  2          +
 0074BE 9680 021A      0021A       55179  2          +
 0074C2 50F0 021C            0021C 55180  2          +
 0074C6 58F0 0210            00210 55181  2          +
 0074CA 89F0 0010            00010 55182  2          +
 0074CE 88F0 0010            00010 55183  2          +
 0074D2 41F0 F000            00000 55184  2          +
 0074D6 AEFF 0006            00006 55185  2          +
 0074DA D5D66DD4C5D46DE2           55186  1          +
 0074EA 1870                       55195    8599.              LR    RY,RVR              Set pointer
 0074EC                            55196    8600.              CLEAR SBWAIT
 0074EC D71F 7000 7000 00000 00000 55202             +
 0074F2 D203 7008 A4CC 00008 078FC 55203    8601.              MVC   SBWBID,=CL4'FIRE'
 0074F8 D203 700C 0208 0000C 00208 55204    8602.              MVC   SBWASB,PZCURASB
00074FE 9200 D048      00000       55206    8604.              PSET  @XITNEW             Get exit request ID
 DROP   @VMGET-72,R13
 USING  @XITNEW-72,R13
 007502 58F0 A4D0/0DEF       07900 55227    8605.              VCALL XITNEW
 007508 1860                       55231    8606.              LR    RX,RVR
0DROP   @XITNEW-72,R13             55233    8608.              PSET  @EXRADD             Define routine for timer fire
 USING  @EXRADD-72,R13
 00750A D714 D048 D048 00000 00000 55253             +
 AUSING (XITMSKD,@EXRTYPE)         55254    8609.              WITH  (XITMSKD,@EXRTYPE)
 007510 9620 D048      00000       55261    8610.              SET   XITMRTC             Set type of real-time-timer
 007514 D203 D050 A480 00008 078B0 55267    8611.              MVC   @EXRPSW(4),=X'070C0000' PSW
 00751A D203 D054 A4D4 0000C 07904 55268    8612.              MVC   @EXRPSW+4(4),=A(M1GOFIRE+X'80000000')
 007520 5070 D058            00010 55269    8613.              ST    RY,@EXRPARM         Wait buffer is the parameter
 007524 9640 D05C      00014       55270    8614.              SET   @EXRAFS
 007528 58F0 A4D8/0DEF       07908 55276    8615.              VCALL EXRADD
 00752E 1820                       55280    8616.              LR    RA,RVR              Save exit routine ID
0DROP   @EXRADD-72,R13             55282    8618.              PSET  @XITMASK            Enable exit type
 USING  @XITMASK-72,R13
 007530 D704 D048 D048 00000 00000 55302             +
 AUSING (XITMSKD,@XITMSK)          55303    8619.              WITH  (XITMSKD,@XITMSK)
 007536 9620 D048      00000       55310    8620.              SET   XITMRTC
 00753A 58F0 A4DC/0DEF       0790C 55316    8621.              VCALL XITMASK
 007540 1830                       55320    8622.              LR    RB,RVR              Save prev exit mask
0007542 9801 A428            07858 55322    8624.              LM    R0,R1,=FL8S12E5'1'  Get 0.1 second
 007546 1C09                       55323    8625.              MR    R0,RN               Calc number of seconds TOD format
0DROP   @XITMASK-72,R13            55325    8627.              PSET  @RTSET              Set real time timer
 USING  @RTSET-72,R13
 007548 D717 D048 D048 00000 00000 55345             +
 00754E 9001 D048            00000 55346    8628.              STM   R0,R1,@RTSCLK       Set time to wait
 007552 9680 D050      00008       55347    8629.              SET   @RTSFINT            Indicate interval timer
1M1SERV   (M1SE00) (09:42) (22MAR04) ORVYL'S Mode 1 Compatibility Routines                                                  Page  382
0Current Usings:  (PZERO,R0) (SCP,R4) (SBWAIT,R7) (SLDUM,R8) (M1GOWAIT,R10) (@RTSET-72,R13)
0Loc    Object Code    Addr1 Addr2  Stmt Lv Lineno    Source Statement           (Hibal 5, Asmedit 3.3)  HLASM R4.0  2004/03/22 09.42
+___    ______ ____    _____ _____  ____ __ ______    ______ _________
0007556 5060 D054            0000C 55353    8630.              PMOV  @RTSXIT,(RX)        Exit ID
 00755A 5070 D058            00010 55363    8631.              PMOV  @RTSPARM,LA:SBWAIT,LEFTADJ=YES Wake this one
 00755E 58F0 A4E0/0DEF       07910 55374    8632.              VCALL RTSET
 007564 1850                       55378    8633.              LR    RK,RVR              Save ID
 007566 1244/4780 A140       07570 55379    8634.              IF    (RJ,NZ),'ST RY,SCBWAITB' Save wait block
 00756C 5070 4290            00290 55394             +
0DROP   @RTSET-72,R13              55400    8636.              AWAIT SBWECB,LEN=LONG     Wait as long as necessary
 USING  @AWAIT-72,R13
 007570 D704 D048 D048 00000 00000 55421             +
 007576 4100 7010            00010 55433             +
 00757A 5000 D048            00000 55438             +
 00757E 9680 D04C      00004       55444             +
 007582 58F0 A4E4/0DEF       07914 55447             +
 007588 1244/4780 A164       07594 55449    8637.              IF    (RJ,NZ),'CLEAR SCBWAITB'
 00758E D703 4290 4290 00290 00290 55470             +
 DROP   @AWAIT-72,R13              55475    8638.              PSET  @SYSRDEL            Release system routine ID
 USING  @SYSRDEL-72,R13
 007594 D703 D048 D048 00000 00000 55495             +
 00759A 5000 D048            00000 55496    8639.              PMOV  @SYSRDID,(RVR)
 00759E 58F0 A4E8/0DEF       07918 55506    8640.              VCALL SYSRDEL
00075A4                            55511    8642.              IF    (SBWORD1,NZ),BEGIN  Posted early by logoff
 0075A4 D603 7018 7018 00018 00018 55521             +
 0075AA 4780 A18E            075BE 55522             +
 DROP   @SYSRDEL-72,R13            55527  1 8643.                PSET  @RTCNCK
 USING  @RTCNCK-72,R13
 0075AE D71F D048 D048 00000 00000 55547  1          +
 0075B4 5050 D048            00000 55548  1 8644.                PMOV  @RTCID,(RK)             CLOCK ID
 0075B8 58F0 A4EC/0DEF       0791C 55558  1 8645.                VCALL RTCAN               Cancel timer
 0075BE                            55562    8646.              END   ,
00075BE                            55567    8648.              CLEAR SBWAIT
 0075BE D71F 7000 7000 00000 00000 55573             +
 0075C4 D203 7008 A4F0 00008 07920 55574    8649.              MVC   SBWBID,=C'sBWB'
                                   55575    8650.              SPUSH HEAD=SLDUM,ITEM=SBWAIT Put away the wait block
 0075CA 98EF 8000            00000 55577    01-08654 +         LM    R14,R15,SLDUM       Get fwd ptr and sequence number
 0075CE 4100 7000            00000 55578    01-08655 +         LA    RVR,SBWAIT          Point to new item
 0075D2                            55583    04-LABEL +$$$1087S DS    0H
 0075D2 411F 0001            00001 55585  1 01-08657 +           LA    RS,1(R15)           Increment sequence
 0075D6 D203 7000 8000 00000 00000 55586  1 01-08658 +           MVC   SBWAIT(L'SLDUMFP),SLDUMFP   Set item fwd ptr
 0075DC BBE0 8000            00000 55587    01-08659 +         CDS   R14,RVR,SLDUM       Add item to list
 0075E0 4770 A1A2            075D2 55601    05-$BC   +         BC    7,$$$1087S
 0075E4                            55604    06-LABEL +$$$1087F DS    0H
0DROP   @RTCNCK-72,R13             55609    8652.              PSET  @XITDEL             Delete exit request ID
 USING  @XITDEL-72,R13
 0075E4 D703 D048 D048 00000 00000 55629             +
 0075EA 5060 D048            00000 55630    8653.              PMOV  @XITDID,(RX)
 0075EE 58F0 A4F4/0DEF       07924 55640    8654.              VCALL XITDEL
 DROP   @XITDEL-72,R13             55644    8655.              PSET  @XITMASK            Reinstate previous exit levels
 USING  @XITMASK-72,R13
 0075F4 D704 D048 D048 00000 00000 55664             +
 0075FA 5030 D048            00000 55665    8656.              PMOV  @XITMSK,(RB)
1M1SERV   (M1SE00) (09:42) (22MAR04) ORVYL'S Mode 1 Compatibility Routines                                                  Page  383
0Current Usings:  (PZERO,R0) (SCP,R4) (SBWAIT,R7) (SLDUM,R8) (M1GOWAIT,R10) (@XITMASK-72,R13)
0Loc    Object Code    Addr1 Addr2  Stmt Lv Lineno    Source Statement           (Hibal 5, Asmedit 3.3)  HLASM R4.0  2004/03/22 09.42
+___    ______ ____    _____ _____  ____ __ ______    ______ _________
00075FE 9202 D04C      00004       55675    8657.              SET   @XITMSS             Set this mode
 007602 58F0 A4DC/0DEF       0790C 55681    8658.              VCALL XITMASK
 DROP   @XITMASK-72,R13            55685    8659.              PSET  @EXRDEL             Free exit routine definition
 USING  @EXRDEL-72,R13
 007608 D703 D048 D048 00000 00000 55705             +
 00760E 5020 D048            00000 55706    8660.              PMOV  @EXRDID,(RA)
 007612 58F0 A4F8/0DEF       07928 55716    8661.              VCALL EXRDEL
0007618 1B00                       55721    8663.              CLEAR RVR
 00761A 981F C008            00008 55725    8664.              PEND  ,
 DROP   SCP,R4
 DROP   SLDUM,R8
 DROP   SBWAIT,R7
 DROP   M1GOWAIT,R10
 00761E 9680 C000/0B0E 00000       55750             +
 DROP   @EXRDEL-72,R13
1M1SERV   (M1SE00) (09:42) (22MAR04) ORVYL'S Mode 1 Compatibility Routines                                                  Page  384
0Current Usings:  (PZERO,R0)
0Loc    Object Code    Addr1 Addr2  Stmt Lv Lineno    Source Statement           (Hibal 5, Asmedit 3.3)  HLASM R4.0  2004/03/22 09.42
+___    ______ ____    _____ _____  ____ __ ______    ______ _________
0                                  55760    8666.     ********************************************************************
                                   55761    8667.     *  Exit routine for timer                                          *
                                   55762    8668.     *                                                                  *
                                   55763    8669.     *   Input - 1st parm from when the timer was set = wait block      *
                                   55764    8670.     *                                                                  *
                                   55765    8671.     *  Output - none                                                   *
                                   55766    8672.     *                                                                  *
                                   55767    8673.     ********************************************************************
 007624                            55768    8674.     M1GOFIRE PROC  @XITDATA
 007624 D4F1C7D6C6C9D9C5           55775             +
 00762C 0008/0000                  55776             +
 007630 900F D004/18AF       00004 55778             +
 USING  M1GOFIRE,R10
 007636 50D0 C000/18CD       00000 55793             +
 00763C 9680 C000      00000       55795             +
 USING  @XITDATA-72,R12
 007640 41D0 C050            00050 55809             +
 007644 5880 C048            00000 55810    8675.              L     RM,@XITDSA
 USING  XITSAREA,R8                55811    8676.              WITH  (XITSAREA,RM)
 AUSING (RTEXIT,XITSXPRM)          55824    8677.              WITH  (RTEXIT,XITSXPRM)
 USING  SBWAIT,R9                  55831    8678.              WITH  (SBWAIT,RN)
 007648 5890 8014            00008 55844    8679.              L     RN,RTXPARM
000764C D503 9008 A2CC 00008 078FC 55846    8681.              CLC   SBWBID,=CL4'FIRE'
 007652 4780 A056            07686 55847    8682.              IF    NE,'ABORT NOSMOKE'
 007656 AC04 021B      0021B       55862  1          +
 00765A 9680 021A      0021A       55868  1          +
 00765E 50F0 021C            0021C 55869  1          +
 007662 58F0 0210            00210 55870  1          +
 007666 89F0 0010            00010 55871  1          +
 00766A 88F0 0010            00010 55872  1          +
 00766E 41F0 F000            00000 55873  1          +
 007672 AEFF 0006            00006 55874  1          +
 007676 D5D6E2D4D6D2C540           55875             +
 USING  @SYSRNEW-72,R13            55880    8683.              PSET  @SYSRNEW            Get system routine ID
 007686 D703 D048 D048 00000 00000 55897             +
 00768C 58F0 A2FC/0DEF       0792C 55898    8684.              VCALL SYSRNEW
 007692 18F0                       55902    8685.              LR    R15,RVR
 DROP   @SYSRNEW-72,R13            55903    8686.              SIGNL SBWECB,(R15),SBWASB,(R15) Been waiting long?
 USING  @SIGNAL-72,R13
 007694 D713 D048 D048 00000 00000 55924             +
 00769A 4100 9010            00010 55936             +
 00769E 5000 D050            00008 55941             +
 0076A2 50F0 D04C            00004 55951             +
 0076A6 D203 D054 900C 0000C 0000C 55956             +
 0076AC 50F0 D058            00010 55966             +
 0076B0 58F0 A300/0DEF       07930 55969             +
00076B6 9200 D048      00000       55972    8688.              PSET  @EXRDONE            Set this exit as done
 DROP   @SIGNAL-72,R13
 USING  @EXRDONE-72,R13
 0076BA 9200 D048      00000       55993    8689.              SET   @EXRDFIN
 0076BE 58F0 A304/0DEF       07934 55999    8690.              VCALL EXRDONE
1M1SERV   (M1SE00) (09:42) (22MAR04) ORVYL'S Mode 1 Compatibility Routines                                                  Page  385
0Current Usings:  (PZERO,R0)
0Loc    Object Code    Addr1 Addr2  Stmt Lv Lineno    Source Statement           (Hibal 5, Asmedit 3.3)  HLASM R4.0  2004/03/22 09.42
+___    ______ ____    _____ _____  ____ __ ______    ______ _________
0DROP   SBWAIT,R9                  56004    8692.              PEND  CODE=NO
 DROP   XITSAREA,R8
 DROP   @XITDATA-72,R12
 DROP   M1GOFIRE,R10
 DROP   @EXRDONE-72,R13
00076C4                            56036    8694.     M1CANWAI PROC  SCOPE=GLOBAL            Cancel waiting
 0076C4 D4F1C3C1D5E6C1C9           56042             +
 0076CC 0000/0000                  56043             +
 0076D0 900F D004/18AF       00004 56045             +
 USING  M1CANWAI,R10
 0076D6 50D0 C000/18CD       00000 56060             +
 0076DC 9680 C000      00000       56062             +
 0076E0 41D0 C048            00048 56063             +
 0076E4 5870 0208            00208 56064    8695.              L     RY,PZCURASB             CURRENT ASB
 0076E8 5870 702C            0002C 56065    8696.              WITH  (ASB,RY),'L RY,ASBM1SCP' SCP POINTER
 USING  ASB,R7
 DROP   ASB,R7
 USING  SCP,R7                     56089    8697.              WITH  (SCP,RY)
 0076EC 5890 7290/1299       00290 56102    8698.              IF    ('LT RN,SCBWAITB',NZ),BEGIN
 0076F2 4780 A05A            0772A 56113             +
 USING  SBWAIT,R9                  56118  1 8699.                WITH  (SBWAIT,RN)
 0076F6 92FF 9018      00018       56131  1 8700.                MVI   SBWORD1,255             Indicate early
 USING  @SYSRNEW-72,R13            56132  1 8701.                PSET  @SYSRNEW                Get system routine ID
 0076FA D703 D048 D048 00000 00000 56149  1          +
 007700 58F0 A25C/0DEF       0792C 56150  1 8702.                VCALL SYSRNEW
 007706 18F0                       56154  1 8703.                LR    R15,RVR
 DROP   @SYSRNEW-72,R13            56155  1 8704.                SIGNL SBWECB,(R15),SBWASB,(R15) Been waiting long?
 USING  @SIGNAL-72,R13
 007708 D713 D048 D048 00000 00000 56176  1          +
 00770E 4100 9010            00010 56188  1          +
 007712 5000 D050            00008 56193  1          +
 007716 50F0 D04C            00004 56203  1          +
 00771A D203 D054 900C 0000C 0000C 56208  1          +
 007720 50F0 D058            00010 56218  1          +
 007724 58F0 A260/0DEF       07930 56221  1          +
 DROP   SBWAIT,R9                  56223    8705.              END   ,
 00772A 981F C008            00008 56232    8706.              PEND  ,
 DROP   SCP,R7
 DROP   M1CANWAI,R10
 00772E 9680 C000/0B0E 00000       56247             +
 DROP   @SIGNAL-72,R13
1M1SERV   (M1SE00) (09:42) (22MAR04) ORVYL'S Mode 1 Compatibility Routines                                                  Page  386
0Current Usings:  (PZERO,R0)
0Loc    Object Code    Addr1 Addr2  Stmt Lv Lineno    Source Statement           (Hibal 5, Asmedit 3.3)  HLASM R4.0  2004/03/22 09.42
+___    ______ ____    _____ _____  ____ __ ______    ______ _________
0                                  56257    8708.     *******************************************************************
                                   56258    8709.     *                                                                 *
                                   56259    8710.     *    M1GOSTAT - Mode 1 service to set ORVYL ready in SCIPCVT      *
                                   56260    8711.     *                                                                 *
                                   56261    8712.     *                                                                 *
                                   56262    8713.     *     Input - R0 = 0  Mark ORVYL ready                            *
                                   56263    8714.     *             R0 = 4  Mark ORVYL unavailable                      *
                                   56264    8715.     *                                                                 *
                                   56265    8716.     *    Output -                                                     *
                                   56266    8717.     *                                                                 *
                                   56267    8718.     *                                                                 *
                                   56268    8719.     *******************************************************************
 007734                            56269    8720.     M1GOSTAT PROC  SCOPE=GLOBAL
 007734 D4F1C7D6E2E3C1E3           56275             +
 00773C 0000/0000                  56276             +
 007740 900F D004/18AF       00004 56278             +
 USING  M1GOSTAT,R10
 007746 50D0 C000/18CD       00000 56293             +
 00774C 9680 C000      00000       56295             +
 007750 41D0 C048            00048 56296             +
                                   56297    8721.     *
                                   56298    8722.     *  GET POINTER TO CT
                                   56299    8723.     *
 007754 5820 0200            00200 56300    8724.              L     RA,MATPTR                MAT POINTER
 USING  MAT,R2                     56301    8725.              WITH  (MAT,RA)
 007758                            56314    8726.              IF    (MATSNAME,EQ,'ORVYL'),BEGIN  Only production...
 007758 D504 A208 20D4 07948 000D4 56325             +
 00775E 4770 A086            077C6 56326             +
 007762 58E0 2010            00010 56331  1 8727.                L     R14,MATM1CT              CT POINTER
 007766 58E0 E04C            0004C 56332  1 8728.                WITH  (M1CT,R14),'L  R14,CTSCVT'   "SCIP" CVT POINTER
 USING  M1CT,R14
 DROP   M1CT,R14
 00776A 12EE/4780 A086       077C6 56356  1 8729.                IF    (R14,Z),EXIT             NONE THERE
 007770 41E0 E004            00004 56373  1 8730.                WITH  (SCVT,R14),'LA  R14,SCVHSPFL'   FLAG BYTE ADDRESS
 USING  SCVT,R14
 DROP   SCVT,R14
 007774 4130 0001            00001 56397  1 8731.                LA    RB,1                    NUMBER OF BYTES TO MODIFY
 007778 1200/4770 A05E       0779E 56398  1 8732.                IF    (RVR,Z),BEGIN           ORVYL UP AND READY
 00777E 4120 A20D            0794D 56412  2 8733.                  LA    RA,=AL1(HSPFORV)        ORVYL (FILES) AVAILABLE
                                   56413  2 8734.   C              IF    ((MATSNAME,EQ,'ORVYLRLG'),OR,(MATSNAME,EQ,'ORVYLB')),
 007782                                   2 8735.                        'LA  RA,=AL1(HSPFORV+HSPFORVR)'
 007782 D507 A120 20D4 07860 000D4 56426  2          +
 007788 4780 A056            07796 56429  2          +
 00778C D505 A202 20D4 07942 000D4 56440  2          +
 007792 4770 A05A            0779A 56441  2          +
 007796 4120 A20E            0794E 56447  2          +
 00779A 41F0 0100            00100 56452  2 8736.                  LA    R15,1*256               "OR" OPERATION
 00779E                            56453  1 8737.                END   ,
 00779E A062           0779E 0777C 56457  1 8738.                ELSE  BEGIN
 00779E 47F0 A082            077C2 56462  1          +
 0077A2 4120 A20F            0794F 56468  2 8739.                  LA    RA,=AL1(255-HSPFORV)    ORVYL (FILES) UNAVAILABLE
                                   56469  2 8740.   C              IF    ((MATSNAME,EQ,'ORVYLRLG'),OR,(MATSNAME,EQ,'ORVYLB')),
 0077A6                                   2 8741.                        'LA  RA,=AL1(255-(HSPFORV+HSPFORVR))'
 0077A6 D507 A120 20D4 07860 000D4 56482  2          +
1M1SERV   (M1SE00) (09:42) (22MAR04) ORVYL'S Mode 1 Compatibility Routines                                                  Page  387
0Current Usings:  (PZERO,R0) (MAT,R2) (M1GOSTAT,R10)
0Loc    Object Code    Addr1 Addr2  Stmt Lv Lineno    Source Statement           (Hibal 5, Asmedit 3.3)  HLASM R4.0  2004/03/22 09.42
+___    ______ ____    _____ _____  ____ __ ______    ______ _________
00077AC 4780 A07A            077BA 56485  2          +
 0077B0 D505 A202 20D4 07942 000D4 56496  2          +
 0077B6 4770 A07E            077BE 56497  2          +
 0077BA 4120 A210            07950 56503  2          +
 0077BE 41F0 0200            00200 56508  2 8742.                  LA    R15,2*256               "AND" OPERATION
 0077C2                            56509  1 8743.                END   ,
 0077C2 832E000B                   56513  1 8744.                SYSCTL RA,R14,TYPE=MVSMWR     SET THE FLAGS
 0077C6                            56516    8745.              END   ,
 0077C6 1B00                       56520    8746.              CLEAR RVR                     RETURN CODE
 0077C8 981F C008            00008 56524    8747.              PEND
 DROP   MAT,R2
 DROP   M1GOSTAT,R10
 0077CC 9680 C000/0B0E 00000       56539             +
1M1SERV   (M1SE00) (09:42) (22MAR04) ORVYL'S Mode 1 Compatibility Routines                                                  Page  388
0Current Usings:  (PZERO,R0)
0Loc    Object Code    Addr1 Addr2  Stmt Lv Lineno    Source Statement           (Hibal 5, Asmedit 3.3)  HLASM R4.0  2004/03/22 09.42
+___    ______ ____    _____ _____  ____ __ ______    ______ _________
0                                  56546    8749.     *******************************************************************
                                   56547    8750.     *                                                                 *
                                   56548    8751.     *    VWTO  - Mode 1 WTO routine for I/O SVCs                      *
                                   56549    8752.     *                                                                 *
                                   56550    8753.     *                                                                 *
                                   56551    8754.     *     Input -                                                     *
                                   56552    8755.     *                                                                 *
                                   56553    8756.     *    Output -                                                     *
                                   56554    8757.     *                                                                 *
                                   56555    8758.     *                                                                 *
                                   56556    8759.     *                                                                 *
                                   56557    8760.     *                                                                 *
                                   56558    8761.     *                                                                 *
                                   56559    8762.     *                                                                 *
                                   56560    8763.     *******************************************************************
-
                                   56562    8765.              ENTRY VWTO
 0077D2 18E9                       56563    8766.     VWTO     LR    RAR,R9
 0077D4 0DF0                       56564    8767.              BASE  EPAR
 USING  *,R15
 0077D6 41F0 F012            077E8 56578    8768.              LA    EPAR,M1GOVWTO           SET ENTRY REGISTER
 0077DA 07FF                       56579    8769.              BR    EPAR                    AND GO
 0077DC                            56580    8770.     M1GOVWTO PROC  SCOPE=LOCAL,BCH=NO
 0077DC D4F1C7D6E5E6E3D6           56587             +
 0077E4 0000/0000                  56588             +
 0077E8 900F D004/18AF       00004 56590             +
 USING  M1GOVWTO,R10
 0077EE 18CD/9680 C000 00000       56605             +
 0077F4 41D0 C048            00048 56607             +
 0077F8 981F C008            00008 56608    8771.              PEND
 DROP   M1GOVWTO,R10
 0077FC 9680 C000/0B0E 00000       56618             +
1M1SERV   (M1SE00) (09:42) (22MAR04) ORVYL'S Mode 1 Compatibility Routines                                                  Page  389
0Current Usings:  (PZERO,R0) (*,R15)
0Loc    Object Code    Addr1 Addr2  Stmt Lv Lineno    Source Statement           (Hibal 5, Asmedit 3.3)  HLASM R4.0  2004/03/22 09.42
+___    ______ ____    _____ _____  ____ __ ______    ______ _________
0                                  56625    8773.     *******************************************************************
                                   56626    8774.     *                                                                 *
                                   56627    8775.     *    VENQ - Mode 1 MVS ENQUEUE/DEQUEUE routine                    *
                                   56628    8776.     *                                                                 *
                                   56629    8777.     *                                                                 *
                                   56630    8778.     *     Input -                                                     *
                                   56631    8779.     *                                                                 *
                                   56632    8780.     *    Output -                                                     *
                                   56633    8781.     *                                                                 *
                                   56634    8782.     *                                                                 *
                                   56635    8783.     *                                                                 *
                                   56636    8784.     *                                                                 *
                                   56637    8785.     *                                                                 *
                                   56638    8786.     *                                                                 *
                                   56639    8787.     *******************************************************************
-
                                   56641    8789.              ENTRY VENQ
 007802 18E9                       56642    8790.     VENQ     LR    RAR,R9
 007804 0DF0                       56643    8791.              BASE  EPAR
 DROP   *,R15
 USING  *,R15
 007806 41F0 F012            07818 56660    8792.              LA    EPAR,M1GOVENQ           SET ENTRY REGISTER
 00780A 07FF                       56661    8793.              BR    EPAR                    AND GO
 00780C                            56662    8794.     M1GOVENQ PROC  SCOPE=LOCAL,BCH=NO
 00780C D4F1C7D6E5C5D5D8           56669             +
 007814 0000/0000                  56670             +
 007818 900F D004/18AF       00004 56672             +
 USING  M1GOVENQ,R10
 00781E 18CD/9680 C000 00000       56687             +
 007824 41D0 C048            00048 56689             +
 007828 981F C008            00008 56690    8795.              PEND
 DROP   M1GOVENQ,R10
 00782C 9680 C000/0B0E 00000       56700             +
1M1SERV   (M1SE00) (09:42) (22MAR04) ORVYL'S Mode 1 Compatibility Routines                                                  Page  390
0Current Usings:  (PZERO,R0) (*,R15)
0Loc    Object Code    Addr1 Addr2  Stmt Lv Lineno    Source Statement           (Hibal 5, Asmedit 3.3)  HLASM R4.0  2004/03/22 09.42
+___    ______ ____    _____ _____  ____ __ ______    ______ _________
0007832 0000/00000006              56707    8797.              XTRCDATA
 007838 0000187C                   56710             +
 00783C 00001890                   56711             +
 007840 000018A4                   56712             +
 007844 00004014                   56713             +
 007848 00004A14                   56714             +
 00784C 00005898                   56715             +
 007850                            56716    8798.              LTORG
 007850 C5D5D861C4C5D840           56718                             =CL8'ENQ/DEQ'
 007858 00000000186A0000           56719                             =FL8S12E5'1'
 007860 D6D9E5E8D3D9D3C7           56720                             =C'ORVYLRLG'
 007868 00000028                   56721                             =A(L'M1EQNAME-4)
 00786C 00FFFFFF                   56722                             =X'00FFFFFF'
 007870 00000000                   56723                             =V(PAGTPROT)
 007874 00000002                   56724                             =A(2)
 007878 C5D5D84B40404040           56725                             =CL44'ENQ.'
 0078A4 00000000                   56726                             =V(ENQUEUE)
 0078A8 00000000                   56727                             =V(DEQUEUE)
 0078AC 00000000                   56728                             =V(VMGET)
 0078B0 070C0000                   56729                             =X'070C0000'
 0078B4 80007106                   56730                             =A(M1ENQTSK+X'80000000')
 0078B8 00000000                   56731                             =V(TCREATE)
 0078BC 00000000                   56732                             =V(ENQHALT)
 0078C0 00000000                   56733                             =V(REQUEUE)
 0078C4 80000000                   56734                             =X'80000000'
 0078C8 00000000                   56735                             =V(XITDO)
 0078CC 00000000                   56736                             =V(VMFREE)
 0078D0 00000000                   56737                             =V(TEXIT)
 0078D4 00000001                   56738                             =A(1)
 0078D8 50775D80                   56739                             =A(1000000/64*60*60*24)
 0078DC 00000064                   56740                             =A(100)
 0078E0 00008EAD                   56741                             =A(36525)
 0078E4 0000076C                   56742                             =A(1900)
 0078E8 0000003B                   56743                             =A(59)
 0078EC 00002710                   56744                             =A(10000)
 0078F0 0000724E                   56745                             =A(SENSETD)
 0078F4 02710000                   56746                             =A(10000*4096)
 0078F8 01388000                   56747                             =A(20480000)
 0078FC C6C9D9C5                   56748                             =CL4'FIRE'
 007900 00000000                   56749                             =V(XITNEW)
 007904 80007630                   56750                             =A(M1GOFIRE+X'80000000')
 007908 00000000                   56751                             =V(EXRADD)
 00790C 00000000                   56752                             =V(XITMASK)
 007910 00000000                   56753                             =V(RTSET)
 007914 00000000                   56754                             =V(AWAIT)
 007918 00000000                   56755                             =V(SYSRDEL)
 00791C 00000000                   56756                             =V(RTCAN)
 007920 A2C2E6C2                   56757                             =C'sBWB'
 007924 00000000                   56758                             =V(XITDEL)
 007928 00000000                   56759                             =V(EXRDEL)
 00792C 00000000                   56760                             =V(SYSRNEW)
 007930 00000000                   56761                             =V(SIGNAL)
 007934 00000000                   56762                             =V(EXRDONE)
 007938 0038                       56763                             =Y(L'IDT)
1M1SERV   (M1SE00) (09:42) (22MAR04) ORVYL'S Mode 1 Compatibility Routines                                                  Page  391
0Current Usings:  (PZERO,R0) (*,R15)
0Loc    Object Code    Addr1 Addr2  Stmt Lv Lineno    Source Statement           (Hibal 5, Asmedit 3.3)  HLASM R4.0  2004/03/22 09.42
+___    ______ ____    _____ _____  ____ __ ______    ______ _________
000793A FFF8                       56764                             =Y(-8)
 00793C 1B00                       56765                             =Y(27*256+0)
 00793E 03E8                       56766                             =H'1000'
 007940 3B00                       56767                             =Y(59*256+0)
 007942 D6D9E5E8D3C2               56768                             =C'ORVYLB'
 007948 D6D9E5E8D3                 56769                             =C'ORVYL'
 00794D 20                         56770                             =AL1(HSPFORV)
 00794E 30                         56771                             =AL1(HSPFORV+HSPFORVR)
 00794F DF                         56772                             =AL1(255-HSPFORV)
 007950 CF             07A8A 07A90 56773                             =AL1(255-(HSPFORV+HSPFORVR))
 007A90                07A90 07A90 56777    8799.              END   .

1M1SERV   (M1SE00) (09:42) (22MAR04) Ordinary Symbol and Literal Cross Reference                                            Page  392
-Symbol   Length   Value     Id    R Type   Defn References                                  HLASM R4.0  2004/03/22 09.42
0$$$@R0        1 00000000 FFFFFFFE     J     714  1010
 $$$@R1        1 00000000 FFFFFFFD     J     727  1022
 $$$@R10       1 00000000 FFFFFFF4     J     844  1142
 $$$@R11       1 00000000 FFFFFFF3     J     857  1154
 $$$@R12       1 00000000 FFFFFFF2     J     870  1166
 $$$@R13       1 00000000 FFFFFFF1     J     883  1178
 $$$@R14       1 00000000 FFFFFFF0     J     896  1190
 $$$@R15       1 00000000 FFFFFFEF     J     909  1202
 $$$@R2        1 00000000 FFFFFFFC     J     740  1034
 $$$@R3        1 00000000 FFFFFFFB     J     753  1046
 $$$@R4        1 00000000 FFFFFFFA     J     766  1058
 $$$@R5        1 00000000 FFFFFFF9     J     779  1070
 $$$@R6        1 00000000 FFFFFFF8     J     792  1082
 $$$@R7        1 00000000 FFFFFFF7     J     805  1094
 $$$@R8        1 00000000 FFFFFFF6     J     818  1106
 $$$@R9        1 00000000 FFFFFFF5     J     831  1118   1130
 $$$C1M1SERV
               1 00000F00 00000001     J   14715 14717  14851  15057  15984  17166  17998
 $$$C10M1SERV
               1 00007A8A 00000001     J   56774 56776
 $$$C11M1SERV
               1 00007A90 00000001     J   56780 56782
 $$$C2M1SERV
               1 000018B6 00000001     J   18767 18769  19428  19902  20086  20430  21710  22040
 $$$C3M1SERV
               1 00002318 00000001     J   22549 22551  27155  27181  27206  28507
 $$$C4M1SERV
               1 00003298 00000001     J   30134 30136  30160  30198  30330  33290  33380
 $$$C5M1SERV
               1 00004030 00000001     J   35304 35306  35331  35426  36581  36650  37417  37513  37812
 $$$C6M1SERV
               1 00004A3E 00000001     J   38657 38659  39963  40022  40101  41929  42224  42708
 $$$C7M1SERV
               1 000058B8 00000001     J   44079 44081
 $$$C8M1SERV
               1 00005C66 00000001     J   45611 45613  46299  46344  46610  48461  48486  48697  48713  48749  48982
                                                 49211  49700  49929  51381
 $$$C9M1SERV
               1 00006D08 00000001     J   51965 51967  52010  52035  52064  52101  52358  52566  53407  54205  54231
                                                 54250
 $$$D0M1SERV
               1 00000EE8 00000001     J    1220 10728  10821  10921  12417
 $$$D1M1SERV
               1 0000187C 00000001     J   14716 14839  15045  15972
 $$$D2M1SERV
               1 000022B2 00000001     J   18768 19417  19871  20075  20419
 $$$D3M1SERV
               1 00003292 00000001     J   22550 28496
 $$$D4M1SERV
               1 00004011 00000001     J   30135 30318  33279  33369
 $$$D5M1SERV
               1 00004A14 00000001     J   35305 35414  36570  36639  37406  37502
 $$$D6M1SERV
               1 000057FE 00000001     J   38658 39973  40089  41918  42213  42697
 $$$D8M1SERV
1M1SERV   (M1SE00) (09:42) (22MAR04) Ordinary Symbol and Literal Cross Reference                                            Page  393
               1 00006BE3 00000001     J   45612 46599  48435  48686  48702  48738  49200  49918
 $$$D9M1SERV
               1 00007951 00000001     J   51966 52074  52347  52555  53396  54241
 $$$R@ACAINFO
               1 00000000 FFFFFFA1     J    7012  7029   7029
 $$$R@ACINFO
               1 00000000 FFFFFFA0     J    7039  7058   7058
 $$$R@ACLOGON
               1 00000000 FFFFFFA2     J    6985  7002   7002
 $$$R@ACPINFO
               1 00000000 FFFFFF9F     J    7067  7081   7081
 $$$R@ACREATE
               1 00000000 FFFFFFCF     J    5561  5574   5574
 $$$R@ACSPINF
               1 00000000 FFFFFF9E     J    7090  7104   7104
 $$$R@AWAIT
               1 00000000 FFFFFF78     J    8751  8773   8773
 $$$R@CACLOSE
               1 00000000 FFFFFF7E     J    8468  8481   8481
 $$$R@CACTRL
               1 00000000 FFFFFF81     J    8404  8419   8419
 $$$R@CAIO
               1 00000000 FFFFFF80     J    8425  8443   8443
 $$$R@CAOPEN
               1 00000000 FFFFFF82     J    8375  8398   8398
 $$$R@CAVERIFY
               1 00000000 FFFFFF7F     J    8449  8462   8462
 $$$R@CPCNCK
               1 00000000 FFFFFFA4     J    6928  6943   6943
 $$$R@CPSET
               1 00000000 FFFFFFA5     J    6903  6918   6918
 $$$R@DEQUEUE
               1 00000000 FFFFFFB3     J    6461  6485   6485
 $$$R@DISPPIOC
               1 00000000 FFFFFFD4     J    5427  5440   5440
 $$$R@DISPSIOC
               1 00000000 FFFFFFD3     J    5446  5459   5459
 $$$R@DISPSWP
               1 00000000 FFFFFFD0     J    5538  5551   5551
 $$$R@DOATTN
               1 00000000 FFFFFF68     J   17983 17997  17997
 $$$R@DOWAIT
               1 00000000 FFFFFF69     J   17152 17165  17165
 $$$R@DSPSTAT
               1 00000000 FFFFFFC4     J    5832  5848   5848
 $$$R@ENQHALT
               1 00000000 FFFFFFB1     J    6538  6552   6552
 $$$R@ENQUEUE
               1 00000000 FFFFFFB4     J    6412  6449   6449
 $$$R@EXRADD
               1 00000000 FFFFFFBF     J    5975  6005   6005
 $$$R@EXRDEL
               1 00000000 FFFFFFBE     J    6015  6028   6028
 $$$R@EXRDONE
               1 00000000 FFFFFFBD     J    6038  6074   6074
 $$$R@FDOIODO
               1 00000000 FFFFFF92     J    7660  7711   7711
 $$$R@FILEBLKI
               1 00000000 FFFFFF97     J    7477  7521   7521
1M1SERV   (M1SE00) (09:42) (22MAR04) Ordinary Symbol and Literal Cross Reference                                            Page  394
 $$$R@FILEHALT
               1 00000000 FFFFFF95     J    7593  7606   7606
 $$$R@FMFINFO
               1 00000000 FFFFFF96     J    7532  7583   7583
 $$$R@FMFSB
               1 00000000 FFFFFF93     J    7632  7654   7654
 $$$R@FMRQFB
               1 00000000 FFFFFF94     J    7612  7625   7625
 $$$R@FREEIDT
               1 00000000 FFFFFF63     J   27192 27205  27205
 $$$R@FSADDV
               1 00000000 FFFFFF91     J    7717  7731   7731
 $$$R@GORTYPE
               1 00000000 FFFFFF65     J   27141 27154  27154
 $$$R@LOCKCRE
               1 00000000 FFFFFFB0     J    6565  6587   6587
 $$$R@LOCKS
               1 00000000 FFFFFFAF     J    6593  6606   6606
 $$$R@MONSET
               1 00000000 FFFFFFC5     J    5809  5822   5822
 $$$R@M1EIOCP
               1 00000000 FFFFFF55     J   52045 52063  52063
 $$$R@M1EQHLT
               1 00000000 FFFFFF56     J   52021 52034  52034
 $$$R@M1FILE
               1 00000000 FFFFFF99     J    7303  7438   7438
 $$$R@M1FPOST
               1 00000000 FFFFFF98     J    7449  7466   7466
 $$$R@M1JES
               1 00000000 FFFFFF8D     J    7908  7997   7997
 $$$R@M1JIOCP
               1 00000000 FFFFFF8C     J    8008  8028   8028
 $$$R@M1NET
               1 00000000 FFFFFF8B     J    8045  8144   8144
 $$$R@M1NIOCP
               1 00000000 FFFFFF8A     J    8155  8174   8174
 $$$R@M1PATH
               1 00000000 FFFFFF90     J    7748  7837   7837
 $$$R@M1PATP
               1 00000000 FFFFFF8E     J    7877  7891   7891
 $$$R@M1PIOCP
               1 00000000 FFFFFF8F     J    7848  7866   7866
 $$$R@M1TATP
               1 00000000 FFFFFF9A     J    7266  7281   7281
 $$$R@M1TERM
               1 00000000 FFFFFF9D     J    7121  7205   7205
 $$$R@M1TIOCP
               1 00000000 FFFFFF9B     J    7237  7255   7255
 $$$R@PAGASC1
               1 00000000 FFFFFFDA     J    5295  5309   5309
 $$$R@PAGASC2
               1 00000000 FFFFFFD9     J    5315  5329   5329
 $$$R@PAGDEF
               1 00000000 FFFFFFDC     J    5235  5262   5262
 $$$R@PAGE
               1 00000000 FFFFFFD8     J    5335  5351   5351
 $$$R@PAGINIT
               1 00000000 FFFFFFD5     J    5397  5411   5411
 $$$R@PAGINTV
1M1SERV   (M1SE00) (09:42) (22MAR04) Ordinary Symbol and Literal Cross Reference                                            Page  395
               1 00000000 FFFFFFD6     J    5378  5391   5391
 $$$R@PAGRV
               1 00000000 FFFFFFD7     J    5357  5372   5372
 $$$R@PAGSEGD
               1 00000000 FFFFFFDB     J    5268  5289   5289
 $$$R@PAGSWADV
               1 00000000 FFFFFFDE     J    5186  5199   5199
 $$$R@PAGSWAP
               1 00000000 FFFFFFDF     J    5132  5180   5180
 $$$R@PAGWSMA
               1 00000000 FFFFFFDD     J    5205  5229   5229
 $$$R@PARMDO
               1 00000000 FFFFFFE4     J    4953  4969   4969
 $$$R@PERSET
               1 00000000 FFFFFFC6     J    5786  5799   5799
 $$$R@REQUEUE
               1 00000000 FFFFFFB2     J    6497  6526   6526
 $$$R@RESUME
               1 00000000 FFFFFFD1     J    5513  5528   5528
 $$$R@RTCNCK
               1 00000000 FFFFFFA7     J    6853  6868   6868
 $$$R@RTSET
               1 00000000 FFFFFFA8     J    6819  6843   6843
 $$$R@SBFREE
               1 00000000 FFFFFF7B     J    8572  8586   8586
 $$$R@SBGET
               1 00000000 FFFFFF7C     J    8546  8561   8561
 $$$R@SBINIT
               1 00000000 FFFFFF7D     J    8500  8535   8535
 $$$R@SEG      1 00000000 FFFFFFAE     J    6613  6668   6668
 $$$R@SEGCOL
               1 00000000 FFFFFFAC     J    6696  6710   6710
 $$$R@SEGCORE
               1 00000000 FFFFFFAB     J    6716  6763   6763
 $$$R@SEGINIT
               1 00000000 FFFFFFAD     J    6674  6690   6690
 $$$R@SEGRTN
               1 00000000 FFFFFFAA     J    6769  6782   6782
 $$$R@SEGSTK
               1 00000000 FFFFFFA9     J    6788  6802   6802
 $$$R@SETCLP
               1 00000000 FFFFFF67     J   21696 21709  21709
 $$$R@SETEXIT
               1 00000000 FFFFFF58     J   51367 51380  51380
 $$$R@SIGNAL
               1 00000000 FFFFFF77     J    8784  8804   8804
 $$$R@SSWA
               1 00000000 FFFFFF70     J    9523  9538   9538
 $$$R@SUSPEND
               1 00000000 FFFFFFD2     J    5469  5503   5503
 $$$R@SYSRDEL
               1 00000000 FFFFFFC9     J    5714  5727   5727
 $$$R@SYSRDO
               1 00000000 FFFFFFC8     J    5737  5753   5753
 $$$R@SYSRNEW
               1 00000000 FFFFFFCA     J    5692  5705   5705
 $$$R@SYSRTN
               1 00000000 FFFFFFC7     J    5763  5776   5776
 $$$R@TCREATE
1M1SERV   (M1SE00) (09:42) (22MAR04) Ordinary Symbol and Literal Cross Reference                                            Page  396
               1 00000000 FFFFFFCE     J    5584  5613   5613
 $$$R@TENTRY
               1 00000000 FFFFFFCC     J    5646  5659   5659
 $$$R@TERUINF
               1 00000000 FFFFFF9C     J    7214  7227   7227
 $$$R@TEXIT
               1 00000000 FFFFFFCB     J    5669  5682   5682
 $$$R@TOD      1 00000000 FFFFFF54     J   54189 54204  54204
 $$$R@TREMOVE
               1 00000000 FFFFFFCD     J    5623  5636   5636
 $$$R@UTRACE
               1 00000000 FFFFFF6F     J    9550  9588   9588
 $$$R@VMFREE
               1 00000000 FFFFFFE1     J    5081  5096   5096
 $$$R@VMGET
               1 00000000 FFFFFFE2     J    5046  5075   5075
 $$$R@VMINFO
               1 00000000 FFFFFFE0     J    5102  5117   5117
 $$$R@XACLEAN
               1 00000000 FFFFFF85     J    8306  8319   8319
 $$$R@XAMEM
               1 00000000 FFFFFF83     J    8347  8364   8364
 $$$R@XASPACE
               1 00000000 FFFFFF84     J    8327  8341   8341
 $$$R@XITDATA
               1 00000000 FFFFFFB6     J    6360  6373   6373
 $$$R@XITDEL
               1 00000000 FFFFFFBB     J    6115  6128   6128
 $$$R@XITDO
               1 00000000 FFFFFFBA     J    6137  6154   6154
 $$$R@XITGPST
               1 00000000 FFFFFFB9     J    6165  6180   6180
 $$$R@XITMASK
               1 00000000 FFFFFFB8     J    6190  6237   6237
 $$$R@XITNEW
               1 00000000 FFFFFFBC     J    6084  6105   6105
 $$$RASB       1 00000000 FFFFFFE5     J    4889  4940   4940
 $$$RCPEXIT
               1 00000000 FFFFFFA3     J    6953  6968   6968
 $$$RCSESMF
               1 00000000 FFFFFF61     J   30171 30197  30197
 $$$RCSEWORK
               1 00000000 FFFFFF62     J   30146 30159  30159
 $$$RDOXWORK
               1 00000000 FFFFFF66     J   22026 22039  22039
 $$$RGTRMWORK
               1 00000000 FFFFFF64     J   27166 27180  27180
 $$$RIDT       1 00000000 FFFFFF6C     J    9687  9872   9872
 $$$RMAT       1 00000000 FFFFFFE6     J    4823  4882   4882
 $$$RM1CT      1 00000000 FFFFFF76     J    8894  8983   8983
 $$$RM1DWORK
               1 00000000 FFFFFF6A     J   13749 13762  13762
 $$$RM1ENQPRM
               1 00000000 FFFFFF57     J   51977 52009  52009
 $$$RM1IWORK
               1 00000000 FFFFFF6D     J    9648  9675   9675
 $$$RPARMIN
               1 00000000 FFFFFFE3     J    4975  5033   5033
 $$$RPZERO
1M1SERV   (M1SE00) (09:42) (22MAR04) Ordinary Symbol and Literal Cross Reference                                            Page  397
               1 00000000 FFFFFFE7     J    4710  4801   4801
 $$$RRTEXIT
               1 00000000 FFFFFFA6     J    6878  6893   6893
 $$$RSBWAIT
               1 00000000 FFFFFF7A     J    8592  8612   8612
 $$$RSCP       1 00000000 FFFFFF74     J    9019  9348   9348
 $$$RSCVT      1 00000000 FFFFFFE8     J    4622  4703   4703
 $$$RSENWORK
               1 00000000 FFFFFF60     J   35316 35330  35330
 $$$RSETCLK
               1 00000000 FFFFFF5E     J   39949 39962  39962
 $$$RSEXITMC
               1 00000000 FFFFFFC0     J    5942  5957   5957
 $$$RSEXITPER
               1 00000000 FFFFFFC1     J    5917  5932   5932
 $$$RSEXITPI
               1 00000000 FFFFFFC2     J    5892  5907   5907
 $$$RSEXITSVC
               1 00000000 FFFFFFC3     J    5868  5882   5882
 $$$RSHPGMKEY
               1 00000000 FFFFFF6B     J   10565 10579  10579
 $$$RSLDUMMY
               1 00000000 FFFFFF79     J    8723  8739   8739
 $$$RSPB       1 00000000 FFFFFF73     J    9361  9448   9448
 $$$RSSAB      1 00000000 FFFFFF71     J    9501  9516   9516
 $$$RSSB       1 00000000 FFFFFF72     J    9459  9480   9480
 $$$RSXASCPRM
               1 00000000 FFFFFF5F     J   37794 37811  37811
 $$$RS21WAIT
               1 00000000 FFFFFF5C     J   46310 46343  46343
 $$$RS21WORK
               1 00000000 FFFFFF5D     J   46276 46298  46298
 $$$RS24WORK
               1 00000000 FFFFFF5B     J   48472 48485  48485
 $$$RS30WORK
               1 00000000 FFFFFF5A     J   48968 48981  48981
 $$$RS31WORK
               1 00000000 FFFFFF59     J   49685 49699  49699
 $$$RTODWRK
               1 00000000 FFFFFF53     J   54216 54230  54230
 $$$RUTRHDR
               1 00000000 FFFFFF6E     J    9600  9616   9616
 $$$RVMSTAT
               1 00000000 FFFFFF75     J    8989  9006   9006
 $$$RXAPMEM
               1 00000000 FFFFFF88     J    8212  8227   8227
 $$$RXAPTIME
               1 00000000 FFFFFF87     J    8235  8260   8260
 $$$RXASHALT
               1 00000000 FFFFFF86     J    8285  8300   8300
 $$$RXASPARM
               1 00000000 FFFFFF89     J    8184  8204   8204
 $$$RXITMSKD
               1 00000000 FFFFFFB7     J    6263  6350   6350
 $$$RXITSAREA
               1 00000000 FFFFFFB5     J    6383  6399   6399
 $$$TR$0       4 0000187C 00000001     A   14843 14837  14843  56710
 $$$TR$1       4 00001890 00000001     A   15049 15043  15049  56711
 $$$TR$2       4 000018A4 00000001     A   15976 15970  15976  56712
1M1SERV   (M1SE00) (09:42) (22MAR04) Ordinary Symbol and Literal Cross Reference                                            Page  398
 $$$TR$3       4 00004014 00000001     A   30322 30316  30322  56713
 $$$TR$4       4 00004A14 00000001     A   35418 35412  35418  56714
 $$$TR$5       4 00005898 00000001     A   40093 40087  40093  56715
 $$$1000F      2 00006DC4 00000001     H   52379 52366B
 $$$1001E      2 00006DC8 00000001     H   52396 52390
 $$$1001F      2 00006DE6 00000001     H   52444 52392B 52425B
 $$$1002F      2 00006DDA 00000001     H   52428 52410B
 $$$1004B      4 00006DEA 00000001     I   52458 52476
 $$$1004F      2 00006DF2 00000001     H   52473 52458B 52475
 $$$1005E      2 00006DF6 00000001     H   52483 52477
 $$$1005F      2 00006DFA 00000001     H   52495 52479B
 $$$1006B      4 00006E04 00000001     I   52521 52584
 $$$1006F      2 00006E2A 00000001     H   52581 52521B 52583
 $$$1007       6 00007A66 00000001     I   52561 52553X
 $$$1008       6 00007A66 00000001     I   52560 52561  52561
 $$$1009E      2 00006E2E 00000001     H   52591 52585
 $$$1009F      2 00006E32 00000001     H   52598 52587B
 $$$101F       2 0000070E 00000001     H   12345 12328B
 $$$1010B      4 00006E38 00000001     I   52613 52788
 $$$1010F      2 00006EBC 00000001     H   52780 52613B 52787
 $$$1011B      4 00006E3E 00000001     I   52627 52746
 $$$1011F      2 00006EA8 00000001     H   52743 52627B 52745
 $$$1012F      2 00006E92 00000001     H   52703 52654B
 $$$1012S      2 00006E4A 00000001     H   52638 52702B
 $$$1014F      2 00006E8A 00000001     H   52697 52671B
 $$$1016E      2 00006EAC 00000001     H   52753 52747
 $$$1016F      2 00006EB0 00000001     H   52760 52749B
 $$$1017B      4 00006EC6 00000001     I   52805 52906
 $$$1017E      2 00006EC0 00000001     H   52795 52789
 $$$1017F      2 00006EF2 00000001     H   52900 52791B 52805B 52905
 $$$1019B      4 00006ECC 00000001     I   52833 52846
 $$$1019F      2 00006ED4 00000001     H   52843 52833B 52845
 $$$1020E      2 00006ED8 00000001     H   52853 52847
 $$$1020F      2 00006EE6 00000001     H   52883 52849B
 $$$1021F      2 00006EE6 00000001     H   52879 52869B
 $$$1022E      2 00006EF6 00000001     H   52914 52907
 $$$1022F      2 0000709A 00000001     H   53485 52909B 53004B 53169B
 $$$1023B      4 00006EF8 00000001     I   52927 53094
 $$$1023F      2 00006F80 00000001     H   53088 52927B 53093
 $$$1024F      2 00006F30 00000001     H   53008 52972B 52983B
 $$$1024T      2 00006F1C 00000001     H   52986 52960B
 $$$1025F      2 00006F0E 00000001     H   52963 52947B
 $$$1028F      2 00006F80 00000001     H   53084 53035B
 $$$1028S      2 00006F38 00000001     H   53019 53083B
 $$$103F       2 00000740 00000001     H   12390 12377B
 $$$1030F      2 00006F78 00000001     H   53078 53052B
 $$$1031E      2 00006F84 00000001     H   53101 53095
 $$$1031F      2 00006FBA 00000001     H   53178 53097B
 $$$1032F      2 00006FBA 00000001     H   53174 53124B
 $$$1032S      2 00006F8C 00000001     H   53109 53144B 53173B
 $$$1035F      2 0000700A 00000001     H   53267 53241B
 $$$1036F      2 00007030 00000001     H   53320 53305B
 $$$1037F      2 00007040 00000001     H   53350 53335B
 $$$1038F      2 0000704C 00000001     H   53368 53358B
 $$$1039B      4 0000704E 00000001     I   53382 53418
 $$$1039F      2 00007064 00000001     H   53412 53382B 53417
 $$$104F       2 00000752 00000001     H   12434 12406B
 $$$1040       6 00007A6C 00000001     I   53402 53394X
 $$$1041       6 00007A6C 00000001     I   53401 53402  53402
1M1SERV   (M1SE00) (09:42) (22MAR04) Ordinary Symbol and Literal Cross Reference                                            Page  399
 $$$1042E      2 00007068 00000001     H   53425 53419
 $$$1042F      2 0000706C 00000001     H   53432 53421B
 $$$1045B      4 00007124 00000001     I   53736 53847
 $$$1045F      2 0000715A 00000001     H   53840 53736B 53846
 $$$1046F      2 0000713E 00000001     H   53785 53770B
 $$$1047F      2 0000714A 00000001     H   53811 53796B
 $$$1048F      2 0000715A 00000001     H   53836 53827B
 $$$1049E      2 0000715E 00000001     H   53854 53848
 $$$1049F      2 000071A6 00000001     H   53982 53850B
 $$$105        6 00000EFA 00000001     I   12423 12415X
 $$$1050F      2 0000717C 00000001     H   53904 53889B
 $$$1051F      2 00007188 00000001     H   53930 53915B
 $$$1052B      4 00007190 00000001     I   53947 53964
 $$$1052F      2 0000719E 00000001     H   53961 53947B 53963
 $$$1053E      2 000071A2 00000001     H   53971 53965
 $$$1053F      2 000071A6 00000001     H   53978 53967B
 $$$1054F      2 0000722C 00000001     H   54121 54095B
 $$$1056F      2 0000728A 00000001     H   54368 54326B 54337B
 $$$1058F      2 00007286 00000001     H   54363 54353B
 $$$1059F      2 000072EA 00000001     H   54471 54422B 54459B
 $$$106        6 00000EFA 00000001     I   12422 12423  12423
 $$$1060F      2 000072E6 00000001     H   54462 54442B
 $$$1064F      2 00007310 00000001     H   54529 54500B
 $$$1064S      2 000072F4 00000001     H   54485 54526B
 $$$1069F      2 00007382 00000001     H   54677 54635B 54646B
 $$$1071F      2 0000737E 00000001     H   54672 54662B
 $$$1073F      2 00007410 00000001     H   54829 54817B
 $$$1074F      2 0000761A 00000001     H   55748 54974B 55013B
 $$$1075F      2 00007456 00000001     H   54978 54966B
 $$$1076F      2 00007470 00000001     H   55017 54992B 55005B
 $$$1078F      2 00007494 00000001     H   55091 55065B
 $$$1078S      2 0000747C 00000001     H   55052 55088B
 $$$108F       2 000007D2 00000001     H   12598 12572B
 $$$1082F      2 000074EA 00000001     H   55194 55104B
 $$$1083F      2 000074EA 00000001     H   55190 55164B
 $$$1084F      2 00007570 00000001     H   55398 55388B
 $$$1085F      2 00007594 00000001     H   55474 55458B
 $$$1086F      2 000075BE 00000001     H   55565 55522B
 $$$1087S      2 000075D2 00000001     H   55583 55601B
 $$$109F       2 00000880 00000001     H   12846 12721B
 $$$1091F      2 00007686 00000001     H   55879 55853B
 $$$1093F      2 0000772A 00000001     H   56231 56113B
 $$$1095F      2 000077C6 00000001     H   56519 56326B 56367B
 $$$1097B      4 0000777A 00000001     I   56407 56459
 $$$1097F      2 0000779E 00000001     H   56456 56407B 56458
 $$$1098F      2 0000779A 00000001     H   56451 56441B
 $$$1098T      2 00007796 00000001     H   56444 56429B
 $$$110F       2 00000880 00000001     H   12842 12781B
 $$$110S       2 00000834 00000001     H   12734 12833B
 $$$1100E      2 000077A2 00000001     H   56466 56460
 $$$1100F      2 000077C2 00000001     H   56512 56462B
 $$$1101F      2 000077BE 00000001     H   56507 56497B
 $$$1101T      2 000077BA 00000001     H   56500 56485B
 $$$1103B      1 000077D6 00000001     X   56569 56576U
 $$$1105B      1 00007806 00000001     X   56648 56658U
 $$$112F       2 0000085E 00000001     H   12807 12797B
 $$$114F       2 0000088A 00000001     H   12883 12856B
 $$$115F       2 00000902 00000001     H   13007 12981B
 $$$116F       2 0000095E 00000001     H   13091 13065B
1M1SERV   (M1SE00) (09:42) (22MAR04) Ordinary Symbol and Literal Cross Reference                                            Page  400
 $$$117F       2 000009BA 00000001     H   13171 13145B
 $$$118S       2 000009C0 00000001     H   13181 13226B
 $$$121F       2 00000D10 00000001     H   14631 14043B
 $$$122F       2 00000BD8 00000001     H   14047 13975B
 $$$123F       2 00000D10 00000001     H   14612 14417B
 $$$123S       2 00000CAA 00000001     H   14408 14611B
 $$$125F       2 00000D04 00000001     H   14598 14451B
 $$$127B       4 00000F36 00000001     I   14830 15032
 $$$127F       2 00000FAA 00000001     H   15025 14830B 15031
 $$$130B       4 00000F42 00000001     I   14865 14928
 $$$130F       2 00000F6E 00000001     H   14924 14865B 14927
 $$$131E       2 00000F72 00000001     H   14935 14929
 $$$131F       2 00000FAA 00000001     H   15021 14931B 14946B
 $$$133F       2 00000FA0 00000001     H   15000 14985B
 $$$134E       2 00000FAE 00000001     H   15039 15033
 $$$134F       2 00001026 00000001     H   15248 15035B
 $$$136B       4 00000FB6 00000001     I   15069 15147
 $$$136F       2 00000FEA 00000001     H   15144 15069B 15112B 15146
 $$$138E       2 00000FEE 00000001     H   15154 15148
 $$$138F       2 00001026 00000001     H   15244 15150B 15168B 15188B
 $$$141F       2 000010B0 00000001     H   15436 15263B
 $$$142F       2 000010B0 00000001     H   15432 15306B
 $$$142T       2 00001046 00000001     H   15309 15296B
 $$$143F       2 0000103E 00000001     H   15299 15282B
 $$$146B       4 0000107E 00000001     I   15368 15387
 $$$146F       2 00001088 00000001     H   15384 15368B 15386
 $$$147E       2 0000108C 00000001     H   15394 15388
 $$$147F       2 00001092 00000001     H   15407 15390B
 $$$148F       2 000010CE 00000001     H   15492 15451B
 $$$149F       2 0000115A 00000001     H   15702 15634B
 $$$153F       2 0000120C 00000001     H   15958 15932B
 $$$155B       4 00001226 00000001     I   16006 16124
 $$$155F       2 0000125E 00000001     H   16117 16006B 16123
 $$$156F       2 0000123C 00000001     H   16058 16043B
 $$$157F       2 0000124A 00000001     H   16085 16070B
 $$$158F       2 00001258 00000001     H   16112 16097B
 $$$159B       4 00001266 00000001     I   16140 16290
 $$$159E       2 00001262 00000001     H   16131 16125
 $$$159F       2 000012BC 00000001     H   16283 16127B 16140B 16289
 $$$161F       2 0000127C 00000001     H   16192 16177B
 $$$162F       2 0000128A 00000001     H   16219 16204B
 $$$163F       2 00001298 00000001     H   16246 16231B
 $$$164F       2 000012BC 00000001     H   16279 16258B
 $$$165B       4 000012C4 00000001     I   16306 16425
 $$$165E       2 000012C0 00000001     H   16297 16291
 $$$165F       2 000012FC 00000001     H   16417 16293B 16306B 16424
 $$$167F       2 000012DA 00000001     H   16358 16343B
 $$$168F       2 000012E8 00000001     H   16385 16370B
 $$$169F       2 000012F6 00000001     H   16412 16397B
 $$$170B       4 00001304 00000001     I   16441 16590
 $$$170E       2 00001300 00000001     H   16432 16426
 $$$170F       2 00001352 00000001     H   16583 16428B 16441B 16589
 $$$172F       2 0000131A 00000001     H   16493 16478B
 $$$173F       2 00001328 00000001     H   16520 16505B
 $$$174F       2 00001336 00000001     H   16547 16532B
 $$$175F       2 00001352 00000001     H   16579 16560B
 $$$177B       4 0000135A 00000001     I   16606 16724
 $$$177E       2 00001356 00000001     H   16597 16591
 $$$177F       2 00001392 00000001     H   16717 16593B 16606B 16723
1M1SERV   (M1SE00) (09:42) (22MAR04) Ordinary Symbol and Literal Cross Reference                                            Page  401
 $$$179F       2 00001370 00000001     H   16658 16643B
 $$$180F       2 0000137E 00000001     H   16685 16670B
 $$$181F       2 0000138C 00000001     H   16712 16697B
 $$$182E       2 00001396 00000001     H   16731 16725
 $$$182F       2 000013CE 00000001     H   16837 16727B 16740B
 $$$184F       2 000013AC 00000001     H   16778 16763B
 $$$185F       2 000013BA 00000001     H   16805 16790B
 $$$186F       2 000013C8 00000001     H   16832 16817B
 $$$187F       2 0000144E 00000001     H   17016 16854B
 $$$188B       4 000013DC 00000001     I   16869 16988
 $$$188F       2 00001442 00000001     H   16981 16869B 16987
 $$$190E       2 00001446 00000001     H   16995 16989
 $$$190F       2 0000144E 00000001     H   17012 16991B
 $$$191F       2 0000146C 00000001     H   17071 17030B
 $$$193F       2 00001506 00000001     H   17329 17268B
 $$$195B       4 00001560 00000001     I   17513 17604
 $$$195F       2 00001586 00000001     H   17596 17513B 17603
 $$$196B       4 00001568 00000001     I   17528 17549
 $$$196F       2 00001570 00000001     H   17543 17528B 17548
 $$$197E       2 00001574 00000001     H   17556 17550
 $$$197F       2 00001586 00000001     H   17592 17552B 17571B
 $$$199E       2 0000158A 00000001     H   17611 17605
 $$$199F       2 0000162C 00000001     H   17847 17607B 17640B
 $$$200F       2 0000159C 00000001     H   17643 17625B
 $$$202B       4 000015A8 00000001     I   17670 17698
 $$$202F       2 000015B4 00000001     H   17690 17658B 17670B 17695
 $$$203B       4 000015A0 00000001     I   17658 17696
 $$$204E       2 000015B8 00000001     H   17705 17697  17699
 $$$204F       2 0000162C 00000001     H   17843 17701B
 $$$206F       2 00001608 00000001     H   17800 17783B
 $$$207F       2 0000164A 00000001     H   17902 17861B
 $$$208F       2 00001724 00000001     H   18309 18199B
 $$$209F       2 000016D0 00000001     H   18207 18101B
 $$$210F       2 000016D0 00000001     H   18203 18160B 18172B
 $$$210T       2 000016BE 00000001     H   18175 18123B 18134B 18146B
 $$$215F       2 00001724 00000001     H   18285 18221B
 $$$217F       2 0000180C 00000001     H   18672 18494B
 $$$219F       2 0000180C 00000001     H   18668 18627B
 $$$221B       4 000018E8 00000001     I   18874 18992
 $$$221F       2 00001954 00000001     H   18986 18874B 18991
 $$$222E       2 00001958 00000001     H   18999 18993
 $$$222F       2 000019B0 00000001     H   19067 18995B
 $$$223F       2 000019B0 00000001     H   19063 19037B
 $$$224B       4 000019B4 00000001     I   19084 19145
 $$$224F       2 000019EC 00000001     H   19138 19084B 19144
 $$$226B       4 000019F4 00000001     I   19164 19214
 $$$226E       2 000019F0 00000001     H   19152 19146
 $$$226F       2 00001A2C 00000001     H   19208 19148B 19164B 19213
 $$$229E       2 00001A30 00000001     H   19221 19215
 $$$229F       2 00001AA4 00000001     H   19406 19217B
 $$$230F       2 00001A64 00000001     H   19282 19272B
 $$$231F       2 00001A72 00000001     H   19311 19298B
 $$$232F       2 00001A8E 00000001     H   19357 19343B
 $$$232T       2 00001A82 00000001     H   19346 19331B
 $$$234F       2 00001AA4 00000001     H   19402 19375B 19389B
 $$$236        4 000022B2 00000001     I   19423 19415X
 $$$237        4 000022B2 00000001     I   19422 19423  19423
 $$$238F       2 00001BEC 00000001     H   19852 19797B
 $$$239F       2 00001BC4 00000001     H   19801 19614B 19631B 19694B
1M1SERV   (M1SE00) (09:42) (22MAR04) Ordinary Symbol and Literal Cross Reference                                            Page  402
 $$$241F       2 00001B44 00000001     H   19661 19651B
 $$$242F       2 00001B50 00000001     H   19682 19672B
 $$$244F       2 00001BAE 00000001     H   19765 19755B
 $$$246F       2 00001BBC 00000001     H   19787 19777B
 $$$249        4 00002310 00000001     I   20081 20073X
 $$$250        4 00002310 00000001     I   20080 20081  20081
 $$$251B       4 00001C9A 00000001     I   20108 20269
 $$$251F       2 00001D16 00000001     H   20263 20108B 20268
 $$$252B       4 00001CAC 00000001     I   20135 20198
 $$$252F       2 00001CCA 00000001     H   20192 20135B 20197
 $$$252T       2 00001CB0 00000001     H   20138 20127B
 $$$254E       2 00001CCE 00000001     H   20205 20199
 $$$254F       2 00001D16 00000001     H   20259 20201B
 $$$255E       2 00001D1A 00000001     H   20276 20270
 $$$255F       2 00001D78 00000001     H   20446 20272B
 $$$256B       4 00001D30 00000001     I   20312 20381
 $$$256F       2 00001D4E 00000001     H   20375 20312B 20380
 $$$257E       2 00001D52 00000001     H   20388 20382
 $$$257F       2 00001D74 00000001     H   20435 20384B 20402B
 $$$259        4 00002314 00000001     I   20425 20417X
 $$$260        4 00002314 00000001     I   20424 20425  20425
 $$$261F       2 00001D96 00000001     H   20503 20460B
 $$$262F       2 00001E96 00000001     H   20975 20697B
 $$$263F       2 00001E06 00000001     H   20701 20683B
 $$$263T       2 00001DFA 00000001     H   20686 20671B
 $$$265F       2 00001E1E 00000001     H   20759 20724B
 $$$267B       4 00001E28 00000001     I   20787 20827
 $$$267F       2 00001E4E 00000001     H   20821 20787B 20826
 $$$267T       2 00001E2C 00000001     H   20790 20777B
 $$$270E       2 00001E52 00000001     H   20834 20828
 $$$270F       2 00001E96 00000001     H   20956 20830B
 $$$271F       2 00001E64 00000001     H   20862 20852B
 $$$272F       2 00001E72 00000001     H   20883 20873B
 $$$273F       2 00001E80 00000001     H   20904 20894B
 $$$274F       2 00001E96 00000001     H   20952 20925B
 $$$277B       4 00001F00 00000001     I   21137 21184
 $$$277F       2 00001F1C 00000001     H   21178 21137B 21183
 $$$279E       2 00001F20 00000001     H   21191 21185
 $$$279F       2 00001F26 00000001     H   21200 21187B
 $$$281F       2 00001F62 00000001     H   21299 21289B
 $$$282B       4 00001F70 00000001     I   21323 21341
 $$$282F       2 00001F7C 00000001     H   21338 21323B 21340
 $$$282T       2 00001F74 00000001     H   21326 21312B
 $$$284E       2 00001F80 00000001     H   21348 21342
 $$$284F       2 00001FBE 00000001     H   21438 21344B
 $$$292F       2 000020C8 00000001     H   21880 21798B
 $$$293F       2 000020C0 00000001     H   21869 21843B
 $$$295F       2 00002212 00000001     H   22497 22180B 22212B 22316B
 $$$296F       2 00002164 00000001     H   22139 22124B
 $$$297F       2 00002212 00000001     H   22478 22148B
 $$$298F       2 00002180 00000001     H   22184 22166B
 $$$299F       2 00002192 00000001     H   22216 22198B
 $$$300F       2 000021D4 00000001     H   22345 22231B
 $$$301F       2 000021D0 00000001     H   22334 22255B
 $$$301S       2 000021A0 00000001     H   22246 22333B
 $$$303F       2 000021C4 00000001     H   22320 22283B
 $$$304F       2 00002212 00000001     H   22474 22360B
 $$$305F       2 0000220E 00000001     H   22463 22384B
 $$$305S       2 000021E2 00000001     H   22375 22462B
1M1SERV   (M1SE00) (09:42) (22MAR04) Ordinary Symbol and Literal Cross Reference                                            Page  403
 $$$307F       2 00002202 00000001     H   22449 22412B
 $$$308F       2 0000249C 00000001     H   23416 22667B 23010B 23062B 23178B 23268B 23320B
 $$$309B       4 00002342 00000001     I   22623 22769
 $$$309F       2 0000238E 00000001     H   22761 22623B 22768
 $$$310F       2 00002362 00000001     H   22671 22653B
 $$$311B       4 00002366 00000001     I   22682 22700
 $$$311F       2 0000236E 00000001     H   22697 22682B 22699
 $$$312E       2 00002372 00000001     H   22707 22701
 $$$312F       2 00002376 00000001     H   22719 22703B
 $$$313B       4 00002396 00000001     I   22786 22984
 $$$313E       2 00002392 00000001     H   22776 22770
 $$$313F       2 000023DC 00000001     H   22977 22772B 22786B 22983
 $$$315B       4 000023A2 00000001     I   22808 22821
 $$$315F       2 000023AE 00000001     H   22818 22808B 22820
 $$$316E       2 000023B2 00000001     H   22828 22822
 $$$316F       2 000023DC 00000001     H   22973 22824B
 $$$317F       2 000023DC 00000001     H   22969 22899B
 $$$318B       4 000023E4 00000001     I   23001 23021
 $$$318E       2 000023E0 00000001     H   22991 22985
 $$$318F       2 000023F4 00000001     H   23014 22987B 23001B 23020
 $$$320B       4 000023FC 00000001     I   23038 23137
 $$$320E       2 000023F8 00000001     H   23028 23022
 $$$320F       2 00002420 00000001     H   23129 23024B 23038B 23136
 $$$323B       4 00002428 00000001     I   23154 23242
 $$$323E       2 00002424 00000001     H   23144 23138
 $$$323F       2 0000244C 00000001     H   23235 23140B 23154B 23241
 $$$326B       4 00002454 00000001     I   23259 23279
 $$$326E       2 00002450 00000001     H   23249 23243
 $$$326F       2 00002464 00000001     H   23272 23245B 23259B 23278
 $$$328B       4 0000246C 00000001     I   23296 23383
 $$$328E       2 00002468 00000001     H   23286 23280
 $$$328F       2 00002490 00000001     H   23377 23282B 23296B 23382
 $$$331E       2 00002494 00000001     H   23390 23384
 $$$331F       2 0000249C 00000001     H   23402 23386B
 $$$332F       2 000025D0 00000001     H   24061 23502B 23548B
 $$$334F       2 000024E6 00000001     H   23552 23534B
 $$$335B       4 000024EA 00000001     I   23566 23718
 $$$335F       2 00002536 00000001     H   23711 23566B 23717
 $$$336F       2 00002536 00000001     H   23707 23621B
 $$$337B       4 00002512 00000001     I   23636 23659
 $$$337F       2 0000251E 00000001     H   23656 23636B 23658
 $$$338E       2 00002522 00000001     H   23666 23660
 $$$338F       2 00002536 00000001     H   23703 23662B
 $$$339B       4 0000253E 00000001     I   23734 23783
 $$$339E       2 0000253A 00000001     H   23725 23719
 $$$339F       2 00002552 00000001     H   23776 23721B 23734B 23782
 $$$341B       4 0000255A 00000001     I   23799 23864
 $$$341E       2 00002556 00000001     H   23790 23784
 $$$341F       2 00002578 00000001     H   23856 23786B 23799B 23863
 $$$343F       2 00002578 00000001     H   23852 23837B
 $$$344B       4 00002580 00000001     I   23880 23944
 $$$344E       2 0000257C 00000001     H   23871 23865
 $$$344F       2 0000259E 00000001     H   23937 23867B 23880B 23943
 $$$346F       2 0000259E 00000001     H   23933 23918B
 $$$347B       4 000025A6 00000001     I   23960 24023
 $$$347E       2 000025A2 00000001     H   23951 23945
 $$$347F       2 000025C4 00000001     H   24017 23947B 23960B 24022
 $$$349F       2 000025C4 00000001     H   24013 23998B
 $$$350E       2 000025C8 00000001     H   24030 24024
1M1SERV   (M1SE00) (09:42) (22MAR04) Ordinary Symbol and Literal Cross Reference                                            Page  404
 $$$350F       2 000025D0 00000001     H   24042 24026B
 $$$351F       2 00002692 00000001     H   24460 24147B 24193B
 $$$353F       2 0000261A 00000001     H   24197 24179B
 $$$354B       4 0000261E 00000001     I   24211 24258
 $$$354F       2 00002632 00000001     H   24250 24211B 24257
 $$$355B       4 0000263A 00000001     I   24274 24313
 $$$355E       2 00002636 00000001     H   24265 24259
 $$$355F       2 0000264E 00000001     H   24306 24261B 24274B 24312
 $$$357B       4 00002656 00000001     I   24329 24368
 $$$357E       2 00002652 00000001     H   24320 24314
 $$$357F       2 0000266A 00000001     H   24361 24316B 24329B 24367
 $$$359B       4 00002672 00000001     I   24384 24422
 $$$359E       2 0000266E 00000001     H   24375 24369
 $$$359F       2 00002686 00000001     H   24416 24371B 24384B 24421
 $$$361E       2 0000268A 00000001     H   24429 24423
 $$$361F       2 00002692 00000001     H   24441 24425B
 $$$362F       2 00002770 00000001     H   24915 24546B 24592B
 $$$364F       2 000026DC 00000001     H   24596 24578B
 $$$365B       4 000026E0 00000001     I   24610 24657
 $$$365F       2 000026F4 00000001     H   24649 24610B 24656
 $$$366B       4 000026FC 00000001     I   24673 24712
 $$$366E       2 000026F8 00000001     H   24664 24658
 $$$366F       2 00002710 00000001     H   24705 24660B 24673B 24711
 $$$368B       4 00002718 00000001     I   24728 24767
 $$$368E       2 00002714 00000001     H   24719 24713
 $$$368F       2 0000272C 00000001     H   24760 24715B 24728B 24766
 $$$370B       4 00002734 00000001     I   24783 24822
 $$$370E       2 00002730 00000001     H   24774 24768
 $$$370F       2 00002748 00000001     H   24815 24770B 24783B 24821
 $$$372B       4 00002750 00000001     I   24838 24877
 $$$372E       2 0000274C 00000001     H   24829 24823
 $$$372F       2 00002764 00000001     H   24870 24825B 24838B 24876
 $$$374E       2 00002768 00000001     H   24884 24878
 $$$374F       2 00002770 00000001     H   24896 24880B
 $$$375F       2 00002894 00000001     H   25513 25001B 25047B
 $$$377F       2 000027BA 00000001     H   25051 25033B
 $$$378B       4 000027BE 00000001     I   25065 25311
 $$$378F       2 00002834 00000001     H   25303 25065B 25310
 $$$379B       4 000027D2 00000001     I   25103 25256
 $$$379F       2 00002820 00000001     H   25248 25089B 25103B 25253
 $$$380B       4 000027CA 00000001     I   25089 25254
 $$$381B       4 000027E8 00000001     I   25127 25146
 $$$381F       2 000027F0 00000001     H   25142 25127B 25145
 $$$382B       4 000027F4 00000001     I   25158 25177
 $$$382E       2 000027F4 00000001     H   25153 25147
 $$$382F       2 000027FC 00000001     H   25174 25149B 25158B 25176
 $$$384E       2 00002800 00000001     H   25184 25178
 $$$384F       2 0000280C 00000001     H   25210 25180B
 $$$385F       2 0000280C 00000001     H   25206 25196B
 $$$386E       2 00002824 00000001     H   25263 25255  25257
 $$$386F       2 00002834 00000001     H   25299 25259B
 $$$387B       4 0000283C 00000001     I   25327 25366
 $$$387E       2 00002838 00000001     H   25318 25312
 $$$387F       2 00002850 00000001     H   25359 25314B 25327B 25365
 $$$389B       4 00002858 00000001     I   25382 25421
 $$$389E       2 00002854 00000001     H   25373 25367
 $$$389F       2 0000286C 00000001     H   25414 25369B 25382B 25420
 $$$391B       4 00002874 00000001     I   25437 25475
 $$$391E       2 00002870 00000001     H   25428 25422
1M1SERV   (M1SE00) (09:42) (22MAR04) Ordinary Symbol and Literal Cross Reference                                            Page  405
 $$$391F       2 00002888 00000001     H   25469 25424B 25437B 25474
 $$$393E       2 0000288C 00000001     H   25482 25476
 $$$393F       2 00002894 00000001     H   25494 25478B
 $$$394F       2 00002926 00000001     H   25801 25599B 25645B
 $$$396F       2 000028DE 00000001     H   25649 25631B
 $$$397B       4 000028E2 00000001     I   25663 25763
 $$$397F       2 0000291A 00000001     H   25757 25663B 25762
 $$$398B       4 000028FC 00000001     I   25713 25739
 $$$398F       2 00002910 00000001     H   25733 25713B 25738
 $$$399E       2 00002914 00000001     H   25746 25740
 $$$399F       2 0000291A 00000001     H   25753 25742B
 $$$400E       2 0000291E 00000001     H   25770 25764
 $$$400F       2 00002926 00000001     H   25782 25766B
 $$$401F       2 000029BC 00000001     H   26108 25887B 25933B
 $$$403F       2 00002970 00000001     H   25937 25919B
 $$$404B       4 00002974 00000001     I   25951 26070
 $$$404F       2 000029B0 00000001     H   26064 25951B 26069
 $$$405B       4 0000298E 00000001     I   26001 26046
 $$$405F       2 000029A6 00000001     H   26040 26001B 26045
 $$$406F       2 000029A6 00000001     H   26036 26020B
 $$$407E       2 000029AA 00000001     H   26053 26047
 $$$407F       2 000029B0 00000001     H   26060 26049B
 $$$408E       2 000029B4 00000001     H   26077 26071
 $$$408F       2 000029BC 00000001     H   26089 26073B
 $$$410B       4 000029EE 00000001     I   26207 26220
 $$$410F       2 000029FA 00000001     H   26217 26207B 26219
 $$$411E       2 000029FE 00000001     H   26227 26221
 $$$411F       2 00002A34 00000001     H   26343 26223B
 $$$412F       2 00002A34 00000001     H   26339 26292B
 $$$412T       2 00002A24 00000001     H   26295 26281B
 $$$414F       2 00002B5A 00000001     H   26949 26460B 26485B 26554B
 $$$415F       2 00002A72 00000001     H   26464 26446B
 $$$417F       2 00002AA6 00000001     H   26558 26517B
 $$$418B       4 00002AAA 00000001     I   26573 26619
 $$$418F       2 00002ABE 00000001     H   26612 26573B 26618
 $$$419B       4 00002AC6 00000001     I   26635 26702
 $$$419E       2 00002AC2 00000001     H   26626 26620
 $$$419F       2 00002AE8 00000001     H   26695 26622B 26635B 26701
 $$$421B       4 00002AF0 00000001     I   26718 26767
 $$$421E       2 00002AEC 00000001     H   26709 26703
 $$$421F       2 00002B04 00000001     H   26760 26705B 26718B 26766
 $$$423B       4 00002B0C 00000001     I   26783 26822
 $$$423E       2 00002B08 00000001     H   26774 26768
 $$$423F       2 00002B20 00000001     H   26815 26770B 26783B 26821
 $$$425B       4 00002B28 00000001     I   26838 26877
 $$$425E       2 00002B24 00000001     H   26829 26823
 $$$425F       2 00002B3C 00000001     H   26870 26825B 26838B 26876
 $$$427E       2 00002B40 00000001     H   26884 26878
 $$$427F       2 00002B5A 00000001     H   26930 26880B 26893B
 $$$431F       2 00002C2E 00000001     H   27411 27313B 27371B
 $$$432F       2 00002C0A 00000001     H   27317 27299B
 $$$432T       2 00002BFE 00000001     H   27302 27287B
 $$$434B       4 00002C18 00000001     I   27357 27378
 $$$434F       2 00002C28 00000001     H   27375 27357B 27377
 $$$435E       2 00002C2C 00000001     H   27385 27379
 $$$435F       2 00002C2E 00000001     H   27392 27381B
 $$$436F       2 00002CBA 00000001     H   27644 27606B
 $$$437F       2 00002CB2 00000001     H   27621 27498B
 $$$437S       2 00002C6C 00000001     H   27491 27620B
1M1SERV   (M1SE00) (09:42) (22MAR04) Ordinary Symbol and Literal Cross Reference                                            Page  406
 $$$439F       2 00002CAA 00000001     H   27610 27531B
 $$$440B       4 00002C94 00000001     I   27565 27583
 $$$440F       2 00002C9C 00000001     H   27580 27565B 27582
 $$$441E       2 00002CA0 00000001     H   27590 27584
 $$$441F       2 00002CA4 00000001     H   27602 27586B
 $$$444F       2 00002D78 00000001     H   27968 27953B
 $$$445F       2 00002D8E 00000001     H   28036 27980B
 $$$446F       2 00002D8E 00000001     H   28024 28009B
 $$$447F       2 00002D9A 00000001     H   28059 28044B
 $$$448B       4 00002DA2 00000001     I   28075 28106
 $$$448F       2 00002DB6 00000001     H   28102 28075B 28105
 $$$449E       2 00002DBA 00000001     H   28113 28107
 $$$449F       2 00002E4C 00000001     H   28320 28109B
 $$$450F       2 00002DE6 00000001     H   28146 28131B
 $$$451B       4 00002DEC 00000001     I   28159 28279
 $$$451F       2 00002E36 00000001     H   28276 28159B 28278
 $$$452F       2 00002E36 00000001     H   28272 28174B
 $$$453F       2 00002E08 00000001     H   28211 28196B
 $$$454F       2 00002E16 00000001     H   28238 28223B
 $$$455F       2 00002E24 00000001     H   28265 28250B
 $$$456E       2 00002E3A 00000001     H   28286 28280
 $$$456F       2 00002E4C 00000001     H   28316 28282B
 $$$458F       2 00002EB8 00000001     H   28512 28485B
 $$$459        6 00003292 00000001     I   28502 28494X
 $$$460        6 00003292 00000001     I   28501 28502  28502
 $$$461F       2 00002ED2 00000001     H   28583 28531B
 $$$462F       2 00002ED2 00000001     H   28574 28559B
 $$$463F       2 00002EDE 00000001     H   28606 28591B
 $$$464B       4 00002EE6 00000001     I   28626 28681
 $$$464F       2 00002F04 00000001     H   28675 28626B 28656B 28680
 $$$466E       2 00002F08 00000001     H   28688 28682
 $$$466F       2 00002F10 00000001     H   28700 28684B
 $$$467F       2 00002FF4 00000001     H   29142 28877B
 $$$468F       2 00002F56 00000001     H   28881 28868B
 $$$469F       2 00002F7C 00000001     H   28933 28918B
 $$$470F       2 00002FA2 00000001     H   28961 28946B
 $$$471B       4 00002FAA 00000001     I   28981 29053
 $$$471F       2 00002FD6 00000001     H   29047 28981B 29007B 29052
 $$$473F       2 00002FD6 00000001     H   29043 29033B
 $$$474E       2 00002FDA 00000001     H   29060 29054
 $$$474F       2 00002FF4 00000001     H   29113 29056B
 $$$475F       2 00002FF4 00000001     H   29109 29079B
 $$$476F       2 00003102 00000001     H   29613 29295B 29343B
 $$$477F       2 0000303A 00000001     H   29299 29286B
 $$$478F       2 00003058 00000001     H   29347 29313B 29333B
 $$$480F       2 0000307E 00000001     H   29399 29384B
 $$$481F       2 000030A4 00000001     H   29427 29412B
 $$$482B       4 000030AC 00000001     I   29447 29524
 $$$482F       2 000030E4 00000001     H   29518 29447B 29473B 29523
 $$$484F       2 000030E4 00000001     H   29514 29499B
 $$$485E       2 000030E8 00000001     H   29531 29525
 $$$485F       2 00003102 00000001     H   29584 29527B
 $$$486F       2 00003102 00000001     H   29580 29550B
 $$$487F       2 00003200 00000001     H   30087 29766B 29811B
 $$$488F       2 00003148 00000001     H   29770 29757B
 $$$489F       2 00003162 00000001     H   29815 29802B
 $$$49F        2 00000086 00000001     H   10020  9994B
 $$$490F       2 00003188 00000001     H   29867 29852B
 $$$491F       2 000031AE 00000001     H   29895 29880B
1M1SERV   (M1SE00) (09:42) (22MAR04) Ordinary Symbol and Literal Cross Reference                                            Page  407
 $$$492B       4 000031B6 00000001     I   29915 29986
 $$$492F       2 000031E2 00000001     H   29980 29915B 29941B 29985
 $$$494F       2 000031E2 00000001     H   29976 29967B
 $$$495E       2 000031E6 00000001     H   29993 29987
 $$$495F       2 00003200 00000001     H   30046 29989B
 $$$496F       2 00003200 00000001     H   30042 30012B
 $$$497F       2 00003F5A 00000001     H   35247 30304B
 $$$498F       2 000032CC 00000001     H   30308 30290B
 $$$50F        2 000000E4 00000001     H   10143 10117B
 $$$507F       2 0000346E 00000001     H   30841 30774B 30831B
 $$$507S       2 00003444 00000001     H   30766 30793B 30811B 30840B
 $$$51F        2 0000013C 00000001     H   10211 10185B
 $$$512F       2 00003504 00000001     H   31123 30855B
 $$$513B       4 00003478 00000001     I   30873 31066
 $$$513F       2 000034DC 00000001     H   31060 30873B 31065
 $$$514F       2 000034DC 00000001     H   31056 30894B
 $$$515B       4 0000348C 00000001     I   30909 30958
 $$$515F       2 000034A8 00000001     H   30955 30909B 30957
 $$$516E       2 000034AC 00000001     H   30965 30959
 $$$516F       2 000034C4 00000001     H   30998 30961B
 $$$517B       4 000034C6 00000001     I   31008 31029
 $$$517F       2 000034D2 00000001     H   31023 31008B 31028
 $$$518E       2 000034D6 00000001     H   31036 31030
 $$$518F       2 000034DC 00000001     H   31052 31032B
 $$$519E       2 000034E0 00000001     H   31073 31067
 $$$519F       2 00003504 00000001     H   31119 31069B
 $$$52F        2 0000016A 00000001     H   10259 10249B
 $$$523F       2 000035CA 00000001     H   31428 31357B
 $$$524F       2 000035CA 00000001     H   31424 31398B
 $$$526F       2 00003684 00000001     H   31802 31504B
 $$$527B       4 0000360A 00000001     I   31598 31735
 $$$527F       2 00003660 00000001     H   31732 31598B 31734
 $$$528B       4 00003612 00000001     I   31612 31666
 $$$528F       2 00003634 00000001     H   31663 31612B 31665
 $$$529E       2 00003638 00000001     H   31673 31667
 $$$529F       2 00003656 00000001     H   31711 31669B
 $$$53F        2 0000019A 00000001     H   10323 10295B
 $$$530E       2 00003664 00000001     H   31742 31736
 $$$530F       2 0000366E 00000001     H   31753 31738B
 $$$533F       2 000036DE 00000001     H   32003 31960B 31993B
 $$$533S       2 000036BE 00000001     H   31952 32002B
 $$$535F       2 000036DA 00000001     H   31996 31979B
 $$$537F       2 000036EC 00000001     H   32023 32013B
 $$$538F       2 000036FA 00000001     H   32047 32034B
 $$$539F       2 00003722 00000001     H   32120 32110B
 $$$54F        2 00000196 00000001     H   10318 10309B
 $$$540F       2 00003842 00000001     H   32533 32334B
 $$$540S       2 0000378A 00000001     H   32328 32532B
 $$$542F       2 000037CA 00000001     H   32390 32365B
 $$$543F       2 00003808 00000001     H   32443 32418B
 $$$545F       2 00003888 00000001     H   32637 32627B
 $$$546B       4 00003898 00000001     I   32678 32801
 $$$546F       2 00003920 00000001     H   32796 32665B 32678B 32798
 $$$547B       4 0000388E 00000001     I   32665 32799
 $$$548F       2 000038F4 00000001     H   32762 32752B
 $$$549E       2 00003924 00000001     H   32808 32800  32802
 $$$549F       2 00003928 00000001     H   32815 32804B
 $$$55F        2 000001BE 00000001     H   10368 10359B
 $$$550F       2 00003948 00000001     H   32883 32873B
1M1SERV   (M1SE00) (09:42) (22MAR04) Ordinary Symbol and Literal Cross Reference                                            Page  408
 $$$551F       2 000039C8 00000001     H   33018 32992B
 $$$552F       2 00003A1E 00000001     H   33078 33052B
 $$$554F       2 00003AC0 00000001     H   33261 33235B
 $$$555        6 00004026 00000001     I   33285 33277X
 $$$556        6 00004026 00000001     I   33284 33285  33285
 $$$558        4 0000402C 00000001     I   33375 33367X
 $$$559        4 0000402C 00000001     I   33374 33375  33375
 $$$56F        2 000001E2 00000001     H   10414 10404B
 $$$563F       2 00003B9E 00000001     H   33618 33609B
 $$$564F       2 00003C1A 00000001     H   33794 33785B
 $$$565F       2 00003C7A 00000001     H   33902 33876B
 $$$566B       4 00003CA2 00000001     I   34040 34054
 $$$566F       2 00003CAA 00000001     H   34051 34040B 34053
 $$$568E       2 00003CAE 00000001     H   34061 34055
 $$$568F       2 00003CB2 00000001     H   34069 34057B
 $$$57F        2 00000206 00000001     H   10460 10450B
 $$$572F       2 00003D64 00000001     H   34375 34209B
 $$$572S       2 00003CF4 00000001     H   34200 34374B
 $$$574F       2 00003D5C 00000001     H   34364 34248B
 $$$575F       2 00003D22 00000001     H   34273 34263B
 $$$576F       2 00003D3A 00000001     H   34310 34288B 34300B
 $$$578F       2 00003D5C 00000001     H   34360 34325B 34337B 34350B
 $$$58F        2 00000252 00000001     H   10539 10529B
 $$$584F       2 00003DE6 00000001     H   34599 34483B
 $$$586F       2 00003DCA 00000001     H   34565 34549B
 $$$588F       2 00003DD6 00000001     H   34592 34576B
 $$$59S        2 0000027E 00000001     H   10603 11659B
 $$$591F       2 00003E62 00000001     H   34819 34709B
 $$$592B       4 00003E32 00000001     I   34727 34767
 $$$592F       2 00003E48 00000001     H   34761 34727B 34766
 $$$593E       2 00003E4C 00000001     H   34774 34768
 $$$593F       2 00003E5E 00000001     H   34805 34770B
 $$$599F       2 0000406C 00000001     H   35450 35440B
 $$$60F        2 00000528 00000001     H   11653 10695B 10715B 10888B 10908B
 $$$603F       2 0000415A 00000001     H   35656 35646B
 $$$604F       2 00004166 00000001     H   35674 35664B
 $$$606B       4 00004230 00000001     I   35907 35948
 $$$606F       2 0000424A 00000001     H   35942 35907B 35947
 $$$607E       2 0000424E 00000001     H   35955 35949
 $$$607F       2 00004264 00000001     H   35987 35951B
 $$$619F       2 000043AA 00000001     H   36456 36446B
 $$$621B       4 000043CE 00000001     I   36495 36530
 $$$621F       2 000043D6 00000001     H   36527 36495B 36529
 $$$622E       2 000043DA 00000001     H   36537 36531
 $$$622F       2 000043DE 00000001     H   36544 36533B
 $$$623F       2 000043EE 00000001     H   36563 36553B
 $$$624        6 00004A26 00000001     I   36576 36568X
 $$$625        6 00004A26 00000001     I   36575 36576  36576
 $$$626B       4 00004426 00000001     I   36621 36684
 $$$626F       2 00004448 00000001     H   36681 36621B 36683
 $$$627        6 00004A2C 00000001     I   36645 36637X
 $$$628        6 00004A2C 00000001     I   36644 36645  36645
 $$$629F       2 00004448 00000001     H   36677 36667B
 $$$63         6 00000EE8 00000001     I   10734 10726X
 $$$631E       2 0000444C 00000001     H   36691 36685
 $$$631F       2 0000444E 00000001     H   36701 36687B
 $$$632F       2 00004466 00000001     H   36728 36718B
 $$$633F       2 00004494 00000001     H   36796 36740B
 $$$634B       4 00004482 00000001     I   36759 36775
1M1SERV   (M1SE00) (09:42) (22MAR04) Ordinary Symbol and Literal Cross Reference                                            Page  409
 $$$634F       2 00004488 00000001     H   36772 36759B 36774
 $$$635E       2 0000448C 00000001     H   36782 36776
 $$$635F       2 00004490 00000001     H   36789 36778B
 $$$636B       4 000044B6 00000001     I   36843 36873
 $$$636F       2 000044C6 00000001     H   36870 36843B 36872
 $$$638E       2 000044CA 00000001     H   36880 36874
 $$$638F       2 000044D6 00000001     H   36904 36876B
 $$$64         6 00000EE8 00000001     I   10733 10734  10734
 $$$640B       4 000044E8 00000001     I   36924 36954
 $$$640F       2 000044F8 00000001     H   36951 36924B 36953
 $$$642E       2 000044FC 00000001     H   36961 36955
 $$$642F       2 00004508 00000001     H   36985 36957B
 $$$648F       2 00004602 00000001     H   37342 37327B
 $$$649        6 00004A32 00000001     I   37412 37404X
 $$$65F        2 00000310 00000001     H   10837 10789B 10808B
 $$$650        6 00004A32 00000001     I   37411 37412  37412
 $$$651F       2 00004672 00000001     H   37480 37471B
 $$$652F       2 0000467E 00000001     H   37518 37494B
 $$$653        6 00004A38 00000001     I   37508 37500X
 $$$654        6 00004A38 00000001     I   37507 37508  37508
 $$$656F       2 000046CC 00000001     H   37636 37626B
 $$$657F       2 00004718 00000001     H   37698 37659B
 $$$659F       2 00004706 00000001     H   37691 37681B
 $$$660F       2 00004740 00000001     H   37749 37711B
 $$$662F       2 0000473A 00000001     H   37744 37734B
 $$$668F       2 000047B4 00000001     H   37987 37977B
 $$$669F       2 00004800 00000001     H   38094 38076B
 $$$669T       2 000047EE 00000001     H   38079 38064B
 $$$67         6 00000EEE 00000001     I   10827 10819X
 $$$677F       2 000048AC 00000001     H   38365 38355B
 $$$679F       2 000048DA 00000001     H   38409 38399B
 $$$68         6 00000EEE 00000001     I   10826 10827  10827
 $$$682F       2 00004904 00000001     H   38482 38472B
 $$$683F       2 0000492A 00000001     H   38521 38502B
 $$$685F       2 0000493A 00000001     H   38542 38532B
 $$$687F       2 00004AC6 00000001     H   38925 38843B
 $$$687S       2 00004A88 00000001     H   38837 38924B
 $$$689F       2 00004ABE 00000001     H   38914 38874B
 $$$689S       2 00004A96 00000001     H   38868 38913B
 $$$691F       2 00004AB6 00000001     H   38908 38891B
 $$$692F       2 00004B4E 00000001     H   39127 38946B
 $$$692S       2 00004ACA 00000001     H   38940 39126B
 $$$694F       2 00004B46 00000001     H   39121 38961B
 $$$695F       2 00004B46 00000001     H   39117 38978B
 $$$695S       2 00004ADC 00000001     H   38972 39116B
 $$$697F       2 00004B3E 00000001     H   39111 38995B
 $$$699F       2 00004CF8 00000001     H   39910 39278B 39310B 39329B 39348B
 $$$701F       2 00004BA8 00000001     H   39313 39296B
 $$$705B       4 00004BDC 00000001     I   39411 39465
 $$$705F       2 00004BFE 00000001     H   39462 39411B 39464
 $$$706E       2 00004C02 00000001     H   39472 39466
 $$$706F       2 00004C20 00000001     H   39510 39468B
 $$$707F       2 00004CA2 00000001     H   39662 39540B
 $$$707S       2 00004C2E 00000001     H   39534 39661B
 $$$709F       2 00004C70 00000001     H   39597 39572B
 $$$71         6 00000EF4 00000001     I   10927 10919X
 $$$710F       2 00004CF8 00000001     H   39896 39677B
 $$$711F       2 00004CD4 00000001     H   39808 39783B
 $$$711S       2 00004CBA 00000001     H   39728 39807B
1M1SERV   (M1SE00) (09:42) (22MAR04) Ordinary Symbol and Literal Cross Reference                                            Page  410
 $$$716F       2 00004D72 00000001     H   40125 40115B
 $$$717B       4 00004D7C 00000001     I   40153 40171
 $$$717F       2 00004D88 00000001     H   40168 40153B 40170
 $$$717T       2 00004D80 00000001     H   40156 40142B
 $$$719E       2 00004D8C 00000001     H   40178 40172
 $$$719F       2 00004D96 00000001     H   40191 40174B
 $$$72         6 00000EF4 00000001     I   10926 10927  10927
 $$$721F       2 00004EA4 00000001     H   40655 40404B 40430B 40449B 40560B
 $$$722F       2 00004E02 00000001     H   40377 40367B
 $$$723F       2 00004E16 00000001     H   40408 40390B
 $$$724F       2 00004E2A 00000001     H   40434 40422B
 $$$725F       2 00004E38 00000001     H   40453 40441B
 $$$726F       2 00004E56 00000001     H   40483 40469B
 $$$727F       2 00004E82 00000001     H   40564 40546B
 $$$728F       2 00004E9E 00000001     H   40635 40580B
 $$$73F        2 00000396 00000001     H   11022 10996B
 $$$730F       2 00004F2E 00000001     H   40881 40758B
 $$$731B       4 00004EE0 00000001     I   40776 40814
 $$$731F       2 00004EFA 00000001     H   40808 40776B 40813
 $$$732E       2 00004EFE 00000001     H   40821 40815
 $$$732F       2 00004F14 00000001     H   40853 40817B
 $$$733F       2 00004F74 00000001     H   40949 40895B
 $$$735F       2 00005002 00000001     H   41192 41072B
 $$$736B       4 00004FB4 00000001     I   41090 41128
 $$$736F       2 00004FCE 00000001     H   41122 41090B 41127
 $$$737E       2 00004FD2 00000001     H   41135 41129
 $$$737F       2 00004FE8 00000001     H   41167 41131B
 $$$738F       2 00005044 00000001     H   41257 41206B
 $$$74F        2 000003BE 00000001     H   11067 11057B
 $$$740B       4 0000507A 00000001     I   41359 41376
 $$$740F       2 00005082 00000001     H   41369 41359B 41375
 $$$741B       4 0000508A 00000001     I   41394 41410
 $$$741E       2 00005086 00000001     H   41383 41377
 $$$741F       2 00005092 00000001     H   41404 41379B 41394B 41409
 $$$743E       2 00005096 00000001     H   41417 41411
 $$$743F       2 0000509A 00000001     H   41424 41413B
 $$$744F       2 0000513A 00000001     H   41724 41623B 41674B
 $$$745B       4 000050DC 00000001     I   41549 41565
 $$$745F       2 000050E4 00000001     H   41559 41549B 41564
 $$$746E       2 000050E8 00000001     H   41572 41566
 $$$746F       2 000050EC 00000001     H   41579 41568B
 $$$747F       2 0000510A 00000001     H   41627 41609B
 $$$747T       2 000050FE 00000001     H   41612 41597B
 $$$749F       2 00005128 00000001     H   41678 41660B
 $$$75F        2 000003D2 00000001     H   11093 11083B
 $$$750F       2 00005238 00000001     H   42129 41892B
 $$$751F       2 00005174 00000001     H   41808 41798B
 $$$752B       4 00005176 00000001     I   41818 41831
 $$$752F       2 0000517E 00000001     H   41828 41818B 41830
 $$$753E       2 00005182 00000001     H   41838 41832
 $$$753F       2 000051B6 00000001     H   41900 41834B
 $$$754F       2 000051B6 00000001     H   41896 41878B
 $$$756        4 000058AA 00000001     I   41924 41916X
 $$$757        4 000058AA 00000001     I   41923 41924  41924
 $$$758F       2 00005228 00000001     H   42095 41952B
 $$$76F        2 000003E0 00000001     H   11115 11105B
 $$$760F       2 0000520E 00000001     H   42057 42006B
 $$$762        4 000058AE 00000001     I   42219 42211X
 $$$763        4 000058AE 00000001     I   42218 42219  42219
1M1SERV   (M1SE00) (09:42) (22MAR04) Ordinary Symbol and Literal Cross Reference                                            Page  411
 $$$764F       2 000052D4 00000001     H   42370 42343B
 $$$765F       2 000052C6 00000001     H   42347 42329B
 $$$766F       2 000053B2 00000001     H   42724 42475B 42525B 42604B
 $$$767F       2 0000531E 00000001     H   42479 42461B
 $$$767T       2 00005312 00000001     H   42464 42451B
 $$$769F       2 0000533E 00000001     H   42529 42511B
 $$$769T       2 00005332 00000001     H   42514 42500B
 $$$77F        2 0000040C 00000001     H   11162 11152B
 $$$771F       2 00005354 00000001     H   42569 42559B
 $$$772F       2 00005380 00000001     H   42608 42590B
 $$$773B       4 00005386 00000001     I   42622 42657
 $$$773F       2 0000538E 00000001     H   42654 42622B 42656
 $$$774E       2 00005392 00000001     H   42664 42658
 $$$774F       2 00005396 00000001     H   42671 42660B
 $$$775F       2 000053A6 00000001     H   42690 42680B
 $$$776        6 000058B2 00000001     I   42703 42695X
 $$$777        6 000058B2 00000001     I   42702 42703  42703
 $$$778F       2 000054CE 00000001     H   43142 42817B 42848B 42880B 42943B 42975B 43057B
 $$$779F       2 000053F2 00000001     H   42821 42803B
 $$$78F        2 0000043E 00000001     H   11247 11217B 11231B
 $$$780F       2 00005410 00000001     H   42852 42840B
 $$$781F       2 00005426 00000001     H   42884 42866B
 $$$782B       4 00005426 00000001     I   42891 42907
 $$$782F       2 0000542E 00000001     H   42901 42891B 42906
 $$$783E       2 00005432 00000001     H   42914 42908
 $$$783F       2 0000545C 00000001     H   42957 42910B
 $$$784F       2 00005450 00000001     H   42947 42929B
 $$$785F       2 0000546C 00000001     H   42979 42967B
 $$$786F       2 000054A2 00000001     H   43061 43049B
 $$$787F       2 00005610 00000001     H   43597 43256B 43280B 43305B 43557B
 $$$788F       2 00005508 00000001     H   43229 43219B
 $$$789F       2 0000551C 00000001     H   43260 43242B
 $$$790F       2 00005530 00000001     H   43284 43272B
 $$$791F       2 00005540 00000001     H   43309 43291B
 $$$792B       4 00005596 00000001     I   43442 43460
 $$$792F       2 000055B2 00000001     H   43457 43442B 43459
 $$$793E       2 000055B6 00000001     H   43467 43461
 $$$793F       2 0000560A 00000001     H   43582 43463B
 $$$794F       2 0000560A 00000001     H   43578 43485B
 $$$794S       2 000055B6 00000001     H   43478 43577B
 $$$796F       2 000055EC 00000001     H   43561 43543B
 $$$798B       1 0000561C 00000001     X   43627 43634U
 $$$799F       2 0000563A 00000001     H   43697 43678B
 $$$80F        2 0000046C 00000001     H   11325 11296B 11310B
 $$$800F       2 00005718 00000001     H   44011 43831B 43863B 43898B 43980B
 $$$801F       2 00005682 00000001     H   43801 43791B
 $$$802F       2 00005696 00000001     H   43835 43817B
 $$$803F       2 000056AC 00000001     H   43867 43849B
 $$$804F       2 000056D0 00000001     H   43902 43890B
 $$$805F       2 00005702 00000001     H   43984 43972B
 $$$806F       2 000059BC 00000001     H   44533 44209B 44247B 44348B
 $$$807F       2 0000591A 00000001     H   44259 44154B
 $$$809B       4 000058E8 00000001     I   44169 44220
 $$$809F       2 00005904 00000001     H   44217 44169B 44185B 44219
 $$$811F       2 00005904 00000001     H   44213 44201B
 $$$812E       2 00005908 00000001     H   44227 44221
 $$$812F       2 0000591A 00000001     H   44255 44223B
 $$$813F       2 0000591A 00000001     H   44251 44239B
 $$$814B       4 0000591C 00000001     I   44272 44391
1M1SERV   (M1SE00) (09:42) (22MAR04) Ordinary Symbol and Literal Cross Reference                                            Page  412
 $$$814F       2 00005978 00000001     H   44385 44272B 44390
 $$$815F       2 00005936 00000001     H   44313 44303B
 $$$816F       2 00005964 00000001     H   44352 44334B
 $$$817F       2 00005978 00000001     H   44381 44364B
 $$$819E       2 0000597C 00000001     H   44398 44392
 $$$819F       2 00005982 00000001     H   44411 44394B
 $$$82F        2 0000049E 00000001     H   11409 11374B 11388B
 $$$821F       2 000059B6 00000001     H   44518 44461B
 $$$823B       4 000059A4 00000001     I   44476 44494
 $$$823F       2 000059AC 00000001     H   44491 44476B 44493
 $$$824E       2 000059B0 00000001     H   44501 44495
 $$$824F       2 000059B6 00000001     H   44514 44497B
 $$$825F       2 00005AB4 00000001     H   44928 44669B 44707B 44828B
 $$$826F       2 00005A2A 00000001     H   44719 44614B
 $$$827B       4 000059F8 00000001     I   44629 44680
 $$$827F       2 00005A14 00000001     H   44677 44629B 44645B 44679
 $$$829F       2 00005A14 00000001     H   44673 44661B
 $$$830E       2 00005A18 00000001     H   44687 44681
 $$$830F       2 00005A2A 00000001     H   44715 44683B
 $$$831F       2 00005A2A 00000001     H   44711 44699B
 $$$832B       4 00005A2C 00000001     I   44732 44748
 $$$832F       2 00005A34 00000001     H   44742 44732B 44747
 $$$833E       2 00005A38 00000001     H   44755 44749
 $$$833F       2 00005A82 00000001     H   44837 44751B
 $$$834F       2 00005A4E 00000001     H   44793 44783B
 $$$835F       2 00005A7C 00000001     H   44832 44814B
 $$$836F       2 00005AAE 00000001     H   44913 44886B 44898B
 $$$838F       2 00005C26 00000001     H   45582 45034B 45059B 45308B 45356B 45426B 45511B 45559B
 $$$839F       2 00005AEE 00000001     H   45015 45005B
 $$$84F        2 000004CC 00000001     H   11487 11458B 11472B
 $$$840F       2 00005B02 00000001     H   45038 45026B
 $$$841F       2 00005B12 00000001     H   45063 45045B
 $$$842B       4 00005B20 00000001     I   45083 45376
 $$$842F       2 00005BB4 00000001     H   45369 45083B 45113B 45133B 45153B 45375
 $$$846B       4 00005B46 00000001     I   45168 45229
 $$$846F       2 00005B64 00000001     H   45226 45168B 45228
 $$$847E       2 00005B68 00000001     H   45236 45230
 $$$847F       2 00005B82 00000001     H   45284 45232B
 $$$848F       2 00005B94 00000001     H   45312 45294B
 $$$849F       2 00005BB4 00000001     H   45360 45342B
 $$$850E       2 00005BB8 00000001     H   45383 45377
 $$$850F       2 00005C20 00000001     H   45567 45379B
 $$$851F       2 00005BD4 00000001     H   45434 45395B
 $$$852F       2 00005BD4 00000001     H   45430 45412B
 $$$853F       2 00005C00 00000001     H   45515 45497B
 $$$854F       2 00005C20 00000001     H   45563 45545B
 $$$855F       2 00005DD0 00000001     H   46256 45715B 45737B 45982B 46030B 46100B 46185B 46233B
 $$$856F       2 00005C96 00000001     H   45690 45680B
 $$$857F       2 00005CAC 00000001     H   45719 45701B
 $$$858F       2 00005CBC 00000001     H   45741 45729B
 $$$859B       4 00005CCA 00000001     I   45757 46050
 $$$859F       2 00005D5E 00000001     H   46043 45757B 45787B 45807B 45827B 46049
 $$$86F        2 000004FA 00000001     H   11566 11537B 11551B
 $$$863B       4 00005CF0 00000001     I   45842 45903
 $$$863F       2 00005D0E 00000001     H   45900 45842B 45902
 $$$864E       2 00005D12 00000001     H   45910 45904
 $$$864F       2 00005D2C 00000001     H   45958 45906B
 $$$865F       2 00005D3E 00000001     H   45986 45968B
 $$$866F       2 00005D5E 00000001     H   46034 46016B
1M1SERV   (M1SE00) (09:42) (22MAR04) Ordinary Symbol and Literal Cross Reference                                            Page  413
 $$$867E       2 00005D62 00000001     H   46057 46051
 $$$867F       2 00005DCA 00000001     H   46241 46053B
 $$$868F       2 00005D7E 00000001     H   46108 46069B
 $$$869F       2 00005D7E 00000001     H   46104 46086B
 $$$870F       2 00005DAA 00000001     H   46189 46171B
 $$$871F       2 00005DCA 00000001     H   46237 46219B
 $$$872F       2 00006008 00000001     H   47282 46505B 46584B
 $$$873F       2 00005E10 00000001     H   46449 46434B
 $$$874F       2 00005E34 00000001     H   46509 46491B
 $$$874T       2 00005E28 00000001     H   46494 46466B 46480B
 $$$877F       2 00005E4A 00000001     H   46549 46539B
 $$$878F       2 00005E76 00000001     H   46588 46570B
 $$$879        6 00006BE4 00000001     I   46605 46597X
 $$$88F        2 00000528 00000001     H   11644 11615B 11629B
 $$$880        6 00006BE4 00000001     I   46604 46605  46605
 $$$881F       2 00005EC6 00000001     H   46696 46627B
 $$$882S       2 00005E9E 00000001     H   46641 46666B
 $$$885F       2 00005EC2 00000001     H   46691 46681B
 $$$886F       2 00005EF0 00000001     H   46820 46786B
 $$$888B       4 00005F0A 00000001     I   46860 46876
 $$$888F       2 00005F18 00000001     H   46870 46860B 46875
 $$$889E       2 00005F1C 00000001     H   46883 46877
 $$$889F       2 00005FF4 00000001     H   47186 46879B
 $$$890B       4 00005F20 00000001     I   46895 46911
 $$$890F       2 00005F2A 00000001     H   46905 46895B 46910
 $$$891E       2 00005F2E 00000001     H   46918 46912
 $$$891F       2 00005FF4 00000001     H   47182 46914B
 $$$893F       2 00005FA0 00000001     H   47033 47007B
 $$$895F       2 000060C8 00000001     H   47692 47363B
 $$$897B       4 00006052 00000001     I   47446 47624
 $$$897F       2 000060B2 00000001     H   47618 47446B 47623
 $$$898F       2 000060B2 00000001     H   47614 47502B
 $$$898S       2 00006070 00000001     H   47493 47613B
 $$$900E       2 000060B6 00000001     H   47631 47625
 $$$900F       2 000060BC 00000001     H   47646 47627B
 $$$902F       2 00006122 00000001     H   47858 47799B 47819B
 $$$904F       2 0000621E 00000001     H   48289 48156B
 $$$905F       2 00006182 00000001     H   48075 48012B
 $$$906F       2 000061C4 00000001     H   48164 48089B
 $$$907F       2 000061C4 00000001     H   48160 48129B
 $$$909F       2 00006218 00000001     H   48263 48237B
 $$$91F        2 00000622 00000001     H   11946 11743B 11785B 11821B 11853B
 $$$911F       2 00006348 00000001     H   48809 48580B 48656B 48729B
 $$$912F       2 000062B2 00000001     H   48584 48566B
 $$$913F       2 000062C8 00000001     H   48621 48611B
 $$$914F       2 000062F4 00000001     H   48660 48642B
 $$$915F       2 00006300 00000001     H   48679 48670B
 $$$916        6 00006CEA 00000001     I   48692 48684X
 $$$917        6 00006CEA 00000001     I   48691 48692  48692
 $$$918        6 00006CF0 00000001     I   48708 48700X
 $$$919        6 00006CF0 00000001     I   48707 48708  48708
 $$$920F       2 00006318 00000001     H   48733 48721B
 $$$921        6 00006CF6 00000001     I   48744 48736X
 $$$922        6 00006CF6 00000001     I   48743 48744  48744
 $$$923F       2 0000639C 00000001     H   48942 48916B
 $$$924F       2 00006390 00000001     H   48920 48902B
 $$$924T       2 00006384 00000001     H   48905 48890B
 $$$926F       2 0000655C 00000001     H   49656 49106B 49165B 49261B
 $$$927F       2 000063E4 00000001     H   49110 49092B
1M1SERV   (M1SE00) (09:42) (22MAR04) Ordinary Symbol and Literal Cross Reference                                            Page  414
 $$$928F       2 0000641A 00000001     H   49169 49151B
 $$$929F       2 00006430 00000001     H   49193 49184B
 $$$930        6 00006CFC 00000001     I   49206 49198X
 $$$931        6 00006CFC 00000001     I   49205 49206  49206
 $$$932F       2 00006452 00000001     H   49265 49253B
 $$$932T       2 00006448 00000001     H   49256 49243B
 $$$934F       2 000064D8 00000001     H   49474 49306B
 $$$934S       2 00006462 00000001     H   49300 49473B
 $$$936F       2 000064D0 00000001     H   49454 49342B
 $$$937F       2 000064D0 00000001     H   49450 49359B
 $$$937S       2 00006474 00000001     H   49353 49449B
 $$$939F       2 000064B4 00000001     H   49415 49390B
 $$$940F       2 000064C8 00000001     H   49439 49429B
 $$$941F       2 00006528 00000001     H   49564 49539B
 $$$942F       2 00006624 00000001     H   50050 49824B 49883B 50015B
 $$$943F       2 000065A4 00000001     H   49828 49810B
 $$$944F       2 000065DA 00000001     H   49887 49869B
 $$$945F       2 000065F0 00000001     H   49911 49902B
 $$$946        6 00006D02 00000001     I   49924 49916X
 $$$947        6 00006D02 00000001     I   49923 49924  49924
 $$$948F       2 0000660E 00000001     H   49996 49949B
 $$$949F       2 0000660E 00000001     H   49987 49977B
 $$$95F        2 00000614 00000001     H   11928 11902B
 $$$950F       2 0000661E 00000001     H   50019 50007B
 $$$953F       2 00006696 00000001     H   50235 50220B
 $$$954F       2 00006784 00000001     H   50587 50350B
 $$$955F       2 000066DA 00000001     H   50354 50336B
 $$$956F       2 0000673E 00000001     H   50500 50380B
 $$$957B       4 000066F0 00000001     I   50398 50436
 $$$957F       2 0000670A 00000001     H   50430 50398B 50435
 $$$958E       2 0000670E 00000001     H   50443 50437
 $$$958F       2 00006724 00000001     H   50475 50439B
 $$$959F       2 00006780 00000001     H   50567 50513B
 $$$96F        2 000006AE 00000001     H   12144 12118B
 $$$960F       2 0000686C 00000001     H   50950 50690B
 $$$961F       2 000067C2 00000001     H   50694 50676B
 $$$962F       2 0000682A 00000001     H   50866 50723B
 $$$963B       4 000067D4 00000001     I   50741 50779
 $$$963F       2 000067EE 00000001     H   50773 50741B 50778
 $$$964E       2 000067F2 00000001     H   50786 50780
 $$$964F       2 00006808 00000001     H   50818 50782B
 $$$965F       2 00006820 00000001     H   50841 50829B
 $$$966F       2 0000686C 00000001     H   50931 50880B
 $$$967F       2 00006912 00000001     H   51185 51043B 51122B 51154B
 $$$968F       2 000068AC 00000001     H   51047 51029B
 $$$969F       2 000068BC 00000001     H   51069 51059B
 $$$97F        2 00000752 00000001     H   12458 12265B 12310B 12342B
 $$$970F       2 000068EE 00000001     H   51126 51108B
 $$$971F       2 00006904 00000001     H   51158 51140B
 $$$972F       2 00006974 00000001     H   51350 51304B
 $$$973F       2 0000695C 00000001     H   51308 51269B 51289B
 $$$976F       2 00006A16 00000001     H   51616 51539B
 $$$977F       2 000069AE 00000001     H   51472 51462B
 $$$978B       4 000069B0 00000001     I   51482 51570
 $$$978F       2 000069FA 00000001     H   51567 51482B 51569
 $$$979F       2 000069E8 00000001     H   51543 51525B
 $$$980F       2 000069F6 00000001     H   51562 51552B
 $$$981E       2 000069FE 00000001     H   51577 51571
 $$$981F       2 00006A02 00000001     H   51589 51573B
1M1SERV   (M1SE00) (09:42) (22MAR04) Ordinary Symbol and Literal Cross Reference                                            Page  415
 $$$984F       2 00006ABC 00000001     H   51880 51786B
 $$$986B       4 00006A9A 00000001     I   51801 51820
 $$$986F       2 00006AA2 00000001     H   51817 51801B 51819
 $$$988E       2 00006AA6 00000001     H   51827 51821
 $$$988F       2 00006ABC 00000001     H   51876 51823B 51841B 51860B
 $$$99F        2 000006FE 00000001     H   12313 12296B
 $$$992F       2 000070AA 00000001     H   53520 52208B 52251B 52332B 52375B 52440B
 $$$993F       2 00006D4A 00000001     H   52212 52194B
 $$$994B       4 00006D50 00000001     I   52225 52389
 $$$994F       2 00006DC4 00000001     H   52383 52225B 52388
 $$$995F       2 00006D68 00000001     H   52255 52242B
 $$$996F       2 00006D80 00000001     H   52297 52287B
 $$$997F       2 00006DAC 00000001     H   52336 52318B
 $$$998        6 00007A60 00000001     I   52353 52345X
 $$$999        6 00007A60 00000001     I   52352 52353  52353
 $ATTACH9      2 00002318 00000001     H   22570 22569
 $DETACH9      2 000024A6 00000001     H   23445 23444
 $ENQHLT9      2 000070B4 00000001     H   53549 53548
 $ENQTSK9      2 000070FA 00000001     H   53671 53670
 $GOFIRE9      2 00007624 00000001     H   55773 55772
 $GOVENQ9      2 0000780C 00000001     H   56667 56666
 $GOVWTO9      2 000077DC 00000001     H   56585 56584
 $STATUS9      2 000029C6 00000001     H   26137 26136
 @ACAASB       4 00000000 FFFFFFA1     A    7018 12916M 32735M 33342M 33735M
 @ACAINFO     24 00000000 FFFFFFA1     J    7029 12907U 12915M 12915  32726U 32734M 32734  33333U 33341M 33341  33726U
                                                 33734M 33734
 @ACALOT       8 00000010 FFFFFFA1     D    7022 32765  33740
 @ACAUID       8 00000004 FFFFFFA1     C    7019 12921  12922  32740
 @ACAUPR       4 0000000C FFFFFFA1     A    7020  7021
 @ACIASB       4 00000000 FFFFFFA0     A    7045 32704M 35848M 37105M
 @ACICON       8 00000010 FFFFFFA0     D    7048 35853  37113
 @ACICPU       8 00000008 FFFFFFA0     D    7047 32710
 @ACIIOS       4 00000004 FFFFFFA0     A    7046 32709  37121
 @ACINFO      40 00000000 FFFFFFA0     J    7058 32695U 32703M 32703  35839U 35847M 35847  37096U 37104M 37104
 @ACIORG       4 00000024 FFFFFFA0     A    7051 32713
 @ACIPGNM      8 00000018 FFFFFFA0     C    7049 32711
 @ACITID       4 00000020 FFFFFFA0     A    7050 32712
 @ACPASB       4 00000000 FFFFFF9F     A    7073 48780M
 @ACPINFO     12 00000000 FFFFFF9F     J    7081 48767U 48775M 48775
 @ACPPGNM      8 00000004 FFFFFF9F     C    7074 48785M
 @ACSPASB      4 00000000 FFFFFF9E     A    7096 31106M 31334M 31828M
 @ACSPINF      8 00000000 FFFFFF9E     J    7104 31093U 31101M 31101  31321U 31329M 31329  31815U 31823M 31823
 @ACSPORG      4 00000004 FFFFFF9E     A    7097 31111M 31339M
 @AWAIT        5 00000000 FFFFFF78     J    8773 55413U 55421M 55421
 @AWTECB       4 00000000 FFFFFF78     A    8757 55438M
 @AWTFLG       1 00000004 FFFFFF78     R    8760  8764
 @AWTLONG    128 00000004 FFFFFF78         8764 55444M
 @CACCIT       4 00000000 FFFFFF81     A    8410 34900M
 @CACCNO       4 00000004 FFFFFF81     F    8411 34905M
 @CACPARM      4 00000008 FFFFFF81     F    8412 34910M
 @CACTRL      12 00000000 FFFFFF81     J    8419 34887U 34895M 34895
 @CAOFLAG      1 00000008 FFFFFF82     R    8385  8389
 @CPCCLK       8 00000008 FFFFFFA4     D    6935 35938  40804  41118  50426  50769
 @CPCID        4 00000000 FFFFFFA4     A    6934 34753M 35933M 40799M 41113M 50421M 50764M
 @CPCNCK      32 00000000 FFFFFFA4     J    6943 34744U 34752M 34752  35924U 35932M 35932  40790U 40798M 40798  41104U
                                                 41112M 41112  50412U 50420M 50420  50755U 50763M 50763
 @CPSCLK       8 00000000 FFFFFFA5     D    6909 41232M 41233M 41234  41237M 41238M 50906M 50907M 50908  50911M 50912M
 @CPSET       20 00000000 FFFFFFA5     J    6918 41223U 41231M 41231  50897U 50905M 50905
 @CPSXIT       4 00000008 FFFFFFA5     A    6910 41239M 50913M
1M1SERV   (M1SE00) (09:42) (22MAR04) Ordinary Symbol and Literal Cross Reference                                            Page  416
 @DEQFL        1 00000038 FFFFFFB3     R    6472  6476
 @DEQID        4 00000000 FFFFFFB3     A    6467 47479M 52735M
 @DEQUEUE     57 00000000 FFFFFFB3     J    6485 47470U 47478M 47478  52726U 52734M 52734
 @DOAIAC       1 00000004 FFFFFF68     X   17990 17796M 18159
 @DOATIDT      4 00000000 FFFFFF68     A   17989 17772M 18069  22306M
 @DOATTN       5 00000000 FFFFFF68     J   17997 17763U 17771M 17771  18051U 22297U 22305M 22305
 @DOWAIT       4 00000000 FFFFFF69     J   17165 16930U 16938M 16938  17219U 22429U 22437M 22437  23677U 23685M 23685
 @DOWTIDT      4 00000000 FFFFFF69     A   17158 16939M 17237  22438M 23686M
 @DSPSTAT     32 00000000 FFFFFFC4     J    5848 30439U 30447M 30447  30452
 @ENQFL        1 00000038 FFFFFFB4     R    6425  6429   6434   6439
 @ENQHALT     52 00000000 FFFFFFB1     J    6552 53609U 53617M 53617
 @ENQQNM       8 00000004 FFFFFFB4     C    6419 46846M 52547M 53877M
 @ENQRNM      44 0000000C FFFFFFB4     C    6420 46845M 52548M 52560M 53878M
 @ENQSHR     128 00000038 FFFFFFB4         6429 52868  52946  52971  53900M
 @ENQSUSP     64 00000038 FFFFFFB4         6434 53926M
 @ENQTEST     32 00000038 FFFFFFB4         6439 52573M
 @ENQUEUE     57 00000000 FFFFFFB4     J    6449 46836U 46844M 46844  52538U 52546M 52546  52822U 53868U 53876M 53876
 @EQHQNM       8 00000000 FFFFFFB1     C    6544 53618M
 @EQHRNM      44 00000008 FFFFFFB1     C    6545 53619M
 @EXRADD      21 00000000 FFFFFFBF     J    6005 13254U 13262M 13262  13312M 13312  13355M 13355  13401M 13401  13448M
                                                 13448  13495M 13495  55245U 55253M 55253
 @EXRAFLG      1 00000014 FFFFFFBF     R    5987  5991   5996
 @EXRAFS      64 00000014 FFFFFFBF         5996 13297M 13340M 13386M 13432M 13476M 13523M 55275M
 @EXRDCD       1 00000000 FFFFFFBD     R    6046  6055   6065
 @EXRDEL       4 00000000 FFFFFFBE     J    6028 55697U 55705M 55705
 @EXRDFIN      0 00000000 FFFFFFBD         6055 55998M
 @EXRDID       4 00000000 FFFFFFBE     A    6021 55715M
 @EXRDONE      1 00000000 FFFFFFBD     J    6074 15512U 15520M 17091U 17099M 17922U 17930M 18692U 18700M 19494U 19502M
                                                 20552U 20560M 55984U 55992M
 @EXRPARM      4 00000010 FFFFFFBF     A    5984 13298M 13341M 13387M 13433M 13477M 13524M 55269M
 @EXRPSW       8 00000008 FFFFFFBF     D    5983 13290M 13291M 13333M 13334M 13379M 13380M 13425M 13426M 13469M 13470M
                                                 13516M 13517M 55267M 55268M
 @EXRTYPE      4 00000000 FFFFFFBF     A    5981 13268U 13318U 13361U 13407U 13454U 13501U 55259U
 @FDOFLAG      1 0000000F FFFFFF92     R    7673  7677   7682   7687   7692   7697   7702
 @FHRQID       4 00000000 FFFFFF95     A    7599 26661M
 @FILABLK      4 00000008 FFFFFF97     A    7486 37036  37642
 @FILCACT      8 00000018 FFFFFF97     D    7489 37693  37723
 @FILEBLKI
              37 00000000 FFFFFF97     J    7521 37004U 37012M 37012  37603U 37611M 37611
 @FILEHALT
               4 00000000 FFFFFF95     J    7606 26652U 26660M 26660
 @FILFCACHE
              32 00000024 FFFFFF97         7507 37680
 @FILFLAG      1 00000024 FFFFFF97     R    7493  7497   7502   7507   7512
 @FILFNA     128 00000024 FFFFFF97         7497 37047  37760
 @FILFRO      64 00000024 FFFFFF97         7502 37065  37778
 @FILFSID      4 00000000 FFFFFF97     A    7483 37013M 37612M
 @FILF4K      16 00000024 FFFFFF97         7512 37733
 @FILIOCT      4 00000020 FFFFFF97     F    7490 37692
 @FILNAME      8 00000010 FFFFFF97     C    7488 37641
 @FILTBLK      4 00000004 FFFFFF97     A    7485 37035  37643
 @FILUMAX      4 0000000C FFFFFF97     A    7487 37037
 @FMFIDID      4 00000000 FFFFFF96     A    7538 34533M
 @FMFIFLG      1 00000009 FFFFFF96     R    7544  7548   7553   7558   7563   7568   7573
 @FMFINAM     44 0000000A FFFFFF96     C    7576 34594  34594  35286
 @FMFINFO     54 00000000 FFFFFF96     J    7583 34520U 34528M 34528
 @FMFIPRI      1 00000008 FFFFFF96     X    7541 34593
 @FMFIRSV     64 00000009 FFFFFF96         7553 34575
 @FMFISHR    128 00000009 FFFFFF96         7548 34548
1M1SERV   (M1SE00) (09:42) (22MAR04) Ordinary Symbol and Literal Cross Reference                                            Page  417
 @FMFSBF       1 00000004 FFFFFF93     R    7641  7645
 @FREEIDT      4 00000000 FFFFFF63     J   27205 20939U 22916U 22924M 22924  26309U 26317M 26317  27703U 29096U 29567U
                                                 30029U
 @FRIADDR      4 00000000 FFFFFF63     A   27198 20941M 22950M 26328M 27721  29098M 29569M 30031M
 @FSADDV       8 00000000 FFFFFF91     J    7731 35022U 35030M 35030
 @FSADDVD      4 00000004 FFFFFF91     A    7724 35040M
 @FSADDVF      4 00000000 FFFFFF91     A    7723 35035M
 @GORTYPE      1 00000000 FFFFFF65     J   27154 22868U 22876M 22876  23099U 23107M 23107  23213M 23213  23355M 23355
                                                 23751U 23759M 23759  23814M 23814  23895M 23895  23975M 23975  24225U
                                                 24233M 24233  24289M 24289  24344M 24344  24399M 24399  24624U 24632M
                                                 24632  24688M 24688  24743M 24743  24798M 24798  24853M 24853  25274U
                                                 25282M 25282  25342M 25342  25397M 25397  25452M 25452  25677U 25685M
                                                 25685  25965U 25973M 25973  26244U 26252M 26252  26587U 26595M 26595
                                                 26735U 26743M 26743  26798M 26798  26853M 26853  27836U 28407U 28414U
                                                 28786U 29204U 29675U
 @GRTYPE       1 00000000 FFFFFF65     X   27147 22882M 23113M 23219M 23361M 23765M 23820M 23901M 23981M 24239M 24295M
                                                 24350M 24405M 24638M 24694M 24749M 24804M 24859M 25288M 25348M 25403M
                                                 25458M 25691M 25979M 26258M 26601M 26749M 26804M 26859M 27890  28468
                                                 28653  28936  29004  29032  29078  29312  29402  29470  29498  29549
                                                 29870  29938  29966  30011
 @LOCKCRE     17 00000000 FFFFFFB0     J    6587 10089U 10097M 10097  10165M 10165
 @LOCKFL       1 00000010 FFFFFFB0     R    6574  6578
 @LOCKID       4 00000000 FFFFFFAF     A    6599 30736M 31143M 31285M 31448M 31556M 31784M 31924M 32230M 32313M 32554M
                                                 32613M 32835M 38796M 39150M 46759M 47251M 47429M 47669M 49288M 49618M
 @LOCKNAM     16 00000000 FFFFFFB0     C    6571 10103M 10171M
 @LOCKS        4 00000000 FFFFFFAF     J    6606 30730U 31137U 31442U 31778U 31918U 32224U 32548U 32829U 38790U 39144U
                                                 46753U 47245U 47423U 47663U 49282U 49612U
 @MONSDAT      2 00000000 FFFFFFC5     H    5815 44862M
 @MONSET       2 00000000 FFFFFFC5     J    5822 44853U 44861M 44861
 @M1EHDEV      4 00000000 FFFFFF56     A   52027 26919M 53586
 @M1EICRQ      4 00000000 FFFFFF55     A   52051 54018M
 @M1EIOCP     16 00000000 FFFFFF55     J   52063 16750U 54016U
 @M1EIR01      4 00000004 FFFFFF55     A   52052 16762  16833  54020M
 @M1EIR14      4 00000008 FFFFFF55     A   52053 16816  54021M
 @M1EIR15      4 0000000C FFFFFF55     A   52054 16789  54019M
 @M1EQHLT      4 00000000 FFFFFF56     J   52034 26910U 26918M 26918  53581U
 @M1FCLP     128 00000025 FFFFFF99         7330 27964M
 @M1FDVID      4 00000020 FFFFFF99     A    7320 27911M 28119
 @M1FILE      41 00000000 FFFFFF99     J    7438 27877U 27885M 27885
 @M1FILID      1 00000024 FFFFFF99     X    7322 27906M
 @M1FLAG       1 00000025 FFFFFF99     R    7326  7330   7335   7340
 @M1FM31      32 00000025 FFFFFF99         7340 28055M
 @M1FPKEY      1 00000026 FFFFFF99     X    7344 27891M 27892M
 @M1FPOST     16 00000000 FFFFFF98     J    7466 16164U
 @M1FPRIV      1 00000027 FFFFFF99     X    7346 27897M
 @M1FPRQI      4 00000000 FFFFFF98     A    7455 16257
 @M1FPR01      4 0000000C FFFFFF98     A    7459 16230  16249
 @M1FPR14      4 00000004 FFFFFF98     A    7457 16176  16247
 @M1FPR15      4 00000008 FFFFFF98     A    7458 16203  16248
 @M1FREDV      1 00000080 FFFFFF98 A   U    7456 16257
 @M1FRQID      4 0000001C FFFFFF99     A    7319 27901M
 @M1FR00       4 00000008 FFFFFF99     A    7311 28115
 @M1FR01       4 0000000C FFFFFF99     A    7312 28116
 @M1FR14       4 00000000 FFFFFF99     A    7309  7313   7313  27900M 28118
 @M1FR15       4 00000004 FFFFFF99     A    7310 28117  28158M 28158
 @M1FSPI      64 00000025 FFFFFF99         7335 28020M
 @M1FTYPE      1 00000028 FFFFFF99     R    7350  7359   7369   7379   7389   7399   7409   7419   7429  27890M
 @M1FWR01      4 00000018 FFFFFF99     A    7317 28249  28268
 @M1FWR14      4 00000010 FFFFFF99     A    7315 28195  28266
1M1SERV   (M1SE00) (09:42) (22MAR04) Ordinary Symbol and Literal Cross Reference                                            Page  418
 @M1FWR15      4 00000014 FFFFFF99     A    7316 28222  28267
 @M1JDONE      1 00000080 FFFFFF8C A   U    8015 16557
 @M1JDVID      4 00000010 FFFFFF8D     A    7918 29401M 29504
 @M1JES       23 00000000 FFFFFF8D     J    7997 29361U 29369M 29369
 @M1JFL        1 00000016 FFFFFF8D     R    7979  7983   7988
 @M1JICRQ      4 00000000 FFFFFF8C     A    8014 16559
 @M1JIOCP     16 00000000 FFFFFF8C     J    8028 16451U
 @M1JIR01      4 00000004 FFFFFF8C     A    8017 16477  16548
 @M1JIR14      4 00000008 FFFFFF8C     A    8018 16531
 @M1JIR15      4 0000000C FFFFFF8C     A    8019 16504
 @M1JM31      64 00000016 FFFFFF8D         7988 29423M
 @M1JPKEY      1 00000014 FFFFFF8D     X    7920 29403M 29404M
 @M1JRQID      4 0000000C FFFFFF8D     A    7917 29400M
 @M1JR01       4 00000000 FFFFFF8D     A    7914 29370M
 @M1JR14       4 00000004 FFFFFF8D     A    7915 29371M
 @M1JR15       4 00000008 FFFFFF8D     A    7916 29372M
 @M1JTYPE      1 00000015 FFFFFF8D     R    7924  7933   7943   7953   7963   7973  29402M
 @M1JWAIT    128 00000016 FFFFFF8D         7983 29395M
 @M1NDVID      4 00000010 FFFFFF8B     A    8055 29869M 29972
 @M1NET       23 00000000 FFFFFF8B     J    8144 29829U 29837M 29837
 @M1NFL        1 00000016 FFFFFF8B     R    8126  8130   8135
 @M1NIOCP     16 00000000 FFFFFF8A     J    8174 16616U
 @M1NIR01      4 00000004 FFFFFF8A     A    8163 16642  16713
 @M1NIR14      4 00000008 FFFFFF8A     A    8164 16696
 @M1NIR15      4 0000000C FFFFFF8A     A    8165 16669
 @M1NM31      64 00000016 FFFFFF8B         8135 29891M
 @M1NPKEY      1 00000014 FFFFFF8B     X    8057 29871M 29872M
 @M1NRQID      4 0000000C FFFFFF8B     A    8054 29868M
 @M1NR01       4 00000000 FFFFFF8B     A    8051 29838M
 @M1NR14       4 00000004 FFFFFF8B     A    8052 29839M
 @M1NR15       4 00000008 FFFFFF8B     A    8053 29840M
 @M1NTYPE      1 00000015 FFFFFF8B     R    8061  8070   8080   8090   8100   8110   8120  29870M
 @M1NWAIT    128 00000016 FFFFFF8B         8130 29863M
 @M1PATH      23 00000000 FFFFFF90     J    7837 28895U 28903M 28903
 @M1PDVID      4 00000010 FFFFFF90     A    7758 28935M 29039
 @M1PFL        1 00000016 FFFFFF90     R    7819  7823   7828
 @M1PIOCP     16 00000000 FFFFFF8F     J    7866 16316U
 @M1PIR01      4 00000004 FFFFFF8F     A    7855 16342  16413
 @M1PIR14      4 00000008 FFFFFF8F     A    7856 16396
 @M1PIR15      4 0000000C FFFFFF8F     A    7857 16369
 @M1PM31      64 00000016 FFFFFF90         7828 28957M
 @M1PPKEY      1 00000014 FFFFFF90     X    7760 28937M 28938M
 @M1PRQID      4 0000000C FFFFFF90     A    7757 28934M
 @M1PR01       4 00000000 FFFFFF90     A    7754 28904M
 @M1PR14       4 00000004 FFFFFF90     A    7755 28905M
 @M1PR15       4 00000008 FFFFFF90     A    7756 28906M
 @M1PTYPE      1 00000015 FFFFFF90     R    7764  7773   7783   7793   7803   7813  28936M
 @M1PWAIT    128 00000016 FFFFFF90         7823 28929M
 @M1TATCT      4 00000004 FFFFFF9A     A    7273 17795
 @M1TATP      16 00000000 FFFFFF9A     J    7281 17793U
 @M1TERM      27 00000000 FFFFFF9D     J    7205 28455U 28463M 28463
 @M1TFAUTH
              64 00000018 FFFFFF9D         7144 28570M
 @M1TFLG       1 00000018 FFFFFF9D     R    7135  7139   7144   7149
 @M1TFM31     32 00000018 FFFFFF9D         7149 28602M
 @M1TFRUN    128 00000018 FFFFFF9D         7139 28518M
 @M1TIOCP     16 00000000 FFFFFF9B     J    7255 16016U
 @M1TIR01      4 00000004 FFFFFF9B     A    7244 16042  16113
 @M1TIR14      4 00000008 FFFFFF9B     A    7245 16096
1M1SERV   (M1SE00) (09:42) (22MAR04) Ordinary Symbol and Literal Cross Reference                                            Page  419
 @M1TIR15      4 0000000C FFFFFF9B     A    7246 16069
 @M1TPGM       8 00000010 FFFFFF9D     C    7131 28474M 28501M
 @M1TPKEY      1 00000019 FFFFFF9D     X    7153 28469M 28470M
 @M1TRQID      4 0000000C FFFFFF9D     A    7130 28467M
 @M1TR01       4 00000000 FFFFFF9D     A    7127 28464M
 @M1TR14       4 00000004 FFFFFF9D     A    7128 28465M
 @M1TR15       4 00000008 FFFFFF9D     A    7129 28466M
 @M1TTYPE      1 0000001A FFFFFF9D     R    7157  7166   7176   7186   7196  28468M
 @PAGE         9 00000000 FFFFFFD8     J    5351 21362U 21370M 21370  31374U 31382M 31382  32968U 32976M 32976  33036M
                                                 33036  35106U 35114M 35114  35629U 36429U 36437M 36437  37878U 37886M
                                                 37886  38194U 38202M 38202  38346M 38346  38463M 38463  39376U 39384M
                                                 39384  40597U 40605M 40605  41849U 41857M 41857  42542U 42550M 42550
                                                 44286U 44294M 44294  44766U 44774M 44774  45325U 45528U 45999U 46202U
                                                 46522U 46530M 46530  48370U 48378M 48378  48594U 48602M 48602  49121U
                                                 49129M 49129  49839U 49847M 49847  51079U 51087M 51087  51496U 51504M
                                                 51504  52269U 52277M 52277
 @PAGHASH      1 00000008 FFFFFFD8     U    5344 48398M
 @PAGKEY       1 00000008 FFFFFFD8     X    5343  5344  21373M 21374M 36459M 36460M 37902M 37903M 38368M 38369M 38485M
                                                 38486M 41860M 41861M 42572M 42573M 44316M 44317M 44796M 44797M 46552M
                                                 46553M 48624M 48625M 49133M 49134M 49851M 49852M 51090M 51091M 51507M
                                                 51508M 52300M 52301M
 @PAGLEN       4 00000004 FFFFFFD8     A    5342 21372M 31384M 32978M 33038M 35116M 35632M 36458M 37901M 38204M 38367M
                                                 38484M 39394M 40625M 41859M 42571M 44315M 44795M 45328M 45531M 46002M
                                                 46205M 46551M 48388M 48623M 49132M 49850M 51089M 51506M 52299M
 @PAGLOC       4 00000000 FFFFFFD8     A    5341 21371M 31383M 32977M 33037M 35115M 35631M 36457M 37891M 38203M 38366M
                                                 38483M 39389M 40615M 41858M 42570M 44314M 44794M 45327M 45530M 46001M
                                                 46204M 46550M 48383M 48622M 49131M 49849M 51088M 51505M 52298M
 @PDF1         1 00000009 FFFFFFDC     R    5247  5248   5253
 @PERSDAT      4 00000000 FFFFFFC6     F    5792 44436M
 @PERSET      12 00000000 FFFFFFC6     J    5799 44427U 44435M 44435
 @RA           0 00000000 FFFFFFFC     @    1035 10733  10826  10926  12359  20098  30452M 30533  30790  31978  32709M
                                                 32710M 32711M 32712M 32713M 32740M 32776M 32785M 34538M 34561M 34588M
                                                 34593M 34594M 35657  36612  36644  36666  37641M 37642M 37643M 37670M
                                                 37670  37687M 37692M 37693M 37722M 37722  37723M 37740M 41901  41902
                                                 41905  41937  42825  44353  44833  45742  46604  48691  49205  49923
                                                 52352  52560  52651  52698  52710M 52710  53032  53079  53120  53132
 @RB           0 00000000 FFFFFFFB     @    1047 21917M 21918M 21919M 30828  33087  36206  36207  36575  40454  42702M
                                                 42916  43876  45064  46632  51594  51595  51597M 54374  54683  54714
 @REQFL        1 00000038 FFFFFFB2     R    6508  6512   6517
 @REQID        4 00000000 FFFFFFB2     A    6503 53759M
 @REQSHR     128 00000038 FFFFFFB2         6512 53781M
 @REQSUSP     64 00000038 FFFFFFB2         6517 53807M
 @REQUEUE     57 00000000 FFFFFFB2     J    6526 53750U 53758M 53758
 @RESCTL       8 00000000 FFFFFFD1     D    5519 15484M 17063M 17887M 18660M 47843M
 @RESUME       8 00000000 FFFFFFD1     J    5528 15475U 15483M 15483  17054U 17062M 17062  17878U 17886M 17886  18651U
                                                 18659M 18659  47834U 47842M 47842
 @RJ           0 00000000 FFFFFFFA     @    1059 12361  12386  12422M
 @RK           0 00000000 FFFFFFF9     @    1071 11930  43701
 @RS           0 00000000 FFFFFFFD     @    1023 17796  25722  29509  33284  33795  36053M 36054M 36055M 36056M 36057M
                                                 36057  36058M 36329M 36330M 36644M 36832M 36913M 37375M 37411M 37507
                                                 53953M 54497  54506  54507
 @RTCCLK       8 00000008 FFFFFFA7     D    6860 35983  40849  41163  50471  50814
 @RTCID        4 00000000 FFFFFFA7     A    6859 34797M 35978M 40844M 41158M 50466M 50809M 55557M
 @RTCNCK      32 00000000 FFFFFFA7     J    6868 34788U 34796M 34796  35969U 35977M 35977  40835U 40843M 40843  41149U
                                                 41157M 41157  50457U 50465M 50465  50800U 50808M 50808  55539U 55547M
                                                 55547
 @RTSCLK       8 00000000 FFFFFFA8     D    6825 34844M 40921M 40922M 40923  40926M 40927M 50539M 50540M 50541  50544M
                                                 50545M 55346M
 @RTSET       24 00000000 FFFFFFA8     J    6843 34835U 34843M 34843  40912U 40920M 40920  50530U 50538M 50538  55337U
1M1SERV   (M1SE00) (09:42) (22MAR04) Ordinary Symbol and Literal Cross Reference                                            Page  420
                                                 55345M 55345
 @RTSFINT    128 00000008 FFFFFFA8         6832 34850M 40933M 50551M 55352M
 @RTSFLG       1 00000008 FFFFFFA8     R    6828  6832
 @RTSPARM      4 00000010 FFFFFFA8     A    6836 55373M
 @RTSXIT       4 0000000C FFFFFFA8     A    6835 34851M 40934M 50552M 55362M
 @R0           0 00000000 FFFFFFFE     @     715   991U  2549U 11961U 12006U
 @R1           0 00000000 FFFFFFFD     @     728   987U 13235U 17315U 18271U 27545U 27744U 30479U 30503U 36197U 36318U
                                                 36522U 36820U 37236U 37271U 38764U 41712U 42046U 42201U 42649U 55042U
 @R10          0 00000000 FFFFFFF4     @     845   951U 12168U 12456U 13727U 14629U 15546U 15700U 15806U 17130U 17351U
                                                 17961U 18307U 18726U 19528U 19850U 20586U 20973U 21062U 21212U 21450U
                                                 21562U 21674U 22004U 22495U 23414U 24059U 24458U 24913U 25511U 25799U
                                                 26106U 26360U 26947U 27036U 27122U 27409U 27642U 27775U 28343U 28722U
                                                 29140U 29611U 30085U 35245U 38603U 39187U 39908U 40203U 40277U 40653U
                                                 40967U 41275U 41465U 41722U 42127U 42251U 42368U 42722U 43140U 43595U
                                                 44009U 44531U 44926U 45580U 46254U 47280U 47690U 47915U 48287U 48414U
                                                 48807U 48940U 49654U 50048U 50135U 50248U 50585U 50948U 51183U 51348U
                                                 51614U 51707U 51892U 53518U 53640U 54167U 54551U 54728U 54839U 55746U
                                                 56025U 56243U 56535U 56614U 56696U
 @R11          0 00000000 FFFFFFF3     @     858   947U
 @R12          0 00000000 FFFFFFF2     @     871   943U 12163U 12451U 14624U 15541U 17125U 17346U 17956U 18302U 18721U
                                                 19523U 20581U 21999U 22490U 27770U 28338U 28717U 29135U 29606U 30080U
                                                 35240U 38598U 39182U 40648U 40962U 41270U 47275U 47910U 48802U 49649U
                                                 50043U 50580U 50943U 51609U 53635U 54162U 54546U 54723U 54832M 56020U
 @R13          0 00000000 FFFFFFF1     @     884   939U 10086U 10473U 10954U 12179U 12904U 12945U 13251U 13541U 13624U
                                                 13692U 13738U 14205U 14297U 14466U 14558U 14640U 15323U 15472U 15509U
                                                 15557U 15711U 15817U 16927U 16959U 17051U 17088U 17141U 17362U 17716U
                                                 17760U 17821U 17875U 17919U 17972U 18236U 18318U 18525U 18569U 18595U
                                                 18648U 18689U 18737U 18954U 19010U 19106U 19456U 19491U 19539U 19823U
                                                 19861U 20040U 20160U 20226U 20343U 20474U 20517U 20549U 20597U 20984U
                                                 21223U 21415U 21461U 21573U 21685U 21959U 22015U 22426U 22506U 22913U
                                                 23096U 23425U 23748U 24070U 24469U 24924U 25522U 25810U 26117U 26306U
                                                 26371U 26649U 26732U 26907U 26958U 28354U 28733U 29093U 29151U 29564U
                                                 29622U 30026U 30096U 30727U 30930U 31090U 31134U 31318U 31371U 31439U
                                                 31633U 31775U 31812U 31915U 32068U 32221U 32474U 32545U 32692U 32723U
                                                 32826U 32965U 33105U 33189U 33330U 33525U 33723U 33750U 33816U 34517U
                                                 34741U 34785U 34832U 34884U 35019U 35103U 35256U 35626U 35792U 35836U
                                                 35921U 35966U 36037U 36426U 37001U 37093U 37447U 37600U 37875U 37942U
                                                 38001U 38114U 38191U 38614U 39027U 39141U 39198U 39432U 39919U 40594U
                                                 40664U 40832U 40909U 40978U 41146U 41220U 41286U 41476U 41733U 42068U
                                                 42138U 42733U 43151U 43606U 44020U 44424U 44542U 44850U 44937U 45322U
                                                 45451U 45525U 45591U 45996U 46125U 46199U 46265U 46750U 46833U 46965U
                                                 47076U 47242U 47291U 47467U 47585U 47660U 47701U 47871U 47926U 48184U
                                                 48298U 48425U 48764U 48818U 49279U 49497U 49609U 49665U 50059U 50454U
                                                 50527U 50596U 50797U 50894U 50959U 51194U 51625U 52535U 52723U 52819U
                                                 53199U 53450U 53529U 53651U 53865U 53996U 54042U 54135U 54178U 54850U
                                                 55215U 55242U 55291U 55334U 55410U 55484U 55536U 55618U 55653U 55694U
                                                 55757U 55913U 55981U 56033U 56165U 56254U
 @R14          0 00000000 FFFFFFF0     @     897   935U 11723U 13196  28031U 30527U 33679U 33703U 36575M 37174U 37198U
                                                 37222U 37314  37343  42702  43699M 46644  46647  47544U 48040U 53401
                                                 56354U 56395U
 @R15          0 00000000 FFFFFFEF     @     910   931U 23604U 26528U 28580U 28642U 28993U 29459U 29927U 33171  33361U
                                                 33412U 33436U 34191  34365  35769U 36004U 36018U 42354U 47162U 47568U
                                                 48064U 53495U 56655U
 @R2           0 00000000 FFFFFFFC     @     741   983U 10071U 12357U 12648U 12676U 12890U 20963U 21831U 22330U 22459U
                                                 27617U 28843U 29120U 29261U 29591U 29732U 29784U 30057U 30065U 32529U
                                                 32915U 32945U 33655U 33933U 33974U 34008U 34146U 34371U 34934U 34954U
                                                 34968U 34994U 35193U 35721U 35746U 37382U 38921U 39108U 39804U 41987U
                                                 46723U 46770U 47121U 47172U 47215U 47262U 48277U 49470U 56530U
 @R3           0 00000000 FFFFFFFB     @     754   979U 12441U 12839U 14608U 32855U 39162U 39658U 47179U 47610U 47905U
1M1SERV   (M1SE00) (09:42) (22MAR04) Ordinary Symbol and Literal Cross Reference                                            Page  421
                                                 49446U 49629U 49993U
 @R4           0 00000000 FFFFFFFA     @     767   975U 11943U 12880U 31174U 31460U 31794U 32249U 32524U 32848U 33865U
                                                 34622U 35198U 38588U 39172U 39744U 39903U 43723U 45366U 46040U 49325U
                                                 49634U 53482U 53630U 54941U 55731U
 @R5           0 00000000 FFFFFFF9     @     780   971U 17110U 17941U 30699U 31181U 31261U 31467U 38583U 39167U 39705U
                                                 39893U 47395U 47680U 49064U 49639U 49782U 50033U 54157U
 @R6           0 00000000 FFFFFFF8     @     793   967U 15536U 17120U 17336U 17951U 18292U 18716U 19518U 20576U 22758U
                                                 22857U 22957U 23126U 23232U 23374U 24049U 24448U 24903U 25501U 25789U
                                                 26096U 26355U 26937U 27399U 27760U 28328U 28707U 29125U 29596U 30070U
                                                 51331U 53508U
 @R7           0 00000000 FFFFFFF7     @     806   963U 12158U 12446U 13722U 13845U 14619U 15531U 15695U 15801U 17115U
                                                 17341U 17946U 18297U 18711U 19513U 19845U 20571U 20968U 21057U 21207U
                                                 21445U 21557U 21669U 21994U 22485U 23409U 24054U 24453U 24908U 25506U
                                                 25794U 26101U 26350U 26942U 27031U 27117U 27404U 27637U 27765U 28333U
                                                 28712U 29130U 29601U 30075U 35235U 38593U 39177U 40198U 40272U 40643U
                                                 40957U 41265U 41460U 41717U 42122U 42246U 42363U 42717U 43135U 43590U
                                                 43714U 44004U 44526U 44921U 45575U 46249U 47270U 47685U 47900U 48282U
                                                 48409U 48797U 48935U 49644U 50038U 50130U 50243U 50575U 50938U 51178U
                                                 51343U 51604U 51702U 51887U 53513U 55741U 56087U 56238U
 @R8           0 00000000 FFFFFFF6     @     819   959U 31532U 31799U 31887U 32254U 32289U 33949U 34024U 35222U 43087U
                                                 43111U 43336U 43360U 43709U 55736U 56015U
 @R9           0 00000000 FFFFFFF5     @     832   955U 11650U 56010U 56228U
 @SBIFLG       1 00000008 FFFFFF7D     R    8510  8515   8521   8526
 @SCCODE       4 00000000 FFFFFF67     A   21702 13698M 15787M 18189M 18575M 19829M 21161M 21421M 21537M 21649M 21899
                                                 21943
 @SDF1         1 00000009 FFFFFFDB     R    5279  5280
 @SEG         13 00000000 FFFFFFAE     J    6668 13871U 13879M 13879  13940M 13940  13992M 13992  14062M 14062  14116M
                                                 14116  14169M 14169  14300U 14308M 14308  14349M 14349  14561U 14569M
                                                 14569
 @SEGB       128 0000000C FFFFFFAE         6628  6643   6643
 @SEGCB        4 00000000 FFFFFFAE     A    6619 13917M 13955M 14030M 14100M 14152M 14184M 14323M 14387M 14584M
 @SEGCORE     24 00000000 FFFFFFAB     J    6763 14208U 14216M 14216  14469U 14477M 14477
 @SEGEOR      16 0000000C FFFFFFAE         6654 13923M 13961M 14036M 14190M 14329M 14393M 14590M
 @SEGLEN       4 00000008 FFFFFFAE     A    6621 13910M 13948M 13948  14023M 14093M 14145M 14177M 14177  14316M 14316
                                                 14380M 14577M 14577
 @SEGLOC       4 00000004 FFFFFFAE     A    6620 13893M 14006M 14076M 14128M 14363M
 @SEGT        64 0000000C FFFFFFAE         6633  6643   6643
 @SEGTYPE      1 0000000C FFFFFFAE     R    6624  6628   6633   6644   6649   6654   6659
 @SEGXCB       4 00000000 FFFFFFAB     A    6722 14281M 14542M
 @SEGXFAL     64 0000000D FFFFFFAB         6737 14269  14269  14270  14270  14273  14273  14530  14530  14531  14531
                                                 14534  14534
 @SEGXFID     16 0000000D FFFFFFAB         6747 14268  14268  14269  14269  14271  14271  14274M 14529  14529  14530
                                                 14530  14532  14532  14535M
 @SEGXFLG      1 0000000D FFFFFFAB     R    6728  6732   6737   6742   6747   6752
 @SEGXFOF     32 0000000D FFFFFFAB         6742 14268  14268  14270  14270  14272  14272  14529  14529  14531  14531
                                                 14533  14533
 @SEGXF16    128 0000000D FFFFFFAB         6732 14271  14271  14272  14272  14273  14273  14532  14532  14533  14533
                                                 14534  14534
 @SEGXID       4 00000014 FFFFFFAB     C    6756 14251M 14512M
 @SEGXLOC      4 00000004 FFFFFFAB     A    6723 14228M 14245M 14256  14489M 14506M 14517
 @SEGXOFF      4 00000010 FFFFFFAB     A    6755 14256M 14517M
 @SETCLP       4 00000000 FFFFFF67     J   21709 13695U 15784U 18186U 18572U 19826U 21158U 21418U 21534U 21646U 21766U
 @SETEXIT      4 00000000 FFFFFF58     J   51380 41437U 41445M 41445  41689U 41697M 41697  51433U
 @SETEXL       4 00000000 FFFFFF58     A   51373 41446M 41698M 51593
 @SGASB        4 0000000C FFFFFF77     A    8795 55956M 56208M
 @SGCODE       8 00000000 FFFFFF77     D    8790 55951M 56203M
 @SGECB        4 00000008 FFFFFF77     A    8791 55941M 56193M
 @SGSRID       4 00000010 FFFFFF77     A    8796 55966M 56218M
 @SIGNAL      20 00000000 FFFFFF77     J    8804 55916U 55924M 55924  56168U 56176M 56176
1M1SERV   (M1SE00) (09:42) (22MAR04) Ordinary Symbol and Literal Cross Reference                                            Page  422
 @SSNAME     200 00000000 FFFFFF70     C    9529 37459M 37460  37460M 37460  37507M 38640  38890  38994
 @SSRV         4 000000CC FFFFFF70     F    9531 38738M 38738  38739M 38903M 38903  39007M 39007  39129M 39155
 @SSWA       208 00000000 FFFFFF70     J    9538 37450U 37458M 37458  38709U
 @SSWORD       4 000000C8 FFFFFF70     A    9530 37526  38733M 38733  38896M 39000M
 @SUSPCTL      8 00000000 FFFFFFD2     D    5475 20499
 @SUSPEND      9 00000000 FFFFFFD2     J    5503 20477U 20485M 20485
 @SUSPFLG      1 00000008 FFFFFFD2     R    5480  5484   5489   5494
 @SUSPLNG    128 00000008 FFFFFFD2         5484 20493  20493  20494M
 @SUSPPLC     32 00000008 FFFFFFD2         5494 20493  20493
 @SWFLG        1 00000004 FFFFFFDF     R    5142  5151   5161   5171
 @SYSPARS      4 00000000 FFFFFFC7     A    5769 47758
 @SYSRASB      4 00000004 FFFFFFC8     A    5744 47598M
 @SYSRDEL      4 00000000 FFFFFFC9     J    5727 47874U 47882M 47882  48103U 48111M 48111  55487U 55495M 55495
 @SYSRDID      4 00000000 FFFFFFC9     A    5720 47883M 48112M 55505M
 @SYSRDO      28 00000000 FFFFFFC8     J    5753 47588U 47596M 47596
 @SYSRID       4 00000000 FFFFFFC8     A    5743 47597M
 @SYSRLOC      4 00000008 FFFFFFC8     A    5745 47599M
 @SYSRNEW      4 00000000 FFFFFFCA     J    5705 47079U 47087M 47087  55889U 55897M 55897  56141U 56149M 56149
 @SYSRPRM      4 0000000C FFFFFFC8     A    5746 47600M
 @SYSRTN      16 00000000 FFFFFFC7     J    5776 47753U
 @TCREATE     21 00000000 FFFFFFCE     J    5613 53453U 53461M 53461
 @TCRFLAG      1 00000014 FFFFFFCE     R    5595  5599   5604
 @TCRFSTK    128 00000014 FFFFFFCE         5599 53472M
 @TCRPARM      4 00000008 FFFFFFCE     A    5591 53462M
 @TCRPRIO      4 00000010 FFFFFFCE     A    5592 53464M
 @TCRPSW       8 00000000 FFFFFFCE     D    5590 53465M 53466M
 @TENTRY       8 00000000 FFFFFFCC     J    5659 53703U
 @TEPARM       4 00000000 FFFFFFCC     A    5652 53708
 @TERUINF      8 00000000 FFFFFF9C     J    7227 36040U 36048M 36048
 @TERUTYP      8 00000000 FFFFFF9C     C    7220 36056
 @TEXIT        4 00000000 FFFFFFCB     J    5682 54138U 54146M 54146
 @TOD         20 00000000 FFFFFF54     J   54204 33753U 33761M 33761  35795U 35803M 35803  54304U 54311U 54613U 54620U
                                                 54787U 54795M 54795
 @TODCLK       8 00000000 FFFFFF54     D   54195 33762M 54314  54623
 @TODDAT       4 00000010 FFFFFF54     A   54197 33771  35816  54397M 54441  54456  54535M 54539M 54716M 54831
 @TODTIM       8 00000008 FFFFFF54     D   54196 33770  35811  54381M 54691M 54803
 @UTBASIC     12 00000000 FFFFFF6F     X    9580 12359
 @UTCATTN      1 00000002 FFFFFF6F A   U    9573 18766
 @UTCLASS      1 00000000 FFFFFF6F     X    9556  9580   9580  14882M 14956M 15079M 15199M 15652M 17285M 17480M 18241M
                                                 19111M 19181M 19235M 19721M 20045M 20231M 21894M 42073M
 @UTCODE       2 00000001 FFFFFF6F     X    9569 14887M 14961M 15084M 15204M 15657M 17290M 17485M 18246M 19116M 19186M
                                                 19240M 19726M 20050M 20236M 21899M 42078M
 @UTCPAN       1 00000003 FFFFFF6F A   U    9574 22546
 @UTCSVC       1 00000004 FFFFFF6F A   U    9575 22547
 @UTCTIME      1 00000000 FFFFFF6F A   U    9571 18763
 @UTCWAIT      1 00000001 FFFFFF6F A   U    9572 18764
 @UTDATA       4 0000000C FFFFFF6F     A    9581 15663M 17296M 17297M 18252M 18253M 19122M 19192M 19246M 19732M 19733M
                                                 20056M 20057M 20058M 20059M 20242M 20243M
 @UTDWC        1 00000003 FFFFFF6F     X    9577 12356  14893M 14967M 15090M 15210M 15664M 17298M 17491M 18254M 19123M
                                                 19193M 19247M 19734M 20060M 20244M 21905M 42084M
 @UTPSW        8 00000004 FFFFFF6F     X    9578 14892M 14966M 15089M 15209M 15662M 17295M 17490M 18251M 19121M 19191M
                                                 19245M 19731M 20055M 20241M 21904M 42083M
 @UTRACE      28 00000000 FFFFFF6F     J    9588 12231U 12422  14880U 15650U 17283U 17478U 18239U 19109U 19719U 20043U
                                                 20229U 21892U 42071U
 @VMFLEN       4 00000004 FFFFFFE1     A    5088 31649M 31697M 32502M 33210M 33844M 35581M 38135M 39448M 39496M 39636M
                                                 39863M 40521M 43417M 43518M 45207M 45265M 45472M 45881M 45939M 46146M
                                                 48212M 54070M
 @VMFLOC       4 00000000 FFFFFFE1     A    5087 31654M 31702M 32512M 33220M 33854M 35591M 38145M 39453M 39501M 39647M
                                                 39874M 40531M 43427M 43528M 45217M 45275M 45482M 45891M 45949M 46156M
1M1SERV   (M1SE00) (09:42) (22MAR04) Ordinary Symbol and Literal Cross Reference                                            Page  423
                                                 48222M 54080M
 @VMFPOOL      2 00000008 FFFFFFE1     H    5089 31655M 31703M 32513M 33221M 33855M 35592M 38146M 39454M 39502M 39648M
                                                 39875M 40532M 43428M 43529M 45218M 45276M 45483M 45892M 45950M 46157M
                                                 48223M 54081M
 @VMFREE      10 00000000 FFFFFFE1     J    5096 31636U 31644M 31644  31692M 31692  32477U 32485M 32485  33192U 33200M
                                                 33200  33819U 33827M 33827  35563U 35571M 35571  38117U 38125M 38125
                                                 39435U 39443M 39443  39491M 39491  39619M 39619  39846M 39846  40503U
                                                 40511M 40511  43399U 43407M 43407  43508M 43508  45189U 45197M 45197
                                                 45255M 45255  45454U 45462M 45462  45863U 45871M 45871  45929M 45929
                                                 46128U 46136M 46136  48187U 48195M 48195  54045U 54053M 54053
 @VMGDAT       4 00000004 FFFFFFE2     A    5053 43036M 43958M
 @VMGET       11 00000000 FFFFFFE2     J    5075  9955U  9963M  9963  10957U 10965M 10965  11878M 11878  12038M 12038
                                                 12090M 12090  12533U 12541M 12541  12754M 12754  12948U 12956M 12956
                                                 13040M 13040  13121M 13121  30933U 30941M 30941  30984M 30984  32071U
                                                 32079M 32079  33108U 33116M 33116  33528U 33536M 33536  37945U 37953M
                                                 37953  39030U 39038M 39038  43001U 43009M 43009  43923U 43931M 43931
                                                 46968U 46976M 46976  49500U 49508M 49508  53202U 53210M 53210  55125U
                                                 55133M 55133
 @VMGFLG       1 0000000A FFFFFFE2     R    5057  5061   5066
 @VMGLEN       4 00000000 FFFFFFE2     A    5052  9980M 10982M 11888M 12051M 12103M 12558M 12764M 12966M 13050M 13131M
                                                 30946M 30989M 32096M 33126M 33553M 37963M 39055M 43019M 43113  43120
                                                 43941M 43989  46993M 49525M 53227M 55150M
 @VMGPAGE    128 0000000A FFFFFFE2         5061 12058M 43026M 43948M
 @VMGPOOL      2 00000008 FFFFFFE2     H    5054  9981M 10983M 11889M 12052M 12104M 12559M 12765M 12967M 13051M 13132M
                                                 30947M 30990M 32097M 33127M 33554M 37964M 39056M 43020M 43942M 46994M
                                                 49526M 53228M 55151M
 @VMINFO       9 00000000 FFFFFFE0     J    5117 10476U 10484M 10484
 @VMITRSH      1 00000008 FFFFFFE0     X    5110 10491
 @VMIULEN      4 00000004 FFFFFFE0     A    5109 10490
 @VMIUST       4 00000000 FFFFFFE0     A    5108 10489
 @WSFLG        1 0000000C FFFFFFDD     R    5216  5220
 @XAMASB       4 00000000 FFFFFF83     A    8353 38017M
 @XAMDLEN      4 0000000C FFFFFF83     A    8356 38037M 38081
 @XAMDLOC      4 00000008 FFFFFF83     A    8355 38032M
 @XAMEM       24 00000000 FFFFFF83     J    8364 38004U 38012M 38012
 @XAMSLOC      4 00000004 FFFFFF83     A    8354 38022M
 @XAMTIME      8 00000010 FFFFFF83     D    8357 38042M
 @XITDATA      4 00000000 FFFFFFB6     J    6373 14768U 15869U 17414U 18370U 18824U 19958U 55805U
 @XITDEL       4 00000000 FFFFFFBB     J    6128 55621U 55629M 55629
 @XITDID       4 00000000 FFFFFFBB     A    6121 55639M
 @XITDO       32 00000000 FFFFFFBA     J    6154 53999U 54007M 54007
 @XITDSA       4 00000000 FFFFFFB6     A    6366 14777  15878  17423  18379  18833  19964  55810
 @XITGPST    104 00000000 FFFFFFB9     J    6180 15326U 15334M 15334  15421M 15421  16886U 16894M 16894  16962U 16970M
                                                 16970  17719U 17727M 17727  17824U 17832M 17832  18528U 18536M 18536
                                                 18598U 18606M 18606  18895U 18903M 18903  19013U 19021M 19021  19459U
                                                 19467M 19467  20001U 20009M 20009  20520U 20528M 20528
 @XITMASK      5 00000000 FFFFFFB8     J    6237 13544U 13552M 13552  18427U 18435M 18435  18957U 18965M 18965  20163U
                                                 20171M 20171  20346U 20354M 20354  21962U 21970M 21970  55294U 55302M
                                                 55302  55656U 55664M 55664
 @XITMREQ      1 00000004 FFFFFFB8     R    6199  6208   6218   6228
 @XITMSK       4 00000000 FFFFFFB8     A    6196 13558U 18441U 18971U 20177U 20360U 21976U 55308U 55674M
 @XITMSS       2 00000004 FFFFFFB8         6228 55680M
 @XITNEW       1 00000000 FFFFFFBC     J    6105 13627U 13635M 13655M 13674M 55218U 55226M
 @XITNFL       1 00000000 FFFFFFBC     R    6092  6096
 @XITPARM     16 00000010 FFFFFFBA     X    6147 54016U
 @XITRQID      4 00000000 FFFFFFBA     A    6143 54008M
 @XITSFPR      8 00000048 FFFFFFB9     D    6173 15341  15424M 16901  16973M 17734  17835M 18543  18609M 19028  19470M
                                                 20016  20531M
 @XITSGPR      4 00000008 FFFFFFB9     F    6172 15340  15423M 16900  16972M 17733  17834M 18542  18608M 18909  19027
1M1SERV   (M1SE00) (09:42) (22MAR04) Ordinary Symbol and Literal Cross Reference                                            Page  424
                                                 19469M 20015  20530M
 @XITSPSW      8 00000000 FFFFFFB9     D    6171 15339  15422M 16899  16971M 17732  17833M 18541  18607M 18908  19026
                                                 19468M 20014  20529M
 @XITTSK       4 00000004 FFFFFFBA     A    6144 54009M
 @XITTYPE      1 00000008 FFFFFFBA     X    6145 54010M
 ACAINFO       1 00000000 00000006     T   14682 14682  35278
 ACINFO        1 00000000 00000025     T   35277 35277  38631
 ACPINFO       1 00000000 00000041     T   51942 51942
 ACPUCHG       1 00000000 0000002F     T   38632 38632
 ACSPINF       1 00000000 00000021     T   35269 35269
 ADDVOL        2 00003EE0 00000001     H   35009 30396B
 ADJSPB        2 00003522 00000001     H   31188 30386B
 AHLHEAD       1 00000000 00000000 A   T    3691  3691
 AHLVCCR8      1 00000000 00000000 A   T    4182  4182
 AND           2 000033EE 00000001     H   30607 30367B
 ASB          68 00000000 FFFFFFE5     J    4940 12635U 13832U 32647U 51319U 54928U 56074U
 ASBAIB        4 00000034 FFFFFFE5     A    4928 32677M 32677
 ASBGCFLG      1 00000014 FFFFFFE5     R    4910  4914
 ASBID         4 00000000 FFFFFFE5     C    4895 32664
 ASBM1SCP      4 0000002C FFFFFFE5     A    4926 12641M 13838  54934  56080
 ASBNEXT       4 00000004 FFFFFFE5     A    4896 32785
 ASBPKM        2 00000008 FFFFFFE5     H    4901 51323  51324M
 ASCB          1 00000000 FFFFFFED     J    2661 30514U
 ASCBEJST      8 00000040 FFFFFFED     D    2737 30520
 ASGNIDT       4 00002C44 00000001     I   27443 22798  23050  23166  23308  26197  27454U
 ASGNIDT9      2 00002C38 00000001     H   27438 27437
 ASLOCK        1 00000000 0000000D     T   18742 18742  22511
 ASMVT         1 00000000 00000000 A   T    4071  4071
 ASULOCK       1 00000000 00000011     T   18749 18749  22524
 ATTSPB        2 00003418 00000001     H   30657 30368B
 AWAIT         1 00000000 00000048     T   56754 56754
 BR           10 0000000A FFFFFFFF A   #    1136  9898M  9908U 12205M 12215U 12489M 12499U 13788M 13798U 14742M 14752U
                                                 15583M 15593U 15737M 15747U 15843M 15853U 17193M 17203U 17388M 17398U
                                                 18025M 18035U 18344M 18354U 18798M 18808U 19569M 19579U 19932M 19942U
                                                 20623M 20633U 21010M 21020U 21096M 21106U 21249M 21259U 21487M 21497U
                                                 21599M 21609U 21740M 21750U 22066M 22076U 22576M 22586U 23451M 23461U
                                                 24096M 24106U 24495M 24505U 24950M 24960U 25548M 25558U 25836M 25846U
                                                 26143M 26153U 26397M 26407U 26984M 26994U 27070M 27080U 27234M 27244U
                                                 27444M 27454U 27677M 27687U 27810M 27820U 28381M 28391U 28760M 28770U
                                                 29178M 29188U 29649M 29659U 30228M 30238U 35361M 35371U 38683M 38693U
                                                 39234M 39244U 40048M 40058U 40228M 40238U 40311M 40321U 40690M 40700U
                                                 41004M 41014U 41312M 41322U 41502M 41512U 41759M 41769U 42164M 42174U
                                                 42285M 42295U 42402M 42412U 42759M 42769U 43177M 43187U 43749M 43759U
                                                 44106M 44116U 44568M 44578U 44963M 44973U 45638M 45648U 46370M 46380U
                                                 47317M 47327U 47727M 47737U 47953M 47963U 48324M 48334U 48512M 48522U
                                                 48845M 48855U 48996M 49006U 49714M 49724U 50085M 50095U 50169M 50179U
                                                 50282M 50292U 50622M 50632U 50985M 50995U 51220M 51230U 51407M 51417U
                                                 51651M 51661U 51741M 51751U 52127M 52137U 53555M 53565U 53677M 53687U
                                                 54278M 54288U 54587M 54597U 54760M 54770U 54874M 54884U 55779M 55789U
                                                 56046M 56056U 56279M 56289U 56591M 56601U 56673M 56683U
 CACTRL        1 00000000 0000002B     T   35291 35291
 CACTRLX       2 00003E8E 00000001     H   34874 30393B
 CBBRANCH      1 00000000 00000000 A   T    4227  4227
 CHKADDR       2 0000393A 00000001     H   32862 30376B
 CLPSERV       4 000032A4 00000001     I   30227 19878  30238U
 CLPSERV9      2 00003298 00000001     H   30222 30221
 CLPSMAX       1 00000084 00000001 A   U   30397 35264
 CLPSTBL       2 000032E4 00000001     H   30361 30397
 CLRSSYM       2 00003772 00000001     H   32265 30394B
1M1SERV   (M1SE00) (09:42) (22MAR04) Ordinary Symbol and Literal Cross Reference                                            Page  425
 CLWIBUFL      1 000000EB FFFFFF74 A   U    9149 22537
 COMMAND       4 00001F3C 00000001     I   21248 19895  21259U
 COMMAND9      2 00001F30 00000001     H   21243 21242
 COMMSPEC      4 00001F74 00000001     I   21328 21393B
 CPCAN         1 00000000 00000028     T   35288 35288  44047  51952
 CPCHK         1 00000000 00000030     T   38633 38633
 CPSET         1 00000000 00000036     T   44050 44050  51955
 CRBRANCH      1 00000000 00000000 A   T    3968  3968
 CSCHKADD      2 00003EFE 00000001     H   35055 30425B 30545B 30612B 32566B 32863B 32955B 33025B 33269B 33508B 34383B
 CSENAME       8 00000000 FFFFFF62     D   30152 32741M 32742  33270M 33284M 33292
 CSER0         2 00003F40 00000001     H   35163 30538B 30581B 30644B 31167B 31453B 31833B 32559B 32885B 33159B 33314B
                                                 33348B 34269B 34306B 34356B 34869B
 CSER4         4 00003F46 00000001     I   35168 30419B 30670B 31159B 31219B 31858B 33146B 33307B 33495B 34376B 34461B
                                                 34600B
 CSER8         4 00003F4E 00000001     I   35171 30557B 30624B 34171B 34185B 34401B 34415B 34502B 35135B
 CSESMF      120 00000000 FFFFFF61     J   30197 33548  33584U 33594M 33594  33839
 CSEWORK       8 00000000 FFFFFF62     J   30159 30254U
 CSEXT         4 00003F56 00000001     I   35174 30588B 30651B 32258B 32841B 32948B 33382B 33438B 34917B 35003B 35046B
                                                 35166B 35169B 35172B
 CSEXTGO       2 00003F5A 00000001     H   35177 32917B 33019B 33079B 33262B 33464B 33476B 33501B 33569B 33903B 33976B
                                                 34070B 34595B 34631B 34660B 35159B
 CSMCOM        2 000033F2 00000001     H   30611 30599B 30604B
 CSRTABLE      1 00000000 00000000 A   T    3988  3988
 CSSPEC        4 00003F30 00000001     I   35149 30346B 31201B 31488B 32582B 34679B 35068B 35088B
 CSVARMGR      1 00000000 00000000 A   T    4036  4036
 CSVEXIT       1 00000000 00000000 A   T    3909  3909
 CSVLLCB       1 00000000 00000000 A   T    3509  3509
 CSVLLTRM      1 00000000 00000000 A   T    3510  3510
 CSVMEM        1 00000000 00000000 A   T    3737  3737
 CSVVFGET      1 00000000 00000000 A   T    4301  4301
 CSVVFIND      1 00000000 00000000 A   T    4299  4299
 CTASCB        4 00000048 FFFFFF76     A    8936 11950  30496
 CTID          4 00000000 FFFFFF76     C    8900 10044M
 CTJDCNT       4 00000040 FFFFFF76     A    8931 11859M 37298
 CTJDPTRS      4 00000044 FFFFFF76     A    8932 11929M 37312
 CTJESR        1 0000003D FFFFFF76     X    8927 11667M 29330
 CTMFJES      16 0000005C FFFFFF76         8963 29285  34084M 34118M
 CTMFKEY      32 0000005C FFFFFF76         8958 11679M 34096M 34132M
 CTMFL         1 0000005C FFFFFF76     R    8944  8948   8953   8958   8963   8968
 CTMFNET       8 0000005C FFFFFF76         8968 29756  34102M 34139M
 CTMFOSF      64 0000005C FFFFFF76         8953 11673M 34090M 34125M
 CTMFPATH    128 0000005C FFFFFF76         8948 28867  34078M 34111M
 CTNENQ        2 0000003A FFFFFF76     H    8925 10327M 10364M 12696
 CTNIDT        2 00000038 FFFFFF76     H    8924 10263M 10319M 12695
 CTNTRACE      2 00000034 FFFFFF76     H    8922 10418M 10456M 12719
 CTPCAT        4 00000054 FFFFFF76     A    8939 12145M 12698
 CTSCVT        4 0000004C FFFFFF76     A    8937 11791M 33672  37191  56347
 CTSPBCLK      4 00000008 FFFFFF76     A    8905 10144M 30736  31143  31285  31448  31556  31784  31924  32230  32313
                                                 32554  38796  39150  49288  49618
 CTSPBS        4 00000004 FFFFFF76     A    8904 11082M 11082  11089M 30746  31933  32172  32183M 33429  38934  39723
                                                 49294
 CTSPBSIZ      4 00000010 FFFFFF76     A    8907 10551M 11120
 CTST21LK      4 00000018 FFFFFF76     A    8912 10212M 46759  47251  47429  47669
 CTST21QH      4 0000001C FFFFFF76     A    8913 10148  10149M 47137  47487  47501  47507
 CTST21QT      4 00000020 FFFFFF76     A    8914 10150M 47139  47165M
 CTTRASH       1 0000003C FFFFFF76     X    8926 10491M 12697  33958
 CTTRCSIZ      4 00000030 FFFFFF76     A    8921 10372M 10410M 12736  12825
 CTUMAP        4 0000002C FFFFFF76     A    8920 10216M 10255M 12699
 CTUMORG       4 00000024 FFFFFF76     A    8918 10489M 12692  34976  35737
1M1SERV   (M1SE00) (09:42) (22MAR04) Ordinary Symbol and Literal Cross Reference                                            Page  426
 CTUMPGS       2 00000036 FFFFFF76     H    8923 10497M 10535M 10543  12694  34980  34982
 CTUMSIZ       4 00000028 FFFFFF76     A    8919 10490M 10495  12693  34978  35738
 CTVMSTAT      4 00000068 FFFFFF76     A    8976 12063M 43104  43353
 CVT           1 00000000 FFFFFFEC     J    3479 11710U
 CVTBRET       2 00000052 FFFFFFEC     H    3534  4047   4126
 CVTPTR        1 00000010 FFFFFFED A   U    3475 11685
 CVTUSER       4 000000CC FFFFFFEC     A    3659 11716
 CVTVSTGX      1 00000000 FFFFFFEB     J    4499  4363
 CVTXTNT1      1 00000000 FFFFFFEA     J    4538  3706
 CVTXTNT2      1 00000000 FFFFFFE9     J    4546  3776
 CVT4MS1       1 00000010 FFFFFFEC A   U    3559  3567
 CVT6DAT       1 00000002 FFFFFFEC A   U    3563  3567
 DAYTAB        2 00007A72 00000001     H   54245 54475
 DEQUEUE       1 00000000 0000003D     T   51932 51932  56727
 DETSPB        2 000035DA 00000001     H   31475 30369B
 DEVINFO       2 00003D68 00000001     H   34382 30388B
 DEVSCAN       2 00003CDE 00000001     H   34153 30387B
 DFAIDTAB      1 00000000 00000000 A   T    4376  4376
 DISPLOCK      1 00000000 00000000 A   T    1650  1650
 DOATTN        4 00001670 00000001     I   18024 18035U 18756  22543
 DOATTN9       2 00001664 00000001     H   18019 18018
 DOCTMR        4 00001170 00000001     I   15736 15747U 18745  22542
 DOCTMR9       2 00001164 00000001     H   15731 15730
 DOEXITS       4 0000213E 00000001     I   22065 22076U 44061
 DOEXITS9      2 00002132 00000001     H   22060 22059
 DOPANIC       4 00001B0E 00000001     I   19568 19442  19579U 22529
 DOPANIC9      2 00001B02 00000001     H   19563 19562
 DOUTMR        4 000010F4 00000001     I   15582 15593U 18746  22541
 DOUTMR9       2 000010E8 00000001     H   15577 15576
 DOWAIT        4 00001492 00000001     I   17192 17203U 18755  22545  30115
 DOWAIT9       2 00001486 00000001     H   17187 17186
 DOXFL         1 00000000 FFFFFF66     X   22032 22113M 22135M 22147M 22165  22197  22230  22359
 DOXWORK       1 00000000 FFFFFF66     J   22039 22092U
 DSPSTAT       1 00000000 0000001F     T   35266 35266
 ENQHALT       1 00000000 00000044     T   56732 56732
 ENQUEUE       1 00000000 0000003B     T   51925 51925  56726
 ENSETD29      2 0000733A 00000001     H   54581 54580
 EPAR         15 0000000F FFFFFFFF A   #    1196  9898   9984M  9985B 10106M 10107B 10174M 10175B 10487M 10488B 10986M
                                                 10987B 11892M 11893B 12061M 12062B 12107M 12108B 12205  12489  12512M
                                                 12513B 12562M 12563B 12768M 12769B 12919M 12920B 12970M 12971B 13054M
                                                 13055B 13135M 13136B 13301M 13302B 13344M 13345B 13390M 13391B 13436M
                                                 13437B 13480M 13481B 13527M 13528B 13610M 13611B 13638M 13639B 13658M
                                                 13659B 13677M 13678B 13704M 13705B 13788  13926M 13927B 13964M 13965B
                                                 14039M 14040B 14103M 14104B 14155M 14156B 14193M 14194B 14284M 14285B
                                                 14332M 14333B 14396M 14397B 14545M 14546B 14593M 14594B 14742  14775M
                                                 14776B 14899M 14900B 14973M 14974B 15096M 15097B 15216M 15217B 15337M
                                                 15338B 15379M 15380B 15402M 15403B 15427M 15428B 15487M 15488B 15498M
                                                 15499B 15523M 15524B 15583  15670M 15671B 15737  15793M 15794B 15843
                                                 15876M 15877B 16897M 16898B 16945M 16946B 16976M 16977B 17066M 17067B
                                                 17077M 17078B 17102M 17103B 17193  17304M 17305B 17388  17421M 17422B
                                                 17497M 17498B 17730M 17731B 17806M 17807B 17838M 17839B 17890M 17891B
                                                 17908M 17909B 17933M 17934B 18025  18195M 18196B 18260M 18261B 18344
                                                 18377M 18378B 18413M 18414B 18479M 18480B 18539M 18540B 18581M 18582B
                                                 18612M 18613B 18663M 18664B 18678M 18679B 18703M 18704B 18798  18831M
                                                 18832B 18906M 18907B 18933M 18934B 18981M 18982B 19024M 19025B 19129M
                                                 19130B 19199M 19200B 19253M 19254B 19442M 19443B 19473M 19474B 19480M
                                                 19481B 19505M 19506B 19569  19740M 19741B 19835M 19836B 19932  20012M
                                                 20013B 20066M 20067B 20146M 20147B 20187M 20188B 20250M 20251B 20291B
                                                 20322M 20323B 20370M 20371B 20497M 20498B 20534M 20535B 20563M 20564B
1M1SERV   (M1SE00) (09:42) (22MAR04) Ordinary Symbol and Literal Cross Reference                                            Page  427
                                                 20623  20947M 20948B 21010  21096  21167M 21168B 21195M 21196B 21249
                                                 21377M 21378B 21427M 21428B 21487  21543M 21544B 21599  21655M 21656B
                                                 21740  21911M 21912B 21986M 21987B 22066  22176M 22177B 22208M 22209B
                                                 22312M 22313B 22444M 22445B 22576  22798M 22799B 22888M 22889B 22964M
                                                 22965B 23050M 23051B 23119M 23120B 23166M 23167B 23225M 23226B 23308M
                                                 23309B 23367M 23368B 23451  23490M 23491B 23692M 23693B 23771M 23772B
                                                 23826M 23827B 23907M 23908B 23987M 23988B 24096  24135M 24136B 24245M
                                                 24246B 24301M 24302B 24356M 24357B 24411M 24412B 24495  24534M 24535B
                                                 24644M 24645B 24700M 24701B 24755M 24756B 24810M 24811B 24865M 24866B
                                                 24950  24989M 24990B 25294M 25295B 25354M 25355B 25409M 25410B 25464M
                                                 25465B 25548  25587M 25588B 25697M 25698B 25836  25875M 25876B 25985M
                                                 25986B 26143  26197M 26198B 26264M 26265B 26334M 26335B 26397  26473M
                                                 26474B 26607M 26608B 26664M 26665B 26755M 26756B 26810M 26811B 26865M
                                                 26866B 26925M 26926B 26984  27070  27234  27444  27677  27810  28063M
                                                 28064B 28381  28612M 28613B 28760  28967M 28968B 29104M 29105B 29178
                                                 29433M 29434B 29575M 29576B 29649  29901M 29902B 30037M 30038B 30228
                                                 30450M 30451B 30739M 30740B 30950M 30951B 30993M 30994B 31114M 31115B
                                                 31146M 31147B 31288M 31289B 31342M 31343B 31387M 31388B 31451M 31452B
                                                 31559M 31560B 31658M 31659B 31706M 31707B 31763M 31764B 31787M 31788B
                                                 31831M 31832B 31927M 31928B 32100M 32101B 32200M 32201B 32233M 32234B
                                                 32316M 32317B 32455M 32456B 32516M 32517B 32557M 32558B 32616M 32617B
                                                 32707M 32708B 32738M 32739B 32838M 32839B 32981M 32982B 33041M 33042B
                                                 33130M 33131B 33224M 33225B 33345M 33346B 33557M 33558B 33738M 33739B
                                                 33768M 33769B 33858M 33859B 34536M 34537B 34756M 34757B 34800M 34801B
                                                 34854M 34855B 34913M 34914B 35043M 35044B 35119M 35120B 35361  35595M
                                                 35596B 35635M 35636B 35809M 35810B 35851M 35852B 35863M 35864B 35936M
                                                 35937B 35981M 35982B 36051M 36052B 36463M 36464B 37016M 37017B 37108M
                                                 37109B 37127M 37128B 37524M 37525B 37615M 37616B 37906M 37907B 37967M
                                                 37968B 38045M 38046B 38149M 38150B 38207M 38208B 38372M 38373B 38489M
                                                 38490B 38683  38799M 38800B 39059M 39060B 39153M 39154B 39234  39397M
                                                 39398B 39457M 39458B 39505M 39506B 39651M 39652B 39878M 39879B 40048
                                                 40186M 40187B 40228  40311  40535M 40536B 40628M 40629B 40690  40802M
                                                 40803B 40847M 40848B 40937M 40938B 41004  41116M 41117B 41161M 41162B
                                                 41242M 41243B 41312  41452M 41453B 41502  41704M 41705B 41759  41864M
                                                 41865B 42090M 42091B 42107M 42108B 42114M 42115B 42164  42231M 42232B
                                                 42238M 42239B 42285  42402  42576M 42577B 42759  43039M 43040B 43127M
                                                 43128B 43177  43431M 43432B 43532M 43533B 43749  43961M 43962B 43996M
                                                 43997B 44106  44320M 44321B 44439M 44440B 44509M 44510B 44568  44800M
                                                 44801B 44865M 44866B 44963  45221M 45222B 45279M 45280B 45331M 45332B
                                                 45486M 45487B 45534M 45535B 45638  45895M 45896B 45953M 45954B 46005M
                                                 46006B 46160M 46161B 46208M 46209B 46370  46556M 46557B 46762M 46763B
                                                 46798M 46799B 46849M 46850B 46997M 46998B 47090M 47091B 47254M 47255B
                                                 47317  47432M 47433B 47482M 47483B 47603M 47604B 47641M 47642B 47672M
                                                 47673B 47727  47846M 47847B 47886M 47887B 47953  48115M 48116B 48226M
                                                 48227B 48324  48401M 48402B 48512  48628M 48629B 48788M 48789B 48845
                                                 48926M 48927B 48996  49137M 49138B 49291M 49292B 49529M 49530B 49621M
                                                 49622B 49714  49855M 49856B 50085  50121M 50122B 50169  50282  50424M
                                                 50425B 50469M 50470B 50555M 50556B 50622  50767M 50768B 50812M 50813B
                                                 50916M 50917B 50985  51094M 51095B 51220  51407  51511M 51512B 51651
                                                 51741  52127  52304M 52305B 52576M 52577B 52738M 52739B 53231M 53232B
                                                 53475M 53476B 53555  53622M 53623B 53677  53814M 53815B 53933M 53934B
                                                 54024M 54025B 54084M 54085B 54149M 54150B 54278  54587  54760  54801M
                                                 54802B 54874  55154M 55155B 55229M 55230B 55278M 55279B 55318M 55319B
                                                 55376M 55377B 55447M 55448B 55508M 55509B 55560M 55561B 55642M 55643B
                                                 55683M 55684B 55718M 55719B 55779  55900M 55901B 55969M 55970B 56001M
                                                 56002B 56046  56152M 56153B 56221M 56222B 56279  56578M 56579B 56591
                                                 56660M 56661B 56673
 ERCHECK9      2 00006A6A 00000001     H   51735 51734
 ETUNDEF9      2 00004DA0 00000001     H   40222 40221
1M1SERV   (M1SE00) (09:42) (22MAR04) Ordinary Symbol and Literal Cross Reference                                            Page  428
 EXRADD        1 00000000 00000007     T   14686 14686  56751
 EXRDEL        1 00000000 0000004A     T   56759 56759
 EXRDONE       1 00000000 00000012     T   18750 18750  22525  56762
 FETCH         2 000033B8 00000001     H   30544 30365B
 FILEBLKI      1 00000000 00000033     T   38639 38639
 FILEHALT      1 00000000 00000019     T   30121 30121
 FINDIDT       4 00002BD4 00000001     I   27233 27244U 30114
 FINDIDT9      2 00002BC8 00000001     H   27228 27227
 FLCEAMDID
               1 000000A3 FFFFFFEE     C    2450  2451   2453
 FLCEFACILITIESLIST
               4 000000C8 FFFFFFEE     C    2480  2481
 FLCEFACILITIESLISTBYTE0
               1 000000C8 FFFFFFEE     B    2482  2483   2487
 FLCEICOD      2 00000086 FFFFFFEE     H    1390  1391
 FLCENPSW      4 00000058 FFFFFFEE     X    1366  1368
 FLCEOPSW      8 00000018 FFFFFFEE     X    1349  1350
 FLCEPDATA
               4 0000008C FFFFFFEE     C    2401  2402   2418
 FLCEPDATABYTE0
               2 0000008C FFFFFFEE     C    2403  2404   2409
 FLCEPER       8 00000098 FFFFFFEE     C    2443  2444
 FLCEPERATMID
               1 00000097 FFFFFFEE     B    2433  2434
 FLCEPERCODE
               2 00000096 FFFFFFEE     C    2424  2425   2442
 FLCEPERCODE0
               1 00000096 FFFFFFEE     B    2426  2427   2432
 FLCEPICODE
               2 0000008E FFFFFFEE     C    2410  2411
 FLCEPICODE1
               1 0000008F FFFFFFEE     G    2413  2414
 FLCEPIINFORMATION
               4 00000090 FFFFFFEE     C    2419  2420
 FLCEPILC      1 0000008D FFFFFFEE     G    2406  2407
 FLCESAME      8 00000000 FFFFFFEE     D    2383  2512
 FLCESDATA
               4 00000088 FFFFFFEE     C    2391  2392
 FLCESDATABYTE0
               2 00000088 FFFFFFEE     C    2393  2394   2399
 FLCESILC      1 00000089 FFFFFFEE     G    2396  2397
 FLCETEA       8 000000A8 FFFFFFEE     C    2457  2458
 FLCETEASNINFO
               8 000000A8 FFFFFFEE     C    2466  2467
 FLCETEA7      1 000000AF FFFFFFEE     B    2460  2461
 FLCETEID      8 000000A8 FFFFFFEE     C    2455  2456   2465   2470
 FLCETEPCINFO
               8 000000A8 FFFFFFEE     C    2471  2472
 FLCINPSW      4 00000078 FFFFFFEE     X    1380  1382
 FLCIOPSW      8 00000038 FFFFFFEE     X    1358  1359
 FLCIPPSW      8 00000000 FFFFFFEE     C    1339  1342
 FLCMNPSW      4 00000070 FFFFFFEE     X    1376  1379
 FLCMOPSW      8 00000030 FFFFFFEE     X    1356  1357
 FLCPICOD      2 0000008E FFFFFFEE     H    1414  1415
 FLCPIILC      1 0000008D FFFFFFEE     G    1407  1413
 FLCPNPSW      4 00000068 FFFFFFEE     X    1372  1375
 FLCPOPSW      8 00000028 FFFFFFEE     X    1354  1355
 FLCSNPSW      4 00000060 FFFFFFEE     X    1369  1371
 FLCSOPSW      8 00000020 FFFFFFEE     X    1351  1353
1M1SERV   (M1SE00) (09:42) (22MAR04) Ordinary Symbol and Literal Cross Reference                                            Page  429
 FLCSVCN       2 0000008A FFFFFFEE     H    1401  1404
 FLCSVILC      1 00000089 FFFFFFEE     G    1395  1400
 FMANFINF      1 00000000 00000027     T   35287 35287
 FMBRANCH      1 00000000 00000000 A   T    4152  4152
 FMCLSUDO      1 00000000 00000042     T   51950 51950
 FREECLW       2 00003A58 00000001     H   33165 30372B
 FREEIDT       4 00002CD0 00000001     I   27676 22533  27687U 30105
 FREEIDT9      2 00002CC4 00000001     H   27671 27670
 FSADDVOL      1 00000000 0000002C     T   35292 35292
 GETCLW        2 00003A22 00000001     H   33085 30371B
 GETMAP        2 00003950 00000001     H   32891 30377B
 GETSSYM       4 00004A4A 00000001     I   38682 38641  38693U
 GETSSYM9      2 00004A3E 00000001     H   38677 38676
 GLBRANCH      1 00000000 00000000 A   T    4058  4058
 GMBRANCH      1 00000000 00000000 A   T    4154  4154
 GOFILE        4 00002D14 00000001     I   27809 27820U 30104
 GOFILE9       2 00002D08 00000001     H   27804 27803
 GOJES         4 0000300A 00000001     I   29177 29188U 30110
 GOJES9        2 00002FFE 00000001     H   29172 29171
 GONET         4 00003118 00000001     I   29648 29659U 30113
 GONET9        2 0000310C 00000001     H   29643 29642
 GOPATH        4 00002F26 00000001     I   28759 28770U 30108
 GOPATH9       2 00002F1A 00000001     H   28754 28753
 GOTERM        4 00002E62 00000001     I   28380 28391U 30116
 GOTERM9       2 00002E56 00000001     H   28375 28374
 GTRMWORK     12 00000000 FFFFFF64     J   27180 28414U
 GVT           1 00000000 00000000 A   T    3920  3920
 HIBAL         1 00000000 FFFFFFFF     J     700   716    729    742    755    768    781    794    807    820    833
                                                   846    859    872    885    898    911   1012   1024   1036   1048
                                                  1060   1072   1084   1096   1108   1120   1132   1144   1156   1168
                                                  1180   1192   1204
 HSENBASE      1 00000096 00000001 A   U   35525 38623
 HSETBASE      1 00000096 00000001 A   U   40010 44037
 HSPFMIL       1 00000080 FFFFFFE8 A   U    4632  4636   4637
 HSPFORV       1 00000020 FFFFFFE8 A   U    4634  4636  56770  56771  56772  56773
 HSPFORVR      1 00000010 FFFFFFE8 A   U    4635  4637  56771  56773
 HSPFWYL       1 00000040 FFFFFFE8 A   U    4633  4636   4637
 IARMPVT       1 00000000 00000000 A   T    3795  3795
 IARMRRCE      1 00000000 00000000 A   T    4340  4340
 IARPIBR       1 00000000 00000000 A   T    4310  4310
 IARPSIV       1 00000000 00000000 A   T    4134  4134
 IARPSXM       1 00000000 00000000 A   T    4283  4283
 IARXKEY       1 00000000 00000000 A   T    4241  4241
 IARXVIO       1 00000000 00000000 A   T    4135  4135
 ICYMMVTC      1 00000000 00000000 A   T    4566  4566
 IDA121CV      1 00000000 00000000 A   T    4073  4073
 IDT          56 00000000 FFFFFF6C     J    9872 13192U 13203M 13203  13205M 14431U 14501  14599  14599  14709  15916U
                                                 15931  17247U 17464U 18079U 20711U 22269U 22321  22321  22398U 22450
                                                 22450  22548  22638U 22839U 22934U 23077U 23193U 23335U 23517U 24162U
                                                 24561U 25016U 25614U 25902U 26173U 26500U 27334U 27512U 27552M 27552
                                                 27553M 27611  27611  27731U 27751M 27751  27752M 27863U 28439U 28813U
                                                 29231U 29702U 30133  34228U 34437U 34625U 34957U 34997U 35188U 35302
                                                 36096  36104  36163U 36266U 38654  41555  41575  41641U 42028U 44076
                                                 52172U 56763
 IDTAXEP       4 00000014 FFFFFF6C     A    9850 17567  17636  18083  18252  36096  41555
 IDTAXI        4 00000018 FFFFFF6C     A    9851 18274
 IDTCENQ       5 00000006 FFFFFF6C         9806 16739  26892  52501M
 IDTCFIL       2 00000006 FFFFFF6C         9776 16139  22850M 23733  24273  24672  25326  25662  25950  26234M 26634
                                                 30103  34336
1M1SERV   (M1SE00) (09:42) (22MAR04) Ordinary Symbol and Literal Cross Reference                                            Page  430
 IDTCJES       6 00000006 FFFFFF6C         9816 16440  23202M 23879  24782  25381  26782  30109
 IDTCKEY       8 00000006 FFFFFF6C         9836 30111
 IDTCLASS      1 00000006 FFFFFF6C     R    9757  9766   9776   9786   9796   9806   9816   9826   9836  34482
 IDTCNET       7 00000006 FFFFFF6C         9826 16605  23344M 23959  24383  24837  25436  26837  30112
 IDTCOSF       3 00000006 FFFFFF6C         9786 30106
 IDTCSCM       4 00000006 FFFFFF6C         9796 16305  23086M 23798  24328  24727  26717  30107
 IDTCTRM       1 00000006 FFFFFF6C         9766 16005  17527  17624  17657  17782  18100  22734M 23565  24210  24609
                                                 25064  26572  30102
 IDTDEVID      4 00000024 FFFFFF6C     A    9857 15959  16269M 16269  26661  26919  27911  28119M 28130M 28130  28935
                                                 29039M 29401  29504M 29869  29972M 34349M 34349  34533  53281M
 IDTFA       128 00000004 FFFFFF6C         9701 14449  14449  14450  20746  20746  20747  22715M 27355  27355  27356
                                                 27529  27529  27530  27598M 34246  34246  34247  34299  34457  34457
                                                 34458  36181  36181  36182  36284  36284  36285  41658  41658  41659
                                                 52192  52192  52193  52491M
 IDTFACL      64 00000004 FFFFFF6C         9706 14449  14449  20746  20746  22693M 27355  27355  27529  27529  27576M
                                                 34246  34246  34457  34457  36181  36181  36284  36284  41658  41658
                                                 52192  52192  52469M
 IDTFEAX      16 00000005 FFFFFF6C         9746 17582M 17680M 18090M 22282  42039M
 IDTFEWX      32 00000005 FFFFFF6C         9741 17002M 17257M 20911M 22411  23646M
 IDTFFIDT      8 00000005 FFFFFF6C         9751 16275M 16570M 20924  23848M 23929M 24009M 28142M 52507M
 IDTFLG        1 00000004 FFFFFF6C     R    9697  9701   9706   9711   9716   9721  17297  18253  34629  34657M 34658M
 IDTFPOST     64 00000005 FFFFFF6C         9736 15991M 20786  22727  22727  23597M 25244M 26516  26685M 27932M 28085M
                                                 28184M 28293M 28670  28670  29021  29021  29487  29487  29955  29955
                                                 36303  52776M 52896M 53001M 53166M
 IDTFR1       32 00000004 FFFFFF6C         9711 16028  16028  16029  16029  16031M 16054M 16155  16155  16156  16156
                                                 16158M 16242M 16328  16328  16329  16329  16331M 16354M 16463  16463
                                                 16464  16464  16466M 16489M 16628  16628  16629  16629  16631M 16654M
                                                 16774M 20851  22750  22750  23582  23582  23583  23583  25222  25222
                                                 25223  25223  25225M 26550  26550  26676  26676  26677  26677  26679M
                                                 27922  27922  27923  27923  27925M 28261M 34643  34654  34654  34655
                                                 34655
 IDTFR14      16 00000004 FFFFFF6C         9716 16028  16028  16030  16030  16108M 16155  16155  16157  16157  16188M
                                                 16328  16328  16330  16330  16408M 16463  16463  16465  16465  16543M
                                                 16628  16628  16630  16630  16708M 16828M 20893  22750  22750  22751M
                                                 23581  23581  23583  23583  25222  25222  25224  25224  26550  26550
                                                 26551M 26676  26676  26678  26678  27922  27922  27924  27924  28207M
                                                 34643  34655  34655  34656  34656
 IDTFR15       8 00000004 FFFFFF6C         9721 16029  16029  16030  16030  16081M 16156  16156  16157  16157  16215M
                                                 16329  16329  16330  16330  16381M 16464  16464  16465  16465  16516M
                                                 16629  16629  16630  16630  16681M 16801M 20872  22741M 23581  23581
                                                 23582  23582  23584M 25223  25223  25224  25224  25231M 26541M 26677
                                                 26677  26678  26678  27923  27923  27924  27924  28234M 28305M 34643
                                                 34654  34654  34656  34656  52770M 52890M 52995M 53160M
 IDTFWD      128 00000005 FFFFFF6C         9731 20841M 22727  22727  22728M 23533  23591M 24178  24577  25032  25238M
                                                 25630  25918  26691M 27939M 28091M 28299M 28670  28670  28671M 29021
                                                 29021  29022M 29487  29487  29488M 29955  29955  29956M
 IDTID         1 00000007 FFFFFF6C     X    9840 13204M 15965  17314  18270  23603  26527  27544  27554M 27743  27753M
                                                 27906  28641  28992  29458  29926  53494
 IDTNEXT       8 00000038 FFFFFF6C     D    9865 13206
 IDTR1         4 00000008 FFFFFF6C     A    9844 16113  16113M 16249M 16413  16413M 16548  16548M 16713  16713M 16833
                                                 16833M 20858  28268M 34630  34659M
 IDTR14        4 0000000C FFFFFF6C     A    9845 16113  16247M 16413  16548  16713  16833  20900  28266M
 IDTR15        4 00000010 FFFFFF6C     A    9846 16113  16248M 16413  16548  16713  16833  20879  22735M 25211M 26535M
                                                 28267M 28312M 28312  52764M 52884M 52989M 53154M
 IDTTRFL       1 00000028 FFFFFF6C     X    9861 34629M 34643M 34658
 IDTTRRG      12 0000002C FFFFFF6C     X    9863 34630M 34659
 IDTWFLG       1 00000005 FFFFFF6C     R    9727  9731   9736   9741   9746   9751
 IDTWXEP       4 0000001C FFFFFF6C     A    9852 16852  17258  17296  23619  36104  41575
 IDTWXI        4 00000020 FFFFFF6C     A    9853 17318
1M1SERV   (M1SE00) (09:42) (22MAR04) Ordinary Symbol and Literal Cross Reference                                            Page  431
 IEABEND       1 00000000 00000000 A   T    3657  3657
 IEACLTE       1 00000000 00000000 A   T    1972  1972
 IEACVT        1 00000000 00000000 A   T    1346  1346   1361
 IEADQIQE      1 00000000 00000000 A   T    4053  4053
 IEAECVT       1 00000000 00000000 A   T    3582  3582
 IEAGSMQ       1 00000000 00000000 A   T    4030  4030
 IEAIHASU      1 00000000 00000000 A   T    4270  4270
 IEALKPT       1 00000000 00000000 A   T    1965  1965
 IEALSMQ       1 00000000 00000000 A   T    4032  4032
 IEAMASCB      1 00000000 00000000 A   T    1499  1499   4000   4004
 IEAPATCH      1 00000000 00000000 A   T    3665  3665
 IEAPDSRT      1 00000000 00000000 A   T    3928  3928
 IEAPTRV       1 00000000 00000000 A   T    3744  3744
 IEAQCDSR      1 00000000 00000000 A   T    3648  3648
 IEAQCS01      1 00000000 00000000 A   T    4040  4040
 IEAQEX00      1 00000000 00000000 A   T    1367  1367
 IEAQIO00      1 00000000 00000000 A   T    1381  1381
 IEAQLPAQ      1 00000000 00000000 A   T    3649  3649
 IEAQPK00      1 00000000 00000000 A   T    1374  1374
 IEAQSC00      1 00000000 00000000 A   T    1370  1370
 IEAQTD00      1 00000000 00000000 A   T    3545  3545
 IEAQTE00      1 00000000 00000000 A   T    3543  3543
 IEARPOST      1 00000000 00000000 A   T    4055  4055
 IEASMFEX      1 00000000 00000000 A   T    3932  3932
 IEASMFSP      1 00000000 00000000 A   T    4278  4278
 IEASPOST      1 00000000 00000000 A   T    4075  4075
 IEASVDCB      1 00000000 00000000 A   T    3536  3536
 IEATCBP       1 00000000 00000000 A   T    3486  3486
 IEATPC        1 00000000 00000000 A   T    3538  3538
 IEATRSCN      1 00000000 00000000 A   T    3896  3896
 IEAVAR02      1 00000000 00000000 A   T    3980  3980
 IEAVBLDP      1 00000000 00000000 A   T    3964  3964
 IEAVDELP      1 00000000 00000000 A   T    3967  3967
 IEAVEAC0      1 00000000 00000000 A   T    4057  4057
 IEAVEADV      1 00000000 00000000 A   T    4215  4215
 IEAVEDR1      1 00000000 00000000 A   T    4100  4100
 IEAVELRM      1 00000000 00000000 A   T    4049  4049
 IEAVELT1      1 00000000 00000000 A   T    1736  1736
 IEAVELT2      1 00000000 00000000 A   T    1970  1970
 IEAVENLU      1 00000000 00000000 A   T    4396  4396
 IEAVENQ2      1 00000000 00000000 A   T    4046  4046
 IEAVEQV1      1 00000000 00000000 A   T    4203  4203
 IEAVEQV2      1 00000000 00000000 A   T    4206  4206
 IEAVEQV3      1 00000000 00000000 A   T    4209  4209
 IEAVERI1      1 00000000 00000000 A   T    4102  4102
 IEAVERP1      1 00000000 00000000 A   T    4104  4104
 IEAVERX1      1 00000000 00000000 A   T    4292  4292
 IEAVESC1      1 00000000 00000000 A   T    2262  2262   4231
 IEAVESC2      1 00000000 00000000 A   T    2264  2264
 IEAVESC7      1 00000000 00000000 A   T    2258  2258
 IEAVESC8      1 00000000 00000000 A   T    2260  2260
 IEAVESPR      1 00000000 00000000 A   T    4160  4160
 IEAVESTU      1 00000000 00000000 A   T    4394  4394
 IEAVESVT      1 00000000 00000000 A   T    2266  2266   4166
 IEAVETOT      1 00000000 00000000 A   T    2119  2119
 IEAVETVT      1 00000000 00000000 A   T    2117  2117
 IEAVET6E      1 00000000 00000000 A   T    4266  4266
 IEAVEVT2      1 00000000 00000000 A   T    4220  4220
 IEAVEXPR      1 00000000 00000000 A   T    4028  4028
1M1SERV   (M1SE00) (09:42) (22MAR04) Ordinary Symbol and Literal Cross Reference                                            Page  432
 IEAVEXP1      1 00000000 00000000 A   T    4197  4197
 IEAVFRCL      1 00000000 00000000 A   T    3966  3966
 IEAVGSDA      1 00000000 00000000 A   T    4211  4211
 IEAVGTCL      1 00000000 00000000 A   T    3965  3965
 IEAVGWSA      1 00000000 00000000 A   T    4060  4060
 IEAVLKRM      1 00000000 00000000 A   T    3767  3767
 IEAVMFRM      1 00000000 00000000 A   T    4145  4145
 IEAVMSGS      1 00000000 00000000 A   T    3714  3714
 IEAVNVT0      1 00000000 00000000 A   T    4379  4379
 IEAVRSTR      1 00000000 00000000 A   T    1341  1341
 IEAVRSUH      1 00000000 00000000 A   T    4258  4258
 IEAVRT03      1 00000000 00000000 A   T    3872  3872
 IEAVSPND      1 00000000 00000000 A   T    4268  4268
 IEAVSTAG      1 00000000 00000000 A   T    4008  4008
 IEAVSVTX      1 00000000 00000000 A   T    2268  2268
 IEAVTCTL      1 00000000 00000000 A   T    4260  4260
 IEAVTEST      1 00000000 00000000 A   T    3771  3771
 IEAVTRGR      1 00000000 00000000 A   T    4068  4068
 IEAVTRG1      1 00000000 00000000 A   T    3517  3517
 IEAVTRV3      1 00000000 00000000 A   T    3764  3764
 IEAVTSBP      1 00000000 00000000 A   T    4014  4014
 IEAVTSFR      1 00000000 00000000 A   T    3735  3735
 IEAVTSGL      1 00000000 00000000 A   T    4012  4012
 IEAVVMSR      1 00000000 00000000 A   T    3793  3793
 IEAVWAIT      1 00000000 00000000 A   T    4035  4035
 IEAVWSAC      1 00000000 00000000 A   T    4066  4066
 IEAVWSAG      1 00000000 00000000 A   T    4064  4064
 IEAVWSAL      1 00000000 00000000 A   T    4062  4062
 IEAVXEXT      1 00000000 00000000 A   T    4143  4143
 IEAVXSFT      1 00000000 00000000 A   T    4110  4110
 IEAVXSTN      1 00000000 00000000 A   T    4116  4116
 IEAVXSTS      1 00000000 00000000 A   T    4114  4114
 IEAVXUNN      1 00000000 00000000 A   T    4139  4139
 IEAVXUNS      1 00000000 00000000 A   T    4118  4118
 IEAWTCB       1 00000000 00000000 A   T    4175  4175
 IEA0DS        1 00000000 00000000 A   T    3581  3581
 IEA0EF00      1 00000000 00000000 A   T    3487  3487
 IEA0EF01      1 00000000 00000000 A   T    3527  3527
 IEA0PT0E      1 00000000 00000000 A   T    4247  4247
 IEA0PT01      1 00000000 00000000 A   T    3588  3588
 IEA0PT02      1 00000000 00000000 A   T    4172  4172
 IEA0PT03      1 00000000 00000000 A   T    4249  4249
 IEA0VL00      1 00000000 00000000 A   T    3498  3498
 IEA0VL01      1 00000000 00000000 A   T    3905  3905
 IECIXAVL      1 00000000 00000000 A   T    3573  3573
 IECPCNVT      1 00000000 00000000 A   T    3501  3501
 IECPRLTV      1 00000000 00000000 A   T    3505  3505
 IECVEXCL      1 00000000 00000000 A   T    4137  4137
 IECXAPG       1 00000000 00000000 A   T    3496  3496
 IECXITP       1 00000000 00000000 A   T    3526  3526
 IECXTLER      1 00000000 00000000 A   T    3512  3512
 IEC0SCR1      1 00000000 00000000 A   T    3671  3671
 IEECUCB       1 00000000 00000000 A   T    3542  3542
 IEEMSER       1 00000000 00000000 A   T    3520  3520   3586
 IEEVEXSN      1 00000000 00000000 A   T    3875  3875
 IEEVSTOP      1 00000000 00000000 A   T    4185  4185
 IEFAQTOP      1 00000000 00000000 A   T    3992  3992
 IEFAUSDM      1 00000000 00000000 A   T    3492  3492
 IEFENFDM      1 00000000 00000000 A   T    3651  3651
1M1SERV   (M1SE00) (09:42) (22MAR04) Ordinary Symbol and Literal Cross Reference                                            Page  433
 IEFJESCT      1 00000000 00000000 A   T    3751  3751
 IEFLINK       1 00000000 00000000 A   T    3489  3489
 IEFQMWR       1 00000000 00000000 A   T    3602  3602
 IEWFBOSV      1 00000000 00000000 A   T    3579  3579
 IEWMSEPT      1 00000000 00000000 A   T    4084  4084
 IFBDCB        1 00000000 00000000 A   T    3568  3568
 IFDOLT0A      1 00000000 00000000 A   T    3930  3930
 IFGDEBVR      1 00000000 00000000 A   T    4561  4561
 IGC043BR      1 00000000 00000000 A   T    3976  3976
 IGC044R2      1 00000000 00000000 A   T    4086  4086
 IGC062R1      1 00000000 00000000 A   T    4056  4056
 IGC07903      1 00000000 00000000 A   T    4201  4201
 IGC124        1 00000000 00000000 A   T    4217  4217
 IGFPMAIN      1 00000000 00000000 A   T    1377  1377
 IGFRVT        1 00000000 00000000 A   T    3666  3666
 IGVCPBDB      1 00000000 00000000 A   T    4332  4332
 IGVCPDLB      1 00000000 00000000 A   T    4334  4334
 IGVCPFRE      1 00000000 00000000 A   T    4324  4324
 IGVCPGTC      1 00000000 00000000 A   T    4322  4322
 IGVCPGUB      1 00000000 00000000 A   T    4316  4316
 IGVCPGUP      1 00000000 00000000 A   T    4319  4319
 IGVCPGUS      1 00000000 00000000 A   T    4342  4342
 IGVGCAS       1 00000000 00000000 A   T    3970  3970
 IGVGFAS       1 00000000 00000000 A   T    3974  3974
 IGVGRRGN      1 00000000 00000000 A   T    4346  4346
 IGVGVRGN      1 00000000 00000000 A   T    4348  4348
 IGVQSPET      1 00000000 00000000 A   T    3972  3972
 IGVSLIST      1 00000000 00000000 A   T    4326  4326
 IGVSLOC       1 00000000 00000000 A   T    4330  4330
 IGVSREGN      1 00000000 00000000 A   T    4328  4328
 IGVSTSKI      1 00000000 00000000 A   T    4313  4313
 IHAMPL        1 00000000 00000000 A   T    1455  1455
 ILRJTERM      1 00000000 00000000 A   T    4255  4255
 IOSLOCK       1 00000000 00000000 A   T    1680  1680
 IOSVDEVN      1 00000000 00000000 A   T    4272  4272
 IOSVHID       1 00000000 00000000 A   T    4282  4282
 IOSVSUCB      1 00000000 00000000 A   T    4285  4285
 IOSXCOM       2 000042EE 00000001     H   36111 36097B 36105B
 IRARMCNS      1 00000000 00000000 A   T    4026  4026
 IRARMEPS      1 00000000 00000000 A   T    4244  4244
 IRARMI00      1 00000000 00000000 A   T    3983  3983
 ISNBRNCH      1 00000000 00000000 A   T    4141  4141
 KWRIFOPR      1 00000010 00000001 A   U    9627 36723
 KWRIFSPR      1 00000020 00000001 A   U    9626 36723
 LKCRE         1 00000000 00000003     T   14667 14667
 LKOB          1 00000000 00000020     T   35267 35267  44029  51924
 LKREL         1 00000000 00000022     T   35270 35270  44032  51931
 LOCCT         2 00003964 00000001     H   32922 30378B
 MAT         256 00000000 FFFFFFE6     J    4882 10058U 12663U 21813U 28830U 29248U 29719U 29787U 30466U 30686U 31248U
                                                 31519U 31874U 32276U 32599U 32902U 32933U 33399U 33640U 33920U 33995U
                                                 34937U 35708U 36807U 37161U 37258U 37369U 38751U 39692U 41974U 43074U
                                                 43323U 46710U 47108U 47202U 47382U 49051U 49769U 55029U 56310U
 MATASBL       4 000000B0 FFFFFFE6     A    4855 32613  32835
 MATASBS       4 000000AC FFFFFFE6     A    4854 32633
 MATGNCT       4 0000003C FFFFFFE6     A    4848 29801M 29801
 MATKMAP       4 000000E8 FFFFFFE6     A    4868 32907
 MATKMAPL      4 000000EC FFFFFFE6     A    4869 32908
 MATM1CT       4 00000010 FFFFFFE6     A    4837 10064M 12669  28836  29254  29725  30472  30692  31254  31525  31880
                                                 32282  32938  33405  33648  33926  34001  34943  35714  36813  37167
1M1SERV   (M1SE00) (09:42) (22MAR04) Ordinary Symbol and Literal Cross Reference                                            Page  434
                                                 37264  38757  39698  43080  43329  46716  47114  47208  47388  49057
                                                 49775  56331
 MATNCLPE      4 000000F0 FFFFFFE6     F    4873 21823  21824M
 MATPTR        4 00000200 FFFFFFE6 A   A    4829 10048  12653  21803  28820  29238  29709  29774  30456  30676  31238
                                                 31509  31864  32266  32589  32892  32923  33389  33630  33910  33985
                                                 34924  35698  36797  37151  37248  37359  38741  39682  41964  43064
                                                 43313  46700  47098  47192  47372  49041  49759  55019  56300
 MATSBWB       4 00000020 FFFFFFE6     A    4841 55035
 MATSNAME      8 000000D4 FFFFFFE6     C    4860 33644  37375  56325  56426  56440  56482  56496
 MATUKEY       1 000000E1 FFFFFFE6     X    4863 41980
 MAXPSEN       1 0000001F 00000001 A   U   35524 38622  38623
 MAXPSET       1 0000001F 00000001 A   U   40009 44036  44037
 MAXSENSE      1 00000024 00000001 A   U   35531 38624
 MAXSET        1 00000025 00000001 A   U   40017 44038
 MILCOM        4 00002B70 00000001     I   26983 19879  26994U
 MILCOM9       2 00002B64 00000001     H   26978 26977
 MILPRIV       4 0000000F FFFFFFA1     U    7021 12923  33347
 MITMK1        1 00000000 FFFFFFB7     R    6272  6276   6281   6286   6291   6296   6301   6306   6311
 MITMK2        1 00000001 FFFFFFB7     R    6317  6321   6326   6331
 MONSET        1 00000000 0000003A     T   45604 45604
 MXRTN         1 000007E4 FFFFFF75 A   U    8999 44069
 M1ATTACH      4 00002324 00000001     I   22575 19890  22586U
 M1ATTN        4 0000151C 00000001     I   17387 14690  17398U
 M1ATTN9       2 00001510 00000001     H   17382 17381
 M1CANWAI      4 000076D0 00000001     I   56045 18757  56040  56056U
 M1CNTRL       4 00002786 00000001     I   24949 19886  24960U
 M1CNTRL9      2 0000277A 00000001     H   24944 24943
 M1CT        108 00000000 FFFFFF76     J    8983  9975  10030U 10038  12687U 28854U 29272U 29743U 30060U 30490U 30710U
                                                 31272U 31543U 31898U 32300U 32947  33423U 33666U 33952U 33969U 34027U
                                                 34971U 35207U 35732U 37185U 37282U 38775U 39716U 43098U 43347U 46734U
                                                 47132U 47226U 47406U 49075U 49793U 56341U
 M1DETACH      4 000024B2 00000001     I   23450 19889  23461U
 M1DUMP        4 00000B4A 00000001     I   13787 13782  13798U
 M1DUMPCB      4 00000000 FFFFFF6A     A   13755 13917  13955  14030  14100  14152  14184  14281  14323  14387  14542
                                                 14584
 M1DWORK       4 00000000 FFFFFF6A     J   13762 13814U
 M1ENDSPB      4 000000C0 FFFFFF6D     A    9668 10561M 10561  11097  11116M
 M1ENQ         4 00006D14 00000001     I   52126 19880  52137U
 M1ENQHLT      4 000070C0 00000001     I   53554 30122  53565U
 M1ENQPRM     65 00000000 FFFFFF57     J   52009 53222  53277U 53288M 53288  53596U 53718U 54065
 M1ENQTAB      1 00007951 00000001     X   52078 52079  52081  52083  52085  52087  52352
 M1ENQTSK      4 00007106 00000001     I   53676 53687U 56730
 M1ENQ9        2 00006D08 00000001     H   52121 52120
 M1EQEXID      4 0000000C FFFFFF57     A   51986 53291M 54008
 M1EQFL        1 00000040 FFFFFF57     R   51991 51995  52000
 M1EQID        4 00000000 FFFFFF57     A   51983 53428M 53734
 M1EQNAME     44 00000014 FFFFFF57     C   51988 53389M 53401M 53619  53878  56721
 M1EQRQID      4 00000008 FFFFFF57     A   51985 53289M 54018
 M1EQSHR      64 00000040 FFFFFF57        52000 53346M 53769  53888
 M1EQSLOT      4 00000004 FFFFFF57     A   51984 53290M 53952
 M1EQTASK      4 00000010 FFFFFF57     A   51987 53440M 54009
 M1EQWAIT    128 00000040 FFFFFF57        51995 53316M 53795  53914
 M1EXIT        4 00001EE8 00000001     I   21095 19894  21106U
 M1EXIT9       2 00001EDC 00000001     H   21090 21089
 M1FILE        1 00000000 0000001A     T   30125 30125
 M1GOFIRE      4 00007630 00000001     I   55778 55789U 56750
 M1GOSTAT      4 00007740 00000001     I   56278 56273  56289U
 M1GOVENQ      4 00007818 00000001     I   56672 56660  56683U
 M1GOVWTO      4 000077E8 00000001     I   56590 56578  56601U
1M1SERV   (M1SE00) (09:42) (22MAR04) Ordinary Symbol and Literal Cross Reference                                            Page  435
 M1GOWAIT      4 00007430 00000001     I   54873 51944  54868  54884U
 M1HALT        4 00002A4A 00000001     I   26396 19877  26407U
 M1HALT9       2 00002A3E 00000001     H   26391 26390
 M1ICVD        8 000000B8 FFFFFF6D     D    9666 10614M 10615
 M1IFILE      44 00000088 FFFFFF6D     C    9664 10644M 10644  10914M 10926M 11068
 M1IKEY2       8 00000018 FFFFFF6D     C    9657 10589U 10610U
 M1INAME       8 00000078 FFFFFF6D     C    9662 10630M 10630  10721M 10733M 11044
 M1IOC         4 000011AC 00000001     I   15842 14689  15853U
 M1IOC9        2 000011A0 00000001     H   15837 15836
 M1IPROG       8 00000080 FFFFFF6D     C    9663 10637M 10637  10814M 10826M 11045
 M1IPSTR      80 00000028 FFFFFF6D     C    9660 10662  10669  10758  10765  10855  10862  11186  11193  11222  11265
                                                 11272  11301  11343  11350  11379  11427  11434  11463  11506  11513
                                                 11542  11584  11591  11620
 M1IRDMEM      4 00000000 FFFFFF6D     A    9654 11683  11696  11725  11733  11766  11782  11800  11817  11832  11849
 M1IRDPRM      4 0000000C FFFFFF6D     X    9655  9934U
 M1IWORK     196 00000000 FFFFFF6D     J    9675  9924U
 M1JES         1 00000000 0000001D     T   30129 30129
 M1LGOFF       4 0000173A 00000001     I   18343 14691  18354U
 M1LGOFF9      2 0000172E 00000001     H   18338 18337
 M1LOGON       4 00000768 00000001     I   12488 12483  12499U
 M1NET         1 00000000 0000001E     T   30130 30130
 M1PATH        1 00000000 0000001C     T   30128 30128
 M1PGM         4 000018C2 00000001     I   18797 14685  18808U
 M1PGM9        2 000018B6 00000001     H   18792 18791
 M1READ        4 000025E6 00000001     I   24095 19888  24106U
 M1READ9       2 000025DA 00000001     H   24090 24089
 M1RELSE       4 0000293C 00000001     I   25835 19884  25846U
 M1RELSE9      2 00002930 00000001     H   25830 25829
 M1RESRV       4 000028AA 00000001     I   25547 19885  25558U
 M1RESRV9      2 0000289E 00000001     H   25542 25541
 M1SERV        1 00000000 00000001     J    1219  1216   1217   1221   4616   4704   4802   4883   4941   4970   5034
                                                  5076   5097   5118   5181   5200   5230   5263   5290   5310   5330
                                                  5352   5373   5392   5412   5441   5460   5504   5529   5552   5575
                                                  5614   5637   5660   5683   5706   5728   5754   5777   5800   5823
                                                  5849   5883   5908   5933   5958   6006   6029   6075   6106   6129
                                                  6155   6181   6238   6351   6374   6400   6450   6486   6527   6553
                                                  6588   6607   6669   6691   6711   6764   6783   6803   6844   6869
                                                  6894   6919   6944   6969   7003   7030   7059   7082   7105   7206
                                                  7228   7256   7282   7439   7467   7522   7584   7607   7626   7655
                                                  7712   7732   7838   7867   7892   7998   8029   8145   8175   8205
                                                  8228   8261   8301   8320   8342   8365   8399   8420   8444   8463
                                                  8482   8536   8562   8587   8613   8740   8774   8805   8984   9007
                                                  9349   9449   9481   9517   9539   9589   9617   9676   9873  10580
                                                 10739  10832  10932  12428  13763
 M1SE00        1 00000000 00000001     R    1228  1226
 M1STATUS      4 000029D2 00000001     I   26142 19882  26153U
 M1SVC         4 00001C02 00000001     I   19931 14687  19942U
 M1SVC9        2 00001BF6 00000001     H   19926 19925
 M1SVINIT      4 00000022 00000001     I    9897  9892   9908U
 M1TERM        1 00000000 0000001B     T   30127 30127
 M1TIME        4 000073DC 00000001     I   54759 54754  54770U
 M1TMC         4 00000F0C 00000001     I   14741 14688  14752U
 M1TMC9        2 00000F00 00000001     H   14736 14735
 M1WAIT        4 00001DD4 00000001     I   20622 19883  20633U
 M1WAIT9       2 00001DC8 00000001     H   20617 20616
 M1WRITE       4 000026A8 00000001     I   24494 19887  24505U
 M1WRITE9      2 0000269C 00000001     H   24489 24488
 M1WSPEC       4 00001DFA 00000001     I   20688 20750B
 NEW                      00000001 A   U   32125 32133  32140  32140  32147  32147  32154  32154  32161  32161  32168
1M1SERV   (M1SE00) (09:42) (22MAR04) Ordinary Symbol and Literal Cross Reference                                            Page  436
                                                 32172
 NUMSHARED
               1 00000063 00000001 A   U   10583 10598  10612
 OPTLOCK       1 00000000 00000000 A   T    1661  1661
 OR            2 000033E6 00000001     H   30602 30366B
 ORVTIME       2 00003370 00000001     H   30404 30363B
 PAGHASH       1 00000000 00000040     T   51939 51939
 PAGPROT       1 00000000 00000023     T   35271 35271  45607
 PAGTPROT      1 00000000 00000018     T   22538 22538  35294  38637  44056  45599  51917  56723
 PAGTPTP       1 00000000 0000002E     T   38628 38628
 PAGUPROT      1 00000000 00000026     T   35280 35280  44033  51915
 PAGUREF       1 00000000 00000035     T   44046 44046
 PANIC         4 00001EAC 00000001     I   21009 19893  21020U
 PANIC9        2 00001EA0 00000001     H   21004 21003
 PANOPER       1 00000001 FFFFFF74 A   N    9051 26451  30295
 PANSET        2 00003F38 00000001     H   35154 35150B
 PANSPEC       1 00000006 FFFFFF74 A   N    9054 20688  21328  23392  24032  24431  24886  25484  25772  26079  27018
                                                 27104  27304  27362  35149  38551  40158  40259  40395  40551  41614
                                                 41665  41883  42334  42466  42516  42595  42808  42871  42934  43247
                                                 43296  43548  43822  43854  44339  44819  45050  45299  45347  45417
                                                 45502  45550  45706  45973  46021  46091  46176  46224  46496  46575
                                                 48571  48647  48907  49097  49156  49815  49874  50341  50681  51034
                                                 51113  51145  51295  51530  52323  52431
 PANWAIT       1 00000010 FFFFFF74 A   N    9055 23539  24184  24583  25038  25636  25924  52199
 PARMFINT      4 00000000 FFFFFFE3         5002 10223M 10270M 10334M 10379M 10425M 10504M 11127M
 PARMFSTR      0 00000000 FFFFFFE3         4992 10654M 10750M 10847M
 PARMFYN       8 00000000 FFFFFFE3         5012 11178M 11257M 11335M 11419M 11498M 11576M
 PARMIN        4 00000000 FFFFFFE3     J    5033  9655   9934U 10232  10239  10278  10285  10342  10349  10387  10394
                                                 10433  10440  10512  10519  10676  10683  10772  10779  10869  10876
                                                 11135  11142  11200  11207  11279  11286  11357  11364  11441  11448
                                                 11520  11527  11598  11605
 PARMKEYS      4 00000004 FFFFFFE3     A    5026 10224M 10225M 10271M 10335M 10380M 10426M 10505M 10655M 10751M 10848M
                                                 11128M 11179M 11258M 11336M 11420M 11499M 11577M
 PARMTYPE      1 00000000 FFFFFFE3     R    4983  4992   5002   5012   5022
 PAUSE         4 00001FD4 00000001     I   21486 19896  21497U
 PAUSE9        2 00001FC8 00000001     H   21481 21480
 PERCHECK      4 00006A76 00000001     I   51740 44060  45602  51751U
 PERSET        1 00000000 00000039     T   45601 45601
 PGPRTOFF      2 000039CC 00000001     H   33024 30380B
 PGPRTON       2 00003976 00000001     H   32954 30379B
 PNAMTAB       1 00006BEA 00000001     X   48439 48440  48442  48444  48446  48448  48450  48452  48454  48707
 PREV                     00000001 A   U   39816 39824
 PRIVTST       2 00003AF2 00000001     H   33320 30373B
 PSA           1 00000000 FFFFFFEE     J    1337  1335U  2283   2513  11965U
 PSAAOLD       4 00000224 FFFFFFEE     A    1502 11967
 PSADTSAV      8 000006C0 FFFFFFEE     D    2083  2086   2087
 PSAEMS2S      4 0000026C FFFFFFEE     F    1616  1620
 PSAGSAV      64 000008A8 FFFFFFEE     X    2168  2170   2171
 PSAIPCIN      4 00000268 FFFFFFEE     F    1609  1613
 PSAJSTSA     64 00000998 FFFFFFEE     X    2217  2221   2222
 PSARTM1R      4 000003FC FFFFFFEE     F    1843  1848
 PSARV7E8      4 000007E8 FFFFFFEE     X    2099  2100   2101
 PSASLSA      72 00000950 FFFFFFEE     X    2209  2215   2216
 PSASTOSM      4 00000270 FFFFFFEE     F    1623  1632
 PSATNEW       4 00000218 FFFFFFEE     A    1493  1496
 PSEUDO        2 00003B3C 00000001     H   33444 30385B
 PURSPB        4 00004B7A 00000001     I   39233 35273  39244U
 PURSPB9       2 00004B6E 00000001     H   39228 39227
 PUTSMF        2 00003B60 00000001     H   33507 30384B
1M1SERV   (M1SE00) (09:42) (22MAR04) Ordinary Symbol and Literal Cross Reference                                            Page  437
 PZABORT     128 0000021A FFFFFFE7         4782 10009M 10132M 10200M 11011M 11917M 12133M 12587M 12996M 13080M 13160M
                                                 15947M 18920M 19052M 21858M 31413M 32379M 32432M 33007M 33067M 33250M
                                                 33891M 39586M 39932M 47022M 48252M 49404M 49553M 52686M 53067M 53256M
                                                 54110M 55179M 55868M
 PZABR15       4 0000021C FFFFFFE7     A    4791 10010M 10133M 10201M 11012M 11918M 12134M 12588M 12997M 13081M 13161M
                                                 15948M 18921M 19053M 21859M 31414M 32380M 32433M 33008M 33068M 33251M
                                                 33892M 39587M 39933M 47023M 48253M 49405M 49554M 52687M 53068M 53257M
                                                 54111M 55180M 55869M
 PZABSM        1 0000021B FFFFFFE7     X    4790 10003M 10126M 10194M 11005M 11911M 12127M 12581M 12990M 13074M 13154M
                                                 15941M 18914M 19046M 21852M 31407M 32373M 32426M 33001M 33061M 33244M
                                                 33885M 39580M 39926M 47016M 48246M 49398M 49547M 52680M 53061M 53250M
                                                 54104M 55173M 55862M
 PZCURASB      4 00000208 FFFFFFE7     A    4767 12625  12916  13822  31106  31334  31828  33342  33735  35848  37105
                                                 47094  48780  51309  54918  55204  56064
 PZCURPID      8 00000208 FFFFFFE7     D    4766 15967  40084
 PZCURTSK      4 0000020C FFFFFFE7     A    4768 53440
 PZERO       640 00000000 FFFFFFE7     J    4801  4811U 12010U 15966U
 PZLCPUA       4 00000210 FFFFFFE7     A    4769 10011  10134  10202  11013  11919  12135  12589  12998  13082  13162
                                                 15949  18922  19054  21860  31415  32381  32434  33009  33069  33252
                                                 33893  39588  39934  47024  48254  49406  49555  52688  53069  53258
                                                 54112  55181  55870
 PZTERMFL      1 0000021A FFFFFFE7     R    4778  4782   4787
 PZTZOFF       8 00000220 FFFFFFE7     D    4792 32751  32763  54352  54364  54661  54673
 QPAUSE        4 00002016 00000001     I   21598 19876  21609U
 QPAUSE9       2 0000200A 00000001     H   21593 21592
 QTIMER        2 00003E1A 00000001     H   34666 30392B
 RA            2 00000002 FFFFFFFF A   #    1028 10048M 10058U 10242  10255  10288  10302  10314M 10319  10352  10364
                                                 10397  10410  10443  10456  10495M 10496M 10497  10522  10534M 10535
                                                 10612M 10613M 10614  10662M 10669M 10686  10758M 10765M 10782  10855M
                                                 10862M 10879  11145  11157M 11158  11186M 11193M 11210  11265M 11272M
                                                 11289  11343M 11350M 11367  11427M 11434M 11451  11506M 11513M 11530
                                                 11584M 11591M 11608  11683M 11692  11725M 11729  11766M 11770  11800M
                                                 11804  11832M 11836  11901M 11929  11937  11950M 12018  12356M 12358M
                                                 12359M 12361  12386  12413M 12415  12625M 12635U 12653M 12663U 12669M
                                                 12687U 14401M 14401  14416  14602M 20097M 20412M 20413M 20414M 20417
                                                 20657M 20668M 20668  20682  20711U 20723M 20723  20730M 20731M 20732M
                                                 20774M 20774  20941  21280M 21281M 21281  21295M 21371  21803M 21813U
                                                 22240M 22269U 22306  22321M 22369M 22398U 22438  22450M 27485M 27497
                                                 27512U 27603  27611M 28820M 28830U 28836M 28854U 29238M 29248U 29254M
                                                 29272U 29709M 29719U 29725M 29743U 29774M 29787U 30332M 30343  30362B
                                                 30426M 30533M 30537  30563M 30572  30632M 30635  30744M 31932M 32210M
                                                 32235  32322M 32333M 32333  32348U 32518M 32534  32588M 32792M 32792
                                                 32811M 32840  32892M 32902U 32923M 32933U 33153M 33158M 33619M 33621M
                                                 33630M 33640U 33706M 33710  33910M 33920U 33926M 33952U 33985M 33995U
                                                 34001M 34027U 34214M 34216M 34217M 34218M 34228U 34470M 34607M 34625U
                                                 34638M 34924M 34937U 34943M 34971U 35428M 35439  35446M 35461M 35461
                                                 35474  35483M 35484B 35544M 35545M 35631  35657M 35698M 35708U 35714M
                                                 35732U 36356M 36366  36375M 36387  36396M 36405M 36405  36458  36566M
                                                 36568  36590M 36597M 36746M 36792  37225M 37229  37286M 37298  37313M
                                                 37314  37343  37344M 37348  37359M 37369U 37640M 37976M 38087  38180M
                                                 38231M 38258M 38267  38831M 38842M 38842  38857U 38915M 39078M 39088U
                                                 39094  39528M 39539M 39539  39545  39598M 39663  39723M 39747U 39789M
                                                 40084M 40103M 40114  40121M 40139M 40139  40152  40180M 40186  40359M
                                                 40373M 40389  41790M 41804M 41817M 41817  41824M 41858  41964M 41974U
                                                 42436M 42460  42483M 42497  42509M 42510M 42510  42571  42693M 42695
                                                 42793M 42802M 42802  42825M 42826M 42827M 42839  42928  42983M 43048M
                                                 43114  43119  43211M 43225M 43241  43364  43367  43373M 43379  43484
                                                 43573M 43783M 43797M 43816  43871  43874M 43875  43988  44295M 44309M
                                                 44314  44612M 44613M 44613  44775M 44789M 44794  44997M 45011M 45064
1M1SERV   (M1SE00) (09:42) (22MAR04) Ordinary Symbol and Literal Cross Reference                                            Page  438
                                                 45065M 45130  45327  45411  45530  45672M 45686M 45743M 45804  46001
                                                 46085  46204  46531M 46545M 46550  46645M 46646M 46700M 46710U 46716M
                                                 46734U 47098M 47108U 47114M 47132U 47192M 47202U 47208M 47226U 47487M
                                                 47501  47984M 47985M 47995U 48603M 48617M 48622  49130M 49131  49294M
                                                 49305M 49305  49328U 49455M 49848M 49849  49937M 49937  49983M 50006M
                                                 50006  51051M 51065M 51088  51170  51171  51454M 51468M 51481M 51481
                                                 51505  51544  51685M 52278M 52279M 52279  52293M 52298  52633M 52698M
                                                 53014M 53079M 53104M 53132M 53290  53826M 53832M 53832  53957M 53957
                                                 53974M 54019  54314M 54325M 54325  54343M 54352M 54359M 54364M 54372M
                                                 54373M 54375  54379M 54379  54380M 54381  54389M 54389  54391M 54392M
                                                 54401  54405M 54405  54406M 54480M 54480  54489M 54532  54623M 54634M
                                                 54634  54652M 54661M 54668M 54673M 54681M 54682M 54684  54688M 54688
                                                 54689M 54690M 54699M 54699  54701M 54702M 54708  54712M 54712  54713M
                                                 54803M 54804M 54816  55280M 56300M 56310U 56412M 56447M 56468M 56503M
                                                 56515
 RAR          14 0000000E FFFFFFFF A   #    1184  9985M 10107M 10175M 10488M 10987M 11893M 12062M 12108M 12173B 12461B
                                                 12513M 12563M 12769M 12920M 12971M 13055M 13136M 13302M 13345M 13391M
                                                 13437M 13481M 13528M 13611M 13639M 13659M 13678M 13705M 13732B 13927M
                                                 13965M 14040M 14104M 14156M 14194M 14285M 14333M 14397M 14546M 14594M
                                                 14634B 14776M 14900M 14974M 15097M 15217M 15338M 15380M 15403M 15428M
                                                 15488M 15499M 15524M 15551B 15671M 15705B 15794M 15811B 15877M 16898M
                                                 16946M 16977M 17067M 17078M 17103M 17135B 17305M 17356B 17422M 17498M
                                                 17731M 17807M 17839M 17891M 17909M 17934M 17966B 18196M 18261M 18312B
                                                 18378M 18414M 18480M 18540M 18582M 18613M 18664M 18679M 18704M 18731B
                                                 18832M 18907M 18934M 18982M 19025M 19130M 19200M 19254M 19443M 19474M
                                                 19481M 19506M 19533B 19741M 19836M 19855B 20013M 20067M 20147M 20188M
                                                 20251M 20291M 20323M 20371M 20498M 20535M 20564M 20591B 20948M 20978B
                                                 21067B 21168M 21196M 21217B 21378M 21428M 21455B 21544M 21567B 21656M
                                                 21679B 21912M 21987M 22009B 22177M 22209M 22313M 22445M 22500B 22799M
                                                 22889M 22965M 23051M 23120M 23167M 23226M 23309M 23368M 23419B 23491M
                                                 23693M 23772M 23827M 23908M 23988M 24064B 24136M 24246M 24302M 24357M
                                                 24412M 24463B 24535M 24645M 24701M 24756M 24811M 24866M 24918B 24990M
                                                 25295M 25355M 25410M 25465M 25516B 25588M 25698M 25804B 25876M 25986M
                                                 26111B 26198M 26265M 26335M 26365B 26474M 26608M 26665M 26756M 26811M
                                                 26866M 26926M 26952B 27041B 27127B 27414B 27647B 27780B 28064M 28348B
                                                 28613M 28727B 28968M 29105M 29145B 29434M 29576M 29616B 29902M 30038M
                                                 30090B 30451M 30740M 30951M 30994M 31115M 31147M 31289M 31343M 31388M
                                                 31452M 31560M 31659M 31707M 31764M 31788M 31832M 31928M 32101M 32201M
                                                 32234M 32317M 32456M 32517M 32558M 32617M 32708M 32739M 32839M 32982M
                                                 33042M 33131M 33225M 33346M 33558M 33739M 33769M 33859M 34537M 34757M
                                                 34801M 34855M 34914M 35044M 35120M 35250B 35596M 35636M 35810M 35852M
                                                 35864M 35937M 35982M 36052M 36464M 37017M 37109M 37128M 37525M 37616M
                                                 37907M 37968M 38046M 38150M 38208M 38373M 38490M 38608B 38800M 39060M
                                                 39154M 39192B 39398M 39458M 39506M 39652M 39879M 39913B 40187M 40208B
                                                 40282B 40536M 40629M 40658B 40803M 40848M 40938M 40972B 41117M 41162M
                                                 41243M 41280B 41453M 41470B 41705M 41727B 41865M 42091M 42108M 42115M
                                                 42132B 42232M 42239M 42256B 42373B 42577M 42727B 43040M 43128M 43145B
                                                 43432M 43533M 43600B 43962M 43997M 44014B 44321M 44440M 44510M 44536B
                                                 44801M 44866M 44931B 45222M 45280M 45332M 45487M 45535M 45585B 45896M
                                                 45954M 46006M 46161M 46209M 46259B 46557M 46763M 46799M 46850M 46998M
                                                 47091M 47255M 47285B 47433M 47483M 47604M 47642M 47673M 47695B 47847M
                                                 47887M 47920B 48116M 48227M 48292B 48402M 48419B 48629M 48789M 48812B
                                                 48927M 48945B 49138M 49292M 49530M 49622M 49659B 49856M 50053B 50122M
                                                 50140B 50253B 50425M 50470M 50556M 50590B 50768M 50813M 50917M 50953B
                                                 51095M 51188B 51353B 51512M 51619B 51712B 51897B 52305M 52577M 52739M
                                                 53232M 53476M 53523B 53623M 53645B 53815M 53934M 54025M 54085M 54150M
                                                 54172B 54556B 54733B 54802M 54844B 55155M 55230M 55279M 55319M 55377M
                                                 55448M 55509M 55561M 55643M 55684M 55719M 55751B 55901M 55970M 56002M
                                                 56153M 56222M 56248B 56540B 56563M 56619B 56642M 56701B
1M1SERV   (M1SE00) (09:42) (22MAR04) Ordinary Symbol and Literal Cross Reference                                            Page  439
 RB            3 00000003 FFFFFFFF A   #    1040 10712  10724M 10726  10805  10817M 10819  10905  10917M 10919  11097M
                                                 11098M 11098  11111  11684M 11726M 11767M 11801M 11833M 11849M 11850M
                                                 11850  11859  11860M 11951M 12261M 12262M 12262  12280U 12382M 12383
                                                 12787M 12803  12817U 12822  12874  14402M 14431U 14599M 21300M 21301M
                                                 21301  21322  21372  21784M 21876M 22239M 22239  22254  22324M 22368M
                                                 22368  22383  22453M 27478M 27480M 27482M 27483M 27484M 27497  30534M
                                                 30564M 30598M 30598  30603M 30608M 30745M 32457M 32518  32603M 32626M
                                                 32626  32633M 32647U 32704  32735  33086M 33087M 33088M 33620M 33707M
                                                 34471M 34499  35546M 35632  36072M 36080M 36088M 36096M 36104M 36199M
                                                 36338M 36347M 36347  36366  36375  36515M 36515  36540M 36540  36747M
                                                 37226M 37314M 37326  37336  37338M 37345  37831M 37842M 37842  37856
                                                 38181M 38204  38230  38259M 38827U 38862M 38873M 38873  38909M 38966M
                                                 38977M 38977  39112M 39545M 39555U 39770M 39780  39789  40084M 40087
                                                 40095  40412M 40421M 40421  40454M 40455M 40477  40479M 40885M 40894M
                                                 40894  40922  41196M 41205M 41205  41233  41365M 41400M 41420M 41446
                                                 41555M 41575M 41679M 41698  42437M 42448M 42448  42460  42483  42642M
                                                 42642  42667M 42667  42856M 42865M 42865  42897M 42916M 42917M 42918M
                                                 42928  42951  42953M 42966M 42966  42984M 43264M 43265M 43265  43367M
                                                 43370  43372M 43374  43484  43839M 43848M 43848  43871M 43873M 43875M
                                                 43876M 43877M 43889  43906M 45016M 45025M 45025  45328  45531  45691M
                                                 45700M 45700  45728M 45728  45742  46002  46205  46424M 46433M 46433
                                                 46445M 46445  46463M 46463  46477  46551  46595M 46597  46626  46636M
                                                 46680M 46680  46687M 46692  47006M 47043U 47054  47155  47165  47351M
                                                 47360M 47360  47445M 47445  47479  47507M 47517U 47600  47758M 47768U
                                                 48556M 48565M 48565  48623  48663  48675M 48682M 48684  48700  48736
                                                 48753M 48754  49084M 49085M 49085  49132  49177  49189M 49196M 49198
                                                 49347M 49358M 49358  49373U 49440M 49531M 49574U 49592  49802M 49803M
                                                 49803  49850  49895  49907M 49914M 49916  49947M 49948M 49948  49963U
                                                 50355M 50512M 50512  50540  50870M 50879M 50879  50907  51019M 51028M
                                                 51028  51089  51167M 51170  51593M 51686M 51687M 51689  51692  52216M
                                                 52224M 52224  52241  52299  52340  52520M 52520  52551M 52553  54314M
                                                 54336M 54336  54343M 54375M 54381  54390M 54393M 54394  54401M 54409M
                                                 54421  54467M 54497  54506M 54536  54623M 54645M 54645  54652M 54684M
                                                 54691  54700M 54703  54708M 54803M 54825M 54830  55320M 56397M
 REFSPB        2 0000369A 00000001     H   31843 30391B
 REFSPBX       2 0000375E 00000001     H   32209 32019B 32043B 32116B
 REGION        2 00003AC4 00000001     H   33268 30374B
 REQTAB        4 00007A54 00000001     A   52094 53832
 REQUEUE       1 00000000 00000045     T   56733 56733
 RESUMTS       1 00000000 00000010     T   18748 18748  51935
 RJ            4 00000004 FFFFFFFF A   #    1052 10232M 10239M 10242  10278M 10285M 10288  10342M 10349M 10352  10387M
                                                 10394M 10397  10433M 10440M 10443  10512M 10519M 10522  10676M 10683M
                                                 10686  10772M 10779M 10782  10869M 10876M 10879  11135M 11142M 11145
                                                 11200M 11207M 11210  11279M 11286M 11289  11357M 11364M 11367  11441M
                                                 11448M 11451  11520M 11527M 11530  11598M 11605M 11608  11733M 11742M
                                                 11742  11757U 11791  12360M 12384M 12385  12729M 12729  12796M 12796
                                                 12803M 12855M 12855  12870U 30746M 30747M 30757U 30772M 30773M 30773
                                                 30854M 30854  31048M 31048  31156M 31156  31165  31166  31207M 31216M
                                                 31216  31234U 31494M 31503M 31503  31573U 31933M 31943U 31958M 31959M
                                                 31959  32012M 32012  32391M 32401U 32449  32589M 32599U 33566M 33584U
                                                 33799  34384M 34398M 34398  34412  34425M 34426M 34427M 34437U 37264M
                                                 37282U 38757M 38775U 39252M 39262U 39780  40744M 40744  40860M 40950
                                                 41051M 41051  41171M 41258  43374M 43376M 43377M 43378M 43379M 43447M
                                                 43449  43452  45073M 45082M 45082  45097U 45747M 45756M 45756  45771U
                                                 49218M 49219M 49219  49229U 50359M 50359  50479M 50568  50698M 50698
                                                 50837M 53240M 53277U 53281  53462  53586M 53596U 54918M 54928U 54934M
                                                 54952U 54991M 54991  55387M 55387  55457M 55457
 RK            5 00000005 FFFFFFFF A   #    1064 11817M 11818M 11818  11827  15906M 15916U 16939  17454M 17464U 17772
                                                 23686  30425M 30545M 30612M 30676M 30686U 30692M 30710U 31238M 31248U
1M1SERV   (M1SE00) (09:42) (22MAR04) Ordinary Symbol and Literal Cross Reference                                            Page  440
                                                 31254M 31272U 32109M 32566M 32863M 32955M 33025M 33269M 33508M 34383M
                                                 35141B 36027M 36328M 36610M 36745M 36831M 36912M 37307M 37311M 37311
                                                 37332M 37349  37358M 37391M 37436M 37589M 37817M 37827U 38179M 38257M
                                                 38410B 38543B 38814U 38861M 38934M 38945M 38945  39095  39122M 39682M
                                                 39692U 39698M 39716U 40459M 40468M 40468  40579  43665M 43677  43687M
                                                 43688M 43689  43693M 43693  43698  43701M 43702  47372M 47382U 47388M
                                                 47406U 49041M 49051U 49057M 49075U 49759M 49769U 49775M 49793U 52926M
                                                 53032  53381M 53381  53428  53708M 53718U 55378M
 RM            8 00000008 FFFFFFFF A   #    1100 10598M 10613  31509M 31519U 31525M 31543U 31864M 31874U 31880M 31898U
                                                 32266M 32276U 32282M 32300U 38088M 38090M 43064M 43074U 43080M 43098U
                                                 43104M 43313M 43323U 43329M 43347U 43353M 43362M 43362  43658U 54914U
                                                 55035M 55810M 55820U
 RMBRANCH      1 00000000 00000000 A   T    4151  4151
 RN            9 00000009 FFFFFFFF A   #    1112 10995M 11032U 11089  11111  11116  38089M 43115M 43365M 43703B 54979M
                                                 55323  55840U 55844M 56111M 56112M 56112  56127U
 RS            1 00000001 FFFFFFFF A   #    1016 10543M 10544M 10545M 10548  10550M 10551  12361M 12376  12386M 12405
                                                 12430  12719M 12720M 12720  12928M 13021M 13022M 13101M 13102M 13144M
                                                 13172  13192U 13206M 13697M 13698  14812M 14837  14837  14845  14845
                                                 14864  14945  15043  15043  15051  15051  15109  15185  15630M 15631M
                                                 15631  15674  15678M 15678  15679  15680  15786M 15787  16573M 16574M
                                                 16575  16852M 16853M 16853  17258M 17267M 17267  17308  17314M 17316
                                                 17317  17567M 17568M 17568  17636M 17637M 17637  17795M 18083M 18131M
                                                 18131  18188M 18189  18220M 18220  18264  18270M 18272  18273  18574M
                                                 18575  19612M 19613M 19613  19742  19805M 19813  19828M 19829  20113M
                                                 20124M 20124  20254  21041M 21042M 21043M 21043  21044  21160M 21161
                                                 21420M 21421  21536M 21537  21648M 21649  21822M 21823M 21824  22813M
                                                 22814  23006M 23007  23264M 23265  25070M 25088  25102  25126  25711M
                                                 25712M 25712  25721M 25722M 25723  25999M 26000M 26000  26008M 26009M
                                                 26010  26019M 26019  26212M 26213  26290M 26291M 26291  27544M 27554
                                                 27743M 27753  28475M 28484M 28484  28492M 28494  29508M 29509M 29510
                                                 30456M 30466U 30472M 30490U 31078M 31079M 31080  31306M 31307M 31308
                                                 31747M 31748M 31749  32446M 32447M 32448  33157M 33157  33166M 33168
                                                 33169M 33170  33271M 33292M 33295  33304M 33304  33313  33364M 33365M
                                                 33367  33452M 33461M 33461  33483M 33492M 33492  33775M 33778  33790M
                                                 33795M 33796M 33799  33983M 34047  34065  34253M 34262M 34262  34287
                                                 34324  34976M 34977  34978M 34979M 34980M 34981  34982M 34983  35683M
                                                 35685M 35686M 35687  35696M 35697  35739  36112M 36121M 36121  36141
                                                 36151M 36152M 36153M 36163U 36199  36215M 36224M 36224  36244  36254M
                                                 36255M 36256M 36266U 36438M 36452M 36457  36485M 36494M 36494  36509U
                                                 36738M 36739M 36739  36746  36797M 36807U 36813M 36822  37139M 37139
                                                 37140  37235M 37237  37248M 37258U 37344  37640  38081M 38082  38089
                                                 38169M 38170M 38170  38180  38247M 38248M 38248  38258  38347M 38361M
                                                 38366  38391M 38405M 38464M 38478M 38483  38524M 38538M 38741M 38751U
                                                 39099M 39100M 39101  41343M 41358  41393  41533M 41548  41583M 41594M
                                                 41594  41608  41629M 41630M 41631M 41641U 41679  42018M 42028U 42200M
                                                 42202  42203M 42211  42316M 42328  42356  42612M 42621M 42621  42636U
                                                 43490M 44137M 44182M 44182  44271M 44271  44354M 44363M 44363  44599M
                                                 44642M 44642  44731M 44731  44738  45139M 45140M 45150  45813M 45814M
                                                 45824  46489M 46490M 46490  46643M 46644M 46645  46784M 46785M 46785
                                                 48355M 48356  51323M 51333  51688M 51689M 51690  51691M 51692M 51693
                                                 51856M 51857M 51857  52340M 52343M 52345  52632M 52661M 52670M 52670
                                                 53013M 53042M 53051M 53051  53103M 53131M 53141M 53141  53153M 53154
                                                 53463M 53464  53734M 53735M 53735  53759  53952M 54374M 54390  54395M
                                                 54396M 54397  54475M 54507M 54533M 54534M 54535  54537M 54538M 54539
                                                 54683M 54700  54703M 54704M 54714M 54714  54715  54831M 54832  55019M
                                                 55029U 55047M 55073  55585M
 RSMLOCK       1 00000000 00000000 A   T    1673  1673
 RSTRASH       2 00003C7E 00000001     H   33909 30383B
 RTCAN         1 00000000 00000029     T   35289 35289  44048  51953  56756
1M1SERV   (M1SE00) (09:42) (22MAR04) Ordinary Symbol and Literal Cross Reference                                            Page  441
 RTCHK         1 00000000 00000031     T   38634 38634
 RTEXIT       16 00000000 FFFFFFA6     J    6893 14810U 55829U
 RTSET         1 00000000 0000002A     T   35290 35290  44049  51954  56753
 RTXPARM       4 00000008 FFFFFFA6     A    6886 55844
 RTXTID        4 00000000 FFFFFFA6     A    6884 14812
 RVR           0 00000000 FFFFFFFF A   #    1004  9975M  9993  10116M 10116  10144  10184M 10184  10212  10977M 10995
                                                 11901  12046M 12063  12098M 12117M 12117  12145  12553M 12571  12778M
                                                 12778  12787  12980M 12980  13008  13064M 13064  13092  13144  13640
                                                 13660  13679  13888M 13905M 14001M 14018M 14071M 14088M 14140M 14240M
                                                 14358M 14375M 14501M 21390  22807  22898M 22898  23059  23175  23317
                                                 23499  23836M 23836  23917M 23917  23997M 23997  24144  24543  24998
                                                 25596  25884  26206  26482  26533M 26533  26534  26535  27268M 27268
                                                 27388M 27603M 27630M 27630  28074M 28074  28092  28173M 28173  28625M
                                                 28625  28631  28690  28873M 28874  28980M 28980  28986  29062  29291M
                                                 29292  29339M 29340  29446M 29446  29452  29533  29762M 29763  29807M
                                                 29808  29914M 29914  29920  29995  30554M 30554  30621M 30621  31007M
                                                 31007  31013  31397M 31397  32091M 32109  32497M 32872M 32872  32879M
                                                 32884  32991M 32991  33051M 33051  33143M 33143  33152  33153  33234M
                                                 33234  33548M 33566  33839M 33875M 33875  34856  34916  35045  35132
                                                 35605M 35605  35645M 35645  35652M 35670M 35675  36473M 36473  37026M
                                                 37026  37527  37625M 37625  37916M 37916  37976  38047  38087M 38090M
                                                 38220  38382M 38382  38501M 38501  38515  39050M 39069M 39069  39078
                                                 39155M 39631M 39858M 40545M 40545  40939  41244  41877  42589  43048
                                                 43441M 43441  43542M 43542  43971M 43971  44333  44813  45293M 45293
                                                 45341M 45341  45496M 45496  45544M 45544  45967M 45967  46015M 46015
                                                 46170M 46170  46218M 46218  46569  46808M 46808  46859M 46859  46865
                                                 46988M 47006  47092  48128M 48128  48207M 48236M 48236  48641  49150
                                                 49520M 49531  49868  50557  50918  51107  51524  52317  52594M 52626M
                                                 52626  52651  52735  52756M 52764  52832M 52832  52926  53222M 53240
                                                 53826  53946M 53946  53953  54065M 54094M 54094  55047M 55062M 55062
                                                 55071  55074M 55103M 55103  55145M 55163M 55163  55195  55231  55280
                                                 55320  55378  55433M 55578M 55587  55724M 55724  55902  55936M 56154
                                                 56188M 56406M 56406  56523M 56523
 RX            6 00000006 FFFFFFFF A   #    1076 14777M 14787U 15878M 15888U 17237M 17247U 17423M 17433U 18069M 18079U
                                                 18379M 18389U 18833M 18843U 19964M 19974U 22628M 22638U 22807M 22839U
                                                 22934U 23059M 23077U 23175M 23193U 23317M 23335U 23499M 23517U 24144M
                                                 24162U 24543M 24561U 24998M 25016U 25596M 25614U 25884M 25902U 26173U
                                                 26206M 26482M 26500U 27269M 27270M 27270  27284M 27284  27298  27322M
                                                 27323M 27324M 27334U 27388  27721M 27731U 27863U 27901  28439U 28467
                                                 28813U 28934  29098  29231U 29400  29569  29702U 29868  30031  38047M
                                                 38061  38075  38152  51309M 51319U 52158M 52160M 52161M 52162M 52172U
                                                 53289  55231M
 RY            7 00000007 FFFFFFFF A   #    1088  9993M 10030U 10064  12245U 12571M 12617U 12641  13298  13341  13387
                                                 13433  13477  13524  13822M 13832U 13838M 13856U 13974M 13974  14791M
                                                 14801U 15610U 15764U 15892M 15902U 17233U 17440M 17450U 18065U 18393M
                                                 18403U 18847M 18857U 19596U 19978M 19988U 20650U 21037U 21123U 21276U
                                                 21514U 21626U 21780U 21944  22106U 22603U 23478U 24123U 24522U 24977U
                                                 25575U 25863U 26186U 26424U 27011U 27097U 27261U 27471U 27717U 27850U
                                                 28426U 28800U 29218U 29689U 30268U 35401U 38723U 40075U 40255U 40351U
                                                 40730U 41044U 41339U 41529U 41786U 42191U 42312U 42429U 42786U 43204U
                                                 43645U 43776U 44133U 44595U 44990U 45665U 46410U 47093  47344U 47772M
                                                 47782U 47980U 48351U 48552U 48872U 49036U 49754U 50112U 50196U 50322U
                                                 50662U 51012U 51247U 51447U 51678U 51768U 52154U 54901U 55195M 55269
                                                 55394  56064M 56074U 56080M 56098U
 R0            0 00000000 FFFFFFFF A   #     708  4811U  9897  10043M 11965U 12069M 12151M 12204  12488  12607M 13016M
                                                 13097M 13709M 13787  14741  15582  15736  15842  15965M 17192  17387
                                                 18024  18343  18797  19568  19931  20252M 20253  20622  21009  21095
                                                 21248  21486  21598  21739  22065  22575  23450  24095  24494  24949
                                                 25547  25835  26142  26396  26983  27069  27233  27443  27676  27809
1M1SERV   (M1SE00) (09:42) (22MAR04) Ordinary Symbol and Literal Cross Reference                                            Page  442
                                                 27898M 28380  28759  29177  29648  30227  30313M 32765M 32766M 32767
                                                 32773M 32774M 32775  33158M 35360  35409M 35811M 35812M 35813M 35814
                                                 35853M 35854M 35855M 35856  35865M 35866M 35867  35938M 35983M 35988M
                                                 35989M 35990  37113M 37114M 37115M 37116  37129M 37130M 37131  38682
                                                 39233  40047  40083M 40227  40310  40689  40804M 40849M 40857M 40858M
                                                 40859  40923M 40924M 40925M 40926  41003  41118M 41163M 41168M 41169M
                                                 41170  41234M 41235M 41236M 41237  41311  41501  41758  42163  42284
                                                 42401  42758  43114M 43176  43364M 43448M 43449M 43450  43451M 43452M
                                                 43453  43565M 43566M 43567  43570M 43571M 43572  43700  43748  44105
                                                 44567  44962  45637  46369  47316  47726  47952  48323  48511  48844
                                                 48878M 48879M 48879  48901  48995  49713  50084  50168  50281  50426M
                                                 50471M 50476M 50477M 50478  50541M 50542M 50543M 50544  50621  50769M
                                                 50814M 50834M 50835M 50836  50908M 50909M 50910M 50911  50984  51219
                                                 51406  51544M 51558M 51583M 51583  51597  51650  51740  52126  53554
                                                 53676  54277  54586  54759  54830M 54873  54965M 54965  54979  54980M
                                                 55322M 55323M 55346  55778  56045  56278  56590  56672
 R1            1 00000001 FFFFFFFF A   #     721 10038M 12064M 12146M 12171M 12459M 12602M 13709M 13730M 14632M 15549M
                                                 15703M 15809M 15959M 15970  15978  17133M 17354M 17964M 18310M 18729M
                                                 19531M 19853M 20589M 20976M 21065M 21215M 21453M 21565M 21677M 22007M
                                                 22498M 23417M 24062M 24461M 24916M 25514M 25802M 26109M 26363M 26950M
                                                 27039M 27125M 27412M 27645M 27778M 27898M 27900  28346M 28725M 29143M
                                                 29614M 30088M 30313M 30316  30324  31757M 32194M 32449M 32765M 32773M
                                                 35248M 35409M 35412  35420  38606M 39190M 39252  39911M 40083M 40206M
                                                 40280M 40656M 40970M 41278M 41468M 41725M 42130M 42254M 42371M 42725M
                                                 43143M 43598M 44012M 44534M 44929M 45583M 46257M 47283M 47693M 47918M
                                                 48290M 48417M 48810M 48943M 49657M 50051M 50138M 50251M 50588M 50951M
                                                 51186M 51351M 51563M 51585M 51585  51597  51617M 51710M 51895M 53521M
                                                 53643M 54170M 54554M 54731M 54842M 55322M 55346  55749M 56246M 56538M
                                                 56617M 56699M
 R14          14 0000000E FFFFFFFF A   #     890 10043M 11685M 11692  11696M 11710U 11716M 11729  11761M 11770  11795M
                                                 11804  11827M 11836  11930M 11937  11967M 12018  12069M 12151M 12607M
                                                 13016M 13097M 13176M 13176  13196M 13204  13223  13237  13710M 15967M
                                                 15970  15978  19131M 19201M 19255M 19307M 19307  19353M 19353  19398M
                                                 19398  19413M 19415  20792M 20793M 20794M 20796  22651M 22652M 22652
                                                 22735  23619M 23620M 23620  27899M 27900  27978M 27979M 27979  27994U
                                                 30312M 30316  30324  30496M 30514U 30520M 30537  30565M 30572  30630M
                                                 30635  32742M 32751M 32758M 32763M 32764M 32767M 32768  32772M 32772
                                                 32775M 33598M 33621M 33648M 33666U 33672M 33690U 33696M 33710  33740M
                                                 33762  35408M 35412  35420  36207M 36545M 36559M 36612M 36620M 36620
                                                 36629  36631  36632M 36702  36748M 36792  37151M 37161U 37167M 37185U
                                                 37191M 37209U 37215M 37229  37312M 37343M 37348  38229M 38231M 38260M
                                                 38267  40082M 40087  40095  42672M 42686M 43698M 43700  46635M 46647M
                                                 46920M 46921M 46922M 46924  47521M 47531U 47561  48017M 48027U 48057
                                                 48134M 48135M 48136M 48138  51130M 51139M 51139  51166M 51167  51595M
                                                 51596  52421M 52422M 52422  52611M 52612M 52612  53333M 53334M 53334
                                                 53340M 53340  53364M 55071M 55072M 55072  55074  55577M 55587M 56331M
                                                 56341U 56347M 56364M 56364  56382U 56388M 56515
 R15          15 0000000F FFFFFFFF A   #     903  9897  10010  10011M 10012M 10013M 10014M 10015M 10015  10042M 10042
                                                 10133  10134M 10135M 10136M 10137M 10138M 10138  10148M 10149  10150
                                                 10201  10202M 10203M 10204M 10205M 10206M 10206  11012  11013M 11014M
                                                 11015M 11016M 11017M 11017  11689M 11689  11700M 11700  11765M 11765
                                                 11799M 11799  11831M 11831  11918  11919M 11920M 11921M 11922M 11923M
                                                 11923  11934M 11934  12015M 12015  12068M 12068  12134  12135M 12136M
                                                 12137M 12138M 12139M 12139  12150M 12150  12171M 12204  12459M 12488
                                                 12588  12589M 12590M 12591M 12592M 12593M 12593  12606M 12606  12736M
                                                 12823M 12824  12825M 12826M 12826  12827  12997  12998M 12999M 13000M
                                                 13001M 13002M 13002  13015M 13015  13081  13082M 13083M 13084M 13085M
                                                 13086M 13086  13096M 13096  13161  13162M 13163M 13164M 13165M 13166M
                                                 13166  13710M 13730M 13787  14632M 14741  15549M 15582  15703M 15736
1M1SERV   (M1SE00) (09:42) (22MAR04) Ordinary Symbol and Literal Cross Reference                                            Page  443
                                                 15809M 15842  15948  15949M 15950M 15951M 15952M 15953M 15953  15967M
                                                 17133M 17192  17354M 17387  17964M 18024  18310M 18343  18729M 18797
                                                 18921  18922M 18923M 18924M 18925M 18926M 18926  19053  19054M 19055M
                                                 19056M 19057M 19058M 19058  19132M 19202M 19256M 19271  19278M 19297
                                                 19303M 19328  19342  19349M 19374  19388  19394M 19410  19434  19531M
                                                 19568  19637M 19657M 19678M 19691M 19691  19704  19708  19853M 19931
                                                 20070M 20071M 20073  20089M 20090  20098M 20278M 20279M 20279  20410M
                                                 20411M 20411  20589M 20622  20795M 20796M 20797  20976M 21009  21065M
                                                 21095  21215M 21248  21453M 21486  21565M 21598  21677M 21739  21859
                                                 21860M 21861M 21862M 21863M 21864M 21864  22007M 22065  22498M 22575
                                                 22607M 22608M 22608  22622  22752  22785  23000  23037  23153  23258
                                                 23295  23417M 23450  23603M 23605  24062M 24095  24461M 24494  24916M
                                                 24949  25108M 25109  25113M 25113  25114  25202M 25211  25514M 25547
                                                 25802M 25835  26109M 26142  26363M 26396  26527M 26529  26950M 26983
                                                 27039M 27069  27125M 27233  27412M 27443  27645M 27676  27778M 27809
                                                 27899M 28346M 28380  28529M 28530M 28530  28545U 28641M 28643  28725M
                                                 28759  28916M 28917M 28917  28992M 28994  29143M 29177  29382M 29383M
                                                 29383  29458M 29460  29614M 29648  29850M 29851M 29851  29926M 29928
                                                 30088M 30227  30312M 30405M 30416  30532M 30532  30569M 30569  30587M
                                                 30631M 30650M 31414  31415M 31416M 31417M 31418M 31419M 31419  32018M
                                                 32042M 32042  32115M 32207M 32207  32210  32235M 32380  32381M 32382M
                                                 32383M 32384M 32385M 32385  32433  32434M 32435M 32436M 32437M 32438M
                                                 32438  32567M 32579  32742M 32768M 32776  32840M 32947M 33008  33009M
                                                 33010M 33011M 33012M 33013M 33013  33068  33069M 33070M 33071M 33072M
                                                 33073M 33073  33167M 33168M 33170M 33171M 33172M 33251  33252M 33253M
                                                 33254M 33255M 33256M 33256  33272M 33275M 33277  33360M 33362M 33389M
                                                 33399U 33405M 33423U 33429M 33599M 33599  33602  33614M 33620  33705M
                                                 33740M 33762  33775  33892  33893M 33894M 33895M 33896M 33897M 33897
                                                 33984M 34039M 34039  34157M 34168M 34168  34182  34191M 34208  34214
                                                 34268  34305  34355  34365M 34916M 35002M 35002  35045M 35056M 35065M
                                                 35065  35085  35116  35165M 35165  35168M 35171M 35174  35248M 35360
                                                 35408M 35684M 35685  35688M 35737M 35738M 35739M 35755M 35768M 35816M
                                                 35868M 35991M 36003M 36017M 36026M 36206M 36327M 36603M 36606  36608M
                                                 36609  36611M 36629  36631M 36632  36635M 36637  36655M 36655  36673M
                                                 36697M 36697  36768M 36768  36785M 36830M 36911M 37224M 37349M 37357M
                                                 37392M 37396  37398M 37399  37402M 37404  37461M 37464  37476M 37484M
                                                 37493M 37493  37500  37527M 37553M 37568M 37580  37631M 37646M 37658
                                                 37710  37982M 38152M 38230M 38264M 38264  38295M 38304M 38304  38324
                                                 38367  38414M 38423M 38423  38443  38484  38564M 38564  38567M 38570M
                                                 38573  38606M 38682  39190M 39233  39587  39588M 39589M 39590M 39591M
                                                 39592M 39592  39911M 39933  39934M 39935M 39936M 39937M 39938M 39938
                                                 40047  40082M 40206M 40227  40280M 40310  40656M 40689  40970M 41003
                                                 41278M 41311  41468M 41501  41725M 41758  41905M 41906M 41916  42130M
                                                 42163  42254M 42284  42353M 42355  42371M 42401  42551M 42565M 42570
                                                 42725M 42758  43113M 43143M 43176  43363M 43598M 43700  43748  44012M
                                                 44105  44534M 44567  44874M 44885M 44885  44929M 44962  45064M 45150
                                                 45583M 45637  45742M 45824  46257M 46369  46632M 46633M 46634M 46649M
                                                 46663M 46663  46923M 46924M 46925  47023  47024M 47025M 47026M 47027M
                                                 47028M 47028  47137M 47138  47139M 47149U 47164  47283M 47316  47521M
                                                 47537  47555U 47693M 47726  47918M 47952  48017M 48033  48051U 48137M
                                                 48138M 48139  48253  48254M 48255M 48256M 48257M 48258M 48258  48290M
                                                 48323  48417M 48511  48810M 48844  48943M 48995  49405  49406M 49407M
                                                 49408M 49409M 49410M 49410  49554  49555M 49556M 49557M 49558M 49559M
                                                 49559  49657M 49713  50051M 50084  50138M 50168  50251M 50281  50588M
                                                 50621  50951M 50984  51186M 51219  51351M 51406  51594M 51596  51617M
                                                 51650  51710M 51740  51895M 52126  52247M 52248  52371M 52372  52687
                                                 52688M 52689M 52690M 52691M 52692M 52692  52803M 52804M 52804  52839M
                                                 52858M 52858  52875M 52884  52932M 52957M 52957  52982M 52982  52988M
                                                 52989  53068  53069M 53070M 53071M 53072M 53073M 53073  53120M 53121M
1M1SERV   (M1SE00) (09:42) (22MAR04) Ordinary Symbol and Literal Cross Reference                                            Page  444
                                                 53121  53257  53258M 53259M 53260M 53261M 53262M 53262  53295M 53304M
                                                 53304  53387M 53388M 53388  53392M 53394  53494M 53496  53500M 53500
                                                 53501  53521M 53554  53643M 53676  54111  54112M 54113M 54114M 54115M
                                                 54116M 54116  54170M 54277  54476M 54509M 54523M 54523  54554M 54586
                                                 54731M 54759  54842M 54873  55073M 55180  55181M 55182M 55183M 55184M
                                                 55185M 55185  55577M 55585  55749M 55778  55869  55870M 55871M 55872M
                                                 55873M 55874M 55874  55902M 56045  56154M 56246M 56278  56452M 56508M
                                                 56538M 56590  56617M 56672  56699M
 R9            9 00000009 FFFFFFFF A   #     825 56563  56642
 SALCLOCK      1 00000000 00000000 A   T    1653  1653
 SBWAIT       32 00000000 FFFFFF7A     J    8612 54901U 55145  55202M 55202  55573M 55573  55578  55586M 55840U 56127U
 SBWASB        4 0000000C FFFFFF7A     A    8602 55204M 55956  56208
 SBWBID        4 00000008 FFFFFF7A     C    8600 55203M 55574M 55846
 SBWECB        8 00000010 FFFFFF7A     D    8603 55433  55936  56188
 SBWORD1       4 00000018 FFFFFF7A     A    8604 55521M 55521  56131M
 SCBCFALP    128 00000261 FFFFFF74         9182 18493  18504M
 SCBCFAX      32 00000261 FFFFFF74         9192 42005  42017M
 SCBCFCLA     64 00000261 FFFFFF74         9187 17539M
 SCBCFL        1 00000261 FFFFFF74     R    9178  9182   9187   9192   9197   9202
 SCBCFNMA     16 00000261 FFFFFF74         9197 18171  25729M 26032M 50206M 50231M
 SCBENQ        4 0000026C FFFFFF74     A    9329 46489  46784  46865M 47054M 47061M 47351  47457M 47457  47984  48270M
                                                 48270
 SCBFCLP     128 00000262 FFFFFF74         9212 12295  12327  15262  17512  18511M 21136  21797  21935M 22123  22681
                                                 26444  26444  26445  27564  27951  27951  27952  30288  30288  30289
                                                 30667  31198  31485  31855  34676  36758  36857  36891  36938  36972
                                                 41951  41963M 44168  44475  44628  44897  50335  50675  52409  52457
 SCBFL         1 00000262 FFFFFF74     R    9208  9212   9217   9222   9227   9232
 SCBFNESC      8 00000261 FFFFFF74         9202 18143  25138M 25170M 25195
 SCBFNPUP     32 00000262 FFFFFF74         9222 20399  20442M 20817M 21174M 21434M 21550M 21662M 23699M 42101M 46945M
                                                 48153M
 SCBFPCLP      8 00000262 FFFFFF74         9232 26444  26444  27951  27951  30288  30288  33451M 33475M
 SCBFSVC      64 00000262 FFFFFF74         9217 18873  18941M 20285M 20301M
 SCBFWAIT    128 00000260 FFFFFF74         9172 15450  15462M 17029  17041M 17860  17898M 18626  18638M 20459  20811M
                                                 34868M 46939M 47798  47854M
 SCBMB         1 00000264 FFFFFF74     R    9268 15281  15347  15688M 16868  16907  17325M 17669  17740  18120  18281M
                                                 18549  19430  19628  19794M 20088  20215M 21929M 22113  23635  36003
                                                 41936M 41937M 42078  42200  42209M 42218M 51838
 SCBPNAM       8 00000282 FFFFFF74     C    9334 28501  37411  48734M 48743M 48785  51907  51940
 SCBPNAML      2 00000280 FFFFFF74     H    9333 28475  37396  37398  48754M
 SCBSPB        4 00000268 FFFFFF74     A    9328 27978  28529  31165M 31207  31494  31583M 31583  36485  42612  45073
                                                 45747  49218  49947
 SCBSSAB       4 0000028C FFFFFF74     A    9339 32322  32534M 38831  39093  39094M
 SCBTCPCT     16 00000263 FFFFFF74         9257 15165  15226  15226  34705  34705  34707  34707  34726  34814  34814
                                                 50378  50378  50397  50488  50488  50719  50719  50721  50721  50740
                                                 50852  50852  50854  50854  50926  50926
 SCBTCPQU      8 00000263 FFFFFF74         9262 15009  15009  34706  34706  34707  34707  34862M 50720  50720  50721
                                                 50721  50828  50853  50853  50854  50854
 SCBTCPTR     32 00000263 FFFFFF74         9252 14984  15009  15009  15010M 15226  15226  15227M 34705  34705  34706
                                                 34706  34708  34814  34814  34815M 50378  50378  50379  50488  50488
                                                 50489M 50563M 50719  50719  50720  50720  50722  50852  50852  50853
                                                 50853  50855M 50926  50926  50927M
 SCBTFL        1 00000263 FFFFFF74     R    9238  9242   9247   9252   9257   9262
 SCBTUCT      64 00000263 FFFFFF74         9247 15068  15126  15126  35906  40775  40876  40876  41089  41187  41187
                                                 41252  41252
 SCBTUTR     128 00000263 FFFFFF74         9242 14907M 15126  15126  15127M 35885  40757  40876  40876  40877M 40945M
                                                 41071  41187  41187  41188M 41252  41252  41253M
 SCBUPRI       1 0000028A FFFFFF74     X    9335 12700M 36017  42353  42356M
 SCBWAITB      4 00000290 FFFFFF74     A    9341 55004M 55004  55394M 55470M 55470  56111
 SCBWFL        1 00000260 FFFFFF74     R    9168  9172
1M1SERV   (M1SE00) (09:42) (22MAR04) Ordinary Symbol and Literal Cross Reference                                            Page  445
 SCBXA        64 00000265 FFFFFF74         9284  9318   9318   9320   9320   9322   9322  17588M 17686M 22341M 42053M
 SCBXCPT       8 00000265 FFFFFF74         9299 14996M 15240M 15305  15367  15774M 34691M 50366M 50705M
 SCBXFL        1 00000265 FFFFFF74     R    9275  9279   9284   9289   9294   9299   9304   9324  22147
 SCBXP        16 00000265 FFFFFF74         9294  9321   9321   9322   9322   9323   9323  20311  20330M 20694M 21050M
                                                 21334M 22664M 23398M 23545M 24038M 24190M 24437M 24589M 24892M 25044M
                                                 25490M 25642M 25778M 25930M 26085M 26278  26457M 27024M 27110M 27310M
                                                 27368M 28098M 28696M 29068M 29539M 30001M 30301M 35158M 38557M 40164M
                                                 40265M 40401M 40557M 41620M 41671M 41889M 42340M 42472M 42522M 42601M
                                                 42814M 42877M 42940M 43253M 43302M 43554M 43828M 43860M 44345M 44825M
                                                 45056M 45305M 45353M 45423M 45508M 45556M 45712M 45979M 46027M 46097M
                                                 46182M 46230M 46502M 46581M 48577M 48653M 48913M 49103M 49162M 49821M
                                                 49880M 50347M 50687M 51040M 51119M 51151M 51301M 51536M 52205M 52329M
                                                 52437M
 SCBXT       128 00000265 FFFFFF74         9279  9318   9318   9319   9319   9321   9321  14920M 15140M 15293  15620M
                                                 40740M 41058M
 SCBXW        32 00000265 FFFFFF74         9289  9319   9319   9320   9320   9323   9323  17008M 22470M 23652M
 SCP         660 00000000 FFFFFF74     J    9348 12245U 12553  12602  12617U 13856U 14240  14801U 15610U 15764U 15902U
                                                 17233U 17450U 18065U 18403U 18857U 19596U 19988U 20650U 21037U 21123U
                                                 21276U 21514U 21626U 21780U 22106U 22603U 23478U 24123U 24522U 24977U
                                                 25575U 25863U 26186U 26424U 27011U 27097U 27261U 27471U 27717U 27850U
                                                 28426U 28800U 29218U 29689U 30268U 35401U 38723U 40075U 40255U 40351U
                                                 40730U 41044U 41339U 41529U 41786U 42191U 42312U 42429U 42786U 43204U
                                                 43645U 43776U 44133U 44595U 44990U 45665U 46410U 47344U 47782U 47980U
                                                 48351U 48552U 48872U 49036U 49754U 50112U 50196U 50322U 50662U 51012U
                                                 51247U 51447U 51678U 51768U 52154U 54952U 56098U
 SCPACCT       6 000001AA FFFFFF74     C    9057  9058   9059  12924M 36057  51266  51286
 SCPCCLK       4 000001D0 FFFFFF74     A    9074 14945  15017M 15017  15185  15234M 15234  34753  34797  34856M 50421
                                                 50466  50496M 50496  50557M 50764  50809  50862M 50862  50918M
 SCPCCXIT      4 000001D4 FFFFFF74     A    9075 13660M 34851  50552  50913
 SCPCLPSW      8 00000100 FFFFFF74     D    9037 21876
 SCPCLW        4 000001B8 FFFFFF74     A    9068 13008M
 SCPCMDP       4 00000224 FFFFFF74     A    9150 36590
 SCPCTL8       4 00000190 FFFFFF74     A    9043 36913  44612  44738M 44833M 44862  44874
 SCPCTL9       4 00000194 FFFFFF74     A    9044 36832  44153  44353M 44354  44377M 44407M 44407  44436  44460  51785
 SCPCWA        1 00000214 FFFFFF74     X    9147 36540  42667
 SCPCWASZ      1 00000010 FFFFFF74 A   N    9146  9147  36356  42436
 SCPENQL       4 00000258 FFFFFF74     A    9156 13092M 52633  53014  53104
 SCPEPXIT      4 00000270 FFFFFF74     A    9330 13679M 53291
 SCPFERR     128 00000200 FFFFFF74         9096 21842  21875M
 SCPFL         1 00000200 FFFFFF74     R    9092  9096   9101   9106   9111   9116   9121   9126   9131
 SCPFMON      32 00000200 FFFFFF74         9106 19671  36923  44660  44698  44873M 44909M
 SCPFPER      64 00000200 FFFFFF74         9101 19650  36842  44200  44238  44447M 44487M 51800
 SCPFPRS       8 00000050 FFFFFF74     D    9029 13711  13712  13713  13714  15341M 15424  16901M 16973  17734M 17835
                                                 18543M 18609  19028M 19470  20016M 20531
 SCPFPRT       4 00000200 FFFFFF74         9121 45394  46068
 SCPFTRC       1 00000200 FFFFFF74         9131 12307
 SCPFTRU       2 00000200 FFFFFF74         9126 12339  12706M
 SCPGPRS       4 00000010 FFFFFF74     F    9028 13709  13710  15340M 15423  15680M 15681M 16900M 16972  17317M 17318M
                                                 17733M 17834  18273M 18274M 18542M 18608  19027M 19469  19707  19708M
                                                 19743M 19761M 19783M 19837M 19838M 20015M 20056  20057  20058  20059
                                                 20253M 20255M 20410  20530  20657  20858M 20879M 20900M 21041  21280
                                                 21300  21919  21942M 21942  21943M 21944M 22607  22651  22752M 22814M
                                                 23007M 23265M 23605M 25070  25109M 25114M 25711  25749M 25999  26056M
                                                 26213M 26290  26529M 26534M 27269  27626M 27898  27899  28115M 28116M
                                                 28117M 28118M 28464  28465  28466  28631M 28643M 28874M 28904  28905
                                                 28906  28916  28986M 28994M 29292M 29340M 29370  29371  29372  29382
                                                 29452M 29460M 29763M 29808M 29838  29839  29840  29850  29920M 29928M
                                                 30312  30313  30332  30405  30426  30563  30564  30565  30630  30631
                                                 30632  30744  30745  31166M 31932  32567  32588  32603  32884M 32907M
1M1SERV   (M1SE00) (09:42) (22MAR04) Ordinary Symbol and Literal Cross Reference                                            Page  446
                                                 32908M 32938M 32977  32978  33037  33038  33086  33152M 33166  33167
                                                 33271  33272  33313M 33364  33452  33483  33598  33599  33775  33796
                                                 33983  33984  34157  34253  34268M 34305M 34355M 34384  34470  34471
                                                 34900  34905  34910  34977M 34981M 34983M 35035  35040  35056  35115
                                                 35174M 35408  35409  35428  35544  35675M 35687M 35697M 35815M 35857M
                                                 36112  36206M 36207M 36215  36338  36387  36396  36438  36545  36603
                                                 36609M 36611  36702M 36738  36747  36748  36822M 37013  37035M 37036M
                                                 37037M 37117M 37121M 37132M 37140M 37237M 37286  37326  37336  37338
                                                 37345M 37392  37399M 37461  37526M 37568  37612  37644M 37646  37694M
                                                 37745M 37817  38169  38181  38203  38229  38247  38259  38260  38295
                                                 38347  38391  38414  38464  38524  38573M 40082  40083  40103  40359
                                                 40412  40427M 40446M 40459  40636M 40885  40950M 41196  41258M 41343
                                                 41533  41583  41790  41901M 42202M 42203  42316  42355M 42437  42497
                                                 42509  42551  42672  42710M 42793  42845M 42856  42972M 43054M 43119M
                                                 43120M 43121M 43211  43264  43277M 43363  43583M 43783  43839  43895M
                                                 43977M 43988M 43989M 43990M 44137  44206M 44244M 44295  44519M 44599
                                                 44666M 44704M 44775  44914M 44997  45016  45031M 45568M 45672  45691
                                                 45734M 46242M 46424  46531  46866M 46901M 48355  48357M 48556  48603
                                                 48726M 48790M 48878  48928M 49084  49130  49258M 49434M 49587  49596M
                                                 49802  49848  50012M 50026M 50123M 50219  50236M 50355  50568M 50870
                                                 51019  51051  51130  51171M 51324  51333M 51334M 51454  51563  51596M
                                                 51685  51686  52216  52248M 52278  52372M 52421  52594  52611  52803
                                                 52932  53295  53333  53387  53496M 53501M
 SCPGROUP      2 000001AA FFFFFF74     C    9059 12921M 33625  36055  36055  36717
 SCPID         4 00000000 FFFFFF74     C    9025 12621M
 SCPIDT        4 0000020C FFFFFF74     A    9142 13172M 14402  20732  22240  22369  22628  27324  27484  27485  34218
                                                 34427  34607  34638  36153  36256  41631  42018  52162
 SCPIPSW       4 000001A4 FFFFFF74     A    9047 15345M 15346M 15347M 15354M 15354  15672  16905M 16906M 16907M 16914M
                                                 16914  17307  17738M 17739M 17740M 17747M 17747  18263  18547M 18548M
                                                 18549M 18556M 18556  19410M 19411M 19412M 19422M 19430M 19705  19813M
                                                 20068M 20069M 20080M 20088M 20090M 20134  20207  20252  20792  20805M
                                                 21148M 21148  21405M 21405  21524M 21524  21636M 21636  21917  46920
                                                 46933M 48134  48147M
 SCPJESR       1 00000203 FFFFFF74     X    9137 16573  16575M 29330  29508  29510M
 SCPKLUDG      1 00000201 FFFFFF74     X    9135 25721  25723M 26008  26010M
 SCPMON        4 00000208 FFFFFF74     A    9140 19203M 19204M 19783  19837
 SCPNENQ       2 00000256 FFFFFF74     H    9155 12696M 13021  52632  53013  53103
 SCPNIDT       2 00000210 FFFFFF74     H    9143 12695M 13101  13223  14416  20682  22254  22383  27298  27478  34182
                                                 34208  34412  36141  36244  41608
 SCPPAN        2 000001A8 FFFFFF74     H    9048  9049  19434M 19637  19805  19812M 19812  21044M
 SCPPANSY      1 000001A9 FFFFFF74     X    9049 20140M 20688M 21328M 22658M 23392M 23539M 24032M 24184M 24431M 24583M
                                                 24886M 25038M 25484M 25636M 25772M 25924M 26079M 26451M 27018M 27104M
                                                 27304M 27362M 28092M 28690M 29062M 29533M 29995M 30295M 35149M 38551M
                                                 40158M 40259M 40395M 40551M 41614M 41665M 41883M 42334M 42466M 42516M
                                                 42595M 42808M 42871M 42934M 43247M 43296M 43548M 43822M 43854M 44339M
                                                 44819M 45050M 45299M 45347M 45417M 45502M 45550M 45706M 45973M 46021M
                                                 46091M 46176M 46224M 46496M 46575M 48571M 48647M 48907M 49097M 49156M
                                                 49815M 49874M 50341M 50681M 51034M 51113M 51145M 51295M 51530M 52199M
                                                 52323M 52431M
 SCPPARMP      4 00000228 FFFFFF74     A    9151 36597
 SCPPCAT       4 000001BC FFFFFF74     A    9069 12698M
 SCPPER        4 00000204 FFFFFF74     A    9139 19133M 19134M 19761  19838
 SCPPRIV       1 000001B7 FFFFFF74     X    9067 12923M 27897  33347M 36723
 SCPPSW        8 00000008 FFFFFF74     D    9027 13715  14892  14966  15089  15209  15339M 15345  15422  15662  15673
                                                 15674M 16899M 16905  16971  17295  17306  17308M 17490  17732M 17738
                                                 17833  18251  18262  18264M 18541M 18547  18607  19026M 19036  19121
                                                 19191  19245  19411  19468  19706  19731  19742M 20014M 20055  20068
                                                 20208  20241  20254M 20415M 20424M 20529  20795  20797M 21282  21373
                                                 21904  21918  21945M 21946M 27891  28037  28469  28584  28937  28939
1M1SERV   (M1SE00) (09:42) (22MAR04) Ordinary Symbol and Literal Cross Reference                                            Page  447
                                                 29403  29405  29871  29873  33360  33363M 33374M 36439  36459  36546
                                                 37902  38348  38368  38392  38465  38485  38525  40360  41791  41860
                                                 41902M 41914M 41923M 41980M 41995M 42083  42552  42572  42673  43212
                                                 43699  43784  44296  44316  44776  44796  44998  45673  46532  46552
                                                 46923  46925M 47066  47816  48137  48139M 48604  48624  49133  49851
                                                 51052  51090  51455  51507  51545  51772M 51813M 51872M 52280  52300
                                                 53351
 SCPPXA        4 000001A0 FFFFFF74     A    9046 19348M 35755
 SCPPXEP       4 000001E0 FFFFFF74     A    9079 19612  19732  36088  41420  51856
 SCPPXI        4 000001E4 FFFFFF74     A    9080 19743
 SCPQIDT       2 00000212 FFFFFF74     H    9144 13237M 52158
 SCPRESRV      2 000001F8 FFFFFF74     H    9086 35683  43451  43453M 43570  43572M 51691  51693M
 SCPRRSEG      4 000001F4 FFFFFF74     A    9085 12692M 35696  40389  43241  43816  45411  46085  48383
 SCPSBPSW      8 000000B8 FFFFFF74     D    9034 21784
 SCPSID        8 000001C0 FFFFFF74     D    9071 15484  17063  17887  18660  20499M 47843
 SCPSVGPR      4 00000150 FFFFFF74     F    9041 18909M
 SCPSVPSW      8 00000148 FFFFFF74     D    9040 18908M 18910M
 SCPSXEP       4 000001E8 FFFFFF74     A    9081 20113  20242  36080  41400
 SCPSXI        4 000001EC FFFFFF74     A    9082 20255
 SCPTRACE      4 0000025C FFFFFF74     A    9158 12261  12383M 12821  12822M
 SCPTRASH      1 00000202 FFFFFF74     X    9136 12697M 33958M 35768  48356M
 SCPTXEP       4 000001D8 FFFFFF74     A    9077 15630  15663  36072  41365
 SCPTXI        4 000001DC FFFFFF74     A    9078 15681
 SCPUCLK       4 000001C8 FFFFFF74     A    9072 14864  14914M 14914  15109  15134M 15134  35933  35978  40799  40844
                                                 40867M 40867  40939M 41113  41158  41178M 41178  41244M
 SCPUCXIT      4 000001CC FFFFFF74     A    9073 13640M 40934  41239
 SCPUMAP       4 000001FC FFFFFF74     A    9088 12699M
 SCPUMSIZ      4 000001F0 FFFFFF74     A    9084 12693M 48388
 SCPUNRSV      2 000001FA FFFFFF74     H    9087 12694M 35684  42839  42897  42951  42953  43448  43450M 43566  43567M
                                                 43889  51688  51690M
 SCPUSER       3 000001AD FFFFFF74     C    9058 12922M 33626  36053  36053  36054M 36055M
 SCPXGPRS      4 00000078 FFFFFF74     F    9032 19707M
 SCPXPSW       8 00000070 FFFFFF74     D    9031 15672M 15673M 15679M 17306M 17307M 17316M 18262M 18263M 18272M 19704M
                                                 19705M 19706M 19733  19754  19776  20207M 20208M 20243  36329  36330
                                                 41824
 SCVBLOCK      1 0000000F FFFFFFE8     X    4659 33696  37215
 SCVHSPFL      1 00000004 FFFFFFE8     X    4631 56388
 SCVJESDB      4 00000010 FFFFFFE8     A    4660 11795
 SCVT        863 00000000 FFFFFFE8     J    4703 11757U 11761  33690U 37209U 56382U
 SEG           1 00000000 0000000A     T   14695 14695
 SEGCORE       1 00000000 0000000C     T   14697 14697
 SEGHEX        1 00000000 0000000B     T   14696 14696
 SENACCIN      2 00004546 00000001     H   37080 35517B
 SENAX         2 000042DE 00000001     H   36095 35504B
 SENCKADD      2 00004884 00000001     H   38294 36610B 36745B 37307B 37391B 37589B 38179B 38257B
 SENCKANL      2 00004896 00000001     H   38335 36027B 36328B 36831B 36912B 37358B
 SENCKREF      4 000048DC 00000001     I   38414 37436B
 SENCMD        2 000043F8 00000001     H   36589 35510B
 SENCOR        2 00004456 00000001     H   36709 35512B
 SENCOST       2 00004698 00000001     H   37560 35526B
 SENCWA        2 0000436C 00000001     H   36337 35509B
 SENET         2 000041E2 00000001     H   35823 35496B
 SENEXIT       2 00004314 00000001     H   36205 36073B 36081B 36089B
 SENFSBS       2 0000469C 00000001     H   37567 35527B
 SENFSI        2 00004508 00000001     H   36991 35515B
 SENGLOBM      2 00004820 00000001     H   38159 35529B
 SENHASP       2 000045C4 00000001     H   37244 35519B
 SENMB         2 00004278 00000001     H   35997 35498B
 SENMON        2 000044D6 00000001     H   36910 35514B
1M1SERV   (M1SE00) (09:42) (22MAR04) Ordinary Symbol and Literal Cross Reference                                            Page  448
 SENNAT        2 0000428C 00000001     H   36025 35500B
 SENONAM       2 00004616 00000001     H   37356 35520B
 SENOSMEM      2 0000485E 00000001     H   38237 35530B
 SENPARM       2 00004400 00000001     H   36596 35511B
 SENPER        2 000044A4 00000001     H   36829 35513B
 SENPNAM       2 0000462C 00000001     H   37390 35521B
 SENPR         2 00004282 00000001     H   36011 35499B
 SENPS         2 00004116 00000001     H   35543 35492B
 SENPX         2 000042D6 00000001     H   36087 35503B
 SENPXA        2 000041A6 00000001     H   35754 35508B
 SENRASL       2 00004188 00000001     H   35695 35494B
 SENRASS       2 0000416E 00000001     H   35682 35493B
 SENRT         2 00004224 00000001     H   35875 35497B
 SENR0         2 00004948 00000001     H   38562 35676B 35888B 36306B 36823B 36860B 36894B 36941B 36975B 37074B 37238B
                                                 37384B 37419B 37787B 38232B 38282B
 SENR4         4 0000494E 00000001     I   38567 36320B 36866B 36900B 36947B 36981B 37029B 37050B 37301B 37561B 37763B
 SENR8         4 00004956 00000001     I   38570 35608B 37068B 37781B 38223B 38276B
 SENSA         2 00004354 00000001     H   36326 35507B
 SENSE         4 0000403C 00000001     I   35360 19891  35371U
 SENSEBR       4 00004082 00000001     I   35492 35484B 35524  35531
 SENSETD       4 0000724E 00000001     I   54277 38630  54288U 56745
 SENSETD2      4 00007346 00000001     I   54586 35283  54597U
 SENSETD9      2 00007242 00000001     H   54272 54271
 SENSE9        2 00004030 00000001     H   35355 35354
 SENSPEC       4 0000493C 00000001     I   38551 35464B 35477B 36124B 36144B 36185B 36227B 36247B 36288B 36350B 36369B
                                                 36390B 36408B 36476B 36724B 37583B 37845B 37859B 37919B 38173B 38251B
                                                 38307B 38327B 38385B 38426B 38446B 38518B
 SENSX         2 000042CE 00000001     H   36079 35502B
 SENSYM        2 0000464E 00000001     H   37435 35522B
 SENTBLOK      2 00004596 00000001     H   37147 35518B
 SENTC         2 00004324 00000001     H   36214 35506B
 SENTD         2 000041B8 00000001     H   35782 35495B
 SENTRASH      2 000041AE 00000001     H   35762 35516B
 SENTX         2 000042C6 00000001     H   36071 35501B
 SENUSYM       2 00004690 00000001     H   37549 35523B
 SENWORK      12 00000000 FFFFFF60     J   35330 35387U
 SENWX         2 000042E6 00000001     H   36103 35505B
 SENX          4 0000495E 00000001     I   38573 35689B 35748B 35756B 35770B 35817B 35869B 35992B 36005B 36019B 36703B
                                                 37350B 37528B 37554B 37632B 37983B 38153B 38558B 38565B 38568B 38571B
 SENXASC       2 00004754 00000001     H   37816 35528B
 SENXGO        2 00004962 00000001     H   38576 36059B 36208B 36331B 36583B 37141B
 SEN1819       2 00004404 00000001     H   36602 36591B
 SERVICE       4 00002BA2 00000001     I   27069 19881  27080U
 SERVICE9      2 00002B96 00000001     H   27064 27063
 SET           4 00004D3E 00000001     I   40047 19892  40058U
 SETBR         4 00005800 00000001     A   39977 40009  40017  40186
 SETCLK        8 00000000 FFFFFF5E     J   39962 40337U 40716U 41030U 50308U 50648U
 SETCLP        4 00002058 00000001     I   21739 14694  18752  21750U 22528
 SETCLP9       2 0000204C 00000001     H   21734 21733
 SETEXIT       4 0000698A 00000001     I   51406 44053  51417U
 SETEXIT9      2 0000697E 00000001     H   51401 51400
 SETKEY        2 00003B0E 00000001     H   33354 30375B
 SETUNDEF      4 00004DAC 00000001     I   40227 40002  40003  40004  40005  40238U
 SET0          4 00004DDE 00000001     I   40310 39977  39978  39979  40321U
 SET09         2 00004DD2 00000001     H   40305 40304
 SET10         4 00005150 00000001     I   41758 39987  41769U
 SET109        2 00005144 00000001     H   41753 41752
 SET11         4 0000524E 00000001     I   42163 39988  42174U
 SET119        2 00005242 00000001     H   42158 42157
1M1SERV   (M1SE00) (09:42) (22MAR04) Ordinary Symbol and Literal Cross Reference                                            Page  449
 SET12         4 0000529A 00000001     I   42284 39989  42295U
 SET129        2 0000528E 00000001     H   42279 42278
 SET13         4 000052EA 00000001     I   42401 39990  42412U
 SET139        2 000052DE 00000001     H   42396 42395
 SET14         4 000053C8 00000001     I   42758 39991  42769U
 SET149        2 000053BC 00000001     H   42753 42752
 SET15         4 000054E4 00000001     I   43176 39992  43187U
 SET150        4 0000663A 00000001     I   50084 40011  50095U
 SET1509       2 0000662E 00000001     H   50079 50078
 SET151        4 00006670 00000001     I   50168 40012  50179U
 SET1519       2 00006664 00000001     H   50163 50162
 SET152        4 000066B2 00000001     I   50281 40013  50292U
 SET1529       2 000066A6 00000001     H   50276 50275
 SET153        4 0000679A 00000001     I   50621 40014  50632U
 SET1539       2 0000678E 00000001     H   50616 50615
 SET154        4 00006882 00000001     I   50984 40015  50995U
 SET1549       2 00006876 00000001     H   50979 50978
 SET155        4 00006928 00000001     I   51219 40016  51230U
 SET1559       2 0000691C 00000001     H   51214 51213
 SET159        2 000054D8 00000001     H   43171 43170
 SET16         4 0000565E 00000001     I   43748 39993  43759U
 SET169        2 00005652 00000001     H   43743 43742
 SET17         4 000058C4 00000001     I   44105 39994  44116U
 SET179        2 000058B8 00000001     H   44100 44099
 SET18         4 000059D2 00000001     I   44567 39995  44578U
 SET189        2 000059C6 00000001     H   44562 44561
 SET19         4 00005ACA 00000001     I   44962 39996  44973U
 SET199        2 00005ABE 00000001     H   44957 44956
 SET20         4 00005C72 00000001     I   45637 39997  45648U
 SET209        2 00005C66 00000001     H   45632 45631
 SET21         4 00005DE6 00000001     I   46369 39998  46380U
 SET21X        2 00005FF4 00000001     H   47191 46811B
 SET219        2 00005DDA 00000001     H   46364 46363
 SET22         4 0000601E 00000001     I   47316 39999  47327U
 SET229        2 00006012 00000001     H   47311 47310
 SET23         4 00006234 00000001     I   48323 40000  48334U
 SET239        2 00006228 00000001     H   48318 48317
 SET24         4 00006288 00000001     I   48511 40001  48522U
 SET249        2 0000627C 00000001     H   48506 48505
 SET29         4 0000635E 00000001     I   48844 40006  48855U
 SET299        2 00006352 00000001     H   48839 48838
 SET3          4 00004EBA 00000001     I   40689 39980  40700U
 SET30         4 000063B2 00000001     I   48995 40007  49006U
 SET309        2 000063A6 00000001     H   48990 48989
 SET31         4 00006572 00000001     I   49713 40008  49724U
 SET319        2 00006566 00000001     H   49708 49707
 SET39         2 00004EAE 00000001     H   40684 40683
 SET4          4 00004F8E 00000001     I   41003 39981  41014U
 SET49         2 00004F82 00000001     H   40998 40997
 SET5          4 0000505E 00000001     I   41311 39982  39983  39984  41322U
 SET59         2 00005052 00000001     H   41306 41305
 SET8          4 000050C0 00000001     I   41501 39985  39986  41512U
 SET89         2 000050B4 00000001     H   41496 41495
 SET9          2 00004D32 00000001     H   40042 40041
 SEXITMC       8 00000000 FFFFFFC0     J    5957 19174U
 SEXITPER      8 00000000 FFFFFFC1     J    5932 19094U
 SEXITPI       8 00000000 FFFFFFC2     J    5907 18884U 19228U
 SEXITSVC      4 00000000 FFFFFFC3     J    5882 20025U
 SHBASE        6 00000000 FFFFFF6B     C   10571 10594M
1M1SERV   (M1SE00) (09:42) (22MAR04) Ordinary Symbol and Literal Cross Reference                                            Page  450
 SHNUM         2 00000006 FFFFFF6B     C   10572 10615M 10616M
 SHPGMKEY      8 00000000 FFFFFF6B     J   10579 10589U 10610U
 SIGNAL        1 00000000 0000004B     T   56761 56761
 SLDUM         8 00000000 FFFFFF79     D    8730 54914U 55047  55074M 55577  55587M
 SLDUMFP       4 00000000 FFFFFF79     A    8731 55586  55586
 SMFBLOCK      1 00000027 FFFFFF61     X   30188 33706
 SMFDATA      80 00000028 FFFFFF61     X   30190 33619  35282
 SMFDON        4 00000020 FFFFFF61     F   30186 33771M
 SMFGRP        2 00000003 FFFFFF61     C   30178 33625M
 SMFHDR       40 00000000 FFFFFF61     X   30189 33795
 SMFSYSTM      8 00000008 FFFFFF61     C   30181 33644M
 SMFTON        4 0000001C FFFFFF61     F   30185 33770M
 SMFUSER       3 00000000 FFFFFF61     C   30177 30189  30189  33626M
 SNWCLOK       8 00000000 FFFFFF60     D   35322 35814M 35815  35856M 35857  35867M 35868  35990M 35991  37116M 37117
                                                 37131M 37132
 SNWMEM        4 00000008 FFFFFF60     A   35323 37225  37235
 SPB         114 00000000 FFFFFF73     J    9448 10977  11032U 11042M 11042  11111M 27994U 28545U 30757U 31234U 31573U
                                                 31757  31933  31943U 32091  32125U 32133M 32133  32194  32401U 32417
                                                 35296  36509U 38814U 39262U 39723  39747U 39799U 39816U 39858  42636U
                                                 45097U 45771U 49229U 49328U 49465U 49963U
 SPBBADDET
               2 00004D02 00000001     H   39924 39764B
 SPBCWA        1 00000062 FFFFFF73     X    9441 36515  42642
 SPBCWASZ      1 00000010 FFFFFF73 A   N    9440  9441
 SPBFACTV     32 00000045 FFFFFF73         9423 30872  31302M 32033  39275  39363M
 SPBFAUTH     32 00000044 FFFFFF73         9389 11321M 28558  49252  49976
 SPBFCORPSE
              16 00000045 FFFFFF73         9428 30808  31990  32193M 38960  39307  39676  49341
 SPBFILE      44 00000018 FFFFFF73     C    9371 11068M 30828
 SPBFL         1 00000044 FFFFFF73     R    9375  9379   9384   9389   9394   9399   9404
 SPBFLHI       8 00000044 FFFFFF73         9399 11399M 30908
 SPBFLOAD    128 00000045 FFFFFF73         9413 30883M 31044M 31296M 31597  31720  31720  31721M
 SPBFL2        1 00000045 FFFFFF73     R    9409  9413   9418   9423   9428  32168M
 SPBFMEM      64 00000045 FFFFFF73         9418 30893  31019M 31720  31720  39517M
 SPBFM31       4 00000044 FFFFFF73         9404 11405M 11483M
 SPBFPRT      64 00000044 FFFFFF73         9384 11171M 11243M 31356  45110  45784
 SPBFPURGABLE
              16 00000044 FFFFFF73         9394 11562M 39295
 SPBFSPI     128 00000044 FFFFFF73         9379 11640M 28008
 SPBID         4 00000000 FFFFFF73     C    9367 11043M
 SPBNAME       8 00000008 FFFFFF73     C    9369 11044M 11063  31978
 SPBNEXT       4 00000004 FFFFFF73     A    9368 11111M 30772  31933  31958  32172M 35296  39122  39723  39761M 39761
                                                 39770  39824M 39824  49455
 SPBNREF       4 0000005C FFFFFF73     A    9437 32154M 32154  32446  32448M 39100  39101M 39345M 39345
 SPBNU         4 00000054 FFFFFF73     A    9435 31079  31080M 31307  31308M 31747  31749M 32147M 32147  39326M 39326
 SPBORGIN      4 00000048 FFFFFF73     A    9432 31013M 31111  31339  31383  31611  31654  31702  31728M 31728  32140M
                                                 32140  39389  39410  39453  39501  39524M 39524  45130  45140  45167
                                                 45804  45814  45841
 SPBPROG       8 00000010 FFFFFF73     C    9370 11045M 11056M 11056  11063M 30790
 SPBPTR        2 00003B2C 00000001     H   33388 30381B
 SPBSIZE       4 0000004C FFFFFF73     A    9433 11120M 11158M 30946  30989  31384  31649  31697  39394  39448  39496
                                                 45139  45813
 SPBSSB        4 00000058 FFFFFF73     A    9436 32161M 32161  38862  38966  39528  39663M 49347  49591  49592M
 SPR          13 0000000D FFFFFFFF A   #    1172  9897   9912   9913   9928M  9955U 10089U 10476U 10957U 12204  12219
                                                 12220  12235M 12488  12503  12504  12506M 12533U 12907U 12948U 13254U
                                                 13544U 13627U 13695U 13787  13802  13803  13818M 13871U 14208U 14300U
                                                 14469U 14561U 14741  14756  14757  14772M 14880U 15326U 15475U 15512U
                                                 15582  15597  15598  15600M 15650U 15736  15751  15752  15754M 15784U
                                                 15842  15857  15858  15873M 16886U 16930U 16962U 17054U 17091U 17192
1M1SERV   (M1SE00) (09:42) (22MAR04) Ordinary Symbol and Literal Cross Reference                                            Page  451
                                                 17207  17208  17223M 17283U 17387  17402  17403  17418M 17478U 17719U
                                                 17763U 17824U 17878U 17922U 18024  18039  18040  18055M 18186U 18239U
                                                 18343  18358  18359  18374M 18427U 18528U 18572U 18598U 18651U 18692U
                                                 18797  18812  18813  18828M 18895U 18957U 19013U 19109U 19459U 19494U
                                                 19568  19583  19584  19586M 19719U 19826U 19931  19946  19947  19962M
                                                 20001U 20043U 20163U 20229U 20346U 20477U 20520U 20552U 20622  20637
                                                 20638  20640M 20939U 21009  21024  21025  21027M 21095  21110  21111
                                                 21113M 21158U 21248  21263  21264  21266M 21362U 21418U 21486  21501
                                                 21502  21504M 21534U 21598  21613  21614  21616M 21646U 21739  21754
                                                 21755  21770M 21892U 21962U 22065  22080  22081  22096M 22297U 22429U
                                                 22575  22590  22591  22593M 22868U 22916U 23099U 23450  23465  23466
                                                 23468M 23677U 23751U 24095  24110  24111  24113M 24225U 24494  24509
                                                 24510  24512M 24624U 24949  24964  24965  24967M 25274U 25547  25562
                                                 25563  25565M 25677U 25835  25850  25851  25853M 25965U 26142  26157
                                                 26158  26160M 26244U 26309U 26396  26411  26412  26414M 26587U 26652U
                                                 26735U 26910U 26983  26998  26999  27001M 27069  27084  27085  27087M
                                                 27233  27248  27249  27251M 27443  27458  27459  27461M 27676  27691
                                                 27692  27707M 27809  27824  27825  27840M 27877U 28380  28395  28396
                                                 28416M 28455U 28759  28774  28775  28790M 28895U 29096U 29177  29192
                                                 29193  29208M 29361U 29567U 29648  29663  29664  29679M 29829U 30029U
                                                 30227  30242  30243  30258M 30439U 30730U 30933U 31093U 31137U 31321U
                                                 31374U 31442U 31636U 31778U 31815U 31918U 32071U 32224U 32477U 32548U
                                                 32695U 32726U 32829U 32968U 33108U 33192U 33333U 33528U 33726U 33753U
                                                 33819U 34520U 34744U 34788U 34835U 34887U 35022U 35106U 35360  35375
                                                 35376  35391M 35563U 35629U 35795U 35839U 35924U 35969U 36040U 36429U
                                                 37004U 37096U 37450U 37603U 37878U 37945U 38004U 38117U 38194U 38682
                                                 38697  38698  38713M 38790U 39030U 39144U 39233  39248  39249  39251M
                                                 39376U 39435U 40047  40062  40063  40065M 40227  40242  40243  40245M
                                                 40310  40325  40326  40341M 40503U 40597U 40689  40704  40705  40720M
                                                 40790U 40835U 40912U 41003  41018  41019  41034M 41104U 41149U 41223U
                                                 41311  41326  41327  41329M 41437U 41501  41516  41517  41519M 41689U
                                                 41758  41773  41774  41776M 41849U 42071U 42163  42178  42179  42181M
                                                 42284  42299  42300  42302M 42401  42416  42417  42419M 42542U 42758
                                                 42773  42774  42776M 43001U 43176  43191  43192  43194M 43399U 43748
                                                 43763  43764  43766M 43923U 44105  44120  44121  44123M 44286U 44427U
                                                 44567  44582  44583  44585M 44766U 44853U 44962  44977  44978  44980M
                                                 45189U 45325U 45454U 45528U 45637  45652  45653  45655M 45863U 45999U
                                                 46128U 46202U 46369  46384  46385  46400M 46522U 46753U 46836U 46968U
                                                 47079U 47245U 47316  47331  47332  47334M 47423U 47470U 47588U 47663U
                                                 47726  47741  47742  47757M 47834U 47874U 47952  47967  47968  47970M
                                                 48103U 48187U 48323  48338  48339  48341M 48370U 48511  48526  48527
                                                 48542M 48594U 48767U 48844  48859  48860  48862M 48995  49010  49011
                                                 49026M 49121U 49282U 49500U 49612U 49713  49728  49729  49744M 49839U
                                                 50084  50099  50100  50102M 50168  50183  50184  50186M 50281  50296
                                                 50297  50312M 50412U 50457U 50530U 50621  50636  50637  50652M 50755U
                                                 50800U 50897U 50984  50999  51000  51002M 51079U 51219  51234  51235
                                                 51237M 51406  51421  51422  51437M 51496U 51650  51665  51666  51668M
                                                 51740  51755  51756  51758M 52126  52141  52142  52144M 52269U 52538U
                                                 52726U 52822U 53202U 53453U 53554  53569  53570  53585M 53609U 53676
                                                 53691  53692  53707M 53750U 53868U 53999U 54045U 54138U 54277  54292
                                                 54293  54313M 54586  54601  54602  54622M 54759  54774  54775  54777M
                                                 54787U 54873  54888  54889  54891M 55125U 55218U 55245U 55294U 55337U
                                                 55413U 55487U 55539U 55621U 55656U 55697U 55778  55793  55794  55809M
                                                 55889U 55916U 55984U 56045  56060  56061  56063M 56141U 56168U 56278
                                                 56293  56294  56296M 56590  56605  56607M 56672  56687  56689M
 SSAB         12 00000000 FFFFFF71     J    9516 32348U 32364  32497  38857U 39050  39088U
 SSABID        4 00000000 FFFFFF71     C    9507 39092M
 SSABNEXT      4 00000004 FFFFFF71     A    9508 32457  38915  39093M
 SSABSPB       4 00000008 FFFFFF71     A    9509 32391  38861  39095M
1M1SERV   (M1SE00) (09:42) (22MAR04) Ordinary Symbol and Literal Cross Reference                                            Page  452
 SSB         216 00000000 FFFFFF72     J    9480 38827U 39555U 39571  39599M 39631  49373U 49389  49520  49574U 49584M
                                                 49584
 SSBID         4 00000000 FFFFFF72     C    9465 49585M
 SSBNAME     200 00000010 FFFFFF72     C    9473  9529  38890  38994  48974  49428  49586M 49692
 SSBNEXT       4 00000004 FFFFFF72     A    9466 38909  39112  39598  39600M 49440  49591M
 SSBWORD       4 00000008 FFFFFF72     A    9467 38896  39000  49587M
 SSYMEXIT      2 00004B54 00000001     H   39133 38904B 39102B
 SSYMNF        6 00004B4E 00000001     I   39129 39072B
 STORE         2 000033E0 00000001     H   30594 30364B
 SUSPEND       1 00000000 00000016     T   22531 22531
 SVCTABLE      4 000022B8 00000001     A   19875 19875  20097  20279
 SVCTEND       1 00002310 00000001     U   19897 19875
 SWCLOCK       8 00000000 FFFFFF5E     D   39955 40859M 40860  41170M 41171  50478M 50479  50836M 50837
 SXAASB        4 00000000 FFFFFF5F     A   37800 38017
 SXADLEN       4 0000000C FFFFFF5F     A   37803 37831  38037  38082M
 SXADLOC       4 00000008 FFFFFF5F     A   37802 37891  38088
 SXASCPRM     24 00000000 FFFFFF5F     J   37811 37827U
 SXASLOC       4 00000004 FFFFFF5F     A   37801 38022
 SXATOD        8 00000010 FFFFFF5F     D   37804 38042
 SXIECODE      2 00000002 FFFFFFC1     H    5924 19116  19134
 SXIEILC       2 00000000 FFFFFFC1     H    5923 19131
 SXIEPERA      4 00000004 FFFFFFC1     A    5925 19122  19133
 SXIMCLA       2 00000002 FFFFFFC0     H    5949 19186  19204
 SXIMCODE      4 00000004 FFFFFFC0     A    5950 19192  19203
 SXIMILC       2 00000000 FFFFFFC0     H    5948 19201
 SXIPCODE      2 00000002 FFFFFFC2     H    5899 18910  19240  19256
 SXIPEXA       4 00000004 FFFFFFC2     A    5900 19246  19348
 SXIPILC       2 00000000 FFFFFFC2     H    5898 19255
 SXISILC       2 00000000 FFFFFFC3     H    5874 20070
 SXISNUM       2 00000002 FFFFFFC3     H    5875 20050  20089
 SYSRDEL       1 00000000 0000003F     T   51936 51936  56755
 SYSRDO        1 00000000 0000003E     T   51934 51934
 SYSRNEW       1 00000000 0000003C     T   51930 51930  56760
 S21ADDR       4 0000000C FFFFFF5C     A   46319 47066M 47816
 S21ASB        4 00000010 FFFFFF5C     A   46320 47094M 47598
 S21CAN        4 0000614E 00000001     I   47952 46798  47641  47963U
 S21CAN9       2 00006142 00000001     H   47947 47946
 S21FLAG       1 0000001C FFFFFF5C     R   46325 46329  46334
 S21FPOST    128 0000001C FFFFFF5C        46329 47575M 48011  48071M
 S21FSYSD     64 0000001C FFFFFF5C        46334 47893M 48088
 S21NAME     128 00000000 FFFFFF5D     C   46282 46592M 46604M 46635  46692M 46845
 S21OPTS       1 00000080 FFFFFF5D     R   46285 46289
 S21OTEST    128 00000080 FFFFFF5D        46289 46444M 46894
 S21POST       4 000060DE 00000001     I   47726 47737U 51933
 S21POST9      2 000060D2 00000001     H   47721 47720
 S21SCP        4 00000014 FFFFFF5C     A   46321 47093M 47772
 S21SYSR       4 00000018 FFFFFF5C     A   46322 47092M 47597  47883  48112
 S21WAIT      29 00000000 FFFFFF5C     J   46343 46988  47043U 47053M 47053  47149U 47517U 47531U 47555U 47768U 47995U
                                                 48027U 48051U 48207
 S21WBP        4 00000004 FFFFFF5C     A   46317 47164M 47537M 48033M
 S21WFP        4 00000000 FFFFFF5C     A   46316 47138M 47155M 47521  47561M 48017  48057M
 S21WID        4 00000008 FFFFFF5C     C   46318 47065M
 S21WORK     129 00000000 FFFFFF5D     J   46298 46396U 46420M 46420
 S24NAME       8 00000000 FFFFFF5B     C   48478 48691M 48707  48743
 S24WORK       8 00000000 FFFFFF5B     J   48485 48538U
 S30NAME     200 00000000 FFFFFF5A     C   48974 49173M 49174  49174M 49174  49205M 49428  49586  51945
 S30UEXIT      2 00006550 00000001     H   49601 49435B
 S30WORK     200 00000000 FFFFFF5A     J   48981 49022U
 S31NAME     200 00000004 FFFFFF59     C   49692 49891M 49892  49892M 49892  49923M 51949
1M1SERV   (M1SE00) (09:42) (22MAR04) Ordinary Symbol and Literal Cross Reference                                            Page  453
 S31WORK     204 00000000 FFFFFF59     J   49699 49740U
 TCREATE       1 00000000 00000043     T   56731 56731
 TERMINUI      1 00000000 00000005     T   14680 14680
 TERMPOP       2 00003DFE 00000001     H   34637 30390B
 TERMPUSH      2 00003DEA 00000001     H   34606 30389B
 TERUINF       1 00000000 00000032     T   38635 38635
 TEXIT         1 00000000 00000047     T   56737 56737
 TODWRK       16 00000000 FFFFFF53     J   54230 54311U 54620U
 TRCD9         4 00007834 00000001     A   56709 56708
 TRCELOCK      1 00000000 00000000 A   T    1677  1677
 TWCLK         8 00000008 FFFFFF53     D   54223 54342M 54343  54651M 54652
 TWCVD         8 00000000 FFFFFF53     D   54222 54394M 54395  54532M 54533  54536M 54537  54715M 54716
 UINFO         2 00003856 00000001     H   32565 30370B
 UIOFDIS       2 00003CB6 00000001     H   34074 34047X
 UIOFENB       2 00003CCA 00000001     H   34106 34065X
 UIOFSET       2 00003C90 00000001     H   33982 30382B
 UTRACE        4 000006D0 00000001     I   12204 12215U 18743  22516  44059
 UTRACE9       2 000006C4 00000001     H   12199 12198
 UTRCHAIN      4 00000000 FFFFFF6E     A    9606 12382  12821M 12874M
 UTREND        4 00000008 FFFFFF6E     A    9608 12376  12405  12827M
 UTRHDR       12 00000000 FFFFFF6E     J    9616 12280U 12817U 12826  12870U
 UTRNEXT       4 00000004 FFFFFF6E     A    9607 12360  12385M 12430M 12824M
 UTRSTART      4 0000000C FFFFFF6E     A    9609 12384  12823
 VCLP          1 00000000 00000015     T   22515 22515
 VENQ          2 00007802 00000001     I   56642 56641
 VFIXLOCK      1 00000000 00000000 A   T    1663  1663
 VHRTN         4 00000010 FFFFFF75     A    8998  8999  43698
 VHRTNCNT      4 00000000 FFFFFF75     A    8995 43688  43689M
 VHRTNPTR      4 00000004 FFFFFF75     A    8996 43665  43702M
 VHSTCK        8 00000008 FFFFFF75     D    8997 43683M
 VMCHK         1 00000000 0000002D     T   38627 38627  44044  45606  51914
 VMFREE        1 00000000 00000024     T   35272 35272  38651  44034  51938  56736
 VMGET         1 00000000 00000002     T   14665 14665  35268  38647  44030  51928  56728
 VMGETM        1 00000000 00000037     T   44063 44063
 VMGETS        1 00000000 00000038     T   44070 44070
 VMINFO        1 00000000 00000004     T   14671 14671
 VMRTNLOG      2 0000561A 00000001     H   43617 43115B 43365B
 VMSTAT     2048 00000000 FFFFFF75     J    9006 43658U
 VMUPDAT       4 00006A2C 00000001     I   51650 44064  51661U
 VMUPDAT9      2 00006A20 00000001     H   51645 51644
 VPAGLOCK      1 00000000 00000000 A   T    1668  1668
 VREGION       2 00003EB2 00000001     H   34923 30395B
 VWTO          2 000077D2 00000001     I   56563 56562
 WAR          12 0000000C FFFFFFFF A   #    1160  9912   9913M  9914   9924U  9928  12171  12172  12219  12220M 12221
                                                 12231U 12235  12459  12460  12503  12504M 12505  12506  13730  13731
                                                 13802  13803M 13804  13814U 13818  14632  14633  14756  14757M 14758
                                                 14768U 14772  15549  15550  15597  15598M 15599  15600  15703  15704
                                                 15751  15752M 15753  15754  15809  15810  15857  15858M 15859  15869U
                                                 15873  17133  17134  17207  17208M 17209  17219U 17223  17354  17355
                                                 17402  17403M 17404  17414U 17418  17964  17965  18039  18040M 18041
                                                 18051U 18055  18310  18311  18358  18359M 18360  18370U 18374  18729
                                                 18730  18812  18813M 18814  18824U 18828  19531  19532  19583  19584M
                                                 19585  19586  19853  19854  19946  19947M 19948  19958U 19962  20589
                                                 20590  20637  20638M 20639  20640  20976  20977  21024  21025M 21026
                                                 21027  21065  21066  21110  21111M 21112  21113  21215  21216  21263
                                                 21264M 21265  21266  21453  21454  21501  21502M 21503  21504  21565
                                                 21566  21613  21614M 21615  21616  21677  21678  21754  21755M 21756
                                                 21766U 21770  22007  22008  22080  22081M 22082  22092U 22096  22498
                                                 22499  22590  22591M 22592  22593  23417  23418  23465  23466M 23467
1M1SERV   (M1SE00) (09:42) (22MAR04) Ordinary Symbol and Literal Cross Reference                                            Page  454
                                                 23468  24062  24063  24110  24111M 24112  24113  24461  24462  24509
                                                 24510M 24511  24512  24916  24917  24964  24965M 24966  24967  25514
                                                 25515  25562  25563M 25564  25565  25802  25803  25850  25851M 25852
                                                 25853  26109  26110  26157  26158M 26159  26160  26363  26364  26411
                                                 26412M 26413  26414  26950  26951  26998  26999M 27000  27001  27039
                                                 27040  27084  27085M 27086  27087  27125  27126  27248  27249M 27250
                                                 27251  27412  27413  27458  27459M 27460  27461  27645  27646  27691
                                                 27692M 27693  27703U 27707  27778  27779  27824  27825M 27826  27836U
                                                 27840  28346  28347  28395  28396M 28397  28407U 28416  28725  28726
                                                 28774  28775M 28776  28786U 28790  29143  29144  29192  29193M 29194
                                                 29204U 29208  29614  29615  29663  29664M 29665  29675U 29679  30088
                                                 30089  30242  30243M 30244  30254U 30258  35248  35249  35375  35376M
                                                 35377  35387U 35391  38606  38607  38697  38698M 38699  38709U 38713
                                                 39190  39191  39248  39249M 39250  39251  39911  39912  40062  40063M
                                                 40064  40065  40206  40207  40242  40243M 40244  40245  40280  40281
                                                 40325  40326M 40327  40337U 40341  40656  40657  40704  40705M 40706
                                                 40716U 40720  40970  40971  41018  41019M 41020  41030U 41034  41278
                                                 41279  41326  41327M 41328  41329  41468  41469  41516  41517M 41518
                                                 41519  41725  41726  41773  41774M 41775  41776  42130  42131  42178
                                                 42179M 42180  42181  42254  42255  42299  42300M 42301  42302  42371
                                                 42372  42416  42417M 42418  42419  42725  42726  42773  42774M 42775
                                                 42776  43143  43144  43191  43192M 43193  43194  43598  43599  43763
                                                 43764M 43765  43766  44012  44013  44120  44121M 44122  44123  44534
                                                 44535  44582  44583M 44584  44585  44929  44930  44977  44978M 44979
                                                 44980  45583  45584  45652  45653M 45654  45655  46257  46258  46384
                                                 46385M 46386  46396U 46400  47283  47284  47331  47332M 47333  47334
                                                 47693  47694  47741  47742M 47743  47753U 47757  47918  47919  47967
                                                 47968M 47969  47970  48290  48291  48338  48339M 48340  48341  48417
                                                 48418  48526  48527M 48528  48538U 48542  48810  48811  48859  48860M
                                                 48861  48862  48943  48944  49010  49011M 49012  49022U 49026  49657
                                                 49658  49728  49729M 49730  49740U 49744  50051  50052  50099  50100M
                                                 50101  50102  50138  50139  50183  50184M 50185  50186  50251  50252
                                                 50296  50297M 50298  50308U 50312  50588  50589  50636  50637M 50638
                                                 50648U 50652  50951  50952  50999  51000M 51001  51002  51186  51187
                                                 51234  51235M 51236  51237  51351  51352  51421  51422M 51423  51433U
                                                 51437  51617  51618  51665  51666M 51667  51668  51710  51711  51755
                                                 51756M 51757  51758  51895  51896  52141  52142M 52143  52144  53521
                                                 53522  53569  53570M 53571  53581U 53585  53643  53644  53691  53692M
                                                 53693  53703U 53707  54170  54171  54292  54293M 54294  54304U 54313
                                                 54554  54555  54601  54602M 54603  54613U 54622  54731  54732  54774
                                                 54775M 54776  54777  54842  54843  54888  54889M 54890  54891  55749
                                                 55750  55793  55794M 55795  55805U 55809  56060  56061M 56062  56063
                                                 56246  56247  56293  56294M 56295  56296  56538  56539  56605M 56606
                                                 56607  56617  56618  56687M 56688  56689  56699  56700
 XALGOFF       1 00000000 00000017     T   22535 22535
 XARCFAIL      1 00000004 00000001 A   U    8273 38650
 XARCOK        1 00000000 00000001 A   U    8272 38649
 XARCSETUP
               1 0000000C 00000001 A   U    8275 37982
 XARMEM        1 00000000 00000034     T   38648 38648
 XATFLAG       1 00000010 FFFFFF87     R    8247  8251
 XITDEL        1 00000000 00000049     T   56758 56758
 XITDO         1 00000000 00000046     T   56735 56735
 XITFPR        1 00000000 00000013     T   18758 18758  22514
 XITGST        1 00000000 0000000E     T   18744 18744  22512
 XITMASK       1 00000000 00000008     T   14692 14692  56752
 XITMATTN    128 00000001 FFFFFFB7         6321 13465M 13601M 18476M
 XITMCTC      16 00000000 FFFFFFB7         6291 13374  13374  13594  13594  18469  18469
 XITMIOCA     32 00000001 FFFFFFB7         6331 13420  13420  13576  13576
1M1SERV   (M1SE00) (09:42) (22MAR04) Ordinary Symbol and Literal Cross Reference                                            Page  455
 XITMIOCN     64 00000001 FFFFFFB7         6326 13420  13420  13421M 13576  13576  13577M
 XITMLGO       2 00000000 FFFFFFB7         6306 13512M 13607M
 XITMMON       4 00000000 FFFFFFB7         6301 13284  13284  13285  13285  13585  13585  18459  18459  18460  18460
 XITMPER       8 00000000 FFFFFFB7         6296 13283  13283  13285  13285  13585  13585  13586M 18458  18458  18460
                                                 18460  18978M 20184M 20367M 21983M
 XITMPI      128 00000000 FFFFFFB7         6276 13283  13283  13284  13284  13286M 13567  13567  18458  18458  18459
                                                 18459  18461M
 XITMRTC      32 00000000 FFFFFFB7         6286 13374  13374  13375M 13594  13594  13595M 18469  18469  18470M 55266M
                                                 55315M
 XITMSKD       4 00000000 FFFFFFB7     J    6350 13268U 13318U 13361U 13407U 13454U 13501U 13558U 18441U 18971U 20177U
                                                 20360U 21976U 55259U 55308U
 XITMSVC      64 00000000 FFFFFFB7         6281 13329M 13567  13567  13568M 18448M
 XITNEW        1 00000000 00000009     T   14693 14693  56749
 XITPST        1 00000000 0000000F     T   18747 18747  22523
 XITRMPLC      1 00000000 00000014     T   22513 22513
 XITSAREA     28 00000000 FFFFFFB5     J    6399 14787U 15888U 17433U 18389U 18843U 19974U 55820U
 XITSRPRM      4 00000000 FFFFFFB5     A    6389 14791  15892  17440  18393  18847  19978
 XITSTYPE      1 00000004 FFFFFFB5     X    6390 14829  19083  19163
 XITSXPRM     16 0000000C FFFFFFB5     X    6392 14810U 15906  16016U 16164U 16316U 16451U 16616U 16750U 17454  17793U
                                                 18884U 19094U 19174U 19228U 20025U 55829U
 XITTIOCN      1 00000009 00000001 A   U    6254 54010
 XITTMON       1 00000005 00000001 A   U    6250 19161
 XITTPER       1 00000004 00000001 A   U    6249 19081
 XITTRTC       1 00000002 00000001 A   U    6247 14827
 =A(-4)        4 0000184C 00000001     A   18751 15786
 =A(-4)        4 00003270 00000001     A   30124 27626
 =A(CLPSMAX)
               4 00003F80 00000001     A   35264 30343
 =A(CLWIBUFL)
               4 00002288 00000001     A   22537 21322
 =A(DOATTN)
               4 00001860 00000001     A   18756 17806
 =A(DOATTN)
               4 000022A0 00000001     A   22543 22312
 =A(DOCTMR)
               4 00001834 00000001     A   18745 15379
 =A(DOCTMR)
               4 0000229C 00000001     A   22542 22208
 =A(DOEXITS)
               4 000057C4 00000001     A   44061 42114  42238
 =A(DOPANIC)
               4 00002268 00000001     A   22529 20146  20322
 =A(DOUTMR)
               4 00001838 00000001     A   18746 15402
 =A(DOUTMR)
               4 00002298 00000001     A   22541 22176
 =A(DOWAIT)
               4 0000185C 00000001     A   18755 16945
 =A(DOWAIT)
               4 000022A8 00000001     A   22545 22444
 =A(DOWAIT)
               4 0000324C 00000001     A   30115 23692
 =A(FINDIDT)
               4 00003248 00000001     A   30114 23490  24135  24534  24989  25587  25875  26473
 =A(FREEIDT)
               4 00002278 00000001     A   22533 20947
 =A(FREEIDT)
               4 00003224 00000001     A   30105 22964  26334  29104  29575  30037
 =A(GETSSYM)
1M1SERV   (M1SE00) (09:42) (22MAR04) Ordinary Symbol and Literal Cross Reference                                            Page  456
               4 000049DC 00000001     A   38641 37524
 =A(GOFILE)
               4 00003220 00000001     A   30104 22888  23771  24301  24700  25354  25697  25985  26264
 =A(GOJES)
               4 00003238 00000001     A   30110 23225  23907  24810  25409  26810
 =A(GONET)
               4 00003244 00000001     A   30113 23367  23987  24411  24865  25464  26865
 =A(GOPATH)
               4 00003230 00000001     A   30108 23119  23826  24356  24755  26755
 =A(GOTERM)
               4 00003250 00000001     A   30116 24245  24644  25294  26607
 =A(HSENBASE-MAXPSEN-1)
               4 00004994 00000001     A   38623 35446
 =A(HSETBASE-MAXPSET-1)
               4 00005764 00000001     A   44037 40121
 =A(L'@FMFINAM+2)
               4 00003FD8 00000001     A   35286 34499
 =A(L'@SSNAME)
               4 000049D8 00000001     A   38640 37464  37476
 =A(L'IDTCFIL)
               4 0000321C 00000001     A   30103 22785
 =A(L'IDTCJES)
               4 00003234 00000001     A   30109 23153
 =A(L'IDTCKEY)
               4 0000323C 00000001     A   30111 23258
 =A(L'IDTCNET)
               4 00003240 00000001     A   30112 23295
 =A(L'IDTCOSF)
               4 00003228 00000001     A   30106 23000
 =A(L'IDTCSCM)
               4 0000322C 00000001     A   30107 23037
 =A(L'IDTCTRM)
               4 00003218 00000001     A   30102 22622
 =A(L'M1EQNAME-4)
               4 00007868 00000001     A   56721 52241
 =A(L'SCBPNAM)
               4 00006B8C 00000001     A   51940 48663  48675
 =A(L'SMFDATA)
               4 00003FC8 00000001     A   35282 33602  33614  33778  33790
 =A(L'S30NAME)
               4 00006BA0 00000001     A   51945 49177  49189
 =A(L'S31NAME)
               4 00006BB0 00000001     A   51949 49895  49907
 =A(MAXPSEN)
               4 00004990 00000001     A   38622 35439
 =A(MAXPSET)
               4 00005760 00000001     A   44036 40114
 =A(MAXSENSE)
               4 00004998 00000001     A   38624 35474
 =A(MAXSET)
               4 00005768 00000001     A   44038 40152
 =A(MXRTN)
               4 000057E4 00000001     A   44069 43677
 =A(M1ATTN+X'80000000')
               4 00000E5C 00000001     A   14690 13470
 =A(M1CANWAI)
               4 00001864 00000001     A   18757 18413
 =A(M1ENQHLT)
               4 00003268 00000001     A   30122 26925
1M1SERV   (M1SE00) (09:42) (22MAR04) Ordinary Symbol and Literal Cross Reference                                            Page  457
 =A(M1ENQTSK+X'80000000')
               4 000078B4 00000001     A   56730 53466
 =A(M1GOFIRE+X'80000000')
               4 00007904 00000001     A   56750 55268
 =A(M1GOWAIT)
               4 00006B9C 00000001     A   51944 48926
 =A(M1IOC+X'80000000')
               4 00000E58 00000001     A   14689 13426
 =A(M1LGOFF+X'80000000')
               4 00000E60 00000001     A   14691 13517
 =A(M1PGM+X'80000000')
               4 00000E48 00000001     A   14685 13291
 =A(M1SVC+X'80000000')
               4 00000E50 00000001     A   14687 13334
 =A(M1TMC+X'80000000')
               4 00000E54 00000001     A   14688 13380
 =A(PERCHECK)
               4 000057C0 00000001     A   44060 42107  42231
 =A(PERCHECK)
               4 00005C48 00000001     A   45602 44509
 =A(PURSPB)
               4 00003FA4 00000001     A   35273 31763  32200  32455
 =A(SENSETD)
               4 000049B0 00000001     A   38630 35809
 =A(SENSETD)
               4 000078F0 00000001     A   56745 54801
 =A(SENSETD2)
               4 00003FCC 00000001     A   35283 33768
 =A(SETCLP)
               4 00000E6C 00000001     A   14694 13704
 =A(SETCLP)
               4 00001850 00000001     A   18752 15793  18195  18581
 =A(SETCLP)
               4 00002264 00000001     A   22528 19835  21167  21427  21543  21655
 =A(SETEXIT)
               4 000057A4 00000001     A   44053 41452  41704
 =A(S21POST)
               4 00006B70 00000001     A   51933 47599
 =A(UTRACE)
               4 0000182C 00000001     A   18743 14899  14973  15096  15216  15670  17304  17497  18260
 =A(UTRACE)
               4 00002234 00000001     A   22516 19129  19199  19253  19740  20066  20250  21911
 =A(UTRACE)
               4 000057BC 00000001     A   44059 42090
 =A(VMUPDAT)
               4 000057D0 00000001     A   44064 43127  43996
 =A(X'01000000')
               4 000057D4 00000001     A   44065 43370  43372
 =A(XARCFAIL)
               4 00004A00 00000001     A   38650 38075
 =A(XARCOK)
               4 000049FC 00000001     A   38649 38061
 =A(0)         4 00003260 00000001     A   30120 25749  26056
 =A(0)         4 00005770 00000001     A   44040 40427  40636  42710  43121  43277  43583  43990
 =A(0)         4 00005C4C 00000001     A   45603 44519  44914  45031  45568
 =A(0)         4 00006AF4 00000001     A   51912 45734  46242  46866  48357  48790  48928  50123  50236  51334
 =A(1)         4 00000E7C 00000001     A   14698 14602
 =A(1)         4 000022A4 00000001     A   22544 22324  22453
 =A(1)         4 00003FBC 00000001     A   35279 32758
1M1SERV   (M1SE00) (09:42) (22MAR04) Ordinary Symbol and Literal Cross Reference                                            Page  458
 =A(1)         4 000049AC 00000001     A   38629 35670  38515
 =A(1)         4 00005784 00000001     A   44045 40579
 =A(1)         4 00006B90 00000001     A   51941 48753
 =A(1)         4 000078D4 00000001     A   56738 54359  54409  54467  54489  54668  54825
 =A(100)       4 00006B98 00000001     A   51943 48901
 =A(100)       4 000078DC 00000001     A   56740 54391  54406  54701  54713
 =A(10000*4096)
               4 000078F4 00000001     A   56746 54804
 =A(10000)
               4 000078EC 00000001     A   56744 54690
 =A(1000000/64*60*60*24)
               4 000078D8 00000001     A   56739 54373  54682
 =A(1024)      4 00000DE4 00000001     A   14670 10372
 =A(12)        4 00005C38 00000001     A   45598 44315
 =A(128)       4 00006B04 00000001     A   51916 46477
 =A(133)       4 000049D0 00000001     A   38638 36606  36608
 =A(15)        4 000057C8 00000001     A   44062 42328
 =A(16*1024)
               4 0000577C 00000001     A   44043 40477  40479
 =A(16)        4 00002240 00000001     A   22519 19328
 =A(16)        4 000049E0 00000001     A   38642 37580  37644
 =A(17)        4 00002244 00000001     A   22520 19342
 =A(19)        4 00002238 00000001     A   22517 19271
 =A(1900)      4 000078E4 00000001     A   56742 54393
 =A(192*1024)
               4 00000DDC 00000001     A   14668 10216
 =A(2*1024*1024)
               4 00000DF0 00000001     A   14673 10548  10550
 =A(2)         4 00000DEC 00000001     A   14672 10544
 =A(2)         4 00002290 00000001     A   22539 21390
 =A(2)         4 00003FFC 00000001     A   35295 35132
 =A(2)         4 00004A08 00000001     A   38652 38220
 =A(2)         4 000057B4 00000001     A   44057 41877  42589
 =A(2)         4 00005C40 00000001     A   45600 44333  44813
 =A(2)         4 00006B0C 00000001     A   51918 46569  48641  49150  49868  51107  51506  51524
 =A(2)         4 00007874 00000001     A   56724 52317
 =A(20480000)
               4 000078F8 00000001     A   56747 54816
 =A(22)        4 00003254 00000001     A   30117 25088
 =A(23)        4 0000325C 00000001     A   30119 25126
 =A(24)        4 00003258 00000001     A   30118 25102
 =A(25)        4 0000223C 00000001     A   22518 19297
 =A(250)       4 00000DE0 00000001     A   14669 10302  10314
 =A(255-128)
               4 0000225C 00000001     A   22526 19657
 =A(255-64)
               4 00002260 00000001     A   22527 19678
 =A(28)        4 000049E4 00000001     A   38643 37658  37694
 =A(32)        4 00002248 00000001     A   22521 19374
 =A(36)        4 000049EC 00000001     A   38645 37710  37745
 =A(36525)
               4 000078E0 00000001     A   56741 54392  54702
 =A(37)        4 0000224C 00000001     A   22522 19388
 =A(4)         4 00003FD0 00000001     A   35284 34287
 =A(4)         4 00005774 00000001     A   44041 40446  42845  42972  43054  43895  43977
 =A(4)         4 00005C30 00000001     A   45596 44206  44244  44666  44704  44795
 =A(4)         4 00006B54 00000001     A   51926 46901  48726  49434
 =A(40)        4 00003FAC 00000001     A   35275 32579
 =A(40)        4 00006B40 00000001     A   51921 46633
1M1SERV   (M1SE00) (09:42) (22MAR04) Ordinary Symbol and Literal Cross Reference                                            Page  459
 =A(4096)      4 00000E30 00000001     A   14679 12046  12064  12098  12146  12928
 =A(4096)      4 000049A0 00000001     A   38626 35546
 =A(4096)      4 000057E0 00000001     A   44068 43490  43573
 =A(44)        4 00000DF8 00000001     A   14675 10905
 =A(44)        4 00006B3C 00000001     A   51920 46626
 =A(5*8)       4 00003F84 00000001     A   35265 30416
 =A(5)         4 0000579C 00000001     A   44051 41358
 =A(59)        4 000078E8 00000001     A   56743 54421
 =A(6)         4 000057A0 00000001     A   44052 41393
 =A(72)        4 000057AC 00000001     A   44055 41859
 =A(8)         4 00000DF4 00000001     A   14674 10712  10805
 =A(8)         4 00003FD4 00000001     A   35285 34324
 =A(8)         4 000057A8 00000001     A   44054 41548
 =A(8192)      4 00003FF4 00000001     A   35293 35085
 =A(8192)      4 000049F0 00000001     A   38646 37856  38324  38443
 =AL1(HSPFORV+HSPFORVR)
               1 0000794E 00000001     R   56771 56447
 =AL1(HSPFORV)
               1 0000794D 00000001     R   56770 56412
 =AL1(255-(HSPFORV+HSPFORVR))
               1 00007950 00000001     R   56773 56503
 =AL1(255-HSPFORV)
               1 0000794F 00000001     R   56772 56468
 =AL4(1873)
               4 00006BB8 00000001     R   51951 50219
 =C'*** MODE 1 SERVICES SCP ***'
              27 00000E9C 00000001     C   14711 13888
 =C'*** NOT INITIALIZED ***'
              23 00000EB7 00000001     C   14712 14001
 =C'ssb'       3 000057FB 00000001     C   44078 39599
 =C'sBWB'      4 00007920 00000001     C   56757 55574
 =C'Dump of active IDTs'
              19 00000ED5 00000001     C   14714 14358
 =C'GG.'       3 00006BDD 00000001     C   51963 51266
 =C'GQ.'       3 00006BE0 00000001     C   51964 51286
 =C'ORVYL'
               5 00007948 00000001     C   56769 56325
 =C'ORVYLB'
               6 00007942 00000001     C   56768 56440  56496
 =C'ORVYLRLG'
               8 00007860 00000001     C   56720 56426  56482
 =C'SCP at '
               7 00000ECE 00000001     C   14713 14071
 =C'SHARED'
               6 00000E88 00000001     C   14703 10594
 =C'SPB'       3 0000400E 00000001     C   35303 32417
 =C'SSAB'      4 00003FA8 00000001     C   35274 32364
 =C'SSAB'      4 0000574C 00000001     C   44031 39092
 =C'SSB'       3 000057F8 00000001     C   44077 39571
 =C'SSB'       3 00006BDA 00000001     C   51962 49389
 =CL(L'SCBPNAM)' '
               8 00006AD0 00000001     C   51907 48734
 =CL16' '     16 00004980 00000001     C   38621 36058
 =CL16'SET21QUEUE'
              16 00000D30 00000001     C   14646 10171
 =CL16'SPBCHAIN'
              16 00000D20 00000001     C   14645 10103
 =CL4'ASB'
               4 00003FB0 00000001     C   35276 32664
1M1SERV   (M1SE00) (09:42) (22MAR04) Ordinary Symbol and Literal Cross Reference                                            Page  460
 =CL4'FIRE'
               4 000078FC 00000001     C   56748 55203  55846
 =CL4'IDT'
               4 00000E40 00000001     C   14683 13205  14512
 =CL4'IDT'
               4 00001854 00000001     C   18753 15931
 =CL4'IDT'
               4 0000326C 00000001     C   30123 27553  27752
 =CL4'M1CT'
               4 00000DD4 00000001     C   14666 10044
 =CL4'SCIP'
               4 00000E2C 00000001     C   14678 11782
 =CL4'SCP'
               4 00000E38 00000001     C   14681 12621  14251
 =CL4'SPB'
               4 00000E28 00000001     C   14677 11043
 =CL4'SSB'
               4 00006BA8 00000001     C   51947 49585
 =CL4'S21W'
               4 00006B60 00000001     C   51929 47065
 =CL44' '     44 00000DFC 00000001     C   14676 10914
 =CL44' '     44 00006B10 00000001     C   51919 46592
 =CL44'ENQ.'
              44 00007878 00000001     C   56725 52548  53389
 =CL8'        '
               8 00003210 00000001     C   30101 28474
 =CL8' '       8 00000D80 00000001     C   14655 10721  10814
 =CL8' '       8 00003F70 00000001     C   35262 33270
 =CL8'AUTH'
               8 00000DA8 00000001     C   14660 11258
 =CL8'DEVICES'
               8 00000D50 00000001     C   14649 10271
 =CL8'ENQ/DEQ'
               8 00007850 00000001     C   56718 52547  53618  53877
 =CL8'ENQUEUES'
               8 00000D58 00000001     C   14650 10335
 =CL8'LIB'
               8 00000D90 00000001     C   14657 10848
 =CL8'LOADHI'
               8 00000DB0 00000001     C   14661 11336
 =CL8'MAPSIZE'
               8 00000D48 00000001     C   14648 10225
 =CL8'MODE1'
               8 00000D40 00000001     C   14647 10224
 =CL8'MODE31'
               8 00000DB8 00000001     C   14662 11420
 =CL8'NAME'
               8 00000D78 00000001     C   14654 10655
 =CL8'PROGNAME'
               8 00000D88 00000001     C   14656 10751
 =CL8'PROT'
               8 00000DA0 00000001     C   14659 11179
 =CL8'PURGABLE'
               8 00000DC0 00000001     C   14663 11499
 =CL8'REGION'
               8 00000D70 00000001     C   14653 10505
 =CL8'SET21'
               8 00006AC8 00000001     C   51906 46846
 =CL8'SIZE'
1M1SERV   (M1SE00) (09:42) (22MAR04) Ordinary Symbol and Literal Cross Reference                                            Page  461
               8 00000D98 00000001     C   14658 11128
 =CL8'SPIRES'
               8 00000DC8 00000001     C   14664 11577
 =CL8'TRCBUFF'
               8 00000D68 00000001     C   14652 10426
 =CL8'TRCSIZE'
               8 00000D60 00000001     C   14651 10380
 =D'106667'
               8 00005738 00000001     D   44027 40924  41235
 =D'106667'
               8 00006AE8 00000001     D   51910 50542  50909
 =F'-1'        4 0000575C 00000001     F   44035 39600
 =F'-4'        4 00006BA4 00000001     F   51946 49258  50012
 =F'0'         4 00006BAC 00000001     F   51948 49596  50026
 =F'1'         4 000049E8 00000001     F   38644 37687  37740
 =F'4'         4 00005740 00000001     F   44028 38739  39129
 =FL8'106667'
               8 00004970 00000001     G   38619 35812  35854  35865  35988  37114  37129
 =FL8'106667'
               8 00005728 00000001     G   44025 40857  41168
 =FL8'106667'
               8 00006AD8 00000001     G   51908 50476  50834
 =FL8S12E5'1'
               8 00007858 00000001     G   56719 55322
 =FL8S12E5'10'
               8 00003F78 00000001     G   35263 34844
 =FL8S12E5'600'
               8 00003F68 00000001     G   35261 32773
 =H'1000'      2 0000793E 00000001     H   56766 54704
 =V(ACAINFO)
               4 00000E3C 00000001     V   14682 12919
 =V(ACAINFO)
               4 00003FB8 00000001     V   35278 32738  33345  33738
 =V(ACINFO)
               4 00003FB4 00000001     V   35277 32707
 =V(ACINFO)
               4 000049B4 00000001     V   38631 35851  37108
 =V(ACPINFO)
               4 00006B94 00000001     V   51942 48788
 =V(ACPUCHG)
               4 000049B8 00000001     V   38632 35863  37127
 =V(ACSPINF)
               4 00003F94 00000001     V   35269 31114  31342  31831
 =V(ASLOCK)
               4 00001828 00000001     V   18742 14775  15876  17421  18377
 =V(ASLOCK)
               4 00002220 00000001     V   22511 18831
 =V(ASULOCK)
               4 00001844 00000001     V   18749 15498  17077  17908  18678
 =V(ASULOCK)
               4 00002254 00000001     V   22524 19480
 =V(AWAIT)
               4 00007914 00000001     V   56754 55447
 =V(CACTRL)
               4 00003FEC 00000001     V   35291 34913
 =V(CPCAN)
               4 00003FE0 00000001     V   35288 34756
 =V(CPCAN)
               4 0000578C 00000001     V   44047 40802  41116
1M1SERV   (M1SE00) (09:42) (22MAR04) Ordinary Symbol and Literal Cross Reference                                            Page  462
 =V(CPCAN)
               4 00006BBC 00000001     V   51952 50424  50767
 =V(CPCHK)
               4 000049BC 00000001     V   38633 35936
 =V(CPSET)
               4 00005798 00000001     V   44050 41242
 =V(CPSET)
               4 00006BC8 00000001     V   51955 50916
 =V(DEQUEUE)
               4 00006B6C 00000001     V   51932 47482
 =V(DEQUEUE)
               4 000078A8 00000001     V   56727 52738
 =V(DSPSTAT)
               4 00003F88 00000001     V   35266 30450
 =V(ENQHALT)
               4 000078BC 00000001     V   56732 53622
 =V(ENQUEUE)
               4 00006B50 00000001     V   51925 46849
 =V(ENQUEUE)
               4 000078A4 00000001     V   56726 52576  53933
 =V(EXRADD)
               4 00000E4C 00000001     V   14686 13301  13344  13390  13436  13480  13527
 =V(EXRADD)
               4 00007908 00000001     V   56751 55278
 =V(EXRDEL)
               4 00007928 00000001     V   56759 55718
 =V(EXRDONE)
               4 00001848 00000001     V   18750 15523  17102  17933  18703
 =V(EXRDONE)
               4 00002258 00000001     V   22525 19505  20563
 =V(EXRDONE)
               4 00007934 00000001     V   56762 56001
 =V(FILEBLKI)
               4 000049D4 00000001     V   38639 37016  37615
 =V(FILEHALT)
               4 00003264 00000001     V   30121 26664
 =V(FMANFINF)
               4 00003FDC 00000001     V   35287 34536
 =V(FMCLSUDO)
               4 00006BB4 00000001     V   51950 50121
 =V(FSADDVOL)
               4 00003FF0 00000001     V   35292 35043
 =V(LKCRE)
               4 00000DD8 00000001     V   14667 10106  10174
 =V(LKOB)      4 00003F8C 00000001     V   35267 30739  31288  31559  31927  32316  32616
 =V(LKOB)      4 00005744 00000001     V   44029 38799
 =V(LKOB)      4 00006B4C 00000001     V   51924 46762  47432  49291
 =V(LKREL)
               4 00003F98 00000001     V   35270 31146  31451  31787  32233  32557  32838
 =V(LKREL)
               4 00005750 00000001     V   44032 39153
 =V(LKREL)
               4 00006B68 00000001     V   51931 47254  47672  49621
 =V(MONSET)
               4 00005C50 00000001     V   45604 44865
 =V(M1FILE)
               4 00003274 00000001     V   30125 28063
 =V(M1JES)
               4 00003284 00000001     V   30129 29433
1M1SERV   (M1SE00) (09:42) (22MAR04) Ordinary Symbol and Literal Cross Reference                                            Page  463
 =V(M1NET)
               4 00003288 00000001     V   30130 29901
 =V(M1PATH)
               4 00003280 00000001     V   30128 28967
 =V(M1TERM)
               4 0000327C 00000001     V   30127 28612
 =V(PAGHASH)
               4 00006B88 00000001     V   51939 48401
 =V(PAGPROT)
               4 00003F9C 00000001     V   35271 31387  32981
 =V(PAGPROT)
               4 00005C5C 00000001     V   45607 45331  45534
 =V(PAGTPROT)
               4 0000228C 00000001     V   22538 21377
 =V(PAGTPROT)
               4 00003FF8 00000001     V   35294 35119
 =V(PAGTPROT)
               4 000049CC 00000001     V   38637 36463  37906  38207  38372  38489
 =V(PAGTPROT)
               4 000057B0 00000001     V   44056 41864  42576
 =V(PAGTPROT)
               4 00005C3C 00000001     V   45599 44320  44800
 =V(PAGTPROT)
               4 00006B08 00000001     V   51917 46556  48628  49137  49855  51094  51511
 =V(PAGTPROT)
               4 00007870 00000001     V   56723 52304
 =V(PAGTPTP)
               4 000049A8 00000001     V   38628 35635
 =V(PAGUPROT)
               4 00003FC0 00000001     V   35280 33041
 =V(PAGUPROT)
               4 00005754 00000001     V   44033 39397
 =V(PAGUPROT)
               4 00006B00 00000001     V   51915 46005  46208
 =V(PAGUREF)
               4 00005788 00000001     V   44046 40628
 =V(PERSET)
               4 00005C44 00000001     V   45601 44439
 =V(REQUEUE)
               4 000078C0 00000001     V   56733 53814
 =V(RESUMTS)
               4 00001840 00000001     V   18748 15487  17066  17890  18663
 =V(RESUMTS)
               4 00006B78 00000001     V   51935 47846
 =V(RTCAN)
               4 00003FE4 00000001     V   35289 34800
 =V(RTCAN)
               4 00005790 00000001     V   44048 40847  41161
 =V(RTCAN)
               4 00006BC0 00000001     V   51953 50469  50812
 =V(RTCAN)
               4 0000791C 00000001     V   56756 55560
 =V(RTCHK)
               4 000049C0 00000001     V   38634 35981
 =V(RTSET)
               4 00003FE8 00000001     V   35290 34854
 =V(RTSET)
               4 00005794 00000001     V   44049 40937
 =V(RTSET)
1M1SERV   (M1SE00) (09:42) (22MAR04) Ordinary Symbol and Literal Cross Reference                                            Page  464
               4 00006BC4 00000001     V   51954 50555
 =V(RTSET)
               4 00007910 00000001     V   56753 55376
 =V(SEG)       4 00000E70 00000001     V   14695 13926  13964  14039  14103  14193  14332  14396  14593
 =V(SEGCORE)
               4 00000E78 00000001     V   14697 14284  14545
 =V(SEGHEX)
               4 00000E74 00000001     V   14696 14155
 =V(SIGNAL)
               4 00007930 00000001     V   56761 55969  56221
 =V(SUSPEND)
               4 00002270 00000001     V   22531 20497
 =V(SYSRDEL)
               4 00006B7C 00000001     V   51936 47886  48115
 =V(SYSRDEL)
               4 00007918 00000001     V   56755 55508
 =V(SYSRDO)
               4 00006B74 00000001     V   51934 47603
 =V(SYSRNEW)
               4 00006B64 00000001     V   51930 47090
 =V(SYSRNEW)
               4 0000792C 00000001     V   56760 55900  56152
 =V(TCREATE)
               4 000078B8 00000001     V   56731 53475
 =V(TERMINUI)
               4 00000E34 00000001     V   14680 12512
 =V(TERUINF)
               4 000049C4 00000001     V   38635 36051
 =V(TEXIT)
               4 000078D0 00000001     V   56737 54149
 =V(VCLP)      4 00002230 00000001     V   22515 19036  21946
 =V(VMCHK)
               4 000049A4 00000001     V   38627 35595
 =V(VMCHK)
               4 00005780 00000001     V   44044 40535
 =V(VMCHK)
               4 00005C58 00000001     V   45606 45221  45279  45486
 =V(VMCHK)
               4 00006AFC 00000001     V   51914 45895  45953  46160
 =V(VMFREE)
               4 00003FA0 00000001     V   35272 31658  31706  32516  33224  33858
 =V(VMFREE)
               4 00004A04 00000001     V   38651 38149
 =V(VMFREE)
               4 00005758 00000001     V   44034 39457  39505  39651  39878  43431  43532
 =V(VMFREE)
               4 00006B84 00000001     V   51938 48226
 =V(VMFREE)
               4 000078CC 00000001     V   56736 54084
 =V(VMGET)
               4 00000DD0 00000001     V   14665  9984  10986  11892  12061  12107  12562  12768  12970  13054  13135
 =V(VMGET)
               4 00003F90 00000001     V   35268 30950  30993  32100  33130  33557
 =V(VMGET)
               4 000049F4 00000001     V   38647 37967
 =V(VMGET)
               4 00005748 00000001     V   44030 39059
 =V(VMGET)
               4 00006B5C 00000001     V   51928 46997  49529
1M1SERV   (M1SE00) (09:42) (22MAR04) Ordinary Symbol and Literal Cross Reference                                            Page  465
 =V(VMGET)
               4 000078AC 00000001     V   56728 53231  55154
 =V(VMGETM)
               4 000057CC 00000001     V   44063 43039
 =V(VMGETS)
               4 000057E8 00000001     V   44070 43961
 =V(VMINFO)
               4 00000DE8 00000001     V   14671 10487
 =V(XALGOFF)
               4 00002280 00000001     V   22535 21195
 =V(XARMEM)
               4 000049F8 00000001     V   38648 38045
 =V(XITDEL)
               4 00007924 00000001     V   56758 55642
 =V(XITDO)
               4 000078C8 00000001     V   56735 54024
 =V(XITFPR)
               4 00001868 00000001     V   18758 18479
 =V(XITFPR)
               4 0000222C 00000001     V   22514 18981  20187  20370  21986
 =V(XITGST)
               4 00001830 00000001     V   18744 15337  16897  17730  18539
 =V(XITGST)
               4 00002224 00000001     V   22512 18906  19024  20012
 =V(XITMASK)
               4 00000E64 00000001     V   14692 13610
 =V(XITMASK)
               4 0000790C 00000001     V   56752 55318  55683
 =V(XITNEW)
               4 00000E68 00000001     V   14693 13638  13658  13677
 =V(XITNEW)
               4 00007900 00000001     V   56749 55229
 =V(XITPST)
               4 0000183C 00000001     V   18747 15427  16976  17838  18612
 =V(XITPST)
               4 00002250 00000001     V   22523 19473  20534
 =V(XITRMPLC)
               4 00002228 00000001     V   22513 18933
 =X'0F1E2D3C'
               4 00006B48 00000001     X   51923 46643  46687
 =X'00FFFFFF'
               4 00002284 00000001     X   22536 21295
 =X'00FFFFFF'
               4 000049C8 00000001     X   38636 36452  36559  38361  38405  38478  38538
 =X'00FFFFFF'
               4 0000576C 00000001     X   44039 40373  41804  42565  42686  43225  43797
 =X'00FFFFFF'
               4 00005C34 00000001     X   45597 44309  44789  45011
 =X'00FFFFFF'
               4 00006AF0 00000001     X   51911 45686  46545  48617  51065  51468
 =X'00FFFFFF'
               4 0000786C 00000001     X   56722 52293  53364
 =X'00FFF000'
               4 00003FC4 00000001     X   35281 33088  33169  33172
 =X'00FFF000'
               4 0000499C 00000001     X   38625 35545
 =X'00FFF000'
               4 00005778 00000001     X   44042 40455  42826  42917
 =X'00000006'
1M1SERV   (M1SE00) (09:42) (22MAR04) Ordinary Symbol and Literal Cross Reference                                            Page  466
               4 00002274 00000001     X   22532 20794
 =X'00000006'
               4 00006B58 00000001     X   51927 46922  48136
 =X'0000003F'
               4 000057B8 00000001     X   44058 41906
 =X'00000030'
               4 0000226C 00000001     X   22530 20414
 =X'00010000'
               4 00006B44 00000001     X   51922 46636
 =X'070C0000'
               4 00000E44 00000001     X   14684 13290  13333  13379  13425  13469  13516
 =X'070C0000'
               4 00002294 00000001     X   22540 21945
 =X'070C0000'
               4 000078B0 00000001     X   56729 53465  55267
 =X'7FFFFFFF'
               4 00006B80 00000001     X   51937 47985
 =X'7FFFF000'
               4 00005C54 00000001     X   45605 45065
 =X'7FFFF000'
               4 00006AF8 00000001     X   51913 45743
 =X'80000000'
               4 00001858 00000001     X   18754 16042  16069  16096  16176  16203  16230  16342  16369  16396  16477
                                                 16504  16531  16642  16669  16696  16762  16789  16816
 =X'80000000'
               4 00003278 00000001     X   30126 28195  28222  28249
 =X'80000000'
               4 00006BCC 00000001     X   51956 51558
 =X'80000000'
               4 000078C4 00000001     X   56734 54020  54021
 =XL4'FFF000'
               4 000057D8 00000001     X   44066 43373  43377  43874
 =XL4'001000'
               4 000057DC 00000001     X   44067 43378
 =XL4'7FFF'
               4 0000227C 00000001     X   22534 21042
 =XL8'4E00000000000000'
               8 00004978 00000001     X   38620 35813  35855  35866  35989  37115  37130
 =XL8'4E00000000000000'
               8 00005730 00000001     X   44026 40858  40921  40925  41169  41232  41236
 =XL8'4E00000000000000'
               8 00006AE0 00000001     X   51909 50477  50539  50543  50835  50906  50910
 =Y(-12)       2 0000328E 00000001     Y   30132 23006  23264  28873  29291  29762  29807
 =Y(-4)        2 0000328C 00000001     Y   30131 22813  26212
 =Y(-4)        2 00004A10 00000001     Y   38655 37631
 =Y(-8)        2 0000793A 00000001     Y   56764 52247  52371
 =Y(@UTCATTN)
               2 0000187A 00000001     Y   18766 18246
 =Y(@UTCPAN)
               2 000022AC 00000001     Y   22546 19726
 =Y(@UTCSVC)
               2 000022AE 00000001     Y   22547 20236
 =Y(@UTCTIME)
               2 00001874 00000001     Y   18763 15657
 =Y(@UTCWAIT)
               2 00001876 00000001     Y   18764 17290
 =Y(L'IDT)
               2 00000E98 00000001     Y   14709 13102
 =Y(L'IDT)
1M1SERV   (M1SE00) (09:42) (22MAR04) Ordinary Symbol and Literal Cross Reference                                            Page  467
               2 000022B0 00000001     Y   22548 20731
 =Y(L'IDT)
               2 00003290 00000001     Y   30133 27323  27483
 =Y(L'IDT)
               2 0000400C 00000001     Y   35302 34217  34426
 =Y(L'IDT)
               2 00004A0E 00000001     Y   38654 36152  36255
 =Y(L'IDT)
               2 000057F6 00000001     Y   44076 41630
 =Y(L'IDT)
               2 00007938 00000001     Y   56763 52161
 =Y(SPBNEXT-SPB)
               2 00004000 00000001     Y   35296 30747
 =Y(0*256+0)
               2 00004A0C 00000001     Y   38653 35592
 =Y(0*256+0)
               2 000057F4 00000001     Y   44075 40532  43020  43428  43529  43942
 =Y(0*256+0)
               2 00005C64 00000001     Y   45610 45483
 =Y(0*256+0)
               2 00006BD4 00000001     Y   51959 46157
 =Y(0)         2 00001878 00000001     Y   18765 17485
 =Y(1)         2 0000186C 00000001     Y   18759 14887
 =Y(16)        2 00001870 00000001     Y   18761 15084
 =Y(17)        2 00001872 00000001     Y   18762 15204
 =Y(2)         2 00000E86 00000001     Y   14702 10418
 =Y(2)         2 0000186E 00000001     Y   18760 14961
 =Y(26*256+0)
               2 00000E96 00000001     Y   14708 12967
 =Y(26*256+0)
               2 0000400A 00000001     Y   35301 33127  33221
 =Y(27*256+0)
               2 00000E9A 00000001     Y   14710 13132
 =Y(27*256+0)
               2 00004008 00000001     Y   35300 32513  33554  33855
 =Y(27*256+0)
               2 000057EC 00000001     Y   44071 39056
 =Y(27*256+0)
               2 0000793C 00000001     Y   56765 53228  54081
 =Y(30*256+0)
               2 00000E94 00000001     Y   14707 12559  12765  13051
 =Y(32*256+0)
               2 00004004 00000001     Y   35298 30990  31703
 =Y(32*256+0)
               2 000057F0 00000001     Y   44073 39502
 =Y(32*256+0)
               2 00005C62 00000001     Y   45609 45276
 =Y(32*256+0)
               2 00006BD2 00000001     Y   51958 45950
 =Y(34*256+0)
               2 00000E92 00000001     Y   14706 12104
 =Y(48*256+0)
               2 00004002 00000001     Y   35297 30947  31655
 =Y(48*256+0)
               2 000057EE 00000001     Y   44072 39454
 =Y(48*256+0)
               2 00005C60 00000001     Y   45608 45218
 =Y(48*256+0)
               2 00006BD0 00000001     Y   51957 45892
1M1SERV   (M1SE00) (09:42) (22MAR04) Ordinary Symbol and Literal Cross Reference                                            Page  468
 =Y(58*256+0)
               2 00000E8E 00000001     Y   14704 10983
 =Y(58*256+0)
               2 00004006 00000001     Y   35299 32097
 =Y(58*256+0)
               2 000057F2 00000001     Y   44074 39648  39875
 =Y(58*256+0)
               2 00006BD8 00000001     Y   51961 49526
 =Y(59*256+0)
               2 00000E80 00000001     Y   14699  9981  11889
 =Y(59*256+0)
               2 00007940 00000001     Y   56767 55151
 =Y(63*256+0)
               2 00000E90 00000001     Y   14705 12052
 =Y(63*256+0)
               2 00004A12 00000001     Y   38656 37964  38146
 =Y(63*256+0)
               2 00006BD6 00000001     Y   51960 46994  48223
 =Y(64)        2 00000E82 00000001     Y   14700 10263
 =Y(8)         2 00000E84 00000001     Y   14701 10327

1M1SERV   (M1SE00) (09:42) (22MAR04) Macro and Copy Code Source Summary                                                     Page  469
- Con Source                                        Volume    Members                        HLASM R4.0  2004/03/22 09.42
0     PRIMARY INPUT                                           CSECT    DROP     END      EX       LTORG    POP
                                                              PRINT    PUSH     SAVAIL   SHEAD    SPOP     SPUSH
                                                              START    USING    UTRACE
   L2 WYL.GG.ORV.MACLIB                             SYSB02    $LKPARM  ABORT    ACALL    ACCTPARM ASB      AWAIT
                                                              CACHPARM DISPPARM ENQPARM  FAIL     FILEPARM GETPARM2
                                                              HEADER   KWREC    LCALL    LKCRE    LKOB     LKREL
                                                              LOCKPARM MAT      MODULE   MOVSTR   PAGEPARM PARMPARM PEND
                                                              PMOV     PROC     PSET     PZERO    REG      REGCH
                                                              SBPARM   SCP      SEG      SEGCORE  SEGEOR   SEGHEX
                                                              SEGLD    SEGPARM  SEXIPARM SIGNL    SIGPARM  SLISTMAC SPB
                                                              SPLEVEL  SSAB     SSB      SYSCTL   TERMPARM TIMEPARM
                                                              UJESPARM UNETPARM UPTHPARM VCALL    VMCHK    VMFREE
                                                              VMGET    VMPARM   XASPARM  XITPARM  XTRC     XTRCDATA
   L3 WYL.GG.SYS.MACLIB                             SYSB05    $BC      $BFLKUP  $BV      $CCLKUP  $CRS     $CSS     $L
                                                              $LA      $LBLAD   $LEXP    $LOR     $REL     $RGLKUP
                                                              $USLKUP  ADL      AUSING   BASE     BEGIN    CEIL
                                                              CLEAR    CSECT    DATA     DECR     DEFCC    DEX      DIAG
                                                              DROP     DTEX     ELSE     ELSEIF   END      EX       EXIT
                                                              FLAG     GEN      HIBAL    IDENT    IF       INCR
                                                              LABEL    LC       LOOP     LT       LTH      LTORG    MOVE
                                                              POP      PRINT    PUSH     RECORD   REGS     SET
                                                              START    STF      UNTIL    USING    WHILE    WITH
   L4 WYL.GG.ORV.BC.MACLIB                          SYSB02    CLPSERV
   L5 SYS3.MACLIB                                   SYSB02    SCIPCVT
   L6 SYS1.MACLIB                                   MVSBR9    CVT      IHAASCB  IHAPSA   IHAPSAE

1         (M1SE00) (09:42) (22MAR04) General Purpose Register Cross Reference                                               Page  470
- Register  References (M=modified, B=branch, U=USING, D=DROP, N=index)                      HLASM R4.0  2004/03/22 09.42
0    0(0)      991U   992D  1335U  2549U  2550D  9897   9975M  9980   9993  10043M 10116M 10116  10144  10184M 10184
             10212  10977M 10982  10995  11901  11962D 12007D 12046M 12051  12063  12069M 12098M 12103  12117M 12117
             12145  12151M 12204  12488  12553M 12558  12571  12607M 12778M 12778  12787  12980M 12980  13008  13016M
             13064M 13064  13092  13097M 13144  13640  13660  13679  13709M 13787  13888M 13893  13905M 13910  14001M
             14006  14018M 14023  14071M 14076  14088M 14093  14140M 14145  14240M 14245  14358M 14363  14375M 14380
             14501M 14506  14741  15582  15736  15842  15962D 15964M 15964  15965M 15970  17192  17387  18024  18343
             18797  19568  19931  20252M 20253  20622  21009  21095  21248  21390  21486  21598  21739  22065  22575
             22807  22898M 22898  23059  23175  23317  23450  23499  23836M 23836  23917M 23917  23997M 23997  24095
             24144  24494  24543  24949  24998  25547  25596  25835  25884  26142  26206  26396  26482  26533M 26533
             26534  26535  26983  27069  27233  27268M 27268  27388M 27443  27603M 27630M 27630  27676  27809  27898M
             27900  28074M 28074  28092  28173M 28173  28380  28625M 28625  28631  28690  28759  28873M 28874  28980M
             28980  28986  29062  29177  29291M 29292  29339M 29340  29446M 29446  29452  29533  29648  29762M 29763
             29807M 29808  29914M 29914  29920  29995  30227  30313M 30316  30554M 30554  30621M 30621  31007M 31007
             31013  31397M 31397  32091M 32096  32109  32497M 32502  32765M 32766M 32767  32773M 32774M 32775  32872M
             32872  32879M 32884  32991M 32991  33051M 33051  33143M 33143  33152  33153  33158M 33234M 33234  33548M
             33553  33566  33839M 33844  33875M 33875  34856  34916  35045  35132  35360  35409M 35412  35605M 35605
             35645M 35645  35652M 35670M 35675  36473M 36473  37026M 37026  37527  37625M 37625  37916M 37916  37976
             38047  38087M 38090M 38220  38382M 38382  38501M 38501  38515  38682  39050M 39055  39069M 39069  39078
             39155M 39233  39631M 39636  39858M 39863  40047  40083M 40087  40227  40310  40545M 40545  40689  40939
             41003  41244  41311  41501  41758  41877  42163  42284  42401  42589  42758  43048  43114M 43176  43364M
             43441M 43441  43448M 43449M 43450  43451M 43452M 43453  43542M 43542  43565M 43566M 43567  43570M 43571M
             43572  43700  43748  43971M 43971  44105  44333  44567  44813  44962  45293M 45293  45341M 45341  45496M
             45496  45544M 45544  45637  45967M 45967  46015M 46015  46170M 46170  46218M 46218  46369  46569  46808M
             46808  46859M 46859  46865  46988M 46993  47006  47092  47316  47726  47952  48128M 48128  48207M 48212
             48236M 48236  48323  48511  48641  48844  48878M 48879M 48879  48901  48995  49150  49520M 49525  49531
             49713  49868  50084  50168  50281  50557  50621  50918  50984  51107  51219  51406  51524  51544M 51558M
             51583M 51583  51597  51650  51740  52126  52317  52594M 52626M 52626  52651  52735  52756M 52764  52832M
             52832  52926  53222M 53227  53240  53554  53676  53826  53946M 53946  53953  54065M 54070  54094M 54094
             54277  54586  54759  54830M 54873  54965M 54965  54979  54980M 55047M 55062M 55062  55071  55074M 55103M
             55103  55145M 55150  55163M 55163  55195  55231  55280  55320  55322M 55323M 55346  55378  55433M 55438
             55505  55578M 55587  55724M 55724  55778  55902  55936M 55941  56045  56154  56188M 56193  56278  56406M
             56406  56523M 56523  56590  56672
     1(1)      987U  9897  10038M 10043M 10543M 10544M 10545M 10548  10550M 10551  12064M 12069M 12146M 12151M 12171M
             12204  12361M 12376  12386M 12405  12430  12459M 12488  12602M 12607M 12719M 12720M 12720  12833M 12928M
             12966  13016M 13021M 13022M 13050  13097M 13101M 13102M 13131  13144M 13172  13192U 13206M 13235U 13697M
             13698  13709M 13730M 13787  14632M 14741  14812M 14837  14864  14945  15043  15109  15185  15549M 15582
             15630M 15631M 15631  15674  15678M 15678  15679  15680  15703M 15736  15786M 15787  15809M 15842  15959M
             15970  16573M 16574M 16575  16852M 16853M 16853  17133M 17192  17258M 17267M 17267  17308  17311D 17313M
             17313  17314M 17315U 17316  17317  17354M 17387  17567M 17568M 17568  17636M 17637M 17637  17795M 17964M
             18024  18083M 18131M 18131  18188M 18189  18220M 18220  18264  18267D 18269M 18269  18270M 18271U 18272
             18273  18310M 18343  18574M 18575  18729M 18797  19531M 19568  19612M 19613M 19613  19742  19805M 19813
             19828M 19829  19853M 19931  20113M 20124M 20124  20254  20589M 20622  20976M 21009  21041M 21042M 21043M
             21043  21044  21065M 21095  21160M 21161  21215M 21248  21420M 21421  21453M 21486  21536M 21537  21565M
             21598  21648M 21649  21677M 21739  21822M 21823M 21824  22007M 22065  22498M 22575  22813M 22814  23006M
             23007  23264M 23265  23417M 23450  24062M 24095  24461M 24494  24916M 24949  25070M 25088  25102  25126
             25514M 25547  25711M 25712M 25712  25721M 25722M 25723  25802M 25835  25999M 26000M 26000  26008M 26009M
             26010  26019M 26019  26109M 26142  26212M 26213  26290M 26291M 26291  26363M 26396  26950M 26983  27039M
             27069  27125M 27233  27412M 27443  27541D 27543M 27543  27544M 27545U 27554  27645M 27676  27740D 27742M
             27742  27743M 27744U 27753  27778M 27809  27898M 27900  28346M 28380  28475M 28484M 28484  28492M 28494
             28725M 28759  29143M 29177  29508M 29509M 29510  29614M 29648  30088M 30227  30313M 30316  30456M 30466U
             30472M 30479U 30490U 30503U 31078M 31079M 31080  31306M 31307M 31308  31747M 31748M 31749  31757M 32194M
             32446M 32447M 32448  32449M 32765M 32766M 32773M 32774M 33157M 33157  33158M 33166M 33168  33169M 33170
             33220  33271M 33292M 33304M 33304  33313  33364M 33365M 33367  33452M 33461M 33461  33483M 33492M 33492
             33775M 33778  33790M 33795M 33796M 33983M 34047N 34065N 34253M 34262M 34262  34287  34324  34976M 34977
             34978M 34979M 34980M 34981  34982M 34983  35248M 35360  35409M 35412  35683M 35685M 35686M 35687  35696M
1         (M1SE00) (09:42) (22MAR04) General Purpose Register Cross Reference                                               Page  471
             35697  35739  36112M 36121M 36121  36141  36151M 36152M 36153M 36163U 36197U 36199  36215M 36224M 36224
             36244  36254M 36255M 36256M 36266U 36318U 36438M 36452M 36457  36485M 36494M 36494  36509U 36522U 36738M
             36739M 36739  36746  36797M 36807U 36813M 36820U 36822  37139M 37139  37140  37232D 37234M 37234  37235M
             37236U 37237  37248M 37258U 37271U 37344  37640  38081M 38082  38089  38090M 38169M 38170M 38170  38180
             38247M 38248M 38248  38258  38347M 38361M 38366  38391M 38405M 38464M 38478M 38483  38524M 38538M 38606M
             38682  38741M 38751U 38764U 39099M 39100M 39101  39190M 39233  39252  39911M 40047  40083M 40087  40206M
             40227  40280M 40310  40656M 40689  40970M 41003  41278M 41311  41343M 41358  41393  41468M 41501  41533M
             41548  41583M 41594M 41594  41608  41629M 41630M 41631M 41641U 41679  41712U 41725M 41758  42018M 42028U
             42046U 42130M 42163  42197D 42199M 42199  42200M 42201U 42202  42203M 42211  42254M 42284  42316M 42328
             42356  42371M 42401  42612M 42621M 42621  42636U 42649U 42725M 42758  43143M 43176  43490M 43518  43598M
             43748  44012M 44105  44137M 44182M 44182  44271M 44271  44354M 44363M 44363  44534M 44567  44599M 44642M
             44642  44731M 44731  44738  44929M 44962  45139M 45140M 45150  45583M 45637  45813M 45814M 45824  46257M
             46369  46489M 46490M 46490  46643M 46644M 46645  46784M 46785M 46785  47283M 47316  47693M 47726  47918M
             47952  48290M 48323  48355M 48356  48398  48417M 48511  48707M 48810M 48844  48943M 48995  49657M 49713
             50051M 50084  50138M 50168  50251M 50281  50588M 50621  50951M 50984  51186M 51219  51323M 51333  51351M
             51406  51563M 51585M 51585  51597  51617M 51650  51688M 51689M 51690  51691M 51692M 51693  51710M 51740
             51856M 51857M 51857  51895M 52126  52340M 52343M 52345  52352M 52632M 52661M 52670M 52670  53013M 53042M
             53051M 53051  53103M 53131M 53141M 53141  53153M 53154  53463M 53464  53521M 53554  53643M 53676  53734M
             53735M 53735  53759  53952M 54170M 54277  54374M 54390  54395M 54396M 54397  54475M 54507M 54533M 54534M
             54535  54537M 54538M 54539  54554M 54586  54683M 54700  54703M 54704M 54714M 54714N 54715  54731M 54759
             54831M 54832  54842M 54873  55019M 55029U 55042U 55047M 55073N 55074M 55322M 55323M 55346  55585M 55587
             55749M 55778  56045  56246M 56278  56538M 56590  56617M 56672  56699M
     2(2)      983U  9897  10048M 10058U 10071U 10255  10302  10314M 10319  10364  10410  10456  10495M 10496M 10497
             10534M 10535  10612M 10613M 10614  10662M 10758M 10855M 11157M 11158  11186M 11265M 11343M 11427M 11506M
             11584M 11683M 11725M 11766M 11800M 11832M 11901M 11929  11950M 12171M 12204  12353D 12355M 12355  12356M
             12357U 12358M 12359M 12361N 12386N 12413M 12415  12459M 12488  12625M 12635U 12648U 12653M 12663U 12669M
             12676U 12687U 12890U 13730M 13787  14401M 14401  14416  14602M 14632M 14741  15549M 15582  15703M 15736
             15809M 15842  17133M 17192  17354M 17387  17964M 18024  18310M 18343  18729M 18797  19531M 19568  19853M
             19931  20097M 20412M 20413M 20414M 20417  20589M 20622  20657M 20668M 20668  20682  20711U 20723M 20723
             20730M 20731M 20732M 20774M 20774  20941  20963U 20976M 21009  21065M 21095  21215M 21248  21280M 21281M
             21281  21295M 21371  21453M 21486  21565M 21598  21677M 21739  21803M 21813U 21831U 22007M 22065  22240M
             22269U 22306  22321M 22330U 22369M 22398U 22438  22450M 22459U 22498M 22575  23417M 23450  24062M 24095
             24461M 24494  24916M 24949  25514M 25547  25802M 25835  26109M 26142  26363M 26396  26950M 26983  27039M
             27069  27125M 27233  27412M 27443  27485M 27497  27512U 27603  27611M 27617U 27645M 27676  27778M 27809
             28346M 28380  28725M 28759  28820M 28830U 28836M 28843U 28854U 29120U 29143M 29177  29238M 29248U 29254M
             29261U 29272U 29591U 29614M 29648  29709M 29719U 29725M 29732U 29743U 29774M 29784U 29787U 30057U 30060U
             30065U 30088M 30227  30332M 30343  30362N 30426M 30533M 30563M 30632M 30744M 31932M 32210M 32235  32322M
             32333M 32333  32348U 32512  32518M 32529U 32534  32588M 32792M 32792  32811M 32840  32892M 32902U 32915U
             32923M 32933U 32945U 33153M 33158M 33619M 33621M 33630M 33640U 33655U 33706M 33910M 33920U 33926M 33933U
             33952U 33974U 33985M 33995U 34001M 34008U 34027U 34146U 34214M 34216M 34217M 34218M 34228U 34371U 34470M
             34607M 34625U 34638M 34924M 34934U 34937U 34943M 34954U 34957U 34968U 34971U 34994U 34997U 35193U 35248M
             35360  35428M 35439  35446M 35461M 35461  35474  35483M 35484N 35544M 35545M 35591  35631  35657M 35698M
             35708U 35714M 35721U 35732U 35746U 36356M 36366  36375M 36387  36396M 36405M 36405  36458  36566M 36568
             36590M 36597M 36746M 37225M 37286M 37298  37313M 37314N 37343N 37344M 37359M 37369U 37382U 37640M 37976M
             38032  38087  38145  38180M 38231M 38258M 38606M 38682  38831M 38842M 38842  38857U 38915M 38921U 39078M
             39088U 39094  39108U 39190M 39233  39528M 39539M 39539  39545  39598M 39663  39723M 39747U 39789M 39804U
             39816U 39911M 40047  40084M 40087  40103M 40114  40121M 40139M 40139  40152  40180M 40186N 40206M 40227
             40280M 40310  40359M 40373M 40389  40531  40615  40656M 40689  40970M 41003  41278M 41311  41468M 41501
             41725M 41758  41790M 41804M 41817M 41817  41824M 41858  41964M 41974U 41987U 42130M 42163  42254M 42284
             42371M 42401  42436M 42460  42483M 42497  42509M 42510M 42510  42571  42693M 42695  42725M 42758  42793M
             42802M 42802  42825M 42826M 42827M 42839  42928  42983M 43019  43048M 43114  43119  43143M 43176  43211M
             43225M 43241  43364  43367  43373M 43379  43427  43484  43528  43573M 43598M 43748  43783M 43797M 43816
             43871  43874M 43875  43958  43988  44012M 44105  44295M 44309M 44314  44534M 44567  44612M 44613M 44613
             44775M 44789M 44794  44929M 44962  44997M 45011M 45064N 45065M 45130  45217  45275  45327  45411  45482
             45530  45583M 45637  45672M 45686M 45743M 45804  45891  45949  46001  46085  46156  46204  46257M 46369
             46531M 46545M 46550  46645M 46646M 46700M 46710U 46716M 46723U 46734U 46770U 47098M 47108U 47114M 47121U
             47132U 47172U 47192M 47202U 47208M 47215U 47226U 47262U 47283M 47316  47487M 47501  47693M 47726  47918M
             47952  47984M 47985M 47995U 48222  48277U 48290M 48323  48417M 48511  48603M 48617M 48622  48707M 48810M
             48844  48943M 48995  49130M 49131  49294M 49305M 49305  49328U 49455M 49470U 49657M 49713  49848M 49849
1         (M1SE00) (09:42) (22MAR04) General Purpose Register Cross Reference                                               Page  472
             49937M 49937  49983M 50006M 50006  50051M 50084  50138M 50168  50251M 50281  50588M 50621  50951M 50984
             51051M 51065M 51088  51171  51186M 51219  51351M 51406  51454M 51468M 51481M 51481  51505  51544  51617M
             51650  51685M 51710M 51740  51895M 52126  52278M 52279M 52279  52293M 52298  52352M 52633M 52698M 53014M
             53079M 53104M 53132M 53290  53521M 53554  53643M 53676  53826M 53832M 53832N 53957M 53957  53974M 54019
             54170M 54277  54314M 54325M 54325  54343M 54359M 54364M 54372M 54373M 54375  54379M 54379  54380M 54381
             54389M 54389  54391M 54392M 54401  54405M 54405  54406M 54480M 54480  54489M 54532  54554M 54586  54623M
             54634M 54634  54652M 54668M 54673M 54681M 54682M 54684  54688M 54688  54689M 54690M 54699M 54699  54701M
             54702M 54708  54712M 54712  54713M 54731M 54759  54803M 54804M 54816  54842M 54873  55280M 55715  55749M
             55778  56045  56246M 56278  56300M 56310U 56412M 56447M 56468M 56503M 56530U 56538M 56590  56617M 56672
             56699M
     3(3)      979U  9897  10669M 10712  10724M 10726  10765M 10805  10817M 10819  10862M 10905  10917M 10919  11097M
             11098M 11098  11111  11193M 11272M 11350M 11434M 11513M 11591M 11684M 11726M 11767M 11801M 11833M 11849M
             11850M 11850  11859  11860M 11888  11951M 12171M 12204  12261M 12262M 12262  12280U 12382M 12383  12441U
             12459M 12488  12787M 12803  12817U 12822  12839U 12874  13730M 13787  14402M 14431U 14489  14599M 14608U
             14632M 14741  15549M 15582  15703M 15736  15809M 15842  17133M 17192  17354M 17387  17964M 18024  18310M
             18343  18729M 18797  19531M 19568  19853M 19931  20589M 20622  20976M 21009  21065M 21095  21215M 21248
             21300M 21301M 21301  21322  21372  21453M 21486  21565M 21598  21677M 21739  21784M 21876M 22007M 22065
             22239M 22239  22254  22324M 22368M 22368  22383  22453M 22498M 22575  23417M 23450  24062M 24095  24461M
             24494  24916M 24949  25514M 25547  25802M 25835  26109M 26142  26363M 26396  26950M 26983  27039M 27069
             27125M 27233  27412M 27443  27478M 27480M 27482M 27483M 27484M 27497  27645M 27676  27778M 27809  28346M
             28380  28725M 28759  29143M 29177  29614M 29648  30088M 30227  30534M 30564M 30598M 30598  30603M 30608M
             30745M 32457M 32518  32603M 32626M 32626  32633M 32647U 32704  32735  32855U 33086M 33087M 33088M 33126
             33158M 33620M 33621M 33707M 34471M 34499  35248M 35360  35546M 35581  35632  36072M 36080M 36088M 36096M
             36104M 36199M 36338M 36347M 36347  36366  36375  36515M 36515N 36540M 36540N 36747M 37226M 37314M 37326
             37336  37338M 37345  37831M 37842M 37842  37856  37901  37963  38135  38181M 38204  38230  38231M 38259M
             38606M 38682  38827U 38862M 38873M 38873  38909M 38966M 38977M 38977  39112M 39162U 39190M 39233  39545M
             39555U 39647  39658U 39770M 39780  39789  39911M 40047  40084M 40087  40206M 40227  40280M 40310  40412M
             40421M 40421  40454M 40455M 40477  40479M 40521  40625  40656M 40689  40885M 40894M 40894  40922  40970M
             41003  41196M 41205M 41205  41233  41278M 41311  41365M 41400M 41420M 41446  41468M 41501  41555M 41575M
             41679M 41698  41725M 41758  42130M 42163  42254M 42284  42371M 42401  42437M 42448M 42448  42460  42483
             42642M 42642N 42667M 42667N 42725M 42758  42856M 42865M 42865  42897M 42916M 42917M 42918M 42928  42951
             42953M 42966M 42966  42984M 43036  43143M 43176  43264M 43265M 43265  43367M 43370  43372M 43374  43484
             43598M 43748  43839M 43848M 43848  43871M 43873M 43875M 43876M 43877M 43889  43906M 43941  44012M 44105
             44534M 44567  44929M 44962  45016M 45025M 45025  45207  45265  45328  45472  45531  45583M 45637  45691M
             45700M 45700  45728M 45728  45742N 45881  45939  46002  46146  46205  46257M 46369  46424M 46433M 46433
             46445M 46445  46463M 46463  46477  46551  46595M 46597  46626  46636M 46645M 46646M 46680M 46680  46687M
             46692  47006M 47043U 47054  47155  47165  47179U 47283M 47316  47351M 47360M 47360  47445M 47445  47479
             47507M 47517U 47600  47610U 47693M 47726  47758M 47768U 47905U 47918M 47952  48290M 48323  48417M 48511
             48556M 48565M 48565  48623  48663  48675M 48682M 48684  48700  48736  48753M 48754  48810M 48844  48943M
             48995  49084M 49085M 49085  49132  49177  49189M 49196M 49198  49347M 49358M 49358  49373U 49440M 49446U
             49531M 49574U 49592  49629U 49657M 49713  49802M 49803M 49803  49850  49895  49907M 49914M 49916  49947M
             49948M 49948  49963U 49993U 50051M 50084  50138M 50168  50251M 50281  50355M 50512M 50512  50540  50588M
             50621  50870M 50879M 50879  50907  50951M 50984  51019M 51028M 51028  51089  51167M 51186M 51219  51351M
             51406  51593M 51617M 51650  51686M 51687M 51689  51692  51710M 51740  51895M 52126  52216M 52224M 52224
             52241  52299  52340  52520M 52520  52551M 52553  53521M 53554  53643M 53676  54170M 54277  54314M 54336M
             54336  54343M 54352M 54372M 54373M 54375M 54380M 54381  54390M 54391M 54392M 54393M 54394  54401M 54406M
             54409M 54421  54467M 54497  54506M 54536  54554M 54586  54623M 54645M 54645  54652M 54661M 54681M 54682M
             54684M 54689M 54690M 54691  54700M 54701M 54702M 54703  54708M 54713M 54731M 54759  54803M 54804M 54825M
             54830  54842M 54873  55320M 55674  55749M 55778  56045  56246M 56278  56397M 56538M 56590  56617M 56672
             56699M
     4(4)      975U  9897  10232M 10278M 10342M 10387M 10433M 10512M 10676M 10772M 10869M 11135M 11200M 11279M 11357M
             11441M 11520M 11598M 11733M 11742M 11742  11757U 11791  11943U 12171M 12204  12360M 12384M 12385  12459M
             12488  12729M 12729  12796M 12796  12803M 12855M 12855  12870U 12880U 13730M 13787  14632M 14741  15549M
             15582  15703M 15736  15809M 15842  17133M 17192  17354M 17387  17964M 18024  18310M 18343  18729M 18797
             19531M 19568  19853M 19931  20589M 20622  20976M 21009  21065M 21095  21215M 21248  21453M 21486  21565M
             21598  21677M 21739  22007M 22065  22498M 22575  23417M 23450  24062M 24095  24461M 24494  24916M 24949
             25514M 25547  25802M 25835  26109M 26142  26363M 26396  26950M 26983  27039M 27069  27125M 27233  27412M
             27443  27645M 27676  27778M 27809  28346M 28380  28725M 28759  29143M 29177  29614M 29648  30088M 30227
             30746M 30747M 30757U 30772M 30773M 30773  30854M 30854  31048M 31048  31156M 31156  31165  31166  31174U
1         (M1SE00) (09:42) (22MAR04) General Purpose Register Cross Reference                                               Page  473
             31207M 31216M 31216  31234U 31460U 31494M 31503M 31503  31573U 31794U 31933M 31943U 31958M 31959M 31959
             32012M 32012  32249U 32391M 32401U 32449  32524U 32589M 32599U 32848U 33566M 33584U 33854  33865U 34384M
             34398M 34398  34412  34425M 34426M 34427M 34437U 34622U 35188U 35198U 35248M 35360  37264M 37282U 38588U
             38606M 38682  38757M 38775U 39172U 39190M 39233  39252M 39262U 39744U 39780  39799U 39874  39903U 39911M
             40047  40206M 40227  40280M 40310  40656M 40689  40744M 40744  40860M 40950  40970M 41003  41051M 41051
             41171M 41258  41278M 41311  41468M 41501  41725M 41758  42130M 42163  42254M 42284  42371M 42401  42725M
             42758  43143M 43176  43374M 43376M 43377M 43378M 43379M 43417  43447M 43449  43452  43598M 43624M 43634U
             43723U 43748  44012M 44105  44534M 44567  44929M 44962  45073M 45082M 45082  45097U 45366U 45583M 45637
             45747M 45756M 45756  45771U 46040U 46257M 46369  47283M 47316  47693M 47726  47918M 47952  48290M 48323
             48417M 48511  48810M 48844  48943M 48995  49218M 49219M 49219  49229U 49325U 49465U 49634U 49657M 49713
             50051M 50084  50138M 50168  50251M 50281  50359M 50359  50479M 50568  50588M 50621  50698M 50698  50837M
             50951M 50984  51186M 51219  51351M 51406  51617M 51650  51710M 51740  51895M 52126  53240M 53277U 53281
             53462  53482U 53521M 53554  53586M 53596U 53630U 53643M 53676  54170M 54277  54554M 54586  54731M 54759
             54842M 54873  54918M 54928U 54934M 54941U 54952U 54991M 54991  55387M 55387  55457M 55457  55731U 55749M
             55778  56045  56246M 56278  56538M 56590  56617M 56672  56699M
     5(5)      971U  9897  10239M 10285M 10349M 10394M 10440M 10519M 10683M 10779M 10876M 11142M 11207M 11286M 11364M
             11448M 11527M 11605M 11817M 11818M 11818  11827  12171M 12204  12459M 12488  13730M 13787  14632M 14741
             15549M 15582  15703M 15736  15809M 15842  15906M 15916U 16939  17110U 17133M 17192  17354M 17387  17454M
             17464U 17772  17941U 17964M 18024  18310M 18343  18729M 18797  19531M 19568  19853M 19931  20589M 20622
             20976M 21009  21065M 21095  21215M 21248  21453M 21486  21565M 21598  21677M 21739  22007M 22065  22498M
             22575  23417M 23450  23686  24062M 24095  24461M 24494  24916M 24949  25514M 25547  25802M 25835  26109M
             26142  26363M 26396  26950M 26983  27039M 27069  27125M 27233  27412M 27443  27645M 27676  27778M 27809
             28346M 28380  28725M 28759  29143M 29177  29614M 29648  30088M 30227  30425M 30545M 30612M 30676M 30686U
             30692M 30699U 30710U 31181U 31238M 31248U 31254M 31261U 31272U 31467U 32109M 32125U 32183  32566M 32863M
             32955M 33025M 33269M 33508M 34383M 35141B 35248M 35360  36027M 36328M 36610M 36745M 36831M 36912M 37307M
             37311M 37311  37332M 37349  37358M 37391M 37436M 37589M 37817M 37827U 38179M 38257M 38410B 38543B 38583U
             38606M 38682  38814U 38861M 38934M 38945M 38945  39095  39122M 39167U 39190M 39233  39682M 39692U 39698M
             39705U 39716U 39893U 39911M 40047  40206M 40227  40280M 40310  40459M 40468M 40468  40579  40656M 40689
             40970M 41003  41278M 41311  41468M 41501  41725M 41758  42130M 42163  42254M 42284  42371M 42401  42725M
             42758  43143M 43176  43598M 43665M 43677  43687M 43688M 43689  43693M 43693  43698N 43701M 43702  43748
             44012M 44105  44534M 44567  44929M 44962  45583M 45637  46257M 46369  47283M 47316  47372M 47382U 47388M
             47395U 47406U 47680U 47693M 47726  47918M 47952  48290M 48323  48417M 48511  48810M 48844  48943M 48995
             49041M 49051U 49057M 49064U 49075U 49639U 49657M 49713  49759M 49769U 49775M 49782U 49793U 50033U 50051M
             50084  50138M 50168  50251M 50281  50588M 50621  50951M 50984  51186M 51219  51351M 51406  51617M 51650
             51710M 51740  51895M 52126  52926M 53032  53381M 53381  53428  53521M 53554  53643M 53676  53708M 53718U
             54080  54157U 54170M 54277  54554M 54586  54731M 54759  54842M 54873  55378M 55557  55749M 55778  56045
             56246M 56278  56538M 56590  56617M 56672  56699M
     6(6)      967U  9897  12171M 12204  12459M 12488  13730M 13787  14632M 14741  14777M 14787U 15536U 15549M 15582
             15703M 15736  15809M 15842  15878M 15888U 17120U 17133M 17192  17237M 17247U 17336U 17354M 17387  17423M
             17433U 17951U 17964M 18024  18069M 18079U 18292U 18310M 18343  18379M 18389U 18716U 18729M 18797  18833M
             18843U 19518U 19531M 19568  19853M 19931  19964M 19974U 20576U 20589M 20622  20976M 21009  21065M 21095
             21215M 21248  21453M 21486  21565M 21598  21677M 21739  22007M 22065  22498M 22575  22628M 22638U 22758U
             22807M 22839U 22857U 22934U 22950  22957U 23059M 23077U 23126U 23175M 23193U 23232U 23317M 23335U 23374U
             23417M 23450  23499M 23517U 24049U 24062M 24095  24144M 24162U 24448U 24461M 24494  24543M 24561U 24903U
             24916M 24949  24998M 25016U 25501U 25514M 25547  25596M 25614U 25789U 25802M 25835  25884M 25902U 26096U
             26109M 26142  26173U 26206M 26328  26355U 26363M 26396  26482M 26500U 26937U 26950M 26983  27039M 27069
             27125M 27233  27269M 27270M 27270  27284M 27284  27298  27322M 27323M 27324M 27334U 27388  27399U 27412M
             27443  27645M 27676  27721M 27731U 27760U 27778M 27809  27863U 27901  28328U 28346M 28380  28439U 28467
             28707U 28725M 28759  28813U 28934  29098  29125U 29143M 29177  29231U 29400  29569  29596U 29614M 29648
             29702U 29868  30031  30070U 30088M 30227  35248M 35360  38047M 38061  38075  38152  38606M 38682  39190M
             39233  39911M 40047  40206M 40227  40280M 40310  40656M 40689  40970M 41003  41278M 41311  41468M 41501
             41725M 41758  42130M 42163  42254M 42284  42371M 42401  42725M 42758  43143M 43176  43598M 43748  44012M
             44105  44534M 44567  44929M 44962  45583M 45637  46257M 46369  47283M 47316  47693M 47726  47918M 47952
             48290M 48323  48417M 48511  48810M 48844  48943M 48995  49657M 49713  50051M 50084  50138M 50168  50251M
             50281  50588M 50621  50951M 50984  51186M 51219  51309M 51319U 51331U 51351M 51406  51617M 51650  51710M
             51740  51895M 52126  52158M 52160M 52161M 52162M 52172U 53289  53508U 53521M 53554  53643M 53676  54170M
             54277  54554M 54586  54731M 54759  54842M 54873  55231M 55362  55639  55749M 55778  56045  56246M 56278
             56538M 56590  56617M 56672  56699M
     7(7)      963U  9897   9993M 10030U 10064  12158U 12171M 12204  12245U 12446U 12459M 12488  12571M 12617U 12641
1         (M1SE00) (09:42) (22MAR04) General Purpose Register Cross Reference                                               Page  474
             13298  13341  13387  13433  13477  13524  13722U 13730M 13787  13822M 13832U 13838M 13845U 13856U 13974M
             13974  14128  14228  14619U 14632M 14741  14791M 14801U 15531U 15549M 15582  15610U 15695U 15703M 15736
             15764U 15801U 15809M 15842  15892M 15902U 17115U 17133M 17192  17233U 17341U 17354M 17387  17440M 17450U
             17946U 17964M 18024  18065U 18297U 18310M 18343  18393M 18403U 18711U 18729M 18797  18847M 18857U 19513U
             19531M 19568  19596U 19845U 19853M 19931  19978M 19988U 20571U 20589M 20622  20650U 20968U 20976M 21009
             21037U 21057U 21065M 21095  21123U 21207U 21215M 21248  21276U 21445U 21453M 21486  21514U 21557U 21565M
             21598  21626U 21669U 21677M 21739  21780U 21944  21994U 22007M 22065  22106U 22485U 22498M 22575  22603U
             23409U 23417M 23450  23478U 24054U 24062M 24095  24123U 24453U 24461M 24494  24522U 24908U 24916M 24949
             24977U 25506U 25514M 25547  25575U 25794U 25802M 25835  25863U 26101U 26109M 26142  26186U 26350U 26363M
             26396  26424U 26942U 26950M 26983  27011U 27031U 27039M 27069  27097U 27117U 27125M 27233  27261U 27404U
             27412M 27443  27471U 27637U 27645M 27676  27717U 27765U 27778M 27809  27850U 28333U 28346M 28380  28426U
             28712U 28725M 28759  28800U 29130U 29143M 29177  29218U 29601U 29614M 29648  29689U 30075U 30088M 30227
             30268U 35235U 35248M 35360  35401U 38593U 38606M 38682  38723U 39177U 39190M 39233  39911M 40047  40075U
             40198U 40206M 40227  40255U 40272U 40280M 40310  40351U 40643U 40656M 40689  40730U 40957U 40970M 41003
             41044U 41265U 41278M 41311  41339U 41460U 41468M 41501  41529U 41717U 41725M 41758  41786U 42122U 42130M
             42163  42191U 42246U 42254M 42284  42312U 42363U 42371M 42401  42429U 42717U 42725M 42758  42786U 43135U
             43143M 43176  43204U 43590U 43598M 43645U 43714U 43748  43776U 44004U 44012M 44105  44133U 44526U 44534M
             44567  44595U 44921U 44929M 44962  44990U 45575U 45583M 45637  45665U 46249U 46257M 46369  46410U 47093
             47270U 47283M 47316  47344U 47685U 47693M 47726  47772M 47782U 47900U 47918M 47952  47980U 48282U 48290M
             48323  48351U 48409U 48417M 48511  48552U 48797U 48810M 48844  48872U 48935U 48943M 48995  49036U 49644U
             49657M 49713  49754U 50038U 50051M 50084  50112U 50130U 50138M 50168  50196U 50243U 50251M 50281  50322U
             50575U 50588M 50621  50662U 50938U 50951M 50984  51012U 51178U 51186M 51219  51247U 51343U 51351M 51406
             51447U 51604U 51617M 51650  51678U 51702U 51710M 51740  51768U 51887U 51895M 52126  52154U 53513U 53521M
             53554  53643M 53676  54170M 54277  54554M 54586  54731M 54759  54842M 54873  54901U 55195M 55269  55373
             55394  55741U 55749M 55778  56045  56064M 56074U 56080M 56087U 56098U 56238U 56246M 56278  56538M 56590
             56617M 56672  56699M
     8(8)      959U  9897  10598M 10613  11659M 12171M 12204  12459M 12488  13730M 13787  14632M 14741  15549M 15582
             15703M 15736  15809M 15842  17133M 17192  17354M 17387  17964M 18024  18310M 18343  18729M 18797  19531M
             19568  19853M 19931  20589M 20622  20976M 21009  21065M 21095  21215M 21248  21453M 21486  21565M 21598
             21677M 21739  22007M 22065  22498M 22575  23417M 23450  24062M 24095  24461M 24494  24916M 24949  25514M
             25547  25802M 25835  26109M 26142  26363M 26396  26950M 26983  27039M 27069  27125M 27233  27412M 27443
             27645M 27676  27778M 27809  28346M 28380  28725M 28759  29143M 29177  29614M 29648  30088M 30227  31509M
             31519U 31525M 31532U 31543U 31799U 31864M 31874U 31880M 31887U 31898U 32254U 32266M 32276U 32282M 32289U
             32300U 33949U 33969U 34024U 35207U 35222U 35248M 35360  38088M 38090M 38606M 38682  39190M 39233  39911M
             40047  40206M 40227  40280M 40310  40656M 40689  40970M 41003  41278M 41311  41468M 41501  41725M 41758
             42130M 42163  42254M 42284  42371M 42401  42725M 42758  43064M 43074U 43080M 43087U 43098U 43104M 43111U
             43143M 43176  43313M 43323U 43329M 43336U 43347U 43353M 43360U 43362M 43362  43598M 43658U 43709U 43748
             44012M 44105  44534M 44567  44929M 44962  45583M 45637  46257M 46369  47283M 47316  47693M 47726  47918M
             47952  48290M 48323  48417M 48511  48810M 48844  48943M 48995  49657M 49713  50051M 50084  50138M 50168
             50251M 50281  50588M 50621  50951M 50984  51186M 51219  51351M 51406  51617M 51650  51710M 51740  51895M
             52126  53521M 53554  53643M 53676  54170M 54277  54554M 54586  54731M 54759  54842M 54873  54914U 55035M
             55736U 55749M 55778  55810M 55820U 56015U 56045  56246M 56278  56538M 56590  56617M 56672  56699M
     9(9)      955U  9897  10995M 11032U 11089  11111  11116  11650U 12171M 12204  12459M 12488  13730M 13787  14632M
             14741  15549M 15582  15703M 15736  15809M 15842  17133M 17192  17354M 17387  17964M 18024  18310M 18343
             18729M 18797  19531M 19568  19853M 19931  20589M 20622  20976M 21009  21065M 21095  21215M 21248  21453M
             21486  21565M 21598  21677M 21739  22007M 22065  22498M 22575  23417M 23450  24062M 24095  24461M 24494
             24916M 24949  25514M 25547  25802M 25835  26109M 26142  26363M 26396  26950M 26983  27039M 27069  27125M
             27233  27412M 27443  27645M 27676  27778M 27809  28346M 28380  28725M 28759  29143M 29177  29614M 29648
             30088M 30227  35248M 35360  38089M 38090M 38606M 38682  39190M 39233  39911M 40047  40206M 40227  40280M
             40310  40656M 40689  40970M 41003  41278M 41311  41468M 41501  41725M 41758  42130M 42163  42254M 42284
             42371M 42401  42725M 42758  43115M 43143M 43176  43365M 43598M 43703B 43748  44012M 44105  44534M 44567
             44929M 44962  45583M 45637  46257M 46369  47283M 47316  47693M 47726  47918M 47952  48290M 48323  48417M
             48511  48810M 48844  48943M 48995  49657M 49713  50051M 50084  50138M 50168  50251M 50281  50588M 50621
             50951M 50984  51186M 51219  51351M 51406  51617M 51650  51710M 51740  51895M 52126  53521M 53554  53643M
             53676  54170M 54277  54554M 54586  54731M 54759  54842M 54873  54979M 55323  55749M 55778  55840U 55844M
             56010U 56045  56111M 56112M 56112  56127U 56228U 56246M 56278  56538M 56563  56590  56617M 56642  56672
             56699M
    10(A)      951U  9897   9898M  9908U 12168U 12171M 12204  12205M 12215U 12456U 12459M 12488  12489M 12499U 13727U
             13730M 13787  13788M 13798U 14629U 14632M 14741  14742M 14752U 15546U 15549M 15582  15583M 15593U 15700U
1         (M1SE00) (09:42) (22MAR04) General Purpose Register Cross Reference                                               Page  475
             15703M 15736  15737M 15747U 15806U 15809M 15842  15843M 15853U 17130U 17133M 17192  17193M 17203U 17351U
             17354M 17387  17388M 17398U 17961U 17964M 18024  18025M 18035U 18307U 18310M 18343  18344M 18354U 18726U
             18729M 18797  18798M 18808U 19528U 19531M 19568  19569M 19579U 19850U 19853M 19931  19932M 19942U 20586U
             20589M 20622  20623M 20633U 20973U 20976M 21009  21010M 21020U 21062U 21065M 21095  21096M 21106U 21212U
             21215M 21248  21249M 21259U 21450U 21453M 21486  21487M 21497U 21562U 21565M 21598  21599M 21609U 21674U
             21677M 21739  21740M 21750U 22004U 22007M 22065  22066M 22076U 22495U 22498M 22575  22576M 22586U 23414U
             23417M 23450  23451M 23461U 24059U 24062M 24095  24096M 24106U 24458U 24461M 24494  24495M 24505U 24913U
             24916M 24949  24950M 24960U 25511U 25514M 25547  25548M 25558U 25799U 25802M 25835  25836M 25846U 26106U
             26109M 26142  26143M 26153U 26360U 26363M 26396  26397M 26407U 26947U 26950M 26983  26984M 26994U 27036U
             27039M 27069  27070M 27080U 27122U 27125M 27233  27234M 27244U 27409U 27412M 27443  27444M 27454U 27642U
             27645M 27676  27677M 27687U 27775U 27778M 27809  27810M 27820U 28343U 28346M 28380  28381M 28391U 28722U
             28725M 28759  28760M 28770U 29140U 29143M 29177  29178M 29188U 29611U 29614M 29648  29649M 29659U 30085U
             30088M 30227  30228M 30238U 35245U 35248M 35360  35361M 35371U 38603U 38606M 38682  38683M 38693U 39187U
             39190M 39233  39234M 39244U 39908U 39911M 40047  40048M 40058U 40203U 40206M 40227  40228M 40238U 40277U
             40280M 40310  40311M 40321U 40653U 40656M 40689  40690M 40700U 40967U 40970M 41003  41004M 41014U 41275U
             41278M 41311  41312M 41322U 41465U 41468M 41501  41502M 41512U 41722U 41725M 41758  41759M 41769U 42127U
             42130M 42163  42164M 42174U 42251U 42254M 42284  42285M 42295U 42368U 42371M 42401  42402M 42412U 42722U
             42725M 42758  42759M 42769U 43140U 43143M 43176  43177M 43187U 43595U 43598M 43748  43749M 43759U 44009U
             44012M 44105  44106M 44116U 44531U 44534M 44567  44568M 44578U 44926U 44929M 44962  44963M 44973U 45580U
             45583M 45637  45638M 45648U 46254U 46257M 46369  46370M 46380U 47280U 47283M 47316  47317M 47327U 47690U
             47693M 47726  47727M 47737U 47915U 47918M 47952  47953M 47963U 48287U 48290M 48323  48324M 48334U 48414U
             48417M 48511  48512M 48522U 48807U 48810M 48844  48845M 48855U 48940U 48943M 48995  48996M 49006U 49654U
             49657M 49713  49714M 49724U 50048U 50051M 50084  50085M 50095U 50135U 50138M 50168  50169M 50179U 50248U
             50251M 50281  50282M 50292U 50585U 50588M 50621  50622M 50632U 50948U 50951M 50984  50985M 50995U 51183U
             51186M 51219  51220M 51230U 51348U 51351M 51406  51407M 51417U 51614U 51617M 51650  51651M 51661U 51707U
             51710M 51740  51741M 51751U 51892U 51895M 52126  52127M 52137U 53518U 53521M 53554  53555M 53565U 53640U
             53643M 53676  53677M 53687U 54167U 54170M 54277  54278M 54288U 54551U 54554M 54586  54587M 54597U 54728U
             54731M 54759  54760M 54770U 54839U 54842M 54873  54874M 54884U 55746U 55749M 55778  55779M 55789U 56025U
             56045  56046M 56056U 56243U 56246M 56278  56279M 56289U 56535U 56538M 56590  56591M 56601U 56614U 56617M
             56672  56673M 56683U 56696U 56699M
    11(B)      947U  3894B  3895B  9897  12171M 12204  12459M 12488  13730M 13787  14632M 14741  15549M 15582  15703M
             15736  15809M 15842  17133M 17192  17354M 17387  17964M 18024  18310M 18343  18729M 18797  19531M 19568
             19853M 19931  20589M 20622  20976M 21009  21065M 21095  21215M 21248  21453M 21486  21565M 21598  21677M
             21739  22007M 22065  22498M 22575  23417M 23450  24062M 24095  24461M 24494  24916M 24949  25514M 25547
             25802M 25835  26109M 26142  26363M 26396  26950M 26983  27039M 27069  27125M 27233  27412M 27443  27645M
             27676  27778M 27809  28346M 28380  28725M 28759  29143M 29177  29614M 29648  30088M 30227  35248M 35360
             38606M 38682  39190M 39233  39911M 40047  40206M 40227  40280M 40310  40656M 40689  40970M 41003  41278M
             41311  41468M 41501  41725M 41758  42130M 42163  42254M 42284  42371M 42401  42725M 42758  43143M 43176
             43598M 43748  44012M 44105  44534M 44567  44929M 44962  45583M 45637  46257M 46369  47283M 47316  47693M
             47726  47918M 47952  48290M 48323  48417M 48511  48810M 48844  48943M 48995  49657M 49713  50051M 50084
             50138M 50168  50251M 50281  50588M 50621  50951M 50984  51186M 51219  51351M 51406  51617M 51650  51710M
             51740  51895M 52126  53521M 53554  53643M 53676  54170M 54277  54554M 54586  54731M 54759  54842M 54873
             55749M 55778  56045  56246M 56278  56538M 56590  56617M 56672  56699M
    12(C)      943U  9897   9912   9913M  9914   9924U  9928  12163U 12171M 12171  12172  12204  12219  12220M 12221
             12231U 12235  12451U 12459M 12459  12460  12488  12503  12504M 12505  12506  13730M 13730  13731  13787
             13802  13803M 13804  13814U 13818  14624U 14632M 14632  14633  14741  14756  14757M 14758  14768U 14772
             15541U 15549M 15549  15550  15582  15597  15598M 15599  15600  15703M 15703  15704  15736  15751  15752M
             15753  15754  15809M 15809  15810  15842  15857  15858M 15859  15869U 15873  17125U 17133M 17133  17134
             17192  17207  17208M 17209  17219U 17223  17346U 17354M 17354  17355  17387  17402  17403M 17404  17414U
             17418  17956U 17964M 17964  17965  18024  18039  18040M 18041  18051U 18055  18302U 18310M 18310  18311
             18343  18358  18359M 18360  18370U 18374  18721U 18729M 18729  18730  18797  18812  18813M 18814  18824U
             18828  19523U 19531M 19531  19532  19568  19583  19584M 19585  19586  19853M 19853  19854  19931  19946
             19947M 19948  19958U 19962  20581U 20589M 20589  20590  20622  20637  20638M 20639  20640  20976M 20976
             20977  21009  21024  21025M 21026  21027  21065M 21065  21066  21095  21110  21111M 21112  21113  21215M
             21215  21216  21248  21263  21264M 21265  21266  21453M 21453  21454  21486  21501  21502M 21503  21504
             21565M 21565  21566  21598  21613  21614M 21615  21616  21677M 21677  21678  21739  21754  21755M 21756
             21766U 21770  21999U 22007M 22007  22008  22065  22080  22081M 22082  22092U 22096  22490U 22498M 22498
             22499  22575  22590  22591M 22592  22593  23417M 23417  23418  23450  23465  23466M 23467  23468  24062M
             24062  24063  24095  24110  24111M 24112  24113  24461M 24461  24462  24494  24509  24510M 24511  24512
1         (M1SE00) (09:42) (22MAR04) General Purpose Register Cross Reference                                               Page  476
             24916M 24916  24917  24949  24964  24965M 24966  24967  25514M 25514  25515  25547  25562  25563M 25564
             25565  25802M 25802  25803  25835  25850  25851M 25852  25853  26109M 26109  26110  26142  26157  26158M
             26159  26160  26363M 26363  26364  26396  26411  26412M 26413  26414  26950M 26950  26951  26983  26998
             26999M 27000  27001  27039M 27039  27040  27069  27084  27085M 27086  27087  27125M 27125  27126  27233
             27248  27249M 27250  27251  27412M 27412  27413  27443  27458  27459M 27460  27461  27645M 27645  27646
             27676  27691  27692M 27693  27703U 27707  27770U 27778M 27778  27779  27809  27824  27825M 27826  27836U
             27840  28338U 28346M 28346  28347  28380  28395  28396M 28397  28407U 28416  28717U 28725M 28725  28726
             28759  28774  28775M 28776  28786U 28790  29135U 29143M 29143  29144  29177  29192  29193M 29194  29204U
             29208  29606U 29614M 29614  29615  29648  29663  29664M 29665  29675U 29679  30080U 30088M 30088  30089
             30227  30242  30243M 30244  30254U 30258  35240U 35248M 35248  35249  35360  35375  35376M 35377  35387U
             35391  38598U 38606M 38606  38607  38682  38697  38698M 38699  38709U 38713  39182U 39190M 39190  39191
             39233  39248  39249M 39250  39251  39911M 39911  39912  40047  40062  40063M 40064  40065  40206M 40206
             40207  40227  40242  40243M 40244  40245  40280M 40280  40281  40310  40325  40326M 40327  40337U 40341
             40648U 40656M 40656  40657  40689  40704  40705M 40706  40716U 40720  40962U 40970M 40970  40971  41003
             41018  41019M 41020  41030U 41034  41270U 41278M 41278  41279  41311  41326  41327M 41328  41329  41468M
             41468  41469  41501  41516  41517M 41518  41519  41725M 41725  41726  41758  41773  41774M 41775  41776
             42130M 42130  42131  42163  42178  42179M 42180  42181  42254M 42254  42255  42284  42299  42300M 42301
             42302  42371M 42371  42372  42401  42416  42417M 42418  42419  42725M 42725  42726  42758  42773  42774M
             42775  42776  43143M 43143  43144  43176  43191  43192M 43193  43194  43598M 43598  43599  43748  43763
             43764M 43765  43766  44012M 44012  44013  44105  44120  44121M 44122  44123  44534M 44534  44535  44567
             44582  44583M 44584  44585  44929M 44929  44930  44962  44977  44978M 44979  44980  45583M 45583  45584
             45637  45652  45653M 45654  45655  46257M 46257  46258  46369  46384  46385M 46386  46396U 46400  47275U
             47283M 47283  47284  47316  47331  47332M 47333  47334  47693M 47693  47694  47726  47741  47742M 47743
             47753U 47757  47910U 47918M 47918  47919  47952  47967  47968M 47969  47970  48290M 48290  48291  48323
             48338  48339M 48340  48341  48417M 48417  48418  48511  48526  48527M 48528  48538U 48542  48802U 48810M
             48810  48811  48844  48859  48860M 48861  48862  48943M 48943  48944  48995  49010  49011M 49012  49022U
             49026  49649U 49657M 49657  49658  49713  49728  49729M 49730  49740U 49744  50043U 50051M 50051  50052
             50084  50099  50100M 50101  50102  50138M 50138  50139  50168  50183  50184M 50185  50186  50251M 50251
             50252  50281  50296  50297M 50298  50308U 50312  50580U 50588M 50588  50589  50621  50636  50637M 50638
             50648U 50652  50943U 50951M 50951  50952  50984  50999  51000M 51001  51002  51186M 51186  51187  51219
             51234  51235M 51236  51237  51351M 51351  51352  51406  51421  51422M 51423  51433U 51437  51609U 51617M
             51617  51618  51650  51665  51666M 51667  51668  51710M 51710  51711  51740  51755  51756M 51757  51758
             51895M 51895  51896  52126  52141  52142M 52143  52144  53521M 53521  53522  53554  53569  53570M 53571
             53581U 53585  53635U 53643M 53643  53644  53676  53691  53692M 53693  53703U 53707  54162U 54170M 54170
             54171  54277  54292  54293M 54294  54304U 54313  54546U 54554M 54554  54555  54586  54601  54602M 54603
             54613U 54622  54723U 54731M 54731  54732  54759  54774  54775M 54776  54777  54842M 54842  54843  54873
             54888  54889M 54890  54891  55749M 55749  55750  55778  55793  55794M 55795  55805U 55809  56020U 56045
             56060  56061M 56062  56063  56246M 56246  56247  56278  56293  56294M 56295  56296  56538M 56538  56539
             56590  56605M 56606  56607  56617M 56617  56618  56672  56687M 56688  56689  56699M 56699  56700
    13(D)      939U  9897   9897   9912   9913   9928M  9955U 10086U 10089U 10473U 10476U 10954U 10957U 12171M 12179U
             12204  12204  12219  12220  12235M 12459M 12488  12488  12503  12504  12506M 12533U 12904U 12907U 12945U
             12948U 13251U 13254U 13541U 13544U 13624U 13627U 13692U 13695U 13730M 13738U 13787  13787  13802  13803
             13818M 13871U 14205U 14208U 14297U 14300U 14466U 14469U 14558U 14561U 14632M 14640U 14741  14741  14756
             14757  14772M 14880U 15323U 15326U 15472U 15475U 15509U 15512U 15549M 15557U 15582  15582  15597  15598
             15600M 15650U 15703M 15711U 15736  15736  15751  15752  15754M 15784U 15809M 15817U 15842  15842  15857
             15858  15873M 16886U 16927U 16930U 16959U 16962U 17051U 17054U 17088U 17091U 17133M 17141U 17192  17192
             17207  17208  17223M 17283U 17354M 17362U 17387  17387  17402  17403  17418M 17478U 17716U 17719U 17760U
             17763U 17821U 17824U 17875U 17878U 17919U 17922U 17964M 17972U 18024  18024  18039  18040  18055M 18186U
             18236U 18239U 18310M 18318U 18343  18343  18358  18359  18374M 18427U 18525U 18528U 18569U 18572U 18595U
             18598U 18648U 18651U 18689U 18692U 18729M 18737U 18797  18797  18812  18813  18828M 18895U 18954U 18957U
             19010U 19013U 19106U 19109U 19456U 19459U 19491U 19494U 19531M 19539U 19568  19568  19583  19584  19586M
             19719U 19823U 19826U 19853M 19861U 19931  19931  19946  19947  19962M 20001U 20040U 20043U 20160U 20163U
             20226U 20229U 20343U 20346U 20474U 20477U 20517U 20520U 20549U 20552U 20589M 20597U 20622  20622  20637
             20638  20640M 20939U 20976M 20984U 21009  21009  21024  21025  21027M 21065M 21095  21095  21110  21111
             21113M 21158U 21215M 21223U 21248  21248  21263  21264  21266M 21362U 21415U 21418U 21453M 21461U 21486
             21486  21501  21502  21504M 21534U 21565M 21573U 21598  21598  21613  21614  21616M 21646U 21677M 21685U
             21739  21739  21754  21755  21770M 21892U 21959U 21962U 22007M 22015U 22065  22065  22080  22081  22096M
             22297U 22426U 22429U 22498M 22506U 22575  22575  22590  22591  22593M 22868U 22913U 22916U 23096U 23099U
             23417M 23425U 23450  23450  23465  23466  23468M 23677U 23748U 23751U 24062M 24070U 24095  24095  24110
1         (M1SE00) (09:42) (22MAR04) General Purpose Register Cross Reference                                               Page  477
             24111  24113M 24225U 24461M 24469U 24494  24494  24509  24510  24512M 24624U 24916M 24924U 24949  24949
             24964  24965  24967M 25274U 25514M 25522U 25547  25547  25562  25563  25565M 25677U 25802M 25810U 25835
             25835  25850  25851  25853M 25965U 26109M 26117U 26142  26142  26157  26158  26160M 26244U 26306U 26309U
             26363M 26371U 26396  26396  26411  26412  26414M 26587U 26649U 26652U 26732U 26735U 26907U 26910U 26950M
             26958U 26983  26983  26998  26999  27001M 27039M 27069  27069  27084  27085  27087M 27125M 27233  27233
             27248  27249  27251M 27412M 27443  27443  27458  27459  27461M 27645M 27676  27676  27691  27692  27707M
             27778M 27809  27809  27824  27825  27840M 27877U 28346M 28354U 28380  28380  28395  28396  28416M 28455U
             28725M 28733U 28759  28759  28774  28775  28790M 28895U 29093U 29096U 29143M 29151U 29177  29177  29192
             29193  29208M 29361U 29564U 29567U 29614M 29622U 29648  29648  29663  29664  29679M 29829U 30026U 30029U
             30088M 30096U 30227  30227  30242  30243  30258M 30439U 30727U 30730U 30930U 30933U 31090U 31093U 31134U
             31137U 31318U 31321U 31371U 31374U 31439U 31442U 31633U 31636U 31775U 31778U 31812U 31815U 31915U 31918U
             32068U 32071U 32221U 32224U 32474U 32477U 32545U 32548U 32692U 32695U 32723U 32726U 32826U 32829U 32965U
             32968U 33105U 33108U 33189U 33192U 33330U 33333U 33525U 33528U 33723U 33726U 33750U 33753U 33816U 33819U
             34517U 34520U 34741U 34744U 34785U 34788U 34832U 34835U 34884U 34887U 35019U 35022U 35103U 35106U 35248M
             35256U 35360  35360  35375  35376  35391M 35563U 35626U 35629U 35792U 35795U 35836U 35839U 35921U 35924U
             35966U 35969U 36037U 36040U 36426U 36429U 37001U 37004U 37093U 37096U 37447U 37450U 37600U 37603U 37875U
             37878U 37942U 37945U 38001U 38004U 38114U 38117U 38191U 38194U 38606M 38614U 38682  38682  38697  38698
             38713M 38790U 39027U 39030U 39141U 39144U 39190M 39198U 39233  39233  39248  39249  39251M 39376U 39432U
             39435U 39911M 39919U 40047  40047  40062  40063  40065M 40206M 40227  40227  40242  40243  40245M 40280M
             40310  40310  40325  40326  40341M 40503U 40594U 40597U 40656M 40664U 40689  40689  40704  40705  40720M
             40790U 40832U 40835U 40909U 40912U 40970M 40978U 41003  41003  41018  41019  41034M 41104U 41146U 41149U
             41220U 41223U 41278M 41286U 41311  41311  41326  41327  41329M 41437U 41468M 41476U 41501  41501  41516
             41517  41519M 41689U 41725M 41733U 41758  41758  41773  41774  41776M 41849U 42068U 42071U 42130M 42138U
             42163  42163  42178  42179  42181M 42254M 42284  42284  42299  42300  42302M 42371M 42401  42401  42416
             42417  42419M 42542U 42725M 42733U 42758  42758  42773  42774  42776M 43001U 43143M 43151U 43176  43176
             43191  43192  43194M 43399U 43598M 43606U 43748  43748  43763  43764  43766M 43923U 44012M 44020U 44105
             44105  44120  44121  44123M 44286U 44424U 44427U 44534M 44542U 44567  44567  44582  44583  44585M 44766U
             44850U 44853U 44929M 44937U 44962  44962  44977  44978  44980M 45189U 45322U 45325U 45451U 45454U 45525U
             45528U 45583M 45591U 45637  45637  45652  45653  45655M 45863U 45996U 45999U 46125U 46128U 46199U 46202U
             46257M 46265U 46369  46369  46384  46385  46400M 46522U 46750U 46753U 46833U 46836U 46965U 46968U 47076U
             47079U 47242U 47245U 47283M 47291U 47316  47316  47331  47332  47334M 47423U 47467U 47470U 47585U 47588U
             47660U 47663U 47693M 47701U 47726  47726  47741  47742  47757M 47834U 47871U 47874U 47918M 47926U 47952
             47952  47967  47968  47970M 48103U 48184U 48187U 48290M 48298U 48323  48323  48338  48339  48341M 48370U
             48417M 48425U 48511  48511  48526  48527  48542M 48594U 48764U 48767U 48810M 48818U 48844  48844  48859
             48860  48862M 48943M 48995  48995  49010  49011  49026M 49121U 49279U 49282U 49497U 49500U 49609U 49612U
             49657M 49665U 49713  49713  49728  49729  49744M 49839U 50051M 50059U 50084  50084  50099  50100  50102M
             50138M 50168  50168  50183  50184  50186M 50251M 50281  50281  50296  50297  50312M 50412U 50454U 50457U
             50527U 50530U 50588M 50596U 50621  50621  50636  50637  50652M 50755U 50797U 50800U 50894U 50897U 50951M
             50959U 50984  50984  50999  51000  51002M 51079U 51186M 51194U 51219  51219  51234  51235  51237M 51351M
             51406  51406  51421  51422  51437M 51496U 51617M 51625U 51650  51650  51665  51666  51668M 51710M 51740
             51740  51755  51756  51758M 51895M 52126  52126  52141  52142  52144M 52269U 52535U 52538U 52723U 52726U
             52819U 52822U 53199U 53202U 53450U 53453U 53521M 53529U 53554  53554  53569  53570  53585M 53609U 53643M
             53651U 53676  53676  53691  53692  53707M 53750U 53865U 53868U 53996U 53999U 54042U 54045U 54135U 54138U
             54170M 54178U 54277  54277  54292  54293  54313M 54554M 54586  54586  54601  54602  54622M 54731M 54759
             54759  54774  54775  54777M 54787U 54842M 54850U 54873  54873  54888  54889  54891M 55125U 55215U 55218U
             55242U 55245U 55291U 55294U 55334U 55337U 55410U 55413U 55484U 55487U 55536U 55539U 55618U 55621U 55653U
             55656U 55694U 55697U 55749M 55757U 55778  55778  55793  55794  55809M 55889U 55913U 55916U 55981U 55984U
             56033U 56045  56045  56060  56061  56063M 56141U 56165U 56168U 56246M 56254U 56278  56278  56293  56294
             56296M 56538M 56590  56590  56605  56607M 56617M 56672  56672  56687  56689M 56699M
    14(E)      935U  9897   9985M 10043M 10107M 10175M 10488M 10987M 11685M 11696M 11710U 11716M 11723U 11761M 11795M
             11827M 11893M 11930M 11967M 12062M 12069M 12108M 12151M 12171M 12173B 12204  12459M 12461B 12488  12513M
             12563M 12607M 12769M 12920M 12971M 13016M 13055M 13097M 13136M 13176M 13176  13196M 13204  13223  13237
             13302M 13345M 13391M 13437M 13481M 13528M 13611M 13639M 13659M 13678M 13705M 13710M 13730M 13732B 13787
             13927M 13965M 14040M 14104M 14156M 14194M 14285M 14333M 14397M 14546M 14594M 14632M 14634B 14741  14776M
             14900M 14974M 15097M 15217M 15338M 15380M 15403M 15428M 15488M 15499M 15524M 15549M 15551B 15582  15671M
             15703M 15705B 15736  15794M 15809M 15811B 15842  15877M 15967M 15970  16898M 16946M 16977M 17067M 17078M
             17103M 17133M 17135B 17192  17305M 17354M 17356B 17387  17422M 17498M 17731M 17807M 17839M 17891M 17909M
             17934M 17964M 17966B 18024  18196M 18261M 18310M 18312B 18343  18378M 18414M 18480M 18540M 18582M 18613M
             18664M 18679M 18704M 18729M 18731B 18797  18832M 18907M 18934M 18982M 19025M 19130M 19131M 19200M 19201M
1         (M1SE00) (09:42) (22MAR04) General Purpose Register Cross Reference                                               Page  478
             19254M 19255M 19307M 19307  19353M 19353  19398M 19398  19413M 19415  19443M 19474M 19481M 19506M 19531M
             19533B 19568  19741M 19836M 19853M 19855B 19931  20013M 20067M 20147M 20188M 20251M 20291M 20323M 20371M
             20498M 20535M 20564M 20589M 20591B 20622  20792M 20793M 20794M 20796  20948M 20976M 20978B 21009  21065M
             21067B 21095  21168M 21196M 21215M 21217B 21248  21378M 21428M 21453M 21455B 21486  21544M 21565M 21567B
             21598  21656M 21677M 21679B 21739  21912M 21987M 22007M 22009B 22065  22177M 22209M 22313M 22445M 22498M
             22500B 22575  22651M 22652M 22652  22735  22799M 22889M 22965M 23051M 23120M 23167M 23226M 23309M 23368M
             23417M 23419B 23450  23491M 23619M 23620M 23620  23693M 23772M 23827M 23908M 23988M 24062M 24064B 24095
             24136M 24246M 24302M 24357M 24412M 24461M 24463B 24494  24535M 24645M 24701M 24756M 24811M 24866M 24916M
             24918B 24949  24990M 25295M 25355M 25410M 25465M 25514M 25516B 25547  25588M 25698M 25802M 25804B 25835
             25876M 25986M 26109M 26111B 26142  26198M 26265M 26335M 26363M 26365B 26396  26474M 26608M 26665M 26756M
             26811M 26866M 26926M 26950M 26952B 26983  27039M 27041B 27069  27125M 27127B 27233  27412M 27414B 27443
             27645M 27647B 27676  27778M 27780B 27809  27899M 27900  27978M 27979M 27979  28064M 28346M 28348B 28380
             28613M 28725M 28727B 28759  28968M 29105M 29143M 29145B 29177  29434M 29576M 29614M 29616B 29648  29902M
             30038M 30088M 30090B 30227  30312M 30316  30451M 30496M 30520M 30565M 30630M 30740M 30951M 30994M 31115M
             31147M 31289M 31343M 31388M 31452M 31560M 31659M 31707M 31764M 31788M 31832M 31928M 32101M 32201M 32234M
             32317M 32456M 32517M 32558M 32617M 32708M 32739M 32742M 32758M 32763M 32764M 32767M 32768  32772M 32772
             32775M 32839M 32982M 33042M 33131M 33225M 33346M 33558M 33598M 33621M 33648M 33666U 33672M 33679U 33690U
             33696M 33703U 33739M 33740M 33762  33769M 33859M 34537M 34757M 34801M 34855M 34914M 35044M 35120M 35248M
             35250B 35360  35408M 35412  35596M 35636M 35810M 35852M 35864M 35937M 35982M 36052M 36464M 36545M 36559M
             36612M 36620M 36620  36629  36631  36632M 36702  36748M 37017M 37109M 37128M 37151M 37167M 37191M 37215M
             37312M 37343M 37525M 37616M 37907M 37968M 38046M 38150M 38208M 38229M 38231M 38260M 38373M 38490M 38606M
             38608B 38682  38800M 39060M 39154M 39190M 39192B 39233  39398M 39458M 39506M 39652M 39879M 39911M 39913B
             40047  40082M 40087  40187M 40206M 40208B 40227  40280M 40282B 40310  40536M 40629M 40656M 40658B 40689
             40803M 40848M 40938M 40970M 40972B 41003  41117M 41162M 41243M 41278M 41280B 41311  41453M 41468M 41470B
             41501  41705M 41725M 41727B 41758  41865M 42091M 42108M 42115M 42130M 42132B 42163  42232M 42239M 42254M
             42256B 42284  42371M 42373B 42401  42577M 42672M 42686M 42725M 42727B 42758  43040M 43128M 43143M 43145B
             43176  43432M 43533M 43598M 43600B 43698M 43700  43748  43962M 43997M 44012M 44014B 44105  44321M 44440M
             44510M 44534M 44536B 44567  44801M 44866M 44929M 44931B 44962  45222M 45280M 45332M 45487M 45535M 45583M
             45585B 45637  45896M 45954M 46006M 46161M 46209M 46257M 46259B 46369  46557M 46635M 46647M 46763M 46799M
             46850M 46920M 46921M 46922M 46924  46998M 47091M 47255M 47283M 47285B 47316  47433M 47483M 47521M 47561
             47604M 47642M 47673M 47693M 47695B 47726  47847M 47887M 47918M 47920B 47952  48017M 48057  48116M 48134M
             48135M 48136M 48138  48227M 48290M 48292B 48323  48402M 48417M 48419B 48511  48629M 48789M 48810M 48812B
             48844  48927M 48943M 48945B 48995  49138M 49292M 49530M 49622M 49657M 49659B 49713  49856M 50051M 50053B
             50084  50122M 50138M 50140B 50168  50251M 50253B 50281  50425M 50470M 50556M 50588M 50590B 50621  50768M
             50813M 50917M 50951M 50953B 50984  51095M 51130M 51139M 51139  51166M 51167  51186M 51188B 51219  51351M
             51353B 51406  51512M 51595M 51596  51617M 51619B 51650  51710M 51712B 51740  51895M 51897B 52126  52305M
             52421M 52422M 52422  52577M 52611M 52612M 52612  52739M 53232M 53333M 53334M 53334  53340M 53340  53364M
             53476M 53521M 53523B 53554  53623M 53643M 53645B 53676  53815M 53934M 54025M 54085M 54150M 54170M 54172B
             54277  54554M 54556B 54586  54731M 54733B 54759  54802M 54842M 54844B 54873  55071M 55072M 55072N 55074
             55155M 55230M 55279M 55319M 55377M 55448M 55509M 55561M 55577M 55587M 55643M 55684M 55719M 55749M 55751B
             55778  55901M 55970M 56002M 56045  56153M 56222M 56246M 56248B 56278  56331M 56341U 56347M 56354U 56364M
             56364  56382U 56388M 56395U 56538M 56540B 56563M 56590  56617M 56619B 56642M 56672  56699M 56701B
    15(F)      931U  4356M  4356   9897   9898   9984M  9985B 10010  10011M 10012M 10013M 10014M 10014  10015M 10015
             10042M 10042  10043M 10106M 10107B 10133  10134M 10135M 10136M 10137M 10137  10138M 10138  10148M 10149
             10150  10174M 10175B 10201  10202M 10203M 10204M 10205M 10205  10206M 10206  10487M 10488B 10986M 10987B
             11012  11013M 11014M 11015M 11016M 11016  11017M 11017  11689M 11689  11700M 11700  11765M 11765  11799M
             11799  11831M 11831  11892M 11893B 11918  11919M 11920M 11921M 11922M 11922  11923M 11923  11934M 11934
             12015M 12015  12061M 12062B 12068M 12068  12069M 12107M 12108B 12134  12135M 12136M 12137M 12138M 12138
             12139M 12139  12150M 12150  12151M 12171M 12204  12205  12459M 12488  12489  12512M 12513B 12562M 12563B
             12588  12589M 12590M 12591M 12592M 12592  12593M 12593  12606M 12606  12607M 12736M 12764  12768M 12769B
             12823M 12824  12825M 12826M 12826N 12827  12919M 12920B 12970M 12971B 12997  12998M 12999M 13000M 13001M
             13001  13002M 13002  13015M 13015  13016M 13054M 13055B 13081  13082M 13083M 13084M 13085M 13085  13086M
             13086  13096M 13096  13097M 13135M 13136B 13161  13162M 13163M 13164M 13165M 13165  13166M 13166  13301M
             13302B 13344M 13345B 13390M 13391B 13436M 13437B 13480M 13481B 13527M 13528B 13610M 13611B 13638M 13639B
             13658M 13659B 13677M 13678B 13704M 13705B 13710M 13730M 13787  13788  13926M 13927B 13964M 13965B 14039M
             14040B 14103M 14104B 14155M 14156B 14193M 14194B 14284M 14285B 14332M 14333B 14396M 14397B 14545M 14546B
             14593M 14594B 14632M 14741  14742  14775M 14776B 14899M 14900B 14973M 14974B 15096M 15097B 15216M 15217B
             15337M 15338B 15379M 15380B 15402M 15403B 15427M 15428B 15487M 15488B 15498M 15499B 15523M 15524B 15549M
             15582  15583  15670M 15671B 15703M 15736  15737  15793M 15794B 15809M 15842  15843  15876M 15877B 15948
1         (M1SE00) (09:42) (22MAR04) General Purpose Register Cross Reference                                               Page  479
             15949M 15950M 15951M 15952M 15952  15953M 15953  15967M 15970  16897M 16898B 16945M 16946B 16976M 16977B
             17066M 17067B 17077M 17078B 17102M 17103B 17133M 17192  17193  17304M 17305B 17354M 17387  17388  17421M
             17422B 17497M 17498B 17730M 17731B 17806M 17807B 17838M 17839B 17890M 17891B 17908M 17909B 17933M 17934B
             17964M 18024  18025  18195M 18196B 18260M 18261B 18310M 18343  18344  18377M 18378B 18413M 18414B 18479M
             18480B 18539M 18540B 18581M 18582B 18612M 18613B 18663M 18664B 18678M 18679B 18703M 18704B 18729M 18797
             18798  18831M 18832B 18906M 18907B 18921  18922M 18923M 18924M 18925M 18925  18926M 18926  18933M 18934B
             18981M 18982B 19024M 19025B 19053  19054M 19055M 19056M 19057M 19057  19058M 19058  19129M 19130B 19132M
             19199M 19200B 19202M 19253M 19254B 19256M 19271  19278M 19297  19303M 19328  19342  19349M 19374  19388
             19394M 19410  19434  19442M 19443B 19473M 19474B 19480M 19481B 19505M 19506B 19531M 19568  19569  19637M
             19657M 19678M 19691M 19691  19704  19708  19740M 19741B 19835M 19836B 19853M 19931  19932  20012M 20013B
             20066M 20067B 20070M 20071M 20073  20089M 20090  20098M 20146M 20147B 20187M 20188B 20250M 20251B 20278M
             20279M 20279N 20291B 20322M 20323B 20370M 20371B 20410M 20411M 20411  20497M 20498B 20534M 20535B 20563M
             20564B 20589M 20622  20623  20795M 20796M 20797  20947M 20948B 20976M 21009  21010  21065M 21095  21096
             21167M 21168B 21195M 21196B 21215M 21248  21249  21377M 21378B 21427M 21428B 21453M 21486  21487  21543M
             21544B 21565M 21598  21599  21655M 21656B 21677M 21739  21740  21859  21860M 21861M 21862M 21863M 21863
             21864M 21864  21911M 21912B 21986M 21987B 22007M 22065  22066  22176M 22177B 22208M 22209B 22312M 22313B
             22444M 22445B 22498M 22575  22576  22607M 22608M 22608  22622  22752  22785  22798M 22799B 22888M 22889B
             22964M 22965B 23000  23037  23050M 23051B 23119M 23120B 23153  23166M 23167B 23225M 23226B 23258  23295
             23308M 23309B 23367M 23368B 23417M 23450  23451  23490M 23491B 23600D 23602M 23602  23603M 23604U 23605
             23692M 23693B 23771M 23772B 23826M 23827B 23907M 23908B 23987M 23988B 24062M 24095  24096  24135M 24136B
             24245M 24246B 24301M 24302B 24356M 24357B 24411M 24412B 24461M 24494  24495  24534M 24535B 24644M 24645B
             24700M 24701B 24755M 24756B 24810M 24811B 24865M 24866B 24916M 24949  24950  24989M 24990B 25108M 25109
             25113M 25113  25114  25202M 25211  25294M 25295B 25354M 25355B 25409M 25410B 25464M 25465B 25514M 25547
             25548  25587M 25588B 25697M 25698B 25802M 25835  25836  25875M 25876B 25985M 25986B 26109M 26142  26143
             26197M 26198B 26264M 26265B 26334M 26335B 26363M 26396  26397  26473M 26474B 26524D 26526M 26526  26527M
             26528U 26529  26607M 26608B 26664M 26665B 26755M 26756B 26810M 26811B 26865M 26866B 26925M 26926B 26950M
             26983  26984  27039M 27069  27070  27125M 27233  27234  27412M 27443  27444  27645M 27676  27677  27778M
             27809  27810  27899M 27900  28063M 28064B 28346M 28380  28381  28529M 28530M 28530  28545U 28580U 28612M
             28613B 28638D 28640M 28640  28641M 28642U 28643  28725M 28759  28760  28916M 28917M 28917  28967M 28968B
             28989D 28991M 28991  28992M 28993U 28994  29104M 29105B 29143M 29177  29178  29382M 29383M 29383  29433M
             29434B 29455D 29457M 29457  29458M 29459U 29460  29575M 29576B 29614M 29648  29649  29850M 29851M 29851
             29901M 29902B 29923D 29925M 29925  29926M 29927U 29928  30037M 30038B 30088M 30227  30228  30312M 30316
             30405M 30416  30450M 30451B 30532M 30532  30569M 30569  30587M 30631M 30650M 30739M 30740B 30950M 30951B
             30993M 30994B 31114M 31115B 31146M 31147B 31288M 31289B 31342M 31343B 31387M 31388B 31414  31415M 31416M
             31417M 31418M 31418  31419M 31419  31451M 31452B 31559M 31560B 31658M 31659B 31706M 31707B 31763M 31764B
             31787M 31788B 31831M 31832B 31927M 31928B 32018M 32042M 32042  32100M 32101B 32115M 32200M 32201B 32207M
             32207  32210  32233M 32234B 32235M 32316M 32317B 32380  32381M 32382M 32383M 32384M 32384  32385M 32385
             32433  32434M 32435M 32436M 32437M 32437  32438M 32438  32455M 32456B 32516M 32517B 32557M 32558B 32567M
             32579  32616M 32617B 32707M 32708B 32738M 32739B 32742M 32751M 32764M 32768M 32775M 32776  32838M 32839B
             32840M 32947M 32981M 32982B 33008  33009M 33010M 33011M 33012M 33012  33013M 33013  33041M 33042B 33068
             33069M 33070M 33071M 33072M 33072  33073M 33073  33130M 33131B 33167M 33168M 33170M 33171M 33172M 33210
             33224M 33225B 33251  33252M 33253M 33254M 33255M 33255  33256M 33256  33272M 33275M 33277  33345M 33346B
             33357D 33359M 33359  33360M 33361U 33362M 33389M 33399U 33405M 33412U 33423U 33429M 33436U 33557M 33558B
             33599M 33602  33614M 33620  33621M 33705M 33738M 33739B 33740M 33762  33768M 33769B 33858M 33859B 33892
             33893M 33894M 33895M 33896M 33896  33897M 33897  33984M 34039M 34039  34157M 34168M 34168  34182  34191M
             34208  34214  34268  34305  34355  34365M 34536M 34537B 34756M 34757B 34800M 34801B 34854M 34855B 34913M
             34914B 34916M 35002M 35002  35043M 35044B 35045M 35056M 35065M 35065  35085  35116  35119M 35120B 35165M
             35165  35168M 35171M 35174  35248M 35360  35361  35408M 35412  35595M 35596B 35635M 35636B 35684M 35685
             35688M 35737M 35738M 35739M 35755M 35765D 35767M 35767  35768M 35769U 35809M 35810B 35816M 35851M 35852B
             35863M 35864B 35868M 35936M 35937B 35981M 35982B 35991M 36000D 36002M 36002  36003M 36004U 36014D 36016M
             36016  36017M 36018U 36026M 36051M 36052B 36327M 36463M 36464B 36603M 36606  36608M 36609  36611M 36629
             36631M 36632  36635M 36637  36655M 36655  36673M 36697M 36697  36768M 36768  36785M 36830M 36911M 37016M
             37017B 37108M 37109B 37127M 37128B 37224M 37349M 37357M 37392M 37396  37398M 37399  37402M 37404  37461M
             37464  37476M 37484M 37493M 37493  37500  37524M 37525B 37527M 37553M 37568M 37580  37615M 37616B 37631M
             37646M 37658  37710  37906M 37907B 37967M 37968B 37982M 38045M 38046B 38149M 38150B 38152M 38207M 38208B
             38230M 38231M 38264M 38264  38295M 38304M 38304  38324  38367  38372M 38373B 38414M 38423M 38423  38443
             38484  38489M 38490B 38564M 38564  38567M 38570M 38573  38606M 38682  38683  38799M 38800B 39059M 39060B
             39153M 39154B 39190M 39233  39234  39397M 39398B 39457M 39458B 39505M 39506B 39587  39588M 39589M 39590M
             39591M 39591  39592M 39592  39651M 39652B 39878M 39879B 39911M 39933  39934M 39935M 39936M 39937M 39937
1         (M1SE00) (09:42) (22MAR04) General Purpose Register Cross Reference                                               Page  480
             39938M 39938  40047  40048  40082M 40087  40186M 40187B 40206M 40227  40228  40280M 40310  40311  40535M
             40536B 40628M 40629B 40656M 40689  40690  40802M 40803B 40847M 40848B 40937M 40938B 40970M 41003  41004
             41116M 41117B 41161M 41162B 41242M 41243B 41278M 41311  41312  41452M 41453B 41468M 41501  41502  41704M
             41705B 41725M 41758  41759  41864M 41865B 41905M 41906M 41916  42090M 42091B 42107M 42108B 42114M 42115B
             42130M 42163  42164  42231M 42232B 42238M 42239B 42254M 42284  42285  42350D 42352M 42352  42353M 42354U
             42355  42371M 42401  42402  42551M 42565M 42570  42576M 42577B 42725M 42758  42759  43039M 43040B 43113M
             43127M 43128B 43143M 43176  43177  43363M 43431M 43432B 43532M 43533B 43598M 43700  43748  43749  43961M
             43962B 43996M 43997B 44012M 44105  44106  44320M 44321B 44439M 44440B 44509M 44510B 44534M 44567  44568
             44800M 44801B 44865M 44866B 44874M 44885M 44885  44929M 44962  44963  45064M 45150  45221M 45222B 45279M
             45280B 45331M 45332B 45486M 45487B 45534M 45535B 45583M 45637  45638  45742M 45824  45895M 45896B 45953M
             45954B 46005M 46006B 46160M 46161B 46208M 46209B 46257M 46369  46370  46556M 46557B 46632M 46633M 46634M
             46649M 46663M 46663  46762M 46763B 46798M 46799B 46849M 46850B 46923M 46924M 46925  46997M 46998B 47023
             47024M 47025M 47026M 47027M 47027  47028M 47028  47090M 47091B 47137M 47138  47139M 47149U 47162U 47164
             47254M 47255B 47283M 47316  47317  47432M 47433B 47482M 47483B 47521M 47537  47555U 47568U 47603M 47604B
             47641M 47642B 47672M 47673B 47693M 47726  47727  47846M 47847B 47886M 47887B 47918M 47952  47953  48017M
             48033  48051U 48064U 48115M 48116B 48137M 48138M 48139  48226M 48227B 48253  48254M 48255M 48256M 48257M
             48257  48258M 48258  48290M 48323  48324  48401M 48402B 48417M 48511  48512  48628M 48629B 48788M 48789B
             48810M 48844  48845  48926M 48927B 48943M 48995  48996  49137M 49138B 49291M 49292B 49405  49406M 49407M
             49408M 49409M 49409  49410M 49410  49529M 49530B 49554  49555M 49556M 49557M 49558M 49558  49559M 49559
             49621M 49622B 49657M 49713  49714  49855M 49856B 50051M 50084  50085  50121M 50122B 50138M 50168  50169
             50251M 50281  50282  50424M 50425B 50469M 50470B 50555M 50556B 50588M 50621  50622  50767M 50768B 50812M
             50813B 50916M 50917B 50951M 50984  50985  51094M 51095B 51186M 51219  51220  51351M 51406  51407  51511M
             51512B 51594M 51596  51617M 51650  51651  51710M 51740  51741  51895M 52126  52127  52247M 52248  52304M
             52305B 52371M 52372  52576M 52577B 52687  52688M 52689M 52690M 52691M 52691  52692M 52692  52738M 52739B
             52803M 52804M 52804  52839M 52858M 52858  52875M 52884  52932M 52957M 52957  52982M 52982  52988M 52989
             53068  53069M 53070M 53071M 53072M 53072  53073M 53073  53120M 53121M 53121  53231M 53232B 53257  53258M
             53259M 53260M 53261M 53261  53262M 53262  53295M 53304M 53304  53387M 53388M 53388  53392M 53394  53475M
             53476B 53491D 53493M 53493  53494M 53495U 53496  53500M 53500  53501  53521M 53554  53555  53622M 53623B
             53643M 53676  53677  53814M 53815B 53933M 53934B 54024M 54025B 54084M 54085B 54111  54112M 54113M 54114M
             54115M 54115  54116M 54116  54149M 54150B 54170M 54277  54278  54476M 54509M 54523M 54523  54554M 54586
             54587  54731M 54759  54760  54801M 54802B 54842M 54873  54874  55073M 55074  55154M 55155B 55180  55181M
             55182M 55183M 55184M 55184  55185M 55185  55229M 55230B 55278M 55279B 55318M 55319B 55376M 55377B 55447M
             55448B 55508M 55509B 55560M 55561B 55577M 55585N 55587M 55642M 55643B 55683M 55684B 55718M 55719B 55749M
             55778  55779  55869  55870M 55871M 55872M 55873M 55873  55874M 55874  55900M 55901B 55902M 55951  55966
             55969M 55970B 56001M 56002B 56045  56046  56152M 56153B 56154M 56203  56218  56221M 56222B 56246M 56278
             56279  56452M 56508M 56538M 56566M 56576U 56578M 56579B 56590  56591  56617M 56645M 56655U 56658U 56660M
             56661B 56672  56673  56699M

1M1SERV   (M1SE00) (09:42) (22MAR04) Diagnostic Cross Reference and Assembler Summary                                       Page  481
-                                                                                            HLASM R4.0  2004/03/22 09.42
0     No Statements Flagged in this Assembly
 HIGH LEVEL ASSEMBLER, 5696-234, RELEASE 4.0, PTF UQ57391
0SYSTEM: OS/390 02.10.00            JOBNAME: PJG#M1SV    STEPNAME: ASM        PROCSTEP: (NOPROC)
0Datasets Allocated for this Assembly
  Con DDname   Dataset Name                                 Volume  Member
   P1 SYSIN    SYS04082.T094200.RA000.PJG#M1SV.INPUT.H01    SCR100
   L1 SYSLIB   SYS3.DUMMYMAC                                SYSB02
   L2          WYL.GG.ORV.MACLIB                            SYSB02
   L3          WYL.GG.SYS.MACLIB                            SYSB05
   L4          WYL.GG.ORV.BC.MACLIB                         SYSB02
   L5          SYS3.MACLIB                                  SYSB02
   L6          SYS1.MACLIB                                  MVSBR9
      SYSLIN   WYL.GG.PJG.OBJ                               SYSB05  M1SERV
      SYSPRINT SYS04082.T094200.RA000.PJG#M1SV.PRINT.H01    SCR101
      SYSTERM  GG$PJG.PJG#M1SV.JOB05948.D0000103.?

    7812K allocated to Buffer Pool,         7293K would be required for this to be an In-Storage Assembly
    8799 Primary Input Records Read        11706 Library Records Read                  0 Work File Reads
       0 ASMAOPT Records Read              33604 Primary Print Records Written         0 Work File Writes
     899 Punch Records Written                 0 ADATA Records Written
0Assembly Start Time: 09.42.03 Stop Time: 09.42.21 Processor Time: 00.00.11.0558
 Return Code 000
