1                        J E S 2  J O B  L O G  --  S Y S T E M  S Y S B  --  N O D E  R L G
0
 09.42.00 JOB05948 ---- MONDAY,    22 MAR 2004 ----
 09.42.00 JOB05948  ICH70001I GG$PJG   LAST ACCESS AT 09:41:50 ON MONDAY, MARCH 22, 2004
 09.42.00 JOB05948  $HASP373 PJG#M1SV STARTED - INIT 2    - CLASS E - SYS SYSB
 09.42.00 JOB05948  ***  HCMD      STEP $$QUIET
 09.42.00 JOB05948  PURGE * Q=OUTPUT MULTIPLE
 09.42.00 JOB05948  JOB PJG#M1SV NOT IN OUTPUT QUEUE
 09.42.01 JOB05948  PJG#M1SV.$$QUIET .         RC=0008 TapeIO=0000 DiskIO=0000 CPU=  .01s Elapsed=20.23s
 09.42.01 JOB05948  PJG#M1SV.$CND    .         RC=Zero TapeIO=0000 DiskIO=0002 CPU=  .01s Elapsed=21.61s
 09.42.02 JOB05948  PJG#M1SV.$UNP    .         RC=Zero TapeIO=0000 DiskIO=0122 CPU=  .10s Elapsed=21.93s
 09.42.21 JOB05948  PJG#M1SV.ASM     .         RC=Zero TapeIO=0000 DiskIO=1187 CPU=11.23s Elapsed=22.61s
 09.42.26 JOB05948  PJG#M1SV.$EDIT   .         RC=Zero TapeIO=0000 DiskIO=0676 CPU= 2.54s Elapsed=41.28s
 09.42.26 JOB05948  PJG#M1SV Ended.  Name=Module: M1SERV                 Total CPU=13.89s Elapsed=20.23s
 09.42.26 JOB05948
 09.42.26 JOB05948  Execution charges   Priority=Standard   Block=Day
 09.42.26 JOB05948
 09.42.26 JOB05948  CPU Usage         257.43         $159.60   Standard Processing Unit Equivalent
 09.42.26 JOB05948                                   =======
 09.42.26 JOB05948                                   $159.60   Total Job execution charge
 09.42.26 JOB05948
 09.42.26 JOB05948  See back separator page for print charges
 09.42.26 JOB05948
 09.42.26 JOB05948  $HASP395 PJG#M1SV ENDED  ASM=0
1        1 //PJG#M1SV JOB PJG$GG,'Module: M1SERV',TIME=1,MSGCLASS=C                JOB05948
           /*JOBPARM HOLD=OUTPUT,LINES=50,CHARS=TN15,NOTIFY=YES
         2 //       EXEC PURGEOLD
         3 XXPURGEOLD PROC
           XX*
           XX* This proc is maintained by Jim Stosick
           XX*
         4 XX$$QUIET  EXEC PGM=HCMDX,PARM='PURGE * Q=OUTPUT MULTIPLE',
           XX         ACCT=(PURGEOLD,SYS3)
         5 //$CND   EXEC PGM=BILBO,REGION=512K,PARM='RECS=100'
         6 //STEPLIB  DD DSN=WYL.GG.ORV.LINKLIB,DISP=SHR
         7 //SYSPRINT DD SYSOUT=$
         8 //SYSUT1   DD DSN=WYL.GG.PJG.OBJ,DISP=OLD
         9 //SYSUT2   DD DSN=WYL.GG.PJG.OBJ,DISP=OLD
        10 //SYSIN    DD DUMMY
        11 //$UNP   EXEC PGM=WUNPRESS,PARM='NUM'
        12 //SYSPRINT DD SYSOUT=$
        13 //SYSUT1   DD DSN=WYL.GG.ORV.SOURCE(M1SERV),DISP=SHR
        14 //SYSUT2   DD DSN=&&INPUT,DISP=(,PASS),UNIT=SYSDA,
           //            SPACE=(TRK,(25,25),RLSE),DCB=CARD
        15 //ASM    EXEC PGM=ASMA90,REGION=8M,COND=(0,NE,$UNP),
           //            PARM=('SYSPARM(M1SERV),TERM,LANG(EN),OBJ',
           //          'LC(32500),XREF(SHORT),NODECK,NORLD,NODX,NOUS')
           //*STEPLIB  DD DSN=SYS1.SASMMOD1,DISP=SHR
        16 //SYSLIB   DD DSN=SYS3.DUMMYMAC,DISP=SHR,DCB=BLKSIZE=27920
        17 //         DD DSN=WYL.GG.ORV.MACLIB,DISP=SHR
        18 //         DD DSN=WYL.GG.SYS.MACLIB,DISP=SHR
        19 //         DD DSN=WYL.GG.ORV.BC.MACLIB,DISP=SHR
        20 //         DD DSN=SYS3.MACLIB,DISP=SHR
        21 //         DD DSN=SYS1.MACLIB,DISP=SHR
        22 //SYSUT1   DD DSN=&&SYSUT1,UNIT=VIO,DISP=(,DELETE),
           //            SPACE=(4088,(500,250),,CONTIG,ROUND)
        23 //SYSTERM  DD SYSOUT=$
        24 //SYSPRINT DD DSN=&&PRINT,UNIT=SYSDA,DISP=(,PASS),
           //            SPACE=(6650,(250,250),RLSE),
           //            DCB=(BLKSIZE=6650,LRECL=133,RECFM=FB)
        25 //SYSLIN   DD DSN=WYL.GG.PJG.OBJ(M1SERV),DISP=OLD
        26 //SYSUDUMP DD SYSOUT=A
        27 //SYSIN    DD DSN=&&INPUT,DISP=(OLD,DELETE)
        28 //$EDIT  EXEC PGM=ASMEDIT,REGION=1M,
           //            COND=EVEN,PARM='STMT,DATA'
        29 //STEPLIB  DD DSN=WYL.GG.SYS.LINKLIB,DISP=SHR
        30 //ASMOUT   DD DSN=&&PRINT,DISP=(OLD,DELETE)
        31 //SYSPRINT DD SYSOUT=A
        32 //SYSUDUMP DD SYSOUT=A
1 STMT NO. MESSAGE
         2 IEFC001I PROCEDURE PURGEOLD WAS EXPANDED USING SYSTEM LIBRARY SYS3.BETAPROC
        14 IGD01010I STORCLAS= TEMP STORGROUP =
        14 IGD01010I STORGRP=VIO ASSIGNED.
        22 IGD01010I STORCLAS= TEMP STORGROUP =
        22 IGD01010I STORGRP=VIO ASSIGNED.
        24 IGD01010I STORCLAS= TEMP STORGROUP =
        24 IGD01010I STORGRP=VIO ASSIGNED.
 ICH70001I GG$PJG   LAST ACCESS AT 09:41:50 ON MONDAY, MARCH 22, 2004
 IEF142I PJG#M1SV $$QUIET - STEP WAS EXECUTED - COND CODE 0008
 *********************************************************************************
 *   PJG#M1SV/$$QUIET /                    Return Code      0008                 *
 *   Region used      260K (16K user + 244K system)                              *
 *   Extended region  9352K (4K user + 9348K system)                             *
 *                                                                               *
 *   Paging              In      Out                                             *
 *   Private <-> Aux      0        0       CPU time (TCB)   00:00:00.01          *
 *   Private <-> Exp      0        0       CPU time (SRB)   00:00:00.00          *
 *   VIO                  0        0       Elapsed time    920:45:52.73          *
 *   Common               0      ---                                             *
 *                                                                               *
 *                                                                               *
 *   CPU Usage          0.18         $0.11  Standard Processing Unit Equivalent  *
 *                                   $0.11  Total Step execution charge          *
 *                                                                               *
 *    I/O count  DDname   Type Addr           I/O count  DDname   Type Addr      *
 *                         *** No I/O for this step ***                          *
 *********************************************************************************
 IEF373I STEP/$$QUIET /START 2004082.0942
 IEF374I STEP/$$QUIET /STOP  2004082.0942 CPU    0MIN 00.01SEC SRB    0MIN 00.00SEC VIRT    16K SYS   244K EXT       4K SYS    9348K
 IEF236I ALLOC. FOR PJG#M1SV $CND
 IEF237I 0401 ALLOCATED TO STEPLIB
 IEF237I JES2 ALLOCATED TO SYSPRINT
 IEF237I 04DC ALLOCATED TO SYSUT1
 IEF237I 04DC ALLOCATED TO SYSUT2
 IEF237I DMY  ALLOCATED TO SYSIN
 IEF142I PJG#M1SV $CND - STEP WAS EXECUTED - COND CODE 0000
 IEF285I   WYL.GG.ORV.LINKLIB                           KEPT
 IEF285I   VOL SER NOS= SYSB01.
 IEF285I   GG$PJG.PJG#M1SV.JOB05948.D0000101.?          SYSOUT
 IEF285I   WYL.GG.PJG.OBJ                               KEPT
 IEF285I   VOL SER NOS= SYSB05.
 IEF285I   WYL.GG.PJG.OBJ                               KEPT
 IEF285I   VOL SER NOS= SYSB05.
 *********************************************************************************
 *   PJG#M1SV/$CND    /                    Return Code      Zero                 *
 *   Region used      280K (16K user + 264K system)                              *
 *   Extended region  9392K (4K user + 9388K system)                             *
 *                                                                               *
 *   Paging              In      Out                                             *
 *   Private <-> Aux      0        0       CPU time (TCB)   00:00:00.01          *
 *   Private <-> Exp      0        0       CPU time (SRB)   00:00:00.00          *
 *   VIO                  0        0       Elapsed time    920:45:51.35          *
 *   Common               0      ---                                             *
 *                                                                               *
 *                                                                               *
 *   CPU Usage          0.18         $0.11  Standard Processing Unit Equivalent  *
 *                                   $0.11  Total Step execution charge          *
 *                                                                               *
 *    I/O count  DDname   Type Addr           I/O count  DDname   Type Addr      *
 *            2  STEPLIB  Disk 0401                   0  SYSPRINT      ----      *
 *            0  SYSUT1   Disk 04DC                   0  SYSUT2   Disk 04DC      *
 *            0  SYSIN         ----                                              *
 *********************************************************************************
 IEF373I STEP/$CND    /START 2004082.0942
 IEF374I STEP/$CND    /STOP  2004082.0942 CPU    0MIN 00.01SEC SRB    0MIN 00.00SEC VIRT    16K SYS   264K EXT       4K SYS    9388K
 IEF236I ALLOC. FOR PJG#M1SV $UNP
 IEF237I JES2 ALLOCATED TO SYSPRINT
 IEF237I 0402 ALLOCATED TO SYSUT1
 IGD101I SMS ALLOCATED TO DDNAME (SYSUT2  )
         DSN (SYS04082.T094200.RA000.PJG#M1SV.INPUT.H01   )
         STORCLAS (TEMP) MGMTCLAS (        ) DATACLAS (        )
         VOL SER NOS= SCR100
 IEF142I PJG#M1SV $UNP - STEP WAS EXECUTED - COND CODE 0000
 IEF285I   GG$PJG.PJG#M1SV.JOB05948.D0000102.?          SYSOUT
 IEF285I   WYL.GG.ORV.SOURCE                            KEPT
 IEF285I   VOL SER NOS= SYSB02.
 IGD106I SYS04082.T094200.RA000.PJG#M1SV.INPUT.H01    PASSED,    DDNAME=SYSUT2
 *********************************************************************************
 *   PJG#M1SV/$UNP    /                    Return Code      Zero                 *
 *   Region used      388K (108K user + 280K system)                             *
 *   Extended region  9468K (4K user + 9464K system)                             *
 *                                                                               *
 *   Paging              In      Out                                             *
 *   Private <-> Aux      0        0       CPU time (TCB)   00:00:00.09          *
 *   Private <-> Exp      0        0       CPU time (SRB)   00:00:00.01          *
 *   VIO                  0        0       Elapsed time    920:45:51.03          *
 *   Common               0      ---                                             *
 *                                                                               *
 *                                                                               *
 *   CPU Usage          1.68         $1.04  Standard Processing Unit Equivalent  *
 *                                   $1.04  Total Step execution charge          *
 *                                                                               *
 *    I/O count  DDname   Type Addr           I/O count  DDname   Type Addr      *
 *            0  SYSPRINT      ----                  10  SYSUT1   Disk 0402      *
 *          112  SYSUT2   Disk 038B                                              *
 *********************************************************************************
 IEF373I STEP/$UNP    /START 2004082.0942
 IEF374I STEP/$UNP    /STOP  2004082.0942 CPU    0MIN 00.09SEC SRB    0MIN 00.01SEC VIRT   108K SYS   280K EXT       4K SYS    9464K
 IEF236I ALLOC. FOR PJG#M1SV ASM
 IEF237I 0402 ALLOCATED TO SYSLIB
 IEF237I 0402 ALLOCATED TO
 IEF237I 04DC ALLOCATED TO
 IEF237I 0402 ALLOCATED TO
 IEF237I 0402 ALLOCATED TO
 IEF237I 04A0 ALLOCATED TO
 IGD101I SMS ALLOCATED TO DDNAME (SYSUT1  )
         DSN (SYS04082.T094200.RA000.PJG#M1SV.SYSUT1.H01  )
         STORCLAS (TEMP) MGMTCLAS (        ) DATACLAS (        )
         VOL SER NOS= VIO
 IEF237I JES2 ALLOCATED TO SYSTERM
 IGD101I SMS ALLOCATED TO DDNAME (SYSPRINT)
         DSN (SYS04082.T094200.RA000.PJG#M1SV.PRINT.H01   )
         STORCLAS (TEMP) MGMTCLAS (        ) DATACLAS (        )
         VOL SER NOS= SCR101
 IEF237I 04DC ALLOCATED TO SYSLIN
 IEF237I JES2 ALLOCATED TO SYSUDUMP
 IGD103I SMS ALLOCATED TO DDNAME SYSIN
 IEF142I PJG#M1SV ASM - STEP WAS EXECUTED - COND CODE 0000
 IEF285I   SYS3.DUMMYMAC                                KEPT
 IEF285I   VOL SER NOS= SYSB02.
 IEF285I   WYL.GG.ORV.MACLIB                            KEPT
 IEF285I   VOL SER NOS= SYSB02.
 IEF285I   WYL.GG.SYS.MACLIB                            KEPT
 IEF285I   VOL SER NOS= SYSB05.
 IEF285I   WYL.GG.ORV.BC.MACLIB                         KEPT
 IEF285I   VOL SER NOS= SYSB02.
 IEF285I   SYS3.MACLIB                                  KEPT
 IEF285I   VOL SER NOS= SYSB02.
 IEF285I   SYS1.MACLIB                                  KEPT
 IEF285I   VOL SER NOS= MVSBR9.
 IGD105I SYS04082.T094200.RA000.PJG#M1SV.SYSUT1.H01   DELETED,   DDNAME=SYSUT1
 IEF285I   GG$PJG.PJG#M1SV.JOB05948.D0000103.?          SYSOUT
 IGD106I SYS04082.T094200.RA000.PJG#M1SV.PRINT.H01    PASSED,    DDNAME=SYSPRINT
 IEF285I   WYL.GG.PJG.OBJ                               KEPT
 IEF285I   VOL SER NOS= SYSB05.
 IEF285I   GG$PJG.PJG#M1SV.JOB05948.D0000104.?          SYSOUT
 IGD105I SYS04082.T094200.RA000.PJG#M1SV.INPUT.H01    DELETED,   DDNAME=SYSIN
 *********************************************************************************
 *   PJG#M1SV/ASM     /                    Return Code      Zero                 *
 *   Region used      8484K (8192K user + 292K system)                           *
 *   Extended region  9952K (412K user + 9540K system)                           *
 *                                                                               *
 *   Paging              In      Out                                             *
 *   Private <-> Aux      0        0       CPU time (TCB)   00:00:11.15          *
 *   Private <-> Exp      0        0       CPU time (SRB)   00:00:00.08          *
 *   VIO                  0        0       Elapsed time    920:45:50.35          *
 *   Common               0      ---                                             *
 *                                                                               *
 *                                                                               *
 *   CPU Usage        209.06       $129.61  Standard Processing Unit Equivalent  *
 *                                 $129.61  Total Step execution charge          *
 *                                                                               *
 *    I/O count  DDname   Type Addr           I/O count  DDname   Type Addr      *
 *          160  SYSLIB   Disk 0402                   0  SYSLIB   Disk 0402      *
 *          152  SYSLIB   Disk 04DC                   0  SYSLIB   Disk 0402      *
 *            0  SYSLIB   Disk 0402                  65  SYSLIB   Disk 04A0      *
 *            0  SYSUT1   VIO  ----                   0  SYSTERM       ----      *
 *          673  SYSPRINT Disk 04E3                  24  SYSLIN   Disk 04DC      *
 *            0  SYSUDUMP      ----                 113  SYSIN    Disk 038B      *
 *********************************************************************************
 IEF373I STEP/ASM     /START 2004082.0942
 IEF374I STEP/ASM     /STOP  2004082.0942 CPU    0MIN 11.15SEC SRB    0MIN 00.08SEC VIRT  8192K SYS   292K EXT     412K SYS    9540K
 IEF236I ALLOC. FOR PJG#M1SV $EDIT
 IEF237I 0402 ALLOCATED TO STEPLIB
 IGD103I SMS ALLOCATED TO DDNAME ASMOUT
 IEF237I JES2 ALLOCATED TO SYSPRINT
 IEF237I JES2 ALLOCATED TO SYSUDUMP
 IEF142I PJG#M1SV $EDIT - STEP WAS EXECUTED - COND CODE 0000
 IEF285I   WYL.GG.SYS.LINKLIB                           KEPT
 IEF285I   VOL SER NOS= SYSB02.
 IGD105I SYS04082.T094200.RA000.PJG#M1SV.PRINT.H01    DELETED,   DDNAME=ASMOUT
 IEF285I   GG$PJG.PJG#M1SV.JOB05948.D0000105.?          SYSOUT
 IEF285I   GG$PJG.PJG#M1SV.JOB05948.D0000106.?          SYSOUT
 *********************************************************************************
 *   PJG#M1SV/$EDIT   /                    Return Code      Zero                 *
 *   Region used      388K (116K user + 272K system)                             *
 *   Extended region  9480K (4K user + 9476K system)                             *
 *                                                                               *
 *   Paging              In      Out                                             *
 *   Private <-> Aux      0        0       CPU time (TCB)   00:00:02.47          *
 *   Private <-> Exp      0        0       CPU time (SRB)   00:00:00.07          *
 *   VIO                  0        0       Elapsed time    920:45:31.68          *
 *   Common               0      ---                                             *
 *                                                                               *
 *                                                                               *
 *   CPU Usage         46.31        $28.71  Standard Processing Unit Equivalent  *
 *                                  $28.71  Total Step execution charge          *
 *                                                                               *
 *    I/O count  DDname   Type Addr           I/O count  DDname   Type Addr      *
 *            2  STEPLIB  Disk 0402                 674  ASMOUT   Disk 04E3      *
 *            0  SYSPRINT      ----                   0  SYSUDUMP      ----      *
 *********************************************************************************
 IEF373I STEP/$EDIT   /START 2004082.0942
 IEF374I STEP/$EDIT   /STOP  2004082.0942 CPU    0MIN 02.47SEC SRB    0MIN 00.07SEC VIRT   116K SYS   272K EXT       4K SYS    9476K
 *********************************************************************************
 *                                                                               *
 *                      S t a n f o r d   U n i v e r s i t y                    *
 *                                                                               *
 *                              *** Job Summary ***                              *
 *                                                                               *
 *   System Id      SYSB                   Input time     09:38:23  Mar 22, 2004 *
 *                                                                               *
 *   System Release SP6.1.0                Start time     09:42:00  Mar 22, 2004 *
 *                                                                               *
 *   Job name       PJG#M1SV               Stop  time     00:00:00  Mar 22, 2004 *
 *                                                                               *
 *   Account        PJG$GG                 Elapsed time  920:45:52.73            *
 *                                                                               *
 *   User Name      Module: M1SERV         CPU time       00:00:13.73            *
 *                                                                               *
 *   Job class      E                      SRB Time       00:00:00.16            *
 *                                                                               *
 *********************************************************************************
 IEF375I  JOB/PJG#M1SV/START 2004082.0942
 IEF376I  JOB/PJG#M1SV/STOP  2004082.0942 CPU    0MIN 13.73SEC SRB    0MIN 00.16SEC
1Data set successfully converted from EDIT to FB format
1Assembler Done M1SERV No Statements Flagged
1         High Level Assembler Option Summary                   (PTF UQ57391)                                               Page    1
-                                                                                            HLASM R4.0  2004/03/22 09.42
0  No Overriding ASMAOPT Parameters
   Overriding Parameters-  SYSPARM(M1SERV),TERM,LANG(EN),OBJ,LC(32500),XREF(SHORT),NODECK,NORLD,NODX,NOUS
   No Process Statements


   Options for this Assembly
0  NOADATA
     ALIGN
   NOASA
     BATCH
     CODEPAGE(047C)
   NOCOMPAT
   NODBCS
 3 NODECK
 3 NODXREF
     ESD
   NOEXIT
     FLAG(0,ALIGN,CONT,NOIMPLEN,NOPAGE0,PUSH,RECORD,NOSUBSTR,USING0)
   NOFOLD
   NOGOFF
   NOINFO
 3   LANGUAGE(EN)
   NOLIBMAC
 3   LINECOUNT(32500)
     LIST(121)
     MXREF(SOURCE)
 3   OBJECT
     OPTABLE(UNI,NOLIST)
   NOPCONTROL
   NOPESTOP
   NOPROFILE
   NORA2
   NORENT
 3 NORLD
     RXREF
     SIZE(MAX)
 3   SYSPARM(M1SERV)
 3   TERM(WIDE)
   NOTEST
     THREAD
   NOTRANSLATE
 3 NOUSING
 3   XREF(SHORT)

   No Overriding DD Names

1M1SERV   External Symbol Dictionary                                                                                        Page    2
-Symbol   Type   Id     Address  Length     LD ID  Flags Alias-of                            HLASM R4.0  2004/03/22 09.42
0M1SERV    SD 00000001 00000000 00007A90             06
 M1SE00    LD          00000000           00000001
 M1SVINIT  LD          00000022           00000001
 UTRACE9   LD          000006C4           00000001
 M1LOGON   LD          00000768           00000001
 M1DUMP    LD          00000B4A           00000001
 VMGET     ER 00000002
 LKCRE     ER 00000003
 VMINFO    ER 00000004
 TERMINUI  ER 00000005
 ACAINFO   ER 00000006
 EXRADD    ER 00000007
 XITMASK   ER 00000008
 XITNEW    ER 00000009
 SEG       ER 0000000A
 SEGHEX    ER 0000000B
 SEGCORE   ER 0000000C
 M1TMC9    LD          00000F00           00000001
 DOUTMR9   LD          000010E8           00000001
 DOCTMR9   LD          00001164           00000001
 M1IOC9    LD          000011A0           00000001
 DOWAIT9   LD          00001486           00000001
 M1ATTN9   LD          00001510           00000001
 DOATTN9   LD          00001664           00000001
 M1LGOFF9  LD          0000172E           00000001
 ASLOCK    ER 0000000D
 XITGST    ER 0000000E
 XITPST    ER 0000000F
 RESUMTS   ER 00000010
 ASULOCK   ER 00000011
 EXRDONE   ER 00000012
 XITFPR    ER 00000013
 M1PGM9    LD          000018B6           00000001
 DOPANIC9  LD          00001B02           00000001
 M1SVC9    LD          00001BF6           00000001
 M1WAIT9   LD          00001DC8           00000001
 PANIC9    LD          00001EA0           00000001
 M1EXIT9   LD          00001EDC           00000001
 COMMAND9  LD          00001F30           00000001
 PAUSE9    LD          00001FC8           00000001
 QPAUSE9   LD          0000200A           00000001
 SETCLP9   LD          0000204C           00000001
 DOEXITS9  LD          00002132           00000001
 XITRMPLC  ER 00000014
 VCLP      ER 00000015
 SUSPEND   ER 00000016
 XALGOFF   ER 00000017
 PAGTPROT  ER 00000018
 $ATTACH9  LD          00002318           00000001
 $DETACH9  LD          000024A6           00000001
 M1READ9   LD          000025DA           00000001
 M1WRITE9  LD          0000269C           00000001
 M1CNTRL9  LD          0000277A           00000001
 M1RESRV9  LD          0000289E           00000001
 M1RELSE9  LD          00002930           00000001
1M1SERV   External Symbol Dictionary                                                                                        Page    3
 $STATUS9  LD          000029C6           00000001
 M1HALT9   LD          00002A3E           00000001
 MILCOM9   LD          00002B64           00000001
 SERVICE9  LD          00002B96           00000001
 FINDIDT9  LD          00002BC8           00000001
 ASGNIDT9  LD          00002C38           00000001
 FREEIDT9  LD          00002CC4           00000001
 GOFILE9   LD          00002D08           00000001
 GOTERM9   LD          00002E56           00000001
 GOPATH9   LD          00002F1A           00000001
 GOJES9    LD          00002FFE           00000001
 GONET9    LD          0000310C           00000001
 FILEHALT  ER 00000019
 M1FILE    ER 0000001A
 M1TERM    ER 0000001B
 M1PATH    ER 0000001C
 M1JES     ER 0000001D
 M1NET     ER 0000001E
 CLPSERV9  LD          00003298           00000001
 DSPSTAT   ER 0000001F
 LKOB      ER 00000020
 ACSPINF   ER 00000021
 LKREL     ER 00000022
 PAGPROT   ER 00000023
 VMFREE    ER 00000024
 ACINFO    ER 00000025
 PAGUPROT  ER 00000026
 FMANFINF  ER 00000027
 CPCAN     ER 00000028
 RTCAN     ER 00000029
 RTSET     ER 0000002A
 CACTRL    ER 0000002B
 FSADDVOL  ER 0000002C
 SENSE9    LD          00004030           00000001
 VMCHK     ER 0000002D
 PAGTPTP   ER 0000002E
 ACPUCHG   ER 0000002F
 CPCHK     ER 00000030
 RTCHK     ER 00000031
 TERUINF   ER 00000032
 FILEBLKI  ER 00000033
 XARMEM    ER 00000034
 GETSSYM9  LD          00004A3E           00000001
 PURSPB9   LD          00004B6E           00000001
 SET9      LD          00004D32           00000001
 ETUNDEF9  LD          00004DA0           00000001
 SET09     LD          00004DD2           00000001
 SET39     LD          00004EAE           00000001
 SET49     LD          00004F82           00000001
 SET59     LD          00005052           00000001
 SET89     LD          000050B4           00000001
 SET109    LD          00005144           00000001
 SET119    LD          00005242           00000001
 SET129    LD          0000528E           00000001
 SET139    LD          000052DE           00000001
 SET149    LD          000053BC           00000001
 SET159    LD          000054D8           00000001
 SET169    LD          00005652           00000001
 PAGUREF   ER 00000035
1M1SERV   External Symbol Dictionary                                                                                        Page    4
 CPSET     ER 00000036
 VMGETM    ER 00000037
 VMGETS    ER 00000038
 SET179    LD          000058B8           00000001
 SET189    LD          000059C6           00000001
 SET199    LD          00005ABE           00000001
 PERSET    ER 00000039
 MONSET    ER 0000003A
 SET209    LD          00005C66           00000001
 SET219    LD          00005DDA           00000001
 SET229    LD          00006012           00000001
 S21POST9  LD          000060D2           00000001
 S21CAN9   LD          00006142           00000001
 SET239    LD          00006228           00000001
 SET249    LD          0000627C           00000001
 SET299    LD          00006352           00000001
 SET309    LD          000063A6           00000001
 SET319    LD          00006566           00000001
 SET1509   LD          0000662E           00000001
 SET1519   LD          00006664           00000001
 SET1529   LD          000066A6           00000001
 SET1539   LD          0000678E           00000001
 SET1549   LD          00006876           00000001
 SET1559   LD          0000691C           00000001
 SETEXIT9  LD          0000697E           00000001
 VMUPDAT9  LD          00006A20           00000001
 ERCHECK9  LD          00006A6A           00000001
 ENQUEUE   ER 0000003B
 SYSRNEW   ER 0000003C
 DEQUEUE   ER 0000003D
 SYSRDO    ER 0000003E
 SYSRDEL   ER 0000003F
 PAGHASH   ER 00000040
 ACPINFO   ER 00000041
 FMCLSUDO  ER 00000042
 M1ENQ9    LD          00006D08           00000001
 $ENQHLT9  LD          000070B4           00000001
 $ENQTSK9  LD          000070FA           00000001
 SENSETD9  LD          00007242           00000001
 ENSETD29  LD          0000733A           00000001
 M1TIME    LD          000073DC           00000001
 M1GOWAIT  LD          00007430           00000001
 $GOFIRE9  LD          00007624           00000001
 M1CANWAI  LD          000076D0           00000001
 M1GOSTAT  LD          00007740           00000001
 VWTO      LD          000077D2           00000001
 $GOVWTO9  LD          000077DC           00000001
 VENQ      LD          00007802           00000001
 $GOVENQ9  LD          0000780C           00000001
 TRCD9     LD          00007834           00000001
 TCREATE   ER 00000043
 ENQHALT   ER 00000044
 REQUEUE   ER 00000045
 XITDO     ER 00000046
 TEXIT     ER 00000047
 AWAIT     ER 00000048
 XITDEL    ER 00000049
 EXRDEL    ER 0000004A
 SIGNAL    ER 0000004B
1M1SERV   External Symbol Dictionary                                                                                        Page    5

1M1SERV   ORVYL'S Mode 1 System Services                                                                                    Page    6
0Loc    Object Code    Addr1 Addr2  Stmt Lv Lineno    Source Statement                    (Asmedit 3.3)  HLASM R4.0  2004/03/22 09.42
+___    ______ ____    _____ _____  ____ __ ______    ______ _________
0                                      2       2.              COPY  HEADER
                                       3             =*********************************************************************
                                       4             =*                                                                   *
                                       5             =*                                                                   *
                                       6             =*                          M P - O R V Y L                          *
                                       7             =*                                                                   *
                                       8             =*       ORVYL - Release 5.0 - Class I - Stanford Proprietary        *
                                       9             =*                                                                   *
                                      10             =*                                                                   *
                                      11             =*********************************************************************
-
-                                     13             =         SPLEVEL SET=2
                                      16             =         HIBAL ASSOC=YES
-
                                     998             =*
                                     999             =* REGISTER CONVENTIONS (USE ONLY THE SYMBOLS)
                                    1000             =*
                                    1001             =*                     CLASS  USAGE
                                    1002             =*                     -----  -----------------------------
                                    1003             =RVR      REG   0        1    RETURN VALUE REGISTER
                                    1015             =RS       REG   1        *    SCRATCH
                                    1027             =RA       REG   2        *    SCRATCH
                                    1039             =RB       REG   3        *    SCRATCH
                                    1051             =RJ       REG   4        *    SCRATCH
                                    1063             =RK       REG   5        *    SCRATCH
                                    1075             =RX       REG   6        *    SCRATCH
                                    1087             =RY       REG   7        *    SCRATCH
                                    1099             =RM       REG   8        *    SCRATCH
                                    1111             =RN       REG   9        *    SCRATCH (In Guest)
                                    1123             =RTCBR    REG   9        -    POINTER TO THE RTCB (In Host)
                                    1135             =BR       REG   10       -    FIRST BASE REGISTER
                                    1147             =BRR      REG   11       -    SECOND BASE REGISTER
                                    1159             =WAR      REG   12       -    WORK AREA POINTER
                                    1171             =SPR      REG   13       -    STACK TOP POINTER
                                    1183             =RAR      REG   14       1    RETURN ADDRESS REGISTER
                                    1195             =EPAR     REG   15       1    ENTRY POINT ADDRESS
                                    1207             =*
                                    1208             =*      CLASS   MEANING
                                    1209             =*      -----   --------------------------------------------------
                                    1210             =*        *     Register may be freely used for scratch
                                    1211             =*        -     Register may not be used
                                    1212             =*        1     Available but may change on subroutine calls
                                    1213             =*
1M1SERV   ORVYL'S Mode 1 System Services                                                                                    Page    7
0D-Loc  Object Code    Addr1 Addr2  Stmt Lv Lineno    Source Statement           (Hibal 5, Asmedit 3.3)  HLASM R4.0  2004/03/22 09.42
+_____  ______ ____    _____ _____  ____ __ ______    ______ _________
0000000                00000 07A90  1215       3.     M1SERV   MODULE TRCNUM=9
                                    1225             +*
                                    1226    02-IDENT +         ENTRY M1SE00
                                    1227             +
 000000 14D4F1E2C5F0F06B            1228    02-IDENT +M1SE00   DC    AL1(20),C'M1SE00,22MAR04,09:42'
                                    1229             +*
-
                                    1232       5.              PRINT OFF                     PSA, CVT, ASCB
1M1SERV   (M1SE00) (09:42) (22MAR04) IHAPSAE  - PSA Extension (ESAME)                                                       Page    8
0Loc    Object Code    Addr1 Addr2  Stmt Lv Lineno    Source Statement           (Hibal 5, Asmedit 3.3)  HLASM R4.0  2004/03/22 09.42
+___    ______ ____    _____ _____  ____ __ ______    ______ _________
0000000                00000 0035F  4620      15.     SCVT     RECORD BEGIN
                                    4628  1   16.                SCIPCVT PFX=SCV
 000000                             4629  1 01-SCIPC +           DS    0F
 000000 E2C3C9D7                    4630  1 01-SCIPC +SCVIDENT   DC    C'SCIP'             Identify user CVT
 000004 00                          4631  1 01-SCIPC +SCVHSPFL   DC    X'00'               Flags
                                    4632  1 01-SCIPC +HSPFMIL    EQU   X'80'               - MILTEN is up and ready
                                    4633  1 01-SCIPC +HSPFWYL    EQU   X'40'               - WYLBUR is up and ready
                                    4634  1 01-SCIPC +HSPFORV    EQU   X'20'               - ORVYL  is up and ready
                                    4635  1 01-SCIPC +HSPFORVR   EQU   X'10'               - ORVYL2 is up and ready
                                    4636  1 01-SCIPC +HSPFINT    EQU   HSPFMIL+HSPFWYL+HSPFORV  - Our interactives are up
                                    4637  1 01-SCIPC +HSPFINTR   EQU   HSPFMIL+HSPFWYL+HSPFORVR  -  Their interactives are up
                                    4638  1 01-SCIPC +HSPFJES    EQU   X'02'               - JES2 is up and ready
                                    4639  1 01-SCIPC +HSPFSYST   EQU   X'01'               - Allow sys to bypass word (MILTEN)
                                    4640  1          +
 000005 00                          4641  1 01-SCIPC +SCVSYSFL   DC    X'00'               System flags
                                    4642  1 01-SCIPC +SCVFJES2   EQU   X'80'               - Stanford JES2 mods installed
                                    4643  1 01-SCIPC +SCVFCHRA   EQU   X'40'               - Stanford Christa is active
                                    4644  1 01-SCIPC +SCVFTRAC   EQU   X'01'               - RACF is doing tape protection
                                    4645  1          +
 000006 00                          4646  1 01-SCIPC +SCVMACH    DC    X'00'               Machine flags
                                    4647  1 01-SCIPC +SCVFSYSA   EQU   X'80'               - SYSA access allowed
                                    4648  1 01-SCIPC +SCVFSYSB   EQU   X'40'               - SYSB access allowed
                                    4649  1 01-SCIPC +SCVFSYSC   EQU   X'20'               - SYSC access allowed
                                    4650  1 01-SCIPC +SCVFSYSD   EQU   X'10'               - SYSD access allowed
                                    4651  1 01-SCIPC +SCVFSYSE   EQU   X'08'               - SYSE access allowed
                                    4652  1 01-SCIPC +SCVFSYSF   EQU   X'04'               - SYSF access allowed
                                    4653  1          +
 000007 00                          4654  1 01-SCIPC +           DC    X'00'               Reserved
                                    4655  1          +
 000008 00000000                    4656  1 01-SCIPC +SCVDSPTM   DC    A(0)  **NO TOUCH**  SVS dispatcher clock pointer
 00000C 0000                        4657  1 01-SCIPC +SCVMILCT   DC    H'0'                No. of users signed on MILTEN
 00000E 00                          4658  1 01-SCIPC +SCVINTJB   DC    X'0'                Active batch-interactive job count
 00000F 00                          4659  1 01-SCIPC +SCVBLOCK   DC    X'0'                Current time block (set by JES)
 000010 00000000                    4660  1 01-SCIPC +SCVJESDB   DC    A(0)                Ptr to JES display buffers
 000014 00000000                    4661  1 01-SCIPC +SCVMACTQ   DC    A(0)                MILSERV active request queue
 000018 00000000                    4662  1 01-SCIPC +SCVMFREQ   DC    A(0)                MILSERV free   request queue
 00001C 0000000000000000            4663  1 01-SCIPC +SCVIPLTM   DC    XL8'00'             STCK clock at ipl  (set by JES)
 000024 00000000                    4664  1 01-SCIPC +SCVSUZBR   DC    A(0)                SUZAN Branch entry point
 000028 00000000                    4665  1 01-SCIPC +SCVTAPE    DC    A(0)                Ptr to tape UCB addr list (JES)
 00002C 00000000                    4666  1 01-SCIPC +SCVDASD    DC    A(0)                Ptr to DASD UCB addr list (JES)
 000030 00000000                    4667  1 01-SCIPC +SCVSUZCP   DC    A(0)                SUZAN production control table
 000034 00000000                    4668  1 01-SCIPC +SCVSUZCT   DC    A(0)                SUZAN test control table
 000038 00000000                    4669  1 01-SCIPC +SCVQSVT    DC    A(0)                QSERV SVC vector table
 00003C 0000                        4670  1 01-SCIPC +SCVNIZH1   DC    H'0'                Orvyl SIE debugging (see GSTSERV)
 00003E 0000                        4671  1 01-SCIPC +SCVNIZH2   DC    H'0'                Orvyl SIE debugging (see GSTSERV)
 000040 00000000                    4672  1 01-SCIPC +SCVGORIL   DC    A(0)                Ptr for CUNY DFP DADSM Exit
 000044 00000000                    4673  1 01-SCIPC +SCVTLMSQ   DC    A(0)                Ptr to TLMS Q parm table
 000048 00000000                    4674  1 01-SCIPC +SCVACCES   DC    A(0)                Ptr to access SVC stat area
                                    4675  1          +
 00004C 00000000                    4676  1 01-SCIPC +SCVMASCB   DC    A(0)                MILTEN ASCB ptr
 000050 00000000                    4677  1 01-SCIPC +SCVMGINP   DC    A(0)                MILTEN Global Info ptr
 000054 00000000                    4678  1 01-SCIPC +SCVMSITP   DC    A(0)                MILTEN Sess Info table ptr
 000058 00000000                    4679  1 01-SCIPC +SCVMNSIN   DC    A(0)                MILTEN SIN - max no. of entries
 00005C 00000000                    4680  1 01-SCIPC +SCVACTR    DC    A(0)                Session tag counter
 000060 00000000                    4681  1 01-SCIPC +SCVADATE   DC    A(0)                Date when counter was last incr'd
                                    4682  1          +
1M1SERV   (M1SE00) (09:42) (22MAR04) IHAPSAE  - PSA Extension (ESAME)                                                       Page    9
0Loc    Object Code    Addr1 Addr2  Stmt Lv Lineno    Source Statement           (Hibal 5, Asmedit 3.3)  HLASM R4.0  2004/03/22 09.42
+___    ______ ____    _____ _____  ____ __ ______    ______ _________
0000064 0000000000000000            4683  1 01-SCIPC +SCVBLKCK   DC    XL8'00'             STCK at time block change
 00006C                             4684  1 01-SCIPC +SCVMILNM   DS    CL8                 MILTEN jobname (zeros=not init'd)
                                    4685  1          +
 000074 0000000000000000            4686  1 01-SCIPC +SCVWORD    DC    XL8'00'             System word (to limit access)
 00007C 00000000                    4687  1 01-SCIPC +SCVMSGCK   DC    F'0'                Clock (hi-word) when msg was set
 000080 0000000000000000            4688  1 01-SCIPC +SCVMSG     DC    XL235'00'           System message (or x'00's)
                                    4689  1          +
 00016B 00                          4690  1 01-SCIPC +           DC    X'00'               Reserved
                                    4691  1          +
 00016C 00000000                    4692  1 01-SCIPC +SCVWMON    DC    A(0)                WYLBUR monitor block queue
 000170 00000000                    4693  1 01-SCIPC +           DC    F'0'                Counter for CDS
                                    4694  1          +
 000174 0000000000000000            4695  1 01-SCIPC +           DC    XL241'00'           Reserved
 000265 0000000000000000            4696  1 01-SCIPC +           DC    XL250'00'           Reserved
 00035F                0035F 0035F  4697      17.              END   ,
1M1SERV   (M1SE00) (09:42) (22MAR04) IHAPSAE  - PSA Extension (ESAME)                                                       Page   10
0Loc    Object Code    Addr1 Addr2  Stmt Lv Lineno    Source Statement           (Hibal 5, Asmedit 3.3)  HLASM R4.0  2004/03/22 09.42
+___    ______ ____    _____ _____  ____ __ ______    ______ _________
0                                   4707      19.              COPY  PZERO
 000000                00000 00280  4708             =PZERO    RECORD BEGIN
                                    4716  1          =*
                                    4717  1          =* Real Page 0.  Each CPU has its own copy of this area.
                                    4718  1          =*
-                                   4720  1          =****************************************************************
                                    4721  1          =*               Fields Fixed by the Architecture               *
                                    4722  1          =*               ********************************               *
                                    4723  1          =*                                                              *
 000000                             4724  1          =PZRSNPSW   DS    D             Restart new PSW                 *
 000008                             4725  1          =PZRSOPSW   DS    D             Restart old PSW                 *
 000010                             4726  1          =           DS    D                                             *
 000018                             4727  1          =PZEXOPSW   DS    D             External old PSW                *
 000020                             4728  1          =PZSVOPSW   DS    D             Supervisor old PSW              *
 000028                             4729  1          =PZPIOPSW   DS    D             Program old PSW                 *
 000030                             4730  1          =PZMCOPSW   DS    D             Machine check old PSW           *
 000038                             4731  1          =PZIOOPSW   DS    D             I/O old PSW                     *
 000040                             4732  1          =           DS    3D                                            *
 000058                             4733  1          =PZEXNPSW   DS    D             External new PSW                *
 000060                             4734  1          =PZSVNPSW   DS    D             Supervisor new PSW              *
 000068                             4735  1          =PZPINPSW   DS    D             Program new PSW                 *
 000070                             4736  1          =PZMCNPSW   DS    D             Machine check new PSW           *
 000078                             4737  1          =PZIONPSW   DS    D             I/O new PSW                     *
 000080                             4738  1          =           DS    F                                             *
 000084                             4739  1          =PZEXCPU    DS    H             CPU address for EXT int         *
 000086                             4740  1          =PZEXIC     DS    H             External interrupt code         *
 000088                             4741  1          =PZSVILC    DS    H             Supervisor call ILC             *
 00008A                             4742  1          =PZSVIC     DS    H             Supervisor interrupt code       *
 00008C                             4743  1          =PZPIILC    DS    H             Program ILC                     *
 00008E                             4744  1          =PZPIIC     DS    H             Program interrupt code          *
 000090                             4745  1          =PZTREXA    DS    A             Translation exception address   *
 000094                             4746  1          =PZMONCL    DS    H             Monitor Class number            *
 000096                             4747  1          =PZPERCD    DS    H             PER code                        *
 000098                             4748  1          =PZPERA     DS    A             PER Address                     *
 00009C                             4749  1          =PZMONCD    DS    A             Monitor Code                    *
 0000A0                             4750  1          =           DS    3D                                            *
 0000B8                             4751  1          =PZIOSID    DS    A             I/O subsystem ID word           *
 0000BC                             4752  1          =PZIOPRM    DS    A             I/O Parameter                   *
 0000C0                             4753  1          =PZIOSCS    DS    A             I/O subchannel ending status    *
 0000C4                             4754  1          =           DS    A                                             *
 0000C8                             4755  1          =           DS    39D                                           *
                                    4756  1          =*                                                              *
                                    4757  1          =*            ***************************************           *
                                    4758  1          =*            End of Fields fixed by the architecture           *
                                    4759  1          =****************************************************************
1M1SERV   (M1SE00) (09:42) (22MAR04) IHAPSAE  - PSA Extension (ESAME)                                                       Page   11
0D-Loc  Object Code    Addr1 Addr2  Stmt Lv Lineno    Source Statement           (Hibal 5, Asmedit 3.3)  HLASM R4.0  2004/03/22 09.42
+_____  ______ ____    _____ _____  ____ __ ______    ______ _________
0                                   4761  1          =*
                                    4762  1          =* Fields of general interest
                                    4763  1          =*
 000200                             4764  1          =PZMATP     DS    A             Address of the MAT
 000204                             4765  1          =           DS    A             ** Reserved **
 000208                             4766  1          =PZCURPID   DS    0D            Unique ID of the current process
 000208                             4767  1          =PZCURASB   DS    A             Addr of ASB for current Address space
 00020C                             4768  1          =PZCURTSK   DS    A             ID of current task in the Address space
 000210                             4769  1          =PZLCPUA    DS    A             Logical CPU address
 000214                             4770  1          =PZCPUMSK   DS    A             CPU address mask bit
 000218                             4771  1          =PZPSWM     DS    X             PSW mask for disabling
 000219                             4772  1          =           DS    X             ** Reserved **
                                    4773  1          =*
                                    4774  1          =* Termination/Trace information
                                    4775  1          =*
 00021A 00                          4776  1          =PZTERMFL   FLAG  ,             Termination flags
 PZTERMFL.PZABORT  80 ONES          4780  1          =           FLAG  PZABORT         ABORT macro issued
 PZTERMFL.PZATERM  40 ONES          4785  1          =           FLAG  PZATERM         Start termination processing
 00021B                             4790  1          =PZABSM     DS    X             Save area for system mask in ABORT
 00021C                             4791  1          =PZABR15    DS    A             Save area for R15 in an ABORT
 000220                             4792  1          =PZTZOFF    DS    D             Time zone offset
 000228                             4793  1          =           DS    22A           ** Reserved **
                                    4794  1          =*         DS    24A           ** Reserved **
 000280                00280 00280  4795             =         END   ,
 USING  PZERO,R0                    4804      20.              USING PZERO,R0
1M1SERV   (M1SE00) (09:42) (22MAR04) IHAPSAE  - PSA Extension (ESAME)                                                       Page   12
0Current Usings:  (PZERO,R0)
0Loc    Object Code    Addr1 Addr2  Stmt Lv Lineno    Source Statement           (Hibal 5, Asmedit 3.3)  HLASM R4.0  2004/03/22 09.42
+___    ______ ____    _____ _____  ____ __ ______    ______ _________
0                                   4814      22.              COPY  MAT
                                    4815             =*****************************************************************
                                    4816             =*                                                               *
                                    4817             =*        *** M A S T E R   A D D R E S S   T A B L E ***        *
                                    4818             =*                                                               *
                                    4819             =*****************************************************************
-000000                00000 00100  4821             =MAT      RECORD BEGIN
                                    4829  1          =MATPTR     EQU   X'200',4,C'A' Address of the MAT in PZERO
 000000 D4C1E340                    4830  1          =           DC    CL4'MAT'      Control block ID
                                    4831  1          =*
                                    4832  1          =* Addresses of global control blocks
                                    4833  1          =*
 000004                             4834  1          =MATVMCB    DS    A             Virtual memory control block
 000008                             4835  1          =MATDCT     DS    A             Dispatcher control table
 00000C                             4836  1          =MATPAGCB   DS    A             Real memory control block
 000010                             4837  1          =MATM1CT    DS    A             CT for Mode 1 users
 000014                             4838  1          =MATLCT     DS    A             Lock manager control table
 000018                             4839  1          =MATQCT     DS    A             Queue manager control table
 00001C                             4840  1          =MATIOCB    DS    A             I/O Manager control block
 000020                             4841  1          =MATSBWB    DS    A             System buffer wait blocks
 000024                             4842  1          =MATGTCT    DS    A             Terminal global control table
 000028                             4843  1          =MATFILCB   DS    A             File master control table
 00002C                             4844  1          =MATJESCB   DS    A             JES master control table
 000030                             4845  1          =MATSYSCB   DS    A             System task control table
 000034                             4846  1          =MATACCT    DS    A             Accounting control table
 000038                             4847  1          =MATGRCT    DS    A             General Resource control table
 00003C                             4848  1          =MATGNCT    DS    A             Global Network Control table
 000040                             4849  1          =MATTECB    DS    D             Termination wait ECB
 000048                             4850  1          =           DS    25A           Reserved
                                    4851  1          =*
                                    4852  1          =* Control Block Chains
                                    4853  1          =*
 0000AC                             4854  1          =MATASBS    DS    A             Pointer to chain of ASBs
 0000B0                             4855  1          =MATASBL    DS    A             Id of suspend lock for ASB chain
 0000B4                             4856  1          =           DS    8A            **  RESERVED
                                    4857  1          =*
                                    4858  1          =* Control information
                                    4859  1          =*
 0000D4                             4860  1          =MATSNAME   DS    CL8           System Name
 0000DC                             4861  1          =MATPAGFN   DS    A             Current value of the Paging function
 0000E0                             4862  1          =MATSKEY    DS    X             SYSTEM storage key (in high 4 bits)
 0000E1                             4863  1          =MATUKEY    DS    X             USER storage key
                                    4864= 1          =
                                    4865= 1          =             Information about the Kernel
                                    4866= 1          =
 0000E4                             4867  1          =MATKSTRT   DS    A             Starting address of the Kernel
 0000E8                             4868  1          =MATKMAP    DS    A             Address of the Kernel map
 0000EC                             4869  1          =MATKMAPL   DS    A             Length of the Kernel map
1M1SERV   (M1SE00) (09:42) (22MAR04) IHAPSAE  - PSA Extension (ESAME)                                                       Page   13
0Current Usings:  (PZERO,R0)
0Loc    Object Code    Addr1 Addr2  Stmt Lv Lineno    Source Statement           (Hibal 5, Asmedit 3.3)  HLASM R4.0  2004/03/22 09.42
+___    ______ ____    _____ _____  ____ __ ______    ______ _________
0                                   4870= 1          =
                                    4871= 1          =             Failsoft information.
                                    4872= 1          =
 0000F0                             4873  1          =MATNCLPE   DS    F             Number of CLP errors
 0000F4                             4874  1          =MATNFAIL   DS    F             Number of failsofts
 0000F8                             4875  1          =           DS    2A            Reserved
 000100                00100 00100  4876             =         END
1M1SERV   (M1SE00) (09:42) (22MAR04) IHAPSAE  - PSA Extension (ESAME)                                                       Page   14
0Current Usings:  (PZERO,R0)
0Loc    Object Code    Addr1 Addr2  Stmt Lv Lineno    Source Statement           (Hibal 5, Asmedit 3.3)  HLASM R4.0  2004/03/22 09.42
+___    ______ ____    _____ _____  ____ __ ______    ______ _________
0                                   4886      24.              COPY  ASB
 000000                00000 00044  4887             =ASB      RECORD BEGIN
 000000 C1E2C240                    4895  1          =ASBID      DC    CL4'ASB'
 000004                             4896  1          =ASBNEXT    DS    A                       Next ASB in system
                                    4897  1          =*
                                    4898  1          =*  Load Address Space Parameters area
                                    4899  1          =*
 000008                             4900  1          =ASBLASP    DS    0D                      Load Addr Space Parms
 000008                             4901  1          =ASBPKM     DS    H                       Program Key Mask
 00000A                             4902  1          =ASBSASN    DS    H                       Secondary ASN
 00000C                             4903  1          =ASBAX      DS    H                       Authorization index
 00000E                             4904  1          =ASBPASN    DS    H                       Primary ASN
                                    4905  1          =ASBLPARM   EQU   3                       LASP parameter
                                    4906  1          =
 000010                             4907  1          =ASBSASB    DS    A                       Address of secondary ASB
 000014 00                          4908  1          =ASBGCFLG   FLAG  ,
 ASBGCFLG.ASBFGBLC 80 ONES          4912  1          =           FLAG  ASBFGBLC                This is ASB for global/common
 000015                             4917  1          =           DS    3X                      - Available -
                                    4918  1          =*
                                    4919  1          =*  Related control blocks
                                    4920  1          =*
 000018                             4921  1          =ASBVSCT    DS    A                       VSCT for the Address space
 00001C                             4922  1          =ASBASDB    DS    A                       AS dispatching block
 000020                             4923  1          =ASBPAGB    DS    A                       AS paging block
 000024                             4924  1          =ASBIOB     DS    A                       AS I/O block
 000028                             4925  1          =ASBENQ     DS    A                       AS Enqueue table
 00002C                             4926  1          =ASBM1SCP   DS    A                       Mode 1 SCP
 000030                             4927  1          =ASBTCCB    DS    A                       Terminal Control block
 000034                             4928  1          =ASBAIB     DS    A                       Accouting information
 000038                             4929  1          =ASBASFB    DS    A                       File services control block
 00003C                             4930  1          =ASBMSTR    DS    A                       AS Master Control block
 000040                             4931  1          =ASBNET     DS    A                       Local Network Control Block
                                    4932  1          =*ASBLW    DS    A     ** Temp RESMAN ** Lock waiting for
                                    4933  1          =*ASBLH    DS    A     ** Temp RESMAN ** Lock held
 000044                00044 00044  4934             =         END   ,
1M1SERV   (M1SE00) (09:42) (22MAR04) IHAPSAE  - PSA Extension (ESAME)                                                       Page   15
0Current Usings:  (PZERO,R0)
0Loc    Object Code    Addr1 Addr2  Stmt Lv Lineno    Source Statement           (Hibal 5, Asmedit 3.3)  HLASM R4.0  2004/03/22 09.42
+___    ______ ____    _____ _____  ____ __ ______    ______ _________
0                                   4944      26.              COPY  PARMPARM
                                    4945             =*********************************************************************
                                    4946             =*                                                                   *
                                    4947             =*          Parameters to obtain initialization parameters           *
                                    4948             =*                                                                   *
                                    4949             =*********************************************************************
0000000                00000 00010  4951             =@PARMDO  RECORD BEGIN
 000000                             4959  1          =@PARILOC   DS    A                       Input location
 000004                             4960  1          =@PARILEN   DS    A                       | length
 000008                             4961  1          =@PAROLOC   DS    A                       Output location
 00000C                             4962  1          =@PAROLEN   DS    A                       | length
 000010                00010 00010  4963             =         END   ,
0000000                00000 00004  4973             =PARMIN   RECORD BEGIN
 000000 00                          4981  1          =PARMTYPE   FLAG  ,
 PARMTYPE.PARMFSTR 00 EQ            4985  1          =           FLAG  (PARMFSTR,0,EQ)         Return a string
 PARMTYPE.PARMFINT 04 EQ            4995  1          =           FLAG  (PARMFINT,4,EQ)         Return an integer
 PARMTYPE.PARMFYN  08 EQ            5005  1          =           FLAG  (PARMFYN,8,EQ)          Return Yea or Nay
 PARMTYPE.PARMFFLT 0C EQ            5015  1          =           FLAG  (PARMFFLT,12,EQ)        Return a floating point
 000001                             5025  1          =           DS    3X                      - Available -
 000004                             5026  1          =PARMKEYS   DS    0A                      Start of 8 byte keys
 000004                00004 00004  5027             =         END   ,
-
                                    5037      28.              COPY  VMPARM
                                    5038             =*******************************************************************
                                    5039             =*                                                                 *
                                    5040             =*    Memory parms for inside the virtual machine.                 *
                                    5041             =*                                                                 *
                                    5042             =*******************************************************************
-000000                00000 0000B  5044             =@VMGET   RECORD BEGIN        Parm area for getting virtual memory
 000000                             5052  1          =@VMGLEN    DS    A             Amount of memory needed
 000004                             5053  1          =@VMGDAT    DS    A             More data. Address or maxlen.
 000008                             5054  1          =@VMGPOOL   DS    H             Pool/Subpool to get the memory from
 00000A 00                          5055  1          =@VMGFLG    FLAG  ,
 @VMGFLG.@VMGPAGE  80 ONES          5059  1          =           FLAG  @VMGPAGE      Page Aligned
 @VMGFLG.@VMGONEP  40 ONES          5064  1          =           FLAG  @VMGONEP      Don't cross page boundary
 00000B                0000B 0000B  5069             =         END   ,
-000000                00000 0000A  5079             =@VMFREE  RECORD BEGIN        Used for VMFREE and VMCHECK
 000000                             5087  1          =@VMFLOC    DS    A             Location of the storage to free
 000004                             5088  1          =@VMFLEN    DS    A             Amount to free
 000008                             5089  1          =@VMFPOOL   DS    H             Pool/Subpool where the storage lives
 00000A                0000A 0000A  5090             =         END   ,
-000000                00000 00009  5100             =@VMINFO  RECORD BEGIN        Returns User address limits/hash val
 000000                             5108  1          =@VMIUST    DS    A             Start of the user address space
 000004                             5109  1          =@VMIULEN   DS    A             Length of the user address space
1M1SERV   (M1SE00) (09:42) (22MAR04) IHAPSAE  - PSA Extension (ESAME)                                                       Page   16
0Current Usings:  (PZERO,R0)
0Loc    Object Code    Addr1 Addr2  Stmt Lv Lineno    Source Statement           (Hibal 5, Asmedit 3.3)  HLASM R4.0  2004/03/22 09.42
+___    ______ ____    _____ _____  ____ __ ______    ______ _________
0000008                             5110  1          =@VMITRSH   DS    X             Trash value
 000009                00009 00009  5111             =         END   ,
1M1SERV   (M1SE00) (09:42) (22MAR04) IHAPSAE  - PSA Extension (ESAME)                                                       Page   17
0Current Usings:  (PZERO,R0)
0Loc    Object Code    Addr1 Addr2  Stmt Lv Lineno    Source Statement           (Hibal 5, Asmedit 3.3)  HLASM R4.0  2004/03/22 09.42
+___    ______ ____    _____ _____  ____ __ ______    ______ _________
0                                   5121      30.              COPY  PAGEPARM
                                    5122             =*
                                    5123             =*  Page fault return codes
                                    5124             =*
                                    5125             =@PFRINP  EQU   0                       Fault in progress
                                    5126             =@PFRADDR EQU   4                       Addressing exception
                                    5127             =@PFROK   EQU   8                       Fault resolved
                                    5128             =@PFRWAIT EQU   12                      Must wait for some resource
0000000                00000 00005  5130             =@PAGSWAP RECORD BEGIN
 000000                             5138  1          =@SWASB     DS    A                       Address of ASB being swapped
                                    5139  1          =* -- Return parameters --
 000004 00                          5140  1          =@SWFLG     FLAG  ,
 @SWFLG.@SWFINP    00 EQ            5144  1          =           FLAG  (@SWFINP,0,EQ)          Swap in progress
 @SWFLG.@SWFOK     04 EQ            5154  1          =           FLAG  (@SWFOK,4,EQ)           Swap done now
 @SWFLG.@SWFWAIT   08 EQ            5164  1          =           FLAG  (@SWFWAIT,8,EQ)         Must wait for some resource
 000005                00005 00005  5174             =         END   ,
0000000                00000 00004  5184             =@PAGSWADV RECORD BEGIN                 Give swap advice
 000000                             5192  1          =@ADVASB    DS    A                       ASB of advice
 000004                00004 00004  5193             =         END   ,
0000000                00000 0000D  5203             =@PAGWSMA RECORD BEGIN                  Working Set management
 000000                             5211  1          =@WSASB     DS    A                       ASB of AS to be managed
 000004                             5212  1          =@WSINT     DS    A                       Number of elapsed intervals
 000008                             5213  1          =@WSLIMIT   DS    A                       Maximum number of frames
 00000C 00                          5214  1          =@WSFLG     FLAG  ,
 @WSFLG.@WSFGLOB   80 ONES          5218  1          =           FLAG  @WSFGLOB                Manage Global AS
 00000D                0000D 0000D  5223             =         END   ,
0000000                00000 0000A  5233             =@PAGDEF  RECORD BEGIN                  Define a page
 000000                             5241  1          =@PDADDR    DS    A                       Page VA
 000004                             5242  1          =@PDLEN     DS    A                       Length of definition (bytes)
 000008                             5243  1          =@PDKEY     DS    X                       Storage key (+ key protect)
                                    5244  1          =* @PDHASH  DS    X                       Hash value for page
 000009 00                          5245  1          =@PDF1      FLAG  @PDFGLOB                In global memory
 @PDF1.@PDFGLOB    80 ONES
 @PDF1.@PDFPROT    40 ONES          5251  1          =           FLAG  @PDFPROT                Page table protection
 00000A                0000A 0000A  5256             =         END   ,
0000000                00000 0000A  5266             =@PAGSEGD RECORD BEGIN                  Define a segment
 000000                             5274  1          =@SDADDR    DS    A                       Segment address
 000004                             5275  1          =@SDLEN     DS    A                       Length of definition (bytes)
 000008                             5276  1          =@SDHASH    DS    X                       Hash value for segment
 000009 00                          5277  1          =@SDF1      FLAG  @SDFGLOB                In global memory
 @SDF1.@SDFGLOB    80 ONES
 00000A                0000A 0000A  5283             =         END   ,
0000000                00000 00008  5293             =@PAGASC1 RECORD BEGIN
 000000                             5301  1          =@ASCASB    DS    A                       ASB for AS being created
 000004                             5302  1          =@ASCWSLM   DS    A                       Maximum size of working set
 000008                00008 00008  5303             =         END   ,
0000000                00000 00005  5313             =@PAGASC2 RECORD BEGIN                  Address space creation
1M1SERV   (M1SE00) (09:42) (22MAR04) IHAPSAE  - PSA Extension (ESAME)                                                       Page   18
0Current Usings:  (PZERO,R0)
0Loc    Object Code    Addr1 Addr2  Stmt Lv Lineno    Source Statement           (Hibal 5, Asmedit 3.3)  HLASM R4.0  2004/03/22 09.42
+___    ______ ____    _____ _____  ____ __ ______    ______ _________
0000000                             5321  1          =@ASCVA     DS    A                       Virtual address of 1st PT
 000004                             5322  1          =@ASCKEY    DS    X                       Storage key (+ key protect)
 000005                00005 00005  5323             =         END   ,
0000000                00000 00009  5333             =@PAGE    RECORD BEGIN                  General paging routine parms
 000000                             5341  1          =@PAGLOC    DS    A                       Virtual address
 000004                             5342  1          =@PAGLEN    DS    A                       Length (in bytes)
 000008                             5343  1          =@PAGKEY    DS    X                       Key - where required
                                    5344  1          =@PAGHASH   EQU   @PAGKEY                 Hash - where required
 000009                00009 00009  5345             =         END   ,
0000000                00000 00008  5355             =@PAGRV   RECORD BEGIN                  Real to virtual translation
 000000                             5363  1          =@PAGRVAD   DS    A                       Real addr to be translated
                                    5364  1          =* -- Return parms --
 000004                             5365  1          =@PAGRVASB   DS   A                       Address space block
 000008                00008 00008  5366             =         END   ,
0000000                00000 00004  5376             =@PAGINTV RECORD BEGIN                  Paging management interval
 000000                             5384  1          =@PAGINT    DS    A                       Number of intervals in cycle
 000004                00004 00004  5385             =         END   ,
0000000                00000 00008  5395             =@PAGINIT RECORD BEGIN                  Global initialization
 000000                             5403  1          =@PAGIASB   DS    A                       Global ASB address
 000004                             5404  1          =@PAGIMEG   DS    A                       Maximum number of bytes in VA
 000008                00008 00008  5405             =         END   ,
1M1SERV   (M1SE00) (09:42) (22MAR04) IHAPSAE  - PSA Extension (ESAME)                                                       Page   19
0Current Usings:  (PZERO,R0)
0Loc    Object Code    Addr1 Addr2  Stmt Lv Lineno    Source Statement           (Hibal 5, Asmedit 3.3)  HLASM R4.0  2004/03/22 09.42
+___    ______ ____    _____ _____  ____ __ ______    ______ _________
0                                   5415      32.              COPY  DISPPARM
                                    5416             =*****************************************************************
                                    5417             =*                                                               *
                                    5418             =*  DISPPARM -- Parameters for the dispatcher global routines.   *
                                    5419             =*                                                               *
                                    5420             =*****************************************************************
-                                   5422             =*
                                    5423             =* Routines to indicate completion of a page or swap I/O
                                    5424             =*
 000000                00000 00004  5425             =@DISPPIOC RECORD BEGIN                 Page I/O completion parms
 000000                             5433  1          =@DPIOASB   DS    A                       ASB of completing I/O
 000004                00004 00004  5434             =         END   ,
0000000                00000 00004  5444             =@DISPSIOC RECORD BEGIN                 Swap I/O completion parms
 000000                             5452  1          =@DSIOASB   DS    A                       ASB of completing I/O
 000004                00004 00004  5453             =         END   ,
-                                   5463             =*
                                    5464             =* SUSPEND parameters
                                    5465             =*
0000000                00000 00009  5467             =@SUSPEND RECORD BEGIN
 000000                             5475  1          =@SUSPCTL   DS    0D            ID of the Control level suspended
 000000                             5476  1          =@SUSPID    DS    A             ID of the task/address space suspended
 000004                             5477  1          =@SUSPLC    DS    A             For tasks: Level of control suspended
 000008 00                          5478  1          =@SUSPFLG   FLAG  ,
 @SUSPFLG.@SUSPLNG 80 ONES          5482  1          =           FLAG  @SUSPLNG      This will be of long duration
 @SUSPFLG.@SUSPAS  40 ONES          5487  1          =           FLAG  @SUSPAS       Suspend the entire address space
 @SUSPFLG.@SUSPPLC 20 ONES          5492  1          =           FLAG  @SUSPPLC      Suspend previous level of control
 000009                00009 00009  5497             =         END   ,
-                                   5507             =*
                                    5508             =* RESUMAS/RESUMTS parameters
                                    5509             =*
0000000                00000 00008  5511             =@RESUME  RECORD BEGIN
 000000                             5519  1          =@RESCTL    DS    0D            ID of the unit of work to be resumed
 000000                             5520  1          =@RESUNIT   DS    A             Address of the ASB/task Id to resume
 000004                             5521  1          =@RESLC     DS    A             Level of control in a task
 000008                00008 00008  5522             =         END   ,
-                                   5532             =*
                                    5533             =* DISPSHLD/DISPSREL parmameters
                                    5534             =*
0000000                00000 00004  5536             =@DISPSWP RECORD BEGIN
 000000                             5544  1          =@DISPSAS   DS    A             Address of the ASB being manipulated
 000004                00004 00004  5545             =         END   ,
1M1SERV   (M1SE00) (09:42) (22MAR04) IHAPSAE  - PSA Extension (ESAME)                                                       Page   20
0Current Usings:  (PZERO,R0)
0Loc    Object Code    Addr1 Addr2  Stmt Lv Lineno    Source Statement           (Hibal 5, Asmedit 3.3)  HLASM R4.0  2004/03/22 09.42
+___    ______ ____    _____ _____  ____ __ ______    ______ _________
0                                   5555             =*
                                    5556             =* ACREATE parameters
                                    5557             =*
0000000                00000 00008  5559             =@ACREATE RECORD BEGIN
 000000                             5567  1          =@ACRPSW    DS    D             Instruction address for task
 000008                00008 00008  5568             =         END   ,
-                                   5578             =*
                                    5579             =* TCREATE parameters
                                    5580             =*
0000000                00000 00015  5582             =@TCREATE RECORD BEGIN
 000000                             5590  1          =@TCRPSW    DS    D             Initial PSW for the task
 000008                             5591  1          =@TCRPARM   DS    2A            Parameter for the task
 000010                             5592  1          =@TCRPRIO   DS    A             Adjustment to priority from Current task
 000014 00                          5593  1          =@TCRFLAG   FLAG  ,             Task creation flags
 @TCRFLAG.@TCRFSTK 80 ONES          5597  1          =           FLAG  @TCRFSTK        Task entered with a stack
 @TCRFLAG.@TCRFPAB 40 ONES          5602  1          =           FLAG  @TCRFPABS       Prio is absolute
 000015                00015 00015  5607             =         END   ,
-                                   5617             =*
                                    5618             =* TREMOVE parameters
                                    5619             =*
0000000                00000 00004  5621             =@TREMOVE RECORD BEGIN
 000000                             5629  1          =@TREID     DS    A             ID of the task to be removed
 000004                00004 00004  5630             =         END   ,
-                                   5640             =*
                                    5641             =* TENTRY Parameters  (on entry to a created task)
                                    5642             =*
0000000                00000 00008  5644             =@TENTRY  RECORD BEGIN
 000000                             5652  1          =@TEPARM    DS    2A            Entry parm for the task
 000008                00008 00008  5653             =         END   ,
-                                   5663             =*
                                    5664             =* TEXIT parameters
                                    5665             =*
0000000                00000 00004  5667             =@TEXIT   RECORD BEGIN
 000000                             5675  1          =           DS    A             Not used
 000004                00004 00004  5676             =         END   ,
-                                   5686             =*
                                    5687             =* SYSRNEW -- Get a new SYSR ID
                                    5688             =*
1M1SERV   (M1SE00) (09:42) (22MAR04) IHAPSAE  - PSA Extension (ESAME)                                                       Page   21
0Current Usings:  (PZERO,R0)
0Loc    Object Code    Addr1 Addr2  Stmt Lv Lineno    Source Statement           (Hibal 5, Asmedit 3.3)  HLASM R4.0  2004/03/22 09.42
+___    ______ ____    _____ _____  ____ __ ______    ______ _________
0000000                00000 00004  5690             =@SYSRNEW RECORD BEGIN
 000000                             5698  1          =           DS    A             Not used
 000004                00004 00004  5699             =         END   ,
-                                   5709             =*
                                    5710             =* SYSRDEL -- Delete a previous SYSR ID
                                    5711             =*
 000000                00000 00004  5712             =@SYSRDEL RECORD BEGIN
 000000                             5720  1          =@SYSRDID   DS    A             Id of the SYSR
 000004                00004 00004  5721             =         END   ,
-                                   5731             =*
                                    5732             =* SYSRDO -- Schedule a system routine to run in another address space
                                    5733             =*
0000000                00000 0001C  5735             =@SYSRDO  RECORD BEGIN
 000000                             5743  1          =@SYSRID    DS    A             Id from SYSRNEW
 000004                             5744  1          =@SYSRASB   DS    A             ASB of the Address space where it goes
 000008                             5745  1          =@SYSRLOC   DS    A             Location of the system routine
 00000C                             5746  1          =@SYSRPRM   DS    4A            Parameters for the routine
 00001C                0001C 0001C  5747             =         END   ,
-                                   5757             =*
                                    5758             =* SYSRTN -- Parameter passed to a system routine
                                    5759             =*
0000000                00000 00010  5761             =@SYSRTN  RECORD BEGIN
 000000                             5769  1          =@SYSPARS   DS    4A            Parameters
 000010                00010 00010  5770             =         END   ,
-                                   5780             =*
                                    5781             =* PERSET -- Set the Per registers
                                    5782             =*
0000000                00000 0000C  5784             =@PERSET  RECORD BEGIN
 000000                             5792  1          =@PERSDAT   DS    3F            3 Registers (corresponds to CRs 9-11)
 00000C                0000C 0000C  5793             =         END   ,
-                                   5803             =*
                                    5804             =* MONSET -- Set the MON masks
                                    5805             =*
0000000                00000 00002  5807             =@MONSET  RECORD BEGIN
 000000                             5815  1          =@MONSDAT   DS    H             Monitor Class Mask
 000002                00002 00002  5816             =         END   ,
-                                   5826             =*
                                    5827             =* DSPSTAT -- Return Dispatcher Statistics
1M1SERV   (M1SE00) (09:42) (22MAR04) IHAPSAE  - PSA Extension (ESAME)                                                       Page   22
0Current Usings:  (PZERO,R0)
0Loc    Object Code    Addr1 Addr2  Stmt Lv Lineno    Source Statement           (Hibal 5, Asmedit 3.3)  HLASM R4.0  2004/03/22 09.42
+___    ______ ____    _____ _____  ____ __ ______    ______ _________
0                                   5828             =*
0000000                00000 00020  5830             =@DSPSTAT RECORD BEGIN
 000000                             5838  1          =@DSPSST    DS    D             TOD clock when system started
 000008                             5839  1          =@DSPSCHG   DS    D             Total CPU time charged (TOD)
 000010                             5840  1          =@DSPSDSP   DS    D             Dispatch CPU time (TOD)
 000018                             5841  1          =@DSPSIOS   DS    D             I/O Service time (TOD)
 000020                00020 00020  5842             =         END   ,
1M1SERV   (M1SE00) (09:42) (22MAR04) IHAPSAE  - PSA Extension (ESAME)                                                       Page   23
0Current Usings:  (PZERO,R0)
0Loc    Object Code    Addr1 Addr2  Stmt Lv Lineno    Source Statement           (Hibal 5, Asmedit 3.3)  HLASM R4.0  2004/03/22 09.42
+___    ______ ____    _____ _____  ____ __ ______    ______ _________
0                                   5852      34.              COPY  SEXIPARM
                                    5853             =*****************************************************************
                                    5854             =*                                                               *
                                    5855             =*  SEXIPARM -- Parameters on entry to System EXIt routines.     *
                                    5856             =*              These dsects define the layout of the parameter  *
                                    5857             =*              area (XITSXPRM) containd in the dsect XITSAREA   *
                                    5858             =*              whose address is passed to the exit routine.     *
                                    5859             =*                                                               *
                                    5860             =*****************************************************************
-                                   5862             =*
                                    5863             =* Supervisor Call Information
                                    5864             =*
0000000                00000 00004  5866             =SEXITSVC RECORD BEGIN
 000000                             5874  1          =SXISILC    DS    H             Supervisor Call Instruction length
 000002                             5875  1          =SXISNUM    DS    H             Supervisor Call number
 000004                00004 00004  5876             =         END   ,
-                                   5886             =*
                                    5887             =* Program Interrupt Information
                                    5888             =*
0000000                00000 00008  5890             =SEXITPI  RECORD BEGIN
 000000                             5898  1          =SXIPILC    DS    H             Instruction Length
 000002                             5899  1          =SXIPCODE   DS    H             Interrupt code
 000004                             5900  1          =SXIPEXA    DS    A             Exception address (codes 16 & 17)
 000008                00008 00008  5901             =         END   ,
-                                   5911             =*
                                    5912             =* Program Event Recording Information
                                    5913             =*
0000000                00000 00008  5915             =SEXITPER RECORD BEGIN
 000000                             5923  1          =SXIEILC    DS    H             Instruction Length
 000002                             5924  1          =SXIECODE   DS    H             PER Code
 000004                             5925  1          =SXIEPERA   DS    A             PER Address
 000008                00008 00008  5926             =         END   ,
-                                   5936             =*
                                    5937             =* Monitor Call Information
                                    5938             =*
0000000                00000 00008  5940             =SEXITMC  RECORD BEGIN
 000000                             5948  1          =SXIMILC    DS    H             Instruction Length
 000002                             5949  1          =SXIMCLA    DS    H             Monitor Class
 000004                             5950  1          =SXIMCODE   DS    A             Monitor Code
 000008                00008 00008  5951             =         END   ,
1M1SERV   (M1SE00) (09:42) (22MAR04) IHAPSAE  - PSA Extension (ESAME)                                                       Page   24
0Current Usings:  (PZERO,R0)
0Loc    Object Code    Addr1 Addr2  Stmt Lv Lineno    Source Statement           (Hibal 5, Asmedit 3.3)  HLASM R4.0  2004/03/22 09.42
+___    ______ ____    _____ _____  ____ __ ______    ______ _________
0                                   5961      36.              COPY  XITPARM
                                    5962             =*****************************************************************
                                    5963             =*                                                               *
                                    5964             =*  XITPARM --  Parameters for the routines dealing with exit    *
                                    5965             =*              routine definition and execution.                *
                                    5966             =*                                                               *
                                    5967             =*****************************************************************
-                                   5969             =*
                                    5970             =*  @EXRADD -- Define a new exit routine.
                                    5971             =*
0000000                00000 00015  5973             =@EXRADD  RECORD BEGIN
 000000                             5981  1          =@EXRTYPE   DS    A             Exit type bit map
 000004                             5982  1          =@EXRQUAL   DS    A             Exit Qualifier
 000008                             5983  1          =@EXRPSW    DS    D             Exit PSW
 000010                             5984  1          =@EXRPARM   DS    A             Parm for the exit
 000014 00                          5985  1          =@EXRAFLG   FLAG  ,
 @EXRAFLG.@EXRAFQ  80 ONES          5989  1          =           FLAG  @EXRAFQ       Exit should be qualified
 @EXRAFLG.@EXRAFS  40 ONES          5994  1          =           FLAG  @EXRAFS       System exit (entered with a stack)
 000015                00015 00015  5999             =         END   ,
-                                   6009             =*
                                    6010             =*  @EXRDEL -- Remove an exit routine definition.
                                    6011             =*
0000000                00000 00004  6013             =@EXRDEL  RECORD BEGIN
 000000                             6021  1          =@EXRDID    DS    A             Exit routine ID
 000004                00004 00004  6022             =         END   ,
-                                   6032             =*
                                    6033             =*  @EXRDONE -- Complete exit processing.
                                    6034             =*
0000000                00000 00001  6036             =@EXRDONE RECORD BEGIN
 000000 00                          6044  1          =@EXRDCD    FLAG  ,
 @EXRDCD.@EXRDFIN  00 EQ            6048  1          =           FLAG  (@EXRDFIN,0,EQ)         No further processing needed
 @EXRDCD.@EXRDNXT  01 EQ            6058  1          =           FLAG  (@EXRDNXT,1,EQ)         Percolate the exit request
 000001                00001 00001  6068             =         END   ,
-                                   6078             =*
                                    6079             =*  @XITNEW -- Define a new exit request.
                                    6080             =*
0000000                00000 00001  6082             =@XITNEW  RECORD BEGIN
 000000 00                          6090  1          =@XITNFL    FLAG  ,
 @XITNFL.@XITNFG   80 ONES          6094  1          =           FLAG  @XITNFG       Global exit request
 000001                00001 00001  6099             =         END   ,
1M1SERV   (M1SE00) (09:42) (22MAR04) IHAPSAE  - PSA Extension (ESAME)                                                       Page   25
0Current Usings:  (PZERO,R0)
0Loc    Object Code    Addr1 Addr2  Stmt Lv Lineno    Source Statement           (Hibal 5, Asmedit 3.3)  HLASM R4.0  2004/03/22 09.42
+___    ______ ____    _____ _____  ____ __ ______    ______ _________
0                                   6109             =*
                                    6110             =*  @XITDEL -- Delete an exit request
                                    6111             =*
0000000                00000 00004  6113             =@XITDEL  RECORD BEGIN
 000000                             6121  1          =@XITDID    DS    A             Exit request ID
 000004                00004 00004  6122             =         END   ,
-                                   6132             =*
                                    6133             =*  @XITDO -- Schedule an exit.
                                    6134             =*
 000000                00000 00020  6135             =@XITDO   RECORD BEGIN
 000000                             6143  1          =@XITRQID   DS    A             Request ID (from XITNEW)
 000004                             6144  1          =@XITTSK    DS    A             Task Id where this exit is to run
 000008                             6145  1          =@XITTYPE   DS    X             Exit type (Integer)
 00000C                             6146  1          =@XITQUAL   DS    A             Exit qualifier
 000010                             6147  1          =@XITPARM   DS    XL16          Exit parameter area
 000020                00020 00020  6148             =         END   ,
-                                   6158             =*
                                    6159             =*  @XITGPST -- Info about the status of the previous level of control
                                    6160             =*              used by XITGST and XITPST
                                    6161             =*
0000000                00000 00068  6163             =@XITGPST RECORD BEGIN
 000000                             6171  1          =@XITSPSW   DS    D             PSW
 000008                             6172  1          =@XITSGPR   DS    16F           GPRs
 000048                             6173  1          =@XITSFPR   DS    4D            FPRs
 000068                00068 00068  6174             =         END   ,
-                                   6184             =*
                                    6185             =*  @XITMASK -- Modify the current exit mask
                                    6186             =*
0000000                00000 00005  6188             =@XITMASK RECORD BEGIN
 000000                             6196  1          =@XITMSK    DS    A             Bit mask of the data
 000004 00                          6197  1          =@XITMREQ   FLAG  ,             Request type
 @XITMREQ.@XITMSO  00 EQ            6201  1          =           FLAG  (@XITMSO,0,EQ)  OR this data into the mask
 @XITMREQ.@XITMSN  01 EQ            6211  1          =           FLAG  (@XITMSN,1,EQ)  AND this data into the mask
 @XITMREQ.@XITMSS  02 EQ            6221  1          =           FLAG  (@XITMSS,2,EQ)  Store this data into the mask
 000005                00005 00005  6231             =         END   ,
-                                   6241             =*
                                    6242             =* Definition of the types of exits
                                    6243             =*
0                                   6245             =XITTPI   EQU    0          * Program interrupt
                                    6246             =XITTSVC  EQU    1          * Supervisor Call
                                    6247             =XITTRTC  EQU    2            Real time clock expiration
                                    6248             =XITTCTC  EQU    3            CPU time clock expiration
1M1SERV   (M1SE00) (09:42) (22MAR04) IHAPSAE  - PSA Extension (ESAME)                                                       Page   26
0Current Usings:  (PZERO,R0)
0Loc    Object Code    Addr1 Addr2  Stmt Lv Lineno    Source Statement           (Hibal 5, Asmedit 3.3)  HLASM R4.0  2004/03/22 09.42
+___    ______ ____    _____ _____  ____ __ ______    ______ _________
0                                   6249             =XITTPER  EQU    4            Program Event
                                    6250             =XITTMON  EQU    5            Monitor Call
                                    6251             =XITTLGO  EQU    6            Logoff
                                    6252             =XITTR07  EQU    7            -- reserved --
                                    6253             =XITTATTN EQU    8            Attention
                                    6254             =XITTIOCN EQU    9            I/O Completed normally
                                    6255             =XITTIOCA EQU   10            I/O Completed abnormally
-                                   6257             =*
                                    6258             =* Definition of the exit mask
                                    6259             =*
0000000                00000 00004  6261             =XITMSKD  RECORD BEGIN
                                    6269  1          =
 000000 00                          6270  1          =MITMK1     FLAG  ,             First byte of the mask
 MITMK1.XITMPI     80 ONES          6274  1          =           FLAG  XITMPI          Program interrupt
 MITMK1.XITMSVC    40 ONES          6279  1          =           FLAG  XITMSVC         Supervisor Call
 MITMK1.XITMRTC    20 ONES          6284  1          =           FLAG  XITMRTC         Real time clock expiration
 MITMK1.XITMCTC    10 ONES          6289  1          =           FLAG  XITMCTC         CPU time clock expiration
 MITMK1.XITMPER    08 ONES          6294  1          =           FLAG  XITMPER         Program Event
 MITMK1.XITMMON    04 ONES          6299  1          =           FLAG  XITMMON         Monitor Call
 MITMK1.XITMLGO    02 ONES          6304  1          =           FLAG  XITMLGO         Logoff
 MITMK1.XITMR07    01 ONES          6309  1          =           FLAG  XITMR07         -- reserved --
                                    6314  1          =
 000001 00                          6315  1          =MITMK2     FLAG  ,             Second byte of the mask
 MITMK2.XITMATTN   80 ONES          6319  1          =           FLAG  XITMATTN        Attention
 MITMK2.XITMIOCN   40 ONES          6324  1          =           FLAG  XITMIOCN        I/O Completed normally
 MITMK2.XITMIOCA   20 ONES          6329  1          =           FLAG  XITMIOCA        I/O Completed abnormally
                                    6334  1          =
 000002 00                          6335  1          =MITMK3     FLAG  ,             Third byte of the mask
                                    6339  1          =
 000003 00                          6340  1          =MITMK4     FLAG  ,             Fourth byte of the mask
 000004                00004 00004  6344             =         END   ,
-                                   6354             =*
                                    6355             =* Definition of Exit routine entry data area
                                    6356             =*
0000000                00000 00004  6358             =@XITDATA RECORD BEGIN
 000000                             6366  1          =@XITDSA    DS    A             Pointer to XITSAREA (exit status area)
 000004                00004 00004  6367             =         END   ,
-                                   6377             =*
                                    6378             =* Definition of the Exit Status area
                                    6379             =*
0000000                00000 0001C  6381             =XITSAREA RECORD BEGIN
 000000                             6389  1          =XITSRPRM   DS    A             Parm value for the Routine
 000004                             6390  1          =XITSTYPE   DS    X             Type of the exit
 000008                             6391  1          =XITSQUAL   DS    A             Exit Qualifier
 00000C                             6392  1          =XITSXPRM   DS    XL16          Exit parameter area
1M1SERV   (M1SE00) (09:42) (22MAR04) IHAPSAE  - PSA Extension (ESAME)                                                       Page   27
0Current Usings:  (PZERO,R0)
0Loc    Object Code    Addr1 Addr2  Stmt Lv Lineno    Source Statement           (Hibal 5, Asmedit 3.3)  HLASM R4.0  2004/03/22 09.42
+___    ______ ____    _____ _____  ____ __ ______    ______ _________
000001C                0001C 0001C  6393             =         END   ,
1M1SERV   (M1SE00) (09:42) (22MAR04) IHAPSAE  - PSA Extension (ESAME)                                                       Page   28
0Current Usings:  (PZERO,R0)
0Loc    Object Code    Addr1 Addr2  Stmt Lv Lineno    Source Statement           (Hibal 5, Asmedit 3.3)  HLASM R4.0  2004/03/22 09.42
+___    ______ ____    _____ _____  ____ __ ______    ______ _________
0                                   6403      38.              COPY  ENQPARM
                                    6404             =*******************************************************************
                                    6405             =*                                                                 *
                                    6406             =*    @ENQUEUE - Enqueue service parameters                        *
                                    6407             =*                                                                 *
                                    6408             =*******************************************************************
0000000                00000 00039  6410             =@ENQUEUE RECORD BEGIN
 000000                             6418  1          =@ENQID     DS    A                       Enqueue id (Test only)
 000004                             6419  1          =@ENQQNM    DS    CL8                     Queue Name
 00000C                             6420  1          =@ENQRNM    DS    CL44                    Resource name
                                    6421  1          =*@ENQNUM  DS    A                       Enqueue number
                                    6422  1          =*@ENQFNT  DS    A                       Resource No. table ptr
 000038 00                          6423  1          =@ENQFL     FLAG
 @ENQFL.@ENQSHR    80 ONES          6427  1          =           FLAG  @ENQSHR                 Enqueue resource shared
 @ENQFL.@ENQSUSP   40 ONES          6432  1          =           FLAG  @ENQSUSP                Wait for resource
 @ENQFL.@ENQTEST   20 ONES          6437  1          =           FLAG  @ENQTEST                Resource inquiry
                                    6442  1          =*         FLAG  @ENQAEN                 Assign enqueue number
 000039                00039 00039  6443             =         END   ,
-
                                    6453             =*******************************************************************
                                    6454             =*                                                                 *
                                    6455             =*   @DEQUEUE - Dequeue service parameters                         *
                                    6456             =*                                                                 *
                                    6457             =*******************************************************************
0000000                00000 00039  6459             =@DEQUEUE RECORD BEGIN
 000000                             6467  1          =@DEQID     DS    A                       Enqueue id
 000004                             6468  1          =@DEQQNM    DS    CL8                     Queue Name
 00000C                             6469  1          =@DEQRNM    DS    CL44                    Resource name
 000038 00                          6470  1          =@DEQFL     FLAG
 @DEQFL.@DEQCAN    80 ONES          6474  1          =           FLAG  @DEQCAN                 Cancel enqueue
 000039                00039 00039  6479             =         END   ,
-
                                    6489             =*******************************************************************
                                    6490             =*                                                                 *
                                    6491             =*   @REQUEUE - Requeue service parameters                         *
                                    6492             =*                                                                 *
                                    6493             =*******************************************************************
0000000                00000 00039  6495             =@REQUEUE RECORD BEGIN
 000000                             6503  1          =@REQID     DS    A                       Enqueue id
 000004                             6504  1          =@REQQNM    DS    CL8                     Queue Name
 00000C                             6505  1          =@REQRNM    DS    CL44                    Resource name
 000038 00                          6506  1          =@REQFL     FLAG
 @REQFL.@REQSHR    80 ONES          6510  1          =           FLAG  @REQSHR                 Requeue resource shared
 @REQFL.@REQSUSP   40 ONES          6515  1          =           FLAG  @REQSUSP                Wait for resource
 000039                00039 00039  6520             =         END   ,
1M1SERV   (M1SE00) (09:42) (22MAR04) IHAPSAE  - PSA Extension (ESAME)                                                       Page   29
0Current Usings:  (PZERO,R0)
0Loc    Object Code    Addr1 Addr2  Stmt Lv Lineno    Source Statement           (Hibal 5, Asmedit 3.3)  HLASM R4.0  2004/03/22 09.42
+___    ______ ____    _____ _____  ____ __ ______    ______ _________
0                                   6530             =*******************************************************************
                                    6531             =*                                                                 *
                                    6532             =*   @ENQHALT - Halt Enqueue service parameters                    *
                                    6533             =*                                                                 *
                                    6534             =*******************************************************************
0000000                00000 00034  6536             =@ENQHALT RECORD BEGIN
 000000                             6544  1          =@EQHQNM    DS    CL8                     Queue Name
 000008                             6545  1          =@EQHRNM    DS    CL44                    Resource name
 000034                00034 00034  6546             =         END   ,
-
0                                   6556      40.              COPY  LOCKPARM
                                    6557             =*******************************************************************
                                    6558             =*                                                                 *
                                    6559             =*    LOCKPARM - Lock routine calling parms                        *
                                    6560             =*                                                                 *
                                    6561             =*******************************************************************
0000000                00000 00011  6563             =@LOCKCRE RECORD BEGIN
 000000                             6571  1          =@LOCKNAM   DS    CL16          Name of the lock
 000010 00                          6572  1          =@LOCKFL    FLAG  ,
 @LOCKFL.@LFSPIN   80 ONES          6576  1          =           FLAG  @LFSPIN       Spin type lock
 000011                00011 00011  6581             =         END   ,
                                    6590             =*
 000000                00000 00004  6591             =@LOCKS   RECORD BEGIN
 000000                             6599  1          =@LOCKID    DS    A             Lock id
 000004                00004 00004  6600             =         END   ,
1M1SERV   (M1SE00) (09:42) (22MAR04) IHAPSAE  - PSA Extension (ESAME)                                                       Page   30
0Current Usings:  (PZERO,R0)
0Loc    Object Code    Addr1 Addr2  Stmt Lv Lineno    Source Statement           (Hibal 5, Asmedit 3.3)  HLASM R4.0  2004/03/22 09.42
+___    ______ ____    _____ _____  ____ __ ______    ______ _________
0                                   6610      42.              COPY  SEGPARM
 000000                00000 0000D  6611             =@SEG     RECORD BEGIN        Used for SEG,T,B,TB,EOR,EOB
 000000                             6619  1          =@SEGCB     DS    A             Address of the seg control block
 000004                             6620  1          =@SEGLOC    DS    A             Location of the text segment to be added
 000008                             6621  1          =@SEGLEN    DS    A             Length of the text segment to be added
 00000C 00                          6622  1          =@SEGTYPE   FLAG  ,
 @SEGTYPE.@SEGB    80 ONES          6626  1          =           FLAG  @SEGB         Add a blank after the segment
 @SEGTYPE.@SEGT    40 ONES          6631  1          =           FLAG  @SEGT         Trim trailing blanks from the segment
 @SEGTYPE.@SEGTB   C0 NZ            6636  1          =           FLAG  (@SEGTB,@SEGB+@SEGT)    Trim trailing, and add 1 blank
 @SEGTYPE.@SEGMK   20 ONES          6647  1          =           FLAG  @SEGMK        Mark the buffer after this segment
 @SEGTYPE.@SEGEOR  10 ONES          6652  1          =           FLAG  @SEGEOR       This is the end of a logical record
 @SEGTYPE.@SEGEOB  08 ONES          6657  1          =           FLAG  @SEGEOB       This is the last segment for the buffer
 00000D                0000D 0000D  6662             =         END   ,
-000000                00000 0000E  6672             =@SEGINIT RECORD BEGIN
 000000                             6680  1          =@SEGICB    DS    A
 000004                             6681  1          =@SEGIRTN   DS    A             Address of the processing routine
 000008                             6682  1          =@SEGILOC   DS    A             Location of the buffer
 00000C                             6683  1          =@SEGILEN   DS    Y             Length of the buffer
 00000E                0000E 0000E  6684             =         END   ,
-000000                00000 00008  6694             =@SEGCOL  RECORD BEGIN
 000000                             6702  1          =@SEGCCB    DS    A             Address of the control block
 000004                             6703  1          =@SEGCNUM   DS    A             Column number to go to
 000008                00008 00008  6704             =         END   ,
-000000                00000 00018  6714             =@SEGCORE RECORD BEGIN
 000000                             6722  1          =@SEGXCB    DS    A             Control block address
 000004                             6723  1          =@SEGXLOC   DS    A             Location of the core (MVS VA)
 000008                             6724  1          =@SEGXLEN   DS    A             Length of the core to dump
 00000C                             6725  1          =@SEGXSPA   DS    X             # blank lines between each dump line
 00000D 00                          6726  1          =@SEGXFLG   FLAG  ,
 @SEGXFLG.@SEGXF16 80 ONES          6730  1          =           FLAG  @SEGXF16      16 Bytes per line  (32 bytes per line)
 @SEGXFLG.@SEGXFAL 40 ONES          6735  1          =           FLAG  @SEGXFAL      Alpha (EBCDIC)     (no EBCDIC)
 @SEGXFLG.@SEGXFOF 20 ONES          6740  1          =           FLAG  @SEGXFOF      Print offsets      (Print Addresses)
 @SEGXFLG.@SEGXFID 10 ONES          6745  1          =           FLAG  @SEGXFID      Print the id       (Dont print it)
 @SEGXFLG.@SEGXFRL 08 ONES          6750  1          =           FLAG  @SEGXFRL      Print repeat lines (Print summary)
 000010                             6755  1          =@SEGXOFF   DS    A             Address to be 0 offset
 000014                             6756  1          =@SEGXID    DS    CL4           Control block id
 000018                00018 00018  6757             =         END   ,
-000000                00000 00004  6767             =@SEGRTN  RECORD BEGIN                  Parameters to pass to proc rtn
 000000                             6775  1          =@SEGRCB    DS    A                       Address of control block
 000004                00004 00004  6776             =         END   ,
-000000                00000 00008  6786             =@SEGSTK  RECORD BEGIN
 000000                             6794  1          =@SEGSCB    DS    A                       Address of seg control block
 000004                             6795  1          =@SEGSST    DS    A                       Start of stack (from RTCB)
 000008                00008 00008  6796             =         END   ,
1M1SERV   (M1SE00) (09:42) (22MAR04) IHAPSAE  - PSA Extension (ESAME)                                                       Page   31
0Current Usings:  (PZERO,R0)
0Loc    Object Code    Addr1 Addr2  Stmt Lv Lineno    Source Statement           (Hibal 5, Asmedit 3.3)  HLASM R4.0  2004/03/22 09.42
+___    ______ ____    _____ _____  ____ __ ______    ______ _________
0                                   6806      44.              COPY  TIMEPARM
                                    6807             =*****************************************************************
                                    6808             =*                                                               *
                                    6809             =*  TIMEPARM -- Parameters for the timer routines.               *
                                    6810             =*                                                               *
                                    6811             =*****************************************************************
-                                   6813             =*
                                    6814             =* Start a Real-time timer
                                    6815             =*
0000000                00000 00018  6817             =@RTSET   RECORD BEGIN
 000000                             6825  1          =@RTSCLK    DS    D             Time of day or interval in TOD format
 000008 00                          6826  1          =@RTSFLG    FLAG  ,             Request flags
 @RTSFLG.@RTSFINT  80 ONES          6830  1          =           FLAG  @RTSFINT       Interval timer
 00000C                             6835  1          =@RTSXIT    DS    A             ID of the Exit request
 000010                             6836  1          =@RTSPARM   DS    2A            Parms passed to the exit
 000018                00018 00018  6837             =         END   ,
-                                   6847             =*
                                    6848             =* Cancel (RTCAN) Or Check (RTCHK) a Real-time timer
                                    6849             =*
0000000                00000 00020  6851             =@RTCNCK  RECORD BEGIN        Cancel or Check
 000000                             6859  1          =@RTCID     DS    A             ID of the Timer
 000008                             6860  1          =@RTCCLK    DS    D             Interval until the clock expires
 000010                             6861  1          =@RTCPARM   DS    4A            Same as the parm area in exit
 000020                00020 00020  6862             =         END   ,
-                                   6872             =*
                                    6873             =* Layout of parms passed to the Real time timer exit
                                    6874             =*
0000000                00000 00010  6876             =RTEXIT   RECORD BEGIN
 000000                             6884  1          =RTXTID     DS    A             ID of the timer
 000004                             6885  1          =RTXXID     DS    A             ID of the timer Exit
 000008                             6886  1          =RTXPARM    DS    2A            Parms set when the timer was set
 000010                00010 00010  6887             =         END   ,
-                                   6897             =*
                                    6898             =* Start a CPU-time timer
                                    6899             =*
0000000                00000 00014  6901             =@CPSET   RECORD BEGIN
 000000                             6909  1          =@CPSCLK    DS    D             Time of day or interval in TOD format
 000008                             6910  1          =@CPSXIT    DS    A             ID of the Exit request
 00000C                             6911  1          =@CPSPARM   DS    2A            Parms passed to the exit
 000014                00014 00014  6912             =         END   ,
1M1SERV   (M1SE00) (09:42) (22MAR04) IHAPSAE  - PSA Extension (ESAME)                                                       Page   32
0Current Usings:  (PZERO,R0)
0Loc    Object Code    Addr1 Addr2  Stmt Lv Lineno    Source Statement           (Hibal 5, Asmedit 3.3)  HLASM R4.0  2004/03/22 09.42
+___    ______ ____    _____ _____  ____ __ ______    ______ _________
0                                   6922             =*
                                    6923             =* Cancel (CPCAN) Or Check (CPCHK) a CPU-time timer
                                    6924             =*
0000000                00000 00020  6926             =@CPCNCK  RECORD BEGIN        Cancel or Check
 000000                             6934  1          =@CPCID     DS    A             ID of the Timer
 000008                             6935  1          =@CPCCLK    DS    D             Interval until the clock expires
 000010                             6936  1          =@CPCPARM   DS    4A            Same as the parm area in exit
 000020                00020 00020  6937             =         END   ,
-                                   6947             =*
                                    6948             =* Layout of parms passed to the CPU-time timer exit
                                    6949             =*
0000000                00000 00010  6951             =CPEXIT   RECORD BEGIN
 000000                             6959  1          =CPXTID     DS    A             ID of the timer
 000004                             6960  1          =CPXXID     DS    A             ID of the timer Exit
 000008                             6961  1          =CPXPARM    DS    2A            Parms set when the timer was set
 000010                00010 00010  6962             =         END   ,
1M1SERV   (M1SE00) (09:42) (22MAR04) IHAPSAE  - PSA Extension (ESAME)                                                       Page   33
0Current Usings:  (PZERO,R0)
0Loc    Object Code    Addr1 Addr2  Stmt Lv Lineno    Source Statement           (Hibal 5, Asmedit 3.3)  HLASM R4.0  2004/03/22 09.42
+___    ______ ____    _____ _____  ____ __ ______    ______ _________
0                                   6972      46.              COPY  ACCTPARM
                                    6973             =*****************************************************************
                                    6974             =*                                                               *
                                    6975             =*  ACCTPARM -- Parameters for the Accounting Routines.          *
                                    6976             =*                                                               *
                                    6977             =*****************************************************************
-                                   6979             =*
                                    6980             =* Start accounting for an address space
                                    6981             =*
0000000                00000 0001C  6983             =@ACLOGON RECORD BEGIN
 000000                             6991  1          =@ACLASB    DS    A             ASB of the Address Space
 000004                             6992  1          =@ACLUID    DS    CL8           User ID
 00000C                             6993  1          =@ACLUPR    DS    A             User Privileges
 000010                             6994  1          =@ACLLOT    DS    D             TOD Clock at Logon
 000018                             6995  1          =@ACLTID    DS    A             Terminal ID
 00001C                0001C 0001C  6996             =         END   ,
-                                   7006             =*
                                    7007             =* Get accounting info for an address space.
                                    7008             =*
0000000                00000 00018  7010             =@ACAINFO RECORD BEGIN
 000000                             7018  1          =@ACAASB    DS    A             ASB of the address space
 000004                             7019  1          =@ACAUID    DS    CL8           User ID
 00000C                             7020  1          =@ACAUPR    DS    A             User Privileges
                                    7021  1          =MILPRIV    EQU   @ACAUPR+3     Milten priv byte *** TEMP ***
 000010                             7022  1          =@ACALOT    DS    D             TOD Clock at Logon
 000018                00018 00018  7023             =         END   ,
-                                   7033             =*
                                    7034             =* Get resource usage info for an address space
                                    7035             =*
0000000                00000 00028  7037             =@ACINFO  RECORD BEGIN
 000000                             7045  1          =@ACIASB    DS    A             ASB of the Address space
 000004                             7046  1          =@ACIIOS    DS    A             Number of I/O's
 000008                             7047  1          =@ACICPU    DS    D             CPU time (TOD)
 000010                             7048  1          =@ACICON    DS    D             Connect time (TOD)
 000018                             7049  1          =@ACIPGNM   DS    CL8           Program name
 000020                             7050  1          =@ACITID    DS    A             Terminal Identifier
 000024                             7051  1          =@ACIORG    DS    A             Shared program address
 000028                00028 00028  7052             =         END   ,
                                    7061             =*
                                    7062             =* Set program information
                                    7063             =*
0000000                00000 0000C  7065             =@ACPINFO RECORD BEGIN
 000000                             7073  1          =@ACPASB    DS    A             ASB of the Address space
 000004                             7074  1          =@ACPPGNM   DS    CL8           Program name
1M1SERV   (M1SE00) (09:42) (22MAR04) IHAPSAE  - PSA Extension (ESAME)                                                       Page   34
0Current Usings:  (PZERO,R0)
0Loc    Object Code    Addr1 Addr2  Stmt Lv Lineno    Source Statement           (Hibal 5, Asmedit 3.3)  HLASM R4.0  2004/03/22 09.42
+___    ______ ____    _____ _____  ____ __ ______    ______ _________
000000C                0000C 0000C  7075             =         END   ,
                                    7084             =*
                                    7085             =* Set shared program information
                                    7086             =*
0000000                00000 00008  7088             =@ACSPINF RECORD BEGIN
 000000                             7096  1          =@ACSPASB   DS    A             ASB of the Address space
 000004                             7097  1          =@ACSPORG   DS    A             Shared program address
 000008                00008 00008  7098             =         END   ,
1M1SERV   (M1SE00) (09:42) (22MAR04) IHAPSAE  - PSA Extension (ESAME)                                                       Page   35
0Current Usings:  (PZERO,R0)
0Loc    Object Code    Addr1 Addr2  Stmt Lv Lineno    Source Statement           (Hibal 5, Asmedit 3.3)  HLASM R4.0  2004/03/22 09.42
+___    ______ ____    _____ _____  ____ __ ______    ______ _________
0                                   7108      48.              COPY  TERMPARM
                                    7109             =*****************************************************************
                                    7110             =*                                                               *
                                    7111             =*  TERMPARM -- Parameters dealing with Terminal I/O.            *
                                    7112             =*                                                               *
                                    7113             =*****************************************************************
-                                   7115             =*
                                    7116             =*  M1TERM  --  Mode 1 terminal operation
                                    7117             =*
0000000                00000 0001B  7119             =@M1TERM  RECORD BEGIN
 000000                             7127  1          =@M1TR01    DS    A             Contents of R1 at SVC time
 000004                             7128  1          =@M1TR14    DS    A             Contents of R14 at SVC time
 000008                             7129  1          =@M1TR15    DS    A             Contents of R15 at SVC time
 00000C                             7130  1          =@M1TRQID   DS    A             Request ID
 000010                             7131  1          =@M1TPGM    DS    CL8           Current program name
                                    7132  1          =
 000018 00                          7133  1          =@M1TFLG    FLAG  ,
 @M1TFLG.@M1TFRUN  80 ONES          7137  1          =           FLAG  @M1TFRUN      Program is running (not session break)
 @M1TFLG.@M1TFAUTH 40 ONES          7142  1          =           FLAG  @M1TFAUTH     Program is authorized
 @M1TFLG.@M1TFM31  20 ONES          7147  1          =           FLAG  @M1TFM31      Program is in 31 bit mode
                                    7152  1          =
 000019                             7153  1          =@M1TPKEY   DS    X             PSW key of requestor
                                    7154  1          =
 00001A 00                          7155  1          =@M1TTYPE   FLAG  ,             I/O type (READ,WRITE,CONTROL,HALT)
 @M1TTYPE.@M1TREAD 04 EQ            7159  1          =           FLAG  (@M1TREAD,4,EQ)   Read
 @M1TTYPE.@M1TWRIT 08 EQ            7169  1          =           FLAG  (@M1TWRIT,8,EQ)   Write
 @M1TTYPE.@M1TCNTL 0C EQ            7179  1          =           FLAG  (@M1TCNTL,12,EQ)  Control
 @M1TTYPE.@M1THALT 10 EQ            7189  1          =           FLAG  (@M1THALT,16,EQ)  Halt
 00001B                0001B 0001B  7199             =         END   ,
-                                   7209             =*
                                    7210             =*   @TERMUINF -- Parameters for User Terminal information request
                                    7211             =*
 000000                00000 00008  7212             =@TERUINF RECORD BEGIN
 000000                             7220  1          =@TERUTYP   DS    CL8                     Return area for terminal type
 000008                00008 00008  7221             =         END   ,
                                    7230             =*
                                    7231             =*   M1TIOCP -- This area maps the parm area of the terminal I/O
                                    7232             =*              complete exit.
                                    7233             =*
-000000                00000 00010  7235             =@M1TIOCP RECORD BEGIN
 000000                             7243  1          =@M1TICRQ   DS    A             Request ID
 000004                             7244  1          =@M1TIR01   DS    A             Value of R1 to be returned to user
 000008                             7245  1          =@M1TIR14   DS    A             Value of R14 to be returned to user
 00000C                             7246  1          =@M1TIR15   DS    A             Value of R15 to be returned to user
                                    7247  1          =
                                    7248  1          =@M1TINRV   EQU   X'80'         Value should not be returned
 000010                00010 00010  7249             =         END   ,
1M1SERV   (M1SE00) (09:42) (22MAR04) IHAPSAE  - PSA Extension (ESAME)                                                       Page   36
0Current Usings:  (PZERO,R0)
0Loc    Object Code    Addr1 Addr2  Stmt Lv Lineno    Source Statement           (Hibal 5, Asmedit 3.3)  HLASM R4.0  2004/03/22 09.42
+___    ______ ____    _____ _____  ____ __ ______    ______ _________
0                                   7259             =*
                                    7260             =*   M1TATP  -- This area maps the parm area of the terminal ATTN
                                    7261             =*              exit.
                                    7262             =*
-000000                00000 00010  7264             =@M1TATP  RECORD BEGIN
 000000                             7272  1          =@M1TATRQ   DS    A             Request ID passed at last I/O
 000004                             7273  1          =@M1TATCT   DS    A             Addr of 1 byte count of ATTNs since read
 000008                             7274  1          =           DS    2A            Reserved
 000010                00010 00010  7275             =         END   ,
1M1SERV   (M1SE00) (09:42) (22MAR04) IHAPSAE  - PSA Extension (ESAME)                                                       Page   37
0Current Usings:  (PZERO,R0)
0Loc    Object Code    Addr1 Addr2  Stmt Lv Lineno    Source Statement           (Hibal 5, Asmedit 3.3)  HLASM R4.0  2004/03/22 09.42
+___    ______ ____    _____ _____  ____ __ ______    ______ _________
0                                   7285      50.              COPY  FILEPARM
                                    7286             =*****************************************************************
                                    7287             =*                                                               *
                                    7288             =*  FILEPARM -- Parameters dealing with FILE SVC I/O.            *
                                    7289             =*                                                               *
                                    7290             =*****************************************************************
-                                   7292             =*
                                    7293             =*  M1FILE  --  Mode 1 file operation
                                    7294             =*
                                    7295             =*  RVR =  0 all ok
                                    7296             =*           wait user flags indicate which wait regs to set if any
                                    7297             =*  RVR <> 0 if   panic word <> 0, panic user
                                    7298             =*           else return registers
                                    7299             =*
0000000                00000 00029  7301             =@M1FILE  RECORD BEGIN
 000000                             7309  1          =@M1FR14    DS    A             Contents of R14 at SVC time
 000004                             7310  1          =@M1FR15    DS    A             Contents of R15 at SVC time
 000008                             7311  1          =@M1FR00    DS    A             Contents of R0  at SVC time
 00000C                             7312  1          =@M1FR01    DS    A             Contents of R1  at SVC time
                                    7313  1          =@M1FREG    EQU   @M1FR14,*-@M1FR14
0000010                             7315  1          =@M1FWR14   DS    A             Wait return registers
 000014                             7316  1          =@M1FWR15   DS    A             These are set at SVC time when
 000018                             7317  1          =@M1FWR01   DS    A             be used to set the return registers
000001C                             7319  1          =@M1FRQID   DS    A             Request ID (IDT)
 000020                             7320  1          =@M1FDVID   DS    A             Request block id (RQFB)
                                    7321  1          =
 000024                             7322  1          =@M1FILID   DS    X             File ID (IDT index)
                                    7323  1          =
 000025 00                          7324  1          =@M1FLAG    FLAG  ,
 @M1FLAG.@M1FCLP   80 ONES          7328  1          =           FLAG  @M1FCLP       CLP attach
 @M1FLAG.@M1FSPI   40 ONES          7333  1          =           FLAG  @M1FSPI       Spires attached
 @M1FLAG.@M1FM31   20 ONES          7338  1          =           FLAG  @M1FM31       User in 31 bit mode
0000026                             7344  1          =@M1FPKEY   DS    X             PSW key of requestor
0000027                             7346  1          =@M1FPRIV   DS    X             Signed on privileges
0000028 00                          7348  1          =@M1FTYPE   FLAG  ,             I/O type
 @M1FTYPE.@M1FATCH 04 EQ            7352  1          =           FLAG  (@M1FATCH,4,EQ)   Attach
 @M1FTYPE.@M1FREAD 08 EQ            7362  1          =           FLAG  (@M1FREAD,8,EQ)   Read
 @M1FTYPE.@M1FWRIT 0C EQ            7372  1          =           FLAG  (@M1FWRIT,12,EQ)  Write
 @M1FTYPE.@M1FCONT 10 EQ            7382  1          =           FLAG  (@M1FCONT,16,EQ)  Control
 @M1FTYPE.@M1FSTAT 14 EQ            7392  1          =           FLAG  (@M1FSTAT,20,EQ)  Status
 @M1FTYPE.@M1FDTCH 18 EQ            7402  1          =           FLAG  (@M1FDTCH,24,EQ)  Detach
 @M1FTYPE.@M1FRSRV 1C EQ            7412  1          =           FLAG  (@M1FRSRV,28,EQ)  Reserve
 @M1FTYPE.@M1FRLSE 20 EQ            7422  1          =           FLAG  (@M1FRLSE,32,EQ)  Release
 000029                00029 00029  7432             =         END   ,
1M1SERV   (M1SE00) (09:42) (22MAR04) IHAPSAE  - PSA Extension (ESAME)                                                       Page   38
0Current Usings:  (PZERO,R0)
0Loc    Object Code    Addr1 Addr2  Stmt Lv Lineno    Source Statement           (Hibal 5, Asmedit 3.3)  HLASM R4.0  2004/03/22 09.42
+___    ______ ____    _____ _____  ____ __ ______    ______ _________
0                                   7442             =*
                                    7443             =*   M1FPOST -- This area maps the parm area of the FILE
                                    7444             =*              I/O complete exit.
                                    7445             =*
-000000                00000 00010  7447             =@M1FPOST RECORD BEGIN
 000000                             7455  1          =@M1FPRQI   DS    A             Request id (IDT)
                                    7456  1          =@M1FREDV   EQU   X'80'         Free the device please
 000004                             7457  1          =@M1FPR14   DS    A             Value of R14 to be returned to user
 000008                             7458  1          =@M1FPR15   DS    A             Value of R15 to be returned to user
 00000C                             7459  1          =@M1FPR01   DS    A             Value of R1 to be returned to user
 000010                00010 00010  7460             =         END   ,
-                                   7470             =*
                                    7471             =*  @FILEBLKI -- This area maps the parm area of the FILE
                                    7472             =*               system info area
                                    7473             =*
-000000                00000 00025  7475             =@FILEBLKI RECORD BEGIN                 File system block information
 000000                             7483  1          =@FILFSID   DS    A                       File system ID
                                    7484  1          =* -- Return Parameters --
 000004                             7485  1          =@FILTBLK   DS    A                       Total blocks in file system
 000008                             7486  1          =@FILABLK   DS    A                       Available blocks in file sys
 00000C                             7487  1          =@FILUMAX   DS    A                       Maximum user block allocation
 000010                             7488  1          =@FILNAME   DS    CL8                     File system name
 000018                             7489  1          =@FILCACT   DS    D                   Number of cache reads
 000020                             7490  1          =@FILIOCT   DS    F                   Number of I/O's
 000024 00                          7491  1          =@FILFLAG   FLAG  ,
 @FILFLAG.@FILFNA  80 ONES          7495  1          =           FLAG  @FILFNA                 Not available
 @FILFLAG.@FILFRO  40 ONES          7500  1          =           FLAG  @FILFRO                 Read only
 @FILFLAG.@FILFCAC 20 ONES          7505  1          =           FLAG  @FILFCACHE              File caching is enabled
 @FILFLAG.@FILF4K  10 ONES          7510  1          =           FLAG  @FILF4K                 4K file system
 000025                00025 00025  7515             =         END   ,
-                                   7525             =*
                                    7526             =*  @FILINFO -- This area maps the parm area of the individual
                                    7527             =*              file information area.
                                    7528             =*
-000000                00000 00036  7530             =@FMFINFO RECORD BEGIN
 000000                             7538  1          =@FMFIDID   DS    A                       Address of this file's ID
                                    7539  1          =*  Returned parameters
 000004                             7540  1          =@FMFIBLK   DS    A                       Number of blocks in file
 000008                             7541  1          =@FMFIPRI   DS    X                       File privileges
 000009 00                          7542  1          =@FMFIFLG   FLAG  ,
 @FMFIFLG.@FMFISHR 80 ONES          7546  1          =           FLAG  @FMFISHR                Shared file
 @FMFIFLG.@FMFIRSV 40 ONES          7551  1          =           FLAG  @FMFIRSV                Reserved
 @FMFIFLG.@FMFITMP 20 ONES          7556  1          =           FLAG  @FMFITMP                Temporary
 @FMFIFLG.@FMFINIX 10 ONES          7561  1          =           FLAG  @FMFINIX                Non-IXRed
1M1SERV   (M1SE00) (09:42) (22MAR04) IHAPSAE  - PSA Extension (ESAME)                                                       Page   39
0Current Usings:  (PZERO,R0)
0Loc    Object Code    Addr1 Addr2  Stmt Lv Lineno    Source Statement           (Hibal 5, Asmedit 3.3)  HLASM R4.0  2004/03/22 09.42
+___    ______ ____    _____ _____  ____ __ ______    ______ _________
0@FMFIFLG.@FMFIATT 08 ONES          7566  1          =           FLAG  @FMFIATT                File being attached
 @FMFIFLG.@FMFIHYB 04 ONES          7571  1          =           FLAG  @FMFIHYB                Hybrid file
 00000A                             7576  1          =@FMFINAM   DS    CL44                    File name
 000036                00036 00036  7577             =         END   ,
-                                   7587             =*
                                    7588             =*  @FILEHALT -- This maps the parm area of the file HALT service
                                    7589             =*
-000000                00000 00004  7591             =@FILEHALT RECORD BEGIN
 000000                             7599  1          =@FHRQID    DS    A                       Request ID to be halted (RQB)
 000004                00004 00004  7600             =         END   ,
0000000                00000 00004  7610             =@FMRQFB  RECORD BEGIN
 000000                             7618  1          =@FMRQFBP   DS    A
 000004                00004 00004  7619             =         END   ,
-000000                00000 00005  7630             =@FMFSB  RECORD BEGIN
 000000                             7638  1          =@FMFSBP    DS    A
 000004 00                          7639  1          =@FMFSBF    FLAG  ,
 @FMFSBF.@FMFSBO   80 ONES          7643  1          =           FLAG  @FMFSBO             Flag is on
 000005                00005 00005  7648             =         END   ,
0000000                00000 00010  7658             =@FDOIODO RECORD BEGIN              IO read/write routine
 000000                             7666  1          =@FDOFSB    DS    A                   FSB address
 000004                             7667  1          =@FDOBLK    DS    A                   Block number
 000008                             7668  1          =@FDODATA   DS    A                   Data address
 00000C                             7669  1          =@FDODATL   DS    H                   Data length
 00000E                             7670  1          =@FDOTYPE   DS    X                   Block type
 00000F 00                          7671  1          =@FDOFLAG   FLAG  ,
 @FDOFLAG.@FDOFR   80 ONES          7675  1          =           FLAG  @FDOFR              Read
 @FDOFLAG.@FDOFW   40 ONES          7680  1          =           FLAG  @FDOFW              Write
 @FDOFLAG.@FDOFUSE 20 ONES          7685  1          =           FLAG  @FDOFUSE            User record IO
 @FDOFLAG.@FDOS106 10 ONES          7690  1          =           FLAG  @FDOS106            Status 106, read real block
 @FDOFLAG.@FDOS115 08 ONES          7695  1          =           FLAG  @FDOS115            Status 115, read block header
 @FDOFLAG.@FDODISK 04 ONES          7700  1          =           FLAG  @FDODISK            Read from disk, not cache
 000010                00010 00010  7705             =         END   ,
0000000                00000 00008  7715             =@FSADDV RECORD BEGIN
 000000                             7723  1          =@FSADDVF   DS    A                   File system name pointer
 000004                             7724  1          =@FSADDVD   DS    A                   DSN name pointer
 000008                00008 00008  7725             =         END   ,
1M1SERV   (M1SE00) (09:42) (22MAR04) IHAPSAE  - PSA Extension (ESAME)                                                       Page   40
0Current Usings:  (PZERO,R0)
0Loc    Object Code    Addr1 Addr2  Stmt Lv Lineno    Source Statement           (Hibal 5, Asmedit 3.3)  HLASM R4.0  2004/03/22 09.42
+___    ______ ____    _____ _____  ____ __ ______    ______ _________
0                                   7735      52.              COPY  UPTHPARM
                                    7736             =*****************************************************************
                                    7737             =*                                                               *
                                    7738             =*  PATHPARM -- Parameters dealing with SCOM SVC I/O.            *
                                    7739             =*                                                               *
                                    7740             =*****************************************************************
-                                   7742             =*
                                    7743             =*  M1PATH  --  Mode 1 path operation
                                    7744             =*
0000000                00000 00017  7746             =@M1PATH  RECORD BEGIN
 000000                             7754  1          =@M1PR01    DS    A             Contents of R1 at SVC time
 000004                             7755  1          =@M1PR14    DS    A             Contents of R14 at SVC time
 000008                             7756  1          =@M1PR15    DS    A             Contents of R15 at SVC time
 00000C                             7757  1          =@M1PRQID   DS    A             Request ID
 000010                             7758  1          =@M1PDVID   DS    A             Device ID
                                    7759  1          =
 000014                             7760  1          =@M1PPKEY   DS    X             PSW key of requestor
                                    7761  1          =
 000015 00                          7762  1          =@M1PTYPE   FLAG  ,             I/O type
 @M1PTYPE.@M1PATCH 04 EQ            7766  1          =           FLAG  (@M1PATCH,4,EQ)   Attach
 @M1PTYPE.@M1PREAD 08 EQ            7776  1          =           FLAG  (@M1PREAD,8,EQ)   Read
 @M1PTYPE.@M1PWRIT 0C EQ            7786  1          =           FLAG  (@M1PWRIT,12,EQ)  Write
 @M1PTYPE.@M1PHALT 10 EQ            7796  1          =           FLAG  (@M1PHALT,16,EQ)  Halt
 @M1PTYPE.@M1PDTCH 18 EQ            7806  1          =           FLAG  (@M1PDTCH,24,EQ)  Detach
                                    7816  1          =
 000016 00                          7817  1          =@M1PFL     FLAG  ,             I/O flags
 @M1PFL.@M1PWAIT   80 ONES          7821  1          =           FLAG  @M1PWAIT          Mode wait
 @M1PFL.@M1PM31    40 ONES          7826  1          =           FLAG  @M1PM31           User in 31 bit mode
 000017                00017 00017  7831             =         END   ,
-                                   7841             =*
                                    7842             =*   M1PIOCP -- This area maps the parm area of the SCOM
                                    7843             =*              I/O complete exit.
                                    7844             =*
-000000                00000 00010  7846             =@M1PIOCP RECORD BEGIN
 000000                             7854  1          =@M1PICRQ   DS    A             Request ID
 000004                             7855  1          =@M1PIR01   DS    A             Value of R1 to be returned to user
 000008                             7856  1          =@M1PIR14   DS    A             Value of R14 to be returned to user
 00000C                             7857  1          =@M1PIR15   DS    A             Value of R15 to be returned to user
                                    7858  1          =
                                    7859  1          =@M1PINRV   EQU   X'80'         Value should not be returned
 000010                00010 00010  7860             =         END   ,
-                                   7870             =*
                                    7871             =*   M1PATP  -- This area maps the parm area of the SCOM
                                    7872             =*              ATTN exit.
                                    7873             =*
1M1SERV   (M1SE00) (09:42) (22MAR04) IHAPSAE  - PSA Extension (ESAME)                                                       Page   41
0Current Usings:  (PZERO,R0)
0Loc    Object Code    Addr1 Addr2  Stmt Lv Lineno    Source Statement           (Hibal 5, Asmedit 3.3)  HLASM R4.0  2004/03/22 09.42
+___    ______ ____    _____ _____  ____ __ ______    ______ _________
0000000                00000 0000C  7875             =@M1PATP  RECORD BEGIN
 000000                             7883  1          =@M1PATRQ   DS    A             Request ID passed at last I/O
 000004                             7884  1          =           DS    2A            Reserved
 00000C                0000C 0000C  7885             =         END   ,
1M1SERV   (M1SE00) (09:42) (22MAR04) IHAPSAE  - PSA Extension (ESAME)                                                       Page   42
0Current Usings:  (PZERO,R0)
0Loc    Object Code    Addr1 Addr2  Stmt Lv Lineno    Source Statement           (Hibal 5, Asmedit 3.3)  HLASM R4.0  2004/03/22 09.42
+___    ______ ____    _____ _____  ____ __ ______    ______ _________
0                                   7895      54.              COPY  UJESPARM
                                    7896             =*****************************************************************
                                    7897             =*                                                               *
                                    7898             =*  UJESPARM - User JES parameters                               *
                                    7899             =*                                                               *
                                    7900             =*****************************************************************
-                                   7902             =*
                                    7903             =*  M1JES  --  Mode 1 JES operation
                                    7904             =*
0000000                00000 00017  7906             =@M1JES   RECORD BEGIN
 000000                             7914  1          =@M1JR01    DS    A             Contents of R1 at SVC time
 000004                             7915  1          =@M1JR14    DS    A             Contents of R14 at SVC time
 000008                             7916  1          =@M1JR15    DS    A             Contents of R15 at SVC time
 00000C                             7917  1          =@M1JRQID   DS    A             Request ID
 000010                             7918  1          =@M1JDVID   DS    A             Device ID
                                    7919  1          =
 000014                             7920  1          =@M1JPKEY   DS    X             PSW key of requestor
                                    7921  1          =
 000015 00                          7922  1          =@M1JTYPE   FLAG  ,             I/O type
 @M1JTYPE.@M1JATCH 04 EQ            7926  1          =           FLAG  (@M1JATCH,4,EQ)   Attach
 @M1JTYPE.@M1JWRIT 08 EQ            7936  1          =           FLAG  (@M1JWRIT,8,EQ)   Write
 @M1JTYPE.@M1JCNTL 0C EQ            7946  1          =           FLAG  (@M1JCNTL,12,EQ)  Control
 @M1JTYPE.@M1JHALT 10 EQ            7956  1          =           FLAG  (@M1JHALT,16,EQ)  Halt
 @M1JTYPE.@M1JDTCH 14 EQ            7966  1          =           FLAG  (@M1JDTCH,20,EQ)  Detach
                                    7976  1          =
 000016 00                          7977  1          =@M1JFL     FLAG  ,             I/O flags
 @M1JFL.@M1JWAIT   80 ONES          7981  1          =           FLAG  @M1JWAIT          Mode wait
 @M1JFL.@M1JM31    40 ONES          7986  1          =           FLAG  @M1JM31           User in 31 bit mode
 000017                00017 00017  7991             =         END   ,
-                                   8001             =*
                                    8002             =*   M1JIOCP -- This area maps the parm area of the JES
                                    8003             =*              I/O complete exit.
                                    8004             =*
-000000                00000 00010  8006             =@M1JIOCP RECORD BEGIN
 000000                             8014  1          =@M1JICRQ   DS    A             Request ID
                                    8015  1          =@M1JDONE   EQU   X'80'         This device no longer valid - Done
                                    8016  1          =
 000004                             8017  1          =@M1JIR01   DS    A             Value of R1 to be returned to user
 000008                             8018  1          =@M1JIR14   DS    A             Value of R14 to be returned to user
 00000C                             8019  1          =@M1JIR15   DS    A             Value of R15 to be returned to user
                                    8020  1          =
                                    8021  1          =@M1JINRV   EQU   X'80'         Value should not be returned
 000010                00010 00010  8022             =         END   ,
1M1SERV   (M1SE00) (09:42) (22MAR04) IHAPSAE  - PSA Extension (ESAME)                                                       Page   43
0Current Usings:  (PZERO,R0)
0Loc    Object Code    Addr1 Addr2  Stmt Lv Lineno    Source Statement           (Hibal 5, Asmedit 3.3)  HLASM R4.0  2004/03/22 09.42
+___    ______ ____    _____ _____  ____ __ ______    ______ _________
0                                   8032      56.              COPY  UNETPARM
                                    8033             =*****************************************************************
                                    8034             =*                                                               *
                                    8035             =*  UNETPARM - User NET parameters                               *
                                    8036             =*                                                               *
                                    8037             =*****************************************************************
-                                   8039             =*
                                    8040             =*  M1NET  --  Mode 1 NET operation
                                    8041             =*
0000000                00000 00017  8043             =@M1NET   RECORD BEGIN
 000000                             8051  1          =@M1NR01    DS    A             Contents of R1 at SVC time
 000004                             8052  1          =@M1NR14    DS    A             Contents of R14 at SVC time
 000008                             8053  1          =@M1NR15    DS    A             Contents of R15 at SVC time
 00000C                             8054  1          =@M1NRQID   DS    A             Request ID
 000010                             8055  1          =@M1NDVID   DS    A             Device ID
                                    8056  1          =
 000014                             8057  1          =@M1NPKEY   DS    X             PSW key of requestor
                                    8058  1          =
 000015 00                          8059  1          =@M1NTYPE   FLAG  ,             I/O type
 @M1NTYPE.@M1NATCH 04 EQ            8063  1          =           FLAG  (@M1NATCH,4,EQ)   Attach
 @M1NTYPE.@M1NREAD 08 EQ            8073  1          =           FLAG  (@M1NREAD,8,EQ)   Read
 @M1NTYPE.@M1NWRIT 0C EQ            8083  1          =           FLAG  (@M1NWRIT,12,EQ)  Write
 @M1NTYPE.@M1NCNTL 10 EQ            8093  1          =           FLAG  (@M1NCNTL,16,EQ)  Control
 @M1NTYPE.@M1NHALT 14 EQ            8103  1          =           FLAG  (@M1NHALT,20,EQ)  Halt
 @M1NTYPE.@M1NDTCH 18 EQ            8113  1          =           FLAG  (@M1NDTCH,24,EQ)  Detach
                                    8123  1          =
 000016 00                          8124  1          =@M1NFL     FLAG  ,             I/O flags
 @M1NFL.@M1NWAIT   80 ONES          8128  1          =           FLAG  @M1NWAIT          Mode wait
 @M1NFL.@M1NM31    40 ONES          8133  1          =           FLAG  @M1NM31           User in 31 bit mode
 000017                00017 00017  8138             =         END   ,
-                                   8148             =*
                                    8149             =*   M1NIOCP -- This area maps the parm area of the NET
                                    8150             =*              I/O complete exit.
                                    8151             =*
-000000                00000 00010  8153             =@M1NIOCP RECORD BEGIN
 000000                             8161  1          =@M1NICRQ   DS    A             Request ID
                                    8162  1          =
 000004                             8163  1          =@M1NIR01   DS    A             Value of R1 to be returned to user
 000008                             8164  1          =@M1NIR14   DS    A             Value of R14 to be returned to user
 00000C                             8165  1          =@M1NIR15   DS    A             Value of R15 to be returned to user
                                    8166  1          =
                                    8167  1          =@M1NINRV   EQU   X'80'         Value should not be returned
 000010                00010 00010  8168             =         END   ,
1M1SERV   (M1SE00) (09:42) (22MAR04) IHAPSAE  - PSA Extension (ESAME)                                                       Page   44
0Current Usings:  (PZERO,R0)
0Loc    Object Code    Addr1 Addr2  Stmt Lv Lineno    Source Statement           (Hibal 5, Asmedit 3.3)  HLASM R4.0  2004/03/22 09.42
+___    ______ ____    _____ _____  ____ __ ______    ______ _________
0                                   8178      58.              COPY  XASPARM             Cross address space parms
                                    8179             =*
                                    8180             =*  Parameter block for cross address space communication
                                    8181             =*
 000000                00000 0001C  8182             =XASPARM  RECORD BEGIN                  Command parms for XAS channel
 000000                             8190  1          =XAPLINK    DS    A                       CS link field
 000004                             8191  1          =XAPLEN     DS    A                       Length of this CB
 000008                             8192  1          =XAPCMD     DS    A                       Command code
 00000C                             8193  1          =XAPRC      DS    A                       Return code
 000010                             8194  1          =XAPSYSR    DS    A                       System routine ID
 000014                             8195  1          =XAPRASB    DS    A                       ASB of return AS to post
 000018                             8196  1          =XAPRECB    DS    A                       Addr of return ECB to post
 00001C                             8197  1          =XAPREQ     DS    0A                      Request dependent area
 00001C                0001C 0001C  8198             =         END   ,
                                    8207             =*
                                    8208             =*  Memory examination specicific section of XASPARM
                                    8209             =*
 000000                00000 0000C  8210             =XAPMEM   RECORD BEGIN                  Read memory parameters
 000000                             8218  1          =XAPSLOC    DS    A                       Source address of operation
 000004                             8219  1          =XAPDLOC    DS    A                       Destination buffer location
 000008                             8220  1          =XAPDLEN    DS    A                        and length
 00000C                0000C 0000C  8221             =         END   ,
                                    8230             =*
                                    8231             =*  Time-out processing parameters
                                    8232             =*
 000000                00000 00011  8233             =XAPTIME  RECORD BEGIN
 000000                             8241  1          =XATXRID    DS    A                       Exit routine ID
 000004                             8242  1          =XATXSID    DS    A                       Exit request ID
 000008                             8243  1          =XATXMSK    DS    A                       Previous exit mask
 00000C                             8244  1          =XATRTID    DS    A                       Real time timer
 000010 00                          8245  1          =XATFLAG    FLAG  ,
 XATFLAG.XATFMSK   80 ONES          8249  1          =           FLAG  XATFMSK                 Exit mask is valid
 000011                00011 00011  8254             =         END   ,
                                    8263             =*
                                    8264             =*  Command codes
                                    8265             =*
                                    8266             =XACLGOFF EQU   0                       Logoff code
                                    8267             =XACRMEM  EQU   4                       Read memory
                                    8268             =XACLAST  EQU   4                       -Last Code Defined-
                                    8269             =*
                                    8270             =*  Return codes for requests
                                    8271             =*
                                    8272             =XARCOK   EQU   0                       Return code - completed
                                    8273             =XARCFAIL EQU   4                       Function request failed
                                    8274             =XARCBUSY EQU   8                       Address space channel busy
                                    8275             =XARCSETUP EQU  12                      Failure in setting up request
                                    8276             =XARCTIME EQU   16                      Request timed-out
                                    8277             =XARCPOST EQU   20                      Trouble posting AS
                                    8278             =XARCNOAS EQU   24                      Requested AS not available
                                    8279             =XARCNIMP EQU   28                      Function not implemented
                                    8280             =*
                                    8281             =*  Definitions of data area for halt processing
                                    8282             =*
 000000                00000 0000C  8283             =XASHALT  RECORD BEGIN
1M1SERV   (M1SE00) (09:42) (22MAR04) IHAPSAE  - PSA Extension (ESAME)                                                       Page   45
0Current Usings:  (PZERO,R0)
0Loc    Object Code    Addr1 Addr2  Stmt Lv Lineno    Source Statement           (Hibal 5, Asmedit 3.3)  HLASM R4.0  2004/03/22 09.42
+___    ______ ____    _____ _____  ____ __ ______    ______ _________
0000000                             8291  1          =XAHFP      DS    A                       Fwd ptr to nxt halt element
 000004                             8292  1          =XAHRTN     DS    A                       Addr of rtn for cleanup
 000008                             8293  1          =XAHPARM    DS    A                       Parameter for cleanup rtn
 00000C                0000C 0000C  8294             =         END   ,
0000000                00000 00004  8304             =@XACLEAN RECORD BEGIN                  Parameters for cleanup rtns
 000000                             8312  1          =@XACID     DS    A                       ID for cleanup
 000004                00004 00004  8313             =         END   ,
                                    8322             =*
                                    8323             =*  Parameter definitions for module routines
                                    8324             =*
 000000                00000 00008  8325             =@XASPACE RECORD BEGIN
 000000                             8333  1          =@XASPARM   DS    A                       Pointer to XASPARM
 000004                             8334  1          =@XASASB    DS    A                       ASB of remote AS
 000008                00008 00008  8335             =         END   ,
0000000                00000 00018  8345             =@XAMEM   RECORD BEGIN
 000000                             8353  1          =@XAMASB    DS    A                       ASB to get memory from
 000004                             8354  1          =@XAMSLOC   DS    A                       Source (local memory address)
 000008                             8355  1          =@XAMDLOC   DS    A                       Destination (global buffer)
 00000C                             8356  1          =@XAMDLEN   DS    A                        and length
 000010                             8357  1          =@XAMTIME   DS    D                       Timeout value (TOD units)
 000018                00018 00018  8358             =         END   ,
1M1SERV   (M1SE00) (09:42) (22MAR04) IHAPSAE  - PSA Extension (ESAME)                                                       Page   46
0Current Usings:  (PZERO,R0)
0Loc    Object Code    Addr1 Addr2  Stmt Lv Lineno    Source Statement           (Hibal 5, Asmedit 3.3)  HLASM R4.0  2004/03/22 09.42
+___    ______ ____    _____ _____  ____ __ ______    ______ _________
0                                   8368      60.              COPY  CACHPARM            Caching routines parameters
                                    8369=            =
                                    8370=            =
                                    8371=            =        CACHPARM - Caching routine calling parms
                                    8372=            =

0000000                00000 00009  8373             =@CAOPEN  RECORD BEGIN              CAOPEN parameters...
 000000                             8381  1          =@CAODLEN   DS    F                   Data entry length
 000004                             8382  1          =@CAONBUF   DS    F                   Number of buffers
 000008 00                          8383  1          =@CAOFLAG   FLAG  ,                   Flag
 @CAOFLAG.@CAOFNOT 80 ONES          8387  1          =           FLAG  @CAOFNOT            Don't dump cache blocks
 000009                00009 00009  8392             =         END
                                    8401=            =
 000000                00000 0000C  8402             =@CACTRL  RECORD BEGIN              CACTRL parameters...
 000000                             8410  1          =@CACCIT    DS    A                   CIT ptr
 000004                             8411  1          =@CACCNO    DS    F                   Control number
 000008                             8412  1          =@CACPARM   DS    F                   Control parameter
 00000C                0000C 0000C  8413             =         END
                                    8422=            =
 000000                00000 00020  8423             =@CAIO    RECORD BEGIN              CAREAD/CAWRITE parameters...
 000000                             8431  1          =@CAIOCIT   DS    A                   CIT ptr
 000004                             8432  1          =@CAIOHP    DS    A                   Header ptr (move to/from here)
 000008                             8433  1          =@CAIOHL    DS    F                   Header length
 00000C                             8434  1          =@CAIODP    DS    A                   Data ptr   (move to/from here)
 000010                             8435  1          =@CAIODL    DS    F                   Data length
 000018                             8436  1          =@CAIOKEY   DS    D                   64-bit key
 000020                00020 00020  8437             =         END
                                    8446=            =
 000000                00000 00004  8447             =@CAVERIFY RECORD BEGIN             CAVERIFY parameters...
 000000                             8455  1          =@CAVRCIT   DS    A                   CIT ptr
 000004                00004 00004  8456             =         END
                                    8465=            =
 000000                00000 00004  8466             =@CACLOSE RECORD BEGIN              CACLOSE parameters...
 000000                             8474  1          =@CACLCIT   DS    A                   CIT ptr
 000004                00004 00004  8475             =         END
1M1SERV   (M1SE00) (09:42) (22MAR04) IHAPSAE  - PSA Extension (ESAME)                                                       Page   47
0Current Usings:  (PZERO,R0)
0Loc    Object Code    Addr1 Addr2  Stmt Lv Lineno    Source Statement           (Hibal 5, Asmedit 3.3)  HLASM R4.0  2004/03/22 09.42
+___    ______ ____    _____ _____  ____ __ ______    ______ _________
0                                   8485      62.              COPY  SBPARM
                                    8486             =*******************************************************************
                                    8487             =*                                                                 *
                                    8488             =* Macros for the inialization and manipulation of system buffer   *
                                    8489             =* pools for the orvyl file system.                                *
                                    8490             =*                                                                 *
                                    8491             =*******************************************************************
0                                   8493             =*******************************************************************
                                    8494             =*                                                                 *
                                    8495             =* Buffer pool initialization                                      *
                                    8496             =*                                                                 *
                                    8497             =*******************************************************************
 000000                00000 00009  8498             =@SBINIT RECORD BEGIN
 000000                             8506  1          =@SBILEN   DS    A                   Length of a buffer
 000004                             8507  1          =@SBICNT   DS    A                   Count of buffers in pool
 000008 00                          8508  1          =@SBIFLG   FLAG  ,                   Where to create pool flags
                                    8512  1          =*Not supported yet FLAG  @SBLUSR User memory local to the addr space
 @SBIFLG.@SBLSYS   80 ONES          8513  1          =           FLAG  @SBLSYS            Sys memory local to the addr space
                                    8518  1          =*Not supported yet FLAG  @SBGLLO Global memory below the line
 @SBIFLG.@SBGLHI   40 ONES          8519  1          =           FLAG  @SBGLHI            Global memory above the line
 @SBIFLG.@SBFIX    20 ONES          8524  1          =           FLAG  @SBFIX             Create in fixed memory
 000009                00009 00009  8529             =         END   ,
0                                   8539             =*******************************************************************
                                    8540             =*                                                                 *
                                    8541             =* Buffer pool get                                                 *
                                    8542             =*                                                                 *
                                    8543             =*******************************************************************
 000000                00000 0000C  8544             =@SBGET  RECORD BEGIN
 000000                             8552  1          =@SBGPOO   DS    A                   Buffer pool address
 000004                             8553  1          =@SBGADR   DS    A                   Buffer address
 000008                             8554  1          =@SBGLEN   DS    A                   Buffer length
 00000C                0000C 0000C  8555             =         END   ,
0                                   8565             =*******************************************************************
                                    8566             =*                                                                 *
                                    8567             =* Buffer pool free                                                *
                                    8568             =*                                                                 *
                                    8569             =*******************************************************************
 000000                00000 00008  8570             =@SBFREE RECORD BEGIN
 000000                             8578  1          =@SBFPOO   DS    A                   Buffer pool address
 000004                             8579  1          =@SBFADR   DS    A                   Buffer address
 000008                00008 00008  8580             =         END   ,
0000000                00000 00020  8590             =SBWAIT  RECORD BEGIN               System buffer wait block
 000000                             8598  1          =SBWFP      DS    A
 000004                             8599  1          =SBWBP      DS    A
 000008 E2C2E640                    8600  1          =SBWBID     DC    CL4'SBW'
 00000C                             8601  1          =SBWADR     DS   0A                   Address of buffer now available
 00000C                             8602  1          =SBWASB     DS    A                   Address space
 000010                             8603  1          =SBWECB     DS    D                   Wait ECB
 000018                             8604  1          =SBWORD1    DS    A                   Various
 00001C                             8605  1          =SBWORD2    DS    A                   Various
1M1SERV   (M1SE00) (09:42) (22MAR04) IHAPSAE  - PSA Extension (ESAME)                                                       Page   48
0Current Usings:  (PZERO,R0)
0Loc    Object Code    Addr1 Addr2  Stmt Lv Lineno    Source Statement           (Hibal 5, Asmedit 3.3)  HLASM R4.0  2004/03/22 09.42
+___    ______ ____    _____ _____  ____ __ ______    ______ _________
0000020                00020 00020  8606             =         END   ,
1M1SERV   (M1SE00) (09:42) (22MAR04) IHAPSAE  - PSA Extension (ESAME)                                                       Page   49
0Current Usings:  (PZERO,R0)
0Loc    Object Code    Addr1 Addr2  Stmt Lv Lineno    Source Statement           (Hibal 5, Asmedit 3.3)  HLASM R4.0  2004/03/22 09.42
+___    ______ ____    _____ _____  ____ __ ______    ______ _________
0                                   8616      64.              COPY  SLISTMAC
                                    8617             =*******************************************************************
                                    8618             =*                                                                 *
                                    8619             =* Macros for the serialized manipulation of single linked lists   *
                                    8620             =* in memory.  These lists are of the PUSH/POP (LIFO) variety.     *
                                    8621             =* Serialization is achieved using the CDS and CS instructions.    *
                                    8622             =*                                                                 *
                                    8623             =*******************************************************************
0                                   8625             =*******************************************************************
                                    8626             =*                                                                 *
                                    8627             =* Single linked list head fields                                  *
                                    8628             =*                                                                 *
                                    8629             =*******************************************************************
                                    8630             =         MACRO
                                    8631             =&LAB     SHEAD
                                    8632             =         AIF   ('&LAB' EQ '').ERR
                                    8633             =&LAB     DS   0D                   Single linked CDS list
                                    8634             =&LAB.FP  DS    A                   Forward pointer
                                    8635             =&LAB.SEQ DS    A                   CDS sequence number
                                    8636             =         MEXIT
                                    8637             =.ERR     MNOTE 8,'Label (list name) required'
                                    8638             =         MEND
0                                   8640             =*******************************************************************
                                    8641             =*                                                                 *
                                    8642             =* Push an item onto a single linked list                          *
                                    8643             =*                                                                 *
                                    8644             =*******************************************************************
                                    8645             =         MACRO
                                    8646             =&LABEL   SPUSH &HEAD=,&ITEM=
                                    8647             =         LCLC  &X
                                    8648             =         AIF   ('&LABEL' EQ '').NOLAB
                                    8649             =&LABEL   LABEL ,
                                    8650             =.NOLAB   ANOP  ,
                                    8651             =         AIF   ('&HEAD' EQ '').ERR1
                                    8652             =         AIF   ('&ITEM' EQ '').ERR2
                                    8654             =         LM    R14,R15,&HEAD       Get fwd ptr and sequence number
                                    8655             =         LA    RVR,&ITEM           Point to new item
                                    8656             =         LOOP  BEGIN
                                    8657             =         LA    RS,1(R15)           Increment sequence
                                    8658             =         MVC   &ITEM.(L'&HEAD.FP),&HEAD.FP Set item fwd ptr
                                    8659             =         CDS   R14,RVR,&HEAD       Add item to list
                                    8660             =         UNTIL (Z),END
                                    8662             =         AGO   .EXIT
                                    8663             =.ERR1    MNOTE 8,'Head is a required parameter'
                                    8664             =         AGO   .EXIT
                                    8665             =.ERR2    MNOTE 8,'Item is a required parameter'
                                    8666             =.EXIT    ANOP  ,
                                    8667             =         MEND  ,
0                                   8669             =*******************************************************************
                                    8670             =*                                                                 *
                                    8671             =* Pop an item from a single linked list. Addr returned in RVR     *
1M1SERV   (M1SE00) (09:42) (22MAR04) IHAPSAE  - PSA Extension (ESAME)                                                       Page   50
0Current Usings:  (PZERO,R0)
0Loc    Object Code    Addr1 Addr2  Stmt Lv Lineno    Source Statement           (Hibal 5, Asmedit 3.3)  HLASM R4.0  2004/03/22 09.42
+___    ______ ____    _____ _____  ____ __ ______    ______ _________
0                                   8672             =* (zero if the list was empty).                                   *
                                    8673             =*                                                                 *
                                    8674             =*******************************************************************
                                    8675             =         MACRO
                                    8676             =&LABEL   SPOP  &HEAD=
                                    8677             =         AIF   ('&LABEL' EQ '').NOLAB
                                    8678             =&LABEL   LABEL ,
                                    8679             =.NOLAB   ANOP  ,
                                    8680             =         AIF   ('&HEAD' EQ '').ERR1
                                    8682             =         LM    RVR,RS,&HEAD        Get fwd and sequence number
                                    8683             =         LOOP  BEGIN
                                    8684             =         IF    (RVR,Z),EXIT        None to get
                                    8685             =         LR    R14,RVR             Point to first item
                                    8686             =         L     R14,0(R14)          Get fwd pointer
                                    8687             =         LA    R15,1(RS)           Increment sequence
                                    8688             =         CDS   RVR,R14,&HEAD       Remove item from list
                                    8689             =         UNTIL (Z),END
                                    8691             =         AGO   .EXIT
                                    8692             =.ERR1    MNOTE 8,'Head is a required parameter'
                                    8693             =.EXIT    ANOP  ,
                                    8694             =         MEND  ,
0                                   8696             =*******************************************************************
                                    8697             =*                                                                 *
                                    8698             =* Get an available item from list (ptr returned in RVR). Memory   *
                                    8699             =* will be obtained if the list is empty.                          *
                                    8700             =*                                                                 *
                                    8701             =*******************************************************************
                                    8702             =         MACRO
                                    8703             =&LABEL   SAVAIL &HEAD=,&LEN=,&LOC=GLOBHI,&FIX=,&PAGE=
                                    8704             =         AIF   ('&LABEL' EQ '').NOLAB
                                    8705             =&LABEL   LABEL ,
                                    8706             =.NOLAB   ANOP  ,
                                    8707             =         AIF   ('&HEAD' EQ '').ERR1
                                    8708             =         AIF   ('&LEN' EQ '').ERR2
                                    8709             =         SPOP  HEAD=&HEAD          pop a free item
                                    8710             =         IF    (RVR,Z),BEGIN       empty list
                                    8711             =         VMGET &LEN,LOC=&LOC,FIX=&FIX,PAGE=&PAGE
                                    8712             =         IF    ('LTR RVR,RVR',ZERO),'ABORT NO_MEM_&HEAD'
                                    8713             =         END   ,
                                    8714             =         AGO   .EXIT
                                    8715             =.ERR1    MNOTE 8,'Head is a required parameter'
                                    8716             =         AGO   .EXIT
                                    8717             =.ERR2    MNOTE 8,'Len is a required parameter'
                                    8718             =.EXIT    ANOP  ,
                                    8719             =         MEND  ,
0000000                00000 00008  8721             =SLDUMMY  RECORD BEGIN
                                    8729  1          =SLDUM      SHEAD ,
 000000                             8730  1 01-08633 +SLDUM      DS   0D                   Single linked CDS list
 000000                             8731  1 01-08634 +SLDUMFP    DS    A                   Forward pointer
 000004                             8732  1 01-08635 +SLDUMSEQ   DS    A                   CDS sequence number
 000008                00008 00008  8733             =         END
1M1SERV   (M1SE00) (09:42) (22MAR04) IHAPSAE  - PSA Extension (ESAME)                                                       Page   51
0Current Usings:  (PZERO,R0)
0Loc    Object Code    Addr1 Addr2  Stmt Lv Lineno    Source Statement           (Hibal 5, Asmedit 3.3)  HLASM R4.0  2004/03/22 09.42
+___    ______ ____    _____ _____  ____ __ ______    ______ _________
0                                   8743      66.              COPY  SIGPARM
                                    8744             =*
                                    8745             =*  AWAIT/AWAITAS parameters
                                    8746             =*    For task based calls, the ECB is a double word.
                                    8747             =*    For address space based calls, the ECB is a word.
                                    8748             =*
 000000                00000 00005  8749             =@AWAIT   RECORD BEGIN
 000000                             8757  1          =@AWTECB    DS    A                       Address of ECB
 000004 00                          8758  1          =@AWTFLG    FLAG  ,
 @AWTFLG.@AWTLONG  80 ONES          8762  1          =           FLAG  @AWTLONG                Long term wait
 000005                00005 00005  8767             =         END   ,
0                                   8777             =*
                                    8778             =*  SIGNAL/SIGNALAS parameters
                                    8779             =*    For task based calls, the ECB and post code is a double word.
                                    8780             =*    For address space based calls, the ECB and post code is a word.
                                    8781             =*
 000000                00000 00014  8782             =@SIGNAL  RECORD BEGIN
 000000                             8790  1          =@SGCODE    DS    D                       Post code
 000008                             8791  1          =@SGECB     DS    A                       Address of ECB
                                    8792  1          =*  -- Parms for task signal --
                                    8793  1          =*    Zero ASB means post in this AS
                                    8794  1          =*    @PSSRID is only used for cross AS posts
 00000C                             8795  1          =@SGASB     DS    A                       ASB to be posted
 000010                             8796  1          =@SGSRID    DS    A                       System routine ID for cross
                                    8797  1          =*                                          AS posting
 000014                00014 00014  8798             =         END   ,
1M1SERV   (M1SE00) (09:42) (22MAR04) IHAPSAE  - PSA Extension (ESAME)                                                       Page   52
0Current Usings:  (PZERO,R0)
0Loc    Object Code    Addr1 Addr2  Stmt Lv Lineno    Source Statement           (Hibal 5, Asmedit 3.3)  HLASM R4.0  2004/03/22 09.42
+___    ______ ____    _____ _____  ____ __ ______    ______ _________
0                                   8808      68.     *******************************************************************
                                    8809      69.     *                                                                 *
                                    8810      70.     *     UTRACE -  Mode 1 Trace request                              *
                                    8811      71.     *                                                                 *
                                    8812      72.     *******************************************************************
0                                   8814      74.              MACRO
                                    8815      75.     &L       UTRACE &CLASS=,&CODE=,&PSW=SCPPSW,&DATA=
                                    8816      76.     .*
                                    8817      77.     .* Mode 1 local session trace
                                    8818      78.     .*
                                    8819      79.              LCLA  &CLSNUM,&DWC,&DWI,&DWL
                                    8820      80.              PSET  @UTRACE,CLEAR=NO
                                    8821      81.     .*
                                    8822      82.     .* Determine trace class
                                    8823      83.     &CLSNUM  SETA  0
                                    8824      84.              AIF   ('&CLASS' EQ 'SVC').GOTCLS
                                    8825      85.     &CLSNUM  SETA  1
                                    8826      86.              AIF   ('&CLASS' EQ 'PI').GOTCLS
                                    8827      87.     &CLSNUM  SETA  2
                                    8828      88.              AIF   ('&CLASS' EQ 'PER').GOTCLS
                                    8829      89.     &CLSNUM  SETA  3
                                    8830      90.              AIF   ('&CLASS' EQ 'MON').GOTCLS
                                    8831      91.     &CLSNUM  SETA  4
                                    8832      92.              AIF   ('&CLASS' EQ 'IO').GOTCLS
                                    8833      93.     &CLSNUM  SETA  5
                                    8834      94.              AIF   ('&CLASS' EQ 'TIMER').GOTCLS
                                    8835      95.     &CLSNUM  SETA  6
                                    8836      96.              AIF   ('&CLASS' EQ 'ATTN').GOTCLS
                                    8837      97.     &CLSNUM  SETA  7
                                    8838      98.              AIF   ('&CLASS' EQ 'RUNCLP').GOTCLS
                                    8839      99.     &CLSNUM  SETA  8
                                    8840     100.              AIF   ('&CLASS' EQ 'RUNUSER').GOTCLS
                                    8841     101.     &CLSNUM  SETA  9
                                    8842     102.              AIF   ('&CLASS' EQ 'UXIT').GOTCLS
                                    8843     103.              MNOTE 8,'INVALID TRACE CLASS'
                                    8844     104.              MEXIT
                                    8845     105.     .GOTCLS  ANOP
                                    8846     106.              MVI   @UTCLASS,&CLSNUM
                                    8847     107.     .*
                                    8848     108.     .* Add sub-class
                                    8849     109.     .*
                                    8850     110.              AIF   (N'&CODE NE 1).NOCODE
                                    8851     111.              PMOV  @UTCODE,&CODE
                                    8852     112.              AGO   .CODEOK
                                    8853     113.     .NOCODE  ANOP
                                    8854     114.              CLEAR @UTCODE
                                    8855     115.     .CODEOK  ANOP
                                    8856     116.     .*
                                    8857     117.     .* Add current PSW
                                    8858     118.     .*
                                    8859     119.              AIF   (N'&PSW NE 1).NOPSW
                                    8860     120.              PMOV  @UTPSW,&PSW
                                    8861     121.              AGO   .PSWOK
1M1SERV   (M1SE00) (09:42) (22MAR04) IHAPSAE  - PSA Extension (ESAME)                                                       Page   53
0Current Usings:  (PZERO,R0)
0Loc    Object Code    Addr1 Addr2  Stmt Lv Lineno    Source Statement           (Hibal 5, Asmedit 3.3)  HLASM R4.0  2004/03/22 09.42
+___    ______ ____    _____ _____  ____ __ ______    ______ _________
0                                   8862     122.     .NOPSW   ANOP
                                    8863     123.              CLEAR @UTPSW
                                    8864     124.     .PSWOK   ANOP
                                    8865     125.     .*
                                    8866     126.     .* Add the data words
                                    8867     127.     .*
                                    8868     128.     &DWC     SETA  0
                                    8869     129.     &DWI     SETA  N'&DATA
                                    8870     130.     .DATLOOP AIF   (&DWC EQ &DWI).DATEND
                                    8871     131.     &DWL     SETA  &DWC*4
                                    8872     132.              MVC   @UTDATA+&DWL.(4),&DATA(&DWC+1)
                                    8873     133.     &DWC     SETA  &DWC+1
                                    8874     134.              AGO   .DATLOOP
                                    8875     135.     .DATEND  ANOP
                                    8876     136.     .*
                                    8877     137.     .* Set the number of data words
                                    8878     138.     .*
                                    8879     139.              MVI   @UTDWC,&DWC
                                    8880     140.     .*
                                    8881     141.     .* Call the trace routine
                                    8882     142.     .*
                                    8883     143.              ACALL  UTRACE
                                    8884     144.              MEND
1M1SERV   (M1SE00) (09:42) (22MAR04) IHAPSAE  - PSA Extension (ESAME)                                                       Page   54
0Current Usings:  (PZERO,R0)
0Loc    Object Code    Addr1 Addr2  Stmt Lv Lineno    Source Statement           (Hibal 5, Asmedit 3.3)  HLASM R4.0  2004/03/22 09.42
+___    ______ ____    _____ _____  ____ __ ______    ______ _________
0                                   8886     146.     *******************************************************************
                                    8887     147.     *                                                                 *
                                    8888     148.     *     M1CT   -  Mode 1 Control Table                              *
                                    8889     149.     *                                                                 *
                                    8890     150.     *******************************************************************
0000000                00000 0006C  8892     152.     M1CT     RECORD BEGIN
 000000 D4F1C3E3                    8900  1  153.     CTID       DC    CL4'M1CT'               ID
                                    8901  1  154.     *
                                    8902  1  155.     *  SHARED PROGRAM CONTROL
                                    8903  1  156.     *
 000004                             8904  1  157.     CTSPBS     DS    A                       SPB CHAIN
 000008                             8905  1  158.     CTSPBCLK   DS    A                       SPB CHAIN LOCK ID
 00000C                             8906  1  159.     CTSPBLLK   DS    A                       SPB LOADING LOCK ID
 000010                             8907  1  160.     CTSPBSIZ   DS    A                       SHARED PROGRAM RESERVE SIZE
 000014                             8908  1  161.                DS    A                       Available
                                    8909  1  162.     *
                                    8910  1  163.     *  SET 21 CONTROL
                                    8911  1  164.     *
 000018                             8912  1  165.     CTST21LK   DS    A                       SET 21 QUEUE LOCK
 00001C                             8913  1  166.     CTST21QH   DS    A                       SET 21 WAIT QUEUE HEAD
 000020                             8914  1  167.     CTST21QT   DS    A                       SET 21 WAIT QUEUE TAIL
                                    8915  1  168.     *
                                    8916  1  169.     *  USER PROGRAM PARAMETERS
                                    8917  1  170.     *
 000024                             8918  1  171.     CTUMORG    DS    A                       USER ADDRESS SPACE ORIGIN
 000028                             8919  1  172.     CTUMSIZ    DS    A                       USER ADDRESS SPACE SIZE
 00002C                             8920  1  173.     CTUMAP     DS    A                       USER MAP SIZE
 000030                             8921  1  174.     CTTRCSIZ   DS    A                       Size of a trace buffer
 000034                             8922  1  175.     CTNTRACE   DS    H                       Number of trace buffers
 000036                             8923  1  176.     CTUMPGS    DS    H                       MAXIMUM NUMBER OF PAGES
 000038                             8924  1  177.     CTNIDT     DS    H                       NUMBER OF IDTS
 00003A                             8925  1  178.     CTNENQ     DS    H                       NUMBER OF ENQS
 00003C                             8926  1  179.     CTTRASH    DS    X                       DEFAULT PAGE TRASH BYTE
 00003D                             8927  1  180.     CTJESR     DS    X                       MAXIMUM JES DEVICES
                                    8928  1  181.     *
                                    8929  1  182.     *  JES DISPLAY INFORMATION
                                    8930  1  183.     *
 000040                             8931  1  184.     CTJDCNT    DS    A                       NUMBER OF JES DISPLAYS
 000044                             8932  1  185.     CTJDPTRS   DS    A                       ADDRESSES AND LENGTHS OF BUFS
                                    8933  1  186.     *
                                    8934  1  187.     *  OTHER STUFF
                                    8935  1  188.     *
 000048                             8936  1  189.     CTASCB     DS    A                       MVS ASCB
 00004C                             8937  1  190.     CTSCVT     DS    A                       POINTER TO SCIP CVT
 000050                             8938  1  191.                DS    A
 000054                             8939  1  192.     CTPCAT     DS    A                       PROGRAM CATALOG
 000058                             8940  1  193.                DS    A                       AVAILABLE
                                    8941  1  194.
 00005C 00                          8942  1  195.     CTMFL      FLAG  ,                       MORE FLAGS
 CTMFL.CTMFPATH    80 ONES          8946  1  196.                FLAG  CTMFPATH                PATHS ARE NOT AVAILABLE
 CTMFL.CTMFOSF     40 ONES          8951  1  197.                FLAG  CTMFOSF                 OS FILES ARE NOT AVAILABLE
 CTMFL.CTMFKEY     20 ONES          8956  1  198.                FLAG  CTMFKEY                 KEYWORD FILE IS NOT AVAILABLE
 CTMFL.CTMFJES     10 ONES          8961  1  199.                FLAG  CTMFJES                 JES READERS NOT AVAILABLE
1M1SERV   (M1SE00) (09:42) (22MAR04) IHAPSAE  - PSA Extension (ESAME)                                                       Page   55
0Current Usings:  (PZERO,R0)
0Loc    Object Code    Addr1 Addr2  Stmt Lv Lineno    Source Statement           (Hibal 5, Asmedit 3.3)  HLASM R4.0  2004/03/22 09.42
+___    ______ ____    _____ _____  ____ __ ______    ______ _________
0CTMFL.CTMFNET     08 ONES          8966  1  200.                FLAG  CTMFNET                 NETWORK NOT AVAILABLE
                                    8971  1  201.     *
                                    8972  1  202.     *  COUNTERS
                                    8973  1  203.     *
 000060                             8974  1  204.     CTPGRELS   DS    A                       Number of pages released
 000064                             8975  1  205.     CTPGCLRS   DS    A                       Number of page "clears"
 000068                             8976  1  206.     CTVMSTAT   DS    A                       --> VM Statistics
 00006C                0006C 0006C  8977     207.              END   ,
1M1SERV   (M1SE00) (09:42) (22MAR04) IHAPSAE  - PSA Extension (ESAME)                                                       Page   56
0Current Usings:  (PZERO,R0)
0Loc    Object Code    Addr1 Addr2  Stmt Lv Lineno    Source Statement           (Hibal 5, Asmedit 3.3)  HLASM R4.0  2004/03/22 09.42
+___    ______ ____    _____ _____  ____ __ ______    ______ _________
0000000                00000 00800  8987     209.     VMSTAT   RECORD BEGIN
 000000                             8995  1  210.     VHRTNCNT   DS    A                       Number of times through list
 000004                             8996  1  211.     VHRTNPTR   DS    A                       Routine pointer
 000008                             8997  1  212.     VHSTCK     DS    D                       TOD place
 000010                             8998  1  213.     VHRTN      DS    (508)A
                                    8999  1  214.     MXRTN      EQU   (*-VHRTN)-12
 000800                00800 00800  9000     215.              END   ,                       -->
1M1SERV   (M1SE00) (09:42) (22MAR04) IHAPSAE  - PSA Extension (ESAME)                                                       Page   57
0Current Usings:  (PZERO,R0)
0Loc    Object Code    Addr1 Addr2  Stmt Lv Lineno    Source Statement           (Hibal 5, Asmedit 3.3)  HLASM R4.0  2004/03/22 09.42
+___    ______ ____    _____ _____  ____ __ ______    ______ _________
0                                   9010     217.              COPY  SCP
                                    9011             =*******************************************************************
                                    9012             =*                                                                 *
                                    9013             =*    SCP  -  Mode 1 Session Control Page                          *
                                    9014             =*                                                                 *
                                    9015             =*******************************************************************
0000000                00000 00294  9017             =SCP      RECORD BEGIN
 000000                             9025  1          =SCPID      DS    CL4'SCP'
                                    9026  1          =
 000008                             9027  1          =SCPPSW     DS    D                       RESUME PSW
 000010                             9028  1          =SCPGPRS    DS    16F                     RESUME GPRS
 000050                             9029  1          =SCPFPRS    DS    4D                      RESUME FPRS
                                    9030  1          =
 000070                             9031  1          =SCPXPSW    DS    D                       EXIT PSW
 000078                             9032  1          =SCPXGPRS   DS    16F                     EXIT GPRS
                                    9033  1          =
 0000B8                             9034  1          =SCPSBPSW   DS    D                       SESSION BREAK PSW
 0000C0                             9035  1          =SCPSBGPR   DS    16F                     SESSION BREAK GPRS
                                    9036  1          =
 000100                             9037  1          =SCPCLPSW   DS    D                       CLP ERROR PSW
 000108                             9038  1          =SCPCLPGP   DS    16F                     CLP ERROR GPRS
                                    9039  1          =
 000148                             9040  1          =SCPSVPSW   DS    D                       SVC ERROR PSW
 000150                             9041  1          =SCPSVGPR   DS    16F                     SVC ERROR GPRS
                                    9042  1          =
 000190                             9043  1          =SCPCTL8    DS    A                       CONTROL REGISTER 8 (MON CALL)
 000194                             9044  1          =SCPCTL9    DS    3A                      CONTROL REGISTERS 9-11 (PER)
                                    9045  1          =
 0001A0                             9046  1          =SCPPXA     DS    A                       PAGING EXCEPTION ADDR
 0001A4                             9047  1          =SCPIPSW    DS    A                       INTERRUPT PSW
 0001A8                             9048  1          =SCPPAN     DS    H                       PANIC CODE
                                    9049  1          =SCPPANSY   EQU   SCPPAN+1,1,C'X'         FOR ONE BYTE PANIC CODE
                                    9050  1          =
                                    9051  1          =PANOPER    EQU   1,,C'N'                 OPERATION ERROR
                                    9052  1          =PANPROT    EQU   4,,C'N'                 PROTECTION ERROR
                                    9053  1          =PANADDR    EQU   5,,C'N'                 ADDRESSING ERROR
                                    9054  1          =PANSPEC    EQU   6,,C'N'                 SPECIFICATION ERROR
                                    9055  1          =PANWAIT    EQU   16,,C'N'                MISSING WAIT ERROR
                                    9056  1          =
 0001AA                             9057  1          =SCPACCT    DS    C'GG.UUU'               SIGNED-ON ACCOUNT
                                    9058  1          =SCPUSER    EQU   SCPACCT+3,3,C'C'        SIGNED-ON USER
                                    9059  1          =SCPGROUP   EQU   SCPACCT,2,C'C'          SIGNED-ON GROUP
                                    9060  1          =*
                                    9061  1          =*SCPPACCT DS    C'GG.UUU'               PSEUDO ACCOUNT
                                    9062  1          =*SCPPUSER EQU   SCPPACCT+3,3,C'C'       PSEUDO USER
                                    9063  1          =*SCPPGRP  EQU   SCPPACCT,2,C'C'         PSEUDO GROUP
                                    9064  1          =*SCPPRIVS DS    X                       PSEUDO ACCOUNT PRIVS
 0001B0                             9065  1          =           DS    XL7                     SPARE
                                    9066  1          =
 0001B7                             9067  1          =SCPPRIV    DS    X                       ACCOUNT PRIVS
 0001B8                             9068  1          =SCPCLW     DS    A                       POINTER TO THE CLW
 0001BC                             9069  1          =SCPPCAT    DS    A                       PROGRAM CATALOG POINTER
1M1SERV   (M1SE00) (09:42) (22MAR04) IHAPSAE  - PSA Extension (ESAME)                                                       Page   58
0Current Usings:  (PZERO,R0)
0D-Loc  Object Code    Addr1 Addr2  Stmt Lv Lineno    Source Statement           (Hibal 5, Asmedit 3.3)  HLASM R4.0  2004/03/22 09.42
+_____  ______ ____    _____ _____  ____ __ ______    ______ _________
00001C0                             9071  1          =SCPSID     DS    D                       SUSPEND ID
 0001C8                             9072  1          =SCPUCLK    DS    A                       USER CLOCK ID
 0001CC                             9073  1          =SCPUCXIT   DS    A                       USER CLOCK EXIT ID
 0001D0                             9074  1          =SCPCCLK    DS    A                       CLP CLOCK ID
 0001D4                             9075  1          =SCPCCXIT   DS    A                       CLP CLOCK EXIT ID
                                    9076  1          =
 0001D8                             9077  1          =SCPTXEP    DS    A                       TIMER EXIT ENTRY POINT
 0001DC                             9078  1          =SCPTXI     DS    A                       USER POINTER FOR TIMER EXIT
 0001E0                             9079  1          =SCPPXEP    DS    A                       PANIC EXIT ENTRY POINT
 0001E4                             9080  1          =SCPPXI     DS    A                       USER POINTER FOR PANIC EXIT
 0001E8                             9081  1          =SCPSXEP    DS    A                       SVC EXIT ENTRY POINT
 0001EC                             9082  1          =SCPSXI     DS    A                       USER POINTER FOR SVC EXIT
                                    9083  1          =
 0001F0                             9084  1          =SCPUMSIZ   DS    A                       ADDRESS SPACE LIMIT
 0001F4                             9085  1          =SCPRRSEG   DS    A                       LOW ADDR FOR RESERVE/RELEASE
 0001F8                             9086  1          =SCPRESRV   DS    H                       RESERVED (GETMAINED) PAGES
 0001FA                             9087  1          =SCPUNRSV   DS    H                       UNRESERVED PAGE COUNT
 0001FC                             9088  1          =SCPUMAP    DS    A                       USER MAP SIZE
                                    9089  1          =
 000200 00                          9090  1          =SCPFL      FLAG  ,                       FLAG BYTE
 SCPFL.SCPFERR     80 ONES          9094  1          =           FLAG  SCPFERR                 ERROR IN CLP
 SCPFL.SCPFPER     40 ONES          9099  1          =           FLAG  SCPFPER                 PER IS ACTIVE
 SCPFL.SCPFMON     20 ONES          9104  1          =           FLAG  SCPFMON                 MONITOR CALL IS ACTIVE
 SCPFL.SCPFPSEU    10 ONES          9109  1          =           FLAG  SCPFPSEU                PSUEDO USER SET
 SCPFL.SCPFSAM     08 ONES          9114  1          =           FLAG  SCPFSAM                 USER IS STAND-ALONE
 SCPFL.SCPFPRT     04 ONES          9119  1          =           FLAG  SCPFPRT                 USER PROGRAM "PROTECTED"
 SCPFL.SCPFTRU     02 ONES          9124  1          =           FLAG  SCPFTRU                 USER TRACE ACTIVE
 SCPFL.SCPFTRC     01 ONES          9129  1          =           FLAG  SCPFTRC                 CLP TRACE ACTIVE
                                    9134  1          =
 000201                             9135  1          =SCPKLUDG   DS    X     ***KLUDGE***      "KLUDGE" BYTE
 000202                             9136  1          =SCPTRASH   DS    X                       MEMORY CLEARING VALUE
 000203                             9137  1          =SCPJESR    DS    X                       NUMBER OF JES READERS IN USE
                                    9138  1          =
 000204                             9139  1          =SCPPER     DS    A                       PER INTERRUPT CODE,ADDRESS
 000208                             9140  1          =SCPMON     DS    A                       MONITOR INTERRUPT CODE,ADDRESS
                                    9141  1          =
 00020C                             9142  1          =SCPIDT     DS    A                       I/O ID TABLES
 000210                             9143  1          =SCPNIDT    DS    H                       NUMBER OF ID BLOCKS
 000212                             9144  1          =SCPQIDT    DS    H                       ENQ/DEQ ID TABLE
                                    9145  1          =
                                    9146  1          =SCPCWASZ   EQU   16,,C'N'                SIZE OF COMMON WORK AREA
 000214                             9147  1          =SCPCWA     DS    (SCPCWASZ)X
                                    9148  1          =
                                    9149  1          =CLWIBUFL   EQU   235                     LENGTH OF COMMAND BUFFER
 000224                             9150  1          =SCPCMDP    DS    A                       =>AL2(LEN),CL133'COMMAND'
 000228                             9151  1          =SCPPARMP   DS    A                       =>AL2(LEN),CL133'PARM'
 00022C                             9152  1          =SCPLCMDL   DS    H                       LENGTH OF LAST CMD
 00022E                             9153  1          =SCPLCMD    DS    CL40                    LAST COMMAND
                                    9154  1          =
 000256                             9155  1          =SCPNENQ    DS    H                       NUMBER OF ALLOWED ENQ'S
 000258                             9156  1          =SCPENQL    DS    A                       ENQUEUE ID TABLE ADDRESS
                                    9157  1          =
 00025C                             9158  1          =SCPTRACE   DS    A                       MODE 1 TRACE BUFFER CHAIN
1M1SERV   (M1SE00) (09:42) (22MAR04) IHAPSAE  - PSA Extension (ESAME)                                                       Page   59
0Current Usings:  (PZERO,R0)
0D-Loc  Object Code    Addr1 Addr2  Stmt Lv Lineno    Source Statement           (Hibal 5, Asmedit 3.3)  HLASM R4.0  2004/03/22 09.42
+_____  ______ ____    _____ _____  ____ __ ______    ______ _________
0                                   9160  1          =*******************************************************************
                                    9161  1          =*                                                                 *
                                    9162  1          =*    SCB  -  Mode 1 Session Control Block                         *
                                    9163  1          =*                                                                 *
                                    9164  1          =*******************************************************************
0000260 00                          9166  1          =SCBWFL     FLAG  ,                       WAIT FLAGS
 SCBWFL.SCBFWAIT   80 ONES          9170  1          =           FLAG  SCBFWAIT                WAITING
                                    9175  1          =
 000261 00                          9176  1          =SCBCFL     FLAG  ,                       COMMON FLAGS
 SCBCFL.SCBCFALP   80 ONES          9180  1          =           FLAG  SCBCFALP                AUTO LOGOFF BEING PROCESSED
 SCBCFL.SCBCFCLA   40 ONES          9185  1          =           FLAG  SCBCFCLA                IDLE ATTN IN CLP
 SCBCFL.SCBCFAX    20 ONES          9190  1          =           FLAG  SCBCFAX                 BRANCH TO ATTENTION EXIT
 SCBCFL.SCBCFNMA   10 ONES          9195  1          =           FLAG  SCBCFNMA                SUPPRESS MULTIPLE ATTN BREAK
 SCBCFL.SCBFNESC   08 ONES          9200  1          =           FLAG  SCBFNESC                FORCE SESSION BREAK ON ATTN
                                    9205  1          =
 000262 00                          9206  1          =SCBFL      FLAG  ,                       FLAGS
 SCBFL.SCBFCLP     80 ONES          9210  1          =           FLAG  SCBFCLP                 CLP IN CONTROL
 SCBFL.SCBFSVC     40 ONES          9215  1          =           FLAG  SCBFSVC                 USER IS IN SVC PROCESSING
 SCBFL.SCBFNPUP    20 ONES          9220  1          =           FLAG  SCBFNPUP                NO PSW CC CHANGES
 SCBFL.SCBFASLK    10 ONES          9225  1          =           FLAG  SCBFASLK                ADDRESS SPACE LOCK HELD
 SCBFL.SCBFPCLP    08 ONES          9230  1          =           FLAG  SCBFPCLP                PSEUDO CLP
                                    9235  1          =
 000263 00                          9236  1          =SCBTFL     FLAG  ,                       TIMER FLAGS
 SCBTFL.SCBTUTR    80 ONES          9240  1          =           FLAG  SCBTUTR                 USER TIMER RUNNING
 SCBTFL.SCBTUCT    40 ONES          9245  1          =           FLAG  SCBTUCT                 USER TIMING CPU TIME
 SCBTFL.SCBTCPTR   20 ONES          9250  1          =           FLAG  SCBTCPTR                COMMAND TIMER RUNNING
 SCBTFL.SCBTCPCT   10 ONES          9255  1          =           FLAG  SCBTCPCT                COMMAND TIMING CPU TIME
 SCBTFL.SCBTCPQU   08 ONES          9260  1          =           FLAG  SCBTCPQU                "QUEUED" TIMER RUNNING
                                    9265  1          =
 000264 00                          9266  1          =SCBMB      FLAG  ,                       EXIT ENABLED FLAG
                                    9270  1          =*
                                    9271  1          =* FOLLOWING FLAGS USED FOR BOTH SCBMB AND SCBXFL
                                    9272  1          =*
 000265 00                          9273  1          =SCBXFL     FLAG   ,                      EXIT FLAGS
 SCBXFL.SCBXT      80 ONES          9277  1          =           FLAG  SCBXT                   TIMER EXIT
 SCBXFL.SCBXA      40 ONES          9282  1          =           FLAG  SCBXA                   ATTN EXIT
 SCBXFL.SCBXW      20 ONES          9287  1          =           FLAG  SCBXW                   WAIT EXIT
 SCBXFL.SCBXP      10 ONES          9292  1          =           FLAG  SCBXP                   PANIC EXIT
 SCBXFL.SCBXCPT    08 ONES          9297  1          =           FLAG  SCBXCPT                 CLP TIMER EXIT
 SCBXFL.SCBXALO    04 ONES          9302  1          =           FLAG  SCBXALO                 AUTO LOGOFF
 SCBXFL.SCBDEFMB   F0 NZ            9307  1          =           FLAG  (SCBDEFMB,SCBXT+SCBXA+SCBXW+SCBXP)  DEFAULT
                                    9327  1          =
 000268                             9328  1          =SCBSPB     DS    A                       SPB POINTER
 00026C                             9329  1          =SCBENQ     DS    A                       ENQUEUE ID
 000270                             9330  1          =SCPEPXIT   DS    A                       ENQUEUE POST EXIT ID
                                    9331  1          =
 000278                             9332  1          =           DS    D                       Available
 000280                             9333  1          =SCBPNAML   DS    H                       LENGTH OF THE PROGRAM NAME
 000282                             9334  1          =SCBPNAM    DS    CL8                     PROGRAM NAME
 00028A                             9335  1          =SCBUPRI    DS    X                       USER PRIORITY
                                    9336  1          =*
                                    9337  1          =* Shared symbol control
                                    9338  1          =*
1M1SERV   (M1SE00) (09:42) (22MAR04) IHAPSAE  - PSA Extension (ESAME)                                                       Page   60
0Current Usings:  (PZERO,R0)
0D-Loc  Object Code    Addr1 Addr2  Stmt Lv Lineno    Source Statement           (Hibal 5, Asmedit 3.3)  HLASM R4.0  2004/03/22 09.42
+_____  ______ ____    _____ _____  ____ __ ______    ______ _________
000028C                             9339  1          =SCBSSAB    DS    A                       POINTER TO SSAB CHAIN
                                    9340  1          =
 000290                             9341  1          =SCBWAITB   DS    A         WAIT BLOCK PTR (SEE M1GOWAIT IN M1SERV)
 000294                00294 00294  9342             =         END
1M1SERV   (M1SE00) (09:42) (22MAR04) IHAPSAE  - PSA Extension (ESAME)                                                       Page   61
0Current Usings:  (PZERO,R0)
0Loc    Object Code    Addr1 Addr2  Stmt Lv Lineno    Source Statement           (Hibal 5, Asmedit 3.3)  HLASM R4.0  2004/03/22 09.42
+___    ______ ____    _____ _____  ____ __ ______    ______ _________
0                                   9352     219.              COPY  SPB
                                    9353             =*******************************************************************
                                    9354             =*                                                                 *
                                    9355             =*    SPB - Shared Program Block                                   *
                                    9356             =*                                                                 *
                                    9357             =*******************************************************************
0000000                00000 00072  9359             =SPB      RECORD BEGIN
 000000                             9367  1          =SPBID      DS    CL4'SPB'
 000004                             9368  1          =SPBNEXT    DS    A                       SPB CHAIN
 000008                             9369  1          =SPBNAME    DS    CL8                 NAME OF SHARED PROGRAM
 000010                             9370  1          =SPBPROG    DS    CL8                 Progran name
 000018                             9371  1          =SPBFILE    DS    CL44                    FILE NAME
                                    9372  1          =
 000044 00                          9373  1          =SPBFL      FLAG  ,                       FLAGS
 SPBFL.SPBFSPI     80 ONES          9377  1          =           FLAG  SPBFSPI                 ACCESS TO SPIRES ONLY FILES
 SPBFL.SPBFPRT     40 ONES          9382  1          =           FLAG  SPBFPRT                 PAGES ARE PROTECTED
 SPBFL.SPBFAUTH    20 ONES          9387  1          =           FLAG  SPBFAUTH                PROGRAM IS AUTHORIZED
 SPBFL.SPBFPURGABL 10 ONES          9392  1          =           FLAG  SPBFPURGABLE        - Purge program if no users
 SPBFL.SPBFLHI     08 ONES          9397  1          =           FLAG  SPBFLHI                 LOAD PROGRAM ABOVE THE LINE
 SPBFL.SPBFM31     04 ONES          9402  1          =           FLAG  SPBFM31                 START IN 31 BIT MODE
 000045 00                          9407  1          =SPBFL2     FLAG  ,
 SPBFL2.SPBFLOAD   80 ONES          9411  1          =           FLAG  SPBFLOAD                PROGRAM BENG LOADED
 SPBFL2.SPBFMEM    40 ONES          9416  1          =           FLAG  SPBFMEM                 MEMORY ALLOC FOR PROGRAM
 SPBFL2.SPBFACTV   20 ONES          9421  1          =           FLAG  SPBFACTV                PROGRAM IS ACTIVE
 SPBFL2.SPBFCORPSE 10 ONES          9426  1          =           FLAG  SPBFCORPSE          - Result of a refresh
                                    9431  1          =
 000048                             9432  1          =SPBORGIN   DS    A                       START ADDRESS OF PROGRAM
 00004C                             9433  1          =SPBSIZE    DS    A                       LENGTH OF PROGRAM AREA
 000050                             9434  1          =SPBEP      DS    A                       ENTRY POINT
 000054                             9435  1          =SPBNU      DS    A                       NO. OF USERS SIGNED ON
 000058                             9436  1          =SPBSSB     DS    A                       Chain of shared symbols
 00005C                             9437  1          =SPBNREF    DS    A                       # users ref'ing symbols
 000060                             9438  1          =SPBRESRV   DS    H                       RESERVE REQUIREMENT
                                    9439  1          =
                                    9440  1          =SPBCWASZ   EQU   16,,C'N'                COMMON WORK AREA
 000062                             9441  1          =SPBCWA     DS    (SPBCWASZ)X
 000072                00072 00072  9442             =         END   ,
1M1SERV   (M1SE00) (09:42) (22MAR04) IHAPSAE  - PSA Extension (ESAME)                                                       Page   62
0Current Usings:  (PZERO,R0)
0Loc    Object Code    Addr1 Addr2  Stmt Lv Lineno    Source Statement           (Hibal 5, Asmedit 3.3)  HLASM R4.0  2004/03/22 09.42
+___    ______ ____    _____ _____  ____ __ ______    ______ _________
0                                   9452     221.              COPY  SSB
                                    9453=            =
                                    9454=            =
                                    9455=            =    SSB - Shared Symbol Block
                                    9456=            =

0000000                00000 000D8  9457             =SSB      RECORD BEGIN
 000000                             9465  1          =SSBID      DS    CL4'SSB'
 000004                             9466  1          =SSBNEXT    DS    A                   Next SSB ptr (or zero)
 000008                             9467  1          =SSBWORD    DS    A                   Symbol value (probably an address)
 00000C 00                          9468  1          =SSBFLAG    FLAG  ,                   Flags
 00000D                             9472  1          =           DS    XL3
 000010                             9473  1          =SSBNAME    DS    CL200               Symbol name
 0000D8                000D8 000D8  9474             =         END
-
-                                   9484     223.              COPY  SSAB
                                    9485=            =
                                    9486=            =
                                    9487=            =    SSAB --   Shared Symbol Access Block
                                    9488=            =
                                    9489=            =              This control block represents the access of a user to
                                    9490=            =              shared symbols.  There is one for each SPB which
                                    9491=            =              contains shared symbols referenced by this user.
                                    9492=            =
                                    9493=            =              When a search for symbols is done, the SPB's in this  ed
                                    9494=            =              list are searched first.  This will ensure that the
                                    9495=            =              program gets a consistent set of symbols.  Each
                                    9496=            =              instance of this control block implies a reference
                                    9497=            =              count in the SPB that this points to.
                                    9498=            =

0000000                00000 0000C  9499             =SSAB     RECORD BEGIN
 000000                             9507  1          =SSABID     DS    CL4'SSAB'
 000004                             9508  1          =SSABNEXT   DS    A             Next SSAB ptr (or zero)
 000008                             9509  1          =SSABSPB    DS    A             Address of the SPB this refers to
 00000C                0000C 0000C  9510             =         END
-                                   9520     225.     *
 000000                00000 000D0  9521     226.     @SSWA    RECORD BEGIN
 000000                             9529  1  227.     @SSNAME    DS    CL(L'SSBNAME)       Working SSB name
 0000C8                             9530  1  228.     @SSWORD    DS    A                   Return value
 0000CC                             9531  1  229.     @SSRV      DS    F                   Return code
 0000D0                000D0 000D0  9532     230.              END
1M1SERV   (M1SE00) (09:42) (22MAR04) IHAPSAE  - PSA Extension (ESAME)                                                       Page   63
0Current Usings:  (PZERO,R0)
0Loc    Object Code    Addr1 Addr2  Stmt Lv Lineno    Source Statement           (Hibal 5, Asmedit 3.3)  HLASM R4.0  2004/03/22 09.42
+___    ______ ____    _____ _____  ____ __ ______    ______ _________
0                                   9542     232.     *******************************************************************
                                    9543     233.     *                                                                 *
                                    9544     234.     *   @UTRACE  -  Mode 1 Trace Table Entry                          *
                                    9545     235.     *                                                                 *
                                    9546     236.     *******************************************************************
0000000                00000 0001C  9548     238.     @UTRACE  RECORD BEGIN
 000000                             9556  1  239.     @UTCLASS   DS    X                       Entry type
                                    9557  1  240.
                                    9558  1  241.     @UTLSVC    EQU   0                       SVC
                                    9559  1  242.     @UTLPI     EQU   1                       Program Interrupt
                                    9560  1  243.     @UTLPER    EQU   2                       PER
                                    9561  1  244.     @UTLMON    EQU   3                       Monitor
                                    9562  1  245.     @UTLIO     EQU   4                       I/O
                                    9563  1  246.     @UTLTIME   EQU   5                       Timer
                                    9564  1  247.     @UTLATTN   EQU   6                       Attention
                                    9565  1  248.     @UTLRCLP   EQU   7                       Run Clp
                                    9566  1  249.     @UTLRUSE   EQU   8                       Run User
                                    9567  1  250.     @UTLUXIT   EQU   9                       User exit
                                    9568  1  251.
 000001                             9569  1  252.     @UTCODE    DS    XL2                     Code (sub-class)
                                    9570  1  253.
                                    9571  1  254.     @UTCTIME   EQU   0
                                    9572  1  255.     @UTCWAIT   EQU   1
                                    9573  1  256.     @UTCATTN   EQU   2
                                    9574  1  257.     @UTCPAN    EQU   3
                                    9575  1  258.     @UTCSVC    EQU   4
                                    9576  1  259.
 000003                             9577  1  260.     @UTDWC     DS    X                       Data word count
 000004                             9578  1  261.     @UTPSW     DS    XL8                     Interrupt PSW
                                    9579  1  262.
                                    9580  1  263.     @UTBASIC   EQU   @UTCLASS,*-@UTCLASS,C'X'
 00000C                             9581  1  264.     @UTDATA    DS    4A                      Variable data
 00001C                0001C 0001C  9582     265.              END
1M1SERV   (M1SE00) (09:42) (22MAR04) IHAPSAE  - PSA Extension (ESAME)                                                       Page   64
0Current Usings:  (PZERO,R0)
0Loc    Object Code    Addr1 Addr2  Stmt Lv Lineno    Source Statement           (Hibal 5, Asmedit 3.3)  HLASM R4.0  2004/03/22 09.42
+___    ______ ____    _____ _____  ____ __ ______    ______ _________
0                                   9592     267.     *******************************************************************
                                    9593     268.     *                                                                 *
                                    9594     269.     *   UTRHDR  -  Mode 1 Trace Table Buffer header                   *
                                    9595     270.     *                                                                 *
                                    9596     271.     *******************************************************************
0000000                00000 0000C  9598     273.     UTRHDR   RECORD BEGIN
 000000                             9606  1  274.     UTRCHAIN   DS    A                       Next buffer in chain
 000004                             9607  1  275.     UTRNEXT    DS    A                       Next entry in buffer
 000008                             9608  1  276.     UTREND     DS    A                       End of this buffer
 00000C                             9609  1  277.     UTRSTART   DS    0A                      Start of trace entries
 00000C                0000C 0000C  9610     278.              END
1M1SERV   (M1SE00) (09:42) (22MAR04) IHAPSAE  - PSA Extension (ESAME)                                                       Page   65
0Current Usings:  (PZERO,R0)
0Loc    Object Code    Addr1 Addr2  Stmt Lv Lineno    Source Statement           (Hibal 5, Asmedit 3.3)  HLASM R4.0  2004/03/22 09.42
+___    ______ ____    _____ _____  ____ __ ______    ______ _________
0                                   9620     280.              KWREC FLAGS
1M1SERV   (M1SE00) (09:42) (22MAR04) IHAPSAE  - PSA Extension (ESAME)                                                       Page   66
0Current Usings:  (PZERO,R0)
0Loc    Object Code    Addr1 Addr2  Stmt Lv Lineno    Source Statement           (Hibal 5, Asmedit 3.3)  HLASM R4.0  2004/03/22 09.42
+___    ______ ____    _____ _____  ____ __ ______    ______ _________
0                                   9640     282.     *******************************************************************
                                    9641     283.     *                                                                 *
                                    9642     284.     *    INITWORK - Mode 1 initialization work area                   *
                                    9643     285.     *                                                                 *
                                    9644     286.     *******************************************************************
0000000                00000 000C4  9646     288.     M1IWORK  RECORD BEGIN
 000000                             9654  1  289.     M1IRDMEM   DS    3A                      Area for MVS memory reads
 00000C                             9655  1  290.     M1IRDPRM   DS    XL(L'PARMIN)            Area for PARMIN
 000010                             9656  1  291.                DS    CL8                     Key 1
 000018                             9657  1  292.     M1IKEY2    DS    CL8                     Key 2
 000020                             9658  1  293.                DS    CL8                     Key 3
                                    9659  1  294.
 000028                             9660  1  295.     M1IPSTR    DS    CL80                String parameter area
                                    9661  1  296.
 000078                             9662  1  297.     M1INAME    DS    CL8                 Shared Name
 000080                             9663  1  298.     M1IPROG    DS    CL8                 Program name
 000088                             9664  1  299.     M1IFILE    DS    CL44                File name
                                    9665  1  300.
 0000B8                             9666  1  301.     M1ICVD     DS    D                   Work area for conversion
                                    9667  1  302.
 0000C0                             9668  1  303.     M1ENDSPB   DS    A                   Last SPB created
 0000C4                000C4 000C4  9669     304.              END   ,
0                                   9679     306.     *******************************************************************
                                    9680     307.     *                                                                 *
                                    9681     308.     *    IDT  - Mode 1 device table entry                             *
                                    9682     309.     *                                                                 *
                                    9683     310.     *******************************************************************
0000000                00000 00038  9685     312.     IDT      RECORD BEGIN
 000000                             9693  1  313.                DS    CL4'IDT'
                                    9694  1  314.
 000004 00                          9695  1  315.     IDTFLG     FLAG  ,                       FLAGS
 IDTFLG.IDTFA      80 ONES          9699  1  316.                FLAG  IDTFA                   ATTACHED BY USER
 IDTFLG.IDTFACL    40 ONES          9704  1  317.                FLAG  IDTFACL                 ATTACHED BY COMMAND LANGUAGE
 IDTFLG.IDTFR1     20 ONES          9709  1  318.                FLAG  IDTFR1                  VALUE FOR REG. 1
 IDTFLG.IDTFR14    10 ONES          9714  1  319.                FLAG  IDTFR14                 VALUE FOR REG. 14
 IDTFLG.IDTFR15    08 ONES          9719  1  320.                FLAG  IDTFR15                 VALUE FOR REG. 15
                                    9724  1  321.
 000005 00                          9725  1  322.     IDTWFLG    FLAG  ,                       WAIT PROCESSING FLAGS
 IDTWFLG.IDTFWD    80 ONES          9729  1  323.                FLAG  IDTFWD                  WAIT DONE ON THIS REQUEST
 IDTWFLG.IDTFPOST  40 ONES          9734  1  324.                FLAG  IDTFPOST                REQUEST COMPLETE
 IDTWFLG.IDTFEWX   20 ONES          9739  1  325.                FLAG  IDTFEWX                 ENTER WAIT EXIT ROUTINE
 IDTWFLG.IDTFEAX   10 ONES          9744  1  326.                FLAG  IDTFEAX                 ENTER ATTN EXIT AT WAIT
 IDTWFLG.IDTFFIDT  08 ONES          9749  1  327.                FLAG  IDTFFIDT                FREE IDT AT WAIT
                                    9754  1  328.
 000006 00                          9755  1  329.     IDTCLASS   FLAG  ,                       DEVICE CLASS
 IDTCLASS.IDTCTRM  01 EQ            9759  1  330.                FLAG  (IDTCTRM,1,EQ)          TERMINAL
 IDTCLASS.IDTCFIL  02 EQ            9769  1  331.                FLAG  (IDTCFIL,2,EQ)          ORVYL FILES
 IDTCLASS.IDTCOSF  03 EQ            9779  1  332.                FLAG  (IDTCOSF,3,EQ)          OS FILES
 IDTCLASS.IDTCSCM  04 EQ            9789  1  333.                FLAG  (IDTCSCM,4,EQ)          PATH
 IDTCLASS.IDTCENQ  05 EQ            9799  1  334.                FLAG  (IDTCENQ,5,EQ)          ENQUEUE/DEQUEUE
 IDTCLASS.IDTCJES  06 EQ            9809  1  335.                FLAG  (IDTCJES,6,EQ)          JES READER
1M1SERV   (M1SE00) (09:42) (22MAR04) IHAPSAE  - PSA Extension (ESAME)                                                       Page   67
0Current Usings:  (PZERO,R0)
0Loc    Object Code    Addr1 Addr2  Stmt Lv Lineno    Source Statement           (Hibal 5, Asmedit 3.3)  HLASM R4.0  2004/03/22 09.42
+___    ______ ____    _____ _____  ____ __ ______    ______ _________
0IDTCLASS.IDTCNET  07 EQ            9819  1  336.                FLAG  (IDTCNET,7,EQ)          Network Socket
 IDTCLASS.IDTCKEY  08 EQ            9829  1  337.                FLAG  (IDTCKEY,8,EQ)          KEYWORD FILE
                                    9839  1  338.
 000007                             9840  1  339.     IDTID      DS    X                       ID NUMBER
                                    9841  1  340.     *
                                    9842  1  341.     *  WAIT RETURN REGISTERS
                                    9843  1  342.     *
 000008                             9844  1  343.     IDTR1      DS    A                       REG. 1 RETURN
 00000C                             9845  1  344.     IDTR14     DS    A                       REG. 14 RETURN
 000010                             9846  1  345.     IDTR15     DS    A                       REG. 15 RETURN
                                    9847  1  346.     *
                                    9848  1  347.     *  EXIT INFO
                                    9849  1  348.     *
 000014                             9850  1  349.     IDTAXEP    DS    A                       ATTN EXIT ENTRY POINT
 000018                             9851  1  350.     IDTAXI     DS    A                       USER POINTER FOR ATTNTION EXIT
 00001C                             9852  1  351.     IDTWXEP    DS    A                       WAIT EXIT ENTRY POINT
 000020                             9853  1  352.     IDTWXI     DS    A                       USER POINTER FOR WAIT EXIT
                                    9854  1  353.     *
                                    9855  1  354.     *  DEVICE INFO
                                    9856  1  355.     *
 000024                             9857  1  356.     IDTDEVID   DS    A                       DEVICE ID
                                    9858  1  357.     *
                                    9859  1  358.     *  TERMINAL SAVE INFO
                                    9860  1  359.     *
 000028                             9861  1  360.     IDTTRFL    DS    XL1
 00002C                             9862  1  361.                DS    0A
 00002C                             9863  1  362.     IDTTRRG    DS    XL12                     REGISTER SAVE AREA
                                    9864  1  363.
 000038                             9865  1  364.     IDTNEXT    DS    0D
 000038                00038 00038  9866     365.              END   ,
1M1SERV   (M1SE00) (09:42) (22MAR04) IHAPSAE  - PSA Extension (ESAME)                                                       Page   68
0Current Usings:  (PZERO,R0)
0Loc    Object Code    Addr1 Addr2  Stmt Lv Lineno    Source Statement           (Hibal 5, Asmedit 3.3)  HLASM R4.0  2004/03/22 09.42
+___    ______ ____    _____ _____  ____ __ ______    ______ _________
0                                   9876     367.     *******************************************************************
                                    9877     368.     *                                                                 *
                                    9878     369.     *    M1SVINIT - Mode 1 Program Services Initialization            *
                                    9879     370.     *                                                                 *
                                    9880     371.     *                                                                 *
                                    9881     372.     *     Input -                                                     *
                                    9882     373.     *                                                                 *
                                    9883     374.     *    Output -                                                     *
                                    9884     375.     *                                                                 *
                                    9885     376.     *                                                                 *
                                    9886     377.     *******************************************************************
-
 000016                             9888     379.     M1SVINIT PROC  ,M1IWORK,SCOPE=GLOBAL
 000016 D4F1E2E5C9D5C9E3            9894             +
 00001E 0000/00C8                   9895             +
 000022 900F D004/18AF       00004  9897             +
 USING  M1SVINIT,R10
 000028 50D0 C000/18CD       00000  9912             +
 00002E 9680 C000      00000        9914             +
 USING  M1IWORK-72,R12
 000032 41D0 C110            00110  9928             +
 AUSING (PARMIN,M1IRDPRM)           9929     380.              WITH  (PARMIN,M1IRDPRM)
                                    9936     381.     *
                                    9937     382.     *  FIRST CREATE THE CT
                                    9938     383.     *
 USING  @VMGET-72,R13               9939     384.              VMGET L'M1CT,LOC=GLOBHI
 000036 D70A D048 D048 00000 00000  9963             +
 00003C 4100 006C            0006C  9975             +
 000040 5000 D048            00000  9980             +
 000044 D201 D050 AE5E 00008 00E80  9981             +
 00004A 58F0 ADAE/0DEF       00DD0  9984             +
 000050 1270/4770 A064       00086  9986     385.              IF    ('LTR  RY,RVR',Z),'ABORT NOCT'
 000056 AC04 021B      0021B       10003  1          +
 00005A 9680 021A      0021A       10009  1          +
 00005E 50F0 021C            0021C 10010  1          +
 000062 58F0 0210            00210 10011  1          +
 000066 89F0 0010            00010 10012  1          +
 00006A 88F0 0010            00010 10013  1          +
 00006E 41F0 F000            00000 10014  1          +
 000072 AEFF 0006            00006 10015  1          +
 000076 D5D6C3E340404040           10016             +
 USING  M1CT,R7                    10021     386.              WITH  (M1CT,RY)
1M1SERV   (M1SE00) (09:42) (22MAR04) IHAPSAE  - PSA Extension (ESAME)                                                       Page   69
0Current Usings:  (PZERO,R0) (M1CT,R7) (M1SVINIT,R10) (M1IWORK-72,R12) (@VMGET-72,R13)
0Loc    Object Code    Addr1 Addr2  Stmt Lv Lineno    Source Statement           (Hibal 5, Asmedit 3.3)  HLASM R4.0  2004/03/22 09.42
+___    ______ ____    _____ _____  ____ __ ______    ______ _________
0                                  10035     388.     *
                                   10036     389.     *  CLEAR IT AND SET ID
                                   10037     390.     *
 000086 4110 006C            0006C 10038     391.              LA    R1,L'M1CT
 00008A 1BFF                       10039     392.              CLEAR R15
 00008C 0E0E                       10043     393.              MVCL  R0,R14                  CLEAR THE CT
 00008E D203 7000 ADB2 00000 00DD4 10044     394.              MVC   CTID(4),=CL4'M1CT'       AND SET ID
                                   10045     395.     *
                                   10046     396.     *  CONNECT CT TO MAT
                                   10047     397.     *
 000094 5820 0200            00200 10048     398.              L     RA,MATPTR               MAT POINTER
 000098 5070 2010            00010 10049     399.              WITH  (MAT,RA),'ST  RY,MATM1CT'   CT POINTER
 USING  MAT,R2
 DROP   MAT,R2
                                   10073     400.     *
                                   10074     401.     *  CREATE SPB CHAIN LOCK
                                   10075     402.     *
 DROP   @VMGET-72,R13              10076     403.              LKCRE SPBCHAIN
 USING  @LOCKCRE-72,R13
 00009C D710 D048 D048 00000 00000 10097             +
 0000A2 D20F D048 ACFE 00000 00D20 10103             +
 0000A8 58F0 ADB6/0DEF       00DD8 10106             +
 0000AE 1200/4770 A0C2       000E4 10108     404.              IF    (RVR,Z),'ABORT SPBCLOCK'
 0000B4 AC04 021B      0021B       10126  1          +
 0000B8 9680 021A      0021A       10132  1          +
 0000BC 50F0 021C            0021C 10133  1          +
 0000C0 58F0 0210            00210 10134  1          +
 0000C4 89F0 0010            00010 10135  1          +
 0000C8 88F0 0010            00010 10136  1          +
 0000CC 41F0 F000            00000 10137  1          +
 0000D0 AEFF 0006            00006 10138  1          +
 0000D4 E2D7C2C3D3D6C3D2           10139             +
 0000E4 5000 7008            00008 10144     405.              ST    RVR,CTSPBCLK            SAVE LOCK ID
                                   10145     406.     *
                                   10146     407.     *  SET UP SET 21 WAIT CHAIN
                                   10147     408.     *
 0000E8 41F0 701C            0001C 10148     409.              LA    R15,CTST21QH            Dummy element
 0000EC 50F0 701C            0001C 10149     410.              ST    R15,CTST21QH            Set Queue head
 0000F0 50F0 7020            00020 10150     411.              ST    R15,CTST21QT             and Queue tail
                                   10151     412.     *
                                   10152     413.     *  CREATE SET 21 QUEUE LOCK
                                   10153     414.     *
 0000F4                            10154     415.              LKCRE SET21QUEUE
 0000F4 D710 D048 D048 00000 00000 10165             +
 0000FA D20F D048 AD0E 00000 00D30 10171             +
 000100 58F0 ADB6/0DEF       00DD8 10174             +
 000106 1200/4770 A11A       0013C 10176     416.              IF    (RVR,Z),'ABORT ST21LOCK'
 00010C AC04 021B      0021B       10194  1          +
 000110 9680 021A      0021A       10200  1          +
 000114 50F0 021C            0021C 10201  1          +
 000118 58F0 0210            00210 10202  1          +
 00011C 89F0 0010            00010 10203  1          +
 000120 88F0 0010            00010 10204  1          +
 000124 41F0 F000            00000 10205  1          +
1M1SERV   (M1SE00) (09:42) (22MAR04) IHAPSAE  - PSA Extension (ESAME)                                                       Page   70
0Current Usings:  (PZERO,R0) (M1CT,R7) (M1SVINIT,R10) (M1IWORK-72,R12) (@LOCKCRE-72,R13)
0Loc    Object Code    Addr1 Addr2  Stmt Lv Lineno    Source Statement           (Hibal 5, Asmedit 3.3)  HLASM R4.0  2004/03/22 09.42
+___    ______ ____    _____ _____  ____ __ ______    ______ _________
0000128 AEFF 0006            00006 10206  1          +
 00012C E2E3F2F1D3D6C3D2           10207             +
 00013C 5000 7018            00018 10212     417.              ST    RVR,CTST21LK            SAVE LOCK ID
                                   10213     418.     *
                                   10214     419.     *  Set maximum program map size
                                   10215     420.     *
 000140 D203 702C ADBA 0002C 00DDC 10216     421.              MVC   CTUMAP,=A(192*1024)     MAP SIZE
 000146 9204 C054      00000       10217     422.              GETPARM2 KEY=(MODE1,MAPSIZE),TYPE=INT,REGS=(RA,RJ)
 00014A D207 C058 AD1E 00004 00D40 10224             +
 000150 D207 C060 AD26 0000C 00D48 10225             +
 000156 4140 C054            00000 10232             +
 00015A 4150 0014            00014 10239             +
 00015E 83240016                   10242             +
 000162 4770 A148            0016A 10243     423.              IF    Z,'ST  RA,CTUMAP'       It was specified
 000166 5020 702C            0002C 10255             +
                                   10260     424.     *
                                   10261     425.     *  Get maximum number of IDT's
                                   10262     426.     *
 00016A D201 7038 AE60 00038 00E82 10263     427.              MVC   CTNIDT,=Y(64)           DEFAULT NUMBER OF IDTS
 000170 9204 C054      00000       10264     428.              GETPARM2 KEY=(,DEVICES),TYPE=INT,REGS=(RA,RJ)
 000174 D207 C060 AD2E 0000C 00D50 10271             +
 00017A 4140 C054            00000 10278             +
 00017E 4150 0014            00014 10285             +
 000182 83240016                   10288             +
 000186 4770 A178            0019A 10289     429.              IF    Z,BEGIN                 It was specified
 00018A 5920 ADBE            00DE0 10300  1  430.                CEIL  RA,250                  Not too many
 00018E 47D0 A174            00196 10309  1          +
 000192 5820 ADBE            00DE0 10314  1          +
 000196 4020 7038            00038 10319  1  431.                STH   RA,CTNIDT
 00019A                            10320     432.              END   ,
                                   10324     433.     *
                                   10325     434.     *  Get maximum number of Enqueues
                                   10326     435.     *
 00019A D201 703A AE62 0003A 00E84 10327     436.              MVC   CTNENQ,=Y(8)            DEFAULT NUMBER
 0001A0 9204 C054      00000       10328     437.              GETPARM2 KEY=(,ENQUEUES),TYPE=INT,REGS=(RA,RJ)
 0001A4 D207 C060 AD36 0000C 00D58 10335             +
 0001AA 4140 C054            00000 10342             +
 0001AE 4150 0014            00014 10349             +
 0001B2 83240016                   10352             +
 0001B6 4770 A19C            001BE 10353     438.              IF    Z,BEGIN                 It was specified
 0001BA 4020 703A            0003A 10364  1  439.                STH   RA,CTNENQ
 0001BE                            10365     440.              END
                                   10369     441.     *
                                   10370     442.     *  Get Mode 1 trace table size
                                   10371     443.     *
 0001BE D203 7030 ADC2 00030 00DE4 10372     444.              MVC   CTTRCSIZ,=A(1024)       DEFAULT
 0001C4 9204 C054      00000       10373     445.              GETPARM2 KEY=(,TRCSIZE),TYPE=INT,REGS=(RA,RJ)
 0001C8 D207 C060 AD3E 0000C 00D60 10380             +
 0001CE 4140 C054            00000 10387             +
 0001D2 4150 0014            00014 10394             +
 0001D6 83240016                   10397             +
 0001DA 4770 A1C0            001E2 10398     446.              IF    Z,'ST  RA,CTTRCSIZ'     It was specified
 0001DE 5020 7030            00030 10410             +
                                   10415     447.     *
1M1SERV   (M1SE00) (09:42) (22MAR04) IHAPSAE  - PSA Extension (ESAME)                                                       Page   71
0Current Usings:  (PZERO,R0) (M1CT,R7) (M1SVINIT,R10) (M1IWORK-72,R12) (@LOCKCRE-72,R13)
0Loc    Object Code    Addr1 Addr2  Stmt Lv Lineno    Source Statement           (Hibal 5, Asmedit 3.3)  HLASM R4.0  2004/03/22 09.42
+___    ______ ____    _____ _____  ____ __ ______    ______ _________
0                                  10416     448.     *  Get number of trace buffers
                                   10417     449.     *
 0001E2 D201 7034 AE64 00034 00E86 10418     450.              MVC   CTNTRACE,=Y(2)          DEFAULT NUMBER
 0001E8 9204 C054      00000       10419     451.              GETPARM2 KEY=(,TRCBUFF),TYPE=INT,REGS=(RA,RJ)
 0001EC D207 C060 AD46 0000C 00D68 10426             +
 0001F2 4140 C054            00000 10433             +
 0001F6 4150 0014            00014 10440             +
 0001FA 83240016                   10443             +
 0001FE 4770 A1E4            00206 10444     452.              IF    Z,'STH  RA,CTNTRACE'    It was specified
 000202 4020 7034            00034 10456             +
                                   10461     453.     *
                                   10462     454.     *  Set up memory values
                                   10463     455.     *
 DROP   @LOCKCRE-72,R13            10464     456.              PSET  @VMINFO
 USING  @VMINFO-72,R13
 000206 D708 D048 D048 00000 00000 10484             +
 00020C 58F0 ADC6/0DEF       00DE8 10485     457.              VCALL VMINFO                  GET SOME NEWS
 000212 D203 7024 D048 00024 00000 10489     458.              MVC   CTUMORG,@VMIUST         USER MEMORY ORIGIN
 000218 D203 7028 D04C 00028 00004 10490     459.              MVC   CTUMSIZ,@VMIULEN        USER MEMORY LENGTH
 00021E D200 703C D050 0003C 00008 10491     460.              MVC   CTTRASH,@VMITRSH        SYSTEM TRASH BYTE
                                   10492     461.     *
                                   10493     462.     *  Set maximum user memory
                                   10494     463.     *
 000224 5820 7028            00028 10495     464.              L     RA,CTUMSIZ              Default number
 000228 8820 000C            0000C 10496     465.              SRL   RA,12                     of
 00022C 4020 7036            00036 10497     466.              STH   RA,CTUMPGS                  pages
 000230 9204 C054      00000       10498     467.              GETPARM2 KEY=(,REGION),TYPE=INT,REGS=(RA,RJ)
 000234 D207 C060 AD4E 0000C 00D70 10505             +
 00023A 4140 C054            00000 10512             +
 00023E 4150 0014            00014 10519             +
 000242 83240016                   10522             +
 000246 4770 A230            00252 10523     468.              IF    Z,BEGIN                 It was specified
 00024A 8820 0002            00002 10534  1  469.                SRL   RA,2                    Divide by 4
 00024E 4020 7036            00036 10535  1  470.                STH   RA,CTUMPGS              Save specified value
 000252                            10536     471.              END   ,
                                   10540     472.     *
                                   10541     473.     *  Default shared memory size
                                   10542     474.     *
 000252 4810 7036            00036 10543     475.              LH    RS,CTUMPGS              Maximum user pages
 000256 5B10 ADCA            00DEC 10544     476.              S     RS,=A(2)                Less minimum work area
 00025A 8910 000C            0000C 10545     477.              SLL   RS,12                   Convert to bytes
 00025E 5910 ADCE            00DF0 10546     478.              CEIL  RS,=A(2*1024*1024)      Max it out
 000262 47D0 A248            0026A 10549             +
 000266 5810 ADCE            00DF0 10550             +
 00026A 5010 7010            00010 10551     479.              ST    RS,CTSPBSIZ             SHARED PROGRAM RESERVE
                                   10552     480.
                                   10553     481.                Build shared program list.
                                   10554     482.
 00026E                            10555     483.              CLEAR M1ENDSPB            Initialize
 00026E D703 C108 C108 000C0 000C0 10561             +
                                   10562     484.
 000000                00000 00008 10563     485.     SHPGMKEY RECORD BEGIN
 000000 E2C8C1D9C5C4               10571  1  486.     SHBASE     DC    C'SHARED'
 000006 F0F0                       10572  1  487.     SHNUM      DC    C'00'
1M1SERV   (M1SE00) (09:42) (22MAR04) IHAPSAE  - PSA Extension (ESAME)                                                       Page   72
0Current Usings:  (PZERO,R0) (M1CT,R7) (M1SVINIT,R10) (M1IWORK-72,R12) (@VMINFO-72,R13)
0Loc    Object Code    Addr1 Addr2  Stmt Lv Lineno    Source Statement           (Hibal 5, Asmedit 3.3)  HLASM R4.0  2004/03/22 09.42
+___    ______ ____    _____ _____  ____ __ ______    ______ _________
0000008                00008 00008 10573     488.              END   ,
                                   10582     489.     *
                                   10583     490.     NUMSHARED EQU  99
 AUSING (SHPGMKEY,M1IKEY2)         10584     491.              WITH  (SHPGMKEY,M1IKEY2),BEGIN
 000274 D205 C060 AE66 00000 00E88 10594  1  492.                MVC   SHBASE,=C'SHARED'
                                   10595     493.              END   ,
 00027A 4180 0063            00063 10598     494.              LA    RM,NUMSHARED
 00027E                            10599     495.              LOOP  BEGIN
 AUSING (SHPGMKEY,M1IKEY2)         10605  1  496.                WITH  (SHPGMKEY,M1IKEY2)
 00027E 4120 0064            00064 10612  1  497.                LA    RA,NUMSHARED+1          Convert to number
 000282 1B28                       10613  1  498.                SR    RA,RM
 000284 4E20 C100            000B8 10614  1  499.                CVD   RA,M1ICVD
 000288 F317 C066 C100 00006 000B8 10615  1  500.                UNPK  SHNUM,M1ICVD
 00028E 96F0 C067      00007       10616  1  501.                OI    SHNUM+1,X'F0'
                                   10617  1  502.
                                   10618  1  503.                  Build an SPB from the 'SHAREDxx' block parameters.
                                   10619  1  504.
 000292                            10620  1  505.                BEGIN ,                       Try for valid entry
 000292                            10624  2  506.                  CLEAR M1INAME             Reset work fields
 000292 D707 C0C0 C0C0 00078 00078 10630  2          +
 000298                            10631  2  507.                  CLEAR M1IPROG
 000298 D707 C0C8 C0C8 00080 00080 10637  2          +
 00029E                            10638  2  508.                  CLEAR M1IFILE
 00029E D72B C0D0 C0D0 00088 00088 10644  2          +
                                   10645  2  509.     *
                                   10646  2  510.     *  Name
                                   10647  2  511.     *
                                   10648  2  512.   C              GETPARM2 M1IPSTR,KEY=(,,NAME),TYPE=STRING,
 0002A4 9200 C054      00000              2  513.                        REGS=(RA,RJ)
 0002A8 D207 C068 AD56 00014 00D78 10655  2          +
 0002AE 4120 C070            00028 10662  2          +
 0002B2 4130 0050            00050 10669  2          +
 0002B6 4140 C054            00000 10676  2          +
 0002BA 4150 001C            0001C 10683  2          +
 0002BE 83240016                   10686  2          +
 0002C2 4770 A506            00528 10687  2  514.                  IF    NZ,EXIT                 This doesn't exist
 0002C6 5930 ADD2            00DF4 10701  2  515.                  IF    (RB,GT,8),EXIT
 0002CA 4720 A506            00528 10715  2          +
 0002CE D207 C0C0 AD5E 00078 00D80 10721  2  516.                  MVC   M1INAME,=CL8' '
 0002D4 0630/4430 AEC6       00EE8 10722  2  517.                  DEX   RB,'MVC M1INAME(0),@RA'
 000EE8 D200 C0C0 2000 00078 00000 10733  2          +
                                   10741  2  518.     *
                                   10742  2  519.     *  Program name (if different from name)
                                   10743  2  520.     *
                                   10744  2  521.   C              GETPARM2 M1IPSTR,KEY=(,,PROGNAME),TYPE=STRING,
 0002DA 9200 C054      00000              2  522.                        REGS=(RA,RJ)
 0002DE D207 C068 AD66 00014 00D88 10751  2          +
 0002E4 4120 C070            00028 10758  2          +
 0002E8 4130 0050            00050 10765  2          +
 0002EC 4140 C054            00000 10772  2          +
 0002F0 4150 001C            0001C 10779  2          +
 0002F4 83240016                   10782  2          +
 0002F8 4770 A2EE            00310 10783  2  523.                  IF    Z,BEGIN             Prog name specified...
 0002FC 5930 ADD2            00DF4 10794  3  524.                    IF    (RB,GT,8),EXIT
1M1SERV   (M1SE00) (09:42) (22MAR04) IHAPSAE  - PSA Extension (ESAME)                                                       Page   73
0Current Usings:  (PZERO,R0) (M1CT,R7) (M1SVINIT,R10) (M1IWORK-72,R12) (@VMINFO-72,R13)
0Loc    Object Code    Addr1 Addr2  Stmt Lv Lineno    Source Statement           (Hibal 5, Asmedit 3.3)  HLASM R4.0  2004/03/22 09.42
+___    ______ ____    _____ _____  ____ __ ______    ______ _________
0000300 4720 A2EE            00310 10808  3          +
 000304 D207 C0C8 AD5E 00080 00D80 10814  3  525.                    MVC   M1IPROG,=CL8' '
 00030A 0630/4430 AECC       00EEE 10815  3  526.                    DEX   RB,'MVC M1IPROG(0),@RA'
 000EEE D200 C0C8 2000 00080 00000 10826  3          +
 000310                            10834  2  527.                  END
                                   10838  2  528.     *
                                   10839  2  529.     *  Library name
                                   10840  2  530.     *
                                   10841  2  531.   C              GETPARM2 M1IPSTR,KEY=(,,LIB),TYPE=STRING,
 000310 9200 C054      00000              2  532.                        REGS=(RA,RJ)
 000314 D207 C068 AD6E 00014 00D90 10848  2          +
 00031A 4120 C070            00028 10855  2          +
 00031E 4130 0050            00050 10862  2          +
 000322 4140 C054            00000 10869  2          +
 000326 4150 001C            0001C 10876  2          +
 00032A 83240016                   10879  2          +
 00032E 4770 A506            00528 10880  2  533.                  IF    NZ,EXIT                 This doesn't exist
 000332 5930 ADD6            00DF8 10894  2  534.                  IF    (RB,GT,44),EXIT         Invalid
 000336 4720 A506            00528 10908  2          +
 00033A D22B C0D0 ADDA 00088 00DFC 10914  2  535.                  MVC   M1IFILE,=CL44' '
 000340 0630/4430 AED2       00EF4 10915  2  536.                  DEX   RB,'MVC M1IFILE(0),@RA'
 000EF4 D200 C0D0 2000 00088 00000 10926  2          +
                                   10934  2  537.     *
                                   10935  2  538.     *  Build an SPB
                                   10936  2  539.     *
                                   10937  2  540.     *         VMGET L'SPB,LOC=GLOBLO,TYPE=DATA
 DROP   @VMINFO-72,R13             10938  2  541.                  VMGET L'SPB,LOC=GLOBHI,TYPE=PROG
 USING  @VMGET-72,R13
 000346 D70A D048 D048 00000 00000 10965  2          +
 00034C 4100 0072            00072 10977  2          +
 000350 5000 D048            00000 10982  2          +
 000354 D201 D050 AE6C 00008 00E8E 10983  2          +
 00035A 58F0 ADAE/0DEF       00DD0 10986  2          +
 000360 1290/4770 A374       00396 10988  2  542.                  IF    ('LTR  RN,RVR',Z),'ABORT SPBMEM'
 000366 AC04 021B      0021B       11005  3          +
 00036A 9680 021A      0021A       11011  3          +
 00036E 50F0 021C            0021C 11012  3          +
 000372 58F0 0210            00210 11013  3          +
 000376 89F0 0010            00010 11014  3          +
 00037A 88F0 0010            00010 11015  3          +
 00037E 41F0 F000            00000 11016  3          +
 000382 AEFF 0006            00006 11017  3          +
 000386 E2D7C2D4C5D44040           11018  2          +
 USING  SPB,R9                     11023  2  543.                  WITH  (SPB,RN)
 000396                            11036  2  544.                  CLEAR SPB                     Nice and tidy
 000396 D771 9000 9000 00000 00000 11042  2          +
 00039C D203 9000 AE06 00000 00E28 11043  2  545.                  MVC   SPBID,=CL4'SPB'
 0003A2 D207 9008 C0C0 00008 00078 11044  2  546.                  MVC   SPBNAME,M1INAME     Name
 0003A8 D207 9010 C0C8 00010 00080 11045  2  547.                  MVC   SPBPROG,M1IPROG     Program name
 0003AE                            11046  2  548.                  IF    (SPBPROG,Z),'MVC SPBPROG,SPBNAME'
 0003AE D607 9010 9010 00010 00010 11056  2          +
 0003B4 4770 A39C            003BE 11057  2          +
 0003B8 D207 9010 9008 00010 00008 11063  2          +
 0003BE D22B 9018 C0D0 00018 00088 11068  2  549.                  MVC   SPBFILE,M1IFILE     File name
1M1SERV   (M1SE00) (09:42) (22MAR04) IHAPSAE  - PSA Extension (ESAME)                                                       Page   74
0Current Usings:  (PZERO,R0) (M1CT,R7) (SPB,R9) (M1SVINIT,R10) (M1IWORK-72,R12) (@VMGET-72,R13)
0Loc    Object Code    Addr1 Addr2  Stmt Lv Lineno    Source Statement           (Hibal 5, Asmedit 3.3)  HLASM R4.0  2004/03/22 09.42
+___    ______ ____    _____ _____  ____ __ ______    ______ _________
0                                  11069  2  550.     *
                                   11070  2  551.     *  Add SPB to end of chain.
                                   11071  2  552.     *
 0003C4                            11072  2  553.                  IF    (CTSPBS,Z),'ST RN,CTSPBS'  First SPB
 0003C4 D603 7004 7004 00004 00004 11082  2          +
 0003CA 4770 A3B0            003D2 11083  2          +
 0003CE 5090 7004            00004 11089  2          +
                                   11094  2  554.
 0003D2 5830 C108/1233       000C0 11095  2  555.                  LT    RB,M1ENDSPB         Last SPB created
 0003D8 4780 A3BE            003E0 11099  2  556.                  IF    NZ,'ST RN,SPBNEXT-SPB(,RB)'
 0003DC 5090 3004            00004 11111  2          +
 0003E0 5090 C108            000C0 11116  2  557.                  ST    RN,M1ENDSPB
                                   11117  2  558.     *
                                   11118  2  559.     *  Read in size of program
                                   11119  2  560.     *
 0003E4 D203 904C 7010 0004C 00010 11120  2  561.                  MVC   SPBSIZE,CTSPBSIZ
 0003EA 9204 C054      00000       11121  2  562.                  GETPARM2 KEY=(,,SIZE),REGS=(RA,RJ)
 0003EE D207 C068 AD76 00014 00D98 11128  2          +
 0003F4 4140 C054            00000 11135  2          +
 0003F8 4150 001C            0001C 11142  2          +
 0003FC 83240016                   11145  2          +
 000400 4770 A3EA            0040C 11146  2  563.                  IF    ZERO,BEGIN
 000404 8920 000A            0000A 11157  3  564.                    SLL   RA,10                   K to bytes
 000408 5020 904C            0004C 11158  3  565.                    ST    RA,SPBSIZE
 00040C                            11159  2  566.                  END   ,
                                   11163  2  567.     *
                                   11164  2  568.     *  Check for protection
                                   11165  2  569.     *
 00040C 9640 9044      00044       11166  2  570.                  SET   SPBFPRT                 Default is protected
 000410 9208 C054      00000       11172  2  571.                  GETPARM2 M1IPSTR,KEY=(,,PROT),TYPE=YESNO,REGS=(RA,RJ)
 000414 D207 C068 AD7E 00014 00DA0 11179  2          +
 00041A 4120 C070            00028 11186  2          +
 00041E 4130 0050            00050 11193  2          +
 000422 4140 C054            00000 11200  2          +
 000426 4150 001C            0001C 11207  2          +
 00042A 83240016                   11210  2          +
 00042E 4770 A41C            0043E 11211  2  572.                  IF    ZERO,BEGIN
 000432 95D5 C070      00028       11222  3  573.                    CLI   M1IPSTR,C'N'
 000436 4770 A41C            0043E 11223  3  574.                    IF    NE,EXIT
 00043A 94BF 9044      00044       11237  3  575.                    CLEAR SPBFPRT
 00043E                            11244  2  576.                  END   ,
                                   11248  2  577.     *
                                   11249  2  578.     *  Check for AUTHORIZED program
                                   11250  2  579.     *
 00043E 9208 C054      00000       11251  2  580.                  GETPARM2 M1IPSTR,KEY=(,,AUTH),TYPE=YESNO,REGS=(RA,RJ)
 000442 D207 C068 AD86 00014 00DA8 11258  2          +
 000448 4120 C070            00028 11265  2          +
 00044C 4130 0050            00050 11272  2          +
 000450 4140 C054            00000 11279  2          +
 000454 4150 001C            0001C 11286  2          +
 000458 83240016                   11289  2          +
 00045C 4770 A44A            0046C 11290  2  581.                  IF    ZERO,BEGIN
 000460 95E8 C070      00028       11301  3  582.                    CLI   M1IPSTR,C'Y'
 000464 4770 A44A            0046C 11302  3  583.                    IF    NE,EXIT
1M1SERV   (M1SE00) (09:42) (22MAR04) IHAPSAE  - PSA Extension (ESAME)                                                       Page   75
0Current Usings:  (PZERO,R0) (M1CT,R7) (SPB,R9) (M1SVINIT,R10) (M1IWORK-72,R12) (@VMGET-72,R13)
0Loc    Object Code    Addr1 Addr2  Stmt Lv Lineno    Source Statement           (Hibal 5, Asmedit 3.3)  HLASM R4.0  2004/03/22 09.42
+___    ______ ____    _____ _____  ____ __ ______    ______ _________
0000468 9620 9044      00044       11316  3  584.                    SET   SPBFAUTH
 00046C                            11322  2  585.                  END   ,
                                   11326  2  586.     *
                                   11327  2  587.     *  Check for load above the 16m line
                                   11328  2  588.     *
 00046C 9208 C054      00000       11329  2  589.                  GETPARM2 M1IPSTR,KEY=(,,LOADHI),TYPE=YESNO,REGS=(RA,RJ)
 000470 D207 C068 AD8E 00014 00DB0 11336  2          +
 000476 4120 C070            00028 11343  2          +
 00047A 4130 0050            00050 11350  2          +
 00047E 4140 C054            00000 11357  2          +
 000482 4150 001C            0001C 11364  2          +
 000486 83240016                   11367  2          +
 00048A 4770 A47C            0049E 11368  2  590.                  IF    ZERO,BEGIN
 00048E 95E8 C070      00028       11379  3  591.                    CLI   M1IPSTR,C'Y'
 000492 4770 A47C            0049E 11380  3  592.                    IF    NE,EXIT
 000496 9608 9044      00044       11394  3  593.                    SET   SPBFLHI
 00049A 9604 9044      00044       11400  3  594.                    SET   SPBFM31             Has to be started in 31 bit mode
 00049E                            11406  2  595.                  END   ,
                                   11410  2  596.     *
                                   11411  2  597.     *  Check for run in 31 bit mode
                                   11412  2  598.     *
 00049E 9208 C054      00000       11413  2  599.                  GETPARM2 M1IPSTR,KEY=(,,MODE31),TYPE=YESNO,REGS=(RA,RJ)
 0004A2 D207 C068 AD96 00014 00DB8 11420  2          +
 0004A8 4120 C070            00028 11427  2          +
 0004AC 4130 0050            00050 11434  2          +
 0004B0 4140 C054            00000 11441  2          +
 0004B4 4150 001C            0001C 11448  2          +
 0004B8 83240016                   11451  2          +
 0004BC 4770 A4AA            004CC 11452  2  600.                  IF    ZERO,BEGIN
 0004C0 95E8 C070      00028       11463  3  601.                    CLI   M1IPSTR,C'Y'
 0004C4 4770 A4AA            004CC 11464  3  602.                    IF    NE,EXIT
 0004C8 9604 9044      00044       11478  3  603.                    SET   SPBFM31
 0004CC                            11484  2  604.                  END   ,
                                   11488  2  605.
                                   11489  2  606.                    Check for REFRESH={YES|NO}
                                   11490  2  607.                      This controls what happens when there are no users.
                                   11491  2  608.
 0004CC 9208 C054      00000       11492  2  609.                  GETPARM2 M1IPSTR,KEY=(,,PURGABLE),TYPE=YESNO,REGS=(RA,RJ)
 0004D0 D207 C068 AD9E 00014 00DC0 11499  2          +
 0004D6 4120 C070            00028 11506  2          +
 0004DA 4130 0050            00050 11513  2          +
 0004DE 4140 C054            00000 11520  2          +
 0004E2 4150 001C            0001C 11527  2          +
 0004E6 83240016                   11530  2          +
 0004EA 4770 A4D8            004FA 11531  2  610.                  IF    ZERO,BEGIN
 0004EE 95E8 C070      00028       11542  3  611.                    CLI   M1IPSTR,C'Y'
 0004F2 4770 A4D8            004FA 11543  3  612.                    IF    NE,EXIT
 0004F6 9610 9044      00044       11557  3  613.                    SET   SPBFPURGABLE
 0004FA                            11563  2  614.                  END   ,
                                   11567  2  615.     *
                                   11568  2  616.     *  Check for SPIRES flag
                                   11569  2  617.     *
 0004FA 9208 C054      00000       11570  2  618.                  GETPARM2 M1IPSTR,KEY=(,,SPIRES),TYPE=YESNO,REGS=(RA,RJ)
 0004FE D207 C068 ADA6 00014 00DC8 11577  2          +
1M1SERV   (M1SE00) (09:42) (22MAR04) IHAPSAE  - PSA Extension (ESAME)                                                       Page   76
0Current Usings:  (PZERO,R0) (M1CT,R7) (SPB,R9) (M1SVINIT,R10) (M1IWORK-72,R12) (@VMGET-72,R13)
0Loc    Object Code    Addr1 Addr2  Stmt Lv Lineno    Source Statement           (Hibal 5, Asmedit 3.3)  HLASM R4.0  2004/03/22 09.42
+___    ______ ____    _____ _____  ____ __ ______    ______ _________
0000504 4120 C070            00028 11584  2          +
 000508 4130 0050            00050 11591  2          +
 00050C 4140 C054            00000 11598  2          +
 000510 4150 001C            0001C 11605  2          +
 000514 83240016                   11608  2          +
 000518 4770 A506            00528 11609  2  619.                  IF    ZERO,BEGIN
 00051C 95E8 C070      00028       11620  3  620.                    CLI   M1IPSTR,C'Y'
 000520 4770 A506            00528 11621  3  621.                    IF    NE,EXIT
 000524 9680 9044      00044       11635  3  622.                    SET   SPBFSPI
 000528                            11641  2  623.                  END   ,
 DROP   SPB,R9                     11645  1  624.                END   ,                       OF Try for valid entry
 000528 4680 A25C            0027E 11654     625.              UNTIL (BCT,RM),END
                                   11664     626.     *
                                   11665     627.     *  INITIALIZE MISCELLANEOUS FIELDS
                                   11666     628.     *
 00052C 9201 703D      0003D       11667     629.              MVI   CTJESR,1                MAXIMUM ATTACHED JES READERS
 000530 9640 705C      0005C       11668     630.              SET   CTMFOSF                 OS FILES ARE NOT AVAILABLE
 000534 9620 705C      0005C       11674     631.              SET   CTMFKEY                 KEYWORD FILE IS NOT AVAILABLE
                                   11680     632.     *
                                   11681     633.     *  GET POINTER TO MVS CVT
                                   11682     634.     *
 000538 4120 C048            00000 11683     635.              LA    RA,M1IRDMEM             WORK AREA
 00053C 4130 0004            00004 11684     636.              LA    RB,4                    ONE WORD
 000540 41E0 0010            00010 11685     637.              LA    R14,CVTPTR              LOCATION
 000544 1BFF                       11686     638.              CLEAR R15                     KEY
 000546 832E000A                   11690     639.              SYSCTL RA,R14,TYPE=MVSMRD     GET ADDRESS
                                   11693     640.     *
                                   11694     641.     *  GET POINTER TO "SCIP" CVT
                                   11695     642.     *
 00054A 58E0 C048            00000 11696     643.              L     R14,M1IRDMEM            ADDRESS OF MVS CVT
 00054E 1BFF                       11697     644.              CLEAR R15                     KEY
 000550 41E0 E0CC            000CC 11701     645.              WITH  (CVT,R14),'LA  R14,CVTUSER'   "SCIP" CVT
 USING  CVT,R14
 DROP   CVT,R14
 000554 4120 C048            00000 11725     646.              LA    RA,M1IRDMEM             WORK AREA
 000558 4130 0004            00004 11726     647.              LA    RB,4                    ONE WORD
 00055C 832E000A                   11727     648.              SYSCTL RA,R14,TYPE=MVSMRD     GET ADDRESS
                                   11730     649.     *
                                   11731     650.     *  VALIDATE THE "SCIP" CVT
                                   11732     651.     *
 000560 5840 C048            00000 11733     652.              L     RJ,M1IRDMEM            ADDRESS OF "SCIP" CVT
 000564 1244/4780 A600       00622 11734     653.              IF    (RJ,NZ),BEGIN
 USING  SCVT,R4                    11748  1  654.                WITH  (SCVT,RJ)
 00056A 41E0 4000            00000 11761  1  655.                LA    R14,SCVT                ID FIELD
 00056E 1BFF                       11762  1  656.                CLEAR R15                     KEY
 000570 4120 C048            00000 11766  1  657.                LA    RA,M1IRDMEM             WORK AREA
 000574 4130 0004            00004 11767  1  658.                LA    RB,4                    ONE WORD
 000578 832E000A                   11768  1  659.                SYSCTL RA,R14,TYPE=MVSMRD     GET ID
 00057C                            11771  1  660.                IF    (M1IRDMEM,NE,=CL4'SCIP'),EXIT   MUST NOT BE IT
 00057C D503 AE0A C048 00E2C 00000 11782  1          +
 000582 4770 A600            00622 11785  1          +
 000586 5040 704C            0004C 11791  1  661.                ST    RJ,CTSCVT               SAVE "SCIP" CVT POINTER
                                   11792  1  662.     *
                                   11793  1  663.     *  GET THE JES DISPLAY POINTER
1M1SERV   (M1SE00) (09:42) (22MAR04) IHAPSAE  - PSA Extension (ESAME)                                                       Page   77
0Current Usings:  (PZERO,R0) (SCVT,R4) (M1CT,R7) (M1SVINIT,R10) (M1IWORK-72,R12) (@VMGET-72,R13)
0Loc    Object Code    Addr1 Addr2  Stmt Lv Lineno    Source Statement           (Hibal 5, Asmedit 3.3)  HLASM R4.0  2004/03/22 09.42
+___    ______ ____    _____ _____  ____ __ ______    ______ _________
0                                  11794  1  664.     *
 00058A 41E0 4010            00010 11795  1  665.                LA    R14,SCVJESDB            JES DISPLAY BUFFER
 00058E 1BFF                       11796  1  666.                CLEAR R15                     KEY
 000590 4120 C048            00000 11800  1  667.                LA    RA,M1IRDMEM             WORK AREA
 000594 4130 0004            00004 11801  1  668.                LA    RB,4                    ONE WORD
 000598 832E000A                   11802  1  669.                SYSCTL RA,R14,TYPE=MVSMRD     GET JES INFO
                                   11805  1  670.     *
                                   11806  1  671.     *  GET THE NUMBER OF JES DISPLAYS
                                   11807  1  672.     *
 00059C 5850 C048/1255       00000 11808  1  673.                IF    ('LT  RK,M1IRDMEM',Z),EXIT   NO JES STUFF
 0005A2 4780 A600            00622 11821  1          +
 0005A6 18E5                       11827  1  674.                LR    R14,RK                  JES AREA
 0005A8 1BFF                       11828  1  675.                CLEAR R15                     KEY
 0005AA 4120 C048            00000 11832  1  676.                LA    RA,M1IRDMEM             WORK AREA
 0005AE 4130 0004            00004 11833  1  677.                LA    RB,4                    ONE WORD
 0005B2 832E000A                   11834  1  678.                SYSCTL RA,R14,TYPE=MVSMRD     GET JES DISPLAY COUNT
                                   11837  1  679.     *
                                   11838  1  680.     *  GET THE JES DISPLAY POINTERS
                                   11839  1  681.     *
 0005B6 5830 C048/1233       00000 11840  1  682.                IF    ('LT  RB,M1IRDMEM',Z),EXIT   NO JES DISPLAYS
 0005BC 4780 A600            00622 11853  1          +
 0005C0 5030 7040            00040 11859  1  683.                ST    RB,CTJDCNT              SET COUNT IN CT
 0005C4 8930 0003            00003 11860  1  684.                SLL   RB,3                    TIMES 8
 0005C8                            11861  1  685.                VMGET (RB),LOC=GLOBHI
 0005C8 D70A D048 D048 00000 00000 11878  1          +
 0005CE 5030 D048            00000 11888  1          +
 0005D2 D201 D050 AE5E 00008 00E80 11889  1          +
 0005D8 58F0 ADAE/0DEF       00DD0 11892  1          +
 0005DE 1220/4770 A5F2       00614 11894  1  686.                IF    ('LTR  RA,RVR',Z),'ABORT JDINFO'
 0005E4 AC04 021B      0021B       11911  2          +
 0005E8 9680 021A      0021A       11917  2          +
 0005EC 50F0 021C            0021C 11918  2          +
 0005F0 58F0 0210            00210 11919  2          +
 0005F4 89F0 0010            00010 11920  2          +
 0005F8 88F0 0010            00010 11921  2          +
 0005FC 41F0 F000            00000 11922  2          +
 000600 AEFF 0006            00006 11923  2          +
 000604 D1C4C9D5C6D64040           11924  1          +
 000614 5020 7044            00044 11929  1  687.                ST    RA,CTJDPTRS             AREA
 000618 41E0 5004            00004 11930  1  688.                LA    R14,@RK+4               JES POINTER AREA
 00061C 1BFF                       11931  1  689.                CLEAR R15                     KEY
 00061E 832E000A                   11935  1  690.                SYSCTL RA,R14,TYPE=MVSMRD     GET JES BUFFER POINTERS
 DROP   SCVT,R4                    11938     691.              END   ,
                                   11947     692.     *
                                   11948     693.     *  GET POINTER TO MVS ASCB
                                   11949     694.     *
 000622 4120 7048            00048 11950     695.              LA    RA,CTASCB               PLACE FOR POINTER
 000626 4130 0004            00004 11951     696.              LA    RB,4                    ONE WORD
                                   11952     697.              PUSH  USING
 DROP   PZERO,R0                   11953     698.              USING (PSA,R0)
 USING  PSA,R0
 00062A 41E0 0224            00224 11967     699.              LA    R14,PSAAOLD             MVS LOCATION OF ASCB
 DROP   PSA,R0                     11968     700.              POP   USING
 USING  PZERO,R0
1M1SERV   (M1SE00) (09:42) (22MAR04) IHAPSAE  - PSA Extension (ESAME)                                                       Page   78
0Current Usings:  (PZERO,R0) (M1CT,R7) (M1SVINIT,R10) (M1IWORK-72,R12) (@VMGET-72,R13)
0Loc    Object Code    Addr1 Addr2  Stmt Lv Lineno    Source Statement           (Hibal 5, Asmedit 3.3)  HLASM R4.0  2004/03/22 09.42
+___    ______ ____    _____ _____  ____ __ ______    ______ _________
000062E 1BFF                       12012     701.              CLEAR R15                     KEY
 000630 832E000A                   12016     702.              SYSCTL RA,R14,TYPE=MVSMRD     GET ADDRESS
                                   12019     703.     *  -->
                                   12020     704.     *  Allocate stats buffer
 000634                            12021     705.              VMGET L:=A(4096),LOC=GLOBHI,FIX=YES,PAGE=YES
 000634 D70A D048 D048 00000 00000 12038             +
 00063A 5800 AE0E            00E30 12046             +
 00063E 5000 D048            00000 12051             +
 000642 D201 D050 AE6E 00008 00E90 12052             +
 000648 9680 D052      0000A       12058             +
 00064C 58F0 ADAE/0DEF       00DD0 12061             +
 000652 5000 7068            00068 12063     706.              ST    RVR,CTVMSTAT
 000656 5810 AE0E            00E30 12064     707.              L     R1,=A(4096)
 00065A 1BFF                       12065     708.              CLEAR R15
 00065C 0E0E                       12069     709.              MVCL  R0,R14                  -->
                                   12070     710.     *
                                   12071     711.     *  SET UP PROGRAM CATALOG
                                   12072     712.     *
 00065E                            12073     713.              VMGET L:=A(4096),LOC=GLOBLO   GET THE PROGRAM CATALOG AREA
 00065E D70A D048 D048 00000 00000 12090             +
 000664 5800 AE0E            00E30 12098             +
 000668 5000 D048            00000 12103             +
 00066C D201 D050 AE70 00008 00E92 12104             +
 000672 58F0 ADAE/0DEF       00DD0 12107             +
 000678 1200/4770 A68C       006AE 12109     714.              IF    (RVR,Z),'ABORT NOPCAT'
 00067E AC04 021B      0021B       12127  1          +
 000682 9680 021A      0021A       12133  1          +
 000686 50F0 021C            0021C 12134  1          +
 00068A 58F0 0210            00210 12135  1          +
 00068E 89F0 0010            00010 12136  1          +
 000692 88F0 0010            00010 12137  1          +
 000696 41F0 F000            00000 12138  1          +
 00069A AEFF 0006            00006 12139  1          +
 00069E D5D6D7C3C1E34040           12140             +
 0006AE 5000 7054            00054 12145     715.              ST    RVR,CTPCAT              SET ADDRESS
 0006B2 5810 AE0E            00E30 12146     716.              L     R1,=A(4096)             CLEAR
 0006B6 1BFF                       12147     717.              CLEAR R15                      THE
 0006B8 0E0E                       12151     718.              MVCL  R0,R14                    AREA
 0006BA 981F C008            00008 12152     719.              PEND
 DROP   M1CT,R7
 DROP   M1IWORK-72,R12
 DROP   M1SVINIT,R10
 0006BE 9680 C000/0B0E 00000       12172             +
 DROP   @VMGET-72,R13
1M1SERV   (M1SE00) (09:42) (22MAR04) IHAPSAE  - PSA Extension (ESAME)                                                       Page   79
0Current Usings:  (PZERO,R0)
0Loc    Object Code    Addr1 Addr2  Stmt Lv Lineno    Source Statement           (Hibal 5, Asmedit 3.3)  HLASM R4.0  2004/03/22 09.42
+___    ______ ____    _____ _____  ____ __ ______    ______ _________
0                                  12182     721.     *******************************************************************
                                   12183     722.     *                                                                 *
                                   12184     723.     *    UTRACE - Mode 1 Services Local Trace Routine                 *
                                   12185     724.     *                                                                 *
                                   12186     725.     *                                                                 *
                                   12187     726.     *     Input - @UTRACE                                             *
                                   12188     727.     *                                                                 *
                                   12189     728.     *    Output - None                                                *
                                   12190     729.     *                                                                 *
                                   12191     730.     *                                                                 *
                                   12192     731.     *******************************************************************
-
 0006C4                            12194     733.     UTRACE   PROC  @UTRACE
 0006C4 E4E3D9C1C3C54040           12201             +
 0006CC 0020/0000                  12202             +
 0006D0 900F D004/18AF       00004 12204             +
 USING  UTRACE,R10
 0006D6 50D0 C000/18CD       00000 12219             +
 0006DC 9680 C000      00000       12221             +
 USING  @UTRACE-72,R12
 0006E0 41D0 C068            00068 12235             +
 USING  SCP,R7                     12236     734.              WITH  (SCP,RY)
                                   12249     735.     *
                                   12250     736.     *  Test for tracing active
                                   12251     737.     *
 0006E4 5830 725C/1233       0025C 12252     738.              IF    ('LT  RB,SCPTRACE',Z),EXIT
 0006EA 4780 A082            00752 12265             +
 USING  UTRHDR,R3                  12271     739.              WITH  (UTRHDR,RB)
 0006EE 9180 7262      00262       12284     740.              IF    (SCBFCLP,AND,~SCPFTRC),EXIT
 0006F2 47E0 A02E            006FE 12296             +
 0006F6 9101 7200      00200       12307             +
 0006FA 47E0 A082            00752 12310             +
 0006FE 9180 7262      00262       12316     741.              IF    (~SCBFCLP,AND,~SCPFTRU),EXIT
 000702 4710 A03E            0070E 12328             +
 000706 9102 7200      00200       12339             +
 00070A 47E0 A082            00752 12342             +
                                   12348     742.     *
                                   12349     743.     *  Get size of entry
                                   12350     744.     *
 00070E 1F22/4320 C04B       00003 12351     745.              LC    RA,@UTDWC               Get data word count
 000714 8920 0002            00002 12358     746.              SLL   RA,2                     to bytes
 000718 4120 200C            0000C 12359     747.              LA    RA,@RA+L'@UTBASIC       Total size of entry
 00071C 5840 3004            00004 12360     748.              L     RJ,UTRNEXT              Next entry location
 000720 4112 4000            00000 12361     749.              LA    RS,@RJ(RA)              End of this entry
                                   12362     750.     *
                                   12363     751.     *  If entry won't fit get next buffer
                                   12364     752.     *
 000724 5910 3008            00008 12365     753.              IF    (RS,GT,UTREND),BEGIN
 000728 47D0 A070            00740 12377             +
 00072C 5830 3000            00000 12382  1  754.                L     RB,UTRCHAIN             Next buffer on the list
 000730 5030 725C            0025C 12383  1  755.                ST    RB,SCPTRACE
 000734 4140 300C            0000C 12384  1  756.                LA    RJ,UTRSTART             First entry location
1M1SERV   (M1SE00) (09:42) (22MAR04) IHAPSAE  - PSA Extension (ESAME)                                                       Page   80
0Current Usings:  (PZERO,R0) (UTRHDR,R3) (SCP,R7) (UTRACE,R10) (@UTRACE-72,R12)
0Loc    Object Code    Addr1 Addr2  Stmt Lv Lineno    Source Statement           (Hibal 5, Asmedit 3.3)  HLASM R4.0  2004/03/22 09.42
+___    ______ ____    _____ _____  ____ __ ______    ______ _________
0000738 5040 3004            00004 12385  1  757.                ST    RJ,UTRNEXT
 00073C 4112 4000            00000 12386  1  758.                LA    RS,@RJ(RA)              End of this entry
 000740                            12387     759.              END   ,
                                   12391     760.     *
                                   12392     761.     *  Move in data and update pointer if ok
                                   12393     762.     *
 000740 5910 3008            00008 12394     763.              IF    (RS,LT,UTREND),BEGIN
 000744 47B0 A082            00752 12406             +
 000748 0620/4420 A82A       00EFA 12411  1  764.                DEX   RA,'MVC  @RJ(0),@UTRACE'
 000EFA D200 4000 C048 00000 00000 12422  1          +
 00074E 5010 3004            00004 12430  1  765.                ST    RS,UTRNEXT
 000752                            12431     766.              END
 000752 981F C008            00008 12435     767.              PEND
 DROP   UTRHDR,R3
 DROP   SCP,R7
 DROP   @UTRACE-72,R12
 DROP   UTRACE,R10
 000756 9680 C000/0B0E 00000       12460             +
1M1SERV   (M1SE00) (09:42) (22MAR04) IHAPSAE  - PSA Extension (ESAME)                                                       Page   81
0Current Usings:  (PZERO,R0)
0Loc    Object Code    Addr1 Addr2  Stmt Lv Lineno    Source Statement           (Hibal 5, Asmedit 3.3)  HLASM R4.0  2004/03/22 09.42
+___    ______ ____    _____ _____  ____ __ ______    ______ _________
0                                  12467     769.     *******************************************************************
                                   12468     770.     *                                                                 *
                                   12469     771.     *    M1LOGON - Mode 1 Services Logon Processing                   *
                                   12470     772.     *                                                                 *
                                   12471     773.     *                                                                 *
                                   12472     774.     *     Input -                                                     *
                                   12473     775.     *                                                                 *
                                   12474     776.     *    Output -                                                     *
                                   12475     777.     *                                                                 *
                                   12476     778.     *                                                                 *
                                   12477     779.     *******************************************************************
-
 00075C                            12479     781.     M1LOGON  PROC  ,SCOPE=GLOBAL
 00075C D4F1D3D6C7D6D540           12485             +
 000764 0000/0000                  12486             +
 000768 900F D004/18AF       00004 12488             +
 USING  M1LOGON,R10
 00076E 50D0 C000/18CD       00000 12503             +
 000774 9680 C000      00000       12505             +
 000778 41D0 C048            00048 12506             +
                                   12507     782.     *
                                   12508     783.     *  First get user information
                                   12509     784.     *
 00077C 58F0 A6CC/0DEF       00E34 12510     785.              VCALL TERMINUI
                                   12514     786.     *
                                   12515     787.     *  CREATE THE SCP
                                   12516     788.     *
 USING  @VMGET-72,R13              12517     789.              VMGET L'SCP,LOC=LOCSYS,TYPE=PROG,FIX=YES
 000782 D70A D048 D048 00000 00000 12541             +
 000788 4100 0294            00294 12553             +
 00078C 5000 D048            00000 12558             +
 000790 D201 D050 A72C 00008 00E94 12559             +
 000796 58F0 A668/0DEF       00DD0 12562             +
 00079C 1270/4770 A06A       007D2 12564     790.              IF    ('LTR  RY,RVR',Z),'ABORT NOSCP'
 0007A2 AC04 021B      0021B       12581  1          +
 0007A6 9680 021A      0021A       12587  1          +
 0007AA 50F0 021C            0021C 12588  1          +
 0007AE 58F0 0210            00210 12589  1          +
 0007B2 89F0 0010            00010 12590  1          +
 0007B6 88F0 0010            00010 12591  1          +
 0007BA 41F0 F000            00000 12592  1          +
 0007BE AEFF 0006            00006 12593  1          +
 0007C2 D5D6E2C3D7404040           12594             +
                                   12599     791.     *
                                   12600     792.     *  CLEAR IT AND SET ID
                                   12601     793.     *
 0007D2 4110 0294            00294 12602     794.              LA    R1,L'SCP                LENGTH OF THE SCP
 0007D6 1BFF                       12603     795.              CLEAR R15
 0007D8 0E0E                       12607     796.              MVCL  R0,R14                  CLEAR THE SCP
 USING  SCP,R7                     12608     797.              WITH  (SCP,RY)
 0007DA D203 7000 A6D0 00000 00E38 12621     798.              MVC   SCPID,=CL4'SCP'         SET ID
                                   12622     799.     *
1M1SERV   (M1SE00) (09:42) (22MAR04) IHAPSAE  - PSA Extension (ESAME)                                                       Page   82
0Current Usings:  (PZERO,R0) (SCP,R7) (M1LOGON,R10) (@VMGET-72,R13)
0Loc    Object Code    Addr1 Addr2  Stmt Lv Lineno    Source Statement           (Hibal 5, Asmedit 3.3)  HLASM R4.0  2004/03/22 09.42
+___    ______ ____    _____ _____  ____ __ ______    ______ _________
0                                  12623     800.     *  CONNECT SCP TO ASB
                                   12624     801.     *
 0007E0 5820 0208            00208 12625     802.              L     RA,PZCURASB             CURRENT ASB
 0007E4 5070 202C            0002C 12626     803.              WITH  (ASB,RA),'ST  RY,ASBM1SCP'  SCP POINTER
 USING  ASB,R2
 DROP   ASB,R2
                                   12650     804.     *
                                   12651     805.     *  INITIALIZE SCP FIELDS
                                   12652     806.     *
 0007E8 5820 0200            00200 12653     807.              L     RA,MATPTR               MAT POINTER
 0007EC 5820 2010            00010 12654     808.              WITH  (MAT,RA),'L  RA,MATM1CT'   CT POINTER
 USING  MAT,R2
 DROP   MAT,R2
 USING  M1CT,R2                    12678     809.              WITH  (M1CT,RA),BEGIN
 0007F0 D203 71F4 2024 001F4 00024 12692  1  810.                MVC   SCPRRSEG,CTUMORG        ADDRESS SPACE ORIGIN
 0007F6 D203 71F0 2028 001F0 00028 12693  1  811.                MVC   SCPUMSIZ,CTUMSIZ         AND SIZE
 0007FC D201 71FA 2036 001FA 00036 12694  1  812.                MVC   SCPUNRSV,CTUMPGS        MAXIMUM NUMBER OF PAGES
 000802 D201 7210 2038 00210 00038 12695  1  813.                MVC   SCPNIDT,CTNIDT          NUMBER OF IDTS
 000808 D201 7256 203A 00256 0003A 12696  1  814.                MVC   SCPNENQ,CTNENQ          NUMBER OF ENQUEUES
 00080E D200 7202 203C 00202 0003C 12697  1  815.                MVC   SCPTRASH,CTTRASH        DEFAULT TRASH BYTE
 000814 D203 71BC 2054 001BC 00054 12698  1  816.                MVC   SCPPCAT,CTPCAT          PROGRAM CATALOG POINTER
 00081A D203 71FC 202C 001FC 0002C 12699  1  817.                MVC   SCPUMAP,CTUMAP          MAP SIZE
 000820 920F 728A      0028A       12700  1  818.                MVI   SCBUPRI,X'0F'           USER PRIORITY (PHONY)
 000824 9602 7200      00200       12701  1  819.                SET   SCPFTRU                 Set user trace on
                                   12707  1  820.     *
                                   12708  1  821.     *  Set up the trace buffers
                                   12709  1  822.     *
 000828 4810 2034/1211       00034 12710  1  823.                IF    ('LTH  RS,CTNTRACE',NZ),BEGIN
 00082E 4780 A118            00880 12721  1          +
 000832 1B44                       12726  2  824.                  CLEAR RJ
 000834                            12730  2  825.                  LOOP  BEGIN
 000834 58F0 2030            00030 12736  3  826.                    L     R15,CTTRCSIZ             Size of the trace buffer
 000838                            12737  3  827.                    VMGET (R15),LOC=LOCSYS,TYPE=PROG,FIX=YES    Get one
 000838 D70A D048 D048 00000 00000 12754  3          +
 00083E 50F0 D048            00000 12764  3          +
 000842 D201 D050 A72C 00008 00E94 12765  3          +
 000848 58F0 A668/0DEF       00DD0 12768  3          +
 00084E 1200/4780 A118       00880 12770  3  828.                    IF    (RVR,Z),EXIT            No room
 000854 1830                       12787  3  829.                    LR    RB,RVR
 000856 1244/4770 A0F6       0085E 12788  3  830.                    IF    (RJ,Z),'LR  RJ,RB'      First buffer address
 00085C 1843                       12803  3          +
 USING  UTRHDR,R3                  12808  3  831.                    WITH  (UTRHDR,RB)
 00085E D203 3000 725C 00000 0025C 12821  3  832.                    MVC   UTRCHAIN,SCPTRACE       Set up the chain
 000864 5030 725C            0025C 12822  3  833.                    ST    RB,SCPTRACE
 000868 41F0 300C            0000C 12823  3  834.                    LA    R15,UTRSTART            Start of data
 00086C 50F0 3004            00004 12824  3  835.                    ST    R15,UTRNEXT             Next entry pointer
 000870 58F0 2030            00030 12825  3  836.                    L     R15,CTTRCSIZ
 000874 41FF 3000            00000 12826  3  837.                    LA    R15,UTRHDR(R15)         End of data
 000878 50F0 3008            00008 12827  3  838.                    ST    R15,UTREND
 00087C 4610 A0CC            00834 12828  2  839.                  UNTIL (BCT,RS),END
 DROP   UTRHDR,R3
 000880                            12843  1  840.                END
 000880 1244/4780 A122       0088A 12847  1  841.                IF    (RJ,NZ),BEGIN
 USING  UTRHDR,R4                  12861  2  842.                  WITH  (UTRHDR,RJ)
1M1SERV   (M1SE00) (09:42) (22MAR04) IHAPSAE  - PSA Extension (ESAME)                                                       Page   83
0Current Usings:  (PZERO,R0) (M1CT,R2) (UTRHDR,R4) (SCP,R7) (M1LOGON,R10) (@VMGET-72,R13)
0Loc    Object Code    Addr1 Addr2  Stmt Lv Lineno    Source Statement           (Hibal 5, Asmedit 3.3)  HLASM R4.0  2004/03/22 09.42
+___    ______ ____    _____ _____  ____ __ ______    ______ _________
0000886 5030 4000            00000 12874  2  843.                  ST    RB,UTRCHAIN             Make chain circular
 DROP   UTRHDR,R4                  12875  1  844.                END
 DROP   M1CT,R2                    12884     845.              END
                                   12892     846.     *
                                   12893     847.     *  GET LOGGED ON ACCOUNT
                                   12894     848.     *
 DROP   @VMGET-72,R13              12895     849.              PSET  @ACAINFO
 USING  @ACAINFO-72,R13
 00088A D717 D048 D048 00000 00000 12915             +
 000890 D203 D048 0208 00000 00208 12916     850.              MVC   @ACAASB,PZCURASB        CURRENT ASB
 000896 58F0 A6D4/0DEF       00E3C 12917     851.              VCALL ACAINFO                 GET INFO
 00089C D201 71AA D04F 001AA 00007 12921     852.              MVC   SCPGROUP,@ACAUID+3      GROUP
 0008A2 D202 71AD D04C 001AD 00004 12922     853.              MVC   SCPUSER,@ACAUID          USER ID
 0008A8 D200 71B7 D057 001B7 0000F 12923     854.              MVC   SCPPRIV,MILPRIV           AND PRIVS
 0008AE 924B 71AC      001AC       12924     855.              MVI   SCPACCT+2,C'.'          HEY, DON'T FORGET THE DOT
                                   12925     856.     *
                                   12926     857.     *  CREATE THE CLW
                                   12927     858.     *
 0008B2 5810 A6C8            00E30 12928     859.              L     RS,=A(4096)             LENGTH OF THE CLW
 DROP   @ACAINFO-72,R13            12929     860.              VMGET (RS),LOC=LOCSYS,TYPE=PROG
 USING  @VMGET-72,R13
 0008B6 D70A D048 D048 00000 00000 12956             +
 0008BC 5010 D048            00000 12966             +
 0008C0 D201 D050 A72E 00008 00E96 12967             +
 0008C6 58F0 A668/0DEF       00DD0 12970             +
 0008CC 1200/4770 A19A       00902 12972     861.              IF    (RVR,Z),'ABORT NOCLW'
 0008D2 AC04 021B      0021B       12990  1          +
 0008D6 9680 021A      0021A       12996  1          +
 0008DA 50F0 021C            0021C 12997  1          +
 0008DE 58F0 0210            00210 12998  1          +
 0008E2 89F0 0010            00010 12999  1          +
 0008E6 88F0 0010            00010 13000  1          +
 0008EA 41F0 F000            00000 13001  1          +
 0008EE AEFF 0006            00006 13002  1          +
 0008F2 D5D6C3D3E6404040           13003             +
 000902 5000 71B8            001B8 13008     862.              ST    RVR,SCPCLW              SET THE CLW ADDRESS
                                   13009     863.     *
                                   13010     864.     *  CLEAR IT
                                   13011     865.     *
 000906 1BFF                       13012     866.              CLEAR R15
 000908 0E0E                       13016     867.              MVCL  R0,R14                  CLEAR THE CLW
1M1SERV   (M1SE00) (09:42) (22MAR04) IHAPSAE  - PSA Extension (ESAME)                                                       Page   84
0Current Usings:  (PZERO,R0) (SCP,R7) (M1LOGON,R10) (@VMGET-72,R13)
0Loc    Object Code    Addr1 Addr2  Stmt Lv Lineno    Source Statement           (Hibal 5, Asmedit 3.3)  HLASM R4.0  2004/03/22 09.42
+___    ______ ____    _____ _____  ____ __ ______    ______ _________
0                                  13018     869.     *
                                   13019     870.     *  CREATE THE ENQUEUE ID TABLE
                                   13020     871.     *
 00090A 4810 7256            00256 13021     872.              LH    RS,SCPNENQ              NUMBER OF ENQUEUES
 00090E 8910 0002            00002 13022     873.              SLL   RS,2                    EACH ENTRY IS 4 BYTES
 000912                            13023     874.              VMGET (RS),LOC=LOCSYS,TYPE=PROG,FIX=YES
 000912 D70A D048 D048 00000 00000 13040             +
 000918 5010 D048            00000 13050             +
 00091C D201 D050 A72C 00008 00E94 13051             +
 000922 58F0 A668/0DEF       00DD0 13054             +
 000928 1200/4770 A1F6       0095E 13056     875.              IF    (RVR,Z),'ABORT NOENQTAB'
 00092E AC04 021B      0021B       13074  1          +
 000932 9680 021A      0021A       13080  1          +
 000936 50F0 021C            0021C 13081  1          +
 00093A 58F0 0210            00210 13082  1          +
 00093E 89F0 0010            00010 13083  1          +
 000942 88F0 0010            00010 13084  1          +
 000946 41F0 F000            00000 13085  1          +
 00094A AEFF 0006            00006 13086  1          +
 00094E D5D6C5D5D8E3C1C2           13087             +
 00095E 5000 7258            00258 13092     876.              ST    RVR,SCPENQL             SET THE ADDRESS
 000962 1BFF                       13093     877.              CLEAR R15
 000964 0E0E                       13097     878.              MVCL  R0,R14                  CLEAR THE TABLE
                                   13098     879.     *
                                   13099     880.     * ALLOCATE AND INITIALIZE IDT'S
                                   13100     881.     *
 000966 4810 7210            00210 13101     882.              LH    RS,SCPNIDT              NUMBER OF IDTS
 00096A 4C10 A730            00E98 13102     883.              MH    RS,=Y(L'IDT)            ALLOCATE IDT PAGES
                                   13103     884.     *         VMGET (RS),LOC=LOCSYS,TYPE=PROG,FETP=YES
 00096E                            13104     885.              VMGET (RS),LOC=LOCSYS,FETP=YES Above the 16 meg line
 00096E D70A D048 D048 00000 00000 13121             +
 000974 5010 D048            00000 13131             +
 000978 D201 D050 A732 00008 00E9A 13132             +
 00097E 58F0 A668/0DEF       00DD0 13135             +
 000984 1210/4770 A252       009BA 13137     886.              IF    ('LTR RS,RVR',Z),'ABORT NOIDTS'
 00098A AC04 021B      0021B       13154  1          +
 00098E 9680 021A      0021A       13160  1          +
 000992 50F0 021C            0021C 13161  1          +
 000996 58F0 0210            00210 13162  1          +
 00099A 89F0 0010            00010 13163  1          +
 00099E 88F0 0010            00010 13164  1          +
 0009A2 41F0 F000            00000 13165  1          +
 0009A6 AEFF 0006            00006 13166  1          +
 0009AA D5D6C9C4E3E24040           13167             +
 0009BA 5010 720C            0020C 13172     887.              ST    RS,SCPIDT               SAVE ADDRESS
 0009BE 1BEE                       13173     888.              CLEAR R14
 0009C0                            13177     889.              LOOP  BEGIN
 USING  IDT,R1                     13183  1  890.                WITH  (IDT,RS)
 0009C0 41E0 E001            00001 13196  1  891.                LA    R14,@R14+1              COUNT THIS IDT
 0009C4                            13197  1  892.                CLEAR IDT
 0009C4 D737 1000 1000 00000 00000 13203  1          +
 0009CA 42E0 1007            00007 13204  1  893.                STC   R14,IDTID               SAVE THE DEVICE ID
 0009CE D203 1000 A6D8 00000 00E40 13205  1  894.                MVC   IDT(4),=CL4'IDT'        EYE CATCHER
 0009D4 4110 1038            00038 13206  1  895.                LA    RS,IDTNEXT              GET TO THE NEXT ONE
1M1SERV   (M1SE00) (09:42) (22MAR04) IHAPSAE  - PSA Extension (ESAME)                                                       Page   85
0Current Usings:  (PZERO,R0) (IDT,R1) (SCP,R7) (M1LOGON,R10) (@VMGET-72,R13)
0Loc    Object Code    Addr1 Addr2  Stmt Lv Lineno    Source Statement           (Hibal 5, Asmedit 3.3)  HLASM R4.0  2004/03/22 09.42
+___    ______ ____    _____ _____  ____ __ ______    ______ _________
00009D8 49E0 7210            00210 13207     896.              UNTIL (R14,EQ,SCPNIDT),END    TILL NO MORE ARE LEFT
 0009DC 4770 A258            009C0 13226             +
 DROP   IDT,R1
 0009E0 40E0 7212            00212 13237     897.              STH   R14,SCPQIDT             LAST IS FOR ENQ/DEQ
1M1SERV   (M1SE00) (09:42) (22MAR04) IHAPSAE  - PSA Extension (ESAME)                                                       Page   86
0Current Usings:  (PZERO,R0) (SCP,R7) (M1LOGON,R10) (@VMGET-72,R13)
0Loc    Object Code    Addr1 Addr2  Stmt Lv Lineno    Source Statement           (Hibal 5, Asmedit 3.3)  HLASM R4.0  2004/03/22 09.42
+___    ______ ____    _____ _____  ____ __ ______    ______ _________
0                                  13239     899.     *
                                   13240     900.     *  ESTABLISH PROGRAM INTERRUPT EXIT
                                   13241     901.     *
 DROP   @VMGET-72,R13              13242     902.              PSET  @EXRADD
 USING  @EXRADD-72,R13
 0009E4 D714 D048 D048 00000 00000 13262             +
 0009EA 968C D048      00000       13263     903.              WITH  (XITMSKD,@EXRTYPE),'SET  XITMPI+XITMPER+XITMMON'
 AUSING (XITMSKD,@EXRTYPE)
 0009EE D203 D050 A6DC 00008 00E44 13290     904.              MVC   @EXRPSW(4),=X'070C0000'  SET PSW
 0009F4 D203 D054 A6E0 0000C 00E48 13291     905.              MVC   @EXRPSW+4(4),=A(M1PGM+X'80000000')
 0009FA 9640 D05C      00014       13292     906.              SET   @EXRAFS                 THIS IS A SYSTEM EXIT
 0009FE 5070 D058            00010 13298     907.              ST    RY,@EXRPARM             SCP IS EXIT PARM
 000A02 58F0 A6E4/0DEF       00E4C 13299     908.              VCALL EXRADD                  CREATE THE EXIT
                                   13303     909.     *
                                   13304     910.     *  ESTABLISH SUPERISOR CALL INTERRUPT EXIT
                                   13305     911.     *
 000A08                            13306     912.              CLEAR @EXRADD
 000A08 D714 D048 D048 00000 00000 13312             +
 000A0E 9640 D048      00000       13313     913.              WITH  (XITMSKD,@EXRTYPE),'SET  XITMSVC'
 AUSING (XITMSKD,@EXRTYPE)
 000A12 D203 D050 A6DC 00008 00E44 13333     914.              MVC   @EXRPSW(4),=X'070C0000'  SET PSW
 000A18 D203 D054 A6E8 0000C 00E50 13334     915.              MVC   @EXRPSW+4(4),=A(M1SVC+X'80000000')
 000A1E 9640 D05C      00014       13335     916.              SET   @EXRAFS                 THIS IS A SYSTEM EXIT
 000A22 5070 D058            00010 13341     917.              ST    RY,@EXRPARM             SCP IS EXIT PARM
 000A26 58F0 A6E4/0DEF       00E4C 13342     918.              VCALL EXRADD                  CREATE THE EXIT
                                   13346     919.     *
                                   13347     920.     *  ESTABLISH TIMER COMPLETE EXIT
                                   13348     921.     *
 000A2C                            13349     922.              CLEAR @EXRADD
 000A2C D714 D048 D048 00000 00000 13355             +
 000A32 9630 D048      00000       13356     923.              WITH  (XITMSKD,@EXRTYPE),'SET  XITMRTC+XITMCTC'
 AUSING (XITMSKD,@EXRTYPE)
 000A36 D203 D050 A6DC 00008 00E44 13379     924.              MVC   @EXRPSW(4),=X'070C0000'  SET PSW
 000A3C D203 D054 A6EC 0000C 00E54 13380     925.              MVC   @EXRPSW+4(4),=A(M1TMC+X'80000000')
 000A42 9640 D05C      00014       13381     926.              SET   @EXRAFS                 THIS IS A SYSTEM EXIT
 000A46 5070 D058            00010 13387     927.              ST    RY,@EXRPARM             SCP IS EXIT PARM
 000A4A 58F0 A6E4/0DEF       00E4C 13388     928.              VCALL EXRADD                  CREATE THE EXIT
                                   13392     929.     *
                                   13393     930.     *  ESTABLISH I/O COMPLETE EXIT
                                   13394     931.     *
 000A50                            13395     932.              CLEAR @EXRADD
 000A50 D714 D048 D048 00000 00000 13401             +
 000A56 9660 D049      00001       13402     933.              WITH  (XITMSKD,@EXRTYPE),'SET  XITMIOCN+XITMIOCA'
 AUSING (XITMSKD,@EXRTYPE)
 000A5A D203 D050 A6DC 00008 00E44 13425     934.              MVC   @EXRPSW(4),=X'070C0000'  SET PSW
 000A60 D203 D054 A6F0 0000C 00E58 13426     935.              MVC   @EXRPSW+4(4),=A(M1IOC+X'80000000')
 000A66 9640 D05C      00014       13427     936.              SET   @EXRAFS                 THIS IS A SYSTEM EXIT
 000A6A 5070 D058            00010 13433     937.              ST    RY,@EXRPARM             SCP IS EXIT PARM
 000A6E 58F0 A6E4/0DEF       00E4C 13434     938.              VCALL EXRADD                  CREATE THE EXIT
1M1SERV   (M1SE00) (09:42) (22MAR04) IHAPSAE  - PSA Extension (ESAME)                                                       Page   87
0Current Usings:  (PZERO,R0) (SCP,R7) (M1LOGON,R10) (@EXRADD-72,R13)
0Loc    Object Code    Addr1 Addr2  Stmt Lv Lineno    Source Statement           (Hibal 5, Asmedit 3.3)  HLASM R4.0  2004/03/22 09.42
+___    ______ ____    _____ _____  ____ __ ______    ______ _________
0                                  13439     940.     *
                                   13440     941.     *  ESTABLISH ATTENTION EXIT
                                   13441     942.     *
 000A74                            13442     943.              CLEAR @EXRADD
 000A74 D714 D048 D048 00000 00000 13448             +
 000A7A 9680 D049      00001       13449     944.              WITH  (XITMSKD,@EXRTYPE),'SET  XITMATTN'
 AUSING (XITMSKD,@EXRTYPE)
 000A7E D203 D050 A6DC 00008 00E44 13469     945.              MVC   @EXRPSW(4),=X'070C0000'  SET PSW
 000A84 D203 D054 A6F4 0000C 00E5C 13470     946.              MVC   @EXRPSW+4(4),=A(M1ATTN+X'80000000')
 000A8A 9640 D05C      00014       13471     947.              SET   @EXRAFS                 THIS IS A SYSTEM EXIT
 000A8E 5070 D058            00010 13477     948.              ST    RY,@EXRPARM             SCP IS EXIT PARM
 000A92 58F0 A6E4/0DEF       00E4C 13478     949.              VCALL EXRADD                  CREATE THE EXIT
                                   13482     950.     *
                                   13483     951.     *  ESTABLISH LOGOFF EXIT
                                   13484     952.     *
 000A98                            13485     953.              PSET  @EXRADD
 000A98 D714 D048 D048 00000 00000 13495             +
 000A9E 9602 D048      00000       13496     954.              WITH  (XITMSKD,@EXRTYPE),'SET  XITMLGO'
 AUSING (XITMSKD,@EXRTYPE)
 000AA2 D203 D050 A6DC 00008 00E44 13516     955.              MVC   @EXRPSW(4),=X'070C0000'  SET PSW
 000AA8 D203 D054 A6F8 0000C 00E60 13517     956.              MVC   @EXRPSW+4(4),=A(M1LGOFF+X'80000000')
 000AAE 9640 D05C      00014       13518     957.              SET   @EXRAFS                 THIS IS A SYSTEM EXIT
 000AB2 5070 D058            00010 13524     958.              ST    RY,@EXRPARM             SCP IS EXIT PARM
 000AB6 58F0 A6E4/0DEF       00E4C 13525     959.              VCALL EXRADD                  CREATE THE EXIT
                                   13529     960.     *
                                   13530     961.     *  ENABLE EXITS
                                   13531     962.     *
 DROP   @EXRADD-72,R13             13532     963.              PSET  @XITMASK
 USING  @XITMASK-72,R13
 000ABC D704 D048 D048 00000 00000 13552             +
 AUSING (XITMSKD,@XITMSK)          13553     964.              WITH  (XITMSKD,@XITMSK)
 000AC2 96C0 D048      00000       13560     965.              SET   XITMSVC+XITMPI          SVC AND PROGRAM EXITS
 000AC6 9660 D049      00001       13569     966.              SET   XITMIOCN+XITMIOCA       NORMAL AND ERROR I/O EXITS
 000ACA 960C D048      00000       13578     967.              SET   XITMPER+XITMMON         PER AND MONITOR EXITS
 000ACE 9630 D048      00000       13587     968.              SET   XITMRTC+XITMCTC         REAL AND CPU TIMER EXITS
 000AD2 9680 D049      00001       13596     969.              SET   XITMATTN                ATTENTION EXITS
 000AD6 9602 D048      00000       13602     970.              SET   XITMLGO                 LOGOFF EXITS
 000ADA 58F0 A6FC/0DEF       00E64 13608     971.              VCALL XITMASK
                                   13612     972.     *
                                   13613     973.     *  CREATE USER TIMER EXIT ID
                                   13614     974.     *
 000AE0 9200 D048      00000       13615     975.              PSET  @XITNEW
 DROP   @XITMASK-72,R13
 USING  @XITNEW-72,R13
 000AE4 58F0 A700/0DEF       00E68 13636     976.              VCALL XITNEW                  CREATE AN EXIT
 000AEA 5000 71CC            001CC 13640     977.              ST    RVR,SCPUCXIT            USER CLOCK EXIT ID
1M1SERV   (M1SE00) (09:42) (22MAR04) IHAPSAE  - PSA Extension (ESAME)                                                       Page   88
0Current Usings:  (PZERO,R0) (SCP,R7) (M1LOGON,R10) (@XITNEW-72,R13)
0Loc    Object Code    Addr1 Addr2  Stmt Lv Lineno    Source Statement           (Hibal 5, Asmedit 3.3)  HLASM R4.0  2004/03/22 09.42
+___    ______ ____    _____ _____  ____ __ ______    ______ _________
0                                  13642     979.     *
                                   13643     980.     *  CREATE CLP TIMER EXIT ID
                                   13644     981.     *
 000AEE 9200 D048      00000       13645     982.              PSET  @XITNEW
 000AF2 58F0 A700/0DEF       00E68 13656     983.              VCALL XITNEW                  CREATE AN EXIT
 000AF8 5000 71D4            001D4 13660     984.              ST    RVR,SCPCCXIT            CLP CLOCK EXIT ID
                                   13661     985.     *
                                   13662     986.     *  CREATE ENQUEUE POST EXIT ID
                                   13663     987.     *
 000AFC 9200 D048      00000       13664     988.              PSET  @XITNEW
 000B00 58F0 A700/0DEF       00E68 13675     989.              VCALL XITNEW                  CREATE EXIT
 000B06 5000 7270            00270 13679     990.              ST    RVR,SCPEPXIT            SAVE EXIT ID
                                   13680     991.     *
                                   13681     992.     *  SET UP ENTRY TO CLP
                                   13682     993.     *
 DROP   @XITNEW-72,R13             13683     994.              PSET  @SETCLP,CLEAR=NO
 USING  @SETCLP-72,R13
 000B0A 4110 0000            00000 13697     995.              LA    RS,0                    ENTRY CODE
 000B0E 5010 D048            00000 13698     996.              ST    RS,@SCCODE              SET
 000B12 58F0 A704/0DEF       00E6C 13699     997.              ACALL SETCLP                  GO TO CLP
                                   13706     998.     *
                                   13707     999.     *  SET REGISTERS AND START HIM UP
                                   13708    1000.     *
 000B18 9801 7010            00010 13709    1001.              LM    R0,R1,SCPGPRS+0*4       GENERAL
 000B1C 98EF 7048            00048 13710    1002.              LM    R14,R15,SCPGPRS+14*4     REGISTERS
 000B20 6800 7050            00050 13711    1003.              LD    0,SCPFPRS+0*8           FLOATING
 000B24 6820 7058            00058 13712    1004.              LD    2,SCPFPRS+1*8            POINT
 000B28 6840 7060            00060 13713    1005.              LD    4,SCPFPRS+2*8             REGISTERS
 000B2C 6860 7068            00068 13714    1006.              LD    6,SCPFPRS+3*8
 000B30 8200 7008      00008       13715    1007.              LPSW  SCPPSW                  AND GO
 000B34 981F C008            00008 13716    1008.              PEND
 DROP   SCP,R7
 DROP   M1LOGON,R10
 000B38 9680 C000/0B0E 00000       13731             +
 DROP   @SETCLP-72,R13
1M1SERV   (M1SE00) (09:42) (22MAR04) IHAPSAE  - PSA Extension (ESAME)                                                       Page   89
0Current Usings:  (PZERO,R0)
0Loc    Object Code    Addr1 Addr2  Stmt Lv Lineno    Source Statement           (Hibal 5, Asmedit 3.3)  HLASM R4.0  2004/03/22 09.42
+___    ______ ____    _____ _____  ____ __ ______    ______ _________
0                                  13741    1010.     *******************************************************************
                                   13742    1011.     *                                                                 *
                                   13743    1012.     *    DUMPWORK - Mode 1 dump work area                             *
                                   13744    1013.     *                                                                 *
                                   13745    1014.     *******************************************************************
0000000                00000 00004 13747    1016.     M1DWORK  RECORD BEGIN
 000000                            13755  1 1017.     M1DUMPCB   DS    A                       DUMP CB
 000004                00004 00004 13756    1018.              END   ,
1M1SERV   (M1SE00) (09:42) (22MAR04) IHAPSAE  - PSA Extension (ESAME)                                                       Page   90
0Current Usings:  (PZERO,R0)
0Loc    Object Code    Addr1 Addr2  Stmt Lv Lineno    Source Statement           (Hibal 5, Asmedit 3.3)  HLASM R4.0  2004/03/22 09.42
+___    ______ ____    _____ _____  ____ __ ______    ______ _________
0                                  13766    1020.     *******************************************************************
                                   13767    1021.     *                                                                 *
                                   13768    1022.     *    M1DUMP  - Mode 1 Services Dump Processing                    *
                                   13769    1023.     *                                                                 *
                                   13770    1024.     *                                                                 *
                                   13771    1025.     *     Input -                                                     *
                                   13772    1026.     *                                                                 *
                                   13773    1027.     *    Output - None                                                *
                                   13774    1028.     *                                                                 *
                                   13775    1029.     *                                                                 *
                                   13776    1030.     *******************************************************************
-
 000B3E                            13778    1032.     M1DUMP   PROC  M1DWORK,SCOPE=GLOBAL
 000B3E D4F1C4E4D4D74040           13784             +
 000B46 0008/0000                  13785             +
 000B4A 900F D004/18AF       00004 13787             +
 USING  M1DUMP,R10
 000B50 50D0 C000/18CD       00000 13802             +
 000B56 9680 C000      00000       13804             +
 USING  M1DWORK-72,R12
 000B5A 41D0 C050            00050 13818             +
                                   13819    1033.     *
                                   13820    1034.     *  Get SCP pointer
                                   13821    1035.     *
 000B5E 5870 0208            00208 13822    1036.              L     RY,PZCURASB             CURRENT ASB
 000B62 5870 702C            0002C 13823    1037.              WITH  (ASB,RY),'L  RY,ASBM1SCP'  SCP POINTER
 USING  ASB,R7
 DROP   ASB,R7
 USING  SCP,R7                     13847    1038.              WITH  (SCP,RY)
 USING  @SEG-72,R13                13860    1039.              SEGEOR '*** MODE 1 SERVICES SCP ***',,M1DUMPCB
 000B66 D70C D048 D048 00000 00000 13879             +
 000B6C 4100 A352            00E9C 13888             +
 000B70 5000 D04C            00004 13893             +
 000B74 4100 001B            0001B 13905             +
 000B78 5000 D050            00008 13910             +
 000B7C D203 D048 C048 00000 00000 13917             +
 000B82 9610 D054      0000C       13923             +
 000B86 58F0 A326/0DEF       00E70 13926             +
 000B8C                            13928    1040.              SEGEOR ,
 000B8C D70C D048 D048 00000 00000 13940             +
 000B92 D703 D050 D050 00008 00008 13948             +
 000B98 D203 D048 C048 00000 00000 13955             +
 000B9E 9610 D054      0000C       13961             +
 000BA2 58F0 A326/0DEF       00E70 13964             +
 000BA8 1277/4770 A08E       00BD8 13966    1041.              IF    (RY,Z),BEGIN
 000BAE                            13980  1 1042.                SEGEOR '*** NOT INITIALIZED ***'
 000BAE D70C D048 D048 00000 00000 13992  1          +
 000BB4 4100 A36D            00EB7 14001  1          +
 000BB8 5000 D04C            00004 14006  1          +
 000BBC 4100 0017            00017 14018  1          +
 000BC0 5000 D050            00008 14023  1          +
 000BC4 D203 D048 C048 00000 00000 14030  1          +
1M1SERV   (M1SE00) (09:42) (22MAR04) IHAPSAE  - PSA Extension (ESAME)                                                       Page   91
0Current Usings:  (PZERO,R0) (SCP,R7) (M1DUMP,R10) (M1DWORK-72,R12) (@SEG-72,R13)
0Loc    Object Code    Addr1 Addr2  Stmt Lv Lineno    Source Statement           (Hibal 5, Asmedit 3.3)  HLASM R4.0  2004/03/22 09.42
+___    ______ ____    _____ _____  ____ __ ______    ______ _________
0000BCA 9610 D054      0000C       14036  1          +
 000BCE 58F0 A326/0DEF       00E70 14039  1          +
 000BD4 47F0 A1C6            00D10 14041  1 1043.                EXIT  M1DUMP
 000BD8                            14044    1044.              END   ,
                                   14048    1045.     *
                                   14049    1046.     *  Dump the SCP
                                   14050    1047.     *
 000BD8                            14051    1048.              SEG   'SCP at '
 000BD8 D70C D048 D048 00000 00000 14062             +
 000BDE 4100 A384            00ECE 14071             +
 000BE2 5000 D04C            00004 14076             +
 000BE6 4100 0007            00007 14088             +
 000BEA 5000 D050            00008 14093             +
 000BEE D203 D048 C048 00000 00000 14100             +
 000BF4 58F0 A326/0DEF       00E70 14103             +
 000BFA                            14105    1049.              SEGHEX SCP,4
 000BFA D70C D048 D048 00000 00000 14116             +
 000C00 5070 D04C            00004 14128             +
 000C04 4100 0004            00004 14140             +
 000C08 5000 D050            00008 14145             +
 000C0C D203 D048 C048 00000 00000 14152             +
 000C12 58F0 A32A/0DEF       00E74 14155             +
 000C18                            14157    1050.              SEGEOR
 000C18 D70C D048 D048 00000 00000 14169             +
 000C1E D703 D050 D050 00008 00008 14177             +
 000C24 D203 D048 C048 00000 00000 14184             +
 000C2A 9610 D054      0000C       14190             +
 000C2E 58F0 A326/0DEF       00E70 14193             +
 DROP   @SEG-72,R13                14195    1051.              SEGCORE SCP,ID=SCP
 USING  @SEGCORE-72,R13
 000C34 D717 D048 D048 00000 00000 14216             +
 000C3A 5070 D04C            00004 14228             +
 000C3E 4100 0294            00294 14240             +
 000C42 5000 D050            00008 14245             +
 000C46 D203 D05C A2EE 00014 00E38 14251             +
 000C4C D203 D058 D04C 00010 00004 14256             +
 000C52 96F0 D055      0000D       14274             +
 000C56 D203 D048 C048 00000 00000 14281             +
 000C5C 58F0 A32E/0DEF       00E78 14284             +
 DROP   @SEGCORE-72,R13            14286    1052.              SEGEOR
 USING  @SEG-72,R13
 000C62 D70C D048 D048 00000 00000 14308             +
 000C68 D703 D050 D050 00008 00008 14316             +
 000C6E D203 D048 C048 00000 00000 14323             +
 000C74 9610 D054      0000C       14329             +
 000C78 58F0 A326/0DEF       00E70 14332             +
                                   14334    1053.     *
                                   14335    1054.     *  DUMP THE IDTS
                                   14336    1055.     *
 000C7E                            14337    1056.              SEGEOR 'Dump of active IDTs'
 000C7E D70C D048 D048 00000 00000 14349             +
 000C84 4100 A38B            00ED5 14358             +
 000C88 5000 D04C            00004 14363             +
 000C8C 4100 0013            00013 14375             +
1M1SERV   (M1SE00) (09:42) (22MAR04) IHAPSAE  - PSA Extension (ESAME)                                                       Page   92
0Current Usings:  (PZERO,R0) (SCP,R7) (M1DUMP,R10) (M1DWORK-72,R12) (@SEG-72,R13)
0Loc    Object Code    Addr1 Addr2  Stmt Lv Lineno    Source Statement           (Hibal 5, Asmedit 3.3)  HLASM R4.0  2004/03/22 09.42
+___    ______ ____    _____ _____  ____ __ ______    ______ _________
0000C90 5000 D050            00008 14380             +
 000C94 D203 D048 C048 00000 00000 14387             +
 000C9A 9610 D054      0000C       14393             +
 000C9E 58F0 A326/0DEF       00E70 14396             +
 000CA4 1B22                       14398    1057.              CLEAR RA
 000CA6 5830 720C            0020C 14402    1058.              L     RB,SCPIDT
 000CAA 4920 7210            00210 14403    1059.              WHILE (RA,LT,SCPNIDT),BEGIN
 000CAE 47B0 A1C6            00D10 14417             +
 USING  IDT,R3                     14422  1 1060.                WITH  (IDT,RB)
                                   14435  1 1061.     *
                                   14436  1 1062.     *   ONLY DO ACTIVE IDTS
                                   14437  1 1063.     *
 000CB2 91C0 3004      00004       14438  1 1064.                IF    IDTFA+IDTFACL,BEGIN
 000CB6 4780 A1BA            00D04 14451  1          +
 DROP   @SEG-72,R13                14456  2 1065.                  SEGCORE IDT,ID=IDT
 USING  @SEGCORE-72,R13
 000CBA D717 D048 D048 00000 00000 14477  2          +
 000CC0 5030 D04C            00004 14489  2          +
 000CC4 4100 0038            00038 14501  2          +
 000CC8 5000 D050            00008 14506  2          +
 000CCC D203 D05C A2F6 00014 00E40 14512  2          +
 000CD2 D203 D058 D04C 00010 00004 14517  2          +
 000CD8 96F0 D055      0000D       14535  2          +
 000CDC D203 D048 C048 00000 00000 14542  2          +
 000CE2 58F0 A32E/0DEF       00E78 14545  2          +
 DROP   @SEGCORE-72,R13            14547  2 1066.                  SEGEOR
 USING  @SEG-72,R13
 000CE8 D70C D048 D048 00000 00000 14569  2          +
 000CEE D703 D050 D050 00008 00008 14577  2          +
 000CF4 D203 D048 C048 00000 00000 14584  2          +
 000CFA 9610 D054      0000C       14590  2          +
 000CFE 58F0 A326/0DEF       00E70 14593  2          +
 000D04                            14595  1 1067.                END   ,
 000D04 4130 3038            00038 14599  1 1068.                LA    RB,IDT+L'IDT
 000D08 5E20 A332            00E7C 14600  1 1069.                INCR  RA
 000D0C 47F0 A160            00CAA 14603    1070.              END   ,
 DROP   IDT,R3
 000D10 981F C008            00008 14613    1071.              PEND
 DROP   SCP,R7
 DROP   M1DWORK-72,R12
 DROP   M1DUMP,R10
 000D14 9680 C000/0B0E 00000       14633             +
 DROP   @SEG-72,R13
1M1SERV   (M1SE00) (09:42) (22MAR04) IHAPSAE  - PSA Extension (ESAME)                                                       Page   93
0Current Usings:  (PZERO,R0)
0Loc    Object Code    Addr1 Addr2  Stmt Lv Lineno    Source Statement           (Hibal 5, Asmedit 3.3)  HLASM R4.0  2004/03/22 09.42
+___    ______ ____    _____ _____  ____ __ ______    ______ _________
0000D20                            14643    1073.              LTORG
 000D20 E2D7C2C3C8C1C9D5           14645                             =CL16'SPBCHAIN'
 000D30 E2C5E3F2F1D8E4C5           14646                             =CL16'SET21QUEUE'
 000D40 D4D6C4C5F1404040           14647                             =CL8'MODE1'
 000D48 D4C1D7E2C9E9C540           14648                             =CL8'MAPSIZE'
 000D50 C4C5E5C9C3C5E240           14649                             =CL8'DEVICES'
 000D58 C5D5D8E4C5E4C5E2           14650                             =CL8'ENQUEUES'
 000D60 E3D9C3E2C9E9C540           14651                             =CL8'TRCSIZE'
 000D68 E3D9C3C2E4C6C640           14652                             =CL8'TRCBUFF'
 000D70 D9C5C7C9D6D54040           14653                             =CL8'REGION'
 000D78 D5C1D4C540404040           14654                             =CL8'NAME'
 000D80 4040404040404040           14655                             =CL8' '
 000D88 D7D9D6C7D5C1D4C5           14656                             =CL8'PROGNAME'
 000D90 D3C9C24040404040           14657                             =CL8'LIB'
 000D98 E2C9E9C540404040           14658                             =CL8'SIZE'
 000DA0 D7D9D6E340404040           14659                             =CL8'PROT'
 000DA8 C1E4E3C840404040           14660                             =CL8'AUTH'
 000DB0 D3D6C1C4C8C94040           14661                             =CL8'LOADHI'
 000DB8 D4D6C4C5F3F14040           14662                             =CL8'MODE31'
 000DC0 D7E4D9C7C1C2D3C5           14663                             =CL8'PURGABLE'
 000DC8 E2D7C9D9C5E24040           14664                             =CL8'SPIRES'
 000DD0 00000000                   14665                             =V(VMGET)
 000DD4 D4F1C3E3                   14666                             =CL4'M1CT'
 000DD8 00000000                   14667                             =V(LKCRE)
 000DDC 00030000                   14668                             =A(192*1024)
 000DE0 000000FA                   14669                             =A(250)
 000DE4 00000400                   14670                             =A(1024)
 000DE8 00000000                   14671                             =V(VMINFO)
 000DEC 00000002                   14672                             =A(2)
 000DF0 00200000                   14673                             =A(2*1024*1024)
 000DF4 00000008                   14674                             =A(8)
 000DF8 0000002C                   14675                             =A(44)
 000DFC 4040404040404040           14676                             =CL44' '
 000E28 E2D7C240                   14677                             =CL4'SPB'
 000E2C E2C3C9D7                   14678                             =CL4'SCIP'
 000E30 00001000                   14679                             =A(4096)
 000E34 00000000                   14680                             =V(TERMINUI)
 000E38 E2C3D740                   14681                             =CL4'SCP'
 000E3C 00000000                   14682                             =V(ACAINFO)
 000E40 C9C4E340                   14683                             =CL4'IDT'
 000E44 070C0000                   14684                             =X'070C0000'
 000E48 800018C2                   14685                             =A(M1PGM+X'80000000')
 000E4C 00000000                   14686                             =V(EXRADD)
 000E50 80001C02                   14687                             =A(M1SVC+X'80000000')
 000E54 80000F0C                   14688                             =A(M1TMC+X'80000000')
 000E58 800011AC                   14689                             =A(M1IOC+X'80000000')
 000E5C 8000151C                   14690                             =A(M1ATTN+X'80000000')
 000E60 8000173A                   14691                             =A(M1LGOFF+X'80000000')
 000E64 00000000                   14692                             =V(XITMASK)
 000E68 00000000                   14693                             =V(XITNEW)
 000E6C 00002058                   14694                             =A(SETCLP)
 000E70 00000000                   14695                             =V(SEG)
 000E74 00000000                   14696                             =V(SEGHEX)
 000E78 00000000                   14697                             =V(SEGCORE)
1M1SERV   (M1SE00) (09:42) (22MAR04) IHAPSAE  - PSA Extension (ESAME)                                                       Page   94
0Current Usings:  (PZERO,R0)
0Loc    Object Code    Addr1 Addr2  Stmt Lv Lineno    Source Statement           (Hibal 5, Asmedit 3.3)  HLASM R4.0  2004/03/22 09.42
+___    ______ ____    _____ _____  ____ __ ______    ______ _________
0000E7C 00000001                   14698                             =A(1)
 000E80 3B00                       14699                             =Y(59*256+0)
 000E82 0040                       14700                             =Y(64)
 000E84 0008                       14701                             =Y(8)
 000E86 0002                       14702                             =Y(2)
 000E88 E2C8C1D9C5C4               14703                             =C'SHARED'
 000E8E 3A00                       14704                             =Y(58*256+0)
 000E90 3F00                       14705                             =Y(63*256+0)
 000E92 2200                       14706                             =Y(34*256+0)
 000E94 1E00                       14707                             =Y(30*256+0)
 000E96 1A00                       14708                             =Y(26*256+0)
 000E98 0038                       14709                             =Y(L'IDT)
 000E9A 1B00                       14710                             =Y(27*256+0)
 000E9C 5C5C5C40D4D6C4C5           14711                             =C'*** MODE 1 SERVICES SCP ***'
 000EB7 5C5C5C40D5D6E340           14712                             =C'*** NOT INITIALIZED ***'
 000ECE E2C3D74081A340             14713                             =C'SCP at '
 000ED5 C4A4949740968640           14714                             =C'Dump of active IDTs'
1M1SERV   (M1SE00) (09:42) (22MAR04) IHAPSAE  - PSA Extension (ESAME)                                                       Page   95
0Current Usings:  (PZERO,R0)
0Loc    Object Code    Addr1 Addr2  Stmt Lv Lineno    Source Statement           (Hibal 5, Asmedit 3.3)  HLASM R4.0  2004/03/22 09.42
+___    ______ ____    _____ _____  ____ __ ______    ______ _________
0                                  14719    1075.     *******************************************************************
                                   14720    1076.     *                                                                 *
                                   14721    1077.     *    M1TMC  - Mode 1 Timer Completion Processor                   *
                                   14722    1078.     *                                                                 *
                                   14723    1079.     *                                                                 *
                                   14724    1080.     *     Input -  XITSAREA                                           *
                                   14725    1081.     *                                                                 *
                                   14726    1082.     *    Output -  None                                               *
                                   14727    1083.     *                                                                 *
                                   14728    1084.     *                                                                 *
                                   14729    1085.     *******************************************************************
-
 000F00                            14731    1087.     M1TMC    PROC  @XITDATA,SCOPE=LOCAL
 000F00 D4F1E3D4C3404040           14738             +
 000F08 0008/0000                  14739             +
 000F0C 900F D004/18AF       00004 14741             +
 USING  M1TMC,R10
 000F12 50D0 C000/18CD       00000 14756             +
 000F18 9680 C000      00000       14758             +
 USING  @XITDATA-72,R12
 000F1C 41D0 C050            00050 14772             +
 000F20 58F0 A91C/0DEF       01828 14773    1088.              VCALL ASLOCK                  GET AS LOCK
 000F26 5860 C048            00000 14777    1089.              L     RX,@XITDSA              POINTER TO XITSAREA
 USING  XITSAREA,R6                14778    1090.              WITH  (XITSAREA,RX)
 000F2A 5870 6000            00000 14791    1091.              L     RY,XITSRPRM             SCP POINTER
 USING  SCP,R7                     14792    1092.              WITH  (SCP,RY)
 AUSING (RTEXIT,XITSXPRM)          14805    1093.              WITH  (RTEXIT,XITSXPRM)       EXIT PARM
 000F2E 5810 600C            00000 14812    1094.              L     RS,RTXTID               TIMER ID
1M1SERV   (M1SE00) (09:42) (22MAR04) IHAPSAE  - PSA Extension (ESAME)                                                       Page   96
0Current Usings:  (PZERO,R0) (XITSAREA,R6) (SCP,R7) (M1TMC,R10) (@XITDATA-72,R12)
0Loc    Object Code    Addr1 Addr2  Stmt Lv Lineno    Source Statement           (Hibal 5, Asmedit 3.3)  HLASM R4.0  2004/03/22 09.42
+___    ______ ____    _____ _____  ____ __ ______    ______ _________
0                                  14814    1096.     *
                                   14815    1097.     *  REAL TIME TIMER FIRED
                                   14816    1098.     *
 000F32 9502 6004      00004       14817    1099.              IF    (XITSTYPE.XITTRTC,EQ),BEGIN
 000F36 4770 A09E            00FAA 14830             +
 000F3A 9911 A970            0187C 14835  1 1100.                XTRC  RS,RS,RTFIRE
 00187C 0000187C                   14843  2          +
 001880 00000384/0101              14844  2          +
 001886 D9E3C6C9D9C54040           14846  1          +
 000F3E 5910 71C8            001C8 14853  1 1101.                IF    (RS,EQ,SCPUCLK),BEGIN   USER CLOCK
 000F42 4770 A062            00F6E 14865  1          +
 000F46 9205 D048      00000       14870  2 1102.                  UTRACE CLASS=TIMER,CODE==Y(1)
 USING  @UTRACE-72,R13
 000F4A D201 D049 A960 00001 0186C 14887  2          +
 000F50 D207 D04C 7008 00004 00008 14892  2          +
 000F56 9200 D04B      00003       14893  2          +
 000F5A 58F0 A920/0DEF       0182C 14899  2          +
 000F60 947F 7263      00263       14901  2 1103.                  CLEAR SCBTUTR                 TIMER NO LONGER RUNNING
 000F64                            14908  2 1104.                  CLEAR SCPUCLK                 CLEAR CLOCK ID
 000F64 D703 71C8 71C8 001C8 001C8 14914  2          +
 000F6A 9680 7265      00265       14915  2 1105.                  SET   SCBXT                   SET TO ENTER TIMER EXIT
 000F6E                            14921  1 1106.                END   ,
 000F6E A066           00F6E 00F44 14925  1 1107.                ELSEIF (RS,EQ,SCPCCLK),BEGIN   CLP CLOCK
 000F6E 47F0 A09E            00FAA 14931  1          +
 000F72 5910 71D0            001D0 14945  1          +
 000F76 4770 A09E            00FAA 14946  1          +
 000F7A 9205 D048      00000       14951  2 1108.                  UTRACE CLASS=TIMER,CODE==Y(2)
 000F7E D201 D049 A962 00001 0186E 14961  2          +
 000F84 D207 D04C 7008 00004 00008 14966  2          +
 000F8A 9200 D04B      00003       14967  2          +
 000F8E 58F0 A920/0DEF       0182C 14973  2          +
 000F94 9120 7263      00263       14975  2 1109.                  IF    SCBTCPTR,'SET  SCBXCPT'     SET TO ENTER TIMER EXIT
 000F98 47E0 A094            00FA0 14985  2          +
 000F9C 9608 7265      00265       14996  2          +
 000FA0 94D7 7263      00263       15001  2 1110.                  CLEAR SCBTCPTR+SCBTCPQU       CLP TIMERS NO LONGER RUNNING
 000FA4                            15011  2 1111.                  CLEAR SCPCCLK                 CLEAR CLOCK ID
 000FA4 D703 71D0 71D0 001D0 001D0 15017  2          +
 000FAA                            15018  1 1112.                END   ,
 000FAA                            15022    1113.              END   ,
1M1SERV   (M1SE00) (09:42) (22MAR04) IHAPSAE  - PSA Extension (ESAME)                                                       Page   97
0Current Usings:  (PZERO,R0) (XITSAREA,R6) (SCP,R7) (M1TMC,R10) (@XITDATA-72,R12) (@UTRACE-72,R13)
0Loc    Object Code    Addr1 Addr2  Stmt Lv Lineno    Source Statement           (Hibal 5, Asmedit 3.3)  HLASM R4.0  2004/03/22 09.42
+___    ______ ____    _____ _____  ____ __ ______    ______ _________
0                                  15027    1115.     *
                                   15028    1116.     *  CPU TIMER EXPIRED
                                   15029    1117.     *
 000FAA A0A2           00FAA 00F38 15030    1118.              ELSE  BEGIN
 000FAA 47F0 A11A            01026 15035             +
 000FAE 9911 A984            01890 15041  1 1119.                XTRC  RS,RS,CPTFIRE
 00188E 0000/00001890                     2          +
 001894 00000385/0101              15050  2          +
 00189A C3D7E3C6C9D9C540           15052  1          +
 000FB2 9140 7263      00263       15059  1 1120.                IF    SCBTUCT,BEGIN           USER CPU TIMER
 000FB6 47E0 A0DE            00FEA 15069  1          +
 000FBA 9205 D048      00000       15074  2 1121.                  UTRACE CLASS=TIMER,CODE==Y(16)
 000FBE D201 D049 A964 00001 01870 15084  2          +
 000FC4 D207 D04C 7008 00004 00008 15089  2          +
 000FCA 9200 D04B      00003       15090  2          +
 000FCE 58F0 A920/0DEF       0182C 15096  2          +
 000FD4 5910 71C8            001C8 15098  2 1122.                  IF    (RS,NE,SCPUCLK),EXIT    WRONG CLOCK
 000FD8 4770 A0DE            00FEA 15112  2          +
 000FDC 943F 7263      00263       15118  2 1123.                  CLEAR SCBTUTR+SCBTUCT         TIMER NO LONGER RUNNING
 000FE0                            15128  2 1124.                  CLEAR SCPUCLK                 CLEAR CLOCK ID
 000FE0 D703 71C8 71C8 001C8 001C8 15134  2          +
 000FE6 9680 7265      00265       15135  2 1125.                  SET   SCBXT                   SET TO ENTER TIMER EXIT
 000FEA                            15141  1 1126.                END   ,
 000FEA A0E2           00FEA 00FB8 15145  1 1127.                ELSE  BEGIN
 000FEA 47F0 A11A            01026 15150  1          +
 000FEE 9110 7263      00263       15156  2 1128.                  IF    ~SCBTCPCT,EXIT          CLP CPU TIMER
 000FF2 47E0 A11A            01026 15168  2          +
 000FF6 5910 71D0            001D0 15174  2 1129.                  IF    (RS,NE,SCPCCLK),EXIT    WRONG CLOCK
 000FFA 4770 A11A            01026 15188  2          +
 000FFE 9205 D048      00000       15194  2 1130.                  UTRACE CLASS=TIMER,CODE==Y(17)
 001002 D201 D049 A966 00001 01872 15204  2          +
 001008 D207 D04C 7008 00004 00008 15209  2          +
 00100E 9200 D04B      00003       15210  2          +
 001012 58F0 A920/0DEF       0182C 15216  2          +
 001018 94CF 7263      00263       15218  2 1131.                  CLEAR SCBTCPTR+SCBTCPCT       CLP TIMER NO LONGER RUNNING
 00101C                            15228  2 1132.                  CLEAR SCPCCLK                 CLEAR CLOCK ID
 00101C D703 71D0 71D0 001D0 001D0 15234  2          +
 001022 9608 7265      00265       15235  2 1133.                  SET   SCBXCPT                 SET TO ENTER TIMER EXIT
 001026                            15241  1 1134.                END   ,
 001026                            15245    1135.              END   ,
1M1SERV   (M1SE00) (09:42) (22MAR04) IHAPSAE  - PSA Extension (ESAME)                                                       Page   98
0Current Usings:  (PZERO,R0) (XITSAREA,R6) (SCP,R7) (M1TMC,R10) (@XITDATA-72,R12) (@UTRACE-72,R13)
0Loc    Object Code    Addr1 Addr2  Stmt Lv Lineno    Source Statement           (Hibal 5, Asmedit 3.3)  HLASM R4.0  2004/03/22 09.42
+___    ______ ____    _____ _____  ____ __ ______    ______ _________
0                                  15250    1137.     *
                                   15251    1138.     *  SCHEDULE EXIT IF USER PROGRAM RUNNING
                                   15252    1139.     *
 001026 9180 7262      00262       15253    1140.              IF    ~SCBFCLP,BEGIN
 00102A 4710 A1A4            010B0 15263             +
 00102E 9180 7264      00264       15268  1 1141.                IF    ((SCBMB.SCBXT,AND,SCBXT),OR,SCBXCPT),BEGIN
 001032 47E0 A132            0103E 15282  1          +
 001036 9180 7265      00265       15293  1          +
 00103A 4710 A13A            01046 15296  1          +
 00103E 9108 7265      00265       15305  1          +
 001042 47E0 A1A4            010B0 15306  1          +
                                   15311  2 1142.     *
                                   15312  2 1143.     *  FIRST GET CURRENT STATE
                                   15313  2 1144.     *
 DROP   @UTRACE-72,R13             15314  2 1145.                  PSET  @XITGPST
 USING  @XITGPST-72,R13
 001046 D767 D048 D048 00000 00000 15334  2          +
 00104C 58F0 A924/0DEF       01830 15335  2 1146.                  VCALL XITGST
 001052 D207 7008 D048 00008 00000 15339  2 1147.                  MVC   SCPPSW,@XITSPSW         COPY PSW
 001058 D23F 7010 D050 00010 00008 15340  2 1148.                  MVC   SCPGPRS(16*4),@XITSGPR   AND REGISTERS
 00105E D21F 7050 D090 00050 00048 15341  2 1149.                  MVC   SCPFPRS(4*8),@XITSFPR
                                   15342  2 1150.     *
                                   15343  2 1151.     *  BUILD OLD STYLE PSW
                                   15344  2 1152.     *
 001064 D200 71A6 700A 001A6 0000A 15345  2 1153.                  MVC   SCPIPSW+2(1),SCPPSW+2   COPY CC AND PROGRAM MASK
 00106A 943F 71A6      001A6       15346  2 1154.                  NI    SCPIPSW+2,X'3F'         CLEAR ILC BITS
 00106E D200 71A7 7264 001A7 00264 15347  2 1155.                  MVC   SCPIPSW+3(1),SCBMB
 001074                            15348  2 1156.                  CLEAR (SCPIPSW,2)             ZERO INTERRUPT CODE
 001074 D701 71A4 71A4 001A4 001A4 15354  2          +
                                   15355  2 1157.     *
                                   15356  2 1158.     *  SCHEDULE EXIT
                                   15357  2 1159.     *
 00107A 9108 7265      00265       15358  2 1160.                  IF    SCBXCPT,'ACALL DOCTMR'  Do CLP TIMER
 00107E 47E0 A17C            01088 15368  2          +
 001082 58F0 A928/0DEF       01834 15379  2          +
 001088 A180           01088 01080 15385  2 1161.                  ELSE  'ACALL DOUTMR'           or USER TIMER
 001088 47F0 A186            01092 15390  2          +
 00108C 58F0 A92C/0DEF       01838 15402  2          +
                                   15408  2 1162.     *
                                   15409  2 1163.     *  UPDATE PSW AND REGISTERS
                                   15410  2 1164.     *
 001092                            15411  2 1165.                  PSET  @XITGPST
 001092 D767 D048 D048 00000 00000 15421  2          +
 001098 D207 D048 7008 00000 00008 15422  2 1166.                  MVC   @XITSPSW,SCPPSW         COPY PSW
 00109E D23F D050 7010 00008 00010 15423  2 1167.                  MVC   @XITSGPR(16*4),SCPGPRS   AND REGISTERS
 0010A4 D21F D090 7050 00048 00050 15424  2 1168.                  MVC   @XITSFPR(4*8),SCPFPRS
 0010AA 58F0 A930/0DEF       0183C 15425  2 1169.                  VCALL XITPST
 0010B0                            15429  1 1170.                END   ,
 0010B0                            15433    1171.              END   ,
1M1SERV   (M1SE00) (09:42) (22MAR04) IHAPSAE  - PSA Extension (ESAME)                                                       Page   99
0Current Usings:  (PZERO,R0) (XITSAREA,R6) (SCP,R7) (M1TMC,R10) (@XITDATA-72,R12) (@XITGPST-72,R13)
0Loc    Object Code    Addr1 Addr2  Stmt Lv Lineno    Source Statement           (Hibal 5, Asmedit 3.3)  HLASM R4.0  2004/03/22 09.42
+___    ______ ____    _____ _____  ____ __ ______    ______ _________
0                                  15438    1173.     *
                                   15439    1174.     *  TASK IS SUSPENDED - WAKE IT UP
                                   15440    1175.     *
 0010B0 9180 7260      00260       15441    1176.              IF    SCBFWAIT,BEGIN
 0010B4 47E0 A1C2            010CE 15451             +
 0010B8 947F 7260      00260       15456  1 1177.                CLEAR SCBFWAIT
 DROP   @XITGPST-72,R13            15463  1 1178.                PSET  @RESUME
 USING  @RESUME-72,R13
 0010BC D707 D048 D048 00000 00000 15483  1          +
 0010C2 D207 D048 71C0 00000 001C0 15484  1 1179.                MVC   @RESCTL,SCPSID          SET SUSPEND ID
 0010C8 58F0 A934/0DEF       01840 15485  1 1180.                VCALL RESUMTS                START THE TASK GOING
 0010CE                            15489    1181.              END   ,
                                   15493    1182.     *
                                   15494    1183.     *  RETURN TO THE DISPATCHER
                                   15495    1184.     *
 0010CE 58F0 A938/0DEF       01844 15496    1185.              VCALL ASULOCK                 RELEASE THE AS LOCK
 0010D4 9200 D048      00000       15500    1186.              PSET  @EXRDONE
 DROP   @RESUME-72,R13
 USING  @EXRDONE-72,R13
 0010D8 58F0 A93C/0DEF       01848 15521    1187.              VCALL EXRDONE
 0010DE 981F C008            00008 15525    1188.              PEND
 DROP   SCP,R7
 DROP   XITSAREA,R6
 DROP   @XITDATA-72,R12
 DROP   M1TMC,R10
 0010E2 9680 C000/0B0E 00000       15550             +
 DROP   @EXRDONE-72,R13
1M1SERV   (M1SE00) (09:42) (22MAR04) IHAPSAE  - PSA Extension (ESAME)                                                       Page  100
0Current Usings:  (PZERO,R0)
0Loc    Object Code    Addr1 Addr2  Stmt Lv Lineno    Source Statement           (Hibal 5, Asmedit 3.3)  HLASM R4.0  2004/03/22 09.42
+___    ______ ____    _____ _____  ____ __ ______    ______ _________
0                                  15560    1190.     *******************************************************************
                                   15561    1191.     *                                                                 *
                                   15562    1192.     *    DOUTMR  - Schedule pending user timer exit                   *
                                   15563    1193.     *                                                                 *
                                   15564    1194.     *                                                                 *
                                   15565    1195.     *     Input - RY Points to SCP                                    *
                                   15566    1196.     *                                                                 *
                                   15567    1197.     *    Output -                                                     *
                                   15568    1198.     *                                                                 *
                                   15569    1199.     *                                                                 *
                                   15570    1200.     *******************************************************************
-
 0010E8                            15572    1202.     DOUTMR   PROC  ,SCOPE=LOCAL
 0010E8 C4D6E4E3D4D94040           15579             +
 0010F0 0000/0000                  15580             +
 0010F4 900F D004/18AF       00004 15582             +
 USING  DOUTMR,R10
 0010FA 50D0 C000/18CD       00000 15597             +
 001100 9680 C000      00000       15599             +
 001104 41D0 C048            00048 15600             +
 USING  SCP,R7                     15601    1203.              WITH  (SCP,RY)
 001108 947F 7265      00265       15614    1204.              CLEAR SCBXT                   NOTE TIMER EXIT TAKEN
 00110C 5810 71D8/1211       001D8 15621    1205.              IF    ('LT  RS,SCPTXEP',Z),EXIT    NO EXIT SET - IGNORE
 001112 4780 A066            0115A 15634             +
 001116 9209 D048      00000       15640    1206.              UTRACE CLASS=UXIT,CODE==Y(@UTCTIME),DATA=(SCPTXEP)
 USING  @UTRACE-72,R13
 00111A D201 D049 A780 00001 01874 15657             +
 001120 D207 D04C 7008 00004 00008 15662             +
 001126 D203 D054 71D8 0000C 001D8 15663             +
 00112C 9201 D04B      00003       15664             +
 001130 58F0 A738/0DEF       0182C 15670             +
 001136 D201 7072 71A6 00072 001A6 15672    1207.              MVC   SCPXPSW+2(2),SCPIPSW+2  SET OLD PSW FIELDS
 00113C D243 7074 700C 00074 0000C 15673    1208.              MVC   SCPXPSW+4(68),SCPPSW+4  SAVE PSW, GPRS
 001142 5010 700C            0000C 15674    1209.              ST    RS,SCPPSW+4             SET ENTRY POINT
 001146 1B11                       15675    1210.              CLEAR RS                      ENTRY CODE
 001148 4010 7070            00070 15679    1211.              STH   RS,SCPXPSW               TO PSW
 00114C 5010 7014            00014 15680    1212.              ST    RS,SCPGPRS+1*4            AND REGISTER 1
 001150 D203 7048 71DC 00048 001DC 15681    1213.              MVC   SCPGPRS+14*4(4),SCPTXI  SET USER INFO
 001156 9200 7264      00264       15682    1214.              CLEAR SCBMB                   DISABLE EXITS
 00115A 981F C008            00008 15689    1215.              PEND
 DROP   SCP,R7
 DROP   DOUTMR,R10
 00115E 9680 C000/0B0E 00000       15704             +
 DROP   @UTRACE-72,R13
1M1SERV   (M1SE00) (09:42) (22MAR04) IHAPSAE  - PSA Extension (ESAME)                                                       Page  101
0Current Usings:  (PZERO,R0)
0Loc    Object Code    Addr1 Addr2  Stmt Lv Lineno    Source Statement           (Hibal 5, Asmedit 3.3)  HLASM R4.0  2004/03/22 09.42
+___    ______ ____    _____ _____  ____ __ ______    ______ _________
0                                  15714    1217.     *******************************************************************
                                   15715    1218.     *                                                                 *
                                   15716    1219.     *    DOCTMR  - Schedule pending CLP timer exit                    *
                                   15717    1220.     *                                                                 *
                                   15718    1221.     *                                                                 *
                                   15719    1222.     *     Input - RY Points to SCP                                    *
                                   15720    1223.     *                                                                 *
                                   15721    1224.     *    Output -                                                     *
                                   15722    1225.     *                                                                 *
                                   15723    1226.     *                                                                 *
                                   15724    1227.     *******************************************************************
-
 001164                            15726    1229.     DOCTMR   PROC  ,SCOPE=LOCAL
 001164 C4D6C3E3D4D94040           15733             +
 00116C 0000/0000                  15734             +
 001170 900F D004/18AF       00004 15736             +
 USING  DOCTMR,R10
 001176 50D0 C000/18CD       00000 15751             +
 00117C 9680 C000      00000       15753             +
 001180 41D0 C048            00048 15754             +
 USING  SCP,R7                     15755    1230.              WITH  (SCP,RY)
 001184 94F7 7265      00265       15768    1231.              CLEAR SCBXCPT                 MARK EXIT TAKEN
 USING  @SETCLP-72,R13             15775    1232.              PSET  @SETCLP,CLEAR=NO
 001188 5810 A6DC            0184C 15786    1233.              L     RS,=A(-4)               ENTRY CODE
 00118C 5010 D048            00000 15787    1234.              ST    RS,@SCCODE              SET
 001190 58F0 A6E0/0DEF       01850 15788    1235.              ACALL SETCLP                  GO TO CLP
 001196 981F C008            00008 15795    1236.              PEND
 DROP   SCP,R7
 DROP   DOCTMR,R10
 00119A 9680 C000/0B0E 00000       15810             +
 DROP   @SETCLP-72,R13
1M1SERV   (M1SE00) (09:42) (22MAR04) IHAPSAE  - PSA Extension (ESAME)                                                       Page  102
0Current Usings:  (PZERO,R0)
0Loc    Object Code    Addr1 Addr2  Stmt Lv Lineno    Source Statement           (Hibal 5, Asmedit 3.3)  HLASM R4.0  2004/03/22 09.42
+___    ______ ____    _____ _____  ____ __ ______    ______ _________
0                                  15820    1238.     *******************************************************************
                                   15821    1239.     *                                                                 *
                                   15822    1240.     *    M1IOC  - Mode 1 I/O Completion Processor                     *
                                   15823    1241.     *                                                                 *
                                   15824    1242.     *                                                                 *
                                   15825    1243.     *     Input - XITSAREA                                            *
                                   15826    1244.     *                                                                 *
                                   15827    1245.     *    Output - None                                                *
                                   15828    1246.     *                                                                 *
                                   15829    1247.     *                                                                 *
                                   15830    1248.     *******************************************************************
-
 0011A0                            15832    1250.     M1IOC    PROC  @XITDATA,SCOPE=LOCAL
 0011A0 D4F1C9D6C3404040           15839             +
 0011A8 0008/0000                  15840             +
 0011AC 900F D004/18AF       00004 15842             +
 USING  M1IOC,R10
 0011B2 50D0 C000/18CD       00000 15857             +
 0011B8 9680 C000      00000       15859             +
 USING  @XITDATA-72,R12
 0011BC 41D0 C050            00050 15873             +
 0011C0 58F0 A67C/0DEF       01828 15874    1251.              VCALL ASLOCK                  GET AS LOCK
 0011C6 5860 C048            00000 15878    1252.              L     RX,@XITDSA              POINTER TO XITSAREA
 USING  XITSAREA,R6                15879    1253.              WITH  (XITSAREA,RX)
 0011CA 5870 6000            00000 15892    1254.              L     RY,XITSRPRM             SCP POINTER
 USING  SCP,R7                     15893    1255.              WITH  (SCP,RY)
 0011CE 5850 600C            0000C 15906    1256.              L     RK,XITSXPRM             IDT POINTER
 USING  IDT,R5                     15907    1257.              WITH  (IDT,RK)
 0011D2                            15920    1258.              IF    (IDT,NE,=CL4'IDT'),'ABORT IDTID'
 0011D2 D503 A6A8 5000 01854 00000 15931             +
 0011D8 4780 A060            0120C 15932             +
 0011DC AC04 021B      0021B       15941  1          +
 0011E0 9680 021A      0021A       15947  1          +
 0011E4 50F0 021C            0021C 15948  1          +
 0011E8 58F0 0210            00210 15949  1          +
 0011EC 89F0 0010            00010 15950  1          +
 0011F0 88F0 0010            00010 15951  1          +
 0011F4 41F0 F000            00000 15952  1          +
 0011F8 AEFF 0006            00006 15953  1          +
 0011FC C9C4E3C9C4404040           15954             +
 00120C 5810 5024            00024 15959    1259.              L     R1,IDTDEVID             DEVICE ID
 001210 1F00/4300 5007       00007 15960    1260.              LC    R0,IDTID                IDT NUMBER
 001216 98EF 0208            00208 15967    1261.              LM    R14,R15,PZCURPID
 00121A 99E1 A6F8            018A4 15968    1262.              XTRC  R14,R1,M1IOCMP
 0018A2 0000/000018A4                     1          +
 0018A8 00000386/0E01              15977  1          +
 0018AE D4F1C9D6C3D4D740           15979             +
 00121E 9640 5005      00005       15986    1263.              SET   IDTFPOST                MARK COMPLETE
1M1SERV   (M1SE00) (09:42) (22MAR04) IHAPSAE  - PSA Extension (ESAME)                                                       Page  103
0Current Usings:  (PZERO,R0) (IDT,R5) (XITSAREA,R6) (SCP,R7) (M1IOC,R10) (@XITDATA-72,R12)
0Loc    Object Code    Addr1 Addr2  Stmt Lv Lineno    Source Statement           (Hibal 5, Asmedit 3.3)  HLASM R4.0  2004/03/22 09.42
+___    ______ ____    _____ _____  ____ __ ______    ______ _________
0                                  15993    1265.     *
                                   15994    1266.     *  UPDATE RETURNS FOR TERMINAL COMPLETIONS
                                   15995    1267.     *
 001222 9501 5006      00006       15996    1268.              IF    IDTCTRM,BEGIN
 001226 4770 A0B2            0125E 16006             +
 AUSING (@M1TIOCP,XITSXPRM)        16011  1 1269.                WITH  (@M1TIOCP,XITSXPRM)
 00122A 94C7 5004      00004       16018  1 1270.                CLEAR IDTFR1+IDTFR14+IDTFR15    CLEAR PREVIOUS
 00122E                            16032  1 1271.                IF    (@M1TIR01,NE,=X'80000000'),'SET IDTFR1'    NOTE
 00122E D503 A6AC 6010 01858 00004 16042  1          +
 001234 4780 A090            0123C 16043  1          +
 001238 9620 5004      00004       16054  1          +
 00123C                            16059  1 1272.                IF    (@M1TIR15,NE,=X'80000000'),'SET IDTFR15'    RETURN
 00123C D503 A6AC 6018 01858 0000C 16069  1          +
 001242 4780 A09E            0124A 16070  1          +
 001246 9608 5004      00004       16081  1          +
 00124A                            16086  1 1273.                IF    (@M1TIR14,NE,=X'80000000'),'SET IDTFR14'     REGS
 00124A D503 A6AC 6014 01858 00008 16096  1          +
 001250 4780 A0AC            01258 16097  1          +
 001254 9610 5004      00004       16108  1          +
 001258 D20B 5008 6010 00008 00004 16113  1 1274.                MVC   IDTR1(L'IDTR1+L'IDTR14+L'IDTR15),@M1TIR01   COPY REGS
 00125E                            16114    1275.              END   ,
                                   16118    1276.     *
                                   16119    1277.     *  UPDATE RETURNS FOR FILE COMPLETIONS
                                   16120    1278.     *
 00125E A0B6           0125E 01228 16121    1279.              ELSEIF  IDTCFIL,BEGIN
 00125E 47F0 A110            012BC 16127             +
 001262 9502 5006      00006       16139             +
 001266 4770 A110            012BC 16140             +
 00126A 94C7 5004      00004       16145  1 1280.                CLEAR IDTFR1+IDTFR14+IDTFR15    CLEAR PREVIOUS
 AUSING (@M1FPOST,XITSXPRM)        16159  1 1281.                WITH  (@M1FPOST,XITSXPRM)
 00126E                            16166  1 1282.                IF    (@M1FPR14,NE,=X'80000000'),'SET IDTFR14'
 00126E D503 A6AC 6010 01858 00004 16176  1          +
 001274 4780 A0D0            0127C 16177  1          +
 001278 9610 5004      00004       16188  1          +
 00127C                            16193  1 1283.                IF    (@M1FPR15,NE,=X'80000000'),'SET IDTFR15'
 00127C D503 A6AC 6014 01858 00008 16203  1          +
 001282 4780 A0DE            0128A 16204  1          +
 001286 9608 5004      00004       16215  1          +
 00128A                            16220  1 1284.                IF    (@M1FPR01,NE,=X'80000000'),'SET IDTFR1'
 00128A D503 A6AC 6018 01858 0000C 16230  1          +
 001290 4780 A0EC            01298 16231  1          +
 001294 9620 5004      00004       16242  1          +
 001298 D203 500C 6010 0000C 00004 16247  1 1285.                MVC   IDTR14,@M1FPR14
 00129E D203 5010 6014 00010 00008 16248  1 1286.                MVC   IDTR15,@M1FPR15
 0012A4 D203 5008 6018 00008 0000C 16249  1 1287.                MVC   IDTR1,@M1FPR01
 0012AA 9180 600C      00000       16250  1 1288.                IF    ('TM @M1FPRQI,@M1FREDV',O),BEGIN
 0012AE 47E0 A110            012BC 16258  1          +
 0012B2                            16263  2 1289.                  CLEAR IDTDEVID            Clear device id
 0012B2 D703 5024 5024 00024 00024 16269  2          +
 0012B8 9608 5005      00005       16270  2 1290.                  SET   IDTFFIDT            Free IDT at wait
 0012BC                            16276  1 1291.                END   ,
 0012BC                            16280    1292.              END   ,
                                   16284    1293.     *
                                   16285    1294.     *  UPDATE RETURNS FOR SCOM PATH COMPLETIONS
1M1SERV   (M1SE00) (09:42) (22MAR04) IHAPSAE  - PSA Extension (ESAME)                                                       Page  104
0Current Usings:  (PZERO,R0) (IDT,R5) (XITSAREA,R6) (SCP,R7) (M1IOC,R10) (@XITDATA-72,R12)
0Loc    Object Code    Addr1 Addr2  Stmt Lv Lineno    Source Statement           (Hibal 5, Asmedit 3.3)  HLASM R4.0  2004/03/22 09.42
+___    ______ ____    _____ _____  ____ __ ______    ______ _________
0                                  16286    1295.     *
 0012BC A114           012BC 01268 16287    1296.              ELSEIF IDTCSCM,BEGIN
 0012BC 47F0 A150            012FC 16293             +
 0012C0 9504 5006      00006       16305             +
 0012C4 4770 A150            012FC 16306             +
 AUSING (@M1PIOCP,XITSXPRM)        16311  1 1297.                WITH  (@M1PIOCP,XITSXPRM)
 0012C8 94C7 5004      00004       16318  1 1298.                CLEAR IDTFR1+IDTFR14+IDTFR15    CLEAR PREVIOUS
 0012CC                            16332  1 1299.                IF    (@M1PIR01,NE,=X'80000000'),'SET IDTFR1'    NOTE
 0012CC D503 A6AC 6010 01858 00004 16342  1          +
 0012D2 4780 A12E            012DA 16343  1          +
 0012D6 9620 5004      00004       16354  1          +
 0012DA                            16359  1 1300.                IF    (@M1PIR15,NE,=X'80000000'),'SET IDTFR15'    RETURN
 0012DA D503 A6AC 6018 01858 0000C 16369  1          +
 0012E0 4780 A13C            012E8 16370  1          +
 0012E4 9608 5004      00004       16381  1          +
 0012E8                            16386  1 1301.                IF    (@M1PIR14,NE,=X'80000000'),'SET IDTFR14'     REGS
 0012E8 D503 A6AC 6014 01858 00008 16396  1          +
 0012EE 4780 A14A            012F6 16397  1          +
 0012F2 9610 5004      00004       16408  1          +
 0012F6 D20B 5008 6010 00008 00004 16413  1 1302.                MVC   IDTR1(L'IDTR1+L'IDTR14+L'IDTR15),@M1PIR01   COPY REGS
 0012FC                            16414    1303.              END   ,
1M1SERV   (M1SE00) (09:42) (22MAR04) IHAPSAE  - PSA Extension (ESAME)                                                       Page  105
0Current Usings:  (PZERO,R0) (IDT,R5) (XITSAREA,R6) (SCP,R7) (M1IOC,R10) (@XITDATA-72,R12)
0Loc    Object Code    Addr1 Addr2  Stmt Lv Lineno    Source Statement           (Hibal 5, Asmedit 3.3)  HLASM R4.0  2004/03/22 09.42
+___    ______ ____    _____ _____  ____ __ ______    ______ _________
0                                  16419    1305.     *
                                   16420    1306.     *  UPDATE RETURNS FOR JES COMPLETIONS
                                   16421    1307.     *
 0012FC A154           012FC 012C6 16422    1308.              ELSEIF IDTCJES,BEGIN
 0012FC 47F0 A1A6            01352 16428             +
 001300 9506 5006      00006       16440             +
 001304 4770 A1A6            01352 16441             +
 AUSING (@M1JIOCP,XITSXPRM)        16446  1 1309.                WITH  (@M1JIOCP,XITSXPRM)
 001308 94C7 5004      00004       16453  1 1310.                CLEAR IDTFR1+IDTFR14+IDTFR15    CLEAR PREVIOUS
 00130C                            16467  1 1311.                IF    (@M1JIR01,NE,=X'80000000'),'SET IDTFR1'    NOTE
 00130C D503 A6AC 6010 01858 00004 16477  1          +
 001312 4780 A16E            0131A 16478  1          +
 001316 9620 5004      00004       16489  1          +
 00131A                            16494  1 1312.                IF    (@M1JIR15,NE,=X'80000000'),'SET IDTFR15'    RETURN
 00131A D503 A6AC 6018 01858 0000C 16504  1          +
 001320 4780 A17C            01328 16505  1          +
 001324 9608 5004      00004       16516  1          +
 001328                            16521  1 1313.                IF    (@M1JIR14,NE,=X'80000000'),'SET IDTFR14'     REGS
 001328 D503 A6AC 6014 01858 00008 16531  1          +
 00132E 4780 A18A            01336 16532  1          +
 001332 9610 5004      00004       16543  1          +
 001336 D20B 5008 6010 00008 00004 16548  1 1314.                MVC   IDTR1(L'IDTR1+L'IDTR14+L'IDTR15),@M1JIR01   COPY REGS
 00133C 9180 600C      00000       16549  1 1315.                IF    @M1JICRQ.@M1JDONE,BEGIN
 001340 47E0 A1A6            01352 16560  1          +
 001344 9608 5005      00005       16565  2 1316.                  SET   IDTFFIDT                FREE IDT AT WAIT
 001348 BF11 7203/0610       00203 16571  2 1317.                  DECR  RS,SCPJESR              DECREMENT JES READER COUNT
 00134E BE11 7203            00203 16575  2          +
 001352                            16576  1 1318.                END   ,
 001352                            16580    1319.              END   ,
                                   16584    1320.     *
                                   16585    1321.     *  UPDATE RETURNS FOR NET COMPLETIONS
                                   16586    1322.     *
 001352 A1AA           01352 01306 16587    1323.              ELSEIF IDTCNET,BEGIN
 001352 47F0 A1E6            01392 16593             +
 001356 9507 5006      00006       16605             +
 00135A 4770 A1E6            01392 16606             +
 AUSING (@M1NIOCP,XITSXPRM)        16611  1 1324.                WITH  (@M1NIOCP,XITSXPRM)
 00135E 94C7 5004      00004       16618  1 1325.                CLEAR IDTFR1+IDTFR14+IDTFR15    CLEAR PREVIOUS
 001362                            16632  1 1326.                IF    (@M1NIR01,NE,=X'80000000'),'SET IDTFR1'    NOTE
 001362 D503 A6AC 6010 01858 00004 16642  1          +
 001368 4780 A1C4            01370 16643  1          +
 00136C 9620 5004      00004       16654  1          +
 001370                            16659  1 1327.                IF    (@M1NIR15,NE,=X'80000000'),'SET IDTFR15'    RETURN
 001370 D503 A6AC 6018 01858 0000C 16669  1          +
 001376 4780 A1D2            0137E 16670  1          +
 00137A 9608 5004      00004       16681  1          +
 00137E                            16686  1 1328.                IF    (@M1NIR14,NE,=X'80000000'),'SET IDTFR14'     REGS
 00137E D503 A6AC 6014 01858 00008 16696  1          +
 001384 4780 A1E0            0138C 16697  1          +
 001388 9610 5004      00004       16708  1          +
 00138C D20B 5008 6010 00008 00004 16713  1 1329.                MVC   IDTR1(L'IDTR1+L'IDTR14+L'IDTR15),@M1NIR01   COPY REGS
 001392                            16714    1330.              END   ,
                                   16718    1331.     *
                                   16719    1332.     *  UPDATE RETURNS FOR ENQ/DEQ COMPLETIONS
1M1SERV   (M1SE00) (09:42) (22MAR04) IHAPSAE  - PSA Extension (ESAME)                                                       Page  106
0Current Usings:  (PZERO,R0) (IDT,R5) (XITSAREA,R6) (SCP,R7) (M1IOC,R10) (@XITDATA-72,R12)
0Loc    Object Code    Addr1 Addr2  Stmt Lv Lineno    Source Statement           (Hibal 5, Asmedit 3.3)  HLASM R4.0  2004/03/22 09.42
+___    ______ ____    _____ _____  ____ __ ______    ______ _________
0                                  16720    1333.     *
 001392 A1EA           01392 0135C 16721    1334.              ELSEIF  IDTCENQ,BEGIN
 001392 47F0 A222            013CE 16727             +
 001396 9505 5006      00006       16739             +
 00139A 4770 A222            013CE 16740             +
 AUSING (@M1EIOCP,XITSXPRM)        16745  1 1335.                WITH  (@M1EIOCP,XITSXPRM)
 00139E                            16752  1 1336.                IF    (@M1EIR01,NE,=X'80000000'),'SET IDTFR1'    NOTE
 00139E D503 A6AC 6010 01858 00004 16762  1          +
 0013A4 4780 A200            013AC 16763  1          +
 0013A8 9620 5004      00004       16774  1          +
 0013AC                            16779  1 1337.                IF    (@M1EIR15,NE,=X'80000000'),'SET IDTFR15'    RETURN
 0013AC D503 A6AC 6018 01858 0000C 16789  1          +
 0013B2 4780 A20E            013BA 16790  1          +
 0013B6 9608 5004      00004       16801  1          +
 0013BA                            16806  1 1338.                IF    (@M1EIR14,NE,=X'80000000'),'SET IDTFR14'     REGS
 0013BA D503 A6AC 6014 01858 00008 16816  1          +
 0013C0 4780 A21C            013C8 16817  1          +
 0013C4 9610 5004      00004       16828  1          +
 0013C8 D20B 5008 6010 00008 00004 16833  1 1339.                MVC   IDTR1(L'IDTR1+L'IDTR14+L'IDTR15),@M1EIR01   COPY REGS
 0013CE                            16834    1340.              END   ,
1M1SERV   (M1SE00) (09:42) (22MAR04) IHAPSAE  - PSA Extension (ESAME)                                                       Page  107
0Current Usings:  (PZERO,R0) (IDT,R5) (XITSAREA,R6) (SCP,R7) (M1IOC,R10) (@XITDATA-72,R12)
0Loc    Object Code    Addr1 Addr2  Stmt Lv Lineno    Source Statement           (Hibal 5, Asmedit 3.3)  HLASM R4.0  2004/03/22 09.42
+___    ______ ____    _____ _____  ____ __ ______    ______ _________
0                                  16839    1342.     *         UTRACE CLASS=IO,CODE=IDTCLASS,DATA=(IDTR15)
                                   16840    1343.     *
                                   16841    1344.     *  PREPARE TO ENTER USER EXIT - IF THERE IS ONE
                                   16842    1345.     *
 0013CE 5810 501C/1211       0001C 16843    1346.              IF    ('LT  RS,IDTWXEP',NZ),BEGIN
 0013D4 4780 A2A2            0144E 16854             +
 0013D8 9120 7264      00264       16859  1 1347.                IF    SCBMB.SCBXW,BEGIN
 0013DC 47E0 A296            01442 16869  1          +
                                   16874  2 1348.     *
                                   16875  2 1349.     *  FIRST GET CURRENT STATE
                                   16876  2 1350.     *
 USING  @XITGPST-72,R13            16877  2 1351.                  PSET  @XITGPST
 0013E0 D767 D048 D048 00000 00000 16894  2          +
 0013E6 58F0 A684/0DEF       01830 16895  2 1352.                  VCALL XITGST
 0013EC D207 7008 D048 00008 00000 16899  2 1353.                  MVC   SCPPSW,@XITSPSW         COPY PSW
 0013F2 D23F 7010 D050 00010 00008 16900  2 1354.                  MVC   SCPGPRS(16*4),@XITSGPR   AND REGISTERS
 0013F8 D21F 7050 D090 00050 00048 16901  2 1355.                  MVC   SCPFPRS(4*8),@XITSFPR
                                   16902  2 1356.     *
                                   16903  2 1357.     *  BUILD OLD STYLE PSW
                                   16904  2 1358.     *
 0013FE D200 71A6 700A 001A6 0000A 16905  2 1359.                  MVC   SCPIPSW+2(1),SCPPSW+2   COPY CC AND PROGRAM MASK
 001404 943F 71A6      001A6       16906  2 1360.                  NI    SCPIPSW+2,X'3F'         CLEAR ILC BITS
 001408 D200 71A7 7264 001A7 00264 16907  2 1361.                  MVC   SCPIPSW+3(1),SCBMB
 00140E                            16908  2 1362.                  CLEAR (SCPIPSW,2)             ZERO INTERRUPT CODE
 00140E D701 71A4 71A4 001A4 001A4 16914  2          +
                                   16915  2 1363.     *
                                   16916  2 1364.     *  SCHEDULE EXIT
                                   16917  2 1365.     *
 DROP   @XITGPST-72,R13            16918  2 1366.                  PSET  @DOWAIT
 USING  @DOWAIT-72,R13
 001414 D703 D048 D048 00000 00000 16938  2          +
 00141A 5050 D048            00000 16939  2 1367.                  ST    RK,@DOWTIDT             IDT TO PARM LIST
 00141E 58F0 A6B0/0DEF       0185C 16940  2 1368.                  ACALL DOWAIT                  DO IT
                                   16947  2 1369.     *
                                   16948  2 1370.     *  UPDATE PSW AND REGISTERS
                                   16949  2 1371.     *
 DROP   @DOWAIT-72,R13             16950  2 1372.                  PSET  @XITGPST
 USING  @XITGPST-72,R13
 001424 D767 D048 D048 00000 00000 16970  2          +
 00142A D207 D048 7008 00000 00008 16971  2 1373.                  MVC   @XITSPSW,SCPPSW         COPY PSW
 001430 D23F D050 7010 00008 00010 16972  2 1374.                  MVC   @XITSGPR(16*4),SCPGPRS   AND REGISTERS
 001436 D21F D090 7050 00048 00050 16973  2 1375.                  MVC   @XITSFPR(4*8),SCPFPRS
 00143C 58F0 A690/0DEF       0183C 16974  2 1376.                  VCALL XITPST
 001442                            16978  1 1377.                END   ,
1M1SERV   (M1SE00) (09:42) (22MAR04) IHAPSAE  - PSA Extension (ESAME)                                                       Page  108
0Current Usings:  (PZERO,R0) (IDT,R5) (XITSAREA,R6) (SCP,R7) (M1IOC,R10) (@XITDATA-72,R12) (@XITGPST-72,R13)
0Loc    Object Code    Addr1 Addr2  Stmt Lv Lineno    Source Statement           (Hibal 5, Asmedit 3.3)  HLASM R4.0  2004/03/22 09.42
+___    ______ ____    _____ _____  ____ __ ______    ______ _________
0                                  16983  1 1379.     *
                                   16984  1 1380.     *  EXIT EXISTS BUT IS DISABLED - MARK FOR DEFFERRED ENTRY
                                   16985  1 1381.     *
 001442 A29A           01442 013DE 16986  1 1382.                ELSE  BEGIN
 001442 47F0 A2A2            0144E 16991  1          +
 001446 9620 5005      00005       16997  2 1383.                  SET   IDTFEWX                 MARK WAIT EXIT PENDING
 00144A 9620 7265      00265       17003  2 1384.                  SET   SCBXW
 00144E                            17009  1 1385.                END   ,
 00144E                            17013    1386.              END   ,
                                   17017    1387.     *
                                   17018    1388.     *  TASK IS SUSPENDED - WAKE IT UP
                                   17019    1389.     *
 00144E 9180 7260      00260       17020    1390.              IF    SCBFWAIT,BEGIN
 001452 47E0 A2C0            0146C 17030             +
 001456 947F 7260      00260       17035  1 1391.                CLEAR SCBFWAIT
 DROP   @XITGPST-72,R13            17042  1 1392.                PSET  @RESUME
 USING  @RESUME-72,R13
 00145A D707 D048 D048 00000 00000 17062  1          +
 001460 D207 D048 71C0 00000 001C0 17063  1 1393.                MVC   @RESCTL,SCPSID          SET SUSPEND ID
 001466 58F0 A694/0DEF       01840 17064  1 1394.                VCALL RESUMTS                START THE TASK GOING
 00146C                            17068    1395.              END   ,
                                   17072    1396.     *
                                   17073    1397.     *  RETURN TO DISPATCHER
                                   17074    1398.     *
 00146C 58F0 A698/0DEF       01844 17075    1399.              VCALL ASULOCK                 RELEASE THE AS LOCK
 001472 9200 D048      00000       17079    1400.              PSET  @EXRDONE
 DROP   @RESUME-72,R13
 USING  @EXRDONE-72,R13
 001476 58F0 A69C/0DEF       01848 17100    1401.              VCALL EXRDONE
 00147C 981F C008            00008 17104    1402.              PEND
 DROP   IDT,R5
 DROP   SCP,R7
 DROP   XITSAREA,R6
 DROP   @XITDATA-72,R12
 DROP   M1IOC,R10
 001480 9680 C000/0B0E 00000       17134             +
 DROP   @EXRDONE-72,R13
1M1SERV   (M1SE00) (09:42) (22MAR04) IHAPSAE  - PSA Extension (ESAME)                                                       Page  109
0Current Usings:  (PZERO,R0)
0Loc    Object Code    Addr1 Addr2  Stmt Lv Lineno    Source Statement           (Hibal 5, Asmedit 3.3)  HLASM R4.0  2004/03/22 09.42
+___    ______ ____    _____ _____  ____ __ ______    ______ _________
0                                  17144    1404.     *******************************************************************
                                   17145    1405.     *                                                                 *
                                   17146    1406.     *   @DOWAIT - Wait exit scheduling parms                          *
                                   17147    1407.     *                                                                 *
                                   17148    1408.     *******************************************************************
0000000                00000 00004 17150    1410.     @DOWAIT  RECORD BEGIN
 000000                            17158  1 1411.     @DOWTIDT   DS    A                       IDT POINTER
 000004                00004 00004 17159    1412.              END   ,
1M1SERV   (M1SE00) (09:42) (22MAR04) IHAPSAE  - PSA Extension (ESAME)                                                       Page  110
0Current Usings:  (PZERO,R0)
0Loc    Object Code    Addr1 Addr2  Stmt Lv Lineno    Source Statement           (Hibal 5, Asmedit 3.3)  HLASM R4.0  2004/03/22 09.42
+___    ______ ____    _____ _____  ____ __ ______    ______ _________
0                                  17169    1414.     *******************************************************************
                                   17170    1415.     *                                                                 *
                                   17171    1416.     *    DOWAIT  - Schedule pending wait exits                        *
                                   17172    1417.     *                                                                 *
                                   17173    1418.     *                                                                 *
                                   17174    1419.     *     Input - @DOWAIT                                             *
                                   17175    1420.     *             RY Points to SCP                                    *
                                   17176    1421.     *                                                                 *
                                   17177    1422.     *    Output -                                                     *
                                   17178    1423.     *                                                                 *
                                   17179    1424.     *                                                                 *
                                   17180    1425.     *******************************************************************
-
 001486                            17182    1427.     DOWAIT   PROC  @DOWAIT,SCOPE=LOCAL
 001486 C4D6E6C1C9E34040           17189             +
 00148E 0008/0000                  17190             +
 001492 900F D004/18AF       00004 17192             +
 USING  DOWAIT,R10
 001498 50D0 C000/18CD       00000 17207             +
 00149E 9680 C000      00000       17209             +
 USING  @DOWAIT-72,R12
 0014A2 41D0 C050            00050 17223             +
 USING  SCP,R7                     17224    1428.              WITH  (SCP,RY)
 0014A6 5860 C048            00000 17237    1429.              L     RX,@DOWTIDT             IDT POINTER
 USING  IDT,R6                     17238    1430.              WITH  (IDT,RX)
 0014AA 94DF 6005      00005       17251    1431.              CLEAR IDTFEWX                 CLEAR WAIT EXIT PENDING
 0014AE 5810 601C            0001C 17258    1432.              L     RS,IDTWXEP              ENTRY POINT
 0014B2 1211/4780 A074       01506 17259    1433.              IF    (RS,NZ),BEGIN
 0014B8 9209 D048      00000       17273  1 1434.                UTRACE CLASS=UXIT,CODE==Y(@UTCWAIT),DATA=(IDTWXEP,IDTFLG)
 USING  @UTRACE-72,R13
 0014BC D201 D049 A3E4 00001 01876 17290  1          +
 0014C2 D207 D04C 7008 00004 00008 17295  1          +
 0014C8 D203 D054 601C 0000C 0001C 17296  1          +
 0014CE D203 D058 6004 00010 00004 17297  1          +
 0014D4 9202 D04B      00003       17298  1          +
 0014D8 58F0 A39A/0DEF       0182C 17304  1          +
 0014DE D243 7074 700C 00074 0000C 17306  1 1435.                MVC   SCPXPSW+4(68),SCPPSW+4  SAVE PSW, GPRS
 0014E4 D201 7072 71A6 00072 001A6 17307  1 1436.                MVC   SCPXPSW+2(2),SCPIPSW+2   MASK BYTE
 0014EA 5010 700C            0000C 17308  1 1437.                ST    RS,SCPPSW+4             SET ENTRY POINT
 0014EE 1F11/4310 6007       00007 17309  1 1438.                LC    RS,IDTID                EXIT CODE
 0014F4 4010 7070            00070 17316  1 1439.                STH   RS,SCPXPSW               TO PSW
 0014F8 5010 7014            00014 17317  1 1440.                ST    RS,SCPGPRS+1*4            AND REGISTER 1
 0014FC D203 7048 6020 00048 00020 17318  1 1441.                MVC   SCPGPRS+14*4(4),IDTWXI  SET USER INFO
 001502 9200 7264      00264       17319  1 1442.                CLEAR SCBMB                   DISABLE EXITS
 001506                            17326    1443.              END   ,
 001506 981F C008            00008 17330    1444.              PEND
 DROP   IDT,R6
 DROP   SCP,R7
 DROP   @DOWAIT-72,R12
 DROP   DOWAIT,R10
 00150A 9680 C000/0B0E 00000       17355             +
 DROP   @UTRACE-72,R13
1M1SERV   (M1SE00) (09:42) (22MAR04) IHAPSAE  - PSA Extension (ESAME)                                                       Page  111
0Current Usings:  (PZERO,R0)
0Loc    Object Code    Addr1 Addr2  Stmt Lv Lineno    Source Statement           (Hibal 5, Asmedit 3.3)  HLASM R4.0  2004/03/22 09.42
+___    ______ ____    _____ _____  ____ __ ______    ______ _________
0                                  17365    1446.     *******************************************************************
                                   17366    1447.     *                                                                 *
                                   17367    1448.     *    M1ATTN  - Mode 1 Attention Processor                         *
                                   17368    1449.     *                                                                 *
                                   17369    1450.     *                                                                 *
                                   17370    1451.     *     Input -                                                     *
                                   17371    1452.     *                                                                 *
                                   17372    1453.     *    Output -                                                     *
                                   17373    1454.     *                                                                 *
                                   17374    1455.     *                                                                 *
                                   17375    1456.     *******************************************************************
-
 001510                            17377    1458.     M1ATTN   PROC  @XITDATA,SCOPE=LOCAL
 001510 D4F1C1E3E3D54040           17384             +
 001518 0008/0000                  17385             +
 00151C 900F D004/18AF       00004 17387             +
 USING  M1ATTN,R10
 001522 50D0 C000/18CD       00000 17402             +
 001528 9680 C000      00000       17404             +
 USING  @XITDATA-72,R12
 00152C 41D0 C050            00050 17418             +
 001530 58F0 A30C/0DEF       01828 17419    1459.              VCALL ASLOCK                  GET AS LOCK
 001536 5860 C048            00000 17423    1460.              L     RX,@XITDSA              POINTER TO XITSAREA
 USING  XITSAREA,R6                17424    1461.              WITH  (XITSAREA,RX)
                                   17437    1462.     *
                                   17438    1463.     *  GET IDT AND SCP POINTERS
                                   17439    1464.     *
 00153A 5870 6000            00000 17440    1465.              L     RY,XITSRPRM             SCP POINTER
 USING  SCP,R7                     17441    1466.              WITH  (SCP,RY)
 00153E 5850 600C            0000C 17454    1467.              L     RK,XITSXPRM             IDT POINTER
 USING  IDT,R5                     17455    1468.              WITH  (IDT,RK)
 001542 9206 D048      00000       17468    1469.              UTRACE CLASS=ATTN,CODE==Y(0)
 USING  @UTRACE-72,R13
 001546 D201 D049 A35C 00001 01878 17485             +
 00154C D207 D04C 7008 00004 00008 17490             +
 001552 9200 D04B      00003       17491             +
 001556 58F0 A310/0DEF       0182C 17497             +
1M1SERV   (M1SE00) (09:42) (22MAR04) IHAPSAE  - PSA Extension (ESAME)                                                       Page  112
0Current Usings:  (PZERO,R0) (IDT,R5) (XITSAREA,R6) (SCP,R7) (M1ATTN,R10) (@XITDATA-72,R12) (@UTRACE-72,R13)
0Loc    Object Code    Addr1 Addr2  Stmt Lv Lineno    Source Statement           (Hibal 5, Asmedit 3.3)  HLASM R4.0  2004/03/22 09.42
+___    ______ ____    _____ _____  ____ __ ______    ______ _________
0                                  17500    1471.     *
                                   17501    1472.     *  ATTENTION DURING CLP
                                   17502    1473.     *
 00155C 9180 7262      00262       17503    1474.              IF    SCBFCLP,BEGIN
 001560 47E0 A06A            01586 17513             +
 001564 9501 5006      00006       17518  1 1475.                IF    IDTCTRM,'SET  SCBCFCLA'     MARK CLP ATTN
 001568 4770 A054            01570 17528  1          +
 00156C 9640 7261      00261       17539  1          +
                                   17544  1 1476.     *
                                   17545  1 1477.     *  NON-TERMINAL ATTENTION - MARK PENDING IF USER HAS CREATED EXIT
                                   17546  1 1478.     *
 001570 A058           01570 0156A 17547  1 1479.                ELSE  BEGIN
 001570 47F0 A06A            01586 17552  1          +
 001574 5810 5014/1211       00014 17558  2 1480.                  IF    ('LT  RS,IDTAXEP',Z),EXIT    IGNORE IF NULL
 00157A 4780 A06A            01586 17571  2          +
 00157E 9610 5005      00005       17577  2 1481.                  SET   IDTFEAX                 MARK ATTN PENDING
 001582 9640 7265      00265       17583  2 1482.                  SET   SCBXA
 001586                            17589  1 1483.                END   ,
 001586                            17593    1484.              END   ,
1M1SERV   (M1SE00) (09:42) (22MAR04) IHAPSAE  - PSA Extension (ESAME)                                                       Page  113
0Current Usings:  (PZERO,R0) (IDT,R5) (XITSAREA,R6) (SCP,R7) (M1ATTN,R10) (@XITDATA-72,R12) (@UTRACE-72,R13)
0Loc    Object Code    Addr1 Addr2  Stmt Lv Lineno    Source Statement           (Hibal 5, Asmedit 3.3)  HLASM R4.0  2004/03/22 09.42
+___    ______ ____    _____ _____  ____ __ ______    ______ _________
0                                  17598    1486.     *
                                   17599    1487.     *  ATTENTION DURING USER EXECUTION - MARK PENDING IF ON A
                                   17600    1488.     *      NON-TERMINAL DEVICE AND USER HAS CREATED, BUT MASKED, EXIT
                                   17601    1489.     *
 001586 A06E           01586 01562 17602    1490.              ELSE  BEGIN
 001586 47F0 A110            0162C 17607             +
 00158A 9501 5006      00006       17613  1 1491.                IF    (~IDTCTRM,AND,('LT  RS,IDTAXEP',Z)),EXIT    IGNORE
 00158E 4780 A080            0159C 17625  1          +
 001592 5810 5014/1211       00014 17636  1          +
 001598 4780 A110            0162C 17640  1          +
 00159C 9501 5006      00006       17646  1 1492.                IF    (~IDTCTRM,AND,~SCBMB.SCBXA),BEGIN
 0015A0 4780 A098            015B4 17658  1          +
 0015A4 9140 7264      00264       17669  1          +
 0015A8 4710 A098            015B4 17670  1          +
 0015AC 9610 5005      00005       17675  2 1493.                  SET   IDTFEAX                 MARK ATTN PENDING
 0015B0 9640 7265      00265       17681  2 1494.                  SET   SCBXA
 0015B4                            17687  1 1495.                END   ,
                                   17691  1 1496.     *
                                   17692  1 1497.     *  ATTENTION EXIT TO BE SCHEDULED - FIRST GET CURRENT STATE
                                   17693  1 1498.     *
 0015B4 A09C           015B4 015A2 17694  1 1499.                ELSE  BEGIN
 0015AA A09C           015AC 015B4 17699  1          +
 0015B4 47F0 A110            0162C 17701  1          +
 DROP   @UTRACE-72,R13             17707  2 1500.                  PSET  @XITGPST
 USING  @XITGPST-72,R13
 0015B8 D767 D048 D048 00000 00000 17727  2          +
 0015BE 58F0 A314/0DEF       01830 17728  2 1501.                  VCALL XITGST
 0015C4 D207 7008 D048 00008 00000 17732  2 1502.                  MVC   SCPPSW,@XITSPSW         COPY PSW
 0015CA D23F 7010 D050 00010 00008 17733  2 1503.                  MVC   SCPGPRS(16*4),@XITSGPR   AND REGISTERS
 0015D0 D21F 7050 D090 00050 00048 17734  2 1504.                  MVC   SCPFPRS(4*8),@XITSFPR
                                   17735  2 1505.     *
                                   17736  2 1506.     *  BUILD OLD STYLE PSW
                                   17737  2 1507.     *
 0015D6 D200 71A6 700A 001A6 0000A 17738  2 1508.                  MVC   SCPIPSW+2(1),SCPPSW+2   COPY CC AND PROGRAM MASK
 0015DC 943F 71A6      001A6       17739  2 1509.                  NI    SCPIPSW+2,X'3F'         CLEAR ILC BITS
 0015E0 D200 71A7 7264 001A7 00264 17740  2 1510.                  MVC   SCPIPSW+3(1),SCBMB
 0015E6                            17741  2 1511.                  CLEAR (SCPIPSW,2)             ZERO INTERRUPT CODE
 0015E6 D701 71A4 71A4 001A4 001A4 17747  2          +
                                   17748  2 1512.     *
                                   17749  2 1513.     *  PROCESS ATTENTION
                                   17750  2 1514.     *
 DROP   @XITGPST-72,R13            17751  2 1515.                  PSET  @DOATTN
 USING  @DOATTN-72,R13
 0015EC D704 D048 D048 00000 00000 17771  2          +
 0015F2 5050 D048            00000 17772  2 1516.                  ST    RK,@DOATIDT             TO PARM LIST
 0015F6 9501 5006      00006       17773  2 1517.                  IF    IDTCTRM,BEGIN
 0015FA 4770 A0EC            01608 17783  2          +
 AUSING (@M1TATP,XITSXPRM)         17788  3 1518.                    WITH  (@M1TATP,XITSXPRM)
 0015FE 5810 6010            00004 17795  3 1519.                    L     RS,@M1TATCT             POINTER TO IDLE ATTN COUNT
 001602 D200 D04C 1000 00004 00000 17796  3 1520.                    MVC   @DOAIAC,@RS             GIVE COUNT
 001608                            17797  2 1521.                  END   ,
 001608 58F0 A344/0DEF       01860 17801  2 1522.                  ACALL DOATTN                  DO IT
1M1SERV   (M1SE00) (09:42) (22MAR04) IHAPSAE  - PSA Extension (ESAME)                                                       Page  114
0Current Usings:  (PZERO,R0) (IDT,R5) (XITSAREA,R6) (SCP,R7) (M1ATTN,R10) (@XITDATA-72,R12) (@DOATTN-72,R13)
0Loc    Object Code    Addr1 Addr2  Stmt Lv Lineno    Source Statement           (Hibal 5, Asmedit 3.3)  HLASM R4.0  2004/03/22 09.42
+___    ______ ____    _____ _____  ____ __ ______    ______ _________
0                                  17809  2 1524.     *
                                   17810  2 1525.     *  UPDATE PSW AND REGISTERS
                                   17811  2 1526.     *
 DROP   @DOATTN-72,R13             17812  2 1527.                  PSET  @XITGPST
 USING  @XITGPST-72,R13
 00160E D767 D048 D048 00000 00000 17832  2          +
 001614 D207 D048 7008 00000 00008 17833  2 1528.                  MVC   @XITSPSW,SCPPSW         COPY PSW
 00161A D23F D050 7010 00008 00010 17834  2 1529.                  MVC   @XITSGPR(16*4),SCPGPRS   AND REGISTERS
 001620 D21F D090 7050 00048 00050 17835  2 1530.                  MVC   @XITSFPR(4*8),SCPFPRS
 001626 58F0 A320/0DEF       0183C 17836  2 1531.                  VCALL XITPST
 00162C                            17840  1 1532.                END   ,
 00162C                            17844    1533.              END   ,
                                   17848    1534.     *
                                   17849    1535.     *  TASK IS SUSPENDED - WAKE IT UP
                                   17850    1536.     *
 00162C 9180 7260      00260       17851    1537.              IF    SCBFWAIT,BEGIN
 001630 47E0 A12E            0164A 17861             +
 DROP   @XITGPST-72,R13            17866  1 1538.                PSET  @RESUME
 USING  @RESUME-72,R13
 001634 D707 D048 D048 00000 00000 17886  1          +
 00163A D207 D048 71C0 00000 001C0 17887  1 1539.                MVC   @RESCTL,SCPSID          SET SUSPEND ID
 001640 58F0 A324/0DEF       01840 17888  1 1540.                VCALL RESUMTS                START THE TASK GOING
 001646 947F 7260      00260       17892  1 1541.                CLEAR SCBFWAIT
 00164A                            17899    1542.              END   ,
                                   17903    1543.     *
                                   17904    1544.     *  RETURN TO DISPATCHER
                                   17905    1545.     *
 00164A 58F0 A328/0DEF       01844 17906    1546.              VCALL ASULOCK                 RELEASE THE AS LOCK
 001650 9200 D048      00000       17910    1547.              PSET  @EXRDONE
 DROP   @RESUME-72,R13
 USING  @EXRDONE-72,R13
 001654 58F0 A32C/0DEF       01848 17931    1548.              VCALL EXRDONE
 00165A 981F C008            00008 17935    1549.              PEND
 DROP   IDT,R5
 DROP   SCP,R7
 DROP   XITSAREA,R6
 DROP   @XITDATA-72,R12
 DROP   M1ATTN,R10
 00165E 9680 C000/0B0E 00000       17965             +
 DROP   @EXRDONE-72,R13
1M1SERV   (M1SE00) (09:42) (22MAR04) IHAPSAE  - PSA Extension (ESAME)                                                       Page  115
0Current Usings:  (PZERO,R0)
0Loc    Object Code    Addr1 Addr2  Stmt Lv Lineno    Source Statement           (Hibal 5, Asmedit 3.3)  HLASM R4.0  2004/03/22 09.42
+___    ______ ____    _____ _____  ____ __ ______    ______ _________
0                                  17975    1551.     *******************************************************************
                                   17976    1552.     *                                                                 *
                                   17977    1553.     *   @DOATTN - Attention exit scheduling parms                     *
                                   17978    1554.     *                                                                 *
                                   17979    1555.     *******************************************************************
0000000                00000 00005 17981    1557.     @DOATTN  RECORD BEGIN
 000000                            17989  1 1558.     @DOATIDT   DS    A                       IDT POINTER
 000004                            17990  1 1559.     @DOAIAC    DS    X                       Idle attention count
 000005                00005 00005 17991    1560.              END   ,
1M1SERV   (M1SE00) (09:42) (22MAR04) IHAPSAE  - PSA Extension (ESAME)                                                       Page  116
0Current Usings:  (PZERO,R0)
0Loc    Object Code    Addr1 Addr2  Stmt Lv Lineno    Source Statement           (Hibal 5, Asmedit 3.3)  HLASM R4.0  2004/03/22 09.42
+___    ______ ____    _____ _____  ____ __ ______    ______ _________
0                                  18001    1562.     *******************************************************************
                                   18002    1563.     *                                                                 *
                                   18003    1564.     *    DOATTN  - Schedule pending attention exits                   *
                                   18004    1565.     *                                                                 *
                                   18005    1566.     *                                                                 *
                                   18006    1567.     *     Input - @DOATTN                                             *
                                   18007    1568.     *             RY Points to SCP                                    *
                                   18008    1569.     *                                                                 *
                                   18009    1570.     *    Output -                                                     *
                                   18010    1571.     *                                                                 *
                                   18011    1572.     *                                                                 *
                                   18012    1573.     *******************************************************************
-
 001664                            18014    1575.     DOATTN   PROC  @DOATTN,SCOPE=LOCAL
 001664 C4D6C1E3E3D54040           18021             +
 00166C 0008/0000                  18022             +
 001670 900F D004/18AF       00004 18024             +
 USING  DOATTN,R10
 001676 50D0 C000/18CD       00000 18039             +
 00167C 9680 C000      00000       18041             +
 USING  @DOATTN-72,R12
 001680 41D0 C050            00050 18055             +
 USING  SCP,R7                     18056    1576.              WITH  (SCP,RY)
 001684 5860 C048            00000 18069    1577.              L     RX,@DOATIDT             IDT POINTER
 USING  IDT,R6                     18070    1578.              WITH  (IDT,RX)
 001688 5810 6014            00014 18083    1579.              L     RS,IDTAXEP              ENTRY POINT
 00168C 94EF 6005      00005       18084    1580.              CLEAR IDTFEAX                 CLEAR EXIT PENDING
 001690 9501 6006      00006       18091    1581.              IF    IDTCTRM,BEGIN
 001694 4770 A060            016D0 18101             +
                                   18106  1 1582.     *
                                   18107  1 1583.     *  SCHEDULE SESSION BREAK
                                   18108  1 1584.     *
                                   18109  1 1585.   C            IF    (~SCBMB.SCBXA,OR,(RS,Z),OR,SCBFNESC,OR,
 001698 9140 7264      00264              1 1586.                      ((@DOAIAC,GE,2),AND,~SCBCFNMA)),BEGIN
 00169C 47E0 A04E/1211       016BE 18123  1          +
 0016A2 4780 A04E            016BE 18134  1          +
 0016A6 9108 7261      00261       18143  1          +
 0016AA 4710 A04E            016BE 18146  1          +
 0016AE 9502 C04C      00004       18159  1          +
 0016B2 4750 A060            016D0 18160  1          +
 0016B6 9110 7261      00261       18171  1          +
 0016BA 4710 A060            016D0 18172  1          +
 USING  @SETCLP-72,R13             18177  2 1587.                  PSET  @SETCLP,CLEAR=NO
 0016BE 4110 0010            00010 18188  2 1588.                  LA    RS,16                   ENTRY CODE
 0016C2 5010 D048            00000 18189  2 1589.                  ST    RS,@SCCODE              SET
 0016C6 58F0 A1E0/0DEF       01850 18190  2 1590.                  ACALL SETCLP                  GO TO CLP
 0016CC 47F0 A0B4            01724 18197  2 1591.                  EXIT  DOATTN
 0016D0                            18200  1 1592.                END   ,
 0016D0                            18204    1593.              END   ,
1M1SERV   (M1SE00) (09:42) (22MAR04) IHAPSAE  - PSA Extension (ESAME)                                                       Page  117
0Current Usings:  (PZERO,R0) (IDT,R6) (SCP,R7) (DOATTN,R10) (@DOATTN-72,R12) (@SETCLP-72,R13)
0Loc    Object Code    Addr1 Addr2  Stmt Lv Lineno    Source Statement           (Hibal 5, Asmedit 3.3)  HLASM R4.0  2004/03/22 09.42
+___    ______ ____    _____ _____  ____ __ ______    ______ _________
0                                  18209    1595.     *
                                   18210    1596.     *  SCHEDULE USER EXIT
                                   18211    1597.     *
 0016D0 1211/4780 A0B4       01724 18212    1598.              IF    (RS,NZ),BEGIN           EXIT SET
 0016D6 9209 D048      00000       18226  1 1599.                UTRACE CLASS=UXIT,CODE==Y(@UTCATTN),DATA=(IDTAXEP,IDTFLG)
 DROP   @SETCLP-72,R13
 USING  @UTRACE-72,R13
 0016DA D201 D049 A20A 00001 0187A 18246  1          +
 0016E0 D207 D04C 7008 00004 00008 18251  1          +
 0016E6 D203 D054 6014 0000C 00014 18252  1          +
 0016EC D203 D058 6004 00010 00004 18253  1          +
 0016F2 9202 D04B      00003       18254  1          +
 0016F6 58F0 A1BC/0DEF       0182C 18260  1          +
 0016FC D243 7074 700C 00074 0000C 18262  1 1600.                MVC   SCPXPSW+4(68),SCPPSW+4  SAVE PSW, GPRS
 001702 D201 7072 71A6 00072 001A6 18263  1 1601.                MVC   SCPXPSW+2(2),SCPIPSW+2   ILC, CC, PGM MSK, EXIT MASK
 001708 5010 700C            0000C 18264  1 1602.                ST    RS,SCPPSW+4             SET ENTRY POINT
 00170C 1F11/4310 6007       00007 18265  1 1603.                LC    RS,IDTID                EXIT CODE
 001712 4010 7070            00070 18272  1 1604.                STH   RS,SCPXPSW               TO PSW
 001716 5010 7014            00014 18273  1 1605.                ST    RS,SCPGPRS+1*4            AND REGISTER 1
 00171A D203 7048 6018 00048 00018 18274  1 1606.                MVC   SCPGPRS+14*4(4),IDTAXI  SET USER INFO
 001720 9200 7264      00264       18275  1 1607.                CLEAR SCBMB                   DISABLE EXITS
 001724                            18282    1608.              END   ,
 001724 981F C008            00008 18286    1609.              PEND
 DROP   IDT,R6
 DROP   SCP,R7
 DROP   @DOATTN-72,R12
 DROP   DOATTN,R10
 001728 9680 C000/0B0E 00000       18311             +
 DROP   @UTRACE-72,R13
1M1SERV   (M1SE00) (09:42) (22MAR04) IHAPSAE  - PSA Extension (ESAME)                                                       Page  118
0Current Usings:  (PZERO,R0)
0Loc    Object Code    Addr1 Addr2  Stmt Lv Lineno    Source Statement           (Hibal 5, Asmedit 3.3)  HLASM R4.0  2004/03/22 09.42
+___    ______ ____    _____ _____  ____ __ ______    ______ _________
0                                  18321    1611.     *******************************************************************
                                   18322    1612.     *                                                                 *
                                   18323    1613.     *    M1LGOFF - Mode 1 Logoff Processor                            *
                                   18324    1614.     *                                                                 *
                                   18325    1615.     *                                                                 *
                                   18326    1616.     *     Input -  XITSAREA                                           *
                                   18327    1617.     *                                                                 *
                                   18328    1618.     *    Output -  None                                               *
                                   18329    1619.     *                                                                 *
                                   18330    1620.     *                                                                 *
                                   18331    1621.     *******************************************************************
-
 00172E                            18333    1623.     M1LGOFF  PROC  @XITDATA,SCOPE=LOCAL
 00172E D4F1D3C7D6C6C640           18340             +
 001736 0008/0000                  18341             +
 00173A 900F D004/18AF       00004 18343             +
 USING  M1LGOFF,R10
 001740 50D0 C000/18CD       00000 18358             +
 001746 9680 C000      00000       18360             +
 USING  @XITDATA-72,R12
 00174A 41D0 C050            00050 18374             +
 00174E 58F0 A0EE/0DEF       01828 18375    1624.              VCALL ASLOCK                  GET AS LOCK
 001754 5860 C048            00000 18379    1625.              L     RX,@XITDSA              POINTER TO XITSAREA
 USING  XITSAREA,R6                18380    1626.              WITH  (XITSAREA,RX)
 001758 5870 6000            00000 18393    1627.              L     RY,XITSRPRM             SCP POINTER
 USING  SCP,R7                     18394    1628.              WITH  (SCP,RY)
000175C 58F0 A12A/0DEF       01864 18408    1630.              ACALL M1CANWAI                Cancel any waiting
                                   18415    1631.     *
                                   18416    1632.     *  FIRST DELETE ALL PENDING EXITS
                                   18417    1633.     *
 USING  @XITMASK-72,R13            18418    1634.              PSET  @XITMASK
 001762 D704 D048 D048 00000 00000 18435             +
 AUSING (XITMSKD,@XITMSK)          18436    1635.              WITH  (XITMSKD,@XITMSK)
 001768 9640 D048      00000       18443    1636.              SET   XITMSVC                 SVC
 00176C 968C D048      00000       18449    1637.              SET   XITMPI+XITMPER+XITMMON  PROGRAM, PER, AND MONITOR
 001770 9630 D048      00000       18462    1638.              SET   XITMRTC+XITMCTC         REAL AND CPU TIMER
 001774 9680 D049      00001       18471    1639.              SET   XITMATTN                and ATTENTION
 001778 58F0 A12E/0DEF       01868 18477    1640.              VCALL XITFPR                  DELETE 'EM
                                   18481    1641.     *
                                   18482    1642.     *  SCHEDULE EXIT IF LOGOFF NOT ALREADY IN PROGRESS
                                   18483    1643.     *
 00177E 9180 7261      00261       18484    1644.              IF    ~SCBCFALP,BEGIN
 001782 4710 A0D2            0180C 18494             +
 001786 9680 7261      00261       18499  1 1645.                SET   SCBCFALP                MARK LOGOFF IN PROGRESS
 00178A 947F 7262      00262       18505  1 1646.                CLEAR SCBFCLP                  AND CLP NOT ACTIVE
1M1SERV   (M1SE00) (09:42) (22MAR04) IHAPSAE  - PSA Extension (ESAME)                                                       Page  119
0Current Usings:  (PZERO,R0) (XITSAREA,R6) (SCP,R7) (M1LGOFF,R10) (@XITDATA-72,R12) (@XITMASK-72,R13)
0Loc    Object Code    Addr1 Addr2  Stmt Lv Lineno    Source Statement           (Hibal 5, Asmedit 3.3)  HLASM R4.0  2004/03/22 09.42
+___    ______ ____    _____ _____  ____ __ ______    ______ _________
0                                  18513  1 1648.     *
                                   18514  1 1649.     *  FIRST GET CURRENT STATE
                                   18515  1 1650.     *
 DROP   @XITMASK-72,R13            18516  1 1651.                PSET  @XITGPST
 USING  @XITGPST-72,R13
 00178E D767 D048 D048 00000 00000 18536  1          +
 001794 58F0 A0F6/0DEF       01830 18537  1 1652.                VCALL XITGST
 00179A D207 7008 D048 00008 00000 18541  1 1653.                MVC   SCPPSW,@XITSPSW         COPY PSW
 0017A0 D23F 7010 D050 00010 00008 18542  1 1654.                MVC   SCPGPRS(16*4),@XITSGPR   AND REGISTERS
 0017A6 D21F 7050 D090 00050 00048 18543  1 1655.                MVC   SCPFPRS(4*8),@XITSFPR
                                   18544  1 1656.     *
                                   18545  1 1657.     *  BUILD OLD STYLE PSW
                                   18546  1 1658.     *
 0017AC D200 71A6 700A 001A6 0000A 18547  1 1659.                MVC   SCPIPSW+2(1),SCPPSW+2   COPY CC AND PROGRAM MASK
 0017B2 943F 71A6      001A6       18548  1 1660.                NI    SCPIPSW+2,X'3F'         CLEAR ILC BITS
 0017B6 D200 71A7 7264 001A7 00264 18549  1 1661.                MVC   SCPIPSW+3(1),SCBMB
 0017BC                            18550  1 1662.                CLEAR (SCPIPSW,2)             ZERO INTERRUPT CODE
 0017BC D701 71A4 71A4 001A4 001A4 18556  1          +
                                   18557  1 1663.     *
                                   18558  1 1664.     *  SCHEDULE EXIT
                                   18559  1 1665.     *
 DROP   @XITGPST-72,R13            18560  1 1666.                PSET  @SETCLP,CLEAR=NO
 USING  @SETCLP-72,R13
 0017C2 4110 0004            00004 18574  1 1667.                LA    RS,4                    ENTRY CODE
 0017C6 5010 D048            00000 18575  1 1668.                ST    RS,@SCCODE              SET
 0017CA 58F0 A116/0DEF       01850 18576  1 1669.                ACALL SETCLP                  GO TO CLP
                                   18583  1 1670.     *
                                   18584  1 1671.     *  UPDATE PSW AND REGISTERS
                                   18585  1 1672.     *
 DROP   @SETCLP-72,R13             18586  1 1673.                PSET  @XITGPST
 USING  @XITGPST-72,R13
 0017D0 D767 D048 D048 00000 00000 18606  1          +
 0017D6 D207 D048 7008 00000 00008 18607  1 1674.                MVC   @XITSPSW,SCPPSW         COPY PSW
 0017DC D23F D050 7010 00008 00010 18608  1 1675.                MVC   @XITSGPR(16*4),SCPGPRS   AND REGISTERS
 0017E2 D21F D090 7050 00048 00050 18609  1 1676.                MVC   @XITSFPR(4*8),SCPFPRS
 0017E8 58F0 A102/0DEF       0183C 18610  1 1677.                VCALL XITPST
                                   18614  1 1678.     *
                                   18615  1 1679.     *  TASK IS SUSPENDED - WAKE IT UP
                                   18616  1 1680.     *
 0017EE 9180 7260      00260       18617  1 1681.                IF    SCBFWAIT,BEGIN
 0017F2 47E0 A0D2            0180C 18627  1          +
 0017F6 947F 7260      00260       18632  2 1682.                  CLEAR SCBFWAIT
 DROP   @XITGPST-72,R13            18639  2 1683.                  PSET  @RESUME
 USING  @RESUME-72,R13
 0017FA D707 D048 D048 00000 00000 18659  2          +
 001800 D207 D048 71C0 00000 001C0 18660  2 1684.                  MVC   @RESCTL,SCPSID          SET SUSPEND ID
 001806 58F0 A106/0DEF       01840 18661  2 1685.                  VCALL RESUMTS                 START THE TASK GOING
 00180C                            18665  1 1686.                END   ,
 00180C                            18669    1687.              END   ,
                                   18673    1688.     *
                                   18674    1689.     *  RETURN TO THE DISPATCHER
                                   18675    1690.     *
 00180C 58F0 A10A/0DEF       01844 18676    1691.              VCALL ASULOCK                 RELEASE THE AS LOCK
 001812 9200 D048      00000       18680    1692.              PSET  @EXRDONE
1M1SERV   (M1SE00) (09:42) (22MAR04) IHAPSAE  - PSA Extension (ESAME)                                                       Page  120
0Current Usings:  (PZERO,R0) (XITSAREA,R6) (SCP,R7) (M1LGOFF,R10) (@XITDATA-72,R12) (@EXRDONE-72,R13)
0Loc    Object Code    Addr1 Addr2  Stmt Lv Lineno    Source Statement           (Hibal 5, Asmedit 3.3)  HLASM R4.0  2004/03/22 09.42
+___    ______ ____    _____ _____  ____ __ ______    ______ _________
0DROP   @RESUME-72,R13
 USING  @EXRDONE-72,R13
 001816 58F0 A10E/0DEF       01848 18701    1693.              VCALL EXRDONE
 00181C 981F C008            00008 18705    1694.              PEND
 DROP   SCP,R7
 DROP   XITSAREA,R6
 DROP   @XITDATA-72,R12
 DROP   M1LGOFF,R10
 001820 9680 C000/0B0E 00000       18730             +
 DROP   @EXRDONE-72,R13
1M1SERV   (M1SE00) (09:42) (22MAR04) IHAPSAE  - PSA Extension (ESAME)                                                       Page  121
0Current Usings:  (PZERO,R0)
0Loc    Object Code    Addr1 Addr2  Stmt Lv Lineno    Source Statement           (Hibal 5, Asmedit 3.3)  HLASM R4.0  2004/03/22 09.42
+___    ______ ____    _____ _____  ____ __ ______    ______ _________
0001828                            18740    1696.              LTORG
 001828 00000000                   18742                             =V(ASLOCK)
 00182C 000006D0                   18743                             =A(UTRACE)
 001830 00000000                   18744                             =V(XITGST)
 001834 00001170                   18745                             =A(DOCTMR)
 001838 000010F4                   18746                             =A(DOUTMR)
 00183C 00000000                   18747                             =V(XITPST)
 001840 00000000                   18748                             =V(RESUMTS)
 001844 00000000                   18749                             =V(ASULOCK)
 001848 00000000                   18750                             =V(EXRDONE)
 00184C FFFFFFFC                   18751                             =A(-4)
 001850 00002058                   18752                             =A(SETCLP)
 001854 C9C4E340                   18753                             =CL4'IDT'
 001858 80000000                   18754                             =X'80000000'
 00185C 00001492                   18755                             =A(DOWAIT)
 001860 00001670                   18756                             =A(DOATTN)
 001864 000076D0                   18757                             =A(M1CANWAI)
 001868 00000000                   18758                             =V(XITFPR)
 00186C 0001                       18759                             =Y(1)
 00186E 0002                       18760                             =Y(2)
 001870 0010                       18761                             =Y(16)
 001872 0011                       18762                             =Y(17)
 001874 0000                       18763                             =Y(@UTCTIME)
 001876 0001                       18764                             =Y(@UTCWAIT)
 001878 0000                       18765                             =Y(0)
 00187A 0002           018B6 07A90 18766                             =Y(@UTCATTN)
1M1SERV   (M1SE00) (09:42) (22MAR04) IHAPSAE  - PSA Extension (ESAME)                                                       Page  122
0Current Usings:  (PZERO,R0)
0Loc    Object Code    Addr1 Addr2  Stmt Lv Lineno    Source Statement           (Hibal 5, Asmedit 3.3)  HLASM R4.0  2004/03/22 09.42
+___    ______ ____    _____ _____  ____ __ ______    ______ _________
0                                  18771    1698.     *******************************************************************
                                   18772    1699.     *                                                                 *
                                   18773    1700.     *    M1PGM  - Mode 1 Program Interrupt Processor                  *
                                   18774    1701.     *                                                                 *
                                   18775    1702.     *                                                                 *
                                   18776    1703.     *     Input - XITSAREA                                            *
                                   18777    1704.     *                                                                 *
                                   18778    1705.     *    Output -                                                     *
                                   18779    1706.     *                                                                 *
                                   18780    1707.     *                                                                 *
                                   18781    1708.     *                                                                 *
                                   18782    1709.     *                                                                 *
                                   18783    1710.     *                                                                 *
                                   18784    1711.     *                                                                 *
                                   18785    1712.     *******************************************************************
-
 0018B6                            18787    1714.     M1PGM    PROC  @XITDATA,SCOPE=LOCAL
 0018B6 D4F1D7C7D4404040           18794             +
 0018BE 0008/0000                  18795             +
 0018C2 900F D004/18AF       00004 18797             +
 USING  M1PGM,R10
 0018C8 50D0 C000/18CD       00000 18812             +
 0018CE 9680 C000      00000       18814             +
 USING  @XITDATA-72,R12
 0018D2 41D0 C050            00050 18828             +
 0018D6 58F0 A95E/0DEF       02220 18829    1715.              VCALL ASLOCK                  GET AS LOCK
 0018DC 5860 C048            00000 18833    1716.              L     RX,@XITDSA              POINTER TO XITSAREA
 USING  XITSAREA,R6                18834    1717.              WITH  (XITSAREA,RX)
 0018E0 5870 6000            00000 18847    1718.              L     RY,XITSRPRM             SCP POINTER
 USING  SCP,R7                     18848    1719.              WITH  (SCP,RY)
                                   18861    1720.     *
                                   18862    1721.     *  ERROR DURING SVC PROCESSING - SAVE STATE
                                   18863    1722.     *
 0018E4 9140 7262      00262       18864    1723.              IF    SCBFSVC,BEGIN           SVC IN PROGRESS
 0018E8 47E0 A092            01954 18874             +
 AUSING (SEXITPI,XITSXPRM)         18879  1 1724.                WITH  (SEXITPI,XITSXPRM)
 USING  @XITGPST-72,R13            18886  1 1725.                PSET  @XITGPST
 0018EC D767 D048 D048 00000 00000 18903  1          +
 0018F2 58F0 A962/0DEF       02224 18904  1 1726.                VCALL XITGST
 0018F8 D207 7148 D048 00148 00000 18908  1 1727.                MVC   SCPSVPSW,@XITSPSW        COPY PSW
 0018FE D23F 7150 D050 00150 00008 18909  1 1728.                MVC   SCPSVGPR(16*4),@XITSGPR   REGISTERS
 001904 D200 714B 600F 0014B 00003 18910  1 1729.                MVC   SCPSVPSW+3(1),SXIPCODE+1   AND INTERRUPT CODE
 00190A AC04 021B      0021B       18911  1 1730.                ABORT PIINM1S
 00190E 9680 021A      0021A       18920  1          +
 001912 50F0 021C            0021C 18921  1          +
 001916 58F0 0210            00210 18922  1          +
 00191A 89F0 0010            00010 18923  1          +
 00191E 88F0 0010            00010 18924  1          +
 001922 41F0 F000            00000 18925  1          +
 001926 AEFF 0006            00006 18926  1          +
 00192A D7C9C9D5D4F1E240           18927  1          +
                                   18928  1 1731.     *
1M1SERV   (M1SE00) (09:42) (22MAR04) IHAPSAE  - PSA Extension (ESAME)                                                       Page  123
0Current Usings:  (PZERO,R0) (XITSAREA,R6) (SCP,R7) (M1PGM,R10) (@XITDATA-72,R12) (@XITGPST-72,R13)
0Loc    Object Code    Addr1 Addr2  Stmt Lv Lineno    Source Statement           (Hibal 5, Asmedit 3.3)  HLASM R4.0  2004/03/22 09.42
+___    ______ ____    _____ _____  ____ __ ______    ______ _________
0                                  18929  1 1732.     *  NOW DELETE SVC EXIT
                                   18930  1 1733.     *
 00193A 58F0 A966/0DEF       02228 18931  1 1734.                VCALL XITRMPLC                DELETE PREVIOUS (SVC) EXIT
 001940 94BF 7262      00262       18935  1 1735.                CLEAR SCBFSVC
                                   18942  1 1736.     *
                                   18943  1 1737.     *  DELETE PENDING PER EXIT ALSO
                                   18944  1 1738.     *
 DROP   @XITGPST-72,R13            18945  1 1739.                PSET  @XITMASK
 USING  @XITMASK-72,R13
 001944 D704 D048 D048 00000 00000 18965  1          +
 AUSING (XITMSKD,@XITMSK)          18966  1 1740.                WITH  (XITMSKD,@XITMSK)
 00194A 9608 D048      00000       18973  1 1741.                SET   XITMPER                 MARK PER EXIT
 00194E 58F0 A96A/0DEF       0222C 18979  1 1742.                VCALL XITFPR                  DELETE IT
 001954                            18983    1743.              END   ,
                                   18987    1744.     *
                                   18988    1745.     *  UPDATE USER STATE IF NOT SVC ERROR
                                   18989    1746.     *
 001954 A096           01954 018EA 18990    1747.              ELSE  BEGIN                   SVC NOT IN PROGRESS
 001954 47F0 A0EE            019B0 18995             +
 DROP   @XITMASK-72,R13            19001  1 1748.                PSET  @XITGPST
 USING  @XITGPST-72,R13
 001958 D767 D048 D048 00000 00000 19021  1          +
 00195E 58F0 A962/0DEF       02224 19022  1 1749.                VCALL XITGST
 001964 D207 7008 D048 00008 00000 19026  1 1750.                MVC   SCPPSW,@XITSPSW         COPY PSW
 00196A D23F 7010 D050 00010 00008 19027  1 1751.                MVC   SCPGPRS(16*4),@XITSGPR   AND REGISTERS
 001970 D21F 7050 D090 00050 00048 19028  1 1752.                MVC   SCPFPRS(4*8),@XITSFPR
 001976                            19029  1 1753.                IF    ('CLC  SCPPSW+4(4),=V(VCLP)',EQ),'ABORT CLPREENTRY'
 001976 D503 700C A96E 0000C 02230 19036  1          +
 00197C 4770 A0EE            019B0 19037  1          +
 001980 AC04 021B      0021B       19046  2          +
 001984 9680 021A      0021A       19052  2          +
 001988 50F0 021C            0021C 19053  2          +
 00198C 58F0 0210            00210 19054  2          +
 001990 89F0 0010            00010 19055  2          +
 001994 88F0 0010            00010 19056  2          +
 001998 41F0 F000            00000 19057  2          +
 00199C AEFF 0006            00006 19058  2          +
 0019A0 C3D3D7D9C5C5D5E3           19059  1          +
 0019B0                            19064    1754.              END   ,
                                   19068    1755.     *
                                   19069    1756.     *  Process PER interrupt
                                   19070    1757.     *
 0019B0 9504 6004      00004       19071    1758.              IF    (XITSTYPE.XITTPER,EQ),BEGIN      PER OCCURRED
 0019B4 4770 A12A            019EC 19084             +
 AUSING (SEXITPER,XITSXPRM)        19089  1 1759.                WITH  (SEXITPER,XITSXPRM)
 0019B8 9202 D048      00000       19096  1 1760.                UTRACE CLASS=PER,CODE=SXIECODE,DATA=(SXIEPERA)
 DROP   @XITGPST-72,R13
 USING  @UTRACE-72,R13
 0019BC D201 D049 600E 00001 00002 19116  1          +
 0019C2 D207 D04C 7008 00004 00008 19121  1          +
 0019C8 D203 D054 6010 0000C 00004 19122  1          +
 0019CE 9201 D04B      00003       19123  1          +
 0019D2 58F0 A972/0DEF       02234 19129  1          +
 0019D8 48E0 600C            00000 19131  1 1761.                LH    R14,SXIEILC             INSTRUCTION LENGTH
1M1SERV   (M1SE00) (09:42) (22MAR04) IHAPSAE  - PSA Extension (ESAME)                                                       Page  124
0Current Usings:  (PZERO,R0) (XITSAREA,R6) (SCP,R7) (M1PGM,R10) (@XITDATA-72,R12) (@UTRACE-72,R13)
0Loc    Object Code    Addr1 Addr2  Stmt Lv Lineno    Source Statement           (Hibal 5, Asmedit 3.3)  HLASM R4.0  2004/03/22 09.42
+___    ______ ____    _____ _____  ____ __ ______    ______ _________
00019DC 41F0 0080            00080 19132  1 1762.                LA    R15,X'80'               PER INTERRUPT CODE
 0019E0 D203 7204 6010 00204 00004 19133  1 1763.                MVC   SCPPER,SXIEPERA         SET ADDRESS
 0019E6 D200 7204 600E 00204 00002 19134  1 1764.                MVC   SCPPER(1),SXIECODE       AND CODE
 0019EC                            19135    1765.              END   ,
                                   19139    1766.     *
                                   19140    1767.     *  Process Monitor interrupt
                                   19141    1768.     *
 0019EC A12E           019EC 019B6 19142    1769.              ELSEIF (XITSTYPE.XITTMON,EQ),BEGIN    MONITOR CALL OCCURRED
 0019EC 47F0 A16A            01A2C 19148             +
 0019F0 9505 6004      00004       19163             +
 0019F4 4770 A16A            01A2C 19164             +
 AUSING (SEXITMC,XITSXPRM)         19169  1 1770.                WITH  (SEXITMC,XITSXPRM)
 0019F8 9203 D048      00000       19176  1 1771.                UTRACE CLASS=MON,CODE=SXIMCLA,DATA=(SXIMCODE)
 0019FC D201 D049 600E 00001 00002 19186  1          +
 001A02 D207 D04C 7008 00004 00008 19191  1          +
 001A08 D203 D054 6010 0000C 00004 19192  1          +
 001A0E 9201 D04B      00003       19193  1          +
 001A12 58F0 A972/0DEF       02234 19199  1          +
 001A18 48E0 600C            00000 19201  1 1772.                LH    R14,SXIMILC             INSTRUCTION LENGTH
 001A1C 41F0 0040            00040 19202  1 1773.                LA    R15,X'40'               MONITOR CALL INTERRUPT CODE
 001A20 D203 7208 6010 00208 00004 19203  1 1774.                MVC   SCPMON,SXIMCODE         SET MONITOR CODE
 001A26 D200 7208 600F 00208 00003 19204  1 1775.                MVC   SCPMON(1),SXIMCLA+1      AND CLASS
 001A2C                            19205    1776.              END   ,
                                   19209    1777.     *
                                   19210    1778.     *  PROCESS PROGRAM PANICS
                                   19211    1779.     *
 001A2C A16E           01A2C 019F6 19212    1780.              ELSE  BEGIN                   PROGRAM INTERRUPT OCCURRED
 001A2C 47F0 A1E2            01AA4 19217             +
 AUSING (SEXITPI,XITSXPRM)         19223  1 1781.                WITH  (SEXITPI,XITSXPRM)
 001A30 9201 D048      00000       19230  1 1782.                UTRACE CLASS=PI,CODE=SXIPCODE,DATA=(SXIPEXA)
 001A34 D201 D049 600E 00001 00002 19240  1          +
 001A3A D207 D04C 7008 00004 00008 19245  1          +
 001A40 D203 D054 6010 0000C 00004 19246  1          +
 001A46 9201 D04B      00003       19247  1          +
 001A4A 58F0 A972/0DEF       02234 19253  1          +
 001A50 48E0 600C            00000 19255  1 1783.                LH    R14,SXIPILC             INSTRUCTION LENGTH
 001A54 48F0 600E            00002 19256  1 1784.                LH    R15,SXIPCODE            INTERRUPT CODE
                                   19257  1 1785.     *
                                   19258  1 1786.     *  FIX FOR SSM SUPPRESSION CODE
                                   19259  1 1787.     *
 001A58 59F0 A976            02238 19260  1 1788.                IF    (R15,EQ,19),'LA  R15,X"02"'   CONVERT TO 2 (PRIVED OP)
 001A5C 4770 A1A2            01A64 19272  1          +
 001A60 41F0 0002            00002 19278  1          +
                                   19283  1 1789.     *
                                   19284  1 1790.     *  FIX FOR VECTOR OPERATION CODE
                                   19285  1 1791.     *
 001A64 59F0 A97A            0223C 19286  1 1792.                IF    (R15,EQ,25),BEGIN
 001A68 4770 A1B0            01A72 19298  1          +
 001A6C 41F0 0001            00001 19303  2 1793.                  LA    R15,X'01'               CONVERT TO 1 (OPERATION)
 001A70 1BEE                       19304  2 1794.                  CLEAR R14                     Set ILC to zero
 001A72                            19308  1 1795.                END   ,
                                   19312  1 1796.     *
                                   19313  1 1797.     *  Fix up unresolvable page faults
                                   19314  1 1798.     *
1M1SERV   (M1SE00) (09:42) (22MAR04) IHAPSAE  - PSA Extension (ESAME)                                                       Page  125
0Current Usings:  (PZERO,R0) (XITSAREA,R6) (SCP,R7) (M1PGM,R10) (@XITDATA-72,R12) (@UTRACE-72,R13)
0Loc    Object Code    Addr1 Addr2  Stmt Lv Lineno    Source Statement           (Hibal 5, Asmedit 3.3)  HLASM R4.0  2004/03/22 09.42
+___    ______ ____    _____ _____  ____ __ ______    ______ _________
0001A72 59F0 A97E            02240 19315  1 1799.                IF    ((R15,EQ,16),OR,(R15,EQ,17)),BEGIN
 001A76 4780 A1C0            01A82 19331  1          +
 001A7A 59F0 A982            02244 19342  1          +
 001A7E 4770 A1CC            01A8E 19343  1          +
 001A82 D203 71A0 6010 001A0 00004 19348  2 1800.                  MVC   SCPPXA,SXIPEXA          EXCEPTION ADDRESS
 001A88 41F0 0005            00005 19349  2 1801.                  LA    R15,5                   CALL IT ADDRESSING
 001A8C 1BEE                       19350  2 1802.                  CLEAR R14                     Set ILC to zero
 001A8E                            19354  1 1803.                END   ,
                                   19358  1 1804.     *
                                   19359  1 1805.     *  Fix up DAS errors
                                   19360  1 1806.     *
 001A8E 59F0 A986            02248 19361  1 1807.                IF    ((R15,GE,32),AND,(R15,LE,37)),BEGIN
 001A92 4750 A1E2            01AA4 19375  1          +
 001A96 59F0 A98A            0224C 19388  1          +
 001A9A 4730 A1E2            01AA4 19389  1          +
 001A9E 41F0 0001            00001 19394  2 1808.                  LA    R15,1                   Call it operation
 001AA2 1BEE                       19395  2 1809.                  CLEAR R14                     Set ILC to zero
 001AA4                            19399  1 1810.                END   ,
 001AA4                            19403    1811.              END   ,
                                   19407    1812.     *
                                   19408    1813.     *  SET OLD STYLE PSW FIELDS
                                   19409    1814.     *
 001AA4 40F0 71A4            001A4 19410    1815.              STH   R15,SCPIPSW             SET INTERRUPT CODE
 001AA8 D200 71A6 700A 001A6 0000A 19411    1816.              MVC   SCPIPSW+2(1),SCPPSW+2   COPY CC AND PROGRAM MASK
 001AAE 943F 71A6      001A6       19412    1817.              NI    SCPIPSW+2,X'3F'         CLEAR ILC BITS
 001AB2 89E0 0005            00005 19413    1818.              SLL   R14,5                   ILC TO PROPER POSITION
 001AB6 44E0 A9F0            022B2 19414    1819.              EX    R14,'OI  SCPIPSW+2,0'   SET ILC IN PSW
 0022B2 9600 71A6      001A6       19422             +
 001ABA D200 71A7 7264 001A7 00264 19430    1820.              MVC   SCPIPSW+3(1),SCBMB      ADD MASK BYTE
                                   19431    1821.     *
                                   19432    1822.     *  SET UP THE EXIT
                                   19433    1823.     *
 001AC0 40F0 71A8            001A8 19434    1824.              STH   R15,SCPPAN
 001AC4 41F0 A24C/0DEF       01B0E 19435    1825.              LCALL DOPANIC                 PANIC CODE
                                   19444    1826.     *
                                   19445    1827.     *  UPDATE PSW AND REGISTERS
                                   19446    1828.     *
 DROP   @UTRACE-72,R13             19447    1829.              PSET  @XITGPST
 USING  @XITGPST-72,R13
 001ACA D767 D048 D048 00000 00000 19467             +
 001AD0 D207 D048 7008 00000 00008 19468    1830.              MVC   @XITSPSW,SCPPSW         COPY PSW
 001AD6 D23F D050 7010 00008 00010 19469    1831.              MVC   @XITSGPR(16*4),SCPGPRS   AND REGISTERS
 001ADC D21F D090 7050 00048 00050 19470    1832.              MVC   @XITSFPR(4*8),SCPFPRS
 001AE2 58F0 A98E/0DEF       02250 19471    1833.              VCALL XITPST
                                   19475    1834.     *
                                   19476    1835.     *  RETURN TO DISPATCHER
                                   19477    1836.     *
 001AE8 58F0 A992/0DEF       02254 19478    1837.              VCALL ASULOCK                 RELEASE THE AS LOCK
 001AEE 9200 D048      00000       19482    1838.              PSET  @EXRDONE
 DROP   @XITGPST-72,R13
 USING  @EXRDONE-72,R13
 001AF2 58F0 A996/0DEF       02258 19503    1839.              VCALL EXRDONE
 001AF8 981F C008            00008 19507    1840.              PEND
 DROP   SCP,R7
1M1SERV   (M1SE00) (09:42) (22MAR04) IHAPSAE  - PSA Extension (ESAME)                                                       Page  126
0Current Usings:  (PZERO,R0) (@EXRDONE-72,R13)
0Loc    Object Code    Addr1 Addr2  Stmt Lv Lineno    Source Statement           (Hibal 5, Asmedit 3.3)  HLASM R4.0  2004/03/22 09.42
+___    ______ ____    _____ _____  ____ __ ______    ______ _________
0DROP   XITSAREA,R6
 DROP   @XITDATA-72,R12
 DROP   M1PGM,R10
 001AFC 9680 C000/0B0E 00000       19532             +
 DROP   @EXRDONE-72,R13
1M1SERV   (M1SE00) (09:42) (22MAR04) IHAPSAE  - PSA Extension (ESAME)                                                       Page  127
0Current Usings:  (PZERO,R0)
0Loc    Object Code    Addr1 Addr2  Stmt Lv Lineno    Source Statement           (Hibal 5, Asmedit 3.3)  HLASM R4.0  2004/03/22 09.42
+___    ______ ____    _____ _____  ____ __ ______    ______ _________
0                                  19542    1842.     *******************************************************************
                                   19543    1843.     *                                                                 *
                                   19544    1844.     *    DOPANIC - Schedule user or CLP PANIC exit                    *
                                   19545    1845.     *                                                                 *
                                   19546    1846.     *                                                                 *
                                   19547    1847.     *     Input -                                                     *
                                   19548    1848.     *                                                                 *
                                   19549    1849.     *    Output -                                                     *
                                   19550    1850.     *                                                                 *
                                   19551    1851.     *                                                                 *
                                   19552    1852.     *                                                                 *
                                   19553    1853.     *                                                                 *
                                   19554    1854.     *                                                                 *
                                   19555    1855.     *                                                                 *
                                   19556    1856.     *******************************************************************
-
 001B02                            19558    1858.     DOPANIC  PROC  ,SCOPE=LOCAL
 001B02 C4D6D7C1D5C9C340           19565             +
 001B0A 0000/0000                  19566             +
 001B0E 900F D004/18AF       00004 19568             +
 USING  DOPANIC,R10
 001B14 50D0 C000/18CD       00000 19583             +
 001B1A 9680 C000      00000       19585             +
 001B1E 41D0 C048            00048 19586             +
 USING  SCP,R7                     19587    1859.              WITH  (SCP,RY)
                                   19600    1860.     *
                                   19601    1861.     *  SCHEDULE USER'S PANIC EXIT
                                   19602    1862.     *
 001B22 5810 71E0/1211       001E0 19603    1863.              IF    ('LT RS,SCPPXEP',NZ),BEGIN
 001B28 4780 A0B6            01BC4 19614             +
 001B2C 9110 7264      00264       19619  1 1864.                IF    ~SCBMB.SCBXP,EXIT       EXIT NOT ENABLED
 001B30 47E0 A0B6            01BC4 19631  1          +
 001B34 48F0 71A8            001A8 19637  1 1865.                LH    R15,SCPPAN              PANIC CODE
                                   19638  1 1866.     *
                                   19639  1 1867.     *  IF CLP HANDLING PER AND MONITOR, REMOVE FROM INTERRUPT CODE
                                   19640  1 1868.     *
 001B38 9140 7200      00200       19641  1 1869.                IF    SCPFPER,'N  R15,=A(255-128)'  CLP<=PER
 001B3C 47E0 A036            01B44 19651  1          +
 001B40 54F0 A74E            0225C 19657  1          +
 001B44 9120 7200      00200       19662  1 1870.                IF    SCPFMON,'N  R15,=A(255-64)'   CLP<=MON
 001B48 47E0 A042            01B50 19672  1          +
 001B4C 54F0 A752            02260 19678  1          +
 001B50 12FF/4780 A0B6       01BC4 19683  1 1871.                IF    (R15,Z),EXIT            NOTHING LEFT FOR USER
1M1SERV   (M1SE00) (09:42) (22MAR04) IHAPSAE  - PSA Extension (ESAME)                                                       Page  128
0Current Usings:  (PZERO,R0) (SCP,R7) (DOPANIC,R10)
0Loc    Object Code    Addr1 Addr2  Stmt Lv Lineno    Source Statement           (Hibal 5, Asmedit 3.3)  HLASM R4.0  2004/03/22 09.42
+___    ______ ____    _____ _____  ____ __ ______    ______ _________
0                                  19701  1 1873.     *
                                   19702  1 1874.     *  SET UP TO ENTER USER ROUTINE
                                   19703  1 1875.     *
 001B56 40F0 7070            00070 19704  1 1876.                STH   R15,SCPXPSW             INTERRUPT CODE
 001B5A D201 7072 71A6 00072 001A6 19705  1 1877.                MVC   SCPXPSW+2(2),SCPIPSW+2  ILC, CC, AND PROGRAM MASK
 001B60 D203 7074 700C 00074 0000C 19706  1 1878.                MVC   SCPXPSW+4(4),SCPPSW+4   INTERRUPT PSW ADDRESS
 001B66 D23F 7078 7010 00078 00010 19707  1 1879.                MVC   SCPXGPRS(16*4),SCPGPRS   GPRS
 001B6C 50F0 7014            00014 19708  1 1880.                ST    R15,SCPGPRS+4           SET ENTRY CODE
 001B70 9209 D048      00000       19709  1 1881.                UTRACE CLASS=UXIT,CODE==Y(@UTCPAN),DATA=(SCPPXEP,SCPXPSW)
 USING  @UTRACE-72,R13
 001B74 D201 D049 A79E 00001 022AC 19726  1          +
 001B7A D207 D04C 7008 00004 00008 19731  1          +
 001B80 D203 D054 71E0 0000C 001E0 19732  1          +
 001B86 D203 D058 7070 00010 00070 19733  1          +
 001B8C 9202 D04B      00003       19734  1          +
 001B90 58F0 A726/0DEF       02234 19740  1          +
 001B96 5010 700C            0000C 19742  1 1882.                ST    RS,SCPPSW+4             SET ENTRY POINT
 001B9A D203 7048 71E4 00048 001E4 19743  1 1883.                MVC   SCPGPRS+14*4(4),SCPPXI    AND USER INFO
 001BA0 9180 7071      00071       19744  1 1884.                IF    SCPXPSW+1.X'80','MVC SCPGPRS+4*15,SCPPER'
 001BA4 47E0 A0A0            01BAE 19755  1          +
 001BA8 D203 704C 7204 0004C 00204 19761  1          +
 001BAE 9140 7071      00071       19766  1 1885.                IF    SCPXPSW+1.X'40','MVC SCPGPRS,SCPMON'  USER<=MONITOR
 001BB2 47E0 A0AE            01BBC 19777  1          +
 001BB6 D203 7010 7208 00010 00208 19783  1          +
 001BBC 9200 7264      00264       19788  1 1886.                CLEAR SCBMB                   DISABLE EXITS
 001BC0 47F0 A0DE            01BEC 19795  1 1887.                EXIT  DOPANIC                 DONE
 001BC4                            19798    1888.              END   ,
                                   19802    1889.     *
                                   19803    1890.     *  SET UP TO ENTER CLP PANIC ROUTINE
                                   19804    1891.     *
 001BC4 4810 71A8            001A8 19805    1892.              LH    RS,SCPPAN               PANIC CODE
 001BC8                            19806    1893.              CLEAR SCPPAN                  CLEAR CODE
 001BC8 D701 71A8 71A8 001A8 001A8 19812             +
 001BCE 4010 71A4            001A4 19813    1894.              STH   RS,SCPIPSW               TO PSW
 DROP   @UTRACE-72,R13             19814    1895.              PSET  @SETCLP,CLEAR=NO
 USING  @SETCLP-72,R13
 001BD2 4110 0008            00008 19828    1896.              LA    RS,8                    ENTRY CODE
 001BD6 5010 D048            00000 19829    1897.              ST    RS,@SCCODE              SET
 001BDA 58F0 A756/0DEF       02264 19830    1898.              ACALL SETCLP                  GO TO CLP
 001BE0 D203 7010 7208 00010 00208 19837    1899.              MVC   SCPGPRS,SCPMON          MONITOR INFO IN R0
 001BE6 D203 704C 7204 0004C 00204 19838    1900.              MVC   SCPGPRS+15*4,SCPPER     PER INFO IN R15
 001BEC 981F C008            00008 19839    1901.              PEND
 DROP   SCP,R7
 DROP   DOPANIC,R10
 001BF0 9680 C000/0B0E 00000       19854             +
 DROP   @SETCLP-72,R13
1M1SERV   (M1SE00) (09:42) (22MAR04) IHAPSAE  - PSA Extension (ESAME)                                                       Page  129
0Current Usings:  (PZERO,R0)
0Loc    Object Code    Addr1 Addr2  Stmt Lv Lineno    Source Statement           (Hibal 5, Asmedit 3.3)  HLASM R4.0  2004/03/22 09.42
+___    ______ ____    _____ _____  ____ __ ______    ______ _________
0                                  19864    1903.     *******************************************************************
                                   19865    1904.     *                                                                 *
                                   19866    1905.     *    SVC Table for Mode 1                                         *
                                   19867    1906.     *                                                                 *
                                   19868    1907.     *******************************************************************
00022B6                022B2 07A90 19870    1909.              DATA  BEGIN
 0022B6 0000                              1
 0022B8 000000EB                   19875  1 1910.     SVCTABLE   DC    A(256-(SVCTEND-SVCTABLE-4)/4)
 0022BC 00002016                   19876  1 1911.                DC    A(QPAUSE)               235
 0022C0 00002A4A                   19877  1 1912.                DC    A(M1HALT)               236 - CLP ONLY
 0022C4 000032A4                   19878  1 1913.                DC    A(CLPSERV)              237 - CLP ONLY
 0022C8 00002B70                   19879  1 1914.                DC    A(MILCOM)               238
 0022CC 00006D14                   19880  1 1915.                DC    A(M1ENQ)                239
 0022D0 00002BA2                   19881  1 1916.                DC    A(SERVICE)              240
 0022D4 000029D2                   19882  1 1917.                DC    A(M1STATUS)             241
 0022D8 00001DD4                   19883  1 1918.                DC    A(M1WAIT)               242
 0022DC 0000293C                   19884  1 1919.                DC    A(M1RELSE)              243
 0022E0 000028AA                   19885  1 1920.                DC    A(M1RESRV)              244
 0022E4 00002786                   19886  1 1921.                DC    A(M1CNTRL)              245
 0022E8 000026A8                   19887  1 1922.                DC    A(M1WRITE)              246
 0022EC 000025E6                   19888  1 1923.                DC    A(M1READ)               247
 0022F0 000024B2                   19889  1 1924.                DC    A(M1DETACH)             248
 0022F4 00002324                   19890  1 1925.                DC    A(M1ATTACH)             249
 0022F8 0000403C                   19891  1 1926.                DC    A(SENSE)                250
 0022FC 00004D3E                   19892  1 1927.                DC    A(SET)                  251
 002300 00001EAC                   19893  1 1928.                DC    A(PANIC)                252
 002304 00001EE8                   19894  1 1929.                DC    A(M1EXIT)               253
 002308 00001F3C                   19895  1 1930.                DC    A(COMMAND)              254
 00230C 00001FD4                   19896  1 1931.                DC    A(PAUSE)                255
                                   19897  1 1932.     SVCTEND    EQU   *
 001BF6                018B6 07A90 19898    1933.              END   ,
1M1SERV   (M1SE00) (09:42) (22MAR04) IHAPSAE  - PSA Extension (ESAME)                                                       Page  130
0Current Usings:  (PZERO,R0)
0Loc    Object Code    Addr1 Addr2  Stmt Lv Lineno    Source Statement           (Hibal 5, Asmedit 3.3)  HLASM R4.0  2004/03/22 09.42
+___    ______ ____    _____ _____  ____ __ ______    ______ _________
0                                  19905    1935.     *******************************************************************
                                   19906    1936.     *                                                                 *
                                   19907    1937.     *    M1SVC  - Mode 1 SVC Processor                                *
                                   19908    1938.     *                                                                 *
                                   19909    1939.     *                                                                 *
                                   19910    1940.     *     Input - @SVCM1                                              *
                                   19911    1941.     *                                                                 *
                                   19912    1942.     *    Output -                                                     *
                                   19913    1943.     *                                                                 *
                                   19914    1944.     *                                                                 *
                                   19915    1945.     *                                                                 *
                                   19916    1946.     *                                                                 *
                                   19917    1947.     *                                                                 *
                                   19918    1948.     *                                                                 *
                                   19919    1949.     *******************************************************************
-
 001BF6                            19921    1951.     M1SVC    PROC  @XITDATA,SCOPE=LOCAL
 001BF6 D4F1E2E5C3404040           19928             +
 001BFE 0008/0000                  19929             +
 001C02 900F D004/18AF       00004 19931             +
 USING  M1SVC,R10
 001C08 50D0 C000/18CD       00000 19946             +
 001C0E 9680 C000      00000       19948             +
 USING  @XITDATA-72,R12
 001C12 41D0 C050            00050 19962             +
                                   19963    1952.     * -->    VCALL ASLOCK                  GET AS LOCK
 001C16 5860 C048            00000 19964    1953.              L     RX,@XITDSA              POINTER TO XITSAREA
 USING  XITSAREA,R6                19965    1954.              WITH  (XITSAREA,RX)
 001C1A 5870 6000            00000 19978    1955.              L     RY,XITSRPRM             SCP POINTER
 USING  SCP,R7                     19979    1956.              WITH  (SCP,RY)
 USING  @XITGPST-72,R13            19992    1957.              PSET  @XITGPST
 001C1E D767 D048 D048 00000 00000 20009             +
 001C24 58F0 A622/0DEF       02224 20010    1958.              VCALL XITGST
 001C2A D207 7008 D048 00008 00000 20014    1959.              MVC   SCPPSW,@XITSPSW         COPY PSW
 001C30 D23F 7010 D050 00010 00008 20015    1960.              MVC   SCPGPRS(16*4),@XITSGPR   AND REGISTERS
 001C36 D21F 7050 D090 00050 00048 20016    1961.              MVC   SCPFPRS(4*8),@XITSFPR
                                   20017    1962.     *
                                   20018    1963.     *  BUILD OLD STYLE PSW
                                   20019    1964.     *
 AUSING (SEXITSVC,XITSXPRM)        20020    1965.              WITH  (SEXITSVC,XITSXPRM),BEGIN
                                   20030  1 1966.   C            UTRACE CLASS=SVC,CODE=SXISNUM,DATA=(SCPGPRS+14*4,
 001C3C 9200 D048      00000              1 1967.                      SCPGPRS+15*4,SCPGPRS+0*4,SCPGPRS+1*4)
 DROP   @XITGPST-72,R13
 USING  @UTRACE-72,R13
 001C40 D201 D049 600E 00001 00002 20050  1          +
 001C46 D207 D04C 7008 00004 00008 20055  1          +
 001C4C D203 D054 7048 0000C 00048 20056  1          +
 001C52 D203 D058 704C 00010 0004C 20057  1          +
 001C58 D203 D05C 7010 00014 00010 20058  1          +
 001C5E D203 D060 7014 00018 00014 20059  1          +
 001C64 9204 D04B      00003       20060  1          +
 001C68 58F0 A632/0DEF       02234 20066  1          +
1M1SERV   (M1SE00) (09:42) (22MAR04) IHAPSAE  - PSA Extension (ESAME)                                                       Page  131
0Current Usings:  (PZERO,R0) (XITSAREA,R6) (SCP,R7) (M1SVC,R10) (@XITDATA-72,R12) (@UTRACE-72,R13)
0Loc    Object Code    Addr1 Addr2  Stmt Lv Lineno    Source Statement           (Hibal 5, Asmedit 3.3)  HLASM R4.0  2004/03/22 09.42
+___    ______ ____    _____ _____  ____ __ ______    ______ _________
0001C6E D200 71A6 700A 001A6 0000A 20068  1 1968.                MVC   SCPIPSW+2(1),SCPPSW+2   COPY CC AND PROGRAM MASK
 001C74 943F 71A6      001A6       20069  1 1969.                NI    SCPIPSW+2,X'3F'         CLEAR ILC BITS
 001C78 48F0 600C            00000 20070  1 1970.                LH    R15,SXISILC             INSTRUCTION LENGTH
 001C7C 89F0 0005            00005 20071  1 1971.                SLL   R15,5
 001C80 44F0 A70E            02310 20072  1 1972.                EX    R15,'OI  SCPIPSW+2,0'   SET ILC IN PSW
 002310 9600 71A6      001A6       20080  1          +
 001C84 D200 71A7 7264 001A7 00264 20088  1 1973.                MVC   SCPIPSW+3(1),SCBMB
 001C8A 48F0 600E            00002 20089  1 1974.                LH    R15,SXISNUM             SVC CODE
 001C8E 40F0 71A4            001A4 20090  1 1975.                STH   R15,SCPIPSW
                                   20091    1976.              END   ,
                                   20094    1977.     *
                                   20095    1978.     *  PROCESS SVC
                                   20096    1979.     *
 001C92 4120 A6B6            022B8 20097    1980.              LA    RA,SVCTABLE             SVC TABLE
 001C96 5BF0 2000            00000 20098    1981.              S     R15,@RA                 TABLE INDEX
                                   20099    1982.     *
                                   20100    1983.     *  INVALID SVC NUMBER AND USER HAS NO SVC EXIT
                                   20101    1984.     *
 001C9A 47B0 A114            01D16 20102    1985.              IF    M,BEGIN                 USER SVC
 001C9E 5810 71E8            001E8 20113  1 1986.                L     RS,SCPSXEP              ENTRY POINT OF USER EXIT
 001CA2 1211/4780 A0AE       01CB0 20114  1 1987.                IF    ((RS,Z),OR,('CLI  SCPIPSW+1,128',NL)),BEGIN
 001CA8 9580 71A5      001A5       20134  1          +
 001CAC 4740 A0C8            01CCA 20135  1          +
 001CB0 9201 71A9      001A9       20140  2 1988.                  MVI   SCPPANSY,1              SET PANIC CODE
 001CB4 58F0 A666/0DEF       02268 20141  2 1989.                  ACALL DOPANIC                 ENTER PANIC EXIT
                                   20148  2 1990.     *
                                   20149  2 1991.     *  DELETE PENDING PER EXIT
                                   20150  2 1992.     *
 DROP   @UTRACE-72,R13             20151  2 1993.                  PSET  @XITMASK
 USING  @XITMASK-72,R13
 001CBA D704 D048 D048 00000 00000 20171  2          +
 AUSING (XITMSKD,@XITMSK)          20172  2 1994.                  WITH  (XITMSKD,@XITMSK)
 001CC0 9608 D048      00000       20179  2 1995.                  SET   XITMPER                 MARK PER EXIT
 001CC4 58F0 A62A/0DEF       0222C 20185  2 1996.                  VCALL XITFPR                  DELETE IT
 001CCA                            20189  1 1997.                END
                                   20193  1 1998.     *
                                   20194  1 1999.     *  PROCESS USER SVC EXIT
                                   20195  1 2000.     *
 001CCA A0CC           01CCA 01CAE 20196  1 2001.                ELSE  BEGIN
 001CCA 47F0 A114            01D16 20201  1          +
 001CCE D203 7070 71A4 00070 001A4 20207  2 2002.                  MVC   SCPXPSW(4),SCPIPSW      SET USER TYPE PSW
 001CD4 D243 7074 700C 00074 0000C 20208  2 2003.                  MVC   SCPXPSW+4(68),SCPPSW+4    COPY PSW ADDR AND GPRS
 001CDA 9200 7264      00264       20209  2 2004.                  CLEAR SCBMB
 001CDE 9209 D048      00000       20216  2 2005.                  UTRACE CLASS=UXIT,CODE==Y(@UTCSVC),DATA=(SCPSXEP,SCPXPSW)
 DROP   @XITMASK-72,R13
 USING  @UTRACE-72,R13
 001CE2 D201 D049 A6AC 00001 022AE 20236  2          +
 001CE8 D207 D04C 7008 00004 00008 20241  2          +
 001CEE D203 D054 71E8 0000C 001E8 20242  2          +
 001CF4 D203 D058 7070 00010 00070 20243  2          +
 001CFA 9202 D04B      00003       20244  2          +
 001CFE 58F0 A632/0DEF       02234 20250  2          +
 001D04 4800 71A4            001A4 20252  2 2006.                  LH    R0,SCPIPSW              SVC CODE
 001D08 5000 7014            00014 20253  2 2007.                  ST    R0,SCPGPRS+1*4          PLANT ENTRY CODE
1M1SERV   (M1SE00) (09:42) (22MAR04) IHAPSAE  - PSA Extension (ESAME)                                                       Page  132
0Current Usings:  (PZERO,R0) (XITSAREA,R6) (SCP,R7) (M1SVC,R10) (@XITDATA-72,R12) (@UTRACE-72,R13)
0Loc    Object Code    Addr1 Addr2  Stmt Lv Lineno    Source Statement           (Hibal 5, Asmedit 3.3)  HLASM R4.0  2004/03/22 09.42
+___    ______ ____    _____ _____  ____ __ ______    ______ _________
0001D0C 5010 700C            0000C 20254  2 2008.                  ST    RS,SCPPSW+4              AND ENTRY POINT
 001D10 D203 7048 71EC 00048 001EC 20255  2 2009.                  MVC   SCPGPRS+4*14(4),SCPSXI    AND USER INFO
 001D16                            20256  1 2010.                END   ,
 001D16                            20260    2011.              END   ,
                                   20264    2012.     *
                                   20265    2013.     *  PROCESS ORVYL SVC
                                   20266    2014.     *
 001D16 A118           01D16 01C9C 20267    2015.              ELSE  BEGIN
 001D16 47F0 A176            01D78 20272             +
 001D1A 89F0 0002            00002 20278  1 2016.                SLL   R15,2                   SVC TABLE ENTRY LENGTH
 001D1E 58FF A6BA            022BC 20279  1 2017.                L     R15,SVCTABLE+4(R15)     SVC ROUTINE ADDRESS
 001D22 9640 7262      00262       20280  1 2018.                SET   SCBFSVC
 001D26 0DEF                       20286  1 2019.                ACALL (R15)                   CAll SVC ROUTINE
                                   20292  1 2020.     *
                                   20293  1 2021.     *  ERROR RETURN FROM ORVYL SVC
                                   20294  1 2022.     *
 001D28 94BF 7262      00262       20295  1 2023.                CLEAR SCBFSVC                 NO LONGER IN AN SVC
 001D2C 9110 7265      00265       20302  1 2024.                IF    SCBXP,BEGIN
 001D30 47E0 A14C            01D4E 20312  1          +
 001D34 58F0 A666/0DEF       02268 20317  2 2025.                  ACALL DOPANIC                 USER PANIC'ED
 001D3A 94EF 7265      00265       20324  2 2026.                  CLEAR SCBXP
                                   20331  2 2027.     *
                                   20332  2 2028.     *  DELETE PENDING PER EXIT
                                   20333  2 2029.     *
 DROP   @UTRACE-72,R13             20334  2 2030.                  PSET  @XITMASK
 USING  @XITMASK-72,R13
 001D3E D704 D048 D048 00000 00000 20354  2          +
 AUSING (XITMSKD,@XITMSK)          20355  2 2031.                  WITH  (XITMSKD,@XITMSK)
 001D44 9608 D048      00000       20362  2 2032.                  SET   XITMPER                 MARK PER EXIT
 001D48 58F0 A62A/0DEF       0222C 20368  2 2033.                  VCALL XITFPR                  DELETE IT
 001D4E                            20372  1 2034.                END
                                   20376  1 2035.     *
                                   20377  1 2036.     *  NORMAL RETURN FROM ORVYL SVC
                                   20378  1 2037.     *
 001D4E A150           01D4E 01D32 20379  1 2038.                ELSE  BEGIN
 001D4E 47F0 A172            01D74 20384  1          +
 001D52 9120 7262      00262       20390  2 2039.                  IF    SCBFNPUP,EXIT           SKIP PSW UPDATES (SET 10)
 001D56 4710 A172            01D74 20402  2          +
 001D5A 58F0 704C/12FF       0004C 20408  2 2040.                  LT    R15,SCPGPRS+15*4        RETURN CODE
 001D60 B222 0020                  20412  2 2041.                  IPM   RA                      CONDITION CODE
 001D64 8820 0018            00018 20413  2 2042.                  SRL   RA,24                   ISOLATE
 001D68 5420 A66A            0226C 20414  2 2043.                  N     RA,=X'00000030'
 001D6C 94CF 700A      0000A       20415  2 2044.                  NI    SCPPSW+2,X'CF'          CLEAR PREVIOUS CC
 001D70 4420 A712            02314 20416  2 2045.                  EX    RA,'OI  SCPPSW+2,0'     SET NEW CC
 002314 9600 700A      0000A       20424  2          +
 001D74                            20432  1 2046.                END   ,
 001D74 94DF 7262      00262       20436  1 2047.                CLEAR SCBFNPUP
 001D78                            20443    2048.              END   ,
                                   20447    2049.     *
                                   20448    2050.     *  IF WAIT REQUESTED USER MUST BE SUSPENDED
                                   20449    2051.     *
 001D78 9180 7260      00260       20450    2052.              IF    SCBFWAIT,BEGIN
 001D7C 47E0 A194            01D96 20460             +
 DROP   @XITMASK-72,R13            20465  1 2053.                PSET  @SUSPEND
1M1SERV   (M1SE00) (09:42) (22MAR04) IHAPSAE  - PSA Extension (ESAME)                                                       Page  133
0Current Usings:  (PZERO,R0) (XITSAREA,R6) (SCP,R7) (M1SVC,R10) (@XITDATA-72,R12) (@SUSPEND-72,R13)
0Loc    Object Code    Addr1 Addr2  Stmt Lv Lineno    Source Statement           (Hibal 5, Asmedit 3.3)  HLASM R4.0  2004/03/22 09.42
+___    ______ ____    _____ _____  ____ __ ______    ______ _________
0USING  @SUSPEND-72,R13
 001D80 D708 D048 D048 00000 00000 20485  1          +
 001D86 96A0 D050      00008       20486  1 2054.                SET   @SUSPLNG+@SUSPPLC       Long suspend user
 001D8A 58F0 A66E/0DEF       02270 20495  1 2055.                VCALL SUSPEND                 SCHEDULE SUSPENSION
 001D90 D207 71C0 D048 001C0 00000 20499  1 2056.                MVC   SCPSID,@SUSPCTL         SAVE SUSPEND ID
 001D96                            20500    2057.              END   ,
1M1SERV   (M1SE00) (09:42) (22MAR04) IHAPSAE  - PSA Extension (ESAME)                                                       Page  134
0Current Usings:  (PZERO,R0) (XITSAREA,R6) (SCP,R7) (M1SVC,R10) (@XITDATA-72,R12) (@SUSPEND-72,R13)
0Loc    Object Code    Addr1 Addr2  Stmt Lv Lineno    Source Statement           (Hibal 5, Asmedit 3.3)  HLASM R4.0  2004/03/22 09.42
+___    ______ ____    _____ _____  ____ __ ______    ______ _________
0                                  20505    2059.     *
                                   20506    2060.     *  UPDATE PSW AND REGISTERS
                                   20507    2061.     *
 DROP   @SUSPEND-72,R13            20508    2062.              PSET  @XITGPST
 USING  @XITGPST-72,R13
 001D96 D767 D048 D048 00000 00000 20528             +
 001D9C D207 D048 7008 00000 00008 20529    2063.              MVC   @XITSPSW,SCPPSW         COPY PSW
 001DA2 D23F D050 7010 00008 00010 20530    2064.              MVC   @XITSGPR(16*4),SCPGPRS   AND REGISTERS
 001DA8 D21F D090 7050 00048 00050 20531    2065.              MVC   @XITSFPR(4*8),SCPFPRS
 001DAE 58F0 A64E/0DEF       02250 20532    2066.              VCALL XITPST
                                   20536    2067.     *
                                   20537    2068.     *  RETURN TO DISPATCHER
                                   20538    2069.     *
                                   20539    2070.     * -->    VCALL ASULOCK                 RELEASE THE AS LOCK
 001DB4 9200 D048      00000       20540    2071.              PSET  @EXRDONE
 DROP   @XITGPST-72,R13
 USING  @EXRDONE-72,R13
 001DB8 58F0 A656/0DEF       02258 20561    2072.              VCALL EXRDONE
 001DBE 981F C008            00008 20565    2073.              PEND
 DROP   SCP,R7
 DROP   XITSAREA,R6
 DROP   @XITDATA-72,R12
 DROP   M1SVC,R10
 001DC2 9680 C000/0B0E 00000       20590             +
 DROP   @EXRDONE-72,R13
1M1SERV   (M1SE00) (09:42) (22MAR04) ORVYL'S Mode 1 Wait SVC                                                                Page  135
0Current Usings:  (PZERO,R0)
0Loc    Object Code    Addr1 Addr2  Stmt Lv Lineno    Source Statement           (Hibal 5, Asmedit 3.3)  HLASM R4.0  2004/03/22 09.42
+___    ______ ____    _____ _____  ____ __ ______    ______ _________
0                                  20600    2075.     *******************************************************************
                                   20601    2076.     *                                                                 *
                                   20602    2077.     *    SVCWAIT  - Mode 1 WAIT SVC                                   *
                                   20603    2078.     *                                                                 *
                                   20604    2079.     *                                                                 *
                                   20605    2080.     *     Input - RY Points to SCP                                    *
                                   20606    2081.     *                                                                 *
                                   20607    2082.     *    Output - None                                                *
                                   20608    2083.     *                                                                 *
                                   20609    2084.     *                                                                 *
                                   20610    2085.     *******************************************************************
-
 001DC8                            20612    2087.     M1WAIT   PROC  SCOPE=LOCAL
 001DC8 D4F1E6C1C9E34040           20619             +
 001DD0 0000/0000                  20620             +
 001DD4 900F D004/18AF       00004 20622             +
 USING  M1WAIT,R10
 001DDA 50D0 C000/18CD       00000 20637             +
 001DE0 9680 C000      00000       20639             +
 001DE4 41D0 C048            00048 20640             +
 USING  SCP,R7                     20641    2088.              WITH  (SCP,RY)
                                   20654    2089.     *
                                   20655    2090.     *  CHECK IDT NUMBER
                                   20656    2091.     *
 001DE8 5820 7010            00010 20657    2092.              L     RA,SCPGPRS+0*4          IDT NUMBER
 001DEC 1222/4740 A026       01DFA 20658    2093.              IF    ((RA,NEG),OR,(RA,GT,SCPNIDT)),BEGIN   INVALID
 001DF2 4920 7210            00210 20682             +
 001DF6 47D0 A032            01E06 20683             +
 001DFA 9206 71A9      001A9       20688  1 2094.     M1WSPEC    MVI   SCPPANSY,PANSPEC        SET CODE FOR SPEC
 001DFE 9610 7265      00265       20689  1 2095.                SET   SCBXP                   MARK USER FOR PANIC
 001E02 47F0 A0C2            01E96 20695  1 2096.                EXIT  M1WAIT                  QUIT
 001E06                            20698    2097.              END   ,
 USING  IDT,R2                     20702    2098.              WITH  (IDT,RA)
 001E06 1222/4780 A04A       01E1E 20715    2099.              IF    (RA,NZ),BEGIN
 001E0C 0620                       20729  1 2100.                DECR  RA
 001E0E 4C20 A4DC            022B0 20731  1 2101.                MH    RA,=Y(L'IDT)            FORM IDT ADDRESS
 001E12 5E20 720C            0020C 20732  1 2102.                AL    RA,SCPIDT
 001E16 91C0 2004      00004       20733  1 2103.                IF    (IDTFA+IDTFACL,Z),M1WSPEC   DEVICE NOT ATTACHED
 001E1A 4780 A026            01DFA 20750  1          +
 001E1E                            20756    2104.              END   ,
1M1SERV   (M1SE00) (09:42) (22MAR04) ORVYL'S Mode 1 Wait SVC                                                                Page  136
0Current Usings:  (PZERO,R0) (IDT,R2) (SCP,R7) (M1WAIT,R10)
0Loc    Object Code    Addr1 Addr2  Stmt Lv Lineno    Source Statement           (Hibal 5, Asmedit 3.3)  HLASM R4.0  2004/03/22 09.42
+___    ______ ____    _____ _____  ____ __ ______    ______ _________
0                                  20761    2106.     *
                                   20762    2107.     *  DEVICE NOT POSTED OR NON-SPECIFIC REQUEST - USER WILL WAIT
                                   20763    2108.     *
 001E1E 1222/4780 A058       01E2C 20764    2109.              IF    ((RA,Z),OR,(~IDTFPOST)),BEGIN
 001E24 9140 2005      00005       20786             +
 001E28 4710 A07A            01E4E 20787             +
 001E2C 48E0 71A6            001A6 20792  1 2110.                LH    R14,SCPIPSW+2           GET CURRENT ILC
 001E30 88E0 000D            0000D 20793  1 2111.                SRL   R14,8+6-1               ISOLATE
 001E34 54E0 A4A0            02274 20794  1 2112.                N     R14,=X'00000006'         INSTRUCTION LENGTH
 001E38 58F0 700C            0000C 20795  1 2113.                L     R15,SCPPSW+4            GET CURRENT PSW ADDRESS
 001E3C 1FFE                       20796  1 2114.                SLR   R15,R14                 BACK UP TO SVC INSTRUCTION
 001E3E 50F0 700C            0000C 20797  1 2115.                ST    R15,SCPPSW+4            RESET PSW
 001E42 943F 71A6      001A6       20798  1 2116.                CLEAR SCPIPSW+2.X'C0'
 001E46 9680 7260      00260       20806  1 2117.                SET   SCBFWAIT                MARK USER AS WAITING
 001E4A 9620 7262      00262       20812  1 2118.                SET   SCBFNPUP                DON'T CHANGE PSW CC
 001E4E                            20818    2119.              END   ,
                                   20822    2120.     *
                                   20823    2121.     *  IF DEVICE POSTED SET RETURNS
                                   20824    2122.     *
 001E4E A07E           01E4E 01E2A 20825    2123.              ELSE  BEGIN
 001E4E 47F0 A0C2            01E96 20830             +
 001E52 9680 2005      00005       20836  1 2124.                SET   IDTFWD                  MARK WAIT DONE
 001E56 9120 2004      00004       20842  1 2125.                IF    IDTFR1,'MVC  SCPGPRS+1*4(4),IDTR1'     RETURN R1
 001E5A 47E0 A090            01E64 20852  1          +
 001E5E D203 7014 2008 00014 00008 20858  1          +
 001E64 9108 2004      00004       20863  1 2126.                IF    IDTFR15,'MVC  SCPGPRS+15*4(4),IDTR15'  RETURN R15
 001E68 47E0 A09E            01E72 20873  1          +
 001E6C D203 704C 2010 0004C 00010 20879  1          +
 001E72 9110 2004      00004       20884  1 2127.                IF    IDTFR14,'MVC  SCPGPRS+14*4(4),IDTR14'  RETURN R14
 001E76 47E0 A0AC            01E80 20894  1          +
 001E7A D203 7048 200C 00048 0000C 20900  1          +
 001E80 94DF 2005      00005       20905  1 2128.                CLEAR IDTFEWX                 CLEAR PENDING WAIT EXIT
                                   20912  1 2129.     *
                                   20913  1 2130.     *  IDT TO BE RELEASED - MAKE IT AVAILABLE
                                   20914  1 2131.     *
 001E84 9108 2005      00005       20915  1 2132.                IF    IDTFFIDT,BEGIN          FREE IDT
 001E88 47E0 A0C2            01E96 20925  1          +
 USING  @FREEIDT-72,R13            20930  2 2133.                  PSET  @FREEIDT,CLEAR=NO
 001E8C 5020 D048            00000 20941  2 2134.                  ST    RA,@FRIADDR
 001E90 58F0 A4A4/0DEF       02278 20942  2 2135.                  ACALL FREEIDT                 FREE IT
 001E96                            20949  1 2136.                END   ,
 001E96                            20953    2137.              END   ,
 001E96 981F C008            00008 20957    2138.              PEND
 DROP   IDT,R2
 DROP   SCP,R7
 DROP   M1WAIT,R10
 001E9A 9680 C000/0B0E 00000       20977             +
 DROP   @FREEIDT-72,R13
1M1SERV   (M1SE00) (09:42) (22MAR04) ORVYL'S Mode 1 Panic SVC                                                               Page  137
0Current Usings:  (PZERO,R0)
0Loc    Object Code    Addr1 Addr2  Stmt Lv Lineno    Source Statement           (Hibal 5, Asmedit 3.3)  HLASM R4.0  2004/03/22 09.42
+___    ______ ____    _____ _____  ____ __ ______    ______ _________
0                                  20987    2140.     *******************************************************************
                                   20988    2141.     *                                                                 *
                                   20989    2142.     *    PANIC  - Mode 1 PANIC SVC                                    *
                                   20990    2143.     *                                                                 *
                                   20991    2144.     *                                                                 *
                                   20992    2145.     *     Input - RY Points to SCP                                    *
                                   20993    2146.     *                                                                 *
                                   20994    2147.     *    Output -                                                     *
                                   20995    2148.     *                                                                 *
                                   20996    2149.     *                                                                 *
                                   20997    2150.     *******************************************************************
-
 001EA0                            20999    2152.     PANIC    PROC  ,SCOPE=LOCAL
 001EA0 D7C1D5C9C3404040           21006             +
 001EA8 0000/0000                  21007             +
 001EAC 900F D004/18AF       00004 21009             +
 USING  PANIC,R10
 001EB2 50D0 C000/18CD       00000 21024             +
 001EB8 9680 C000      00000       21026             +
 001EBC 41D0 C048            00048 21027             +
 USING  SCP,R7                     21028    2153.              WITH  (SCP,RY)
 001EC0 5810 7010            00010 21041    2154.              L     RS,SCPGPRS+0*4          GET PANIC CODE
 001EC4 5410 A3D0            0227C 21042    2155.              N     RS,=XL4'7FFF'
 001EC8 1111                       21043    2156.              LNR   RS,RS                   USER CODES ARE COMPLEMENTED
 001ECA 4010 71A8            001A8 21044    2157.              STH   RS,SCPPAN
 001ECE 9610 7265      00265       21045    2158.              SET   SCBXP                   SET PANIC EXIT
 001ED2 981F C008            00008 21051    2159.              PEND
 DROP   SCP,R7
 DROP   PANIC,R10
 001ED6 9680 C000/0B0E 00000       21066             +
1M1SERV   (M1SE00) (09:42) (22MAR04) ORVYL'S Mode 1 Exit SVC                                                                Page  138
0Current Usings:  (PZERO,R0)
0Loc    Object Code    Addr1 Addr2  Stmt Lv Lineno    Source Statement           (Hibal 5, Asmedit 3.3)  HLASM R4.0  2004/03/22 09.42
+___    ______ ____    _____ _____  ____ __ ______    ______ _________
0                                  21073    2161.     *******************************************************************
                                   21074    2162.     *                                                                 *
                                   21075    2163.     *    EXIT   - Mode 1 EXIT SVC                                     *
                                   21076    2164.     *                                                                 *
                                   21077    2165.     *                                                                 *
                                   21078    2166.     *     Input - RY Points to SCP                                    *
                                   21079    2167.     *                                                                 *
                                   21080    2168.     *    Output -                                                     *
                                   21081    2169.     *                                                                 *
                                   21082    2170.     *                                                                 *
                                   21083    2171.     *******************************************************************
-
 001EDC                            21085    2173.     M1EXIT   PROC  ,SCOPE=LOCAL
 001EDC D4F1C5E7C9E34040           21092             +
 001EE4 0000/0000                  21093             +
 001EE8 900F D004/18AF       00004 21095             +
 USING  M1EXIT,R10
 001EEE 50D0 C000/18CD       00000 21110             +
 001EF4 9680 C000      00000       21112             +
 001EF8 41D0 C048            00048 21113             +
 USING  SCP,R7                     21114    2174.              WITH  (SCP,RY)
 001EFC 9180 7262      00262       21127    2175.              IF    ~SCBFCLP,BEGIN          USER PROGRAM EXIT
 001F00 4710 A034            01F1C 21137             +
 001F04                            21142  1 2176.                CLEAR (SCPIPSW,2)
 001F04 D701 71A4 71A4 001A4 001A4 21148  1          +
 USING  @SETCLP-72,R13             21149  1 2177.                PSET  @SETCLP,CLEAR=NO
 001F0A 4110 0014            00014 21160  1 2178.                LA    RS,20                   ENTRY CODE
 001F0E 5010 D048            00000 21161  1 2179.                ST    RS,@SCCODE              SET
 001F12 58F0 A37C/0DEF       02264 21162  1 2180.                ACALL SETCLP                  GO TO CLP
 001F18 9620 7262      00262       21169  1 2181.                SET   SCBFNPUP                DON'T SET CC
 001F1C                            21175    2182.              END
                                   21179    2183.     *
                                   21180    2184.     *  CLP EXIT MEANS LOGOFF (SNEAKY)
                                   21181    2185.     *
 001F1C A038           01F1C 01F02 21182    2186.              ELSE  BEGIN
 001F1C 47F0 A03E            01F26 21187             +
 001F20 58F0 A398/0DEF       02280 21193  1 2187.                VCALL XALGOFF                 SAY GOODNIGHT GRACIE
 001F26                            21197    2188.              END
 001F26 981F C008            00008 21201    2189.              PEND
 DROP   SCP,R7
 DROP   M1EXIT,R10
 001F2A 9680 C000/0B0E 00000       21216             +
 DROP   @SETCLP-72,R13
1M1SERV   (M1SE00) (09:42) (22MAR04) ORVYL'S Mode 1 Command SVC                                                             Page  139
0Current Usings:  (PZERO,R0)
0Loc    Object Code    Addr1 Addr2  Stmt Lv Lineno    Source Statement           (Hibal 5, Asmedit 3.3)  HLASM R4.0  2004/03/22 09.42
+___    ______ ____    _____ _____  ____ __ ______    ______ _________
0                                  21226    2191.     *******************************************************************
                                   21227    2192.     *                                                                 *
                                   21228    2193.     *    COMMAND - Mode 1 COMMAND SVC                                 *
                                   21229    2194.     *                                                                 *
                                   21230    2195.     *                                                                 *
                                   21231    2196.     *     Input - RY Points to SCP                                    *
                                   21232    2197.     *                                                                 *
                                   21233    2198.     *    Output -                                                     *
                                   21234    2199.     *                                                                 *
                                   21235    2200.     *                                                                 *
                                   21236    2201.     *******************************************************************
-
 001F30                            21238    2203.     COMMAND  PROC  SCOPE=LOCAL
 001F30 C3D6D4D4C1D5C440           21245             +
 001F38 0000/0000                  21246             +
 001F3C 900F D004/18AF       00004 21248             +
 USING  COMMAND,R10
 001F42 50D0 C000/18CD       00000 21263             +
 001F48 9680 C000      00000       21265             +
 001F4C 41D0 C048            00048 21266             +
 USING  SCP,R7                     21267    2204.              WITH  (SCP,RY)
 001F50 5820 7014            00014 21280    2205.              L     RA,SCPGPRS+1*4          BUFFER POINTER
 001F54 1022                       21281    2206.              LPR   RA,RA                    FORCE POSITIVE
 001F56 9180 700C      0000C       21282    2207.              TM    SCPPSW+4,X'80'      31 bit mode?
 001F5A 4770 A026            01F62 21283    2208.              IF    Z,'N RA,=X"00FFFFFF"'
 001F5E 5420 A348            02284 21295             +
 001F62 5830 704C            0004C 21300    2209.              L     RB,SCPGPRS+15*4         LENGTH
 001F66 1033                       21301    2210.              LPR   RB,RB                    ALSO POSITIVE
 001F68 4780 A038            01F74 21302    2211.              IF    (ZERO,OR,(RB,GT,=A(CLWIBUFL))),BEGIN
 001F6C 5930 A34C            02288 21322             +
 001F70 47D0 A040            01F7C 21323             +
 001F74 9206 71A9      001A9       21328  1 2212.     COMMSPEC   MVI   SCPPANSY,PANSPEC        SPEC CODE
 001F78 9610 7265      00265       21329  1 2213.                SET   SCBXP
 001F7C                            21335    2214.              END
 001F7C A044           01F7C 01F72 21339    2215.              ELSE  BEGIN
 001F7C 47F0 A082            01FBE 21344             +
                                   21350  1 2216.     *
                                   21351  1 2217.     *  CHECK MEMORY LEGAL
                                   21352  1 2218.     *
 USING  @PAGE-72,R13               21353  1 2219.                PSET  @PAGE
 001F80 D708 D048 D048 00000 00000 21370  1          +
 001F86 5020 D048            00000 21371  1 2220.                ST    RA,@PAGLOC              LOCATION
 001F8A 5030 D04C            00004 21372  1 2221.                ST    RB,@PAGLEN               LENGTH
 001F8E D200 D050 7009 00008 00009 21373  1 2222.                MVC   @PAGKEY,SCPPSW+1        PSW KEY
 001F94 94F0 D050      00008       21374  1 2223.                NI    @PAGKEY,X'F0'            KEY ONLY
 001F98 58F0 A350/0DEF       0228C 21375  1 2224.                VCALL PAGTPROT                CHECK IT OUT
 001F9E 5900 A354            02290 21379  1 2225.                IF    (RVR,GE,2),COMMSPEC     NO GOOD
 001FA2 47A0 A038            01F74 21393  1          +
 001FA6                            21399  1 2226.                CLEAR (SCPIPSW,2)
 001FA6 D701 71A4 71A4 001A4 001A4 21405  1          +
 DROP   @PAGE-72,R13               21406  1 2227.                PSET  @SETCLP,CLEAR=NO
 USING  @SETCLP-72,R13
1M1SERV   (M1SE00) (09:42) (22MAR04) ORVYL'S Mode 1 Command SVC                                                             Page  140
0Current Usings:  (PZERO,R0) (SCP,R7) (COMMAND,R10) (@SETCLP-72,R13)
0Loc    Object Code    Addr1 Addr2  Stmt Lv Lineno    Source Statement           (Hibal 5, Asmedit 3.3)  HLASM R4.0  2004/03/22 09.42
+___    ______ ____    _____ _____  ____ __ ______    ______ _________
0001FAC 4110 0018            00018 21420  1 2228.                LA    RS,24                   ENTRY CODE
 001FB0 5010 D048            00000 21421  1 2229.                ST    RS,@SCCODE              SET
 001FB4 58F0 A328/0DEF       02264 21422  1 2230.                ACALL SETCLP                  GO TO CLP
 001FBA 9620 7262      00262       21429  1 2231.                SET   SCBFNPUP                DON'T RESET CC
 001FBE                            21435    2232.              END
 001FBE 981F C008            00008 21439    2233.              PEND
 DROP   SCP,R7
 DROP   COMMAND,R10
 001FC2 9680 C000/0B0E 00000       21454             +
 DROP   @SETCLP-72,R13
1M1SERV   (M1SE00) (09:42) (22MAR04) ORVYL'S Mode 1 Pause SVC                                                               Page  141
0Current Usings:  (PZERO,R0)
0Loc    Object Code    Addr1 Addr2  Stmt Lv Lineno    Source Statement           (Hibal 5, Asmedit 3.3)  HLASM R4.0  2004/03/22 09.42
+___    ______ ____    _____ _____  ____ __ ______    ______ _________
0                                  21464    2235.     *******************************************************************
                                   21465    2236.     *                                                                 *
                                   21466    2237.     *    PAUSE - Mode 1 PAUSE SVC                                     *
                                   21467    2238.     *                                                                 *
                                   21468    2239.     *                                                                 *
                                   21469    2240.     *     Input - RY Points to SCP                                    *
                                   21470    2241.     *                                                                 *
                                   21471    2242.     *    Output -                                                     *
                                   21472    2243.     *                                                                 *
                                   21473    2244.     *                                                                 *
                                   21474    2245.     *******************************************************************
-
 001FC8                            21476    2247.     PAUSE    PROC  ,SCOPE=LOCAL
 001FC8 D7C1E4E2C5404040           21483             +
 001FD0 0000/0000                  21484             +
 001FD4 900F D004/18AF       00004 21486             +
 USING  PAUSE,R10
 001FDA 50D0 C000/18CD       00000 21501             +
 001FE0 9680 C000      00000       21503             +
 001FE4 41D0 C048            00048 21504             +
 USING  SCP,R7                     21505    2248.              WITH  (SCP,RY)
 001FE8                            21518    2249.              CLEAR (SCPIPSW,2)
 001FE8 D701 71A4 71A4 001A4 001A4 21524             +
 USING  @SETCLP-72,R13             21525    2250.              PSET  @SETCLP,CLEAR=NO
 001FEE 4110 000C            0000C 21536    2251.              LA    RS,12                   ENTRY CODE
 001FF2 5010 D048            00000 21537    2252.              ST    RS,@SCCODE              SET
 001FF6 58F0 A290/0DEF       02264 21538    2253.              ACALL SETCLP                  GO TO CLP
 001FFC 9620 7262      00262       21545    2254.              SET   SCBFNPUP                DON'T RESET CC
 002000 981F C008            00008 21551    2255.              PEND
 DROP   SCP,R7
 DROP   PAUSE,R10
 002004 9680 C000/0B0E 00000       21566             +
 DROP   @SETCLP-72,R13
1M1SERV   (M1SE00) (09:42) (22MAR04) ORVYL'S Mode 1 QPause SVC                                                              Page  142
0Current Usings:  (PZERO,R0)
0Loc    Object Code    Addr1 Addr2  Stmt Lv Lineno    Source Statement           (Hibal 5, Asmedit 3.3)  HLASM R4.0  2004/03/22 09.42
+___    ______ ____    _____ _____  ____ __ ______    ______ _________
0                                  21576    2257.     *******************************************************************
                                   21577    2258.     *                                                                 *
                                   21578    2259.     *    PAUSE - Mode 1 QPAUSE SVC                                    *
                                   21579    2260.     *                                                                 *
                                   21580    2261.     *                                                                 *
                                   21581    2262.     *     Input - RY Points to SCP                                    *
                                   21582    2263.     *                                                                 *
                                   21583    2264.     *    Output -                                                     *
                                   21584    2265.     *                                                                 *
                                   21585    2266.     *                                                                 *
                                   21586    2267.     *******************************************************************
-
 00200A                            21588    2269.     QPAUSE   PROC  ,SCOPE=LOCAL
 00200A D8D7C1E4E2C54040           21595             +
 002012 0000/0000                  21596             +
 002016 900F D004/18AF       00004 21598             +
 USING  QPAUSE,R10
 00201C 50D0 C000/18CD       00000 21613             +
 002022 9680 C000      00000       21615             +
 002026 41D0 C048            00048 21616             +
 USING  SCP,R7                     21617    2270.              WITH  (SCP,RY)
 00202A                            21630    2271.              CLEAR (SCPIPSW,2)
 00202A D701 71A4 71A4 001A4 001A4 21636             +
 USING  @SETCLP-72,R13             21637    2272.              PSET  @SETCLP,CLEAR=NO
 002030 4110 0020            00020 21648    2273.              LA    RS,32               QPAUSE entry code
 002034 5010 D048            00000 21649    2274.              ST    RS,@SCCODE              SET
 002038 58F0 A24E/0DEF       02264 21650    2275.              ACALL SETCLP                  GO TO CLP
 00203E 9620 7262      00262       21657    2276.              SET   SCBFNPUP                DON'T RESET CC
 002042 981F C008            00008 21663    2277.              PEND
 DROP   SCP,R7
 DROP   QPAUSE,R10
 002046 9680 C000/0B0E 00000       21678             +
 DROP   @SETCLP-72,R13
1M1SERV   (M1SE00) (09:42) (22MAR04) ORVYL'S Mode 1 Session Break processing                                                Page  143
0Current Usings:  (PZERO,R0)
0Loc    Object Code    Addr1 Addr2  Stmt Lv Lineno    Source Statement           (Hibal 5, Asmedit 3.3)  HLASM R4.0  2004/03/22 09.42
+___    ______ ____    _____ _____  ____ __ ______    ______ _________
0                                  21688    2279.     *******************************************************************
                                   21689    2280.     *                                                                 *
                                   21690    2281.     *    @SETCLP - Schedule CLP routine parameters                    *
                                   21691    2282.     *                                                                 *
                                   21692    2283.     *******************************************************************
0000000                00000 00004 21694    2285.     @SETCLP  RECORD BEGIN
 000000                            21702  1 2286.     @SCCODE    DS    A                       Entry Code
 000004                00004 00004 21703    2287.              END   ,
1M1SERV   (M1SE00) (09:42) (22MAR04) ORVYL'S Mode 1 Session Break processing                                                Page  144
0Current Usings:  (PZERO,R0)
0Loc    Object Code    Addr1 Addr2  Stmt Lv Lineno    Source Statement           (Hibal 5, Asmedit 3.3)  HLASM R4.0  2004/03/22 09.42
+___    ______ ____    _____ _____  ____ __ ______    ______ _________
0                                  21713    2289.     *******************************************************************
                                   21714    2290.     *                                                                 *
                                   21715    2291.     *    SETCLP - Mode 1 SVC Session Break Service                    *
                                   21716    2292.     *                                                                 *
                                   21717    2293.     *                                                                 *
                                   21718    2294.     *     Input - @SETCLP                                             *
                                   21719    2295.     *             RY Points to SCP                                    *
                                   21720    2296.     *                                                                 *
                                   21721    2297.     *    Output -                                                     *
                                   21722    2298.     *                                                                 *
                                   21723    2299.     *                                                                 *
                                   21724    2300.     *                                                                 *
                                   21725    2301.     *                                                                 *
                                   21726    2302.     *                                                                 *
                                   21727    2303.     *******************************************************************
-
 00204C                            21729    2305.     SETCLP   PROC  @SETCLP,SCOPE=LOCAL
 00204C E2C5E3C3D3D74040           21736             +
 002054 0008/0000                  21737             +
 002058 900F D004/18AF       00004 21739             +
 USING  SETCLP,R10
 00205E 50D0 C000/18CD       00000 21754             +
 002064 9680 C000      00000       21756             +
 USING  @SETCLP-72,R12
 002068 41D0 C050            00050 21770             +
 USING  SCP,R7                     21771    2306.              WITH  (SCP,RY)
 00206C 4130 70B8            000B8 21784    2307.              LA    RB,SCPSBPSW         STANDARD SB PSW,GPRS
                                   21785    2308.
                                   21786    2309.                Initial CLP error processing.
                                   21787    2310.
 002070 9180 7262      00262       21788    2311.              IF    SCBFCLP,BEGIN       CLP IN CONTROL...
 002074 47E0 A070            020C8 21798             +
 002078 5820 0200            00200 21803  1 2312.                L     RA,MATPTR
 00207C 4110 0001            00001 21804  1 2313.                WITH  (MAT,RA),'INCR RS,MATNCLPE'  Count the CLP error
 USING  MAT,R2
 002080 5E10 20F0            000F0 21823  2          +
 002084 5010 20F0            000F0 21824  1          +
 DROP   MAT,R2
 002088 9180 7200      00200       21833  1 2314.                IF    SCPFERR,'ABORT CLPERR'   RECURSIVE CLP ERROR
 00208C 47E0 A068            020C0 21843  1          +
 002090 AC04 021B      0021B       21852  2          +
 002094 9680 021A      0021A       21858  2          +
 002098 50F0 021C            0021C 21859  2          +
 00209C 58F0 0210            00210 21860  2          +
 0020A0 89F0 0010            00010 21861  2          +
 0020A4 88F0 0010            00010 21862  2          +
 0020A8 41F0 F000            00000 21863  2          +
 0020AC AEFF 0006            00006 21864  2          +
 0020B0 C3D3D7C5D9D94040           21865  1          +
 0020C0 9680 7200      00200       21870  1 2315.                SET   SCPFERR             SET ERROR IN CLP
 0020C4 4130 7100            00100 21876  1 2316.                LA    RB,SCPCLPSW         USE SPECIAL PSW,GPR SAVE
 0020C8                            21877    2317.              END
1M1SERV   (M1SE00) (09:42) (22MAR04) ORVYL'S Mode 1 Session Break processing                                                Page  145
0Current Usings:  (PZERO,R0) (SCP,R7) (SETCLP,R10) (@SETCLP-72,R12)
0Loc    Object Code    Addr1 Addr2  Stmt Lv Lineno    Source Statement           (Hibal 5, Asmedit 3.3)  HLASM R4.0  2004/03/22 09.42
+___    ______ ____    _____ _____  ____ __ ______    ______ _________
0                                  21881    2318.
 0020C8 9207 D048      00000       21882    2319.              UTRACE CLASS=RUNCLP,CODE=@SCCODE+2
 USING  @UTRACE-72,R13
 0020CC D201 D049 C04C 00001 00004 21899             +
 0020D2 D207 D04C 7008 00004 00008 21904             +
 0020D8 9200 D04B      00003       21905             +
 0020DC 58F0 A1DC/0DEF       02234 21911             +
1M1SERV   (M1SE00) (09:42) (22MAR04) ORVYL'S Mode 1 Session Break processing                                                Page  146
0Current Usings:  (PZERO,R0) (SCP,R7) (SETCLP,R10) (@SETCLP-72,R12) (@UTRACE-72,R13)
0Loc    Object Code    Addr1 Addr2  Stmt Lv Lineno    Source Statement           (Hibal 5, Asmedit 3.3)  HLASM R4.0  2004/03/22 09.42
+___    ______ ____    _____ _____  ____ __ ______    ______ _________
0                                  21914    2321.     *
                                   21915    2322.     *  SAVE CURRENT ENVIRONMENT
                                   21916    2323.     *
 0020E2 D203 3000 71A4 00000 001A4 21917    2324.              MVC   @RB(4),SCPIPSW          SET OLD PSW FIELDS
 0020E8 D203 3004 700C 00004 0000C 21918    2325.              MVC   @RB+4(4),SCPPSW+4        PSW ADDRESS
 0020EE D23F 3008 7010 00008 00010 21919    2326.              MVC   @RB+8(16*4),SCPGPRS       AND GPRS
                                   21920    2327.     *
                                   21921    2328.     *  SET UP CLP ENVIRONMENT
                                   21922    2329.     *
 0020F4 9200 7264      00264       21923    2330.              CLEAR SCBMB
 0020F8 9680 7262      00262       21930    2331.              SET   SCBFCLP                 CLP IN CONTROL
 0020FC                            21936    2332.              CLEAR (SCPGPRS,64)
 0020FC D73F 7010 7010 00010 00010 21942             +
 002102 D203 7014 C048 00014 00000 21943    2333.              MVC   SCPGPRS+1*4,@SCCODE     ENTRY CODE
 002108 5070 7048            00048 21944    2334.              ST    RY,SCPGPRS+14*4         MOVE IN SCP ADDR
 00210C D203 7008 A23C 00008 02294 21945    2335.              MVC   SCPPSW(4),=X'070C0000'  DAT ON, ENABLED, KEY ZERO
 002112 D203 700C A1D8 0000C 02230 21946    2336.              MVC   SCPPSW+4(4),=V(VCLP)
                                   21947    2337.     *
                                   21948    2338.     *  DELETE PENDING PER EXIT
                                   21949    2339.     *
 DROP   @UTRACE-72,R13             21950    2340.              PSET  @XITMASK
 USING  @XITMASK-72,R13
 002118 D704 D048 D048 00000 00000 21970             +
 AUSING (XITMSKD,@XITMSK)          21971    2341.              WITH  (XITMSKD,@XITMSK)
 00211E 9608 D048      00000       21978    2342.              SET   XITMPER                 MARK PER EXIT
 002122 58F0 A1D4/0DEF       0222C 21984    2343.              VCALL XITFPR                  DELETE IT
 002128 981F C008            00008 21988    2344.              PEND
 DROP   SCP,R7
 DROP   @SETCLP-72,R12
 DROP   SETCLP,R10
 00212C 9680 C000/0B0E 00000       22008             +
 DROP   @XITMASK-72,R13
1M1SERV   (M1SE00) (09:42) (22MAR04) ORVYL'S Mode 1 Deferred Exit processing                                                Page  147
0Current Usings:  (PZERO,R0)
0Loc    Object Code    Addr1 Addr2  Stmt Lv Lineno    Source Statement           (Hibal 5, Asmedit 3.3)  HLASM R4.0  2004/03/22 09.42
+___    ______ ____    _____ _____  ____ __ ______    ______ _________
0                                  22018    2346.     *******************************************************************
                                   22019    2347.     *                                                                 *
                                   22020    2348.     *    DOXWORK - SVC Work area                                      *
                                   22021    2349.     *                                                                 *
                                   22022    2350.     *******************************************************************
0000000                00000 00001 22024    2352.     DOXWORK  RECORD BEGIN
 000000                            22032  1 2353.     DOXFL      DS    X                       EXIT WORK AREA
 000001                00001 00001 22033    2354.              END   ,
1M1SERV   (M1SE00) (09:42) (22MAR04) ORVYL'S Mode 1 Deferred Exit processing                                                Page  148
0Current Usings:  (PZERO,R0)
0Loc    Object Code    Addr1 Addr2  Stmt Lv Lineno    Source Statement           (Hibal 5, Asmedit 3.3)  HLASM R4.0  2004/03/22 09.42
+___    ______ ____    _____ _____  ____ __ ______    ______ _________
0                                  22043    2356.     *******************************************************************
                                   22044    2357.     *                                                                 *
                                   22045    2358.     *    DOEXITS - Schedule deferred exits                            *
                                   22046    2359.     *                                                                 *
                                   22047    2360.     *                                                                 *
                                   22048    2361.     *     Input - RY Points to SCP                                    *
                                   22049    2362.     *                                                                 *
                                   22050    2363.     *    Output -                                                     *
                                   22051    2364.     *                                                                 *
                                   22052    2365.     *                                                                 *
                                   22053    2366.     *******************************************************************
-
 002132                            22055    2368.     DOEXITS  PROC  ,DOXWORK,SCOPE=LOCAL
 002132 C4D6C5E7C9E3E240           22062             +
 00213A 0000/0008                  22063             +
 00213E 900F D004/18AF       00004 22065             +
 USING  DOEXITS,R10
 002144 50D0 C000/18CD       00000 22080             +
 00214A 9680 C000      00000       22082             +
 USING  DOXWORK-72,R12
 00214E 41D0 C050            00050 22096             +
 USING  SCP,R7                     22097    2369.              WITH  (SCP,RY)
                                   22110    2370.     *
                                   22111    2371.     *  CHECK FOR PENDING EXITS
                                   22112    2372.     *
 002152 D200 C048 7264 00000 00264 22113    2373.              MVC   DOXFL,SCBMB             CURRENT MASK BYTE
 002158 9180 7262      00262       22114    2374.              IF    ~SCBFCLP,'SET  DOXFL.SCBXCPT'   IF USER ADD CLP TIMER
 00215C 4710 A026            02164 22124             +
 002160 9608 C048      00000       22135             +
 002164                            22140    2375.              IF    ('NC  DOXFL,SCBXFL',NZ),BEGIN   EXITS TO PROCESS
 002164 D400 C048 7265 00000 00265 22147             +
 00216A 4780 A0D4            02212 22148             +
                                   22153  1 2376.     *
                                   22154  1 2377.     *  USER TIMER EXIT
                                   22155  1 2378.     *
 00216E 9180 C048      00000       22156  1 2379.                IF    DOXFL.SCBXT,BEGIN       USER TIMER
 002172 47E0 A042            02180 22166  1          +
 002176 58F0 A15A/0DEF       02298 22171  2 2380.                  ACALL DOUTMR
 00217C 47F0 A0D4            02212 22178  2 2381.                  EXIT  DOEXITS
 002180                            22181  1 2382.                END   ,
                                   22185  1 2383.     *
                                   22186  1 2384.     *  CLP TIMER EXIT
                                   22187  1 2385.     *
 002180 9108 C048      00000       22188  1 2386.                IF    DOXFL.SCBXCPT,BEGIN     CLP TIMER FIRED
 002184 47E0 A054            02192 22198  1          +
 002188 58F0 A15E/0DEF       0229C 22203  2 2387.                  ACALL DOCTMR
 00218E 47F0 A0D4            02212 22210  2 2388.                  EXIT  DOEXITS
 002192                            22213  1 2389.                END   ,
1M1SERV   (M1SE00) (09:42) (22MAR04) ORVYL'S Mode 1 Deferred Exit processing                                                Page  149
0Current Usings:  (PZERO,R0) (SCP,R7) (DOEXITS,R10) (DOXWORK-72,R12)
0Loc    Object Code    Addr1 Addr2  Stmt Lv Lineno    Source Statement           (Hibal 5, Asmedit 3.3)  HLASM R4.0  2004/03/22 09.42
+___    ______ ____    _____ _____  ____ __ ______    ______ _________
0                                  22218  1 2391.     *
                                   22219  1 2392.     *  ATTENTION EXIT
                                   22220  1 2393.     *
 002192 9140 C048      00000       22221  1 2394.                IF    DOXFL.SCBXA,BEGIN       ATTENTION
 002196 47E0 A096            021D4 22231  1          +
 00219A 1B33                       22236  2 2395.                  CLEAR RB
 00219C 5820 720C            0020C 22240  2 2396.                  L     RA,SCPIDT               POINTER TO FIRST IDT
 0021A0 4930 7210            00210 22241  2 2397.                  WHILE (RB,LT,SCPNIDT),BEGIN   CHECK ALL IDTS
 0021A4 47B0 A092            021D0 22255  2          +
 USING  IDT,R2                     22260  3 2398.                    WITH  (IDT,RA)
 0021A8 9110 2005      00005       22273  3 2399.                    IF    IDTFEAX,BEGIN           ATTN EXIT SET
 0021AC 47E0 A086            021C4 22283  3          +
 USING  @DOATTN-72,R13             22288  4 2400.                      PSET  @DOATTN
 0021B0 D704 D048 D048 00000 00000 22305  4          +
 0021B6 5020 D048            00000 22306  4 2401.                      ST    RA,@DOATIDT             TO PARM LIST
 0021BA 58F0 A162/0DEF       022A0 22307  4 2402.                      ACALL DOATTN                  DO IT
 0021C0 47F0 A0D4            02212 22314  4 2403.                      EXIT  DOEXITS
 0021C4                            22317  3 2404.                    END   ,
 0021C4 4120 2038            00038 22321  3 2405.                    LA    RA,IDT+L'IDT            NEXT IDT
 0021C8 5E30 A166            022A4 22322  3 2406.                    INCR  RB
 0021CC 47F0 A062            021A0 22325  2 2407.                  END   ,
 DROP   IDT,R2
 0021D0 94BF 7265      00265       22335  2 2408.                  CLEAR SCBXA                   CLEAR ATTENTION EXIT
 0021D4                            22342  1 2409.                END   ,
1M1SERV   (M1SE00) (09:42) (22MAR04) ORVYL'S Mode 1 Deferred Exit processing                                                Page  150
0Current Usings:  (PZERO,R0) (SCP,R7) (DOEXITS,R10) (DOXWORK-72,R12) (@DOATTN-72,R13)
0Loc    Object Code    Addr1 Addr2  Stmt Lv Lineno    Source Statement           (Hibal 5, Asmedit 3.3)  HLASM R4.0  2004/03/22 09.42
+___    ______ ____    _____ _____  ____ __ ______    ______ _________
0                                  22347  1 2411.     *
                                   22348  1 2412.     *  WAIT EXIT
                                   22349  1 2413.     *
 0021D4 9120 C048      00000       22350  1 2414.                IF    DOXFL.SCBXW,BEGIN       WAIT EXIT
 0021D8 47E0 A0D4            02212 22360  1          +
 0021DC 1B33                       22365  2 2415.                  CLEAR RB
 0021DE 5820 720C            0020C 22369  2 2416.                  L     RA,SCPIDT               POINTER TO FIRST IDT
 0021E2 4930 7210            00210 22370  2 2417.                  WHILE (RB,LT,SCPNIDT),BEGIN   CHECK ALL IDTS
 0021E6 47B0 A0D0            0220E 22384  2          +
 USING  IDT,R2                     22389  3 2418.                    WITH  (IDT,RA)
 0021EA 9120 2005      00005       22402  3 2419.                    IF    IDTFEWX,BEGIN           WAIT EXIT SET
 0021EE 47E0 A0C4            02202 22412  3          +
 DROP   @DOATTN-72,R13             22417  4 2420.                      PSET  @DOWAIT
 USING  @DOWAIT-72,R13
 0021F2 D703 D048 D048 00000 00000 22437  4          +
 0021F8 5020 D048            00000 22438  4 2421.                      ST    RA,@DOWTIDT             IDT TO PARM LIST
 0021FC 58F0 A16A/0DEF       022A8 22439  4 2422.                      ACALL DOWAIT                  DO IT
 002202                            22446  3 2423.                    END   ,
 002202 4120 2038            00038 22450  3 2424.                    LA    RA,IDT+L'IDT            NEXT IDT
 002206 5E30 A166            022A4 22451  3 2425.                    INCR  RB
 00220A 47F0 A0A4            021E2 22454  2 2426.                  END   ,
 DROP   IDT,R2
 00220E 94DF 7265      00265       22464  2 2427.                  CLEAR SCBXW                   CLEAR WAIT EXIT
 002212                            22471  1 2428.                END   ,
 002212                            22475    2429.              END   ,
 002212 981F C008            00008 22479    2430.              PEND
 DROP   SCP,R7
 DROP   DOXWORK-72,R12
 DROP   DOEXITS,R10
 002216 9680 C000/0B0E 00000       22499             +
 DROP   @DOWAIT-72,R13
1M1SERV   (M1SE00) (09:42) (22MAR04) ORVYL'S Mode 1 Deferred Exit processing                                                Page  151
0Current Usings:  (PZERO,R0)
0Loc    Object Code    Addr1 Addr2  Stmt Lv Lineno    Source Statement           (Hibal 5, Asmedit 3.3)  HLASM R4.0  2004/03/22 09.42
+___    ______ ____    _____ _____  ____ __ ______    ______ _________
0002220                            22509    2432.              LTORG
 002220 00000000                   22511                             =V(ASLOCK)
 002224 00000000                   22512                             =V(XITGST)
 002228 00000000                   22513                             =V(XITRMPLC)
 00222C 00000000                   22514                             =V(XITFPR)
 002230 00000000                   22515                             =V(VCLP)
 002234 000006D0                   22516                             =A(UTRACE)
 002238 00000013                   22517                             =A(19)
 00223C 00000019                   22518                             =A(25)
 002240 00000010                   22519                             =A(16)
 002244 00000011                   22520                             =A(17)
 002248 00000020                   22521                             =A(32)
 00224C 00000025                   22522                             =A(37)
 002250 00000000                   22523                             =V(XITPST)
 002254 00000000                   22524                             =V(ASULOCK)
 002258 00000000                   22525                             =V(EXRDONE)
 00225C 0000007F                   22526                             =A(255-128)
 002260 000000BF                   22527                             =A(255-64)
 002264 00002058                   22528                             =A(SETCLP)
 002268 00001B0E                   22529                             =A(DOPANIC)
 00226C 00000030                   22530                             =X'00000030'
 002270 00000000                   22531                             =V(SUSPEND)
 002274 00000006                   22532                             =X'00000006'
 002278 00002CD0                   22533                             =A(FREEIDT)
 00227C 00007FFF                   22534                             =XL4'7FFF'
 002280 00000000                   22535                             =V(XALGOFF)
 002284 00FFFFFF                   22536                             =X'00FFFFFF'
 002288 000000EB                   22537                             =A(CLWIBUFL)
 00228C 00000000                   22538                             =V(PAGTPROT)
 002290 00000002                   22539                             =A(2)
 002294 070C0000                   22540                             =X'070C0000'
 002298 000010F4                   22541                             =A(DOUTMR)
 00229C 00001170                   22542                             =A(DOCTMR)
 0022A0 00001670                   22543                             =A(DOATTN)
 0022A4 00000001                   22544                             =A(1)
 0022A8 00001492                   22545                             =A(DOWAIT)
 0022AC 0003                       22546                             =Y(@UTCPAN)
 0022AE 0004                       22547                             =Y(@UTCSVC)
 0022B0 0038           02318 07A90 22548                             =Y(L'IDT)
1M1SERV   (M1SE00) (09:42) (22MAR04) ORVYL'S Mode 1 I/O SVCs                                                                Page  152
0Current Usings:  (PZERO,R0)
0Loc    Object Code    Addr1 Addr2  Stmt Lv Lineno    Source Statement           (Hibal 5, Asmedit 3.3)  HLASM R4.0  2004/03/22 09.42
+___    ______ ____    _____ _____  ____ __ ______    ______ _________
0                                  22553    2434.     *******************************************************************
                                   22554    2435.     *                                                                 *
                                   22555    2436.     *    M1ATTACH - I/O device ATTACH service                         *
                                   22556    2437.     *                                                                 *
                                   22557    2438.     *                                                                 *
                                   22558    2439.     *     Input - RY Points to SCP                                    *
                                   22559    2440.     *                                                                 *
                                   22560    2441.     *    Output -                                                     *
                                   22561    2442.     *                                                                 *
                                   22562    2443.     *                                                                 *
                                   22563    2444.     *******************************************************************
-
 002318                            22565    2446.     M1ATTACH PROC  ,SCOPE=LOCAL
 002318 D4F1C1E3E3C1C3C8           22572             +
 002320 0000/0000                  22573             +
 002324 900F D004/18AF       00004 22575             +
 USING  M1ATTACH,R10
 00232A 50D0 C000/18CD       00000 22590             +
 002330 9680 C000      00000       22592             +
 002334 41D0 C048            00048 22593             +
 USING  SCP,R7                     22594    2447.              WITH  (SCP,RY)
 002338 58F0 7010            00010 22607    2448.              L     R15,SCPGPRS+0*4         GET REGISTER ZERO
 00233C 10FF                       22608    2449.              LPR   R15,R15                 DEVICE ID
                                   22609    2450.     *
                                   22610    2451.     *  Process terminal ATTACH requests
                                   22611    2452.     *
 00233E 59F0 AEF4            03218 22612    2453.              IF    (R15,EQ,=A(L'IDTCTRM)),BEGIN
 002342 4770 A06A            0238E 22623             +
 002346 5860 720C            0020C 22628  1 2454.                L     RX,SCPIDT               FIRST IDT IS FOR TERMINAL
 USING  IDT,R6                     22629  1 2455.                WITH  (IDT,RX)
 00234A 58E0 7014/12EE       00014 22642  1 2456.                IF    ('LT  R14,SCPGPRS+1*4',NZ),BEGIN
 002350 4780 A03E            02362 22653  1          +
 002354 D200 71A9 0006 001A9 00006 22658  2 2457.                  MVC   SCPPANSY,6              SPEC ERROR
 00235A 9610 7265      00265       22659  2 2458.                  SET   SCBXP                   SET PANIC EXIT
 00235E 47F0 A178            0249C 22665  2 2459.                  EXIT  M1ATTACH                QUIT
 002362                            22668  1 2460.                END   ,
 002362 9180 7262      00262       22672  1 2461.                IF    SCBFCLP,'SET IDTFACL'   ATTACHED BY CLP
 002366 47E0 A04A            0236E 22682  1          +
 00236A 9640 6004      00004       22693  1          +
 00236E A04E           0236E 02368 22698  1 2462.                ELSE  'SET IDTFA'             ATTACHED BY USER
 00236E 47F0 A052            02376 22703  1          +
 002372 9680 6004      00004       22715  1          +
 002376 96C0 6005      00005       22720  1 2463.                SET   IDTFWD+IDTFPOST         WAIT DONE AND POSTED
 00237A 9201 6006      00006       22729  1 2464.                SET   IDTCTRM                 SET TERMINAL CLASS
 00237E 50E0 6010            00010 22735  1 2465.                ST    R14,IDTR15              WAIT COMPLETION CODE
 002382 9608 6004      00004       22736  1 2466.                SET   IDTFR15                 NOTE REGISTER RETURNED
 002386 94CF 6004      00004       22742  1 2467.                CLEAR IDTFR14+IDTFR1
 00238A 50F0 7010            00010 22752  1 2468.                ST    R15,SCPGPRS+0*4         RETURN PROPER ID NUMBER
 DROP   IDT,R6                     22753    2469.              END   ,
1M1SERV   (M1SE00) (09:42) (22MAR04) ORVYL'S Mode 1 I/O SVCs                                                                Page  153
0Current Usings:  (PZERO,R0) (SCP,R7) (M1ATTACH,R10)
0Loc    Object Code    Addr1 Addr2  Stmt Lv Lineno    Source Statement           (Hibal 5, Asmedit 3.3)  HLASM R4.0  2004/03/22 09.42
+___    ______ ____    _____ _____  ____ __ ______    ______ _________
0                                  22763    2471.     *
                                   22764    2472.     * PROCESS FILE REQUEST
                                   22765    2473.     *
 00238E A06E           0238E 02344 22766    2474.              ELSEIF  (R15,EQ,=A(L'IDTCFIL)),BEGIN
 00238E 47F0 A0B8            023DC 22772             +
 002392 59F0 AEF8            0321C 22785             +
 002396 4770 A0B8            023DC 22786             +
 00239A 41F0 A920/0DEF       02C44 22791  1 2475.                LCALL ASGNIDT                 GET AN AVAILABLE IDT
 0023A0 1260/4770 A08A       023AE 22800  1 2476.                IF    ('LTR  RX,RVR',Z),BEGIN NONE FOUND
 0023A6 4810 AF68            0328C 22813  2 2477.                  LH    RS,=Y(-4)               TOO MANY DEVICES IN USE
 0023AA 5010 704C            0004C 22814  2 2478.                  ST    RS,SCPGPRS+15*4         USER RETURN CODE
 0023AE                            22815  1 2479.                END   ,
 0023AE A08E           023AE 023A4 22819  1 2480.                ELSE  BEGIN
 0023AE 47F0 A0B8            023DC 22824  1          +
 0023B2 9202 6006      00006       22830  2 2481.                  WITH  (IDT,RX),'SET IDTCFIL'  SET FILE CLASS
 USING  IDT,R6
 DROP   IDT,R6
 USING  @GORTYPE-72,R13            22859  2 2482.                  PSET  @GORTYPE
 0023B6 D700 D048 D048 00000 00000 22876  2          +
 0023BC 9204 D048      00000       22877  2 2483.                  SET   @GRTYPE.@M1FATCH        SET REQUEST TYPE
 0023C0 58F0 AEFC/0DEF       03220 22883  2 2484.                  ACALL GOFILE
 0023C6 1200/4780 A0B8       023DC 22890  2 2485.                  IF    (RVR,NZ),BEGIN
 DROP   @GORTYPE-72,R13            22904  3 2486.                    PSET  @FREEIDT
 USING  @FREEIDT-72,R13
 0023CC D703 D048 D048 00000 00000 22924  3          +
 0023D2 5060 D048            00000 22925  3 2487.                    WITH  (IDT,RX),'PMOV @FRIADDR,LA:IDT'
 USING  IDT,R6
 DROP   IDT,R6
 0023D6 58F0 AF00/0DEF       03224 22959  3 2488.                    ACALL FREEIDT
 0023DC                            22966  2 2489.                  END   ,
 0023DC                            22970  1 2490.                END   ,
 0023DC                            22974    2491.              END   ,
                                   22978    2492.     *
                                   22979    2493.     *  PROCESS OS FILE REQUEST
                                   22980    2494.     *
 0023DC A0BC           023DC 02398 22981    2495.              ELSEIF (R15,EQ,=A(L'IDTCOSF)),BEGIN
 0023DC 47F0 A0D0            023F4 22987             +
 0023E0 59F0 AF04            03228 23000             +
 0023E4 4770 A0D0            023F4 23001             +
 0023E8 4810 AF6A            0328E 23006  1 2496.                LH    RS,=Y(-12)              NOT AVAILABLE
 0023EC 5010 704C            0004C 23007  1 2497.                ST    RS,SCPGPRS+15*4          USER RETURN CODE
 0023F0 47F0 A178            0249C 23008  1 2498.                EXIT  M1ATTACH                DONE FOR NOW
 0023F4                            23011    2499.              END   ,
                                   23015    2500.     *
                                   23016    2501.     *  SEND PATH REQUEST TO SCOM DRIVER
                                   23017    2502.     *
 0023F4 A0D4           023F4 023E6 23018    2503.              ELSEIF (R15,EQ,=A(L'IDTCSCM)),BEGIN
 0023F4 47F0 A0FC            02420 23024             +
 0023F8 59F0 AF08            0322C 23037             +
 0023FC 4770 A0FC            02420 23038             +
 002400 41F0 A920/0DEF       02C44 23043  1 2504.                LCALL ASGNIDT                 GET AN AVAILABLE IDT
 002406 1260/4780 A178       0249C 23052  1 2505.                IF    ('LTR  RX,RVR',Z),EXIT,M1ATTACH   NONE FOUND
 USING  IDT,R6                     23068  1 2506.                WITH  (IDT,RX)
 00240C 9204 6006      00006       23081  1 2507.                SET   IDTCSCM                 SET TYPE
1M1SERV   (M1SE00) (09:42) (22MAR04) ORVYL'S Mode 1 I/O SVCs                                                                Page  154
0Current Usings:  (PZERO,R0) (IDT,R6) (SCP,R7) (M1ATTACH,R10) (@GORTYPE-72,R13)
0Loc    Object Code    Addr1 Addr2  Stmt Lv Lineno    Source Statement           (Hibal 5, Asmedit 3.3)  HLASM R4.0  2004/03/22 09.42
+___    ______ ____    _____ _____  ____ __ ______    ______ _________
0DROP   @FREEIDT-72,R13            23087  1 2508.                PSET  @GORTYPE
 USING  @GORTYPE-72,R13
 002410 D700 D048 D048 00000 00000 23107  1          +
 002416 9204 D048      00000       23108  1 2509.                SET   @GRTYPE.@M1PATCH        MARK ATTACH REQUEST
 00241A 58F0 AF0C/0DEF       03230 23114  1 2510.                ACALL GOPATH                  GO DO IT
 DROP   IDT,R6                     23121    2511.              END   ,
1M1SERV   (M1SE00) (09:42) (22MAR04) ORVYL'S Mode 1 I/O SVCs                                                                Page  155
0Current Usings:  (PZERO,R0) (SCP,R7) (M1ATTACH,R10) (@GORTYPE-72,R13)
0Loc    Object Code    Addr1 Addr2  Stmt Lv Lineno    Source Statement           (Hibal 5, Asmedit 3.3)  HLASM R4.0  2004/03/22 09.42
+___    ______ ____    _____ _____  ____ __ ______    ______ _________
0                                  23131    2513.     *
                                   23132    2514.     *  PROCESS JES REQUEST
                                   23133    2515.     *
 002420 A100           02420 023FE 23134    2516.              ELSEIF (R15,EQ,=A(L'IDTCJES)),BEGIN
 002420 47F0 A128            0244C 23140             +
 002424 59F0 AF10            03234 23153             +
 002428 4770 A128            0244C 23154             +
 00242C 41F0 A920/0DEF       02C44 23159  1 2517.                LCALL ASGNIDT                 GET AN AVAILABLE IDT
 002432 1260/4780 A178       0249C 23168  1 2518.                IF    ('LTR  RX,RVR',Z),EXIT,M1ATTACH   NONE FOUND
 USING  IDT,R6                     23184  1 2519.                WITH  (IDT,RX)
 002438 9206 6006      00006       23197  1 2520.                SET   IDTCJES                 SET TYPE
 00243C                            23203  1 2521.                PSET  @GORTYPE
 00243C D700 D048 D048 00000 00000 23213  1          +
 002442 9204 D048      00000       23214  1 2522.                SET   @GRTYPE.@M1JATCH        MARK ATTACH REQUEST
 002446 58F0 AF14/0DEF       03238 23220  1 2523.                ACALL GOJES                   GO DO IT
 DROP   IDT,R6                     23227    2524.              END   ,
                                   23236    2525.     *
                                   23237    2526.     *  PROCESS KEYWORD FILE REQUEST
                                   23238    2527.     *
 00244C A12C           0244C 0242A 23239    2528.              ELSEIF (R15,EQ,=A(L'IDTCKEY)),BEGIN
 00244C 47F0 A140            02464 23245             +
 002450 59F0 AF18            0323C 23258             +
 002454 4770 A140            02464 23259             +
 002458 4810 AF6A            0328E 23264  1 2529.                LH    RS,=Y(-12)              NOT AVAILABLE
 00245C 5010 704C            0004C 23265  1 2530.                ST    RS,SCPGPRS+15*4          USER RETURN CODE
 002460 47F0 A178            0249C 23266  1 2531.                EXIT  M1ATTACH                DONE FOR NOW
 002464                            23269    2532.              END   ,
                                   23273    2533.     *
                                   23274    2534.     *  Process Network Request
                                   23275    2535.     *
 002464 A144           02464 02456 23276    2536.              ELSEIF (R15,EQ,=A(L'IDTCNET)),BEGIN
 002464 47F0 A16C            02490 23282             +
 002468 59F0 AF1C            03240 23295             +
 00246C 4770 A16C            02490 23296             +
 002470 41F0 A920/0DEF       02C44 23301  1 2537.                LCALL ASGNIDT                 GET AN AVAILABLE IDT
 002476 1260/4780 A178       0249C 23310  1 2538.                IF    ('LTR  RX,RVR',Z),EXIT,M1ATTACH   NONE FOUND
 USING  IDT,R6                     23326  1 2539.                WITH  (IDT,RX)
 00247C 9207 6006      00006       23339  1 2540.                SET   IDTCNET                 SET TYPE
 002480                            23345  1 2541.                PSET  @GORTYPE
 002480 D700 D048 D048 00000 00000 23355  1          +
 002486 9204 D048      00000       23356  1 2542.                SET   @GRTYPE.@M1NATCH        MARK ATTACH REQUEST
 00248A 58F0 AF20/0DEF       03244 23362  1 2543.                ACALL GONET                   GO DO IT
 DROP   IDT,R6                     23369    2544.              END   ,
                                   23378    2545.     *
                                   23379    2546.     *  ALL OTHERS INVALID
                                   23380    2547.     *
 002490 A170           02490 0246E 23381    2548.              ELSE  BEGIN
 002490 47F0 A178            0249C 23386             +
 002494 9206 71A9      001A9       23392  1 2549.                MVI   SCPPANSY,PANSPEC        NO GOOD
 002498 9610 7265      00265       23393  1 2550.                SET   SCBXP                    PANIC EXIT
 00249C                            23399    2551.              END   ,
 00249C 981F C008            00008 23403    2552.              PEND
 DROP   SCP,R7
 DROP   M1ATTACH,R10
1M1SERV   (M1SE00) (09:42) (22MAR04) ORVYL'S Mode 1 I/O SVCs                                                                Page  156
0Current Usings:  (PZERO,R0)
0Loc    Object Code    Addr1 Addr2  Stmt Lv Lineno    Source Statement           (Hibal 5, Asmedit 3.3)  HLASM R4.0  2004/03/22 09.42
+___    ______ ____    _____ _____  ____ __ ______    ______ _________
00024A0 9680 C000/0B0E 00000       23418             +
 DROP   @GORTYPE-72,R13
1M1SERV   (M1SE00) (09:42) (22MAR04) ORVYL'S Mode 1 I/O SVCs                                                                Page  157
0Current Usings:  (PZERO,R0)
0Loc    Object Code    Addr1 Addr2  Stmt Lv Lineno    Source Statement           (Hibal 5, Asmedit 3.3)  HLASM R4.0  2004/03/22 09.42
+___    ______ ____    _____ _____  ____ __ ______    ______ _________
0                                  23428    2554.     *******************************************************************
                                   23429    2555.     *                                                                 *
                                   23430    2556.     *    M1DETACH - I/O device DETACH service                         *
                                   23431    2557.     *                                                                 *
                                   23432    2558.     *                                                                 *
                                   23433    2559.     *     Input - RY Points to SCP                                    *
                                   23434    2560.     *                                                                 *
                                   23435    2561.     *    Output -                                                     *
                                   23436    2562.     *                                                                 *
                                   23437    2563.     *                                                                 *
                                   23438    2564.     *******************************************************************
-
 0024A6                            23440    2566.     M1DETACH PROC  ,SCOPE=LOCAL
 0024A6 D4F1C4C5E3C1C3C8           23447             +
 0024AE 0000/0000                  23448             +
 0024B2 900F D004/18AF       00004 23450             +
 USING  M1DETACH,R10
 0024B8 50D0 C000/18CD       00000 23465             +
 0024BE 9680 C000      00000       23467             +
 0024C2 41D0 C048            00048 23468             +
 USING  SCP,R7                     23469    2567.              WITH  (SCP,RY)
                                   23482    2568.     *
                                   23483    2569.     *  GET IDT POINTER
                                   23484    2570.     *
 0024C6 58F0 AD96/0DEF       03248 23485    2571.              ACALL FINDIDT
 0024CC 1260/4780 A11E       025D0 23492    2572.              IF    ('LTR  RX,RVR',Z),EXIT
 USING  IDT,R6                     23508    2573.              WITH  (IDT,RX)
                                   23521    2574.     *
                                   23522    2575.     *  USER FORGOT TO WAIT ON PREVIOUS I/O
                                   23523    2576.     *
 0024D2 9180 6005      00005       23524    2577.              IF    ~IDTFWD,BEGIN           PREVIOUS WAIT NOT DONE
 0024D6 4710 A034            024E6 23534             +
 0024DA 9210 71A9      001A9       23539  1 2578.                MVI   SCPPANSY,PANWAIT        ERROR TYPE
 0024DE 9610 7265      00265       23540  1 2579.                SET   SCBXP                   ENTER PANIC EXIT
 0024E2 47F0 A11E            025D0 23546  1 2580.                EXIT  M1DETACH                STOP THE MUSIC
 0024E6                            23549    2581.              END   ,
                                   23553    2582.     *
                                   23554    2583.     *  PROCESS TERMINAL DETACH
                                   23555    2584.     *
 0024E6 9501 6006      00006       23556    2585.              IF    IDTCTRM,BEGIN
 0024EA 4770 A084            02536 23566             +
 0024EE 94C7 6004      00004       23571  1 2586.                CLEAR IDTFR15+IDTFR14+IDTFR1
 0024F2 947F 6005      00005       23585  1 2587.                CLEAR IDTFWD                  CLEAR WAIT DONE FLAG
 0024F6 9640 6005      00005       23592  1 2588.                SET   IDTFPOST                SET POSTED
 0024FA 1FFF/43F0 6007       00007 23598  1 2589.                LC    R15,IDTID               RETURN PROPER
 002500 50F0 7010            00010 23605  1 2590.                ST    R15,SCPGPRS+0*4          ID NUMBER
1M1SERV   (M1SE00) (09:42) (22MAR04) ORVYL'S Mode 1 I/O SVCs                                                                Page  158
0Current Usings:  (PZERO,R0) (IDT,R6) (SCP,R7) (M1DETACH,R10)
0Loc    Object Code    Addr1 Addr2  Stmt Lv Lineno    Source Statement           (Hibal 5, Asmedit 3.3)  HLASM R4.0  2004/03/22 09.42
+___    ______ ____    _____ _____  ____ __ ______    ______ _________
0                                  23607  1 2592.     *
                                   23608  1 2593.     *  SCHEDULE WAIT EXIT
                                   23609  1 2594.     *
 002504 58E0 601C/12EE       0001C 23610  1 2595.                IF    ('LT  R14,IDTWXEP',NZ),BEGIN      USER WAIT EXIT
 00250A 4780 A084            02536 23621  1          +
 00250E 9140 7264      00264       23626  2 2596.                  IF    ~SCBMB.SCBXA,BEGIN
 002512 4710 A06C            0251E 23636  2          +
 002516 9620 6005      00005       23641  3 2597.                    SET   IDTFEWX                 MARK IDT TO ENTER WAIT EXIT
 00251A 9620 7265      00265       23647  3 2598.                    SET   SCBXW                    SCB ALSO
 00251E                            23653  2 2599.                  END   ,
 00251E A070           0251E 02514 23657  2 2600.                  ELSE  BEGIN
 00251E 47F0 A084            02536 23662  2          +
 USING  @DOWAIT-72,R13             23668  3 2601.                    PSET  @DOWAIT
 002522 D703 D048 D048 00000 00000 23685  3          +
 002528 5050 D048            00000 23686  3 2602.                    ST    RK,@DOWTIDT             IDT TO PARM LIST
 00252C 58F0 AD9A/0DEF       0324C 23687  3 2603.                    ACALL DOWAIT                  DO IT
 002532 9620 7262      00262       23694  3 2604.                    SET   SCBFNPUP                DON'T CHANGE PSW CC
 002536                            23700  2 2605.                  END   ,
 002536                            23704  1 2606.                END   ,
 002536                            23708    2607.              END   ,
                                   23712    2608.     *
                                   23713    2609.     *  SEND FILE REQUESTS TO FILE
                                   23714    2610.     *
 002536 A088           02536 024EC 23715    2611.              ELSEIF IDTCFIL,BEGIN
 002536 47F0 A0A0            02552 23721             +
 00253A 9502 6006      00006       23733             +
 00253E 4770 A0A0            02552 23734             +
 DROP   @DOWAIT-72,R13             23739  1 2612.                PSET  @GORTYPE
 USING  @GORTYPE-72,R13
 002542 D700 D048 D048 00000 00000 23759  1          +
 002548 9218 D048      00000       23760  1 2613.                SET   @GRTYPE.@M1FDTCH         SET REQUEST TYPE
 00254C 58F0 AD6E/0DEF       03220 23766  1 2614.                ACALL GOFILE
 002552                            23773    2615.              END   ,
                                   23777    2616.     *
                                   23778    2617.     *  SEND PATH REQUESTS TO SCOM DRIVER
                                   23779    2618.     *
 002552 A0A4           02552 02540 23780    2619.              ELSEIF IDTCSCM,BEGIN
 002552 47F0 A0C6            02578 23786             +
 002556 9504 6006      00006       23798             +
 00255A 4770 A0C6            02578 23799             +
 00255E                            23804  1 2620.                PSET  @GORTYPE
 00255E D700 D048 D048 00000 00000 23814  1          +
 002564 9218 D048      00000       23815  1 2621.                SET   @GRTYPE.@M1PDTCH        MARK DETACH REQUEST
 002568 58F0 AD7E/0DEF       03230 23821  1 2622.                ACALL GOPATH                  GO DO IT
 00256E 1200/4770 A0C6       02578 23828  1 2623.                IF    (RVR,Z),'SET  IDTFFIDT' FREE IDT AT POST
 002574 9608 6005      00005       23848  1          +
 002578                            23853    2624.              END   ,
1M1SERV   (M1SE00) (09:42) (22MAR04) ORVYL'S Mode 1 I/O SVCs                                                                Page  159
0Current Usings:  (PZERO,R0) (IDT,R6) (SCP,R7) (M1DETACH,R10) (@GORTYPE-72,R13)
0Loc    Object Code    Addr1 Addr2  Stmt Lv Lineno    Source Statement           (Hibal 5, Asmedit 3.3)  HLASM R4.0  2004/03/22 09.42
+___    ______ ____    _____ _____  ____ __ ______    ______ _________
0                                  23858    2626.     *
                                   23859    2627.     *  SEND REQUESTS TO JES DRIVER
                                   23860    2628.     *
 002578 A0CA           02578 0255C 23861    2629.              ELSEIF IDTCJES,BEGIN
 002578 47F0 A0EC            0259E 23867             +
 00257C 9506 6006      00006       23879             +
 002580 4770 A0EC            0259E 23880             +
 002584                            23885  1 2630.                PSET  @GORTYPE
 002584 D700 D048 D048 00000 00000 23895  1          +
 00258A 9214 D048      00000       23896  1 2631.                SET   @GRTYPE.@M1JDTCH        MARK DETACH REQUEST
 00258E 58F0 AD86/0DEF       03238 23902  1 2632.                ACALL GOJES                   GO DO IT
 002594 1200/4770 A0EC       0259E 23909  1 2633.                IF    (RVR,Z),'SET  IDTFFIDT'    FREE IDT AT POST
 00259A 9608 6005      00005       23929  1          +
 00259E                            23934    2634.              END   ,
                                   23938    2635.     *
                                   23939    2636.     *  SEND REQUESTS TO NET DRIVER
                                   23940    2637.     *
 00259E A0F0           0259E 02582 23941    2638.              ELSEIF IDTCNET,BEGIN
 00259E 47F0 A112            025C4 23947             +
 0025A2 9507 6006      00006       23959             +
 0025A6 4770 A112            025C4 23960             +
 0025AA                            23965  1 2639.                PSET  @GORTYPE
 0025AA D700 D048 D048 00000 00000 23975  1          +
 0025B0 9218 D048      00000       23976  1 2640.                SET   @GRTYPE.@M1NDTCH        MARK DETACH REQUEST
 0025B4 58F0 AD92/0DEF       03244 23982  1 2641.                ACALL GONET                   GO DO IT
 0025BA 1200/4770 A112       025C4 23989  1 2642.                IF    (RVR,Z),'SET  IDTFFIDT'    FREE IDT AT POST
 0025C0 9608 6005      00005       24009  1          +
 0025C4                            24014    2643.              END   ,
                                   24018    2644.     *
                                   24019    2645.     *  ALL OTHERS INVALID
                                   24020    2646.     *
 0025C4 A116           025C4 025A8 24021    2647.              ELSE  BEGIN
 0025C4 47F0 A11E            025D0 24026             +
 0025C8 9206 71A9      001A9       24032  1 2648.                MVI   SCPPANSY,PANSPEC        NO GOOD
 0025CC 9610 7265      00265       24033  1 2649.                SET   SCBXP                    PANIC EXIT
 0025D0                            24039    2650.              END   ,
 0025D0 981F C008            00008 24043    2651.              PEND
 DROP   IDT,R6
 DROP   SCP,R7
 DROP   M1DETACH,R10
 0025D4 9680 C000/0B0E 00000       24063             +
 DROP   @GORTYPE-72,R13
1M1SERV   (M1SE00) (09:42) (22MAR04) ORVYL'S Mode 1 I/O SVCs                                                                Page  160
0Current Usings:  (PZERO,R0)
0Loc    Object Code    Addr1 Addr2  Stmt Lv Lineno    Source Statement           (Hibal 5, Asmedit 3.3)  HLASM R4.0  2004/03/22 09.42
+___    ______ ____    _____ _____  ____ __ ______    ______ _________
0                                  24073    2653.     *******************************************************************
                                   24074    2654.     *                                                                 *
                                   24075    2655.     *    M1READ  - I/O device READ service                            *
                                   24076    2656.     *                                                                 *
                                   24077    2657.     *                                                                 *
                                   24078    2658.     *     Input - RY Points to SCP                                    *
                                   24079    2659.     *                                                                 *
                                   24080    2660.     *    Output -                                                     *
                                   24081    2661.     *                                                                 *
                                   24082    2662.     *                                                                 *
                                   24083    2663.     *******************************************************************
-
 0025DA                            24085    2665.     M1READ   PROC  ,SCOPE=LOCAL
 0025DA D4F1D9C5C1C44040           24092             +
 0025E2 0000/0000                  24093             +
 0025E6 900F D004/18AF       00004 24095             +
 USING  M1READ,R10
 0025EC 50D0 C000/18CD       00000 24110             +
 0025F2 9680 C000      00000       24112             +
 0025F6 41D0 C048            00048 24113             +
 USING  SCP,R7                     24114    2666.              WITH  (SCP,RY)
                                   24127    2667.     *
                                   24128    2668.     *  GET IDT POINTER
                                   24129    2669.     *
 0025FA 58F0 AC62/0DEF       03248 24130    2670.              ACALL FINDIDT
 002600 1260/4780 A0AC       02692 24137    2671.              IF    ('LTR  RX,RVR',Z),EXIT
 USING  IDT,R6                     24153    2672.              WITH  (IDT,RX)
                                   24166    2673.     *
                                   24167    2674.     *  USER FORGOT TO WAIT ON PREVIOUS I/O
                                   24168    2675.     *
 002606 9180 6005      00005       24169    2676.              IF    ~IDTFWD,BEGIN           PREVIOUS WAIT NOT DONE
 00260A 4710 A034            0261A 24179             +
 00260E 9210 71A9      001A9       24184  1 2677.                MVI   SCPPANSY,PANWAIT        ERROR TYPE
 002612 9610 7265      00265       24185  1 2678.                SET   SCBXP                   ENTER PANIC EXIT
 002616 47F0 A0AC            02692 24191  1 2679.                EXIT  M1READ                  STOP THE MUSIC
 00261A                            24194    2680.              END   ,
                                   24198    2681.     *
                                   24199    2682.     *  SEND REQUEST TO TERMINAL DRIVER
                                   24200    2683.     *
 00261A 9501 6006      00006       24201    2684.              IF    IDTCTRM,BEGIN
 00261E 4770 A04C            02632 24211             +
 USING  @GORTYPE-72,R13            24216  1 2685.                PSET  @GORTYPE
 002622 D700 D048 D048 00000 00000 24233  1          +
 002628 9204 D048      00000       24234  1 2686.                SET   @GRTYPE.@M1TREAD        MARK READ REQUEST
 00262C 58F0 AC6A/0DEF       03250 24240  1 2687.                ACALL GOTERM                  GO DO IT
 002632                            24247    2688.              END   ,
1M1SERV   (M1SE00) (09:42) (22MAR04) ORVYL'S Mode 1 I/O SVCs                                                                Page  161
0Current Usings:  (PZERO,R0) (IDT,R6) (SCP,R7) (M1READ,R10) (@GORTYPE-72,R13)
0Loc    Object Code    Addr1 Addr2  Stmt Lv Lineno    Source Statement           (Hibal 5, Asmedit 3.3)  HLASM R4.0  2004/03/22 09.42
+___    ______ ____    _____ _____  ____ __ ______    ______ _________
0                                  24252    2690.     *
                                   24253    2691.     *  SEND FILE REQUESTS TO FILE
                                   24254    2692.     *
 002632 A050           02632 02620 24255    2693.              ELSEIF IDTCFIL,BEGIN
 002632 47F0 A068            0264E 24261             +
 002636 9502 6006      00006       24273             +
 00263A 4770 A068            0264E 24274             +
 00263E                            24279  1 2694.                PSET  @GORTYPE
 00263E D700 D048 D048 00000 00000 24289  1          +
 002644 9208 D048      00000       24290  1 2695.                SET   @GRTYPE.@M1FREAD         SET REQUEST TYPE
 002648 58F0 AC3A/0DEF       03220 24296  1 2696.                ACALL GOFILE
 00264E                            24303    2697.              END   ,
                                   24307    2698.     *
                                   24308    2699.     *  SEND PATH REQUEST TO SCOM DRIVER
                                   24309    2700.     *
 00264E A06C           0264E 0263C 24310    2701.              ELSEIF IDTCSCM,BEGIN
 00264E 47F0 A084            0266A 24316             +
 002652 9504 6006      00006       24328             +
 002656 4770 A084            0266A 24329             +
 00265A                            24334  1 2702.                PSET  @GORTYPE
 00265A D700 D048 D048 00000 00000 24344  1          +
 002660 9208 D048      00000       24345  1 2703.                SET   @GRTYPE.@M1PREAD        MARK READ REQUEST
 002664 58F0 AC4A/0DEF       03230 24351  1 2704.                ACALL GOPATH                  GO DO IT
 00266A                            24358    2705.              END   ,
                                   24362    2706.     *
                                   24363    2707.     *  SEND NETWORK REQUEST TO NETWORK DRIVER
                                   24364    2708.     *
 00266A A088           0266A 02658 24365    2709.              ELSEIF IDTCNET,BEGIN
 00266A 47F0 A0A0            02686 24371             +
 00266E 9507 6006      00006       24383             +
 002672 4770 A0A0            02686 24384             +
 002676                            24389  1 2710.                PSET  @GORTYPE
 002676 D700 D048 D048 00000 00000 24399  1          +
 00267C 9208 D048      00000       24400  1 2711.                SET   @GRTYPE.@M1NREAD        MARK READ REQUEST
 002680 58F0 AC5E/0DEF       03244 24406  1 2712.                ACALL GONET                   GO DO IT
 002686                            24413    2713.              END   ,
                                   24417    2714.     *
                                   24418    2715.     *  ALL OTHERS INVALID
                                   24419    2716.     *
 002686 A0A4           02686 02674 24420    2717.              ELSE  BEGIN
 002686 47F0 A0AC            02692 24425             +
 00268A 9206 71A9      001A9       24431  1 2718.                MVI   SCPPANSY,PANSPEC        NO GOOD
 00268E 9610 7265      00265       24432  1 2719.                SET   SCBXP                    PANIC EXIT
 002692                            24438    2720.              END   ,
 002692 981F C008            00008 24442    2721.              PEND
 DROP   IDT,R6
 DROP   SCP,R7
 DROP   M1READ,R10
 002696 9680 C000/0B0E 00000       24462             +
 DROP   @GORTYPE-72,R13
1M1SERV   (M1SE00) (09:42) (22MAR04) ORVYL'S Mode 1 I/O SVCs                                                                Page  162
0Current Usings:  (PZERO,R0)
0Loc    Object Code    Addr1 Addr2  Stmt Lv Lineno    Source Statement           (Hibal 5, Asmedit 3.3)  HLASM R4.0  2004/03/22 09.42
+___    ______ ____    _____ _____  ____ __ ______    ______ _________
0                                  24472    2723.     *******************************************************************
                                   24473    2724.     *                                                                 *
                                   24474    2725.     *    M1WRITE  - I/O device WRITE service                          *
                                   24475    2726.     *                                                                 *
                                   24476    2727.     *                                                                 *
                                   24477    2728.     *     Input - RY Points to SCP                                    *
                                   24478    2729.     *                                                                 *
                                   24479    2730.     *    Output -                                                     *
                                   24480    2731.     *                                                                 *
                                   24481    2732.     *                                                                 *
                                   24482    2733.     *******************************************************************
-
 00269C                            24484    2735.     M1WRITE  PROC  ,SCOPE=LOCAL
 00269C D4F1E6D9C9E3C540           24491             +
 0026A4 0000/0000                  24492             +
 0026A8 900F D004/18AF       00004 24494             +
 USING  M1WRITE,R10
 0026AE 50D0 C000/18CD       00000 24509             +
 0026B4 9680 C000      00000       24511             +
 0026B8 41D0 C048            00048 24512             +
 USING  SCP,R7                     24513    2736.              WITH  (SCP,RY)
                                   24526    2737.     *
                                   24527    2738.     *  GET IDT POINTER
                                   24528    2739.     *
 0026BC 58F0 ABA0/0DEF       03248 24529    2740.              ACALL FINDIDT
 0026C2 1260/4780 A0C8       02770 24536    2741.              IF    ('LTR  RX,RVR',Z),EXIT
 USING  IDT,R6                     24552    2742.              WITH  (IDT,RX)
                                   24565    2743.     *
                                   24566    2744.     *  USER FORGOT TO WAIT ON PREVIOUS I/O
                                   24567    2745.     *
 0026C8 9180 6005      00005       24568    2746.              IF    ~IDTFWD,BEGIN           PREVIOUS WAIT NOT DONE
 0026CC 4710 A034            026DC 24578             +
 0026D0 9210 71A9      001A9       24583  1 2747.                MVI   SCPPANSY,PANWAIT        ERROR TYPE
 0026D4 9610 7265      00265       24584  1 2748.                SET   SCBXP                   ENTER PANIC EXIT
 0026D8 47F0 A0C8            02770 24590  1 2749.                EXIT  M1WRITE                 STOP THE MUSIC
 0026DC                            24593    2750.              END   ,
                                   24597    2751.     *
                                   24598    2752.     *  SEND REQUEST TO TERMINAL DRIVER
                                   24599    2753.     *
 0026DC 9501 6006      00006       24600    2754.              IF    IDTCTRM,BEGIN
 0026E0 4770 A04C            026F4 24610             +
 USING  @GORTYPE-72,R13            24615  1 2755.                PSET  @GORTYPE
 0026E4 D700 D048 D048 00000 00000 24632  1          +
 0026EA 9208 D048      00000       24633  1 2756.                SET   @GRTYPE.@M1TWRIT        MARK WRITE REQUEST
 0026EE 58F0 ABA8/0DEF       03250 24639  1 2757.                ACALL GOTERM                  GO DO IT
 0026F4                            24646    2758.              END   ,
1M1SERV   (M1SE00) (09:42) (22MAR04) ORVYL'S Mode 1 I/O SVCs                                                                Page  163
0Current Usings:  (PZERO,R0) (IDT,R6) (SCP,R7) (M1WRITE,R10) (@GORTYPE-72,R13)
0Loc    Object Code    Addr1 Addr2  Stmt Lv Lineno    Source Statement           (Hibal 5, Asmedit 3.3)  HLASM R4.0  2004/03/22 09.42
+___    ______ ____    _____ _____  ____ __ ______    ______ _________
0                                  24651    2760.     *
                                   24652    2761.     *  SEND FILE REQUESTS TO FILE
                                   24653    2762.     *
 0026F4 A050           026F4 026E2 24654    2763.              ELSEIF IDTCFIL,BEGIN
 0026F4 47F0 A068            02710 24660             +
 0026F8 9502 6006      00006       24672             +
 0026FC 4770 A068            02710 24673             +
 002700                            24678  1 2764.                PSET  @GORTYPE
 002700 D700 D048 D048 00000 00000 24688  1          +
 002706 920C D048      00000       24689  1 2765.                SET   @GRTYPE.@M1FWRIT        SET REQUEST TYPE
 00270A 58F0 AB78/0DEF       03220 24695  1 2766.                ACALL GOFILE
 002710                            24702    2767.              END   ,
                                   24706    2768.     *
                                   24707    2769.     *  SEND PATH REQUEST TO SCOM DRIVER
                                   24708    2770.     *
 002710 A06C           02710 026FE 24709    2771.              ELSEIF IDTCSCM,BEGIN
 002710 47F0 A084            0272C 24715             +
 002714 9504 6006      00006       24727             +
 002718 4770 A084            0272C 24728             +
 00271C                            24733  1 2772.                PSET  @GORTYPE
 00271C D700 D048 D048 00000 00000 24743  1          +
 002722 920C D048      00000       24744  1 2773.                SET   @GRTYPE.@M1PWRIT        MARK WRITE REQUEST
 002726 58F0 AB88/0DEF       03230 24750  1 2774.                ACALL GOPATH                  GO DO IT
 00272C                            24757    2775.              END   ,
                                   24761    2776.     *
                                   24762    2777.     *  SEND REQUEST TO JES DRIVER
                                   24763    2778.     *
 00272C A088           0272C 0271A 24764    2779.              ELSEIF IDTCJES,BEGIN
 00272C 47F0 A0A0            02748 24770             +
 002730 9506 6006      00006       24782             +
 002734 4770 A0A0            02748 24783             +
 002738                            24788  1 2780.                PSET  @GORTYPE
 002738 D700 D048 D048 00000 00000 24798  1          +
 00273E 9208 D048      00000       24799  1 2781.                SET   @GRTYPE.@M1JWRIT        MARK WRITE REQUEST
 002742 58F0 AB90/0DEF       03238 24805  1 2782.                ACALL GOJES                   GO DO IT
 002748                            24812    2783.              END   ,
                                   24816    2784.     *
                                   24817    2785.     *  SEND REQUEST TO NET DRIVER
                                   24818    2786.     *
 002748 A0A4           02748 02736 24819    2787.              ELSEIF IDTCNET,BEGIN
 002748 47F0 A0BC            02764 24825             +
 00274C 9507 6006      00006       24837             +
 002750 4770 A0BC            02764 24838             +
 002754                            24843  1 2788.                PSET  @GORTYPE
 002754 D700 D048 D048 00000 00000 24853  1          +
 00275A 920C D048      00000       24854  1 2789.                SET   @GRTYPE.@M1NWRIT        MARK WRITE REQUEST
 00275E 58F0 AB9C/0DEF       03244 24860  1 2790.                ACALL GONET                   GO DO IT
 002764                            24867    2791.              END   ,
1M1SERV   (M1SE00) (09:42) (22MAR04) ORVYL'S Mode 1 I/O SVCs                                                                Page  164
0Current Usings:  (PZERO,R0) (IDT,R6) (SCP,R7) (M1WRITE,R10) (@GORTYPE-72,R13)
0Loc    Object Code    Addr1 Addr2  Stmt Lv Lineno    Source Statement           (Hibal 5, Asmedit 3.3)  HLASM R4.0  2004/03/22 09.42
+___    ______ ____    _____ _____  ____ __ ______    ______ _________
0                                  24872    2793.     *
                                   24873    2794.     *  ALL OTHERS INVALID
                                   24874    2795.     *
 002764 A0C0           02764 02752 24875    2796.              ELSE  BEGIN
 002764 47F0 A0C8            02770 24880             +
 002768 9206 71A9      001A9       24886  1 2797.                MVI   SCPPANSY,PANSPEC        NO GOOD
 00276C 9610 7265      00265       24887  1 2798.                SET   SCBXP                    PANIC EXIT
 002770                            24893    2799.              END   ,
 002770 981F C008            00008 24897    2800.              PEND
 DROP   IDT,R6
 DROP   SCP,R7
 DROP   M1WRITE,R10
 002774 9680 C000/0B0E 00000       24917             +
 DROP   @GORTYPE-72,R13
1M1SERV   (M1SE00) (09:42) (22MAR04) ORVYL'S Mode 1 I/O SVCs                                                                Page  165
0Current Usings:  (PZERO,R0)
0Loc    Object Code    Addr1 Addr2  Stmt Lv Lineno    Source Statement           (Hibal 5, Asmedit 3.3)  HLASM R4.0  2004/03/22 09.42
+___    ______ ____    _____ _____  ____ __ ______    ______ _________
0                                  24927    2802.     *******************************************************************
                                   24928    2803.     *                                                                 *
                                   24929    2804.     *    M1CNTRL  - I/O device CONTROL service                        *
                                   24930    2805.     *                                                                 *
                                   24931    2806.     *                                                                 *
                                   24932    2807.     *     Input - RY Points to SCP                                    *
                                   24933    2808.     *                                                                 *
                                   24934    2809.     *    Output -                                                     *
                                   24935    2810.     *                                                                 *
                                   24936    2811.     *                                                                 *
                                   24937    2812.     *******************************************************************
-
 00277A                            24939    2814.     M1CNTRL  PROC  ,SCOPE=LOCAL
 00277A D4F1C3D5E3D9D340           24946             +
 002782 0000/0000                  24947             +
 002786 900F D004/18AF       00004 24949             +
 USING  M1CNTRL,R10
 00278C 50D0 C000/18CD       00000 24964             +
 002792 9680 C000      00000       24966             +
 002796 41D0 C048            00048 24967             +
 USING  SCP,R7                     24968    2815.              WITH  (SCP,RY)
                                   24981    2816.     *
                                   24982    2817.     *  GET IDT POINTER
                                   24983    2818.     *
 00279A 58F0 AAC2/0DEF       03248 24984    2819.              ACALL FINDIDT
 0027A0 1260/4780 A10E       02894 24991    2820.              IF    ('LTR  RX,RVR',Z),EXIT
 USING  IDT,R6                     25007    2821.              WITH  (IDT,RX)
                                   25020    2822.     *
                                   25021    2823.     *  USER FORGOT TO WAIT ON PREVIOUS I/O
                                   25022    2824.     *
 0027A6 9180 6005      00005       25023    2825.              IF    ~IDTFWD,BEGIN           PREVIOUS WAIT NOT DONE
 0027AA 4710 A034            027BA 25033             +
 0027AE 9210 71A9      001A9       25038  1 2826.                MVI   SCPPANSY,PANWAIT        ERROR TYPE
 0027B2 9610 7265      00265       25039  1 2827.                SET   SCBXP                   ENTER PANIC EXIT
 0027B6 47F0 A10E            02894 25045  1 2828.                EXIT  M1CNTRL                 STOP THE MUSIC
 0027BA                            25048    2829.              END   ,
                                   25052    2830.     *
                                   25053    2831.     *  PROCESS TERMINAL REQUESTS
                                   25054    2832.     *
 0027BA 9501 6006      00006       25055    2833.              IF    IDTCTRM,BEGIN
 0027BE 4770 A0AE            02834 25065             +
 0027C2 5810 7014            00014 25070  1 2834.                L     RS,SCPGPRS+1*4          GET REGISTER 1
1M1SERV   (M1SE00) (09:42) (22MAR04) ORVYL'S Mode 1 I/O SVCs                                                                Page  166
0Current Usings:  (PZERO,R0) (IDT,R6) (SCP,R7) (M1CNTRL,R10)
0Loc    Object Code    Addr1 Addr2  Stmt Lv Lineno    Source Statement           (Hibal 5, Asmedit 3.3)  HLASM R4.0  2004/03/22 09.42
+___    ______ ____    _____ _____  ____ __ ______    ______ _________
0                                  25072  1 2836.     *
                                   25073  1 2837.     *  PROCESS CONTROLS 22, 23, AND 24 HERE
                                   25074  1 2838.     *
 0027C6 5910 AACE            03254 25075  1 2839.                IF    ((RS,GE,22),AND,(RS,LE,24)),BEGIN
 0027CA 4750 A09A            02820 25089  1          +
 0027CE 5910 AAD2            03258 25102  1          +
 0027D2 4730 A09A            02820 25103  1          +
 0027D6 41F0 0001            00001 25108  2 2840.                  LA    R15,1                   PRESET WAIT
 0027DA 50F0 7010            00010 25109  2 2841.                  ST    R15,SCPGPRS+0*4          DEVICE ID
 0027DE 1BFF                       25110  2 2842.                  CLEAR R15                     PRESET RETURN CODE
 0027E0 50F0 704C            0004C 25114  2 2843.                  ST    R15,SCPGPRS+15*4         FROM SVC
 0027E4 5910 AAD6            0325C 25115  2 2844.                  IF    (RS,EQ,23),'SET  SCBFNESC'    FORCE SESSION BREAK
 0027E8 4770 A06A            027F0 25127  2          +
 0027EC 9608 7261      00261       25138  2          +
 0027F0 A06E           027F0 027EA 25143  2 2845.                  ELSEIF  L,'CLEAR  SCBFNESC'           NORMAL MODE
 0027F0 47F0 A076            027FC 25149  2          +
 0027F4 47B0 A076            027FC 25158  2          +
 0027F8 94F7 7261      00261       25170  2          +
 0027FC A07A           027FC 027F6 25175  2 2846.                  ELSE  BEGIN
 0027FC 47F0 A086            0280C 25180  2          +
 002800 9108 7261      00261       25186  3 2847.                    IF    ~SCBFNESC,'LA  R15,4'   NORMAL MODE RETURN CODE
 002804 4710 A086            0280C 25196  3          +
 002808 41F0 0004            00004 25202  3          +
 00280C                            25207  2 2848.                  END   ,
 00280C 50F0 6010            00010 25211  2 2849.                  ST    R15,IDTR15              SET RETURN
 002810 94C7 6004      00004       25212  2 2850.                  CLEAR IDTFR1+IDTFR14+IDTFR15
 002814 9608 6004      00004       25226  2 2851.                  SET   IDTFR15                 ONE REGISTER
 002818 947F 6005      00005       25232  2 2852.                  CLEAR IDTFWD                  WAIT NOT DONE YET
 00281C 9640 6005      00005       25239  2 2853.                  SET   IDTFPOST                I/O COMPLETE
 002820                            25245  1 2854.                END   ,
                                   25249  1 2855.     *
                                   25250  1 2856.     *  SEND OTHER REQUESTS TO TERMINAL DRIVER
                                   25251  1 2857.     *
 002820 A09E           02820 027CC 25252  1 2858.                ELSE  BEGIN
 0027D4 A09E           027D6 02820 25257  1          +
 002820 47F0 A0AE            02834 25259  1          +
 USING  @GORTYPE-72,R13            25265  2 2859.                  PSET  @GORTYPE
 002824 D700 D048 D048 00000 00000 25282  2          +
 00282A 920C D048      00000       25283  2 2860.                  SET   @GRTYPE.@M1TCNTL        MARK CONTROL REQUEST
 00282E 58F0 AACA/0DEF       03250 25289  2 2861.                  ACALL GOTERM                  GO DO IT
 002834                            25296  1 2862.                END   ,
 002834                            25300    2863.              END   ,
1M1SERV   (M1SE00) (09:42) (22MAR04) ORVYL'S Mode 1 I/O SVCs                                                                Page  167
0Current Usings:  (PZERO,R0) (IDT,R6) (SCP,R7) (M1CNTRL,R10) (@GORTYPE-72,R13)
0Loc    Object Code    Addr1 Addr2  Stmt Lv Lineno    Source Statement           (Hibal 5, Asmedit 3.3)  HLASM R4.0  2004/03/22 09.42
+___    ______ ____    _____ _____  ____ __ ______    ______ _________
0                                  25305    2865.     *
                                   25306    2866.     *  SEND FILE REQUESTS TO FILE
                                   25307    2867.     *
 002834 A0B2           02834 027C0 25308    2868.              ELSEIF IDTCFIL,BEGIN
 002834 47F0 A0CA            02850 25314             +
 002838 9502 6006      00006       25326             +
 00283C 4770 A0CA            02850 25327             +
 002840                            25332  1 2869.                PSET  @GORTYPE
 002840 D700 D048 D048 00000 00000 25342  1          +
 002846 9210 D048      00000       25343  1 2870.                SET   @GRTYPE.@M1FCONT         SET REQUEST TYPE
 00284A 58F0 AA9A/0DEF       03220 25349  1 2871.                ACALL GOFILE
 002850                            25356    2872.              END   ,
                                   25360    2873.     *
                                   25361    2874.     *  SEND REQUEST TO JES DRIVER
                                   25362    2875.     *
 002850 A0CE           02850 0283E 25363    2876.              ELSEIF IDTCJES,BEGIN
 002850 47F0 A0E6            0286C 25369             +
 002854 9506 6006      00006       25381             +
 002858 4770 A0E6            0286C 25382             +
 00285C                            25387  1 2877.                PSET  @GORTYPE
 00285C D700 D048 D048 00000 00000 25397  1          +
 002862 920C D048      00000       25398  1 2878.                SET   @GRTYPE.@M1JCNTL        MARK CONTROL REQUEST
 002866 58F0 AAB2/0DEF       03238 25404  1 2879.                ACALL GOJES                   GO DO IT
 00286C                            25411    2880.              END   ,
                                   25415    2881.     *
                                   25416    2882.     *  SEND REQUEST TO NET DRIVER
                                   25417    2883.     *
 00286C A0EA           0286C 0285A 25418    2884.              ELSEIF IDTCNET,BEGIN
 00286C 47F0 A102            02888 25424             +
 002870 9507 6006      00006       25436             +
 002874 4770 A102            02888 25437             +
 002878                            25442  1 2885.                PSET  @GORTYPE
 002878 D700 D048 D048 00000 00000 25452  1          +
 00287E 9210 D048      00000       25453  1 2886.                SET   @GRTYPE.@M1NCNTL        MARK CONTROL REQUEST
 002882 58F0 AABE/0DEF       03244 25459  1 2887.                ACALL GONET                   GO DO IT
 002888                            25466    2888.              END   ,
                                   25470    2889.     *
                                   25471    2890.     *  ALL OTHERS INVALID
                                   25472    2891.     *
 002888 A106           02888 02876 25473    2892.              ELSE  BEGIN
 002888 47F0 A10E            02894 25478             +
 00288C 9206 71A9      001A9       25484  1 2893.                MVI   SCPPANSY,PANSPEC        NO GOOD
 002890 9610 7265      00265       25485  1 2894.                SET   SCBXP                    PANIC EXIT
 002894                            25491    2895.              END   ,
 002894 981F C008            00008 25495    2896.              PEND
 DROP   IDT,R6
 DROP   SCP,R7
 DROP   M1CNTRL,R10
 002898 9680 C000/0B0E 00000       25515             +
 DROP   @GORTYPE-72,R13
1M1SERV   (M1SE00) (09:42) (22MAR04) ORVYL'S Mode 1 I/O SVCs                                                                Page  168
0Current Usings:  (PZERO,R0)
0Loc    Object Code    Addr1 Addr2  Stmt Lv Lineno    Source Statement           (Hibal 5, Asmedit 3.3)  HLASM R4.0  2004/03/22 09.42
+___    ______ ____    _____ _____  ____ __ ______    ______ _________
0                                  25525    2898.     *******************************************************************
                                   25526    2899.     *                                                                 *
                                   25527    2900.     *    M1RESRV  - I/O device RESERVE service                        *
                                   25528    2901.     *                                                                 *
                                   25529    2902.     *                                                                 *
                                   25530    2903.     *     Input - RY Points to SCP                                    *
                                   25531    2904.     *                                                                 *
                                   25532    2905.     *    Output -                                                     *
                                   25533    2906.     *                                                                 *
                                   25534    2907.     *                                                                 *
                                   25535    2908.     *******************************************************************
-
 00289E                            25537    2910.     M1RESRV  PROC  ,SCOPE=LOCAL
 00289E D4F1D9C5E2D9E540           25544             +
 0028A6 0000/0000                  25545             +
 0028AA 900F D004/18AF       00004 25547             +
 USING  M1RESRV,R10
 0028B0 50D0 C000/18CD       00000 25562             +
 0028B6 9680 C000      00000       25564             +
 0028BA 41D0 C048            00048 25565             +
 USING  SCP,R7                     25566    2911.              WITH  (SCP,RY)
                                   25579    2912.     *
                                   25580    2913.     *  GET IDT POINTER
                                   25581    2914.     *
 0028BE 58F0 A99E/0DEF       03248 25582    2915.              ACALL FINDIDT
 0028C4 1260/4780 A07C       02926 25589    2916.              IF    ('LTR  RX,RVR',Z),EXIT
 USING  IDT,R6                     25605    2917.              WITH  (IDT,RX)
                                   25618    2918.     *
                                   25619    2919.     *  USER FORGOT TO WAIT ON PREVIOUS I/O
                                   25620    2920.     *
 0028CA 9180 6005      00005       25621    2921.              IF    ~IDTFWD,BEGIN           PREVIOUS WAIT NOT DONE
 0028CE 4710 A034            028DE 25631             +
 0028D2 9210 71A9      001A9       25636  1 2922.                MVI   SCPPANSY,PANWAIT        ERROR TYPE
 0028D6 9610 7265      00265       25637  1 2923.                SET   SCBXP                   ENTER PANIC EXIT
 0028DA 47F0 A07C            02926 25643  1 2924.                EXIT  M1RESRV                 STOP THE MUSIC
 0028DE                            25646    2925.              END   ,
                                   25650    2926.     *
                                   25651    2927.     *  SEND FILE REQUESTS TO FILE
                                   25652    2928.     *
 0028DE 9502 6006      00006       25653    2929.              IF    IDTCFIL,BEGIN
 0028E2 4770 A070            0291A 25663             +
 USING  @GORTYPE-72,R13            25668  1 2930.                PSET  @GORTYPE
 0028E6 D700 D048 D048 00000 00000 25685  1          +
 0028EC 921C D048      00000       25686  1 2931.                SET   @GRTYPE.@M1FRSRV        SET REQUEST TYPE
 0028F0 58F0 A976/0DEF       03220 25692  1 2932.                ACALL GOFILE
                                   25699  1 2933.     *
                                   25700  1 2934.     *  If the RESERVE request is proceeding, disallow attentions
                                   25701  1 2935.     *
 0028F6 5810 704C/1211       0004C 25702  1 2936.                IF    ('LT  RS,SCPGPRS+15*4',Z),BEGIN
 0028FC 4770 A066            02910 25713  1          +
 002900 BF11 7201            00201 25718  2 2937.                  INCR  RS,SCPKLUDG
 002904 4110 1001            00001 25722  2          +
1M1SERV   (M1SE00) (09:42) (22MAR04) ORVYL'S Mode 1 I/O SVCs                                                                Page  169
0Current Usings:  (PZERO,R0) (IDT,R6) (SCP,R7) (M1RESRV,R10) (@GORTYPE-72,R13)
0Loc    Object Code    Addr1 Addr2  Stmt Lv Lineno    Source Statement           (Hibal 5, Asmedit 3.3)  HLASM R4.0  2004/03/22 09.42
+___    ______ ____    _____ _____  ____ __ ______    ______ _________
0002908 BE11 7201            00201 25723  2          +
 00290C 9610 7261      00261       25724  2 2938.                  SET   SCBCFNMA                Suppress multiple attn
 002910                            25730  1 2939.                END
                                   25734  1 2940.     *
                                   25735  1 2941.     *  Reserve SVC return must always be zero
                                   25736  1 2942.     *
 002910 A06A           02910 028FE 25737  1 2943.                ELSE  'MVC  SCPGPRS+15*4(4),=A(0)'
 002910 47F0 A070            0291A 25742  1          +
 002914 D203 704C A9B6 0004C 03260 25749  1          +
 00291A                            25754    2944.              END   ,
                                   25758    2945.     *
                                   25759    2946.     *  ALL OTHERS INVALID
                                   25760    2947.     *
 00291A A074           0291A 028E4 25761    2948.              ELSE  BEGIN
 00291A 47F0 A07C            02926 25766             +
 00291E 9206 71A9      001A9       25772  1 2949.                MVI   SCPPANSY,PANSPEC        NO GOOD
 002922 9610 7265      00265       25773  1 2950.                SET   SCBXP                    PANIC EXIT
 002926                            25779    2951.              END   ,
 002926 981F C008            00008 25783    2952.              PEND
 DROP   IDT,R6
 DROP   SCP,R7
 DROP   M1RESRV,R10
 00292A 9680 C000/0B0E 00000       25803             +
 DROP   @GORTYPE-72,R13
1M1SERV   (M1SE00) (09:42) (22MAR04) ORVYL'S Mode 1 I/O SVCs                                                                Page  170
0Current Usings:  (PZERO,R0)
0Loc    Object Code    Addr1 Addr2  Stmt Lv Lineno    Source Statement           (Hibal 5, Asmedit 3.3)  HLASM R4.0  2004/03/22 09.42
+___    ______ ____    _____ _____  ____ __ ______    ______ _________
0                                  25813    2954.     *******************************************************************
                                   25814    2955.     *                                                                 *
                                   25815    2956.     *    M1RELSE  - I/O device RELEASE service                        *
                                   25816    2957.     *                                                                 *
                                   25817    2958.     *                                                                 *
                                   25818    2959.     *     Input - RY Points to SCP                                    *
                                   25819    2960.     *                                                                 *
                                   25820    2961.     *    Output -                                                     *
                                   25821    2962.     *                                                                 *
                                   25822    2963.     *                                                                 *
                                   25823    2964.     *******************************************************************
-
 002930                            25825    2966.     M1RELSE  PROC  ,SCOPE=LOCAL
 002930 D4F1D9C5D3E2C540           25832             +
 002938 0000/0000                  25833             +
 00293C 900F D004/18AF       00004 25835             +
 USING  M1RELSE,R10
 002942 50D0 C000/18CD       00000 25850             +
 002948 9680 C000      00000       25852             +
 00294C 41D0 C048            00048 25853             +
 USING  SCP,R7                     25854    2967.              WITH  (SCP,RY)
                                   25867    2968.     *
                                   25868    2969.     *  GET IDT POINTER
                                   25869    2970.     *
 002950 58F0 A90C/0DEF       03248 25870    2971.              ACALL FINDIDT
 002956 1260/4780 A080       029BC 25877    2972.              IF    ('LTR  RX,RVR',Z),EXIT
 USING  IDT,R6                     25893    2973.              WITH  (IDT,RX)
                                   25906    2974.     *
                                   25907    2975.     *  USER FORGOT TO WAIT ON PREVIOUS I/O
                                   25908    2976.     *
 00295C 9180 6005      00005       25909    2977.              IF    ~IDTFWD,BEGIN           PREVIOUS WAIT NOT DONE
 002960 4710 A034            02970 25919             +
 002964 9210 71A9      001A9       25924  1 2978.                MVI   SCPPANSY,PANWAIT        ERROR TYPE
 002968 9610 7265      00265       25925  1 2979.                SET   SCBXP                   ENTER PANIC EXIT
 00296C 47F0 A080            029BC 25931  1 2980.                EXIT  M1RELSE                 STOP THE MUSIC
 002970                            25934    2981.              END   ,
                                   25938    2982.     *
                                   25939    2983.     *  SEND FILE REQUESTS TO FILE
                                   25940    2984.     *
 002970 9502 6006      00006       25941    2985.              IF    IDTCFIL,BEGIN
 002974 4770 A074            029B0 25951             +
 USING  @GORTYPE-72,R13            25956  1 2986.                PSET  @GORTYPE
 002978 D700 D048 D048 00000 00000 25973  1          +
 00297E 9220 D048      00000       25974  1 2987.                SET   @GRTYPE.@M1FRLSE        SET REQUEST TYPE
 002982 58F0 A8E4/0DEF       03220 25980  1 2988.                ACALL GOFILE
                                   25987  1 2989.     *
                                   25988  1 2990.     *  If the RELEASE request is proceeding, re-enable attentions
                                   25989  1 2991.     *
 002988 5810 704C/1211       0004C 25990  1 2992.                IF    ('LT  RS,SCPGPRS+15*4',Z),BEGIN
 00298E 4770 A06A            029A6 26001  1          +
 002992 BF11 7201/0610       00201 26006  2 2993.                  DECR  RS,SCPKLUDG
 002998 BE11 7201            00201 26010  2          +
1M1SERV   (M1SE00) (09:42) (22MAR04) ORVYL'S Mode 1 I/O SVCs                                                                Page  171
0Current Usings:  (PZERO,R0) (IDT,R6) (SCP,R7) (M1RELSE,R10) (@GORTYPE-72,R13)
0Loc    Object Code    Addr1 Addr2  Stmt Lv Lineno    Source Statement           (Hibal 5, Asmedit 3.3)  HLASM R4.0  2004/03/22 09.42
+___    ______ ____    _____ _____  ____ __ ______    ______ _________
000299C 1211/4770 A06A       029A6 26011  2 2994.                  IF    (RS,Z),'CLEAR SCBCFNMA'   Re-enable multiple attn
 0029A2 94EF 7261      00261       26032  2          +
 0029A6                            26037  1 2995.                END
                                   26041  1 2996.     *
                                   26042  1 2997.     *  Release SVC return must always be zero
                                   26043  1 2998.     *
 0029A6 A06E           029A6 02990 26044  1 2999.                ELSE  'MVC  SCPGPRS+15*4(4),=A(0)'
 0029A6 47F0 A074            029B0 26049  1          +
 0029AA D203 704C A924 0004C 03260 26056  1          +
 0029B0                            26061    3000.              END   ,
                                   26065    3001.     *
                                   26066    3002.     *  ALL OTHERS INVALID
                                   26067    3003.     *
 0029B0 A078           029B0 02976 26068    3004.              ELSE  BEGIN
 0029B0 47F0 A080            029BC 26073             +
 0029B4 9206 71A9      001A9       26079  1 3005.                MVI   SCPPANSY,PANSPEC        NO GOOD
 0029B8 9610 7265      00265       26080  1 3006.                SET   SCBXP                    PANIC EXIT
 0029BC                            26086    3007.              END   ,
 0029BC 981F C008            00008 26090    3008.              PEND
 DROP   IDT,R6
 DROP   SCP,R7
 DROP   M1RELSE,R10
 0029C0 9680 C000/0B0E 00000       26110             +
 DROP   @GORTYPE-72,R13
1M1SERV   (M1SE00) (09:42) (22MAR04) ORVYL'S Mode 1 I/O SVCs                                                                Page  172
0Current Usings:  (PZERO,R0)
0Loc    Object Code    Addr1 Addr2  Stmt Lv Lineno    Source Statement           (Hibal 5, Asmedit 3.3)  HLASM R4.0  2004/03/22 09.42
+___    ______ ____    _____ _____  ____ __ ______    ______ _________
0                                  26120    3010.     *******************************************************************
                                   26121    3011.     *                                                                 *
                                   26122    3012.     *    M1STATUS  - File system STATUS service                       *
                                   26123    3013.     *                                                                 *
                                   26124    3014.     *                                                                 *
                                   26125    3015.     *     Input - RY Points to SCP                                    *
                                   26126    3016.     *                                                                 *
                                   26127    3017.     *    Output -                                                     *
                                   26128    3018.     *                                                                 *
                                   26129    3019.     *                                                                 *
                                   26130    3020.     *******************************************************************
-
 0029C6                            26132    3022.     M1STATUS PROC  ,SCOPE=LOCAL
 0029C6 D4F1E2E3C1E3E4E2           26139             +
 0029CE 0000/0000                  26140             +
 0029D2 900F D004/18AF       00004 26142             +
 USING  M1STATUS,R10
 0029D8 50D0 C000/18CD       00000 26157             +
 0029DE 9680 C000      00000       26159             +
 0029E2 41D0 C048            00048 26160             +
                                   26161    3023.     *
                                   26162    3024.     *  Send requests to FILE
                                   26163    3025.     *
 USING  IDT,R6                     26164    3026.              WITH  (IDT,RX)
 USING  SCP,R7                     26177    3027.              WITH  (SCP,RY)
 0029E6 41F0 A272/0DEF       02C44 26190    3028.              LCALL ASGNIDT                 GET AN AVAILABLE IDT
 0029EC 1260/4770 A028       029FA 26199    3029.              IF    ('LTR  RX,RVR',Z),BEGIN NONE FOUND
 0029F2 4810 A8BA            0328C 26212  1 3030.                LH    RS,=Y(-4)               TOO MANY DEVICES IN USE
 0029F6 5010 704C            0004C 26213  1 3031.                ST    RS,SCPGPRS+15*4         USER RETURN CODE
 0029FA                            26214    3032.              END   ,                       NONE FOUND
 0029FA A02C           029FA 029F0 26218    3033.              ELSE  BEGIN                   GO DO STATUS
 0029FA 47F0 A062            02A34 26223             +
 0029FE 9202 6006      00006       26229  1 3034.                SET   IDTCFIL                 SET FILE CLASS
 USING  @GORTYPE-72,R13            26235  1 3035.                PSET  @GORTYPE
 002A02 D700 D048 D048 00000 00000 26252  1          +
 002A08 9214 D048      00000       26253  1 3036.                SET   @GRTYPE.@M1FSTAT        SET REQUEST TYPE
 002A0C 58F0 A84E/0DEF       03220 26259  1 3037.                ACALL GOFILE
                                   26266  1 3038.     * BAD RETURN FROM STATUS OR PANIC
 002A12 9110 7265      00265       26267  1 3039.                IF    (SCBXP,OR,('LT RS,SCPGPRS+15*4',NZ)),BEGIN
 002A16 4710 A052            02A24 26281  1          +
 002A1A 5810 704C/1211       0004C 26290  1          +
 002A20 4780 A062            02A34 26292  1          +
 DROP   @GORTYPE-72,R13            26297  2 3040.                  PSET  @FREEIDT
 USING  @FREEIDT-72,R13
 002A24 D703 D048 D048 00000 00000 26317  2          +
 002A2A 5060 D048            00000 26318  2 3041.                  PMOV @FRIADDR,LA:IDT
 002A2E 58F0 A852/0DEF       03224 26329  2 3042.                  ACALL FREEIDT
 002A34                            26336  1 3043.                END   ,                       BAD RETURN FROM STATUS
 002A34                            26340    3044.              END   ,                       GO DO STATUS
 002A34 981F C008            00008 26344    3045.              PEND
 DROP   SCP,R7
 DROP   IDT,R6
1M1SERV   (M1SE00) (09:42) (22MAR04) ORVYL'S Mode 1 I/O SVCs                                                                Page  173
0Current Usings:  (PZERO,R0) (@FREEIDT-72,R13)
0Loc    Object Code    Addr1 Addr2  Stmt Lv Lineno    Source Statement           (Hibal 5, Asmedit 3.3)  HLASM R4.0  2004/03/22 09.42
+___    ______ ____    _____ _____  ____ __ ______    ______ _________
0DROP   M1STATUS,R10
 002A38 9680 C000/0B0E 00000       26364             +
 DROP   @FREEIDT-72,R13
1M1SERV   (M1SE00) (09:42) (22MAR04) ORVYL'S Mode 1 I/O SVCs                                                                Page  174
0Current Usings:  (PZERO,R0)
0Loc    Object Code    Addr1 Addr2  Stmt Lv Lineno    Source Statement           (Hibal 5, Asmedit 3.3)  HLASM R4.0  2004/03/22 09.42
+___    ______ ____    _____ _____  ____ __ ______    ______ _________
0                                  26374    3047.     *******************************************************************
                                   26375    3048.     *                                                                 *
                                   26376    3049.     *    M1HALT  - I/O device HALT service                            *
                                   26377    3050.     *                                                                 *
                                   26378    3051.     *                                                                 *
                                   26379    3052.     *     Input - RY Points to SCP                                    *
                                   26380    3053.     *                                                                 *
                                   26381    3054.     *    Output -                                                     *
                                   26382    3055.     *                                                                 *
                                   26383    3056.     *                                                                 *
                                   26384    3057.     *******************************************************************
-
 002A3E                            26386    3059.     M1HALT   PROC  ,SCOPE=LOCAL
 002A3E D4F1C8C1D3E34040           26393             +
 002A46 0000/0000                  26394             +
 002A4A 900F D004/18AF       00004 26396             +
 USING  M1HALT,R10
 002A50 50D0 C000/18CD       00000 26411             +
 002A56 9680 C000      00000       26413             +
 002A5A 41D0 C048            00048 26414             +
 USING  SCP,R7                     26415    3060.              WITH  (SCP,RY)
                                   26428    3061.     *
                                   26429    3062.     *  ONLY CLP CAN ISSUE HALT
                                   26430    3063.     *
 002A5E 9188 7262      00262       26431    3064.              IF    (SCBFCLP+SCBFPCLP,Z),BEGIN
 002A62 4770 A028            02A72 26446             +
 002A66 9201 71A9      001A9       26451  1 3065.                MVI   SCPPANSY,PANOPER       OPERATION EXCEPTION
 002A6A 9610 7265      00265       26452  1 3066.                SET   SCBXP                   ENTER PANIC EXIT
 002A6E 47F0 A110            02B5A 26458  1 3067.                EXIT  M1HALT
 002A72                            26461    3068.              END   ,
                                   26465    3069.     *
                                   26466    3070.     *  GET IDT POINTER
                                   26467    3071.     *
 002A72 58F0 A7FE/0DEF       03248 26468    3072.              ACALL FINDIDT
 002A78 1260/4780 A110       02B5A 26475    3073.              IF    ('LTR  RX,RVR',Z),EXIT
 USING  IDT,R6                     26491    3074.              WITH  (IDT,RX)
                                   26504    3075.     *
                                   26505    3076.     *  NO I/O REQUEST IS OUTSTANDING
                                   26506    3077.     *
 002A7E 9140 6005      00005       26507    3078.              IF    IDTFPOST,BEGIN
 002A82 47E0 A05C            02AA6 26517             +
 002A86 1FFF/43F0 6007       00007 26522  1 3079.                LC    R15,IDTID               PROPER IDT NUMBER
 002A8C 50F0 7010            00010 26529  1 3080.                ST    R15,SCPGPRS+0*4         RETURN TO USER
 002A90 1B00                       26530  1 3081.                CLEAR RVR
 002A92 5000 704C            0004C 26534  1 3082.                ST    RVR,SCPGPRS+15*4        SVC RETURN CODE
 002A96 5000 6010            00010 26535  1 3083.                ST    RVR,IDTR15              WAIT RETURN CODE
 002A9A 9608 6004      00004       26536  1 3084.                SET   IDTFR15
 002A9E 94CF 6004      00004       26542  1 3085.                CLEAR IDTFR14+IDTFR1          NO VALUE IN R1 OR R14
 002AA2 47F0 A110            02B5A 26552  1 3086.                EXIT  M1HALT                  ALL DONE
 002AA6                            26555    3087.              END   ,
1M1SERV   (M1SE00) (09:42) (22MAR04) ORVYL'S Mode 1 I/O SVCs                                                                Page  175
0Current Usings:  (PZERO,R0) (IDT,R6) (SCP,R7) (M1HALT,R10)
0Loc    Object Code    Addr1 Addr2  Stmt Lv Lineno    Source Statement           (Hibal 5, Asmedit 3.3)  HLASM R4.0  2004/03/22 09.42
+___    ______ ____    _____ _____  ____ __ ______    ______ _________
0                                  26560    3089.     *
                                   26561    3090.     *  SEND REQUEST TO TERMINAL DRIVER
                                   26562    3091.     *
 002AA6 9501 6006      00006       26563    3092.              IF    IDTCTRM,BEGIN
 002AAA 4770 A074            02ABE 26573             +
 USING  @GORTYPE-72,R13            26578  1 3093.                PSET  @GORTYPE
 002AAE D700 D048 D048 00000 00000 26595  1          +
 002AB4 9210 D048      00000       26596  1 3094.                SET   @GRTYPE.@M1THALT        MARK HALT REQUEST
 002AB8 58F0 A806/0DEF       03250 26602  1 3095.                ACALL GOTERM                  GO DO IT
 002ABE                            26609    3096.              END   ,
                                   26613    3097.     *
                                   26614    3098.     *  SEND FILE REQUESTS TO FILE DRIVER
                                   26615    3099.     *
 002ABE A078           02ABE 02AAC 26616    3100.              ELSEIF IDTCFIL,BEGIN
 002ABE 47F0 A09E            02AE8 26622             +
 002AC2 9502 6006      00006       26634             +
 002AC6 4770 A09E            02AE8 26635             +
 DROP   @GORTYPE-72,R13            26640  1 3101.                PSET  @FILEHALT
 USING  @FILEHALT-72,R13
 002ACA D703 D048 D048 00000 00000 26660  1          +
 002AD0 D203 D048 6024 00000 00024 26661  1 3102.                MVC   @FHRQID,IDTDEVID       JONATHAN WANTS RQB POINTER
 002AD6 58F0 A81A/0DEF       03264 26662  1 3103.                VCALL FILEHALT
 002ADC 94C7 6004      00004       26666  1 3104.                CLEAR IDTFR1+IDTFR14+IDTFR15 Clear wait return regs
 002AE0 9640 6005      00005       26680  1 3105.                SET   IDTFPOST               Set to posted
 002AE4 9680 6005      00005       26686  1 3106.                SET   IDTFWD                 Wait not necessary
 002AE8                            26692    3107.              END   ,
                                   26696    3108.     *
                                   26697    3109.     *  SEND REQUEST TO SCOM DRIVER
                                   26698    3110.     *
 002AE8 A0A2           02AE8 02AC8 26699    3111.              ELSEIF IDTCSCM,BEGIN
 002AE8 47F0 A0BA            02B04 26705             +
 002AEC 9504 6006      00006       26717             +
 002AF0 4770 A0BA            02B04 26718             +
 DROP   @FILEHALT-72,R13           26723  1 3112.                PSET  @GORTYPE
 USING  @GORTYPE-72,R13
 002AF4 D700 D048 D048 00000 00000 26743  1          +
 002AFA 9210 D048      00000       26744  1 3113.                SET   @GRTYPE.@M1PHALT        MARK HALT REQUEST
 002AFE 58F0 A7E6/0DEF       03230 26750  1 3114.                ACALL GOPATH                  GO DO IT
 002B04                            26757    3115.              END   ,
                                   26761    3116.     *
                                   26762    3117.     *  SEND REQUEST TO JES DRIVER
                                   26763    3118.     *
 002B04 A0BE           02B04 02AF2 26764    3119.              ELSEIF IDTCJES,BEGIN
 002B04 47F0 A0D6            02B20 26770             +
 002B08 9506 6006      00006       26782             +
 002B0C 4770 A0D6            02B20 26783             +
 002B10                            26788  1 3120.                PSET  @GORTYPE
 002B10 D700 D048 D048 00000 00000 26798  1          +
 002B16 9210 D048      00000       26799  1 3121.                SET   @GRTYPE.@M1JHALT        MARK HALT REQUEST
 002B1A 58F0 A7EE/0DEF       03238 26805  1 3122.                ACALL GOJES                   GO DO IT
 002B20                            26812    3123.              END   ,
                                   26816    3124.     *
                                   26817    3125.     *  SEND REQUEST TO NET DRIVER
                                   26818    3126.     *
1M1SERV   (M1SE00) (09:42) (22MAR04) ORVYL'S Mode 1 I/O SVCs                                                                Page  176
0Current Usings:  (PZERO,R0) (IDT,R6) (SCP,R7) (M1HALT,R10) (@GORTYPE-72,R13)
0Loc    Object Code    Addr1 Addr2  Stmt Lv Lineno    Source Statement           (Hibal 5, Asmedit 3.3)  HLASM R4.0  2004/03/22 09.42
+___    ______ ____    _____ _____  ____ __ ______    ______ _________
0002B20 A0DA           02B20 02B0E 26819    3127.              ELSEIF IDTCNET,BEGIN
 002B20 47F0 A0F2            02B3C 26825             +
 002B24 9507 6006      00006       26837             +
 002B28 4770 A0F2            02B3C 26838             +
 002B2C                            26843  1 3128.                PSET  @GORTYPE
 002B2C D700 D048 D048 00000 00000 26853  1          +
 002B32 9214 D048      00000       26854  1 3129.                SET   @GRTYPE.@M1NHALT        MARK HALT REQUEST
 002B36 58F0 A7FA/0DEF       03244 26860  1 3130.                ACALL GONET                   GO DO IT
 002B3C                            26867    3131.              END   ,
                                   26871    3132.     *
                                   26872    3133.     *  PROCESS REQUESTS FOR ENQ/DEQ
                                   26873    3134.     *
 002B3C A0F6           02B3C 02B2A 26874    3135.              ELSEIF IDTCENQ,BEGIN
 002B3C 47F0 A110            02B5A 26880             +
 002B40 9505 6006      00006       26892             +
 002B44 4770 A110            02B5A 26893             +
 DROP   @GORTYPE-72,R13            26898  1 3136.                PSET  @M1EQHLT
 USING  @M1EQHLT-72,R13
 002B48 D703 D048 D048 00000 00000 26918  1          +
 002B4E D203 D048 6024 00000 00024 26919  1 3137.                MVC   @M1EHDEV,IDTDEVID       PROVIDE THE DEVICE ID
 002B54 58F0 A81E/0DEF       03268 26920  1 3138.                ACALL M1ENQHLT                HALT THE REQUEST
 002B5A                            26927    3139.              END   ,
 002B5A 981F C008            00008 26931    3140.              PEND
 DROP   IDT,R6
 DROP   SCP,R7
 DROP   M1HALT,R10
 002B5E 9680 C000/0B0E 00000       26951             +
 DROP   @M1EQHLT-72,R13
1M1SERV   (M1SE00) (09:42) (22MAR04) ORVYL'S Mode 1 I/O SVCs                                                                Page  177
0Current Usings:  (PZERO,R0)
0Loc    Object Code    Addr1 Addr2  Stmt Lv Lineno    Source Statement           (Hibal 5, Asmedit 3.3)  HLASM R4.0  2004/03/22 09.42
+___    ______ ____    _____ _____  ____ __ ______    ______ _________
0                                  26961    3142.     *******************************************************************
                                   26962    3143.     *                                                                 *
                                   26963    3144.     *    MILCOM - Mode 1 MILTEN Communication SVC                     *
                                   26964    3145.     *                                                                 *
                                   26965    3146.     *                                                                 *
                                   26966    3147.     *     Input - RY Points to SCP                                    *
                                   26967    3148.     *                                                                 *
                                   26968    3149.     *    Output - None                                                *
                                   26969    3150.     *                                                                 *
                                   26970    3151.     *                                                                 *
                                   26971    3152.     *******************************************************************
-
 002B64                            26973    3154.     MILCOM   PROC  ,SCOPE=LOCAL
 002B64 D4C9D3C3D6D44040           26980             +
 002B6C 0000/0000                  26981             +
 002B70 900F D004/18AF       00004 26983             +
 USING  MILCOM,R10
 002B76 50D0 C000/18CD       00000 26998             +
 002B7C 9680 C000      00000       27000             +
 002B80 41D0 C048            00048 27001             +
 USING  SCP,R7                     27002    3155.              WITH  (SCP,RY)
                                   27015    3156.     *
                                   27016    3157.     *  MILCOM NO LONGER USED - RETURN ERROR
                                   27017    3158.     *
 002B84 9206 71A9      001A9       27018    3159.              MVI   SCPPANSY,PANSPEC       SPEC ERROR
 002B88 9610 7265      00265       27019    3160.              SET   SCBXP                   ENTER PANIC EXIT
 002B8C 981F C008            00008 27025    3161.              PEND
 DROP   SCP,R7
 DROP   MILCOM,R10
 002B90 9680 C000/0B0E 00000       27040             +
1M1SERV   (M1SE00) (09:42) (22MAR04) ORVYL'S Mode 1 I/O SVCs                                                                Page  178
0Current Usings:  (PZERO,R0)
0Loc    Object Code    Addr1 Addr2  Stmt Lv Lineno    Source Statement           (Hibal 5, Asmedit 3.3)  HLASM R4.0  2004/03/22 09.42
+___    ______ ____    _____ _____  ____ __ ______    ______ _________
0                                  27047    3163.     *******************************************************************
                                   27048    3164.     *                                                                 *
                                   27049    3165.     *   SERVICE - Mode 1 SERVICE SVC                                  *
                                   27050    3166.     *                                                                 *
                                   27051    3167.     *                                                                 *
                                   27052    3168.     *     Input - RY Points to SCP                                    *
                                   27053    3169.     *                                                                 *
                                   27054    3170.     *    Output - None                                                *
                                   27055    3171.     *                                                                 *
                                   27056    3172.     *                                                                 *
                                   27057    3173.     *******************************************************************
-
 002B96                            27059    3175.     SERVICE  PROC  ,SCOPE=LOCAL
 002B96 E2C5D9E5C9C3C540           27066             +
 002B9E 0000/0000                  27067             +
 002BA2 900F D004/18AF       00004 27069             +
 USING  SERVICE,R10
 002BA8 50D0 C000/18CD       00000 27084             +
 002BAE 9680 C000      00000       27086             +
 002BB2 41D0 C048            00048 27087             +
 USING  SCP,R7                     27088    3176.              WITH  (SCP,RY)
                                   27101    3177.     *
                                   27102    3178.     *  SERVICE NO LONGER USED - RETURN ERROR
                                   27103    3179.     *
 002BB6 9206 71A9      001A9       27104    3180.              MVI   SCPPANSY,PANSPEC       SPEC ERROR
 002BBA 9610 7265      00265       27105    3181.              SET   SCBXP                   ENTER PANIC EXIT
 002BBE 981F C008            00008 27111    3182.              PEND
 DROP   SCP,R7
 DROP   SERVICE,R10
 002BC2 9680 C000/0B0E 00000       27126             +
1M1SERV   (M1SE00) (09:42) (22MAR04) ORVYL'S Mode 1 I/O SVCs                                                                Page  179
0Current Usings:  (PZERO,R0)
0Loc    Object Code    Addr1 Addr2  Stmt Lv Lineno    Source Statement           (Hibal 5, Asmedit 3.3)  HLASM R4.0  2004/03/22 09.42
+___    ______ ____    _____ _____  ____ __ ______    ______ _________
0                                  27133    3184.     *******************************************************************
                                   27134    3185.     *                                                                 *
                                   27135    3186.     *    @GORTYPE - Request type                                     *
                                   27136    3187.     *                                                                 *
                                   27137    3188.     *******************************************************************
0000000                00000 00001 27139    3190.     @GORTYPE RECORD BEGIN
 000000                            27147  1 3191.     @GRTYPE    DS    X                       REQUEST TYPE
 000001                00001 00001 27148    3192.              END   ,
-
                                   27158    3194.     *******************************************************************
                                   27159    3195.     *                                                                 *
                                   27160    3196.     *    GTRMWORK - Terminal driver work area                         *
                                   27161    3197.     *                                                                 *
                                   27162    3198.     *******************************************************************
0000000                00000 0000C 27164    3200.     GTRMWORK RECORD BEGIN
 000000                            27172  1 3201.     GTRMCLCK   DS    D                       CLOCK SAVE
 000008                            27173  1 3202.     GTRMIOS    DS    A                       I/O COUNT
 00000C                0000C 0000C 27174    3203.              END   ,
-
                                   27184    3205.     *******************************************************************
                                   27185    3206.     *                                                                 *
                                   27186    3207.     *    @FREEIDT - Free IDT routine parameters                       *
                                   27187    3208.     *                                                                 *
                                   27188    3209.     *******************************************************************
0000000                00000 00004 27190    3211.     @FREEIDT RECORD BEGIN
 000000                            27198  1 3212.     @FRIADDR   DS    A                       IDT POINTER
 000004                00004 00004 27199    3213.              END   ,
1M1SERV   (M1SE00) (09:42) (22MAR04) ORVYL'S Mode 1 I/O SVCs                                                                Page  180
0Current Usings:  (PZERO,R0)
0Loc    Object Code    Addr1 Addr2  Stmt Lv Lineno    Source Statement           (Hibal 5, Asmedit 3.3)  HLASM R4.0  2004/03/22 09.42
+___    ______ ____    _____ _____  ____ __ ______    ______ _________
0                                  27209    3215.     *******************************************************************
                                   27210    3216.     *                                                                 *
                                   27211    3217.     *   FINDIDT - Convert user supplied ID number to                  *
                                   27212    3218.     *             IDT pointer for I/O routines                        *
                                   27213    3219.     *                                                                 *
                                   27214    3220.     *                                                                 *
                                   27215    3221.     *     Input - None                                                *
                                   27216    3222.     *             RY Points to SCP                                    *
                                   27217    3223.     *                                                                 *
                                   27218    3224.     *    Output -                                                     *
                                   27219    3225.     *                                                                 *
                                   27220    3226.     *                                                                 *
                                   27221    3227.     *******************************************************************
-
 002BC8                            27223    3229.     FINDIDT  PROC  ,SCOPE=LOCAL
 002BC8 C6C9D5C4C9C4E340           27230             +
 002BD0 0000/0000                  27231             +
 002BD4 900F D004/18AF       00004 27233             +
 USING  FINDIDT,R10
 002BDA 50D0 C000/18CD       00000 27248             +
 002BE0 9680 C000      00000       27250             +
 002BE4 41D0 C048            00048 27251             +
 USING  SCP,R7                     27252    3230.              WITH  (SCP,RY)
 002BE8 1B00                       27265    3231.              CLEAR RVR                     ASSUME ERROR
 002BEA 5860 7010            00010 27269    3232.              L     RX,SCPGPRS+0*4          GET REGISTER ZERO
 002BEE 1066                       27270    3233.              LPR   RX,RX                   IDT NUMBER
                                   27271    3234.     *
                                   27272    3235.     *  Must be in proper range
                                   27273    3236.     *
 002BF0 1266/4780 A02A       02BFE 27274    3237.              IF    ((RX,Z),OR,(RX,GT,SCPNIDT)),BEGIN
 002BF6 4960 7210            00210 27298             +
 002BFA 47D0 A036            02C0A 27299             +
 002BFE 9206 71A9      001A9       27304  1 3238.                MVI   SCPPANSY,PANSPEC        ERROR TYPE
 002C02 9610 7265      00265       27305  1 3239.                SET   SCBXP                   ENTER PANIC ROUTINE
 002C06 47F0 A05A            02C2E 27311  1 3240.                EXIT  FINDIDT
 002C0A                            27314    3241.              END   ,
                                   27318    3242.     *
                                   27319    3243.     *  GET POINTER
                                   27320    3244.     *
 002C0A 0660                       27321    3245.              DECR  RX
 002C0C 4C60 A6BC            03290 27323    3246.              MH    RX,=Y(L'IDT)
 002C10 5E60 720C            0020C 27324    3247.              AL    RX,SCPIDT               FIRST IDT
 USING  IDT,R6                     27325    3248.              WITH  (IDT,RX)
1M1SERV   (M1SE00) (09:42) (22MAR04) ORVYL'S Mode 1 I/O SVCs                                                                Page  181
0Current Usings:  (PZERO,R0) (IDT,R6) (SCP,R7) (FINDIDT,R10)
0Loc    Object Code    Addr1 Addr2  Stmt Lv Lineno    Source Statement           (Hibal 5, Asmedit 3.3)  HLASM R4.0  2004/03/22 09.42
+___    ______ ____    _____ _____  ____ __ ______    ______ _________
0                                  27339    3250.     *
                                   27340    3251.     *  MAKE SURE DEVICE ATTACHED
                                   27341    3252.     *
 002C14 91C0 6004      00004       27342    3253.              IF    (IDTFA+IDTFACL,Z),BEGIN
 002C18 4770 A054            02C28 27357             +
 002C1C 9206 71A9      001A9       27362  1 3254.                MVI   SCPPANSY,PANSPEC        ERROR TYPE
 002C20 9610 7265      00265       27363  1 3255.                SET   SCBXP                   ENTER PANIC ROUTINE
 002C24 47F0 A05A            02C2E 27369  1 3256.                EXIT  FINDIDT
 002C28                            27372    3257.              END   ,
 002C28 A058           02C28 02C1A 27376    3258.              ELSE  'LR  RVR,RX'
 002C28 47F0 A05A/1806       02C2E 27381             +
 002C2E 981F C008            00008 27393    3259.              PEND
 DROP   IDT,R6
 DROP   SCP,R7
 DROP   FINDIDT,R10
 002C32 9680 C000/0B0E 00000       27413             +
1M1SERV   (M1SE00) (09:42) (22MAR04) ORVYL'S Mode 1 I/O SVCs                                                                Page  182
0Current Usings:  (PZERO,R0)
0Loc    Object Code    Addr1 Addr2  Stmt Lv Lineno    Source Statement           (Hibal 5, Asmedit 3.3)  HLASM R4.0  2004/03/22 09.42
+___    ______ ____    _____ _____  ____ __ ______    ______ _________
0                                  27420    3261.     *******************************************************************
                                   27421    3262.     *                                                                 *
                                   27422    3263.     *   ASGNIDT - Find an available IDT for ATTACH                    *
                                   27423    3264.     *                                                                 *
                                   27424    3265.     *                                                                 *
                                   27425    3266.     *     Input - None                                                *
                                   27426    3267.     *             RY Points to SCP                                    *
                                   27427    3268.     *                                                                 *
                                   27428    3269.     *    Output -                                                     *
                                   27429    3270.     *                                                                 *
                                   27430    3271.     *                                                                 *
                                   27431    3272.     *******************************************************************
-
 002C38                            27433    3274.     ASGNIDT  PROC  ,SCOPE=LOCAL
 002C38 C1E2C7D5C9C4E340           27440             +
 002C40 0000/0000                  27441             +
 002C44 900F D004/18AF       00004 27443             +
 USING  ASGNIDT,R10
 002C4A 50D0 C000/18CD       00000 27458             +
 002C50 9680 C000      00000       27460             +
 002C54 41D0 C048            00048 27461             +
 USING  SCP,R7                     27462    3275.              WITH  (SCP,RY)
                                   27475    3276.     *
                                   27476    3277.     *  SEARCH THROUGH IDT'S
                                   27477    3278.     *
 002C58 4830 7210            00210 27478    3279.              LH    RB,SCPNIDT
 002C5C 0630                       27479    3280.              DECR  RB                      LAST IDT
 002C5E 0630                       27481    3281.              DECR  RB                      RESERVE LAST ONE FOR ENQ
 002C60 4C30 A64C            03290 27483    3282.              MH    RB,=Y(L'IDT)
 002C64 5E30 720C            0020C 27484    3283.              AL    RB,SCPIDT               LAST IDT
 002C68 5820 720C            0020C 27485    3284.              L     RA,SCPIDT               FIRST IDT
 002C6C 1923/47B0 A06E       02CB2 27486    3285.              WHILE (RA,LT,RB),BEGIN
 USING  IDT,R2                     27503  1 3286.                WITH  (IDT,RA)
 002C72 91C0 2004      00004       27516  1 3287.                IF    (IDTFA+IDTFACL,Z),BEGIN   AVAILABLE
 002C76 4770 A066            02CAA 27531  1          +
                                   27536  2 3288.     *
                                   27537  2 3289.     *  ASSIGN AN AVAILABLE IDT
                                   27538  2 3290.     *
 002C7A 1F11/4310 2007       00007 27539  2 3291.                  LC    RS,IDTID                IDT NUMBER
 002C80                            27546  2 3292.                  CLEAR IDT                     MAKE IT LIKE NEW
 002C80 D737 2000 2000 00000 00000 27552  2          +
 002C86 D203 2000 A628 00000 0326C 27553  2 3293.                  MVC   IDT(4),=CL4'IDT'        REPLACE EYE CATCHER
 002C8C 4210 2007            00007 27554  2 3294.                  STC   RS,IDTID                 AND IDT NUMBER
 002C90 9180 7262      00262       27555  2 3295.                  IF    SCBFCLP,'SET  IDTFACL'   CLP DOING ATTACH
 002C94 47E0 A058            02C9C 27565  2          +
 002C98 9640 2004      00004       27576  2          +
 002C9C A05C           02C9C 02C96 27581  2 3296.                  ELSE  'SET IDTFA'             USER DOING ATTACH
 002C9C 47F0 A060            02CA4 27586  2          +
 002CA0 9680 2004      00004       27598  2          +
 002CA4 1802                       27603  2 3297.                  LR    RVR,RA
 002CA6 47F0 A076            02CBA 27604  2 3298.                  EXIT  ASGNIDT
 002CAA                            27607  1 3299.                END   ,
1M1SERV   (M1SE00) (09:42) (22MAR04) ORVYL'S Mode 1 I/O SVCs                                                                Page  183
0Current Usings:  (PZERO,R0) (IDT,R2) (SCP,R7) (ASGNIDT,R10)
0Loc    Object Code    Addr1 Addr2  Stmt Lv Lineno    Source Statement           (Hibal 5, Asmedit 3.3)  HLASM R4.0  2004/03/22 09.42
+___    ______ ____    _____ _____  ____ __ ______    ______ _________
0002CAA 4120 2038            00038 27611  1 3300.                LA    RA,IDT+L'IDT            NEXT IDT
 002CAE 47F0 A028            02C6C 27612    3301.              END   ,
 DROP   IDT,R2
1M1SERV   (M1SE00) (09:42) (22MAR04) ORVYL'S Mode 1 I/O SVCs                                                                Page  184
0Current Usings:  (PZERO,R0) (SCP,R7) (ASGNIDT,R10)
0Loc    Object Code    Addr1 Addr2  Stmt Lv Lineno    Source Statement           (Hibal 5, Asmedit 3.3)  HLASM R4.0  2004/03/22 09.42
+___    ______ ____    _____ _____  ____ __ ______    ______ _________
0                                  27623    3303.     *
                                   27624    3304.     *  NONE AVAILABLE
                                   27625    3305.     *
 002CB2 D203 704C A62C 0004C 03270 27626    3306.              MVC   SCPGPRS+15*4(4),=A(-4)  DEVICE TABLE FULL
 002CB8 1B00                       27627    3307.              CLEAR RVR
 002CBA 981F C008            00008 27631    3308.              PEND
 DROP   SCP,R7
 DROP   ASGNIDT,R10
 002CBE 9680 C000/0B0E 00000       27646             +
1M1SERV   (M1SE00) (09:42) (22MAR04) ORVYL'S Mode 1 I/O SVCs                                                                Page  185
0Current Usings:  (PZERO,R0)
0Loc    Object Code    Addr1 Addr2  Stmt Lv Lineno    Source Statement           (Hibal 5, Asmedit 3.3)  HLASM R4.0  2004/03/22 09.42
+___    ______ ____    _____ _____  ____ __ ______    ______ _________
0                                  27653    3310.     *******************************************************************
                                   27654    3311.     *                                                                 *
                                   27655    3312.     *   FREEIDT - Free an IDT                                         *
                                   27656    3313.     *                                                                 *
                                   27657    3314.     *                                                                 *
                                   27658    3315.     *     Input - @FREEIDT                                            *
                                   27659    3316.     *             RY Points to SCP                                    *
                                   27660    3317.     *                                                                 *
                                   27661    3318.     *    Output -                                                     *
                                   27662    3319.     *                                                                 *
                                   27663    3320.     *                                                                 *
                                   27664    3321.     *******************************************************************
-
 002CC4                            27666    3323.     FREEIDT  PROC  @FREEIDT,SCOPE=LOCAL
 002CC4 C6D9C5C5C9C4E340           27673             +
 002CCC 0008/0000                  27674             +
 002CD0 900F D004/18AF       00004 27676             +
 USING  FREEIDT,R10
 002CD6 50D0 C000/18CD       00000 27691             +
 002CDC 9680 C000      00000       27693             +
 USING  @FREEIDT-72,R12
 002CE0 41D0 C050            00050 27707             +
 USING  SCP,R7                     27708    3324.              WITH  (SCP,RY)
 002CE4 5860 C048            00000 27721    3325.              L     RX,@FRIADDR             IDT POINTER
 USING  IDT,R6                     27722    3326.              WITH  (IDT,RX)
                                   27735    3327.     *
                                   27736    3328.     *  MAKE IT AVAILABLE
                                   27737    3329.     *
 002CE8 1F11/4310 6007       00007 27738    3330.              LC    RS,IDTID                IDT NUMBER
 002CEE                            27745    3331.              CLEAR IDT                     MAKE IT LIKE NEW
 002CEE D737 6000 6000 00000 00000 27751             +
 002CF4 D203 6000 A59C 00000 0326C 27752    3332.              MVC   IDT(4),=CL4'IDT'        REPLACE EYE CATCHER
 002CFA 4210 6007            00007 27753    3333.              STC   RS,IDTID                 AND IDT NUMBER
 002CFE 981F C008            00008 27754    3334.              PEND
 DROP   IDT,R6
 DROP   SCP,R7
 DROP   @FREEIDT-72,R12
 DROP   FREEIDT,R10
 002D02 9680 C000/0B0E 00000       27779             +
1M1SERV   (M1SE00) (09:42) (22MAR04) ORVYL'S Mode 1 I/O SVCs                                                                Page  186
0Current Usings:  (PZERO,R0)
0Loc    Object Code    Addr1 Addr2  Stmt Lv Lineno    Source Statement           (Hibal 5, Asmedit 3.3)  HLASM R4.0  2004/03/22 09.42
+___    ______ ____    _____ _____  ____ __ ______    ______ _________
0                                  27786    3336.     *******************************************************************
                                   27787    3337.     *                                                                 *
                                   27788    3338.     *    GOFILE - Send I/O requests to FILE and device driver         *
                                   27789    3339.     *                                                                 *
                                   27790    3340.     *                                                                 *
                                   27791    3341.     *     Input - @GORTYPE                                             *
                                   27792    3342.     *             RY Points to SCP                                    *
                                   27793    3343.     *                                                                 *
                                   27794    3344.     *    Output -                                                     *
                                   27795    3345.     *                                                                 *
                                   27796    3346.     *                                                                 *
                                   27797    3347.     *******************************************************************
-
 002D08                            27799    3349.     GOFILE   PROC  @GORTYPE,SCOPE=LOCAL
 002D08 C7D6C6C9D3C54040           27806             +
 002D10 0008/0000                  27807             +
 002D14 900F D004/18AF       00004 27809             +
 USING  GOFILE,R10
 002D1A 50D0 C000/18CD       00000 27824             +
 002D20 9680 C000      00000       27826             +
 USING  @GORTYPE-72,R12
 002D24 41D0 C050            00050 27840             +
 USING  SCP,R7                     27841    3350.              WITH  (SCP,RY)
 USING  IDT,R6                     27854    3351.              WITH  (IDT,RX)
0USING  @M1FILE-72,R13             27868    3353.              PSET  @M1FILE
 002D28 D728 D048 D048 00000 00000 27885             +
 002D2E                            27886    3354.              PMOV  @M1FTYPE,@GRTYPE    Set request type
 002D2E D200 D070 C048 00028 00000 27890             +
 002D34 D200 D06E 7009 00026 00009 27891    3355.              MVC   @M1FPKEY,SCPPSW+1   PSW key
 002D3A 94F0 D06E      00026       27892    3356.              NI    @M1FPKEY,X'F0'      Only first nibble
 002D3E                            27893    3357.              PMOV  @M1FPRIV,SCPPRIV    Signed on user privileges
 002D3E D200 D06F 71B7 00027 001B7 27897             +
 002D44 9801 7010            00010 27898    3358.              LM    R0,R1,SCPGPRS+0*4   User input registers
 002D48 98EF 7048            00048 27899    3359.              LM    R14,R15,SCPGPRS+14*4
 002D4C 90E1 D048            00000 27900    3360.              STM   R14,R1,@M1FR14      Set
 002D50 5060 D064            0001C 27901    3361.              ST    RX,@M1FRQID         Set request id
 002D54                            27902    3362.              PMOV  @M1FILID,IDTID      Set file id
 002D54 D200 D06C 6007 00024 00007 27906             +
 002D5A                            27907    3363.              PMOV  @M1FDVID,IDTDEVID   Pass this field back and forth
 002D5A D203 D068 6024 00020 00024 27911             +
 002D60 94C7 6004      00004       27912    3364.              CLEAR IDTFR1+IDTFR14+IDTFR15 Clear wait return regs
 002D64 94BF 6005      00005       27926    3365.              CLEAR IDTFPOST            Clear IO posted
 002D68 947F 6005      00005       27933    3366.              CLEAR IDTFWD              Must issue wait SVC
 002D6C 9188 7262      00262       27940    3367.              IF    SCBFCLP+SCBFPCLP,'SET @M1FCLP' Set CLP
 002D70 4780 A064            02D78 27953             +
 002D74 9680 D06D      00025       27964             +
 002D78 58E0 7268/12EE       00268 27969    3368.              IF    ('LT R14,SCBSPB',NZ),BEGIN
 002D7E 4780 A07A            02D8E 27980             +
 USING  SPB,R14                    27985  1 3369.                WITH  (SPB,R14),BEGIN
 002D82 9180 E044      00044       27999  2 3370.                  IF    SPBFSPI,'SET @M1FSPI' Set spires attach
 002D86 47E0 A07A            02D8E 28009  2          +
1M1SERV   (M1SE00) (09:42) (22MAR04) ORVYL'S Mode 1 I/O SVCs                                                                Page  187
0Current Usings:  (PZERO,R0) (IDT,R6) (SCP,R7) (GOFILE,R10) (@GORTYPE-72,R12) (@M1FILE-72,R13) (SPB,R14)
0Loc    Object Code    Addr1 Addr2  Stmt Lv Lineno    Source Statement           (Hibal 5, Asmedit 3.3)  HLASM R4.0  2004/03/22 09.42
+___    ______ ____    _____ _____  ____ __ ______    ______ _________
0002D8A 9640 D06D      00025       28020  2          +
 DROP   SPB,R14                    28025  1 3371.                END   ,                   With SPB
 002D8E                            28033    3372.              END   ,                   If SPB pointer
 002D8E 9180 700C      0000C       28037    3373.              TM    SCPPSW+4,X'80'      31 bit mode?
 002D92 47E0 A086            02D9A 28038    3374.              IF    O,'SET @M1FM31'     Yes
 002D96 9620 D06D      00025       28055             +
0002D9A 58F0 A560/0DEF       03274 28061    3376.              VCALL M1FILE              Call FILEMAN
0002DA0 1200/47B0 A0A2       02DB6 28066    3378.              IF    (RVR,M),BEGIN
 002DA6 9640 6005      00005       28080  1 3379.                SET   IDTFPOST            Reset to posted
 002DAA 9680 6005      00005       28086  1 3380.                SET   IDTFWD              Reset to wait done
 002DAE 4200 71A9            001A9 28092  1 3381.                STC   RVR,SCPPANSY        Time to panic
 002DB2 9610 7265      00265       28093  1 3382.                SET   SCBXP
 002DB6                            28099    3383.              END   ,
0002DB6 A0A6           02DB6 02DA4 28104    3385.              ELSE  BEGIN               Don't panic
 002DB6 47F0 A138            02E4C 28109             +
 002DBA D203 7010 D050 00010 00008 28115  1 3386.                MVC   SCPGPRS+0*4(4),@M1FR00 Get return user registers
 002DC0 D203 7014 D054 00014 0000C 28116  1 3387.                MVC   SCPGPRS+1*4(4),@M1FR01
 002DC6 D203 704C D04C 0004C 00004 28117  1 3388.                MVC   SCPGPRS+15*4(4),@M1FR15
 002DCC D203 7048 D048 00048 00000 28118  1 3389.                MVC   SCPGPRS+14*4(4),@M1FR14
 002DD2 D203 6024 D068 00024 00020 28119  1 3390.                MVC   IDTDEVID,@M1FDVID   Pass this field back and forth
 002DD8                            28120  1 3391.                IF    (IDTDEVID,Z),'SET IDTFFIDT' Free IDT at wait
 002DD8 D603 6024 6024 00024 00024 28130  1          +
 002DDE 4770 A0D2            02DE6 28131  1          +
 002DE2 9608 6005      00005       28142  1          +
0002DE6                            28148  1 3393.                IF    (@M1FR15,Z),BEGIN   Not error
 002DE6 D603 D04C D04C 00004 00004 28158  1          +
 002DEC 4770 A122            02E36 28159  1          +
                                   28164  2 3394.     * Note: IO completion routine will set wait returns when IO necessary
 002DF0 1200/4780 A122       02E36 28165  2 3395.                  IF    (RVR,NZ),BEGIN      No IO necessary
 002DF6 9640 6005      00005       28179  3 3396.                    SET   IDTFPOST            Reset to posted
 002DFA                            28185  3 3397.                    IF    (@M1FWR14,NE,=X'80000000'),'SET IDTFR14'
 002DFA D503 A564 D058 03278 00010 28195  3          +
 002E00 4780 A0F4            02E08 28196  3          +
 002E04 9610 6004      00004       28207  3          +
 002E08                            28212  3 3398.                    IF    (@M1FWR15,NE,=X'80000000'),'SET IDTFR15'
 002E08 D503 A564 D05C 03278 00014 28222  3          +
 002E0E 4780 A102            02E16 28223  3          +
 002E12 9608 6004      00004       28234  3          +
 002E16                            28239  3 3399.                    IF    (@M1FWR01,NE,=X'80000000'),'SET IDTFR1'
 002E16 D503 A564 D060 03278 00018 28249  3          +
 002E1C 4780 A110            02E24 28250  3          +
 002E20 9620 6004      00004       28261  3          +
 002E24 D203 600C D058 0000C 00010 28266  3 3400.                    MVC   IDTR14,@M1FWR14     Set wait return values
 002E2A D203 6010 D05C 00010 00014 28267  3 3401.                    MVC   IDTR15,@M1FWR15
 002E30 D203 6008 D060 00008 00018 28268  3 3402.                    MVC   IDTR1,@M1FWR01
 002E36                            28269  2 3403.                  END   ,                   No IO necessary
 002E36                            28273  1 3404.                END   ,                   Not error
 002E36 A126           02E36 02DEE 28277  1 3405.                ELSE  BEGIN               Error return
 002E36 47F0 A138            02E4C 28282  1          +
 002E3A 9640 6005      00005       28288  2 3406.                  SET   IDTFPOST            Reset to posted
1M1SERV   (M1SE00) (09:42) (22MAR04) ORVYL'S Mode 1 I/O SVCs                                                                Page  188
0Current Usings:  (PZERO,R0) (IDT,R6) (SCP,R7) (GOFILE,R10) (@GORTYPE-72,R12) (@M1FILE-72,R13)
0Loc    Object Code    Addr1 Addr2  Stmt Lv Lineno    Source Statement           (Hibal 5, Asmedit 3.3)  HLASM R4.0  2004/03/22 09.42
+___    ______ ____    _____ _____  ____ __ ______    ______ _________
0002E3E 9680 6005      00005       28294  2 3407.                  SET   IDTFWD              Wait not necessary
 002E42 9608 6004      00004       28300  2 3408.                  SET   IDTFR15             Set wait return for unnecessry
 002E46                            28306  2 3409.                  CLEAR IDTR15               wait to zero
 002E46 D703 6010 6010 00010 00010 28312  2          +
 002E4C                            28313  1 3410.                END   ,                   Error return
 002E4C                            28317    3411.              END   ,                   Don't panic
0002E4C 981F C008            00008 28322    3413.              PEND
 DROP   IDT,R6
 DROP   SCP,R7
 DROP   @GORTYPE-72,R12
 DROP   GOFILE,R10
 002E50 9680 C000/0B0E 00000       28347             +
 DROP   @M1FILE-72,R13
1M1SERV   (M1SE00) (09:42) (22MAR04) ORVYL'S Mode 1 I/O SVCs                                                                Page  189
0Current Usings:  (PZERO,R0)
0Loc    Object Code    Addr1 Addr2  Stmt Lv Lineno    Source Statement           (Hibal 5, Asmedit 3.3)  HLASM R4.0  2004/03/22 09.42
+___    ______ ____    _____ _____  ____ __ ______    ______ _________
0                                  28357    3415.     *******************************************************************
                                   28358    3416.     *                                                                 *
                                   28359    3417.     *    GOTERM - Send I/O requests to Terminal device driver         *
                                   28360    3418.     *                                                                 *
                                   28361    3419.     *                                                                 *
                                   28362    3420.     *     Input - @GORTYPE                                            *
                                   28363    3421.     *             RY Points to SCP                                    *
                                   28364    3422.     *                                                                 *
                                   28365    3423.     *    Output -                                                     *
                                   28366    3424.     *                                                                 *
                                   28367    3425.     *                                                                 *
                                   28368    3426.     *******************************************************************
-
 002E56                            28370    3428.     GOTERM   PROC  @GORTYPE,GTRMWORK,SCOPE=LOCAL
 002E56 C7D6E3C5D9D44040           28377             +
 002E5E 0008/0010                  28378             +
 002E62 900F D004/18AF       00004 28380             +
 USING  GOTERM,R10
 002E68 50D0 C000/18CD       00000 28395             +
 002E6E 9680 C000      00000       28397             +
 USING  @GORTYPE-72,R12
 AUSING (GTRMWORK,@GORTYPE+8)
 002E72 41D0 C060            00060 28416             +
 USING  SCP,R7                     28417    3429.              WITH  (SCP,RY)
 USING  IDT,R6                     28430    3430.              WITH  (IDT,RX)
                                   28443    3431.     *
                                   28444    3432.     *  SET UP REQUEST PARAMETERS
                                   28445    3433.     *
 USING  @M1TERM-72,R13             28446    3434.              PSET  @M1TERM
 002E76 D71A D048 D048 00000 00000 28463             +
 002E7C D203 D048 7014 00000 00014 28464    3435.              MVC   @M1TR01,SCPGPRS+1*4     SET
 002E82 D203 D04C 7048 00004 00048 28465    3436.              MVC   @M1TR14,SCPGPRS+14*4     USER
 002E88 D203 D050 704C 00008 0004C 28466    3437.              MVC   @M1TR15,SCPGPRS+15*4      REGISTERS
 002E8E 5060 D054            0000C 28467    3438.              ST    RX,@M1TRQID             SET IDT AS REQUEST ID
 002E92 D200 D062 C048 0001A 00000 28468    3439.              MVC   @M1TTYPE,@GRTYPE        SET REQUEST TYPE
 002E98 D200 D061 7009 00019 00009 28469    3440.              MVC   @M1TPKEY,SCPPSW+1       PSW KEY
 002E9E 94F0 D061      00019       28470    3441.              NI    @M1TPKEY,X'F0'           KEY ONLY
                                   28471    3442.     *
                                   28472    3443.     *  AND PROGRAM NAME AND RUN STATUS
                                   28473    3444.     *
 002EA2 D207 D058 A3AE 00010 03210 28474    3445.              MVC   @M1TPGM,=CL8'        '     CLEAR PROGRAM NAME
 002EA8 4810 7280            00280 28475    3446.              LH    RS,SCBPNAML
 002EAC 1211/4780 A056       02EB8 28476    3447.              IF    (RS,NZ),BEGIN
 002EB2 0610/4410 A430       03292 28490  1 3448.                DEX   RS,'MVC  @M1TPGM(0),SCBPNAM'   SET PROGRAM NAME
 003292 D200 D058 7282 00010 00282 28501  1          +
 002EB8                            28509    3449.              END   ,
 002EB8 9680 D060      00018       28513    3450.              SET   @M1TFRUN                -->
                                   28519    3451.     *        IF    ~SCBFCLP,'SET  @M1TFRUN'    USER IS ACTIVE
 002EBC 58F0 7268/12FF       00268 28520    3452.              IF    ('LT  R15,SCBSPB',NZ),BEGIN
 002EC2 4780 A070            02ED2 28531             +
 USING  SPB,R15                    28536  1 3453.                WITH  (SPB,R15)
 002EC6 9120 F044      00044       28549  1 3454.                IF    SPBFAUTH,'SET  @M1TFAUTH'   PROGRAM IS AUTHORIZED
1M1SERV   (M1SE00) (09:42) (22MAR04) ORVYL'S Mode 1 I/O SVCs                                                                Page  190
0Current Usings:  (PZERO,R0) (IDT,R6) (SCP,R7) (GOTERM,R10) (@GORTYPE-72,R12) (@M1TERM-72,R13) (SPB,R15)
0Loc    Object Code    Addr1 Addr2  Stmt Lv Lineno    Source Statement           (Hibal 5, Asmedit 3.3)  HLASM R4.0  2004/03/22 09.42
+___    ______ ____    _____ _____  ____ __ ______    ______ _________
0002ECA 47E0 A070            02ED2 28559  1          +
 002ECE 9640 D060      00018       28570  1          +
 DROP   SPB,R15                    28575    3455.              END   ,
 002ED2 9180 700C      0000C       28584    3456.              TM    SCPPSW+4,X'80'      31 bit mode?
 002ED6 47E0 A07C            02EDE 28585    3457.              IF    O,'SET @M1TFM31'    Yes
 002EDA 9620 D060      00018       28602             +
                                   28607    3458.     *
                                   28608    3459.     *  NOW SEND IT ON
                                   28609    3460.     *
 002EDE 58F0 A41A/0DEF       0327C 28610    3461.              VCALL M1TERM                  GO DO IT
                                   28614    3462.     *
                                   28615    3463.     *  I/O REQUEST ACCEPTED SET SVC RETURNS
                                   28616    3464.     *
 002EE4 1200/4770 A0A2       02F04 28617    3465.              IF    (RVR,Z),BEGIN
 002EEA 5000 704C            0004C 28631  1 3466.                ST    RVR,SCPGPRS+15*4        SVC RETURN CODE
                                   28632  1 3467.                WITH  (IDT,RX)
 002EEE 1FFF/43F0 6007       00007 28636  1 3468.                LC    R15,IDTID               PROPER IDT NUMBER
 002EF4 50F0 7010            00010 28643  1 3469.                ST    R15,SCPGPRS+0*4         RETURN TO USER
 002EF8 9510 C048      00000       28644  1 3470.                IF    @GRTYPE.@M1THALT,EXIT   DONE IF HALT
 002EFC 4780 A0A2            02F04 28656  1          +
 002F00 943F 6005      00005       28662  1 3471.                CLEAR IDTFWD+IDTFPOST         NEW I/O STARTED
 002F04                            28672    3472.              END   ,
                                   28676    3473.     *
                                   28677    3474.     *  I/O REQUEST CAUSED A SPEC ERROR
                                   28678    3475.     *
 002F04 A0A6           02F04 02EE8 28679    3476.              ELSE  BEGIN
 002F04 47F0 A0AE            02F10 28684             +
 002F08 4200 71A9            001A9 28690  1 3477.                STC   RVR,SCPPANSY            PANIC CODE
 002F0C 9610 7265      00265       28691  1 3478.                SET   SCBXP                   ENTER PANIC EXIT
 002F10                            28697    3479.              END   ,
 002F10 981F C008            00008 28701    3480.              PEND
 DROP   IDT,R6
 DROP   SCP,R7
 DROP   @GORTYPE-72,R12
 DROP   GOTERM,R10
 002F14 9680 C000/0B0E 00000       28726             +
 DROP   @M1TERM-72,R13
1M1SERV   (M1SE00) (09:42) (22MAR04) ORVYL'S Mode 1 I/O SVCs                                                                Page  191
0Current Usings:  (PZERO,R0)
0Loc    Object Code    Addr1 Addr2  Stmt Lv Lineno    Source Statement           (Hibal 5, Asmedit 3.3)  HLASM R4.0  2004/03/22 09.42
+___    ______ ____    _____ _____  ____ __ ______    ______ _________
0                                  28736    3482.     *******************************************************************
                                   28737    3483.     *                                                                 *
                                   28738    3484.     *    GOPATH - Send I/O requests to SCOM device driver             *
                                   28739    3485.     *                                                                 *
                                   28740    3486.     *                                                                 *
                                   28741    3487.     *     Input - @GORTYPE                                             *
                                   28742    3488.     *             RY Points to SCP                                    *
                                   28743    3489.     *                                                                 *
                                   28744    3490.     *    Output -                                                     *
                                   28745    3491.     *                                                                 *
                                   28746    3492.     *                                                                 *
                                   28747    3493.     *******************************************************************
-
 002F1A                            28749    3495.     GOPATH   PROC  @GORTYPE,SCOPE=LOCAL
 002F1A C7D6D7C1E3C84040           28756             +
 002F22 0008/0000                  28757             +
 002F26 900F D004/18AF       00004 28759             +
 USING  GOPATH,R10
 002F2C 50D0 C000/18CD       00000 28774             +
 002F32 9680 C000      00000       28776             +
 USING  @GORTYPE-72,R12
 002F36 41D0 C050            00050 28790             +
 USING  SCP,R7                     28791    3496.              WITH  (SCP,RY)
 USING  IDT,R6                     28804    3497.              WITH  (IDT,RX)
                                   28817    3498.     *
                                   28818    3499.     *  CHECK FOR PATHS NOT ALLOWED
                                   28819    3500.     *
 002F3A 5820 0200            00200 28820    3501.              L     RA,MATPTR               MAT POINTER
 002F3E 5820 2010            00010 28821    3502.              WITH  (MAT,RA),'L  RA,MATM1CT'   CT POINTER
 USING  MAT,R2
 DROP   MAT,R2
 USING  M1CT,R2                    28845    3503.              WITH  (M1CT,RA)
 002F42 9180 205C      0005C       28858    3504.              IF    CTMFPATH,BEGIN
 002F46 47E0 A030            02F56 28868             +
 002F4A 4800 A368            0328E 28873  1 3505.                LH    RVR,=Y(-12)             NOT AVAILABLE RETURN CODE
 002F4E 5000 704C            0004C 28874  1 3506.                ST    RVR,SCPGPRS+15*4
 002F52 47F0 A0CE            02FF4 28875  1 3507.                EXIT  GOPATH
 002F56                            28878    3508.              END   ,
1M1SERV   (M1SE00) (09:42) (22MAR04) ORVYL'S Mode 1 I/O SVCs                                                                Page  192
0Current Usings:  (PZERO,R0) (M1CT,R2) (IDT,R6) (SCP,R7) (GOPATH,R10) (@GORTYPE-72,R12)
0Loc    Object Code    Addr1 Addr2  Stmt Lv Lineno    Source Statement           (Hibal 5, Asmedit 3.3)  HLASM R4.0  2004/03/22 09.42
+___    ______ ____    _____ _____  ____ __ ______    ______ _________
0                                  28883    3510.     *
                                   28884    3511.     *  SET UP REQUEST PARAMETERS
                                   28885    3512.     *
 USING  @M1PATH-72,R13             28886    3513.              PSET  @M1PATH
 002F56 D716 D048 D048 00000 00000 28903             +
 002F5C D203 D048 7014 00000 00014 28904    3514.              MVC   @M1PR01,SCPGPRS+1*4     SET
 002F62 D203 D04C 7048 00004 00048 28905    3515.              MVC   @M1PR14,SCPGPRS+14*4     USER
 002F68 D203 D050 704C 00008 0004C 28906    3516.              MVC   @M1PR15,SCPGPRS+15*4      REGISTERS
 002F6E 58F0 7010/12FF       00010 28907    3517.              IF    ('LT  R15,SCPGPRS+0*4',M),'SET  @M1PWAIT'
 002F74 47B0 A056            02F7C 28918             +
 002F78 9680 D05E      00016       28929             +
 002F7C 5060 D054            0000C 28934    3518.              ST    RX,@M1PRQID             SET IDT AS REQUEST ID
 002F80 D203 D058 6024 00010 00024 28935    3519.              MVC   @M1PDVID,IDTDEVID        AND SET DEVICE ID
 002F86 D200 D05D C048 00015 00000 28936    3520.              MVC   @M1PTYPE,@GRTYPE        SET REQUEST TYPE
 002F8C D200 D05C 7009 00014 00009 28937    3521.              MVC   @M1PPKEY,SCPPSW+1       PSW KEY
 002F92 94F0 D05C      00014       28938    3522.              NI    @M1PPKEY,X'F0'           KEY ONLY
 002F96 9180 700C      0000C       28939    3523.              TM    SCPPSW+4,X'80'      31 bit mode?
 002F9A 47E0 A07C            02FA2 28940    3524.              IF    O,'SET @M1PM31'     Yes
 002F9E 9640 D05E      00016       28957             +
                                   28962    3525.     *
                                   28963    3526.     *  NOW SEND IT ON
                                   28964    3527.     *
 002FA2 58F0 A35A/0DEF       03280 28965    3528.              VCALL M1PATH                  GO DO IT
                                   28969    3529.     *
                                   28970    3530.     *  I/O REQUEST ACCEPTED SET SVC RETURNS
                                   28971    3531.     *
 002FA8 1200/4770 A0B0       02FD6 28972    3532.              IF    (RVR,Z),BEGIN
 002FAE 5000 704C            0004C 28986  1 3533.                ST    RVR,SCPGPRS+15*4        SVC RETURN CODE
 002FB2 1FFF/43F0 6007       00007 28987  1 3534.                LC    R15,IDTID               PROPER IDT NUMBER
 002FB8 50F0 7010            00010 28994  1 3535.                ST    R15,SCPGPRS+0*4         RETURN TO USER
 002FBC 9510 C048      00000       28995  1 3536.                IF    @GRTYPE.@M1PHALT,EXIT   DONE IF HALT
 002FC0 4780 A0B0            02FD6 29007  1          +
 002FC4 943F 6005      00005       29013  1 3537.                CLEAR IDTFWD+IDTFPOST         NEW I/O STARTED
 002FC8 9504 C048      00000       29023  1 3538.                IF    @GRTYPE.@M1PATCH,'MVC  IDTDEVID,@M1PDVID'
 002FCC 4770 A0B0            02FD6 29033  1          +
 002FD0 D203 6024 D058 00024 00010 29039  1          +
 002FD6                            29044    3539.              END   ,
                                   29048    3540.     *
                                   29049    3541.     *  I/O REQUEST CAUSED A SPEC ERROR
                                   29050    3542.     *
 002FD6 A0B4           02FD6 02FAC 29051    3543.              ELSE  BEGIN
 002FD6 47F0 A0CE            02FF4 29056             +
 002FDA 4200 71A9            001A9 29062  1 3544.                STC   RVR,SCPPANSY            PANIC CODE
 002FDE 9610 7265      00265       29063  1 3545.                SET   SCBXP                   ENTER PANIC EXIT
 002FE2 9504 C048      00000       29069  1 3546.                IF    @GRTYPE.@M1PATCH,BEGIN     UNSUCCCESSFUL ATTACH
 002FE6 4770 A0CE            02FF4 29079  1          +
 DROP   @M1PATH-72,R13             29084  2 3547.                  PSET  @FREEIDT,CLEAR=NO
 USING  @FREEIDT-72,R13
 002FEA 5060 D048            00000 29098  2 3548.                  ST    RX,@FRIADDR             SET ADDRESS
 002FEE 58F0 A2FE/0DEF       03224 29099  2 3549.                  ACALL FREEIDT                 FREE IDT
 002FF4                            29106  1 3550.                END   ,
 002FF4                            29110    3551.              END   ,
 002FF4 981F C008            00008 29114    3552.              PEND
 DROP   M1CT,R2
1M1SERV   (M1SE00) (09:42) (22MAR04) ORVYL'S Mode 1 I/O SVCs                                                                Page  193
0Current Usings:  (PZERO,R0) (@FREEIDT-72,R13)
0Loc    Object Code    Addr1 Addr2  Stmt Lv Lineno    Source Statement           (Hibal 5, Asmedit 3.3)  HLASM R4.0  2004/03/22 09.42
+___    ______ ____    _____ _____  ____ __ ______    ______ _________
0DROP   IDT,R6
 DROP   SCP,R7
 DROP   @GORTYPE-72,R12
 DROP   GOPATH,R10
 002FF8 9680 C000/0B0E 00000       29144             +
 DROP   @FREEIDT-72,R13
1M1SERV   (M1SE00) (09:42) (22MAR04) ORVYL'S Mode 1 I/O SVCs                                                                Page  194
0Current Usings:  (PZERO,R0)
0Loc    Object Code    Addr1 Addr2  Stmt Lv Lineno    Source Statement           (Hibal 5, Asmedit 3.3)  HLASM R4.0  2004/03/22 09.42
+___    ______ ____    _____ _____  ____ __ ______    ______ _________
0                                  29154    3554.     *******************************************************************
                                   29155    3555.     *                                                                 *
                                   29156    3556.     *    GOJES - Send I/O requests to JES device driver               *
                                   29157    3557.     *                                                                 *
                                   29158    3558.     *                                                                 *
                                   29159    3559.     *     Input - @GORTYPE                                              *
                                   29160    3560.     *             RY Points to SCP                                    *
                                   29161    3561.     *                                                                 *
                                   29162    3562.     *    Output -                                                     *
                                   29163    3563.     *                                                                 *
                                   29164    3564.     *                                                                 *
                                   29165    3565.     *******************************************************************
-
 002FFE                            29167    3567.     GOJES    PROC  @GORTYPE,SCOPE=LOCAL
 002FFE C7D6D1C5E2404040           29174             +
 003006 0008/0000                  29175             +
 00300A 900F D004/18AF       00004 29177             +
 USING  GOJES,R10
 003010 50D0 C000/18CD       00000 29192             +
 003016 9680 C000      00000       29194             +
 USING  @GORTYPE-72,R12
 00301A 41D0 C050            00050 29208             +
 USING  SCP,R7                     29209    3568.              WITH  (SCP,RY)
 USING  IDT,R6                     29222    3569.              WITH  (IDT,RX)
                                   29235    3570.     *
                                   29236    3571.     *  CHECK FOR JES NOT ALLOWED
                                   29237    3572.     *
 00301E 5820 0200            00200 29238    3573.              L     RA,MATPTR               MAT POINTER
 003022 5820 2010            00010 29239    3574.              WITH  (MAT,RA),'L  RA,MATM1CT'   CT POINTER
 USING  MAT,R2
 DROP   MAT,R2
 USING  M1CT,R2                    29263    3575.              WITH  (M1CT,RA)
 003026 9110 205C      0005C       29276    3576.              IF    CTMFJES,BEGIN
 00302A 47E0 A030            0303A 29286             +
 00302E 4800 A284            0328E 29291  1 3577.                LH    RVR,=Y(-12)             NOT AVAILABLE RETURN CODE
 003032 5000 704C            0004C 29292  1 3578.                ST    RVR,SCPGPRS+15*4
 003036 47F0 A0F8            03102 29293  1 3579.                EXIT  GOJES
 00303A                            29296    3580.              END   ,
                                   29300    3581.     *
                                   29301    3582.     *  CHECK FOR JES DEVICE ALREADY IN USE
                                   29302    3583.     *
 00303A 9504 C048      00000       29303    3584.              IF    @GRTYPE.@M1JATCH,BEGIN
 00303E 4770 A04E            03058 29313             +
 003042                            29318  1 3585.                IF    (SCPJESR,LT,CTJESR),EXIT     HASN'T REACHED LIMIT
 003042 D500 7203 203D 00203 0003D 29330  1          +
 003048 4740 A04E            03058 29333  1          +
 00304C 4100 0008            00008 29339  1 3586.                LA    RVR,8                   NOT AVAILABLE RETURN CODE
 003050 5000 704C            0004C 29340  1 3587.                ST    RVR,SCPGPRS+15*4
 003054 47F0 A0F8            03102 29341  1 3588.                EXIT  GOJES
 003058                            29344    3589.              END   ,
1M1SERV   (M1SE00) (09:42) (22MAR04) ORVYL'S Mode 1 I/O SVCs                                                                Page  195
0Current Usings:  (PZERO,R0) (M1CT,R2) (IDT,R6) (SCP,R7) (GOJES,R10) (@GORTYPE-72,R12)
0Loc    Object Code    Addr1 Addr2  Stmt Lv Lineno    Source Statement           (Hibal 5, Asmedit 3.3)  HLASM R4.0  2004/03/22 09.42
+___    ______ ____    _____ _____  ____ __ ______    ______ _________
0                                  29349    3591.     *
                                   29350    3592.     *  SET UP REQUEST PARAMETERS
                                   29351    3593.     *
 USING  @M1JES-72,R13              29352    3594.              PSET  @M1JES
 003058 D716 D048 D048 00000 00000 29369             +
 00305E D203 D048 7014 00000 00014 29370    3595.              MVC   @M1JR01,SCPGPRS+1*4     SET
 003064 D203 D04C 7048 00004 00048 29371    3596.              MVC   @M1JR14,SCPGPRS+14*4     USER
 00306A D203 D050 704C 00008 0004C 29372    3597.              MVC   @M1JR15,SCPGPRS+15*4      REGISTERS
 003070 58F0 7010/12FF       00010 29373    3598.              IF    ('LT  R15,SCPGPRS+0*4',M),'SET  @M1JWAIT'
 003076 47B0 A074            0307E 29384             +
 00307A 9680 D05E      00016       29395             +
 00307E 5060 D054            0000C 29400    3599.              ST    RX,@M1JRQID             SET IDT AS REQUEST ID
 003082 D203 D058 6024 00010 00024 29401    3600.              MVC   @M1JDVID,IDTDEVID        AND SET DEVICE ID
 003088 D200 D05D C048 00015 00000 29402    3601.              MVC   @M1JTYPE,@GRTYPE        SET REQUEST TYPE
 00308E D200 D05C 7009 00014 00009 29403    3602.              MVC   @M1JPKEY,SCPPSW+1       PSW KEY
 003094 94F0 D05C      00014       29404    3603.              NI    @M1JPKEY,X'F0'           KEY ONLY
 003098 9180 700C      0000C       29405    3604.              TM    SCPPSW+4,X'80'      31 bit mode?
 00309C 47E0 A09A            030A4 29406    3605.              IF    O,'SET @M1JM31'     Yes
 0030A0 9640 D05E      00016       29423             +
                                   29428    3606.     *
                                   29429    3607.     *  NOW SEND IT ON
                                   29430    3608.     *
 0030A4 58F0 A27A/0DEF       03284 29431    3609.              VCALL M1JES                   GO DO IT
                                   29435    3610.     *
                                   29436    3611.     *  I/O REQUEST ACCEPTED SET SVC RETURNS
                                   29437    3612.     *
 0030AA 1200/4770 A0DA       030E4 29438    3613.              IF    (RVR,Z),BEGIN
 0030B0 5000 704C            0004C 29452  1 3614.                ST    RVR,SCPGPRS+15*4        SVC RETURN CODE
 0030B4 1FFF/43F0 6007       00007 29453  1 3615.                LC    R15,IDTID               PROPER IDT NUMBER
 0030BA 50F0 7010            00010 29460  1 3616.                ST    R15,SCPGPRS+0*4         RETURN TO USER
 0030BE 9510 C048      00000       29461  1 3617.                IF    @GRTYPE.@M1JHALT,EXIT   DONE IF HALT
 0030C2 4780 A0DA            030E4 29473  1          +
 0030C6 943F 6005      00005       29479  1 3618.                CLEAR IDTFWD+IDTFPOST         NEW I/O STARTED
 0030CA 9504 C048      00000       29489  1 3619.                IF    @GRTYPE.@M1JATCH,BEGIN
 0030CE 4770 A0DA            030E4 29499  1          +
 0030D2 D203 6024 D058 00024 00010 29504  2 3620.                  MVC   IDTDEVID,@M1JDVID       SET DEVICE ID IN IDT
 0030D8 BF11 7203            00203 29505  2 3621.                  INCR  RS,SCPJESR              ACTIVE JES DEVICE COUNT
 0030DC 4110 1001            00001 29509  2          +
 0030E0 BE11 7203            00203 29510  2          +
 0030E4                            29511  1 3622.                END   ,
 0030E4                            29515    3623.              END   ,
                                   29519    3624.     *
                                   29520    3625.     *  I/O REQUEST CAUSED A SPEC ERROR
                                   29521    3626.     *
 0030E4 A0DE           030E4 030AE 29522    3627.              ELSE  BEGIN
 0030E4 47F0 A0F8            03102 29527             +
 0030E8 4200 71A9            001A9 29533  1 3628.                STC   RVR,SCPPANSY            PANIC CODE
 0030EC 9610 7265      00265       29534  1 3629.                SET   SCBXP                   ENTER PANIC EXIT
 0030F0 9504 C048      00000       29540  1 3630.                IF    @GRTYPE.@M1JATCH,BEGIN     UNSUCCCESSFUL ATTACH
 0030F4 4770 A0F8            03102 29550  1          +
 DROP   @M1JES-72,R13              29555  2 3631.                  PSET  @FREEIDT,CLEAR=NO
 USING  @FREEIDT-72,R13
 0030F8 5060 D048            00000 29569  2 3632.                  ST    RX,@FRIADDR             SET ADDRESS
 0030FC 58F0 A21A/0DEF       03224 29570  2 3633.                  ACALL FREEIDT                 FREE IDT
1M1SERV   (M1SE00) (09:42) (22MAR04) ORVYL'S Mode 1 I/O SVCs                                                                Page  196
0Current Usings:  (PZERO,R0) (M1CT,R2) (IDT,R6) (SCP,R7) (GOJES,R10) (@GORTYPE-72,R12) (@FREEIDT-72,R13)
0Loc    Object Code    Addr1 Addr2  Stmt Lv Lineno    Source Statement           (Hibal 5, Asmedit 3.3)  HLASM R4.0  2004/03/22 09.42
+___    ______ ____    _____ _____  ____ __ ______    ______ _________
0003102                            29577  1 3634.                END   ,
 003102                            29581    3635.              END   ,
 003102 981F C008            00008 29585    3636.              PEND
 DROP   M1CT,R2
 DROP   IDT,R6
 DROP   SCP,R7
 DROP   @GORTYPE-72,R12
 DROP   GOJES,R10
 003106 9680 C000/0B0E 00000       29615             +
 DROP   @FREEIDT-72,R13
1M1SERV   (M1SE00) (09:42) (22MAR04) ORVYL'S Mode 1 I/O SVCs                                                                Page  197
0Current Usings:  (PZERO,R0)
0Loc    Object Code    Addr1 Addr2  Stmt Lv Lineno    Source Statement           (Hibal 5, Asmedit 3.3)  HLASM R4.0  2004/03/22 09.42
+___    ______ ____    _____ _____  ____ __ ______    ______ _________
0                                  29625    3638.     *******************************************************************
                                   29626    3639.     *                                                                 *
                                   29627    3640.     *    GONET - Send I/O requests to NET device driver               *
                                   29628    3641.     *                                                                 *
                                   29629    3642.     *                                                                 *
                                   29630    3643.     *     Input - @GORTYPE                                              *
                                   29631    3644.     *             RY Points to SCP                                    *
                                   29632    3645.     *                                                                 *
                                   29633    3646.     *    Output -                                                     *
                                   29634    3647.     *                                                                 *
                                   29635    3648.     *                                                                 *
                                   29636    3649.     *******************************************************************
-
 00310C                            29638    3651.     GONET    PROC  @GORTYPE,SCOPE=LOCAL
 00310C C7D6D5C5E3404040           29645             +
 003114 0008/0000                  29646             +
 003118 900F D004/18AF       00004 29648             +
 USING  GONET,R10
 00311E 50D0 C000/18CD       00000 29663             +
 003124 9680 C000      00000       29665             +
 USING  @GORTYPE-72,R12
 003128 41D0 C050            00050 29679             +
 USING  SCP,R7                     29680    3652.              WITH  (SCP,RY)
 USING  IDT,R6                     29693    3653.              WITH  (IDT,RX)
                                   29706    3654.     *
                                   29707    3655.     *  CHECK FOR NET NOT ALLOWED
                                   29708    3656.     *
 00312C 5820 0200            00200 29709    3657.              L     RA,MATPTR               MAT POINTER
 003130 5820 2010            00010 29710    3658.              WITH  (MAT,RA),'L  RA,MATM1CT'   CT POINTER
 USING  MAT,R2
 DROP   MAT,R2
 USING  M1CT,R2                    29734    3659.              WITH  (M1CT,RA)
 003134 9108 205C      0005C       29747    3660.              IF    CTMFNET,BEGIN
 003138 47E0 A030            03148 29757             +
 00313C 4800 A176            0328E 29762  1 3661.                LH    RVR,=Y(-12)             NOT AVAILABLE RETURN CODE
 003140 5000 704C            0004C 29763  1 3662.                ST    RVR,SCPGPRS+15*4
 003144 47F0 A0E8            03200 29764  1 3663.                EXIT  GONET
 003148                            29767    3664.              END   ,
                                   29771    3665.     *
                                   29772    3666.     *  CHECK FOR NET NOT AVAILABLE
                                   29773    3667.     *
 003148 5820 0200            00200 29774    3668.              L     RA,MATPTR                         MAT pointer
 DROP   M1CT,R2                    29775    3669.              WITH  (MAT,RA)
 USING  MAT,R2
 00314C                            29791    3670.              IF    (MATGNCT,Z),BEGIN                 Is it set up?
 00314C D603 203C 203C 0003C 0003C 29801             +
 003152 4770 A04A            03162 29802             +
 003156 4800 A176            0328E 29807  1 3671.                LH    RVR,=Y(-12)                       Proper Return Code
 00315A 5000 704C            0004C 29808  1 3672.                ST    RVR,SCPGPRS+15*4
 00315E 47F0 A0E8            03200 29809  1 3673.                EXIT  GONET
 003162                            29812    3674.              END   ,
1M1SERV   (M1SE00) (09:42) (22MAR04) ORVYL'S Mode 1 I/O SVCs                                                                Page  198
0Current Usings:  (PZERO,R0) (MAT,R2) (IDT,R6) (SCP,R7) (GONET,R10) (@GORTYPE-72,R12)
0Loc    Object Code    Addr1 Addr2  Stmt Lv Lineno    Source Statement           (Hibal 5, Asmedit 3.3)  HLASM R4.0  2004/03/22 09.42
+___    ______ ____    _____ _____  ____ __ ______    ______ _________
0                                  29817    3676.     *
                                   29818    3677.     *  SET UP REQUEST PARAMETERS
                                   29819    3678.     *
 USING  @M1NET-72,R13              29820    3679.              PSET  @M1NET
 003162 D716 D048 D048 00000 00000 29837             +
 003168 D203 D048 7014 00000 00014 29838    3680.              MVC   @M1NR01,SCPGPRS+1*4     SET
 00316E D203 D04C 7048 00004 00048 29839    3681.              MVC   @M1NR14,SCPGPRS+14*4     USER
 003174 D203 D050 704C 00008 0004C 29840    3682.              MVC   @M1NR15,SCPGPRS+15*4      REGISTERS
 00317A 58F0 7010/12FF       00010 29841    3683.              IF    ('LT  R15,SCPGPRS+0*4',M),'SET  @M1NWAIT'
 003180 47B0 A070            03188 29852             +
 003184 9680 D05E      00016       29863             +
 003188 5060 D054            0000C 29868    3684.              ST    RX,@M1NRQID             SET IDT AS REQUEST ID
 00318C D203 D058 6024 00010 00024 29869    3685.              MVC   @M1NDVID,IDTDEVID        AND SET DEVICE ID
 003192 D200 D05D C048 00015 00000 29870    3686.              MVC   @M1NTYPE,@GRTYPE        SET REQUEST TYPE
 003198 D200 D05C 7009 00014 00009 29871    3687.              MVC   @M1NPKEY,SCPPSW+1       PSW KEY
 00319E 94F0 D05C      00014       29872    3688.              NI    @M1NPKEY,X'F0'           KEY ONLY
 0031A2 9180 700C      0000C       29873    3689.              TM    SCPPSW+4,X'80'      31 bit mode?
 0031A6 47E0 A096            031AE 29874    3690.              IF    O,'SET @M1NM31'     Yes
 0031AA 9640 D05E      00016       29891             +
                                   29896    3691.     *
                                   29897    3692.     *  NOW SEND IT ON
                                   29898    3693.     *
 0031AE 58F0 A170/0DEF       03288 29899    3694.              VCALL M1NET                   GO DO IT
                                   29903    3695.     *
                                   29904    3696.     *  I/O REQUEST ACCEPTED SET SVC RETURNS
                                   29905    3697.     *
 0031B4 1200/4770 A0CA       031E2 29906    3698.              IF    (RVR,Z),BEGIN
 0031BA 5000 704C            0004C 29920  1 3699.                ST    RVR,SCPGPRS+15*4        SVC RETURN CODE
 0031BE 1FFF/43F0 6007       00007 29921  1 3700.                LC    R15,IDTID               PROPER IDT NUMBER
 0031C4 50F0 7010            00010 29928  1 3701.                ST    R15,SCPGPRS+0*4         RETURN TO USER
 0031C8 9514 C048      00000       29929  1 3702.                IF    @GRTYPE.@M1NHALT,EXIT   DONE IF HALT
 0031CC 4780 A0CA            031E2 29941  1          +
 0031D0 943F 6005      00005       29947  1 3703.                CLEAR IDTFWD+IDTFPOST         NEW I/O STARTED
 0031D4 9504 C048      00000       29957  1 3704.                IF    @GRTYPE.@M1NATCH,BEGIN
 0031D8 4770 A0CA            031E2 29967  1          +
 0031DC D203 6024 D058 00024 00010 29972  2 3705.                  MVC   IDTDEVID,@M1NDVID       SET DEVICE ID IN IDT
 0031E2                            29973  1 3706.                END   ,
 0031E2                            29977    3707.              END   ,
                                   29981    3708.     *
                                   29982    3709.     *  I/O REQUEST CAUSED A SPEC ERROR
                                   29983    3710.     *
 0031E2 A0CE           031E2 031B8 29984    3711.              ELSE  BEGIN
 0031E2 47F0 A0E8            03200 29989             +
 0031E6 4200 71A9            001A9 29995  1 3712.                STC   RVR,SCPPANSY            PANIC CODE
 0031EA 9610 7265      00265       29996  1 3713.                SET   SCBXP                   ENTER PANIC EXIT
 0031EE 9504 C048      00000       30002  1 3714.                IF    @GRTYPE.@M1NATCH,BEGIN     UNSUCCCESSFUL ATTACH
 0031F2 4770 A0E8            03200 30012  1          +
 DROP   @M1NET-72,R13              30017  2 3715.                  PSET  @FREEIDT,CLEAR=NO
 USING  @FREEIDT-72,R13
 0031F6 5060 D048            00000 30031  2 3716.                  ST    RX,@FRIADDR             SET ADDRESS
 0031FA 58F0 A10C/0DEF       03224 30032  2 3717.                  ACALL FREEIDT                 FREE IDT
 003200                            30039  1 3718.                END   ,
 003200                            30043    3719.              END   ,
 003200 981F C008            00008 30047    3720.              PEND
1M1SERV   (M1SE00) (09:42) (22MAR04) ORVYL'S Mode 1 I/O SVCs                                                                Page  199
0Current Usings:  (PZERO,R0) (@FREEIDT-72,R13)
0Loc    Object Code    Addr1 Addr2  Stmt Lv Lineno    Source Statement           (Hibal 5, Asmedit 3.3)  HLASM R4.0  2004/03/22 09.42
+___    ______ ____    _____ _____  ____ __ ______    ______ _________
0DROP   MAT,R2
 USING  M1CT,R2
 DROP   M1CT,R2
 DROP   IDT,R6
 DROP   SCP,R7
 DROP   @GORTYPE-72,R12
 DROP   GONET,R10
 003204 9680 C000/0B0E 00000       30089             +
 DROP   @FREEIDT-72,R13
1M1SERV   (M1SE00) (09:42) (22MAR04) ORVYL'S Mode 1 I/O SVCs                                                                Page  200
0Current Usings:  (PZERO,R0)
0Loc    Object Code    Addr1 Addr2  Stmt Lv Lineno    Source Statement           (Hibal 5, Asmedit 3.3)  HLASM R4.0  2004/03/22 09.42
+___    ______ ____    _____ _____  ____ __ ______    ______ _________
0003210                            30099    3722.              LTORG
 003210 4040404040404040           30101                             =CL8'        '
 003218 00000001                   30102                             =A(L'IDTCTRM)
 00321C 00000002                   30103                             =A(L'IDTCFIL)
 003220 00002D14                   30104                             =A(GOFILE)
 003224 00002CD0                   30105                             =A(FREEIDT)
 003228 00000003                   30106                             =A(L'IDTCOSF)
 00322C 00000004                   30107                             =A(L'IDTCSCM)
 003230 00002F26                   30108                             =A(GOPATH)
 003234 00000006                   30109                             =A(L'IDTCJES)
 003238 0000300A                   30110                             =A(GOJES)
 00323C 00000008                   30111                             =A(L'IDTCKEY)
 003240 00000007                   30112                             =A(L'IDTCNET)
 003244 00003118                   30113                             =A(GONET)
 003248 00002BD4                   30114                             =A(FINDIDT)
 00324C 00001492                   30115                             =A(DOWAIT)
 003250 00002E62                   30116                             =A(GOTERM)
 003254 00000016                   30117                             =A(22)
 003258 00000018                   30118                             =A(24)
 00325C 00000017                   30119                             =A(23)
 003260 00000000                   30120                             =A(0)
 003264 00000000                   30121                             =V(FILEHALT)
 003268 000070C0                   30122                             =A(M1ENQHLT)
 00326C C9C4E340                   30123                             =CL4'IDT'
 003270 FFFFFFFC                   30124                             =A(-4)
 003274 00000000                   30125                             =V(M1FILE)
 003278 80000000                   30126                             =X'80000000'
 00327C 00000000                   30127                             =V(M1TERM)
 003280 00000000                   30128                             =V(M1PATH)
 003284 00000000                   30129                             =V(M1JES)
 003288 00000000                   30130                             =V(M1NET)
 00328C FFFC                       30131                             =Y(-4)
 00328E FFF4                       30132                             =Y(-12)
 003290 0038           03298 07A90 30133                             =Y(L'IDT)
1M1SERV   (M1SE00) (09:42) (22MAR04) ORVYL'S Mode 1 Clpserv SVC                                                             Page  201
0Current Usings:  (PZERO,R0)
0Loc    Object Code    Addr1 Addr2  Stmt Lv Lineno    Source Statement           (Hibal 5, Asmedit 3.3)  HLASM R4.0  2004/03/22 09.42
+___    ______ ____    _____ _____  ____ __ ______    ______ _________
0                                  30138    3724.     *******************************************************************
                                   30139    3725.     *                                                                 *
                                   30140    3726.     *    CSEWORK - CLPSERV SVC Work area                              *
                                   30141    3727.     *                                                                 *
                                   30142    3728.     *******************************************************************
0000000                00000 00008 30144    3730.     CSEWORK  RECORD BEGIN
 000000                            30152  1 3731.     CSENAME    DS    D                       Area for MVS name lookup
 000008                00008 00008 30153    3732.              END   ,
-
                                   30163    3734.     *******************************************************************
                                   30164    3735.     *                                                                 *
                                   30165    3736.     *    CSESMF - CLPSERV SMF Record description                      *
                                   30166    3737.     *                                                                 *
                                   30167    3738.     *******************************************************************
0000000                00000 00078 30169    3740.     CSESMF   RECORD BEGIN
 000000                            30177  1 3741.     SMFUSER    DS    CL3                 User id
 000003                            30178  1 3742.     SMFGRP     DS    CL2                 Group
 000005                            30179  1 3743.     SMFPRJ     DS    CL2                 Project id
 000007                            30180  1 3744.     SMFTETYP   DS    C                   Terminal connection type
 000008                            30181  1 3745.     SMFSYSTM   DS    CL8                 Subsystem name (e.g., Orvyl)
 000010                            30182  1 3746.     SMFTACF    DS    X                   Account flags
 000011                            30183  1 3747.     SMFTRM     DS    CL3                 Terminal id
 000014                            30184  1 3748.     SMFPROJ    DS    CL8                 Project id
 00001C                            30185  1 3749.     SMFTON     DS    F                   Session start time
 000020                            30186  1 3750.     SMFDON     DS    F                   Session start date
 000024                            30187  1 3751.                DS    XL3                 Unused
 000027                            30188  1 3752.     SMFBLOCK   DS    X                   Current time block
                                   30189  1 3753.     SMFHDR     EQU   SMFUSER,*-SMFUSER,C'X'
 000028                            30190  1 3754.     SMFDATA    DS    XL80                User data portion
 000078                00078 00078 30191    3755.              END   ,
1M1SERV   (M1SE00) (09:42) (22MAR04) ORVYL'S Mode 1 Clpserv SVC                                                             Page  202
0Current Usings:  (PZERO,R0)
0Loc    Object Code    Addr1 Addr2  Stmt Lv Lineno    Source Statement           (Hibal 5, Asmedit 3.3)  HLASM R4.0  2004/03/22 09.42
+___    ______ ____    _____ _____  ____ __ ______    ______ _________
0                                  30201    3757.     *******************************************************************
                                   30202    3758.     *                                                                 *
                                   30203    3759.     *    CLPSERV -  Mode 1 CLP Service SVC                            *
                                   30204    3760.     *                                                                 *
                                   30205    3761.     *                                                                 *
                                   30206    3762.     *     Input - RY Points to SCP                                    *
                                   30207    3763.     *                                                                 *
                                   30208    3764.     *    Output -                                                     *
                                   30209    3765.     *                                                                 *
                                   30210    3766.     *                                                                 *
                                   30211    3767.     *                                                                 *
                                   30212    3768.     *                                                                 *
                                   30213    3769.     *                                                                 *
                                   30214    3770.     *                                                                 *
                                   30215    3771.     *******************************************************************
-
 003298                            30217    3773.     CLPSERV  PROC  ,CSEWORK,SCOPE=LOCAL
 003298 C3D3D7E2C5D9E540           30224             +
 0032A0 0000/0008                  30225             +
 0032A4 900F D004/18AF       00004 30227             +
 USING  CLPSERV,R10
 0032AA 50D0 C000/18CD       00000 30242             +
 0032B0 9680 C000      00000       30244             +
 USING  CSEWORK-72,R12
 0032B4 41D0 C050            00050 30258             +
 USING  SCP,R7                     30259    3774.              WITH  (SCP,RY)
                                   30272    3775.     *
                                   30273    3776.     *  VALID ONLY FOR CLP
                                   30274    3777.     *
 0032B8 9188 7262      00262       30275    3778.              IF    (SCBFCLP+SCBFPCLP,Z),BEGIN    CLP NOT IN CONTROL
 0032BC 4770 A028            032CC 30290             +
 0032C0 9201 71A9      001A9       30295  1 3779.                MVI   SCPPANSY,PANOPER        OPERATION (INVALID SVC) ERROR
 0032C4 9610 7265      00265       30296  1 3780.                SET   SCBXP                   SET PANIC
 0032C8 47F0 ACB6            03F5A 30302  1 3781.                EXIT  CLPSERV
 0032CC                            30305    3782.              END   ,
                                   30309    3783.     *
                                   30310    3784.     *  ISSUE TRACE
                                   30311    3785.     *
 0032CC 98EF 7048            00048 30312    3786.              LM    R14,R15,SCPGPRS+14*4    GET REGS
 0032D0 9801 7010            00010 30313    3787.              LM    R0,R1,SCPGPRS+0*4
 0032D4 99E1 AD70            04014 30314    3788.              XTRC  R14,R1,M1CLPSRV
 004011 000000                            1          +
 004014 00004014                   30322  1          +
 004018 00000387/0E01              30323  1          +
 00401E D4F1C3D3D7E2D9E5           30325             +
 0032D8 5820 7010            00010 30332    3789.              L     RA,SCPGPRS+0*4          CLPSERV CODE
 0032DC 5920 ACDC            03F80 30333    3790.              IF    (RA,GT,=A(CLPSMAX)),CSSPEC
 0032E0 4720 AC8C            03F30 30346             +
1M1SERV   (M1SE00) (09:42) (22MAR04) ORVYL'S Mode 1 Clpserv SVC                                                             Page  203
0Current Usings:  (PZERO,R0) (SCP,R7) (CLPSERV,R10) (CSEWORK-72,R12)
0Loc    Object Code    Addr1 Addr2  Stmt Lv Lineno    Source Statement           (Hibal 5, Asmedit 3.3)  HLASM R4.0  2004/03/22 09.42
+___    ______ ____    _____ _____  ____ __ ______    ______ _________
0                                  30353    3792.     *******************************************************************
                                   30354    3793.     *                                                                 *
                                   30355    3794.     *    CLPSERV SVC Branch Table                                     *
                                   30356    3795.     *                                                                 *
                                   30357    3796.     *******************************************************************
                                   30360    3799.     CLPSTBL  CLPSERV TABLE,RA
 0032E4                            30361    01-CLPSE +CLPSTBL  DS    0H
 0032E4 47F2 A044            032E8 30362    01-CLPSE +         B     *+4(RA)
 0032E8 47F0 A0CC            03370 30363    01-CLPSE +         B     ORVTIME                  0
 0032EC 47F0 A13C            033E0 30364    01-CLPSE +         B     STORE                    4
 0032F0 47F0 A114            033B8 30365    01-CLPSE +         B     FETCH                    8
 0032F4 47F0 A142            033E6 30366    01-CLPSE +         B     OR                      12
 0032F8 47F0 A14A            033EE 30367    01-CLPSE +         B     AND                     16
 0032FC 47F0 A174            03418 30368    01-CLPSE +         B     ATTSPB                  20
 003300 47F0 A336            035DA 30369    01-CLPSE +         B     DETSPB                  24
 003304 47F0 A5B2            03856 30370    01-CLPSE +         B     UINFO                   28
 003308 47F0 A77E            03A22 30371    01-CLPSE +         B     GETCLW                  32
 00330C 47F0 A7B4            03A58 30372    01-CLPSE +         B     FREECLW                 36
 003310 47F0 A84E            03AF2 30373    01-CLPSE +         B     PRIVTST                 40
 003314 47F0 A820            03AC4 30374    01-CLPSE +         B     REGION                  44
 003318 47F0 A86A            03B0E 30375    01-CLPSE +         B     SETKEY                  48
 00331C 47F0 A696            0393A 30376    01-CLPSE +         B     CHKADDR                 52
 003320 47F0 A6AC            03950 30377    01-CLPSE +         B     GETMAP                  56
 003324 47F0 A6C0            03964 30378    01-CLPSE +         B     LOCCT                   60
 003328 47F0 A6D2            03976 30379    01-CLPSE +         B     PGPRTON                 64
 00332C 47F0 A728            039CC 30380    01-CLPSE +         B     PGPRTOFF                68
 003330 47F0 A888            03B2C 30381    01-CLPSE +         B     SPBPTR                  72
 003334 47F0 A9EC            03C90 30382    01-CLPSE +         B     UIOFSET                 76
 003338 47F0 A9DA            03C7E 30383    01-CLPSE +         B     RSTRASH                 80
 00333C 47F0 A8BC            03B60 30384    01-CLPSE +         B     PUTSMF                  84
 003340 47F0 A898            03B3C 30385    01-CLPSE +         B     PSEUDO                  88
 003344 47F0 A27E            03522 30386    01-CLPSE +         B     ADJSPB                  92
 003348 47F0 AA3A            03CDE 30387    01-CLPSE +         B     DEVSCAN                 96
 00334C 47F0 AAC4            03D68 30388    01-CLPSE +         B     DEVINFO                100
 003350 47F0 AB46            03DEA 30389    01-CLPSE +         B     TERMPUSH               104
 003354 47F0 AB5A            03DFE 30390    01-CLPSE +         B     TERMPOP                108
 003358 47F0 A3F6            0369A 30391    01-CLPSE +         B     REFSPB                 112
 00335C 47F0 AB76            03E1A 30392    01-CLPSE +         B     QTIMER                 116
 003360 47F0 ABEA            03E8E 30393    01-CLPSE +         B     CACTRLX                120
 003364 47F0 A4CE            03772 30394    01-CLPSE +         B     CLRSSYM                124
 003368 47F0 AC0E            03EB2 30395    01-CLPSE +         B     VREGION                128
 00336C 47F0 AC3C            03EE0 30396    01-CLPSE +         B     ADDVOL                 132
                                   30397    3800.     CLPSMAX  EQU   *-CLPSTBL-8
1M1SERV   (M1SE00) (09:42) (22MAR04) ORVYL'S Mode 1 Clpserv SVC                                                             Page  204
0Current Usings:  (PZERO,R0) (SCP,R7) (CLPSERV,R10) (CSEWORK-72,R12)
0Loc    Object Code    Addr1 Addr2  Stmt Lv Lineno    Source Statement           (Hibal 5, Asmedit 3.3)  HLASM R4.0  2004/03/22 09.42
+___    ______ ____    _____ _____  ____ __ ______    ______ _________
0                                  30400    3803.     *
                                   30401    3804.     *  GET TOTAL CPU TIME USED BY ORVYL ADDRESS SPACE
                                   30402    3805.     *
 003370                            30403    3806.     ORVTIME  LABEL ,
 003370 58F0 704C            0004C 30405    3807.              L     R15,SCPGPRS+15*4        LENGTH
 003374 59F0 ACE0            03F84 30406    3808.              IF    (R15,LT,=A(5*8)),CSER4   NOT LONG ENOUGH
 003378 4740 ACA2            03F46 30419             +
 00337C 4D50 AC5A            03EFE 30425    3809.              BAS   RK,CSCHKADD             CHECK AREA
 003380 5820 7014            00014 30426    3810.              L     RA,SCPGPRS+1*4          USER AREA
                                   30427    3811.     *
                                   30428    3812.     *  GET DISPATHER STATISTICS
                                   30429    3813.     *
 USING  @DSPSTAT-72,R13            30430    3814.              PSET  @DSPSTAT
 003384 D71F D048 D048 00000 00000 30447             +
 00338A 58F0 ACE4/0DEF       03F88 30448    3815.              VCALL DSPSTAT
 003390 D21F 2000 D048 00000 00000 30452    3816.              MVC   @RA(4*8),@DSPSTAT       MOVE TO CLP AREA
                                   30453    3817.     *
                                   30454    3818.     *  GET TOTAL MVS CHARGED CPU TIME FROM ASCB
                                   30455    3819.     *
 003396 5810 0200            00200 30456    3820.              L     RS,MATPTR               MAT POINTER
 00339A 5810 1010            00010 30457    3821.              WITH  (MAT,RS),'L  RS,MATM1CT'   CT POINTER
 USING  MAT,R1
 DROP   MAT,R1
 00339E 58E0 1048            00048 30481    3822.              WITH  (M1CT,RS),'L  R14,CTASCB'    ASCB ADDRESS
 USING  M1CT,R1
 DROP   M1CT,R1
 0033A2 41E0 E040            00040 30505    3823.              WITH  (ASCB,R14),'LA  R14,ASCBEJST'   TOTAL CPU FIELD
 USING  ASCB,R14
 DROP   ASCB,R14
 0033A6 1BFF                       30529    3824.              CLEAR R15                     KEY
 0033A8 4120 2020            00020 30533    3825.              LA    RA,@RA+(4*8)            DIRECTLY INTO CLP AREA
 0033AC 4130 0008            00008 30534    3826.              LA    RB,8                    LENGTH OF THE FIELD
 0033B0 832E000A                   30535    3827.              SYSCTL RA,R14,TYPE=MVSMRD     READ THE INFO
 0033B4 47F0 AC9C            03F40 30538    3828.              B     CSER0
1M1SERV   (M1SE00) (09:42) (22MAR04) ORVYL'S Mode 1 Clpserv SVC                                                             Page  205
0Current Usings:  (PZERO,R0) (SCP,R7) (CLPSERV,R10) (CSEWORK-72,R12) (@DSPSTAT-72,R13)
0Loc    Object Code    Addr1 Addr2  Stmt Lv Lineno    Source Statement           (Hibal 5, Asmedit 3.3)  HLASM R4.0  2004/03/22 09.42
+___    ______ ____    _____ _____  ____ __ ______    ______ _________
0                                  30540    3830.     *
                                   30541    3831.     *  READ MVS MEMORY
                                   30542    3832.     *
 0033B8                            30543    3833.     FETCH    LABEL ,
 0033B8 4D50 AC5A            03EFE 30545    3834.              BAS   RK,CSCHKADD             FIRST CHECK CLP AREA
 0033BC 1200/4770 ACAA       03F4E 30546    3835.              IF    (RVR,NZ),CSER8          NO GOOD
 0033C2 5820 7014            00014 30563    3836.              L     RA,SCPGPRS+1*4          CLP ADDRESS
 0033C6 5830 704C            0004C 30564    3837.              L     RB,SCPGPRS+15*4         LENGTH
 0033CA 58E0 7048            00048 30565    3838.              L     R14,SCPGPRS+14*4        MVS LOCATION
 0033CE 1BFF                       30566    3839.              CLEAR R15                     PROTECT KEY
 0033D0 832E000A                   30570    3840.              SYSCTL RA,R14,TYPE=MVSMRD     GET THE MEMORY
 0033D4 4780 AC9C            03F40 30573    3841.              IF    Z,CSER0                 RETURN OK
 0033D8 41F0 000C            0000C 30587    3842.              LA    R15,12                  NON ADDRESSABLE
 0033DC 47F0 ACB2            03F56 30588    3843.              B     CSEXT                   RETURN
-
                                   30590    3845.     *
                                   30591    3846.     *  WRITE MVS MEMORY
                                   30592    3847.     *
 0033E0                            30593    3848.     STORE    LABEL ,
 0033E0 1B33                       30595    3849.              CLEAR RB
 0033E2 47F0 A14E            033F2 30599    3850.              B     CSMCOM
                                   30600    3851.
 0033E6                            30601    3852.     OR       LABEL ,
 0033E6 4130 0100            00100 30603    3853.              LA    RB,1*256
 0033EA 47F0 A14E            033F2 30604    3854.              B     CSMCOM
                                   30605    3855.
 0033EE                            30606    3856.     AND      LABEL ,
 0033EE 4130 0200            00200 30608    3857.              LA    RB,2*256
                                   30609    3858.
 0033F2                            30610    3859.     CSMCOM   LABEL ,
 0033F2 4D50 AC5A            03EFE 30612    3860.              BAS   RK,CSCHKADD             FIRST CHECK CLP AREA
 0033F6 1200/4770 ACAA       03F4E 30613    3861.              IF    (RVR,NZ),CSER8          NO GOOD
 0033FC 58E0 7014            00014 30630    3862.              L     R14,SCPGPRS+1*4         CLP ADDRESS
 003400 58F0 704C            0004C 30631    3863.              L     R15,SCPGPRS+15*4         LENGTH
 003404 5820 7048            00048 30632    3864.              L     RA,SCPGPRS+14*4         MVS LOCATION
 003408 83E2000B                   30633    3865.              SYSCTL R14,RA,TYPE=MVSMWR     WRITE THE MEMORY
 00340C 4780 AC9C            03F40 30636    3866.              IF    Z,CSER0                 RETURN OK
 003410 41F0 000C            0000C 30650    3867.              LA    R15,12                  BAD ADDRESS CODE
 003414 47F0 ACB2            03F56 30651    3868.              B     CSEXT
1M1SERV   (M1SE00) (09:42) (22MAR04) ORVYL'S Mode 1 Clpserv SVC                                                             Page  206
0Current Usings:  (PZERO,R0) (SCP,R7) (CLPSERV,R10) (CSEWORK-72,R12) (@DSPSTAT-72,R13)
0Loc    Object Code    Addr1 Addr2  Stmt Lv Lineno    Source Statement           (Hibal 5, Asmedit 3.3)  HLASM R4.0  2004/03/22 09.42
+___    ______ ____    _____ _____  ____ __ ______    ______ _________
0                                  30653    3870.     *
                                   30654    3871.     *  ATTACH A USER TO A SHARED PROGRAM
                                   30655    3872.     *
 003418                            30656    3873.     ATTSPB   LABEL ,
 003418 9180 7262      00262       30658    3874.              IF    ~SCBFCLP,CSER4          NOT LEGAL FOR PSEUDO CLP
 00341C 47E0 ACA2            03F46 30670             +
 003420 5850 0200            00200 30676    3875.              L     RK,MATPTR               MAT POINTER
 003424 5850 5010            00010 30677    3876.              WITH  (MAT,RK),'L  RK,MATM1CT'   CT POINTER
 USING  MAT,R5
 DROP   MAT,R5
 USING  M1CT,R5                    30701    3877.              WITH  (M1CT,RK)
                                   30714    3878.     *
                                   30715    3879.     *  FIRST GET THE SPB CHAIN LOCK
                                   30716    3880.     *
 DROP   @DSPSTAT-72,R13            30717    3881.              LKOB  CTSPBCLK
 USING  @LOCKS-72,R13
 003428 D203 D048 5008 00000 00008 30736             +
 00342E 58F0 ACE8/0DEF       03F8C 30739             +
                                   30741    3882.     *
                                   30742    3883.     *  Search for SPB
                                   30743    3884.     *
 003434 5820 7014            00014 30744    3885.              L     RA,SCPGPRS+1*4          POINTER TO PROGRAM NAME
 003438 5830 704C            0004C 30745    3886.              L     RB,SCPGPRS+15*4         POINTER TO FILE NAME
 00343C 4140 5004            00004 30746    3887.              LA    RJ,CTSPBS               SPB CHAIN POINTER
 003440 4B40 AD5C            04000 30747    3888.              SH    RJ,=Y(SPBNEXT-SPB)      OFFSET TO CHAIN
 USING  SPB,R4                     30748    3889.              WITH  (SPB,RJ)
 003444 5840 4004/1244       00004 30761    3890.              WHILE ('LT  RJ,SPBNEXT',NZ),BEGIN
 00344A 4780 A1CA            0346E 30774             +
 00344E                            30779  1 3891.                IF    (SPBPROG,NE,@RA),NEXT   NOT A MATCH
 00344E D507 4010 2000 00010 00000 30790  1          +
 003454 4770 A1A0            03444 30793  1          +
 003458 9110 4045      00045       30799  1 3892.                IF    SPBFCORPSE,NEXT     Not a match
 00345C 4710 A1A0            03444 30811  1          +
 003460                            30817  1 3893.                IF    (SPBFILE,EQ,@RB),EXIT   GOT A MATCH
 003460 D52B 4018 3000 00018 00000 30828  1          +
 003466 4780 A1CA            0346E 30831  1          +
 00346A 47F0 A1A0            03444 30837    3894.              END   ,
1M1SERV   (M1SE00) (09:42) (22MAR04) ORVYL'S Mode 1 Clpserv SVC                                                             Page  207
0Current Usings:  (PZERO,R0) (SPB,R4) (M1CT,R5) (SCP,R7) (CLPSERV,R10) (CSEWORK-72,R12) (@LOCKS-72,R13)
0Loc    Object Code    Addr1 Addr2  Stmt Lv Lineno    Source Statement           (Hibal 5, Asmedit 3.3)  HLASM R4.0  2004/03/22 09.42
+___    ______ ____    _____ _____  ____ __ ______    ______ _________
0                                  30843    3896.     *
                                   30844    3897.     *  SPB found - Connect this caller
                                   30845    3898.     *
 00346E 1244/4780 A260       03504 30846    3899.              IF    (RJ,NZ),BEGIN
                                   30860  1 3900.     *
                                   30861  1 3901.     *  PROGRAM NOT YET ACTIVE - GET MEMORY FOR LOADING
                                   30862  1 3902.     *
 003474 9120 4045      00045       30863  1 3903.                IF    ~SPBFACTV,BEGIN
 003478 4710 A238            034DC 30873  1          +
 00347C 9680 4045      00045       30878  2 3904.                  SET   SPBFLOAD                NOTE LOADING IN PROGRESS
 003480 9140 4045      00045       30884  2 3905.                  IF    ~SPBFMEM,BEGIN          We need memory for SPB
 003484 4710 A238            034DC 30894  2          +
 003488 9108 4044      00044       30899  3 3906.                    IF    SPBFLHI,BEGIN
 00348C 47E0 A204            034A8 30909  3          +
 DROP   @LOCKS-72,R13              30914  4 3907.                      VMGET L:SPBSIZE,LOC=GLOBHI,TYPE=PROG,KEY=USER,FETP=NO
 USING  @VMGET-72,R13
 003490 D70A D048 D048 00000 00000 30941  4          +
 003496 D203 D048 404C 00000 0004C 30946  4          +
 00349C D201 D050 AD5E 00008 04002 30947  4          +
 0034A2 58F0 ACEC/0DEF       03F90 30950  4          +
 0034A8                            30952  3 3908.                    END   ,
 0034A8 A208           034A8 0348E 30956  3 3909.                    ELSE  BEGIN
 0034A8 47F0 A220            034C4 30961  3          +
 0034AC                            30967  4 3910.                      VMGET L:SPBSIZE,LOC=GLOBLO,TYPE=PROG,KEY=USER  GET MEMORY
 0034AC D70A D048 D048 00000 00000 30984  4          +
 0034B2 D203 D048 404C 00000 0004C 30989  4          +
 0034B8 D201 D050 AD60 00008 04004 30990  4          +
 0034BE 58F0 ACEC/0DEF       03F90 30993  4          +
 0034C4                            30995  3 3911.                    END   ,
 0034C4 1200/4780 A22E       034D2 30999  3 3912.                    IF    (RVR,NZ),BEGIN
 0034CA 5000 4048            00048 31013  4 3913.                      ST    RVR,SPBORGIN            SAVE PROGRAM ORIGIN
 0034CE 9640 4045      00045       31014  4 3914.                      SET   SPBFMEM                 Set as memory allocated
 0034D2                            31020  3 3915.                    END   ,
                                   31024  3 3916.     *
                                   31025  3 3917.     *  NOT ENOUGH MEMORY TO LOAD PROGRAM
                                   31026  3 3918.     *
 0034D2 A232           034D2 034C8 31027  3 3919.                    ELSE  BEGIN
 0034D2 47F0 A238            034DC 31032  3          +
 0034D6 947F 4045      00045       31038  4 3920.                      CLEAR SPBFLOAD
 0034DA 1B44                       31045  4 3921.                      CLEAR RJ
 0034DC                            31049  3 3922.                    END   ,
 0034DC                            31053  2 3923.                  END   ,                       OF We need memory for SPB
 0034DC                            31057  1 3924.                END
                                   31061  1 3925.     *
                                   31062  1 3926.     *  Program already loaded - update number of users
                                   31063  1 3927.     *
 0034DC A23C           034DC 0347A 31064  1 3928.                ELSE  BEGIN
 0034DC 47F0 A260            03504 31069  1          +
 0034E0 4110 0001            00001 31075  2 3929.                  INCR  RS,SPBNU                CURRENT NUMBER OF USERS
 0034E4 5E10 4054            00054 31079  2          +
 0034E8 5010 4054            00054 31080  2          +
 DROP   @VMGET-72,R13              31081  2 3930.                  PSET  @ACSPINF                Set name globally
 USING  @ACSPINF-72,R13
 0034EC D707 D048 D048 00000 00000 31101  2          +
1M1SERV   (M1SE00) (09:42) (22MAR04) ORVYL'S Mode 1 Clpserv SVC                                                             Page  208
0Current Usings:  (PZERO,R0) (SPB,R4) (M1CT,R5) (SCP,R7) (CLPSERV,R10) (CSEWORK-72,R12) (@ACSPINF-72,R13)
0Loc    Object Code    Addr1 Addr2  Stmt Lv Lineno    Source Statement           (Hibal 5, Asmedit 3.3)  HLASM R4.0  2004/03/22 09.42
+___    ______ ____    _____ _____  ____ __ ______    ______ _________
00034F2                            31102  2 3931.                  PMOV  @ACSPASB,PZCURASB       |
 0034F2 D203 D048 0208 00000 00208 31106  2          +
 0034F8                            31107  2 3932.                  PMOV  @ACSPORG,SPBORGIN       |
 0034F8 D203 D04C 4048 00004 00048 31111  2          +
 0034FE 58F0 ACF0/0DEF       03F94 31112  2 3933.                  VCALL ACSPINF                 |
 003504                            31116  1 3934.                END
 003504                            31120    3935.              END
 DROP   @ACSPINF-72,R13            31124    3936.              LKREL CTSPBCLK                RELEASE THE CHAIN LOCK
 USING  @LOCKS-72,R13
 003504 D203 D048 5008 00000 00008 31143             +
 00350A 58F0 ACF4/0DEF       03F98 31146             +
 003510 1244/4780 ACA2       03F46 31148    3937.              IF    (RJ,Z),CSER4            NO GO
 003516 5040 7268            00268 31165    3938.              ST    RJ,SCBSPB               SET SPB POINTER
 00351A 5040 7014            00014 31166    3939.              ST    RJ,SCPGPRS+1*4           AND RETURN TO CLP
 00351E 47F0 AC9C            03F40 31167    3940.              B     CSER0                   SUCCESSFUL COMPLETION
 DROP   SPB,R4                     31168    3941.              DROP  SPB,M1CT
 DROP   M1CT,R5
1M1SERV   (M1SE00) (09:42) (22MAR04) ORVYL'S Mode 1 Clpserv SVC                                                             Page  209
0Current Usings:  (PZERO,R0) (SCP,R7) (CLPSERV,R10) (CSEWORK-72,R12) (@LOCKS-72,R13)
0Loc    Object Code    Addr1 Addr2  Stmt Lv Lineno    Source Statement           (Hibal 5, Asmedit 3.3)  HLASM R4.0  2004/03/22 09.42
+___    ______ ____    _____ _____  ____ __ ______    ______ _________
0                                  31184    3943.     *
                                   31185    3944.     *  ADJUST AN SPB AFTER PROGRAM LOADING
                                   31186    3945.     *
 003522                            31187    3946.     ADJSPB   LABEL ,
 003522 9180 7262      00262       31189    3947.              IF    ~SCBFCLP,CSSPEC         ONLY REAL CLP
 003526 47E0 AC8C            03F30 31201             +
 00352A 5840 7268            00268 31207    3948.              L     RJ,SCBSPB               SPB POINTER
 00352E 1244/4780 ACA2       03F46 31208    3949.              IF    (RJ,Z),CSER4            ALL DONE
 USING  SPB,R4                     31225    3950.              WITH  (SPB,RJ)
 003534 5850 0200            00200 31238    3951.              L     RK,MATPTR               MAT POINTER
 003538 5850 5010            00010 31239    3952.              WITH  (MAT,RK),'L  RK,MATM1CT'   CT POINTER
 USING  MAT,R5
 DROP   MAT,R5
 USING  M1CT,R5                    31263    3953.              WITH  (M1CT,RK)
 00353C                            31276    3954.              LKOB  CTSPBCLK
 00353C D203 D048 5008 00000 00008 31285             +
 003542 58F0 ACE8/0DEF       03F8C 31288             +
 003548 947F 4045      00045       31290    3955.              CLEAR SPBFLOAD                LOADING COMPLETE
 00354C 9620 4045      00045       31297    3956.              SET   SPBFACTV                 AND PROGRAM ACTIVE
 003550 4110 0001            00001 31303    3957.              INCR  RS,SPBNU                CURRENT NUMBER OF USERS
 003554 5E10 4054            00054 31307             +
 003558 5010 4054            00054 31308             +
 DROP   @LOCKS-72,R13              31309    3958.              PSET  @ACSPINF                Set name globally
 USING  @ACSPINF-72,R13
 00355C D707 D048 D048 00000 00000 31329             +
 003562                            31330    3959.              PMOV  @ACSPASB,PZCURASB       |
 003562 D203 D048 0208 00000 00208 31334             +
 003568                            31335    3960.              PMOV  @ACSPORG,SPBORGIN       |
 003568 D203 D04C 4048 00004 00048 31339             +
 00356E 58F0 ACF0/0DEF       03F94 31340    3961.              VCALL ACSPINF                 |
                                   31344    3962.     *
                                   31345    3963.     *  PROTECT THE PROGRAM AREA
                                   31346    3964.     *
 003574 9140 4044      00044       31347    3965.              IF    SPBFPRT,BEGIN
 003578 47E0 A326            035CA 31357             +
 DROP   @ACSPINF-72,R13            31362  1 3966.                PSET  @PAGE
 USING  @PAGE-72,R13
 00357C D708 D048 D048 00000 00000 31382  1          +
 003582 D203 D048 4048 00000 00048 31383  1 3967.                MVC   @PAGLOC,SPBORGIN        SET LOCATION
 003588 D203 D04C 404C 00004 0004C 31384  1 3968.                MVC   @PAGLEN,SPBSIZE         AND LENGTH
 00358E 58F0 ACF8/0DEF       03F9C 31385  1 3969.                VCALL PAGPROT                 PROTECT THEM PAGES
 003594 1200/4780 A326       035CA 31389  1 3970.                IF    (RVR,NZ),'ABORT SPBPGPRT'   OOPS
 00359A AC04 021B      0021B       31407  2          +
 00359E 9680 021A      0021A       31413  2          +
 0035A2 50F0 021C            0021C 31414  2          +
 0035A6 58F0 0210            00210 31415  2          +
 0035AA 89F0 0010            00010 31416  2          +
 0035AE 88F0 0010            00010 31417  2          +
 0035B2 41F0 F000            00000 31418  2          +
 0035B6 AEFF 0006            00006 31419  2          +
 0035BA E2D7C2D7C7D7D9E3           31420  1          +
 0035CA                            31425    3971.              END
 DROP   @PAGE-72,R13               31429    3972.              LKREL CTSPBCLK
 USING  @LOCKS-72,R13
1M1SERV   (M1SE00) (09:42) (22MAR04) ORVYL'S Mode 1 Clpserv SVC                                                             Page  210
0Current Usings:  (PZERO,R0) (SPB,R4) (M1CT,R5) (SCP,R7) (CLPSERV,R10) (CSEWORK-72,R12) (@LOCKS-72,R13)
0Loc    Object Code    Addr1 Addr2  Stmt Lv Lineno    Source Statement           (Hibal 5, Asmedit 3.3)  HLASM R4.0  2004/03/22 09.42
+___    ______ ____    _____ _____  ____ __ ______    ______ _________
00035CA D203 D048 5008 00000 00008 31448             +
 0035D0 58F0 ACF4/0DEF       03F98 31451             +
 0035D6 47F0 AC9C            03F40 31453    3973.              B     CSER0                   RETURN TO THE USER
 DROP   SPB,R4                     31454    3974.              DROP  SPB,M1CT
 DROP   M1CT,R5
1M1SERV   (M1SE00) (09:42) (22MAR04) ORVYL'S Mode 1 Clpserv SVC                                                             Page  211
0Current Usings:  (PZERO,R0) (SCP,R7) (CLPSERV,R10) (CSEWORK-72,R12) (@LOCKS-72,R13)
0Loc    Object Code    Addr1 Addr2  Stmt Lv Lineno    Source Statement           (Hibal 5, Asmedit 3.3)  HLASM R4.0  2004/03/22 09.42
+___    ______ ____    _____ _____  ____ __ ______    ______ _________
0                                  31470    3976.
                                   31471    3977.
                                   31472    3978.             DETACH A USER FROM A SHARED PROGRAM
                                   31473    3979.

00035DA                            31474    3980.     DETSPB   LABEL
 0035DA 9180 7262      00262       31476    3981.              IF    ~SCBFCLP,CSSPEC         NO PSEUDO CLP ALLOWED
 0035DE 47E0 AC8C            03F30 31488             +
 0035E2 5840 7268            00268 31494    3982.              L     RJ,SCBSPB               SPB POINTER
 0035E6 1244/4780 A3E0       03684 31495    3983.              IF    (RJ,NZ),BEGIN
 0035EC 5880 0200            00200 31509  1 3984.                L     RM,MATPTR
 0035F0 5880 8010            00010 31510  1 3985.                WITH  (MAT,RM),'L RM,MATM1CT' CT ptr
 USING  MAT,R8
 DROP   MAT,R8
 USING  M1CT,R8                    31534  1 3986.                WITH  (M1CT,RM)
 0035F4                            31547  1 3987.                LKOB  CTSPBCLK
 0035F4 D203 D048 8008 00000 00008 31556  1          +
 0035FA 58F0 ACE8/0DEF       03F8C 31559  1          +
                                   31561  1 3988.
                                   31562  1 3989.                  Clean up the SPB
                                   31563  1 3990.
 USING  SPB,R4                     31564  1 3991.                WITH  (SPB,RJ)
 003600                            31577  1 3992.                CLEAR SCBSPB                  RESET SPB POINTER
 003600 D703 7268 7268 00268 00268 31583  1          +
                                   31584  1 3993.
                                   31585  1 3994.                  If program loading was interrupted release memory and
                                   31586  1 3995.                  reset SPB.
                                   31587  1 3996.
 003606 9180 4045      00045       31588  1 3997.                IF    SPBFLOAD,BEGIN      Interrupted load...
 00360A 47E0 A3BC            03660 31598  1          +
                                   31603  2 3998.     *         IF    SPBFLHI,BEGIN
 00360E 9500 4048      00048       31604  2 3999.                  IF    ('CLI SPBORGIN,0',NE),BEGIN
 003612 4780 A390            03634 31612  2          +
 DROP   @LOCKS-72,R13              31617  3 4000.                 VMFREE L:SPBSIZE,A=SPBORGIN,LOC=GLOBHI,TYPE=PROG,KEY=USER,FETP=NO
 USING  @VMFREE-72,R13
 003616 D709 D048 D048 00000 00000 31644  3          +
 00361C D203 D04C 404C 00004 0004C 31649  3          +
 003622 D203 D048 4048 00000 00048 31654  3          +
 003628 D201 D050 AD5E 00008 04002 31655  3          +
 00362E 58F0 ACFC/0DEF       03FA0 31658  3          +
 003634                            31660  2 4001.                  END   ,
 003634 A394           03634 03614 31664  2 4002.                  ELSE  BEGIN
 003634 47F0 A3B2            03656 31669  2          +
 003638                            31675  3 4003.                    VMFREE L:SPBSIZE,A=SPBORGIN,LOC=GLOBLO,TYPE=PROG,KEY=USER
 003638 D709 D048 D048 00000 00000 31692  3          +
 00363E D203 D04C 404C 00004 0004C 31697  3          +
 003644 D203 D048 4048 00000 00048 31702  3          +
 00364A D201 D050 AD60 00008 04004 31703  3          +
 003650 58F0 ACFC/0DEF       03FA0 31706  3          +
 003656                            31708  2 4004.                  END   ,
 003656 943F 4045      00045       31712  2 4005.                  CLEAR SPBFLOAD*SPBFMEM
 00365A                            31722  2 4006.                  CLEAR SPBORGIN
 00365A D703 4048 4048 00048 00048 31728  2          +
1M1SERV   (M1SE00) (09:42) (22MAR04) ORVYL'S Mode 1 Clpserv SVC                                                             Page  212
0Current Usings:  (PZERO,R0) (SPB,R4) (SCP,R7) (M1CT,R8) (CLPSERV,R10) (CSEWORK-72,R12) (@VMFREE-72,R13)
0Loc    Object Code    Addr1 Addr2  Stmt Lv Lineno    Source Statement           (Hibal 5, Asmedit 3.3)  HLASM R4.0  2004/03/22 09.42
+___    ______ ____    _____ _____  ____ __ ______    ______ _________
0003660                            31729  1 4007.                END
 003660 A3C0           03660 0360C 31733  1 4008.                ELSE  'DECR RS,SPBNU'         Otherwise reduce use count
 003660 47F0 A3CA            0366E 31738  1          +
 003664 5810 4054/0610       00054 31747  2          +
 00366A 5010 4054            00054 31749  1          +
                                   31754  1 4009.
                                   31755  1 4010.                  Attempt to purge the program if it is there
                                   31756  1 4011.
 00366E 4110 4000            00000 31757  1 4012.                LA    R1,SPB
 003672 58F0 AD00/0DEF       03FA4 31758  1 4013.                ACALL PURSPB                  Try for the purge
 DROP   @VMFREE-72,R13             31765  1 4014.                LKREL CTSPBCLK
 USING  @LOCKS-72,R13
 003678 D203 D048 8008 00000 00008 31784  1          +
 00367E 58F0 ACF4/0DEF       03F98 31787  1          +
 DROP   SPB,R4                     31789    4015.              END
 DROP   M1CT,R8
 DROP   @LOCKS-72,R13              31803    4016.              PSET  @ACSPINF                Clear name globally
 USING  @ACSPINF-72,R13
 003684 D707 D048 D048 00000 00000 31823             +
 00368A                            31824    4017.              PMOV  @ACSPASB,PZCURASB       |
 00368A D203 D048 0208 00000 00208 31828             +
 003690 58F0 ACF0/0DEF       03F94 31829    4018.              VCALL ACSPINF                 |
 003696 47F0 AC9C            03F40 31833    4019.              B     CSER0
1M1SERV   (M1SE00) (09:42) (22MAR04) ORVYL'S Mode 1 Clpserv SVC                                                             Page  213
0Current Usings:  (PZERO,R0) (SCP,R7) (CLPSERV,R10) (CSEWORK-72,R12) (@ACSPINF-72,R13)
0Loc    Object Code    Addr1 Addr2  Stmt Lv Lineno    Source Statement           (Hibal 5, Asmedit 3.3)  HLASM R4.0  2004/03/22 09.42
+___    ______ ____    _____ _____  ____ __ ______    ______ _________
0                                  31835    4021.
                                   31836    4022.
                                   31837    4023.             Refresh a shared program block.  We create a new one
                                   31838    4024.             for the program and mark the old one as a corpse.  New
                                   31839    4025.             calls will get the new version.
                                   31840    4026.

000369A                            31841    4027.     REFSPB   BEGIN ,                       Refresh SPB
 00369A 9180 7262      00262       31846  1 4028.                IF    ~SCBFCLP,CSER4
 00369E 47E0 ACA2            03F46 31858  1          +
 0036A2 5880 0200            00200 31864  1 4029.                L     RM,MATPTR
 0036A6 5880 8010            00010 31865  1 4030.                WITH  (MAT,RM),'L RM,MATM1CT'
 USING  MAT,R8
 DROP   MAT,R8
 USING  M1CT,R8                    31889  1 4031.                WITH  (M1CT,RM)
                                   31902  1 4032.     *
                                   31903  1 4033.     *  Get SPB chain lock
                                   31904  1 4034.     *
 DROP   @ACSPINF-72,R13            31905  1 4035.                LKOB  CTSPBCLK
 USING  @LOCKS-72,R13
 0036AA D203 D048 8008 00000 00008 31924  1          +
 0036B0 58F0 ACE8/0DEF       03F8C 31927  1          +
                                   31929  1 4036.     *
                                   31930  1 4037.     *  Look for specified shared program (program name uniquely quals)
                                   31931  1 4038.     *
 0036B6 5820 7014            00014 31932  1 4039.                L     RA,SCPGPRS+1*4          Pointer to program name
 0036BA 4140 8000            00000 31933  1 4040.                LA    RJ,CTSPBS-(SPBNEXT-SPB)
 USING  SPB,R4                     31934  1 4041.                WITH  (SPB,RJ)
 0036BE 5840 4004/1244       00004 31947  1 4042.                WHILE ('LT RJ,SPBNEXT',NZ),BEGIN       Look for SPB
 0036C4 4780 A43A            036DE 31960  1          +
 0036C8                            31965  2 4043.                  IF    ((SPBNAME,EQ,@RA),AND,~SPBFCORPSE),EXIT
 0036C8 D507 4008 2000 00008 00000 31978  2          +
 0036CE 4770 A436            036DA 31979  2          +
 0036D2 9110 4045      00045       31990  2          +
 0036D6 47E0 A43A            036DE 31993  2          +
 0036DA 47F0 A41A            036BE 31999  1 4044.                END   ,                       OF Look for SPB
 0036DE 1244/4770 A448       036EC 32004  1 4045.                IF    (RJ,ZERO),BEGIN         Couldn't find SPB
 0036E4 41F0 0004            00004 32018  2 4046.                  LA    R15,4
 0036E8 47F0 A4BA            0375E 32019  2 4047.                  B     REFSPBX
 0036EC                            32020  1 4048.                END   ,                       OF Couldn't find SPB
 0036EC 9120 4045      00045       32024  1 4049.                IF    ~SPBFACTV,BEGIN     Not active, no refresh needed...
 0036F0 4710 A456            036FA 32034  1          +
 0036F4 1BFF                       32039  2 4050.                  CLEAR R15
 0036F6 47F0 A4BA            0375E 32043  2 4051.                  B     REFSPBX
 0036FA                            32044  1 4052.                END
                                   32048  1 4053.     *
                                   32049  1 4054.     *  Allocate new SPB
                                   32050  1 4055.     *
                                   32051  1 4056.     *         VMGET L'SPB,LOC=GLOBLO,TYPE=DATA
 DROP   @LOCKS-72,R13              32052  1 4057.                VMGET L'SPB,LOC=GLOBHI,TYPE=PROG
 USING  @VMGET-72,R13
 0036FA D70A D048 D048 00000 00000 32079  1          +
 003700 4100 0072            00072 32091  1          +
1M1SERV   (M1SE00) (09:42) (22MAR04) ORVYL'S Mode 1 Clpserv SVC                                                             Page  214
0Current Usings:  (PZERO,R0) (SPB,R4) (SCP,R7) (M1CT,R8) (CLPSERV,R10) (CSEWORK-72,R12) (@VMGET-72,R13)
0Loc    Object Code    Addr1 Addr2  Stmt Lv Lineno    Source Statement           (Hibal 5, Asmedit 3.3)  HLASM R4.0  2004/03/22 09.42
+___    ______ ____    _____ _____  ____ __ ______    ______ _________
0003704 5000 D048            00000 32096  1          +
 003708 D201 D050 AD62 00008 04006 32097  1          +
 00370E 58F0 ACEC/0DEF       03F90 32100  1          +
 003714 1250/4770 A47E       03722 32102  1 4058.                IF    ('LTR RK,RVR',ZERO),BEGIN        New SPB not avail
 00371A 41F0 0004            00004 32115  2 4059.                  LA    R15,4
 00371E 47F0 A4BA            0375E 32116  2 4060.                  B     REFSPBX
 003722                            32117  1 4061.                END   ,                       OF New SPB not avail
 USING  NEW.SPB,R5                 32121  1 4062.                WITH  (SPB,RK),LABEL=NEW
                                   32129  1 4063.
                                   32130  1 4064.                  Copy the old SPB into the new SPB, then reset the
                                   32131  1 4065.                  information about the loaded program.
                                   32132  1 4066.
 003722 D271 5000 4000 00000 00000 32133  1 4067.                MVC   NEW.SPB,SPB             Copy the whole thing first
 003728                            32134  1 4068.                CLEAR NEW.SPBORGIN            No origin yet
 003728 D703 5048 5048 00048 00048 32140  1          +
 00372E                            32141  1 4069.                CLEAR NEW.SPBNU               No users
 00372E D703 5054 5054 00054 00054 32147  1          +
 003734                            32148  1 4070.                CLEAR NEW.SPBNREF             No references
 003734 D703 505C 505C 0005C 0005C 32154  1          +
 00373A                            32155  1 4071.                CLEAR NEW.SPBSSB              No symbols yet
 00373A D703 5058 5058 00058 00058 32161  1          +
 003740 9200 5045      00045       32162  1 4072.                CLEAR NEW.SPBFL2              And these flags get cleared
                                   32169  1 4073.
                                   32170  1 4074.                  Insert the new SPB on the queue
                                   32171  1 4075.
 003744 D203 5004 8004 00004 00004 32172  1 4076.                MVC   NEW.SPBNEXT,CTSPBS      Point it at the head
 00374A 5050 8004            00004 32173  1 4077.                PMOV  CTSPBS,LA:NEW.SPB       and point the head at it
                                   32184  1 4078.
                                   32185  1 4079.                  Mark old SPB as a corpse so it will no longer be used, then
                                   32186  1 4080.                  check to see if it can be deleted
                                   32187  1 4081.
 00374E 9610 4045      00045       32188  1 4082.                SET   SPBFCORPSE              Don't use this SPB any more
 003752 4110 4000            00000 32194  1 4083.                LA    R1,SPB
 003756 58F0 AD00/0DEF       03FA4 32195  1 4084.                ACALL PURSPB                  Try to clean it up
                                   32202  1 4085.     *
                                   32203  1 4086.     *
 00375C 1BFF                       32204  1 4087.                CLEAR R15
 00375E                            32208  1 4088.     REFSPBX    LABEL ,
 00375E 182F                       32210  1 4089.                LR    RA,R15
 DROP   @VMGET-72,R13              32211  1 4090.                LKREL CTSPBCLK
 USING  @LOCKS-72,R13
 003760 D203 D048 8008 00000 00008 32230  1          +
 003766 58F0 ACF4/0DEF       03F98 32233  1          +
 00376C 18F2                       32235  1 4091.                LR    R15,RA
 DROP   NEW.SPB,R5                 32236    4092.              END   ,                       OF Refresh SPB
 DROP   SPB,R4
 DROP   M1CT,R8
 00376E 47F0 ACB2            03F56 32258    4093.              B     CSEXT
1M1SERV   (M1SE00) (09:42) (22MAR04) ORVYL'S Mode 1 Clpserv SVC                                                             Page  215
0Current Usings:  (PZERO,R0) (SCP,R7) (CLPSERV,R10) (CSEWORK-72,R12) (@LOCKS-72,R13)
0Loc    Object Code    Addr1 Addr2  Stmt Lv Lineno    Source Statement           (Hibal 5, Asmedit 3.3)  HLASM R4.0  2004/03/22 09.42
+___    ______ ____    _____ _____  ____ __ ______    ______ _________
0                                  32260    4095.
                                   32261    4096.
                                   32262    4097.             Remove all the shared symbol references
                                   32263    4098.

0003772                            32264    4099.     CLRSSYM  LABEL
 003772 5880 0200            00200 32266    4100.              L     RM,MATPTR
 003776 5880 8010            00010 32267    4101.              WITH  (MAT,RM),'L RM,MATM1CT' CT ptr
 USING  MAT,R8
 DROP   MAT,R8
 USING  M1CT,R8                    32291    4102.              WITH  (M1CT,RM)
 00377A                            32304    4103.              LKOB  CTSPBCLK
 00377A D203 D048 8008 00000 00008 32313             +
 003780 58F0 ACE8/0DEF       03F8C 32316             +
                                   32318    4104.
                                   32319    4105.                Since the user is exiting the shared program, we can clear
                                   32320    4106.                all the symbol access references.
                                   32321    4107.
 003786 5820 728C            0028C 32322    4108.              L     RA,SCBSSAB              Get the head of the chain
 00378A 1222/4780 A59E       03842 32323    4109.              WHILE (RA,NZ),BEGIN
 USING  SSAB,R2                    32339  1 4110.                WITH  (SSAB,RA)
 003790                            32352  1 4111.                FAIL  (SSAB,NE,'SSAB'),BADSSABQ
 003790 D503 AD04 2000 03FA8 00000 32364  1          +
 003796 4780 A526            037CA 32365  1          +
 00379A AC04 021B      0021B       32373  2          +
 00379E 9680 021A      0021A       32379  2          +
 0037A2 50F0 021C            0021C 32380  2          +
 0037A6 58F0 0210            00210 32381  2          +
 0037AA 89F0 0010            00010 32382  2          +
 0037AE 88F0 0010            00010 32383  2          +
 0037B2 41F0 F000            00000 32384  2          +
 0037B6 AEFF 0006            00006 32385  2          +
 0037BA C2C1C4E2E2C1C2D8           32386  1          +
 0037CA 5840 2008            00008 32391  1 4112.                L     RJ,SSABSPB              Get the SPB location
 USING  SPB,R4                     32392  1 4113.                WITH  (SPB,RJ)
 0037CE                            32405  1 4114.                FAIL  (SPB,NE,'SPB'),BADSSAB  Only look at good ones
 0037CE D502 AD6A 4000 0400E 00000 32417  1          +
 0037D4 4780 A564            03808 32418  1          +
 0037D8 AC04 021B      0021B       32426  2          +
 0037DC 9680 021A      0021A       32432  2          +
 0037E0 50F0 021C            0021C 32433  2          +
 0037E4 58F0 0210            00210 32434  2          +
 0037E8 89F0 0010            00010 32435  2          +
 0037EC 88F0 0010            00010 32436  2          +
 0037F0 41F0 F000            00000 32437  2          +
 0037F4 AEFF 0006            00006 32438  2          +
 0037F8 C2C1C4E2E2C1C240           32439  1          +
 003808 5810 405C/0610       0005C 32444  1 4115.                DECR  RS,SPBNREF              Delete the reference
 00380E 5010 405C            0005C 32448  1          +
 003812 1814                       32449  1 4116.                LR    R1,RJ                   Attempt to purge and delete it
 003814 58F0 AD00/0DEF       03FA4 32450  1 4117.                ACALL PURSPB                  Try to purge it
 00381A 5830 2004            00004 32457  1 4118.                L     RB,SSABNEXT             Address of the next
 DROP   @LOCKS-72,R13              32458  1 4119.                VMFREE L'SSAB,A=(RA),LOC=LOCSYS
1M1SERV   (M1SE00) (09:42) (22MAR04) ORVYL'S Mode 1 Clpserv SVC                                                             Page  216
0Current Usings:  (PZERO,R0) (SSAB,R2) (SPB,R4) (SCP,R7) (M1CT,R8) (CLPSERV,R10) (CSEWORK-72,R12) (@VMFREE-72,R13)
0Loc    Object Code    Addr1 Addr2  Stmt Lv Lineno    Source Statement           (Hibal 5, Asmedit 3.3)  HLASM R4.0  2004/03/22 09.42
+___    ______ ____    _____ _____  ____ __ ______    ______ _________
0USING  @VMFREE-72,R13
 00381E D709 D048 D048 00000 00000 32485  1          +
 003824 4100 000C            0000C 32497  1          +
 003828 5000 D04C            00004 32502  1          +
 00382C 5020 D048            00000 32512  1          +
 003830 D201 D050 AD64 00008 04008 32513  1          +
 003836 58F0 ACFC/0DEF       03FA0 32516  1          +
 00383C 1823                       32518  1 4120.                LR    RA,RB
 00383E 47F0 A4E6            0378A 32519    4121.              END
 DROP   SPB,R4
 DROP   SSAB,R2
 003842 5020 728C            0028C 32534    4122.              ST    RA,SCBSSAB              Clear the queue header now
 DROP   @VMFREE-72,R13             32535    4123.              LKREL CTSPBCLK
 USING  @LOCKS-72,R13
 003846 D203 D048 8008 00000 00008 32554             +
 00384C 58F0 ACF4/0DEF       03F98 32557             +
 003852 47F0 AC9C            03F40 32559    4124.              B     CSER0
1M1SERV   (M1SE00) (09:42) (22MAR04) ORVYL'S Mode 1 Clpserv SVC                                                             Page  217
0Current Usings:  (PZERO,R0) (SCP,R7) (M1CT,R8) (CLPSERV,R10) (CSEWORK-72,R12) (@LOCKS-72,R13)
0Loc    Object Code    Addr1 Addr2  Stmt Lv Lineno    Source Statement           (Hibal 5, Asmedit 3.3)  HLASM R4.0  2004/03/22 09.42
+___    ______ ____    _____ _____  ____ __ ______    ______ _________
0                                  32561    4126.     *
                                   32562    4127.     *  GET USER INFORMATION
                                   32563    4128.     *
 003856                            32564    4129.     UINFO    LABEL ,
 003856 4D50 AC5A            03EFE 32566    4130.              BAS   RK,CSCHKADD             CHECK BUFFER
 00385A 58F0 704C            0004C 32567    4131.              L     R15,SCPGPRS+15*4        LENGTH
 00385E 59F0 AD08            03FAC 32568    4132.              IF    (R15,LT,40),CSSPEC      NO GOOD
 003862 4740 AC8C            03F30 32582             +
 003866 5820 7014            00014 32588    4133.              L     RA,SCPGPRS+1*4          BUFFER AREA
 00386A 5840 0200            00200 32589    4134.              L     RJ,MATPTR               MAT POINTER
 USING  MAT,R4                     32590    4135.              WITH  (MAT,RJ)
 00386E 5830 7048            00048 32603    4136.              L     RB,SCPGPRS+14*4         ASB POINTER
 003872                            32604    4137.              LKOB  MATASBL                 GET THE ASB LOCK
 003872 D203 D048 40B0 00000 000B0 32613             +
 003878 58F0 ACE8/0DEF       03F8C 32616             +
 00387E 1233/4770 A5E4       03888 32618    4138.              IF    (RB,Z),'L  RB,MATASBS'  FIRST ASB
 003884 5830 40AC            000AC 32633             +
 USING  ASB,R3                     32638    4139.              WITH  (ASB,RB)
 003888                            32651    4140.              IF    ((ASBID,EQ,=CL4'ASB'),AND,(ASBAIB,NZ)),BEGIN
 003888 D503 AD0C 3000 03FB0 00000 32664             +
 00388E 4770 A67C            03920 32665             +
 003892 D603 3034 3034 00034 00034 32677             +
 003898 4780 A67C            03920 32678             +
 DROP   @LOCKS-72,R13              32683  1 4141.                PSET  @ACINFO
 USING  @ACINFO-72,R13
 00389C D727 D048 D048 00000 00000 32703  1          +
 0038A2 5030 D048            00000 32704  1 4142.                ST    RB,@ACIASB              SET ASB
 0038A6 58F0 AD10/0DEF       03FB4 32705  1 4143.                VCALL ACINFO                  GET RESOURCE USAGE
 0038AC D203 2004 D04C 00004 00004 32709  1 4144.                MVC   @RA+4(4),@ACIIOS        I/O COUNT
 0038B2 D207 2008 D050 00008 00008 32710  1 4145.                MVC   @RA+8(8),@ACICPU        CPU TIME
 0038B8 D207 2018 D060 00018 00018 32711  1 4146.                MVC   @RA+24(8),@ACIPGNM      PROGRAM NAME
 0038BE D203 2020 D068 00020 00020 32712  1 4147.                MVC   @RA+32(4),@ACITID       TERMINAL ID
 0038C4 D203 2024 D06C 00024 00024 32713  1 4148.                MVC   @RA+36(4),@ACIORG       SHARED PROGRAM ADDRESS
 DROP   @ACINFO-72,R13             32714  1 4149.                PSET  @ACAINFO
 USING  @ACAINFO-72,R13
 0038CA D717 D048 D048 00000 00000 32734  1          +
 0038D0 5030 D048            00000 32735  1 4150.                ST    RB,@ACAASB              SET ASB
 0038D4 58F0 AD14/0DEF       03FB8 32736  1 4151.                VCALL ACAINFO                 GET ACCOUNTING INFO
 0038DA D207 2010 D04C 00010 00004 32740  1 4152.                MVC   @RA+16(8),@ACAUID       USER ID
 0038E0 B205 C048      00000       32741  1 4153.                STCK  CSENAME
 0038E4 98EF C048            00000 32742  1 4154.                LM    R14,R15,CSENAME         Get current time
 0038E8 5EF0 0224            00224 32743  1 4155.                ADL   R14,PZTZOFF             Add time zone offset
 0038EC 47C0 A650            038F4 32752  1          +
 0038F0 5EE0 AD18            03FBC 32758  1          +
 0038F4 5EE0 0220            00220 32763  1          +
 0038F8 8DE0 000C            0000C 32764  1 4156.                SLDL  R14,12                  Significance
 0038FC 9801 D058            00010 32765  1 4157.                LM    R0,R1,@ACALOT           Logon time
 003900 8D00 000C            0000C 32766  1 4158.                SLDL  R0,12                   Significance
 003904 1FE0                       32767  1 4159.                SLR   R14,R0                  Calc time logged on
 003906 18FE                       32768  1 4160.                LR    R15,R14
 003908 1BEE                       32769  1 4161.                CLEAR R14
 00390A 9801 ACC4            03F68 32773  1 4162.                LM    R0,R1,=FL8S12E5'600'    One minute
 00390E 8D00 000C            0000C 32774  1 4163.                SLDL  R0,12                   Significance
 003912 1DE0                       32775  1 4164.                DR    R14,R0                  Calc number of minutes
1M1SERV   (M1SE00) (09:42) (22MAR04) ORVYL'S Mode 1 Clpserv SVC                                                             Page  218
0Current Usings:  (PZERO,R0) (ASB,R3) (MAT,R4) (SCP,R7) (M1CT,R8) (CLPSERV,R10) (CSEWORK-72,R12) (@ACAINFO-72,R13)
0Loc    Object Code    Addr1 Addr2  Stmt Lv Lineno    Source Statement           (Hibal 5, Asmedit 3.3)  HLASM R4.0  2004/03/22 09.42
+___    ______ ____    _____ _____  ____ __ ______    ______ _________
0003914 50F0 2028            00028 32776  1 4165.                ST    R15,@RA+40              Number of minutes logged on
 003918                            32777  1 4166.                WITH  (ASB,RB),'MVC  @RA(4),ASBNEXT'   NEXT ASB
 003918 D203 2000 3004 00000 00004 32785  1          +
 00391E 1B22                       32789  1 4167.                CLEAR RA
 003920                            32793    4168.              END   ,
 003920 A680           03920 03890 32797    4169.              ELSE  'LA  RA,4'
 00389A A680           0389C 03920 32802             +
 003920 47F0 A684            03928 32804             +
 003924 4120 0004            00004 32811             +
 DROP   @ACAINFO-72,R13            32816    4170.              LKREL MATASBL                 RELEASE THE ASB LOCK
 USING  @LOCKS-72,R13
 003928 D203 D048 40B0 00000 000B0 32835             +
 00392E 58F0 ACF4/0DEF       03F98 32838             +
 003934 18F2                       32840    4171.              LR    R15,RA                  RETURN CODE
 003936 47F0 ACB2            03F56 32841    4172.              B     CSEXT
 DROP   MAT,R4                     32842    4173.              DROP  MAT,ASB
 DROP   ASB,R3
1M1SERV   (M1SE00) (09:42) (22MAR04) ORVYL'S Mode 1 Clpserv SVC                                                             Page  219
0Current Usings:  (PZERO,R0) (SCP,R7) (M1CT,R8) (CLPSERV,R10) (CSEWORK-72,R12) (@LOCKS-72,R13)
0Loc    Object Code    Addr1 Addr2  Stmt Lv Lineno    Source Statement           (Hibal 5, Asmedit 3.3)  HLASM R4.0  2004/03/22 09.42
+___    ______ ____    _____ _____  ____ __ ______    ______ _________
0                                  32858    4175.     *
                                   32859    4176.     *  CHECK ADDRESS FOR CLP
                                   32860    4177.     *
 00393A                            32861    4178.     CHKADDR  LABEL ,
 00393A 4D50 AC5A            03EFE 32863    4179.              BAS   RK,CSCHKADD             GO CHECK ADDRESS
 00393E 1200/4780 A6A4       03948 32864    4180.              IF    (RVR,NZ),'LA  RVR,2'    NOTE PROTECTED (READ ONLY)
 003944 4100 0002            00002 32879             +
 003948 5000 7010            00010 32884    4181.              ST    RVR,SCPGPRS+0*4         OK ADDRESS
 00394C 47F0 AC9C            03F40 32885    4182.              B     CSER0
-
                                   32887    4184.     *
                                   32888    4185.     *  GET KERNAL MAP POINTERS
                                   32889    4186.     *
 003950                            32890    4187.     GETMAP   LABEL ,
 003950 5820 0200            00200 32892    4188.              L     RA,MATPTR               MAT POINTER
 USING  MAT,R2                     32893    4189.              WITH  (MAT,RA),BEGIN
 003954 D203 7014 20E8 00014 000E8 32907  1 4190.                MVC   SCPGPRS+1*4(4),MATKMAP   MAP POINTER
 00395A D203 704C 20EC 0004C 000EC 32908  1 4191.                MVC   SCPGPRS+15*4(4),MATKMAPL   MAP LENGTH
 DROP   MAT,R2                     32909    4192.              END   ,
 003960 47F0 ACB6            03F5A 32917    4193.              B     CSEXTGO
                                   32918    4194.     *
                                   32919    4195.     *  LOCATE COMMUNICATIONS TABLE
                                   32920    4196.     *
 003964                            32921    4197.     LOCCT    LABEL ,
 003964 5820 0200            00200 32923    4198.              L     RA,MATPTR               MAT POINTER
 USING  MAT,R2                     32924    4199.              WITH  (MAT,RA),BEGIN
 003968 D203 7014 2010 00014 00010 32938  1 4200.                MVC   SCPGPRS+1*4(4),MATM1CT   CT POINTER
 DROP   MAT,R2                     32939    4201.              END   ,
 00396E 41F0 006C            0006C 32947    4202.              LA    R15,L'M1CT              LENGTH
 003972 47F0 ACB2            03F56 32948    4203.              B     CSEXT
1M1SERV   (M1SE00) (09:42) (22MAR04) ORVYL'S Mode 1 Clpserv SVC                                                             Page  220
0Current Usings:  (PZERO,R0) (SCP,R7) (M1CT,R8) (CLPSERV,R10) (CSEWORK-72,R12) (@LOCKS-72,R13)
0Loc    Object Code    Addr1 Addr2  Stmt Lv Lineno    Source Statement           (Hibal 5, Asmedit 3.3)  HLASM R4.0  2004/03/22 09.42
+___    ______ ____    _____ _____  ____ __ ______    ______ _________
0                                  32950    4205.     *
                                   32951    4206.     *  TURN ON PAGE PROTECTION
                                   32952    4207.     *
 003976                            32953    4208.     PGPRTON  LABEL ,
 003976 4D50 AC5A            03EFE 32955    4209.              BAS   RK,CSCHKADD             FIRST CHECK ADDRESS
 DROP   @LOCKS-72,R13              32956    4210.              PSET  @PAGE
 USING  @PAGE-72,R13
 00397A D708 D048 D048 00000 00000 32976             +
 003980 D203 D048 7014 00000 00014 32977    4211.              MVC   @PAGLOC,SCPGPRS+1*4     SET LOCATION
 003986 D203 D04C 704C 00004 0004C 32978    4212.              MVC   @PAGLEN,SCPGPRS+15*4     AND LENGTH
 00398C 58F0 ACF8/0DEF       03F9C 32979    4213.              VCALL PAGPROT                 PROTECT THEM PAGES
 003992 1200/4780 A724       039C8 32983    4214.              IF    (RVR,NZ),'ABORT CLPGPRT'   OOPS
 003998 AC04 021B      0021B       33001  1          +
 00399C 9680 021A      0021A       33007  1          +
 0039A0 50F0 021C            0021C 33008  1          +
 0039A4 58F0 0210            00210 33009  1          +
 0039A8 89F0 0010            00010 33010  1          +
 0039AC 88F0 0010            00010 33011  1          +
 0039B0 41F0 F000            00000 33012  1          +
 0039B4 AEFF 0006            00006 33013  1          +
 0039B8 C3D3D7C7D7D9E340           33014             +
 0039C8 47F0 ACB6            03F5A 33019    4215.              B     CSEXTGO
                                   33020    4216.     *
                                   33021    4217.     *  TURN OFF PAGE PROTECTION
                                   33022    4218.     *
 0039CC                            33023    4219.     PGPRTOFF LABEL ,
 0039CC 4D50 AC5A            03EFE 33025    4220.              BAS   RK,CSCHKADD             FIRST CHECK ADDRESS
 0039D0                            33026    4221.              PSET  @PAGE
 0039D0 D708 D048 D048 00000 00000 33036             +
 0039D6 D203 D048 7014 00000 00014 33037    4222.              MVC   @PAGLOC,SCPGPRS+1*4     SET LOCATION
 0039DC D203 D04C 704C 00004 0004C 33038    4223.              MVC   @PAGLEN,SCPGPRS+15*4     AND LENGTH
 0039E2 58F0 AD1C/0DEF       03FC0 33039    4224.              VCALL PAGUPROT                UNPROTECT THEM PAGES
 0039E8 1200/4780 A77A       03A1E 33043    4225.              IF    (RVR,NZ),'ABORT CLPGUPRT'   OOPS
 0039EE AC04 021B      0021B       33061  1          +
 0039F2 9680 021A      0021A       33067  1          +
 0039F6 50F0 021C            0021C 33068  1          +
 0039FA 58F0 0210            00210 33069  1          +
 0039FE 89F0 0010            00010 33070  1          +
 003A02 88F0 0010            00010 33071  1          +
 003A06 41F0 F000            00000 33072  1          +
 003A0A AEFF 0006            00006 33073  1          +
 003A0E C3D3D7C7E4D7D9E3           33074             +
 003A1E 47F0 ACB6            03F5A 33079    4226.              B     CSEXTGO
1M1SERV   (M1SE00) (09:42) (22MAR04) ORVYL'S Mode 1 Clpserv SVC                                                             Page  221
0Current Usings:  (PZERO,R0) (SCP,R7) (M1CT,R8) (CLPSERV,R10) (CSEWORK-72,R12) (@PAGE-72,R13)
0Loc    Object Code    Addr1 Addr2  Stmt Lv Lineno    Source Statement           (Hibal 5, Asmedit 3.3)  HLASM R4.0  2004/03/22 09.42
+___    ______ ____    _____ _____  ____ __ ______    ______ _________
0                                  33081    4228.     *
                                   33082    4229.     *  GET CLW MEMORY
                                   33083    4230.     *
 003A22                            33084    4231.     GETCLW   LABEL
 003A22 5830 7014            00014 33086    4232.              L     RB,SCPGPRS+1*4          REQUESTED LENGTH
 003A26 4130 3FFF            00FFF 33087    4233.              LA    RB,@RB+4095             ROUND UP TO
 003A2A 5430 AD20            03FC4 33088    4234.              N     RB,=X'00FFF000'          PAGE BOUNDARY
 DROP   @PAGE-72,R13               33089    4235.              VMGET (RB),LOC=LOCSYS,TYPE=PROG,FETP=YES
 USING  @VMGET-72,R13
 003A2E D70A D048 D048 00000 00000 33116             +
 003A34 5030 D048            00000 33126             +
 003A38 D201 D050 AD66 00008 0400A 33127             +
 003A3E 58F0 ACEC/0DEF       03F90 33130             +
                                   33132    4236.     *
                                   33133    4237.     *  IF MEMORY RETURNED CLEAR IT - OTHERWISE GIVE ERROR CODE
                                   33134    4238.     *
 003A44 1200/4780 ACA2       03F46 33135    4239.              IF    (RVR,Z),CSER4           ERROR
 003A4A 5000 7014            00014 33152    4240.              ST    RVR,SCPGPRS+1*4         RETURN ADDRESS
 003A4E 1820                       33153    4241.              LR    RA,RVR                  LOCATION
 003A50 1B11                       33154    4242.              CLEAR RS
 003A52 0E20                       33158    4243.              MVCL  RA,R0                   CLEAR
 003A54 47F0 AC9C            03F40 33159    4244.              B     CSER0                   THATS ALL
1M1SERV   (M1SE00) (09:42) (22MAR04) ORVYL'S Mode 1 Clpserv SVC                                                             Page  222
0Current Usings:  (PZERO,R0) (SCP,R7) (M1CT,R8) (CLPSERV,R10) (CSEWORK-72,R12) (@VMGET-72,R13)
0Loc    Object Code    Addr1 Addr2  Stmt Lv Lineno    Source Statement           (Hibal 5, Asmedit 3.3)  HLASM R4.0  2004/03/22 09.42
+___    ______ ____    _____ _____  ____ __ ______    ______ _________
0                                  33161    4246.     *
                                   33162    4247.     *  FREE CLW MEMORY
                                   33163    4248.     *
 003A58                            33164    4249.     FREECLW  LABEL ,
 003A58 5810 7014            00014 33166    4250.              L     RS,SCPGPRS+1*4          LOCATION
 003A5C 58F0 704C            0004C 33167    4251.              L     R15,SCPGPRS+15*4        LENGTH
 003A60 1AF1                       33168    4252.              AR    R15,RS                  LAST BYTE
 003A62 5410 AD20            03FC4 33169    4253.              N     RS,=X'00FFF000'         ROUND TO PAGE BOUNDARY
 003A66 1BF1                       33170    4254.              SR    R15,RS                  NUMBER OF BYTES
 003A68 41F0 FFFF            00FFF 33171    4255.              LA    R15,@R15+4095           ROUND UP TO
 003A6C 54F0 AD20            03FC4 33172    4256.              N     R15,=X'00FFF000'         PAGES
 DROP   @VMGET-72,R13              33173    4257.              VMFREE (R15),A=(RS),LOC=LOCSYS,TYPE=PROG,FETP=YES
 USING  @VMFREE-72,R13
 003A70 D709 D048 D048 00000 00000 33200             +
 003A76 50F0 D04C            00004 33210             +
 003A7A 5010 D048            00000 33220             +
 003A7E D201 D050 AD66 00008 0400A 33221             +
 003A84 58F0 ACFC/0DEF       03FA0 33224             +
 003A8A 1200/4780 A81C       03AC0 33226    4258.              IF    (RVR,NZ),'ABORT FREECLW'
 003A90 AC04 021B      0021B       33244  1          +
 003A94 9680 021A      0021A       33250  1          +
 003A98 50F0 021C            0021C 33251  1          +
 003A9C 58F0 0210            00210 33252  1          +
 003AA0 89F0 0010            00010 33253  1          +
 003AA4 88F0 0010            00010 33254  1          +
 003AA8 41F0 F000            00000 33255  1          +
 003AAC AEFF 0006            00006 33256  1          +
 003AB0 C6D9C5C5C3D3E640           33257             +
 003AC0 47F0 ACB6            03F5A 33262    4259.              B     CSEXTGO                 NOT MUCH TO DO
1M1SERV   (M1SE00) (09:42) (22MAR04) ORVYL'S Mode 1 Clpserv SVC                                                             Page  223
0Current Usings:  (PZERO,R0) (SCP,R7) (M1CT,R8) (CLPSERV,R10) (CSEWORK-72,R12) (@VMFREE-72,R13)
0Loc    Object Code    Addr1 Addr2  Stmt Lv Lineno    Source Statement           (Hibal 5, Asmedit 3.3)  HLASM R4.0  2004/03/22 09.42
+___    ______ ____    _____ _____  ____ __ ______    ______ _________
0                                  33264    4261.     *
                                   33265    4262.     *  TRANSLATE SYMBOLIC NAME INTO AN MVS ADDRESS
                                   33266    4263.     *
 003AC4                            33267    4264.     REGION   LABEL ,
 003AC4 4D50 AC5A            03EFE 33269    4265.              BAS   RK,CSCHKADD             CHECK NAME FIELD
 003AC8 D207 C048 ACCC 00000 03F70 33270    4266.              MVC   CSENAME(8),=CL8' '
 003ACE 5810 7014            00014 33271    4267.              L     RS,SCPGPRS+1*4          POINTER TO SUPPLIED NAME
 003AD2 58F0 704C            0004C 33272    4268.              L     R15,SCPGPRS+15*4         LENGTH
 003AD6 06F0/44F0 AD82       04026 33273    4269.              DEX   R15,'MVC CSENAME(0),@RS'   MOVE NAME
 004026 D200 C048 1000 00000 00000 33284             +
 003ADC 4110 C048            00000 33292    4270.              LA    RS,CSENAME
 003AE0 8310000C                   33293    4271.              SYSCTL RS,TYPE=MVSNAM         TRY TO FIND IT
 003AE4 1211/4780 ACA2       03F46 33296    4272.              IF    (RS,Z),CSER4            NOT FOUND
 003AEA 5010 7014            00014 33313    4273.              ST    RS,SCPGPRS+1*4          RETURN ADDRESS
 003AEE 47F0 AC9C            03F40 33314    4274.              B     CSER0                   NOT FOUND
-
                                   33316    4276.     *
                                   33317    4277.     *  UPDATE USER PRIVILEGE BYTE
                                   33318    4278.     *
 003AF2                            33319    4279.     PRIVTST  LABEL ,
 DROP   @VMFREE-72,R13             33321    4280.              PSET  @ACAINFO
 USING  @ACAINFO-72,R13
 003AF2 D717 D048 D048 00000 00000 33341             +
 003AF8 D203 D048 0208 00000 00208 33342    4281.              MVC   @ACAASB,PZCURASB        CURRENT ASB
 003AFE 58F0 AD14/0DEF       03FB8 33343    4282.              VCALL ACAINFO                 GET INFO
 003B04 D200 71B7 D057 001B7 0000F 33347    4283.              MVC   SCPPRIV,MILPRIV         UPDATE PRIVS
 003B0A 47F0 AC9C            03F40 33348    4284.              B     CSER0
1M1SERV   (M1SE00) (09:42) (22MAR04) ORVYL'S Mode 1 Clpserv SVC                                                             Page  224
0Current Usings:  (PZERO,R0) (SCP,R7) (M1CT,R8) (CLPSERV,R10) (CSEWORK-72,R12) (@ACAINFO-72,R13)
0Loc    Object Code    Addr1 Addr2  Stmt Lv Lineno    Source Statement           (Hibal 5, Asmedit 3.3)  HLASM R4.0  2004/03/22 09.42
+___    ______ ____    _____ _____  ____ __ ______    ______ _________
0                                  33350    4286.     *
                                   33351    4287.     * SET PSW KEY
                                   33352    4288.     *
 003B0E                            33353    4289.     SETKEY   LABEL ,
 003B0E 1FFF/43F0 7009       00009 33355    4290.              LC    R15,SCPPSW+1            GET CURRENT KEY
 003B14 88F0 0004            00004 33362    4291.              SRL   R15,4
 003B18 940F 7009      00009       33363    4292.              NI    SCPPSW+1,X'0F'          CLEAR CURRENT KEY
 003B1C 5810 7014            00014 33364    4293.              L     RS,SCPGPRS+1*4          GET NEW KEY
 003B20 8910 0004            00004 33365    4294.              SLL   RS,4                    SHIFT NEW KEY
 003B24 4410 AD88            0402C 33366    4295.              EX    RS,'OI  SCPPSW+1,0'     OR IN NEW KEY
 00402C 9600 7009      00009       33374             +
 003B28 47F0 ACB2            03F56 33382    4296.              B     CSEXT
-
                                   33384    4298.     *
                                   33385    4299.     *  OBTAIN SPB CHAIN POINTER
                                   33386    4300.     *
 003B2C                            33387    4301.     SPBPTR   LABEL ,
 003B2C 58F0 0200            00200 33389    4302.              L     R15,MATPTR               MAT POINTER
 003B30 58F0 F010            00010 33390    4303.              WITH  (MAT,R15),'L  R15,MATM1CT'   CT POINTER
 USING  MAT,R15
 DROP   MAT,R15
 003B34 58F0 F004            00004 33414    4304.              WITH  (M1CT,R15),'L  R15,CTSPBS'    SPB CHAIN
 USING  M1CT,R15
 DROP   M1CT,R15
 003B38 47F0 ACB2            03F56 33438    4305.              B     CSEXT
-
                                   33440    4307.     *
                                   33441    4308.     *  SET/CLEAR PSEUDO CLP STATUS
                                   33442    4309.     *
 003B3C                            33443    4310.     PSEUDO   LABEL ,
 003B3C 94F7 7262      00262       33445    4311.              CLEAR SCBFPCLP                ASSUME CLEAR
 003B40 5810 7014            00014 33452    4312.              L     RS,SCPGPRS+1*4          CODE
 003B44 1211/4780 ACB6       03F5A 33453    4313.              IF    (RS,Z),CSEXTGO          GOOD GUESS
 003B4A 9608 7262      00262       33470    4314.              SET   SCBFPCLP                SET IT
 003B4E 47F0 ACB6            03F5A 33476    4315.              B     CSEXTGO
-
                                   33478    4317.     *
                                   33479    4318.     *  ADJUST NUMBER OF PAGE FRAMES
                                   33480    4319.     *
 003B52                            33481    4320.     SETPF    LABEL ,
 003B52 5810 7014            00014 33483    4321.              L     RS,SCPGPRS+1*4          CODE
 003B56 1211/47D0 ACA2       03F46 33484    4322.              IF    (RS,NPOS),CSER4         CHECK ARGUMENT
 003B5C 47F0 ACB6            03F5A 33501    4323.              B     CSEXTGO
1M1SERV   (M1SE00) (09:42) (22MAR04) ORVYL'S Mode 1 Clpserv SVC                                                             Page  225
0Current Usings:  (PZERO,R0) (SCP,R7) (M1CT,R8) (CLPSERV,R10) (CSEWORK-72,R12) (@ACAINFO-72,R13)
0Loc    Object Code    Addr1 Addr2  Stmt Lv Lineno    Source Statement           (Hibal 5, Asmedit 3.3)  HLASM R4.0  2004/03/22 09.42
+___    ______ ____    _____ _____  ____ __ ______    ______ _________
0                                  33503    4325.     *
                                   33504    4326.     *  WRITE AN SMF RECORD
                                   33505    4327.     *
 003B60                            33506    4328.     PUTSMF   LABEL ,
 003B60 4D50 AC5A            03EFE 33508    4329.              BAS   RK,CSCHKADD             CHECK USER DATA AREA
 DROP   @ACAINFO-72,R13            33509    4330.              VMGET L'CSESMF,LOC=LOCSYS
 USING  @VMGET-72,R13
 003B64 D70A D048 D048 00000 00000 33536             +
 003B6A 4100 0078            00078 33548             +
 003B6E 5000 D048            00000 33553             +
 003B72 D201 D050 AD64 00008 04008 33554             +
 003B78 58F0 ACEC/0DEF       03F90 33557             +
 003B7E 1240/4780 ACB6       03F5A 33559    4331.              IF    ('LTR  RJ,RVR',Z),CSEXTGO    NOT ENOUGH MEMORY
 USING  CSESMF,R4                  33575    4332.              WITH  (CSESMF,RJ)
 003B84                            33588    4333.              CLEAR CSESMF                  TIDY UP
 003B84 D777 4000 4000 00000 00000 33594             +
                                   33595    4334.     *
                                   33596    4335.     *  Get caller supplied data
                                   33597    4336.     *
 003B8A 58E0 7014            00014 33598    4337.              L     R14,SCPGPRS+1*4         USER LOCATION
 003B8E 58F0 704C            0004C 33599    4338.              L     R15,SCPGPRS+R15*4        AND LENGTH
 003B92 59F0 AD24            03FC8 33600    4339.              CEIL  R15,L'SMFDATA           MAXIMUM DATA LENGTH
 003B96 47D0 A8FA            03B9E 33609             +
 003B9A 58F0 AD24            03FC8 33614             +
 003B9E 4120 4028            00028 33619    4340.              LA    RA,SMFDATA              DATA LOCATION
 003BA2 183F                       33620    4341.              LR    RB,R15                   COPY LENGTH
 003BA4 0E2E                       33621    4342.              MVCL  RA,R14                  BRING IN DATA
                                   33622    4343.     *
                                   33623    4344.     *  FILL IN SMF RECORD
                                   33624    4345.     *
 003BA6 D201 4003 71AA 00003 001AA 33625    4346.              MVC   SMFGRP,SCPGROUP         COPY GROUP
 003BAC D202 4000 71AD 00000 001AD 33626    4347.              MVC   SMFUSER,SCPUSER          AND USER
                                   33627    4348.     *
                                   33628    4349.     *  ADD ORVYL NAME
                                   33629    4350.     *
 003BB2 5820 0200            00200 33630    4351.              L     RA,MATPTR               MAT POINTER
 USING  MAT,R2                     33631    4352.              WITH  (MAT,RA)
 003BB6 D207 4008 20D4 00008 000D4 33644    4353.              MVC   SMFSYSTM,MATSNAME
                                   33645    4354.     *
                                   33646    4355.     *  GET TIME BLOCK FROM SCIP CVT
                                   33647    4356.     *
 003BBC 58E0 2010            00010 33648    4357.              L     R14,MATM1CT             CT POINTER
 DROP   MAT,R2                     33649    4358.              DROP  MAT
 003BC0 58E0 E04C            0004C 33657    4359.              WITH  (M1CT,R14),'L  R14,CTSCVT'   "SCIP" CVT POINTER
 USING  M1CT,R14
 DROP   M1CT,R14
 003BC4 41E0 E00F            0000F 33681    4360.              WITH  (SCVT,R14),'LA  R14,SCVBLOCK'    BLOCK BYTE
 USING  SCVT,R14
 DROP   SCVT,R14
 003BC8 41F0 000E            0000E 33705    4361.              LA    R15,14                  AVERAGE GUY
 003BCC 4120 4027            00027 33706    4362.              LA    RA,SMFBLOCK             PLACE TO PUT IT
 003BD0 4130 0001            00001 33707    4363.              LA    RB,1                    ONE BYTE IS ALL WE WANT
 003BD4 832E000A                   33708    4364.              SYSCTL RA,R14,TYPE=MVSMRD     GET IT
                                   33711    4365.     *
1M1SERV   (M1SE00) (09:42) (22MAR04) ORVYL'S Mode 1 Clpserv SVC                                                             Page  226
0Current Usings:  (PZERO,R0) (CSESMF,R4) (SCP,R7) (M1CT,R8) (CLPSERV,R10) (CSEWORK-72,R12) (@VMGET-72,R13)
0Loc    Object Code    Addr1 Addr2  Stmt Lv Lineno    Source Statement           (Hibal 5, Asmedit 3.3)  HLASM R4.0  2004/03/22 09.42
+___    ______ ____    _____ _____  ____ __ ______    ______ _________
0                                  33712    4366.     *  GET TIME AND DATE OF LOGON
                                   33713    4367.     *
 DROP   @VMGET-72,R13              33714    4368.              PSET  @ACAINFO
 USING  @ACAINFO-72,R13
 003BD8 D717 D048 D048 00000 00000 33734             +
 003BDE D203 D048 0208 00000 00208 33735    4369.              MVC   @ACAASB,PZCURASB        CURRENT ASB
 003BE4 58F0 AD14/0DEF       03FB8 33736    4370.              VCALL ACAINFO                 GET INFO
 003BEA 98EF D058            00010 33740    4371.              LM    R14,R15,@ACALOT         CLOCK AT LOGON
 DROP   @ACAINFO-72,R13            33741    4372.              PSET  @TOD
 USING  @TOD-72,R13
 003BEE D713 D048 D048 00000 00000 33761             +
 003BF4 90EF D048            00000 33762    4373.              STM   R14,R15,@TODCLK         TOD FORMAT
 003BF8 58F0 AD28/0DEF       03FCC 33763    4374.              ACALL SENSETD2
 003BFE D203 401C D050 0001C 00008 33770    4375.              MVC   SMFTON,@TODTIM          SET TIME
 003C04 D203 4020 D058 00020 00010 33771    4376.              MVC   SMFDON,@TODDAT           AND DATE
                                   33772    4377.     *
                                   33773    4378.     *  WRITE THE RECORD
                                   33774    4379.     *
 003C0A 5810 704C            0004C 33775    4380.              L     RS,SCPGPRS+R15*4        USER LENGTH
 003C0E 5910 AD24            03FC8 33776    4381.              CEIL  RS,L'SMFDATA            MAXIMUM DATA LENGTH
 003C12 47D0 A976            03C1A 33785             +
 003C16 5810 AD24            03FC8 33790             +
 003C1A 4110 1028            00028 33795    4382.              LA    RS,@RS+L'SMFHDR         RECORD LENGTH
 003C1E BF18 704B            0004B 33796    4383.              ICM   RS,B'1000',SCPGPRS+14*4+3   RECORD NUMBER
 003C22 8341000D                   33797    4384.              SYSCTL RJ,RS,TYPE=SMF
 DROP   @TOD-72,R13                33800    4385.              VMFREE  L'CSESMF,A=(RJ),LOC=LOCSYS
 USING  @VMFREE-72,R13
 003C26 D709 D048 D048 00000 00000 33827             +
 003C2C 4100 0078            00078 33839             +
 003C30 5000 D04C            00004 33844             +
 003C34 5040 D048            00000 33854             +
 003C38 D201 D050 AD64 00008 04008 33855             +
 003C3E 58F0 ACFC/0DEF       03FA0 33858             +
 DROP   CSESMF,R4                  33860    4386.              DROP  RJ
 003C44 1200/4780 A9D6       03C7A 33867    4387.              IF    (RVR,NZ),'ABORT FREESMF'
 003C4A AC04 021B      0021B       33885  1          +
 003C4E 9680 021A      0021A       33891  1          +
 003C52 50F0 021C            0021C 33892  1          +
 003C56 58F0 0210            00210 33893  1          +
 003C5A 89F0 0010            00010 33894  1          +
 003C5E 88F0 0010            00010 33895  1          +
 003C62 41F0 F000            00000 33896  1          +
 003C66 AEFF 0006            00006 33897  1          +
 003C6A C6D9C5C5E2D4C640           33898             +
 003C7A 47F0 ACB6            03F5A 33903    4388.              B     CSEXTGO                 RETURN CODE SET
1M1SERV   (M1SE00) (09:42) (22MAR04) ORVYL'S Mode 1 Clpserv SVC                                                             Page  227
0Current Usings:  (PZERO,R0) (SCP,R7) (M1CT,R8) (CLPSERV,R10) (CSEWORK-72,R12) (@VMFREE-72,R13)
0Loc    Object Code    Addr1 Addr2  Stmt Lv Lineno    Source Statement           (Hibal 5, Asmedit 3.3)  HLASM R4.0  2004/03/22 09.42
+___    ______ ____    _____ _____  ____ __ ______    ______ _________
0                                  33905    4390.     *
                                   33906    4391.     *  RESET THE TRASH BYTE TO THE DEFAULT
                                   33907    4392.     *
 003C7E                            33908    4393.     RSTRASH  LABEL ,
 003C7E 5820 0200            00200 33910    4394.              L     RA,MATPTR               MAT POINTER
 003C82 5820 2010            00010 33911    4395.              WITH  (MAT,RA),'L  RA,MATM1CT'   CT POINTER
 USING  MAT,R2
 DROP   MAT,R2
 DROP   M1CT,R8                    33935    4396.              WITH  (M1CT,RA),'MVC  SCPTRASH,CTTRASH'    DEFAULT TRASH BYTE
 USING  M1CT,R2
 003C86 D200 7202 203C 00202 0003C 33958             +
 USING  M1CT,R8
 DROP   M1CT,R2
 003C8C 47F0 ACB6            03F5A 33976    4397.              B     CSEXTGO
-
                                   33978    4399.     *
                                   33979    4400.     *  Enable/Disable user I/O functions
                                   33980    4401.     *
 003C90                            33981    4402.     UIOFSET  LABEL ,
 003C90 5810 7014            00014 33983    4403.              L     RS,SCPGPRS+1*4          Function ID
 003C94 58F0 704C            0004C 33984    4404.              L     R15,SCPGPRS+15*4        On/Off indicator
 003C98 5820 0200            00200 33985    4405.              L     RA,MATPTR               MAT POINTER
 003C9C 5820 2010            00010 33986    4406.              WITH  (MAT,RA),'L  RA,MATM1CT'   CT POINTER
 USING  MAT,R2
 DROP   MAT,R2
 DROP   M1CT,R8                    34010    4407.              WITH  (M1CT,RA)
 USING  M1CT,R2
 003CA0 12FF/4780 AA06       03CAA 34031    4408.              IF    (R15,NZ),'EX  0,UIOFDIS(RS)'   Turn it off
 003CA6 4401 AA12            03CB6 34047             +
 003CAA AA0A           03CAA 03CA4 34052    4409.              ELSE  'EX  0,UIOFENB(RS)'            Turn it on
 003CAA 47F0 AA0E            03CB2 34057             +
 003CAE 4401 AA26            03CCA 34065             +
 003CB2 47F0 ACB6            03F5A 34070    4410.              B     CSEXTGO
                                   34071    4411.
 003CB6 9680 205C      0005C       34072    4412.     UIOFDIS  SET   CTMFPATH
 003CBA 9610 205C      0005C       34079    4413.              SET   CTMFJES
 003CBE 9640 205C      0005C       34085    4414.              SET   CTMFOSF
 003CC2 9620 205C      0005C       34091    4415.              SET   CTMFKEY
 003CC6 9608 205C      0005C       34097    4416.              SET   CTMFNET
                                   34103    4417.
 003CCA 947F 205C      0005C       34104    4418.     UIOFENB  CLEAR CTMFPATH
 003CCE 94EF 205C      0005C       34112    4419.              CLEAR CTMFJES
 003CD2 94BF 205C      0005C       34119    4420.              CLEAR CTMFOSF
 003CD6 94DF 205C      0005C       34126    4421.              CLEAR CTMFKEY
 003CDA 94F7 205C      0005C       34133    4422.              CLEAR CTMFNET
                                   34140    4423.
 DROP   M1CT,R2                    34141    4424.              DROP  RA
1M1SERV   (M1SE00) (09:42) (22MAR04) ORVYL'S Mode 1 Clpserv SVC                                                             Page  228
0Current Usings:  (PZERO,R0) (SCP,R7) (CLPSERV,R10) (CSEWORK-72,R12) (@VMFREE-72,R13)
0Loc    Object Code    Addr1 Addr2  Stmt Lv Lineno    Source Statement           (Hibal 5, Asmedit 3.3)  HLASM R4.0  2004/03/22 09.42
+___    ______ ____    _____ _____  ____ __ ______    ______ _________
0                                  34149    4426.     *
                                   34150    4427.     *  Scan the device tables
                                   34151    4428.     *
 003CDE                            34152    4429.     DEVSCAN  LABEL ,
                                   34154    4430.     *
                                   34155    4431.     *  Starting value must be in proper range
                                   34156    4432.     *
 003CDE 58F0 7014            00014 34157    4433.              L     R15,SCPGPRS+1*4         Starting IDT number
 003CE2 12FF/4740 ACAA       03F4E 34158    4434.              IF    ((R15,M),OR,(R15,GT,SCPNIDT)),CSER8
 003CE8 49F0 7210            00210 34182             +
 003CEC 4720 ACAA            03F4E 34185             +
 003CF0 41F0 F001            00001 34191    4435.              LA    R15,@R15+1              Next IDT
                                   34192    4436.     *
                                   34193    4437.     *  Loop through the IDTs
                                   34194    4438.     *
 003CF4 49F0 7210            00210 34195    4439.              WHILE (R15,LE,SCPNIDT),BEGIN
 003CF8 4730 AAC0            03D64 34209             +
 003CFC 182F                       34214  1 4440.                LR    RA,R15                  COPY NUMBER
 003CFE 0620                       34215  1 4441.                DECR  RA
 003D00 4C20 AD68            0400C 34217  1 4442.                MH    RA,=Y(L'IDT)
 003D04 5E20 720C            0020C 34218  1 4443.                AL    RA,SCPIDT               FIRST IDT
 USING  IDT,R2                     34219  1 4444.                WITH  (IDT,RA)
                                   34232  1 4445.     *
                                   34233  1 4446.     *  If device is active see if it fits the bill
                                   34234  1 4447.     *
 003D08 91C0 2004      00004       34235  1 4448.                IF    IDTFA+IDTFACL,BEGIN
 003D0C 4780 AAB8            03D5C 34248  1          +
 003D10 5810 704C            0004C 34253  2 4449.                  L     RS,SCPGPRS+15*4
 003D14 1211/4770 AA7E       03D22 34254  2 4450.                  IF    (RS,Z),BEGIN
 003D1A 50F0 7014            00014 34268  3 4451.                    ST    R15,SCPGPRS+1*4
 003D1E 47F0 AC9C            03F40 34269  3 4452.                    B     CSER0
 003D22                            34270  2 4453.                  END
 003D22 5910 AD2C            03FD0 34274  2 4454.                  IF    ((RS,EQ,4),AND,IDTFA),BEGIN
 003D26 4770 AA96            03D3A 34288  2          +
 003D2A 9180 2004      00004       34299  2          +
 003D2E 47E0 AA96            03D3A 34300  2          +
 003D32 50F0 7014            00014 34305  3 4455.                    ST    R15,SCPGPRS+1*4
 003D36 47F0 AC9C            03F40 34306  3 4456.                    B     CSER0
 003D3A                            34307  2 4457.                  END
 003D3A 5910 AD30            03FD4 34311  2 4458.                  IF    ((RS,EQ,8),AND,IDTCFIL,AND,(IDTDEVID,NZ)),BEGIN
 003D3E 4770 AAB8            03D5C 34325  2          +
 003D42 9502 2006      00006       34336  2          +
 003D46 4770 AAB8            03D5C 34337  2          +
 003D4A D603 2024 2024 00024 00024 34349  2          +
 003D50 4780 AAB8            03D5C 34350  2          +
 003D54 50F0 7014            00014 34355  3 4459.                    ST    R15,SCPGPRS+1*4
 003D58 47F0 AC9C            03F40 34356  3 4460.                    B     CSER0
 003D5C                            34357  2 4461.                  END
 003D5C                            34361  1 4462.                END
 003D5C 41F0 F001            00001 34365  1 4463.                LA    R15,@R15+1              Next IDT
 003D60 47F0 AA50            03CF4 34366    4464.              END
 DROP   IDT,R2
 003D64 47F0 ACA2            03F46 34376    4465.              B     CSER4
1M1SERV   (M1SE00) (09:42) (22MAR04) ORVYL'S Mode 1 Clpserv SVC                                                             Page  229
0Current Usings:  (PZERO,R0) (SCP,R7) (CLPSERV,R10) (CSEWORK-72,R12) (@VMFREE-72,R13)
0Loc    Object Code    Addr1 Addr2  Stmt Lv Lineno    Source Statement           (Hibal 5, Asmedit 3.3)  HLASM R4.0  2004/03/22 09.42
+___    ______ ____    _____ _____  ____ __ ______    ______ _________
0
                                   34378    4467.     *
                                   34379    4468.     *  Obtain device information
                                   34380    4469.     *
 003D68                            34381    4470.     DEVINFO  LABEL ,
 003D68 4D50 AC5A            03EFE 34383    4471.              BAS   RK,CSCHKADD             Check buffer
 003D6C 5840 7048            00048 34384    4472.              L     RJ,SCPGPRS+14*4         Get IDT number
                                   34385    4473.     *
                                   34386    4474.     *  Must be in proper range
                                   34387    4475.     *
 003D70 1244/4780 ACAA       03F4E 34388    4476.              IF    ((RJ,Z),OR,(RJ,GT,SCPNIDT)),CSER8
 003D76 4940 7210            00210 34412             +
 003D7A 4720 ACAA            03F4E 34415             +
                                   34421    4477.     *
                                   34422    4478.     *  Get IDT address
                                   34423    4479.     *
 003D7E 0640                       34424    4480.              DECR  RJ
 003D80 4C40 AD68            0400C 34426    4481.              MH    RJ,=Y(L'IDT)
 003D84 5E40 720C            0020C 34427    4482.              AL    RJ,SCPIDT               FIRST IDT
 USING  IDT,R4                     34428    4483.              WITH  (IDT,RJ)
                                   34441    4484.     *
                                   34442    4485.     *  Check that device is active
                                   34443    4486.     *
 003D88 91C0 4004      00004       34444    4487.              IF    (IDTFA+IDTFACL,Z),CSER4
 003D8C 4780 ACA2            03F46 34461             +
                                   34467    4488.     *
                                   34468    4489.     *  Move data
                                   34469    4490.     *
 003D90 5820 7014            00014 34470    4491.              L     RA,SCPGPRS+1*4          Get location
 003D94 5830 704C            0004C 34471    4492.              L     RB,SCPGPRS+15*4          and length
0003D98 9502 4006      00006       34473    4494.              IF    IDTCLASS.IDTCFIL,BEGIN
 003D9C 4770 AB42            03DE6 34483             +
 003DA0 5930 AD34            03FD8 34488  1 4495.                IF    (RB,LT,L'@FMFINAM+2),CSER8
 003DA4 4740 ACAA            03F4E 34502  1          +
 DROP   @VMFREE-72,R13             34508  1 4496.                PSET  @FMFINFO
 USING  @FMFINFO-72,R13
 003DA8 D735 D048 D048 00000 00000 34528  1          +
 003DAE                            34529  1 4497.                PMOV  @FMFIDID,IDTDEVID
 003DAE D203 D048 4024 00000 00024 34533  1          +
 003DB4 58F0 AD38/0DEF       03FDC 34534  1 4498.                VCALL FMANFINF
 003DBA 9200 2000      00000       34538  1 4499.                MVI   @RA,0
 003DBE 9180 D051      00009       34539  1 4500.                IF    @FMFISHR,'SET  @RA.X"80"'
 003DC2 47E0 AB26            03DCA 34549  1          +
 003DC6 9680 2000      00000       34561  1          +
 003DCA 9140 D051      00009       34566  1 4501.                IF    @FMFIRSV,'SET  @RA.X"40"'
 003DCE 47E0 AB32            03DD6 34576  1          +
 003DD2 9640 2000      00000       34588  1          +
 003DD6 D200 2001 D050 00001 00008 34593  1 4502.                MVC   @RA+1(1),@FMFIPRI
 003DDC D22B 2002 D052 00002 0000A 34594  1 4503.                MVC   @RA+2(L'@FMFINAM),@FMFINAM
 003DE2 47F0 ACB6            03F5A 34595  1 4504.                B     CSEXTGO
 003DE6                            34596    4505.              END
 003DE6 47F0 ACA2            03F46 34600    4506.              B     CSER4
1M1SERV   (M1SE00) (09:42) (22MAR04) ORVYL'S Mode 1 Clpserv SVC                                                             Page  230
0Current Usings:  (PZERO,R0) (IDT,R4) (SCP,R7) (CLPSERV,R10) (CSEWORK-72,R12) (@FMFINFO-72,R13)
0Loc    Object Code    Addr1 Addr2  Stmt Lv Lineno    Source Statement           (Hibal 5, Asmedit 3.3)  HLASM R4.0  2004/03/22 09.42
+___    ______ ____    _____ _____  ____ __ ______    ______ _________
0                                  34602    4508.     *
                                   34603    4509.     *  TERMINAL INFO PUSH
                                   34604    4510.     *
 003DEA                            34605    4511.     TERMPUSH LABEL
 003DEA 5820 720C            0020C 34607    4512.              L     RA,SCPIDT               FIRST IDT IS TERMINAL
 DROP   IDT,R4                     34608    4513.              WITH  (IDT,RA)
 USING  IDT,R2
 003DEE D200 2028 2004 00028 00004 34629    4514.              MVC   IDTTRFL,IDTFLG          SAVE FLAGS
 003DF4 D20B 202C 2008 0002C 00008 34630    4515.              MVC   IDTTRRG(3*4),IDTR1       AND REGS
 003DFA 47F0 ACB6            03F5A 34631    4516.              B     CSEXTGO
-
                                   34633    4518.     *
                                   34634    4519.     *  TERMINAL INFO POP
                                   34635    4520.     *
 003DFE                            34636    4521.     TERMPOP  LABEL
 003DFE 5820 720C            0020C 34638    4522.              L     RA,SCPIDT               FIRST IDT IS TERMINAL
                                   34639    4523.              WITH  (IDT,RA)
 003E02 9438 2028      00028       34643    4524.              NI    IDTTRFL,L'IDTFR1+L'IDTFR15+L'IDTFR14
 003E06 94C7 2004      00004       34644    4525.              CLEAR IDTFLG.IDTFR1+IDTFR15+IDTFR14
 003E0A D600 2004 2028 00004 00028 34658    4526.              OC    IDTFLG(1),IDTTRFL
 003E10 D20B 2008 202C 00008 0002C 34659    4527.              MVC   IDTR1(12),IDTTRRG
 003E16 47F0 ACB6            03F5A 34660    4528.              B     CSEXTGO
1M1SERV   (M1SE00) (09:42) (22MAR04) ORVYL'S Mode 1 Clpserv SVC                                                             Page  231
0Current Usings:  (PZERO,R0) (IDT,R2) (SCP,R7) (CLPSERV,R10) (CSEWORK-72,R12) (@FMFINFO-72,R13)
0Loc    Object Code    Addr1 Addr2  Stmt Lv Lineno    Source Statement           (Hibal 5, Asmedit 3.3)  HLASM R4.0  2004/03/22 09.42
+___    ______ ____    _____ _____  ____ __ ______    ______ _________
0                                  34662    4530.     *
                                   34663    4531.     *  Do Timing for "Orvyl queued"
                                   34664    4532.     *
 003E1A                            34665    4533.     QTIMER   LABEL
 003E1A 9180 7262      00262       34667    4534.              IF    ~SCBFCLP,CSSPEC         ONLY REAL CLP
 003E1E 47E0 AC8C            03F30 34679             +
 003E22 94F7 7265      00265       34685    4535.              CLEAR SCBXCPT                 CLP TIMER EXIT CANCEL
 003E26 9138 7263      00263       34692    4536.              IF    SCBTCPTR+SCBTCPCT+SCBTCPQU,BEGIN   TIMER NOW RUNNING
 003E2A 4780 ABBE            03E62 34709             +
                                   34714  1 4537.     *
                                   34715  1 4538.     *  CPU TIMER IS NOW RUNNING
                                   34716  1 4539.     *
 003E2E 9110 7263      00263       34717  1 4540.                IF    SCBTCPCT,BEGIN          CURRENT TIMER IS CPU TIME
 003E32 47E0 ABA4            03E48 34727  1          +
 DROP   @FMFINFO-72,R13            34732  2 4541.                  PSET  @CPCNCK
 USING  @CPCNCK-72,R13
 003E36 D71F D048 D048 00000 00000 34752  2          +
 003E3C D203 D048 71D0 00000 001D0 34753  2 4542.                  MVC   @CPCID,SCPCCLK          CLOCK ID
 003E42 58F0 AD3C/0DEF       03FE0 34754  2 4543.                  VCALL CPCAN                   CAN IT
 003E48                            34758  1 4544.                END   ,
                                   34762  1 4545.     *
                                   34763  1 4546.     *  REAL TIMER IS NOW RUNNING
                                   34764  1 4547.     *
 003E48 ABA8           03E48 03E34 34765  1 4548.                ELSE  BEGIN                   CURRENT TIMER IS REAL TIME
 003E48 47F0 ABBA            03E5E 34770  1          +
 DROP   @CPCNCK-72,R13             34776  2 4549.                  PSET  @RTCNCK
 USING  @RTCNCK-72,R13
 003E4C D71F D048 D048 00000 00000 34796  2          +
 003E52 D203 D048 71D0 00000 001D0 34797  2 4550.                  MVC   @RTCID,SCPCCLK          CLOCK ID
 003E58 58F0 AD40/0DEF       03FE4 34798  2 4551.                  VCALL RTCAN                   CAN IT
 003E5E                            34802  1 4552.                END   ,
 003E5E 94CF 7263      00263       34806  1 4553.                CLEAR SCBTCPTR+SCBTCPCT       NOTE CANCELLED
 003E62                            34816    4554.              END   ,
                                   34820    4555.     *
                                   34821    4556.     *  NOW SET "QUEUED" TIMER
                                   34822    4557.     *
 DROP   @RTCNCK-72,R13             34823    4558.              PSET  @RTSET
 USING  @RTSET-72,R13
 003E62 D717 D048 D048 00000 00000 34843             +
 003E68 D207 D048 ACD4 00000 03F78 34844    4559.              MVC   @RTSCLK,=FL8S12E5'10'   1.0 SECONDS
 003E6E 9680 D050      00008       34845    4560.              SET   @RTSFINT                VALUE IS AN INTERVAL
 003E72 D203 D054 71D4 0000C 001D4 34851    4561.              MVC   @RTSXIT,SCPCCXIT        SET EXIT ID
 003E78 58F0 AD44/0DEF       03FE8 34852    4562.              VCALL RTSET                   START THE CLOCK
 003E7E 5000 71D0            001D0 34856    4563.              ST    RVR,SCPCCLK             SAVE ID
 003E82 9608 7263      00263       34857    4564.              SET   SCBTCPQU
 003E86 9680 7260      00260       34863    4565.              SET   SCBFWAIT                MARK USER AS WAITING
 003E8A 47F0 AC9C            03F40 34869    4566.              B     CSER0
                                   34870    4567.
                                   34871    4568.                Do cache control operation.
                                   34872    4569.
 003E8E                            34873    4570.     CACTRLX  LABEL
 DROP   @RTSET-72,R13              34875    4571.              PSET  @CACTRL
 USING  @CACTRL-72,R13
 003E8E D70B D048 D048 00000 00000 34895             +
1M1SERV   (M1SE00) (09:42) (22MAR04) ORVYL'S Mode 1 Clpserv SVC                                                             Page  232
0Current Usings:  (PZERO,R0) (IDT,R2) (SCP,R7) (CLPSERV,R10) (CSEWORK-72,R12) (@CACTRL-72,R13)
0Loc    Object Code    Addr1 Addr2  Stmt Lv Lineno    Source Statement           (Hibal 5, Asmedit 3.3)  HLASM R4.0  2004/03/22 09.42
+___    ______ ____    _____ _____  ____ __ ______    ______ _________
0003E94                            34896    4572.              PMOV  @CACCIT,SCPGPRS+14*4   CIT ptr
 003E94 D203 D048 7048 00000 00048 34900             +
 003E9A                            34901    4573.              PMOV  @CACCNO,SCPGPRS+1*4    Control number
 003E9A D203 D04C 7014 00004 00014 34905             +
 003EA0                            34906    4574.              PMOV  @CACPARM,SCPGPRS+15*4  Parm
 003EA0 D203 D050 704C 00008 0004C 34910             +
 003EA6 58F0 AD48/0DEF       03FEC 34911    4575.              VCALL CACTRL              Do cache control operation
                                   34915    4576.
 003EAC 18F0                       34916    4577.              LR    R15,RVR             Copy return code reg
 003EAE 47F0 ACB2            03F56 34917    4578.              B     CSEXT               Scram
1M1SERV   (M1SE00) (09:42) (22MAR04) ORVYL'S Mode 1 Clpserv SVC                                                             Page  233
0Current Usings:  (PZERO,R0) (IDT,R2) (SCP,R7) (CLPSERV,R10) (CSEWORK-72,R12) (@CACTRL-72,R13)
0Loc    Object Code    Addr1 Addr2  Stmt Lv Lineno    Source Statement           (Hibal 5, Asmedit 3.3)  HLASM R4.0  2004/03/22 09.42
+___    ______ ____    _____ _____  ____ __ ______    ______ _________
0                                  34919    4580.     *
                                   34920    4581.     *  Return user region parameters
                                   34921    4582.     *
 003EB2                            34922    4583.     VREGION  LABEL ,
 003EB2 5820 0200            00200 34924    4584.              L     RA,MATPTR               MAT POINTER
 003EB6 5820 2010            00010 34925    4585.              WITH  (MAT,RA),'L  RA,MATM1CT'    CT POINTER
 DROP   IDT,R2
 USING  MAT,R2
 DROP   MAT,R2
 USING  IDT,R2
 DROP   IDT,R2                     34959    4586.              WITH  (M1CT,RA),BEGIN
 USING  M1CT,R2
 003EBA 5810 2024            00024 34976  1 4587.                L     RS,CTUMORG
 003EBE 5010 7014            00014 34977  1 4588.                ST    RS,SCPGPRS+1*4          Set user memory origin
 003EC2 5810 2028            00028 34978  1 4589.                L     RS,CTUMSIZ              Get user memory size
 003EC6 8910 0004            00004 34979  1 4590.                SLL   RS,4                    Convert to pages high order
 003ECA BF13 2036            00036 34980  1 4591.                ICM   RS,B'0011',CTUMPGS      Get total pages low order
 003ECE 5010 7010            00010 34981  1 4592.                ST    RS,SCPGPRS+0*4          Set set user memory lengths
 003ED2 4110 2036            00036 34982  1 4593.                LA    RS,CTUMPGS
 003ED6 5010 7048            00048 34983  1 4594.                ST    RS,SCPGPRS+14*4         Set region pointer
 DROP   M1CT,R2                    34984    4595.              END
 USING  IDT,R2
 003EDA 1BFF                       34999    4596.              CLEAR R15                     Set return
 003EDC 47F0 ACB2            03F56 35003    4597.              B     CSEXT               Scram
1M1SERV   (M1SE00) (09:42) (22MAR04) ORVYL'S Mode 1 Clpserv SVC                                                             Page  234
0Current Usings:  (PZERO,R0) (IDT,R2) (SCP,R7) (CLPSERV,R10) (CSEWORK-72,R12) (@CACTRL-72,R13)
0Loc    Object Code    Addr1 Addr2  Stmt Lv Lineno    Source Statement           (Hibal 5, Asmedit 3.3)  HLASM R4.0  2004/03/22 09.42
+___    ______ ____    _____ _____  ____ __ ______    ______ _________
0                                  35005    4599.     *
                                   35006    4600.     *  Add a volume to a file system
                                   35007    4601.     *
 003EE0                            35008    4602.     ADDVOL   LABEL ,
 DROP   @CACTRL-72,R13             35010    4603.              PSET  @FSADDV
 USING  @FSADDV-72,R13
 003EE0 D707 D048 D048 00000 00000 35030             +
 003EE6                            35031    4604.              PMOV  @FSADDVF,SCPGPRS+1*4    File system name
 003EE6 D203 D048 7014 00000 00014 35035             +
 003EEC                            35036    4605.              PMOV  @FSADDVD,SCPGPRS+15*4   Dataset name
 003EEC D203 D04C 704C 00004 0004C 35040             +
 003EF2 58F0 AD4C/0DEF       03FF0 35041    4606.              VCALL FSADDVOL
 003EF8 18F0                       35045    4607.              LR    R15,RVR                 Set return
 003EFA 47F0 ACB2            03F56 35046    4608.              B     CSEXT
1M1SERV   (M1SE00) (09:42) (22MAR04) ORVYL'S Mode 1 Clpserv SVC                                                             Page  235
0Current Usings:  (PZERO,R0) (IDT,R2) (SCP,R7) (CLPSERV,R10) (CSEWORK-72,R12) (@FSADDV-72,R13)
0Loc    Object Code    Addr1 Addr2  Stmt Lv Lineno    Source Statement           (Hibal 5, Asmedit 3.3)  HLASM R4.0  2004/03/22 09.42
+___    ______ ____    _____ _____  ____ __ ______    ______ _________
0                                  35048    4610.     *******************************************************************
                                   35049    4611.     *                                                                 *
                                   35050    4612.     *    CSCHKADD - Check user buffer area routine for Clpserv SVC    *
                                   35051    4613.     *                                                                 *
                                   35052    4614.     *******************************************************************
0003EFE                            35054    4616.     CSCHKADD LABEL
 003EFE 58F0 704C            0004C 35056    4617.              L     R15,SCPGPRS+15*4        LENGTH
 003F02 12FF/47D0 AC8C       03F30 35057    4618.              IF    (R15,NP),CSSPEC         CHECK VALID
 003F08 59F0 AD50            03FF4 35074    4619.              IF    (R15,GT,8192),CSSPEC
 003F0C 4720 AC8C            03F30 35088             +
 DROP   @FSADDV-72,R13             35094    4620.              PSET  @PAGE
 USING  @PAGE-72,R13
 003F10 D708 D048 D048 00000 00000 35114             +
 003F16 D203 D048 7014 00000 00014 35115    4621.              MVC   @PAGLOC,SCPGPRS+1*4     LOCATION
 003F1C 50F0 D04C            00004 35116    4622.              ST    R15,@PAGLEN              AND LENGTH TO PARM AREA
 003F20 58F0 AD54/0DEF       03FF8 35117    4623.              VCALL PAGTPROT                CHECK IT OUT
 003F26 5900 AD58            03FFC 35121    4624.              IF    (RVR,GE,2),CSER8        NO GOOD
 003F2A 47A0 ACAA            03F4E 35135             +
 003F2E 07F5                       35141    4625.              BR    RK                      RETURN
1M1SERV   (M1SE00) (09:42) (22MAR04) ORVYL'S Mode 1 Clpserv SVC                                                             Page  236
0Current Usings:  (PZERO,R0) (IDT,R2) (SCP,R7) (CLPSERV,R10) (CSEWORK-72,R12) (@PAGE-72,R13)
0Loc    Object Code    Addr1 Addr2  Stmt Lv Lineno    Source Statement           (Hibal 5, Asmedit 3.3)  HLASM R4.0  2004/03/22 09.42
+___    ______ ____    _____ _____  ____ __ ______    ______ _________
0                                  35143    4627.     *******************************************************************
                                   35144    4628.     *                                                                 *
                                   35145    4629.     *    CLPSERV SVC - return routines                                *
                                   35146    4630.     *                                                                 *
                                   35147    4631.     *******************************************************************
0003F30 9206 71A9      001A9       35149    4633.     CSSPEC   MVI   SCPPANSY,PANSPEC        SPECIFICATION ERROR
 003F34 47F0 AC94            03F38 35150    4634.              B     PANSET
                                   35151    4635.
 003F38 9610 7265      00265       35152    4636.     PANSET   SET   SCBXP                   SET PANIC
 003F3C 47F0 ACB6            03F5A 35159    4637.              B     CSEXTGO
                                   35160    4638.
 003F40 1BFF                       35161    4639.     CSER0    CLEAR R15
 003F42 47F0 ACB2            03F56 35166    4640.              B     CSEXT
                                   35167    4641.
 003F46 41F0 0004            00004 35168    4642.     CSER4    LA    R15,4
 003F4A 47F0 ACB2            03F56 35169    4643.              B     CSEXT
                                   35170    4644.
 003F4E 41F0 0008            00008 35171    4645.     CSER8    LA    R15,8
 003F52 47F0 ACB2            03F56 35172    4646.              B     CSEXT
                                   35173    4647.
 003F56 50F0 704C            0004C 35174    4648.     CSEXT    ST    R15,SCPGPRS+15*4        SET RETURN CODE
                                   35175    4649.
 003F5A                            35176    4650.     CSEXTGO  LABEL ,
 003F5A 981F C008            00008 35178    4651.              PEND
 USING  IDT,R4
 DROP   IDT,R2
 DROP   IDT,R4
 USING  M1CT,R8
 DROP   M1CT,R8
 DROP   SCP,R7
 DROP   CSEWORK-72,R12
 DROP   CLPSERV,R10
 003F5E 9680 C000/0B0E 00000       35249             +
 DROP   @PAGE-72,R13
1M1SERV   (M1SE00) (09:42) (22MAR04) ORVYL'S Mode 1 Clpserv SVC                                                             Page  237
0Current Usings:  (PZERO,R0)
0Loc    Object Code    Addr1 Addr2  Stmt Lv Lineno    Source Statement           (Hibal 5, Asmedit 3.3)  HLASM R4.0  2004/03/22 09.42
+___    ______ ____    _____ _____  ____ __ ______    ______ _________
0003F68                            35259    4653.              LTORG
 003F68 0000003938700000           35261                             =FL8S12E5'600'
 003F70 4040404040404040           35262                             =CL8' '
 003F78 00000000F4240000           35263                             =FL8S12E5'10'
 003F80 00000084                   35264                             =A(CLPSMAX)
 003F84 00000028                   35265                             =A(5*8)
 003F88 00000000                   35266                             =V(DSPSTAT)
 003F8C 00000000                   35267                             =V(LKOB)
 003F90 00000000                   35268                             =V(VMGET)
 003F94 00000000                   35269                             =V(ACSPINF)
 003F98 00000000                   35270                             =V(LKREL)
 003F9C 00000000                   35271                             =V(PAGPROT)
 003FA0 00000000                   35272                             =V(VMFREE)
 003FA4 00004B7A                   35273                             =A(PURSPB)
 003FA8 E2E2C1C2                   35274                             =C'SSAB'
 003FAC 00000028                   35275                             =A(40)
 003FB0 C1E2C240                   35276                             =CL4'ASB'
 003FB4 00000000                   35277                             =V(ACINFO)
 003FB8 00000000                   35278                             =V(ACAINFO)
 003FBC 00000001                   35279                             =A(1)
 003FC0 00000000                   35280                             =V(PAGUPROT)
 003FC4 00FFF000                   35281                             =X'00FFF000'
 003FC8 00000050                   35282                             =A(L'SMFDATA)
 003FCC 00007346                   35283                             =A(SENSETD2)
 003FD0 00000004                   35284                             =A(4)
 003FD4 00000008                   35285                             =A(8)
 003FD8 0000002E                   35286                             =A(L'@FMFINAM+2)
 003FDC 00000000                   35287                             =V(FMANFINF)
 003FE0 00000000                   35288                             =V(CPCAN)
 003FE4 00000000                   35289                             =V(RTCAN)
 003FE8 00000000                   35290                             =V(RTSET)
 003FEC 00000000                   35291                             =V(CACTRL)
 003FF0 00000000                   35292                             =V(FSADDVOL)
 003FF4 00002000                   35293                             =A(8192)
 003FF8 00000000                   35294                             =V(PAGTPROT)
 003FFC 00000002                   35295                             =A(2)
 004000 0004                       35296                             =Y(SPBNEXT-SPB)
 004002 3000                       35297                             =Y(48*256+0)
 004004 2000                       35298                             =Y(32*256+0)
 004006 3A00                       35299                             =Y(58*256+0)
 004008 1B00                       35300                             =Y(27*256+0)
 00400A 1A00                       35301                             =Y(26*256+0)
 00400C 0038                       35302                             =Y(L'IDT)
 00400E E2D7C2         04030 07A90 35303                             =C'SPB'
1M1SERV   (M1SE00) (09:42) (22MAR04) ORVYL'S Mode 1 Sense SVC                                                               Page  238
0Current Usings:  (PZERO,R0)
0Loc    Object Code    Addr1 Addr2  Stmt Lv Lineno    Source Statement           (Hibal 5, Asmedit 3.3)  HLASM R4.0  2004/03/22 09.42
+___    ______ ____    _____ _____  ____ __ ______    ______ _________
0                                  35308    4655.     *******************************************************************
                                   35309    4656.     *                                                                 *
                                   35310    4657.     *    SENWORK - SENSE SVC Work area                                *
                                   35311    4658.     *                                                                 *
                                   35312    4659.     *******************************************************************
0000000                00000 0000C 35314    4661.     SENWORK  RECORD BEGIN
 000000                            35322  1 4662.     SNWCLOK    DS    D                       STORE CLOCK AREA
 000008                            35323  1 4663.     SNWMEM     DS    A                       MVS MEMORY READ WORK AREA
 00000C                0000C 0000C 35324    4664.              END   ,
1M1SERV   (M1SE00) (09:42) (22MAR04) ORVYL'S Mode 1 Sense SVC                                                               Page  239
0Current Usings:  (PZERO,R0)
0Loc    Object Code    Addr1 Addr2  Stmt Lv Lineno    Source Statement           (Hibal 5, Asmedit 3.3)  HLASM R4.0  2004/03/22 09.42
+___    ______ ____    _____ _____  ____ __ ______    ______ _________
0                                  35334    4666.     *******************************************************************
                                   35335    4667.     *                                                                 *
                                   35336    4668.     *    SENSE  - Mode 1 SENSE SVC                                    *
                                   35337    4669.     *                                                                 *
                                   35338    4670.     *                                                                 *
                                   35339    4671.     *     Input - RY Points to SCP                                    *
                                   35340    4672.     *                                                                 *
                                   35341    4673.     *    Output -                                                     *
                                   35342    4674.     *                                                                 *
                                   35343    4675.     *                                                                 *
                                   35344    4676.     *                                                                 *
                                   35345    4677.     *                                                                 *
                                   35346    4678.     *                                                                 *
                                   35347    4679.     *                                                                 *
                                   35348    4680.     *******************************************************************
-
 004030                            35350    4682.     SENSE    PROC  ,SENWORK,SCOPE=LOCAL
 004030 E2C5D5E2C5404040           35357             +
 004038 0000/0010                  35358             +
 00403C 900F D004/18AF       00004 35360             +
 USING  SENSE,R10
 004042 50D0 C000/18CD       00000 35375             +
 004048 9680 C000      00000       35377             +
 USING  SENWORK-72,R12
 00404C 41D0 C058            00058 35391             +
 USING  SCP,R7                     35392    4683.              WITH  (SCP,RY)
                                   35405    4684.     *
                                   35406    4685.     *  ISSUE TRACE
                                   35407    4686.     *
 004050 98EF 7048            00048 35408    4687.              LM    R14,R15,SCPGPRS+14*4    GET REGS
 004054 9801 7010            00010 35409    4688.              LM    R0,R1,SCPGPRS+0*4
 004058 99E1 A9D8            04A14 35410    4689.              XTRC  R14,R1,M1SENSE
 004A14 00004A14                   35418  1          +
 004A18 00000388/0E01              35419  1          +
 004A1E D4F1E2C5D5E2C540           35421             +
 00405C 5820 7010            00010 35428    4690.              L     RA,SCPGPRS+0*4          SENSE CODE
 004060 5920 A954            04990 35429    4691.              IF    (RA,GT,=A(MAXPSEN)),'S  RA,=A(HSENBASE-MAXPSEN-1)'
 004064 47D0 A030            0406C 35440             +
 004068 5B20 A958            04994 35446             +
 00406C 1222/4740 A900       0493C 35451    4692.              IF    ((RA,M),OR,(RA,GT,=A(MAXSENSE))),SENSPEC
 004072 5920 A95C            04998 35474             +
 004076 4720 A900            0493C 35477             +
 00407A 8920 0002            00002 35483    4693.              SLL   RA,2
 00407E 47F2 A046            04082 35484    4694.              B     SENSEBR(RA)
1M1SERV   (M1SE00) (09:42) (22MAR04) ORVYL'S Mode 1 Sense SVC                                                               Page  240
0Current Usings:  (PZERO,R0) (SCP,R7) (SENSE,R10) (SENWORK-72,R12)
0Loc    Object Code    Addr1 Addr2  Stmt Lv Lineno    Source Statement           (Hibal 5, Asmedit 3.3)  HLASM R4.0  2004/03/22 09.42
+___    ______ ____    _____ _____  ____ __ ______    ______ _________
0                                  35486    4696.     *******************************************************************
                                   35487    4697.     *                                                                 *
                                   35488    4698.     *    SENSE SVC - Branch Table                                     *
                                   35489    4699.     *                                                                 *
                                   35490    4700.     *******************************************************************
0004082 47F0 A0DA            04116 35492    4702.     SENSEBR  B     SENPS             0     PAGE STATUS
 004086 47F0 A132            0416E 35493    4703.              B     SENRASS           1     RESERVED ADDRESS SPACE STATS
 00408A 47F0 A14C            04188 35494    4704.              B     SENRASL           2     RESERVED ADDRESS SPACE LIMITS
 00408E 47F0 A17C            041B8 35495    4705.              B     SENTD             3     TIME AND DATE
 004092 47F0 A1A6            041E2 35496    4706.              B     SENET             4     ELAPSED TIMES
 004096 47F0 A1E8            04224 35497    4707.              B     SENRT             5     REMAINING TIME
 00409A 47F0 A23C            04278 35498    4708.              B     SENMB             6     MASK BYTE
 00409E 47F0 A246            04282 35499    4709.              B     SENPR             7     PRIORITY
 0040A2 47F0 A250            0428C 35500    4710.              B     SENNAT            8     NAME, ACCOUNT, TERMINAL
 0040A6 47F0 A28A            042C6 35501    4711.              B     SENTX             9     TIMER EXIT
 0040AA 47F0 A292            042CE 35502    4712.              B     SENSX            10     SVC EXIT
 0040AE 47F0 A29A            042D6 35503    4713.              B     SENPX            11     PANIC EXIT
 0040B2 47F0 A2A2            042DE 35504    4714.              B     SENAX            12     ATTN EXIT
 0040B6 47F0 A2AA            042E6 35505    4715.              B     SENWX            13     WAIT EXIT
 0040BA 47F0 A2E8            04324 35506    4716.              B     SENTC            14     TEST COMPLTETION
 0040BE 47F0 A318            04354 35507    4717.              B     SENSA            15     SENSE SAVE AREA
 0040C2 47F0 A16A            041A6 35508    4718.              B     SENPXA           16     SENSE PAGING EXCEPTION ADDR
 0040C6 47F0 A330            0436C 35509    4719.              B     SENCWA           17     SENSE COMMON WORK AREA
 0040CA 47F0 A3BC            043F8 35510    4720.              B     SENCMD           18     SENSE COMMAND
 0040CE 47F0 A3C4            04400 35511    4721.              B     SENPARM          19     SENSE COMMAND PARM
 0040D2 47F0 A41A            04456 35512    4722.              B     SENCOR           20     SENSE REAL CORE
 0040D6 47F0 A468            044A4 35513    4723.              B     SENPER           21     SENSE PER CR 9-11
 0040DA 47F0 A49A            044D6 35514    4724.              B     SENMON           22     SENSE MONITOR CR 8
 0040DE 47F0 A4CC            04508 35515    4725.              B     SENFSI           23     SENSE FILE SYSTEM INFO
 0040E2 47F0 A172            041AE 35516    4726.              B     SENTRASH         24     SENSE TRASH BYTE
 0040E6 47F0 A50A            04546 35517    4727.              B     SENACCIN         25     SENSE ACCOUNTING INFO
 0040EA 47F0 A55A            04596 35518    4728.              B     SENTBLOK         26     SENSE TIME BLOCK
 0040EE 47F0 A588            045C4 35519    4729.              B     SENHASP          27     SENSE HASP DISPLAY DATA
 0040F2 47F0 A5DA            04616 35520    4730.              B     SENONAM          28     SENSE ORVYL NAME
 0040F6 47F0 A5F0            0462C 35521    4731.              B     SENPNAM          29     SENSE PROGRAM NAME
 0040FA 47F0 A612            0464E 35522    4732.              B     SENSYM           30     Locate symbol address
 0040FE 47F0 A654            04690 35523    4733.              B     SENUSYM          31     Unreference symbol address
                                   35524    4734.     MAXPSEN  EQU   (*-SENSEBR)/4-1         MAXIMUM PUBLIC SENSE
                                   35525    4735.     HSENBASE EQU   150                     START OF "HIDDEN" SENSES
 004102 47F0 A65C            04698 35526    4736.              B     SENCOST         150     SENSE SESSION COST
 004106 47F0 A660            0469C 35527    4737.              B     SENFSBS         151     SENSE FILE SYSTEM INFO
 00410A 47F0 A718            04754 35528    4738.              B     SENXASC         152     SENSE cross AS memory
 00410E 47F0 A7E4            04820 35529    4739.              B     SENGLOBM        153     SENSE global memory
 004112 47F0 A822            0485E 35530    4740.              B     SENOSMEM        154     SENSE OS memory
                                   35531    4741.     MAXSENSE EQU   (*-SENSEBR)/4-1
1M1SERV   (M1SE00) (09:42) (22MAR04) ORVYL'S Mode 1 Sense SVC                                                               Page  241
0Current Usings:  (PZERO,R0) (SCP,R7) (SENSE,R10) (SENWORK-72,R12)
0Loc    Object Code    Addr1 Addr2  Stmt Lv Lineno    Source Statement           (Hibal 5, Asmedit 3.3)  HLASM R4.0  2004/03/22 09.42
+___    ______ ____    _____ _____  ____ __ ______    ______ _________
0                                  35533    4743.     *******************************************************************
                                   35534    4744.     *                                                                 *
                                   35535    4745.     *    SENSE SVC memory services                                    *
                                   35536    4746.     *                                                                 *
                                   35537    4747.     *******************************************************************
0                                  35539    4749.     *
                                   35540    4750.     *  SENSE PAGE STATUS
                                   35541    4751.     *
 004116                            35542    4752.     SENPS    LABEL ,         0
 004116 5820 7014            00014 35544    4753.              L     RA,SCPGPRS+1*4          LOCATION
 00411A 5420 A960            0499C 35545    4754.              N     RA,=X'00FFF000'
 00411E 5830 A964            049A0 35546    4755.              L     RB,=A(4096)             LENGTH
 USING  @VMFREE-72,R13             35547    4756.              VMCHK (RB),A=(RA),LOC=LOCUSR,KEY=USER     CHECK VALIDITY
 004122 D709 D048 D048 00000 00000 35571             +
 004128 5030 D04C            00004 35581             +
 00412C 5020 D048            00000 35591             +
 004130 D201 D050 A9D0 00008 04A0C 35592             +
 004136 58F0 A968/0DEF       049A4 35595             +
 00413C 1200/4770 A91A       04956 35597    4757.              IF    (RVR,NZ),SENR8          INVALID PAGE ADDRESS
                                   35614    4758.     *
                                   35615    4759.     *  CALL MEMORY PROTECT TESTING SERVICE
                                   35616    4760.     *
 DROP   @VMFREE-72,R13             35617    4761.              PSET  @PAGE,CLEAR=NO
 USING  @PAGE-72,R13
 004142 5020 D048            00000 35631    4762.              ST    RA,@PAGLOC              SET ADDRESS
 004146 5030 D04C            00004 35632    4763.              ST    RB,@PAGLEN               AND LENGTH
 00414A 58F0 A96C/0DEF       049A8 35633    4764.              VCALL PAGTPTP                 TEST THE PAGE PROTECTION
 004150 1200/4780 A11E       0415A 35637    4765.              IF    (RVR,NZ),'LA  RVR,2'    PAGE IS PROTECTED
 004156 4100 0002            00002 35652             +
 00415A B120 2000            00000 35657    4766.              LRA   RA,@RA                  IS IT IN MEMORY
 00415E 4770 A12A            04166 35658    4767.              IF    Z,'O  RVR,=A(1)'        YES
 004162 5600 A970            049AC 35670             +
 004166 5000 7010            00010 35675    4768.              ST    RVR,SCPGPRS+0*4         RETURN PROTECT STATUS
 00416A 47F0 A90C            04948 35676    4769.              B     SENR0
1M1SERV   (M1SE00) (09:42) (22MAR04) ORVYL'S Mode 1 Sense SVC                                                               Page  242
0Current Usings:  (PZERO,R0) (SCP,R7) (SENSE,R10) (SENWORK-72,R12) (@PAGE-72,R13)
0Loc    Object Code    Addr1 Addr2  Stmt Lv Lineno    Source Statement           (Hibal 5, Asmedit 3.3)  HLASM R4.0  2004/03/22 09.42
+___    ______ ____    _____ _____  ____ __ ______    ______ _________
0                                  35678    4771.     *
                                   35679    4772.     *  SENSE RESERVED ADDRESS SPACE STATISTICS
                                   35680    4773.     *
 00416E                            35681    4774.     SENRASS  LABEL ,         1
 00416E 4810 71F8            001F8 35683    4775.              LH    RS,SCPRESRV             CURRENT RESERVED PAGE COUNT
 004172 48F0 71FA            001FA 35684    4776.              LH    R15,SCPUNRSV            UN-RESERVED PAGE COUNT
 004176 1A1F                       35685    4777.              AR    RS,R15                  TOTAL RESERVABLE PAGES
 004178 8910 000C            0000C 35686    4778.              SLL   RS,12                   LENGTH IN BYTES
 00417C 5010 7014            00014 35687    4779.              ST    RS,SCPGPRS+1*4          RETURN
 004180 89F0 000C            0000C 35688    4780.              SLL   R15,12                  UN-RESERVED ALSO TO BYTES
 004184 47F0 A922            0495E 35689    4781.              B     SENX
-
                                   35691    4783.     *
                                   35692    4784.     *  SENSE RESERVED ADDRESS SPACE LIMITS
                                   35693    4785.     *
 004188                            35694    4786.     SENRASL  LABEL ,         2
 004188 5810 71F4            001F4 35696    4787.              L     RS,SCPRRSEG             WORK AREA START ADDRESS
 00418C 5010 7014            00014 35697    4788.              ST    RS,SCPGPRS+1*4
 004190 5820 0200            00200 35698    4789.              L     RA,MATPTR               MAT POINTER
 004194 5820 2010            00010 35699    4790.              WITH  (MAT,RA),'L  RA,MATM1CT'    CT POINTER
 USING  MAT,R2
 DROP   MAT,R2
 USING  M1CT,R2                    35723    4791.              WITH  (M1CT,RA),BEGIN
 004198 58F0 2024            00024 35737  1 4792.                L     R15,CTUMORG             ADDRESS SPACE START
 00419C 5AF0 2028            00028 35738  1 4793.                A     R15,CTUMSIZ             ADDRESS SPACE END
 0041A0 1BF1                       35739  1 4794.                SR    R15,RS                  LENGTH OF WORK AREA
 DROP   M1CT,R2                    35740    4795.              END
 0041A2 47F0 A922            0495E 35748    4796.              B     SENX
-
                                   35750    4798.     *
                                   35751    4799.     *  SENSE PAGING EXCEPTION ADDR
                                   35752    4800.     *
 0041A6                            35753    4801.     SENPXA   LABEL ,        16
 0041A6 58F0 71A0            001A0 35755    4802.              L     R15,SCPPXA
 0041AA 47F0 A922            0495E 35756    4803.              B     SENX
-
                                   35758    4805.     *
                                   35759    4806.     * SENSE TRASH (MEMORY CLEARING) BYTE
                                   35760    4807.     *
 0041AE                            35761    4808.     SENTRASH LABEL ,        24
 0041AE 1FFF/43F0 7202       00202 35763    4809.              LC    R15,SCPTRASH
 0041B4 47F0 A922            0495E 35770    4810.              B     SENX
1M1SERV   (M1SE00) (09:42) (22MAR04) ORVYL'S Mode 1 Sense SVC                                                               Page  243
0Current Usings:  (PZERO,R0) (SCP,R7) (SENSE,R10) (SENWORK-72,R12) (@PAGE-72,R13)
0Loc    Object Code    Addr1 Addr2  Stmt Lv Lineno    Source Statement           (Hibal 5, Asmedit 3.3)  HLASM R4.0  2004/03/22 09.42
+___    ______ ____    _____ _____  ____ __ ______    ______ _________
0                                  35772    4812.     *******************************************************************
                                   35773    4813.     *                                                                 *
                                   35774    4814.     *    SENSE SVC time services                                      *
                                   35775    4815.     *                                                                 *
                                   35776    4816.     *******************************************************************
0                                  35778    4818.     *
                                   35779    4819.     *  SENSE TIME AND DATE
                                   35780    4820.     *
 0041B8                            35781    4821.     SENTD    LABEL ,         3
 DROP   @PAGE-72,R13               35783    4822.              PSET  @TOD
 USING  @TOD-72,R13
 0041B8 D713 D048 D048 00000 00000 35803             +
 0041BE 58F0 A974/0DEF       049B0 35804    4823.              ACALL SENSETD
 0041C4 6800 D050            00008 35811    4824.              LD    R0,@TODTIM              TIME OF DAY
 0041C8 6D00 A934            04970 35812    4825.              DD    R0,=FL8'106667'          TO 26 USEC UNITS
 0041CC 6E00 A93C            04978 35813    4826.              AW    R0,=XL8'4E00000000000000'
 0041D0 6000 C048            00000 35814    4827.              STD   R0,SNWCLOK              SET TIME
 0041D4 D203 7014 C04C 00014 00004 35815    4828.              MVC   SCPGPRS+1*4(4),SNWCLOK+4     RETURN TIME OF DAY
 0041DA 58F0 D058            00010 35816    4829.              L     R15,@TODDAT             AND DATE
 0041DE 47F0 A922            0495E 35817    4830.              B     SENX
-
                                   35819    4832.     *
                                   35820    4833.     *  SENSE ELAPSED AND CPU TIME
                                   35821    4834.     *
 0041E2                            35822    4835.     SENET    LABEL ,         4
                                   35824    4836.     *
                                   35825    4837.     *  GET ACCOUNTING INFORMATION
                                   35826    4838.     *
 DROP   @TOD-72,R13                35827    4839.              PSET  @ACINFO
 USING  @ACINFO-72,R13
 0041E2 D727 D048 D048 00000 00000 35847             +
 0041E8 D203 D048 0208 00000 00208 35848    4840.              MVC   @ACIASB,PZCURASB        CURRENT ASB
 0041EE 58F0 A978/0DEF       049B4 35849    4841.              VCALL ACINFO
 0041F4 6800 D058            00010 35853    4842.              LD    R0,@ACICON              CONNECT TIME
 0041F8 6D00 A934            04970 35854    4843.              DD    R0,=FL8'106667'          TO 26 USEC UNITS
 0041FC 6E00 A93C            04978 35855    4844.              AW    R0,=XL8'4E00000000000000'
 004200 6000 C048            00000 35856    4845.              STD   R0,SNWCLOK              SET TIME
 004204 D203 7014 C04C 00014 00004 35857    4846.              MVC   SCPGPRS+1*4(4),SNWCLOK+4   RETURN ELAPSED TIME
                                   35858    4847.     *
                                   35859    4848.     *  NOW GET CPU TIME
                                   35860    4849.     *
 00420A 58F0 A97C/0DEF       049B8 35861    4850.              VCALL ACPUCHG                 GET CPU TIME
 004210 6D00 A934            04970 35865    4851.              DD    R0,=FL8'106667'          TO 26 USEC UNITS
 004214 6E00 A93C            04978 35866    4852.              AW    R0,=XL8'4E00000000000000'
 004218 6000 C048            00000 35867    4853.              STD   R0,SNWCLOK
 00421C 58F0 C04C            00004 35868    4854.              L     R15,SNWCLOK+4           CPU TIME
 004220 47F0 A922            0495E 35869    4855.              B     SENX
1M1SERV   (M1SE00) (09:42) (22MAR04) ORVYL'S Mode 1 Sense SVC                                                               Page  244
0Current Usings:  (PZERO,R0) (SCP,R7) (SENSE,R10) (SENWORK-72,R12) (@ACINFO-72,R13)
0Loc    Object Code    Addr1 Addr2  Stmt Lv Lineno    Source Statement           (Hibal 5, Asmedit 3.3)  HLASM R4.0  2004/03/22 09.42
+___    ______ ____    _____ _____  ____ __ ______    ______ _________
0                                  35871    4857.     *
                                   35872    4858.     *  SENSE REMAINING TIME
                                   35873    4859.     *
 004224                            35874    4860.     SENRT    LABEL ,         5
 004224 9180 7263      00263       35876    4861.              IF    ~SCBTUTR,SENR0          NOTHING TO REPORT
 004228 47E0 A90C            04948 35888             +
                                   35894    4862.     *
                                   35895    4863.     *  CPU TIMER IS SET
                                   35896    4864.     *
 00422C 9140 7263      00263       35897    4865.              IF    SCBTUCT,BEGIN           CURRENT TIMER IS CPU TIME
 004230 47E0 A20E            0424A 35907             +
 DROP   @ACINFO-72,R13             35912  1 4866.                PSET  @CPCNCK
 USING  @CPCNCK-72,R13
 004234 D71F D048 D048 00000 00000 35932  1          +
 00423A D203 D048 71C8 00000 001C8 35933  1 4867.                MVC   @CPCID,SCPUCLK          CLOCK ID
 004240 58F0 A980/0DEF       049BC 35934  1 4868.                VCALL CPCHK                   GET IT
 004246 6800 D050            00008 35938  1 4869.                LD    R0,@CPCCLK              CURRENT INTERVAL
 00424A                            35939    4870.              END   ,
                                   35943    4871.     *
                                   35944    4872.     *  REAL TIMER IS SET
                                   35945    4873.     *
 00424A A212           0424A 04232 35946    4874.              ELSE  BEGIN                   CURRENT TIMER IS REAL TIME
 00424A 47F0 A228            04264 35951             +
 DROP   @CPCNCK-72,R13             35957  1 4875.                PSET  @RTCNCK
 USING  @RTCNCK-72,R13
 00424E D71F D048 D048 00000 00000 35977  1          +
 004254 D203 D048 71C8 00000 001C8 35978  1 4876.                MVC   @RTCID,SCPUCLK          CLOCK ID
 00425A 58F0 A984/0DEF       049C0 35979  1 4877.                VCALL RTCHK                   GET IT
 004260 6800 D050            00008 35983  1 4878.                LD    R0,@RTCCLK              CURRENT INTERVAL
 004264                            35984    4879.              END   ,
 004264 6D00 A934            04970 35988    4880.              DD    R0,=FL8'106667'          TO 26 USEC UNITS
 004268 6E00 A93C            04978 35989    4881.              AW    R0,=XL8'4E00000000000000'
 00426C 6000 C048            00000 35990    4882.              STD   R0,SNWCLOK
 004270 58F0 C04C            00004 35991    4883.              L     R15,SNWCLOK+4           CPU TIME
 004274 47F0 A922            0495E 35992    4884.              B     SENX
1M1SERV   (M1SE00) (09:42) (22MAR04) ORVYL'S Mode 1 Sense SVC                                                               Page  245
0Current Usings:  (PZERO,R0) (SCP,R7) (SENSE,R10) (SENWORK-72,R12) (@RTCNCK-72,R13)
0Loc    Object Code    Addr1 Addr2  Stmt Lv Lineno    Source Statement           (Hibal 5, Asmedit 3.3)  HLASM R4.0  2004/03/22 09.42
+___    ______ ____    _____ _____  ____ __ ______    ______ _________
0                                  35994    4886.     *  SENSE MASK BYTE
                                   35995    4887.     *
 004278                            35996    4888.     SENMB    LABEL ,         6
 004278 1FFF/43F0 7264       00264 35998    4889.              LC    R15,SCBMB
 00427E 47F0 A922            0495E 36005    4890.              B     SENX
-
                                   36007    4892.     *
                                   36008    4893.     *  SENSE PRIORITY
                                   36009    4894.     *
 004282                            36010    4895.     SENPR    LABEL ,         7
 004282 1FFF/43F0 728A       0028A 36012    4896.              LC    R15,SCBUPRI
 004288 47F0 A922            0495E 36019    4897.              B     SENX
-
                                   36021    4899.     *
                                   36022    4900.     *  SENSE NAME, ACCOUNT, TERMINAL
                                   36023    4901.     *
 00428C                            36024    4902.     SENNAT   LABEL ,         8
 00428C 41F0 001B            0001B 36026    4903.              LA    R15,27                  LENGTH TO CHECK
 004290 4D50 A85A            04896 36027    4904.              BAS   RK,SENCKANL              CHECK IT OUT
 DROP   @RTCNCK-72,R13             36028    4905.              PSET  @TERUINF
 USING  @TERUINF-72,R13
 004294 D707 D048 D048 00000 00000 36048             +
 00429A 58F0 A988/0DEF       049C4 36049    4906.              VCALL TERUINF
 0042A0 D202 1000 71AD 00000 001AD 36053    4907.              MVC   @RS(L'SCPUSER),SCPUSER   SET USER ID
 0042A6 925B 1003      00003       36054    4908.              MVI   @RS+L'SCPUSER,C'$'
 0042AA D201 1004 71AA 00004 001AA 36055    4909.              MVC   @RS+L'SCPUSER+1(L'SCPGROUP),SCPGROUP
 0042B0 D202 1008 D048 00008 00000 36056    4910.              MVC   @RS+8(3),@TERUTYP       Terminal type
 0042B6 D205 100B 1000 0000B 00000 36057    4911.              MVC   @RS+11(L'SCPACCT),@RS   SET "NAME"
 0042BC D209 1011 A944 00011 04980 36058    4912.              MVC   @RS+17(10),=CL16' '
 0042C2 47F0 A926            04962 36059    4913.              B     SENXGO
1M1SERV   (M1SE00) (09:42) (22MAR04) ORVYL'S Mode 1 Sense SVC                                                               Page  246
0Current Usings:  (PZERO,R0) (SCP,R7) (SENSE,R10) (SENWORK-72,R12) (@TERUINF-72,R13)
0Loc    Object Code    Addr1 Addr2  Stmt Lv Lineno    Source Statement           (Hibal 5, Asmedit 3.3)  HLASM R4.0  2004/03/22 09.42
+___    ______ ____    _____ _____  ____ __ ______    ______ _________
0                                  36061    4915.     *******************************************************************
                                   36062    4916.     *                                                                 *
                                   36063    4917.     *    SENSE SVC exit services                                      *
                                   36064    4918.     *                                                                 *
                                   36065    4919.     *******************************************************************
0                                  36067    4921.     *
                                   36068    4922.     *  SENSE TIMER EXIT
                                   36069    4923.     *
 0042C6                            36070    4924.     SENTX    LABEL ,         9
 0042C6 4130 71D8            001D8 36072    4925.              LA    RB,SCPTXEP
 0042CA 47F0 A2D8            04314 36073    4926.              B     SENEXIT
-
                                   36075    4928.     *
                                   36076    4929.     *  SENSE SVC EXIT
                                   36077    4930.     *
 0042CE                            36078    4931.     SENSX    LABEL ,        10
 0042CE 4130 71E8            001E8 36080    4932.              LA    RB,SCPSXEP
 0042D2 47F0 A2D8            04314 36081    4933.              B     SENEXIT
-
                                   36083    4935.     *
                                   36084    4936.     *  SENSE PANIC EXIT
                                   36085    4937.     *
 0042D6                            36086    4938.     SENPX    LABEL ,        11
 0042D6 4130 71E0            001E0 36088    4939.              LA    RB,SCPPXEP
 0042DA 47F0 A2D8            04314 36089    4940.              B     SENEXIT                 TO COMMON EXIT PROCESS
-
                                   36091    4942.     *
                                   36092    4943.     *  SENSE ATTN EXIT
                                   36093    4944.     *
 0042DE                            36094    4945.     SENAX    LABEL ,        12
 0042DE 4130 0014            00014 36096    4946.              LA    RB,IDTAXEP-IDT          INDEX TO EXIT INFO
 0042E2 47F0 A2B2            042EE 36097    4947.              B     IOSXCOM
-
                                   36099    4949.     *
                                   36100    4950.     *  SENSE WAIT EXIT
                                   36101    4951.     *
 0042E6                            36102    4952.     SENWX    LABEL ,        13
 0042E6 4130 001C            0001C 36104    4953.              LA    RB,IDTWXEP-IDT          INDEX TO EXIT INFO
 0042EA 47F0 A2B2            042EE 36105    4954.              B     IOSXCOM
1M1SERV   (M1SE00) (09:42) (22MAR04) ORVYL'S Mode 1 Sense SVC                                                               Page  247
0Current Usings:  (PZERO,R0) (SCP,R7) (SENSE,R10) (SENWORK-72,R12) (@TERUINF-72,R13)
0Loc    Object Code    Addr1 Addr2  Stmt Lv Lineno    Source Statement           (Hibal 5, Asmedit 3.3)  HLASM R4.0  2004/03/22 09.42
+___    ______ ____    _____ _____  ____ __ ______    ______ _________
0                                  36107    4956.     *
                                   36108    4957.     *  COMMON PROCESSING FOR I/O EXITS
                                   36109    4958.     *
 0042EE                            36110    4959.     IOSXCOM  LABEL
 0042EE 5810 7014            00014 36112    4960.              L     RS,SCPGPRS+1*4          USER SUPPLIED DEVICE NUMBER
 0042F2 1211/47D0 A900       0493C 36113    4961.              IF    (RS,NP),SENSPEC         MUST BE POSITIVE
 0042F8 4910 7210            00210 36130    4962.              IF    (RS,GT,SCPNIDT),SENSPEC    NOT IN RANGE
 0042FC 4720 A900            0493C 36144             +
 004300 0610                       36150    4963.              DECR  RS
 004302 4C10 A9D2            04A0E 36152    4964.              MH    RS,=Y(L'IDT)
 004306 5E10 720C            0020C 36153    4965.              AL    RS,SCPIDT               IDT VIRTUAL ADDDRESS
 USING  IDT,R1                     36154    4966.              WITH  (IDT,RS),BEGIN
 00430A 91C0 1004      00004       36168  1 4967.                IF    (IDTFA+IDTFACL,Z),SENSPEC      NOT ACTIVE
 00430E 4780 A900            0493C 36185  1          +
 DROP   IDT,R1                     36191    4968.              END
 004312 1E31                       36199    4969.              ALR   RB,RS                   POINTER TO DEVICE EXIT INFO
-
                                   36201    4971.     *
                                   36202    4972.     *  COMMON PROCESSING FOR ALL EXITS
                                   36203    4973.     *
 004314                            36204    4974.     SENEXIT  LABEL ,
 004314 D203 704C 3000 0004C 00000 36206    4975.              MVC   SCPGPRS+R15*4(4),@RB     EXIT ADDRESS
 00431A D203 7048 3004 00048 00004 36207    4976.              MVC   SCPGPRS+R14*4(4),@RB+4   EXIT PARAMETER
 004320 47F0 A926            04962 36208    4977.              B     SENXGO
1M1SERV   (M1SE00) (09:42) (22MAR04) ORVYL'S Mode 1 Sense SVC                                                               Page  248
0Current Usings:  (PZERO,R0) (SCP,R7) (SENSE,R10) (SENWORK-72,R12) (@TERUINF-72,R13)
0Loc    Object Code    Addr1 Addr2  Stmt Lv Lineno    Source Statement           (Hibal 5, Asmedit 3.3)  HLASM R4.0  2004/03/22 09.42
+___    ______ ____    _____ _____  ____ __ ______    ______ _________
0                                  36210    4979.     *
                                   36211    4980.     *  TEST FOR COMPLETION
                                   36212    4981.     *
 004324                            36213    4982.     SENTC    LABEL ,        14
 004324 5810 7014            00014 36215    4983.              L     RS,SCPGPRS+1*4          USER SUPPLIED DEVICE NUMBER
 004328 1211/47D0 A900       0493C 36216    4984.              IF    (RS,NP),SENSPEC         MUST BE POSITIVE
 00432E 4910 7210            00210 36233    4985.              IF    (RS,GT,SCPNIDT),SENSPEC    NOT IN RANGE
 004332 4720 A900            0493C 36247             +
 004336 0610                       36253    4986.              DECR  RS
 004338 4C10 A9D2            04A0E 36255    4987.              MH    RS,=Y(L'IDT)
 00433C 5E10 720C            0020C 36256    4988.              AL    RS,SCPIDT               IDT VIRTUAL ADDDRESS
 USING  IDT,R1                     36257    4989.              WITH  (IDT,RS),BEGIN
 004340 91C0 1004      00004       36271  1 4990.                IF    (IDTFA+IDTFACL,Z),SENSPEC      NOT ACTIVE
 004344 4780 A900            0493C 36288  1          +
 004348 9140 1005      00005       36294  1 4991.                IF    IDTFPOST,SENR0          COMPLETE
 00434C 4710 A90C            04948 36306  1          +
 DROP   IDT,R1                     36312    4992.              END
 004350 47F0 A912            0494E 36320    4993.              B     SENR4                   NOT DONE YET
-
                                   36322    4995.     *
                                   36323    4996.     *  SENSE SAVE AREA
                                   36324    4997.     *
 004354                            36325    4998.     SENSA    LABEL ,        15
 004354 41F0 0048            00048 36327    4999.              LA    R15,72                  LENGTH TO CHECK
 004358 4D50 A85A            04896 36328    5000.              BAS   RK,SENCKANL              CHECK IT OUT
 00435C D207 1000 7070 00000 00070 36329    5001.              MVC   @RS(8),SCPXPSW          MOVE PSW TO USERS AREA
 004362 D23F 1008 7078 00008 00078 36330    5002.              MVC   @RS+8(16*4),SCPXPSW+8    AND REGS TOO
 004368 47F0 A926            04962 36331    5003.              B     SENXGO
1M1SERV   (M1SE00) (09:42) (22MAR04) ORVYL'S Mode 1 Sense SVC                                                               Page  249
0Current Usings:  (PZERO,R0) (SCP,R7) (SENSE,R10) (SENWORK-72,R12) (@TERUINF-72,R13)
0Loc    Object Code    Addr1 Addr2  Stmt Lv Lineno    Source Statement           (Hibal 5, Asmedit 3.3)  HLASM R4.0  2004/03/22 09.42
+___    ______ ____    _____ _____  ____ __ ______    ______ _________
0                                  36333    5005.     *
                                   36334    5006.     *  SENSE COMMON WORK AREA
                                   36335    5007.     *
 00436C                            36336    5008.     SENCWA   LABEL ,        17
 00436C 5830 7014            00014 36338    5009.              L     RB,SCPGPRS+1*4          DISPLACEMENT
 004370 1233/4740 A900       0493C 36339    5010.              IF    (RB,M),SENSPEC
 004376 4120 0010            00010 36356    5011.              LA    RA,SCPCWASZ             NUMBER OF BYTES AVAILABLE
 00437A 1932/47B0 A900       0493C 36357    5012.              IF    (RB,NL,RA),SENSPEC
 004380 1B23                       36375    5013.              SR    RA,RB
 004382 5920 704C            0004C 36376    5014.              IF    (RA,LT,SCPGPRS+15*4),SENSPEC   GOES PAST THE END
 004386 4740 A900            0493C 36390             +
 00438A 5820 704C            0004C 36396    5015.              L     RA,SCPGPRS+15*4         NUMBER OF BYTES TO MOVE
 00438E 1222/47D0 A900       0493C 36397    5016.              IF    (RA,NP),SENSPEC
                                   36414    5017.     *
                                   36415    5018.     *  CHECK MEMORY AREA
                                   36416    5019.     *
 DROP   @TERUINF-72,R13            36417    5020.              PSET  @PAGE
 USING  @PAGE-72,R13
 004394 D708 D048 D048 00000 00000 36437             +
 00439A 5810 7048            00048 36438    5021.              L     RS,SCPGPRS+14*4         LOCATION
 00439E 9180 700C      0000C       36439    5022.              TM    SCPPSW+4,X'80'      31 bit mode?
 0043A2 4770 A36E            043AA 36440    5023.              IF    Z,'N RS,=X"00FFFFFF"'
 0043A6 5410 A98C            049C8 36452             +
 0043AA 5010 D048            00000 36457    5024.              ST    RS,@PAGLOC              SET LOCATION
 0043AE 5020 D04C            00004 36458    5025.              ST    RA,@PAGLEN               AND LENGTH
 0043B2 D200 D050 7009 00008 00009 36459    5026.              MVC   @PAGKEY,SCPPSW+1        PSW KEY
 0043B8 94F0 D050      00008       36460    5027.              NI    @PAGKEY,X'F0'            KEY ONLY
 0043BC 58F0 A990/0DEF       049CC 36461    5028.              VCALL PAGTPROT                CHECK IT OUT
 0043C2 1200/4770 A900       0493C 36465    5029.              IF    (RVR,NZ),SENSPEC        NO GOOD
                                   36482    5030.     *
                                   36483    5031.     *  NOW MOVE THE DATA
                                   36484    5032.     *
 0043C8 5810 7268            00268 36485    5033.              L     RS,SCBSPB               SPB POINTER
 0043CC 1211/4780 A39A       043D6 36486    5034.              IF    (RS,NZ),BEGIN
 0043D2 4133 1062            00062 36500  1 5035.                WITH  (SPB,RS),'LA  RB,SPBCWA(RB)'
 USING  SPB,R1
 DROP   SPB,R1
 0043D6                            36524    5036.              END   ,
 0043D6 A39E           043D6 043D0 36528    5037.              ELSE  'LA  RB,SCPCWA(RB)'
 0043D6 47F0 A3A2            043DE 36533             +
 0043DA 4133 7214            00214 36540             +
 0043DE 58E0 7048            00048 36545    5038.              L     R14,SCPGPRS+14*4        USER DATA POINTER
 0043E2 9180 700C      0000C       36546    5039.              TM    SCPPSW+4,X'80'      31 bit mode?
 0043E6 4770 A3B2            043EE 36547    5040.              IF    Z,'N R14,=X"00FFFFFF"'
 0043EA 54E0 A98C            049C8 36559             +
 0043EE 0620/4420 A9EA       04A26 36564    5041.              DEX   RA,'MVC  @R14(0),@RB'
 004A26 D200 E000 3000 00000 00000 36575             +
 0043F4 47F0 A926            04962 36583    5042.              B     SENXGO
1M1SERV   (M1SE00) (09:42) (22MAR04) ORVYL'S Mode 1 Sense SVC                                                               Page  250
0Current Usings:  (PZERO,R0) (SCP,R7) (SENSE,R10) (SENWORK-72,R12) (@PAGE-72,R13)
0Loc    Object Code    Addr1 Addr2  Stmt Lv Lineno    Source Statement           (Hibal 5, Asmedit 3.3)  HLASM R4.0  2004/03/22 09.42
+___    ______ ____    _____ _____  ____ __ ______    ______ _________
0                                  36585    5044.     *
                                   36586    5045.     *  SENSE COMMAND
                                   36587    5046.     *
 0043F8                            36588    5047.     SENCMD   LABEL ,        18
 0043F8 5820 7224            00224 36590    5048.              L     RA,SCPCMDP              ADDRESS
 0043FC 47F0 A3C8            04404 36591    5049.              B     SEN1819
                                   36592    5050.     *
                                   36593    5051.     *  SENSE COMMAND PARM
                                   36594    5052.     *
 004400                            36595    5053.     SENPARM  LABEL ,        19
 004400 5820 7228            00228 36597    5054.              L     RA,SCPPARMP             ADDRESS
                                   36598    5055.     *
                                   36599    5056.     *  SENSE COMMAND OR PARM - COMMON PROCESSING
                                   36600    5057.     *
 004404                            36601    5058.     SEN1819  LABEL ,
 004404 58F0 704C            0004C 36603    5059.              L     R15,SCPGPRS+15*4        USER AREA LENGTH
 004408 59F0 A994            049D0 36604    5060.              CEIL  R15,=A(133)             --> fix stupid compatibility
 00440C 47D0 A3D8            04414 36607             +
 004410 58F0 A994            049D0 36608             +
 004414 50F0 704C            0004C 36609    5061.              ST    R15,SCPGPRS+15*4        --> aargh!
 004418 4D50 A848            04884 36610    5062.              BAS   RK,SENCKADD             CHECK DATA ADDRESSABILITY
 00441C 58F0 704C            0004C 36611    5063.              L     R15,SCPGPRS+15*4        USER AREA LENGTH
 004420 48E0 2000            00000 36612    5064.              LH    R14,@RA                 ACTUAL COMMAND LENGTH
 004424 10EE/4780 A40C       04448 36613    5065.              IF    ('LPR  R14,R14',NZ),BEGIN
 00442A 19FE/47D0 A3F6       04432 36626  1 5066.                CEIL  R15,R14                 USE LESSER OF LENGTHS
 004430 18FE                       36631  1          +
 004432 18EF                       36632  1 5067.                LR    R14,R15                 TO RETURN LENGTH
 004434 06F0/44F0 A9F0       04A2C 36633  1 5068.                DEX   R15,'MVC  @RS(0),@RA+2'   MOVE IN COMMAND
 004A2C D200 1000 2002 00000 00002 36644  1          +
 00443A 1BFF                       36652  1 5069.                CLEAR R15                     SET TYPE CODE
 00443C 9180 2000      00000       36656  1 5070.                IF    @RA.X'80','LA R15,4'
 004440 47E0 A40C            04448 36667  1          +
 004444 41F0 0004            00004 36673  1          +
 004448                            36678    5071.              END
 004448 A410           04448 04428 36682    5072.              ELSE  'CLEAR R15'
 004448 47F0 A412/1BFF       0444E 36687             +
 00444E 50E0 7014            00014 36702    5073.              ST    R14,SCPGPRS+1*4         RETURN LENGTH
 004452 47F0 A922            0495E 36703    5074.              B     SENX
1M1SERV   (M1SE00) (09:42) (22MAR04) ORVYL'S Mode 1 Sense SVC                                                               Page  251
0Current Usings:  (PZERO,R0) (SCP,R7) (SENSE,R10) (SENWORK-72,R12) (@PAGE-72,R13)
0Loc    Object Code    Addr1 Addr2  Stmt Lv Lineno    Source Statement           (Hibal 5, Asmedit 3.3)  HLASM R4.0  2004/03/22 09.42
+___    ______ ____    _____ _____  ____ __ ______    ______ _________
0                                  36705    5076.     *
                                   36706    5077.     *   SENSE MVS MEMORY
                                   36707    5078.     *
 004456                            36708    5079.     SENCOR   LABEL ,        20
 004456 95C7 71AA      001AA       36710    5080.              IF    ('CLI  SCPGROUP,C"G"',NE),BEGIN       INTERNAL OK
 00445A 4780 A42A            04466 36718             +
 00445E 9130 71B7      001B7       36723  1 5081.                TM    SCPPRIV,KWRIFSPR+KWRIFOPR   SYSTEM OR OPER PRIVS?
 004462 4780 A900            0493C 36724  1 5082.                BZ    SENSPEC                 NO, SORRY
 004466                            36725    5083.              END   ,
 004466 5810 7014/1211       00014 36729    5084.              IF    ('LT  RS,SCPGPRS+1*4',NZ),BEGIN
 00446C 4780 A458            04494 36740             +
 004470 4D50 A848            04884 36745  1 5085.                BAS   RK,SENCKADD             CHECK DATA ADDRESSABILITY
 004474 1821                       36746  1 5086.                LR    RA,RS                   STARTING ADDRESS
 004476 5830 704C            0004C 36747  1 5087.                L     RB,SCPGPRS+15*4         LENGTH
 00447A 58E0 7048            00048 36748  1 5088.                L     R14,SCPGPRS+14*4        MVS LOCATION
 00447E 9180 7262      00262       36749  1 5089.                IF    SCBFCLP,'CLEAR R15'     CLP'S PROTECT KEY
 004482 47E0 A44C/1BFF       04488 36759  1          +
 004488 A450           04488 04484 36773  1 5090.                ELSE  'LA  R15,14'            EVERYBODY ELSE'S
 004488 47F0 A454            04490 36778  1          +
 00448C 41F0 000E            0000E 36785  1          +
 004490 832E000A                   36790  1 5091.                SYSCTL RA,R14,TYPE=MVSMRD     GET THE MEMORY
 004494                            36793    5092.              END   ,
 004494 5810 0200            00200 36797    5093.              L     RS,MATPTR               MAT POINTER
 004498 5810 1010            00010 36798    5094.              WITH  (MAT,RS),'L  RS,MATM1CT'   CT POINTER
 USING  MAT,R1
 DROP   MAT,R1
 00449C 5010 7010            00010 36822    5095.              ST    RS,SCPGPRS+0*4          RETURN AS A BONUS
 0044A0 47F0 A90C            04948 36823    5096.              B     SENR0                   RETURN OK
1M1SERV   (M1SE00) (09:42) (22MAR04) ORVYL'S Mode 1 Sense SVC                                                               Page  252
0Current Usings:  (PZERO,R0) (SCP,R7) (SENSE,R10) (SENWORK-72,R12) (@PAGE-72,R13)
0Loc    Object Code    Addr1 Addr2  Stmt Lv Lineno    Source Statement           (Hibal 5, Asmedit 3.3)  HLASM R4.0  2004/03/22 09.42
+___    ______ ____    _____ _____  ____ __ ______    ______ _________
0                                  36825    5098.     *
                                   36826    5099.     *  SENSE PROGRAM EVENT INFO
                                   36827    5100.     *
 0044A4                            36828    5101.     SENPER   LABEL ,        21
 0044A4 41F0 000C            0000C 36830    5102.              LA    R15,12                  LENGTH TO CHECK
 0044A8 4D50 A85A            04896 36831    5103.              BAS   RK,SENCKANL              CHECK IT OUT
 0044AC D20B 1000 7194 00000 00194 36832    5104.              MVC   @RS(3*4),SCPCTL9        MOVE CONTROL REGISTERS
 0044B2 9140 7200      00200       36833    5105.              IF    SCPFPER,BEGIN           CLP SET PER
 0044B6 47E0 A48A            044C6 36843             +
 0044BA 9180 7262      00262       36848  1 5106.                IF    SCBFCLP,SENR0           SET BY CLP - CLP IN CONTROL
 0044BE 4710 A90C            04948 36860  1          +
 0044C2 47F0 A912            0494E 36866  1 5107.                B     SENR4                   SET BY CLP - USER IN CONTROL
 0044C6                            36867    5108.              END
 0044C6 A48E           044C6 044B8 36871    5109.              ELSE  BEGIN
 0044C6 47F0 A49A            044D6 36876             +
 0044CA 9180 7262      00262       36882  1 5110.                IF    ~SCBFCLP,SENR0          SET BY USER - USER IN CONTROL
 0044CE 47E0 A90C            04948 36894  1          +
 0044D2 47F0 A912            0494E 36900  1 5111.                B     SENR4                   SET BY USER - CLP IN CONTROL
 0044D6                            36901    5112.              END
-
                                   36906    5114.     *
                                   36907    5115.     *  SENSE MONITOR CALL INFO
                                   36908    5116.     *
 0044D6                            36909    5117.     SENMON   LABEL ,        22
 0044D6 41F0 0004            00004 36911    5118.              LA    R15,4                   LENGTH TO CHECK
 0044DA 4D50 A85A            04896 36912    5119.              BAS   RK,SENCKANL              CHECK IT OUT
 0044DE D203 1000 7190 00000 00190 36913    5120.              MVC   @RS(4),SCPCTL8          PICK UP MONITOR MASKS
 0044E4 9120 7200      00200       36914    5121.              IF    SCPFMON,BEGIN           CLP SET MONITOR
 0044E8 47E0 A4BC            044F8 36924             +
 0044EC 9180 7262      00262       36929  1 5122.                IF    SCBFCLP,SENR0           SET BY CLP - CLP IN CONTROL
 0044F0 4710 A90C            04948 36941  1          +
 0044F4 47F0 A912            0494E 36947  1 5123.                B     SENR4                   SET BY CLP - USER IN CONTROL
 0044F8                            36948    5124.              END
 0044F8 A4C0           044F8 044EA 36952    5125.              ELSE  BEGIN
 0044F8 47F0 A4CC            04508 36957             +
 0044FC 9180 7262      00262       36963  1 5126.                IF    ~SCBFCLP,SENR0          SET BY USER - USER IN CONTROL
 004500 47E0 A90C            04948 36975  1          +
 004504 47F0 A912            0494E 36981  1 5127.                B     SENR4                   SET BY USER - CLP IN CONTROL
 004508                            36982    5128.              END
1M1SERV   (M1SE00) (09:42) (22MAR04) ORVYL'S Mode 1 Sense SVC                                                               Page  253
0Current Usings:  (PZERO,R0) (SCP,R7) (SENSE,R10) (SENWORK-72,R12) (@PAGE-72,R13)
0Loc    Object Code    Addr1 Addr2  Stmt Lv Lineno    Source Statement           (Hibal 5, Asmedit 3.3)  HLASM R4.0  2004/03/22 09.42
+___    ______ ____    _____ _____  ____ __ ______    ______ _________
0                                  36987    5130.     *
                                   36988    5131.     *  SENSE FILE SYSTEM INFORMATION
                                   36989    5132.     *
 004508                            36990    5133.     SENFSI   LABEL ,        23
 DROP   @PAGE-72,R13               36992    5134.              PSET  @FILEBLKI
 USING  @FILEBLKI-72,R13
 004508 D724 D048 D048 00000 00000 37012             +
 00450E D203 D048 7014 00000 00014 37013    5135.              MVC   @FILFSID,SCPGPRS+1*4    FILE SYSTEM ID
 004514 58F0 A998/0DEF       049D4 37014    5136.              VCALL FILEBLKI
 00451A 1200/4770 A912       0494E 37018    5137.              IF    (RVR,NZ),SENR4          NOT AVAILABLE
 004520 D203 7014 D04C 00014 00004 37035    5138.              MVC   SCPGPRS+1*4,@FILTBLK    TOTAL BLOCKS
 004526 D203 7010 D050 00010 00008 37036    5139.              MVC   SCPGPRS+0*4,@FILABLK    AVAILABLE BLOCKS
 00452C D203 7048 D054 00048 0000C 37037    5140.              MVC   SCPGPRS+14*4,@FILUMAX   MAX NUMBER OF BLOCKS
 004532 9180 D06C      00024       37038    5141.              IF    @FILFNA,SENR4           RETURN 4: UNAVAILABLE
 004536 4710 A912            0494E 37050             +
 00453A 9140 D06C      00024       37056    5142.              IF    @FILFRO,SENR8           RETURN 8: MAINTENANCE
 00453E 4710 A91A            04956 37068             +
 004542 47F0 A90C            04948 37074    5143.              B     SENR0                   RETURN 0: AVAILABLE
1M1SERV   (M1SE00) (09:42) (22MAR04) ORVYL'S Mode 1 Sense SVC                                                               Page  254
0Current Usings:  (PZERO,R0) (SCP,R7) (SENSE,R10) (SENWORK-72,R12) (@FILEBLKI-72,R13)
0Loc    Object Code    Addr1 Addr2  Stmt Lv Lineno    Source Statement           (Hibal 5, Asmedit 3.3)  HLASM R4.0  2004/03/22 09.42
+___    ______ ____    _____ _____  ____ __ ______    ______ _________
0                                  37076    5145.     *
                                   37077    5146.     *  SENSE SESSION USAGE INFORMATION
                                   37078    5147.     *
 004546                            37079    5148.     SENACCIN LABEL ,        25
                                   37081    5149.     *
                                   37082    5150.     *  GET ACCOUNTING INFORMATION
                                   37083    5151.     *
 DROP   @FILEBLKI-72,R13           37084    5152.              PSET  @ACINFO
 USING  @ACINFO-72,R13
 004546 D727 D048 D048 00000 00000 37104             +
 00454C D203 D048 0208 00000 00208 37105    5153.              MVC   @ACIASB,PZCURASB        CURRENT ASB
 004552 58F0 A978/0DEF       049B4 37106    5154.              VCALL ACINFO
                                   37110    5155.     *
                                   37111    5156.     *  ELAPSED TIME
                                   37112    5157.     *
 004558 6800 D058            00010 37113    5158.              LD    R0,@ACICON              CONNECT TIME
 00455C 6D00 A934            04970 37114    5159.              DD    R0,=FL8'106667'          TO 26 USEC UNITS
 004560 6E00 A93C            04978 37115    5160.              AW    R0,=XL8'4E00000000000000'
 004564 6000 C048            00000 37116    5161.              STD   R0,SNWCLOK
 004568 D203 7048 C04C 00048 00004 37117    5162.              MVC   SCPGPRS+14*4(4),SNWCLOK+4    RETURN ELAPSED TIME
                                   37118    5163.     *
                                   37119    5164.     *  I/O COUNTS
                                   37120    5165.     *
 00456E D203 7010 D04C 00010 00004 37121    5166.              MVC   SCPGPRS+0*4(4),@ACIIOS     RETURN I/O COUNT
                                   37122    5167.     *
                                   37123    5168.     *  CPU TIME
                                   37124    5169.     *
 004574 58F0 A97C/0DEF       049B8 37125    5170.              VCALL ACPUCHG                 GET CPU TIME
 00457A 6D00 A934            04970 37129    5171.              DD    R0,=FL8'106667'          TO 26 USEC UNITS
 00457E 6E00 A93C            04978 37130    5172.              AW    R0,=XL8'4E00000000000000'
 004582 6000 C048            00000 37131    5173.              STD   R0,SNWCLOK
 004586 D203 7014 C04C 00014 00004 37132    5174.              MVC   SCPGPRS+1*4(4),SNWCLOK+4     RETURN CPU TIME
                                   37133    5175.     *
                                   37134    5176.     *  FINALLY SET VM CHARGES
                                   37135    5177.     *
 00458C 1B11                       37136    5178.              CLEAR RS                      SET
 00458E 5010 704C            0004C 37140    5179.              ST    RS,SCPGPRS+15*4         RETURN CPU TIME
 004592 47F0 A926            04962 37141    5180.              B     SENXGO
1M1SERV   (M1SE00) (09:42) (22MAR04) ORVYL'S Mode 1 Sense SVC                                                               Page  255
0Current Usings:  (PZERO,R0) (SCP,R7) (SENSE,R10) (SENWORK-72,R12) (@ACINFO-72,R13)
0Loc    Object Code    Addr1 Addr2  Stmt Lv Lineno    Source Statement           (Hibal 5, Asmedit 3.3)  HLASM R4.0  2004/03/22 09.42
+___    ______ ____    _____ _____  ____ __ ______    ______ _________
0                                  37143    5182.     *
                                   37144    5183.     *  SENSE TIME BLOCK
                                   37145    5184.     *
 004596                            37146    5185.     SENTBLOK LABEL ,        26
                                   37148    5186.     *
                                   37149    5187.     *  GET POINTER TO CT
                                   37150    5188.     *
 004596 58E0 0200            00200 37151    5189.              L     R14,MATPTR               MAT POINTER
 00459A 58E0 E010            00010 37152    5190.              WITH  (MAT,R14),'L  R14,MATM1CT'   CT POINTER
 USING  MAT,R14
 DROP   MAT,R14
 00459E 58E0 E04C            0004C 37176    5191.              WITH  (M1CT,R14),'L  R14,CTSCVT'   "SCIP" CVT POINTER
 USING  M1CT,R14
 DROP   M1CT,R14
 0045A2 41E0 E00F            0000F 37200    5192.              WITH  (SCVT,R14),'LA  R14,SCVBLOCK'    BLOCK BYTE
 USING  SCVT,R14
 DROP   SCVT,R14
 0045A6 41F0 000E            0000E 37224    5193.              LA    R15,14                  AVERAGE GUY
 0045AA 4120 C050            00008 37225    5194.              LA    RA,SNWMEM               PLACE TO PUT IT
 0045AE 4130 0001            00001 37226    5195.              LA    RB,1                    ONE BYTE IS ALL WE WANT
 0045B2 832E000A                   37227    5196.              SYSCTL RA,R14,TYPE=MVSMRD     GET IT
 0045B6 1F11/4310 C050       00008 37230    5197.              LC    RS,SNWMEM                AND RETURN
 0045BC 5010 7014            00014 37237    5198.              ST    RS,SCPGPRS+1*4            IT TO USER
 0045C0 47F0 A90C            04948 37238    5199.              B     SENR0                   DONE
1M1SERV   (M1SE00) (09:42) (22MAR04) ORVYL'S Mode 1 Sense SVC                                                               Page  256
0Current Usings:  (PZERO,R0) (SCP,R7) (SENSE,R10) (SENWORK-72,R12) (@ACINFO-72,R13)
0Loc    Object Code    Addr1 Addr2  Stmt Lv Lineno    Source Statement           (Hibal 5, Asmedit 3.3)  HLASM R4.0  2004/03/22 09.42
+___    ______ ____    _____ _____  ____ __ ______    ______ _________
0                                  37240    5201.     *
                                   37241    5202.     *  SENSE HASP DISPLAY DATA
                                   37242    5203.     *
 0045C4                            37243    5204.     SENHASP  LABEL ,        27
                                   37245    5205.     *
                                   37246    5206.     *  GET POINTER TO CT
                                   37247    5207.     *
 0045C4 5810 0200            00200 37248    5208.              L     RS,MATPTR               MAT POINTER
 0045C8 5840 1010            00010 37249    5209.              WITH  (MAT,RS),'L  RJ,MATM1CT'   CT POINTER
 USING  MAT,R1
 DROP   MAT,R1
 USING  M1CT,R4                    37273    5210.              WITH  (M1CT,RJ)
 0045CC 5820 7048            00048 37286    5211.              L     RA,SCPGPRS+14*4         GET BUFFER NUMBER REQUESTED
 0045D0 5920 4040            00040 37287    5212.              IF    (RA,NL,CTJDCNT),SENR4
 0045D4 47B0 A912            0494E 37301             +
 0045D8 4D50 A848            04884 37307    5213.              BAS   RK,SENCKADD             CHECK USER ADDRESSABILITY
 0045DC 1B55                       37308    5214.              CLEAR RK                      ASSUME GOOD RESULTS
 0045DE 58E0 4044            00044 37312    5215.              L     R14,CTJDPTRS            LIST OF BUFFER ENTRIES
 0045E2 8920 0003            00003 37313    5216.              SLL   RA,3                    BUFFER ENTRIES ARE 8 BYTES
 0045E6 5832 E004            00004 37314    5217.              L     RB,@R14+4(RA)           GET LENGTH OF BUFFER
 0045EA 5930 704C            0004C 37315    5218.              IF    (RB,GT,SCPGPRS+15*4),BEGIN
 0045EE 47D0 A5C6            04602 37327             +
 0045F2 4150 0008            00008 37332  1 5219.                LA    RK,8                    DATA TRUNCATION OCCURRED
 0045F6 5930 7010            00010 37333  1 5220.                CEIL  RB,SCPGPRS+0*4          LIMIT TO REQUEST SIZE
 0045FA 47D0 A5C6            04602 37337  1          +
 0045FE 5830 7010            00010 37338  1          +
 004602                            37339    5221.              END   ,
 004602 58E2 E000            00000 37343    5222.              L     R14,@R14(RA)            GET BUFFER ADDRESS
 004606 1821                       37344    5223.              LR    RA,RS                   USER LOCATION
 004608 5030 7014            00014 37345    5224.              ST    RB,SCPGPRS+1*4          RETURN LENGTH OF DATA
 00460C 832E000A                   37346    5225.              SYSCTL RA,R14,TYPE=MVSMRD
 004610 18F5                       37349    5226.              LR    R15,RK                  USER RETURN CODE
 004612 47F0 A922            0495E 37350    5227.              B     SENX
1M1SERV   (M1SE00) (09:42) (22MAR04) ORVYL'S Mode 1 Sense SVC                                                               Page  257
0Current Usings:  (PZERO,R0) (M1CT,R4) (SCP,R7) (SENSE,R10) (SENWORK-72,R12) (@ACINFO-72,R13)
0Loc    Object Code    Addr1 Addr2  Stmt Lv Lineno    Source Statement           (Hibal 5, Asmedit 3.3)  HLASM R4.0  2004/03/22 09.42
+___    ______ ____    _____ _____  ____ __ ______    ______ _________
0                                  37352    5229.     *
                                   37353    5230.     *  SENSE ORVYL NAME
                                   37354    5231.     *
 004616                            37355    5232.     SENONAM  LABEL ,        28             SENSE ORVYL NAME
 004616 41F0 0008            00008 37357    5233.              LA    R15,8                   LENGTH REQUIRED FOR MOVE
 00461A 4D50 A85A            04896 37358    5234.              BAS   RK,SENCKANL             CHECK DATA ADDRESSABILITY
 00461E 5820 0200            00200 37359    5235.              L     RA,MATPTR               MAT POINTER
 USING  MAT,R2                     37360    5236.              WITH  (MAT,RA),'MVC  @RS(8),MATSNAME'   NAME TO USER'S AREA
 004622 D207 1000 20D4 00000 000D4 37375             +
 DROP   MAT,R2
 004628 47F0 A90C            04948 37384    5237.              B     SENR0                   RETURN OK
-
                                   37386    5239.     *
                                   37387    5240.     *  SENSE THE PROGRAM NAME
                                   37388    5241.     *
 00462C                            37389    5242.     SENPNAM  LABEL ,        29             SENSE PROGRAM NAME
 00462C 4D50 A848            04884 37391    5243.              BAS   RK,SENCKADD             CHECK DATA ADDRESSABILITY
 004630 58F0 704C            0004C 37392    5244.              L     R15,SCPGPRS+15*4         AND LENGTH
 004634 49F0 7280            00280 37393    5245.              CEIL  R15,SCBPNAML            MAX LENGTH TO MOVE
 004638 47D0 A604            04640 37397             +
 00463C 48F0 7280            00280 37398             +
 004640 50F0 7014            00014 37399    5246.              ST    R15,SCPGPRS+1*4          RETURN LENGTH OF NAME
 004644 06F0/44F0 A9F6       04A32 37400    5247.              DEX   R15,'MVC  @RS(0),SCBPNAM'    MOVE PROGRAM NAME
 004A32 D200 1000 7282 00000 00282 37411             +
 00464A 47F0 A90C            04948 37419    5248.              B     SENR0                   THEN RETURN TO THE USER
1M1SERV   (M1SE00) (09:42) (22MAR04) ORVYL'S Mode 1 Sense SVC                                                               Page  258
0Current Usings:  (PZERO,R0) (M1CT,R4) (SCP,R7) (SENSE,R10) (SENWORK-72,R12) (@ACINFO-72,R13)
0Loc    Object Code    Addr1 Addr2  Stmt Lv Lineno    Source Statement           (Hibal 5, Asmedit 3.3)  HLASM R4.0  2004/03/22 09.42
+___    ______ ____    _____ _____  ____ __ ______    ______ _________
0                                  37421    5250.
                                   37422    5251.
                                   37423    5252.       Sense 30 -- Get symbol address.
                                   37424    5253.
                                   37425    5254.          Macro format:
                                   37426    5255.              SENSE  30,symbol-location,symbol-length
                                   37427    5256.                     (0) (1)            (15)
                                   37428    5257.
                                   37429    5258.              Returns in R15:
                                   37430    5259.                 -4 = already referenced;    R14 = return value
                                   37431    5260.                  0 = successful completion; R14 = return value
                                   37432    5261.                  4 = symbol not found
                                   37433    5262.

000464E                            37434    5263.     SENSYM   LABEL ,  SENSE 30         Sense symbol address
 00464E 4D50 A8A0            048DC 37436    5264.              BAS   RK,SENCKREF         Check for valid addr,length
                                   37437    5265.
 DROP   @ACINFO-72,R13             37438    5266.              PSET  @SSWA
 USING  @SSWA-72,R13
 004652 D7CF D048 D048 00000 00000 37458             +
 004658 9240 D048      00000       37459    5267.              MVI   @SSNAME,C' '
 00465C D2C6 D049 D048 00001 00000 37460    5268.              MVC   @SSNAME+1(L'@SSNAME-1),@SSNAME  Pre-blank
 004662 58F0 704C            0004C 37461    5269.              L     R15,SCPGPRS+15*4    Symbol length
 004666 59F0 A99C            049D8 37462    5270.              CEIL  R15,L'@SSNAME       Not too much
 00466A 47D0 A636            04672 37471             +
 00466E 58F0 A99C            049D8 37476             +
 004672 06F0/12FF                  37481    5271.              MOVE  R15,@SSNAME,@RS     Copy symbol name into area
 004676 4740 A642            0467E 37494             +
 00467A 44F0 A9FC            04A38 37500  1          +
 004A38 D200 D048 1000 00000 00000 37507  1          +
 00467E 58F0 A9A0/0DEF       049DC 37519    5272.              ACALL GETSSYM             Get shared symbol value
 004684 D203 7048 D110 00048 000C8 37526    5273.              MVC   SCPGPRS+14*4(4),@SSWORD  Return value
 00468A 18F0                       37527    5274.              LR    R15,RVR             Copy return code
 00468C 47F0 A922            0495E 37528    5275.              B     SENX                Return
1M1SERV   (M1SE00) (09:42) (22MAR04) ORVYL'S Mode 1 Sense SVC                                                               Page  259
0Current Usings:  (PZERO,R0) (M1CT,R4) (SCP,R7) (SENSE,R10) (SENWORK-72,R12) (@SSWA-72,R13)
0Loc    Object Code    Addr1 Addr2  Stmt Lv Lineno    Source Statement           (Hibal 5, Asmedit 3.3)  HLASM R4.0  2004/03/22 09.42
+___    ______ ____    _____ _____  ____ __ ______    ______ _________
0                                  37530    5277.
                                   37531    5278.
                                   37532    5279.       Sense 31 -- Unreference symbol.
                                   37533    5280.
                                   37534    5281.          Macro format:
                                   37535    5282.              SENSE  31,symbol-location,symbol-length
                                   37536    5283.                     (0) (1)            (15)
                                   37537    5284.
                                   37538    5285.              Note:
                                   37539    5286.                If R1=0 then all of this user's symbols are
                                   37540    5287.                        unreferenced.  CLP issues this form to
                                   37541    5288.                        cleanup on exit.
                                   37542    5289.
                                   37543    5290.              Returns in R15:
                                   37544    5291.                  0 = successful completion (symbol unreferenced)
                                   37545    5292.                  4 = symbol not previously referenced
                                   37546    5293.                  8 = symbol not found
                                   37547    5294.

0004690                            37548    5295.     SENUSYM  LABEL ,  SENSE 31         Unreference symbol
                                   37550    5296.
                                   37551    5297.                Not implemented.
                                   37552    5298.
 004690 41F0 000C            0000C 37553    5299.              LA    R15,12              Not implemented
 004694 47F0 A922            0495E 37554    5300.              B     SENX                Return
1M1SERV   (M1SE00) (09:42) (22MAR04) ORVYL'S Mode 1 Sense SVC                                                               Page  260
0Current Usings:  (PZERO,R0) (M1CT,R4) (SCP,R7) (SENSE,R10) (SENWORK-72,R12) (@SSWA-72,R13)
0Loc    Object Code    Addr1 Addr2  Stmt Lv Lineno    Source Statement           (Hibal 5, Asmedit 3.3)  HLASM R4.0  2004/03/22 09.42
+___    ______ ____    _____ _____  ____ __ ______    ______ _________
0                                  37556    5302.     *
                                   37557    5303.     *  SENSE SESSION COST
                                   37558    5304.     *
 004698                            37559    5305.     SENCOST  LABEL ,        150
 004698 47F0 A912            0494E 37561    5306.              B     SENR4
-
                                   37563    5308.     *
                                   37564    5309.     *  SENSE FILE SYSTEM INFO
                                   37565    5310.     *
 00469C                            37566    5311.     SENFSBS  LABEL ,        151
 00469C 58F0 704C            0004C 37568    5312.              L     R15,SCPGPRS+15*4        LENGTH PROVIDED
 0046A0 59F0 A9A4            049E0 37569    5313.              IF    (R15,LT,16),SENSPEC     NOT ENOUGH
 0046A4 4740 A900            0493C 37583             +
 0046A8 4D50 A848            04884 37589    5314.              BAS   RK,SENCKADD             CHECK DATA ADDRESSABILITY
                                   37590    5315.
 DROP   @SSWA-72,R13               37591    5316.              PSET  @FILEBLKI
 USING  @FILEBLKI-72,R13
 0046AC D724 D048 D048 00000 00000 37611             +
 0046B2 D203 D048 7048 00000 00048 37612    5317.              MVC   @FILFSID,SCPGPRS+14*4   FILE SYSTEM ID
 0046B8 58F0 A998/0DEF       049D4 37613    5318.              VCALL FILEBLKI
 0046BE 1200/4780 A690       046CC 37617    5319.              IF    (RVR,NZ),BEGIN          NOT AVAILABLE
 0046C4 48F0 A9D4            04A10 37631  1 5320.                LH    R15,=Y(-4)              ERROR RETURN
 0046C8 47F0 A922            0495E 37632  1 5321.                B     SENX
 0046CC                            37633    5322.              END
                                   37637    5323.
                                   37638    5324.                Move info to caller's area.
                                   37639    5325.
 0046CC 1821                       37640    5326.              LR    RA,RS               LOCATION
 0046CE D207 2000 D058 00000 00010 37641    5327.              MVC   @RA(8),@FILNAME
 0046D4 D203 2008 D050 00008 00008 37642    5328.              MVC   @RA+8(4),@FILABLK   AVAILABLE BLOCKS
 0046DA D203 200C D04C 0000C 00004 37643    5329.              MVC   @RA+12(4),@FILTBLK  TOTAL BLOCKS
 0046E0 D203 7010 A9A4 00010 049E0 37644    5330.              MVC   SCPGPRS+0*4,=A(16)  Old style length
                                   37645    5331.
 0046E6 58F0 704C            0004C 37646    5332.              L     R15,SCPGPRS+15*4    Get parameter block length
 0046EA 59F0 A9A8            049E4 37647    5333.              IF    (R15,GE,28),BEGIN   Room for extended information...
 0046EE 4750 A6DC            04718 37659             +
 0046F2                            37664  1 5334.                CLEAR (@RA+16,12)         Initialize extended area
 0046F2 D70B 2010 2010 00010 00010 37670  1          +
 0046F8 9120 D06C      00024       37671  1 5335.                IF    @FILFCACHE,'MVC @RA+16(4),=F"1"'  File caching
 0046FC 47E0 A6CA            04706 37681  1          +
 004700 D203 2010 A9AC 00010 049E8 37687  1          +
 004706 D203 2014 D068 00014 00020 37692  1 5336.                MVC   @RA+20(4),@FILIOCT  I/O count
 00470C D203 2018 D064 00018 0001C 37693  1 5337.                MVC   @RA+24(4),@FILCACT+4 Cache read count
 004712 D203 7010 A9A8 00010 049E4 37694  1 5338.                MVC   SCPGPRS+0*4,=A(28)  Extended length
 004718                            37695    5339.              END
 004718 59F0 A9B0            049EC 37699    5340.              IF    (R15,GE,36),BEGIN   Room for extended information...
 00471C 4750 A704            04740 37711             +
 004720                            37716  1 5341.                CLEAR (@RA+28,8)          Initialize extended area
 004720 D707 201C 201C 0001C 0001C 37722  1          +
 004726 D207 2018 D060 00018 00018 37723  1 5342.                MVC   @RA+24(8),@FILCACT  Cache read count
 00472C 9110 D06C      00024       37724  1 5343.                IF    @FILF4K,'MVC @RA+32(4),=F"1"' 4K file
 004730 47E0 A6FE            0473A 37734  1          +
1M1SERV   (M1SE00) (09:42) (22MAR04) ORVYL'S Mode 1 Sense SVC                                                               Page  261
0Current Usings:  (PZERO,R0) (M1CT,R4) (SCP,R7) (SENSE,R10) (SENWORK-72,R12) (@FILEBLKI-72,R13)
0Loc    Object Code    Addr1 Addr2  Stmt Lv Lineno    Source Statement           (Hibal 5, Asmedit 3.3)  HLASM R4.0  2004/03/22 09.42
+___    ______ ____    _____ _____  ____ __ ______    ______ _________
0004734 D203 2020 A9AC 00020 049E8 37740  1          +
 00473A D203 7010 A9B0 00010 049EC 37745  1 5344.                MVC   SCPGPRS+0*4,=A(36)  Extended length
 004740                            37746    5345.              END
                                   37750    5346.
 004740 9180 D06C      00024       37751    5347.              IF    @FILFNA,SENR4           RETURN 4: UNAVAILABLE
 004744 4710 A912            0494E 37763             +
 004748 9140 D06C      00024       37769    5348.              IF    @FILFRO,SENR8           RETURN 8: MAINTENANCE
 00474C 4710 A91A            04956 37781             +
 004750 47F0 A90C            04948 37787    5349.              B     SENR0                   RETURN 0: AVAILABLE
1M1SERV   (M1SE00) (09:42) (22MAR04) ORVYL'S Mode 1 Sense SVC                                                               Page  262
0Current Usings:  (PZERO,R0) (M1CT,R4) (SCP,R7) (SENSE,R10) (SENWORK-72,R12) (@FILEBLKI-72,R13)
0Loc    Object Code    Addr1 Addr2  Stmt Lv Lineno    Source Statement           (Hibal 5, Asmedit 3.3)  HLASM R4.0  2004/03/22 09.42
+___    ______ ____    _____ _____  ____ __ ______    ______ _________
0                                  37789    5351.     *
                                   37790    5352.     *  Sense cross address space memory
                                   37791    5353.     *
 000000                00000 00018 37792    5354.     SXASCPRM RECORD BEGIN
 000000                            37800  1 5355.     SXAASB     DS    A                       ASB of other AS
 000004                            37801  1 5356.     SXASLOC    DS    A                       Source address
 000008                            37802  1 5357.     SXADLOC    DS    A                       Destination address
 00000C                            37803  1 5358.     SXADLEN    DS    A                         and length
 000010                            37804  1 5359.     SXATOD     DS    D                       Time for waiting (TOD fmt)
 000018                00018 00018 37805    5360.              END   ,
0004754                            37815    5362.     SENXASC  LABEL ,        152
 004754 5850 7014            00014 37817    5363.              L     RK,SCPGPRS+1*4
 USING  SXASCPRM,R5                37818    5364.              WITH  (SXASCPRM,RK)
 004758 5830 500C            0000C 37831    5365.              L     RB,SXADLEN              Check length validity
 00475C 1233/47D0 A900       0493C 37832    5366.              IF    ((RB,NPOS),OR,(RB,GT,8192)),SENSPEC
 004762 5930 A9B4            049F0 37856             +
 004766 4720 A900            0493C 37859             +
                                   37865    5367.
 DROP   @FILEBLKI-72,R13           37866    5368.              PSET  @PAGE                   Check memory
 USING  @PAGE-72,R13
 00476A D708 D048 D048 00000 00000 37886             +
 004770                            37887    5369.              PMOV  @PAGLOC,SXADLOC
 004770 D203 D048 5008 00000 00008 37891             +
 004776 5030 D04C            00004 37892    5370.              PMOV  @PAGLEN,(RB)
 00477A D200 D050 7009 00008 00009 37902    5371.              MVC   @PAGKEY,SCPPSW+1
 004780 94F0 D050      00008       37903    5372.              NI    @PAGKEY,X'F0'
 004784 58F0 A990/0DEF       049CC 37904    5373.              VCALL PAGTPROT
 00478A 1200/4770 A900       0493C 37908    5374.              IF    (RVR,NZ),SENSPEC
                                   37925    5375.     *
 DROP   @PAGE-72,R13               37926    5376.              VMGET (RB),LOC=GLOBHI,FIX=YES
 USING  @VMGET-72,R13
 004790 D70A D048 D048 00000 00000 37953             +
 004796 5030 D048            00000 37963             +
 00479A D201 D050 A9D6 00008 04A12 37964             +
 0047A0 58F0 A9B8/0DEF       049F4 37967             +
 0047A6 1220/4770 A778       047B4 37969    5377.              IF    ('LTR RA,RVR',ZERO),BEGIN        No memory
 0047AC 41F0 000C            0000C 37982  1 5378.                LA    R15,XARCSETUP
 0047B0 47F0 A922            0495E 37983  1 5379.                B     SENX
 0047B4                            37984    5380.              END   ,                                OF No memory
                                   37988    5381.     *
                                   37989    5382.     *
                                   37990    5383.     *  Make call to cross address space
                                   37991    5384.     *
 DROP   @VMGET-72,R13              37992    5385.              PSET  @XAMEM
 USING  @XAMEM-72,R13
 0047B4 D717 D048 D048 00000 00000 38012             +
 0047BA                            38013    5386.              PMOV  @XAMASB,SXAASB          ASB of other guy
 0047BA D203 D048 5000 00000 00000 38017             +
 0047C0                            38018    5387.              PMOV  @XAMSLOC,SXASLOC          remote location (source)
 0047C0 D203 D04C 5004 00004 00004 38022             +
 0047C6 5020 D050            00008 38023    5388.              PMOV  @XAMDLOC,(RA)               global mem buffer
 0047CA                            38033    5389.              PMOV  @XAMDLEN,SXADLEN              and length
 0047CA D203 D054 500C 0000C 0000C 38037             +
1M1SERV   (M1SE00) (09:42) (22MAR04) ORVYL'S Mode 1 Sense SVC                                                               Page  263
0Current Usings:  (PZERO,R0) (M1CT,R4) (SXASCPRM,R5) (SCP,R7) (SENSE,R10) (SENWORK-72,R12) (@XAMEM-72,R13)
0Loc    Object Code    Addr1 Addr2  Stmt Lv Lineno    Source Statement           (Hibal 5, Asmedit 3.3)  HLASM R4.0  2004/03/22 09.42
+___    ______ ____    _____ _____  ____ __ ______    ______ _________
00047D0                            38038    5390.              PMOV  @XAMTIME,SXATOD                 plus wait time
 0047D0 D207 D058 5010 00010 00010 38042             +
 0047D6 58F0 A9BC/0DEF       049F8 38043    5391.              VCALL XARMEM
 0047DC 1860                       38047    5392.              LR    RX,RVR                  Save return code
 0047DE 5960 A9C0            049FC 38048    5393.              IF    ((RX,EQ,XARCOK),OR,(RX,EQ,XARCFAIL)),BEGIN Mem to copy
 0047E2 4780 A7B2            047EE 38064             +
 0047E6 5960 A9C4            04A00 38075             +
 0047EA 4770 A7C4            04800 38076             +
 0047EE 5810 D054            0000C 38081  1 5394.                L     RS,@XAMDLEN             Set length moved in ret area
 0047F2 5010 500C            0000C 38082  1 5395.                ST    RS,SXADLEN
                                   38083  1 5396.     *
                                   38084  1 5397.     *  Move memory to local area
                                   38085  1 5398.     *
                                   38086  1 5399.                REGCH (RVR,R0),(RS,R1)
 0047F6 1802                       38087  1 5400.                LR    RVR,RA                  Source (global mem)
 0047F8 5880 5008            00008 38088  1 5401.                L     RM,SXADLOC              Dest (local mem)
 0047FC 1891                       38089  1 5402.                LR    RN,RS
 0047FE 0E80                       38090  1 5403.                MVCL  RM,RVR
 004800                            38091    5404.              END   ,                       OF Memory to copy
                                   38095    5405.     *
                                   38096    5406.     *  Release global memory
                                   38097    5407.     *
 DROP   @XAMEM-72,R13              38098    5408.              VMFREE (RB),A=(RA),LOC=GLOBHI,FIX=YES
 USING  @VMFREE-72,R13
 004800 D709 D048 D048 00000 00000 38125             +
 004806 5030 D04C            00004 38135             +
 00480A 5020 D048            00000 38145             +
 00480E D201 D050 A9D6 00008 04A12 38146             +
 004814 58F0 A9C8/0DEF       04A04 38149             +
                                   38151    5409.
 00481A 18F6                       38152    5410.              LR    R15,RX                  Set return code
 00481C 47F0 A922            0495E 38153    5411.              B     SENX
1M1SERV   (M1SE00) (09:42) (22MAR04) ORVYL'S Mode 1 Sense SVC                                                               Page  264
0Current Usings:  (PZERO,R0) (M1CT,R4) (SXASCPRM,R5) (SCP,R7) (SENSE,R10) (SENWORK-72,R12) (@VMFREE-72,R13)
0Loc    Object Code    Addr1 Addr2  Stmt Lv Lineno    Source Statement           (Hibal 5, Asmedit 3.3)  HLASM R4.0  2004/03/22 09.42
+___    ______ ____    _____ _____  ____ __ ______    ______ _________
0                                  38155    5413.     *
                                   38156    5414.     *   SENSE ORVYL GLOBAL MEMORY
                                   38157    5415.     *
 004820                            38158    5416.     SENGLOBM LABEL ,        153
 004820 5810 7014/1211       00014 38160    5417.              IF    ('LT  RS,SCPGPRS+1*4',Z),SENSPEC
 004826 4780 A900            0493C 38173             +
 00482A 4D50 A848            04884 38179    5418.              BAS   RK,SENCKADD             Check for write access
 00482E 1821                       38180    5419.              LR    RA,RS                   Starting address of user area
 004830 5830 704C            0004C 38181    5420.              L     RB,SCPGPRS+15*4         Length of user area
 DROP   @VMFREE-72,R13             38182    5421.              PSET  @PAGE
 USING  @PAGE-72,R13
 004834 D708 D048 D048 00000 00000 38202             +
 00483A D203 D048 7048 00000 00048 38203    5422.              MVC   @PAGLOC,SCPGPRS+14*4    Location of global memory
 004840 5030 D04C            00004 38204    5423.              ST    RB,@PAGLEN              Length wanted
 004844 58F0 A990/0DEF       049CC 38205    5424.              VCALL PAGTPROT                Make sure it exists
 00484A 5900 A9CC            04A08 38209    5425.              IF    (RVR,GE,2),SENR8
 00484E 47A0 A91A            04956 38223             +
 004852 58E0 7048            00048 38229    5426.              L     R14,SCPGPRS+14*4        Location of global memory
 004856 18F3                       38230    5427.              LR    R15,RB                  Length wanted
 004858 0E2E                       38231    5428.              MVCL  RA,R14                  Give them a copy of memory
 00485A 47F0 A90C            04948 38232    5429.              B     SENR0                   Return ok
                                   38233    5430.     *
                                   38234    5431.     *   SENSE OS MEMORY
                                   38235    5432.     *
 00485E                            38236    5433.     SENOSMEM LABEL ,        154
 00485E 5810 7014/1211       00014 38238    5434.              IF    ('LT  RS,SCPGPRS+1*4',Z),SENSPEC
 004864 4780 A900            0493C 38251             +
 004868 4D50 A848            04884 38257    5435.              BAS   RK,SENCKADD             Check for write access
 00486C 1821                       38258    5436.              LR    RA,RS                   Starting address of user area
 00486E 5830 704C            0004C 38259    5437.              L     RB,SCPGPRS+15*4         Length of user area
 004872 58E0 7048            00048 38260    5438.              L     R14,SCPGPRS+14*4        MVS LOCATION
 004876 1BFF                       38261    5439.              CLEAR R15                     PROTECT KEY
 004878 832E000A                   38265    5440.              SYSCTL RA,R14,TYPE=MVSMRD     GET THE MEMORY
 00487C 4770 A91A            04956 38268    5441.              IF    NZ,SENR8
 004880 47F0 A90C            04948 38282    5442.              B     SENR0                   Return ok
1M1SERV   (M1SE00) (09:42) (22MAR04) ORVYL'S Mode 1 Sense SVC                                                               Page  265
0Current Usings:  (PZERO,R0) (M1CT,R4) (SXASCPRM,R5) (SCP,R7) (SENSE,R10) (SENWORK-72,R12) (@PAGE-72,R13)
0Loc    Object Code    Addr1 Addr2  Stmt Lv Lineno    Source Statement           (Hibal 5, Asmedit 3.3)  HLASM R4.0  2004/03/22 09.42
+___    ______ ____    _____ _____  ____ __ ______    ______ _________
0                                  38284    5444.     *******************************************************************
                                   38285    5445.     *                                                                 *
                                   38286    5446.     *    SENCKADD - Check user buffer area routine for Sense SVC      *
                                   38287    5447.     *                                                                 *
                                   38288    5448.     *******************************************************************
0                                  38290    5450.
                                   38291    5451.                Check to see if we can store into the area.
                                   38292    5452.
 004884                            38293    5453.     SENCKADD LABEL
 004884 58F0 704C            0004C 38295    5454.              L     R15,SCPGPRS+15*4        LENGTH
 004888 12FF/47D0 A900       0493C 38296    5455.              IF    (R15,NP),SENSPEC        CHECK VALID
 00488E 59F0 A9B4            049F0 38313    5456.              IF    (R15,GT,8192),SENSPEC
 004892 4720 A900            0493C 38327             +
                                   38333    5457.
 004896                            38334    5458.     SENCKANL LABEL ,
 004896                            38336    5459.              PSET  @PAGE
 004896 D708 D048 D048 00000 00000 38346             +
 00489C 5810 7014            00014 38347    5460.              L     RS,SCPGPRS+1*4          LOCATION
 0048A0 9180 700C      0000C       38348    5461.              TM    SCPPSW+4,X'80'      31 bit mode?
 0048A4 4770 A870            048AC 38349    5462.              IF    Z,'N RS,=X"00FFFFFF"'
 0048A8 5410 A98C            049C8 38361             +
 0048AC 5010 D048            00000 38366    5463.              ST    RS,@PAGLOC              PROVIDE LOCATION
 0048B0 50F0 D04C            00004 38367    5464.              ST    R15,@PAGLEN              AND LENGTH
 0048B4 D200 D050 7009 00008 00009 38368    5465.              MVC   @PAGKEY,SCPPSW+1        PSW KEY
 0048BA 94F0 D050      00008       38369    5466.              NI    @PAGKEY,X'F0'            KEY ONLY
 0048BE 58F0 A990/0DEF       049CC 38370    5467.              VCALL PAGTPROT                CHECK IT OUT
 0048C4 1200/4770 A900       0493C 38374    5468.              IF    (RVR,NZ),SENSPEC        NO GOOD
 0048CA 5810 7014            00014 38391    5469.              L     RS,SCPGPRS+1*4          LOCATION
 0048CE 9180 700C      0000C       38392    5470.              TM    SCPPSW+4,X'80'      31 bit mode?
 0048D2 4770 A89E            048DA 38393    5471.              IF    Z,'N RS,=X"00FFFFFF"'   FOR CALLER
 0048D6 5410 A98C            049C8 38405             +
 0048DA 07F5                       38410    5472.              BR    RK                      RETURN
                                   38411    5473.
                                   38412    5474.                Check to see if we can reference the area.
                                   38413    5475.
 0048DC 58F0 704C            0004C 38414    5476.     SENCKREF L     R15,SCPGPRS+15*4        LENGTH
 0048E0 12FF/47D0 A900       0493C 38415    5477.              IF    (R15,NP),SENSPEC        CHECK VALID
 0048E6 59F0 A9B4            049F0 38432    5478.              IF    (R15,GT,8192),SENSPEC
 0048EA 4720 A900            0493C 38446             +
                                   38452    5479.
 0048EE                            38453    5480.              PSET  @PAGE
 0048EE D708 D048 D048 00000 00000 38463             +
 0048F4 5810 7014            00014 38464    5481.              L     RS,SCPGPRS+1*4          LOCATION
 0048F8 9180 700C      0000C       38465    5482.              TM    SCPPSW+4,X'80'      31 bit mode?
 0048FC 4770 A8C8            04904 38466    5483.              IF    Z,'N RS,=X"00FFFFFF"'
 004900 5410 A98C            049C8 38478             +
 004904 5010 D048            00000 38483    5484.              ST    RS,@PAGLOC              PROVIDE LOCATION
 004908 50F0 D04C            00004 38484    5485.              ST    R15,@PAGLEN              AND LENGTH
 00490C D200 D050 7009 00008 00009 38485    5486.              MVC   @PAGKEY,SCPPSW+1        PSW KEY
 004912 94F0 D050      00008       38486    5487.              NI    @PAGKEY,X'F0'            KEY ONLY
 004916 58F0 A990/0DEF       049CC 38487    5488.              VCALL PAGTPROT                CHECK IT OUT
 00491C 1200/4780 A8EE       0492A 38491    5489.              IF    ((RVR,NZ),AND,(RVR,NE,1)),SENSPEC  No good
 004922 5900 A970            049AC 38515             +
1M1SERV   (M1SE00) (09:42) (22MAR04) ORVYL'S Mode 1 Sense SVC                                                               Page  266
0Current Usings:  (PZERO,R0) (M1CT,R4) (SXASCPRM,R5) (SCP,R7) (SENSE,R10) (SENWORK-72,R12) (@PAGE-72,R13)
0Loc    Object Code    Addr1 Addr2  Stmt Lv Lineno    Source Statement           (Hibal 5, Asmedit 3.3)  HLASM R4.0  2004/03/22 09.42
+___    ______ ____    _____ _____  ____ __ ______    ______ _________
0004926 4770 A900            0493C 38518             +
 00492A 5810 7014            00014 38524    5490.              L     RS,SCPGPRS+1*4          LOCATION
 00492E 9180 700C      0000C       38525    5491.              TM    SCPPSW+4,X'80'      31 bit mode?
 004932 4770 A8FE            0493A 38526    5492.              IF    Z,'N RS,=X"00FFFFFF"'
 004936 5410 A98C            049C8 38538             +
 00493A 07F5                       38543    5493.              BR    RK                      RETURN
1M1SERV   (M1SE00) (09:42) (22MAR04) ORVYL'S Mode 1 Sense SVC                                                               Page  267
0Current Usings:  (PZERO,R0) (M1CT,R4) (SXASCPRM,R5) (SCP,R7) (SENSE,R10) (SENWORK-72,R12) (@PAGE-72,R13)
0Loc    Object Code    Addr1 Addr2  Stmt Lv Lineno    Source Statement           (Hibal 5, Asmedit 3.3)  HLASM R4.0  2004/03/22 09.42
+___    ______ ____    _____ _____  ____ __ ______    ______ _________
0                                  38545    5495.     *******************************************************************
                                   38546    5496.     *                                                                 *
                                   38547    5497.     *    SENSE SVC - return routines                                  *
                                   38548    5498.     *                                                                 *
                                   38549    5499.     *******************************************************************
000493C 9206 71A9      001A9       38551    5501.     SENSPEC  MVI   SCPPANSY,PANSPEC        SET CODE FOR SPEC
 004940 9610 7265      00265       38552    5502.              SET   SCBXP                   MARK USER FOR PANIC
 004944 47F0 A922            0495E 38558    5503.              B     SENX
                                   38559    5504.
 004948 1BFF                       38560    5505.     SENR0    CLEAR R15
 00494A 47F0 A922            0495E 38565    5506.              B     SENX
                                   38566    5507.
 00494E 41F0 0004            00004 38567    5508.     SENR4    LA    R15,4
 004952 47F0 A922            0495E 38568    5509.              B     SENX
                                   38569    5510.
 004956 41F0 0008            00008 38570    5511.     SENR8    LA    R15,8
 00495A 47F0 A922            0495E 38571    5512.              B     SENX
                                   38572    5513.
 00495E 50F0 704C            0004C 38573    5514.     SENX     ST    R15,SCPGPRS+15*4        SET RETURN CODE
                                   38574    5515.
 004962                            38575    5516.     SENXGO   LABEL ,
 004962 981F C008            00008 38577    5517.              PEND
 DROP   SXASCPRM,R5
 DROP   M1CT,R4
 DROP   SCP,R7
 DROP   SENWORK-72,R12
 DROP   SENSE,R10
 004966 9680 C000/0B0E 00000       38607             +
 DROP   @PAGE-72,R13
                                   38616    5518.
 004970                            38617    5519.              LTORG
 004970 000000000001A0AB           38619                             =FL8'106667'
 004978 4E00000000000000           38620                             =XL8'4E00000000000000'
 004980 4040404040404040           38621                             =CL16' '
 004990 0000001F                   38622                             =A(MAXPSEN)
 004994 00000076                   38623                             =A(HSENBASE-MAXPSEN-1)
 004998 00000024                   38624                             =A(MAXSENSE)
 00499C 00FFF000                   38625                             =X'00FFF000'
 0049A0 00001000                   38626                             =A(4096)
 0049A4 00000000                   38627                             =V(VMCHK)
 0049A8 00000000                   38628                             =V(PAGTPTP)
 0049AC 00000001                   38629                             =A(1)
 0049B0 0000724E                   38630                             =A(SENSETD)
 0049B4 00000000                   38631                             =V(ACINFO)
 0049B8 00000000                   38632                             =V(ACPUCHG)
 0049BC 00000000                   38633                             =V(CPCHK)
 0049C0 00000000                   38634                             =V(RTCHK)
 0049C4 00000000                   38635                             =V(TERUINF)
 0049C8 00FFFFFF                   38636                             =X'00FFFFFF'
 0049CC 00000000                   38637                             =V(PAGTPROT)
 0049D0 00000085                   38638                             =A(133)
 0049D4 00000000                   38639                             =V(FILEBLKI)
 0049D8 000000C8                   38640                             =A(L'@SSNAME)
1M1SERV   (M1SE00) (09:42) (22MAR04) ORVYL'S Mode 1 Sense SVC                                                               Page  268
0Current Usings:  (PZERO,R0)
0Loc    Object Code    Addr1 Addr2  Stmt Lv Lineno    Source Statement           (Hibal 5, Asmedit 3.3)  HLASM R4.0  2004/03/22 09.42
+___    ______ ____    _____ _____  ____ __ ______    ______ _________
00049DC 00004A4A                   38641                             =A(GETSSYM)
 0049E0 00000010                   38642                             =A(16)
 0049E4 0000001C                   38643                             =A(28)
 0049E8 00000001                   38644                             =F'1'
 0049EC 00000024                   38645                             =A(36)
 0049F0 00002000                   38646                             =A(8192)
 0049F4 00000000                   38647                             =V(VMGET)
 0049F8 00000000                   38648                             =V(XARMEM)
 0049FC 00000000                   38649                             =A(XARCOK)
 004A00 00000004                   38650                             =A(XARCFAIL)
 004A04 00000000                   38651                             =V(VMFREE)
 004A08 00000002                   38652                             =A(2)
 004A0C 0000                       38653                             =Y(0*256+0)
 004A0E 0038                       38654                             =Y(L'IDT)
 004A10 FFFC                       38655                             =Y(-4)
 004A12 3F00           04A3E 07A90 38656                             =Y(63*256+0)
1M1SERV   (M1SE00) (09:42) (22MAR04) ORVYL'S Mode 1 Sense SVC                                                               Page  269
0Current Usings:  (PZERO,R0)
0Loc    Object Code    Addr1 Addr2  Stmt Lv Lineno    Source Statement           (Hibal 5, Asmedit 3.3)  HLASM R4.0  2004/03/22 09.42
+___    ______ ____    _____ _____  ____ __ ______    ______ _________
0                                  38661    5521.
                                   38662    5522.
                                   38663    5523.       GETSSYM -- Routine to get a shared symbol value given it's name.
                                   38664    5524.
                                   38665    5525.         On entry:
                                   38666    5526.           @SSNAME - symbol name
                                   38667    5527.           RY -- SCP address
                                   38668    5528.
                                   38669    5529.         On exit, RVR:
                                   38670    5530.           0 - got it;  @SSWORD = value
                                   38671    5531.

0004A3E                            38672    5532.     GETSSYM  PROC  @SSWA
 004A3E C7C5E3E2E2E8D440           38679             +
 004A46 00D0/0000                  38680             +
 004A4A 900F D004/18AF       00004 38682             +
 USING  GETSSYM,R10
 004A50 50D0 C000/18CD       00000 38697             +
 004A56 9680 C000      00000       38699             +
 USING  @SSWA-72,R12
 004A5A 41D0 C118            00118 38713             +
 USING  SCP,R7                     38714    5533.              WITH  (SCP,RY)
 004A5E                            38727    5534.              CLEAR @SSWORD,@SSRV           Initialize return values
 004A5E D703 C110 C110 000C8 000C8 38733             +
 004A64 D703 C114 C114 000CC 000CC 38738             +
 004A6A D203 C114 ACF6 000CC 05740 38739    5535.              MVC   @SSRV,=F'4'             Assume that it is not found
                                   38740    5536.
 004A70 5810 0200            00200 38741    5537.              L     RS,MATPTR               MAT ptr
 004A74 5840 1010            00010 38742    5538.              WITH  (MAT,RS),'L RJ,MATM1CT' CT ptr
 USING  MAT,R1
 DROP   MAT,R1
 USING  M1CT,R4                    38766    5539.              WITH  (M1CT,RJ)
                                   38779    5540.
 USING  @LOCKS-72,R13              38780    5541.              LKOB  CTSPBCLK                Get lock on the SPB's
 004A78 D203 D048 4008 00000 00008 38796             +
 004A7E 58F0 ACFA/0DEF       05744 38799             +
                                   38801    5542.
                                   38802    5543.                Search first the SPBs which have already been referenced
                                   38803    5544.                by this user.  This keeps references consistent.
                                   38804    5545.
 USING  SPB,R5                     38805    5546.              WITH  (SPB,RK)
 USING  SSB,R3                     38818    5547.              WITH  (SSB,RB)
 004A84 5820 728C            0028C 38831    5548.              L     RA,SCBSSAB              Try Access blocks first
 004A88 1222/4780 A07C       04AC6 38832    5549.              WHILE (RA,NZ),BEGIN
 USING  SSAB,R2                    38848  1 5550.                WITH  (SSAB,RA)
 004A8E 5850 2008            00008 38861  1 5551.                L     RK,SSABSPB              Get the SPB Address
 004A92 5830 5058            00058 38862  1 5552.                L     RB,SPBSSB               Head of the symbol list
 004A96 1233/4780 A074       04ABE 38863  1 5553.                WHILE (RB,NZ),BEGIN           Loop through the symbols
 004A9C                            38879  2 5554.                  IF    (SSBNAME,EQ,@SSNAME),BEGIN
 004A9C D5C7 3010 C048 00010 00000 38890  2          +
 004AA2 4770 A06C            04AB6 38891  2          +
 004AA6 D203 C110 3008 000C8 00008 38896  3 5555.                    MVC   @SSWORD,SSBWORD         Copy the symbol value
 004AAC                            38897  3 5556.                    CLEAR @SSRV                   Signal a good return
1M1SERV   (M1SE00) (09:42) (22MAR04) ORVYL'S Mode 1 Sense SVC                                                               Page  270
0Current Usings:  (PZERO,R0) (SSAB,R2) (SSB,R3) (M1CT,R4) (SPB,R5) (SCP,R7) (GETSSYM,R10) (@SSWA-72,R12) (@LOCKS-72,R13)
0Loc    Object Code    Addr1 Addr2  Stmt Lv Lineno    Source Statement           (Hibal 5, Asmedit 3.3)  HLASM R4.0  2004/03/22 09.42
+___    ______ ____    _____ _____  ____ __ ______    ______ _________
0004AAC D703 C114 C114 000CC 000CC 38903  3          +
 004AB2 47F0 A10A            04B54 38904  3 5557.                    B     SSYMEXIT                Then return to the caller
 004AB6                            38905  2 5558.                  END
 004AB6 5830 3004            00004 38909  2 5559.                  L     RB,SSBNEXT              Otherwize continue
 004ABA 47F0 A04C            04A96 38910  1 5560.                END
 004ABE 5820 2004            00004 38915  1 5561.                L     RA,SSABNEXT             Point at the next access block
 004AC2 47F0 A03E            04A88 38916    5562.              END
 DROP   SSAB,R2
                                   38926    5563.
                                   38927    5564.                If we haven't found it yet, then we go through the valid
                                   38928    5565.                SPB's.  This may mean that some SPB's get searched twice.
                                   38929    5566.                The overhead should be minimal, since normally symbols will
                                   38930    5567.                all come from one or two SPB's which have already been
                                   38931    5568.                referenced. If we find it at this point, we must also insert
                                   38932    5569.                an SSAB pointer to the SPB.
                                   38933    5570.
 004AC6 5850 4004            00004 38934    5571.              L     RK,CTSPBS               First SPB in the system
 004ACA 1255/4780 A104       04B4E 38935    5572.              WHILE (RK,NZ),BEGIN           Loop through them
 004AD0 9110 5045      00045       38951  1 5573.                IF    ~SPBFCORPSE,BEGIN       Don't look at dead things
 004AD4 4710 A0FC            04B46 38961  1          +
 004AD8 5830 5058            00058 38966  2 5574.                  L     RB,SPBSSB               Head of the symbol list
 004ADC 1233/4780 A0FC       04B46 38967  2 5575.                  WHILE (RB,NZ),BEGIN           Loop through the symbols
 004AE2                            38983  3 5576.                    IF    (SSBNAME,EQ,@SSNAME),BEGIN
 004AE2 D5C7 3010 C048 00010 00000 38994  3          +
 004AE8 4770 A0F4            04B3E 38995  3          +
 004AEC D203 C110 3008 000C8 00008 39000  4 5577.                      MVC   @SSWORD,SSBWORD         Copy the symbol value
 004AF2                            39001  4 5578.                      CLEAR @SSRV                   Signal a good return
 004AF2 D703 C114 C114 000CC 000CC 39007  4          +
                                   39008  4 5579.
                                   39009  4 5580.                        Allocate an SSAB and add it to the queue from the SCB
                                   39010  4 5581.
 DROP   @LOCKS-72,R13              39011  4 5582.                      VMGET L'SSAB,LOC=LOCSYS       Get memory for it
 USING  @VMGET-72,R13
 004AF8 D70A D048 D048 00000 00000 39038  4          +
 004AFE 4100 000C            0000C 39050  4          +
 004B02 5000 D048            00000 39055  4          +
 004B06 D201 D050 ADA2 00008 057EC 39056  4          +
 004B0C 58F0 ACFE/0DEF       05748 39059  4          +
 004B12 1200/4780 A104       04B4E 39061  4 5583.                      IF    (RVR,Z),SSYMNF          No memory, don't give symbol
 004B18 1820                       39078  4 5584.                      LR    RA,RVR                  Get the address of the block
 USING  SSAB,R2                    39079  4 5585.                      WITH  (SSAB,RA)
 004B1A D203 2000 AD02 00000 0574C 39092  4 5586.                      MVC   SSABID,=C'SSAB'         Move in the ID
 004B20 D203 2004 728C 00004 0028C 39093  4 5587.                      MVC   SSABNEXT,SCBSSAB        copy the head of the list
 004B26 5020 728C            0028C 39094  4 5588.                      ST    RA,SCBSSAB              Add it at the head
 004B2A 5050 2008            00008 39095  4 5589.                      ST    RK,SSABSPB              Put the SPB pointer here
 004B2E 4110 0001            00001 39096  4 5590.                      INCR  RS,SPBNREF              Update the reference count
 004B32 5E10 505C            0005C 39100  4          +
 004B36 5010 505C            0005C 39101  4          +
 004B3A 47F0 A10A            04B54 39102  4 5591.                      B     SSYMEXIT                Then return to the caller
 DROP   SSAB,R2                    39103  3 5592.                    END
 004B3E 5830 3004            00004 39112  3 5593.                    L     RB,SSBNEXT              Otherwize continue
 004B42 47F0 A092            04ADC 39113  2 5594.                  END
 004B46                            39118  1 5595.                END
 004B46 5850 5004            00004 39122  1 5596.                L     RK,SPBNEXT              Point at the next SPB
1M1SERV   (M1SE00) (09:42) (22MAR04) ORVYL'S Mode 1 Sense SVC                                                               Page  271
0Current Usings:  (PZERO,R0) (SSB,R3) (M1CT,R4) (SPB,R5) (SCP,R7) (GETSSYM,R10) (@SSWA-72,R12) (@VMGET-72,R13)
0Loc    Object Code    Addr1 Addr2  Stmt Lv Lineno    Source Statement           (Hibal 5, Asmedit 3.3)  HLASM R4.0  2004/03/22 09.42
+___    ______ ____    _____ _____  ____ __ ______    ______ _________
0004B4A 47F0 A080            04ACA 39123    5597.              END
                                   39128    5598.
 004B4E D203 C114 ACF6 000CC 05740 39129    5599.     SSYMNF   MVC   @SSRV,=F'4'         Symbol not found
 DROP   @VMGET-72,R13              39130    5600.     SSYMEXIT LKREL CTSPBCLK            Release queue lock
 USING  @LOCKS-72,R13
 004B54 D203 D048 4008 00000 00008 39150             +
 004B5A 58F0 AD06/0DEF       05750 39153             +
 004B60 5800 C114            000CC 39155    5601.              L     RVR,@SSRV           Pick up return value
 004B64 981F C008            00008 39156    5602.              PEND
 DROP   SSB,R3
 DROP   SPB,R5
 DROP   M1CT,R4
 DROP   SCP,R7
 DROP   @SSWA-72,R12
 DROP   GETSSYM,R10
 004B68 9680 C000/0B0E 00000       39191             +
 DROP   @LOCKS-72,R13
1M1SERV   (M1SE00) (09:42) (22MAR04) ORVYL'S Mode 1 Sense SVC                                                               Page  272
0Current Usings:  (PZERO,R0)
0Loc    Object Code    Addr1 Addr2  Stmt Lv Lineno    Source Statement           (Hibal 5, Asmedit 3.3)  HLASM R4.0  2004/03/22 09.42
+___    ______ ____    _____ _____  ____ __ ______    ______ _________
0                                  39201    5604.
                                   39202    5605.             PURSPB -- This routine purges the program described in the
                                   39203    5606.                       SPB passed if possible.  It frees the memory and
                                   39204    5607.                       returns the SPB to its initial state, removing
                                   39205    5608.                       any shared symbols the program defined.  This may
                                   39206    5609.                       only be done if all the following conditions are
                                   39207    5610.                       met:
                                   39208    5611.
                                   39209    5612.                       1) The program is either purgeable or is a
                                   39210    5613.                          corpse.
                                   39211    5614.
                                   39212    5615.                       2) There are no current users of the program
                                   39213    5616.
                                   39214    5617.
                                   39215    5618.                       3) There are no users referring to shared symbols
                                   39216    5619.                          of the program.
                                   39217    5620.
                                   39218    5621.                       4) The program had not already been purged.
                                   39219    5622.
                                   39220    5623.                   On Entry:
                                   39221    5624.                       R1 -- Address of the SPB
                                   39222    5625.

0004B6E                            39223    5626.     PURSPB   PROC
 004B6E D7E4D9E2D7C24040           39230             +
 004B76 0000/0000                  39231             +
 004B7A 900F D004/18AF       00004 39233             +
 USING  PURSPB,R10
 004B80 50D0 C000/18CD       00000 39248             +
 004B86 9680 C000      00000       39250             +
 004B8A 41D0 C048            00048 39251             +
 004B8E 1841                       39252    5627.              LR    RJ,R1                   Copy the SPB address
 USING  SPB,R4                     39253    5628.              WITH  (SPB,RJ)
 004B90 9120 4045      00045       39266    5629.              IF    ~SPBFACTV,EXIT          No program loaded
 004B94 47E0 A17E            04CF8 39278             +
 004B98 9110 4044      00044       39284    5630.              IF    (~SPBFPURGABLE,AND,~SPBFCORPSE),EXIT
 004B9C 4710 A02E            04BA8 39296             +
 004BA0 9110 4045      00045       39307             +
 004BA4 47E0 A17E            04CF8 39310             +
 004BA8                            39316    5631.              IF    (SPBNU,NZ),EXIT         Some users
 004BA8 D603 4054 4054 00054 00054 39326             +
 004BAE 4770 A17E            04CF8 39329             +
 004BB2                            39335    5632.              IF    (SPBNREF,NZ),EXIT       Some references
 004BB2 D603 405C 405C 0005C 0005C 39345             +
 004BB8 4770 A17E            04CF8 39348             +
                                   39354    5633.
                                   39355    5634.                All conditions have been met
                                   39356    5635.
 004BBC 94DF 4045      00045       39357    5636.              CLEAR SPBFACTV                No longer active
1M1SERV   (M1SE00) (09:42) (22MAR04) ORVYL'S Mode 1 Sense SVC                                                               Page  273
0Current Usings:  (PZERO,R0) (SPB,R4) (PURSPB,R10)
0Loc    Object Code    Addr1 Addr2  Stmt Lv Lineno    Source Statement           (Hibal 5, Asmedit 3.3)  HLASM R4.0  2004/03/22 09.42
+___    ______ ____    _____ _____  ____ __ ______    ______ _________
0                                  39364    5637.
                                   39365    5638.                Unprotect the memory.
                                   39366    5639.
 USING  @PAGE-72,R13               39367    5640.              PSET  @PAGE
 004BC0 D708 D048 D048 00000 00000 39384             +
 004BC6                            39385    5641.              PMOV  @PAGLOC,SPBORGIN
 004BC6 D203 D048 4048 00000 00048 39389             +
 004BCC                            39390    5642.              PMOV  @PAGLEN,SPBSIZE
 004BCC D203 D04C 404C 00004 0004C 39394             +
 004BD2 58F0 ABDA/0DEF       05754 39395    5643.              VCALL PAGUPROT
                                   39399    5644.
                                   39400    5645.                Free the memory.
                                   39401    5646.
                                   39402    5647.     *         IF    SPBFLHI,BEGIN
 004BD8 9500 4048      00048       39403    5648.              IF    ('CLI SPBORGIN,0',NE),BEGIN
 004BDC 4780 A084            04BFE 39411             +
 DROP   @PAGE-72,R13               39416  1 5649.             VMFREE L:SPBSIZE,A=SPBORGIN,LOC=GLOBHI,TYPE=PROG,KEY=USER,FETP=NO
 USING  @VMFREE-72,R13
 004BE0 D709 D048 D048 00000 00000 39443  1          +
 004BE6 D203 D04C 404C 00004 0004C 39448  1          +
 004BEC D203 D048 4048 00000 00048 39453  1          +
 004BF2 D201 D050 AC74 00008 057EE 39454  1          +
 004BF8 58F0 ABDE/0DEF       05758 39457  1          +
 004BFE                            39459    5650.              END   ,
 004BFE A088           04BFE 04BDE 39463    5651.              ELSE  BEGIN
 004BFE 47F0 A0A6            04C20 39468             +
 004C02                            39474  1 5652.                VMFREE L:SPBSIZE,A=SPBORGIN,LOC=GLOBLO,TYPE=PROG,KEY=USER
 004C02 D709 D048 D048 00000 00000 39491  1          +
 004C08 D203 D04C 404C 00004 0004C 39496  1          +
 004C0E D203 D048 4048 00000 00048 39501  1          +
 004C14 D201 D050 AC76 00008 057F0 39502  1          +
 004C1A 58F0 ABDE/0DEF       05758 39505  1          +
 004C20                            39507    5653.              END   ,
 004C20 94BF 4045      00045       39511    5654.              CLEAR SPBFMEM
 004C24                            39518    5655.              CLEAR SPBORGIN
 004C24 D703 4048 4048 00048 00048 39524             +
                                   39525    5656.
                                   39526    5657.                Remove any shared symbols
                                   39527    5658.
 004C2A 5820 4058            00058 39528    5659.              L     RA,SPBSSB               Address of first one
 004C2E 1222/4780 A128       04CA2 39529    5660.              WHILE (RA,NZ),BEGIN
 004C34 1832                       39545  1 5661.                LR    RB,RA                   Point at the new SSB
 USING  SSB,R3                     39546  1 5662.                WITH  (SSB,RB)
 004C36                            39559  1 5663.                FAIL  (SSB,NE,'SSB'),DELSSBQ
 004C36 D502 AC7E 3000 057F8 00000 39571  1          +
 004C3C 4780 A0F6            04C70 39572  1          +
 004C40 AC04 021B      0021B       39580  2          +
 004C44 9680 021A      0021A       39586  2          +
 004C48 50F0 021C            0021C 39587  2          +
 004C4C 58F0 0210            00210 39588  2          +
 004C50 89F0 0010            00010 39589  2          +
 004C54 88F0 0010            00010 39590  2          +
 004C58 41F0 F000            00000 39591  2          +
 004C5C AEFF 0006            00006 39592  2          +
1M1SERV   (M1SE00) (09:42) (22MAR04) ORVYL'S Mode 1 Sense SVC                                                               Page  274
0Current Usings:  (PZERO,R0) (SSB,R3) (SPB,R4) (PURSPB,R10) (@VMFREE-72,R13)
0Loc    Object Code    Addr1 Addr2  Stmt Lv Lineno    Source Statement           (Hibal 5, Asmedit 3.3)  HLASM R4.0  2004/03/22 09.42
+___    ______ ____    _____ _____  ____ __ ______    ______ _________
0004C60 C4C5D3E2E2C2D840           39593  1          +
 004C70 5820 3004            00004 39598  1 5664.                L     RA,SSBNEXT              Dequeue this entry
 004C74 D203 3000 AC81 00000 057FB 39599  1 5665.                MVC   SSB(4),=C'ssb'          Change the ID
 004C7A D203 3004 ABE2 00004 0575C 39600  1 5666.                MVC   SSBNEXT,=F'-1'          Zap link ptr
                                   39601  1 5667.     *         VMFREE L'SSB,A=LA:SSB,LOC=GLOBLO,TYPE=DATA
 004C80                            39602  1 5668.                VMFREE L'SSB,A=LA:SSB,LOC=GLOBHI,TYPE=PROG
 004C80 D709 D048 D048 00000 00000 39619  1          +
 004C86 4100 00D8            000D8 39631  1          +
 004C8A 5000 D04C            00004 39636  1          +
 004C8E 5030 D048            00000 39647  1          +
 004C92 D201 D050 AC78 00008 057F2 39648  1          +
 004C98 58F0 ABDE/0DEF       05758 39651  1          +
 004C9E 47F0 A0B4            04C2E 39653    5669.              END
 DROP   SSB,R3
 004CA2 5020 4058            00058 39663    5670.              ST    RA,SPBSSB               Clear the header
                                   39664    5671.
                                   39665    5672.                If the SPB is a corpse, we can go ahead and delete it now.
                                   39666    5673.
 004CA6 9110 4045      00045       39667    5674.              IF    SPBFCORPSE,BEGIN
 004CAA 47E0 A17E            04CF8 39677             +
 004CAE 5850 0200            00200 39682  1 5675.                L     RK,MATPTR               Get CT Addressability
 004CB2 5850 5010            00010 39683  1 5676.                WITH  (MAT,RK),'L  RK,MATM1CT'
 USING  MAT,R5
 DROP   MAT,R5
 USING  M1CT,R5                    39707  1 5677.                WITH  (M1CT,RK)
                                   39720  1 5678.
                                   39721  1 5679.                  Look for SPB that points at this one.
                                   39722  1 5680.
 004CB6 4120 5000            00000 39723  1 5681.                LA    RA,CTSPBS-(SPBNEXT-SPB)
 004CBA                            39724  1 5682.                LOOP  BEGIN
 DROP   SPB,R4                     39730  2 5683.                  WITH  (SPB,RA)
 USING  SPB,R2
 004CBA                            39751  2 5684.                  IF    (SPBNEXT,ZERO),SPBBADDET
 004CBA D603 2004 2004 00004 00004 39761  2          +
 004CC0 4780 A188            04D02 39764  2          +
 004CC4 5830 2004            00004 39770  2 5685.                  L     RB,SPBNEXT
 004CC8 1934/4780 A15A       04CD4 39771  2 5686.                  IF    (RB,EQ,RJ),EXIT
 004CCE 1823                       39789  2 5687.                  LR    RA,RB                   Link to next SPB
 004CD0 47F0 A140            04CBA 39790  1 5688.                END
 USING  SPB,R4
 DROP   SPB,R2
                                   39809  1 5689.
                                   39810  1 5690.                  Delete this SPB from the chain.
                                   39811  1 5691.
 USING  PREV.SPB,R2                39812  1 5692.                WITH  (SPB,RA),LABEL=PREV
 004CD4                            39820  1 5693.                PMOV  PREV.SPBNEXT,SPBNEXT    Take out of list
 004CD4 D203 2004 4004 00004 00004 39824  1          +
                                   39825  1 5694.
                                   39826  1 5695.                  Free this SPBs memory.
                                   39827  1 5696.
                                   39828  1 5697.     *         VMFREE L'SPB,A=LA:SPB,LOC=GLOBLO,TYPE=DATA
 004CDA                            39829  1 5698.                VMFREE L'SPB,A=LA:SPB,LOC=GLOBHI,TYPE=PROG
 004CDA D709 D048 D048 00000 00000 39846  1          +
 004CE0 4100 0072            00072 39858  1          +
1M1SERV   (M1SE00) (09:42) (22MAR04) ORVYL'S Mode 1 Sense SVC                                                               Page  275
0Current Usings:  (PZERO,R0) (PREV.SPB,R2) (SPB,R4) (M1CT,R5) (PURSPB,R10) (@VMFREE-72,R13)
0Loc    Object Code    Addr1 Addr2  Stmt Lv Lineno    Source Statement           (Hibal 5, Asmedit 3.3)  HLASM R4.0  2004/03/22 09.42
+___    ______ ____    _____ _____  ____ __ ______    ______ _________
0004CE4 5000 D04C            00004 39863  1          +
 004CE8 5040 D048            00000 39874  1          +
 004CEC D201 D050 AC78 00008 057F2 39875  1          +
 004CF2 58F0 ABDE/0DEF       05758 39878  1          +
 DROP   PREV.SPB,R2                39880    5699.              END
 DROP   M1CT,R5
 004CF8 981F C008            00008 39897    5700.              PEND
 DROP   SPB,R4
 DROP   PURSPB,R10
 004CFC 9680 C000/0B0E 00000       39912             +
 DROP   @VMFREE-72,R13
                                   39921    5701.
 004D02 AC04 021B      0021B       39922    5702.     SPBBADDET ABORT SPBBADDET              Bad detatch
 004D06 9680 021A      0021A       39932             +
 004D0A 50F0 021C            0021C 39933             +
 004D0E 58F0 0210            00210 39934             +
 004D12 89F0 0010            00010 39935             +
 004D16 88F0 0010            00010 39936             +
 004D1A 41F0 F000            00000 39937             +
 004D1E AEFF 0006            00006 39938             +
 004D22 E2D7C2C2C1C4C4C5           39939             +
1M1SERV   (M1SE00) (09:42) (22MAR04) ORVYL'S Mode 1 Set SVC                                                                 Page  276
0Current Usings:  (PZERO,R0)
0Loc    Object Code    Addr1 Addr2  Stmt Lv Lineno    Source Statement           (Hibal 5, Asmedit 3.3)  HLASM R4.0  2004/03/22 09.42
+___    ______ ____    _____ _____  ____ __ ______    ______ _________
0                                  39941    5704.     *******************************************************************
                                   39942    5705.     *                                                                 *
                                   39943    5706.     *    SETCLK - Work area for clock setting SET SVC's               *
                                   39944    5707.     *                                                                 *
                                   39945    5708.     *******************************************************************
0000000                00000 00008 39947    5710.     SETCLK   RECORD BEGIN
 000000                            39955  1 5711.     SWCLOCK    DS    D                       CLOCK WORK AREA
 000008                00008 00008 39956    5712.              END   ,
-
                                   39966    5714.     *******************************************************************
                                   39967    5715.     *                                                                 *
                                   39968    5716.     *    SET SVC Branch Table                                         *
                                   39969    5717.     *                                                                 *
                                   39970    5718.     *******************************************************************
00057FE                057FE 07A90 39972    5720.              DATA  BEGIN
 0057FE 0000                              1
 005800 00004DDE                   39977  1 5721.     SETBR      DC    A(SET0)           0     SET KEEP
 005804 00004DDE                   39978  1 5722.                DC    A(SET0)           1     DISCARD
 005808 00004DDE                   39979  1 5723.                DC    A(SET0)           2     SET HOLD
 00580C 00004EBA                   39980  1 5724.                DC    A(SET3)           3     REAL INTERVAL
 005810 00004F8E                   39981  1 5725.                DC    A(SET4)           4     COMPUTE INTERVAL
 005814 0000505E                   39982  1 5726.                DC    A(SET5)           5     TIMER EXIT
 005818 0000505E                   39983  1 5727.                DC    A(SET5)           6     SVC EXIT
 00581C 0000505E                   39984  1 5728.                DC    A(SET5)           7     PANIC EXIT
 005820 000050C0                   39985  1 5729.                DC    A(SET8)           8     ATTN EXIT
 005824 000050C0                   39986  1 5730.                DC    A(SET8)           9     WAIT EXIT
 005828 00005150                   39987  1 5731.                DC    A(SET10)         10     LOAD FROM AREA
 00582C 0000524E                   39988  1 5732.                DC    A(SET11)         11     MASK BYTE
 005830 0000529A                   39989  1 5733.                DC    A(SET12)         12     PRIORITY
 005834 000052EA                   39990  1 5734.                DC    A(SET13)         13     SET COMMON WORK AREA
 005838 000053C8                   39991  1 5735.                DC    A(SET14)         14     ALLOCATE USER WORK SPACE
 00583C 000054E4                   39992  1 5736.                DC    A(SET15)         15     RELEASE USER WORK SPACE
 005840 0000565E                   39993  1 5737.                DC    A(SET16)         16     ALLOCATE WORK SPACE AT ADDRESS
 005844 000058C4                   39994  1 5738.                DC    A(SET17)         17     SET PER CR 9-11
 005848 000059D2                   39995  1 5739.                DC    A(SET18)         18     SET MONITOR CR 8
 00584C 00005ACA                   39996  1 5740.                DC    A(SET19)         19     SET PROTECT
 005850 00005C72                   39997  1 5741.                DC    A(SET20)         20     SET UNPROTECT
 005854 00005DE6                   39998  1 5742.                DC    A(SET21)         21     ENQUEUE
 005858 0000601E                   39999  1 5743.                DC    A(SET22)         22     DEQUEUE
 00585C 00006234                   40000  1 5744.                DC    A(SET23)         23     SET TRASH BYTE
 005860 00006288                   40001  1 5745.                DC    A(SET24)         24     SET THE PROGRAM NAME
 005864 00004DAC                   40002  1 5746.                DC    A(SETUNDEF)      25     (Unused)
 005868 00004DAC                   40003  1 5747.                DC    A(SETUNDEF)      26     (Unused)
 00586C 00004DAC                   40004  1 5748.                DC    A(SETUNDEF)      27     (Unused)
 005870 00004DAC                   40005  1 5749.                DC    A(SETUNDEF)      28     (Unused)
 005874 0000635E                   40006  1 5750.                DC    A(SET29)         29     Suspend
 005878 000063B2                   40007  1 5751.                DC    A(SET30)         30     Define new symbol entry
 00587C 00006572                   40008  1 5752.                DC    A(SET31)         31     Delete existing symbol entry
                                   40009  1 5753.     MAXPSET    EQU   (*-SETBR)/4-1           MAXIMUM PUBLIC SET
                                   40010  1 5754.     HSETBASE   EQU   150                     START OF "HIDDEN" SETS
1M1SERV   (M1SE00) (09:42) (22MAR04) ORVYL'S Mode 1 Set SVC                                                                 Page  277
0Current Usings:  (PZERO,R0)
0Loc    Object Code    Addr1 Addr2  Stmt Lv Lineno    Source Statement           (Hibal 5, Asmedit 3.3)  HLASM R4.0  2004/03/22 09.42
+___    ______ ____    _____ _____  ____ __ ______    ______ _________
0005880 0000663A                   40011  1 5755.                DC    A(SET150)       150     TURN OFF PSEUDO USER
 005884 00006670                   40012  1 5756.                DC    A(SET151)       151     SET NO MULTIPLE ATTENTIONS
 005888 000066B2                   40013  1 5757.                DC    A(SET152)       152     SET CLP CPU TIMER
 00588C 0000679A                   40014  1 5758.                DC    A(SET153)       153     SET CLP REAL TIMER
 005890 00006882                   40015  1 5759.                DC    A(SET154)       154     WRITE AN SMF RECORD
 005894 00006928                   40016  1 5760.                DC    A(SET155)       155     SET PSW KEY MASK
                                   40017  1 5761.     MAXSET     EQU   (*-SETBR)/4-1
 004D32                04A3E 07A90 40018    5762.              END
1M1SERV   (M1SE00) (09:42) (22MAR04) ORVYL'S Mode 1 Set SVC                                                                 Page  278
0Current Usings:  (PZERO,R0)
0Loc    Object Code    Addr1 Addr2  Stmt Lv Lineno    Source Statement           (Hibal 5, Asmedit 3.3)  HLASM R4.0  2004/03/22 09.42
+___    ______ ____    _____ _____  ____ __ ______    ______ _________
0                                  40025    5764.     *******************************************************************
                                   40026    5765.     *                                                                 *
                                   40027    5766.     *    SET  - Mode 1 SET SVC                                        *
                                   40028    5767.     *                                                                 *
                                   40029    5768.     *                                                                 *
                                   40030    5769.     *     Input - RY Points to SCP                                    *
                                   40031    5770.     *                                                                 *
                                   40032    5771.     *    Output -                                                     *
                                   40033    5772.     *                                                                 *
                                   40034    5773.     *                                                                 *
                                   40035    5774.     *******************************************************************
-
 004D32                            40037    5776.     SET      PROC  ,SCOPE=LOCAL
 004D32 E2C5E34040404040           40044             +
 004D3A 0000/0000                  40045             +
 004D3E 900F D004/18AF       00004 40047             +
 USING  SET,R10
 004D44 50D0 C000/18CD       00000 40062             +
 004D4A 9680 C000      00000       40064             +
 004D4E 41D0 C048            00048 40065             +
 USING  SCP,R7                     40066    5777.              WITH  (SCP,RY)
                                   40079    5778.     *
                                   40080    5779.     *  ISSUE TRACE
                                   40081    5780.     *
 004D52 98EF 7048            00048 40082    5781.              LM    R14,R15,SCPGPRS+14*4    GET REGS
 004D56 9801 7010            00010 40083    5782.              LM    R0,R1,SCPGPRS+0*4
 004D5A 9823 0208            00208 40084    5783.              LM    RA,RB,PZCURPID          GET CURRENT PROCESS ID
 004D5E 99E3 AB5A            05898 40085    5784.              XTRC  R14,RB,M1SET
 005898 00005898                   40093  1          +
 00589C 00000389/0E03              40094  1          +
 0058A2 D4F1E2C5E3404040           40096             +
 004D62 5820 7010            00010 40103    5785.              L     RA,SCPGPRS+0*4          SET CODE
 004D66 5920 AA22            05760 40104    5786.              IF    (RA,GT,=A(MAXPSET)),'S  RA,=A(HSETBASE-MAXPSET-1)'
 004D6A 47D0 A034            04D72 40115             +
 004D6E 5B20 AA26            05764 40121             +
                                   40126    5787.     *
                                   40127    5788.     *  Validate Set number then call appropriate routine
                                   40128    5789.     *
 004D72 1222/4740 A042       04D80 40129    5790.              IF    ((RA,M),OR,(RA,GT,=A(MAXSET))),BEGIN
 004D78 5920 AA2A            05768 40152             +
 004D7C 47D0 A04A            04D88 40153             +
 004D80 9206 71A9      001A9       40158  1 5791.                MVI   SCPPANSY,PANSPEC        SET CODE FOR SPEC
 004D84 9610 7265      00265       40159  1 5792.                SET   SCBXP                   MARK USER FOR PANIC
 004D88                            40165    5793.              END   ,
 004D88 A04E           04D88 04D7E 40169    5794.              ELSE  BEGIN
 004D88 47F0 A058            04D96 40174             +
 004D8C 8920 0002            00002 40180  1 5795.                SLL   RA,2
 004D90 58F2 AAC2/0DEF       05800 40181  1 5796.                ACALL SETBR(RA)           Call appropriate SET routine
 004D96                            40188    5797.              END   ,
 004D96 981F C008            00008 40192    5798.              PEND
 DROP   SCP,R7
 DROP   SET,R10
1M1SERV   (M1SE00) (09:42) (22MAR04) ORVYL'S Mode 1 Set SVC                                                                 Page  279
0Current Usings:  (PZERO,R0)
0Loc    Object Code    Addr1 Addr2  Stmt Lv Lineno    Source Statement           (Hibal 5, Asmedit 3.3)  HLASM R4.0  2004/03/22 09.42
+___    ______ ____    _____ _____  ____ __ ______    ______ _________
0004D9A 9680 C000/0B0E 00000       40207             +
                                   40213    5799.
                                   40214    5800.
                                   40215    5801.       Undefined SET code, generate SPEC error.
                                   40216    5802.

0004DA0                            40217    5803.     SETUNDEF PROC  SCOPE=LOCAL
 004DA0 E2C5E3E4D5C4C5C6           40224             +
 004DA8 0000/0000                  40225             +
 004DAC 900F D004/18AF       00004 40227             +
 USING  SETUNDEF,R10
 004DB2 50D0 C000/18CD       00000 40242             +
 004DB8 9680 C000      00000       40244             +
 004DBC 41D0 C048            00048 40245             +
 USING  SCP,R7                     40246    5804.              WITH  (SCP,RY)
 004DC0 9206 71A9      001A9       40259    5805.              MVI   SCPPANSY,PANSPEC        SET CODE FOR SPEC
 004DC4 9610 7265      00265       40260    5806.              SET   SCBXP                   MARK USER FOR PANIC
 004DC8 981F C008            00008 40266    5807.              PEND
 DROP   SCP,R7
 DROP   SETUNDEF,R10
 004DCC 9680 C000/0B0E 00000       40281             +
1M1SERV   (M1SE00) (09:42) (22MAR04) ORVYL'S Mode 1 Set SVC                                                                 Page  280
0Current Usings:  (PZERO,R0)
0Loc    Object Code    Addr1 Addr2  Stmt Lv Lineno    Source Statement           (Hibal 5, Asmedit 3.3)  HLASM R4.0  2004/03/22 09.42
+___    ______ ____    _____ _____  ____ __ ______    ______ _________
0                                  40288    5809.     *******************************************************************
                                   40289    5810.     *                                                                 *
                                   40290    5811.     *    SET0 (1 and 2) - Simulate keep, discard, and hold            *
                                   40291    5812.     *                                                                 *
                                   40292    5813.     *                                                                 *
                                   40293    5814.     *     Input - RY Points to SCP                                    *
                                   40294    5815.     *                                                                 *
                                   40295    5816.     *    Output -                                                     *
                                   40296    5817.     *                                                                 *
                                   40297    5818.     *                                                                 *
                                   40298    5819.     *******************************************************************
-
 004DD2                            40300    5821.     SET0     PROC  ,SETCLK,SCOPE=LOCAL
 004DD2 E2C5E3F040404040           40307             +
 004DDA 0000/0008                  40308             +
 004DDE 900F D004/18AF       00004 40310             +
 USING  SET0,R10
 004DE4 50D0 C000/18CD       00000 40325             +
 004DEA 9680 C000      00000       40327             +
 USING  SETCLK-72,R12
 004DEE 41D0 C050            00050 40341             +
 USING  SCP,R7                     40342    5822.              WITH  (SCP,RY)
                                   40355    5823.     *
                                   40356    5824.     *  KEEP, DISCARD, AND HOLD ARE NO LONGER USED, HOWEVER THE
                                   40357    5825.     *    PARAMETERS ARE VALIDATED TO MAKE IT APPEAR CONSISTENT
                                   40358    5826.     *
 004DF2 5820 7014            00014 40359    5827.              L     RA,SCPGPRS+1*4          STARTING ADDRESS
 004DF6 9180 700C      0000C       40360    5828.              TM    SCPPSW+4,X'80'      31 bit mode?
 004DFA 4770 A024            04E02 40361    5829.              IF    Z,'N RA,=X"00FFFFFF"'
 004DFE 5420 A98E            0576C 40373             +
 004E02 5920 71F4            001F4 40378    5830.              IF    (RA,LT,SCPRRSEG),BEGIN     INVALID
 004E06 47B0 A038            04E16 40390             +
 004E0A 9206 71A9      001A9       40395  1 5831.                MVI   SCPPANSY,PANSPEC        SET CODE FOR SPEC
 004E0E 9610 7265      00265       40396  1 5832.                SET   SCBXP                   MARK USER FOR PANIC
 004E12 47F0 A0C6            04EA4 40402  1 5833.                EXIT  SET0
 004E16                            40405    5834.              END   ,
                                   40409    5835.     *
                                   40410    5836.     *  ROUND UP LENGTH TO 4K INCREMENT
                                   40411    5837.     *
 004E16 5830 704C            0004C 40412    5838.              L     RB,SCPGPRS+15*4         LENGTH
 004E1A 1233/4770 A04C       04E2A 40413    5839.              IF    (RB,Z),BEGIN
 004E20 D203 704C A992 0004C 05770 40427  1 5840.                MVC   SCPGPRS+15*4,=A(0)      NULL REQUEST
 004E26 47F0 A0C6            04EA4 40428  1 5841.                EXIT  SET0
 004E2A                            40431    5842.              END   ,
 004E2A 47B0 A05A            04E38 40435    5843.              IF    M,BEGIN
 004E2E D203 704C A996 0004C 05774 40446  1 5844.                MVC   SCPGPRS+15*4,=A(4)      INVALID REQUEST
 004E34 47F0 A0C6            04EA4 40447  1 5845.                EXIT  SET0
 004E38                            40450    5846.              END   ,
 004E38 4130 3FFF            00FFF 40454    5847.              LA    RB,@RB+4095             ROUND UP
 004E3C 5430 A99A            05778 40455    5848.              N     RB,=X'00FFF000'          TO PAGE LENGTH
                                   40456    5849.     *
                                   40457    5850.     *  IF KEEP SET MAXIMUM AMOUNT
1M1SERV   (M1SE00) (09:42) (22MAR04) ORVYL'S Mode 1 Set SVC                                                                 Page  281
0Current Usings:  (PZERO,R0) (SCP,R7) (SET0,R10) (SETCLK-72,R12)
0Loc    Object Code    Addr1 Addr2  Stmt Lv Lineno    Source Statement           (Hibal 5, Asmedit 3.3)  HLASM R4.0  2004/03/22 09.42
+___    ______ ____    _____ _____  ____ __ ______    ______ _________
0                                  40458    5851.     *
 004E40 5850 7010            00010 40459    5852.              L     RK,SCPGPRS+0*4          GET SET CODE
 004E44 1255/4770 A078       04E56 40460    5853.              IF    (RK,Z),'CEIL  RB,=A(16*1024)'    16K MAXIMUM FOR KEEP
 004E4A 5930 A99E            0577C 40477  1          +
 004E4E 47D0 A078            04E56 40478  1          +
 004E52 5830 A99E            0577C 40479             +
                                   40484    5854.     *
                                   40485    5855.     *  CHECK THAT MEMORY HAS BEEN ALLOCATED
                                   40486    5856.     *
 USING  @VMFREE-72,R13             40487    5857.              VMCHK (RB),A=(RA),LOC=LOCUSR    CHECK VALIDITY
 004E56 D709 D048 D048 00000 00000 40511             +
 004E5C 5030 D04C            00004 40521             +
 004E60 5020 D048            00000 40531             +
 004E64 D201 D050 AA16 00008 057F4 40532             +
 004E6A 58F0 A9A2/0DEF       05780 40535             +
 004E70 1200/4780 A0A4       04E82 40537    5858.              IF    (RVR,NZ),BEGIN          INVALID ADDRESS
 004E76 9206 71A9      001A9       40551  1 5859.                MVI   SCPPANSY,PANSPEC        SET CODE FOR SPEC
 004E7A 9610 7265      00265       40552  1 5860.                SET   SCBXP                   MARK USER FOR PANIC
 004E7E 47F0 A0C6            04EA4 40558  1 5861.                EXIT  SET0
 004E82                            40561    5862.              END   ,
                                   40565    5863.     *
                                   40566    5864.     *  IF DISCARD - INITIALIZE THE AREA
                                   40567    5865.     *
 004E82 5950 A9A6            05784 40568    5866.              IF    (RK,EQ,1),BEGIN
 004E86 4770 A0C0            04E9E 40580             +
 DROP   @VMFREE-72,R13             40585  1 5867.                PSET  @PAGE
 USING  @PAGE-72,R13
 004E8A D708 D048 D048 00000 00000 40605  1          +
 004E90 5020 D048            00000 40606  1 5868.                PMOV  @PAGLOC,(RA)            Un-reference pages
 004E94 5030 D04C            00004 40616  1 5869.                PMOV  @PAGLEN,(RB)
 004E98 58F0 A9AA/0DEF       05788 40626  1 5870.                VCALL PAGUREF
                                   40630  1 5871.     *        LCM   R15,B'1000',SCPTRASH    TRASH BYTE
                                   40631  1 5872.     *        MVCL  RA,R14                  INITIALIZE THE PAGES
 004E9E                            40632    5873.              END   ,
 004E9E D203 704C A992 0004C 05770 40636    5874.              MVC   SCPGPRS+15*4,=A(0)      ALL'S WELL
 004EA4 981F C008            00008 40637    5875.              PEND
 DROP   SCP,R7
 DROP   SETCLK-72,R12
 DROP   SET0,R10
 004EA8 9680 C000/0B0E 00000       40657             +
 DROP   @PAGE-72,R13
1M1SERV   (M1SE00) (09:42) (22MAR04) ORVYL'S Mode 1 Set SVC                                                                 Page  282
0Current Usings:  (PZERO,R0)
0Loc    Object Code    Addr1 Addr2  Stmt Lv Lineno    Source Statement           (Hibal 5, Asmedit 3.3)  HLASM R4.0  2004/03/22 09.42
+___    ______ ____    _____ _____  ____ __ ______    ______ _________
0                                  40667    5877.     *******************************************************************
                                   40668    5878.     *                                                                 *
                                   40669    5879.     *    SET 3 - Set user real time (interval) timer                  *
                                   40670    5880.     *                                                                 *
                                   40671    5881.     *                                                                 *
                                   40672    5882.     *     Input - RY Points to SCP                                    *
                                   40673    5883.     *                                                                 *
                                   40674    5884.     *    Output -                                                     *
                                   40675    5885.     *                                                                 *
                                   40676    5886.     *                                                                 *
                                   40677    5887.     *******************************************************************
-
 004EAE                            40679    5889.     SET3     PROC  ,SETCLK,SCOPE=LOCAL
 004EAE E2C5E3F340404040           40686             +
 004EB6 0000/0008                  40687             +
 004EBA 900F D004/18AF       00004 40689             +
 USING  SET3,R10
 004EC0 50D0 C000/18CD       00000 40704             +
 004EC6 9680 C000      00000       40706             +
 USING  SETCLK-72,R12
 004ECA 41D0 C050            00050 40720             +
 USING  SCP,R7                     40721    5890.              WITH  (SCP,RY)
 004ECE 947F 7265      00265       40734    5891.              CLEAR SCBXT                   CANCEL PENDING EXIT
 004ED2 1B44                       40741    5892.              CLEAR RJ                      PREVIOUS INTERVAL
                                   40745    5893.     *
                                   40746    5894.     *  A TIMER IS NOW RUNNING SO CANCEL IT
                                   40747    5895.     *
 004ED4 9180 7263      00263       40748    5896.              IF    SCBTUTR,BEGIN           A TIMER NOW RUNNING
 004ED8 47E0 A074            04F2E 40758             +
                                   40763  1 5897.     *
                                   40764  1 5898.     *  CPU TIMER IS RUNNING
                                   40765  1 5899.     *
 004EDC 9140 7263      00263       40766  1 5900.                IF    SCBTUCT,BEGIN           CURRENT TIMER IS CPU TIME
 004EE0 47E0 A040            04EFA 40776  1          +
 USING  @CPCNCK-72,R13             40781  2 5901.                  PSET  @CPCNCK
 004EE4 D71F D048 D048 00000 00000 40798  2          +
 004EEA D203 D048 71C8 00000 001C8 40799  2 5902.                  MVC   @CPCID,SCPUCLK           CLOCK ID
 004EF0 58F0 A8D2/0DEF       0578C 40800  2 5903.                  VCALL CPCAN                   CAN IT
 004EF6 6800 D050            00008 40804  2 5904.                  LD    R0,@CPCCLK              PREVIOUS INTERVAL
 004EFA                            40805  1 5905.                END   ,
                                   40809  1 5906.     *
                                   40810  1 5907.     *  REAL TIMER IS RUNNING
                                   40811  1 5908.     *
 004EFA A044           04EFA 04EE2 40812  1 5909.                ELSE  BEGIN                   CURRENT TIMER IS REAL TIME
 004EFA 47F0 A05A            04F14 40817  1          +
 DROP   @CPCNCK-72,R13             40823  2 5910.                  PSET  @RTCNCK
 USING  @RTCNCK-72,R13
 004EFE D71F D048 D048 00000 00000 40843  2          +
 004F04 D203 D048 71C8 00000 001C8 40844  2 5911.                  MVC   @RTCID,SCPUCLK          CLOCK ID
 004F0A 58F0 A8D6/0DEF       05790 40845  2 5912.                  VCALL RTCAN                   CAN IT
 004F10 6800 D050            00008 40849  2 5913.                  LD    R0,@RTCCLK              PREVIOUS INTERVAL
 004F14                            40850  1 5914.                END   ,
1M1SERV   (M1SE00) (09:42) (22MAR04) ORVYL'S Mode 1 Set SVC                                                                 Page  283
0Current Usings:  (PZERO,R0) (SCP,R7) (SET3,R10) (SETCLK-72,R12) (@RTCNCK-72,R13)
0Loc    Object Code    Addr1 Addr2  Stmt Lv Lineno    Source Statement           (Hibal 5, Asmedit 3.3)  HLASM R4.0  2004/03/22 09.42
+___    ______ ____    _____ _____  ____ __ ______    ______ _________
0                                  40854  1 5915.     *
                                   40855  1 5916.     *  Convert interval and mark timer cancelled
                                   40856  1 5917.     *
 004F14 6D00 A86E            05728 40857  1 5918.                DD    R0,=FL8'106667'          TO 26 USEC UNITS
 004F18 6E00 A876            05730 40858  1 5919.                AW    R0,=XL8'4E00000000000000'
 004F1C 6000 C048            00000 40859  1 5920.                STD   R0,SWCLOCK
 004F20 5840 C04C            00004 40860  1 5921.                L     RJ,SWCLOCK+4            PREVIOUS TIMER
 004F24                            40861  1 5922.                CLEAR SCPUCLK                 NOTE
 004F24 D703 71C8 71C8 001C8 001C8 40867  1          +
 004F2A 943F 7263      00263       40868  1 5923.                CLEAR SCBTUTR+SCBTUCT          CANCELLED
 004F2E                            40878    5924.              END   ,
                                   40882    5925.     *
                                   40883    5926.     *  NOW SET NEW TIMER IF SO REQUESTED
                                   40884    5927.     *
 004F2E 5830 7014            00014 40885    5928.              L     RB,SCPGPRS+1*4          SUPPLIED TIME VALUE
 004F32 1233/4780 A0BA       04F74 40886    5929.              IF    (RB,NZ),BEGIN
 DROP   @RTCNCK-72,R13             40900  1 5930.                PSET  @RTSET
 USING  @RTSET-72,R13
 004F38 D717 D048 D048 00000 00000 40920  1          +
 004F3E D203 D048 A876 00000 05730 40921  1 5931.                MVC   @RTSCLK(4),=XL8'4E00000000000000'
 004F44 5030 D04C            00004 40922  1 5932.                ST    RB,@RTSCLK+4            NORMALIZED TIME VALUE
 004F48 6800 D048            00000 40923  1 5933.                LD    R0,@RTSCLK
 004F4C 6C00 A87E            05738 40924  1 5934.                MD    R0,=D'106667'           TO USEC UNITS
 004F50 6E00 A876            05730 40925  1 5935.                AW    R0,=XL8'4E00000000000000'
 004F54 6000 D048            00000 40926  1 5936.                STD   R0,@RTSCLK
 004F58 9200 D048      00000       40927  1 5937.                MVI   @RTSCLK,0               REMOVE EXPONENT
 004F5C 9680 D050      00008       40928  1 5938.                SET   @RTSFINT                VALUE IS AN INTERVAL
 004F60 D203 D054 71CC 0000C 001CC 40934  1 5939.                MVC   @RTSXIT,SCPUCXIT        SET EXIT ID
 004F66 58F0 A8DA/0DEF       05794 40935  1 5940.                VCALL RTSET                   START THE CLOCK
 004F6C 5000 71C8            001C8 40939  1 5941.                ST    RVR,SCPUCLK             SAVE ID
 004F70 9680 7263      00263       40940  1 5942.                SET   SCBTUTR
 004F74                            40946    5943.              END
 004F74 5040 704C            0004C 40950    5944.              ST    RJ,SCPGPRS+15*4         RETURN VALUE
 004F78 981F C008            00008 40951    5945.              PEND
 DROP   SCP,R7
 DROP   SETCLK-72,R12
 DROP   SET3,R10
 004F7C 9680 C000/0B0E 00000       40971             +
 DROP   @RTSET-72,R13
1M1SERV   (M1SE00) (09:42) (22MAR04) ORVYL'S Mode 1 Set SVC                                                                 Page  284
0Current Usings:  (PZERO,R0)
0Loc    Object Code    Addr1 Addr2  Stmt Lv Lineno    Source Statement           (Hibal 5, Asmedit 3.3)  HLASM R4.0  2004/03/22 09.42
+___    ______ ____    _____ _____  ____ __ ______    ______ _________
0                                  40981    5947.     *******************************************************************
                                   40982    5948.     *                                                                 *
                                   40983    5949.     *    SET 4 - Set user CPU time timer                              *
                                   40984    5950.     *                                                                 *
                                   40985    5951.     *                                                                 *
                                   40986    5952.     *     Input - RY Points to SCP                                    *
                                   40987    5953.     *                                                                 *
                                   40988    5954.     *    Output -                                                     *
                                   40989    5955.     *                                                                 *
                                   40990    5956.     *                                                                 *
                                   40991    5957.     *******************************************************************
-
 004F82                            40993    5959.     SET4     PROC  ,SETCLK,SCOPE=LOCAL
 004F82 E2C5E3F440404040           41000             +
 004F8A 0000/0008                  41001             +
 004F8E 900F D004/18AF       00004 41003             +
 USING  SET4,R10
 004F94 50D0 C000/18CD       00000 41018             +
 004F9A 9680 C000      00000       41020             +
 USING  SETCLK-72,R12
 004F9E 41D0 C050            00050 41034             +
 USING  SCP,R7                     41035    5960.              WITH  (SCP,RY)
 004FA2 1B44                       41048    5961.              CLEAR RJ                      OLD INTERVAL
 004FA4 947F 7265      00265       41052    5962.              CLEAR SCBXT                   CANCEL PENDING EXIT
                                   41059    5963.     *
                                   41060    5964.     *  A TIMER IS NOW RUNNING SO CANCEL IT
                                   41061    5965.     *
 004FA8 9180 7263      00263       41062    5966.              IF    SCBTUTR,BEGIN           A TIMER NOW RUNNING
 004FAC 47E0 A074            05002 41072             +
                                   41077  1 5967.     *
                                   41078  1 5968.     *  CPU TIMER IS RUNNING
                                   41079  1 5969.     *
 004FB0 9140 7263      00263       41080  1 5970.                IF    SCBTUCT,BEGIN           CURRENT TIMER IS CPU TIME
 004FB4 47E0 A040            04FCE 41090  1          +
 USING  @CPCNCK-72,R13             41095  2 5971.                  PSET  @CPCNCK
 004FB8 D71F D048 D048 00000 00000 41112  2          +
 004FBE D203 D048 71C8 00000 001C8 41113  2 5972.                  MVC   @CPCID,SCPUCLK          CLOCK ID
 004FC4 58F0 A7FE/0DEF       0578C 41114  2 5973.                  VCALL CPCAN                   CAN IT
 004FCA 6800 D050            00008 41118  2 5974.                  LD    R0,@CPCCLK              PREVIOUS INTERVAL
 004FCE                            41119  1 5975.                END   ,
                                   41123  1 5976.     *
                                   41124  1 5977.     *  REAL TIMER IS RUNNING
                                   41125  1 5978.     *
 004FCE A044           04FCE 04FB6 41126  1 5979.                ELSE  BEGIN                   CURRENT TIMER IS REAL TIME
 004FCE 47F0 A05A            04FE8 41131  1          +
 DROP   @CPCNCK-72,R13             41137  2 5980.                  PSET  @RTCNCK
 USING  @RTCNCK-72,R13
 004FD2 D71F D048 D048 00000 00000 41157  2          +
 004FD8 D203 D048 71C8 00000 001C8 41158  2 5981.                  MVC   @RTCID,SCPUCLK          CLOCK ID
 004FDE 58F0 A802/0DEF       05790 41159  2 5982.                  VCALL RTCAN                   CAN IT
 004FE4 6800 D050            00008 41163  2 5983.                  LD    R0,@RTCCLK              PREVIOUS INTERVAL
 004FE8                            41164  1 5984.                END   ,
1M1SERV   (M1SE00) (09:42) (22MAR04) ORVYL'S Mode 1 Set SVC                                                                 Page  285
0Current Usings:  (PZERO,R0) (SCP,R7) (SET4,R10) (SETCLK-72,R12) (@RTCNCK-72,R13)
0Loc    Object Code    Addr1 Addr2  Stmt Lv Lineno    Source Statement           (Hibal 5, Asmedit 3.3)  HLASM R4.0  2004/03/22 09.42
+___    ______ ____    _____ _____  ____ __ ______    ______ _________
0004FE8 6D00 A79A            05728 41168  1 5985.                DD    R0,=FL8'106667'          TO 26 USEC UNITS
 004FEC 6E00 A7A2            05730 41169  1 5986.                AW    R0,=XL8'4E00000000000000'
 004FF0 6000 C048            00000 41170  1 5987.                STD   R0,SWCLOCK
 004FF4 5840 C04C            00004 41171  1 5988.                L     RJ,SWCLOCK+4            PREVIOUS TIMER
 004FF8                            41172  1 5989.                CLEAR SCPUCLK                 NOTE
 004FF8 D703 71C8 71C8 001C8 001C8 41178  1          +
 004FFE 943F 7263      00263       41179  1 5990.                CLEAR SCBTUTR+SCBTUCT          CANCELLED
 005002                            41189    5991.              END   ,
                                   41193    5992.     *
                                   41194    5993.     *  NOW SET CPU TIMER IF SO REQUESTED
                                   41195    5994.     *
 005002 5830 7014            00014 41196    5995.              L     RB,SCPGPRS+1*4          SUPPLIED TIME VALUE
 005006 1233/4780 A0B6       05044 41197    5996.              IF    (RB,NZ),BEGIN
 DROP   @RTCNCK-72,R13             41211  1 5997.                PSET  @CPSET
 USING  @CPSET-72,R13
 00500C D713 D048 D048 00000 00000 41231  1          +
 005012 D203 D048 A7A2 00000 05730 41232  1 5998.                MVC   @CPSCLK(4),=XL8'4E00000000000000'
 005018 5030 D04C            00004 41233  1 5999.                ST    RB,@CPSCLK+4            NORMALIZED TIME VALUE
 00501C 6800 D048            00000 41234  1 6000.                LD    R0,@CPSCLK
 005020 6C00 A7AA            05738 41235  1 6001.                MD    R0,=D'106667'            TO USEC UNITS
 005024 6E00 A7A2            05730 41236  1 6002.                AW    R0,=XL8'4E00000000000000'
 005028 6000 D048            00000 41237  1 6003.                STD   R0,@CPSCLK
 00502C 9200 D048      00000       41238  1 6004.                MVI   @CPSCLK,0               REMOVE EXPONENT
 005030 D203 D050 71CC 00008 001CC 41239  1 6005.                MVC   @CPSXIT,SCPUCXIT        SET EXIT ID
 005036 58F0 A80A/0DEF       05798 41240  1 6006.                VCALL CPSET                   START THE CLOCK
 00503C 5000 71C8            001C8 41244  1 6007.                ST    RVR,SCPUCLK             SAVE ID
 005040 96C0 7263      00263       41245  1 6008.                SET   SCBTUTR+SCBTUCT         MARK USER CPU CLOCK RUNNING
 005044                            41254    6009.              END   ,
 005044 5040 704C            0004C 41258    6010.              ST    RJ,SCPGPRS+15*4         RETURN VALUE
 005048 981F C008            00008 41259    6011.              PEND
 DROP   SCP,R7
 DROP   SETCLK-72,R12
 DROP   SET4,R10
 00504C 9680 C000/0B0E 00000       41279             +
 DROP   @CPSET-72,R13
1M1SERV   (M1SE00) (09:42) (22MAR04) ORVYL'S Mode 1 Set SVC                                                                 Page  286
0Current Usings:  (PZERO,R0)
0Loc    Object Code    Addr1 Addr2  Stmt Lv Lineno    Source Statement           (Hibal 5, Asmedit 3.3)  HLASM R4.0  2004/03/22 09.42
+___    ______ ____    _____ _____  ____ __ ______    ______ _________
0                                  41289    6013.     *******************************************************************
                                   41290    6014.     *                                                                 *
                                   41291    6015.     *    SET5 (6 and 7) - Set timer, SVC, and PANIC exits             *
                                   41292    6016.     *                                                                 *
                                   41293    6017.     *                                                                 *
                                   41294    6018.     *     Input - RY Points to SCP                                    *
                                   41295    6019.     *                                                                 *
                                   41296    6020.     *    Output -                                                     *
                                   41297    6021.     *                                                                 *
                                   41298    6022.     *                                                                 *
                                   41299    6023.     *******************************************************************
-
 005052                            41301    6025.     SET5     PROC  ,SCOPE=LOCAL
 005052 E2C5E3F540404040           41308             +
 00505A 0000/0000                  41309             +
 00505E 900F D004/18AF       00004 41311             +
 USING  SET5,R10
 005064 50D0 C000/18CD       00000 41326             +
 00506A 9680 C000      00000       41328             +
 00506E 41D0 C048            00048 41329             +
 USING  SCP,R7                     41330    6026.              WITH  (SCP,RY)
 005072 5810 7010            00010 41343    6027.              L     RS,SCPGPRS+0*0          SET REQUEST NUMBER
                                   41344    6028.     *
                                   41345    6029.     *  SET TIMER EXIT
                                   41346    6030.     *
 005076 5910 A73E            0579C 41347    6031.              IF    (RS,EQ,5),'LA  RB,SCPTXEP'    TIMER EXIT
 00507A 4770 A024            05082 41359             +
 00507E 4130 71D8            001D8 41365             +
                                   41370    6032.     *
                                   41371    6033.     *  SET SVC EXIT
                                   41372    6034.     *
 005082 A028           05082 0507C 41373    6035.              ELSEIF (RS,EQ,6),'LA  RB,SCPSXEP'   SVC EXIT
 005082 47F0 A034            05092 41379             +
 005086 5910 A742            057A0 41393             +
 00508A 4770 A034            05092 41394             +
 00508E 4130 71E8            001E8 41400             +
                                   41405    6036.     *
                                   41406    6037.     *  SET PANIC EXIT
                                   41407    6038.     *
 005092 A038           05092 0508C 41408    6039.              ELSE  'LA  RB,SCPPXEP'              PANIC EXIT
 005092 47F0 A03C            0509A 41413             +
 005096 4130 71E0            001E0 41420             +
                                   41425    6040.     *
                                   41426    6041.     *  SET UP EXIT
                                   41427    6042.     *
 USING  @SETEXIT-72,R13            41428    6043.              PSET  @SETEXIT
 00509A D703 D048 D048 00000 00000 41445             +
 0050A0 5030 D048            00000 41446    6044.              ST    RB,@SETEXL              EXIT BLOCK LOCATION
 0050A4 58F0 A746/0DEF       057A4 41447    6045.              ACALL SETEXIT
 0050AA 981F C008            00008 41454    6046.              PEND
 DROP   SCP,R7
 DROP   SET5,R10
1M1SERV   (M1SE00) (09:42) (22MAR04) ORVYL'S Mode 1 Set SVC                                                                 Page  287
0Current Usings:  (PZERO,R0)
0Loc    Object Code    Addr1 Addr2  Stmt Lv Lineno    Source Statement           (Hibal 5, Asmedit 3.3)  HLASM R4.0  2004/03/22 09.42
+___    ______ ____    _____ _____  ____ __ ______    ______ _________
00050AE 9680 C000/0B0E 00000       41469             +
 DROP   @SETEXIT-72,R13
1M1SERV   (M1SE00) (09:42) (22MAR04) ORVYL'S Mode 1 Set SVC                                                                 Page  288
0Current Usings:  (PZERO,R0)
0Loc    Object Code    Addr1 Addr2  Stmt Lv Lineno    Source Statement           (Hibal 5, Asmedit 3.3)  HLASM R4.0  2004/03/22 09.42
+___    ______ ____    _____ _____  ____ __ ______    ______ _________
0                                  41479    6048.     *******************************************************************
                                   41480    6049.     *                                                                 *
                                   41481    6050.     *    SET8 (and 9) - Set I/O attention and wait exits              *
                                   41482    6051.     *                                                                 *
                                   41483    6052.     *                                                                 *
                                   41484    6053.     *     Input - RY Points to SCP                                    *
                                   41485    6054.     *                                                                 *
                                   41486    6055.     *    Output -                                                     *
                                   41487    6056.     *                                                                 *
                                   41488    6057.     *                                                                 *
                                   41489    6058.     *******************************************************************
-
 0050B4                            41491    6060.     SET8     PROC  ,SCOPE=LOCAL
 0050B4 E2C5E3F840404040           41498             +
 0050BC 0000/0000                  41499             +
 0050C0 900F D004/18AF       00004 41501             +
 USING  SET8,R10
 0050C6 50D0 C000/18CD       00000 41516             +
 0050CC 9680 C000      00000       41518             +
 0050D0 41D0 C048            00048 41519             +
 USING  SCP,R7                     41520    6061.              WITH  (SCP,RY)
 0050D4 5810 7010            00010 41533    6062.              L     RS,SCPGPRS+0*0          SET REQUEST NUMBER
                                   41534    6063.     *
                                   41535    6064.     *  SET ATTN EXIT
                                   41536    6065.     *
 0050D8 5910 A6E8            057A8 41537    6066.              IF    (RS,EQ,8),'LA  RB,IDTAXEP-IDT'     INDEX TO EXIT INFO
 0050DC 4770 A024            050E4 41549             +
 0050E0 4130 0014            00014 41555             +
                                   41560    6067.     *
                                   41561    6068.     *  SET WAIT EXIT
                                   41562    6069.     *
 0050E4 A028           050E4 050DE 41563    6070.              ELSE  'LA  RB,IDTWXEP-IDT'    INDEX TO EXIT INFO
 0050E4 47F0 A02C            050EC 41568             +
 0050E8 4130 001C            0001C 41575             +
                                   41580    6071.     *
                                   41581    6072.     *  Find device table
                                   41582    6073.     *
 0050EC 5810 704C            0004C 41583    6074.              L     RS,SCPGPRS+15*4         USER SUPPLIED DEVICE NUMBER
 0050F0 1211/47D0 A03E       050FE 41584    6075.              IF    ((RS,NP),OR,(RS,GT,SCPNIDT)),BEGIN    NOT IN RANGE
 0050F6 4910 7210            00210 41608             +
 0050FA 47D0 A04A            0510A 41609             +
 0050FE 9206 71A9      001A9       41614  1 6076.                MVI   SCPPANSY,PANSPEC        SET CODE FOR SPEC
 005102 9610 7265      00265       41615  1 6077.                SET   SCBXP                   MARK USER FOR PANIC
 005106 47F0 A07A            0513A 41621  1 6078.                EXIT  SET8
 00510A                            41624    6079.              END   ,
 00510A 0610                       41628    6080.              DECR  RS
 00510C 4C10 A736            057F6 41630    6081.              MH    RS,=Y(L'IDT)
 005110 5E10 720C            0020C 41631    6082.              AL    RS,SCPIDT               IDT VIRTUAL ADDDRESS
 USING  IDT,R1                     41632    6083.              WITH  (IDT,RS)
 005114 91C0 1004      00004       41645    6084.              IF    (IDTFA+IDTFACL,Z),BEGIN  NOT ACTIVE
 005118 4770 A068            05128 41660             +
 00511C 9206 71A9      001A9       41665  1 6085.                MVI   SCPPANSY,PANSPEC        SET CODE FOR SPEC
1M1SERV   (M1SE00) (09:42) (22MAR04) ORVYL'S Mode 1 Set SVC                                                                 Page  289
0Current Usings:  (PZERO,R0) (IDT,R1) (SCP,R7) (SET8,R10)
0Loc    Object Code    Addr1 Addr2  Stmt Lv Lineno    Source Statement           (Hibal 5, Asmedit 3.3)  HLASM R4.0  2004/03/22 09.42
+___    ______ ____    _____ _____  ____ __ ______    ______ _________
0005120 9610 7265      00265       41666  1 6086.                SET   SCBXP                   MARK USER FOR PANIC
 005124 47F0 A07A            0513A 41672  1 6087.                EXIT  SET8
 005128                            41675    6088.              END   ,
 005128 1E31                       41679    6089.              ALR   RB,RS                   POINTER TO DEVICE EXIT INFO
 USING  @SETEXIT-72,R13            41680    6090.              PSET  @SETEXIT
 00512A D703 D048 D048 00000 00000 41697             +
 005130 5030 D048            00000 41698    6091.              ST    RB,@SETEXL
 005134 58F0 A6E4/0DEF       057A4 41699    6092.              ACALL SETEXIT
 00513A 981F C008            00008 41706    6093.              PEND
 DROP   IDT,R1
 DROP   SCP,R7
 DROP   SET8,R10
 00513E 9680 C000/0B0E 00000       41726             +
 DROP   @SETEXIT-72,R13
1M1SERV   (M1SE00) (09:42) (22MAR04) ORVYL'S Mode 1 Set SVC                                                                 Page  290
0Current Usings:  (PZERO,R0)
0Loc    Object Code    Addr1 Addr2  Stmt Lv Lineno    Source Statement           (Hibal 5, Asmedit 3.3)  HLASM R4.0  2004/03/22 09.42
+___    ______ ____    _____ _____  ____ __ ______    ______ _________
0                                  41736    6095.     *******************************************************************
                                   41737    6096.     *                                                                 *
                                   41738    6097.     *    SET 10 - Set program environment                             *
                                   41739    6098.     *                                                                 *
                                   41740    6099.     *                                                                 *
                                   41741    6100.     *     Input - RY Points to SCP                                    *
                                   41742    6101.     *                                                                 *
                                   41743    6102.     *    Output -                                                     *
                                   41744    6103.     *                                                                 *
                                   41745    6104.     *                                                                 *
                                   41746    6105.     *******************************************************************
-
 005144                            41748    6107.     SET10    PROC  ,SCOPE=LOCAL
 005144 E2C5E3F1F0404040           41755             +
 00514C 0000/0000                  41756             +
 005150 900F D004/18AF       00004 41758             +
 USING  SET10,R10
 005156 50D0 C000/18CD       00000 41773             +
 00515C 9680 C000      00000       41775             +
 005160 41D0 C048            00048 41776             +
 USING  SCP,R7                     41777    6108.              WITH  (SCP,RY)
 005164 5820 7014            00014 41790    6109.              L     RA,SCPGPRS+1*4          AREA CONTAINING PSW AND REGS
 005168 9180 700C      0000C       41791    6110.              TM    SCPPSW+4,X'80'      31 bit mode?
 00516C 4770 A024            05174 41792    6111.              IF    Z,'N RA,=X"00FFFFFF"'
 005170 5420 A61C            0576C 41804             +
 005174 1222/4770 A02E       0517E 41809    6112.              IF    (RA,Z),'LA RA,SCPXPSW'  EXIT GPRS
 00517A 4120 7070            00070 41824             +
 00517E A032           0517E 05178 41829    6113.              ELSE  BEGIN
 00517E 47F0 A066            051B6 41834             +
 USING  @PAGE-72,R13               41840  1 6114.                PSET  @PAGE
 005182 D708 D048 D048 00000 00000 41857  1          +
 005188 5020 D048            00000 41858  1 6115.                ST    RA,@PAGLOC              SET LOCATION
 00518C D203 D04C A65C 00004 057AC 41859  1 6116.                MVC   @PAGLEN,=A(72)          LENGTH
 005192 D200 D050 7009 00008 00009 41860  1 6117.                MVC   @PAGKEY,SCPPSW+1        PSW KEY
 005198 94F0 D050      00008       41861  1 6118.                NI    @PAGKEY,X'F0'            KEY ONLY
 00519C 58F0 A660/0DEF       057B0 41862  1 6119.                VCALL PAGTPROT               CHECK IT OUT
 0051A2 5900 A664            057B4 41866  1 6120.                IF    (RVR,GE,2),BEGIN          NO GOOD
 0051A6 4750 A066            051B6 41878  1          +
 0051AA 9206 71A9      001A9       41883  2 6121.                  MVI   SCPPANSY,PANSPEC        SET CODE FOR SPEC
 0051AE 9610 7265      00265       41884  2 6122.                  SET   SCBXP                   MARK USER FOR PANIC
 0051B2 47F0 A0E8            05238 41890  2 6123.                  EXIT  SET10
 0051B6                            41893  1 6124.                END   ,
 0051B6                            41897    6125.              END   ,
 0051B6 D23F 7010 2008 00010 00008 41901    6126.              MVC   SCPGPRS(16*4),@RA+8     UPDATE REGS
 0051BC D203 700C 2004 0000C 00004 41902    6127.              MVC   SCPPSW+4(4),@RA+4        AND PSW ADDRESS
                                   41903    6128.     *         MVC   SCPPSW+5(3),@RA+5        AND PSW ADDRESS
                                   41904    6129.     *         MVI   SCPPSW+4,0              24 BIT MODE ONLY
 0051C2 43F0 2002            00002 41905    6130.              IC    R15,@RA+2               UPDATE
 0051C6 54F0 A668            057B8 41906    6131.              N     R15,=X'0000003F'         CC AND PROG MASK
 0051CA 94C0 700A      0000A       41907    6132.              CLEAR SCPPSW+2.X'3F'
 0051CE 44F0 A75A            058AA 41915    6133.              EX    R15,'OI  SCPPSW+2,0'
 0058AA 9600 700A      0000A       41923             +
1M1SERV   (M1SE00) (09:42) (22MAR04) ORVYL'S Mode 1 Set SVC                                                                 Page  291
0Current Usings:  (PZERO,R0) (SCP,R7) (SET10,R10) (@PAGE-72,R13)
0Loc    Object Code    Addr1 Addr2  Stmt Lv Lineno    Source Statement           (Hibal 5, Asmedit 3.3)  HLASM R4.0  2004/03/22 09.42
+___    ______ ____    _____ _____  ____ __ ______    ______ _________
00051D2 96F0 7264      00264       41931    6134.              SET   SCBMB.SCBDEFMB          AVAILABLE MASKS
 0051D6 D400 7264 2003 00264 00003 41937    6135.              NC    SCBMB(1),@RA+3          SET MASK BYTE
1M1SERV   (M1SE00) (09:42) (22MAR04) ORVYL'S Mode 1 Set SVC                                                                 Page  292
0Current Usings:  (PZERO,R0) (SCP,R7) (SET10,R10) (@PAGE-72,R13)
0Loc    Object Code    Addr1 Addr2  Stmt Lv Lineno    Source Statement           (Hibal 5, Asmedit 3.3)  HLASM R4.0  2004/03/22 09.42
+___    ______ ____    _____ _____  ____ __ ______    ______ _________
0                                  41939    6137.     *
                                   41940    6138.     *  CLP IS TRANSFERING CONTROL - SET USER ENVIRONMENT
                                   41941    6139.     *
 0051DC 9180 7262      00262       41942    6140.              IF    SCBFCLP,BEGIN           IF CLP TRANSFERRING CONTROL
 0051E0 47E0 A0D8            05228 41952             +
 0051E4 947F 7262      00262       41957  1 6141.                CLEAR SCBFCLP                 SET CLP NOT IN CONTROL
 0051E8 5820 0200            00200 41964  1 6142.                L     RA,MATPTR               MAT POINTER
 USING  MAT,R2                     41965  1 6143.                WITH  (MAT,RA),'OC  SCPPSW+1(1),MATUKEY'   USER KEY
 0051EC D600 7009 20E1 00009 000E1 41980  1          +
 DROP   MAT,R2
 0051F2 9601 7009      00009       41989  1 6144.                SET   SCPPSW+1.X'01'          SET PROBLEM STATE
 0051F6 9120 7261      00261       41996  1 6145.                IF    SCBCFAX,BEGIN           ENTER ATTENTION EXIT?
 0051FA 47E0 A0BE            0520E 42006  1          +
 0051FE 94DF 7261      00261       42011  2 6146.                  CLEAR SCBCFAX                 YES
 005202 5810 720C            0020C 42018  2 6147.                  L     RS,SCPIDT               TERMINAL IDT
 005206 9610 1005      00005       42019  2 6148.                  WITH  (IDT,RS),'SET  IDTFEAX'   MARK IDT
 USING  IDT,R1
 DROP   IDT,R1
 00520A 9640 7265      00265       42048  2 6149.                  SET   SCBXA                   MARK USER
 00520E                            42054  1 6150.                END   ,
 00520E 9208 D048      00000       42058  1 6151.                UTRACE CLASS=RUNUSER,CODE=SCBMB
 DROP   @PAGE-72,R13
 USING  @UTRACE-72,R13
 005212 D200 D04A 7264 00002 00264 42078  1          +
 005218 D207 D04C 7008 00004 00008 42083  1          +
 00521E 9200 D04B      00003       42084  1          +
 005222 58F0 A66C/0DEF       057BC 42090  1          +
 005228                            42092    6152.              END   ,
 005228 9620 7262      00262       42096    6153.              SET   SCBFNPUP                NO PSW UPDATES
 00522C 58F0 A670/0DEF       057C0 42102    6154.              ACALL PERCHECK                SET UP PER
 005232 58F0 A674/0DEF       057C4 42109    6155.              ACALL DOEXITS                 CHECK FOR EXITS
 005238 981F C008            00008 42116    6156.              PEND
 DROP   SCP,R7
 DROP   SET10,R10
 00523C 9680 C000/0B0E 00000       42131             +
 DROP   @UTRACE-72,R13
1M1SERV   (M1SE00) (09:42) (22MAR04) ORVYL'S Mode 1 Set SVC                                                                 Page  293
0Current Usings:  (PZERO,R0)
0Loc    Object Code    Addr1 Addr2  Stmt Lv Lineno    Source Statement           (Hibal 5, Asmedit 3.3)  HLASM R4.0  2004/03/22 09.42
+___    ______ ____    _____ _____  ____ __ ______    ______ _________
0                                  42141    6158.     *******************************************************************
                                   42142    6159.     *                                                                 *
                                   42143    6160.     *    SET 11 - Set mask byte                                       *
                                   42144    6161.     *                                                                 *
                                   42145    6162.     *                                                                 *
                                   42146    6163.     *     Input - RY Points to SCP                                    *
                                   42147    6164.     *                                                                 *
                                   42148    6165.     *    Output -                                                     *
                                   42149    6166.     *                                                                 *
                                   42150    6167.     *                                                                 *
                                   42151    6168.     *******************************************************************
-
 005242                            42153    6170.     SET11    PROC  ,SCOPE=LOCAL
 005242 E2C5E3F1F1404040           42160             +
 00524A 0000/0000                  42161             +
 00524E 900F D004/18AF       00004 42163             +
 USING  SET11,R10
 005254 50D0 C000/18CD       00000 42178             +
 00525A 9680 C000      00000       42180             +
 00525E 41D0 C048            00048 42181             +
 USING  SCP,R7                     42182    6171.              WITH  (SCP,RY)
 005262 1F11/4310 7264       00264 42195    6172.              LC    RS,SCBMB                OLD MASK BYTE
 005268 5010 704C            0004C 42202    6173.              ST    RS,SCPGPRS+15*4         RETURN
 00526C 5810 7014            00014 42203    6174.              L     RS,SCPGPRS+1*4
 005270 96F0 7264      00264       42204    6175.              SET   SCBMB.SCBDEFMB          AVAILABLE MASKS
 005274 4410 A660            058AE 42210    6176.              EX    RS,'NI  SCBMB,0'        SET NEW MASK BYTE
 0058AE 9400 7264      00264       42218             +
 005278 58F0 A572/0DEF       057C0 42226    6177.              ACALL PERCHECK                SET UP PER
 00527E 58F0 A576/0DEF       057C4 42233    6178.              ACALL DOEXITS                 CHECK FOR EXITS
 005284 981F C008            00008 42240    6179.              PEND
 DROP   SCP,R7
 DROP   SET11,R10
 005288 9680 C000/0B0E 00000       42255             +
1M1SERV   (M1SE00) (09:42) (22MAR04) ORVYL'S Mode 1 Set SVC                                                                 Page  294
0Current Usings:  (PZERO,R0)
0Loc    Object Code    Addr1 Addr2  Stmt Lv Lineno    Source Statement           (Hibal 5, Asmedit 3.3)  HLASM R4.0  2004/03/22 09.42
+___    ______ ____    _____ _____  ____ __ ______    ______ _________
0                                  42262    6181.     *******************************************************************
                                   42263    6182.     *                                                                 *
                                   42264    6183.     *    SET 12 - Put data into common work area                      *
                                   42265    6184.     *                                                                 *
                                   42266    6185.     *                                                                 *
                                   42267    6186.     *     Input - RY Points to SCP                                    *
                                   42268    6187.     *                                                                 *
                                   42269    6188.     *    Output -                                                     *
                                   42270    6189.     *                                                                 *
                                   42271    6190.     *                                                                 *
                                   42272    6191.     *******************************************************************
-
 00528E                            42274    6193.     SET12    PROC  ,SCOPE=LOCAL
 00528E E2C5E3F1F2404040           42281             +
 005296 0000/0000                  42282             +
 00529A 900F D004/18AF       00004 42284             +
 USING  SET12,R10
 0052A0 50D0 C000/18CD       00000 42299             +
 0052A6 9680 C000      00000       42301             +
 0052AA 41D0 C048            00048 42302             +
 USING  SCP,R7                     42303    6194.              WITH  (SCP,RY)
 0052AE 5810 7014            00014 42316    6195.              L     RS,SCPGPRS+1*4
 0052B2 5910 A52E            057C8 42317    6196.              IF    (RS,GT,15),BEGIN
 0052B6 47D0 A02C            052C6 42329             +
 0052BA 9206 71A9      001A9       42334  1 6197.                MVI   SCPPANSY,PANSPEC        SET CODE FOR SPEC
 0052BE 9610 7265      00265       42335  1 6198.                SET   SCBXP                   MARK USER FOR PANIC
 0052C2 47F0 A03A            052D4 42341  1 6199.                EXIT  SET12
 0052C6                            42344    6200.              END   ,
 0052C6 1FFF/43F0 728A       0028A 42348    6201.              LC    R15,SCBUPRI             Return previous
 0052CC 50F0 704C            0004C 42355    6202.              ST    R15,SCPGPRS+15*4         priority
 0052D0 4210 728A            0028A 42356    6203.              STC   RS,SCBUPRI
 0052D4 981F C008            00008 42357    6204.              PEND
 DROP   SCP,R7
 DROP   SET12,R10
 0052D8 9680 C000/0B0E 00000       42372             +
1M1SERV   (M1SE00) (09:42) (22MAR04) ORVYL'S Mode 1 Set SVC                                                                 Page  295
0Current Usings:  (PZERO,R0)
0Loc    Object Code    Addr1 Addr2  Stmt Lv Lineno    Source Statement           (Hibal 5, Asmedit 3.3)  HLASM R4.0  2004/03/22 09.42
+___    ______ ____    _____ _____  ____ __ ______    ______ _________
0                                  42379    6206.     *******************************************************************
                                   42380    6207.     *                                                                 *
                                   42381    6208.     *    SET 13 - Put data into common work area                      *
                                   42382    6209.     *                                                                 *
                                   42383    6210.     *                                                                 *
                                   42384    6211.     *     Input - RY Points to SCP                                    *
                                   42385    6212.     *                                                                 *
                                   42386    6213.     *    Output -                                                     *
                                   42387    6214.     *                                                                 *
                                   42388    6215.     *                                                                 *
                                   42389    6216.     *******************************************************************
-
 0052DE                            42391    6218.     SET13    PROC  ,SCOPE=LOCAL
 0052DE E2C5E3F1F3404040           42398             +
 0052E6 0000/0000                  42399             +
 0052EA 900F D004/18AF       00004 42401             +
 USING  SET13,R10
 0052F0 50D0 C000/18CD       00000 42416             +
 0052F6 9680 C000      00000       42418             +
 0052FA 41D0 C048            00048 42419             +
 USING  SCP,R7                     42420    6219.              WITH  (SCP,RY)
                                   42433    6220.     *
                                   42434    6221.     *  Check displacement
                                   42435    6222.     *
 0052FE 4120 0010            00010 42436    6223.              LA    RA,SCPCWASZ             NUMBER OF BYTES AVAILABLE
 005302 5830 7014            00014 42437    6224.              L     RB,SCPGPRS+1*4          DISPLACEMENT
 005306 1233/4740 A028       05312 42438    6225.              IF    ((RB,M),OR,(RB,NL,RA)),BEGIN
 00530C 1932/4740 A034       0531E 42460             +
 005312 9206 71A9      001A9       42466  1 6226.                MVI   SCPPANSY,PANSPEC        SET CODE FOR SPEC
 005316 9610 7265      00265       42467  1 6227.                SET   SCBXP                   MARK USER FOR PANIC
 00531A 47F0 A0C8            053B2 42473  1 6228.                EXIT  SET13
 00531E                            42476    6229.              END   ,
                                   42480    6230.     *
                                   42481    6231.     *  Check field within bounds
                                   42482    6232.     *
 00531E 1B23                       42483    6233.              SR    RA,RB
                                   42484    6234.   C          IF    ((RA,LT,SCPGPRS+15*4),OR,    GOES PAST THE END
 005320 5920 704C            0004C          6235.                    ('LT  RA,SCPGPRS+15*4',NP)),BEGIN
 005324 4740 A048            05332 42500             +
 005328 5820 704C/1222       0004C 42509             +
 00532E 4720 A054            0533E 42511             +
 005332 9206 71A9      001A9       42516  1 6236.                MVI   SCPPANSY,PANSPEC        SET CODE FOR SPEC
 005336 9610 7265      00265       42517  1 6237.                SET   SCBXP                   MARK USER FOR PANIC
 00533A 47F0 A0C8            053B2 42523  1 6238.                EXIT  SET13
 00533E                            42526    6239.              END   ,
                                   42530    6240.     *
                                   42531    6241.     *  CHECK MEMORY AREA
                                   42532    6242.     *
 USING  @PAGE-72,R13               42533    6243.              PSET  @PAGE
 00533E D708 D048 D048 00000 00000 42550             +
 005344 58F0 7048            00048 42551    6244.              L     R15,SCPGPRS+14*4        LOCATION
 005348 9180 700C      0000C       42552    6245.              TM    SCPPSW+4,X'80'      31 bit mode?
1M1SERV   (M1SE00) (09:42) (22MAR04) ORVYL'S Mode 1 Set SVC                                                                 Page  296
0Current Usings:  (PZERO,R0) (SCP,R7) (SET13,R10) (@PAGE-72,R13)
0Loc    Object Code    Addr1 Addr2  Stmt Lv Lineno    Source Statement           (Hibal 5, Asmedit 3.3)  HLASM R4.0  2004/03/22 09.42
+___    ______ ____    _____ _____  ____ __ ______    ______ _________
000534C 4770 A06A            05354 42553    6246.              IF    Z,'N R15,=X"00FFFFFF"'
 005350 54F0 A482            0576C 42565             +
 005354 50F0 D048            00000 42570    6247.              ST    R15,@PAGLOC             SET LOCATION
 005358 5020 D04C            00004 42571    6248.              ST    RA,@PAGLEN               AND LENGTH
 00535C D200 D050 7009 00008 00009 42572    6249.              MVC   @PAGKEY,SCPPSW+1        PSW KEY
 005362 94F0 D050      00008       42573    6250.              NI    @PAGKEY,X'F0'            KEY ONLY
 005366 58F0 A4C6/0DEF       057B0 42574    6251.              VCALL PAGTPROT                CHECK IT OUT
 00536C 5900 A4CA            057B4 42578    6252.              IF    (RVR,GE,2),BEGIN        NO GOOD
 005370 4750 A096            05380 42590             +
 005374 9206 71A9      001A9       42595  1 6253.                MVI   SCPPANSY,PANSPEC        SET CODE FOR SPEC
 005378 9610 7265      00265       42596  1 6254.                SET   SCBXP                   MARK USER FOR PANIC
 00537C 47F0 A0C8            053B2 42602  1 6255.                EXIT  SET13
 005380                            42605    6256.              END   ,
                                   42609    6257.     *
                                   42610    6258.     *  NOW MOVE THE DATA
                                   42611    6259.     *
 005380 5810 7268            00268 42612    6260.              L     RS,SCBSPB               SPB POINTER
 005384 1211/4780 A0A4       0538E 42613    6261.              IF    (RS,NZ),BEGIN
 00538A 4133 1062            00062 42627  1 6262.                WITH  (SPB,RS),'LA  RB,SPBCWA(RB)'
 USING  SPB,R1
 DROP   SPB,R1
 00538E                            42651    6263.              END   ,
 00538E A0A8           0538E 05388 42655    6264.              ELSE  'LA  RB,SCPCWA(RB)'
 00538E 47F0 A0AC            05396 42660             +
 005392 4133 7214            00214 42667             +
 005396 58E0 7048            00048 42672    6265.              L     R14,SCPGPRS+14*4        USER DATA POINTER
 00539A 9180 700C      0000C       42673    6266.              TM    SCPPSW+4,X'80'      31 bit mode?
 00539E 4770 A0BC            053A6 42674    6267.              IF    Z,'N R14,=X"00FFFFFF"'
 0053A2 54E0 A482            0576C 42686             +
 0053A6 0620/4420 A5C8       058B2 42691    6268.              DEX   RA,'MVC  @RB(0),@R14'
 0058B2 D200 3000 E000 00000 00000 42702             +
 0053AC D203 704C A486 0004C 05770 42710    6269.              MVC   SCPGPRS+15*4,=A(0)      GOOD COMPLETION
 0053B2 981F C008            00008 42711    6270.              PEND
 DROP   SCP,R7
 DROP   SET13,R10
 0053B6 9680 C000/0B0E 00000       42726             +
 DROP   @PAGE-72,R13
1M1SERV   (M1SE00) (09:42) (22MAR04) ORVYL'S Mode 1 Set SVC                                                                 Page  297
0Current Usings:  (PZERO,R0)
0Loc    Object Code    Addr1 Addr2  Stmt Lv Lineno    Source Statement           (Hibal 5, Asmedit 3.3)  HLASM R4.0  2004/03/22 09.42
+___    ______ ____    _____ _____  ____ __ ______    ______ _________
0                                  42736    6272.     *******************************************************************
                                   42737    6273.     *                                                                 *
                                   42738    6274.     *    SET 14 - Reserve memory                                      *
                                   42739    6275.     *                                                                 *
                                   42740    6276.     *                                                                 *
                                   42741    6277.     *     Input - RY Points to SCP                                    *
                                   42742    6278.     *                                                                 *
                                   42743    6279.     *    Output -                                                     *
                                   42744    6280.     *                                                                 *
                                   42745    6281.     *                                                                 *
                                   42746    6282.     *******************************************************************
-
 0053BC                            42748    6284.     SET14    PROC  ,SCOPE=LOCAL
 0053BC E2C5E3F1F4404040           42755             +
 0053C4 0000/0000                  42756             +
 0053C8 900F D004/18AF       00004 42758             +
 USING  SET14,R10
 0053CE 50D0 C000/18CD       00000 42773             +
 0053D4 9680 C000      00000       42775             +
 0053D8 41D0 C048            00048 42776             +
 USING  SCP,R7                     42777    6285.              WITH  (SCP,RY)
                                   42790    6286.     *
                                   42791    6287.     *  Check caller's parameters
                                   42792    6288.     *
 0053DC 5820 7014            00014 42793    6289.              L     RA,SCPGPRS+1*4          MINIMUM VALUE
 0053E0 1222/47B0 A02A       053F2 42794    6290.              IF    (RA,M),BEGIN            CHECK MINIMUM VALUE
 0053E6 9206 71A9      001A9       42808  1 6291.                MVI   SCPPANSY,PANSPEC        SET CODE FOR SPEC
 0053EA 9610 7265      00265       42809  1 6292.                SET   SCBXP                   MARK USER FOR PANIC
 0053EE 47F0 A106            054CE 42815  1 6293.                EXIT  SET14
 0053F2                            42818    6294.              END   ,
                                   42822    6295.     *
                                   42823    6296.     *  Check minimum value
                                   42824    6297.     *
 0053F2 4120 2FFF            00FFF 42825    6298.              LA    RA,@RA+4095             ROUND UP
 0053F6 5420 A3B0            05778 42826    6299.              N     RA,=X'00FFF000'          TO 4K INCREMENT
 0053FA 8820 000C            0000C 42827    6300.              SRL   RA,12                   TO PAGE COUNT
 0053FE 4920 71FA            001FA 42828    6301.              IF    (RA,GT,SCPUNRSV),BEGIN
 005402 47D0 A048            05410 42840             +
 005406 D203 704C A3AC 0004C 05774 42845  1 6302.                MVC   SCPGPRS+15*4,=A(4)      NOT ENOUGH AVAILABLE
 00540C 47F0 A106            054CE 42846  1 6303.                EXIT  SET14
 005410                            42849    6304.              END   ,
                                   42853    6305.     *
                                   42854    6306.     *  Check maximum value
                                   42855    6307.     *
 005410 5830 704C            0004C 42856    6308.              L     RB,SCPGPRS+15*4         MAXIMUM NEEDED
 005414 1233/47B0 A05E       05426 42857    6309.              IF    (RB,M),BEGIN            CHECK MAXIMUM VALUE
 00541A 9206 71A9      001A9       42871  1 6310.                MVI   SCPPANSY,PANSPEC        SET CODE FOR SPEC
 00541E 9610 7265      00265       42872  1 6311.                SET   SCBXP                   MARK USER FOR PANIC
 005422 47F0 A106            054CE 42878  1 6312.                EXIT  SET14
 005426                            42881    6313.              END   ,
 005426 4770 A066            0542E 42885    6314.              IF    Z,'LH  RB,SCPUNRSV'     ZERO GETS MAXIMUM
 00542A 4830 71FA            001FA 42897             +
